0035036553999991958123111004+51933-001250SAO  +0138EGUA V0202901N007210210019N0064001N9+00521+00351999999ADDGF107991999999999999999999MW1051
0135036553999991958123112004+51933-001250SAO  +0138EGUA V0202701N005712200019N0096001N9+00581+00351100671ADDAA124007091GA1011+004509079GA2041+021009039GA3061+220009029GF107991999999999999999999KA1999M+00961KA2999N+00191MA1999999098951MW1051
0035036553999991958123113004+51933-001250SAO  +0138EGUA V0202701N004612200019N0128001N9+00691+00351999999ADDGF107991999999999999999999MW1001
0035036553999991958123114004+51933-001250SAO  +0138EGUA V0202701N005712200019N0128001N9+00691+00351999999ADDGF107991999999999999999999MW1001
0082036553999991958123115004+51933-001250SAO  +0138EGUA V0202701N004612200019N0176001N9+00691+00351100981ADDGA1011+003609079GA2071+220009029GF107991999999999999999999MA1999999099261MW1001
0035036553999991958123116004+51933-001250SAO  +0138EGUA V0202301N002112200019N0176001N9+00581+00241999999ADDGF107991999999999999999999MW1001
0035036553999991958123117004+51933-001250SAO  +0138EGUA V0202501N004112200019N0176001N9+00521+00241999999ADDGF107991999999999999999999MW1001
0066036553999991958123118004+51933-001250SAO  +0138EGUA V0202501N004112200019N0176001N9+00411+00191101251ADDGA1021+220009029GF102991999999999999999999MA1999999099491MW1001
0035036553999991958123119004+51933-001250SAO  +0138EGUA V0201801N002112200019N0176001N9+00301+00131999999ADDGF100991999999999999999999MW1001
0035036553999991958123120004+51933-001250SAO  +0138EGUA V0202001N004112200019N0176001N9+00241+00081999999ADDGF100991999999999999999999MW1001
0066036553999991958123121004+51933-001250SAO  +0138EGUA V0202301N002112200019N0176001N9+00301+00081101391ADDGA1001+999999999GF100991999999999999999999MA1999999099631MW1001
0035036553999991958123122004+51933-001250SAO  +0138EGUA V0202301N004112200019N0144001N9+00241+00131999999ADDGF100991999999999999999999MW1001
0035036553999991958123123004+51933-001250SAO  +0138EGUA V0202301N004112200019N0144001N9+00241+00131999999ADDGF100991999999999999999999MW1001
