0035036553999991960123113004+51933-001250SAO  +0133EGUA V0202301N005112200019N0176001N9+00631+00241999999ADDGF107991999999999999999999MW1001
0035036553999991960123114004+51933-001250SAO  +0133EGUA V0202301N006210270019N0240001N9+00631+00241999999ADDGF107991999999999999999999MW1001
0114036553999991960123115004+51933-001250SAO  +0133EGUA V0202001N004610063019N0240001N9+00461+00241100681ADDGA1051+006309089GA2011+012009059GA3021+027009049GA4011+220009029GF107991999999999999999999MA1999999098951MW1001
0035036553999991960123116004+51933-001250SAO  +0133EGUA V0202301N005712200019N0176001N9+00521+00191999999ADDGF102991999999999999999999MW1001
0035036553999991960123117004+51933-001250SAO  +0133EGUA V0202301N005112200019N0176001N9+00411+00131999999ADDGF102991999999999999999999MW1001
0082036553999991960123118004+51933-001250SAO  +0133EGUA V0202301N004612200019N0200001N9+00351+00131100641ADDGA1011+012009059GA2011+027009039GF102991999999999999999999MA1999999098921MW1001
0035036553999991960123119004+51933-001250SAO  +0133EGUA V0202001N003612200019N0200001N9+00411+00081999999ADDGF102991999999999999999999MW1001
0035036553999991960123120004+51933-001250SAO  +0133EGUA V0202001N003112200019N0144001N9+00301+00131999999ADDGF102991999999999999999999MW1001
0082036553999991960123121004+51933-001250SAO  +0133EGUA V0202301N003612200019N0128001N9+00301+00131100811ADDGA1011+030009039GA2021+220009009GF102991999999999999999999MA1999999099051MW1001
0035036553999991960123122004+51933-001250SAO  +0133EGUA V0202301N004612200019N0128001N9+00241+00081999999ADDGF107991999999999999999999MW1001
0035036553999991960123123004+51933-001250SAO  +0133EGUA V0202301N003612200019N0128001N9+00301+00131999999ADDGF107991999999999999999999MW1001
