0097010300999991955010106004+69700+019017FM-12+002499999V0202501N00931007201CN0200001N9+00391-00111101841ADDAA199001091AY161999GA1081+007209099GF108991081091008001999999KA1999N+00221MD1210251+9999MW1801
0073010300999991955010109004+69700+019017FM-12+002499999V0202501N00671006001CN0080001N9+00221-00111102221ADDAY181999GA1081+006009099GF108991081091008001999999MD1210381+9999MW1831
0073010300999991955010112004+69700+019017FM-12+002499999V0202901N00261006601CN0049001N9+00221-00111102881ADDAY181999GA1081+006609099GF108991081091008001999999MD1210661+9999MW1831
0073010300999991955010115004+69700+019017FM-12+002499999V0203401N00101006901CN0300001N9+00221-00281103471ADDAY181999GA1071+006909099GF107991071091012501001001MD1210591+9999MW1871
0097010300999991955010118004+69700+019017FM-12+002499999V0203401N00461006901CN0300001N9+00221-00281103741ADDAA199004091AY181999GA1071+006909099GF107991071091012501001001KA1999M+00501MD1210271+9999MW1871
0097010300999991955010206004+69700+019017FM-12+002499999V0202901N00151009001CN0500001N9+00281-00111104251ADDAA199003091AY181999GA1051+009009099GF105991051091008001001001KA1999N+00001MD1210151+9999MW1011
0073010300999991955010209004+69700+019017FM-12+002499999V0202301N00261009001CN0300001N9+00221-00111104371ADDAY181999GA1061+009009099GF106991061091008001001001MD1210121+9999MW1831
0089010300999991955010212004+69700+019017FM-12+002499999V0202501N00261008101CN0100001N9+00111+00001104401ADDAY181999GA1071+008109099GA2021+003009009GF107991071091008001001001MD1210031+9999MW1831
0073010300999991955010215004+69700+019017FM-12+002499999V0202501N00461009001CN0100001N9+00221+00111104401ADDAY181999GA1051+009009089GF107991051081008001071001MD1410001+9999MW1151
0097010300999991955010218004+69700+019017FM-12+002499999V0202301N00671220001CN0150001N9+00281+00001104291ADDAA199002091AY181999GA1031+007509059GF108991031051008001021999KA1999M+00391MD1810111+9999MW1681
0073010300999991955010300004+69700+019017FM-12+002499999V0202301N00931009001CN0500001N9+00281-00281103931ADDAY171999GA1061+009009059GF106991061051008001001001MD1710231+9999MW1021
0073010300999991955010303004+69700+019017FM-12+002499999V0202301N00931009001CN0500001N9+00281-00221103741ADDAY121999GA1071+009009059GF108991071051008001021999MD1810191+9999MW1031
0116010300999991955010306004+69700+019017FM-12+002499999V0202301N00931007501CN0250001N9+00221+00001103521ADDAA199000691AY161999GA1081+007509059GF108991999051008001021999KA1999N+00221MD1710221+9999MW1611EQDQ01+000082SCOTLC
0073010300999991955010309004+69700+019017FM-12+002499999V0202101N00771007201CN0100001N9+00221+00111103411ADDAY161999GA1061+007209059GF108991061051008001021999MD1610111+9999MW1601
0073010300999991955010312004+69700+019017FM-12+002499999V0202301N00721006001CN0100001N9+00281+00221103291ADDAY161999GA1061+006009079GF108991061071008001021999MD1810121+9999MW1611
0073010300999991955010315004+69700+019017FM-12+002499999V0202301N00721006001CN0050001N9+00281+00221103221ADDAY161999GA1061+006009079GF108991061071008001021999MD1710071+9999MW1611
0097010300999991955010318004+69700+019017FM-12+002499999V0202301N00721004501CN0050001N9+00281+00221103121ADDAA199004091AY161999GA1061+004509079GF108991061071004501021999KA1999M+00281MD1710101+9999MW1611
0073010300999991955010400004+69700+019017FM-12+002499999V0202301N00721007501CN0300001N9+00281+00111102671ADDAY161999GA1061+007509059GF108991061051008001021999MD1710241+9999MW1151
0073010300999991955010403004+69700+019017FM-12+002499999V0202101N00821007501CN0200001N9+00281+00221102411ADDAY181999GA1071+007509099GF107991071091008001001001MD1710261+9999MW1801
0097010300999991955010406004+69700+019017FM-12+002499999V0202301N00931007501CN0150001N9+00281+00221101961ADDAA199000691AY181999GA1071+007509079GF108991071071008001021999KA1999N+00221MD1710451+9999MW1611
0073010300999991955010409004+69700+019017FM-12+002499999V0202701N00261004801CN0050001N9+00281+00221101931ADDAY161999GA1071+004809079GF108991071071004501021999MD1710031+9999MW1601
0073010300999991955010412004+69700+019017FM-12+002499999V0202301N00261006001CN0300001N9+00281+00111101891ADDAY161999GA1071+006009079GF108991071071008001021999MD1610041+9999MW1151
0073010300999991955010415004+69700+019017FM-12+002499999V0203401N00671006001CN0010001N9+00001-00111101881ADDAY171999GA1081+006009099GF108991081091008001999999MD1510011+9999MW1861
0097010300999991955010418004+69700+019017FM-12+002499999V0202301N00461006901CN0050001N9-00111-00391102001ADDAA199009091AY181999GA1071+006909099GF107991071091008001001001KA1999M+00391MD1210121+9999MW1851
0073010300999991955010500004+69700+019017FM-12+002499999V0209991C00001220001CN0500001N9-00501-00891102451ADDAY181999GA1031+009009099GF103991031091008001001001MD1110131+9999MW1021
0073010300999991955010503004+69700+019017FM-12+002499999V0203401N00261007501CN0040001N9-00501-00721102401ADDAY181999GA1081+007509099GF108991081091008001999999MD1810051+9999MW1851
0097010300999991955010506004+69700+019017FM-12+002499999V0209991C00001007501CN0500001N9-00501-00611102261ADDAA199003091AY181999GA1061+007509099GF106991061091008001001001KA1999N-00611MD1710141+9999MW1261
0073010300999991955010509004+69700+019017FM-12+002499999V0209991C00001006901CN0300001N9-00501-00611102261ADDAY181999GA1061+006909099GF106991061091008001061001MD1010001+9999MW1261
0073010300999991955010512004+69700+019017FM-12+002499999V0200701N00511007801CN0300001N9-00391-00781102371ADDAY181999GA1051+007809099GF105991051091008001061001MD1210111+9999MW1261
0089010300999991955010515004+69700+019017FM-12+002499999V0200901N00261220001CN0500001N9-00391-01111102441ADDAY121999GA1011+009009089GA2011+024009039GF102991011021008001061001MD1110071+9999MW1011
0097010300999991955010518004+69700+019017FM-12+002499999V0202501N00261004501CN0019001N9-00611-00781102441ADDAA199003091AY181999GA1081+004509099GF108991081091004501999999KA1999M-00281MD1510001+9999MW1851
0073010300999991955010600004+69700+019017FM-12+002499999V0202301N00461005101CN0003001N9-00391-00501102141ADDAY181999GA1081+005109099GF108991081091004501999999MD1710181+9999MW1861
0073010300999991955010603004+69700+019017FM-12+002499999V0202301N00461004501CN0003001N9-00391-00501101911ADDAY181999GA1081+004509099GF108991081091004501999999MD1710231+9999MW1861
0097010300999991955010606004+69700+019017FM-12+002499999V0202301N00671005101CN0100001N9-00391-00501101581ADDAA199006091AY181999GA1051+005109099GF105991051091004501001001KA1999N-00721MD1710331+9999MW1851
0073010300999991955010609004+69700+019017FM-12+002499999V0202301N00671006901CN0060001N9-00281-00391101201ADDAY181999GA1071+006909099GF107991071091008001001001MD1710381+9999MW1851
0073010300999991955010612004+69700+019017FM-12+002499999V0202301N00931005401CN0019001N9-00221-00281100791ADDAY181999GA1061+005409079GF108991061071004501999999MD1710411+9999MW1721
0073010300999991955010615004+69700+019017FM-12+002499999V0202301N00671005401CN0010001N9-00221-00281100471ADDAY171999GA1081+005409079GF108991081071004501999999MD1710321+9999MW1731
0097010300999991955010618004+69700+019017FM-12+002499999V0209991C00001006001CN0100001N9-00221-00221100311ADDAA199011091AY171999GA1071+006009079GF107991071071004501999999KA1999M-00221MD1710161+9999MW1711
0073010300999991955010700004+69700+019017FM-12+002499999V0202501N00261006301CN0140001N9-00391-00501100031ADDAY171999GA1051+006309059GF106991051051008001041001MD1710151+9999MW1701
0073010300999991955010703004+69700+019017FM-12+002499999V0200201N00931000601CN0005001N9-00281-00391100061ADDAY171999GA1091+000609999GF109991091999000751999999MD1310031+9999MW1861
0097010300999991955010706004+69700+019017FM-12+002499999V0200501N00771006001CN0070001N9-00391-00721100301ADDAA199002091AY181999GA1081+006009099GF108991081091008001999999KA1999N-00611MD1210241+9999MW1851
0073010300999991955010709004+69700+019017FM-12+002499999V0200501N00461006901CN0450001N9-00391-00891100481ADDAY181999GA1061+006909099GF106991061091008001001001MD1210181+9999MW1151
0073010300999991955010712004+69700+019017FM-12+002499999V0201601N00101220001CN0500001N9-00611-01001100591ADDAY181999GA1021+007509089GF102991021081008001001021MD1210111+9999MW1021
0089010300999991955010715004+69700+019017FM-12+002499999V0202301N00211220001CN0500001N9-00611-00891100681ADDAY101999GA1041+009009089GA2011+006009059GF105991041081008001041001MD1210091+9999MW1031
0097010300999991955010718004+69700+019017FM-12+002499999V0202301N00101220001CN0500001N9-00611-00781100661ADDAA199001091AY181999GA1011+009009089GF106991011081008001071021KA1999M-00391MD1810021+9999MW1031
0073010300999991955010800004+69700+019017FM-12+002499999V0202301N00771007501CN0020001N9-00501-00611100311ADDAY181999GA1081+007509099GF108991081091008001999999MD1610231+9999MW1851
0073010300999991955010803004+69700+019017FM-12+002499999V0202501N00261007501CN0500001N9-00501-00611100231ADDAY181999GA1071+007509099GF107991071091008001999999MD1710081+9999MW1021
0097010300999991955010806004+69700+019017FM-12+002499999V0200201N00671007501CN0250001N9-00391-00721100281ADDAA199004091AY181999GA1071+007509099GF107991071091008001999999KA1999N-00721MD1310051+9999MW1851
0073010300999991955010809004+69700+019017FM-12+002499999V0200201N00621006001CN0060001N9-00611-00721100531ADDAY181999GA1071+006009099GF107991071091008001001001MD1310251+9999MW1151
0073010300999991955010812004+69700+019017FM-12+002499999V0203601N00411220001CN0400001N9-00721-01111100631ADDAY181999GA1021+008409089GF103991021081008001001021MD1210101+9999MW1151
0073010300999991955010815004+69700+019017FM-12+002499999V0209991C00001220001CN0500001N9-00891-01281100641ADDAY101999GA1011+009009089GF103991011081008001041021MD1210011+9999MW1021
0116010300999991955010818004+69700+019017FM-12+002499999V0202301N00261220001CN0500001N9-00781-01221100551ADDAA199002091AY101999GA1011+030009039GF103991999001999999041021KA1999M-00391MD1810091+9999MW1021EQDQ01+000002SCOTLC
0097010300999991955010906004+69700+019017FM-12+002499999V0202401N00671007201CN0090001N9-00611-00721099611ADDAA199001091AY171999GA1081+007209059GF108991081051008001999999KA1999N-00891MD1710201+9999MW1701
0073010300999991955010909004+69700+019017FM-12+002499999V0202301N00461007201CN0080001N9-00501-00721099481ADDAY171999GA1051+007209079GF108991051071008001021999MD1710131+9999MW1701
0073010300999991955010912004+69700+019017FM-12+002499999V0202301N00671009001CN0080001N9-00501-00611099241ADDAY171999GA1081+009009049GF108991011071008001021999MD1710241+9999MW1701
0073010300999991955010915004+69700+019017FM-12+002499999V0202301N00461000601CN0006001N9-00501-00611099171ADDAY171999GA1091+000609999GF109991091999000751999999MD1510071+9999MW1861
0097010300999991955010918004+69700+019017FM-12+002499999V0202501N00261006601CN0060001N9-00501-00721099181ADDAA199006091AY171999GA1081+006609099GF108991081091008001999999KA1999M-00501MD1110011+9999MW1851
0073010300999991955011000004+69700+019017FM-12+002499999V0202501N00461000601CN0005001N9-00611-00721098991ADDAY181999GA1091+000609999GF109991091999000751999999MD1710101+9999MW1861
0073010300999991955011003004+69700+019017FM-12+002499999V0202301N01031003901CN0005001N9-00611-00721098851ADDAY181999GA1081+003909099GF108991081091004501999999MD1710141+9999MW1861
0097010300999991955011006004+69700+019017FM-12+002499999V0202001N01181007501CN0030001N9-00501-00891098621ADDAA199004091AY181999GA1081+007509049GF108991081001008001021999KA1999N-00781MD1710231+9999MW1711
0073010300999991955011009004+69700+019017FM-12+002499999V0202001N01231006001CN0050001N9-00501-00721098381ADDAY181999GA1081+006009099GF108991081091008001999999MD1710241+9999MW1851
0073010300999991955011012004+69700+019017FM-12+002499999V0202001N01901008101CN0400001N9-00501-01001098311ADDAY181999GA1071+008109099GF107991071091008001001001MD1610071+9999MW1381
0073010300999991955011015004+69700+019017FM-12+002499999V0202101N01231007501CN0300001N9-00501-01001098231ADDAY181999GA1081+007509099GF108991081091008001999999MD1710081+9999MW1381
0097010300999991955011018004+69700+019017FM-12+002499999V0202001N00931220001CN0500001N9-00501-01281098121ADDAA199001091AY181999GA1021+012009059GF104991021051012501041001KA1999M-00391MD1710121+9999MW1011
0092010300999991955011100004+69700+019017FM-12+002499999V0209991C00001220001CN0500001N9-00721-01501097761ADDAY101999GA1011+030009039GF105991999001999999041071MD1710201+9999MW1031EQDQ01+000002SCOTLC
0092010300999991955011103004+69700+019017FM-12+002499999V0200201N00261030001CN0500001N9-00611-01391097451ADDAY121999GA1081+030009049GF108991999001999999071999MD1710311+9999MW1031EQDQ01+000002SCOTLC
0102010300999991955011106004+69700+019017FM-12+002499999V0200901N00461030001CN0500001N9-00391-01001097141ADDAY121999GA1081+030009049GA2011+012009059GF108991011051012501071999KA1999N-00781MD1710311+9999MW1021
0089010300999991955011109004+69700+019017FM-12+002499999V0200701N00511030001CN0300001N9-00391-00891096941ADDAY121999GA1081+030009049GA2021+007509059GF108991021051008001071999MD1710201+9999MW1151
0089010300999991955011112004+69700+019017FM-12+002499999V0200901N00461030001CN0500001N9-00391-01001096711ADDAY121999GA1081+030009049GA2011+008109059GF108991011051008001071999MD1710231+9999MW1021
0089010300999991955011115004+69700+019017FM-12+002499999V0200901N00261030001CN0500001N9-00391-00891096511ADDAY121999GA1071+030009049GA2011+009009059GF107991011051008001071999MD1710201+9999MW1021
0070010300999991955011118004+69700+019017FM-12+002499999V0200701N00671220001CN0500001N9-00281-00721096331ADDAY121999GF102991001001999999041021KA1999M-00281MD1710181+9999MW1021
0073010300999991955011200004+69700+019017FM-12+002499999V0202501N00621001501CN0040001N9-00501-00611095921ADDAY171999GA1091+001509999GF109991091999001501999999MD1710241+9999MW1731
0073010300999991955011203004+69700+019017FM-12+002499999V0202501N00261220001CN0300001N9-00501-00611095841ADDAY171999GA1041+008109089GF107991041081008001071001MD1610081+9999MW1151
0097010300999991955011206004+69700+019017FM-12+002499999V0203601N00261001201CN0020001N9-00281-00391095921ADDAA199003091AY171999GA1091+001209999GF109991091999001501999999KA1999N-00611MD1210081+9999MW1731
0073010300999991955011209004+69700+019017FM-12+002499999V0200201N01541006001CN0060001N9-00111-00221096111ADDAY181999GA1081+006009099GF108991081091004501999999MD1210191+9999MW1851
0073010300999991955011212004+69700+019017FM-12+002499999V0200201N01231007501CN0050001N9+00001-00391096371ADDAY181999GA1081+007509099GF108991081091008001999999MD1210261+9999MW1851
0073010300999991955011215004+69700+019017FM-12+002499999V0203601N01031006901CN0090001N9-00111-00391096641ADDAY181999GA1071+006909099GF107991071091008001001001MD1210271+9999MW1851
0097010300999991955011218004+69700+019017FM-12+002499999V0203601N01541000151CN0003001N9-00281-00391096911ADDAA199005091AY181999GA1091+000159999GF109991091999000251999999KA1999M+00001MD1210271+9999MW1861
0073010300999991955011300004+69700+019017FM-12+002499999V0203601N00771007501CN0500001N9-00391-00781097581ADDAY181999GA1081+007509089GF108991081081008001999999MD1210251+9999MW1021
0073010300999991955011303004+69700+019017FM-12+002499999V0203601N00101009001CN0500001N9-00501-00781097811ADDAY181999GA1081+009009089GF108991081081008001999999MD1210231+9999MW1021
0097010300999991955011306004+69700+019017FM-12+002499999V0203201N00101009001CN0500001N9-00501-00721097941ADDAA199000591AY181999GA1071+009009089GF107991071081008001999999KA1999N-00611MD1210131+9999MW1021
0073010300999991955011309004+69700+019017FM-12+002499999V0203201N00101008101CN0080001N9-00611-00721098081ADDAY111999GA1071+008109099GF107991071091008001001001MD1110141+9999MW1851
0089010300999991955011312004+69700+019017FM-12+002499999V0209991C00001012001CN0500001N9-00611-00781098081ADDAY181999GA1061+012009059GA2011+007509089GF107991061051012501001021MD1410001+9999MW1031
0092010300999991955011315004+69700+019017FM-12+002499999V0202001N00671220001CN0500001N9-00501-01001098081ADDAY121999GA1041+012009059GF105991041051012501041021MD1410001+9999MW1011EQDQ01+000082APCTEN
0097010300999991955011318004+69700+019017FM-12+002499999V0202301N00671220001CN0500001N9-00611-01111098021ADDAA199000391AY111999GA1011+012009059GF102991011051012501041001KA1999M-00501MD1810061+9999MW1011
0073010300999991955011400004+69700+019017FM-12+002499999V0202101N00671220001CN0500001N9-00501-01391097891ADDAY101999GA1021+012009059GF105991021051012501041021MD1610061+9999MW1021
0073010300999991955011403004+69700+019017FM-12+002499999V0202501N00261220001CN0500001N9-00391-01281097741ADDAY111999GA1021+024009039GF102991021001999999041001MD1710151+9999MW1011
0086010300999991955011406004+69700+019017FM-12+002499999V0202301N00261220001CN0500001N9-00501-01221097631ADDAY111999GA1041+024009039GF106991041001999999041021KA1999N-00611MD1610111+9999MW1021
0089010300999991955011409004+69700+019017FM-12+002499999V0202301N00461220001CN0500001N9-00501-01111097621ADDAY121999GA1031+012009059GA2021+024009039GF105991031051012501041021MD1510011+9999MW1021
0089010300999991955011412004+69700+019017FM-12+002499999V0202101N00671220001CN0500001N9-00501-01111097661ADDAY171999GA1041+009009059GA2031+024009039GF107991041051008001071021MD1210041+9999MW1021
0089010300999991955011415004+69700+019017FM-12+002499999V0202101N00671220001CN0500001N9-00501-01221097721ADDAY121999GA1021+012009059GA2021+024009039GF106991021051012501071021MD1110061+9999MW1021
0113010300999991955011418004+69700+019017FM-12+002499999V0202001N00311220001CN0500001N9-00391-01111097861ADDAA199000691AY121999GA1021+012009059GA2031+024009039GF105991021051012501071001KA1999M-00281MD1210141+9999MW1021
0073010300999991955011500004+69700+019017FM-12+002499999V0202501N00671220001CN0500001N9-00391-01281098131ADDAY101999GA1011+013509059GF102991011051012501041001MD1210181+9999MW1021
0057010300999991955011503004+69700+019017FM-12+002499999V0202701N00101220001CN0500001N9-00501-01391098201ADDAY101999GF101991001001999999041021MD1010071+9999MW1011
0070010300999991955011506004+69700+019017FM-12+002499999V0202301N00461220001CN0500001N9-00611-01391098251ADDAY101999GF101991011011012501041021KA1999N-00721MD1310051+9999MW1021
0073010300999991955011509004+69700+019017FM-12+002499999V0202301N00461220001CN0500001N9-00501-01221098451ADDAY101999GA1011+012009059GF102991011051012501041021MD1210201+9999MW1031
0073010300999991955011512004+69700+019017FM-12+002499999V0202301N00261220001CN0500001N9-00501-01391098631ADDAY101999GA1011+014109059GF102991011051012501041021MD1210181+9999MW1021
0092010300999991955011515004+69700+019017FM-12+002499999V0203401N00101220001CN0500001N9-00501-01391098721ADDAY101999GA1011+060009009GF101991001001999999001011MD1210091+9999MW1011EQDQ01+000012SCOTLC
0086010300999991955011518004+69700+019017FM-12+002499999V0202701N00261220001CN0500001N9-00611-01391098831ADDAY101999GA1011+030009039GF101991011001999999041011KA1999M-00391MD1210111+9999MW1021
0105010300999991955011606004+69700+019017FM-12+002499999V0200901N00261220001CN0500001N9-00281-00781099051ADDAY101999GA1011+030009039GF101991999001999999041021KA1999N-00781MD1110021+9999MW1021EQDQ01+000002SCOTLC
0073010300999991955011609004+69700+019017FM-12+002499999V0202301N00261030001CN0500001N9-00501-00891099051ADDAY111999GA1071+030009049GF107991011051017501071001MD1410001+9999MW1031
0089010300999991955011612004+69700+019017FM-12+002499999V0202501N00261030001CN0500001N9-00501-00611098991ADDAY171999GA1021+006009089GA2071+030009039GF107991021081008001071001MD1810061+9999MW1221
0073010300999991955011615004+69700+019017FM-12+002499999V0202301N00461006001CN0020001N9-00501-00611098871ADDAY181999GA1081+006009099GF108991081091008001999999MD1710121+9999MW1861
0097010300999991955011618004+69700+019017FM-12+002499999V0202301N00461006001CN0020001N9-00391-00501098741ADDAA199004091AY181999GA1081+006009099GF108991081091008001999999KA1999M-00281MD1710131+9999MW1861
0073010300999991955011700004+69700+019017FM-12+002499999V0200201N01751000901CN0006001N9-00221-00221098571ADDAY181999GA1091+000909999GF109991091999000751999999MD1710061+9999MW1861
0073010300999991955011703004+69700+019017FM-12+002499999V0200701N01541001801CN0040001N9-00111-00221098691ADDAY181999GA1091+001809999GF109991091999001501999999MD1210121+9999MW1381
0097010300999991955011706004+69700+019017FM-12+002499999V0200501N01341008101CN0300001N9-00111-00611098831ADDAA199006091AY181999GA1061+008109099GF106991061091008001001001KA1999N-00501MD1210141+9999MW1381
0073010300999991955011709004+69700+019017FM-12+002499999V0200501N01231008101CN0050001N9-00111-00501098921ADDAY181999GA1071+008109099GF107991071091008001999999MD1210091+9999MW1851
0073010300999991955011712004+69700+019017FM-12+002499999V0200501N00671007501CN0150001N9-00221-00281098951ADDAY181999GA1061+007509099GF106991061091008001001001MD1210031+9999MW1851
0073010300999991955011715004+69700+019017FM-12+002499999V0200201N00671007501CN0120001N9-00221-00281099001ADDAY181999GA1071+007509099GF107991071091008001001001MD1210051+9999MW1851
0097010300999991955011718004+69700+019017FM-12+002499999V0200701N00671006601CN0029001N9-00281-00391098991ADDAA199001091AY181999GA1081+006609099GF108991081091008001999999KA1999M+00001MD1710011+9999MW1851
0057010300999991955011800004+69700+019017FM-12+002499999V0200501N00261220001CN0500001N9-00281-00721098991ADDAY181999GF101991011081008001001001MD1710021+9999MW1011
0057010300999991955011803004+69700+019017FM-12+002499999V0209991C00001220001CN0500001N9-00501-00891098991ADDAY101999GF101991011081008001041001MD1410001+9999MW1021
0116010300999991955011806004+69700+019017FM-12+002499999V0209991C00001220001CN0500001N9-00611-01001098951ADDAA199000391AY101999GA1011+027009039GF101991999001999999041001KA1999N-00611MD1710041+9999MW1021EQDQ01+000002SCOTLC
0092010300999991955011809004+69700+019017FM-12+002499999V0202301N00101220001CN0500001N9-00611-01001098951ADDAY101999GA1011+015009059GF101991011041017501999051MD1410001+9999MW1021EQDQ01    003SCOMCG
0092010300999991955011812004+69700+019017FM-12+002499999V0209991C00001220001CN0500001N9-00721-01111098901ADDAY101999GA1011+060009009GF101991001001999999001021MD1810051+9999MW1021EQDQ01+000012SCOTLC
0073010300999991955011815004+69700+019017FM-12+002499999V0202501N00101220001CN0500001N9-00781-01001098881ADDAY101999GA1011+013509059GF101991011051012501001021MD1610021+9999MW1021
0070010300999991955011818004+69700+019017FM-12+002499999V0209991C00001220001CN0500001N9-00781-00891098881ADDAY101999GF100991001001999999001001KA1999M-00611MD1410001+9999MW1011
0073010300999991955011900004+69700+019017FM-12+002499999V0202501N00101220001CN0500001N9-00891-01001098891ADDAY101999GA1011+012009059GF101991011051012501001001MD1410001+9999MW1021
0073010300999991955011903004+69700+019017FM-12+002499999V0202301N00101220001CN0500001N9-00891-01001098931ADDAY101999GA1011+012009059GF101991011051012501001001MD1110041+9999MW1021
0086010300999991955011906004+69700+019017FM-12+002499999V0202501N00261220001CN0500001N9-00781-00781098971ADDAY101999GA1011+009009059GF101991011051008001001001KA1999N-01001MD1210041+9999MW1021
0089010300999991955011909004+69700+019017FM-12+002499999V0202301N00261007801CN0040001N9-00781-00781099121ADDAY121999GA1031+001209079GA2051+007809079GF108991031061001501999999MD1210151+9999MW1101
0089010300999991955011912004+69700+019017FM-12+002499999V0202501N00261009001CN0050001N9-00781-00781099261ADDAY121999GA1031+001509079GA2051+009009079GF108991031061001501999999MD1210141+9999MW1101
0089010300999991955011915004+69700+019017FM-12+002499999V0202501N00261009001CN0050001N9-00781-00781099341ADDAY121999GA1051+009009079GA2031+001509079GF108991081061008001999999MD1210081+9999MW1101
0102010300999991955011918004+69700+019017FM-12+002499999V0202501N00261009001CN0100001N9-00781-00781099431ADDAY121999GA1061+009009079GA2021+001509079GF108991081061008001999999KA1999M-00781MD1210091+9999MW1101
0073010300999991955012000004+69700+019017FM-12+002499999V0202301N00101220001CN0500001N9-00891-00891099711ADDAY121999GA1011+003009079GF101991011061004501001001MD1210161+9999MW1011
0073010300999991955012003004+69700+019017FM-12+002499999V0202301N00261220001CN0500001N9-00891-00891099851ADDAY101999GA1011+006009079GF102991011061008001001011MD1210141+9999MW1021
0086010300999991955012006004+69700+019017FM-12+002499999V0202301N00101220001CN0500001N9-00891-00891100021ADDAY101999GA1011+007509059GF102991011051008001001011KA1999N-01001MD1210171+9999MW1021
0057010300999991955012009004+69700+019017FM-12+002499999V0202301N00101220001CN0500001N9-00781-00781100251ADDAY101999GF102991001001999999001021MD1210231+9999MW1021
0092010300999991955012012004+69700+019017FM-12+002499999V0202501N00261220001CN0500001N9-00721-00781100471ADDAY101999GA1011+045009039GF102991999001999999041021MD1210221+9999MW1021EQDQ01+000002SCOTLC
0092010300999991955012015004+69700+019017FM-12+002499999V0202101N00151220001CN0500001N9-00781-01111100651ADDAY101999GA1011+030009039GF101991999001999999041001MD1210181+9999MW1021EQDQ01+000002SCOTLC
0105010300999991955012018004+69700+019017FM-12+002499999V0202501N00261220001CN0500001N9-00611-00721100831ADDAY101999GA1011+030009039GF101991999001999999041001KA1999M-00611MD1210181+9999MW1021EQDQ01+000002SCOTLC
0092010300999991955012100004+69700+019017FM-12+002499999V0202501N00671220001CN0500001N9-00501-00781101061ADDAY101999GA1011+030009039GF101991999001999999041001MD1110051+9999MW1021EQDQ01+000002SCOTLC
0092010300999991955012103004+69700+019017FM-12+002499999V0202301N00931220001CN0500001N9-00391-01111101111ADDAY101999GA1021+030009039GF102991999001999999041001MD1210051+9999MW1021EQDQ01+000002SCOTLC
0105010300999991955012106004+69700+019017FM-12+002499999V0202301N00931220001CN0500001N9-00281-01111101231ADDAY101999GA1041+030009039GF104991999001999999071001KA1999N-00781MD1210121+9999MW1031EQDQ01+000002SCOTLC
0089010300999991955012109004+69700+019017FM-12+002499999V0202301N00931220001CN0500001N9-00281-01221101411ADDAY111999GA1011+030009039GA2011+012009059GF102991011051012501041021MD1210181+9999MW1011
0089010300999991955012112004+69700+019017FM-12+002499999V0202501N00931220001CN0500001N9-00281-01221101441ADDAY111999GA1011+030009039GA2011+015009059GF102991011051017501041021MD1210031+9999MW1021
0057010300999991955012115004+69700+019017FM-12+002499999V0202301N00671220001CN0500001N9-00281-01111101361ADDAY101999GF102991001001999999001021MD1710061+9999MW1021
0070010300999991955012118004+69700+019017FM-12+002499999V0202301N00671220001CN0500001N9-00391-01111101291ADDAY101999GF101991001001999999001021KA1999M-00281MD1810071+9999MW1021
0092010300999991955012200004+69700+019017FM-12+002499999V0202101N00721220001CN0500001N9-00221-01501100791ADDAY101999GA1021+030009039GF102991999001999999041001MD1710251+9999MW1021EQDQ01+000002SCOTLC
0089010300999991955012203004+69700+019017FM-12+002499999V0202101N00931030001CN0500001N9-00111-01001100611ADDAY101999GA1051+030009039GA2021+012009059GF107991021051012501071001MD1710181+9999MW1031
0086010300999991955012206004+69700+019017FM-12+002499999V0202501N01231220001CN0500001N9+00111-01281100291ADDAY101999GA1031+012009059GF108991031051012501071999KA1999N-00501MD1710321+9999MW1031
0073010300999991955012209004+69700+019017FM-12+002499999V0202301N00931220001CN0500001N9+00221-01221100111ADDAY121999GA1041+012009059GF108991041051012501071999MD1710181+9999MW1031
0089010300999991955012212004+69700+019017FM-12+002499999V0202301N01031021001CN0500001N9+00111-00891100011ADDAY121999GA1081+021009049GA2011+012009059GF108991011051012501021999MD1710101+9999MW1031
0089010300999991955012215004+69700+019017FM-12+002499999V0202301N00671018001CN0500001N9+00281-00611099811ADDAY121999GA1081+018009049GA2011+007809059GF108991011051008001021999MD1710201+9999MW1021
0102010300999991955012218004+69700+019017FM-12+002499999V0202301N01031018001CN0500001N9+00111-00721099711ADDAY121999GA1071+018009049GA2011+007809059GF107991011051008001021001KA1999M+00281MD1710101+9999MW1011
0097010300999991955012306004+69700+019017FM-12+002499999V0202301N01231220001CN0500001N9-00111-00281099291ADDAA199001091AY171999GA1031+008109059GF107991031081008001071999KA1999N-00111MD1710061+9999MW1021
0073010300999991955012309004+69700+019017FM-12+002499999V0202301N00671220001CN0002001N9-00111-00221099281ADDAY181999GA1091+999999999GF109991091999999999999999MD1710011+9999MW1861
0073010300999991955012312004+69700+019017FM-12+002499999V0202301N01231006001CN0020001N9-00221-00391099201ADDAY181999GA1081+006009099GF108991081091008001999999MD1710081+9999MW1851
0073010300999991955012315004+69700+019017FM-12+002499999V0202001N01231006001CN0030001N9-00111-00391099161ADDAY181999GA1081+006009099GF108991081091008001999999MD1710041+9999MW1851
0097010300999991955012318004+69700+019017FM-12+002499999V0202501N00461007501CN0030001N9-00111-00391099561ADDAA199004091AY181999GA1081+007509099GF108991081091008001999999KA1999M+00001MD1310401+9999MW1851
0073010300999991955012400004+69700+019017FM-12+002499999V0202301N00671007501CN0500001N9-00221-00281099891ADDAY181999GA1071+007509099GF107991071091008001001001MD1110101+9999MW1261
0073010300999991955012403004+69700+019017FM-12+002499999V0202001N00671007501CN0500001N9-00221-00281099711ADDAY181999GA1081+007509099GF108991081091008001999999MD1810181+9999MW1021
0097010300999991955012406004+69700+019017FM-12+002499999V0202301N00461007501CN0030001N9-00221-00221099441ADDAA199005091AY181999GA1081+007509099GF108991081091008001999999KA1999N-00221MD1710271+9999MW1851
0089010300999991955012409004+69700+019017FM-12+002499999V0202501N00261024001CN0140001N9-00221-00281099181ADDAY181999GA1081+024009049GA2011+004809079GF108991011061004501011999MD1710261+9999MW1261
0073010300999991955012412004+69700+019017FM-12+002499999V0201401N00101220001CN0350001N9-00281-00391098921ADDAY181999GA1041+008109059GF106991041051008001041021MD1710261+9999MW1021
0089010300999991955012415004+69700+019017FM-12+002499999V0200501N00101024001CN0500001N9-00281-00391098661ADDAY121999GA1031+007509059GA2051+024009039GF107991031051008001041021MD1710261+9999MW1021
0097010300999991955012418004+69700+019017FM-12+002499999V0209991C00001220001CN0100001N9-00221-00281098541ADDAA199001091AY171999GA1041+012009059GF108991041051012501021999KA1999M-00221MD1710121+9999MW1711
0073010300999991955012500004+69700+019017FM-12+002499999V0203201N00101012001CN0500001N9-00281-00721098501ADDAY171999GA1071+012009059GF107991071051012501001001MD1310021+9999MW1021
0073010300999991955012503004+69700+019017FM-12+002499999V0202501N00261009001CN0240001N9-00391-00501098571ADDAY181999GA1051+009009099GF106991051091008001061001MD1110071+9999MW1851
0097010300999991955012506004+69700+019017FM-12+002499999V0202501N00101220001CN0500001N9-00501-00611098811ADDAA199000691AY181999GA1021+009009089GF102991021081008001001001KA1999N-00611MD1310241+9999MW1011
0073010300999991955012509004+69700+019017FM-12+002499999V0202501N00101220001CN0500001N9-00501-00781099171ADDAY181999GA1021+009009089GF103991031081008001001001MD1210361+9999MW1151
0073010300999991955012512004+69700+019017FM-12+002499999V0202701N00261009001CN0500001N9-00391-00501099421ADDAY181999GA1051+009009089GF105991051081008001001001MD1210251+9999MW1851
0073010300999991955012515004+69700+019017FM-12+002499999V0202501N00261007501CN0100001N9-00281-00391099631ADDAY181999GA1061+007509089GF106991061081008001001001MD1210211+9999MW1151
0097010300999991955012518004+69700+019017FM-12+002499999V0202101N00211001801CN0030001N9-00281-00391099831ADDAA199003091AY181999GA1091+001809999GF109991091999001501999999KA1999M-00281MD1210201+9999MW1851
0073010300999991955012600004+69700+019017FM-12+002499999V0202501N00261220001CN0500001N9-00281-00391100071ADDAY181999GA1031+009009089GF103991031081008001001001MD1210081+9999MW1021
0073010300999991955012603004+69700+019017FM-12+002499999V0202301N00101009001CN0500001N9-00391-00501100071ADDAY181999GA1051+009009089GF106991051081008001041001MD1410001+9999MW1021
0097010300999991955012606004+69700+019017FM-12+002499999V0202301N00101220001CN0500001N9-00281-00391100061ADDAA199003091AY181999GA1031+009009089GF104991031081008001041001KA1999N-00391MD1710011+9999MW1021
0089010300999991955012609004+69700+019017FM-12+002499999V0200701N00101220001CN0500001N9-00391-00501100061ADDAY121999GA1041+030009039GA2011+007509089GF107991011081008001071021MD1510001+9999MW1151
0089010300999991955012612004+69700+019017FM-12+002499999V0200701N00411220001CN0300001N9-00221-00501100021ADDAY181999GA1041+024009039GA2011+003009089GF106991021081004501071021MD1710041+9999MW1151
0108010300999991955012615004+69700+019017FM-12+002499999V0200501N00461220001CN0500001N9-00281-00611100021ADDAY121999GA1021+030009039GA2011+009009089GF103991011081008001041021MD1410001+9999MW1011EQDQ01+000072APCTEN
0081010300999991955012618004+69700+019017FM-12+002499999V0202701N00261220001CN0500001N9-00281-00781099921ADDAA199000691AY121999GF100991001001999999001001KA1999M-00221MD1710101+9999MW1011
0092010300999991955012700004+69700+019017FM-12+002499999V0203601N00211220001CN0500001N9-00611-01001099631ADDAY101999GA1011+030009039GF101991999001999999041001MD1710201+9999MW1021EQDQ01+000002SCOTLC
0092010300999991955012703004+69700+019017FM-12+002499999V0203601N00101220001CN0500001N9-00781-01281099431ADDAY101999GA1011+030009039GF101991999001999999041001MD1710201+9999MW1021EQDQ01+000002SCOTLC
0105010300999991955012706004+69700+019017FM-12+002499999V0209991C00001220001CN0500001N9-00721-01221099291ADDAY101999GA1011+030009039GF101991999001999999041001KA1999N-00781MD1710141+9999MW1021EQDQ01+000002SCOTLC
0073010300999991955012709004+69700+019017FM-12+002499999V0200701N00261220001CN0500001N9-00721-01221099291ADDAY101999GA1011+013509059GF101991011051012501041001MD1510001+9999MW1021
0073010300999991955012712004+69700+019017FM-12+002499999V0200701N00101220001CN0500001N9-00721-01221099391ADDAY101999GA1011+013509059GF101991011051012501041001MD1210101+9999MW1021
0073010300999991955012715004+69700+019017FM-12+002499999V0209991C00001220001CN0500001N9-00721-01221099511ADDAY101999GA1011+013509059GF101991011051012501041001MD1210121+9999MW1021
0086010300999991955012718004+69700+019017FM-12+002499999V0202301N00101220001CN0500001N9-00781-01281099741ADDAY101999GA1011+013509059GF101991011051012501041001KA1999M-00611MD1210231+9999MW1021
0076010300999991955012800004+69700+019017FM-12+002499999V0202301N00261220001CN0500001N9-00721-00891100181ADDAY101999GF101991999001999999041001MD1210121+9999MW1021EQDQ01+000002SCOTLC
0073010300999991955012803004+69700+019017FM-12+002499999V0202301N00261220001CN0500001N9-00721-00781100331ADDAY181999GA1031+012009089GF106991031081012501041001MD1110151+9999MW1031
0113010300999991955012806004+69700+019017FM-12+002499999V0202301N00101220001CN0300001N9-00611-00721100381ADDAA199001091AY181999GA1011+009009089GA2041+009009059GF106991051081008001041001KA1999N-00891MD1210051+9999MW1851
0073010300999991955012809004+69700+019017FM-12+002499999V0209991C00001005701CN0300001N9-00501-00611100471ADDAY121999GA1051+005709099GF107991051091004501041001MD1210091+9999MW1151
0073010300999991955012812004+69700+019017FM-12+002499999V0203601N00101220001CN0450001N9-00611-00781100561ADDAY181999GA1041+006309099GF104991041091008001001001MD1210091+9999MW1011
0073010300999991955012815004+69700+019017FM-12+002499999V0201401N00101220001CN0500001N9-00611-00781100611ADDAY181999GA1021+009009089GF102991021081008001001001MD1110051+9999MW1011
0097010300999991955012818004+69700+019017FM-12+002499999V0202501N00261009001CN0140001N9-00611-00781100621ADDAA199000691AY181999GA1051+009009099GF106991051091008001061001KA1999M-00501MD1210011+9999MW1261
0073010300999991955012900004+69700+019017FM-12+002499999V0202501N00261220001CN0500001N9-00781-00891100761ADDAY181999GA1021+009009099GF102991021091008001001001MD1210081+9999MW1011
0073010300999991955012903004+69700+019017FM-12+002499999V0202301N00261220001CN0500001N9-00781-00891100761ADDAY101999GA1021+012009089GF103991031081012501001001MD1410001+9999MW1021
0097010300999991955012906004+69700+019017FM-12+002499999V0202501N00261220001CN0350001N9-00721-00781100761ADDAA199000691AY181999GA1041+009009099GF104991041091008001001001KA1999N-00891MD1410001+9999MW1851
0073010300999991955012909004+69700+019017FM-12+002499999V0202301N00261220001CN0300001N9-00721-00781100821ADDAY181999GA1031+006009099GF104991031091008001061001MD1210061+9999MW1261
0073010300999991955012912004+69700+019017FM-12+002499999V0202501N00261220001CN0240001N9-00611-00721100921ADDAY181999GA1031+006609099GF103991031091008001001001MD1110101+9999MW1851
0073010300999991955012915004+69700+019017FM-12+002499999V0202501N00261220001CN0500001N9-00721-00781100941ADDAY181999GA1011+006009089GF101991011081008001001001MD1210021+9999MW1011
0097010300999991955012918004+69700+019017FM-12+002499999V0202501N00461220001CN0500001N9-00721-00781100921ADDAA199001091AY181999GA1021+007509089GF103991031081008001001001KA1999M-00611MD1710021+9999MW1021
0097010300999991955013006004+69700+019017FM-12+002499999V0202501N00261220001CN0500001N9-00721-00781100911ADDAA199004091AY181999GA1011+009009059GF101991011051008001041001KA1999N-00781MD1410001+9999MW1021
0089010300999991955013009004+69700+019017FM-12+002499999V0202301N00101220001CN0500001N9-00721-00781100911ADDAY101999GA1041+012009059GA2011+005409059GF106991041051012501041001MD1410001+9999MW1031
0073010300999991955013012004+69700+019017FM-12+002499999V0202301N00261220001CN0500001N9-00611-00721100881ADDAY121999GA1011+006309059GF102991011051008001041001MD1710031+9999MW1011
0073010300999991955013015004+69700+019017FM-12+002499999V0202501N00101220001CN0500001N9-00781-00891100881ADDAY101999GA1011+006309059GF101991011051008001041001MD1410001+9999MW1011
0086010300999991955013018004+69700+019017FM-12+002499999V0202501N00261220001CN0500001N9-00781-00891100781ADDAY101999GA1011+006009059GF101991011051008001041001KA1999M-00611MD1710101+9999MW1021
0057010300999991955013100004+69700+019017FM-12+002499999V0202501N00101220001CN0500001N9-00891-00891100541ADDAY101999GF101991011051008001001001MD1710101+9999MW1021
0057010300999991955013103004+69700+019017FM-12+002499999V0202501N00101220001CN0500001N9-00891-01001100421ADDAY101999GF101991011051008001001001MD1710121+9999MW1021
0070010300999991955013106004+69700+019017FM-12+002499999V0202501N00101220001CN0500001N9-01001-01111100341ADDAY101999GF100991001001999999001001KA1999N-01111MD1710081+9999MW1021
0073010300999991955013109004+69700+019017FM-12+002499999V0202301N00101220001CN0500001N9-01001-01111100391ADDAY101999GA1011+006909059GF101991011051008001041021MD1310051+9999MW1031
0073010300999991955013112004+69700+019017FM-12+002499999V0202301N00101220001CN0500001N9-01001-01111100431ADDAY101999GA1011+006909059GF101991011051008001041021MD1110041+9999MW1021
0092010300999991955013115004+69700+019017FM-12+002499999V0202301N00101220001CN0500001N9-00891-01001100441ADDAY101999GA1011+030009039GF101991999001999999041021MD1210011+9999MW1021EQDQ01+000002SCOTLC
0105010300999991955013118004+69700+019017FM-12+002499999V0209991C00001220001CN0500001N9-01001-01111100471ADDAY101999GA1011+030009039GF101991999001999999041001KA1999M-00891MD1210031+9999MW1021EQDQ01+000002SCOTLC
0057010300999991955020100004+69700+019017FM-12+002499999V0202501N00101220001CN0500001N9-01001-01111100671ADDAY101999GF100991001001999999001001MD1310101+9999MW1021
0057010300999991955020103004+69700+019017FM-12+002499999V0202301N00101220001CN0500001N9-01001-01111100701ADDAY101999GF100991001001999999001001MD1210031+9999MW1021
0070010300999991955020106004+69700+019017FM-12+002499999V0202501N00101220001CN0500001N9-01001-01111100781ADDAY101999GF100991001001999999001001KA1999N-01111MD1210081+9999MW1021
0057010300999991955020109004+69700+019017FM-12+002499999V0202501N00261220001CN0500001N9-01001-01111100861ADDAY101999GF101991001001999999001021MD1210081+9999MW1021
0092010300999991955020112004+69700+019017FM-12+002499999V0202501N00101220001CN0500001N9-01001-01111100951ADDAY101999GA1011+030009039GF101991999001999999041011MD1210091+9999MW1021EQDQ01+000002SCOTLC
0092010300999991955020115004+69700+019017FM-12+002499999V0202301N00101220001CN0500001N9-01111-01221100951ADDAY101999GA1011+030009039GF101991999001999999041011MD1410001+9999MW1021EQDQ01+000002SCOTLC
0070010300999991955020118004+69700+019017FM-12+002499999V0202501N00101220001CN0500001N9-01111-01221100941ADDAY101999GF100991001001999999001001KA1999M-01001MD1810011+9999MW1021
0057010300999991955020200004+69700+019017FM-12+002499999V0202501N00101220001CN0500001N9-01111-01221100931ADDAY101999GF100991001001999999001001MD1710011+9999MW1021
0057010300999991955020203004+69700+019017FM-12+002499999V0202301N00101220001CN0500001N9-01111-01221100891ADDAY101999GF101991001001999999001021MD1710041+9999MW1021
0070010300999991955020206004+69700+019017FM-12+002499999V0209991C00001220001CN0500001N9-01111-01221100801ADDAY101999GF100991001001999999001001KA1999N-01221MD1710091+9999MW1021
0092010300999991955020209004+69700+019017FM-12+002499999V0202501N00211220001CN0500001N9-01111-01221100791ADDAY101999GA1011+030009039GF101991999001999999041011MD1510011+9999MW1021EQDQ01+000002SCOTLC
0092010300999991955020212004+69700+019017FM-12+002499999V0202301N00101220001CN0500001N9-01001-01221100741ADDAY101999GA1011+048009039GF101991999001999999041021MD1710051+9999MW1021EQDQ01+000002SCOTLC
0076010300999991955020215004+69700+019017FM-12+002499999V0202301N00101220001CN0500001N9-01111-01391100701ADDAY101999GF101991001001999999001011MD1710041+9999MW1021EQDQ01+000012SCOTLC
0070010300999991955020218004+69700+019017FM-12+002499999V0202501N00101220001CN0500001N9-01111-01391100691ADDAY101999GF100991001001999999001001KA1999M-00891MD1610011+9999MW1011
0057010300999991955020300004+69700+019017FM-12+002499999V0202301N00261220001CN0500001N9-01111-01391100641ADDAY101999GF100991001001999999001001MD1710041+9999MW1021
0057010300999991955020303004+69700+019017FM-12+002499999V0202701N00261220001CN0500001N9-01111-01391100621ADDAY101999GF100991001001999999001001MD1710021+9999MW1021
0070010300999991955020306004+69700+019017FM-12+002499999V0202501N00101220001CN0500001N9-01221-01391100551ADDAY101999GF100991001001999999001001KA1999N-01221MD1710071+9999MW1021
0073010300999991955020309004+69700+019017FM-12+002499999V0202501N00101220001CN0600001N9-01221-01391100571ADDAY101999GA1011+030009039GF101991011001999999041001MD1210021+9999MW1031
0073010300999991955020312004+69700+019017FM-12+002499999V0202501N00101220001CN0600001N9-01221-01391100531ADDAY101999GA1011+030009039GF101991011001999999041001MD1710041+9999MW1021
0073010300999991955020315004+69700+019017FM-12+002499999V0202301N00101220001CN0600001N9-01221-01391100471ADDAY101999GA1011+006009079GF101991011061008001001011MD1710061+9999MW1021
0070010300999991955020318004+69700+019017FM-12+002499999V0202501N00101220001CN0600001N9-01281-01501100371ADDAY101999GF102991001001999999001021KA1999M-01221MD1710101+9999MW1021
0057010300999991955020400004+69700+019017FM-12+002499999V0202301N00101220001CN0600001N9-01221-01501100041ADDAY101999GF106991001001999999001071MD1810171+9999MW1031
0057010300999991955020403004+69700+019017FM-12+002499999V0202501N00101220001CN0600001N9-01111-01391099811ADDAY121999GF107991001001999999001071MD1710231+9999MW1021
0105010300999991955020406004+69700+019017FM-12+002499999V0202501N00101220001CN0600001N9-01001-01391099621ADDAY121999GA1021+030009039GF107991999001999999041071KA1999N-01391MD1710191+9999MW1021EQDQ01+000002SCOTLC
0108010300999991955020409004+69700+019017FM-12+002499999V0202301N00101220001CN0600001N9-00891-01281099441ADDAY121999GA1021+030009039GA2041+030009049GF107991999001999999071071MD1710181+9999MW1011EQDQ01+000002SCOTLC
0108010300999991955020412004+69700+019017FM-12+002499999V0202301N00101220001CN0600001N9-00781-01221099311ADDAY121999GA1021+030009039GA2031+030009049GF104991999001999999071021MD1710131+9999MW1011EQDQ01+000002SCOTLC
0092010300999991955020415004+69700+019017FM-12+002499999V0209991C00001220001CN0600001N9-00781-01111099181ADDAY121999GA1031+030009049GF107991999001999999071071MD1710131+9999MW1031EQDQ01+000002SCOTLC
0105010300999991955020418004+69700+019017FM-12+002499999V0209991C00001024001CN0500001N9-00721-01001099041ADDAY121999GA1071+024009049GF107991999001999999071001KA1999M-00721MD1710141+9999MW1151EQDQ01+000002SCOTLC
0073010300999991955020500004+69700+019017FM-12+002499999V0202301N00261009001CN0500001N9-00501-00721098931ADDAY171999GA1081+009009059GF108991081051008001999999MD1710021+9999MW1151
0073010300999991955020503004+69700+019017FM-12+002499999V0202301N00671007501CN0100001N9-00501-00721098931ADDAY171999GA1081+007509059GF108991081051008001999999MD1410001+9999MW1701
0097010300999991955020506004+69700+019017FM-12+002499999V0202501N00671007501CN0200001N9-00501-00721098961ADDAA199000391AY171999GA1071+007509059GF107991071051008001001001KA1999N-00781MD1210031+9999MW1701
0089010300999991955020509004+69700+019017FM-12+002499999V0202301N00671220001CN0350001N9-00391-00501099071ADDAY171999GA1031+007509059GA2041+015009049GF107991031051008001071021MD1210111+9999MW1151
0089010300999991955020512004+69700+019017FM-12+002499999V0202501N00261220001CN0400001N9-00281-00391099201ADDAY171999GA1021+007509059GA2041+021009039GF107991031051008001071021MD1210131+9999MW1151
0089010300999991955020515004+69700+019017FM-12+002499999V0202301N00261220001CN0500001N9-00221-00281099251ADDAY121999GA1031+008109059GA2041+021009049GF107991031051008001071001MD1210051+9999MW1021
0113010300999991955020518004+69700+019017FM-12+002499999V0209991C00001220001CN0500001N9-00111-00281099361ADDAA199000391AY121999GA1041+008109059GA2031+021009049GF107991041051008001071001KA1999M-00111MD1210111+9999MW1021
0070010300999991955020606004+69700+019017FM-12+002499999V0202301N00101220001CN0600001N9-00391-00501099571ADDAY121999GF103991001001999999001011KA1999N-00501MD1210061+9999MW1021
0057010300999991955020609004+69700+019017FM-12+002499999V0202001N00101220001CN0600001N9-00391-00501099671ADDAY101999GF104991001001999999001081MD1210101+9999MW1031
0057010300999991955020612004+69700+019017FM-12+002499999V0202301N00101220001CN0600001N9-00391-00501099771ADDAY121999GF105991001001999999001021MD1210101+9999MW1021
0057010300999991955020615004+69700+019017FM-12+002499999V0209991C00001220001CN0600001N9-00281-00391099821ADDAY121999GF106991001001999999071021MD1210051+9999MW1031
0070010300999991955020618004+69700+019017FM-12+002499999V0209991C00001012301CN0600001N9-00221-00391099801ADDAY121999GF108991051051012501021999KA1999M-00221MD1710021+9999MW1031
0092010300999991955020700004+69700+019017FM-12+002499999V0209991C00001220001CN0600001N9-00281-00501099881ADDAY121999GA1011+030009039GF101991999001999999041001MD1110061+9999MW1011EQDQ01+000002SCOTLC
0073010300999991955020703004+69700+019017FM-12+002499999V0209991C00001027001CN0600001N9-00281-00501099871ADDAY101999GA1081+027009049GF108991081001999999011999MD1710011+9999MW1031
0086010300999991955020706004+69700+019017FM-12+002499999V0209991C00001220001CN0600001N9-00281-00391099821ADDAY121999GA1011+030009039GF107991011001999999041071KA1999N-00391MD1710051+9999MW1021
0073010300999991955020709004+69700+019017FM-12+002499999V0209991C00001220001CN0600001N9-00281-00391099841ADDAY121999GA1031+030009039GF106991031001999999041071MD1210021+9999MW1021
0073010300999991955020712004+69700+019017FM-12+002499999V0209991C00001220001CN0600001N9-00221-00391099871ADDAY121999GA1031+030009039GF104991031001999999041071MD1010031+9999MW1011
0092010300999991955020715004+69700+019017FM-12+002499999V0209991C00001220001CN0500001N9-00221-00281099841ADDAY121999GA1031+030009039GF107991999001999999041071MD1710021+9999MW1031EQDQ01+000002SCOTLC
0105010300999991955020718004+69700+019017FM-12+002499999V0209991C00001220001CN0500001N9-00221-00391099801ADDAY121999GA1021+030009049GF106991999001999999071071KA1999M-00221MD1710041+9999MW1011EQDQ01+000002SCOTLC
0092010300999991955020800004+69700+019017FM-12+002499999V0209991C00001030001CN0600001N9-00221-00391099761ADDAY121999GA1071+030009039GF107991999001999999071001MD1710071+9999MW1021EQDQ01+000002SCOTLC
0073010300999991955020803004+69700+019017FM-12+002499999V0209991C00001021001CN0600001N9-00111-00281099651ADDAY121999GA1081+021009049GF108991081001022501071999MD1710111+9999MW1031
0086010300999991955020806004+69700+019017FM-12+002499999V0202301N00101018001CN0600001N9-00111-00221099621ADDAY121999GA1071+018009049GF107991071001017501071001KA1999N-00281MD1610031+9999MW1021
0089010300999991955020809004+69700+019017FM-12+002499999V0209991C00001021001CN0500001N9-00221-00281099631ADDAY121999GA1011+018009059GA2051+021009049GF107991011051017501071021MD1210011+9999MW1021
0089010300999991955020812004+69700+019017FM-12+002499999V0202301N00101220001CN0500001N9-00111-00281099641ADDAY121999GA1011+018009059GA2041+030009039GF105991011051017501041021MD1210011+9999MW1011
0092010300999991955020815004+69700+019017FM-12+002499999V0209991C00001220001CN0500001N9-00281-00501099631ADDAY101999GA1031+030009039GF104991999001999999041021MD1710011+9999MW1021EQDQ01+000002SCOTLC
0105010300999991955020818004+69700+019017FM-12+002499999V0209991C00001220001CN0500001N9-00281-00611099621ADDAY121999GA1021+030009039GF102991999001999999041001KA1999M+00001MD1710011+9999MW1011EQDQ01+000002SCOTLC
0057010300999991955020900004+69700+019017FM-12+002499999V0209991C00001220001CN0500001N9-00391-00891099731ADDAY101999GF100991001001999999001001MD1210081+9999MW1021
0057010300999991955020903004+69700+019017FM-12+002499999V0209991C00001220001CN0500001N9-00501-00781099771ADDAY101999GF100991001001999999001001MD1210041+9999MW1021
0105010300999991955020906004+69700+019017FM-12+002499999V0202301N00101220001CN0500001N9-00611-01001099801ADDAY101999GA1011+030009039GF101991999001999999071001KA1999N-00721MD1210031+9999MW1031EQDQ01+000002SCOTLC
0092010300999991955020909004+69700+019017FM-12+002499999V0209991C00001220001CN0500001N9-00611-00721099911ADDAY101999GA1041+021009039GF106991999001022501071021MD1210111+9999MW1031EQDQ01+000002SCOTLC
0089010300999991955020912004+69700+019017FM-12+002499999V0202301N00101220001CN0400001N9-00391-00611099891ADDAY101999GA1011+009009059GA2041+021009049GF107991011051008001071001MD1710021+9999MW1151
0073010300999991955020915004+69700+019017FM-12+002499999V0202301N00261004501CN0020001N9-00391-00501099891ADDAY171999GA1051+004509079GF108991051071004501021999MD1410001+9999MW1731
0097010300999991955020918004+69700+019017FM-12+002499999V0203601N00931220001CN0200001N9-00221-00391099941ADDAA199001091AY171999GA1041+007509079GF108991041071008001021999KA1999M-00221MD1310051+9999MW1711
0089010300999991955021000004+69700+019017FM-12+002499999V0203601N00511009001CN0300001N9-00281-00721100141ADDAY181999GA1061+009009059GA2021+006009089GF108991081081008001999999MD1210081+9999MW1261
0089010300999991955021003004+69700+019017FM-12+002499999V0203401N00411009001CN0500001N9-00391-00891100101ADDAY181999GA1061+009009059GA2021+006909089GF108991081081008001999999MD1710041+9999MW1021
0097010300999991955021006004+69700+019017FM-12+002499999V0209991C00001008101CN0500001N9-00391-00781100091ADDAA199000691AY181999GA1061+008109099GF106991061091008001001001KA1999N-00501MD1710011+9999MW1011
0089010300999991955021009004+69700+019017FM-12+002499999V0202301N00101220001CN0500001N9-00391-00891100051ADDAY121999GA1031+009009059GA2031+030009039GF106991041081008001041021MD1710041+9999MW1021
0073010300999991955021012004+69700+019017FM-12+002499999V0202001N00101007501CN0100001N9-00391-00611100011ADDAY181999GA1061+007509059GF108991081081008001999999MD1710041+9999MW1851
0073010300999991955021015004+69700+019017FM-12+002499999V0202301N00261004501CN0015001N9-00391-00501099891ADDAY181999GA1081+004509099GF108991081091004501999999MD1810121+9999MW1861
0097010300999991955021018004+69700+019017FM-12+002499999V0202301N00461004501CN0009001N9-00281-00281099721ADDAA199003091AY181999GA1081+004509099GF108991081091004501999999KA1999M-00281MD1710171+9999MW1861
0073010300999991955021100004+69700+019017FM-12+002499999V0201101N00671220001CN0500001N9-00281-01001100241ADDAY181999GA1011+009009089GF101991011081008001001001MD1210301+9999MW1011
0057010300999991955021103004+69700+019017FM-12+002499999V0201301N00671220001CN0500001N9-00281-01001100461ADDAY101999GF100991001001999999001001MD1210221+9999MW1011
0081010300999991955021106004+69700+019017FM-12+002499999V0202701N00101220001CN0500001N9-00611-01221100781ADDAA199002091AY101999GF100991001001999999001001KA1999N-00721MD1210321+9999MW1021
0057010300999991955021109004+69700+019017FM-12+002499999V0200901N00101220001CN0600001N9-00501-01111101071ADDAY101999GF100991001001999999001001MD1210291+9999MW1021
0057010300999991955021112004+69700+019017FM-12+002499999V0202501N00101220001CN0600001N9-00611-01221101261ADDAY101999GF100991001001999999001001MD1110191+9999MW1021
0057010300999991955021115004+69700+019017FM-12+002499999V0202501N00261220001CN0600001N9-00781-01221101411ADDAY101999GF101991001001999999001021MD1310151+9999MW1031
0070010300999991955021118004+69700+019017FM-12+002499999V0202501N00101220001CN0600001N9-00891-01111101511ADDAY101999GF100991001001999999001001KA1999M-00501MD1210101+9999MW1021
0057010300999991955021200004+69700+019017FM-12+002499999V0202301N00461220001CN0600001N9-00721-01001101481ADDAY101999GF100991001001999999001001MD1410001+9999MW1021
0073010300999991955021203004+69700+019017FM-12+002499999V0202301N00771012001CN0600001N9-00611-01001101271ADDAY101999GA1071+012009059GF107991071051012501001001MD1810211+9999MW1031
0097010300999991955021206004+69700+019017FM-12+002499999V0202301N00771000601CN0006001N9-00611-00721101161ADDAA199000591AY181999GA1091+000609999GF109991091999000751999999KA1999N-00891MD1610111+9999MW1861
0073010300999991955021209004+69700+019017FM-12+002499999V0203201N00931003001CN0007001N9-00391-00501101161ADDAY181999GA1081+003009099GF108991081091004501999999MD1510001+9999MW1861
0073010300999991955021212004+69700+019017FM-12+002499999V0202501N00101008401CN0100001N9-00501-00611101001ADDAY181999GA1051+008409099GF107991051091008001061001MD1810101+9999MW1851
0073010300999991955021215004+69700+019017FM-12+002499999V0202301N00671008101CN0450001N9-00501-00781100741ADDAY181999GA1071+008109099GF107991071091008001001001MD1710261+9999MW1261
0097010300999991955021218004+69700+019017FM-12+002499999V0202301N00261008101CN0500001N9-00391-00611100731ADDAA199006091AY181999GA1061+008109099GF106991061091008001001001KA1999M-00391MD1510011+9999MW1011
0118010300999991955021306004+69700+019017FM-12+002499999V0203601N00311006001CN0300001N9-00281-00501100591ADDAA199004091AY181999GA1061+006009099GF106991061091008001001001KA1999N-00501MW1151EQDQ01+000022APCTENQ02+000002APC3  
0073010300999991955021309004+69700+019017FM-12+002499999V0203601N00771004801CN0030001N9-00281-00391100741ADDAY181999GA1051+004809099GF105991051091004501001001MD1210151+9999MW1861
0073010300999991955021312004+69700+019017FM-12+002499999V0201601N00211220001CN0400001N9-00391-00611100821ADDAY181999GA1041+008109099GF105991041091008001001021MD1210081+9999MW1151
0073010300999991955021315004+69700+019017FM-12+002499999V0209991C00001008101CN0500001N9-00501-00781100921ADDAY181999GA1051+008109099GF105991051091008001001001MD1210101+9999MW1021
0081010300999991955021318004+69700+019017FM-12+002499999V0200701N00261220001CN0600001N9-00611-01001101091ADDAA199000391AY181999GF100991001001999999001001KA1999M-00281MD1210171+9999MW1011
0057010300999991955021400004+69700+019017FM-12+002499999V0202501N00101220001CN0600001N9-00891-01281101401ADDAY101999GF100991001001999999001001MD1210161+9999MW1021
0057010300999991955021403004+69700+019017FM-12+002499999V0202501N00101220001CN0600001N9-00891-01281101521ADDAY101999GF100991001001999999001001MD1210121+9999MW1021
0070010300999991955021406004+69700+019017FM-12+002499999V0202501N00261220001CN0600001N9-00891-01281101601ADDAY101999GF100991001001999999001001KA1999N-01111MD1210081+9999MW1021
0073010300999991955021409004+69700+019017FM-12+002499999V0202301N00461220001CN0600001N9-01001-01391101671ADDAY101999GA1011+007509079GF101991011061008001001001MD1210071+9999MW1021
0073010300999991955021412004+69700+019017FM-12+002499999V0202501N00461220001CN0600001N9-00891-01281101611ADDAY101999GA1011+008409079GF102991011061008001001021MD1810061+9999MW1031
0073010300999991955021415004+69700+019017FM-12+002499999V0202401N00461220001CN0600001N9-00891-01281101561ADDAY101999GA1031+024009039GF104991031001999999051021MD1710051+9999MW1031
0105010300999991955021418004+69700+019017FM-12+002499999V0202401N00671021001CN0600001N9-00781-01221101371ADDAY121999GA1081+021009039GF108991081001999999071999KA1999M-00781MD1610191+9999MW1031EQDQ01+000992SCOLCB
0073010300999991955021500004+69700+019017FM-12+002499999V0202301N00671009001CN0600001N9-00721-01111100851ADDAY121999GA1051+009009059GF105991051051008001001001MD1710271+9999MW1011
0073010300999991955021503004+69700+019017FM-12+002499999V0202301N00671009001CN0600001N9-00721-01001100551ADDAY121999GA1071+009009059GF107991071051008001999999MD1710301+9999MW1021
0097010300999991955021506004+69700+019017FM-12+002499999V0202501N00671009001CN0300001N9-00611-00781100211ADDAA199000391AY171999GA1061+009009059GF108991061051008001021999KA1999N-00891MD1710341+9999MW1711
0089010300999991955021509004+69700+019017FM-12+002499999V0202301N00771009001CN0140001N9-00611-00781099931ADDAY171999GA1081+009009049GA2021+005409079GF108991021061004501021999MD1710281+9999MW1701
0089010300999991955021512004+69700+019017FM-12+002499999V0202401N00771012001CN0300001N9-00501-00721099601ADDAY171999GA1081+012009049GA2011+003909079GF108991011061004501021999MD1710331+9999MW1051
0092010300999991955021515004+69700+019017FM-12+002499999V0202301N00411021001CN0600001N9-00501-00891099261ADDAY121999GA1061+021009049GF107991999001022501071001MD1710341+9999MW1021EQDQ01+000002SCOTLC
0116010300999991955021518004+69700+019017FM-12+002499999V0203201N00211220001CN0600001N9-00501-00891099141ADDAA199000691AY121999GA1031+030009049GF104991999001999999071001KA1999M-00391MD1710121+9999MW1011EQDQ01+000002SCOTLC
0057010300999991955021600004+69700+019017FM-12+002499999V0202501N00461220001CN0600001N9-00781-01111099201ADDAY111999GF100991001001999999001001MD1210061+9999MW1011
0073010300999991955021603004+69700+019017FM-12+002499999V0202501N00261220001CN0600001N9-01001-01281099291ADDAY101999GA1011+030009039GF101991011001999999041001MD1210091+9999MW1031
0086010300999991955021606004+69700+019017FM-12+002499999V0203401N00261220001CN0600001N9-01001-01221099381ADDAY101999GA1011+012009059GF102991011051012501041021KA1999N-01221MD1210091+9999MW1031
0089010300999991955021609004+69700+019017FM-12+002499999V0202501N00261220001CN0600001N9-01221-01391099551ADDAY101999GA1011+008109059GA2021+030009039GF104991011081008001041021MD1210171+9999MW1031
0089010300999991955021612004+69700+019017FM-12+002499999V0202301N00261220001CN0600001N9-00891-01281099621ADDAY101999GA1011+003009079GA2011+030009039GF102991011061004501041021MD1210071+9999MW1011
0073010300999991955021615004+69700+019017FM-12+002499999V0202301N00261220001CN0600001N9-01111-01391099561ADDAY101999GA1011+006909059GF101991011051008001041021MD1710061+9999MW1021
0070010300999991955021618004+69700+019017FM-12+002499999V0202301N00101220001CN0600001N9-01111-01391099561ADDAY101999GF100991001001999999001001KA1999M-00891MD1410001+9999MW1011
0057010300999991955021700004+69700+019017FM-12+002499999V0202701N00101220001CN0600001N9-01221-01391099751ADDAY101999GF100991001001999999001001MD1210121+9999MW1021
0057010300999991955021703004+69700+019017FM-12+002499999V0202501N00461220001CN0600001N9-01111-01501099871ADDAY101999GF100991001001999999001001MD1210121+9999MW1021
0105010300999991955021706004+69700+019017FM-12+002499999V0202501N00511220001CN0600001N9-01111-01611100071ADDAY101999GA1011+030009039GF101991999001999999041021KA1999N-01281MD1210201+9999MW1031EQDQ01+000002SCOTLC
0092010300999991955021709004+69700+019017FM-12+002499999V0202501N00461220001CN0600001N9-01111-01781100441ADDAY101999GA1021+030009039GF104991999001999999041021MD1210341+9999MW1031EQDQ01+000002SCOTLC
0092010300999991955021712004+69700+019017FM-12+002499999V0202501N00261220001CN0600001N9-01001-01721100731ADDAY101999GA1031+030009039GF107991999001999999071071MD1210291+9999MW1031EQDQ01+000002SCOTLC
0089010300999991955021715004+69700+019017FM-12+002499999V0202301N00101220001CN0600001N9-00781-01501100851ADDAY121999GA1011+018009059GA2031+030009039GF107991011051017501071021MD1210121+9999MW1021
0105010300999991955021718004+69700+019017FM-12+002499999V0202301N00261220001CN0600001N9-00891-01501101011ADDAY121999GA1021+030009039GF102991999001999999071001KA1999M-00721MD1210161+9999MW1011EQDQ01+000002SCOTLC
0057010300999991955021800004+69700+019017FM-12+002499999V0202301N00261220001CN0600001N9-01001-01281101271ADDAY101999GF101991001001999999001021MD1110031+9999MW1021
0092010300999991955021803004+69700+019017FM-12+002499999V0202501N00101220001CN0400001N9-00781-01111101281ADDAY101999GA1041+030009049GF104991999001999999071001MD1210011+9999MW1701EQDQ01+000002SCOTLC
0116010300999991955021806004+69700+019017FM-12+002499999V0202501N00101220001CN0600001N9-00891-01111101301ADDAA199000691AY101999GA1031+030009049GF103991999001999999071021KA1999N-01111MD1210021+9999MW1021EQDQ01+000002SCOTLC
0089010300999991955021809004+69700+019017FM-12+002499999V0202301N00461220001CN0600001N9-00891-01111101331ADDAY101999GA1011+004209079GA2011+030009049GF102991011061004501071021MD1210031+9999MW1021
0073010300999991955021812004+69700+019017FM-12+002499999V0202301N00461220001CN0600001N9-00781-01111101341ADDAY101999GA1011+009009059GF102991011051008001041021MD1010011+9999MW1021
0073010300999991955021815004+69700+019017FM-12+002499999V0202301N00671009001CN0500001N9-00721-01111101251ADDAY121999GA1071+009009059GF108991071051008001041999MD1810091+9999MW1151
0097010300999991955021818004+69700+019017FM-12+002499999V0202401N00771007501CN0100001N9-00721-01001101161ADDAA199000391AY171999GA1071+007509059GF108991071051008001021999KA1999M-00721MD1710091+9999MW1711
0073010300999991955021900004+69700+019017FM-12+002499999V0202301N00461008101CN0300001N9-00501-00611100981ADDAY171999GA1081+008109099GF108991081091008001999999MD1210071+9999MW1871
0073010300999991955021903004+69700+019017FM-12+002499999V0202501N00261220001CN0500001N9-00501-00611101011ADDAY181999GA1031+009009089GF104991041081008001001001MD1210031+9999MW1011
0113010300999991955021906004+69700+019017FM-12+002499999V0202301N00261030001CN0500001N9-00501-00611100971ADDAA199004091AY181999GA1071+030009049GA2011+009009089GF107991011031008001071001KA1999N-00781MD1710041+9999MW1031
0073010300999991955021909004+69700+019017FM-12+002499999V0202301N00311220001CN0500001N9-00501-00611100971ADDAY121999GA1031+030009049GF105991011051008001071011MD1410001+9999MW1011
0089010300999991955021912004+69700+019017FM-12+002499999V0202401N00461220001CN0500001N9-00391-00721100891ADDAY121999GA1031+030009049GA2011+009009089GF104991011021008001071021MD1710081+9999MW1011
0073010300999991955021915004+69700+019017FM-12+002499999V0202101N00671006901CN0034001N9-00391-01001100761ADDAY181999GA1081+006909009GF108991081091008001999999MD1710131+9999MW1851
0097010300999991955021918004+69700+019017FM-12+002499999V0202401N00461007201CN0090001N9-00501-00611100721ADDAA199001091AY181999GA1071+007209099GF107991071091008001001001KA1999M-00281MD1710041+9999MW1851
0097010300999991955022006004+69700+019017FM-12+002499999V0209991C00001006001CN0020001N9-00391-00501100291ADDAA199001091AY171999GA1071+006009079GF108991071071008001021999KA1999N-00501MD1710101+9999MW1711
0073010300999991955022009004+69700+019017FM-12+002499999V0203001N00101006001CN0050001N9-00281-00391100241ADDAY171999GA1061+006009089GF107991061071008001071001MD1710051+9999MW1701
0073010300999991955022012004+69700+019017FM-12+002499999V0209991C00001220001CN0070001N9-00281-00391100231ADDAY171999GA1031+006009079GF107991031061008001071001MD1710011+9999MW1701
0073010300999991955022015004+69700+019017FM-12+002499999V0202301N00101220001CN0500001N9-00501-00611100251ADDAY171999GA1021+006009089GF104991031081008001071001MD1310021+9999MW1221
0097010300999991955022018004+69700+019017FM-12+002499999V0209991C00001220001CN0500001N9-00391-00501100331ADDAA199000591AY171999GA1031+006009089GF104991041081008001001001KA1999M-00281MD1210081+9999MW1021
0073010300999991955022100004+69700+019017FM-12+002499999V0202301N00261009001CN0500001N9-00611-00781100521ADDAY111999GA1061+009009059GF108991061051008001021999MD1210121+9999MW1031
0073010300999991955022103004+69700+019017FM-12+002499999V0202301N00101009001CN0500001N9-00501-00721100561ADDAY121999GA1061+009009059GF108991061051008001021999MD1210041+9999MW1021
0102010300999991955022106004+69700+019017FM-12+002499999V0209991C00001220001CN0500001N9-00611-00781100651ADDAY121999GA1041+008109089GA2031+009009059GF107991071081008001001001KA1999N-00781MD1210091+9999MW1021
0073010300999991955022109004+69700+019017FM-12+002499999V0203001N00101220001CN0500001N9-00721-00891100721ADDAY181999GA1041+008109089GF104991041081008001001001MD1210071+9999MW1851
0073010300999991955022112004+69700+019017FM-12+002499999V0202701N00461220001CN0600001N9-00781-01221100771ADDAY181999GA1011+009009089GF101991011011008001001001MD1210051+9999MW1021
0057010300999991955022115004+69700+019017FM-12+002499999V0202701N00261220001CN0600001N9-01001-01391100801ADDAY101999GF100991001001999999001001MD1210031+9999MW1011
0081010300999991955022118004+69700+019017FM-12+002499999V0202101N00101220001CN0600001N9-01111-01391100841ADDAA199000691AY101999GF100991001001999999001001KA1999M-00611MD1210041+9999MW1021
0057010300999991955022200004+69700+019017FM-12+002499999V0209991C00001220001CN0600001N9-01221-01501100871ADDAY101999GF100991001001999999001001MD1410001+9999MW1021
0057010300999991955022203004+69700+019017FM-12+002499999V0202701N00101220001CN0600001N9-01221-01611100841ADDAY101999GF100991001001999999001001MD1710031+9999MW1021
0070010300999991955022206004+69700+019017FM-12+002499999V0202501N00261220001CN0600001N9-01281-01721100801ADDAY101999GF100991001001999999001001KA1999N-01391MD1710041+9999MW1021
0092010300999991955022209004+69700+019017FM-12+002499999V0201101N00101220001CN0600001N9-01111-01501100851ADDAY101999GA1011+030009039GF101991999001999999041011MD1210051+9999MW1031EQDQ01+000002SCOTLC
0092010300999991955022212004+69700+019017FM-12+002499999V0202301N00101220001CN0600001N9-00891-01281100891ADDAY101999GA1011+030009039GF101991999001999999041011MD1210041+9999MW1021EQDQ01+000002SCOTLC
0092010300999991955022215004+69700+019017FM-12+002499999V0202501N00101220001CN0600001N9-01221-01611101101ADDAY101999GA1011+030009039GF101991999001999999041011MD1310211+9999MW1021EQDQ01+000002SCOTLC
0105010300999991955022218004+69700+019017FM-12+002499999V0202501N00101220001CN0600001N9-01281-01611101271ADDAY101999GA1011+030009039GF101991999001999999041001KA1999M-00891MD1210171+9999MW1021EQDQ01+000002SCOTLC
0057010300999991955022300004+69700+019017FM-12+002499999V0202701N00261220001CN0600001N9-01221-01281101591ADDAY101999GF100991001001999999001001MD1210131+9999MW1021
0057010300999991955022303004+69700+019017FM-12+002499999V0202501N00101220001CN0600001N9-01281-01391101711ADDAY101999GF100991001001999999001001MD1210121+9999MW1021
0086010300999991955022306004+69700+019017FM-12+002499999V0202501N00261220001CN0600001N9-01281-01391101781ADDAY101999GA1011+005409059GF101991011051004501001001KA1999N-01391MD1210071+9999MW1021
0073010300999991955022309004+69700+019017FM-12+002499999V0202301N00101220001CN0600001N9-01111-01221101871ADDAY101999GA1011+005409059GF101991011051004501001001MD1210091+9999MW1021
0073010300999991955022312004+69700+019017FM-12+002499999V0202501N00101220001CN0600001N9-00891-01001101891ADDAY101999GA1011+005409059GF101991011051004501001001MD1010021+9999MW1021
0073010300999991955022315004+69700+019017FM-12+002499999V0202501N00261220001CN0600001N9-01111-01281101871ADDAY101999GA1011+007509059GF101991011051008001001021MD1610021+9999MW1021
0121010300999991955022318004+69700+019017FM-12+002499999V0202501N00261220001CN0600001N9-01001-01111101821ADDAY101999GA1011+008109059GA2021+030009039GF199999011051008001071021KA1999M-00891MD1810051+9999MW1031EQDQ01+000012SCOTCV
0073010300999991955022400004+69700+019017FM-12+002499999V0202501N01031220001CN0600001N9-00611-01221101521ADDAY111999GA1031+009009059GF105991031051008001071001MD1710121+9999MW1181
0073010300999991955022403004+69700+019017FM-12+002499999V0202501N00771009001CN0600001N9-00501-01111101401ADDAY121999GA1071+009009059GF107991071051008001001001MD1710121+9999MW1031
0102010300999991955022406004+69700+019017FM-12+002499999V0202501N00671030001CN0600001N9-00281-00891101251ADDAY121999GA1021+009009059GA2071+030009049GF107991021051008001071001KA1999N-01111MD1810151+9999MW1011
0089010300999991955022409004+69700+019017FM-12+002499999V0202301N00461220001CN0600001N9-00111-00611101201ADDAY121999GA1021+008109059GA2041+021009049GF107991021051008001071021MD1710051+9999MW1021
0089010300999991955022412004+69700+019017FM-12+002499999V0202301N00771220001CN0600001N9+00001-00721101081ADDAY121999GA1021+009009059GA2031+021009049GF106991031081008001071021MD1710121+9999MW1011
0089010300999991955022415004+69700+019017FM-12+002499999V0202301N00931220001CN0600001N9+00001-00721100951ADDAY121999GA1021+009909089GA2031+021009049GF105991021081008001071021MD1710131+9999MW1021
0102010300999991955022418004+69700+019017FM-12+002499999V0202301N00931220001CN0600001N9+00001-00721100811ADDAY121999GA1021+009909089GA2031+021009049GF105991021081008001071001KA1999M+00111MD1710141+9999MW1021
0073010300999991955022500004+69700+019017FM-12+002499999V0202301N00931220001CN0300001N9+00111-00391100701ADDAY181999GA1041+007509089GF107991071081008001001001MD1710151+9999MW1851
0073010300999991955022503004+69700+019017FM-12+002499999V0203401N00211220001CN0040001N9+00001-00281100821ADDAY181999GA1031+004809089GF108991081081004501999999MD1210121+9999MW1861
0097010300999991955022506004+69700+019017FM-12+002499999V0200201N00101006001CN0100001N9-00111-00221100861ADDAA199001091AY181999GA1081+006009099GF108991081091008001999999KA1999N-00221MD1210041+9999MW1851
0073010300999991955022509004+69700+019017FM-12+002499999V0200201N00101006001CN0100001N9-00221-00391100951ADDAY181999GA1051+006009089GF107991071081008001001001MD1210091+9999MW1851
0073010300999991955022512004+69700+019017FM-12+002499999V0209991C00001007201CN0450001N9-00111-00281101071ADDAY181999GA1061+007209099GF106991061091008001001001MD1210121+9999MW1261
0092010300999991955022515004+69700+019017FM-12+002499999V0203601N00101007201CN0100001N9-00221-00281101071ADDAY181999GA1071+007209099GF199999051091008001061001MD1410001+9999MW1851EQDQ01+000052SCOTCV
0097010300999991955022518004+69700+019017FM-12+002499999V0202701N00101007201CN0450001N9-00281-00391101091ADDAA199002091AY181999GA1061+007209099GF106991061091008001001001KA1999M-00111MD1210021+9999MW1261
0073010300999991955022600004+69700+019017FM-12+002499999V0202501N00261007201CN0300001N9-00391-00501101081ADDAY181999GA1071+007209099GF107991071091008001001001MD1710011+9999MW1851
0073010300999991955022603004+69700+019017FM-12+002499999V0202301N00261007201CN0500001N9-00281-00391101071ADDAY181999GA1071+007209099GF107991071091008001001001MD1710011+9999MW1261
0097010300999991955022606004+69700+019017FM-12+002499999V0202401N00411007201CN0030001N9-00391-00501101101ADDAA199003091AY181999GA1071+007209099GF107991071091008001001001KA1999N-00501MD1310031+9999MW1851
0073010300999991955022609004+69700+019017FM-12+002499999V0202301N00511007801CN0500001N9-00281-00391101161ADDAY181999GA1061+007809099GF107991061091008001061001MD1210061+9999MW1151
0073010300999991955022612004+69700+019017FM-12+002499999V0202301N00511007801CN0400001N9-00221-00281101181ADDAY181999GA1051+007809099GF107991051091008001061021MD1210021+9999MW1261
0073010300999991955022615004+69700+019017FM-12+002499999V0202101N00511003601CN0006001N9-00281-00391101211ADDAY181999GA1081+003609099GF108991081091004501999999MD1210031+9999MW1861
0097010300999991955022618004+69700+019017FM-12+002499999V0202301N00261005401CN0090001N9-00281-00391101231ADDAA199005091AY181999GA1071+005409099GF107991071091004501001001KA1999M-00221MD1210021+9999MW1851
0097010300999991955022706004+69700+019017FM-12+002499999V0202301N00771000301CN0003001N9-00221-00281101251ADDAA199009091AY181999GA1091+000309999GF109991091999000251999999KA1999N-00391MD1410001+9999MW1861
0073010300999991955022709004+69700+019017FM-12+002499999V0202101N00511005401CN0120001N9-00111-00111101301ADDAY181999GA1071+005409099GF107991071091004501001001MD1210051+9999MW1851
0073010300999991955022712004+69700+019017FM-12+002499999V0202501N00671005401CN0019001N9-00111-00111101411ADDAY181999GA1071+005409099GF107991071091004501001001MD1210111+9999MW1861
0073010300999991955022715004+69700+019017FM-12+002499999V0202301N00671000301CN0002001N9-00221-00221101451ADDAY181999GA1091+000309999GF109991091999000251999999MD1210041+9999MW1861
0097010300999991955022718004+69700+019017FM-12+002499999V0202301N00461220001CN0500001N9-00111-00281101341ADDAA199013091AY181999GA1031+006909089GF106991031081008001061021KA1999M-00111MD1810111+9999MW1021
0073010300999991955022800004+69700+019017FM-12+002499999V0202701N00411220001CN0500001N9-00281-00391101351ADDAY121999GA1041+007209099GF104991041091008001001001MD1210051+9999MW1011
0057010300999991955022803004+69700+019017FM-12+002499999V0202501N00261220001CN0500001N9-00501-00611101491ADDAY101999GF100991001001999999001001MD1210141+9999MW1011
0086010300999991955022806004+69700+019017FM-12+002499999V0202301N00261220001CN0500001N9-00281-00391101681ADDAY111999GA1041+012009059GF104991041051012501001001KA1999N-00611MD1210191+9999MW1031
0089010300999991955022809004+69700+019017FM-12+002499999V0202301N00261220001CN0600001N9-00281-00281101811ADDAY111999GA1011+005109059GA2041+030009039GF104991011051004501051001MD1210131+9999MW1031
0089010300999991955022812004+69700+019017FM-12+002499999V0202001N00101021001CN0600001N9-00111-00111101931ADDAY181999GA1011+005409089GA2071+021009039GF107991021081004501071001MD1210121+9999MW1021
0089010300999991955022815004+69700+019017FM-12+002499999V0202101N00101012001CN0080001N9-00221-00281101951ADDAY121999GA1011+005409059GA2071+012009049GF107991011051004501021001MD1110021+9999MW1701
0113010300999991955022818004+69700+019017FM-12+002499999V0203601N00101009001CN0120001N9-00221-00281101901ADDAA199000391AY171999GA1081+009009059GA2011+005109079GF108991081051008001999999KA1999M-00111MD1810051+9999MW1701
0057010300999991955030100004+69700+019017FM-12+002499999V0209991C00001220001CN0600001N9-00281-00391101611ADDAY121999GF102991001001999999071011MD1710161+9999MW1011
0092010300999991955030103004+69700+019017FM-12+002499999V0209991C00001030001CN0600001N9-00221-00281101431ADDAY101999GA1081+030009049GF108991999001999999021999MD1710181+9999MW1031EQDQ01+000002SCOTLC
0086010300999991955030106004+69700+019017FM-12+002499999V0202301N00931009001CN0600001N9+00111-00501101271ADDAY121999GA1081+009009049GF108991081001008001021999KA1999N-00391MD1710161+9999MW1031
0092010300999991955030109004+69700+019017FM-12+002499999V0202301N00931007501CN0090001N9+00001-00391101271ADDAY171999GA1081+007509049GF108991081001008001021999MD1410001+9999MW1711EQDQ01+000022APCTEN
0089010300999991955030112004+69700+019017FM-12+002499999V0202301N00931008401CN0070001N9+00111+00001101331ADDAY171999GA1021+006009079GA2081+008409049GF108991021071008001021999MD1310061+9999MW1711
0073010300999991955030115004+69700+019017FM-12+002499999V0202301N00931008401CN0500001N9+00221-00281101441ADDAY171999GA1051+008409099GF106991051091008001041001MD1210111+9999MW1021
0097010300999991955030118004+69700+019017FM-12+002499999V0202301N00721008401CN0500001N9+00281-00221101481ADDAA199000391AY181999GA1051+008409089GF106991061081008001001001KA1999M+00281MD1310041+9999MW1011
0092010300999991955030200004+69700+019017FM-12+002499999V0202501N00461220001CN0600001N9+00221-00391101351ADDAY111999GA1011+030009039GF104991999001999999041061MD1810071+9999MW1031EQDQ01+000002SCOTLC
0073010300999991955030203004+69700+019017FM-12+002499999V0203601N00101027001CN0500001N9+00111-00281101081ADDAY111999GA1061+027009049GF107991061001999999011071MD1710271+9999MW1031
0102010300999991955030206004+69700+019017FM-12+002499999V0202301N00671015001CN0500001N9+00221-00391100871ADDAY121999GA1081+015009049GA2021+006009059GF108991021051008001021999KA1999N+00001MD1610211+9999MW1151
0089010300999991955030209004+69700+019017FM-12+002499999V0202301N00671015001CN0500001N9+00111-00281100631ADDAY171999GA1081+015009049GA2021+007509059GF108991021051008001021999MD1710241+9999MW1021
0073010300999991955030212004+69700+019017FM-12+002499999V0202501N00261220001CN0500001N9+00221-00221100571ADDAY171999GA1041+007509059GF106991051081008001041021MD1610061+9999MW1011
0073010300999991955030215004+69700+019017FM-12+002499999V0202501N00721007501CN0500001N9+00111-00391100601ADDAY121999GA1051+007509059GF107991051081008001071001MD1310031+9999MW1031
0097010300999991955030218004+69700+019017FM-12+002499999V0202301N00721007501CN0500001N9+00221-00111100731ADDAA199000691AY121999GA1061+007509059GF108991061051008001021999KA1999M+00221MD1210131+9999MW1151
0073010300999991955030300004+69700+019017FM-12+002499999V0202301N00671007501CN0600001N9+00221-00221100961ADDAY121999GA1061+007509059GF106991061051008001001001MD1210121+9999MW1021
0073010300999991955030303004+69700+019017FM-12+002499999V0202301N00931007501CN0600001N9+00221-00221101041ADDAY121999GA1061+007509059GF106991061051008001001001MD1110081+9999MW1021
0086010300999991955030306004+69700+019017FM-12+002499999V0202201N00461009001CN0600001N9+00221-00111101111ADDAY121999GA1061+009009059GF106991061051008001001001KA1999N+00111MD1010071+9999MW1021
0073010300999991955030309004+69700+019017FM-12+002499999V0202501N00461024001CN0500001N9+00221-00281100951ADDAY121999GA1081+024009049GF108991081001999999021999MD1710161+9999MW1031
0073010300999991955030312004+69700+019017FM-12+002499999V0202301N00931006001CN0035001N9+00111+00001100901ADDAY171999GA1061+006009079GF108991061071008001021999MD1710051+9999MW1711
0089010300999991955030315004+69700+019017FM-12+002499999V0202401N00931007501CN0120001N9+00281+00221100701ADDAY161999GA1031+006009079GA2081+007509049GF108991031071008001021999MD1710201+9999MW1611
0097010300999991955030318004+69700+019017FM-12+002499999V0202301N00931007501CN0200001N9+00391+00221100621ADDAA199000691AY171999GA1061+007509079GF108991061071008001021999KA1999M+00391MD1710081+9999MW1601
0073010300999991955030400004+69700+019017FM-12+002499999V0202301N00671008401CN0400001N9+00281+00221100721ADDAY161999GA1061+008409079GF108991061071008001021999MD1110091+9999MW1611
0073010300999991955030403004+69700+019017FM-12+002499999V0201601N00261008401CN0400001N9+00281+00221100661ADDAY161999GA1061+008409079GF108991061071008001021999MD1710061+9999MW1611
0097010300999991955030406004+69700+019017FM-12+002499999V0209991C00001008401CN0400001N9+00281+00221100531ADDAA199003091AY161999GA1071+008409079GF108991071071008001021999KA1999N+00221MD1710131+9999MW1611
0089010300999991955030409004+69700+019017FM-12+002499999V0202501N00261220001CN0500001N9+00391+00001100571ADDAY161999GA1031+009009059GA2041+015009049GF107991031051008001021001MD1310041+9999MW1011
0089010300999991955030412004+69700+019017FM-12+002499999V0202301N00101220001CN0500001N9+00391+00001100631ADDAY121999GA1041+009009059GA2011+006009089GF107991051081008001071001MD1210061+9999MW1021
0073010300999991955030415004+69700+019017FM-12+002499999V0202001N00261220001CN0350001N9+00281+00001100701ADDAY121999GA1041+013509059GF106991041051012501041001MD1310071+9999MW1051
0097010300999991955030418004+69700+019017FM-12+002499999V0202301N00461220001CN0350001N9+00281-00111100821ADDAA199000691AY121999GA1041+012009059GF107991041051012501041001KA1999M+00391MD1210121+9999MW1051
0089010300999991955030500004+69700+019017FM-12+002499999V0202301N00771220001CN0500001N9+00221-00221101271ADDAY121999GA1041+009009059GA2011+008409089GF107991051081008001071001MD1210201+9999MW1021
0089010300999991955030503004+69700+019017FM-12+002499999V0202101N00821220001CN0500001N9+00221-00221101421ADDAY121999GA1041+012009059GA2011+009009089GF107991041081008001071021MD1210151+9999MW1021
0102010300999991955030506004+69700+019017FM-12+002499999V0202301N00511010201CN0500001N9+00221-00221101601ADDAY121999GA1051+010209059GA2011+007809089GF107991051081008001041021KA1999N+00111MD1210181+9999MW1021
0089010300999991955030509004+69700+019017FM-12+002499999V0202301N00771220001CN0500001N9+00221-00221101761ADDAY121999GA1041+010509059GA2021+008409089GF107991061081012501041001MD1210161+9999MW1851
0073010300999991955030512004+69700+019017FM-12+002499999V0202301N00511004801CN0019001N9+00221+00001101971ADDAY181999GA1081+004809099GF108991081091004501999999MD1210211+9999MW1861
0073010300999991955030515004+69700+019017FM-12+002499999V0202301N00461007501CN0400001N9+00111+00001102111ADDAY181999GA1061+007509099GF106991061091008001001001MD1210141+9999MW1151
0097010300999991955030518004+69700+019017FM-12+002499999V0202301N00671007501CN0500001N9+00111+00001102171ADDAA199004091AY181999GA1061+007509099GF107991061091008001061001KA1999M+00281MD1210061+9999MW1021
0116010300999991955030606004+69700+019017FM-12+002499999V0202301N01541007801CN0045001N9+00111+00001100711ADDAA199000591AY171999GA1071+007809079GF108991071071008001021999KA1999N+00001MD1710542+9999MW1711EQDQ01+000542APC3  
0073010300999991955030609004+69700+019017FM-12+002499999V0202501N00931007801CN0070001N9+00111+00001100391ADDAY171999GA1071+007809079GF107991071071008001001001MD1710321+9999MW1681
0073010300999991955030612004+69700+019017FM-12+002499999V0202501N00261006001CN0025001N9+00111+00001100291ADDAY171999GA1081+006009079GF108991081071008001999999MD1610101+9999MW1741
0073010300999991955030615004+69700+019017FM-12+002499999V0202101N00671220001CN0002001N9-00111-00221100091ADDAY171999GA1091+999999999GF109991091999999999999999MD1810201+9999MW1751
0097010300999991955030618004+69700+019017FM-12+002499999V0203401N01181006901CN0300001N9+00281+00221099831ADDAA199011091AY181999GA1071+006909099GF107991071091008001001001KA1999M+00391MD1710261+9999MW1801
0073010300999991955030700004+69700+019017FM-12+002499999V0203601N01131006001CN0050001N9+00221+00111100301ADDAY181999GA1081+006009099GF108991081091008001999999MD1210171+9999MW1831
0073010300999991955030703004+69700+019017FM-12+002499999V0203601N00931006001CN0100001N9+00111+00001100361ADDAY181999GA1071+006009099GF107991071091008001999999MD1210061+9999MW1831
0097010300999991955030706004+69700+019017FM-12+002499999V0200201N00461006901CN0030001N9+00111+00001100441ADDAA199005091AY181999GA1081+006909099GF108991081091008001999999KA1999N+00001MD1210081+9999MW1831
0089010300999991955030709004+69700+019017FM-12+002499999V0203601N00931006901CN0100001N9+00221+00111100631ADDAY181999GA1071+006909099GA2011+004209009GF107991071091008001041001MD1210191+9999MW1151
0073010300999991955030712004+69700+019017FM-12+002499999V0200701N00621006901CN0080001N9+00221+00111100861ADDAY181999GA1071+006909099GF107991071091008001001001MD1210231+9999MW1831
0073010300999991955030715004+69700+019017FM-12+002499999V0200701N00261009001CN0600001N9+00111+00001101011ADDAY181999GA1061+009009089GF106991061081008001001001MD1210151+9999MW1011
0097010300999991955030718004+69700+019017FM-12+002499999V0200901N00261009001CN0350001N9+00111-00221101181ADDAA199000391AY181999GA1071+009009089GF107991071081008001001001KA1999M+00221MD1210171+9999MW1151
0073010300999991955030800004+69700+019017FM-12+002499999V0200901N00461009001CN0500001N9-00111-00391101401ADDAY181999GA1051+009009059GF106991061081008001041001MD1210121+9999MW1011
0073010300999991955030803004+69700+019017FM-12+002499999V0200701N00621009001CN0500001N9-00111-00391101441ADDAY121999GA1061+009009059GF106991061081008001041001MD1210041+9999MW1021
0113010300999991955030806004+69700+019017FM-12+002499999V0201601N00621220001CN0500001N9-00221-00721101521ADDAA199000691AY121999GA1031+012009059GA2011+007809089GF104991041081008001041001KA1999N-00281MD1210081+9999MW1011
0092010300999991955030809004+69700+019017FM-12+002499999V0201401N00101220001CN0600001N9-00221-00781101651ADDAY111999GA1011+027009089GF101991999001999999041001MD1210131+9999MW1021EQDQ01+000002SCOTLC
0057010300999991955030812004+69700+019017FM-12+002499999V0202501N00261220001CN0600001N9-00281-01001101781ADDAY101999GF100991001001999999001001MD1210131+9999MW1021
0057010300999991955030815004+69700+019017FM-12+002499999V0202501N00461220001CN0600001N9-00501-01221101801ADDAY101999GF100991001001999999001001MD1210021+9999MW1021
0070010300999991955030818004+69700+019017FM-12+002499999V0202501N00261220001CN0600001N9-00781-01391101781ADDAY101999GF100991001001999999001001KA1999M-00221MD1710021+9999MW1021
0057010300999991955030900004+69700+019017FM-12+002499999V0202501N00461220001CN0600001N9-00891-01501101611ADDAY101999GF100991001001999999001001MD1810121+9999MW1021
0057010300999991955030903004+69700+019017FM-12+002499999V0202501N00461220001CN0600001N9-01001-01611101501ADDAY101999GF100991001001999999001001MD1710111+9999MW1021
0070010300999991955030906004+69700+019017FM-12+002499999V0202301N00461220001CN0500001N9-01001-01501101361ADDAY101999GF100991001001999999001001KA1999N-01111MD1710141+9999MW1051
0057010300999991955030909004+69700+019017FM-12+002499999V0202301N00461220001CN0400001N9-00891-01501101241ADDAY101999GF100991001001999999001001MD1710121+9999MW1051
0057010300999991955030912004+69700+019017FM-12+002499999V0201801N00461220001CN0400001N9-00721-01281101121ADDAY101999GF100991001001999999001001MD1710121+9999MW1051
0057010300999991955030915004+69700+019017FM-12+002499999V0202301N00261220001CN0400001N9-00781-01391101061ADDAY101999GF100991001001999999001001MD1710061+9999MW1051
0070010300999991955030918004+69700+019017FM-12+002499999V0202301N00261220001CN0350001N9-00891-01501101051ADDAY101999GF100991001001999999001001KA1999M-00611MD1610011+9999MW1051
0057010300999991955031000004+69700+019017FM-12+002499999V0202301N00671220001CN0500001N9-01001-01611101311ADDAY101999GF100991001001999999001001MD1210171+9999MW1021
0057010300999991955031003004+69700+019017FM-12+002499999V0202301N00461220001CN0500001N9-01111-01611101441ADDAY101999GF100991001001999999001001MD1210131+9999MW1021
0070010300999991955031006004+69700+019017FM-12+002499999V0202301N00461220001CN0350001N9-01111-01611101561ADDAY101999GF100991001001999999001001KA1999N-01221MD1210121+9999MW1051
0092010300999991955031009004+69700+019017FM-12+002499999V0202501N00621220001CN0350001N9-01001-01501101691ADDAY101999GA1011+030009039GF101991999001999999041001MD1210131+9999MW1031EQDQ01+000002SCOTLC
0092010300999991955031012004+69700+019017FM-12+002499999V0202501N00931220001CN0300001N9-00781-01281101731ADDAY101999GA1021+027009039GF102991999001999999041001MD1210041+9999MW1031EQDQ01+000002SCOTLC
0073010300999991955031015004+69700+019017FM-12+002499999V0202301N00671012001CN0200001N9-00611-01111101701ADDAY171999GA1061+012009059GF107991061051012501071999MD1710031+9999MW1701
0097010300999991955031018004+69700+019017FM-12+002499999V0202501N00931012001CN0450001N9-00501-00891101691ADDAA199000691AY171999GA1051+012009059GF106991051051012501041001KA1999M-00501MD1710011+9999MW1011
0057010300999991955031100004+69700+019017FM-12+002499999V0202501N009319999999N0400001N9-00111-00721101231ADDAY121999GF107991011051012501011071MD1710301+9999MW1031
0073010300999991955031103004+69700+019017FM-12+002499999V0202401N00931007501CN0180001N9+00001-00611100671ADDAY121999GA1071+007509059GF108991071051008001021999MD1710561+9999MW1701
0113010300999991955031106004+69700+019017FM-12+002499999V0202301N01231007501CN0060001N9+00111-00221100181ADDAA199000591AY171999GA1071+007509059GA2011+003609009GF108991071051008001021999KA1999N-00611MD1710491+9999MW1701
0089010300999991955031109004+69700+019017FM-12+002499999V0202101N01341006901CN0080001N9+00111-00111099931ADDAY171999GA1071+006909059GA2011+004209079GF108991071051008001021999MD1510251+9999MW1681
0089010300999991955031112004+69700+019017FM-12+002499999V0202101N01031006001CN0060001N9+00221+00111099891ADDAY171999GA1061+006009079GA2011+003609079GF108991061071008001021999MD1710041+9999MW1631
0073010300999991955031115004+69700+019017FM-12+002499999V0202301N01031004501CN0050001N9+00281+00221099961ADDAY161999GA1081+004509099GF108991081091004501999999MD1310071+9999MW1831
0097010300999991955031118004+69700+019017FM-12+002499999V0202301N00671006901CN0100001N9+00221-00111100071ADDAA199008091AY181999GA1071+006909099GF107991071091008001999999KA1999M+00391MD1210111+9999MW1871
0073010300999991955031200004+69700+019017FM-12+002499999V0202701N00671007501CN0050001N9+00001-00221100431ADDAY181999GA1081+007509099GF108991081091008001999999MD1210151+9999MW1851
0073010300999991955031203004+69700+019017FM-12+002499999V0203201N00671007501CN0300001N9+00111-00391100611ADDAY181999GA1071+007509099GF107991071091008001999999MD1210181+9999MW1851
0097010300999991955031206004+69700+019017FM-12+002499999V0202301N00311007501CN0020001N9-00111-00281100891ADDAA199005091AY181999GA1071+007509099GF107991071091008001999999KA1999N-00221MD1210281+9999MW1851
0073010300999991955031209004+69700+019017FM-12+002499999V0202501N00261007501CN0150001N9-00111-00221101081ADDAY181999GA1071+007509099GF107991071091008001001001MD1210191+9999MW1851
0073010300999991955031212004+69700+019017FM-12+002499999V0202501N00511008101CN0200001N9+00111-00501101111ADDAY181999GA1071+008109099GF107991071091008001001001MD1210031+9999MW1151
0073010300999991955031215004+69700+019017FM-12+002499999V0202301N00671007501CN0015001N9+00001-00111100991ADDAY181999GA1061+007509059GF107991061081008001071001MD1710121+9999MW1741
0097010300999991955031218004+69700+019017FM-12+002499999V0202301N00771220001CN0450001N9+00001-00221100851ADDAA199002091AY181999GA1041+009009059GF104991041081008001001021KA1999M+00111MD1710141+9999MW1151
0086010300999991955031306004+69700+019017FM-12+002499999V0209991C00001220001CN0500001N9-00221-00721099721ADDAY121999GA1021+012009059GF106991021051012501071021KA1999N-00221MD1710201+9999MW1021
0073010300999991955031309004+69700+019017FM-12+002499999V0202301N00261012001CN0500001N9-00111-00611099711ADDAY121999GA1051+012009059GF106991051051012501041021MD1710011+9999MW1021
0073010300999991955031312004+69700+019017FM-12+002499999V0202401N00261010201CN0500001N9+00001-00501099671ADDAY171999GA1061+010209059GF108991061051012501021999MD1610041+9999MW1151
0073010300999991955031315004+69700+019017FM-12+002499999V0202401N00261007501CN0500001N9-00111-00221099651ADDAY181999GA1051+007509059GF107991071081008001999999MD1710021+9999MW1151
0097010300999991955031318004+69700+019017FM-12+002499999V0203201N00261001501CN0020001N9-00111-00221099691ADDAA199002091AY181999GA1091+001509999GF109991091999001501999999KA1999M+00111MD1310041+9999MW1861
0073010300999991955031400004+69700+019017FM-12+002499999V0202401N00261009001CN0500001N9-00281-00391099821ADDAY181999GA1061+009009089GF106991061081008001001001MD1110071+9999MW1151
0073010300999991955031403004+69700+019017FM-12+002499999V0202101N00261220001CN0240001N9-00391-00501099821ADDAY181999GA1041+007809099GF105991041091008001061001MD1410001+9999MW1851
0097010300999991955031406004+69700+019017FM-12+002499999V0202101N00261220001CN0260001N9-00391-00501099801ADDAA199003091AY181999GA1041+007809099GF104991041091008001001001KA1999N-00501MD1710021+9999MW1851
0092010300999991955031409004+69700+019017FM-12+002499999V0202301N00261006901CN0040001N9-00391-00501099801ADDAY181999GA1071+006909099GF107991071091008001061001MD1410001+9999MW1851EQDQ01+000022APCTEN
0073010300999991955031412004+69700+019017FM-12+002499999V0202301N00261007501CN0040001N9-00281-00391099791ADDAY181999GA1051+007509099GF107991051091008001061001MD1710011+9999MW1851
0073010300999991955031415004+69700+019017FM-12+002499999V0202301N00211006901CN0040001N9-00391-00501099781ADDAY181999GA1071+006909099GF107991071091008001001001MD1710021+9999MW1851
0097010300999991955031418004+69700+019017FM-12+002499999V0202301N00621006001CN0300001N9-00391-00501099641ADDAA199006091AY181999GA1071+006009099GF107991071091008001001001KA1999M-00391MD1810141+9999MW1851
0073010300999991955031500004+69700+019017FM-12+002499999V0203401N00101009001CN0300001N9-00391-00501099151ADDAY181999GA1081+009009089GF108991081081008001999999MD1710301+9999MW1851
0073010300999991955031503004+69700+019017FM-12+002499999V0202901N00101220001CN0500001N9-00501-00891098781ADDAY181999GA1031+012009059GF104991031081012501041001MD1710371+9999MW1011
0097010300999991955031506004+69700+019017FM-12+002499999V0209991C00001220001CN0600001N9-00501-00891098411ADDAA199001091AY181999GA1041+030009039GF105991011051012501071021KA1999N-00611MD1710371+9999MW1011
0073010300999991955031509004+69700+019017FM-12+002499999V0200901N00101220001CN0600001N9-00281-00891098131ADDAY121999GA1021+030009039GF105991011051012501071021MD1610281+9999MW1021
0073010300999991955031512004+69700+019017FM-12+002499999V0201401N00261220001CN0600001N9+00001-00891098091ADDAY121999GA1021+030009039GF105991011051012501071071MD1610041+9999MW1021
0089010300999991955031515004+69700+019017FM-12+002499999V0201601N00511220001CN0600001N9-00281-01111098291ADDAY121999GA1031+030009039GA2011+012009059GF105991011051012501071021MD1210201+9999MW1021
0102010300999991955031518004+69700+019017FM-12+002499999V0203401N00461220001CN0600001N9-00501-01281098511ADDAY121999GA1031+030009039GA2011+012009059GF106991011051012501041071KA1999M+00001MD1210221+9999MW1031
0073010300999991955031600004+69700+019017FM-12+002499999V0200901N01031015001CN0500001N9-00501-01221098981ADDAY121999GA1081+015009049GF108991081001017501071999MD1210271+9999MW1021
0073010300999991955031603004+69700+019017FM-12+002499999V0200501N01031012001CN0500001N9-00501-01001099301ADDAY121999GA1071+012009059GF107991071051012501001001MD1210321+9999MW1011
0086010300999991955031606004+69700+019017FM-12+002499999V0200901N01231220001CN0500001N9-00611-01221099721ADDAY121999GA1031+012009089GF104991031081012501041021KA1999N-00611MD1210421+9999MW1021
0073010300999991955031609004+69700+019017FM-12+002499999V0200901N00931220001CN0600001N9-00501-01221099981ADDAY111999GA1011+012009089GF101991011021012501001021MD1210261+9999MW1011
0073010300999991955031612004+69700+019017FM-12+002499999V0200901N00671220001CN0600001N9-00501-01281100301ADDAY101999GA1021+012009089GF102991021021012501001021MD1210321+9999MW1021
0073010300999991955031615004+69700+019017FM-12+002499999V0200901N00671220001CN0600001N9-00501-01221100501ADDAY101999GA1011+012009089GF101991011011012501001001MD1210201+9999MW1021
0086010300999991955031618004+69700+019017FM-12+002499999V0200801N00461220001CN0600001N9-00611-01281100711ADDAY101999GA1011+012009089GF101991011011012501001001KA1999M-00501MD1210211+9999MW1021
0057010300999991955031700004+69700+019017FM-12+002499999V0200901N00101220001CN0600001N9-00781-01281100911ADDAY101999GF100991001001999999001001MD1210081+9999MW1021
0073010300999991955031703004+69700+019017FM-12+002499999V0202701N00151220001CN0600001N9-00891-01391100951ADDAY101999GA1011+012009059GF102991011051012501071001MD1210041+9999MW1031
0102010300999991955031706004+69700+019017FM-12+002499999V0202501N00151012001CN0300001N9-00781-01001100991ADDAY101999GA1021+004809089GA2051+012009049GF106991021081004501021001KA1999N-01001MD1210041+9999MW1151
0073010300999991955031709004+69700+019017FM-12+002499999V0202501N00101220001CN0100001N9-00611-00721100981ADDAY181999GA1031+006009089GF104991041081008001041021MD1710011+9999MW1851
0073010300999991955031712004+69700+019017FM-12+002499999V0201401N00101220001CN0500001N9-00281-00781100981ADDAY181999GA1021+006909089GF104991021081008001041021MD1410001+9999MW1021
0073010300999991955031715004+69700+019017FM-12+002499999V0203401N00261220001CN0500001N9-00501-00891100981ADDAY181999GA1021+008409089GF102991021021008001061001MD1410001+9999MW1011
0097010300999991955031718004+69700+019017FM-12+002499999V0203401N00261220001CN0500001N9-00721-01111100971ADDAA199000391AY181999GA1011+007809059GF102991011041008001001021KA1999M-00281MD1710011+9999MW1011
0057010300999991955031800004+69700+019017FM-12+002499999V0202301N00101220001CN0600001N9-00781-01001100891ADDAY181999GF101991011051008001001001MD1410001+9999MW1021
0057010300999991955031803004+69700+019017FM-12+002499999V0202501N00101220001CN0600001N9-00891-01001100911ADDAY101999GF101991011051008001041021MD1210021+9999MW1021
0097010300999991955031806004+69700+019017FM-12+002499999V0201601N00101220001CN0600001N9-00781-00891100951ADDAA199000691AY101999GA1011+006009059GF103991011051008001041021KA1999N-01001MD1210041+9999MW1021
0073010300999991955031809004+69700+019017FM-12+002499999V0209991C00001220001CN0400001N9-00501-00611101031ADDAY111999GA1021+007809089GF105991021031008001001021MD1210081+9999MW1851
0073010300999991955031812004+69700+019017FM-12+002499999V0209991C00001220001CN0070001N9-00221-00501101041ADDAY181999GA1031+006909089GF104991031031008001001021MD1210011+9999MW1851
0073010300999991955031815004+69700+019017FM-12+002499999V0209991C00001220001CN0300001N9-00221-00501101101ADDAY181999GA1031+009009089GF105991031031008001041021MD1210061+9999MW1151
0097010300999991955031818004+69700+019017FM-12+002499999V0200501N00261220001CN0300001N9-00391-00611101051ADDAA199000391AY181999GA1041+009009089GF107991041081008001041021KA1999M-00221MD1710051+9999MW1151
0073010300999991955031900004+69700+019017FM-12+002499999V0201101N00101006901CN0040001N9-00391-00501101061ADDAY181999GA1071+006909099GF107991071091008001001001MD1410001+9999MW1851
0073010300999991955031903004+69700+019017FM-12+002499999V0203601N00261006901CN0034001N9-00391-00501101011ADDAY181999GA1081+006909099GF108991081091008001999999MD1710051+9999MW1851
0097010300999991955031906004+69700+019017FM-12+002499999V0203601N00101005401CN0009001N9-00391-00501100951ADDAA199003091AY181999GA1081+005409099GF108991081091004501999999KA1999N-00611MD1610061+9999MW1851
0073010300999991955031909004+69700+019017FM-12+002499999V0203401N00621005401CN0070001N9-00281-00391100911ADDAY181999GA1071+005409099GF107991071091004501001001MD1610041+9999MW1851
0073010300999991955031912004+69700+019017FM-12+002499999V0209991C00001220001CN0600001N9+00001-00281100891ADDAY181999GA1011+009009089GF102991011081008001041021MD1810021+9999MW1011
0073010300999991955031915004+69700+019017FM-12+002499999V0209991C00001220001CN0600001N9-00111-00721100871ADDAY101999GA1011+009909089GF103991011031008001001021MD1710021+9999MW1011
0113010300999991955031918004+69700+019017FM-12+002499999V0202301N00261220001CN0600001N9-00501-00891100841ADDAA199001091AY111999GA1011+012009059GA2021+030009049GF105991011051012501071071KA1999M+00111MD1710031+9999MW1031
0086010300999991955032006004+69700+019017FM-12+002499999V0202501N00101220001CN0600001N9-00501-00781100871ADDAY101999GA1011+005409059GF106991011051004501071071KA1999N-00611MD1210031+9999MW1021
0073010300999991955032009004+69700+019017FM-12+002499999V0201801N00101220001CN0600001N9-00391-00781100971ADDAY121999GA1011+005409059GF107991011051004501041071MD1210101+9999MW1031
0057010300999991955032012004+69700+019017FM-12+002499999V0209991C00001220001CN0600001N9-00221-00721101061ADDAY121999GF107991001001999999071071MD1210091+9999MW1021
0057010300999991955032015004+69700+019017FM-12+002499999V0201601N00101220001CN0600001N9-00281-00721101031ADDAY121999GF107991001001999999071071MD1710031+9999MW1021
0070010300999991955032018004+69700+019017FM-12+002499999V0209991C00001220001CN0600001N9-00611-01001101061ADDAY121999GF107991001001999999071071KA1999M-00221MD1210031+9999MW1021
0076010300999991955032100004+69700+019017FM-12+002499999V0202701N00101220001CN0600001N9-00781-00891101081ADDAY101999GF101991999001999999041001MD1410001+9999MW1011EQDQ01+000002SCOTLC
0076010300999991955032103004+69700+019017FM-12+002499999V0202501N00261220001CN0600001N9-00891-01001101011ADDAY101999GF101991999001999999041001MD1810071+9999MW1021EQDQ01+000002SCOTLC
0086010300999991955032106004+69700+019017FM-12+002499999V0202501N00151220001CN0600001N9-00781-00891100891ADDAY101999GA1021+030009039GF105991021001999999041061KA1999N-01001MD1710121+9999MW1031
0089010300999991955032109004+69700+019017FM-12+002499999V0202501N00101220001CN0500001N9-00611-00721100801ADDAY111999GA1011+003909079GA2011+027009039GF107991011061004501041071MD1710091+9999MW1031
0089010300999991955032112004+69700+019017FM-12+002499999V0209991C00001220001CN0400001N9-00391-00721100641ADDAY121999GA1011+006609059GA2041+024009049GF107991011051008001011071MD1710161+9999MW1051
0089010300999991955032115004+69700+019017FM-12+002499999V0202701N00101024001CN0400001N9-00501-00891100461ADDAY121999GA1011+006909059GA2071+024009049GF107991011051008001071001MD1710181+9999MW1051
0097010300999991955032118004+69700+019017FM-12+002499999V0202301N00461006001CN0100001N9-00501-00611100081ADDAA199000691AY171999GA1061+006009089GF108991061071008001021999KA1999M-00391MD1710381+9999MW1701
