0076010300999991952010200004+69700+019017FM-12+002499999V0209991C00001220001CN0600001N9-00281-00501098621ADDAY101999GF101991999001999999041001MD1310131+9999MW1021EQDQ01+000002SCOTLC
0076010300999991952010203004+69700+019017FM-12+002499999V0202501N00261220001CN0600001N9-00391-00721098761ADDAY101999GF101991999001999999041001MD1310141+9999MW1021EQDQ01+000002SCOTLC
0095010300999991952010206004+69700+019017FM-12+002499999V0200501N00211220001CN0600001N9-00111-00501098861ADDAY101999GF101991999001999999041001IA1209KA1999N-00391MD1310101+9999MW1021EQDQ01+000002SCOTLC
0092010300999991952010209004+69700+019017FM-12+002499999V0209991C00001220001CN0600001N9-00111-00501099031ADDAY101999GA1011+024009039GF103991999001999999041021MD1310171+9999MW1021EQDQ01+000002SCOTLC
0057010300999991952010212004+69700+019017FM-12+002499999V0200601N00101220001CN0600001N9-00221-00611099211ADDAY101999GF101991011011012501041011MD1310181+9999MW1021
0073010300999991952010215004+69700+019017FM-12+002499999V0200201N00101220001CN0600001N9-00281+99999099261ADDAY101999GA1011+012009089GF102991011011012501041011MD1310051+9999MW1021
0095010300999991952010218004+69700+019017FM-12+002499999V0200201N00101220001CN0600001N9-00221-00721099351ADDAY101999GF101991999001999999041001IA1209KA1999M+00111MD1310091+9999MW1021EQDQ01+000002SCOTLC
0073010300999991952010300004+69700+019017FM-12+002499999V0200701N00461220001CN0700001N9+00001-00391099431ADDAY101999GA1011+012009059GF101991011041012501001001MD1110021+9999MW1021
0073010300999991952010303004+69700+019017FM-12+002499999V0203601N00261220001CN0700001N9+00111-00391099461ADDAY101999GA1021+012009059GF102991021041012501001001MD1310031+9999MW1031
0092010300999991952010306004+69700+019017FM-12+002499999V0200701N00261220001CN0700001N9+00111-00391099501ADDAY101999GA1011+012009059GF102991011041012501041001IA1209KA1999N-00221MD1310041+9999MW1021
0073010300999991952010309004+69700+019017FM-12+002499999V0200901N00361220001CN0700001N9+00001-00501099621ADDAY121999GA1021+012009059GF103991021051012501041021MD1310121+9999MW1021
0073010300999991952010312004+69700+019017FM-12+002499999V0200901N00261012001CN0700001N9+00001-00391099661ADDAY121999GA1061+012009059GF107991061051012501041011MD1310041+9999MW1021
0073010300999991952010315004+69700+019017FM-12+002499999V0200901N00461012001CN0700001N9+00001-00391099711ADDAY121999GA1071+012009059GF107991071051012501001001MD1310051+9999MW1021
0092010300999991952010318004+69700+019017FM-12+002499999V0201101N00511220001CN0700001N9+00001-00721099871ADDAY121999GA1021+012009059GF102991021051012501041021IA1209KA1999M+00111MD1310161+9999MW1011
0092010300999991952010400004+69700+019017FM-12+002499999V0200501N00151220001CN0600001N9-00221-00721100161ADDAY111999GA1031+027009039GF103991999001999999041021MD1310121+9999MW1021EQDQ01+000002SCOTLC
0073010300999991952010403004+69700+019017FM-12+002499999V0200701N00411021001CN0600001N9+00001-00501100311ADDAY121999GA1081+021009049GF108991081001022501021999MD1310151+9999MW1031
0127010300999991952010406004+69700+019017FM-12+002499999V0200901N00461220001CN0600001N9-00111-00611100451ADDAY121999GF101991999001999999041001IA1209KA1999N-00281MD1210141+9999MW1011EQDQ01+000002SCOTLCQ02+000042APCTENQ03+000142APC3  
0073010300999991952010409004+69700+019017FM-12+002499999V0200901N00461220001CN0600001N9-00221-00721100641ADDAY101999GA1011+015009059GF101991011051017501041001MD1310191+9999MW1021
0073010300999991952010412004+69700+019017FM-12+002499999V0203401N00151220001CN0600001N9-00281-00891100801ADDAY101999GA1011+013809059GF101991011051012501041001MD1310161+9999MW1021
0092010300999991952010415004+69700+019017FM-12+002499999V0200201N00101220001CN0600001N9-00281-01001101001ADDAY101999GA1011+024009039GF101991999001999999041001MD1110201+9999MW1021EQDQ01+000002SCOTLC
0076010300999991952010418004+69700+019017FM-12+002499999V0209991C00001220001CN0600001N9-00501-01001101201ADDAY101999GF100991001001999999001001IA1209KA1999M-00111MD1310201+9999MW1001
0057010300999991952010500004+69700+019017FM-12+002499999V0209991C00001220001CN0600001N9-00501-00781101601ADDAY101999GF100991001001999999001001MD1310181+9999MW1021
0057010300999991952010503004+69700+019017FM-12+002499999V0209991C00001220001CN0600001N9-00501-00891101771ADDAY101999GF100991001001999999001001MD1310171+9999MW1021
0076010300999991952010506004+69700+019017FM-12+002499999V0202701N00101220001CN0600001N9-00501-00891101871ADDAY101999GF100991001001999999001001IA1319KA1999N-00611MD1310101+9999MW1021
0057010300999991952010509004+69700+019017FM-12+002499999V0203201N00101220001CN0600001N9-00501-00891101991ADDAY101999GF100991001001999999001001MD1210121+9999MW1021
0057010300999991952010512004+69700+019017FM-12+002499999V0202301N00261220001CN0600001N9-00391-01001102001ADDAY101999GF100991001001999999001001MD1110011+9999MW1001
0057010300999991952010515004+69700+019017FM-12+002499999V0202301N00461220001CN0600001N9-00391-01001102051ADDAY101999GF100991001001999999001001MD1010051+9999MW1021
0076010300999991952010518004+69700+019017FM-12+002499999V0202301N00461220001CN0600001N9-00281-01001101821ADDAY101999GF100991001001999999001001IA1209KA1999M-00281MD1810231+9999MW1021
0111010300999991952010606004+69700+019017FM-12+002499999V0201801N01541012001CN0600001N9+00001-00781099501ADDAY121999GA1081+012009059GF108991081051012501999999IA1209KA1999N-00611MD1810852+9999MW1031EQDQ01+000852APC3  
0073010300999991952010609004+69700+019017FM-12+002499999V0202301N01031007801CN0100001N9-00111-00391099301ADDAY171999GA1061+007809079GF108991061071008001021999MD1710201+9999MW1711
0073010300999991952010612004+69700+019017FM-12+002499999V0202001N01541220001CN0600001N9-00111-00611099111ADDAY171999GA1041+009009059GF107991041081008001041001MD1710191+9999MW1021
0073010300999991952010615004+69700+019017FM-12+002499999V0202301N00931009001CN0200001N9+00111-00221099151ADDAY181999GA1071+009009089GF107991071081008001001001MD1210041+9999MW1851
0103010300999991952010618004+69700+019017FM-12+002499999V0202301N01231220001CN0600001N9+00111-00111099081ADDAA199000691AY181999GA1031+009009089GF106991031081008001041001IA1209KA1999M+00221MD1710071+9999MW1011
0073010300999991952010700004+69700+019017FM-12+002499999V0202301N00621004501CN0100001N9+00111+00001098881ADDAY181999GA1081+004509099GF108991081091004501999999MD1510101+9999MW1851
0073010300999991952010703004+69700+019017FM-12+002499999V0202301N00621006001CN0600001N9+00001-00221098781ADDAY181999GA1051+006009099GF105991051091004501001001MD1710101+9999MW1021
0103010300999991952010706004+69700+019017FM-12+002499999V0202101N00931006001CN0600001N9+00111-00111098591ADDAA199004091AY181999GA1071+006009089GF107991071081004501999999IA1209KA1999N+00001MD1710191+9999MW1021
0089010300999991952010709004+69700+019017FM-12+002499999V0202101N00461021001CN0160001N9+00111-00111098491ADDAY181999GA1031+006009079GA2081+021009049GF108991031071004501021999MD1610101+9999MW1711
0089010300999991952010712004+69700+019017FM-12+002499999V0202101N00461220001CN0150001N9+00001-00111098641ADDAY171999GA1041+021009079GA2041+005409079GF108991041071004501021999MD1110151+9999MW1701
0092010300999991952010715004+69700+019017FM-12+002499999V0202301N00261005401CN0200001N9+00001-00111098901ADDAY181999GA1061+005409099GF108991999091004501001001MD1210161+9999MW1261EQDQ01+000062SCOTLC
0087010300999991952010718004+69700+019017FM-12+002499999V0202101N00261004501CN0100001N9+00001-00111099131ADDAA199004091AY181999GF107991071091004501001001IA1319KA1999M+00221MD1210231+9999MW1851
0073010300999991952010800004+69700+019017FM-12+002499999V0202001N00821220001CN0600001N9+00111-00391098771ADDAY181999GA1031+009909089GF105991031091008001041001MD1990361+9999MW1011
0073010300999991952010803004+69700+019017FM-12+002499999V0202301N00671009001CN0400001N9+00001-00281098581ADDAY181999GA1081+009009099GF108991081091008001999999MD1610191+9999MW1851
0103010300999991952010806004+69700+019017FM-12+002499999V0202301N01441220001CN0200001N9+00001-00221098621ADDAA199003091AY181999GA1041+009009099GF105991041091008001041001IA1319KA1999N-00111MD1210041+9999MW1261
0073010300999991952010809004+69700+019017FM-12+002499999V0202301N00931220001CN0010001N9-00221-00281098851ADDAY181999GA1091+999999999GF109991091999999999999999MD1210231+9999MW1861
0073010300999991952010812004+69700+019017FM-12+002499999V0202301N00671003601CN0080001N9+00111-00281099161ADDAY181999GA1071+003609099GF107991071091004501001021MD1210311+9999MW1871
0073010300999991952010815004+69700+019017FM-12+002499999V0202301N00461006001CN0600001N9+00001-00281099281ADDAY181999GA1071+006009099GF107991071091004501999999MD1210121+9999MW1021
0119010300999991952010818004+69700+019017FM-12+002499999V0201901N00771024001CN0600001N9+00111-00391099051ADDAA199004091AY121999GA1011+006009089GA2081+024009049GF108991011081004501011999IA1319KA1999M+00221MD1990231+9999MW1031
0073010300999991952010900004+69700+019017FM-12+002499999V0202101N00261024001CN0600001N9+00281+00001098301ADDAY121999GA1081+024009049GF108991081001999999071999MD1710421+9999MW1021
0073010300999991952010903004+69700+019017FM-12+002499999V0202501N00461024001CN0600001N9+00501-00111097801ADDAY121999GA1081+024009049GF108991081001999999071999MD1810501+9999MW1021
0108010300999991952010906004+69700+019017FM-12+002499999V0202301N00671024001CN0600001N9+00391-00281097671ADDAY121999GA1081+024009049GA2011+012009059GF108991011051012501071999IA1209KA1999N+00111MD1610131+9999MW1021
0089010300999991952010909004+69700+019017FM-12+002499999V0202301N00461006001CN0030001N9+00111+00001097581ADDAY171999GA1081+006009049GA2011+004809059GF108991011051004501021999MD1990091+9999MW1681
0089010300999991952010912004+69700+019017FM-12+002499999V0202301N00461006001CN0020001N9+00001-00111097361ADDAY171999GA1081+006009049GA2021+004509079GF108991021071004501021999MD1810221+9999MW1711
0089010300999991952010915004+69700+019017FM-12+002499999V0202301N00461012001CN0400001N9+00001-00221097081ADDAY171999GA1081+012009049GA2061+009009079GF108991061071008001011999MD1810271+9999MW1221
0119010300999991952010918004+69700+019017FM-12+002499999V0202301N00311012001CN0400001N9+00001-00221096821ADDAA199001091AY171999GA1081+012009049GA2061+009009059GF108991061051008001011999IA1319KA1999M+00391MD1810261+9999MW1221
0073010300999991952011000004+69700+019017FM-12+002499999V0202301N00461004501CN0100001N9+00001-00111096411ADDAY171999GA1071+004509079GF108991071071004501021999MD1810181+9999MW1711
0073010300999991952011003004+69700+019017FM-12+002499999V0202301N00461003001CN0020001N9+00111+00111096361ADDAY171999GA1071+003009079GF108991071071004501021999MD1610051+9999MW1731
0103010300999991952011006004+69700+019017FM-12+002499999V0202501N00461004501CN0030001N9+00111+00111096391ADDAA199007091AY171999GA1071+004509079GF108991071071004501021999IA1319KA1999N-00111MD1310031+9999MW1731
0108010300999991952011009004+69700+019017FM-12+002499999V0202101N00461003001CN0002001N9+00001+00001096441ADDAY171999GA1071+003009079GF108991071071004501021999MD1210051+9999MW1731EQDQ01+000042APCTENQ02+000052APC3  
0073010300999991952011012004+69700+019017FM-12+002499999V0202301N00361003001CN0002001N9+00001+00001096451ADDAY171999GA1071+003009079GF108991071071004501021999MD1110011+9999MW1751
0073010300999991952011015004+69700+019017FM-12+002499999V0202301N00261002401CN0002001N9+00001+00001096431ADDAY171999GA1071+002409079GF108991071071002501021999MD1610021+9999MW1751
0138010300999991952011018004+69700+019017FM-12+002499999V0202001N00261003001CN0004001N9+00001+00001096451ADDAA199025091AY171999GA1071+003009079GF108991071071004501021999IA1319KA1999M+00111MD1210021+9999MW1731EQDQ01+000042APCTENQ02+000022APC3  
0057010300999991952011100004+69700+019017FM-12+002499999V0209991C000019999999N0010001N9-00111-00221096621ADDAY181999GF109991091999999999999999MD1310091+9999MW1851
0057010300999991952011103004+69700+019017FM-12+002499999V0209991C000019999999N0006001N9-00111-00111096701ADDAY181999GF109991091999999999999999MD1310081+9999MW1861
0103010300999991952011106004+69700+019017FM-12+002499999V0200201N00461007501CN0200001N9+00001-00111096771ADDAA199010091AY181999GA1071+007509099GF107991071091008001999999IA1319KA1999N-00221MD1210071+9999MW1151
0073010300999991952011112004+69700+019017FM-12+002499999V0203201N00261220001CN0400001N9+00001-00501096951ADDAY181999GA1041+007809089GF106991041081012501061021MD1210011+9999MW1151
0073010300999991952011115004+69700+019017FM-12+002499999V0202501N00151007801CN0200001N9+00001-00111096991ADDAY181999GA1051+007809089GF107991051081008001061001MD1310041+9999MW1151
0103010300999991952011118004+69700+019017FM-12+002499999V0202301N00261006001CN0016001N9+00001-00111097091ADDAA199001091AY181999GA1081+006009099GF108991081091008001999999IA1319KA1999M+00111MD1310101+9999MW1851
0073010300999991952011200004+69700+019017FM-12+002499999V0202901N00101004801CN0600001N9-00111-00221097251ADDAY181999GA1071+004809099GF107991071091004501999999MD1310131+9999MW1021
0073010300999991952011203004+69700+019017FM-12+002499999V0202301N00101220001CN0600001N9-00111-00221097341ADDAY181999GA1041+004809099GF107991041091004501061001MD1310091+9999MW1151
0103010300999991952011206004+69700+019017FM-12+002499999V0202301N00261006001CN0600001N9-00111-00221097431ADDAA199001091AY121999GA1051+006009099GF107991051091004501061001IA1319KA1999N-00221MD1310091+9999MW1151
0073010300999991952011209004+69700+019017FM-12+002499999V0202401N00461007501CN0400001N9-00111-00221097581ADDAY121999GA1071+007509089GF107991071091008001001001MD1310151+9999MW1021
0073010300999991952011212004+69700+019017FM-12+002499999V0202301N00261008401CN0120001N9-00111-00221097761ADDAY181999GA1051+008409099GF107991051091008001061021MD1310181+9999MW1851
0073010300999991952011215004+69700+019017FM-12+002499999V0202701N00101005401CN0400001N9-00221-00281097981ADDAY121999GA1071+005409089GF107991071091004501999999MD1310221+9999MW1021
0087010300999991952011218004+69700+019017FM-12+002499999V0209991C00001007801CN0600001N9-00281-00391098261ADDAA199004091AY121999GF106991061051008001999999IA1319KA1999M-00111MD1310281+9999MW1021
0103010300999991952011306004+69700+019017FM-12+002499999V0202901N00261009001CN0120001N9-00221-00391099211ADDAA199000691AY181999GA1081+009009089GF108991081031008001999999IA1319KA1999N-00391MD1210151+9999MW1851
0073010300999991952011309004+69700+019017FM-12+002499999V0209991C00001005401CN0100001N9-00221-00281099491ADDAY181999GA1071+005409089GF107991071081004501001001MD1210281+9999MW1851
0089010300999991952011312004+69700+019017FM-12+002499999V0209991C00001220001CN0200001N9-00281-00281099691ADDAY181999GA1021+009009059GA2011+000159079GF102991021041008001001001MD1110201+9999MW1011
0073010300999991952011315004+69700+019017FM-12+002499999V0209991C00001220001CN0200001N9-00391-00391099811ADDAY111999GA1011+004509079GF101991011061004501041001MD1210121+9999MW1011
0103010300999991952011318004+69700+019017FM-12+002499999V0209991C00001220001CN0200001N9-00501-00611099871ADDAA199001091AY101999GA1021+005109079GF103991021061004501041001IA1319KA1999M-00221MD1310061+9999MW1031
0073010300999991952011400004+69700+019017FM-12+002499999V0202501N00101006901CN0600001N9-00501-00611099821ADDAY121999GA1071+006909089GF107991071081008001001001MD1990091+9999MW1021
0073010300999991952011403004+69700+019017FM-12+002499999V0209991C00001220001CN0600001N9-00721-00781099681ADDAY121999GA1021+006009089GF102991021081008001001021MD1710141+9999MW1011
0076010300999991952011406004+69700+019017FM-12+002499999V0209991C00001220001CN0600001N9-00781-00891099561ADDAY111999GF102991001001999999001021IA1319KA1999N-00781MD1810121+9999MW1021
0057010300999991952011409004+69700+019017FM-12+002499999V0209991C00001220001CN0600001N9-00781-00891099501ADDAY101999GF102991001001999999001051MD1810061+9999MW1031
0057010300999991952011412004+69700+019017FM-12+002499999V0209991C00001220001CN0600001N9-00781-00891099351ADDAY101999GF103991001001999999001011MD1990151+9999MW1021
0057010300999991952011415004+69700+019017FM-12+002499999V0202501N00101220001CN0600001N9-00721-00891099231ADDAY101999GF103991001001999999001081MD1810121+9999MW1021
0076010300999991952011418004+69700+019017FM-12+002499999V0209991C00001220001CN0600001N9-00781-01111099111ADDAY101999GF101991001001999999001011IA1319KA1999M-00721MD1810121+9999MW1021
0057010300999991952011500004+69700+019017FM-12+002499999V0209991C00001220001CN0600001N9-00781-01111098891ADDAY101999GF102991001001999999001051MD1810101+9999MW1021
0057010300999991952011503004+69700+019017FM-12+002499999V0209991C00001220001CN0600001N9-00781-01111098781ADDAY101999GF101991001001999999001051MD1810111+9999MW1011
0076010300999991952011506004+69700+019017FM-12+002499999V0209991C00001220001CN0600001N9-00781-01111098651ADDAY101999GF101991001001999999001051IA1319KA1999N-00891MD1710131+9999MW1011
0092010300999991952011509004+69700+019017FM-12+002499999V0209991C00001220001CN0600001N9-00781-01001098491ADDAY121999GA1011+024009049GF107991999001999999071061MD1810161+9999MW1031EQDQ01+000002SCOTLC
0092010300999991952011512004+69700+019017FM-12+002499999V0209991C00001220001CN0600001N9-00891-01111098271ADDAY121999GA1031+015009059GF106991031051017501999051MD1810221+9999MW1031EQDQ01    003SCOMCG
0073010300999991952011515004+69700+019017FM-12+002499999V0209991C00001009001CN0600001N9-00611-00891098071ADDAY121999GA1071+009009059GF108991071051008001001051MD1810201+9999MW1021
0092010300999991952011518004+69700+019017FM-12+002499999V0209991C00001220001CN0600001N9-00611-00891097841ADDAY121999GA1031+012009059GF103991031051012501001001IA1319KA1999M-00501MD1810231+9999MW1011
0078010300999991952011600004+69700+019017FM-12+002499999V0202501N00151220001CN0600001N9-00781-01001097771ADDAY101999GF100991001001999999001001MW1011EQDQ01+000032APCTENQ02+000002APC3  
0057010300999991952011603004+69700+019017FM-12+002499999V0209991C00001220001CN0600001N9-00781-01001097791ADDAY101999GF101991001001999999001021MD1310021+9999MW1021
0076010300999991952011606004+69700+019017FM-12+002499999V0202501N00101220001CN0600001N9-00891-01001097831ADDAY101999GF101991001001999999001011IA1319KA1999N-00891MD1310041+9999MW1021
0057010300999991952011609004+69700+019017FM-12+002499999V0202501N00101220001CN0600001N9-00781-00891097931ADDAY101999GF101991001001999999001011MD1310101+9999MW1021
0057010300999991952011612004+69700+019017FM-12+002499999V0202501N00101220001CN0600001N9-00781-00891098051ADDAY101999GF101991001001999999001021MD1310121+9999MW1021
0057010300999991952011615004+69700+019017FM-12+002499999V0209991C00001220001CN0600001N9-00781-00891098151ADDAY101999GF101991001001999999001011MD1310101+9999MW1021
0076010300999991952011618004+69700+019017FM-12+002499999V0209991C00001220001CN0600001N9-00781-00891098261ADDAY101999GF101991001001999999001011IA1319KA1999M-00781MD1310111+9999MW1021
0057010300999991952011700004+69700+019017FM-12+002499999V0209991C00001220001CN0140001N9-00781-00891098651ADDAY101999GF100991001001999999001001MD1310201+9999MW1051
0057010300999991952011703004+69700+019017FM-12+002499999V0209991C00001220001CN0140001N9-00781-00891098801ADDAY101999GF100991001001999999001001MD1110151+9999MW1051
0076010300999991952011706004+69700+019017FM-12+002499999V0209991C00001220001CN0200001N9-00781-00891098991ADDAY101999GF100991001001999999001001IA1319KA1999N-00891MD1310191+9999MW1051
0057010300999991952011709004+69700+019017FM-12+002499999V0202501N00151220001CN0400001N9-00781-00891099221ADDAY101999GF102991001001999999001021MD1310231+9999MW1051
0057010300999991952011712004+69700+019017FM-12+002499999V0209991C00001220001CN0400001N9-00721-00781099381ADDAY101999GF107991001001999999001071MD1310161+9999MW1031
0073010300999991952011715004+69700+019017FM-12+002499999V0209991C00001048001CN0600001N9-00721-00891099601ADDAY121999GA1081+048009029GF108991001001999999001071MD1310221+9999MW1021
0092010300999991952011718004+69700+019017FM-12+002499999V0209991C00001048001CN0600001N9-00721-00891099731ADDAY121999GA1071+048009029GF107991001001999999001071IA1319KA1999M-00611MD1310131+9999MW1011
0057010300999991952011800004+69700+019017FM-12+002499999V0202701N00101220001CN0600001N9-00781-01001100071ADDAY101999GF100991001001999999001001MD1310181+9999MW1001
0057010300999991952011803004+69700+019017FM-12+002499999V0202501N00101220001CN0600001N9-00891-01111100281ADDAY101999GF100991001001999999001001MD1310211+9999MW1001
0076010300999991952011806004+69700+019017FM-12+002499999V0202601N00261220001CN0600001N9-00781-01001100431ADDAY101999GF100991001001999999001001IA1319KA1999N-01001MD1310151+9999MW1001
0076010300999991952011809004+69700+019017FM-12+002499999V0202301N00101220001CN0600001N9-00891-01111100721ADDAY101999GF101991999001999999041001MD1310291+9999MW1021EQDQ01+000002SCOTLC
0057010300999991952011812004+69700+019017FM-12+002499999V0202501N00101220001CN0600001N9-00891-01221100901ADDAY101999GF103991001001999999041051MD1310181+9999MW1031
0076010300999991952011815004+69700+019017FM-12+002499999V0202401N00261220001CN0400001N9-00891-01221101061ADDAY101999GF101991999001999999041001MD1310161+9999MW1021EQDQ01+000002SCOTLC
0076010300999991952011818004+69700+019017FM-12+002499999V0202301N00261220001CN0600001N9-00891-01221101261ADDAY101999GF100991001001999999001001IA1319KA1999M-00781MD1310201+9999MW1001
0076010300999991952011900004+69700+019017FM-12+002499999V0202301N00261220001CN0600001N9-00891-01221101611ADDAY101999GF101991999001999999041001MD1310211+9999MW1021EQDQ01+000002SCOTLC
0073010300999991952011903004+69700+019017FM-12+002499999V0202501N00261220001CN0600001N9-00891-01111101811ADDAY101999GA1011+015009059GF102991011051017501071001MD1310201+9999MW1031
0108010300999991952011906004+69700+019017FM-12+002499999V0202501N00211220001CN0600001N9-00721-00891102011ADDAY121999GA1021+024009039GA2041+015009059GF106991041051017501071001IA1319KA1999N-01001MD1310201+9999MW1011
0073010300999991952011909004+69700+019017FM-12+002499999V0202501N00261220001CN0600001N9-00781-01001102271ADDAY101999GA1011+002409079GF102991011051008001041051MD1310261+9999MW1031
0089010300999991952011912004+69700+019017FM-12+002499999V0202401N00261024001CN0600001N9-00781-00891102501ADDAY111999GA1011+003609079GA2061+024009039GF106991011061004501041001MD1210231+9999MW1021
0073010300999991952011915004+69700+019017FM-12+002499999V0202401N00461220001CN0600001N9-00611-00721102581ADDAY181999GA1041+006009059GF106991061081008001041001MD1210081+9999MW1021
0103010300999991952011918004+69700+019017FM-12+002499999V0202301N00461220001CN0600001N9-00501-00611102661ADDAA199000691AY121999GA1011+006609059GF101991011051008001001001IA1319KA1999M-00501MD1310081+9999MW1011
0103010300999991952012006004+69700+019017FM-12+002499999V0203601N00261009001CN0160001N9-00221-00501102821ADDAA199002091AY171999GA1081+009009059GF108991081051008001999999IA1319KA1999N-00611MD1210021+9999MW1701
0108010300999991952012009004+69700+019017FM-12+002499999V0203401N00261008101CN0120001N9-00221-00391102901ADDAY171999GA1071+008109089GF108991071071008001021999MD1210081+9999MW1851EQDQ01+000042APCTENQ02+000082APC3  
0073010300999991952012012004+69700+019017FM-12+002499999V0200201N00151012001CN0600001N9-00111-00611102981ADDAY181999GA1061+012009089GF107991061081012501071001MD1310081+9999MW1011
0073010300999991952012015004+69700+019017FM-12+002499999V0203201N00101009001CN0600001N9-00221-00611103101ADDAY181999GA1051+009009089GF107991051081008001071001MD1310121+9999MW1021
0103010300999991952012018004+69700+019017FM-12+002499999V0202501N00101220001CN0600001N9-00111-00611103131ADDAA199002091AY121999GA1041+012009089GF106991041081012501041001IA1319KA1999M-00111MD1310031+9999MW1011
0073010300999991952012100004+69700+019017FM-12+002499999V0202101N00671007801CN0070001N9-00111-00221102971ADDAY181999GA1081+007809089GF108991081081008001999999MD1990131+9999MW1851
0073010300999991952012103004+69700+019017FM-12+002499999V0202101N00931007801CN0020001N9+00001-00221102641ADDAY181999GA1081+007809079GF108991081071008001999999MD1710331+9999MW1711
0103010300999991952012106004+69700+019017FM-12+002499999V0202101N00931009001CN0200001N9+00111-00221102461ADDAA199001091AY181999GA1081+009009089GF108991081081008001999999IA1319KA1999N-00221MD1710181+9999MW1261
0073010300999991952012109004+69700+019017FM-12+002499999V0202301N00931009001CN0400001N9+00221-00281102121ADDAY121999GA1081+009009089GF108991081081008001999999MD1710341+9999MW1021
0089010300999991952012112004+69700+019017FM-12+002499999V0202101N00931012001CN0200001N9+00281-00221101941ADDAY171999GA1081+012009059GA2011+007509079GF108991081051012501999999MD1710181+9999MW1151
0073010300999991952012115004+69700+019017FM-12+002499999V0202301N01231006001CN0200001N9+00281-00111101681ADDAY161999GA1071+006009089GF108991071071008001021999MD1810261+9999MW1611
0103010300999991952012118004+69700+019017FM-12+002499999V0202301N01541006001CN0160001N9+00221+00111101531ADDAA199001091AY161999GA1071+006009089GF108991071071008001021999IA1209KA1999M+00281MD1710151+9999MW1611
0073010300999991952012200004+69700+019017FM-12+002499999V0202301N00621007801CN0160001N9+00281+00221101411ADDAY161999GA1071+007809079GF108991071071008001021999MD1710031+9999MW1611
0073010300999991952012203004+69700+019017FM-12+002499999V0202301N00671006601CN0100001N9+00281+00221101391ADDAY161999GA1071+006609079GF108991071071008001021999MD1710021+9999MW1631
0103010300999991952012206004+69700+019017FM-12+002499999V0202301N00671006601CN0120001N9+00281+00221101241ADDAA199016091AY161999GA1071+006609079GF108991071071008001021999IA1209KA1999N+00221MD1710151+9999MW1611
0073010300999991952012209004+69700+019017FM-12+002499999V0202301N00671006001CN0100001N9+00281+00221101191ADDAY161999GA1061+006009079GF108991061071008001021999MD1610051+9999MW1611
0073010300999991952012212004+69700+019017FM-12+002499999V0202301N00931006001CN0070001N9+00281+00221101201ADDAY161999GA1071+006009079GF108991071071008001021999MD1210011+9999MW1631
0073010300999991952012215004+69700+019017FM-12+002499999V0202301N00931006001CN0100001N9+00281+00221101121ADDAY161999GA1071+006009079GF108991071071008001021999MD1710081+9999MW1611
0103010300999991952012218004+69700+019017FM-12+002499999V0202301N00671006001CN0090001N9+00281+00221101011ADDAA199023091AY161999GA1071+006009079GF108991071071008001021999IA1209KA1999M+00281MD1710111+9999MW1611
0057010300999991952012300004+69700+019017FM-12+002499999V0202101N00461004501CN0140001N9+00221+00111100761ADDAY161999GF108991081061004501999999MD1710151+9999MW1631
0057010300999991952012303004+69700+019017FM-12+002499999V0203001N00101004501CN0140001N9+00221+00111100741ADDAY161999GF108991081061004501999999MD1510021+9999MW1631
0103010300999991952012306004+69700+019017FM-12+002499999V0200301N00461220001CN0020001N9+00001-00111100661ADDAA199027091AY171999GA1091+999999999GF109991091999999999999999IA1209KA1999N+00001MD1710081+9999MW1691
0089010300999991952012309004+69700+019017FM-12+002499999V0200501N00261220001CN0200001N9+00001-00111100651ADDAY181999GA1041+008109059GA2021+007509089GF107991051081008001071021MD1710011+9999MW1261
0089010300999991952012312004+69700+019017FM-12+002499999V0200501N00261009001CN0600001N9-00111-00221100581ADDAY181999GA1051+009009059GA2021+007809089GF107991061081008001061001MD1810071+9999MW1021
0073010300999991952012315004+69700+019017FM-12+002499999V0200501N00931006001CN0020001N9-00221-00281100341ADDAY181999GA1081+006009099GF108991081091008001999999MD1710241+9999MW1851
0103010300999991952012318004+69700+019017FM-12+002499999V0200501N01231006001CN0100001N9-00221-00281100081ADDAA199000391AY181999GA1081+006009099GF108991081091008001999999IA1319KA1999M+00001MD1710261+9999MW1361
0073010300999991952012400004+69700+019017FM-12+002499999V0200301N00461006001CN0160001N9-00611-00781099951ADDAY181999GA1081+006009099GF108991081091008001999999MD1010001+9999MW1851
0073010300999991952012403004+69700+019017FM-12+002499999V0202301N00461220001CN0600001N9-00611-00891099691ADDAY181999GA1021+006009089GF102991021081008001001001MD1810261+9999MW1011
0103010300999991952012406004+69700+019017FM-12+002499999V0202201N00931006001CN0030001N9-00611-00721099201ADDAA199002091AY181999GA1081+006009079GF108991071071004501021999IA1319KA1999N-00781MD1810491+9999MW1731
0092010300999991952012409004+69700+019017FM-12+002499999V0202101N00931004501CN0020001N9-00501-00611098801ADDAY181999GA1081+004509049GF108991999071004501021999MD1710401+9999MW1731EQDQ01+000082SCOTLC
0073010300999991952012412004+69700+019017FM-12+002499999V0202101N01231220001CN0002001N9-00391-00501098551ADDAY171999GA1091+999999999GF109991091999999999999999MD1610251+9999MW1751
0108010300999991952012415004+69700+019017FM-12+002499999V0202701N00461002401CN0050001N9-00391-00501098571ADDAY181999GA1081+002409099GF108991081091002501999999MD1210021+9999MW1851EQDQ01+000042APCTENQ02+000022APC3  
0087010300999991952012418004+69700+019017FM-12+002499999V0202301N00671004501CN0160001N9-00501-00611098631ADDAA199011091AY181999GF108991081091004501999999IA1319KA1999M-00391MD1310061+9999MW1261
0073010300999991952012500004+69700+019017FM-12+002499999V0202001N01541220001CN0000001N9-00611-00721098721ADDAY181999GA1091+999999999GF109991091999000251999999MD1210181+9999MW1861
0057010300999991952012503004+69700+019017FM-12+002499999V0202001N00931220001CN0200001N9-00501-01001098861ADDAY181999GF103991031091008001001001MD1210141+9999MW1261
0103010300999991952012506004+69700+019017FM-12+002499999V0202101N00931220001CN0600001N9-00501-01111098941ADDAA199002091AY181999GA1031+009009099GF103991031091008001001001IA1319KA1999N-00721MD1110081+9999MW1021
0073010300999991952012509004+69700+019017FM-12+002499999V0202301N00461220001CN0600001N9-00501-01281099051ADDAY121999GA1011+009009059GF106991011051008001071071MD1310111+9999MW1021
0073010300999991952012512004+69700+019017FM-12+002499999V0202501N00461220001CN0700001N9-00721-01281099141ADDAY101999GA1011+009009089GF101991011041008001001001MD1110091+9999MW1021
0057010300999991952012515004+69700+019017FM-12+002499999V0202501N00461220001CN0700001N9-00781-01221099111ADDAY101999GF101991001001999999041021MD1810031+9999MW1021
0095010300999991952012518004+69700+019017FM-12+002499999V0202301N00101220001CN0700001N9-01001-01391099171ADDAY101999GF101991999001999999041001IA1319KA1999M-00501MD1310061+9999MW1021EQDQ01+000002SCOTLC
0057010300999991952012600004+69700+019017FM-12+002499999V0202501N00311220001CN0600001N9-00781-01111099211ADDAY101999GF100991001001999999001001MD1210021+9999MW1021
0057010300999991952012603004+69700+019017FM-12+002499999V0202501N00461220001CN0600001N9-00781-01111099241ADDAY101999GF100991001001999999001001MD1210031+9999MW1021
0111010300999991952012606004+69700+019017FM-12+002499999V0202301N00461220001CN0600001N9-00781-01001099271ADDAY101999GA1011+024009039GF101991999001999999041001IA1319KA1999N-01001MD1210031+9999MW1031EQDQ01+000002SCOTLC
0124010300999991952012609004+69700+019017FM-12+002499999V0202501N00461220001CN0600001N9-00781-01001099391ADDAY111999GA1011+024009039GA2011+006909059GF102991011051008001041021MD1210121+9999MW1031EQDQ01+000042APCTENQ02+000122APC3  
0073010300999991952012612004+69700+019017FM-12+002499999V0202301N00461220001CN0600001N9-00721-00891099411ADDAY101999GA1021+024009039GF106991011051008001041011MD1310021+9999MW1031
0089010300999991952012615004+69700+019017FM-12+002499999V0202701N00261220001CN0600001N9-00781-00891099451ADDAY121999GA1021+024009039GA2011+006909059GF106991011051008001041011MD1210041+9999MW1021
0111010300999991952012618004+69700+019017FM-12+002499999V0209991C00001220001CN0600001N9-00781-00891099541ADDAY101999GA1021+024009039GF104991999001999999041011IA1319KA1999M-00721MD1110091+9999MW1011EQDQ01+000002SCOTLC
0076010300999991952012706004+69700+019017FM-12+002499999V0202301N00311220001CN0700001N9-00721-01111099811ADDAY101999GF101991011041012501001001IA1319KA1999N-00781MD1310071+9999MW1021
0057010300999991952012709004+69700+019017FM-12+002499999V0202701N00261220001CN0700001N9-00781-01221099851ADDAY101999GF101991001001999999041011MD1310041+9999MW1021
0076010300999991952012712004+69700+019017FM-12+002499999V0202501N00101220001CN0700001N9-00891-01221099851ADDAY101999GF101991001001999999001011MD1410001+9999MW1021EQDQ01+000032APCTEN
0076010300999991952012715004+69700+019017FM-12+002499999V0202301N00261220001CN0700001N9-00781-01221099861ADDAY101999GF101991999001999999041001MD1310011+9999MW1021EQDQ01+000002SCOTLC
0095010300999991952012718004+69700+019017FM-12+002499999V0202401N00671220001CN0700001N9-00501-01221099881ADDAY101999GF101991999001999999041001IA1319KA1999M-00501MD1310021+9999MW1031EQDQ01+000002SCOTLC
0057010300999991952012800004+69700+019017FM-12+002499999V0202501N00671220001CN0700001N9-00281-01001100031ADDAY101999GF100991001001999999001001MD1110101+9999MW1021
0092010300999991952012803004+69700+019017FM-12+002499999V0202501N00671220001CN0700001N9-00391-00891100111ADDAY101999GF100991001001999999001001MD1210081+9999MW1021EQDQ01+000042APCTENQ02+000082APC3  
0076010300999991952012806004+69700+019017FM-12+002499999V0202301N00261220001CN0700001N9-00611-00891100201ADDAY101999GF100991001001999999001001IA1319KA1999N-00611MD1110091+9999MW1021
0057010300999991952012809004+69700+019017FM-12+002499999V0202501N00261220001CN0700001N9-00721-01001100221ADDAY101999GF101991001001999999001051MD1110021+9999MW1021
0057010300999991952012812004+69700+019017FM-12+002499999V0202501N00151220001CN0700001N9-00781-01111100241ADDAY101999GF101991001001999999001051MD1310021+9999MW1021
0092010300999991952012815004+69700+019017FM-12+002499999V0202301N00101220001CN0700001N9-00781-01111100251ADDAY101999GF101991001001999999001051MD1210011+9999MW1021EQDQ01+000042APCTENQ02+000012APC3  
0095010300999991952012818004+69700+019017FM-12+002499999V0202501N00211220001CN0700001N9-00721-01111100251ADDAY101999GF101991001001999999001051IA1319KA1999M-00501MD1410001+9999MW1021EQDQ01+000032APCTEN
0057010300999991952012900004+69700+019017FM-12+002499999V0202301N00261220001CN0600001N9-00611-01111100301ADDAY101999GF100991001001999999001001MD1010011+9999MW1021
0057010300999991952012903004+69700+019017FM-12+002499999V0202401N00461220001CN0600001N9-00611-01111100331ADDAY101999GF100991001001999999001001MD1210031+9999MW1021
0095010300999991952012906004+69700+019017FM-12+002499999V0202501N00261220001CN0600001N9-00611-01111100331ADDAY101999GF103991001001999999001061IA1319KA1999N-00721MD1410001+9999MW1031EQDQ01+000032APCTEN
0073010300999991952012909004+69700+019017FM-12+002499999V0202501N00261048001CN0600001N9-00611-01001100361ADDAY121999GA1071+048009029GF107991001001999999001071MD1310031+9999MW1021
0073010300999991952012912004+69700+019017FM-12+002499999V0202501N00261048001CN0600001N9-00721-01111100391ADDAY121999GA1071+048009029GF107991001001999999001071MD1110031+9999MW1021
0108010300999991952012915004+69700+019017FM-12+002499999V0202301N00261048001CN0600001N9-00721-01001100461ADDAY121999GA1071+048009029GA2031+024009049GF107991999001999999071071MD1310071+9999MW1031EQDQ01+000002SCOTLC
0076010300999991952012918004+69700+019017FM-12+002499999V0202501N00261220001CN0600001N9-00721-00781100531ADDAY121999GF103991001001999999001021IA1319KA1999M-00611MD1310071+9999MW1011
0057010300999991952013000004+69700+019017FM-12+002499999V0202501N00101220001CN0600001N9-00721-00891100551ADDAY101999GF100991001001999999001001MD1310011+9999MW1021
0073010300999991952013003004+69700+019017FM-12+002499999V0202501N00101220001CN0600001N9-00611-00781100491ADDAY101999GA1031+012009059GF106991031051012501041001MD1810061+9999MW1031
0092010300999991952013006004+69700+019017FM-12+002499999V0202301N00101220001CN0600001N9-00611-00781100401ADDAY121999GA1031+012009059GF106991031051012501041011IA1319KA1999N-00781MD1810091+9999MW1021
0092010300999991952013009004+69700+019017FM-12+002499999V0202401N00101027001CN0600001N9-00611-00781100391ADDAY121999GA1061+027009039GF107991999001999999041011MD1010001+9999MW1021EQDQ01+000002SCOTLC
0089010300999991952013012004+69700+019017FM-12+002499999V0202301N00151220001CN0400001N9-00611-00781100321ADDAY121999GA1031+024009039GA2011+012009059GF107991011051012501041021MD1210071+9999MW1101
0073010300999991952013015004+69700+019017FM-12+002499999V0202401N00261007501CN0200001N9-00391-00611100161ADDAY121999GA1071+007509079GF108991071061008001999999MD1990161+9999MW1101
0076010300999991952013018004+69700+019017FM-12+002499999V0202301N00261007801CN0200001N9-00221-00391099981ADDAY121999GF108991081061008001999999IA1319KA1999M-00221MD1990181+9999MW1101
0073010300999991952013100004+69700+019017FM-12+002499999V0202501N00261007501CN0600001N9-00221-00281099751ADDAY181999GA1071+007509089GF107991071081008001999999MD1810101+9999MW1021
0073010300999991952013103004+69700+019017FM-12+002499999V0202201N00261006001CN0600001N9-00221-00281099641ADDAY181999GA1081+006009099GF108991081091008001999999MD1710111+9999MW1261
0103010300999991952013106004+69700+019017FM-12+002499999V0202201N00461220001CN0008001N9-00221-00221099541ADDAA199006091AY181999GA1091+999999999GF109991091999999999999999IA1319KA1999N-00221MD1610101+9999MW1861
0073010300999991952013109004+69700+019017FM-12+002499999V0202301N00671006601CN0030001N9-00221-00281099451ADDAY181999GA1081+006609099GF108991081091008001999999MD1710091+9999MW1851
0073010300999991952013112004+69700+019017FM-12+002499999V0202101N00671003001CN0030001N9-00111-00221099431ADDAY181999GA1081+003009099GF108991081091002501999999MD1710021+9999MW1851
0092010300999991952013115004+69700+019017FM-12+002499999V0202301N00621008101CN0160001N9+00001-00281099431ADDAY181999GA1061+008109089GF107991061081008001061021MD1410001+9999MW1151EQDQ01+000072APCTEN
0087010300999991952013118004+69700+019017FM-12+002499999V0202301N00621220001CN0600001N9-00221-00611099391ADDAA199004091AY111999GF102991011081012501041001IA1319KA1999M+00001MD1710041+9999MW1011
0057010300999991952020100004+69700+019017FM-12+002499999V0209991C00001220001CN0600001N9-00501-00721099321ADDAY101999GF100991001001999999001001MD1810021+9999MW1021
0057010300999991952020103004+69700+019017FM-12+002499999V0202501N00511220001CN0600001N9-00501-00891099251ADDAY101999GF100991001001999999001001MD1810071+9999MW1021
0076010300999991952020106004+69700+019017FM-12+002499999V0202501N00671220001CN0600001N9-00611-01221099271ADDAY101999GF100991001001999999001001IA1319KA1999N-00611MD1210021+9999MW1021
0057010300999991952020109004+69700+019017FM-12+002499999V0202401N00511220001CN0700001N9-00721-01221099341ADDAY101999GF101991001001999999001021MD1310071+9999MW1021
0092010300999991952020112004+69700+019017FM-12+002499999V0202501N00821220001CN0700001N9-00611-01281099391ADDAY101999GA1021+027009039GF103991999001999999041021MD1310051+9999MW1021EQDQ01+000002SCOTLC
0076010300999991952020115004+69700+019017FM-12+002499999V0202001N00101220001CN0700001N9-00611-01281099491ADDAY101999GF101991999001999999041001MD1310101+9999MW1021EQDQ01+000002SCOTLC
0095010300999991952020118004+69700+019017FM-12+002499999V0202301N00101220001CN0600001N9-00611-01281099541ADDAY101999GF101991999001999999041001IA1319KA1999M-00501MD1310051+9999MW1021EQDQ01+000002SCOTLC
0057010300999991952020200004+69700+019017FM-12+002499999V0209991C00001220001CN0700001N9-00781-01391099691ADDAY101999GF100991001001999999001001MD1310081+9999MW1001
0057010300999991952020203004+69700+019017FM-12+002499999V0202501N00101220001CN0700001N9-00721-01221099681ADDAY101999GF100991001001999999001001MD1990011+9999MW1001
0092010300999991952020206004+69700+019017FM-12+002499999V0203601N00211027001CN0700001N9-00611-01111099661ADDAY101999GA1061+027009039GF106991061001999999051001IA1319KA1999N-00781MD1810021+9999MW1031
0089010300999991952020209004+69700+019017FM-12+002499999V0209991C00001220001CN0700001N9-00501-01001099681ADDAY121999GA1041+027009039GA2011+018009059GF106991011051017501041021MD1210021+9999MW1021
0092010300999991952020212004+69700+019017FM-12+002499999V0202701N00261220001CN0700001N9-00221-01001099601ADDAY121999GA1041+027009039GF106991999001999999041021MD1990081+9999MW1021EQDQ01+000002SCOTLC
0089010300999991952020215004+69700+019017FM-12+002499999V0201201N00151220001CN0600001N9-00221-00891099481ADDAY121999GA1041+018009049GA2041+015009059GF108991041051017501071999MD1810121+9999MW1031
0092010300999991952020218004+69700+019017FM-12+002499999V0209991C00001015001CN0600001N9-00221-01001099291ADDAY121999GA1061+015009059GF107991061051017501071001IA1319KA1999M-00111MD1810191+9999MW1011
0113010300999991952020306004+69700+019017FM-12+002499999V0202301N00261220001CN0700001N9+00111-00501099131ADDAY121999GA1021+012009059GF106991021051012501071999IA1319KA1999N-00281MW1021EQDQ01+000032APCTENQ02+000002APC3  
0108010300999991952020309004+69700+019017FM-12+002499999V0202301N00461220001CN0700001N9+00111-00501099201ADDAY121999GA1011+012009059GF107991011051012501071999MD1210071+9999MW1021EQDQ01+000042APCTENQ02+000072APC3  
0057010300999991952020312004+69700+019017FM-12+002499999V0202301N00101220001CN0700001N9+00001-00501099281ADDAY121999GF106991001001999999071011MD1310081+9999MW1021
0057010300999991952020315004+69700+019017FM-12+002499999V0202301N00461220001CN0700001N9-00111-00721099301ADDAY121999GF105991001001999999041021MD1310021+9999MW1021
0076010300999991952020318004+69700+019017FM-12+002499999V0202001N00621220001CN0700001N9-00111-00611099361ADDAY121999GF101991001001999999041011IA1319KA1999M+00111MD1310061+9999MW1011
0076010300999991952020400004+69700+019017FM-12+002499999V0202101N00261220001CN0700001N9-00221-00721099601ADDAY101999GF101991999001999999041001MD1310121+9999MW1021EQDQ01+000002SCOTLC
0076010300999991952020403004+69700+019017FM-12+002499999V0202101N00261220001CN0700001N9-00221-00781099661ADDAY101999GF101991999001999999041001MD1310061+9999MW1021EQDQ01+000002SCOTLC
0127010300999991952020406004+69700+019017FM-12+002499999V0202401N00461220001CN0700001N9-00111-00721099751ADDAY101999GF101991999001999999041001IA1319KA1999N-00281MD1210091+9999MW1021EQDQ01+000002SCOTLCQ02+000042APCTENQ03+000062APC3  
0073010300999991952020409004+69700+019017FM-12+002499999V0202301N00821013501CN0700001N9+00111-00611099881ADDAY121999GA1051+013509059GF106991051081012501041021MD1310131+9999MW1021
0073010300999991952020412004+69700+019017FM-12+002499999V0202301N00671220001CN0700001N9+00001-00611100091ADDAY121999GA1031+013509059GF106991031051012501041021MD1210211+9999MW1021
0073010300999991952020415004+69700+019017FM-12+002499999V0202301N00621220001CN0700001N9+00001-00611100261ADDAY121999GA1021+015009089GF103991021081017501041021MD1210171+9999MW1011
0095010300999991952020418004+69700+019017FM-12+002499999V0202301N00671220001CN0700001N9+00001-00611100421ADDAY111999GF101991999001999999041001IA1319KA1999M+00111MD1210161+9999MW1011EQDQ01+000002SCOTLC
0057010300999991952020500004+69700+019017FM-12+002499999V0202301N00461220001CN0700001N9-00111-00611100771ADDAY101999GF101991011051012501001001MD1210181+9999MW1021
0057010300999991952020503004+69700+019017FM-12+002499999V0202301N00621007801CN0700001N9+00001-00391100861ADDAY111999GF105991051081008001001001MD1210091+9999MW1021
0103010300999991952020506004+69700+019017FM-12+002499999V0202201N00931006001CN0020001N9+00001-00111100901ADDAA199000391AY181999GA1081+006009099GF108991081091004501999999IA1319KA1999N-00111MD1110041+9999MW1861
0108010300999991952020509004+69700+019017FM-12+002499999V0203601N00511002701CN0140001N9+00221+00111101091ADDAY181999GA1071+002709099GF107991071091002501001001MD1210191+9999MW1261EQDQ01+000042APCTENQ02+000192APC3  
0073010300999991952020512004+69700+019017FM-12+002499999V0203201N00511003001CN0004001N9+00111+00001101491ADDAY181999GA1081+003009099GF108991081091004501999999MD1310401+9999MW1861
0073010300999991952020515004+69700+019017FM-12+002499999V0203201N00461005401CN0160001N9+00111-00221101701ADDAY181999GA1071+005409099GF107991071091004501999999MD1110211+9999MW1271
0087010300999991952020518004+69700+019017FM-12+002499999V0202701N00261007801CN0160001N9-00111-00281101791ADDAA199008091AY181999GF108991081091008001999999IA1319KA1999M+00221MD1110091+9999MW1261
0073010300999991952020600004+69700+019017FM-12+002499999V0202501N00261220001CN0004001N9-00221-00281101781ADDAY111999GA1091+999999999GF109991091999999999999999MD1710041+9999MW1861
0057010300999991952020603004+69700+019017FM-12+002499999V0202501N00461220001CN0600001N9-00281-00391101561ADDAY181999GF102991011081012501061001MD1990221+9999MW1011
0103010300999991952020606004+69700+019017FM-12+002499999V0202501N00151220001CN0600001N9-00391-00501101191ADDAA199002091AY101999GA1031+030009029GF103991011061012501001051IA1319KA1999N-00391MD1810371+9999MW1031
0073010300999991952020609004+69700+019017FM-12+002499999V0200501N00101030001CN0600001N9-00391-00501100691ADDAY121999GA1071+030009029GF107991001001999999001071MD1810501+9999MW1031
0092010300999991952020612004+69700+019017FM-12+002499999V0201601N00261024001CN0600001N9-00111-00781100091ADDAY121999GA1081+024009049GF108991999001999999021999MD1810501+9999MW1021EQDQ01+000002SCOTLC
0092010300999991952020615004+69700+019017FM-12+002499999V0201801N00461024001CN0600001N9-00111-00781099411ADDAY121999GA1081+024009049GF108991999001999999021999MD1810681+9999MW1021EQDQ01+000002SCOTLC
0092010300999991952020618004+69700+019017FM-12+002499999V0202301N00821021001CN0600001N9-00221-00721099021ADDAY121999GA1081+021009049GF108991081001022501021999IA1319KA1999M+00001MD1810391+9999MW1021
0089010300999991952020700004+69700+019017FM-12+002499999V0202001N00461012001CN0600001N9-00281-00611098641ADDAY171999GA1081+012009049GA2031+007809089GF108991031071008001021999MD1810191+9999MW1031
0089010300999991952020703004+69700+019017FM-12+002499999V0209991C00001012001CN0600001N9-00281-00721098421ADDAY121999GA1081+012009049GA2041+007809079GF108991041071008001021999MD1810221+9999MW1021
0103010300999991952020706004+69700+019017FM-12+002499999V0202301N00461009001CN0020001N9-00501-00611098171ADDAA199000591AY171999GA1081+009009049GF108991081001008001021999IA1319KA1999N-00501MD1810251+9999MW1731
0073010300999991952020709004+69700+019017FM-12+002499999V0202401N00101220001CN0010001N9-00501-00611098101ADDAY171999GA1081+999999049GF108991081001999999021999MD1610071+9999MW1731
0073010300999991952020712004+69700+019017FM-12+002499999V0200301N00101006001CN0030001N9-00501-00611097991ADDAY171999GA1081+006009049GF108991081001004501021999MD1810111+9999MW1711
0089010300999991952020715004+69700+019017FM-12+002499999V0200601N00461024001CN0160001N9-00391-00721097951ADDAY171999GA1041+007509079GA2081+024009049GF108991041071008001021999MD1610041+9999MW1221
0087010300999991952020718004+69700+019017FM-12+002499999V0200501N007719999999N0060001N9-00391-00501097941ADDAA199003091AY171999GF108991021071004501021999IA1319KA1999M-00391MD1810011+9999MW1711
0073010300999991952020800004+69700+019017FM-12+002499999V0200901N00261220001CN0600001N9-00391-00721097941ADDAY181999GA1031+007509089GF106991031021008001061001MD1810011+9999MW1011
0108010300999991952020803004+69700+019017FM-12+002499999V0200701N00261007501CN0120001N9-00501-00611098091ADDAY181999GA1061+007509099GF108991061091008001011999MD1210151+9999MW1851EQDQ01+000042APCTENQ02+000152APC3  
0103010300999991952020806004+69700+019017FM-12+002499999V0200701N00621007501CN0200001N9-00501-00611098321ADDAA199000691AY181999GA1061+007509099GF107991061091008001061001IA1319KA1999N-00501MD1310231+9999MW1261
0073010300999991952020809004+69700+019017FM-12+002499999V0200901N00261007501CN0400001N9-00391-00721098511ADDAY121999GA1061+007509089GF107991061081008001061001MD1310191+9999MW1011
0073010300999991952020812004+69700+019017FM-12+002499999V0203401N00101220001CN0600001N9-00611-00721098661ADDAY121999GA1021+007509089GF105991021081008001001011MD1210151+9999MW1011
0073010300999991952020815004+69700+019017FM-12+002499999V0202701N00151007501CN0010001N9-00391-00501098791ADDAY181999GA1081+007509089GF108991081081008001999999MD1310131+9999MW1861
0103010300999991952020818004+69700+019017FM-12+002499999V0202301N00411220001CN0002001N9-00391-00391098901ADDAA199014091AY171999GA1091+999999999GF109991091999999999999999IA1319KA1999M-00391MD1310111+9999MW1751
0073010300999991952020900004+69700+019017FM-12+002499999V0200201N01541007501CN0100001N9-00111-00281099081ADDAY181999GA1081+007509099GF108991081091008001999999MD1210161+9999MW1371
0073010300999991952020903004+69700+019017FM-12+002499999V0203601N01181007501CN0100001N9-00111-00221099311ADDAY131999GA1081+007509099GF108991081091008001999999MD1210231+9999MW1371
0103010300999991952020906004+69700+019017FM-12+002499999V0203601N01231006001CN0008001N9-00281-00391099461ADDAA199006091AY181999GA1081+006009099GF108991081091008001999999IA1319KA1999N-00391MD1210151+9999MW1861
0073010300999991952020909004+69700+019017FM-12+002499999V0203601N00931004501CN0004001N9-00221-00281099531ADDAY181999GA1081+004509099GF108991081091004501999999MD1210071+9999MW1861
0073010300999991952020912004+69700+019017FM-12+002499999V0203601N00671004501CN0400001N9-00221-00281099511ADDAY181999GA1071+004509099GF107991071091004501001001MD1710021+9999MW1261
0073010300999991952020915004+69700+019017FM-12+002499999V0203401N00261007501CN0600001N9-00221-00391099491ADDAY181999GA1071+007509089GF107991071081008001001001MD1810021+9999MW1151
0103010300999991952020918004+69700+019017FM-12+002499999V0202301N00261007501CN0600001N9-00221-00281099481ADDAA199001091AY181999GA1081+007509089GF108991081081008001999999IA1319KA1999M-00221MD1710011+9999MW1151
0103010300999991952021006004+69700+019017FM-12+002499999V0203401N00261220001CN0600001N9-00611-00891099561ADDAA199000591AY101999GA1031+012009089GF103991031081012501041001IA1319KA1999N-00611MD1210021+9999MW1031
0073010300999991952021009004+69700+019017FM-12+002499999V0203601N00261012001CN0600001N9-00391-00721099571ADDAY121999GA1071+012009059GF107991071081012501001001MD1210011+9999MW1031
0089010300999991952021012004+69700+019017FM-12+002499999V0200701N00211006001CN0200001N9-00221-00501099521ADDAY121999GA1021+012009059GA2051+006009089GF107991071081008001001001MD1710051+9999MW1851
0073010300999991952021015004+69700+019017FM-12+002499999V0200701N00311009001CN0600001N9-00221-00391099401ADDAY181999GA1061+009009089GF107991061081008001061001MD1810121+9999MW1021
0103010300999991952021018004+69700+019017FM-12+002499999V0200701N00311009001CN0600001N9-00221-00391099351ADDAA199000691AY121999GA1061+009009089GF106991061091008001001001IA1319KA1999M-00221MD1810051+9999MW1021
0073010300999991952021100004+69700+019017FM-12+002499999V0202501N00101006001CN0120001N9-00221-00281098991ADDAY181999GA1081+006009099GF108991081091004501999999MD1710201+9999MW1851
0073010300999991952021103004+69700+019017FM-12+002499999V0203601N00931006001CN0100001N9+00001-00111098891ADDAY181999GA1081+006009099GF108991081091004501999999MD1810101+9999MW1851
0122010300999991952021106004+69700+019017FM-12+002499999V0203601N00461006001CN0020001N9+00001-00111098891ADDAA199003091AY181999GA1081+006009099GF108991081091004501999999IA1319KA1999N-00281MD1410001+9999MW1861EQDQ01+000022APCTEN
0073010300999991952021109004+69700+019017FM-12+002499999V0203601N00461003601CN0160001N9+00001-00111099031ADDAY181999GA1071+003609099GF108991081091004501999999MD1210141+9999MW1851
0073010300999991952021112004+69700+019017FM-12+002499999V0200201N00261220001CN0600001N9+00001-00111099201ADDAY181999GA1041+009009089GF107991041081008001061021MD1210171+9999MW1011
0089010300999991952021115004+69700+019017FM-12+002499999V0209991C00001021001CN0400001N9-00111-00281099431ADDAY121999GA1011+010509089GA2061+021009039GF108991011071012501051071MD1310231+9999MW1141
0087010300999991952021118004+69700+019017FM-12+002499999V0200301N002619999999N0600001N9-00221-00391099661ADDAA199000591AY121999GF106991011021012501061001IA1319KA1999M+00111MD1310231+9999MW1021
0073010300999991952021200004+69700+019017FM-12+002499999V0202501N00261009001CN0400001N9-00281-00391099901ADDAY181999GA1081+009009099GF108991081091008001999999MD1110141+9999MW1261
0073010300999991952021203004+69700+019017FM-12+002499999V0202501N00211006901CN0060001N9-00221-00281100021ADDAY181999GA1081+006909099GF108991081091008001999999MD1310121+9999MW1851
0103010300999991952021206004+69700+019017FM-12+002499999V0203201N00101006901CN0200001N9-00221-00281100101ADDAA199001091AY181999GA1071+006909089GF107991071081008001001001IA1319KA1999N-00281MD1310081+9999MW1851
0089010300999991952021209004+69700+019017FM-12+002499999V0202501N00101220001CN0600001N9-00391-00501100211ADDAY181999GA1021+006909089GA2011+001509079GF104991021081008001041011MD1310111+9999MW1151
0073010300999991952021212004+69700+019017FM-12+002499999V0203001N00101220001CN0200001N9-00391-00501100311ADDAY111999GA1031+005409089GF104991031081004501001021MD1310101+9999MW1041
0073010300999991952021215004+69700+019017FM-12+002499999V0209991C00001220001CN0400001N9-00391-00501100331ADDAY111999GA1031+007509089GF106991031081008001041001MD1310021+9999MW1011
0103010300999991952021218004+69700+019017FM-12+002499999V0202501N00211220001CN0600001N9-00501-00611100291ADDAA199000391AY111999GA1031+007509089GF106991031081008001041999IA1319KA1999M-00221MD1990041+9999MW1031
0073010300999991952021300004+69700+019017FM-12+002499999V0202501N00261220001CN0600001N9-00501-00611100191ADDAY181999GA1031+009009089GF107991031081008001061001MD1710051+9999MW1151
0073010300999991952021303004+69700+019017FM-12+002499999V0202301N00101007801CN0160001N9-00391-00501100061ADDAY181999GA1081+007809089GF108991081081008001999999MD1990131+9999MW1851
0103010300999991952021306004+69700+019017FM-12+002499999V0202501N00211006001CN0200001N9-00501-00611099991ADDAA199000591AY181999GA1071+006009059GF108991081081008001999999IA1319KA1999N-00501MD1710051+9999MW1021
0073010300999991952021309004+69700+019017FM-12+002499999V0202701N00211004801CN0200001N9-00391-00501099901ADDAY121999GA1081+004809089GF108991081081004501999999MD1810091+9999MW1021
0073010300999991952021312004+69700+019017FM-12+002499999V0202301N00101004801CN0200001N9-00391-00501099801ADDAY121999GA1061+004809089GF107991061081004501011011MD1810101+9999MW1021
0073010300999991952021315004+69700+019017FM-12+002499999V0202301N00411004801CN0030001N9-00501-00611099741ADDAY171999GA1051+004809079GF108991051071004501021999MD1810061+9999MW1711
0103010300999991952021318004+69700+019017FM-12+002499999V0202301N00461220001CN0600001N9-00501-00611099661ADDAA199000391AY171999GA1031+006009089GF103991031081004501001001IA1319KA1999M-00391MD1610081+9999MW1011
0094010300999991952021400004+69700+019017FM-12+002499999V0202501N00461220001CN0600001N9-00611-00891099671ADDAY121999GA1021+012009059GF104991021081012501041001MW1021EQDQ01+000082APCTENQ02+000002APC3  
0073010300999991952021403004+69700+019017FM-12+002499999V0202501N00621012001CN0600001N9-00501-00781099691ADDAY121999GA1051+012009089GF107991051081012501041001MD1310021+9999MW1031
0092010300999991952021406004+69700+019017FM-12+002499999V0202301N00671012001CN0600001N9-00501-00781099701ADDAY121999GA1051+012009089GF107991051081012501041001IA1319KA1999N-00721MD1210011+9999MW1021
0073010300999991952021409004+69700+019017FM-12+002499999V0202301N00771220001CN0600001N9-00501-00891099671ADDAY121999GA1031+007809089GF107991031081008001041021MD1510031+9999MW1151
0073010300999991952021412004+69700+019017FM-12+002499999V0202301N00931220001CN0400001N9-00501-00781099721ADDAY181999GA1031+006909089GF107991031081008001041021MD1110051+9999MW1261
0073010300999991952021415004+69700+019017FM-12+002499999V0202301N00821006901CN0080001N9-00391-00721099741ADDAY121999GA1081+006909089GF108991081081008001999999MD1310021+9999MW1851
0103010300999991952021418004+69700+019017FM-12+002499999V0202301N00931006901CN0050001N9-00391-00611099811ADDAA199000691AY181999GA1081+006909089GF108991081081008001999999IA1319KA1999M-00281MD1110071+9999MW1851
0057010300999991952021500004+69700+019017FM-12+002499999V0202101N004619999999N0600001N9-00221-00611099921ADDAY121999GF106991031041012501061001MD1110031+9999MW1021
0057010300999991952021503004+69700+019017FM-12+002499999V0202201N005119999999N0600001N9-00221-00721099891ADDAY181999GF107991021081012501041071MD1990031+9999MW1021
0138010300999991952021506004+69700+019017FM-12+002499999V0202101N00671024001CN0600001N9-00111-00611099891ADDAA199000391AY121999GA1021+012009059GA2051+024009039GF107991021081012501041001IA1319KA1999N-00391MD1410001+9999MW1021EQDQ01+000032APCTEN
0089010300999991952021509004+69700+019017FM-12+002499999V0202301N00671024001CN0600001N9-00221-00781099861ADDAY121999GA1051+024009049GA2021+013509059GF107991021051012501071021MD1710031+9999MW1021
0073010300999991952021512004+69700+019017FM-12+002499999V0202301N01031024001CN0600001N9-00111-00781099811ADDAY121999GA1071+024009049GF108991071001999999071021MD1610051+9999MW1021
0089010300999991952021515004+69700+019017FM-12+002499999V0202301N00771024001CN0600001N9-00221-01111099661ADDAY121999GA1051+024009049GA2011+018009059GF107991011051017501071021MD1810151+9999MW1021
0076010300999991952021518004+69700+019017FM-12+002499999V0202301N00671220001CN0600001N9-00281-01221099591ADDAY121999GF104991001001999999041021IA1319KA1999M+00001MD1610071+9999MW1011
0057010300999991952021600004+69700+019017FM-12+002499999V0202501N00261220001CN0600001N9-00501-01111099641ADDAY121999GF106991001001999999071021MD1310021+9999MW1021
0057010300999991952021603004+69700+019017FM-12+002499999V0202301N00621220001CN0600001N9-00281-00891099701ADDAY121999GF107991001001999999071999MD1310061+9999MW1021
0111010300999991952021606004+69700+019017FM-12+002499999V0202301N00461220001CN0600001N9-00281-00891099801ADDAY111999GA1041+024009039GF104991999001999999041001IA1319KA1999N-00611MD1210101+9999MW1021EQDQ01+000002SCOTLC
0073010300999991952021609004+69700+019017FM-12+002499999V0201201N00101018001CN0600001N9-00281-00891099961ADDAY121999GA1051+018009059GF107991051061017501041001MD1310161+9999MW1021
0092010300999991952021612004+69700+019017FM-12+002499999V0203401N00101220001CN0600001N9-00281-00781100031ADDAY121999GA1031+024009039GF106991999001999999041021MD1110071+9999MW1011EQDQ01+000002SCOTLC
0092010300999991952021615004+69700+019017FM-12+002499999V0209991C00001024001CN0600001N9-00281-00781100071ADDAY121999GA1051+024009039GF106991999001999999041021MD1310041+9999MW1011EQDQ01+000002SCOTLC
0095010300999991952021618004+69700+019017FM-12+002499999V0209991C00001220001CN0600001N9-00501-00891100111ADDAY101999GF101991999001999999041001IA1319KA1999M-00281MD1310041+9999MW1021EQDQ01+000002SCOTLC
0092010300999991952021706004+69700+019017FM-12+002499999V0202301N00771012001CN0600001N9-00281-00721100181ADDAY101999GA1061+012009059GF107991061051012501041001IA1319KA1999N-00611MD1310021+9999MW1021
0073010300999991952021709004+69700+019017FM-12+002499999V0202301N00671007201CN0050001N9-00221-00501100281ADDAY121999GA1051+007209099GF106991051091008001061001MD1310101+9999MW1851
0108010300999991952021712004+69700+019017FM-12+002499999V0202301N01031220001CN0002001N9-00111-00221100391ADDAY181999GA1091+999999999GF109991091999000251999999MD1210111+9999MW1861EQDQ01+000042APCTENQ02+000112APC3  
0108010300999991952021715004+69700+019017FM-12+002499999V0202301N00511007801CN0120001N9-00111-00221100651ADDAY181999GA1061+007809099GF107991061091008001061001MD1210261+9999MW1851EQDQ01+000042APCTENQ02+000262APC3  
0103010300999991952021718004+69700+019017FM-12+002499999V0202301N01231220001CN0600001N9-00111-00611100661ADDAA199001091AY181999GA1031+009009059GF103991031041008001001001IA1319KA1999M+00111MD1210011+9999MW1011
0073010300999991952021800004+69700+019017FM-12+002499999V0202501N00101220001CN0010001N9-00111-00221100991ADDAY181999GA1091+999999999GF109991091999999999999999MD1310201+9999MW1861
0073010300999991952021803004+69700+019017FM-12+002499999V0202301N00461007501CN0400001N9-00221-00281100981ADDAY181999GA1071+007509099GF107991071091008001001001MD1990011+9999MW1151
0103010300999991952021806004+69700+019017FM-12+002499999V0202501N00261006001CN0160001N9-00281-00391101001ADDAA199008091AY181999GA1071+006009099GF107991071091008001001001IA1319KA1999N-00281MD1210021+9999MW1851
0073010300999991952021809004+69700+019017FM-12+002499999V0202301N00461220001CN0600001N9-00281-00501100911ADDAY181999GA1031+006909099GF106991031091008001041021MD1710091+9999MW1021
0073010300999991952021812004+69700+019017FM-12+002499999V0202001N00821006601CN0200001N9-00221-00611100791ADDAY181999GA1051+006609099GF108991051091008001041999MD1810121+9999MW1151
0073010300999991952021815004+69700+019017FM-12+002499999V0202101N00621220001CN0600001N9-00221-00611100621ADDAY121999GA1041+006609089GF107991041081008001041021MD1710171+9999MW1021
0103010300999991952021818004+69700+019017FM-12+002499999V0202301N00461220001CN0600001N9-00281-00781100541ADDAA199000691AY121999GA1011+007509089GF102991011081008001041001IA1319KA1999M-00221MD1810031+9999MW1011
0073010300999991952021900004+69700+019017FM-12+002499999V0202501N00261220001CN0600001N9-00501-01001100371ADDAY101999GA1011+012009059GF101991011041012501001001MD1710071+9999MW1021
0073010300999991952021903004+69700+019017FM-12+002499999V0202301N00101220001CN0600001N9-00721-01111100271ADDAY101999GA1011+012009059GF101991011041012501001001MD1710101+9999MW1021
0092010300999991952021906004+69700+019017FM-12+002499999V0202301N00261024001CN0600001N9-00501-00891100201ADDAY101999GA1061+024009039GF106991061001999999051001IA1319KA1999N-00721MD1610071+9999MW1031
0092010300999991952021909004+69700+019017FM-12+002499999V0202301N00261220001CN0600001N9-00611-00891100171ADDAY121999GA1041+024009039GF105991999001999999041021MD1710031+9999MW1011EQDQ01+000002SCOTLC
0092010300999991952021912004+69700+019017FM-12+002499999V0202301N00261220001CN0600001N9-00501-00891100091ADDAY101999GA1011+024009039GF103991999001999999041021MD1810081+9999MW1021EQDQ01+000002SCOTLC
0092010300999991952021915004+69700+019017FM-12+002499999V0202301N00411220001CN0600001N9-00611-00891100091ADDAY121999GA1041+018009089GF105991041081017501041021MD1410001+9999MW1031EQDQ01+000022APCTEN
0092010300999991952021918004+69700+019017FM-12+002499999V0202301N00411220001CN0600001N9-00611-00891100161ADDAY121999GA1021+015009089GF103991021081012501041001IA1319KA1999M-00501MD1310071+9999MW1011
0062010300999991952022000004+69700+019017FM-12+002499999V0202301N00261220001CN0600001N9-00721-00891100181ADDAY101999GF101991001001999999041021MW1021EQDQ01+000002APC3  
0057010300999991952022003004+69700+019017FM-12+002499999V0202301N00261220001CN0600001N9-00721-00891100091ADDAY101999GF100991001001999999001001MD1810091+9999MW1011
0108010300999991952022006004+69700+019017FM-12+002499999V0202501N00261021001CN0600001N9-00501-00611099931ADDAY111999GA1071+021009039GA2031+008109059GF107991031051008001071001IA1319KA1999N-00781MD1810171+9999MW1031
0089010300999991952022009004+69700+019017FM-12+002499999V0202501N00461010501CN0600001N9-00391-00501099771ADDAY121999GA1061+010509059GA2011+006009079GF107991061051012501041001MD1810161+9999MW1021
0073010300999991952022012004+69700+019017FM-12+002499999V0201201N00101220001CN0600001N9-00281-00611099451ADDAY121999GA1011+006009059GF101991011051008001041011MD1810321+9999MW1011
0092010300999991952022015004+69700+019017FM-12+002499999V0202301N00101220001CN0600001N9-00391-00891099101ADDAY101999GA1011+027009039GF102991999001999999041051MD1810351+9999MW1031EQDQ01+000002SCOTLC
0111010300999991952022018004+69700+019017FM-12+002499999V0202901N00211220001CN0600001N9-00611-01111098841ADDAY101999GA1011+027009039GF101991999001999999041051IA1319KA1999M-00281MD1810261+9999MW1011EQDQ01+000002SCOTLC
0057010300999991952022100004+69700+019017FM-12+002499999V0209991C00001220001CN0600001N9-00721-01111098651ADDAY111999GF105991001001999999041081MD1610051+9999MW1031
0092010300999991952022103004+69700+019017FM-12+002499999V0203001N00101220001CN0600001N9-00721-01111098661ADDAY121999GF108991001001999999021999MD1210011+9999MW1031EQDQ01+000042APCTENQ02+000012APC3  
0076010300999991952022106004+69700+019017FM-12+002499999V0200601N00101220001CN0600001N9-00611-01111098751ADDAY111999GF102991001001999999001011IA1319KA1999N-00891MD1210091+9999MW1011
0092010300999991952022109004+69700+019017FM-12+002499999V0202501N00261024001CN0600001N9-00611-01001098921ADDAY121999GA1061+024009039GF107991999001999999071021MD1310171+9999MW1101EQDQ01+000002SCOTLC
0073010300999991952022112004+69700+019017FM-12+002499999V0209991C00001010501CN0200001N9-00501-00891099021ADDAY171999GA1071+010509059GF107991071051012501001001MD1310101+9999MW1701
0073010300999991952022115004+69700+019017FM-12+002499999V0202301N00151010501CN0200001N9-00501-00721099161ADDAY121999GA1071+010509059GF107991071051012501001001MD1310141+9999MW1101
0103010300999991952022118004+69700+019017FM-12+002499999V0202301N00151010501CN0600001N9-00501-00721099351ADDAA199000691AY171999GA1071+010509059GF107991071051012501001001IA1319KA1999M-00391MD1310191+9999MW1021
0057010300999991952022200004+69700+019017FM-12+002499999V0202301N00261007801CN0600001N9-00501-00721099761ADDAY181999GF106991061081008001999999MD1310211+9999MW1021
0057010300999991952022203004+69700+019017FM-12+002499999V0202301N00461007801CN0600001N9-00611-00721999999ADDAY111999GF106991061081008001999999MD1310241+9999MW1021
0103010300999991952022206004+69700+019017FM-12+002499999V0202301N00261220001CN0600001N9-00721-00781100161ADDAA199000691AY101999GA1011+003009079GF101991011081008001001021IA1319KA1999N-00721MD1310161+9999MW1011
0073010300999991952022209004+69700+019017FM-12+002499999V0202401N00261220001CN0600001N9-00721-00781100291ADDAY101999GA1011+004509079GF101991011061004501001021MD1310131+9999MW1021
0089010300999991952022212004+69700+019017FM-12+002499999V0202501N00151060001CN0600001N9-00611-00721100301ADDAY101999GA1051+060009029GA2011+009609079GF105991011061008001001061MD1010011+9999MW1031
0073010300999991952022215004+69700+019017FM-12+002499999V0202501N00101060001CN0600001N9-00721-00891100241ADDAY111999GA1061+060009009GF106991001001999999001011MD1810061+9999MW1021
0076010300999991952022218004+69700+019017FM-12+002499999V0202501N00101220001CN0600001N9-00781-00891100201ADDAY111999GF102991001001999999001011IA1319KA1999M-00611MD1810041+9999MW1011
0057010300999991952022300004+69700+019017FM-12+002499999V0202301N00461220001CN0600001N9-00611-01001100151ADDAY101999GF100991001001999999001001MD1610011+9999MW1021
0073010300999991952022303004+69700+019017FM-12+002499999V0202301N00461220001CN0600001N9-00501-01001100221ADDAY101999GA1021+012009059GF102991021051012501001001MD1310071+9999MW1031
0092010300999991952022306004+69700+019017FM-12+002499999V0202501N00671012001CN0600001N9-00501-01001100271ADDAY121999GA1051+012009059GF106991051051012501041001IA1319KA1999N-00891MD1310051+9999MW1031
0073010300999991952022309004+69700+019017FM-12+002499999V0202501N00671220001CN0600001N9-00391-00891100431ADDAY121999GA1041+009909059GF107991041051012501071999MD1310161+9999MW1021
0073010300999991952022312004+69700+019017FM-12+002499999V0202401N00671220001CN0600001N9-00281-00891100551ADDAY111999GA1011+012009059GF102991011051012501041001MD1110121+9999MW1011
0057010300999991952022315004+69700+019017FM-12+002499999V0203601N00101220001CN0600001N9-00391-00891100651ADDAY101999GF101991011051017501041021MD1210101+9999MW1021
0095010300999991952022318004+69700+019017FM-12+002499999V0209991C00001220001CN0600001N9-00501-00891100751ADDAY101999GF102991999001999999041001IA1319KA1999M-00281MD1210101+9999MW1021EQDQ01+000002SCOTLC
0103010300999991952022406004+69700+019017FM-12+002499999V0202301N00931220001CN0600001N9-00281-00391101131ADDAA199000691AY181999GA1041+008409089GF106991041081008001041021IA1319KA1999N-00611MD1210101+9999MW1151
0073010300999991952022409004+69700+019017FM-12+002499999V0202301N00771008401CN0010001N9-00221-00281101391ADDAY181999GA1051+008409089GF107991051081008001041021MD1210261+9999MW1851
0073010300999991952022412004+69700+019017FM-12+002499999V0202301N00511007501CN0040001N9-00221-00281101701ADDAY181999GA1051+007509099GF107991051091008001041021MD1210311+9999MW1851
0073010300999991952022415004+69700+019017FM-12+002499999V0203401N00261220001CN0002001N9-00221-00281101951ADDAY181999GA1091+999999999GF109991091999999999999999MD1210251+9999MW1861
0103010300999991952022418004+69700+019017FM-12+002499999V0202301N00261220001CN0600001N9-00281-00391102101ADDAA199010091AY181999GA1031+009009099GF104991031091008001061001IA1319KA1999M-00111MD1210151+9999MW1011
0073010300999991952022500004+69700+019017FM-12+002499999V0209991C00001220001CN0600001N9-00501-00721102131ADDAY181999GA1011+012009059GF101991011041012501001001MD1110031+9999MW1011
0073010300999991952022503004+69700+019017FM-12+002499999V0203601N00101220001CN0600001N9-00611-00781102001ADDAY101999GA1011+027009039GF101991011001999999041001MD1990131+9999MW1021
0103010300999991952022506004+69700+019017FM-12+002499999V0202501N00101027001CN0600001N9-00611-00721101791ADDAA199000391AY111999GA1051+027009049GF106991051001999999011061IA1319KA1999N-00611MD1710211+9999MW1031
0092010300999991952022509004+69700+019017FM-12+002499999V0202501N00101220001CN0600001N9-00611-00891101541ADDAY121999GA1021+027009039GF106991999001999999041061MD1810251+9999MW1021EQDQ01+000002SCOTLC
0092010300999991952022512004+69700+019017FM-12+002499999V0209991C00001220001CN0600001N9-00221-00721101401ADDAY101999GA1011+027009039GF103991999001999999041051MD1710141+9999MW1031EQDQ01+000002SCOTLC
0092010300999991952022515004+69700+019017FM-12+002499999V0209991C00001024001CN0600001N9-00281-00891101331ADDAY121999GA1051+024009039GF107991999001999999071021MD1710071+9999MW1031EQDQ01+000002SCOTLC
0103010300999991952022518004+69700+019017FM-12+002499999V0202301N00261015001CN0160001N9-00221-00611101281ADDAA199000691AY121999GA1081+015009049GF108991081001017501021999IA1319KA1999M-00221MD1710051+9999MW1711
0073010300999991952022600004+69700+019017FM-12+002499999V0200201N00101021001CN0600001N9-00111-00281101131ADDAY121999GA1061+021009049GF106991061001022501071021MD1710111+9999MW1011
0073010300999991952022603004+69700+019017FM-12+002499999V0202501N00101021001CN0600001N9+00001-00221100941ADDAY121999GA1081+021009049GF108991081001022501071999MD1810191+9999MW1031
0119010300999991952022606004+69700+019017FM-12+002499999V0202301N00621015001CN0600001N9+00221+00001100851ADDAA199000691AY121999GA1081+015009049GA2021+008409059GF108991021051008001021999IA1319KA1999N-00281MD1510091+9999MW1601
0124010300999991952022609004+69700+019017FM-12+002499999V0202501N00931021001CN0200001N9+00221+00001100931ADDAY161999GA1031+008109059GA2081+021009049GF108991031051008001071999MD1210081+9999MW1601EQDQ01+000042APCTENQ02+000082APC3  
0073010300999991952022612004+69700+019017FM-12+002499999V0202301N00671008101CN0200001N9+00221+00001101151ADDAY161999GA1071+008109059GF108991071051008001071999MD1210221+9999MW1601
0073010300999991952022615004+69700+019017FM-12+002499999V0202301N00671007501CN0200001N9+00281+00111101271ADDAY161999GA1061+007509059GF108991061051008001071999MD1210121+9999MW1021
0103010300999991952022618004+69700+019017FM-12+002499999V0202301N00511006901CN0160001N9+00281+00221101351ADDAA199000691AY161999GA1061+006909059GF108991061051008001071999IA1209KA1999M+00281MD1110081+9999MW1601
0057010300999991952022700004+69700+019017FM-12+002499999V0202101N00671004501CN0160001N9+00391+00281101331ADDAY161999GF108991081061004501999999MD1610041+9999MW1611
0057010300999991952022703004+69700+019017FM-12+002499999V0202101N00931004501CN0160001N9+00501+00281101301ADDAY161999GF108991081061004501999999MD1710031+9999MW1611
0122010300999991952022706004+69700+019017FM-12+002499999V0202101N00931005401CN0160001N9+00501+00281101301ADDAA199002091AY161999GA1081+005409099GF108991081091004501999999IA1209KA1999N+00221MD1410001+9999MW1801EQDQ01+000022APCTEN
0073010300999991952022709004+69700+019017FM-12+002499999V0202101N00511009001CN0600001N9+00501+00281101221ADDAY121999GA1061+009009089GF107991061081008001071001MD1990081+9999MW1021
0073010300999991952022712004+69700+019017FM-12+002499999V0202301N01231009001CN0200001N9+00501+00281101081ADDAY181999GA1071+009009089GF107991071081008001001001MD1710141+9999MW1251
0073010300999991952022715004+69700+019017FM-12+002499999V0202301N01231009001CN0160001N9+00611+00111100831ADDAY121999GA1071+009009079GF108991071071008001021999MD1510251+9999MW1621
0103010300999991952022718004+69700+019017FM-12+002499999V0202501N00771009001CN0160001N9+00281+00111101061ADDAA199003091AY161999GA1071+009009089GF107991071071008001041001IA1209KA1999M+00611MD1210231+9999MW1871
0073010300999991952022800004+69700+019017FM-12+002499999V0202301N00461006001CN0200001N9-00221-00281101431ADDAY181999GA1081+006009099GF108991081091008001999999MD1210201+9999MW1851
0073010300999991952022803004+69700+019017FM-12+002499999V0202701N00261006001CN0600001N9-00221-00391101471ADDAY181999GA1071+006009099GF107991071091008001999999MD1310041+9999MW1021
0103010300999991952022806004+69700+019017FM-12+002499999V0202301N00261006901CN0200001N9-00281-00391101441ADDAA199003091AY181999GA1061+006909099GF106991061091008001001001IA1319KA1999N-00391MD1710031+9999MW1151
0073010300999991952022809004+69700+019017FM-12+002499999V0202301N00261005401CN0200001N9-00281-00391101451ADDAY181999GA1061+005409099GF106991061091004501001001MD1210011+9999MW1261
0073010300999991952022812004+69700+019017FM-12+002499999V0202501N00261220001CN0004001N9-00391-00501101501ADDAY181999GA1091+999999999GF109991091999999999999999MD1210051+9999MW1861
0073010300999991952022815004+69700+019017FM-12+002499999V0202201N00261004501CN0030001N9-00391-00501101391ADDAY181999GA1071+004509099GF107991071091004501999999MD1990111+9999MW1851
0087010300999991952022818004+69700+019017FM-12+002499999V0202401N00261004501CN0040001N9-00391-00501101271ADDAA199008091AY181999GF108991081091004501999999IA1319KA1999M-00221MD1710121+9999MW1851
0057010300999991952022900004+69700+019017FM-12+002499999V0202301N00461004501CN0030001N9-00391-00501100511ADDAY181999GF108991081091004501999999MD1810401+9999MW1851
0057010300999991952022903004+69700+019017FM-12+002499999V0203601N00261004501CN0040001N9-00501-00611100421ADDAY181999GF108991081091004501999999MD1610091+9999MW1851
0103010300999991952022906004+69700+019017FM-12+002499999V0209991C00001004501CN0020001N9-00501-00611100381ADDAA199003091AY181999GA1081+004509099GF108991081091004501999999IA1319KA1999N-00501MD1610041+9999MW1851
0108010300999991952022909004+69700+019017FM-12+002499999V0202301N00461006001CN0400001N9-00611-00891100431ADDAY181999GA1071+006009099GF107991071091004501999999MD1210051+9999MW1151EQDQ01+000042APCTENQ02+000052APC3  
0073010300999991952022912004+69700+019017FM-12+002499999V0202101N00461009001CN0600001N9-00501-01281100331ADDAY121999GA1051+009009089GF105991051091008001001001MD1990111+9999MW1011
0073010300999991952022915004+69700+019017FM-12+002499999V0202101N00931220001CN0600001N9-00611-01001100191ADDAY121999GA1031+009009099GF103991031091008001001011MD1710141+9999MW1021
0103010300999991952022918004+69700+019017FM-12+002499999V0202101N00931220001CN0600001N9-00611-01111100141ADDAA199000591AY101999GA1011+009009089GF102991011081008001041021IA1319KA1999M-00501MD1710051+9999MW1021
0092010300999991952030100004+69700+019017FM-12+002499999V0202501N00261220001CN0600001N9-00721-01221100291ADDAY101999GA1011+024009039GF102991999001999999041021MD1210071+9999MW1021EQDQ01+000002SCOTLC
0073010300999991952030103004+69700+019017FM-12+002499999V0202301N00261027001CN0600001N9-00721-01221100361ADDAY101999GA1081+027009049GF108991081001999999011999MD1310071+9999MW1031
0092010300999991952030106004+69700+019017FM-12+002499999V0202501N00261220001CN0600001N9-00781-01281100471ADDAY121999GA1021+012009099GF102991021031012501061001IA1319KA1999N-00781MD1210111+9999MW1021
0073010300999991952030109004+69700+019017FM-12+002499999V0202301N00461220001CN0600001N9-00611-01111100601ADDAY101999GA1011+009009089GF105991011081008001001051MD1210131+9999MW1031
0073010300999991952030112004+69700+019017FM-12+002499999V0202301N00621006001CN0100001N9-00611-00891100621ADDAY181999GA1071+006009099GF107991071091008001001021MD1310021+9999MW1851
0073010300999991952030115004+69700+019017FM-12+002499999V0202501N00671220001CN0100001N9-00611-00721100701ADDAY181999GA1041+006009099GF106991041091008001061021MD1210081+9999MW1151
0103010300999991952030118004+69700+019017FM-12+002499999V0202901N00261220001CN0002001N9-00501-00611100851ADDAA199003091AY181999GA1091+999999999GF109991091999000251999999IA1319KA1999M-00501MD1210151+9999MW1861
0087010300999991952030206004+69700+019017FM-12+002499999V0200201N002619999999N0010001N9-00611-00721101441ADDAA199001091AY181999GF109991091999999999999999IA1319KA1999N-00611MD1310061+9999MW1851
0057010300999991952030209004+69700+019017FM-12+002499999V0200601N00261007801CN0050001N9-00611-00721101551ADDAY181999GF107991061091008001001011MD1310111+9999MW1851
0089010300999991952030212004+69700+019017FM-12+002499999V0200801N00461015001CN0080001N9-00501-00721101571ADDAY181999GA1041+003609099GA2071+015009049GF108991041091004501071999MD1110021+9999MW1851
0057010300999991952030215004+69700+019017FM-12+002499999V0200601N00101004501CN0080001N9-00611-00781101531ADDAY181999GF107991071091004501999999MD1810041+9999MW1851
0087010300999991952030218004+69700+019017FM-12+002499999V0200601N004619999999N0020001N9-00501-00611101501ADDAA199001091AY181999GF109991091999999999999999IA1319KA1999M-00501MD1810031+9999MW1861
0073010300999991952030300004+69700+019017FM-12+002499999V0203401N00461220001CN0008001N9-00611-00721101401ADDAY181999GA1091+999999999GF109991091999999999999999MD1710081+9999MW1861
0073010300999991952030303004+69700+019017FM-12+002499999V0202501N00261220001CN0600001N9-00721-00781101331ADDAY181999GA1031+009009099GF104991031091008001061001MD1810071+9999MW1011
0103010300999991952030306004+69700+019017FM-12+002499999V0202501N00101009601CN0600001N9-00781-01001101221ADDAA199003091AY181999GA1051+009609089GF106991051081008001041021IA1319KA1999N-00781MD1710111+9999MW1021
0073010300999991952030309004+69700+019017FM-12+002499999V0202301N00261220001CN0600001N9-00781-01001101191ADDAY111999GA1011+007809089GF102991011081008001041001MD1610031+9999MW1021
0073010300999991952030312004+69700+019017FM-12+002499999V0202301N00261220001CN0600001N9-00721-01001101101ADDAY101999GA1011+009009089GF101991011081008001041001MD1610091+9999MW1021
0073010300999991952030315004+69700+019017FM-12+002499999V0202301N00461220001CN0600001N9-00781-01111101051ADDAY101999GA1011+008409059GF101991011041008001001001MD1810051+9999MW1021
0127010300999991952030318004+69700+019017FM-12+002499999V0202501N00261220001CN0600001N9-01001-01281101081ADDAY101999GA1031+027009049GF103991031001999999011001IA1319KA1999M-00721MD1210031+9999MW1031EQDQ01+000042APCTENQ02+000032APC3  
0057010300999991952030400004+69700+019017FM-12+002499999V0202701N00101220001CN0600001N9-00721-01221101241ADDAY111999GF108991001001999999021999MD1310081+9999MW1021
0092010300999991952030403004+69700+019017FM-12+002499999V0202501N00261220001CN0600001N9-00781-01281101461ADDAY121999GF106991001001999999041011MD1210221+9999MW1011EQDQ01+000042APCTENQ02+000222APC3  
0111010300999991952030406004+69700+019017FM-12+002499999V0202501N00261027001CN0600001N9-00781-01281101761ADDAY121999GA1071+027009039GF107991999001999999041001IA1319KA1999N-01001MD1310301+9999MW1021EQDQ01+000002SCOTLC
0092010300999991952030409004+69700+019017FM-12+002499999V0209991C00001024001CN0600001N9-00721-01111102011ADDAY121999GA1051+024009049GF107991999001999999071071MD1310251+9999MW1021EQDQ01+000002SCOTLC
0073010300999991952030412004+69700+019017FM-12+002499999V0200701N00461015001CN0160001N9-00501-00781102001ADDAY171999GA1081+015009049GF108991081001017501021999MD1990011+9999MW1701
0089010300999991952030415004+69700+019017FM-12+002499999V0200701N00621021001CN0400001N9-00281-00721102011ADDAY121999GA1071+021009039GA2011+010509059GF107991011051012501071001MD1210011+9999MW1011
0103010300999991952030418004+69700+019017FM-12+002499999V0202701N00101024001CN0600001N9-00501-00781101981ADDAA199000691AY121999GA1071+024009039GF107991011071012501071001IA1319KA1999M-00281MD1710031+9999MW1021
0073010300999991952030500004+69700+019017FM-12+002499999V0202701N00101015001CN0600001N9-00391-00721102061ADDAY171999GA1081+015009049GF108991081001012501021999MD1310041+9999MW1021
0073010300999991952030503004+69700+019017FM-12+002499999V0202501N00261220001CN0600001N9-00391-00721102211ADDAY121999GA1021+009009079GF107991021071008001031001MD1310151+9999MW1011
0103010300999991952030506004+69700+019017FM-12+002499999V0202501N00261220001CN0600001N9-00501-00781102371ADDAA199000691AY121999GA1011+009009059GF107991011051008001031071IA1319KA1999N-00501MD1310161+9999MW1021
0092010300999991952030509004+69700+019017FM-12+002499999V0202501N00101024001CN0200001N9-00221+99999102451ADDAY121999GA1071+024009039GF107991999001999999071001MD1110081+9999MW1051EQDQ01+000002SCOTLC
0089010300999991952030512004+69700+019017FM-12+002499999V0202301N00101021001CN0160001N9-00221-00501102551ADDAY171999GA1081+021009049GA2031+007809079GF108991031061008001021999MD1310101+9999MW1151
0089010300999991952030515004+69700+019017FM-12+002499999V0203301N00101004501CN0030001N9-00221-00501102611ADDAY171999GA1051+004509079GA2081+021009049GF108991051071004501021999MD1310061+9999MW1701
0087010300999991952030518004+69700+019017FM-12+002499999V0203501N002619999999N0600001N9-00391-00611102681ADDAA199000391AY171999GF106991031061008001041001IA1319KA1999M-00221MD1310071+9999MW1011
0073010300999991952030600004+69700+019017FM-12+002499999V0202501N00101009001CN0600001N9-00501-00781102761ADDAY181999GA1071+009009089GF107991071081008001001001MD1310051+9999MW1021
0073010300999991952030603004+69700+019017FM-12+002499999V0202501N00261009001CN0600001N9-00501-00781102801ADDAY121999GA1051+009009089GF105991051081008001001001MD1310041+9999MW1011
0103010300999991952030606004+69700+019017FM-12+002499999V0202301N00261007801CN0400001N9-00391-00721102861ADDAA199000691AY181999GA1071+007809089GF107991071081008001001001IA1319KA1999N-00501MD1310061+9999MW1851
0073010300999991952030609004+69700+019017FM-12+002499999V0202301N00461220001CN0600001N9-00281-00721102981ADDAY181999GA1041+007509089GF106991041081008001041021MD1310121+9999MW1021
0073010300999991952030612004+69700+019017FM-12+002499999V0202301N00461220001CN0600001N9-00281-00721103091ADDAY181999GA1021+007509099GF103991021091008001041021MD1310111+9999MW1011
0073010300999991952030615004+69700+019017FM-12+002499999V0202301N00461007501CN0600001N9-00281-00721103131ADDAY181999GA1051+007509089GF106991051081008001041011MD1310041+9999MW1261
0103010300999991952030618004+69700+019017FM-12+002499999V0202301N00461220001CN0600001N9-00391-00781103141ADDAA199000691AY181999GA1021+009009089GF103991021051008001041001IA1319KA1999M-00221MD1310011+9999MW1011
0073010300999991952030700004+69700+019017FM-12+002499999V0202501N00261220001CN0600001N9-00611-00891103061ADDAY101999GA1031+027009039GF104991031001999999051061MD1990031+9999MW1031
0057010300999991952030703004+69700+019017FM-12+002499999V0202501N00101220001CN0600001N9-00721-00891103001ADDAY111999GF100991001001999999001001MD1810061+9999MW1001
0092010300999991952030706004+69700+019017FM-12+002499999V0202501N00101048001CN0600001N9-00721-00781102871ADDAY111999GA1071+048009029GF107991001001999999041071IA1319KA1999N-00781MD1710131+9999MW1031
0092010300999991952030709004+69700+019017FM-12+002499999V0202501N00101220001CN0600001N9-00501-00781102691ADDAY121999GA1011+024009039GF102991999001999999041021MD1310181+9999MW1011EQDQ01+000002SCOTLC
0092010300999991952030712004+69700+019017FM-12+002499999V0209991C00001220001CN0600001N9-00221-00721102511ADDAY111999GA1031+027009039GF105991999001999999041021MD1710181+9999MW1031EQDQ01+000002SCOTLC
0073010300999991952030715004+69700+019017FM-12+002499999V0209991C00001009001CN0600001N9-00281-00781102371ADDAY121999GA1081+009009059GF108991081051008001999999MD1810141+9999MW1021
0119010300999991952030718004+69700+019017FM-12+002499999V0209991C00001012001CN0160001N9-00391-00501102201ADDAA199000691AY171999GA1081+012009049GA2031+004809079GF108991031071004501011999IA1319KA1999M-00221MD1810171+9999MW1711
0073010300999991952030800004+69700+019017FM-12+002499999V0209991C00001005401CN0020001N9-00281-00281101891ADDAY171999GA1071+005409079GF108991071061004501021999MD1810121+9999MW1711
0073010300999991952030803004+69700+019017FM-12+002499999V0202301N00101007501CN0100001N9-00221-00281101781ADDAY171999GA1071+007509079GF108991071061008001021999MD1810111+9999MW1711
0103010300999991952030806004+69700+019017FM-12+002499999V0202301N00101004801CN0020001N9-00111-00111101651ADDAA199002091AY171999GA1061+004809079GF108991061061004501021999IA1319KA1999N-00501MD1810131+9999MW1731
0073010300999991952030809004+69700+019017FM-12+002499999V0202301N00101220001CN0050001N9+00001-00111101551ADDAY171999GA1041+001809079GF108991041061001501021999MD1610101+9999MW1711
0073010300999991952030812004+69700+019017FM-12+002499999V0202301N00211220001CN0040001N9+00001-00111101431ADDAY171999GA1041+000909079GF108991041061001501021999MD1810121+9999MW1711
0073010300999991952030815004+69700+019017FM-12+002499999V0202501N00101001501CN0040001N9+00001-00111101371ADDAY171999GA1051+001509079GF108991051061001501021999MD1810061+9999MW1711
0103010300999991952030818004+69700+019017FM-12+002499999V0201801N00101220001CN0080001N9+00001-00111101261ADDAA199001091AY171999GA1041+002109079GF108991041061002501021999IA1319KA1999M+00001MD1810111+9999MW1101
0103010300999991952030906004+69700+019017FM-12+002499999V0202301N00671005401CN0050001N9+00001-00111100861ADDAA199000691AY171999GA1071+005409079GF108991071061004501021999IA1319KA1999N-00111MD1710181+9999MW1711
0073010300999991952030909004+69700+019017FM-12+002499999V0202001N00461006001CN0140001N9+00111+00001100781ADDAY171999GA1051+006009079GF108991051061008001021999MD1610081+9999MW1151
0073010300999991952030912004+69700+019017FM-12+002499999V0202301N00931220001CN0120001N9+00221+00111100691ADDAY171999GA1041+004509079GF108991041061004501021999MD1710081+9999MW1601
0073010300999991952030915004+69700+019017FM-12+002499999V0202301N00931006001CN0120001N9+00281+00221100621ADDAY161999GA1051+006009079GF108991051071008001021999MD1610071+9999MW1611
0103010300999991952030918004+69700+019017FM-12+002499999V0202301N01231006001CN0160001N9+00391+00221100491ADDAA199001091AY161999GA1051+006009089GF107991051081008001071999IA1209KA1999M+00391MD1710131+9999MW1601
0057010300999991952031000004+69700+019017FM-12+002499999V0202101N00931012301CN0400001N9+00391+00221100421ADDAY181999GF108991081081012501999999MD1710071+9999MW1801
0057010300999991952031003004+69700+019017FM-12+002499999V0202201N00931007801CN0200001N9+00391+00221100341ADDAY181999GF108991081091008001999999MD1810081+9999MW1801
0119010300999991952031006004+69700+019017FM-12+002499999V0202301N00931007501CN0200001N9+00391+00281100271ADDAA199000591AY181999GA1061+007509099GA2081+024009049GF108991061091008001021999IA1209KA1999N+00281MD1610071+9999MW1801
0073010300999991952031009004+69700+019017FM-12+002499999V0203401N00511005101CN0040001N9+00111+00001100451ADDAY171999GA1071+005109089GF108991071071004501021999MD1310181+9999MW1831
0089010300999991952031012004+69700+019017FM-12+002499999V0203401N00261007801CN0080001N9+00111+00001100531ADDAY181999GA1081+007809099GA2031+002109079GF108991081091008001999999MD1310081+9999MW1851
0073010300999991952031015004+69700+019017FM-12+002499999V0203401N00461006601CN0080001N9+00001-00111100591ADDAY181999GA1081+006609099GF108991081091008001999999MD1110061+9999MW1851
0103010300999991952031018004+69700+019017FM-12+002499999V0200501N00151006601CN0160001N9-00111-00221100571ADDAA199004091AY181999GA1081+006609099GF108991081091008001999999IA1209KA1999M+00391MD1810021+9999MW1151
0057010300999991952031100004+69700+019017FM-12+002499999V0203601N00261007801CN0050001N9-00111-00221100411ADDAY181999GF108991081091008001999999MD1810041+9999MW1851
0057010300999991952031103004+69700+019017FM-12+002499999V0200501N00261007801CN0160001N9-00221-00281100401ADDAY181999GF108991081091008001999999MD1810011+9999MW1851
0103010300999991952031106004+69700+019017FM-12+002499999V0209991C00001008401CN0200001N9-00221-00501100451ADDAA199000591AY181999GA1071+008409089GF107991071081008001999999IA1209KA1999N-00221MD1310051+9999MW1851
0108010300999991952031109004+69700+019017FM-12+002499999V0203401N00261004501CN0120001N9-00221-00391100531ADDAY181999GA1081+004509089GF108991081081004501999999MD1210081+9999MW1851EQDQ01+000042APCTENQ02+000082APC3  
0073010300999991952031112004+69700+019017FM-12+002499999V0203201N00101006601CN0160001N9-00221-00391100621ADDAY181999GA1061+006609089GF107991061081008001061021MD1310091+9999MW1261
0073010300999991952031115004+69700+019017FM-12+002499999V0200201N00261006601CN0160001N9-00221-00391100671ADDAY181999GA1061+006609089GF107991061081008001001021MD1310051+9999MW1161
0087010300999991952031118004+69700+019017FM-12+002499999V0203401N00101004501CN0100001N9-00281-00391100701ADDAA199001091AY181999GF108991071091004501999999IA1319KA1999M-00221MD1310031+9999MW1271
0073010300999991952031200004+69700+019017FM-12+002499999V0209991C00001006001CN0100001N9-00391-00501100581ADDAY181999GA1071+006009099GF107991071091008001999999MD1710051+9999MW1851
0073010300999991952031203004+69700+019017FM-12+002499999V0209991C00001006001CN0120001N9-00391-00501100421ADDAY181999GA1081+006009099GF108991081091008001999999MD1710161+9999MW1851
0103010300999991952031206004+69700+019017FM-12+002499999V0202301N00101005401CN0400001N9-00501-00611100271ADDAA199004091AY181999GA1061+005409099GF107991061091004501041021IA1319KA1999N-00501MD1710151+9999MW1151
0073010300999991952031209004+69700+019017FM-12+002499999V0209991C00001220001CN0600001N9-00391-00721100281ADDAY101999GA1011+004509089GF101991011081004501041021MD1310011+9999MW1011
0108010300999991952031212004+69700+019017FM-12+002499999V0200601N00101220001CN0700001N9-00221-00721100381ADDAY101999GA1011+007509089GF101991011021004501041001MD1210101+9999MW1021EQDQ01+000042APCTENQ02+000102APC3  
0073010300999991952031215004+69700+019017FM-12+002499999V0203601N00101220001CN0700001N9-00391-01001100511ADDAY101999GA1011+007809089GF102991011021008001041051MD1310131+9999MW1031
0076010300999991952031218004+69700+019017FM-12+002499999V0202501N001019999999N0600001N9-00501-01001100711ADDAY121999GF106991011051008001021001IA1319KA1999M-00111MD1310201+9999MW1151
0073010300999991952031300004+69700+019017FM-12+002499999V0203601N00771006901CN0600001N9-00391-00781101211ADDAY181999GA1051+006909099GF105991051091008001001001MD1310251+9999MW1151
0073010300999991952031303004+69700+019017FM-12+002499999V0203601N00931006901CN0160001N9-00501-00781101411ADDAY181999GA1071+006909099GF107991071091008001001001MD1310201+9999MW1851
0103010300999991952031306004+69700+019017FM-12+002499999V0203601N00671220001CN0600001N9-00501-00781101591ADDAA199000391AY181999GA1041+006909099GF104991041091008001001001IA1319KA1999N-00611MD1310181+9999MW1261
0073010300999991952031309004+69700+019017FM-12+002499999V0200701N00261220001CN0600001N9-00391-00721101741ADDAY111999GA1031+007509099GF103991031091008001001001MD1310151+9999MW1011
0073010300999991952031312004+69700+019017FM-12+002499999V0203201N00101220001CN0600001N9-00391-01001101801ADDAY111999GA1021+009009099GF103991021091008001041021MD1110061+9999MW1021
0092010300999991952031315004+69700+019017FM-12+002499999V0201101N00261007501CN0160001N9-00501-00721101801ADDAY181999GA1071+007509099GF107991071091008001001001MD1410001+9999MW1851EQDQ01+000032APCTEN
0103010300999991952031318004+69700+019017FM-12+002499999V0202301N00261006601CN0600001N9-00611-00891101681ADDAA199000391AY181999GA1051+006609089GF106991051081008001061021IA1319KA1999M-00221MD1710121+9999MW1021
0073010300999991952031400004+69700+019017FM-12+002499999V0202301N00671009001CN0600001N9-00391-00781101201ADDAY121999GA1051+009009089GF106991051081008001061021MD1810271+9999MW1011
0073010300999991952031403004+69700+019017FM-12+002499999V0202301N00671013501CN0120001N9-00391-00721100871ADDAY121999GA1081+013509049GF108991081071012501999999MD1810331+9999MW1701
0119010300999991952031406004+69700+019017FM-12+002499999V0202101N00461006901CN0040001N9-00391-00611100531ADDAA199000691AY171999GA1071+006909079GA2081+012009049GF108991071071008001021999IA1319KA1999N-00611MD1810341+9999MW1721
0073010300999991952031409004+69700+019017FM-12+002499999V0209991C00001004801CN0050001N9-00281-00391100331ADDAY171999GA1061+004809079GF108991061071004501011999MD1810201+9999MW1711
0073010300999991952031412004+69700+019017FM-12+002499999V0202301N00671004501CN0016001N9-00281-00391100231ADDAY171999GA1071+004509079GF108991071071004501021999MD1990101+9999MW1731
0073010300999991952031415004+69700+019017FM-12+002499999V0202301N00671003901CN0020001N9-00281-00391100201ADDAY171999GA1061+003909079GF108991061071004501021999MD1610031+9999MW1731
0138010300999991952031418004+69700+019017FM-12+002499999V0202301N00621003901CN0010001N9-00281-00391100221ADDAA199003091AY171999GA1061+003909079GF108991061071004501021999IA1319KA1999M-00221MD1210021+9999MW1731EQDQ01+000042APCTENQ02+000022APC3  
0073010300999991952031500004+69700+019017FM-12+002499999V0202501N00311008401CN0160001N9-00281-00391100291ADDAY171999GA1071+008409079GF108991071071008001021999MD1110031+9999MW1701
0073010300999991952031503004+69700+019017FM-12+002499999V0202701N00101220001CN0008001N9-00281-00391100321ADDAY171999GA1091+999999999GF109991091999999999999999MD1210031+9999MW1861
0103010300999991952031506004+69700+019017FM-12+002499999V0200901N00671008401CN0600001N9-00281-00611100311ADDAA199000591AY181999GA1061+008409089GF106991061081008001001001IA1319KA1999N-00391MD1810011+9999MW1011
0073010300999991952031509004+69700+019017FM-12+002499999V0200701N00671220001CN0600001N9-00391-00721100261ADDAY111999GA1011+007809089GF101991011081008001001021MD1810051+9999MW1021
0073010300999991952031512004+69700+019017FM-12+002499999V0200901N00461220001CN0600001N9-00281-00781100181ADDAY101999GA1011+007809089GF101991011081008001001021MD1810081+9999MW1021
0092010300999991952031515004+69700+019017FM-12+002499999V0200701N00461220001CN0600001N9-00391-01001100131ADDAY101999GA1011+027009039GF102991999001999999041021MD1810051+9999MW1021EQDQ01+000002SCOTLC
0095010300999991952031518004+69700+019017FM-12+002499999V0200501N00461220001CN0600001N9-00721-01281100131ADDAY101999GF101991001001999999001021IA1319KA1999M-00281MD1410001+9999MW1021EQDQ01+000032APCTEN
0076010300999991952031606004+69700+019017FM-12+002499999V0202501N00261220001CN0600001N9-01001-01221100451ADDAY101999GF101991011061004501001001IA1319KA1999N-01111MD1310081+9999MW1021
0057010300999991952031609004+69700+019017FM-12+002499999V0202301N00461220001CN0600001N9-00721-01111100601ADDAY101999GF101991011061004501001001MD1310151+9999MW1021
0057010300999991952031612004+69700+019017FM-12+002499999V0202401N00461220001CN0600001N9-00611-01001100681ADDAY101999GF101991011051008001001001MD1310081+9999MW1021
0073010300999991952031615004+69700+019017FM-12+002499999V0202301N00671009901CN0600001N9-00721-01221100711ADDAY101999GA1061+009909059GF107991061051008001041001MD1110031+9999MW1031
0103010300999991952031618004+69700+019017FM-12+002499999V0202401N00671006001CN0600001N9-00721-00891100841ADDAA199000691AY181999GA1071+006009089GF107991071081004501999999IA1319KA1999M-00611MD1210131+9999MW1151
0057010300999991952031700004+69700+019017FM-12+002499999V0202301N00671007801CN0200001N9-00611-00781100981ADDAY181999GF107991071081008001999999MD1210081+9999MW1851
0057010300999991952031703004+69700+019017FM-12+002499999V0202501N00461015001CN0600001N9-00501-00721101011ADDAY181999GF108991081051017501999999MD1210031+9999MW1031
0103010300999991952031706004+69700+019017FM-12+002499999V0202501N00461220001CN0600001N9-00391-00611101091ADDAA199000691AY111999GA1021+018009059GF106991021051017501071021IA1319KA1999N-00781MD1310081+9999MW1011
0124010300999991952031709004+69700+019017FM-12+002499999V0202301N00461220001CN0600001N9-00281-00781101271ADDAY121999GA1021+024009039GF106991999001999999041011MD1210181+9999MW1021EQDQ01+000002SCOTLCQ02+000042APCTENQ03+000182APC3  
0073010300999991952031712004+69700+019017FM-12+002499999V0202301N00671220001CN0600001N9-00221-00721101451ADDAY121999GA1031+010509089GF106991031081012501071061MD1310181+9999MW1151
0073010300999991952031715004+69700+019017FM-12+002499999V0202301N00671009001CN0160001N9-00281-00391101641ADDAY181999GA1071+009009089GF107991071081008001999999MD1310191+9999MW1851
0087010300999991952031718004+69700+019017FM-12+002499999V0202301N00511007801CN0200001N9-00281-00501101831ADDAA199000691AY181999GF105991051091008001001001IA1319KA1999M-00221MD1310191+9999MW1151
0073010300999991952031800004+69700+019017FM-12+002499999V0202301N00671007501CN0600001N9-00221-00391101971ADDAY181999GA1061+007509099GF106991061091008001999999MD1310081+9999MW1021
0073010300999991952031803004+69700+019017FM-12+002499999V0202301N00931007501CN0600001N9-00111-00281101921ADDAY181999GA1081+007509089GF108991081081008001999999MD1990051+9999MW1021
0103010300999991952031806004+69700+019017FM-12+002499999V0202301N00931007501CN0600001N9-00111-00221101941ADDAA199000691AY121999GA1061+007509089GF107991061081008001041999IA1319KA1999N-00281MD1210021+9999MW1151
0108010300999991952031809004+69700+019017FM-12+002499999V0202001N00931007501CN0100001N9+00001-00111101981ADDAY181999GA1051+007509089GF108991051081008001041999MD1210041+9999MW1851EQDQ01+000042APCTENQ02+000042APC3  
0073010300999991952031812004+69700+019017FM-12+002499999V0202201N00671007501CN0080001N9+00111+00001102061ADDAY171999GA1071+007509099GF107991071091008001999999MD1110081+9999MW1851
0073010300999991952031815004+69700+019017FM-12+002499999V0202101N00931009001CN0600001N9+00221+00001102051ADDAY181999GA1061+009009099GF106991061091008001001001MD1710011+9999MW1021
0138010300999991952031818004+69700+019017FM-12+002499999V0202301N00671009901CN0600001N9+00221-00111102091ADDAA199000691AY121999GA1061+009909089GF106991061081012501001001IA1209KA1999M+00281MD1210041+9999MW1021EQDQ01+000042APCTENQ02+000042APC3  
0073010300999991952031900004+69700+019017FM-12+002499999V0202501N00671220001CN0600001N9+00221-00391102091ADDAY121999GA1021+012009059GF102991021051012501001001MD1210021+9999MW1011
0073010300999991952031903004+69700+019017FM-12+002499999V0202301N00511012001CN0600001N9+00221-00391102051ADDAY121999GA1071+012009089GF107991071081012501001001MD1990041+9999MW1031
0127010300999991952031906004+69700+019017FM-12+002499999V0202501N00511015001CN0600001N9+00281-00391102051ADDAY121999GA1071+015009059GF107991071051012501999001IA1319KA1999N+00111MD1410001+9999MW1021EQDQ01+000022APCTENQ02    003SCOMCG
0092010300999991952031909004+69700+019017FM-12+002499999V0202301N00671015001CN0600001N9+00281-00281102001ADDAY121999GA1061+015009059GF106991061051012501999001MD1710051+9999MW1011EQDQ01    003SCOMCG
0108010300999991952031912004+69700+019017FM-12+002499999V0202301N00461015001CN0600001N9+00281-00391102001ADDAY121999GA1071+015009059GF107991071051012501999001MD1410001+9999MW1141EQDQ01+000022APCTENQ02    003SCOMCG
0073010300999991952031915004+69700+019017FM-12+002499999V0202501N00571220001CN0600001N9+00391-00281101941ADDAY101999GA1011+015009059GF101991011051012501041001MD1810061+9999MW1011
0111010300999991952031918004+69700+019017FM-12+002499999V0202301N00101220001CN0600001N9+00001-00501101981ADDAY101999GF101991011051017501041001IA1319KA1999M+00501MD1210041+9999MW1021EQDQ01+000042APCTENQ02+000042APC3  
0057010300999991952032000004+69700+019017FM-12+002499999V0202301N00261220001CN0600001N9-00221-00611101911ADDAY101999GF100991001001999999001001MD1810031+9999MW1001
0057010300999991952032003004+69700+019017FM-12+002499999V0202301N00101220001CN0600001N9-00281-00721101811ADDAY101999GF100991001001999999001001MD1610101+9999MW1001
0076010300999991952032006004+69700+019017FM-12+002499999V0202301N00101220001CN0600001N9-00281-00611101721ADDAY101999GF104991001001999999001021IA1319KA1999N-00391MD1710091+9999MW1031
0057010300999991952032009004+69700+019017FM-12+002499999V0202301N00261220001CN0600001N9+00111-00391101701ADDAY101999GF101991001001999999001021MD1610021+9999MW1011
0057010300999991952032012004+69700+019017FM-12+002499999V0201601N00101220001CN0600001N9+00391-00281101671ADDAY101999GF101991001001999999001021MD1810031+9999MW1011
0057010300999991952032015004+69700+019017FM-12+002499999V0201801N00101220001CN0600001N9+00391+99999101621ADDAY101999GF101991001001999999001011MD1810051+9999MW1011
0095010300999991952032018004+69700+019017FM-12+002499999V0209991C00001220001CN0600001N9+00001-00501101621ADDAY101999GF101991001001999999001011IA1319KA1999M+00391MD1410001+9999MW1021EQDQ01+000032APCTEN
0057010300999991952032100004+69700+019017FM-12+002499999V0202501N00101220001CN0600001N9-00281-00781101671ADDAY101999GF100991001001999999001001MD1110021+9999MW1021
0076010300999991952032103004+69700+019017FM-12+002499999V0202501N00101220001CN0600001N9-00281-00781101701ADDAY101999GF101991999001999999041001MD1310031+9999MW1021EQDQ01+000002SCOTLC
