0076010300999991958010100004+69700+019017FM-12+001499999V0202501N00101012301CN0500001N9-00781+99999100081ADDAY121999GF107991071051012501001001MD1210021+9999MW1031EQDQ01+010301APOSP 
0076010300999991958010103004+69700+019017FM-12+001499999V0202701N00101007801CN0500001N9-00671+99999100151ADDAY121999GF108991081051008001999999MD1210071+9999MW1021EQDQ01+010301APOSP 
0102010300999991958010106004+69700+019017FM-12+001499999V0202601N00261004501CN0400001N9-00721+99999100241ADDAY121999GF108991081051004501999999KA1999M-00611KA2999N-00831MD1210091+9999MW1021EQDQ01+011301APOSP 
0076010300999991958010109004+69700+019017FM-12+001499999V0202501N00261004501CN0100001N9-00671+99999100351ADDAY171999GF108991081051004501999999MD1210111+9999MW1711EQDQ01+011301APOSP 
0076010300999991958010112004+69700+019017FM-12+001499999V0202701N00151004501CN0200001N9-00671+99999100461ADDAY181999GF105991051091004501041021MD1110111+9999MW1151EQDQ01+011301APOSP 
0076010300999991958010115004+69700+019017FM-12+001499999V0202501N00101004501CN0100001N9-00561+99999100541ADDAY181999GF108991081091004501999999MD1210081+9999MW1851EQDQ01+011301APOSP 
0113010300999991958010118004+69700+019017FM-12+001499999V0202501N00101004501CN0020001N9-00441+99999100651ADDAA199004091AY181999GF108991081091004501999999KA1999M-00441KA2999N-00781MD1210111+9999MW1851EQDQ01+011301APOSP 
0076010300999991958010200004+69700+019017FM-12+001499999V0202501N00261007801CN0300001N9-00501+99999100891ADDAY181999GF107991071081008001999999MD1210101+9999MW1851EQDQ01+011301APOSP 
0076010300999991958010203004+69700+019017FM-12+001499999V0202301N00261007801CN0400001N9-00561+99999101001ADDAY181999GF106991061081008001001001MD1210111+9999MW1851EQDQ01+011301APOSP 
0043010300999991958010204004+69700+019017FM-12+001499999V0202701N00211007801CN0500001N9+99999+99999101021ADDAY181999GF106991061081008001001001MW1021
0043010300999991958010205004+69700+019017FM-12+001499999V0202501N002119999999N0500001N9+99999+99999101071ADDAY121999GF104991041081008001001001MW1011
0113010300999991958010206004+69700+019017FM-12+001499999V0202601N00261007801CN0450001N9-00561+99999101121ADDAA199006091AY181999GF107991071081008001999999KA1999M-00331KA2999N-00611MD1210121+9999MW1851EQDQ01+011301APOSP 
0043010300999991958010207004+69700+019017FM-12+001499999V0202501N00261007801CN0500001N9+99999+99999101171ADDAY181999GF107991071081008001999999MW1021
0043010300999991958010208004+69700+019017FM-12+001499999V0202301N00261007801CN0500001N9+99999+99999101221ADDAY121999GF107991071081008001999999MW1151
0076010300999991958010209004+69700+019017FM-12+001499999V0202301N00261007801CN0500001N9-00611+99999101261ADDAY181999GF106991061081008001001001MD1210141+9999MW1151EQDQ01+011301APOSP 
0043010300999991958010210004+69700+019017FM-12+001499999V0202301N002619999999N0150001N9+99999+99999101321ADDAY181999GF105991041081008001061021MW1851
0043010300999991958010211004+69700+019017FM-12+001499999V0202501N002619999999N0500001N9+99999+99999101321ADDAY181999GF102991021081008001001021MW1151
0076010300999991958010212004+69700+019017FM-12+001499999V0202501N002619999999N0500001N9-00671+99999101321ADDAY181999GF103991021021004501001021MD1110061+9999MW1261EQDQ01+011301APOSP 
0043010300999991958010213004+69700+019017FM-12+001499999V0202301N002619999999N0500001N9+99999+99999101361ADDAY101999GF104991041081008001001021MW1031
0043010300999991958010214004+69700+019017FM-12+001499999V0202501N00261007801CN0500001N9+99999+99999101401ADDAY111999GF105991051051008001001001MW1031
0076010300999991958010215004+69700+019017FM-12+001499999V0202701N00261007801CN0200001N9-00721+99999101461ADDAY121999GF106991051081008001061021MD1210141+9999MW1851EQDQ01+011301APOSP 
0043010300999991958010216004+69700+019017FM-12+001499999V0202501N00261007801CN0150001N9+99999+99999101551ADDAY181999GF106991051081008001061021MW1851
0043010300999991958010217004+69700+019017FM-12+001499999V0202301N002619999999N0200001N9+99999+99999101621ADDAY181999GF105991041081008001061021MW1851
0113010300999991958010218004+69700+019017FM-12+001499999V0202301N002619999999N0400001N9-00781+99999101641ADDAA199000591AY181999GF103991021081008001061001KA1999M-00561KA2999N-00781MD1210181+9999MW1261EQDQ01+011301APOSP 
0076010300999991958010300004+69700+019017FM-12+001499999V0202701N00101007801CN0500001N9-00781+99999101901ADDAY121999GF106991061081008001061021MD1210121+9999MW1031EQDQ01+011301APOSP 
0076010300999991958010303004+69700+019017FM-12+001499999V0202701N00261007801CN0500001N9-00891+99999102021ADDAY121999GF106991051081008001061021MD1210121+9999MW1021EQDQ01+011301APOSP 
0043010300999991958010304004+69700+019017FM-12+001499999V0202701N002619999999N0500001N9+99999+99999102041ADDAY121999GF104991041081008001041001MW1011
0043010300999991958010305004+69700+019017FM-12+001499999V0202501N002619999999N0500001N9+99999+99999102071ADDAY111999GF103991031081008001041001MW1011
0102010300999991958010306004+69700+019017FM-12+001499999V0202501N002619999999N0500001N9-00891+99999102091ADDAY101999GF103991031081008001001001KA1999M-00671KA2999N-00941MD1210071+9999MW1021EQDQ01+011301APOSP 
0043010300999991958010307004+69700+019017FM-12+001499999V0202501N002619999999N0500001N9+99999+99999102151ADDAY101999GF103991031081008001001001MW1021
0043010300999991958010308004+69700+019017FM-12+001499999V0202501N002619999999N0500001N9+99999+99999102211ADDAY101999GF105991031081008001041021MW1031
0076010300999991958010309004+69700+019017FM-12+001499999V0202501N002619999999N0500001N9-00831+99999102291ADDAY121999GF104991031081008001041021MD1210201+9999MW1011EQDQ01+011301APOSP 
0043010300999991958010310004+69700+019017FM-12+001499999V0202501N003119999999N0500001N9+99999+99999102331ADDAY101999GF103991021081008001001021MW1011
0043010300999991958010311004+69700+019017FM-12+001499999V0202301N003119999999N0500001N9+99999+99999102391ADDAY111999GF105991041081008001001021MW1151
0076010300999991958010312004+69700+019017FM-12+001499999V0202501N00311007801CN0300001N9-00831+99999102421ADDAY181999GF106991061081008001001021MD1210131+9999MW1851EQDQ01+011301APOSP 
0043010300999991958010313004+69700+019017FM-12+001499999V0202301N00511007801CN0500001N9+99999+99999102411ADDAY181999GF105991051081008001001021MW1011
0043010300999991958010314004+69700+019017FM-12+001499999V0202501N00511007801CN0500001N9+99999+99999102431ADDAY121999GF107991061081008001001021MW1031
0076010300999991958010315004+69700+019017FM-12+001499999V0202501N004619999999N0500001N9-00781+99999102461ADDAY181999GF106991041081008001061021MD1210041+9999MW1011EQDQ01+011301APOSP 
0043010300999991958010316004+69700+019017FM-12+001499999V0202301N004119999999N0500001N9+99999+99999102481ADDAY121999GF106991041081008001061021MW1021
0043010300999991958010317004+69700+019017FM-12+001499999V0202301N006219999999N0500001N9+99999+99999102481ADDAY111999GF102991011081008001061001MW1011
0113010300999991958010318004+69700+019017FM-12+001499999V0202501N005119999999N0500001N9-00781+99999102491ADDAA199000691AY181999GF102991011051008001061001KA1999M-00721KA2999N-00941MD1210031+9999MW1021EQDQ01+011311APOSP 
0076010300999991958010400004+69700+019017FM-12+001499999V0202501N008719999999N0600001N9-00671+99999102401ADDAY111999GF101991011051012501041001MD1810101+9999MW1011EQDQ01+012311APOSP 
0092010300999991958010403004+69700+019017FM-12+001499999V0202301N00871220001CN0600001N9-00611+99999102281ADDAY101999GF101991999001999999041001MD1710121+9999MW1021EQDQ01+000002SCOTLCQ02+012311APOSP 
0062010300999991958010404004+69700+019017FM-12+001499999V0202301N00771220001CN0600001N9+99999+99999102241ADDAY101999GF101991999001999999041001MW1021EQDQ01+000002SCOTLC
0043010300999991958010405004+69700+019017FM-12+001499999V0202301N00871220001CN0600001N9+99999+99999102181ADDAY101999GF101991001001999999001021MW1021
0102010300999991958010406004+69700+019017FM-12+001499999V0202301N00931220001CN0600001N9-00561+99999102171ADDAY101999GF101991001001999999001021KA1999M-00561KA2999N-00781MD1710111+9999MW1021EQDQ01+012311APOSP 
0043010300999991958010407004+69700+019017FM-12+001499999V0202301N00771220001CN0600001N9+99999+99999102141ADDAY101999GF101991001001999999001021MW1021
0043010300999991958010408004+69700+019017FM-12+001499999V0202301N009319999999N0600001N9+99999+99999102081ADDAY101999GF102991011051017501001021MW1031
0076010300999991958010409004+69700+019017FM-12+001499999V0202301N010319999999N0600001N9-00501+99999102051ADDAY101999GF102991011051012501001021MD1710121+9999MW1031EQDQ01+012321APOSP 
0043010300999991958010410004+69700+019017FM-12+001499999V0202301N009319999999N0600001N9+99999+99999102061ADDAY101999GF102991011051012501001021MW1021
0043010300999991958010411004+69700+019017FM-12+001499999V0202301N009319999999N0600001N9+99999+99999101981ADDAY101999GF102991011051012501001021MW1021
0076010300999991958010412004+69700+019017FM-12+001499999V0202301N009319999999N0600001N9-00441+99999101951ADDAY101999GF101991011051012501001021MD1710101+9999MW1011EQDQ01+012321APOSP 
0043010300999991958010413004+69700+019017FM-12+001499999V0202301N007719999999N0600001N9+99999+99999101901ADDAY101999GF101991011051012501001021MW1021
0043010300999991958010414004+69700+019017FM-12+001499999V0202301N006719999999N0600001N9+99999+99999101851ADDAY101999GF101991011051012501001021MW1021
0076010300999991958010415004+69700+019017FM-12+001499999V0202301N007719999999N0600001N9-00441+99999101851ADDAY101999GF104991011051012501001071MD1710101+9999MW1031EQDQ01+012311APOSP 
0043010300999991958010416004+69700+019017FM-12+001499999V0202301N006719999999N0600001N9+99999+99999101851ADDAY111999GF104991011051012501001071MW1021
0043010300999991958010417004+69700+019017FM-12+001499999V0202301N006719999999N0600001N9+99999+99999101841ADDAY111999GF103991011051012501001071MW1011
0102010300999991958010418004+69700+019017FM-12+001499999V0202301N006719999999N0600001N9-00501+99999101801ADDAY111999GF103991011051012501001021KA1999M-00441KA2999N-00611MD1710051+9999MW1021EQDQ01+012311APOSP 
0076010300999991958010500004+69700+019017FM-12+001499999V0202301N005119999999N0600001N9-00671+99999101741ADDAY101999GF101991011051012501041001MD1410001+9999MW1011EQDQ01+011311APOSP 
0076010300999991958010503004+69700+019017FM-12+001499999V0202301N005119999999N0600001N9-00721+99999101691ADDAY101999GF101991011051012501041001MD1710051+9999MW1021EQDQ01+011311APOSP 
0102010300999991958010506004+69700+019017FM-12+001499999V0202501N00361220001CN0600001N9-00831+99999101541ADDAY101999GF100991001001999999001001KA1999M-00501KA2999N-00941MD1810151+9999MW1011EQDQ01+011311APOSP 
0076010300999991958010509004+69700+019017FM-12+001499999V0202501N00261220001CN0600001N9-01001+99999101401ADDAY101999GF101991001001999999001051MD1710141+9999MW1031EQDQ01+011301APOSP 
0076010300999991958010512004+69700+019017FM-12+001499999V0202401N00101220001CN0600001N9-01061+99999101241ADDAY101999GF102991001001999999001051MD1710161+9999MW1031EQDQ01+011301APOSP 
0076010300999991958010515004+69700+019017FM-12+001499999V0202501N00671220001CN0600001N9-00671+99999101181ADDAY101999GF102991001001999999001051MD1610061+9999MW1021EQDQ01+012311APOSP 
0102010300999991958010518004+69700+019017FM-12+001499999V0202501N00771220001CN0600001N9-00671+99999101031ADDAY101999GF101991001001999999001051KA1999M-00561KA2999N-01171MD1710151+9999MW1011EQDQ01+012311APOSP 
0076010300999991958010600004+69700+019017FM-12+001499999V0202001N00771220001CN0600001N9-00441+99999100891ADDAY101999GF100991001001999999001001MD1610061+9999MW1011EQDQ01+012311APOSP 
0076010300999991958010603004+69700+019017FM-12+001499999V0202001N01131220001CN0600001N9-00441+99999100771ADDAY131999GF100991001001999999001001MD1510121+9999MW1021EQDQ01+013331APOSP 
0043010300999991958010604004+69700+019017FM-12+001499999V0202501N00771220001CN0600001N9+99999+99999100831ADDAY101999GF100991001001999999001001MW1021
0043010300999991958010605004+69700+019017FM-12+001499999V0202301N01031220001CN0600001N9+99999+99999100801ADDAY101999GF100991001001999999001001MW1021
0102010300999991958010606004+69700+019017FM-12+001499999V0202301N01031220001CN0600001N9-00391+99999100771ADDAY101999GF100991001001999999001001KA1999M-00281KA2999N-00671MD1010001+9999MW1021EQDQ01+013331APOSP 
0043010300999991958010607004+69700+019017FM-12+001499999V0202301N00771220001CN0600001N9+99999+99999100771ADDAY101999GF100991001001999999001001MW1021
0043010300999991958010608004+69700+019017FM-12+001499999V0202501N00771220001CN0600001N9+99999+99999100781ADDAY101999GF100991001001999999001001MW1021
0076010300999991958010609004+69700+019017FM-12+001499999V0202001N01291220001CN0600001N9-00441+99999100711ADDAY101999GF100991001001999999001001MD1710061+9999MW1021EQDQ01+013321APOSP 
0043010300999991958010610004+69700+019017FM-12+001499999V0202001N00871220001CN0600001N9+99999+99999100791ADDAY101999GF101991001001999999001021MW1021
0043010300999991958010611004+69700+019017FM-12+001499999V0202001N00871220001CN0600001N9+99999+99999100821ADDAY101999GF101991001001999999001021MW1021
0076010300999991958010612004+69700+019017FM-12+001499999V0202501N00771220001CN0600001N9-00391+99999100881ADDAY101999GF101991001001999999001021MD1310171+9999MW1021EQDQ01+012321APOSP 
0043010300999991958010613004+69700+019017FM-12+001499999V0202001N01231220001CN0600001N9+99999+99999100861ADDAY101999GF101991001001999999001021MW1021
0043010300999991958010614004+69700+019017FM-12+001499999V0202301N00931220001CN0600001N9+99999+99999100921ADDAY101999GF101991001001999999001021MW1021
0076010300999991958010615004+69700+019017FM-12+001499999V0202501N00771220001CN0600001N9-00561+99999100951ADDAY101999GF100991001001999999001001MD1110071+9999MW1021EQDQ01+012331APOSP 
0043010300999991958010616004+69700+019017FM-12+001499999V0202501N00771220001CN0600001N9+99999+99999100911ADDAY101999GF100991001001999999001001MW1021
0043010300999991958010617004+69700+019017FM-12+001499999V0202301N00931220001CN0600001N9+99999+99999100961ADDAY101999GF100991001001999999001001MW1021
0102010300999991958010618004+69700+019017FM-12+001499999V0202301N00771220001CN0600001N9-00441+99999101011ADDAY101999GF100991001001999999001001KA1999M-00221KA2999N-00611MD1210051+9999MW1021EQDQ01+012331APOSP 
0076010300999991958010700004+69700+019017FM-12+001499999V0202501N00771220001CN0600001N9-00561+99999101061ADDAY101999GF100991001001999999001001MD1210091+9999MW1021EQDQ01+012321APOSP 
0076010300999991958010703004+69700+019017FM-12+001499999V0209991C00001220001CN0600001N9-00671+99999101121ADDAY101999GF100991001001999999001001MD1210061+9999MW1021EQDQ01+010311APOSP 
0043010300999991958010704004+69700+019017FM-12+001499999V0200901N00101220001CN0600001N9+99999+99999101141ADDAY101999GF100991001001999999001001MW1021
0043010300999991958010705004+69700+019017FM-12+001499999V0203001N00261220001CN0600001N9+99999+99999101161ADDAY101999GF100991001001999999001001MW1021
0102010300999991958010706004+69700+019017FM-12+001499999V0202901N00411220001CN0600001N9-00721+99999101171ADDAY101999GF100991001001999999001001KA1999M-00391KA2999N-00831MD1210051+9999MW1021EQDQ01+011311APOSP 
0043010300999991958010707004+69700+019017FM-12+001499999V0202501N00311220001CN0600001N9+99999+99999101191ADDAY101999GF100991001001999999001001MW1021
0043010300999991958010708004+69700+019017FM-12+001499999V0202501N00151220001CN0600001N9+99999+99999101231ADDAY101999GF101991001001999999001011MW1031
0076010300999991958010709004+69700+019017FM-12+001499999V0202301N00261220001CN0600001N9-00781+99999101281ADDAY101999GF101991001001999999001011MD1210111+9999MW1021EQDQ01+011311APOSP 
0043010300999991958010710004+69700+019017FM-12+001499999V0202301N00261220001CN0600001N9+99999+99999101281ADDAY101999GF102991001001999999001021MW1021
0043010300999991958010711004+69700+019017FM-12+001499999V0202301N00261220001CN0600001N9+99999+99999101281ADDAY101999GF102991001001999999001011MW1021
0076010300999991958010712004+69700+019017FM-12+001499999V0202501N00511220001CN0600001N9-00721+99999101301ADDAY101999GF102991001001999999041011MD1210021+9999MW1021EQDQ01+011311APOSP 
0043010300999991958010713004+69700+019017FM-12+001499999V0202501N00511220001CN0600001N9+99999+99999101311ADDAY101999GF102991001001999999001011MW1021
0043010300999991958010714004+69700+019017FM-12+001499999V0202501N00461220001CN0600001N9+99999+99999101311ADDAY101999GF102991001001999999001011MW1021
0076010300999991958010715004+69700+019017FM-12+001499999V0202501N00461220001CN0600001N9-00891+99999101331ADDAY101999GF101991001001999999001011MD1210031+9999MW1011EQDQ01+011301APOSP 
0043010300999991958010716004+69700+019017FM-12+001499999V0202501N00261220001CN0600001N9+99999+99999101351ADDAY101999GF101991001001999999001011MW1021
0043010300999991958010717004+69700+019017FM-12+001499999V0202501N00461220001CN0600001N9+99999+99999101351ADDAY101999GF101991001001999999001011MW1021
0102010300999991958010718004+69700+019017FM-12+001499999V0202301N00311220001CN0600001N9-00891+99999101351ADDAY101999GF101991001001999999001011KA1999M-00671KA2999N-00941MD1210021+9999MW1021EQDQ01+011311APOSP 
0076010300999991958010800004+69700+019017FM-12+001499999V0202501N00101220001CN0600001N9-00941+99999101321ADDAY101999GF100991001001999999001001MD1410001+9999MW1021EQDQ01+010301APOSP 
0076010300999991958010803004+69700+019017FM-12+001499999V0202501N00101220001CN0600001N9-00941+99999101251ADDAY101999GF100991001001999999001001MD1810071+9999MW1021EQDQ01+010301APOSP 
0043010300999991958010804004+69700+019017FM-12+001499999V0209991C00001220001CN0600001N9+99999+99999101251ADDAY101999GF100991001001999999001001MW1021
0043010300999991958010805004+69700+019017FM-12+001499999V0209991C00001220001CN0600001N9+99999+99999101251ADDAY101999GF100991001001999999001001MW1021
0102010300999991958010806004+69700+019017FM-12+001499999V0209991C00001220001CN0600001N9-00941+99999101191ADDAY101999GF103991001001999999041061KA1999M-00831KA2999N-01061MD1710061+9999MW1031EQDQ01+010301APOSP 
0043010300999991958010807004+69700+019017FM-12+001499999V0209991C00001220001CN0600001N9+99999+99999101171ADDAY101999GF107991001001999999041071MW1031
0043010300999991958010808004+69700+019017FM-12+001499999V0209991C00001024001CN0600001N9+99999+99999101101ADDAY121999GF108991071001999999011071MW1031
0076010300999991958010809004+69700+019017FM-12+001499999V0209991C00001024001CN0600001N9-00941+99999101091ADDAY121999GF108991071001999999011071MD1710101+9999MW1021EQDQ01+010301APOSP 
0043010300999991958010810004+69700+019017FM-12+001499999V0209991C00001024001CN0600001N9+99999+99999101021ADDAY121999GF107991061001999999011071MW1011
0043010300999991958010811004+69700+019017FM-12+001499999V0209991C00001024001CN0600001N9+99999+99999100981ADDAY121999GF107991061001999999011071MW1021
0076010300999991958010812004+69700+019017FM-12+001499999V0202501N00101024001CN0600001N9-00941+99999100921ADDAY121999GF107991061001999999011071MD1710171+9999MW1021EQDQ01+011301APOSP 
0043010300999991958010813004+69700+019017FM-12+001499999V0202501N00101024001CN0600001N9+99999+99999100801ADDAY121999GF108991081001999999011999MW1031
0043010300999991958010814004+69700+019017FM-12+001499999V0202501N00101024001CN0600001N9+99999+99999100741ADDAY121999GF108991081001999999011999MW1021
0076010300999991958010815004+69700+019017FM-12+001499999V0202501N00101024001CN0600001N9-00891+99999100711ADDAY121999GF107991071001999999011001MD1710211+9999MW1011EQDQ01+011301APOSP 
0043010300999991958010816004+69700+019017FM-12+001499999V0202301N00261024001CN0600001N9+99999+99999100601ADDAY121999GF107991071001999999011001MW1021
0043010300999991958010817004+69700+019017FM-12+001499999V0202301N00461024001CN0600001N9+99999+99999100481ADDAY121999GF107991071001999999011001MW1021
0102010300999991958010818004+69700+019017FM-12+001499999V0202501N00511024001CN0600001N9-00831+99999100401ADDAY121999GF107991071001999999011001KA1999M-00831KA2999N-01001MD1710311+9999MW1021EQDQ01+011301APOSP 
0092010300999991958010900004+69700+019017FM-12+001499999V0202301N00621220001CN0600001N9-01061+99999099981ADDAY101999GF101991999001999999041001MD1810201+9999MW1011EQDQ01+000002SCOTLCQ02+012311APOSP 
0092010300999991958010903004+69700+019017FM-12+001499999V0202501N00461220001CN0600001N9-01061+99999099821ADDAY101999GF101991999001999999041001MD1710161+9999MW1021EQDQ01+000002SCOTLCQ02+012311APOSP 
0062010300999991958010904004+69700+019017FM-12+001499999V0202301N00671220001CN0600001N9+99999+99999099751ADDAY101999GF101991999001999999041001MW1021EQDQ01+000002SCOTLC
0043010300999991958010905004+69700+019017FM-12+001499999V0202501N00671220001CN0600001N9+99999+99999099741ADDAY101999GF100991001001999999001001MW1011
0102010300999991958010906004+69700+019017FM-12+001499999V0202301N00671220001CN0600001N9-01221+99999099661ADDAY101999GF100991001001999999001001KA1999M-00831KA2999N-01281MD1710161+9999MW1021EQDQ01+012311APOSP 
0043010300999991958010907004+69700+019017FM-12+001499999V0202301N00671220001CN0600001N9+99999+99999099621ADDAY101999GF100991001001999999001001MW1021
0043010300999991958010908004+69700+019017FM-12+001499999V0202001N00771220001CN0600001N9+99999+99999099571ADDAY101999GF100991001001999999001001MW1021
0076010300999991958010909004+69700+019017FM-12+001499999V0202301N00671220001CN0600001N9-01331+99999099531ADDAY101999GF100991001001999999001001MD1710131+9999MW1021EQDQ01+012311APOSP 
0043010300999991958010910004+69700+019017FM-12+001499999V0202401N00671220001CN0600001N9+99999+99999099451ADDAY101999GF101991001001999999001021MW1031
0043010300999991958010911004+69700+019017FM-12+001499999V0202401N00511220001CN0600001N9+99999+99999099421ADDAY101999GF101991001001999999001021MW1031
0076010300999991958010912004+69700+019017FM-12+001499999V0202301N00671220001CN0600001N9-01281+99999099281ADDAY101999GF101991001001999999041021MD1810251+9999MW1031EQDQ01+012311APOSP 
0043010300999991958010913004+69700+019017FM-12+001499999V0202501N00461220001CN0600001N9+99999+99999099241ADDAY101999GF101991001001999999001021MW1011
0043010300999991958010914004+69700+019017FM-12+001499999V0201801N00261220001CN0600001N9+99999+99999099141ADDAY101999GF101991001001999999001021MW1021
0076010300999991958010915004+69700+019017FM-12+001499999V0202301N00511220001CN0600001N9-01441+99999099041ADDAY101999GF100991001001999999001001MD1710241+9999MW1011EQDQ01+011311APOSP 
0043010300999991958010916004+69700+019017FM-12+001499999V0202501N00461220001CN0600001N9+99999+99999098951ADDAY101999GF101991001001999999001021MW1031
0043010300999991958010917004+69700+019017FM-12+001499999V0202501N00461220001CN0600001N9+99999+99999098861ADDAY101999GF101991001001999999001021MW1021
0102010300999991958010918004+69700+019017FM-12+001499999V0202301N00511220001CN0600001N9-01441+99999098811ADDAY101999GF101991001001999999001021KA1999M-01171KA2999N-01501MD1710231+9999MW1031EQDQ01+011311APOSP 
0092010300999991958011000004+69700+019017FM-12+001499999V0202701N00311220001CN0600001N9-01441+99999098381ADDAY101999GF101991999001999999041001MD1710181+9999MW1031EQDQ01+000002SCOTLCQ02+011311APOSP 
0076010300999991958011003004+69700+019017FM-12+001499999V0202701N001019999999N0600001N9-01331+99999098161ADDAY101999GF104991011051012501041021MD1710221+9999MW1031EQDQ01+010301APOSP 
0043010300999991958011004004+69700+019017FM-12+001499999V0202301N00671007801CN0200001N9+99999+99999098171ADDAY111999GF108991061081008001041021MW1851
0043010300999991958011005004+69700+019017FM-12+001499999V0202301N00511007801CN0300001N9+99999+99999098181ADDAY181999GF108991081081008001999999MW1851
0113010300999991958011006004+69700+019017FM-12+001499999V0202301N00511007801CN0300001N9-01061+99999098171ADDAA199000391AY181999GF108991081081008001999999KA1999M-01061KA2999N-01561MD1210011+9999MW1851EQDQ01+011311APOSP 
0043010300999991958011007004+69700+019017FM-12+001499999V0202301N00821007801CN0400001N9+99999+99999098181ADDAY181999GF108991081081008001999999MW1151
0043010300999991958011008004+69700+019017FM-12+001499999V0202301N006719999999N0500001N9+99999+99999098231ADDAY111999GF102991021081008001001001MW1011
0076010300999991958011009004+69700+019017FM-12+001499999V0202301N008219999999N0500001N9-00831+99999098271ADDAY181999GF103991031081008001041001MD1210101+9999MW1031EQDQ01+012311APOSP 
0043010300999991958011010004+69700+019017FM-12+001499999V0202501N008219999999N0500001N9+99999+99999098371ADDAY121999GF104991031081008001041001MW1031
0043010300999991958011011004+69700+019017FM-12+001499999V0202501N006719999999N0500001N9+99999+99999098431ADDAY121999GF107991031081008001071001MW1031
0076010300999991958011012004+69700+019017FM-12+001499999V0202301N007719999999N0200001N9-00561+99999098441ADDAY181999GF108991031081008001071999MD1110171+9999MW1701EQDQ01+012311APOSP 
0043010300999991958011013004+69700+019017FM-12+001499999V0202301N006719999999N0050001N9+99999+99999098471ADDAY171999GF108991031051008001021999MW1701
0043010300999991958011014004+69700+019017FM-12+001499999V0202301N006719999999N0100001N9+99999+99999098471ADDAY171999GF108991031051008001021999MW1701
0076010300999991958011015004+69700+019017FM-12+001499999V0202301N006719999999N0500001N9-00441+99999098481ADDAY171999GF105991021051008001041021MD1210041+9999MW1011EQDQ01+012311APOSP 
0043010300999991958011016004+69700+019017FM-12+001499999V0202301N006719999999N0500001N9+99999+99999098491ADDAY121999GF104991021051008001041021MW1701
0043010300999991958011017004+69700+019017FM-12+001499999V0202301N006719999999N0500001N9+99999+99999098501ADDAY171999GF104991021051012501041021MW1021
0113010300999991958011018004+69700+019017FM-12+001499999V0202301N006719999999N0500001N9-00501+99999098481ADDAA199000691AY171999GF104991021051012501041021KA1999M-00391KA2999N-01061MD1010001+9999MW1021EQDQ01+012311APOSP 
0076010300999991958011100004+69700+019017FM-12+001499999V0202301N005119999999N0600001N9-00781+99999098661ADDAY101999GF102991021051012501001001MD1210121+9999MW1021EQDQ01+011311APOSP 
0076010300999991958011103004+69700+019017FM-12+001499999V0203601N002619999999N0600001N9-00831+99999098651ADDAY101999GF101991011051012501001001MD1810011+9999MW1011EQDQ01+011311APOSP 
0043010300999991958011104004+69700+019017FM-12+001499999V0203401N002619999999N0600001N9+99999+99999098581ADDAY101999GF102991011051012501071001MW1031
0043010300999991958011105004+69700+019017FM-12+001499999V0200901N001019999999N0600001N9+99999+99999098541ADDAY101999GF102991011051012501071001MW1021
0102010300999991958011106004+69700+019017FM-12+001499999V0202301N002619999999N0600001N9-00611+99999098501ADDAY101999GF103991011051012501071001KA1999M-00501KA2999N-00831MD1710151+9999MW1031EQDQ01+011311APOSP 
0043010300999991958011107004+69700+019017FM-12+001499999V0202401N004619999999N0600001N9+99999+99999098451ADDAY101999GF103991011051012501071021MW1021
0043010300999991958011108004+69700+019017FM-12+001499999V0202301N006719999999N0600001N9+99999+99999098441ADDAY111999GF105991011051012501071001MW1031
0076010300999991958011109004+69700+019017FM-12+001499999V0202401N006219999999N0600001N9-00441+99999098481ADDAY111999GF107991011051012501011001MD1510021+9999MW1031EQDQ01+012311APOSP 
0043010300999991958011110004+69700+019017FM-12+001499999V0202101N00771024001CN0600001N9+99999+99999098441ADDAY121999GF107991071001999999011001MW1031
0043010300999991958011111004+69700+019017FM-12+001499999V0202101N00931021001CN0600001N9+99999+99999098351ADDAY121999GF108991081001022501021999MW1031
0076010300999991958011112004+69700+019017FM-12+001499999V0202101N01031021001CN0600001N9-00281+99999098371ADDAY121999GF108991081001022501021999MD1510111+9999MW1021EQDQ01+012321APOSP 
0043010300999991958011113004+69700+019017FM-12+001499999V0202301N010319999999N0600001N9+99999+99999098401ADDAY121999GF107991041051017501071001MW1011
0043010300999991958011114004+69700+019017FM-12+001499999V0202301N009319999999N0600001N9+99999+99999098411ADDAY121999GF107991041051017501071001MW1021
0076010300999991958011115004+69700+019017FM-12+001499999V0202301N009319999999N0600001N9-00221+99999098501ADDAY121999GF107991041051012501071001MD1210131+9999MW1021EQDQ01+012331APOSP 
0043010300999991958011116004+69700+019017FM-12+001499999V0202301N00931012301CN0600001N9+99999+99999098501ADDAY121999GF107991051051012501071001MW1021
0043010300999991958011117004+69700+019017FM-12+001499999V0202301N00931012301CN0600001N9+99999+99999098511ADDAY121999GF107991051051012501071001MW1021
0102010300999991958011118004+69700+019017FM-12+001499999V0202301N006719999999N0600001N9-00171+99999098591ADDAY121999GF108991041051012501071999KA1999M-00061KA2999N-00671MD1310091+9999MW1031EQDQ01+012331APOSP 
0076010300999991958011200004+69700+019017FM-12+001499999V0202301N008719999999N0600001N9-00221+99999099111ADDAY121999GF108991011051012501071999MD1210271+9999MW1021EQDQ01+012321APOSP 
0076010300999991958011203004+69700+019017FM-12+001499999V0202401N010319999999N0600001N9-00171+99999099311ADDAY121999GF108991011051012501071999MD1210201+9999MW1021EQDQ01+012321APOSP 
0102010300999991958011206004+69700+019017FM-12+001499999V0202501N010319999999N0600001N9-00281+99999099571ADDAY121999GF107991011051012501071001KA1999M-00171KA2999N-00391MD1210261+9999MW1011EQDQ01+012321APOSP 
0076010300999991958011209004+69700+019017FM-12+001499999V0202501N00931012301CN0600001N9-00221+99999099911ADDAY121999GF106991051051012501071011MD1210341+9999MW1011EQDQ01+012321APOSP 
0076010300999991958011212004+69700+019017FM-12+001499999V0202501N00671012301CN0600001N9-00221+99999100251ADDAY121999GF106991051051012501071011MD1210341+9999MW1011EQDQ01+012321APOSP 
0076010300999991958011215004+69700+019017FM-12+001499999V0202501N006719999999N0600001N9-00171+99999100391ADDAY111999GF104991041051012501041001MD1210141+9999MW1011EQDQ01+012311APOSP 
0102010300999991958011218004+69700+019017FM-12+001499999V0202501N00671220001CN0600001N9-00061+99999100511ADDAY111999GF100991001001999999001001KA1999M+00001KA2999N-00331MD1210121+9999MW1011EQDQ01+012311APOSP 
0076010300999991958011300004+69700+019017FM-12+001499999V0202301N009319999999N0600001N9-00061+99999100681ADDAY101999GF101991011051012501001001MD1210111+9999MW1031EQDQ01+012331APOSP 
0076010300999991958011303004+69700+019017FM-12+001499999V0202501N00671021001CN0600001N9+00001+99999100791ADDAY101999GF108991081001022501021999MD1210111+9999MW1031EQDQ01+012321APOSP 
0043010300999991958011304004+69700+019017FM-12+001499999V0202301N00771021001CN0600001N9+99999+99999100841ADDAY121999GF108991081001022501021999MW1021
0043010300999991958011305004+69700+019017FM-12+001499999V0202001N00771012301CN0300001N9+99999+99999100901ADDAY121999GF108991081051012501999999MW1701
0113010300999991958011306004+69700+019017FM-12+001499999V0202001N00931007801CN0100001N9-00061+99999100941ADDAA199000691AY171999GF108991081051008001999999KA1999M+00111KA2999N-00061MD1210151+9999MW1701EQDQ01+012321APOSP 
0043010300999991958011307004+69700+019017FM-12+001499999V0202301N00931007801CN0100001N9+99999+99999100961ADDAY171999GF108991081051008001999999MW1701
0043010300999991958011308004+69700+019017FM-12+001499999V0202301N00771007801CN0200001N9+99999+99999101031ADDAY171999GF107991071051008001001001MW1151
0092010300999991958011309004+69700+019017FM-12+001499999V0202301N00671007801CN0300001N9-00061+99999101131ADDAY121999GF107991999051008001001001MD1210191+9999MW1151EQDQ01+000062SCOTLCQ02+012311APOSP 
0043010300999991958011310004+69700+019017FM-12+001499999V0202301N00671007801CN0400001N9+99999+99999101221ADDAY171999GF108991081051008001999999MW1031
0043010300999991958011311004+69700+019017FM-12+001499999V0202301N00671007801CN0400001N9+99999+99999101241ADDAY121999GF107991071051008001001001MW1011
0076010300999991958011312004+69700+019017FM-12+001499999V0202301N00671007801CN0400001N9+00001+99999101331ADDAY171999GF106991061051008001001001MD1210201+9999MW1011EQDQ01+012311APOSP 
0043010300999991958011313004+69700+019017FM-12+001499999V0202301N00671007801CN0300001N9+99999+99999101411ADDAY181999GF107991071081008001001001MW1851
0043010300999991958011314004+69700+019017FM-12+001499999V0202301N00671007801CN0400001N9+99999+99999101461ADDAY181999GF107991071081008001001001MW1151
0076010300999991958011315004+69700+019017FM-12+001499999V0202301N00671007801CN0350001N9-00061+99999101471ADDAY181999GF106991061081008001001001MD1210141+9999MW1851EQDQ01+012311APOSP 
0043010300999991958011316004+69700+019017FM-12+001499999V0202301N00671007801CN0400001N9+99999+99999101551ADDAY181999GF107991071081008001001001MW1021
0043010300999991958011317004+69700+019017FM-12+001499999V0202101N00671007801CN0050001N9+99999+99999101581ADDAY181999GF108991081081008001999999MW1851
0113010300999991958011318004+69700+019017FM-12+001499999V0202301N00671007801CN0350001N9+00111+99999101601ADDAA199000691AY181999GF108991081081008001999999KA1999M+00111KA2999N-00281MD1210131+9999MW1851EQDQ01+012311APOSP 
0076010300999991958011400004+69700+019017FM-12+001499999V0202001N00821007801CN0500001N9+00171+99999101451ADDAY181999GF107991061081008001041011MD1810121+9999MW1031EQDQ01+012311APOSP 
0076010300999991958011403004+69700+019017FM-12+001499999V0202301N00771007801CN0500001N9+00221+99999101141ADDAY121999GF108991071051008001021999MD1710311+9999MW1031EQDQ01+012321APOSP 
0043010300999991958011404004+69700+019017FM-12+001499999V0202301N00771007801CN0500001N9+99999+99999101031ADDAY121999GF108991071051008001021999MW1021
0043010300999991958011405004+69700+019017FM-12+001499999V0202001N01231007801CN0500001N9+99999+99999100921ADDAY121999GF108991071051008001021999MW1021
0113010300999991958011406004+69700+019017FM-12+001499999V0202001N01181007801CN0300001N9+00331+99999100811ADDAA199000691AY121999GF108991081051008001999999KA1999M+00331KA2999N+00061MD1710331+9999MW1681EQDQ01+013331APOSP 
0043010300999991958011407004+69700+019017FM-12+001499999V0202001N01181007801CN0400001N9+99999+99999100721ADDAY171999GF108991081051008001999999MW1021
0043010300999991958011408004+69700+019017FM-12+001499999V0202001N01441007801CN0250001N9+99999+99999100591ADDAY121999GF108991081051008001999999MW1601
0076010300999991958011409004+69700+019017FM-12+001499999V0202301N01231004501CN0200001N9+00331+99999100521ADDAY161999GF108991081051004501999999MD1710291+9999MW1601EQDQ01+013341APOSP 
0043010300999991958011410004+69700+019017FM-12+001499999V0202001N01231004501CN0250001N9+99999+99999100491ADDAY161999GF108991081051004501999999MW1601
0043010300999991958011411004+69700+019017FM-12+001499999V0202301N00931004501CN0250001N9+99999+99999100381ADDAY161999GF108991081051004501999999MW1611
0076010300999991958011412004+69700+019017FM-12+001499999V0202301N01031007801CN0300001N9+00331+99999100331ADDAY171999GF108991081051008001999999MD1710191+9999MW1611EQDQ01+012341APOSP 
0062010300999991958011413004+69700+019017FM-12+001499999V0202501N01031007801CN0500001N9+99999+99999100181ADDAY161999GF107991999051008001001001MW1011EQDQ01+000062SCOTLC
0043010300999991958011414004+69700+019017FM-12+001499999V0202301N00771007801CN0300001N9+99999+99999100161ADDAY121999GF108991081051008001999999MW1601
0076010300999991958011415004+69700+019017FM-12+001499999V0202301N00931007801CN0300001N9+00391+99999100191ADDAY161999GF108991081051008001999999MD1510141+9999MW1601EQDQ01+012331APOSP 
0043010300999991958011416004+69700+019017FM-12+001499999V0202301N00771007801CN0300001N9+99999+99999100211ADDAY161999GF108991081051008001999999MW1151
0043010300999991958011417004+69700+019017FM-12+001499999V0202301N00771007801CN0250001N9+99999+99999100251ADDAY161999GF108991081051008001999999MW1601
0113010300999991958011418004+69700+019017FM-12+001499999V0202301N00931007801CN0300001N9+00331+99999100311ADDAA199000591AY161999GF108991081051008001999999KA1999M+00561KA2999N+00221MD1210131+9999MW1601EQDQ01+012331APOSP 
0076010300999991958011500004+69700+019017FM-12+001499999V0202301N00461007801CN0250001N9+00171+99999100721ADDAY181999GF108991081081008001999999MD1210241+9999MW1851EQDQ01+011311APOSP 
0076010300999991958011503004+69700+019017FM-12+001499999V0202101N005119999999N0400001N9+00001+99999100981ADDAY181999GF103991031091008001001001MD1210261+9999MW1011EQDQ01+011311APOSP 
0043010300999991958011504004+69700+019017FM-12+001499999V0202301N00311007801CN0400001N9+99999+99999101041ADDAY181999GF105991051091008001001001MW1031
0043010300999991958011505004+69700+019017FM-12+001499999V0202501N004619999999N0400001N9+99999+99999101051ADDAY111999GF103991031081008001001001MW1011
0113010300999991958011506004+69700+019017FM-12+001499999V0202501N00311007801CN0500001N9-00061+99999101051ADDAA199005091AY181999GF106991061081008001999999KA1999M+00331KA2999N-00111MD1110071+9999MW1031EQDQ01+011311APOSP 
0043010300999991958011507004+69700+019017FM-12+001499999V0202301N00931007801CN0250001N9+99999+99999101011ADDAY181999GF107991071081008001999999MW1851
0043010300999991958011508004+69700+019017FM-12+001499999V0202301N00671000601CN0008001N9+99999+99999101081ADDAY181999GF109991091999000751999999MW1861
0076010300999991958011509004+69700+019017FM-12+001499999V0202301N00771000601CN0006001N9+00001+99999101041ADDAY181999GF109991091999000751999999MD1710011+9999MW1861EQDQ01+011311APOSP 
0043010300999991958011510004+69700+019017FM-12+001499999V0202301N00931000601CN0005001N9+99999+99999101111ADDAY181999GF109991091999000751999999MW1861
0043010300999991958011511004+69700+019017FM-12+001499999V0202301N00621004501CN0020001N9+99999+99999101121ADDAY181999GF107991071091004501061001MW1861
0076010300999991958011512004+69700+019017FM-12+001499999V0202301N00621004501CN0010001N9+00111+99999101081ADDAY181999GF108991081091004501999999MD1010041+9999MW1861EQDQ01+012311APOSP 
0043010300999991958011513004+69700+019017FM-12+001499999V0202301N00621007801CN0200001N9+99999+99999101071ADDAY181999GF107991071091008001061001MW1261
0043010300999991958011514004+69700+019017FM-12+001499999V0202301N00871007801CN0300001N9+99999+99999101031ADDAY181999GF107991071081008001061001MW1261
0076010300999991958011515004+69700+019017FM-12+001499999V0202301N00621007801CN0400001N9+00111+99999100941ADDAY121999GF107991061081008001061001MD1810141+9999MW1021EQDQ01+012311APOSP 
0043010300999991958011516004+69700+019017FM-12+001499999V0202001N00821007801CN0400001N9+99999+99999100871ADDAY121999GF108991081051008001999999MW1031
0043010300999991958011517004+69700+019017FM-12+001499999V0202001N00771007801CN0400001N9+99999+99999100741ADDAY121999GF108991081051008001999999MW1021
0113010300999991958011518004+69700+019017FM-12+001499999V0202001N00931007801CN0400001N9+00171+99999100601ADDAA199005091AY181999GF106991061051008001041001KA1999M+00171KA2999N-00061MD1710341+9999MW1011EQDQ01+013321APOSP 
0108010300999991958011600004+69700+019017FM-12+001499999V0202101N01231007801CN0500001N9+00331+99999099152ADDAY121999GF108991081051008001999999MD1710902+9999MW1021EQDQ01+013331APOSP Q02+099153APOSLPQ03+000902APC3  
0076010300999991958011603004+69700+019017FM-12+001499999V0202101N01541007801CN0200001N9+00441+99999098332ADDAY161999GF108991071051008001021999MD1710821+9999MW1611EQDQ01+013331APOSP 
0043010300999991958011604004+69700+019017FM-12+001499999V0202101N01231007801CN0150001N9+99999+99999098331ADDAY161999GF108991071051008001021999MW1611
0043010300999991958011605004+69700+019017FM-12+001499999V0202101N01231007801CN0400001N9+99999+99999098261ADDAY161999GF107991071051008001001001MW1601
0113010300999991958011606004+69700+019017FM-12+001499999V0202101N01231007801CN0100001N9+00171+99999098161ADDAA199002091AY161999GF108991071051008001021999KA1999M+00501KA2999N+00171MD1710171+9999MW1681EQDQ01+013331APOSP 
0043010300999991958011607004+69700+019017FM-12+001499999V0202501N00671007801CN0140001N9+99999+99999097871ADDAY171999GF108991081091008001999999MW1831
0043010300999991958011608004+69700+019017FM-12+001499999V0202301N00931007801CN0100001N9+99999+99999097861ADDAY181999GF108991081091008001999999MW1831
0076010300999991958011609004+69700+019017FM-12+001499999V0202501N00931007801CN0030001N9+00061+99999097821ADDAY181999GF108991081091008001999999MD1510341+9999MW1861EQDQ01+012331APOSP 
0043010300999991958011610004+69700+019017FM-12+001499999V0202301N01231007801CN0200001N9+99999+99999097751ADDAY181999GF108991081091008001999999MW1151
0043010300999991958011611004+69700+019017FM-12+001499999V0202301N01231007801CN0150001N9+99999+99999097721ADDAY181999GF107991071091008001001001MW1851
0076010300999991958011612004+69700+019017FM-12+001499999V0202301N01341007801CN0080001N9-00061+99999097661ADDAY181999GF108991081091008001999999MD1810161+9999MW1851EQDQ01+013331APOSP 
0043010300999991958011613004+69700+019017FM-12+001499999V0202301N01031000601CN0003001N9+99999+99999097641ADDAY181999GF109991091999000751999999MW1861
0043010300999991958011614004+69700+019017FM-12+001499999V0202301N01031004501CN0100001N9+99999+99999097591ADDAY181999GF108991081091004501999999MW1851
0076010300999991958011615004+69700+019017FM-12+001499999V0202301N01131004501CN0040001N9+00001+99999097501ADDAY181999GF108991081091004501999999MD1710161+9999MW1851EQDQ01+013331APOSP 
0043010300999991958011616004+69700+019017FM-12+001499999V0202301N00931004501CN0080001N9+99999+99999097481ADDAY181999GF108991081091004501999999MW1851
0043010300999991958011617004+69700+019017FM-12+001499999V0202301N010319999999N0001001N9+99999+99999097441ADDAY181999GF109991091999999999999999MW1861
0129010300999991958011618004+69700+019017FM-12+001499999V0202301N012319999999N0002001N9-00171+99999097371ADDAA199012091AY181999GF109991091999999999999999KA1999M+00331KA2999N+99999MD1710131+9999MW1861EQDQ01+013331APOSP Q02 -00112ATMN  
0076010300999991958011700004+69700+019017FM-12+001499999V0202201N01181007801CN0500001N9-00111+99999096911ADDAY181999GF107991071091008001001001MD1710251+9999MW1011EQDQ01+013331APOSP 
0076010300999991958011703004+69700+019017FM-12+001499999V0202401N01081007801CN0300001N9-00171+99999096671ADDAY181999GF108991081091008001999999MD1710241+9999MW1851EQDQ01+013331APOSP 
0043010300999991958011704004+69700+019017FM-12+001499999V0202301N01231007801CN0300001N9+99999+99999096571ADDAY181999GF108991081091008001999999MW1851
0043010300999991958011705004+69700+019017FM-12+001499999V0202301N01341007801CN0100001N9+99999+99999096361ADDAY181999GF108991081091008001999999MW1851
0113010300999991958011706004+69700+019017FM-12+001499999V0202301N01541007801CN0050001N9-00281+99999096181ADDAA199006091AY181999GF108991081091008001999999KA1999M-00061KA2999N-00281MD1710491+9999MW1851EQDQ01+013331APOSP 
0043010300999991958011707004+69700+019017FM-12+001499999V0202301N01541007801CN0030001N9+99999+99999096031ADDAY181999GF108991081091008001999999MW1861
0043010300999991958011708004+69700+019017FM-12+001499999V0202301N017019999999N0005001N9+99999+99999095921ADDAY181999GF109991091999999999999999MW1861
0076010300999991958011709004+69700+019017FM-12+001499999V0202301N017019999999N0003001N9-00221+99999095731ADDAY181999GF109991091999999999999999MD1710451+9999MW1861EQDQ01+013331APOSP 
0043010300999991958011710004+69700+019017FM-12+001499999V0202301N012319999999N0003001N9+99999+99999095651ADDAY181999GF109991091999999999999999MW1861
0043010300999991958011711004+69700+019017FM-12+001499999V0201801N00101007801CN0100001N9+99999+99999095681ADDAY181999GF107991071091008001001001MW1851
0076010300999991958011712004+69700+019017FM-12+001499999V0203401N00931000601CN0004001N9+00001+99999095741ADDAY181999GF109991091999000751999999MD1310011+9999MW1861EQDQ01+012331APOSP 
0043010300999991958011713004+69700+019017FM-12+001499999V0203401N00931004501CN0070001N9+99999+99999095881ADDAY181999GF108991081091004501999999MW1881
0043010300999991958011714004+69700+019017FM-12+001499999V0203201N00931004501CN0080001N9+99999+99999095981ADDAY181999GF108991081091004501999999MW1851
0076010300999991958011715004+69700+019017FM-12+001499999V0203201N00671004501CN0080001N9+00001+99999096031ADDAY181999GF108991081091004501999999MD1210291+9999MW1871EQDQ01+012311APOSP 
0043010300999991958011716004+69700+019017FM-12+001499999V0203201N00671004501CN0060001N9+99999+99999096041ADDAY181999GF108991081091004501999999MW1871
0043010300999991958011717004+69700+019017FM-12+001499999V0203201N00671004501CN0080001N9+99999+99999096041ADDAY181999GF108991081091004501999999MW1851
0113010300999991958011718004+69700+019017FM-12+001499999V0203201N00671004501CN0080001N9+00001+99999096041ADDAA199026091AY181999GF108991081091004501999999KA1999M+00111KA2999N-00281MD1210011+9999MW1851EQDQ01+012311APOSP 
0076010300999991958011800004+69700+019017FM-12+001499999V0200201N00671007801CN0200001N9+00061+99999096201ADDAY181999GF108991081091008001999999MD1210261+9999MW1151EQDQ01+012331APOSP 
0076010300999991958011803004+69700+019017FM-12+001499999V0203601N001519999999N0500001N9-00111+99999096431ADDAY121999GF104991031091008001041021MD1210231+9999MW1011EQDQ01+011311APOSP 
0043010300999991958011804004+69700+019017FM-12+001499999V0203601N001519999999N0500001N9+99999+99999096521ADDAY111999GF103991031091008001041001MW1011
0043010300999991958011805004+69700+019017FM-12+001499999V0203601N001519999999N0500001N9+99999+99999096591ADDAY101999GF104991031091008001041021MW1031
0113010300999991958011806004+69700+019017FM-12+001499999V0209991C000019999999N0500001N9-00281+99999096641ADDAA199018091AY111999GF104991021081008001041021KA1999M+00111KA2999N-00281MD1210211+9999MW1021EQDQ01+010311APOSP 
0043010300999991958011807004+69700+019017FM-12+001499999V0209991C000019999999N0500001N9+99999+99999096741ADDAY111999GF102991011081012501041001MW1011
0043010300999991958011808004+69700+019017FM-12+001499999V0203601N001519999999N0500001N9+99999+99999096761ADDAY101999GF104991011051012501041021MW1031
0076010300999991958011809004+69700+019017FM-12+001499999V0203601N002619999999N0600001N9-00281+99999096781ADDAY111999GF106991021051012501041021MD1210141+9999MW1031EQDQ01+011301APOSP 
0043010300999991958011810004+69700+019017FM-12+001499999V0203601N00461012301CN0500001N9+99999+99999096771ADDAY121999GF107991071051012501041001MW1031
0043010300999991958011811004+69700+019017FM-12+001499999V0203601N002619999999N0010001N9+99999+99999096861ADDAY181999GF109991091999999999999999MW1861
0076010300999991958011812004+69700+019017FM-12+001499999V0203601N00261007801CN0050001N9-00221+99999096891ADDAY181999GF108991081081008001999999MD1210111+9999MW1861EQDQ01+011301APOSP 
0043010300999991958011813004+69700+019017FM-12+001499999V0203601N00261007801CN0300001N9+99999+99999096901ADDAY181999GF108991081081008001999999MW1851
0043010300999991958011814004+69700+019017FM-12+001499999V0203601N00211007801CN0500001N9+99999+99999096921ADDAY181999GF107991071091008001001001MW1151
0076010300999991958011815004+69700+019017FM-12+001499999V0209991C00001007801CN0500001N9-00171+99999096931ADDAY181999GF106991061091008001001001MD1210041+9999MW1151EQDQ01+010301APOSP 
0043010300999991958011816004+69700+019017FM-12+001499999V0200501N00101007801CN0500001N9+99999+99999096941ADDAY181999GF107991071091008001001001MW1151
0043010300999991958011817004+69700+019017FM-12+001499999V0200501N00101007801CN0500001N9+99999+99999096961ADDAY121999GF108991081091008001999999MW1151
0113010300999991958011818004+69700+019017FM-12+001499999V0200201N00101007801CN0030001N9-00221+99999096981ADDAA199003091AY181999GF108991081091008001999999KA1999M-00171KA2999N-00391MD1210051+9999MW1851EQDQ01+011301APOSP 
0076010300999991958011900004+69700+019017FM-12+001499999V0201601N002619999999N0600001N9-00331+99999096891ADDAY181999GF105991031081012501041001MD1610071+9999MW1031EQDQ01+011301APOSP 
0076010300999991958011903004+69700+019017FM-12+001499999V0202601N00361004501CN0010001N9-00281+99999096911ADDAY181999GF108991081091004501999999MD1210021+9999MW1861EQDQ01+011301APOSP 
0113010300999991958011906004+69700+019017FM-12+001499999V0200601N01181007801CN0050001N9-00111+99999097011ADDAA199006091AY181999GF108991081091008001999999KA1999M+00001KA2999N-00391MD1310101+9999MW1851EQDQ01+013321APOSP 
0076010300999991958011909004+69700+019017FM-12+001499999V0200701N006719999999N0500001N9-00111+99999097161ADDAY181999GF106991041081008001061021MD1210151+9999MW1011EQDQ01+012321APOSP 
0076010300999991958011912004+69700+019017FM-12+001499999V0200601N001019999999N0500001N9-00281+99999097221ADDAY181999GF105991041081008001061021MD1110061+9999MW1011EQDQ01+011321APOSP 
0076010300999991958011915004+69700+019017FM-12+001499999V0200601N00101004501CN0030001N9-00281+99999097171ADDAY181999GF108991081081004501999999MD1710051+9999MW1861EQDQ01+011301APOSP 
0113010300999991958011918004+69700+019017FM-12+001499999V0200601N00101004501CN0050001N9-00331+99999097191ADDAA199003091AY181999GF108991081081004501999999KA1999M-00111KA2999N-00391MD1310021+9999MW1861EQDQ01+010301APOSP 
0076010300999991958012000004+69700+019017FM-12+001499999V0209991C00001004501CN0500001N9-00281+99999097341ADDAY181999GF107991071081004501001001MD1110181+9999MW1021EQDQ01+010301APOSP 
0076010300999991958012003004+69700+019017FM-12+001499999V0200501N002619999999N0500001N9-00391+99999097471ADDAY181999GF103991031081008001001001MD1210131+9999MW1011EQDQ01+011301APOSP 
0043010300999991958012004004+69700+019017FM-12+001499999V0200701N001019999999N0500001N9+99999+99999097511ADDAY101999GF102991021081008001001001MW1011
0043010300999991958012005004+69700+019017FM-12+001499999V0209991C000019999999N0500001N9+99999+99999097551ADDAY101999GF101991011041008001001001MW1011
0113010300999991958012006004+69700+019017FM-12+001499999V0209991C000019999999N0500001N9-00561+99999097591ADDAA199003091AY181999GF101991011051012501001001KA1999M+00001KA2999N-00611MD1210121+9999MW1021EQDQ01+010301APOSP 
0043010300999991958012007004+69700+019017FM-12+001499999V0202301N001019999999N0500001N9+99999+99999097671ADDAY101999GF101991011051012501001001MW1021
0043010300999991958012008004+69700+019017FM-12+001499999V0202501N002619999999N0500001N9+99999+99999097721ADDAY101999GF102991011051012501041001MW1031
0076010300999991958012009004+69700+019017FM-12+001499999V0202501N002619999999N0500001N9-00611+99999097781ADDAY101999GF103991021081008001061021MD1210191+9999MW1031EQDQ01+011301APOSP 
0043010300999991958012010004+69700+019017FM-12+001499999V0202301N002619999999N0500001N9+99999+99999097911ADDAY121999GF105991031081008001061021MW1031
0043010300999991958012011004+69700+019017FM-12+001499999V0202501N004619999999N0500001N9+99999+99999097971ADDAY121999GF105991031081008001061021MW1021
0076010300999991958012012004+69700+019017FM-12+001499999V0202501N003619999999N0500001N9-00721+99999098001ADDAY121999GF104991011081008001041021MD1110221+9999MW1011EQDQ01+011301APOSP 
0043010300999991958012013004+69700+019017FM-12+001499999V0202501N002619999999N0500001N9+99999+99999098061ADDAY121999GF104991021081008001041021MW1021
0043010300999991958012014004+69700+019017FM-12+001499999V0202301N002619999999N0500001N9+99999+99999098141ADDAY121999GF104991021081008001041021MW1021
0076010300999991958012015004+69700+019017FM-12+001499999V0202301N003619999999N0500001N9-00781+99999098171ADDAY121999GF105991041081008001041021MD1210171+9999MW1031EQDQ01+011301APOSP 
0043010300999991958012016004+69700+019017FM-12+001499999V0202301N003119999999N0500001N9+99999+99999098251ADDAY121999GF105991041081008001041001MW1021
0043010300999991958012017004+69700+019017FM-12+001499999V0202301N004619999999N0500001N9+99999+99999098301ADDAY121999GF104991031081008001041001MW1011
0102010300999991958012018004+69700+019017FM-12+001499999V0202501N002619999999N0500001N9-00831+99999098371ADDAY121999GF103991021081008001041001KA1999M-00561KA2999N-00831MD1210201+9999MW1011EQDQ01+011301APOSP 
0076010300999991958012100004+69700+019017FM-12+001499999V0202301N00511007801CN0500001N9-00561+99999098631ADDAY121999GF107991071081008001001001MD1210161+9999MW1031EQDQ01+011311APOSP 
0076010300999991958012103004+69700+019017FM-12+001499999V0202501N005119999999N0500001N9-00561+99999098771ADDAY121999GF103991031081008001001001MD1210141+9999MW1011EQDQ01+011311APOSP 
0043010300999991958012104004+69700+019017FM-12+001499999V0202301N003119999999N0500001N9+99999+99999098801ADDAY101999GF103991031051012501001001MW1021
0043010300999991958012105004+69700+019017FM-12+001499999V0202301N004619999999N0500001N9+99999+99999098831ADDAY101999GF102991021051012501001001MW1011
0102010300999991958012106004+69700+019017FM-12+001499999V0202501N005119999999N0500001N9-00611+99999098871ADDAY101999GF103991021051012501041001KA1999M-00561KA2999N-00891MD1210101+9999MW1031EQDQ01+011311APOSP 
0043010300999991958012107004+69700+019017FM-12+001499999V0202301N002619999999N0500001N9+99999+99999098921ADDAY101999GF102991011051012501041001MW1011
0043010300999991958012108004+69700+019017FM-12+001499999V0202501N004619999999N0500001N9+99999+99999098991ADDAY101999GF102991011051012501041001MW1021
0076010300999991958012109004+69700+019017FM-12+001499999V0202501N004619999999N0500001N9-00611+99999099071ADDAY101999GF103991011051008001041001MD1210201+9999MW1031EQDQ01+011311APOSP 
0043010300999991958012110004+69700+019017FM-12+001499999V0202101N001019999999N0600001N9+99999+99999099141ADDAY101999GF101991011051008001041011MW1011
0043010300999991958012111004+69700+019017FM-12+001499999V0202301N004619999999N0600001N9+99999+99999099201ADDAY101999GF101991011051008001041011MW1021
0076010300999991958012112004+69700+019017FM-12+001499999V0202301N004619999999N0600001N9-00671+99999099231ADDAY101999GF101991011051008001041011MD1210161+9999MW1021EQDQ01+011311APOSP 
0043010300999991958012113004+69700+019017FM-12+001499999V0202301N004619999999N0600001N9+99999+99999099251ADDAY101999GF101991011051008001041011MW1021
0043010300999991958012114004+69700+019017FM-12+001499999V0202401N002619999999N0600001N9+99999+99999099291ADDAY101999GF101991011051012501041011MW1021
0076010300999991958012115004+69700+019017FM-12+001499999V0202001N001519999999N0600001N9-00671+99999099341ADDAY101999GF101991011051012501041001MD1210111+9999MW1021EQDQ01+011311APOSP 
0043010300999991958012116004+69700+019017FM-12+001499999V0202301N004119999999N0600001N9+99999+99999099361ADDAY101999GF101991011051012501041001MW1021
0043010300999991958012117004+69700+019017FM-12+001499999V0202001N001019999999N0600001N9+99999+99999099421ADDAY101999GF101991011051012501041001MW1021
0102010300999991958012118004+69700+019017FM-12+001499999V0202501N00671012301CN0600001N9-00561+99999099451ADDAY111999GF105991051051012501001001KA1999M-00561KA2999N-00831MD1210111+9999MW1031EQDQ01+012311APOSP 
0076010300999991958012200004+69700+019017FM-12+001499999V0202501N005119999999N0500001N9-00501+99999099641ADDAY121999GF106991041051012501041001MD1210081+9999MW1021EQDQ01+011311APOSP 
0076010300999991958012203004+69700+019017FM-12+001499999V0202501N004619999999N0500001N9-00561+99999099711ADDAY121999GF102991011051012501041001MD1110071+9999MW1011EQDQ01+011311APOSP 
0043010300999991958012204004+69700+019017FM-12+001499999V0202701N004619999999N0500001N9+99999+99999099771ADDAY101999GF102991011051012501041001MW1021
0043010300999991958012205004+69700+019017FM-12+001499999V0202501N004619999999N0500001N9+99999+99999099751ADDAY101999GF102991011051012501041001MW1021
0102010300999991958012206004+69700+019017FM-12+001499999V0202301N002619999999N0500001N9-00441+99999099761ADDAY121999GF103991021051012501041021KA1999M-00441KA2999N-00611MD1110051+9999MW1031EQDQ01+011311APOSP 
0043010300999991958012207004+69700+019017FM-12+001499999V0202301N004619999999N0500001N9+99999+99999099781ADDAY101999GF103991021051012501041001MW1021
0043010300999991958012208004+69700+019017FM-12+001499999V0202301N004619999999N0500001N9+99999+99999099821ADDAY101999GF103991021051012501041001MW1021
0076010300999991958012209004+69700+019017FM-12+001499999V0202301N006719999999N0500001N9-00331+99999099821ADDAY101999GF104991031051012501041001MD1110061+9999MW1031EQDQ01+012321APOSP 
0043010300999991958012210004+69700+019017FM-12+001499999V0202301N006719999999N0500001N9+99999+99999099901ADDAY111999GF106991041051012501041021MW1031
0043010300999991958012211004+69700+019017FM-12+001499999V0202301N00671012301CN0500001N9+99999+99999099981ADDAY121999GF106991051051012501041021MW1021
0076010300999991958012212004+69700+019017FM-12+001499999V0202301N006719999999N0500001N9-00281+99999099991ADDAY121999GF105991041051012501041021MD1210171+9999MW1011EQDQ01+012321APOSP 
0043010300999991958012213004+69700+019017FM-12+001499999V0202301N006719999999N0500001N9+99999+99999099991ADDAY121999GF105991041051012501041021MW1021
0043010300999991958012214004+69700+019017FM-12+001499999V0202301N007719999999N0500001N9+99999+99999999999ADDAY121999GF103991021051012501041021MW1011
0076010300999991958012215004+69700+019017FM-12+001499999V0202301N005119999999N0500001N9-00391+99999100041ADDAY101999GF102991011051012501041001MD1110051+9999MW1011EQDQ01+012311APOSP 
0043010300999991958012216004+69700+019017FM-12+001499999V0202301N006719999999N0500001N9+99999+99999100091ADDAY101999GF102991011051012501041001MW1021
0043010300999991958012217004+69700+019017FM-12+001499999V0202701N001519999999N0500001N9+99999+99999100121ADDAY101999GF101991011051012501001001MW1011
0102010300999991958012218004+69700+019017FM-12+001499999V0202701N005119999999N0500001N9-00441+99999100151ADDAY101999GF101991011051012501001001KA1999M-00221KA2999N-00501MD1110111+9999MW1021EQDQ01+011311APOSP 
0092010300999991958012300004+69700+019017FM-12+001499999V0202401N00671220001CN0600001N9-00611+99999100311ADDAY101999GF101991999001999999041001MD1210091+9999MW1021EQDQ01+000002SCOTLCQ02+012311APOSP 
0092010300999991958012303004+69700+019017FM-12+001499999V0202401N00671220001CN0600001N9-00671+99999100381ADDAY101999GF101991999001999999041001MD1210071+9999MW1021EQDQ01+000002SCOTLCQ02+012311APOSP 
0062010300999991958012304004+69700+019017FM-12+001499999V0202501N00931220001CN0600001N9+99999+99999100391ADDAY101999GF101991999001999999041001MW1021EQDQ01+000002SCOTLC
0043010300999991958012305004+69700+019017FM-12+001499999V0202501N009319999999N0600001N9+99999+99999100401ADDAY101999GF101991011051012501041001MW1021
0102010300999991958012306004+69700+019017FM-12+001499999V0202601N006719999999N0600001N9-00671+99999100411ADDAY101999GF101991011051012501041001KA1999M-00391KA2999N-00781MD1210031+9999MW1021EQDQ01+012311APOSP 
0043010300999991958012307004+69700+019017FM-12+001499999V0202501N006719999999N0600001N9+99999+99999100451ADDAY101999GF101991011051012501041011MW1021
0043010300999991958012308004+69700+019017FM-12+001499999V0202501N006719999999N0600001N9+99999+99999100481ADDAY101999GF101991011051012501041011MW1021
0076010300999991958012309004+69700+019017FM-12+001499999V0202501N006719999999N0600001N9-00611+99999100511ADDAY101999GF101991011051012501041011MD1210101+9999MW1021EQDQ01+012311APOSP 
0043010300999991958012310004+69700+019017FM-12+001499999V0202501N006719999999N0600001N9+99999+99999100541ADDAY101999GF103991021051012501041011MW1031
0043010300999991958012311004+69700+019017FM-12+001499999V0202501N006719999999N0600001N9+99999+99999100551ADDAY101999GF104991031051012501041021MW1031
0076010300999991958012312004+69700+019017FM-12+001499999V0202501N006719999999N0600001N9-00441+99999100571ADDAY111999GF106991041051012501041021MD1210061+9999MW1031EQDQ01+012311APOSP 
0043010300999991958012313004+69700+019017FM-12+001499999V0202501N005119999999N0600001N9+99999+99999100601ADDAY121999GF105991031051012501041021MW1011
0043010300999991958012314004+69700+019017FM-12+001499999V0202501N006719999999N0600001N9+99999+99999100621ADDAY111999GF102991011051012501041001MW1011
0076010300999991958012315004+69700+019017FM-12+001499999V0202501N005119999999N0600001N9-00441+99999100681ADDAY121999GF101991011051012501041001MD1210111+9999MW1011EQDQ01+012311APOSP 
0043010300999991958012316004+69700+019017FM-12+001499999V0202501N005119999999N0600001N9+99999+99999100791ADDAY101999GF101991011051017501001001MW1021
0043010300999991958012317004+69700+019017FM-12+001499999V0202501N005119999999N0600001N9+99999+99999100821ADDAY101999GF101991011051017501001001MW1021
0118010300999991958012318004+69700+019017FM-12+001499999V0202501N00261220001CN0600001N9-00611+99999100871ADDAY121999GF101991999001999999041001KA1999M-00331KA2999N-00671MD1210191+9999MW1021EQDQ01+000002SCOTLCQ02+011311APOSP 
0076010300999991958012400004+69700+019017FM-12+001499999V0202501N005119999999N0600001N9-00561+99999101251ADDAY101999GF101991011051012501041001MD1210171+9999MW1011EQDQ01+011311APOSP 
0076010300999991958012403004+69700+019017FM-12+001499999V0202701N002619999999N0600001N9-00441+99999101371ADDAY101999GF103991011051012501041041MD1210121+9999MW1031EQDQ01+011311APOSP 
0043010300999991958012404004+69700+019017FM-12+001499999V0202301N003119999999N0600001N9+99999+99999101451ADDAY101999GF102991011051012501041021MW1011
0043010300999991958012405004+69700+019017FM-12+001499999V0202301N004619999999N0600001N9+99999+99999101491ADDAY101999GF102991011051012501041021MW1021
0102010300999991958012406004+69700+019017FM-12+001499999V0201401N001019999999N0600001N9-00391+99999101511ADDAY101999GF101991011051012501041021KA1999M-00391KA2999N-00671MD1210141+9999MW1011EQDQ01+010311APOSP 
0043010300999991958012407004+69700+019017FM-12+001499999V0209991C000019999999N0600001N9+99999+99999101601ADDAY101999GF101991011051012501041021MW1021
0043010300999991958012408004+69700+019017FM-12+001499999V0202301N002119999999N0600001N9+99999+99999101691ADDAY101999GF102991011051012501041021MW1031
0076010300999991958012409004+69700+019017FM-12+001499999V0209991C000019999999N0600001N9-00501+99999101771ADDAY101999GF102991011051012501041021MD1310261+9999MW1021EQDQ01+010301APOSP 
0043010300999991958012410004+69700+019017FM-12+001499999V0209991C000019999999N0600001N9+99999+99999101841ADDAY101999GF101991011051012501041011MW1011
0043010300999991958012411004+69700+019017FM-12+001499999V0209991C00001220001CN0600001N9+99999+99999101891ADDAY101999GF101991001001999999041011MW1011
0076010300999991958012412004+69700+019017FM-12+001499999V0201401N00101220001CN0600001N9-00561+99999101931ADDAY101999GF101991001001999999041011MD1210161+9999MW1021EQDQ01+011301APOSP 
0043010300999991958012413004+69700+019017FM-12+001499999V0209991C00001220001CN0600001N9+99999+99999101971ADDAY101999GF101991001001999999041011MW1021
0043010300999991958012414004+69700+019017FM-12+001499999V0200901N00101220001CN0600001N9+99999+99999102031ADDAY101999GF101991001001999999041011MW1021
0076010300999991958012415004+69700+019017FM-12+001499999V0209991C00001220001CN0600001N9-00561+99999102041ADDAY101999GF101991001001999999041011MD1210111+9999MW1021EQDQ01+010301APOSP 
0043010300999991958012416004+69700+019017FM-12+001499999V0209991C00001220001CN0600001N9+99999+99999102041ADDAY101999GF101991001001999999041011MW1021
0043010300999991958012417004+69700+019017FM-12+001499999V0202301N00151220001CN0600001N9+99999+99999102011ADDAY101999GF101991001001999999041011MW1021
0102010300999991958012418004+69700+019017FM-12+001499999V0202301N00151220001CN0600001N9-00671+99999102021ADDAY101999GF101991001001999999041011KA1999M-00331KA2999N-00781MD1710021+9999MW1021EQDQ01+011301APOSP 
0076010300999991958012500004+69700+019017FM-12+001499999V0202701N001019999999N0500001N9-00441+99999101741ADDAY121999GF108991031051012501071999MD1710151+9999MW1031EQDQ01+011301APOSP 
0076010300999991958012503004+69700+019017FM-12+001499999V0202501N001519999999N0500001N9-00391+99999101601ADDAY121999GF106991041051012501071001MD1710141+9999MW1011EQDQ01+011301APOSP 
0043010300999991958012504004+69700+019017FM-12+001499999V0202101N005119999999N0500001N9+99999+99999101561ADDAY121999GF106991041051012501071001MW1021
0043010300999991958012505004+69700+019017FM-12+001499999V0202301N005119999999N0500001N9+99999+99999101541ADDAY121999GF106991041051012501071001MW1021
0102010300999991958012506004+69700+019017FM-12+001499999V0202401N006719999999N0500001N9-00441+99999101541ADDAY121999GF107991041051012501071999KA1999M-00331KA2999N-00721MD1710061+9999MW1021EQDQ01+012311APOSP 
0043010300999991958012507004+69700+019017FM-12+001499999V0202301N007719999999N0500001N9+99999+99999101521ADDAY121999GF108991021051012501071999MW1031
0043010300999991958012508004+69700+019017FM-12+001499999V0202101N007719999999N0400001N9+99999+99999101531ADDAY121999GF108991021051008001021999MW1151
0076010300999991958012509004+69700+019017FM-12+001499999V0202301N008219999999N0100001N9-00561+99999101531ADDAY171999GF108991011051008001021999MD1710011+9999MW1701EQDQ01+012311APOSP 
0043010300999991958012510004+69700+019017FM-12+001499999V0202301N008219999999N0250001N9+99999+99999101481ADDAY171999GF107991011051008001071071MW1151
0043010300999991958012511004+69700+019017FM-12+001499999V0202301N008219999999N0500001N9+99999+99999101441ADDAY121999GF105991011051008001041021MW1011
0076010300999991958012512004+69700+019017FM-12+001499999V0202001N008719999999N0500001N9-00501+99999101431ADDAY171999GF106991021051008001071021MD1610101+9999MW1151EQDQ01+012311APOSP 
0043010300999991958012513004+69700+019017FM-12+001499999V0202001N010319999999N0500001N9+99999+99999101411ADDAY121999GF107991021051008001071021MW1151
0043010300999991958012514004+69700+019017FM-12+001499999V0202001N010319999999N0050001N9+99999+99999101401ADDAY121999GF108991021051008001021999MW1701
0076010300999991958012515004+69700+019017FM-12+001499999V0202301N009319999999N0050001N9-00501+99999101361ADDAY171999GF108991021051008001021999MD1710071+9999MW1711EQDQ01+012311APOSP 
0043010300999991958012516004+69700+019017FM-12+001499999V0202301N009319999999N0025001N9+99999+99999101341ADDAY171999GF108991021051008001021999MW1711
0043010300999991958012517004+69700+019017FM-12+001499999V0202301N00931004501CN0020001N9+99999+99999101311ADDAY171999GF108991081051004501999999MW1731
0113010300999991958012518004+69700+019017FM-12+001499999V0202301N00871004501CN0030001N9-00501+99999101311ADDAA199001091AY171999GF108991081051004501999999KA1999M-00441KA2999N-00561MD1610051+9999MW1711EQDQ01+012311APOSP 
0076010300999991958012600004+69700+019017FM-12+001499999V0202001N01131004501CN0080001N9-00111+99999101241ADDAY171999GF108991081091004501999999MD1710021+9999MW1851EQDQ01+013331APOSP 
0076010300999991958012603004+69700+019017FM-12+001499999V0202301N00871001501CN0020001N9-00111+99999101191ADDAY181999GF109991091999001501999999MD1710051+9999MW1731EQDQ01+012331APOSP 
0113010300999991958012606004+69700+019017FM-12+001499999V0202301N00771000601CN0010001N9+00001+99999101201ADDAA199008091AY181999GF109991091999000751999999KA1999M+00001KA2999N-00561MD1310011+9999MW1971EQDQ01+012331APOSP 
0076010300999991958012609004+69700+019017FM-12+001499999V0202301N00261004501CN0070001N9+00001+99999101361ADDAY191999GF108991081091004501999999MD1210161+9999MW1931EQDQ01+011311APOSP 
0076010300999991958012612004+69700+019017FM-12+001499999V0202301N00511004501CN0050001N9+00001+99999101391ADDAY191999GF108991081081004501999999MD1110031+9999MW1151EQDQ01+012311APOSP 
0076010300999991958012615004+69700+019017FM-12+001499999V0202301N00671004501CN0050001N9+00001+99999101501ADDAY181999GF108991081081004501999999MD1210111+9999MW1851EQDQ01+012311APOSP 
0113010300999991958012618004+69700+019017FM-12+001499999V0202901N00411004501CN0030001N9+00001+99999101651ADDAA199016091AY181999GF108991081081004501999999KA1999M+00061KA2999N-00331MD1210151+9999MW1851EQDQ01+012311APOSP 
0076010300999991958012700004+69700+019017FM-12+001499999V0202501N002619999999N0600001N9-00221+99999101921ADDAY181999GF102991021081008001001001MD1110101+9999MW1011EQDQ01+011301APOSP 
0076010300999991958012703004+69700+019017FM-12+001499999V0202501N004619999999N0600001N9-00221+99999101971ADDAY111999GF102991021081008001001001MD1210051+9999MW1021EQDQ01+011311APOSP 
0043010300999991958012704004+69700+019017FM-12+001499999V0202501N004619999999N0600001N9+99999+99999101961ADDAY101999GF104991041081008001001001MW1031
0043010300999991958012705004+69700+019017FM-12+001499999V0202701N00261007801CN0400001N9+99999+99999101951ADDAY181999GF106991061081008001001001MW1851
0113010300999991958012706004+69700+019017FM-12+001499999V0202501N002619999999N0600001N9-00171+99999101941ADDAA199002091AY181999GF104991041081008001001001KA1999M+00061KA2999N-00281MD1710031+9999MW1151EQDQ01+011311APOSP 
0043010300999991958012707004+69700+019017FM-12+001499999V0209991C00001007801CN0600001N9+99999+99999101911ADDAY121999GF106991061081008001001001MW1151
0043010300999991958012708004+69700+019017FM-12+001499999V0202701N00211012301CN0600001N9+99999+99999101901ADDAY121999GF107991071051012501001001MW1031
0076010300999991958012709004+69700+019017FM-12+001499999V0202701N00151012301CN0600001N9-00281+99999101871ADDAY121999GF106991061051012501001001MD1710071+9999MW1021EQDQ01+011301APOSP 
0043010300999991958012710004+69700+019017FM-12+001499999V0202701N00151012301CN0600001N9+99999+99999101851ADDAY121999GF105991051051012501001001MW1011
0043010300999991958012711004+69700+019017FM-12+001499999V0202501N001019999999N0600001N9+99999+99999101801ADDAY121999GF106991041051012501071001MW1031
0076010300999991958012712004+69700+019017FM-12+001499999V0202501N001019999999N0600001N9-00391+99999101741ADDAY121999GF107991041051012501071001MD1710131+9999MW1031EQDQ01+011301APOSP 
0043010300999991958012713004+69700+019017FM-12+001499999V0209991C00001015001CN0500001N9+99999+99999101661ADDAY121999GF107991071001017501071001MW1021
0043010300999991958012714004+69700+019017FM-12+001499999V0209991C00001021001CN0500001N9+99999+99999101641ADDAY121999GF108991081001022501021999MW1031
0076010300999991958012715004+69700+019017FM-12+001499999V0209991C000019999999N0500001N9-00331+99999101591ADDAY121999GF105991021051012501041001MD1710151+9999MW1011EQDQ01+010301APOSP 
0043010300999991958012716004+69700+019017FM-12+001499999V0202701N001019999999N0500001N9+99999+99999101591ADDAY121999GF103991031051012501001001MW1011
0043010300999991958012717004+69700+019017FM-12+001499999V0202301N001019999999N0500001N9+99999+99999101591ADDAY101999GF102991021051012501001001MW1011
0102010300999991958012718004+69700+019017FM-12+001499999V0209991C000019999999N0500001N9-00441+99999101621ADDAY101999GF101991011051012501001001KA1999M-00171KA2999N-00501MD1310031+9999MW1011EQDQ01+010301APOSP 
0076010300999991958012800004+69700+019017FM-12+001499999V0209991C000019999999N0500001N9-00501+99999101741ADDAY111999GF106991021051012501051001MD1110051+9999MW1031EQDQ01+010301APOSP 
0076010300999991958012803004+69700+019017FM-12+001499999V0209991C000019999999N0500001N9-00501+99999101751ADDAY121999GF102991011051012501041001MD1210011+9999MW1011EQDQ01+010301APOSP 
0043010300999991958012804004+69700+019017FM-12+001499999V0202501N002619999999N0500001N9+99999+99999101751ADDAY101999GF102991011051012501041001MW1021
0043010300999991958012805004+69700+019017FM-12+001499999V0209991C000019999999N0500001N9+99999+99999101751ADDAY101999GF104991011051012501051001MW1031
0102010300999991958012806004+69700+019017FM-12+001499999V0209991C000019999999N0500001N9-00441+99999101751ADDAY121999GF107991011061008001051001KA1999M-00331KA2999N-00611MD1410001+9999MW1031EQDQ01+010301APOSP 
0043010300999991958012807004+69700+019017FM-12+001499999V0209991C000019999999N0500001N9+99999+99999101771ADDAY121999GF106991021051008001051001MW1011
0043010300999991958012808004+69700+019017FM-12+001499999V0209991C000019999999N0500001N9+99999+99999101791ADDAY121999GF106991041051008001051001MW1021
0076010300999991958012809004+69700+019017FM-12+001499999V0203601N00101007801CN0400001N9-00281+99999101811ADDAY171999GF107991071051008001001001MD1210061+9999MW1031EQDQ01+010301APOSP 
0043010300999991958012810004+69700+019017FM-12+001499999V0200501N00671007801CN0500001N9+99999+99999101891ADDAY121999GF107991071051008001001001MW1021
0043010300999991958012811004+69700+019017FM-12+001499999V0200501N005119999999N0500001N9+99999+99999101901ADDAY121999GF105991031051008001041021MW1011
0076010300999991958012812004+69700+019017FM-12+001499999V0200701N004119999999N0500001N9-00221+99999101901ADDAY171999GF104991021051008001041021MD1110091+9999MW1011EQDQ01+012311APOSP 
0043010300999991958012813004+69700+019017FM-12+001499999V0200701N005119999999N0600001N9+99999+99999101931ADDAY111999GF103991011051008001041021MW1011
0043010300999991958012814004+69700+019017FM-12+001499999V0200701N006219999999N0600001N9+99999+99999101971ADDAY101999GF103991011051012501041021MW1021
0076010300999991958012815004+69700+019017FM-12+001499999V0200501N005119999999N0600001N9-00281+99999101981ADDAY101999GF103991011051012501041021MD1210081+9999MW1021EQDQ01+012311APOSP 
0043010300999991958012816004+69700+019017FM-12+001499999V0200701N006719999999N0600001N9+99999+99999102011ADDAY101999GF103991011051012501041021MW1021
0043010300999991958012817004+69700+019017FM-12+001499999V0200701N005119999999N0600001N9+99999+99999102051ADDAY101999GF103991011051012501041021MW1021
0113010300999991958012818004+69700+019017FM-12+001499999V0200701N002619999999N0600001N9-00221+99999102091ADDAA199000691AY121999GF103991011051012501041021KA1999M-00061KA2999N-00441MD1210111+9999MW1021EQDQ01+011311APOSP 
0076010300999991958012900004+69700+019017FM-12+001499999V0202301N00101220001CN0600001N9-00671+99999102141ADDAY101999GF100991001001999999001001MD1210021+9999MW1011EQDQ01+010301APOSP 
0092010300999991958012903004+69700+019017FM-12+001499999V0202301N00101220001CN0600001N9-00721+99999102051ADDAY101999GF101991999001999999041001MD1710091+9999MW1031EQDQ01+000002SCOTLCQ02+010301APOSP 
0062010300999991958012904004+69700+019017FM-12+001499999V0209991C00001220001CN0600001N9+99999+99999102031ADDAY101999GF101991999001999999041001MW1021EQDQ01+000002SCOTLC
0062010300999991958012905004+69700+019017FM-12+001499999V0201401N00101220001CN0600001N9+99999+99999102021ADDAY101999GF101991999001999999041001MW1021EQDQ01+000002SCOTLC
0118010300999991958012906004+69700+019017FM-12+001499999V0209991C00001220001CN0600001N9-00561+99999101981ADDAY101999GF101991999001999999041001KA1999M-00221KA2999N-00781MD1710071+9999MW1021EQDQ01+000002SCOTLCQ02+010301APOSP 
0043010300999991958012907004+69700+019017FM-12+001499999V0209991C00001220001CN0600001N9+99999+99999101881ADDAY101999GF102991001001999999041021MW1031
0043010300999991958012908004+69700+019017FM-12+001499999V0209991C00001220001CN0600001N9+99999+99999101881ADDAY101999GF103991001001999999041021MW1031
0076010300999991958012909004+69700+019017FM-12+001499999V0203401N00101220001CN0600001N9-00441+99999101901ADDAY101999GF104991001001999999071021MD1510081+9999MW1031EQDQ01+010301APOSP 
0043010300999991958012910004+69700+019017FM-12+001499999V0203201N001019999999N0600001N9+99999+99999101871ADDAY111999GF105991031001999999051051MW1031
0043010300999991958012911004+69700+019017FM-12+001499999V0209991C00001024001CN0600001N9+99999+99999101821ADDAY111999GF106991051001999999051061MW1031
0076010300999991958012912004+69700+019017FM-12+001499999V0202001N00461024001CN0600001N9-00171+99999101781ADDAY121999GF107991061001999999071071MD1710121+9999MW1031EQDQ01+011311APOSP 
0043010300999991958012913004+69700+019017FM-12+001499999V0202101N00771024001CN0600001N9+99999+99999101661ADDAY121999GF107991061001999999071071MW1021
0043010300999991958012914004+69700+019017FM-12+001499999V0202301N00771021001CN0600001N9+99999+99999101571ADDAY121999GF108991071001022501021071MW1031
0076010300999991958012915004+69700+019017FM-12+001499999V0202401N00931007801CN0100001N9-00111+99999101571ADDAY121999GF108991071051008001021999MD1610211+9999MW1711EQDQ01+012321APOSP 
0043010300999991958012916004+69700+019017FM-12+001499999V0202401N00671007801CN0140001N9+99999+99999101541ADDAY171999GF108991071051008001021999MW1711
0043010300999991958012917004+69700+019017FM-12+001499999V0202501N00771007801CN0200001N9+99999+99999101451ADDAY171999GF108991071051008001021999MW1701
0113010300999991958012918004+69700+019017FM-12+001499999V0202501N00771007801CN0200001N9-00061+99999101411ADDAA199001091AY171999GF108991071051008001021999KA1999M+00061KA2999N-00611MD1710161+9999MW1701EQDQ01+012321APOSP 
0076010300999991958013000004+69700+019017FM-12+001499999V0202501N00671007801CN0300001N9+00171+99999100931ADDAY171999GF108991071051008001021999MD1710211+9999MW1601EQDQ01+012311APOSP 
0076010300999991958013003004+69700+019017FM-12+001499999V0202101N00671007801CN0200001N9+00171+99999100781ADDAY161999GF108991071051008001021999MD1710151+9999MW1611EQDQ01+012311APOSP 
0043010300999991958013004004+69700+019017FM-12+001499999V0202301N00511007801CN0200001N9+99999+99999100701ADDAY161999GF108991071051008001021999MW1611
0043010300999991958013005004+69700+019017FM-12+001499999V0202301N00151007801CN0250001N9+99999+99999100611ADDAY161999GF108991071051008001021999MW1611
0113010300999991958013006004+69700+019017FM-12+001499999V0202001N00621007801CN0250001N9+00111+99999100511ADDAA199001091AY161999GF108991071051008001021999KA1999M+00221KA2999N-00111MD1710271+9999MW1611EQDQ01+012311APOSP 
0043010300999991958013007004+69700+019017FM-12+001499999V0202001N00511007801CN0200001N9+99999+99999100421ADDAY161999GF108991071051008001021999MW1611
0043010300999991958013008004+69700+019017FM-12+001499999V0202301N00261007801CN0100001N9+99999+99999100391ADDAY161999GF108991071051008001021999MW1611
0076010300999991958013009004+69700+019017FM-12+001499999V0202301N003619999999N0200001N9+00171+99999100321ADDAY161999GF108991031051008001021999MD1710191+9999MW1601EQDQ01+011311APOSP 
0043010300999991958013010004+69700+019017FM-12+001499999V0201801N00261007801CN0250001N9+99999+99999100271ADDAY161999GF108991061051008001021999MW1601
0043010300999991958013011004+69700+019017FM-12+001499999V0202501N00461012301CN0300001N9+99999+99999100141ADDAY161999GF108991071051012501021999MW1601
0076010300999991958013012004+69700+019017FM-12+001499999V0202401N00671007801CN0300001N9+00331+99999100031ADDAY161999GF108991071051008001021999MD1710291+9999MW1611EQDQ01+012311APOSP 
0043010300999991958013013004+69700+019017FM-12+001499999V0202301N00461007801CN0300001N9+99999+99999099931ADDAY161999GF108991071051008001021999MW1611
0043010300999991958013014004+69700+019017FM-12+001499999V0202301N00671007801CN0350001N9+99999+99999099911ADDAY161999GF108991071051008001021999MW1601
0076010300999991958013015004+69700+019017FM-12+001499999V0202301N00671007801CN0350001N9+00441+99999099881ADDAY161999GF108991081051008001999999MD1610151+9999MW1601EQDQ01+012311APOSP 
0043010300999991958013016004+69700+019017FM-12+001499999V0202301N00771007801CN0300001N9+99999+99999099841ADDAY161999GF108991081051008001999999MW1601
0043010300999991958013017004+69700+019017FM-12+001499999V0202301N00771007801CN0250001N9+99999+99999099861ADDAY161999GF108991081051008001999999MW1601
0113010300999991958013018004+69700+019017FM-12+001499999V0202301N00771007801CN0250001N9+00391+99999099861ADDAA199003091AY161999GF108991071051008001999999KA1999M+00501KA2999N+00111MD1510021+9999MW1601EQDQ01+012321APOSP 
0076010300999991958013100004+69700+019017FM-12+001499999V0202301N00621007801CN0300001N9+00281+99999099931ADDAY181999GF107991071081008001001001MD1110041+9999MW1801EQDQ01+011321APOSP 
0076010300999991958013103004+69700+019017FM-12+001499999V0202501N00311007801CN0300001N9+00281+99999099931ADDAY181999GF108991081051008001999999MD1410001+9999MW1601EQDQ01+011301APOSP 
0043010300999991958013104004+69700+019017FM-12+001499999V0202301N00311007801CN0200001N9+99999+99999099941ADDAY161999GF108991081081008001999999MW1801
0043010300999991958013105004+69700+019017FM-12+001499999V0202301N00511007801CN0200001N9+99999+99999099941ADDAY181999GF108991081081008001999999MW1801
0113010300999991958013106004+69700+019017FM-12+001499999V0202301N00461007801CN0300001N9+00171+99999099941ADDAA199006091AY181999GF108991081081008001999999KA1999M+00391KA2999N+00111MD1210011+9999MW1801EQDQ01+011311APOSP 
0043010300999991958013107004+69700+019017FM-12+001499999V0202301N00511007801CN0250001N9+99999+99999099941ADDAY181999GF108991081091008001999999MW1801
0043010300999991958013108004+69700+019017FM-12+001499999V0202301N00511007801CN0400001N9+99999+99999099941ADDAY181999GF107991071091008001001001MW1151
0076010300999991958013109004+69700+019017FM-12+001499999V0202301N00621007801CN0500001N9+00331+99999099921ADDAY121999GF106991061081008001001001MD1710021+9999MW1011EQDQ01+012311APOSP 
0043010300999991958013110004+69700+019017FM-12+001499999V0202301N00871007801CN0500001N9+99999+99999099911ADDAY121999GF107991051081008001071001MW1031
0043010300999991958013111004+69700+019017FM-12+001499999V0202301N00771007801CN0500001N9+99999+99999099871ADDAY121999GF107991051081008001041021MW1021
0076010300999991958013112004+69700+019017FM-12+001499999V0202301N007719999999N0500001N9+00391+99999099811ADDAY181999GF107991031081008001041021MD1710111+9999MW1021EQDQ01+012311APOSP 
0043010300999991958013113004+69700+019017FM-12+001499999V0202301N005119999999N0500001N9+99999+99999099701ADDAY121999GF107991021051008001001071MW1031
0043010300999991958013114004+69700+019017FM-12+001499999V0202301N002619999999N0500001N9+99999+99999099591ADDAY121999GF108991031051012501011071MW1031
0076010300999991958013115004+69700+019017FM-12+001499999V0202301N002619999999N0500001N9+00391+99999099491ADDAY121999GF108991041051012501021999MD1810321+9999MW1031EQDQ01+011311APOSP 
0043010300999991958013116004+69700+019017FM-12+001499999V0202301N00461007801CN0500001N9+99999+99999099311ADDAY121999GF108991051051008001021999MW1021
0043010300999991958013117004+69700+019017FM-12+001499999V0202301N00621007801CN0400001N9+99999+99999099141ADDAY121999GF108991051051008001021999MW1601
0113010300999991958013118004+69700+019017FM-12+001499999V0202501N00621007801CN0300001N9+00281+99999098961ADDAA199001091AY161999GF108991071051008001021999KA1999M+00501KA2999N+00171MD1710531+9999MW1611EQDQ01+012311APOSP 
0076010300999991958020100004+69700+019017FM-12+001499999V0202501N00461007801CN0100001N9+00441+99999098501ADDAY161999GF108991071071008001021999MD1310031+9999MW1621EQDQ01+012311APOSP 
0076010300999991958020103004+69700+019017FM-12+001499999V0202301N00931007801CN0500001N9+00501+99999098671ADDAY161999GF108991081051008001999999MD1210171+9999MW1021EQDQ01+012321APOSP 
0043010300999991958020104004+69700+019017FM-12+001499999V0202301N01231007801CN0500001N9+99999+99999098701ADDAY121999GF108991081051008001999999MW1021
0043010300999991958020105004+69700+019017FM-12+001499999V0202301N01231007801CN0500001N9+99999+99999098721ADDAY121999GF108991081051008001999999MW1021
0113010300999991958020106004+69700+019017FM-12+001499999V0202301N01231007801CN0500001N9+00501+99999098741ADDAA199006091AY161999GF107991071081008001001001KA1999M+00561KA2999N+00281MD1210071+9999MW1011EQDQ01+012321APOSP 
0043010300999991958020107004+69700+019017FM-12+001499999V0202301N01031007801CN0500001N9+99999+99999098741ADDAY121999GF107991071081008001001001MW1021
0043010300999991958020108004+69700+019017FM-12+001499999V0202301N01031007801CN0500001N9+99999+99999098811ADDAY121999GF108991081081008001999999MW1031
0076010300999991958020109004+69700+019017FM-12+001499999V0202301N00671007801CN0400001N9+00391+99999098831ADDAY161999GF108991061051008001021999MD1210091+9999MW1611EQDQ01+012331APOSP 
0043010300999991958020110004+69700+019017FM-12+001499999V0202301N00671007801CN0400001N9+99999+99999098751ADDAY161999GF108991081051008001999999MW1601
0043010300999991958020111004+69700+019017FM-12+001499999V0202301N00671007801CN0400001N9+99999+99999098671ADDAY161999GF108991081051008001999999MW1601
0076010300999991958020112004+69700+019017FM-12+001499999V0202301N01031007801CN0350001N9+00561+99999098601ADDAY161999GF108991081051008001999999MD1710231+9999MW1611EQDQ01+012331APOSP 
0043010300999991958020113004+69700+019017FM-12+001499999V0202301N00671007801CN0250001N9+99999+99999098571ADDAY161999GF108991081051008001999999MW1611
0043010300999991958020114004+69700+019017FM-12+001499999V0202001N01231007801CN0200001N9+99999+99999098541ADDAY161999GF108991081051008001999999MW1631
0076010300999991958020115004+69700+019017FM-12+001499999V0202301N01391007801CN0200001N9+00441+99999098471ADDAY161999GF108991081051008001999999MD1710131+9999MW1611EQDQ01+013331APOSP 
0043010300999991958020116004+69700+019017FM-12+001499999V0202001N01391007801CN0100001N9+99999+99999098401ADDAY161999GF108991071071008001021999MW1611
0043010300999991958020117004+69700+019017FM-12+001499999V0202301N01031007801CN0150001N9+99999+99999098361ADDAY161999GF108991071071008001021999MW1611
0113010300999991958020118004+69700+019017FM-12+001499999V0202301N00671007801CN0200001N9+00391+99999098241ADDAA199013091AY161999GF108991071071008001021999KA1999M+00561KA2999N+00331MD1710231+9999MW1611EQDQ01+012331APOSP 
0076010300999991958020200004+69700+019017FM-12+001499999V0202501N00261007801CN0150001N9+00501+99999098081ADDAY181999GF108991081091008001999999MD1310101+9999MW1811EQDQ01+011321APOSP 
0076010300999991958020203004+69700+019017FM-12+001499999V0202301N00671007801CN0350001N9+00331+99999098041ADDAY181999GF107991071081008001001001MD1510041+9999MW1801EQDQ01+012311APOSP 
0113010300999991958020206004+69700+019017FM-12+001499999V0202301N00931007801CN0500001N9+00331+99999097961ADDAA199002091AY181999GF107991051051008001041021KA1999M+00561KA2999N+00221MD1710081+9999MW1021EQDQ01+012311APOSP 
0076010300999991958020209004+69700+019017FM-12+001499999V0202101N007719999999N0600001N9+00281+99999097951ADDAY121999GF101991011051012501041001MD1610011+9999MW1011EQDQ01+012311APOSP 
0076010300999991958020212004+69700+019017FM-12+001499999V0203601N00101012301CN0500001N9+00111+99999097671ADDAY121999GF106991061041012501001001MD1610281+9999MW1031EQDQ01+011311APOSP 
0076010300999991958020215004+69700+019017FM-12+001499999V0201401N00101012301CN0500001N9+00171+99999097511ADDAY121999GF107991071041012501001001MD1610161+9999MW1021EQDQ01+011311APOSP 
0102010300999991958020218004+69700+019017FM-12+001499999V0200401N002619999999N0500001N9+00111+99999097481ADDAY121999GF106991031051012501021001KA1999M+00331KA2999N+00111MD1610031+9999MW1011EQDQ01+011311APOSP 
0076010300999991958020300004+69700+019017FM-12+001499999V0200201N00871007801CN0200001N9+00171+99999098161ADDAY181999GF107991071091008001999999MD1210401+9999MW1851EQDQ01+012311APOSP 
0076010300999991958020303004+69700+019017FM-12+001499999V0200501N01031004501CN0020001N9-00061+99999098841ADDAY181999GF108991081091004501999999MD1210681+9999MW1861EQDQ01+013321APOSP 
0043010300999991958020304004+69700+019017FM-12+001499999V0200201N01391004501CN0020001N9+99999+99999099021ADDAY181999GF108991081091004501999999MW1861
0043010300999991958020305004+69700+019017FM-12+001499999V0200501N01031007801CN0030001N9+99999+99999099241ADDAY181999GF108991081091008001999999MW1861
0113010300999991958020306004+69700+019017FM-12+001499999V0200201N01181007801CN0100001N9-00061+99999099401ADDAA199000391AY181999GF108991081091008001999999KA1999M+00171KA2999N-00111MD1210561+9999MW1851EQDQ01+013331APOSP 
0043010300999991958020307004+69700+019017FM-12+001499999V0200201N01031007801CN0250001N9+99999+99999099641ADDAY181999GF108991081081008001999999MW1851
0043010300999991958020308004+69700+019017FM-12+001499999V0200201N01081007801CN0020001N9+99999+99999099841ADDAY181999GF108991081081008001999999MW1851
0076010300999991958020309004+69700+019017FM-12+001499999V0200201N01181007801CN0300001N9-00221+99999099991ADDAY181999GF106991061081008001001001MD1210591+9999MW1851EQDQ01+013331APOSP 
0043010300999991958020310004+69700+019017FM-12+001499999V0200501N01081007801CN0400001N9+99999+99999100121ADDAY181999GF107991071081008001001001MW1851
0043010300999991958020311004+69700+019017FM-12+001499999V0200501N00931007801CN0100001N9+99999+99999100271ADDAY181999GF107991071081008001001001MW1851
0076010300999991958020312004+69700+019017FM-12+001499999V0203601N01541007801CN0003001N9-00221+99999100331ADDAY181999GF108991081091008001999999MD1210341+9999MW1861EQDQ01+013331APOSP 
0043010300999991958020313004+69700+019017FM-12+001499999V0200201N00931007801CN0400001N9+99999+99999100431ADDAY181999GF106991061081008001001001MW1151
0043010300999991958020314004+69700+019017FM-12+001499999V0200201N01031007801CN0020001N9+99999+99999100511ADDAY181999GF108991081081008001999999MW1851
0076010300999991958020315004+69700+019017FM-12+001499999V0200201N00931007801CN0400001N9-00331+99999100551ADDAY181999GF107991071081008001061001MD1210221+9999MW1151EQDQ01+012331APOSP 
0043010300999991958020316004+69700+019017FM-12+001499999V0203601N00671007801CN0400001N9+99999+99999100631ADDAY181999GF107991071081008001061001MW1151
0043010300999991958020317004+69700+019017FM-12+001499999V0200201N00931007801CN0200001N9+99999+99999100691ADDAY181999GF108991081081008001999999MW1851
0113010300999991958020318004+69700+019017FM-12+001499999V0203601N00671007801CN0400001N9-00441+99999100721ADDAA199000591AY181999GF107991061081008001061021KA1999M-00061KA2999N-00501MD1210171+9999MW1151EQDQ01+012331APOSP 
0076010300999991958020400004+69700+019017FM-12+001499999V0203601N00671007801CN0400001N9-00441+99999100971ADDAY181999GF107991071081008001999999MD1210101+9999MW1151EQDQ01+012311APOSP 
0076010300999991958020403004+69700+019017FM-12+001499999V0200501N00771007801CN0400001N9-00501+99999101061ADDAY181999GF107991061081008001061999MD1210091+9999MW1151EQDQ01+012311APOSP 
0043010300999991958020404004+69700+019017FM-12+001499999V0200901N00511007801CN0500001N9+99999+99999101071ADDAY121999GF107991061081008001061999MW1021
0043010300999991958020405004+69700+019017FM-12+001499999V0200201N00771007801CN0500001N9+99999+99999101071ADDAY121999GF107991061081008001061999MW1021
0113010300999991958020406004+69700+019017FM-12+001499999V0200201N00931007801CN0200001N9-00671+99999101101ADDAA199001091AY181999GF108991081081008001999999KA1999M-00391KA2999N-00671MD1210041+9999MW1851EQDQ01+012311APOSP 
0043010300999991958020407004+69700+019017FM-12+001499999V0200501N00671007801CN0500001N9+99999+99999101101ADDAY181999GF107991061081008001061021MW1011
0043010300999991958020408004+69700+019017FM-12+001499999V0200501N00671007801CN0500001N9+99999+99999101151ADDAY181999GF106991051081008001061021MW1011
0076010300999991958020409004+69700+019017FM-12+001499999V0200701N00771007801CN0100001N9-00611+99999101181ADDAY181999GF107991061081008001061999MD1210081+9999MW1851EQDQ01+012321APOSP 
0043010300999991958020410004+69700+019017FM-12+001499999V0200701N00821007801CN0200001N9+99999+99999101251ADDAY181999GF107991051081008001061021MW1851
0043010300999991958020411004+69700+019017FM-12+001499999V0200501N008219999999N0300001N9+99999+99999101271ADDAY181999GF106991041091008001061021MW1151
0076010300999991958020412004+69700+019017FM-12+001499999V0200701N007719999999N0500001N9-00561+99999101271ADDAY181999GF104991031021012501041021MD1110091+9999MW1011EQDQ01+012321APOSP 
0043010300999991958020413004+69700+019017FM-12+001499999V0200901N006719999999N0500001N9+99999+99999101311ADDAY121999GF103991021021012501041021MW1011
0043010300999991958020414004+69700+019017FM-12+001499999V0200501N004619999999N0500001N9+99999+99999101361ADDAY101999GF103991021021012501041021MW1021
0076010300999991958020415004+69700+019017FM-12+001499999V0200701N003619999999N0600001N9-00781+99999101411ADDAY101999GF102991011081012501041021MD1210141+9999MW1011EQDQ01+011311APOSP 
0043010300999991958020416004+69700+019017FM-12+001499999V0200701N004619999999N0600001N9+99999+99999101451ADDAY101999GF102991011081012501041021MW1021
0043010300999991958020417004+69700+019017FM-12+001499999V0200701N005119999999N0600001N9+99999+99999101501ADDAY101999GF101991011011012501041021MW1011
0113010300999991958020418004+69700+019017FM-12+001499999V0200701N004619999999N0600001N9-00831+99999101521ADDAA199000391AY101999GF101991011021012501001021KA1999M-00501KA2999N-00831MD1210111+9999MW1011EQDQ01+011311APOSP 
0076010300999991958020500004+69700+019017FM-12+001499999V0201401N003119999999N0600001N9-00831+99999101601ADDAY101999GF101991011051012501001001MD1210031+9999MW1021EQDQ01+011301APOSP 
0076010300999991958020503004+69700+019017FM-12+001499999V0203601N00261220001CN0600001N9-00941+99999101551ADDAY101999GF100991001001999999001001MD1710051+9999MW1021EQDQ01+011301APOSP 
0043010300999991958020504004+69700+019017FM-12+001499999V0202701N00151220001CN0600001N9+99999+99999101531ADDAY101999GF100991001001999999001001MW1021
0043010300999991958020505004+69700+019017FM-12+001499999V0202701N00151220001CN0600001N9+99999+99999101511ADDAY101999GF100991001001999999001001MW1021
0102010300999991958020506004+69700+019017FM-12+001499999V0202701N00261220001CN0600001N9-01061+99999101501ADDAY101999GF101991001001999999041011KA1999M-00781KA2999N-01111MD1710051+9999MW1031EQDQ01+011301APOSP 
0043010300999991958020507004+69700+019017FM-12+001499999V0202501N00261220001CN0600001N9+99999+99999101481ADDAY101999GF101991001001999999041011MW1021
0043010300999991958020508004+69700+019017FM-12+001499999V0202301N002619999999N0600001N9+99999+99999101521ADDAY101999GF101991011051017501041011MW1021
0076010300999991958020509004+69700+019017FM-12+001499999V0202501N002619999999N0600001N9-01001+99999101521ADDAY101999GF101991011051017501041011MD1210021+9999MW1021EQDQ01+011301APOSP 
0043010300999991958020510004+69700+019017FM-12+001499999V0202501N001019999999N0600001N9+99999+99999101521ADDAY101999GF101991011051017501041001MW1021
0043010300999991958020511004+69700+019017FM-12+001499999V0202501N001019999999N0600001N9+99999+99999101511ADDAY101999GF101991011051017501041001MW1021
0076010300999991958020512004+69700+019017FM-12+001499999V0202501N002619999999N0600001N9-00891+99999101481ADDAY101999GF102991011051012501041001MD1810041+9999MW1031EQDQ01+011301APOSP 
0043010300999991958020513004+69700+019017FM-12+001499999V0202501N001019999999N0600001N9+99999+99999101461ADDAY101999GF102991011051012501041001MW1021
0043010300999991958020514004+69700+019017FM-12+001499999V0202501N001019999999N0400001N9+99999+99999101461ADDAY101999GF103991021031008001061001MW1851
0076010300999991958020515004+69700+019017FM-12+001499999V0202501N00261012301CN0500001N9-00941+99999101461ADDAY181999GF105991051051012501001001MD1610021+9999MW1151EQDQ01+011301APOSP 
0043010300999991958020516004+69700+019017FM-12+001499999V0202501N00261012301CN0500001N9+99999+99999101421ADDAY111999GF105991051051012501001001MW1021
0043010300999991958020517004+69700+019017FM-12+001499999V0202501N002619999999N0500001N9+99999+99999101391ADDAY181999GF104991041081008001001001MW1011
0113010300999991958020518004+69700+019017FM-12+001499999V0202501N00261007801CN0300001N9-00941+99999101351ADDAA199000691AY181999GF106991061081008001001001KA1999M-00831KA2999N-01061MD1710111+9999MW1851EQDQ01+011301APOSP 
0076010300999991958020600004+69700+019017FM-12+001499999V0202501N002619999999N0500001N9-01001+99999101191ADDAY181999GF103991031081008001001001MD1710041+9999MW1261EQDQ01+011301APOSP 
0076010300999991958020603004+69700+019017FM-12+001499999V0202501N00151007801CN0500001N9-00941+99999101111ADDAY101999GF106991061081008001001001MD1710081+9999MW1031EQDQ01+011301APOSP 
0043010300999991958020604004+69700+019017FM-12+001499999V0202501N00151007801CN0500001N9+99999+99999101091ADDAY121999GF105991051081008001001001MW1011
0043010300999991958020605004+69700+019017FM-12+001499999V0202701N00151007801CN0400001N9+99999+99999101071ADDAY121999GF106991061081008001001001MW1851
0129010300999991958020606004+69700+019017FM-12+001499999V0202701N00151007801CN0400001N9-00941+99999101061ADDAA199000591AY181999GF107991999081008001001001KA1999M-00891KA2999N-01001MD1710051+9999MW1851EQDQ01+000062SCOTLCQ02+011301APOSP 
0043010300999991958020607004+69700+019017FM-12+001499999V0202501N00151007801CN0400001N9+99999+99999101061ADDAY181999GF106991061081008001001001MW1151
0043010300999991958020608004+69700+019017FM-12+001499999V0202501N001019999999N0500001N9+99999+99999101051ADDAY121999GF104991031081008001041001MW1011
0092010300999991958020609004+69700+019017FM-12+001499999V0202501N00101007801CN0500001N9-00941+99999101051ADDAY121999GF106991999081008001001001MD1710011+9999MW1031EQDQ01+000052SCOTLCQ02+011301APOSP 
0043010300999991958020610004+69700+019017FM-12+001499999V0202501N002619999999N0600001N9+99999+99999101051ADDAY181999GF103991021081008001001011MW1011
0043010300999991958020611004+69700+019017FM-12+001499999V0202501N002619999999N0600001N9+99999+99999101051ADDAY101999GF103991021081008001001011MW1021
0076010300999991958020612004+69700+019017FM-12+001499999V0202501N002619999999N0600001N9-00941+99999101031ADDAY181999GF103991021081008001001011MD1710021+9999MW1021EQDQ01+011301APOSP 
0043010300999991958020613004+69700+019017FM-12+001499999V0202501N002619999999N0600001N9+99999+99999101011ADDAY101999GF103991021081008001001011MW1021
0043010300999991958020614004+69700+019017FM-12+001499999V0202501N00261007801CN0600001N9+99999+99999101011ADDAY111999GF106991061081008001001001MW1031
0076010300999991958020615004+69700+019017FM-12+001499999V0202501N00261007801CN0600001N9-00941+99999101021ADDAY121999GF106991061081008001001001MD1710011+9999MW1021EQDQ01+011301APOSP 
0043010300999991958020616004+69700+019017FM-12+001499999V0202701N00261007801CN0600001N9+99999+99999101031ADDAY121999GF106991061081008001001001MW1021
0043010300999991958020617004+69700+019017FM-12+001499999V0202301N00261007801CN0600001N9+99999+99999101011ADDAY121999GF106991061081008001001001MW1021
0113010300999991958020618004+69700+019017FM-12+001499999V0202601N00261007801CN0600001N9-00941+99999100991ADDAA199000691AY121999GF107991071081008001001001KA1999M-00891KA2999N-01001MD1710031+9999MW1031EQDQ01+011301APOSP 
0076010300999991958020700004+69700+019017FM-12+001499999V0202501N00261007801CN0500001N9-01001+99999100951ADDAY171999GF106991051051008001041001MD1410001+9999MW1021EQDQ01+011301APOSP 
0076010300999991958020703004+69700+019017FM-12+001499999V0202501N00261004501CN0500001N9-01061+99999100971ADDAY121999GF107991061051004501041001MD1210021+9999MW1021EQDQ01+011301APOSP 
0043010300999991958020704004+69700+019017FM-12+001499999V0202701N001019999999N0500001N9+99999+99999100971ADDAY121999GF105991041051004501041001MW1011
0043010300999991958020705004+69700+019017FM-12+001499999V0202501N001019999999N0500001N9+99999+99999100981ADDAY111999GF105991041051004501041001MW1021
0113010300999991958020706004+69700+019017FM-12+001499999V0202501N001019999999N0500001N9-01111+99999100991ADDAA199000691AY121999GF103991021051008001041001KA1999M-00891KA2999N-01221MD1310021+9999MW1011EQDQ01+010301APOSP 
0043010300999991958020707004+69700+019017FM-12+001499999V0202501N001019999999N0500001N9+99999+99999101001ADDAY101999GF102991021051008001001001MW1011
0043010300999991958020708004+69700+019017FM-12+001499999V0202501N001019999999N0500001N9+99999+99999101031ADDAY101999GF102991021051008001001001MW1021
0076010300999991958020709004+69700+019017FM-12+001499999V0202501N001019999999N0500001N9-01111+99999101051ADDAY101999GF101991011051008001001001MD1210061+9999MW1011EQDQ01+010301APOSP 
0062010300999991958020710004+69700+019017FM-12+001499999V0202701N001019999999N0500001N9+99999+99999101061ADDAY101999GF102991999081008001001001MW1031EQDQ01+000012SCOTLC
0043010300999991958020711004+69700+019017FM-12+001499999V0202701N001019999999N0500001N9+99999+99999101081ADDAY101999GF101991011051008001001001MW1011
0076010300999991958020712004+69700+019017FM-12+001499999V0202701N001019999999N0500001N9-01001+99999101101ADDAY101999GF101991011051008001001001MD1210051+9999MW1021EQDQ01+011301APOSP 
0043010300999991958020713004+69700+019017FM-12+001499999V0202501N001019999999N0500001N9+99999+99999101101ADDAY101999GF101991011051012501001001MW1021
0043010300999991958020714004+69700+019017FM-12+001499999V0202701N001019999999N0500001N9+99999+99999101101ADDAY101999GF101991011051012501001001MW1021
0076010300999991958020715004+69700+019017FM-12+001499999V0202501N001019999999N0600001N9-01171+99999101101ADDAY101999GF101991011051012501001001MD1410001+9999MW1021EQDQ01+011301APOSP 
0043010300999991958020716004+69700+019017FM-12+001499999V0209991C000019999999N0600001N9+99999+99999101111ADDAY101999GF101991011051012501001001MW1021
0043010300999991958020717004+69700+019017FM-12+001499999V0202501N001019999999N0600001N9+99999+99999101141ADDAY101999GF101991011051012501001001MW1021
0102010300999991958020718004+69700+019017FM-12+001499999V0209991C000019999999N0600001N9-01171+99999101141ADDAY101999GF101991011051012501001001KA1999M-01001KA2999N-01281MD1210041+9999MW1021EQDQ01+010301APOSP 
0076010300999991958020800004+69700+019017FM-12+001499999V0202501N002619999999N0600001N9-01171+99999101241ADDAY101999GF101991011051012501001001MD1110051+9999MW1021EQDQ01+011301APOSP 
0076010300999991958020803004+69700+019017FM-12+001499999V0202701N002619999999N0600001N9-01111+99999101251ADDAY101999GF102991021051012501001001MD1210011+9999MW1031EQDQ01+011301APOSP 
0043010300999991958020804004+69700+019017FM-12+001499999V0202701N002619999999N0600001N9+99999+99999101261ADDAY111999GF103991031051012501001001MW1031
0043010300999991958020805004+69700+019017FM-12+001499999V0202501N00261012301CN0600001N9+99999+99999101261ADDAY121999GF105991051051012501041001MW1031
0102010300999991958020806004+69700+019017FM-12+001499999V0202701N00261012301CN0600001N9-00941+99999101271ADDAY121999GF107991051051012501041001KA1999M-00941KA2999N-01281MD1210021+9999MW1031EQDQ01+011301APOSP 
0043010300999991958020807004+69700+019017FM-12+001499999V0202501N002619999999N0600001N9+99999+99999101271ADDAY121999GF103991021051012501041001MW1011
