0076010300999991957010100004+69700+019017FM-12+001499999V0202501N006719999999N0500001N9-00331+99999102011ADDAY171999GF102991021051012501041001MD1710011+9999MW1011EQDQ01+012311APOSP 
0057010300999991957010103004+69700+019017FM-12+001499999V0202301N001519999999N0500001N9-00441+99999101961ADDAY101999GF101991011051012501001001MD1710051+9999MW1011
0113010300999991957010106004+69700+019017FM-12+001499999V0202301N00461220001CN0500001N9-00441+99999101861ADDAA199000691AY101999GF100991001001999999001001KA1999M-00281KA2999N-00561MD1710101+9999MW1011EQDQ01+011311APOSP 
0076010300999991957010109004+69700+019017FM-12+001499999V0202301N00151220001CN0500001N9-00441+99999101791ADDAY101999GF104991999001999999041001MD1710071+9999MW1031EQDQ01+000002SCOTLC
0076010300999991957010112004+69700+019017FM-12+001499999V0201801N002619999999N0500001N9-00441+99999101681ADDAY111999GF101991011051008001041021MD1710111+9999MW1011EQDQ01+011301APOSP 
0057010300999991957010115004+69700+019017FM-12+001499999V0202401N00411220001CN0500001N9-00331+99999101661ADDAY101999GF101991001001999999001021MD1710021+9999MW1021
0102010300999991957010118004+69700+019017FM-12+001499999V0202301N00261220001CN0500001N9-00441+99999101601ADDAY101999GF100991001001999999001001KA1999M-00281KA2999N-00561MD1710061+9999MW1021EQDQ01+011311APOSP 
0092010300999991957010200004+69700+019017FM-12+001499999V0202301N00511220001CN0500001N9-00331+99999101501ADDAY101999GF101991999001999999041001MD1710051+9999MW1021EQDQ01+000002SCOTLCQ02+011311APOSP 
0076010300999991957010203004+69700+019017FM-12+001499999V0202301N00671220001CN0500001N9-00281+99999101351ADDAY101999GF101991999001999999041001MD1710151+9999MW1021EQDQ01+000002SCOTLC
0043010300999991957010204004+69700+019017FM-12+001499999V0202301N006719999999N0500001N9+99999+99999101321ADDAY101999GF102991011051012501041001MW1031
0043010300999991957010205004+69700+019017FM-12+001499999V0202501N005119999999N0500001N9+99999+99999101321ADDAY101999GF104991031051012501041001MW1031
0102010300999991957010206004+69700+019017FM-12+001499999V0202501N00771012301CN0500001N9-00221+99999101211ADDAY101999GF106991051051012501041001KA1999M-00171KA2999N-00501MD1810141+9999MW1031EQDQ01+012311APOSP 
0043010300999991957010207004+69700+019017FM-12+001499999V0202301N00671012301CN0500001N9+99999+99999101171ADDAY121999GF107991061051012501041999MW1031
0043010300999991957010208004+69700+019017FM-12+001499999V0202301N00771012301CN0500001N9+99999+99999101131ADDAY121999GF107991061051012501041001MW1021
0057010300999991957010209004+69700+019017FM-12+001499999V0202301N007719999999N0500001N9-00171+99999101111ADDAY121999GF104991031051012501041001MD1710101+9999MW1011
0043010300999991957010210004+69700+019017FM-12+001499999V0202301N006719999999N0500001N9+99999+99999101091ADDAY111999GF105991041051012501041001MW1031
0043010300999991957010211004+69700+019017FM-12+001499999V0202301N007719999999N0500001N9+99999+99999101021ADDAY111999GF106991021051012501071001MW1031
0076010300999991957010212004+69700+019017FM-12+001499999V0202301N009319999999N0500001N9-00111+99999100971ADDAY121999GF107991011051012501071001MD1710141+9999MW1031EQDQ01+012311APOSP 
0043010300999991957010213004+69700+019017FM-12+001499999V0202301N007219999999N0500001N9+99999+99999100971ADDAY121999GF106991011051012501071001MW1011
0043010300999991957010214004+69700+019017FM-12+001499999V0202301N009319999999N0500001N9+99999+99999100931ADDAY121999GF107991011051012501071001MW1031
0057010300999991957010215004+69700+019017FM-12+001499999V0202301N009319999999N0500001N9-00061+99999100901ADDAY121999GF107991011051012501071001MD1710071+9999MW1021
0043010300999991957010216004+69700+019017FM-12+001499999V0202301N007719999999N0500001N9+99999+99999100911ADDAY121999GF108991021051012501071999MW1031
0043010300999991957010217004+69700+019017FM-12+001499999V0202301N007719999999N0500001N9+99999+99999100901ADDAY121999GF108991031051012501071999MW1021
0102010300999991957010218004+69700+019017FM-12+001499999V0202301N009319999999N0500001N9-00061+99999100871ADDAY121999GF106991021051012501041001KA1999M+00001KA2999N-00331MD1710031+9999MW1011EQDQ01+012321APOSP 
0076010300999991957010300004+69700+019017FM-12+001499999V0202301N00671007801CN0500001N9+00001+99999100891ADDAY121999GF108991081081008001999999MD1410001+9999MW1021EQDQ01+012311APOSP 
0057010300999991957010303004+69700+019017FM-12+001499999V0202301N00671007801CN0500001N9+00061+99999100921ADDAY121999GF108991081081008001999999MD1210031+9999MW1021
0043010300999991957010304004+69700+019017FM-12+001499999V0202301N00671007801CN0500001N9+99999+99999100941ADDAY121999GF108991081051008001999999MW1021
0043010300999991957010305004+69700+019017FM-12+001499999V0202301N00671007801CN0500001N9+99999+99999100981ADDAY121999GF107991071051008001001001MW1011
0102010300999991957010306004+69700+019017FM-12+001499999V0202301N00671007801CN0500001N9+00001+99999101001ADDAY121999GF106991061051008001001001KA1999M+00111KA2999N-00171MD1210081+9999MW1011EQDQ01+012311APOSP 
0043010300999991957010307004+69700+019017FM-12+001499999V0202301N00671007801CN0500001N9+99999+99999101021ADDAY121999GF106991061051008001001001MW1021
0043010300999991957010308004+69700+019017FM-12+001499999V0202301N00671007801CN0500001N9+99999+99999101071ADDAY121999GF107991071051008001001001MW1031
0057010300999991957010309004+69700+019017FM-12+001499999V0202301N00621007801CN0500001N9+00001+99999101091ADDAY121999GF106991061051008001041001MD1210091+9999MW1011
0043010300999991957010310004+69700+019017FM-12+001499999V0202301N00621007801CN0500001N9+99999+99999101131ADDAY121999GF106991061051008001041001MW1021
0043010300999991957010311004+69700+019017FM-12+001499999V0202301N00671012301CN0500001N9+99999+99999101141ADDAY121999GF107991061051012501041001MW1031
0076010300999991957010312004+69700+019017FM-12+001499999V0202301N00671012301CN0500001N9+00061+99999101191ADDAY121999GF107991071051012501041001MD1210101+9999MW1021EQDQ01+012311APOSP 
0043010300999991957010313004+69700+019017FM-12+001499999V0202301N00671012301CN0500001N9+99999+99999101231ADDAY121999GF107991071051012501041001MW1021
0043010300999991957010314004+69700+019017FM-12+001499999V0202501N00461012301CN0500001N9+99999+99999101251ADDAY121999GF107991061051012501041001MW1021
0057010300999991957010315004+69700+019017FM-12+001499999V0202501N00461012301CN0500001N9+00061+99999101261ADDAY121999GF107991061051012501041001MD1210071+9999MW1021
0043010300999991957010316004+69700+019017FM-12+001499999V0202301N004619999999N0500001N9+99999+99999101271ADDAY121999GF104991041051012501041001MW1011
0043010300999991957010317004+69700+019017FM-12+001499999V0209991C000019999999N0500001N9+99999+99999101311ADDAY111999GF102991021051012501041001MW1011
0102010300999991957010318004+69700+019017FM-12+001499999V0201901N004119999999N0500001N9+00001+99999101341ADDAY121999GF102991021051012501041001KA1999M+00171KA2999N-00111MD1210081+9999MW1021EQDQ01+011311APOSP 
0092010300999991957010400004+69700+019017FM-12+001499999V0202301N00151220001CN0500001N9-00281+99999999999ADDAY101999GF100991001001999999001001MD1710011+9999MW1011EQDQ01+011301APOSP Q02+103113APOSLP
0057010300999991957010403004+69700+019017FM-12+001499999V0202001N00151220001CN0500001N9-00391+99999101271ADDAY101999GF100991001001999999001001MD1710041+9999MW1021
0043010300999991957010404004+69700+019017FM-12+001499999V0202301N00151220001CN0500001N9+99999+99999101251ADDAY101999GF100991001001999999001001MW1021
0043010300999991957010405004+69700+019017FM-12+001499999V0202301N00101220001CN0500001N9+99999+99999101211ADDAY101999GF100991001001999999001001MW1021
0102010300999991957010406004+69700+019017FM-12+001499999V0209991C00001220001CN0500001N9-00331+99999101201ADDAY101999GF100991001001999999001001KA1999M+00061KA2999N-00441MD1710071+9999MW1021EQDQ01+011301APOSP 
0043010300999991957010407004+69700+019017FM-12+001499999V0209991C00001220001CN0500001N9+99999+99999101171ADDAY101999GF100991001001999999001001MW1021
0043010300999991957010408004+69700+019017FM-12+001499999V0209991C00001220001CN0500001N9+99999+99999101121ADDAY101999GF100991001001999999001001MW1021
0057010300999991957010409004+69700+019017FM-12+001499999V0201801N00101220001CN0500001N9-00391+99999101101ADDAY101999GF100991001001999999001001MD1710101+9999MW1021
0043010300999991957010410004+69700+019017FM-12+001499999V0209991C00001220001CN0500001N9+99999+99999101061ADDAY101999GF100991001001999999001001MW1021
0043010300999991957010411004+69700+019017FM-12+001499999V0209991C00001220001CN0500001N9+99999+99999101031ADDAY101999GF100991001001999999001001MW1021
0076010300999991957010412004+69700+019017FM-12+001499999V0209991C00001220001CN0500001N9-00331+99999100971ADDAY101999GF100991001001999999001001MD1710131+9999MW1021EQDQ01+010301APOSP 
0043010300999991957010413004+69700+019017FM-12+001499999V0209991C00001220001CN0500001N9+99999+99999100911ADDAY101999GF100991001001999999001001MW1021
0043010300999991957010414004+69700+019017FM-12+001499999V0209991C00001220001CN0500001N9+99999+99999100841ADDAY101999GF100991001001999999001001MW1021
0057010300999991957010415004+69700+019017FM-12+001499999V0209991C00001220001CN0500001N9-00331+99999100741ADDAY101999GF100991001001999999001001MD1710231+9999MW1021
0043010300999991957010416004+69700+019017FM-12+001499999V0209991C00001220001CN0500001N9+99999+99999100641ADDAY101999GF100991001001999999001001MW1021
0043010300999991957010417004+69700+019017FM-12+001499999V0209991C00001220001CN0500001N9+99999+99999100571ADDAY101999GF100991001001999999001001MW1021
0102010300999991957010418004+69700+019017FM-12+001499999V0209991C00001220001CN0500001N9-00221+99999100481ADDAY101999GF100991001001999999001001KA1999M-00061KA2999N-00501MD1710261+9999MW1021EQDQ01+010301APOSP 
0076010300999991957010500004+69700+019017FM-12+001499999V0202501N00671220001CN0500001N9-00221+99999100111ADDAY101999GF100991001001999999001001MD1710121+9999MW1021EQDQ01+011311APOSP 
0057010300999991957010503004+69700+019017FM-12+001499999V0202301N00771012301CN0500001N9+00001+99999099931ADDAY101999GF106991051051012501071999MD1710181+9999MW1031
0043010300999991957010504004+69700+019017FM-12+001499999V0202001N00721012301CN0500001N9+99999+99999099901ADDAY121999GF108991061051012501071999MW1031
0043010300999991957010505004+69700+019017FM-12+001499999V0202301N00931012301CN0500001N9+99999+99999099841ADDAY121999GF108991061051012501071999MW1031
0102010300999991957010506004+69700+019017FM-12+001499999V0202301N00931012301CN0500001N9+00061+99999099811ADDAY121999GF107991051051012501071001KA1999M+00061KA2999N-00391MD1710121+9999MW1011EQDQ01+012311APOSP 
0043010300999991957010507004+69700+019017FM-12+001499999V0202301N00931012301CN0500001N9+99999+99999099821ADDAY121999GF107991051051012501071999MW1021
0043010300999991957010508004+69700+019017FM-12+001499999V0202301N00671012301CN0500001N9+99999+99999099791ADDAY121999GF107991061051012501071999MW1021
0057010300999991957010509004+69700+019017FM-12+001499999V0202301N00671012301CN0500001N9+00001+99999099741ADDAY121999GF108991071051012501071999MD1710071+9999MW1031
0043010300999991957010510004+69700+019017FM-12+001499999V0202301N00671012301CN0500001N9+99999+99999099711ADDAY121999GF108991071051012501071999MW1021
0043010300999991957010511004+69700+019017FM-12+001499999V0202501N00261012301CN0500001N9+99999+99999099691ADDAY121999GF108991071051012501071999MW1021
0092010300999991957010512004+69700+019017FM-12+001499999V0202001N00101012301CN0500001N9+00001+99999099631ADDAY121999GF108991999051012501071999MD1710111+9999MW1021EQDQ01+000082SCOTLCQ02+011311APOSP 
0043010300999991957010513004+69700+019017FM-12+001499999V0202301N00261012301CN0500001N9+99999+99999099621ADDAY121999GF108991081051012501999999MW1021
0043010300999991957010514004+69700+019017FM-12+001499999V0201801N00101012301CN0500001N9+99999+99999099591ADDAY121999GF108991081051012501999999MW1021
0076010300999991957010515004+69700+019017FM-12+001499999V0209991C00001012301CN0500001N9-00061+99999099561ADDAY121999GF107991071051012501001001MD1710071+9999MW1011EQDQ01+011301APOSP 
0043010300999991957010516004+69700+019017FM-12+001499999V0201401N00151012301CN0500001N9+99999+99999099511ADDAY121999GF107991071051012501001001MW1021
0043010300999991957010517004+69700+019017FM-12+001499999V0200201N00151012301CN0500001N9+99999+99999099491ADDAY121999GF108991081051012501999999MW1031
0102010300999991957010518004+69700+019017FM-12+001499999V0203401N00101012301CN0500001N9-00061+99999099461ADDAY121999GF108991081051012501999999KA1999M+00061KA2999N-00171MD1710101+9999MW1021EQDQ01+011301APOSP 
0076010300999991957010600004+69700+019017FM-12+001499999V0209991C00001012301CN0500001N9-00061+99999099431ADDAY121999GF107991071051012501001001MD1410001+9999MW1011EQDQ01+010301APOSP 
0057010300999991957010603004+69700+019017FM-12+001499999V0202301N001019999999N0500001N9-00171+99999099401ADDAY121999GF103991021051012501041001MD1610031+9999MW1011
0102010300999991957010606004+69700+019017FM-12+001499999V0209991C000019999999N0500001N9-00221+99999099281ADDAY101999GF102991011051012501041001KA1999M-00061KA2999N-00281MD1810121+9999MW1011EQDQ01+010301APOSP 
0057010300999991957010609004+69700+019017FM-12+001499999V0209991C000019999999N0500001N9-00331+99999099261ADDAY101999GF102991011051017501041001MD1710021+9999MW1021
0076010300999991957010612004+69700+019017FM-12+001499999V0209991C000019999999N0500001N9-00331+99999099221ADDAY111999GF103991011051012501051001MD1710041+9999MW1021EQDQ01+010301APOSP 
0057010300999991957010615004+69700+019017FM-12+001499999V0209991C000019999999N0500001N9-00221+99999099251ADDAY111999GF103991011051012501051001MD1310031+9999MW1021
0102010300999991957010618004+69700+019017FM-12+001499999V0202201N005719999999N0500001N9-00221+99999099281ADDAY111999GF107991021051008001051001KA1999M-00171KA2999N-00441MD1310031+9999MW1031EQDQ01+011311APOSP 
0076010300999991957010700004+69700+019017FM-12+001499999V0202301N00771012301CN0400001N9-00281+99999099491ADDAY171999GF108991081051012501999999MD1110101+9999MW1151EQDQ01+012321APOSP 
0057010300999991957010703004+69700+019017FM-12+001499999V0202301N00511007801CN0300001N9-00221+99999099571ADDAY171999GF108991081091008001999999MD1210081+9999MW1851
0043010300999991957010704004+69700+019017FM-12+001499999V0202301N00621007801CN0150001N9+99999+99999099611ADDAY181999GF108991081051008001999999MW1731
0043010300999991957010705004+69700+019017FM-12+001499999V0202301N00511007801CN0150001N9+99999+99999099611ADDAY171999GF108991081051008001999999MW1731
0113010300999991957010706004+69700+019017FM-12+001499999V0202501N00671007801CN0250001N9-00221+99999099601ADDAA199000691AY171999GF108991081051008001999999KA1999M-00171KA2999N-00391MD1010031+9999MW1711EQDQ01+012311APOSP 
0062010300999991957010707004+69700+019017FM-12+001499999V0202301N00461007801CN9999999N9+99999+99999099611ADDAY171999GF108991081051008001999999MW1751EQDQ01+300002VODIS 
0043010300999991957010708004+69700+019017FM-12+001499999V0202301N00671007801CN0100001N9+99999+99999099671ADDAY171999GF108991081051008001999999MW1711
0057010300999991957010709004+69700+019017FM-12+001499999V0202301N00671007801CN0100001N9-00221+99999099661ADDAY171999GF108991081051008001999999MD1010031+9999MW1711
0043010300999991957010710004+69700+019017FM-12+001499999V0202401N00671007801CN0500001N9+99999+99999099701ADDAY181999GF107991071081008001001001MW1261
0043010300999991957010711004+69700+019017FM-12+001499999V0202301N00671007801CN0100001N9+99999+99999099721ADDAY181999GF107991071081008001001001MW1851
0076010300999991957010712004+69700+019017FM-12+001499999V0202401N00671007801CN0100001N9+00001+99999099751ADDAY181999GF107991071081008001001021MD1210091+9999MW1851EQDQ01+012311APOSP 
0043010300999991957010713004+69700+019017FM-12+001499999V0202401N00671007801CN0500001N9+99999+99999099761ADDAY181999GF107991071081008001001001MW1151
0043010300999991957010714004+69700+019017FM-12+001499999V0202301N006719999999N0500001N9+99999+99999099761ADDAY181999GF103991031031008001001001MW1011
0057010300999991957010715004+69700+019017FM-12+001499999V0202301N006719999999N0200001N9+00061+99999099761ADDAY181999GF104991041031008001001001MD1110011+9999MW1851
0043010300999991957010716004+69700+019017FM-12+001499999V0202301N006719999999N0500001N9+99999+99999099701ADDAY181999GF104991041081008001001001MW1021
0043010300999991957010717004+69700+019017FM-12+001499999V0202301N004619999999N0500001N9+99999+99999099561ADDAY111999GF103991031081008001001001MW1011
0113010300999991957010718004+69700+019017FM-12+001499999V0202401N005119999999N0500001N9+00061+99999099461ADDAA199002091AY181999GF101991011041008001001021KA1999M+00061KA2999N-00281MD1810301+9999MW1011EQDQ01+012311APOSP 
0076010300999991957010800004+69700+019017FM-12+001499999V0202301N00671007801CN0500001N9+00171+99999098741ADDAY121999GF108991081051008001999999MD1710381+9999MW1021EQDQ01+012311APOSP 
0057010300999991957010803004+69700+019017FM-12+001499999V0202301N00671007801CN0500001N9+00171+99999098461ADDAY171999GF106991061091008001001001MD1710281+9999MW1011
0043010300999991957010804004+69700+019017FM-12+001499999V0202301N00931007801CN0500001N9+99999+99999098141ADDAY121999GF106991061081008001001001MW1021
0043010300999991957010805004+69700+019017FM-12+001499999V0202301N00671007801CN0500001N9+99999+99999097981ADDAY121999GF106991061081008001001001MW1021
0113010300999991957010806004+69700+019017FM-12+001499999V0202301N00461007801CN0500001N9+00221+99999097901ADDAA199000591AY171999GF106991061081008001001001KA1999M+00281KA2999N-00111MD1710561+9999MW1021EQDQ01+012311APOSP 
0043010300999991957010807004+69700+019017FM-12+001499999V0203601N00261007801CN0500001N9+99999+99999097731ADDAY121999GF107991071081008001001001MW1021
0043010300999991957010808004+69700+019017FM-12+001499999V0209991C00001012301CN0500001N9+99999+99999097531ADDAY121999GF108991081001012501021999MW1031
0057010300999991957010809004+69700+019017FM-12+001499999V0202301N00261007801CN0500001N9+00171+99999097451ADDAY121999GF108991081001008001021999MD1710451+9999MW1151
0043010300999991957010810004+69700+019017FM-12+001499999V0202301N00261000601CN0005001N9+99999+99999097321ADDAY171999GF109991091999000751999999MW1731
0043010300999991957010811004+69700+019017FM-12+001499999V0202301N00671004501CN0060001N9+99999+99999097291ADDAY171999GF108991081071004501999999MW1711
0076010300999991957010812004+69700+019017FM-12+001499999V0202301N00931007801CN0300001N9+00111+99999097211ADDAY171999GF107991071051008001001001MD1710241+9999MW1151EQDQ01+012311APOSP 
0043010300999991957010813004+69700+019017FM-12+001499999V0202301N00821002401CN0025001N9+99999+99999097201ADDAY181999GF109991091999002501999999MW1851
0043010300999991957010814004+69700+019017FM-12+001499999V0202301N00671004501CN0040001N9+99999+99999097171ADDAY181999GF108991081091004501999999MW1851
0057010300999991957010815004+69700+019017FM-12+001499999V0202301N01081004501CN0300001N9+00221+99999097111ADDAY181999GF108991081091004501999999MD1710101+9999MW1151
0043010300999991957010816004+69700+019017FM-12+001499999V0202001N01441007801CN0300001N9+99999+99999097001ADDAY181999GF108991081091008001999999MW1151
0043010300999991957010817004+69700+019017FM-12+001499999V0202001N01031007801CN0400001N9+99999+99999096971ADDAY121999GF108991081091008001999999MW1021
0113010300999991957010818004+69700+019017FM-12+001499999V0202001N01441007801CN0500001N9+00331+99999096841ADDAA199005091AY121999GF108991081001008001021999KA1999M+00331KA2999N+00001MD1710271+9999MW1021EQDQ01+013331APOSP 
0076010300999991957010900004+69700+019017FM-12+001499999V0202101N00931007801CN0100001N9+00111+99999096741ADDAY181999GF108991081091008001999999MD1310031+9999MW1811EQDQ01+013331APOSP 
0057010300999991957010903004+69700+019017FM-12+001499999V0202301N00671007801CN0100001N9+00111+99999096821ADDAY181999GF108991081091008001999999MD1210081+9999MW1831
0043010300999991957010904004+69700+019017FM-12+001499999V0202301N00671007801CN0150001N9+99999+99999096861ADDAY181999GF108991081091008001999999MW1801
0043010300999991957010905004+69700+019017FM-12+001499999V0202301N00411007801CN0400001N9+99999+99999096901ADDAY181999GF107991071091008001999999MW1021
0113010300999991957010906004+69700+019017FM-12+001499999V0203401N00211007801CN0400001N9+00171+99999096911ADDAA199018091AY181999GF106991061091008001001001KA1999M+00331KA2999N-00061MD1210091+9999MW1801EQDQ01+011311APOSP 
0043010300999991957010907004+69700+019017FM-12+001499999V0203601N00311007801CN0400001N9+99999+99999096951ADDAY181999GF107991071091008001999999MW1801
0043010300999991957010908004+69700+019017FM-12+001499999V0202701N00101007801CN0400001N9+99999+99999096971ADDAY181999GF107991071091008001999999MW1021
0057010300999991957010909004+69700+019017FM-12+001499999V0203201N00261007801CN0100001N9+00111+99999097021ADDAY181999GF108991081091008001999999MD1210111+9999MW1831
0043010300999991957010910004+69700+019017FM-12+001499999V0203601N00261007801CN0400001N9+99999+99999097111ADDAY181999GF108991081081008001999999MW1021
0043010300999991957010911004+69700+019017FM-12+001499999V0209991C00001007801CN0400001N9+99999+99999097131ADDAY121999GF108991081081008001999999MW1021
0076010300999991957010912004+69700+019017FM-12+001499999V0203601N00101007801CN0400001N9+00061+99999097171ADDAY181999GF108991081081008001999999MD1210151+9999MW1021EQDQ01+011301APOSP 
0043010300999991957010913004+69700+019017FM-12+001499999V0203601N00461007801CN0400001N9+99999+99999097211ADDAY121999GF108991081081008001999999MW1021
0043010300999991957010914004+69700+019017FM-12+001499999V0203601N00261007801CN0400001N9+99999+99999097251ADDAY121999GF108991081081008001999999MW1021
0057010300999991957010915004+69700+019017FM-12+001499999V0209991C00001007801CN0400001N9+00001+99999097291ADDAY121999GF108991081081008001999999MD1210121+9999MW1021
0043010300999991957010916004+69700+019017FM-12+001499999V0200701N00261007801CN0400001N9+99999+99999097361ADDAY121999GF108991081081008001999999MW1021
0043010300999991957010917004+69700+019017FM-12+001499999V0200901N00261007801CN0450001N9+99999+99999097421ADDAY121999GF107991071081008001001001MW1011
0113010300999991957010918004+69700+019017FM-12+001499999V0200501N00671007801CN0500001N9+00061+99999097491ADDAA199000691AY181999GF107991071081008001001001KA1999M+00221KA2999N-00061MD1210201+9999MW1271EQDQ01+012311APOSP 
0076010300999991957011000004+69700+019017FM-12+001499999V0201401N00261007801CN0070001N9-00111+99999098041ADDAY181999GF108991081091008001999999MD1210201+9999MW1851EQDQ01+011311APOSP 
0057010300999991957011003004+69700+019017FM-12+001499999V0203601N00261000601CN0005001N9-00111+99999098271ADDAY181999GF109991091999000751999999MD1210231+9999MW1861
0043010300999991957011004004+69700+019017FM-12+001499999V0200501N00261007801CN0140001N9+99999+99999098381ADDAY181999GF107991071091008001001001MW1851
0043010300999991957011005004+69700+019017FM-12+001499999V0203201N00261007801CN0100001N9+99999+99999098481ADDAY181999GF108991081091008001999999MW1851
0113010300999991957011006004+69700+019017FM-12+001499999V0200201N00101007801CN0180001N9-00111+99999098581ADDAA199001091AY181999GF107991071091008001001001KA1999M+00111KA2999N-00221MD1210311+9999MW1851EQDQ01+010301APOSP 
0043010300999991957011007004+69700+019017FM-12+001499999V0203601N00461007801CN0040001N9+99999+99999098701ADDAY181999GF108991081091008001999999MW1851
0043010300999991957011008004+69700+019017FM-12+001499999V0201601N00261007801CN0400001N9+99999+99999098791ADDAY181999GF106991061081008001001001MW1151
0057010300999991957011009004+69700+019017FM-12+001499999V0200701N00261007801CN0020001N9-00061+99999098881ADDAY181999GF107991071091008001001001MD1210301+9999MW1851
0043010300999991957011010004+69700+019017FM-12+001499999V0203601N00101007801CN0400001N9+99999+99999099031ADDAY181999GF107991071091008001001001MW1151
0043010300999991957011011004+69700+019017FM-12+001499999V0203601N00671007801CN0400001N9+99999+99999099141ADDAY181999GF108991081091008001999999MW1151
0076010300999991957011012004+69700+019017FM-12+001499999V0203601N00671007801CN0500001N9+00001+99999099191ADDAY181999GF107991061081008001041001MD1210311+9999MW1021EQDQ01+012311APOSP 
0043010300999991957011013004+69700+019017FM-12+001499999V0203601N00671007801CN0400001N9+99999+99999099291ADDAY121999GF107991061081008001041001MW1151
0043010300999991957011014004+69700+019017FM-12+001499999V0203601N00931007801CN0400001N9+99999+99999099421ADDAY121999GF107991061081008001041001MW1151
0057010300999991957011015004+69700+019017FM-12+001499999V0203601N00771007801CN0015001N9-00111+99999099521ADDAY181999GF108991081081008001999999MD1210331+9999MW1861
0043010300999991957011016004+69700+019017FM-12+001499999V0202701N00101007801CN0500001N9+99999+99999099621ADDAY181999GF107991051081008001041001MW1021
0043010300999991957011017004+69700+019017FM-12+001499999V0203401N00461007801CN0500001N9+99999+99999099731ADDAY121999GF107991051081008001041001MW1021
0113010300999991957011018004+69700+019017FM-12+001499999V0203501N004119999999N0500001N9-00171+99999099781ADDAA199001091AY181999GF103991021081008001041001KA1999M+00061KA2999N-00281MD1210261+9999MW1011EQDQ01+011311APOSP 
0076010300999991957011100004+69700+019017FM-12+001499999V0203601N00821007801CN0040001N9-00171+99999100251ADDAY181999GF108991081081008001999999MD1210241+9999MW1851EQDQ01+012321APOSP 
0057010300999991957011103004+69700+019017FM-12+001499999V0203601N00511007801CN0200001N9-00171+99999100351ADDAY181999GF108991081081008001999999MD1210101+9999MW1151
0043010300999991957011104004+69700+019017FM-12+001499999V0203601N00821000601CN0005001N9+99999+99999100421ADDAY181999GF109991091999000751999999MW1861
0043010300999991957011105004+69700+019017FM-12+001499999V0203601N00821000601CN0005001N9+99999+99999100461ADDAY181999GF109991091999000751999999MW1861
0113010300999991957011106004+69700+019017FM-12+001499999V0203401N00821000601CN0005001N9-00171+99999100481ADDAA199002091AY181999GF109991091999000751999999KA1999M+00001KA2999N-00331MD1210131+9999MW1861EQDQ01+012321APOSP 
0043010300999991957011107004+69700+019017FM-12+001499999V0203601N00821007801CN0300001N9+99999+99999100511ADDAY181999GF108991081091008001999999MW1151
0043010300999991957011108004+69700+019017FM-12+001499999V0200201N00721007801CN0400001N9+99999+99999100611ADDAY121999GF107991071091008001001001MW1151
0057010300999991957011109004+69700+019017FM-12+001499999V0203601N00361007801CN0500001N9-00111+99999100651ADDAY121999GF106991061081008001061001MD1210171+9999MW1011
0043010300999991957011110004+69700+019017FM-12+001499999V0203401N00461007801CN0200001N9+99999+99999100691ADDAY181999GF107991071081008001001001MW1851
0043010300999991957011111004+69700+019017FM-12+001499999V0203401N00461004501CN0100001N9+99999+99999100671ADDAY181999GF106991061081004501001001MW1851
0076010300999991957011112004+69700+019017FM-12+001499999V0203601N00671004501CN0040001N9-00061+99999100711ADDAY181999GF107991071091004501001001MD1110061+9999MW1861EQDQ01+012311APOSP 
0043010300999991957011113004+69700+019017FM-12+001499999V0203401N00261007801CN0400001N9+99999+99999100721ADDAY181999GF105991051081008001001001MW1151
0043010300999991957011114004+69700+019017FM-12+001499999V0203601N00261007801CN0100001N9+99999+99999100791ADDAY181999GF106991061081008001001001MW1851
0057010300999991957011115004+69700+019017FM-12+001499999V0203201N00101004501CN0100001N9-00221+99999100791ADDAY181999GF106991051081004501061001MD1110081+9999MW1851
0043010300999991957011116004+69700+019017FM-12+001499999V0209991C00001004501CN0120001N9+99999+99999100791ADDAY181999GF106991051081004501061001MW1851
0043010300999991957011117004+69700+019017FM-12+001499999V0202501N001019999999N0400001N9+99999+99999100791ADDAY181999GF105991031081008001061001MW1151
0113010300999991957011118004+69700+019017FM-12+001499999V0202501N00101007801CN0140001N9-00281+99999100791ADDAA199001091AY181999GF106991051081008001061001KA1999M-00061KA2999N-00331MD1410001+9999MW1851EQDQ01+010311APOSP 
0076010300999991957011200004+69700+019017FM-12+001499999V0209991C000019999999N0500001N9-00441+99999100721ADDAY181999GF103991031051008001001001MD1710021+9999MW1031EQDQ01+010301APOSP 
0057010300999991957011203004+69700+019017FM-12+001499999V0209991C000019999999N0500001N9-00501+99999100691ADDAY101999GF103991031051012501001001MD1710031+9999MW1021
0043010300999991957011204004+69700+019017FM-12+001499999V0209991C000019999999N0500001N9+99999+99999100671ADDAY101999GF103991031051008001001001MW1021
0043010300999991957011205004+69700+019017FM-12+001499999V0209991C000019999999N0500001N9+99999+99999100721ADDAY101999GF104991041051008001001001MW1031
0113010300999991957011206004+69700+019017FM-12+001499999V0209991C00001007801CN0500001N9-00441+99999100771ADDAA199002091AY111999GF105991051051008001001001KA1999M-00171KA2999N-00611MD1310081+9999MW1031EQDQ01+010301APOSP 
0043010300999991957011207004+69700+019017FM-12+001499999V0202701N001019999999N0500001N9+99999+99999100831ADDAY111999GF101991011051008001001001MW1011
0043010300999991957011208004+69700+019017FM-12+001499999V0209991C000019999999N0500001N9+99999+99999100861ADDAY101999GF101991011051008001001001MW1021
0076010300999991957011209004+69700+019017FM-12+001499999V0209991C000019999999N0500001N9-00611+99999100931ADDAY101999GF101991011051008001001001MD1210161+9999MW1021EQDQ01+010301APOSP 
0043010300999991957011210004+69700+019017FM-12+001499999V0200901N001019999999N0500001N9+99999+99999101011ADDAY101999GF101991011051008001001001MW1021
0043010300999991957011211004+69700+019017FM-12+001499999V0202501N001019999999N0500001N9+99999+99999101071ADDAY101999GF101991011051012501001001MW1021
0076010300999991957011212004+69700+019017FM-12+001499999V0209991C000019999999N0500001N9-00611+99999101121ADDAY101999GF101991011051012501041001MD1210191+9999MW1021EQDQ01+011301APOSP 
0043010300999991957011213004+69700+019017FM-12+001499999V0202001N001019999999N0500001N9+99999+99999101231ADDAY101999GF101991011051012501001001MW1021
0043010300999991957011214004+69700+019017FM-12+001499999V0202701N001019999999N0500001N9+99999+99999101291ADDAY101999GF101991011051012501001001MW1021
0057010300999991957011215004+69700+019017FM-12+001499999V0202501N001019999999N0500001N9-00721+99999101371ADDAY101999GF101991011051012501001001MD1210251+9999MW1021
0043010300999991957011216004+69700+019017FM-12+001499999V0202501N001019999999N0500001N9+99999+99999101461ADDAY101999GF101991011051017501001001MW1021
0043010300999991957011217004+69700+019017FM-12+001499999V0209991C000019999999N0500001N9+99999+99999101551ADDAY101999GF101991011051017501001001MW1021
0102010300999991957011218004+69700+019017FM-12+001499999V0202501N001019999999N0500001N9-00721+99999101651ADDAY101999GF101991011061000751001001KA1999M-00331KA2999N-00831MD1210281+9999MW1021EQDQ01+011301APOSP 
0076010300999991957011300004+69700+019017FM-12+001499999V0202301N002119999999N0500001N9-00671+99999102171ADDAY101999GF107991041051012501041001MD1210201+9999MW1031EQDQ01+011301APOSP 
0057010300999991957011303004+69700+019017FM-12+001499999V0202501N001019999999N0500001N9-00671+99999102431ADDAY121999GF107991041051008001041001MD1210261+9999MW1021
0102010300999991957011306004+69700+019017FM-12+001499999V0202501N002619999999N0500001N9-00721+99999102581ADDAY121999GF101991011051008001041001KA1999M-00561KA2999N-00831MD1210151+9999MW1011EQDQ01+011301APOSP 
0057010300999991957011309004+69700+019017FM-12+001499999V0202301N002619999999N0500001N9-00721+99999102771ADDAY101999GF102991011061008001041001MD1210191+9999MW1031
0076010300999991957011312004+69700+019017FM-12+001499999V0202301N004619999999N0500001N9-00611+99999102791ADDAY101999GF104991011061008001051001MD1110021+9999MW1031EQDQ01+011301APOSP 
0057010300999991957011315004+69700+019017FM-12+001499999V0202401N004619999999N0500001N9-00501+99999102751ADDAY111999GF105991041081008001051001MD1710041+9999MW1021
0102010300999991957011318004+69700+019017FM-12+001499999V0202301N009319999999N0500001N9-00331+99999102661ADDAY111999GF104991041081008001001001KA1999M-00281KA2999N-00831MD1710091+9999MW1021EQDQ01+012321APOSP 
0076010300999991957011400004+69700+019017FM-12+001499999V0202101N012319999999N0500001N9-00111+99999102201ADDAY121999GF106991011051012501051001MD1710351+9999MW1031EQDQ01+013321APOSP 
0057010300999991957011403004+69700+019017FM-12+001499999V0202301N01231012301CN0500001N9+00001+99999101851ADDAY121999GF108991081001012501021999MD1710351+9999MW1021
0043010300999991957011404004+69700+019017FM-12+001499999V0202301N01231012301CN0500001N9+99999+99999101831ADDAY121999GF108991081001012501021999MW1021
0043010300999991957011405004+69700+019017FM-12+001499999V0202301N01231012301CN0500001N9+99999+99999101771ADDAY121999GF108991081001012501021999MW1021
0102010300999991957011406004+69700+019017FM-12+001499999V0202301N01231012301CN0500001N9+00061+99999101681ADDAY121999GF108991081001012501021999KA1999M+00111KA2999N-00391MD1710171+9999MW1021EQDQ01+013331APOSP 
0043010300999991957011407004+69700+019017FM-12+001499999V0202301N01231007801CN0500001N9+99999+99999101501ADDAY121999GF108991081081008001999999MW1021
0043010300999991957011408004+69700+019017FM-12+001499999V0202301N01231007801CN0450001N9+99999+99999101421ADDAY121999GF108991081081008001999999MW1021
0057010300999991957011409004+69700+019017FM-12+001499999V0202301N01541007801CN0450001N9+00111+99999101391ADDAY121999GF108991081081008001999999MD1710291+9999MW1151
0043010300999991957011410004+69700+019017FM-12+001499999V0202301N01441007801CN0450001N9+99999+99999101281ADDAY121999GF108991081081008001999999MW1151
0043010300999991957011411004+69700+019017FM-12+001499999V0202301N01231007801CN0450001N9+99999+99999101231ADDAY121999GF108991081081008001999999MW1151
0076010300999991957011412004+69700+019017FM-12+001499999V0202301N01231007801CN0400001N9+00061+99999101081ADDAY121999GF108991081081008001999999MD1710311+9999MW1021EQDQ01+013331APOSP 
0043010300999991957011413004+69700+019017FM-12+001499999V0202301N01231007801CN0300001N9+99999+99999100941ADDAY121999GF108991081051008001999999MW1701
0043010300999991957011414004+69700+019017FM-12+001499999V0202301N01231007801CN0400001N9+99999+99999100831ADDAY171999GF108991081051008001999999MW1151
0057010300999991957011415004+69700+019017FM-12+001499999V0202301N01291007801CN0400001N9+00171+99999100651ADDAY171999GF108991081051008001999999MD1710431+9999MW1701
0043010300999991957011416004+69700+019017FM-12+001499999V0202301N01391007801CN0400001N9+99999+99999100501ADDAY171999GF108991081051008001999999MW1151
0043010300999991957011417004+69700+019017FM-12+001499999V0202301N01231007801CN0400001N9+99999+99999100381ADDAY121999GF108991081051008001999999MW1021
0113010300999991957011418004+69700+019017FM-12+001499999V0202301N01231007801CN0300001N9+00281+99999100261ADDAA199000391AY171999GF108991061061008001021999KA1999M+00331KA2999N+00001MD1710391+9999MW1601EQDQ01+013331APOSP 
0076010300999991957011500004+69700+019017FM-12+001499999V0202301N00771007801CN0070001N9+00111+99999099731ADDAY171999GF108991071051008001021999MD1710251+9999MW1681EQDQ01+012321APOSP 
0057010300999991957011503004+69700+019017FM-12+001499999V0202501N00931007801CN0100001N9+00061+99999099531ADDAY171999GF108991081091008001999999MD1710201+9999MW1871
0043010300999991957011504004+69700+019017FM-12+001499999V0202301N00671007801CN0150001N9+99999+99999099511ADDAY181999GF108991081091008001999999MW1851
0043010300999991957011505004+69700+019017FM-12+001499999V0202501N00671007801CN0120001N9+99999+99999099471ADDAY181999GF107991071091008001001001MW1851
0113010300999991957011506004+69700+019017FM-12+001499999V0202501N00671007801CN0100001N9+00001+99999099441ADDAA199009091AY181999GF108991081091008001999999KA1999M+00331KA2999N-00171MD1710091+9999MW1871EQDQ01+012311APOSP 
0043010300999991957011507004+69700+019017FM-12+001499999V0203201N00461001501CN0005001N9+99999+99999099611ADDAY181999GF109991091999001501999999MW1861
0043010300999991957011508004+69700+019017FM-12+001499999V0202901N00461007801CN0060001N9+99999+99999099761ADDAY181999GF108991081091008001999999MW1851
0057010300999991957011509004+69700+019017FM-12+001499999V0202901N00461007801CN0080001N9-00221+99999099931ADDAY181999GF107991071091008001001001MD1310491+9999MW1851
0043010300999991957011510004+69700+019017FM-12+001499999V0202701N00261007801CN0100001N9+99999+99999100141ADDAY181999GF108991081091008001999999MW1871
0043010300999991957011511004+69700+019017FM-12+001499999V0202701N00461007801CN0100001N9+99999+99999100281ADDAY181999GF108991081091008001999999MW1851
0076010300999991957011512004+69700+019017FM-12+001499999V0202701N00461007801CN0200001N9-00281+99999100351ADDAY181999GF108991081091008001999999MD1210421+9999MW1851EQDQ01+012311APOSP 
0043010300999991957011513004+69700+019017FM-12+001499999V0202701N00461007801CN0450001N9+99999+99999100451ADDAY181999GF107991071091008001001001MW1151
0043010300999991957011514004+69700+019017FM-12+001499999V0202701N00461007801CN0450001N9+99999+99999100491ADDAY181999GF107991071091008001001001MW1151
0057010300999991957011515004+69700+019017FM-12+001499999V0202701N00461007801CN0450001N9-00331+99999100561ADDAY181999GF107991071091008001001001MD1210211+9999MW1271
0043010300999991957011516004+69700+019017FM-12+001499999V0202701N00261007801CN0450001N9+99999+99999100601ADDAY181999GF107991071091008001001001MW1021
0043010300999991957011517004+69700+019017FM-12+001499999V0203001N00261007801CN0200001N9+99999+99999100731ADDAY181999GF107991071091008001001001MW1851
0113010300999991957011518004+69700+019017FM-12+001499999V0203401N00461007801CN0450001N9-00281+99999100751ADDAA199010091AY181999GF107991071091008001001001KA1999M+00111KA2999N-00441MD1210191+9999MW1271EQDQ01+012311APOSP 
0076010300999991957011600004+69700+019017FM-12+001499999V0202501N00671007801CN0100001N9-00221+99999100991ADDAY181999GF108991081091008001999999MD1110021+9999MW1851EQDQ01+012311APOSP 
0057010300999991957011603004+69700+019017FM-12+001499999V0202001N00771007801CN0060001N9-00221+99999100671ADDAY181999GF108991081091008001999999MD1710321+9999MW1851
0043010300999991957011604004+69700+019017FM-12+001499999V0202001N00931007801CN0300001N9+99999+99999100431ADDAY181999GF108991081091008001999999MW1151
0043010300999991957011605004+69700+019017FM-12+001499999V0202001N00771007801CN0060001N9+99999+99999100291ADDAY181999GF108991081091008001999999MW1701
0113010300999991957011606004+69700+019017FM-12+001499999V0202301N00931007801CN0100001N9-00061+99999100131ADDAA199005091AY171999GF108991081051008001999999KA1999M-00061KA2999N-00441MD1710541+9999MW1701EQDQ01+012321APOSP 
0043010300999991957011607004+69700+019017FM-12+001499999V0202701N00671007801CN0200001N9+99999+99999100101ADDAY171999GF108991081051008001999999MW1151
0043010300999991957011608004+69700+019017FM-12+001499999V0202901N00671007801CN0300001N9+99999+99999100141ADDAY121999GF108991081081008001999999MW1151
0057010300999991957011609004+69700+019017FM-12+001499999V0202901N00771007801CN0400001N9+00331+99999100241ADDAY171999GF107991071081008001001001MD1210111+9999MW1871
0043010300999991957011610004+69700+019017FM-12+001499999V0202901N00771007801CN0100001N9+99999+99999100411ADDAY181999GF107991071091008001001001MW1871
0043010300999991957011611004+69700+019017FM-12+001499999V0203601N00771007801CN0080001N9+99999+99999100541ADDAY181999GF107991071081008001001001MW1851
0076010300999991957011612004+69700+019017FM-12+001499999V0203601N00771007801CN0080001N9+00001+99999100721ADDAY181999GF107991071081008001001001MD1210481+9999MW1851EQDQ01+012311APOSP 
0043010300999991957011613004+69700+019017FM-12+001499999V0203401N00671007801CN0100001N9+99999+99999100891ADDAY181999GF107991071081008001001001MW1871
0043010300999991957011614004+69700+019017FM-12+001499999V0203401N00671007801CN0500001N9+99999+99999101081ADDAY181999GF106991061081008001001001MW1151
0057010300999991957011615004+69700+019017FM-12+001499999V0203401N00671007801CN0120001N9+00061+99999101231ADDAY181999GF107991071081008001001001MD1210511+9999MW1871
0043010300999991957011616004+69700+019017FM-12+001499999V0203601N00461007801CN0100001N9+99999+99999101281ADDAY181999GF107991071081008001001001MW1851
0043010300999991957011617004+69700+019017FM-12+001499999V0203401N00461007801CN0150001N9+99999+99999101371ADDAY181999GF107991071081008001001001MW1851
0113010300999991957011618004+69700+019017FM-12+001499999V0202501N00261007801CN0120001N9+00001+99999101401ADDAA199006091AY181999GF107991071081008001001001KA1999M+00331KA2999N-00111MD1110171+9999MW1851EQDQ01+011311APOSP 
0092010300999991957011700004+69700+019017FM-12+001499999V0202301N010319999999N0002001N9-00111+99999100451ADDAY181999GF109991091999999999999999MD1710722+9999MW1731EQDQ01+013321APOSP Q02+000722APC3  
0057010300999991957011703004+69700+019017FM-12+001499999V0203201N00771007801CN0250001N9+00501+99999100451ADDAY171999GF108991081051008001999999MD1010001+9999MW1611
0043010300999991957011704004+69700+019017FM-12+001499999V0203201N00461007801CN0300001N9+99999+99999100441ADDAY161999GF108991081051008001999999MW1611
0043010300999991957011705004+69700+019017FM-12+001499999V0202301N00311007801CN0300001N9+99999+99999100401ADDAY161999GF108991081051008001999999MW1611
0113010300999991957011706004+69700+019017FM-12+001499999V0202001N00261007801CN0300001N9+00331+99999100391ADDAA199013091AY171999GF108991061051008001021999KA1999M+00561KA2999N-00221MD1710061+9999MW1611EQDQ01+011311APOSP 
0043010300999991957011707004+69700+019017FM-12+001499999V0202301N00261007801CN0300001N9+99999+99999100401ADDAY161999GF108991061051008001021999MW1611
0043010300999991957011708004+69700+019017FM-12+001499999V0202501N00101007801CN0150001N9+99999+99999100371ADDAY161999GF108991071051008001021999MW1631
0057010300999991957011709004+69700+019017FM-12+001499999V0202001N00261007801CN0150001N9+00391+99999100381ADDAY161999GF108991061051008001021999MD1710011+9999MW1611
0043010300999991957011710004+69700+019017FM-12+001499999V0202301N00461007801CN0150001N9+99999+99999100411ADDAY161999GF108991061051008001021999MW1611
0043010300999991957011711004+69700+019017FM-12+001499999V0202501N00461007801CN0150001N9+99999+99999100411ADDAY161999GF108991071051008001021999MW1631
0092010300999991957011712004+69700+019017FM-12+001499999V0202501N00931007801CN0150001N9+00561+99999100401ADDAY161999GF108991999051008001021999MD1010021+9999MW1631EQDQ01+000082SCOTLCQ02+012311APOSP 
0062010300999991957011713004+69700+019017FM-12+001499999V0202501N01031007801CN0200001N9+99999+99999100431ADDAY161999GF108991999051008001021999MW1611EQDQ01+000082SCOTLC
0062010300999991957011714004+69700+019017FM-12+001499999V0202501N00931007801CN0150001N9+99999+99999100451ADDAY161999GF108991999051008001021999MW1611EQDQ01+000082SCOTLC
0076010300999991957011715004+69700+019017FM-12+001499999V0202501N00931007801CN0150001N9+00561+99999100471ADDAY161999GF108991999051008001021999MD1210071+9999MW1631EQDQ01+000082SCOTLC
0062010300999991957011716004+69700+019017FM-12+001499999V0202501N00931007801CN0200001N9+99999+99999100481ADDAY161999GF108991999051008001021999MW1611EQDQ01+000082SCOTLC
0043010300999991957011717004+69700+019017FM-12+001499999V0202501N00771007801CN0200001N9+99999+99999100491ADDAY161999GF108991081051008001999999MW1681
0113010300999991957011718004+69700+019017FM-12+001499999V0202501N00671007801CN0250001N9+00561+99999100461ADDAA199023091AY161999GF108991081051008001999999KA1999M+00611KA2999N+00221MD1810011+9999MW1601EQDQ01+012321APOSP 
0076010300999991957011800004+69700+019017FM-12+001499999V0202301N00931007801CN0400001N9+00391+99999100241ADDAY181999GF107991071081008001001001MD1810131+9999MW1801EQDQ01+012321APOSP 
0057010300999991957011803004+69700+019017FM-12+001499999V0202401N00931007801CN0300001N9+00391+99999099901ADDAY181999GF108991081081008001999999MD1710341+9999MW1801
0043010300999991957011804004+69700+019017FM-12+001499999V0202401N00931007801CN0300001N9+99999+99999099661ADDAY181999GF108991081081008001999999MW1801
0043010300999991957011805004+69700+019017FM-12+001499999V0202401N01231007801CN0400001N9+99999+99999099471ADDAY181999GF107991071081008001001001MW1011
0113010300999991957011806004+69700+019017FM-12+001499999V0202401N00931007801CN0450001N9+00501+99999099281ADDAA199001091AY181999GF107991071081008001001001KA1999M+00721KA2999N+00281MD1710621+9999MW1021EQDQ01+013321APOSP 
0043010300999991957011807004+69700+019017FM-12+001499999V0202401N01231007801CN0400001N9+99999+99999099001ADDAY181999GF107991071081008001001001MW1801
0043010300999991957011808004+69700+019017FM-12+001499999V0202301N01231007801CN0400001N9+99999+99999098851ADDAY181999GF108991081081008001999999MW1151
0057010300999991957011809004+69700+019017FM-12+001499999V0202301N01541007801CN0300001N9+00501+99999098701ADDAY161999GF108991061071008001021999MD1710581+9999MW1601
0043010300999991957011810004+69700+019017FM-12+001499999V0202001N01441007801CN0200001N9+99999+99999098421ADDAY161999GF108991061071008001021999MW1611
0043010300999991957011811004+69700+019017FM-12+001499999V0202501N00931007801CN0150001N9+99999+99999098541ADDAY161999GF108991061061008001021999MW1681
0076010300999991957011812004+69700+019017FM-12+001499999V0202001N00771007801CN0300001N9+00111+99999098481ADDAY161999GF108991051061008001021999MD1710321+9999MW1151EQDQ01+012331APOSP 
0043010300999991957011813004+69700+019017FM-12+001499999V0202001N00771007801CN0300001N9+99999+99999098371ADDAY181999GF108991081091008001999999MW1151
0043010300999991957011814004+69700+019017FM-12+001499999V0202301N00511007801CN0400001N9+99999+99999098351ADDAY181999GF108991071091008001999999MW1151
0057010300999991957011815004+69700+019017FM-12+001499999V0202001N00931007801CN0100001N9-00111+99999098331ADDAY181999GF108991081091008001999999MD1710151+9999MW1851
0043010300999991957011816004+69700+019017FM-12+001499999V0202501N00671007801CN0400001N9+99999+99999098261ADDAY181999GF107991071091008001999999MW1021
0043010300999991957011817004+69700+019017FM-12+001499999V0202301N00511007801CN0400001N9+99999+99999098261ADDAY181999GF106991061091008001001001MW1011
0113010300999991957011818004+69700+019017FM-12+001499999V0202601N00771007801CN0400001N9+00061+99999098341ADDAA199011091AY181999GF106991061091008001001001KA1999M+00561KA2999N-00171MD1310011+9999MW1021EQDQ01+012311APOSP 
0076010300999991957011900004+69700+019017FM-12+001499999V0202701N00671007801CN0120001N9-00281+99999098971ADDAY181999GF106991061091008001001031MD1210301+9999MW1851EQDQ01+012321APOSP 
0057010300999991957011903004+69700+019017FM-12+001499999V0202901N00671007801CN0100001N9-00331+99999099411ADDAY181999GF107991071091008001001001MD1210441+9999MW1871
0043010300999991957011904004+69700+019017FM-12+001499999V0202901N00771004501CN0040001N9+99999+99999099521ADDAY181999GF108991081091004501999999MW1861
0043010300999991957011905004+69700+019017FM-12+001499999V0202701N00671007801CN0140001N9+99999+99999099641ADDAY181999GF107991071091008001001001MW1851
0113010300999991957011906004+69700+019017FM-12+001499999V0202901N00671001501CN0007001N9-00391+99999099711ADDAA199007091AY181999GF109991091999001501999999KA1999M+00061KA2999N-00441MD1210301+9999MW1861EQDQ01+012311APOSP 
0043010300999991957011907004+69700+019017FM-12+001499999V0202901N00671001501CN0009001N9+99999+99999099791ADDAY181999GF109991091999001501999999MW1881
0043010300999991957011908004+69700+019017FM-12+001499999V0202901N00461007801CN0070001N9+99999+99999099861ADDAY181999GF108991081091008001999999MW1851
0057010300999991957011909004+69700+019017FM-12+001499999V0202901N00461007801CN0090001N9-00441+99999099911ADDAY181999GF107991071091008001001001MD1210201+9999MW1851
0043010300999991957011910004+69700+019017FM-12+001499999V0202701N00461007801CN0020001N9+99999+99999099991ADDAY181999GF108991081091008001999999MW1851
0043010300999991957011911004+69700+019017FM-12+001499999V0202701N00461007801CN0050001N9+99999+99999100031ADDAY181999GF108991081091008001999999MW1851
0076010300999991957011912004+69700+019017FM-12+001499999V0202301N00461007801CN0450001N9-00561+99999099961ADDAY181999GF107991071091008001001001MD1010051+9999MW1261EQDQ01+012311APOSP 
0043010300999991957011913004+69700+019017FM-12+001499999V0202001N00671007801CN0300001N9+99999+99999099951ADDAY181999GF107991071091008001001001MW1851
0043010300999991957011914004+69700+019017FM-12+001499999V0202301N00261007801CN0450001N9+99999+99999099851ADDAY181999GF107991071091008001001001MW1151
0057010300999991957011915004+69700+019017FM-12+001499999V0202301N00671007801CN0400001N9-00501+99999099831ADDAY181999GF107991071091008001001001MD1710131+9999MW1871
0043010300999991957011916004+69700+019017FM-12+001499999V0202001N00461007801CN0040001N9+99999+99999099721ADDAY181999GF108991081091008001999999MW1851
0043010300999991957011917004+69700+019017FM-12+001499999V0202001N00461007801CN0040001N9+99999+99999099661ADDAY181999GF108991081091008001999999MW1851
0113010300999991957011918004+69700+019017FM-12+001499999V0202301N00261007801CN0100001N9-00441+99999099491ADDAA199005091AY181999GF108991081091008001999999KA1999M-00331KA2999N-00671MD1710341+9999MW1871EQDQ01+011311APOSP 
0092010300999991957012000004+69700+019017FM-12+001499999V0203601N00101012301CN0180001N9-00391+99999098411ADDAY181999GF108991081001012501021999MD1710652+9999MW1711EQDQ01+010311APOSP Q02+000652APC3  
0057010300999991957012003004+69700+019017FM-12+001499999V0200201N00101000601CN0005001N9-00331+99999097561ADDAY171999GF109991091999000751999999MD1710851+9999MW1731
0129010300999991957012006004+69700+019017FM-12+001499999V0202101N01541007801CN0100001N9+00331+99999096592ADDAA199003091AY171999GF108991061071008001021999KA1999M+00331KA2999N-00501MD1710971+9999MW1611EQDQ01+013331APOSP Q02+096593APOSLP
0057010300999991957012009004+69700+019017FM-12+001499999V0202101N00671007801CN0400001N9+00281+99999096661ADDAY161999GF107991061051008001041021MD1310071+9999MW1011
0076010300999991957012012004+69700+019017FM-12+001499999V0202201N00461004501CN0004001N9+00001+99999096691ADDAY181999GF107991071071004501041999MD1210031+9999MW1861EQDQ01+012331APOSP 
0057010300999991957012015004+69700+019017FM-12+001499999V0202001N00671007801CN0400001N9+00111+99999096421ADDAY181999GF105991051081008001001001MD1810271+9999MW1011
0113010300999991957012018004+69700+019017FM-12+001499999V0202201N006719999999N0400001N9+00001+99999096211ADDAA199004091AY181999GF103991031081012501001001KA1999M+00331KA2999N-00111MD1710211+9999MW1011EQDQ01+012321APOSP 
0076010300999991957012100004+69700+019017FM-12+001499999V0202301N00671007801CN0100001N9+00061+99999096071ADDAY181999GF107991071091008001001001MD1210031+9999MW1851EQDQ01+012311APOSP 
0057010300999991957012103004+69700+019017FM-12+001499999V0202101N002619999999N0500001N9-00061+99999096101ADDAY181999GF102991011021008001061021MD1010031+9999MW1011
0043010300999991957012104004+69700+019017FM-12+001499999V0202301N002619999999N0500001N9+99999+99999096131ADDAY101999GF102991011021008001061021MW1021
0043010300999991957012105004+69700+019017FM-12+001499999V0202101N004619999999N0500001N9+99999+99999096141ADDAY101999GF104991031081008001061001MW1031
0113010300999991957012106004+69700+019017FM-12+001499999V0202101N00671007801CN0500001N9+00001+99999096141ADDAA199000691AY181999GF106991051081008001061001KA1999M+00221KA2999N-00171MD1210041+9999MW1031EQDQ01+012311APOSP 
0043010300999991957012107004+69700+019017FM-12+001499999V0202301N00261007801CN0500001N9+99999+99999096171ADDAY121999GF107991061051008001041001MW1031
0043010300999991957012108004+69700+019017FM-12+001499999V0202301N00461007801CN0500001N9+99999+99999096191ADDAY121999GF107991071051008001001001MW1021
0057010300999991957012109004+69700+019017FM-12+001499999V0202301N00461007801CN0500001N9+00001+99999096261ADDAY121999GF107991071051008001001001MD1210121+9999MW1021
0043010300999991957012110004+69700+019017FM-12+001499999V0202501N00671007801CN0500001N9+99999+99999096351ADDAY121999GF106991061051008001061001MW1011
0043010300999991957012111004+69700+019017FM-12+001499999V0202301N00671007801CN0500001N9+99999+99999096431ADDAY121999GF107991071051008001061001MW1151
0076010300999991957012112004+69700+019017FM-12+001499999V0202001N00671007801CN0500001N9+00061+99999096491ADDAY181999GF106991061051008001061001MD1210231+9999MW1011EQDQ01+012311APOSP 
0043010300999991957012113004+69700+019017FM-12+001499999V0202301N00771012301CN0500001N9+99999+99999096591ADDAY121999GF106991061051012501061001MW1021
0043010300999991957012114004+69700+019017FM-12+001499999V0202301N00771012301CN0500001N9+99999+99999096671ADDAY121999GF107991061051012501061001MW1031
0076010300999991957012115004+69700+019017FM-12+001499999V0202301N00461012301CN0500001N9+00061+99999096741ADDAY121999GF107991999051012501001001MD1210251+9999MW1021EQDQ01+000062SCOTLC
0043010300999991957012116004+69700+019017FM-12+001499999V0202001N00671007801CN0250001N9+99999+99999096781ADDAY121999GF108991081081008001999999MW1851
0043010300999991957012117004+69700+019017FM-12+001499999V0202001N00671007801CN0150001N9+99999+99999096841ADDAY181999GF108991081081008001999999MW1851
0113010300999991957012118004+69700+019017FM-12+001499999V0202301N00771000601CN0005001N9+00001+99999096911ADDAA199001091AY181999GF109991091999000751999999KA1999M+00111KA2999N-00111MD1210171+9999MW1851EQDQ01+012311APOSP 
0076010300999991957012200004+69700+019017FM-12+001499999V0202301N009319999999N0500001N9+00001+99999097381ADDAY181999GF104991041051008001001001MD1210221+9999MW1011EQDQ01+012311APOSP 
0057010300999991957012203004+69700+019017FM-12+001499999V0202301N006719999999N0500001N9+00001+99999097551ADDAY101999GF102991011051008001041001MD1210171+9999MW1011
0043010300999991957012204004+69700+019017FM-12+001499999V0202301N006719999999N0500001N9+99999+99999097621ADDAY101999GF102991011051008001041001MW1021
0043010300999991957012205004+69700+019017FM-12+001499999V0202301N006719999999N0500001N9+99999+99999097691ADDAY101999GF103991021051008001041001MW1031
0113010300999991957012206004+69700+019017FM-12+001499999V0202401N00671007801CN0500001N9+00061+99999097711ADDAA199004091AY101999GF106991061081008001041001KA1999M+00111KA2999N-00111MD1210161+9999MW1031EQDQ01+012311APOSP 
0043010300999991957012207004+69700+019017FM-12+001499999V0202301N00671007801CN0500001N9+99999+99999097751ADDAY121999GF107991061081008001041001MW1031
0043010300999991957012208004+69700+019017FM-12+001499999V0202301N00931007801CN0200001N9+99999+99999097801ADDAY181999GF107991071081008001999999MW1851
0057010300999991957012209004+69700+019017FM-12+001499999V0202101N00771007801CN0300001N9-00061+99999097831ADDAY181999GF108991081081008001999999MD1210121+9999MW1851
0043010300999991957012210004+69700+019017FM-12+001499999V0202101N00931007801CN0500001N9+99999+99999097871ADDAY181999GF107991071031008001001001MW1151
0043010300999991957012211004+69700+019017FM-12+001499999V0202301N00931007801CN0500001N9+99999+99999097941ADDAY121999GF107991061031008001061001MW1021
0076010300999991957012212004+69700+019017FM-12+001499999V0202301N009319999999N0500001N9+00171+99999098001ADDAY181999GF106991041081012501061021MD1210171+9999MW1011EQDQ01+012321APOSP 
0043010300999991957012213004+69700+019017FM-12+001499999V0202101N009319999999N0500001N9+99999+99999098031ADDAY121999GF105991031081012501061021MW1011
0043010300999991957012214004+69700+019017FM-12+001499999V0202301N009319999999N0500001N9+99999+99999098071ADDAY111999GF106991041081012501061021MW1031
0057010300999991957012215004+69700+019017FM-12+001499999V0202301N009319999999N0500001N9+00111+99999098091ADDAY121999GF105991031051012501041021MD1210091+9999MW1011
0043010300999991957012216004+69700+019017FM-12+001499999V0202301N007719999999N0500001N9+99999+99999098161ADDAY111999GF105991031051012501041021MW1021
0043010300999991957012217004+69700+019017FM-12+001499999V0202301N007719999999N0500001N9+99999+99999098201ADDAY111999GF105991031051012501041021MW1021
0113010300999991957012218004+69700+019017FM-12+001499999V0202301N007719999999N0500001N9+00061+99999098251ADDAA199000691AY111999GF106991041051012501041021KA1999M+00221KA2999N-00111MD1210161+9999MW1031EQDQ01+012321APOSP 
0076010300999991957012300004+69700+019017FM-12+001499999V0202301N00671012301CN0500001N9+00061+99999098551ADDAY121999GF107991071051012501001001MD1210171+9999MW1021EQDQ01+012311APOSP 
0057010300999991957012303004+69700+019017FM-12+001499999V0202301N00671012301CN0500001N9+00001+99999098691ADDAY121999GF106991061051012501001001MD1210141+9999MW1021
0043010300999991957012304004+69700+019017FM-12+001499999V0202401N00461012301CN0500001N9+99999+99999098771ADDAY121999GF106991061051012501001001MW1021
0043010300999991957012305004+69700+019017FM-12+001499999V0202401N00461012301CN0500001N9+99999+99999098841ADDAY121999GF106991061051012501001001MW1021
0102010300999991957012306004+69700+019017FM-12+001499999V0202301N00461012301CN0500001N9-00061+99999098891ADDAY121999GF106991061051012501001011KA1999M+00111KA2999N-00111MD1210201+9999MW1021EQDQ01+012311APOSP 
0043010300999991957012307004+69700+019017FM-12+001499999V0202301N00671012301CN0500001N9+99999+99999098941ADDAY121999GF106991061051012501001011MW1021
0043010300999991957012308004+69700+019017FM-12+001499999V0202301N00671012301CN0500001N9+99999+99999099041ADDAY121999GF107991071051012501001001MW1031
0057010300999991957012309004+69700+019017FM-12+001499999V0202301N00671007801CN0100001N9+00001+99999099141ADDAY181999GF107991071081008001001001MD1210251+9999MW1851
0043010300999991957012310004+69700+019017FM-12+001499999V0202301N006719999999N0500001N9+99999+99999099211ADDAY181999GF105991031081008001041011MW1011
0043010300999991957012311004+69700+019017FM-12+001499999V0202301N006719999999N0500001N9+99999+99999099271ADDAY121999GF104991011081008001041011MW1011
0076010300999991957012312004+69700+019017FM-12+001499999V0202301N006719999999N0500001N9-00061+99999099341ADDAY181999GF104991011051008001041011MD1210201+9999MW1021EQDQ01+012311APOSP 
0043010300999991957012313004+69700+019017FM-12+001499999V0202701N003119999999N0500001N9+99999+99999099411ADDAY121999GF106991011051008001041021MW1031
0043010300999991957012314004+69700+019017FM-12+001499999V0202301N003119999999N0500001N9+99999+99999099481ADDAY121999GF106991031051012501041021MW1021
0057010300999991957012315004+69700+019017FM-12+001499999V0202301N002119999999N0500001N9-00281+99999099551ADDAY121999GF106991031051012501041021MD1210211+9999MW1021
0043010300999991957012316004+69700+019017FM-12+001499999V0202501N001019999999N0500001N9+99999+99999099691ADDAY121999GF105991031051012501041021MW1011
0043010300999991957012317004+69700+019017FM-12+001499999V0202301N002119999999N0500001N9+99999+99999099741ADDAY121999GF104991021051012501041001MW1011
0113010300999991957012318004+69700+019017FM-12+001499999V0202501N001019999999N0500001N9-00281+99999099831ADDAA199000691AY121999GF102991021051012501041001KA1999M+00001KA2999N-00391MD1210281+9999MW1011EQDQ01+011311APOSP 
0076010300999991957012400004+69700+019017FM-12+001499999V0202301N002619999999N0500001N9-00281+99999100451ADDAY101999GF102991011051012501041001MD1210301+9999MW1021EQDQ01+011301APOSP 
0057010300999991957012403004+69700+019017FM-12+001499999V0202301N00671007801CN0150001N9+00001+99999100611ADDAY181999GF108991081081008001999999MD1210161+9999MW1851
0043010300999991957012404004+69700+019017FM-12+001499999V0202301N00671007801CN0400001N9+99999+99999100661ADDAY181999GF107991071081008001001001MW1851
0043010300999991957012405004+69700+019017FM-12+001499999V0202301N00461007801CN0400001N9+99999+99999100721ADDAY181999GF107991071081008001001001MW1151
0113010300999991957012406004+69700+019017FM-12+001499999V0202301N00511012301CN0500001N9+00001+99999100771ADDAA199002091AY181999GF106991061051012501001001KA1999M+00061KA2999N-00391MD1210161+9999MW1011EQDQ01+011311APOSP 
0043010300999991957012407004+69700+019017FM-12+001499999V0202301N00511012301CN0500001N9+99999+99999100831ADDAY121999GF107991071051012501001001MW1031
0062010300999991957012408004+69700+019017FM-12+001499999V0202501N00671012301CN0500001N9+99999+99999100881ADDAY121999GF106991999051012501001001MW1011EQDQ01+000052SCOTLC
0076010300999991957012409004+69700+019017FM-12+001499999V0202301N00671012301CN0500001N9+00111+99999100941ADDAY121999GF107991999051012501001001MD1210171+9999MW1031EQDQ01+000052SCOTLC
0043010300999991957012410004+69700+019017FM-12+001499999V0202301N00671007801CN0400001N9+99999+99999101071ADDAY181999GF107991071081008001001001MW1851
0043010300999991957012411004+69700+019017FM-12+001499999V0202201N00671007801CN0500001N9+99999+99999101071ADDAY181999GF107991071081008001001001MW1021
0076010300999991957012412004+69700+019017FM-12+001499999V0202301N00671007801CN0500001N9+00171+99999101101ADDAY181999GF107991071051008001001011MD1110161+9999MW1021EQDQ01+012311APOSP 
0043010300999991957012413004+69700+019017FM-12+001499999V0202301N00671007801CN0500001N9+99999+99999101111ADDAY121999GF107991071051008001001011MW1021
0043010300999991957012414004+69700+019017FM-12+001499999V0202301N00461012301CN0500001N9+99999+99999101111ADDAY121999GF106991061051012501001001MW1011
0057010300999991957012415004+69700+019017FM-12+001499999V0202301N00261012301CN0500001N9+00111+99999101121ADDAY121999GF107991071051012501001001MD1210021+9999MW1031
0043010300999991957012416004+69700+019017FM-12+001499999V0202401N00261012301CN0500001N9+99999+99999101091ADDAY121999GF107991071051012501001001MW1021
0043010300999991957012417004+69700+019017FM-12+001499999V0202301N00261012301CN0500001N9+99999+99999101111ADDAY121999GF108991081051012501999999MW1031
0113010300999991957012418004+69700+019017FM-12+001499999V0202501N00411012301CN0500001N9+00061+99999101131ADDAA199000691AY121999GF107991071051012501001001KA1999M+00171KA2999N-00061MD1210011+9999MW1011EQDQ01+011301APOSP 
0076010300999991957012500004+69700+019017FM-12+001499999V0209991C000019999999N0500001N9-00281+99999101121ADDAY121999GF104991031051012501041001MD1410001+9999MW1031EQDQ01+010301APOSP 
0057010300999991957012503004+69700+019017FM-12+001499999V0209991C000019999999N0500001N9-00391+99999101071ADDAY111999GF102991011051012501041001MD1810051+9999MW1011
0062010300999991957012504004+69700+019017FM-12+001499999V0209991C00001220001CN0500001N9+99999+99999101061ADDAY101999GF101991999001999999041001MW1011EQDQ01+000002SCOTLC
0043010300999991957012505004+69700+019017FM-12+001499999V0209991C00001220001CN0500001N9+99999+99999101061ADDAY101999GF100991001001999999001001MW1011
0102010300999991957012506004+69700+019017FM-12+001499999V0209991C00001220001CN0500001N9-00331+99999101071ADDAY111999GF100991001001999999001001KA1999M+00111KA2999N-00501MD1510001+9999MW1021EQDQ01+010301APOSP 
0043010300999991957012507004+69700+019017FM-12+001499999V0202701N002619999999N0500001N9+99999+99999101081ADDAY101999GF101991011051012501001001MW1031
0043010300999991957012508004+69700+019017FM-12+001499999V0200701N002619999999N0500001N9+99999+99999101081ADDAY101999GF101991011051012501001001MW1021
0057010300999991957012509004+69700+019017FM-12+001499999V0201401N002619999999N0500001N9-00221+99999101111ADDAY101999GF101991011051012501001001MD1310041+9999MW1021
0043010300999991957012510004+69700+019017FM-12+001499999V0200901N008719999999N0500001N9+99999+99999101181ADDAY101999GF103991021051012501041001MW1031
0043010300999991957012511004+69700+019017FM-12+001499999V0200901N010319999999N0500001N9+99999+99999101151ADDAY111999GF104991031051012501041001MW1031
0076010300999991957012512004+69700+019017FM-12+001499999V0201201N008719999999N0500001N9-00061+99999101171ADDAY111999GF104991031051012501041021MD1110061+9999MW1021EQDQ01+012321APOSP 
0043010300999991957012513004+69700+019017FM-12+001499999V0201201N007719999999N0500001N9+99999+99999101191ADDAY111999GF104991031051012501041021MW1021
0043010300999991957012514004+69700+019017FM-12+001499999V0201201N010319999999N0500001N9+99999+99999101231ADDAY111999GF107991041051012501041021MW1031
0057010300999991957012515004+69700+019017FM-12+001499999V0200901N008719999999N0500001N9-00281+99999101221ADDAY121999GF108991011051012501021999MD1010051+9999MW1031
0043010300999991957012516004+69700+019017FM-12+001499999V0200901N00871015001CN0500001N9+99999+99999101191ADDAY121999GF108991081001017501021999MW1021
0043010300999991957012517004+69700+019017FM-12+001499999V0200901N00871015001CN0500001N9+99999+99999101171ADDAY121999GF107991071001017501021999MW1011
0102010300999991957012518004+69700+019017FM-12+001499999V0201201N00771015001CN0500001N9-00331+99999101111ADDAY121999GF105991051001017501021001KA1999M+00001KA2999N-00441MD1710111+9999MW1011EQDQ01+012331APOSP 
0076010300999991957012600004+69700+019017FM-12+001499999V0200501N00261012301CN0500001N9-00391+99999100921ADDAY121999GF108991081051012501999999MD1710121+9999MW1031EQDQ01+011311APOSP 
0057010300999991957012603004+69700+019017FM-12+001499999V0201101N00261012301CN0500001N9-00331+99999100901ADDAY121999GF107991071051012501999999MD1710021+9999MW1021
0043010300999991957012604004+69700+019017FM-12+001499999V0200501N00101012301CN0500001N9+99999+99999100861ADDAY121999GF108991081051012501999999MW1021
0043010300999991957012605004+69700+019017FM-12+001499999V0202501N00261012301CN0500001N9+99999+99999100861ADDAY121999GF108991081051012501999999MW1021
0102010300999991957012606004+69700+019017FM-12+001499999V0202501N00511012301CN0500001N9-00221+99999100861ADDAY121999GF108991081051012501999999KA1999M-00171KA2999N-00611MD1710041+9999MW1021EQDQ01+011311APOSP 
0043010300999991957012607004+69700+019017FM-12+001499999V0202501N00671012301CN0500001N9+99999+99999100881ADDAY121999GF108991081051012501999999MW1021
0043010300999991957012608004+69700+019017FM-12+001499999V0202301N00771012301CN0500001N9+99999+99999100891ADDAY121999GF108991051051012501041999MW1021
0057010300999991957012609004+69700+019017FM-12+001499999V0202301N007719999999N0500001N9-00281+99999100881ADDAY121999GF108991041051012501041999MD1210021+9999MW1021
0043010300999991957012610004+69700+019017FM-12+001499999V0202301N005119999999N0500001N9+99999+99999100931ADDAY121999GF107991021051012501071001MW1011
0043010300999991957012611004+69700+019017FM-12+001499999V0202501N00261024001CN0500001N9+99999+99999100931ADDAY121999GF107991071001999999071001MW1021
0076010300999991957012612004+69700+019017FM-12+001499999V0202301N00261024001CN0500001N9-00221+99999100931ADDAY121999GF107991061001999999071021MD1110051+9999MW1011EQDQ01+011311APOSP 
0043010300999991957012613004+69700+019017FM-12+001499999V0202301N00461024001CN0500001N9+99999+99999100891ADDAY121999GF106991051001999999071021MW1011
0043010300999991957012614004+69700+019017FM-12+001499999V0202301N00671024001CN0500001N9+99999+99999100841ADDAY121999GF106991051001999999071021MW1021
0057010300999991957012615004+69700+019017FM-12+001499999V0202301N00671024001CN0500001N9-00281+99999100751ADDAY121999GF107991061001999999071021MD1810181+9999MW1031
0043010300999991957012616004+69700+019017FM-12+001499999V0202301N00671024001CN0500001N9+99999+99999100661ADDAY121999GF107991061001999999071021MW1021
0043010300999991957012617004+69700+019017FM-12+001499999V0202301N00671024001CN0500001N9+99999+99999100631ADDAY121999GF108991081001999999071999MW1031
0102010300999991957012618004+69700+019017FM-12+001499999V0202101N00671024001CN0500001N9-00171+99999100601ADDAY121999GF108991081001999999071999KA1999M-00171KA2999N-00331MD1710151+9999MW1021EQDQ01+012311APOSP 
0076010300999991957012700004+69700+019017FM-12+001499999V0202201N00671012301CN0500001N9-00221+99999100221ADDAY121999GF106991061051012501001001MD1710181+9999MW1021EQDQ01+012311APOSP 
0057010300999991957012703004+69700+019017FM-12+001499999V0202101N004619999999N0500001N9-00171+99999099921ADDAY121999GF103991031051012501001001MD1710301+9999MW1011
0102010300999991957012706004+69700+019017FM-12+001499999V0209991C000019999999N0500001N9-00331+99999099801ADDAY111999GF104991041051012501001001KA1999M+00061KA2999N-00391MD1710121+9999MW1021EQDQ01+010311APOSP 
0057010300999991957012709004+69700+019017FM-12+001499999V0200201N004619999999N0500001N9-00111+99999099661ADDAY121999GF108991021051012501071999MD1710141+9999MW1021
0076010300999991957012712004+69700+019017FM-12+001499999V0202201N006719999999N0500001N9-00171+99999099511ADDAY121999GF107991021051008001071001MD1710151+9999MW1021EQDQ01+012321APOSP 
0057010300999991957012715004+69700+019017FM-12+001499999V0202101N006719999999N0500001N9-00061+99999099661ADDAY121999GF108991021051012501071999MD1310151+9999MW1021
0102010300999991957012718004+69700+019017FM-12+001499999V0202301N005119999999N0500001N9-00331+99999099791ADDAY121999GF103991031051012501999999KA1999M+00001KA2999N-00391MD1210131+9999MW1011EQDQ01+012311APOSP 
0076010300999991957012800004+69700+019017FM-12+001499999V0202301N009319999999N0500001N9-00281+99999099981ADDAY111999GF104991041051012501001001MD1210151+9999MW1021EQDQ01+012311APOSP 
0057010300999991957012803004+69700+019017FM-12+001499999V0202301N00771012301CN0500001N9-00281+99999100141ADDAY121999GF106991061051012501001001MD1210161+9999MW1031
0043010300999991957012804004+69700+019017FM-12+001499999V0202301N00771012301CN0500001N9+99999+99999100221ADDAY121999GF106991061051012501001001MW1021
0043010300999991957012805004+69700+019017FM-12+001499999V0202301N00771012301CN0500001N9+99999+99999100301ADDAY121999GF106991061051012501001001MW1021
0102010300999991957012806004+69700+019017FM-12+001499999V0202301N00771012301CN0500001N9-00281+99999100351ADDAY121999GF106991051051012501041021KA1999M-00221KA2999N-00441MD1210211+9999MW1021EQDQ01+012311APOSP 
0043010300999991957012807004+69700+019017FM-12+001499999V0202301N00671012301CN0500001N9+99999+99999100441ADDAY121999GF108991061051012501041999MW1031
0043010300999991957012808004+69700+019017FM-12+001499999V0202301N00671012301CN0300001N9+99999+99999100551ADDAY171999GF108991081051012501999999MW1701
0057010300999991957012809004+69700+019017FM-12+001499999V0202501N00571012301CN0400001N9-00331+99999100601ADDAY171999GF108991061051012501041999MD1210251+9999MW1151
0043010300999991957012810004+69700+019017FM-12+001499999V0202301N00621012301CN0400001N9+99999+99999100701ADDAY121999GF108991061051012501071999MW1021
0043010300999991957012811004+69700+019017FM-12+001499999V0202301N00671012301CN0400001N9+99999+99999100751ADDAY121999GF108991071051012501071999MW1021
0076010300999991957012812004+69700+019017FM-12+001499999V0202301N00671012301CN0400001N9-00281+99999100811ADDAY171999GF108991081051012501999999MD1210211+9999MW1021EQDQ01+012311APOSP 
0043010300999991957012813004+69700+019017FM-12+001499999V0202301N00671012301CN0400001N9+99999+99999100841ADDAY121999GF107991051051012501071001MW1011
0043010300999991957012814004+69700+019017FM-12+001499999V0202301N004619999999N0400001N9+99999+99999100891ADDAY121999GF106991041051012501051001MW1011
0057010300999991957012815004+69700+019017FM-12+001499999V0202301N006219999999N0400001N9-00391+99999100931ADDAY111999GF102991011051012501041011MD1210121+9999MW1011
0043010300999991957012816004+69700+019017FM-12+001499999V0202301N004619999999N0500001N9+99999+99999100901ADDAY101999GF101991011051012501001001MW1011
0043010300999991957012817004+69700+019017FM-12+001499999V0202401N002119999999N0500001N9+99999+99999100861ADDAY101999GF101991011051012501001001MW1021
0113010300999991957012818004+69700+019017FM-12+001499999V0202301N004619999999N0500001N9-00391+99999100861ADDAA199000691AY101999GF101991011051012501001001KA1999M-00221KA2999N-00501MD1810071+9999MW1021EQDQ01+011301APOSP 
0076010300999991957012900004+69700+019017FM-12+001499999V0202501N00261012301CN0500001N9-00501+99999100371ADDAY121999GF107991071051012501001001MD1710311+9999MW1031EQDQ01+011301APOSP 
0057010300999991957012903004+69700+019017FM-12+001499999V0202301N01031021001CN0500001N9-00171+99999099951ADDAY121999GF108991081001022501071999MD1710421+9999MW1031
0043010300999991957012904004+69700+019017FM-12+001499999V0202301N00871021001CN0500001N9+99999+99999099741ADDAY121999GF108991081001022501071999MW1021
0043010300999991957012905004+69700+019017FM-12+001499999V0202301N01181021001CN0500001N9+99999+99999099661ADDAY121999GF108991081001022501021999MW1021
0102010300999991957012906004+69700+019017FM-12+001499999V0202001N00931021001CN0500001N9-00061+99999099761ADDAY121999GF108991081001022501021999KA1999M+00111KA2999N-00671MD1510191+9999MW1021EQDQ01+013331APOSP 
0043010300999991957012907004+69700+019017FM-12+001499999V0202301N00931012301CN0150001N9+99999+99999099761ADDAY171999GF108991081051012501999999MW1701
0043010300999991957012908004+69700+019017FM-12+001499999V0202301N01031012301CN0150001N9+99999+99999099771ADDAY171999GF108991081051012501999999MW1701
0057010300999991957012909004+69700+019017FM-12+001499999V0202001N00771012301CN0250001N9-00111+99999099811ADDAY171999GF108991081051012501999999MD1110051+9999MW1701
0043010300999991957012910004+69700+019017FM-12+001499999V0202301N00671007801CN0200001N9+99999+99999099841ADDAY171999GF108991081051008001999999MW1701
0043010300999991957012911004+69700+019017FM-12+001499999V0202301N00671007801CN0200001N9+99999+99999099801ADDAY171999GF108991081051008001999999MW1701
0076010300999991957012912004+69700+019017FM-12+001499999V0202301N00771007801CN0400001N9-00061+99999099771ADDAY171999GF108991081051008001999999MD1810041+9999MW1151EQDQ01+012311APOSP 
0043010300999991957012913004+69700+019017FM-12+001499999V0202301N00771007801CN0300001N9+99999+99999099791ADDAY171999GF108991081051008001999999MW1701
0043010300999991957012914004+69700+019017FM-12+001499999V0202301N00671007801CN0300001N9+99999+99999099831ADDAY171999GF108991081051008001999999MW1701
0057010300999991957012915004+69700+019017FM-12+001499999V0202301N00771007801CN0500001N9-00061+99999099851ADDAY171999GF107991071051008001999999MD1210081+9999MW1011
0043010300999991957012916004+69700+019017FM-12+001499999V0202301N00511007801CN0500001N9+99999+99999099921ADDAY121999GF107991061051008001041999MW1021
0043010300999991957012917004+69700+019017FM-12+001499999V0202301N003119999999N0500001N9+99999+99999099901ADDAY111999GF102991021051012501041001MW1011
0113010300999991957012918004+69700+019017FM-12+001499999V0202301N006219999999N0500001N9+00061+99999099911ADDAA199000391AY171999GF104991031081012501041001KA1999M+00061KA2999N-00281MD1210061+9999MW1031EQDQ01+012311APOSP 
0076010300999991957013000004+69700+019017FM-12+001499999V0202101N012319999999N0500001N9+00171+99999099931ADDAY171999GF105991041051012501041001MD1210061+9999MW1011EQDQ01+013331APOSP 
0057010300999991957013003004+69700+019017FM-12+001499999V0202101N012319999999N0500001N9+00171+99999099891ADDAY121999GF107991021051012501011001MD1710041+9999MW1031
0043010300999991957013004004+69700+019017FM-12+001499999V0202101N01231012301CN0500001N9+99999+99999099901ADDAY121999GF108991071051012501999999MW1031
0043010300999991957013005004+69700+019017FM-12+001499999V0202101N01231012301CN0300001N9+99999+99999099901ADDAY121999GF108991071051012501999999MW1701
0113010300999991957013006004+69700+019017FM-12+001499999V0202101N01231007801CN0100001N9+00111+99999099911ADDAA199002091AY171999GF108991071051008001021999KA1999M+00221KA2999N-00061MD1210021+9999MW1681EQDQ01+013331APOSP 
0043010300999991957013007004+69700+019017FM-12+001499999V0202301N00931007801CN0070001N9+99999+99999099971ADDAY171999GF108991081091008001999999MW1851
0043010300999991957013008004+69700+019017FM-12+001499999V0202301N00931004501CN0060001N9+99999+99999100061ADDAY181999GF108991081091004501999999MW1851
0057010300999991957013009004+69700+019017FM-12+001499999V0202301N01031007801CN0100001N9+00111+99999100071ADDAY181999GF108991081071008001999999MD1110161+9999MW1681
0043010300999991957013010004+69700+019017FM-12+001499999V0202301N01031007801CN0060001N9+99999+99999100271ADDAY181999GF108991081071008001999999MW1851
0043010300999991957013011004+69700+019017FM-12+001499999V0202001N00931007801CN0150001N9+99999+99999100361ADDAY181999GF108991081091008001999999MW1151
0076010300999991957013012004+69700+019017FM-12+001499999V0202301N00671007801CN0300001N9+00221+99999100471ADDAY181999GF107991071081008001001001MD1210401+9999MW1151EQDQ01+012331APOSP 
0043010300999991957013013004+69700+019017FM-12+001499999V0202301N00771007801CN0300001N9+99999+99999100521ADDAY181999GF107991071081008001001001MW1831
0043010300999991957013014004+69700+019017FM-12+001499999V0202301N00771007801CN0300001N9+99999+99999100561ADDAY181999GF108991081081008001999999MW1151
0057010300999991957013015004+69700+019017FM-12+001499999V0202301N00671007801CN0250001N9+00171+99999100631ADDAY181999GF108991081081008001999999MD1210161+9999MW1831
0043010300999991957013016004+69700+019017FM-12+001499999V0202301N00671007801CN0060001N9+99999+99999100771ADDAY181999GF108991081091008001999999MW1851
0043010300999991957013017004+69700+019017FM-12+001499999V0202301N00771007801CN0100001N9+99999+99999100891ADDAY181999GF108991081091008001999999MW1831
0113010300999991957013018004+69700+019017FM-12+001499999V0202301N00671007801CN0060001N9+00061+99999100961ADDAA199017091AY181999GF108991081091008001999999KA1999M+00331KA2999N+00001MD1210331+9999MW1831EQDQ01+012321APOSP 
0076010300999991957013100004+69700+019017FM-12+001499999V0202301N00671007801CN0500001N9+00441+99999101181ADDAY181999GF107991071091008001001001MD1210101+9999MW1021EQDQ01+012311APOSP 
0057010300999991957013103004+69700+019017FM-12+001499999V0202301N00771007801CN0500001N9+00501+99999101261ADDAY181999GF108991081091008001999999MD1210081+9999MW1021
0043010300999991957013104004+69700+019017FM-12+001499999V0202301N00671007801CN0500001N9+99999+99999101231ADDAY121999GF108991081091008001999999MW1021
0043010300999991957013105004+69700+019017FM-12+001499999V0202301N00671007801CN0500001N9+99999+99999101251ADDAY121999GF108991081081008001999999MW1021
0113010300999991957013106004+69700+019017FM-12+001499999V0202301N00931007801CN0500001N9+00441+99999101271ADDAA199006091AY121999GF108991081081008001999999KA1999M+00501KA2999N+00001MD1210011+9999MW1021EQDQ01+012321APOSP 
0043010300999991957013107004+69700+019017FM-12+001499999V0202301N00671007801CN0300001N9+99999+99999101281ADDAY181999GF107991071081008001001001MW1801
0043010300999991957013108004+69700+019017FM-12+001499999V0202301N00671007801CN0400001N9+99999+99999101261ADDAY181999GF107991071081008001001001MW1021
0057010300999991957013109004+69700+019017FM-12+001499999V0202301N00671007801CN0400001N9+00441+99999101251ADDAY121999GF107991061081008001041051MD1710021+9999MW1021
0043010300999991957013110004+69700+019017FM-12+001499999V0202301N006719999999N0400001N9+99999+99999101251ADDAY121999GF107991041051012501071001MW1021
0043010300999991957013111004+69700+019017FM-12+001499999V0202301N004619999999N0400001N9+99999+99999101261ADDAY121999GF107991011051012501011051MW1021
0076010300999991957013112004+69700+019017FM-12+001499999V0202701N002619999999N0400001N9+00391+99999101261ADDAY181999GF107991011051012501071051MD1110011+9999MW1021EQDQ01+011311APOSP 
0043010300999991957013113004+69700+019017FM-12+001499999V0202501N00261220001CN0400001N9+99999+99999101241ADDAY121999GF105991001001999999041051MW1011
0043010300999991957013114004+69700+019017FM-12+001499999V0202501N00461220001CN0450001N9+99999+99999101221ADDAY111999GF103991001001999999041051MW1011
0057010300999991957013115004+69700+019017FM-12+001499999V0202301N00261220001CN0450001N9+00391+99999101191ADDAY121999GF104991001001999999041051MD1810071+9999MW1031
0043010300999991957013116004+69700+019017FM-12+001499999V0202501N00461220001CN0500001N9+99999+99999101171ADDAY111999GF106991001001999999071051MW1031
0062010300999991957013117004+69700+019017FM-12+001499999V0201801N00261220001CN0500001N9+99999+99999101141ADDAY121999GF107991999001999999071001MW1031EQDQ01+000002SCOTLC
0129010300999991957013118004+69700+019017FM-12+001499999V0209991C00001220001CN0500001N9+00331+99999101091ADDAA199000691AY121999GF107991999001999999071001KA1999M+00501KA2999N+00281MD1710101+9999MW1021EQDQ01+000002SCOTLCQ02+010301APOSP 
0076010300999991957020100004+69700+019017FM-12+001499999V0202301N00101220001CN0500001N9-00061+99999100741ADDAY111999GF100991001001999999001001MD1710201+9999MW1011EQDQ01+010301APOSP 
0076010300999991957020103004+69700+019017FM-12+001499999V0202101N00101220001CN0500001N9-00061+99999100261ADDAY101999GF101991999001999999041001MD1710481+9999MW1031EQDQ01+000002SCOTLC
0062010300999991957020104004+69700+019017FM-12+001499999V0201801N00101220001CN0500001N9+99999+99999100051ADDAY101999GF102991999001999999041001MW1031EQDQ01+000002SCOTLC
0062010300999991957020105004+69700+019017FM-12+001499999V0201801N00101220001CN0500001N9+99999+99999099911ADDAY101999GF102991999001999999041001MW1021EQDQ01+000002SCOTLC
0102010300999991957020106004+69700+019017FM-12+001499999V0209991C00001220001CN0500001N9-00061+99999099751ADDAY101999GF103991001001999999041021KA1999M+00391KA2999N-00221MD1710511+9999MW1031EQDQ01+010301APOSP 
0043010300999991957020107004+69700+019017FM-12+001499999V0202301N00101220001CN0500001N9+99999+99999099581ADDAY101999GF104991001001999999041021MW1031
0043010300999991957020108004+69700+019017FM-12+001499999V0202101N00101220001CN0500001N9+99999+99999099421ADDAY111999GF104991001001999999041021MW1021
0057010300999991957020109004+69700+019017FM-12+001499999V0202301N00101220001CN0500001N9-00061+99999099321ADDAY111999GF103991001001999999041021MD1710431+9999MW1011
0043010300999991957020110004+69700+019017FM-12+001499999V0201601N00101220001CN0500001N9+99999+99999099231ADDAY101999GF102991001001999999041021MW1011
0043010300999991957020111004+69700+019017FM-12+001499999V0209991C00001220001CN0500001N9+99999+99999099121ADDAY101999GF101991001001999999041021MW1011
0076010300999991957020112004+69700+019017FM-12+001499999V0209991C00001220001CN0500001N9+00001+99999099021ADDAY101999GF101991001001999999041021MD1710301+9999MW1021EQDQ01+010301APOSP 
0043010300999991957020113004+69700+019017FM-12+001499999V0201801N00261220001CN0500001N9+99999+99999098951ADDAY101999GF101991001001999999041021MW1021
0043010300999991957020114004+69700+019017FM-12+001499999V0202301N00931220001CN0500001N9+99999+99999098891ADDAY111999GF104991001001999999041021MW1031
0057010300999991957020115004+69700+019017FM-12+001499999V0202301N00871021001CN0500001N9+00221+99999098811ADDAY121999GF107991071001022501071001MD1710211+9999MW1031
0043010300999991957020116004+69700+019017FM-12+001499999V0202301N00871015001CN0500001N9+99999+99999098801ADDAY121999GF108991081051017501999999MW1031
0043010300999991957020117004+69700+019017FM-12+001499999V0202301N00931015001CN0500001N9+99999+99999098731ADDAY121999GF108991081051017501999999MW1021
0102010300999991957020118004+69700+019017FM-12+001499999V0202301N00931012301CN0500001N9+00111+99999098711ADDAY121999GF108991081051012501999999KA1999M+00281KA2999N-00221MD1710101+9999MW1021EQDQ01+012311APOSP 
0076010300999991957020200004+69700+019017FM-12+001499999V0202001N00261012301CN0500001N9+00111+99999098501ADDAY121999GF108991081051012501999999MD1710081+9999MW1021EQDQ01+011331APOSP 
0057010300999991957020203004+69700+019017FM-12+001499999V0202301N00671012301CN0500001N9+00111+99999098481ADDAY181999GF107991071081012501001001MD1810021+9999MW1011
0043010300999991957020204004+69700+019017FM-12+001499999V0202301N00461012301CN0500001N9+99999+99999098461ADDAY121999GF108991081051012501999999MW1031
0043010300999991957020205004+69700+019017FM-12+001499999V0202301N00671012301CN0500001N9+99999+99999098411ADDAY121999GF107991071051012501999999MW1011
0113010300999991957020206004+69700+019017FM-12+001499999V0202501N00671012301CN0500001N9+00221+99999098411ADDAA199000691AY121999GF105991051051012501041021KA1999M+00221KA2999N+00001MD1710071+9999MW1011EQDQ01+011311APOSP 
0043010300999991957020207004+69700+019017FM-12+001499999V0202501N00511012301CN0500001N9+99999+99999098421ADDAY121999GF106991061051012501041021MW1031
0043010300999991957020208004+69700+019017FM-12+001499999V0202301N006719999999N0500001N9+99999+99999098451ADDAY121999GF104991041051012501041021MW1011
0057010300999991957020209004+69700+019017FM-12+001499999V0202301N004619999999N0500001N9+00221+99999098461ADDAY111999GF104991031051012501041021MD1210051+9999MW1021
0043010300999991957020210004+69700+019017FM-12+001499999V0202501N001019999999N0500001N9+99999+99999098531ADDAY111999GF105991031051012501041021MW1031
0043010300999991957020211004+69700+019017FM-12+001499999V0202301N00461012301CN0500001N9+99999+99999098541ADDAY121999GF107991061081012501041021MW1031
0076010300999991957020212004+69700+019017FM-12+001499999V0202701N003119999999N0500001N9+00281+99999098571ADDAY111999GF105991031081012501041021MD1210111+9999MW1011EQDQ01+011311APOSP 
0043010300999991957020213004+69700+019017FM-12+001499999V0202501N003119999999N0500001N9+99999+99999098621ADDAY111999GF105991031081012501041021MW1021
0043010300999991957020214004+69700+019017FM-12+001499999V0202301N004619999999N0500001N9+99999+99999098591ADDAY121999GF106991041081012501041021MW1031
0057010300999991957020215004+69700+019017FM-12+001499999V0202501N00511007801CN0200001N9+00111+99999098641ADDAY121999GF107991071081008001999999MD1210071+9999MW1831
0043010300999991957020216004+69700+019017FM-12+001499999V0202301N00311007801CN0500001N9+99999+99999098651ADDAY181999GF106991051081008001041999MW1011
0043010300999991957020217004+69700+019017FM-12+001499999V0202301N004619999999N0500001N9+99999+99999098641ADDAY121999GF105991041081008001041001MW1011
0113010300999991957020218004+69700+019017FM-12+001499999V0202301N006219999999N0500001N9+00221+99999098631ADDAA199000691AY181999GF103991021081012501041001KA1999M+00281KA2999N+00061MD1710011+9999MW1011EQDQ01+011311APOSP 
0076010300999991957020300004+69700+019017FM-12+001499999V0202301N00671012301CN0500001N9+00221+99999098601ADDAY121999GF106991061051012501001001MD1310011+9999MW1031EQDQ01+012311APOSP 
0057010300999991957020303004+69700+019017FM-12+001499999V0202301N00771012301CN0300001N9+00281+99999098551ADDAY171999GF108991081051012501999999MD1710051+9999MW1681
0113010300999991957020306004+69700+019017FM-12+001499999V0202301N00671007801CN0300001N9+00111+99999098551ADDAA199003091AY171999GF108991081091008001999999KA1999M+00281KA2999N+00061MD1410001+9999MW1831EQDQ01+012321APOSP 
0057010300999991957020309004+69700+019017FM-12+001499999V0202301N00461007801CN0200001N9+00111+99999098761ADDAY181999GF108991081091008001999999MD1210211+9999MW1831
0076010300999991957020312004+69700+019017FM-12+001499999V0202301N00671004501CN0150001N9+00221+99999098971ADDAY181999GF108991081091004501999999MD1210211+9999MW1831EQDQ01+012311APOSP 
0057010300999991957020315004+69700+019017FM-12+001499999V0202001N00771004501CN0200001N9+00171+99999099131ADDAY181999GF108991071091004501999999MD1110161+9999MW1151
0113010300999991957020318004+69700+019017FM-12+001499999V0202701N00671004501CN0100001N9+00171+99999099251ADDAA199014091AY181999GF108991081091004501999999KA1999M+00331KA2999N+00001MD1210121+9999MW1831EQDQ01+012321APOSP 
0076010300999991957020400004+69700+019017FM-12+001499999V0202301N00871004501CN0100001N9+00061+99999099531ADDAY181999GF108991081091004501999999MD1110211+9999MW1831EQDQ01+012321APOSP 
0057010300999991957020403004+69700+019017FM-12+001499999V0202001N00671007801CN0300001N9+00171+99999099641ADDAY181999GF108991081091008001999999MD1110111+9999MW1151
0043010300999991957020404004+69700+019017FM-12+001499999V0202301N00771007801CN0250001N9+99999+99999099651ADDAY181999GF108991081091008001999999MW1151
0043010300999991957020405004+69700+019017FM-12+001499999V0202301N00771007801CN0100001N9+99999+99999099661ADDAY181999GF108991081091008001999999MW1831
0113010300999991957020406004+69700+019017FM-12+001499999V0202001N00771007801CN0300001N9+00111+99999099671ADDAA199013091AY181999GF108991081091008001999999KA1999M+00221KA2999N+00001MD1210031+9999MW1151EQDQ01+012331APOSP 
0043010300999991957020407004+69700+019017FM-12+001499999V0202301N00511007801CN0300001N9+99999+99999099701ADDAY121999GF107991071091008001999999MW1151
0043010300999991957020408004+69700+019017FM-12+001499999V0202001N00671007801CN0300001N9+99999+99999099721ADDAY181999GF107991071091008001001001MW1151
0057010300999991957020409004+69700+019017FM-12+001499999V0202301N00461007801CN0200001N9+00111+99999099761ADDAY181999GF107991071091008001001001MD1210091+9999MW1851
0043010300999991957020410004+69700+019017FM-12+001499999V0202101N00671007801CN0500001N9+99999+99999099751ADDAY181999GF106991051081008001061021MW1151
0043010300999991957020411004+69700+019017FM-12+001499999V0202301N006719999999N0500001N9+99999+99999099771ADDAY181999GF106991041081008001061021MW1151
0076010300999991957020412004+69700+019017FM-12+001499999V0202301N00671007801CN0500001N9+00111+99999099781ADDAY181999GF107991051081008001061021MD1210021+9999MW1151EQDQ01+012321APOSP 
0043010300999991957020413004+69700+019017FM-12+001499999V0202301N004619999999N0500001N9+99999+99999099751ADDAY121999GF105991031081008001061021MW1011
0043010300999991957020414004+69700+019017FM-12+001499999V0202301N004619999999N0500001N9+99999+99999099671ADDAY111999GF103991021051008001041001MW1011
0057010300999991957020415004+69700+019017FM-12+001499999V0202301N004619999999N0500001N9+00061+99999099661ADDAY121999GF103991021051008001041001MD1610121+9999MW1021
0043010300999991957020416004+69700+019017FM-12+001499999V0202101N004619999999N0500001N9+99999+99999099621ADDAY101999GF105991031051012501041051MW1031
0043010300999991957020417004+69700+019017FM-12+001499999V0202101N004619999999N0500001N9+99999+99999099571ADDAY111999GF103991021051012501041001MW1011
0129010300999991957020418004+69700+019017FM-12+001499999V0202301N00311220001CN0500001N9-00061+99999099551ADDAA199000691AY121999GF101991999001999999041001KA1999M+00331KA2999N-00061MD1710111+9999MW1011EQDQ01+000002SCOTLCQ02+011311APOSP 
0076010300999991957020500004+69700+019017FM-12+001499999V0202501N001019999999N0500001N9-00221+99999099531ADDAY111999GF101991011051017501001001MD1710021+9999MW1021EQDQ01+011311APOSP 
0057010300999991957020503004+69700+019017FM-12+001499999V0209991C00001012301CN0500001N9-00221+99999099481ADDAY111999GF107991071051012501001001MD1710051+9999MW1031
0043010300999991957020504004+69700+019017FM-12+001499999V0202501N00101012301CN0500001N9+99999+99999099451ADDAY121999GF107991071051012501001001MW1021
0043010300999991957020505004+69700+019017FM-12+001499999V0209991C00001012301CN0500001N9+99999+99999099401ADDAY121999GF107991071051012501001001MW1021
0102010300999991957020506004+69700+019017FM-12+001499999V0209991C00001012301CN0500001N9-00171+99999099381ADDAY121999GF107991071051012501001001KA1999M+00061KA2999N-00281MD1710101+9999MW1021EQDQ01+010301APOSP 
0043010300999991957020507004+69700+019017FM-12+001499999V0202301N00101015001CN0500001N9+99999+99999099361ADDAY121999GF107991071051017501001001MW1021
0043010300999991957020508004+69700+019017FM-12+001499999V0202501N00101015001CN0500001N9+99999+99999099341ADDAY121999GF107991071001017501001001MW1021
0057010300999991957020509004+69700+019017FM-12+001499999V0209991C00001015001CN0400001N9-00111+99999099331ADDAY121999GF107991071001017501001001MD1710051+9999MW1701
0043010300999991957020510004+69700+019017FM-12+001499999V0202501N00261015001CN0500001N9+99999+99999099321ADDAY171999GF107991071001017501001001MW1021
0043010300999991957020511004+69700+019017FM-12+001499999V0202301N00151012301CN0300001N9+99999+99999099311ADDAY171999GF108991071051012501999999MW1711
0076010300999991957020512004+69700+019017FM-12+001499999V0202301N00151012301CN0150001N9-00111+99999099271ADDAY171999GF108991081051012501999999MD1710061+9999MW1711EQDQ01+011301APOSP 
0043010300999991957020513004+69700+019017FM-12+001499999V0202301N00101012301CN0300001N9+99999+99999099211ADDAY171999GF108991081051012501999999MW1711
0043010300999991957020514004+69700+019017FM-12+001499999V0202301N00101012301CN0400001N9+99999+99999099131ADDAY171999GF108991081051012501999999MW1711
0057010300999991957020515004+69700+019017FM-12+001499999V0202501N00101007801CN0060001N9-00171+99999099071ADDAY171999GF108991081001008001021999MD1710201+9999MW1711
0043010300999991957020516004+69700+019017FM-12+001499999V0202501N00101007801CN0050001N9+99999+99999098971ADDAY171999GF108991081001008001021999MW1731
0043010300999991957020517004+69700+019017FM-12+001499999V0200201N00511007801CN0200001N9+99999+99999098841ADDAY171999GF108991081001008001021999MW1701
0113010300999991957020518004+69700+019017FM-12+001499999V0200501N00671007801CN0400001N9-00061+99999098741ADDAA199001091AY171999GF107991071051008001001001KA1999M+00061KA2999N-00221MD1710331+9999MW1151EQDQ01+011311APOSP 
0076010300999991957020600004+69700+019017FM-12+001499999V0202001N00101007801CN0200001N9-00061+99999098571ADDAY171999GF108991081051008001999999MD1710021+9999MW1701EQDQ01+011301APOSP 
0057010300999991957020603004+69700+019017FM-12+001499999V0200501N00101007801CN0300001N9+00061+99999098621ADDAY171999GF108991081051008001999999MD1210051+9999MW1701
0043010300999991957020604004+69700+019017FM-12+001499999V0200501N00311007801CN0300001N9+99999+99999098671ADDAY171999GF108991081051008001999999MW1701
0043010300999991957020605004+69700+019017FM-12+001499999V0200501N00101007801CN0500001N9+99999+99999098681ADDAY171999GF108991081051008001999999MW1011
0113010300999991957020606004+69700+019017FM-12+001499999V0202101N00261007801CN0500001N9+00001+99999098731ADDAA199000391AY171999GF107991071051008001999999KA1999M+00061KA2999N-00111MD1210111+9999MW1011EQDQ01+011301APOSP 
0043010300999991957020607004+69700+019017FM-12+001499999V0200501N002619999999N0500001N9+99999+99999098771ADDAY121999GF107991041051012501041001MW1011
0043010300999991957020608004+69700+019017FM-12+001499999V0200501N002619999999N0500001N9+99999+99999098851ADDAY121999GF107991011051012501041001MW1021
0057010300999991957020609004+69700+019017FM-12+001499999V0200501N003119999999N0500001N9+00001+99999098901ADDAY121999GF106991041051017501041001MD1210171+9999MW1011
0043010300999991957020610004+69700+019017FM-12+001499999V0200701N006719999999N0500001N9+99999+99999099001ADDAY111999GF102991021051017501001001MW1011
0043010300999991957020611004+69700+019017FM-12+001499999V0200901N004619999999N0500001N9+99999+99999099071ADDAY101999GF102991021051017501001001MW1021
0076010300999991957020612004+69700+019017FM-12+001499999V0200701N004619999999N0500001N9-00111+99999099101ADDAY101999GF102991021051017501001001MD1210201+9999MW1021EQDQ01+012311APOSP 
0043010300999991957020613004+69700+019017FM-12+001499999V0200701N004619999999N0500001N9+99999+99999099141ADDAY101999GF102991021051017501001001MW1021
0043010300999991957020614004+69700+019017FM-12+001499999V0200701N004619999999N0500001N9+99999+99999099161ADDAY101999GF101991011051017501001001MW1011
0057010300999991957020615004+69700+019017FM-12+001499999V0200701N004619999999N0500001N9-00061+99999099191ADDAY101999GF101991011051017501001001MD1210091+9999MW1021
0043010300999991957020616004+69700+019017FM-12+001499999V0200201N002619999999N0500001N9+99999+99999099211ADDAY101999GF101991011051017501001001MW1021
0043010300999991957020617004+69700+019017FM-12+001499999V0209991C000019999999N0500001N9+99999+99999099221ADDAY101999GF101991011051017501001001MW1021
0102010300999991957020618004+69700+019017FM-12+001499999V0203201N001019999999N0500001N9-00281+99999099221ADDAY101999GF101991011051017501001001KA1999M+00061KA2999N-00331MD1210031+9999MW1021EQDQ01+011301APOSP 
0076010300999991957020700004+69700+019017FM-12+001499999V0202701N00101220001CN0600001N9-00281+99999099351ADDAY101999GF100991001001999999001001MD1210061+9999MW1021EQDQ01+010301APOSP 
0057010300999991957020703004+69700+019017FM-12+001499999V0209991C00001220001CN0600001N9-00281+99999099451ADDAY101999GF100991001001999999001001MD1210101+9999MW1021
0043010300999991957020704004+69700+019017FM-12+001499999V0209991C00001220001CN0600001N9+99999+99999099491ADDAY101999GF100991001001999999001001MW1021
0062010300999991957020705004+69700+019017FM-12+001499999V0200201N00101220001CN0600001N9+99999+99999099531ADDAY101999GF101991999001999999041001MW1031EQDQ01+000002SCOTLC
0118010300999991957020706004+69700+019017FM-12+001499999V0200701N00261220001CN0600001N9-00221+99999099581ADDAY101999GF101991999001999999041001KA1999M-00171KA2999N-00501MD1210131+9999MW1021EQDQ01+000002SCOTLCQ02+011301APOSP 
0043010300999991957020707004+69700+019017FM-12+001499999V0203601N00101220001CN0600001N9+99999+99999099611ADDAY101999GF101991001001999999041011MW1021
0043010300999991957020708004+69700+019017FM-12+001499999V0200701N00261220001CN0600001N9+99999+99999099691ADDAY101999GF101991001001999999041011MW1021
0057010300999991957020709004+69700+019017FM-12+001499999V0200501N00461220001CN0600001N9-00281+99999099731ADDAY101999GF101991001001999999041011MD1210151+9999MW1021
0043010300999991957020710004+69700+019017FM-12+001499999V0209991C00001220001CN0600001N9+99999+99999099801ADDAY101999GF101991001001999999041011MW1021
0043010300999991957020711004+69700+019017FM-12+001499999V0202301N00261220001CN0600001N9+99999+99999099851ADDAY101999GF101991001001999999041011MW1021
0076010300999991957020712004+69700+019017FM-12+001499999V0202301N00101220001CN0600001N9-00391+99999099901ADDAY101999GF101991001001999999041011MD1210171+9999MW1021EQDQ01+011301APOSP 
0043010300999991957020713004+69700+019017FM-12+001499999V0202301N00101220001CN0600001N9+99999+99999099951ADDAY101999GF103991001001999999041011MW1031
0043010300999991957020714004+69700+019017FM-12+001499999V0202301N00261220001CN0600001N9+99999+99999099971ADDAY101999GF105991001001999999041011MW1031
0057010300999991957020715004+69700+019017FM-12+001499999V0202301N002619999999N0600001N9-00561+99999099981ADDAY101999GF105991031051017501041011MD1110081+9999MW1031
0043010300999991957020716004+69700+019017FM-12+001499999V0202501N00261220001CN0600001N9+99999+99999099971ADDAY111999GF103991001001999999041011MW1011
0043010300999991957020717004+69700+019017FM-12+001499999V0202501N00261220001CN0600001N9+99999+99999099971ADDAY101999GF101991001001999999041011MW1011
0102010300999991957020718004+69700+019017FM-12+001499999V0202501N00261220001CN0600001N9-00561+99999099971ADDAY111999GF101991001001999999041011KA1999M-00171KA2999N-00611MD1710011+9999MW1021EQDQ01+011301APOSP 
0076010300999991957020800004+69700+019017FM-12+001499999V0202501N00511007801CN0100001N9-00441+99999099901ADDAY171999GF108991081051008001999999MD1710071+9999MW1701EQDQ01+011311APOSP 
0057010300999991957020803004+69700+019017FM-12+001499999V0202501N00511007801CN0150001N9-00441+99999099851ADDAY171999GF108991081051008001999999MD1710051+9999MW1701
0043010300999991957020804004+69700+019017FM-12+001499999V0202501N00511007801CN0060001N9+99999+99999099831ADDAY171999GF108991081051008001999999MW1701
0062010300999991957020805004+69700+019017FM-12+001499999V0202501N00511001501CN0030001N9+99999+99999099811ADDAY171999GF108991999999001501999999MW1701EQDQ01+000092SCOTLC
0113010300999991957020806004+69700+019017FM-12+001499999V0202301N00261007801CN0200001N9-00391+99999099811ADDAA199003091AY171999GF108991081051008001999999KA1999M-00331KA2999N-00611MD1610041+9999MW1701EQDQ01+011311APOSP 
0043010300999991957020807004+69700+019017FM-12+001499999V0202301N00461007801CN0100001N9+99999+99999099811ADDAY171999GF108991081051008001999999MW1711
0043010300999991957020808004+69700+019017FM-12+001499999V0202301N00461007801CN0200001N9+99999+99999099821ADDAY181999GF108991081091008001999999MW1851
0057010300999991957020809004+69700+019017FM-12+001499999V0202301N00461007801CN0300001N9-00391+99999099831ADDAY181999GF108991081081008001999999MD1210021+9999MW1151
0043010300999991957020810004+69700+019017FM-12+001499999V0202501N004619999999N0100001N9+99999+99999099831ADDAY171999GF108991021071002501021999MW1701
0043010300999991957020811004+69700+019017FM-12+001499999V0202501N002619999999N0150001N9+99999+99999099841ADDAY171999GF107991021071002501071001MW1701
0076010300999991957020812004+69700+019017FM-12+001499999V0202501N00261012301CN0200001N9-00391+99999099831ADDAY171999GF107991061051012501071001MD1410001+9999MW1701EQDQ01+011301APOSP 
0043010300999991957020813004+69700+019017FM-12+001499999V0202301N00261012301CN0070001N9+99999+99999099841ADDAY171999GF108991061051012501021999MW1711
0043010300999991957020814004+69700+019017FM-12+001499999V0202301N00261007801CN0090001N9+99999+99999099841ADDAY171999GF108991061051008001021999MW1711
0057010300999991957020815004+69700+019017FM-12+001499999V0202501N002619999999N0070001N9-00331+99999099861ADDAY171999GF107991031071004501071001MD1110031+9999MW1711
0043010300999991957020816004+69700+019017FM-12+001499999V0202301N002619999999N0300001N9+99999+99999099841ADDAY171999GF105991041051004501041001MW1011
0043010300999991957020817004+69700+019017FM-12+001499999V0202501N00101004501CN0400001N9+99999+99999099861ADDAY111999GF106991051051004501041001MW1031
0113010300999991957020818004+69700+019017FM-12+001499999V0201401N00101007801CN0400001N9-00441+99999099881ADDAA199001091AY171999GF107991061051008001041001KA1999M-00331KA2999N-00561MD1310021+9999MW1031EQDQ01+010301APOSP 
0076010300999991957020900004+69700+019017FM-12+001499999V0202501N002619999999N0500001N9-00611+99999099941ADDAY111999GF102991011081008001041001MD1210051+9999MW1011EQDQ01+011301APOSP 
