0092010300999991953010106004+69700+019017FM-12+002499999V0202401N00261013501CN0600001N9-00611-00781101071ADDAY121999GA1061+013509059GF106991061051012501001001IA1319KA1999N-00611MD1810031+9999MW1021
0076010300999991953010109004+69700+019017FM-12+002499999V0202401N002619999999N0600001N9-00611-00781101071ADDAY111999GF105991011061004501061001MD1410001+9999MW1021EQDQ01+000032APCTEN
0057010300999991953010112004+69700+019017FM-12+002499999V0202401N00101220001CN0600001N9-00721-00891101041ADDAY111999GF101991011061004501041001MD1810031+9999MW1011
0057010300999991953010115004+69700+019017FM-12+002499999V0202401N00101220001CN0600001N9-00611-00781100991ADDAY111999GF102991011051008001041011MD1810051+9999MW1021
0076010300999991953010118004+69700+019017FM-12+002499999V0202401N00261220001CN0600001N9-00611-00781100981ADDAY111999GF102991001001999999041081IA1319KA1999M-00611MD1810011+9999MW1021
0092010300999991953010200004+69700+019017FM-12+002499999V0202501N00511220001CN0600001N9-00391-00721100801ADDAY121999GA1041+027009039GF108991999001999999051071MD1710101+9999MW1031EQDQ01+000002SCOTLC
0092010300999991953010203004+69700+019017FM-12+002499999V0202501N00671027001CN0600001N9-00391-00611100781ADDAY171999GA1081+027009049GF108991999001999999021999MD1710021+9999MW1701EQDQ01+000002SCOTLC
0138010300999991953010206004+69700+019017FM-12+002499999V0202501N00411018001CN0100001N9-00391-00501100881ADDAA199000591AY171999GA1081+018009049GF108991081001017501021999IA1319KA1999N-00611MD1210101+9999MW1711EQDQ01+000042APCTENQ02+000102APC3  
0073010300999991953010209004+69700+019017FM-12+002499999V0203601N00411006301CN0060001N9-00221-00281101031ADDAY171999GA1071+006309089GF108991071071008001021999MD1310151+9999MW1711
0073010300999991953010212004+69700+019017FM-12+002499999V0203601N00671006301CN0120001N9-00281-00611101231ADDAY121999GA1061+006309089GF107991061071008001021021MD1110201+9999MW1151
0073010300999991953010215004+69700+019017FM-12+002499999V0203601N00461007801CN0600001N9-00281-00891101441ADDAY121999GA1071+007809059GF107991071051008001001001MD1310211+9999MW1021
0103010300999991953010218004+69700+019017FM-12+002499999V0209991C00001220001CN0600001N9-00501-00891101591ADDAA199000391AY121999GA1041+024009049GF105991011051008001021001IA1319KA1999M-00221MD1310151+9999MW1021
0094010300999991953010300004+69700+019017FM-12+002499999V0202301N00771220001CN0600001N9-00281-00781101601ADDAY121999GA1041+008409059GF107991041051008001021001MW1031EQDQ01+000032APCTENQ02+000002APC3  
0073010300999991953010303004+69700+019017FM-12+002499999V0202301N00931012001CN0050001N9-00281-00391101541ADDAY171999GA1081+012009049GF108991081001012501021999MD1990061+9999MW1711
0103010300999991953010306004+69700+019017FM-12+002499999V0202501N00931008401CN0060001N9-00221-00281101471ADDAA199002091AY171999GA1051+008409059GF108991051051008001021999IA1319KA1999N-00501MD1610071+9999MW1711
0073010300999991953010309004+69700+019017FM-12+002499999V0202301N00671007501CN0040001N9-00111-00221101491ADDAY171999GA1071+007509059GF108991071051008001071999MD1010021+9999MW1721
0073010300999991953010312004+69700+019017FM-12+002499999V0202201N00931007501CN0040001N9+00111+00001101431ADDAY171999GA1071+007509059GF108991071051008001071999MD1710061+9999MW1721
0108010300999991953010315004+69700+019017FM-12+002499999V0202301N00671005101CN0010001N9+00111+00001101521ADDAY171999GA1081+005109099GF108991081091004501999999MD1210091+9999MW1861EQDQ01+000042APCTENQ02+000092APC3  
0138010300999991953010318004+69700+019017FM-12+002499999V0202501N00261005401CN0160001N9+00111+00001101631ADDAA199008091AY181999GA1081+005409089GF108991081081004501999999IA1319KA1999M+00221MD1210111+9999MW1831EQDQ01+000042APCTENQ02+000112APC3  
0103010300999991953010406004+69700+019017FM-12+002499999V0202301N00461007501CN0120001N9+00221+00111101581ADDAA199006091AY161999GA1081+007509049GF108991081001008001021999IA1209KA1999N+00001MD1810061+9999MW1611
0073010300999991953010409004+69700+019017FM-12+002499999V0202301N00461006001CN0150001N9+00221+00111101541ADDAY161999GA1081+006009049GF108991081001008001021999MD1810041+9999MW1611
0073010300999991953010412004+69700+019017FM-12+002499999V0202301N00671007501CN0160001N9+00221+00111101441ADDAY161999GA1081+007509049GF108991021061004501021999MD1810101+9999MW1611
0073010300999991953010415004+69700+019017FM-12+002499999V0202301N00671220001CN0600001N9+00281+00221101381ADDAY161999GA1041+007509079GF104991041061008001001001MD1610061+9999MW1011
0103010300999991953010418004+69700+019017FM-12+002499999V0202301N00931007501CN0600001N9+00281-00111101281ADDAA199002091AY161999GA1061+007509059GF106991061051012501999999IA1209KA1999M+00391MD1810101+9999MW1031
0073010300999991953010500004+69700+019017FM-12+002499999V0202301N00671006901CN0600001N9+00281-00111101061ADDAY121999GA1051+006909059GF108991051051008001021999MD1710151+9999MW1021
0073010300999991953010503004+69700+019017FM-12+002499999V0202301N00671009001CN0600001N9+00281-00111100851ADDAY121999GA1051+009009059GF108991051051008001011999MD1990211+9999MW1021
0108010300999991953010506004+69700+019017FM-12+002499999V0202301N00671012001CN0600001N9+00391-00111100631ADDAY121999GA1081+012009049GA2021+009009059GF108991021051008001021999IA1209KA1999N+00221MD1810221+9999MW1021
0089010300999991953010509004+69700+019017FM-12+002499999V0202201N00671024001CN0600001N9+00391-00221100391ADDAY121999GA1041+013509079GA2081+024009049GF108991041061012501021999MD1710241+9999MW1021
0073010300999991953010512004+69700+019017FM-12+002499999V0202101N01081220001CN0600001N9+00391-00111100241ADDAY121999GA1041+012009059GF108991041051012501021999MD1710151+9999MW1021
0073010300999991953010515004+69700+019017FM-12+002499999V0202301N00771220001CN0600001N9+00391-00221100061ADDAY121999GA1041+012009059GF107991041051012501071999MD1810181+9999MW1011
0076010300999991953010518004+69700+019017FM-12+002499999V0202301N010319999999N0400001N9+00391-00111099961ADDAY121999GF106991031051012501041999IA1209KA1999M+00501MD1610101+9999MW1011
0073010300999991953010600004+69700+019017FM-12+002499999V0202501N00671013501CN0600001N9+00391+00001099981ADDAY121999GA1061+013509059GF107991061051012501041001MD1210011+9999MW1021
0073010300999991953010603004+69700+019017FM-12+002499999V0202501N00671220001CN0600001N9+00281+00001099951ADDAY121999GA1041+013509089GF106991041081012501061001MD1610031+9999MW1011
0122010300999991953010606004+69700+019017FM-12+002499999V0202501N01031012001CN0400001N9+00391+00001099951ADDAA199000691AY181999GA1081+012009099GF108991081091012501999999IA1209KA1999N+00221MD1410001+9999MW1801EQDQ01+000032APCTEN
0108010300999991953010609004+69700+019017FM-12+002499999V0202501N01131009001CN0100001N9+00281+00111100061ADDAY181999GA1081+009009099GF108991081091008001999999MD1210111+9999MW1801EQDQ01+000042APCTENQ02+000112APC3  
0073010300999991953010612004+69700+019017FM-12+002499999V0202301N01031005401CN0140001N9+00221+00111100261ADDAY181999GA1061+005409079GF108991061071004501021999MD1310201+9999MW1621
0073010300999991953010615004+69700+019017FM-12+002499999V0202501N00931007801CN0140001N9+00221+00111100241ADDAY121999GA1051+007809089GF107991071081008001001001MD1710021+9999MW1601
0138010300999991953010618004+69700+019017FM-12+002499999V0202501N00671005401CN0120001N9+00221+00111100271ADDAA199001091AY121999GA1061+005409079GF108991081071004501001001IA1199KA1999M+00391MD1210031+9999MW1681EQDQ01+000042APCTENQ02+000032APC3  
0073010300999991953010700004+69700+019017FM-12+002499999V0202301N00261009001CN0160001N9-00221-00281100561ADDAY181999GA1061+009009099GF107991061091008001061001MD1110111+9999MW1851
0073010300999991953010703004+69700+019017FM-12+002499999V0202501N00151220001CN0600001N9-00281-00501100621ADDAY181999GA1031+009009099GF103991031091008001001001MD1010061+9999MW1011
0103010300999991953010706004+69700+019017FM-12+002499999V0202501N00461009001CN0200001N9-00281-00391100651ADDAA199002091AY181999GA1061+009009099GF106991061091008001001001IA1319KA1999N-00391MD1310031+9999MW1851
0073010300999991953010709004+69700+019017FM-12+002499999V0202701N00261007501CN0012001N9-00281-00391100701ADDAY181999GA1081+007509099GF108991081091008001999999MD1210051+9999MW1861
0073010300999991953010712004+69700+019017FM-12+002499999V0202401N00261220001CN0040001N9-00391-00501100731ADDAY181999GA1071+999999099GF108991071091999999999999MD1210031+9999MW1851
0073010300999991953010715004+69700+019017FM-12+002499999V0202501N00261007501CN0200001N9-00391-00501100671ADDAY181999GA1081+007509099GF108991081091008001999999MD1710061+9999MW1851
0103010300999991953010718004+69700+019017FM-12+002499999V0202301N00461007501CN0200001N9-00391-00501100561ADDAA199003091AY181999GA1071+007509099GF107991071091008001999999IA1319KA1999M-00281MD1710111+9999MW1851
0057010300999991953010800004+69700+019017FM-12+002499999V0202401N00931007801CN0014001N9-00221-00281100101ADDAY181999GF108991081091008001999999MD1810251+9999MW1851
0057010300999991953010803004+69700+019017FM-12+002499999V0202401N010319999999N0200001N9+00001-00391099881ADDAY181999GF105991031091008001061001MD1710221+9999MW1261
0103010300999991953010806004+69700+019017FM-12+002499999V0202301N00931220001CN0400001N9+00001-00391099751ADDAA199002091AY181999GA1021+013509059GF103991021041012501041001IA1319KA1999N-00391MD1610131+9999MW1011
0073010300999991953010809004+69700+019017FM-12+002499999V0202301N00461220001CN0600001N9-00111-00611099611ADDAY121999GA1031+014409059GF107991031051012501071001MD1810141+9999MW1031
0073010300999991953010812004+69700+019017FM-12+002499999V0209991C00001220001CN0600001N9-00221-00611099451ADDAY111999GA1011+014409059GF107991011051012501071071MD1710161+9999MW1031
0073010300999991953010815004+69700+019017FM-12+002499999V0209991C00001220001CN0600001N9-00281-00721099341ADDAY121999GA1011+012009059GF101991011051012501041021MD1810111+9999MW1011
0092010300999991953010818004+69700+019017FM-12+002499999V0209991C00001220001CN0600001N9-00111-00611099271ADDAY101999GA1021+012009059GF102991021051012501041001IA1319KA1999M+00001MD1810071+9999MW1021
0073010300999991953010900004+69700+019017FM-12+002499999V0209991C00001220001CN0600001N9-00221-00611099451ADDAY101999GA1041+013509059GF105991041051012501021001MD1110041+9999MW1031
0092010300999991953010903004+69700+019017FM-12+002499999V0209991C00001220001CN0400001N9-00281-00611099451ADDAY121999GA1041+012009059GF108991041051012501021999MD1410001+9999MW1031EQDQ01+000032APCTEN
0138010300999991953010906004+69700+019017FM-12+002499999V0202501N00051010801CN0160001N9-00221-00501099461ADDAA199000691AY121999GA1051+010809059GF108991051051012501021999IA1319KA1999N-00281MD1210011+9999MW1701EQDQ01+000042APCTENQ02+000012APC3  
0073010300999991953010909004+69700+019017FM-12+002499999V0200901N00261009001CN0400001N9-00221-00281099541ADDAY181999GA1061+009009089GF106991061081008001061001MD1310081+9999MW1151
0073010300999991953010912004+69700+019017FM-12+002499999V0200201N00461009001CN0200001N9-00281-00721099641ADDAY181999GA1061+009009089GF107991071081008001061999MD1310101+9999MW1851
0073010300999991953010915004+69700+019017FM-12+002499999V0203601N00261220001CN0600001N9-00501-00891099781ADDAY181999GA1011+012009059GF101991011041012501041001MD1310141+9999MW1011
0103010300999991953010918004+69700+019017FM-12+002499999V0209991C00001220001CN0600001N9-00501-00781099871ADDAA199000391AY181999GA1011+012009059GF101991011041012501001001IA1319KA1999M-00221MD1310091+9999MW1021
0057010300999991953011000004+69700+019017FM-12+002499999V0202701N00261220001CN0600001N9-00721-00781099981ADDAY121999GF100991001001999999001001MD1210041+9999MW1011
0057010300999991953011003004+69700+019017FM-12+002499999V0202501N00261007801CN0200001N9-00501-00611099991ADDAY181999GF106991061081008001001001MD1310011+9999MW1851
0103010300999991953011006004+69700+019017FM-12+002499999V0202301N00461220001CN0600001N9-00501-00611099951ADDAA199000591AY181999GA1021+007509059GF102991021051008001001001IA1319KA1999N-00721MD1810041+9999MW1021
0092010300999991953011009004+69700+019017FM-12+002499999V0202301N00511220001CN0600001N9-00391-00611099951ADDAY111999GA1041+009009089GF106991041081008001071001MD1410001+9999MW1141EQDQ01+000032APCTEN
0073010300999991953011012004+69700+019017FM-12+002499999V0202301N00931008401CN0020001N9-00281-00391099811ADDAY181999GA1071+008409089GF107991071081008001001001MD1990141+9999MW1861
0073010300999991953011015004+69700+019017FM-12+002499999V0202301N00511220001CN0006001N9-00281-00281099771ADDAY181999GA1091+999999999GF109991091999999999999999MD1510041+9999MW1861
0103010300999991953011018004+69700+019017FM-12+002499999V0202501N00461220001CN0008001N9-00281-00391099811ADDAA199008091AY181999GA1091+999999999GF109991091999999999999999IA1319KA1999M-00221MD1210041+9999MW1861
0108010300999991953011106004+69700+019017FM-12+002499999V0203001N00461004501CN0200001N9-00391-00781100381ADDAA199007091AY181999GF106991061091004501999999IA1319KA1999N-00391MW1271EQDQ01+000042APCTENQ02+000182APC3  
0057010300999991953011109004+69700+019017FM-12+002499999V0202901N00261004501CN0160001N9-00501-00721100711ADDAY181999GF107991071091004501999999MD1210331+9999MW1261
0057010300999991953011112004+69700+019017FM-12+002499999V0202501N00261004501CN0140001N9-00501-00721100971ADDAY181999GF107991071091004501999999MD1210271+9999MW1851
0057010300999991953011115004+69700+019017FM-12+002499999V0202501N00261004501CN0140001N9-00501-00611101201ADDAY181999GF107991071091004501999999MD1110231+9999MW1851
0087010300999991953011118004+69700+019017FM-12+002499999V0202601N00261004501CN0160001N9-00391-00501101291ADDAA199002091AY181999GF107991071091004501999999IA1319KA1999M-00281MD1110091+9999MW1851
0073010300999991953011200004+69700+019017FM-12+002499999V0202001N00671220001CN0600001N9-00281-00611101111ADDAY181999GA1021+999999059GF107991021041008001051001MD1990161+9999MW1031
0073010300999991953011203004+69700+019017FM-12+002499999V0202301N00671013501CN0600001N9-00221-00781100601ADDAY121999GA1071+013509059GF108991071051012501999999MD1810511+9999MW1031
0103010300999991953011206004+69700+019017FM-12+002499999V0200201N00261220001CN0002001N9-00391-00501099721ADDAA199000591AY171999GA1091+999999999GF109991091999999999999999IA1319KA1999N-00501MD1810881+9999MW1751
0073010300999991953011209004+69700+019017FM-12+002499999V0202301N00771004801CN0050001N9+00221+00111099311ADDAY161999GA1071+004809089GF108991071071004501021999MD1510411+9999MW1611
0073010300999991953011212004+69700+019017FM-12+002499999V0202301N01291007801CN0140001N9+00281+00221099211ADDAY161999GA1061+007809089GF107991061081008001041001MD1610091+9999MW1801
0073010300999991953011215004+69700+019017FM-12+002499999V0202501N01541007201CN0120001N9+00391+00281099141ADDAY161999GA1071+007209059GF107991071051008001001001MD1710081+9999MW1621
0138010300999991953011218004+69700+019017FM-12+002499999V0202501N01031008401CN0140001N9+00391+00111099331ADDAA199008091AY161999GA1051+008409059GF108991051051008001001071IA1209KA1999M+00501MD1210191+9999MW1611EQDQ01+000042APCTENQ02+000192APC3  
0073010300999991953011300004+69700+019017FM-12+002499999V0203601N00261009001CN0600001N9+00111-00111099931ADDAY181999GA1081+009009089GF108991081081008001999999MD1210161+9999MW1801
0073010300999991953011303004+69700+019017FM-12+002499999V0200501N00101220001CN0004001N9+00001-00111100031ADDAY181999GA1091+999999999GF109991091999999999999999MD1110101+9999MW1861
0103010300999991953011306004+69700+019017FM-12+002499999V0200501N00261007501CN0010001N9+00001+00001100051ADDAA199003091AY181999GA1081+007509099GF108991081091008001999999IA1209KA1999N-00111MD1310021+9999MW1861
0073010300999991953011309004+69700+019017FM-12+002499999V0200501N00101220001CN0004001N9-00111-00111100071ADDAY181999GA1091+999999999GF109991091999999999999999MD1310021+9999MW1751
0073010300999991953011312004+69700+019017FM-12+002499999V0209991C00001220001CN0006001N9-00111-00111100041ADDAY171999GA1091+999999999GF109991091999999999999999MD1990031+9999MW1751
0073010300999991953011315004+69700+019017FM-12+002499999V0202701N00461005401CN0160001N9+00221+00221099921ADDAY171999GA1071+005409079GF107991071061004501021999MD1710121+9999MW1611
0103010300999991953011318004+69700+019017FM-12+002499999V0202301N00461006001CN0600001N9+00221+00111099781ADDAA199022091AY181999GA1071+006009099GF107991071091004501999999IA1209KA1999M+00281MD1710141+9999MW1251
0057010300999991953011400004+69700+019017FM-12+002499999V0202301N00671007801CN0120001N9+00111+00001099341ADDAY181999GF108991081061008001999999MD1610171+9999MW1681
0057010300999991953011403004+69700+019017FM-12+002499999V0202601N002619999999N0200001N9+00221+00001099161ADDAY181999GF106991031051012501051999MD1710181+9999MW1021
0103010300999991953011406004+69700+019017FM-12+002499999V0202501N00261018001CN0400001N9+00221-00111099011ADDAA199000391AY181999GA1061+018009059GF107991071081017501999999IA1209KA1999N-00111MD1610151+9999MW1021
0073010300999991953011409004+69700+019017FM-12+002499999V0202501N00261015001CN0600001N9+00111-00221098991ADDAY121999GA1051+015009059GF106991051051012501041001MD1510021+9999MW1011
0073010300999991953011412004+69700+019017FM-12+002499999V0209991C00001220001CN0600001N9-00111-00221099031ADDAY121999GA1041+015009059GF107991041051017501041071MD1210091+9999MW1021
0073010300999991953011415004+69700+019017FM-12+002499999V0202501N00211024001CN0600001N9+00001-00111099181ADDAY121999GA1071+024009039GF107991071001022501071001MD1310151+9999MW1021
0092010300999991953011418004+69700+019017FM-12+002499999V0202501N00101018001CN0600001N9+00001-00111099351ADDAY121999GA1071+018009039GF107991071001017501071001IA1209KA1999M+00221MD1310171+9999MW1031
0073010300999991953011500004+69700+019017FM-12+002499999V0202501N00511220001CN0600001N9+00001-00111099601ADDAY121999GA1041+015009059GF106991041051017501021001MD1110081+9999MW1011
0073010300999991953011503004+69700+019017FM-12+002499999V0202501N00461220001CN0600001N9+00001-00111099631ADDAY121999GA1041+012009059GF108991041051012501021999MD1310031+9999MW1031
0103010300999991953011506004+69700+019017FM-12+002499999V0202501N00461010801CN0600001N9+00111+00001099581ADDAA199000691AY121999GA1051+010809059GF107991051051012501021001IA1319KA1999N-00111MD1990051+9999MW1011
0108010300999991953011509004+69700+019017FM-12+002499999V0200501N00101220001CN0600001N9+00001-00111099621ADDAY121999GA1021+012009059GF103991021051012501041001MD1210041+9999MW1011EQDQ01+000042APCTENQ02+000042APC3  
0073010300999991953011512004+69700+019017FM-12+002499999V0209991C00001012001CN0600001N9-00111-00221099651ADDAY121999GA1061+012009059GF107991061051012501041999MD1310031+9999MW1021
0092010300999991953011515004+69700+019017FM-12+002499999V0202001N00101220001CN0600001N9-00281-00391099731ADDAY121999GA1011+024009039GF101991999001999999041001MD1310081+9999MW1011EQDQ01+000002SCOTLC
0111010300999991953011518004+69700+019017FM-12+002499999V0209991C00001220001CN0600001N9-00281-00391099851ADDAY121999GF100991001001999999001001IA1319KA1999M+00111MD1210121+9999MW1011EQDQ01+000042APCTENQ02+000122APC3  
0057010300999991953011600004+69700+019017FM-12+002499999V0202701N00771220001CN0700001N9-00221-00611099981ADDAY101999GF100991001001999999001001MD1110071+9999MW1021
0057010300999991953011603004+69700+019017FM-12+002499999V0202701N00771220001CN0700001N9-00221-00611099951ADDAY101999GF100991001001999999001001MD1810031+9999MW1021
0095010300999991953011606004+69700+019017FM-12+002499999V0202701N00671220001CN0700001N9-00221-00611099691ADDAY101999GF101991999001999999041001IA1319KA1999N-00501MD1810261+9999MW1021EQDQ01+000002SCOTLC
0092010300999991953011609004+69700+019017FM-12+002499999V0202301N00671027001CN0700001N9+00111-00611099331ADDAY121999GA1051+027009039GF107991999001999999071071MD1710361+9999MW1021EQDQ01+000002SCOTLC
0089010300999991953011612004+69700+019017FM-12+002499999V0202301N01081009901CN0600001N9+00221-00501098651ADDAY121999GA1051+009909059GA2031+024009049GF108991051051008001071999MD1810681+9999MW1031
0092010300999991953011615004+69700+019017FM-12+002499999V0202201N01341006001CN0060001N9+00281+00111097992ADDAY171999GA1081+006009049GF108991081001008001021999MD1810661+9999MW1611EQDQ01+097993APOSLP
0124010300999991953011618004+69700+019017FM-12+002499999V0202501N00621008101CN0080001N9+00281+00221098201ADDAA199004091AY161999GA1081+008109049GF108991081001008001021999IA1209KA1999M+00281MW1631EQDQ01+000042APCTENQ02+000112APC3  
0073010300999991953011700004+69700+019017FM-12+002499999V0202501N00311009001CN0600001N9+00221-00391098991ADDAY181999GA1061+009009099GF106991061091008001001001MD1210471+9999MW1271
0073010300999991953011703004+69700+019017FM-12+002499999V0202501N00671007801CN0160001N9+00001-00111099111ADDAY181999GA1061+007809099GF106991061091008001001001MD1210121+9999MW1851
0103010300999991953011706004+69700+019017FM-12+002499999V0202501N00671006901CN0040001N9+00111-00111099171ADDAA199005091AY181999GA1071+006909099GF107991071091008001001001IA1209KA1999N-00111MD1210061+9999MW1871
0092010300999991953011709004+69700+019017FM-12+002499999V0202501N00511220001CN0008001N9-00111-00221099171ADDAY181999GA1091+999999999GF109991091999999999999999MD1410001+9999MW1851EQDQ01+000022APCTEN
0073010300999991953011712004+69700+019017FM-12+002499999V0202701N00931007801CN0080001N9+00001-00391099221ADDAY181999GA1071+007809099GF107991071091008001001001MD1210051+9999MW1851
0073010300999991953011715004+69700+019017FM-12+002499999V0202901N00931006601CN0160001N9+00001-00501099331ADDAY181999GA1071+006609099GF107991071091008001999999MD1210111+9999MW1271
0103010300999991953011718004+69700+019017FM-12+002499999V0202701N00671009001CN0200001N9+00001-00721099311ADDAA199004091AY181999GA1071+009009099GF107991071091008001999999IA1319KA1999M+00111MD1990021+9999MW1151
0087010300999991953011806004+69700+019017FM-12+002499999V0200401N008219999999N0010001N9-00111-00221097122ADDAA199001091AY181999GF109991091999999999999999IA1319KA1999N-00281MD1610481+9999MW1721
0092010300999991953011809004+69700+019017FM-12+002499999V0200301N014419999999N0002001N9-00111-00111097171ADDAY171999GF109991091999999999999999MD1210051+9999MW1731EQDQ01+000042APCTENQ02+000052APC3  
0057010300999991953011812004+69700+019017FM-12+002499999V0200301N00771004501CN0016001N9-00221-00281097831ADDAY171999GF108991081091004501999999MD1310661+9999MW1851
0073010300999991953011815004+69700+019017FM-12+002499999V0200201N01541220001CN0002001N9-00281-00391098701ADDAY181999GA1091+999999999GF109991091999999999999999MD1310871+9999MW1861
0103010300999991953011818004+69700+019017FM-12+002499999V0203601N00671009001CN0060001N9-00391-00721099241ADDAA199002091AY181999GA1081+009009099GF108991081091008001999999IA1319KA1999M-00111MD1310541+9999MW1851
0073010300999991953011900004+69700+019017FM-12+002499999V0203601N00511008401CN0160001N9-00501-00721099631ADDAY181999GA1081+008409099GF108991081091008001999999MD1210211+9999MW1851
0073010300999991953011903004+69700+019017FM-12+002499999V0203401N00931220001CN0002001N9-00611-00721099911ADDAY181999GA1091+999999999GF109991091999999999999999MD1210281+9999MW1861
0103010300999991953011906004+69700+019017FM-12+002499999V0203601N00261008401CN0050001N9-00611-00721100161ADDAA199011091AY181999GA1081+008409099GF108991081091008001999999IA1319KA1999N-00611MD1210151+9999MW1851
0073010300999991953011909004+69700+019017FM-12+002499999V0203401N00461007501CN0200001N9-00501-01001100391ADDAY181999GA1071+007509099GF107991071091008001001001MD1210231+9999MW1151
0073010300999991953011912004+69700+019017FM-12+002499999V0202501N00261006901CN0018001N9-00611-00781100671ADDAY181999GA1081+006909099GF108991081091008001999999MD1210281+9999MW1851
0073010300999991953011915004+69700+019017FM-12+002499999V0203001N00261006901CN0020001N9-00611-00891100641ADDAY181999GA1081+006909099GF108991081091008001999999MD1710031+9999MW1851
0103010300999991953011918004+69700+019017FM-12+002499999V0202001N00931006901CN0120001N9-00501-00721100411ADDAA199007091AY181999GA1081+006909099GF108991081091008001999999IA1009KA1999M-00501MD1710231+9999MW1851
0076010300999991953012000004+69700+019017FM-12+002499999V0202101N00931015001CN0200001N9-00281-00611099261ADDAY181999GF108991081051017501999999MD1810702+9999MW1021EQDQ01+000702APC3  
0073010300999991953012003004+69700+019017FM-12+002499999V0202401N01541010501CN0040001N9-00221-00281098331ADDAY181999GA1081+010509049GF108991081001012501021999MD1810931+9999MW1731
0103010300999991953012006004+69700+019017FM-12+002499999V0202301N01231220001CN0020001N9+00111+00001097691ADDAA199003091AY171999GA1091+999999999GF109991091999999999021999IA1209KA1999N-00611MD1810641+9999MW1691
0073010300999991953012009004+69700+019017FM-12+002499999V0202301N00931220001CN0020001N9+00111+00111097331ADDAY171999GA1091+999999999GF109991091999999999021999MD1610361+9999MW1691
0073010300999991953012012004+69700+019017FM-12+002499999V0202901N00931220001CN0100001N9+00221-00281097471ADDAY121999GA1041+007809099GF104991041091008001041071MD1010141+9999MW1151
0073010300999991953012015004+69700+019017FM-12+002499999V0202701N00511006901CN0160001N9+00221-00281097431ADDAY181999GA1071+006909099GF107991071091008001001001MD1710041+9999MW1261
0138010300999991953012018004+69700+019017FM-12+002499999V0200501N01231006901CN0160001N9-00111-00221097811ADDAA199016091AY181999GA1081+006909099GF108991081091008001999999IA1209KA1999M+00221MD1210381+9999MW1851EQDQ01+000042APCTENQ02+000382APC3  
0073010300999991953012100004+69700+019017FM-12+002499999V0201101N00261012001CN0400001N9-00391-01001098741ADDAY121999GA1051+012009059GF108991051051012501021999MD1110191+9999MW1021
0108010300999991953012103004+69700+019017FM-12+002499999V0200601N00261220001CN0008001N9-00611-00721098951ADDAY121999GA1091+999999999GF109991091999999999999999MD1210211+9999MW1861EQDQ01+000042APCTENQ02+000212APC3  
0103010300999991953012106004+69700+019017FM-12+002499999V0203601N00261220001CN0400001N9-00611-01221099121ADDAA199001091AY181999GA1041+012009059GF104991041051012501001001IA1319KA1999N-00611MD1010171+9999MW1011
0073010300999991953012109004+69700+019017FM-12+002499999V0202101N00261009001CN0090001N9-00611-00781099061ADDAY181999GA1071+009009099GF107991071091008001001001MD1990061+9999MW1851
0073010300999991953012112004+69700+019017FM-12+002499999V0203601N00261007501CN0020001N9-00501-00611098971ADDAY181999GA1081+007509099GF108991081091008001999999MD1710091+9999MW1851
0073010300999991953012115004+69700+019017FM-12+002499999V0203401N00671007501CN0050001N9-00391-00721098961ADDAY181999GA1071+007509099GF107991071091008001001001MD1710011+9999MW1851
0103010300999991953012118004+69700+019017FM-12+002499999V0203201N00261009001CN0200001N9-00501-01001099041ADDAA199004091AY181999GA1051+009009099GF106991051091008001061001IA1319KA1999M-00391MD1210081+9999MW1261
0073010300999991953012200004+69700+019017FM-12+002499999V0209991C00001006001CN0030001N9-00611-00721099151ADDAY181999GA1081+006009099GF108991081091008001999999MD1210041+9999MW1851
0073010300999991953012203004+69700+019017FM-12+002499999V0203201N00101006901CN0040001N9-00611-00721099231ADDAY181999GA1081+006909099GF108991081091008001999999MD1210081+9999MW1851
0103010300999991953012206004+69700+019017FM-12+002499999V0200101N00671220001CN0600001N9-00611-00891099431ADDAA199010091AY181999GA1031+006909099GF103991031091008001001001IA1319KA1999N-00721MD1210201+9999MW1021
0073010300999991953012209004+69700+019017FM-12+002499999V0203601N00411220001CN0600001N9-00611-01111099581ADDAY121999GA1041+006909089GF107991041081008001061021MD1010151+9999MW1141
0073010300999991953012212004+69700+019017FM-12+002499999V0200501N00671007201CN0600001N9-00501-00891099651ADDAY181999GA1051+007209099GF106991051091008001041001MD1310071+9999MW1261
0073010300999991953012215004+69700+019017FM-12+002499999V0203601N00361007801CN0200001N9-00611-00891099771ADDAY181999GA1051+007809099GF107991051091008001041021MD1210121+9999MW1851
0103010300999991953012218004+69700+019017FM-12+002499999V0203601N00671006001CN0020001N9-00501-00611099931ADDAA199004091AY181999GA1081+006009099GF108991081091008001999999IA1319KA1999M-00501MD1310161+9999MW1861
0073010300999991953012300004+69700+019017FM-12+002499999V0203601N00621220001CN0400001N9-00501-00781100151ADDAY181999GA1041+007809099GF104991041091008001001001MD1310111+9999MW1021
0073010300999991953012303004+69700+019017FM-12+002499999V0203601N00461220001CN0160001N9-00611-00781100201ADDAY181999GA1041+007809099GF104991041091008001001001MD1310051+9999MW1851
0103010300999991953012306004+69700+019017FM-12+002499999V0209991C00001220001CN0600001N9-00721-00781100221ADDAA199001091AY181999GA1021+009009089GF102991021081008001001001IA1319KA1999N-00781MD1110021+9999MW1011
0073010300999991953012309004+69700+019017FM-12+002499999V0202501N00101008401CN0100001N9-00611-00891100231ADDAY111999GA1071+008409059GF107991071051008001999999MD1310011+9999MW1701
0073010300999991953012312004+69700+019017FM-12+002499999V0200901N00261220001CN0600001N9-00501-00721100271ADDAY181999GA1031+007809089GF104991031081008001061001MD1110041+9999MW1261
0073010300999991953012315004+69700+019017FM-12+002499999V0200201N00261007501CN0200001N9-00611-00891100291ADDAY121999GA1071+007509059GF108991081081008001999999MD1310021+9999MW1151
0087010300999991953012318004+69700+019017FM-12+002499999V0200301N00671007801CN0200001N9-00501-00891100291ADDAA199000691AY121999GF107991071081008001999999IA1319KA1999M-00501MD1010001+9999MW1151
0073010300999991953012400004+69700+019017FM-12+002499999V0200501N00771220001CN0600001N9-00721-01111100311ADDAY181999GA1011+012009099GF101991011031012501001001MD1710021+9999MW1011
0073010300999991953012403004+69700+019017FM-12+002499999V0200701N00261220001CN0600001N9-00781-01111100281ADDAY181999GA1011+012009099GF102991011031012501061001MD1810031+9999MW1031
0138010300999991953012406004+69700+019017FM-12+002499999V0203201N00101012001CN0600001N9-00721-00891100281ADDAA199000391AY181999GA1011+009009089GA2061+012009059GF106991061051012501001001IA1319KA1999N-00891MD1410001+9999MW1011EQDQ01+000032APCTEN
0089010300999991953012409004+69700+019017FM-12+002499999V0202901N00211012001CN0200001N9-00781-01001100331ADDAY121999GA1011+007809089GA2061+012009059GF106991061051012501041001MD1310051+9999MW1151
0073010300999991953012412004+69700+019017FM-12+002499999V0203601N00261006601CN0006001N9-00781-00891100391ADDAY181999GA1081+006609099GF108991081091008001999999MD1110051+9999MW1861
0108010300999991953012415004+69700+019017FM-12+002499999V0200201N00461010501CN0160001N9-00721-00891100391ADDAY181999GA1021+006009089GA2071+010509059GF107991071081008001001001MD1410001+9999MW1151EQDQ01+000032APCTEN
0119010300999991953012418004+69700+019017FM-12+002499999V0200601N00511010501CN0600001N9-00721-00891100471ADDAA199001091AY181999GA1021+004809089GA2051+010509059GF105991051061004501001001IA1319KA1999M-00611MD1210081+9999MW1011
0103010300999991953012506004+69700+019017FM-12+002499999V0202701N00101015001CN0600001N9-00781-01001100891ADDAA199000391AY121999GA1051+015009059GF106991051051017501041001IA1319KA1999N-00891MD1310111+9999MW1021
0108010300999991953012509004+69700+019017FM-12+002499999V0202501N00261012001CN0600001N9-00721-00781100931ADDAY181999GA1071+012009059GA2021+007509089GF107991999081008001001001MD1310041+9999MW1851EQDQ01+000022SCOTLC
0089010300999991953012512004+69700+019017FM-12+002499999V0202701N00261009001CN0120001N9-00611-00721100951ADDAY181999GA1081+009009059GA2031+006609089GF108991081081008001999999MD1310021+9999MW1851
0073010300999991953012515004+69700+019017FM-12+002499999V0203601N00211009001CN0200001N9-00611-00781100971ADDAY181999GA1071+009009089GF107991071081008001001001MD1310021+9999MW1151
0103010300999991953012518004+69700+019017FM-12+002499999V0200301N00511009001CN0600001N9-00501-00781101001ADDAA199000391AY181999GA1071+009009089GF107991071081008001001001IA1319KA1999M-00501MD1310031+9999MW1011
0057010300999991953012600004+69700+019017FM-12+002499999V0202401N001019999999N0400001N9-00611-00891100981ADDAY111999GF108991011021012501011999MD1010001+9999MW1031
0057010300999991953012603004+69700+019017FM-12+002499999V0202401N00101012301CN0040001N9-00501-00611100871ADDAY171999GF108991081001012501021999MD1990111+9999MW1711
0119010300999991953012606004+69700+019017FM-12+002499999V0202501N00261024001CN0200001N9-00501-00721100701ADDAA199000591AY171999GA1021+012009059GA2071+024009039GF107991021051012501041001IA1319KA1999N-00611MD1990171+9999MW1221
0089010300999991953012609004+69700+019017FM-12+002499999V0202501N00461024001CN0160001N9-00501-00721100531ADDAY121999GA1031+009009059GA2081+024009039GF108991031051008001071999MD1810171+9999MW1021
0089010300999991953012612004+69700+019017FM-12+002499999V0202701N00261024001CN0160001N9-00391-00611100311ADDAY121999GA1041+004809059GA2081+024009039GF108991041051004501071999MD1710221+9999MW1701
0089010300999991953012615004+69700+019017FM-12+002499999V0202701N00211024001CN0160001N9-00501-00611100031ADDAY121999GA1071+024009039GA2011+003009059GF107991011051004501071001MD1810281+9999MW1021
0122010300999991953012618004+69700+019017FM-12+002499999V0209991C00001024001CN0600001N9-00501-00721099751ADDAA199000691AY121999GA1071+024009039GF107991999001999999071001IA1319KA1999M-00391MD1810281+9999MW1021EQDQ01+000002SCOTLC
0092010300999991953012700004+69700+019017FM-12+002499999V0209991C00001015001CN0600001N9-00611-00781099051ADDAY121999GA1061+015009059GF106991061051017501999001MD1710361+9999MW1011EQDQ01    003SCOMCG
0092010300999991953012703004+69700+019017FM-12+002499999V0209991C00001024001CN0600001N9-00611-00781098721ADDAY121999GA1061+024009039GF106991999001999999071001MD1710331+9999MW1021EQDQ01+000002SCOTLC
0108010300999991953012706004+69700+019017FM-12+002499999V0202901N00411015001CN0600001N9-00611-00891098251ADDAY111999GA1061+015009059GA2051+024009039GF106991031051017501071001IA1319KA1999N-00721MD1710471+9999MW1031
0092010300999991953012709004+69700+019017FM-12+002499999V0202501N00261024001CN0600001N9-00611-00891097971ADDAY111999GA1061+024009049GF106991999001999999011001MD1810281+9999MW1031EQDQ01+000002SCOTLC
0073010300999991953012712004+69700+019017FM-12+002499999V0202501N00261024001CN0400001N9-00611-00891097751ADDAY171999GA1071+024009049GF107991011071008001011999MD1810221+9999MW1701
0073010300999991953012715004+69700+019017FM-12+002499999V0202501N00461015001CN0100001N9-00721-00891097601ADDAY171999GA1081+015009049GF108991081001017501021999MD1610151+9999MW1701
0103010300999991953012718004+69700+019017FM-12+002499999V0202501N00311015001CN0160001N9-00721-00891097461ADDAA199000691AY171999GA1071+015009049GF107991071001017501021001IA1319KA1999M-00611MD1810141+9999MW1221
0073010300999991953012800004+69700+019017FM-12+002499999V0209991C00001012001CN0600001N9-00611-00781097091ADDAY171999GA1051+012009059GF106991051051012501041001MD1810151+9999MW1021
0073010300999991953012803004+69700+019017FM-12+002499999V0202901N00101009001CN0200001N9-00611-00721096961ADDAY171999GA1081+009009059GF108991081051008001999999MD1810131+9999MW1701
0103010300999991953012806004+69700+019017FM-12+002499999V0202501N00261007501CN0160001N9-00611-00721096931ADDAA199001091AY171999GA1061+007509059GF108991061051008001021999IA1319KA1999N-00781MD1610031+9999MW1711
0108010300999991953012809004+69700+019017FM-12+002499999V0202701N00051220001CN0200001N9-00611-00721096981ADDAY121999GA1031+006609059GF108991031051008001021999MD1210051+9999MW1151EQDQ01+000042APCTENQ02+000052APC3  
0089010300999991953012812004+69700+019017FM-12+002499999V0202501N00101220001CN0400001N9-00501-00721097011ADDAY171999GA1021+006909059GA2021+024009039GF105991021051008001041021MD1310031+9999MW1021
0073010300999991953012815004+69700+019017FM-12+002499999V0209991C00001220001CN0600001N9-00721-00891097031ADDAY111999GA1011+012009059GF102991011051012501041021MD1310021+9999MW1011
0087010300999991953012818004+69700+019017FM-12+002499999V0209991C00001220001CN0600001N9-00611-00781097001ADDAA199000391AY101999GF102991001001999999041021IA1319KA1999M-00501MD1990031+9999MW1021
0094010300999991953012900004+69700+019017FM-12+002499999V0202301N00671009901CN0400001N9-00221-00721097261ADDAY101999GA1071+009909089GF107991071031008001001001MW1031EQDQ01+000042APCTENQ02+000212APC3  
0092010300999991953012903004+69700+019017FM-12+002499999V0202701N00461015001CN0400001N9-00281-00781097411ADDAY121999GA1061+015009059GF106991061051012501999001MD1310151+9999MW1011EQDQ01    003SCOMCG
0108010300999991953012906004+69700+019017FM-12+002499999V0202301N00461220001CN0400001N9-00391-00891097601ADDAY121999GA1031+024009039GA2011+015009059GF104991011051012501041001IA1319KA1999N-00611MD1310191+9999MW1011
0089010300999991953012909004+69700+019017FM-12+002499999V0202701N00511220001CN0600001N9-00391-00781097751ADDAY101999GA1031+013809059GA2021+024009039GF104991031051012501041021MD1310151+9999MW1031
0073010300999991953012912004+69700+019017FM-12+002499999V0202501N00311220001CN0600001N9-00391-00721097881ADDAY111999GA1011+013809059GF102991011051012501041001MD1210131+9999MW1011
0092010300999991953012915004+69700+019017FM-12+002499999V0202901N00151220001CN0600001N9-00611-00781097951ADDAY101999GA1011+024009039GF101991999001999999041001MD1010071+9999MW1021EQDQ01+000002SCOTLC
0111010300999991953012918004+69700+019017FM-12+002499999V0202501N00101220001CN0600001N9-00721-00891097951ADDAY101999GA1011+024009039GF101991999001999999071001IA1319KA1999M-00281MD1410001+9999MW1021EQDQ01+000002SCOTLC
0057010300999991953013000004+69700+019017FM-12+002499999V0202701N00261220001CN0700001N9-00891-01001098181ADDAY101999GF100991001001999999001001MD1210101+9999MW1001
0092010300999991953013003004+69700+019017FM-12+002499999V0202901N00461220001CN0700001N9-00891-01221098421ADDAY101999GF100991001001999999001001MD1210241+9999MW1001EQDQ01+000042APCTENQ02+000242APC3  
0076010300999991953013006004+69700+019017FM-12+002499999V0202701N00211220001CN0700001N9-00891-01221098671ADDAY101999GF100991001001999999001001IA1319KA1999N-01001MD1210251+9999MW1001
0073010300999991953013009004+69700+019017FM-12+002499999V0202501N00461220001CN0700001N9-00891-01281098961ADDAY101999GA1011+999999039GF102991001001999999071021MD1210291+9999MW1031
0073010300999991953013012004+69700+019017FM-12+002499999V0202501N00771220001CN0700001N9-00891-01281099221ADDAY101999GA1021+027009039GF102991011011008001051061MD1210261+9999MW1031
0057010300999991953013015004+69700+019017FM-12+002499999V0202501N00461220001CN0600001N9-00891-01281099391ADDAY101999GF101991011011017501001011MD1110171+9999MW1021
0095010300999991953013018004+69700+019017FM-12+002499999V0202401N00511220001CN0600001N9-01001-01281099471ADDAY101999GF103991999001999999041001IA1319KA1999M-00781MD1110081+9999MW1031EQDQ01+000002SCOTLC
0092010300999991953013100004+69700+019017FM-12+002499999V0202501N00101024001CN0700001N9-00781-01111099591ADDAY121999GA1071+024009039GF107991999001999999071001MD1310051+9999MW1021EQDQ01+000002SCOTLC
0073010300999991953013103004+69700+019017FM-12+002499999V0209991C00001013501CN0700001N9-00721-01001099651ADDAY121999GA1071+013509059GF107991071051012501999999MD1310061+9999MW1031
0092010300999991953013106004+69700+019017FM-12+002499999V0202501N00101012001CN0700001N9-00721-01001099711ADDAY121999GA1071+012009059GF107991071051012501001001IA1319KA1999N-01001MD1310061+9999MW1021
0073010300999991953013109004+69700+019017FM-12+002499999V0202701N00261012001CN0700001N9-00611-00891099771ADDAY121999GA1061+012009059GF106991061051012501001001MD1310061+9999MW1011
0057010300999991953013112004+69700+019017FM-12+002499999V0202601N00461220001CN0700001N9-00721-01001099861ADDAY101999GF102991001001999999041021MD1110091+9999MW1021
0057010300999991953013115004+69700+019017FM-12+002499999V0202701N00261220001CN0700001N9-00781-01111099891ADDAY101999GF101991001001999999041011MD1210031+9999MW1021
0095010300999991953013118004+69700+019017FM-12+002499999V0202601N00261220001CN0700001N9-00891-01221099901ADDAY101999GF101991999001999999041001IA1009KA1999M-00611MD1310011+9999MW1021EQDQ01+000002SCOTLC
0087010300999991953020106004+69700+019017FM-12+002499999V0202301N006719999999N0160001N9-00721-01111100311ADDAA199000691AY121999GF108991031061012501021999IA1319KA1999N-01001MD1110081+9999MW1701
0057010300999991953020109004+69700+019017FM-12+002499999V0202401N007219999999N0600001N9-00721-01001100461ADDAY121999GF108991021051017501071999MD1210151+9999MW1021
0057010300999991953020112004+69700+019017FM-12+002499999V0202501N00931007801CN0160001N9-00611-01001100601ADDAY121999GF108991081071008001999999MD1310141+9999MW1701
0057010300999991953020115004+69700+019017FM-12+002499999V0202401N00931007801CN0120001N9-00611-00721100811ADDAY171999GF108991081071008001999999MD1210211+9999MW1701
0087010300999991953020118004+69700+019017FM-12+002499999V0202401N00931007801CN0120001N9-00501-00611101071ADDAA199000391AY181999GF108991081081008001999999IA1319KA1999M-00501MD1310261+9999MW1851
0073010300999991953020200004+69700+019017FM-12+002499999V0202301N00461220001CN0120001N9-00391-00501101691ADDAY171999GA1041+007209059GF108991041051008001021999MD1310311+9999MW1701
0073010300999991953020203004+69700+019017FM-12+002499999V0202301N00461220001CN0600001N9-00391-00501101911ADDAY171999GA1041+009009059GF105991041051008001041001MD1310221+9999MW1011
0103010300999991953020206004+69700+019017FM-12+002499999V0202301N00461007801CN0160001N9-00281-00391102211ADDAA199000391AY121999GA1051+007809059GF108991051051008001021999IA1319KA1999N-00501MD1310301+9999MW1701
0089010300999991953020209004+69700+019017FM-12+002499999V0202501N00511220001CN0400001N9-00221-00281102391ADDAY171999GA1021+010509059GA2011+004509079GF103991021051012501041001MD1310181+9999MW1011
0073010300999991953020212004+69700+019017FM-12+002499999V0202301N00671007501CN0030001N9-00281-00391102601ADDAY171999GA1071+007509059GF108991071051008001999999MD1310211+9999MW1711
0073010300999991953020215004+69700+019017FM-12+002499999V0202501N00461007501CN0080001N9-00221-00281102761ADDAY171999GA1071+007509059GF108991071051008001999999MD1310161+9999MW1701
0103010300999991953020218004+69700+019017FM-12+002499999V0202501N00461007501CN0050001N9-00111-00221102861ADDAA199003091AY171999GA1081+007509059GF108991081051008001999999IA1319KA1999M-00111MD1110101+9999MW1701
0073010300999991953020300004+69700+019017FM-12+002499999V0202501N00461007501CN0600001N9-00111-00221102821ADDAY171999GA1081+007509059GF108991081051008001999999MD1990041+9999MW1021
0073010300999991953020303004+69700+019017FM-12+002499999V0202301N00671007501CN0600001N9-00111-00281102601ADDAY121999GA1081+007509059GF108991081051008001999999MD1810221+9999MW1021
0103010300999991953020306004+69700+019017FM-12+002499999V0202301N00671007501CN0600001N9-00111-00221102351ADDAA199000391AY121999GA1051+007509059GF105991051051008001001001IA1319KA1999N-00221MD1810251+9999MW1011
0089010300999991953020309004+69700+019017FM-12+002499999V0202501N00621027001CN0600001N9+00001+99999101991ADDAY121999GA1051+027009049GA2011+010509059GF108991011051012501071021MD1810361+9999MW1031
0089010300999991953020312004+69700+019017FM-12+002499999V0202301N00671027001CN0400001N9+00111-00391101551ADDAY121999GA1051+027009049GA2021+012009059GF108991021051012501071999MD1810441+9999MW1021
0073010300999991953020315004+69700+019017FM-12+002499999V0203201N00151010501CN0600001N9+00111-00281101131ADDAY121999GA1061+010509059GF108991061051012501071999MD1810421+9999MW1021
0092010300999991953020318004+69700+019017FM-12+002499999V0202701N00101008401CN0600001N9+00111-00391100861ADDAY121999GA1081+008409059GF108991081051008001999999IA1319KA1999M+00111MD1610271+9999MW1021
0094010300999991953020400004+69700+019017FM-12+002499999V0202301N00671009901CN0400001N9-00281-00781101001ADDAY121999GA1081+009909059GF108991081051012501999999MW1021EQDQ01+000042APCTENQ02+000132APC3  
0073010300999991953020403004+69700+019017FM-12+002499999V0202501N00461012001CN0200001N9-00501-00781101191ADDAY171999GA1081+012009059GF108991081051012501999999MD1310191+9999MW1711
0103010300999991953020406004+69700+019017FM-12+002499999V0202301N00671009001CN0160001N9-00611-00721101401ADDAA199000391AY171999GA1081+009009049GF108991081001008001021999IA1319KA1999N-00721MD1310211+9999MW1701
0089010300999991953020409004+69700+019017FM-12+002499999V0202701N00261024001CN0400001N9-00611-00891101641ADDAY121999GA1011+013509059GA2051+024009039GF106991011051012501041001MD1310241+9999MW1011
0092010300999991953020412004+69700+019017FM-12+002499999V0202301N00461220001CN0600001N9-00721-01221101811ADDAY121999GA1021+024009039GF103991999001999999041021MD1110171+9999MW1011EQDQ01+000002SCOTLC
0076010300999991953020415004+69700+019017FM-12+002499999V0202601N00411220001CN0600001N9-00781-01281101911ADDAY101999GF101991999001999999041001MD1310101+9999MW1021EQDQ01+000002SCOTLC
0087010300999991953020418004+69700+019017FM-12+002499999V0202601N00261220001CN0600001N9-00891-01281101971ADDAA199000691AY101999GF100991001001999999001001IA1319KA1999M-00611MD1210061+9999MW1011
0057010300999991953020500004+69700+019017FM-12+002499999V0209991C00001220001CN0600001N9-01001-01391102111ADDAY101999GF100991001001999999001001MD1310081+9999MW1001
0057010300999991953020503004+69700+019017FM-12+002499999V0209991C00001220001CN0600001N9-01111-01391102201ADDAY101999GF100991001001999999001001MD1110091+9999MW1001
0111010300999991953020506004+69700+019017FM-12+002499999V0202501N00101220001CN0600001N9-01111-01501102271ADDAY101999GF100991001001999999001001IA1319KA1999N-01111MD1210071+9999MW1001EQDQ01+000042APCTENQ02+000072APC3  
0057010300999991953020509004+69700+019017FM-12+002499999V0202901N00261220001CN0700001N9-01111-01501102381ADDAY101999GF100991001001999999001001MD1110111+9999MW1021
0057010300999991953020512004+69700+019017FM-12+002499999V0202701N00411220001CN0700001N9-01001-01391102531ADDAY101999GF100991001001999999001001MD1210151+9999MW1021
0057010300999991953020515004+69700+019017FM-12+002499999V0202301N00101220001CN0700001N9-01001-01501102601ADDAY101999GF100991001001999999001001MD1210061+9999MW1021
0076010300999991953020518004+69700+019017FM-12+002499999V0202701N00101220001CN0700001N9-01111-01501102691ADDAY101999GF100991001001999999001001IA1319KA1999M-00891MD1210091+9999MW1021
0073010300999991953020600004+69700+019017FM-12+002499999V0209991C00001048001CN0700001N9-00891-01111102631ADDAY101999GA1071+048009029GF107991001001999999001071MD1710031+9999MW1031
0092010300999991953020603004+69700+019017FM-12+002499999V0209991C00001220001CN0700001N9-00781-01001102571ADDAY121999GA1021+027009039GF105991999001999999041021MD1810061+9999MW1011EQDQ01+000002SCOTLC
0092010300999991953020606004+69700+019017FM-12+002499999V0209991C00001220001CN0700001N9-00891-01001102561ADDAY111999GA1021+015009059GF103991021051017501041001IA1319KA1999N-01221MD1610011+9999MW1011
0073010300999991953020609004+69700+019017FM-12+002499999V0202701N00151220001CN0030001N9-00891-01001102611ADDAY101999GA1031+012009059GF103991031051012501041001MD1210051+9999MW1101
0073010300999991953020612004+69700+019017FM-12+002499999V0202701N00051220001CN0400001N9-00781-00781102671ADDAY111999GA1011+002709079GF101991011061002501041001MD1310061+9999MW1021
0108010300999991953020615004+69700+019017FM-12+002499999V0202901N00101220001CN0400001N9-00891-01001102701ADDAY101999GA1011+015009059GA2011+009009079GF101991011051017501999001MD1210031+9999MW1011EQDQ01    003SCOMCG
0076010300999991953020618004+69700+019017FM-12+002499999V0209991C00001220001CN0600001N9-01001-01391102731ADDAY101999GF100991001001999999001001IA1319KA1999M-00721MD1310031+9999MW1001
0057010300999991953020700004+69700+019017FM-12+002499999V0209991C00001220001CN0600001N9-01111-01501102791ADDAY101999GF100991001001999999001001MD1310031+9999MW1001
0057010300999991953020703004+69700+019017FM-12+002499999V0209991C00001220001CN0600001N9-01221-01611102811ADDAY101999GF100991001001999999001001MD1010021+9999MW1001
0076010300999991953020706004+69700+019017FM-12+002499999V0209991C00001220001CN0600001N9-01111-01501102821ADDAY101999GF100991001001999999001001IA1319KA1999N-01221MD1310011+9999MW1001
0092010300999991953020709004+69700+019017FM-12+002499999V0209991C00001220001CN0600001N9-01111-01501102811ADDAY101999GA1011+048009039GF101991999001999999041011MD1710011+9999MW1031EQDQ01+000002SCOTLC
0092010300999991953020712004+69700+019017FM-12+002499999V0202701N00101220001CN0600001N9-01111-01501102851ADDAY101999GA1011+048009039GF101991999001999999041001MD1110041+9999MW1021EQDQ01+000002SCOTLC
0073010300999991953020715004+69700+019017FM-12+002499999V0209991C00001220001CN0600001N9-01111-01391102871ADDAY101999GA1011+048009039GF101991011011012501041011MD1310021+9999MW1021
0111010300999991953020718004+69700+019017FM-12+002499999V0202701N00101220001CN0600001N9-01111-01391102821ADDAY101999GA1011+048009039GF101991999001999999041001IA1319KA1999M-01001MD1810051+9999MW1021EQDQ01+000002SCOTLC
0111010300999991953020806004+69700+019017FM-12+002499999V0209991C00001220001CN0600001N9-01221-01611102711ADDAY101999GA1021+048009039GF103991999001999999041011IA1319KA1999N-01281MD1610081+9999MW1021EQDQ01+000002SCOTLC
0092010300999991953020809004+69700+019017FM-12+002499999V0209991C00001220001CN0600001N9-01221-01611102701ADDAY101999GA1021+048009039GF106991999001999999041071MD1810011+9999MW1031EQDQ01+000002SCOTLC
0073010300999991953020812004+69700+019017FM-12+002499999V0202501N00101220001CN0600001N9-01001-01391102641ADDAY111999GA1011+013809089GF104991011011012501041021MD1810061+9999MW1011
0092010300999991953020815004+69700+019017FM-12+002499999V0202701N00211220001CN0600001N9-01111-01611102591ADDAY111999GA1021+048009039GF108991999001999999041071MD1610051+9999MW1031EQDQ01+000002SCOTLC
0111010300999991953020818004+69700+019017FM-12+002499999V0202501N00461220001CN0600001N9-01111-01611102531ADDAY121999GA1021+048009039GF102991999001999999041001IA1319KA1999M-01001MD1810061+9999MW1011EQDQ01+000002SCOTLC
0057010300999991953020900004+69700+019017FM-12+002499999V0202301N00671220001CN0700001N9-01001-01391102431ADDAY101999GF100991001001999999001001MD1810011+9999MW1021
0057010300999991953020903004+69700+019017FM-12+002499999V0202701N00261220001CN0700001N9-00891-01281102381ADDAY101999GF100991001001999999001001MD1610051+9999MW1021
0076010300999991953020906004+69700+019017FM-12+002499999V0202301N00261220001CN0700001N9-01111-01501102411ADDAY101999GF101991001001999999001021IA1319KA1999N-01221MD1310031+9999MW1021
0057010300999991953020909004+69700+019017FM-12+002499999V0202601N00411220001CN0400001N9-01001-01501102441ADDAY101999GF101991001001999999041091MD1310031+9999MW1101
0092010300999991953020912004+69700+019017FM-12+002499999V0202401N00571220001CN0160001N9-01001-01391102361ADDAY111999GA1031+027009039GF106991999001999999041091MD1990061+9999MW1101EQDQ01+000002SCOTLC
0073010300999991953020915004+69700+019017FM-12+002499999V0202701N00511220001CN0600001N9-01001-01391102281ADDAY121999GA1011+018009089GF103991011011017501041021MD1710081+9999MW1011
0095010300999991953020918004+69700+019017FM-12+002499999V0202601N00461220001CN0600001N9-00891-01391102211ADDAY101999GF101991999001999999041001IA1319KA1999M-00891MD1510071+9999MW1011EQDQ01+000002SCOTLC
0092010300999991953021000004+69700+019017FM-12+002499999V0202501N00511220001CN0600001N9-00891-01391102131ADDAY101999GA1021+030009039GF102991999001999999041001MD1810021+9999MW1021EQDQ01+000002SCOTLC
0092010300999991953021003004+69700+019017FM-12+002499999V0202301N00511220001CN0600001N9-00891-01391102141ADDAY101999GA1021+030009039GF102991999001999999041001MD1710011+9999MW1021EQDQ01+000002SCOTLC
0108010300999991953021006004+69700+019017FM-12+002499999V0202301N00621024001CN0600001N9-00721-01281102111ADDAY121999GA1061+024009049GA2011+018009059GF106991011051017501071001IA1319KA1999N-01001MD1710031+9999MW1011
0092010300999991953021009004+69700+019017FM-12+002499999V0202901N00261220001CN0700001N9-01001-01391102171ADDAY111999GA1021+024009039GF102991999001999999041001MD1210061+9999MW1011EQDQ01+000002SCOTLC
0092010300999991953021012004+69700+019017FM-12+002499999V0202701N00461220001CN0700001N9-01001-01501102211ADDAY101999GA1011+027009039GF101991999001999999041001MD1110041+9999MW1021EQDQ01+000002SCOTLC
0076010300999991953021015004+69700+019017FM-12+002499999V0202701N00101220001CN0700001N9-01111-01611102211ADDAY111999GF101991001001999999001011MD1410001+9999MW1021EQDQ01+000032APCTEN
0076010300999991953021018004+69700+019017FM-12+002499999V0209991C00001220001CN0600001N9-01111-01501102171ADDAY101999GF101991001001999999001011IA1319KA1999M-00721MD1810041+9999MW1021
0092010300999991953021100004+69700+019017FM-12+002499999V0209991C00001220001CN0600001N9-01111-01501101891ADDAY101999GA1031+027009039GF106991999001999999041021MD1990181+9999MW1031EQDQ01+000002SCOTLC
0092010300999991953021103004+69700+019017FM-12+002499999V0202701N00101027001CN0600001N9-01001-01391101681ADDAY121999GA1081+027009039GF108991999001999999051999MD1710211+9999MW1031EQDQ01+000002SCOTLC
0103010300999991953021106004+69700+019017FM-12+002499999V0202501N00671018001CN0160001N9-01111-01391101511ADDAA199000691AY171999GA1081+018009049GF108991081001017501021999IA1319KA1999N-01221MD1610171+9999MW1701
0089010300999991953021109004+69700+019017FM-12+002499999V0202501N01031048001CN0150001N9-01221-01611101661ADDAY121999GA1011+007809059GA2071+048009039GF107991011051008001041001MD1110151+9999MW1151
0089010300999991953021112004+69700+019017FM-12+002499999V0202301N01081220001CN0200001N9-01111-01501101791ADDAY121999GA1041+027009049GA2011+008409059GF107991011051008001071021MD1210131+9999MW1151
0092010300999991953021115004+69700+019017FM-12+002499999V0202501N00931220001CN0400001N9-01221-01721101861ADDAY111999GA1041+027009039GF108991999001999999041071MD1310071+9999MW1031EQDQ01+000002SCOTLC
0103010300999991953021118004+69700+019017FM-12+002499999V0202501N00931220001CN0400001N9-01111-01611101951ADDAA199001091AY111999GA1021+010809059GF104991021051012501041001IA1319KA1999M-01111MD1210091+9999MW1021
0057010300999991953021200004+69700+019017FM-12+002499999V0202501N00931220001CN0700001N9-01001-01001102281ADDAY101999GF100991001001999999001001MD1310141+9999MW1021
0057010300999991953021203004+69700+019017FM-12+002499999V0202501N00981220001CN0700001N9-01001-01391102361ADDAY101999GF100991001001999999001001MD1210081+9999MW1181
0111010300999991953021206004+69700+019017FM-12+002499999V0202501N00931220001CN0700001N9-00891-01281102401ADDAY101999GA1011+027009039GF101991999001999999041001IA1319KA1999N-01221MD1210041+9999MW1031EQDQ01+000002SCOTLC
0059010300999991953021209004+69700+019017FM-12+002499999V0202501N00931220001CN0700001N9+99999+99999999999ADDAY101999GA1041+015009059GF105991041061017501999999MW1031
0094010300999991953021212004+69700+019017FM-12+002499999V0202401N00931012001CN0600001N9-00391-00891102401ADDAY101999GA1051+012009059GF105991051081012501041001MW1011EQDQ01+000022APCTENQ02+000002APC3  
0073010300999991953021215004+69700+019017FM-12+002499999V0202501N00671220001CN0600001N9-00391-00891102321ADDAY101999GA1011+012009089GF101991011081012501041001MD1710081+9999MW1011
0087010300999991953021218004+69700+019017FM-12+002499999V0202301N00931220001CN0700001N9-00281-00891102201ADDAA199000691AY101999GF101991011051012501001001IA1319KA1999M-00281MD1710121+9999MW1021
0057010300999991953021300004+69700+019017FM-12+002499999V0202301N010319999999N0400001N9-00221-00891101641ADDAY111999GF107991021001999999041071MD1810301+9999MW1031
0057010300999991953021303004+69700+019017FM-12+002499999V0202301N00671220001CN0400001N9-00111-00891101331ADDAY121999GF108991001001999999021999MD1810311+9999MW1031
0111010300999991953021306004+69700+019017FM-12+002499999V0202301N00671015001CN0600001N9-00221-01111101041ADDAY121999GA1061+015009059GF106991061081017501999001IA1319KA1999N-00611MD1610291+9999MW1021EQDQ01    003SCOMCG
0073010300999991953021309004+69700+019017FM-12+002499999V0202301N00671009001CN0160001N9-00281-00781100931ADDAY121999GA1071+009009059GF108991071051008001011999MD1990111+9999MW1701
0073010300999991953021312004+69700+019017FM-12+002499999V0202301N01231007201CN0160001N9-00281-00611100771ADDAY171999GA1061+007209059GF106991061081008001001001MD1710161+9999MW1151
0073010300999991953021315004+69700+019017FM-12+002499999V0202001N01701004201CN0020001N9-00281-00391100511ADDAY171999GA1081+004209099GF108991081091004501999999MD1710261+9999MW1871
0103010300999991953021318004+69700+019017FM-12+002499999V0202301N00261220001CN0400001N9-00111-00281100621ADDAA199003091AY181999GA1041+006909099GF104991041091008001001001IA1319KA1999M-00111MD1110111+9999MW1871
0073010300999991953021400004+69700+019017FM-12+002499999V0202301N00931220001CN0160001N9-00221-00281100471ADDAY181999GA1041+007209099GF107991041091008001001071MD1710091+9999MW1871
0073010300999991953021403004+69700+019017FM-12+002499999V0202501N00931006001CN0100001N9-00281-00501100341ADDAY181999GA1081+006009099GF108991081091008001999999MD1610131+9999MW1871
0103010300999991953021406004+69700+019017FM-12+002499999V0202501N00261007801CN0100001N9-00281-00391100421ADDAA199007091AY181999GA1081+007809099GF108991081091008001999999IA1319KA1999N-00391MD1210081+9999MW1151
0073010300999991953021409004+69700+019017FM-12+002499999V0203201N00771220001CN0002001N9-00391-00501100531ADDAY181999GA1091+999999999GF109991091999999999999999MD1210111+9999MW1861
0073010300999991953021412004+69700+019017FM-12+002499999V0203201N00261006901CN0200001N9-00391-00721100701ADDAY181999GA1071+006909099GF107991071091008001001001MD1210171+9999MW1151
0073010300999991953021415004+69700+019017FM-12+002499999V0202301N00261006901CN0080001N9-00501-00721100821ADDAY181999GA1071+006909099GF107991071091008001001001MD1210121+9999MW1851
0103010300999991953021418004+69700+019017FM-12+002499999V0202301N00461006001CN0050001N9-00611-00721100801ADDAA199007091AY181999GA1081+006009099GF108991081091008001999999IA1319KA1999M-00221MD1710021+9999MW1851
0103010300999991953021506004+69700+019017FM-12+002499999V0202301N00101006001CN0040001N9-00611-00721100961ADDAA199009091AY181999GA1081+006009099GF108991081091004501999999IA1319KA1999N-00721MD1810021+9999MW1851
0073010300999991953021509004+69700+019017FM-12+002499999V0202301N00261006901CN0100001N9-00611-00721100921ADDAY181999GA1071+006909099GF107991071091008001001001MD1710041+9999MW1851
0073010300999991953021512004+69700+019017FM-12+002499999V0203201N00261006901CN0080001N9-00501-00611100901ADDAY181999GA1071+006909099GF107991071091008001001021MD1710021+9999MW1851
0073010300999991953021515004+69700+019017FM-12+002499999V0203001N00101006901CN0160001N9-00501-00721100931ADDAY181999GA1071+006909099GF107991071091008001001001MD1210031+9999MW1851
0103010300999991953021518004+69700+019017FM-12+002499999V0202301N00261220001CN0600001N9-00611-00721100961ADDAA199005091AY181999GA1031+006909099GF103991031091008001001001IA1319KA1999M-00501MD1210031+9999MW1011
0073010300999991953021600004+69700+019017FM-12+002499999V0209991C00001006901CN0200001N9-00501-00611100981ADDAY181999GA1071+006909099GF107991071091008001001001MD1310031+9999MW1851
0073010300999991953021603004+69700+019017FM-12+002499999V0209991C00001006901CN0400001N9-00611-00721100991ADDAY181999GA1071+006909099GF107991071091008001001001MD1310011+9999MW1021
0103010300999991953021606004+69700+019017FM-12+002499999V0201601N00211220001CN0600001N9-00721-00891100901ADDAA199002091AY181999GA1011+012009059GF101991011051012501001001IA1319KA1999N-00781MD1810091+9999MW1011
0073010300999991953021609004+69700+019017FM-12+002499999V0209991C00001220001CN0700001N9-00781-01001100731ADDAY101999GA1011+009009089GF103991011081008001001081MD1810171+9999MW1021
0057010300999991953021612004+69700+019017FM-12+002499999V0209991C00001220001CN0700001N9-00611-01221100361ADDAY101999GF107991001001999999001071MD1810371+9999MW1031
0073010300999991953021615004+69700+019017FM-12+002499999V0209991C00001039001CN0700001N9-00721-01221099911ADDAY121999GA1071+039009009GF107991001001999999001011MD1810451+9999MW1021
0076010300999991953021618004+69700+019017FM-12+002499999V0209991C00001220001CN0600001N9-00501-01111099511ADDAY121999GF108991001001999999011999IA1319KA1999M-00501MD1810401+9999MW1031
0092010300999991953021700004+69700+019017FM-12+002499999V0209991C00001027001CN0600001N9-00281-00611099011ADDAY121999GA1071+027009049GF107991999001999999011999MD1810251+9999MW1011EQDQ01+000002SCOTLC
0092010300999991953021703004+69700+019017FM-12+002499999V0209991C00001220001CN0600001N9-00391-00781098811ADDAY121999GA1011+027009039GF101991999001999999041051MD1810201+9999MW1011EQDQ01+000002SCOTLC
0092010300999991953021706004+69700+019017FM-12+002499999V0209991C00001220001CN0600001N9-00391-00781098701ADDAY121999GA1041+018009059GF106991041051017501041001IA1319KA1999N-00501MD1610111+9999MW1031
0089010300999991953021709004+69700+019017FM-12+002499999V0209991C00001220001CN0600001N9-00391-00721098681ADDAY111999GA1021+015009059GA2041+024009039GF106991021051017501041021MD1810021+9999MW1031
0089010300999991953021712004+69700+019017FM-12+002499999V0202301N00461220001CN0600001N9-00281-00721098641ADDAY121999GA1031+012009059GA2031+024009039GF106991031081012501041021MD1990041+9999MW1021
0089010300999991953021715004+69700+019017FM-12+002499999V0202501N00931024001CN0400001N9-00221-00721098591ADDAY121999GA1021+013809059GA2081+024009049GF108991021051012501021999MD1710051+9999MW1031
0103010300999991953021718004+69700+019017FM-12+002499999V0202301N00931006001CN0040001N9-00391-00501098681ADDAA199000591AY171999GA1081+006009049GF108991081001008001021999IA1319KA1999M-00221MD1110091+9999MW1711
0073010300999991953021800004+69700+019017FM-12+002499999V0202301N00671220001CN0600001N9-00391-00501098791ADDAY181999GA1021+009009089GF102991021081008001001001MD1010091+9999MW1261
0073010300999991953021803004+69700+019017FM-12+002499999V0202301N00311006901CN0008001N9-00281-00391098861ADDAY181999GA1081+006909099GF108991081091008001999999MD1210071+9999MW1861
0103010300999991953021806004+69700+019017FM-12+002499999V0209991C00001009001CN0200001N9-00281-00391098981ADDAA199005091AY181999GA1061+009009099GF107991061091008001061001IA1319KA1999N-00501MD1210121+9999MW1151
0073010300999991953021809004+69700+019017FM-12+002499999V0203001N00101009001CN0600001N9-00391-00611099081ADDAY181999GA1061+009009099GF107991061091008001061001MD1210101+9999MW1021
0073010300999991953021812004+69700+019017FM-12+002499999V0203001N00101009001CN0200001N9-00391-00891099071ADDAY181999GA1071+009009099GF107991071091008001999999MD1990011+9999MW1261
0073010300999991953021815004+69700+019017FM-12+002499999V0203601N00101009001CN0400001N9-00501-00891098951ADDAY181999GA1081+009009099GF108991081091008001999999MD1990121+9999MW1151
0103010300999991953021818004+69700+019017FM-12+002499999V0209991C00001009001CN0160001N9-00611-00721098941ADDAA199001091AY181999GA1071+009009099GF107991071091008001999999IA1319KA1999M-00221MD1710011+9999MW1851
0078010300999991953021900004+69700+019017FM-12+002499999V0203601N006719999999N0400001N9-00721-00891098981ADDAY121999GF107991041061012501071999MW1021EQDQ01+000042APCTENQ02+000042APC3  
0057010300999991953021903004+69700+019017FM-12+002499999V0203601N00671012301CN0100001N9-00721-00891099121ADDAY171999GF108991081081012501999999MD1310141+9999MW1701
0103010300999991953021906004+69700+019017FM-12+002499999V0203601N00511007501CN0200001N9-00721-00891099321ADDAA199000691AY171999GA1061+007509099GF108991081091008001999999IA1319KA1999N-00781MD1310201+9999MW1151
0073010300999991953021909004+69700+019017FM-12+002499999V0203601N00261009001CN0600001N9-00781-01221099481ADDAY181999GA1051+009009089GF106991061031008001041001MD1310161+9999MW1011
0073010300999991953021912004+69700+019017FM-12+002499999V0202301N00261220001CN0050001N9-00721-01111099631ADDAY111999GA1031+009009089GF108991031031008001041021MD1210151+9999MW1851
0073010300999991953021915004+69700+019017FM-12+002499999V0202301N00311220001CN0600001N9-01001-01391099671ADDAY181999GA1011+007809059GF101991011041008001041021MD1310041+9999MW1021
0103010300999991953021918004+69700+019017FM-12+002499999V0202301N00671220001CN0600001N9-00781-01221099651ADDAA199000691AY181999GA1011+007809059GF101991011041008001041001IA1319KA1999M-00721MD1710021+9999MW1021
0073010300999991953022000004+69700+019017FM-12+002499999V0202301N00931220001CN0600001N9-00721-01221099481ADDAY101999GA1041+010809059GF105991041051012501041001MD1990051+9999MW1031
0073010300999991953022003004+69700+019017FM-12+002499999V0202301N00931220001CN0600001N9-00721-01221099521ADDAY111999GA1041+010809059GF105991041051012501001021MD1110041+9999MW1021
0103010300999991953022006004+69700+019017FM-12+002499999V0202001N00931007801CN0160001N9-00721-01001099491ADDAA199000391AY181999GA1051+007809099GF105991051091008001001001IA1319KA1999N-00891MD1610031+9999MW1151
0073010300999991953022009004+69700+019017FM-12+002499999V0202001N00771220001CN0600001N9-00611-01111099271ADDAY181999GA1011+012009059GF106991011051012501011051MD1710221+9999MW1031
0073010300999991953022012004+69700+019017FM-12+002499999V0202301N00621006001CN0050001N9-00611-00891099131ADDAY171999GA1081+006009049GF108991081001008001021999MD1510141+9999MW1711
0073010300999991953022015004+69700+019017FM-12+002499999V0201801N00671220001CN0200001N9-00501-00891099081ADDAY171999GA1041+009009059GF106991041051008001041001MD1710051+9999MW1021
0103010300999991953022018004+69700+019017FM-12+002499999V0202301N00261220001CN0400001N9-00501-00781099031ADDAA199000691AY171999GA1021+009009059GF104991021051008001041001IA1319KA1999M-00391MD1710051+9999MW1011
0073010300999991953022100004+69700+019017FM-12+002499999V0200201N00101220001CN0200001N9-00501-00721099581ADDAY171999GA1041+009009059GF108991041051008001021999MD1810191+9999MW1701
0076010300999991953022103004+69700+019017FM-12+002499999V0209991C00001220001CN0600001N9-00611-00781098401ADDAY171999GF101991999001999999041001MD1810181+9999MW1011EQDQ01+000002SCOTLC
0122010300999991953022106004+69700+019017FM-12+002499999V0202301N00101220001CN0600001N9-00721-00781098181ADDAA199000691AY171999GA1031+027009049GF106991999001999999071011IA1319KA1999N-00721MD1710221+9999MW1031EQDQ01+000002SCOTLC
0089010300999991953022109004+69700+019017FM-12+002499999V0202501N00101220001CN0600001N9-00611-00721098111ADDAY121999GA1031+027009049GA2011+006909079GF107991011061008001071071MD1610071+9999MW1021
0092010300999991953022112004+69700+019017FM-12+002499999V0202301N00211220001CN0600001N9-00391-00721098141ADDAY121999GF101991001001999999001011MD1210031+9999MW1011EQDQ01+000042APCTENQ02+000032APC3  
0073010300999991953022115004+69700+019017FM-12+002499999V0202301N00211009001CN0600001N9-00501-01001098281ADDAY121999GA1081+009009059GF108991081051008001999999MD1210141+9999MW1031
0127010300999991953022118004+69700+019017FM-12+002499999V0202501N00151008101CN0600001N9-00501-00891098581ADDAY121999GA1071+008109059GF107991071051008001999999IA1319KA1999M-00391MD1210301+9999MW1021EQDQ01+000042APCTENQ02+000302APC3  
0103010300999991953022206004+69700+019017FM-12+002499999V0209991C00001220001CN0600001N9-00611-00891099861ADDAA199000691AY121999GA1041+012009059GF104991041051012501041011IA1319KA1999N-00721MD1310191+9999MW1021
0108010300999991953022209004+69700+019017FM-12+002499999V0201601N00261220001CN0600001N9-00611-00891099981ADDAY121999GA1021+015009059GA2011+009009089GF103991031081008001999011MD1310121+9999MW1011EQDQ01    003SCOMCG
0073010300999991953022212004+69700+019017FM-12+002499999V0202301N00211009001CN0600001N9-00281-00611100091ADDAY181999GA1061+009009089GF106991061031008001041001MD1310111+9999MW1261
0073010300999991953022215004+69700+019017FM-12+002499999V0202501N00311009001CN0600001N9-00501-00781100191ADDAY121999GA1061+009009089GF106991061031008001041001MD1310111+9999MW1151
0103010300999991953022218004+69700+019017FM-12+002499999V0202301N00411009001CN0100001N9-00501-00611100251ADDAA199000391AY181999GA1071+009009099GF107991071091008001001001IA1319KA1999M-00281MD1310061+9999MW1851
0073010300999991953022300004+69700+019017FM-12+002499999V0202701N00261009001CN0120001N9-00501-00611100371ADDAY181999GA1071+009009099GF107991071091008001001001MD1310061+9999MW1851
0073010300999991953022303004+69700+019017FM-12+002499999V0202501N00261220001CN0600001N9-00501-00721100351ADDAY181999GA1021+009009089GF106991021021008001061001MD1990021+9999MW1011
0087010300999991953022306004+69700+019017FM-12+002499999V0209991C00001220001CN0600001N9-00781-01001100251ADDAA199001091AY181999GF101991001001999999001011IA1319KA1999N-00891MD1810101+9999MW1011
0057010300999991953022309004+69700+019017FM-12+002499999V0209991C00001220001CN0700001N9-00721-01221100111ADDAY101999GF101991001001999999001011MD1810141+9999MW1021
0092010300999991953022312004+69700+019017FM-12+002499999V0200501N00261220001CN0700001N9-00611-01221099981ADDAY101999GA1021+027009039GF103991999001999999051051MD1810131+9999MW1031EQDQ01+000002SCOTLC
0092010300999991953022315004+69700+019017FM-12+002499999V0200501N00101220001CN0700001N9-00611-01281099911ADDAY111999GA1031+027009039GF107991999001999999041051MD1810071+9999MW1031EQDQ01+000002SCOTLC
0111010300999991953022318004+69700+019017FM-12+002499999V0209991C00001220001CN0700001N9-00721-01221099911ADDAY121999GA1021+024009039GF108991999001999999041071IA1319KA1999M-00501MD1410001+9999MW1021EQDQ01+000002SCOTLC
0057010300999991953022400004+69700+019017FM-12+002499999V0202301N00101220001CN0700001N9-00721-01221100351ADDAY111999GF101991001001999999001021MD1210201+9999MW1011
0057010300999991953022403004+69700+019017FM-12+002499999V0202301N00261220001CN0700001N9-00781-01281100581ADDAY101999GF102991001001999999001011MD1210231+9999MW1021
0076010300999991953022406004+69700+019017FM-12+002499999V0202301N00211220001CN0700001N9-00891-01221100771ADDAY101999GF101991001001999999001011IA1319KA1999N-01001MD1210191+9999MW1021
0057010300999991953022409004+69700+019017FM-12+002499999V0202301N00101220001CN0700001N9-00781-01001100861ADDAY101999GF101991001001999999001011MD1210091+9999MW1021
0092010300999991953022412004+69700+019017FM-12+002499999V0209991C00001220001CN0700001N9-00611-00891100891ADDAY111999GA1031+027009039GF107991999001999999071011MD1010031+9999MW1031EQDQ01+000002SCOTLC
0073010300999991953022415004+69700+019017FM-12+002499999V0209991C00001220001CN0700001N9-00501-01001100821ADDAY111999GA1021+012009059GF105991021051012501041011MD1610071+9999MW1021
0092010300999991953022418004+69700+019017FM-12+002499999V0202301N00671220001CN0700001N9+00221-00501100581ADDAY111999GA1031+012009059GF105991031051012501071001IA1319KA1999M+00221MD1710241+9999MW1021
0057010300999991953022500004+69700+019017FM-12+002499999V0202001N012319999999N0600001N9+00281-00281099751ADDAY121999GF108991031061017501021999MD1810431+9999MW1031
0057010300999991953022503004+69700+019017FM-12+002499999V0202101N01231015001CN0600001N9+00391-00221099401ADDAY121999GF108991051061017501011999MD1710351+9999MW1021
0103010300999991953022506004+69700+019017FM-12+002499999V0202101N01541009001CN0200001N9+00501+00001099231ADDAA199000691AY181999GA1071+009009099GF107991071091008001999999IA1319KA1999N+00111MD1610171+9999MW1801
0073010300999991953022509004+69700+019017FM-12+002499999V0202001N01031009001CN0400001N9+00501+00221099351ADDAY181999GA1071+009009099GF107991071091008001001001MD1210121+9999MW1251
0089010300999991953022512004+69700+019017FM-12+002499999V0202301N01231009001CN0400001N9+00611+00221099301ADDAY181999GA1071+009009089GA2021+006009079GF107991071031008001001001MD1990051+9999MW1021
0073010300999991953022515004+69700+019017FM-12+002499999V0202301N01541009001CN0400001N9+00501+00221099381ADDAY181999GA1071+009009099GF107991071091008001001001MD1210081+9999MW1801
0103010300999991953022518004+69700+019017FM-12+002499999V0202301N00931009001CN0200001N9+00501+00001099561ADDAA199001091AY181999GA1071+009009099GF107991071091008001001001IA1209KA1999M+00721MD1210181+9999MW1801
0073010300999991953022600004+69700+019017FM-12+002499999V0202301N00461009001CN0400001N9+00391+00001099951ADDAY181999GA1061+009009089GF106991061031008001001001MD1110261+9999MW1011
0073010300999991953022603004+69700+019017FM-12+002499999V0202001N00931006001CN0100001N9+00111+00001100061ADDAY121999GA1081+006009099GF108991081091008001999999MD1210111+9999MW1811
0119010300999991953022606004+69700+019017FM-12+002499999V0202301N00261009001CN0160001N9+00111+00111100011ADDAA199009091AY181999GA1051+009009099GA2021+004209079GF106991051091008001041001IA1209KA1999N+00111MD1010051+9999MW1151
0073010300999991953022609004+69700+019017FM-12+002499999V0202301N00461006001CN0120001N9+00221+00111099791ADDAY181999GA1061+006009079GF108991061071008001021999MD1710221+9999MW1611
0073010300999991953022612004+69700+019017FM-12+002499999V0202301N00671006001CN0160001N9+00281+00221099261ADDAY181999GA1071+006009079GF108991071071008001021999MD1810531+9999MW1611
0073010300999991953022615004+69700+019017FM-12+002499999V0203201N00101006901CN0080001N9+00281+00221098451ADDAY161999GA1081+006909049GF108991081001008001021999MD1810811+9999MW1631
0103010300999991953022618004+69700+019017FM-12+002499999V0203601N00461005401CN0060001N9+00111+00111098151ADDAA199015091AY161999GA1081+005409079GF108991081071004501999999IA1209KA1999M+00281MD1610301+9999MW1681
0108010300999991953022700004+69700+019017FM-12+002499999V0202501N00461004801CN0020001N9+00111+00111099962ADDAY171999GA1081+004809079GF108991081071004501999999MD1210922+9999MW1681EQDQ01+099963APOSLPQ02+000922APC3  
0073010300999991953022703004+69700+019017FM-12+002499999V0202501N00461006901CN0150001N9+00221-00221100231ADDAY181999GA1071+006909079GF107991071091008001999999MD1210271+9999MW1871
0103010300999991953022706004+69700+019017FM-12+002499999V0202501N00931006901CN0400001N9+00111+00001100271ADDAA199015091AY181999GA1071+006909099GF107991071091008001999999IA1209KA1999N+00001MD1210041+9999MW1151
0108010300999991953022709004+69700+019017FM-12+002499999V0202501N00411006901CN0100001N9+00111+00001100601ADDAY181999GA1071+006909099GF107991071091008001999999MD1210331+9999MW1851EQDQ01+000042APCTENQ02+000332APC3  
0073010300999991953022712004+69700+019017FM-12+002499999V0202501N00671006001CN0050001N9+00281-00281100851ADDAY181999GA1081+006009099GF108991081091008001999999MD1210251+9999MW1851
0073010300999991953022715004+69700+019017FM-12+002499999V0202301N00621220001CN0004001N9+00001-00111100841ADDAY191999GA1091+999999999GF109991091999999999999999MD1710011+9999MW1861
0103010300999991953022718004+69700+019017FM-12+002499999V0202901N00461007501CN0160001N9+00221-00281100871ADDAA199007091AY181999GA1081+007509099GF108991081091008001999999IA1209KA1999M+00281MD1210031+9999MW1871
0073010300999991953022800004+69700+019017FM-12+002499999V0203201N00671006901CN0400001N9+00001-00391101491ADDAY181999GA1061+006909099GF106991061091008001001001MD1310391+9999MW1271
0073010300999991953022803004+69700+019017FM-12+002499999V0203201N00461007801CN0150001N9-00111-00501101901ADDAY181999GA1071+007809099GF107991071091008001001001MD1310411+9999MW1871
0103010300999991953022806004+69700+019017FM-12+002499999V0202001N00411007801CN0100001N9-00111-00391101901ADDAA199005091AY181999GA1081+007809099GF108991081091008001999999IA1209KA1999N-00221MD1010001+9999MW1871
0073010300999991953022809004+69700+019017FM-12+002499999V0202101N00621009001CN0200001N9+00221-00221101551ADDAY121999GA1051+009009059GF107991051081008001051001MD1990351+9999MW1101
0073010300999991953022812004+69700+019017FM-12+002499999V0202301N01231010501CN0200001N9+00281-00221101041ADDAY181999GA1071+010509059GF108991071051012501071999MD1710511+9999MW1031
0073010300999991953022815004+69700+019017FM-12+002499999V0202301N01541005401CN0120001N9+00281+00221100531ADDAY161999GA1061+005409079GF108991061071004501021999MD1810511+9999MW1631
0122010300999991953022818004+69700+019017FM-12+002499999V0202601N00261007801CN0200001N9+00501+00111100591ADDAA199001091AY181999GF108991061091008001071999IA1209KA1999M+00501MD1210061+9999MW1021EQDQ01+000042APCTENQ02+000062APC3  
0103010300999991953030106004+69700+019017FM-12+002499999V0202701N00821007501CN0030001N9+00221-00111100171ADDAA199008091AY181999GA1081+007509099GF108991081091008001999999IA1209KA1999N+00001MD1710071+9999MW1881
0073010300999991953030109004+69700+019017FM-12+002499999V0202501N00771007501CN0060001N9+00111-00281100351ADDAY181999GA1071+007509099GF107991071091008001001001MD1210181+9999MW1871
0073010300999991953030112004+69700+019017FM-12+002499999V0202901N00771007501CN0080001N9+00001-00281100591ADDAY181999GA1071+007509099GF107991071091008001001001MD1210241+9999MW1851
0073010300999991953030115004+69700+019017FM-12+002499999V0203201N00461009001CN0160001N9+00111-00501100901ADDAY181999GA1081+009009099GF108991081091008001999999MD1310311+9999MW1851
0103010300999991953030118004+69700+019017FM-12+002499999V0202301N00261010501CN0600001N9+00001-00611101091ADDAA199005091AY181999GA1051+010509089GF105991051081012501001001IA1319KA1999M+00221MD1210191+9999MW1261
0073010300999991953030200004+69700+019017FM-12+002499999V0202301N00361009001CN0200001N9-00111-00281101141ADDAY181999GA1071+009009089GF107991071081008001061001MD1990041+9999MW1151
0073010300999991953030203004+69700+019017FM-12+002499999V0202301N00461220001CN0400001N9-00221-00501100761ADDAY181999GA1031+011109059GF107991031051012501071071MD1810381+9999MW1031
0119010300999991953030206004+69700+019017FM-12+002499999V0202301N00261027001CN0600001N9-00111-00501100401ADDAA199000691AY121999GA1081+027009049GA2031+009009059GF108991031051008001021999IA1319KA1999N-00221MD1710361+9999MW1021
0073010300999991953030209004+69700+019017FM-12+002499999V0200201N00461024001CN0400001N9-00221-00391099771ADDAY171999GA1051+024009049GF107991011051008001071999MD1810631+9999MW1151
0073010300999991953030212004+69700+019017FM-12+002499999V0200601N00671220001CN0010001N9-00221-00281099151ADDAY171999GA1091+999999999GF109991091999999999999999MD1810621+9999MW1731
0073010300999991953030215004+69700+019017FM-12+002499999V0200501N01231220001CN0006001N9-00221-00221098831ADDAY171999GA1091+999999999GF109991091999999999999999MD1610321+9999MW1731
0138010300999991953030218004+69700+019017FM-12+002499999V0200201N01541220001CN0002001N9-00221-00221098951ADDAA199002091AY171999GA1091+999999999GF109991091999999999999999IA1319KA1999M+00001MD1210121+9999MW1731EQDQ01+000042APCTENQ02+000122APC3  
0057010300999991953030300004+69700+019017FM-12+002499999V0203601N00771004501CN0040001N9-00391-00721099761ADDAY181999GF107991071091004501999999MD1110121+9999MW1851
0092010300999991953030303004+69700+019017FM-12+002499999V0203401N01231007801CN0160001N9-00721-00781100501ADDAY181999GF108991081091008001999999MD1210741+9999MW1361EQDQ01+000042APCTENQ02+000742APC3  
0103010300999991953030306004+69700+019017FM-12+002499999V0203601N01541003601CN0120001N9-00721-00781100871ADDAA199003091AY181999GA1081+003609099GF108991081091004501999999IA1319KA1999N-00721MD1110371+9999MW1851
0073010300999991953030309004+69700+019017FM-12+002499999V0203401N00931006001CN0160001N9-00721-00781101131ADDAY181999GA1071+006009099GF107991071091008001001001MD1310261+9999MW1871
0073010300999991953030312004+69700+019017FM-12+002499999V0203601N01031006001CN0100001N9-00611-00891101321ADDAY181999GA1071+006009099GF107991071091008001001001MD1210191+9999MW1271
0073010300999991953030315004+69700+019017FM-12+002499999V0200201N00931006001CN0040001N9-00611-00721101531ADDAY181999GA1071+006009099GF107991071091008001001001MD1310211+9999MW1851
0103010300999991953030318004+69700+019017FM-12+002499999V0200201N00621006001CN0010001N9-00611-00721101541ADDAA199004091AY181999GA1071+006009099GF107991071091008001001001IA1319KA1999M-00611MD1010011+9999MW1861
0073010300999991953030400004+69700+019017FM-12+002499999V0202301N00261007801CN0160001N9-00501-00611101411ADDAY181999GA1061+007809099GF106991061091008001001001MD1990121+9999MW1851
0073010300999991953030403004+69700+019017FM-12+002499999V0202701N00101009001CN0200001N9-00501-00611101331ADDAY181999GA1061+009009099GF106991061091008001001001MD1710081+9999MW1021
0154010300999991953030406004+69700+019017FM-12+002499999V0202501N00101220001CN0600001N9-00611-00781101341ADDAA199001091AY181999GA1021+009009059GA2011+006009089GF106991021081008001041071IA1319KA1999N-00721MD1210011+9999MW1021EQDQ01+000042APCTENQ02+000012APC3  
0108010300999991953030409004+69700+019017FM-12+002499999V0209991C00001220001CN0600001N9-00611-00781101471ADDAY121999GA1011+012009059GF105991011051012501041061MD1210131+9999MW1021EQDQ01+000042APCTENQ02+000132APC3  
0073010300999991953030412004+69700+019017FM-12+002499999V0202501N00101220001CN0600001N9-00391-00611101611ADDAY111999GA1021+012009059GF102991021051012501041011MD1210141+9999MW1011
0073010300999991953030415004+69700+019017FM-12+002499999V0202301N00461220001CN0600001N9-00391-00611101761ADDAY111999GA1011+008409059GF101991011051008001041001MD1210151+9999MW1011
0092010300999991953030418004+69700+019017FM-12+002499999V0202501N00511220001CN0600001N9-00391-00611101791ADDAY101999GA1021+010509059GF104991021051012501041001IA1319KA1999M-00281MD1210031+9999MW1031
0073010300999991953030500004+69700+019017FM-12+002499999V0202301N00931220001CN0600001N9-00111-00781101321ADDAY101999GA1041+012009059GF107991041051012501071999MD1990241+9999MW1031
0073010300999991953030503004+69700+019017FM-12+002499999V0202301N01231012001CN0600001N9+00001-00721100851ADDAY121999GA1051+012009059GF108991051051012501021999MD1710471+9999MW1031
0103010300999991953030506004+69700+019017FM-12+002499999V0202301N01231220001CN0016001N9+00001-00111100701ADDAA199001091AY171999GA1091+999999999GF109991091999999999999999IA1319KA1999N-00391MD1710151+9999MW1711
0108010300999991953030509004+69700+019017FM-12+002499999V0202501N00771006901CN0100001N9+00281+00221100781ADDAY171999GA1071+006909059GF108991071051008001021999MD1210081+9999MW1681EQDQ01+000042APCTENQ02+000082APC3  
0073010300999991953030512004+69700+019017FM-12+002499999V0202501N00511006901CN0160001N9+00501+00001100811ADDAY181999GA1061+006909099GF106991061091008001001001MD1010031+9999MW1251
0073010300999991953030515004+69700+019017FM-12+002499999V0202101N00671006001CN0120001N9+00221+00111100901ADDAY181999GA1071+006009099GF107991071091008001061021MD1210091+9999MW1871
0103010300999991953030518004+69700+019017FM-12+002499999V0202501N00771005401CN0040001N9+00221+00111100881ADDAA199006091AY181999GA1071+005409079GF108991071071004501021999IA1209KA1999M+00501MD1710021+9999MW1681
0073010300999991953030600004+69700+019017FM-12+002499999V0202301N00771004801CN0160001N9+00221+00111100231ADDAY161999GA1071+004809079GF108991071071004501021999MD1990401+9999MW1611
0073010300999991953030603004+69700+019017FM-12+002499999V0202301N01031004801CN0160001N9+00391+00281099561ADDAY161999GA1071+004809079GF108991071071004501021999MD1810671+9999MW1611
0103010300999991953030606004+69700+019017FM-12+002499999V0202301N01131004801CN0050001N9+00391+00281099141ADDAA199013091AY161999GA1081+004809049GF108991081001004501021999IA1209KA1999N+00221MD1810421+9999MW1631
0092010300999991953030609004+69700+019017FM-12+002499999V0202101N00931003901CN0060001N9+00281+00221098711ADDAY161999GA1081+003909079GF108991999071004501021999MD1810421+9999MW1681EQDQ01+000082SCOTLC
0073010300999991953030612004+69700+019017FM-12+002499999V0202301N01231006301CN0070001N9+00391+00281098381ADDAY161999GA1071+006309079GF108991071071008001021999MD1610331+9999MW1631
0073010300999991953030615004+69700+019017FM-12+002499999V0202501N00671006301CN0160001N9+00391+00221098211ADDAY161999GA1081+006309099GF108991081091008001999999MD1710171+9999MW1801
0122010300999991953030618004+69700+019017FM-12+002499999V0203601N012319999999N0020001N9+00221+00111098361ADDAA199022091AY181999GF109991091999999999999999IA1209KA1999M+00391MD1210151+9999MW1881EQDQ01+000042APCTENQ02+000152APC3  
0092010300999991953030700004+69700+019017FM-12+002499999V0203601N00461009001CN0600001N9-00391-00501099932ADDAY181999GA1051+009009089GF105991051081008001001001MD1310321+9999MW1011EQDQ01+099933APOSLP
0073010300999991953030703004+69700+019017FM-12+002499999V0203601N00461007501CN0120001N9-00501-00611100321ADDAY181999GA1081+007509099GF108991081091008001999999MD1310391+9999MW1851
0103010300999991953030706004+69700+019017FM-12+002499999V0202701N00261220001CN0600001N9-00501-00721100771ADDAA199003091AY181999GA1031+009009089GF103991031021008001001001IA1319KA1999N-00611MD1210451+9999MW1011
0073010300999991953030709004+69700+019017FM-12+002499999V0203401N00101012001CN0160001N9-00391-00721101081ADDAY111999GA1051+012009089GF106991051021008001061021MD1210311+9999MW1151
0073010300999991953030712004+69700+019017FM-12+002499999V0202301N00261008401CN0140001N9-00281-00501101201ADDAY181999GA1071+008409099GF107991071091008001001021MD1110221+9999MW1851
0073010300999991953030715004+69700+019017FM-12+002499999V0202301N00311006001CN0060001N9-00281-00501101211ADDAY181999GA1081+006009099GF108991081091008001999999MD1010011+9999MW1851
0103010300999991953030718004+69700+019017FM-12+002499999V0202301N01231006001CN0100001N9-00281-00501100891ADDAA199001091AY181999GA1081+006009099GF108991081091008001999999IA1319KA1999M-00281MD1710311+9999MW1261
0124010300999991953030806004+69700+019017FM-12+002499999V0202501N00931009001CN0160001N9+00391-00221099391ADDAA199011091AY181999GA1061+009009099GF106991061091008001001001IA1209KA1999N-00281MW1831EQDQ01+000042APCTENQ02+000162APC3  
0073010300999991953030809004+69700+019017FM-12+002499999V0202301N00671009001CN0120001N9+00221-00221099621ADDAY181999GA1051+009009099GF107991051091008001061021MD1210231+9999MW1871
0073010300999991953030812004+69700+019017FM-12+002499999V0202701N00461009001CN0100001N9+00221-00221099781ADDAY181999GA1061+009009099GF108991061091008001061001MD1210161+9999MW1871
0073010300999991953030815004+69700+019017FM-12+002499999V0202701N00461009001CN0120001N9+00281-00111099771ADDAY181999GA1061+009009099GF108991061091008001061001MD1990011+9999MW1871
0103010300999991953030818004+69700+019017FM-12+002499999V0203401N00151009001CN0200001N9+00221-00111099661ADDAA199003091AY181999GA1061+009009059GF107991071081008001001001IA1209KA1999M+00391MD1710111+9999MW1021
0076010300999991953030900004+69700+019017FM-12+002499999V0202101N00461012301CN0140001N9+00221+00111098661ADDAY171999GF108991081001012501021999MD1810522+9999MW1631EQDQ01+000522APC3  
0057010300999991953030903004+69700+019017FM-12+002499999V0202101N00461012301CN0400001N9+00221+00111098201ADDAY181999GF106991061091012501999999MD1810461+9999MW1151
0154010300999991953030906004+69700+019017FM-12+002499999V0202401N00261018001CN0160001N9+00111+00001098381ADDAA199004091AY181999GA1021+001209079GA2081+018009089GF108991021061001501051999IA1209KA1999N+00111MD1210181+9999MW1831EQDQ01+000042APCTENQ02+000182APC3  
0108010300999991953030909004+69700+019017FM-12+002499999V0203601N00311012001CN0400001N9-00111-00221099471ADDAY181999GA1061+012009059GA2021+006909089GF108991081081008001999999MD1311091+9999MW1151EQDQ01+004412APC3  
0073010300999991953030912004+69700+019017FM-12+002499999V0203401N00671006001CN0100001N9-00111-00281100131ADDAY181999GA1061+006009099GF107991061091008001041001MD1310661+9999MW1851
0073010300999991953030915004+69700+019017FM-12+002499999V0203601N01231006001CN0100001N9-00111-00281100921ADDAY181999GA1071+006009099GF107991071091008001001001MD1310791+9999MW1871
0103010300999991953030918004+69700+019017FM-12+002499999V0203601N00931006001CN0160001N9-00281-00721101551ADDAA199002091AY181999GA1071+006009099GF107991071091008001001001IA1319KA1999M+00111MD1310631+9999MW1871
0073010300999991953031000004+69700+019017FM-12+002499999V0203201N00261009001CN0600001N9-00391-00611102311ADDAY181999GA1051+009009099GF105991051091008001001001MD1110301+9999MW1011
0073010300999991953031003004+69700+019017FM-12+002499999V0203201N00261009001CN0600001N9-00391-00611102431ADDAY181999GA1051+009009099GF105991051091008001001001MD1110121+9999MW1261
0119010300999991953031006004+69700+019017FM-12+002499999V0202501N00101010801CN0160001N9-00391-00611102451ADDAA199002091AY181999GA1071+010809059GA2021+006009089GF107991071081008001001001IA1319KA1999N-00501MD1310021+9999MW1151
0073010300999991953031009004+69700+019017FM-12+002499999V0202301N00461220001CN0600001N9-00281-00611102311ADDAY181999GA1011+007509059GF101991011051008001041001MD1990141+9999MW1011
0073010300999991953031012004+69700+019017FM-12+002499999V0202101N00671024001CN0600001N9-00221-00781102101ADDAY121999GA1081+024009049GF108991011051008001021999MD1810211+9999MW1031
0073010300999991953031015004+69700+019017FM-12+002499999V0202301N00461004501CN0008001N9-00281-00611101921ADDAY171999GA1081+004509049GF108991081001004501021999MD1710181+9999MW1731
0103010300999991953031018004+69700+019017FM-12+002499999V0209991C00001003901CN0008001N9-00281-00391101761ADDAA199002091AY171999GA1081+003909049GF108991081001004501021999IA1319KA1999M-00221MD1810161+9999MW1731
0073010300999991953031100004+69700+019017FM-12+002499999V0209991C00001220001CN0120001N9-00281-00281101671ADDAY171999GA1021+003609079GF108991021071004501021999MD1810011+9999MW1711
0073010300999991953031103004+69700+019017FM-12+002499999V0201401N00101004501CN0140001N9-00221-00221101711ADDAY171999GA1071+004509079GF108991071071004501021999MD1310041+9999MW1711
0103010300999991953031106004+69700+019017FM-12+002499999V0209991C00001220001CN0060001N9-00221-00221101831ADDAA199005091AY171999GA1041+005409079GF108991041071004501021999IA1319KA1999N-00391MD1310121+9999MW1711
0089010300999991953031109004+69700+019017FM-12+002499999V0209991C00001220001CN0200001N9-00111+99999101961ADDAY121999GA1041+024009049GA2041+004509079GF108991041061004501021999MD1210131+9999MW1031
0089010300999991953031112004+69700+019017FM-12+002499999V0209991C00001220001CN0400001N9+00221+00001101971ADDAY171999GA1011+024009039GA2011+006009059GF102991011051004501041001MD1310011+9999MW1011
0092010300999991953031115004+69700+019017FM-12+002499999V0202101N00621009001CN0140001N9+00111-00221101971ADDAY121999GA1051+009009059GF108991051051008001021999MD1410001+9999MW1711EQDQ01+000032APCTEN
0103010300999991953031118004+69700+019017FM-12+002499999V0202301N00671006901CN0160001N9+00001-00111101961ADDAA199000691AY171999GA1061+006909049GF108991061051008001021999IA1319KA1999M+00221MD1810011+9999MW1681
0089010300999991953031200004+69700+019017FM-12+002499999V0202301N00261007801CN0400001N9+00111+00111102181ADDAY171999GA1081+007809049GA2041+006009059GF108991041051008001021999MD1110101+9999MW1231
0089010300999991953031203004+69700+019017FM-12+002499999V0202301N00511012001CN0400001N9+00111-00111102091ADDAY121999GA1081+012009049GA2041+006909059GF108991041051008001021999MD1990091+9999MW1021
0119010300999991953031206004+69700+019017FM-12+002499999V0202301N00671024001CN0400001N9+00221+00001101881ADDAA199000391AY121999GA1071+024009049GA2031+006909059GF107991031051008001071001IA1319KA1999N+00001MD1710211+9999MW1021
0089010300999991953031209004+69700+019017FM-12+002499999V0202101N00931024001CN0400001N9+00221-00221101461ADDAY121999GA1041+009009079GA2081+024009049GF108991041071008001021999MD1710421+9999MW1141
0073010300999991953031212004+69700+019017FM-12+002499999V0202101N01231220001CN0400001N9+00221+00001100891ADDAY171999GA1041+009009059GF107991041051008001051001MD1710571+9999MW1231
0073010300999991953031215004+69700+019017FM-12+002499999V0202301N01441003901CN0100001N9+00281+00221100861ADDAY181999GA1081+003909099GF108991081091004501999999MD1510031+9999MW1801
0087010300999991953031218004+69700+019017FM-12+002499999V0202401N00511007801CN0160001N9+00501+00221101021ADDAA199003091AY181999GF108991051091008001021999IA1209KA1999M+00501MD1210161+9999MW1801
0073010300999991953031300004+69700+019017FM-12+002499999V0202301N00671007801CN0080001N9+00221+00111101371ADDAY181999GA1081+007809099GF108991081091008001999999MD1010021+9999MW1801
0073010300999991953031303004+69700+019017FM-12+002499999V0202101N01031012001CN0400001N9+00281+00111101111ADDAY181999GA1071+012009059GF107991071051012501001001MD1990261+9999MW1021
0103010300999991953031306004+69700+019017FM-12+002499999V0202301N01231004501CN0080001N9+00221+00111100811ADDAA199004091AY171999GA1081+004509079GF108991081071004501999999IA1209KA1999N+00111MD1710301+9999MW1681
0073010300999991953031309004+69700+019017FM-12+002499999V0202301N00931006001CN0080001N9+00221+00111100881ADDAY161999GA1081+006009079GF108991081071004501999999MD1310071+9999MW1631
0073010300999991953031312004+69700+019017FM-12+002499999V0202301N00671005101CN0060001N9+00281+00221100861ADDAY161999GA1081+005109079GF108991081071004501999999MD1990021+9999MW1631
0073010300999991953031315004+69700+019017FM-12+002499999V0202301N01291004801CN0050001N9+00391+00281100421ADDAY161999GA1081+004809079GF108991081071004501999999MD1810441+9999MW1651
0103010300999991953031318004+69700+019017FM-12+002499999V0202101N01901004801CN0040001N9+00391+00281099691ADDAA199021091AY161999GA1081+004809079GF108991081071004501999999IA1209KA1999M+00501MD1710731+9999MW1651
0073010300999991953031400004+69700+019017FM-12+002499999V0202701N01441007501CN0120001N9+00391+00221099161ADDAY161999GA1081+007509099GF108991081071008001999999MD1510081+9999MW1811
0092010300999991953031403004+69700+019017FM-12+002499999V0202901N01031006601CN0140001N9+00391+00001100722ADDAY181999GA1081+006609099GF108991081091008001999999MD1310091+9999MW1881EQDQ01+100723APOSLP
0103010300999991953031406004+69700+019017FM-12+002499999V0203601N00671007501CN0160001N9+00221-00221101391ADDAA199012091AY181999GA1071+007509099GF107991071091008001001001IA1209KA1999N+00221MD1210671+9999MW1831
0073010300999991953031409004+69700+019017FM-12+002499999V0202301N00101006001CN0050001N9+00111+99999101771ADDAY181999GA1081+006009099GF108991081091004501999999MD1210381+9999MW1851
0073010300999991953031412004+69700+019017FM-12+002499999V0202101N00101006601CN0160001N9+00111+00001101871ADDAY181999GA1051+006609099GF108991051091008001071999MD1110101+9999MW1851
0073010300999991953031415004+69700+019017FM-12+002499999V0203201N00101007501CN0400001N9+00111+00001101991ADDAY181999GA1061+007509099GF108991061091008001071999MD1210121+9999MW1151
0103010300999991953031418004+69700+019017FM-12+002499999V0202301N00101007501CN0600001N9+00001-00221101921ADDAA199002091AY181999GA1051+007509099GF106991051091008001061999IA1209KA1999M+00221MD1990071+9999MW1021
0108010300999991953031506004+69700+019017FM-12+002499999V0202501N00461012301CN0200001N9+00501+00281101361ADDAA199012091AY181999GF107991051091012501041011IA1209KA1999N-00111MW1251EQDQ01+000042APCTENQ02+000302APC3  
0057010300999991953031509004+69700+019017FM-12+002499999V0202301N009319999999N0200001N9+00501+00001101561ADDAY111999GF105991011021012501001091MD1210201+9999MW1051
0092010300999991953031512004+69700+019017FM-12+002499999V0202501N00261220001CN0600001N9+00611+00001101771ADDAY111999GF102991011021012501041011MD1210211+9999MW1011EQDQ01+000042APCTENQ02+000212APC3  
0057010300999991953031515004+69700+019017FM-12+002499999V0202101N006719999999N0600001N9+00501-00111101791ADDAY101999GF105991011021012501051001MD1010021+9999MW1031
0111010300999991953031518004+69700+019017FM-12+002499999V0202401N00461012301CN0200001N9+00391+00001101861ADDAY111999GF106991051051012501041001IA1209KA1999M+00611MD1210071+9999MW1051EQDQ01+000042APCTENQ02+000072APC3  
0073010300999991953031600004+69700+019017FM-12+002499999V0202501N00261006001CN0060001N9+00281+00221102201ADDAY161999GA1081+006009079GF108991081071008001999999MD1110131+9999MW1631
0073010300999991953031603004+69700+019017FM-12+002499999V0202501N00261006001CN0060001N9+00281+00221102241ADDAY161999GA1081+006009079GF108991081071008001999999MD1110041+9999MW1631
0103010300999991953031606004+69700+019017FM-12+002499999V0202701N00151004801CN0100001N9+00281+00221102221ADDAA199005091AY161999GA1081+004809079GF108991081071004501999999IA1209KA1999N+00221MD1810021+9999MW1611
0089010300999991953031609004+69700+019017FM-12+002499999V0202301N00261006901CN0100001N9+00281+00221102221ADDAY161999GA1081+006909079GA2021+004509079GF108991081071008001999999MD1410001+9999MW1611
0073010300999991953031612004+69700+019017FM-12+002499999V0202301N00771006001CN0080001N9+00391+00281102151ADDAY161999GA1081+006009079GF108991081071008001999999MD1510071+9999MW1611
0073010300999991953031615004+69700+019017FM-12+002499999V0202301N00461007501CN0080001N9+00391+00281102211ADDAY161999GA1071+007509059GF108991071051008001021999MD1110061+9999MW1611
0103010300999991953031618004+69700+019017FM-12+002499999V0202301N00461009001CN0120001N9+00391+00221102161ADDAA199007091AY161999GA1081+009009059GF108991081051008001999999IA1209KA1999M+00501MD1990051+9999MW1101
0073010300999991953031700004+69700+019017FM-12+002499999V0202301N00101009001CN0700001N9+00391+00111101881ADDAY121999GA1081+009009059GF108991081051008001999999MD1710151+9999MW1021
0073010300999991953031703004+69700+019017FM-12+002499999V0202301N00671009001CN0700001N9+00501+00001101541ADDAY121999GA1081+009009059GF108991081051008001999999MD1810341+9999MW1021
0092010300999991953031706004+69700+019017FM-12+002499999V0202301N00671220001CN0700001N9+00391-00221101211ADDAY121999GA1031+009009059GF104991031051008001041011IA1209KA1999N+00281MD1810331+9999MW1021
0073010300999991953031709004+69700+019017FM-12+002499999V0202301N01031009001CN0700001N9+00391+00111101171ADDAY121999GA1061+009009059GF108991061051008001021999MD1610041+9999MW1021
0073010300999991953031712004+69700+019017FM-12+002499999V0202301N00671007801CN0100001N9+00391+00111100941ADDAY161999GA1061+007809059GF108991061051008001021999MD1990231+9999MW1601
0073010300999991953031715004+69700+019017FM-12+002499999V0202301N00671009001CN0200001N9+00391+00001100491ADDAY121999GA1061+009009059GF108991061051008001021999MD1710451+9999MW1141
0122010300999991953031718004+69700+019017FM-12+002499999V0202401N00671007801CN0200001N9+00111+00001100611ADDAA199002091AY181999GF105991051091008001001001IA1209KA1999M+00501MD1210121+9999MW1271EQDQ01+000042APCTENQ02+000122APC3  
0073010300999991953031800004+69700+019017FM-12+002499999V0202301N00211220001CN0400001N9+00001-00111100421ADDAY181999GA1021+007809099GF102991021091008001001001MD1710011+9999MW1271
0108010300999991953031803004+69700+019017FM-12+002499999V0203201N00671007801CN0400001N9+00281-00111100901ADDAY181999GA1071+007809099GF107991071091008001001001MD1210481+9999MW1871EQDQ01+000042APCTENQ02+000482APC3  
0103010300999991953031806004+69700+019017FM-12+002499999V0203401N01291006001CN0010001N9+00111+00001101651ADDAA199011091AY181999GA1081+006009099GF108991081091008001999999IA1209KA1999N+00001MD1310751+9999MW1881
0073010300999991953031809004+69700+019017FM-12+002499999V0203401N00931006601CN0160001N9-00111-00391102411ADDAY181999GA1051+006609099GF105991051091008001001001MD1310761+9999MW1261
0073010300999991953031812004+69700+019017FM-12+002499999V0202901N00461005401CN0020001N9-00221-00281102711ADDAY181999GA1081+005409099GF108991081091004501999999MD1210301+9999MW1861
0073010300999991953031815004+69700+019017FM-12+002499999V0203401N00261004501CN0120001N9-00221-00281102881ADDAY181999GA1071+004509099GF107991071091004501001001MD1110171+9999MW1851
0087010300999991953031818004+69700+019017FM-12+002499999V0202101N00261004501CN0030001N9-00281-00391102951ADDAA199005091AY181999GF107991071091004501999999IA1209KA1999M+00111MD1310071+9999MW1851
0073010300999991953031900004+69700+019017FM-12+002499999V0202301N00461220001CN0600001N9-00111-00501102711ADDAY181999GA1041+009009089GF105991041081008001061001MD1990141+9999MW1011
0073010300999991953031903004+69700+019017FM-12+002499999V0202301N00461009001CN0160001N9+00001-00281102581ADDAY181999GA1061+009009099GF107991061091008001061001MD1810131+9999MW1851
0103010300999991953031906004+69700+019017FM-12+002499999V0202301N00671007501CN0200001N9+00111+00001102421ADDAA199000391AY181999GA1071+007509089GF107991071081008001001001IA1209KA1999N-00281MD1710161+9999MW1261
0073010300999991953031909004+69700+019017FM-12+002499999V0202301N00671006001CN0040001N9+00111+00111102371ADDAY181999GA1081+006009099GF108991081091008001999999MD1610051+9999MW1811
0073010300999991953031912004+69700+019017FM-12+002499999V0202301N00621005401CN0040001N9+00391+00391102491ADDAY181999GA1081+005409079GF108991081071004501999999MD1110121+9999MW1581
0073010300999991953031915004+69700+019017FM-12+002499999V0202301N00461004801CN0060001N9+00391+00391102501ADDAY151999GA1081+004809079GF108991081071004501999999MD1310011+9999MW1511
0103010300999991953031918004+69700+019017FM-12+002499999V0202501N00261006001CN0100001N9+00391+00281102481ADDAA199002091AY151999GA1081+006009099GF108991081091008001999999IA1209KA1999M+00501MD1810021+9999MW1151
0073010300999991953032000004+69700+019017FM-12+002499999V0202301N00931008401CN0200001N9+00391+00221102131ADDAY161999GA1081+008409059GF108991081051008001999999MD1710181+9999MW1601
0073010300999991953032003004+69700+019017FM-12+002499999V0202301N01231009001CN0600001N9+00281-00221101881ADDAY161999GA1051+009009059GF107991051051008001041001MD1810251+9999MW1011
0103010300999991953032006004+69700+019017FM-12+002499999V0202301N00931008101CN0200001N9+00281-00111101581ADDAA199000691AY161999GA1071+008109059GF108991071051008001021999IA1209KA1999N+00221MD1610301+9999MW1611
