0103010300999991951010106004+69700+019017FM-12+002499999V0202501N00101220001CN0700001N9-00611-00721100781ADDAA199000591AY111999GA1011+012009089GF103991011011012501071001IA1319KA1999N-00721MD1310101+9999MW1021
0073010300999991951010109004+69700+019017FM-12+002499999V0202301N00101220001CN0700001N9-00611-00721100871ADDAY111999GA1011+012009089GF101991011051012501001011MD1310091+9999MW1011
0073010300999991951010112004+69700+019017FM-12+002499999V0202501N00101007501CN0700001N9-00611-00721100931ADDAY121999GA1061+007509059GF107991061051008001001021MD1310061+9999MW1031
0073010300999991951010115004+69700+019017FM-12+002499999V0202301N00311220001CN0600001N9-00721-00781100961ADDAY121999GA1011+012009059GF101991011051012501001001MD1110031+9999MW1011
0092010300999991951010118004+69700+019017FM-12+002499999V0202401N00771220001CN0600001N9-00611-00721100901ADDAY111999GA1011+012009059GF101991011051012501001001IA1319KA1999M-00611MD1810061+9999MW1021
0057010300999991951010200004+69700+019017FM-12+002499999V0202101N01031220001CN0700001N9-00501-01001100921ADDAY111999GF105991001001999999041999MD1510001+9999MW1021
0108010300999991951010203004+69700+019017FM-12+002499999V0202101N01231012001CN0400001N9-00501-01111100921ADDAY121999GA1051+012009079GA2051+021009039GF108991051091012501071999MD1410001+9999MW1031EQDQ01+000012APCTEN
0111010300999991951010206004+69700+019017FM-12+002499999V0202301N00671024001CN0600001N9-00391-01111100991ADDAY121999GA1061+024009039GF106991999001999999071999IA1319KA1999N-00721MD1210071+9999MW1021EQDQ01+000002SCOTLC
0108010300999991951010209004+69700+019017FM-12+002499999V0202401N00671220001CN0600001N9-00501-01001101021ADDAY121999GA1011+012009059GF106991011051012501041021MD1210031+9999MW1021EQDQ01+000042APCTENQ02+000032APC3  
0073010300999991951010212004+69700+019017FM-12+002499999V0202401N00511220001CN0600001N9-00611-01111101101ADDAY121999GA1011+012009059GF102991011051012501041021MD1310081+9999MW1011
0057010300999991951010215004+69700+019017FM-12+002499999V0202501N00511220001CN0600001N9-00721-01221101111ADDAY101999GF100991001001999999001001MD1110011+9999MW1001
0076010300999991951010218004+69700+019017FM-12+002499999V0202401N00461220001CN0600001N9-00781-01221101151ADDAY101999GF100991001001999999001001IA1319KA1999M-00391MD1310041+9999MW1001
0057010300999991951010300004+69700+019017FM-12+002499999V0202301N00931220001CN0700001N9-00781-01281101281ADDAY101999GF100991001001999999001001MD1210081+9999MW1001
0057010300999991951010303004+69700+019017FM-12+002499999V0202301N00931220001CN0700001N9-00781-01281101321ADDAY101999GF100991001001999999001001MD1210041+9999MW1001
0111010300999991951010306004+69700+019017FM-12+002499999V0202301N00931024001CN0700001N9-00781-01281101351ADDAY121999GA1081+024009049GF108991999001999999011999IA1319KA1999N-01001MD1210021+9999MW1031EQDQ01+000002SCOTLC
0092010300999991951010309004+69700+019017FM-12+002499999V0202301N01231220001CN0700001N9-00781-01281101411ADDAY111999GA1041+024009039GF104991999001999999041001MD1310061+9999MW1021EQDQ01+000002SCOTLC
0108010300999991951010312004+69700+019017FM-12+002499999V0202301N00931220001CN0700001N9-00781-01281101451ADDAY111999GA1011+015009059GF102991011051017501041001MD1210041+9999MW1021EQDQ01+000042APCTENQ02+000042APC3  
0073010300999991951010315004+69700+019017FM-12+002499999V0202301N00931013801CN0700001N9-00781-01221101541ADDAY121999GA1051+013809059GF105991051051012501001001MD1310091+9999MW1031
0092010300999991951010318004+69700+019017FM-12+002499999V0202401N00821220001CN0700001N9-00721-01001101601ADDAY121999GA1041+013809059GF104991041051012501001001IA1319KA1999M-00501MD1310061+9999MW1011
0076010300999991951010400004+69700+019017FM-12+002499999V0202501N00261220001CN0700001N9-00781-00891101791ADDAY101999GF101991999001999999041001MD1210051+9999MW1021EQDQ01+000002SCOTLC
0057010300999991951010403004+69700+019017FM-12+002499999V0202501N00261220001CN0700001N9-00781-00891101841ADDAY101999GF100991001001999999001001MD1210051+9999MW1021
0095010300999991951010406004+69700+019017FM-12+002499999V0209991C00001220001CN0700001N9-00781-00891101811ADDAY101999GF101991999001999999041001IA1319KA1999N-00891MD1990031+9999MW1021EQDQ01+000002SCOTLC
0073010300999991951010409004+69700+019017FM-12+002499999V0202501N00101220001CN0700001N9-00891-00891101781ADDAY101999GA1011+004509079GF101991011061004501001001MD1810031+9999MW1021
0073010300999991951010412004+69700+019017FM-12+002499999V0202401N00101220001CN0700001N9-00891-00891101661ADDAY101999GA1011+004509079GF101991011061004501001001MD1990121+9999MW1021
0057010300999991951010415004+69700+019017FM-12+002499999V0202501N00101220001CN0700001N9-00891-01001101531ADDAY101999GF100991001001999999001001MD1810131+9999MW1011
0076010300999991951010418004+69700+019017FM-12+002499999V0202401N00261220001CN0700001N9-00891-01001101391ADDAY101999GF100991001001999999001001IA1319KA1999M-00781MD1710141+9999MW1001
0057010300999991951010500004+69700+019017FM-12+002499999V0202401N00261220001CN0600001N9-00891-01001101131ADDAY101999GF100991001001999999001001MD1710131+9999MW1001
0057010300999991951010503004+69700+019017FM-12+002499999V0202401N00101220001CN0600001N9-00781-01001101101ADDAY101999GF101991001001999999001051MD1710131+9999MW1031
0092010300999991951010506004+69700+019017FM-12+002499999V0201101N00461220001CN0600001N9-00721-01001100901ADDAY101999GA1021+048009029GF102991001001999999001051IA1319KA1999N-01111MD1610101+9999MW1031
0073010300999991951010509004+69700+019017FM-12+002499999V0203201N00101220001CN0600001N9-00611-00781100861ADDAY111999GA1041+024009049GF105991011051012501071051MD1810041+9999MW1031
0073010300999991951010512004+69700+019017FM-12+002499999V0209991C00001220001CN0600001N9-00501-00611100751ADDAY111999GA1021+024009049GF104991011051012501071051MD1810111+9999MW1011
0057010300999991951010515004+69700+019017FM-12+002499999V0202401N00101220001CN0600001N9-00501-00721100711ADDAY101999GF101991001001999999001021MD1610041+9999MW1021
0076010300999991951010518004+69700+019017FM-12+002499999V0202201N00261220001CN0400001N9-00501-00721100691ADDAY101999GF106991001001999999051999IA1319KA1999M-00391MD1810021+9999MW1051
0073010300999991951010600004+69700+019017FM-12+002499999V0202501N00311220001CN0600001N9-00611-00721100701ADDAY181999GA1021+013809059GF102991021051012501001001MD1210011+9999MW1011
0073010300999991951010603004+69700+019017FM-12+002499999V0202401N00261012001CN0600001N9-00501-00611100681ADDAY121999GA1061+012009059GF106991061081012501001001MD1710021+9999MW1031
0103010300999991951010606004+69700+019017FM-12+002499999V0202301N00461010201CN0600001N9-00391-00501100691ADDAA199000691AY181999GA1071+010209099GF107991071091012501999999IA1319KA1999N-00611MD1210011+9999MW1261
0108010300999991951010609004+69700+019017FM-12+002499999V0202401N00461220001CN0200001N9-00391-00501100741ADDAY121999GA1041+007809059GA2011+004209059GF105991999081008001001001MD1110051+9999MW1011EQDQ01+000042SCOTLC
0089010300999991951010612004+69700+019017FM-12+002499999V0202501N00461009001CN0140001N9-00281-00391100821ADDAY181999GA1031+006009089GA2071+009009059GF107991071081008001001001MD1210081+9999MW1851
0092010300999991951010615004+69700+019017FM-12+002499999V0202301N00461006001CN0100001N9-00221-00281100821ADDAY181999GA1071+006009089GF107991071081008001999999MD1410001+9999MW1851EQDQ01+000032APCTEN
0103010300999991951010618004+69700+019017FM-12+002499999V0202301N00671007501CN0160001N9-00221-00281100831ADDAA199000691AY121999GA1051+007509099GF105991051091008001001001IA1319KA1999M-00221MD1310011+9999MW1021
0103010300999991951010706004+69700+019017FM-12+002499999V0201801N00261004501CN0100001N9-00281-00391100751ADDAA199003091AY181999GA1081+004509099GF108991081091004501999999IA1319KA1999N-00391MD1210041+9999MW1851
0073010300999991951010709004+69700+019017FM-12+002499999V0202301N00261220001CN0400001N9-00391-00391100781ADDAY181999GA1031+007509089GF105991041081008001061001MD1310031+9999MW1261
0073010300999991951010712004+69700+019017FM-12+002499999V0202301N00151220001CN0400001N9-00501-00611100741ADDAY181999GA1031+008409089GF106991041071008001071021MD1990041+9999MW1851
0073010300999991951010715004+69700+019017FM-12+002499999V0202301N00261220001CN0400001N9-00501-00611100571ADDAY181999GA1041+008409089GF105991051081008001001001MD1810171+9999MW1151
0103010300999991951010718004+69700+019017FM-12+002499999V0209991C00001220001CN0600001N9-00611-00721100391ADDAA199002091AY181999GA1021+009609089GF104991031081008001041011IA1319KA1999M-00281MD1810181+9999MW1011
0057010300999991951010803004+69700+019017FM-12+002499999V0202701N00101220001CN0700001N9-00781-00891100191ADDAY101999GF101991001001999999001011MD1810011+9999MW1031
0095010300999991951010806004+69700+019017FM-12+002499999V0202501N00101220001CN0700001N9-00781-00891100211ADDAY101999GF101991999001999999041001IA1319KA1999N-00891MD1310021+9999MW1021EQDQ01+000002SCOTLC
0073010300999991951010809004+69700+019017FM-12+002499999V0202401N00101220001CN0600001N9-00781-00891100301ADDAY101999GA1031+006009099GF103991031091008001001001MD1210091+9999MW1151
0089010300999991951010812004+69700+019017FM-12+002499999V0202501N00101220001CN0700001N9-00781-00891100361ADDAY181999GA1011+006609089GA2011+009609059GF102991021081008001001001MD1110061+9999MW1031
0073010300999991951010815004+69700+019017FM-12+002499999V0202401N00261220001CN0700001N9-00781-00891100381ADDAY111999GA1021+009909059GF102991021051008001001001MD1010021+9999MW1021
0103010300999991951010818004+69700+019017FM-12+002499999V0202301N00461006301CN0160001N9-00721-00781100391ADDAA199000691AY181999GA1061+006309089GF106991061081008001001001IA1319KA1999M-00721MD1310011+9999MW1851
0073010300999991951010900004+69700+019017FM-12+002499999V0202301N00671220001CN0160001N9-00611-00721100451ADDAY181999GA1041+008109099GF104991041091008001001001MD1310021+9999MW1851
0073010300999991951010903004+69700+019017FM-12+002499999V0202301N00461008101CN0160001N9-00611-00721100441ADDAY181999GA1071+008109099GF107991071091008001001001MD1710011+9999MW1851
0103010300999991951010906004+69700+019017FM-12+002499999V0202301N00461007501CN0160001N9-00501-00501100461ADDAA199003091AY181999GA1071+007509099GF107991071091008001001001IA1319KA1999N-00781MD1210021+9999MW1851
0108010300999991951010909004+69700+019017FM-12+002499999V0202301N00461220001CN0400001N9-00721-00781100581ADDAY181999GA1031+008409099GF103991031091008001071001MD1210121+9999MW1011EQDQ01+000042APCTENQ02+000122APC3  
0073010300999991951010912004+69700+019017FM-12+002499999V0202301N00261220001CN0600001N9-00721-00781100651ADDAY111999GA1041+005409059GF104991041051004501001021MD1310071+9999MW1021
0073010300999991951010915004+69700+019017FM-12+002499999V0202501N00101220001CN0600001N9-00721-00781100681ADDAY121999GA1021+006009059GF107991021051008001071001MD1310031+9999MW1021
0119010300999991951010918004+69700+019017FM-12+002499999V0202501N00311220001CN0600001N9-00611-00721100661ADDAA199000391AY121999GA1031+009009059GA2021+024009039GF105991031051008001041001IA1319KA1999M-00501MD1710021+9999MW1011
0110010300999991951011000004+69700+019017FM-12+002499999V0202701N00101220001CN0700001N9-00891-01001100691ADDAY101999GA1011+024009039GF101991999001999999041001MW1011EQDQ01+000002SCOTLCQ02+000032APCTENQ03+000002APC3  
0073010300999991951011003004+69700+019017FM-12+002499999V0202401N00511220001CN0200001N9-00721-00781100571ADDAY101999GA1021+009009099GF102991021091008001001001MD1710121+9999MW1031
0092010300999991951011006004+69700+019017FM-12+002499999V0202501N00931007801CN0200001N9-00501-00721100331ADDAY121999GA1081+007809059GF108991081051008001999999IA1319KA1999N-00891MD1710241+9999MW1031
0073010300999991951011009004+69700+019017FM-12+002499999V0202301N01231007501CN0040001N9-00391-00611100261ADDAY171999GA1071+007509059GF107991071051008001041999MD1710071+9999MW1721
0073010300999991951011012004+69700+019017FM-12+002499999V0203201N00101008401CN0400001N9-00391-00611100491ADDAY111999GA1051+008409059GF105991051051008001001001MD1210231+9999MW1021
0073010300999991951011015004+69700+019017FM-12+002499999V0203301N00101010501CN0400001N9-00391-00501100581ADDAY181999GA1051+010509059GF105991051051012501001001MD1110091+9999MW1021
0087010300999991951011018004+69700+019017FM-12+002499999V0201201N00461220001CN0400001N9-00501-00721100691ADDAA199000591AY111999GF101991011051012501001001IA1319KA1999M-00281MD1210111+9999MW1011
0073010300999991951011100004+69700+019017FM-12+002499999V0200901N00101220001CN0600001N9-00891-01001100781ADDAY111999GA1021+012009059GF102991021051012501001001MD1310061+9999MW1021
0073010300999991951011103004+69700+019017FM-12+002499999V0202501N00261220001CN0600001N9-00781-00891100741ADDAY111999GA1011+012009059GF101991011051012501001001MD1010041+9999MW1011
0076010300999991951011106004+69700+019017FM-12+002499999V0202501N00101220001CN0600001N9-00891-01001100691ADDAY101999GF100991001001999999001001IA1319KA1999N-00891MD1610061+9999MW1001
0057010300999991951011109004+69700+019017FM-12+002499999V0209991C00001220001CN0600001N9-00891-01001100661ADDAY101999GF101991001001999999001021MD1810021+9999MW1031
0057010300999991951011112004+69700+019017FM-12+002499999V0209991C00001220001CN0600001N9-00891-01001100581ADDAY101999GF101991001001999999001021MD1990081+9999MW1021
0057010300999991951011115004+69700+019017FM-12+002499999V0209991C00001220001CN0700001N9-00891-01001100471ADDAY101999GF100991001001999999001001MD1810111+9999MW1001
0076010300999991951011118004+69700+019017FM-12+002499999V0209991C00001220001CN0700001N9-00891-01001100341ADDAY101999GF100991001001999999001001IA1319KA1999M-00781MD1810131+9999MW1001
0057010300999991951011200004+69700+019017FM-12+002499999V0202301N00261220001CN0700001N9-00891-01281100221ADDAY101999GF100991001001999999001001MD1810031+9999MW1001
0057010300999991951011203004+69700+019017FM-12+002499999V0202501N00261220001CN0700001N9-00891-01281100101ADDAY101999GF100991001001999999001001MD1810121+9999MW1001
0076010300999991951011206004+69700+019017FM-12+002499999V0202301N00461220001CN0700001N9-00891-01281100041ADDAY101999GF100991001001999999001001IA1319KA1999N-01001MD1610061+9999MW1001
0057010300999991951011209004+69700+019017FM-12+002499999V0202501N00261220001CN0700001N9-00891-01281100021ADDAY101999GF100991001001999999001001MD1510021+9999MW1001
0057010300999991951011212004+69700+019017FM-12+002499999V0202501N00101220001CN0700001N9-01111-01501099981ADDAY101999GF100991001001999999001001MD1810041+9999MW1001
0057010300999991951011215004+69700+019017FM-12+002499999V0202501N00101220001CN0700001N9-01111-01391099871ADDAY101999GF100991001001999999001001MD1810111+9999MW1001
0076010300999991951011218004+69700+019017FM-12+002499999V0202301N00261220001CN0700001N9-01111-01391099771ADDAY101999GF101991001001999999001021IA1319KA1999M-00891MD1710101+9999MW1031
0108010300999991951011300004+69700+019017FM-12+002499999V0209991C00001220001CN0600001N9-00781-01111099551ADDAY111999GA1041+024009039GA2041+024009049GF108991999001999999021001MD1710121+9999MW1031EQDQ01+000002SCOTLC
0092010300999991951011303004+69700+019017FM-12+002499999V0202301N00461024001CN0600001N9-00611-01111099381ADDAY121999GA1071+024009039GF107991999001999999051999MD1810171+9999MW1021EQDQ01+000002SCOTLC
0111010300999991951011306004+69700+019017FM-12+002499999V0209991C00001024001CN0600001N9-00721-00891099201ADDAY121999GA1061+024009039GF106991999001999999051999IA1319KA1999N-01111MD1810181+9999MW1021EQDQ01+000002SCOTLC
0073010300999991951011309004+69700+019017FM-12+002499999V0202501N00101220001CN0600001N9-00611-01001099021ADDAY121999GA1021+018009059GF106991021051017501071021MD1810181+9999MW1021
0089010300999991951011312004+69700+019017FM-12+002499999V0202401N00411220001CN0600001N9-00611-01001098881ADDAY121999GA1041+024009039GA2031+024009049GF107991071001999999071001MD1610141+9999MW1021
0073010300999991951011315004+69700+019017FM-12+002499999V0202401N00931024001CN0600001N9-00781-01281098941ADDAY121999GA1081+024009049GF108991081001999999011001MD1210061+9999MW1031
0103010300999991951011318004+69700+019017FM-12+002499999V0202401N00671024001CN0200001N9-00781-01221099001ADDAA199000691AY121999GA1081+024009049GF108991081001999999021001IA1319KA1999M-00611MD1110061+9999MW1701
0103010300999991951011406004+69700+019017FM-12+002499999V0202301N00511018001CN0120001N9-00501-00611099191ADDAA199000591AY171999GA1081+018009049GF108991011071008001021999IA1319KA1999N-00781MD1310061+9999MW1701
0089010300999991951011409004+69700+019017FM-12+002499999V0202701N00101006001CN0200001N9-00501-00611099401ADDAY171999GA1071+006009059GA2021+004209079GF107991071051008001999999MD1210211+9999MW1011
0089010300999991951011412004+69700+019017FM-12+002499999V0209991C00001220001CN0200001N9-00611-00721099491ADDAY101999GA1011+009009059GA2031+015009059GF103991031081017501041021MD1310091+9999MW1011
0073010300999991951011415004+69700+019017FM-12+002499999V0200501N00101220001CN0200001N9-00281-00501099551ADDAY101999GA1021+009009059GF102991021051008001041001MD1310061+9999MW1011
0122010300999991951011418004+69700+019017FM-12+002499999V0209991C00001220001CN0600001N9-00391-00721099631ADDAA199000391AY101999GA1011+024009039GF101991999001999999041001IA1319KA1999M-00221MD1310081+9999MW1011EQDQ01+000002SCOTLC
0092010300999991951011500004+69700+019017FM-12+002499999V0202701N00261220001CN0600001N9-00501-01001099691ADDAY111999GA1031+027009039GF104991999001999999071011MD1310021+9999MW1031EQDQ01+000002SCOTLC
0076010300999991951011503004+69700+019017FM-12+002499999V0202701N00261220001CN0600001N9-00501-01001099691ADDAY111999GF101991001001999999001011MD1410001+9999MW1011EQDQ01+000032APCTEN
0111010300999991951011506004+69700+019017FM-12+002499999V0201601N00461220001CN0600001N9-00391-00891099761ADDAY111999GA1021+024009039GF103991999001999999041011IA1319KA1999N-00611MD1310071+9999MW1031EQDQ01+000002SCOTLC
0073010300999991951011509004+69700+019017FM-12+002499999V0201601N00931220001CN0700001N9-00391-00891099861ADDAY111999GA1011+012009059GF101991011051012501041011MD1310101+9999MW1021
0057010300999991951011512004+69700+019017FM-12+002499999V0202101N00101220001CN0700001N9-00721-01221100011ADDAY101999GF101991011051012501001001MD1310151+9999MW1021
0108010300999991951011515004+69700+019017FM-12+002499999V0209991C00001220001CN0700001N9-00721-01111100091ADDAY111999GA1021+012009059GF106991021051012501051001MD1210081+9999MW1031EQDQ01+000042APCTENQ02+000082APC3  
0092010300999991951011518004+69700+019017FM-12+002499999V0209991C00001024001CN0700001N9-00611-01111100211ADDAY121999GA1061+024009039GF106991061001999999051001IA1319KA1999M-00391MD1310121+9999MW1011
0073010300999991951011600004+69700+019017FM-12+002499999V0202501N00261009001CN0600001N9-00501-01001100431ADDAY121999GA1081+009009059GF108991081051008001999999MD1110101+9999MW1031
0073010300999991951011603004+69700+019017FM-12+002499999V0202501N00461009001CN0600001N9-00501-01001100561ADDAY121999GA1081+009009059GF108991081051008001999999MD1210131+9999MW1021
0092010300999991951011606004+69700+019017FM-12+002499999V0202301N00461009001CN0600001N9-00501-01001100681ADDAY121999GA1081+009009059GF108991081051008001999999IA1319KA1999N-00721MD1210121+9999MW1021
0073010300999991951011609004+69700+019017FM-12+002499999V0202301N00461220001CN0600001N9-00611-01111100851ADDAY111999GA1021+018009059GF102991021051017501041001MD1210171+9999MW1011
0073010300999991951011612004+69700+019017FM-12+002499999V0202501N00261009001CN0600001N9-00501-00891100981ADDAY121999GA1071+009009059GF107991071051008001999999MD1210131+9999MW1021
0073010300999991951011615004+69700+019017FM-12+002499999V0202401N00671220001CN0600001N9-00611-00721101161ADDAY181999GA1031+007509089GF103991031081008001001001MD1210181+9999MW1021
0087010300999991951011618004+69700+019017FM-12+002499999V0202401N00261220001CN0600001N9-00611-00721101271ADDAA199000691AY181999GF101991011081012501001001IA1319KA1999M-00501MD1110111+9999MW1011
0092010300999991951011700004+69700+019017FM-12+002499999V0202501N00621220001CN0700001N9-00501-00611101221ADDAY101999GA1031+024009039GF103991999001999999051001MD1810031+9999MW1031EQDQ01+000002SCOTLC
0092010300999991951011703004+69700+019017FM-12+002499999V0202301N00461024001CN0700001N9-00391-00611101141ADDAY121999GA1061+024009039GF106991999001999999071001MD1710081+9999MW1031EQDQ01+000002SCOTLC
0103010300999991951011706004+69700+019017FM-12+002499999V0202501N00461220001CN0700001N9-00281-00501101051ADDAA199000691AY181999GA1041+012009089GF104991041081012501001001IA1319KA1999N-00611MD1710091+9999MW1261
0073010300999991951011709004+69700+019017FM-12+002499999V0202401N00511008401CN0120001N9-00281-00501100961ADDAY121999GA1071+008409089GF107991071081008001999999MD1710091+9999MW1151
0073010300999991951011712004+69700+019017FM-12+002499999V0202501N00261220001CN0600001N9-00391-00501100721ADDAY111999GA1011+009009089GF102991011081008001001021MD1710241+9999MW1011
0092010300999991951011715004+69700+019017FM-12+002499999V0203201N00101220001CN0600001N9-00611-00721100301ADDAY111999GA1021+024009039GF103991999001999999041021MD1710421+9999MW1031EQDQ01+000002SCOTLC
0087010300999991951011718004+69700+019017FM-12+002499999V0209991C00001220001CN0600001N9-00721-00781100041ADDAA199000691AY101999GF101991001001999999001021IA1319KA1999M-00281MD1710261+9999MW1011
0092010300999991951011800004+69700+019017FM-12+002499999V0203601N00101220001CN0700001N9-00611-00781099351ADDAY101999GA1041+048009029GF104991001001999999001061MD1610321+9999MW1031EQDQ01+000042SCOTLC
0108010300999991951011803004+69700+019017FM-12+002499999V0209991C00001220001CN0700001N9-00501-00891099011ADDAY111999GA1041+048009029GA2011+024009039GF104991999001999999041061MD1810341+9999MW1021EQDQ01+000002SCOTLC
0127010300999991951011806004+69700+019017FM-12+002499999V0202501N00511048001CN0700001N9-00111-00891098661ADDAY111999GA1061+048009029GA2011+024009039GF106991999001999999041061IA1319KA1999N-00721MD1810351+9999MW1031EQDQ01+000002SCOTLC
0073010300999991951011809004+69700+019017FM-12+002499999V0202301N00621014701CN0700001N9-00221-00891098551ADDAY121999GA1061+014709059GF108991061051012501041071MD1610111+9999MW1031
0089010300999991951011812004+69700+019017FM-12+002499999V0202001N00931014701CN0700001N9-00281-00891098501ADDAY121999GA1051+014709059GA2071+024009049GF107991051051012501011071MD1710051+9999MW1011
0073010300999991951011815004+69700+019017FM-12+002499999V0202301N00931008401CN0700001N9-00221-00781098491ADDAY121999GA1051+008409059GF108991051051008001021999MD1510011+9999MW1021
0111010300999991951011818004+69700+019017FM-12+002499999V0202301N00461012001CN0700001N9-00221-00721098491ADDAY121999GA1051+012009059GF108991051051012501021999IA1319KA1999M+00001MD1410001+9999MW1021EQDQ01+000022APCTEN
0073010300999991951011900004+69700+019017FM-12+002499999V0200201N00101018001CN0400001N9-00221-00391098461ADDAY121999GA1081+018009049GF108991081001017501021999MD1810021+9999MW1031
0073010300999991951011903004+69700+019017FM-12+002499999V0209991C00001012001CN0400001N9-00281-00611098391ADDAY121999GA1051+012009049GF105991051091012501999999MD1710071+9999MW1011
0111010300999991951011906004+69700+019017FM-12+002499999V0202101N00461021001CN0600001N9-00281-00721098371ADDAY121999GA1071+021009039GF108991999001022501071999IA1319KA1999N-00281MD1810021+9999MW1021EQDQ01+000002SCOTLC
0089010300999991951011909004+69700+019017FM-12+002499999V0202101N00671220001CN0600001N9-00391-00781098401ADDAY121999GA1041+024009049GA2011+015009059GF105991011051017501011051MD1310031+9999MW1011
0089010300999991951011912004+69700+019017FM-12+002499999V0202301N00671013801CN0600001N9-00281-00721098391ADDAY121999GA1021+024009039GA2051+013809059GF107991051051012501071071MD1710011+9999MW1021
0073010300999991951011915004+69700+019017FM-12+002499999V0202301N00461220001CN0600001N9-00391-00721098311ADDAY121999GA1031+013509059GF107991031051012501051001MD1710081+9999MW1021
0108010300999991951011918004+69700+019017FM-12+002499999V0202301N00261024001CN0600001N9-00221-00501098151ADDAY121999GA1031+013509059GA2081+024009039GF108991031051012501071999IA1319KA1999M-00221MD1990161+9999MW1031
0073010300999991951012000004+69700+019017FM-12+002499999V0202001N01901009001CN0400001N9+00111-00111097951ADDAY121999GA1071+009009089GF107991071081008001999999MD1710051+9999MW1021
0073010300999991951012003004+69700+019017FM-12+002499999V0202001N01901220001CN0010001N9-00221-00221098101ADDAY121999GA1091+999999999GF109991091999999999999999MD1110151+9999MW1751
0103010300999991951012006004+69700+019017FM-12+002499999V0202001N00671220001CN0010001N9-00221-00281098571ADDAA199002091AY171999GA1091+999999999GF109991091071999999999999IA1319KA1999N-00281MD1210471+9999MW1751
0073010300999991951012009004+69700+019017FM-12+002499999V0203201N00671220001CN0010001N9-00391-00501098931ADDAY171999GA1081+999999099GF108991081091999999999999MD1110361+9999MW1861
0073010300999991951012012004+69700+019017FM-12+002499999V0203201N00621220001CN0004001N9-00391-00501099211ADDAY181999GA1091+999999999GF109991091999999999999999MD1210281+9999MW1861
0073010300999991951012015004+69700+019017FM-12+002499999V0203301N01031220001CN0000001N9-00611-00611099661ADDAY181999GA1091+999999999GF109991091999999999999999MD1310451+9999MW1861
0103010300999991951012018004+69700+019017FM-12+002499999V0203401N01031005701CN0200001N9-00721-00781099991ADDAA199011091AY181999GA1081+005709099GF108991081091004501999999IA1319KA1999M+00001MD1310331+9999MW1261
0103010300999991951012106004+69700+019017FM-12+002499999V0200201N01291005401CN0400001N9-01001-01111100731ADDAA199003091AY181999GA1071+005409099GF107991071091004501999999IA1319KA1999N-01001MD1110071+9999MW1261
0108010300999991951012109004+69700+019017FM-12+002499999V0203601N01131003001CN0160001N9-01001-01111100931ADDAY181999GA1061+003009099GF106991061091004501999999MD1210201+9999MW1261EQDQ01+000042APCTENQ02+000202APC3  
0073010300999991951012112004+69700+019017FM-12+002499999V0200201N00931003601CN0160001N9-01001-01221101111ADDAY181999GA1051+003609099GF105991051091004501999999MD1310181+9999MW1261
0073010300999991951012115004+69700+019017FM-12+002499999V0203601N00461003601CN0160001N9-01001-01111101341ADDAY181999GA1061+003609099GF106991061091004501999999MD1310231+9999MW1261
0103010300999991951012118004+69700+019017FM-12+002499999V0200201N01031220001CN0160001N9-01001-01111101571ADDAA199001091AY181999GA1041+002409099GF104991041091002501001001IA1319KA1999M-01001MD1310231+9999MW1261
0073010300999991951012200004+69700+019017FM-12+002499999V0203601N00461004501CN0100001N9-01001-01221101911ADDAY181999GA1051+004509099GF105991051091004501001001MD1210201+9999MW1261
0073010300999991951012203004+69700+019017FM-12+002499999V0203601N00461220001CN0600001N9-01001-01221102001ADDAY181999GA1031+004509099GF103991031091004501001001MD1310091+9999MW1011
0119010300999991951012206004+69700+019017FM-12+002499999V0203601N00461220001CN0600001N9-00891-01221102031ADDAA199000591AY181999GA1011+006009089GA2021+009009059GF103991031081008001001001IA1319KA1999N-01111MD1310031+9999MW1021
0089010300999991951012209004+69700+019017FM-12+002499999V0201201N00461220001CN0600001N9-00891-01221102151ADDAY121999GA1041+009009089GA2041+009909059GF107991061081008001041001MD1310121+9999MW1021
0089010300999991951012212004+69700+019017FM-12+002499999V0202501N00101220001CN0600001N9-00891-01221102161ADDAY121999GA1011+009009089GA2041+012009059GF105991051081008001001021MD1110011+9999MW1011
0089010300999991951012215004+69700+019017FM-12+002499999V0201801N00511220001CN0600001N9-00891-01221102171ADDAY111999GA1011+012009089GA2011+013509059GF101991011081012501001021MD1210011+9999MW1011
0111010300999991951012218004+69700+019017FM-12+002499999V0202001N00771220001CN0600001N9-00781-01281102031ADDAY111999GA1021+024009039GF102991999001999999041021IA1319KA1999M-00781MD1810141+9999MW1011EQDQ01+000002SCOTLC
0057010300999991951012300004+69700+019017FM-12+002499999V0203601N00101220001CN0700001N9-00891-01391101901ADDAY101999GF101991001001999999001011MD1710061+9999MW1021
0057010300999991951012303004+69700+019017FM-12+002499999V0202401N00261220001CN0700001N9-00781-01391101731ADDAY101999GF101991001001999999001011MD1990171+9999MW1021
0076010300999991951012306004+69700+019017FM-12+002499999V0201801N00671220001CN0700001N9-00611-01391101481ADDAY101999GF103991001001999999001061IA1319KA1999N-01001MD1990231+9999MW1021
0092010300999991951012309004+69700+019017FM-12+002499999V0202301N00671220001CN0700001N9-00611-01391101331ADDAY121999GA1021+024009049GF107991999001999999021071MD1710151+9999MW1031EQDQ01+000002SCOTLC
0092010300999991951012312004+69700+019017FM-12+002499999V0202101N00931220001CN0700001N9-00781-01391101241ADDAY121999GA1041+024009049GF107991999001999999071071MD1710091+9999MW1021EQDQ01+000002SCOTLC
0073010300999991951012315004+69700+019017FM-12+002499999V0202301N00931027001CN0700001N9-00781-01391101101ADDAY121999GA1061+027009049GF108991061001999999011071MD1710141+9999MW1021
0092010300999991951012318004+69700+019017FM-12+002499999V0202301N00931027001CN0700001N9-00721-01221100971ADDAY121999GA1081+027009049GF108991081001999999011999IA1319KA1999M-00501MD1710131+9999MW1021
0073010300999991951012400004+69700+019017FM-12+002499999V0202301N00931009001CN0160001N9-00391-01001100711ADDAY121999GA1081+009009059GF108991081051008001999999MD1710151+9999MW1701
0073010300999991951012403004+69700+019017FM-12+002499999V0202301N01541007501CN0110001N9-00281-00501100501ADDAY171999GA1081+007509049GF108991081071008001999999MD1710211+9999MW1721
0103010300999991951012406004+69700+019017FM-12+002499999V0202301N01231007501CN0130001N9+00111-00111100371ADDAA199000391AY171999GA1081+007509049GF108991081071008001999999IA1319KA1999N-00781MD1710131+9999MW1701
0073010300999991951012409004+69700+019017FM-12+002499999V0202101N01391220001CN0200001N9+00221+00111100131ADDAY171999GA1031+006009079GF108991031071008001021999MD1710241+9999MW1681
0073010300999991951012412004+69700+019017FM-12+002499999V0202301N01901220001CN0060001N9+00391+00221099971ADDAY161999GA1041+006009079GF108991041071008001021999MD1710161+9999MW1601
0108010300999991951012415004+69700+019017FM-12+002499999V0202301N02061006001CN0120001N9+00501+00281099981ADDAY161999GA1071+006009079GF108991071071008001021999MD1210011+9999MW1611EQDQ01+000042APCTENQ02+000012APC3  
0103010300999991951012418004+69700+019017FM-12+002499999V0202101N01441007501CN0160001N9+00501+00281100081ADDAA199010091AY161999GA1071+007509079GF108991071071008001021999IA1209KA1999M+00611MD1210101+9999MW1601
0073010300999991951012500004+69700+019017FM-12+002499999V0202301N01341007801CN0100001N9+00501+00281100481ADDAY161999GA1071+007809079GF108991071071008001021999MD1310261+9999MW1631
0073010300999991951012503004+69700+019017FM-12+002499999V0202301N01341007801CN0100001N9+00501+00281100701ADDAY161999GA1061+007809079GF108991061071008001021999MD1310221+9999MW1601
0103010300999991951012506004+69700+019017FM-12+002499999V0202301N01341007801CN0150001N9+00501+00281100881ADDAA199001091AY161999GA1061+007809059GF108991061051008001021999IA1199KA1999N+00391MD1310181+9999MW1151
0073010300999991951012509004+69700+019017FM-12+002499999V0202301N01541009001CN0140001N9+00501+00281101031ADDAY121999GA1061+009009099GF106991061091008001001001MD1210151+9999MW1801
0073010300999991951012512004+69700+019017FM-12+002499999V0202301N01541010501CN0600001N9+00501+00221101161ADDAY121999GA1051+010509089GF105991051091012501001001MD1110131+9999MW1011
0073010300999991951012515004+69700+019017FM-12+002499999V0202101N00671010501CN0200001N9+00501+00221101271ADDAY121999GA1071+010509089GF107991071091012501001001MD1010111+9999MW1031
0103010300999991951012518004+69700+019017FM-12+002499999V0202101N00931010501CN0600001N9+00501+00221101311ADDAA199000691AY121999GA1071+010509089GF107991071091012501001001IA1199KA1999M+00611MD1210041+9999MW1021
0094010300999991951012600004+69700+019017FM-12+002499999V0202301N00671010501CN0200001N9+00391+00111101311ADDAY181999GA1081+010509089GF108991081031012501999999MW1801EQDQ01+000042APCTENQ02+000022APC3  
0108010300999991951012603004+69700+019017FM-12+002499999V0202301N00461220001CN0600001N9+00391+00111101321ADDAY181999GA1021+012009089GF105991021021012501061001MD1210011+9999MW1011EQDQ01+000042APCTENQ02+000012APC3  
0138010300999991951012606004+69700+019017FM-12+002499999V0202301N00671220001CN0600001N9+00391+00001101331ADDAA199000691AY181999GA1021+010509089GF107991021021012501061001IA1199KA1999N+00391MD1210011+9999MW1021EQDQ01+000042APCTENQ02+000012APC3  
0073010300999991951012609004+69700+019017FM-12+002499999V0202301N00771012001CN0600001N9+00501+00111101421ADDAY121999GA1051+012009059GF107991051051012501001071MD1310091+9999MW1011
0073010300999991951012612004+69700+019017FM-12+002499999V0202301N00671220001CN0600001N9+00391+00001101491ADDAY111999GA1031+013509059GF103991031051012501001021MD1310071+9999MW1011
0057010300999991951012615004+69700+019017FM-12+002499999V0202101N00261220001CN0700001N9+00281-00111101441ADDAY111999GF102991001001999999001011MD1990051+9999MW1011
0076010300999991951012618004+69700+019017FM-12+002499999V0202101N00101220001CN0600001N9+00111-00221101261ADDAY101999GF101991001001999999001021IA1209KA1999M+00501MD1710181+9999MW1021
0092010300999991951012700004+69700+019017FM-12+002499999V0202301N00771220001CN0700001N9+00001-00501101161ADDAY111999GA1011+024009039GF104991999001999999041061MD1810011+9999MW1031EQDQ01+000002SCOTLC
0092010300999991951012703004+69700+019017FM-12+002499999V0202301N00461220001CN0700001N9-00111-00611101251ADDAY111999GF102991001001999999001021MD1210091+9999MW1011EQDQ01+000042APCTENQ02+000092APC3  
0076010300999991951012706004+69700+019017FM-12+002499999V0202301N00261220001CN0700001N9-00281-00721101301ADDAY101999GF100991001001999999001001IA1209KA1999N-00281MD1310051+9999MW1011
0057010300999991951012709004+69700+019017FM-12+002499999V0202301N00461220001CN0700001N9-00391-00781101401ADDAY101999GF101991001001999999001021MD1310101+9999MW1021
0057010300999991951012712004+69700+019017FM-12+002499999V0202301N00511220001CN0700001N9-00391-00891101481ADDAY101999GF101991001001999999001021MD1110081+9999MW1021
0057010300999991951012715004+69700+019017FM-12+002499999V0202501N00461220001CN0700001N9-00501-01001101521ADDAY101999GF101991001001999999001021MD1310041+9999MW1021
0076010300999991951012718004+69700+019017FM-12+002499999V0202301N00511220001CN0700001N9-00611-01111101551ADDAY101999GF101991001001999999001021IA1209KA1999M-00501MD1310031+9999MW1021
0111010300999991951012806004+69700+019017FM-12+002499999V0202301N00101024001CN0700001N9-00611-00891101641ADDAY121999GA1071+024009049GF107991999001999999021001IA1199KA1999N-00721MD1810031+9999MW1031EQDQ01+000002SCOTLC
0092010300999991951012809004+69700+019017FM-12+002499999V0202301N00101024001CN0700001N9-00501-00781101641ADDAY121999GA1051+024009049GF107991999001999999021071MD1410001+9999MW1021EQDQ01+000002SCOTLC
0073010300999991951012812004+69700+019017FM-12+002499999V0202501N00101021001CN0700001N9-00611-00891101551ADDAY121999GA1061+021009039GF107991061001022501071071MD1710091+9999MW1021
0073010300999991951012815004+69700+019017FM-12+002499999V0209991C00001021001CN0700001N9-00501-00781101481ADDAY121999GA1061+021009039GF107991061001022501071071MD1810071+9999MW1021
0092010300999991951012818004+69700+019017FM-12+002499999V0209991C00001021001CN0700001N9-00281-00611101421ADDAY121999GA1061+021009039GF106991061001022501071001IA1199KA1999M-00221MD1810061+9999MW1011
0057010300999991951012900004+69700+019017FM-12+002499999V0202301N00671220001CN0600001N9-00221-00611101101ADDAY121999GF108991001001999999021999MD1710161+9999MW1021
0076010300999991951012903004+69700+019017FM-12+002499999V0202301N009319999999N0400001N9-00221-00721100961ADDAY121999GF108991999001022501021999MD1810141+9999MW1021EQDQ01+000002SCOTLC
0092010300999991951012906004+69700+019017FM-12+002499999V0202301N00931220001CN0200001N9-00281-00721100841ADDAY121999GA1041+018009079GF108991041071017501021999IA1319KA1999N-00281MD1710121+9999MW1031
0073010300999991951012909004+69700+019017FM-12+002499999V0202301N00931013501CN0600001N9-00281-00611100781ADDAY121999GA1061+013509059GF108991061051012501011999MD1710061+9999MW1021
0073010300999991951012912004+69700+019017FM-12+002499999V0202301N01031007501CN0160001N9-00281-00611100711ADDAY181999GA1081+007509099GF108991081091008001999999MD1710071+9999MW1851
0073010300999991951012915004+69700+019017FM-12+002499999V0202301N00931007501CN0160001N9-00111-00281100711ADDAY181999GA1071+007509099GF107991071091008001001001MD1410001+9999MW1851
0138010300999991951012918004+69700+019017FM-12+002499999V0202101N00671006901CN0030001N9-00111-00111100951ADDAA199000391AY181999GA1081+006909099GF108991081091008001999999IA1319KA1999M+00001MD1210241+9999MW1851EQDQ01+000042APCTENQ02+000242APC3  
0073010300999991951013000004+69700+019017FM-12+002499999V0202301N01031009001CN0400001N9+00111-00611101171ADDAY181999GA1051+009009059GF106991051051008001041001MD1210111+9999MW1021
0073010300999991951013003004+69700+019017FM-12+002499999V0202301N01231005101CN0100001N9+00221-00221101151ADDAY121999GA1081+005109099GF108991081091004501999999MD1990021+9999MW1851
0103010300999991951013006004+69700+019017FM-12+002499999V0202001N01341007501CN0160001N9+00281+00111101081ADDAA199004091AY121999GA1071+007509099GF107991071091008001999999IA1319KA1999N-00111MD1710071+9999MW1021
0108010300999991951013009004+69700+019017FM-12+002499999V0202101N01131006901CN0200001N9+00281+00221101121ADDAY181999GA1071+006909089GF107991071091008001041999MD1210041+9999MW1801EQDQ01+000042APCTENQ02+000042APC3  
0073010300999991951013012004+69700+019017FM-12+002499999V0202301N00931006001CN0060001N9+00281+00221101151ADDAY181999GA1081+006009089GF108991081091008001999999MD1210031+9999MW1261
0073010300999991951013015004+69700+019017FM-12+002499999V0202301N01231003001CN0080001N9+00221+00111101381ADDAY181999GA1081+003009099GF108991081091004501999999MD1210231+9999MW1831
0103010300999991951013018004+69700+019017FM-12+002499999V0202301N00931005701CN0160001N9+00281+00221101541ADDAA199013091AY181999GA1081+005709099GF108991081091004501999999IA1209KA1999M+00391MD1210181+9999MW1801
0073010300999991951013100004+69700+019017FM-12+002499999V0202001N00671009001CN0600001N9+00391+00001101781ADDAY181999GA1071+009009099GF107991071091008001999999MD1310111+9999MW1021
0073010300999991951013103004+69700+019017FM-12+002499999V0202001N00261010501CN0600001N9+00391+00001101851ADDAY121999GA1071+010509059GF107991071081012501999999MD1310071+9999MW1021
0103010300999991951013106004+69700+019017FM-12+002499999V0202301N00101010501CN0600001N9+00281-00221101841ADDAA199000691AY121999GA1061+010509059GF106991061051012501001001IA1199KA1999N+00281MD1710011+9999MW1011
0073010300999991951013109004+69700+019017FM-12+002499999V0202501N00461220001CN0600001N9+00221-00281101981ADDAY111999GA1021+021009039GF104991041001022501041071MD1210141+9999MW1011
0057010300999991951013112004+69700+019017FM-12+002499999V0202101N00461220001CN0700001N9+00111-00391102041ADDAY101999GF102991001001999999041011MD1310061+9999MW1021
0057010300999991951013115004+69700+019017FM-12+002499999V0202501N00261220001CN0600001N9-00111-00501102051ADDAY101999GF102991001001999999041011MD1010011+9999MW1001
0076010300999991951013118004+69700+019017FM-12+002499999V0202501N00261220001CN0600001N9-00221-00391101931ADDAY101999GF101991001001999999001011IA1199KA1999M+00221MD1810121+9999MW1011
0057010300999991951020100004+69700+019017FM-12+002499999V0202001N00261220001CN0700001N9-00221-00501101781ADDAY101999GF100991001001999999001001MD1610021+9999MW1001
0057010300999991951020103004+69700+019017FM-12+002499999V0202001N00101220001CN0700001N9-00281-00501101871ADDAY101999GF100991001001999999001001MD1210091+9999MW1001
0076010300999991951020106004+69700+019017FM-12+002499999V0202301N00261220001CN0700001N9-00221-00611101891ADDAY101999GF100991001001999999001001IA1199KA1999N-00391MD1010021+9999MW1001
0057010300999991951020109004+69700+019017FM-12+002499999V0202301N00461220001CN0700001N9-00221-00501101851ADDAY101999GF100991001001999999001001MD1710041+9999MW1001
0057010300999991951020112004+69700+019017FM-12+002499999V0209991C00001220001CN0700001N9-00281-00611101711ADDAY101999GF100991001001999999001001MD1990141+9999MW1001
0057010300999991951020115004+69700+019017FM-12+002499999V0209991C00001220001CN0700001N9-00281-00611101501ADDAY101999GF100991001001999999001001MD1610211+9999MW1001
0076010300999991951020118004+69700+019017FM-12+002499999V0202501N00101220001CN0600001N9-00281-00501101361ADDAY101999GF100991001001999999001001IA1199KA1999M-00111MD1810141+9999MW1001
0057010300999991951020200004+69700+019017FM-12+002499999V0202501N00461220001CN0700001N9+00001-00501101111ADDAY101999GF100991001001999999001001MD1710161+9999MW1001
0092010300999991951020203004+69700+019017FM-12+002499999V0202501N00261220001CN0700001N9+00111-00391100831ADDAY101999GA1021+027009039GF102991999001999999051001MD1810311+9999MW1031EQDQ01+000002SCOTLC
0111010300999991951020206004+69700+019017FM-12+002499999V0202501N00771021001CN0700001N9+00221-00391100701ADDAY121999GA1071+021009049GF107991999001022501071999IA1199KA1999N-00391MD1610131+9999MW1031EQDQ01+000002SCOTLC
0089010300999991951020209004+69700+019017FM-12+002499999V0202301N00671024001CN0600001N9+00221-00391100571ADDAY121999GA1021+015009059GA2071+024009039GF107991021051017501071001MD1710131+9999MW1021
0089010300999991951020212004+69700+019017FM-12+002499999V0202301N00461024001CN0600001N9+00221-00281100471ADDAY121999GA1071+024009039GA2041+015009059GF107991041051012501071001MD1810101+9999MW1021
0089010300999991951020215004+69700+019017FM-12+002499999V0202001N02061024001CN0600001N9+00611+00111100321ADDAY121999GA1061+024009039GA2041+015009089GF107991041051012501071999MD1710151+9999MW1021
0138010300999991951020218004+69700+019017FM-12+002499999V0202301N01291009001CN0160001N9+00611+00111100541ADDAA199000691AY161999GA1071+009009089GF108991071081008001071999IA1199KA1999M+00721MD1210221+9999MW1801EQDQ01+000042APCTENQ02+000222APC3  
0073010300999991951020300004+69700+019017FM-12+002499999V0202101N00931009001CN0600001N9+00391+00111100551ADDAY181999GA1081+009009089GF108991081081008001999999MD1210081+9999MW1021
0073010300999991951020303004+69700+019017FM-12+002499999V0202301N01231009001CN0200001N9+00391+00111100611ADDAY181999GA1081+009009089GF108991081091008001999999MD1110061+9999MW1801
0103010300999991951020306004+69700+019017FM-12+002499999V0202301N00931009001CN0200001N9+00391+00111100621ADDAA199000391AY181999GA1061+009009089GF106991061091008001999999IA1199KA1999N+00391MD1310011+9999MW1011
0108010300999991951020309004+69700+019017FM-12+002499999V0202501N00931008101CN0400001N9+00391+00221100771ADDAY181999GA1071+008109099GF107991071091008001001001MD1210151+9999MW1801EQDQ01+000042APCTENQ02+000152APC3  
0089010300999991951020312004+69700+019017FM-12+002499999V0202301N00671012001CN0600001N9+00501+00221100811ADDAY181999GA1031+007509089GA2061+012009059GF107991071081008001001001MD1110041+9999MW1021
0089010300999991951020315004+69700+019017FM-12+002499999V0202301N01031009901CN0600001N9+00611+00281100691ADDAY121999GA1061+009909059GA2021+006909089GF107991071081008001001001MD1810121+9999MW1021
0119010300999991951020318004+69700+019017FM-12+002499999V0202301N00671220001CN0600001N9+00501+00111100671ADDAA199000691AY121999GA1041+009909059GA2011+006909089GF105991051081008001001001IA1199KA1999M+00611MD1710021+9999MW1011
0076010300999991951020406004+69700+019017FM-12+002499999V0209991C00001220001CN0700001N9+00001-00501100111ADDAY101999GF100991001001999999001001IA1199KA1999N+00001MD1810121+9999MW1001
0057010300999991951020409004+69700+019017FM-12+002499999V0202301N00821220001CN0700001N9+00111-00781100081ADDAY101999GF100991001001999999001001MD1710031+9999MW1001
0092010300999991951020412004+69700+019017FM-12+002499999V0202301N01181220001CN0700001N9+00001-00781100071ADDAY101999GA1011+024009039GF103991999001999999041071MD1710011+9999MW1031EQDQ01+000002SCOTLC
0092010300999991951020415004+69700+019017FM-12+002499999V0202301N01031220001CN0700001N9-00111-00891100011ADDAY121999GA1021+021009039GF104991999001022501071001MD1710061+9999MW1031EQDQ01+000022SCOTLC
0143010300999991951020418004+69700+019017FM-12+002499999V0202301N00931220001CN0700001N9-00221-00891100081ADDAY121999GA1041+018009059GF104991041051017501999001IA1199KA1999M+00111MD1210071+9999MW1031EQDQ01+000042APCTENQ02+000072APC3  Q03    003SCOMCG
0057010300999991951020500004+69700+019017FM-12+002499999V0202301N00511220001CN0700001N9-00391-00891100121ADDAY101999GF100991001001999999001001MD1310051+9999MW1001
0057010300999991951020503004+69700+019017FM-12+002499999V0202301N00721220001CN0700001N9-00391-00891100111ADDAY101999GF100991001001999999001001MD1810011+9999MW1001
0111010300999991951020506004+69700+019017FM-12+002499999V0202301N00261220001CN0700001N9-00391-00891100151ADDAY111999GA1041+024009039GF105991999001999999041071IA1199KA1999N-00501MD1310041+9999MW1031EQDQ01+000002SCOTLC
0092010300999991951020509004+69700+019017FM-12+002499999V0202001N00461220001CN0700001N9-00391-00891100261ADDAY111999GF105991001001999999001011MD1210111+9999MW1021EQDQ01+000042APCTENQ02+000112APC3  
0092010300999991951020512004+69700+019017FM-12+002499999V0202301N00461220001CN0700001N9-00391-00891100371ADDAY121999GA1041+024009039GF106991999001999999051021MD1310111+9999MW1031EQDQ01+000002SCOTLC
0057010300999991951020515004+69700+019017FM-12+002499999V0202501N001019999999N0700001N9-00501-00891100451ADDAY121999GF105991021001999999041021MD1210081+9999MW1021
0111010300999991951020518004+69700+019017FM-12+002499999V0202301N00101220001CN0700001N9-00501-00891100591ADDAY101999GF100991001001999999001001IA1199KA1999M-00281MD1210141+9999MW1011EQDQ01+000042APCTENQ02+000142APC3  
0057010300999991951020600004+69700+019017FM-12+002499999V0202301N00411220001CN0700001N9-00501-00891100801ADDAY101999GF100991001001999999001001MD1310131+9999MW1001
0057010300999991951020603004+69700+019017FM-12+002499999V0202301N00151220001CN0700001N9-00611-01001100871ADDAY101999GF100991001001999999001001MD1310071+9999MW1001
0076010300999991951020606004+69700+019017FM-12+002499999V0202301N00151220001CN0700001N9-00721-01001100941ADDAY101999GF100991001001999999001001IA1199KA1999N-00721MD1310071+9999MW1001
0057010300999991951020609004+69700+019017FM-12+002499999V0202301N00101220001CN0700001N9-00721-00891101031ADDAY101999GF100991001001999999001001MD1310081+9999MW1001
0057010300999991951020612004+69700+019017FM-12+002499999V0209991C00001220001CN0700001N9-00501-00721101131ADDAY101999GF100991001001999999001001MD1110101+9999MW1001
0092010300999991951020615004+69700+019017FM-12+002499999V0202501N00101220001CN0600001N9-00611-00781101131ADDAY101999GA1011+013509079GF101991011061012501001001MD1410001+9999MW1031EQDQ01+000032APCTEN
0076010300999991951020618004+69700+019017FM-12+002499999V0201101N00461220001CN0700001N9-00111-00281101151ADDAY101999GF101991011061012501001001IA1199KA1999M-00111MD1310021+9999MW1001
0057010300999991951020700004+69700+019017FM-12+002499999V0200901N00261220001CN0700001N9-00221-00501101111ADDAY101999GF100991001001999999001001MD1810021+9999MW1011
0073010300999991951020703004+69700+019017FM-12+002499999V0200201N00461220001CN0700001N9-00111-00501100981ADDAY101999GA1031+013509059GF103991031051012501001001MD1990131+9999MW1031
0092010300999991951020706004+69700+019017FM-12+002499999V0200701N00671012001CN0700001N9+00001-00391100931ADDAY121999GA1061+012009059GF108991061051012501071999IA1199KA1999N-00391MD1610051+9999MW1031
0089010300999991951020709004+69700+019017FM-12+002499999V0201101N00511220001CN0700001N9-00111-00611101061ADDAY121999GA1041+012009059GA2011+010509089GF105991051081012501001001MD1210131+9999MW1011
0057010300999991951020712004+69700+019017FM-12+002499999V0201101N00671220001CN0700001N9-00221-00721101241ADDAY111999GF103991011041017501051001MD1210181+9999MW1021
0073010300999991951020715004+69700+019017FM-12+002499999V0201401N00771220001CN0700001N9-00221-00721101261ADDAY121999GA1011+015009089GF107991011041017501011071MD1210021+9999MW1031
0111010300999991951020718004+69700+019017FM-12+002499999V0202001N00511220001CN0700001N9-00391-00891101251ADDAY111999GA1031+024009039GF103991999001999999041001IA1199KA1999M+00001MD1990011+9999MW1011EQDQ01+000002SCOTLC
0076010300999991951020800004+69700+019017FM-12+002499999V0202301N00671220001CN0700001N9-00391-00891101331ADDAY111999GF101991999001999999041001MD1110061+9999MW1011EQDQ01+000002SCOTLC
0076010300999991951020803004+69700+019017FM-12+002499999V0202501N00461220001CN0700001N9-00221-00721101351ADDAY101999GF101991999001999999041001MD1310021+9999MW1011EQDQ01+000002SCOTLC
0095010300999991951020806004+69700+019017FM-12+002499999V0202501N00261220001CN0700001N9-00221-00721101441ADDAY101999GF101991999001999999041001IA1199KA1999N-00501MD1310091+9999MW1021EQDQ01+000002SCOTLC
0092010300999991951020809004+69700+019017FM-12+002499999V0209991C00001220001CN0700001N9-00281-00721101551ADDAY101999GA1011+024009039GF101991999001999999041001MD1110111+9999MW1021EQDQ01+000002SCOTLC
0092010300999991951020812004+69700+019017FM-12+002499999V0209991C00001220001CN0700001N9-00221-00501101591ADDAY101999GA1011+024009039GF101991999001999999041001MD1110041+9999MW1021EQDQ01+000002SCOTLC
0073010300999991951020815004+69700+019017FM-12+002499999V0200401N00101220001CN0700001N9-00221-00501101611ADDAY101999GA1021+014709089GF102991021051012501001001MD1310021+9999MW1021
0111010300999991951020818004+69700+019017FM-12+002499999V0209991C00001220001CN0700001N9-00221-00501101611ADDAY101999GA1011+014709089GF101991011051012501001001IA1199KA1999M-00111MD1410001+9999MW1011EQDQ01+000032APCTEN
0078010300999991951020900004+69700+019017FM-12+002499999V0202301N00261220001CN0700001N9-00221-00611101611ADDAY101999GF100991001001999999001001MW1021EQDQ01+000032APCTENQ02+000002APC3  
0057010300999991951020903004+69700+019017FM-12+002499999V0202301N00261220001CN0700001N9-00221-00611101601ADDAY101999GF100991001001999999001001MD1810011+9999MW1021
0111010300999991951020906004+69700+019017FM-12+002499999V0209991C00001220001CN0700001N9-00281-00611101581ADDAY121999GA1011+024009039GF105991999001999999041051IA1199KA1999N-00391MD1810021+9999MW1031EQDQ01+000002SCOTLC
0124010300999991951020909004+69700+019017FM-12+002499999V0202501N00261220001CN0700001N9-00281-00721101641ADDAY121999GA1021+024009039GF106991999001999999041071MD1210061+9999MW1021EQDQ01+000002SCOTLCQ02+000042APCTENQ03+000062APC3  
0092010300999991951020912004+69700+019017FM-12+002499999V0202601N00261220001CN0700001N9-00281-00781101601ADDAY121999GA1011+024009039GF101991999001999999041051MD1990021+9999MW1011EQDQ01+000002SCOTLC
0057010300999991951020915004+69700+019017FM-12+002499999V0202701N00261220001CN0700001N9-00391-00781101581ADDAY101999GF101991001001999999001021MD1990021+9999MW1021
0111010300999991951020918004+69700+019017FM-12+002499999V0202301N00311220001CN0700001N9-00501-00891101501ADDAY101999GA1021+024009039GF102991999001999999041001IA1199KA1999M-00221MD1810081+9999MW1031EQDQ01+000002SCOTLC
0076010300999991951021000004+69700+019017FM-12+002499999V0209991C000019999999N0600001N9-00221-00721101221ADDAY121999GF107991999001022501071999MD1990201+9999MW1031EQDQ01+000002SCOTLC
0073010300999991951021003004+69700+019017FM-12+002499999V0202001N00461220001CN0600001N9-00111-00611101001ADDAY121999GA1021+015009079GF108991021061017501021999MD1810221+9999MW1031
0103010300999991951021006004+69700+019017FM-12+002499999V0202301N00931220001CN0200001N9-00221-00391100741ADDAA199000691AY121999GA1041+012009079GF108991041061012501021999IA1199KA1999N-00501MD1990261+9999MW1701
0073010300999991951021009004+69700+019017FM-12+002499999V0202301N00671220001CN0700001N9+00001-00391100701ADDAY121999GA1041+015009059GF106991041081017501041021MD1710041+9999MW1011
0073010300999991951021012004+69700+019017FM-12+002499999V0202301N00671220001CN0160001N9-00111-00281100811ADDAY171999GA1041+009309059GF107991041051008001071001MD1610111+9999MW1701
0073010300999991951021015004+69700+019017FM-12+002499999V0202301N00261024001CN0200001N9-00111-00281100831ADDAY181999GA1061+024009039GF106991011021008001051001MD1310021+9999MW1051
0103010300999991951021018004+69700+019017FM-12+002499999V0202301N00261009001CN0200001N9-00221-00281100891ADDAA199000691AY181999GA1081+009009089GF108991081081008001999999IA1199KA1999M+00001MD1310061+9999MW1051
0103010300999991951021106004+69700+019017FM-12+002499999V0202301N00461009001CN0140001N9+00111+00001101081ADDAA199003091AY181999GA1081+009009089GF108991081081008001999999IA1209KA1999N-00221MD1310031+9999MW1851
0089010300999991951021109004+69700+019017FM-12+002499999V0202301N00261220001CN0600001N9+00221+00111101131ADDAY181999GA1041+010509059GA2011+006909079GF106991041051012501041021MD1310051+9999MW1011
0089010300999991951021112004+69700+019017FM-12+002499999V0202501N00461220001CN0160001N9+00111+00001101161ADDAY181999GA1041+006909079GA2011+000909079GF107991041061008001041021MD1310031+9999MW1051
0073010300999991951021115004+69700+019017FM-12+002499999V0202301N00261002101CN0070001N9+00111+00111101141ADDAY171999GA1081+002109079GF108991081061002501999999MD1990021+9999MW1561
0103010300999991951021118004+69700+019017FM-12+002499999V0209991C00001001801CN0020001N9+00111+00111101161ADDAA199000391AY171999GA1081+001809079GF108991081061001501999999IA1209KA1999M+00221MD1310021+9999MW1691
0073010300999991951021200004+69700+019017FM-12+002499999V0202301N00101001201CN0150001N9+00001+00001101251ADDAY171999GA1061+001209079GF108991061061001501021999MD1310051+9999MW1101
0073010300999991951021203004+69700+019017FM-12+002499999V0202301N00101220001CN0150001N9+00001+00001101321ADDAY171999GA1041+001509079GF108991041061001501021999MD1310071+9999MW1221
0103010300999991951021206004+69700+019017FM-12+002499999V0202301N00101220001CN0150001N9+00001+00001101421ADDAA199000391AY171999GA1031+001509079GF108991031061001501011999IA1209KA1999N+00001MD1310101+9999MW1101
0073010300999991951021209004+69700+019017FM-12+002499999V0202301N00101220001CN0150001N9+00001+00001101531ADDAY171999GA1041+001509079GF108991041061001501011999MD1310111+9999MW1101
0073010300999991951021212004+69700+019017FM-12+002499999V0202101N00101001201CN0160001N9+00111+00111101621ADDAY171999GA1071+001209079GF107991071061001501999999MD1310091+9999MW1051
0073010300999991951021215004+69700+019017FM-12+002499999V0209991C00001000901CN0050001N9+00001+00001101651ADDAY171999GA1081+000909079GF108991081061001501999999MD1310031+9999MW1701
0103010300999991951021218004+69700+019017FM-12+002499999V0209991C00001001201CN0160001N9+00001+00001101731ADDAA199000391AY171999GA1081+001209079GF108991081061001501999999IA1209KA1999M+00111MD1310081+9999MW1101
0073010300999991951021300004+69700+019017FM-12+002499999V0209991C00001003601CN0160001N9-00221-00221101901ADDAY121999GA1081+003609079GF108991081061004501999999MD1310101+9999MW1101
0073010300999991951021303004+69700+019017FM-12+002499999V0202501N00101004501CN0120001N9-00221-00221102001ADDAY121999GA1081+004509079GF108991081061004501999999MD1110101+9999MW1101
0127010300999991951021306004+69700+019017FM-12+002499999V0202301N00101005701CN0110001N9-00281-00281102111ADDAY121999GA1061+005709079GF107991061061004501041001IA1209KA1999N-00281MD1210111+9999MW1101EQDQ01+000042APCTENQ02+000112APC3  
0073010300999991951021309004+69700+019017FM-12+002499999V0209991C00001220001CN0160001N9-00391-00391102281ADDAY111999GA1011+002409079GF101991011061002501001001MD1310171+9999MW1101
0057010300999991951021312004+69700+019017FM-12+002499999V0209991C00001220001CN0700001N9-00281-00391102401ADDAY101999GF100991001001999999001001MD1310121+9999MW1001
0057010300999991951021315004+69700+019017FM-12+002499999V0202101N00261220001CN0600001N9-00391-01001102481ADDAY101999GF100991001001999999001001MD1310081+9999MW1021
0076010300999991951021318004+69700+019017FM-12+002499999V0209991C00001220001CN0600001N9-00611-01221102581ADDAY101999GF100991001001999999001001IA1209KA1999M-00281MD1310101+9999MW1021
0076010300999991951021400004+69700+019017FM-12+002499999V0202501N00261220001CN0700001N9-00501-01221102791ADDAY101999GF101991999001999999041001MD1310101+9999MW1021EQDQ01+000002SCOTLC
0057010300999991951021403004+69700+019017FM-12+002499999V0202301N00261220001CN0700001N9-00611-01391102901ADDAY101999GF100991001001999999001001MD1310111+9999MW1011
0095010300999991951021406004+69700+019017FM-12+002499999V0203601N00151220001CN0700001N9-00611-01391102901ADDAY101999GF100991001001999999001001IA1199KA1999N-00721MD1410001+9999MW1021EQDQ01+000022APCTEN
0092010300999991951021409004+69700+019017FM-12+002499999V0202901N00101220001CN0700001N9-00611-01281102951ADDAY101999GF100991001001999999001001MD1210051+9999MW1001EQDQ01+000042APCTENQ02+000052APC3  
0057010300999991951021412004+69700+019017FM-12+002499999V0202501N00261220001CN0700001N9-00501-01391102981ADDAY101999GF100991001001999999001001MD1110031+9999MW1021
0057010300999991951021415004+69700+019017FM-12+002499999V0201801N00261220001CN0700001N9-00611-01501102881ADDAY101999GF100991001001999999001001MD1810101+9999MW1021
0076010300999991951021418004+69700+019017FM-12+002499999V0202501N00261220001CN0700001N9-00611-01391102771ADDAY101999GF100991001001999999001001IA1199KA1999M-00501MD1810111+9999MW1021
0057010300999991951021500004+69700+019017FM-12+002499999V0209991C00001220001CN0700001N9-00721-01281102531ADDAY101999GF100991001001999999001001MD1810101+9999MW1021
0057010300999991951021503004+69700+019017FM-12+002499999V0202001N00671220001CN0700001N9-00611-01391102411ADDAY101999GF100991001001999999001001MD1810121+9999MW1021
0070010300999991951021506004+69700+019017FM-12+002499999V0202501N00771220001CN0700001N9-00611-01391102271ADDAY101999GF100991001001999999001001KA1999N-00781MD1810141+9999MW1021
0076010300999991951021509004+69700+019017FM-12+002499999V0202101N00671220001CN0700001N9-00611-01281102261ADDAY101999GF101991999001999999041001MD1610011+9999MW1021EQDQ01+000002SCOTLC
0057010300999991951021512004+69700+019017FM-12+002499999V0202301N00671220001CN0700001N9-00501-01221102201ADDAY101999GF100991001001999999001001MD1990061+9999MW1001
0089010300999991951021515004+69700+019017FM-12+002499999V0202301N00771024001CN0700001N9-00501-01221102121ADDAY121999GA1051+024009039GA2011+015009059GF105991011051017501071001MD1810081+9999MW1031
0092010300999991951021518004+69700+019017FM-12+002499999V0202001N01031013801CN0700001N9-00391-01001102071ADDAY121999GA1071+013809059GF107991071051012501999999IA1199KA1999M-00391MD1610051+9999MW1031
0092010300999991951021600004+69700+019017FM-12+002499999V0202101N01131024001CN0600001N9-00111-00501101991ADDAY121999GA1081+024009039GF108991999001999999071999MD1990061+9999MW1031EQDQ01+000002SCOTLC
0073010300999991951021603004+69700+019017FM-12+002499999V0202101N01131006601CN0160001N9+00111-00221101891ADDAY121999GA1081+006609099GF108991081091008001999999MD1710101+9999MW1851
0097010300999991951021606004+69700+019017FM-12+002499999V0202101N00931006001CN0050001N9+00111+00001101871ADDAA199000691AY181999GA1071+006009089GF107991071091008001999999KA1999N-00391MD1610021+9999MW1851
0073010300999991951021609004+69700+019017FM-12+002499999V0202301N00931007501CN0100001N9+00111+00111101891ADDAY171999GA1071+007509089GF108991071071008001011999MD1210021+9999MW1681
0073010300999991951021612004+69700+019017FM-12+002499999V0202301N01031008101CN0160001N9+00221+00111101841ADDAY181999GA1061+008109059GF108991071071008001021999MD1810051+9999MW1681
0089010300999991951021615004+69700+019017FM-12+002499999V0202101N00671007501CN0060001N9+00221+00111101801ADDAY171999GA1061+007509079GA2081+009009049GF108991061071008001021999MD1990041+9999MW1681
0103010300999991951021618004+69700+019017FM-12+002499999V0202301N00511220001CN0200001N9+00221+00001101721ADDAA199003091AY171999GA1031+009009059GF108991031051008001011071IA1199KA1999M+00281MD1610081+9999MW1021
0073010300999991951021700004+69700+019017FM-12+002499999V0203601N00101009001CN0160001N9+00001-00111101591ADDAY171999GA1051+009009059GF107991051051008001041001MD1710081+9999MW1021
0073010300999991951021703004+69700+019017FM-12+002499999V0202001N00101009001CN0160001N9+00001-00111101471ADDAY121999GA1051+009009059GF107991051051008001041001MD1810121+9999MW1021
0103010300999991951021706004+69700+019017FM-12+002499999V0209991C00001220001CN0200001N9-00111-00221101361ADDAA199000691AY121999GA1031+010509059GF105991031051012501041071IA1199KA1999N-00111MD1810111+9999MW1011
0089010300999991951021709004+69700+019017FM-12+002499999V0209991C00001024001CN0050001N9-00111-00221101261ADDAY121999GA1021+000159049GA2071+024009039GF107991021061000251071999MD1810101+9999MW1701
0089010300999991951021712004+69700+019017FM-12+002499999V0203601N00101012001CN0060001N9+00001-00111101121ADDAY171999GA1071+012009049GA2011+000309079GF107991011061000251021001MD1810141+9999MW1711
0073010300999991951021715004+69700+019017FM-12+002499999V0200201N00101220001CN0600001N9-00221-00281100861ADDAY111999GA1011+000609079GF102991011061000751041001MD1810261+9999MW1011
0103010300999991951021718004+69700+019017FM-12+002499999V0209991C00001220001CN0600001N9-00391-00391100631ADDAA199000691AY111999GA1011+008109059GF103991011051008001041051IA1199KA1999M+00001MD1810231+9999MW1031
0076010300999991951021806004+69700+019017FM-12+002499999V0202101N00671220001CN0700001N9-00721-01111099961ADDAY101999GF101991011061012501001011IA1199KA1999N-00781MD1610081+9999MW1021
0057010300999991951021809004+69700+019017FM-12+002499999V0202301N00261220001CN0700001N9-00721-01111099891ADDAY101999GF101991011011017501001001MD1710071+9999MW1011
0057010300999991951021812004+69700+019017FM-12+002499999V0202301N00671220001CN0700001N9-00611-01111099791ADDAY101999GF101991011011017501001001MD1710101+9999MW1021
0057010300999991951021815004+69700+019017FM-12+002499999V0202301N00671220001CN0700001N9-00721-01221099741ADDAY101999GF100991001001999999001001MD1610051+9999MW1011
0076010300999991951021818004+69700+019017FM-12+002499999V0202301N00671220001CN0700001N9-00721-01221099681ADDAY101999GF100991001001999999001001IA1199KA1999M-00501MD1810061+9999MW1021
0110010300999991951021900004+69700+019017FM-12+002499999V0202701N00261220001CN0700001N9-00781-01281099661ADDAY101999GA1011+024009039GF101991999001999999041001MW1031EQDQ01+000002SCOTLCQ02+000032APCTENQ03+000002APC3  
0092010300999991951021903004+69700+019017FM-12+002499999V0209991C00001220001CN0700001N9-00721-01111099561ADDAY101999GA1011+024009039GF101991999001999999041001MD1710101+9999MW1021EQDQ01+000002SCOTLC
0127010300999991951021906004+69700+019017FM-12+002499999V0203601N00101220001CN0700001N9-00611-01001099561ADDAY101999GA1041+024009039GF104991999001999999041001IA1199KA1999N-00781MD1410001+9999MW1031EQDQ01+000002SCOTLCQ02+000032APCTEN
0092010300999991951021909004+69700+019017FM-12+002499999V0201801N00511220001CN0700001N9-00501-01001099651ADDAY121999GA1031+030009039GF104991999001999999041021MD1310091+9999MW1031EQDQ01+000002SCOTLC
0092010300999991951021912004+69700+019017FM-12+002499999V0202301N00101220001CN0700001N9-00221-00891099671ADDAY121999GA1041+027009039GF105991999001999999041021MD1310021+9999MW1021EQDQ01+000002SCOTLC
0076010300999991951021915004+69700+019017FM-12+002499999V0202401N00461220001CN0700001N9-00281-00781099671ADDAY111999GF103991001001999999041021MD1410001+9999MW1011EQDQ01+000032APCTEN
0127010300999991951021918004+69700+019017FM-12+002499999V0202701N00461220001CN0600001N9-00391-00891099711ADDAY101999GF101991999001999999041001IA1199KA1999M-00221MD1210041+9999MW1021EQDQ01+000002SCOTLCQ02+000042APCTENQ03+000042APC3  
0057010300999991951022000004+69700+019017FM-12+002499999V0201801N00261220001CN0700001N9-00391-00891099831ADDAY101999GF101991001001999999041011MD1110041+9999MW1021
0076010300999991951022003004+69700+019017FM-12+002499999V0202301N00461220001CN0700001N9-00391-00891099811ADDAY101999GF101991999001999999041001MD1710021+9999MW1021EQDQ01+000002SCOTLC
0095010300999991951022006004+69700+019017FM-12+002499999V0202301N00261220001CN0700001N9-00501-01001099831ADDAY101999GF101991999001999999041001IA1199KA1999N-00501MD1210021+9999MW1021EQDQ01+000002SCOTLC
0124010300999991951022009004+69700+019017FM-12+002499999V0202301N00671220001CN0700001N9-00281-00781099841ADDAY101999GA1021+024009039GF102991999001999999041001MD1210011+9999MW1031EQDQ01+000002SCOTLCQ02+000042APCTENQ03+000012APC3  
0092010300999991951022012004+69700+019017FM-12+002499999V0202301N00931220001CN0700001N9-00391-00891099871ADDAY121999GA1031+024009039GF103991999001999999041001MD1210031+9999MW1021EQDQ01+000002SCOTLC
0092010300999991951022015004+69700+019017FM-12+002499999V0202501N00101220001CN0700001N9-00501-01001099911ADDAY111999GA1021+024009039GF102991999001999999041001MD1210041+9999MW1011EQDQ01+000002SCOTLC
0095010300999991951022018004+69700+019017FM-12+002499999V0209991C00001220001CN0700001N9-00611-01001099961ADDAY101999GF101991999001999999041001IA1199KA1999M-00281MD1310051+9999MW1021EQDQ01+000002SCOTLC
0076010300999991951022100004+69700+019017FM-12+002499999V0202501N00261220001CN0600001N9-00611-01001099931ADDAY101999GF101991999001999999041001MD1310011+9999MW1021EQDQ01+000002SCOTLC
0057010300999991951022103004+69700+019017FM-12+002499999V0202401N00511220001CN0600001N9-00611-01001099941ADDAY101999GF101991001001999999041021MD1310011+9999MW1021
0076010300999991951022106004+69700+019017FM-12+002499999V0202301N00261220001CN0600001N9-00611-01001099911ADDAY101999GF102991001001999999001021IA1199KA1999N-00721MD1810031+9999MW1031
0092010300999991951022109004+69700+019017FM-12+002499999V0202501N00101220001CN0700001N9-00611-01001099961ADDAY111999GA1011+024009039GF106991999001999999041071MD1110051+9999MW1031EQDQ01+000002SCOTLC
0073010300999991951022112004+69700+019017FM-12+002499999V0201601N00101220001CN0700001N9-00281-00781099991ADDAY111999GA1021+048009009GF102991001001999999001021MD1310031+9999MW1011
0073010300999991951022115004+69700+019017FM-12+002499999V0200701N00261220001CN0700001N9-00391-00781100041ADDAY121999GA1031+018009059GF105991031041017501041021MD1310051+9999MW1031
0111010300999991951022118004+69700+019017FM-12+002499999V0203601N00101220001CN0700001N9-00391-00721100071ADDAY121999GA1021+024009039GF102991999001999999041021IA1199KA1999M-00281MD1310031+9999MW1011EQDQ01+000002SCOTLC
0078010300999991951022200004+69700+019017FM-12+002499999V0203601N002619999999N0600001N9-00221-00611100241ADDAY121999GF106991011001999999041011MW1021EQDQ01+000042APCTENQ02+000082APC3  
0057010300999991951022203004+69700+019017FM-12+002499999V0203001N001019999999N0600001N9-00221-00611100311ADDAY111999GF105991011061017501041061MD1310071+9999MW1021
0076010300999991951022206004+69700+019017FM-12+002499999V0203001N001019999999N0700001N9-00221-00721100401ADDAY111999GF106991021001999999041061IA1199KA1999N-00391MD1310091+9999MW1021
0092010300999991951022209004+69700+019017FM-12+002499999V0209991C00001220001CN0700001N9-00221-00721100531ADDAY121999GA1021+024009039GF105991999001999999041051MD1310131+9999MW1021EQDQ01+000002SCOTLC
0092010300999991951022212004+69700+019017FM-12+002499999V0202301N00461220001CN0700001N9-00221-00721100671ADDAY121999GA1041+027009049GF107991999001999999071071MD1310141+9999MW1031EQDQ01+000002SCOTLC
0092010300999991951022215004+69700+019017FM-12+002499999V0209991C00001027001CN0400001N9-00221-00721100731ADDAY121999GA1051+027009049GF107991999001999999011061MD1310061+9999MW1021EQDQ01+000002SCOTLC
0111010300999991951022218004+69700+019017FM-12+002499999V0209991C00001220001CN0200001N9-00281-00721100751ADDAY121999GA1041+024009049GF106991999001999999011061IA1199KA1999M-00111MD1110021+9999MW1011EQDQ01+000002SCOTLC
0073010300999991951022300004+69700+019017FM-12+002499999V0202301N00101048001CN0700001N9-00391-00721100821ADDAY121999GA1051+048009029GF105991001001999999001071MD1310051+9999MW1021
0073010300999991951022303004+69700+019017FM-12+002499999V0209991C00001048001CN0700001N9-00391-00721100771ADDAY121999GA1051+048009029GF105991001001999999001071MD1810051+9999MW1021
0095010300999991951022306004+69700+019017FM-12+002499999V0209991C00001220001CN0700001N9-00391-00721100771ADDAY111999GF102991001001999999001021IA1199KA1999N-00501MD1410001+9999MW1011EQDQ01+000032APCTEN
0076010300999991951022309004+69700+019017FM-12+002499999V0209991C00001220001CN0700001N9-00281-00611100791ADDAY101999GF103991001001999999001011MD1310021+9999MW1021EQDQ01+000002APC3  
0057010300999991951022312004+69700+019017FM-12+002499999V0209991C00001220001CN0700001N9-00111-00611100781ADDAY101999GF103991001001999999041021MD1810011+9999MW1021
0092010300999991951022315004+69700+019017FM-12+002499999V0200901N00051220001CN0700001N9-00221-00721100751ADDAY101999GA1011+027009039GF105991999001999999041021MD1810031+9999MW1031EQDQ01+000002SCOTLC
0076010300999991951022318004+69700+019017FM-12+002499999V0202501N00101220001CN0700001N9-00281-00781100721ADDAY101999GF101991001001999999001021IA1199KA1999M-00111MD1610031+9999MW1021
0092010300999991951022400004+69700+019017FM-12+002499999V0202001N00101220001CN0700001N9-00501-01001100711ADDAY101999GA1031+024009039GF103991999001999999051021MD1710021+9999MW1031EQDQ01+000002SCOTLC
0092010300999991951022403004+69700+019017FM-12+002499999V0209991C00001220001CN0700001N9-00501-00891100651ADDAY121999GA1041+024009039GF104991999001999999041021MD1810061+9999MW1031EQDQ01+000002SCOTLC
0111010300999991951022406004+69700+019017FM-12+002499999V0202501N00461220001CN0700001N9-00501-01001100601ADDAY121999GA1021+024009039GF102991999001999999041001IA1199KA1999N-00611MD1810051+9999MW1011EQDQ01+000002SCOTLC
0057010300999991951022409004+69700+019017FM-12+002499999V0202101N00671220001CN0700001N9-00501-01001100631ADDAY101999GF101991001001999999041021MD1310031+9999MW1011
0057010300999991951022412004+69700+019017FM-12+002499999V0202101N00461220001CN0700001N9-00391-00891100621ADDAY101999GF100991001001999999001001MD1810011+9999MW1021
0076010300999991951022415004+69700+019017FM-12+002499999V0202101N00771220001CN0700001N9-00611-01111100561ADDAY101999GF101991999001999999041001MD1610061+9999MW1021EQDQ01+000002SCOTLC
0095010300999991951022418004+69700+019017FM-12+002499999V0202301N00511220001CN0700001N9-00611-01111100541ADDAY101999GF101991999001999999041001IA1199KA1999M-00391MD1710021+9999MW1021EQDQ01+000002SCOTLC
0076010300999991951022506004+69700+019017FM-12+002499999V0202501N00461220001CN0700001N9-00781-01221100381ADDAY101999GF100991001001999999001001IA1199KA1999N-00781MD1810061+9999MW1021
0057010300999991951022509004+69700+019017FM-12+002499999V0202301N00261220001CN0700001N9-00721-01111100341ADDAY101999GF100991001001999999001001MD1810041+9999MW1021
0092010300999991951022512004+69700+019017FM-12+002499999V0202101N00511220001CN0600001N9-00611-01001100361ADDAY101999GF101991001001999999001021MD1210021+9999MW1031EQDQ01+000042APCTENQ02+000022APC3  
0108010300999991951022515004+69700+019017FM-12+002499999V0202301N00511220001CN0700001N9-00611-01111100361ADDAY101999GA1011+030009039GF103991999001999999041021MD1410001+9999MW1031EQDQ01+000002SCOTLCQ02+000032APCTEN
0076010300999991951022518004+69700+019017FM-12+002499999V0202301N00671220001CN0700001N9-00611-01001100391ADDAY101999GF102991001001999999041021IA1199KA1999M-00611MD1310031+9999MW1011
0094010300999991951022600004+69700+019017FM-12+002499999V0202301N00571220001CN0700001N9-00611-01001100431ADDAY101999GF101991999001999999041001MW1021EQDQ01+000002SCOTLCQ02+000042APCTENQ03+000012APC3  
0092010300999991951022603004+69700+019017FM-12+002499999V0202501N00931220001CN0700001N9-00501-00891100411ADDAY111999GA1031+018009059GF103991031051017501999001MD1710041+9999MW1031EQDQ01    003SCOMCG
0108010300999991951022606004+69700+019017FM-12+002499999V0202501N00671013501CN0700001N9-00281-00611100441ADDAY121999GA1071+013509059GA2031+012009089GF107991071081012501001001IA1199KA1999N-00721MD1210031+9999MW1021
0089010300999991951022609004+69700+019017FM-12+002499999V0202101N01231220001CN0700001N9+00001-00501100381ADDAY121999GA1011+012009089GA2011+013509059GF103991021081012501041021MD1990061+9999MW1011
0108010300999991951022612004+69700+019017FM-12+002499999V0202001N01801000901CN0160001N9+00001-00391100411ADDAY181999GA1081+000909099GF108991081091001501999999MD1210031+9999MW1851EQDQ01+000042APCTENQ02+000032APC3  
0073010300999991951022615004+69700+019017FM-12+002499999V0202001N01801000601CN0010001N9-00111-00111100531ADDAY181999GA1081+000609099GF108991081091000751999999MD1210121+9999MW1861
0103010300999991951022618004+69700+019017FM-12+002499999V0202001N01291004501CN0100001N9+00111+00001100781ADDAA199004091AY181999GA1081+004509099GF108991081091004501999999IA1319KA1999M+00221MD1210251+9999MW1851
0073010300999991951022700004+69700+019017FM-12+002499999V0202101N00931220001CN0600001N9+00111-00281101001ADDAY181999GA1021+009009059GF102991021051008001001001MD1210121+9999MW1011
0073010300999991951022703004+69700+019017FM-12+002499999V0202001N00671009001CN0600001N9+00111-00391101011ADDAY121999GA1061+009009099GF106991061081008001001001MD1210011+9999MW1031
0103010300999991951022706004+69700+019017FM-12+002499999V0202001N00931220001CN0600001N9+00111-00501100991ADDAA199000691AY111999GA1041+009009089GF106991041081008001041021IA1199KA1999N+00001MD1610021+9999MW1021
0108010300999991951022709004+69700+019017FM-12+002499999V0202101N01031220001CN0700001N9+00111-00501101111ADDAY121999GA1041+011409089GF106991041081012501001021MD1210121+9999MW1181EQDQ01+000042APCTENQ02+000122APC3  
0089010300999991951022712004+69700+019017FM-12+002499999V0202101N00671220001CN0700001N9+00111-00391101201ADDAY121999GA1031+012009089GA2021+012009059GF106991051081012501041021MD1110091+9999MW1021
0124010300999991951022715004+69700+019017FM-12+002499999V0202101N00931220001CN0700001N9+00111-00391101261ADDAY121999GA1021+012009089GA2021+012009059GF106991041081012501041021MD1210061+9999MW1021EQDQ01+000042APCTENQ02+000062APC3  
0092010300999991951022718004+69700+019017FM-12+002499999V0202101N01031220001CN0700001N9+00001-00501101231ADDAY121999GA1021+012009059GF102991021051012501001001IA1199KA1999M+00111MD1990031+9999MW1011
0057010300999991951022800004+69700+019017FM-12+002499999V0202101N014919999999N0400001N9+00111-00391100981ADDAY111999GF108991021071012501021999MD1990131+9999MW1031
0073010300999991951022803004+69700+019017FM-12+002499999V0202101N01801012001CN0400001N9+00221-00281100711ADDAY121999GA1061+012009079GF108991061061012501021999MD1710271+9999MW1031
0076010300999991951022806004+69700+019017FM-12+002499999V0202101N015419999999N0400001N9+00281-00281100331ADDAY121999GF108991021061017501021999IA1199KA1999N+00001MD1810381+9999MW1021
0073010300999991951022809004+69700+019017FM-12+002499999V0202101N02061220001CN0600001N9+00391-00281099831ADDAY121999GA1031+015009079GF108991031061017501021999MD1810501+9999MW1181
0089010300999991951022812004+69700+019017FM-12+002499999V0202101N01901220001CN0600001N9+00281-00391099741ADDAY121999GA1031+015009059GA2031+015009089GF107991051081017501071021MD1510091+9999MW1011
0073010300999991951022815004+69700+019017FM-12+002499999V0202001N01901009001CN0080001N9+00221-00111099751ADDAY181999GA1081+009009099GF108991081091008001999999MD1210011+9999MW1851
0138010300999991951022818004+69700+019017FM-12+002499999V0202601N00931003001CN0020001N9-00111-00221100161ADDAA199002091AY181999GA1081+003009099GF108991081091004501999999IA1309KA1999M+00391MD1210411+9999MW1851EQDQ01+000042APCTENQ02+000412APC3  
0073010300999991951030100004+69700+019017FM-12+002499999V0202001N01031001801CN0060001N9-00221-00281100921ADDAY181999GA1081+001809099GF108991081091002501999999MD1210401+9999MW1861
0073010300999991951030103004+69700+019017FM-12+002499999V0202501N01031001801CN0080001N9+00001-00221101281ADDAY181999GA1081+001809099GF108991081091002501999999MD1210361+9999MW1851
0103010300999991951030106004+69700+019017FM-12+002499999V0202301N00461005701CN0120001N9+00001-00281101251ADDAA199003091AY181999GA1061+005709099GF106991061091004501001001IA1319KA1999N-00281MD1110171+9999MW1151
0073010300999991951030109004+69700+019017FM-12+002499999V0202101N01231006901CN0200001N9+00111-00221101551ADDAY121999GA1061+006909089GF107991061081008001041001MD1110101+9999MW1051
0073010300999991951030112004+69700+019017FM-12+002499999V0202101N01231009001CN0200001N9+00221-00111101421ADDAY121999GA1061+009009089GF107991061081008001041999MD1990131+9999MW1021
0073010300999991951030115004+69700+019017FM-12+002499999V0202101N01231013501CN0400001N9+00391-00111101191ADDAY121999GA1051+013509059GF107991051051012501071021MD1710231+9999MW1031
0103010300999991951030118004+69700+019017FM-12+002499999V0202101N01441010801CN0600001N9+00501+00001100961ADDAA199000691AY121999GA1051+010809059GF108991051051012501021999IA1209KA1999M+00501MD1710231+9999MW1031
0073010300999991951030200004+69700+019017FM-12+002499999V0202301N01901009001CN0400001N9+00611+00111100681ADDAY121999GA1071+009009089GF107991071081008001001001MD1990121+9999MW1021
0073010300999991951030203004+69700+019017FM-12+002499999V0202301N01651009001CN0400001N9+00611+00221100641ADDAY181999GA1071+009009099GF107991071091008001001001MD1710041+9999MW1801
0103010300999991951030206004+69700+019017FM-12+002499999V0202301N01291009001CN0200001N9+00501+00221100541ADDAA199000691AY181999GA1071+009009099GF107991071091008001001071IA1199KA1999N+00501MD1990101+9999MW1801
0073010300999991951030209004+69700+019017FM-12+002499999V0202301N01031009001CN0160001N9+00501+00281100701ADDAY181999GA1081+009009089GF108991081081008001001001MD1210161+9999MW1801
0073010300999991951030212004+69700+019017FM-12+002499999V0202101N01231006601CN0160001N9+00391+00281100721ADDAY161999GA1071+006609079GF108991071071008001021999MD1210021+9999MW1601
0073010300999991951030215004+69700+019017FM-12+002499999V0202101N00931006001CN0160001N9+00391+00281100701ADDAY161999GA1061+006009079GF108991061071008001021999MD1990021+9999MW1601
0103010300999991951030218004+69700+019017FM-12+002499999V0202101N01231007501CN0200001N9+00501+00281100381ADDAA199000391AY161999GA1061+007509079GF108991061071008001021999IA1199KA1999M+00611MD1710321+9999MW1601
0073010300999991951030300004+69700+019017FM-12+002499999V0202101N01901009001CN0080001N9+00391+00281099721ADDAY161999GA1071+009009079GF108991071071008001021999MD1710301+9999MW1611
0073010300999991951030303004+69700+019017FM-12+002499999V0202101N01901007501CN0050001N9+00611+00281099371ADDAY161999GA1071+007509079GF108991071071008001021999MD1710351+9999MW1611
0103010300999991951030306004+69700+019017FM-12+002499999V0202401N01901009001CN0050001N9+00501+00281099341ADDAA199002091AY161999GA1081+009009099GF108991081091008001999999IA1189KA1999N+00391MD1510031+9999MW1811
0073010300999991951030309004+69700+019017FM-12+002499999V0202401N01181003001CN0050001N9+00281+00221099581ADDAY161999GA1081+003009049GF108991081001004501021999MD1310241+9999MW1691
0073010300999991951030312004+69700+019017FM-12+002499999V0202501N01031001501CN0004001N9+00111+00111099901ADDAY171999GA1081+001509049GF108991081001001501021999MD1210321+9999MW1731
0073010300999991951030315004+69700+019017FM-12+002499999V0202101N00461220001CN0002001N9+00001+00001099911ADDAY171999GA1091+999999999GF109991091999999999999999MD1010011+9999MW1751
0119010300999991951030318004+69700+019017FM-12+002499999V0202101N00671018001CN0040001N9+00111+00111099831ADDAA199019091AY171999GA1031+003009099GA2081+018009049GF108991031091004501021999IA1209KA1999M+00501MD1990031+9999MW1681
0124010300999991951030406004+69700+019017FM-12+002499999V0202501N00101003901CN0200001N9+00001+00001099461ADDAA199015091AY171999GA1061+003909079GF108991061071004501021999IA1319KA1999N+00001MW1681EQDQ01+000042APCTENQ02+000352APC3  
0073010300999991951030409004+69700+019017FM-12+002499999V0203301N00261003001CN0020001N9-00111-00111099821ADDAY181999GA1081+003009099GF108991081091004501999999MD1310361+9999MW1851
0073010300999991951030412004+69700+019017FM-12+002499999V0203301N00101003601CN0020001N9-00111-00221100181ADDAY181999GA1081+003609099GF108991081091004501999999MD1310361+9999MW1851
0073010300999991951030415004+69700+019017FM-12+002499999V0202501N00101003601CN0040001N9-00221-00281100401ADDAY181999GA1081+003609099GF108991081091004501999999MD1110221+9999MW1851
0103010300999991951030418004+69700+019017FM-12+002499999V0202401N00261004501CN0200001N9-00281-00391100631ADDAA199002091AY181999GA1071+004509099GF107991071091004501999999IA1319KA1999M+00111MD1310231+9999MW1261
0073010300999991951030500004+69700+019017FM-12+002499999V0202301N00511004501CN0060001N9-00281-00391100891ADDAY181999GA1071+004509099GF107991071091004501001001MD1310121+9999MW1851
0073010300999991951030503004+69700+019017FM-12+002499999V0202101N00461220001CN0400001N9-00391-00501100961ADDAY181999GA1031+009609099GF103991031091008001001001MD1210071+9999MW1011
0103010300999991951030506004+69700+019017FM-12+002499999V0202301N00671009601CN0120001N9-00221-00221101001ADDAA199002091AY111999GA1071+009609099GF107991071091008001999999IA1319KA1999N-00391MD1210041+9999MW1151
0073010300999991951030509004+69700+019017FM-12+002499999V0202301N00671009601CN0160001N9-00221-00501101151ADDAY181999GA1071+009609099GF107991071091008001999999MD1210151+9999MW1151
0073010300999991951030512004+69700+019017FM-12+002499999V0202301N00671009001CN0600001N9-00111-00391101211ADDAY181999GA1071+009009089GF107991071031008001001001MD1110061+9999MW1151
0073010300999991951030515004+69700+019017FM-12+002499999V0202301N00931007801CN0600001N9-00111-00391101281ADDAY121999GA1061+007809089GF106991061031008001001001MD1210071+9999MW1151
0103010300999991951030518004+69700+019017FM-12+002499999V0202301N00671007801CN0400001N9-00111-00391101411ADDAA199000691AY181999GA1071+007809089GF107991071031008001001001IA1319KA1999M-00111MD1310131+9999MW1151
0076010300999991951030600004+69700+019017FM-12+002499999V0202301N00461220001CN0600001N9-00221-00501101641ADDAY111999GF102991999001999999041001MD1110101+9999MW1011EQDQ01+000002SCOTLC
0076010300999991951030603004+69700+019017FM-12+002499999V0202401N00261220001CN0600001N9-00281-00611101691ADDAY101999GF101991999001999999041001MD1310051+9999MW1021EQDQ01+000002SCOTLC
0095010300999991951030606004+69700+019017FM-12+002499999V0202501N00101220001CN0700001N9-00501-00721101761ADDAY101999GF101991999001999999041001IA1319KA1999N-00501MD1310071+9999MW1021EQDQ01+000002SCOTLC
0092010300999991951030609004+69700+019017FM-12+002499999V0209991C00001220001CN0700001N9-00281-00391101791ADDAY101999GA1011+024009039GF101991999001999999041001MD1310031+9999MW1021EQDQ01+000002SCOTLC
0092010300999991951030612004+69700+019017FM-12+002499999V0209991C00001220001CN0600001N9+00001-00391101761ADDAY101999GA1011+024009039GF101991999001999999041001MD1990031+9999MW1041EQDQ01+000002SCOTLC
0092010300999991951030615004+69700+019017FM-12+002499999V0209991C00001220001CN0700001N9-00281-00721101671ADDAY101999GA1011+024009039GF102991999001999999041021MD1810091+9999MW1021EQDQ01+000002SCOTLC
0111010300999991951030618004+69700+019017FM-12+002499999V0202501N00101220001CN0700001N9-00501-00781101601ADDAY101999GA1011+024009039GF101991999001999999051001IA1319KA1999M+00001MD1810071+9999MW1011EQDQ01+000002SCOTLC
0073010300999991951030700004+69700+019017FM-12+002499999V0200201N00101021001CN0400001N9-00281-00391101531ADDAY121999GA1081+021009049GF108991081001022501021999MD1810051+9999MW1021
0092010300999991951030703004+69700+019017FM-12+002499999V0209991C00001024001CN0700001N9-00281-00391101501ADDAY121999GA1071+024009039GF107991999001999999041001MD1810031+9999MW1011EQDQ01+000002SCOTLC
0127010300999991951030706004+69700+019017FM-12+002499999V0209991C00001220001CN0700001N9-00501-00611101541ADDAY111999GA1031+012009059GF104991031051012501041001IA1319KA1999N-00611MD1210041+9999MW1031EQDQ01+000042APCTENQ02+000042APC3  
0073010300999991951030709004+69700+019017FM-12+002499999V0202301N00101220001CN0160001N9-00281-00391101641ADDAY111999GA1041+010509089GF106991041081012501061001MD1310101+9999MW1851
0073010300999991951030712004+69700+019017FM-12+002499999V0202501N00101010501CN0400001N9-00221-00391101711ADDAY181999GA1051+010509089GF105991051081012501001001MD1310071+9999MW1011
0073010300999991951030715004+69700+019017FM-12+002499999V0202501N00101012001CN0400001N9-00111-00281101791ADDAY121999GA1071+012009059GF107991071051012501001001MD1310081+9999MW1141
0103010300999991951030718004+69700+019017FM-12+002499999V0202501N00151220001CN0400001N9-00391-00501101921ADDAA199000391AY181999GA1041+007509099GF105991041031008001061001IA1319KA1999M-00111MD1310131+9999MW1151
0073010300999991951030800004+69700+019017FM-12+002499999V0202501N00311012001CN0600001N9-00391-00501102101ADDAY121999GA1061+012009059GF106991061051012501001001MD1310091+9999MW1031
0073010300999991951030803004+69700+019017FM-12+002499999V0202501N00261010501CN0400001N9-00281-00391102201ADDAY181999GA1061+010509089GF106991061081012501001001MD1310101+9999MW1851
0103010300999991951030806004+69700+019017FM-12+002499999V0202501N00261006001CN0200001N9-00391-00391102251ADDAA199000391AY181999GA1051+006009089GF105991051031008001001001IA1319KA1999N-00391MD1310051+9999MW1851
0073010300999991951030809004+69700+019017FM-12+002499999V0209991C00001001501CN0160001N9-00281-00281102331ADDAY181999GA1051+001509089GF105991051031001501071001MD1310081+9999MW1851
0057010300999991951030812004+69700+019017FM-12+002499999V0209991C00001220001CN0400001N9+00001-00221102461ADDAY181999GF102991021081008001001001MD1110131+9999MW1011
0073010300999991951030815004+69700+019017FM-12+002499999V0209991C00001220001CN0400001N9-00281-00501102441ADDAY101999GA1011+009009059GF102991021081008001001001MD1810021+9999MW1041
0103010300999991951030818004+69700+019017FM-12+002499999V0209991C00001220001CN0600001N9-00501-00721102511ADDAA199000691AY101999GA1011+009009059GF102991021081008001001001IA1319KA1999M+00001MD1310071+9999MW1021
0110010300999991951030900004+69700+019017FM-12+002499999V0209991C00001220001CN0700001N9-00391-00501102521ADDAY101999GA1011+009009089GA2011+009009059GF102991021081008001001001MW1021EQDQ01+000032APCTENQ02+000002APC3  
0092010300999991951030903004+69700+019017FM-12+002499999V0202501N00101220001CN0700001N9-00611-00721102521ADDAY101999GA1011+010509059GF101991011041012501001001MD1410001+9999MW1011EQDQ01+000032APCTEN
0127010300999991951030906004+69700+019017FM-12+002499999V0202501N00101220001CN0200001N9-00721-00781102551ADDAY101999GA1011+007809079GF102991011061008001041001IA1319KA1999N-00721MD1210031+9999MW1021EQDQ01+000042APCTENQ02+000032APC3  
0073010300999991951030909004+69700+019017FM-12+002499999V0202301N00411220001CN0600001N9-00501-00611102581ADDAY111999GA1011+003009059GF101991011051004501041001MD1210031+9999MW1021
0057010300999991951030912004+69700+019017FM-12+002499999V0202301N00461220001CN0700001N9-00281-00501102481ADDAY101999GF104991001001999999061061MD1990101+9999MW1031
0073010300999991951030915004+69700+019017FM-12+002499999V0202301N00461010501CN0400001N9-00221-00611102341ADDAY121999GA1071+010509059GF107991071051012501999999MD1810141+9999MW1031
0103010300999991951030918004+69700+019017FM-12+002499999V0202501N00461004501CN0080001N9-00501-00611102171ADDAA199001091AY181999GA1061+004509099GF106991061091004501001001IA1319KA1999M-00221MD1810171+9999MW1851
0073010300999991951031000004+69700+019017FM-12+002499999V0202501N00261003001CN0040001N9-00391-00391101881ADDAY181999GA1081+003009099GF108991081091004501999999MD1610101+9999MW1851
0073010300999991951031003004+69700+019017FM-12+002499999V0202701N00151220001CN0400001N9-00501-00611101741ADDAY181999GA1031+009009089GF103991031091008001001001MD1710141+9999MW1011
0103010300999991951031006004+69700+019017FM-12+002499999V0202901N00101008101CN0160001N9-00501-00611101661ADDAA199003091AY181999GA1081+008109099GF108991081091008001999999IA1319KA1999N-00721MD1510081+9999MW1851
0073010300999991951031009004+69700+019017FM-12+002499999V0209991C00001220001CN0200001N9-00391-00501101601ADDAY181999GA1031+004809089GF105991031021004501061001MD1710061+9999MW1051
0089010300999991951031012004+69700+019017FM-12+002499999V0203001N00101220001CN0400001N9-00391-00611101521ADDAY121999GA1041+012009059GA2031+006009089GF107991071081004501001001MD1810081+9999MW1851
0089010300999991951031015004+69700+019017FM-12+002499999V0209991C00001220001CN0400001N9-00281-00501101401ADDAY121999GA1031+012009059GA2031+006009089GF106991061081004501001001MD1810121+9999MW1011
0119010300999991951031018004+69700+019017FM-12+002499999V0202301N00261021001CN0400001N9-00501-00721101181ADDAA199000691AY121999GA1011+007509059GA2061+021009039GF107991011051008001071999IA1319KA1999M-00281MD1810221+9999MW1021
0103010300999991951031106004+69700+019017FM-12+002499999V0202301N00101220001CN0002001N9-00281-00281100241ADDAA199006091AY181999GA1091+999999999GF109991091091999999999999IA1319KA1999N-00501MD1810401+9999MW1861
0073010300999991951031109004+69700+019017FM-12+002499999V0202801N00101220001CN0002001N9-00281-00281100101ADDAY181999GA1091+999999999GF109991091071999999999999MD1810141+9999MW1751
0073010300999991951031112004+69700+019017FM-12+002499999V0200201N00461004501CN0120001N9-00221-00281100091ADDAY171999GA1071+004509089GF107991071091004501999999MD1510011+9999MW1851
0073010300999991951031115004+69700+019017FM-12+002499999V0203601N00461007501CN0160001N9-00281-00611100201ADDAY181999GA1051+007509099GF107991051091008001061071MD1110111+9999MW1021
0103010300999991951031118004+69700+019017FM-12+002499999V0203401N00261007501CN0150001N9-00501-00891100271ADDAA199004091AY121999GA1061+007509099GF106991061091008001001001IA1319KA1999M-00221MD1210071+9999MW1851
0076010300999991951031200004+69700+019017FM-12+002499999V0202301N00461220001CN0600001N9-00721-01001100141ADDAY111999GF102991999001999999041001MD1710081+9999MW1021EQDQ01+000002SCOTLC
0057010300999991951031203004+69700+019017FM-12+002499999V0202001N01031220001CN0600001N9-00611-00891100051ADDAY111999GF102991011071017501041001MD1710091+9999MW1031
0138010300999991951031206004+69700+019017FM-12+002499999V0202301N00461004501CN0200001N9-00611-00891100061ADDAA199000691AY181999GA1051+004509089GF107991051091004501041999IA1319KA1999N-00721MD1210011+9999MW1851EQDQ01+000042APCTENQ02+000012APC3  
0108010300999991951031209004+69700+019017FM-12+002499999V0202301N00101004501CN0600001N9-00391-00891100101ADDAY181999GA1051+004509089GF107991051081004501041021MD1210041+9999MW1151EQDQ01+000042APCTENQ02+000042APC3  
0073010300999991951031212004+69700+019017FM-12+002499999V0202301N00101220001CN0600001N9-00391-00781100171ADDAY121999GA1031+010809089GF104991031081012501041021MD1110071+9999MW1011
0124010300999991951031215004+69700+019017FM-12+002499999V0209991C00001220001CN0700001N9-00611-01111100191ADDAY111999GA1011+024009039GF101991999001999999041021MD1210021+9999MW1021EQDQ01+000002SCOTLCQ02+000042APCTENQ03+000022APC3  
0122010300999991951031218004+69700+019017FM-12+002499999V0201401N00101220001CN0700001N9-00611-01111100241ADDAA199000691AY101999GA1011+024009039GF101991999001999999041021IA1319KA1999M-00281MD1110051+9999MW1021EQDQ01+000002SCOTLC
0057010300999991951031300004+69700+019017FM-12+002499999V0209991C00001220001CN0700001N9-00781-01111100321ADDAY101999GF100991001001999999001001MD1310051+9999MW1021
0057010300999991951031303004+69700+019017FM-12+002499999V0209991C00001220001CN0700001N9-00891-01281100361ADDAY101999GF100991001001999999001001MD1310041+9999MW1021
0092010300999991951031306004+69700+019017FM-12+002499999V0209991C00001220001CN0700001N9-00891-01281100371ADDAY101999GA1011+012009099GF101991011031012501001001IA1319KA1999N-01001MD1310011+9999MW1021
0057010300999991951031309004+69700+019017FM-12+002499999V0202301N00261220001CN0700001N9-00611-01001100371ADDAY101999GF101991011041017501001001MD1510001+9999MW1021
0057010300999991951031312004+69700+019017FM-12+002499999V0202301N00261220001CN0700001N9-00391-00781100361ADDAY101999GF101991011021017501041001MD1710011+9999MW1021
0057010300999991951031315004+69700+019017FM-12+002499999V0202301N00461220001CN0700001N9-00501-00891100321ADDAY101999GF100991001001999999001001MD1610041+9999MW1011
0127010300999991951031318004+69700+019017FM-12+002499999V0201601N00261220001CN0700001N9-00611-01001100331ADDAY121999GA1031+010509059GF104991031041012501041001IA1319KA1999M-00391MD1210011+9999MW1031EQDQ01+000042APCTENQ02+000012APC3  
0092010300999991951031400004+69700+019017FM-12+002499999V0202501N00261220001CN0600001N9-00781-01001100451ADDAY101999GA1011+024009039GF101991999001999999041001MD1310111+9999MW1021EQDQ01+000002SCOTLC
0092010300999991951031403004+69700+019017FM-12+002499999V0202001N00261220001CN0600001N9-00721-00781100511ADDAY111999GA1021+024009039GF102991999001999999041001MD1310061+9999MW1021EQDQ01+000002SCOTLC
0119010300999991951031406004+69700+019017FM-12+002499999V0202301N00311006901CN0050001N9-00611-00721100621ADDAA199000691AY181999GA1031+010809059GA2051+006909089GF108991081081008001999999IA1319KA1999N-00891MD1310111+9999MW1861
0073010300999991951031409004+69700+019017FM-12+002499999V0209991C00001220001CN0004001N9-00501-00611100741ADDAY181999GA1091+999999999GF109991091081999999999999MD1310121+9999MW1861
0073010300999991951031412004+69700+019017FM-12+002499999V0200401N00671220001CN0400001N9-00391-00501100931ADDAY181999GA1021+004509099GF105991021091004501001021MD1310191+9999MW1151
0073010300999991951031415004+69700+019017FM-12+002499999V0200401N00261220001CN0400001N9-00391-00781101171ADDAY121999GA1011+004509089GF103991011081004501051021MD1210241+9999MW1011
0087010300999991951031418004+69700+019017FM-12+002499999V0202901N00261220001CN0600001N9-00391-01001101391ADDAA199004091AY121999GF103991001001999999041021IA1319KA1999M-00391MD1210221+9999MW1021
0057010300999991951031500004+69700+019017FM-12+002499999V0202501N00261220001CN0700001N9-00781-01281101601ADDAY101999GF100991001001999999001001MD1310121+9999MW1001
0076010300999991951031503004+69700+019017FM-12+002499999V0202301N00261220001CN0700001N9-00891-01221101561ADDAY101999GF101991999001999999041001MD1990041+9999MW1031EQDQ01+000002SCOTLC
0076010300999991951031506004+69700+019017FM-12+002499999V0202601N00101220001CN0700001N9-01001-01281101501ADDAY101999GF101991001001999999041021IA1319KA1999N-01001MD1610061+9999MW1021
0092010300999991951031509004+69700+019017FM-12+002499999V0202301N00361220001CN0700001N9-00721-01111101451ADDAY101999GA1021+024009039GF102991999001999999041001MD1610051+9999MW1011EQDQ01+000002SCOTLC
0092010300999991951031512004+69700+019017FM-12+002499999V0202301N00261220001CN0700001N9-00501-01001101391ADDAY111999GA1031+024009039GF104991999001999999051021MD1810061+9999MW1031EQDQ01+000002SCOTLC
0073010300999991951031515004+69700+019017FM-12+002499999V0202801N00151220001CN0200001N9-00501-01111101301ADDAY111999GA1031+002709099GF105991031091002501041001MD1610091+9999MW1161
0103010300999991951031518004+69700+019017FM-12+002499999V0202101N00101003601CN0070001N9-00611-00891101241ADDAA199000691AY181999GA1051+003609099GF105991051091004501999999IA1319KA1999M-00501MD1810061+9999MW1261
0073010300999991951031600004+69700+019017FM-12+002499999V0202501N00261008401CN0600001N9-00721-00781101201ADDAY121999GA1051+008409099GF106991051091008001061021MD1710041+9999MW1031
0073010300999991951031603004+69700+019017FM-12+002499999V0202301N00261007501CN0160001N9-00611-00721101141ADDAY181999GA1071+007509099GF107991071091008001999999MD1810061+9999MW1851
0103010300999991951031606004+69700+019017FM-12+002499999V0202301N00461006001CN0060001N9-00611-00721101081ADDAA199002091AY181999GA1081+006009099GF108991081091008001999999IA1319KA1999N-00721MD1710061+9999MW1851
0108010300999991951031609004+69700+019017FM-12+002499999V0202301N00101006001CN0030001N9-00501-00611101101ADDAY181999GA1081+006009099GF108991081091008001999999MD1210021+9999MW1851EQDQ01+000042APCTENQ02+000022APC3  
0089010300999991951031612004+69700+019017FM-12+002499999V0202501N00311220001CN0200001N9-00501-00611101121ADDAY181999GA1041+024009039GA2031+006009099GF107991031091008001041001MD1210021+9999MW1261
0089010300999991951031615004+69700+019017FM-12+002499999V0209991C00001220001CN0160001N9-00391-00501101141ADDAY181999GA1021+006009099GA2031+024009039GF105991021091008001041001MD1310021+9999MW1851
0103010300999991951031618004+69700+019017FM-12+002499999V0209991C00001220001CN0400001N9-00721-00781101171ADDAA199002091AY101999GA1021+009009089GF102991021081008001001021IA1319KA1999M-00391MD1310031+9999MW1021
0073010300999991951031700004+69700+019017FM-12+002499999V0202501N00261220001CN0400001N9-00781-00891101251ADDAY121999GA1021+015009089GF103991021081012501001021MD1110031+9999MW1031
0073010300999991951031703004+69700+019017FM-12+002499999V0202401N00261220001CN0600001N9-00781-00891101241ADDAY121999GA1021+012009089GF102991021081012501001001MD1810011+9999MW1011
0092010300999991951031706004+69700+019017FM-12+002499999V0202401N00461220001CN0600001N9-00781-00891101181ADDAY121999GA1021+004809079GF102991021061004501001021IA1319KA1999N-00891MD1710061+9999MW1021
0073010300999991951031709004+69700+019017FM-12+002499999V0202301N00931220001CN0600001N9-00611-00721101111ADDAY121999GA1021+005409089GF105991021081004501071051MD1510071+9999MW1031
0073010300999991951031712004+69700+019017FM-12+002499999V0202301N01231006901CN0600001N9-00501-00781101001ADDAY111999GA1061+006909059GF107991061051008001041021MD1710111+9999MW1151
0073010300999991951031715004+69700+019017FM-12+002499999V0202301N00771007801CN0400001N9-00391-00611100931ADDAY181999GA1071+007809099GF107991071091008001041021MD1710071+9999MW1261
0103010300999991951031718004+69700+019017FM-12+002499999V0202301N00931006001CN0050001N9-00501-00611100861ADDAA199000591AY181999GA1081+006009099GF108991081091008001999999IA1319KA1999M-00391MD1710071+9999MW1851
0119010300999991951031806004+69700+019017FM-12+002499999V0202301N00771220001CN0600001N9-00501-01001100371ADDAA199000691AY121999GA1021+024009039GA2031+012909059GF105991031051012501041021IA1319KA1999N-00611MD1810141+9999MW1011
0089010300999991951031809004+69700+019017FM-12+002499999V0202301N00621220001CN0600001N9-00391-00891100231ADDAY121999GA1021+024009039GA2021+012009089GF105991021081012501041021MD1810141+9999MW1021
0089010300999991951031812004+69700+019017FM-12+002499999V0202301N00821220001CN0600001N9-00221-00721100071ADDAY121999GA1021+024009039GA2021+012009089GF106991021081012501041021MD1810161+9999MW1021
0089010300999991951031815004+69700+019017FM-12+002499999V0202301N00771220001CN0600001N9-00281-00891099921ADDAY121999GA1021+024009039GA2011+012009089GF104991011021012501041021MD1810151+9999MW1011
0108010300999991951031818004+69700+019017FM-12+002499999V0202301N00771220001CN0600001N9-00391-00891099771ADDAY121999GA1011+024009039GA2031+010809059GF106991031081012501041071IA1319KA1999M-00221MD1810151+9999MW1021
0073010300999991951031900004+69700+019017FM-12+002499999V0202001N01541009001CN0400001N9-00281-00781099551ADDAY111999GA1051+009009089GF105991051091008001001001MD1810151+9999MW1031
0073010300999991951031903004+69700+019017FM-12+002499999V0202001N01231009001CN0400001N9-00281-00781099521ADDAY111999GA1051+009009089GF105991051081008001001001MD1810031+9999MW1021
0138010300999991951031906004+69700+019017FM-12+002499999V0202301N00931006001CN0040001N9-00391-00721099561ADDAA199000691AY111999GA1081+006009089GF108991081081008001999999IA1319KA1999N-00391MD1210041+9999MW1861EQDQ01+000042APCTENQ02+000042APC3  
0089010300999991951031909004+69700+019017FM-12+002499999V0202101N00671015001CN0002001N9-00391-00501099711ADDAY181999GA1031+003009079GA2081+015009049GF108991031071004501021999MD1310151+9999MW1731
0073010300999991951031912004+69700+019017FM-12+002499999V0202001N00931220001CN0160001N9-00281-00611099751ADDAY181999GA1041+006009089GF106991041031008001041021MD1110041+9999MW1151
0073010300999991951031915004+69700+019017FM-12+002499999V0202101N00931220001CN0600001N9-00281-00721099801ADDAY121999GA1021+009009089GF106991021081008001041071MD1210051+9999MW1031
0119010300999991951031918004+69700+019017FM-12+002499999V0201801N00931220001CN0600001N9-00391-00721099911ADDAA199001091AY121999GA1021+010509089GA2031+012009059GF104991031081012501041021IA1319KA1999M-00221MD1310111+9999MW1011
0089010300999991951032000004+69700+019017FM-12+002499999V0202301N00771220001CN0600001N9-00501-00891100131ADDAY121999GA1021+024009039GA2021+012009089GF105991021031012501041021MD1310111+9999MW1021
0092010300999991951032003004+69700+019017FM-12+002499999V0202301N00931220001CN0600001N9-00501-00891100311ADDAY121999GA1021+024009039GF102991999001999999041021MD1310181+9999MW1011EQDQ01+000002SCOTLC
0108010300999991951032006004+69700+019017FM-12+002499999V0202301N00511220001CN0600001N9-00611-01111100481ADDAY121999GA1021+027009039GA2011+018009059GF104991011051017501041021IA1319KA1999N-00611MD1310171+9999MW1031
0089010300999991951032009004+69700+019017FM-12+002499999V0202301N00931220001CN0600001N9-00391-00891100651ADDAY111999GA1011+015009089GA2011+027009039GF102991011051017501041021MD1310171+9999MW1011
0057010300999991951032012004+69700+019017FM-12+002499999V0202101N01031220001CN0700001N9-00281-00891100921ADDAY101999GF101991011011017501001021MD1210271+9999MW1021
