0138010300999991954010106004+69700+019017FM-12+002499999V0202301N00931006001CN0160001N9+00111+00001099441ADDAA199008091AY171999GA1081+006009079GF108991999071004501021999IA1209KA1999N-00221MD1810602+9999MW1711EQDQ01+000082SCOTLCQ02+000602APC3  
0073010300999991954010109004+69700+019017FM-12+002499999V0202501N00931006001CN0160001N9+00221+00111099391ADDAY181999GA1081+006009099GF108991081091008001999999MD1510051+9999MW1831
0073010300999991954010112004+69700+019017FM-12+002499999V0202301N01231006001CN0040001N9+00111+00001099361ADDAY181999GA1081+006009099GF108991081091008001999999MD1710031+9999MW1831
0108010300999991954010115004+69700+019017FM-12+002499999V0202301N00931007501CN0080001N9+00221+00111099511ADDAY181999GA1071+007509099GF107991071091008001999999MD1210151+9999MW1811EQDQ01+000042APCTENQ02+000152APC3  
0103010300999991954010118004+69700+019017FM-12+002499999V0202301N00671005101CN0030001N9+00111+00001999999ADDAA199013091AY181999GA1081+005109099GF108991081091004501999999IA1209KA1999M+00281MD1210491+9999MW1851
0073010300999991954010200004+69700+019017FM-12+002499999V0202501N00261004501CN0060001N9+00001-00111099831ADDAY181999GA1081+004509099GF108991081091004501999999MD1710081+9999MW1851
0073010300999991954010203004+69700+019017FM-12+002499999V0202501N00461003001CN0024001N9-00111-00111099811ADDAY181999GA1081+003009099GF108991081091004501999999MD1710021+9999MW1861
0103010300999991954010206004+69700+019017FM-12+002499999V0202501N00101005401CN0100001N9-00111-00501099871ADDAA199011091AY181999GA1081+005409099GF108991081091004501999999IA1319KA1999N-00111MD1210061+9999MW1851
0073010300999991954010209004+69700+019017FM-12+002499999V0202501N00101006901CN0600001N9-00281-00611099841ADDAY181999GA1071+006909099GF107991071091008001001001MD1710031+9999MW1151
0073010300999991954010212004+69700+019017FM-12+002499999V0202301N00101220001CN0600001N9-00391-00781099781ADDAY181999GA1021+007809089GF106991031081008001041001MD1810061+9999MW1021
0108010300999991954010215004+69700+019017FM-12+002499999V0202301N00261006901CN0030001N9-00281-00391099821ADDAY181999GA1071+006909099GF107991071091008001001001MD1210041+9999MW1851EQDQ01+000042APCTENQ02+000042APC3  
0103010300999991954010218004+69700+019017FM-12+002499999V0202501N00261220001CN0600001N9-00501-00611100041ADDAA199000591AY181999GA1031+012009059GF103991031051012501001001IA1319KA1999M-00111MD1310221+9999MW1031
0103010300999991954010306004+69700+019017FM-12+002499999V0200501N01231220001CN0600001N9+00111-00221102081ADDAA199000691AY181999GA1021+012009089GF102991021081012501041001IA1319KA1999N-00611MD1210461+9999MW1181
0073010300999991954010309004+69700+019017FM-12+002499999V0200501N00931009001CN0040001N9-00111-00281102531ADDAY181999GA1061+009009099GF106991061091008001041001MD1310451+9999MW1851
0073010300999991954010312004+69700+019017FM-12+002499999V0200501N00671220001CN0160001N9-00221-00391102711ADDAY181999GA1031+009009099GF104991031091008001061021MD1210181+9999MW1851
0073010300999991954010315004+69700+019017FM-12+002499999V0203601N00101220001CN0600001N9-00391-00611102841ADDAY181999GA1021+012009089GF102991021081012501001021MD1110131+9999MW1011
0103010300999991954010318004+69700+019017FM-12+002499999V0202701N00261220001CN0600001N9-00391-00611102771ADDAA199000691AY181999GA1021+012009089GF102991021081012501001001IA1319KA1999M+00111MD1990071+9999MW1011
0057010300999991954010400004+69700+019017FM-12+002499999V0202301N00931220001CN0600001N9-00281-01001102291ADDAY101999GF108991001001999999001071MD1810351+9999MW1031
0092010300999991954010403004+69700+019017FM-12+002499999V0202101N01441024001CN0400001N9-00221-00501101651ADDAY131999GA1081+024009049GF108991999001022501011999MD1810641+9999MW1361EQDQ01+000002SCOTLC
0103010300999991954010406004+69700+019017FM-12+002499999V0202401N01541018001CN0080001N9-00221-00281100841ADDAA199002091AY171999GA1081+018009049GF108991081001017501021999IA1319KA1999N-00501MD1810811+9999MW1711
0089010300999991954010409004+69700+019017FM-12+002499999V0202301N01541009001CN0050001N9+00221+00111100421ADDAY171999GA1041+006009079GA2081+009009049GF108991041071008001021999MD1810421+9999MW1681
0073010300999991954010412004+69700+019017FM-12+002499999V0202501N00931006901CN0060001N9+00391+00221100081ADDAY171999GA1061+006909099GF106991061091008001001001MD1610341+9999MW1801
0073010300999991954010415004+69700+019017FM-12+002499999V0202501N00671006901CN0160001N9+00501-00111100121ADDAY181999GA1071+006909099GF107991071091008001001001MD1210041+9999MW1801
0103010300999991954010418004+69700+019017FM-12+002499999V0203401N00461009001CN0160001N9+00501-00111100211ADDAA199010091AY181999GA1081+009009099GF108991081091008001999999IA1209KA1999M+00501MD1310091+9999MW1871
0073010300999991954010500004+69700+019017FM-12+002499999V0202301N00461009001CN0200001N9+00391+00111100041ADDAY161999GA1071+009009059GF108991071051008001021999MD1710191+9999MW1601
0073010300999991954010503004+69700+019017FM-12+002499999V0202301N00931007801CN0140001N9+00391+00111099561ADDAY161999GA1071+007809059GF108991071051008001021999MD1810481+9999MW1611
0103010300999991954010506004+69700+019017FM-12+002499999V0202301N00931006001CN0120001N9+00281+00221099181ADDAA199004091AY161999GA1071+006009059GF108991071051008001021999IA1209KA1999N+00221MD1710381+9999MW1611
0073010300999991954010509004+69700+019017FM-12+002499999V0202301N00671007801CN0200001N9+00501+00281099001ADDAY161999GA1071+007809059GF108991071051008001021999MD1710181+9999MW1601
0089010300999991954010512004+69700+019017FM-12+002499999V0202301N00671007501CN0100001N9+00281+00221098861ADDAY161999GA1031+005109079GA2081+007509049GF108991031061004501021999MD1990141+9999MW1631
0073010300999991954010515004+69700+019017FM-12+002499999V0202101N00931006901CN0140001N9+00391+00221098491ADDAY161999GA1061+006909079GF108991061071008001021999MD1810371+9999MW1611
0138010300999991954010518004+69700+019017FM-12+002499999V0202301N00671006001CN0120001N9+00221+00001098521ADDAA199010091AY161999GA1081+006009079GF108991081071008001999999IA1199KA1999M+00501MD1210031+9999MW1611EQDQ01+000042APCTENQ02+000032APC3  
0073010300999991954010600004+69700+019017FM-12+002499999V0202301N99999006901CN0030001N9+00001-00111098411ADDAY171999GA1081+006909079GF108991081071008001999999MD1210321+9999MW1691
0073010300999991954010603004+69700+019017FM-12+002499999V0202301N01541220001CN0600001N9+00001-00611098251ADDAY181999GA1041+007809099GF104991041091008001001001MD1710161+9999MW1011
0138010300999991954010606004+69700+019017FM-12+002499999V0202501N00931006901CN0060001N9-00111-00281098571ADDAA199006091AY181999GA1071+006909099GF107991071091008001001001IA1209KA1999N-00221MD1210321+9999MW1851EQDQ01+000042APCTENQ02+000322APC3  
0073010300999991954010609004+69700+019017FM-12+002499999V0202501N00261006001CN0030001N9-00221-00281098691ADDAY181999GA1081+006009099GF108991081091008001999999MD1210121+9999MW1851
0073010300999991954010612004+69700+019017FM-12+002499999V0202901N00101220001CN0002001N9-00221-00281098771ADDAY181999GA1091+999999999GF109991091999999999999999MD1210081+9999MW1861
0073010300999991954010615004+69700+019017FM-12+002499999V0202501N00101006901CN0600001N9-00281-00391098731ADDAY181999GA1071+006909099GF107991071091008001999999MD1810041+9999MW1021
0103010300999991954010618004+69700+019017FM-12+002499999V0202501N00361006901CN0200001N9-00221-00281098851ADDAA199011091AY181999GA1051+006909089GF105991051081008001001001IA1319KA1999M-00111MD1210121+9999MW1851
0073010300999991954010700004+69700+019017FM-12+002499999V0203401N00261006601CN0040001N9-00281-00721099551ADDAY181999GA1081+006609099GF108991081091008001999999MD1310401+9999MW1861
0073010300999991954010703004+69700+019017FM-12+002499999V0202901N00101005401CN0020001N9-00391-00781099831ADDAY181999GA1081+005409099GF108991081091004501999999MD1210281+9999MW1861
0103010300999991954010706004+69700+019017FM-12+002499999V0202901N00261007201CN0200001N9-00501-00891100101ADDAA199004091AY181999GA1061+007209099GF106991061091008001001001IA1319KA1999N-00611MD1210271+9999MW1261
0073010300999991954010709004+69700+019017FM-12+002499999V0203201N00261006001CN0030001N9-00501-00781100461ADDAY181999GA1081+006009099GF108991081091008001999999MD1310361+9999MW1861
0073010300999991954010712004+69700+019017FM-12+002499999V0203201N00261004801CN0004001N9-00501-00721100611ADDAY181999GA1081+004809099GF108991081091004501999999MD1210151+9999MW1861
0073010300999991954010715004+69700+019017FM-12+002499999V0202301N00461009001CN0600001N9-00501-00721100631ADDAY181999GA1061+009009099GF106991061091008001001001MD1010021+9999MW1011
0103010300999991954010718004+69700+019017FM-12+002499999V0202301N00931220001CN0006001N9-00391-00501100501ADDAA199004091AY181999GA1091+999999999GF109991091999999999999999IA1319KA1999M-00391MD1710131+9999MW1861
0092010300999991954010800004+69700+019017FM-12+002499999V0202001N01541220001CN0004001N9-00281-00391099572ADDAY181999GA1091+999999999GF109991091999999999999999MD1710351+9999MW1371EQDQ01+099573APOSLP
0094010300999991954010803004+69700+019017FM-12+002499999V0200201N00101007501CN0160001N9-00221-00281099661ADDAY181999GA1071+007509099GF107991071091008001999999MW1851EQDQ01+000042APCTENQ02+000092APC3  
0103010300999991954010806004+69700+019017FM-12+002499999V0209991C00001220001CN0600001N9-00281-00391099761ADDAA199009091AY181999GA1011+007509089GF102991021081008001001001IA1319KA1999N-00501MD1110101+9999MW1011
0089010300999991954010809004+69700+019017FM-12+002499999V0202501N00211220001CN0600001N9-00391-00501099751ADDAY181999GA1031+006009089GA2021+009009059GF107991051081008001071001MD1010011+9999MW1261
0089010300999991954010812004+69700+019017FM-12+002499999V0209991C00001024001CN0600001N9-00391-00501099581ADDAY181999GA1011+006009089GA2071+024009049GF107991011081008001071001MD1990171+9999MW1021
0089010300999991954010815004+69700+019017FM-12+002499999V0200701N00461024001CN0600001N9-00221-00501099481ADDAY121999GA1011+009009089GA2081+024009039GF108991011081008001071999MD1610101+9999MW1021
0119010300999991954010818004+69700+019017FM-12+002499999V0200701N00461024001CN0600001N9-00221-00611099371ADDAA199000391AY121999GA1081+024009039GA2021+009009089GF108991021081008001071999IA1319KA1999M-00221MD1810111+9999MW1021
0092010300999991954010900004+69700+019017FM-12+002499999V0203201N00261220001CN0600001N9-00391-00611099551ADDAY181999GA1061+012009099GF199999031091012501061001MD1210091+9999MW1011EQDQ01+000032SCOTCV
0073010300999991954010903004+69700+019017FM-12+002499999V0202701N00261220001CN0008001N9-00391-00501099611ADDAY181999GA1091+999999999GF109991091999999999999999MD1210061+9999MW1861
0103010300999991954010906004+69700+019017FM-12+002499999V0202301N00151220001CN0010001N9-00391-00501099581ADDAA199005091AY181999GA1091+999999999GF109991091999999999999999IA1319KA1999N-00501MD1990031+9999MW1861
0073010300999991954010909004+69700+019017FM-12+002499999V0202301N00461220001CN0600001N9-00391-00611099631ADDAY181999GA1041+009009099GF106991061091008001001001MD1210051+9999MW1021
0073010300999991954010912004+69700+019017FM-12+002499999V0202001N00461220001CN0600001N9-00391-00781099701ADDAY181999GA1041+009009089GF106991061081008001001001MD1310071+9999MW1021
0073010300999991954010915004+69700+019017FM-12+002499999V0201801N00101220001CN0600001N9-00611-00891099751ADDAY101999GA1011+009009089GF101991011081008001001001MD1310051+9999MW1021
0087010300999991954010918004+69700+019017FM-12+002499999V0201101N00261220001CN0600001N9-00501-00891099941ADDAA199000391AY101999GF101991011051012501001001IA1319KA1999M-00281MD1310191+9999MW1021
0087010300999991954011006004+69700+019017FM-12+002499999V0202601N00101220001CN0600001N9-00501-00611100351ADDAA199001091AY181999GF102991021081008001001001IA1319KA1999N-00611MD1310021+9999MW1021
0076010300999991954011009004+69700+019017FM-12+002499999V0202501N00261220001CN0600001N9-00721-00781100351ADDAY101999GF101991011081008001001001MD1410001+9999MW1021EQDQ01+000032APCTEN
0057010300999991954011012004+69700+019017FM-12+002499999V0202701N00261220001CN0600001N9-00721-00781100331ADDAY101999GF102991021081004501001051MD1810021+9999MW1031
0057010300999991954011015004+69700+019017FM-12+002499999V0202301N00671220001CN0600001N9-00611-01221100181ADDAY101999GF102991011081008001001021MD1990151+9999MW1021
0076010300999991954011018004+69700+019017FM-12+002499999V0202501N00771220001CN0600001N9-00501-01281100161ADDAY101999GF103991021051012501001021IA1319KA1999M-00501MD1810021+9999MW1021
0073010300999991954011100004+69700+019017FM-12+002499999V0202301N00671012001CN0600001N9-00501-01221099931ADDAY121999GA1071+012009059GF107991071051012501001001MD1810101+9999MW1021
0073010300999991954011103004+69700+019017FM-12+002499999V0202301N00671009001CN0100001N9-00611-00781099791ADDAY181999GA1081+009009099GF108991081091008001999999MD1710141+9999MW1851
0103010300999991954011106004+69700+019017FM-12+002499999V0202301N00671220001CN0200001N9-00611-00781099621ADDAA199000591AY181999GA1031+009009089GF103991031081008001001001IA1319KA1999N-00721MD1710171+9999MW1261
0089010300999991954011109004+69700+019017FM-12+002499999V0202301N00671021001CN0600001N9-00391-00781099281ADDAY121999GA1071+021009049GA2011+008109059GF107991011081008001021001MD1810341+9999MW1031
0073010300999991954011112004+69700+019017FM-12+002499999V0202301N00931006001CN0012001N9-00391-00611098651ADDAY171999GA1081+006009049GF108991081001008001021999MD1810631+9999MW1731
0108010300999991954011115004+69700+019017FM-12+002499999V0202001N01541220001CN0002001N9-00281-00391999999ADDAY171999GA1091+999999999GF109991091999999999999999MD1810892+9999MW1751EQDQ01+097763APOSLPQ02+000892APC3  
0122010300999991954011118004+69700+019017FM-12+002499999V0203201N00461005101CN0050001N9-00391-00501098371ADDAA199005091AY171999GA1061+005109089GF107991061081004501061001IA1319KA1999M-00111MD1110612+9999MW1851EQDQ01+000612APC3  
0073010300999991954011200004+69700+019017FM-12+002499999V0202501N00261006901CN0160001N9-00501-00611098231ADDAY181999GA1071+006909099GF107991071091008001001001MD1710081+9999MW1871
0092010300999991954011203004+69700+019017FM-12+002499999V0203401N00461220001CN0600001N9-00391-00611098231ADDAY181999GA1041+006909099GF104991041091008001001001MD1410001+9999MW1011EQDQ01+000022APCTEN
0103010300999991954011206004+69700+019017FM-12+002499999V0203401N00261006001CN0020001N9-00391-00501098301ADDAA199008091AY181999GA1081+006009099GF108991081091008001999999IA1319KA1999N-00611MD1310071+9999MW1861
0073010300999991954011209004+69700+019017FM-12+002499999V0202701N00101006001CN0020001N9-00391-00501098381ADDAY181999GA1081+006009099GF108991081091008001999999MD1310081+9999MW1861
0073010300999991954011212004+69700+019017FM-12+002499999V0200201N00261006001CN0030001N9-00391-00501098501ADDAY181999GA1081+006009099GF108991081091008001999999MD1310121+9999MW1861
0073010300999991954011215004+69700+019017FM-12+002499999V0203001N00101006001CN0400001N9-00391-00501098621ADDAY181999GA1071+006009099GF108991071091008001999999MD1310121+9999MW1021
0103010300999991954011218004+69700+019017FM-12+002499999V0202601N00461220001CN0600001N9-00501-00891098701ADDAA199007091AY181999GA1021+007509089GF102991021081008001001001IA1319KA1999M-00391MD1310081+9999MW1011
0073010300999991954011300004+69700+019017FM-12+002499999V0202301N00931006601CN0020001N9-00391-00501098921ADDAY181999GA1051+006609099GF106991051091008001061001MD1210071+9999MW1861
0073010300999991954011303004+69700+019017FM-12+002499999V0202301N00671007501CN0140001N9-00391-00501098951ADDAY181999GA1081+007509099GF108991081091008001999999MD1310031+9999MW1851
0103010300999991954011306004+69700+019017FM-12+002499999V0202301N00671006001CN0030001N9-00281-00391099001ADDAA199006091AY181999GA1081+006009099GF108991081091008001999999IA1319KA1999N-00501MD1210051+9999MW1861
0073010300999991954011309004+69700+019017FM-12+002499999V0202501N00261003601CN0080001N9-00281-00391099041ADDAY181999GA1061+003609099GF106991061091004501001001MD1310041+9999MW1851
0108010300999991954011312004+69700+019017FM-12+002499999V0202301N00101009001CN0080001N9-00281-00391099041ADDAY181999GA1071+009009049GA2021+003909079GF107991021071004501021001MD1410001+9999MW1701EQDQ01+000032APCTEN
0073010300999991954011315004+69700+019017FM-12+002499999V0202501N00261010501CN0160001N9-00281-00391099031ADDAY171999GA1071+010509059GF107991071051012501001001MD1990011+9999MW1701
0122010300999991954011318004+69700+019017FM-12+002499999V0202501N00101027001CN0600001N9-00391-00611098971ADDAA199005091AY171999GA1051+027009049GF107991999001999999011061IA1319KA1999M-00281MD1810061+9999MW1021EQDQ01+000002SCOTLC
0057010300999991954011400004+69700+019017FM-12+002499999V0202001N00101220001CN0600001N9-00501-00891098841ADDAY121999GF103991001001999999041021MD1810091+9999MW1011
0073010300999991954011403004+69700+019017FM-12+002499999V0200201N00261018001CN0600001N9-00281-00781098781ADDAY101999GA1061+018009059GF106991061051012501999999MD1990061+9999MW1031
0111010300999991954011406004+69700+019017FM-12+002499999V0202601N00101220001CN0600001N9-00501-00721098751ADDAY111999GA1021+015009059GF102991021051012501999001IA1319KA1999N-00611MD1810031+9999MW1021EQDQ01    003SCOMCG
0092010300999991954011409004+69700+019017FM-12+002499999V0202501N00101024001CN0600001N9-00391-00721098811ADDAY121999GA1061+024009049GF108991999001999999071999MD1110061+9999MW1021EQDQ01+000002SCOTLC
0092010300999991954011412004+69700+019017FM-12+002499999V0202701N00101220001CN0600001N9-00391-00611098811ADDAY121999GA1041+024009039GF105991011051008001071001MD1410001+9999MW1011EQDQ01+000022APCTEN
0092010300999991954011415004+69700+019017FM-12+002499999V0209991C00001220001CN0600001N9-00611-00781098841ADDAY101999GA1011+024009039GF101991999001999999071001MD1210031+9999MW1011EQDQ01+000002SCOTLC
0111010300999991954011418004+69700+019017FM-12+002499999V0200501N00261220001CN0600001N9-00391-00781098851ADDAY101999GA1011+024009039GF101991999001999999041021IA1319KA1999M-00391MD1210011+9999MW1021EQDQ01+000002SCOTLC
0092010300999991954011500004+69700+019017FM-12+002499999V0200701N00261220001CN0600001N9-00221-00891098681ADDAY101999GA1011+027009039GF106991999001999999041061MD1710101+9999MW1031EQDQ01+000002SCOTLC
0057010300999991954011503004+69700+019017FM-12+002499999V0200701N00671220001CN0600001N9-00111-00611098481ADDAY121999GF107991001001999999001061MD1810201+9999MW1031
0092010300999991954011506004+69700+019017FM-12+002499999V0200501N00461220001CN0600001N9-00221-00891098291ADDAY121999GA1011+012009059GF104991011051012501041051IA1319KA1999N-00501MD1810191+9999MW1011
0089010300999991954011509004+69700+019017FM-12+002499999V0200901N00261024001CN0600001N9-00111-00781098171ADDAY121999GA1061+024009039GA2021+012009059GF107991021051012501071071MD1810121+9999MW1031
0089010300999991954011512004+69700+019017FM-12+002499999V0200701N00931024001CN0600001N9-00111-00611098001ADDAY121999GA1061+024009039GA2031+012009059GF107991031051012501071071MD1810171+9999MW1021
0089010300999991954011515004+69700+019017FM-12+002499999V0200501N00931024001CN0600001N9-00111-00501097821ADDAY121999GA1071+024009049GA2021+012009059GF107991021051012501071999MD1810181+9999MW1021
0119010300999991954011518004+69700+019017FM-12+002499999V0200701N00931018001CN0100001N9-00111-00501097681ADDAA199000691AY121999GA1081+018009049GA2021+012009059GF108991021051012501021999IA1319KA1999M-00111MD1810141+9999MW1701
0073010300999991954011600004+69700+019017FM-12+002499999V0200701N00461024001CN0600001N9-00221-00501097491ADDAY171999GA1071+024009039GF107991011051008001071001MD1810081+9999MW1021
0073010300999991954011603004+69700+019017FM-12+002499999V0200901N00671024001CN0600001N9-00221-00501097471ADDAY121999GA1071+024009039GF107991011051008001071001MD1810021+9999MW1021
0138010300999991954011606004+69700+019017FM-12+002499999V0200801N00461220001CN0600001N9-00281-00721097551ADDAA199000691AY121999GA1041+012009089GF106991061081012501001001IA1319KA1999N-00281MD1210081+9999MW1021EQDQ01+000042APCTENQ02+000082APC3  
0073010300999991954011609004+69700+019017FM-12+002499999V0200701N00461009001CN0600001N9-00221-00501097701ADDAY121999GA1051+009009089GF107991071081008001999999MD1310151+9999MW1151
0073010300999991954011612004+69700+019017FM-12+002499999V0200701N00671220001CN0600001N9-00221-00391097861ADDAY181999GA1021+009009089GF103991021081008001041011MD1310161+9999MW1011
0073010300999991954011615004+69700+019017FM-12+002499999V0200201N00671220001CN0002001N9-00221-00281098121ADDAY181999GA1091+999999999GF109991091999999999999999MD1210261+9999MW1861
0103010300999991954011618004+69700+019017FM-12+002499999V0200701N00261220001CN0600001N9-00111-00281098301ADDAA199002091AY181999GA1031+009009089GF104991041081008001001001IA1319KA1999M-00111MD1310181+9999MW1021
0103010300999991954011706004+69700+019017FM-12+002499999V0200201N00931220001CN0600001N9-00221-00501098921ADDAA199002091AY181999GA1031+012009089GF106991031081012501061021IA1319KA1999N-00501MD1210211+9999MW1021
0073010300999991954011709004+69700+019017FM-12+002499999V0203601N00931006301CN0080001N9-00221-00281099241ADDAY181999GA1081+006309099GF108991081091008001999999MD1310321+9999MW1851
0073010300999991954011712004+69700+019017FM-12+002499999V0200201N00671220001CN0600001N9-00221-00391099541ADDAY181999GA1041+007509099GF105991041091008001061001MD1310301+9999MW1151
0073010300999991954011715004+69700+019017FM-12+002499999V0200201N00671220001CN0600001N9-00281-00781099891ADDAY121999GA1021+009009099GF103991021091008001061001MD1310351+9999MW1151
0103010300999991954011718004+69700+019017FM-12+002499999V0203201N00101220001CN0600001N9-00501-00721100161ADDAA199001091AY181999GA1021+007509099GF103991021091008001061001IA1319KA1999M-00111MD1110271+9999MW1151
0073010300999991954011800004+69700+019017FM-12+002499999V0200201N00671006901CN0050001N9-00281-00501100601ADDAY181999GA1071+006909099GF107991071091008001001001MD1310261+9999MW1851
0073010300999991954011803004+69700+019017FM-12+002499999V0203601N00671220001CN0600001N9-00281-00781100831ADDAY181999GA1011+009009099GF101991011091008001001001MD1310231+9999MW1011
0103010300999991954011806004+69700+019017FM-12+002499999V0202701N00261006901CN0050001N9-00501-00781100951ADDAA199002091AY181999GA1071+006909099GF107991071091008001001001IA1319KA1999N-00611MD1110121+9999MW1851
0073010300999991954011809004+69700+019017FM-12+002499999V0202501N00261006901CN0100001N9-00391-00501101011ADDAY181999GA1081+006909099GF108991081091008001999999MD1210061+9999MW1851
0073010300999991954011812004+69700+019017FM-12+002499999V0202001N00261006901CN0020001N9-00281-00391101051ADDAY181999GA1081+006909099GF108991081091008001999999MD1210041+9999MW1851
0073010300999991954011815004+69700+019017FM-12+002499999V0202301N00311006901CN0400001N9-00281-00501101011ADDAY181999GA1081+006909099GF108991081091008001999999MD1710041+9999MW1151
0103010300999991954011818004+69700+019017FM-12+002499999V0202301N00771006901CN0160001N9-00221-00721100801ADDAA199005091AY181999GA1081+006909099GF108991081091008001999999IA1319KA1999M-00221MD1810211+9999MW1851
0073010300999991954011900004+69700+019017FM-12+002499999V0202301N00671006901CN0008001N9-00281-00391100701ADDAY181999GA1081+006909099GF108991081091008001999999MD1710081+9999MW1861
0073010300999991954011903004+69700+019017FM-12+002499999V0202301N00771007501CN0200001N9-00281-00501100581ADDAY181999GA1071+007509099GF107991071091008001001001MD1810121+9999MW1851
0103010300999991954011906004+69700+019017FM-12+002499999V0202301N01231007501CN0040001N9-00281-00391100341ADDAA199003091AY181999GA1071+007509099GF107991071091008001001001IA1319KA1999N-00501MD1810241+9999MW1851
0073010300999991954011909004+69700+019017FM-12+002499999V0202301N00461007501CN0100001N9-00221-00391100341ADDAY181999GA1071+007509099GF107991071091008001001001MD1410001+9999MW1851
0073010300999991954011912004+69700+019017FM-12+002499999V0202301N00671006001CN0040001N9-00221-00281100361ADDAY181999GA1081+006009099GF108991081091008001999999MD1310021+9999MW1851
0073010300999991954011915004+69700+019017FM-12+002499999V0202301N00671006901CN0600001N9-00281-00891100341ADDAY181999GA1061+006909099GF106991061091008001001001MD1810021+9999MW1021
0103010300999991954011918004+69700+019017FM-12+002499999V0202201N00461220001CN0600001N9-00391-01111100371ADDAA199008091AY181999GA1021+007509089GF103991021081008001041001IA1319KA1999M-00221MD1310031+9999MW1021
0076010300999991954012000004+69700+019017FM-12+002499999V0203401N00261220001CN0600001N9-00501-00781100531ADDAY101999GF101991999001999999041001MD1310061+9999MW1021EQDQ01+000002SCOTLC
0076010300999991954012003004+69700+019017FM-12+002499999V0200501N00261220001CN0600001N9-00391-00721100601ADDAY101999GF101991999001999999041001MD1310071+9999MW1021EQDQ01+000002SCOTLC
0103010300999991954012006004+69700+019017FM-12+002499999V0200701N00461007501CN0400001N9-00391-00611100741ADDAA199000691AY181999GA1051+007509099GF106991061091008001001001IA1319KA1999N-00721MD1310141+9999MW1851
0073010300999991954012009004+69700+019017FM-12+002499999V0200901N00261220001CN0600001N9-00391-00721100991ADDAY181999GA1021+009009099GF102991021091008001001001MD1310251+9999MW1011
0073010300999991954012012004+69700+019017FM-12+002499999V0202701N00261220001CN0600001N9-00721-00781101201ADDAY181999GA1011+006909089GF102991021081008001001001MD1310211+9999MW1011
0073010300999991954012015004+69700+019017FM-12+002499999V0202501N00261220001CN0600001N9-00611-00721101391ADDAY181999GA1011+006909089GF102991021081008001001001MD1310191+9999MW1011
0103010300999991954012018004+69700+019017FM-12+002499999V0202501N00311220001CN0600001N9-00611-00721101511ADDAA199000691AY181999GA1041+007809089GF106991061081008001001001IA1319KA1999M-00391MD1310121+9999MW1031
0094010300999991954012100004+69700+019017FM-12+002499999V0202301N00931220001CN0600001N9-00501-00721101601ADDAY181999GA1031+009009089GF104991031021008001061001MW1011EQDQ01+000022APCTENQ02+000002APC3  
0108010300999991954012103004+69700+019017FM-12+002499999V0202301N00671000601CN0004001N9-00501-00611101691ADDAY181999GA1091+000609999GF109991091999000751999999MD1210091+9999MW1861EQDQ01+000042APCTENQ02+000092APC3  
0103010300999991954012106004+69700+019017FM-12+002499999V0202501N00461006901CN0120001N9-00281-00391101851ADDAA199002091AY181999GA1081+006909099GF108991081091008001999999IA1319KA1999N-00721MD1310161+9999MW1851
0073010300999991954012109004+69700+019017FM-12+002499999V0203201N00151006901CN0120001N9-00221-00391102081ADDAY181999GA1061+006909099GF107991061091008001061001MD1310231+9999MW1151
0073010300999991954012112004+69700+019017FM-12+002499999V0202501N00261007501CN0200001N9-00221-00391102221ADDAY181999GA1061+007509099GF106991061091008001001001MD1210141+9999MW1261
0073010300999991954012115004+69700+019017FM-12+002499999V0202301N00261007501CN0200001N9-00281-00501102421ADDAY181999GA1061+007509099GF106991061091008001001001MD1210201+9999MW1151
0103010300999991954012118004+69700+019017FM-12+002499999V0202301N00261009001CN0200001N9-00221-00501102391ADDAA199002091AY181999GA1051+009009099GF105991051091008001001001IA1319KA1999M-00221MD1990031+9999MW1261
0073010300999991954012200004+69700+019017FM-12+002499999V0202301N00261006901CN0100001N9+00001-00111102461ADDAY181999GA1071+006909099GF107991071091008001001001MD1210051+9999MW1851
0073010300999991954012203004+69700+019017FM-12+002499999V0203001N00261006901CN0030001N9+00111-00221102591ADDAY181999GA1081+006909099GF108991081091008001999999MD1310131+9999MW1881
0103010300999991954012206004+69700+019017FM-12+002499999V0202501N00261006901CN0600001N9+00111+00001102711ADDAA199005091AY181999GA1071+006909099GF107991071091008001001001IA1319KA1999N-00221MD1310121+9999MW1261
0073010300999991954012209004+69700+019017FM-12+002499999V0202301N00101006901CN0400001N9+00221+00001102941ADDAY181999GA1071+006909099GF107991071091008001001001MD1210231+9999MW1851
0073010300999991954012212004+69700+019017FM-12+002499999V0202401N00261006901CN0600001N9+00221-00221103141ADDAY181999GA1061+006909099GF106991061091008001001001MD1310201+9999MW1151
0073010300999991954012215004+69700+019017FM-12+002499999V0202301N00261006901CN0600001N9+00111+00001103331ADDAY181999GA1061+006909099GF107991061091008001061001MD1210191+9999MW1261
0103010300999991954012218004+69700+019017FM-12+002499999V0202301N00461006901CN0600001N9+00221+00001103451ADDAA199001091AY181999GA1051+006909099GF106991051091008001061001IA1319KA1999M+00281MD1210121+9999MW1021
0073010300999991954012300004+69700+019017FM-12+002499999V0202301N00461010501CN0600001N9+00111-00281103591ADDAY181999GA1081+010509059GF108991081051012501999999MD1310031+9999MW1021
0073010300999991954012303004+69700+019017FM-12+002499999V0202001N00671010501CN0600001N9+00111-00501103541ADDAY121999GA1071+010509059GF107991071051012501001001MD1990051+9999MW1021
0103010300999991954012306004+69700+019017FM-12+002499999V0202301N00671220001CN0600001N9+00111-00501103331ADDAA199000691AY121999GA1041+012009059GF106991041051012501041001IA1319KA1999N+00111MD1710211+9999MW1011
0092010300999991954012309004+69700+019017FM-12+002499999V0202301N00671220001CN0600001N9-00111-00721103231ADDAY111999GA1011+027009039GF104991999001999999041021MD1710101+9999MW1021EQDQ01+000002SCOTLC
0092010300999991954012312004+69700+019017FM-12+002499999V0202301N00671220001CN0600001N9-00221-00781103021ADDAY111999GA1041+027009039GF106991999001999999041021MD1810211+9999MW1031EQDQ01+000002SCOTLC
0092010300999991954012315004+69700+019017FM-12+002499999V0202701N00931024001CN0600001N9+00001-00721102681ADDAY121999GA1081+024009049GF108991999001999999011999MD1610341+9999MW1021EQDQ01+000002SCOTLC
0111010300999991954012318004+69700+019017FM-12+002499999V0202301N00671024001CN0600001N9+00111-00781102491ADDAY121999GA1081+024009049GF108991999001999999011999IA1319KA1999M+00111MD1810191+9999MW1021EQDQ01+000002SCOTLC
0119010300999991954012406004+69700+019017FM-12+002499999V0202001N01231024001CN0600001N9+00391+00001102081ADDAA199000691AY161999GA1081+024009049GA2021+012009059GF108991021051012501071999IA1209KA1999N+00111MD1810091+9999MW1021
0089010300999991954012409004+69700+019017FM-12+002499999V0202301N00931006001CN0160001N9+00281+00001102061ADDAY161999GA1031+003909079GA2081+006009049GF108991061071004501021999MD1710021+9999MW1611
0092010300999991954012412004+69700+019017FM-12+002499999V0202301N01231004801CN0050001N9+00281+00221102061ADDAY161999GA1081+004809049GF108991081001004501021999MD1410001+9999MW1631EQDQ01+000022APCTEN
0073010300999991954012415004+69700+019017FM-12+002499999V0202301N01031005401CN0160001N9+00391+00221102071ADDAY161999GA1061+005409079GF108991061071004501021999MD1210011+9999MW1611
0103010300999991954012418004+69700+019017FM-12+002499999V0202301N01031005401CN0160001N9+00391+00221102151ADDAA199002091AY161999GA1061+005409079GF108991061071004501021999IA1209KA1999M+00391MD1310081+9999MW1611
0073010300999991954012500004+69700+019017FM-12+002499999V0202301N00461008401CN0400001N9+00391+00221102451ADDAY161999GA1071+008409059GF108991071051008001021999MD1210121+9999MW1021
0073010300999991954012503004+69700+019017FM-12+002499999V0202301N00461009001CN0600001N9+00391+00111102521ADDAY121999GA1071+009009059GF108991071051008001021999MD1310071+9999MW1021
0103010300999991954012506004+69700+019017FM-12+002499999V0202501N00261220001CN0600001N9+00391+00111102501ADDAA199001091AY121999GA1041+010509059GF107991041051012501041001IA1209KA1999N+00281MD1990021+9999MW1011
0092010300999991954012509004+69700+019017FM-12+002499999V0202701N00261220001CN0600001N9+00281+00111102521ADDAY121999GA1041+024009039GF104991999001999999041001MD1110021+9999MW1011EQDQ01+000002SCOTLC
0092010300999991954012512004+69700+019017FM-12+002499999V0209991C00001220001CN0600001N9+00281+00111102551ADDAY121999GA1041+024009039GF104991999001999999031001MD1310031+9999MW1021EQDQ01+000002SCOTLC
0108010300999991954012515004+69700+019017FM-12+002499999V0209991C00001220001CN0600001N9+00111+00001102551ADDAY111999GA1011+024009039GF101991999001999999041001MD1410001+9999MW1011EQDQ01+000002SCOTLCQ02+000032APCTEN
0111010300999991954012518004+69700+019017FM-12+002499999V0202701N00101220001CN0600001N9+00001-00111102611ADDAY111999GA1011+024009039GF101991999001999999041001IA1209KA1999M+00391MD1310061+9999MW1021EQDQ01+000002SCOTLC
0057010300999991954012600004+69700+019017FM-12+002499999V0202501N00101220001CN0600001N9-00111-00221102681ADDAY101999GF100991001001999999001001MD1310031+9999MW1001
0057010300999991954012603004+69700+019017FM-12+002499999V0202501N00101220001CN0600001N9-00111-00221102781ADDAY101999GF100991001001999999001001MD1310101+9999MW1001
0076010300999991954012606004+69700+019017FM-12+002499999V0202501N00261220001CN0600001N9-00111-00281102871ADDAY101999GF100991001001999999001001IA1209KA1999N-00281MD1310091+9999MW1001
0076010300999991954012609004+69700+019017FM-12+002499999V0202501N00101220001CN0600001N9-00221-00391103061ADDAY101999GF101991999001999999041001MD1310191+9999MW1021EQDQ01+000002SCOTLC
0073010300999991954012612004+69700+019017FM-12+002499999V0202301N00211009001CN0600001N9-00111-00281103181ADDAY111999GA1071+009009059GF107991071051008001001001MD1310121+9999MW1031
0073010300999991954012615004+69700+019017FM-12+002499999V0209991C00001009001CN0600001N9-00111-00281103231ADDAY121999GA1071+009009059GF107991071051008001001001MD1310051+9999MW1021
0092010300999991954012618004+69700+019017FM-12+002499999V0202501N00101007201CN0600001N9-00111-00281103261ADDAY121999GA1081+007209059GF108991081051008001999999IA1209KA1999M-00111MD1310031+9999MW1021
0073010300999991954012700004+69700+019017FM-12+002499999V0202301N00101009001CN0600001N9-00111-00281103251ADDAY121999GA1081+009009059GF108991081051008001999999MD1990021+9999MW1021
0092010300999991954012703004+69700+019017FM-12+002499999V0202301N00101006901CN0160001N9-00111-00221103251ADDAY171999GA1081+006909059GF108991081051008001999999MD1410001+9999MW1701EQDQ01+000032APCTEN
0103010300999991954012706004+69700+019017FM-12+002499999V0202301N00101005401CN0100001N9+00001-00111103231ADDAA199000691AY171999GA1081+005409059GF108991081051004501999999IA1209KA1999N-00111MD1990021+9999MW1701
0124010300999991954012709004+69700+019017FM-12+002499999V0202301N00101003901CN0100001N9+00001-00111103291ADDAY171999GA1051+003909079GA2031+009009059GF108991051061004501999999MD1210061+9999MW1101EQDQ01+000042APCTENQ02+000062APC3  
0108010300999991954012712004+69700+019017FM-12+002499999V0202301N00101024001CN0160001N9+00001-00111103291ADDAY171999GA1031+004809059GA2051+024009039GF108991031051004501071999MD1410001+9999MW1101EQDQ01+000022APCTEN
0073010300999991954012715004+69700+019017FM-12+002499999V0202301N00101005401CN0100001N9+00001-00111103251ADDAY121999GA1071+005409059GF108991071051004501071999MD1710041+9999MW1101
0103010300999991954012718004+69700+019017FM-12+002499999V0209991C00001006001CN0400001N9+00001-00111103241ADDAA199000691AY121999GA1081+006009059GF108991081051008001999999IA1209KA1999M+00001MD1710011+9999MW1021
0073010300999991954012800004+69700+019017FM-12+002499999V0209991C00001006901CN0600001N9+00001-00111103261ADDAY121999GA1081+006909059GF108991081051008001999999MD1210011+9999MW1021
0073010300999991954012803004+69700+019017FM-12+002499999V0209991C00001009001CN0600001N9+00001-00111103251ADDAY121999GA1071+009009059GF107991071051008001001001MD1990011+9999MW1011
0092010300999991954012806004+69700+019017FM-12+002499999V0202501N00101007201CN0600001N9-00111-00221103291ADDAY121999GA1081+007209059GF108991081051008001999999IA1209KA1999N-00111MD1210041+9999MW1021
0089010300999991954012809004+69700+019017FM-12+002499999V0202301N00101009001CN0600001N9+00001-00111103301ADDAY121999GA1081+009009059GA2021+006009079GF108991081051008001999999MD1310011+9999MW1021
0073010300999991954012812004+69700+019017FM-12+002499999V0202501N00261009001CN0600001N9+00001-00111103351ADDAY121999GA1071+009009059GF107991071051008001999999MD1110051+9999MW1021
0092010300999991954012815004+69700+019017FM-12+002499999V0202301N00261012001CN0600001N9+00001-00111103351ADDAY121999GA1081+012009059GF108991081051012501999999MD1410001+9999MW1021EQDQ01+000032APCTEN
0092010300999991954012818004+69700+019017FM-12+002499999V0202301N00101012001CN0600001N9+00001-00221103371ADDAY121999GA1081+012009059GF108991081051012501999999IA1209KA1999M+00001MD1310021+9999MW1021
0073010300999991954012900004+69700+019017FM-12+002499999V0209991C00001220001CN0600001N9-00111-00221103401ADDAY171999GA1031+012009059GF107991031051012501041001MD1210021+9999MW1031
0073010300999991954012903004+69700+019017FM-12+002499999V0202701N00101009001CN0010001N9-00111-00221103361ADDAY171999GA1081+009009059GF108991081051008001999999MD1710041+9999MW1741
0103010300999991954012906004+69700+019017FM-12+002499999V0209991C00001220001CN0600001N9+00001+00001103341ADDAA199002091AY171999GA1041+012009059GF107991041081012501041001IA1319KA1999N-00221MD1710021+9999MW1261
0108010300999991954012909004+69700+019017FM-12+002499999V0200501N00261002701CN0160001N9+00111+00111103381ADDAY181999GA1071+002709099GF107991071091002501001001MD1210041+9999MW1801EQDQ01+000042APCTENQ02+000042APC3  
0073010300999991954012912004+69700+019017FM-12+002499999V0200901N00461220001CN0600001N9+00001-00281103451ADDAY181999GA1011+007809089GF101991011021008001001001MD1310071+9999MW1021
0073010300999991954012915004+69700+019017FM-12+002499999V0203601N00261220001CN0600001N9-00111-00391103491ADDAY101999GA1011+009009059GF101991011041008001001001MD1310041+9999MW1021
0103010300999991954012918004+69700+019017FM-12+002499999V0200201N00101220001CN0600001N9-00281-00501103541ADDAA199001091AY101999GA1011+012009059GF101991011041012501001001IA1209KA1999M+00221MD1310051+9999MW1021
0073010300999991954013000004+69700+019017FM-12+002499999V0202501N00261012001CN0600001N9-00281-00391103621ADDAY121999GA1071+012009059GF107991071051012501001001MD1310031+9999MW1031
0073010300999991954013003004+69700+019017FM-12+002499999V0202501N00261009001CN0600001N9-00281-00391103631ADDAY121999GA1081+009009059GF108991081051008001999999MD1310011+9999MW1021
0103010300999991954013006004+69700+019017FM-12+002499999V0202501N00101009001CN0400001N9-00391-00501103641ADDAA199000691AY181999GA1051+009009089GF106991061081008001001001IA1209KA1999N-00501MD1310011+9999MW1851
0089010300999991954013009004+69700+019017FM-12+002499999V0202301N00261220001CN0600001N9-00281-00391103711ADDAY181999GA1041+006009089GA2011+003909079GF106991061081008001001001MD1110071+9999MW1021
0089010300999991954013012004+69700+019017FM-12+002499999V0202301N00261220001CN0400001N9-00281-00391103761ADDAY181999GA1041+012009059GA2021+003909089GF106991061081004501001001MD1310051+9999MW1851
0089010300999991954013015004+69700+019017FM-12+002499999V0202301N00461220001CN0160001N9-00281-00391103751ADDAY181999GA1031+003909089GA2041+012009059GF107991071081004501001001MD1710011+9999MW1851
0119010300999991954013018004+69700+019017FM-12+002499999V0202301N00261003901CN0100001N9-00221-00281103801ADDAA199000391AY181999GA1051+003909089GA2031+012009059GF108991081081004501999999IA1319KA1999M-00221MD1110051+9999MW1851
0103010300999991954013106004+69700+019017FM-12+002499999V0202301N00261220001CN0120001N9+00111+00001103691ADDAA199003091AY181999GA1041+009009089GF107991041081008001071999IA1319KA1999N-00281MD1710021+9999MW1871
0073010300999991954013109004+69700+019017FM-12+002499999V0202701N00261220001CN0140001N9+00111+00001103721ADDAY181999GA1041+009009089GF108991041081008001071999MD1210031+9999MW1871
0073010300999991954013112004+69700+019017FM-12+002499999V0202501N00261009001CN0140001N9+00111+00001103701ADDAY181999GA1061+009009089GF107991061081008001041001MD1710021+9999MW1871
0073010300999991954013115004+69700+019017FM-12+002499999V0202301N00261009001CN0200001N9+00111-00111103631ADDAY181999GA1071+009009089GF107991071081008001001001MD1710071+9999MW1151
0103010300999991954013118004+69700+019017FM-12+002499999V0202501N00261009001CN0100001N9+00111-00221103541ADDAA199001091AY181999GA1071+009009089GF107991071081008001001001IA1319KA1999M+00111MD1710091+9999MW1851
0057010300999991954020100004+69700+019017FM-12+002499999V0202001N00671220001CN0600001N9+00001-00281103271ADDAY181999GF103991031081008001001001MD1710101+9999MW1021
0073010300999991954020103004+69700+019017FM-12+002499999V0202301N00671007501CN0400001N9+00001-00391103151ADDAY181999GA1051+007509089GF106991061081008001999999MD1710121+9999MW1851
0103010300999991954020106004+69700+019017FM-12+002499999V0202301N00671220001CN0600001N9-00111-00501103081ADDAA199000691AY181999GA1031+007509089GF103991031081008001001001IA1319KA1999N-00111MD1710071+9999MW1021
0089010300999991954020109004+69700+019017FM-12+002499999V0202301N00671220001CN0600001N9-00111-00611103051ADDAY121999GA1041+012009059GA2011+009009089GF105991051081008001001001MD1810031+9999MW1021
0073010300999991954020112004+69700+019017FM-12+002499999V0202301N00931220001CN0600001N9-00221-00721102951ADDAY111999GA1011+009009059GF101991011051008001041021MD1810101+9999MW1021
0073010300999991954020115004+69700+019017FM-12+002499999V0202301N00671220001CN0600001N9-00281-00891102841ADDAY101999GA1011+012009059GF101991011051012501001001MD1810111+9999MW1031
0092010300999991954020118004+69700+019017FM-12+002499999V0202301N00671012001CN0600001N9-00221-00781102761ADDAY111999GA1071+012009059GF107991071051012501001001IA1319KA1999M-00111MD1810081+9999MW1021
0092010300999991954020200004+69700+019017FM-12+002499999V0202301N00671220001CN0600001N9-00221-00721102611ADDAY121999GA1011+027009039GF101991999001999999041001MD1710031+9999MW1011EQDQ01+000002SCOTLC
0073010300999991954020203004+69700+019017FM-12+002499999V0202301N00671220001CN0600001N9-00221-00721102411ADDAY101999GA1011+012009059GF102991011051012501041001MD1990201+9999MW1031
0111010300999991954020206004+69700+019017FM-12+002499999V0202301N00931220001CN0600001N9-00221-00721102251ADDAY101999GA1011+024009039GF101991999001999999041001IA1319KA1999N-00281MD1810161+9999MW1011EQDQ01+000002SCOTLC
0089010300999991954020209004+69700+019017FM-12+002499999V0202301N00931220001CN0600001N9+00001-00721102121ADDAY101999GA1021+024009039GA2021+015009059GF104991021051017501041001MD1710131+9999MW1031
0073010300999991954020212004+69700+019017FM-12+002499999V0202301N00931015001CN0600001N9+00001-00721101901ADDAY111999GA1061+015009059GF106991061051017501041001MD1710211+9999MW1031
0092010300999991954020215004+69700+019017FM-12+002499999V0202301N01031220001CN0600001N9+00111-00501101651ADDAY111999GA1041+015009059GF104991041051017501999001MD1710251+9999MW1031EQDQ01    003SCOMCG
0092010300999991954020218004+69700+019017FM-12+002499999V0202301N00771220001CN0600001N9+00111-00721101321ADDAY121999GA1031+015009059GF103991031051017501041001IA1319KA1999M+00111MD1710331+9999MW1011
0073010300999991954020300004+69700+019017FM-12+002499999V0202301N01231220001CN0600001N9+00221-00501100641ADDAY121999GA1041+014709059GF104991041051012501001001MD1810351+9999MW1021
0073010300999991954020303004+69700+019017FM-12+002499999V0202301N01541014701CN0600001N9+00281-00391100351ADDAY121999GA1071+014709059GF107991071051012501001001MD1810291+9999MW1031
0103010300999991954020306004+69700+019017FM-12+002499999V0202301N01231004201CN0030001N9+00111+00001100281ADDAA199002091AY171999GA1081+004209049GF108991081001004501021999IA1209KA1999N+00001MD1510071+9999MW1711
0073010300999991954020309004+69700+019017FM-12+002499999V0202301N00671006001CN0040001N9+00111+00001100371ADDAY181999GA1081+006009099GF108991081091008001999999MD1210091+9999MW1851
0073010300999991954020312004+69700+019017FM-12+002499999V0202301N00671006001CN0020001N9+00001-00111100401ADDAY181999GA1081+006009099GF108991081091008001999999MD1210031+9999MW1881
0073010300999991954020315004+69700+019017FM-12+002499999V0202901N00211006901CN0200001N9+00001-00111100641ADDAY181999GA1071+006909099GF107991071091008001999999MD1310241+9999MW1851
0103010300999991954020318004+69700+019017FM-12+002499999V0202101N00461006901CN0160001N9-00221-00281100791ADDAA199008091AY181999GA1071+006909099GF107991071091008001999999IA1319KA1999M+00111MD1210151+9999MW1851
0073010300999991954020400004+69700+019017FM-12+002499999V0202901N00461007501CN0120001N9-00281-00501101141ADDAY181999GA1071+007509099GF107991071091008001001001MD1210161+9999MW1851
0073010300999991954020403004+69700+019017FM-12+002499999V0202901N00461007501CN0120001N9-00391-00501101371ADDAY181999GA1071+007509099GF107991071091008001001001MD1210231+9999MW1851
0103010300999991954020406004+69700+019017FM-12+002499999V0202501N00411220001CN0600001N9-00391-00891101501ADDAA199002091AY181999GA1031+012009089GF105991031081012501041001IA1319KA1999N-00501MD1110131+9999MW1011
0073010300999991954020409004+69700+019017FM-12+002499999V0202301N00511000601CN0004001N9-00391-00501101641ADDAY181999GA1091+000609999GF109991091999000751999999MD1310141+9999MW1861
0073010300999991954020412004+69700+019017FM-12+002499999V0202301N00671220001CN0600001N9-00281-00721101641ADDAY181999GA1031+007809089GF104991031081008001061021MD1010001+9999MW1261
0089010300999991954020415004+69700+019017FM-12+002499999V0202301N00671024001CN0600001N9-00281-00891101441ADDAY111999GA1081+024009049GA2011+012009059GF108991011051012501021999MD1990201+9999MW1021
0119010300999991954020418004+69700+019017FM-12+002499999V0202301N00821024001CN0600001N9-00221-00721100961ADDAA199003091AY121999GA1081+024009049GA2011+012009059GF108991011051012501021999IA1319KA1999M-00221MD1810481+9999MW1021
0073010300999991954020500004+69700+019017FM-12+002499999V0202101N00461007501CN0150001N9+00221+00001100621ADDAY181999GA1061+007509089GF106991061081008001001001MD1210021+9999MW1831
0073010300999991954020503004+69700+019017FM-12+002499999V0202301N00461220001CN0600001N9+00281+00111100631ADDAY181999GA1021+007509089GF103991031081008001001001MD1210011+9999MW1021
0103010300999991954020506004+69700+019017FM-12+002499999V0202301N00931220001CN0600001N9+00221-00111100581ADDAA199003091AY181999GA1021+007509089GF104991041081008001001001IA1209KA1999N-00221MD1710051+9999MW1021
0073010300999991954020509004+69700+019017FM-12+002499999V0202301N00931006001CN0040001N9+00111+00001100501ADDAY181999GA1081+006009099GF108991081091008001999999MD1710081+9999MW1831
0073010300999991954020512004+69700+019017FM-12+002499999V0202301N00931006001CN0040001N9+00111+00001100391ADDAY181999GA1081+006009099GF108991081091008001999999MD1710111+9999MW1831
0073010300999991954020515004+69700+019017FM-12+002499999V0202301N00671006001CN0010001N9+00001-00111100411ADDAY181999GA1081+006009099GF108991081091008001999999MD1210021+9999MW1881
0103010300999991954020518004+69700+019017FM-12+002499999V0202301N01231006901CN0600001N9+00111+00001100311ADDAA199009091AY181999GA1071+006909099GF107991071091008001001001IA1209KA1999M+00221MD1710101+9999MW1271
0073010300999991954020600004+69700+019017FM-12+002499999V0202301N99999005401CN0040001N9+00111+00001099711ADDAY181999GA1081+005409099GF108991081091004501999999MD1610271+9999MW1831
0073010300999991954020603004+69700+019017FM-12+002499999V0202301N00671004501CN0028001N9+00111+00001099621ADDAY181999GA1081+004509099GF108991081091004501999999MD1710091+9999MW1841
0103010300999991954020606004+69700+019017FM-12+002499999V0202301N00671005401CN0030001N9+00001-00111099581ADDAA199013091AY181999GA1081+005409099GF108991081091004501999999IA1209KA1999N+00001MD1710041+9999MW1861
0073010300999991954020609004+69700+019017FM-12+002499999V0202301N00671006001CN0010001N9-00221-00281099721ADDAY181999GA1081+006009099GF108991081091008001999999MD1210141+9999MW1861
0073010300999991954020612004+69700+019017FM-12+002499999V0202301N00931008401CN0400001N9-00111-00501099831ADDAY181999GA1061+008409099GF106991061091008001061001MD1210111+9999MW1151
0108010300999991954020615004+69700+019017FM-12+002499999V0202301N00931007501CN0100001N9-00221-00281100051ADDAY181999GA1071+007509099GF107991071091008001001001MD1210221+9999MW1851EQDQ01+000042APCTENQ02+000222APC3  
0103010300999991954020618004+69700+019017FM-12+002499999V0202301N00671009001CN0400001N9-00221-00501099861ADDAA199004091AY181999GA1061+009009089GF107991061081008001071001IA1319KA1999M+00001MD1990191+9999MW1021
0103010300999991954020706004+69700+019017FM-12+002499999V0202501N00151007501CN0150001N9-00221-00281099821ADDAA199005091AY171999GA1081+007509059GF108991081051008001999999IA1319KA1999N-00281MD1310021+9999MW1711
0073010300999991954020709004+69700+019017FM-12+002499999V0202301N00101004501CN0100001N9-00221-00281099861ADDAY171999GA1071+004509079GF108991071061004501021999MD1310041+9999MW1711
0073010300999991954020712004+69700+019017FM-12+002499999V0200301N00261220001CN0600001N9-00111-00221099791ADDAY171999GA1041+007509059GF107991061051008001041999MD1710071+9999MW1151
0073010300999991954020715004+69700+019017FM-12+002499999V0200701N00461009001CN0600001N9+00001-00111099761ADDAY121999GA1081+009009059GF108991081051008001999999MD1810031+9999MW1021
0138010300999991954020718004+69700+019017FM-12+002499999V0200601N00671009001CN0160001N9-00111-00221099891ADDAA199001091AY181999GA1061+009009089GF108991081081008001999999IA1319KA1999M+00001MD1210131+9999MW1851EQDQ01+000042APCTENQ02+000132APC3  
0073010300999991954020800004+69700+019017FM-12+002499999V0200501N00671009001CN0600001N9+00111-00221100051ADDAY181999GA1071+009009059GF108991071051008001999999MD1110051+9999MW1021
0073010300999991954020803004+69700+019017FM-12+002499999V0202701N00101009001CN0600001N9+00111-00281100111ADDAY121999GA1081+009009059GF108991081051008001999999MD1110061+9999MW1021
0103010300999991954020806004+69700+019017FM-12+002499999V0203601N00261010501CN0600001N9+00111-00501100151ADDAA199000691AY121999GA1071+010509059GF108991071051012501071999IA1319KA1999N-00111MD1310041+9999MW1021
0089010300999991954020809004+69700+019017FM-12+002499999V0202301N00511030001CN0600001N9-00111-00611100431ADDAY121999GA1071+030009049GA2011+015009059GF107991011051017501071001MD1310281+9999MW1021
0092010300999991954020812004+69700+019017FM-12+002499999V0202301N00461030001CN0600001N9-00111-00611100491ADDAY121999GA1071+030009049GF107991999001999999071001MD1010061+9999MW1021EQDQ01+000002SCOTLC
0092010300999991954020815004+69700+019017FM-12+002499999V0202301N00461220001CN0600001N9-00281-00781100501ADDAY121999GA1031+030009039GF103991999001999999041011MD1310011+9999MW1011EQDQ01+000002SCOTLC
0092010300999991954020818004+69700+019017FM-12+002499999V0202301N00261220001CN0600001N9-00281-00891100591ADDAY101999GA1031+060009029GF103991001001999999041011IA1319KA1999M+00111MD1310091+9999MW1031
0057010300999991954020900004+69700+019017FM-12+002499999V0202301N00671220001CN0600001N9-00281-00891100741ADDAY101999GF102991001001999999001021MD1310081+9999MW1021
0057010300999991954020903004+69700+019017FM-12+002499999V0202301N00261220001CN0600001N9-00391-00891100811ADDAY101999GF102991001001999999041021MD1310071+9999MW1021
0076010300999991954020906004+69700+019017FM-12+002499999V0202501N00461220001CN0600001N9-00391-00891100901ADDAY101999GF102991001001999999001021IA1319KA1999N-00501MD1310091+9999MW1021
0073010300999991954020909004+69700+019017FM-12+002499999V0202501N00261220001CN0600001N9-00611-00891100951ADDAY101999GA1041+048009009GF104991001001999999001021MD1310051+9999MW1031
0073010300999991954020912004+69700+019017FM-12+002499999V0209991C00001220001CN0600001N9-00501-00891100991ADDAY101999GA1031+048009009GF104991001001999999001021MD1310041+9999MW1021
0092010300999991954020915004+69700+019017FM-12+002499999V0202501N00101220001CN0600001N9-00611-00891100981ADDAY121999GA1021+039009039GF105991999001999999041021MD1510011+9999MW1021EQDQ01+000002SCOTLC
0076010300999991954020918004+69700+019017FM-12+002499999V0202401N00101220001CN0600001N9-00611-00891101061ADDAY101999GF101991001001999999001021IA1319KA1999M-00391MD1310081+9999MW1011
0057010300999991954021000004+69700+019017FM-12+002499999V0209991C00001220001CN0600001N9-00721-01221101201ADDAY101999GF100991001001999999001001MD1310031+9999MW1021
0057010300999991954021003004+69700+019017FM-12+002499999V0202301N00671220001CN0600001N9-00391-01111101161ADDAY101999GF100991001001999999001001MD1710041+9999MW1021
0127010300999991954021006004+69700+019017FM-12+002499999V0202301N00771220001CN0600001N9-00221-01001101331ADDAY101999GF101991999001999999041001IA1319KA1999N-00721MD1210171+9999MW1181EQDQ01+000002SCOTLCQ02+000042APCTENQ03+000172APC3  
0092010300999991954021009004+69700+019017FM-12+002499999V0202501N00461220001CN0600001N9-00221-00891101451ADDAY101999GA1011+027009039GF101991999001999999041001MD1210121+9999MW1021EQDQ01+000002SCOTLC
0092010300999991954021012004+69700+019017FM-12+002499999V0202501N00671220001CN0600001N9-00111-00891101471ADDAY101999GA1011+027009039GF102991999001999999041021MD1110021+9999MW1031EQDQ01+000002SCOTLC
0057010300999991954021015004+69700+019017FM-12+002499999V0202501N00461220001CN0600001N9-00221-01001101511ADDAY101999GF101991001001999999001021MD1310041+9999MW1021
0076010300999991954021018004+69700+019017FM-12+002499999V0202301N00671220001CN0600001N9-00281-01001101601ADDAY101999GF100991001001999999001001IA1319KA1999M-00111MD1310091+9999MW1001
0057010300999991954021100004+69700+019017FM-12+002499999V0202301N00671220001CN0600001N9-00281-01001101711ADDAY101999GF100991001001999999001001MD1310091+9999MW1001
0057010300999991954021103004+69700+019017FM-12+002499999V0202501N00771220001CN0600001N9-00281-01001101781ADDAY101999GF102991021051012501001001MD1010071+9999MW1031
0076010300999991954021106004+69700+019017FM-12+002499999V0202501N00461220001CN0600001N9-00281-00891101841ADDAY101999GF101991011051012501001001IA1319KA1999N-00391MD1310061+9999MW1021
0057010300999991954021109004+69700+019017FM-12+002499999V0202501N00461220001CN0600001N9-00281-00891101921ADDAY101999GF101991001001999999001021MD1310081+9999MW1021
0057010300999991954021112004+69700+019017FM-12+002499999V0202301N00461220001CN0600001N9-00391-00891101971ADDAY101999GF101991011051012501041021MD1110051+9999MW1021
0057010300999991954021115004+69700+019017FM-12+002499999V0202501N00261220001CN0600001N9-00501-01001101981ADDAY101999GF101991001001999999001051MD1210011+9999MW1021
0076010300999991954021118004+69700+019017FM-12+002499999V0202301N00461220001CN0600001N9-00501-00891101971ADDAY101999GF102991001001999999001021IA1319KA1999M-00281MD1710011+9999MW1021
0057010300999991954021200004+69700+019017FM-12+002499999V0202301N00261220001CN0600001N9-00611-00891101961ADDAY101999GF101991001001999999001021MD1310011+9999MW1011
0076010300999991954021203004+69700+019017FM-12+002499999V0202501N00461220001CN0600001N9-00721-00891101961ADDAY101999GF101991001001999999001021MD1410001+9999MW1021EQDQ01+000032APCTEN
0127010300999991954021206004+69700+019017FM-12+002499999V0202301N00461027001CN0600001N9-00721-00891101961ADDAY111999GA1061+027009049GF107991999001999999011051IA1319KA1999N-00781MD1410001+9999MW1031EQDQ01+000002SCOTLCQ02+000032APCTEN
0092010300999991954021209004+69700+019017FM-12+002499999V0202301N00361024001CN0600001N9-00611-00891102001ADDAY121999GA1051+024009039GF106991999001999999071021MD1110041+9999MW1021EQDQ01+000002SCOTLC
0073010300999991954021212004+69700+019017FM-12+002499999V0202301N00461220001CN0600001N9-00611-01001101981ADDAY111999GA1011+010509059GF106991011051012501041021MD1710021+9999MW1031
0108010300999991954021215004+69700+019017FM-12+002499999V0202301N00461220001CN0600001N9-00611-01001101981ADDAY121999GA1021+030009039GF105991999001999999041021MD1410001+9999MW1021EQDQ01+000002SCOTLCQ02+000072APCTEN
0111010300999991954021218004+69700+019017FM-12+002499999V0202301N00461027001CN0600001N9-00611-01001101971ADDAY121999GA1051+027009039GF106991999001999999071021IA1319KA1999M-00611MD1710011+9999MW1031EQDQ01+000002SCOTLC
0094010300999991954021300004+69700+019017FM-12+002499999V0202301N00261027001CN0600001N9-00501-00891101951ADDAY121999GA1051+027009049GF107991021051012501071001MW1021EQDQ01+000032APCTENQ02+000002APC3  
0073010300999991954021303004+69700+019017FM-12+002499999V0202301N00671024001CN0600001N9-00501-00611101901ADDAY171999GA1051+024009049GF107991021051008001071001MD1990051+9999MW1021
0122010300999991954021306004+69700+019017FM-12+002499999V0202301N00671006901CN0040001N9-00501-00611101761ADDAA199000691AY171999GA1081+006909049GF108991999001008001021999IA1319KA1999N-00611MD1990141+9999MW1721EQDQ01+000002SCOTLC
0124010300999991954021309004+69700+019017FM-12+002499999V0202301N00671006001CN0012001N9-00501-00611101801ADDAY171999GA1081+006009049GF108991999001008001021999MD1210041+9999MW1731EQDQ01+000002SCOTLCQ02+000042APCTENQ03+000042APC3  
0073010300999991954021312004+69700+019017FM-12+002499999V0202401N00461220001CN0010001N9-00391-00501101741ADDAY181999GA1091+999999999GF109991091999999999999999MD1710061+9999MW1861
0073010300999991954021315004+69700+019017FM-12+002499999V0202401N00461007501CN0150001N9-00391-00501101701ADDAY181999GA1081+007509099GF108991081091008001999999MD1810041+9999MW1851
0103010300999991954021318004+69700+019017FM-12+002499999V0202501N00461009001CN0600001N9-00281-00391101691ADDAA199007091AY181999GA1081+009009099GF108991081051008001999999IA1319KA1999M-00281MD1810011+9999MW1021
0103010300999991954021406004+69700+019017FM-12+002499999V0202501N00261004801CN0160001N9-00221-00281101771ADDAA199000591AY181999GA1071+004809089GF107991071081004501001001IA1319KA1999N-00391MD1310041+9999MW1261
0108010300999991954021409004+69700+019017FM-12+002499999V0202901N00261003301CN0200001N9-00221-00281101921ADDAY121999GA1071+003309059GF107991071051004501001001MD1210151+9999MW1051EQDQ01+000042APCTENQ02+000152APC3  
0073010300999991954021412004+69700+019017FM-12+002499999V0209991C00001220001CN0200001N9-00221-00281102021ADDAY121999GA1041+005409059GF106991041051004501041001MD1310101+9999MW1051
0073010300999991954021415004+69700+019017FM-12+002499999V0202301N00101220001CN0200001N9-00281-00391102161ADDAY111999GA1041+003909059GF107991041051004501041001MD1310141+9999MW1031
0092010300999991954021418004+69700+019017FM-12+002499999V0202301N00261220001CN0600001N9-00221-00281102171ADDAY121999GA1031+006609059GF105991031051008001041001IA1319KA1999M-00221MD1110011+9999MW1011
0073010300999991954021500004+69700+019017FM-12+002499999V0202301N00671006901CN0600001N9+00001-00111102171ADDAY181999GA1061+006909089GF107991071081008001001001MD1110031+9999MW1261
0073010300999991954021503004+69700+019017FM-12+002499999V0202301N00671006901CN0160001N9+00001-00111102201ADDAY181999GA1061+006909089GF107991071081008001001001MD1210031+9999MW1851
0103010300999991954021506004+69700+019017FM-12+002499999V0202301N00461220001CN0200001N9+00001-00221102241ADDAA199000391AY181999GA1041+006909089GF106991061081008001001001IA1319KA1999N-00281MD1210041+9999MW1851
0089010300999991954021509004+69700+019017FM-12+002499999V0202301N00461220001CN0600001N9+00001-00221102351ADDAY181999GA1041+006909089GA2031+009009059GF107991071081008001001001MD1310111+9999MW1021
0073010300999991954021512004+69700+019017FM-12+002499999V0202501N00461220001CN0600001N9+00111-00111102401ADDAY181999GA1031+006909089GF104991041081008001041001MD1310051+9999MW1021
0073010300999991954021515004+69700+019017FM-12+002499999V0202301N00461220001CN0600001N9-00111-00281102441ADDAY111999GA1011+007509089GF101991011081008001041001MD1310041+9999MW1011
0103010300999991954021518004+69700+019017FM-12+002499999V0202501N00261009001CN0600001N9-00111-00281102521ADDAA199000691AY121999GA1051+009009059GF106991051051008001041999IA1319KA1999M+00111MD1310081+9999MW1021
0110010300999991954021600004+69700+019017FM-12+002499999V0202701N00101018001CN0600001N9-00221-00281102711ADDAY121999GA1071+018009059GF107991071051017501999001MW1021EQDQ01+000042APCTENQ02+000112APC3  Q03    003SCOMCG
0092010300999991954021603004+69700+019017FM-12+002499999V0209991C00001018001CN0600001N9-00221-00281102781ADDAY121999GA1061+018009059GF106991061051017501999001MD1310061+9999MW1011EQDQ01    003SCOMCG
0076010300999991954021606004+69700+019017FM-12+002499999V0209991C00001220001CN0600001N9-00281-00391102871ADDAY111999GF101991011051017501001001IA1319KA1999N-00281MD1310091+9999MW1011
0057010300999991954021609004+69700+019017FM-12+002499999V0202701N00101220001CN0600001N9-00501-00611102951ADDAY101999GF101991001001999999001011MD1310081+9999MW1021
0092010300999991954021612004+69700+019017FM-12+002499999V0209991C00001220001CN0600001N9-00281-00391103041ADDAY101999GA1011+027009039GF102991999001999999041011MD1110091+9999MW1031EQDQ01+000002SCOTLC
0076010300999991954021615004+69700+019017FM-12+002499999V0209991C00001220001CN0600001N9-00391-00501103041ADDAY101999GF100991001001999999001001MD1410001+9999MW1001EQDQ01+000032APCTEN
0076010300999991954021618004+69700+019017FM-12+002499999V0209991C00001220001CN0600001N9-00391-00501103081ADDAY101999GF100991001001999999001001IA1319KA1999M-00221MD1310041+9999MW1001
0057010300999991954021700004+69700+019017FM-12+002499999V0202701N00101220001CN0600001N9-00501-00781103051ADDAY101999GF100991001001999999001001MD1310031+9999MW1001
0057010300999991954021703004+69700+019017FM-12+002499999V0202301N00261220001CN0600001N9-00501-00891102981ADDAY101999GF100991001001999999001001MD1990071+9999MW1001
0076010300999991954021706004+69700+019017FM-12+002499999V0202401N00101220001CN0600001N9-00501-01001102871ADDAY101999GF100991001001999999001001IA1009KA1999N-00611MD1810111+9999MW1001
0057010300999991954021709004+69700+019017FM-12+002499999V0202501N00101220001CN0600001N9-00501-01111102801ADDAY101999GF100991001001999999001001MD1810071+9999MW1001
0057010300999991954021712004+69700+019017FM-12+002499999V0209991C00001220001CN0600001N9-00281-01001102691ADDAY101999GF100991001001999999001001MD1810111+9999MW1001
0057010300999991954021715004+69700+019017FM-12+002499999V0209991C00001220001CN0600001N9-00281-01111102541ADDAY101999GF100991001001999999001001MD1810151+9999MW1001
0076010300999991954021718004+69700+019017FM-12+002499999V0202501N00261220001CN0600001N9-00391-01221102431ADDAY101999GF100991001001999999001001IA1319KA1999M-00221MD1810111+9999MW1001
0057010300999991954021800004+69700+019017FM-12+002499999V0202301N00671220001CN0600001N9-00501-01281102341ADDAY101999GF100991001001999999001001MD1610041+9999MW1001
0057010300999991954021803004+69700+019017FM-12+002499999V0202301N00671220001CN0600001N9-00611-01281102371ADDAY101999GF100991001001999999001001MD1110031+9999MW1001
0111010300999991954021806004+69700+019017FM-12+002499999V0202301N00461220001CN0600001N9-00721-01281102431ADDAY101999GF100991001001999999001001IA1319KA1999N-00781MD1210061+9999MW1001EQDQ01+000042APCTENQ02+000062APC3  
0057010300999991954021809004+69700+019017FM-12+002499999V0202301N00261220001CN0600001N9-00721-01221102631ADDAY101999GF100991001001999999001001MD1310201+9999MW1001
0057010300999991954021812004+69700+019017FM-12+002499999V0202301N00261220001CN0600001N9-00611-01221102701ADDAY101999GF100991001001999999001001MD1110071+9999MW1001
0057010300999991954021815004+69700+019017FM-12+002499999V0202301N00261220001CN0600001N9-00781-01281102711ADDAY101999GF100991001001999999001001MD1310011+9999MW1001
0076010300999991954021818004+69700+019017FM-12+002499999V0202501N00151220001CN0600001N9-01001-01221102731ADDAY101999GF101991001001999999001011IA1319KA1999M-00611MD1210021+9999MW1031
0078010300999991954021900004+69700+019017FM-12+002499999V0202501N00261220001CN0600001N9-00891-01001102711ADDAY101999GF101991001001999999001011MW1031EQDQ01+000032APCTENQ02+000002APC3  
0057010300999991954021903004+69700+019017FM-12+002499999V0202501N00101220001CN0600001N9-00891-01001102631ADDAY101999GF101991001001999999001011MD1990081+9999MW1021
0076010300999991954021906004+69700+019017FM-12+002499999V0202501N00101220001CN0600001N9-00891-01001102581ADDAY101999GF101991001001999999001011IA1319KA1999N-01001MD1610051+9999MW1021
0057010300999991954021909004+69700+019017FM-12+002499999V0202301N00261220001CN0600001N9-01001-01111102551ADDAY101999GF101991001001999999001011MD1810031+9999MW1021
0057010300999991954021912004+69700+019017FM-12+002499999V0202501N00261220001CN0600001N9-00611-00891102491ADDAY101999GF100991001001999999001001MD1810051+9999MW1001
0057010300999991954021915004+69700+019017FM-12+002499999V0202301N00151220001CN0600001N9-00781-01221102441ADDAY101999GF100991001001999999001001MD1810051+9999MW1001
0076010300999991954021918004+69700+019017FM-12+002499999V0202301N00101220001CN0600001N9-00891-01221102361ADDAY101999GF100991001001999999001001IA1319KA1999M-00611MD1810081+9999MW1001
0076010300999991954022000004+69700+019017FM-12+002499999V0202501N00261220001CN0600001N9-00781-01001102291ADDAY101999GF101991999001999999041001MD1990041+9999MW1031EQDQ01+000002SCOTLC
0076010300999991954022003004+69700+019017FM-12+002499999V0202501N00261220001CN0600001N9-00721-00891102231ADDAY101999GF101991999001999999041001MD1810061+9999MW1021EQDQ01+000002SCOTLC
0095010300999991954022006004+69700+019017FM-12+002499999V0202501N00261220001CN0600001N9-00781-01001102201ADDAY101999GF101991999001999999041001IA1319KA1999N-01001MD1710031+9999MW1021EQDQ01+000002SCOTLC
0092010300999991954022009004+69700+019017FM-12+002499999V0202501N00261220001CN0600001N9-00781-01001102171ADDAY101999GA1011+027009039GF101991999001999999041001MD1710031+9999MW1021EQDQ01+000002SCOTLC
0092010300999991954022012004+69700+019017FM-12+002499999V0202501N00261024001CN0600001N9-00501-00891102151ADDAY101999GA1051+024009039GF105991999001999999051001MD1610021+9999MW1031EQDQ01+000002SCOTLC
0073010300999991954022015004+69700+019017FM-12+002499999V0202501N00261220001CN0600001N9-00611-01111102141ADDAY111999GA1041+015009059GF105991041051017501041001MD1610011+9999MW1021
0092010300999991954022018004+69700+019017FM-12+002499999V0202501N00261013501CN0600001N9-00611-00891102121ADDAY121999GA1071+013509059GF107991071051012501001001IA1319KA1999M-00501MD1510021+9999MW1021
0076010300999991954022106004+69700+019017FM-12+002499999V0202501N00461220001CN0600001N9-00391-01001102341ADDAY111999GF100991001001999999001001IA1319KA1999N-00721MD1310091+9999MW1021
0092010300999991954022109004+69700+019017FM-12+002499999V0202301N00461220001CN0600001N9-00721-00891102441ADDAY101999GA1011+027009039GF101991999001999999051001MD1310101+9999MW1031EQDQ01+000002SCOTLC
0073010300999991954022112004+69700+019017FM-12+002499999V0202301N00261009001CN0600001N9-00391-00721102551ADDAY121999GA1071+009009059GF107991071051008001001001MD1310111+9999MW1031
0073010300999991954022115004+69700+019017FM-12+002499999V0202301N00461009001CN0600001N9-00281-00611102631ADDAY121999GA1051+009009059GF107991051051008001041001MD1310081+9999MW1021
0103010300999991954022118004+69700+019017FM-12+002499999V0202301N00261009001CN0160001N9-00281-00611102671ADDAA199000691AY171999GA1081+009009059GF108991081051008001999999IA1319KA1999M-00281MD1310041+9999MW1701
0094010300999991954022200004+69700+019017FM-12+002499999V0202301N00151010501CN0600001N9-00221-00281102671ADDAY171999GA1061+010509059GF106991061051012501001001MW1021EQDQ01+000032APCTENQ02+000002APC3  
0057010300999991954022203004+69700+019017FM-12+002499999V0209991C00001220001CN0600001N9-00391-00501102511ADDAY121999GF102991011051012501001011MD1990161+9999MW1011
0087010300999991954022206004+69700+019017FM-12+002499999V0201601N00151220001CN0600001N9-00391-00501102301ADDAA199000391AY101999GF101991001001999999001011IA1319KA1999N-00501MD1810211+9999MW1021
0057010300999991954022209004+69700+019017FM-12+002499999V0202701N00101220001CN0600001N9-00221-00721102141ADDAY101999GF100991001001999999001001MD1810161+9999MW1001
0092010300999991954022212004+69700+019017FM-12+002499999V0202501N00931220001CN0600001N9-00111-00891101961ADDAY101999GA1011+027009039GF101991999001999999041001MD1610181+9999MW1031EQDQ01+000002SCOTLC
0092010300999991954022215004+69700+019017FM-12+002499999V0202301N00931220001CN0600001N9-00221-01001101931ADDAY101999GA1011+027009039GF102991999001999999041021MD1710031+9999MW1031EQDQ01+000002SCOTLC
0111010300999991954022218004+69700+019017FM-12+002499999V0202301N00671220001CN0600001N9-00111-00891101961ADDAY111999GA1041+027009039GF105991999001999999041021IA1319KA1999M+00001MD1110031+9999MW1031EQDQ01+000002SCOTLC
0073010300999991954022300004+69700+019017FM-12+002499999V0202301N00671009001CN0600001N9-00111-01001101991ADDAY121999GA1051+009009059GF105991051051008001001001MD1310011+9999MW1021
0073010300999991954022303004+69700+019017FM-12+002499999V0202301N00671007501CN0600001N9-00221-01111102011ADDAY121999GA1071+007509059GF107991071051008001999999MD1210021+9999MW1021
0092010300999991954022306004+69700+019017FM-12+002499999V0202501N00461220001CN0600001N9-00281-01111101901ADDAY121999GA1041+009009059GF106991041051008001041021IA1319KA1999N-00391MD1710111+9999MW1021
0073010300999991954022309004+69700+019017FM-12+002499999V0202301N00671220001CN0600001N9-00281-01001101761ADDAY121999GA1031+024009039GF106991011051012501071071MD1810141+9999MW1021
0092010300999991954022312004+69700+019017FM-12+002499999V0201801N00101024001CN0600001N9-00281-01001101541ADDAY121999GA1051+024009039GF105991999001999999071001MD1990221+9999MW1021EQDQ01+000002SCOTLC
0092010300999991954022315004+69700+019017FM-12+002499999V0202301N00671220001CN0600001N9-00281-00891101281ADDAY111999GA1011+030009039GF102991999001999999041021MD1810261+9999MW1031EQDQ01+000002SCOTLC
0111010300999991954022318004+69700+019017FM-12+002499999V0203201N00101220001CN0600001N9-00281-00781101071ADDAY111999GA1021+030009039GF102991999001999999041001IA1319KA1999M-00221MD1810211+9999MW1011EQDQ01+000002SCOTLC
0092010300999991954022400004+69700+019017FM-12+002499999V0202301N00771024001CN0600001N9-00111-00721100831ADDAY101999GA1061+024009039GF106991999001999999051001MD1990181+9999MW1031EQDQ01+000002SCOTLC
0092010300999991954022403004+69700+019017FM-12+002499999V0202101N00671024001CN0600001N9+00111-00501100731ADDAY121999GA1071+024009049GF107991999001999999011001MD1810101+9999MW1031EQDQ01+000002SCOTLC
0111010300999991954022406004+69700+019017FM-12+002499999V0202101N00461024001CN0600001N9+00111-00391100671ADDAY121999GA1061+024009039GF107991999001999999071021IA1319KA1999N-00281MD1710061+9999MW1021EQDQ01+000002SCOTLC
0124010300999991954022409004+69700+019017FM-12+002499999V0202101N00771024001CN0600001N9+00221-00501100731ADDAY121999GA1061+024009039GA2011+015009059GF107991011051017501071021MD1210061+9999MW1021EQDQ01+000042APCTENQ02+000062APC3  
0108010300999991954022412004+69700+019017FM-12+002499999V0202301N00771024001CN0600001N9+00281-00391100731ADDAY121999GA1061+024009039GA2011+018009059GF107991011051017501071021MD1410001+9999MW1021EQDQ01+000022APCTEN
0089010300999991954022415004+69700+019017FM-12+002499999V0202501N00771027001CN0600001N9+00281-00391100701ADDAY121999GA1071+027009049GA2011+018009059GF107991011051017501071001MD1710031+9999MW1021
0108010300999991954022418004+69700+019017FM-12+002499999V0202301N00671027001CN0600001N9+00221-00501100711ADDAY121999GA1081+027009049GA2011+018009059GF108991021051017501071999IA1319KA1999M+00281MD1210011+9999MW1021
0073010300999991954022500004+69700+019017FM-12+002499999V0202301N00671220001CN0600001N9-00111-00721100791ADDAY121999GA1021+012009059GF107991021051012501071001MD1310051+9999MW1011
0073010300999991954022503004+69700+019017FM-12+002499999V0202301N00461220001CN0600001N9-00221-00891100881ADDAY121999GA1021+012009059GF102991021051012501001001MD1310091+9999MW1011
0111010300999991954022506004+69700+019017FM-12+002499999V0202301N00671220001CN0600001N9-00221-00891100861ADDAY101999GA1011+030009039GF102991999001999999041021IA1319KA1999N-00221MD1990021+9999MW1021EQDQ01+000002SCOTLC
0092010300999991954022509004+69700+019017FM-12+002499999V0202301N00671220001CN0600001N9-00221-00891100911ADDAY101999GA1021+030009039GF104991999001999999041021MD1310051+9999MW1021EQDQ01+000002SCOTLC
0092010300999991954022512004+69700+019017FM-12+002499999V0202201N00671220001CN0600001N9+00001-00721100961ADDAY121999GA1011+027009039GF101991999001999999041021MD1110051+9999MW1011EQDQ01+000002SCOTLC
0092010300999991954022515004+69700+019017FM-12+002499999V0202101N00671220001CN0600001N9-00221-00891101061ADDAY101999GA1011+027009039GF101991999001999999041021MD1310101+9999MW1021EQDQ01+000002SCOTLC
0076010300999991954022518004+69700+019017FM-12+002499999V0202301N00461220001CN0600001N9-00281-01001101071ADDAY101999GF100991001001999999001001IA1319KA1999M+00001MD1310011+9999MW1001
0057010300999991954022600004+69700+019017FM-12+002499999V0202301N00461220001CN0600001N9-00501-01111101141ADDAY101999GF101991001001999999041011MD1310021+9999MW1021
0057010300999991954022603004+69700+019017FM-12+002499999V0202301N00671220001CN0600001N9-00721-01281101151ADDAY101999GF101991001001999999041011MD1310011+9999MW1021
0111010300999991954022606004+69700+019017FM-12+002499999V0202301N00771220001CN0600001N9-00721-01281101181ADDAY101999GA1021+030009039GF103991999001999999041011IA1319KA1999N-00721MD1310031+9999MW1031EQDQ01+000002SCOTLC
0092010300999991954022609004+69700+019017FM-12+002499999V0202301N00671220001CN0600001N9-00611-01281101221ADDAY101999GA1011+027009039GF102991999001999999041011MD1310041+9999MW1021EQDQ01+000002SCOTLC
0092010300999991954022612004+69700+019017FM-12+002499999V0202301N00671220001CN0600001N9-00611-01281101251ADDAY101999GA1011+027009039GF101991999001999999041011MD1110031+9999MW1021EQDQ01+000002SCOTLC
0124010300999991954022615004+69700+019017FM-12+002499999V0202301N00671220001CN0600001N9-00721-01281101261ADDAY101999GA1011+027009039GF101991999001999999041001MD1210011+9999MW1021EQDQ01+000002SCOTLCQ02+000042APCTENQ03+000012APC3  
0111010300999991954022618004+69700+019017FM-12+002499999V0202301N00671220001CN0600001N9-00781-01391101291ADDAY101999GA1011+027009039GF101991999001999999041001IA1319KA1999M-00611MD1310031+9999MW1021EQDQ01+000002SCOTLC
0057010300999991954022700004+69700+019017FM-12+002499999V0202301N00671220001CN0600001N9-00891-01501101321ADDAY101999GF100991001001999999001001MD1310031+9999MW1001
0057010300999991954022703004+69700+019017FM-12+002499999V0202301N00461220001CN0600001N9-01001-01611101301ADDAY101999GF100991001001999999001001MD1810021+9999MW1001
0095010300999991954022706004+69700+019017FM-12+002499999V0202501N00461220001CN0600001N9-01001-01501101301ADDAY101999GF100991001001999999001001IA1319KA1999N-01111MD1410001+9999MW1001EQDQ01+000032APCTEN
0057010300999991954022709004+69700+019017FM-12+002499999V0209991C00001220001CN0600001N9-00781-01391101251ADDAY101999GF100991001001999999001001MD1990051+9999MW1001
0057010300999991954022712004+69700+019017FM-12+002499999V0209991C00001220001CN0600001N9-00611-01391101101ADDAY101999GF100991001001999999001001MD1810151+9999MW1001
0076010300999991954022715004+69700+019017FM-12+002499999V0202301N00261220001CN0600001N9-00721-01281101021ADDAY101999GF101991999001999999041001MD1610081+9999MW1031EQDQ01+000002SCOTLC
0095010300999991954022718004+69700+019017FM-12+002499999V0202301N00261220001CN0600001N9-00781-01281100931ADDAY101999GF101991999001999999041001IA1319KA1999M-00501MD1990091+9999MW1021EQDQ01+000002SCOTLC
0111010300999991954022806004+69700+019017FM-12+002499999V0209991C00001027001CN0600001N9-00781-01281100771ADDAY101999GA1051+027009039GF105991999001999999041001IA1319KA1999N-00891MD1810031+9999MW1021EQDQ01+000002SCOTLC
0092010300999991954022809004+69700+019017FM-12+002499999V0209991C00001220001CN0600001N9-00611-01221100751ADDAY101999GA1021+030009039GF105991999001999999041071MD1810021+9999MW1021EQDQ01+000002SCOTLC
0108010300999991954022812004+69700+019017FM-12+002499999V0209991C00001220001CN0600001N9-00501-01111100751ADDAY101999GA1011+030009039GF105991999001999999041011MD1410001+9999MW1021EQDQ01+000002SCOTLCQ02+000082APCTEN
0092010300999991954022815004+69700+019017FM-12+002499999V0209991C00001220001CN0600001N9-00611-01221100701ADDAY111999GA1031+030009039GF106991999001999999041021MD1810051+9999MW1031EQDQ01+000002SCOTLC
0076010300999991954022818004+69700+019017FM-12+002499999V0209991C00001220001CN0600001N9-00721-01221100641ADDAY121999GF101991001001999999041011IA1319KA1999M-00391MD1810061+9999MW1011
0076010300999991954030100004+69700+019017FM-12+002499999V0200501N00461220001CN0600001N9-00721-01221100571ADDAY101999GF101991999001999999041001MD1810031+9999MW1021EQDQ01+000002SCOTLC
0076010300999991954030103004+69700+019017FM-12+002499999V0202701N00101220001CN0600001N9-00611-01111100551ADDAY101999GF101991999001999999041001MD1810021+9999MW1021EQDQ01+000002SCOTLC
0076010300999991954030106004+69700+019017FM-12+002499999V0202501N00261220001CN0600001N9-00721-01221100521ADDAY101999GF102991001001999999001021IA1319KA1999N-00781MD1810031+9999MW1021
0092010300999991954030109004+69700+019017FM-12+002499999V0202301N00261220001CN0600001N9-00611-01221100561ADDAY101999GA1011+027009039GF103991999001999999041021MD1110041+9999MW1021EQDQ01+000002SCOTLC
0092010300999991954030112004+69700+019017FM-12+002499999V0202501N00461220001CN0600001N9-00611-01221100511ADDAY101999GA1011+027009039GF103991999001999999041021MD1710051+9999MW1021EQDQ01+000002SCOTLC
0092010300999991954030115004+69700+019017FM-12+002499999V0202301N00261220001CN0160001N9-00611-01221100441ADDAY111999GA1021+030009039GF107991999001999999041071MD1810071+9999MW1051EQDQ01+000002SCOTLC
0076010300999991954030118004+69700+019017FM-12+002499999V0202301N00671220001CN0600001N9-00891-01391100471ADDAY121999GF102991001001999999001021IA1319KA1999M-00501MD1210031+9999MW1011
0057010300999991954030200004+69700+019017FM-12+002499999V0202501N00671220001CN0600001N9-01001-01501100461ADDAY111999GF108991001001999999041071MD1990031+9999MW1031
0057010300999991954030203004+69700+019017FM-12+002499999V0202301N00671220001CN0600001N9-00891-01391100401ADDAY121999GF108991001001999999071999MD1810061+9999MW1021
0076010300999991954030206004+69700+019017FM-12+002499999V0202301N00671220001CN0200001N9-01001-01391100351ADDAY121999GF101991001001999999001021IA1319KA1999N-01001MD1810051+9999MW1011
0092010300999991954030209004+69700+019017FM-12+002499999V0202301N00461220001CN0200001N9-00891-01281100391ADDAY101999GF101991001001999999001021MD1210041+9999MW1051EQDQ01+000042APCTENQ02+000042APC3  
0057010300999991954030212004+69700+019017FM-12+002499999V0202301N00261220001CN0400001N9-00721-01221100351ADDAY101999GF101991001001999999001021MD1710041+9999MW1051
0057010300999991954030215004+69700+019017FM-12+002499999V0202301N00101220001CN0400001N9-00721-01221100281ADDAY101999GF101991001001999999001021MD1810071+9999MW1051
0076010300999991954030218004+69700+019017FM-12+002499999V0209991C00001220001CN0400001N9-00781-01221100261ADDAY101999GF101991001001999999001021IA1319KA1999M-00721MD1810021+9999MW1051
0057010300999991954030300004+69700+019017FM-12+002499999V0209991C00001220001CN0600001N9-00781-01001100111ADDAY101999GF102991001001999999001021MD1810091+9999MW1021
0057010300999991954030303004+69700+019017FM-12+002499999V0209991C00001220001CN0200001N9-00611-00781099991ADDAY101999GF103991011051012501001021MD1810121+9999MW1051
0111010300999991954030306004+69700+019017FM-12+002499999V0209991C00001024001CN0160001N9-00611-00891099941ADDAY121999GA1071+024009049GF107991999001999999071001IA1319KA1999N-00891MD1810051+9999MW1051EQDQ01+000002SCOTLC
0092010300999991954030309004+69700+019017FM-12+002499999V0202301N00101024001CN0120001N9-00391-00781099921ADDAY121999GA1071+024009049GF107991999001999999071999MD1810021+9999MW1051EQDQ01+000002SCOTLC
0092010300999991954030312004+69700+019017FM-12+002499999V0202501N00261024001CN0160001N9-00281-00781099891ADDAY121999GA1051+024009049GF107991999001999999011071MD1810031+9999MW1051EQDQ01+000002SCOTLC
0092010300999991954030315004+69700+019017FM-12+002499999V0202301N00101220001CN0400001N9-00501-01111099851ADDAY121999GA1031+024009049GF106991999001999999071061MD1810041+9999MW1021EQDQ01+000002SCOTLC
0111010300999991954030318004+69700+019017FM-12+002499999V0202501N00101220001CN0400001N9-00501-01001099791ADDAY121999GA1031+024009049GF105991999001999999071011IA1319KA1999M-00391MD1810061+9999MW1021EQDQ01+000002SCOTLC
0057010300999991954030400004+69700+019017FM-12+002499999V0209991C00001220001CN0600001N9-00721-01111099781ADDAY101999GF101991001001999999001011MD1990041+9999MW1021
0057010300999991954030403004+69700+019017FM-12+002499999V0209991C00001220001CN0600001N9-00721-01111099731ADDAY101999GF101991001001999999041011MD1810051+9999MW1021
0111010300999991954030406004+69700+019017FM-12+002499999V0209991C00001027001CN0600001N9-00721-01111099721ADDAY101999GA1061+027009039GF106991999001999999071001IA1319KA1999N-00781MD1610011+9999MW1031EQDQ01+000002SCOTLC
0092010300999991954030409004+69700+019017FM-12+002499999V0209991C00001220001CN0200001N9-00611-01001099751ADDAY121999GA1021+027009039GF103991999001999999041021MD1310031+9999MW1011EQDQ01+000002SCOTLC
0092010300999991954030412004+69700+019017FM-12+002499999V0209991C00001220001CN0200001N9-00281-00891099801ADDAY111999GA1011+027009039GF102991999001999999041021MD1110051+9999MW1011EQDQ01+000002SCOTLC
0092010300999991954030415004+69700+019017FM-12+002499999V0209991C00001024001CN0200001N9-00391-00891099831ADDAY111999GA1051+024009039GF105991999001999999041021MD1310031+9999MW1021EQDQ01+000002SCOTLC
0103010300999991954030418004+69700+019017FM-12+002499999V0202301N00261220001CN0160001N9-00391-00781099881ADDAA199000691AY171999GA1041+012009059GF107991041051012501071001IA1319KA1999M-00281MD1310051+9999MW1031
0073010300999991954030500004+69700+019017FM-12+002499999V0202701N00261009001CN0600001N9-00391-00781099991ADDAY121999GA1051+009009059GF106991051051008001041999MD1310071+9999MW1021
0057010300999991954030503004+69700+019017FM-12+002499999V0202301N00101220001CN0600001N9-00611-00891099981ADDAY121999GF100991001001999999001001MD1810011+9999MW1011
0076010300999991954030506004+69700+019017FM-12+002499999V0202501N00461220001CN0600001N9-00611-01001100031ADDAY101999GF101991001001999999041021IA1319KA1999N-00721MD1310051+9999MW1021
0057010300999991954030509004+69700+019017FM-12+002499999V0202301N00461220001CN0600001N9-00391-00891100101ADDAY101999GF101991001001999999041021MD1310071+9999MW1021
0057010300999991954030512004+69700+019017FM-12+002499999V0202301N00671220001CN0600001N9-00391-01001100171ADDAY101999GF101991001001999999001011MD1310071+9999MW1011
0076010300999991954030515004+69700+019017FM-12+002499999V0202301N00461220001CN0600001N9-00501-01221100171ADDAY101999GF102991001001999999001021MD1410001+9999MW1031EQDQ01+000022APCTEN
0076010300999991954030518004+69700+019017FM-12+002499999V0202501N00261220001CN0600001N9-00611-01111100131ADDAY101999GF102991001001999999001021IA1319KA1999M-00391MD1810041+9999MW1021
0092010300999991954030600004+69700+019017FM-12+002499999V0209991C00001024001CN0600001N9-00501-00891099931ADDAY101999GA1081+024009049GF108991999001999999011999MD1990081+9999MW1031EQDQ01+000002SCOTLC
0092010300999991954030603004+69700+019017FM-12+002499999V0209991C00001024001CN0600001N9-00391-00891099851ADDAY121999GA1081+024009049GF108991999001999999021999MD1810081+9999MW1021EQDQ01+000002SCOTLC
0111010300999991954030606004+69700+019017FM-12+002499999V0203601N00101220001CN0600001N9-00281-00781099721ADDAY121999GA1041+024009039GF104991999001999999041001IA1319KA1999N-00721MD1710131+9999MW1011EQDQ01+000002SCOTLC
0124010300999991954030609004+69700+019017FM-12+002499999V0209991C00001220001CN0600001N9-00111-00611099751ADDAY101999GA1011+024009039GF101991999001999999041011MD1210031+9999MW1021EQDQ01+000002SCOTLCQ02+000042APCTENQ03+000032APC3  
0073010300999991954030612004+69700+019017FM-12+002499999V0203401N00151220001CN0600001N9+00001-00501099801ADDAY111999GA1011+018009059GF106991011051017501051061MD1310051+9999MW1031
0108010300999991954030615004+69700+019017FM-12+002499999V0209991C00001048001CN0600001N9-00111-00611099751ADDAY121999GA1071+048009029GA2021+027009049GF107991999001999999071071MD1990031+9999MW1031EQDQ01+000002SCOTLC
0111010300999991954030618004+69700+019017FM-12+002499999V0209991C00001027001CN0600001N9-00221-00611099621ADDAY121999GA1051+027009049GF107991999001999999071071IA1319KA1999M+00111MD1610131+9999MW1021EQDQ01+000002SCOTLC
0076010300999991954030706004+69700+019017FM-12+002499999V0202501N00461220001CN0600001N9-00111-00281099701ADDAY101999GF102991011051012501001021IA1319KA1999N-00281MD1310271+9999MW1021
0073010300999991954030709004+69700+019017FM-12+002499999V0202301N00461010501CN0600001N9+00001-00281099981ADDAY121999GA1081+010509059GF108991081051012501999999MD1310281+9999MW1031
0073010300999991954030712004+69700+019017FM-12+002499999V0202401N00261220001CN0600001N9+00221-00281100191ADDAY121999GA1011+012009059GF101991011051012501041001MD1310211+9999MW1011
0057010300999991954030715004+69700+019017FM-12+002499999V0209991C00001220001CN0600001N9+00001-00391100281ADDAY101999GF100991001001999999001001MD1310091+9999MW1001
0076010300999991954030718004+69700+019017FM-12+002499999V0209991C00001220001CN0600001N9-00221-00391100271ADDAY101999GF100991001001999999001001IA1319KA1999M+00221MD1810011+9999MW1001
0057010300999991954030800004+69700+019017FM-12+002499999V0209991C00001220001CN0600001N9-00281-00611100311ADDAY101999GF100991001001999999001001MD1110041+9999MW1001
0057010300999991954030803004+69700+019017FM-12+002499999V0203601N00261220001CN0600001N9-00281-00721100271ADDAY101999GF100991001001999999001001MD1990041+9999MW1001
0111010300999991954030806004+69700+019017FM-12+002499999V0209991C00001220001CN0600001N9-00281-00781100211ADDAY101999GA1011+027009039GF101991999001999999041051IA1319KA1999N-00391MD1710061+9999MW1031EQDQ01+000002SCOTLC
0092010300999991954030809004+69700+019017FM-12+002499999V0203601N00101220001CN0600001N9-00111-00611100141ADDAY111999GA1021+030009039GF105991999001999999041021MD1810071+9999MW1011EQDQ01+000002SCOTLC
0089010300999991954030812004+69700+019017FM-12+002499999V0203601N00151027001CN0600001N9+00111-00501999999ADDAY121999GA1071+027009039GA2011+018009059GF108991011051017501071021MD1710141+9999MW1031
0089010300999991954030815004+69700+019017FM-12+002499999V0202301N00261027001CN0600001N9+00391-00281099831ADDAY121999GA1071+027009039GA2011+018009059GF107991011051017501071021MD1710171+9999MW1181
0092010300999991954030818004+69700+019017FM-12+002499999V0202901N00671220001CN0600001N9+00281-00391099791ADDAY121999GA1021+018009089GF103991021081017501001021IA1319KA1999M+00501MD1710041+9999MW1011
0092010300999991954030900004+69700+019017FM-12+002499999V0202701N00261220001CN0600001N9+00111-00501099661ADDAY101999GA1021+024009039GF102991999001999999041001MD1810051+9999MW1021EQDQ01+000002SCOTLC
0073010300999991954030903004+69700+019017FM-12+002499999V0202501N00261220001CN0600001N9+00221-00391099601ADDAY101999GA1031+013809059GF103991031051012501001001MD1810061+9999MW1021
0092010300999991954030906004+69700+019017FM-12+002499999V0202301N00261014701CN0600001N9+00221-00391099531ADDAY121999GA1061+014709059GF106991061051012501001001IA1319KA1999N+00111MD1810071+9999MW1021
0073010300999991954030909004+69700+019017FM-12+002499999V0202301N00461012001CN0600001N9+00391-00221099491ADDAY121999GA1061+012009059GF107991071051012501041999MD1810041+9999MW1031
0108010300999991954030912004+69700+019017FM-12+002499999V0202301N01231012001CN0400001N9+00391-00221099581ADDAY181999GA1051+012009099GF107991071091012501999999MD1210091+9999MW1801EQDQ01+000042APCTENQ02+000092APC3  
0073010300999991954030915004+69700+019017FM-12+002499999V0202301N01231009001CN0160001N9+00391+00111099751ADDAY181999GA1081+009009099GF108991081091008001999999MD1210171+9999MW1811
0103010300999991954030918004+69700+019017FM-12+002499999V0202301N00931009001CN0600001N9+00391+00001099891ADDAA199001091AY181999GA1081+009009099GF108991081091008001999999IA1209KA1999M+00501MD1210141+9999MW1021
0073010300999991954031000004+69700+019017FM-12+002499999V0202301N01031009001CN0600001N9+00281-00221100091ADDAY181999GA1071+009009089GF107991071081008001001001MD1210101+9999MW1021
0092010300999991954031003004+69700+019017FM-12+002499999V0202301N01231220001CN0600001N9+00281-00221100091ADDAY121999GA1011+012009089GF101991011081012501001011MD1410001+9999MW1011EQDQ01+000022APCTEN
0103010300999991954031006004+69700+019017FM-12+002499999V0202301N01231009001CN0600001N9+00391-00111100111ADDAA199000691AY121999GA1061+009009089GF107991061081008001041001IA1319KA1999N+00221MD1210021+9999MW1181
0073010300999991954031009004+69700+019017FM-12+002499999V0202301N01231007501CN0200001N9+00221+00111100311ADDAY181999GA1071+007509099GF107991071091008001001001MD1210201+9999MW1801
0073010300999991954031012004+69700+019017FM-12+002499999V0202301N00931006301CN0160001N9+00281+00221100501ADDAY181999GA1081+006309099GF108991081091008001999999MD1310191+9999MW1801
0073010300999991954031015004+69700+019017FM-12+002499999V0202301N00931009001CN0600001N9+00281+00001100441ADDAY181999GA1071+009009089GF107991071081008001001001MD1710061+9999MW1021
0103010300999991954031018004+69700+019017FM-12+002499999V0202301N00931007801CN0160001N9+00281+00111100321ADDAA199000591AY181999GA1081+007809099GF108991081091008001999999IA1209KA1999M+00391MD1810121+9999MW1831
0073010300999991954031100004+69700+019017FM-12+002499999V0202301N00261006001CN0040001N9+00001-00111100411ADDAY181999GA1081+006009099GF108991081091008001999999MD1310021+9999MW1851
0073010300999991954031103004+69700+019017FM-12+002499999V0202301N00671006001CN0020001N9-00111-00221100471ADDAY181999GA1081+006009099GF108991081091008001999999MD1310061+9999MW1861
0103010300999991954031106004+69700+019017FM-12+002499999V0203201N00461006901CN0160001N9-00221-00501100681ADDAA199012091AY181999GA1071+006909099GF107991071091008001999999IA1209KA1999N-00221MD1210211+9999MW1851
0073010300999991954031109004+69700+019017FM-12+002499999V0202501N00261006901CN0100001N9-00281-00501100991ADDAY181999GA1071+006909099GF107991071091008001001001MD1210311+9999MW1861
0073010300999991954031112004+69700+019017FM-12+002499999V0202301N00671006901CN0160001N9-00281-00391101151ADDAY181999GA1071+006909099GF107991071091008001001001MD1210161+9999MW1871
0073010300999991954031115004+69700+019017FM-12+002499999V0202501N00461006901CN0010001N9-00281-00391101241ADDAY181999GA1081+006909099GF108991081091008001999999MD1210091+9999MW1861
0103010300999991954031118004+69700+019017FM-12+002499999V0202501N00261006901CN0020001N9-00391-00501101341ADDAA199006091AY181999GA1081+006909099GF108991081091008001999999IA1319KA1999M-00221MD1210101+9999MW1881
0073010300999991954031200004+69700+019017FM-12+002499999V0209991C00001004501CN0018001N9-00501-00611101521ADDAY181999GA1081+004509099GF108991081091004501999999MD1210091+9999MW1861
0073010300999991954031203004+69700+019017FM-12+002499999V0202301N00101006901CN0160001N9-00501-00611101551ADDAY181999GA1071+006909099GF107991071091008001001001MD1210031+9999MW1851
0103010300999991954031206004+69700+019017FM-12+002499999V0209991C00001007501CN0060001N9-00501-00721101681ADDAA199003091AY181999GA1061+007509099GF106991061091008001001001IA1319KA1999N-00611MD1210131+9999MW1851
0073010300999991954031209004+69700+019017FM-12+002499999V0202301N00261007501CN0080001N9-00501-00721101901ADDAY181999GA1061+007509099GF107991061091008001061001MD1210221+9999MW1261
0073010300999991954031212004+69700+019017FM-12+002499999V0202301N00261007501CN0160001N9-00391-00611102091ADDAY181999GA1061+007509099GF107991061091008001061001MD1210191+9999MW1261
0073010300999991954031215004+69700+019017FM-12+002499999V0202701N00151007501CN0080001N9-00501-00781102311ADDAY181999GA1061+007509099GF107991061091008001061001MD1210221+9999MW1851
0103010300999991954031218004+69700+019017FM-12+002499999V0202301N00151006001CN0120001N9-00501-00781102501ADDAA199003091AY181999GA1071+006009099GF107991071091008001001001IA1319KA1999M-00391MD1210191+9999MW1151
0073010300999991954031300004+69700+019017FM-12+002499999V0209991C00001006001CN0004001N9-00501-00611102731ADDAY181999GA1081+006009099GF108991081091008001999999MD1310101+9999MW1861
0073010300999991954031303004+69700+019017FM-12+002499999V0202301N00261006001CN0030001N9-00391-00611102721ADDAY181999GA1081+006009099GF108991081091008001999999MD1990011+9999MW1851
0103010300999991954031306004+69700+019017FM-12+002499999V0202701N00261006901CN0160001N9-00391-00501102681ADDAA199003091AY181999GA1071+006909099GF107991071091008001001001IA1319KA1999N-00611MD1710041+9999MW1851
0073010300999991954031309004+69700+019017FM-12+002499999V0202301N00261008101CN0160001N9-00281-00391102591ADDAY181999GA1081+008109099GF108991081091008001999999MD1710091+9999MW1851
0089010300999991954031312004+69700+019017FM-12+002499999V0202301N00101009001CN0014001N9-00281-00391102421ADDAY181999GA1071+009009059GA2021+007509089GF108991071081008001021999MD1810171+9999MW1731
0073010300999991954031315004+69700+019017FM-12+002499999V0202301N00671006001CN0010001N9-00221-00281102141ADDAY171999GA1081+006009049GF108991081001008001021999MD1810281+9999MW1731
0103010300999991954031318004+69700+019017FM-12+002499999V0202301N00771006001CN0012001N9-00281-00391101801ADDAA199005091AY171999GA1081+006009049GF108991081001008001021999IA1319KA1999M-00221MD1810341+9999MW1731
0124010300999991954031406004+69700+019017FM-12+002499999V0200501N00261004501CN0008001N9-00221-00221100831ADDAA199021091AY171999GA1081+004509049GF108991081001004501021999IA1319KA1999N-00281MW1731EQDQ01+000032APCTENQ02+000002APC3  
0073010300999991954031409004+69700+019017FM-12+002499999V0209991C00001003901CN0004001N9-00221-00221100681ADDAY171999GA1081+003909049GF108991081001004501021999MD1810151+9999MW1731
0073010300999991954031412004+69700+019017FM-12+002499999V0209991C00001003901CN0004001N9-00111-00111100451ADDAY171999GA1081+003909049GF108991081001004501021999MD1810231+9999MW1731
0073010300999991954031415004+69700+019017FM-12+002499999V0203601N00101003901CN0018001N9-00111-00111100211ADDAY171999GA1081+003909049GF108991081001004501021999MD1810241+9999MW1731
0103010300999991954031418004+69700+019017FM-12+002499999V0202301N00101000601CN0008001N9+00001+00001100101ADDAA199015091AY171999GA1071+000609079GF108991071061000751021999IA1319KA1999M+00001MD1810111+9999MW1721
0073010300999991954031500004+69700+019017FM-12+002499999V0202301N00461003301CN0100001N9+00111+00001099981ADDAY171999GA1081+003309049GF108991081001004501021999MD1990081+9999MW1681
0073010300999991954031503004+69700+019017FM-12+002499999V0202301N00261004501CN0100001N9+00111+00001099731ADDAY171999GA1081+004509049GF108991081001004501021999MD1810251+9999MW1681
0103010300999991954031506004+69700+019017FM-12+002499999V0209991C00001220001CN0050001N9+00001-00111099681ADDAA199007091AY171999GA1041+000309079GF108991041061000751021999IA1209KA1999N+00001MD1610051+9999MW1681
0108010300999991954031509004+69700+019017FM-12+002499999V0203601N00261006901CN0100001N9+00001-00111099741ADDAY181999GA1071+006909099GF107991071091008001001001MD1210061+9999MW1831EQDQ01+000042APCTENQ02+000062APC3  
0073010300999991954031512004+69700+019017FM-12+002499999V0203601N00261220001CN0160001N9-00111-00501099791ADDAY181999GA1041+006909099GF106991041091008001061001MD1310051+9999MW1851
0073010300999991954031515004+69700+019017FM-12+002499999V0203601N00261220001CN0200001N9-00111-00391099851ADDAY181999GA1041+006909099GF106991041091008001061021MD1310061+9999MW1851
0103010300999991954031518004+69700+019017FM-12+002499999V0200201N00461220001CN0600001N9-00221-00721099861ADDAA199000591AY181999GA1021+009009089GF103991021081008001061001IA1319KA1999M+00111MD1310011+9999MW1021
0073010300999991954031600004+69700+019017FM-12+002499999V0200201N00101220001CN0200001N9-00281-00611100071ADDAY181999GA1031+009009089GF107991031081008001061001MD1210081+9999MW1151
0073010300999991954031603004+69700+019017FM-12+002499999V0200201N00771220001CN0600001N9-00221-00501100211ADDAY181999GA1021+009009089GF105991021081008001061001MD1310141+9999MW1021
0103010300999991954031606004+69700+019017FM-12+002499999V0200201N01031009001CN0200001N9-00111-00721100541ADDAA199000391AY181999GA1061+009009089GF106991061081008001061001IA1319KA1999N-00391MD1210331+9999MW1151
0073010300999991954031609004+69700+019017FM-12+002499999V0200201N00931220001CN0060001N9-00221-00501100811ADDAY181999GA1041+006909099GF105991041091008001061001MD1210271+9999MW1851
0073010300999991954031612004+69700+019017FM-12+002499999V0203601N00931220001CN0200001N9-00221-00611101111ADDAY181999GA1031+007809089GF103991031021008001061021MD1210301+9999MW1261
0073010300999991954031615004+69700+019017FM-12+002499999V0203601N01231220001CN0100001N9-00281-00611101231ADDAY111999GA1041+007809099GF106991041031008001061031MD1210121+9999MW1261
0103010300999991954031618004+69700+019017FM-12+002499999V0203601N01231007801CN0040001N9-00501-01001101411ADDAA199000391AY181999GA1071+007809099GF107991071091008001001001IA1319KA1999M-00111MD1210181+9999MW1851
0073010300999991954031700004+69700+019017FM-12+002499999V0203601N00461220001CN0600001N9-00611-01001101621ADDAY181999GA1031+009009089GF103991031081008001001001MD1210111+9999MW1021
0073010300999991954031703004+69700+019017FM-12+002499999V0203601N00261220001CN0600001N9-00781-01221101641ADDAY101999GA1011+009009089GF101991011081008001041001MD1310021+9999MW1011
0103010300999991954031706004+69700+019017FM-12+002499999V0202501N00261220001CN0600001N9-00891-01281101621ADDAA199000691AY101999GA1021+012009059GF103991021051012501041011IA1319KA1999N-01111MD1990021+9999MW1021
0073010300999991954031709004+69700+019017FM-12+002499999V0202301N00461220001CN0600001N9-00611-01111101541ADDAY101999GA1011+012009059GF102991011051012501041021MD1810081+9999MW1021
0073010300999991954031712004+69700+019017FM-12+002499999V0202001N00461048001CN0600001N9-00501-01221101371ADDAY111999GA1051+048009029GF106991011051008001041061MD1990171+9999MW1031
0073010300999991954031715004+69700+019017FM-12+002499999V0202501N00261027001CN0600001N9-00611-01391101201ADDAY121999GA1071+027009049GF107991011051012501011001MD1810171+9999MW1021
0111010300999991954031718004+69700+019017FM-12+002499999V0201401N00101027001CN0600001N9-00781-01611100961ADDAY121999GA1071+027009049GF107991999001999999011001IA1319KA1999M-00611MD1810241+9999MW1021EQDQ01+000002SCOTLC
0057010300999991954031800004+69700+019017FM-12+002499999V0200701N00101220001CN0700001N9-01001-01501100841ADDAY121999GF102991001001999999001021MD1810021+9999MW1011
0092010300999991954031803004+69700+019017FM-12+002499999V0202501N00261220001CN0700001N9-01221-01781100901ADDAY101999GF100991001001999999001001MD1210061+9999MW1011EQDQ01+000042APCTENQ02+000062APC3  
0092010300999991954031806004+69700+019017FM-12+002499999V0202501N00261220001CN0700001N9-01111-01501101081ADDAY101999GA1011+013509059GF101991011051012501001021IA1319KA1999N-01221MD1310181+9999MW1021
0057010300999991954031809004+69700+019017FM-12+002499999V0202101N00261220001CN0700001N9-00721-01281101231ADDAY101999GF101991001001999999041021MD1310151+9999MW1021
0057010300999991954031812004+69700+019017FM-12+002499999V0202301N00461220001CN0700001N9-00611-01281101311ADDAY101999GF101991001001999999041021MD1110081+9999MW1021
0108010300999991954031815004+69700+019017FM-12+002499999V0202501N00461027001CN0700001N9-00611-01391101311ADDAY101999GA1051+027009049GA2011+012009059GF107991011051012501071071MD1410001+9999MW1031EQDQ01+000022APCTEN
0108010300999991954031818004+69700+019017FM-12+002499999V0202301N01231027001CN0700001N9-00611-01281101181ADDAY121999GA1081+027009049GA2021+012009059GF108991021051012501071999IA1319KA1999M-00611MD1990131+9999MW1181
0073010300999991954031900004+69700+019017FM-12+002499999V0202301N00931220001CN0004001N9-00391-00501100991ADDAY171999GA1091+999999999GF109991091999999999999999MD1710031+9999MW1731
0073010300999991954031903004+69700+019017FM-12+002499999V0202301N00671005101CN0038001N9-00221-00281100911ADDAY171999GA1061+005109059GF108991061051004501021999MD1810081+9999MW1711
0103010300999991954031906004+69700+019017FM-12+002499999V0202301N00671007501CN0080001N9+00001-00111100851ADDAA199006091AY171999GA1071+007509079GF107991071071008001001001IA1319KA1999N-00611MD1610061+9999MW1701
0073010300999991954031909004+69700+019017FM-12+002499999V0202301N00671004501CN0006001N9+00001-00111100761ADDAY171999GA1081+004509079GF108991081071004501999999MD1810091+9999MW1731
0073010300999991954031912004+69700+019017FM-12+002499999V0202301N00931004501CN0024001N9+00111+00111100641ADDAY171999GA1081+004509079GF108991081071004501999999MD1710121+9999MW1711
0073010300999991954031915004+69700+019017FM-12+002499999V0202301N00931006001CN0120001N9+00221+00111100531ADDAY171999GA1081+006009079GF108991081071004501999999MD1810111+9999MW1681
0103010300999991954031918004+69700+019017FM-12+002499999V0202301N00671004501CN0150001N9+00111+00001100441ADDAA199010091AY171999GA1081+004509079GF108991081071004501999999IA1209KA1999M+00221MD1810091+9999MW1611
0073010300999991954032000004+69700+019017FM-12+002499999V0202301N00461006901CN0160001N9+00221+00111100401ADDAY161999GA1071+006909059GF108991071051008001021999MD1710021+9999MW1611
0073010300999991954032003004+69700+019017FM-12+002499999V0202301N00461006901CN0200001N9+00221+00001100371ADDAY161999GA1081+006909059GF108991081051008001999999MD1710031+9999MW1601
0103010300999991954032006004+69700+019017FM-12+002499999V0202301N00771006001CN0200001N9+00281+00111100321ADDAA199006091AY161999GA1061+006009059GF108991061051008001021999IA1209KA1999N+00111MD1710051+9999MW1601
