0076010890999991953010106004+69717+029883FM-12+008899999V0209991C000019999999N0400001N9-02001+99999101681ADDAY121999GF106991041081008001041001IA1319KA1999N-02391MD1810101+9999MW1401
0057010890999991953010109004+69717+029883FM-12+008899999V0209991C000019999999N0400001N9-01721+99999101661ADDAY121999GF108991041051008001021999MD1710021+9999MW1401
0057010890999991953010112004+69717+029883FM-12+008899999V0209991C000019999999N0120001N9-01721+99999101601ADDAY171999GF108991031051008001021999MD1810061+9999MW1151
0057010890999991953010115004+69717+029883FM-12+008899999V0209991C00001007801CN0400001N9-01611+99999101511ADDAY121999GF107991051081008001041999MD1810091+9999MW1021
0087010890999991953010118004+69717+029883FM-12+008899999V0201201N00261007801CN0400001N9-01501+99999101461ADDAA199000691AY121999GF108991051081008001021999IA1319KA1999M-01501MD1810051+9999MW1021
0057010890999991953010200004+69717+029883FM-12+008899999V0201201N001019999999N0600001N9-01781+99999101411ADDAY121999GF105991021051008001041021MD1810031+9999MW1021
0057010890999991953010203004+69717+029883FM-12+008899999V0201201N002619999999N0600001N9-01781+99999101291ADDAY121999GF108991031051008001021999MD1810121+9999MW1401
0103010890999991953010206004+69717+029883FM-12+008899999V0202201N00261220001CN0050001N9-01391+99999101191ADDAA199000691AY171999GA1021+006009089GF108991031081008001021999IA1319KA1999N-01781MD1810101+9999MW1701
0073010890999991953010209004+69717+029883FM-12+008899999V0201801N00461220001CN0150001N9-01281+99999101121ADDAY171999GA1031+006009089GF107991041081008001041999MD1810071+9999MW1151
0073010890999991953010212004+69717+029883FM-12+008899999V0201801N00101220001CN0200001N9-01501+99999101061ADDAY121999GA1011+006009089GF108991021081008001071999MD1810061+9999MW1401
0089010890999991953010215004+69717+029883FM-12+008899999V0201801N00101015001CN0090001N9-01281+99999101021ADDAY171999GA1021+006009059GA2081+015009049GF108991021081008001021999MD1810041+9999MW1701
0103010890999991953010218004+69717+029883FM-12+008899999V0202001N00461015001CN0160001N9-01111+99999101001ADDAA199001091AY171999GA1081+015009049GF108991081001017501021999IA1319KA1999M-01111MD1710021+9999MW1021
0078010890999991953010300004+69717+029883FM-12+008899999V0202801N006719999999N0600001N9-00501+99999101181ADDAY171999GF106991031081008001011999MW1021EQDQ01+000042APCTENQ02+000172APC3  
0057010890999991953010303004+69717+029883FM-12+008899999V0202601N004619999999N0600001N9-00891+99999101311ADDAY121999GF108991031081008001011999MD1310131+9999MW1021
0119010890999991953010306004+69717+029883FM-12+008899999V0202301N00101220001CN0600001N9-01111+99999101371ADDAA199001091AY121999GA1021+007509059GA2041+018009039GF106991021081008001031999IA1319KA1999N-01221MD1310061+9999MW1021
0108010890999991953010309004+69717+029883FM-12+008899999V0201801N00101015001CN0400001N9-01281+99999101291ADDAY121999GA1051+015009049GF106991011081008001021999MD1710081+9999MW1021EQDQ01+000092APCTENQ02+000002APC3  
0073010890999991953010312004+69717+029883FM-12+008899999V0202401N00461012001CN0090001N9-01001+99999101141ADDAY171999GA1051+012009049GF108991051071012501021999MD1810151+9999MW1701
0073010890999991953010315004+69717+029883FM-12+008899999V0202001N00261220001CN0400001N9-00891+99999100911ADDAY121999GA1021+005409079GF108991021061004501021999MD1810231+9999MW1151
0087010890999991953010318004+69717+029883FM-12+008899999V0202301N012319999999N0400001N9-00281+99999100681ADDAA199001091AY121999GF108991031071008001021999IA1319KA1999M-00281MD1810231+9999MW1021
0057010890999991953010403004+69717+029883FM-12+008899999V0203601N01541004501CN0400001N9-00221+99999101201ADDAY121999GF107991051091004501999999MD1310121+9999MW1021
0087010890999991953010406004+69717+029883FM-12+008899999V0203601N00931004501CN0400001N9-00281+99999101441ADDAA199001091AY121999GF108991051091004501999999IA1319KA1999N-00391MD1310241+9999MW1021
0057010890999991953010409004+69717+029883FM-12+008899999V0203301N00671220001CN0400001N9-00391+99999101561ADDAY111999GF104991031081008001001021MD1310121+9999MW1011
0057010890999991953010412004+69717+029883FM-12+008899999V0202601N00671220001CN0400001N9-00501+99999101601ADDAY121999GF104991021061008001051001MD1310041+9999MW1021
0057010890999991953010415004+69717+029883FM-12+008899999V0202401N002619999999N0400001N9-00501+99999101721ADDAY121999GF105991021051008001999999MD1310121+9999MW1021
0076010890999991953010418004+69717+029883FM-12+008899999V0202001N00101220001CN0400001N9-00891+99999101781ADDAY121999GF102991021051008001001001IA1319KA1999M-00281MD1310061+9999MW1011
0078010890999991953010500004+69717+029883FM-12+008899999V0201801N00051220001CN0400001N9-01111+99999101741ADDAY121999GF103991021081008001041001MW1021EQDQ01+000032APCTENQ02+000002APC3  
0057010890999991953010503004+69717+029883FM-12+008899999V0201801N002619999999N0400001N9-01111+99999101611ADDAY121999GF105991031081008001041001MD1710131+9999MW1021
0092010890999991953010506004+69717+029883FM-12+008899999V0209991C00001220001CN0400001N9-00891+99999101461ADDAY121999GA1021+009009059GF106991031081008001041001IA1319KA1999N-01221MD1710151+9999MW1021
0073010890999991953010509004+69717+029883FM-12+008899999V0209991C00001015001CN0600001N9-00721+99999101261ADDAY121999GA1081+015009049GF108991011051008001071999MD1710201+9999MW1021
0089010890999991953010512004+69717+029883FM-12+008899999V0209991C00001018001CN0600001N9-00611+99999101101ADDAY121999GA1011+004509079GA2081+018009049GF108991011061008001011999MD1810161+9999MW1021
0089010890999991953010515004+69717+029883FM-12+008899999V0201801N00261018001CN0600001N9-00501+99999100901ADDAY121999GA1021+004509079GA2081+018009049GF108991011061008001021999MD1810201+9999MW1021
0076010890999991953010518004+69717+029883FM-12+008899999V0201801N004619999999N0600001N9-00501+99999100771ADDAY121999GF108991011061008001011999IA1319KA1999M-00501MD1810131+9999MW1021
0057010890999991953010600004+69717+029883FM-12+008899999V0202001N002619999999N0600001N9-00721+99999100621ADDAY121999GF108991021051008001011999MD1810081+9999MW1021
0057010890999991953010603004+69717+029883FM-12+008899999V0201901N002619999999N0600001N9-00611+99999100461ADDAY121999GF108991021051008001011999MD1810161+9999MW1021
0103010890999991953010606004+69717+029883FM-12+008899999V0201901N00261220001CN0090001N9-00391+99999100351ADDAA199000691AY171999GA1031+012009049GF108991031071008001021999IA1319KA1999N-00781MD1810111+9999MW1711
0073010890999991953010609004+69717+029883FM-12+008899999V0202001N00261009001CN0600001N9-00391+99999100291ADDAY171999GA1061+009009049GF108991061071008001021999MD1510011+9999MW1021
0073010890999991953010612004+69717+029883FM-12+008899999V0201901N00261220001CN0600001N9-00611+99999100341ADDAY121999GA1031+004509079GF105991031061004501031999MD1310051+9999MW1021
0073010890999991953010615004+69717+029883FM-12+008899999V0202001N00101220001CN0600001N9-00611+99999100321ADDAY121999GA1021+005409079GF108991021061008001031999MD1710021+9999MW1031
0087010890999991953010618004+69717+029883FM-12+008899999V0209991C00001220001CN0600001N9-00721+99999100341ADDAA199000691AY121999GF103991031051008001001001IA1319KA1999M-00391MD1210021+9999MW1011
0057010890999991953010700004+69717+029883FM-12+008899999V0202001N002619999999N0400001N9-00721+99999100341ADDAY121999GF108991041051008001999999MD1810021+9999MW1021
0057010890999991953010703004+69717+029883FM-12+008899999V0202001N002619999999N0400001N9-00721+99999100291ADDAY121999GF107991021061008001011999MD1810051+9999MW1021
0092010890999991953010706004+69717+029883FM-12+008899999V0202001N00261220001CN0400001N9-00781+99999100241ADDAY121999GA1021+006009079GF106991021061008001051001IA1319KA1999N-00891MD1810051+9999MW1021
0073010890999991953010709004+69717+029883FM-12+008899999V0201801N00101220001CN0600001N9-00891+99999100191ADDAY121999GA1021+004509079GF103991021061004501051001MD1810051+9999MW1021
0073010890999991953010712004+69717+029883FM-12+008899999V0201801N00101220001CN0600001N9-01001+99999100121ADDAY121999GA1011+007509089GF103991011011008001051001MD1810071+9999MW1021
0073010890999991953010715004+69717+029883FM-12+008899999V0209991C00001220001CN0400001N9-00781+99999099951ADDAY111999GA1021+006009089GF105991031081008001041001MD1710171+9999MW1021
0076010890999991953010718004+69717+029883FM-12+008899999V0202501N00461220001CN0600001N9-00721+99999099841ADDAY121999GF103991021051008001041001IA1319KA1999M-00721MD1710111+9999MW1021
0057010890999991953010800004+69717+029883FM-12+008899999V0202701N01231007801CN0400001N9-00501+99999099671ADDAY121999GF108991081081008001999999MD1710101+9999MW1021
0057010890999991953010803004+69717+029883FM-12+008899999V0202701N01231007801CN0400001N9-00391+99999099511ADDAY121999GF108991081081008001999999MD1710161+9999MW1021
0111010890999991953010806004+69717+029883FM-12+008899999V0202801N00671220001CN0400001N9-00611+99999099511ADDAY121999GA1031+006009089GF106991051081008001041999IA1319KA1999N-00721MD1410001+9999MW1021EQDQ01+000022APCTEN
0092010890999991953010809004+69717+029883FM-12+008899999V0202801N00461004501CN0020001N9-00611+99999099511ADDAY181999GA1051+004509099GF108991081091004501999999MD1410001+9999MW1851EQDQ01+000022APCTEN
0073010890999991953010812004+69717+029883FM-12+008899999V0209991C00001220001CN0400001N9-00501+99999099581ADDAY181999GA1031+006009099GF108991051091008001071999MD1210071+9999MW1151
0073010890999991953010815004+69717+029883FM-12+008899999V0201601N00101009001CN0024001N9-00611+99999099611ADDAY171999GA1081+009009049GF108991011061004501011999MD1210031+9999MW1711
0087010890999991953010818004+69717+029883FM-12+008899999V0201701N001019999999N0160001N9-00611+99999099681ADDAA199004091AY171999GF108991031061004501021999IA1319KA1999M-00391MD1210071+9999MW1021
0057010890999991953010900004+69717+029883FM-12+008899999V0201701N001019999999N0160001N9-00781+99999099761ADDAY171999GF108991041061004501021999MD1310031+9999MW1021
0057010890999991953010903004+69717+029883FM-12+008899999V0202001N00101220001CN0600001N9-01281+99999099771ADDAY121999GF102991021061004501001001MD1010021+9999MW1021
0103010890999991953010906004+69717+029883FM-12+008899999V0201601N00101220001CN0600001N9-01391+99999099781ADDAA199002091AY121999GA1021+005409079GF105991021061004501041999IA1319KA1999N-01501MD1210011+9999MW1031
0073010890999991953010909004+69717+029883FM-12+008899999V0209991C00001007501CN0400001N9-01391+99999099751ADDAY111999GA1051+007509059GF107991051051008001011999MD1710031+9999MW1151
0073010890999991953010912004+69717+029883FM-12+008899999V0209991C00001007501CN0600001N9-01001+99999099551ADDAY121999GA1061+007509059GF106991061051008001999999MD1810201+9999MW1021
0073010890999991953010915004+69717+029883FM-12+008899999V0202401N00261220001CN0060001N9-00781+99999099411ADDAY181999GA1041+006009099GF108991041091008001999999MD1810141+9999MW1851
0087010890999991953010918004+69717+029883FM-12+008899999V0209991C00001007801CN0400001N9-00611+99999099231ADDAA199000391AY181999GF108991051091008001999999IA1319KA1999M-00611MD1810181+9999MW1151
0057010890999991953011000004+69717+029883FM-12+008899999V0200601N00931004501CN0010001N9-00501+99999099221ADDAY181999GF108991051091004501999999MD1310011+9999MW1861
0057010890999991953011003004+69717+029883FM-12+008899999V0200201N00671220001CN0400001N9-00611+99999099321ADDAY181999GF103991031091008001001001MD1310101+9999MW1151
0103010890999991953011006004+69717+029883FM-12+008899999V0203601N00671220001CN0400001N9-00391+99999099461ADDAA199001091AY121999GA1041+006009099GF104991041091008001001001IA1319KA1999N-00611MD1310141+9999MW1021
0073010890999991953011009004+69717+029883FM-12+008899999V0202801N00671220001CN0400001N9-00501+99999099651ADDAY121999GA1031+007509089GF104991031021008001001021MD1310191+9999MW1021
0073010890999991953011012004+69717+029883FM-12+008899999V0209991C00001220001CN0600001N9-01001+99999099781ADDAY121999GA1021+004509079GF106991021061004501051999MD1310131+9999MW1021
0073010890999991953011015004+69717+029883FM-12+008899999V0209991C00001220001CN0600001N9-01391+99999099851ADDAY121999GA1021+009009059GF103991021061008001041001MD1310071+9999MW1021
0111010890999991953011018004+69717+029883FM-12+008899999V0209991C00001220001CN0600001N9-01611+99999099851ADDAY101999GF106991999001999999041001IA1319KA1999M-00391MD1410001+9999MW1761EQDQ01+000002SCOTLCQ02+000032APCTEN
0057010890999991953011103004+69717+029883FM-12+008899999V0202201N00261007801CN0600001N9-01391+99999099681ADDAY121999GF106991051061008001041999MD1210051+9999MW1021
0076010890999991953011106004+69717+029883FM-12+008899999V0209991C00001220001CN0600001N9-01001+99999099771ADDAY111999GF103991021051008001041001IA1319KA1999N-01611MD1310091+9999MW1021
0057010890999991953011109004+69717+029883FM-12+008899999V0203001N00671007801CN0400001N9-00781+99999099901ADDAY121999GF107991051091008001041001MD1310121+9999MW1151
0057010890999991953011112004+69717+029883FM-12+008899999V0203001N00671007801CN0400001N9-00721+99999100021ADDAY121999GF106991051091008001041001MD1310121+9999MW1151
0057010890999991953011115004+69717+029883FM-12+008899999V0203001N00461220001CN0600001N9-00721+99999100571ADDAY131999GF103991021031008001041001MD1210551+9999MW1021
0087010890999991953011118004+69717+029883FM-12+008899999V0203001N00461004501CN0140001N9-00891+99999100781ADDAA199000691AY131999GF108991081091004501999999IA1319KA1999M-00501MD1310211+9999MW1851
0057010890999991953011200004+69717+029883FM-12+008899999V0202601N00931220001CN0600001N9-00891+99999101151ADDAY121999GF102991021051008001001001MD1010041+9999MW1021
0057010890999991953011203004+69717+029883FM-12+008899999V0202601N00931220001CN0600001N9-00721+99999101121ADDAY121999GF104991041051008001999999MD1710031+9999MW1031
0092010890999991953011206004+69717+029883FM-12+008899999V0202601N00931220001CN0600001N9-00781+99999100981ADDAY121999GA1041+009009059GF104991041051008001999999IA1319KA1999N-01001MD1710141+9999MW1021
0073010890999991953011209004+69717+029883FM-12+008899999V0200501N00101220001CN0600001N9-01001+99999100741ADDAY121999GA1011+006009079GF108991011061008001021999MD1810241+9999MW1031
0073010890999991953011212004+69717+029883FM-12+008899999V0201701N00261007501CN0036001N9-00781+99999100021ADDAY171999GA1081+007509049GF108991021061008001021999MD1810721+9999MW1711
0073010890999991953011215004+69717+029883FM-12+008899999V0209991C00001009001CN0060001N9-00891+99999099811ADDAY171999GA1081+009009049GF108991011061008001021999MD1810211+9999MW1711
0087010890999991953011218004+69717+029883FM-12+008899999V0209991C00001007801CN0040001N9-00891+99999099621ADDAA199003091AY171999GF108991081001008001021999IA1319KA1999M-00781MD1810191+9999MW1711
0057010890999991953011300004+69717+029883FM-12+008899999V0201801N00101007801CN0100001N9-00721+99999099281ADDAY171999GF108991081001008001021999MD1810101+9999MW1711
0057010890999991953011303004+69717+029883FM-12+008899999V0209991C000019999999N0400001N9-00781+99999099611ADDAY121999GF108991021061008001021999MD1310331+9999MW1021
0103010890999991953011306004+69717+029883FM-12+008899999V0202801N00261220001CN0400001N9-00721+99999100031ADDAA199004091AY121999GA1021+006009079GF108991021061008001021999IA1319KA1999N-00891MD1310421+9999MW1021
0073010890999991953011309004+69717+029883FM-12+008899999V0209991C00001220001CN0400001N9-00721+99999100321ADDAY121999GA1031+006009079GF105991031061008001051001MD1310291+9999MW1021
0073010890999991953011312004+69717+029883FM-12+008899999V0209991C00001220001CN0600001N9-01221+99999100491ADDAY121999GA1021+003609079GF103991021061004501051001MD1310171+9999MW1401
0092010890999991953011315004+69717+029883FM-12+008899999V0209991C00001002401CN0004001N9-01281+99999100521ADDAY141999GA1081+002409079GF108991081061002501999999MD1210031+9999MW1461EQDQ01+000472PRSWM1
0076010890999991953011318004+69717+029883FM-12+008899999V0209991C00001004501CN0400001N9-01281+99999100461ADDAY141999GF108991081061004501999999IA1319KA1999M-00611MD1710061+9999MW1401
0057010890999991953011400004+69717+029883FM-12+008899999V0202001N001019999999N0400001N9-01111+99999100071ADDAY111999GF105991031081008001041001MD1710181+9999MW1021
0057010890999991953011403004+69717+029883FM-12+008899999V0202001N001019999999N0400001N9-01001+99999099821ADDAY121999GF108991031081008001021999MD1710251+9999MW1021
0092010890999991953011406004+69717+029883FM-12+008899999V0202001N00101220001CN0400001N9-00721+99999099491ADDAY121999GA1021+006009089GF108991031081008001021999IA1319KA1999N-01281MD1710331+9999MW1151
0073010890999991953011409004+69717+029883FM-12+008899999V0209991C00001009001CN0020001N9-00611+99999099221ADDAY171999GA1081+009009049GF108991031081004501021999MD1710271+9999MW1711
0073010890999991953011412004+69717+029883FM-12+008899999V0209991C00001009001CN0100001N9-00501+99999099031ADDAY171999GA1081+009009049GF108991081001008001021999MD1990191+9999MW1711
0073010890999991953011415004+69717+029883FM-12+008899999V0202601N00101009001CN0050001N9-00501+99999098871ADDAY171999GA1081+009009049GF108991081001008001021999MD1610161+9999MW1711
0122010890999991953011418004+69717+029883FM-12+008899999V0202601N00261007801CN0400001N9-00391+99999098951ADDAA199004091AY171999GF108991081001008001021999IA1319KA1999M-00391MD1210081+9999MW1021EQDQ01+000042APCTENQ02+000082APC3  
0057010890999991953011500004+69717+029883FM-12+008899999V0203101N00461007801CN0600001N9-00111+99999099151ADDAY121999GF108991081001008001021999MD1310091+9999MW1021
0057010890999991953011503004+69717+029883FM-12+008899999V0203101N00671007801CN0600001N9-00221+99999099311ADDAY111999GF107991051071008001031999MD1310161+9999MW1011
0092010890999991953011506004+69717+029883FM-12+008899999V0200401N00461009001CN0600001N9-00281+99999099511ADDAY121999GA1081+009009049GF108991031071008001011999IA1319KA1999N-00501MD1310201+9999MW1031
0073010890999991953011509004+69717+029883FM-12+008899999V0200101N00261010501CN0600001N9+00001+99999099721ADDAY121999GA1081+010509049GF108991081001008001021999MD1310211+9999MW1021
0073010890999991953011512004+69717+029883FM-12+008899999V0209991C00001009001CN0600001N9-00221+99999099911ADDAY121999GA1081+009009049GF108991081001008001021999MD1310191+9999MW1021
0073010890999991953011515004+69717+029883FM-12+008899999V0209991C00001009001CN0600001N9-00281+99999100171ADDAY121999GA1081+009009049GF108991081001008001021999MD1310261+9999MW1021
0087010890999991953011518004+69717+029883FM-12+008899999V0209991C00001012301CN0600001N9-00501+99999100271ADDAA199000691AY121999GF108991081001012501021999IA1319KA1999M+00001MD1310101+9999MW1021
0057010890999991953011600004+69717+029883FM-12+008899999V0202001N00261012301CN0600001N9-00391+99999100531ADDAY121999GF108991081001012501051999MD1310031+9999MW1021
0076010890999991953011603004+69717+029883FM-12+008899999V0202001N00261007801CN0600001N9-00391+99999100581ADDAY121999GF108991999061008001051999MD1310051+9999MW1021EQDQ01+000082SCOTLC
0092010890999991953011606004+69717+029883FM-12+008899999V0201801N00261010501CN0600001N9-00501+99999100511ADDAY111999GA1081+010509049GF108991081001012501021999IA1319KA1999N-00721MD1710041+9999MW1021
0073010890999991953011609004+69717+029883FM-12+008899999V0201801N00461220001CN0600001N9-00501+99999100411ADDAY121999GA1031+004509079GF107991031061004501051999MD1810101+9999MW1011
0073010890999991953011612004+69717+029883FM-12+008899999V0202401N00101220001CN0600001N9-00611+99999100171ADDAY121999GA1021+004509079GF104991021061004501031999MD1810241+9999MW1011
0073010890999991953011615004+69717+029883FM-12+008899999V0201801N00101220001CN0600001N9-00781+99999099701ADDAY101999GA1011+009009059GF103991021081008001041001MD1710471+9999MW1021
0076010890999991953011618004+69717+029883FM-12+008899999V0201801N004619999999N0600001N9-00501+99999099101ADDAY111999GF108991031081008001071999IA1319KA1999M-00501MD1710601+9999MW1361
0057010890999991953011700004+69717+029883FM-12+008899999V0201801N00931220001CN0400001N9-00391+99999098441ADDAY181999GF103991031091008001999999MD1710051+9999MW1361
0076010890999991953011703004+69717+029883FM-12+008899999V0202501N00671220001CN0600001N9-00281+99999098661ADDAY101999GF103991999001999999041001MD1210221+9999MW1021EQDQ01+000002SCOTLC
0106010890999991953011706004+69717+029883FM-12+008899999V0202701N00671220001CN0600001N9-00221+99999098891ADDAA199000691AY101999GF102991999001999999041001IA1009KA1999N-00501MD1210231+9999MW1021EQDQ01+000002SCOTLC
0076010890999991953011709004+69717+029883FM-12+008899999V0202701N00461220001CN0600001N9-00221+99999098991ADDAY101999GF102991999001999999041001MD1210101+9999MW1021EQDQ01+000002SCOTLC
0073010890999991953011712004+69717+029883FM-12+008899999V0202701N00931220001CN0700001N9-00281+99999098971ADDAY131999GA1011+010509059GF103991021081008001041001MD1710021+9999MW1021
0092010890999991953011715004+69717+029883FM-12+008899999V0202701N00931220001CN0600001N9-00281+99999098771ADDAY121999GA1021+006009079GF103991999061004501001001MD1810201+9999MW1021EQDQ01+000022SCOTLC
0076010890999991953011718004+69717+029883FM-12+008899999V0202701N00101220001CN0600001N9-00501+99999098831ADDAY101999GF102991011061004501041001IA1319KA1999M-00221MD1410001+9999MW1021
0057010890999991953011803004+69717+029883FM-12+008899999V0209991C00001007801CN0600001N9-00501+99999098451ADDAY121999GF108991081001008001021999MD1810161+9999MW1031
0087010890999991953011806004+69717+029883FM-12+008899999V0209991C00001007801CN0050001N9-00611+99999097921ADDAA199000691AY171999GF108991081001008001021999IA1319KA1999N-00611MD1810531+9999MW1711
0057010890999991953011809004+69717+029883FM-12+008899999V0200701N00101007801CN0006001N9-00391+99999097301ADDAY171999GF108991081001008001021999MD1810621+9999MW1731
0057010890999991953011812004+69717+029883FM-12+008899999V0203001N001019999999N0600001N9-00281+99999097011ADDAY171999GF108991021061004501021999MD1810291+9999MW1021
0092010890999991953011815004+69717+029883FM-12+008899999V0203601N01231004501CN0140001N9-00111+99999097111ADDAY131999GF108991051091004501021999MD1210101+9999MW1851EQDQ01+000042APCTENQ02+000052APC3  
0087010890999991953011818004+69717+029883FM-12+008899999V0203601N015419999999N0400001N9-00111+99999097661ADDAA199006091AY131999GF108991031091004501021999IA1319KA1999M+00001MD1310551+9999MW1021
0057010890999991953011900004+69717+029883FM-12+008899999V0203601N01231220001CN0600001N9-00111+99999098751ADDAY121999GF104991041091004501999999MD1310401+9999MW1021
0057010890999991953011903004+69717+029883FM-12+008899999V0203601N00671220001CN0600001N9-00501+99999099001ADDAY131999GF101991011091004501001001MD1310251+9999MW1011
0103010890999991953011906004+69717+029883FM-12+008899999V0203101N00461220001CN0600001N9-00891+99999099311ADDAA199000691AY121999GA1031+006009099GF106991031091004501011999IA1319KA1999N-01001MD1310311+9999MW1031
0073010890999991953011909004+69717+029883FM-12+008899999V0202901N00671220001CN0600001N9-00721+99999099581ADDAY121999GA1041+006009099GF106991041091004501041999MD1310271+9999MW1021
0073010890999991953011912004+69717+029883FM-12+008899999V0202701N00671220001CN0600001N9-00781+99999099881ADDAY101999GA1021+006009099GF103991021091004501041999MD1310301+9999MW1011
0073010890999991953011915004+69717+029883FM-12+008899999V0203001N00671220001CN0700001N9-00891+99999100101ADDAY101999GA1011+006009089GF102991021081008001001001MD1310221+9999MW1021
0106010890999991953011918004+69717+029883FM-12+008899999V0202701N009319999999N0600001N9-00891+99999100071ADDAA199000691AY181999GF107991999021008001001001IA1319KA1999M-00721MD1710031+9999MW1021EQDQ01+000012SCOTLC
0057010890999991953012000004+69717+029883FM-12+008899999V0202801N00671220001CN0600001N9-01001+99999099991ADDAY101999GF103991031081008001001001MD1710051+9999MW1021
0057010890999991953012003004+69717+029883FM-12+008899999V0202701N004619999999N0600001N9-01111+99999099391ADDAY111999GF105991031081008001041001MD1710601+9999MW1021
0076010890999991953012006004+69717+029883FM-12+008899999V0202001N00671007801CN0400001N9-01001+99999098761ADDAY111999GF108991051051008001021999IA1319KA1999N-01281MD1710631+9999MW1021
0073010890999991953012009004+69717+029883FM-12+008899999V0202001N00461006001CN0120001N9-00891+99999097901ADDAY181999GA1051+006009099GF108991051091008001021999MD1710861+9999MW1851
0073010890999991953012012004+69717+029883FM-12+008899999V0202401N00461006001CN0040001N9-00611+99999097331ADDAY181999GA1051+006009099GF108991051091008001021999MD1710571+9999MW1851
0073010890999991953012015004+69717+029883FM-12+008899999V0202601N00931006001CN0400001N9-00281+99999097051ADDAY181999GA1051+006009099GF107991051091008001021999MD1810281+9999MW1011
0087010890999991953012018004+69717+029883FM-12+008899999V0202601N006719999999N0600001N9-00221+99999096841ADDAA199003091AY121999GF106991041091008001011999IA1319KA1999M-00111MD1810211+9999MW1021
0057010890999991953012100004+69717+029883FM-12+008899999V0202601N006719999999N0600001N9-00281+99999097631ADDAY131999GF106991031091008001011999MD1310221+9999MW1021
0057010890999991953012103004+69717+029883FM-12+008899999V0202701N00931220001CN0600001N9-00501+99999098021ADDAY131999GF103991031061004501001001MD1310391+9999MW1011
0103010890999991953012106004+69717+029883FM-12+008899999V0202701N00671220001CN0600001N9-00891+99999098111ADDAA199000691AY101999GA1031+006009079GF103991031061004501001001IA1319KA1999N-00891MD1210081+9999MW1021
0073010890999991953012109004+69717+029883FM-12+008899999V0202801N00671220001CN0600001N9-01111+99999098211ADDAY101999GA1021+005409079GF102991021061004501001001MD1210101+9999MW1021
0092010890999991953012112004+69717+029883FM-12+008899999V0202801N00461220001CN0140001N9-01111+99999098301ADDAY121999GA1021+006009099GF103991999091004501001001MD1210091+9999MW1851EQDQ01+000022SCOTLC
0073010890999991953012115004+69717+029883FM-12+008899999V0202801N00671220001CN0600001N9-01001+99999098261ADDAY101999GA1021+006009099GF102991021091004501001001MD1990041+9999MW1021
0087010890999991953012118004+69717+029883FM-12+008899999V0202601N01231220001CN0600001N9-01001+99999098141ADDAA199000691AY101999GF101991011021012501001001IA1319KA1999M-00891MD1810121+9999MW1021
0057010890999991953012200004+69717+029883FM-12+008899999V0202801N01231007801CN0060001N9-00891+99999097861ADDAY181999GF108991081091008001999999MD1810101+9999MW1851
0057010890999991953012203004+69717+029883FM-12+008899999V0203001N012319999999N0400001N9-00891+99999098051ADDAY121999GF108991041091008001999999MD1210151+9999MW1151
0103010890999991953012206004+69717+029883FM-12+008899999V0203301N01231220001CN0400001N9-00391+99999098161ADDAA199000591AY121999GA1041+006009099GF106991041091008001021999IA1319KA1999N-01111MD1310111+9999MW1021
0073010890999991953012209004+69717+029883FM-12+008899999V0203301N01231220001CN0400001N9-00501+99999098281ADDAY111999GA1031+005409079GF108991031061008001021011MD1310121+9999MW1021
0073010890999991953012212004+69717+029883FM-12+008899999V0203001N01541220001CN0600001N9-00611+99999098271ADDAY121999GA1021+005409079GF105991021061008001041001MD1710011+9999MW1021
0073010890999991953012215004+69717+029883FM-12+008899999V0203001N02261004501CN0040001N9-00721+99999097901ADDAY131999GA1051+004509099GF108991051091004501021999MD1710371+9999MW1391
0087010890999991953012218004+69717+029883FM-12+008899999V0203201N01231004501CN0400001N9-00221+99999097891ADDAA199002091AY131999GF108991051091004501021999IA1319KA1999M-00221MD1710011+9999MW1361
0057010890999991953012300004+69717+029883FM-12+008899999V0203601N01541004501CN0004001N9-00221+99999098501ADDAY181999GF108991081091004501999999MD1210201+9999MW1861
0057010890999991953012303004+69717+029883FM-12+008899999V0203601N01541220001CN0400001N9-00221+99999098801ADDAY181999GF103991031091008001001001MD1210301+9999MW1021
0103010890999991953012306004+69717+029883FM-12+008899999V0203601N01541220001CN0400001N9-00391+99999098961ADDAA199000691AY121999GA1031+006009099GF103991031091008001001001IA1319KA1999N-00391MD1210161+9999MW1021
0073010890999991953012309004+69717+029883FM-12+008899999V0203601N00931220001CN0600001N9-00391+99999099101ADDAY121999GA1031+006009099GF105991031091008001041001MD1210141+9999MW1021
0073010890999991953012312004+69717+029883FM-12+008899999V0203601N00931220001CN0600001N9-00391+99999099241ADDAY121999GA1031+006009099GF105991031091008001041001MD1210141+9999MW1021
0073010890999991953012315004+69717+029883FM-12+008899999V0203401N00931220001CN0140001N9-00501+99999099251ADDAY121999GA1041+006009099GF107991041091008001011999MD1210011+9999MW1851
0087010890999991953012318004+69717+029883FM-12+008899999V0203401N004619999999N0600001N9-00501+99999099261ADDAA199000691AY181999GF105991041091008001999999IA1009KA1999M-00281MD1210011+9999MW1021
0057010890999991953012400004+69717+029883FM-12+008899999V0203401N00671007801CN0600001N9-00501+99999099371ADDAY121999GF105991051091008001999999MD1210041+9999MW1021
0057010890999991953012403004+69717+029883FM-12+008899999V0203401N00931220001CN0600001N9-00611+99999099431ADDAY121999GF104991021091008001041999MD1210061+9999MW1011
0127010890999991953012406004+69717+029883FM-12+008899999V0203601N00671220001CN0600001N9-00611+99999099441ADDAY121999GA1031+006009099GF106991031091008001041999IA1319KA1999N-00721MD1210011+9999MW1031EQDQ01+000092APCTENQ02+000002APC3  
0073010890999991953012409004+69717+029883FM-12+008899999V0203601N00671220001CN0600001N9-00611+99999099421ADDAY121999GA1021+006009099GF106991021091008001041999MD1210011+9999MW1021
0073010890999991953012412004+69717+029883FM-12+008899999V0203401N00261220001CN0600001N9-00721+99999099461ADDAY101999GA1021+007509089GF103991021011008001041001MD1210041+9999MW1011
0073010890999991953012415004+69717+029883FM-12+008899999V0202801N00261220001CN0600001N9-01001+99999099491ADDAY101999GA1021+007509089GF102991021021008001001001MD1310031+9999MW1011
0076010890999991953012418004+69717+029883FM-12+008899999V0202801N00461220001CN0600001N9-01111+99999099421ADDAY101999GF102991021021008001001001IA1319KA1999M-00611MD1710071+9999MW1021
0057010890999991953012503004+69717+029883FM-12+008899999V0203001N001019999999N0400001N9-01391+99999099661ADDAY121999GF108991021091008001021999MD1310051+9999MW1021
0087010890999991953012506004+69717+029883FM-12+008899999V0209991C000019999999N0400001N9-01501+99999099831ADDAA199001091AY181999GF108991041091008001021999IA1319KA1999N-01781MD1310171+9999MW1021
0057010890999991953012509004+69717+029883FM-12+008899999V0209991C00001004501CN0070001N9-01501+99999099921ADDAY181999GF108991081091004501999999MD1310091+9999MW1851
0057010890999991953012512004+69717+029883FM-12+008899999V0203601N00101004501CN0060001N9-00501+99999100031ADDAY181999GF108991081091004501999999MD1310111+9999MW1851
0057010890999991953012515004+69717+029883FM-12+008899999V0203601N002619999999N0400001N9-00501+99999100121ADDAY181999GF108991041091004501021999MD1310091+9999MW1021
0087010890999991953012518004+69717+029883FM-12+008899999V0203001N001019999999N0060001N9-00501+99999100241ADDAA199003091AY181999GF108991041091004501021999IA1319KA1999M-00501MD1310121+9999MW1851
0057010890999991953012600004+69717+029883FM-12+008899999V0202801N00461007801CN0600001N9-00501+99999100351ADDAY121999GF105991051091008001001001MD1310051+9999MW1021
0057010890999991953012603004+69717+029883FM-12+008899999V0202801N00461007801CN0600001N9-00501+99999100391ADDAY121999GF106991061091008001001001MD1310041+9999MW1151
0103010890999991953012606004+69717+029883FM-12+008899999V0202401N00261005401CN0600001N9-01001+99999100411ADDAA199000691AY121999GA1051+005409099GF105991051091008001001001IA1319KA1999N-01001MD1310021+9999MW1151
0092010890999991953012609004+69717+029883FM-12+008899999V0209991C00001220001CN0600001N9-01501+99999100411ADDAY101999GA1011+009009059GF101991011081008001001001MD1410001+9999MW1401EQDQ01+000032APCTEN
0076010890999991953012612004+69717+029883FM-12+008899999V0209991C00001220001CN0600001N9-01781+99999100411ADDAY101999GF101991011081008001001001MD1410001+9999MW1401EQDQ01+000032APCTEN
0073010890999991953012615004+69717+029883FM-12+008899999V0202001N00101220001CN0600001N9-02001+99999100381ADDAY101999GA1011+009009059GF102991011051008001041999MD1710031+9999MW1401
0087010890999991953012618004+69717+029883FM-12+008899999V0209991C00001220001CN0600001N9-02221+99999100321ADDAA199000691AY101999GF101991011051008001001001IA1319KA1999M-01001MD1710061+9999MW1401
0057010890999991953012700004+69717+029883FM-12+008899999V0209991C00001000151CN0004001N9-02001+99999100221ADDAY141999GF109991091999000251999999MD1710061+9999MW1471
0057010890999991953012703004+69717+029883FM-12+008899999V0209991C00001220001CN0600001N9-02001+99999100101ADDAY141999GF102991021061008001001001MD1810121+9999MW1401
0111010890999991953012706004+69717+029883FM-12+008899999V0201801N00101220001CN0600001N9-02001+99999099961ADDAY141999GA1011+009009059GF101991011061008001001001IA1319KA1999N+99999MD1810141+9999MW1401EQDQ01 -01892ATMN  
0073010890999991953012709004+69717+029883FM-12+008899999V0201501N00261007501CN0600001N9-01781+99999099851ADDAY121999GA1051+007509079GF107991051061008001011999MD1810111+9999MW1401
0057010890999991953012712004+69717+029883FM-12+008899999V0209991C00001220001CN0600001N9-01781+99999099661ADDAY101999GF101991011061008001001001MD1810191+9999MW1401
0073010890999991953012715004+69717+029883FM-12+008899999V0202301N00261027001CN0600001N9-01611+99999099511ADDAY121999GA1051+027009029GF107991011061008001001081MD1810151+9999MW1031
0076010890999991953012718004+69717+029883FM-12+008899999V0201801N004619999999N0600001N9-01501+99999099331ADDAY121999GF108991011061008001021999IA1319KA1999M-01501MD1810181+9999MW1021
0057010890999991953012800004+69717+029883FM-12+008899999V0201801N00461015001CN0600001N9-01281+99999098821ADDAY121999GF108991081001017501021999MD1810201+9999MW1021
0057010890999991953012803004+69717+029883FM-12+008899999V0201601N00671012301CN0600001N9-01281+99999098571ADDAY121999GF108991081001012501021999MD1810201+9999MW1021
0103010890999991953012806004+69717+029883FM-12+008899999V0201601N00461010501CN0600001N9-01501+99999098431ADDAA199000691AY121999GA1081+010509049GF108991081001012501021999IA1319KA1999N-01501MD1810131+9999MW1021
0089010890999991953012809004+69717+029883FM-12+008899999V0201201N00461220001CN0600001N9-01501+99999098381ADDAY121999GA1011+006009079GA2031+009009049GF108991011061008001021081MD1810051+9999MW1021
0073010890999991953012812004+69717+029883FM-12+008899999V0201001N00461220001CN0600001N9-01281+99999098331ADDAY121999GA1021+006009079GF105991021061008001041001MD1810051+9999MW1011
0073010890999991953012815004+69717+029883FM-12+008899999V0201001N00461220001CN0400001N9-01281+99999098291ADDAY121999GA1021+006009079GF106991041081008001041001MD1810041+9999MW1021
0106010890999991953012818004+69717+029883FM-12+008899999V0201001N004619999999N0400001N9-01221+99999098291ADDAA199000591AY121999GF106991041081008001041001IA1319KA1999M-01221MD1410001+9999MW1021EQDQ01+000032APCTEN
0057010890999991953012900004+69717+029883FM-12+008899999V0201201N00101004501CN0040001N9-01221+99999098381ADDAY171999GF108991081001004501021999MD1310051+9999MW1701
0057010890999991953012903004+69717+029883FM-12+008899999V0201201N00261004501CN0100001N9-01221+99999098451ADDAY171999GF108991081001004501021999MD1310071+9999MW1151
0103010890999991953012906004+69717+029883FM-12+008899999V0201201N00261006001CN0160001N9-01221+99999098521ADDAA199000691AY121999GA1081+006009049GF108991081001004501021999IA1319KA1999N-01221MD1310071+9999MW1151
0073010890999991953012909004+69717+029883FM-12+008899999V0209991C00001220001CN0200001N9-01281+99999098621ADDAY121999GA1031+006009059GF107991031051008001071999MD1210101+9999MW1101
0089010890999991953012912004+69717+029883FM-12+008899999V0209991C00001012001CN0160001N9-01281+99999098751ADDAY121999GA1031+006009059GA2081+012009049GF108991031051008001021999MD1310131+9999MW1151
0073010890999991953012915004+69717+029883FM-12+008899999V0209991C00001009001CN0160001N9-01391+99999098921ADDAY171999GA1081+009009049GF108991081001012501021999MD1310171+9999MW1711
0087010890999991953012918004+69717+029883FM-12+008899999V0209991C00001012301CN0100001N9-01391+99999099031ADDAA199000691AY171999GF108991081001012501021999IA1319KA1999M-01221MD1310111+9999MW1711
0057010890999991953013000004+69717+029883FM-12+008899999V0201801N00261220001CN0600001N9-01721+99999099381ADDAY101999GF100991001001999999001001MD1310121+9999MW1021
0057010890999991953013003004+69717+029883FM-12+008899999V0201801N00461015001CN0600001N9-01721+99999099581ADDAY121999GF108991081001017501021999MD1310201+9999MW1031
0076010890999991953013006004+69717+029883FM-12+008899999V0209991C00001220001CN0200001N9-01781+99999099771ADDAY121999GF102991021061012501001001IA1319KA1999N-01891MD1310191+9999MW1101
0057010890999991953013009004+69717+029883FM-12+008899999V0201801N00101220001CN0400001N9-02001+99999099981ADDAY101999GF102991011061008001001081MD1310211+9999MW1401
0073010890999991953013012004+69717+029883FM-12+008899999V0201901N00101009001CN0160001N9-01891+99999100081ADDAY171999GA1081+009009049GF108991011061008001021999MD1310101+9999MW1711
0073010890999991953013015004+69717+029883FM-12+008899999V0201801N00101220001CN0400001N9-01891+99999100211ADDAY171999GA1031+010509059GF103991031051008001001001MD1310131+9999MW1401
0087010890999991953013018004+69717+029883FM-12+008899999V0209991C00001220001CN0400001N9-02111+99999100381ADDAA199001091AY101999GF101991011051008001001001IA1319KA1999M-01781MD1310171+9999MW1401
0057010890999991953013100004+69717+029883FM-12+008899999V0201501N00101220001CN0600001N9-02111+99999100611ADDAY101999GF102991021061008001999999MD1310091+9999MW1021
0057010890999991953013103004+69717+029883FM-12+008899999V0209991C000019999999N0400001N9-02001+99999100721ADDAY121999GF108991021061008001021999MD1310111+9999MW1151
0103010890999991953013106004+69717+029883FM-12+008899999V0209991C00001010501CN0400001N9-01891+99999100681ADDAA199000691AY121999GA1081+010509049GF108991021061008001021999IA1319KA1999N-02221MD1710021+9999MW1021
0073010890999991953013109004+69717+029883FM-12+008899999V0209991C00001010501CN0200001N9-01721+99999100641ADDAY171999GA1081+010509049GF108991031061008001021999MD1710041+9999MW1401
0073010890999991953013112004+69717+029883FM-12+008899999V0202401N00101220001CN0400001N9-01721+99999100551ADDAY171999GA1031+007509079GF106991031061008001031999MD1710091+9999MW1401
0092010890999991953013115004+69717+029883FM-12+008899999V0209991C00001003001CN0160001N9-01721+99999100561ADDAY171999GA1051+003009079GF108991051061004501071999MD1210011+9999MW1151EQDQ01+000002APC3  
0122010890999991953013118004+69717+029883FM-12+008899999V0201801N00101004501CN0400001N9-01721+99999100641ADDAA199000591AY171999GF108991081061004501999999IA1319KA1999M-01611MD1210081+9999MW1021EQDQ01+000042APCTENQ02+000022APC3  
0057010890999991953020103004+69717+029883FM-12+008899999V0202001N002619999999N0600001N9-01721+99999101031ADDAY121999GF108991031061008001021999MD1310071+9999MW1021
0076010890999991953020106004+69717+029883FM-12+008899999V0209991C000019999999N0200001N9-01611+99999101121ADDAY121999GF108991031061008001021999IA1319KA1999N-01891MD1310091+9999MW1151
0057010890999991953020109004+69717+029883FM-12+008899999V0209991C000019999999N0200001N9-01501+99999101331ADDAY121999GF108991031051008001021999MD1310211+9999MW1151
0057010890999991953020112004+69717+029883FM-12+008899999V0201801N002619999999N0400001N9-01391+99999101481ADDAY121999GF106991031051008001071001MD1310151+9999MW1101
0057010890999991953020115004+69717+029883FM-12+008899999V0201801N001019999999N0400001N9-01501+99999101611ADDAY121999GF107991031051008001071999MD1310131+9999MW1101
0087010890999991953020118004+69717+029883FM-12+008899999V0209991C000019999999N0400001N9-01391+99999101791ADDAA199000691AY121999GF106991031051008001071999IA1009KA1999M-01391MD1310181+9999MW1021
0057010890999991953020200004+69717+029883FM-12+008899999V0201601N004619999999N0400001N9-01281+99999102131ADDAY121999GF108991031061008001011999MD1310171+9999MW1031
0057010890999991953020203004+69717+029883FM-12+008899999V0201801N001019999999N0400001N9-01281+99999102321ADDAY121999GF108991021061008001011999MD1310191+9999MW1021
0092010890999991953020206004+69717+029883FM-12+008899999V0201801N00261220001CN0400001N9-01221+99999102471ADDAY121999GA1041+006009079GF107991041061008001071999IA1319KA1999N-01391MD1310151+9999MW1011
0073010890999991953020209004+69717+029883FM-12+008899999V0202001N00261220001CN0400001N9-01281+99999102711ADDAY121999GA1031+004509079GF106991031061008001071021MD1310241+9999MW1011
0073010890999991953020212004+69717+029883FM-12+008899999V0209991C00001220001CN0400001N9-01391+99999102841ADDAY121999GA1021+005409079GF106991021061008001071021MD1310131+9999MW1021
0073010890999991953020215004+69717+029883FM-12+008899999V0209991C00001220001CN0400001N9-01391+99999102921ADDAY121999GA1021+006009079GF104991021061008001071001MD1310081+9999MW1021
0076010890999991953020218004+69717+029883FM-12+008899999V0209991C000019999999N0600001N9-01221+99999102971ADDAY121999GF106991021061008001071999IA1319KA1999M-01221MD1310051+9999MW1031
0078010890999991953020300004+69717+029883FM-12+008899999V0202001N00261015001CN0400001N9-01001+99999103041ADDAY121999GF108991081001017501021999MW1021EQDQ01+000032APCTENQ02+000002APC3  
0076010890999991953020303004+69717+029883FM-12+008899999V0202301N002619999999N0400001N9-01001+99999103041ADDAY121999GF108991021061008001021999MD1410001+9999MW1021EQDQ01+000032APCTEN
0103010890999991953020306004+69717+029883FM-12+008899999V0202301N00101220001CN0400001N9-01111+99999103001ADDAA199000691AY121999GA1031+006009099GF108991031091008001021999IA1319KA1999N-01281MD1810041+9999MW1151
0073010890999991953020309004+69717+029883FM-12+008899999V0201801N00101009001CN0120001N9-01111+99999102961ADDAY171999GA1081+009009049GF108991081001012501021999MD1810041+9999MW1711
0073010890999991953020312004+69717+029883FM-12+008899999V0201801N00101009001CN0120001N9-01221+99999102861ADDAY171999GA1081+009009049GF108991081001012501021999MD1810101+9999MW1711
0073010890999991953020315004+69717+029883FM-12+008899999V0201801N00261220001CN0600001N9-01501+99999102771ADDAY111999GA1021+009009059GF103991021051012501041001MD1810101+9999MW1011
0106010890999991953020318004+69717+029883FM-12+008899999V0201801N00261220001CN0600001N9-01721+99999102711ADDAA199001091AY101999GF102991999001999999041001IA1319KA1999M-01111MD1810061+9999MW1021EQDQ01+000002SCOTLC
0076010890999991953020400004+69717+029883FM-12+008899999V0201801N00261220001CN0600001N9-01891+99999102791ADDAY101999GF102991999001999999041001MD1310051+9999MW1401EQDQ01+000002SCOTLC
0076010890999991953020403004+69717+029883FM-12+008899999V0209991C00001220001CN0600001N9-02001+99999102871ADDAY101999GF102991999001999999041001MD1310081+9999MW1401EQDQ01+000002SCOTLC
0076010890999991953020406004+69717+029883FM-12+008899999V0201801N00261220001CN0600001N9-02501+99999102921ADDAY101999GF100991001001999999001001IA1009KA1999N-02501MD1310051+9999MW1401
0057010890999991953020409004+69717+029883FM-12+008899999V0209991C00001220001CN0010001N9-02611+99999102951ADDAY141999GF100991001001999999001001MD1210031+9999MW1461
0073010890999991953020412004+69717+029883FM-12+008899999V0209991C00001009001CN0020001N9-02391+99999102931ADDAY141999GA1051+009009059GF105991051051008001999999MD1710021+9999MW1421
0073010890999991953020415004+69717+029883FM-12+008899999V0201801N00101220001CN0020001N9-02391+99999102911ADDAY141999GA1031+009009059GF108991031051008001999999MD1310021+9999MW1421
0076010890999991953020418004+69717+029883FM-12+008899999V0209991C00001220001CN0400001N9-02501+99999102811ADDAY101999GF100991001001999999001001IA1319KA1999M-02391MD1810101+9999MW1401
0057010890999991953020500004+69717+029883FM-12+008899999V0209991C00001220001CN0400001N9-02281+99999102571ADDAY101999GF100991001001999999001001MD1810111+9999MW1401
0057010890999991953020503004+69717+029883FM-12+008899999V0201801N00101007801CN0400001N9-02221+99999102411ADDAY101999GF106991061051008001999999MD1810161+9999MW1401
0103010890999991953020506004+69717+029883FM-12+008899999V0209991C00001220001CN0120001N9-02221+99999102371ADDAA199002091AY181999GA1041+006009099GF107991041091008001051999IA1319KA1999N-02501MD1810041+9999MW1851
0092010890999991953020509004+69717+029883FM-12+008899999V0209991C00001006001CN0060001N9-02001+99999102371ADDAY181999GA1051+006009099GF108991051091008001999999MD1410001+9999MW1851EQDQ01+000022APCTEN
0073010890999991953020512004+69717+029883FM-12+008899999V0209991C00001006001CN0110001N9-01781+99999102281ADDAY181999GA1051+006009099GF108991051091008001999999MD1710091+9999MW1151
0073010890999991953020515004+69717+029883FM-12+008899999V0209991C00001006001CN0130001N9-01781+99999102261ADDAY181999GA1061+006009099GF107991061091008001031999MD1710021+9999MW1151
0087010890999991953020518004+69717+029883FM-12+008899999V0209991C00001007801CN0400001N9-01781+99999102281ADDAA199004091AY181999GF106991051091008001999999IA1319KA1999M-01781MD1210021+9999MW1151
0057010890999991953020600004+69717+029883FM-12+008899999V0209991C00001007801CN0400001N9-01721+99999102351ADDAY181999GF108991061091008001999999MD1210041+9999MW1021
0057010890999991953020603004+69717+029883FM-12+008899999V0209991C00001007801CN0400001N9-01721+99999102501ADDAY121999GF108991061091008001999999MD1210151+9999MW1021
0103010890999991953020606004+69717+029883FM-12+008899999V0209991C00001220001CN0400001N9-01501+99999102571ADDAA199001091AY121999GA1031+006009099GF107991031091008001041999IA1319KA1999N-01781MD1210071+9999MW1151
0073010890999991953020609004+69717+029883FM-12+008899999V0209991C00001220001CN0160001N9-01611+99999102691ADDAY181999GA1021+006009099GF103991021091008001041999MD1210121+9999MW1151
0073010890999991953020612004+69717+029883FM-12+008899999V0209991C00001220001CN0400001N9-01611+99999102741ADDAY181999GA1041+006009099GF106991041091008001041999MD1210051+9999MW1151
0073010890999991953020615004+69717+029883FM-12+008899999V0209991C00001220001CN0200001N9-01721+99999102781ADDAY121999GA1031+006009099GF106991041091008001041001MD1210041+9999MW1401
0087010890999991953020618004+69717+029883FM-12+008899999V0209991C00001007801CN0160001N9-01611+99999102791ADDAA199001091AY181999GF108991051091008001041999IA1319KA1999M-01391MD1310011+9999MW1151
0057010890999991953020700004+69717+029883FM-12+008899999V0209991C000019999999N0400001N9-02001+99999102891ADDAY101999GF106991031091008001041999MD1310031+9999MW1401
0076010890999991953020703004+69717+029883FM-12+008899999V0209991C000019999999N0400001N9-02001+99999102891ADDAY121999GF108991031091008001041999MD1410001+9999MW1401EQDQ01+000022APCTEN
0138010890999991953020706004+69717+029883FM-12+008899999V0209991C00001220001CN0010001N9-01781+99999102881ADDAA199000691AY141999GA1031+006009099GF108991051091008001071999IA1319KA1999N-02001MD1710011+9999MW1441EQDQ01+000022APCTENQ02+000002APC3  
0073010890999991953020709004+69717+029883FM-12+008899999V0209991C00001220001CN0100001N9-01891+99999102981ADDAY121999GA1021+006009099GF105991031091008001041001MD1210101+9999MW1101
0076010890999991953020712004+69717+029883FM-12+008899999V0209991C00001220001CN0200001N9-02001+99999103061ADDAY101999GF101991999001999999041001MD1310081+9999MW1401EQDQ01+000002SCOTLC
0073010890999991953020715004+69717+029883FM-12+008899999V0209991C00001220001CN0160001N9-02001+99999103181ADDAY101999GA1021+009009059GF105991021051008001041001MD1310121+9999MW1401
0087010890999991953020718004+69717+029883FM-12+008899999V0209991C00001220001CN0160001N9-02111+99999103401ADDAA199000691AY101999GF104991021051008001041001IA1319KA1999M-01781MD1310221+9999MW1401
0078010890999991953020803004+69717+029883FM-12+008899999V0209991C00001220001CN0400001N9-02501+99999103671ADDAY101999GF101991011001022501041001MW1401EQDQ01+000012APCTENQ02+000002APC3  
0076010890999991953020806004+69717+029883FM-12+008899999V0209991C00001220001CN0400001N9-02781+99999103721ADDAY101999GF101991011001022501041001IA1319KA1999N-02781MD1210051+9999MW1401
0057010890999991953020809004+69717+029883FM-12+008899999V0209991C00001220001CN0400001N9-02891+99999103811ADDAY101999GF101991011001022501041001MD1310091+9999MW1401
0057010890999991953020812004+69717+029883FM-12+008899999V0209991C00001220001CN0400001N9-02781+99999103801ADDAY101999GF100991001001999999001001MD1210011+9999MW1401
0092010890999991953020815004+69717+029883FM-12+008899999V0209991C00001220001CN0400001N9-02891+99999103791ADDAY101999GF100991001001999999001001MD1710011+9999MW1401EQDQ01+000092APCTENQ02+000002APC3  
0076010890999991953020818004+69717+029883FM-12+008899999V0209991C00001220001CN0400001N9-02781+99999103851ADDAY101999GF100991001001999999001001IA1319KA1999M-02781MD1210061+9999MW1401
0057010890999991953020900004+69717+029883FM-12+008899999V0209991C00001220001CN0400001N9-02891+99999103851ADDAY101999GF100991001001999999001001MD1010041+9999MW1401
0057010890999991953020903004+69717+029883FM-12+008899999V0201801N00101220001CN0400001N9-02891+99999103791ADDAY101999GF100991001001999999001001MD1810061+9999MW1401
0092010890999991953020906004+69717+029883FM-12+008899999V0202401N00101220001CN0400001N9-02501+99999103781ADDAY101999GA1011+006009079GF102991011061008001001011IA1319KA1999N-02891MD1710011+9999MW1401
0073010890999991953020909004+69717+029883FM-12+008899999V0202001N00101220001CN0400001N9-02281+99999103761ADDAY101999GA1011+006009079GF104991011061008001041011MD1710021+9999MW1401
0073010890999991953020912004+69717+029883FM-12+008899999V0209991C00001220001CN0400001N9-02391+99999103721ADDAY101999GA1021+006009079GF105991021061008001041011MD1710041+9999MW1401
0076010890999991953020915004+69717+029883FM-12+008899999V0209991C00001220001CN0160001N9-02501+99999103621ADDAY101999GF103991999001999999041001MD1810101+9999MW1401EQDQ01+000002SCOTLC
0095010890999991953020918004+69717+029883FM-12+008899999V0209991C00001220001CN0400001N9-02611+99999103571ADDAY101999GF102991999001999999041001IA1319KA1999M-02281MD1810051+9999MW1401EQDQ01+000002SCOTLC
0076010890999991953021000004+69717+029883FM-12+008899999V0209991C00001220001CN0400001N9-02721+99999103511ADDAY101999GF102991999001999999041001MD1810031+9999MW1401EQDQ01+000002SCOTLC
0076010890999991953021003004+69717+029883FM-12+008899999V0209991C00001220001CN0400001N9-02721+99999103471ADDAY101999GF102991999001999999041001MD1810041+9999MW1401EQDQ01+000002SCOTLC
0095010890999991953021006004+69717+029883FM-12+008899999V0201801N00051220001CN0600001N9-02391+99999103441ADDAY101999GF101991999001999999041001IA1319KA1999N-02781MD1810031+9999MW1401EQDQ01+000002SCOTLC
0076010890999991953021009004+69717+029883FM-12+008899999V0209991C00001220001CN0600001N9-02501+99999103491ADDAY101999GF102991999001999999041001MD1210051+9999MW1401EQDQ01+000002SCOTLC
0057010890999991953021012004+69717+029883FM-12+008899999V0209991C00001220001CN0600001N9-02221+99999103501ADDAY101999GF103991001001999999041021MD1210011+9999MW1401
0076010890999991953021015004+69717+029883FM-12+008899999V0209991C00001220001CN0600001N9-02281+99999103511ADDAY101999GF102991999001999999041001MD1210011+9999MW1401EQDQ01+000012SCOTLC
0095010890999991953021018004+69717+029883FM-12+008899999V0201801N00101220001CN0600001N9-02111+99999103451ADDAY101999GF101991011001999999041001IA1319KA1999M+99999MD1710061+9999MW1401EQDQ01 -02222ATMX  
0057010890999991953021100004+69717+029883FM-12+008899999V0209991C00001220001CN0600001N9-02001+99999103191ADDAY101999GF101991011001999999041001MD1810121+9999MW1401
0057010890999991953021103004+69717+029883FM-12+008899999V0209991C00001220001CN0600001N9-02001+99999102961ADDAY101999GF100991001001999999001001MD1810231+9999MW1401
0092010890999991953021106004+69717+029883FM-12+008899999V0209991C00001018001CN0600001N9-01611+99999102781ADDAY121999GA1081+018009049GF108991081001017501021999IA1319KA1999N-02221MD1810181+9999MW1031
0073010890999991953021109004+69717+029883FM-12+008899999V0201901N00261009001CN0160001N9-01501+99999102891ADDAY181999GA1081+009009049GF108991081001008001021999MD1410001+9999MW1851
0073010890999991953021112004+69717+029883FM-12+008899999V0209991C00001220001CN0400001N9-01501+99999102881ADDAY121999GA1021+007509099GF106991021091008001031999MD1210011+9999MW1101
0073010890999991953021115004+69717+029883FM-12+008899999V0201801N00261220001CN0400001N9-01501+99999102861ADDAY121999GA1021+007509079GF108991021061008001021999MD1810021+9999MW1021
0087010890999991953021118004+69717+029883FM-12+008899999V0201801N00101220001CN0600001N9-01501+99999102931ADDAA199000691AY101999GF102991021061008001001001IA1319KA1999M-01391MD1210071+9999MW1011
0057010890999991953021200004+69717+029883FM-12+008899999V0202001N00101220001CN0600001N9-01781+99999103071ADDAY101999GF100991001001999999001001MD1310081+9999MW1021
0057010890999991953021203004+69717+029883FM-12+008899999V0201801N00261015001CN0600001N9-01781+99999103121ADDAY121999GF108991081001017501021999MD1310051+9999MW1031
0092010890999991953021206004+69717+029883FM-12+008899999V0209991C00001220001CN0400001N9-01721+99999103171ADDAY121999GA1021+007509099GF108991021091008001021999IA1319KA1999N-01781MD1310051+9999MW1021
0073010890999991953021209004+69717+029883FM-12+008899999V0209991C00001220001CN0400001N9-01721+99999103211ADDAY121999GA1031+010509059GF105991011061008001051001MD1310061+9999MW1021
0073010890999991953021212004+69717+029883FM-12+008899999V0209991C00001220001CN0600001N9-01611+99999103201ADDAY121999GA1021+007509079GF104991021061008001001081MD1310011+9999MW1031
0057010890999991953021215004+69717+029883FM-12+008899999V0201801N00261220001CN0400001N9-01611+99999103161ADDAY121999GF103991001001999999041021MD1710041+9999MW1021
0095010890999991953021218004+69717+029883FM-12+008899999V0201801N00261220001CN0600001N9-01611+99999103041ADDAY101999GF101991999001999999041001IA1319KA1999M-01611MD1710121+9999MW1021EQDQ01+000002SCOTLC
0076010890999991953021300004+69717+029883FM-12+008899999V0201801N00261220001CN0400001N9-01721+99999102861ADDAY101999GF102991999001999999041001MD1710151+9999MW1021EQDQ01+000002SCOTLC
0076010890999991953021303004+69717+029883FM-12+008899999V0201801N00261220001CN0400001N9-01721+99999102551ADDAY101999GF103991999001999999041001MD1710311+9999MW1021EQDQ01+000002SCOTLC
0119010890999991953021306004+69717+029883FM-12+008899999V0202001N00461012001CN0400001N9-01221+99999102221ADDAA199000391AY111999GA1081+012009049GA2021+003009079GF108991021061008001021999IA1009KA1999N-01721MD1710331+9999MW1151
0073010890999991953021309004+69717+029883FM-12+008899999V0201801N00461015001CN0600001N9-01281+99999102041ADDAY121999GA1061+015009049GF108991081001017501071999MD1710181+9999MW1151
0073010890999991953021312004+69717+029883FM-12+008899999V0202001N00671220001CN0600001N9-01281+99999101671ADDAY111999GA1031+006009099GF106991031091008001071001MD1710371+9999MW1151
0073010890999991953021315004+69717+029883FM-12+008899999V0202301N00461220001CN0600001N9-01391+99999101511ADDAY121999GA1021+006009079GF104991021091008001041001MD1810161+9999MW1021
0087010890999991953021318004+69717+029883FM-12+008899999V0202001N00461220001CN0600001N9-01281+99999101311ADDAA199000691AY101999GF103991021061008001041001IA1319KA1999M-01221MD1810201+9999MW1021
0057010890999991953021400004+69717+029883FM-12+008899999V0202001N00261220001CN0600001N9-01281+99999101031ADDAY101999GF100991001001999999001001MD1810201+9999MW1011
0057010890999991953021403004+69717+029883FM-12+008899999V0202001N00461220001CN0600001N9-01281+99999100901ADDAY101999GF100991001001999999001001MD1810131+9999MW1021
0092010890999991953021406004+69717+029883FM-12+008899999V0202001N00101220001CN0400001N9-01391+99999100681ADDAY121999GA1021+006009099GF104991021061008001041999IA1319KA1999N-01391MD1810271+9999MW1151
0073010890999991953021409004+69717+029883FM-12+008899999V0202301N00461007501CN0400001N9-01281+99999100541ADDAY181999GA1051+007509049GF108991021061008001021999MD1810141+9999MW1151
0073010890999991953021412004+69717+029883FM-12+008899999V0202301N00101220001CN0400001N9-01281+99999100421ADDAY181999GA1031+007509099GF105991031091008001031999MD1810121+9999MW1151
0073010890999991953021415004+69717+029883FM-12+008899999V0202301N00461220001CN0400001N9-01281+99999100361ADDAY121999GA1041+007509099GF108991041091008001031999MD1810061+9999MW1021
0106010890999991953021418004+69717+029883FM-12+008899999V0209991C00001220001CN0600001N9-01611+99999100361ADDAA199000691AY101999GF100991001001999999001001IA1319KA1999M-01281MD1410001+9999MW1011EQDQ01+000032APCTEN
0057010890999991953021503004+69717+029883FM-12+008899999V0201801N00101220001CN0400001N9-01721+99999100431ADDAY121999GF104991021091008001999999MD1310011+9999MW1021
0087010890999991953021506004+69717+029883FM-12+008899999V0209991C00001004501CN0400001N9-01501+99999100461ADDAA199000391AY181999GF107991051091004501999999IA1319KA1999N-01891MD1310031+9999MW1151
0057010890999991953021509004+69717+029883FM-12+008899999V0202001N00101220001CN0600001N9-01611+99999100471ADDAY121999GF103991021091008001001021MD1310011+9999MW1011
0057010890999991953021512004+69717+029883FM-12+008899999V0209991C000019999999N0400001N9-01391+99999100431ADDAY121999GF106991021061008001021999MD1210041+9999MW1031
0057010890999991953021515004+69717+029883FM-12+008899999V0209991C000019999999N0600001N9-01501+99999100341ADDAY121999GF108991031061004501021999MD1810091+9999MW1031
0087010890999991953021518004+69717+029883FM-12+008899999V0209991C00001220001CN0600001N9-01111+99999100221ADDAA199000691AY101999GF102991021091008001001001IA1319KA1999M-01001MD1810121+9999MW1011
0057010890999991953021600004+69717+029883FM-12+008899999V0203201N00931220001CN0400001N9-00721+99999100501ADDAY131999GF102991011091008001041001MD1210201+9999MW1021
0057010890999991953021603004+69717+029883FM-12+008899999V0203201N00931220001CN0400001N9-00721+99999100631ADDAY121999GF103991021091008001041001MD1310131+9999MW1021
0103010890999991953021606004+69717+029883FM-12+008899999V0203001N00461220001CN0400001N9-01221+99999100701ADDAA199001091AY121999GA1021+006009099GF105991031091008001041001IA1319KA1999N-01221MD1310071+9999MW1021
0073010890999991953021609004+69717+029883FM-12+008899999V0202801N00461220001CN0600001N9-00781+99999100841ADDAY121999GA1021+006009099GF105991031091008001041001MD1310141+9999MW1151
0073010890999991953021612004+69717+029883FM-12+008899999V0209991C00001220001CN0700001N9-01001+99999100931ADDAY101999GA1011+006009099GF103991021091008001041001MD1310071+9999MW1021
0057010890999991953021615004+69717+029883FM-12+008899999V0209991C00001220001CN0700001N9-01281+99999100921ADDAY101999GF101991011091008001001001MD1990031+9999MW1011
0076010890999991953021618004+69717+029883FM-12+008899999V0201801N00101220001CN0700001N9-01721+99999100911ADDAY101999GF101991011091008001001001IA1319KA1999M-00781MD1710011+9999MW1021
0057010890999991953021700004+69717+029883FM-12+008899999V0201801N00101220001CN0600001N9-01891+99999100681ADDAY101999GF100991001001999999001001MD1810141+9999MW1001
0057010890999991953021703004+69717+029883FM-12+008899999V0201801N00101220001CN0600001N9-01891+99999100511ADDAY101999GF100991001001999999001001MD1810171+9999MW1001
0092010890999991953021706004+69717+029883FM-12+008899999V0202001N00101220001CN0600001N9-01781+99999100291ADDAY121999GA1041+009009059GF105991041051008001071999IA1319KA1999N-01891MD1810221+9999MW1031
0073010890999991953021709004+69717+029883FM-12+008899999V0202301N00101010501CN0600001N9-01281+99999100121ADDAY121999GA1081+010509049GF108991081001012501021999MD1810171+9999MW1021
0073010890999991953021712004+69717+029883FM-12+008899999V0201701N00671010501CN0600001N9-01111+99999099921ADDAY121999GA1081+010509049GF108991011061008001021999MD1810201+9999MW1021
0073010890999991953021715004+69717+029883FM-12+008899999V0202001N00461220001CN0600001N9-01111+99999099771ADDAY121999GA1021+007509079GF108991021061008001021081MD1810151+9999MW1021
0076010890999991953021718004+69717+029883FM-12+008899999V0202001N006719999999N0600001N9-01001+99999099571ADDAY121999GF108991021061008001021999IA1319KA1999M-01001MD1810201+9999MW1031
0057010890999991953021800004+69717+029883FM-12+008899999V0202301N006719999999N0600001N9-01111+99999099321ADDAY121999GF108991021061008001021999MD1810151+9999MW1021
0057010890999991953021803004+69717+029883FM-12+008899999V0202301N004619999999N0600001N9-01111+99999099161ADDAY121999GF108991011061008001021999MD1810161+9999MW1021
0103010890999991953021806004+69717+029883FM-12+008899999V0202301N00261220001CN0060001N9-01001+99999099041ADDAA199001091AY181999GA1031+006009099GF108991031091004501021999IA1319KA1999N-01221MD1810121+9999MW1851
0073010890999991953021809004+69717+029883FM-12+008899999V0202001N00101220001CN0080001N9-00891+99999099021ADDAY181999GA1031+006009099GF107991031091004501021999MD1210021+9999MW1851
0073010890999991953021812004+69717+029883FM-12+008899999V0202001N00261010501CN0060001N9-00781+99999098991ADDAY171999GA1081+010509049GF108991081001012501021999MD1710031+9999MW1731
0073010890999991953021815004+69717+029883FM-12+008899999V0202001N00051012001CN0120001N9-00781+99999098951ADDAY171999GA1081+012009049GF108991011061008001021999MD1710041+9999MW1151
0087010890999991953021818004+69717+029883FM-12+008899999V0209991C00001007801CN0040001N9-00781+99999098931ADDAA199002091AY171999GF108991081001008001021999IA1319KA1999M-00781MD1710021+9999MW1731
0078010890999991953021900004+69717+029883FM-12+008899999V0209991C000019999999N0400001N9-00891+99999098901ADDAY121999GF106991031061008001021999MW1021EQDQ01+000022APCTENQ02+000002APC3  
0076010890999991953021903004+69717+029883FM-12+008899999V0209991C00001007801CN0400001N9-01001+99999098901ADDAY121999GF108991051061008001021999MD1410001+9999MW1021EQDQ01+000022APCTEN
0103010890999991953021906004+69717+029883FM-12+008899999V0209991C00001220001CN0020001N9-00781+99999098801ADDAA199002091AY171999GA1031+003009079GF108991031061004501021999IA1319KA1999N-01221MD1710101+9999MW1731
0073010890999991953021909004+69717+029883FM-12+008899999V0209991C00001003001CN0040001N9-00781+99999098831ADDAY171999GA1051+003009079GF108991051061004501021999MD1210031+9999MW1731
0073010890999991953021912004+69717+029883FM-12+008899999V0209991C00001002701CN0020001N9-00721+99999098891ADDAY171999GA1051+002709079GF108991051061004501021999MD1210061+9999MW1731
0073010890999991953021915004+69717+029883FM-12+008899999V0209991C00001002701CN0020001N9-00781+99999098961ADDAY171999GA1051+002709079GF108991051061004501021999MD1210071+9999MW1731
0087010890999991953021918004+69717+029883FM-12+008899999V0209991C00001004501CN0018001N9-00781+99999099141ADDAA199005091AY171999GF108991061061004501021999IA1319KA1999M-00721MD1310181+9999MW1731
0057010890999991953022000004+69717+029883FM-12+008899999V0203601N002619999999N0160001N9-00391+99999099231ADDAY131999GF108991041061004501021999MD1310051+9999MW1021
0057010890999991953022003004+69717+029883FM-12+008899999V0203601N00261220001CN0400001N9-00611+99999099281ADDAY101999GF102991021061008001041999MD1310051+9999MW1011
0103010890999991953022006004+69717+029883FM-12+008899999V0203601N00461220001CN0600001N9-00611+99999099371ADDAA199003091AY121999GA1011+006009079GF106991011061008001011999IA1319KA1999N-00611MD1310091+9999MW1031
0073010890999991953022009004+69717+029883FM-12+008899999V0209991C00001220001CN0600001N9-00781+99999099381ADDAY121999GA1031+009009059GF105991031051008001041021MD1210011+9999MW1021
0073010890999991953022012004+69717+029883FM-12+008899999V0209991C00001220001CN0600001N9-00891+99999099411ADDAY121999GA1021+009009059GF106991021051008001041021MD1210031+9999MW1021
0073010890999991953022015004+69717+029883FM-12+008899999V0209991C00001220001CN0600001N9-01281+99999099451ADDAY111999GA1021+007509099GF102991021091008001001001MD1210041+9999MW1011
0076010890999991953022018004+69717+029883FM-12+008899999V0209991C00001220001CN0600001N9-01781+99999099391ADDAY101999GF100991001001999999001001IA1319KA1999M-00611MD1990011+9999MW1011
0057010890999991953022100004+69717+029883FM-12+008899999V0209991C00001220001CN0600001N9-02001+99999099201ADDAY101999GF103991031051008001999999MD1810121+9999MW1021
0057010890999991953022103004+69717+029883FM-12+008899999V0209991C00001220001CN0600001N9-02001+99999099171ADDAY121999GF104991041051008001999999MD1710031+9999MW1021
0092010890999991953022106004+69717+029883FM-12+008899999V0209991C00001220001CN0600001N9-01721+99999099101ADDAY121999GA1021+009009059GF106991021051008001071999IA1319KA1999N-02111MD1710071+9999MW1031
0073010890999991953022109004+69717+029883FM-12+008899999V0201801N00101220001CN0700001N9-01721+99999099011ADDAY121999GA1021+009009059GF107991021051008001041021MD1810091+9999MW1021
0073010890999991953022112004+69717+029883FM-12+008899999V0201801N00101220001CN0700001N9-01391+99999098921ADDAY121999GA1021+009009059GF107991021051008001011999MD1710091+9999MW1021
0073010890999991953022115004+69717+029883FM-12+008899999V0201801N00261012001CN0120001N9-01111+99999098681ADDAY171999GA1081+012009049GF108991021061008001021999MD1710241+9999MW1101
0087010890999991953022118004+69717+029883FM-12+008899999V0201801N004619999999N0120001N9-01001+99999098671ADDAA199001091AY181999GF106991031091008001071999IA1319KA1999M-01001MD1710011+9999MW1851
0057010890999991953022203004+69717+029883FM-12+008899999V0201601N00051007801CN0010001N9-00891+99999099291ADDAY171999GF108991081001008001021999MD1210301+9999MW1731
0087010890999991953022206004+69717+029883FM-12+008899999V0209991C00001015001CN0600001N9-00891+99999099631ADDAA199001091AY171999GF108991081001017501021999IA1319KA1999N-01001MD1210341+9999MW1021
0057010890999991953022209004+69717+029883FM-12+008899999V0209991C000019999999N0600001N9-00891+99999099821ADDAY111999GF105991031081008001041021MD1210191+9999MW1021
0057010890999991953022212004+69717+029883FM-12+008899999V0209991C000019999999N0600001N9-00781+99999099991ADDAY121999GF108991031061008001021999MD1210171+9999MW1021
0057010890999991953022215004+69717+029883FM-12+008899999V0209991C00001012301CN0040001N9-00611+99999100091ADDAY171999GF108991081001012501021999MD1310101+9999MW1711
0087010890999991953022218004+69717+029883FM-12+008899999V0209991C000019999999N0040001N9-00391+99999100191ADDAA199001091AY171999GF108991031091004501071999IA1319KA1999M-00391MD1310101+9999MW1851
0057010890999991953022300004+69717+029883FM-12+008899999V0201801N001019999999N0400001N9-00391+99999100301ADDAY171999GF108991021061008001021999MD1310081+9999MW1021
0057010890999991953022303004+69717+029883FM-12+008899999V0203201N001019999999N0400001N9-00391+99999100331ADDAY121999GF108991031061008001021999MD1310031+9999MW1021
0103010890999991953022306004+69717+029883FM-12+008899999V0209991C00001007501CN0400001N9-00501+99999100391ADDAA199002091AY171999GA1081+007509049GF108991031061008001021999IA1319KA1999N-00611MD1310061+9999MW1151
0073010890999991953022309004+69717+029883FM-12+008899999V0209991C00001004501CN0160001N9-00391+99999100431ADDAY121999GA1051+004509079GF108991051061004501021999MD1210041+9999MW1101
0073010890999991953022312004+69717+029883FM-12+008899999V0203401N00101004501CN0160001N9-00501+99999100441ADDAY171999GA1051+004509079GF107991051061004501031999MD1210011+9999MW1151
0073010890999991953022315004+69717+029883FM-12+008899999V0209991C00001220001CN0400001N9-00501+99999100381ADDAY121999GA1041+006009099GF108991041091008001021999MD1810061+9999MW1151
0087010890999991953022318004+69717+029883FM-12+008899999V0202801N001019999999N0400001N9-00611+99999100301ADDAA199000591AY181999GF105991021091008001031001IA1319KA1999M-00391MD1810081+9999MW1021
0057010890999991953022400004+69717+029883FM-12+008899999V0202501N004619999999N0400001N9-00611+99999100481ADDAY181999GF108991041091008001021999MD1310031+9999MW1151
0057010890999991953022403004+69717+029883FM-12+008899999V0202501N004619999999N0600001N9-00721+99999100811ADDAY121999GF105991021091008001001081MD1310331+9999MW1011
0087010890999991953022406004+69717+029883FM-12+008899999V0209991C00001220001CN0600001N9-01892+99999101171ADDAA199000691AY101999GF101991011061008001001001IA1319KA1999N-01891MD1310361+9999MW1011
0073010890999991953022409004+69717+029883FM-12+008899999V0209991C00001220001CN0160001N9-01781+99999101411ADDAY121999GA1031+006009079GF105991031061008001001081MD1310241+9999MW1101
0057010890999991953022412004+69717+029883FM-12+008899999V0209991C00001220001CN0700001N9-01611+99999101651ADDAY101999GF101991011061008001001001MD1310241+9999MW1021
0073010890999991953022415004+69717+029883FM-12+008899999V0209991C00001220001CN0700001N9-01721+99999101801ADDAY101999GA1011+006009089GF102991011021008001041011MD1310151+9999MW1401
0076010890999991953022418004+69717+029883FM-12+008899999V0202001N00261007801CN0700001N9-01611+99999101861ADDAY121999GF106991051091008001041999IA1319KA1999M-01611MD1310061+9999MW1151
0076010890999991953022500004+69717+029883FM-12+008899999V0202001N00261220001CN0600001N9-01391+99999101701ADDAY111999GF105991999001999999041001MD1810101+9999MW1021EQDQ01+000002SCOTLC
0057010890999991953022503004+69717+029883FM-12+008899999V0202001N004619999999N0600001N9-01111+99999101231ADDAY111999GF107991031091008001071999MD1710471+9999MW1151
0103010890999991953022506004+69717+029883FM-12+008899999V0202001N01231220001CN0400001N9-00721+99999100731ADDAA199000691AY131999GA1021+007509059GF108991031091008001071999IA1319KA1999N-01611MD1710501+9999MW1361
0073010890999991953022509004+69717+029883FM-12+008899999V0202201N00931220001CN0600001N9-00391+99999100421ADDAY131999GA1021+006009079GF108991021061008001071999MD1710301+9999MW1361
0073010890999991953022512004+69717+029883FM-12+008899999V0202401N01231220001CN0600001N9-00221+99999100261ADDAY131999GA1021+006009089GF107991031081008001071999MD1710161+9999MW1361
0073010890999991953022515004+69717+029883FM-12+008899999V0202401N01231220001CN0600001N9-00281+99999100131ADDAY121999GA1031+006009079GF108991031061008001071999MD1810131+9999MW1021
0076010890999991953022518004+69717+029883FM-12+008899999V0202301N006719999999N0600001N9-00221+99999100051ADDAY121999GF108991031061008001021999IA1319KA1999M-00221MD1810081+9999MW1021
0057010890999991953022600004+69717+029883FM-12+008899999V0202301N00261220001CN0600001N9-00111+99999099981ADDAY101999GF103991031061008001001001MD1810031+9999MW1021
0057010890999991953022603004+69717+029883FM-12+008899999V0202301N00931220001CN0600001N9-00111+99999099961ADDAY101999GF103991021061008001001081MD1810031+9999MW1021
0076010890999991953022606004+69717+029883FM-12+008899999V0209991C00001220001CN0700001N9-00111+99999100061ADDAY101999GF101991011081012501001001IA1319KA1999N-00221MD1210101+9999MW1021
0057010890999991953022609004+69717+029883FM-12+008899999V0202301N00261220001CN0700001N9+00001+99999100051ADDAY101999GF101991011081012501001001MD1210011+9999MW1021
0092010890999991953022612004+69717+029883FM-12+008899999V0202001N00101220001CN0700001N9+00001+99999099661ADDAY101999GF103991011021012501051001MD1710391+9999MW1031EQDQ01+000092APCTENQ02+000002APC3  
0073010890999991953022615004+69717+029883FM-12+008899999V0202001N00261013501CN0600001N9+00221+99999099441ADDAY121999GA1081+013509049GF108991081001012501021999MD1710221+9999MW1031
0087010890999991953022618004+69717+029883FM-12+008899999V0202001N00101012301CN0160001N9+00111+99999098701ADDAA199000691AY121999GF108991081001012501021999IA1319KA1999M+00221MD1810741+9999MW1681
0057010890999991953022700004+69717+029883FM-12+008899999V0209991C00001012301CN0160001N9+00001+99999098401ADDAY171999GF108991081001012501021999MD1510241+9999MW1681
0057010890999991953022703004+69717+029883FM-12+008899999V0203001N00461012301CN0400001N9+00001+99999099091ADDAY171999GF108991081001012501021999MD1310691+9999MW1021
0103010890999991953022706004+69717+029883FM-12+008899999V0203201N00461010501CN0400001N9+00001+99999099571ADDAA199004091AY121999GA1081+010509049GF108991051061008001021999IA1319KA1999N+00001MD1310481+9999MW1021
0073010890999991953022709004+69717+029883FM-12+008899999V0202601N00671220001CN0600001N9+00001+99999099761ADDAY111999GA1021+009009099GF105991021091008001041021MD1310191+9999MW1011
0073010890999991953022712004+69717+029883FM-12+008899999V0202701N00931009001CN0160001N9+00001+99999099951ADDAY121999GA1081+009009049GF108991031061008001021999MD1310191+9999MW1681
0073010890999991953022715004+69717+029883FM-12+008899999V0202801N00931220001CN0600001N9-00111+99999100071ADDAY181999GA1011+007509099GF103991021091008001041001MD1210121+9999MW1021
0087010890999991953022718004+69717+029883FM-12+008899999V0202801N009319999999N0600001N9-00111+99999100131ADDAA199000691AY181999GF105991031091008001041001IA1319KA1999M+00111MD1010021+9999MW1021
0057010890999991953022800004+69717+029883FM-12+008899999V0202801N009319999999N0600001N9-00111+99999100471ADDAY181999GF105991031091008001041001MD1310151+9999MW1021
0057010890999991953022803004+69717+029883FM-12+008899999V0202801N009319999999N0600001N9-00221+99999100671ADDAY121999GF105991031091008001041001MD1210201+9999MW1021
0092010890999991953022806004+69717+029883FM-12+008899999V0202501N00461220001CN0600001N9-00281+99999100961ADDAY121999GA1031+006009099GF105991051091008001001001IA1009KA1999N-00281MD1210301+9999MW1021
0073010890999991953022809004+69717+029883FM-12+008899999V0202801N00931220001CN0600001N9-00281+99999101061ADDAY111999GA1021+006009099GF103991031091008001001001MD1310101+9999MW1021
0073010890999991953022812004+69717+029883FM-12+008899999V0202501N00671220001CN0400001N9-00281+99999101101ADDAY121999GA1031+006009099GF108991051091008001021999MD1310041+9999MW1151
0108010890999991953022815004+69717+029883FM-12+008899999V0202501N00931006001CN0400001N9-00221+99999100771ADDAY181999GA1051+006009099GF108991051091008001021999MD1710331+9999MW1151EQDQ01+000092APCTENQ02+000002APC3  
0087010890999991953022818004+69717+029883FM-12+008899999V0202301N004619999999N0160001N9-00111+99999100191ADDAA199000691AY181999GF108991021061004501021999IA1319KA1999M-00111MD1810581+9999MW1851
0057010890999991953030103004+69717+029883FM-12+008899999V0202301N009319999999N0600001N9+00001+99999099651ADDAY121999GF106991041051008001041999MD1810221+9999MW1011
0076010890999991953030106004+69717+029883FM-12+008899999V0202701N00931220001CN0600001N9-00111+99999099551ADDAY101999GF102991021051008001041001IA1319KA1999N-00111MD1810101+9999MW1011
0057010890999991953030109004+69717+029883FM-12+008899999V0202601N006719999999N0600001N9-00111+99999099581ADDAY121999GF105991031091008001041999MD1710031+9999MW1021
0057010890999991953030112004+69717+029883FM-12+008899999V0202501N009319999999N0600001N9+00001+99999099501ADDAY181999GF106991041091008001041999MD1710081+9999MW1021
0057010890999991953030115004+69717+029883FM-12+008899999V0202601N012319999999N0400001N9+00001+99999099311ADDAY121999GF108991031071008001021999MD1810191+9999MW1021
0122010890999991953030118004+69717+029883FM-12+008899999V0202601N012319999999N0400001N9+00001+99999099591ADDAA199000691AY121999GF108991031071008001021999IA1319KA1999M+00001MD1210281+9999MW1021EQDQ01+000042APCTENQ02+000092APC3  
0057010890999991953030200004+69717+029883FM-12+008899999V0203001N00931007801CN0400001N9-00221+99999100581ADDAY181999GF106991061091008001999999MD1310281+9999MW1021
0057010890999991953030203004+69717+029883FM-12+008899999V0203001N00461220001CN0600001N9-00281+99999100651ADDAY101999GF102991021091008001001001MD1310071+9999MW1011
0103010890999991953030206004+69717+029883FM-12+008899999V0202501N00671220001CN0600001N9-00781+99999100721ADDAA199000691AY101999GA1021+007509099GF102991021091008001001001IA1319KA1999N-00781MD1310071+9999MW1021
0073010890999991953030209004+69717+029883FM-12+008899999V0201801N00101220001CN0600001N9-00721+99999100521ADDAY121999GA1041+009009059GF106991041051008001041999MD1990021+9999MW1031
0073010890999991953030212004+69717+029883FM-12+008899999V0202001N00101220001CN0600001N9-00611+99999100141ADDAY181999GA1021+007509099GF106991021091008001041999MD1810381+9999MW1021
0073010890999991953030215004+69717+029883FM-12+008899999V0202001N00261220001CN0600001N9-00501+99999099521ADDAY121999GA1031+006009059GF107991031051008001071999MD1810621+9999MW1021
0087010890999991953030218004+69717+029883FM-12+008899999V0201401N004619999999N0120001N9-00611+99999098951ADDAA199000391AY171999GF108991031061008001021999IA1319KA1999M-00391MD1810571+9999MW1701
0057010890999991953030300004+69717+029883FM-12+008899999V0209991C00001007801CN0100001N9-00611+99999098311ADDAY171999GF108991081001008001021999MD1810101+9999MW1701
0057010890999991953030303004+69717+029883FM-12+008899999V0203601N012319999999N0400001N9-00501+99999098411ADDAY171999GF108991031071008001021999MD1310101+9999MW1361
0087010890999991953030306004+69717+029883FM-12+008899999V0203401N02261004501CN0090001N9-00501+99999098831ADDAA199002091AY131999GF108991051071004501021999IA1319KA1999N-00721MD1310421+9999MW1371
0073010890999991953030309004+69717+029883FM-12+008899999V0203601N02261220001CN0100001N9-00721+99999099211ADDAY131999GA1031+003009079GF108991051071004501021999MD1310381+9999MW1711
0073010890999991953030312004+69717+029883FM-12+008899999V0203601N02261220001CN0100001N9-00721+99999099681ADDAY131999GA1031+003009079GF108991051071004501021999MD1310471+9999MW1711
0073010890999991953030315004+69717+029883FM-12+008899999V0203601N01901220001CN0024001N9-00281+99999100011ADDAY181999GA1031+003009079GF108991051071004501021999MD1310331+9999MW1861
0087010890999991953030318004+69717+029883FM-12+008899999V0200301N01231004501CN0400001N9-00501+99999100581ADDAA199001091AY181999GF108991051091004501021999IA1319KA1999M-00281MD1310571+9999MW1151
0057010890999991953030400004+69717+029883FM-12+008899999V0200301N00931004501CN0600001N9-00781+99999100771ADDAY181999GF108991051091004501021999MD1210021+9999MW1021
0057010890999991953030403004+69717+029883FM-12+008899999V0200301N004619999999N0600001N9-00781+99999100841ADDAY111999GF105991031051008001041999MD1210071+9999MW1011
0103010890999991953030406004+69717+029883FM-12+008899999V0203601N00461220001CN0600001N9-00781+99999100871ADDAA199000691AY121999GA1041+007509099GF106991041091008001041999IA1319KA1999N-00891MD1210031+9999MW1021
0073010890999991953030409004+69717+029883FM-12+008899999V0203301N00931220001CN0600001N9-00721+99999101001ADDAY121999GA1041+007509099GF106991041091008001041001MD1310131+9999MW1151
0073010890999991953030412004+69717+029883FM-12+008899999V0203301N00931220001CN0600001N9-00611+99999101151ADDAY121999GA1041+007509099GF105991041091008001041001MD1310151+9999MW1021
0073010890999991953030415004+69717+029883FM-12+008899999V0203301N00671220001CN0600001N9-00611+99999101341ADDAY121999GA1041+007509099GF105991041091008001041001MD1310191+9999MW1031
0076010890999991953030418004+69717+029883FM-12+008899999V0203401N00671220001CN0600001N9-00611+99999101531ADDAY101999GF103991021091008001041001IA1319KA1999M-00611MD1310191+9999MW1011
0057010890999991953030500004+69717+029883FM-12+008899999V0202301N00101220001CN0600001N9-01281+99999101711ADDAY101999GF100991001001999999001001MD1310081+9999MW1021
0057010890999991953030503004+69717+029883FM-12+008899999V0202301N00101220001CN0600001N9-01281+99999101591ADDAY101999GF100991001001999999001001MD1810121+9999MW1021
0092010890999991953030506004+69717+029883FM-12+008899999V0209991C00001220001CN0600001N9-01281+99999101291ADDAY121999GA1021+006609079GF108991021061008001021999IA1319KA1999N-01501MD1810301+9999MW1031
0073010890999991953030509004+69717+029883FM-12+008899999V0202001N00261220001CN0600001N9-01001+99999100991ADDAY121999GA1021+007509079GF108991021061008001071999MD1810301+9999MW1021
0073010890999991953030512004+69717+029883FM-12+008899999V0202301N00461220001CN0160001N9-00611+99999100721ADDAY181999GA1041+007509099GF108991041091008001021999MD1810271+9999MW1851
0073010890999991953030515004+69717+029883FM-12+008899999V0202301N00461220001CN0600001N9-00391+99999100621ADDAY181999GA1021+007509099GF106991031091008001071001MD1810101+9999MW1021
0087010890999991953030518004+69717+029883FM-12+008899999V0202301N002619999999N0600001N9-00391+99999100581ADDAA199000691AY121999GF106991031081008001071001IA1319KA1999M-00391MD1810041+9999MW1021
0057010890999991953030600004+69717+029883FM-12+008899999V0209991C000019999999N0600001N9-00501+99999100341ADDAY111999GF108991031051008001021999MD1810051+9999MW1021
0057010890999991953030603004+69717+029883FM-12+008899999V0202201N009319999999N0600001N9-00391+99999100081ADDAY121999GF108991031051008001021999MD1810261+9999MW1021
0092010890999991953030606004+69717+029883FM-12+008899999V0201801N00101220001CN0600001N9+00001+99999099711ADDAY121999GA1021+009009059GF108991021051008001021999IA1319KA1999N-00501MD1810371+9999MW1021
0073010890999991953030609004+69717+029883FM-12+008899999V0201801N00261012001CN0140001N9+00001+99999099151ADDAY171999GA1081+012009049GF108991081001012501021999MD1710561+9999MW1711
0073010890999991953030612004+69717+029883FM-12+008899999V0202001N00261012001CN0140001N9+00001+99999098471ADDAY171999GA1081+012009049GF108991081001008001021999MD1710681+9999MW1681
0073010890999991953030615004+69717+029883FM-12+008899999V0202301N00261010501CN0200001N9+00221+99999098061ADDAY161999GA1081+010509049GF108991081001012501021999MD1810411+9999MW1611
0087010890999991953030618004+69717+029883FM-12+008899999V0202301N006719999999N0400001N9+00501+99999097761ADDAA199002091AY121999GF108991021061008001021999IA1319KA1999M+00501MD1810301+9999MW1021
0057010890999991953030700004+69717+029883FM-12+008899999V0203401N015419999999N0400001N9+00111+99999098681ADDAY121999GF108991031091008001041999MD1310401+9999MW1021
0057010890999991953030703004+69717+029883FM-12+008899999V0203601N019019999999N0400001N9+00001+99999099251ADDAY121999GF107991041091008001041999MD1310561+9999MW1021
0092010890999991953030706004+69717+029883FM-12+008899999V0203401N01541220001CN0600001N9-00501+99999099781ADDAY111999GA1031+005409089GF105991031081004501041999IA1319KA1999N-00611MD1310531+9999MW1011
0073010890999991953030709004+69717+029883FM-12+008899999V0203201N01231220001CN0600001N9-00501+99999100281ADDAY121999GA1021+007509099GF104991021091008001041001MD1310501+9999MW1011
0057010890999991953030712004+69717+029883FM-12+008899999V0202601N00461220001CN0600001N9-00611+99999100561ADDAY101999GF102991021091008001001001MD1310281+9999MW1021
0057010890999991953030715004+69717+029883FM-12+008899999V0202401N00931220001CN0600001N9-00611+99999100691ADDAY101999GF102991021091008001001001MD1310131+9999MW1021
0076010890999991953030718004+69717+029883FM-12+008899999V0202401N00931220001CN0600001N9-00721+99999100781ADDAY101999GF100991001001999999001001IA1319KA1999M-00501MD1310091+9999MW1011
0076010890999991953030803004+69717+029883FM-12+008899999V0202401N012319999999N0400001N9-00611+99999099661ADDAY121999GF108991041091008001021999MD1810502+9999MW1021EQDQ01+000502APC3  
0087010890999991953030806004+69717+029883FM-12+008899999V0202301N004619999999N0600001N9-00501+99999099111ADDAA199001091AY181999GF106991041091008001041999IA1319KA1999N-00891MD1810551+9999MW1021
0057010890999991953030809004+69717+029883FM-12+008899999V0202301N006719999999N0400001N9-00281+99999098901ADDAY181999GF106991041091008001041999MD1810211+9999MW1151
0057010890999991953030812004+69717+029883FM-12+008899999V0202601N006719999999N0400001N9+00111+99999098911ADDAY121999GF106991031091008001041081MD1210011+9999MW1021
0057010890999991953030815004+69717+029883FM-12+008899999V0202801N012319999999N0600001N9+00001+99999099031ADDAY121999GF105991031091008001041001MD1310121+9999MW1021
0111010890999991953030818004+69717+029883FM-12+008899999V0202701N00931220001CN0700001N9-00111+99999099031ADDAY111999GF102991999001999999041001IA1319KA1999M+00221MD1410001+9999MW1021EQDQ01+000002SCOTLCQ02+000032APCTEN
0078010890999991953030900004+69717+029883FM-12+008899999V0203001N00931220001CN0600001N9-00221+99999098971ADDAY121999GF104991041031008001001001MW1021EQDQ01+000022APCTENQ02+000002APC3  
0057010890999991953030903004+69717+029883FM-12+008899999V0202801N004619999999N0600001N9-00221+99999098791ADDAY121999GF105991031031008001041001MD1710181+9999MW1021
0092010890999991953030906004+69717+029883FM-12+008899999V0209991C00001220001CN0700001N9-00501+99999098491ADDAY121999GA1021+007509089GF105991031081008001041021IA1319KA1999N-00611MD1710301+9999MW1021
0073010890999991953030909004+69717+029883FM-12+008899999V0209991C00001220001CN0600001N9-00391+99999098521ADDAY121999GA1021+006009079GF106991021061008001071021MD1210031+9999MW1021
0073010890999991953030912004+69717+029883FM-12+008899999V0203201N00101220001CN0600001N9-00221+99999098901ADDAY111999GA1031+009009059GF107991031061008001071999MD1210381+9999MW1021
0073010890999991953030915004+69717+029883FM-12+008899999V0203001N00931220001CN0600001N9+00001+99999099281ADDAY121999GA1041+006009099GF107991041091004501021999MD1310381+9999MW1151
0087010890999991953030918004+69717+029883FM-12+008899999V0203601N01901004501CN0120001N9+00001+99999099881ADDAA199000691AY181999GF108991051091004501999999IA1319KA1999M+00111MD1310601+9999MW1851
0092010890999991953031000004+69717+029883FM-12+008899999V0203601N01901004501CN0400001N9+00001+99999101092ADDAY121999GF108991051091004501999999MD1310552+9999MW1151EQDQ01+101093APOSLPQ02+000552APC3  
0057010890999991953031003004+69717+029883FM-12+008899999V0203601N01901220001CN0600001N9-00111+99999101471ADDAY121999GF104991041091008001001001MD1310381+9999MW1021
0092010890999991953031006004+69717+029883FM-12+008899999V0203401N01541220001CN0600001N9-00611+99999101821ADDAY121999GA1041+006009099GF107991041091008001041999IA1319KA1999N-00721MD1310351+9999MW1151
0073010890999991953031009004+69717+029883FM-12+008899999V0203401N00931220001CN0600001N9-00611+99999102051ADDAY121999GA1041+007509099GF106991041091008001041999MD1310231+9999MW1021
0073010890999991953031012004+69717+029883FM-12+008899999V0203401N00931220001CN0600001N9-00611+99999102131ADDAY121999GA1041+007509099GF105991041091008001041001MD1210081+9999MW1011
0073010890999991953031015004+69717+029883FM-12+008899999V0200801N00461220001CN0600001N9-00611+99999102171ADDAY121999GA1031+007509099GF105991031091008001041001MD1210041+9999MW1021
0076010890999991953031018004+69717+029883FM-12+008899999V0203201N00261220001CN0600001N9-00781+99999102161ADDAY121999GF104991021091008001041001IA1319KA1999M-00501MD1210011+9999MW1011
0057010890999991953031100004+69717+029883FM-12+008899999V0209991C00001220001CN0600001N9-01111+99999102191ADDAY101999GF103991031061008001999999MD1210021+9999MW1021
0057010890999991953031103004+69717+029883FM-12+008899999V0203201N00101220001CN0600001N9-01111+99999102271ADDAY101999GF103991031061008001999999MD1210081+9999MW1021
0092010890999991953031106004+69717+029883FM-12+008899999V0209991C00001220001CN0600001N9-01611+99999102351ADDAY101999GA1031+009009059GF104991031061008001001021IA1319KA1999N-01721MD1210081+9999MW1411
0073010890999991953031109004+69717+029883FM-12+008899999V0209991C00001220001CN0100001N9-01281+99999102461ADDAY121999GA1041+006009099GF106991041091008001041999MD1210111+9999MW1851
0073010890999991953031112004+69717+029883FM-12+008899999V0209991C00001220001CN0600001N9-00891+99999102551ADDAY181999GA1011+006009099GF101991011091008001001001MD1210091+9999MW1021
0073010890999991953031115004+69717+029883FM-12+008899999V0209991C00001220001CN0600001N9-01001+99999102591ADDAY101999GA1021+006009099GF102991021031008001001001MD1310041+9999MW1021
0087010890999991953031118004+69717+029883FM-12+008899999V0209991C00001220001CN0400001N9-01281+99999102611ADDAA199000691AY101999GF100991001001999999001001IA1319KA1999M-00891MD1310021+9999MW1021
0094010890999991953031200004+69717+029883FM-12+008899999V0209991C00001220001CN0600001N9-01611+99999102611ADDAY101999GF101991999001999999041001MW1021EQDQ01+000002SCOTLCQ02+000022APCTENQ03+000002APC3  
0076010890999991953031203004+69717+029883FM-12+008899999V0202401N00261220001CN0600001N9-01611+99999102401ADDAY101999GF101991999001999999041001MD1810201+9999MW1021EQDQ01+000002SCOTLC
0092010890999991953031206004+69717+029883FM-12+008899999V0202001N00261220001CN0400001N9-01391+99999102261ADDAY121999GA1031+006009059GF108991031051008001071999IA1319KA1999N-01891MD1810141+9999MW1151
0073010890999991953031209004+69717+029883FM-12+008899999V0202001N00261220001CN0700001N9-01111+99999102101ADDAY111999GA1021+009009089GF105991031081008001041001MD1810161+9999MW1021
0073010890999991953031212004+69717+029883FM-12+008899999V0202001N00261220001CN0700001N9-00611+99999101871ADDAY121999GA1031+009009059GF106991031051008001071001MD1810231+9999MW1021
0073010890999991953031215004+69717+029883FM-12+008899999V0202001N00101220001CN0700001N9-00391+99999101361ADDAY121999GA1041+009009059GF107991041051008001071999MD1810511+9999MW1021
0076010890999991953031218004+69717+029883FM-12+008899999V0202201N006719999999N0120001N9-00501+99999101101ADDAY121999GF108991031051008001021999IA1319KA1999M-00391MD1810261+9999MW1851
0057010890999991953031300004+69717+029883FM-12+008899999V0202601N002619999999N0600001N9-00501+99999101081ADDAY121999GF108991031061008001021999MD1210031+9999MW1021
0057010890999991953031303004+69717+029883FM-12+008899999V0202601N002619999999N0600001N9-00501+99999101121ADDAY121999GF108991041061008001021999MD1210041+9999MW1021
0103010890999991953031306004+69717+029883FM-12+008899999V0202001N00101220001CN0600001N9-00501+99999101001ADDAA199000691AY121999GA1041+009009059GF107991041051008001071021IA1319KA1999N-00611MD1990121+9999MW1021
0073010890999991953031309004+69717+029883FM-12+008899999V0202001N00461009001CN0600001N9-00111+99999100651ADDAY121999GA1081+009009049GF108991031061008001021999MD1810151+9999MW1151
0073010890999991953031312004+69717+029883FM-12+008899999V0202001N00671220001CN0700001N9+00221+99999100641ADDAY171999GA1031+009009059GF104991031051008001041001MD1810211+9999MW1011
0073010890999991953031315004+69717+029883FM-12+008899999V0202601N00671220001CN0600001N9+00281+99999100631ADDAY121999GA1041+009009059GF105991041051008001041001MD1710011+9999MW1021
0087010890999991953031318004+69717+029883FM-12+008899999V0202701N002619999999N0600001N9+00221+99999100341ADDAA199001091AY121999GF107991041051008001041999IA1319KA1999M+00281MD1810291+9999MW1031
0092010890999991953031400004+69717+029883FM-12+008899999V0202601N009319999999N0140001N9+00221+99999098872ADDAY161999GF108991021061008001021999MD1810752+9999MW1631EQDQ01+098873APOSLPQ02+000752APC3  
0057010890999991953031403004+69717+029883FM-12+008899999V0202601N006719999999N0600001N9+00221+99999098561ADDAY161999GF108991031051008001021999MD1810311+9999MW1021
0138010890999991953031406004+69717+029883FM-12+008899999V0203401N00671220001CN0600001N9+00281+99999099031ADDAA199003091AY121999GA1041+009009059GF107991041051008001041999IA1319KA1999N+00111MD1210471+9999MW1021EQDQ01+000042APCTENQ02+000022APC3  
0073010890999991953031409004+69717+029883FM-12+008899999V0203301N01541220001CN0400001N9+00281+99999099791ADDAY181999GA1031+006009099GF107991031091008001071999MD1310761+9999MW1151
0092010890999991953031412004+69717+029883FM-12+008899999V0203301N01541220001CN0600001N9+00111+99999100881ADDAY181999GA1041+006009099GF106991041091008001071999MD1311091+9999MW1021EQDQ01+004412APC3  
0073010890999991953031415004+69717+029883FM-12+008899999V0203401N00931220001CN0700001N9+00001+99999101411ADDAY101999GA1011+006009099GF101991011091008001041001MD1210531+9999MW1021
0087010890999991953031418004+69717+029883FM-12+008899999V0203201N00461007801CN0700001N9-00221+99999101641ADDAA199000691AY121999GF108991081051008001999999IA1319KA1999M+00391MD1210231+9999MW1021
0057010890999991953031503004+69717+029883FM-12+008899999V0209991C00001220001CN0600001N9-00721+99999102021ADDAY111999GF104991021051008001041001MD1810021+9999MW1021
0076010890999991953031506004+69717+029883FM-12+008899999V0202001N00051021001CN0600001N9-00611+99999101821ADDAY121999GF108991081001022501071999IA1319KA1999N-00721MD1710201+9999MW1021
0057010890999991953031509004+69717+029883FM-12+008899999V0201801N00261015001CN0120001N9-00501+99999101431ADDAY171999GF108991081001017501021999MD1710401+9999MW1701
0076010890999991953031512004+69717+029883FM-12+008899999V0202001N00461220001CN0700001N9+00001+99999101261ADDAY111999GF101991999001999999041001MD1710171+9999MW1021EQDQ01+000002SCOTLC
0057010890999991953031515004+69717+029883FM-12+008899999V0202501N00671220001CN0700001N9+00501+99999101061ADDAY101999GF101991011011008001001001MD1710201+9999MW1021
0087010890999991953031518004+69717+029883FM-12+008899999V0202201N00671007801CN0700001N9+00391+99999101101ADDAA199000691AY111999GF105991051051008001001001IA1319KA1999M+00501MD1210051+9999MW1021
0057010890999991953031600004+69717+029883FM-12+008899999V0202601N004619999999N0600001N9+00221+99999101651ADDAY121999GF108991031051008001021999MD1310251+9999MW1021
0057010890999991953031603004+69717+029883FM-12+008899999V0203001N006719999999N0600001N9+00111+99999101941ADDAY121999GF107991041091008001041999MD1310291+9999MW1011
0092010890999991953031606004+69717+029883FM-12+008899999V0202801N00671009001CN0600001N9-00111+99999102121ADDAY121999GA1051+009009059GF107991051051008001041999IA1319KA1999N-00111MD1210181+9999MW1021
0073010890999991953031609004+69717+029883FM-12+008899999V0202701N00461220001CN0700001N9+00111+99999102241ADDAY121999GA1031+009009059GF105991031051008001041999MD1310121+9999MW1021
0073010890999991953031612004+69717+029883FM-12+008899999V0203301N00461009001CN0600001N9+00221+99999102411ADDAY121999GA1061+009009059GF107991061051008001041999MD1310171+9999MW1021
0073010890999991953031615004+69717+029883FM-12+008899999V0200501N00261220001CN0160001N9-00111+99999102551ADDAY181999GA1041+007509099GF108991041091008001021999MD1310141+9999MW1851
0087010890999991953031618004+69717+029883FM-12+008899999V0200801N001019999999N0100001N9-00281+99999102541ADDAA199000391AY181999GF108991041091004501021999IA1319KA1999M+00221MD1310011+9999MW1851
0057010890999991953031700004+69717+029883FM-12+008899999V0209991C00001015001CN0400001N9-00281+99999102291ADDAY121999GF108991081001017501021999MD1810081+9999MW1021
0057010890999991953031703004+69717+029883FM-12+008899999V0202001N001019999999N0400001N9-00281+99999102061ADDAY121999GF108991031061008001021999MD1810231+9999MW1021
0092010890999991953031706004+69717+029883FM-12+008899999V0209991C00001220001CN0600001N9-00221+99999101761ADDAY121999GA1031+007509079GF108991031061008001021999IA1319KA1999N-00281MD1810301+9999MW1021
0073010890999991953031709004+69717+029883FM-12+008899999V0201801N00101220001CN0600001N9-00111+99999101391ADDAY121999GA1031+007509079GF108991031061008001021999MD1810371+9999MW1021
0073010890999991953031712004+69717+029883FM-12+008899999V0202301N00671220001CN0600001N9+00111+99999101041ADDAY121999GA1031+006609079GF108991031061008001001071MD1810351+9999MW1021
0073010890999991953031715004+69717+029883FM-12+008899999V0202401N00261220001CN0600001N9+00221+99999100651ADDAY121999GA1021+009009089GF106991021011008001041021MD1810391+9999MW1021
0076010890999991953031718004+69717+029883FM-12+008899999V0202701N004619999999N0600001N9+00221+99999100301ADDAY121999GF106991031081008001041999IA1319KA1999M+00281MD1810351+9999MW1021
0057010890999991953031800004+69717+029883FM-12+008899999V0203001N00931004501CN0040001N9+00111+99999099701ADDAY181999GF108991081091004501999999MD1810301+9999MW1841
0057010890999991953031803004+69717+029883FM-12+008899999V0203001N01231007801CN0600001N9+00001+99999099651ADDAY111999GF105991051091008001001001MD1810051+9999MW1021
0103010890999991953031806004+69717+029883FM-12+008899999V0202801N00671220001CN0600001N9+00111+99999099771ADDAA199002091AY121999GA1021+006009089GF107991031081008001071999IA1319KA1999N+00001MD1210121+9999MW1021
0073010890999991953031809004+69717+029883FM-12+008899999V0203601N01231220001CN0600001N9+00111+99999100441ADDAY181999GA1041+006009099GF108991051091008001071999MD1210671+9999MW1151
0073010890999991953031812004+69717+029883FM-12+008899999V0203401N00671220001CN0600001N9+00001+99999101281ADDAY121999GA1031+006009099GF106991051091008001041001MD1310841+9999MW1021
0092010890999991953031815004+69717+029883FM-12+008899999V0203201N01901220001CN0600001N9-00281+99999101761ADDAY101999GA1021+007509099GF103991999091008001001001MD1310481+9999MW1011EQDQ01+000022SCOTLC
0087010890999991953031818004+69717+029883FM-12+008899999V0203201N01231220001CN0600001N9-00391+99999102101ADDAA199000691AY101999GF102991021021012501001001IA1319KA1999M+00221MD1310341+9999MW1021
0057010890999991953031900004+69717+029883FM-12+008899999V0203001N006719999999N0400001N9-00611+99999102101ADDAY121999GF108991021061008001021999MD1810101+9999MW1021
0057010890999991953031903004+69717+029883FM-12+008899999V0202701N004619999999N0400001N9-00611+99999102081ADDAY121999GF108991031061008001041999MD1810021+9999MW1021
0092010890999991953031906004+69717+029883FM-12+008899999V0202701N00671220001CN0400001N9-00281+99999101971ADDAY121999GA1031+007509099GF108991031091008001041999IA1319KA1999N-00611MD1810111+9999MW1021
0073010890999991953031909004+69717+029883FM-12+008899999V0202301N00931220001CN0600001N9-00221+99999101871ADDAY121999GA1041+007509099GF106991041091008001041999MD1810101+9999MW1021
0073010890999991953031912004+69717+029883FM-12+008899999V0202301N00931220001CN0600001N9-00111+99999101801ADDAY121999GA1031+007509099GF106991031091008001041999MD1210071+9999MW1021
0073010890999991953031915004+69717+029883FM-12+008899999V0202301N00671220001CN0600001N9-00111+99999101791ADDAY121999GA1031+007509099GF108991031091008001021999MD1710011+9999MW1021
0076010890999991953031918004+69717+029883FM-12+008899999V0202701N004619999999N0600001N9+00111+99999101841ADDAY121999GF108991021091008001021999IA1319KA1999M+00111MD1310051+9999MW1021
0057010890999991953032000004+69717+029883FM-12+008899999V0202501N00101012301CN0120001N9+00001+99999101841ADDAY161999GF108991081001012501021999MD1810051+9999MW1611
0057010890999991953032003004+69717+029883FM-12+008899999V0202301N00261012301CN0400001N9+00111+99999101541ADDAY121999GF108991081001012501021999MD1810301+9999MW1021
0103010890999991953032006004+69717+029883FM-12+008899999V0202301N00261220001CN0400001N9+00221+99999101491ADDAA199000691AY121999GA1031+007509099GF107991031091008001041999IA1319KA1999N+00001MD1810051+9999MW1021
0073010890999991953032009004+69717+029883FM-12+008899999V0202301N00261220001CN0400001N9+00221+99999101371ADDAY121999GA1021+007509079GF108991021061008001071999MD1810121+9999MW1021
0073010890999991953032012004+69717+029883FM-12+008899999V0202301N00101220001CN0600001N9+00281+99999101191ADDAY121999GA1031+006009079GF108991031061004501021999MD1810181+9999MW1021
0089010890999991953032015004+69717+029883FM-12+008899999V0202001N00051220001CN0600001N9+00281+99999101001ADDAY121999GA1011+003009079GA2031+007509089GF105991031011008001041021MD1710191+9999MW1021
0076010890999991953032018004+69717+029883FM-12+008899999V0202001N00261220001CN0600001N9+00221+99999100781ADDAY121999GF104991031051008001041001IA1319KA1999M+00281MD1710221+9999MW1021
0076010890999991953032100004+69717+029883FM-12+008899999V0202001N004619999999N0400001N9+00111+99999099582ADDAY121999GF108991031081008001071999MD1810101+9999MW1021EQDQ01+099583APOSLP
0057010890999991953032103004+69717+029883FM-12+008899999V0202001N006719999999N0400001N9+00001+99999099501ADDAY121999GF108991031081008001021999MD1810081+9999MW1021
0092010890999991953032106004+69717+029883FM-12+008899999V0202001N00461220001CN0600001N9+00111+99999099451ADDAY121999GA1031+010509059GF108991031051012501021999IA1319KA1999N+00001MD1810051+9999MW1021
0057010890999991953032109004+69717+029883FM-12+008899999V0202001N00261220001CN0700001N9+00221+99999098921ADDAY111999GF103991001001999999041021MD1710531+9999MW1021
0073010890999991953032112004+69717+029883FM-12+008899999V0201801N00101220001CN0700001N9+00221+99999098481ADDAY121999GA1021+009009059GF106991021051008001071021MD1710441+9999MW1031
0089010890999991953032115004+69717+029883FM-12+008899999V0203201N01231010501CN0060001N9+00221+99999098401ADDAY181999GA1021+004509099GA2061+010509049GF108991021091004501021999MD1710081+9999MW1831
0087010890999991953032118004+69717+029883FM-12+008899999V0203001N01231220001CN0600001N9-00221+99999098711ADDAA199000691AY111999GF103991011061008001021001IA1319KA1999M+00281MD1310311+9999MW1011
0076010890999991953032203004+69717+029883FM-12+008899999V0200201N01901004501CN0400001N9-00391+99999099971ADDAY121999GF108991051091004501061999MD1310982+9999MW1151EQDQ01+000982APC3  
0087010890999991953032206004+69717+029883FM-12+008899999V0203601N009319999999N0400001N9-00221+99999100791ADDAA199002091AY181999GF106991041091008001061999IA1319KA1999N-00611MD1310821+9999MW1151
0057010890999991953032209004+69717+029883FM-12+008899999V0203201N00671220001CN0600001N9-00221+99999101211ADDAY121999GF104991021091008001041001MD1310421+9999MW1021
0057010890999991953032212004+69717+029883FM-12+008899999V0203001N001019999999N0600001N9-00221+99999101461ADDAY121999GF106991021091008001041999MD1310251+9999MW1021
0057010890999991953032215004+69717+029883FM-12+008899999V0202801N001019999999N0600001N9-00221+99999101431ADDAY121999GF108991031061008001021999MD1990011+9999MW1031
0087010890999991953032218004+69717+029883FM-12+008899999V0202601N001019999999N0600001N9-00281+99999101231ADDAA199000691AY181999GF108991031061008001021999IA1319KA1999M-00221MD1810201+9999MW1021
