0076010890999991952010100004+69717+029883FM-12+008899999V0201801N005119999999N0700001N9-00221+99999099411ADDAY121999GF108991031091008001021999MD1810522+9999MW1021EQDQ01+000522APC3  
0057010890999991952010103004+69717+029883FM-12+008899999V0201801N002119999999N0700001N9-00221+99999099161ADDAY121999GF108991031091008001021999MD1810251+9999MW1021
0087010890999991952010106004+69717+029883FM-12+008899999V0201801N001019999999N0040001N9-00281+99999098961ADDAA199002091AY171999GF108991041091008001021999IA1319KA1999N-00281MD1810201+9999MW1701
0057010890999991952010109004+69717+029883FM-12+008899999V0201801N001019999999N0040001N9-00281+99999098771ADDAY181999GF108991041091008001021999MD1810191+9999MW1831
0057010890999991952010112004+69717+029883FM-12+008899999V0209991C000019999999N0700001N9-00281+99999098741ADDAY181999GF108991031091008001021999MD1810031+9999MW1021
0057010890999991952010115004+69717+029883FM-12+008899999V0209991C00001004501CN0050001N9-00221+99999098681ADDAY181999GF108991081091004501999999MD1810061+9999MW1861
0087010890999991952010118004+69717+029883FM-12+008899999V0209991C00001004501CN0050001N9-00281+99999098651ADDAA199002091AY181999GF108991081091004501999999IA1319KA1999M-00221MD1810031+9999MW1861
0078010890999991952010200004+69717+029883FM-12+008899999V0201401N00101004501CN0400001N9-00281+99999098721ADDAY181999GF107991071091004501999999MW1021EQDQ01+000032APCTENQ02+000002APC3  
0076010890999991952010203004+69717+029883FM-12+008899999V0209991C00001004501CN0400001N9-00281+99999098721ADDAY121999GF108991081091004501999999MD1410001+9999MW1021EQDQ01+000032APCTEN
0103010890999991952010206004+69717+029883FM-12+008899999V0209991C00001006001CN0400001N9-00501+99999098801ADDAA199000391AY121999GA1051+006009099GF108991051091004501999999IA1319KA1999N-00501MD1310081+9999MW1021
0073010890999991952010209004+69717+029883FM-12+008899999V0202001N00211220001CN0400001N9-00501+99999098961ADDAY121999GA1041+006009099GF107991041091004501071999MD1310161+9999MW1151
0073010890999991952010212004+69717+029883FM-12+008899999V0209991C00001005401CN0100001N9-00611+99999099161ADDAY181999GA1081+005409099GF108991081091004501999999MD1310201+9999MW1851
0073010890999991952010215004+69717+029883FM-12+008899999V0209991C00001220001CN0140001N9-00721+99999099311ADDAY181999GA1031+005409099GF108991041091004501021999MD1310151+9999MW1851
0087010890999991952010218004+69717+029883FM-12+008899999V0209991C000019999999N0100001N9-00721+99999099481ADDAA199000591AY181999GF107991031091004501041001IA1319KA1999M-00391MD1310171+9999MW1851
0057010890999991952010300004+69717+029883FM-12+008899999V0209991C00001220001CN0400001N9-00781+99999099681ADDAY111999GF103991021081008001041001MD1310121+9999MW1021
0057010890999991952010303004+69717+029883FM-12+008899999V0209991C000019999999N0400001N9-00781+99999099751ADDAY121999GF108991031051008001021999MD1310071+9999MW1021
0103010890999991952010306004+69717+029883FM-12+008899999V0209991C00001220001CN0400001N9-00501+99999099771ADDAA199000391AY121999GA1031+006009059GF108991031051008001021999IA1319KA1999N-00781MD1310021+9999MW1021
0073010890999991952010309004+69717+029883FM-12+008899999V0209991C00001220001CN0160001N9-00391+99999099811ADDAY121999GA1031+006009059GF106991041081008001071001MD1310031+9999MW1101
0073010890999991952010312004+69717+029883FM-12+008899999V0200901N00511220001CN0060001N9-00111+99999099751ADDAY181999GA1031+005409099GF108991041091004501021999MD1710051+9999MW1851
0108010890999991952010315004+69717+029883FM-12+008899999V0200801N00931220001CN0160001N9+00001+99999099731ADDAY121999GA1031+005409099GF108991041091004501021999MD1710021+9999MW1361EQDQ01+000032APCTENQ02+000002APC3  
0103010890999991952010318004+69717+029883FM-12+008899999V0200801N01031220001CN0160001N9+00001+99999099761ADDAA199000691AY121999GA1031+005409099GF108991041091004501021999IA1319KA1999M+00111MD1310031+9999MW1151
0057010890999991952010400004+69717+029883FM-12+008899999V0200801N011319999999N0160001N9-00111+99999100011ADDAY131999GF108991041091004501021999MD1310041+9999MW1851
0057010890999991952010403004+69717+029883FM-12+008899999V0200801N009319999999N0160001N9-00111+99999100091ADDAY131999GF108991041091004501021999MD1310051+9999MW1831
0103010890999991952010406004+69717+029883FM-12+008899999V0200801N00821220001CN0600001N9-00111+99999100451ADDAA199000691AY111999GA1031+006009039GF106991031041008001021001IA1319KA1999N-00221MD1310361+9999MW1151
0073010890999991952010409004+69717+029883FM-12+008899999V0200801N00721220001CN0160001N9-00111+99999100471ADDAY121999GA1031+006009099GF107991031091004501021001MD1310021+9999MW1151
0073010890999991952010412004+69717+029883FM-12+008899999V0200601N00101005401CN0160001N9-00221+99999100681ADDAY181999GA1051+005409099GF105991031091004501021001MD1310211+9999MW1151
0073010890999991952010415004+69717+029883FM-12+008899999V0200601N00511220001CN0400001N9-00111+99999100881ADDAY181999GA1041+005409099GF105991041091004501041999MD1310201+9999MW1021
0087010890999991952010418004+69717+029883FM-12+008899999V0200601N00931004501CN0040001N9-00221+99999101071ADDAA199001091AY181999GF106991061091004501999999IA1319KA1999M+00001MD1310121+9999MW1861
0057010890999991952010500004+69717+029883FM-12+008899999V0200701N00821004501CN0400001N9-00111+99999101661ADDAY181999GF108991081091004501999999MD1310201+9999MW1021
0057010890999991952010503004+69717+029883FM-12+008899999V0200601N00771004501CN0400001N9-00111+99999101731ADDAY121999GF108991081091004501999999MD1310071+9999MW1021
0119010890999991952010506004+69717+029883FM-12+008899999V0200501N00511220001CN0600001N9-00221+99999101871ADDAA199000691AY121999GA1021+006009099GA2031+013509049GF107991031051012501071999IA1319KA1999N-00221MD1310141+9999MW1021
0073010890999991952010509004+69717+029883FM-12+008899999V0200501N00411006901CN0600001N9-00221+99999102091ADDAY121999GA1051+006909089GF108991051081008001071999MD1310221+9999MW1021
0073010890999991952010512004+69717+029883FM-12+008899999V0209991C00001005401CN0100001N9-00391+99999102251ADDAY181999GA1081+005409099GF108991081091004501999999MD1310161+9999MW1851
0073010890999991952010515004+69717+029883FM-12+008899999V0209991C00001220001CN0400001N9-00501+99999102391ADDAY111999GA1031+006009099GF105991031091008001041001MD1310141+9999MW1021
0122010890999991952010518004+69717+029883FM-12+008899999V0209991C00001220001CN0140001N9-00611+99999102391ADDAA199001091AY121999GA1031+006009099GF108991041091008001041001IA1319KA1999M-00221MD1410001+9999MW1851EQDQ01+000032APCTEN
0057010890999991952010603004+69717+029883FM-12+008899999V0209991C000019999999N0400001N9-00891+99999102001ADDAY111999GF107991031051008001071999MD1710201+9999MW1021
0076010890999991952010606004+69717+029883FM-12+008899999V0202401N001019999999N0400001N9-00781+99999101671ADDAY121999GF108991031051008001021999IA1319KA1999N-01111MD1710331+9999MW1021
0057010890999991952010609004+69717+029883FM-12+008899999V0201801N00621220001CN0700001N9-00781+99999101311ADDAY111999GF104991021031008001041001MD1710371+9999MW1021
0057010890999991952010612004+69717+029883FM-12+008899999V0201601N009319999999N0700001N9-01001+99999100841ADDAY121999GF107991031081008001071999MD1810461+9999MW1021
0057010890999991952010615004+69717+029883FM-12+008899999V0201601N005119999999N0700001N9-00891+99999100531ADDAY121999GF108991031051008001071999MD1810301+9999MW1021
0087010890999991952010618004+69717+029883FM-12+008899999V0201601N004119999999N0060001N9-00781+99999100191ADDAA199000691AY171999GF108991031051008001021999IA1319KA1999M-00721MD1710351+9999MW1721
0057010890999991952010700004+69717+029883FM-12+008899999V0201601N003119999999N0100001N9-00721+99999099741ADDAY121999GF108991041091004501021999MD1810121+9999MW1701
0057010890999991952010703004+69717+029883FM-12+008899999V0201601N004119999999N0160001N9-00721+99999099421ADDAY181999GF108991041091004501021999MD1810321+9999MW1021
0103010890999991952010706004+69717+029883FM-12+008899999V0201601N00101220001CN0600001N9-00501+99999099171ADDAA199000691AY121999GA1041+006009049GF108991031031004501021999IA1319KA1999N-00781MD1810251+9999MW1021
0073010890999991952010709004+69717+029883FM-12+008899999V0201601N00101220001CN0700001N9-00501+99999098931ADDAY121999GA1031+006009059GF108991031031004501021999MD1810241+9999MW1021
0073010890999991952010712004+69717+029883FM-12+008899999V0202001N00311220001CN0160001N9-00721+99999098761ADDAY121999GA1021+006009099GF106991031091004501021999MD1810171+9999MW1151
0073010890999991952010715004+69717+029883FM-12+008899999V0209991C00001005401CN0400001N9-00611+99999098771ADDAY121999GA1081+005409099GF108991081091004501999999MD1310011+9999MW1021
0122010890999991952010718004+69717+029883FM-12+008899999V0201801N00151004501CN0400001N9-00611+99999098761ADDAA199000691AY121999GF108991081091004501999999IA1319KA1999M-00501MD1710011+9999MW1021EQDQ01+000032APCTENQ02+000002APC3  
0057010890999991952010800004+69717+029883FM-12+008899999V0209991C00001012301CN0400001N9-00891+99999098921ADDAY121999GF106991051051012501041999MD1310051+9999MW1021
0057010890999991952010803004+69717+029883FM-12+008899999V0209991C000019999999N0400001N9-01001+99999098901ADDAY121999GF107991041051012501071999MD1310021+9999MW1021
0076010890999991952010806004+69717+029883FM-12+008899999V0209991C00001220001CN0600001N9-01001+99999098881ADDAY101999GF100991001001999999001001IA1319KA1999N-01001MD1710021+9999MW1021
0073010890999991952010809004+69717+029883FM-12+008899999V0202001N00101220001CN0600001N9-01111+99999098951ADDAY101999GA1031+030009039GF103991031001022501041001MD1210071+9999MW1021
0073010890999991952010812004+69717+029883FM-12+008899999V0202001N00101220001CN0600001N9-01221+99999099011ADDAY121999GA1041+027009039GF104991041001022501041001MD1210061+9999MW1401
0073010890999991952010815004+69717+029883FM-12+008899999V0209991C00001220001CN0400001N9-01111+99999099191ADDAY111999GA1021+009009059GF105991031081008001051001MD1310181+9999MW1021
0076010890999991952010818004+69717+029883FM-12+008899999V0209991C000019999999N0700001N9-01111+99999099301ADDAY111999GF105991031081008001041001IA1319KA1999M-01001MD1310101+9999MW1021
0057010890999991952010900004+69717+029883FM-12+008899999V0201801N00051220001CN0700001N9-01221+99999099501ADDAY101999GF102991001001999999001021MD1210051+9999MW1021
0057010890999991952010903004+69717+029883FM-12+008899999V0201801N00261220001CN0700001N9-01281+99999099351ADDAY101999GF102991001001999999001021MD1710151+9999MW1021
0095010890999991952010906004+69717+029883FM-12+008899999V0201801N00101220001CN0700001N9-01111+99999099141ADDAY111999GF105991999001999999071001IA1319KA1999N-01391MD1710201+9999MW1021EQDQ01+000002SCOTLC
0073010890999991952010909004+69717+029883FM-12+008899999V0209991C00001220001CN0700001N9-00891+99999098871ADDAY111999GA1041+024009039GF108991081001022501071001MD1710271+9999MW1021
0073010890999991952010912004+69717+029883FM-12+008899999V0201401N00261012001CN0080001N9-00501+99999098561ADDAY171999GA1051+012009049GF108991081001017501021999MD1710301+9999MW1701
0073010890999991952010915004+69717+029883FM-12+008899999V0201601N00511010501CN0080001N9-00501+99999098141ADDAY171999GA1081+010509049GF108991081001017501021999MD1810421+9999MW1701
0103010890999991952010918004+69717+029883FM-12+008899999V0201401N00621009001CN0060001N9-00391+99999097751ADDAA199002091AY171999GA1081+009009049GF108991081001017501021999IA1319KA1999M-00391MD1810391+9999MW1701
0073010890999991952011000004+69717+029883FM-12+008899999V0201401N00621009001CN0060001N9-00391+99999097211ADDAY181999GA1061+009009099GF108991061091012501021999MD1810301+9999MW1851
0073010890999991952011003004+69717+029883FM-12+008899999V0201401N00621220001CN0400001N9-00221+99999096701ADDAY181999GA1031+009009059GF108991031041008001021999MD1810511+9999MW1021
0103010890999991952011006004+69717+029883FM-12+008899999V0201401N00621220001CN0120001N9-00111+99999096481ADDAA199006091AY171999GA1031+009009059GF108991031041008001021999IA1319KA1999N-00501MD1810221+9999MW1701
0073010890999991952011009004+69717+029883FM-12+008899999V0201401N00621220001CN0100001N9-00111+99999096371ADDAY181999GA1041+009009099GF108991041091008001021999MD1810111+9999MW1831
0108010890999991952011012004+69717+029883FM-12+008899999V0201601N00101220001CN0080001N9-00221+99999096361ADDAY181999GA1041+009009099GF107991041091008001021999MD1710011+9999MW1831EQDQ01+000042APCTENQ02+000012APC3  
0073010890999991952011015004+69717+029883FM-12+008899999V0201401N00211006001CN0150001N9-00281+99999096481ADDAY181999GA1051+006009099GF107991051091004501041999MD1310121+9999MW1851
0087010890999991952011018004+69717+029883FM-12+008899999V0202601N004119999999N0400001N9-00391+99999096621ADDAA199001091AY181999GF106991041081008001041999IA1319KA1999M+00001MD1310141+9999MW1021
0057010890999991952011100004+69717+029883FM-12+008899999V0202001N00211220001CN0400001N9-00611+99999096921ADDAY121999GF103991031001022501041999MD1310101+9999MW1021
0057010890999991952011103004+69717+029883FM-12+008899999V0209991C000019999999N0400001N9-00721+99999097071ADDAY121999GF105991031051012501041999MD1310151+9999MW1021
0092010890999991952011106004+69717+029883FM-12+008899999V0202001N00311220001CN0600001N9-00221+99999097141ADDAY121999GA1021+012009059GF105991021051012501041999IA1319KA1999N-00721MD1310071+9999MW1021
0073010890999991952011109004+69717+029883FM-12+008899999V0201801N00211220001CN0600001N9-00501+99999097371ADDAY101999GA1011+009009089GF103991011081008001041001MD1310231+9999MW1021
0073010890999991952011112004+69717+029883FM-12+008899999V0201801N00211220001CN0600001N9-00281+99999097501ADDAY111999GA1041+013509059GF107991041051008001041999MD1310131+9999MW1021
0108010890999991952011115004+69717+029883FM-12+008899999V0201601N00411006001CN0700001N9-00391+99999097521ADDAY121999GA1071+006009089GF199999021081008001041001MD1210021+9999MW1021EQDQ01+000052SCOTCVQ02+000002APC3  
0076010890999991952011118004+69717+029883FM-12+008899999V0209991C000019999999N0600001N9-00391+99999097631ADDAY121999GF107991031051008001071999IA1319KA1999M-00221MD1310101+9999MW1021
0057010890999991952011200004+69717+029883FM-12+008899999V0209991C000019999999N0600001N9-00611+99999097741ADDAY121999GF107991031081008001071999MD1310051+9999MW1021
0057010890999991952011203004+69717+029883FM-12+008899999V0209991C000019999999N0600001N9-00611+99999097811ADDAY121999GF108991031081008001071999MD1310071+9999MW1021
0092010890999991952011206004+69717+029883FM-12+008899999V0209991C00001220001CN0600001N9-00391+99999097851ADDAY121999GA1021+009009059GF108991031081008001071999IA1319KA1999N-00721MD1310051+9999MW1021
0073010890999991952011209004+69717+029883FM-12+008899999V0209991C00001220001CN0600001N9-00281+99999097931ADDAY121999GA1031+009009059GF108991031051008001071999MD1310081+9999MW1021
0073010890999991952011212004+69717+029883FM-12+008899999V0209991C00001220001CN0160001N9-00281+99999098091ADDAY181999GA1031+006009099GF108991031091008001071999MD1310151+9999MW1161
0073010890999991952011215004+69717+029883FM-12+008899999V0209991C00001220001CN0120001N9-00391+99999098381ADDAY171999GA1031+006009099GF108991031091008001071999MD1310291+9999MW1701
0122010890999991952011218004+69717+029883FM-12+008899999V0209991C00001220001CN0120001N9-00391+99999098381ADDAA199000591AY171999GA1031+006009099GF107991031091008001071999IA1009KA1999M-00281MD1410001+9999MW1151EQDQ01+000032APCTEN
0057010890999991952011303004+69717+029883FM-12+008899999V0202601N001019999999N0700001N9-00781+99999098761ADDAY121999GF106991041041008001031999MD1310201+9999MW1021
0092010890999991952011306004+69717+029883FM-12+008899999V0202801N00411220001CN0700001N9-00721+99999098851ADDAY121999GA1031+009009059GF106991031041008001031999IA1319KA1999N-00891MD1310091+9999MW1021
0073010890999991952011309004+69717+029883FM-12+008899999V0202801N00211220001CN0700001N9-00721+99999099051ADDAY121999GA1031+009009059GF106991031041008001031999MD1310201+9999MW1021
0057010890999991952011312004+69717+029883FM-12+008899999V0203001N00101220001CN0600001N9-01221+99999099021ADDAY111999GF104991031021008001031001MD1710031+9999MW1011
0057010890999991952011315004+69717+029883FM-12+008899999V0203601N015419999999N0060001N9-01001+99999099091ADDAY181999GF108991041091008001021999MD1310071+9999MW1851
0103010890999991952011318004+69717+029883FM-12+008899999V0203601N01441220001CN0120001N9-00111+99999099201ADDAA199002091AY121999GA1031+009009099GF107991041091008001021999IA1319KA1999M+00001MD1310111+9999MW1151
0057010890999991952011400004+69717+029883FM-12+008899999V0200501N01031007801CN0400001N9-00281+99999099541ADDAY121999GF107991071081008001999999MD1310101+9999MW1021
0057010890999991952011403004+69717+029883FM-12+008899999V0200201N00671007801CN0400001N9-00281+99999099651ADDAY121999GF108991081081008001999999MD1310111+9999MW1021
0092010890999991952011406004+69717+029883FM-12+008899999V0200201N00461220001CN0600001N9-00391+99999099671ADDAY121999GA1041+009009089GF104991041081008001001001IA1319KA1999N-00391MD1310021+9999MW1021
0057010890999991952011409004+69717+029883FM-12+008899999V0203601N00411220001CN0600001N9-00781+99999099711ADDAY121999GF104991031081008001041001MD1310041+9999MW1021
0073010890999991952011412004+69717+029883FM-12+008899999V0209991C00001220001CN0600001N9-01281+99999099831ADDAY121999GA1041+013509059GF106991041051012501071999MD1310111+9999MW1021
0073010890999991952011415004+69717+029883FM-12+008899999V0209991C00001220001CN0600001N9-01611+99999099851ADDAY121999GA1021+009009059GF104991031081008001041001MD1310021+9999MW1021
0095010890999991952011418004+69717+029883FM-12+008899999V0201801N00151220001CN0600001N9-01781+99999099811ADDAY101999GF102991999001999999041001IA1319KA1999M-00501MD1710031+9999MW1401EQDQ01+000002SCOTLC
0076010890999991952011500004+69717+029883FM-12+008899999V0202001N00101220001CN0700001N9-01501+99999099521ADDAY101999GF102991999001999999041001MD1710141+9999MW1401EQDQ01+000002SCOTLC
0057010890999991952011503004+69717+029883FM-12+008899999V0202001N001019999999N0700001N9-01281+99999099331ADDAY111999GF108991021051008001071999MD1710201+9999MW1031
0103010890999991952011506004+69717+029883FM-12+008899999V0202001N00461015001CN0080001N9-01221+99999099181ADDAA199000591AY171999GA1081+015009049GF108991031081004501021999IA1319KA1999N-01891MD1710151+9999MW1701
0073010890999991952011509004+69717+029883FM-12+008899999V0202201N00261015001CN0100001N9-01221+99999099001ADDAY171999GA1081+015009049GF108991081001017501021999MD1710181+9999MW1711
0073010890999991952011512004+69717+029883FM-12+008899999V0209991C00001015001CN0100001N9-01221+99999098811ADDAY171999GA1081+015009049GF108991081001017501021999MD1710191+9999MW1151
0073010890999991952011515004+69717+029883FM-12+008899999V0202201N00101015001CN0080001N9-01221+99999098611ADDAY171999GA1061+015009049GF108991081001017501021999MD1710201+9999MW1701
0087010890999991952011518004+69717+029883FM-12+008899999V0202001N00101015001CN0140001N9-01111+99999098491ADDAA199005091AY171999GF108991081001017501021999IA1319KA1999M-01111MD1710121+9999MW1151
0073010890999991952011600004+69717+029883FM-12+008899999V0202201N00101015001CN0600001N9-01001+99999098341ADDAY121999GA1061+015009049GF108991081001017501021999MD1710101+9999MW1021
0092010890999991952011603004+69717+029883FM-12+008899999V0202201N00101015001CN0100001N9-01001+99999098351ADDAY171999GF108991081001017501021999MD1210011+9999MW1701EQDQ01+000042APCTENQ02+000012APC3  
0122010890999991952011606004+69717+029883FM-12+008899999V0202701N00511220001CN0600001N9-01111+99999098351ADDAA199000391AY111999GA1031+015009049GF105991031001017501021999IA1319KA1999N-01221MD1410001+9999MW1011EQDQ01+000032APCTEN
0073010890999991952011609004+69717+029883FM-12+008899999V0209991C00001220001CN0600001N9-01221+99999098421ADDAY121999GA1041+015009049GF108991031001017501021999MD1310071+9999MW1791
0073010890999991952011612004+69717+029883FM-12+008899999V0209991C00001220001CN0140001N9-01281+99999098511ADDAY121999GA1031+015009049GF106991031001017501021999MD1310091+9999MW1151
0073010890999991952011615004+69717+029883FM-12+008899999V0209991C00001220001CN0400001N9-01391+99999098631ADDAY121999GA1021+012009059GF103991021051012501041999MD1310121+9999MW1021
0087010890999991952011618004+69717+029883FM-12+008899999V0202001N00101220001CN0400001N9-01611+99999098741ADDAA199000691AY101999GF102991021001022501041999IA1319KA1999M-01001MD1310111+9999MW1401
0057010890999991952011700004+69717+029883FM-12+008899999V0209991C00001220001CN0400001N9-01611+99999099121ADDAY101999GF102991021001022501041999MD1310081+9999MW1401
0057010890999991952011703004+69717+029883FM-12+008899999V0209991C00001220001CN0400001N9-01611+99999099221ADDAY121999GF103991031001022501041999MD1310151+9999MW1401
0103010890999991952011706004+69717+029883FM-12+008899999V0209991C00001220001CN0100001N9-01611+99999099451ADDAA199000691AY181999GA1031+003009099GF108991031091004501021999IA1319KA1999N-01891MD1310181+9999MW1851
0073010890999991952011709004+69717+029883FM-12+008899999V0202001N00051220001CN0400001N9-01781+99999099681ADDAY111999GA1031+013509059GF106991031051012501041001MD1310231+9999MW1401
0073010890999991952011712004+69717+029883FM-12+008899999V0209991C00001220001CN0400001N9-01891+99999099931ADDAY101999GA1021+024009039GF103991021001022501041021MD1310281+9999MW1401
0057010890999991952011715004+69717+029883FM-12+008899999V0209991C00001220001CN0400001N9-02111+99999100151ADDAY101999GF104991001001999999001021MD1310201+9999MW1401
0092010890999991952011718004+69717+029883FM-12+008899999V0201801N00101024001CN0400001N9-01721+99999100371ADDAY121999GA1061+024009009GF108991001001999999001021IA1319KA1999M-01611MD1310221+9999MW1401
0057010890999991952011800004+69717+029883FM-12+008899999V0209991C00001007801CN0400001N9-01781+99999100861ADDAY121999GF108991081001008001021999MD1310221+9999MW1401
0057010890999991952011803004+69717+029883FM-12+008899999V0209991C00001220001CN0400001N9-01891+99999101121ADDAY101999GF100991001001999999001001MD1310251+9999MW1401
0076010890999991952011806004+69717+029883FM-12+008899999V0209991C00001220001CN0400001N9-02391+99999101251ADDAY101999GF100991001001999999001001IA1319KA1999N-02391MD1310131+9999MW1401
0057010890999991952011809004+69717+029883FM-12+008899999V0209991C00001220001CN0400001N9-02611+99999101481ADDAY101999GF100991001001999999001001MD1310231+9999MW1401
0057010890999991952011812004+69717+029883FM-12+008899999V0209991C00001220001CN0400001N9-02611+99999101541ADDAY101999GF101991001001999999001011MD1310051+9999MW1401
0057010890999991952011815004+69717+029883FM-12+008899999V0209991C00001220001CN0600001N9-02501+99999101621ADDAY101999GF101991001001999999001011MD1310081+9999MW1401
0076010890999991952011818004+69717+029883FM-12+008899999V0209991C00001220001CN0600001N9-02501+99999101701ADDAY101999GF101991001001999999001011IA1319KA1999M-02501MD1310081+9999MW1401
0057010890999991952011900004+69717+029883FM-12+008899999V0209991C00001220001CN0700001N9-02721+99999101891ADDAY101999GF101991001001999999001011MD1310131+9999MW1401
0057010890999991952011903004+69717+029883FM-12+008899999V0209991C00001220001CN0700001N9-02721+99999101971ADDAY101999GF101991001001999999001011MD1310081+9999MW1401
0092010890999991952011906004+69717+029883FM-12+008899999V0209991C00001220001CN0700001N9-02001+99999102071ADDAY121999GA1031+015009039GF103991031001017501071011IA1319KA1999N-03111MD1310101+9999MW1401
0073010890999991952011909004+69717+029883FM-12+008899999V0209991C00001220001CN0700001N9-01891+99999102221ADDAY121999GA1031+015009039GF103991031001017501071011MD1310151+9999MW1401
0073010890999991952011912004+69717+029883FM-12+008899999V0209991C00001220001CN0700001N9-01891+99999102371ADDAY121999GA1021+015009039GF104991021001017501071011MD1310151+9999MW1401
0073010890999991952011915004+69717+029883FM-12+008899999V0209991C00001220001CN0600001N9-02001+99999102511ADDAY101999GA1031+015009039GF103991031001022501041001MD1310241+9999MW1401
0076010890999991952011918004+69717+029883FM-12+008899999V0209991C00001220001CN0400001N9-02001+99999102611ADDAY101999GF103991031001022501041001IA1009KA1999M-01891MD1310101+9999MW1401
0057010890999991952012003004+69717+029883FM-12+008899999V0209991C00001220001CN0400001N9-01891+99999102611ADDAY121999GF104991031001017501041999MD1810121+9999MW1401
0087010890999991952012006004+69717+029883FM-12+008899999V0209991C000019999999N0100001N9-01501+99999102391ADDAA199000691AY181999GF108991041091004501071999IA1319KA1999N-02001MD1810221+9999MW1851
0057010890999991952012009004+69717+029883FM-12+008899999V0202301N003119999999N0400001N9-01501+99999102351ADDAY181999GF106991021051012501011999MD1810041+9999MW1021
0057010890999991952012012004+69717+029883FM-12+008899999V0201801N002119999999N0400001N9-01501+99999102251ADDAY181999GF105991031091004501041001MD1810101+9999MW1021
0057010890999991952012015004+69717+029883FM-12+008899999V0202301N00461220001CN0400001N9-00781+99999102091ADDAY111999GF103991031001017501041999MD1810161+9999MW1021
0087010890999991952012018004+69717+029883FM-12+008899999V0203001N00511220001CN0400001N9-00281+99999102141ADDAA199002091AY111999GF104991021081004501041999IA1319KA1999M-00221MD1210051+9999MW1021
0057010890999991952012100004+69717+029883FM-12+008899999V0203601N00511220001CN0600001N9-00281+99999102761ADDAY131999GF104991031031008001041001MD1310281+9999MW1021
0057010890999991952012103004+69717+029883FM-12+008899999V0203601N00511007801CN0600001N9-00281+99999102831ADDAY121999GF106991051031008001041999MD1310071+9999MW1021
0127010890999991952012106004+69717+029883FM-12+008899999V0209991C00001220001CN0700001N9-00781+99999102811ADDAY121999GA1031+006009099GF106991051031008001041999IA1319KA1999N-00781MD1710021+9999MW1021EQDQ01+000032APCTENQ02+000002APC3  
0073010890999991952012109004+69717+029883FM-12+008899999V0201801N00101220001CN0400001N9-01001+99999102671ADDAY121999GA1031+007509059GF108991031051008001021999MD1990141+9999MW1161
0073010890999991952012112004+69717+029883FM-12+008899999V0202001N00261015001CN0040001N9-00781+99999102191ADDAY171999GA1081+015009049GF108991031051004501021999MD1810481+9999MW1731
0073010890999991952012115004+69717+029883FM-12+008899999V0202201N00261015001CN0200001N9-00611+99999101921ADDAY121999GA1061+015009049GF107991031051004501021999MD1810271+9999MW1151
0087010890999991952012118004+69717+029883FM-12+008899999V0202801N007219999999N0040001N9-00391+99999101361ADDAA199001091AY181999GF108991031091004501021999IA1319KA1999M-00391MD1810261+9999MW1851
0076010890999991952012200004+69717+029883FM-12+008899999V0202801N00671220001CN0700001N9-00111+99999100871ADDAY111999GF102991999001999999041001MD1710261+9999MW1021EQDQ01+000002SCOTLC
0076010890999991952012203004+69717+029883FM-12+008899999V0202801N00931220001CN0700001N9+00001+99999100821ADDAY121999GF103991999001999999041001MD1810051+9999MW1021EQDQ01+000002SCOTLC
0092010890999991952012206004+69717+029883FM-12+008899999V0202801N00931220001CN0160001N9+00221+99999100681ADDAY121999GA1031+006009099GF107991031091004501021999IA1319KA1999N-00391MD1810141+9999MW1151
0073010890999991952012209004+69717+029883FM-12+008899999V0202801N00821220001CN0200001N9+00281+99999100571ADDAY181999GA1031+006009099GF108991031091004501021999MD1810111+9999MW1151
0073010890999991952012212004+69717+029883FM-12+008899999V0202801N00821220001CN0700001N9+00391+99999100501ADDAY121999GA1031+006009099GF107991031091004501021999MD1810071+9999MW1021
0073010890999991952012215004+69717+029883FM-12+008899999V0202601N00461220001CN0600001N9+00221+99999100471ADDAY121999GA1031+006009099GF107991031091004501071999MD1710031+9999MW1021
0087010890999991952012218004+69717+029883FM-12+008899999V0202601N006219999999N0400001N9+00111+99999100521ADDAA199000591AY121999GF108991031091004501021999IA1319KA1999M+00391MD1210051+9999MW1021
0057010890999991952012300004+69717+029883FM-12+008899999V0202601N001019999999N0400001N9-00111+99999100911ADDAY121999GF108991031091004501021999MD1210031+9999MW1021
0057010890999991952012303004+69717+029883FM-12+008899999V0202401N004619999999N0400001N9-00111+99999100521ADDAY121999GF108991031091004501021999MD1710391+9999MW1021
0103010890999991952012306004+69717+029883FM-12+008899999V0209991C00001005401CN0080001N9-00281+99999100431ADDAA199000591AY181999GA1051+005409099GF108991051091004501021999IA1319KA1999N-00281MD1810091+9999MW1851
0073010890999991952012309004+69717+029883FM-12+008899999V0209991C00001005401CN0120001N9-00281+99999100391ADDAY181999GA1051+005409099GF108991051091004501021999MD1810041+9999MW1851
0073010890999991952012312004+69717+029883FM-12+008899999V0209991C00001005401CN0040001N9-00221+99999100331ADDAY181999GA1051+005409099GF108991051091004501021999MD1810061+9999MW1861
0073010890999991952012315004+69717+029883FM-12+008899999V0209991C00001220001CN0140001N9-00501+99999100131ADDAY181999GA1041+005409099GF108991051091004501021999MD1710201+9999MW1101
0087010890999991952012318004+69717+029883FM-12+008899999V0202801N00261004501CN0400001N9-00391+99999099961ADDAA199002091AY111999GF108991051081004501021999IA1319KA1999M-00221MD1810171+9999MW1021
0057010890999991952012400004+69717+029883FM-12+008899999V0203201N002619999999N0600001N9-00501+99999099541ADDAY121999GF108991031091008001021999MD1710201+9999MW1021
0057010890999991952012403004+69717+029883FM-12+008899999V0203201N003119999999N0600001N9-00611+99999099261ADDAY121999GF108991031091008001021999MD1710281+9999MW1021
0092010890999991952012406004+69717+029883FM-12+008899999V0203601N00621220001CN0600001N9-00611+99999099001ADDAY121999GA1031+006009099GF108991041091008001021999IA1319KA1999N-00721MD1710261+9999MW1021
0073010890999991952012409004+69717+029883FM-12+008899999V0203401N00671220001CN0700001N9-00781+99999098931ADDAY111999GA1031+006009099GF105991031091008001041021MD1610071+9999MW1021
0089010890999991952012412004+69717+029883FM-12+008899999V0203401N00671220001CN0700001N9-01221+99999099021ADDAY101999GA1011+006009099GA2011+007509089GF103991021031008001001021MD1210101+9999MW1011
0073010890999991952012415004+69717+029883FM-12+008899999V0209991C00001220001CN0700001N9-01391+99999099051ADDAY101999GA1021+021009039GF102991021001017501061001MD1210031+9999MW1011
0076010890999991952012418004+69717+029883FM-12+008899999V0209991C00001220001CN0700001N9-01611+99999099061ADDAY101999GF102991021001017501061001IA1319KA1999M-00721MD1210011+9999MW1021
0076010890999991952012500004+69717+029883FM-12+008899999V0209991C00001220001CN0700001N9-01781+99999099071ADDAY101999GF100991001001999999001001MD1210011+9999MW1001EQDQ01+000902SCOLCB
0076010890999991952012503004+69717+029883FM-12+008899999V0209991C00001220001CN0700001N9-01781+99999099231ADDAY101999GF100991001001999999001001MD1310161+9999MW1001EQDQ01+000902SCOLCB
0076010890999991952012506004+69717+029883FM-12+008899999V0201801N00101220001CN0700001N9-01501+99999099321ADDAY121999GF102991021001017501041001IA1319KA1999N-01781MD1310091+9999MW1031
0073010890999991952012509004+69717+029883FM-12+008899999V0201801N00101220001CN0700001N9-01611+99999099501ADDAY121999GA1011+004209079GF104991041061002501041041MD1310181+9999MW1021
0073010890999991952012512004+69717+029883FM-12+008899999V0209991C00001220001CN0700001N9-01611+99999099641ADDAY121999GA1011+006009079GF104991021061004501051041MD1310141+9999MW1021
0073010890999991952012515004+69717+029883FM-12+008899999V0209991C00001220001CN0600001N9-01721+99999099691ADDAY121999GA1021+003009079GF104991021061002501041001MD1310051+9999MW1021
0095010890999991952012518004+69717+029883FM-12+008899999V0201801N00101220001CN0600001N9-01501+99999099701ADDAY121999GF104991021061002501041001IA1319KA1999M+99999MD1310011+9999MW1021EQDQ01 -01782ATMX  
0057010890999991952012600004+69717+029883FM-12+008899999V0209991C000019999999N0400001N9-01111+99999099641ADDAY121999GF106991021051008001041999MD1810021+9999MW1021
0057010890999991952012603004+69717+029883FM-12+008899999V0209991C000019999999N0400001N9-01001+99999099581ADDAY121999GF108991021051008001021999MD1810061+9999MW1021
0103010890999991952012606004+69717+029883FM-12+008899999V0209991C00001013501CN0060001N9-00781+99999099511ADDAA199000391AY171999GA1081+013509049GF108991081001017501021999IA1319KA1999N-01611MD1810071+9999MW1711
0073010890999991952012609004+69717+029883FM-12+008899999V0209991C00001012001CN0060001N9-00891+99999099581ADDAY171999GA1081+012009049GF108991081001012501021999MD1210071+9999MW1711
0073010890999991952012612004+69717+029883FM-12+008899999V0209991C00001013501CN0200001N9-00781+99999099681ADDAY171999GA1081+013509049GF108991081001012501021999MD1310101+9999MW1711
0073010890999991952012615004+69717+029883FM-12+008899999V0202401N00461220001CN0600001N9-00721+99999099761ADDAY111999GA1021+006009089GF105991031081008001041001MD1210081+9999MW1011
0087010890999991952012618004+69717+029883FM-12+008899999V0202501N00101220001CN0600001N9-00781+99999099821ADDAA199000391AY101999GF103991021081008001041001IA1319KA1999M-00611MD1210061+9999MW1021
0057010890999991952012703004+69717+029883FM-12+008899999V0202501N00261220001CN0400001N9-00611+99999100211ADDAY121999GF103991011081008001041001MD1310081+9999MW1021
0076010890999991952012706004+69717+029883FM-12+008899999V0202501N00261220001CN0400001N9-00781+99999100351ADDAY131999GF104991031031008001041001IA1319KA1999N-01001MD1310151+9999MW1021
0057010890999991952012709004+69717+029883FM-12+008899999V0202701N003619999999N0400001N9-00891+99999100511ADDAY111999GF108991031091008001071021MD1310151+9999MW1021
0057010890999991952012712004+69717+029883FM-12+008899999V0202501N002619999999N0400001N9-00781+99999100601ADDAY121999GF108991031091008001011999MD1310091+9999MW1021
0057010890999991952012715004+69717+029883FM-12+008899999V0209991C000019999999N0400001N9-00781+99999100631ADDAY111999GF108991031051008001071999MD1310031+9999MW1021
0095010890999991952012718004+69717+029883FM-12+008899999V0209991C000019999999N0400001N9-00781+99999100631ADDAY111999GF107991031081008001041001IA1319KA1999M-00781MD1410001+9999MW1021EQDQ01+000032APCTEN
0057010890999991952012800004+69717+029883FM-12+008899999V0209991C000019999999N0700001N9-00611+99999100711ADDAY121999GF108991031041017501071999MD1310031+9999MW1021
0057010890999991952012803004+69717+029883FM-12+008899999V0209991C000019999999N0700001N9-00611+99999100731ADDAY121999GF108991031041017501071999MD1310021+9999MW1021
0092010890999991952012806004+69717+029883FM-12+008899999V0209991C00001220001CN0700001N9-00721+99999100751ADDAY121999GA1031+018009059GF108991031041017501071999IA1319KA1999N-00721MD1310021+9999MW1021
0073010890999991952012809004+69717+029883FM-12+008899999V0209991C00001220001CN0700001N9-00721+99999100761ADDAY121999GA1031+018009059GF108991031041017501071999MD1310011+9999MW1021
0073010890999991952012812004+69717+029883FM-12+008899999V0209991C00001220001CN0160001N9-00721+99999100811ADDAY181999GA1031+006009099GF108991031091004501071999MD1310041+9999MW1701
0073010890999991952012815004+69717+029883FM-12+008899999V0209991C00001220001CN0200001N9-00781+99999100831ADDAY181999GA1041+005409099GF108991041091004501021999MD1310021+9999MW1151
0087010890999991952012818004+69717+029883FM-12+008899999V0202301N001019999999N0120001N9-00781+99999100861ADDAA199000691AY181999GF108991041091004501021999IA1319KA1999M-00611MD1310031+9999MW1851
0094010890999991952012900004+69717+029883FM-12+008899999V0202301N002619999999N0120001N9-00891+99999100891ADDAY181999GF108991041091999999051999MW1851EQDQ01+000992SCOLCBQ02+000032APCTENQ03+000002APC3  
0057010890999991952012903004+69717+029883FM-12+008899999V0209991C00001220001CN0400001N9-01001+99999100871ADDAY181999GF103991031001017501041999MD1710021+9999MW1021
0103010890999991952012906004+69717+029883FM-12+008899999V0209991C00001220001CN0400001N9-00891+99999100821ADDAA199001091AY121999GA1041+006009099GF108991041091004501021999IA1319KA1999N-01001MD1710051+9999MW1021
0073010890999991952012909004+69717+029883FM-12+008899999V0209991C00001220001CN0400001N9-00891+99999100831ADDAY121999GA1031+006009099GF108991031091004501071999MD1210011+9999MW1151
0073010890999991952012912004+69717+029883FM-12+008899999V0201801N00101220001CN0400001N9-01111+99999100841ADDAY111999GA1041+012009059GF108991041051012501011999MD1310011+9999MW1021
0076010890999991952012915004+69717+029883FM-12+008899999V0209991C00001220001CN0160001N9-01281+99999100841ADDAY101999GF102991001001999999001021MD1410001+9999MW1101EQDQ01+000032APCTEN
0087010890999991952012918004+69717+029883FM-12+008899999V0209991C00001015001CN0160001N9-01221+99999100861ADDAA199000691AY111999GF108991081001017501021999IA1319KA1999M-00891MD1310021+9999MW1151
0057010890999991952013000004+69717+029883FM-12+008899999V0209991C00001001501CN0060001N9-01221+99999100811ADDAY141999GF108991081061001501999999MD1710051+9999MW1101
0057010890999991952013003004+69717+029883FM-12+008899999V0202801N00101001501CN0060001N9-01221+99999100471ADDAY141999GF108991081061001501999999MD1710341+9999MW1101
0087010890999991952013006004+69717+029883FM-12+008899999V0203001N00261007801CN0040001N9-00611+99999100191ADDAA199001091AY171999GF108991081001008001021999IA1319KA1999N-01281MD1810281+9999MW1721
0073010890999991952013009004+69717+029883FM-12+008899999V0203001N00101007501CN0020001N9-00891+99999100131ADDAY171999GA1081+007509049GF108991081001008001021999MD1710061+9999MW1741
0073010890999991952013012004+69717+029883FM-12+008899999V0209991C00001015001CN0160001N9-00781+99999100091ADDAY171999GA1081+015009049GF108991081001017501021999MD1810041+9999MW1151
0092010890999991952013015004+69717+029883FM-12+008899999V0209991C00001220001CN0160001N9-01001+99999100061ADDAY121999GA1021+006009099GF108991999091004501021999MD1810031+9999MW1151EQDQ01+000082SCOTLC
0087010890999991952013018004+69717+029883FM-12+008899999V0209991C00001007801CN0140001N9-00891+99999100051ADDAA199004091AY171999GF108991081001008001021999IA1319KA1999M-00611MD1810011+9999MW1701
0057010890999991952013100004+69717+029883FM-12+008899999V0209991C00001012301CN0700001N9-00891+99999099991ADDAY121999GF108991081001012501021999MD1810031+9999MW1031
0057010890999991952013103004+69717+029883FM-12+008899999V0209991C00001012301CN0700001N9-00891+99999099971ADDAY121999GF108991081001012501021999MD1810021+9999MW1021
0092010890999991952013106004+69717+029883FM-12+008899999V0209991C00001220001CN0160001N9-01281+99999100061ADDAY111999GA1041+009009099GF106991041091008001021001IA1319KA1999N-01281MD1510091+9999MW1151
0092010890999991952013109004+69717+029883FM-12+008899999V0202401N00101220001CN0700001N9-01501+99999100161ADDAY121999GA1021+018009039GF104991999001012501061001MD1310101+9999MW1021EQDQ01+000022SCOTLC
0076010890999991952013112004+69717+029883FM-12+008899999V0202401N00101220001CN0700001N9-01501+99999100131ADDAY111999GF102991999001999999041001MD1710031+9999MW1401EQDQ01+000002SCOTLC
0092010890999991952013115004+69717+029883FM-12+008899999V0202301N00101220001CN0600001N9-01721+99999100131ADDAY121999GA1031+018009039GF103991031001022501041001MD1410001+9999MW1401EQDQ01+000032APCTEN
0087010890999991952013118004+69717+029883FM-12+008899999V0209991C00001007801CN0200001N9-01281+99999100051ADDAA199000691AY171999GF108991051051008001021999IA1319KA1999M-01281MD1710081+9999MW1701
0057010890999991952020100004+69717+029883FM-12+008899999V0209991C000019999999N0400001N9-01221+99999100121ADDAY121999GF108991031061002501021999MD1710051+9999MW1021
0057010890999991952020103004+69717+029883FM-12+008899999V0202301N010319999999N0400001N9-01001+99999100031ADDAY121999GF108991041091004501021999MD1710091+9999MW1021
0103010890999991952020106004+69717+029883FM-12+008899999V0202301N00311220001CN0200001N9-00781+99999100141ADDAA199000691AY171999GA1031+005409099GF108991031091004501021999IA1319KA1999N-01721MD1210111+9999MW1701
0073010890999991952020109004+69717+029883FM-12+008899999V0202601N00101009001CN0160001N9-00781+99999100211ADDAY171999GA1081+009009049GF108991081001008001021999MD1210071+9999MW1711
0073010890999991952020112004+69717+029883FM-12+008899999V0209991C00001220001CN0700001N9-01001+99999100271ADDAY101999GA1021+013509059GF103991011051012501041001MD1210061+9999MW1021
0073010890999991952020115004+69717+029883FM-12+008899999V0209991C00001220001CN0700001N9-01111+99999100301ADDAY101999GA1011+013509059GF103991011051012501041001MD1210031+9999MW1021
0087010890999991952020118004+69717+029883FM-12+008899999V0202401N001019999999N0400001N9-01111+99999100311ADDAA199000691AY111999GF108991031051008001071999IA1319KA1999M-00781MD1310011+9999MW1151
0057010890999991952020200004+69717+029883FM-12+008899999V0209991C00001220001CN0700001N9-01221+99999100411ADDAY101999GF100991001001999999001001MD1310051+9999MW1021
0057010890999991952020203004+69717+029883FM-12+008899999V0209991C000019999999N0400001N9-01221+99999100431ADDAY111999GF108991031051008001071999MD1310021+9999MW1021
0127010890999991952020206004+69717+029883FM-12+008899999V0209991C00001012001CN0400001N9-00891+99999100421ADDAY121999GA1081+012009049GF108991081001012501021999IA1319KA1999N-01391MD1710011+9999MW1021EQDQ01+000032APCTENQ02+000002APC3  
0073010890999991952020209004+69717+029883FM-12+008899999V0202001N00101220001CN0400001N9-00721+99999100481ADDAY121999GA1031+006009099GF108991041091008001071999MD1310051+9999MW1151
0073010890999991952020212004+69717+029883FM-12+008899999V0201801N00101220001CN0400001N9-00721+99999100561ADDAY121999GA1021+006009099GF104991021031008001041021MD1310081+9999MW1151
0073010890999991952020215004+69717+029883FM-12+008899999V0209991C00001220001CN0400001N9-00781+99999100521ADDAY121999GA1021+006009099GF105991021031008001041001MD1710041+9999MW1151
0095010890999991952020218004+69717+029883FM-12+008899999V0209991C00001220001CN0400001N9-01111+99999100511ADDAY101999GF100991001001999999001001IA1319KA1999M-00611MD1710011+9999MW1101EQDQ01+000902SCOLCB
0057010890999991952020303004+69717+029883FM-12+008899999V0209991C00001220001CN0700001N9-00781+99999100271ADDAY121999GF103991031091004501001001MD1810121+9999MW1021
0103010890999991952020306004+69717+029883FM-12+008899999V0209991C00001220001CN0160001N9-00721+99999100171ADDAA199000391AY171999GA1031+006009099GF108991031091004501021999IA1319KA1999N-00721MD1810101+9999MW1701
0076010890999991952020312004+69717+029883FM-12+008899999V0209991C000019999999N0200001N9-00721+99999100031ADDAY121999GF108991999001022501021999MD1810141+9999MW1151EQDQ01+000002SCOTLC
0106010890999991952020318004+69717+029883FM-12+008899999V0209991C000019999999N0700001N9-00721+99999100011ADDAA199000691AY121999GF108991999001022501021999IA1319KA1999M-00721MD1810021+9999MW1021EQDQ01+000002SCOTLC
0073010890999991952020403004+69717+029883FM-12+008899999V0202601N00721220001CN0700001N9-00391+99999100141ADDAY121999GA1031+006009099GF107991031091004501021999MD1210071+9999MW1021
0092010890999991952020406004+69717+029883FM-12+008899999V0202601N00411220001CN0160001N9-00391+99999100211ADDAY121999GA1031+006009099GF108991031091004501021999IA1319KA1999N-00891MD1310071+9999MW1151
0073010890999991952020412004+69717+029883FM-12+008899999V0202601N00211220001CN0200001N9-00281+99999100421ADDAY121999GA1031+006009099GF108991031091004501021999MD1310211+9999MW1151
0095010890999991952020418004+69717+029883FM-12+008899999V0202601N00211220001CN0700001N9-00391+99999100581ADDAY111999GF104991999001022501061001IA1319KA1999M-00281MD1310161+9999MW1011EQDQ01+000002SCOTLC
0057010890999991952020503004+69717+029883FM-12+008899999V0209991C000019999999N0700001N9-00281+99999100931ADDAY121999GF108991031041008001071999MD1310081+9999MW1031
0111010890999991952020506004+69717+029883FM-12+008899999V0202801N00511220001CN0700001N9-00391+99999101051ADDAY111999GA1031+012009059GF108991031041008001071001IA1319KA1999N+99999MD1310121+9999MW1021EQDQ01 -00282ATMN  
0073010890999991952020512004+69717+029883FM-12+008899999V0202801N00211220001CN0400001N9-00391+99999101131ADDAY121999GA1021+006009099GF108991021091004501071999MD1310081+9999MW1151
0076010890999991952020518004+69717+029883FM-12+008899999V0202801N005119999999N0400001N9-00501+99999101161ADDAY121999GF108991021091004501021999IA1319KA1999M-00391MD1310031+9999MW1151
0076010890999991952020603004+69717+029883FM-12+008899999V0203201N001019999999N0700001N9-00721+99999101271ADDAY121999GF108991999001022501021999MD1210011+9999MW1021EQDQ01+000002SCOTLC
0111010890999991952020606004+69717+029883FM-12+008899999V0209991C000019999999N0060001N9-00891+99999101251ADDAY121999GF108991999001022501021999IA1319KA1999N+99999MD1710021+9999MW1101EQDQ01+000002SCOTLCQ02 -00392ATMN  
0092010890999991952020612004+69717+029883FM-12+008899999V0209991C00001220001CN0700001N9-00891+99999101061ADDAY111999GA1041+015009059GF104991041041017501999001MD1810081+9999MW1011EQDQ01    003SCOMCG
0087010890999991952020618004+69717+029883FM-12+008899999V0209991C000019999999N0700001N9-00781+99999100631ADDAA199000691AY121999GF108991031031008001021999IA1319KA1999M-00721MD1810201+9999MW1021
0057010890999991952020703004+69717+029883FM-12+008899999V0209991C000019999999N0600001N9-00891+99999099761ADDAY121999GF108991031091008001071999MD1810201+9999MW1021
0092010890999991952020706004+69717+029883FM-12+008899999V0209991C00001220001CN0600001N9-00891+99999099381ADDAY121999GA1021+009009099GF108991021091008001071999IA1319KA1999N-00891MD1810381+9999MW1021
0073010890999991952020712004+69717+029883FM-12+008899999V0201601N00211220001CN0050001N9-00781+99999098891ADDAY171999GA1021+006009099GF108991021091004501021999MD1810301+9999MW1731
0103010890999991952020718004+69717+029883FM-12+008899999V0201601N00211220001CN0060001N9-00721+99999098351ADDAA199006091AY171999GA1021+006009099GF108991021091004501021999IA1319KA1999M-00721MD1810261+9999MW1731
0057010890999991952020803004+69717+029883FM-12+008899999V0201601N003119999999N0160001N9-00721+99999098071ADDAY171999GF108991021091004501021999MD1810051+9999MW1151
0103010890999991952020806004+69717+029883FM-12+008899999V0209991C00001220001CN0200001N9-00611+99999098141ADDAA199002091AY121999GA1041+006009099GF108991041091004501021999IA1319KA1999N-00721MD1510071+9999MW1151
0073010890999991952020812004+69717+029883FM-12+008899999V0202601N00101220001CN0400001N9-00611+99999098431ADDAY121999GA1031+006009099GF107991031091004501071999MD1310151+9999MW1151
0103010890999991952020818004+69717+029883FM-12+008899999V0209991C00001220001CN0700001N9-00721+99999098841ADDAA199000691AY121999GA1031+006009099GF108991031091004501071999IA1319KA1999M-00391MD1310211+9999MW1021
0057010890999991952020903004+69717+029883FM-12+008899999V0209991C000019999999N0200001N9-00721+99999099201ADDAY121999GF105991021091004501071001MD1310161+9999MW1151
0103010890999991952020906004+69717+029883FM-12+008899999V0209991C00001220001CN0160001N9-00891+99999099341ADDAA199000691AY121999GA1041+006009099GF108991041091004501071999IA1009KA1999N-01001MD1310141+9999MW1151
0073010890999991952020912004+69717+029883FM-12+008899999V0202801N00101220001CN0200001N9-00891+99999099461ADDAY121999GA1021+009009059GF106991021041008001071021MD1310041+9999MW1101
0087010890999991952020918004+69717+029883FM-12+008899999V0209991C000019999999N0400001N9-00611+99999099591ADDAA199000691AY121999GF108991031091004501021999IA1319KA1999M-00611MD1310131+9999MW1021
0087010890999991952021006004+69717+029883FM-12+008899999V0200501N002119999999N0120001N9-00221+99999099671ADDAA199001091AY171999GF108991031091004501021999IA1319KA1999N-01001MD1710101+9999MW1721
0057010890999991952021009004+69717+029883FM-12+008899999V0200701N004619999999N0100001N9-00221+99999099401ADDAY171999GF108991031091004501021999MD1710271+9999MW1721
0057010890999991952021012004+69717+029883FM-12+008899999V0200501N006719999999N0160001N9-00221+99999099141ADDAY181999GF108991041091004501021999MD1810261+9999MW1851
0057010890999991952021015004+69717+029883FM-12+008899999V0200501N004619999999N0090001N9-00281+99999098961ADDAY171999GF108991031091004501021999MD1810181+9999MW1721
0087010890999991952021018004+69717+029883FM-12+008899999V0200501N002619999999N0100001N9-00501+99999098781ADDAA199001091AY171999GF108991031091004501021999IA1319KA1999M-00221MD1810181+9999MW1721
0078010890999991952021100004+69717+029883FM-12+008899999V0201801N001019999999N0400001N9-00611+99999098821ADDAY181999GF107991031091008001071999MW1151EQDQ01+000032APCTENQ02+000002APC3  
0057010890999991952021103004+69717+029883FM-12+008899999V0201801N002619999999N0400001N9-00611+99999098891ADDAY121999GF108991021091008001071999MD1310071+9999MW1021
0103010890999991952021106004+69717+029883FM-12+008899999V0201601N00461220001CN0200001N9-00611+99999099041ADDAA199001091AY181999GA1031+006009099GF108991041091008001021999IA1319KA1999N-00721MD1310151+9999MW1151
0073010890999991952021109004+69717+029883FM-12+008899999V0201801N00261220001CN0120001N9-00501+99999099281ADDAY181999GA1041+006009099GF108991041091008001021999MD1310251+9999MW1851
0073010890999991952021112004+69717+029883FM-12+008899999V0201801N00101220001CN0160001N9-00281+99999099531ADDAY181999GA1041+006009099GF106991041091008001041001MD1310251+9999MW1151
0073010890999991952021115004+69717+029883FM-12+008899999V0201801N00721220001CN0160001N9-00281+99999099831ADDAY121999GA1031+006009099GF108991041091004501021999MD1310301+9999MW1151
0103010890999991952021118004+69717+029883FM-12+008899999V0201601N00721220001CN0200001N9-00281+99999100051ADDAA199001091AY131999GA1031+006009099GF106991031091004501061001IA1319KA1999M-00221MD1310221+9999MW1151
0057010890999991952021200004+69717+029883FM-12+008899999V0201401N007219999999N0140001N9-00501+99999100221ADDAY121999GF108991031091004501021999MD1310111+9999MW1701
0057010890999991952021203004+69717+029883FM-12+008899999V0201401N00101220001CN0600001N9-00611+99999100331ADDAY111999GF104991021091008001041001MD1310111+9999MW1011
0103010890999991952021206004+69717+029883FM-12+008899999V0201601N00211220001CN0600001N9-00501+99999100461ADDAA199000691AY121999GA1021+009009099GF107991021091008001071999IA1319KA1999N-00611MD1310131+9999MW1031
0092010890999991952021209004+69717+029883FM-12+008899999V0209991C00001220001CN0700001N9-00891+99999100581ADDAY121999GA1021+009009099GF103991999091008001001001MD1310121+9999MW1021EQDQ01+000022SCOTLC
0073010890999991952021212004+69717+029883FM-12+008899999V0201801N00101220001CN0700001N9-00891+99999100661ADDAY121999GA1021+009009089GF105991021081008001041021MD1310081+9999MW1031
0092010890999991952021215004+69717+029883FM-12+008899999V0209991C00001220001CN0400001N9-00781+99999100661ADDAY121999GA1031+010509059GF108991031051008001071999MD1410001+9999MW1031EQDQ01+000032APCTEN
0076010890999991952021218004+69717+029883FM-12+008899999V0201801N001019999999N0400001N9-00891+99999100521ADDAY121999GF108991031051008001071999IA1319KA1999M-00501MD1710141+9999MW1021
0057010890999991952021300004+69717+029883FM-12+008899999V0209991C000019999999N0080001N9-00611+99999100261ADDAY171999GF108991031051008001021999MD1710201+9999MW1721
0057010890999991952021303004+69717+029883FM-12+008899999V0209991C00001015001CN0400001N9-00611+99999100321ADDAY171999GF108991081001017501021999MD1210061+9999MW1021
0103010890999991952021306004+69717+029883FM-12+008899999V0209991C00001220001CN0200001N9-00781+99999100301ADDAA199002091AY121999GA1031+010509059GF108991031051008001021999IA1319KA1999N-00891MD1710021+9999MW1101
0073010890999991952021309004+69717+029883FM-12+008899999V0209991C00001006001CN0040001N9-00611+99999100281ADDAY171999GA1081+006009049GF108991081001004501021999MD1710021+9999MW1721
0073010890999991952021312004+69717+029883FM-12+008899999V0209991C00001220001CN0400001N9-00501+99999100261ADDAY121999GA1021+006909099GF106991021091004501061001MD1710021+9999MW1151
0092010890999991952021315004+69717+029883FM-12+008899999V0201601N00151220001CN0400001N9-00501+99999100271ADDAY121999GA1021+006009099GF105991021091008001041001MD1210011+9999MW1021EQDQ01+000002APC3  
0087010890999991952021318004+69717+029883FM-12+008899999V0209991C00001220001CN0700001N9-00721+99999100351ADDAA199001091AY101999GF103991011061012501041001IA1319KA1999M-00391MD1210081+9999MW1021
0078010890999991952021400004+69717+029883FM-12+008899999V0201601N001019999999N0400001N9-00721+99999100391ADDAY121999GF108991031081008001071999MW1021EQDQ01+000022APCTENQ02+000002APC3  
0057010890999991952021403004+69717+029883FM-12+008899999V0201601N005119999999N0400001N9-00721+99999100351ADDAY121999GF108991031081008001071999MD1710041+9999MW1021
0103010890999991952021406004+69717+029883FM-12+008899999V0201801N00461220001CN0200001N9-00611+99999100391ADDAA199000691AY111999GA1031+004509099GF108991031091004501021999IA1319KA1999N-01001MD1210041+9999MW1151
0073010890999991952021409004+69717+029883FM-12+008899999V0202201N00101220001CN0700001N9-01111+99999100471ADDAY101999GA1011+009009089GF102991011011008001041001MD1310081+9999MW1021
0073010890999991952021412004+69717+029883FM-12+008899999V0202401N00261220001CN0700001N9-01001+99999100501ADDAY111999GA1011+009009089GF104991011011008001051051MD1310031+9999MW1031
0073010890999991952021415004+69717+029883FM-12+008899999V0209991C00001220001CN0700001N9-01111+99999100511ADDAY121999GA1021+009009089GF103991021011008001061001MD1210011+9999MW1021
0076010890999991952021418004+69717+029883FM-12+008899999V0209991C00001220001CN0700001N9-01111+99999100531ADDAY101999GF100991001001999999001001IA1319KA1999M-00611MD1210021+9999MW1001
0076010890999991952021500004+69717+029883FM-12+008899999V0201601N001019999999N0700001N9-00721+99999100591ADDAY121999GF108991999001022501021999MD1210031+9999MW1031EQDQ01+000002SCOTLC
0076010890999991952021503004+69717+029883FM-12+008899999V0201801N01131220001CN0700001N9-00611+99999100561ADDAY111999GF103991999001022501071001MD1710031+9999MW1011EQDQ01+000002SCOTLC
0092010890999991952021506004+69717+029883FM-12+008899999V0201801N00511220001CN0600001N9-00611+99999100701ADDAY121999GA1031+009009099GF106991021091008001071001IA1319KA1999N-01111MD1310141+9999MW1031
0073010890999991952021509004+69717+029883FM-12+008899999V0202001N00511220001CN0400001N9-00721+99999100841ADDAY121999GA1021+009009099GF104991021091008001071011MD1310141+9999MW1151
0073010890999991952021512004+69717+029883FM-12+008899999V0202001N00411220001CN0700001N9-00721+99999100901ADDAY121999GA1021+009009099GF104991021091008001071011MD1310061+9999MW1021
0092010890999991952021515004+69717+029883FM-12+008899999V0202001N00931220001CN0600001N9-00391+99999100901ADDAY121999GA1041+010509059GF107991041051008001061999MD1410001+9999MW1021EQDQ01+000032APCTEN
0076010890999991952021518004+69717+029883FM-12+008899999V0202001N002119999999N0600001N9-00501+99999100921ADDAY121999GF106991031081008001061999IA1319KA1999M-00391MD1310021+9999MW1021
0057010890999991952021600004+69717+029883FM-12+008899999V0202001N009319999999N0400001N9-00391+99999100881ADDAY181999GF108991041091004501021999MD1710041+9999MW1021
0057010890999991952021603004+69717+029883FM-12+008899999V0202001N009319999999N0400001N9-00391+99999100871ADDAY121999GF108991041091004501021999MD1710011+9999MW1021
0103010890999991952021606004+69717+029883FM-12+008899999V0202301N00461220001CN0400001N9-00391+99999100861ADDAA199000691AY121999GA1031+010509059GF106991031051008001041001IA1319KA1999N-00611MD1710011+9999MW1021
0073010890999991952021609004+69717+029883FM-12+008899999V0203001N00461220001CN0600001N9-00501+99999100911ADDAY121999GA1031+010509059GF106991031061008001041001MD1210051+9999MW1021
0073010890999991952021612004+69717+029883FM-12+008899999V0202301N00311220001CN0600001N9-00501+99999100951ADDAY121999GA1031+010509059GF106991031051008001071999MD1210041+9999MW1021
0073010890999991952021615004+69717+029883FM-12+008899999V0201801N00101220001CN0600001N9-00611+99999100891ADDAY121999GA1011+009009059GF105991011061008001071001MD1710081+9999MW1021
0076010890999991952021618004+69717+029883FM-12+008899999V0201801N00101220001CN0600001N9-00891+99999100891ADDAY101999GF103991011061008001041001IA1319KA1999M-00391MD1510021+9999MW1011
0057010890999991952021703004+69717+029883FM-12+008899999V0201801N00261007801CN0400001N9-00891+99999100511ADDAY171999GF108991051081008001021999MD1710181+9999MW1151
0087010890999991952021706004+69717+029883FM-12+008899999V0201601N00261007801CN0100001N9-00721+99999100441ADDAA199001091AY181999GF108991051091008001071999IA1319KA1999N-01001MD1810071+9999MW1851
0076010890999991952021709004+69717+029883FM-12+008899999V0201801N001519999999N0120001N9-00501+99999100441ADDAY181999GF106991041091004501061001MD1410001+9999MW1151EQDQ01+000022APCTEN
0057010890999991952021712004+69717+029883FM-12+008899999V0202001N00461220001CN0700001N9-00721+99999100681ADDAY181999GF102991011011008001041001MD1210241+9999MW1011
0057010890999991952021715004+69717+029883FM-12+008899999V0201801N00261220001CN0700001N9-00891+99999100881ADDAY101999GF102991011011008001041001MD1210201+9999MW1021
0106010890999991952021718004+69717+029883FM-12+008899999V0201601N00101220001CN0700001N9-01001+99999101041ADDAA199000591AY101999GF101991999001999999041001IA1319KA1999M-00391MD1210161+9999MW1011EQDQ01+000002SCOTLC
0057010890999991952021800004+69717+029883FM-12+008899999V0209991C00001220001CN0700001N9-01221+99999101111ADDAY101999GF100991001001999999001001MD1210031+9999MW1001
0076010890999991952021803004+69717+029883FM-12+008899999V0209991C00001220001CN0700001N9-01221+99999101111ADDAY101999GF100991001001999999001001MD1410001+9999MW1001EQDQ01+000032APCTEN
0092010890999991952021806004+69717+029883FM-12+008899999V0209991C00001220001CN0600001N9-01281+99999101051ADDAY121999GA1021+009009099GF104991021031008001041001IA1319KA1999N-01391MD1710061+9999MW1151
0073010890999991952021809004+69717+029883FM-12+008899999V0201801N00101220001CN0600001N9-01221+99999101071ADDAY121999GA1021+009009099GF103991021091008001041001MD1210021+9999MW1151
0073010890999991952021812004+69717+029883FM-12+008899999V0201601N00101220001CN0700001N9-00891+99999101191ADDAY121999GA1021+009009089GF104991021081008001041001MD1310121+9999MW1021
0073010890999991952021815004+69717+029883FM-12+008899999V0202301N00101220001CN0600001N9-00891+99999101101ADDAY121999GA1041+009009089GF106991041081008001041999MD1710091+9999MW1021
0087010890999991952021818004+69717+029883FM-12+008899999V0202301N00101007801CN0400001N9-00721+99999100981ADDAA199000691AY121999GF108991051081008001041999IA1319KA1999M-00721MD1710121+9999MW1021
0057010890999991952021900004+69717+029883FM-12+008899999V0202301N004619999999N0400001N9-00611+99999100811ADDAY121999GF105991031081008001041999MD1810101+9999MW1021
0076010890999991952021903004+69717+029883FM-12+008899999V0202001N002619999999N0400001N9-00611+99999100811ADDAY121999GF106991031081008001041999MD1410001+9999MW1021EQDQ01+000032APCTEN
0106010890999991952021906004+69717+029883FM-12+008899999V0201801N001019999999N0160001N9-00721+99999100811ADDAA199000691AY171999GF107991041051008001041021IA1319KA1999N-00891MD1410001+9999MW1701EQDQ01+000032APCTEN
0092010890999991952021909004+69717+029883FM-12+008899999V0202001N00511220001CN0400001N9-00721+99999100811ADDAY121999GA1031+012009059GF106991031051012501041021MD1410001+9999MW1021EQDQ01+000032APCTEN
0092010890999991952021912004+69717+029883FM-12+008899999V0202001N00411220001CN0400001N9-00611+99999100811ADDAY121999GA1031+010509059GF108991031051012501011999MD1410001+9999MW1021EQDQ01+000032APCTEN
0092010890999991952021915004+69717+029883FM-12+008899999V0201801N00261015001CN0400001N9-00611+99999100811ADDAY121999GA1061+015009049GF108991011081008001021999MD1410001+9999MW1021EQDQ01+000032APCTEN
0087010890999991952021918004+69717+029883FM-12+008899999V0201801N00261220001CN0400001N9-00611+99999100841ADDAA199000691AY111999GF102991011081008001041001IA1319KA1999M-00611MD1310031+9999MW1011
0057010890999991952022000004+69717+029883FM-12+008899999V0201801N003619999999N0400001N9-00781+99999100771ADDAY121999GF108991031081008001071999MD1810031+9999MW1021
0057010890999991952022003004+69717+029883FM-12+008899999V0201801N006719999999N0400001N9-00721+99999100711ADDAY121999GF108991031081008001071999MD1810061+9999MW1021
0108010890999991952022006004+69717+029883FM-12+008899999V0201601N00261220001CN0400001N9-00891+99999100581ADDAY111999GA1011+006009089GA2021+009009059GF107991031081008001041021IA1319KA1999N-00891MD1810121+9999MW1011
0073010890999991952022009004+69717+029883FM-12+008899999V0201801N00511220001CN0200001N9-00781+99999100441ADDAY111999GA1031+006009099GF107991031091008001071999MD1810141+9999MW1851
0089010890999991952022012004+69717+029883FM-12+008899999V0201601N00461220001CN0700001N9-00891+99999100241ADDAY111999GA1011+006009089GA2011+009009059GF105991021081008001041021MD1810201+9999MW1021
0073010890999991952022015004+69717+029883FM-12+008899999V0201801N00211220001CN0600001N9-00891+99999100021ADDAY121999GA1021+009009059GF107991021051008001071999MD1810221+9999MW1021
0087010890999991952022018004+69717+029883FM-12+008899999V0201801N00211220001CN0600001N9-01001+99999099851ADDAA199000691AY111999GF103991031051008001001001IA1319KA1999M-00781MD1810171+9999MW1011
0057010890999991952022100004+69717+029883FM-12+008899999V0209991C000019999999N0600001N9-01001+99999099481ADDAY121999GF108991021031008001071999MD1810181+9999MW1031
0073010890999991952022103004+69717+029883FM-12+008899999V0201801N00311220001CN0140001N9-01001+99999099311ADDAY181999GA1021+006009099GF108991021091004501021999MD1810171+9999MW1851
0103010890999991952022106004+69717+029883FM-12+008899999V0201801N00101220001CN0120001N9-00721+99999099141ADDAA199001091AY171999GA1021+006009099GF108991021091004501021999IA1319KA1999N-01111MD1810171+9999MW1701
0073010890999991952022109004+69717+029883FM-12+008899999V0201601N00101220001CN0080001N9-00611+99999099071ADDAY171999GA1021+006009099GF108991021091004501021999MD1810071+9999MW1701
0073010890999991952022112004+69717+029883FM-12+008899999V0201601N00101220001CN0100001N9-00391+99999099101ADDAY171999GA1021+006009099GF108991021091004501021999MD1210031+9999MW1701
0073010890999991952022115004+69717+029883FM-12+008899999V0201601N00311220001CN0400001N9-00501+99999099221ADDAY121999GA1041+006009099GF108991041091004501021999MD1210121+9999MW1021
0087010890999991952022118004+69717+029883FM-12+008899999V0202001N003619999999N0400001N9-00611+99999099361ADDAA199001091AY121999GF108991041091004501021999IA1319KA1999M-00391MD1310141+9999MW1021
0057010890999991952022200004+69717+029883FM-12+008899999V0202301N002119999999N0400001N9-00611+99999099871ADDAY181999GF108991041091004501021999MD1310151+9999MW1021
0057010890999991952022203004+69717+029883FM-12+008899999V0202001N003619999999N0400001N9-00611+99999100101ADDAY181999GF108991041091004501021999MD1310231+9999MW1021
0103010890999991952022206004+69717+029883FM-12+008899999V0202001N00211220001CN0120001N9-00611+99999100351ADDAA199000691AY171999GA1031+006009099GF108991031091004501021999IA1319KA1999N-00611MD1310251+9999MW1701
0073010890999991952022209004+69717+029883FM-12+008899999V0209991C00001007501CN0040001N9-00501+99999100531ADDAY171999GA1081+007509049GF108991021091004501021999MD1310181+9999MW1721
0073010890999991952022212004+69717+029883FM-12+008899999V0209991C00001010501CN0400001N9-00611+99999100641ADDAY121999GA1061+010509059GF106991061051008001041001MD1310111+9999MW1021
0073010890999991952022215004+69717+029883FM-12+008899999V0209991C00001220001CN0160001N9-00781+99999100711ADDAY181999GA1021+005409099GF105991031091004501041001MD1310071+9999MW1151
0087010890999991952022218004+69717+029883FM-12+008899999V0209991C000019999999N0140001N9-00721+99999100761ADDAA199000591AY181999GF105991031091004501041001IA1319KA1999M-00611MD1310051+9999MW1851
0057010890999991952022300004+69717+029883FM-12+008899999V0209991C00001004501CN0400001N9-00721+99999100821ADDAY121999GF108991051081004501021999MD1310051+9999MW1021
0057010890999991952022303004+69717+029883FM-12+008899999V0201801N00101004501CN0400001N9-00781+99999100871ADDAY121999GF108991051081004501021999MD1310051+9999MW1021
0103010890999991952022306004+69717+029883FM-12+008899999V0201801N00211220001CN0400001N9-00391+99999100921ADDAA199000691AY121999GA1011+006009089GF108991031081004501021999IA1319KA1999N-00781MD1310051+9999MW1021
0073010890999991952022309004+69717+029883FM-12+008899999V0201801N00101220001CN0400001N9-00501+99999101061ADDAY111999GA1021+006009089GF105991031081008001041001MD1310141+9999MW1021
0073010890999991952022312004+69717+029883FM-12+008899999V0209991C00001220001CN0400001N9-00501+99999101201ADDAY121999GA1011+009009059GF104991011061008001041001MD1310141+9999MW1021
0073010890999991952022315004+69717+029883FM-12+008899999V0202201N00101220001CN0600001N9-00611+99999101371ADDAY121999GA1021+009009059GF107991021061008001071999MD1310171+9999MW1021
0076010890999991952022318004+69717+029883FM-12+008899999V0209991C000019999999N0700001N9-00721+99999101521ADDAY121999GF108991021061008001071999IA1319KA1999M-00391MD1310151+9999MW1021
0057010890999991952022403004+69717+029883FM-12+008899999V0202201N002119999999N0600001N9-00721+99999101831ADDAY121999GF108991021091008001071999MD1310161+9999MW1021
0076010890999991952022406004+69717+029883FM-12+008899999V0209991C000019999999N0700001N9-00611+99999101941ADDAY121999GF107991011091008001071999IA1319KA1999N-00721MD1310111+9999MW1021
0057010890999991952022409004+69717+029883FM-12+008899999V0202401N002119999999N0600001N9-00501+99999102031ADDAY121999GF108991021051008001071999MD1310091+9999MW1021
0057010890999991952022412004+69717+029883FM-12+008899999V0202201N002119999999N0600001N9-00501+99999102101ADDAY121999GF108991021061004501071999MD1310071+9999MW1021
0076010890999991952022415004+69717+029883FM-12+008899999V0209991C000019999999N0600001N9-00501+99999102101ADDAY121999GF108991021061004501071999MD1410001+9999MW1021EQDQ01+000032APCTEN
0076010890999991952022418004+69717+029883FM-12+008899999V0209991C000019999999N0160001N9-00721+99999102181ADDAY121999GF108991021061004501071999IA1319KA1999M-00391MD1310081+9999MW1101
0078010890999991952022500004+69717+029883FM-12+008899999V0202001N003619999999N0400001N9-00611+99999102271ADDAY121999GF108991031081008001021999MW1021EQDQ01+000032APCTENQ02+000002APC3  
0057010890999991952022503004+69717+029883FM-12+008899999V0209991C000019999999N0400001N9-00611+99999102301ADDAY121999GF108991021081004501021999MD1310031+9999MW1021
0092010890999991952022506004+69717+029883FM-12+008899999V0202001N00211220001CN0400001N9-00721+99999102331ADDAY121999GA1041+007509089GF108991041081008001071999IA1319KA1999N-00721MD1310031+9999MW1021
0073010890999991952022509004+69717+029883FM-12+008899999V0202401N00461220001CN0400001N9-00721+99999102351ADDAY121999GA1041+010509059GF108991041061008001071999MD1310021+9999MW1021
0073010890999991952022512004+69717+029883FM-12+008899999V0202401N00461220001CN0400001N9-00721+99999102321ADDAY121999GA1041+009009059GF108991041061008001071999MD1710021+9999MW1021
0073010890999991952022515004+69717+029883FM-12+008899999V0202401N00461220001CN0200001N9-00721+99999102211ADDAY171999GA1031+007509059GF108991031051008001021999MD1810101+9999MW1151
0087010890999991952022518004+69717+029883FM-12+008899999V0202201N001019999999N0400001N9-00891+99999102201ADDAA199000691AY121999GF107991031081008001071999IA1319KA1999M-00611MD1710011+9999MW1021
0057010890999991952022600004+69717+029883FM-12+008899999V0202001N002619999999N0400001N9-00781+99999101921ADDAY121999GF106991031081008001071999MD1810251+9999MW1021
0057010890999991952022603004+69717+029883FM-12+008899999V0202001N005119999999N0400001N9-00781+99999101781ADDAY121999GF106991031081008001071999MD1810141+9999MW1021
0092010890999991952022606004+69717+029883FM-12+008899999V0202001N00261220001CN0400001N9-00721+99999101641ADDAY121999GA1031+006009059GF108991031061008001021999IA1009KA1999N-00781MD1810141+9999MW1101
0073010890999991952022609004+69717+029883FM-12+008899999V0202001N00261220001CN0400001N9-00611+99999101591ADDAY121999GA1021+006009059GF107991031081008001071001MD1710051+9999MW1021
0073010890999991952022612004+69717+029883FM-12+008899999V0202001N00261220001CN0400001N9-00501+99999101611ADDAY121999GA1021+006009059GF107991031081008001071001MD1210021+9999MW1021
0073010890999991952022615004+69717+029883FM-12+008899999V0202001N00211220001CN0400001N9-00501+99999101591ADDAY121999GA1021+007209059GF107991031081008001071999MD1210021+9999MW1021
0087010890999991952022618004+69717+029883FM-12+008899999V0202201N005119999999N0200001N9-00391+99999101661ADDAA199000691AY111999GF107991031091004501071999IA1319KA1999M-00391MD1210071+9999MW1851
0057010890999991952022700004+69717+029883FM-12+008899999V0202001N00311220001CN0600001N9-00721+99999101721ADDAY101999GF102991021011008001001001MD1210031+9999MW1011
0057010890999991952022703004+69717+029883FM-12+008899999V0202201N004119999999N0700001N9-00721+99999101731ADDAY121999GF108991021021008001071999MD1210011+9999MW1031
0122010890999991952022706004+69717+029883FM-12+008899999V0202001N00211220001CN0160001N9-00391+99999101731ADDAA199000691AY121999GA1021+006009079GF108991021061004501021999IA1319KA1999N-00611MD1410001+9999MW1761EQDQ01+000022APCTEN
0073010890999991952022709004+69717+029883FM-12+008899999V0202001N00101220001CN0400001N9-00391+99999101651ADDAY121999GA1021+007209059GF108991021061004501071999MD1810081+9999MW1021
0073010890999991952022712004+69717+029883FM-12+008899999V0202201N00511220001CN0400001N9-00391+99999101561ADDAY121999GA1021+007209059GF108991021061004501071999MD1810091+9999MW1021
0073010890999991952022715004+69717+029883FM-12+008899999V0202301N00101220001CN0400001N9-00221+99999101321ADDAY121999GA1031+009009059GF108991031061008001021999MD1810241+9999MW1021
0076010890999991952022718004+69717+029883FM-12+008899999V0202301N002119999999N0400001N9-00221+99999101251ADDAY121999GF108991031061008001021999IA1319KA1999M-00221MD1810071+9999MW1021
0057010890999991952022800004+69717+029883FM-12+008899999V0202301N00211007801CN0050001N9-00221+99999101071ADDAY171999GF108991081001008001021999MD1810121+9999MW1731
0057010890999991952022803004+69717+029883FM-12+008899999V0202301N00211007801CN0100001N9-00221+99999101081ADDAY171999GF108991081001008001021999MD1210101+9999MW1721
0103010890999991952022806004+69717+029883FM-12+008899999V0209991C00001220001CN0400001N9-00281+99999101181ADDAA199003091AY171999GA1031+009009089GF107991031081008001071999IA1319KA1999N-00281MD1310101+9999MW1021
0073010890999991952022809004+69717+029883FM-12+008899999V0209991C00001220001CN0400001N9-00391+99999101191ADDAY121999GA1031+010509059GF105991031051008001041001MD1310011+9999MW1021
0073010890999991952022812004+69717+029883FM-12+008899999V0202401N00101220001CN0700001N9-00281+99999101111ADDAY121999GA1031+012009059GF105991031051012501041001MD1810081+9999MW1021
0089010890999991952022815004+69717+029883FM-12+008899999V0202401N00261220001CN0700001N9-00501+99999101081ADDAY121999GA1021+012009059GA2011+009009089GF104991031081008001041001MD1810031+9999MW1021
0095010890999991952022818004+69717+029883FM-12+008899999V0202001N00101220001CN0700001N9-00781+99999101061ADDAY101999GF101991999001999999041001IA1319KA1999M-00281MD1810021+9999MW1021EQDQ01+000002SCOTLC
0057010890999991952022900004+69717+029883FM-12+008899999V0209991C00001220001CN0700001N9-01281+99999100911ADDAY101999GF100991001001999999001001MD1810071+9999MW1021
0057010890999991952022903004+69717+029883FM-12+008899999V0209991C00001220001CN0700001N9-01391+99999100701ADDAY101999GF100991001001999999001001MD1810201+9999MW1401
0111010890999991952022906004+69717+029883FM-12+008899999V0209991C00001220001CN0700001N9-01781+99999100701ADDAY101999GF101991999001999999041001IA1319KA1999N-01891MD1410001+9999MW1401EQDQ01+000002SCOTLCQ02+000022APCTEN
0073010890999991952022909004+69717+029883FM-12+008899999V0209991C00001220001CN0700001N9-01391+99999100591ADDAY111999GA1031+009009059GF106991041081008001041001MD1710101+9999MW1031
0073010890999991952022912004+69717+029883FM-12+008899999V0201801N00101220001CN0700001N9-01111+99999100441ADDAY121999GA1021+009009059GF107991031081008001071999MD1810151+9999MW1021
0073010890999991952022915004+69717+029883FM-12+008899999V0201601N00101220001CN0700001N9-01001+99999100591ADDAY121999GA1021+009009059GF105991021041008001061001MD1810051+9999MW1021
0076010890999991952022918004+69717+029883FM-12+008899999V0209991C00001220001CN0700001N9-01111+99999100441ADDAY101999GF100991001001999999001001IA1319KA1999M-00781MD1210051+9999MW1011
0057010890999991952030100004+69717+029883FM-12+008899999V0209991C00001220001CN0700001N9-01391+99999100551ADDAY101999GF100991001001999999001001MD1310061+9999MW1021
0057010890999991952030103004+69717+029883FM-12+008899999V0202001N00211220001CN0700001N9-01391+99999100611ADDAY121999GF102991021051008001001001MD1310061+9999MW1031
0092010890999991952030106004+69717+029883FM-12+008899999V0202001N00101220001CN0700001N9-01221+99999100731ADDAY121999GA1021+009009059GF104991021051008001041001IA1319KA1999N-01891MD1310121+9999MW1031
0073010890999991952030109004+69717+029883FM-12+008899999V0201801N00101220001CN0700001N9-01111+99999100791ADDAY121999GA1021+009009059GF105991021051008001041001MD1310061+9999MW1031
0073010890999991952030112004+69717+029883FM-12+008899999V0201801N00211220001CN0700001N9-00891+99999100821ADDAY121999GA1031+009009059GF107991031051008001041001MD1310021+9999MW1021
0073010890999991952030115004+69717+029883FM-12+008899999V0202001N00261220001CN0700001N9-00891+99999100851ADDAY121999GA1031+009009059GF105991031051012501041021MD1310031+9999MW1021
0076010890999991952030118004+69717+029883FM-12+008899999V0201801N001019999999N0400001N9-01111+99999100911ADDAY121999GF105991031051012501041021IA1319KA1999M-00891MD1310061+9999MW1021
0057010890999991952030203004+69717+029883FM-12+008899999V0201801N00101220001CN0400001N9-01501+99999101391ADDAY101999GF100991001001999999001001MD1310121+9999MW1021
0076010890999991952030206004+69717+029883FM-12+008899999V0209991C00001220001CN0600001N9-01611+99999101601ADDAY101999GF103991011001017501041021IA1319KA1999N-01721MD1310211+9999MW1021
0057010890999991952030209004+69717+029883FM-12+008899999V0209991C00001220001CN0400001N9-01721+99999101831ADDAY121999GF103991021021004501041021MD1310231+9999MW1401
0057010890999991952030212004+69717+029883FM-12+008899999V0209991C000019999999N0400001N9-01501+99999101801ADDAY121999GF108991031051008001071999MD1710031+9999MW1401
0057010890999991952030215004+69717+029883FM-12+008899999V0209991C000019999999N0140001N9-01391+99999101751ADDAY171999GF108991031051008001021999MD1810051+9999MW1701
0087010890999991952030218004+69717+029883FM-12+008899999V0209991C00001007801CN0080001N9-01281+99999101691ADDAA199000591AY171999GF108991081001008001021999IA1319KA1999M-01281MD1810061+9999MW1721
0078010890999991952030300004+69717+029883FM-12+008899999V0201801N00101004501CN0100001N9-01281+99999101631ADDAY181999GF106991061091004501999999MW1151EQDQ01+000072APCTENQ02+000002APC3  
0057010890999991952030303004+69717+029883FM-12+008899999V0202001N00101004501CN0080001N9-01281+99999101481ADDAY181999GF108991051091004501041999MD1710151+9999MW1851
0103010890999991952030306004+69717+029883FM-12+008899999V0209991C00001009001CN0010001N9-01111+99999101331ADDAA199002091AY171999GA1081+009009049GF108991041081004501021999IA1319KA1999N-01391MD1710151+9999MW1731
0073010890999991952030309004+69717+029883FM-12+008899999V0209991C00001009001CN0010001N9-01001+99999101181ADDAY171999GA1081+009009049GF108991081001008001021999MD1810151+9999MW1731
0073010890999991952030312004+69717+029883FM-12+008899999V0201801N00101009001CN0040001N9-00891+99999101231ADDAY171999GA1061+009009049GF106991061001008001021001MD1210051+9999MW1151
0073010890999991952030315004+69717+029883FM-12+008899999V0201801N00721220001CN0140001N9-00891+99999101441ADDAY181999GA1021+009009079GF106991021091004501041001MD1310211+9999MW1151
0087010890999991952030318004+69717+029883FM-12+008899999V0202001N00511220001CN0400001N9-01111+99999101721ADDAA199002091AY111999GF102991021061004501001001IA1009KA1999M-00891MD1310281+9999MW1011
0057010890999991952030400004+69717+029883FM-12+008899999V0209991C000019999999N0140001N9-00781+99999102101ADDAY181999GF108991031091004501021999MD1310181+9999MW1851
0057010890999991952030403004+69717+029883FM-12+008899999V0209991C000019999999N0120001N9-00891+99999102141ADDAY171999GF108991021091004501021999MD1310041+9999MW1701
0103010890999991952030406004+69717+029883FM-12+008899999V0201601N00411220001CN0140001N9-00611+99999102121ADDAA199001091AY121999GA1031+006009099GF108991031091004501021999IA1319KA1999N-01111MD1010021+9999MW1151
0073010890999991952030409004+69717+029883FM-12+008899999V0201601N00721220001CN0140001N9-00611+99999102261ADDAY171999GA1031+006009099GF108991031091004501021999MD1310141+9999MW1701
0073010890999991952030412004+69717+029883FM-12+008899999V0201801N00821220001CN0120001N9-00501+99999102381ADDAY171999GA1031+006009099GF108991031091004501021999MD1310121+9999MW1701
0073010890999991952030415004+69717+029883FM-12+008899999V0202001N00671010501CN0120001N9-00611+99999102541ADDAY171999GA1081+010509049GF108991021091004501021999MD1310161+9999MW1701
0087010890999991952030418004+69717+029883FM-12+008899999V0202001N004619999999N0400001N9-00611+99999102671ADDAA199000391AY171999GF108991021091004501021999IA1319KA1999M-00501MD1310131+9999MW1021
0057010890999991952030500004+69717+029883FM-12+008899999V0202001N00211007801CN0080001N9-00721+99999102521ADDAY171999GF108991081001008001021999MD1810101+9999MW1711
0057010890999991952030503004+69717+029883FM-12+008899999V0202001N00101007801CN0100001N9-00721+99999102301ADDAY171999GF108991081001008001021999MD1810221+9999MW1711
0103010890999991952030506004+69717+029883FM-12+008899999V0202401N00621012001CN0140001N9-00391+99999102211ADDAA199002091AY171999GA1081+012009049GF108991081001008001021999IA1319KA1999N-00721MD1810091+9999MW1711
0073010890999991952030509004+69717+029883FM-12+008899999V0202601N00931220001CN0400001N9-00281+99999102281ADDAY121999GA1031+010509059GF107991031081008001071999MD1210071+9999MW1151
0073010890999991952030512004+69717+029883FM-12+008899999V0202401N00621220001CN0400001N9-00281+99999102371ADDAY121999GA1031+006009099GF107991031091004501071999MD1310091+9999MW1151
0073010890999991952030515004+69717+029883FM-12+008899999V0202401N00261220001CN0400001N9-00281+99999102441ADDAY121999GA1021+004509099GF108991021091004501071999MD1310061+9999MW1151
0087010890999991952030518004+69717+029883FM-12+008899999V0209991C000019999999N0400001N9-00391+99999102491ADDAA199000691AY121999GF107991031091004501071999IA1319KA1999M-00111MD1310051+9999MW1021
0057010890999991952030600004+69717+029883FM-12+008899999V0202401N003619999999N0400001N9-00501+99999102531ADDAY111999GF105991021081008001041001MD1310021+9999MW1021
0057010890999991952030603004+69717+029883FM-12+008899999V0202001N002619999999N0400001N9-00611+99999102561ADDAY111999GF106991021081008001021001MD1310051+9999MW1021
0103010890999991952030606004+69717+029883FM-12+008899999V0209991C00001220001CN0600001N9-01001+99999102601ADDAA199000591AY181999GA1011+006009089GF104991011081008001041021IA1319KA1999N-01001MD1310041+9999MW1021
0057010890999991952030609004+69717+029883FM-12+008899999V0209991C00001220001CN0700001N9-00721+99999102631ADDAY101999GF101991011011012501001001MD1310031+9999MW1021
0073010890999991952030612004+69717+029883FM-12+008899999V0202501N00461220001CN0700001N9-00611+99999102691ADDAY101999GA1011+009009089GF101991011011012501001011MD1310051+9999MW1021
0092010890999991952030615004+69717+029883FM-12+008899999V0202701N00621220001CN0700001N9-00611+99999102691ADDAY121999GA1021+009009089GF104991021011012501041001MD1410001+9999MW1031EQDQ01+000022APCTEN
0076010890999991952030618004+69717+029883FM-12+008899999V0202701N00931220001CN0700001N9-00721+99999102781ADDAY121999GF104991021011012501041001IA1319KA1999M-00501MD1310091+9999MW1031
0057010890999991952030700004+69717+029883FM-12+008899999V0202701N005119999999N0600001N9-00721+99999103041ADDAY121999GF105991031091008001041001MD1310121+9999MW1021
0057010890999991952030703004+69717+029883FM-12+008899999V0202701N003119999999N0700001N9-00721+99999103111ADDAY121999GF105991021091008001041001MD1310071+9999MW1021
0092010890999991952030706004+69717+029883FM-12+008899999V0202701N00101220001CN0700001N9-01221+99999103181ADDAY111999GA1021+009009059GF103991021041008001041001IA1319KA1999N-01221MD1310071+9999MW1011
0073010890999991952030709004+69717+029883FM-12+008899999V0209991C00001220001CN0700001N9-01111+99999103201ADDAY121999GA1011+009009089GF103991011011008001041001MD1210021+9999MW1021
0073010890999991952030712004+69717+029883FM-12+008899999V0201801N00101220001CN0700001N9-01111+99999103141ADDAY121999GA1021+009009089GF104991021081008001041001MD1710061+9999MW1021
0073010890999991952030715004+69717+029883FM-12+008899999V0209991C00001220001CN0700001N9-01001+99999102971ADDAY121999GA1031+021009049GF105991031001017501071021MD1810171+9999MW1021
0076010890999991952030718004+69717+029883FM-12+008899999V0209991C00001015001CN0400001N9-01111+99999102771ADDAY121999GF108991081001017501011999IA1319KA1999M-00891MD1810201+9999MW1031
0057010890999991952030800004+69717+029883FM-12+008899999V0209991C00001012301CN0100001N9-01001+99999102251ADDAY171999GF108991081001012501021999MD1810281+9999MW1711
0057010890999991952030803004+69717+029883FM-12+008899999V0209991C00001012301CN0400001N9-01001+99999102111ADDAY171999GF108991081001012501021999MD1810141+9999MW1021
0103010890999991952030806004+69717+029883FM-12+008899999V0209991C00001220001CN0400001N9-00781+99999101981ADDAA199001091AY121999GA1031+012009059GF108991031051012501071999IA1319KA1999N-01111MD1810131+9999MW1021
0073010890999991952030809004+69717+029883FM-12+008899999V0209991C00001220001CN0400001N9-00721+99999101911ADDAY121999GA1041+010509059GF108991041051008001071999MD1810071+9999MW1021
0057010890999991952030812004+69717+029883FM-12+008899999V0209991C000019999999N0400001N9-00611+99999101901ADDAY121999GF108991041051008001071999MD1810011+9999MW1021
0073010890999991952030815004+69717+029883FM-12+008899999V0209991C00001220001CN0400001N9-00611+99999101891ADDAY111999GA1041+009009059GF104991041051008001001001MD1810011+9999MW1021
0076010890999991952030818004+69717+029883FM-12+008899999V0209991C00001220001CN0600001N9-01111+99999101931ADDAY101999GF101991001001999999001021IA1319KA1999M-00611MD1510041+9999MW1021
0078010890999991952030903004+69717+029883FM-12+008899999V0201801N00051220001CN0400001N9-01001+99999101941ADDAY101999GF100991001001999999001001MW1401EQDQ01+000032APCTENQ02+000002APC3  
0076010890999991952030906004+69717+029883FM-12+008899999V0209991C00001002401CN0400001N9-01391+99999101851ADDAY111999GF108991081061002501999999IA1319KA1999N-01721MD1810101+9999MW1401
0057010890999991952030909004+69717+029883FM-12+008899999V0202001N002619999999N0400001N9-01001+99999101751ADDAY121999GF108991031081004501071999MD1810101+9999MW1021
0057010890999991952030912004+69717+029883FM-12+008899999V0201601N002619999999N0600001N9-01001+99999101641ADDAY121999GF105991021051008001041001MD1810111+9999MW1021
0057010890999991952030915004+69717+029883FM-12+008899999V0201601N002619999999N0600001N9-00781+99999101461ADDAY111999GF106991021051008001071999MD1810181+9999MW1031
0076010890999991952030918004+69717+029883FM-12+008899999V0201801N002619999999N0400001N9-00721+99999101221ADDAY111999GF108991031081008001071999IA1319KA1999M-00721MD1810241+9999MW1151
0057010890999991952031000004+69717+029883FM-12+008899999V0202001N00311012301CN0120001N9-00611+99999100751ADDAY171999GF108991081001012501021999MD1810281+9999MW1711
0057010890999991952031003004+69717+029883FM-12+008899999V0202001N00411012301CN0140001N9-00611+99999100531ADDAY171999GF108991081001012501021999MD1810221+9999MW1701
0103010890999991952031006004+69717+029883FM-12+008899999V0209991C00001220001CN0400001N9-00281+99999100251ADDAA199002091AY121999GA1031+007809099GF106991031091004501041001IA1319KA1999N-00721MD1810181+9999MW1151
0073010890999991952031009004+69717+029883FM-12+008899999V0201801N00621220001CN0160001N9-00221+99999100181ADDAY181999GA1031+009009099GF108991031091008001021999MD1810171+9999MW1851
0073010890999991952031012004+69717+029883FM-12+008899999V0202001N00821220001CN0400001N9-00221+99999100121ADDAY121999GA1031+007209099GF107991031091008001021999MD1810061+9999MW1021
0073010890999991952031015004+69717+029883FM-12+008899999V0202401N00461220001CN0400001N9+00001+99999100141ADDAY121999GA1031+006009099GF108991031091004501071999MD1210021+9999MW1021
0087010890999991952031018004+69717+029883FM-12+008899999V0202001N006219999999N0600001N9+00001+99999100151ADDAA199000691AY111999GF106991031051012501041001IA1319KA1999M+00111MD1210011+9999MW1021
0057010890999991952031100004+69717+029883FM-12+008899999V0202301N00671012301CN0600001N9-00111+99999100071ADDAY121999GF106991061051012501041999MD1710031+9999MW1021
0057010890999991952031103004+69717+029883FM-12+008899999V0202001N00461220001CN0600001N9-00501+99999100021ADDAY121999GF104991021061012501041001MD1710051+9999MW1021
0076010890999991952031106004+69717+029883FM-12+008899999V0202001N00311220001CN0700001N9-00611+99999099971ADDAY101999GF102991021001017501041001IA1319KA1999N-00611MD1810051+9999MW1021
0073010890999991952031109004+69717+029883FM-12+008899999V0202401N00461220001CN0700001N9-00281+99999099941ADDAY101999GA1011+010509089GF103991011021008001041001MD1810031+9999MW1021
0073010890999991952031112004+69717+029883FM-12+008899999V0202401N00621220001CN0700001N9-00221+99999099961ADDAY121999GA1021+009009089GF104991021021008001041021MD1210021+9999MW1021
0073010890999991952031115004+69717+029883FM-12+008899999V0202601N00511220001CN0700001N9-00221+99999100011ADDAY121999GA1021+009009089GF106991021021008001041001MD1310051+9999MW1021
0076010890999991952031118004+69717+029883FM-12+008899999V0202601N00511220001CN0600001N9-00281+99999100261ADDAY111999GF104991021021008001041001IA1319KA1999M-00111MD1310251+9999MW1011
0078010890999991952031200004+69717+029883FM-12+008899999V0209991C000019999999N0700001N9-00611+99999100021ADDAY111999GF106991021081008001071999MW1021EQDQ01+000022APCTENQ02+000002APC3  
0057010890999991952031203004+69717+029883FM-12+008899999V0209991C000019999999N0700001N9-00611+99999099941ADDAY121999GF107991031081008001071999MD1810081+9999MW1021
0103010890999991952031206004+69717+029883FM-12+008899999V0209991C00001220001CN0600001N9-00721+99999099921ADDAA199001091AY181999GA1021+006009089GF108991031081008001071999IA1319KA1999N-00721MD1810021+9999MW1021
0073010890999991952031209004+69717+029883FM-12+008899999V0209991C00001220001CN0200001N9-00501+99999099891ADDAY121999GA1021+006009089GF107991031081008001071999MD1810031+9999MW1151
0092010890999991952031212004+69717+029883FM-12+008899999V0201801N00261220001CN0040001N9-00391+99999099901ADDAY181999GA1031+007509099GF108991041091004501041999MD1210011+9999MW1851EQDQ01+000002APC3  
0073010890999991952031215004+69717+029883FM-12+008899999V0201601N00411220001CN0160001N9-00501+99999100061ADDAY181999GA1041+006009099GF108991041091004501021999MD1310161+9999MW1151
0087010890999991952031218004+69717+029883FM-12+008899999V0209991C00001220001CN0600001N9-00781+99999100271ADDAA199001091AY111999GF102991021061008001001001IA1319KA1999M-00391MD1310211+9999MW1011
0057010890999991952031300004+69717+029883FM-12+008899999V0209991C00001015001CN0600001N9-01111+99999100561ADDAY121999GF108991081001017501011999MD1310151+9999MW1031
0057010890999991952031303004+69717+029883FM-12+008899999V0200601N012319999999N0600001N9-01001+99999100621ADDAY181999GF107991021091004501021999MD1310061+9999MW1021
0103010890999991952031306004+69717+029883FM-12+008899999V0200201N00511220001CN0600001N9-00501+99999100881ADDAA199002091AY111999GA1021+006009089GF104991021081004501041001IA1319KA1999N-01221MD1310261+9999MW1011
0092010890999991952031309004+69717+029883FM-12+008899999V0203601N00931220001CN0400001N9-00391+99999100881ADDAY181999GA1021+006009099GF105991021091004501041001MD1410001+9999MW1151EQDQ01+000022APCTEN
0073010890999991952031312004+69717+029883FM-12+008899999V0203401N00931220001CN0700001N9-00391+99999100961ADDAY121999GA1021+007209089GF103991021081004501041001MD1310081+9999MW1021
0073010890999991952031315004+69717+029883FM-12+008899999V0203401N00931220001CN0700001N9-00391+99999100971ADDAY121999GA1031+009009089GF104991031021008001041001MD1210011+9999MW1021
0087010890999991952031318004+69717+029883FM-12+008899999V0203601N00931220001CN0700001N9-00501+99999100991ADDAA199000691AY101999GF103991021021008001041001IA1319KA1999M-00391MD1210031+9999MW1021
0057010890999991952031400004+69717+029883FM-12+008899999V0203601N003119999999N0400001N9-00391+99999101131ADDAY121999GF106991031021008001041999MD1310251+9999MW1021
0057010890999991952031403004+69717+029883FM-12+008899999V0203401N00101220001CN0600001N9-00501+99999101221ADDAY121999GF103991031001017501041001MD1310091+9999MW1021
0076010890999991952031406004+69717+029883FM-12+008899999V0209991C00001220001CN0600001N9-01612+99999101281ADDAY101999GF100991001001999999001001IA1319KA1999N-01721MD1310061+9999MW1401
0057010890999991952031409004+69717+029883FM-12+008899999V0209991C00001220001CN0700001N9-01281+99999101271ADDAY101999GF100991001001999999001001MD1710011+9999MW1021
0057010890999991952031412004+69717+029883FM-12+008899999V0201801N00051220001CN0700001N9-01221+99999101221ADDAY101999GF100991001001999999001001MD1710051+9999MW1021
0057010890999991952031415004+69717+029883FM-12+008899999V0209991C00001220001CN0700001N9-01281+99999101181ADDAY101999GF102991001001999999041021MD1810041+9999MW1031
0076010890999991952031418004+69717+029883FM-12+008899999V0202001N00261220001CN0700001N9-01391+99999101101ADDAY111999GF102991001001999999041021IA1319KA1999M-01111MD1810081+9999MW1021
0078010890999991952031500004+69717+029883FM-12+008899999V0201801N00261220001CN0700001N9-01721+99999101111ADDAY101999GF102991001001999999041021MW1021EQDQ01+000022APCTENQ02+000002APC3  
0057010890999991952031503004+69717+029883FM-12+008899999V0201801N006719999999N0400001N9-01611+99999101081ADDAY111999GF106991021081008001041021MD1710031+9999MW1031
0092010890999991952031506004+69717+029883FM-12+008899999V0201801N00461220001CN0600001N9-01611+99999101051ADDAY121999GA1031+009009059GF106991031061008001071999IA1319KA1999N-01721MD1710031+9999MW1021
0073010890999991952031509004+69717+029883FM-12+008899999V0201401N00461220001CN0600001N9-01501+99999101001ADDAY121999GA1031+009009059GF106991031061008001071001MD1710051+9999MW1021
0073010890999991952031512004+69717+029883FM-12+008899999V0201601N00461220001CN0700001N9-01281+99999100971ADDAY121999GA1031+009009059GF106991031061008001071001MD1710031+9999MW1021
0073010890999991952031515004+69717+029883FM-12+008899999V0201601N00621220001CN0700001N9-01391+99999100921ADDAY121999GA1021+010509059GF105991021061008001071001MD1810051+9999MW1021
0095010890999991952031518004+69717+029883FM-12+008899999V0201601N004119999999N0600001N9-01611+99999100921ADDAY121999GF107991041061008001071999IA1319KA1999M-01281MD1410001+9999MW1031EQDQ01+000032APCTEN
0057010890999991952031603004+69717+029883FM-12+008899999V0209991C000019999999N0600001N9-01781+99999101031ADDAY121999GF106991021061012501071999MD1310021+9999MW1021
0076010890999991952031606004+69717+029883FM-12+008899999V0201601N001019999999N0600001N9-01891+99999101081ADDAY121999GF107991011081008001071999IA1319KA1999N-02111MD1310051+9999MW1021
0057010890999991952031609004+69717+029883FM-12+008899999V0201601N001019999999N0700001N9-01611+99999101051ADDAY121999GF107991031061008001071999MD1710031+9999MW1021
0057010890999991952031612004+69717+029883FM-12+008899999V0201601N001019999999N0700001N9-01391+99999101041ADDAY121999GF106991021061008001071001MD1710011+9999MW1021
0057010890999991952031615004+69717+029883FM-12+008899999V0201601N001019999999N0200001N9-01281+99999101011ADDAY121999GF107991021091008001071001MD1710031+9999MW1151
0076010890999991952031618004+69717+029883FM-12+008899999V0209991C000019999999N0200001N9-01391+99999101031ADDAY121999GF106991021091008001071999IA1319KA1999M-01281MD1510021+9999MW1151
0078010890999991952031700004+69717+029883FM-12+008899999V0202001N00211220001CN0600001N9-01501+99999101081ADDAY101999GF103991031001017501041001MW1021EQDQ01+000032APCTENQ02+000002APC3  
0076010890999991952031703004+69717+029883FM-12+008899999V0209991C00001220001CN0600001N9-01611+99999101081ADDAY101999GF102991021001017501041001MD1410001+9999MW1401EQDQ01+000032APCTEN
0092010890999991952031706004+69717+029883FM-12+008899999V0209991C00001220001CN0700001N9-01611+99999101111ADDAY121999GA1031+010509059GF105991031051012501041021IA1319KA1999N-01781MD1310031+9999MW1021
0073010890999991952031709004+69717+029883FM-12+008899999V0202001N00211220001CN0700001N9-01281+99999101221ADDAY171999GA1021+021009039GF104991021001017501041021MD1310111+9999MW1021
0057010890999991952031712004+69717+029883FM-12+008899999V0201801N00101220001CN0700001N9-01221+99999101411ADDAY101999GF101991011001017501041001MD1310191+9999MW1021
0057010890999991952031715004+69717+029883FM-12+008899999V0209991C00001220001CN0700001N9-01221+99999101611ADDAY101999GF100991001001999999001001MD1310201+9999MW1021
0095010890999991952031718004+69717+029883FM-12+008899999V0209991C00001220001CN0700001N9-01611+99999101891ADDAY101999GF101991999001999999041001IA1319KA1999M-01111MD1310281+9999MW1021EQDQ01+000002SCOTLC
0076010890999991952031800004+69717+029883FM-12+008899999V0209991C00001220001CN0700001N9-01891+99999102441ADDAY101999GF101991999001999999041001MD1310251+9999MW1401EQDQ01+000002SCOTLC
0076010890999991952031803004+69717+029883FM-12+008899999V0209991C00001220001CN0700001N9-02001+99999102601ADDAY101999GF101991999001999999041001MD1310161+9999MW1401EQDQ01+000002SCOTLC
0076010890999991952031806004+69717+029883FM-12+008899999V0209991C00001220001CN0700001N9-02221+99999102801ADDAY101999GF100991001001999999001001IA1319KA1999N-02281MD1310201+9999MW1401
0073010890999991952031809004+69717+029883FM-12+008899999V0209991C00001220001CN0700001N9-01721+99999102841ADDAY101999GA1011+009009089GF102991011011008001001011MD1310041+9999MW1401
0089010890999991952031812004+69717+029883FM-12+008899999V0202401N00461220001CN0700001N9-01001+99999102781ADDAY111999GA1011+010509059GA2021+009009089GF106991031081008001041021MD1710061+9999MW1031
0073010890999991952031815004+69717+029883FM-12+008899999V0209991C00001220001CN0700001N9-00891+99999102711ADDAY121999GA1031+009009059GF105991021081008001041021MD1810071+9999MW1021
0076010890999991952031818004+69717+029883FM-12+008899999V0209991C00001220001CN0700001N9-00891+99999102661ADDAY121999GF104991021081008001041001IA1319KA1999M-00891MD1810051+9999MW1021
0057010890999991952031900004+69717+029883FM-12+008899999V0202401N005119999999N0600001N9-00781+99999102711ADDAY121999GF105991031081008001041001MD1210031+9999MW1021
0057010890999991952031903004+69717+029883FM-12+008899999V0202401N004619999999N0600001N9-00781+99999102691ADDAY121999GF105991031081008001041001MD1810021+9999MW1021
0111010890999991952031906004+69717+029883FM-12+008899999V0202401N00101220001CN0700001N9-00611+99999102711ADDAY121999GA1041+009009059GF106991041051008001041001IA1319KA1999N-01001MD1210021+9999MW1021EQDQ01+000002APC3  
0124010890999991952031909004+69717+029883FM-12+008899999V0202401N00511220001CN0700001N9-00501+99999102691ADDAY111999GA1011+009009089GF103991999011012501001021MD1710021+9999MW1011EQDQ01+000072SCOTLCQ02+000022APCTENQ03+000002APC3  
0076010890999991952031912004+69717+029883FM-12+008899999V0202401N00461220001CN0700001N9-00221+99999102681ADDAY101999GF102991001001999999041021MD1710011+9999MW1021EQDQ01+000002APC3  
0057010890999991952031915004+69717+029883FM-12+008899999V0202301N00101220001CN0700001N9-00221+99999102591ADDAY101999GF102991001001999999001021MD1810091+9999MW1021
0076010890999991952031918004+69717+029883FM-12+008899999V0209991C00001220001CN0700001N9-00721+99999102611ADDAY101999GF101991001001999999001021IA1319KA1999M-00221MD1210021+9999MW1021
0078010890999991952032000004+69717+029883FM-12+008899999V0201801N00151220001CN0700001N9-01001+99999102611ADDAY101999GF101991001001999999001021MW1021EQDQ01+000032APCTENQ02+000002APC3  
0076010890999991952032003004+69717+029883FM-12+008899999V0201801N00211220001CN0700001N9-01001+99999102511ADDAY101999GF100991001001999999001001MD1710101+9999MW1021EQDQ01+000012SCOTCV
0076010890999991952032006004+69717+029883FM-12+008899999V0209991C00001220001CN0700001N9-01111+99999102521ADDAY101999GF100991001001999999001001IA1319KA1999N-01221MD1210011+9999MW1021
0057010890999991952032009004+69717+029883FM-12+008899999V0202001N00211220001CN0700001N9-00721+99999102471ADDAY101999GF100991001001999999001001MD1710051+9999MW1021
0057010890999991952032012004+69717+029883FM-12+008899999V0202401N00211220001CN0700001N9-00391+99999102391ADDAY101999GF100991001001999999001001MD1810081+9999MW1021
0057010890999991952032015004+69717+029883FM-12+008899999V0209991C00001220001CN0700001N9-00281+99999102381ADDAY121999GF102991021001022501041001MD1810011+9999MW1021
0076010890999991952032018004+69717+029883FM-12+008899999V0209991C00001220001CN0700001N9-00891+99999102361ADDAY121999GF102991021001022501041001IA1319KA1999M-00221MD1710021+9999MW1021
0057010890999991952032100004+69717+029883FM-12+008899999V0209991C00001220001CN0700001N9-01221+99999102291ADDAY101999GF100991001001999999001001MD1310021+9999MW1021
0076010890999991952032103004+69717+029883FM-12+008899999V0209991C00001220001CN0700001N9-01391+99999102281ADDAY101999GF100991001001999999001001MD1710011+9999MW1401EQDQ01+000002APC3  
0076010890999991952032106004+69717+029883FM-12+008899999V0209991C00001220001CN0700001N9-01501+99999102341ADDAY101999GF100991001001999999001001IA1319KA1999N-01721MD1210041+9999MW1401
0057010890999991952032109004+69717+029883FM-12+008899999V0209991C00001220001CN0700001N9-00891+99999102411ADDAY101999GF101991001001999999001011MD1210071+9999MW1021
0057010890999991952032112004+69717+029883FM-12+008899999V0209991C00001220001CN0700001N9-00391+99999102481ADDAY101999GF101991001001999999001011MD1210071+9999MW1021
0076010890999991952032115004+69717+029883FM-12+008899999V0201401N00101220001CN0700001N9-00611+99999102481ADDAY101999GF101991001001999999001011MD1410001+9999MW1021EQDQ01+000032APCTEN
0076010890999991952032118004+69717+029883FM-12+008899999V0209991C00001220001CN0700001N9-00891+99999102571ADDAY101999GF101991001001999999001011IA1319KA1999M-00391MD1310091+9999MW1021
0057010890999991952032200004+69717+029883FM-12+008899999V0209991C00001220001CN0700001N9-01391+99999102611ADDAY101999GF102991001001999999001011MD1310041+9999MW1021
0057010890999991952032203004+69717+029883FM-12+008899999V0209991C000019999999N0600001N9-01281+99999102511ADDAY121999GF108991031091008001021999MD1810101+9999MW1031
0092010890999991952032206004+69717+029883FM-12+008899999V0209991C00001220001CN0400001N9-01221+99999102481ADDAY121999GA1021+009009099GF106991021091008001071999IA1319KA1999N-01501MD1810031+9999MW1151
0057010890999991952032209004+69717+029883FM-12+008899999V0209991C00001220001CN0700001N9-00891+99999102451ADDAY101999GF101991001001999999001011MD1710031+9999MW1021
0057010890999991952032212004+69717+029883FM-12+008899999V0209991C00001220001CN0700001N9-00611+99999102381ADDAY101999GF101991001001999999001011MD1810071+9999MW1021
0057010890999991952032215004+69717+029883FM-12+008899999V0209991C00001220001CN0700001N9-00611+99999102281ADDAY101999GF101991001001999999001011MD1810101+9999MW1021
0076010890999991952032218004+69717+029883FM-12+008899999V0209991C00001220001CN0700001N9-00891+99999102291ADDAY101999GF103991011001022501041021IA1319KA1999M-00391MD1210011+9999MW1021
0057010890999991952032303004+69717+029883FM-12+008899999V0202301N00211007801CN0150001N9-00611+99999102001ADDAY171999GF108991081001008001021999MD1810121+9999MW1701
0087010890999991952032306004+69717+029883FM-12+008899999V0201201N00311004501CN0400001N9-00501+99999102291ADDAA199000691AY101999GF107991061091004501041999IA1319KA1999N-01111MD1210091+9999MW1151
0057010890999991952032309004+69717+029883FM-12+008899999V0200901N007719999999N0400001N9-00501+99999102361ADDAY121999GF105991031091008001041001MD1310071+9999MW1021
0057010890999991952032312004+69717+029883FM-12+008899999V0200501N006219999999N0400001N9-00721+99999102381ADDAY121999GF105991041091008001041001MD1310021+9999MW1021
0057010890999991952032315004+69717+029883FM-12+008899999V0200501N009319999999N0160001N9-00721+99999102391ADDAY181999GF105991041091004501041001MD1310011+9999MW1851
0087010890999991952032318004+69717+029883FM-12+008899999V0200501N00771007801CN0400001N9-00721+99999102401ADDAA199000691AY181999GF107991051091008001041999IA1319KA1999M-00501MD1310011+9999MW1021
0078010890999991952032400004+69717+029883FM-12+008899999V0201201N00931220001CN0600001N9-00721+99999102651ADDAY111999GF103991021031008001041001MW1021EQDQ01+000032APCTENQ02+000002APC3  
0057010890999991952032403004+69717+029883FM-12+008899999V0201201N00931220001CN0600001N9-00721+99999102681ADDAY111999GF104991031031008001041001MD1310031+9999MW1151
0127010890999991952032406004+69717+029883FM-12+008899999V0201201N00931220001CN0600001N9-00611+99999102661ADDAY121999GA1021+006009099GF104991031031008001041001IA1319KA1999N-00781MD1710021+9999MW1151EQDQ01+000032APCTENQ02+000002APC3  
0073010890999991952032409004+69717+029883FM-12+008899999V0200901N00461220001CN0400001N9-00501+99999102711ADDAY181999GA1041+006009099GF105991041031008001041001MD1310051+9999MW1151
