0100010890999991951010106004+69717+029883FM-12+008899999V0209991C00001220001CN0400001N9-02391+99999100461ADDAY101999GF101991999001999999041001IA1319MW1401EQDQ01+000002SCOTLCQ02+000032APCTENQ03+000002APC3  
0076010890999991951010109004+69717+029883FM-12+008899999V0209991C00001220001CN0400001N9-02281+99999100521ADDAY101999GF101991999001999999041001MD1310051+9999MW1401EQDQ01+000002SCOTLC
0057010890999991951010112004+69717+029883FM-12+008899999V0201801N00051220001CN0400001N9-02221+99999100561ADDAY101999GF101991011021008001001001MD1310051+9999MW1401
0057010890999991951010115004+69717+029883FM-12+008899999V0209991C00001220001CN0150001N9-02001+99999100581ADDAY141999GF100991001001999999001001MD1310021+9999MW1761
0114010890999991951010118004+69717+029883FM-12+008899999V0201601N00101220001CN0400001N9-01501+99999100571ADDAY111999GF102991999001999999071001IA1319MD1710011+9999MW1401EQDQ01+000002SCOTLCQ02+000022APCTENQ03+000002APC3  
0057010890999991951010200004+69717+029883FM-12+008899999V0202401N00101220001CN0600001N9-01391+99999100731ADDAY101999GF102991021081008001001001MD1310121+9999MW1001
0057010890999991951010203004+69717+029883FM-12+008899999V0202201N00101220001CN0400001N9-01281+99999100771ADDAY111999GF103991011081008001071001MD1310051+9999MW1011
0098010890999991951010206004+69717+029883FM-12+008899999V0202501N00461004501CN0160001N9-01111+99999100761ADDAY181999GF106991051091004501041999IA1319MD1710011+9999MW1851EQDQ01+000022APCTENQ02+000002APC3  
0057010890999991951010209004+69717+029883FM-12+008899999V0202601N00671220001CN0600001N9-01001+99999100961ADDAY131999GF103991021081008001001021MD1210201+9999MW1361
0057010890999991951010212004+69717+029883FM-12+008899999V0209991C00001220001CN0600001N9-01221+99999101221ADDAY111999GF103991031081008001001001MD1210301+9999MW1021
0057010890999991951010215004+69717+029883FM-12+008899999V0202001N00211220001CN0400001N9-01611+99999101521ADDAY101999GF103991031081008001001001MD1310301+9999MW1021
0063010890999991951010218004+69717+029883FM-12+008899999V0209991C00001220001CN0400001N9-01891+99999101741ADDAY121999GF104991031081008001041001IA1319MD1310221+9999MW1021
0057010890999991951010300004+69717+029883FM-12+008899999V0202001N00461220001CN0400001N9-01891+99999102061ADDAY101999GF103991031081008001001001MD1310251+9999MW1401
0076010890999991951010303004+69717+029883FM-12+008899999V0202001N00511220001CN0400001N9-01891+99999102061ADDAY101999GF103991031081008001001001MD1410001+9999MW1401EQDQ01+000032APCTEN
0082010890999991951010306004+69717+029883FM-12+008899999V0202101N00621007801CN0400001N9-01781+99999102061ADDAY121999GF105991051081008001001001IA1319MD1410001+9999MW1021EQDQ01+000032APCTEN
0057010890999991951010309004+69717+029883FM-12+008899999V0201401N006219999999N0200001N9-01721+99999101921ADDAY121999GF108991031051008001071999MD1710141+9999MW1101
0057010890999991951010312004+69717+029883FM-12+008899999V0202001N007219999999N0100001N9-01281+99999101771ADDAY171999GF108991031051004501071999MD1710151+9999MW1711
0057010890999991951010315004+69717+029883FM-12+008899999V0202401N00461220001CN0400001N9-01221+99999101811ADDAY121999GF103991031051008001001001MD1210041+9999MW1021
0063010890999991951010318004+69717+029883FM-12+008899999V0202001N00101220001CN0400001N9-01281+99999101911ADDAY121999GF103991031051008001001001IA1319MD1310101+9999MW1021
0057010890999991951010400004+69717+029883FM-12+008899999V0202001N00101220001CN0600001N9-01501+99999102231ADDAY121999GF102991021051008001001001MD1210031+9999MW1021
0057010890999991951010403004+69717+029883FM-12+008899999V0201801N00101220001CN0600001N9-01611+99999102181ADDAY121999GF102991021051008001001001MD1710051+9999MW1021
0063010890999991951010406004+69717+029883FM-12+008899999V0209991C00001220001CN0600001N9-01721+99999102251ADDAY101999GF100991001001999999001001IA1319MD1310071+9999MW1011
0057010890999991951010409004+69717+029883FM-12+008899999V0201801N00101220001CN0400001N9-01781+99999102361ADDAY121999GF104991041051008001999999MD1310111+9999MW1031
0057010890999991951010412004+69717+029883FM-12+008899999V0202001N00261015001CN0400001N9-01611+99999102311ADDAY121999GF108991081001017501021999MD1990051+9999MW1401
0057010890999991951010415004+69717+029883FM-12+008899999V0202001N00101012301CN0200001N9-01611+99999102191ADDAY121999GF108991081001012501021999MD1810121+9999MW1401
0063010890999991951010418004+69717+029883FM-12+008899999V0202001N00101012301CN0160001N9-01721+99999102041ADDAY121999GF108991081001012501021999IA1319MD1810151+9999MW1101
0057010890999991951010500004+69717+029883FM-12+008899999V0202401N00261012301CN0140001N9-01501+99999101411ADDAY171999GF108991081001012501021999MD1810151+9999MW1701
0057010890999991951010503004+69717+029883FM-12+008899999V0203601N012319999999N0400001N9-00282+99999100881ADDAY181999GF108991031091004501021999MD1810501+9999MW1151
0063010890999991951010506004+69717+029883FM-12+008899999V0200501N004619999999N0100001N9-00501+99999100611ADDAY181999GF108991031091004501021999IA1319MD1810301+9999MW1861
0057010890999991951010509004+69717+029883FM-12+008899999V0201401N00051012301CN0020001N9-00501+99999100381ADDAY171999GF108991081001012501021999MD1810221+9999MW1711
0057010890999991951010512004+69717+029883FM-12+008899999V0200701N006719999999N0040001N9-00391+99999100211ADDAY181999GF108991031091004501021999MD1810171+9999MW1851
0057010890999991951010515004+69717+029883FM-12+008899999V0200901N003619999999N0100001N9-00501+99999100141ADDAY171999GF108991021091004501021999MD1810071+9999MW1711
0063010890999991951010518004+69717+029883FM-12+008899999V0200901N002619999999N0020001N9-00501+99999100021ADDAY181999GF108991031091004501021999IA1319MD1810121+9999MW1861
0057010890999991951010600004+69717+029883FM-12+008899999V0209991C000019999999N0150001N9-00721+99999099791ADDAY171999GF108991021091004501021999MD1810111+9999MW1711
0057010890999991951010603004+69717+029883FM-12+008899999V0209991C000019999999N0160001N9-00721+99999099671ADDAY171999GF108991031091004501021999MD1810121+9999MW1711
0063010890999991951010606004+69717+029883FM-12+008899999V0209991C000019999999N0400001N9-00721+99999099751ADDAY171999GF108991031091004501021999IA1319MD1210081+9999MW1021
0057010890999991951010609004+69717+029883FM-12+008899999V0200201N008719999999N0400001N9-00221+99999099851ADDAY181999GF108991031091004501021999MD1210101+9999MW1151
0057010890999991951010612004+69717+029883FM-12+008899999V0203601N007219999999N0400001N9+00001+99999099951ADDAY121999GF108991041091004501021999MD1310101+9999MW1021
0057010890999991951010615004+69717+029883FM-12+008899999V0202701N004619999999N0400001N9-00111+99999100071ADDAY121999GF108991031091004501071999MD1310121+9999MW1021
0063010890999991951010618004+69717+029883FM-12+008899999V0203001N00461004501CN0400001N9-00221+99999100171ADDAY121999GF106991061091004501001001IA1319MD1310101+9999MW1011
0057010890999991951010703004+69717+029883FM-12+008899999V0202501N00261220001CN0400001N9-00721+99999100351ADDAY121999GF103991031051008001001001MD1310051+9999MW1021
0063010890999991951010706004+69717+029883FM-12+008899999V0202301N002619999999N0400001N9-00611+99999100371ADDAY121999GF108991021091008001071999IA1319MD1310021+9999MW1031
0057010890999991951010709004+69717+029883FM-12+008899999V0209991C00001004501CN0200001N9-00891+99999100401ADDAY181999GF108991051091004501021999MD1310031+9999MW1851
0057010890999991951010712004+69717+029883FM-12+008899999V0209991C00001004501CN0400001N9-00891+99999100411ADDAY121999GF108991051091004501021999MD1310011+9999MW1151
0057010890999991951010715004+69717+029883FM-12+008899999V0202301N00101220001CN0600001N9-01111+99999100461ADDAY121999GF103991031051008001001001MD1310051+9999MW1011
0082010890999991951010718004+69717+029883FM-12+008899999V0209991C00001220001CN0600001N9-01111+99999100461ADDAY101999GF102991021051008001001001IA1319MD1410001+9999MW1011EQDQ01+000032APCTEN
0078010890999991951010800004+69717+029883FM-12+008899999V0200501N00051220001CN0400001N9-01501+99999100451ADDAY101999GF100991001001999999001001MW1401EQDQ01+000022APCTENQ02+000002APC3  
0057010890999991951010803004+69717+029883FM-12+008899999V0209991C00001220001CN0400001N9-02001+99999100431ADDAY101999GF100991001001999999001001MD1810021+9999MW1401
0063010890999991951010806004+69717+029883FM-12+008899999V0201801N00101220001CN0400001N9-02221+99999100341ADDAY101999GF100991001001999999001001IA1319MD1810091+9999MW1401
0057010890999991951010809004+69717+029883FM-12+008899999V0202001N00101220001CN0400001N9-02281+99999100321ADDAY101999GF101991001001999999001021MD1710021+9999MW1401
0057010890999991951010812004+69717+029883FM-12+008899999V0209991C000019999999N0400001N9-02221+99999100231ADDAY111999GF105991031081008001001021MD1810091+9999MW1401
0057010890999991951010815004+69717+029883FM-12+008899999V0209991C00001001501CN0400001N9-01781+99999100051ADDAY121999GF106991061061001501999999MD1810181+9999MW1401
0063010890999991951010818004+69717+029883FM-12+008899999V0209991C000519999999N0400001N9-01781+99999099851ADDAY101999GF105991031051008001999999IA1319MD1810201+9999MW1421
0057010890999991951010900004+69717+029883FM-12+008899999V0209991C000019999999N0010001N9-01281+99999099571ADDAY171999GF108991021091004501021999MD1810121+9999MW1731
0057010890999991951010903004+69717+029883FM-12+008899999V0209991C00001220001CN0400001N9-01391+99999099651ADDAY121999GF104991041051012501999999MD1210081+9999MW1021
0063010890999991951010906004+69717+029883FM-12+008899999V0201801N00261004501CN0400001N9-01281+99999099801ADDAY121999GF108991051091004501021999IA1319MD1310151+9999MW1401
0057010890999991951010909004+69717+029883FM-12+008899999V0209991C000019999999N0020001N9-01501+99999099861ADDAY171999GF108991031091004501021999MD1310061+9999MW1731
0057010890999991951010912004+69717+029883FM-12+008899999V0201101N00211004501CN0400001N9-01721+99999099891ADDAY121999GF105991051091004501001001MD1310031+9999MW1401
0057010890999991951010915004+69717+029883FM-12+008899999V0209991C00001220001CN0400001N9-01781+99999100021ADDAY101999GF100991001001999999001001MD1310131+9999MW1401
0063010890999991951010918004+69717+029883FM-12+008899999V0209991C00001220001CN0400001N9-01781+99999100061ADDAY101999GF100991001001999999001001IA1319MD1310041+9999MW1401
0057010890999991951011000004+69717+029883FM-12+008899999V0209991C00001220001CN0400001N9-01611+99999100211ADDAY101999GF100991001001999999001001MD1310081+9999MW1401
0057010890999991951011003004+69717+029883FM-12+008899999V0201801N00101220001CN0400001N9-01501+99999100241ADDAY101999GF100991001001999999001001MD1310031+9999MW1021
0063010890999991951011006004+69717+029883FM-12+008899999V0201801N001019999999N0400001N9-01001+99999100251ADDAY121999GF106991041091004501071999IA1319MD1310011+9999MW1031
0057010890999991951011009004+69717+029883FM-12+008899999V0201201N002619999999N0400001N9-01221+99999100301ADDAY121999GF107991031091004501071999MD1310051+9999MW1031
0057010890999991951011012004+69717+029883FM-12+008899999V0201601N00261220001CN0400001N9-01391+99999100361ADDAY121999GF103991031091004501001001MD1310061+9999MW1151
0057010890999991951011015004+69717+029883FM-12+008899999V0201801N00101004501CN0400001N9-01281+99999100401ADDAY181999GF107991051091004501041999MD1310051+9999MW1401
0063010890999991951011018004+69717+029883FM-12+008899999V0209991C00001004501CN0004001N9-01221+99999100431ADDAY181999GF108991081091004501999999IA1319MD1310031+9999MW1861
0057010890999991951011100004+69717+029883FM-12+008899999V0201801N00101220001CN0400001N9-01781+99999100581ADDAY111999GF103991011091004501041001MD1310071+9999MW1401
0092010890999991951011103004+69717+029883FM-12+008899999V0202001N00101220001CN0400001N9-01721+99999100591ADDAY101999GF103991999091004501001001MD1310011+9999MW1401EQDQ01+000012SCOTLCQ02+000002APC3  
0082010890999991951011106004+69717+029883FM-12+008899999V0201801N00051220001CN0400001N9-01891+99999100601ADDAY101999GF103991031091004501001001IA1319MD1310011+9999MW1761EQDQ01+000002APC3  
0092010890999991951011109004+69717+029883FM-12+008899999V0209991C00001220001CN0400001N9-01781+99999100581ADDAY101999GF104991041081008001001001MD1710021+9999MW1401EQDQ01+000022APCTENQ02+000002APC3  
0057010890999991951011112004+69717+029883FM-12+008899999V0209991C00001220001CN0400001N9-01781+99999100561ADDAY101999GF102991021081008001001001MD1710021+9999MW1401
0057010890999991951011115004+69717+029883FM-12+008899999V0201801N00151220001CN0400001N9-01891+99999100481ADDAY101999GF102991001001999999001021MD1710081+9999MW1401
0063010890999991951011118004+69717+029883FM-12+008899999V0201801N00151220001CN0400001N9-01721+99999100491ADDAY101999GF103991021091004501001021IA1319MD1210011+9999MW1021
0078010890999991951011200004+69717+029883FM-12+008899999V0209991C00001220001CN0600001N9-02001+99999100591ADDAY101999GF102991001001999999001021MW1401EQDQ01+000032APCTENQ02+000002APC3  
0057010890999991951011203004+69717+029883FM-12+008899999V0209991C00001220001CN0600001N9-02001+99999100661ADDAY101999GF103991001001999999001021MD1310071+9999MW1401
0063010890999991951011206004+69717+029883FM-12+008899999V0209991C00001220001CN0600001N9-02281+99999100671ADDAY101999GF101991001001999999001021IA1319MD1310011+9999MW1401
0057010890999991951011209004+69717+029883FM-12+008899999V0201801N00051220001CN0700001N9-02281+99999100711ADDAY101999GF101991001001999999001021MD1310041+9999MW1401
0057010890999991951011212004+69717+029883FM-12+008899999V0201801N00051220001CN0700001N9-02281+99999100721ADDAY101999GF102991001001999999001021MD1310011+9999MW1401
0057010890999991951011215004+69717+029883FM-12+008899999V0209991C00001220001CN0600001N9-02111+99999100651ADDAY101999GF100991001001999999001001MD1810071+9999MW1401
0063010890999991951011218004+69717+029883FM-12+008899999V0209991C00001220001CN0600001N9-02111+99999100591ADDAY101999GF100991001001999999001001IA1319MD1810061+9999MW1401
0057010890999991951011300004+69717+029883FM-12+008899999V0209991C00001220001CN0600001N9-02221+99999100631ADDAY101999GF100991001001999999001001MD1310031+9999MW1401
0057010890999991951011303004+69717+029883FM-12+008899999V0209991C00001220001CN0600001N9-02221+99999100641ADDAY101999GF100991001001999999001001MD1310011+9999MW1401
0063010890999991951011306004+69717+029883FM-12+008899999V0201601N002619999999N0400001N9-01781+99999100401ADDAY121999GF108991021061004501021999IA1319MD1810241+9999MW1401
0057010890999991951011309004+69717+029883FM-12+008899999V0209991C000019999999N0400001N9-01781+99999100161ADDAY121999GF108991021061004501071999MD1810241+9999MW1401
0076010890999991951011312004+69717+029883FM-12+008899999V0202001N002619999999N0400001N9-01611+99999099811ADDAY121999GF108991999001012501021999MD1810351+9999MW1401EQDQ01+000002SCOTLC
0076010890999991951011315004+69717+029883FM-12+008899999V0202201N00101220001CN0400001N9-01721+99999099611ADDAY121999GF103991999001999999041001MD1810201+9999MW1021EQDQ01+000002SCOTLC
0063010890999991951011318004+69717+029883FM-12+008899999V0202001N001019999999N0400001N9-01501+99999099421ADDAY111999GF108991031091008001071999IA1319MD1810201+9999MW1021
0057010890999991951011403004+69717+029883FM-12+008899999V0202401N004619999999N0700001N9-01111+99999099041ADDAY181999GF108991041091004501021999MD1810081+9999MW1021
0082010890999991951011406004+69717+029883FM-12+008899999V0202401N00261220001CN0400001N9-01281+99999099141ADDAY111999GF103991999081008001001001IA1319MD1310101+9999MW1021EQDQ01+000022SCOTLC
0057010890999991951011409004+69717+029883FM-12+008899999V0202001N002619999999N0400001N9-01721+99999099271ADDAY111999GF107991051081999999071999MD1310131+9999MW1401
0057010890999991951011412004+69717+029883FM-12+008899999V0209991C00001004501CN0012001N9-01721+99999099371ADDAY111999GF108991081091004501999999MD1210101+9999MW1861
0057010890999991951011415004+69717+029883FM-12+008899999V0202001N00101220001CN0400001N9-01781+99999099611ADDAY181999GF104991031091004501041001MD1210251+9999MW1151
0063010890999991951011418004+69717+029883FM-12+008899999V0209991C00001004501CN0050001N9-01611+99999099821ADDAY181999GF107991071091004501999999IA1319MD1310201+9999MW1851
0057010890999991951011500004+69717+029883FM-12+008899999V0209991C00001004501CN0400001N9-01891+99999100111ADDAY121999GF105991051091004501999999MD1310101+9999MW1401
0057010890999991951011503004+69717+029883FM-12+008899999V0209991C00001220001CN0400001N9-01891+99999100311ADDAY121999GF103991031091004501001001MD1310201+9999MW1401
0063010890999991951011506004+69717+029883FM-12+008899999V0209991C000019999999N0400001N9-01721+99999100401ADDAY111999GF108991041091004501021999IA1319MD1310091+9999MW1401
0057010890999991951011509004+69717+029883FM-12+008899999V0201801N001019999999N0400001N9-02001+99999100531ADDAY121999GF108991031091004501021999MD1310131+9999MW1401
0057010890999991951011512004+69717+029883FM-12+008899999V0202001N00151000601CN0030001N9-02001+99999100671ADDAY141999GF109991091061000751999999MD1310141+9999MW1471
0057010890999991951011515004+69717+029883FM-12+008899999V0202401N00261004501CN0050001N9-02111+99999100791ADDAY181999GF108991051091004501021999MD1310121+9999MW1851
0063010890999991951011518004+69717+029883FM-12+008899999V0202401N00101004501CN0100001N9-01891+99999100881ADDAY181999GF108991051091004501021999IA1319MD1310091+9999MW1851
0057010890999991951011600004+69717+029883FM-12+008899999V0209991C000019999999N0400001N9-02001+99999101091ADDAY121999GF108991021091008001071999MD1310121+9999MW1401
0076010890999991951011603004+69717+029883FM-12+008899999V0201801N999999999999N0400001N9-02001+99999101211ADDAY121999GF108991021091008001999999MD1310121+9999MW1401EQDQ01+003193WOSPD 
0082010890999991951011606004+69717+029883FM-12+008899999V0202001N00101220001CN0400001N9-02111+99999101291ADDAY121999GF103991999001999999041001IA1319MD1310081+9999MW1401EQDQ01+000002SCOTLC
0057010890999991951011609004+69717+029883FM-12+008899999V0209991C00001220001CN0400001N9-02281+99999101311ADDAY121999GF104991001001999999041999MD1310021+9999MW1401
0057010890999991951011612004+69717+029883FM-12+008899999V0209991C00001220001CN0400001N9-02221+99999101321ADDAY121999GF103991001001999999001051MD1710011+9999MW1401
0057010890999991951011615004+69717+029883FM-12+008899999V0209991C00001002401CN0004001N9-01721+99999101161ADDAY181999GF108991061091002501071999MD1810151+9999MW1861
0098010890999991951011618004+69717+029883FM-12+008899999V0209991C000019999999N0600001N9-01501+99999101171ADDAY181999GF107991041091004501041001IA1319MD1210011+9999MW1151EQDQ01+000072APCTENQ02+000002APC3  
0057010890999991951011700004+69717+029883FM-12+008899999V0209991C00001220001CN0400001N9-01891+99999101271ADDAY101999GF103991011021008001041001MD1210021+9999MW1401
0076010890999991951011703004+69717+029883FM-12+008899999V0209991C000019999999N0400001N9-02001+99999101301ADDAY111999GF108991031081008001071999MD1310031+9999MW1401EQDQ01+000002APC3  
0082010890999991951011706004+69717+029883FM-12+008899999V0202001N00051220001CN0400001N9-02221+99999101321ADDAY111999GF103991999001999999041001IA1319MD1310021+9999MW1401EQDQ01+000002SCOTLC
0057010890999991951011709004+69717+029883FM-12+008899999V0202001N002619999999N0400001N9-02221+99999101261ADDAY111999GF106991041081008001041001MD1710041+9999MW1401
0057010890999991951011712004+69717+029883FM-12+008899999V0202001N002619999999N0400001N9-02111+99999101171ADDAY121999GF105991031081008001041001MD1710081+9999MW1401
0057010890999991951011715004+69717+029883FM-12+008899999V0209991C00001220001CN0400001N9-02221+99999101111ADDAY101999GF102991001001999999001021MD1710061+9999MW1401
0063010890999991951011718004+69717+029883FM-12+008899999V0209991C00001220001CN0400001N9-02501+99999100931ADDAY101999GF100991001001999999001001IA1319MD1810181+9999MW1401
0057010890999991951011800004+69717+029883FM-12+008899999V0209991C00001220001CN0400001N9-02611+99999100641ADDAY101999GF101991001001999999001021MD1810151+9999MW1401
0076010890999991951011803004+69717+029883FM-12+008899999V0209991C00001220001CN0400001N9-02611+99999100441ADDAY101999GF102991001001999999001021MD1810201+9999MW1401EQDQ01+000022SCOTLC
0082010890999991951011806004+69717+029883FM-12+008899999V0209991C00001220001CN0400001N9-02721+99999100351ADDAY101999GF102991001001999999001021IA1319MD1810091+9999MW1401EQDQ01+000022SCOTLC
0076010890999991951011809004+69717+029883FM-12+008899999V0201801N00151220001CN0600001N9-02501+99999100251ADDAY101999GF102991001001999999001021MD1810101+9999MW1401EQDQ01+000022SCOTLC
0057010890999991951011812004+69717+029883FM-12+008899999V0201801N00101220001CN0600001N9-02111+99999100101ADDAY111999GF104991031001022501041021MD1810151+9999MW1401
0057010890999991951011815004+69717+029883FM-12+008899999V0209991C00001220001CN0600001N9-02281+99999099991ADDAY121999GF105991001001999999001061MD1810111+9999MW1401
0063010890999991951011818004+69717+029883FM-12+008899999V0202001N001019999999N0600001N9-02111+99999099861ADDAY121999GF107991011011008001001081IA1319MD1810131+9999MW1401
0057010890999991951011900004+69717+029883FM-12+008899999V0202401N002619999999N0400001N9-01611+99999099561ADDAY121999GF108991021091008001071999MD1710101+9999MW1021
0057010890999991951011903004+69717+029883FM-12+008899999V0202001N002619999999N0400001N9-01501+99999099441ADDAY121999GF108991021091008001071999MD1810121+9999MW1021
0063010890999991951011906004+69717+029883FM-12+008899999V0202701N004619999999N0400001N9-01001+99999099271ADDAY121999GF108991031091008001071999IA1319MD1810171+9999MW1021
0057010890999991951011909004+69717+029883FM-12+008899999V0202001N002619999999N0400001N9-00891+99999099251ADDAY121999GF108991021091008001071999MD1210021+9999MW1021
0057010890999991951011912004+69717+029883FM-12+008899999V0202401N004619999999N0160001N9-00781+99999099141ADDAY181999GF108991041091004501021999MD1810111+9999MW1851
0057010890999991951011915004+69717+029883FM-12+008899999V0202401N004619999999N0600001N9-00781+99999098971ADDAY121999GF108991031091008001071999MD1810171+9999MW1021
0063010890999991951011918004+69717+029883FM-12+008899999V0202501N004619999999N0400001N9-00611+99999098851ADDAY121999GF107991041091008001071001IA1319MD1710121+9999MW1021
0057010890999991951012000004+69717+029883FM-12+008899999V0202501N004619999999N0400001N9-00501+99999098721ADDAY121999GF108991031091008001071999MD1710101+9999MW1021
0057010890999991951012003004+69717+029883FM-12+008899999V0202501N004619999999N0400001N9-00501+99999098571ADDAY121999GF108991031091008001071999MD1710151+9999MW1021
0063010890999991951012006004+69717+029883FM-12+008899999V0202501N004619999999N0600001N9-00281+99999098481ADDAY121999GF108991031051012501021999IA1319MD1710101+9999MW1021
0057010890999991951012009004+69717+029883FM-12+008899999V0202501N004619999999N0600001N9-00281+99999098431ADDAY111999GF105991031081012501041001MD1710051+9999MW1011
0057010890999991951012012004+69717+029883FM-12+008899999V0202001N00461220001CN0700001N9-00391+99999098381ADDAY101999GF103991001001999999041021MD1710051+9999MW1021
0057010890999991951012015004+69717+029883FM-12+008899999V0202001N00721220001CN0700001N9-00501+99999098291ADDAY101999GF102991001001999999001021MD1810091+9999MW1021
0063010890999991951012018004+69717+029883FM-12+008899999V0202001N00621220001CN0700001N9-00721+99999098151ADDAY101999GF102991001001999999001021IA1319MD1810141+9999MW1021
0057010890999991951012103004+69717+029883FM-12+008899999V0203001N01081004501CN0400001N9-00501+99999098731ADDAY121999GF108991061091004501021999MD1210351+9999MW1181
0063010890999991951012106004+69717+029883FM-12+008899999V0202801N00821004501CN0160001N9-00611+99999098981ADDAY181999GF108991051091004501021999IA1319MD1210251+9999MW1181
0057010890999991951012109004+69717+029883FM-12+008899999V0203001N00931004501CN0100001N9-00611+99999099171ADDAY181999GF108991061091004501021999MD1310291+9999MW1861
0057010890999991951012112004+69717+029883FM-12+008899999V0203001N01231004501CN0400001N9-00611+99999099431ADDAY181999GF108991061091004501021999MD1310261+9999MW1181
0057010890999991951012115004+69717+029883FM-12+008899999V0203201N012319999999N0600001N9-00611+99999099631ADDAY131999GF106991041091004501061001MD1210201+9999MW1361
0063010890999991951012118004+69717+029883FM-12+008899999V0203001N01181004501CN0400001N9-00611+99999099841ADDAY121999GF108991051091004501021999IA1319MD1310211+9999MW1181
0057010890999991951012200004+69717+029883FM-12+008899999V0203401N012319999999N0700001N9-00501+99999100701ADDAY111999GF106991031091004501001061MD1310301+9999MW1021
0057010890999991951012203004+69717+029883FM-12+008899999V0203401N00931004501CN0700001N9-00611+99999100931ADDAY121999GF105991051091004501001001MD1310231+9999MW1021
0063010890999991951012206004+69717+029883FM-12+008899999V0203401N00931220001CN0700001N9-00781+99999101181ADDAY121999GF104991041091004501001001IA1319MD1310251+9999MW1021
0057010890999991951012209004+69717+029883FM-12+008899999V0203601N00931220001CN0700001N9-00891+99999101351ADDAY111999GF104991041091004501001001MD1310171+9999MW1021
0057010890999991951012212004+69717+029883FM-12+008899999V0203601N00671220001CN0700001N9-00891+99999101571ADDAY111999GF103991031091004501001001MD1210221+9999MW1021
0057010890999991951012215004+69717+029883FM-12+008899999V0203601N00671004501CN0700001N9-00891+99999101741ADDAY111999GF105991051091004501001001MD1310171+9999MW1021
0063010890999991951012218004+69717+029883FM-12+008899999V0203201N00461004501CN0700001N9-01111+99999101941ADDAY111999GF105991051091004501001001IA1319MD1310201+9999MW1021
0057010890999991951012300004+69717+029883FM-12+008899999V0202401N00101220001CN0700001N9-01501+99999102251ADDAY101999GF101991011031008001001001MD1310181+9999MW1021
0057010890999991951012303004+69717+029883FM-12+008899999V0209991C00001220001CN0700001N9-01721+99999102411ADDAY101999GF101991011031008001001001MD1310161+9999MW1021
0063010890999991951012306004+69717+029883FM-12+008899999V0202001N00051220001CN0400001N9-02281+99999102531ADDAY101999GF100991001001999999001001IA1319MD1310121+9999MW1401
0057010890999991951012309004+69717+029883FM-12+008899999V0209991C00001220001CN0400001N9-02391+99999102611ADDAY101999GF102991001001999999001011MD1310081+9999MW1401
0057010890999991951012312004+69717+029883FM-12+008899999V0201801N00101220001CN0400001N9-02281+99999102521ADDAY101999GF103991001001999999001021MD1990101+9999MW1401
0057010890999991951012315004+69717+029883FM-12+008899999V0209991C000019999999N0400001N9-02221+99999102441ADDAY101999GF105991031001022501071021MD1710081+9999MW1401
0063010890999991951012318004+69717+029883FM-12+008899999V0202001N00261220001CN0400001N9-02111+99999102231ADDAY121999GF105991001001999999001021IA1319MD1810211+9999MW1401
0057010890999991951012400004+69717+029883FM-12+008899999V0202001N006219999999N0400001N9-01721+99999101721ADDAY121999GF108991041001017501071021MD1810251+9999MW1021
0057010890999991951012403004+69717+029883FM-12+008899999V0202301N010319999999N0400001N9-01501+99999101441ADDAY121999GF108991031051012501021999MD1810281+9999MW1021
0063010890999991951012406004+69717+029883FM-12+008899999V0202301N009319999999N0400001N9-01221+99999101231ADDAY121999GF108991031051012501021999IA1319MD1810211+9999MW1021
0057010890999991951012409004+69717+029883FM-12+008899999V0202101N004619999999N0400001N9-01221+99999101111ADDAY121999GF108991031051012501021999MD1810121+9999MW1021
0057010890999991951012412004+69717+029883FM-12+008899999V0202401N006219999999N0080001N9-01001+99999100941ADDAY171999GF108991021051004501021999MD1810171+9999MW1731
0057010890999991951012415004+69717+029883FM-12+008899999V0202301N004619999999N0400001N9-01891+99999100531ADDAY121999GF108991041091004501021999MD1810131+9999MW1021
0063010890999991951012418004+69717+029883FM-12+008899999V0202301N00261004501CN0160001N9-00781+99999100731ADDAY181999GF108991051091004501021999IA1319MD1810081+9999MW1851
0057010890999991951012500004+69717+029883FM-12+008899999V0202301N004619999999N0400001N9-00391+99999100591ADDAY121999GF108991021091008001071999MD1810101+9999MW1021
0057010890999991951012503004+69717+029883FM-12+008899999V0202301N004619999999N0400001N9-00391+99999100711ADDAY121999GF107991021091008001071999MD1210121+9999MW1021
0063010890999991951012506004+69717+029883FM-12+008899999V0202401N004619999999N0400001N9-00281+99999100871ADDAY121999GF105991031091008001071999IA1319MD1310161+9999MW1021
0057010890999991951012509004+69717+029883FM-12+008899999V0202001N00461012301CN0400001N9-00281+99999101131ADDAY121999GF105991051051012501001001MD1310261+9999MW1021
0057010890999991951012512004+69717+029883FM-12+008899999V0201801N00101220001CN0600001N9-00501+99999101421ADDAY101999GF103991021051012501001011MD1310291+9999MW1011
0057010890999991951012515004+69717+029883FM-12+008899999V0209991C00001220001CN0600001N9-00611+99999101551ADDAY101999GF101991011051012501001001MD1310231+9999MW1021
0063010890999991951012518004+69717+029883FM-12+008899999V0209991C00001220001CN0600001N9-00721+99999101631ADDAY161999GF102991021051012501001001IA1319MD1310081+9999MW1021
0078010890999991951012600004+69717+029883FM-12+008899999V0209991C00001220001CN0400001N9-00781+99999101681ADDAY101999GF103991021081008001001011MW1021EQDQ01+000032APCTENQ02+000002APC3  
0057010890999991951012603004+69717+029883FM-12+008899999V0202401N002619999999N0200001N9-00721+99999101621ADDAY111999GF108991031091008001021999MD1810061+9999MW1151
0063010890999991951012606004+69717+029883FM-12+008899999V0202401N004619999999N0200001N9-00391+99999101611ADDAY121999GF108991031091004501021999IA1319MD1710011+9999MW1151
0057010890999991951012609004+69717+029883FM-12+008899999V0202401N00261007801CN0400001N9-00391+99999101661ADDAY121999GF107991071081008001999999MD1310051+9999MW1021
0057010890999991951012612004+69717+029883FM-12+008899999V0202001N00261220001CN0400001N9-00501+99999101861ADDAY121999GF104991041081008001001001MD1210201+9999MW1021
0057010890999991951012615004+69717+029883FM-12+008899999V0209991C00001220001CN0700001N9-00781+99999101931ADDAY101999GF102991021081008001001001MD1310071+9999MW1021
0063010890999991951012618004+69717+029883FM-12+008899999V0202001N003119999999N0400001N9-00721+99999102051ADDAY131999GF105991041051008001999999IA1319MD1310121+9999MW1021
0057010890999991951012700004+69717+029883FM-12+008899999V0202401N007719999999N0120001N9-00501+99999102081ADDAY171999GF108991031091004501021999MD1310011+9999MW1711
0057010890999991951012703004+69717+029883FM-12+008899999V0202401N007219999999N0400001N9-00501+99999101991ADDAY121999GF108991021091004501021999MD1710081+9999MW1021
0063010890999991951012706004+69717+029883FM-12+008899999V0202401N007219999999N0400001N9-00501+99999101871ADDAY121999GF106991031091004501041999IA1319MD1710121+9999MW1021
0092010890999991951012709004+69717+029883FM-12+008899999V0202001N00671220001CN0700001N9-00721+99999101951ADDAY121999GF104991021051012501041021MD1210081+9999MW1021EQDQ01+000042APCTENQ02+000082APC3  
0057010890999991951012712004+69717+029883FM-12+008899999V0202301N00411220001CN0700001N9-00781+99999102111ADDAY121999GF104991031051012501001021MD1210161+9999MW1021
0057010890999991951012715004+69717+029883FM-12+008899999V0202001N00101220001CN0700001N9-01001+99999102171ADDAY101999GF102991021051012501001001MD1310061+9999MW1011
0063010890999991951012718004+69717+029883FM-12+008899999V0202001N00101012301CN0400001N9-01111+99999102261ADDAY121999GF108991051051012501041999IA1319MD1310091+9999MW1031
0057010890999991951012803004+69717+029883FM-12+008899999V0201801N00101220001CN0600001N9-01111+99999102221ADDAY121999GF104991041051012501001001MD1810071+9999MW1021
0063010890999991951012806004+69717+029883FM-12+008899999V0201801N00261220001CN0600001N9-01111+99999102231ADDAY121999GF103991031051012501001001IA1319MD1210011+9999MW1021
0057010890999991951012809004+69717+029883FM-12+008899999V0202001N006719999999N0400001N9-01221+99999102241ADDAY121999GF108991021061008001021999MD1310011+9999MW1031
0057010890999991951012812004+69717+029883FM-12+008899999V0202001N004619999999N0400001N9-01111+99999102131ADDAY171999GF106991021091008001021021MD1710111+9999MW1021
0057010890999991951012815004+69717+029883FM-12+008899999V0202001N00101220001CN0600001N9-01221+99999102081ADDAY101999GF103991031051012501001001MD1810051+9999MW1011
0063010890999991951012818004+69717+029883FM-12+008899999V0201801N00101012301CN0400001N9-01221+99999102141ADDAY121999GF108991051051012501071999IA1319MD1210061+9999MW1031
0057010890999991951012900004+69717+029883FM-12+008899999V0202401N006719999999N0400001N9-00781+99999101871ADDAY121999GF108991031091004501021999MD1710081+9999MW1151
0057010890999991951012903004+69717+029883FM-12+008899999V0202401N00461220001CN0400001N9-01221+99999101631ADDAY111999GF104991021051012501001021MD1810241+9999MW1021
0063010890999991951012906004+69717+029883FM-12+008899999V0202401N00261220001CN0400001N9-01391+99999101561ADDAY111999GF103991021051012501001021IA1319MD1710071+9999MW1021
0057010890999991951012909004+69717+029883FM-12+008899999V0202201N00461220001CN0400001N9-01501+99999101391ADDAY111999GF104991031051012501001021MD1710171+9999MW1401
0057010890999991951012912004+69717+029883FM-12+008899999V0202201N004619999999N0400001N9-01281+99999101101ADDAY111999GF105991041051012501041001MD1710301+9999MW1021
0057010890999991951012915004+69717+029883FM-12+008899999V0202301N009319999999N0400001N9-01001+99999100891ADDAY121999GF106991031051012501041001MD1810211+9999MW1021
0063010890999991951012918004+69717+029883FM-12+008899999V0202301N008219999999N0400001N9-00781+99999100861ADDAY121999GF108991031051012501071999IA1319MD1810031+9999MW1021
0057010890999991951013000004+69717+029883FM-12+008899999V0202301N00411220001CN0400001N9-00721+99999101131ADDAY121999GF104991031051012501999999MD1210051+9999MW1021
0057010890999991951013003004+69717+029883FM-12+008899999V0209991C00001220001CN0400001N9-00781+99999101401ADDAY101999GF103991031051012501001001MD1210271+9999MW1021
0063010890999991951013006004+69717+029883FM-12+008899999V0202101N003619999999N0400001N9-00781+99999101441ADDAY121999GF106991031051012501041001IA1319MD1210041+9999MW1021
0057010890999991951013009004+69717+029883FM-12+008899999V0202001N000519999999N0400001N9-00781+99999101591ADDAY111999GF105991021051012501041001MD1210151+9999MW1021
0057010890999991951013012004+69717+029883FM-12+008899999V0201801N002119999999N0700001N9-00781+99999101441ADDAY121999GF105991021051012501041001MD1710151+9999MW1021
0057010890999991951013015004+69717+029883FM-12+008899999V0202201N002619999999N0600001N9-00721+99999101421ADDAY111999GF105991031051012501041021MD1710021+9999MW1021
0063010890999991951013018004+69717+029883FM-12+008899999V0202001N00261012301CN0600001N9-00721+99999101511ADDAY121999GF105991051051012501001001IA1319MD1310091+9999MW1031
0057010890999991951013100004+69717+029883FM-12+008899999V0202001N00101012301CN0600001N9-00611+99999101671ADDAY121999GF105991051051012501001001MD1310081+9999MW1021
0057010890999991951013103004+69717+029883FM-12+008899999V0201801N00101012301CN0600001N9-00501+99999101821ADDAY121999GF105991051051012501001001MD1310141+9999MW1021
0063010890999991951013106004+69717+029883FM-12+008899999V0209991C00001012301CN0400001N9-00501+99999101901ADDAY121999GF107991071051012501999999IA1319MD1310081+9999MW1031
0057010890999991951013109004+69717+029883FM-12+008899999V0209991C00001012301CN0400001N9-00281+99999102041ADDAY121999GF108991081051012501999999MD1310141+9999MW1021
0057010890999991951013112004+69717+029883FM-12+008899999V0209991C00001012301CN0400001N9-00281+99999102181ADDAY121999GF107991071051012501999999MD1310141+9999MW1021
0057010890999991951013115004+69717+029883FM-12+008899999V0202201N00101220001CN0400001N9-00501+99999102291ADDAY121999GF107991001001999999071999MD1310101+9999MW1021
0082010890999991951013118004+69717+029883FM-12+008899999V0202001N00101220001CN0400001N9-00721+99999102341ADDAY101999GF103991999001999999071001IA1319MD1310051+9999MW1011EQDQ01+000002SCOTLC
0094010890999991951020100004+69717+029883FM-12+008899999V0209991C00001220001CN0400001N9-01001+99999102391ADDAY101999GF101991999001999999041001MW1021EQDQ01+000002SCOTLCQ02+000032APCTENQ03+000002APC3  
0057010890999991951020103004+69717+029883FM-12+008899999V0209991C00001220001CN0400001N9-01221+99999102341ADDAY101999GF100991001001999999001001MD1810051+9999MW1021
0082010890999991951020106004+69717+029883FM-12+008899999V0209991C00001220001CN0400001N9-01281+99999102341ADDAY101999GF100991001001999999001001IA1319MD1410001+9999MW1001EQDQ01+000072APCTEN
0057010890999991951020109004+69717+029883FM-12+008899999V0201801N00101220001CN0400001N9-01391+99999102371ADDAY101999GF101991001001999999001021MD1210031+9999MW1021
0057010890999991951020112004+69717+029883FM-12+008899999V0201801N00101220001CN0600001N9-01391+99999102291ADDAY101999GF102991011021008001041021MD1710081+9999MW1021
0057010890999991951020115004+69717+029883FM-12+008899999V0209991C00001220001CN0400001N9-01391+99999102231ADDAY101999GF102991001001999999001021MD1710061+9999MW1401
0063010890999991951020118004+69717+029883FM-12+008899999V0201801N00101220001CN0400001N9-01391+99999102141ADDAY101999GF102991001001999999001021IA1319MD1710091+9999MW1401
0057010890999991951020200004+69717+029883FM-12+008899999V0202001N00361220001CN0400001N9-01281+99999101951ADDAY101999GF102991001001999999001021MD1710061+9999MW1021
0057010890999991951020203004+69717+029883FM-12+008899999V0202001N00311220001CN0400001N9-01281+99999101811ADDAY101999GF102991001001999999001021MD1710141+9999MW1021
0063010890999991951020206004+69717+029883FM-12+008899999V0202101N00411220001CN0400001N9-01391+99999101631ADDAY101999GF102991001001999999001021IA1319MD1710181+9999MW1021
0057010890999991951020209004+69717+029883FM-12+008899999V0202301N004619999999N0600001N9-00611+99999101311ADDAY121999GF107991041051012501071999MD1810321+9999MW1021
0057010890999991951020212004+69717+029883FM-12+008899999V0202301N010319999999N0400001N9-00221+99999101191ADDAY121999GF108991031091008001021999MD1510121+9999MW1021
0057010890999991951020215004+69717+029883FM-12+008899999V0202301N010319999999N0400001N9-00221+99999101081ADDAY121999GF108991021091008001021999MD1810111+9999MW1021
0063010890999991951020218004+69717+029883FM-12+008899999V0202501N009319999999N0400001N9-00221+99999101101ADDAY121999GF108991031091008001071999IA1319MD1210021+9999MW1021
0057010890999991951020300004+69717+029883FM-12+008899999V0202301N009819999999N0400001N9-00221+99999101071ADDAY121999GF108991031091008001021999MD1710051+9999MW1021
0057010890999991951020303004+69717+029883FM-12+008899999V0202301N009819999999N0400001N9-00221+99999101001ADDAY121999GF108991021091008001021999MD1810071+9999MW1021
0082010890999991951020306004+69717+029883FM-12+008899999V0202301N007219999999N0400001N9-00221+99999101001ADDAY121999GF108991031091008001071999IA1319MD1410001+9999MW1021EQDQ01+000022APCTEN
0057010890999991951020309004+69717+029883FM-12+008899999V0202301N004619999999N0400001N9-00111+99999101101ADDAY121999GF108991031061004501071999MD1310101+9999MW1021
0057010890999991951020312004+69717+029883FM-12+008899999V0202301N004619999999N0600001N9-00111+99999101131ADDAY121999GF107991041091008001051999MD1310031+9999MW1021
0092010890999991951020315004+69717+029883FM-12+008899999V0202401N004619999999N0600001N9-00111+99999101111ADDAY121999GF107991031091008001071999MD1710021+9999MW1021EQDQ01+000022APCTENQ02+000002APC3  
0082010890999991951020318004+69717+029883FM-12+008899999V0202401N00461220001CN0600001N9-00111+99999101121ADDAY121999GF103991031091008001001001IA1319MD1210011+9999MW1021EQDQ01+000002APC3  
0057010890999991951020403004+69717+029883FM-12+008899999V0202401N009319999999N0400001N9-00281+99999100971ADDAY111999GF108991031091004501021999MD1810101+9999MW1181
0098010890999991951020406004+69717+029883FM-12+008899999V0202401N00931004501CN0400001N9-00501+99999100981ADDAY111999GF106991051091004501041001IA1319MD1210011+9999MW1181EQDQ01+000042APCTENQ02+000012APC3  
0057010890999991951020409004+69717+029883FM-12+008899999V0202401N00671220001CN0400001N9-00721+99999101021ADDAY101999GF100991001001999999001001MD1210041+9999MW1021
0057010890999991951020412004+69717+029883FM-12+008899999V0202401N00671220001CN0600001N9-00721+99999101151ADDAY101999GF102991011011012501001021MD1210131+9999MW1021
0057010890999991951020415004+69717+029883FM-12+008899999V0202401N001019999999N0600001N9-00781+99999101021ADDAY111999GF106991031081008001041051MD1990131+9999MW1031
0063010890999991951020418004+69717+029883FM-12+008899999V0202401N002619999999N0600001N9-00501+99999100841ADDAY111999GF108991031091008001021999IA1319MD1810181+9999MW1021
0057010890999991951020500004+69717+029883FM-12+008899999V0202301N009319999999N0400001N9-00391+99999100791ADDAY121999GF108991031091004501021999MD1810051+9999MW1021
0057010890999991951020503004+69717+029883FM-12+008899999V0202301N009819999999N0400001N9-00391+99999100651ADDAY121999GF108991041091004501021999MD1710141+9999MW1021
0063010890999991951020506004+69717+029883FM-12+008899999V0202301N012319999999N0400001N9-00391+99999100721ADDAY121999GF108991041091004501021999IA1319MD1210071+9999MW1021
0057010890999991951020509004+69717+029883FM-12+008899999V0202801N009319999999N0100001N9-00891+99999100871ADDAY181999GF108991031091004501021999MD1210151+9999MW1851
0076010890999991951020512004+69717+029883FM-12+008899999V0202401N007719999999N0400001N9-01001+99999100871ADDAY171999GF106991021091004501071001MD1410001+9999MW1151EQDQ01+000032APCTEN
0076010890999991951020515004+69717+029883FM-12+008899999V0202301N004619999999N0400001N9-00891+99999100961ADDAY121999GF107991999001012501021999MD1310091+9999MW1021EQDQ01+000002SCOTLC
0063010890999991951020518004+69717+029883FM-12+008899999V0202301N00101220001CN0600001N9-01001+99999101111ADDAY121999GF100991001001999999001001IA1319MD1310151+9999MW1011
0057010890999991951020600004+69717+029883FM-12+008899999V0202301N002619999999N0400001N9-00891+99999101181ADDAY121999GF108991021091008001021999MD1310021+9999MW1031
0057010890999991951020603004+69717+029883FM-12+008899999V0202301N001519999999N0400001N9-00891+99999101151ADDAY121999GF108991011091008001021999MD1710031+9999MW1021
0063010890999991951020606004+69717+029883FM-12+008899999V0202301N004619999999N0400001N9-00891+99999101181ADDAY121999GF108991021091008001021999IA1319MD1310031+9999MW1021
0057010890999991951020609004+69717+029883FM-12+008899999V0202301N006719999999N0400001N9-00781+99999101191ADDAY121999GF108991021091008001021999MD1310011+9999MW1021
0076010890999991951020612004+69717+029883FM-12+008899999V0202401N002619999999N0400001N9-00781+99999101401ADDAY121999GF108991999001012501021999MD1310241+9999MW1021EQDQ01+000002SCOTLC
0057010890999991951020615004+69717+029883FM-12+008899999V0202301N002619999999N0600001N9-00891+99999101451ADDAY121999GF105991031091004501051001MD1310051+9999MW1011
0063010890999991951020618004+69717+029883FM-12+008899999V0209991C00001007801CN0400001N9-01111+99999101581ADDAY121999GF105991051051008001999999IA1319MD1310131+9999MW1031
0057010890999991951020700004+69717+029883FM-12+008899999V0209991C000019999999N0400001N9-00891+99999101791ADDAY121999GF108991021091008001021999MD1310081+9999MW1021
0057010890999991951020703004+69717+029883FM-12+008899999V0209991C000019999999N0400001N9-00781+99999101991ADDAY121999GF108991031091008001021999MD1310201+9999MW1021
0082010890999991951020706004+69717+029883FM-12+008899999V0209991C00001002401CN0400001N9-00781+99999101991ADDAY121999GF108991051091002501021999IA1319MD1410001+9999MW1151EQDQ01+000032APCTEN
0057010890999991951020709004+69717+029883FM-12+008899999V0209991C00001004501CN0160001N9-00721+99999102071ADDAY181999GF108991051091004501021999MD1310081+9999MW1851
0057010890999991951020712004+69717+029883FM-12+008899999V0209991C000019999999N0400001N9-00721+99999102171ADDAY121999GF105991021091008001021011MD1310101+9999MW1011
0057010890999991951020715004+69717+029883FM-12+008899999V0209991C000019999999N0200001N9-00611+99999102221ADDAY121999GF107991031051012501041021MD1310051+9999MW1101
0063010890999991951020718004+69717+029883FM-12+008899999V0209991C00001220001CN0400001N9-00781+99999102381ADDAY121999GF104991021051012501041999IA1309MD1310161+9999MW1021
0057010890999991951020800004+69717+029883FM-12+008899999V0209991C00001220001CN0400001N9-01001+99999102601ADDAY121999GF104991021051012501041999MD1310151+9999MW1021
0057010890999991951020803004+69717+029883FM-12+008899999V0209991C00001220001CN0400001N9-01111+99999102691ADDAY121999GF104991021051012501041999MD1310091+9999MW1021
0063010890999991951020806004+69717+029883FM-12+008899999V0201801N00261220001CN0400001N9-01221+99999102561ADDAY101999GF103991021021008001041001IA1309MD1710131+9999MW1021
0073010890999991951020809004+69717+029883FM-12+008899999V0209991C00001220001CN0400001N9-01221+99999102581ADDAY121999GA1031+009009059GF106991011021008001071999MD1210021+9999MW1021
0057010890999991951020812004+69717+029883FM-12+008899999V0201801N000519999999N0400001N9-01001+99999102611ADDAY121999GF107991021051012501071999MD1310031+9999MW1021
0057010890999991951020815004+69717+029883FM-12+008899999V0209991C000019999999N0400001N9-00891+99999102581ADDAY121999GF108991021051008001021999MD1710031+9999MW1021
0082010890999991951020818004+69717+029883FM-12+008899999V0209991C000019999999N0400001N9-00891+99999102601ADDAY121999GF108991999001012501021999IA1319MD1310021+9999MW1021EQDQ01+000002SCOTLC
0057010890999991951020900004+69717+029883FM-12+008899999V0209991C00001220001CN0600001N9-01001+99999102641ADDAY121999GF103991031051008001001001MD1310051+9999MW1011
0057010890999991951020903004+69717+029883FM-12+008899999V0209991C00001220001CN0600001N9-01001+99999102651ADDAY121999GF103991031051008001001001MD1310021+9999MW1021
0063010890999991951020906004+69717+029883FM-12+008899999V0201401N00261220001CN0600001N9-01111+99999102641ADDAY101999GF102991021051012501001001IA1319MD1310011+9999MW1011
0057010890999991951020909004+69717+029883FM-12+008899999V0201601N002619999999N0600001N9-00781+99999102691ADDAY121999GF106991021051008001021999MD1310051+9999MW1021
0076010890999991951020912004+69717+029883FM-12+008899999V0201401N002619999999N0400001N9-00721+99999102681ADDAY121999GF108991999001012501021999MD1310011+9999MW1021EQDQ01+000002SCOTLC
0057010890999991951020915004+69717+029883FM-12+008899999V0209991C00001220001CN0600001N9-00781+99999102651ADDAY121999GF105991001001999999071021MD1710031+9999MW1021
0063010890999991951020918004+69717+029883FM-12+008899999V0201601N001019999999N0600001N9-00891+99999102671ADDAY111999GF106991011051012501071999IA1319MD1210021+9999MW1021
0057010890999991951021000004+69717+029883FM-12+008899999V0209991C000019999999N0400001N9-01001+99999102601ADDAY111999GF105991011051012501071001MD1710081+9999MW1021
0057010890999991951021003004+69717+029883FM-12+008899999V0201801N001019999999N0400001N9-01111+99999102501ADDAY111999GF108991021051012501071999MD1710101+9999MW1021
0063010890999991951021006004+69717+029883FM-12+008899999V0201801N004619999999N0400001N9-00891+99999102251ADDAY121999GF108991031051012501021999IA1319MD1710351+9999MW1021
0092010890999991951021009004+69717+029883FM-12+008899999V0201001N002619999999N0400001N9-00781+99999102171ADDAY121999GF108991021051012501071999MD1710081+9999MW1021EQDQ01+000022APCTENQ02+000002APC3  
0057010890999991951021012004+69717+029883FM-12+008899999V0201201N00261021001CN0030001N9-00721+99999101941ADDAY171999GF108991081001022501021999MD1710231+9999MW1731
0057010890999991951021015004+69717+029883FM-12+008899999V0201001N00211015001CN0030001N9-00721+99999101741ADDAY171999GF108991081001017501021999MD1810201+9999MW1731
0063010890999991951021018004+69717+029883FM-12+008899999V0209991C00001015001CN0040001N9-00721+99999101691ADDAY171999GF108991081001017501021999IA1319MD1810051+9999MW1711
0063010890999991951021106004+69717+029883FM-12+008899999V0209991C00001015001CN0700001N9-00611+99999101571ADDAY121999GF108991081001017501021999IA1319MD1810101+9999MW1021
0057010890999991951021109004+69717+029883FM-12+008899999V0209991C00001015001CN0400001N9-00501+99999101651ADDAY121999GF108991081001017501021999MD1210081+9999MW1021
0057010890999991951021112004+69717+029883FM-12+008899999V0209991C000019999999N0400001N9-00281+99999101621ADDAY121999GF108991031051012501071999MD1710031+9999MW1021
0057010890999991951021115004+69717+029883FM-12+008899999V0201801N001519999999N0400001N9-00281+99999101601ADDAY121999GF108991031051012501071999MD1810021+9999MW1021
0063010890999991951021118004+69717+029883FM-12+008899999V0201401N002619999999N0200001N9-00281+99999101651ADDAY181999GF108991041091004501021999IA1319MD1310051+9999MW1851
0057010890999991951021200004+69717+029883FM-12+008899999V0209991C00001007801CN0400001N9-00281+99999101681ADDAY121999GF108991051091008001021999MD1310021+9999MW1151
0076010890999991951021203004+69717+029883FM-12+008899999V0209991C000019999999N0400001N9-00281+99999101681ADDAY121999GF108991041091008001021999MD1410001+9999MW1021EQDQ01+000032APCTEN
0063010890999991951021206004+69717+029883FM-12+008899999V0209991C000019999999N0400001N9-00281+99999101711ADDAY121999GF108991031091008001021999IA1319MD1310031+9999MW1021
0057010890999991951021209004+69717+029883FM-12+008899999V0201401N002619999999N0400001N9-00391+99999101821ADDAY121999GF108991021091008001021999MD1310111+9999MW1021
0057010890999991951021212004+69717+029883FM-12+008899999V0201401N002619999999N0400001N9-00501+99999101961ADDAY121999GF108991041051008001021999MD1310141+9999MW1021
0073010890999991951021215004+69717+029883FM-12+008899999V0209991C00001220001CN0200001N9-00781+99999102061ADDAY121999GA1011+006009099GF106991021051012501071021MD1310101+9999MW1151
0063010890999991951021218004+69717+029883FM-12+008899999V0209991C00001220001CN0400001N9-01111+99999102241ADDAY101999GF102991001001999999001021IA1319MD1310221+9999MW1011
0057010890999991951021300004+69717+029883FM-12+008899999V0209991C00001220001CN0400001N9-01611+99999102651ADDAY101999GF100991001001999999001001MD1310151+9999MW1401
0057010890999991951021303004+69717+029883FM-12+008899999V0209991C000019999999N0400001N9-01281+99999102771ADDAY111999GF108991011051012501071999MD1310121+9999MW1031
0063010890999991951021306004+69717+029883FM-12+008899999V0209991C00001220001CN0400001N9-01501+99999102941ADDAY101999GF100991001001999999001001IA1319MD1310171+9999MW1021
0057010890999991951021309004+69717+029883FM-12+008899999V0209991C00001220001CN0700001N9-01781+99999103081ADDAY101999GF101991011061008001001001MD1310121+9999MW1021
0057010890999991951021312004+69717+029883FM-12+008899999V0201801N00101220001CN0700001N9-01721+99999103241ADDAY101999GF100991001001999999001001MD1310161+9999MW1001
0057010890999991951021315004+69717+029883FM-12+008899999V0201801N00101220001CN0700001N9-01891+99999103281ADDAY101999GF100991001001999999001001MD1310041+9999MW1401
0063010890999991951021318004+69717+029883FM-12+008899999V0209991C00001220001CN0700001N9-02221+99999103381ADDAY101999GF100991001001999999001001IA1319MD1310101+9999MW1401
0057010890999991951021400004+69717+029883FM-12+008899999V0201801N00101220001CN0400001N9-02501+99999103521ADDAY101999GF100991001001999999001001MD1310081+9999MW1401
0076010890999991951021403004+69717+029883FM-12+008899999V0209991C00001220001CN0400001N9-02721+99999103581ADDAY101999GF100991001001999999001001MD1310061+9999MW1401EQDQ01+000002APC3  
0063010890999991951021406004+69717+029883FM-12+008899999V0201801N00311220001CN0400001N9-02721+99999103571ADDAY101999GF100991001001999999001001IA1319MD1710011+9999MW1401
0057010890999991951021409004+69717+029883FM-12+008899999V0201801N00211220001CN0400001N9-02721+99999103641ADDAY101999GF100991001001999999001001MD1310071+9999MW1401
0057010890999991951021412004+69717+029883FM-12+008899999V0209991C00001220001CN0700001N9-02501+99999103601ADDAY101999GF100991001001999999001001MD1710141+9999MW1401
0057010890999991951021415004+69717+029883FM-12+008899999V0209991C00001220001CN0700001N9-02501+99999103481ADDAY101999GF100991001001999999001001MD1810121+9999MW1401
0063010890999991951021418004+69717+029883FM-12+008899999V0209991C00001220001CN0700001N9-02391+99999103391ADDAY101999GF100991001001999999001001IA1319MD1810091+9999MW1401
0057010890999991951021500004+69717+029883FM-12+008899999V0209991C00001220001CN0700001N9-02281+99999103281ADDAY101999GF100991001001999999001001MD1810051+9999MW1401
0057010890999991951021503004+69717+029883FM-12+008899999V0209991C00001220001CN0700001N9-02221+99999103241ADDAY101999GF100991001001999999001001MD1810041+9999MW1401
0063010890999991951021506004+69717+029883FM-12+008899999V0201801N00261220001CN0700001N9-02221+99999103091ADDAY101999GF100991001001999999001001IA1009MD1810151+9999MW1401
0057010890999991951021509004+69717+029883FM-12+008899999V0201801N00621220001CN0700001N9-02001+99999102921ADDAY101999GF100991001001999999001001MD1810171+9999MW1021
0057010890999991951021512004+69717+029883FM-12+008899999V0201601N00101220001CN0700001N9-01721+99999102691ADDAY101999GF100991001001999999001001MD1810231+9999MW1021
0057010890999991951021515004+69717+029883FM-12+008899999V0201801N00101220001CN0700001N9-01721+99999102511ADDAY101999GF100991001001999999001001MD1810181+9999MW1001
0063010890999991951021518004+69717+029883FM-12+008899999V0209991C00001220001CN0700001N9-01721+99999102411ADDAY101999GF100991001001999999001001IA1319MD1810101+9999MW1001
0078010890999991951021600004+69717+029883FM-12+008899999V0209991C00001220001CN0400001N9-01891+99999102401ADDAY101999GF101991011051008001001001MW1021EQDQ01+000032APCTENQ02+000002APC3  
0076010890999991951021603004+69717+029883FM-12+008899999V0209991C00001220001CN0400001N9-02001+99999102401ADDAY101999GF100991001001999999001001MD1410001+9999MW1401EQDQ01+000032APCTEN
0063010890999991951021606004+69717+029883FM-12+008899999V0209991C00001220001CN0400001N9-02001+99999102361ADDAY101999GF101991001001999999001021IA1319MD1810041+9999MW1401
0057010890999991951021609004+69717+029883FM-12+008899999V0201801N00101220001CN0700001N9-02001+99999102271ADDAY111999GF104991021051012501041021MD1810091+9999MW1031
0057010890999991951021612004+69717+029883FM-12+008899999V0201801N001019999999N0700001N9-01721+99999102101ADDAY111999GF105991031081008001041021MD1810171+9999MW1021
0057010890999991951021615004+69717+029883FM-12+008899999V0209991C00001220001CN0700001N9-01781+99999101941ADDAY111999GF104991021051012501041021MD1810161+9999MW1021
0063010890999991951021618004+69717+029883FM-12+008899999V0209991C000019999999N0700001N9-01611+99999101891ADDAY121999GF108991031051012501041021IA1319MD1810051+9999MW1021
0057010890999991951021700004+69717+029883FM-12+008899999V0209991C000019999999N0600001N9-01501+99999101721ADDAY121999GF105991021051012501041021MD1810101+9999MW1021
0057010890999991951021703004+69717+029883FM-12+008899999V0209991C000019999999N0600001N9-01501+99999101631ADDAY121999GF105991021051012501041021MD1810091+9999MW1021
0063010890999991951021706004+69717+029883FM-12+008899999V0209991C00001220001CN0600001N9-01501+99999101521ADDAY121999GF104991011051012501041021IA1319MD1810111+9999MW1021
0057010890999991951021709004+69717+029883FM-12+008899999V0209991C000019999999N0700001N9-01111+99999101431ADDAY121999GF106991031051012501041021MD1810091+9999MW1021
0057010890999991951021712004+69717+029883FM-12+008899999V0202001N001019999999N0600001N9-01001+99999101391ADDAY121999GF107991041051012501071999MD1810041+9999MW1021
0057010890999991951021715004+69717+029883FM-12+008899999V0202001N002619999999N0600001N9-01391+99999101381ADDAY121999GF108991041051008001071999MD1810011+9999MW1021
0082010890999991951021718004+69717+029883FM-12+008899999V0202001N00261220001CN0600001N9-01781+99999101381ADDAY101999GF103991031051012501001001IA1319MD1410001+9999MW1011EQDQ01+000032APCTEN
0057010890999991951021803004+69717+029883FM-12+008899999V0201801N00101220001CN0600001N9-01721+99999101201ADDAY121999GF103991031051012501001001MD1310021+9999MW1021
0063010890999991951021806004+69717+029883FM-12+008899999V0209991C00001220001CN0600001N9-01781+99999101231ADDAY101999GF102991021051012501001001IA1319MD1310031+9999MW1021
0057010890999991951021809004+69717+029883FM-12+008899999V0209991C00001220001CN0600001N9-01721+99999101281ADDAY101999GF103991011051012501001021MD1310051+9999MW1021
0057010890999991951021812004+69717+029883FM-12+008899999V0202001N00101220001CN0700001N9-01611+99999101241ADDAY101999GF102991011051012501001021MD1710041+9999MW1021
0076010890999991951021815004+69717+029883FM-12+008899999V0201801N00101220001CN0700001N9-01781+99999101201ADDAY101999GF101991999001999999041001MD1810041+9999MW1021EQDQ01+000002SCOTLC
0063010890999991951021818004+69717+029883FM-12+008899999V0202001N001019999999N0600001N9-01781+99999101101ADDAY121999GF108991031051008001071999IA1319MD1810101+9999MW1031
0057010890999991951021900004+69717+029883FM-12+008899999V0201801N001019999999N0700001N9-01501+99999101051ADDAY111999GF107991031051008001071999MD1810051+9999MW1021
0057010890999991951021903004+69717+029883FM-12+008899999V0209991C000019999999N0700001N9-01391+99999101021ADDAY111999GF106991031051008001071001MD1810031+9999MW1021
0063010890999991951021906004+69717+029883FM-12+008899999V0201801N001019999999N0700001N9-01281+99999100971ADDAY111999GF106991031051008001071001IA1319MD1810051+9999MW1021
0057010890999991951021909004+69717+029883FM-12+008899999V0209991C000019999999N0700001N9-01111+99999100971ADDAY121999GF107991031051008001071999MD1710021+9999MW1021
0076010890999991951021912004+69717+029883FM-12+008899999V0209991C000019999999N0700001N9-01001+99999100961ADDAY111999GF105991021081008001071001MD1710011+9999MW1021EQDQ01+000002APC3  
0057010890999991951021915004+69717+029883FM-12+008899999V0209991C00001220001CN0700001N9-01391+99999101041ADDAY111999GF104991021051012501001021MD1210081+9999MW1021
0063010890999991951021918004+69717+029883FM-12+008899999V0209991C00001012301CN0400001N9-01221+99999100981ADDAY121999GF107991061051012501041999IA1319MD1710061+9999MW1021
0057010890999991951022000004+69717+029883FM-12+008899999V0209991C00001220001CN0400001N9-01391+99999101041ADDAY121999GF104991031051012501041999MD1310031+9999MW1021
0057010890999991951022003004+69717+029883FM-12+008899999V0209991C000019999999N0400001N9-01281+99999101031ADDAY121999GF106991031051012501041999MD1710011+9999MW1021
0063010890999991951022006004+69717+029883FM-12+008899999V0209991C000019999999N0400001N9-01221+99999101011ADDAY121999GF108991041051012501071999IA1319MD1710021+9999MW1021
0057010890999991951022009004+69717+029883FM-12+008899999V0209991C00001012301CN0400001N9-01001+99999101051ADDAY121999GF107991061051012501041999MD1210041+9999MW1021
0057010890999991951022012004+69717+029883FM-12+008899999V0209991C000019999999N0600001N9-01001+99999101021ADDAY111999GF106991031051012501041001MD1710031+9999MW1021
0057010890999991951022015004+69717+029883FM-12+008899999V0209991C00001220001CN0400001N9-01281+99999101041ADDAY101999GF103991031051012501001001MD1310021+9999MW1021
0063010890999991951022018004+69717+029883FM-12+008899999V0201801N001019999999N0400001N9-01221+99999101011ADDAY121999GF108991031051008001071999IA1319MD1810031+9999MW1021
0057010890999991951022100004+69717+029883FM-12+008899999V0209991C00001220001CN0700001N9-01611+99999101061ADDAY101999GF100991001001999999001001MD1310021+9999MW1001
0076010890999991951022103004+69717+029883FM-12+008899999V0202001N001019999999N0600001N9-01611+99999101061ADDAY121999GF107991041051008001071999MD1410001+9999MW1031EQDQ01+000032APCTEN
0098010890999991951022106004+69717+029883FM-12+008899999V0209991C000019999999N0400001N9-01391+99999101061ADDAY121999GF108991999001012501071999IA1009MD1410001+9999MW1031EQDQ01+000002SCOTLCQ02+000032APCTEN
0076010890999991951022109004+69717+029883FM-12+008899999V0202001N00261220001CN0400001N9-01221+99999101061ADDAY121999GF104991021051008001001021MD1410001+9999MW1011EQDQ01+000032APCTEN
0057010890999991951022112004+69717+029883FM-12+008899999V0202001N00101220001CN0600001N9-01281+99999101101ADDAY101999GF103991001001999999001021MD1310041+9999MW1021
0092010890999991951022115004+69717+029883FM-12+008899999V0209991C000019999999N0600001N9-01391+99999101061ADDAY111999GF105991011051012501071001MD1710041+9999MW1021EQDQ01+000022APCTENQ02+000002APC3  
0063010890999991951022118004+69717+029883FM-12+008899999V0202401N002619999999N0160001N9-01221+99999101091ADDAY181999GF108991041091008001021999IA1319MD1210021+9999MW1851
0057010890999991951022200004+69717+029883FM-12+008899999V0209991C000019999999N0700001N9-01111+99999101121ADDAY111999GF106991031081008001071001MD1310021+9999MW1021
0076010890999991951022203004+69717+029883FM-12+008899999V0209991C00001220001CN0700001N9-01281+99999101081ADDAY111999GF103991999001999999041001MD1810041+9999MW1021EQDQ01+000002SCOTLC
0063010890999991951022206004+69717+029883FM-12+008899999V0202401N00461004501CN0040001N9-01001+99999101271ADDAY181999GF108991051091004501021999IA1319MD1310191+9999MW1861
0076010890999991951022209004+69717+029883FM-12+008899999V0202401N00261004501CN0400001N9-00781+99999101271ADDAY121999GF108991051091004501021999MD1410001+9999MW1151EQDQ01+000022APCTEN
0057010890999991951022212004+69717+029883FM-12+008899999V0209991C000019999999N0400001N9-00611+99999101321ADDAY111999GF105991021091008001041021MD1210051+9999MW1151
0076010890999991951022215004+69717+029883FM-12+008899999V0209991C000019999999N0400001N9-00781+99999101321ADDAY121999GF106991031051012501041021MD1410001+9999MW1021EQDQ01+000032APCTEN
0063010890999991951022218004+69717+029883FM-12+008899999V0209991C000019999999N0400001N9-00721+99999101441ADDAY121999GF108991041051012501071999IA1319MD1310121+9999MW1021
0057010890999991951022300004+69717+029883FM-12+008899999V0202001N007219999999N0400001N9-00611+99999101551ADDAY121999GF108991031091004501021999MD1310101+9999MW1021
0057010890999991951022303004+69717+029883FM-12+008899999V0202001N007219999999N0400001N9-00721+99999101611ADDAY121999GF108991031091004501021999MD1310061+9999MW1021
0063010890999991951022306004+69717+029883FM-12+008899999V0202001N006219999999N0400001N9-00721+99999101671ADDAY121999GF108991031091004501021999IA1319MD1310061+9999MW1021
0057010890999991951022309004+69717+029883FM-12+008899999V0201801N002119999999N0400001N9-00611+99999101721ADDAY121999GF108991041051008001071999MD1310051+9999MW1021
0057010890999991951022312004+69717+029883FM-12+008899999V0201801N001519999999N0400001N9-00501+99999101631ADDAY111999GF108991031081004501071999MD1710091+9999MW1021
0076010890999991951022315004+69717+029883FM-12+008899999V0202001N004619999999N0400001N9-00611+99999101631ADDAY121999GF108991031051008001071999MD1410001+9999MW1021EQDQ01+000032APCTEN
0082010890999991951022318004+69717+029883FM-12+008899999V0202001N001019999999N0400001N9-00721+99999101631ADDAY121999GF108991021051008001071999IA1319MD1410001+9999MW1021EQDQ01+000032APCTEN
0057010890999991951022400004+69717+029883FM-12+008899999V0209991C000019999999N0400001N9-01221+99999101641ADDAY121999GF108991031051008001071999MD1310011+9999MW1021
0057010890999991951022403004+69717+029883FM-12+008899999V0209991C000019999999N0400001N9-01281+99999101611ADDAY121999GF108991021051008001071999MD1210031+9999MW1021
0063010890999991951022406004+69717+029883FM-12+008899999V0202001N002619999999N0400001N9-01111+99999101581ADDAY121999GF108991031051008001021999IA1319MD1810031+9999MW1021
0057010890999991951022409004+69717+029883FM-12+008899999V0202001N001019999999N0400001N9-01001+99999101531ADDAY121999GF108991041051008001021999MD1810051+9999MW1021
0057010890999991951022412004+69717+029883FM-12+008899999V0201801N002619999999N0400001N9-01001+99999101471ADDAY121999GF108991021091004501071999MD1810161+9999MW1021
0057010890999991951022415004+69717+029883FM-12+008899999V0209991C00001220001CN0400001N9-01281+99999101361ADDAY121999GF103991011051008001041001MD1810101+9999MW1021
0063010890999991951022418004+69717+029883FM-12+008899999V0209991C000019999999N0160001N9-01221+99999101321ADDAY171999GF108991031051008001021999IA1319MD1810041+9999MW1701
0057010890999991951022503004+69717+029883FM-12+008899999V0209991C000019999999N0160001N9-01001+99999101031ADDAY171999GF108991031051008001021999MD1810041+9999MW1701
0063010890999991951022506004+69717+029883FM-12+008899999V0209991C000019999999N0160001N9-01001+99999100981ADDAY171999GF108991031051008001021999IA1319MD1810051+9999MW1151
0076010890999991951022509004+69717+029883FM-12+008899999V0202001N001019999999N0700001N9-00891+99999100991ADDAY111999GF105991021081008001041021MD1210011+9999MW1021EQDQ01+000002APC3  
0092010890999991951022512004+69717+029883FM-12+008899999V0201801N001019999999N0700001N9-00891+99999100961ADDAY111999GF105991021091008001041021MD1710031+9999MW1151EQDQ01+000022APCTENQ02+000002APC3  
0076010890999991951022515004+69717+029883FM-12+008899999V0209991C000019999999N0160001N9-00891+99999100961ADDAY181999GF107991041091008001041999MD1410001+9999MW1851EQDQ01+000032APCTEN
0063010890999991951022518004+69717+029883FM-12+008899999V0202401N00671220001CN0700001N9-00891+99999101061ADDAY111999GF103991021091008001041001IA1319MD1310101+9999MW1021
0057010890999991951022600004+69717+029883FM-12+008899999V0202001N007219999999N0400001N9-01111+99999101141ADDAY121999GF105991031091004501999999MD1710081+9999MW1021
0057010890999991951022603004+69717+029883FM-12+008899999V0202401N007219999999N0400001N9-01221+99999101121ADDAY121999GF106991031091004501041999MD1710021+9999MW1021
0063010890999991951022606004+69717+029883FM-12+008899999V0202401N006719999999N0400001N9-01111+99999101081ADDAY121999GF108991021091004501021999IA1319MD1810031+9999MW1021
0057010890999991951022609004+69717+029883FM-12+008899999V0202001N006219999999N0400001N9-00501+99999101141ADDAY111999GF108991031051012501071999MD1210051+9999MW1021
0057010890999991951022612004+69717+029883FM-12+008899999V0202501N007219999999N0400001N9-00391+99999101151ADDAY111999GF108991031051012501071999MD1210011+9999MW1021
0057010890999991951022615004+69717+029883FM-12+008899999V0202401N004619999999N0400001N9-00391+99999101221ADDAY121999GF108991031051008001071999MD1310071+9999MW1021
0063010890999991951022618004+69717+029883FM-12+008899999V0202401N006719999999N0400001N9-00501+99999101261ADDAY121999GF108991031051008001071999IA1319MD1310041+9999MW1021
0057010890999991951022700004+69717+029883FM-12+008899999V0202401N012319999999N0400001N9-00501+99999101271ADDAY121999GF105991031091004501021999MD1310021+9999MW1011
0057010890999991951022703004+69717+029883FM-12+008899999V0202401N001519999999N0400001N9-00501+99999101501ADDAY121999GF106991021091008001071999MD1310231+9999MW1021
0063010890999991951022706004+69717+029883FM-12+008899999V0202401N009319999999N0400001N9-00501+99999101511ADDAY121999GF107991031091008001071999IA1319MD1310011+9999MW1021
0057010890999991951022709004+69717+029883FM-12+008899999V0202401N006719999999N0400001N9-00391+99999101741ADDAY121999GF108991021091008001071999MD1310231+9999MW1021
0057010890999991951022712004+69717+029883FM-12+008899999V0202201N004619999999N0600001N9-00281+99999101821ADDAY121999GF107991041091008001071999MD1310081+9999MW1021
0057010890999991951022715004+69717+029883FM-12+008899999V0201801N000519999999N0700001N9-00501+99999101841ADDAY111999GF106991041081008001041001MD1310021+9999MW1021
0082010890999991951022718004+69717+029883FM-12+008899999V0202201N00461007801CN0700001N9-00501+99999101841ADDAY121999GF108991081081008001999999IA1319MD1410001+9999MW1021EQDQ01+000022APCTEN
0078010890999991951022800004+69717+029883FM-12+008899999V0202401N00461007801CN0700001N9-00501+99999101811ADDAY121999GF108991081081008001999999MW1021EQDQ01+000032APCTENQ02+000002APC3  
0057010890999991951022803004+69717+029883FM-12+008899999V0202401N00671007801CN0700001N9-00501+99999101721ADDAY121999GF107991071081008001999999MD1810091+9999MW1021
0063010890999991951022806004+69717+029883FM-12+008899999V0202401N00461012301CN0700001N9-00501+99999101491ADDAY121999GF108991051051012501021999IA1319MD1810201+9999MW1021
0057010890999991951022809004+69717+029883FM-12+008899999V0202401N00461012301CN0700001N9-00281+99999101321ADDAY121999GF108991051051012501021999MD1810171+9999MW1021
0057010890999991951022812004+69717+029883FM-12+008899999V0202401N00931007801CN0700001N9-00281+99999101101ADDAY111999GF106991061081008001001001MD1810241+9999MW1021
0057010890999991951022815004+69717+029883FM-12+008899999V0202301N00621220001CN0600001N9-00501+99999100841ADDAY121999GF104991021081012501041001MD1810261+9999MW1021
0063010890999991951022818004+69717+029883FM-12+008899999V0202301N00621220001CN0400001N9-00501+99999100701ADDAY121999GF104991021081012501041001IA1209MD1810141+9999MW1021
0057010890999991951030100004+69717+029883FM-12+008899999V0201901N009319999999N0400001N9-00611+99999100691ADDAY121999GF108991041081008001021999MD1210021+9999MW1021
0057010890999991951030103004+69717+029883FM-12+008899999V0202001N006219999999N0400001N9-00611+99999100891ADDAY121999GF108991041081008001021999MD1310101+9999MW1021
0063010890999991951030106004+69717+029883FM-12+008899999V0202401N009319999999N0400001N9-00501+99999100961ADDAY121999GF106991031081008001071001IA1209MD1310071+9999MW1021
0092010890999991951030109004+69717+029883FM-12+008899999V0202401N010319999999N0400001N9-00391+99999101411ADDAY111999GF108991041091004501071999MD1210451+9999MW1021EQDQ01+000042APCTENQ02+000452APC3  
0057010890999991951030112004+69717+029883FM-12+008899999V0202401N011319999999N0600001N9-00111+99999101721ADDAY111999GF107991031051012501071999MD1310311+9999MW1021
0057010890999991951030115004+69717+029883FM-12+008899999V0202401N009319999999N0700001N9-00111+99999101761ADDAY121999GF107991021051012501021999MD1310041+9999MW1021
0063010890999991951030118004+69717+029883FM-12+008899999V0202401N00101220001CN0600001N9-00281+99999101751ADDAY121999GF103991031051012501001001IA1319MD1710011+9999MW1011
0057010890999991951030200004+69717+029883FM-12+008899999V0202401N002619999999N0400001N9-00281+99999101321ADDAY121999GF108991031051012501041999MD1810231+9999MW1021
0057010890999991951030203004+69717+029883FM-12+008899999V0202401N00671220001CN0600001N9-00281+99999101151ADDAY111999GF104991021051012501041001MD1810171+9999MW1011
0082010890999991951030206004+69717+029883FM-12+008899999V0202201N012319999999N0400001N9-00221+99999101151ADDAY121999GF108991021051008001021999IA1319MD1410001+9999MW1031EQDQ01+000072APCTEN
0057010890999991951030209004+69717+029883FM-12+008899999V0202201N009319999999N0700001N9-00221+99999101181ADDAY121999GF108991031051008001021999MD1210031+9999MW1021
0092010890999991951030212004+69717+029883FM-12+008899999V0202201N012319999999N0700001N9-00111+99999101141ADDAY121999GF108991031051008001021999MD1710041+9999MW1021EQDQ01+000022APCTENQ02+000002APC3  
0057010890999991951030215004+69717+029883FM-12+008899999V0202201N012319999999N0600001N9+00001+99999101051ADDAY121999GF108991031081012501021999MD1710091+9999MW1021
0082010890999991951030218004+69717+029883FM-12+008899999V0202401N009319999999N0600001N9+00001+99999101051ADDAY121999GF108991031081008001021999IA1209MD1410001+9999MW1021EQDQ01+000022APCTEN
0057010890999991951030300004+69717+029883FM-12+008899999V0202401N006719999999N0400001N9+00001+99999100831ADDAY121999GF108991031091008001021999MD1710101+9999MW1021
0057010890999991951030303004+69717+029883FM-12+008899999V0202401N006719999999N0400001N9+00001+99999100351ADDAY121999GF108991031091008001021999MD1710481+9999MW1021
0063010890999991951030306004+69717+029883FM-12+008899999V0202401N012319999999N0400001N9+00001+99999099991ADDAY121999GF108991031081008001021999IA1209MD1710361+9999MW1021
0057010890999991951030309004+69717+029883FM-12+008899999V0202401N015419999999N0400001N9+00001+99999099731ADDAY121999GF108991031091008001021999MD1710261+9999MW1021
0057010890999991951030312004+69717+029883FM-12+008899999V0202401N012319999999N0400001N9+00111+99999099661ADDAY111999GF105991031081008001041021MD1710071+9999MW1011
0057010890999991951030315004+69717+029883FM-12+008899999V0202001N01651004501CN0400001N9+00111+99999099741ADDAY121999GF107991051091004501041001MD1210081+9999MW1151
0063010890999991951030318004+69717+029883FM-12+008899999V0202001N009319999999N0400001N9+00111+99999099831ADDAY121999GF108991041091004501021999IA1209MD1210091+9999MW1021
0057010890999991951030403004+69717+029883FM-12+008899999V0202001N01031004501CN0400001N9+00111+99999099171ADDAY121999GF108991051091004501021999MD1810301+9999MW1021
0063010890999991951030406004+69717+029883FM-12+008899999V0202401N01341007801CN0400001N9+00111+99999098871ADDAY121999GF107991051081008001041999IA1209MD1810301+9999MW1021
0092010890999991951030409004+69717+029883FM-12+008899999V0202401N00931007801CN0200001N9+00501+99999099151ADDAY181999GF106991051091008001041001MD1210281+9999MW1801EQDQ01+000042APCTENQ02+000282APC3  
0057010890999991951030412004+69717+029883FM-12+008899999V0202601N00511220001CN0700001N9+00281+99999099671ADDAY101999GF103991011081008001041001MD1310521+9999MW1021
0057010890999991951030415004+69717+029883FM-12+008899999V0202001N002119999999N0700001N9+00111+99999099871ADDAY111999GF106991041051012501041001MD1310201+9999MW1021
0063010890999991951030418004+69717+029883FM-12+008899999V0202301N005119999999N0700001N9+00001+99999100111ADDAY111999GF105991031051012501041001IA1209MD1310241+9999MW1021
0057010890999991951030500004+69717+029883FM-12+008899999V0202401N00261220001CN0600001N9-00391+99999100591ADDAY101999GF100991001001999999001001MD1310281+9999MW1011
0057010890999991951030503004+69717+029883FM-12+008899999V0202001N00101220001CN0700001N9-00611+99999100741ADDAY101999GF100991001001999999001001MD1310151+9999MW1021
0063010890999991951030506004+69717+029883FM-12+008899999V0202701N00261220001CN0700001N9-00611+99999100931ADDAY101999GF100991001001999999001001IA1209MD1310191+9999MW1021
0057010890999991951030509004+69717+029883FM-12+008899999V0202401N00261220001CN0700001N9-00501+99999101111ADDAY101999GF101991001001999999001021MD1310181+9999MW1021
0057010890999991951030512004+69717+029883FM-12+008899999V0202701N00261220001CN0700001N9-00221+99999101241ADDAY101999GF102991001001999999001021MD1310131+9999MW1021
0057010890999991951030515004+69717+029883FM-12+008899999V0202401N00261220001CN0700001N9-00391+99999101341ADDAY101999GF102991001001999999041021MD1310101+9999MW1021
0063010890999991951030518004+69717+029883FM-12+008899999V0202401N00461220001CN0700001N9-00501+99999101451ADDAY101999GF100991001001999999001001IA1209MD1310101+9999MW1021
0057010890999991951030600004+69717+029883FM-12+008899999V0209991C00001220001CN0700001N9-01001+99999101721ADDAY101999GF100991001001999999001001MD1310101+9999MW1001
0057010890999991951030603004+69717+029883FM-12+008899999V0209991C00001220001CN0700001N9-01221+99999101831ADDAY101999GF100991001001999999001001MD1310101+9999MW1001
0063010890999991951030606004+69717+029883FM-12+008899999V0201801N00051220001CN0700001N9-01221+99999101921ADDAY101999GF101991001001999999001021IA1209MD1310101+9999MW1021
0057010890999991951030609004+69717+029883FM-12+008899999V0209991C00001220001CN0700001N9-01001+99999102081ADDAY101999GF101991001001999999001021MD1310151+9999MW1021
0057010890999991951030612004+69717+029883FM-12+008899999V0209991C00001220001CN0700001N9-00611+99999102131ADDAY101999GF101991001001999999001021MD1310051+9999MW1021
0057010890999991951030615004+69717+029883FM-12+008899999V0209991C00001220001CN0700001N9-00781+99999102121ADDAY101999GF102991021001022501051001MD1710011+9999MW1021
0063010890999991951030618004+69717+029883FM-12+008899999V0209991C00001220001CN0600001N9-01111+99999102111ADDAY101999GF102991021001022501051999IA1209MD1710011+9999MW1021
0057010890999991951030700004+69717+029883FM-12+008899999V0209991C00001007801CN0200001N9-01001+99999101971ADDAY121999GF107991051051008001071999MD1810151+9999MW1711
0057010890999991951030703004+69717+029883FM-12+008899999V0209991C00001007801CN0020001N9-00891+99999101781ADDAY171999GF108991081001008001021999MD1810191+9999MW1731
0063010890999991951030706004+69717+029883FM-12+008899999V0209991C00001007801CN0020001N9-00781+99999101661ADDAY171999GF108991081001008001021999IA1319MD1810121+9999MW1731
0057010890999991951030709004+69717+029883FM-12+008899999V0209991C00001007801CN0100001N9-00281+99999101571ADDAY171999GF108991081001008001021999MD1810091+9999MW1731
0057010890999991951030712004+69717+029883FM-12+008899999V0209991C00001007801CN0090001N9-00221+99999101501ADDAY171999GF108991081001008001021999MD1810071+9999MW1711
0057010890999991951030715004+69717+029883FM-12+008899999V0202001N002619999999N0160001N9-00281+99999101481ADDAY181999GF108991041091004501021999MD1810021+9999MW1851
0063010890999991951030718004+69717+029883FM-12+008899999V0202001N002619999999N0400001N9-00391+99999101531ADDAY121999GF108991031091004501021999IA1319MD1210051+9999MW1021
0057010890999991951030800004+69717+029883FM-12+008899999V0202001N002619999999N0400001N9-00391+99999101681ADDAY121999GF108991031091008001021999MD1310021+9999MW1021
0057010890999991951030803004+69717+029883FM-12+008899999V0209991C000019999999N0400001N9-00501+99999101711ADDAY121999GF108991031091008001021999MD1310031+9999MW1021
0063010890999991951030806004+69717+029883FM-12+008899999V0209991C00001004501CN0160001N9-00501+99999101761ADDAY181999GF108991051091004501021999IA1319MD1310051+9999MW1851
0057010890999991951030809004+69717+029883FM-12+008899999V0209991C00001004501CN0200001N9-00501+99999101861ADDAY181999GF108991051091004501021999MD1310101+9999MW1851
0057010890999991951030812004+69717+029883FM-12+008899999V0209991C00001004501CN0400001N9-00281+99999102021ADDAY181999GF106991061091004501999999MD1310161+9999MW1151
0057010890999991951030815004+69717+029883FM-12+008899999V0200901N00671004501CN0400001N9-00111+99999102121ADDAY181999GF106991061091004501001001MD1310101+9999MW1151
0063010890999991951030818004+69717+029883FM-12+008899999V0200801N00931004501CN0600001N9-00111+99999102281ADDAY181999GF105991051031004501001001IA1319MD1310151+9999MW1021
0057010890999991951030900004+69717+029883FM-12+008899999V0200301N00931004501CN0600001N9-00281+99999102371ADDAY181999GF106991061031004501001001MD1810031+9999MW1021
0076010890999991951030903004+69717+029883FM-12+008899999V0200301N00931004501CN0600001N9-00281+99999102341ADDAY111999GF105991051031004501001001MD1810031+9999MW1021EQDQ01+000002APC3  
0063010890999991951030906004+69717+029883FM-12+008899999V0200301N00461004501CN0400001N9-00391+99999102221ADDAY111999GF106991051091004501041001IA1319MD1810101+9999MW1021
0057010890999991951030909004+69717+029883FM-12+008899999V0203001N002619999999N0400001N9-00391+99999102211ADDAY121999GF107991041091004501041999MD1810011+9999MW1021
0057010890999991951030912004+69717+029883FM-12+008899999V0202401N002619999999N0600001N9-00501+99999102091ADDAY121999GF107991021021008001001021MD1810121+9999MW1021
0057010890999991951030915004+69717+029883FM-12+008899999V0202401N002619999999N0600001N9-00611+99999101831ADDAY121999GF107991041081008001041001MD1810261+9999MW1021
0063010890999991951030918004+69717+029883FM-12+008899999V0202601N002619999999N0400001N9-00721+99999101571ADDAY121999GF108991031081008001021999IA1209MD1810261+9999MW1021
0057010890999991951031000004+69717+029883FM-12+008899999V0202401N00671004501CN0160001N9-00721+99999101161ADDAY181999GF107991071091004501999999MD1810251+9999MW1851
0057010890999991951031003004+69717+029883FM-12+008899999V0202601N00721004501CN0400001N9-00611+99999101101ADDAY181999GF106991061091004501999999MD1810061+9999MW1021
0063010890999991951031006004+69717+029883FM-12+008899999V0203401N008219999999N0700001N9-00501+99999101061ADDAY121999GF106991041091004501041021IA1319MD1810041+9999MW1021
0057010890999991951031009004+69717+029883FM-12+008899999V0203201N004619999999N0700001N9-00501+99999101051ADDAY121999GF107991031091008001041021MD1810011+9999MW1021
0057010890999991951031012004+69717+029883FM-12+008899999V0202801N005119999999N0700001N9-00501+99999101021ADDAY121999GF107991031091004501041021MD1810031+9999MW1021
0057010890999991951031015004+69717+029883FM-12+008899999V0202701N004619999999N0600001N9-00501+99999100931ADDAY121999GF107991041091004501041021MD1810111+9999MW1021
0063010890999991951031018004+69717+029883FM-12+008899999V0202701N004619999999N0600001N9-00781+99999100781ADDAY111999GF105991021091004501041999IA1319MD1810151+9999MW1011
0057010890999991951031103004+69717+029883FM-12+008899999V0209991C000019999999N0400001N9-01001+99999100421ADDAY121999GF106991021091008001041999MD1810151+9999MW1021
0063010890999991951031106004+69717+029883FM-12+008899999V0202001N001019999999N0400001N9-00781+99999100311ADDAY121999GF107991021051008001021999IA1319MD1810111+9999MW1021
0057010890999991951031109004+69717+029883FM-12+008899999V0202001N002619999999N0160001N9-00781+99999100171ADDAY181999GF108991041091004501021999MD1810141+9999MW1851
0057010890999991951031112004+69717+029883FM-12+008899999V0202001N00101004501CN0140001N9-00781+99999099991ADDAY181999GF108991051091004501021999MD1810181+9999MW1851
0057010890999991951031115004+69717+029883FM-12+008899999V0209991C000019999999N0080001N9-00781+99999099841ADDAY181999GF108991021091004501021999MD1810151+9999MW1851
0063010890999991951031118004+69717+029883FM-12+008899999V0209991C00001007801CN0060001N9-00781+99999099731ADDAY171999GF108991081001008001021999IA1319MD1810111+9999MW1721
0057010890999991951031200004+69717+029883FM-12+008899999V0202401N002619999999N0400001N9-00781+99999099621ADDAY181999GF105991031091008001041001MD1310021+9999MW1021
0057010890999991951031203004+69717+029883FM-12+008899999V0202401N002619999999N0600001N9-00781+99999099751ADDAY121999GF108991031051008001021999MD1310121+9999MW1021
0063010890999991951031206004+69717+029883FM-12+008899999V0202401N002619999999N0600001N9-01111+99999099841ADDAY111999GF105991031081004501041021IA1319MD1310101+9999MW1021
0057010890999991951031209004+69717+029883FM-12+008899999V0209991C00001220001CN0700001N9-00781+99999099991ADDAY101999GF104991011081004501001021MD1310151+9999MW1021
0057010890999991951031212004+69717+029883FM-12+008899999V0202201N00261220001CN0700001N9-00501+99999100141ADDAY101999GF104991011081008001001021MD1310151+9999MW1021
0057010890999991951031215004+69717+029883FM-12+008899999V0202601N003119999999N0700001N9-00721+99999100221ADDAY121999GF105991021081008001041021MD1310081+9999MW1021
0063010890999991951031218004+69717+029883FM-12+008899999V0202401N00151220001CN0700001N9-01001+99999100321ADDAY101999GF103991031061008001001001IA1209MD1310101+9999MW1021
0057010890999991951031300004+69717+029883FM-12+008899999V0202301N00211220001CN0700001N9-01281+99999100501ADDAY101999GF103991031061008001999999MD1310061+9999MW1021
0057010890999991951031303004+69717+029883FM-12+008899999V0209991C00001220001CN0700001N9-01391+99999100541ADDAY101999GF102991001001999999001021MD1310041+9999MW1021
0082010890999991951031306004+69717+029883FM-12+008899999V0209991C000019999999N0150001N9-01501+99999100651ADDAY171999GF108991999001012501021999IA1209MD1310111+9999MW1711EQDQ01+000002SCOTLC
0076010890999991951031309004+69717+029883FM-12+008899999V0209991C000019999999N0080001N9-01001+99999100671ADDAY171999GF108991999001012501021999MD1210021+9999MW1731EQDQ01+000002SCOTLC
0057010890999991951031312004+69717+029883FM-12+008899999V0209991C000019999999N0150001N9-00721+99999100701ADDAY171999GF108991031091004501021999MD1310031+9999MW1021
0057010890999991951031315004+69717+029883FM-12+008899999V0209991C00001004501CN0400001N9-00721+99999100731ADDAY121999GF108991051091004501021999MD1310031+9999MW1151
0082010890999991951031318004+69717+029883FM-12+008899999V0209991C000019999999N0400001N9-01221+99999100731ADDAY121999GF106991021091008001021021IA1319MD1410001+9999MW1011EQDQ01+000032APCTEN
0057010890999991951031400004+69717+029883FM-12+008899999V0209991C00001220001CN0400001N9-01111+99999100731ADDAY101999GF102991021051008001001001MD1310021+9999MW1011
0057010890999991951031403004+69717+029883FM-12+008899999V0209991C00001220001CN0400001N9-01111+99999100731ADDAY101999GF103991031051008001001001MD1310021+9999MW1021
0082010890999991951031406004+69717+029883FM-12+008899999V0209991C000019999999N0160001N9-00891+99999100731ADDAY181999GF108991041091004501021999IA1319MD1410001+9999MW1851EQDQ01+000032APCTEN
0057010890999991951031409004+69717+029883FM-12+008899999V0209991C000019999999N0400001N9-00501+99999100761ADDAY121999GF108991041091004501021999MD1310031+9999MW1151
0057010890999991951031412004+69717+029883FM-12+008899999V0200801N00981004501CN0200001N9-00391+99999100851ADDAY181999GF108991051091004501021999MD1310091+9999MW1151
0057010890999991951031415004+69717+029883FM-12+008899999V0200601N00671004501CN0020001N9-00611+99999101101ADDAY181999GF108991081091004501999999MD1310101+9999MW1861
0063010890999991951031418004+69717+029883FM-12+008899999V0200801N00461220001CN0400001N9-00781+99999101271ADDAY181999GF104991041091004501001001IA1319MD1310151+9999MW1151
0078010890999991951031500004+69717+029883FM-12+008899999V0202701N00461220001CN0400001N9-01111+99999101401ADDAY111999GF102991021051008001041001MW1021EQDQ01+000032APCTENQ02+000002APC3  
0076010890999991951031503004+69717+029883FM-12+008899999V0209991C00001220001CN0400001N9-01281+99999101351ADDAY101999GF102991021051008001001001MD1710051+9999MW1021EQDQ01+000002APC3  
0063010890999991951031506004+69717+029883FM-12+008899999V0202001N00261220001CN0600001N9-01501+99999101241ADDAY101999GF104991021051008001041001IA1319MD1810101+9999MW1021
0057010890999991951031509004+69717+029883FM-12+008899999V0201801N00101220001CN0700001N9-01281+99999101181ADDAY101999GF103991031031008001001001MD1810051+9999MW1151
0057010890999991951031512004+69717+029883FM-12+008899999V0201801N00051220001CN0700001N9-00781+99999101081ADDAY101999GF102991021031008001001001MD1810101+9999MW1021
0057010890999991951031515004+69717+029883FM-12+008899999V0209991C00001220001CN0700001N9-01001+99999100921ADDAY121999GF104991021091008001001021MD1810161+9999MW1021
0063010890999991951031518004+69717+029883FM-12+008899999V0202301N00461220001CN0600001N9-01111+99999100761ADDAY111999GF104991021091008001041999IA1209MD1810161+9999MW1021
0057010890999991951031600004+69717+029883FM-12+008899999V0202601N00671220001CN0600001N9-01111+99999100661ADDAY121999GF104991021091008001041999MD1810121+9999MW1021
0057010890999991951031603004+69717+029883FM-12+008899999V0202601N00311220001CN0700001N9-01001+99999100611ADDAY121999GF104991021091008001041999MD1810061+9999MW1021
0063010890999991951031606004+69717+029883FM-12+008899999V0209991C00001220001CN0700001N9-01721+99999100631ADDAY101999GF104991031091008001001021IA1209MD1210021+9999MW1401
0057010890999991951031609004+69717+029883FM-12+008899999V0209991C00001220001CN0700001N9-01111+99999100661ADDAY101999GF102991021081008001001001MD1210031+9999MW1021
0076010890999991951031612004+69717+029883FM-12+008899999V0202301N00261220001CN0700001N9-00611+99999100661ADDAY121999GF104991021021008001001021MD1410001+9999MW1021EQDQ01+000032APCTEN
0057010890999991951031615004+69717+029883FM-12+008899999V0203001N00461220001CN0700001N9-00721+99999100671ADDAY121999GF104991021091004501001021MD1310011+9999MW1021
0063010890999991951031618004+69717+029883FM-12+008899999V0202701N00671004501CN0400001N9-00611+99999100681ADDAY121999GF107991071091004501999999IA1319MD1310011+9999MW1151
0057010890999991951031700004+69717+029883FM-12+008899999V0201801N00101220001CN0600001N9-01001+99999100811ADDAY121999GF104991021091008001001021MD1310071+9999MW1021
0057010890999991951031703004+69717+029883FM-12+008899999V0209991C00001220001CN0600001N9-01501+99999100861ADDAY121999GF104991021091008001001021MD1310051+9999MW1021
0082010890999991951031706004+69717+029883FM-12+008899999V0209991C000019999999N0600001N9-01611+99999100861ADDAY121999GF105991011091008001041021IA1319MD1410001+9999MW1021EQDQ01+000032APCTEN
0057010890999991951031709004+69717+029883FM-12+008899999V0209991C00001220001CN0700001N9-01281+99999100821ADDAY121999GF104991021051008001001021MD1710041+9999MW1021
0076010890999991951031712004+69717+029883FM-12+008899999V0209991C000019999999N0700001N9-00611+99999100821ADDAY121999GF106991011021008001001071MD1410001+9999MW1031EQDQ01+000032APCTEN
0076010890999991951031715004+69717+029883FM-12+008899999V0209991C00001220001CN0700001N9-00891+99999100781ADDAY101999GF104991001001999999041021MD1810041+9999MW1021EQDQ01+000002APC3  
0063010890999991951031718004+69717+029883FM-12+008899999V0201801N000519999999N0700001N9-01111+99999100711ADDAY111999GF106991011051008001051021IA1209MD1810071+9999MW1031
0057010890999991951031803004+69717+029883FM-12+008899999V0209991C00001220001CN0400001N9-01501+99999100611ADDAY111999GF104991011051012501041021MD1810051+9999MW1021
0082010890999991951031806004+69717+029883FM-12+008899999V0201801N00261220001CN0700001N9-01501+99999100611ADDAY121999GF104991011051012501041021IA1209MD1410001+9999MW1021EQDQ01+000032APCTEN
0057010890999991951031809004+69717+029883FM-12+008899999V0201801N00261220001CN0700001N9-00891+99999100571ADDAY121999GF104991001001999999041021MD1710031+9999MW1021
0057010890999991951031812004+69717+029883FM-12+008899999V0202201N00261220001CN0700001N9-00611+99999100531ADDAY121999GF107991001001999999001071MD1810051+9999MW1021
0057010890999991951031815004+69717+029883FM-12+008899999V0202401N00261220001CN0700001N9-00611+99999100491ADDAY121999GF105991001001999999041021MD1810051+9999MW1021
0063010890999991951031818004+69717+029883FM-12+008899999V0202001N00101220001CN0400001N9-01001+99999100481ADDAY121999GF106991001001999999041021IA1209MD1810011+9999MW1021
0078010890999991951031900004+69717+029883FM-12+008899999V0202101N002619999999N0600001N9-01281+99999100481ADDAY121999GF106991031061008001041999MW1021EQDQ01+000032APCTENQ02+000002APC3  
0057010890999991951031903004+69717+029883FM-12+008899999V0202301N00211220001CN0700001N9-01221+99999100461ADDAY121999GF104991021021008001041001MD1710021+9999MW1021
0063010890999991951031906004+69717+029883FM-12+008899999V0202401N00211220001CN0700001N9-01221+99999100451ADDAY121999GF104991021021008001041001IA1209MD1710011+9999MW1021
0057010890999991951031909004+69717+029883FM-12+008899999V0201801N00461220001CN0700001N9-01001+99999100401ADDAY101999GF103991021051012501041001MD1710051+9999MW1021
0057010890999991951031912004+69717+029883FM-12+008899999V0201801N00511220001CN0700001N9-00611+99999100431ADDAY101999GF103991021051012501041001MD1210021+9999MW1021
0057010890999991951031915004+69717+029883FM-12+008899999V0201801N00261220001CN0700001N9-00721+99999100441ADDAY101999GF103991021051012501041001MD1310011+9999MW1021
0063010890999991951031918004+69717+029883FM-12+008899999V0201801N00101220001CN0700001N9-00891+99999100591ADDAY101999GF103991011051012501041001IA1319MD1310151+9999MW1021
0057010890999991951032000004+69717+029883FM-12+008899999V0201801N00101220001CN0700001N9-01001+99999100991ADDAY101999GF103991021001017501041021MD1310151+9999MW1021
0076010890999991951032003004+69717+029883FM-12+008899999V0202401N00261220001CN0700001N9-01391+99999101161ADDAY101999GF102991999001999999041001MD1310171+9999MW1021EQDQ01+000002SCOTLC
0063010890999991951032006004+69717+029883FM-12+008899999V0201601N00261220001CN0700001N9-01501+99999101371ADDAY101999GF102991001001999999001021IA1319MD1310211+9999MW1021
0057010890999991951032009004+69717+029883FM-12+008899999V0209991C00001220001CN0700001N9-00781+99999101511ADDAY101999GF100991001001999999001001MD1310141+9999MW1021
0057010890999991951032012004+69717+029883FM-12+008899999V0209991C00001220001CN0700001N9-00611+99999101601ADDAY101999GF100991001001999999001001MD1310091+9999MW1021
0057010890999991951032015004+69717+029883FM-12+008899999V0209991C00001220001CN0700001N9-00721+99999101711ADDAY101999GF100991001001999999001001MD1310101+9999MW1021
0098010890999991951032018004+69717+029883FM-12+008899999V0209991C00001220001CN0160001N9-01391+99999101701ADDAY101999GF100991001001999999001001IA1209MD1710011+9999MW1101EQDQ01+000032APCTENQ02+000002APC3  
0057010890999991951032100004+69717+029883FM-12+008899999V0209991C00001220001CN0400001N9-01721+99999101781ADDAY101999GF100991001001999999001001MD1310021+9999MW1101
0092010890999991951032103004+69717+029883FM-12+008899999V0209991C00001220001CN0200001N9-01891+99999101771ADDAY101999GF103991031051012501001001MD1710011+9999MW1101EQDQ01+000032APCTENQ02+000002APC3  
0063010890999991951032106004+69717+029883FM-12+008899999V0209991C00001220001CN0400001N9-02001+99999101801ADDAY101999GF103991031081008001001001IA1209MD1310031+9999MW1401
0057010890999991951032109004+69717+029883FM-12+008899999V0209991C00001220001CN0700001N9-01281+99999101881ADDAY101999GF102991011081008001001021MD1310081+9999MW1021
0057010890999991951032112004+69717+029883FM-12+008899999V0209991C00001220001CN0700001N9-01001+99999101921ADDAY111999GF107991001001999999041071MD1310051+9999MW1031
0057010890999991951032115004+69717+029883FM-12+008899999V0209991C000019999999N0600001N9-01001+99999101951ADDAY121999GF107991021001022501041071MD1310031+9999MW1021
0063010890999991951032118004+69717+029883FM-12+008899999V0209991C000019999999N0400001N9-01281+99999101931ADDAY121999GF105991011001022501041051IA1209MD1710021+9999MW1021
0057010890999991951032203004+69717+029883FM-12+008899999V0209991C00001220001CN0600001N9-01391+99999101711ADDAY101999GF102991001001999999001021MD1810071+9999MW1021
0063010890999991951032206004+69717+029883FM-12+008899999V0209991C00001021001CN0400001N9-01281+99999101501ADDAY121999GF108991081001022501021999IA1319MD1810191+9999MW1031
0057010890999991951032209004+69717+029883FM-12+008899999V0200801N00261007801CN0160001N9-00501+99999101231ADDAY171999GF108991081001008001021999MD1810271+9999MW1711
0057010890999991951032212004+69717+029883FM-12+008899999V0200401N00261004501CN0020001N9-00501+99999100761ADDAY171999GF108991081001004501021999MD1810471+9999MW1731
0076010890999991951032215004+69717+029883FM-12+008899999V0200801N00671004501CN0020001N9-00501+99999100261ADDAY171999GF108991999061004501021999MD1810501+9999MW1731EQDQ01+000082SCOTLC
0063010890999991951032218004+69717+029883FM-12+008899999V0201201N002619999999N0200001N9-00721+99999100041ADDAY181999GF108991041091004501021999IA1319MD1810221+9999MW1151
0057010890999991951032303004+69717+029883FM-12+008899999V0202001N006719999999N0400001N9-00611+99999099391ADDAY121999GF106991041091004501021999MD1810071+9999MW1021
0063010890999991951032306004+69717+029883FM-12+008899999V0201801N00461220001CN0400001N9-01001+99999099361ADDAY121999GF104991021091008001041021IA1319MD1810031+9999MW1011
0057010890999991951032309004+69717+029883FM-12+008899999V0201601N006719999999N0700001N9-01001+99999099341ADDAY111999GF105991031081008001041021MD1710021+9999MW1021
0057010890999991951032312004+69717+029883FM-12+008899999V0201401N006719999999N0700001N9-00891+99999099271ADDAY121999GF105991031081008001001021MD1810071+9999MW1021
0057010890999991951032315004+69717+029883FM-12+008899999V0201201N00261220001CN0700001N9-01001+99999099161ADDAY121999GF103991001001999999041021MD1810101+9999MW1021
0063010890999991951032318004+69717+029883FM-12+008899999V0201601N00461220001CN0700001N9-00891+99999099071ADDAY111999GF106991001001999999071021IA1319MD1810101+9999MW1031
0078010890999991951032400004+69717+029883FM-12+008899999V0201801N00461007801CN0400001N9-00721+99999099051ADDAY121999GF107991071081008001999999MW1021EQDQ01+000032APCTENQ02+000002APC3  
0092010890999991951032403004+69717+029883FM-12+008899999V0209991C00001220001CN0400001N9-01001+99999099071ADDAY111999GF101991999001999999041001MD1310021+9999MW1011EQDQ01+000002SCOTLCQ02+000002APC3  
0098010890999991951032406004+69717+029883FM-12+008899999V0209991C000019999999N0400001N9-00891+99999099051ADDAY111999GF106991021001008001041021IA1319MD1710021+9999MW1021EQDQ01+000022APCTENQ02+000002APC3  
0073010890999991951032409004+69717+029883FM-12+008899999V0200301N00261220001CN0700001N9-00501+99999098841ADDAY171999GA1011+002409079GF108991021081008001071999MD1990201+9999MW1221
0057010890999991951032412004+69717+029883FM-12+008899999V0200901N00461015001CN0700001N9-00281+99999098601ADDAY121999GF108991081001017501021999MD1710251+9999MW1151
0057010890999991951032415004+69717+029883FM-12+008899999V0200901N00671012301CN0020001N9-00281+99999098481ADDAY171999GF108991081001012501021999MD1810221+9999MW1731
0063010890999991951032418004+69717+029883FM-12+008899999V0201001N00621007801CN0070001N9-00611+99999098471ADDAY171999GF108991081001008001021999IA1319MD1710011+9999MW1731
0057010890999991951032503004+69717+029883FM-12+008899999V0201001N00211012301CN0160001N9-00781+99999098441ADDAY171999GF108991081001012501021999MD1710011+9999MW1711
0063010890999991951032506004+69717+029883FM-12+008899999V0209991C00001012301CN0150001N9-00781+99999098461ADDAY171999GF108991081001012501021999IA1319MD1210021+9999MW1711
0057010890999991951032509004+69717+029883FM-12+008899999V0209991C00001220001CN0400001N9-00391+99999098661ADDAY121999GF104991011021008001001021MD1310201+9999MW1021
0057010890999991951032512004+69717+029883FM-12+008899999V0202001N003119999999N0400001N9-00611+99999098891ADDAY111999GF106991041091004501001021MD1310231+9999MW1151
0057010890999991951032515004+69717+029883FM-12+008899999V0202001N002619999999N0600001N9-00721+99999099061ADDAY111999GF105991011021008001041021MD1310171+9999MW1021
0063010890999991951032518004+69717+029883FM-12+008899999V0209991C000019999999N0400001N9-01001+99999099221ADDAY111999GF105991011091008001041021IA1319MD1310161+9999MW1021
0057010890999991951032603004+69717+029883FM-12+008899999V0202701N00461004501CN0200001N9-00391+99999099941ADDAY121999GF108991051091004501021999MD1310231+9999MW1151
0063010890999991951032606004+69717+029883FM-12+008899999V0202701N006719999999N0400001N9-00391+99999100301ADDAY121999GF108991021091008001041021IA1319MD1310361+9999MW1021
0057010890999991951032609004+69717+029883FM-12+008899999V0201201N00261220001CN0600001N9-00281+99999100651ADDAY101999GF100991001001999999001001MD1310351+9999MW1021
0057010890999991951032612004+69717+029883FM-12+008899999V0202501N00461220001CN0600001N9+00001+99999100801ADDAY101999GF100991001001999999001001MD1310151+9999MW1021
0057010890999991951032615004+69717+029883FM-12+008899999V0209991C00001220001CN0700001N9-00111+99999100841ADDAY111999GF107991001001999999001021MD1310051+9999MW1021
0063010890999991951032618004+69717+029883FM-12+008899999V0201801N00051220001CN0700001N9-00501+99999100881ADDAY121999GF107991001001999999001071IA1319MD1310041+9999MW1021
0078010890999991951032700004+69717+029883FM-12+008899999V0209991C00001220001CN0400001N9-00281+99999100851ADDAY111999GF108991001001999999071999MW1021EQDQ01+000032APCTENQ02+000002APC3  
0057010890999991951032703004+69717+029883FM-12+008899999V0209991C00001220001CN0400001N9-00281+99999100601ADDAY121999GF108991001001999999011999MD1810151+9999MW1151
0063010890999991951032706004+69717+029883FM-12+008899999V0209991C00001015001CN0160001N9-00281+99999100291ADDAY121999GF108991081001017501021999IA1319MD1810301+9999MW1151
0092010890999991951032709004+69717+029883FM-12+008899999V0202401N00461015001CN0200001N9-00111+99999100401ADDAY171999GF108991081001017501021999MD1210111+9999MW1701EQDQ01+000042APCTENQ02+000102APC3  
0057010890999991951032712004+69717+029883FM-12+008899999V0202401N00461220001CN0700001N9-00111+99999100711ADDAY111999GF104991031081008001041001MD1310301+9999MW1021
0057010890999991951032715004+69717+029883FM-12+008899999V0202601N00621220001CN0700001N9-00221+99999100951ADDAY101999GF103991021021008001041001MD1310241+9999MW1011
0063010890999991951032718004+69717+029883FM-12+008899999V0202401N006219999999N0700001N9-00281+99999101211ADDAY121999GF105991031081008001041001IA1209MD1310261+9999MW1021
0057010890999991951032800004+69717+029883FM-12+008899999V0202401N00261220001CN0700001N9-00611+99999101451ADDAY121999GF104991021081008001041001MD1310101+9999MW1021
0057010890999991951032803004+69717+029883FM-12+008899999V0209991C00001220001CN0700001N9-00781+99999101561ADDAY101999GF103991011021008001041001MD1310111+9999MW1011
0063010890999991951032806004+69717+029883FM-12+008899999V0209991C00001220001CN0700001N9-00721+99999101611ADDAY101999GF102991021001022501041001IA1209MD1310061+9999MW1011
0057010890999991951032809004+69717+029883FM-12+008899999V0209991C00001220001CN0700001N9-00281+99999101561ADDAY101999GF103991001001999999001021MD1710051+9999MW1001
0076010890999991951032812004+69717+029883FM-12+008899999V0201801N001519999999N0700001N9-00391+99999101451ADDAY121999GF107991999001022501011021MD1710111+9999MW1031EQDQ01+000002SCOTLC
0057010890999991951032815004+69717+029883FM-12+008899999V0200301N00261220001CN0700001N9-00281+99999101291ADDAY121999GF107991001001999999001071MD1810161+9999MW1021
0063010890999991951032818004+69717+029883FM-12+008899999V0200801N006719999999N0400001N9-00221+99999101101ADDAY121999GF108991031091004501021999IA1319MD1810191+9999MW1151
0057010890999991951032900004+69717+029883FM-12+008899999V0200501N006719999999N0160001N9-00111+99999100601ADDAY171999GF108991041091004501021999MD1810211+9999MW1721
0057010890999991951032903004+69717+029883FM-12+008899999V0209991C000019999999N0400001N9-00111+99999100411ADDAY171999GF108991031091008001021999MD1810191+9999MW1151
0063010890999991951032906004+69717+029883FM-12+008899999V0209991C000019999999N0400001N9-00111+99999100231ADDAY121999GF108991031091008001021999IA1319MD1810181+9999MW1151
