0057010890999991955010103004+69717+029883FM-12+008899999V0202301N00461007801CN0600001N9+00001+99999101741ADDAY121999GF108991081051008001999999MD1710101+9999MW1001
0057010890999991955010109004+69717+029883FM-12+008899999V0202301N00931007801CN0600001N9+00001+99999101541ADDAY121999GF108991081051008001999999MD1710101+9999MW1021
0057010890999991955010112004+69717+029883FM-12+008899999V0202301N01231007801CN0700001N9+00281+99999101391ADDAY111999GF108991081051008001999999MD1810151+9999MW1021
0057010890999991955010115004+69717+029883FM-12+008899999V0202701N01231007801CN0700001N9+00281+99999101841ADDAY181999GF107991071091008001999999MD1210451+9999MW1021
0100010890999991955010118004+69717+029883FM-12+008899999V0202801N01231007801CN0700001N9+00281+99999102442ADDAA199000691AY111999GF106991061091008001001001KA1999M+00391MD1210601+9999MW1021EQDQ01+102443APOSLP
0057010890999991955010203004+69717+029883FM-12+008899999V0202701N00671004501CN0600001N9+00001+99999103331ADDAY181999GF108991081091004501999999MD1210401+9999MW1151
0081010890999991955010206004+69717+029883FM-12+008899999V0202701N00461007801CN0700001N9+00111+99999103581ADDAA199000691AY121999GF108991081081008001999999KA1999N-00111MD1210251+9999MW1021
0057010890999991955010209004+69717+029883FM-12+008899999V0202701N00461007801CN0700001N9+00111+99999103831ADDAY121999GF108991081081008001999999MD1210251+9999MW1021
0057010890999991955010212004+69717+029883FM-12+008899999V0202501N00461007801CN0700001N9+00001+99999104041ADDAY121999GF106991051081008001041001MD1210211+9999MW1021
0057010890999991955010215004+69717+029883FM-12+008899999V0202501N00461007801CN0700001N9-00111+99999104101ADDAY121999GF106991051031008001041001MD1110061+9999MW1021
0070010890999991955010218004+69717+029883FM-12+008899999V0202501N00461007801CN0700001N9+00001+99999104121ADDAY121999GF107991071081008001999999KA1999M+00111MD1210021+9999MW1021
0057010890999991955010300004+69717+029883FM-12+008899999V0209991C00001220001CN0600001N9-00281+99999103941ADDAY121999GF103991021051008001041001MD1810101+9999MW1021
0057010890999991955010303004+69717+029883FM-12+008899999V0202601N00101220001CN0600001N9-00391+99999103701ADDAY121999GF103991021051008001041001MD1810241+9999MW1021
0086010890999991955010306004+69717+029883FM-12+008899999V0202001N00261220001CN0600001N9-00501+99999103431ADDAY121999GA1021+009009059GF103991021051008001041001KA1999N-00611MD1810271+9999MW1021
0073010890999991955010309004+69717+029883FM-12+008899999V0202001N00101220001CN0600001N9-00281+99999103211ADDAY121999GA1041+009009059GF107991041051008001041071MD1810211+9999MW1031
0073010890999991955010312004+69717+029883FM-12+008899999V0202601N00461220001CN0600001N9-00281+99999102871ADDAY181999GA1031+006009099GF107991031091008001041999MD1810341+9999MW1021
0073010890999991955010315004+69717+029883FM-12+008899999V0202501N00461006001CN0600001N9-00111+99999102731ADDAY111999GA1051+006009099GF108991051091008001041999MD1610141+9999MW1021
0081010890999991955010318004+69717+029883FM-12+008899999V0202701N00931007801CN0600001N9+00111+99999102561ADDAA199001091AY181999GF107991071091008001999999KA1999M+00111MD1710171+9999MW1021
0057010890999991955010400004+69717+029883FM-12+008899999V0202701N01231004501CN0600001N9+00221+99999102261ADDAY111999GF108991081091004501999999MD1710121+9999MW1021
0057010890999991955010403004+69717+029883FM-12+008899999V0202701N00931004501CN0600001N9+00221+99999102031ADDAY121999GF108991081091004501999999MD1810231+9999MW1021
0086010890999991955010406004+69717+029883FM-12+008899999V0203001N00931006001CN0600001N9+00221+99999101631ADDAY121999GA1081+006009099GF108991081091004501999999KA1999N+00221MD1810401+9999MW1021
0073010890999991955010409004+69717+029883FM-12+008899999V0202701N00771220001CN0600001N9+00221+99999101241ADDAY121999GA1041+007509059GF107991041051008001999999MD1710391+9999MW1021
0073010890999991955010412004+69717+029883FM-12+008899999V0202701N00671007501CN0600001N9+00221+99999101071ADDAY121999GA1051+007509059GF107991051051008001999999MD1810171+9999MW1021
0073010890999991955010415004+69717+029883FM-12+008899999V0202801N00671220001CN0700001N9+00221+99999100921ADDAY121999GA1041+006009089GF107991071081008001999999MD1610151+9999MW1021
0081010890999991955010418004+69717+029883FM-12+008899999V0203201N01541004501CN0300001N9-00221+99999101201ADDAA199000591AY181999GF108991081091004501999999KA1999M+00221MD1210281+9999MW1151
0057010890999991955010500004+69717+029883FM-12+008899999V0203401N00931004501CN0600001N9-00391+99999101771ADDAY181999GF105991051091004501999999MD1210251+9999MW1021
0057010890999991955010503004+69717+029883FM-12+008899999V0203601N00461004501CN0600001N9-00501+99999101851ADDAY121999GF106991061091004501999999MD1210081+9999MW1021
0097010890999991955010506004+69717+029883FM-12+008899999V0203401N00461005101CN0600001N9-00501+99999101841ADDAA199000691AY121999GA1061+005109099GF106991061091004501001001KA1999N-00611MD1710011+9999MW1021
0073010890999991955010509004+69717+029883FM-12+008899999V0203201N00671220001CN0700001N9-00611+99999101831ADDAY101999GA1031+006009089GF103991031081008001001001MD1710011+9999MW1021
0073010890999991955010512004+69717+029883FM-12+008899999V0202701N00931220001CN0700001N9-00781+99999101821ADDAY111999GA1031+006009089GF105991051031008001001001MD1710011+9999MW1021
0073010890999991955010515004+69717+029883FM-12+008899999V0202801N00671220001CN0600001N9-00781+99999101801ADDAY181999GA1041+004509099GF104991041091008001001001MD1710021+9999MW1011
0081010890999991955010518004+69717+029883FM-12+008899999V0202801N00671007801CN0600001N9-00891+99999101741ADDAA199000691AY121999GF106991061081008001001001KA1999M-00501MD1710061+9999MW1021
0057010890999991955010600004+69717+029883FM-12+008899999V0202801N00931220001CN0600001N9-00891+99999101431ADDAY101999GF102991021061008001041001MD1710151+9999MW1021
0057010890999991955010603004+69717+029883FM-12+008899999V0202801N009319999999N0600001N9-01001+99999101151ADDAY121999GF107991031081008001011999MD1810281+9999MW1031
0086010890999991955010606004+69717+029883FM-12+008899999V0203201N00931220001CN0600001N9-00721+99999100861ADDAY121999GA1031+006009089GF107991031081008001011999KA1999N-01111MD1810291+9999MW1021
0073010890999991955010609004+69717+029883FM-12+008899999V0202901N00671220001CN0600001N9-00721+99999100631ADDAY121999GA1031+006009089GF106991031081008001041999MD1810231+9999MW1021
0073010890999991955010612004+69717+029883FM-12+008899999V0202801N00931220001CN0600001N9-00721+99999100331ADDAY121999GA1021+005409079GF108991021061008001021999MD1810301+9999MW1031
0089010890999991955010615004+69717+029883FM-12+008899999V0202801N00931220001CN0600001N9-00721+99999100051ADDAY121999GA1021+007509059GA2031+060009039GF108991021051008001041021MD1810281+9999MW1021
0070010890999991955010618004+69717+029883FM-12+008899999V0203001N00931004501CN0600001N9-00611+99999099771ADDAY111999GF107991071081004501999999KA1999M-00611MD1710281+9999MW1021
0057010890999991955010700004+69717+029883FM-12+008899999V0203601N00931004501CN0600001N9-00891+99999099971ADDAY181999GF108991081091004501999999MD1310101+9999MW1021
0057010890999991955010703004+69717+029883FM-12+008899999V0203601N00671220001CN0600001N9-00611+99999099961ADDAY111999GF104991041091004501001001MD1810011+9999MW1011
0097010890999991955010706004+69717+029883FM-12+008899999V0203601N00671220001CN0600001N9-00721+99999099971ADDAA199001091AY121999GA1041+006009099GF104991041091004501001001KA1999N-00891MD1310011+9999MW1021
0073010890999991955010709004+69717+029883FM-12+008899999V0202701N00101220001CN0600001N9-01001+99999099981ADDAY121999GA1021+005409079GF105991021061004501041021MD1210011+9999MW1021
0073010890999991955010712004+69717+029883FM-12+008899999V0202701N00261220001CN0600001N9-01001+99999099981ADDAY121999GA1031+084009079GF105991031061004501001021MD1410001+9999MW1021
0073010890999991955010715004+69717+029883FM-12+008899999V0202801N00261220001CN0700001N9-01001+99999100011ADDAY181999GA1041+006009099GF106991061031008001001001MD1210041+9999MW1021
0081010890999991955010718004+69717+029883FM-12+008899999V0202001N00261007801CN0700001N9-01001+99999100031ADDAA199000391AY121999GF105991051031008001001001KA1999M-00721MD1210021+9999MW1021
0057010890999991955010800004+69717+029883FM-12+008899999V0202001N002619999999N0700001N9-01611+99999100091ADDAY111999GF106991011021008001001071MD1210021+9999MW1021
0057010890999991955010803004+69717+029883FM-12+008899999V0202001N00261220001CN0700001N9-01611+99999100071ADDAY101999GF101991011021008001001001MD1710021+9999MW1021
0105010890999991955010806004+69717+029883FM-12+008899999V0202001N00261220001CN0400001N9-01891+99999100071ADDAY111999GA1031+006009059GF106991031051008001041999KA1999N-02001MD1410001+9999MW1101EQDQ01+000022APCTEN
0073010890999991955010809004+69717+029883FM-12+008899999V0201801N00101220001CN0600001N9-01781+99999100021ADDAY121999GA1031+006009059GF106991031051008001041001MD1710051+9999MW1021
0073010890999991955010812004+69717+029883FM-12+008899999V0202401N00261220001CN0600001N9-01281+99999099901ADDAY111999GA1031+006009099GF106991051091008001041001MD1710071+9999MW1151
0073010890999991955010815004+69717+029883FM-12+008899999V0203201N00461004501CN0600001N9-00501+99999099741ADDAY181999GA1061+004509099GF107991061091008001041999MD1510161+9999MW1021
0081010890999991955010818004+69717+029883FM-12+008899999V0203201N00671220001CN0600001N9-00501+99999099891ADDAA199001091AY181999GF103991031091008001041001KA1999M-00391MD1210151+9999MW1011
0057010890999991955010903004+69717+029883FM-12+008899999V0209991C000019999999N0600001N9-01501+99999100031ADDAY121999GF107991021091008001011999MD1710021+9999MW1021
0070010890999991955010906004+69717+029883FM-12+008899999V0209991C000019999999N0600001N9-01611+99999099931ADDAY121999GF106991021091008001041071KA1999N-01891MD1810101+9999MW1021
0057010890999991955010909004+69717+029883FM-12+008899999V0201701N001019999999N0600001N9-01781+99999099891ADDAY121999GF106991021061004501041071MD1710041+9999MW1021
0057010890999991955010912004+69717+029883FM-12+008899999V0201801N001019999999N0600001N9-01721+99999099821ADDAY121999GF108991021061004501021999MD1710071+9999MW1031
0057010890999991955010915004+69717+029883FM-12+008899999V0209991C000019999999N0600001N9-01611+99999099591ADDAY121999GF106991021061004501011999MD1710231+9999MW1011
0070010890999991955010918004+69717+029883FM-12+008899999V0209991C000019999999N0600001N9-01611+99999099501ADDAY121999GF108991031061004501011999KA1999M-01501MD1710091+9999MW1021
0057010890999991955011000004+69717+029883FM-12+008899999V0209991C000019999999N0600001N9-01611+99999099431ADDAY121999GF108991031051008001021999MD1510001+9999MW1031
0057010890999991955011003004+69717+029883FM-12+008899999V0209991C000019999999N0600001N9-01781+99999099401ADDAY111999GF106991031051008001001021MD1710031+9999MW1011
0089010890999991955011006004+69717+029883FM-12+008899999V0201801N00101220001CN0600001N9-01891+99999099351ADDAY101999GF102991001001999999001021KA1999N-01891MD1710051+9999MW1011EQDQ01+000022SCOTLC
0057010890999991955011009004+69717+029883FM-12+008899999V0201801N00101220001CN0600001N9-02001+99999099271ADDAY101999GF102991021061004501001001MD1710081+9999MW1401
0057010890999991955011012004+69717+029883FM-12+008899999V0201801N00101220001CN0600001N9-02001+99999099221ADDAY101999GF102991021061002501001001MD1710051+9999MW1401
0057010890999991955011015004+69717+029883FM-12+008899999V0209991C00001220001CN0600001N9-02111+99999099081ADDAY101999GF100991001001999999001001MD1710141+9999MW1401
0070010890999991955011018004+69717+029883FM-12+008899999V0202001N00051220001CN0600001N9-02001+99999099021ADDAY101999GF100991001001999999001001KA1999M-01891MD1710061+9999MW1401
0057010890999991955011100004+69717+029883FM-12+008899999V0201801N00051007801CN0600001N9-01721+99999098661ADDAY111999GF107991071001008001051999MD1710151+9999MW1401
0057010890999991955011103004+69717+029883FM-12+008899999V0201801N00261012301CN0600001N9-01501+99999098341ADDAY121999GF108991081001012501021999MD1710321+9999MW1021
0097010890999991955011106004+69717+029883FM-12+008899999V0202001N00461006001CN0020001N9-00891+99999097981ADDAA199000691AY171999GA1081+006009049GF108991081001008001021999KA1999N-02221MD1710361+9999MW1151
0073010890999991955011109004+69717+029883FM-12+008899999V0200901N00051009001CN0400001N9-00721+99999097601ADDAY171999GA1081+009009049GF108991081001012501021999MD1710381+9999MW1151
0073010890999991955011112004+69717+029883FM-12+008899999V0201201N00101220001CN0600001N9-00611+99999097141ADDAY171999GA1031+006009059GF108991031051008001021999MD1710461+9999MW1021
0092010890999991955011115004+69717+029883FM-12+008899999V0201001N00101009001CN0010001N9-00781+99999096761ADDAY171999GA1081+009009049GF108991999071008001021999MD1710381+9999MW1731EQDQ01+000082SCOTLC
0081010890999991955011118004+69717+029883FM-12+008899999V0209991C00001220001CN0600001N9-02002+99999096441ADDAA199003091AY171999GF104991021051008001031999KA1999M-00611MD1710321+9999MW1021
0057010890999991955011200004+69717+029883FM-12+008899999V0209991C000019999999N0050001N9-01001+99999095921ADDAY171999GF108991031061008001011999MD1710201+9999MW1031
0076010890999991955011203004+69717+029883FM-12+008899999V0209991C00001007801CN0010001N9-01001+99999095831ADDAY171999GF108991999071008001021999MD1710091+9999MW1711EQDQ01+000082SCOTLC
0116010890999991955011206004+69717+029883FM-12+008899999V0209991C00001007501CN0100001N9-01001+99999095761ADDAA199004091AY171999GA1081+007509049GF108991999071008001011999KA1999N-02221MD1710071+9999MW1021EQDQ01+000082SCOTLC
0092010890999991955011209004+69717+029883FM-12+008899999V0201801N00101006001CN0100001N9-01111+99999095761ADDAY171999GA1081+006009049GF108991999071008001021999MD1510001+9999MW1701EQDQ01+000082SCOTLC
0073010890999991955011212004+69717+029883FM-12+008899999V0202001N00101009001CN0100001N9-01221+99999095881ADDAY171999GA1051+009009049GF108991051071008001021999MD1310121+9999MW1021
0073010890999991955011215004+69717+029883FM-12+008899999V0209991C00001005401CN0600001N9-01501+99999096081ADDAY181999GA1051+005409099GF105991051091004501999999MD1310201+9999MW1011
0081010890999991955011218004+69717+029883FM-12+008899999V0201801N00101004501CN0100001N9-01501+99999096291ADDAA199000691AY181999GF106991061091004501999999KA1999M-01001MD1310211+9999MW1851
0057010890999991955011300004+69717+029883FM-12+008899999V0201801N00051004501CN0600001N9-01501+99999096761ADDAY181999GF107991071091004501999999MD1210201+9999MW1021
0057010890999991955011303004+69717+029883FM-12+008899999V0201801N00051004501CN0600001N9-01501+99999096721ADDAY121999GF108991081091004501999999MD1210231+9999MW1021
0097010890999991955011306004+69717+029883FM-12+008899999V0209991C00001006001CN0600001N9-01611+99999097211ADDAA199001091AY121999GA1051+006009099GF105991051091004501999999KA1999N-01611MD1210211+9999MW1021
0076010890999991955011309004+69717+029883FM-12+008899999V0201801N00101220001CN0600001N9-01501+99999097491ADDAY101999GF103991001001999999001021MD1210281+9999MW1011EQDQ01+000032SCOTLC
0073010890999991955011312004+69717+029883FM-12+008899999V0203201N00461220001CN0700001N9-00501+99999097691ADDAY101999GA1031+006009059GF107991031051012501001041MD1210201+9999MW1031
0073010890999991955011315004+69717+029883FM-12+008899999V0202401N00101220001CN0700001N9-00891+99999097901ADDAY111999GA1031+006009059GF105991031051012501001021MD1210211+9999MW1021
0070010890999991955011318004+69717+029883FM-12+008899999V0209991C00001220001CN0700001N9-01111+99999098131ADDAY111999GF103991021051012501041001KA1999M-00501MD1210231+9999MW1021
0057010890999991955011400004+69717+029883FM-12+008899999V0202201N00051220001CN0700001N9-01891+99999098501ADDAY101999GF100991001001999999001001MD1210181+9999MW1021
0057010890999991955011403004+69717+029883FM-12+008899999V0209991C00001220001CN0700001N9-02001+99999098591ADDAY101999GF100991001001999999001001MD1210091+9999MW1021
0070010890999991955011406004+69717+029883FM-12+008899999V0202201N00051220001CN0700001N9-01781+99999098691ADDAY101999GF101991001001999999001021KA1999N-02001MD1210091+9999MW1021
0073010890999991955011409004+69717+029883FM-12+008899999V0201801N00051220001CN0700001N9-01611+99999098791ADDAY101999GA1011+030009039GF104991011001999999041021MD1210101+9999MW1021
0092010890999991955011412004+69717+029883FM-12+008899999V0202001N00101220001CN0700001N9-01611+99999099001ADDAY101999GA1031+030009039GF105991999001999999041021MD1210111+9999MW1021EQDQ01+000002SCOTLC
0073010890999991955011415004+69717+029883FM-12+008899999V0209991C00001220001CN0700001N9-01721+99999098961ADDAY121999GA1021+009009059GF104991021051008001041999MD1710041+9999MW1021
0089010890999991955011418004+69717+029883FM-12+008899999V0201801N00101220001CN0700001N9-01391+99999098991ADDAY101999GF102991021051008001041001KA1999M+99999MD1210031+9999MW1021EQDQ01 -01892ATMX  
0057010890999991955011500004+69717+029883FM-12+008899999V0209991C00001220001CN0700001N9-01611+99999099131ADDAY101999GF100991001001999999001001MD1210101+9999MW1011
0057010890999991955011503004+69717+029883FM-12+008899999V0209991C00001220001CN0600001N9-01781+99999099161ADDAY101999GF100991001001999999001001MD1210031+9999MW1021
0070010890999991955011506004+69717+029883FM-12+008899999V0209991C000019999999N0100001N9-02001+99999099111ADDAY141999GF109991999999000251999999KA1999N-02001MD1810051+9999MW1451
0057010890999991955011509004+69717+029883FM-12+008899999V0209991C000019999999N0005001N9-01721+99999099081ADDAY141999GF109991999999000251999999MD1710031+9999MW1451
0057010890999991955011512004+69717+029883FM-12+008899999V0209991C000019999999N0010001N9-01221+99999099001ADDAY141999GF109991999999000251999999MD1710081+9999MW1451
0057010890999991955011515004+69717+029883FM-12+008899999V0209991C00001000151CN0008001N9-01221+99999098991ADDAY141999GF109991091999000251999999MD1710011+9999MW1451
0070010890999991955011518004+69717+029883FM-12+008899999V0209991C00001002401CN0500001N9-01001+99999098911ADDAY141999GF106991061061002501999999KA1999M-00891MD1710081+9999MW1011
0057010890999991955011603004+69717+029883FM-12+008899999V0201801N00771002401CN0500001N9-00781+99999098491ADDAY181999GF108991081091002501999999MD1710201+9999MW1151
0081010890999991955011606004+69717+029883FM-12+008899999V0203401N00771002401CN0600001N9-00281+99999098331ADDAA199002091AY181999GF108991081091002501999999KA1999N-01221MD1710161+9999MW1021
0057010890999991955011609004+69717+029883FM-12+008899999V0203201N00771004501CN0600001N9-00281+99999098071ADDAY181999GF108991081091004501999999MD1710261+9999MW1021
0057010890999991955011612004+69717+029883FM-12+008899999V0203201N00461004501CN0010001N9-00281+99999097861ADDAY181999GF108991081091004501999999MD1710211+9999MW1861
0057010890999991955011615004+69717+029883FM-12+008899999V0203401N00461004501CN0600001N9-00281+99999097711ADDAY181999GF108991081091004501999999MD1710151+9999MW1021
0081010890999991955011618004+69717+029883FM-12+008899999V0203401N00671004501CN0600001N9-00221+99999097571ADDAA199001091AY181999GF108991081091004501999999KA1999M-00221MD1710141+9999MW1021
0057010890999991955011700004+69717+029883FM-12+008899999V0203601N00671004501CN0400001N9-00221+99999097591ADDAY181999GF108991081031004501999999MD1210051+9999MW1151
0057010890999991955011703004+69717+029883FM-12+008899999V0203601N00671004501CN0010001N9-00221+99999097691ADDAY131999GF108991081091004501999999MD1210101+9999MW1861
0097010890999991955011706004+69717+029883FM-12+008899999V0203601N00931004501CN0001001N9-00221+99999097781ADDAA199001091AY181999GA1081+004509099GF108991081091004501999999KA1999N-00281MD1210091+9999MW1861
0073010890999991955011709004+69717+029883FM-12+008899999V0203601N00931004501CN0500001N9-00221+99999097931ADDAY181999GA1081+004509099GF108991081091004501999999MD1210151+9999MW1151
0073010890999991955011712004+69717+029883FM-12+008899999V0203601N00931004501CN0600001N9-00221+99999098031ADDAY181999GA1081+004509099GF108991081091004501999999MD1210101+9999MW1151
0073010890999991955011715004+69717+029883FM-12+008899999V0203601N00671004501CN0030001N9-00221+99999098081ADDAY181999GA1081+004509099GF108991081091004501999999MD1210081+9999MW1861
0081010890999991955011718004+69717+029883FM-12+008899999V0203601N00931004501CN0600001N9-00111+99999098241ADDAA199001091AY181999GF108991081091004501999999KA1999M+00001MD1210161+9999MW1021
0057010890999991955011800004+69717+029883FM-12+008899999V0203601N00931004501CN0005001N9-00111+99999098571ADDAY181999GF108991081091004501999999MD1210101+9999MW1861
0057010890999991955011803004+69717+029883FM-12+008899999V0203601N00931004501CN0600001N9-00111+99999098561ADDAY181999GF108991081091004501999999MD1710011+9999MW1021
0097010890999991955011806004+69717+029883FM-12+008899999V0203601N00461005401CN0600001N9-00221+99999098531ADDAA199001091AY121999GA1081+005409039GF108991081091004501999999KA1999N-00281MD1710031+9999MW1021
0073010890999991955011809004+69717+029883FM-12+008899999V0203601N00671005401CN0400001N9-00111+99999098471ADDAY181999GA1081+005409099GF108991081091004501999999MD1710061+9999MW1151
0073010890999991955011812004+69717+029883FM-12+008899999V0200201N00931004501CN0005001N9-00111+99999098351ADDAY181999GA1081+004509099GF108991081091004501999999MD1710121+9999MW1861
0073010890999991955011815004+69717+029883FM-12+008899999V0200501N00671005401CN0040001N9-00111+99999098311ADDAY181999GA1081+005409099GF108991081091004501999999MD1710041+9999MW1861
0081010890999991955011818004+69717+029883FM-12+008899999V0209991C00001004501CN0600001N9-00281+99999098281ADDAA199002091AY181999GF105991051091004501999999KA1999M-00111MD1710031+9999MW1021
0057010890999991955011900004+69717+029883FM-12+008899999V0200201N00931004501CN0600001N9-00281+99999098021ADDAY181999GF108991081091004501999999MD1710021+9999MW1021
0057010890999991955011903004+69717+029883FM-12+008899999V0200201N01231004501CN0500001N9-00281+99999098021ADDAY181999GF108991081091004501999999MD1410001+9999MW1021
0081010890999991955011906004+69717+029883FM-12+008899999V0200201N01231004501CN0500001N9-00111+99999098091ADDAA199002091AY181999GF108991081091004501999999KA1999N-00391MD1310071+9999MW1021
0073010890999991955011909004+69717+029883FM-12+008899999V0200201N00931005401CN0010001N9-00111+99999098231ADDAY181999GA1081+005409099GF108991081091004501999999MD1210141+9999MW1861
0073010890999991955011912004+69717+029883FM-12+008899999V0200201N00931005401CN0030001N9-00111+99999098431ADDAY181999GA1081+005409099GF108991081091004501999999MD1210201+9999MW1881
0073010890999991955011915004+69717+029883FM-12+008899999V0200501N00931005401CN0500001N9-00111+99999098641ADDAY131999GA1061+005409099GF106991061091004501001001MD1210211+9999MW1021
0081010890999991955011918004+69717+029883FM-12+008899999V0200501N00931004501CN0600001N9-00111+99999098811ADDAA199000591AY181999GF105991051031004501001001KA1999M+00001MD1210171+9999MW1021
0057010890999991955012000004+69717+029883FM-12+008899999V0200201N00261220001CN0700001N9-00281+99999099261ADDAY111999GF104991041031008001001001MD1210201+9999MW1021
0057010890999991955012003004+69717+029883FM-12+008899999V0209991C00001220001CN0700001N9-00391+99999099451ADDAY171999GF104991041021008001001001MD1210301+9999MW1021
0097010890999991955012006004+69717+029883FM-12+008899999V0202201N00101220001CN0700001N9-00781+99999099631ADDAA199000691AY111999GA1031+006009059GF104991031051008001041001KA1999N-00781MD1210181+9999MW1021
0073010890999991955012009004+69717+029883FM-12+008899999V0201401N00101220001CN0700001N9-00891+99999099871ADDAY121999GA1031+012009059GF106991031051012501041001MD1210241+9999MW1021
0073010890999991955012012004+69717+029883FM-12+008899999V0201801N00101220001CN0700001N9-01111+99999100171ADDAY121999GA1031+012009059GF105991031051012501041011MD1210301+9999MW1021
0073010890999991955012015004+69717+029883FM-12+008899999V0209991C00001220001CN0600001N9-01281+99999100411ADDAY101999GA1021+012009059GF103991021051012501041001MD1210241+9999MW1011
0070010890999991955012018004+69717+029883FM-12+008899999V0209991C00001220001CN0600001N9-01501+99999100631ADDAY101999GF100991001001999999001001KA1999M-00611MD1210221+9999MW1021
0057010890999991955012100004+69717+029883FM-12+008899999V0200801N00101220001CN0600001N9-01721+99999100991ADDAY101999GF100991001001999999001001MD1210151+9999MW1021
0057010890999991955012103004+69717+029883FM-12+008899999V0209991C00001220001CN0600001N9-01781+99999101111ADDAY101999GF100991001001999999001001MD1210121+9999MW1021
0086010890999991955012106004+69717+029883FM-12+008899999V0209991C00001015001CN0600001N9-01501+99999101101ADDAY121999GA1071+015009049GF107991071001012501011999KA1999N-01781MD1810011+9999MW1031
0073010890999991955012109004+69717+029883FM-12+008899999V0202001N00101015001CN0600001N9-01281+99999101201ADDAY121999GA1081+015009049GF108991081001012501021999MD1310101+9999MW1021
0073010890999991955012112004+69717+029883FM-12+008899999V0202001N00101220001CN0600001N9-01111+99999101271ADDAY121999GA1021+007509079GF108991021061004501011999MD1210071+9999MW1021
0073010890999991955012115004+69717+029883FM-12+008899999V0202001N00101220001CN0600001N9-00891+99999101441ADDAY121999GA1031+006009079GF108991031061004501021999MD1210171+9999MW1021
0070010890999991955012118004+69717+029883FM-12+008899999V0202001N000519999999N0600001N9-00781+99999101561ADDAY121999GF108991031061004501021999KA1999M-00781MD1210121+9999MW1021
0057010890999991955012200004+69717+029883FM-12+008899999V0201801N00051220001CN0600001N9-01111+99999101731ADDAY101999GF103991031061004501001001MD1110031+9999MW1011
0057010890999991955012203004+69717+029883FM-12+008899999V0202001N00461220001CN0600001N9-01111+99999101591ADDAY101999GF103991031061004501001001MD1810111+9999MW1021
0086010890999991955012206004+69717+029883FM-12+008899999V0202001N00461220001CN0600001N9-01001+99999101461ADDAY121999GA1041+060009039GF104991041001022501041001KA1999N-01281MD1710131+9999MW1021
0073010890999991955012209004+69717+029883FM-12+008899999V0202001N00671060001CN0600001N9-00891+99999101181ADDAY121999GA1061+060009039GF106991061001022501041001MD1810281+9999MW1031
0073010890999991955012212004+69717+029883FM-12+008899999V0202301N00931015001CN0600001N9-00891+99999101001ADDAY121999GA1071+015009049GF107991071001017501071001MD1610181+9999MW1031
0073010890999991955012215004+69717+029883FM-12+008899999V0202001N00931220001CN0600001N9-00611+99999100821ADDAY121999GA1031+006009089GF108991041081008001071999MD1710181+9999MW1021
0070010890999991955012218004+69717+029883FM-12+008899999V0202401N009319999999N0500001N9-00501+99999100681ADDAY131999GF108991041081008001071999KA1999M-00501MD1710141+9999MW1021
0057010890999991955012303004+69717+029883FM-12+008899999V0202501N009319999999N0600001N9-00501+99999099851ADDAY131999GF108991031051008001071999MD1710401+9999MW1021
0070010890999991955012306004+69717+029883FM-12+008899999V0202401N006719999999N0600001N9-00281+99999099711ADDAY121999GF108991041051008001071999KA1999N-00501MD1710141+9999MW1021
0057010890999991955012309004+69717+029883FM-12+008899999V0202201N00261007801CN0700001N9-00281+99999099561ADDAY121999GF108991051081008001071999MD1710151+9999MW1021
0057010890999991955012312004+69717+029883FM-12+008899999V0202001N002619999999N0700001N9-00281+99999099441ADDAY111999GF106991031081008001041001MD1710121+9999MW1021
0057010890999991955012315004+69717+029883FM-12+008899999V0202101N00461220001CN0700001N9-00391+99999099321ADDAY111999GF104991041081008001001001MD1710121+9999MW1021
0070010890999991955012318004+69717+029883FM-12+008899999V0202001N00261220001CN0700001N9-00611+99999099171ADDAY101999GF101991011081008001001001KA1999M-00221MD1710151+9999MW1021
0057010890999991955012400004+69717+029883FM-12+008899999V0202701N00931004501CN0600001N9-00501+99999099141ADDAY181999GF108991081091004501999999MD1210051+9999MW1021
0057010890999991955012403004+69717+029883FM-12+008899999V0202701N00671004501CN0600001N9-00611+99999099181ADDAY121999GF108991081091004501999999MD1210041+9999MW1021
0097010890999991955012406004+69717+029883FM-12+008899999V0202601N00101220001CN0600001N9-00391+99999099201ADDAA199000691AY101999GA1021+006009099GF103991021091004501041001KA1999N-00721MD1210021+9999MW1011
0073010890999991955012409004+69717+029883FM-12+008899999V0209991C00001220001CN0700001N9-00611+99999099281ADDAY121999GA1031+006009099GF105991031091004501041001MD1210081+9999MW1011
0073010890999991955012412004+69717+029883FM-12+008899999V0202001N00101220001CN0700001N9-00721+99999099071ADDAY121999GA1021+006009099GF107991021091004501071999MD1810211+9999MW1021
0089010890999991955012415004+69717+029883FM-12+008899999V0202001N00051010501CN0040001N9-00611+99999098781ADDAY171999GA1031+007509059GA2051+010509049GF108991031051008001021999MD1810291+9999MW1701
0081010890999991955012418004+69717+029883FM-12+008899999V0209991C00001007801CN0025001N9-00611+99999098421ADDAA199001091AY171999GF108991081001008001021999KA1999M-00391MD1810361+9999MW1731
0057010890999991955012500004+69717+029883FM-12+008899999V0209991C00001220001CN0600001N9-00781+99999098051ADDAY101999GF100991001001999999001001MD1710151+9999MW1001
0057010890999991955012503004+69717+029883FM-12+008899999V0209991C00001220001CN0600001N9-01001+99999098041ADDAY101999GF100991001001999999001001MD1710011+9999MW1001
0097010890999991955012506004+69717+029883FM-12+008899999V0209991C00001220001CN0600001N9-00891+99999098091ADDAA199001091AY121999GA1031+009009059GF105991031051008001041001KA1999N-01221MD1310051+9999MW1021
0073010890999991955012509004+69717+029883FM-12+008899999V0202701N00261220001CN0700001N9-00891+99999098241ADDAY101999GA1021+006009079GF102991021061004501001001MD1210151+9999MW1021
0073010890999991955012512004+69717+029883FM-12+008899999V0202701N00931220001CN0700001N9-00781+99999098261ADDAY111999GA1031+012009059GF105991031051012501041001MD1210021+9999MW1021
0073010890999991955012515004+69717+029883FM-12+008899999V0202701N00671220001CN0700001N9-00281+99999098341ADDAY111999GA1031+006009089GF104991041081008001001001MD1210081+9999MW1021
0070010890999991955012518004+69717+029883FM-12+008899999V0202801N00931007801CN0060001N9-00221+99999098421ADDAY131999GF105991051031008001001001KA1999M-00221MD1210081+9999MW1021
0057010890999991955012600004+69717+029883FM-12+008899999V0202801N00931004501CN0050001N9-00281+99999098901ADDAY181999GF108991081091004501999999MD1210221+9999MW1861
0057010890999991955012603004+69717+029883FM-12+008899999V0203001N01231004501CN0050001N9-00281+99999099451ADDAY181999GF108991081091004501999999MD1210551+9999MW1861
0097010890999991955012606004+69717+029883FM-12+008899999V0202801N00931220001CN0700001N9-00281+99999099481ADDAA199000591AY111999GA1011+006009089GF102991021021008001001001KA1999N-00281MD1210031+9999MW1021
0073010890999991955012609004+69717+029883FM-12+008899999V0202801N00671220001CN0700001N9-00391+99999099641ADDAY101999GA1021+009009089GF103991031081008001001001MD1210161+9999MW1021
0073010890999991955012612004+69717+029883FM-12+008899999V0202701N00671220001CN0700001N9-00501+99999099711ADDAY101999GA1021+009009089GF103991031081008001001001MD1210071+9999MW1021
0073010890999991955012615004+69717+029883FM-12+008899999V0209991C00001220001CN0700001N9-00781+99999099781ADDAY101999GA1031+009009089GF103991031081008001001001MD1210071+9999MW1021
0070010890999991955012618004+69717+029883FM-12+008899999V0209991C00001220001CN0700001N9-00891+99999099771ADDAY101999GF102991021081008001001001KA1999M-00391MD1810011+9999MW1021
0057010890999991955012700004+69717+029883FM-12+008899999V0209991C000019999999N0600001N9-01001+99999099651ADDAY121999GF108991031061008001021999MD1810051+9999MW1031
0057010890999991955012703004+69717+029883FM-12+008899999V0209991C000019999999N0600001N9-01111+99999099531ADDAY121999GF108991021061004501011999MD1810121+9999MW1021
0086010890999991955012706004+69717+029883FM-12+008899999V0201901N00101220001CN0600001N9-00891+99999099401ADDAY121999GA1021+006009079GF108991021061004501021999KA1999N-01221MD1810131+9999MW1021
0073010890999991955012709004+69717+029883FM-12+008899999V0209991C00001220001CN0600001N9-00891+99999099351ADDAY121999GA1031+005409099GF108991031091004501021999MD1810051+9999MW1021
0073010890999991955012712004+69717+029883FM-12+008899999V0209991C00001009001CN0600001N9-00891+99999099321ADDAY121999GA1051+009009089GF107991051081008001071999MD1810031+9999MW1021
0073010890999991955012715004+69717+029883FM-12+008899999V0209991C00001220001CN0700001N9-00781+99999099291ADDAY121999GA1031+007509089GF106991031081008001041001MD1710031+9999MW1021
0070010890999991955012718004+69717+029883FM-12+008899999V0209991C00001220001CN0700001N9-01221+99999099331ADDAY101999GF103991031021008001001001KA1999M-00721MD1310041+9999MW1021
0057010890999991955012800004+69717+029883FM-12+008899999V0209991C00001220001CN0600001N9-01281+99999099441ADDAY101999GF103991031021008001001001MD1210061+9999MW1021
0057010890999991955012803004+69717+029883FM-12+008899999V0209991C00001220001CN0600001N9-01391+99999099441ADDAY181999GF103991031091004501001001MD1410001+9999MW1021
0097010890999991955012806004+69717+029883FM-12+008899999V0200201N00261220001CN0700001N9-00501+99999099531ADDAA199001091AY121999GA1041+006009089GF104991041081004501001001KA1999N-01501MD1310091+9999MW1021
0073010890999991955012809004+69717+029883FM-12+008899999V0203001N00671220001CN0700001N9-00721+99999099621ADDAY101999GA1031+006009089GF103991031081004501001001MD1210091+9999MW1021
0073010890999991955012812004+69717+029883FM-12+008899999V0203001N00671220001CN0700001N9-00781+99999099691ADDAY101999GA1021+006009089GF102991021081004501001001MD1210071+9999MW1021
0073010890999991955012815004+69717+029883FM-12+008899999V0203001N00931220001CN0700001N9-00781+99999099681ADDAY111999GA1021+006009089GF104991021021008001041021MD1710011+9999MW1021
0070010890999991955012818004+69717+029883FM-12+008899999V0203001N006719999999N0700001N9-00611+99999099661ADDAY111999GF105991031081008001071999KA1999M-00391MD1710021+9999MW1031
0057010890999991955012900004+69717+029883FM-12+008899999V0202801N00671007801CN0700001N9-00391+99999099761ADDAY121999GF107991071081008001999999MD1210051+9999MW1021
0057010890999991955012903004+69717+029883FM-12+008899999V0203001N00931007801CN0700001N9-00391+99999099821ADDAY121999GF107991071081008001999999MD1210061+9999MW1021
0086010890999991955012906004+69717+029883FM-12+008899999V0203201N00671006001CN0700001N9-00391+99999099891ADDAY121999GA1051+006009089GF106991051021008001041001KA1999N-00781MD1210071+9999MW1021
0092010890999991955012909004+69717+029883FM-12+008899999V0203001N00671220001CN0700001N9-00391+99999099891ADDAY121999GA1021+006009089GF105991031021008001041021MD1410001+9999MW1021EQDQ01+000022APCTEN
0073010890999991955012912004+69717+029883FM-12+008899999V0203001N00461220001CN0700001N9-00391+99999100091ADDAY111999GA1021+009009089GF104991021021008001041001MD1210201+9999MW1021
0073010890999991955012915004+69717+029883FM-12+008899999V0203001N00671220001CN0700001N9-00891+99999100111ADDAY101999GA1021+009009089GF103991021081008001041001MD1210021+9999MW1011
0070010890999991955012918004+69717+029883FM-12+008899999V0203201N00261220001CN0700001N9-00891+99999100121ADDAY101999GF102991011081008001041001KA1999M-00391MD1210011+9999MW1021
0057010890999991955013003004+69717+029883FM-12+008899999V0203001N00671220001CN0700001N9-01001+99999100171ADDAY101999GF102991011081008001041001MD1210011+9999MW1021
0070010890999991955013006004+69717+029883FM-12+008899999V0203001N00931220001CN0700001N9-00891+99999100151ADDAY101999GF102991021061008001001001KA1999N-01111MD1810021+9999MW1021
0057010890999991955013009004+69717+029883FM-12+008899999V0202801N00671220001CN0700001N9-01001+99999100141ADDAY101999GF102991011061008001041001MD1810011+9999MW1021
0057010890999991955013012004+69717+029883FM-12+008899999V0203001N00671220001CN0700001N9-00891+99999100141ADDAY111999GF103991021091004501041001MD1410001+9999MW1031
0057010890999991955013015004+69717+029883FM-12+008899999V0203001N00931004501CN0700001N9-00781+99999100011ADDAY121999GF106991051091004501041001MD1810131+9999MW1031
0070010890999991955013018004+69717+029883FM-12+008899999V0203001N00261004501CN0700001N9-00721+99999100031ADDAY121999GF106991051091004501041001KA1999M-00721MD1310021+9999MW1021
0057010890999991955013100004+69717+029883FM-12+008899999V0203601N00261004501CN0600001N9-00721+99999099991ADDAY121999GF108991081091004501999999MD1710021+9999MW1021
0057010890999991955013103004+69717+029883FM-12+008899999V0200201N00261004501CN0600001N9-00721+99999099961ADDAY121999GF108991081091004501999999MD1710031+9999MW1021
0086010890999991955013106004+69717+029883FM-12+008899999V0209991C00001220001CN0700001N9-01001+99999100051ADDAY101999GA1031+030009039GF103991031001022501041001KA1999N-01001MD1310091+9999MW1011
0073010890999991955013109004+69717+029883FM-12+008899999V0209991C00001004501CN0500001N9-00891+99999100221ADDAY111999GA1051+004509079GF108991051061004501051999MD1310171+9999MW1101
0073010890999991955013112004+69717+029883FM-12+008899999V0209991C00001005401CN0600001N9-00781+99999100291ADDAY111999GA1051+005409079GF107991051061004501041999MD1210081+9999MW1021
0073010890999991955013115004+69717+029883FM-12+008899999V0209991C00001004501CN0600001N9-00891+99999100381ADDAY121999GA1061+004509079GF108991061061004501041999MD1210091+9999MW1101
0070010890999991955013118004+69717+029883FM-12+008899999V0209991C00001000151CN0004001N9-00891+99999100441ADDAY141999GF108991081061000251999999KA1999M-00781MD1210061+9999MW1471
0057010890999991955020100004+69717+029883FM-12+008899999V0209991C00001001501CN0004001N9-01001+99999100601ADDAY141999GF108991081061001501999999MD1210081+9999MW1491
0057010890999991955020103004+69717+029883FM-12+008899999V0209991C00001001501CN0004001N9-01001+99999100651ADDAY141999GF108991081061001501999999MD1210051+9999MW1491
0105010890999991955020106004+69717+029883FM-12+008899999V0209991C00001000151CN0005001N9-01111+99999100781ADDAY141999GA1081+000159079GF108991081061000251999999KA1999N-01111MD1210131+9999MW1481EQDQ01+000492PRSWM1
0073010890999991955020109004+69717+029883FM-12+008899999V0202001N00101001801CN0070001N9-01111+99999100921ADDAY141999GA1081+001809079GF108991081061001501999999MD1210141+9999MW1701
0073010890999991955020112004+69717+029883FM-12+008899999V0202001N00101003001CN0120001N9-01221+99999101011ADDAY171999GA1051+003009079GF108991051061002501021999MD1210091+9999MW1711
0073010890999991955020115004+69717+029883FM-12+008899999V0202001N00101003001CN0600001N9-01281+99999101111ADDAY171999GA1061+003009079GF108991061061002501011999MD1210101+9999MW1021
0081010890999991955020118004+69717+029883FM-12+008899999V0202001N00261220001CN0600001N9-01721+99999101171ADDAA199000391AY101999GF101991011061002501001001KA1999M-01111MD1210061+9999MW1011
0057010890999991955020200004+69717+029883FM-12+008899999V0202001N00261220001CN0600001N9-01781+99999101401ADDAY101999GF102991011061002501041001MD1210101+9999MW1021
0057010890999991955020203004+69717+029883FM-12+008899999V0202001N00261002401CN0600001N9-01781+99999101471ADDAY121999GF108991081061002501999999MD1210071+9999MW1031
0086010890999991955020206004+69717+029883FM-12+008899999V0202001N00261003001CN0600001N9-01611+99999101481ADDAY121999GA1081+003009079GF108991081061002501999999KA1999N-01781MD1210011+9999MW1021
0073010890999991955020209004+69717+029883FM-12+008899999V0209991C00001003001CN0100001N9-01611+99999101541ADDAY121999GA1081+003009079GF108991081061002501999999MD1210061+9999MW1021
0073010890999991955020212004+69717+029883FM-12+008899999V0209991C00001220001CN0100001N9-01781+99999101621ADDAY101999GA1021+003609079GF103991021061002501041001MD1210081+9999MW1011
0073010890999991955020215004+69717+029883FM-12+008899999V0209991C00001220001CN0100001N9-02111+99999101641ADDAY101999GA1021+003609079GF102991021061002501041001MD1210021+9999MW1021
0068010890999991955020218004+69717+029883FM-12+008899999V0209991C00001220001CN0100001N9-02281+99999101651ADDAA199000691AY101999GF102991021061002501001001MD1210011+9999MW1021
0057010890999991955020300004+69717+029883FM-12+008899999V0209991C00001220001CN0600001N9-02501+99999101661ADDAY101999GF103991021061002501041001MD1710011+9999MW1021
0057010890999991955020303004+69717+029883FM-12+008899999V0209991C00001220001CN0600001N9-02611+99999101561ADDAY101999GF103991031061002501001001MD1710061+9999MW1021
0086010890999991955020306004+69717+029883FM-12+008899999V0209991C00001220001CN0600001N9-02391+99999101471ADDAY101999GA1031+003009079GF106991031061002501041999KA1999N-02721MD1710091+9999MW1021
0089010890999991955020309004+69717+029883FM-12+008899999V0209991C00001220001CN0600001N9-02221+99999101431ADDAY121999GA1031+003609079GA2031+024009039GF106991031061002501041001MD1710041+9999MW1021
0089010890999991955020312004+69717+029883FM-12+008899999V0209991C00001220001CN0600001N9-02001+99999101381ADDAY121999GA1021+004509079GA2041+030009039GF106991021061004501041001MD1710051+9999MW1021
0057010890999991955020315004+69717+029883FM-12+008899999V0209991C00001220001CN0600001N9-02221+99999101321ADDAY121999GF101991011001999999041001MD1710061+9999MW1021
0070010890999991955020318004+69717+029883FM-12+008899999V0209991C00001220001CN0600001N9-02391+99999101281ADDAY101999GF100991001001999999001001KA1999M-02001MD1710041+9999MW1761
0057010890999991955020400004+69717+029883FM-12+008899999V0209991C00001220001CN0600001N9-02611+99999101151ADDAY101999GF100991001001999999001001MD1710061+9999MW1401
0057010890999991955020403004+69717+029883FM-12+008899999V0209991C00001220001CN0600001N9-02721+99999101041ADDAY101999GF100991001001999999001001MD1710111+9999MW1401
0070010890999991955020406004+69717+029883FM-12+008899999V0209991C00001220001CN0600001N9-02721+99999100891ADDAY101999GF101991001001999999001021KA1999N-02781MD1710151+9999MW1401
0073010890999991955020409004+69717+029883FM-12+008899999V0209991C00001015001CN0080001N9-02111+99999100771ADDAY171999GA1081+015009049GF108991081001012501021999MD1710121+9999MW1711
0073010890999991955020412004+69717+029883FM-12+008899999V0209991C00001010501CN0050001N9-01781+99999100601ADDAY171999GA1081+010509049GF108991081001008001021999MD1710171+9999MW1711
0073010890999991955020415004+69717+029883FM-12+008899999V0202001N00101009001CN0050001N9-01501+99999100431ADDAY171999GA1081+009009049GF108991081001008001021999MD1710171+9999MW1711
0081010890999991955020418004+69717+029883FM-12+008899999V0202001N00101007801CN0050001N9-01501+99999100231ADDAA199003091AY171999GF108991081001008001021999KA1999M-01501MD1710201+9999MW1711
0057010890999991955020500004+69717+029883FM-12+008899999V0202001N00261007801CN0050001N9-01391+99999099981ADDAY171999GF108991081001008001021999MD1710151+9999MW1711
0057010890999991955020503004+69717+029883FM-12+008899999V0202001N00261007801CN0050001N9-01391+99999099831ADDAY171999GF108991081001008001021999MD1710151+9999MW1711
0097010890999991955020506004+69717+029883FM-12+008899999V0209991C00001009001CN0150001N9-01281+99999099731ADDAA199004091AY171999GA1081+009009049GF108991081001008001021999KA1999N-01501MD1710101+9999MW1701
0073010890999991955020509004+69717+029883FM-12+008899999V0201901N00101010501CN0280001N9-01221+99999099711ADDAY171999GA1081+010509049GF108991081001008001021999MD1710021+9999MW1021
0073010890999991955020512004+69717+029883FM-12+008899999V0209991C00001010501CN0050001N9-01111+99999099701ADDAY171999GA1081+010509049GF108991081001008001021999MD1710011+9999MW1711
0073010890999991955020515004+69717+029883FM-12+008899999V0209991C00001010501CN0045001N9-01001+99999099681ADDAY171999GA1081+010509049GF108991081001008001021999MD1710021+9999MW1711
0081010890999991955020518004+69717+029883FM-12+008899999V0201801N00101007801CN0600001N9-00891+99999099701ADDAA199001091AY171999GF108991081001008001021999KA1999M-00891MD1310021+9999MW1021
0057010890999991955020603004+69717+029883FM-12+008899999V0209991C00001007801CN0600001N9-00611+99999100011ADDAY121999GF108991081001008001021999MD1210101+9999MW1021
0070010890999991955020606004+69717+029883FM-12+008899999V0202001N00461007801CN0600001N9-00721+99999100101ADDAY121999GF108991081001008001021999KA1999N-00891MD1210091+9999MW1021
0057010890999991955020609004+69717+029883FM-12+008899999V0201801N001019999999N0600001N9-00501+99999100221ADDAY121999GF108991031051004501021999MD1210121+9999MW1021
0057010890999991955020612004+69717+029883FM-12+008899999V0201801N001019999999N0600001N9-00501+99999100321ADDAY121999GF108991031051004501021999MD1210101+9999MW1021
0057010890999991955020615004+69717+029883FM-12+008899999V0209991C000019999999N0600001N9-00281+99999100361ADDAY121999GF108991031051004501021999MD1210041+9999MW1021
0070010890999991955020618004+69717+029883FM-12+008899999V0202001N001019999999N0600001N9-00391+99999100411ADDAY121999GF107991041051008001041999KA1999M-00281MD1210051+9999MW1021
0057010890999991955020700004+69717+029883FM-12+008899999V0202001N00101007801CN0700001N9-00281+99999100441ADDAY121999GF108991081051008001999999MD1210021+9999MW1021
0057010890999991955020703004+69717+029883FM-12+008899999V0202001N00101007801CN0700001N9-00281+99999100431ADDAY121999GF108991081051008001999999MD1710011+9999MW1021
0105010890999991955020706004+69717+029883FM-12+008899999V0209991C00001009001CN0700001N9-00221+99999100431ADDAY121999GA1081+009009059GF108991081051008001999999KA1999N-00391MD1410001+9999MW1021EQDQ01+000022APCTEN
0073010890999991955020709004+69717+029883FM-12+008899999V0209991C00001009001CN0700001N9-00221+99999100421ADDAY121999GA1051+009009059GF108991081081008001999999MD1710011+9999MW1021
0073010890999991955020712004+69717+029883FM-12+008899999V0209991C00001220001CN0700001N9-00111+99999100381ADDAY121999GA1041+009009059GF107991071081008001999999MD1710041+9999MW1021
0092010890999991955020715004+69717+029883FM-12+008899999V0209991C00001009001CN0600001N9-00111+99999100381ADDAY121999GA1051+009009059GF107991071081008001999999MD1410001+9999MW1021EQDQ01+000032APCTEN
0070010890999991955020718004+69717+029883FM-12+008899999V0209991C00001007801CN0600001N9-00111+99999100331ADDAY121999GF108991071081008001011999KA1999M-00111MD1710051+9999MW1021
0057010890999991955020800004+69717+029883FM-12+008899999V0209991C00001007801CN0600001N9-00111+99999100191ADDAY121999GF108991071081008001021999MD1710101+9999MW1021
0057010890999991955020803004+69717+029883FM-12+008899999V0209991C00001007801CN0600001N9-00111+99999100141ADDAY121999GF108991071081008001011999MD1710051+9999MW1021
0086010890999991955020806004+69717+029883FM-12+008899999V0209991C00001220001CN0600001N9+00001+99999100091ADDAY121999GA1041+009009059GF108991071081008001011999KA1999N-00111MD1710041+9999MW1021
0073010890999991955020809004+69717+029883FM-12+008899999V0209991C00001004501CN0200001N9+00001+99999100051ADDAY181999GA1051+004509099GF108991051031008001071999MD1710041+9999MW1851
0073010890999991955020812004+69717+029883FM-12+008899999V0201701N00101220001CN0600001N9+00111+99999100151ADDAY181999GA1041+006009099GF107991061031008001071999MD1210101+9999MW1021
0073010890999991955020815004+69717+029883FM-12+008899999V0202001N00101220001CN0600001N9+00001+99999100111ADDAY121999GA1031+006009099GF107991031091004501041999MD1810041+9999MW1021
0081010890999991955020818004+69717+029883FM-12+008899999V0202001N00051004501CN0100001N9-00111+99999100061ADDAA199000691AY121999GF107991071091004501999999KA1999M+00111MD1710051+9999MW1851
0057010890999991955020900004+69717+029883FM-12+008899999V0209991C00001004501CN0040001N9-00111+99999099871ADDAY181999GF108991081091004501999999MD1710051+9999MW1801
0057010890999991955020903004+69717+029883FM-12+008899999V0209991C00001004501CN0600001N9-00111+99999099821ADDAY181999GF108991081091004501999999MD1710051+9999MW1021
0097010890999991955020906004+69717+029883FM-12+008899999V0209991C00001005401CN0040001N9-00221+99999099801ADDAA199002091AY181999GA1081+005409099GF108991081091004501999999KA1999N-00221MD1710021+9999MW1851
0089010890999991955020909004+69717+029883FM-12+008899999V0201801N00051010501CN0600001N9-00281+99999099811ADDAY181999GA1061+010509059GA2021+030009039GF108991061051008001041999MD1310011+9999MW1021
0073010890999991955020912004+69717+029883FM-12+008899999V0201201N00051012001CN0600001N9-00281+99999099761ADDAY121999GA1061+012009059GF108991061051008001041999MD1810051+9999MW1021
0073010890999991955020915004+69717+029883FM-12+008899999V0201601N00051009001CN0600001N9-00281+99999099721ADDAY121999GA1051+009009059GF108991081081008001999999MD1710041+9999MW1151
0081010890999991955020918004+69717+029883FM-12+008899999V0209991C00001007801CN0100001N9-00391+99999099711ADDAA199000591AY171999GF108991081081008001999999KA1999M-00221MD1710011+9999MW1701
0078010890999991955021000004+69717+029883FM-12+008899999V0209991C00001007801CN0600001N9-00721+99999099741ADDAY121999GF107991071081008001999999MW1021EQDQ01+000022APCTENQ02+000002APC3  
0076010890999991955021003004+69717+029883FM-12+008899999V0209991C00001007801CN0600001N9-00721+99999099741ADDAY121999GF107991071081008001999999MD1410001+9999MW1021EQDQ01+000022APCTEN
0086010890999991955021006004+69717+029883FM-12+008899999V0209991C00001009001CN0600001N9-00501+99999099821ADDAY121999GA1051+009009059GF108991081081008001999999KA1999N-00721MD1210081+9999MW1021
0073010890999991955021009004+69717+029883FM-12+008899999V0201401N00101220001CN0600001N9-00501+99999099861ADDAY171999GA1041+009009059GF108991081081008001999999MD1210041+9999MW1151
0073010890999991955021012004+69717+029883FM-12+008899999V0201201N00261220001CN0700001N9-00501+99999099931ADDAY111999GA1031+009009059GF106991051081008001041001MD1210071+9999MW1021
0073010890999991955021015004+69717+029883FM-12+008899999V0201601N00101220001CN0700001N9-00611+99999999999ADDAY121999GA1031+009009059GF104991031081008001041001MD1210071+9999MW1021
0070010890999991955021018004+69717+029883FM-12+008899999V0202001N00101220001CN0600001N9-00891+99999100291ADDAY121999GF103991021081008001041001KA1999M-00391MD1210291+9999MW1021
0057010890999991955021100004+69717+029883FM-12+008899999V0209991C00001220001CN0600001N9-01111+99999100691ADDAY101999GF102991021081008001041001MD1210201+9999MW1021
0057010890999991955021103004+69717+029883FM-12+008899999V0209991C00001220001CN0600001N9-01221+99999100811ADDAY121999GF104991031061004501041999MD1210121+9999MW1031
0086010890999991955021106004+69717+029883FM-12+008899999V0209991C00001006001CN0100001N9-01111+99999100891ADDAY121999GA1051+006009079GF106991051061004501041999KA1999N-01281MD1210081+9999MW1031
0073010890999991955021109004+69717+029883FM-12+008899999V0201901N00101220001CN0150001N9-01111+99999101031ADDAY121999GA1031+006009079GF104991031061004501041999MD1210141+9999MW1021
0073010890999991955021112004+69717+029883FM-12+008899999V0209991C00001220001CN0200001N9-01111+99999101091ADDAY111999GA1041+009009059GF107991071081008001999999MD1210061+9999MW1031
0092010890999991955021115004+69717+029883FM-12+008899999V0209991C00001220001CN0300001N9-01111+99999101091ADDAY121999GA1041+012009059GF107991041051008001041999MD1410001+9999MW1021EQDQ01+000022APCTEN
0070010890999991955021118004+69717+029883FM-12+008899999V0209991C00001220001CN0600001N9-01281+99999101111ADDAY121999GF103991031051008001001001KA1999M-01001MD1210021+9999MW1011
0057010890999991955021200004+69717+029883FM-12+008899999V0202001N00261220001CN0600001N9-01391+99999101031ADDAY121999GF104991031051008001041999MD1810021+9999MW1021
0057010890999991955021203004+69717+029883FM-12+008899999V0209991C00001220001CN0600001N9-01391+99999100981ADDAY121999GF104991031051008001041999MD1710051+9999MW1021
0086010890999991955021206004+69717+029883FM-12+008899999V0209991C00001220001CN0700001N9-01111+99999100881ADDAY121999GA1021+015009059GF104991021051012501041001KA1999N-01501MD1710101+9999MW1021
0073010890999991955021209004+69717+029883FM-12+008899999V0209991C00001220001CN0700001N9-01221+99999100841ADDAY101999GA1021+015009059GF103991021051012501041001MD1710041+9999MW1021
0089010890999991955021212004+69717+029883FM-12+008899999V0201801N00261220001CN0700001N9-01001+99999100751ADDAY121999GA1031+012009059GA2021+999999039GF106991031051012501041001MD1710091+9999MW1031
0073010890999991955021215004+69717+029883FM-12+008899999V0202001N00261220001CN0600001N9-00781+99999100791ADDAY121999GA1031+009009059GF108991031051008001021999MD1210041+9999MW1151
0070010890999991955021218004+69717+029883FM-12+008899999V0202001N001019999999N0600001N9-01221+99999100821ADDAY111999GF105991031081008001041001KA1999M-00781MD1210031+9999MW1021
0057010890999991955021303004+69717+029883FM-12+008899999V0202301N00101220001CN0600001N9-01281+99999100881ADDAY111999GF104991031081008001041001MD1210021+9999MW1021
0070010890999991955021306004+69717+029883FM-12+008899999V0209991C00001007801CN0500001N9-01001+99999100901ADDAY121999GF107991071081008001999999KA1999N-01281MD1210021+9999MW1151
0057010890999991955021309004+69717+029883FM-12+008899999V0202501N00051007801CN0500001N9-01111+99999101041ADDAY121999GF108991081081008001999999MD1210141+9999MW1151
0057010890999991955021312004+69717+029883FM-12+008899999V0201201N00101220001CN0700001N9-00891+99999101151ADDAY111999GF104991011021008001041001MD1210111+9999MW1011
0057010890999991955021315004+69717+029883FM-12+008899999V0201601N00051220001CN0700001N9-01221+99999101341ADDAY101999GF100991001001999999001001MD1210191+9999MW1021
0070010890999991955021318004+69717+029883FM-12+008899999V0201801N00051220001CN0700001N9-01391+99999101531ADDAY101999GF100991001001999999001001KA1999M-00891MD1210191+9999MW1021
0057010890999991955021400004+69717+029883FM-12+008899999V0201801N00101220001CN0100001N9-01721+99999101711ADDAY101999GF100991001001999999001001MD1210101+9999MW1021
0057010890999991955021403004+69717+029883FM-12+008899999V0209991C00001220001CN9999999N9-01721+99999101761ADDAY101999GF100991001001999999001001MD1210051+9999MW1021
0086010890999991955021406004+69717+029883FM-12+008899999V0201801N00101010501CN0100001N9-01391+99999101791ADDAY121999GA1061+010509089GF106991061081008001999999KA1999N-01781MD1210031+9999MW1031
0073010890999991955021409004+69717+029883FM-12+008899999V0201901N00461010501CN0150001N9-01391+99999101891ADDAY121999GA1051+010509059GF107991051081008001999999MD1210101+9999MW1021
0073010890999991955021412004+69717+029883FM-12+008899999V0201901N00261220001CN0100001N9-01611+99999101831ADDAY101999GA1031+010509059GF103991031051008001001001MD1710061+9999MW1011
0073010890999991955021415004+69717+029883FM-12+008899999V0202001N00261220001CN0050001N9-01721+99999101721ADDAY101999GA1021+012009059GF102991021051008001001001MD1710111+9999MW1021
0070010890999991955021418004+69717+029883FM-12+008899999V0209991C00001220001CN0045001N9-01781+99999101651ADDAY101999GF102991021051008001001001KA1999M-01391MD1710071+9999MW1021
0057010890999991955021500004+69717+029883FM-12+008899999V0209991C00001220001CN0550001N9-02001+99999101411ADDAY101999GF103991031051008001001001MD1710121+9999MW1021
0057010890999991955021503004+69717+029883FM-12+008899999V0209991C00001220001CN0045001N9-02001+99999101051ADDAY101999GF103991031051008001001001MD1710361+9999MW1021
0105010890999991955021506004+69717+029883FM-12+008899999V0209991C00001000901CN0045001N9-02221+99999100861ADDAY141999GA1081+000909009GF108991081061002501999999KA1999N-02391MD1710191+9999MW1441EQDQ01+000452PRSWM1
0073010890999991955021509004+69717+029883FM-12+008899999V0202001N00261001801CN0045001N9-02001+99999100711ADDAY141999GA1051+001809009GF106991051061002501041001MD1710151+9999MW1421
0057010890999991955021512004+69717+029883FM-12+008899999V0202001N00261220001CN0700001N9-02001+99999100611ADDAY101999GF102991021001022501041001MD1710101+9999MW1401
0076010890999991955021515004+69717+029883FM-12+008899999V0201801N00051220001CN0700001N9-02111+99999100361ADDAY101999GF101991999001999999041001MD1710251+9999MW1401EQDQ01+000002SCOTLC
0089010890999991955021518004+69717+029883FM-12+008899999V0202401N00261220001CN0700001N9-02221+99999100301ADDAY101999GF101991999001999999041001KA1999M-01891MD1710061+9999MW1401EQDQ01+000002SCOTLC
0057010890999991955021600004+69717+029883FM-12+008899999V0201801N00101220001CN0700001N9-02281+99999100201ADDAY101999GF100991001001999999001001MD1710051+9999MW1401
0076010890999991955021603004+69717+029883FM-12+008899999V0201801N00101220001CN0700001N9-02281+99999100201ADDAY101999GF100991001001999999001001MD1410001+9999MW1401EQDQ01+000022APCTEN
0089010890999991955021606004+69717+029883FM-12+008899999V0201801N00101220001CN0700001N9-02501+99999100181ADDAY101999GF101991999001999999041001KA1999N-02501MD1710021+9999MW1401EQDQ01+000002SCOTLC
0057010890999991955021609004+69717+029883FM-12+008899999V0201801N00101220001CN0700001N9-02501+99999100221ADDAY101999GF102991001001999999041021MD1210041+9999MW1401
0076010890999991955021612004+69717+029883FM-12+008899999V0201801N00101220001CN0700001N9-02501+99999100271ADDAY101999GF102991999001999999041001MD1210051+9999MW1401EQDQ01+000002SCOTLC
0076010890999991955021615004+69717+029883FM-12+008899999V0201801N00101220001CN0700001N9-02501+99999100301ADDAY101999GF103991999001999999041001MD1210031+9999MW1401EQDQ01+000002SCOTLC
0089010890999991955021618004+69717+029883FM-12+008899999V0201901N00101220001CN0700001N9-02721+99999100351ADDAY101999GF102991999001999999041001KA1999M-02391MD1210051+9999MW1401EQDQ01+000002SCOTLC
0057010890999991955021700004+69717+029883FM-12+008899999V0201801N00101000151CN0030001N9-02611+99999100551ADDAY141999GF107991071061000251999999MD1210101+9999MW1461
0057010890999991955021703004+69717+029883FM-12+008899999V0209991C00001000151CN0040001N9-02611+99999100561ADDAY141999GF107991071061000251999999MD1210011+9999MW1421
0097010890999991955021706004+69717+029883FM-12+008899999V0209991C00001000601CN0050001N9-02391+99999100491ADDAA199000691AY141999GA1081+000609079GF108991081061000751999999KA1999N-02721MD1710071+9999MW1481
0092010890999991955021709004+69717+029883FM-12+008899999V0201001N00671000151CN0005001N9-00502+99999100361ADDAY181999GA1091+000159999GF109991091999000251999999MD1710131+9999MW1861EQDQ01+026823ATOT  
0073010890999991955021712004+69717+029883FM-12+008899999V0201201N00261006001CN0100001N9-01281+99999100451ADDAY181999GA1071+006009099GF107991071091004501999999MD1210091+9999MW1851
0073010890999991955021715004+69717+029883FM-12+008899999V0201801N00101006001CN0600001N9-01611+99999100541ADDAY121999GA1071+006009099GF107991071091004501999999MD1210091+9999MW1401
0081010890999991955021718004+69717+029883FM-12+008899999V0209991C00001220001CN0600001N9-01721+99999100511ADDAA199009091AY181999GF104991041091004501999999KA1999M-00391MD1810031+9999MW1401
0057010890999991955021803004+69717+029883FM-12+008899999V0200201N00671004501CN0600001N9-00501+99999100481ADDAY181999GF108991081091004501999999MD1210041+9999MW1021
0097010890999991955021806004+69717+029883FM-12+008899999V0203601N00931006001CN0010001N9-00391+99999100491ADDAA199001091AY181999GA1081+006009099GF108991081091004501999999KA1999N-01781MD1210011+9999MW1861
0073010890999991955021809004+69717+029883FM-12+008899999V0203401N00461220001CN0600001N9-00501+99999100601ADDAY181999GA1041+006009099GF105991041091004501001021MD1210111+9999MW1151
0073010890999991955021812004+69717+029883FM-12+008899999V0203401N00461220001CN0700001N9-00501+99999100671ADDAY101999GA1021+009009099GF103991021091008001001021MD1210071+9999MW1021
0073010890999991955021815004+69717+029883FM-12+008899999V0202801N00461220001CN0700001N9-00721+99999100721ADDAY111999GA1021+007509099GF104991031031008001041001MD1210051+9999MW1021
0081010890999991955021818004+69717+029883FM-12+008899999V0202801N00461220001CN0700001N9-00781+99999100681ADDAA199000691AY101999GF101991011031008001001001KA1999M-00391MD1710041+9999MW1021
0078010890999991955021900004+69717+029883FM-12+008899999V0202701N00461220001CN0700001N9-01111+99999100671ADDAY101999GF100991001001999999001001MW1021EQDQ01+000022APCTENQ02+000002APC3  
0076010890999991955021903004+69717+029883FM-12+008899999V0202701N00461220001CN0700001N9-01221+99999100671ADDAY101999GF100991001001999999001001MD1410001+9999MW1021EQDQ01+000022APCTEN
0070010890999991955021906004+69717+029883FM-12+008899999V0209991C00001220001CN0700001N9-02111+99999100681ADDAY101999GF100991001001999999001001KA1999N-02111MD1210011+9999MW1401
0057010890999991955021909004+69717+029883FM-12+008899999V0209991C00001220001CN0700001N9-02111+99999100791ADDAY101999GF101991011021008001001001MD1210111+9999MW1401
0073010890999991955021912004+69717+029883FM-12+008899999V0202001N00051220001CN0700001N9-01891+99999100861ADDAY101999GA1011+006009089GF101991011021008001001001MD1210071+9999MW1401
0073010890999991955021915004+69717+029883FM-12+008899999V0202001N00101220001CN0700001N9-02001+99999100881ADDAY101999GA1011+006009089GF101991011021008001001001MD1210021+9999MW1401
0070010890999991955021918004+69717+029883FM-12+008899999V0202001N00101220001CN0700001N9-02221+99999100931ADDAY101999GF101991011021008001001001KA1999M-01891MD1210051+9999MW1401
0078010890999991955022003004+69717+029883FM-12+008899999V0202001N00101220001CN0700001N9-02501+99999100961ADDAY101999GF100991001001999999001001MW1401EQDQ01+000032APCTENQ02+000002APC3  
0070010890999991955022006004+69717+029883FM-12+008899999V0202001N001019999999N0700001N9-02221+99999100991ADDAY101999GF107991011021008001041001KA1999N-02721MD1210031+9999MW1401
0057010890999991955022009004+69717+029883FM-12+008899999V0202001N001019999999N0700001N9-02501+99999101031ADDAY121999GF108991011021008001011999MD1210041+9999MW1401
0057010890999991955022012004+69717+029883FM-12+008899999V0202001N00101000601CN0010001N9-02281+99999101051ADDAY141999GF108991081061000751999999MD1210021+9999MW1471
0057010890999991955022015004+69717+029883FM-12+008899999V0202001N00101000601CN0025001N9-02281+99999101041ADDAY141999GF106991061061000751999999MD1710011+9999MW1421
0070010890999991955022018004+69717+029883FM-12+008899999V0202001N00101000601CN0010001N9-02281+99999101061ADDAY141999GF108991081081000751999999KA1999M-02221MD1210021+9999MW1471
0057010890999991955022100004+69717+029883FM-12+008899999V0209991C00001000601CN0010001N9-02281+99999101251ADDAY141999GF108991081061000751999999MD1210101+9999MW1451
0057010890999991955022103004+69717+029883FM-12+008899999V0209991C00001000601CN0010001N9-02501+99999101231ADDAY141999GF108991081061000751999999MD1210081+9999MW1451
0105010890999991955022106004+69717+029883FM-12+008899999V0202001N00101000601CN0010001N9-02501+99999101291ADDAY141999GA1081+000609059GF108991081061000751999999KA1999N-02501MD1210061+9999MW1441EQDQ01+000452PRSWM1
0073010890999991955022109004+69717+029883FM-12+008899999V0202001N00261001501CN0020001N9-02391+99999101381ADDAY141999GA1071+001509079GF107991071061001501999999MD1210091+9999MW1421
0073010890999991955022112004+69717+029883FM-12+008899999V0202001N00261002401CN0020001N9-02221+99999101401ADDAY141999GA1071+002409079GF107991071061001501999999MD1210021+9999MW1441
0076010890999991955022115004+69717+029883FM-12+008899999V0202001N00051220001CN0600001N9-02501+99999101421ADDAY101999GF101991999001999999041001MD1210021+9999MW1401EQDQ01+000002SCOTLC
0089010890999991955022118004+69717+029883FM-12+008899999V0202001N00101220001CN0600001N9-02611+99999101421ADDAY101999GF100991001001999999001001KA1999M-02221MD1410001+9999MW1401EQDQ01+000022APCTEN
0057010890999991955022200004+69717+029883FM-12+008899999V0202001N00101220001CN0600001N9-02721+99999101451ADDAY101999GF100991001001999999001001MD1210031+9999MW1401
0076010890999991955022203004+69717+029883FM-12+008899999V0209991C00001220001CN0600001N9-02721+99999101451ADDAY101999GF100991001001999999001001MD1410001+9999MW1401EQDQ01+000022APCTEN
0089010890999991955022206004+69717+029883FM-12+008899999V0209991C00001220001CN0100001N9-02781+99999101451ADDAY141999GF100991001001999999001001KA1999N-03001MD1410001+9999MW1401EQDQ01+000022APCTEN
0073010890999991955022209004+69717+029883FM-12+008899999V0202001N00101220001CN0300001N9-02781+99999101561ADDAY141999GA1031+003009079GF104991031061008001041001MD1210101+9999MW1421
0057010890999991955022212004+69717+029883FM-12+008899999V0202001N00101220001CN0600001N9-02721+99999101641ADDAY101999GF100991001001999999001001MD1210081+9999MW1401
0057010890999991955022215004+69717+029883FM-12+008899999V0209991C00001220001CN0600001N9-02721+99999101681ADDAY101999GF100991001001999999001001MD1210041+9999MW1401
0070010890999991955022218004+69717+029883FM-12+008899999V0209991C00001220001CN0600001N9-02891+99999101801ADDAY101999GF100991001001999999001001KA1999M-02611MD1210121+9999MW1401
0057010890999991955022300004+69717+029883FM-12+008899999V0202001N00101220001CN0600001N9-03001+99999102071ADDAY101999GF100991001001999999001001MD1210101+9999MW1401
0057010890999991955022303004+69717+029883FM-12+008899999V0201801N00101220001CN0600001N9-03001+99999102191ADDAY101999GF100991001001999999001001MD1210121+9999MW1401
0086010890999991955022306004+69717+029883FM-12+008899999V0202001N00261220001CN0600001N9-03111+99999102321ADDAY101999GA1041+004509079GF104991041061008001001001KA1999N-03221MD1210131+9999MW1401
0073010890999991955022309004+69717+029883FM-12+008899999V0202001N00101220001CN0600001N9-03001+99999102421ADDAY101999GA1021+006009079GF102991021061008001041021MD1210101+9999MW1401
0057010890999991955022312004+69717+029883FM-12+008899999V0202001N00101220001CN0600001N9-02781+99999102501ADDAY101999GF102991011061008001001021MD1210081+9999MW1401
0057010890999991955022315004+69717+029883FM-12+008899999V0202001N00101220001CN0600001N9-02891+99999102521ADDAY101999GF100991001001999999001001MD1210021+9999MW1401
0070010890999991955022318004+69717+029883FM-12+008899999V0202001N00101015001CN0550001N9-02721+99999102571ADDAY121999GF109991091999017501999999KA1999M-02721MD1210051+9999MW1401
0057010890999991955022400004+69717+029883FM-12+008899999V0209991C00001015001CN0600001N9-02221+99999102191ADDAY121999GF109991091999017501999999MD1410001+9999MW1021
0057010890999991955022403004+69717+029883FM-12+008899999V0209991C00001015001CN0600001N9-02001+99999102461ADDAY121999GF109991091999017501999999MD1810111+9999MW1021
0086010890999991955022406004+69717+029883FM-12+008899999V0202001N00101012001CN0600001N9-02001+99999102371ADDAY121999GA1081+012009049GF108991081001012501021999KA1999N-02721MD1710091+9999MW1021
0089010890999991955022409004+69717+029883FM-12+008899999V0202001N00461015001CN0600001N9-01891+99999102291ADDAY121999GA1031+010509049GA2051+015009049GF108991031051008001021999MD1710081+9999MW1021
0057010890999991955022412004+69717+029883FM-12+008899999V0202001N00261220001CN0700001N9-01891+99999102191ADDAY101999GF100991001001999999001001MD1710101+9999MW1021
0057010890999991955022415004+69717+029883FM-12+008899999V0202001N00051220001CN0700001N9-02221+99999102151ADDAY101999GF100991001001999999001001MD1710041+9999MW1021
0070010890999991955022418004+69717+029883FM-12+008899999V0201801N00101220001CN0700001N9-02281+99999102041ADDAY101999GF100991001001999999001001KA1999M-01891MD1710111+9999MW1401
0057010890999991955022500004+69717+029883FM-12+008899999V0202001N00101220001CN0005001N9-02611+99999101651ADDAY141999GF100991001001999999001001MD1710181+9999MW1461
0057010890999991955022503004+69717+029883FM-12+008899999V0202201N00101220001CN0005001N9-02611+99999101491ADDAY141999GF100991001001999999001001MD1710161+9999MW1461
0070010890999991955022506004+69717+029883FM-12+008899999V0202401N00261000151CN0003001N9-02501+99999101351ADDAY141999GF109991091999000251999999KA1999N-02721MD1710131+9999MW1471
0073010890999991955022509004+69717+029883FM-12+008899999V0202201N00261006001CN0050001N9-02281+99999101271ADDAY171999GA1051+006009079GF106991051061008001041001MD1710081+9999MW1401
0073010890999991955022512004+69717+029883FM-12+008899999V0202201N00101220001CN0500001N9-02221+99999101191ADDAY171999GA1031+006009089GF105991031021008001041001MD1710081+9999MW1701
0073010890999991955022515004+69717+029883FM-12+008899999V0202001N00101220001CN0500001N9-02111+99999101131ADDAY171999GA1031+006009089GF105991031021008001041001MD1710061+9999MW1401
0081010890999991955022518004+69717+029883FM-12+008899999V0202001N001019999999N0050001N9-02111+99999101091ADDAA199001091AY171999GF108991031021008001011999KA1999M-02111MD1710041+9999MW1701
0057010890999991955022600004+69717+029883FM-12+008899999V0202001N001019999999N0100001N9-01781+99999101051ADDAY171999GF108991031061008001021999MD1710021+9999MW1711
0057010890999991955022603004+69717+029883FM-12+008899999V0202001N001019999999N0500001N9-01781+99999101031ADDAY171999GF108991031061008001021999MD1710021+9999MW1021
0097010890999991955022606004+69717+029883FM-12+008899999V0202001N00101007501CN0600001N9-01721+99999101071ADDAA199000691AY121999GA1051+007509059GF107991041051008001071999KA1999N-02111MD1210041+9999MW1021
0057010890999991955022609004+69717+029883FM-12+008899999V0202001N00261220001CN0600001N9-01721+99999101141ADDAY101999GF100991001001999999001001MD1210071+9999MW1011
0057010890999991955022612004+69717+029883FM-12+008899999V0202001N00261220001CN0700001N9-01611+99999101161ADDAY101999GF100991001001999999001001MD1210021+9999MW1021
0073010890999991955022615004+69717+029883FM-12+008899999V0202001N00101220001CN0700001N9-01611+99999101161ADDAY101999GA1031+060009039GF103991031001022501041001MD1410001+9999MW1021
0070010890999991955022618004+69717+029883FM-12+008899999V0202001N00101220001CN0700001N9-01891+99999101181ADDAY101999GF100991001001999999001001KA1999M-01611MD1210021+9999MW1021
0057010890999991955022703004+69717+029883FM-12+008899999V0202001N00101220001CN0700001N9-02111+99999101191ADDAY101999GF100991001001999999001001MD1210011+9999MW1401
0070010890999991955022706004+69717+029883FM-12+008899999V0202001N00051220001CN0700001N9-02221+99999101231ADDAY101999GF102991021001022501041001KA1999N-02221MD1210041+9999MW1401
0057010890999991955022709004+69717+029883FM-12+008899999V0202001N00051220001CN0700001N9-01891+99999101231ADDAY101999GF101991011001008001041001MD1410001+9999MW1401
0057010890999991955022712004+69717+029883FM-12+008899999V0202001N00051220001CN0700001N9-01721+99999101241ADDAY101999GF100991001001999999001001MD1210011+9999MW1401
0057010890999991955022715004+69717+029883FM-12+008899999V0209991C00001220001CN0700001N9-01611+99999101271ADDAY101999GF100991001001999999001001MD1210031+9999MW1021
0070010890999991955022718004+69717+029883FM-12+008899999V0209991C00001220001CN0700001N9-01721+99999101251ADDAY101999GF100991001001999999001001KA1999M-01501MD1810021+9999MW1021
0057010890999991955022800004+69717+029883FM-12+008899999V0201601N00261007801CN0700001N9-01391+99999101361ADDAY121999GF105991051081008001999999MD1210051+9999MW1021
0057010890999991955022803004+69717+029883FM-12+008899999V0201801N00101220001CN0700001N9-01501+99999101511ADDAY101999GF102991001001999999001021MD1210151+9999MW1021
0070010890999991955022806004+69717+029883FM-12+008899999V0201801N00101220001CN0700001N9-01611+99999101661ADDAY111999GF102991001001999999001021KA1999N-01721MD1210151+9999MW1021
0057010890999991955022809004+69717+029883FM-12+008899999V0201801N00261220001CN0700001N9-01501+99999101881ADDAY101999GF102991001001999999001021MD1210221+9999MW1021
0076010890999991955022812004+69717+029883FM-12+008899999V0201801N00101220001CN0700001N9-01391+99999102001ADDAY101999GF101991999001999999041001MD1210121+9999MW1021EQDQ01+000002SCOTLC
0076010890999991955022815004+69717+029883FM-12+008899999V0201801N00101220001CN0700001N9-01501+99999102181ADDAY101999GF101991999001999999041001MD1210181+9999MW1021EQDQ01+000002SCOTLC
0089010890999991955022818004+69717+029883FM-12+008899999V0201801N00101220001CN0700001N9-01721+99999102301ADDAY101999GF101991999001999999041001KA1999M-01281MD1210121+9999MW1021EQDQ01+000002SCOTLC
0057010890999991955030100004+69717+029883FM-12+008899999V0202001N00261220001CN0700001N9-01781+99999102501ADDAY101999GF100991001001999999001001MD1210101+9999MW1021
0076010890999991955030103004+69717+029883FM-12+008899999V0202001N00261220001CN0700001N9-01891+99999102551ADDAY101999GF101991999001999999041001MD1210051+9999MW1021EQDQ01+000002SCOTLC
0105010890999991955030106004+69717+029883FM-12+008899999V0202001N00261001801CN0500001N9-01501+99999102551ADDAY121999GA1071+001809099GF107991071031001501999999KA1999N-02001MD1410001+9999MW1151EQDQ01+000032APCTEN
0092010890999991955030109004+69717+029883FM-12+008899999V0202001N00101220001CN0200001N9-01111+99999102551ADDAY121999GA1031+002409099GF108991081031001501999999MD1410001+9999MW1101EQDQ01+000032APCTEN
0073010890999991955030112004+69717+029883FM-12+008899999V0202001N00101004501CN0500001N9-01001+99999102511ADDAY121999GA1051+004509079GF106991051031004501041999MD1710041+9999MW1021
0089010890999991955030115004+69717+029883FM-12+008899999V0202001N00101220001CN0600001N9-00781+99999102461ADDAY121999GA1031+006009079GA2041+015009039GF107991031061004501041999MD1710051+9999MW1021
0070010890999991955030118004+69717+029883FM-12+008899999V0202001N000519999999N0600001N9-00891+99999102441ADDAY121999GF108991031061004501021999KA1999M-00781MD1710021+9999MW1021
0057010890999991955030200004+69717+029883FM-12+008899999V0202001N001019999999N0600001N9-00891+99999102331ADDAY121999GF108991031061004501041999MD1710041+9999MW1021
0057010890999991955030203004+69717+029883FM-12+008899999V0202001N001019999999N0600001N9-01001+99999102291ADDAY121999GF108991031061004501041999MD1710041+9999MW1021
0086010890999991955030206004+69717+029883FM-12+008899999V0202001N00261220001CN0700001N9-01281+99999102171ADDAY121999GA1021+060009039GF103991021001022501041021KA1999N-01281MD1710121+9999MW1021
0073010890999991955030209004+69717+029883FM-12+008899999V0202001N00261220001CN0700001N9-01221+99999102011ADDAY121999GA1031+060009039GF106991031001022501041021MD1710161+9999MW1021
0089010890999991955030212004+69717+029883FM-12+008899999V0202001N00101060001CN0700001N9-01001+99999101781ADDAY111999GA1031+012009059GA2051+060009049GF108991031051012501011999MD1710231+9999MW1021
0073010890999991955030215004+69717+029883FM-12+008899999V0202001N00461220001CN0700001N9-00891+99999101471ADDAY121999GA1031+012009059GF108991031051012501071999MD1710311+9999MW1021
0070010890999991955030218004+69717+029883FM-12+008899999V0202001N004619999999N0100001N9-00891+99999101381ADDAY121999GF108991031051008001021999KA1999M-00891MD1710101+9999MW1701
0057010890999991955030300004+69717+029883FM-12+008899999V0201801N00461012301CN0100001N9-01001+99999101331ADDAY171999GF108991081001012501021999MD1710021+9999MW1701
0057010890999991955030303004+69717+029883FM-12+008899999V0201801N00461012301CN0100001N9-01001+99999101341ADDAY171999GF108991081001012501021999MD1210011+9999MW1151
0097010890999991955030306004+69717+029883FM-12+008899999V0201801N00101012001CN0040001N9-01111+99999101461ADDAA199003091AY171999GA1081+012009049GF108991081001012501021999KA1999N-01111MD1210121+9999MW1701
0073010890999991955030309004+69717+029883FM-12+008899999V0201801N00261220001CN0300001N9-01001+99999101581ADDAY171999GA1031+006009089GF106991061081008001999999MD1210121+9999MW1151
0073010890999991955030312004+69717+029883FM-12+008899999V0202001N00261220001CN0700001N9-00891+99999101651ADDAY121999GA1031+006009059GF106991061081008001001001MD1210071+9999MW1021
0073010890999991955030315004+69717+029883FM-12+008899999V0202201N00261006001CN0700001N9-00781+99999101691ADDAY121999GA1051+006009059GF107991061081008001999999MD1210041+9999MW1021
0081010890999991955030318004+69717+029883FM-12+008899999V0202001N00261007801CN0700001N9-00781+99999101631ADDAA199000691AY121999GF107991061081008001999999KA1999M-00721MD1710061+9999MW1021
0057010890999991955030400004+69717+029883FM-12+008899999V0202001N00261012301CN0050001N9-00721+99999101581ADDAY171999GF108991081001012501021999MD1710051+9999MW1701
0057010890999991955030403004+69717+029883FM-12+008899999V0202001N00461012301CN0500001N9-00721+99999101531ADDAY171999GF108991081001012501021999MD1710051+9999MW1021
0116010890999991955030406004+69717+029883FM-12+008899999V0202001N00671009001CN0050001N9-00891+99999101531ADDAA199002091AY171999GA1081+009009049GF108991081001008001021999KA1999N-00891MD1410001+9999MW1711EQDQ01+000032APCTEN
0073010890999991955030409004+69717+029883FM-12+008899999V0202001N00461009001CN0050001N9-00891+99999101551ADDAY171999GA1081+009009049GF108991081001008001021999MD1210021+9999MW1711
0073010890999991955030412004+69717+029883FM-12+008899999V0202001N00261009001CN0200001N9-00781+99999101581ADDAY171999GA1081+009009049GF108991081001008001021999MD1210031+9999MW1701
0073010890999991955030415004+69717+029883FM-12+008899999V0201801N00261220001CN0500001N9-00721+99999101591ADDAY171999GA1031+006009099GF108991031091004501021999MD1210011+9999MW1151
0081010890999991955030418004+69717+029883FM-12+008899999V0201801N002619999999N0200001N9-00781+99999101671ADDAA199000591AY171999GF108991031091004501021999KA1999M-00721MD1210081+9999MW1701
0057010890999991955030500004+69717+029883FM-12+008899999V0201801N00261004501CN0500001N9-00721+99999102011ADDAY181999GF107991051091004501999999MD1210101+9999MW1021
0057010890999991955030503004+69717+029883FM-12+008899999V0202001N001019999999N0500001N9-00781+99999102121ADDAY121999GF106991041091004501999999MD1210111+9999MW1021
0113010890999991955030506004+69717+029883FM-12+008899999V0201801N00261009001CN0500001N9-01001+99999102231ADDAA199001091AY181999GA1041+005409099GA2081+009009049GF108991041091004501021999KA1999N-01001MD1210111+9999MW1151
0089010890999991955030509004+69717+029883FM-12+008899999V0202001N00461009001CN0045001N9-00891+99999102351ADDAY121999GA1031+005409099GA2081+009009049GF108991031091004501021999MD1210121+9999MW1701
0073010890999991955030512004+69717+029883FM-12+008899999V0202001N00461009001CN0050001N9-00781+99999102351ADDAY171999GA1081+009009049GF108991081001008001021999MD1410001+9999MW1711
0073010890999991955030515004+69717+029883FM-12+008899999V0202001N00261220001CN0050001N9-00781+99999102381ADDAY121999GA1031+006009089GF107991071081008001999999MD1210031+9999MW1151
0100010890999991955030518004+69717+029883FM-12+008899999V0202401N00461007801CN0050001N9-00781+99999102381ADDAA199000591AY171999GF108991081081008001999999KA1999M-00721MD1410001+9999MW1151EQDQ01+000022APCTEN
0057010890999991955030603004+69717+029883FM-12+008899999V0202401N00671007801CN0700001N9-00891+99999101961ADDAY121999GF107991071081008001999999MD1710101+9999MW1021
0070010890999991955030606004+69717+029883FM-12+008899999V0202201N00461007801CN0700001N9-00891+99999101601ADDAY121999GF107991071081008001999999KA1999N-01001MD1710351+9999MW1021
0057010890999991955030609004+69717+029883FM-12+008899999V0201801N00261007801CN0700001N9-00781+99999101141ADDAY121999GF108991081081008001999999MD1710461+9999MW1151
0057010890999991955030612004+69717+029883FM-12+008899999V0201801N00931007801CN0040001N9-00721+99999100641ADDAY131999GF108991081081008001999999MD1710501+9999MW1711
0057010890999991955030615004+69717+029883FM-12+008899999V0201601N00461007801CN0700001N9-00721+99999100411ADDAY171999GF108991081081008001999999MD1710231+9999MW1151
0081010890999991955030618004+69717+029883FM-12+008899999V0201801N00461007801CN0700001N9-00721+99999100211ADDAA199000691AY121999GF108991081081008001999999KA1999M-00721MD1710201+9999MW1151
0057010890999991955030700004+69717+029883FM-12+008899999V0201801N00461007801CN0700001N9-00891+99999100251ADDAY121999GF108991081081008001999999MD1210021+9999MW1021
0057010890999991955030703004+69717+029883FM-12+008899999V0202001N00261007801CN0700001N9-00891+99999100401ADDAY121999GF108991081081008001999999MD1210151+9999MW1021
0086010890999991955030706004+69717+029883FM-12+008899999V0201801N00261220001CN0700001N9-01111+99999100621ADDAY121999GA1031+010509059GF106991031081008001041999KA1999N-01111MD1210121+9999MW1021
0057010890999991955030709004+69717+029883FM-12+008899999V0201401N00261220001CN0700001N9-01221+99999100871ADDAY101999GF102991021001022501041071MD1210251+9999MW1011
0057010890999991955030712004+69717+029883FM-12+008899999V0201201N00261220001CN0700001N9-01221+99999101091ADDAY101999GF101991011001022501041001MD1210221+9999MW1011
0057010890999991955030715004+69717+029883FM-12+008899999V0201201N00261220001CN0700001N9-01281+99999101351ADDAY101999GF102991021001022501041001MD1210261+9999MW1021
0070010890999991955030718004+69717+029883FM-12+008899999V0201201N00261220001CN0700001N9-01611+99999101551ADDAY101999GF100991001001999999001001KA1999M-01001MD1210201+9999MW1021
0057010890999991955030800004+69717+029883FM-12+008899999V0201201N00101220001CN0700001N9-01781+99999102001ADDAY101999GF100991001001999999001001MD1210181+9999MW1021
0057010890999991955030803004+69717+029883FM-12+008899999V0201201N00101220001CN0700001N9-01891+99999102161ADDAY101999GF100991001001999999001001MD1210161+9999MW1021
0070010890999991955030806004+69717+029883FM-12+008899999V0201601N00101220001CN0700001N9-01721+99999102321ADDAY101999GF100991001001999999001001KA1999N-01891MD1210161+9999MW1021
0057010890999991955030809004+69717+029883FM-12+008899999V0201601N00261220001CN0700001N9-01501+99999102481ADDAY101999GF100991001001999999001001MD1210161+9999MW1021
0057010890999991955030812004+69717+029883FM-12+008899999V0201601N00261220001CN0700001N9-01281+99999102531ADDAY101999GF100991001001999999001001MD1210051+9999MW1021
0057010890999991955030815004+69717+029883FM-12+008899999V0201401N00261220001CN0700001N9-01391+99999102611ADDAY101999GF100991001001999999001001MD1210081+9999MW1021
0070010890999991955030818004+69717+029883FM-12+008899999V0201401N00261220001CN0700001N9-01611+99999102641ADDAY101999GF100991001001999999001001KA1999M-01281MD1210031+9999MW1021
0057010890999991955030900004+69717+029883FM-12+008899999V0201401N00461220001CN0700001N9-01721+99999102581ADDAY101999GF100991001001999999001001MD1710071+9999MW1021
0057010890999991955030903004+69717+029883FM-12+008899999V0201401N00101220001CN0700001N9-01781+99999102501ADDAY101999GF100991001001999999001001MD1710081+9999MW1021
0070010890999991955030906004+69717+029883FM-12+008899999V0201801N00101220001CN0700001N9-02111+99999102441ADDAY101999GF100991001001999999001001KA1999N-02221MD1710061+9999MW1021
0057010890999991955030909004+69717+029883FM-12+008899999V0209991C00001220001CN0700001N9-01611+99999102341ADDAY101999GF100991001001999999001001MD1710101+9999MW1021
0057010890999991955030912004+69717+029883FM-12+008899999V0209991C00001220001CN0700001N9-01501+99999102201ADDAY101999GF100991001001999999001001MD1710141+9999MW1021
0057010890999991955030915004+69717+029883FM-12+008899999V0201801N00101220001CN0700001N9-01611+99999102101ADDAY101999GF100991001001999999001001MD1710101+9999MW1021
0070010890999991955030918004+69717+029883FM-12+008899999V0201801N00101220001CN0700001N9-01891+99999102041ADDAY101999GF100991001001999999001001KA1999M-01391MD1710061+9999MW1021
0057010890999991955031000004+69717+029883FM-12+008899999V0201801N00101220001CN0700001N9-02281+99999102051ADDAY101999GF100991001001999999001001MD1210021+9999MW1021
0057010890999991955031003004+69717+029883FM-12+008899999V0202001N00101220001CN0700001N9-02391+99999102111ADDAY101999GF100991001001999999001001MD1210061+9999MW1021
0070010890999991955031006004+69717+029883FM-12+008899999V0201801N00101220001CN0700001N9-02721+99999102241ADDAY101999GF100991001001999999001001KA1999N-02721MD1210131+9999MW1401
0057010890999991955031009004+69717+029883FM-12+008899999V0201801N00101220001CN0700001N9-02391+99999102411ADDAY101999GF100991001001999999001001MD1210171+9999MW1401
0057010890999991955031012004+69717+029883FM-12+008899999V0201801N00101220001CN0700001N9-02111+99999102531ADDAY101999GF100991001001999999001001MD1210121+9999MW1401
0057010890999991955031015004+69717+029883FM-12+008899999V0201801N00101220001CN0700001N9-01891+99999102571ADDAY101999GF100991001001999999001001MD1210041+9999MW1401
0070010890999991955031018004+69717+029883FM-12+008899999V0201801N00101220001CN0700001N9-02281+99999102691ADDAY101999GF100991001001999999001001KA1999M-01781MD1210121+9999MW1401
0057010890999991955031100004+69717+029883FM-12+008899999V0201801N00101220001CN0700001N9-02391+99999102681ADDAY101999GF100991001001999999001001MD1810021+9999MW1401
0057010890999991955031103004+69717+029883FM-12+008899999V0201801N00101220001CN0700001N9-02391+99999102561ADDAY101999GF100991001001999999001001MD1810121+9999MW1401
0070010890999991955031106004+69717+029883FM-12+008899999V0202301N00461220001CN0700001N9-02111+99999102241ADDAY101999GF100991001001999999001001KA1999N-02501MD1810321+9999MW1401
0073010890999991955031109004+69717+029883FM-12+008899999V0202301N00461030001CN0700001N9-01721+99999101841ADDAY121999GA1081+030009029GF108991081001022501011999MD1810401+9999MW1031
0073010890999991955031112004+69717+029883FM-12+008899999V0201601N00931007501CN0020001N9-01281+99999101091ADDAY131999GA1081+007509049GF108991081001004501021999MD1810751+9999MW1731
0073010890999991955031115004+69717+029883FM-12+008899999V0201801N00931007501CN0020001N9-01111+99999100601ADDAY171999GA1081+007509049GF108991081001002501021999MD1710491+9999MW1711
0081010890999991955031118004+69717+029883FM-12+008899999V0201801N00461004501CN0300001N9-00891+99999100271ADDAA199003091AY171999GF108991081001004501021999KA1999M-00891MD1710331+9999MW1151
0057010890999991955031200004+69717+029883FM-12+008899999V0201801N00261007801CN0700001N9-00891+99999099841ADDAY121999GF108991081081008001999999MD1710081+9999MW1021
0057010890999991955031203004+69717+029883FM-12+008899999V0202001N00361007801CN0700001N9-00611+99999099821ADDAY121999GF108991081081008001999999MD1710021+9999MW1021
0097010890999991955031206004+69717+029883FM-12+008899999V0202501N00671220001CN0700001N9-00281+99999100011ADDAA199002091AY121999GA1031+006009089GF106991041081008001041001KA1999N-01001MD1210191+9999MW1021
0073010890999991955031209004+69717+029883FM-12+008899999V0202601N00671220001CN0700001N9-00111+99999100281ADDAY121999GA1031+006009089GF106991041081008001041021MD1210271+9999MW1021
0057010890999991955031212004+69717+029883FM-12+008899999V0202801N00671220001CN0700001N9-00111+99999100571ADDAY121999GF103991011081008001041021MD1210301+9999MW1021
0057010890999991955031215004+69717+029883FM-12+008899999V0202801N00671220001CN0700001N9-00221+99999100741ADDAY101999GF101991011081008001041001MD1210231+9999MW1011
0070010890999991955031218004+69717+029883FM-12+008899999V0203001N00671220001CN0700001N9-00501+99999100771ADDAY101999GF102991011081008001041001KA1999M-00111MD1210031+9999MW1021
0057010890999991955031303004+69717+029883FM-12+008899999V0209991C00001015001CN0700001N9-00391+99999100401ADDAY121999GF107991071001017501041999MD1710151+9999MW1021
0070010890999991955031306004+69717+029883FM-12+008899999V0209991C000019999999N0700001N9-01001+99999100211ADDAY121999GF107991031001017501041021KA1999N-01111MD1710191+9999MW1021
0057010890999991955031309004+69717+029883FM-12+008899999V0209991C000019999999N0700001N9-00721+99999100011ADDAY121999GF107991031001017501041021MD1710201+9999MW1021
0057010890999991955031312004+69717+029883FM-12+008899999V0209991C000019999999N0700001N9-00611+99999099821ADDAY121999GF107991031001017501041021MD1710191+9999MW1021
0057010890999991955031315004+69717+029883FM-12+008899999V0209991C00001015001CN0700001N9-00391+99999099571ADDAY111999GF108991081001017501011999MD1710251+9999MW1031
0070010890999991955031318004+69717+029883FM-12+008899999V0209991C00001012301CN0700001N9-00281+99999099431ADDAY121999GF108991081001012501021999KA1999M-00281MD1710141+9999MW1021
0057010890999991955031400004+69717+029883FM-12+008899999V0209991C000019999999N0040001N9-00501+99999099211ADDAY181999GF108991041091004501021999MD1710051+9999MW1851
0057010890999991955031403004+69717+029883FM-12+008899999V0209991C00001004501CN0600001N9-00501+99999099201ADDAY181999GF108991061091004501999999MD1710011+9999MW1021
0113010890999991955031406004+69717+029883FM-12+008899999V0200901N00261010501CN0050001N9-00501+99999099211ADDAA199001091AY181999GA1041+006009099GA2081+010509049GF108991041091004501021999KA1999N-00501MD1210011+9999MW1851
0073010890999991955031409004+69717+029883FM-12+008899999V0200901N00461007501CN0200001N9-00501+99999099361ADDAY171999GA1081+007509049GF108991081001008001021999MD1210151+9999MW1711
0089010890999991955031412004+69717+029883FM-12+008899999V0200901N00261010501CN0600001N9-00611+99999099461ADDAY121999GA1031+007509059GA2081+010509049GF108991031051008001021999MD1210101+9999MW1021
0073010890999991955031415004+69717+029883FM-12+008899999V0200901N00261220001CN0500001N9-00721+99999099521ADDAY121999GA1031+007509059GF107991051081008001041999MD1210061+9999MW1021
0081010890999991955031418004+69717+029883FM-12+008899999V0201201N00261007801CN0500001N9-00781+99999099571ADDAA199000691AY121999GF108991081081008001999999KA1999M-00391MD1210051+9999MW1021
0076010890999991955031500004+69717+029883FM-12+008899999V0200301N00461002401CN0010001N9-00781+99999100372ADDAY181999GF108991081091002501999999MD1210021+9999MW1861EQDQ01+100373APOSLP
0057010890999991955031503004+69717+029883FM-12+008899999V0200301N00931002401CN0010001N9-00501+99999100361ADDAY181999GF108991081091002501999999MD1810011+9999MW1561
0116010890999991955031506004+69717+029883FM-12+008899999V0201201N00261003001CN0600001N9-00781+99999100341ADDAA199001091AY181999GA1081+003009099GF199999071091002501999999KA1999N-00781MD1710021+9999MW1151EQDQ01+000072SCOTCV
0073010890999991955031509004+69717+029883FM-12+008899999V0200501N00771003001CN0300001N9-00611+99999100291ADDAY181999GA1081+003009099GF108991081091002501999999MD1710051+9999MW1861
0073010890999991955031512004+69717+029883FM-12+008899999V0200501N00671003601CN0600001N9-00501+99999100301ADDAY181999GA1061+003609099GF106991061091002501001021MD1210011+9999MW1151
0108010890999991955031515004+69717+029883FM-12+008899999V0200501N00461004501CN0600001N9-00611+99999100271ADDAY181999GA1051+004509099GA2081+009009049GF199999051091004501001021MD1710031+9999MW1151EQDQ01+000062SCOTCV
0081010890999991955031518004+69717+029883FM-12+008899999V0200501N00461004501CN0030001N9-00501+99999100291ADDAA199001091AY181999GF108991081091004501999999KA1999M-00501MD1210021+9999MW1861
0076010890999991955031600004+69717+029883FM-12+008899999V0201201N00261220001CN0700001N9-01111+99999099721ADDAY101999GF102991999001999999041001MD1210101+9999MW1021EQDQ01+000002SCOTLC
0057010890999991955031603004+69717+029883FM-12+008899999V0201201N00261220001CN0700001N9-01221+99999099781ADDAY101999GF102991011061004501041001MD1210061+9999MW1021
0070010890999991955031606004+69717+029883FM-12+008899999V0201201N00101220001CN0500001N9-01001+99999099911ADDAY101999GF101991011061004501001001KA1999N-01391MD1210131+9999MW1101
0073010890999991955031609004+69717+029883FM-12+008899999V0201201N00261004501CN0045001N9-00611+99999100041ADDAY181999GA1071+004509099GF107991071091002501999999MD1210131+9999MW1851
0073010890999991955031612004+69717+029883FM-12+008899999V0201201N00461002101CN0050001N9-00721+99999100151ADDAY181999GA1081+002109099GF108991081091001501999999MD1210111+9999MW1851
0073010890999991955031615004+69717+029883FM-12+008899999V0200301N00931003001CN0030001N9-00721+99999100271ADDAY181999GA1061+003009099GF106991061091002501001001MD1210121+9999MW1861
0081010890999991955031618004+69717+029883FM-12+008899999V0200301N00771002401CN0010001N9-00781+99999100341ADDAA199003091AY181999GF108991081091002501999999KA1999M-00611MD1210071+9999MW1861
0057010890999991955031700004+69717+029883FM-12+008899999V0201801N00261007801CN0500001N9-01001+99999099551ADDAY121999GF108991081081008001999999MD1710021+9999MW1021
0057010890999991955031703004+69717+029883FM-12+008899999V0201801N00101007801CN0300001N9-01001+99999099531ADDAY121999GF108991081081008001999999MD1710021+9999MW1151
0086010890999991955031706004+69717+029883FM-12+008899999V0209991C00001220001CN0700001N9-01111+99999099461ADDAY111999GA1011+006009089GF102991011021008001041001KA1999N-01111MD1710071+9999MW1021
0057010890999991955031709004+69717+029883FM-12+008899999V0201801N00101220001CN0700001N9-00891+99999099411ADDAY111999GF104991001001999999041021MD1710051+9999MW1021
0076010890999991955031712004+69717+029883FM-12+008899999V0201201N00101220001CN0700001N9-00781+99999099361ADDAY101999GF101991999001999999041001MD1710051+9999MW1021EQDQ01+000002SCOTLC
0076010890999991955031715004+69717+029883FM-12+008899999V0201201N00101220001CN0700001N9-00891+99999099391ADDAY101999GF101991999001999999041001MD1310031+9999MW1021EQDQ01+000002SCOTLC
0089010890999991955031718004+69717+029883FM-12+008899999V0200201N00101220001CN0700001N9-01221+99999099561ADDAY101999GF102991999001999999041001KA1999M-00721MD1210171+9999MW1021EQDQ01+000002SCOTLC
0078010890999991955031800004+69717+029883FM-12+008899999V0200501N00671004501CN0010001N9-00391+99999100281ADDAY181999GF108991081091004501999999MW1861EQDQ01+000022APCTENQ02+000002APC3  
0076010890999991955031803004+69717+029883FM-12+008899999V0200501N00461004501CN0600001N9-00391+99999100281ADDAY181999GF108991081091004501999999MD1410001+9999MW1151EQDQ01+000022APCTEN
0097010890999991955031806004+69717+029883FM-12+008899999V0200701N00461004501CN0030001N9-00391+99999100291ADDAA199003091AY181999GA1081+004509099GF108991081091004501999999KA1999N-00611MD1210011+9999MW1851
0073010890999991955031809004+69717+029883FM-12+008899999V0200501N00461004501CN0020001N9-00281+99999100331ADDAY181999GA1081+004509099GF108991081091004501999999MD1210041+9999MW1851
0073010890999991955031812004+69717+029883FM-12+008899999V0200501N00261004501CN0040001N9-00281+99999100361ADDAY181999GA1071+004509099GF107991071091004501999999MD1210031+9999MW1851
0073010890999991955031815004+69717+029883FM-12+008899999V0200501N00671004501CN0010001N9-00391+99999100391ADDAY181999GA1081+004509099GF108991081091004501999999MD1210031+9999MW1861
0100010890999991955031818004+69717+029883FM-12+008899999V0200501N00461004501CN0040001N9-00721+99999100391ADDAA199003091AY181999GF108991081091004501999999KA1999M-00281MD1410001+9999MW1851EQDQ01+000022APCTEN
0057010890999991955031900004+69717+029883FM-12+008899999V0209991C00001001501CN0005001N9-01221+99999100431ADDAY141999GF108991081061001501999999MD1210021+9999MW1491
0076010890999991955031903004+69717+029883FM-12+008899999V0209991C00001004501CN0050001N9-01281+99999100431ADDAY141999GF106991061061004501001001MD1410001+9999MW1481EQDQ01+000022APCTEN
0097010890999991955031906004+69717+029883FM-12+008899999V0202001N00101004501CN0100001N9-01281+99999100481ADDAA199000691AY141999GA1081+004509079GF108991081061004501999999KA1999N-01281MD1210051+9999MW1481
0092010890999991955031909004+69717+029883FM-12+008899999V0201401N00101001501CN0060001N9-01111+99999100491ADDAY141999GA1081+001509079GF108991081061001501999999MD1210011+9999MW1481EQDQ01+000492PRSWM1
0073010890999991955031912004+69717+029883FM-12+008899999V0209991C00001002701CN0150001N9-00891+99999100551ADDAY181999GA1071+002709079GF107991071061001501999999MD1210061+9999MW1481
0073010890999991955031915004+69717+029883FM-12+008899999V0209991C00001002701CN0100001N9-01001+99999100581ADDAY121999GA1061+002709079GF106991061061001501001001MD1210031+9999MW1101
0081010890999991955031918004+69717+029883FM-12+008899999V0209991C00001001501CN0100001N9-01221+99999100621ADDAA199000691AY121999GF108991081061001501999999KA1999M-00781MD1210041+9999MW1101
0057010890999991955032003004+69717+029883FM-12+008899999V0209991C00001001501CN0100001N9-01391+99999100921ADDAY121999GF108991081061001501999999MD1210081+9999MW1101
0081010890999991955032006004+69717+029883FM-12+008899999V0209991C00001002401CN9999999N9-01281+99999101071ADDAA199000691AY121999GF108991081091002501999999KA1999N-01391MD1210151+9999MW1701
0057010890999991955032009004+69717+029883FM-12+008899999V0209991C00001002401CN0100001N9-01111+99999101161ADDAY171999GF107991071061002501999999MD1210091+9999MW1101
0057010890999991955032012004+69717+029883FM-12+008899999V0209991C000019999999N0450001N9-00891+99999101311ADDAY121999GF105991031061004501041001MD1210151+9999MW1101
0057010890999991955032015004+69717+029883FM-12+008899999V0209991C00001004501CN0600001N9-00891+99999101371ADDAY121999GF106991061051004501001001MD1210061+9999MW1021
0081010890999991955032018004+69717+029883FM-12+008899999V0209991C00001004501CN0600001N9-01221+99999101391ADDAA199000691AY121999GF105991051051004501001001KA1999M-00721MD1210021+9999MW1021
0057010890999991955032100004+69717+029883FM-12+008899999V0209991C00001007801CN0700001N9-01221+99999101291ADDAY111999GF105991051081008001001001MD1710051+9999MW1021
0057010890999991955032103004+69717+029883FM-12+008899999V0209991C00001007801CN0100001N9-01001+99999100941ADDAY121999GF108991081081008001999999MD1710351+9999MW1751
0097010890999991955032106004+69717+029883FM-12+008899999V0200501N00671004501CN0025001N9-00611+99999100521ADDAA199001091AY131999GA1061+004509089GF108991081081004501999999KA1999N-01501MD1710421+9999MW1721
0073010890999991955032109004+69717+029883FM-12+008899999V0200701N00671004501CN0020001N9-00111+99999100011ADDAY171999GA1061+004509089GF108991081081004501999999MD1710511+9999MW1721
0073010890999991955032112004+69717+029883FM-12+008899999V0201601N00261005401CN0600001N9-00111+99999099981ADDAY171999GA1061+005409089GF106991061081004501001001MD1710031+9999MW1021
0073010890999991955032115004+69717+029883FM-12+008899999V0209991C00001220001CN0700001N9-00281+99999100051ADDAY101999GA1041+006009089GF104991041081004501041001MD1210071+9999MW1021
0081010890999991955032118004+69717+029883FM-12+008899999V0201201N00261004501CN0700001N9-00611+99999100081ADDAA199000591AY121999GF107991051081004501041999KA1999M+00001MD1210031+9999MW1021
0057010890999991955032200004+69717+029883FM-12+008899999V0209991C00001220001CN0600001N9-01001+99999100221ADDAY121999GF104991031081004501041001MD1210101+9999MW1021
0057010890999991955032203004+69717+029883FM-12+008899999V0209991C000019999999N0500001N9-01111+99999100301ADDAY121999GF108991031081004501011999MD1210081+9999MW1031
0086010890999991955032206004+69717+029883FM-12+008899999V0201601N00101220001CN0600001N9-00781+99999100501ADDAY121999GA1021+006009089GF107991021081004501011999KA1999N-01111MD1210201+9999MW1011
0073010890999991955032209004+69717+029883FM-12+008899999V0201401N00461220001CN0600001N9-00721+99999100641ADDAY171999GA1031+006009089GF107991031081004501071999MD1210141+9999MW1011
0057010890999991955032212004+69717+029883FM-12+008899999V0201601N00671220001CN0700001N9-00611+99999100761ADDAY101999GF102991011081004501041001MD1210121+9999MW1011
0073010890999991955032215004+69717+029883FM-12+008899999V0201601N00461220001CN0700001N9-00501+99999100881ADDAY101999GA1021+003009039GF103991021001022501041021MD1210121+9999MW1021
0081010890999991955032218004+69717+029883FM-12+008899999V0201601N00101021001CN0700001N9-00721+99999101111ADDAA199000691AY121999GF106991051001022501041021KA1999M-00501MD1210231+9999MW1031
0057010890999991955032300004+69717+029883FM-12+008899999V0209991C00001220001CN0600001N9-00891+99999101321ADDAY121999GF104991041001022501041999MD1710041+9999MW1021
0076010890999991955032303004+69717+029883FM-12+008899999V0209991C00001220001CN0600001N9-00891+99999101401ADDAY121999GF104991041001022501041001MD1210081+9999MW1021EQDQ01+000002APC3  
0070010890999991955032306004+69717+029883FM-12+008899999V0201801N002619999999N0600001N9-01281+99999101371ADDAY121999GF107991021001022501041021KA1999N-01501MD1810031+9999MW1401
0076010890999991955032309004+69717+029883FM-12+008899999V0201801N00261024001CN0700001N9-01111+99999101251ADDAY101999GF106991001001999999001071MD1710121+9999MW1021EQDQ01+000062SCOTLC
0076010890999991955032312004+69717+029883FM-12+008899999V0209991C00001024001CN0700001N9-00721+99999101151ADDAY101999GF106991001001999999001071MD1710101+9999MW1021EQDQ01+000062SCOTLC
0073010890999991955032315004+69717+029883FM-12+008899999V0202501N00261220001CN0700001N9-00721+99999101081ADDAY111999GA1031+012009059GF105991041081012501001021MD1710121+9999MW1021
0070010890999991955032318004+69717+029883FM-12+008899999V0201901N00101220001CN0700001N9-01221+99999101021ADDAY101999GF101991001001999999041021KA1999M-00721MD1710061+9999MW1021
0057010890999991955032400004+69717+029883FM-12+008899999V0209991C00001007801CN0600001N9-01501+99999101031ADDAY121999GF105991051081008001001001MD1710051+9999MW1101
0076010890999991955032403004+69717+029883FM-12+008899999V0209991C00001007801CN0600001N9-01501+99999101031ADDAY121999GF105991051081008001001001MD1410001+9999MW1401EQDQ01+000022APCTEN
0070010890999991955032406004+69717+029883FM-12+008899999V0209991C00001220001CN0600001N9-02001+99999101061ADDAY101999GF100991001001999999001001KA1999N-02001MD1210031+9999MW1401
0057010890999991955032409004+69717+029883FM-12+008899999V0209991C00001220001CN0600001N9-01501+99999101151ADDAY101999GF100991001001999999001001MD1210101+9999MW1401
0073010890999991955032412004+69717+029883FM-12+008899999V0209991C00001220001CN0700001N9-01001+99999101191ADDAY101999GA1031+010509089GF103991031011012501001001MD1210041+9999MW1021
0076010890999991955032415004+69717+029883FM-12+008899999V0209991C00001220001CN0700001N9-00891+99999101221ADDAY101999GF101991999001999999041001MD1210031+9999MW1011EQDQ01+000002SCOTLC
0070010890999991955032418004+69717+029883FM-12+008899999V0209991C000019999999N0500001N9-01221+99999101261ADDAY121999GF105991031051008001041001KA1999M-00891MD1210041+9999MW1101
