0057010890999991954010100004+69717+029883FM-12+008899999V0202001N00101220001CN0600001N9-00721+99999100021ADDAY101999GF101991011021008001001001MD1010021+9999MW1021
0057010890999991954010103004+69717+029883FM-12+008899999V0202001N00461220001CN0400001N9-00501+99999099911ADDAY101999GF102991021021008001001001MD1710111+9999MW1021
0076010890999991954010106004+69717+029883FM-12+008899999V0202001N00461220001CN0400001N9-00501+99999099901ADDAY101999GF102991021051008001001001IA1319KA1999N-00721MD1710011+9999MW1021
0057010890999991954010109004+69717+029883FM-12+008899999V0202001N00261220001CN0600001N9-00611+99999099851ADDAY101999GF104991011021008001041021MD1710051+9999MW1031
0057010890999991954010112004+69717+029883FM-12+008899999V0202001N001019999999N0600001N9-00781+99999099651ADDAY121999GF107991011021008001041071MD1710201+9999MW1031
0057010890999991954010115004+69717+029883FM-12+008899999V0209991C000019999999N0600001N9-00611+99999099411ADDAY121999GF108991021061004501021999MD1710241+9999MW1031
0076010890999991954010118004+69717+029883FM-12+008899999V0209991C000019999999N0600001N9-00501+99999099311ADDAY121999GF107991031061004501031999IA1319KA1999M-00501MD1710101+9999MW1011
0057010890999991954010200004+69717+029883FM-12+008899999V0201801N00101220001CN0400001N9-00891+99999099231ADDAY121999GF104991041051008001999999MD1810041+9999MW1021
0057010890999991954010203004+69717+029883FM-12+008899999V0209991C000019999999N0400001N9-00781+99999099221ADDAY121999GF107991041051008001999999MD1810011+9999MW1021
0103010890999991954010206004+69717+029883FM-12+008899999V0209991C00001006001CN0400001N9-00611+99999099251ADDAA199000391AY181999GA1051+006009099GF108991051091004501999999IA1319KA1999N-01111MD1210031+9999MW1021
0073010890999991954010209004+69717+029883FM-12+008899999V0209991C00001007501CN0060001N9-00611+99999099271ADDAY171999GA1081+007509049GF108991081001008001021999MD1210021+9999MW1711
0092010890999991954010212004+69717+029883FM-12+008899999V0209991C00001220001CN0400001N9-00281+99999099271ADDAY171999GA1041+006009099GF108991041091004501071999MD1410001+9999MW1151EQDQ01+000032APCTEN
0073010890999991954010215004+69717+029883FM-12+008899999V0209991C00001004501CN0400001N9-00281+99999099311ADDAY181999GA1051+004509099GF105991051091004501001001MD1210041+9999MW1021
0087010890999991954010218004+69717+029883FM-12+008899999V0200301N00931220001CN0400001N9+00001+99999099711ADDAA199006091AY131999GF104991041091004501001001IA1319KA1999M+00001MD1210401+9999MW1151
0076010890999991954010303004+69717+029883FM-12+008899999V0200301N01231220001CN0400001N9+00001+99999101471ADDAY131999GF104991031091004501041999MD1210852+9999MW1021EQDQ01+000852APC3  
0076010890999991954010306004+69717+029883FM-12+008899999V0200301N00931007801CN0400001N9-00391+99999101701ADDAY121999GF105991051091008001001001IA1319KA1999N-00391MD1210231+9999MW1021
0057010890999991954010309004+69717+029883FM-12+008899999V0200301N00671007801CN0600001N9-00391+99999102071ADDAY121999GF105991051091008001001001MD1310231+9999MW1021
0057010890999991954010312004+69717+029883FM-12+008899999V0209991C00001004501CN0040001N9-00721+99999102371ADDAY181999GF106991061091004501999999MD1310301+9999MW1861
0057010890999991954010315004+69717+029883FM-12+008899999V0209991C00001004501CN0160001N9-00721+99999102571ADDAY181999GF105991051091004501999999MD1210201+9999MW1151
0087010890999991954010318004+69717+029883FM-12+008899999V0202801N00261004501CN0016001N9-00721+99999102731ADDAA199005091AY181999GF108991081091004501999999IA1319KA1999M-00221MD1210161+9999MW1861
0057010890999991954010400004+69717+029883FM-12+008899999V0202001N002619999999N0400001N9-01221+99999102741ADDAY181999GF106991031091004501041999MD1710051+9999MW1021
0057010890999991954010403004+69717+029883FM-12+008899999V0201801N00261004501CN0160001N9-01391+99999102501ADDAY121999GF108991081061004501999999MD1710241+9999MW1101
0103010890999991954010406004+69717+029883FM-12+008899999V0201901N00461005401CN0160001N9-01281+99999101951ADDAA199001091AY121999GA1081+005409079GF108991081061004501999999IA1319KA1999N-01391MD1810501+9999MW1101
0073010890999991954010409004+69717+029883FM-12+008899999V0202401N00671003601CN0040001N9-01001+99999101141ADDAY181999GA1081+003609079GF108991081061004501999999MD1810811+9999MW1861
0073010890999991954010412004+69717+029883FM-12+008899999V0202401N00931001501CN0004001N9-00781+99999100151ADDAY181999GA1081+001509079GF108991081061004501999999MD1810991+9999MW1861
0073010890999991954010415004+69717+029883FM-12+008899999V0202401N00771004501CN0080001N9-00721+99999099781ADDAY181999GA1081+004509099GF108991081091004501999999MD1810371+9999MW1851
0106010890999991954010418004+69717+029883FM-12+008899999V0202401N01031004501CN0040001N9-00501+99999099561ADDAA199002091AY181999GF108991081091004501999999IA1319KA1999M+99999MD1810221+9999MW1861EQDQ01 -01282ATMX  
0057010890999991954010500004+69717+029883FM-12+008899999V0202401N00931004501CN0400001N9-00611+99999099571ADDAY181999GF105991051091004501999999MD1210051+9999MW1021
0076010890999991954010503004+69717+029883FM-12+008899999V0203001N00151004501CN0400001N9-00781+99999099571ADDAY121999GF105991051091004501999999MD1410001+9999MW1021EQDQ01+000032APCTEN
0103010890999991954010506004+69717+029883FM-12+008899999V0202801N00671005401CN0400001N9-00281+99999099481ADDAA199000691AY121999GA1081+005409099GF108991081091004501999999IA1319KA1999N-00781MD1710091+9999MW1021
0073010890999991954010509004+69717+029883FM-12+008899999V0202001N00461006001CN0400001N9-00221+99999099211ADDAY121999GA1051+006009099GF108991051091004501071999MD1810271+9999MW1021
0073010890999991954010512004+69717+029883FM-12+008899999V0202001N00461220001CN0400001N9+00281+99999098871ADDAY121999GA1041+009009059GF108991041051008001071999MD1810341+9999MW1021
0073010890999991954010515004+69717+029883FM-12+008899999V0202201N00101220001CN0400001N9-00221+99999098541ADDAY121999GA1041+006009059GF108991041051008001071999MD1810331+9999MW1021
0076010890999991954010518004+69717+029883FM-12+008899999V0202201N004619999999N0400001N9+00221+99999098241ADDAY111999GF105991031051008001041999IA1319KA1999M+00221MD1810301+9999MW1021
0057010890999991954010600004+69717+029883FM-12+008899999V0202401N00461004501CN0400001N9+00391+99999098011ADDAY121999GF105991051091004501001001MD1810101+9999MW1021
0057010890999991954010603004+69717+029883FM-12+008899999V0202401N01231004501CN0400001N9+00391+99999097821ADDAY121999GF106991061091004501001001MD1810201+9999MW1021
0103010890999991954010606004+69717+029883FM-12+008899999V0202401N00671220001CN0400001N9-00111+99999098051ADDAA199000691AY181999GA1041+004509099GF105991051091004501001001IA1209KA1999N-00111MD1210231+9999MW1021
0092010890999991954010609004+69717+029883FM-12+008899999V0202701N01541220001CN0400001N9-00111+99999098051ADDAY101999GF102991999001999999041001MD1410001+9999MW1021EQDQ01+000002SCOTLCQ02+000022APCTEN
0073010890999991954010612004+69717+029883FM-12+008899999V0202701N00931220001CN0700001N9-00221+99999098461ADDAY101999GA1011+006009089GF101991011021008001041001MD1210401+9999MW1021
0073010890999991954010615004+69717+029883FM-12+008899999V0202701N00931220001CN0600001N9-00281+99999098521ADDAY101999GA1011+006009089GF102991011021008001041001MD1210061+9999MW1021
0111010890999991954010618004+69717+029883FM-12+008899999V0202701N01231220001CN0600001N9-00221+99999098451ADDAY101999GF102991011021008001041001IA1319KA1999M+00111MD1710071+9999MW1021EQDQ01+000092APCTENQ02+000002APC3  
0057010890999991954010700004+69717+029883FM-12+008899999V0202701N00671220001CN0600001N9-00501+99999098661ADDAY101999GF102991011021008001041001MD1210051+9999MW1021
0057010890999991954010703004+69717+029883FM-12+008899999V0202701N00461220001CN0600001N9-00501+99999098881ADDAY101999GF102991011021008001041001MD1210221+9999MW1021
0092010890999991954010706004+69717+029883FM-12+008899999V0202701N00671220001CN0600001N9-00611+99999099111ADDAY101999GA1011+006009089GF101991011021008001041001IA1319KA1999N-00611MD1210231+9999MW1021
0073010890999991954010709004+69717+029883FM-12+008899999V0202801N00931220001CN0600001N9-00721+99999099461ADDAY101999GA1011+006009089GF101991011021008001041001MD1210351+9999MW1021
0057010890999991954010712004+69717+029883FM-12+008899999V0202901N00671220001CN0600001N9-00721+99999099761ADDAY101999GF101991011021008001041001MD1210301+9999MW1021
0073010890999991954010715004+69717+029883FM-12+008899999V0202901N00931220001CN0400001N9-00721+99999100011ADDAY101999GA1031+006009089GF103991031021008001999999MD1310251+9999MW1021
0076010890999991954010718004+69717+029883FM-12+008899999V0202801N00771220001CN0400001N9-00781+99999100251ADDAY121999GF103991031021008001999999IA1319KA1999M-00611MD1310241+9999MW1021
0057010890999991954010800004+69717+029883FM-12+008899999V0202401N00671220001CN0400001N9-00891+99999100211ADDAY121999GF103991031021008001999999MD1810051+9999MW1021
0057010890999991954010803004+69717+029883FM-12+008899999V0202801N004619999999N0400001N9-01001+99999099961ADDAY121999GF105991031021004501999999MD1810241+9999MW1021
0103010890999991954010806004+69717+029883FM-12+008899999V0202401N00671005401CN0150001N9-00721+99999099711ADDAA199000691AY181999GA1081+005409099GF108991081091004501999999IA1319KA1999N-01111MD1810251+9999MW1851
0073010890999991954010809004+69717+029883FM-12+008899999V0202401N00931220001CN0400001N9-00721+99999099721ADDAY181999GA1041+007509059GF107991041051008001041999MD1210011+9999MW1021
0073010890999991954010812004+69717+029883FM-12+008899999V0202001N00771220001CN0400001N9-00781+99999099751ADDAY121999GA1041+007509059GF106991041051008001041021MD1210031+9999MW1021
0073010890999991954010815004+69717+029883FM-12+008899999V0202001N00261220001CN0400001N9-01221+99999099811ADDAY121999GA1011+009009059GF102991011051008001041001MD1210051+9999MW1021
0076010890999991954010818004+69717+029883FM-12+008899999V0203201N00051220001CN0400001N9-01391+99999099831ADDAY101999GF100991001001999999001001IA1319KA1999M-00611MD1210021+9999MW1401
0057010890999991954010900004+69717+029883FM-12+008899999V0202201N00051007801CN0400001N9-01391+99999099761ADDAY111999GF107991071051008001999999MD1710041+9999MW1401
0057010890999991954010903004+69717+029883FM-12+008899999V0202001N00101007801CN0040001N9-01111+99999099661ADDAY181999GF108991081091008001999999MD1710101+9999MW1861
0103010890999991954010906004+69717+029883FM-12+008899999V0209991C00001220001CN0030001N9-01001+99999099601ADDAA199001091AY171999GA1041+006009059GF108991081081008001999999IA1319KA1999N-01501MD1810061+9999MW1721
0073010890999991954010909004+69717+029883FM-12+008899999V0202001N00101220001CN0160001N9-01001+99999099631ADDAY171999GA1031+006009059GF105991041081008001041001MD1210031+9999MW1151
0073010890999991954010912004+69717+029883FM-12+008899999V0202001N00051220001CN0160001N9-00891+99999099641ADDAY171999GA1041+003009079GF105991041061004501041001MD1210011+9999MW1701
0073010890999991954010915004+69717+029883FM-12+008899999V0209991C00001220001CN0400001N9-01221+99999099701ADDAY171999GA1031+003009079GF104991031061004501041001MD1210061+9999MW1021
0087010890999991954010918004+69717+029883FM-12+008899999V0202001N001019999999N0200001N9-01501+99999099811ADDAA199000591AY121999GF105991041061004501041001IA1319KA1999M-00891MD1210111+9999MW1021
0057010890999991954011003004+69717+029883FM-12+008899999V0202001N002619999999N0150001N9-01721+99999100041ADDAY121999GF106991041061004501041001MD1310101+9999MW1021
0076010890999991954011006004+69717+029883FM-12+008899999V0202001N00101004501CN0140001N9-01391+99999100141ADDAY121999GF108991081061004501999999IA1319KA1999N-01781MD1310101+9999MW1031
0057010890999991954011009004+69717+029883FM-12+008899999V0202001N001019999999N0200001N9-01281+99999100251ADDAY121999GF107991041061004501041999MD1310111+9999MW1021
0057010890999991954011012004+69717+029883FM-12+008899999V0202001N00261004501CN0200001N9-01221+99999100261ADDAY121999GF108991051061004501021999MD1210011+9999MW1021
0057010890999991954011015004+69717+029883FM-12+008899999V0209991C000019999999N0200001N9-01111+99999100251ADDAY111999GF108991031061004501011999MD1710011+9999MW1021
0076010890999991954011018004+69717+029883FM-12+008899999V0209991C000019999999N0200001N9-01111+99999100241ADDAY121999GF108991031061004501011999IA1319KA1999M-01001MD1710011+9999MW1021
0057010890999991954011100004+69717+029883FM-12+008899999V0201801N00051002401CN0060001N9-01001+99999100171ADDAY181999GF108991081091002501999999MD1810101+9999MW1861
0057010890999991954011103004+69717+029883FM-12+008899999V0201801N00051004501CN0400001N9-01001+99999100031ADDAY181999GF108991081091004501999999MD1810141+9999MW1021
0103010890999991954011106004+69717+029883FM-12+008899999V0201801N00051006001CN0400001N9-01001+99999099861ADDAA199000391AY121999GA1081+006009099GF108991081091004501999999IA1319KA1999N-01001MD1810171+9999MW1021
0073010890999991954011109004+69717+029883FM-12+008899999V0209991C00001006001CN0400001N9-01221+99999099701ADDAY121999GA1051+006009099GF108991051091004501071999MD1810161+9999MW1151
0073010890999991954011112004+69717+029883FM-12+008899999V0202001N00261003001CN0150001N9-01111+99999099511ADDAY121999GA1051+003009079GF107991051061002501041999MD1810191+9999MW1101
0073010890999991954011115004+69717+029883FM-12+008899999V0202401N00261003001CN0160001N9-01221+99999099381ADDAY121999GA1051+003009079GF105991051061004501001001MD1810131+9999MW1101
0076010890999991954011118004+69717+029883FM-12+008899999V0202201N00261004501CN0400001N9-01281+99999099121ADDAY121999GF106991061061004501999999IA1319KA1999M-01001MD1810261+9999MW1021
0057010890999991954011200004+69717+029883FM-12+008899999V0202601N00931004501CN0020001N9-01001+99999098351ADDAY131999GF108991081071004501999999MD1810351+9999MW1701
0057010890999991954011203004+69717+029883FM-12+008899999V0202501N00671007801CN0400001N9-01001+99999098231ADDAY131999GF106991061081008001001001MD1810121+9999MW1301
0103010890999991954011206004+69717+029883FM-12+008899999V0202601N00931220001CN0400001N9-00891+99999098101ADDAA199001091AY131999GA1031+006009089GF106991051081008001041001IA1319KA1999N-01391MD1810131+9999MW1301
0073010890999991954011209004+69717+029883FM-12+008899999V0202501N00931220001CN0400001N9-00891+99999098171ADDAY121999GA1041+004509099GF108991041091004501021999MD1210071+9999MW1151
0073010890999991954011212004+69717+029883FM-12+008899999V0202201N00261220001CN0400001N9-01001+99999098361ADDAY181999GA1021+006009089GF104991031081008001041001MD1210201+9999MW1021
0092010890999991954011215004+69717+029883FM-12+008899999V0202201N00261220001CN0400001N9-01221+99999098441ADDAY121999GA1041+005409079GF104991041999004501001001MD1210081+9999MW1031EQDQ01+000002SCOLCG
0087010890999991954011218004+69717+029883FM-12+008899999V0202001N00101220001CN0400001N9-01391+99999098481ADDAA199000391AY121999GF104991031061004501041001IA1319KA1999M-00891MD1210041+9999MW1021
0057010890999991954011300004+69717+029883FM-12+008899999V0201801N00101220001CN0400001N9-01501+99999098401ADDAY101999GF104991031061004501041001MD1710051+9999MW1021
0076010890999991954011303004+69717+029883FM-12+008899999V0201801N004619999999N0400001N9-01391+99999098401ADDAY121999GF108991041061004501011999MD1410001+9999MW1031EQDQ01+000012APC3  
0092010890999991954011306004+69717+029883FM-12+008899999V0201801N00461220001CN0400001N9-01281+99999098411ADDAY121999GA1041+006009079GF105991041061004501041999IA1319KA1999N-01501MD1310011+9999MW1011
0073010890999991954011309004+69717+029883FM-12+008899999V0202401N00671220001CN0400001N9-00721+99999098531ADDAY111999GA1041+006009089GF105991041081004501041999MD1310121+9999MW1031
0073010890999991954011312004+69717+029883FM-12+008899999V0202701N00461220001CN0400001N9-00721+99999098651ADDAY101999GA1021+006009089GF103991021081004501041001MD1210121+9999MW1021
0057010890999991954011315004+69717+029883FM-12+008899999V0202001N00101220001CN0400001N9-01221+99999098741ADDAY101999GF103991031001017501041999MD1310091+9999MW1021
0076010890999991954011318004+69717+029883FM-12+008899999V0202001N00261220001CN0400001N9-00891+99999098761ADDAY101999GF103991031001017501041999IA1319KA1999M-00721MD1310021+9999MW1021
0057010890999991954011400004+69717+029883FM-12+008899999V0201801N00051220001CN0400001N9-01221+99999098781ADDAY101999GF100991001001999999001001MD1310021+9999MW1021
0057010890999991954011403004+69717+029883FM-12+008899999V0201801N00101220001CN0400001N9-01281+99999098841ADDAY101999GF102991021001017501041001MD1310061+9999MW1021
0076010890999991954011406004+69717+029883FM-12+008899999V0201801N00101220001CN0400001N9-01501+99999098921ADDAY101999GF102991021001017501041001IA1319KA1999N-01501MD1310081+9999MW1021
0073010890999991954011409004+69717+029883FM-12+008899999V0201801N00051220001CN0400001N9-01611+99999098961ADDAY121999GA1031+018009039GF105991031001017501041021MD1310041+9999MW1031
0092010890999991954011412004+69717+029883FM-12+008899999V0201801N00051015001CN0400001N9-01501+99999098961ADDAY121999GA1051+015009049GF106991051001012501071021MD1410001+9999MW1021EQDQ01+000032APCTEN
0073010890999991954011415004+69717+029883FM-12+008899999V0209991C00001220001CN0400001N9-01501+99999098921ADDAY111999GA1011+009009059GF104991011061008001031001MD1710041+9999MW1021
0111010890999991954011418004+69717+029883FM-12+008899999V0209991C00001220001CN0400001N9-01391+99999098921ADDAY101999GF101991999001999999041001IA1319KA1999M-01391MD1410001+9999MW1021EQDQ01+000002SCOTLCQ02+000022APCTEN
0094010890999991954011500004+69717+029883FM-12+008899999V0209991C00001220001CN0400001N9-01611+99999098871ADDAY101999GF101991999001999999041001MW1401EQDQ01+000002SCOTLCQ02+000022APCTENQ03+000002APC3  
0057010890999991954011503004+69717+029883FM-12+008899999V0209991C000019999999N0400001N9-01501+99999098741ADDAY111999GF105991041051008001041999MD1710131+9999MW1401
0092010890999991954011506004+69717+029883FM-12+008899999V0209991C00001220001CN0400001N9-01281+99999098601ADDAY111999GA1041+007509059GF106991061051008001999999IA1319KA1999N-01721MD1710141+9999MW1401
0073010890999991954011509004+69717+029883FM-12+008899999V0209991C00001220001CN0030001N9-01111+99999098491ADDAY171999GA1031+006009059GF108991031051008001021999MD1710101+9999MW1701
0073010890999991954011512004+69717+029883FM-12+008899999V0209991C00001009001CN0030001N9-01001+99999098371ADDAY171999GA1081+009009049GF108991081001008001021999MD1810121+9999MW1711
0092010890999991954011515004+69717+029883FM-12+008899999V0209991C00001009001CN0040001N9-01001+99999098131ADDAY171999GA1081+009009049GF108991999071008001021999MD1810241+9999MW1701EQDQ01+000082SCOTLC
0106010890999991954011518004+69717+029883FM-12+008899999V0201801N00101007801CN0030001N9-00891+99999097911ADDAA199002091AY171999GF108991999071008001021999IA1319KA1999M-00891MD1810221+9999MW1711EQDQ01+000082SCOTLC
0076010890999991954011600004+69717+029883FM-12+008899999V0201801N00051007801CN0030001N9-00721+99999097671ADDAY171999GF108991999071008001021999MD1810121+9999MW1711EQDQ01+000082SCOTLC
0076010890999991954011603004+69717+029883FM-12+008899999V0201801N00101007801CN0050001N9-00721+99999097601ADDAY171999GF108991999071008001021999MD1810071+9999MW1701EQDQ01+000082SCOTLC
0103010890999991954011606004+69717+029883FM-12+008899999V0201801N00101009001CN0160001N9-00611+99999097551ADDAA199003091AY171999GA1051+009009049GF106991051071008001031999IA1319KA1999N-00891MD1810051+9999MW1011
0073010890999991954011609004+69717+029883FM-12+008899999V0209991C00001220001CN0160001N9-00611+99999097601ADDAY121999GA1041+007509099GF107991041091008001011999MD1410001+9999MW1101
0073010890999991954011612004+69717+029883FM-12+008899999V0201801N00261220001CN0200001N9-00611+99999097681ADDAY181999GA1031+006009099GF108991031091008001021999MD1210081+9999MW1151
0073010890999991954011615004+69717+029883FM-12+008899999V0202001N00101220001CN0400001N9-00891+99999097771ADDAY121999GA1031+006009099GF105991031091004501041999MD1310091+9999MW1021
0087010890999991954011618004+69717+029883FM-12+008899999V0209991C00001004501CN0150001N9-00891+99999097861ADDAA199000691AY181999GF107991051091004501041999IA1319KA1999M-00611MD1310091+9999MW1851
0078010890999991954011703004+69717+029883FM-12+008899999V0209991C000019999999N0400001N9-00781+99999097991ADDAY121999GF105991031091004501041999MW1021EQDQ01+000032APCTENQ02+000002APC3  
0076010890999991954011706004+69717+029883FM-12+008899999V0209991C00001220001CN0400001N9-01001+99999098021ADDAY121999GF104991041001008001041081IA1319KA1999N-01111MD1310031+9999MW1021
0057010890999991954011709004+69717+029883FM-12+008899999V0209991C00001220001CN0400001N9-01001+99999098061ADDAY121999GF104991041001017501041999MD1310041+9999MW1021
0057010890999991954011712004+69717+029883FM-12+008899999V0209991C00001004501CN0010001N9-00891+99999098291ADDAY181999GF108991081091004501999999MD1310231+9999MW1861
0057010890999991954011715004+69717+029883FM-12+008899999V0203001N00931004501CN0100001N9-00781+99999098421ADDAY181999GF108991081091004501999999MD1310131+9999MW1371
0087010890999991954011718004+69717+029883FM-12+008899999V0203001N00931004501CN0140001N9-00781+99999098741ADDAA199001091AY181999GF108991081091004501999999IA1319KA1999M-00781MD1210321+9999MW1181
0057010890999991954011800004+69717+029883FM-12+008899999V0203601N01231004501CN0002001N9-00111+99999098911ADDAY181999GF108991081091004501999999MD1210101+9999MW1861
0057010890999991954011803004+69717+029883FM-12+008899999V0203601N01231004501CN0400001N9-00111+99999099421ADDAY181999GF108991081091004501999999MD1210501+9999MW1151
0103010890999991954011806004+69717+029883FM-12+008899999V0203601N00931006001CN0400001N9-00281+99999099841ADDAA199002091AY121999GA1061+006009099GF107991061091008001041999IA1319KA1999N-00281MD1210421+9999MW1021
0073010890999991954011809004+69717+029883FM-12+008899999V0203601N00931220001CN0400001N9-00281+99999100111ADDAY111999GA1041+006009099GF105991041031008001041001MD1310271+9999MW1021
0059010890999991954011812004+69717+029883FM-12+008899999V0203401N00671220001CN0600001N9-00391+99999100321ADDAY111999GA1021+006009099GF103991021031008001041001MW1021
0043010890999991954011815004+69717+029883FM-12+008899999V0203401N00461220001CN0600001N9-00391+99999100461ADDAY101999GF101991011081008001041001MW1011
0056010890999991954011818004+69717+029883FM-12+008899999V0203201N00461220001CN0600001N9-00721+99999100521ADDAY101999GF101991011021008001041001KA1999M-00281MW1021
0043010890999991954011900004+69717+029883FM-12+008899999V0203201N00671007801CN0600001N9-00611+99999100651ADDAY121999GF107991071031008001999999MW1031
0043010890999991954011903004+69717+029883FM-12+008899999V0203201N00261007801CN0400001N9-00721+99999100671ADDAY121999GF108991081031008001999999MW1031
0078010890999991954011906004+69717+029883FM-12+008899999V0209991C00001220001CN0600001N9-01221+99999100701ADDAY101999GA1011+009009089GF101991011021008001041001IA1319KA1999N-01221MW1011
0043010890999991954011909004+69717+029883FM-12+008899999V0201801N00261220001CN0400001N9-01501+99999100681ADDAY101999GF101991011021008001041001MW1021
0059010890999991954011912004+69717+029883FM-12+008899999V0201801N00101220001CN0160001N9-01611+99999100681ADDAY101999GA1011+002709079GF102991011021008001041001MW1101
0043010890999991954011915004+69717+029883FM-12+008899999V0201801N00101220001CN0160001N9-01611+99999100661ADDAY101999GF102991021061002501001001MW1101
0062010890999991954011918004+69717+029883FM-12+008899999V0201801N00051220001CN0160001N9-01891+99999100661ADDAY101999GF101991011001022501041001IA1319KA1999M-01221MW1101
0043010890999991954012000004+69717+029883FM-12+008899999V0201801N00101220001CN0400001N9-02111+99999100671ADDAY101999GF100991001001999999001001MW1401
0043010890999991954012003004+69717+029883FM-12+008899999V0201801N00101220001CN0400001N9-02111+99999100761ADDAY101999GF100991001001999999001001MW1401
0062010890999991954012006004+69717+029883FM-12+008899999V0201801N00051220001CN0400001N9-02281+99999100831ADDAY101999GF100991001001999999001001IA1319KA1999N-02281MW1021
0043010890999991954012009004+69717+029883FM-12+008899999V0209991C00001220001CN0400001N9-02221+99999101051ADDAY101999GF100991001001999999001001MW1021
0059010890999991954012012004+69717+029883FM-12+008899999V0209991C00001220001CN0400001N9-02221+99999101171ADDAY101999GA1011+003009079GF101991011061002501001001MW1021
0043010890999991954012015004+69717+029883FM-12+008899999V0201801N00101220001CN0400001N9-02281+99999101341ADDAY101999GF100991001001999999001001MW1401
0081010890999991954012018004+69717+029883FM-12+008899999V0201801N00101220001CN0400001N9-02281+99999101421ADDAY101999GF101991999001999999041001IA1319KA1999M-02221MW1401EQDQ01+000002SCOTLC
0043010890999991954012100004+69717+029883FM-12+008899999V0202001N002619999999N0400001N9-02111+99999101461ADDAY111999GF105991031051008001001061MW1401
0043010890999991954012103004+69717+029883FM-12+008899999V0202001N002619999999N0400001N9-01891+99999101331ADDAY121999GF105991031051008001041001MW1401
0078010890999991954012106004+69717+029883FM-12+008899999V0202001N00261220001CN0400001N9-01891+99999101251ADDAY121999GA1021+006009089GF105991031081008001041001IA1319KA1999N-02391MW1401
0059010890999991954012109004+69717+029883FM-12+008899999V0209991C00001220001CN0400001N9-01891+99999101291ADDAY111999GA1011+006009089GF103991021081008001041001MW1401
0059010890999991954012112004+69717+029883FM-12+008899999V0201801N00101220001CN0120001N9-01501+99999101461ADDAY111999GA1031+004509099GF105991041091004501041001MW1851
0059010890999991954012115004+69717+029883FM-12+008899999V0202701N00261004501CN0160001N9-01221+99999101671ADDAY121999GA1051+004509099GF107991051091004501041999MW1401
0073010890999991954012118004+69717+029883FM-12+008899999V0202801N00671004501CN0400001N9-00611+99999101791ADDAA199000591AY181999GF107991051091004501041999IA1319KA1999M-00611MW1021
0043010890999991954012200004+69717+029883FM-12+008899999V0203001N00461004501CN0160001N9-00611+99999101901ADDAY181999GF108991051031004501011999MW1851
0043010890999991954012203004+69717+029883FM-12+008899999V0203001N004619999999N0400001N9-00611+99999101851ADDAY181999GF108991031031004501021999MW1021
0089010890999991954012206004+69717+029883FM-12+008899999V0203001N00931005401CN0400001N9-00391+99999101841ADDAA199000691AY131999GA1051+005409099GF107991071031004501999999IA1319KA1999N-00721MW1011
0059010890999991954012209004+69717+029883FM-12+008899999V0203001N00931004501CN0600001N9-00111+99999101891ADDAY121999GA1061+004509099GF106991061031004501999999MW1151
0059010890999991954012212004+69717+029883FM-12+008899999V0203201N00931004501CN0600001N9+00111+99999102061ADDAY181999GA1051+004509099GF106991051091004501041999MW1151
0073010890999991954012215004+69717+029883FM-12+008899999V0203001N00771220001CN0400001N9+00001+99999102041ADDAY121999GA1031+005409099GF104991031091004501041999MD1210341+9999MW1021
0087010890999991954012218004+69717+029883FM-12+008899999V0203401N00771004501CN0400001N9+00001+99999102641ADDAA199000691AY181999GF105991051091004501999999IA1319KA1999M+00111MD1210241+9999MW1021
0057010890999991954012300004+69717+029883FM-12+008899999V0203401N00671004501CN0400001N9-00111+99999103051ADDAY121999GF106991061091004501999999MD1310201+9999MW1021
0057010890999991954012303004+69717+029883FM-12+008899999V0203601N00931004501CN0400001N9-00221+99999103211ADDAY121999GF108991081091004501999999MD1310161+9999MW1021
0076010890999991954012306004+69717+029883FM-12+008899999V0203601N010319999999N0400001N9+00001+99999103301ADDAY121999GF106991041051008001041999IA1319KA1999N-00221MD1310091+9999MW1021
0073010890999991954012309004+69717+029883FM-12+008899999V0209991C00001220001CN0600001N9-00221+99999103471ADDAY121999GA1021+015009039GF105991021001017501041021MD1310171+9999MW1021
0076010890999991954012312004+69717+029883FM-12+008899999V0209991C00001220001CN0600001N9-00611+99999103511ADDAY101999GF102991001001999999001021MD1310041+9999MW1021EQDQ01+000022SCOTLC
0076010890999991954012315004+69717+029883FM-12+008899999V0202201N00261220001CN0600001N9-00781+99999103371ADDAY101999GF102991999001999999041001MD1810141+9999MW1021EQDQ01+000002SCOTLC
0095010890999991954012318004+69717+029883FM-12+008899999V0202401N00461220001CN0600001N9-00721+99999103151ADDAY101999GF102991999001999999041001IA1319KA1999M+00001MD1810221+9999MW1021EQDQ01+000002SCOTLC
0057010890999991954012403004+69717+029883FM-12+008899999V0202401N004619999999N0600001N9-00611+99999102631ADDAY101999GF105991031051008001041001MD1810201+9999MW1021
0076010890999991954012406004+69717+029883FM-12+008899999V0202401N002619999999N0600001N9-00721+99999102541ADDAY111999GF106991041051008001041999IA1319KA1999N-00781MD1810101+9999MW1021
0057010890999991954012409004+69717+029883FM-12+008899999V0202401N006719999999N0600001N9-00721+99999102511ADDAY111999GF105991031051008001041001MD1810031+9999MW1021
0057010890999991954012412004+69717+029883FM-12+008899999V0202401N004619999999N0600001N9-00721+99999102491ADDAY111999GF105991021051012501041001MD1810021+9999MW1021
0057010890999991954012415004+69717+029883FM-12+008899999V0202401N004619999999N0600001N9-00721+99999102361ADDAY121999GF106991031081008001041001MD1810131+9999MW1021
0087010890999991954012418004+69717+029883FM-12+008899999V0202401N00261007801CN0100001N9-00611+99999102331ADDAA199000591AY171999GF108991081081008001999999IA1319KA1999M-00611MD1810031+9999MW1701
0057010890999991954012500004+69717+029883FM-12+008899999V0202001N00101004501CN0400001N9-00391+99999102351ADDAY171999GF108991061071004501021999MD1210051+9999MW1021
0076010890999991954012503004+69717+029883FM-12+008899999V0209991C00001004501CN0400001N9-00391+99999102421ADDAY121999GF108991999071004501021999MD1210071+9999MW1021EQDQ01+000082SCOTLC
0122010890999991954012506004+69717+029883FM-12+008899999V0209991C00001006001CN0400001N9-00221+99999102491ADDAA199002091AY171999GA1081+006009049GF108991999071004501021999IA1319KA1999N-00611MD1210071+9999MW1021EQDQ01+000082SCOTLC
0073010890999991954012509004+69717+029883FM-12+008899999V0202001N00261006001CN0160001N9-00111+99999102641ADDAY181999GA1061+006009099GF108991061091004501021999MD1210151+9999MW1851
0073010890999991954012512004+69717+029883FM-12+008899999V0202001N00101220001CN0400001N9-00111+99999102741ADDAY181999GA1041+004509099GF108991041091004501021999MD1210101+9999MW1021
0073010890999991954012515004+69717+029883FM-12+008899999V0202001N00101220001CN0400001N9-00221+99999102881ADDAY121999GA1041+005409099GF108991041091004501021999MD1310141+9999MW1021
0087010890999991954012518004+69717+029883FM-12+008899999V0202001N001019999999N0400001N9-00221+99999102951ADDAA199001091AY121999GF108991041091004501021999IA1319KA1999M-00111MD1210071+9999MW1021
0057010890999991954012600004+69717+029883FM-12+008899999V0202001N001019999999N0400001N9-00221+99999103061ADDAY121999GF108991041091004501021999MD1310051+9999MW1021
0057010890999991954012603004+69717+029883FM-12+008899999V0201801N001019999999N0400001N9-00501+99999103081ADDAY121999GF106991031051008001999999MD1310021+9999MW1021
0092010890999991954012606004+69717+029883FM-12+008899999V0201801N00151220001CN0400001N9-00891+99999103091ADDAY121999GA1041+012009059GF105991041051012501999999IA1319KA1999N-00891MD1310011+9999MW1021
0073010890999991954012609004+69717+029883FM-12+008899999V0202001N00261010501CN0400001N9-00891+99999103141ADDAY111999GA1081+010509059GF108991081051008001999999MD1310051+9999MW1021
0073010890999991954012612004+69717+029883FM-12+008899999V0209991C00001220001CN0400001N9-00781+99999103201ADDAY121999GA1041+006009059GF108991041051004501071999MD1310061+9999MW1021
0073010890999991954012615004+69717+029883FM-12+008899999V0209991C00001006001CN0400001N9-00781+99999103191ADDAY121999GA1051+006009059GF108991051051008001021999MD1810011+9999MW1021
0087010890999991954012618004+69717+029883FM-12+008899999V0202001N001019999999N0140001N9-00891+99999103231ADDAA199000691AY171999GF108991041051008001021999IA1319KA1999M-00781MD1310041+9999MW1701
0078010890999991954012700004+69717+029883FM-12+008899999V0202201N00101004501CN0160001N9-00781+99999103231ADDAY121999GF108991081061004501999999MW1101EQDQ01+000032APCTENQ02+000002APC3  
0076010890999991954012703004+69717+029883FM-12+008899999V0202201N00101004501CN0160001N9-00781+99999103231ADDAY121999GF108991081061004501999999MD1410001+9999MW1101EQDQ01+000032APCTEN
0092010890999991954012706004+69717+029883FM-12+008899999V0209991C00001220001CN0160001N9-00611+99999103151ADDAY121999GA1041+005409059GF108991081081004501999999IA1319KA1999N-00891MD1810081+9999MW1101
0073010890999991954012709004+69717+029883FM-12+008899999V0209991C00001220001CN0160001N9-00611+99999103161ADDAY121999GA1041+005409059GF108991081081004501999999MD1210011+9999MW1151
0073010890999991954012712004+69717+029883FM-12+008899999V0209991C00001220001CN0120001N9-00501+99999103221ADDAY171999GA1031+005409059GF108991051081004501071999MD1210061+9999MW1701
0073010890999991954012715004+69717+029883FM-12+008899999V0201801N00101220001CN0140001N9-00391+99999103321ADDAY171999GA1041+005409059GF108991041081004501071999MD1210101+9999MW1101
0087010890999991954012718004+69717+029883FM-12+008899999V0201801N001019999999N0200001N9-00391+99999103431ADDAA199001091AY121999GF108991041081004501071999IA1319KA1999M-00391MD1210111+9999MW1101
0057010890999991954012800004+69717+029883FM-12+008899999V0202001N00101220001CN0600001N9-00891+99999103661ADDAY101999GF104991031051008001041001MD1210101+9999MW1011
0057010890999991954012803004+69717+029883FM-12+008899999V0203401N00101220001CN0600001N9-01001+99999103701ADDAY101999GF104991031051008001041001MD1210041+9999MW1021
0092010890999991954012806004+69717+029883FM-12+008899999V0209991C00001220001CN0600001N9-01001+99999103721ADDAY121999GA1041+007509059GF106991041051008001041999IA1319KA1999N-01001MD1010051+9999MW1031
0073010890999991954012809004+69717+029883FM-12+008899999V0201801N00101220001CN0200001N9-01281+99999103791ADDAY121999GA1041+007509059GF105991041051008001041001MD1410001+9999MW1401
0073010890999991954012812004+69717+029883FM-12+008899999V0201701N00101006001CN0160001N9-01391+99999103771ADDAY121999GA1061+006009059GF107991061051008001041001MD1990011+9999MW1401
0073010890999991954012815004+69717+029883FM-12+008899999V0209991C00001010501CN0400001N9-01611+99999103761ADDAY121999GA1071+010509059GF107991071051012501999999MD1710011+9999MW1401
0076010890999991954012818004+69717+029883FM-12+008899999V0209991C00001220001CN0400001N9-01721+99999103661ADDAY121999GF104991041001012501001001IA1319KA1999M-01001MD1810101+9999MW1401
0057010890999991954012900004+69717+029883FM-12+008899999V0209991C000019999999N0400001N9-01611+99999103621ADDAY121999GF106991041051008001999999MD1810031+9999MW1401
0057010890999991954012903004+69717+029883FM-12+008899999V0209991C00001220001CN0400001N9-01781+99999103591ADDAY121999GF103991031051008001999999MD1810031+9999MW1401
0092010890999991954012906004+69717+029883FM-12+008899999V0209991C00001220001CN0400001N9-01781+99999103531ADDAY121999GA1041+009009059GF104991041051008001999999IA1319KA1999N-01891MD1810061+9999MW1401
0073010890999991954012909004+69717+029883FM-12+008899999V0209991C00001220001CN0400001N9-01611+99999103561ADDAY121999GA1041+007509059GF105991031051012501041001MD1210031+9999MW1021
0073010890999991954012912004+69717+029883FM-12+008899999V0209991C00001220001CN0600001N9-01781+99999103611ADDAY101999GA1031+018009039GF103991031001017501041001MD1310051+9999MW1021
0073010890999991954012915004+69717+029883FM-12+008899999V0209991C00001220001CN0600001N9-01781+99999103501ADDAY101999GA1041+009009059GF106991041051008001041999MD1810101+9999MW1101
0076010890999991954012918004+69717+029883FM-12+008899999V0209991C00001007801CN0400001N9-01501+99999103411ADDAY121999GF107991071081008001999999IA1319KA1999M-01501MD1810101+9999MW1021
0057010890999991954013000004+69717+029883FM-12+008899999V0209991C00001007801CN0400001N9-01611+99999103171ADDAY111999GF107991071081008001999999MD1810121+9999MW1021
0057010890999991954013003004+69717+029883FM-12+008899999V0209991C00001007801CN0400001N9-01501+99999103021ADDAY121999GF108991081081008001999999MD1810151+9999MW1021
0076010890999991954013006004+69717+029883FM-12+008899999V0209991C000019999999N0400001N9-00891+99999102851ADDAY121999GF108991031051008001071999IA1319KA1999N-01721MD1810171+9999MW1021
0073010890999991954013009004+69717+029883FM-12+008899999V0203201N00261220001CN0400001N9+00001+99999102821ADDAY121999GA1021+006009099GF105991031031008001041001MD1810031+9999MW1021
0073010890999991954013012004+69717+029883FM-12+008899999V0203201N00671220001CN0600001N9+00111+99999102801ADDAY121999GA1041+006009099GF108991041031008001071999MD1810021+9999MW1151
0073010890999991954013015004+69717+029883FM-12+008899999V0203201N00461220001CN0400001N9+00111+99999102731ADDAY121999GA1041+006009099GF108991041031008001071999MD1710071+9999MW1021
0106010890999991954013018004+69717+029883FM-12+008899999V0203201N006719999999N0600001N9+00221+99999102731ADDAA199000691AY121999GF108991031031008001071999IA1319KA1999M+00221MD1410001+9999MW1021EQDQ01+000062APCTEN
0057010890999991954013103004+69717+029883FM-12+008899999V0203201N009319999999N0600001N9+00221+99999102821ADDAY121999GF108991021061004501071999MD1210021+9999MW1021
0076010890999991954013106004+69717+029883FM-12+008899999V0203201N009319999999N0600001N9+00111+99999102801ADDAY121999GF105991041051008001041001IA1319KA1999N+00111MD1710021+9999MW1011
0057010890999991954013109004+69717+029883FM-12+008899999V0203001N006719999999N0600001N9+00111+99999102811ADDAY111999GF105991021031008001041001MD1210011+9999MW1021
0057010890999991954013112004+69717+029883FM-12+008899999V0203401N00931220001CN0600001N9+00111+99999102791ADDAY101999GF104991021031008001041001MD1990011+9999MW1011
0057010890999991954013115004+69717+029883FM-12+008899999V0203401N004619999999N0600001N9-00111+99999102771ADDAY121999GF106991021031008001041001MD1710021+9999MW1031
0076010890999991954013118004+69717+029883FM-12+008899999V0203401N006719999999N0600001N9-00111+99999102711ADDAY121999GF108991031031008001071999IA1319KA1999M+00111MD1710061+9999MW1031
0057010890999991954020100004+69717+029883FM-12+008899999V0203001N00671220001CN0400001N9-00111+99999102721ADDAY101999GF103991031021004501999999MD1210021+9999MW1021
0057010890999991954020103004+69717+029883FM-12+008899999V0203001N00461220001CN0400001N9-00391+99999102741ADDAY101999GF102991021021004501999999MD1210021+9999MW1021
0092010890999991954020106004+69717+029883FM-12+008899999V0203401N00671220001CN0400001N9-00221+99999102771ADDAY101999GA1021+006009089GF102991021021004501999999IA1319KA1999N-00391MD1210031+9999MW1021
0073010890999991954020109004+69717+029883FM-12+008899999V0203401N00261220001CN0600001N9-00221+99999102811ADDAY121999GA1031+006009089GF105991031021008001041001MD1210041+9999MW1021
0073010890999991954020112004+69717+029883FM-12+008899999V0209991C00001220001CN0600001N9-00391+99999102841ADDAY101999GA1021+009009059GF103991021051008001041001MD1310031+9999MW1011
0057010890999991954020115004+69717+029883FM-12+008899999V0209991C00001220001CN0600001N9-00781+99999102811ADDAY101999GF102991001001999999001021MD1810031+9999MW1011
0076010890999991954020118004+69717+029883FM-12+008899999V0209991C00001220001CN0600001N9-00781+99999102881ADDAY111999GF102991021051008001001001IA1319KA1999M-00221MD1210071+9999MW1021
0094010890999991954020200004+69717+029883FM-12+008899999V0202201N00101220001CN0400001N9-01001+99999102821ADDAY101999GF102991999001999999041001MW1021EQDQ01+000002SCOTLCQ02+000032APCTENQ03+000002APC3  
0076010890999991954020203004+69717+029883FM-12+008899999V0202201N00261220001CN0400001N9-01001+99999102741ADDAY101999GF102991999001999999041001MD1810081+9999MW1021EQDQ01+000002SCOTLC
0095010890999991954020206004+69717+029883FM-12+008899999V0202201N00101220001CN0400001N9-01281+99999102631ADDAY101999GF101991999001999999041001IA1319KA1999N-01391MD1810111+9999MW1021EQDQ01+000002SCOTLC
0073010890999991954020209004+69717+029883FM-12+008899999V0209991C00001220001CN0400001N9-01391+99999102531ADDAY101999GA1011+003009079GF101991011061004501041001MD1810101+9999MW1021
0073010890999991954020212004+69717+029883FM-12+008899999V0202001N00101220001CN0400001N9-01611+99999102411ADDAY101999GA1011+003009079GF101991011061004501001021MD1810121+9999MW1021
0073010890999991954020215004+69717+029883FM-12+008899999V0202001N00101220001CN0400001N9-01611+99999102191ADDAY101999GA1011+003009079GF101991011061004501001021MD1710221+9999MW1011
0076010890999991954020218004+69717+029883FM-12+008899999V0201801N00101220001CN0400001N9-01721+99999101991ADDAY101999GF101991011061004501001001IA1319KA1999M-01281MD1710201+9999MW1021
0057010890999991954020300004+69717+029883FM-12+008899999V0201801N00101220001CN0400001N9-01611+99999101571ADDAY101999GF101991011061004501001001MD1810201+9999MW1021
0057010890999991954020303004+69717+029883FM-12+008899999V0201801N00101220001CN0400001N9-01611+99999101241ADDAY101999GF101991011061004501001001MD1810331+9999MW1021
0092010890999991954020306004+69717+029883FM-12+008899999V0201801N00261220001CN0400001N9-01391+99999101001ADDAY101999GA1011+003009079GF101991011061004501001001IA1009KA1999N-01781MD1810241+9999MW1021
0057010890999991954020309004+69717+029883FM-12+008899999V0209991C00001220001CN0600001N9-01391+99999100831ADDAY101999GF101991011061004501001001MD1810171+9999MW1021
0057010890999991954020312004+69717+029883FM-12+008899999V0209991C00001220001CN0600001N9-01221+99999100641ADDAY111999GF101991011061004501001021MD1810191+9999MW1021
0057010890999991954020315004+69717+029883FM-12+008899999V0202001N00101220001CN0600001N9-01111+99999100531ADDAY101999GF102991021061004501001001MD1810111+9999MW1021
0076010890999991954020318004+69717+029883FM-12+008899999V0209991C00001220001CN0600001N9-01221+99999100451ADDAY101999GF102991021061004501001001IA1319KA1999M-01111MD1810081+9999MW1021
0078010890999991954020400004+69717+029883FM-12+008899999V0202001N00101220001CN0400001N9-01001+99999100411ADDAY101999GF102991021061004501999999MW1021EQDQ01+000032APCTENQ02+000002APC3  
0057010890999991954020403004+69717+029883FM-12+008899999V0202001N00101220001CN0400001N9-01001+99999100381ADDAY101999GF102991021061004501999999MD1710031+9999MW1021
0111010890999991954020406004+69717+029883FM-12+008899999V0203001N01031006001CN0400001N9-00221+99999100381ADDAY121999GA1051+006009089GF108991051071004501999999IA1319KA1999N-01221MD1410001+9999MW1021EQDQ01+000022APCTEN
0073010890999991954020409004+69717+029883FM-12+008899999V0200301N00771006001CN0400001N9-00111+99999100851ADDAY181999GA1071+006009099GF107991071091004501001001MD1310471+9999MW1261
0073010890999991954020412004+69717+029883FM-12+008899999V0200301N00931006001CN0400001N9-00111+99999101241ADDAY181999GA1051+006009099GF108991081081004501999999MD1310391+9999MW1021
0073010890999991954020415004+69717+029883FM-12+008899999V0200301N00461220001CN0400001N9-00111+99999101491ADDAY121999GA1031+006009089GF106991061081008001001001MD1310251+9999MW1021
0087010890999991954020418004+69717+029883FM-12+008899999V0200501N00261007801CN0400001N9-00281+99999101611ADDAA199002091AY121999GF106991061081008001001001IA1319KA1999M+00001MD1310121+9999MW1021
0057010890999991954020500004+69717+029883FM-12+008899999V0202201N00261007801CN0400001N9-00611+99999101401ADDAY121999GF106991061081008001001001MD1710181+9999MW1021
0057010890999991954020503004+69717+029883FM-12+008899999V0202201N00101004501CN0020001N9-00611+99999101171ADDAY171999GF108991081081004501999999MD1710221+9999MW1701
0103010890999991954020506004+69717+029883FM-12+008899999V0202201N00461220001CN0400001N9-00611+99999100981ADDAA199000691AY171999GA1031+006009089GF107991051081008001071999IA1319KA1999N-00721MD1710201+9999MW1151
0073010890999991954020509004+69717+029883FM-12+008899999V0202401N00261220001CN0600001N9-00611+99999100901ADDAY111999GA1031+006009089GF105991041081008001041001MD1710081+9999MW1021
0073010890999991954020512004+69717+029883FM-12+008899999V0202401N00101220001CN0600001N9-00781+99999100801ADDAY101999GA1021+006009089GF103991021021008001041001MD1710101+9999MW1021
0057010890999991954020515004+69717+029883FM-12+008899999V0201801N00101220001CN0600001N9-01001+99999100651ADDAY101999GF102991011021008001041001MD1710151+9999MW1021
0076010890999991954020518004+69717+029883FM-12+008899999V0201801N00101220001CN0600001N9-01001+99999100471ADDAY101999GF103991031051008001001001IA1319KA1999M-00611MD1710181+9999MW1031
0057010890999991954020600004+69717+029883FM-12+008899999V0202001N00261220001CN0600001N9-00781+99999100411ADDAY101999GF103991021051008001041001MD1710021+9999MW1021
0057010890999991954020603004+69717+029883FM-12+008899999V0202001N00461220001CN0600001N9-00721+99999100051ADDAY101999GF103991021051008001041001MD1710361+9999MW1021
0092010890999991954020606004+69717+029883FM-12+008899999V0201801N00261220001CN0600001N9-00501+99999099811ADDAY121999GA1041+006009099GF108991041031008001011999IA1319KA1999N-01001MD1710241+9999MW1031
0073010890999991954020609004+69717+029883FM-12+008899999V0201201N00261220001CN0600001N9-00391+99999099601ADDAY121999GA1031+007509099GF107991031031008001071999MD1710211+9999MW1021
0073010890999991954020612004+69717+029883FM-12+008899999V0202601N00931220001CN0600001N9-00111+99999099501ADDAY111999GA1031+007509099GF104991031031008001031001MD1710101+9999MW1011
0057010890999991954020615004+69717+029883FM-12+008899999V0202601N00931220001CN0600001N9-00221+99999099521ADDAY101999GF101991011001022501041001MD1210021+9999MW1021
0095010890999991954020618004+69717+029883FM-12+008899999V0202601N01031220001CN0600001N9-00281+99999099521ADDAY101999GF100991001001999999001001IA1319KA1999M-00111MD1410001+9999MW1021EQDQ01+000032APCTEN
0057010890999991954020703004+69717+029883FM-12+008899999V0209991C000019999999N0400001N9-00391+99999099791ADDAY121999GF108991031051004501999999MD1810071+9999MW1021
0087010890999991954020706004+69717+029883FM-12+008899999V0202401N00461004501CN0400001N9-00391+99999099841ADDAA199001091AY181999GF108991081091004501999999IA1319KA1999N-00501MD1210051+9999MW1021
0057010890999991954020709004+69717+029883FM-12+008899999V0202001N00101004501CN0400001N9-00391+99999099941ADDAY121999GF108991061091004501071999MD1310101+9999MW1021
0057010890999991954020712004+69717+029883FM-12+008899999V0209991C00001002401CN0020001N9-00391+99999099991ADDAY181999GF108991081091002501999999MD1310051+9999MW1861
0057010890999991954020715004+69717+029883FM-12+008899999V0202401N00671002401CN0010001N9-00281+99999099961ADDAY181999GF108991081091002501999999MD1710031+9999MW1861
0087010890999991954020718004+69717+029883FM-12+008899999V0202601N00771004501CN0400001N9-00281+99999099951ADDAA199002091AY181999GF108991081091004501999999IA1319KA1999M-00221MD1710011+9999MW1021
0057010890999991954020800004+69717+029883FM-12+008899999V0203001N01231004501CN0030001N9-00281+99999100211ADDAY131999GF108991081071004501999999MD1210151+9999MW1701
0057010890999991954020803004+69717+029883FM-12+008899999V0203601N00671007801CN0400001N9-00281+99999100561ADDAY171999GF108991081081008001999999MD1210351+9999MW1021
0103010890999991954020806004+69717+029883FM-12+008899999V0200701N00461220001CN0400001N9-00221+99999100911ADDAA199000591AY121999GA1031+006009089GF108991051081008001071999IA1319KA1999N-00391MD1210351+9999MW1021
0073010890999991954020809004+69717+029883FM-12+008899999V0201001N00461220001CN0400001N9-00281+99999101201ADDAY121999GA1041+009009059GF108991041051008001021999MD1210301+9999MW1021
0092010890999991954020812004+69717+029883FM-12+008899999V0201001N00461220001CN0400001N9-00391+99999101812ADDAY121999GA1041+006009059GF108991041051008001021999MD1210111+9999MW1021EQDQ01+101813APOSLP
0073010890999991954020815004+69717+029883FM-12+008899999V0201001N00261220001CN0400001N9-00501+99999101391ADDAY121999GA1041+006009059GF107991041051008001071999MD1210081+9999MW1021
0087010890999991954020818004+69717+029883FM-12+008899999V0201801N002619999999N0400001N9-00611+99999101391ADDAA199000691AY171999GF105991041051008001031999IA1319KA1999M-00221MD1010021+9999MW1021
0078010890999991954020900004+69717+029883FM-12+008899999V0201801N00101007801CN0400001N9-00721+99999101391ADDAY121999GF106991061051008001999999MW1031EQDQ01+000032APCTENQ02+000002APC3  
0057010890999991954020903004+69717+029883FM-12+008899999V0201901N002619999999N0400001N9-00721+99999101371ADDAY121999GF108991041051008001021999MD1710021+9999MW1031
0092010890999991954020906004+69717+029883FM-12+008899999V0202401N00461007501CN0400001N9-00611+99999101351ADDAY121999GA1081+007509049GF108991031051008001021999IA1319KA1999N-00891MD1710021+9999MW1021
0073010890999991954020909004+69717+029883FM-12+008899999V0202801N00461006001CN0120001N9-00721+99999101481ADDAY171999GA1081+006009049GF108991081071004501999999MD1410001+9999MW1701
0073010890999991954020912004+69717+029883FM-12+008899999V0202601N00671220001CN0200001N9-00781+99999101521ADDAY171999GA1041+007509059GF108991041051008001071999MD1210041+9999MW1711
0073010890999991954020915004+69717+029883FM-12+008899999V0202601N00261220001CN0400001N9-01111+99999101581ADDAY121999GA1031+007509059GF105991031051008001041999MD1310061+9999MW1021
0087010890999991954020918004+69717+029883FM-12+008899999V0202001N00261220001CN0400001N9-01281+99999101781ADDAA199000691AY121999GF103991031051008001999999IA1319KA1999M-00611MD1310201+9999MW1021
0057010890999991954021000004+69717+029883FM-12+008899999V0202001N00461220001CN0400001N9-01111+99999101871ADDAY121999GF103991031051008001999999MD1310051+9999MW1021
0057010890999991954021003004+69717+029883FM-12+008899999V0202001N00261220001CN0400001N9-01221+99999101921ADDAY101999GF102991021051008001999999MD1310051+9999MW1021
0092010890999991954021006004+69717+029883FM-12+008899999V0202401N00771220001CN0400001N9-00781+99999101931ADDAY121999GA1031+006009089GF105991031021004501041999IA1319KA1999N-01281MD1310011+9999MW1021
0073010890999991954021009004+69717+029883FM-12+008899999V0202401N00931006001CN0400001N9-00501+99999102001ADDAY121999GA1051+006009089GF108991051081004501071999MD1310071+9999MW1021
0073010890999991954021012004+69717+029883FM-12+008899999V0202001N00671220001CN0600001N9-00391+99999102051ADDAY111999GA1021+009009059GF104991021051008001041001MD1210051+9999MW1021
0057010890999991954021015004+69717+029883FM-12+008899999V0202001N00261220001CN0600001N9-00721+99999102101ADDAY101999GF102991001001999999041021MD1210051+9999MW1021
0076010890999991954021018004+69717+029883FM-12+008899999V0202401N00261220001CN0600001N9-00891+99999102151ADDAY101999GF100991001001999999001001IA1319KA1999M-00391MD1210051+9999MW1021
0057010890999991954021100004+69717+029883FM-12+008899999V0202201N00261220001CN0600001N9-01221+99999102241ADDAY101999GF100991001001999999001001MD1210061+9999MW1021
0076010890999991954021103004+69717+029883FM-12+008899999V0202201N00261220001CN0600001N9-01221+99999102251ADDAY101999GF101991999001999999041001MD1210011+9999MW1021EQDQ01+000002SCOTLC
0095010890999991954021106004+69717+029883FM-12+008899999V0202001N00461220001CN0160001N9-01391+99999102271ADDAY101999GF103991999001999999041001IA1319KA1999N-01391MD1210021+9999MW1761EQDQ01+000002SCOTLC
0073010890999991954021109004+69717+029883FM-12+008899999V0202201N00461006001CN0400001N9-01281+99999102331ADDAY111999GA1051+006009079GF105991051061008001001001MD1210061+9999MW1021
0092010890999991954021112004+69717+029883FM-12+008899999V0202401N00461220001CN0400001N9-01281+99999102331ADDAY101999GA1021+006009079GF102991021061008001001001MD1410001+9999MW1021EQDQ01+000022APCTEN
0073010890999991954021115004+69717+029883FM-12+008899999V0202401N00261220001CN0400001N9-01391+99999102421ADDAY101999GA1011+005409079GF102991011061004501041001MD1210091+9999MW1021
0076010890999991954021118004+69717+029883FM-12+008899999V0201801N00461220001CN0400001N9-01721+99999102481ADDAY101999GF102991011061004501041001IA1319KA1999M-01281MD1210061+9999MW1021
0057010890999991954021200004+69717+029883FM-12+008899999V0201801N00461000151CN0010001N9-01891+99999102571ADDAY141999GF109991091999000251999999MD1710021+9999MW1451
0057010890999991954021203004+69717+029883FM-12+008899999V0201901N00671001501CN0040001N9-01891+99999102521ADDAY141999GF107991071061001501999999MD1710051+9999MW1421
0092010890999991954021206004+69717+029883FM-12+008899999V0202001N00671006001CN0200001N9-01391+99999102511ADDAY141999GA1071+006009049GF107991071071004501999999IA1319KA1999N-01891MD1710011+9999MW1101
0073010890999991954021209004+69717+029883FM-12+008899999V0202401N00461220001CN0160001N9-01221+99999102541ADDAY121999GA1031+005409079GF108991031061004501021999MD1210031+9999MW1701
0073010890999991954021212004+69717+029883FM-12+008899999V0202401N00671220001CN0200001N9-01501+99999102561ADDAY101999GA1011+004509079GF101991011061004501041001MD1210021+9999MW1101
0073010890999991954021215004+69717+029883FM-12+008899999V0202401N00461220001CN0400001N9-01721+99999102581ADDAY101999GA1011+007509089GF102991011061004501041001MD1310021+9999MW1101
0095010890999991954021218004+69717+029883FM-12+008899999V0202001N00461220001CN0400001N9-01721+99999102591ADDAY101999GF102991999061004501001001IA1319KA1999M-01221MD1310011+9999MW1101EQDQ01+000012SCOTLC
0057010890999991954021300004+69717+029883FM-12+008899999V0202001N00461220001CN0400001N9-01781+99999102631ADDAY101999GF102991021051008001001001MD1310021+9999MW1021
0057010890999991954021303004+69717+029883FM-12+008899999V0202001N00461007801CN0400001N9-01721+99999102571ADDAY121999GF107991071051008001999999MD1710061+9999MW1021
0076010890999991954021306004+69717+029883FM-12+008899999V0202001N00101220001CN0400001N9-02001+99999102441ADDAY101999GF100991001001999999001001IA1319KA1999N-02001MD1710131+9999MW1401
0057010890999991954021309004+69717+029883FM-12+008899999V0202001N00101220001CN0400001N9-02001+99999102401ADDAY101999GF102991021061002501001001MD1710041+9999MW1401
0073010890999991954021312004+69717+029883FM-12+008899999V0202001N00101220001CN0400001N9-01891+99999102251ADDAY101999GA1021+002109079GF102991021061002501001001MD1710151+9999MW1401
0057010890999991954021315004+69717+029883FM-12+008899999V0202001N00051220001CN0400001N9-02111+99999102141ADDAY101999GF100991001001999999001001MD1710111+9999MW1401
0076010890999991954021318004+69717+029883FM-12+008899999V0202201N00101220001CN0400001N9-02221+99999102101ADDAY101999GF100991001001999999001001IA1319KA1999M-01891MD1710041+9999MW1401
0057010890999991954021403004+69717+029883FM-12+008899999V0202201N000519999999N0002001N9-01891+99999102081ADDAY141999GF109991091999999999999999MD1710021+9999MW1451
0095010890999991954021406004+69717+029883FM-12+008899999V0202201N000519999999N0002001N9-02001+99999102081ADDAY141999GF109991091999999999999999IA1319KA1999N-02221MD1410001+9999MW1451EQDQ01+000072APCTEN
0057010890999991954021409004+69717+029883FM-12+008899999V0201801N000519999999N0002001N9-02111+99999102181ADDAY141999GF109991091999999999999999MD1210101+9999MW1451
0057010890999991954021412004+69717+029883FM-12+008899999V0202001N00051012301CN0200001N9-02111+99999102201ADDAY141999GF108991081001012501021999MD1210021+9999MW1401
0057010890999991954021415004+69717+029883FM-12+008899999V0202001N00051004501CN0200001N9-02001+99999102311ADDAY121999GF108991081061004501999999MD1210101+9999MW1401
0076010890999991954021418004+69717+029883FM-12+008899999V0202001N00051007801CN0400001N9-01891+99999102301ADDAY121999GF106991061081008001999999IA1319KA1999M-01891MD1710011+9999MW1401
0057010890999991954021500004+69717+029883FM-12+008899999V0202001N00261004501CN0120001N9-01781+99999102411ADDAY181999GF108991081061004501999999MD1310051+9999MW1401
0057010890999991954021503004+69717+029883FM-12+008899999V0202001N001019999999N0160001N9-01721+99999102461ADDAY141999GF108991041061004501011999MD1310051+9999MW1101
0103010890999991954021506004+69717+029883FM-12+008899999V0202001N00261220001CN0200001N9-01611+99999102511ADDAA199000591AY121999GA1041+009009059GF106991041051008001041001IA1319KA1999N-01891MD1310051+9999MW1101
0073010890999991954021509004+69717+029883FM-12+008899999V0201601N00101220001CN0200001N9-01721+99999102541ADDAY121999GA1011+004509079GF105991011061004501041021MD1210031+9999MW1101
0073010890999991954021512004+69717+029883FM-12+008899999V0202401N00101220001CN0400001N9-01611+99999102591ADDAY121999GA1021+006009079GF108991021061004501021999MD1210051+9999MW1031
0073010890999991954021515004+69717+029883FM-12+008899999V0209991C00001220001CN0400001N9-01501+99999102541ADDAY121999GA1031+006009079GF107991031061004501041999MD1710051+9999MW1021
0076010890999991954021518004+69717+029883FM-12+008899999V0209991C000019999999N0400001N9-01611+99999102591ADDAY121999GF106991031061004501041021IA1319KA1999M-01501MD1210051+9999MW1021
0057010890999991954021600004+69717+029883FM-12+008899999V0209991C000019999999N0400001N9-01501+99999102701ADDAY121999GF106991031061004501041999MD1310081+9999MW1021
0057010890999991954021603004+69717+029883FM-12+008899999V0209991C000019999999N0400001N9-01501+99999102801ADDAY121999GF106991031061004501041999MD1310101+9999MW1021
0103010890999991954021606004+69717+029883FM-12+008899999V0209991C00001006901CN0400001N9-01221+99999103041ADDAA199000691AY181999GA1051+006909089GF106991051081004501041999IA1319KA1999N-01611MD1310241+9999MW1021
0073010890999991954021609004+69717+029883FM-12+008899999V0209991C00001220001CN0600001N9-01281+99999103301ADDAY101999GA1021+007509089GF102991021021008001001001MD1310261+9999MW1011
0073010890999991954021612004+69717+029883FM-12+008899999V0209991C00001220001CN0600001N9-01391+99999103491ADDAY101999GA1021+007509089GF102991021021008001001001MD1310191+9999MW1021
0057010890999991954021615004+69717+029883FM-12+008899999V0201801N00051220001CN0600001N9-01501+99999103531ADDAY101999GF100991001001999999001001MD1310041+9999MW1401
0076010890999991954021618004+69717+029883FM-12+008899999V0202001N00051007801CN0600001N9-01501+99999103631ADDAY111999GF106991061081008001999999IA1319KA1999M-01221MD1310101+9999MW1031
0076010890999991954021700004+69717+029883FM-12+008899999V0202001N00051220001CN0600001N9-01721+99999103751ADDAY101999GF102991999001999999041001MD1310051+9999MW1401EQDQ01+000002SCOTLC
0076010890999991954021703004+69717+029883FM-12+008899999V0202001N00051220001CN0600001N9-01721+99999103711ADDAY101999GF103991999001999999041001MD1710041+9999MW1401EQDQ01+000002SCOTLC
0092010890999991954021706004+69717+029883FM-12+008899999V0202001N00051220001CN0600001N9-01721+99999103671ADDAY111999GA1031+006009059GF106991061081008001999999IA1319KA1999N-01891MD1710041+9999MW1401
0073010890999991954021709004+69717+029883FM-12+008899999V0202001N00051220001CN0600001N9-01611+99999103651ADDAY101999GA1021+006009089GF102991021021008001001021MD1710021+9999MW1401
0073010890999991954021712004+69717+029883FM-12+008899999V0202001N00051220001CN0600001N9-01611+99999103571ADDAY101999GA1011+006009089GF102991011021008001001021MD1710051+9999MW1401
0073010890999991954021715004+69717+029883FM-12+008899999V0202001N00101220001CN0600001N9-01721+99999103461ADDAY101999GA1011+002709079GF101991011061002501001021MD1710111+9999MW1401
0076010890999991954021718004+69717+029883FM-12+008899999V0202001N00101220001CN0600001N9-01781+99999103411ADDAY101999GF101991011061002501001001IA1319KA1999M-01611MD1710051+9999MW1401
0057010890999991954021800004+69717+029883FM-12+008899999V0202001N00261220001CN0600001N9-02001+99999103271ADDAY101999GF101991011061002501001001MD1710051+9999MW1401
0057010890999991954021803004+69717+029883FM-12+008899999V0202001N00461220001CN0600001N9-02001+99999103161ADDAY101999GF101991011061002501001021MD1710111+9999MW1021
0092010890999991954021806004+69717+029883FM-12+008899999V0202001N00261220001CN0160001N9-02281+99999103041ADDAY101999GA1011+003009079GF103991011061002501041021IA1319KA1999N-02281MD1710121+9999MW1401
0057010890999991954021809004+69717+029883FM-12+008899999V0201601N00101220001CN0600001N9-02221+99999103021ADDAY101999GF101991011061002501001021MD1710021+9999MW1401
0057010890999991954021812004+69717+029883FM-12+008899999V0201801N00101220001CN0600001N9-02001+99999102931ADDAY101999GF101991011061002501001021MD1710091+9999MW1401
0057010890999991954021815004+69717+029883FM-12+008899999V0201801N00051220001CN0600001N9-02111+99999102881ADDAY101999GF101991011061002501001001MD1810051+9999MW1401
0076010890999991954021818004+69717+029883FM-12+008899999V0201801N00051220001CN0600001N9-02111+99999102851ADDAY101999GF101991011061008001001001IA1319KA1999M-02001MD1810031+9999MW1401
0057010890999991954021900004+69717+029883FM-12+008899999V0201801N00101220001CN0400001N9-02281+99999102811ADDAY101999GF101991011061002501001001MD1810031+9999MW1401
0057010890999991954021903004+69717+029883FM-12+008899999V0201801N00101220001CN0400001N9-02281+99999102741ADDAY101999GF101991011061002501001001MD1810071+9999MW1401
0111010890999991954021906004+69717+029883FM-12+008899999V0209991C00001000151CN0006001N9-02221+99999102681ADDAY141999GA1081+000159079GF108991081061000751999999IA1319KA1999N-02391MD1810061+9999MW1461EQDQ01+000472PRSWM1
0073010890999991954021909004+69717+029883FM-12+008899999V0201801N00101001201CN0100001N9-02111+99999102581ADDAY141999GA1071+001209079GF107991071061001501999999MD1810101+9999MW1481
0089010890999991954021912004+69717+029883FM-12+008899999V0201801N00101220001CN0200001N9-01891+99999102511ADDAY141999GA1031+006009059GA2041+001509079GF107991071061001501999999MD1810071+9999MW1401
0073010890999991954021915004+69717+029883FM-12+008899999V0201601N00261220001CN0200001N9-01721+99999102411ADDAY121999GA1031+004509059GF107991051081008001071001MD1810101+9999MW1401
0095010890999991954021918004+69717+029883FM-12+008899999V0201801N00051220001CN0400001N9-01721+99999102261ADDAY101999GF102991999001999999041001IA1319KA1999M-01721MD1710151+9999MW1401EQDQ01+000002SCOTLC
0076010890999991954022000004+69717+029883FM-12+008899999V0201801N00101220001CN0400001N9-01781+99999102091ADDAY101999GF102991999001999999041001MD1810101+9999MW1401EQDQ01+000002SCOTLC
0076010890999991954022003004+69717+029883FM-12+008899999V0209991C00001220001CN0400001N9-02001+99999102041ADDAY101999GF102991999001999999041001MD1810051+9999MW1401EQDQ01+000002SCOTLC
0092010890999991954022006004+69717+029883FM-12+008899999V0201801N00101220001CN0400001N9-01501+99999101961ADDAY101999GA1021+005409089GF105991041081008001041001IA1319KA1999N-02001MD1810081+9999MW1401
0073010890999991954022009004+69717+029883FM-12+008899999V0209991C00001220001CN0400001N9-01501+99999101941ADDAY101999GA1011+006009089GF102991021081008001001001MD1710021+9999MW1021
0092010890999991954022012004+69717+029883FM-12+008899999V0201801N00101220001CN0600001N9-01281+99999101941ADDAY121999GA1021+006009059GF104991031081008001041001MD1410001+9999MW1021EQDQ01+000022APCTEN
0092010890999991954022015004+69717+029883FM-12+008899999V0209991C00001220001CN0400001N9-01111+99999101941ADDAY121999GA1041+007509059GF107991041051008001071999MD1410001+9999MW1021EQDQ01+000022APCTEN
0076010890999991954022018004+69717+029883FM-12+008899999V0201801N00101220001CN0400001N9-01281+99999101911ADDAY101999GF103991021051008001041001IA1319KA1999M-01111MD1710031+9999MW1011
0078010890999991954022103004+69717+029883FM-12+008899999V0209991C000019999999N0400001N9-01001+99999101901ADDAY121999GF108991031061004501021999MW1021EQDQ01+000032APCTENQ02+000002APC3  
0076010890999991954022106004+69717+029883FM-12+008899999V0209991C00001004501CN0400001N9-00891+99999101961ADDAY111999GF108991061061004501011999IA1319KA1999N-01391MD1210061+9999MW1021
0057010890999991954022109004+69717+029883FM-12+008899999V0209991C000019999999N0600001N9-00781+99999102111ADDAY111999GF105991041081008001041001MD1210151+9999MW1011
0057010890999991954022112004+69717+029883FM-12+008899999V0209991C000019999999N0600001N9-00721+99999102311ADDAY121999GF105991041081008001041001MD1210201+9999MW1021
0057010890999991954022115004+69717+029883FM-12+008899999V0209991C000019999999N0600001N9-00721+99999102511ADDAY121999GF105991041081008001041001MD1310201+9999MW1021
0076010890999991954022118004+69717+029883FM-12+008899999V0209991C000019999999N0600001N9-00781+99999102681ADDAY121999GF108991031081008001011999IA1319KA1999M-00611MD1210171+9999MW1031
0057010890999991954022200004+69717+029883FM-12+008899999V0209991C00001004501CN0400001N9-00891+99999102801ADDAY121999GF105991051051004501999999MD1210041+9999MW1021
0057010890999991954022203004+69717+029883FM-12+008899999V0209991C000019999999N0400001N9-00891+99999103061ADDAY121999GF106991041051008001999999MD1210201+9999MW1021
0076010890999991954022206004+69717+029883FM-12+008899999V0209991C000019999999N0400001N9-00721+99999103021ADDAY121999GF108991031051008001071999IA1319KA1999N-01001MD1210041+9999MW1021
0073010890999991954022209004+69717+029883FM-12+008899999V0209991C00001220001CN0400001N9-00611+99999103171ADDAY121999GA1041+007509059GF107991041051008001071999MD1310151+9999MW1021
0073010890999991954022212004+69717+029883FM-12+008899999V0209991C00001007501CN0400001N9-00391+99999103181ADDAY121999GA1051+007509059GF108991061051008001041999MD1310011+9999MW1021
0073010890999991954022215004+69717+029883FM-12+008899999V0209991C00001010501CN0600001N9-00501+99999103161ADDAY121999GA1051+010509059GF105991051051012501001001MD1710021+9999MW1021
0095010890999991954022218004+69717+029883FM-12+008899999V0202001N00261007801CN0600001N9-00501+99999103161ADDAY121999GF108991081081008001999999IA1319KA1999M-00391MD1410001+9999MW1021EQDQ01+000022APCTEN
0057010890999991954022300004+69717+029883FM-12+008899999V0202001N00261220001CN0600001N9-00891+99999103091ADDAY111999GF100991001001999999001001MD1710021+9999MW1021
0076010890999991954022303004+69717+029883FM-12+008899999V0201801N00261220001CN0600001N9-01001+99999103121ADDAY101999GF101991999001999999041001MD1210031+9999MW1021EQDQ01+000002SCOTLC
0095010890999991954022306004+69717+029883FM-12+008899999V0200901N00261220001CN0400001N9-01111+99999103121ADDAY101999GF103991031001022501041001IA1319KA1999N-01111MD1410001+9999MW1021EQDQ01+000022APCTEN
0076010890999991954022309004+69717+029883FM-12+008899999V0202001N00051220001CN0700001N9-01221+99999103121ADDAY101999GF103991001001999999001021MD1410001+9999MW1021EQDQ01+000022APCTEN
0076010890999991954022312004+69717+029883FM-12+008899999V0202001N00261220001CN0700001N9-01221+99999103121ADDAY101999GF102991001001999999001021MD1410001+9999MW1021EQDQ01+000022APCTEN
0057010890999991954022315004+69717+029883FM-12+008899999V0202001N00261220001CN0600001N9-01281+99999103051ADDAY101999GF103991011061004501041021MD1710071+9999MW1021
0076010890999991954022318004+69717+029883FM-12+008899999V0201901N00261220001CN0600001N9-01391+99999102921ADDAY101999GF102991021061004501041999IA1319KA1999M-01111MD1710131+9999MW1021
0057010890999991954022400004+69717+029883FM-12+008899999V0201901N00461220001CN0600001N9-01001+99999102571ADDAY101999GF101991011061004501041999MD1710201+9999MW1021
0057010890999991954022403004+69717+029883FM-12+008899999V0202001N00671220001CN0600001N9-00891+99999102241ADDAY101999GF101991011061004501041999MD1710331+9999MW1021
0092010890999991954022406004+69717+029883FM-12+008899999V0202101N00671013501CN0600001N9-00721+99999102121ADDAY121999GA1081+013509049GF108991021061004501011999IA1319KA1999N-01391MD1710121+9999MW1031
0092010890999991954022409004+69717+029883FM-12+008899999V0202401N00931009001CN0600001N9-00611+99999102121ADDAY121999GA1051+009009049GF107991051071008001041999MD1410001+9999MW1021EQDQ01+000022APCTEN
0092010890999991954022412004+69717+029883FM-12+008899999V0202401N01231220001CN0600001N9-00611+99999102121ADDAY111999GA1021+009009089GF104991021081008001041021MD1410001+9999MW1011EQDQ01+000022APCTEN
0073010890999991954022415004+69717+029883FM-12+008899999V0202401N00931220001CN0600001N9-00721+99999102201ADDAY111999GA1011+009009089GF103991011081008001001021MD1210081+9999MW1021
0076010890999991954022418004+69717+029883FM-12+008899999V0202401N00931220001CN0600001N9-01111+99999102301ADDAY101999GF102991011081008001999999IA1319KA1999M-00611MD1210101+9999MW1021
0057010890999991954022500004+69717+029883FM-12+008899999V0202401N01031220001CN0400001N9-01111+99999102241ADDAY101999GF103991021081008001999999MD1710041+9999MW1021
0057010890999991954022503004+69717+029883FM-12+008899999V0202401N00931220001CN0400001N9-01281+99999102261ADDAY101999GF103991021081008001999999MD1210021+9999MW1021
0127010890999991954022506004+69717+029883FM-12+008899999V0202301N00771220001CN0400001N9-01221+99999102231ADDAY121999GA1031+018009039GA2021+006009089GF105991041999017501041021IA1319KA1999N-01281MD1710031+9999MW1031EQDQ01+000002SCOLCG
0092010890999991954022509004+69717+029883FM-12+008899999V0202301N00931220001CN0600001N9-01001+99999102231ADDAY111999GA1021+007509089GF104991021081008001041001MD1410001+9999MW1021EQDQ01+000022APCTEN
0073010890999991954022512004+69717+029883FM-12+008899999V0202301N00771220001CN0600001N9-01001+99999102311ADDAY101999GA1011+007509089GF101991011081008001001001MD1210081+9999MW1021
0057010890999991954022515004+69717+029883FM-12+008899999V0202401N00931220001CN0600001N9-01001+99999102271ADDAY101999GF100991001001999999001001MD1710041+9999MW1021
0076010890999991954022518004+69717+029883FM-12+008899999V0202501N00931220001CN0600001N9-01111+99999102361ADDAY101999GF100991001001999999001001IA1319KA1999M-01001MD1710091+9999MW1021
0057010890999991954022600004+69717+029883FM-12+008899999V0202501N00931220001CN0600001N9-01391+99999102451ADDAY101999GF100991001001999999001001MD1210031+9999MW1021
0092010890999991954022603004+69717+029883FM-12+008899999V0202401N00261220001CN0600001N9-01391+99999102451ADDAY101999GF101991999001999999041001MD1410001+9999MW1021EQDQ01+000002SCOTLCQ02+000022APCTEN
0092010890999991954022606004+69717+029883FM-12+008899999V0202401N00931220001CN0600001N9-01281+99999102351ADDAY111999GA1031+006009059GF108991031051008001021999IA1319KA1999N-01611MD1710101+9999MW1021
0073010890999991954022609004+69717+029883FM-12+008899999V0202401N00671220001CN0400001N9-01221+99999102281ADDAY121999GA1031+006009059GF108991051081008001021999MD1710071+9999MW1151
0073010890999991954022612004+69717+029883FM-12+008899999V0202401N00671220001CN0700001N9-01221+99999102221ADDAY111999GA1031+006009089GF103991031021008001001001MD1710061+9999MW1021
0073010890999991954022615004+69717+029883FM-12+008899999V0202401N00671220001CN0600001N9-01281+99999102181ADDAY101999GA1011+006009089GF102991011021008001041001MD1710041+9999MW1021
0076010890999991954022618004+69717+029883FM-12+008899999V0202401N00261220001CN0600001N9-01391+99999102161ADDAY101999GF101991011021008001041001IA1319KA1999M-01221MD1710021+9999MW1021
0057010890999991954022700004+69717+029883FM-12+008899999V0202401N00931220001CN0600001N9-01281+99999102111ADDAY101999GF101991011021008001041001MD1710021+9999MW1021
0057010890999991954022703004+69717+029883FM-12+008899999V0202401N00931220001CN0600001N9-01281+99999102101ADDAY101999GF101991011021008001041001MD1610011+9999MW1021
0092010890999991954022706004+69717+029883FM-12+008899999V0202401N00671006001CN0600001N9-01281+99999102121ADDAY121999GA1061+006009049GF108991061071004501021999IA1319KA1999N-01501MD1210021+9999MW1031
0073010890999991954022709004+69717+029883FM-12+008899999V0202501N00671220001CN0400001N9-01391+99999102171ADDAY101999GA1011+002709079GF101991011061004501041001MD1210051+9999MW1101
0057010890999991954022712004+69717+029883FM-12+008899999V0202501N00461220001CN0400001N9-01391+99999102161ADDAY101999GF101991011061004501041001MD1710011+9999MW1101
0076010890999991954022715004+69717+029883FM-12+008899999V0202301N00261220001CN0600001N9-01501+99999102161ADDAY101999GF101991011061004501001001MD1410001+9999MW1021EQDQ01+000022APCTEN
0076010890999991954022718004+69717+029883FM-12+008899999V0202301N00261220001CN0600001N9-01611+99999102181ADDAY101999GF101991011061004501001001IA1319KA1999M-01281MD1210021+9999MW1021
0057010890999991954022803004+69717+029883FM-12+008899999V0202301N00261220001CN0400001N9-01391+99999102081ADDAY121999GF104991021061004501999999MD1810101+9999MW1021
0076010890999991954022806004+69717+029883FM-12+008899999V0202401N00261021001CN0400001N9-01281+99999102031ADDAY121999GF106991051001022501071021IA1319KA1999N-01721MD1810051+9999MW1031
0076010890999991954022809004+69717+029883FM-12+008899999V0202301N002619999999N0600001N9-01281+99999102031ADDAY121999GF105991041001017501041021MD1410001+9999MW1021EQDQ01+000022APCTEN
0057010890999991954022812004+69717+029883FM-12+008899999V0202301N004619999999N0600001N9-01221+99999102041ADDAY121999GF105991041001017501041021MD1210011+9999MW1021
0057010890999991954022815004+69717+029883FM-12+008899999V0202301N004619999999N0600001N9-01221+99999102021ADDAY121999GF105991031001022501041021MD1710021+9999MW1021
0076010890999991954022818004+69717+029883FM-12+008899999V0202301N004619999999N0600001N9-01281+99999101981ADDAY121999GF105991031001022501041021IA1319KA1999M-01111MD1710041+9999MW1021
0076010890999991954030100004+69717+029883FM-12+008899999V0202401N00461220001CN0600001N9-01501+99999101981ADDAY101999GF101991999001999999041001MD1710051+9999MW1021EQDQ01+000002SCOTLC
0076010890999991954030103004+69717+029883FM-12+008899999V0202401N00261220001CN0600001N9-01501+99999101921ADDAY101999GF101991999001999999041001MD1710061+9999MW1021EQDQ01+000002SCOTLC
0076010890999991954030106004+69717+029883FM-12+008899999V0202401N00261220001CN0600001N9-01501+99999101831ADDAY111999GF104991041001022501041001IA1319KA1999N-01611MD1710091+9999MW1021
0073010890999991954030109004+69717+029883FM-12+008899999V0202401N00261220001CN0600001N9-01281+99999101761ADDAY121999GA1031+006009059GF105991031051008001041021MD1710071+9999MW1021
0073010890999991954030112004+69717+029883FM-12+008899999V0202401N00261220001CN0600001N9-01221+99999101611ADDAY111999GA1021+006009059GF104991021051008001041021MD1710151+9999MW1021
0073010890999991954030115004+69717+029883FM-12+008899999V0201801N00101220001CN0400001N9-01221+99999101481ADDAY121999GA1031+006009059GF108991031051008001021999MD1710131+9999MW1031
0087010890999991954030118004+69717+029883FM-12+008899999V0209991C000019999999N0400001N9-01221+99999101401ADDAA199000391AY171999GF108991041071008001011999IA1319KA1999M-01111MD1710081+9999MW1021
0057010890999991954030200004+69717+029883FM-12+008899999V0201801N00101220001CN0600001N9-01611+99999101281ADDAY101999GF103991031051008001001001MD1710101+9999MW1011
0057010890999991954030203004+69717+029883FM-12+008899999V0201801N00101220001CN0600001N9-01611+99999101211ADDAY101999GF102991021051008001001001MD1710071+9999MW1021
0092010890999991954030206004+69717+029883FM-12+008899999V0201801N00101220001CN0160001N9-01501+99999101101ADDAY121999GA1031+007509059GF106991031051008001071999IA1319KA1999N-01721MD1710111+9999MW1101
0092010890999991954030209004+69717+029883FM-12+008899999V0201901N00101006001CN0130001N9-01111+99999101071ADDAY171999GA1081+006009049GF108991999071008001021999MD1710031+9999MW1711EQDQ01+000082SCOTLC
0073010890999991954030212004+69717+029883FM-12+008899999V0201801N00101006001CN0150001N9-00781+99999101011ADDAY171999GA1051+006009049GF107991051071008001031999MD1710061+9999MW1711
0073010890999991954030215004+69717+029883FM-12+008899999V0201801N00151220001CN0160001N9-00781+99999100971ADDAY121999GA1041+009009059GF107991041051008001041999MD1810041+9999MW1101
0087010890999991954030218004+69717+029883FM-12+008899999V0209991C00001220001CN0400001N9-01001+99999100981ADDAA199000691AY171999GF104991041051008001999999IA1319KA1999M-00781MD1210011+9999MW1021
0057010890999991954030300004+69717+029883FM-12+008899999V0209991C00001220001CN0400001N9-01221+99999100901ADDAY121999GF104991041051008001999999MD1710031+9999MW1021
0076010890999991954030303004+69717+029883FM-12+008899999V0209991C00001007801CN0400001N9-01001+99999100901ADDAY121999GF106991061051008001999999MD1410001+9999MW1021EQDQ01+000022APCTEN
0103010890999991954030306004+69717+029883FM-12+008899999V0201801N00051007501CN0100001N9-00891+99999100641ADDAA199000691AY171999GA1081+007509049GF108991081001008001021999IA1319KA1999N-01281MD1710261+9999MW1711
0073010890999991954030309004+69717+029883FM-12+008899999V0209991C00001006001CN0040001N9-00721+99999100571ADDAY171999GA1081+006009049GF108991081001004501021999MD1710071+9999MW1711
0108010890999991954030312004+69717+029883FM-12+008899999V0209991C00001220001CN0160001N9-00611+99999100571ADDAY171999GA1031+007509059GA2031+015009039GF106991031051004501041999MD1410001+9999MW1101EQDQ01+000022APCTEN
0073010890999991954030315004+69717+029883FM-12+008899999V0209991C00001220001CN0200001N9-00891+99999100551ADDAY121999GA1031+009009059GF106991031051008001041071MD1710021+9999MW1101
0087010890999991954030318004+69717+029883FM-12+008899999V0202401N001019999999N0200001N9-00891+99999100521ADDAA199000691AY121999GF107991031051008001041999IA1319KA1999M-00611MD1710031+9999MW1101
0078010890999991954030400004+69717+029883FM-12+008899999V0202201N000519999999N0400001N9-00781+99999100521ADDAY121999GF108991041051008001041999MW1021EQDQ01+000032APCTENQ02+000002APC3  
0057010890999991954030403004+69717+029883FM-12+008899999V0209991C000019999999N0200001N9-00781+99999100481ADDAY121999GF108991041051008001041999MD1810041+9999MW1201
0076010890999991954030406004+69717+029883FM-12+008899999V0209991C000019999999N0200001N9-00781+99999100441ADDAY121999GF108991031051008001041071IA1319KA1999N-00891MD1810041+9999MW1101
0089010890999991954030409004+69717+029883FM-12+008899999V0209991C00001015001CN0150001N9-00611+99999100431ADDAY121999GA1021+006009059GA2081+015009049GF108991021051008001011999MD1810011+9999MW1701
0073010890999991954030412004+69717+029883FM-12+008899999V0209991C00001015001CN0400001N9-00391+99999100401ADDAY121999GA1081+015009049GF108991081001017501011999MD1810031+9999MW1151
0108010890999991954030415004+69717+029883FM-12+008899999V0209991C00001006001CN0160001N9-00501+99999100401ADDAY171999GA1081+006009049GF108991999071004501011999MD1410001+9999MW1151EQDQ01+000082SCOTLCQ02+000032APCTEN
0087010890999991954030418004+69717+029883FM-12+008899999V0201801N00101004501CN0200001N9-00781+99999100481ADDAA199000691AY121999GF106991051071004501031999IA1319KA1999M-00391MD1210081+9999MW1101
0057010890999991954030500004+69717+029883FM-12+008899999V0209991C00001004501CN0160001N9-00781+99999100621ADDAY121999GF108991061071004501011999MD1210101+9999MW1701
0057010890999991954030503004+69717+029883FM-12+008899999V0201801N00101004501CN0200001N9-00781+99999100661ADDAY171999GF108991061071004501011999MD1210041+9999MW1021
0122010890999991954030506004+69717+029883FM-12+008899999V0201801N00101006001CN0200001N9-00611+99999100741ADDAA199000691AY121999GA1081+006009049GF108991999071004501021999IA1319KA1999N-00891MD1210081+9999MW1101EQDQ01+000082SCOTLC
0092010890999991954030509004+69717+029883FM-12+008899999V0209991C00001006001CN0150001N9-00501+99999100821ADDAY171999GA1081+006009049GF108991999071004501021999MD1210081+9999MW1711EQDQ01+000082SCOTLC
0073010890999991954030512004+69717+029883FM-12+008899999V0209991C00001007501CN0160001N9-00391+99999100871ADDAY171999GA1061+007509059GF108991061051008001011999MD1210051+9999MW1711
0089010890999991954030515004+69717+029883FM-12+008899999V0209991C00001009001CN0160001N9-00391+99999100841ADDAY171999GA1041+006009059GA2081+009009049GF108991041051004501021999MD1710031+9999MW1711
0106010890999991954030518004+69717+029883FM-12+008899999V0201801N00051004501CN0200001N9-00501+99999100841ADDAA199000691AY171999GF108991051051004501021999IA1319KA1999M-00391MD1410001+9999MW1711EQDQ01+000022APCTEN
0057010890999991954030600004+69717+029883FM-12+008899999V0209991C000019999999N0200001N9-00501+99999100791ADDAY171999GF108991041051004501021999MD1710031+9999MW1711
0057010890999991954030603004+69717+029883FM-12+008899999V0209991C000019999999N0200001N9-00501+99999100691ADDAY171999GF108991041051004501021999MD1810101+9999MW1711
0103010890999991954030606004+69717+029883FM-12+008899999V0209991C00001006001CN0400001N9-00281+99999100671ADDAA199000691AY171999GA1051+006009059GF108991051051004501021999IA1319KA1999N-00501MD1710051+9999MW1021
0108010890999991954030609004+69717+029883FM-12+008899999V0202001N00101007501CN0200001N9-00221+99999100671ADDAY171999GA1041+006009059GA2081+007509049GF108991041051004501021999MD1410001+9999MW1711EQDQ01+000022APCTEN
0073010890999991954030612004+69717+029883FM-12+008899999V0202001N00101006001CN0200001N9-00111+99999100591ADDAY171999GA1051+006009059GF107991051051004501041999MD1710081+9999MW1101
0073010890999991954030615004+69717+029883FM-12+008899999V0202001N00051220001CN0400001N9-00111+99999100501ADDAY121999GA1041+006009059GF108991041051008001071999MD1710091+9999MW1021
0087010890999991954030618004+69717+029883FM-12+008899999V0202001N000519999999N0400001N9-00221+99999100301ADDAA199000691AY121999GF108991041051008001071999IA1319KA1999M-00111MD1710201+9999MW1021
0057010890999991954030703004+69717+029883FM-12+008899999V0201801N00101004501CN0400001N9+00001+99999099601ADDAY171999GF108991051071004501071999MD1710201+9999MW1021
0087010890999991954030706004+69717+029883FM-12+008899999V0202201N00261007801CN0400001N9+00221+99999099511ADDAA199005091AY121999GF108991051081008001071999IA1319KA1999N-00221MD1710091+9999MW1021
0057010890999991954030709004+69717+029883FM-12+008899999V0202201N006719999999N0600001N9+00221+99999099761ADDAY111999GF106991031081008001041001MD1210251+9999MW1021
0057010890999991954030712004+69717+029883FM-12+008899999V0202401N00671007801CN0600001N9+00281+99999100131ADDAY121999GF108991051081008001071999MD1210371+9999MW1021
0057010890999991954030715004+69717+029883FM-12+008899999V0202401N00461007801CN0600001N9+00221+99999100431ADDAY181999GF108991051091008001071999MD1210301+9999MW1251
0087010890999991954030718004+69717+029883FM-12+008899999V0202501N00461007801CN0600001N9+00111+99999100661ADDAA199000391AY121999GF108991051081008001071999IA1319KA1999M+00281MD1210231+9999MW1021
0057010890999991954030800004+69717+029883FM-12+008899999V0202401N00671007801CN0600001N9+00001+99999100931ADDAY121999GF108991061081008001071999MD1210151+9999MW1021
0057010890999991954030803004+69717+029883FM-12+008899999V0202501N00931007801CN0600001N9+00001+99999101041ADDAY121999GF108991061081008001071999MD1210111+9999MW1021
0092010890999991954030806004+69717+029883FM-12+008899999V0202501N00461007501CN0600001N9+00001+99999101161ADDAY121999GA1061+007509059GF108991061051008001071999IA1319KA1999N+00001MD1210121+9999MW1021
0073010890999991954030809004+69717+029883FM-12+008899999V0202501N00461220001CN0600001N9+00111+99999101311ADDAY101999GA1031+007509059GF103991031051008001041001MD1210151+9999MW1011
0073010890999991954030812004+69717+029883FM-12+008899999V0201701N00261007501CN0400001N9+00221+99999101281ADDAY121999GA1051+007509089GF106991051081008001041021MD1990021+9999MW1101
0073010890999991954030815004+69717+029883FM-12+008899999V0202401N00461220001CN0400001N9+00111+99999101231ADDAY121999GA1041+007509059GF106991041051008001041021MD1810051+9999MW1101
0076010890999991954030818004+69717+029883FM-12+008899999V0202001N00461004501CN0400001N9+00221+99999101151ADDAY121999GF107991051051004501999999IA1319KA1999M+00221MD1810081+9999MW1101
0057010890999991954030900004+69717+029883FM-12+008899999V0202301N006719999999N0400001N9+00001+99999100831ADDAY121999GF108991041051004501999999MD1810101+9999MW1021
0057010890999991954030903004+69717+029883FM-12+008899999V0202001N007719999999N0400001N9+00001+99999100751ADDAY121999GF108991041051004501999999MD1810081+9999MW1021
0103010890999991954030906004+69717+029883FM-12+008899999V0202001N00931006001CN0200001N9-00111+99999100551ADDAA199000691AY171999GA1051+006009059GF108991051051004501021999IA1319KA1999N-00111MD1810201+9999MW1711
0073010890999991954030909004+69717+029883FM-12+008899999V0202001N00931006001CN0400001N9-00111+99999100441ADDAY171999GA1051+006009059GF108991081081004501999999MD1710111+9999MW1021
0073010890999991954030912004+69717+029883FM-12+008899999V0202001N00931006001CN0400001N9+00001+99999100341ADDAY121999GA1061+006009059GF108991081081004501999999MD1710101+9999MW1021
0073010890999991954030915004+69717+029883FM-12+008899999V0201801N00671006001CN0400001N9+00111+99999100331ADDAY121999GA1051+006009059GF108991051051008001021999MD1710011+9999MW1021
0076010890999991954030918004+69717+029883FM-12+008899999V0202401N00671007801CN0400001N9+00221+99999100201ADDAY121999GF107991051081008001071999IA1009KA1999M+00221MD1710131+9999MW1021
0057010890999991954031000004+69717+029883FM-12+008899999V0202401N009319999999N0600001N9+00281+99999100371ADDAY111999GF106991041081008001041999MD1210081+9999MW1021
0092010890999991954031003004+69717+029883FM-12+008899999V0202401N00931220001CN0600001N9+00221+99999100361ADDAY111999GF104991021081008001041001MD1710011+9999MW1021EQDQ01+000022APCTENQ02+000002APC3  
0092010890999991954031006004+69717+029883FM-12+008899999V0202401N00671220001CN0600001N9+00111+99999100391ADDAY111999GA1011+006009059GF103991011051008001041021IA1319KA1999N+00111MD1210031+9999MW1021
0092010890999991954031009004+69717+029883FM-12+008899999V0202401N00931220001CN0600001N9+00111+99999100391ADDAY111999GA1021+006009089GF105991031081008001041001MD1410001+9999MW1021EQDQ01+000022APCTEN
0073010890999991954031012004+69717+029883FM-12+008899999V0202401N00931220001CN0600001N9+00221+99999100451ADDAY121999GA1021+006009089GF104991031081008001041001MD1210131+9999MW1021
0073010890999991954031015004+69717+029883FM-12+008899999V0202401N00931220001CN0600001N9+00281+99999100551ADDAY101999GA1011+006009089GF103991011081008001041021MD1210101+9999MW1021
0076010890999991954031018004+69717+029883FM-12+008899999V0202401N00461220001CN0600001N9+00111+99999100621ADDAY101999GF104991011081008001041021IA1319KA1999M+00281MD1210071+9999MW1021
0057010890999991954031100004+69717+029883FM-12+008899999V0202401N00931220001CN0600001N9+00001+99999100361ADDAY121999GF104991021081008001041999MD1710151+9999MW1021
0057010890999991954031103004+69717+029883FM-12+008899999V0202601N00931220001CN0600001N9+00001+99999100281ADDAY121999GF104991021081008001041999MD1710081+9999MW1021
0092010890999991954031106004+69717+029883FM-12+008899999V0202601N00931220001CN0600001N9+00001+99999100151ADDAY121999GA1031+006009089GF105991031081008001031999IA1319KA1999N-00111MD1710131+9999MW1021
0108010890999991954031109004+69717+029883FM-12+008899999V0202701N00671220001CN0600001N9+00001+99999100251ADDAY121999GA1021+006009099GF106991021091008001031021MD1210101+9999MW1021EQDQ01+000042APCTENQ02+000032APC3  
0073010890999991954031112004+69717+029883FM-12+008899999V0202701N00671220001CN0600001N9+00001+99999100491ADDAY181999GA1011+006009099GF102991011091008001041021MD1210241+9999MW1011
0073010890999991954031115004+69717+029883FM-12+008899999V0202401N00771220001CN0600001N9-00111+99999100651ADDAY101999GA1011+007509089GF102991011081008001041001MD1210161+9999MW1021
0087010890999991954031118004+69717+029883FM-12+008899999V0202401N00931220001CN0600001N9-00281+99999100711ADDAA199000691AY101999GF102991021001022501041001IA1319KA1999M+00111MD1210061+9999MW1021
0057010890999991954031200004+69717+029883FM-12+008899999V0202301N00931220001CN0400001N9-00391+99999100811ADDAY101999GF103991031001017501041999MD1210021+9999MW1021
0057010890999991954031203004+69717+029883FM-12+008899999V0202301N00771004501CN0200001N9-00391+99999101001ADDAY181999GF107991051091004501041999MD1210191+9999MW1851
0103010890999991954031206004+69717+029883FM-12+008899999V0202301N00771006001CN0600001N9-00781+99999101091ADDAA199000691AY181999GA1051+006009099GF105991041091004501041001IA1319KA1999N-00781MD1210091+9999MW1021
0073010890999991954031209004+69717+029883FM-12+008899999V0202301N00671220001CN0700001N9-00611+99999101251ADDAY111999GA1031+007509089GF105991031081008001041001MD1210161+9999MW1021
0073010890999991954031212004+69717+029883FM-12+008899999V0202301N00771006001CN0040001N9-00501+99999101421ADDAY111999GA1081+006009099GF108991081091004501999999MD1210171+9999MW1861
0073010890999991954031215004+69717+029883FM-12+008899999V0200201N00931004501CN0600001N9-00501+99999101741ADDAY181999GA1051+004509099GF107991071091004501001001MD1210321+9999MW1021
0087010890999991954031218004+69717+029883FM-12+008899999V0203601N00461220001CN0600001N9-00611+99999101951ADDAA199000691AY101999GF102991011021008001041001IA1319KA1999M-00391MD1210211+9999MW1021
0057010890999991954031300004+69717+029883FM-12+008899999V0202801N00931220001CN0400001N9-00891+99999101921ADDAY101999GF102991011031008001041001MD1710101+9999MW1021
0057010890999991954031303004+69717+029883FM-12+008899999V0202801N00931220001CN0400001N9-00891+99999101831ADDAY111999GF103991011031008001041001MD1710101+9999MW1021
0092010890999991954031306004+69717+029883FM-12+008899999V0202701N00931220001CN0400001N9-00781+99999101891ADDAY121999GA1021+004509099GF104991021031008001041001IA1319KA1999N-01111MD1210061+9999MW1151
0073010890999991954031309004+69717+029883FM-12+008899999V0202501N00931004501CN0040001N9-00721+99999102021ADDAY181999GA1081+004509099GF108991081091004501999999MD1210121+9999MW1841
0092010890999991954031312004+69717+029883FM-12+008899999V0202701N00671004501CN0200001N9-00611+99999102021ADDAY181999GA1081+004509099GF108991081091004501999999MD1410001+9999MW1151EQDQ01+000022APCTEN
0073010890999991954031315004+69717+029883FM-12+008899999V0202701N00671004501CN0400001N9-00501+99999101761ADDAY181999GA1081+004509099GF108991081091004501999999MD1710261+9999MW1021
0087010890999991954031318004+69717+029883FM-12+008899999V0202701N00671004501CN0400001N9-00501+99999101531ADDAA199000591AY121999GF107991061031004501041999IA1319KA1999M-00391MD1710231+9999MW1021
0057010890999991954031403004+69717+029883FM-12+008899999V0203401N00461007801CN0600001N9-00391+99999101081ADDAY121999GF108991051031008001011999MD1710101+9999MW1021
0111010890999991954031406004+69717+029883FM-12+008899999V0200101N00671220001CN0600001N9-00501+99999101111ADDAY111999GF103991021021008001041021IA1319KA1999N-00501MD1210031+9999MW1011EQDQ01+000042APCTENQ02+000122APC3  
0057010890999991954031409004+69717+029883FM-12+008899999V0200101N00671220001CN0600001N9-00501+99999101311ADDAY121999GF104991031031004501041021MD1210201+9999MW1021
0057010890999991954031412004+69717+029883FM-12+008899999V0200401N00671004501CN0400001N9-00611+99999101401ADDAY181999GF107991061091004501041999MD1110091+9999MW1151
0057010890999991954031415004+69717+029883FM-12+008899999V0201201N00261007801CN0400001N9-00721+99999101381ADDAY181999GF108991061091008001021999MD1710021+9999MW1021
0087010890999991954031418004+69717+029883FM-12+008899999V0200801N00101007801CN0400001N9-00781+99999101321ADDAA199000691AY171999GF108991051071008001021999IA1319KA1999M-00501MD1710061+9999MW1021
0057010890999991954031500004+69717+029883FM-12+008899999V0202001N001519999999N0400001N9-01111+99999101061ADDAY121999GF107991041071004501011999MD1810251+9999MW1021
0057010890999991954031503004+69717+029883FM-12+008899999V0202001N002619999999N0400001N9-01221+99999100641ADDAY121999GF108991031071004501021999MD1810221+9999MW1021
0103010890999991954031506004+69717+029883FM-12+008899999V0209991C00001006001CN0050001N9-01001+99999100231ADDAA199001091AY171999GA1081+006009049GF108991081001004501021999IA1319KA1999N-01281MD1810411+9999MW1731
0073010890999991954031509004+69717+029883FM-12+008899999V0201801N00101004501CN0010001N9-00781+99999099831ADDAY171999GA1081+004509049GF108991081001004501021999MD1810401+9999MW1731
0073010890999991954031512004+69717+029883FM-12+008899999V0209991C00001004501CN0020001N9-00781+99999099461ADDAY171999GA1081+004509049GF108991081001004501021999MD1810371+9999MW1731
0073010890999991954031515004+69717+029883FM-12+008899999V0209991C00001006001CN0020001N9-00721+99999099101ADDAY171999GA1081+006009049GF108991081001008001021999MD1810361+9999MW1711
0087010890999991954031518004+69717+029883FM-12+008899999V0209991C00001007801CN0040001N9-00781+99999098921ADDAA199003091AY171999GF108991081001008001021999IA1319KA1999M-00721MD1810181+9999MW1711
0057010890999991954031600004+69717+029883FM-12+008899999V0203601N00931004501CN0010001N9-00501+99999098831ADDAY131999GF108991081091004501999999MD1810051+9999MW1851
0057010890999991954031603004+69717+029883FM-12+008899999V0203601N01231004501CN0400001N9-00611+99999099091ADDAY181999GF105991051091004501001001MD1210161+9999MW1361
0103010890999991954031606004+69717+029883FM-12+008899999V0200201N01231004501CN0400001N9-00281+99999099281ADDAA199002091AY181999GA1051+004509099GF105991051091004501001001IA1319KA1999N-00781MD1210201+9999MW1271
0073010890999991954031609004+69717+029883FM-12+008899999V0203601N01231004501CN0400001N9-00281+99999099631ADDAY181999GA1051+004509099GF105991051091004501001001MD1210351+9999MW1151
0073010890999991954031612004+69717+029883FM-12+008899999V0203601N00931004501CN0020001N9-00281+99999099721ADDAY181999GA1081+004509099GF108991081091004501999999MD1210101+9999MW1861
0073010890999991954031615004+69717+029883FM-12+008899999V0200101N01231002401CN0120001N9-00391+99999100201ADDAY181999GA1081+002409099GF108991081091004501999999MD1210481+9999MW1151
0087010890999991954031618004+69717+029883FM-12+008899999V0200101N00931004501CN0400001N9-00501+99999100551ADDAA199000591AY181999GF106991051081004501041999IA1319KA1999M-00221MD1210351+9999MW1021
0057010890999991954031700004+69717+029883FM-12+008899999V0200101N009319999999N0400001N9-00781+99999100831ADDAY181999GF105991041091004501041999MD1210151+9999MW1021
0057010890999991954031703004+69717+029883FM-12+008899999V0200101N00931004501CN0010001N9-00721+99999100901ADDAY181999GF108991081091004501999999MD1210071+9999MW1861
0103010890999991954031706004+69717+029883FM-12+008899999V0203601N00931220001CN0400001N9-00611+99999100941ADDAA199000691AY121999GA1041+004509099GF106991041091004501041021IA1319KA1999N-00781MD1210041+9999MW1021
0073010890999991954031709004+69717+029883FM-12+008899999V0203401N00671220001CN0600001N9-00611+99999100961ADDAY121999GA1031+005409099GF104991031091004501041001MD1310021+9999MW1021
0108010890999991954031712004+69717+029883FM-12+008899999V0203401N00671220001CN0600001N9-00501+99999100931ADDAY121999GA1041+006009099GF105991041091004501041001MD1710031+9999MW1021EQDQ01+000092APCTENQ02+000002APC3  
0073010890999991954031715004+69717+029883FM-12+008899999V0203401N00771006001CN0400001N9-00611+99999100861ADDAY121999GA1071+006009099GF107991071091004501999999MD1810071+9999MW1151
0076010890999991954031718004+69717+029883FM-12+008899999V0203401N007719999999N0400001N9-00781+99999100741ADDAY121999GF105991031091004501041021IA1319KA1999M-00501MD1810121+9999MW1021
0057010890999991954031800004+69717+029883FM-12+008899999V0203401N00931015001CN0400001N9-00891+99999100551ADDAY121999GF108991081001017501011999MD1810081+9999MW1021
0057010890999991954031803004+69717+029883FM-12+008899999V0203401N009319999999N0400001N9-00891+99999100461ADDAY121999GF107991041051008001011999MD1810091+9999MW1021
0092010890999991954031806004+69717+029883FM-12+008899999V0203401N00931220001CN0400001N9-00781+99999100421ADDAY121999GA1041+006009099GF108991041091004501011999IA1319KA1999N-01001MD1810041+9999MW1021
0073010890999991954031809004+69717+029883FM-12+008899999V0203001N00931006001CN0030001N9-00611+99999100381ADDAY111999GA1081+006009099GF108991081091004501999999MD1710041+9999MW1861
0073010890999991954031812004+69717+029883FM-12+008899999V0203401N00931006001CN0400001N9-00611+99999100401ADDAY181999GA1081+006009099GF108991081091004501999999MD1210021+9999MW1021
0073010890999991954031815004+69717+029883FM-12+008899999V0203401N00931006001CN0400001N9-00391+99999100451ADDAY181999GA1061+006009099GF108991081091004501999999MD1210051+9999MW1021
0087010890999991954031818004+69717+029883FM-12+008899999V0203401N00671004501CN0400001N9-00391+99999100501ADDAA199000591AY121999GF107991071091004501999999IA1319KA1999M-00391MD1210051+9999MW1021
0078010890999991954031900004+69717+029883FM-12+008899999V0203201N00461007801CN0400001N9-00611+99999100531ADDAY121999GF106991051031008001041001MW1021EQDQ01+000032APCTENQ02+000002APC3  
0076010890999991954031903004+69717+029883FM-12+008899999V0209991C000019999999N0400001N9-00611+99999100531ADDAY121999GF105991041031008001041001MD1410001+9999MW1021EQDQ01+000032APCTEN
0092010890999991954031906004+69717+029883FM-12+008899999V0209991C00001220001CN0400001N9-01111+99999100591ADDAY121999GA1011+006009089GF102991011021008001041001IA1319KA1999N-01221MD1310061+9999MW1021
0089010890999991954031909004+69717+029883FM-12+008899999V0209991C00001018001CN0400001N9-00891+99999100571ADDAY111999GA1011+006009079GA2081+018009049GF108991011061008001011999MD1990041+9999MW1031
0089010890999991954031912004+69717+029883FM-12+008899999V0202001N00461018001CN0400001N9-00501+99999100501ADDAY121999GA1011+006009089GA2081+018009049GF108991011021008001011999MD1810071+9999MW1021
0092010890999991954031915004+69717+029883FM-12+008899999V0209991C00001006001CN0100001N9-00501+99999100261ADDAY171999GA1081+006009049GF108991999071004501021999MD1710241+9999MW1701EQDQ01+000082SCOTLC
0106010890999991954031918004+69717+029883FM-12+008899999V0202401N00261004501CN0080001N9-00281+99999099901ADDAA199001091AY171999GF108991999071004501021999IA1319KA1999M-00281MD1710361+9999MW1711EQDQ01+000082SCOTLC
0057010890999991954032000004+69717+029883FM-12+008899999V0202801N012319999999N0400001N9+00111+99999099571ADDAY121999GF108991031061008001021999MD1710201+9999MW1021
0057010890999991954032003004+69717+029883FM-12+008899999V0202801N012319999999N0400001N9+00111+99999099591ADDAY121999GF108991041061004501021999MD1410001+9999MW1021
0122010890999991954032006004+69717+029883FM-12+008899999V0202801N00931006001CN0160001N9+00221+99999099631ADDAA199000691AY171999GA1081+006009049GF108991999071004501021999IA1319KA1999N-00281MD1210041+9999MW1681EQDQ01+000082SCOTLC
0073010890999991954032009004+69717+029883FM-12+008899999V0202701N01231007501CN0400001N9+00281+99999099711ADDAY171999GA1061+007509059GF107991061051008001031999MD1210081+9999MW1011
0073010890999991954032012004+69717+029883FM-12+008899999V0202601N00671007501CN0400001N9+00281+99999099821ADDAY121999GA1061+007509059GF107991061051008001071999MD1210111+9999MW1021
0089010890999991954032015004+69717+029883FM-12+008899999V0202401N01031220001CN0600001N9+00391+99999099811ADDAY121999GA1031+006009099GA2041+007509059GF108991041051008001041999MD1710011+9999MW1021
0087010890999991954032018004+69717+029883FM-12+008899999V0202401N00461007801CN0600001N9+00391+99999099791ADDAA199000691AY121999GF108991051051008001041999IA1319KA1999M+00391MD1710021+9999MW1021
0057010890999991954032103004+69717+029883FM-12+008899999V0202401N004619999999N0400001N9+00391+99999099751ADDAY171999GF108991031071004501021999MD1810011+9999MW1021
0087010890999991954032106004+69717+029883FM-12+008899999V0202401N007719999999N0400001N9+00391+99999099781ADDAA199000691AY121999GF108991031071004501021999IA1319KA1999N+00391MD1210031+9999MW1021
0057010890999991954032109004+69717+029883FM-12+008899999V0202401N007719999999N0400001N9+00391+99999099871ADDAY171999GF108991031071004501021999MD1210091+9999MW1021
0057010890999991954032112004+69717+029883FM-12+008899999V0202401N004619999999N0600001N9+00501+99999099921ADDAY121999GF106991041051008001041001MD1310051+9999MW1011
0076010890999991954032115004+69717+029883FM-12+008899999V0202401N004619999999N0600001N9+00501+99999099921ADDAY121999GF107991041051008001041999MD1410001+9999MW1021EQDQ01+000032APCTEN
0087010890999991954032118004+69717+029883FM-12+008899999V0202401N004619999999N0600001N9+00501+99999099861ADDAA199000691AY121999GF106991041051008001041001IA1199KA1999M+00611MD1710061+9999MW1021
0057010890999991954032200004+69717+029883FM-12+008899999V0202001N001019999999N0400001N9+00281+99999099851ADDAY121999GF105991031081008001041001MD1810011+9999MW1021
0057010890999991954032203004+69717+029883FM-12+008899999V0209991C00001220001CN0400001N9+00001+99999099671ADDAY121999GF104991021081008001041001MD1810181+9999MW1021
0076010890999991954032206004+69717+029883FM-12+008899999V0209991C000019999999N0400001N9+00001+99999099551ADDAY121999GF105991031081008001041001IA1199KA1999N+00001MD1810121+9999MW1021
0073010890999991954032209004+69717+029883FM-12+008899999V0202401N00261220001CN0400001N9+00001+99999099351ADDAY121999GA1031+006009089GF107991051081008001041999MD1810201+9999MW1021
0073010890999991954032212004+69717+029883FM-12+008899999V0202401N00261220001CN0400001N9+00111+99999099201ADDAY121999GA1031+006009089GF108991041081008001071999MD1810151+9999MW1021
0073010890999991954032215004+69717+029883FM-12+008899999V0202401N00261006001CN0160001N9+00001+99999099011ADDAY181999GA1051+006009099GF108991051091012501071999MD1810191+9999MW1851
0087010890999991954032218004+69717+029883FM-12+008899999V0209991C000019999999N0400001N9+00001+99999098861ADDAA199000691AY181999GF108991031091008001021999IA1199KA1999M+00111MD1710151+9999MW1021
0057010890999991954032300004+69717+029883FM-12+008899999V0209991C00001220001CN0400001N9+00001+99999098711ADDAY101999GF103991021061008001041999MD1710051+9999MW1011
0076010890999991954032303004+69717+029883FM-12+008899999V0209991C00001007801CN0400001N9+00001+99999098711ADDAY121999GF106991061061008001999999MD1410001+9999MW1031EQDQ01+000032APCTEN
0092010890999991954032306004+69717+029883FM-12+008899999V0202701N00101220001CN0600001N9-00111+99999098751ADDAY101999GA1021+003009079GF103991021061004501041021IA1319KA1999N-00221MD1210041+9999MW1011
