0057011520999991952010100004+67283+014417FM-12+001399999V0200901N00411220001CN0600001N9+00221-00501098031ADDAY121999GF104991021081012501041001MD1710081+9999MW1021
0057011520999991952010103004+67283+014417FM-12+001399999V0200701N00411220001CN0600001N9+00221-00501097941ADDAY121999GF104991021081012501041001MD1710091+9999MW1021
0076011520999991952010106004+67283+014417FM-12+001399999V0200901N00411220001CN0600001N9+00221-00501097881ADDAY121999GF104991021081012501041001IA1089KA1999N+00111MD1710061+9999MW1021
0057011520999991952010109004+67283+014417FM-12+001399999V0200701N00511220001CN0600001N9+00221-00391097911ADDAY121999GF108991001001999999071999MD1210031+9999MW1021
0092011520999991952010112004+67283+014417FM-12+001399999V0200901N004119999999N0600001N9+00221-00281097961ADDAY121999GF108991011021008001071999MD1210051+9999MW1021EQDQ01+000042APCTENQ02+000052APC3  
0057011520999991952010115004+67283+014417FM-12+001399999V0200901N004119999999N0600001N9+00221-00281097971ADDAY121999GF108991021021012501071999MD1310011+9999MW1021
0076011520999991952010118004+67283+014417FM-12+001399999V0200901N00411220001CN0400001N9+00111-00111098021ADDAY121999GF103991031021012501001001IA1089KA1999M+00281MD1310051+9999MW1011
0057011520999991952010200004+67283+014417FM-12+001399999V0200901N00411220001CN0600001N9+00221-00391098101ADDAY121999GF103991011081012501041001MD1210031+9999MW1021
0057011520999991952010203004+67283+014417FM-12+001399999V0200901N00511220001CN0600001N9+00111-00501098191ADDAY121999GF103991011081012501041001MD1310091+9999MW1021
0076011520999991952010206004+67283+014417FM-12+001399999V0200901N00511220001CN0600001N9+00111-00501098281ADDAY101999GF103991011011012501041001IA1089KA1999N+00001MD1210091+9999MW1021
0108011520999991952010209004+67283+014417FM-12+001399999V0201101N00621220001CN0600001N9+00111-00501098421ADDAY121999GF107991999001999999071001MD1210141+9999MW1031EQDQ01+000002SCOTLCQ02+000042APCTENQ03+000142APC3  
0076011520999991952010212004+67283+014417FM-12+001399999V0200901N00621220001CN0600001N9+00001-00611098521ADDAY111999GF103991999001999999041001MD1310101+9999MW1011EQDQ01+000002SCOTLC
0057011520999991952010215004+67283+014417FM-12+001399999V0200901N00621220001CN0600001N9+00001-00501098611ADDAY101999GF101991011011017501041001MD1310091+9999MW1021
0076011520999991952010218004+67283+014417FM-12+001399999V0201101N00621220001CN0600001N9+00001-00501098661ADDAY101999GF101991011011017501001001IA1139KA1999M+00111MD1310051+9999MW1021
0057011520999991952010300004+67283+014417FM-12+001399999V0200901N00511220001CN0700001N9+00001-00611098781ADDAY101999GF102991011011012501041001MD1310031+9999MW1021
0057011520999991952010303004+67283+014417FM-12+001399999V0200901N00621220001CN0700001N9-00111-00721098841ADDAY101999GF102991011011012501041001MD1310061+9999MW1021
0076011520999991952010306004+67283+014417FM-12+001399999V0200901N00511220001CN0700001N9+00001-00611098931ADDAY101999GF102991011011012501041001IA1139KA1999N-00111MD1310091+9999MW1021
0057011520999991952010309004+67283+014417FM-12+001399999V0200901N00511220001CN0700001N9-00111-00781099091ADDAY101999GF103991021011012501041011MD1210161+9999MW1021
0057011520999991952010312004+67283+014417FM-12+001399999V0200901N00721220001CN0700001N9-00111-00781099161ADDAY101999GF103991021011012501041011MD1210071+9999MW1021
0057011520999991952010315004+67283+014417FM-12+001399999V0200901N00511012301CN0700001N9-00111-00781099281ADDAY121999GF107991051011012501041001MD1210121+9999MW1031
0076011520999991952010318004+67283+014417FM-12+001399999V0200901N00511220001CN0700001N9-00221-00891099471ADDAY101999GF102991021011012501041001IA1139KA1999M+00111MD1210191+9999MW1011
0057011520999991952010400004+67283+014417FM-12+001399999V0200901N004119999999N0600001N9-00111-00891099781ADDAY121999GF105991021081012501071001MD1210141+9999MW1021
0057011520999991952010403004+67283+014417FM-12+001399999V0200901N00511220001CN0600001N9-00281-01001099961ADDAY101999GF102991011011012501041001MD1310181+9999MW1011
0076011520999991952010406004+67283+014417FM-12+001399999V0200901N00511220001CN0600001N9-00391-01111100131ADDAY101999GF102991011011012501041001IA1139KA1999N-00391MD1310171+9999MW1021
0076011520999991952010409004+67283+014417FM-12+001399999V0200901N00511220001CN0700001N9-00391-01001100411ADDAY101999GF101991999001999999041001MD1310281+9999MW1021EQDQ01+000002SCOTLC
0076011520999991952010412004+67283+014417FM-12+001399999V0200901N00621220001CN0700001N9-00391-01001100611ADDAY101999GF101991999001999999071001MD1210201+9999MW1021EQDQ01+000002SCOTLC
0076011520999991952010415004+67283+014417FM-12+001399999V0200901N00621220001CN0700001N9-00391-01001100801ADDAY101999GF101991999001999999071001MD1210191+9999MW1021EQDQ01+000002SCOTLC
0095011520999991952010418004+67283+014417FM-12+001399999V0200901N00621220001CN0700001N9-00391-01001100951ADDAY101999GF102991999001999999071001IA1139KA1999M-00391MD1210151+9999MW1011EQDQ01+000002SCOTLC
0076011520999991952010500004+67283+014417FM-12+001399999V0200901N00621220001CN0700001N9-00501-01111101291ADDAY101999GF101991999001999999041001MD1210161+9999MW1021EQDQ01+000002SCOTLC
0057011520999991952010503004+67283+014417FM-12+001399999V0200901N00621220001CN0700001N9-00501-01111101481ADDAY101999GF100991001001999999001001MD1310191+9999MW1021
0095011520999991952010506004+67283+014417FM-12+001399999V0200901N00621220001CN0700001N9-00501-01221101651ADDAY101999GF101991999001999999041001IA1139KA1999N-00501MD1210171+9999MW1021EQDQ01+000002SCOTLC
0076011520999991952010509004+67283+014417FM-12+001399999V0200901N00511220001CN0700001N9-00391-01111101811ADDAY101999GF101991999001999999041001MD1310161+9999MW1021EQDQ01+000002SCOTLC
0076011520999991952010512004+67283+014417FM-12+001399999V0200901N00621220001CN0700001N9-00391-01111101861ADDAY101999GF101991999001999999041001MD1210051+9999MW1021EQDQ01+000002SCOTLC
0076011520999991952010515004+67283+014417FM-12+001399999V0201101N00621220001CN0700001N9-00221-01001101941ADDAY101999GF101991999001999999041001MD1010081+9999MW1021EQDQ01+000002SCOTLC
0095011520999991952010518004+67283+014417FM-12+001399999V0201401N00821220001CN0700001N9-00221-01111101701ADDAY101999GF101991999001999999041001IA1089KA1999M-00111MD1610241+9999MW1021EQDQ01+000002SCOTLC
0076011520999991952010600004+67283+014417FM-12+001399999V0201401N01291220001CN0600001N9+00001-01001100631ADDAY121999GF108991001001999999021999MD1710622+9999MW1021EQDQ01+000622APC3  
0057011520999991952010603004+67283+014417FM-12+001399999V0201601N01491012301CN0400001N9+00111-01111099871ADDAY121999GF108991071071012501021999MD1710761+9999MW1021
0076011520999991952010606004+67283+014417FM-12+001399999V0201601N01081012301CN0400001N9+00221-00611099551ADDAY121999GF106991051091012501071001IA1139KA1999N-00391MD1710321+9999MW1151
0076011520999991952010609004+67283+014417FM-12+001399999V0202001N00871004501CN0160001N9+00281-00111099551ADDAY191999GF108991061091004501061999MD1410001+9999MW1261EQDQ01+000072APCTEN
0057011520999991952010612004+67283+014417FM-12+001399999V0202501N01081004501CN0160001N9+00501+00001099601ADDAY181999GF108991061091004501061999MD1210051+9999MW1151
0057011520999991952010615004+67283+014417FM-12+001399999V0202301N009819999999N0400001N9+00391+00001099671ADDAY181999GF108991031091008001091999MD1210071+9999MW1271
0087011520999991952010618004+67283+014417FM-12+001399999V0202001N00821007801CN0200001N9+00281+00001099461ADDAA199003091AY181999GF108991081091008001999999IA1089KA1999M+00611MD1710211+9999MW1801
0057011520999991952010700004+67283+014417FM-12+001399999V0202001N007219999999N0140001N9+00281-00221099221ADDAY181999GF106991021091012501001061MD1710181+9999MW1261
0057011520999991952010703004+67283+014417FM-12+001399999V0201801N007219999999N0140001N9+00281-00221099011ADDAY121999GF107991041091008001001061MD1710211+9999MW1151
0087011520999991952010706004+67283+014417FM-12+001399999V0202301N00721007801CN0140001N9+00391+00001098771ADDAA199007091AY181999GF108991051071008001071999IA1089KA1999N+00001MD1810241+9999MW1801
0057011520999991952010709004+67283+014417FM-12+001399999V0203201N01081007801CN0100001N9+00221+00001098991ADDAY181999GF108991071071008001021999MD1210221+9999MW1871
0057011520999991952010712004+67283+014417FM-12+001399999V0202901N01391007801CN0050001N9+00281-00111099281ADDAY181999GF107991051091008001041001MD1110291+9999MW1861
0057011520999991952010715004+67283+014417FM-12+001399999V0203201N00721007801CN0200001N9+00281-00391099551ADDAY181999GF106991051091008001061001MD1210271+9999MW1151
0087011520999991952010718004+67283+014417FM-12+001399999V0202501N00871004501CN0140001N9+00391-00281099571ADDAA199002091AY181999GF108991051091004501999999IA1109KA1999M+00501MD1110021+9999MW1881
0057011520999991952010800004+67283+014417FM-12+001399999V0202001N00981002401CN0002001N9+00221-00111099061ADDAY191999GF107991071091002501001001MD1710141+9999MW1291
0057011520999991952010803004+67283+014417FM-12+001399999V0202501N01291002401CN0120001N9+00221-00111099231ADDAY191999GF108991081091002501999999MD1510171+9999MW1871
0087011520999991952010806004+67283+014417FM-12+001399999V0202501N01391004501CN0120001N9+00221-00221099371ADDAA199009091AY191999GF106991061091004501001001IA1189KA1999N+00001MD1210141+9999MW1151
0057011520999991952010809004+67283+014417FM-12+001399999V0202701N00981007801CN0100001N9+00111-00111099621ADDAY181999GF108991081091008001999999MD1210251+9999MW1831
0057011520999991952010812004+67283+014417FM-12+001399999V0201801N00621007801CN0140001N9+00391+00001099561ADDAY181999GF108991081091008001999999MD1990061+9999MW1801
0057011520999991952010815004+67283+014417FM-12+001399999V0201601N00621004501CN0150001N9+00281+00001099191ADDAY181999GF108991081001004501021999MD1610371+9999MW1611
0087011520999991952010818004+67283+014417FM-12+001399999V0201401N00511007801CN0400001N9+00391-00111098841ADDAA199000591AY161999GF107991051051008001021001IA1009KA1999M+00501MD1810351+9999MW1011
0057011520999991952010900004+67283+014417FM-12+001399999V0201101N00721012301CN0200001N9+00501-00281097681ADDAY121999GF108991051071012501021999MD1810391+9999MW1021
0057011520999991952010903004+67283+014417FM-12+001399999V0201601N00411012301CN0200001N9+00501-00281097621ADDAY121999GF108991061071012501021999MD1510061+9999MW1021
0087011520999991952010906004+67283+014417FM-12+001399999V0201601N00411007801CN0120001N9+00221+00001097571ADDAA199000591AY161999GF108991051071008001021999IA1089KA1999N+00111MD1710051+9999MW1611
0057011520999991952010909004+67283+014417FM-12+001399999V0200901N008219999999N0400001N9+00111+00001097381ADDAY161999GF108991011021004501071999MD1710191+9999MW1021
0057011520999991952010912004+67283+014417FM-12+001399999V0200901N006219999999N0400001N9+00111-00221097261ADDAY161999GF108991031081008001021999MD1990121+9999MW1021
0057011520999991952010915004+67283+014417FM-12+001399999V0201101N00621004501CN0200001N9+00001-00221097071ADDAY181999GF108991051091004501061999MD1710191+9999MW1151
0087011520999991952010918004+67283+014417FM-12+001399999V0202001N007219999999N0400001N9+00221-00281096961ADDAA199000691AY181999GF107991041081008001071061IA1189KA1999M+00611MD1710111+9999MW1151
0057011520999991952011000004+67283+014417FM-12+001399999V0202001N00311220001CN0400001N9+00001-00281096941ADDAY121999GF103991031091008001001001MD1710021+9999MW1151
0057011520999991952011003004+67283+014417FM-12+001399999V0201601N00621220001CN0600001N9+00001-00501096841ADDAY101999GF102991021081012501001001MD1810101+9999MW1011
0076011520999991952011006004+67283+014417FM-12+001399999V0201601N00621220001CN0600001N9-00111-00781096721ADDAY101999GF102991021081017501001001IA1189KA1999N-00221MD1810121+9999MW1021
0076011520999991952011009004+67283+014417FM-12+001399999V0200901N00621220001CN0700001N9-00221-00781096681ADDAY101999GF101991999001999999071001MD1610041+9999MW1021EQDQ01+000002SCOTLC
0076011520999991952011012004+67283+014417FM-12+001399999V0200901N00621220001CN0700001N9-00221-00891096631ADDAY101999GF101991999001999999071001MD1710051+9999MW1021EQDQ01+000002SCOTLC
0057011520999991952011015004+67283+014417FM-12+001399999V0200901N00621220001CN0700001N9-00281-01001096571ADDAY101999GF102991011011017501041001MD1710061+9999MW1021
0076011520999991952011018004+67283+014417FM-12+001399999V0201101N00721220001CN0700001N9-00281-01111096591ADDAY101999GF101991011001999999041001IA1189KA1999M+00281MD1710021+9999MW1021
0057011520999991952011100004+67283+014417FM-12+001399999V0200901N00621220001CN0600001N9-00391-01221096731ADDAY101999GF104991001001999999001061MD1310091+9999MW1021
0057011520999991952011103004+67283+014417FM-12+001399999V0201101N00511220001CN0600001N9-00501-01221096821ADDAY101999GF104991001001999999001061MD1310091+9999MW1021
0076011520999991952011106004+67283+014417FM-12+001399999V0201101N006219999999N0600001N9-00501-01221096881ADDAY101999GF105991011071012501001061IA1189KA1999N-00611MD1310061+9999MW1031
0057011520999991952011109004+67283+014417FM-12+001399999V0201101N00721007801CN0120001N9-00391-01001097061ADDAY121999GF108991081051008001999999MD1310181+9999MW1021
0057011520999991952011112004+67283+014417FM-12+001399999V0201101N00721007801CN0200001N9-00391-00891097131ADDAY181999GF108991061051008001041999MD1210071+9999MW1021
0092011520999991952011115004+67283+014417FM-12+001399999V0201101N00621004501CN0100001N9-00281-00721097291ADDAY121999GF108991081001004501021999MD1210161+9999MW1701EQDQ01+000042APCTENQ02+000162APC3  
0087011520999991952011118004+67283+014417FM-12+001399999V0200901N00511004501CN0120001N9-00221-00721097471ADDAA199000691AY171999GF108991081001004501021999IA1009KA1999M-00221MD1310181+9999MW1711
0057011520999991952011200004+67283+014417FM-12+001399999V0200201N00671007801CN0100001N9-00111-00281097811ADDAY181999GF107991071091008001001001MD1210091+9999MW1871
0076011520999991952011203004+67283+014417FM-12+001399999V0200201N00311012301CN0400001N9-00111-00221097811ADDAY181999GF107991071091012501001001MD1410001+9999MW1021EQDQ01+000032APCTEN
0087011520999991952011206004+67283+014417FM-12+001399999V0202301N00411000151CN0010001N9-00111-00281097771ADDAA199002091AY181999GF109991091999000251999999IA1199KA1999N-00281MD1990011+9999MW1861
0092011520999991952011209004+67283+014417FM-12+001399999V0201101N00411004501CN0140001N9-00221-00391097911ADDAY181999GF108991081091004501999999MD1210141+9999MW1851EQDQ01+000042APCTENQ02+000142APC3  
0057011520999991952011212004+67283+014417FM-12+001399999V0201101N00311004501CN0100001N9-00111-00221098101ADDAY181999GF108991081091004501999999MD1210191+9999MW1851
0057011520999991952011215004+67283+014417FM-12+001399999V0203401N00871004501CN0140001N9+00111-00111098271ADDAY181999GF108991081091004501999999MD1210171+9999MW1831
0087011520999991952011218004+67283+014417FM-12+001399999V0203401N00821004501CN0150001N9+00221+00111098451ADDAA199003091AY171999GF108991071071004501021999IA1199KA1999M+00221MD1110181+9999MW1151
0057011520999991952011300004+67283+014417FM-12+001399999V0203401N00981004501CN0100001N9+00111+00001099001ADDAY181999GF108991081091004501999999MD1210221+9999MW1831
0057011520999991952011303004+67283+014417FM-12+001399999V0203401N01181004501CN0100001N9+00111+00001099161ADDAY181999GF108991081091004501999999MD1210161+9999MW1831
0087011520999991952011306004+67283+014417FM-12+001399999V0203201N00721004501CN0060001N9+00111+00001099391ADDAA199006091AY181999GF108991081091004501999999IA1209KA1999N+00001MD1310231+9999MW1831
0057011520999991952011309004+67283+014417FM-12+001399999V0203401N00411004501CN0200001N9+00221-00111099581ADDAY181999GF106991061091004501001001MD1310191+9999MW1261
0057011520999991952011312004+67283+014417FM-12+001399999V0209991C00001220001CN0400001N9+00111-00221099711ADDAY111999GF104991041081004501001001MD1210131+9999MW1151
0057011520999991952011315004+67283+014417FM-12+001399999V0201101N00411004501CN0200001N9-00111-00221099741ADDAY121999GF107991061091004501061001MD1110031+9999MW1151
0106011520999991952011318004+67283+014417FM-12+001399999V0200901N00311004501CN0200001N9-00111-00221099741ADDAA199001091AY181999GF108991081091004501999999IA1209KA1999M+00221MD1410001+9999MW1851EQDQ01+000032APCTEN
0057011520999991952011400004+67283+014417FM-12+001399999V0200901N00511220001CN0600001N9-00111-00781099451ADDAY181999GF107991001001999999001061MD1710201+9999MW1021
0057011520999991952011403004+67283+014417FM-12+001399999V0201101N01081220001CN0700001N9-00111-01001099151ADDAY121999GF108991001001999999001071MD1710301+9999MW1021
0087011520999991952011406004+67283+014417FM-12+001399999V0201101N00981220001CN0400001N9-00111-01001098981ADDAA199000691AY121999GF108991001001999999001071IA1209KA1999N-00221MD1710171+9999MW1021
0057011520999991952011409004+67283+014417FM-12+001399999V0201101N009819999999N0400001N9-00111-01001098821ADDAY111999GF108991011081017501041071MD1710161+9999MW1021
0057011520999991952011412004+67283+014417FM-12+001399999V0200901N008719999999N0600001N9-00111-00891098741ADDAY121999GF108991021081017501041071MD1710081+9999MW1021
0057011520999991952011415004+67283+014417FM-12+001399999V0201101N009819999999N0600001N9-00221-01001098671ADDAY121999GF108991031081017501071071MD1710071+9999MW1021
0076011520999991952011418004+67283+014417FM-12+001399999V0201101N008219999999N0600001N9-00221-01001098641ADDAY121999GF108991021081012501071071IA1209KA1999M+00001MD1710031+9999MW1021
0057011520999991952011500004+67283+014417FM-12+001399999V0200901N00821007801CN0700001N9-00281-00721098691ADDAY181999GF107991051081008001041001MD1810041+9999MW1261
0076011520999991952011503004+67283+014417FM-12+001399999V0200901N00721220001CN0700001N9-00221-00781098541ADDAY111999GF102991999001999999041001MD1990151+9999MW1011EQDQ01+000002SCOTLC
0087011520999991952011506004+67283+014417FM-12+001399999V0201401N00311007801CN0700001N9+00001-00611098391ADDAA199000691AY111999GF107991071081008001999999IA1209KA1999N-00391MD1810151+9999MW1031
0057011520999991952011509004+67283+014417FM-12+001399999V0201101N005119999999N0700001N9+00001-00611098091ADDAY121999GF106991041081012501041001MD1810301+9999MW1151
0057011520999991952011512004+67283+014417FM-12+001399999V0200901N006219999999N0700001N9+00001-00721097771ADDAY111999GF105991031081012501071051MD1810321+9999MW1021
0057011520999991952011515004+67283+014417FM-12+001399999V0200901N00821220001CN0700001N9-00221-00891097381ADDAY111999GF104991011051017501071001MD1710391+9999MW1021
0076011520999991952011518004+67283+014417FM-12+001399999V0201101N010819999999N0600001N9-00221-00891097171ADDAY121999GF105991011051017501071001IA1209KA1999M+00111MD1710211+9999MW1021
0057011520999991952011600004+67283+014417FM-12+001399999V0201101N008719999999N0700001N9-00111-00781097221ADDAY121999GF108991021071012501011999MD1210021+9999MW1021
0092011520999991952011603004+67283+014417FM-12+001399999V0200901N00821220001CN0600001N9-00111-00781097371ADDAY121999GF108991001001999999021999MD1210151+9999MW1021EQDQ01+000042APCTENQ02+000152APC3  
0076011520999991952011606004+67283+014417FM-12+001399999V0200701N00411220001CN0400001N9-00111-00721097511ADDAY121999GF108991001001999999021999IA1209KA1999N-00281MD1210141+9999MW1021
0057011520999991952011609004+67283+014417FM-12+001399999V0201101N002119999999N0120001N9-00111-00391097691ADDAY171999GF108991021071008001021999MD1210181+9999MW1711
0057011520999991952011612004+67283+014417FM-12+001399999V0201101N002119999999N0120001N9-00111-00391097831ADDAY171999GF108991021051008001021999MD1210141+9999MW1701
0057011520999991952011615004+67283+014417FM-12+001399999V0201101N005119999999N0200001N9-00221-00501097901ADDAY171999GF107991041081008001071071MD1110071+9999MW1261
0087011520999991952011618004+67283+014417FM-12+001399999V0200901N00721004501CN0120001N9-00221-00611098031ADDAA199000691AY171999GF108991071071004501021999IA1209KA1999M+00001MD1210131+9999MW1701
0057011520999991952011700004+67283+014417FM-12+001399999V0200901N00621012301CN0700001N9-00221-00611098331ADDAY171999GF106991061081012501001001MD1210161+9999MW1021
0076011520999991952011703004+67283+014417FM-12+001399999V0200901N00621220001CN0600001N9-00221-00721098511ADDAY111999GF103991999001999999041001MD1210181+9999MW1011EQDQ01+000002SCOTLC
0087011520999991952011706004+67283+014417FM-12+001399999V0200901N00621220001CN0600001N9-00111-00721098681ADDAA199000691AY111999GF107991001001999999041999IA1209KA1999N-00281MD1210171+9999MW1031
0057011520999991952011709004+67283+014417FM-12+001399999V0200901N007219999999N0700001N9-00221-00781098881ADDAY121999GF106991011081017501041071MD1310201+9999MW1021
0057011520999991952011712004+67283+014417FM-12+001399999V0201101N006219999999N0700001N9-00221-00611099141ADDAY121999GF105991031081017501041001MD1110261+9999MW1021
0057011520999991952011715004+67283+014417FM-12+001399999V0201101N006219999999N0700001N9-00281-00891099301ADDAY121999GF105991031081017501041001MD1210161+9999MW1021
0076011520999991952011718004+67283+014417FM-12+001399999V0200901N00621220001CN0700001N9-00391-01001099441ADDAY101999GF102991011081017501041001IA1209KA1999M-00111MD1310141+9999MW1021
0076011520999991952011800004+67283+014417FM-12+001399999V0200901N00821220001CN0700001N9-00501-01111099811ADDAY101999GF102991999001999999041001MD1210151+9999MW1021EQDQ01+000002SCOTLC
0057011520999991952011803004+67283+014417FM-12+001399999V0200901N00871220001CN0700001N9-00501-01111100061ADDAY111999GF107991001001999999041999MD1210151+9999MW1031
0087011520999991952011806004+67283+014417FM-12+001399999V0200901N00821007801CN0200001N9-00611-00781100241ADDAA199000391AY181999GF108991081051008001999999IA1209KA1999N-00721MD1310181+9999MW1851
0057011520999991952011809004+67283+014417FM-12+001399999V0201101N00721007801CN0200001N9-00611-00891100621ADDAY181999GF106991061081008001001001MD1310381+9999MW1151
0057011520999991952011812004+67283+014417FM-12+001399999V0201101N00821004501CN0160001N9-00611-01001100761ADDAY181999GF107991071081004501001001MD1210141+9999MW1261
0057011520999991952011815004+67283+014417FM-12+001399999V0201101N00721007801CN0200001N9-00611-01001100941ADDAY121999GF106991051091008001061001MD1310181+9999MW1151
0087011520999991952011818004+67283+014417FM-12+001399999V0200901N007219999999N0200001N9-00611-01001101111ADDAA199000691AY181999GF105991041091008001061001IA1209KA1999M-00281MD1210171+9999MW1151
0057011520999991952011900004+67283+014417FM-12+001399999V0200901N00511007801CN0200001N9-00501-00721101441ADDAY181999GF106991061091008001001001MD1210201+9999MW1261
0057011520999991952011903004+67283+014417FM-12+001399999V0200901N00311007801CN0400001N9-00391-00611101731ADDAY121999GF108991081091008001999999MD1210291+9999MW1031
0087011520999991952011906004+67283+014417FM-12+001399999V0203601N004119999999N0400001N9-00111-00721101951ADDAA199001091AY121999GF107991041091008001041071IA1209KA1999N-00721MD1310221+9999MW1021
0057011520999991952011909004+67283+014417FM-12+001399999V0201101N002119999999N0160001N9-00281-00611102281ADDAY171999GF107991041071008001021001MD1310231+9999MW1701
0057011520999991952011912004+67283+014417FM-12+001399999V0201101N00311007801CN0120001N9-00281-00611102511ADDAY171999GF107991061071008001021001MD1310231+9999MW1701
0092011520999991952011915004+67283+014417FM-12+001399999V0201101N003119999999N0600001N9-00391-00611102711ADDAY171999GF105991031081008001041001MD1210201+9999MW1021EQDQ01+000042APCTENQ02+000202APC3  
0087011520999991952011918004+67283+014417FM-12+001399999V0200901N00511220001CN0600001N9-00501-00721102911ADDAA199000691AY171999GF102991011011012501041001IA1209KA1999M+00001MD1210201+9999MW1021
0076011520999991952012000004+67283+014417FM-12+001399999V0201101N00621220001CN0600001N9-00501-00721103181ADDAY101999GF102991999001999999041001MD1210081+9999MW1021EQDQ01+000002SCOTLC
0076011520999991952012003004+67283+014417FM-12+001399999V0200901N00621220001CN0600001N9-00501-00891103191ADDAY111999GF106991999001999999041001MD1210011+9999MW1031EQDQ01+000002SCOTLC
0106011520999991952012006004+67283+014417FM-12+001399999V0201101N005119999999N0002001N9-00501-00721103191ADDAA199000591AY181999GF109991091999999999999999IA1209KA1999N-00721MD1410001+9999MW1861EQDQ01+000022APCTEN
0057011520999991952012009004+67283+014417FM-12+001399999V0200901N005119999999N0002001N9-00391-00611103261ADDAY171999GF109991091999999999999999MD1210071+9999MW1751
0057011520999991952012012004+67283+014417FM-12+001399999V0200901N005119999999N0400001N9-00391-00611103371ADDAY181999GF106991021021008001061001MD1210111+9999MW1021
0057011520999991952012015004+67283+014417FM-12+001399999V0201101N004119999999N0600001N9-00391-00501103421ADDAY121999GF107991031021008001061001MD1210051+9999MW1021
0087011520999991952012018004+67283+014417FM-12+001399999V0201101N00511007801CN0200001N9-00281-00501103511ADDAA199001091AY111999GF107991051091008001061001IA1209KA1999M-00281MD1210091+9999MW1151
0057011520999991952012100004+67283+014417FM-12+001399999V0201101N007219999999N0200001N9-00221-00611103401ADDAY121999GF106991041091008001061001MD1990041+9999MW1021
0057011520999991952012103004+67283+014417FM-12+001399999V0201101N00721007801CN0200001N9-00221-00721103281ADDAY121999GF108991081091008001999999MD1810121+9999MW1021
0076011520999991952012106004+67283+014417FM-12+001399999V0201101N00621007801CN0200001N9-00111-00721103121ADDAY121999GF108991081091008001999999IA1209KA1999N-00391MD1710161+9999MW1021
0057011520999991952012109004+67283+014417FM-12+001399999V0201101N00621021001CN0400001N9+00001-00721102981ADDAY121999GF108991081001022501021999MD1710141+9999MW1021
0057011520999991952012112004+67283+014417FM-12+001399999V0202001N00821021001CN0400001N9+00281-00611102831ADDAY121999GF106991061001022501041001MD1710151+9999MW1021
0057011520999991952012115004+67283+014417FM-12+001399999V0202001N00981012301CN0600001N9+00281-00281102661ADDAY111999GF107991051071012501041001MD1710171+9999MW1021
0076011520999991952012118004+67283+014417FM-12+001399999V0202001N00981007801CN0200001N9+00391-00221102521ADDAY121999GF108991081071008001999999IA1209KA1999M+00391MD1710141+9999MW1021
0057011520999991952012200004+67283+014417FM-12+001399999V0202001N00871007801CN0200001N9+00281+00001102301ADDAY121999GF106991061071008001001001MD1710111+9999MW1021
0057011520999991952012203004+67283+014417FM-12+001399999V0202001N00871007801CN0200001N9+00391+00001102221ADDAY121999GF106991061071008001001001MD1710081+9999MW1021
0076011520999991952012206004+67283+014417FM-12+001399999V0202001N00821007801CN0200001N9+00391+00111102081ADDAY121999GF107991071071008001001001IA1189KA1999N+00221MD1810141+9999MW1021
0057011520999991952012209004+67283+014417FM-12+001399999V0202501N00871007801CN0160001N9+00501+00221102071ADDAY181999GF108991071071008001021999MD1710011+9999MW1801
0057011520999991952012212004+67283+014417FM-12+001399999V0202301N00871004501CN0160001N9+00501+00281102051ADDAY181999GF108991071071004501021999MD1710021+9999MW1801
0057011520999991952012215004+67283+014417FM-12+001399999V0202001N00871004501CN0140001N9+00391+00221101941ADDAY181999GF108991081071004501999999MD1710111+9999MW1801
0087011520999991952012218004+67283+014417FM-12+001399999V0202301N00981004501CN0100001N9+00391+00281101821ADDAA199001091AY181999GF108991081071004501999999IA1189KA1999M+00501MD1810121+9999MW1801
0057011520999991952012300004+67283+014417FM-12+001399999V0202501N010819999999N0080001N9+00501+00281101591ADDAY181999GF108991041071002501021999MD1810161+9999MW1631
0057011520999991952012303004+67283+014417FM-12+001399999V0202301N00981002401CN0080001N9+00391+00221101351ADDAY181999GF108991081071002501999999MD1810241+9999MW1631
0087011520999991952012306004+67283+014417FM-12+001399999V0202001N01081002401CN0080001N9+00281+00001101061ADDAA199007091AY161999GF108991081071002501999999IA1189KA1999N+00281MD1710291+9999MW1611
0057011520999991952012309004+67283+014417FM-12+001399999V0202501N00871004501CN0020001N9+00111+00111100911ADDAY171999GF108991081071004501999999MD1710151+9999MW1691
0057011520999991952012312004+67283+014417FM-12+001399999V0202301N00511004501CN0100001N9+00221+00111100781ADDAY161999GF108991081001004501021999MD1710131+9999MW1631
0057011520999991952012315004+67283+014417FM-12+001399999V0202501N007219999999N0140001N9+00281+00221100431ADDAY171999GF108991041071004501021999MD1810351+9999MW1231
0087011520999991952012318004+67283+014417FM-12+001399999V0202901N01181220001CN0160001N9+00281+00001100171ADDAA199017091AY121999GF104991021071004501021001IA1189KA1999M+00391MD1810261+9999MW1011
0057011520999991952012400004+67283+014417FM-12+001399999V0203201N00981220001CN0400001N9-00111-01001100411ADDAY181999GF103991031071004501001001MD1110081+9999MW1011
0057011520999991952012403004+67283+014417FM-12+001399999V0202901N00981220001CN0100001N9-00221-00781100331ADDAY101999GF104991041091004501001001MD1710081+9999MW1871
0087011520999991952012406004+67283+014417FM-12+001399999V0203201N00981220001CN0200001N9-00221-00611100011ADDAA199000691AY181999GF103991031091004501001001IA1189KA1999N-00391MD1710321+9999MW1021
0057011520999991952012409004+67283+014417FM-12+001399999V0202701N01081004501CN0100001N9-00221-00721099751ADDAY181999GF108991071091004501021999MD1710261+9999MW1871
0057011520999991952012412004+67283+014417FM-12+001399999V0202501N01181004501CN0040001N9-00221-00611099361ADDAY181999GF108991081091004501999999MD1710391+9999MW1861
0057011520999991952012415004+67283+014417FM-12+001399999V0203201N01181000151CN0020001N9-00221-00281099011ADDAY181999GF109991091999000251999999MD1710351+9999MW1861
0122011520999991952012418004+67283+014417FM-12+001399999V0203601N00411000151CN0040001N9-00281-00781099101ADDAA199003091AY181999GF109991091999000251999999IA1199KA1999M-00111MD1210091+9999MW1851EQDQ01+000042APCTENQ02+000092APC3  
0057011520999991952012500004+67283+014417FM-12+001399999V0201101N00511220001CN0160001N9-00501-01001098891ADDAY181999GF104991041091004501001001MD1990181+9999MW1021
0057011520999991952012503004+67283+014417FM-12+001399999V0200901N00511004501CN0160001N9-00501-01111098771ADDAY121999GF106991061091004501001001MD1810121+9999MW1021
0087011520999991952012506004+67283+014417FM-12+001399999V0201101N00621220001CN0600001N9-00501-01111098721ADDAA199001091AY121999GF103991031091012501001001IA1209KA1999N-00611MD1710051+9999MW1011
0057011520999991952012509004+67283+014417FM-12+001399999V0201101N00411007801CN0200001N9-00391-01111098781ADDAY121999GF108991081091008001999999MD1210061+9999MW1151
0057011520999991952012512004+67283+014417FM-12+001399999V0201101N00211007801CN0100001N9-00391-00721098861ADDAY171999GF107991071091008001999999MD1110081+9999MW1711
0076011520999991952012515004+67283+014417FM-12+001399999V0201601N00411004501CN0140001N9-00391-00721098861ADDAY181999GF107991051091004501061001MD1410001+9999MW1151EQDQ01+000022APCTEN
0087011520999991952012518004+67283+014417FM-12+001399999V0201401N004119999999N0160001N9-00391-01001098951ADDAA199001091AY121999GF105991041091004501061001IA1209KA1999M-00221MD1110091+9999MW1151
0057011520999991952012600004+67283+014417FM-12+001399999V0200701N00511220001CN0200001N9-00501-01111099181ADDAY181999GF104991041091004501001001MD1110141+9999MW1021
0057011520999991952012603004+67283+014417FM-12+001399999V0200901N00511220001CN0400001N9-00611-01221099161ADDAY121999GF102991021041012501001001MD1810021+9999MW1011
0087011520999991952012606004+67283+014417FM-12+001399999V0201101N00621220001CN0400001N9-00721-01281099181ADDAA199000391AY111999GF103991031041012501001001IA1319KA1999N-00781MD1210021+9999MW1011
0076011520999991952012609004+67283+014417FM-12+001399999V0200901N00721220001CN0600001N9-00611-01281099301ADDAY101999GF103991999001999999041001MD1210121+9999MW1011EQDQ01+000002SCOTLC
0057011520999991952012612004+67283+014417FM-12+001399999V0201101N007219999999N0600001N9-00501-01281099331ADDAY111999GF106991031081017501041001MD1210031+9999MW1031
0057011520999991952012615004+67283+014417FM-12+001399999V0201101N00721007801CN0160001N9-00611-01391099441ADDAY121999GF107991051081008001041001MD1210111+9999MW1151
0087011520999991952012618004+67283+014417FM-12+001399999V0201101N00821007801CN0060001N9-00611-00891099521ADDAA199000391AY171999GF107991071081008001001001IA1319KA1999M-00501MD1210081+9999MW1221
0057011520999991952012700004+67283+014417FM-12+001399999V0201101N00821220001CN0400001N9-00611-01281099591ADDAY181999GF103991021091017501041001MD1210051+9999MW1021
0057011520999991952012703004+67283+014417FM-12+001399999V0200901N00511220001CN0400001N9-00611-01391099551ADDAY101999GF100991001001999999001001MD1710041+9999MW1021
0087011520999991952012706004+67283+014417FM-12+001399999V0200901N00981220001CN0400001N9-00501-01391099511ADDAA199000691AY101999GF103991011081017501041001IA1319KA1999N-00721MD1710041+9999MW1021
0057011520999991952012709004+67283+014417FM-12+001399999V0200901N006219999999N0200001N9-00391-01001099591ADDAY181999GF107991041091008001071001MD1110081+9999MW1851
0057011520999991952012712004+67283+014417FM-12+001399999V0200901N007219999999N0600001N9-00221-00891099741ADDAY181999GF106991041091012501061001MD1210151+9999MW1151
0057011520999991952012715004+67283+014417FM-12+001399999V0200901N00621012301CN0600001N9-00281-01001099811ADDAY121999GF107991071081012501999999MD1210071+9999MW1021
0106011520999991952012718004+67283+014417FM-12+001399999V0200901N007219999999N0600001N9-00501-01001099881ADDAA199000691AY111999GF107991999081012501001001IA1319KA1999M-00111MD1210071+9999MW1071EQDQ01+000012SCOTLC
0057011520999991952012800004+67283+014417FM-12+001399999V0201101N00821220001CN0600001N9-00501-01391099951ADDAY101999GF100991001001999999001001MD1210031+9999MW1021
0076011520999991952012803004+67283+014417FM-12+001399999V0200901N00721220001CN0600001N9-00501-01391099951ADDAY101999GF100991001001999999001001MD1410001+9999MW1021EQDQ01+000022APCTEN
0076011520999991952012806004+67283+014417FM-12+001399999V0200901N00511220001CN0600001N9-00501-01281099961ADDAY101999GF100991001001999999001001IA1319KA1999N-00611MD1210011+9999MW1021
0057011520999991952012809004+67283+014417FM-12+001399999V0201101N00721220001CN0700001N9-00391-01281099981ADDAY101999GF103991001001999999001051MD1010031+9999MW1031
0092011520999991952012812004+67283+014417FM-12+001399999V0200901N00621220001CN0700001N9-00391-01281100031ADDAY101999GF105991001001999999001051MD1210051+9999MW1031EQDQ01+000042APCTENQ02+000052APC3  
0057011520999991952012815004+67283+014417FM-12+001399999V0200901N00721220001CN0700001N9-00391-01111100051ADDAY121999GF107991001001999999001071MD1310021+9999MW1021
0076011520999991952012818004+67283+014417FM-12+001399999V0200901N00621220001CN0700001N9-00391-01111100081ADDAY101999GF102991001001999999001011IA1319KA1999M-00281MD1310031+9999MW1011
0076011520999991952012900004+67283+014417FM-12+001399999V0200901N00721220001CN0600001N9-00501-01221100131ADDAY101999GF103991999001999999071001MD1310021+9999MW1021EQDQ01+000002SCOTLC
0076011520999991952012903004+67283+014417FM-12+001399999V0201101N00721220001CN0600001N9-00611-01281100161ADDAY101999GF103991999001999999071001MD1310031+9999MW1021EQDQ01+000002SCOTLC
0076011520999991952012906004+67283+014417FM-12+001399999V0201101N008219999999N0400001N9-00501-01221100171ADDAY121999GF108991021081012501071999IA1319KA1999N-00721MD1210011+9999MW1021
0057011520999991952012909004+67283+014417FM-12+001399999V0200901N005719999999N0700001N9-00391-01221100361ADDAY181999GF107991041081012501071001MD1210091+9999MW1021
0057011520999991952012912004+67283+014417FM-12+001399999V0201101N007219999999N0400001N9-00611-01221100341ADDAY121999GF105991041081012501071001MD1210081+9999MW1151
0057011520999991952012915004+67283+014417FM-12+001399999V0200901N00721007801CN0200001N9-00501-01001100381ADDAY181999GF107991071081008001999999MD1210041+9999MW1261
0087011520999991952012918004+67283+014417FM-12+001399999V0200901N00721007801CN0400001N9-00501-00891100391ADDAA199000691AY181999GF107991071081008001999999IA1319KA1999M-00391MD1210011+9999MW1031
0076011520999991952013000004+67283+014417FM-12+001399999V0201101N00511220001CN0600001N9-00391-00781100431ADDAY101999GF102991999001999999041001MD1310011+9999MW1021EQDQ01+000012SCOTLC
0057011520999991952013003004+67283+014417FM-12+001399999V0201101N005119999999N0600001N9-00391-00781100401ADDAY121999GF105991031001999999071051MD1990031+9999MW1021
0095011520999991952013006004+67283+014417FM-12+001399999V0200901N00511220001CN0700001N9-00501-00891100401ADDAY101999GF103991031001999999041001IA1319KA1999N-00611MD1410001+9999MW1021EQDQ01+000032APCTEN
0057011520999991952013009004+67283+014417FM-12+001399999V0201101N00411220001CN0700001N9-00611-01001100481ADDAY101999GF103991011081017501041021MD1310081+9999MW1021
0057011520999991952013012004+67283+014417FM-12+001399999V0201101N00311220001CN0700001N9-00391-00721100461ADDAY101999GF102991011081017501041021MD1990021+9999MW1011
0057011520999991952013015004+67283+014417FM-12+001399999V0201101N00511220001CN0700001N9-00501-00781100411ADDAY101999GF102991011081012501001011MD1710051+9999MW1021
0076011520999991952013018004+67283+014417FM-12+001399999V0201101N00511220001CN0700001N9-00391-00721100331ADDAY111999GF104991041081012501001001IA1319KA1999M-00281MD1710081+9999MW1031
0057011520999991952013100004+67283+014417FM-12+001399999V0200901N00511220001CN0400001N9-00501-00891100011ADDAY101999GF103991031001999999041001MD1810141+9999MW1021
0057011520999991952013103004+67283+014417FM-12+001399999V0200901N00511220001CN0600001N9-00391-00781099841ADDAY101999GF103991031001999999041001MD1710171+9999MW1021
0076011520999991952013106004+67283+014417FM-12+001399999V0200901N00621220001CN0600001N9-00501-00891099711ADDAY101999GF103991031001999999041001IA1319KA1999N-00611MD1710131+9999MW1021
0057011520999991952013109004+67283+014417FM-12+001399999V0201101N00621220001CN0700001N9-00501-01001099621ADDAY101999GF104991011081017501041021MD1810091+9999MW1021
0057011520999991952013112004+67283+014417FM-12+001399999V0201101N007219999999N0700001N9-00281-00891099571ADDAY121999GF105991011081017501041021MD1710051+9999MW1021
0057011520999991952013115004+67283+014417FM-12+001399999V0200901N00621220001CN0700001N9-00391-01111099481ADDAY121999GF107991001001999999061071MD1810091+9999MW1021
0076011520999991952013118004+67283+014417FM-12+001399999V0200901N007219999999N0700001N9-00391-01111099411ADDAY121999GF107991021051017501001071IA1319KA1999M-00281MD1710071+9999MW1021
0057011520999991952020100004+67283+014417FM-12+001399999V0200901N007219999999N0400001N9-00391-01111099261ADDAY121999GF106991011051017501071001MD1710041+9999MW1021
0057011520999991952020103004+67283+014417FM-12+001399999V0200901N00871220001CN0600001N9-00611-01281099211ADDAY101999GF103991031001999999041001MD1710051+9999MW1021
0076011520999991952020106004+67283+014417FM-12+001399999V0200901N01081220001CN0700001N9-00721-01391099181ADDAY101999GF102991021001999999041001IA1319KA1999N-00781MD1710031+9999MW1021
0092011520999991952020109004+67283+014417FM-12+001399999V0200901N00821220001CN0700001N9-00721-01501099271ADDAY101999GF101991001001999999041021MD1210091+9999MW1021EQDQ01+000042APCTENQ02+000092APC3  
0076011520999991952020112004+67283+014417FM-12+001399999V0201101N00981220001CN0700001N9-00611-01501099321ADDAY101999GF101991999001999999041001MD1710051+9999MW1021EQDQ01+000002SCOTLC
0076011520999991952020115004+67283+014417FM-12+001399999V0201101N00871220001CN0700001N9-00501-01391099401ADDAY101999GF101991999001999999041001MD1210081+9999MW1021EQDQ01+000002SCOTLC
0095011520999991952020118004+67283+014417FM-12+001399999V0201101N00871220001CN0700001N9-00501-01281099341ADDAY111999GF101991999001999999041001IA1319KA1999M-00391MD1710061+9999MW1011EQDQ01+000002SCOTLC
0057011520999991952020200004+67283+014417FM-12+001399999V0200901N00721220001CN0700001N9-00391-01221099241ADDAY101999GF102991021001999999041001MD1710021+9999MW1021
0057011520999991952020203004+67283+014417FM-12+001399999V0201101N008719999999N0400001N9-00221-01001099111ADDAY121999GF107991021081017501071071MD1610131+9999MW1021
0076011520999991952020206004+67283+014417FM-12+001399999V0201401N008219999999N0400001N9-00221-01111099011ADDAY121999GF105991011081017501041001IA1319KA1999N-00611MD1610101+9999MW1021
0057011520999991952020209004+67283+014417FM-12+001399999V0201101N008219999999N0400001N9-00221-01111099081ADDAY111999GF108991031071012501041071MD1210071+9999MW1021
0057011520999991952020212004+67283+014417FM-12+001399999V0201101N011819999999N0600001N9-00221-01111098901ADDAY121999GF107991021071012501041071MD1990181+9999MW1021
0057011520999991952020215004+67283+014417FM-12+001399999V0201101N008219999999N0400001N9-00111-01001098861ADDAY121999GF108991031081012501041999MD1710041+9999MW1021
0076011520999991952020218004+67283+014417FM-12+001399999V0201101N00981012301CN0400001N9-00111-00891098741ADDAY121999GF108991051081012501041999IA1319KA1999M-00111MD1710121+9999MW1021
0057011520999991952020300004+67283+014417FM-12+001399999V0201601N004119999999N0160001N9+00001-00721098831ADDAY121999GF108991041081012501021999MD1010041+9999MW1021
0057011520999991952020303004+67283+014417FM-12+001399999V0201601N006219999999N0160001N9+00111-00501098861ADDAY121999GF108991041081012501021999MD1210031+9999MW1021
0076011520999991952020306004+67283+014417FM-12+001399999V0200701N002119999999N0160001N9+00111-00781098921ADDAY111999GF107991031081012501041001IA1309KA1999N-00221MD1210061+9999MW1021
0057011520999991952020309004+67283+014417FM-12+001399999V0201601N006219999999N0600001N9+00111-00781099031ADDAY121999GF106991021081017501041071MD1210111+9999MW1011
0057011520999991952020312004+67283+014417FM-12+001399999V0201601N003119999999N0600001N9+00001-00721099101ADDAY121999GF106991021081017501041071MD1310071+9999MW1021
0057011520999991952020315004+67283+014417FM-12+001399999V0201101N003119999999N0600001N9-00111-00781099211ADDAY121999GF106991021081017501041071MD1310111+9999MW1021
0076011520999991952020318004+67283+014417FM-12+001399999V0200901N004119999999N0600001N9-00111-00721099271ADDAY121999GF106991011081012501041061IA1309KA1999M+00111MD1310061+9999MW1021
0057011520999991952020400004+67283+014417FM-12+001399999V0201401N00101007801CN0140001N9+00001-00721099621ADDAY121999GF108991061081008001041999MD1310181+9999MW1021
0057011520999991952020403004+67283+014417FM-12+001399999V0201601N00411007801CN0140001N9+00111-00721099711ADDAY121999GF106991061081008001001001MD1210091+9999MW1021
0076011520999991952020406004+67283+014417FM-12+001399999V0201601N00211004501CN0140001N9+00001-00501099841ADDAY121999GF108991081081004501999999IA1309KA1999N-00111MD1310131+9999MW1151
0057011520999991952020409004+67283+014417FM-12+001399999V0201101N00511004501CN0004001N9-00111-00281100081ADDAY181999GF108991081081004501999999MD1210241+9999MW1861
0057011520999991952020412004+67283+014417FM-12+001399999V0201101N004119999999N0400001N9+00001-00391100251ADDAY181999GF107991031081012501041011MD1210171+9999MW1021
0057011520999991952020415004+67283+014417FM-12+001399999V0202001N00511004501CN0120001N9+00111-00221100441ADDAY181999GF108991071091004501061999MD1210191+9999MW1851
0087011520999991952020418004+67283+014417FM-12+001399999V0201801N00411007801CN0200001N9+00111-00281100581ADDAA199000691AY181999GF107991061091008001061999IA1309KA1999M+00221MD1210141+9999MW1151
0057011520999991952020500004+67283+014417FM-12+001399999V0201801N00311004501CN0020001N9+00111-00501101001ADDAY181999GF108991081091004501999999MD1210191+9999MW1861
0057011520999991952020503004+67283+014417FM-12+001399999V0202301N00721004501CN0060001N9+00111-00391101131ADDAY181999GF108991081091004501999999MD1210131+9999MW1261
0087011520999991952020506004+67283+014417FM-12+001399999V0203601N00411004501CN0100001N9+00221+00001101431ADDAA199004091AY121999GF108991081091004501999999IA1209KA1999N-00111MD1310301+9999MW1151
0057011520999991952020509004+67283+014417FM-12+001399999V0200201N005119999999N0200001N9+00221-00111101731ADDAY181999GF107991041031012501001021MD1310301+9999MW1021
0057011520999991952020512004+67283+014417FM-12+001399999V0203601N00411007801CN0050001N9+00111-00111101931ADDAY181999GF108991081091008001999999MD1210201+9999MW1851
0057011520999991952020515004+67283+014417FM-12+001399999V0203401N003119999999N0200001N9+00001-00221102051ADDAY181999GF105991041091008001061001MD1210121+9999MW1151
0087011520999991952020518004+67283+014417FM-12+001399999V0202701N003119999999N0400001N9+00111-00281102061ADDAA199000391AY181999GF106991041091008001061001IA1209KA1999M+00221MD1210011+9999MW1151
0057011520999991952020600004+67283+014417FM-12+001399999V0201101N00511012301CN0200001N9-00221-00391101861ADDAY121999GF107991051081012501061001MD1810091+9999MW1021
0057011520999991952020603004+67283+014417FM-12+001399999V0200901N007219999999N0200001N9-00221-00391101481ADDAY121999GF106991041081012501061061MD1810381+9999MW1021
0076011520999991952020606004+67283+014417FM-12+001399999V0201101N007219999999N0200001N9-00221-00781100651ADDAY121999GF107991041081012501061061IA1209KA1999N-00281MD1810831+9999MW1021
0057011520999991952020609004+67283+014417FM-12+001399999V0201101N00871220001CN0600001N9+00111-00891099891ADDAY121999GF108991001001999999071999MD1810761+9999MW1021
0057011520999991952020612004+67283+014417FM-12+001399999V0201101N01081007801CN0100001N9+00111-00391099211ADDAY181999GF108991081091008001999999MD1810671+9999MW1851
0057011520999991952020615004+67283+014417FM-12+001399999V0201101N00981000151CN0010001N9-00111-00221098851ADDAY181999GF109991091999000251999999MD1710361+9999MW1861
0106011520999991952020618004+67283+014417FM-12+001399999V0200901N00981000601CN0018001N9-00221-00391098761ADDAA199002091AY171999GF108991999071000751021999IA1209KA1999M+00111MD1610091+9999MW1731EQDQ01+000082SCOTLC
0057011520999991952020700004+67283+014417FM-12+001399999V0200901N009819999999N0100001N9-00281-00891098311ADDAY171999GF107991041071004501021001MD1710211+9999MW1221
0057011520999991952020703004+67283+014417FM-12+001399999V0200901N00621004501CN0040001N9-00281-00781098151ADDAY171999GF107991061071004501021001MD1810161+9999MW1701
0087011520999991952020706004+67283+014417FM-12+001399999V0201101N00511007801CN0140001N9-00111-00501098001ADDAA199000391AY171999GF108991051071008001021999IA1319KA1999N-00391MD1810151+9999MW1221
0057011520999991952020709004+67283+014417FM-12+001399999V0201101N00411004501CN0008001N9-00221-00281098021ADDAY171999GF108991081081004501999999MD1210021+9999MW1711
0057011520999991952020712004+67283+014417FM-12+001399999V0202301N008219999999N0400001N9+00111-00281097901ADDAY121999GF107991021081004501041001MD1710121+9999MW1021
0057011520999991952020715004+67283+014417FM-12+001399999V0202301N009819999999N0200001N9+00111-00281097671ADDAY181999GF107991041091004501061071MD1710231+9999MW1151
0087011520999991952020718004+67283+014417FM-12+001399999V0203601N01081004501CN0200001N9+00001-00501097681ADDAA199003091AY181999GF108991071091004501061999IA1319KA1999M+00111MD1210011+9999MW1151
0057011520999991952020800004+67283+014417FM-12+001399999V0203601N00621007801CN0200001N9-00111-00721097981ADDAY121999GF107991051091008001061001MD1210131+9999MW1151
0057011520999991952020803004+67283+014417FM-12+001399999V0203401N00981004501CN0100001N9-00111-00721097951ADDAY181999GF108991081091004501999999MD1990031+9999MW1851
0087011520999991952020806004+67283+014417FM-12+001399999V0209991C000019999999N0160001N9-00221-00281097941ADDAA199002091AY181999GF106991041091004501061001IA1319KA1999N-00281MD1210011+9999MW1261
0092011520999991952020809004+67283+014417FM-12+001399999V0200201N00821220001CN0400001N9-00221-00721098251ADDAY181999GF103991021091008001041011MD1210311+9999MW1011EQDQ01+000042APCTENQ02+000312APC3  
0057011520999991952020812004+67283+014417FM-12+001399999V0200201N00621007801CN0400001N9-00221-01001098541ADDAY181999GF107991051091008001041999MD1210291+9999MW1021
0057011520999991952020815004+67283+014417FM-12+001399999V0200701N001019999999N0160001N9-00281-00721098621ADDAY181999GF107991041091008001061001MD1210081+9999MW1151
0106011520999991952020818004+67283+014417FM-12+001399999V0201101N004119999999N0400001N9-00391-00891098761ADDAA199000591AY181999GF108991031081008001041071IA1319KA1999M+99999MD1210141+9999MW1151EQDQ01 -00782ATMX  
0057011520999991952020900004+67283+014417FM-12+001399999V0201101N00211004501CN0140001N9-00391-00781099131ADDAY181999GF107991071071004501001001MD1210121+9999MW1261
0057011520999991952020903004+67283+014417FM-12+001399999V0203601N01181004501CN0140001N9-00391-00781099081ADDAY121999GF107991071071004501001001MD1990051+9999MW1361
0122011520999991952020906004+67283+014417FM-12+001399999V0200201N01291007801CN0140001N9-00111-00501099261ADDAA199000691AY121999GF108991081071008001999999IA1319KA1999N-00611MD1210181+9999MW1361EQDQ01+000042APCTENQ02+000182APC3  
0057011520999991952020909004+67283+014417FM-12+001399999V0200201N01491004501CN0010001N9-00221-00391099441ADDAY181999GF108991081071004501999999MD1210181+9999MW1361
0057011520999991952020912004+67283+014417FM-12+001399999V0203601N01391004501CN0010001N9-00221-00501099561ADDAY181999GF108991081071004501999999MD1110121+9999MW1851
0076011520999991952020915004+67283+014417FM-12+001399999V0203601N01291004501CN0020001N9-00281-00611099651ADDAY181999GF108991999071004501021999MD1210091+9999MW1361EQDQ01+000082SCOTLC
0106011520999991952020918004+67283+014417FM-12+001399999V0203601N01181002401CN0010001N9-00281-00611099721ADDAA199003091AY181999GF108991999071002501021999IA1319KA1999M+00001MD1210071+9999MW1851EQDQ01+000082SCOTLC
0057011520999991952021000004+67283+014417FM-12+001399999V0203601N00821004501CN0010001N9-00391-00611099661ADDAY181999GF108991081071004501999999MD1810071+9999MW1851
0057011520999991952021003004+67283+014417FM-12+001399999V0203601N00621007801CN0400001N9-00221-00611099531ADDAY181999GF108991081081008001999999MD1810131+9999MW1021
0087011520999991952021006004+67283+014417FM-12+001399999V0200901N004119999999N0600001N9-00501-00891099451ADDAA199000391AY121999GF106991011011008001041001IA1319KA1999N-00611MD1810081+9999MW1021
0057011520999991952021009004+67283+014417FM-12+001399999V0200901N00211220001CN0700001N9-00611-00891099401ADDAY111999GF101991011011012501041001MD1810051+9999MW1011
0076011520999991952021012004+67283+014417FM-12+001399999V0200901N00311220001CN0700001N9-00501-00781099331ADDAY101999GF103991999011012501001001MD1710071+9999MW1031EQDQ01+000022SCOTLC
0057011520999991952021015004+67283+014417FM-12+001399999V0200901N00311220001CN0700001N9-00611-01001099281ADDAY101999GF103991021011012501001071MD1810051+9999MW1021
0095011520999991952021018004+67283+014417FM-12+001399999V0200901N003119999999N0600001N9-00721-01001099281ADDAY121999GF105991021011012501021061IA1319KA1999M-00391MD1410001+9999MW1031EQDQ01+000032APCTEN
0057011520999991952021100004+67283+014417FM-12+001399999V0201101N00511007801CN0600001N9-00611-00781099241ADDAY111999GF108991081081008001999999MD1990021+9999MW1021
0057011520999991952021103004+67283+014417FM-12+001399999V0200901N004119999999N0600001N9-00611-00781099251ADDAY121999GF108991011071008001011999MD1310011+9999MW1021
0076011520999991952021106004+67283+014417FM-12+001399999V0201101N004119999999N0400001N9-00611-00781099291ADDAY121999GF108991021071008001011999IA1319KA1999N-00781MD1210051+9999MW1021
0057011520999991952021109004+67283+014417FM-12+001399999V0201401N00411004501CN0160001N9-00391-00611099311ADDAY171999GF108991051071004501021999MD1310041+9999MW1701
0057011520999991952021112004+67283+014417FM-12+001399999V0201101N00311007801CN0200001N9-00391-00501099411ADDAY181999GF107991051091008001061071MD1310101+9999MW1151
0057011520999991952021115004+67283+014417FM-12+001399999V0201101N004119999999N0200001N9-00281-00501099501ADDAY181999GF107991031091004501061001MD1310091+9999MW1011
0087011520999991952021118004+67283+014417FM-12+001399999V0201101N00411220001CN0400001N9-00391-00611099711ADDAA199002091AY181999GF103991011091008001061001IA1319KA1999M-00281MD1310211+9999MW1011
0057011520999991952021200004+67283+014417FM-12+001399999V0200201N003119999999N0400001N9+00001-00281099881ADDAY111999GF106991041081008001041001MD1210101+9999MW1011
0057011520999991952021203004+67283+014417FM-12+001399999V0203601N00621007801CN0400001N9+00111-00391099901ADDAY121999GF107991071081008001001001MD1210021+9999MW1021
0076011520999991952021206004+67283+014417FM-12+001399999V0203601N00821007801CN0400001N9+00111-00391099981ADDAY121999GF106991061081008001001001IA1319KA1999N-00391MD1210081+9999MW1021
0057011520999991952021209004+67283+014417FM-12+001399999V0203601N008219999999N0400001N9+00111-00501100021ADDAY111999GF105991041091008001061001MD1210041+9999MW1021
0057011520999991952021212004+67283+014417FM-12+001399999V0200701N005119999999N0400001N9+00001-00611100111ADDAY121999GF105991041091008001061001MD1210091+9999MW1151
0057011520999991952021215004+67283+014417FM-12+001399999V0200901N003119999999N0200001N9-00281-00501100141ADDAY121999GF105991021091008001061001MD1210031+9999MW1151
0106011520999991952021218004+67283+014417FM-12+001399999V0201101N004119999999N0100001N9-00281-00501100141ADDAA199000691AY181999GF108991041091008001061999IA1319KA1999M+00111MD1410001+9999MW1851EQDQ01+000032APCTEN
0057011520999991952021300004+67283+014417FM-12+001399999V0200901N00511007801CN0200001N9-00501-00721100091ADDAY181999GF107991071091008001001001MD1710011+9999MW1851
0057011520999991952021303004+67283+014417FM-12+001399999V0200901N00411007801CN0200001N9-00501-00721100011ADDAY181999GF106991051091008001041051MD1710081+9999MW1851
0087011520999991952021306004+67283+014417FM-12+001399999V0200901N00411220001CN0400001N9-00611-00781099961ADDAA199001091AY181999GF104991041091008001001001IA1319KA1999N-00721MD1810051+9999MW1011
0057011520999991952021309004+67283+014417FM-12+001399999V0200901N004119999999N0400001N9-00611-00781099891ADDAY181999GF106991041091008001061001MD1710071+9999MW1151
0057011520999991952021312004+67283+014417FM-12+001399999V0201101N004119999999N0400001N9-00501-00721099881ADDAY181999GF106991031091004501061001MD1610011+9999MW1151
0057011520999991952021315004+67283+014417FM-12+001399999V0201101N004119999999N0200001N9-00611-00781099851ADDAY181999GF105991021091012501061001MD1710031+9999MW1151
0087011520999991952021318004+67283+014417FM-12+001399999V0201601N00411220001CN0160001N9-00501-00721099851ADDAA199000691AY181999GF104991021091012501061001IA1319KA1999M-00501MD1510021+9999MW1151
0057011520999991952021400004+67283+014417FM-12+001399999V0201801N006219999999N0400001N9-00281-00781099821ADDAY181999GF107991011081008001041011MD1210021+9999MW1021
0057011520999991952021403004+67283+014417FM-12+001399999V0202001N00621007801CN0200001N9-00221-00721099841ADDAY121999GF108991081091008001999999MD1210021+9999MW1031
0087011520999991952021406004+67283+014417FM-12+001399999V0201801N00621012301CN0400001N9-00221-00781099821ADDAA199000591AY181999GF108991071091012501021999IA1319KA1999N-00611MD1710021+9999MW1021
0057011520999991952021409004+67283+014417FM-12+001399999V0201401N00411004501CN0160001N9-00221-00781099871ADDAY181999GF107991061091004501061001MD1210051+9999MW1151
0057011520999991952021412004+67283+014417FM-12+001399999V0201401N00511007801CN0200001N9-00221-00721099931ADDAY181999GF107991051091008001061001MD1210061+9999MW1851
0057011520999991952021415004+67283+014417FM-12+001399999V0202001N00411007801CN0400001N9-00111-00501100051ADDAY181999GF107991051091008001061001MD1210121+9999MW1151
0087011520999991952021418004+67283+014417FM-12+001399999V0202001N005119999999N0160001N9-00111-00611100131ADDAA199000691AY121999GF108991041091008001061999IA1319KA1999M-00111MD1210081+9999MW1151
0057011520999991952021500004+67283+014417FM-12+001399999V0201801N00621004501CN0020001N9-00221-00391100231ADDAY181999GF108991081091004501999999MD1210051+9999MW1861
0057011520999991952021503004+67283+014417FM-12+001399999V0201601N00511007801CN0400001N9-00111-01111100131ADDAY181999GF108991081091008001999999MD1710101+9999MW1021
0106011520999991952021506004+67283+014417FM-12+001399999V0201601N00871012301CN0400001N9-00111-01221099951ADDAA199000691AY181999GF108991999071012501021999IA1319KA1999N-00391MD1710181+9999MW1021EQDQ01+000082SCOTLC
0057011520999991952021509004+67283+014417FM-12+001399999V0201601N00821012301CN0400001N9-00111-01281099811ADDAY181999GF108991061071012501021999MD1710141+9999MW1151
0057011520999991952021512004+67283+014417FM-12+001399999V0201401N00721012301CN0400001N9-00221-01221099681ADDAY121999GF108991061071012501021999MD1710131+9999MW1151
0057011520999991952021515004+67283+014417FM-12+001399999V0201101N008719999999N0600001N9-00221-01111099411ADDAY121999GF107991041071012501021001MD1710271+9999MW1151
0076011520999991952021518004+67283+014417FM-12+001399999V0201101N01291007801CN0120001N9-00391-01001099111ADDAY131999GF108991081071008001999999IA1319KA1999M+00001MD1710301+9999MW1361
0057011520999991952021600004+67283+014417FM-12+001399999V0200901N00621220001CN0600001N9-00281-01001099371ADDAY131999GF103991031071008001001001MD1990141+9999MW1021
0057011520999991952021603004+67283+014417FM-12+001399999V0200901N00821220001CN0600001N9-00281-01001099451ADDAY121999GF104991031051008001071001MD1210081+9999MW1021
0095011520999991952021606004+67283+014417FM-12+001399999V0201101N00721220001CN0700001N9-00221-01001099541ADDAY121999GF102991999001999999071001IA1319KA1999N-00501MD1110091+9999MW1011EQDQ01+000002SCOTLC
0057011520999991952021609004+67283+014417FM-12+001399999V0200901N00621220001CN0700001N9-00281-01001099701ADDAY121999GF103991011081017501041011MD1210161+9999MW1021
0057011520999991952021612004+67283+014417FM-12+001399999V0200901N00411220001CN0700001N9-00221-00891099891ADDAY121999GF104991011081017501041011MD1210191+9999MW1021
0057011520999991952021615004+67283+014417FM-12+001399999V0200901N00311220001CN0700001N9-00221-00891100041ADDAY101999GF102991011081017501041001MD1210151+9999MW1021
0076011520999991952021618004+67283+014417FM-12+001399999V0200901N00411220001CN0600001N9-00501-01001100181ADDAY101999GF101991011081017501001001IA1319KA1999M-00221MD1310141+9999MW1011
0057011520999991952021700004+67283+014417FM-12+001399999V0200901N00511004501CN0140001N9-00391-00721100301ADDAY181999GF106991061091004501001001MD1210121+9999MW1261
0092011520999991952021703004+67283+014417FM-12+001399999V0200901N00411007801CN0160001N9-00281-00391100401ADDAY181999GF106991051091008001061001MD1210101+9999MW1151EQDQ01+000042APCTENQ02+000102APC3  
0087011520999991952021706004+67283+014417FM-12+001399999V0200901N00211007801CN0200001N9-00221-00281100651ADDAA199002091AY181999GF108991051091008001061071IA1319KA1999N-00611MD1210251+9999MW1151
0057011520999991952021709004+67283+014417FM-12+001399999V0202301N00511000151CN0006001N9-00111-00281100901ADDAY181999GF109991091999000251999999MD1210251+9999MW1861
0057011520999991952021712004+67283+014417FM-12+001399999V0202301N00511004501CN0024001N9-00111-00281101021ADDAY181999GF107991061091004501061001MD1210121+9999MW1151
0092011520999991952021715004+67283+014417FM-12+001399999V0203401N004119999999N0400001N9+00001-00391101191ADDAY181999GF105991041091008001041011MD1210171+9999MW1011EQDQ01+000042APCTENQ02+000172APC3  
0087011520999991952021718004+67283+014417FM-12+001399999V0202901N004119999999N0400001N9+00001-00781101271ADDAA199002091AY121999GF105991041091008001041021IA1319KA1999M+00111MD1210081+9999MW1021
0057011520999991952021800004+67283+014417FM-12+001399999V0202301N00411220001CN0400001N9-00111-00391101401ADDAY181999GF104991041091008001001001MD1210071+9999MW1021
0057011520999991952021803004+67283+014417FM-12+001399999V0202501N00411007801CN0400001N9-00111-00391101341ADDAY181999GF106991061091008001001001MD1710061+9999MW1021
0087011520999991952021806004+67283+014417FM-12+001399999V0202001N00461002401CN0130001N9-00221-00391101241ADDAA199000591AY181999GF108991081091002501999999IA1319KA1999N-00281MD1610011+9999MW1851
0057011520999991952021809004+67283+014417FM-12+001399999V0201101N00511000151CN0008001N9-00281-00391101031ADDAY181999GF109991091999000251999999MD1710211+9999MW1861
0057011520999991952021812004+67283+014417FM-12+001399999V0201101N00621002401CN0100001N9-00281-00391100761ADDAY181999GF108991081091002501999999MD1710271+9999MW1151
0057011520999991952021815004+67283+014417FM-12+001399999V0201101N00721002401CN0008001N9-00281-00501100481ADDAY181999GF109991091999002501999999MD1710281+9999MW1861
0087011520999991952021818004+67283+014417FM-12+001399999V0201101N00621002401CN0100001N9-00221-00611100361ADDAA199001091AY181999GF107991051071002501021001IA1319KA1999M-00221MD1810121+9999MW1701
0057011520999991952021900004+67283+014417FM-12+001399999V0201101N00621002401CN0060001N9-00281-00501100261ADDAY171999GF108991081001002501021999MD1810021+9999MW1711
0057011520999991952021903004+67283+014417FM-12+001399999V0201101N00621004501CN0200001N9-00281-00501100111ADDAY171999GF108991081001004501021999MD1810151+9999MW1021
0087011520999991952021906004+67283+014417FM-12+001399999V0201101N00621001501CN0020001N9-00281-00391100081ADDAA199002091AY171999GF108991081001001501021999IA1319KA1999N-00391MD1710031+9999MW1771
0057011520999991952021909004+67283+014417FM-12+001399999V0202501N00821007801CN0200001N9+00111-00281100091ADDAY181999GF107991061091008001001031MD1210011+9999MW1851
0057011520999991952021912004+67283+014417FM-12+001399999V0202901N00981007801CN0018001N9+00111-00221100061ADDAY181999GF107991071091008001001031MD1710031+9999MW1861
0057011520999991952021915004+67283+014417FM-12+001399999V0202901N01181007801CN0160001N9-00111-00611100261ADDAY181999GF107991061091008001061001MD1310201+9999MW1261
0087011520999991952021918004+67283+014417FM-12+001399999V0203401N00871007801CN0140001N9-00111-00781100421ADDAA199002091AY181999GF108991081091008001999999IA1319KA1999M+00111MD1110161+9999MW1851
0057011520999991952022000004+67283+014417FM-12+001399999V0202701N00411007801CN0200001N9-00111-01281100371ADDAY181999GF106991061091008001001001MD1610071+9999MW1021
0057011520999991952022003004+67283+014417FM-12+001399999V0201801N00511007801CN0200001N9-00221-00721100191ADDAY121999GF107991071091008001001001MD1990181+9999MW1021
0106011520999991952022006004+67283+014417FM-12+001399999V0201101N00511220001CN0700001N9-00391-00781099861ADDAA199000691AY121999GF106991999001999999021001IA1319KA1999N-00501MD1810331+9999MW1021EQDQ01+000002SCOTLC
0057011520999991952022009004+67283+014417FM-12+001399999V0200901N00871220001CN0600001N9-00391-01001099371ADDAY121999GF108991001001999999021999MD1810491+9999MW1021
0057011520999991952022012004+67283+014417FM-12+001399999V0201101N01081220001CN0100001N9-00281-00781098751ADDAY121999GF108991001001999999021999MD1810621+9999MW1021
0057011520999991952022015004+67283+014417FM-12+001399999V0200901N00981000151CN0020001N9-00391-00501098201ADDAY181999GF109991091999000251999999MD1810551+9999MW1861
0087011520999991952022018004+67283+014417FM-12+001399999V0200901N00981002401CN0100001N9-00391-00501098151ADDAA199002091AY181999GF106991061091002501001001IA1319KA1999M-00281MD1710051+9999MW1361
0078011520999991952022100004+67283+014417FM-12+001399999V0201101N00621004501CN0200001N9-00111-00781098091ADDAY131999GF105991051091004501001001MW1021EQDQ01+000042APCTENQ02+000052APC3  
0057011520999991952022103004+67283+014417FM-12+001399999V0201101N00621220001CN0200001N9-00221-00891098161ADDAY121999GF103991031091004501001001MD1210071+9999MW1011
0076011520999991952022106004+67283+014417FM-12+001399999V0201101N00821007801CN0160001N9-00221-00891098311ADDAY121999GF108991081001008001021999IA1319KA1999N-00501MD1210151+9999MW1031
0057011520999991952022109004+67283+014417FM-12+001399999V0201101N00621007801CN0140001N9-00221-00281098431ADDAY181999GF108991081091008001999999MD1310121+9999MW1851
0057011520999991952022112004+67283+014417FM-12+001399999V0200701N00411007801CN0050001N9+00001-00111098621ADDAY181999GF108991081091008001999999MD1210191+9999MW1851
0057011520999991952022115004+67283+014417FM-12+001399999V0200201N00621004501CN0200001N9-00111-00501098821ADDAY181999GF107991051081004501071001MD1210201+9999MW1151
0087011520999991952022118004+67283+014417FM-12+001399999V0200201N00721220001CN0200001N9-00221-00721099081ADDAA199000591AY121999GF103991031081008001001001IA1319KA1999M+00001MD1310201+9999MW1151
0049011520999991952022200004+67283+014417FM-12+001399999V0200901N00211000151CN9999999N9-00391-01221099651ADDGF109991091999000251999999MD1310301+9999MW1101
0049011520999991952022203004+67283+014417FM-12+001399999V0201101N00211000151CN9999999N9-00501-01001099871ADDGF109991091999000251999999MD1310221+9999MW1101
0076011520999991952022206004+67283+014417FM-12+001399999V0200901N00411220001CN0400001N9-00611-01111100041ADDAY101999GF103991031999022501999071IA1319KA1999N-00721MD1310171+9999MW1021
0057011520999991952022209004+67283+014417FM-12+001399999V0201101N00511220001CN0700001N9-00611-01001100131ADDAY121999GF107991001001999999001071MD1210091+9999MW1021
0057011520999991952022212004+67283+014417FM-12+001399999V0201101N00511220001CN0700001N9-00391-01001100171ADDAY101999GF101991001001999999001011MD1210041+9999MW1021
0057011520999991952022215004+67283+014417FM-12+001399999V0200901N006219999999N0700001N9-00391-01001100121ADDAY101999GF105991011081017501071011MD1710051+9999MW1031
0076011520999991952022218004+67283+014417FM-12+001399999V0200901N00621220001CN0600001N9-00501-01221100121ADDAY101999GF103991011081017501071011IA1319KA1999M-00391MD1510031+9999MW1011
0057011520999991952022300004+67283+014417FM-12+001399999V0200901N00621220001CN0600001N9-00501-01221100181ADDAY111999GF106991001001999999001071MD1210091+9999MW1021
0057011520999991952022303004+67283+014417FM-12+001399999V0200901N00621220001CN0600001N9-00501-01221100291ADDAY111999GF103991001001999999001021MD1210111+9999MW1011
0076011520999991952022306004+67283+014417FM-12+001399999V0201101N00721220001CN0600001N9-00501-01111100401ADDAY101999GF102991001001999999041011IA1319KA1999N-00611MD1210111+9999MW1021
0057011520999991952022309004+67283+014417FM-12+001399999V0200901N00621012301CN0600001N9-00501-01111100531ADDAY121999GF107991051081012501041001MD1310131+9999MW1151
0057011520999991952022312004+67283+014417FM-12+001399999V0201101N00621004501CN0200001N9-00391-00501100661ADDAY171999GF108991081071004501999999MD1210131+9999MW1701
0057011520999991952022315004+67283+014417FM-12+001399999V0201101N00511007801CN0200001N9-00111-00391100711ADDAY181999GF107991051091008001061011MD1210051+9999MW1151
0087011520999991952022318004+67283+014417FM-12+001399999V0201801N008719999999N0400001N9+00111-00501100831ADDAA199000391AY181999GF105991041091008001061001IA1319KA1999M+00221MD1210121+9999MW1151
0057011520999991952022400004+67283+014417FM-12+001399999V0202501N00721004501CN0120001N9+00001-00221101201ADDAY181999GF106991061091004501001001MD1210171+9999MW1851
0057011520999991952022403004+67283+014417FM-12+001399999V0202701N00721004501CN0020001N9+00001-00221101291ADDAY181999GF108991081091004501999999MD1210091+9999MW1861
0087011520999991952022406004+67283+014417FM-12+001399999V0202701N00721004501CN0020001N9+00001-00111101531ADDAA199003091AY181999GF108991081091004501999999IA1319KA1999N-00221MD1310241+9999MW1881
0057011520999991952022409004+67283+014417FM-12+001399999V0200901N00411007801CN0600001N9-00221-00281101771ADDAY181999GF106991061081008001001001MD1310241+9999MW1271
0057011520999991952022412004+67283+014417FM-12+001399999V0200901N00411220001CN0600001N9-00221-00391101931ADDAY121999GF104991021081008001001071MD1310161+9999MW1011
0057011520999991952022415004+67283+014417FM-12+001399999V0200901N005119999999N0600001N9-00221-00501101981ADDAY121999GF106991031081012501001011MD1210051+9999MW1021
0106011520999991952022418004+67283+014417FM-12+001399999V0200901N00411220001CN0600001N9-00391-00781101981ADDAA199000591AY101999GF103991011081012501041001IA1319KA1999M+00111MD1410001+9999MW1021EQDQ01+000022APCTEN
0057011520999991952022500004+67283+014417FM-12+001399999V0200901N008719999999N0200001N9-00221-00781101771ADDAY121999GF108991031081012501021999MD1710151+9999MW1021
0057011520999991952022503004+67283+014417FM-12+001399999V0200901N00821000151CN0004001N9-00221-00391101551ADDAY171999GF109991091999000251999999MD1710221+9999MW1751
0087011520999991952022506004+67283+014417FM-12+001399999V0200901N01081000151CN0004001N9-00221-00281101241ADDAA199001091AY171999GF109991091999000251999999IA1319KA1999N-00391MD1710311+9999MW1751
0057011520999991952022509004+67283+014417FM-12+001399999V0200901N00981002401CN0080001N9-00111-00221101221ADDAY171999GF108991081081002501999999MD1510051+9999MW1661
0057011520999991952022512004+67283+014417FM-12+001399999V0200901N006219999999N0160001N9+00111+00001101311ADDAY161999GF108991031061002501021999MD1210091+9999MW1601
0057011520999991952022515004+67283+014417FM-12+001399999V0201101N00821007801CN0100001N9+00111-00111101291ADDAY161999GF108991081001008001021999MD1710021+9999MW1601
0087011520999991952022518004+67283+014417FM-12+001399999V0201101N008219999999N0200001N9+00111-00221101301ADDAA199003091AY161999GF108991031051008001021999IA1319KA1999M+00111MD1210011+9999MW1601
0076011520999991952022600004+67283+014417FM-12+001399999V0201801N00621002401CN0150001N9+00221+00001101171ADDAY161999GF108991999071002501021999MD1810071+9999MW1631EQDQ01+000082SCOTLC
0076011520999991952022603004+67283+014417FM-12+001399999V0201801N00411002401CN0140001N9+00281+00221101061ADDAY161999GF108991999071002501021999MD1810161+9999MW1631EQDQ01+000082SCOTLC
0106011520999991952022606004+67283+014417FM-12+001399999V0202001N00721002401CN0120001N9+00501+00391101011ADDAA199013091AY161999GF108991999071002501021999IA1209KA1999N+00001MD1710051+9999MW1631EQDQ01+000082SCOTLC
0092011520999991952022609004+67283+014417FM-12+001399999V0202001N00871000151CN0038001N9+00501+00501101301ADDAY161999GF109991091999000251999999MD1210291+9999MW1631EQDQ01+000042APCTENQ02+000292APC3  
0057011520999991952022612004+67283+014417FM-12+001399999V0202701N00721001501CN0040001N9+00501+00501101481ADDAY161999GF108991081061001501999999MD1310181+9999MW1501
0057011520999991952022615004+67283+014417FM-12+001399999V0202301N00821001501CN0100001N9+00501+00501101641ADDAY151999GF108991081061001501999999MD1210161+9999MW1021
0087011520999991952022618004+67283+014417FM-12+001399999V0202301N00621004501CN0100001N9+00501+00501101751ADDAA199003091AY161999GF108991081061004501999999IA1209KA1999M+00501MD1210111+9999MW1611
0076011520999991952022700004+67283+014417FM-12+001399999V0202301N00621001501CN0080001N9+00501+00501101921ADDAY161999GF108991999071001501021999MD1110061+9999MW1621EQDQ01+000082SCOTLC
0092011520999991952022703004+67283+014417FM-12+001399999V0202301N00721001501CN0030001N9+00501+00501101921ADDAY161999GF108991999071001501021999MD1410001+9999MW1581EQDQ01+000082SCOTLCQ02+000032APCTEN
0106011520999991952022706004+67283+014417FM-12+001399999V0202001N00621002401CN0100001N9+00501+00501101931ADDAA199005091AY161999GF108991999071002501021999IA1199KA1999N+00391MD1210011+9999MW1151EQDQ01+000082SCOTLC
0057011520999991952022709004+67283+014417FM-12+001399999V0202001N00621004501CN0120001N9+00501+00281101901ADDAY161999GF108991071071004501021999MD1990031+9999MW1211
0057011520999991952022712004+67283+014417FM-12+001399999V0202001N00871004501CN0160001N9+00611+00221101771ADDAY161999GF108991061071004501021999MD1710131+9999MW1211
0057011520999991952022715004+67283+014417FM-12+001399999V0202301N01081004501CN0140001N9+00611+00111101631ADDAY161999GF108991061071004501021999MD1710141+9999MW1601
0087011520999991952022718004+67283+014417FM-12+001399999V0202901N00821004501CN0160001N9+00391-00111101731ADDAA199002091AY161999GF107991051091004501021999IA1199KA1999M+00611MD1210101+9999MW1211
0057011520999991952022800004+67283+014417FM-12+001399999V0202901N00511220001CN0200001N9+00111-00221101921ADDAY111999GF103991011081012501041001MD1210051+9999MW1021
0057011520999991952022803004+67283+014417FM-12+001399999V0203201N00511007801CN0160001N9+00111-00221101921ADDAY181999GF108991051091008001061999MD1710011+9999MW1151
0087011520999991952022806004+67283+014417FM-12+001399999V0203201N00981007801CN0160001N9+00001-00391101871ADDAA199002091AY181999GF107991051091008001061001IA1199KA1999N-00221MD1710041+9999MW1151
0092011520999991952022809004+67283+014417FM-12+001399999V0203201N009819999999N0400001N9-00111-00611101971ADDAY181999GF106991041091008001061001MD1210101+9999MW1261EQDQ01+000042APCTENQ02+000102APC3  
0057011520999991952022812004+67283+014417FM-12+001399999V0203201N00981007801CN0018001N9+00001-00611102031ADDAY181999GF107991071091008001001001MD1210061+9999MW1861
0057011520999991952022815004+67283+014417FM-12+001399999V0202701N00621007801CN0200001N9+00001-00781101931ADDAY181999GF107991051091008001061999MD1710101+9999MW1021
0087011520999991952022818004+67283+014417FM-12+001399999V0202001N007219999999N0200001N9-00221-00501101731ADDAA199000691AY181999GF106991041091008001041001IA1199KA1999M+00111MD1710201+9999MW1021
0057011520999991952022900004+67283+014417FM-12+001399999V0202001N008719999999N0200001N9+00001-00721100831ADDAY181999GF106991041091008001061001MD1710481+9999MW1151
0057011520999991952022903004+67283+014417FM-12+001399999V0203401N00621004501CN0150001N9-00111-00221100591ADDAY181999GF108991081091004501999999MD1610241+9999MW1151
0087011520999991952022906004+67283+014417FM-12+001399999V0203401N00981004501CN0070001N9-00391-00611100581ADDAA199005091AY181999GF108991081091004501999999IA1319KA1999N-00501MD1710011+9999MW1851
0092011520999991952022909004+67283+014417FM-12+001399999V0203601N00621004501CN0400001N9-00391-01001100631ADDAY181999GF106991061091004501001051MD1210051+9999MW1151EQDQ01+000042APCTENQ02+000052APC3  
0057011520999991952022912004+67283+014417FM-12+001399999V0200201N00511007801CN0400001N9-00281-01221100571ADDAY121999GF107991071091008001001001MD1990061+9999MW1151
0057011520999991952022915004+67283+014417FM-12+001399999V0203401N00211220001CN0600001N9-00391-01391100551ADDAY111999GF102991011011012501061001MD1810021+9999MW1021
0076011520999991952022918004+67283+014417FM-12+001399999V0202301N005119999999N0400001N9-00391-01501100551ADDAY111999GF106991041091008001021001IA1319KA1999M-00281MD1210011+9999MW1031
0057011520999991952030100004+67283+014417FM-12+001399999V0203201N00871004501CN0160001N9-00391-00781100531ADDAY181999GF108991061091004501061999MD1210011+9999MW1151
0057011520999991952030103004+67283+014417FM-12+001399999V0203201N00821004501CN0160001N9-00221-00781100601ADDAY181999GF108991051091004501061999MD1210071+9999MW1151
0087011520999991952030106004+67283+014417FM-12+001399999V0203401N00871007801CN0200001N9-00221-00781100701ADDAA199003091AY181999GF108991051091008001061071IA1319KA1999N-00501MD1210101+9999MW1151
0057011520999991952030109004+67283+014417FM-12+001399999V0203401N007219999999N0400001N9-00221-01001100881ADDAY181999GF107991041091008001001071MD1210181+9999MW1021
0057011520999991952030112004+67283+014417FM-12+001399999V0203401N00721220001CN0600001N9-00221-01221101021ADDAY121999GF104991031011008001001011MD1210141+9999MW1011
0057011520999991952030115004+67283+014417FM-12+001399999V0203401N005119999999N0600001N9-00281-01281101141ADDAY111999GF106991041081012501001011MD1310121+9999MW1151
0087011520999991952030118004+67283+014417FM-12+001399999V0203401N00511007801CN0600001N9-00281-01221101211ADDAA199000691AY121999GF105991051081008001001001IA1319KA1999M-00221MD1310071+9999MW1021
0057011520999991952030200004+67283+014417FM-12+001399999V0200901N004119999999N0400001N9-00611-01001101431ADDAY121999GF107991041041012501041999MD1310141+9999MW1021
0057011520999991952030203004+67283+014417FM-12+001399999V0200901N004119999999N0400001N9-00721-00891101461ADDAY181999GF107991031091012501041071MD1310031+9999MW1021
0087011520999991952030206004+67283+014417FM-12+001399999V0201101N00621220001CN0700001N9-00891-01111101451ADDAA199000691AY111999GF101991011021008001001001IA1319KA1999N-01001MD1610011+9999MW1011
0076011520999991952030209004+67283+014417FM-12+001399999V0201101N00621220001CN0700001N9-00781-01221101451ADDAY101999GF101991011021012501041001MD1410001+9999MW1021EQDQ01+000032APCTEN
0076011520999991952030212004+67283+014417FM-12+001399999V0200901N00721220001CN0700001N9-00721-01221101401ADDAY101999GF101991999001999999061001MD1990051+9999MW1021EQDQ01+000002SCOTLC
0057011520999991952030215004+67283+014417FM-12+001399999V0200901N00721220001CN0700001N9-00721-01281101291ADDAY101999GF101991001001999999061051MD1710111+9999MW1021
0076011520999991952030218004+67283+014417FM-12+001399999V0200901N00721220001CN0600001N9-00781-01501101171ADDAY101999GF101991001001999999001051IA1319KA1999M-00611MD1710121+9999MW1021
0057011520999991952030300004+67283+014417FM-12+001399999V0200901N00721220001CN0600001N9-00891-01611101051ADDAY101999GF100991001001999999001001MD1810071+9999MW1021
0057011520999991952030303004+67283+014417FM-12+001399999V0200901N00721220001CN0600001N9-01001-01721100871ADDAY101999GF100991001001999999001001MD1810181+9999MW1021
0076011520999991952030306004+67283+014417FM-12+001399999V0201101N01291220001CN0700001N9-00721-01611100681ADDAY131999GF101991011081012501041001IA1319KA1999N-01111MD1710191+9999MW1361
0076011520999991952030309004+67283+014417FM-12+001399999V0201101N00981220001CN0700001N9-00721-01501100601ADDAY131999GF105991999001999999051001MD1710081+9999MW1031EQDQ01+000002SCOTLC
0057011520999991952030312004+67283+014417FM-12+001399999V0201601N011819999999N0600001N9-00501-01281100461ADDAY131999GF107991011081008001011001MD1710141+9999MW1021
0057011520999991952030315004+67283+014417FM-12+001399999V0201601N005119999999N0400001N9-00391-01281100381ADDAY121999GF108991011081008001021999MD1710081+9999MW1151
0111011520999991952030318004+67283+014417FM-12+001399999V0201401N006219999999N0400001N9-00501-01391100491ADDAY121999GF108991041081008001021999IA1319KA1999M-00391MD1210111+9999MW1151EQDQ01+000042APCTENQ02+000112APC3  
0057011520999991952030400004+67283+014417FM-12+001399999V0200901N007219999999N0160001N9-00391-01221100721ADDAY121999GF107991011081012501021071MD1210191+9999MW1021
0057011520999991952030403004+67283+014417FM-12+001399999V0200901N006219999999N0160001N9-00391-01281100831ADDAY121999GF108991031081012501021999MD1210111+9999MW1151
0087011520999991952030406004+67283+014417FM-12+001399999V0201101N007219999999N0060001N9-00391-00781101011ADDAA199000691AY171999GF108991031061004501021999IA1319KA1999N-00611MD1210181+9999MW1711
0057011520999991952030409004+67283+014417FM-12+001399999V0200901N00821004501CN0014001N9-00221-00501101001ADDAY171999GF108991081061004501999999MD1210091+9999MW1711
0057011520999991952030412004+67283+014417FM-12+001399999V0200901N00821012301CN0040001N9+00001-00221101161ADDAY171999GF108991081001012501021999MD1210161+9999MW1711
0057011520999991952030415004+67283+014417FM-12+001399999V0200901N00721007801CN0160001N9+00111-00221101361ADDAY171999GF108991061081008001021999MD1210201+9999MW1151
0087011520999991952030418004+67283+014417FM-12+001399999V0200901N00621007801CN0160001N9+00221-00221101531ADDAA199000691AY171999GF108991071081008001021999IA1319KA1999M+00221MD1210171+9999MW1701
0057011520999991952030500004+67283+014417FM-12+001399999V0201401N00621012301CN0140001N9+00281-00281101831ADDAY181999GF108991061081012501021999MD1210111+9999MW1151
0057011520999991952030503004+67283+014417FM-12+001399999V0201401N00511012301CN0140001N9+00281-00281101901ADDAY121999GF108991071081012501021999MD1210071+9999MW1151
0087011520999991952030506004+67283+014417FM-12+001399999V0200901N002119999999N0100001N9+00281-00281102031ADDAA199000391AY171999GF108991041061002501021999IA1319KA1999N+00111MD1310131+9999MW1681
0057011520999991952030509004+67283+014417FM-12+001399999V0200701N00211007801CN0200001N9+00221+00001102161ADDAY151999GF108991051051008001021999MD1210131+9999MW1501
0057011520999991952030512004+67283+014417FM-12+001399999V0200201N00621012301CN0200001N9+00221-00781102171ADDAY151999GF108991061051012501021999MD1210011+9999MW1021
0057011520999991952030515004+67283+014417FM-12+001399999V0200201N00821007801CN0160001N9+00111+00001102201ADDAY161999GF108991061071008001021999MD1210031+9999MW1601
0087011520999991952030518004+67283+014417FM-12+001399999V0200501N00981002401CN0070001N9+00001-00111102281ADDAA199001091AY171999GF108991061071002501021999IA1319KA1999M+00281MD1210081+9999MW1711
0057011520999991952030600004+67283+014417FM-12+001399999V0200501N003119999999N0140001N9+00111+00001102401ADDAY171999GF108991031071004501021999MD1210061+9999MW1701
0057011520999991952030603004+67283+014417FM-12+001399999V0200501N007219999999N0140001N9+00001-00281102461ADDAY171999GF108991031071008001021999MD1210061+9999MW1151
0087011520999991952030606004+67283+014417FM-12+001399999V0200501N00511007801CN0400001N9+00001-00391102481ADDAA199000691AY121999GF107991051061008001021999IA1319KA1999N-01611MD1210021+9999MW1151
0057011520999991952030609004+67283+014417FM-12+001399999V0200201N00211007801CN0400001N9+00111-00281102661ADDAY121999GF108991071081008001021999MD1310181+9999MW1021
0057011520999991952030612004+67283+014417FM-12+001399999V0200201N005119999999N0600001N9+00111-00391102751ADDAY111999GF107991041051008001021001MD1110091+9999MW1021
0057011520999991952030615004+67283+014417FM-12+001399999V0200501N00211007801CN0600001N9+00111-00391102721ADDAY111999GF107991051051008001071001MD1210031+9999MW1021
0076011520999991952030618004+67283+014417FM-12+001399999V0200201N00211007801CN0400001N9+00111-00391102701ADDAY121999GF107991061051008001071001IA1319KA1999M+00221MD1710021+9999MW1021
0057011520999991952030700004+67283+014417FM-12+001399999V0200901N00621007801CN0160001N9+00111-00391102661ADDAY121999GF108991051051008001071999MD1710031+9999MW1021
0057011520999991952030703004+67283+014417FM-12+001399999V0200901N00211007801CN0160001N9+00111-00391102641ADDAY121999GF108991061051008001071999MD1810021+9999MW1021
0076011520999991952030706004+67283+014417FM-12+001399999V0200701N00311012301CN0400001N9+00111-00391102521ADDAY121999GF107991061051012501071001IA1319KA1999N+00001MD1810121+9999MW1021
0057011520999991952030709004+67283+014417FM-12+001399999V0200701N004119999999N0400001N9+00221-00391102501ADDAY121999GF107991031051012501051011MD1710021+9999MW1021
0057011520999991952030712004+67283+014417FM-12+001399999V0200701N00721220001CN0400001N9+00221-00501102371ADDAY121999GF107991001001999999001071MD1710131+9999MW1051
0057011520999991952030715004+67283+014417FM-12+001399999V0200701N006219999999N0600001N9+00111-00611102261ADDAY121999GF107991021051017501011999MD1710111+9999MW1021
0076011520999991952030718004+67283+014417FM-12+001399999V0200901N005119999999N0400001N9+00001-00781102121ADDAY121999GF108991011051017501011999IA1319KA1999M+00221MD1710141+9999MW1021
0057011520999991952030800004+67283+014417FM-12+001399999V0200901N00621012301CN0160001N9+00001-00781101811ADDAY121999GF107991061051012501011001MD1710041+9999MW1021
0057011520999991952030803004+67283+014417FM-12+001399999V0200901N00721012301CN0160001N9+00001-00781101681ADDAY121999GF108991061051012501011999MD1710131+9999MW1021
0076011520999991952030806004+67283+014417FM-12+001399999V0200901N006219999999N0400001N9-00111-00891101591ADDAY121999GF107991011051017501011081IA1319KA1999N-00111MD1710091+9999MW1021
0076011520999991952030809004+67283+014417FM-12+001399999V0200901N005119999999N0400001N9+00001-00781101531ADDAY121999GF108991999001017501021999MD1710061+9999MW1021EQDQ01+000002SCOTLC
0076011520999991952030812004+67283+014417FM-12+001399999V0200901N006219999999N0140001N9+00001-00611101391ADDAY181999GF108991999001012501021999MD1710141+9999MW1851EQDQ01+000002SCOTLC
0057011520999991952030815004+67283+014417FM-12+001399999V0200901N00621001501CN0024001N9-00111-00281101311ADDAY181999GF108991081091001501999999MD1710081+9999MW1851
0087011520999991952030818004+67283+014417FM-12+001399999V0200901N00721007801CN0400001N9+00001-00221101151ADDAA199000391AY181999GF108991071081008001021999IA1319KA1999M+00111MD1710161+9999MW1021
0057011520999991952030900004+67283+014417FM-12+001399999V0200901N00621007801CN0400001N9+00221-00281101061ADDAY171999GF108991061071008001021999MD1710081+9999MW1221
0057011520999991952030903004+67283+014417FM-12+001399999V0200901N00721007801CN0400001N9+00221-00221101001ADDAY121999GF108991071071008001021999MD1710061+9999MW1021
0087011520999991952030906004+67283+014417FM-12+001399999V0201101N00721004501CN0400001N9+00281-00221100921ADDAA199000691AY121999GF108991071071004501021999IA1319KA1999N-00111MD1710081+9999MW1151
0057011520999991952030909004+67283+014417FM-12+001399999V0201401N00621012301CN0400001N9+00281-00221100901ADDAY161999GF108991071071012501021999MD1710021+9999MW1151
0092011520999991952030912004+67283+014417FM-12+001399999V0201401N00511012301CN0400001N9+00281-00221100951ADDAY161999GF108991071071012501021999MD1210051+9999MW1151EQDQ01+000042APCTENQ02+000052APC3  
0057011520999991952030915004+67283+014417FM-12+001399999V0200901N00511012301CN0400001N9+00391-00221100921ADDAY121999GF108991061071012501021999MD1710031+9999MW1021
0087011520999991952030918004+67283+014417FM-12+001399999V0200901N00511012301CN0400001N9+00391+00001100881ADDAA199000691AY181999GF108991061081012501021999IA1209KA1999M+00501MD1710041+9999MW1021
0057011520999991952031000004+67283+014417FM-12+001399999V0201101N00411012301CN0120001N9+00391+00111100861ADDAY161999GF108991081001012501021999MD1710011+9999MW1601
0057011520999991952031003004+67283+014417FM-12+001399999V0201101N00411012301CN0200001N9+00281+00111100821ADDAY161999GF108991081001012501021999MD1710041+9999MW1601
0087011520999991952031006004+67283+014417FM-12+001399999V0201101N00511012301CN0120001N9+00281+00221100771ADDAA199001091AY161999GF108991061071012501021999IA1209KA1999N+00221MD1710051+9999MW1601
0076011520999991952031009004+67283+014417FM-12+001399999V0201101N00211007801CN0110001N9+00281+00221100771ADDAY161999GF108991071071008001021999MD1410001+9999MW1611EQDQ01+000032APCTEN
0057011520999991952031012004+67283+014417FM-12+001399999V0201601N00211007801CN0130001N9+00391+00281100751ADDAY161999GF108991071071008001021999MD1710021+9999MW1621
0057011520999991952031015004+67283+014417FM-12+001399999V0201601N00411004501CN0060001N9+00281+00281100661ADDAY161999GF108991061071004501021999MD1810091+9999MW1631
0087011520999991952031018004+67283+014417FM-12+001399999V0200901N00411004501CN0060001N9+00281+00281100511ADDAA199005091AY161999GF108991081071004501999999IA1199KA1999M+00501MD1810151+9999MW1631
0057011520999991952031100004+67283+014417FM-12+001399999V0201101N00411007801CN0400001N9+00281+00281100291ADDAY161999GF108991061071008001021999MD1810131+9999MW1021
0057011520999991952031103004+67283+014417FM-12+001399999V0201801N00311007801CN0100001N9+00391+00281100211ADDAY161999GF108991081071008001999999MD1810081+9999MW1611
0087011520999991952031106004+67283+014417FM-12+001399999V0203201N00621004501CN0100001N9+00221+00111100151ADDAA199004091AY161999GF108991081071004501999999IA1199KA1999N+00111MD1610061+9999MW1611
0057011520999991952031109004+67283+014417FM-12+001399999V0203601N00821004501CN0140001N9+00111+00001100221ADDAY181999GF108991061091004501061999MD1210071+9999MW1151
0057011520999991952031112004+67283+014417FM-12+001399999V0203601N00981007801CN0200001N9+00111-00281100431ADDAY181999GF108991061091008001061999MD1210211+9999MW1151
0057011520999991952031115004+67283+014417FM-12+001399999V0203601N00981007801CN0400001N9+00001-00611100591ADDAY181999GF107991051091008001061001MD1310161+9999MW1021
0087011520999991952031118004+67283+014417FM-12+001399999V0200201N00821004501CN0160001N9+00001-00611100751ADDAA199000691AY181999GF108991061091004501061999IA1199KA1999M+00221MD1310161+9999MW1851
0057011520999991952031200004+67283+014417FM-12+001399999V0203601N00621007801CN0120001N9-00111-01001100881ADDAY181999GF108991081091008001999999MD1210031+9999MW1261
0057011520999991952031203004+67283+014417FM-12+001399999V0202701N00511007801CN0120001N9-00221-00611100661ADDAY181999GF107991051091008001041999MD1990221+9999MW1851
0087011520999991952031206004+67283+014417FM-12+001399999V0203201N00621007801CN0014001N9-00111-00611100321ADDAA199001091AY181999GF108991081091008001999999IA1319KA1999N-00221MD1710341+9999MW1881
0057011520999991952031209004+67283+014417FM-12+001399999V0203201N00511220001CN0400001N9-00221-01111100261ADDAY111999GF104991041091012501001001MD1510061+9999MW1151
0057011520999991952031212004+67283+014417FM-12+001399999V0203201N006219999999N0400001N9-00221-00781100241ADDAY121999GF107991041091008001061071MD1710021+9999MW1151
0057011520999991952031215004+67283+014417FM-12+001399999V0203601N00621004501CN0020001N9-00281-00891100351ADDAY181999GF107991051091004501061071MD1310111+9999MW1861
0087011520999991952031218004+67283+014417FM-12+001399999V0200901N00211220001CN0400001N9-00391-00721100621ADDAA199000391AY181999GF103991031091008001001001IA1319KA1999M-00111MD1310271+9999MW1151
0057011520999991952031300004+67283+014417FM-12+001399999V0200701N00211220001CN0700001N9-00281-01111101251ADDAY101999GF101991011011012501041001MD1310321+9999MW1021
0057011520999991952031303004+67283+014417FM-12+001399999V0201101N00211007801CN0700001N9-00221-00891101371ADDAY111999GF107991061081008001041001MD1310121+9999MW1031
0087011520999991952031306004+67283+014417FM-12+001399999V0203601N00721220001CN0600001N9-00111-00721101501ADDAA199000691AY181999GF103991031091012501001001IA1319KA1999N-00611MD1210131+9999MW1011
0057011520999991952031309004+67283+014417FM-12+001399999V0203601N006219999999N0600001N9-00111-01001101711ADDAY181999GF105991031091012501061051MD1310211+9999MW1021
0057011520999991952031312004+67283+014417FM-12+001399999V0200201N00511220001CN0600001N9-00111-01111101851ADDAY181999GF104991031091012501061041MD1210141+9999MW1021
0057011520999991952031315004+67283+014417FM-12+001399999V0203401N003119999999N0600001N9-00111-01111101931ADDAY121999GF107991041081012501041001MD1210081+9999MW1021
0106011520999991952031318004+67283+014417FM-12+001399999V0202501N00511007801CN0100001N9-00111-00781101851ADDAA199000691AY181999GF106991999081008001999999IA1319KA1999M+00001MD1990081+9999MW1851EQDQ01+000082SCOTLC
0057011520999991952031400004+67283+014417FM-12+001399999V0201801N00821007801CN0100001N9-00111-00501101451ADDAY181999GF108991081091008001999999MD1810321+9999MW1851
0057011520999991952031403004+67283+014417FM-12+001399999V0200901N00821007801CN0050001N9-00221-00281100901ADDAY181999GF108991081091008001999999MD1810551+9999MW1861
0087011520999991952031406004+67283+014417FM-12+001399999V0201801N00721007801CN0014001N9-00111-00221100371ADDAA199004091AY181999GF108991081091008001999999IA1319KA1999N-00281MD1710531+9999MW1841
0057011520999991952031409004+67283+014417FM-12+001399999V0202701N00821004501CN0200001N9+00281+00221100271ADDAY181999GF108991061091004501061999MD1510101+9999MW1151
0092011520999991952031412004+67283+014417FM-12+001399999V0203201N007219999999N0200001N9+00281+00111100371ADDAY181999GF107991041091004501061001MD1210101+9999MW1831EQDQ01+000042APCTENQ02+000102APC3  
0057011520999991952031415004+67283+014417FM-12+001399999V0202901N00871007801CN0200001N9+00221-00391100511ADDAY181999GF108991051091008001061999MD1210141+9999MW1151
0087011520999991952031418004+67283+014417FM-12+001399999V0202901N00721007801CN0140001N9+00111-00281100531ADDAA199002091AY181999GF107991061091008001061001IA1319KA1999M+00281MD1210021+9999MW1851
0057011520999991952031500004+67283+014417FM-12+001399999V0203201N00821007801CN0050001N9-00111-00281100461ADDAY181999GF108991081091008001999999MD1710051+9999MW1851
0057011520999991952031503004+67283+014417FM-12+001399999V0203201N00871007801CN0100001N9+00111-00281100301ADDAY181999GF108991071091008001021999MD1710161+9999MW1271
0087011520999991952031506004+67283+014417FM-12+001399999V0202501N00621007801CN0200001N9+00221-00281100141ADDAA199000591AY121999GF108991051091008001021999IA1319KA1999N-00221MD1710161+9999MW1021
0057011520999991952031509004+67283+014417FM-12+001399999V0202501N00621004501CN0040001N9+00001-00111100011ADDAY181999GF108991081091004501999999MD1710131+9999MW1861
0057011520999991952031512004+67283+014417FM-12+001399999V0201801N00411000151CN9999999N9+00001-00111099851ADDAY171999GF109991091999000251999999MD1810161+9999MW1731
0057011520999991952031515004+67283+014417FM-12+001399999V0201801N00311001501CN0018001N9+00001-00111099691ADDAY171999GF109991091999001501999999MD1810161+9999MW1731
0106011520999991952031518004+67283+014417FM-12+001399999V0200901N00211002401CN0040001N9-00111-00221099661ADDAA199004091AY171999GF108991999071002501021999IA1319KA1999M+00221MD1810031+9999MW1701EQDQ01+000082SCOTLC
0057011520999991952031600004+67283+014417FM-12+001399999V0203601N00411220001CN0140001N9+00001-00221099891ADDAY171999GF104991041071004501001001MD1310111+9999MW1221
0057011520999991952031603004+67283+014417FM-12+001399999V0203601N00101220001CN0150001N9+00001-00501100041ADDAY121999GF103991031071004501001001MD1310151+9999MW1151
0087011520999991952031606004+67283+014417FM-12+001399999V0203601N00411007801CN0400001N9-00111-00721100201ADDAA199000391AY121999GF106991061071008001001001IA1319KA1999N-00221MD1310161+9999MW1021
0057011520999991952031609004+67283+014417FM-12+001399999V0203601N00311220001CN0700001N9-00111-00721100451ADDAY111999GF103991031051008001001001MD1310251+9999MW1011
0057011520999991952031612004+67283+014417FM-12+001399999V0203601N00311220001CN0700001N9-00111-00781100611ADDAY101999GF102991021011012501041001MD1310161+9999MW1021
0057011520999991952031615004+67283+014417FM-12+001399999V0203601N00211220001CN0700001N9-00111-00891100781ADDAY101999GF102991011011012501041051MD1310171+9999MW1021
0076011520999991952031618004+67283+014417FM-12+001399999V0200901N00211220001CN0700001N9-00391-01221100951ADDAY111999GF103991011081012501071051IA1319KA1999M-00111MD1310171+9999MW1021
0057011520999991952031700004+67283+014417FM-12+001399999V0201401N00621220001CN0600001N9-00501-01111101141ADDAY121999GF106991001001999999071021MD1210061+9999MW1031
0092011520999991952031703004+67283+014417FM-12+001399999V0201401N00621220001CN0200001N9-00391-01221101161ADDAY111999GF107991001001999999021021MD1210021+9999MW1151EQDQ01+000042APCTENQ02+000022APC3  
0087011520999991952031706004+67283+014417FM-12+001399999V0201101N00621001501CN0028001N9-00501-00721101301ADDAA199000691AY181999GF108991071091001501021999IA1319KA1999N-00611MD1210141+9999MW1261
0057011520999991952031709004+67283+014417FM-12+001399999V0201101N00411000151CN0012001N9-00281-00611101521ADDAY171999GF109991091999000251999999MD1310221+9999MW1731
0057011520999991952031712004+67283+014417FM-12+001399999V0200901N00411001501CN0030001N9-00221-00281101731ADDAY171999GF108991061071001501021999MD1310211+9999MW1731
0057011520999991952031715004+67283+014417FM-12+001399999V0202901N00621007801CN0160001N9+00111-00111101851ADDAY181999GF107991051091008001061001MD1310121+9999MW1271
0087011520999991952031718004+67283+014417FM-12+001399999V0209991C00001004501CN0140001N9+00001-00221101971ADDAA199001091AY181999GF108991061091004501061999IA1319KA1999M+00111MD1310121+9999MW1151
0057011520999991952031800004+67283+014417FM-12+001399999V0201101N00411001501CN0028001N9-00111-00221102201ADDAY181999GF108991081071001501999999MD1310051+9999MW1711
0076011520999991952031803004+67283+014417FM-12+001399999V0201401N00511001501CN0038001N9-00111-00221102201ADDAY171999GF108991081071001501999999MD1410001+9999MW1701EQDQ01+000022APCTEN
0087011520999991952031806004+67283+014417FM-12+001399999V0201101N00621007801CN0160001N9-00111-00281102221ADDAA199001091AY171999GF108991061081008001071999IA1319KA1999N-00221MD1310021+9999MW1151
0057011520999991952031809004+67283+014417FM-12+001399999V0201101N007219999999N0600001N9-00111-00611102291ADDAY111999GF106991031081012501051051MD1210071+9999MW1021
0057011520999991952031812004+67283+014417FM-12+001399999V0201101N008219999999N0600001N9+00221-00501102221ADDAY121999GF106991011081012501051001MD1990071+9999MW1031
0057011520999991952031815004+67283+014417FM-12+001399999V0201101N006219999999N0700001N9+00281-00501102171ADDAY121999GF106991011081012501031001MD1710051+9999MW1021
0095011520999991952031818004+67283+014417FM-12+001399999V0201101N005119999999N0700001N9+00221-00611102171ADDAY121999GF105991011051012501031001IA1319KA1999M+00281MD1410001+9999MW1021EQDQ01+000022APCTEN
0057011520999991952031900004+67283+014417FM-12+001399999V0201101N00411012301CN0400001N9+00111-00721102221ADDAY111999GF106991061081012501001001MD1710051+9999MW1031
0057011520999991952031903004+67283+014417FM-12+001399999V0201101N010819999999N0400001N9+00111-00721102171ADDAY111999GF107991021081012501021001MD1710051+9999MW1031
0076011520999991952031906004+67283+014417FM-12+001399999V0201101N009819999999N0700001N9+00001-00781102151ADDAY111999GF105991031051017501041001IA1199KA1999N-00221MD1710021+9999MW1011
0092011520999991952031909004+67283+014417FM-12+001399999V0201101N011819999999N0700001N9+00001-00891102181ADDAY121999GF105991041051017501041001MD1210031+9999MW1021EQDQ01+000042APCTENQ02+000032APC3  
0057011520999991952031912004+67283+014417FM-12+001399999V0201101N00871220001CN0700001N9+00111-00781102101ADDAY121999GF104991021051017501041001MD1610081+9999MW1021
0057011520999991952031915004+67283+014417FM-12+001399999V0201101N00871220001CN0700001N9+00111-00781101961ADDAY101999GF102991011001022501041051MD1710141+9999MW1021
0076011520999991952031918004+67283+014417FM-12+001399999V0201101N00981220001CN0700001N9-00111-01001101881ADDAY101999GF102991011001022501041051IA1319KA1999M+00111MD1710081+9999MW1021
0076011520999991952032000004+67283+014417FM-12+001399999V0201101N01131220001CN0600001N9-00111-01001101711ADDAY101999GF102991999001999999041001MD1510041+9999MW1021EQDQ01+000002SCOTLC
0057011520999991952032003004+67283+014417FM-12+001399999V0201101N01131220001CN0600001N9+00001-00891101591ADDAY111999GF101991001001999999001011MD1990121+9999MW1011
0076011520999991952032006004+67283+014417FM-12+001399999V0201101N01181220001CN0700001N9-00111-01001101521ADDAY111999GF102991001001999999041011IA1199KA1999N-00221MD1710071+9999MW1361
0057011520999991952032009004+67283+014417FM-12+001399999V0201101N01291220001CN0700001N9+00111-00781101411ADDAY101999GF101991001001999999001011MD1710111+9999MW1021
0092011520999991952032012004+67283+014417FM-12+001399999V0201101N00981220001CN0700001N9+00221-00781101421ADDAY101999GF100991001001999999001001MD1210011+9999MW1021EQDQ01+000042APCTENQ02+000082APC3  
0057011520999991952032015004+67283+014417FM-12+001399999V0201101N01591220001CN0700001N9+00111-01111101331ADDAY101999GF100991001001999999001001MD1710091+9999MW1021
0076011520999991952032018004+67283+014417FM-12+001399999V0201401N01291220001CN0700001N9+00001-01281101401ADDAY101999GF100991001001999999001001IA1199KA1999M+00281MD1010071+9999MW1021
0057011520999991952032100004+67283+014417FM-12+001399999V0201101N00871220001CN0700001N9-00281-02221101541ADDAY101999GF100991001001999999001001MD1210061+9999MW1001
0057011520999991952032103004+67283+014417FM-12+001399999V0201101N01491220001CN0700001N9-00281-02111101411ADDAY101999GF101991001001999999001011MD1710131+9999MW1031
0076011520999991952032106004+67283+014417FM-12+001399999V0201101N00721220001CN0700001N9-00281-02111101511ADDAY111999GF102991001001999999041091IA1199KA1999N-00501MD1210101+9999MW1031
0057011520999991952032109004+67283+014417FM-12+001399999V0201101N01291220001CN0700001N9-00281-02001101461ADDAY101999GF101991001001999999041091MD1710051+9999MW1011
0092011520999991952032112004+67283+014417FM-12+001399999V0201101N00871220001CN0700001N9-00111-01721101521ADDAY101999GF103991001001999999041071MD1210061+9999MW1031EQDQ01+000042APCTENQ02+000082APC3  
0057011520999991952032115004+67283+014417FM-12+001399999V0201101N00981220001CN0700001N9-00111-02001101461ADDAY111999GF105991001001999999041011MD1710061+9999MW1031
0076011520999991952032118004+67283+014417FM-12+001399999V0201101N01181220001CN0700001N9-00281-01721101541ADDAY101999GF103991011011017501041011IA1199KA1999M+00001MD1210081+9999MW1021
0057011520999991952032200004+67283+014417FM-12+001399999V0201101N01181220001CN0700001N9-00611-01611101751ADDAY101999GF100991001001999999001001MD1210101+9999MW1001
0076011520999991952032203004+67283+014417FM-12+001399999V0201101N01291220001CN0700001N9-00721-01721101721ADDAY101999GF101991999001999999041001MD1710031+9999MW1031EQDQ01+000002SCOTLC
0076011520999991952032206004+67283+014417FM-12+001399999V0201101N01181220001CN0700001N9-00721-01611101691ADDAY101999GF101991001001999999041011IA1199KA1999N-00891MD1710031+9999MW1021
0057011520999991952032209004+67283+014417FM-12+001399999V0201101N01081220001CN0700001N9-00611-01611101661ADDAY101999GF101991001001999999001011MD1710031+9999MW1021
0076011520999991952032212004+67283+014417FM-12+001399999V0201101N01181220001CN0700001N9-00501-01611101411ADDAY101999GF101991999001999999041001MD1810251+9999MW1021EQDQ01+000002SCOTLC
0076011520999991952032215004+67283+014417FM-12+001399999V0201101N01181220001CN0700001N9-00391-01611101261ADDAY101999GF102991999001999999041001MD1710151+9999MW1021EQDQ01+000002SCOTLC
0076011520999991952032218004+67283+014417FM-12+001399999V0201101N01081220001CN0700001N9-00501-01721101221ADDAY111999GF102991011011017501041001IA1199KA1999M-00281MD1510041+9999MW1021
