0057011520999991953010100004+67283+014417FM-12+001399999V0201201N00721007801CN0100001N9-00611-00891101241ADDAY181999GF108991081091008001001001MD1810041+9999MW1851
0057011520999991953010103004+67283+014417FM-12+001399999V0201201N01031007801CN0160001N9-00501-00611101091ADDAY181999GF108991081091008001001001MD1810151+9999MW1261
0087011520999991953010106004+67283+014417FM-12+001399999V0201101N00931007801CN0200001N9-00501-00721101071ADDAA199002091AY181999GF108991081091008001001001IA1319KA1999N-00611MD1810021+9999MW1151
0076011520999991953010109004+67283+014417FM-12+001399999V0201101N00511007801CN0400001N9-00391-00611101081ADDAY121999GF108991999091008001061001MD1210011+9999MW1021EQDQ01+000082SCOTLC
0076011520999991953010112004+67283+014417FM-12+001399999V0201101N00511007801CN0400001N9-00391-00611101081ADDAY121999GF107991071091008001001001MD1410001+9999MW1011EQDQ01+000022APCTEN
0057011520999991953010115004+67283+014417FM-12+001399999V0201101N00621007801CN0100001N9-00281-00501101031ADDAY181999GF108991081091008001999999MD1710051+9999MW1851
0087011520999991953010118004+67283+014417FM-12+001399999V0201101N00721007801CN0200001N9-00281-00501100951ADDAA199001091AY181999GF107991061091008001061021IA1319KA1999M-00221MD1710081+9999MW1151
0057011520999991953010200004+67283+014417FM-12+001399999V0201101N00821007801CN0160001N9-00221-00721100781ADDAY181999GF108991081091008001999999MD1710081+9999MW1261
0057011520999991953010203004+67283+014417FM-12+001399999V0201101N00511007801CN0200001N9+00001-00611100721ADDAY121999GF108991081051008001999999MD1610061+9999MW1021
0103011520999991953010206004+67283+014417FM-12+001399999V0201801N00511007501CN0600001N9+00111-00721100701ADDAA199000691AY121999GA1061+007509059GF108991071071008001021999IA1319KA1999N-00281MD1710021+9999MW1021
0108011520999991953010209004+67283+014417FM-12+001399999V0201801N00821006001CN0100001N9+00111-00221100781ADDAY171999GA1081+006009059GF108991081071008001999999MD1210081+9999MW1681EQDQ01+000042APCTENQ02+000082APC3  
0073011520999991953010212004+67283+014417FM-12+001399999V0201201N00511005401CN0140001N9-00111-00221101021ADDAY181999GA1081+005409059GF108991081051004501999999MD1210241+9999MW1701
0073011520999991953010215004+67283+014417FM-12+001399999V0200201N00721006001CN0160001N9+00111+00001101261ADDAY181999GA1081+006009059GF108991081051004501999999MD1210241+9999MW1261
0087011520999991953010218004+67283+014417FM-12+001399999V0200201N00671004501CN0200001N9+00001-00501101581ADDAA199002091AY181999GF108991081091004501999999IA1209KA1999M+00111MD1210321+9999MW1021
0057011520999991953010300004+67283+014417FM-12+001399999V0203101N00311220001CN0600001N9+00001-00891101921ADDAY121999GF108991001001999999001061MD1310171+9999MW1021
0057011520999991953010303004+67283+014417FM-12+001399999V0203401N003119999999N0600001N9+00111-00781102011ADDAY121999GF108991011051008001071071MD1310111+9999MW1021
0092011520999991953010306004+67283+014417FM-12+001399999V0201901N00511024001CN0400001N9+00001-00611102051ADDAY121999GA1051+024009039GF108991011051008001071999IA1319KA1999N-00221MD1110041+9999MW1021
0089011520999991953010309004+67283+014417FM-12+001399999V0201901N00411024001CN0400001N9-00111-00611102151ADDAY121999GA1051+024009039GA2011+007209059GF108991011051008001071001MD1210101+9999MW1021
0073011520999991953010312004+67283+014417FM-12+001399999V0201201N00461008701CN0100001N9-00111-00611102211ADDAY121999GA1061+008709099GF108991061091008001071999MD1210061+9999MW1851
0073011520999991953010315004+67283+014417FM-12+001399999V0201201N00511009001CN0160001N9-00111-00501102191ADDAY171999GA1061+009009049GF108991061071008001071999MD1710021+9999MW1701
0103011520999991953010318004+67283+014417FM-12+001399999V0201401N00511009001CN0120001N9-00111-00391102211ADDAA199000391AY171999GA1081+009009049GF108991061071008001071999IA1319KA1999M+00001MD1210031+9999MW1701
0057011520999991953010400004+67283+014417FM-12+001399999V0202001N00461007801CN0200001N9+00111-00111102191ADDAY171999GF108991071071008001021999MD1210021+9999MW1021
0076011520999991953010403004+67283+014417FM-12+001399999V0202301N00621002401CN0150001N9+00221+00001102081ADDAY161999GF108991999051002501021999MD1710111+9999MW1611EQDQ01+000082SCOTLC
0103011520999991953010406004+67283+014417FM-12+001399999V0202301N00721009001CN0160001N9+00281+00001102041ADDAA199001091AY161999GA1071+009009059GF108991071051008001021999IA1109KA1999N-00221MD1710041+9999MW1211
0073011520999991953010409004+67283+014417FM-12+001399999V0202301N00821009001CN0200001N9+00281+00001101981ADDAY121999GA1071+009009099GF107991071091008001999999MD1710061+9999MW1021
0073011520999991953010412004+67283+014417FM-12+001399999V0202501N00931010501CN0160001N9+00281+00001101941ADDAY181999GA1071+010509099GF108991071091012501999999MD1710041+9999MW1801
0057011520999991953010415004+67283+014417FM-12+001399999V0202001N00671007801CN0160001N9+00281-00281101871ADDAY121999GF107991061081008001041999MD1710071+9999MW1021
0087011520999991953010418004+67283+014417FM-12+001399999V0202001N00771007801CN0200001N9+00281-00391101721ADDAA199008091AY121999GF108991081051008001999999IA1209KA1999M+00391MD1710151+9999MW1021
0057011520999991953010500004+67283+014417FM-12+001399999V0201601N00571007801CN0400001N9+00221-00721101341ADDAY121999GF107991071051008001999999MD1710191+9999MW1021
0057011520999991953010503004+67283+014417FM-12+001399999V0201901N00821012301CN0400001N9+00221-00721101101ADDAY121999GF107991071051012501999999MD1710241+9999MW1021
0092011520999991953010506004+67283+014417FM-12+001399999V0202001N01031012901CN0400001N9+00281-00281100851ADDAY121999GA1051+012909059GF108991051051012501071999IA1209KA1999N+00111MD1710241+9999MW1021
0073011520999991953010509004+67283+014417FM-12+001399999V0202001N00931009901CN0200001N9+00281-00281100641ADDAY121999GA1071+009909099GF108991071091008001021999MD1710211+9999MW1151
0073011520999991953010512004+67283+014417FM-12+001399999V0202001N00931009901CN0200001N9+00281-00221100511ADDAY121999GA1051+009909049GF108991051051012501021999MD1710131+9999MW1151
0092011520999991953010515004+67283+014417FM-12+001399999V0201801N00411004501CN0160001N9+00281+00001100431ADDAY181999GA1081+004509059GF108991999051004501021999MD1710081+9999MW1581EQDQ01+000082SCOTLC
0122011520999991953010518004+67283+014417FM-12+001399999V0202001N00621004501CN0160001N9+00281+00111100381ADDAA199001091AY161999GA1081+004509059GF108991999051004501021999IA1209KA1999M+00391MD1710051+9999MW1581EQDQ01+000082SCOTLC
0078011520999991953010600004+67283+014417FM-12+001399999V0202001N01031004501CN0160001N9+00281+00111100501ADDAY161999GF108991071051004501021999MW1601EQDQ01+000042APCTENQ02+000122APC3  
0057011520999991953010603004+67283+014417FM-12+001399999V0202301N01031007801CN0160001N9+00281+00111100541ADDAY181999GF107991071091008001999999MD1210041+9999MW1151
0103011520999991953010606004+67283+014417FM-12+001399999V0202301N01031007501CN0160001N9+00221+00111100641ADDAA199002091AY121999GA1061+007509099GF106991061091008001001001IA1189KA1999N+00111MD1210101+9999MW1151
0073011520999991953010609004+67283+014417FM-12+001399999V0202301N00721006901CN0200001N9+00281+00221100741ADDAY181999GA1071+006909099GF107991071091008001061001MD1210101+9999MW1251
0073011520999991953010612004+67283+014417FM-12+001399999V0202801N00671006301CN0160001N9+00281+00221100801ADDAY181999GA1061+006309099GF107991061091008001061001MD1210061+9999MW1831
0073011520999991953010615004+67283+014417FM-12+001399999V0202401N00771006901CN0200001N9+00221+00111100791ADDAY181999GA1071+006909099GF107991071091008001999999MD1710011+9999MW1261
0087011520999991953010618004+67283+014417FM-12+001399999V0202501N00721007801CN0140001N9+00221+00111100821ADDAA199003091AY161999GF108991071051008001999999IA1189KA1999M+00281MD1210031+9999MW1601
0057011520999991953010700004+67283+014417FM-12+001399999V0203601N00621007801CN0200001N9+00001-00221101001ADDAY181999GF107991071091008001999999MD1210081+9999MW1851
0092011520999991953010703004+67283+014417FM-12+001399999V0203601N00721007801CN0200001N9+00001-00501101071ADDAY181999GF107991071091008001999999MD1210071+9999MW1871EQDQ01+000042APCTENQ02+000072APC3  
0103011520999991953010706004+67283+014417FM-12+001399999V0203601N00821009901CN0200001N9-00111-00501101191ADDAA199001091AY121999GA1051+009909099GF105991051091008001001001IA1199KA1999N-00221MD1210121+9999MW1011
0073011520999991953010709004+67283+014417FM-12+001399999V0203401N00671220001CN0400001N9-00111-00611101271ADDAY181999GA1041+010509099GF104991041091012501061001MD1210081+9999MW1271
0073011520999991953010712004+67283+014417FM-12+001399999V0202901N00311220001CN0600001N9-00111-00891101281ADDAY121999GA1041+013809059GF105991041041012501061001MD1010011+9999MW1151
0073011520999991953010715004+67283+014417FM-12+001399999V0202401N00571012001CN0100001N9-00111-00281101181ADDAY181999GA1061+012009099GF107991061091012501061001MD1710101+9999MW1261
0122011520999991953010718004+67283+014417FM-12+001399999V0202901N01541009001CN0050001N9+00111-00221100971ADDAA199003091AY181999GA1081+009009099GF108991999091004501061999IA1199KA1999M+00111MD1810211+9999MW1261EQDQ01+000082SCOTLC
0057011520999991953010800004+67283+014417FM-12+001399999V0202101N00721007801CN0160001N9+00001-00611100701ADDAY181999GF108991081091008001999999MD1990161+9999MW1151
0057011520999991953010803004+67283+014417FM-12+001399999V0202101N00931007801CN0200001N9-00111-00891100311ADDAY121999GF108991081091008001999999MD1810401+9999MW1151
0103011520999991953010806004+67283+014417FM-12+001399999V0201601N00981009001CN0400001N9-00111-00781099871ADDAA199000591AY121999GA1081+009009059GF108991081051008001999999IA1319KA1999N-00221MD1810441+9999MW1021
0073011520999991953010809004+67283+014417FM-12+001399999V0201601N01031006001CN0050001N9-00111-00391099381ADDAY181999GA1081+006009099GF108991081091004501999999MD1610491+9999MW1861
0073011520999991953010812004+67283+014417FM-12+001399999V0202001N00721004801CN0002001N9+00001-00111099231ADDAY181999GA1091+004809999GF109991091999004501999999MD1710151+9999MW1841
0073011520999991953010815004+67283+014417FM-12+001399999V0202401N00621006601CN0130001N9-00111-00721099161ADDAY181999GA1061+006609099GF108991061091008001071999MD1710071+9999MW1261
0087011520999991953010818004+67283+014417FM-12+001399999V0203201N01031007801CN0200001N9+00111-00501099061ADDAA199004091AY181999GF107991061091008001071999IA1319KA1999M+00221MD1710101+9999MW1011
0057011520999991953010900004+67283+014417FM-12+001399999V0202701N00721007801CN0140001N9-00111-00391099281ADDAY181999GF108991081091008001999999MD1210111+9999MW1851
0057011520999991953010903004+67283+014417FM-12+001399999V0203601N00411007801CN0160001N9-00111-00221099381ADDAY181999GF107991071091008001999999MD1210101+9999MW1261
0103011520999991953010906004+67283+014417FM-12+001399999V0200201N00411007501CN0160001N9+00001-00391099491ADDAA199006091AY181999GA1061+007509099GF106991061091008001999999IA1319KA1999N-00221MD1210111+9999MW1261
0073011520999991953010909004+67283+014417FM-12+001399999V0200201N00101220001CN0400001N9-00111-00391099761ADDAY121999GA1031+010509099GF106991061081012501061001MD1110261+9999MW1031
0073011520999991953010912004+67283+014417FM-12+001399999V0200101N00821220001CN0600001N9+00111-00281099901ADDAY121999GA1031+009009099GF104991031091008001041011MD1210151+9999MW1151
0073011520999991953010915004+67283+014417FM-12+001399999V0202901N00511220001CN0200001N9-00111-00391100071ADDAY181999GA1041+009009099GF105991041091008001041001MD1210161+9999MW1271
0103011520999991953010918004+67283+014417FM-12+001399999V0203401N00621220001CN0400001N9+00111-00501100091ADDAA199001091AY181999GA1031+009009099GF103991031091008001041001IA1319KA1999M+00111MD1210021+9999MW1151
0057011520999991953011000004+67283+014417FM-12+001399999V0202501N01031004501CN0050001N9+00001-00281100181ADDAY121999GF108991081091004501999999MD1210051+9999MW1861
0057011520999991953011003004+67283+014417FM-12+001399999V0203401N01031007801CN0100001N9+00111-00501100171ADDAY181999GF108991081091008001999999MD1410001+9999MW1151
0103011520999991953011006004+67283+014417FM-12+001399999V0203401N00261009901CN0200001N9+00111-00501100281ADDAA199000691AY121999GA1051+009909099GF105991051091008001001001IA1209KA1999N-00111MD1210111+9999MW1011
0089011520999991953011009004+67283+014417FM-12+001399999V0202901N00571220001CN0400001N9-00111-00391100431ADDAY181999GA1041+009009099GA2021+003009079GF107991041091008001061071MD1310141+9999MW1261
0073011520999991953011012004+67283+014417FM-12+001399999V0202701N00671220001CN0400001N9+00001-00391100481ADDAY181999GA1041+009009099GF106991041091008001041001MD1210061+9999MW1261
0073011520999991953011015004+67283+014417FM-12+001399999V0202701N00931005401CN0020001N9+00111-00111100581ADDAY181999GA1051+005409099GF107991051091004501061999MD1210101+9999MW1861
0087011520999991953011018004+67283+014417FM-12+001399999V0202901N01031007801CN0160001N9+00111-00281100601ADDAA199001091AY181999GF107991071091008001999999IA1319KA1999M+00111MD1210021+9999MW1271
0057011520999991953011100004+67283+014417FM-12+001399999V0202901N00931220001CN0200001N9+00001-00111100751ADDAY181999GF104991041091008001001001MD1210071+9999MW1261
0057011520999991953011103004+67283+014417FM-12+001399999V0202901N01231220001CN0200001N9+00111+00001100711ADDAY181999GF104991041091008001001001MD1710041+9999MW1271
0122011520999991953011106004+67283+014417FM-12+001399999V0203301N01031007801CN0020001N9+00111+00001100771ADDAA199003091AY181999GF107991071091008001999999IA1319KA1999N-00111MD1210061+9999MW1861EQDQ01+000042APCTENQ02+000062APC3  
0057011520999991953011109004+67283+014417FM-12+001399999V0203401N004619999999N0160001N9+00111+00001101021ADDAY181999GF107991041091008001071999MD1210251+9999MW1021
0057011520999991953011112004+67283+014417FM-12+001399999V0203401N00461007801CN0200001N9+00001-00391101281ADDAY121999GF107991061081008001071001MD1210261+9999MW1011
0057011520999991953011115004+67283+014417FM-12+001399999V0203401N00261007801CN0400001N9+00001-00501101431ADDAY121999GF107991061081008001071001MD1210151+9999MW1021
0122011520999991953011118004+67283+014417FM-12+001399999V0201101N002619999999N0600001N9-00221-00611101411ADDAA199000691AY111999GF105991031031008001041001IA1319KA1999M+00111MD1710021+9999MW1011EQDQ01+000042APCTENQ02+000022APC3  
0057011520999991953011200004+67283+014417FM-12+001399999V0201101N00931007801CN0140001N9-00221-00281100941ADDAY181999GF108991081091008001999999MD1710271+9999MW1851
0057011520999991953011203004+67283+014417FM-12+001399999V0201101N00511007801CN0160001N9+00221+00111100561ADDAY181999GF108991081091008001999999MD1710381+9999MW1801
0122011520999991953011206004+67283+014417FM-12+001399999V0202301N02011005701CN0160001N9+00611+00281099981ADDAA199004091AY161999GA1081+005709059GF108991999071004501021999IA1209KA1999N-00221MD1710581+9999MW1621EQDQ01+000082SCOTLC
0108011520999991953011209004+67283+014417FM-12+001399999V0202701N01181003301CN0100001N9+00501+00391100171ADDAY161999GA1071+003309079GF108991071071004501021999MD1210191+9999MW1621EQDQ01+000042APCTENQ02+000192APC3  
0124011520999991953011212004+67283+014417FM-12+001399999V0202501N01131006001CN0150001N9+00501+00391100321ADDAY161999GA1071+006009059GA2021+003009079GF108991071071008001021999MD1210151+9999MW1501EQDQ01+000042APCTENQ02+000152APC3  
0073011520999991953011215004+67283+014417FM-12+001399999V0202301N01231220001CN0160001N9+99999+99999100391ADDAY161999GA1041+007509059GF107991041051008001071001MD1210071+9999MW1211
0090011520999991953011218004+67283+014417FM-12+001399999V0202401N01291006001CN0160001N9+00501+00281100341ADDAA199003091AY121999GA1061+006009079GF108991061071008001071999IA1199MD1710051+9999MW1021
0057011520999991953011300004+67283+014417FM-12+001399999V0202401N01031007801CN0160001N9+00501+00281100521ADDAY181999GF105991051091008001001001MD1210091+9999MW1151
0076011520999991953011303004+67283+014417FM-12+001399999V0202301N00821220001CN0200001N9+00391+00221100601ADDAY121999GF102991999091012501001001MD1210081+9999MW1011EQDQ01+000032SCOTLC
0092011520999991953011306004+67283+014417FM-12+001399999V0202301N00571010501CN0200001N9+00391+00281100521ADDAY181999GA1051+010509099GF105991051091012501001001IA1199KA1999N+00281MD1710081+9999MW1801
0073011520999991953011309004+67283+014417FM-12+001399999V0201901N00411009001CN0200001N9+00391+00221100471ADDAY121999GA1061+009009059GF107991061051008001071001MD1710051+9999MW1021
0073011520999991953011312004+67283+014417FM-12+001399999V0202301N00671006901CN0200001N9+00391+00281100381ADDAY121999GA1061+006909099GF107991061091008001071999MD1710091+9999MW1801
0073011520999991953011315004+67283+014417FM-12+001399999V0201301N00311006001CN0200001N9+00281+00221100241ADDAY181999GA1051+006009079GF108991051071008001021999MD1990141+9999MW1601
0087011520999991953011318004+67283+014417FM-12+001399999V0200901N00621007801CN0200001N9+00281+00221099741ADDAA199000591AY181999GF108991051071008001021999IA1199KA1999M+00501MD1810501+9999MW1601
0057011520999991953011400004+67283+014417FM-12+001399999V0201901N00621007801CN0400001N9+00281+00111099451ADDAY181999GF106991051091008001061001MD1990281+9999MW1261
0057011520999991953011403004+67283+014417FM-12+001399999V0201901N00411007801CN0160001N9+00221+00001099231ADDAY181999GF107991061091008001061001MD1710221+9999MW1261
0103011520999991953011406004+67283+014417FM-12+001399999V0201801N00461004801CN0050001N9+00111+00001098901ADDAA199004091AY181999GA1081+004809099GF108991081091004501999999IA1199KA1999N+00001MD1710331+9999MW1861
0092011520999991953011409004+67283+014417FM-12+001399999V0201601N00511007801CN0160001N9+00221+00111098801ADDAY181999GA1081+007809099GF108991999091008001021999MD1710101+9999MW1831EQDQ01+000082SCOTLC
0089011520999991953011412004+67283+014417FM-12+001399999V0200801N00261009001CN0160001N9+00111+00001098811ADDAY181999GA1051+009009099GA2021+000909079GF107991051091008001021999MD1210011+9999MW1831
0073011520999991953011415004+67283+014417FM-12+001399999V0203001N00261004801CN0160001N9+00111+00001099251ADDAY181999GA1081+004809099GF108991081091004501999999MD1210441+9999MW1831
0087011520999991953011418004+67283+014417FM-12+001399999V0209991C00001220001CN0200001N9+00111+00001099591ADDAA199002091AY181999GF103991031091004501001001IA1199KA1999M+00221MD1210341+9999MW1011
0057011520999991953011500004+67283+014417FM-12+001399999V0202101N00461004501CN0160001N9+00281+00221099811ADDAY181999GF107991071091004501999999MD1210121+9999MW1801
0057011520999991953011503004+67283+014417FM-12+001399999V0201001N00511220001CN0160001N9+00111+00001099681ADDAY181999GF104991041091008001001001MD1710131+9999MW1151
0103011520999991953011506004+67283+014417FM-12+001399999V0200901N00621220001CN0200001N9+00111-00111099521ADDAA199000391AY121999GA1021+006009099GF102991021091008001001001IA1189KA1999N+00001MD1710161+9999MW1151
0073011520999991953011509004+67283+014417FM-12+001399999V0200901N00771220001CN0700001N9+00001-00391099321ADDAY111999GA1011+010809059GF103991011051012501061051MD1610201+9999MW1021
0073011520999991953011512004+67283+014417FM-12+001399999V0200901N00931220001CN0700001N9-00111-00611099301ADDAY111999GA1011+013809059GF104991011051012501021051MD1510021+9999MW1031
0073011520999991953011515004+67283+014417FM-12+001399999V0200801N00771220001CN0700001N9+00001-00501099341ADDAY111999GA1011+012009059GF103991011051012501021011MD1210041+9999MW1021
0092011520999991953011518004+67283+014417FM-12+001399999V0200901N00721220001CN0700001N9+00001-00501099641ADDAY101999GA1011+012009059GF103991011051012501021001IA1189KA1999M+00111MD1210301+9999MW1021
0057011520999991953011600004+67283+014417FM-12+001399999V0201301N00151220001CN0600001N9+00001-00391100151ADDAY101999GF100991001001999999001001MD1210251+9999MW1021
0076011520999991953011603004+67283+014417FM-12+001399999V0201101N00211220001CN0600001N9-00111-00501100161ADDAY101999GF101991999001999999071001MD1110011+9999MW1031EQDQ01+000002SCOTLC
0111011520999991953011606004+67283+014417FM-12+001399999V0201201N00511220001CN0600001N9+00001-00391099831ADDAY101999GA1041+024009039GF104991999001999999071001IA1199KA1999N-00111MD1990331+9999MW1031EQDQ01+000002SCOTLC
0073011520999991953011609004+67283+014417FM-12+001399999V0201501N00931006001CN0100001N9+00281-00221099521ADDAY161999GA1071+006009079GF108991071071008001021999MD1710311+9999MW1611
0073011520999991953011612004+67283+014417FM-12+001399999V0201801N00621006901CN0160001N9+00391+00281099011ADDAY161999GA1071+006909059GF108991071061008001021999MD1710511+9999MW1601
0073011520999991953011615004+67283+014417FM-12+001399999V0202401N01751003901CN0080001N9+00611+00501098861ADDAY161999GA1081+003909079GF108991081061004501999999MD1510151+9999MW1631
0087011520999991953011618004+67283+014417FM-12+001399999V0202601N01341004501CN0140001N9+00501+00281099321ADDAA199008091AY161999GF106991061091004501999999IA1199KA1999M+00721MD1210461+9999MW1251
0057011520999991953011700004+67283+014417FM-12+001399999V0202701N01031007801CN0600001N9+00391-00221099871ADDAY111999GF105991051081008001001001MD1210251+9999MW1021
0057011520999991953011703004+67283+014417FM-12+001399999V0202601N01031007801CN0600001N9+00391-00221099981ADDAY121999GF107991071081008001999999MD1210111+9999MW1031
0092011520999991953011706004+67283+014417FM-12+001399999V0202501N00931007501CN0400001N9+00391+00001099971ADDAY121999GA1051+007509059GF108991081081008001999999IA1199KA1999N+00221MD1710011+9999MW1021
0073011520999991953011709004+67283+014417FM-12+001399999V0202401N01131004801CN0080001N9+00281+00221100031ADDAY181999GA1071+004809099GF108991071091004501021999MD1210061+9999MW1811
0092011520999991953011712004+67283+014417FM-12+001399999V0202301N00821220001CN0080001N9+00221+00111100021ADDAY161999GA1041+003009079GF108991999061004501021999MD1710011+9999MW1661EQDQ01+000082SCOTLC
0092011520999991953011715004+67283+014417FM-12+001399999V0202101N00511220001CN0140001N9+00221+00111099821ADDAY161999GA1041+003009079GF108991999061004501021999MD1990201+9999MW1681EQDQ01+000082SCOTLC
0122011520999991953011718004+67283+014417FM-12+001399999V0200901N00511220001CN0120001N9+00111-00111099281ADDAA199002091AY161999GA1041+003009079GF108991999061004501021999IA1199KA1999M+00391MD1810541+9999MW1661EQDQ01+000082SCOTLC
0092011520999991953011800004+67283+014417FM-12+001399999V0202101N01441004501CN0100001N9+00611+00281098171ADDAY161999GF108991999071004501021999MD1810502+9999MW1621EQDQ01+000082SCOTLCQ02+000502APC3  
0122011520999991953011806004+67283+014417FM-12+001399999V0201401N00511004501CN0100001N9+00221+00221096852ADDAA199008091AY181999GF108991081091004501999999IA1189KA1999N+00221MD1810752+9999MW1801EQDQ01+096853APOSLPQ02+000752APC3  
0057011520999991953011809004+67283+014417FM-12+001399999V0202401N00621004501CN0100001N9+00281+00221096781ADDAY181999GF108991081091004501999999MD1510071+9999MW1151
0076011520999991953011812004+67283+014417FM-12+001399999V0203201N00511002401CN0018001N9+00001-00111098352ADDAY181999GF108991081091002501999999MD1310101+9999MW1841EQDQ01+098353APOSLP
0076011520999991953011815004+67283+014417FM-12+001399999V0203201N02011002401CN0100001N9-00111-00501099371ADDAY181999GF108991081091002501999999MD1314342+9999MW1151EQDQ01+004342APC3  
0074011520999991953011818004+67283+014417FM-12+001399999V0203201N01591004501CN0120001N9-00221-00781099781ADDAA199000591AY181999GF107991061091004501061001IA1199MD1210411+9999MW1151
0057011520999991953011900004+67283+014417FM-12+001399999V0203301N01031220001CN0160001N9-00281-00891100421ADDAY181999GF103991031091008001001001MD1210311+9999MW1021
0057011520999991953011903004+67283+014417FM-12+001399999V0203301N01291007801CN0050001N9-00281-00781100581ADDAY181999GF107991071091008001001001MD1210161+9999MW1861
0106011520999991953011906004+67283+014417FM-12+001399999V0203301N00621007801CN0150001N9-00501-00891100941ADDAA199000691AY181999GF107991071091008001999999IA1199KA1999N-00611MD1210361+9999MW1861EQDQ01+000562APC3  
0073011520999991953011909004+67283+014417FM-12+001399999V0203301N00871009901CN0400001N9-00391-01001101051ADDAY121999GA1051+009909089GF105991051031012501001071MD1210111+9999MW1151
0073011520999991953011912004+67283+014417FM-12+001399999V0203001N00721010801CN0200001N9-00281-00721101201ADDAY181999GA1061+010809099GF107991061091012501061071MD1210151+9999MW1151
0073011520999991953011915004+67283+014417FM-12+001399999V0202401N00771009901CN0200001N9-00221-00721101181ADDAY181999GA1061+009909059GF108991061051012501011999MD1710021+9999MW1151
0087011520999991953011918004+67283+014417FM-12+001399999V0202001N00511001501CN0048001N9-00221-00391100801ADDAA199002091AY181999GF109991091999001501999999IA1199KA1999M+00221MD1990381+9999MW1701
0076011520999991953012000004+67283+014417FM-12+001399999V0201801N00511004501CN0100001N9+00111+00001099661ADDAY181999GF108991081071004501999999MD1810552+9999MW1681EQDQ01+000552APC3  
0057011520999991953012003004+67283+014417FM-12+001399999V0202401N01441004501CN0150001N9+00501+00391099231ADDAY171999GF108991081071004501999999MD1810431+9999MW1631
0103011520999991953012006004+67283+014417FM-12+001399999V0202401N01441003001CN0160001N9+00501+00281098721ADDAA199009091AY161999GA1081+003009079GF108991081071004501999999IA1189KA1999N-00221MD1710511+9999MW1021
0089011520999991953012009004+67283+014417FM-12+001399999V0202401N01131220001CN0160001N9+00391+00281098611ADDAY161999GA1041+007509089GA2011+004509079GF106991061081008001999999MD1510111+9999MW1151
0073011520999991953012012004+67283+014417FM-12+001399999V0202701N01131006001CN0150001N9+00111+00001098571ADDAY181999GA1081+006009099GF108991081091004501999999MD1510041+9999MW1261
0073011520999991953012015004+67283+014417FM-12+001399999V0202601N01541006001CN0150001N9+00001-00221098581ADDAY181999GA1051+006009099GF105991051091004501001001MD1210011+9999MW1261
0087011520999991953012018004+67283+014417FM-12+001399999V0202601N016519999999N0160001N9+00111+00001098221ADDAA199004091AY181999GF106991041091004501071001IA1189KA1999M+00611MD1510361+9999MW1021
0057011520999991953012100004+67283+014417FM-12+001399999V0202801N01231004501CN0140001N9-00221-00281099251ADDAY181999GF107991071091004501999999MD1210481+9999MW1851
0057011520999991953012103004+67283+014417FM-12+001399999V0203201N00721004501CN0160001N9-00281-00501099351ADDAY181999GF108991081091004501999999MD1210101+9999MW1261
0103011520999991953012106004+67283+014417FM-12+001399999V0203201N00931006001CN0140001N9-00221-00391099471ADDAA199002091AY181999GA1081+006009099GF108991081091004501999999IA1199KA1999N-00391MD1210121+9999MW1851
0073011520999991953012109004+67283+014417FM-12+001399999V0203301N01031220001CN0200001N9-00281-00611099611ADDAY181999GA1041+009009099GF108991061081008001021999MD1210141+9999MW1151
0073011520999991953012112004+67283+014417FM-12+001399999V0203001N00981220001CN0160001N9-00221-00281099691ADDAY181999GA1041+007509099GF108991061081008001061071MD1010081+9999MW1271
0073011520999991953012115004+67283+014417FM-12+001399999V0203201N01031220001CN0160001N9-00221-00611099791ADDAY181999GA1031+009009099GF107991061081008001061031MD1210101+9999MW1261
0103011520999991953012118004+67283+014417FM-12+001399999V0203301N01181220001CN0160001N9-00391-00721099881ADDAA199001091AY181999GA1031+009009099GF106991051081008001061001IA1199KA1999M-00111MD1210091+9999MW1261
0057011520999991953012200004+67283+014417FM-12+001399999V0203101N01031007801CN0070001N9-00391-00721099941ADDAY181999GF107991071091008001999999MD1110031+9999MW1861
0057011520999991953012203004+67283+014417FM-12+001399999V0203301N01031007801CN0160001N9-00391-00891099931ADDAY181999GF105991051091008001999999MD1710011+9999MW1261
0103011520999991953012206004+67283+014417FM-12+001399999V0203001N00931009001CN0160001N9-00391-00721099891ADDAA199002091AY181999GA1051+009009099GF105991051091008001001001IA1199KA1999N-00611MD1710041+9999MW1261
0073011520999991953012209004+67283+014417FM-12+001399999V0203201N01031007501CN0160001N9-00391-00611099971ADDAY181999GA1051+007509089GF108991061091008001061001MD1210081+9999MW1261
0073011520999991953012212004+67283+014417FM-12+001399999V0203201N00721220001CN0010001N9-00281-00391100241ADDAY181999GA1091+999999999GF109991091999999999999999MD1210271+9999MW1861
0073011520999991953012215004+67283+014417FM-12+001399999V0203401N01131220001CN0160001N9-00281-00721100261ADDAY181999GA1041+007509099GF106991041091008001001031MD1210021+9999MW1361
0087011520999991953012218004+67283+014417FM-12+001399999V0203201N01031004501CN0050001N9-00221-00501100331ADDAA199002091AY141999GF106991061091004501999999IA1199KA1999M-00221MD1210071+9999MW1861
0057011520999991953012300004+67283+014417FM-12+001399999V0203301N00931004501CN0050001N9-00281-00391100571ADDAY181999GF108991081091004501999999MD1210091+9999MW1861
0057011520999991953012303004+67283+014417FM-12+001399999V0203401N00771004501CN0120001N9-00281-00501100561ADDAY181999GF106991061091004501001001MD1510011+9999MW1261
0103011520999991953012306004+67283+014417FM-12+001399999V0203501N00821006001CN0160001N9-00281-00501100541ADDAA199009091AY181999GA1051+006009099GF105991051091004501001001IA1309KA1999N-00501MD1710021+9999MW1271
0092011520999991953012309004+67283+014417FM-12+001399999V0203301N00821010801CN0160001N9-00221-00721100541ADDAY121999GA1051+010809099GF107991051091008001001071MD1410001+9999MW1151EQDQ01+000022APCTEN
0073011520999991953012312004+67283+014417FM-12+001399999V0203201N00621009901CN0200001N9-00221-00611100551ADDAY181999GA1061+009909099GF106991061091008001001001MD1210011+9999MW1151
0073011520999991953012315004+67283+014417FM-12+001399999V0203201N00821220001CN0160001N9-00281-00611100531ADDAY111999GA1041+009909099GF104991041091008001001001MD1710021+9999MW1151
0122011520999991953012318004+67283+014417FM-12+001399999V0203401N00931006001CN0160001N9-00221-00391100441ADDAA199002091AY181999GA1081+006009099GF109991091091008001001001IA1309KA1999M+99999MD1710091+9999MW1151EQDQ01 -00612ATMX  
0057011520999991953012400004+67283+014417FM-12+001399999V0203201N00821220001CN0200001N9-00221-00611100411ADDAY111999GF104991041021008001001001MD1710031+9999MW1021
0057011520999991953012403004+67283+014417FM-12+001399999V0203401N00821220001CN0200001N9-00221-00501100361ADDAY181999GF104991041031008001001001MD1710051+9999MW1151
0103011520999991953012406004+67283+014417FM-12+001399999V0203201N00311220001CN0160001N9-00281-00721100321ADDAA199000391AY121999GA1041+007509099GF104991041091008001001001IA1309KA1999N-00501MD1710041+9999MW1151
0073011520999991953012409004+67283+014417FM-12+001399999V0203501N00151220001CN0200001N9-00281-00781100351ADDAY121999GA1041+009009099GF104991041091008001001001MD1210031+9999MW1151
0073011520999991953012412004+67283+014417FM-12+001399999V0200701N00151220001CN0700001N9-00721-00781100431ADDAY101999GA1011+009909099GF102991011091008001001091MD1210101+9999MW1011
0073011520999991953012415004+67283+014417FM-12+001399999V0209991C00001009901CN0200001N9-00721-00781100501ADDAY111999GA1051+009909099GF105991051091008001001001MD1210051+9999MW1151
0087011520999991953012418004+67283+014417FM-12+001399999V0200901N00101007801CN0100001N9-00501-00611100591ADDAA199001091AY121999GF107991071091008001999999IA1309KA1999M-00221MD1210091+9999MW1851
0057011520999991953012500004+67283+014417FM-12+001399999V0200601N00211007801CN0400001N9-00721-00781100711ADDAY121999GF107991071091008001001001MD1210061+9999MW1151
0057011520999991953012503004+67283+014417FM-12+001399999V0200901N00411007801CN0400001N9-00721-00781100811ADDAY181999GF106991061051008001001001MD1210101+9999MW1261
0103011520999991953012506004+67283+014417FM-12+001399999V0200901N00461220001CN0400001N9-00611-00721100951ADDAA199001091AY111999GA1031+009909099GF103991031091008001001001IA1009KA1999N-00721MD1210141+9999MW1021
0057011520999991953012509004+67283+014417FM-12+001399999V0200901N003119999999N0400001N9-00611-00721101061ADDAY121999GF107991031091008001071999MD1210111+9999MW1021
0057011520999991953012512004+67283+014417FM-12+001399999V0200901N004119999999N0600001N9-00611-00721101131ADDAY121999GF107991041081008001071001MD1210071+9999MW1021
0076011520999991953012515004+67283+014417FM-12+001399999V0201001N00261007801CN0100001N9-00501-00611101161ADDAY181999GF107991999091008001001001MD1210031+9999MW1851EQDQ01+000062SCOTLC
0087011520999991953012518004+67283+014417FM-12+001399999V0201001N00101007801CN0120001N9-00501-00501101061ADDAA199001091AY181999GF107991071091008001999999IA1319KA1999M-00391MD1010101+9999MW1851
0057011520999991953012600004+67283+014417FM-12+001399999V0200901N004119999999N0400001N9-00281-00391101031ADDAY171999GF108991021051012501011999MD1990041+9999MW1021
0057011520999991953012603004+67283+014417FM-12+001399999V0200901N004119999999N0140001N9-00281-00391100921ADDAY171999GF108991011051012501021999MD1710111+9999MW1701
0119011520999991953012606004+67283+014417FM-12+001399999V0200901N00511012001CN0100001N9-00281-00281100731ADDAA199002091AY171999GA1081+012009049GA2021+005109059GF108991021051004501021999IA1319KA1999N-00501MD1810181+9999MW1711
0073011520999991953012609004+67283+014417FM-12+001399999V0200901N00511220001CN0050001N9-00221-00221100501ADDAY171999GA1091+999999999GF109991091999002501999999MD1810231+9999MW1731
0073011520999991953012612004+67283+014417FM-12+001399999V0200901N00621220001CN0050001N9-00221-00221100131ADDAY171999GA1091+999999999GF109991091999002501999999MD1810371+9999MW1711
0089011520999991953012615004+67283+014417FM-12+001399999V0200901N00511006001CN0200001N9-00221-00221099791ADDAY171999GA1071+006009049GA2011+001209079GF108991071071004501021999MD1810341+9999MW1221
0087011520999991953012618004+67283+014417FM-12+001399999V0200901N00721007801CN0160001N9-00111-00221099441ADDAA199002091AY171999GF107991071081008001999999IA1319KA1999M-00111MD1710351+9999MW1021
0057011520999991953012700004+67283+014417FM-12+001399999V0200901N00931002401CN0018001N9-00111-00221098601ADDAY171999GF109991091999002501999999MD1810421+9999MW1721
0057011520999991953012703004+67283+014417FM-12+001399999V0200901N00931002401CN0010001N9-00111-00111098191ADDAY171999GF109991091999002501999999MD1810411+9999MW1721
0119011520999991953012706004+67283+014417FM-12+001399999V0200901N00821012001CN0140001N9-00111-00111097891ADDAA199002091AY171999GA1061+012009049GA2021+004509079GF108991061071004501021999IA1319KA1999N-00221MD1810301+9999MW1151
0073011520999991953012709004+67283+014417FM-12+001399999V0200901N00721220001CN0090001N9+00001+00001097651ADDAY171999GA1041+003009079GF108991041071004501071071MD1810241+9999MW1711
0073011520999991953012712004+67283+014417FM-12+001399999V0200901N00821002701CN0040001N9-00111-00221097471ADDAY171999GA1091+002709999GF109991091999002501999999MD1710181+9999MW1711
0073011520999991953012715004+67283+014417FM-12+001399999V0200901N00931001501CN0010001N9-00221-00221097271ADDAY171999GA1091+001509999GF109991091999002501999999MD1710201+9999MW1731
0122011520999991953012718004+67283+014417FM-12+001399999V0200901N00931003001CN0150001N9-00111-00221097091ADDAA199003091AY121999GA1051+003009059GF108991999071004501071999IA1319KA1999M-00111MD1710221+9999MW1151EQDQ01+000082SCOTLC
0057011520999991953012800004+67283+014417FM-12+001399999V0200901N00621007801CN0160001N9-00221-00221096951ADDAY171999GF107991071071008001071999MD1710071+9999MW1151
0057011520999991953012803004+67283+014417FM-12+001399999V0200901N00511004501CN0150001N9-00221-00281096881ADDAY171999GF108991081071004501999999MD1710071+9999MW1701
0103011520999991953012806004+67283+014417FM-12+001399999V0200901N00511006001CN0100001N9-00221-00281096861ADDAA199006091AY171999GA1081+006009049GF108991081071004501999999IA1319KA1999N-00281MD1710021+9999MW1711
0089011520999991953012809004+67283+014417FM-12+001399999V0200901N00931220001CN0160001N9-00221-00501096901ADDAY171999GA1041+010809059GA2021+007209079GF106991061081012501041021MD1210041+9999MW1151
0073011520999991953012812004+67283+014417FM-12+001399999V0202101N00871006001CN0120001N9+00111-00221096971ADDAY171999GA1061+006009099GF107991061091008001041999MD1210071+9999MW1261
0092011520999991953012815004+67283+014417FM-12+001399999V0202101N01031006001CN0160001N9+00111+00001097021ADDAY181999GA1061+006009099GF107991999091008001001001MD1210051+9999MW1271EQDQ01+000062SCOTLC
0087011520999991953012818004+67283+014417FM-12+001399999V0202601N00771007801CN0160001N9+00111-00221097191ADDAA199002091AY181999GF108991071091008001999999IA1319KA1999M+00221MD1210171+9999MW1021
0057011520999991953012900004+67283+014417FM-12+001399999V0202701N008219999999N0200001N9+00111-00501097531ADDAY181999GF105991041031008001061001MD1210171+9999MW1151
0057011520999991953012903004+67283+014417FM-12+001399999V0202701N00821220001CN0200001N9+00001-00501097681ADDAY181999GF104991031031008001061031MD1210151+9999MW1271
0103011520999991953012906004+67283+014417FM-12+001399999V0202401N00721009001CN0200001N9-00111-00501097771ADDAA199000391AY181999GA1051+009009099GF105991051031008001061001IA1319KA1999N-00111MD1110091+9999MW1271
0073011520999991953012909004+67283+014417FM-12+001399999V0202001N00621220001CN0002001N9-00111-00221097911ADDAY181999GA1091+999999999GF109991091999002501999999MD1210141+9999MW1861
0089011520999991953012912004+67283+014417FM-12+001399999V0201801N01031009001CN0200001N9-00111-00391097741ADDAY181999GA1051+009009059GA2011+001509079GF106991051081008001041001MD1990171+9999MW1261
0073011520999991953012915004+67283+014417FM-12+001399999V0202401N01031009001CN0150001N9+00111+00001097471ADDAY181999GA1081+009009099GF108991081091008001999999MD1610271+9999MW1261
0103011520999991953012918004+67283+014417FM-12+001399999V0202401N01541006001CN0080001N9+00111-00111097491ADDAA199008091AY181999GA1081+006009099GF108991081091004501999999IA1319KA1999M+00221MD1210021+9999MW1871
0057011520999991953013000004+67283+014417FM-12+001399999V0202301N01131004501CN0028001N9+00111+00001097381ADDAY181999GF108991081091004501999999MD1710051+9999MW1841
0092011520999991953013003004+67283+014417FM-12+001399999V0202301N01541004501CN0160001N9+00111+00001097591ADDAY181999GF108991081091004501999999MD1210211+9999MW1261EQDQ01+000042APCTENQ02+000212APC3  
0103011520999991953013006004+67283+014417FM-12+001399999V0203401N00721220001CN0020001N9+00001-00111098501ADDAA199004091AY181999GA1091+999999999GF109991091999999999999999IA1319KA1999N-00111MD1310911+9999MW1841
0073011520999991953013009004+67283+014417FM-12+001399999V0203301N00101220001CN0200001N9+00001+00001098901ADDAY181999GA1031+009909099GF106991031091012501041061MD1210401+9999MW1151
0073011520999991953013012004+67283+014417FM-12+001399999V0202601N00621007501CN0160001N9+00111+00001099161ADDAY181999GA1051+007509099GF107991051091008001061031MD1310261+9999MW1151
0073011520999991953013015004+67283+014417FM-12+001399999V0202501N00721001801CN0014001N9+00001+00001099311ADDAY181999GA1091+001809999GF109991091999002501999999MD1110151+9999MW1861
0087011520999991953013018004+67283+014417FM-12+001399999V0202701N00931007801CN0160001N9+00221-00281099341ADDAA199004091AY181999GF107991071091008001999999IA1209KA1999M+00281MD1210031+9999MW1021
0057011520999991953013100004+67283+014417FM-12+001399999V0202001N00511002401CN0050001N9+00001-00111099481ADDAY181999GF108991081091002501999999MD1210071+9999MW1861
0076011520999991953013103004+67283+014417FM-12+001399999V0201001N00411220001CN0400001N9-00221-00281099481ADDAY121999GF104991011091008001031011MD1410001+9999MW1011EQDQ01+000022APCTEN
0103011520999991953013106004+67283+014417FM-12+001399999V0200901N00621220001CN0600001N9-00391-00721099301ADDAA199001091AY111999GA1011+009909089GF101991011021008001001061IA1319KA1999N-00391MD1990181+9999MW1011
0108011520999991953013109004+67283+014417FM-12+001399999V0200901N00821220001CN0700001N9-00391-00781099401ADDAY101999GA1011+010509059GF102991011051012501041011MD1210101+9999MW1021EQDQ01+000042APCTENQ02+000102APC3  
0092011520999991953013112004+67283+014417FM-12+001399999V0200801N01131220001CN0700001N9-00721-01111099401ADDAY101999GA1011+012009059GF103991011051012501051011MD1410001+9999MW1031EQDQ01+000022APCTEN
0073011520999991953013115004+67283+014417FM-12+001399999V0200801N01131220001CN0600001N9-00611-01111099421ADDAY111999GA1011+012009059GF104991011051012501051051MD1210021+9999MW1021
0092011520999991953013118004+67283+014417FM-12+001399999V0200901N01031220001CN0600001N9-00501-01001099511ADDAY111999GA1041+012009059GF105991041051012501051051IA1319KA1999M-00391MD1210091+9999MW1021
0057011520999991953020100004+67283+014417FM-12+001399999V0200801N01231012301CN0600001N9-00611-01111099871ADDAY121999GF108991081051012501999999MD1210181+9999MW1031
0057011520999991953020103004+67283+014417FM-12+001399999V0200801N00931012301CN0600001N9-00611-01001100101ADDAY121999GF108991081051012501999999MD1310231+9999MW1021
0076011520999991953020106004+67283+014417FM-12+001399999V0200801N007719999999N0600001N9-00611-01001100311ADDAY121999GF106991031051012501041071IA1319KA1999N-00721MD1310211+9999MW1011
0057011520999991953020109004+67283+014417FM-12+001399999V0200801N006219999999N0600001N9-00721-01111100791ADDAY121999GF105991031051012501001021MD1210281+9999MW1021
0057011520999991953020112004+67283+014417FM-12+001399999V0200901N00511220001CN0600001N9-00721-01221100841ADDAY101999GF103991011051012501041011MD1210251+9999MW1011
0057011520999991953020115004+67283+014417FM-12+001399999V0200901N00621220001CN0600001N9-00721-01111101091ADDAY101999GF103991011051012501041021MD1310251+9999MW1021
0076011520999991953020118004+67283+014417FM-12+001399999V0200901N00721220001CN0600001N9-00781-01221101291ADDAY101999GF103991011051012501041011IA1319KA1999M-00611MD1310201+9999MW1021
0057011520999991953020200004+67283+014417FM-12+001399999V0200901N00621007801CN0400001N9-00611-00891101841ADDAY121999GF107991071051008001999999MD1310231+9999MW1031
0057011520999991953020203004+67283+014417FM-12+001399999V0200901N00411007801CN0400001N9-00501-00891102081ADDAY121999GF105991051051008001999999MD1310221+9999MW1011
0092011520999991953020206004+67283+014417FM-12+001399999V0200901N00311009901CN0600001N9-00391-00721102351ADDAY121999GA1051+009909059GF105991051051012501001001IA1319KA1999N-00781MD1310271+9999MW1021
0089011520999991953020209004+67283+014417FM-12+001399999V0201001N00461220001CN0200001N9-00281-00501102641ADDAY121999GA1041+006609059GA2021+003609079GF106991051081008001041061MD1310291+9999MW1151
0089011520999991953020212004+67283+014417FM-12+001399999V0201101N00261006901CN0050001N9-00221-00281102901ADDAY181999GA1071+006909099GA2031+003909079GF107991071091008001999999MD1310261+9999MW1851
0073011520999991953020215004+67283+014417FM-12+001399999V0203001N00361220001CN0200001N9+00111+00001103051ADDAY181999GA1041+009909059GF107991051081008001071999MD1310151+9999MW1151
0087011520999991953020218004+67283+014417FM-12+001399999V0203001N00311007801CN0400001N9+00111-00391103171ADDAA199002091AY121999GF107991051051008001071001IA1319KA1999M+00221MD1310121+9999MW1021
0057011520999991953020300004+67283+014417FM-12+001399999V0202101N00461007801CN0200001N9+00111-00221103091ADDAY121999GF107991071091008001999999MD1990041+9999MW1021
0057011520999991953020303004+67283+014417FM-12+001399999V0201701N00261007801CN0140001N9+00111-00221102891ADDAY121999GF108991071091008001021999MD1810201+9999MW1701
0103011520999991953020306004+67283+014417FM-12+001399999V0201101N00721006001CN0100001N9+00001-00111102511ADDAA199004091AY171999GA1081+006009049GF108991081071008001999999IA1319KA1999N+00001MD1810381+9999MW1711
0073011520999991953020309004+67283+014417FM-12+001399999V0200901N00771006001CN0200001N9+00001-00111102061ADDAY171999GA1061+006009059GF108991061051008001021999MD1810441+9999MW1701
0073011520999991953020312004+67283+014417FM-12+001399999V0201501N00771005101CN0160001N9+00221+00001101471ADDAY171999GA1071+005109079GF108991071071004501021999MD1810591+9999MW1701
0073011520999991953020315004+67283+014417FM-12+001399999V0201901N01031006001CN0080001N9+00221-00111100861ADDAY171999GA1081+006009079GF108991081071008001999999MD1610611+9999MW1631
0087011520999991953020318004+67283+014417FM-12+001399999V0209991C00001004501CN0016001N9+00111+00001100461ADDAA199002091AY181999GF108991081091004501999999IA1319KA1999M+00281MD1710401+9999MW1881
0078011520999991953020400004+67283+014417FM-12+001399999V0200801N01031004501CN0050001N9-00221-00281100401ADDAY171999GF108991081071004501999999MW1731EQDQ01+000042APCTENQ02+000132APC3  
0057011520999991953020403004+67283+014417FM-12+001399999V0200801N01031220001CN0400001N9-00391-00781100671ADDAY181999GF103991021091008001041001MD1310271+9999MW1011
0122011520999991953020406004+67283+014417FM-12+001399999V0200901N01131220001CN0600001N9-00611-01111101021ADDAA199003091AY111999GA1021+030009039GF102991999001999999041001IA1319KA1999N-00611MD1210371+9999MW1011EQDQ01+000002SCOTLC
0073011520999991953020409004+67283+014417FM-12+001399999V0200901N01031030001CN0600001N9-00721-01221101181ADDAY121999GA1061+030009039GF107991011051008001071001MD1210161+9999MW1021
0092011520999991953020412004+67283+014417FM-12+001399999V0200901N00931018001CN0200001N9-00501-01111101331ADDAY121999GA1071+018009039GF107991999001022501071999MD1210151+9999MW1151EQDQ01+000002SCOTLC
0073011520999991953020415004+67283+014417FM-12+001399999V0200801N01131009001CN0160001N9-00721-01111101441ADDAY181999GA1081+009009099GF108991081091008001999999MD1210111+9999MW1851
0122011520999991953020418004+67283+014417FM-12+001399999V0200801N01291009001CN0160001N9-00781-01111101531ADDAA199000591AY181999GA1081+009009099GF108991999091008001071999IA1319KA1999M-00611MD1210091+9999MW1151EQDQ01+000082SCOTLC
0057011520999991953020500004+67283+014417FM-12+001399999V0200801N01131220001CN0160001N9-01001-01501101631ADDAY101999GF102991021091008001001001MD1210051+9999MW1151
0076011520999991953020503004+67283+014417FM-12+001399999V0200801N01131220001CN0200001N9-01001-01501101701ADDAY101999GF102991999021008001001001MD1210071+9999MW1021EQDQ01+000012SCOTLC
0076011520999991953020506004+67283+014417FM-12+001399999V0201001N01231220001CN0600001N9-00891-01391101781ADDAY101999GF100991001001999999001001IA1319KA1999N-01111MD1210071+9999MW1021
0092011520999991953020509004+67283+014417FM-12+001399999V0200901N01231220001CN0600001N9-00891-01501101921ADDAY101999GA1011+027009049GF102991999001999999021051MD1210141+9999MW1031EQDQ01+000002SCOTLC
0092011520999991953020512004+67283+014417FM-12+001399999V0200901N01181220001CN0700001N9-00891-01721102031ADDAY101999GA1011+015009059GF101991011041017501999001MD1210111+9999MW1021EQDQ01    003SCOMCG
0092011520999991953020515004+67283+014417FM-12+001399999V0200801N00931220001CN0700001N9-01111-01781102221ADDAY101999GA1011+015009059GF101991011041017501999001MD1210181+9999MW1021EQDQ01    003SCOMCG
0076011520999991953020518004+67283+014417FM-12+001399999V0200801N00931220001CN0600001N9-01111-01721102381ADDAY101999GF102991021051012501001001IA1319KA1999M-00781MD1210161+9999MW1021
0057011520999991953020600004+67283+014417FM-12+001399999V0200801N00931220001CN0600001N9-01221-01391102431ADDAY101999GF100991001001999999001001MD1210081+9999MW1021
0057011520999991953020603004+67283+014417FM-12+001399999V0200801N00771220001CN0600001N9-01221-01221102461ADDAY101999GF100991001001999999001001MD1210031+9999MW1021
0127011520999991953020606004+67283+014417FM-12+001399999V0200801N00621220001CN0700001N9-01221-01281102461ADDAY101999GA1011+030009039GF101991999001999999041001IA1319KA1999N-01391MD1410001+9999MW1031EQDQ01+000002SCOTLCQ02+000022APCTEN
0073011520999991953020609004+67283+014417FM-12+001399999V0200901N00621220001CN0700001N9-01221-01611102481ADDAY101999GA1011+012009089GF102991011011012501041051MD1210021+9999MW1021
0073011520999991953020612004+67283+014417FM-12+001399999V0200901N00721220001CN0700001N9-01221-01611102461ADDAY101999GA1011+012009089GF102991011081012501041021MD1710021+9999MW1021
0073011520999991953020615004+67283+014417FM-12+001399999V0200901N00821220001CN0700001N9-01001-01391102411ADDAY101999GA1011+012009089GF103991011081012501041021MD1710051+9999MW1021
0092011520999991953020618004+67283+014417FM-12+001399999V0200801N00821220001CN0700001N9-01111-01501102441ADDAY101999GA1021+012009089GF103991011081012501041021IA1319KA1999M-01001MD1210031+9999MW1021
0057011520999991953020700004+67283+014417FM-12+001399999V0200801N01131220001CN0700001N9-01111-01501102461ADDAY101999GF100991001001999999001001MD1510021+9999MW1021
0057011520999991953020703004+67283+014417FM-12+001399999V0200801N01031220001CN0700001N9-01111-01501102421ADDAY101999GF100991001001999999001001MD1710041+9999MW1021
0111011520999991953020706004+67283+014417FM-12+001399999V0200801N00671220001CN0700001N9-01221-01611102451ADDAY101999GA1011+030009039GF102991999001999999041051IA1319KA1999N-01281MD1210031+9999MW1031EQDQ01+000002SCOTLC
0108011520999991953020709004+67283+014417FM-12+001399999V0200801N00821220001CN0700001N9-01111-01501102451ADDAY121999GA1021+030009039GA2011+010509089GF105991011011012501041081MD1410001+9999MW1011EQDQ01+000022APCTEN
0092011520999991953020712004+67283+014417FM-12+001399999V0200801N00771220001CN0600001N9-01001-01501102521ADDAY101999GA1011+027009039GF101991999001999999041001MD1210071+9999MW1021EQDQ01+000002SCOTLC
0089011520999991953020715004+67283+014417FM-12+001399999V0201101N00931220001CN0600001N9-01111-01721102501ADDAY101999GA1021+027009039GA2011+012009059GF103991011051012501041011MD1710021+9999MW1031
0076011520999991953020718004+67283+014417FM-12+001399999V0200901N00821220001CN0600001N9-01221-01891102521ADDAY111999GF101991011081012501001001IA1319KA1999M-01001MD1210021+9999MW1011
0078011520999991953020800004+67283+014417FM-12+001399999V0200801N01031220001CN0600001N9-01221-01781102521ADDAY101999GF100991001001999999001001MW1021EQDQ01+000022APCTENQ02+000002APC3  
0057011520999991953020803004+67283+014417FM-12+001399999V0200801N00931220001CN0600001N9-01281-01781102491ADDAY101999GF100991001001999999001001MD1710031+9999MW1021
0076011520999991953020806004+67283+014417FM-12+001399999V0200801N01131220001CN0600001N9-01221-01891102351ADDAY101999GF101991011051012501001001IA1319KA1999N-01391MD1990141+9999MW1031
0057011520999991953020809004+67283+014417FM-12+001399999V0200901N011319999999N0600001N9-01001-01611102311ADDAY101999GF105991011051012501041061MD1710041+9999MW1031
0057011520999991953020812004+67283+014417FM-12+001399999V0200901N013919999999N0600001N9-01001-01611102231ADDAY101999GF107991011051012501041061MD1710041+9999MW1031
0057011520999991953020815004+67283+014417FM-12+001399999V0200901N012319999999N0400001N9-01221-01781102101ADDAY121999GF107991011051017501041071MD1710131+9999MW1031
0095011520999991953020818004+67283+014417FM-12+001399999V0200901N014419999999N0400001N9-01281-01891102011ADDAY121999GF105991999001022501051071IA1319KA1999M-01001MD1710091+9999MW1011EQDQ01+000002SCOTLC
0057011520999991953020900004+67283+014417FM-12+001399999V0200901N019519999999N0600001N9-01281-01781102051ADDAY101999GF105991011051012501051061MD1210041+9999MW1021
0057011520999991953020903004+67283+014417FM-12+001399999V0200901N017519999999N0600001N9-01281-01891101951ADDAY121999GF106991011051012501041071MD1710101+9999MW1031
0111011520999991953020906004+67283+014417FM-12+001399999V0200901N01131220001CN0400001N9-01111-01891101951ADDAY121999GA1041+024009039GF106991011051012501051001IA1319KA1999N-01501MD1410001+9999MW1021EQDQ01+000072APCTEN
0092011520999991953020909004+67283+014417FM-12+001399999V0200901N01651024001CN0160001N9-01001-01501101941ADDAY121999GA1061+024009039GF107991999001999999041021MD1710011+9999MW1051EQDQ01+000002SCOTLC
0092011520999991953020912004+67283+014417FM-12+001399999V0201001N01441024001CN0160001N9-01221-01721101861ADDAY121999GA1061+024009039GF106991999001999999041021MD1710081+9999MW1051EQDQ01+000002SCOTLC
0092011520999991953020915004+67283+014417FM-12+001399999V0201001N02061024001CN0160001N9-01281-01781101751ADDAY121999GA1071+024009039GF107991999001999999041999MD1710111+9999MW1051EQDQ01+000002SCOTLC
0095011520999991953020918004+67283+014417FM-12+001399999V0201101N02261220001CN0140001N9-01221-01721101691ADDAY121999GF104991999001999999041001IA1319KA1999M-01001MD1510061+9999MW1361EQDQ01+000002SCOTLC
0076011520999991953021000004+67283+014417FM-12+001399999V0200901N01751220001CN0400001N9-01221-01721101751ADDAY121999GF108991999001999999041001MD1710061+9999MW1181EQDQ01+000002SCOTLC
0076011520999991953021003004+67283+014417FM-12+001399999V0201001N01951220001CN0400001N9-01221-01721101751ADDAY121999GF104991999001999999041001MD1710061+9999MW1181EQDQ01+000002SCOTLC
0111011520999991953021006004+67283+014417FM-12+001399999V0201001N01751220001CN0400001N9-01221-01721101771ADDAY111999GA1041+030009039GF104991999001999999041001IA1319KA1999N-01281MD1210021+9999MW1181EQDQ01+000002SCOTLC
0092011520999991953021009004+67283+014417FM-12+001399999V0200901N01441030001CN0160001N9-01281-01781101821ADDAY121999GA1061+030009039GF107991999001999999041071MD1210051+9999MW1031EQDQ01+000002SCOTLC
0092011520999991953021012004+67283+014417FM-12+001399999V0201001N01541220001CN0200001N9-01281-01891101921ADDAY111999GA1021+030009039GF104991999001999999041071MD1210101+9999MW1011EQDQ01+000002SCOTLC
0092011520999991953021015004+67283+014417FM-12+001399999V0201001N01651220001CN0160001N9-01281-01781101841ADDAY101999GA1021+030009039GF102991999001999999041001MD1710081+9999MW1011EQDQ01+000002SCOTLC
0111011520999991953021018004+67283+014417FM-12+001399999V0200901N01231220001CN0160001N9-01391-02001101761ADDAY101999GF102991999001999999041001IA1319KA1999M+99999MD1710081+9999MW1021EQDQ01+000002SCOTLCQ02 -01502ATMX  
0057011520999991953021100004+67283+014417FM-12+001399999V0200801N01031220001CN0200001N9-01281-01781101531ADDAY101999GF100991001001999999001001MD1710121+9999MW1011
0057011520999991953021103004+67283+014417FM-12+001399999V0200801N00931220001CN0200001N9-01221-01721101481ADDAY101999GF100991001001999999001001MD1710061+9999MW1021
0127011520999991953021106004+67283+014417FM-12+001399999V0200801N00931220001CN0200001N9-01281-01781101551ADDAY101999GA1021+012009059GF102991021051012501041001IA1319KA1999N-01501MD1210071+9999MW1031EQDQ01+000042APCTENQ02+000082APC3  
0073011520999991953021109004+67283+014417FM-12+001399999V0200801N01031015001CN0400001N9-01281-01781101751ADDAY111999GA1061+015009059GF107991061051017501041001MD1210201+9999MW1031
0073011520999991953021112004+67283+014417FM-12+001399999V0200801N01031220001CN0200001N9-01281-01781101881ADDAY121999GA1011+015009059GF105991011051017501041021MD1210131+9999MW1021
0092011520999991953021115004+67283+014417FM-12+001399999V0200801N01131220001CN0200001N9-01281-01781101971ADDAY101999GA1011+015009059GF103991011051017501999021MD1210091+9999MW1011EQDQ01    003SCOMCG
0076011520999991953021118004+67283+014417FM-12+001399999V0200901N00931220001CN0200001N9-01281-01781102281ADDAY121999GF104991041051017501001001IA1319KA1999M-01221MD1210311+9999MW1021
0057011520999991953021200004+67283+014417FM-12+001399999V0200801N00931220001CN0200001N9-01281-01781102541ADDAY101999GF100991001001999999001001MD1210181+9999MW1011
0057011520999991953021203004+67283+014417FM-12+001399999V0200901N00931220001CN0200001N9-01281-01781102751ADDAY101999GF101991011081012501001001MD1210211+9999MW1031
0092011520999991953021206004+67283+014417FM-12+001399999V0200901N00871220001CN0200001N9-01281-01781102821ADDAY101999GA1011+012009059GF101991011051012501001001IA1319KA1999N-01501MD1210071+9999MW1021
0092011520999991953021209004+67283+014417FM-12+001399999V0200901N00931021001CN0200001N9-01221-01611102851ADDAY101999GA1061+021009039GF106991999001022501071001MD1210031+9999MW1031EQDQ01+000002SCOTLC
0092011520999991953021212004+67283+014417FM-12+001399999V0200901N00511024001CN0600001N9-01001-01501102861ADDAY111999GA1051+024009039GF105991999001999999051001MD1210011+9999MW1031EQDQ01+000002SCOTLC
0092011520999991953021215004+67283+014417FM-12+001399999V0200901N00461220001CN0400001N9-00891-01391102781ADDAY111999GA1031+024009039GF103991999001999999051001MD1710081+9999MW1021EQDQ01+000002SCOTLC
0095011520999991953021218004+67283+014417FM-12+001399999V0200901N00511220001CN0400001N9-00891-01221102611ADDAY101999GF103991999001999999051001IA1319KA1999M-00891MD1710171+9999MW1021EQDQ01+000002SCOTLC
0076011520999991953021300004+67283+014417FM-12+001399999V0200901N01031220001CN0700001N9-00721-01221102021ADDAY101999GF102991999001999999041001MD1990251+9999MW1021EQDQ01+000002SCOTLC
0076011520999991953021303004+67283+014417FM-12+001399999V0201001N00931220001CN0700001N9-00611-01221101681ADDAY101999GF106991999001999999071001MD1710341+9999MW1031EQDQ01+000002SCOTLC
0103011520999991953021306004+67283+014417FM-12+001399999V0200901N00821003001CN0018001N9-00501-00781101451ADDAA199000391AY121999GA1091+003009999GF109991091999004501999999IA1319KA1999N-01001MD1710231+9999MW1731
0073011520999991953021309004+67283+014417FM-12+001399999V0202301N01541003001CN0004001N9-00281-00391101521ADDAY171999GA1091+003009999GF109991091999002501999999MD1210071+9999MW1751
0073011520999991953021312004+67283+014417FM-12+001399999V0202301N00931003001CN0004001N9-00221-00281101551ADDAY171999GA1091+003009999GF109991091999002501999999MD1210031+9999MW1751
0073011520999991953021315004+67283+014417FM-12+001399999V0202201N01441006001CN0100001N9-00111-00221101501ADDAY181999GA1071+006009099GF107991071091004501999999MD1710051+9999MW1361
0087011520999991953021318004+67283+014417FM-12+001399999V0202101N01031004501CN0036001N9-00111-00221101411ADDAA199005091AY141999GF107991071091004501999999IA1319KA1999M-00111MD1710091+9999MW1861
0057011520999991953021400004+67283+014417FM-12+001399999V0202301N01131001501CN0002001N9-00111-00221101181ADDAY181999GF109991091999001501999999MD1710111+9999MW1861
0057011520999991953021403004+67283+014417FM-12+001399999V0203001N01131002401CN0030001N9-00111-00501101151ADDAY181999GF108991081091002501999999MD1710031+9999MW1851
0103011520999991953021406004+67283+014417FM-12+001399999V0202901N01031006601CN0140001N9-00221-00501101171ADDAA199005091AY181999GA1071+006609099GF107991071091008001999999IA1319KA1999N-00281MD1210021+9999MW1851
0073011520999991953021409004+67283+014417FM-12+001399999V0203001N00931006901CN0160001N9-00281-00501101291ADDAY181999GA1071+006909099GF107991071091008001999999MD1210121+9999MW1151
0073011520999991953021412004+67283+014417FM-12+001399999V0203101N01031009901CN0200001N9-00221-00781101351ADDAY181999GA1051+009909099GF105991051091008001001001MD1210061+9999MW1151
0073011520999991953021415004+67283+014417FM-12+001399999V0203201N00621220001CN0200001N9-00391-00781101501ADDAY181999GA1041+009009099GF104991041091008001001001MD1210151+9999MW1151
0087011520999991953021418004+67283+014417FM-12+001399999V0203201N00621220001CN0200001N9-00391-00781101561ADDAA199001091AY121999GF103991031091008001001001IA1319KA1999M-00111MD1210061+9999MW1151
0057011520999991953021500004+67283+014417FM-12+001399999V0203001N00261007801CN0200001N9-00281-00891101591ADDAY121999GF105991051091008001001001MD1210011+9999MW1021
0057011520999991953021503004+67283+014417FM-12+001399999V0209991C00001220001CN0200001N9-00501-00721101531ADDAY101999GF103991031091008001001001MD1710061+9999MW1011
0103011520999991953021506004+67283+014417FM-12+001399999V0202801N00411009001CN0200001N9-00281-00721101491ADDAA199000691AY121999GA1061+009009099GF106991061091008001001001IA1319KA1999N-00781MD1710041+9999MW1031
0057011520999991953021509004+67283+014417FM-12+001399999V0202701N00411007801CN0400001N9-00501-00721101451ADDAY121999GF107991051091008001061001MD1710041+9999MW1151
0057011520999991953021512004+67283+014417FM-12+001399999V0202301N00511007801CN0400001N9-00281-00501101361ADDAY121999GF107991051091008001061001MD1710091+9999MW1151
0057011520999991953021515004+67283+014417FM-12+001399999V0202601N00461007801CN0400001N9-00111-00501101251ADDAY181999GF107991051091008001071999MD1710111+9999MW1031
0087011520999991953021518004+67283+014417FM-12+001399999V0209991C00001007801CN0060001N9-00221-00281101131ADDAA199001091AY171999GF108991081071008001999999IA1319KA1999M-00111MD1710121+9999MW1731
0057011520999991953021600004+67283+014417FM-12+001399999V0200801N00771220001CN0600001N9-00501-00611100821ADDAY181999GF102991001001999999061051MD1810151+9999MW1011
0057011520999991953021603004+67283+014417FM-12+001399999V0200801N00821220001CN0600001N9-00501-00781100641ADDAY101999GF101991001001999999001011MD1810181+9999MW1011
0087011520999991953021606004+67283+014417FM-12+001399999V0200801N01031220001CN0600001N9-00391-00781100361ADDAA199000391AY101999GF106991001001999999001071IA1319KA1999N-00611MD1810281+9999MW1031
0092011520999991953021609004+67283+014417FM-12+001399999V0200801N01031015001CN0160001N9-00281-00721100021ADDAY121999GA1061+015009049GF108991999001022501011999MD1810341+9999MW1151EQDQ01+000002SCOTLC
0073011520999991953021612004+67283+014417FM-12+001399999V0200901N01441006001CN0010001N9-00221-00281099711ADDAY131999GA1091+006009999GF109991091999004501999999MD1810311+9999MW1371
0073011520999991953021615004+67283+014417FM-12+001399999V0200901N01441009001CN0160001N9+00001-00281099281ADDAY181999GA1071+009009099GF108991071091008001021999MD1810431+9999MW1361
0087011520999991953021618004+67283+014417FM-12+001399999V0200901N01131220001CN0140001N9+00001-00391098991ADDAA199001091AY181999GF103991031091008001001001IA1319KA1999M+00111MD1710291+9999MW1361
0057011520999991953021700004+67283+014417FM-12+001399999V0201201N01031007801CN0160001N9+00221-00281098491ADDAY121999GF108991081091008001999999MD1610251+9999MW1151
0057011520999991953021703004+67283+014417FM-12+001399999V0201201N00621004501CN0160001N9+00221-00281098381ADDAY121999GF108991081091004501999999MD1710111+9999MW1151
0092011520999991953021706004+67283+014417FM-12+001399999V0201201N00721006001CN0200001N9+00221-00281098281ADDAY121999GA1051+006009059GF108991071051008001021999IA1319KA1999N-00111MD1810091+9999MW1021
0073011520999991953021709004+67283+014417FM-12+001399999V0200901N01031009001CN0400001N9+00111-00391098221ADDAY121999GA1061+009009059GF108991061051008001021999MD1710061+9999MW1151
0073011520999991953021712004+67283+014417FM-12+001399999V0200901N01441012001CN0160001N9-00111-00221098151ADDAY171999GA1071+012009059GF107991071051012501071999MD1710071+9999MW1221
0108011520999991953021715004+67283+014417FM-12+001399999V0200801N01031006001CN0060001N9-00111-00281098341ADDAY171999GA1081+006009079GF108991081071008001999999MD1210191+9999MW1701EQDQ01+000042APCTENQ02+000192APC3  
0087011520999991953021718004+67283+014417FM-12+001399999V0200801N00461004501CN0060001N9-00111-00281098801ADDAA199001091AY171999GF108991081061004501999999IA1319KA1999M+00111MD1210461+9999MW1701
0057011520999991953021800004+67283+014417FM-12+001399999V0203201N01031004501CN0100001N9+00111-00111099301ADDAY171999GF108991081071004501999999MD1210251+9999MW1701
0057011520999991953021803004+67283+014417FM-12+001399999V0203301N00621007801CN0140001N9+00001-00221099391ADDAY171999GF108991081071008001999999MD1710091+9999MW1151
0103011520999991953021806004+67283+014417FM-12+001399999V0203301N00511009001CN0160001N9-00111-00721099321ADDAA199001091AY121999GA1071+009009099GF107991071071008001999999IA1319KA1999N-00221MD1710071+9999MW1021
0073011520999991953021809004+67283+014417FM-12+001399999V0200401N00211220001CN0200001N9-00111-00721099121ADDAY121999GA1041+010509089GF108991061081012501021999MD1710201+9999MW1151
0092011520999991953021812004+67283+014417FM-12+001399999V0200801N00211012901CN0100001N9-00221-00391098851ADDAY121999GA1081+012909049GF108991999001012501021999MD1710271+9999MW1701EQDQ01+000002SCOTLC
0089011520999991953021815004+67283+014417FM-12+001399999V0200501N00461220001CN0160001N9-00281-00501098561ADDAY171999GA1041+007509059GA2021+003009079GF107991041051008001071999MD1710291+9999MW1261
0087011520999991953021818004+67283+014417FM-12+001399999V0200501N00461002401CN0020001N9-00391-00611098351ADDAA199000691AY171999GF108991081051002501999999IA1319KA1999M+00001MD1610211+9999MW1721
0057011520999991953021900004+67283+014417FM-12+001399999V0200101N01441007801CN0600001N9-00281-00721098601ADDAY121999GF107991071081008001999999MD1310201+9999MW1021
0057011520999991953021903004+67283+014417FM-12+001399999V0203601N01081012301CN0200001N9-00391-00891098951ADDAY181999GF106991061081012501001001MD1310351+9999MW1151
0103011520999991953021906004+67283+014417FM-12+001399999V0203601N01231220001CN0200001N9-00501-00891099291ADDAA199000391AY121999GA1041+009909089GF106991061081012501061001IA1319KA1999N-00611MD1310341+9999MW1151
0073011520999991953021909004+67283+014417FM-12+001399999V0203401N00931012001CN0200001N9-00501-01221099551ADDAY121999GA1061+012009099GF106991061091012501001001MD1310261+9999MW1151
0073011520999991953021912004+67283+014417FM-12+001399999V0203401N00511012001CN0600001N9-00501-01281099801ADDAY121999GA1061+012009089GF106991061011012501051001MD1310251+9999MW1151
0073011520999991953021915004+67283+014417FM-12+001399999V0202501N00361220001CN0400001N9-00501-01501099911ADDAY111999GA1041+012009099GF104991041091012501001051MD1310111+9999MW1151
0087011520999991953021918004+67283+014417FM-12+001399999V0202101N00621220001CN0600001N9-00501-01111099901ADDAA199000691AY101999GF103991021021012501041001IA1319KA1999M-00391MD1310011+9999MW1021
0057011520999991953022000004+67283+014417FM-12+001399999V0200901N00511007801CN0160001N9-00721-00781099821ADDAY181999GF107991071091008001999999MD1610041+9999MW1261
0057011520999991953022003004+67283+014417FM-12+001399999V0201001N00511007801CN0160001N9-00611-00721099841ADDAY121999GF105991051091008001001001MD1210021+9999MW1151
0103011520999991953022006004+67283+014417FM-12+001399999V0201401N00931007501CN0160001N9-00391-00781099571ADDAA199003091AY181999GA1081+007509099GF108991081091008001999999IA1319KA1999N-00891MD1990271+9999MW1151
0073011520999991953022009004+67283+014417FM-12+001399999V0202101N01131000901CN0000001N9-00281-00281099361ADDAY181999GA1091+000909999GF109991091999000751999999MD1710211+9999MW1861
0073011520999991953022012004+67283+014417FM-12+001399999V0203001N00261002101CN0012001N9-00221-00221099351ADDAY181999GA1081+002109079GF108991081071002501999999MD1990011+9999MW1731
0073011520999991953022015004+67283+014417FM-12+001399999V0200901N00721003001CN0060001N9-00221-00221099041ADDAY171999GA1081+003009079GF108991081071002501999999MD1710311+9999MW1711
0087011520999991953022018004+67283+014417FM-12+001399999V0201201N007719999999N0200001N9+00001-00391098671ADDAA199009091AY121999GF105991031051012501071011IA1009KA1999M+00001MD1710371+9999MW1021
0057011520999991953022100004+67283+014417FM-12+001399999V0201301N005119999999N0400001N9-00111-00721098021ADDAY121999GF105991011051012501041001MD1710331+9999MW1021
0057011520999991953022103004+67283+014417FM-12+001399999V0200801N01031007801CN0140001N9-00221-00781097861ADDAY171999GF108991081071008001999999MD1710161+9999MW1701
0103011520999991953022106004+67283+014417FM-12+001399999V0200801N01441009001CN0140001N9-00281-00501097781ADDAA199000691AY131999GA1051+009009059GF107991071051008001071999IA1319KA1999N-00391MD1710081+9999MW1151
0073011520999991953022109004+67283+014417FM-12+001399999V0200801N01131220001CN0200001N9-00281-00721097721ADDAY121999GA1041+015009059GF107991041051012501041001MD1610061+9999MW1151
0092011520999991953022112004+67283+014417FM-12+001399999V0200801N00931220001CN0200001N9-00221-00721097691ADDAY121999GA1041+018009049GF107991999001022501071001MD1710031+9999MW1151EQDQ01+000002SCOTLC
0073011520999991953022115004+67283+014417FM-12+001399999V0200801N00771012901CN0200001N9-00221-00721097781ADDAY121999GA1051+012909059GF107991051051012501071999MD1210091+9999MW1151
0087011520999991953022118004+67283+014417FM-12+001399999V0200801N00621002401CN0080001N9-00281-00501098161ADDAA199000391AY171999GF108991081071002501999999IA1319KA1999M-00221MD1310381+9999MW1711
0057011520999991953022200004+67283+014417FM-12+001399999V0200101N00311220001CN0700001N9-00221-00611099071ADDAY181999GF104991001001999999041021MD1310421+9999MW1011
0076011520999991953022203004+67283+014417FM-12+001399999V0200701N00211220001CN0700001N9-00501-00781099451ADDAY111999GF105991999001999999041001MD1310381+9999MW1021EQDQ01+000002SCOTLC
0087011520999991953022206004+67283+014417FM-12+001399999V0200801N004619999999N0700001N9-00391-00501099671ADDAA199000591AY121999GF106991041051017501041001IA1319KA1999N-00721MD1110221+9999MW1031
0057011520999991953022209004+67283+014417FM-12+001399999V0200801N002619999999N0700001N9-00501-00611099801ADDAY121999GF105991021051017501041001MD1210131+9999MW1011
0057011520999991953022212004+67283+014417FM-12+001399999V0200801N003119999999N0400001N9-00391-00721099981ADDAY121999GF106991021051017501011011MD1210181+9999MW1031
0057011520999991953022215004+67283+014417FM-12+001399999V0200801N006219999999N0400001N9-00281-00721100061ADDAY121999GF107991031051017501021001MD1210081+9999MW1151
0076011520999991953022218004+67283+014417FM-12+001399999V0200801N00621015001CN0200001N9-00281-00781100091ADDAY121999GF107991051051017501021001IA1319KA1999M-00281MD1210031+9999MW1151
0057011520999991953022300004+67283+014417FM-12+001399999V0200901N007219999999N0400001N9-00281-00891100151ADDAY121999GF107991021051012501071999MD1210031+9999MW1021
0057011520999991953022303004+67283+014417FM-12+001399999V0200901N00821220001CN0400001N9-00391-01001100101ADDAY121999GF104991011051012501071021MD1990051+9999MW1011
0108011520999991953022306004+67283+014417FM-12+001399999V0200901N00931220001CN0400001N9-00391-01001099871ADDAY101999GA1021+024009039GA2011+012009059GF105991011051012501041051IA1319KA1999N-00611MD1810231+9999MW1031
0089011520999991953022309004+67283+014417FM-12+001399999V0200801N01131027001CN0600001N9-00391-00891099701ADDAY121999GA1061+027009039GA2011+015009089GF107991011081017501071071MD1810171+9999MW1031
0073011520999991953022312004+67283+014417FM-12+001399999V0200901N01131220001CN0400001N9-00281-00891099621ADDAY121999GA1041+006009079GF107991041071008001021999MD1710081+9999MW1151
0073011520999991953022315004+67283+014417FM-12+001399999V0200901N01031007801CN0020001N9-00281-00781099591ADDAY121999GA1051+007809059GF108991081081008001999999MD1710031+9999MW1861
0087011520999991953022318004+67283+014417FM-12+001399999V0200901N01231007801CN0200001N9-00281-00721099651ADDAA199000391AY181999GF108991081081008001999999IA1319KA1999M-00281MD1210041+9999MW1151
0057011520999991953022400004+67283+014417FM-12+001399999V0200901N01031007801CN0200001N9-00221-00611100051ADDAY121999GF105991051081008001001001MD1210201+9999MW1021
0057011520999991953022403004+67283+014417FM-12+001399999V0200801N00721007801CN0200001N9-00111-00501100271ADDAY111999GF106991061091008001001001MD1310221+9999MW1021
0092011520999991953022406004+67283+014417FM-12+001399999V0200901N00771012001CN0200001N9-00111-00501100491ADDAY121999GA1071+012009059GF107991071051008001999999IA1319KA1999N-00221MD1310221+9999MW1021
0073011520999991953022409004+67283+014417FM-12+001399999V0200901N00771010801CN0200001N9+00001-00391100671ADDAY121999GA1051+010809059GF107991051051012501041001MD1110181+9999MW1021
0073011520999991953022412004+67283+014417FM-12+001399999V0201001N00621220001CN0200001N9+00221-00111100891ADDAY121999GA1041+010809059GF107991041051012501071071MD1210221+9999MW1011
0073011520999991953022415004+67283+014417FM-12+001399999V0201501N00311015001CN0400001N9+00281-00111100831ADDAY121999GA1051+015009059GF108991051051012501071071MD1710061+9999MW1021
0076011520999991953022418004+67283+014417FM-12+001399999V0201501N00821012301CN0400001N9+00501-00111100561ADDAY121999GF108991051051012501071999IA1319KA1999M+00501MD1710271+9999MW1021
0057011520999991953022500004+67283+014417FM-12+001399999V0201801N00721007801CN0200001N9+00611+00221100131ADDAY121999GF107991071051008001999999MD1610221+9999MW1021
0057011520999991953022503004+67283+014417FM-12+001399999V0201701N00821012301CN0160001N9+00501+00221100021ADDAY161999GF108991071051012501021999MD1710111+9999MW1601
0103011520999991953022506004+67283+014417FM-12+001399999V0202201N01031005401CN0100001N9+00501+00281099951ADDAA199002091AY161999GA1071+005409079GF108991071071004501021999IA1209KA1999N+00391MD1710071+9999MW1631
0124011520999991953022509004+67283+014417FM-12+001399999V0202201N01341220001CN0150001N9+00501+00281100021ADDAY161999GA1031+007509089GA2031+005409079GF107991041081008001021999MD1210071+9999MW1211EQDQ01+000042APCTENQ02+000072APC3  
0089011520999991953022512004+67283+014417FM-12+001399999V0202201N01231006001CN0120001N9+00611+00391100051ADDAY161999GA1071+006009059GA2011+001809079GF107991071081008001021011MD1210031+9999MW1601
0108011520999991953022515004+67283+014417FM-12+001399999V0202201N01231220001CN0140001N9+00611+00281100171ADDAY111999GA1031+007809089GF103991031021008001051001MD1210121+9999MW1151EQDQ01+000042APCTENQ02+000122APC3  
0087011520999991953022518004+67283+014417FM-12+001399999V0202301N01441220001CN0140001N9+00501+00281100461ADDAA199002091AY111999GF103991031071008001001001IA1209KA1999M+00721MD1310291+9999MW1151
0057011520999991953022600004+67283+014417FM-12+001399999V0202401N01541007801CN0160001N9+00501+00281100761ADDAY181999GF106991061021008001001001MD1710151+9999MW1251
0057011520999991953022603004+67283+014417FM-12+001399999V0202201N01131007801CN0140001N9+00501+00281100791ADDAY181999GF108991081091008001999999MD1110031+9999MW1151
0119011520999991953022606004+67283+014417FM-12+001399999V0202001N00871006301CN0120001N9+00501+00221100491ADDAA199001091AY161999GA1071+006309089GA2041+003009079GF108991071071008001021999IA1189KA1999N+00281MD1990301+9999MW1601
0073011520999991953022609004+67283+014417FM-12+001399999V0201801N00461220001CN0160001N9+00391+00281100061ADDAY161999GA1041+009009059GF108991041051008001021999MD1710431+9999MW1601
0073011520999991953022612004+67283+014417FM-12+001399999V0201801N01031003901CN0090001N9+00501+00281099152ADDAY161999GA1071+003909079GF108991071071004501021999MD1810911+9999MW1631
0108011520999991953022615004+67283+014417FM-12+001399999V0202201N02311003901CN0040001N9+00501+00501999999ADDAY181999GA1051+003909079GF108991081081004501999999MD1710602+9999MW1811EQDQ01+098553APOSLPQ02+000602APC3  
0124011520999991953022618004+67283+014417FM-12+001399999V0202501N02261002401CN0048001N9+00501+00281099471ADDAA199009091AY181999GF108991999071002501021999IA1189KA1999M+00891MW1811EQDQ01+000082SCOTLCQ02+000042APCTENQ03+000922APC3  
0092011520999991953022700004+67283+014417FM-12+001399999V0202801N02111007801CN0200001N9+00281-00221101022ADDAY121999GF107991071051008001001001MD1310732+9999MW1021EQDQ01+101023APOSLPQ02+000732APC3  
0057011520999991953022703004+67283+014417FM-12+001399999V0202601N01031007801CN0200001N9+00221+00111101101ADDAY121999GF107991071051008001041999MD1210081+9999MW1141
0103011520999991953022706004+67283+014417FM-12+001399999V0202601N00771220001CN0160001N9+00281+00221101281ADDAA199001091AY121999GA1041+009009089GF104991041021008001001021IA1189KA1999N+00111MD1210181+9999MW1151
0073011520999991953022709004+67283+014417FM-12+001399999V0202601N00621220001CN0160001N9+00281+00111101541ADDAY121999GA1031+009009089GF103991031031008001001051MD1210261+9999MW1011
0089011520999991953022712004+67283+014417FM-12+001399999V0202401N00511220001CN0200001N9+00391+00221101761ADDAY121999GA1041+030009039GA2011+009009059GF107991011041008001071071MD1110221+9999MW1031
0092011520999991953022715004+67283+014417FM-12+001399999V0202401N00931007501CN0200001N9+00391+00221101881ADDAY121999GA1061+007509089GF107991999081008001999999MD1710121+9999MW1151EQDQ01+000082SCOTLC
0087011520999991953022718004+67283+014417FM-12+001399999V0202601N01131007801CN0200001N9+00281+00001101911ADDAA199000691AY181999GF105991051081008001001001IA1189KA1999M+00391MD1210031+9999MW1151
0057011520999991953022800004+67283+014417FM-12+001399999V0202701N01031007801CN0200001N9+00281-00111102511ADDAY121999GF108991071051008001061061MD1210201+9999MW1021
0057011520999991953022803004+67283+014417FM-12+001399999V0202701N00821007801CN0150001N9+00281+00111102711ADDAY181999GF108991081081008001999999MD1210201+9999MW1251
0103011520999991953022806004+67283+014417FM-12+001399999V0202301N00771220001CN0200001N9+00281+00111102511ADDAA199000591AY121999GA1011+009909059GF104991011081012501071051IA1189KA1999N+00221MD1990201+9999MW1011
0073011520999991953022809004+67283+014417FM-12+001399999V0202301N01231220001CN0200001N9+00391+00111102311ADDAY121999GA1041+009009059GF107991041051008001071999MD1710201+9999MW1021
0073011520999991953022812004+67283+014417FM-12+001399999V0202301N01541220001CN0160001N9+00501+00281101951ADDAY161999GA1041+006909059GF108991041071008001021999MD1710321+9999MW1601
0073011520999991953022815004+67283+014417FM-12+001399999V0202001N01441006901CN0160001N9+00501+00281101631ADDAY161999GA1071+006909059GF108991071071008001021999MD1810321+9999MW1601
0106011520999991953022818004+67283+014417FM-12+001399999V0202401N01181004501CN0120001N9+00501+00391101451ADDAA199001091AY161999GF108991999071004501021999IA1189KA1999M+00611MD1610181+9999MW1621EQDQ01+000082SCOTLC
0057011520999991953030100004+67283+014417FM-12+001399999V0202501N01131004501CN0120001N9+00391+00281101341ADDAY161999GF108991081071004501999999MD1990111+9999MW1641
0057011520999991953030103004+67283+014417FM-12+001399999V0202601N00931004501CN0150001N9+00281+00221101271ADDAY161999GF108991081071004501999999MD1710071+9999MW1211
0087011520999991953030106004+67283+014417FM-12+001399999V0202501N009319999999N0160001N9+00281+00221101221ADDAA199007091AY161999GF108991031081008001071999IA1189KA1999N+00221MD1810051+9999MW1151
0092011520999991953030109004+67283+014417FM-12+001399999V0202701N006219999999N0160001N9+00281+00111101381ADDAY181999GF107991041061008001071001MD1210161+9999MW1251EQDQ01+000042APCTENQ02+000162APC3  
0057011520999991953030112004+67283+014417FM-12+001399999V0202901N00821004501CN0030001N9+00281+00111101581ADDAY181999GF107991071091004501001001MD1210201+9999MW1841
0057011520999991953030115004+67283+014417FM-12+001399999V0202901N00721004501CN0160001N9+00221+00001101651ADDAY181999GF108991071091004501061999MD1210071+9999MW1151
0087011520999991953030118004+67283+014417FM-12+001399999V0202701N00511007801CN0150001N9+00221+00001101641ADDAA199001091AY181999GF108991061081008001071999IA1189KA1999M+00281MD1710011+9999MW1151
0076011520999991953030200004+67283+014417FM-12+001399999V0200901N00821004501CN0040001N9+00001+00001101061ADDAY121999GF108991999051004501021999MD1710291+9999MW1711EQDQ01+000082SCOTLC
0076011520999991953030203004+67283+014417FM-12+001399999V0202201N01231004501CN0040001N9+00221+00221100411ADDAY171999GF108991999051004501021999MD1710351+9999MW1631EQDQ01+000082SCOTLC
0122011520999991953030206004+67283+014417FM-12+001399999V0202401N01441006001CN0040001N9+00501+00501100081ADDAA199009091AY161999GA1081+006009059GF108991999051004501021999IA1189KA1999N-00111MD1710331+9999MW1601EQDQ01+000082SCOTLC
0073011520999991953030209004+67283+014417FM-12+001399999V0202301N01391006001CN0100001N9+00611+00611099781ADDAY161999GA1071+006009079GF108991071071004501021999MD1710301+9999MW1631
0073011520999991953030212004+67283+014417FM-12+001399999V0202301N01951003901CN0090001N9+00611+00501099151ADDAY161999GA1071+003909079GF108991071071004501021999MD1710631+9999MW1631
0073011520999991953030215004+67283+014417FM-12+001399999V0202401N01441006001CN0090001N9+00501+00281098771ADDAY181999GA1051+006009079GF108991071071004501021999MD1810381+9999MW1631
0087011520999991953030218004+67283+014417FM-12+001399999V0203301N01851002401CN0060001N9+00221+00111098621ADDAA199011091AY181999GF108991081091002501999999IA1189KA1999M+00611MD1510151+9999MW1871
0092011520999991953030300004+67283+014417FM-12+001399999V0203501N01801007801CN0160001N9-00221-00391100462ADDAY181999GF107991071091008001999999MD1210712+9999MW1261EQDQ01+100463APOSLPQ02+000712APC3  
0057011520999991953030303004+67283+014417FM-12+001399999V0203501N01541007801CN0200001N9-00391-00781101151ADDAY181999GF106991061091008001001001MD1210691+9999MW1151
0103011520999991953030306004+67283+014417FM-12+001399999V0203501N01341006901CN0160001N9-00501-00781101551ADDAA199002091AY181999GA1051+006909099GF105991051091008001001001IA1189KA1999N-00501MD1110401+9999MW1261
0073011520999991953030309004+67283+014417FM-12+001399999V0203301N01341006001CN0020001N9-00501-00781101781ADDAY181999GA1051+006009099GF105991051091008001001001MD1310231+9999MW1861
0073011520999991953030312004+67283+014417FM-12+001399999V0203301N01031007501CN0160001N9-00221-00611102021ADDAY181999GA1061+007509099GF106991061091008001001001MD1210241+9999MW1151
0073011520999991953030315004+67283+014417FM-12+001399999V0203201N00821007501CN0160001N9-00281-00501102141ADDAY181999GA1061+007509099GF106991061091008001001001MD1210121+9999MW1271
0087011520999991953030318004+67283+014417FM-12+001399999V0203301N00411007801CN0160001N9-00221-00611101991ADDAA199001091AY121999GF107991071091008001001001IA1189KA1999M-00221MD1710151+9999MW1151
0057011520999991953030400004+67283+014417FM-12+001399999V0201901N005119999999N0200001N9-00111-00391101551ADDAY121999GF105991021071008001021011MD1810221+9999MW1021
0076011520999991953030403004+67283+014417FM-12+001399999V0200901N00821007801CN0150001N9-00281-00391101191ADDAY121999GF108991999051008001021999MD1810361+9999MW1031EQDQ01+000082SCOTLC
0122011520999991953030406004+67283+014417FM-12+001399999V0200901N00931015001CN0150001N9-00221-00501101021ADDAA199000691AY121999GA1081+015009049GF108991999001017501021999IA1189KA1999N-00281MD1610171+9999MW1151EQDQ01+000002SCOTLC
0108011520999991953030409004+67283+014417FM-12+001399999V0200901N00771015001CN0200001N9-00111-00611101181ADDAY121999GA1061+015009049GF107991021071008001021999MD1210161+9999MW1151EQDQ01+000042APCTENQ02+000162APC3  
0092011520999991953030412004+67283+014417FM-12+001399999V0200801N00821220001CN0700001N9+00001-00611101381ADDAY121999GA1021+027009039GF102991999001999999031011MD1210201+9999MW1011EQDQ01+000002SCOTLC
0057011520999991953030415004+67283+014417FM-12+001399999V0200801N00511220001CN0700001N9+00001-00611101681ADDAY101999GF102991001001999999001051MD1210301+9999MW1031
0076011520999991953030418004+67283+014417FM-12+001399999V0200901N00511220001CN0600001N9-00111-00611101861ADDAY101999GF103991001001999999001051IA1189KA1999M+00111MD1210181+9999MW1021
0057011520999991953030500004+67283+014417FM-12+001399999V0200901N00721012301CN0400001N9-00111-00611101811ADDAY101999GF108991071051012501021999MD1990051+9999MW1031
0076011520999991953030503004+67283+014417FM-12+001399999V0202101N00931007801CN0160001N9+00111-00221101541ADDAY121999GF108991999071008001021999MD1710271+9999MW1601EQDQ01+000082SCOTLC
0103011520999991953030506004+67283+014417FM-12+001399999V0202301N01231006301CN0160001N9+00391+00281101481ADDAA199000691AY161999GA1071+006309059GF108991071051008001021999IA1189KA1999N-00281MD1710061+9999MW1151
0073011520999991953030509004+67283+014417FM-12+001399999V0202301N01341220001CN0160001N9+00501+00391101691ADDAY121999GA1041+007509059GF108991041081008001071999MD1210211+9999MW1151
0073011520999991953030512004+67283+014417FM-12+001399999V0202301N00931004501CN0150001N9+00501+00391101761ADDAY121999GA1061+004509079GF108991061061004501021999MD1210071+9999MW1151
0073011520999991953030515004+67283+014417FM-12+001399999V0202301N01031006901CN0150001N9+00501+00391101741ADDAY161999GA1061+006909079GF108991061061004501021999MD1710021+9999MW1211
0087011520999991953030518004+67283+014417FM-12+001399999V0202401N01231004501CN0100001N9+00391+00281101491ADDAA199002091AY161999GF108991081061004501999999IA1189KA1999M+00501MD1810251+9999MW1631
0057011520999991953030600004+67283+014417FM-12+001399999V0202301N01231004501CN0100001N9+00501+00391100951ADDAY161999GF108991071071004501021999MD1710301+9999MW1631
0057011520999991953030603004+67283+014417FM-12+001399999V0202301N01541004501CN0090001N9+00611+00501100441ADDAY161999GF108991071071004501021999MD1810511+9999MW1631
0103011520999991953030606004+67283+014417FM-12+001399999V0202301N01541003601CN0090001N9+00611+00501100071ADDAA199020091AY161999GA1071+003609079GF108991071071004501021999IA1189KA1999N+00221MD1810371+9999MW1631
0073011520999991953030609004+67283+014417FM-12+001399999V0202301N02061003301CN0090001N9+00611+00501099721ADDAY161999GA1071+003309079GF108991071071004501021999MD1810351+9999MW1631
0073011520999991953030612004+67283+014417FM-12+001399999V0202401N01951004501CN0040001N9+00611+00501099391ADDAY161999GA1071+004509079GF108991071071004501021999MD1710331+9999MW1631
0108011520999991953030615004+67283+014417FM-12+001399999V0202601N01541004501CN0100001N9+00391+00281099401ADDAY161999GA1051+004509099GF107991051091004501051999MD1210011+9999MW1601EQDQ01+000042APCTENQ02+000012APC3  
0087011520999991953030618004+67283+014417FM-12+001399999V0202901N01231004501CN0140001N9+00221+00001099621ADDAA199011091AY181999GF107991051091004501061001IA1189KA1999M+00721MD1210221+9999MW1151
0057011520999991953030700004+67283+014417FM-12+001399999V0203401N00721002401CN0080001N9-00111-00221100121ADDAY181999GF109991091999002501999999MD1310251+9999MW1861
0057011520999991953030703004+67283+014417FM-12+001399999V0203201N01081007801CN0200001N9+00001-00501100571ADDAY181999GF108991081091008001999999MD1310451+9999MW1151
0103011520999991953030706004+67283+014417FM-12+001399999V0203201N01081220001CN0400001N9-00111-00611101051ADDAA199000391AY121999GA1031+009609099GF103991031091008001001001IA1189KA1999N-00391MD1310481+9999MW1151
0073011520999991953030709004+67283+014417FM-12+001399999V0203201N00621009001CN0400001N9-00221-00501101471ADDAY181999GA1051+009009099GF105991051091008001001001MD1310421+9999MW1271
0073011520999991953030712004+67283+014417FM-12+001399999V0203001N00621009901CN0200001N9-00111-00721101721ADDAY111999GA1061+009909099GF106991061091008001001001MD1110251+9999MW1151
0108011520999991953030715004+67283+014417FM-12+001399999V0202501N00621220001CN0200001N9+00001-00501101831ADDAY181999GA1031+009909099GA2031+013509059GF106991999091008001001001MD1210111+9999MW1151EQDQ01+000032SCOTLC
0087011520999991953030718004+67283+014417FM-12+001399999V0202201N01131004501CN0140001N9+00001-00221101681ADDAA199000691AY181999GF107991071091004501001001IA1189KA1999M+00001MD1710151+9999MW1851
0076011520999991953030800004+67283+014417FM-12+001399999V0202301N018519999999N0100001N9+00221+00111100791ADDAY171999GF108991041071004501021999MD1810602+9999MW1631EQDQ01+000602APC3  
0057011520999991953030803004+67283+014417FM-12+001399999V0202401N01801004501CN0090001N9+00391+00281100491ADDAY161999GF108991071071004501021999MD1710301+9999MW1631
0122011520999991953030806004+67283+014417FM-12+001399999V0202701N00931007801CN0150001N9+00281+00221100611ADDAA199019091AY161999GF108991061071008001021999IA1189KA1999N+00111MD1210121+9999MW1211EQDQ01+000042APCTENQ02+000122APC3  
0057011520999991953030809004+67283+014417FM-12+001399999V0202301N01081004501CN0150001N9+00391+00001100711ADDAY161999GF108991071071004501021999MD1210101+9999MW1621
0057011520999991953030812004+67283+014417FM-12+001399999V0202401N00871001501CN0090001N9+00391+00281100691ADDAY161999GF108991071061001501021999MD1710021+9999MW1621
0057011520999991953030815004+67283+014417FM-12+001399999V0202401N00931004501CN0080001N9+00391+00391100521ADDAY161999GF108991081061004501999999MD1610171+9999MW1621
0087011520999991953030818004+67283+014417FM-12+001399999V0202401N01031004501CN0028001N9+00501+00501100191ADDAA199006091AY161999GF108991081061004501999999IA1189KA1999M+00611MD1710331+9999MW1631
0057011520999991953030900004+67283+014417FM-12+001399999V0202401N02061007801CN0160001N9+00391+00111099521ADDAY181999GF107991071081008001999999MD1710481+9999MW1251
0057011520999991953030903004+67283+014417FM-12+001399999V0202401N01541004501CN0080001N9+00281+00221098931ADDAY181999GF108991081081004501999999MD1810591+9999MW1811
0138011520999991953030906004+67283+014417FM-12+001399999V0203001N02261003901CN0080001N9+00001-00221099741ADDAA199004091AY181999GA1071+003909079GF108991071071004501021999IA1189KA1999N+00001MD1210811+9999MW1701EQDQ01+000042APCTENQ02+000812APC3  
0073011520999991953030909004+67283+014417FM-12+001399999V0203001N01751004501CN0140001N9+00001-00391100661ADDAY171999GA1071+004509079GF108991071071004501021999MD1310921+9999MW1151
0073011520999991953030912004+67283+014417FM-12+001399999V0203201N00721007501CN0150001N9-00221-00501101401ADDAY181999GA1071+007509099GF107991071091008001001001MD1310741+9999MW1261
0073011520999991953030915004+67283+014417FM-12+001399999V0203601N00931009001CN0150001N9-00111-00611101741ADDAY121999GA1071+009009099GF107991071091008001001001MD1210341+9999MW1871
0106011520999991953030918004+67283+014417FM-12+001399999V0203401N01031007801CN0140001N9-00721+99999102201ADDAA199000591AY181999GF107991071091008001001001IA1189KA1999M+00001MD1310461+9999MW1871EQDQ01+026812ATOD  
0057011520999991953031000004+67283+014417FM-12+001399999V0203201N00511220001CN0200001N9-00111-00501102751ADDAY181999GF104991041091008001001001MD1310271+9999MW1261
0057011520999991953031003004+67283+014417FM-12+001399999V0202501N00511007801CN0200001N9-00111-00281102811ADDAY181999GF108991081091008001999999MD1010061+9999MW1151
0122011520999991953031006004+67283+014417FM-12+001399999V0202101N00411006001CN0150001N9-00111-00281102621ADDAA199000691AY181999GA1071+006009079GF108991999071008001021999IA1189KA1999N-00281MD1810191+9999MW1701EQDQ01+000082SCOTLC
0073011520999991953031009004+67283+014417FM-12+001399999V0200901N00821003601CN0090001N9-00221-00281102371ADDAY171999GA1061+003609079GF108991061071004501021999MD1810251+9999MW1711
0073011520999991953031012004+67283+014417FM-12+001399999V0200901N00931003001CN0050001N9-00221-00281102191ADDAY171999GA1081+003009079GF108991081071004501999999MD1710181+9999MW1711
0073011520999991953031015004+67283+014417FM-12+001399999V0201001N00621002701CN0080001N9-00111-00111101931ADDAY171999GA1061+002709079GF108991061071002501021999MD1710251+9999MW1711
0087011520999991953031018004+67283+014417FM-12+001399999V0201101N00411001501CN0060001N9+00001+00001101751ADDAA199009091AY171999GF108991071071001501021999IA1189KA1999M+00001MD1710181+9999MW1681
0078011520999991953031100004+67283+014417FM-12+001399999V0201001N00511007801CN0140001N9+00111+00111101661ADDAY161999GF108991061051008001021999MW1021EQDQ01+000032APCTENQ02+000002APC3  
0057011520999991953031103004+67283+014417FM-12+001399999V0201001N00461007801CN0140001N9+00111+00111101671ADDAY161999GF108991061051008001021999MD1310011+9999MW1151
0103011520999991953031106004+67283+014417FM-12+001399999V0201101N00511009901CN0150001N9+00111+00001101791ADDAA199005091AY121999GA1061+009909059GF108991061051008001021999IA1009KA1999N+00001MD1310121+9999MW1021
0073011520999991953031109004+67283+014417FM-12+001399999V0201101N00511006001CN0160001N9+00221+00111101921ADDAY161999GA1071+006009059GF108991071051008001021999MD1310131+9999MW1211
0073011520999991953031112004+67283+014417FM-12+001399999V0201101N00461006001CN0200001N9+00221+00111102051ADDAY161999GA1071+006009059GF108991071051008001021999MD1310131+9999MW1021
0073011520999991953031115004+67283+014417FM-12+001399999V0201101N00411006001CN0130001N9+00221+00221102121ADDAY161999GA1071+006009059GF108991071051008001021999MD1210071+9999MW1601
0087011520999991953031118004+67283+014417FM-12+001399999V0203001N00621007801CN0140001N9+00281+00281102221ADDAA199005091AY161999GF108991061051008001021999IA1009KA1999M+00391MD1210101+9999MW1601
0057011520999991953031200004+67283+014417FM-12+001399999V0202101N00261220001CN0200001N9+00221+00111102521ADDAY161999GF104991041051008001001001MD1110101+9999MW1011
0057011520999991953031203004+67283+014417FM-12+001399999V0202301N00411220001CN0400001N9+00221+00111102471ADDAY111999GF101991011051012501041001MD1990061+9999MW1011
0103011520999991953031206004+67283+014417FM-12+001399999V0201901N00511012901CN0600001N9+00221-00111102331ADDAA199001091AY101999GA1051+012909059GF107991051051012501041051IA1189KA1999N+00111MD1810141+9999MW1031
0092011520999991953031209004+67283+014417FM-12+001399999V0201801N00821009901CN0140001N9+00111+00001102171ADDAY121999GA1081+009909049GF108991999001008001021999MD1710161+9999MW1691EQDQ01+000002SCOTLC
0089011520999991953031212004+67283+014417FM-12+001399999V0202101N00571006301CN0200001N9+00221+00221101951ADDAY171999GA1071+006309059GA2011+002409079GF108991071051008001021999MD1510221+9999MW1501
0073011520999991953031215004+67283+014417FM-12+001399999V0202401N01341009001CN0130001N9+00501+00281101931ADDAY121999GA1071+009009059GF107991071051008001001001MD1710021+9999MW1151
0087011520999991953031218004+67283+014417FM-12+001399999V0202401N01391002401CN0080001N9+00501+00281102041ADDAA199002091AY161999GF108991071071002501021999IA1189KA1999M+00611MD1210111+9999MW1631
0057011520999991953031300004+67283+014417FM-12+001399999V0202101N00931007801CN0160001N9+00391+00281102341ADDAY161999GF108991071071008001021999MD1110011+9999MW1151
0057011520999991953031303004+67283+014417FM-12+001399999V0202301N01131007801CN0150001N9+00501+00221102001ADDAY121999GF108991071071008001021999MD1990341+9999MW1151
0103011520999991953031306004+67283+014417FM-12+001399999V0202401N01751006001CN0100001N9+00501+00111101841ADDAA199001091AY161999GA1081+006009059GF108991081051008001999999IA1189KA1999N+00391MD1510161+9999MW1621
0073011520999991953031309004+67283+014417FM-12+001399999V0202301N01441003301CN0090001N9+00501+00281101861ADDAY161999GA1071+003309079GF108991071071004501021999MD1210021+9999MW1581
0073011520999991953031312004+67283+014417FM-12+001399999V0202301N01341003301CN0090001N9+00391+00281101791ADDAY161999GA1061+003309079GF108991061071004501021999MD1710071+9999MW1631
0073011520999991953031315004+67283+014417FM-12+001399999V0202301N01441006001CN0100001N9+00611+00391101451ADDAY161999GA1061+006009059GF108991061051008001021999MD1710341+9999MW1631
0087011520999991953031318004+67283+014417FM-12+001399999V0202301N01951007801CN0100001N9+00611+00391100911ADDAA199013091AY161999GF108991071051008001021999IA1189KA1999M+00611MD1710541+9999MW1631
0076011520999991953031400004+67283+014417FM-12+001399999V0202601N01441007801CN0150001N9+00391+00111101561ADDAY161999GF107991071051008001999999MD1310602+9999MW1011EQDQ01+000602APC3  
0057011520999991953031403004+67283+014417FM-12+001399999V0202601N01081007801CN0150001N9+00281+00001101851ADDAY161999GF107991071051008001999999MD1310291+9999MW1021
0103011520999991953031406004+67283+014417FM-12+001399999V0202701N01081006001CN0140001N9+00281+00001102181ADDAA199002091AY161999GA1051+006009079GF106991051071008001011001IA1109KA1999N+00221MD1310331+9999MW1601
0073011520999991953031409004+67283+014417FM-12+001399999V0202601N00621220001CN0200001N9+00391+00111102401ADDAY161999GA1031+007509059GF106991031051008001061071MD1210221+9999MW1021
0073011520999991953031412004+67283+014417FM-12+001399999V0202501N00571220001CN0160001N9+00391+00111102431ADDAY121999GA1041+007209059GF108991051081008001001071MD1010031+9999MW1101
0073011520999991953031415004+67283+014417FM-12+001399999V0209991C00001006001CN0080001N9+00221+00001102281ADDAY171999GA1081+006009049GF108991081001008001021999MD1990151+9999MW1681
0106011520999991953031418004+67283+014417FM-12+001399999V0200901N00721000601CN0012001N9+00111+00111101971ADDAA199004091AY171999GF108991999071000751021999IA1189KA1999M+00391MD1710311+9999MW1691EQDQ01+000082SCOTLC
0057011520999991953031500004+67283+014417FM-12+001399999V0202301N01951004501CN0140001N9+00611+00501101901ADDAY161999GF108991081071004501999999MD1710071+9999MW1211
0076011520999991953031503004+67283+014417FM-12+001399999V0202301N01851002401CN0050001N9+00501+00391101901ADDAY161999GF108991081061002501999999MD1410001+9999MW1601EQDQ01+000022APCTEN
0122011520999991953031506004+67283+014417FM-12+001399999V0202501N00821001501CN0040001N9+00501+00501102121ADDAA199006091AY161999GF108991081061001501999999IA1109KA1999N+00001MD1210221+9999MW1501EQDQ01+000042APCTENQ02+000222APC3  
0057011520999991953031509004+67283+014417FM-12+001399999V0202401N00931001501CN0008001N9+00501+00501102201ADDAY161999GF108991081061001501999999MD1210081+9999MW1501
0057011520999991953031512004+67283+014417FM-12+001399999V0203001N01081001501CN0010001N9+00611+00611102281ADDAY161999GF108991081061001501999999MD1210081+9999MW1611
0057011520999991953031515004+67283+014417FM-12+001399999V0202401N01341001501CN0018001N9+00611+00611102321ADDAY161999GF108991081061001501999999MD1210041+9999MW1611
0087011520999991953031518004+67283+014417FM-12+001399999V0202401N01231001501CN0038001N9+00611+00611102421ADDAA199012091AY161999GF108991081061001501999999IA1109KA1999M+00611MD1310101+9999MW1611
0057011520999991953031600004+67283+014417FM-12+001399999V0202401N00721001501CN0040001N9+00611+00611102591ADDAY151999GF108991081061001501999999MD1310081+9999MW1511
0057011520999991953031603004+67283+014417FM-12+001399999V0202101N00931001501CN0060001N9+00501+00501102661ADDAY161999GF108991081061001501999999MD1310071+9999MW1611
0103011520999991953031606004+67283+014417FM-12+001399999V0202301N00931220001CN0140001N9+00501+00501102731ADDAA199009091AY161999GA1031+009909079GF108991031071008001021999IA1109KA1999N+00391MD1310071+9999MW1211
0089011520999991953031609004+67283+014417FM-12+001399999V0202401N00511027001CN0200001N9+00611+00281102771ADDAY121999GA1071+027009039GA2011+007209079GF108991011061008001071071MD1210041+9999MW1021
0092011520999991953031612004+67283+014417FM-12+001399999V0202301N00211220001CN0200001N9+00611+00221102741ADDAY121999GA1031+027009039GF104991999001999999031001MD1710031+9999MW1011EQDQ01+000002SCOTLC
0092011520999991953031615004+67283+014417FM-12+001399999V0201601N00151024001CN0200001N9+00721+00111102601ADDAY121999GA1061+024009039GF106991999001999999031001MD1710141+9999MW1011EQDQ01+000002SCOTLC
0087011520999991953031618004+67283+014417FM-12+001399999V0201101N00411220001CN0200001N9+00501+00111102361ADDAA199000691AY121999GF106991001001999999071071IA1109KA1999M+00781MD1710241+9999MW1021
0057011520999991953031700004+67283+014417FM-12+001399999V0201101N00821012301CN0600001N9+00391+00111102041ADDAY101999GF107991071051012501001001MD1990151+9999MW1031
0057011520999991953031703004+67283+014417FM-12+001399999V0201101N00671220001CN0600001N9+00391+00001101871ADDAY101999GF102991021051012501001001MD1710171+9999MW1011
0092011520999991953031706004+67283+014417FM-12+001399999V0202301N00821013501CN0150001N9+00501+00221101851ADDAY101999GA1071+013509059GF108991071051012501041071IA1109KA1999N+00221MD1710021+9999MW1151
0073011520999991953031709004+67283+014417FM-12+001399999V0202401N00821008401CN0100001N9+00501+00221101801ADDAY161999GA1051+008409079GF108991051071008001021999MD1710051+9999MW1601
0073011520999991953031712004+67283+014417FM-12+001399999V0202101N01031220001CN0140001N9+00611+00391101621ADDAY161999GA1031+009009089GF106991041081008001021001MD1710181+9999MW1211
0073011520999991953031715004+67283+014417FM-12+001399999V0202401N01131006601CN0150001N9+00391+00281101691ADDAY161999GA1051+006609089GF107991071081008001999999MD1510071+9999MW1151
0087011520999991953031718004+67283+014417FM-12+001399999V0202601N01441007801CN0140001N9+00391+00111101511ADDAA199003091AY181999GF107991071091008001999999IA1109KA1999M+00611MD1710101+9999MW1271
0057011520999991953031800004+67283+014417FM-12+001399999V0202801N01651220001CN0200001N9+00221-00281102281ADDAY181999GF103991031021008001001001MD1310491+9999MW1011
0103011520999991953031806004+67283+014417FM-12+001399999V0203101N01131220001CN0160001N9+00111-00501102971ADDAA199000591AY111999GA1041+009909059GF106991051081012501061011IA1139KA1999N+00111MD1210341+9999MW1031
0073011520999991953031809004+67283+014417FM-12+001399999V0203001N00931006901CN0160001N9+00111-00501103201ADDAY121999GA1051+006909059GF108991051081008001071999MD1210231+9999MW1021
0073011520999991953031812004+67283+014417FM-12+001399999V0202801N00721009001CN0160001N9+00221-00281103341ADDAY121999GA1061+009009059GF108991081081008001999999MD1210141+9999MW1021
0073011520999991953031815004+67283+014417FM-12+001399999V0202901N00621220001CN0200001N9+00281-00111103381ADDAY121999GA1041+009009059GF108991061081008001011999MD1010041+9999MW1021
0076011520999991953031818004+67283+014417FM-12+001399999V0202401N00511007801CN0160001N9+00281+00001103321ADDAY121999GF108991051051008001021999IA1089KA1999M+00281MD1710061+9999MW1601
0057011520999991953031900004+67283+014417FM-12+001399999V0202401N01131004501CN0100001N9+00391+00281103161ADDAY161999GF108991081071004501999999MD1810081+9999MW1601
0057011520999991953031903004+67283+014417FM-12+001399999V0202401N01131004501CN0090001N9+00391+00281103141ADDAY161999GF108991081071004501999999MD1710021+9999MW1501
0103011520999991953031906004+67283+014417FM-12+001399999V0202401N00931006001CN0160001N9+00391+00281103091ADDAA199001091AY161999GA1071+006009059GF108991071051008001021999IA1109KA1999N+00221MD1710051+9999MW1151
0073011520999991953031909004+67283+014417FM-12+001399999V0202401N00771006001CN0200001N9+00391+00221103161ADDAY121999GA1071+006009059GF108991071051008001021999MD1210071+9999MW1601
0073011520999991953031912004+67283+014417FM-12+001399999V0202401N00571009001CN0400001N9+00391+00281103211ADDAY161999GA1071+009009059GF107991071051008001999999MD1210051+9999MW1211
