0095011520999991951010106004+67283+014417FM-12+001399999V0200901N00721220001CN0700001N9-00891-01391100691ADDAY101999GF102991999001999999031001IA1199KA1999N-01111MD1310021+9999MW1021EQDQ01+000002SCOTLC
0057011520999991951010109004+67283+014417FM-12+001399999V0200901N00721220001CN0700001N9-00781-01391100731ADDAY101999GF101991011061012501001001MD1310041+9999MW1011
0076011520999991951010112004+67283+014417FM-12+001399999V0200901N00821220001CN0700001N9-00781-01281100781ADDAY111999GF101991999001022501081001MD1210051+9999MW1031EQDQ01+000002SCOTLC
0076011520999991951010115004+67283+014417FM-12+001399999V0200901N00621220001CN0700001N9-00781-01281100861ADDAY101999GF101991999001999999041001MD1210081+9999MW1021EQDQ01+000002SCOTLC
0076011520999991951010118004+67283+014417FM-12+001399999V0200901N00721220001CN0700001N9-00781-01281100931ADDAY101999GF100991001001999999001001IA1199KA1999M-00781MD1210071+9999MW1001
0057011520999991951010200004+67283+014417FM-12+001399999V0200901N00981220001CN0700001N9-00721-01281101011ADDAY101999GF102991001001999999001051MD1710041+9999MW1001
0057011520999991951010203004+67283+014417FM-12+001399999V0200901N01291220001CN0700001N9-00781-01281100951ADDAY101999GF102991001001999999001051MD1710061+9999MW1021
0095011520999991951010206004+67283+014417FM-12+001399999V0201101N00981220001CN0700001N9-00781-01391100951ADDAY101999GF100991001001999999001001IA1199KA1999N-01001MD1410001+9999MW1021EQDQ01+000032APCTEN
0057011520999991951010209004+67283+014417FM-12+001399999V0201401N01131220001CN0600001N9-00781-01391100911ADDAY101999GF102991011081012501041001MD1710041+9999MW1021
0057011520999991951010212004+67283+014417FM-12+001399999V0200901N00511220001CN0600001N9-00781-01281100891ADDAY111999GF102991021081012501001001MD1710021+9999MW1021
0057011520999991951010215004+67283+014417FM-12+001399999V0201401N00721220001CN0600001N9-00781-01281100951ADDAY101999GF103991011081017501041001MD1210061+9999MW1021
0111011520999991951010218004+67283+014417FM-12+001399999V0200901N007219999999N0400001N9-00721-01221101081ADDAY111999GF108991031081012501071999IA1199KA1999M-00721MD1210131+9999MW1031EQDQ01+000042APCTENQ02+000132APC3  
0057011520999991951010300004+67283+014417FM-12+001399999V0200901N007219999999N0400001N9-00781-01111101231ADDAY121999GF108991041081008001021999MD1210081+9999MW1021
0057011520999991951010303004+67283+014417FM-12+001399999V0200901N007219999999N0400001N9-00781-01221101271ADDAY121999GF108991041081008001021999MD1210041+9999MW1021
0076011520999991951010306004+67283+014417FM-12+001399999V0200701N007219999999N0400001N9-00781-01221101341ADDAY121999GF108991041081008001021999IA1199KA1999N-01001MD1210071+9999MW1021
0073011520999991951010309004+67283+014417FM-12+001399999V0200901N00621002701CN0040001N9-00781-01111101471ADDAY171999GA1051+002709049GF108991061061012501021999MD1210131+9999MW1701
0057011520999991951010312004+67283+014417FM-12+001399999V0201101N00721001501CN0024001N9-00721-00781101541ADDAY171999GF109991091999001501999999MD1210071+9999MW1711
0076011520999991951010315004+67283+014417FM-12+001399999V0200901N00511001501CN0040001N9-00721-00781101561ADDAY171999GF108991999071001501021999MD1210021+9999MW1711EQDQ01+000082SCOTLC
0087011520999991951010318004+67283+014417FM-12+001399999V0200901N00621004501CN0160001N9-00611-01111101581ADDAA199000391AY171999GF106991051081004501071001IA1199KA1999M-00611MD1210021+9999MW1011
0057011520999991951010400004+67283+014417FM-12+001399999V0200901N00721220001CN0700001N9-00721-01221101601ADDAY111999GF103991001001999999001051MD1710021+9999MW1001
0057011520999991951010403004+67283+014417FM-12+001399999V0200901N00721220001CN0700001N9-00721-01221101571ADDAY101999GF103991001001999999001051MD1710031+9999MW1021
0076011520999991951010406004+67283+014417FM-12+001399999V0200701N00821220001CN0700001N9-00781-01281101491ADDAY101999GF103991001001999999001051IA1199KA1999N-00891MD1710081+9999MW1021
0057011520999991951010409004+67283+014417FM-12+001399999V0200501N00621220001CN0400001N9-00721-01221101361ADDAY101999GF102991011061012501001051MD1990131+9999MW1101
0057011520999991951010412004+67283+014417FM-12+001399999V0200901N00931220001CN0400001N9-00781-01281101201ADDAY111999GF101991011081012501041001MD1710161+9999MW1101
0076011520999991951010415004+67283+014417FM-12+001399999V0201101N00871220001CN0600001N9-00781-01281101091ADDAY101999GF101991999001999999041001MD1710111+9999MW1021EQDQ01+000002SCOTLC
0076011520999991951010418004+67283+014417FM-12+001399999V0200901N00721220001CN0600001N9-00891-01281100931ADDAY101999GF100991001001999999001001IA1199KA1999M-00611MD1710161+9999MW1001
0057011520999991951010500004+67283+014417FM-12+001399999V0200901N00511220001CN0600001N9-00891-01221100791ADDAY101999GF103991001001999999001051MD1710081+9999MW1021
0057011520999991951010503004+67283+014417FM-12+001399999V0200901N00511220001CN0600001N9-00891-01221100701ADDAY101999GF104991001001999999041051MD1710091+9999MW1021
0076011520999991951010506004+67283+014417FM-12+001399999V0200901N004119999999N0600001N9-00891-01111100621ADDAY101999GF105991021081012501001051IA1199KA1999N-01111MD1710081+9999MW1031
0057011520999991951010509004+67283+014417FM-12+001399999V0201401N00511007801CN0400001N9-00781-00891100601ADDAY111999GF108991061081008001011999MD1710021+9999MW1151
0057011520999991951010512004+67283+014417FM-12+001399999V0200901N005119999999N0200001N9-00781-00891100621ADDAY111999GF106991031091012501051001MD1210021+9999MW1151
0057011520999991951010515004+67283+014417FM-12+001399999V0200901N004119999999N0400001N9-00781-00891100631ADDAY121999GF105991031081008001051001MD1210011+9999MW1151
0076011520999991951010518004+67283+014417FM-12+001399999V0200901N00511220001CN0400001N9-00781-01001100691ADDAY101999GF102991011081012501051001IA1199KA1999M-00721MD1310061+9999MW1011
0057011520999991951010600004+67283+014417FM-12+001399999V0200901N00511220001CN0400001N9-00891-01001100801ADDAY101999GF103991021081012501031001MD1210061+9999MW1021
0057011520999991951010603004+67283+014417FM-12+001399999V0200901N00511220001CN0400001N9-00891-01001100881ADDAY101999GF103991031081012501041001MD1210081+9999MW1021
0076011520999991951010606004+67283+014417FM-12+001399999V0200901N00511220001CN0400001N9-00891-01001100921ADDAY101999GF103991021081012501041001IA1199KA1999N-01001MD1210041+9999MW1021
0076011520999991951010609004+67283+014417FM-12+001399999V0201401N00511220001CN0600001N9-00891-01001101011ADDAY101999GF101991999001999999061001MD1210091+9999MW1011EQDQ01+000002SCOTLC
0073011520999991951010612004+67283+014417FM-12+001399999V0200901N00511220001CN0600001N9-00781-00891101111ADDAY111999GA1011+009909079GF101991011081017501001001MD1310101+9999MW1021
0057011520999991951010615004+67283+014417FM-12+001399999V0201101N00621220001CN0600001N9-00781-00891101201ADDAY121999GF104991031081012501071001MD1310091+9999MW1031
0076011520999991951010618004+67283+014417FM-12+001399999V0201101N005119999999N0400001N9-00611-00721101241ADDAY111999GF106991041081012501071001IA1199KA1999M-00611MD1210041+9999MW1021
0057011520999991951010700004+67283+014417FM-12+001399999V0200901N00511220001CN0400001N9-00391-00721101091ADDAY111999GF104991041091008001001001MD1710091+9999MW1021
0057011520999991951010703004+67283+014417FM-12+001399999V0200901N00511000601CN0004001N9-00391-00391101021ADDAY171999GF109991091999000751999999MD1710071+9999MW1731
0087011520999991951010706004+67283+014417FM-12+001399999V0200901N00411001501CN0010001N9-00281-00281100971ADDAA199005091AY171999GF109991091999001501999999IA1319KA1999N-00721MD1710051+9999MW1771
0057011520999991951010709004+67283+014417FM-12+001399999V0200901N00411004501CN0200001N9-00281-00281100931ADDAY171999GF108991061091004501061999MD1710041+9999MW1151
0057011520999991951010712004+67283+014417FM-12+001399999V0201801N00311007801CN0400001N9-00111-00221100801ADDAY111999GF106991051081008001061001MD1710131+9999MW1151
0057011520999991951010715004+67283+014417FM-12+001399999V0201801N00721004501CN0120001N9-00111-00221100531ADDAY181999GF108991081091004501999999MD1710271+9999MW1851
0087011520999991951010718004+67283+014417FM-12+001399999V0202301N00981001501CN0040001N9-00111-00221100311ADDAA199001091AY181999GF108991081091001501999999IA1319KA1999M-00111MD1710221+9999MW1851
0057011520999991951010800004+67283+014417FM-12+001399999V0202301N00621004501CN0120001N9-00111-00221100211ADDAY181999GF108991081091004501999999MD1990021+9999MW1151
0076011520999991951010803004+67283+014417FM-12+001399999V0203201N00411004501CN0150001N9+00001-00281100211ADDAY181999GF107991071091004501999999MD1410001+9999MW1151EQDQ01+000022APCTEN
0087011520999991951010806004+67283+014417FM-12+001399999V0200201N00211220001CN0160001N9-00111-00281100201ADDAA199004091AY181999GF103991031091008001001001IA1319KA1999N-00281MD1710011+9999MW1011
0057011520999991951010809004+67283+014417FM-12+001399999V0200201N00101007801CN0400001N9-00391-00721100311ADDAY121999GF107991051091008001061001MD1210111+9999MW1151
0057011520999991951010812004+67283+014417FM-12+001399999V0200701N00411220001CN0600001N9-00501-00611100421ADDAY111999GF103991031081012501001001MD1210111+9999MW1011
0073011520999991951010815004+67283+014417FM-12+001399999V0200901N00511220001CN0600001N9-00611-00721100441ADDAY111999GA1011+002709079GF102991021091008001001001MD1310021+9999MW1021
0076011520999991951010818004+67283+014417FM-12+001399999V0201401N00411220001CN0400001N9-00611-00721100451ADDAY111999GF104991041091008001001001IA1319KA1999M-00111MD1210011+9999MW1151
0057011520999991951010900004+67283+014417FM-12+001399999V0201401N00511004501CN0140001N9-00501-00611100331ADDAY181999GF107991051091004501061999MD1210021+9999MW1851
0057011520999991951010903004+67283+014417FM-12+001399999V0201401N00411004501CN0160001N9-00611-00721100561ADDAY181999GF108991081091004501999999MD1210231+9999MW1151
0087011520999991951010906004+67283+014417FM-12+001399999V0200901N00511004501CN0160001N9-00501-00611100521ADDAA199002091AY181999GF105991051091004501001001IA1319KA1999N-00721MD1710041+9999MW1151
0057011520999991951010909004+67283+014417FM-12+001399999V0201101N00621001501CN0020001N9-00501-00611100581ADDAY181999GF108991081091001501999999MD1210061+9999MW1851
0057011520999991951010912004+67283+014417FM-12+001399999V0200901N00511004501CN0090001N9-00501-00611100631ADDAY171999GF108991081001004501999999MD1210051+9999MW1731
0073011520999991951010915004+67283+014417FM-12+001399999V0200901N00511220001CN0400001N9-00501-00611100621ADDAY111999GA1011+003909079GF105991041061012501061001MD1710011+9999MW1151
0087011520999991951010918004+67283+014417FM-12+001399999V0200901N00621220001CN0200001N9-00501-00721100591ADDAA199004091AY121999GF103991031061008001001001IA1319KA1999M-00501MD1810031+9999MW1151
0057011520999991951011000004+67283+014417FM-12+001399999V0200901N00511007801CN0200001N9-00501-00781100631ADDAY121999GF108991071071008001021999MD1210021+9999MW1151
0092011520999991951011003004+67283+014417FM-12+001399999V0200901N00511007801CN0200001N9-00501-00781100631ADDAY121999GF108991999071008001021999MD1410001+9999MW1021EQDQ01+000082SCOTLCQ02+000022APCTEN
0095011520999991951011006004+67283+014417FM-12+001399999V0200901N00621007801CN0200001N9-00391-00781100571ADDAY121999GF108991999071008001021999IA1319KA1999N-00721MD1710061+9999MW1021EQDQ01+000082SCOTLC
0057011520999991951011009004+67283+014417FM-12+001399999V0200901N00721007801CN0200001N9-00501-00611100651ADDAY121999GF108991051091008001021999MD1210081+9999MW1151
0057011520999991951011012004+67283+014417FM-12+001399999V0200901N00511007801CN0160001N9-00391-00501100701ADDAY121999GF108991051091008001021999MD1210051+9999MW1151
0057011520999991951011015004+67283+014417FM-12+001399999V0201101N00621012301CN0600001N9-00391-00611100641ADDAY111999GF107991061051012501061001MD1710061+9999MW1021
0087011520999991951011018004+67283+014417FM-12+001399999V0201401N005119999999N0600001N9-00391-00721100611ADDAA199000691AY111999GF106991041061012501061001IA1319KA1999M-00281MD1710031+9999MW1031
0076011520999991951011100004+67283+014417FM-12+001399999V0201401N00511007801CN0400001N9-00281-00501100581ADDAY121999GF108991999071008001021999MD1710021+9999MW1021EQDQ01+000082SCOTLC
0057011520999991951011103004+67283+014417FM-12+001399999V0201401N00621012301CN0400001N9-00281-00391100451ADDAY111999GF106991061091012501001001MD1710131+9999MW1011
0076011520999991951011106004+67283+014417FM-12+001399999V0200701N00511220001CN0400001N9-00221-00501100311ADDAY111999GF102991021081017501041001IA1319KA1999N-00501MD1610141+9999MW1011
0057011520999991951011109004+67283+014417FM-12+001399999V0201101N00721220001CN0700001N9-00281-00781100221ADDAY101999GF101991011081017501001001MD1610091+9999MW1021
0057011520999991951011112004+67283+014417FM-12+001399999V0201101N00721220001CN0700001N9-00281-00891100171ADDAY101999GF101991011081017501001001MD1710051+9999MW1021
0057011520999991951011115004+67283+014417FM-12+001399999V0200901N00981220001CN0700001N9-00391-00891100031ADDAY131999GF100991001001999999001001MD1810141+9999MW1361
0076011520999991951011118004+67283+014417FM-12+001399999V0201101N00871220001CN0700001N9-00501-01001099931ADDAY131999GF100991001001999999001001IA1319KA1999M-00111MD1710101+9999MW1361
0057011520999991951011200004+67283+014417FM-12+001399999V0200901N00981220001CN0700001N9-00611-01111099821ADDAY131999GF100991001001999999001001MD1710031+9999MW1361
0057011520999991951011203004+67283+014417FM-12+001399999V0201101N00981220001CN0700001N9-00501-01001099711ADDAY101999GF100991001001999999001001MD1710111+9999MW1001
0076011520999991951011206004+67283+014417FM-12+001399999V0200901N00871220001CN0700001N9-00501-01001099641ADDAY101999GF100991001001999999001001IA1319KA1999N-00721MD1710071+9999MW1001
0057011520999991951011209004+67283+014417FM-12+001399999V0200901N00871220001CN0700001N9-00501-01001099671ADDAY101999GF103991011081017501041001MD1210031+9999MW1021
0057011520999991951011212004+67283+014417FM-12+001399999V0201101N011819999999N0700001N9-00501-01001099651ADDAY111999GF105991031081017501041051MD1710021+9999MW1031
0057011520999991951011215004+67283+014417FM-12+001399999V0201401N011319999999N0400001N9-00391-00891099421ADDAY131999GF105991041081012501041001MD1610231+9999MW1361
0076011520999991951011218004+67283+014417FM-12+001399999V0201101N011819999999N0400001N9-00501-00891099321ADDAY131999GF106991041081012501011001IA1199KA1999M-00391MD1710101+9999MW1361
0076011520999991951011300004+67283+014417FM-12+001399999V0201401N01291007801CN0150001N9-00721-01111099071ADDAY131999GF108991999071008001021999MD1710101+9999MW1361EQDQ01+000082SCOTLC
0057011520999991951011303004+67283+014417FM-12+001399999V0201101N01181007801CN0150001N9-00781-01221098871ADDAY131999GF108991071071008001021999MD1710201+9999MW1361
0063011520999991951011306004+67283+014417FM-12+001399999V0200901N01081007801CN0160001N9-00781-01281098771ADDAY121999GF108991071071008001021999IA1199MD1610101+9999MW1021
0057011520999991951011309004+67283+014417FM-12+001399999V0200901N00721007801CN0200001N9-00781-01281098891ADDAY121999GF108991071071008001021999MD1210121+9999MW1021
0057011520999991951011312004+67283+014417FM-12+001399999V0200701N00821007801CN0160001N9-00781-01221098921ADDAY171999GF108991081051008001999999MD1210031+9999MW1701
0108011520999991951011315004+67283+014417FM-12+001399999V0200901N00721220001CN0200001N9-00781-01221098941ADDAY111999GA1041+007809049GF108991041061017501011999MD1210021+9999MW1151EQDQ01+000042APCTENQ02+000022APC3  
0087011520999991951011318004+67283+014417FM-12+001399999V0200901N00511220001CN0400001N9-00781-01221098951ADDAA199000691AY111999GF104991021061017501011001IA1199KA1999M-00721MD1110011+9999MW1021
0078011520999991951011400004+67283+014417FM-12+001399999V0200901N00721012301CN0200001N9-00721-01111098951ADDAY121999GF108991051081012501071999MW1021EQDQ01+000032APCTENQ02+000002APC3  
0057011520999991951011403004+67283+014417FM-12+001399999V0200901N00821012301CN0200001N9-00611-01001098931ADDAY121999GF107991051081012501071001MD1710021+9999MW1021
0076011520999991951011406004+67283+014417FM-12+001399999V0200901N008219999999N0200001N9-00391-00781098911ADDAY121999GF105991031081012501061001IA1199KA1999N-00891MD1710021+9999MW1021
0057011520999991951011409004+67283+014417FM-12+001399999V0201101N006219999999N0400001N9-00281-00721098961ADDAY121999GF105991031081012501051001MD1510051+9999MW1021
0057011520999991951011412004+67283+014417FM-12+001399999V0201101N007219999999N0400001N9-00221-00611098981ADDAY121999GF105991031081012501051051MD1210021+9999MW1021
0108011520999991951011415004+67283+014417FM-12+001399999V0200901N00821220001CN0600001N9-00221-00721098981ADDAY111999GA1011+024009049GF103991999001999999071011MD1410001+9999MW1011EQDQ01+000002SCOTLCQ02+000032APCTEN
0095011520999991951011418004+67283+014417FM-12+001399999V0200901N00821220001CN0600001N9-00221-00721099061ADDAY111999GF106991999001999999031001IA1199KA1999M-00221MD1310081+9999MW1031EQDQ01+000002SCOTLC
0057011520999991951011500004+67283+014417FM-12+001399999V0200901N00871220001CN0600001N9-00281-00781099201ADDAY111999GF103991001001999999041011MD1210101+9999MW1011
0057011520999991951011503004+67283+014417FM-12+001399999V0200901N00821220001CN0600001N9-00281-00781099271ADDAY111999GF103991021061017501071011MD1310071+9999MW1021
0076011520999991951011506004+67283+014417FM-12+001399999V0200901N006219999999N0400001N9-00281-00721099371ADDAY111999GF106991041081017501011001IA1199KA1999N-00391MD1310101+9999MW1031
0057011520999991951011509004+67283+014417FM-12+001399999V0200901N006219999999N0600001N9-00221-00611099501ADDAY121999GF107991041051017501071071MD1210131+9999MW1021
0057011520999991951011512004+67283+014417FM-12+001399999V0200901N007219999999N0600001N9-00281-00721099621ADDAY121999GF106991031081017501071011MD1210121+9999MW1021
0057011520999991951011515004+67283+014417FM-12+001399999V0201101N00621220001CN0600001N9-00281-00721099761ADDAY111999GF103991001001999999041011MD1210141+9999MW1021
0076011520999991951011518004+67283+014417FM-12+001399999V0201101N00621012301CN0600001N9-00281-00721099961ADDAY121999GF108991051061012501021999IA1199KA1999M-00221MD1210201+9999MW1021
0057011520999991951011600004+67283+014417FM-12+001399999V0200901N00721001501CN0024001N9-00281-00391100291ADDAY171999GF109991091999001501999999MD1210121+9999MW1711
0057011520999991951011603004+67283+014417FM-12+001399999V0200901N00621000151CN0014001N9-00391-00391100391ADDAY171999GF109991091999000251999999MD1210101+9999MW1731
0122011520999991951011606004+67283+014417FM-12+001399999V0201401N00211001501CN0050001N9-00281-00281100651ADDAA199003091AY171999GF108991081999001501021999IA1319KA1999N-00501MD1210261+9999MW1701EQDQ01+000042APCTENQ02+000262APC3  
0057011520999991951011609004+67283+014417FM-12+001399999V0203401N003119999999N0200001N9+00001-00281100991ADDAY121999GF106991041081004501071001MD1210341+9999MW1151
0057011520999991951011612004+67283+014417FM-12+001399999V0209991C000019999999N0200001N9+00001-00281101221ADDAY181999GF105991041091008001061001MD1210231+9999MW1151
0057011520999991951011615004+67283+014417FM-12+001399999V0200501N00101012301CN0600001N9-00281-00501101401ADDAY121999GF105991051081012501001001MD1210281+9999MW1021
0087011520999991951011618004+67283+014417FM-12+001399999V0201401N004119999999N0600001N9-00221-00281101491ADDAA199000691AY121999GF107991041051012501011999IA1199KA1999M+00111MD1210091+9999MW1021
0057011520999991951011700004+67283+014417FM-12+001399999V0202501N00511004501CN0200001N9+00111+00001101421ADDAY181999GF107991071091004501999999MD1710031+9999MW1261
0057011520999991951011703004+67283+014417FM-12+001399999V0200501N00211004501CN0400001N9+00221-00281101291ADDAY121999GF107991071091004501999999MD1990131+9999MW1151
0087011520999991951011706004+67283+014417FM-12+001399999V0200901N00511004501CN0200001N9-00221-00281101101ADDAA199004091AY181999GF106991061091004501001001IA1319KA1999N-00391MD1710191+9999MW1151
0057011520999991951011709004+67283+014417FM-12+001399999V0200901N006219999999N0600001N9-00221-00501100821ADDAY121999GF105991011081008001051011MD1710281+9999MW1021
0057011520999991951011712004+67283+014417FM-12+001399999V0201101N01181220001CN0600001N9-00221-00611100251ADDAY121999GF107991001001999999071071MD1710571+9999MW1021
0057011520999991951011715004+67283+014417FM-12+001399999V0201401N00981220001CN0600001N9-00221-00781099881ADDAY121999GF108991001001999999011071MD1710371+9999MW1021
0076011520999991951011718004+67283+014417FM-12+001399999V0201401N017019999999N0090001N9-00221-00781099361ADDAY131999GF108991021081017501011071IA1199KA1999M-00111MD1810521+9999MW1371
0057011520999991951011800004+67283+014417FM-12+001399999V0201401N011819999999N0200001N9-00221-00611098711ADDAY121999GF107991031081012501011001MD1810401+9999MW1361
0057011520999991951011803004+67283+014417FM-12+001399999V0201401N01291012301CN0150001N9-00221-00501098301ADDAY121999GF108991051081012501011001MD1810411+9999MW1361
0076011520999991951011806004+67283+014417FM-12+001399999V0201601N007219999999N0400001N9+00001-00501098151ADDAY121999GF108991031081012501021001IA1319KA1999N-00781MD1210121+9999MW1021
0076011520999991951011809004+67283+014417FM-12+001399999V0201401N007219999999N0200001N9+00111-00501098151ADDAY121999GF108991011081008001021999MD1410001+9999MW1151EQDQ01+000022APCTEN
0057011520999991951011812004+67283+014417FM-12+001399999V0201401N006219999999N0200001N9+00111-00391098161ADDAY121999GF108991041071008001021999MD1210011+9999MW1151
0057011520999991951011815004+67283+014417FM-12+001399999V0201401N008219999999N0200001N9-00111-00611098191ADDAY121999GF108991031071008001021999MD1210031+9999MW1021
0076011520999991951011818004+67283+014417FM-12+001399999V0201401N00871004501CN0200001N9+00001-00611098231ADDAY121999GF108991051071004501021999IA1319KA1999M+00111MD1210041+9999MW1021
0057011520999991951011900004+67283+014417FM-12+001399999V0200901N008219999999N0200001N9-00221-00611098311ADDAY121999GF108991031081008001021001MD1310061+9999MW1161
0057011520999991951011903004+67283+014417FM-12+001399999V0200901N008219999999N0200001N9-00281-00721098341ADDAY121999GF108991031071008001021001MD1310021+9999MW1151
0106011520999991951011906004+67283+014417FM-12+001399999V0200901N008719999999N0200001N9-00281-00611098341ADDAA199000691AY121999GF107991041071012501011001IA1319KA1999N-00391MD1410001+9999MW1021EQDQ01+000032APCTEN
0057011520999991951011909004+67283+014417FM-12+001399999V0200901N007219999999N0400001N9-00221-00611098411ADDAY121999GF108991021081012501071071MD1210071+9999MW1021
0057011520999991951011912004+67283+014417FM-12+001399999V0201401N00721007801CN0400001N9-00111-00501098421ADDAY111999GF108991071071008001021999MD1210011+9999MW1151
0057011520999991951011915004+67283+014417FM-12+001399999V0201401N00721001501CN0018001N9-00221-00281098461ADDAY171999GF108991081061001501999999MD1210041+9999MW1731
0087011520999991951011918004+67283+014417FM-12+001399999V0200701N00511001501CN0090001N9-00111-00111098591ADDAA199002091AY171999GF108991081061001501999999IA1319KA1999M-00111MD1210131+9999MW1151
0057011520999991951012000004+67283+014417FM-12+001399999V0203201N00721004501CN0160001N9+00111+00001099031ADDAY181999GF106991061091004501001001MD1210251+9999MW1151
0057011520999991951012003004+67283+014417FM-12+001399999V0203401N01181000601CN0010001N9-00221-00221099321ADDAY181999GF109991091999000751999999MD1210291+9999MW1861
0087011520999991951012006004+67283+014417FM-12+001399999V0203401N01491002401CN0160001N9-00111-00391099571ADDAA199000591AY181999GF106991061091002501001001IA1199KA1999N-00221MD1210251+9999MW1151
0057011520999991951012009004+67283+014417FM-12+001399999V0203401N01391007801CN0200001N9-00221-00501099831ADDAY121999GF108991051091008001061999MD1210261+9999MW1151
0057011520999991951012012004+67283+014417FM-12+001399999V0203601N010819999999N0400001N9-00281-00781100241ADDAY121999GF105991041091008001061001MD1210411+9999MW1151
0057011520999991951012015004+67283+014417FM-12+001399999V0203401N00871002401CN0090001N9-00391-00781100431ADDAY181999GF108991061091002501999999MD1210191+9999MW1851
0087011520999991951012018004+67283+014417FM-12+001399999V0203401N00871004501CN0400001N9-00391-01001100561ADDAA199000391AY181999GF106991061091004501061999IA1199KA1999M-00111MD1210131+9999MW1021
0057011520999991951012200004+67283+014417FM-12+001399999V0200901N00411004501CN0400001N9-00891-01001102081ADDAY181999GF105991051091004501061001MD1210181+9999MW1151
0057011520999991951012203004+67283+014417FM-12+001399999V0200901N00511004501CN0600001N9-01111-01221102141ADDAY121999GF105991051091004501061001MD1210061+9999MW1021
0106011520999991951012206004+67283+014417FM-12+001399999V0200901N00621220001CN0600001N9-01221-01281102141ADDAA199001091AY101999GF103991031081012501001001IA1319KA1999N-01281MD1410001+9999MW1021EQDQ01+000092APCTEN
0057011520999991951012209004+67283+014417FM-12+001399999V0200901N00721220001CN0600001N9-01111-01281102131ADDAY101999GF103991011081008001051001MD1810011+9999MW1031
0057011520999991951012212004+67283+014417FM-12+001399999V0200901N00621220001CN0600001N9-01001-01281102041ADDAY131999GF102991011081012501051011MD1710091+9999MW1361
0057011520999991951012215004+67283+014417FM-12+001399999V0200901N00981220001CN0600001N9-01001-01391101881ADDAY131999GF102991001001999999041051MD1710161+9999MW1361
0076011520999991951012218004+67283+014417FM-12+001399999V0201101N01181220001CN0700001N9-00891-01391101721ADDAY131999GF102991001001999999041051IA1319KA1999M-00891MD1710161+9999MW1361
0076011520999991951012300004+67283+014417FM-12+001399999V0201101N01491220001CN0600001N9-01001-01391101451ADDAY101999GF102991999001999999041001MD1710121+9999MW1001EQDQ01+000002SCOTLC
0057011520999991951012303004+67283+014417FM-12+001399999V0201101N01391220001CN0600001N9-00891-01281101331ADDAY111999GF105991001001999999051051MD1710121+9999MW1031
0076011520999991951012306004+67283+014417FM-12+001399999V0201101N01181220001CN0600001N9-00781-01281101181ADDAY121999GF105991001001999999041051IA1319KA1999N-01111MD1710151+9999MW1021
0092011520999991951012309004+67283+014417FM-12+001399999V0201401N00871220001CN0600001N9-00781-01281101271ADDAY121999GF106991001001999999041051MD1210091+9999MW1031EQDQ01+000042APCTENQ02+000092APC3  
0076011520999991951012312004+67283+014417FM-12+001399999V0201401N00821220001CN0600001N9-00721-01221101251ADDAY111999GF107991999001999999071001MD1710021+9999MW1021EQDQ01+000002SCOTLC
0057011520999991951012315004+67283+014417FM-12+001399999V0200901N00871220001CN0600001N9-00721-01221101201ADDAY121999GF108991001001999999071999MD1710051+9999MW1021
0095011520999991951012318004+67283+014417FM-12+001399999V0200901N00871220001CN0600001N9-00721-01221101231ADDAY121999GF107991999001999999071001IA1319KA1999M-00721MD1210031+9999MW1021EQDQ01+000002SCOTLC
0078011520999991951012400004+67283+014417FM-12+001399999V0201401N00871007801CN0600001N9-00501-00781101191ADDAY121999GF108991051061008001021999MW1021EQDQ01+000032APCTENQ02+000002APC3  
0057011520999991951012403004+67283+014417FM-12+001399999V0201101N00721007801CN0600001N9-00281-00611101081ADDAY121999GF108991051071008001021999MD1710111+9999MW1021
0076011520999991951012406004+67283+014417FM-12+001399999V0201401N00821007801CN0600001N9-00111-00391100961ADDAY121999GF108991051071008001021999IA1319KA1999N-00721MD1710121+9999MW1021
0057011520999991951012409004+67283+014417FM-12+001399999V0201401N00511007801CN0400001N9+00281+00001100981ADDAY111999GF108991071061008001021999MD1210021+9999MW1151
0057011520999991951012412004+67283+014417FM-12+001399999V0202301N01131007801CN0600001N9+00611+00281100971ADDAY121999GF108991071061008001021999MD1710011+9999MW1021
0057011520999991951012415004+67283+014417FM-12+001399999V0202301N00981004501CN0400001N9+00611+00391100931ADDAY161999GF108991071071004501021999MD1710041+9999MW1601
0087011520999991951012418004+67283+014417FM-12+001399999V0202301N01181004501CN0400001N9+00611+00391101071ADDAA199000691AY161999GF108991071071004501021999IA1199KA1999M+00721MD1210141+9999MW1021
0057011520999991951012500004+67283+014417FM-12+001399999V0202001N01181007801CN0200001N9+00611+00281101371ADDAY121999GF108991071071008001021999MD1210201+9999MW1021
0057011520999991951012503004+67283+014417FM-12+001399999V0202001N00981007801CN0400001N9+00611+00281101491ADDAY121999GF107991071071008001021999MD1210121+9999MW1021
0106011520999991951012506004+67283+014417FM-12+001399999V0202001N00871004501CN0160001N9+00501+00281101511ADDAA199000691AY181999GF108991999071004501021999IA1199KA1999N+00391MD1210021+9999MW1801EQDQ01+000082SCOTLC
0057011520999991951012509004+67283+014417FM-12+001399999V0202001N00511007801CN0400001N9+00611+00391101601ADDAY121999GF108991051071008001071999MD1210091+9999MW1101
0073011520999991951012512004+67283+014417FM-12+001399999V0202001N00511220001CN0400001N9+00501+00221101691ADDAY111999GA1021+007809089GF107991071051017501001001MD1110091+9999MW1101
0057011520999991951012515004+67283+014417FM-12+001399999V0201801N00101012301CN0400001N9+00501+00221101641ADDAY121999GF108991071051012501071999MD1710051+9999MW1021
0087011520999991951012518004+67283+014417FM-12+001399999V0201401N00411012301CN0200001N9+00391+00111101601ADDAA199000691AY121999GF108991071051012501071999IA1189KA1999M+00611MD1710041+9999MW1021
0057011520999991951012600004+67283+014417FM-12+001399999V0209991C00001015001CN0600001N9+00391+00221101611ADDAY121999GF108991071051017501071001MD1210061+9999MW1021
0076011520999991951012603004+67283+014417FM-12+001399999V0201401N00411220001CN0600001N9+00221+00001101581ADDAY111999GF103991999001999999041001MD1710031+9999MW1011EQDQ01+000002SCOTLC
0076011520999991951012606004+67283+014417FM-12+001399999V0201401N00621220001CN0700001N9+00221-00221101571ADDAY101999GF100991001001999999001001IA1189KA1999N+00111MD1710011+9999MW1021
0057011520999991951012609004+67283+014417FM-12+001399999V0201101N00721220001CN0700001N9+00111-00281101521ADDAY101999GF103991001001999999071011MD1710051+9999MW1021
0057011520999991951012612004+67283+014417FM-12+001399999V0200901N00871220001CN0700001N9+00221-00281101291ADDAY111999GF104991001001999999041011MD1710231+9999MW1011
0057011520999991951012615004+67283+014417FM-12+001399999V0200901N00511220001CN0700001N9+00111-00501101231ADDAY121999GF106991001001999999041011MD1710061+9999MW1021
0095011520999991951012618004+67283+014417FM-12+001399999V0200901N00721220001CN0700001N9-00111-00721101231ADDAY101999GF103991001001999999041011IA1189KA1999M+00501MD1410001+9999MW1011EQDQ01+000072APCTEN
0076011520999991951012700004+67283+014417FM-12+001399999V0200901N00871220001CN0700001N9-00221-00891101191ADDAY101999GF102991999001999999041001MD1710041+9999MW1001EQDQ01+000002SCOTLC
0076011520999991951012703004+67283+014417FM-12+001399999V0200901N00721220001CN0700001N9-00281-01111101251ADDAY101999GF102991999001999999041001MD1210061+9999MW1021EQDQ01+000002SCOTLC
0076011520999991951012706004+67283+014417FM-12+001399999V0200901N00621220001CN0700001N9-00391-01111101291ADDAY111999GF107991001001999999001071IA1189KA1999N-00501MD1210041+9999MW1031
0057011520999991951012709004+67283+014417FM-12+001399999V0200901N00721220001CN0600001N9-00281-01111101311ADDAY111999GF103991001001999999041011MD1210021+9999MW1011
0057011520999991951012712004+67283+014417FM-12+001399999V0200901N00871220001CN0600001N9-00281-01111101321ADDAY121999GF106991001001999999091071MD1210011+9999MW1031
0057011520999991951012715004+67283+014417FM-12+001399999V0200901N00721220001CN0600001N9-00281-00781101431ADDAY121999GF107991001001999999041071MD1210111+9999MW1021
0095011520999991951012718004+67283+014417FM-12+001399999V0200901N00621220001CN0600001N9-00221-00891101491ADDAY101999GF102991999001999999041001IA1189KA1999M-00221MD1210061+9999MW1011EQDQ01+000002SCOTLC
0057011520999991951012800004+67283+014417FM-12+001399999V0200901N00621220001CN0600001N9-00111-00781101541ADDAY101999GF104991001001999999041011MD1210011+9999MW1021
0057011520999991951012803004+67283+014417FM-12+001399999V0200901N008219999999N0600001N9-00111-00721101431ADDAY121999GF105991031051017501001011MD1710111+9999MW1031
0095011520999991951012806004+67283+014417FM-12+001399999V0200901N005119999999N0600001N9+00001-00501101431ADDAY121999GF106991021051017501041071IA1189KA1999N-00281MD1410001+9999MW1031EQDQ01+000022APCTEN
0057011520999991951012809004+67283+014417FM-12+001399999V0201101N007219999999N0600001N9+00111-00391101391ADDAY121999GF108991031051017501071999MD1710041+9999MW1031
0057011520999991951012812004+67283+014417FM-12+001399999V0200901N001519999999N0600001N9+00111-00391101431ADDAY111999GF106991041051017501021021MD1210041+9999MW1151
0057011520999991951012815004+67283+014417FM-12+001399999V0200901N005119999999N0600001N9+00001-00501101401ADDAY111999GF107991021051017501071071MD1990031+9999MW1031
0076011520999991951012818004+67283+014417FM-12+001399999V0200901N00721220001CN0600001N9+00001-00611101381ADDAY121999GF107991001001999999071071IA1189KA1999M+00221MD1710021+9999MW1021
0076011520999991951012900004+67283+014417FM-12+001399999V0201401N00211220001CN0600001N9-00111-00721101201ADDAY121999GF107991999001999999071001MD1610151+9999MW1021EQDQ01+000002SCOTLC
0057011520999991951012903004+67283+014417FM-12+001399999V0201101N006219999999N0400001N9-00221-00781101081ADDAY111999GF108991021071017501021999MD1710121+9999MW1031
0106011520999991951012906004+67283+014417FM-12+001399999V0201101N00821004501CN0140001N9-00221-00721101011ADDAA199000691AY171999GF108991999071004501021999IA1189KA1999N-00281MD1810071+9999MW1701EQDQ01+000082SCOTLC
0057011520999991951012909004+67283+014417FM-12+001399999V0200901N00871002401CN0024001N9-00281-00391100991ADDAY171999GF108991081061002501999999MD1710021+9999MW1711
0076011520999991951012912004+67283+014417FM-12+001399999V0201101N00871007801CN0400001N9-00221-00281100991ADDAY171999GF108991081081008001999999MD1410001+9999MW1151EQDQ01+000032APCTEN
0057011520999991951012915004+67283+014417FM-12+001399999V0202301N008719999999N0100001N9+00221+00111101221ADDAY161999GF108991031071001501021999MD1210231+9999MW1691
0087011520999991951012918004+67283+014417FM-12+001399999V0202301N00511002401CN0400001N9+00281+00221101401ADDAA199003091AY181999GF105991051091002501001001IA1189KA1999M+00281MD1210181+9999MW1151
0057011520999991951013000004+67283+014417FM-12+001399999V0201801N00621004501CN0160001N9+00281+00221101521ADDAY181999GF108991071071004501021999MD1310061+9999MW1151
0076011520999991951013003004+67283+014417FM-12+001399999V0202301N00981004501CN0140001N9+00391+00221101551ADDAY161999GF108991999071004501021999MD1210031+9999MW1631EQDQ01+000082SCOTLC
0106011520999991951013006004+67283+014417FM-12+001399999V0201801N00721004501CN0150001N9+00501+00221101521ADDAA199001091AY161999GF108991999071004501021999IA1189KA1999N+00111MD1610031+9999MW1151EQDQ01+000082SCOTLC
0057011520999991951013009004+67283+014417FM-12+001399999V0202001N00511007801CN0200001N9+00391+00001101661ADDAY161999GF108991051071008001021999MD1210141+9999MW1601
0057011520999991951013012004+67283+014417FM-12+001399999V0202001N00411012301CN0400001N9+00501+00001101731ADDAY121999GF108991051071012501071999MD1210071+9999MW1021
0057011520999991951013015004+67283+014417FM-12+001399999V0201401N00411220001CN0400001N9+00221-00221101871ADDAY111999GF103991011051017501021051MD1210141+9999MW1101
0087011520999991951013018004+67283+014417FM-12+001399999V0200901N00511220001CN0200001N9+00221-00281101841ADDAA199000691AY111999GF105991001001999999021051IA1189KA1999M+00501MD1510031+9999MW1101
0094011520999991951013100004+67283+014417FM-12+001399999V0200901N00621220001CN0700001N9+00111-00611101891ADDAY101999GF101991999001999999041001MW1021EQDQ01+000002SCOTLCQ02+000042APCTENQ03+000052APC3  
0076011520999991951013103004+67283+014417FM-12+001399999V0200901N00511220001CN0700001N9-00111-00721101981ADDAY101999GF101991999001999999041001MD1210091+9999MW1021EQDQ01+000002SCOTLC
0095011520999991951013106004+67283+014417FM-12+001399999V0201101N00511220001CN0700001N9-00221-00781102021ADDAY101999GF101991999001999999041001IA1189KA1999N-00221MD1210041+9999MW1021EQDQ01+000002SCOTLC
0076011520999991951013109004+67283+014417FM-12+001399999V0200901N00621220001CN0700001N9-00221-00781102051ADDAY101999GF101991999001999999041001MD1210031+9999MW1021EQDQ01+000002SCOTLC
0057011520999991951013112004+67283+014417FM-12+001399999V0200901N00411220001CN0700001N9-00111-00781102041ADDAY101999GF100991001001999999001001MD1710011+9999MW1021
0057011520999991951013115004+67283+014417FM-12+001399999V0201101N00511220001CN0700001N9-00221-00891101951ADDAY101999GF100991001001999999001001MD1610091+9999MW1021
0076011520999991951013118004+67283+014417FM-12+001399999V0201101N00511220001CN0700001N9-00111-00781101881ADDAY101999GF101991011081008001001001IA1189KA1999M-00111MD1510071+9999MW1021
0078011520999991951020100004+67283+014417FM-12+001399999V0201101N00511220001CN0700001N9-00111-00721101921ADDAY101999GF100991001001999999001001MW1001EQDQ01+000032APCTENQ02+000002APC3  
0057011520999991951020103004+67283+014417FM-12+001399999V0200901N00871220001CN0700001N9+00001-00721101871ADDAY101999GF100991001001999999001001MD1990051+9999MW1001
0076011520999991951020106004+67283+014417FM-12+001399999V0200901N00981220001CN0700001N9+00001-00721101741ADDAY101999GF100991001001999999001001IA1189KA1999N-00221MD1710131+9999MW1001
0057011520999991951020109004+67283+014417FM-12+001399999V0200901N00621220001CN0700001N9+00221-00501101671ADDAY101999GF100991001001999999001001MD1710071+9999MW1001
0057011520999991951020112004+67283+014417FM-12+001399999V0200901N00621220001CN0700001N9+00391-00501101501ADDAY101999GF100991001001999999001001MD1710171+9999MW1021
0076011520999991951020115004+67283+014417FM-12+001399999V0201401N00511220001CN0700001N9+00281-00501101481ADDAY101999GF101991999001999999041001MD1710021+9999MW1021EQDQ01+000002SCOTLC
0095011520999991951020118004+67283+014417FM-12+001399999V0201101N00411220001CN0700001N9+00221-00501101411ADDAY101999GF101991999001999999041001IA1189KA1999M+00501MD1710071+9999MW1021EQDQ01+000002SCOTLC
0076011520999991951020200004+67283+014417FM-12+001399999V0201401N00721220001CN0600001N9+00221-00391101081ADDAY101999GF102991999001999999041001MD1710281+9999MW1021EQDQ01+000002SCOTLC
0057011520999991951020203004+67283+014417FM-12+001399999V0201601N00621220001CN0600001N9+00391-00281100911ADDAY111999GF108991001001999999071999MD1710171+9999MW1031
0076011520999991951020206004+67283+014417FM-12+001399999V0201101N009819999999N0400001N9+00221-00501100751ADDAY121999GF108991031071017501021999IA1189KA1999N+00111MD1710161+9999MW1021
0057011520999991951020209004+67283+014417FM-12+001399999V0201101N00981015001CN0600001N9+00221-00281100621ADDAY121999GF108991051071017501071999MD1710131+9999MW1021
0092011520999991951020212004+67283+014417FM-12+001399999V0201401N00721012301CN0600001N9+00501+00001100791ADDAY121999GF108991051071012501021999MD1210171+9999MW1021EQDQ01+000042APCTENQ02+000172APC3  
0057011520999991951020215004+67283+014417FM-12+001399999V0201601N00511007801CN0400001N9+00501+00221100981ADDAY121999GF108991061071008001071999MD1210191+9999MW1151
0087011520999991951020218004+67283+014417FM-12+001399999V0201601N00211007801CN0400001N9+00501+00111100971ADDAA199000691AY121999GF108991071071008001999999IA1189KA1999M+00721MD1610011+9999MW1021
0057011520999991951020300004+67283+014417FM-12+001399999V0202301N00981007801CN0400001N9+00611+00221101051ADDAY121999GF107991061071008001071001MD1210021+9999MW1021
0057011520999991951020303004+67283+014417FM-12+001399999V0202001N00411007801CN0400001N9+00501+00221101141ADDAY121999GF108991061071008001071999MD1210091+9999MW1021
0076011520999991951020306004+67283+014417FM-12+001399999V0201801N00621007801CN0400001N9+00501+00221101111ADDAY121999GF108991061071008001071999IA1189KA1999N+00391MD1710031+9999MW1021
0057011520999991951020309004+67283+014417FM-12+001399999V0202001N00411007801CN0400001N9+00501+00281101181ADDAY121999GF108991051071008001071999MD1210071+9999MW1021
0057011520999991951020312004+67283+014417FM-12+001399999V0201401N00411007801CN0400001N9+00501+00221101111ADDAY121999GF108991051071008001071999MD1710071+9999MW1021
0057011520999991951020315004+67283+014417FM-12+001399999V0201101N00511220001CN0600001N9+00501+00111100861ADDAY111999GF103991011051012501071001MD1710251+9999MW1011
0095011520999991951020318004+67283+014417FM-12+001399999V0201101N00621220001CN0600001N9+00281-00111100711ADDAY101999GF102991999001022501071001IA1189KA1999M+00501MD1710151+9999MW1021EQDQ01+000002SCOTLC
0057011520999991951020400004+67283+014417FM-12+001399999V0201401N00621220001CN0700001N9+00221-00721100511ADDAY101999GF100991001001999999001001MD1710121+9999MW1001
0057011520999991951020403004+67283+014417FM-12+001399999V0201601N01181220001CN0700001N9+00001-00891100351ADDAY101999GF100991001001999999001001MD1710161+9999MW1001
0076011520999991951020406004+67283+014417FM-12+001399999V0201601N00871220001CN0700001N9-00111-00891100311ADDAY101999GF103991011081017501041001IA1189KA1999N-00281MD1710041+9999MW1031
0057011520999991951020409004+67283+014417FM-12+001399999V0201601N008719999999N0600001N9-00111-00781100271ADDAY111999GF105991021081017501041051MD1710041+9999MW1031
0057011520999991951020412004+67283+014417FM-12+001399999V0201601N011819999999N0400001N9-00221-00781100221ADDAY121999GF106991031081012501071001MD1710051+9999MW1031
0057011520999991951020415004+67283+014417FM-12+001399999V0201601N00871220001CN0600001N9-00221-00781100071ADDAY111999GF103991011091012501071001MD1710151+9999MW1151
0095011520999991951020418004+67283+014417FM-12+001399999V0201401N00511220001CN0400001N9-00221-00721099961ADDAY111999GF102991999001999999071001IA1189KA1999M-00111MD1710111+9999MW1011EQDQ01+000002SCOTLC
0076011520999991951020500004+67283+014417FM-12+001399999V0200901N00411220001CN0400001N9-00221-00721099871ADDAY101999GF102991999001999999011001MD1510031+9999MW1021EQDQ01+000002SCOTLC
0076011520999991951020503004+67283+014417FM-12+001399999V0201101N00871220001CN0400001N9-00221-00781099881ADDAY111999GF103991999001999999041001MD1210011+9999MW1031EQDQ01+000002SCOTLC
0076011520999991951020506004+67283+014417FM-12+001399999V0200901N00721220001CN0600001N9-00221-00781099901ADDAY111999GF103991001001999999041011IA1189KA1999N-00221MD1210021+9999MW1021
0057011520999991951020509004+67283+014417FM-12+001399999V0201101N00511220001CN0700001N9-00221-00781100071ADDAY121999GF106991001001999999041011MD1310171+9999MW1021
0057011520999991951020512004+67283+014417FM-12+001399999V0201101N00721220001CN0700001N9-00111-00721100111ADDAY121999GF107991001001999999041011MD1210041+9999MW1021
0057011520999991951020515004+67283+014417FM-12+001399999V0201101N00621220001CN0700001N9-00111-00721100171ADDAY121999GF107991001001999999041011MD1210061+9999MW1021
0076011520999991951020518004+67283+014417FM-12+001399999V0200901N00721220001CN0700001N9-00111-00611100191ADDAY121999GF105991001001999999041051IA1189KA1999M+00001MD1210021+9999MW1021
0076011520999991951020600004+67283+014417FM-12+001399999V0200901N00821220001CN0700001N9-00111-00501100371ADDAY101999GF102991999001999999071001MD1110101+9999MW1021EQDQ01+000002SCOTLC
0108011520999991951020603004+67283+014417FM-12+001399999V0201101N00821220001CN0700001N9-00111-00501100401ADDAY111999GF103991999001999999091001MD1210031+9999MW1031EQDQ01+000002SCOTLCQ02+000042APCTENQ03+000032APC3  
0095011520999991951020606004+67283+014417FM-12+001399999V0200901N00821220001CN0700001N9-00111-00611100471ADDAY111999GF103991999001999999091001IA1189KA1999N-00111MD1310071+9999MW1021EQDQ01+000002SCOTLC
0057011520999991951020609004+67283+014417FM-12+001399999V0201101N00981220001CN0700001N9-00111-00611100541ADDAY101999GF102991001001999999001051MD1210071+9999MW1021
0076011520999991951020612004+67283+014417FM-12+001399999V0201101N01081220001CN0700001N9+00001-00501100541ADDAY101999GF102991001001999999001051MD1410001+9999MW1021EQDQ01+000072APCTEN
0057011520999991951020615004+67283+014417FM-12+001399999V0200901N00981220001CN0700001N9-00111-00611100431ADDAY101999GF103991021081017501001051MD1710111+9999MW1021
0076011520999991951020618004+67283+014417FM-12+001399999V0201101N01181220001CN0700001N9-00111-00611100421ADDAY101999GF102991011081017501001051IA1189KA1999M+00001MD1710071+9999MW1021
0076011520999991951020700004+67283+014417FM-12+001399999V0201101N01181220001CN0600001N9-00111-00891100301ADDAY101999GF101991999001999999071001MD1710101+9999MW1021EQDQ01+000002SCOTLC
0057011520999991951020703004+67283+014417FM-12+001399999V0201401N01181220001CN0600001N9-00221-00781100371ADDAY121999GF104991041081012501001001MD1210071+9999MW1031
0076011520999991951020706004+67283+014417FM-12+001399999V0201101N01181012301CN0400001N9-00391-01001100351ADDAY121999GF108991061081012501021999IA1189KA1999N-00391MD1710021+9999MW1151
0057011520999991951020709004+67283+014417FM-12+001399999V0201101N00871004501CN0200001N9-00391-00891100431ADDAY121999GF108991071071004501021999MD1210081+9999MW1151
0057011520999991951020712004+67283+014417FM-12+001399999V0201401N012919999999N0600001N9-00391-00891100351ADDAY121999GF106991031091012501071001MD1710081+9999MW1021
0057011520999991951020715004+67283+014417FM-12+001399999V0201101N011819999999N0600001N9-00391-00891100291ADDAY121999GF107991031091012501071001MD1710061+9999MW1021
0076011520999991951020718004+67283+014417FM-12+001399999V0201101N01491007801CN0200001N9-00281-00781100421ADDAY121999GF108991051091008001071999IA1189KA1999M-00111MD1210131+9999MW1021
0076011520999991951020800004+67283+014417FM-12+001399999V0201101N00981220001CN0600001N9+00001-00501100831ADDAY111999GF102991999001999999071001MD1210191+9999MW1011EQDQ01+000002SCOTLC
0057011520999991951020803004+67283+014417FM-12+001399999V0200901N00981220001CN0600001N9-00111-00501100931ADDAY111999GF103991011081017501071001MD1210101+9999MW1031
0076011520999991951020806004+67283+014417FM-12+001399999V0201101N00821220001CN0600001N9+00111-00391100971ADDAY121999GF104991021081017501071001IA1189KA1999N-00221MD1210041+9999MW1031
0057011520999991951020809004+67283+014417FM-12+001399999V0201101N008719999999N0600001N9+00001-00501101091ADDAY121999GF107991021081017501041011MD1210121+9999MW1021
0057011520999991951020812004+67283+014417FM-12+001399999V0201401N009819999999N0600001N9+00111-00391101111ADDAY121999GF105991021081017501041011MD1210021+9999MW1021
0057011520999991951020815004+67283+014417FM-12+001399999V0201101N011819999999N0600001N9+00111-00391101081ADDAY121999GF106991031081012501041011MD1710031+9999MW1021
0095011520999991951020818004+67283+014417FM-12+001399999V0201101N011819999999N0600001N9+00001-00501101081ADDAY121999GF107991031081012501041001IA1189KA1999M+00221MD1410001+9999MW1021EQDQ01+000072APCTEN
0057011520999991951020900004+67283+014417FM-12+001399999V0201101N011319999999N0400001N9+00001-00611101091ADDAY121999GF107991031081012501021001MD1210021+9999MW1021
0057011520999991951020903004+67283+014417FM-12+001399999V0201101N011319999999N0400001N9-00111-00611101131ADDAY121999GF105991031081012501011001MD1210041+9999MW1011
0082011520999991951020906004+67283+014417FM-12+001399999V0200901N011319999999N0400001N9-00221-00721101131ADDAY111999GF106991041051012501041001IA1189MD1410001+9999MW1021EQDQ01+000022APCTEN
0057011520999991951020909004+67283+014417FM-12+001399999V0201101N012919999999N0600001N9-00111-00611101091ADDAY121999GF105991031081012501041011MD1710041+9999MW1021
0092011520999991951020912004+67283+014417FM-12+001399999V0201101N013919999999N0600001N9-00111-00721101141ADDAY121999GF107991031081017501071011MD1210051+9999MW1031EQDQ01+000042APCTENQ02+000052APC3  
0057011520999991951020915004+67283+014417FM-12+001399999V0201101N011819999999N0600001N9-00221-00781101071ADDAY121999GF108991031081012501071001MD1710071+9999MW1021
0076011520999991951020918004+67283+014417FM-12+001399999V0201101N01491012301CN0400001N9-00221-00721100781ADDAY121999GF108991051071012501071999IA1189KA1999M-00111MD1710291+9999MW1021
0057011520999991951021000004+67283+014417FM-12+001399999V0201101N011819999999N0200001N9-00111-00501100411ADDAY171999GF108991011071008001021999MD1710351+9999MW1151
0057011520999991951021003004+67283+014417FM-12+001399999V0201101N006219999999N0400001N9-00111-00281100381ADDAY111999GF108991041061008001021999MD1710031+9999MW1021
0093011520999991951021006004+67283+014417FM-12+001399999V0200901N008719999999N0200001N9+00001-00391100441ADDAA199000691AY111999GF108991999001008001021999IA1189MD1210061+9999MW1151EQDQ01+000002SCOTLC
0057011520999991951021009004+67283+014417FM-12+001399999V0200901N008219999999N0600001N9+00001-00391100541ADDAY171999GF108991031051012501071999MD1210101+9999MW1151
0057011520999991951021012004+67283+014417FM-12+001399999V0200901N00721012301CN0400001N9+00111-00281100681ADDAY171999GF108991051061012501021999MD1210141+9999MW1221
0057011520999991951021015004+67283+014417FM-12+001399999V0201101N00621004501CN0050001N9+00111+00001100801ADDAY181999GF108991061061004501021999MD1210121+9999MW1851
0106011520999991951021018004+67283+014417FM-12+001399999V0200901N00511004501CN0050001N9+00111+00111101001ADDAA199003091AY181999GF108991999061004501021999IA1199KA1999M+00221MD1310201+9999MW1831EQDQ01+000082SCOTLC
0057011520999991951021100004+67283+014417FM-12+001399999V0201601N00411007801CN0150001N9+00281+00221101111ADDAY171999GF108991071071008001021999MD1010011+9999MW1231
0057011520999991951021103004+67283+014417FM-12+001399999V0201801N00311007801CN0160001N9+00391+00221101141ADDAY121999GF108991071071008001021999MD1210031+9999MW1021
0087011520999991951021106004+67283+014417FM-12+001399999V0201401N00311007801CN0200001N9+00391+00111101131ADDAA199005091AY121999GF108991071071008001021999IA1189KA1999N+00001MD1710011+9999MW1021
0057011520999991951021109004+67283+014417FM-12+001399999V0201101N003119999999N0400001N9+00281+00111101141ADDAY111999GF107991041081012501071001MD1310011+9999MW1011
0057011520999991951021112004+67283+014417FM-12+001399999V0201401N004119999999N0400001N9+00281+00001101181ADDAY121999GF105991021081012501041011MD1310041+9999MW1011
0057011520999991951021115004+67283+014417FM-12+001399999V0201101N004119999999N0400001N9+00281-00221101131ADDAY121999GF105991031081012501041041MD1710051+9999MW1021
0076011520999991951021118004+67283+014417FM-12+001399999V0201101N00511220001CN0600001N9+00111-00221101141ADDAY121999GF103991021081017501001011IA1189KA1999M+00501MD1310011+9999MW1011
0057011520999991951021200004+67283+014417FM-12+001399999V0201101N00411015001CN0600001N9+00001-00221101311ADDAY121999GF106991051081017501071001MD1310101+9999MW1031
0057011520999991951021203004+67283+014417FM-12+001399999V0201101N00411012301CN0600001N9+00001-00111101411ADDAY121999GF108991051071012501071999MD1310101+9999MW1021
0087011520999991951021206004+67283+014417FM-12+001399999V0201101N00311007801CN0400001N9-00111-00111101541ADDAA199000391AY181999GF108991051091008001021999IA1189KA1999N-00111MD1310131+9999MW1151
0057011520999991951021209004+67283+014417FM-12+001399999V0201601N00311007801CN0200001N9+00001+00001101641ADDAY121999GF108991051091008001041999MD1210101+9999MW1021
0057011520999991951021212004+67283+014417FM-12+001399999V0201401N00211007801CN0200001N9+00111+00001101691ADDAY181999GF107991051091008001021999MD1210051+9999MW1851
0057011520999991951021215004+67283+014417FM-12+001399999V0201601N00311007801CN0200001N9+00221+00111101691ADDAY181999GF107991051091008001061999MD1010001+9999MW1151
0106011520999991951021218004+67283+014417FM-12+001399999V0201601N002119999999N0400001N9+00001+00001101691ADDAA199000691AY181999GF105991031091008001041001IA1189KA1999M+00221MD1410001+9999MW1021EQDQ01+000032APCTEN
0078011520999991951021300004+67283+014417FM-12+001399999V0201101N00411007801CN0400001N9+00001-00111101661ADDAY121999GF108991051071008001021999MW1021EQDQ01+000032APCTENQ02+000002APC3  
0057011520999991951021303004+67283+014417FM-12+001399999V0200901N006219999999N0400001N9-00111-00221101641ADDAY121999GF105991031081008001041051MD1710021+9999MW1011
0076011520999991951021306004+67283+014417FM-12+001399999V0200901N00871220001CN0600001N9-00111-00391101681ADDAY121999GF103991021081012501041001IA1189KA1999N-00111MD1210041+9999MW1011
0076011520999991951021309004+67283+014417FM-12+001399999V0201101N00621220001CN0700001N9-00221-00721101801ADDAY101999GF101991999001999999041001MD1210121+9999MW1021EQDQ01+000002SCOTLC
0057011520999991951021312004+67283+014417FM-12+001399999V0201101N00981024001CN0700001N9-00221-00781101881ADDAY111999GF106991061001999999071001MD1210081+9999MW1031
0057011520999991951021315004+67283+014417FM-12+001399999V0201101N01081220001CN0700001N9-00221-00781101961ADDAY121999GF104991011011017501041001MD1210081+9999MW1011
0095011520999991951021318004+67283+014417FM-12+001399999V0200901N00981220001CN0400001N9-00391-01001102221ADDAY101999GF101991999001999999041001IA1189KA1999M+00111MD1210261+9999MW1021EQDQ01+000002SCOTLC
0076011520999991951021400004+67283+014417FM-12+001399999V0201101N01181220001CN0700001N9-00611-01281102401ADDAY101999GF101991999001999999041001MD1210081+9999MW1001EQDQ01+000002SCOTLC
0076011520999991951021403004+67283+014417FM-12+001399999V0201101N00981220001CN0700001N9-00611-01391102491ADDAY101999GF101991999001999999041001MD1210091+9999MW1021EQDQ01+000002SCOTLC
0095011520999991951021406004+67283+014417FM-12+001399999V0201101N01181220001CN0700001N9-00611-01501102441ADDAY101999GF101991999001999999041001IA1189KA1999N-00721MD1710051+9999MW1021EQDQ01+000002SCOTLC
0057011520999991951021409004+67283+014417FM-12+001399999V0201101N01391220001CN0700001N9-00721-01721102411ADDAY101999GF100991001001999999001001MD1710031+9999MW1021
0057011520999991951021412004+67283+014417FM-12+001399999V0201101N01491220001CN0700001N9-00721-01611102471ADDAY101999GF101991011001999999041001MD1210061+9999MW1021
0057011520999991951021415004+67283+014417FM-12+001399999V0200901N01391220001CN0700001N9-00721-01281102501ADDAY101999GF101991011011017501041001MD1210031+9999MW1021
0095011520999991951021418004+67283+014417FM-12+001399999V0201101N01181220001CN0700001N9-00721-01281102451ADDAY101999GF101991999001999999041001IA1189KA1999M-00391MD1710051+9999MW1021EQDQ01+000002SCOTLC
0057011520999991951021500004+67283+014417FM-12+001399999V0201101N01181220001CN0700001N9-00501-01111102381ADDAY101999GF100991001001999999001001MD1710041+9999MW1001
0057011520999991951021503004+67283+014417FM-12+001399999V0201101N00871220001CN0700001N9-00501-01111102361ADDAY101999GF100991001001999999001001MD1710021+9999MW1021
0095011520999991951021506004+67283+014417FM-12+001399999V0201101N00871220001CN0700001N9-00501-01111102321ADDAY101999GF101991999001999999041001IA1189KA1999N-00721MD1710041+9999MW1021EQDQ01+000002SCOTLC
0057011520999991951021509004+67283+014417FM-12+001399999V0200901N00871220001CN0700001N9-00501-01111102261ADDAY101999GF101991011001999999041011MD1710061+9999MW1021
0057011520999991951021512004+67283+014417FM-12+001399999V0200901N00821007801CN0200001N9-00391-01001102331ADDAY181999GF108991081051008001999999MD1210071+9999MW1851
0057011520999991951021515004+67283+014417FM-12+001399999V0201101N00871004501CN0200001N9-00391-00611102311ADDAY181999GF108991081081004501999999MD1710021+9999MW1151
0106011520999991951021518004+67283+014417FM-12+001399999V0201101N00721007801CN0160001N9-00281-00721102321ADDAA199000691AY181999GF108991999071008001021999IA1189KA1999M-00281MD1010011+9999MW1151EQDQ01+000082SCOTLC
0057011520999991951021600004+67283+014417FM-12+001399999V0201101N00511004501CN0200001N9-00221-00281102371ADDAY181999GF108991051091004501071999MD1210021+9999MW1021
0057011520999991951021603004+67283+014417FM-12+001399999V0200901N00621007801CN0400001N9-00221-00501102331ADDAY121999GF107991051071008001071001MD1710041+9999MW1021
0087011520999991951021606004+67283+014417FM-12+001399999V0200901N00511007801CN0400001N9-00111-00391102301ADDAA199000691AY121999GF107991051071008001051001IA1189KA1999N-00391MD1710021+9999MW1021
0057011520999991951021609004+67283+014417FM-12+001399999V0201101N00511220001CN0600001N9-00111-00391102251ADDAY111999GF103991011001999999041011MD1710051+9999MW1011
0057011520999991951021612004+67283+014417FM-12+001399999V0200901N00411220001CN0600001N9+00001-00281102111ADDAY121999GF108991001001999999001071MD1810141+9999MW1021
0057011520999991951021615004+67283+014417FM-12+001399999V0200901N003119999999N0600001N9+00001-00611101981ADDAY121999GF106991011021012501071011MD1810131+9999MW1021
0076011520999991951021618004+67283+014417FM-12+001399999V0200901N003119999999N0600001N9-00111-00781101931ADDAY121999GF106991011081012501041061IA1189KA1999M+00001MD1810051+9999MW1021
0057011520999991951021700004+67283+014417FM-12+001399999V0200901N00621220001CN0700001N9-00611-01391101711ADDAY101999GF101991001001999999001011MD1710121+9999MW1021
0057011520999991951021703004+67283+014417FM-12+001399999V0200901N00511220001CN0700001N9-00721-01281101591ADDAY101999GF102991001001999999001011MD1710121+9999MW1021
0076011520999991951021706004+67283+014417FM-12+001399999V0200901N00621220001CN0700001N9-00781-01391101401ADDAY101999GF103991001001999999041011IA1189KA1999N-01001MD1810191+9999MW1031
0057011520999991951021709004+67283+014417FM-12+001399999V0200901N00621220001CN0700001N9-00891-01501101241ADDAY101999GF101991001001999999001011MD1710161+9999MW1021
0057011520999991951021712004+67283+014417FM-12+001399999V0200901N00871220001CN0700001N9-00721-01281101031ADDAY101999GF101991001001999999001011MD1810211+9999MW1011
0057011520999991951021715004+67283+014417FM-12+001399999V0200901N00821220001CN0700001N9-00721-01281100791ADDAY101999GF101991001001999999001051MD1810241+9999MW1021
0076011520999991951021718004+67283+014417FM-12+001399999V0201101N01081220001CN0700001N9-00611-01221100451ADDAY101999GF100991001001999999001001IA1189KA1999M-00611MD1810341+9999MW1021
0076011520999991951021806004+67283+014417FM-12+001399999V0201101N00721220001CN0700001N9-00501-01111099491ADDAY101999GF100991001001999999001001IA1189KA1999N-00611MD1810231+9999MW1021
0057011520999991951021809004+67283+014417FM-12+001399999V0201101N00821220001CN0700001N9-00281-01001099351ADDAY101999GF100991001001999999001001MD1810141+9999MW1001
0057011520999991951021812004+67283+014417FM-12+001399999V0201101N00621220001CN0700001N9-00111-00721099301ADDAY101999GF100991001001999999001001MD1810051+9999MW1021
0057011520999991951021815004+67283+014417FM-12+001399999V0200901N00981220001CN0700001N9-00221-00781099141ADDAY101999GF101991011011017501041001MD1810161+9999MW1021
0076011520999991951021818004+67283+014417FM-12+001399999V0201101N00871220001CN0700001N9-00281-00891099091ADDAY101999GF102991011011017501041001IA1189KA1999M-00111MD1810051+9999MW1021
0057011520999991951021900004+67283+014417FM-12+001399999V0201101N00821220001CN0600001N9-00391-01001099131ADDAY101999GF103991021001022501041011MD1210081+9999MW1021
0057011520999991951021903004+67283+014417FM-12+001399999V0201101N00981220001CN0600001N9-00391-01001099141ADDAY101999GF104991031001017501041011MD1210011+9999MW1031
0076011520999991951021906004+67283+014417FM-12+001399999V0201101N009819999999N0400001N9-00391-00891099171ADDAY121999GF105991021081012501041001IA1189KA1999N-00611MD1210031+9999MW1031
0057011520999991951021909004+67283+014417FM-12+001399999V0201101N01291012301CN0400001N9-00501-01111099181ADDAY121999GF108991051081012501071001MD1210011+9999MW1021
0057011520999991951021912004+67283+014417FM-12+001399999V0201101N014919999999N0400001N9-00501-01111099111ADDAY121999GF105991031081012501041001MD1710071+9999MW1021
0057011520999991951021915004+67283+014417FM-12+001399999V0201101N008719999999N0200001N9-00501-01111099211ADDAY111999GF106991031081017501051021MD1210101+9999MW1101
0076011520999991951021918004+67283+014417FM-12+001399999V0201101N01131220001CN0200001N9-00501-01111099261ADDAY111999GF102991011081017501041011IA1189KA1999M-00281MD1210051+9999MW1101
0057011520999991951022000004+67283+014417FM-12+001399999V0201101N01181220001CN0600001N9-00501-01111099341ADDAY121999GF104991001001999999041011MD1210081+9999MW1021
0057011520999991951022003004+67283+014417FM-12+001399999V0200901N00871220001CN0600001N9-00391-01001099421ADDAY121999GF104991001001999999041011MD1210081+9999MW1021
0098011520999991951022006004+67283+014417FM-12+001399999V0200901N01081220001CN0600001N9-00391-00891099421ADDAY111999GF102991999001999999041001IA1189MD1410001+9999MW1011EQDQ01+000002SCOTLCQ02+000022APCTEN
0057011520999991951022009004+67283+014417FM-12+001399999V0201101N00721012301CN0400001N9-00281-00781099511ADDAY121999GF107991051081012501071001MD1210091+9999MW1031
0057011520999991951022012004+67283+014417FM-12+001399999V0201101N00981012301CN0400001N9-00221-00721099561ADDAY121999GF108991051081012501071999MD1210051+9999MW1021
0076011520999991951022015004+67283+014417FM-12+001399999V0201101N008719999999N0200001N9-00111-00721099561ADDAY111999GF107991041081012501021001MD1410001+9999MW1151EQDQ01+000022APCTEN
0076011520999991951022018004+67283+014417FM-12+001399999V0201101N00981012301CN0400001N9-00221-00721099501ADDAY121999GF107991051081012501071001IA1189KA1999M-00111MD1710061+9999MW1021
0076011520999991951022100004+67283+014417FM-12+001399999V0200901N00621220001CN0400001N9-00221-00721099631ADDAY121999GF105991999001999999041001MD1210141+9999MW1021EQDQ01+000002SCOTLC
0057011520999991951022103004+67283+014417FM-12+001399999V0201401N01181220001CN0400001N9-00221-00781099521ADDAY121999GF108991001001999999041071MD1710101+9999MW1031
0076011520999991951022106004+67283+014417FM-12+001399999V0201101N01081220001CN0400001N9-00221-00781099591ADDAY121999GF108991001001999999071999IA1189KA1999N-00281MD1210061+9999MW1021
0057011520999991951022109004+67283+014417FM-12+001399999V0201101N009819999999N0400001N9-00221-00781099641ADDAY121999GF106991021081017501041011MD1210051+9999MW1021
0057011520999991951022112004+67283+014417FM-12+001399999V0201101N00981220001CN0400001N9-00111-00721099721ADDAY121999GF103991021081017501041001MD1210081+9999MW1021
0057011520999991951022115004+67283+014417FM-12+001399999V0200901N008219999999N0600001N9-00221-00781099791ADDAY121999GF107991011081012501041071MD1210071+9999MW1021
0076011520999991951022118004+67283+014417FM-12+001399999V0200901N008719999999N0400001N9-00111-00721099831ADDAY111999GF108991041061017501011999IA1189KA1999M+00001MD1210041+9999MW1021
0057011520999991951022200004+67283+014417FM-12+001399999V0201101N008719999999N0400001N9-00111-00721099901ADDAY121999GF108991011071017501021999MD1210021+9999MW1021
0057011520999991951022203004+67283+014417FM-12+001399999V0201101N00821220001CN0400001N9+00001-00611099961ADDAY121999GF108991001001999999021999MD1210061+9999MW1021
0076011520999991951022206004+67283+014417FM-12+001399999V0201601N00621015001CN0400001N9+00111-00501099971ADDAY121999GF108991081001017501071999IA1189KA1999N-00281MD1210011+9999MW1021
0057011520999991951022209004+67283+014417FM-12+001399999V0201401N00721015001CN0400001N9+00221-00501100141ADDAY121999GF108991081001017501071999MD1210171+9999MW1021
0076011520999991951022212004+67283+014417FM-12+001399999V0201101N00981015001CN0400001N9+00111-00501100211ADDAY121999GF108991999031017501071999MD1210071+9999MW1021EQDQ01+000082SCOTLC
0076011520999991951022215004+67283+014417FM-12+001399999V0201101N008219999999N0600001N9+00221-00721100211ADDAY121999GF107991041081017501071001MD1410001+9999MW1021EQDQ01+000022APCTEN
0111011520999991951022218004+67283+014417FM-12+001399999V0201101N008719999999N0400001N9+00111-00501100241ADDAY111999GF106991031051017501071011IA1189KA1999M+00221MD1210031+9999MW1011EQDQ01+000042APCTENQ02+000032APC3  
0057011520999991951022300004+67283+014417FM-12+001399999V0201101N01081015001CN0400001N9+00001-00611100321ADDAY121999GF108991081001017501071999MD1210111+9999MW1021
0057011520999991951022303004+67283+014417FM-12+001399999V0201101N00981015001CN0400001N9-00111-00721100431ADDAY121999GF108991081001017501071999MD1210111+9999MW1021
0076011520999991951022306004+67283+014417FM-12+001399999V0201101N01081015001CN0400001N9-00111-00721100411ADDAY121999GF108991081001017501071999IA1189KA1999N-00221MD1710021+9999MW1021
0057011520999991951022309004+67283+014417FM-12+001399999V0201101N010819999999N0400001N9-00111-00721100451ADDAY121999GF108991031081017501071999MD1210041+9999MW1021
0076011520999991951022312004+67283+014417FM-12+001399999V0201101N010819999999N0400001N9-00111-00721100431ADDAY121999GF108991999001017501071999MD1710021+9999MW1021EQDQ01+000002SCOTLC
0057011520999991951022315004+67283+014417FM-12+001399999V0201101N009819999999N0400001N9-00221-00781100451ADDAY111999GF108991021081017501021999MD1210021+9999MW1021
0076011520999991951022318004+67283+014417FM-12+001399999V0201101N008219999999N0400001N9-00281-00891100481ADDAY111999GF107991021061017501021001IA1189KA1999M+00001MD1210031+9999MW1021
0057011520999991951022400004+67283+014417FM-12+001399999V0201101N00621012301CN0400001N9-00391-01001100531ADDAY121999GF108991061071012501021999MD1210041+9999MW1021
0057011520999991951022403004+67283+014417FM-12+001399999V0200901N00721220001CN0400001N9-00501-01111100501ADDAY121999GF107991001001999999021011MD1710031+9999MW1021
0095011520999991951022406004+67283+014417FM-12+001399999V0200901N00721220001CN0400001N9-00611-01221100501ADDAY111999GF101991999001999999041001IA1189KA1999N-00721MD1010001+9999MW1011EQDQ01+000002SCOTLC
0076011520999991951022409004+67283+014417FM-12+001399999V0200901N00871220001CN0400001N9-00501-01111100501ADDAY101999GF102991001001999999041011MD1410001+9999MW1021EQDQ01+000032APCTEN
0076011520999991951022412004+67283+014417FM-12+001399999V0200901N00721220001CN0400001N9-00391-01001100471ADDAY101999GF101991999001999999041001MD1710031+9999MW1021EQDQ01+000002SCOTLC
0057011520999991951022415004+67283+014417FM-12+001399999V0200901N00821220001CN0400001N9-00501-01001100391ADDAY101999GF101991001001999999001011MD1810081+9999MW1021
0076011520999991951022418004+67283+014417FM-12+001399999V0200901N00871220001CN0400001N9-00611-01111100311ADDAY101999GF102991001001999999041011IA1009KA1999M-00391MD1810081+9999MW1021
0057011520999991951022500004+67283+014417FM-12+001399999V0201101N00721220001CN0400001N9-00611-01111100231ADDAY101999GF103991001001999999041021MD1510031+9999MW1021
0057011520999991951022503004+67283+014417FM-12+001399999V0200901N00721220001CN0400001N9-00611-01111100221ADDAY101999GF103991001001999999041041MD1710021+9999MW1021
0076011520999991951022506004+67283+014417FM-12+001399999V0200901N00821220001CN0400001N9-00611-01111100181ADDAY101999GF105991001001999999041071IA1189KA1999N-00781MD1710041+9999MW1031
0057011520999991951022509004+67283+014417FM-12+001399999V0200901N00981015001CN0400001N9-00501-01111100201ADDAY121999GF107991051051017501071001MD1210021+9999MW1031
0057011520999991951022512004+67283+014417FM-12+001399999V0200901N009819999999N0400001N9-00281-00891100231ADDAY111999GF105991021051017501041051MD1210031+9999MW1011
0057011520999991951022515004+67283+014417FM-12+001399999V0200901N00721220001CN0400001N9-00221-00721100211ADDAY111999GF103991021081012501061021MD1710021+9999MW1031
0087011520999991951022518004+67283+014417FM-12+001399999V0201101N00621001501CN0038001N9-00221-00281100271ADDAA199000691AY171999GF108991081061001501999999IA1309KA1999M+00001MD1210061+9999MW1701
0057011520999991951022600004+67283+014417FM-12+001399999V0202301N00871004501CN0100001N9+00001-00111100531ADDAY181999GF106991061091004501001001MD1210191+9999MW1261
0057011520999991951022603004+67283+014417FM-12+001399999V0202301N00981004501CN0100001N9+00111+00001100691ADDAY181999GF107991071091004501001001MD1210161+9999MW1851
0087011520999991951022606004+67283+014417FM-12+001399999V0201801N00621220001CN0160001N9+00001-00111100751ADDAA199000591AY181999GF103991031091004501001001IA1309KA1999N-00221MD1210061+9999MW1151
0057011520999991951022609004+67283+014417FM-12+001399999V0202001N00821007801CN0160001N9+00111-00111100911ADDAY111999GF107991061091008001001011MD1210161+9999MW1151
0057011520999991951022612004+67283+014417FM-12+001399999V0202001N006219999999N0400001N9+00111-00501101041ADDAY121999GF107991041091008001061071MD1210131+9999MW1011
0057011520999991951022615004+67283+014417FM-12+001399999V0201801N005119999999N0400001N9+00111-00501101161ADDAY121999GF107991041091008001061001MD1210121+9999MW1021
0087011520999991951022618004+67283+014417FM-12+001399999V0201601N00511220001CN0400001N9+00001-00611101211ADDAA199000691AY111999GF103991001001999999041051IA1309KA1999M+00221MD1210051+9999MW1031
0057011520999991951022700004+67283+014417FM-12+001399999V0201401N00411007801CN0400001N9+00001-00501101251ADDAY121999GF108991071051008001999999MD1210081+9999MW1021
0057011520999991951022703004+67283+014417FM-12+001399999V0201801N004119999999N0400001N9+00111-00501101291ADDAY111999GF108991021051012501021999MD1310041+9999MW1021
0103011520999991951022706004+67283+014417FM-12+001399999V0201401N00411220001CN0400001N9+00001-00281101311ADDAA199000691AY181999GA1021+009909099GF108991041051008001021999IA1199KA1999N-00111MD1210021+9999MW1151
0057011520999991951022709004+67283+014417FM-12+001399999V0201101N00621004501CN0200001N9-00111-00221101451ADDAY181999GF108991081051004501999999MD1210141+9999MW1851
0057011520999991951022712004+67283+014417FM-12+001399999V0201101N00621004501CN0014001N9-00111-00221101491ADDAY171999GF108991081051004501999999MD1210041+9999MW1721
0076011520999991951022715004+67283+014417FM-12+001399999V0201101N00511004501CN0060001N9-00111-00111101471ADDAY171999GF108991999061004501021999MD1710021+9999MW1721EQDQ01+000082SCOTLC
0122011520999991951022718004+67283+014417FM-12+001399999V0201801N00411004501CN0014001N9+00111+00111101471ADDAA199002091AY171999GF108991999061004501021999IA1199KA1999M+00111MD1410001+9999MW1711EQDQ01+000082SCOTLCQ02+000032APCTEN
0057011520999991951022800004+67283+014417FM-12+001399999V0201601N00411220001CN0400001N9+00111-00501101341ADDAY121999GF104991021051012501071001MD1710101+9999MW1031
0057011520999991951022803004+67283+014417FM-12+001399999V0201401N00511220001CN0400001N9+00111-00721101041ADDAY121999GF104991011051012501071001MD1990301+9999MW1021
0076011520999991951022806004+67283+014417FM-12+001399999V0201801N008219999999N0700001N9+00221-00611100711ADDAY111999GF108991021051022501021999IA1199KA1999N+00001MD1990331+9999MW1031
0057011520999991951022809004+67283+014417FM-12+001399999V0201801N01181004501CN0028001N9+00111-00391100371ADDAY181999GF108991081071004501999999MD1710341+9999MW1851
0092011520999991951022812004+67283+014417FM-12+001399999V0202301N01081002401CN0140001N9+00391-00281100591ADDAY121999GF108991081071002501999999MD1210221+9999MW1841EQDQ01+000042APCTENQ02+000222APC3  
0057011520999991951022815004+67283+014417FM-12+001399999V0202701N01181002401CN0150001N9+00221+00001100821ADDAY181999GF108991081071002501999999MD1210231+9999MW1151
0087011520999991951022818004+67283+014417FM-12+001399999V0202901N00981002401CN0150001N9+00221-00221101181ADDAA199001091AY181999GF108991081071002501999999IA1199KA1999M+00391MD1210361+9999MW1151
0057011520999991951030100004+67283+014417FM-12+001399999V0202701N00621007801CN0400001N9+00221-00281101731ADDAY121999GF106991061091008001001001MD1210241+9999MW1021
0057011520999991951030103004+67283+014417FM-12+001399999V0202501N00621007801CN0400001N9+00221-00281101871ADDAY121999GF107991071091008001001001MD1210141+9999MW1021
0092011520999991951030106004+67283+014417FM-12+001399999V0201601N00511220001CN0400001N9+00221-00391101931ADDAY111999GA1021+018009039GF108991031071008001011999IA1199KA1999N+00111MD1110061+9999MW1101
0076011520999991951030109004+67283+014417FM-12+001399999V0201401N00621012301CN0400001N9+00221-00221101931ADDAY121999GF108991081051012501999999MD1410001+9999MW1021EQDQ01+000022APCTEN
0057011520999991951030112004+67283+014417FM-12+001399999V0201101N007219999999N0600001N9+00281-00111101811ADDAY121999GF106991021081012501051001MD1710121+9999MW1021
0057011520999991951030115004+67283+014417FM-12+001399999V0201101N004119999999N0600001N9+00391-00111101631ADDAY121999GF105991011081012501051001MD1710181+9999MW1021
0095011520999991951030118004+67283+014417FM-12+001399999V0201101N00311220001CN0600001N9+00281-00221101471ADDAY121999GF108991999001999999071001IA1199KA1999M+00501MD1710161+9999MW1031EQDQ01+000002SCOTLC
0076011520999991951030200004+67283+014417FM-12+001399999V0202001N008219999999N0400001N9+00611+00281101461ADDAY121999GF108991999001008001071001MD1210021+9999MW1021EQDQ01+000002SCOTLC
0057011520999991951030203004+67283+014417FM-12+001399999V0202001N008719999999N0400001N9+00611+00391101421ADDAY121999GF108991031091008001071001MD1310061+9999MW1021
0087011520999991951030206004+67283+014417FM-12+001399999V0202001N008719999999N0400001N9+00611+00391101461ADDAA199000691AY121999GF108991031071002501071001IA1189KA1999N+00281MD1310041+9999MW1151
0057011520999991951030209004+67283+014417FM-12+001399999V0202001N00981007801CN0200001N9+00611+00391101431ADDAY181999GF108991081071008001999999MD1710031+9999MW1801
0057011520999991951030212004+67283+014417FM-12+001399999V0202001N00981007801CN0200001N9+00611+00391101441ADDAY181999GF108991071071008001021999MD1210011+9999MW1021
0057011520999991951030215004+67283+014417FM-12+001399999V0202001N00981007801CN0200001N9+00611+00501101411ADDAY181999GF108991071071008001021999MD1710031+9999MW1021
0087011520999991951030218004+67283+014417FM-12+001399999V0202001N00621007801CN0200001N9+00611+00391101191ADDAA199000691AY181999GF108991071071008001021999IA1189KA1999M+00721MD1710221+9999MW1801
0057011520999991951030300004+67283+014417FM-12+001399999V0202301N01491004501CN0400001N9+00611+00281100761ADDAY121999GF108991061071004501021999MD1710301+9999MW1801
0057011520999991951030303004+67283+014417FM-12+001399999V0202301N01491001501CN0038001N9+00501+00281100641ADDAY161999GF109991091999001501999999MD1710121+9999MW1631
0087011520999991951030306004+67283+014417FM-12+001399999V0202001N01591002401CN0090001N9+00391+00281100561ADDAA199003091AY161999GF108991081071002501999999IA1189KA1999N+00281MD1710081+9999MW1631
0057011520999991951030309004+67283+014417FM-12+001399999V0202301N01491004501CN0090001N9+00391+00281100591ADDAY161999GF108991081071004501999999MD1210031+9999MW1631
0057011520999991951030312004+67283+014417FM-12+001399999V0202001N01391004501CN0090001N9+00391+00281100471ADDAY161999GF108991081061004501999999MD1610121+9999MW1631
0057011520999991951030315004+67283+014417FM-12+001399999V0202001N01291004501CN0090001N9+00501+00391100381ADDAY161999GF108991081061004501999999MD1710091+9999MW1631
0087011520999991951030318004+67283+014417FM-12+001399999V0202001N01491004501CN0070001N9+00501+00391100251ADDAA199011091AY161999GF108991081061004501999999IA1189KA1999M+00611MD1710131+9999MW1631
0057011520999991951030400004+67283+014417FM-12+001399999V0202301N01491004501CN0090001N9+00611+00501100121ADDAY161999GF108991081071004501999999MD1210041+9999MW1631
0057011520999991951030403004+67283+014417FM-12+001399999V0202301N01591004501CN0090001N9+00611+00501100191ADDAY161999GF108991081071004501999999MD1210071+9999MW1631
0087011520999991951030406004+67283+014417FM-12+001399999V0202301N01081004501CN0140001N9+00611+00501100321ADDAA199009091AY161999GF108991061071004501021999IA1089KA1999N+00501MD1210131+9999MW1211
0057011520999991951030409004+67283+014417FM-12+001399999V0202501N01081004501CN0160001N9+00611+00391100481ADDAY181999GF108991051071004501021999MD1210161+9999MW1801
0057011520999991951030412004+67283+014417FM-12+001399999V0202501N00871004501CN0090001N9+00501+00281100631ADDAY181999GF108991081071004501999999MD1210151+9999MW1811
0076011520999991951030415004+67283+014417FM-12+001399999V0202501N00871004501CN0090001N9+00391+00281100681ADDAY181999GF108991999071004501021999MD1210051+9999MW1811EQDQ01+000082SCOTLC
0106011520999991951030418004+67283+014417FM-12+001399999V0203601N00411004501CN0160001N9+00221+00111100831ADDAA199004091AY181999GF108991999071004501021999IA1109KA1999M+00721MD1210151+9999MW1151EQDQ01+000082SCOTLC
0057011520999991951030500004+67283+014417FM-12+001399999V0203601N00411004501CN0140001N9+00111-00111101121ADDAY171999GF108991081071004501999999MD1210191+9999MW1151
0057011520999991951030503004+67283+014417FM-12+001399999V0200701N00101007801CN0200001N9+00001-00221101171ADDAY121999GF106991051091008001061001MD1110051+9999MW1021
0087011520999991951030506004+67283+014417FM-12+001399999V0200701N00101002401CN0050001N9+00001-00221101111ADDAA199000591AY171999GF108991081071002501999999IA1189KA1999N-00111MD1710061+9999MW1701
0092011520999991951030509004+67283+014417FM-12+001399999V0201101N00311002401CN0160001N9+00001-00111101171ADDAY171999GF108991081071002501999999MD1210061+9999MW1221EQDQ01+000042APCTENQ02+000062APC3  
0057011520999991951030512004+67283+014417FM-12+001399999V0202301N00211002401CN0200001N9+00221+00111101281ADDAY181999GF106991061091002501001001MD1210111+9999MW1271
0057011520999991951030515004+67283+014417FM-12+001399999V0201401N00211004501CN0150001N9+00111+00001101321ADDAY181999GF108991081091004501999999MD1210041+9999MW1831
0122011520999991951030518004+67283+014417FM-12+001399999V0209991C00001004501CN0020001N9+00111+00001101361ADDAA199008091AY171999GF108991081061004501999999IA1209KA1999M+00221MD1210041+9999MW1691EQDQ01+000042APCTENQ02+000042APC3  
0057011520999991951030600004+67283+014417FM-12+001399999V0200501N00101004501CN0200001N9+00111+00001101321ADDAY111999GF108991061071004501021999MD1710031+9999MW1021
0057011520999991951030603004+67283+014417FM-12+001399999V0200901N00511004501CN0200001N9+00111+00001101241ADDAY121999GF108991061071004501021999MD1710081+9999MW1021
0087011520999991951030606004+67283+014417FM-12+001399999V0200201N00411007801CN0400001N9+00111+00001101181ADDAA199001091AY121999GF108991051071008001021999IA1209KA1999N-00111MD1710061+9999MW1021
0057011520999991951030609004+67283+014417FM-12+001399999V0200901N005119999999N0700001N9+00221+00001101161ADDAY111999GF107991011071008001071001MD1610021+9999MW1011
0057011520999991951030612004+67283+014417FM-12+001399999V0200901N005119999999N0700001N9+00221+00001101121ADDAY111999GF107991021071012501021001MD1990041+9999MW1151
0057011520999991951030615004+67283+014417FM-12+001399999V0201101N006219999999N0600001N9+00221+00111101101ADDAY161999GF108991021041008001021999MD1710021+9999MW1601
0087011520999991951030618004+67283+014417FM-12+001399999V0200701N00621007801CN0600001N9+00111+00001101141ADDAA199000691AY121999GF108991051051008001021999IA1199KA1999M+00281MD1210041+9999MW1021
0078011520999991951030700004+67283+014417FM-12+001399999V0200701N00411007801CN0600001N9+00111-00221101221ADDAY121999GF108991051071008001021999MW1021EQDQ01+000032APCTENQ02+000002APC3  
0057011520999991951030703004+67283+014417FM-12+001399999V0200901N00411007801CN0600001N9+00111-00221101281ADDAY121999GF108991051071008001021999MD1310061+9999MW1021
0076011520999991951030706004+67283+014417FM-12+001399999V0200701N00101012301CN0600001N9+00111-00221101351ADDAY121999GF108991071051012501071999IA1199KA1999N+00001MD1210071+9999MW1021
0108011520999991951030709004+67283+014417FM-12+001399999V0200701N00211220001CN0700001N9+00111-00221101461ADDAY121999GA1011+007809089GF106991031051012501071001MD1210111+9999MW1011EQDQ01+000042APCTENQ02+000112APC3  
0057011520999991951030712004+67283+014417FM-12+001399999V0200201N005119999999N0600001N9+00111-00221101571ADDAY121999GF105991041081008001051001MD1210111+9999MW1011
0057011520999991951030715004+67283+014417FM-12+001399999V0200201N00721220001CN0700001N9+00111-00281101631ADDAY101999GF102991011021012501001011MD1310061+9999MW1021
0076011520999991951030718004+67283+014417FM-12+001399999V0200201N00621220001CN0700001N9+00001-00501101781ADDAY101999GF102991021051012501001001IA1199KA1999M+00221MD1210151+9999MW1021
0057011520999991951030800004+67283+014417FM-12+001399999V0200701N00101220001CN0600001N9-00221-00721102061ADDAY101999GF100991001001999999001001MD1310161+9999MW1001
0057011520999991951030803004+67283+014417FM-12+001399999V0200901N00311220001CN0600001N9-00391-00721102171ADDAY101999GF102991021051012501001001MD1210111+9999MW1031
0076011520999991951030806004+67283+014417FM-12+001399999V0201101N00411220001CN0600001N9-00501-00781102261ADDAY101999GF102991001001999999001051IA1199KA1999N-00611MD1210091+9999MW1021
0057011520999991951030809004+67283+014417FM-12+001399999V0201101N00411220001CN0700001N9-00281-00611102351ADDAY111999GF102991011051012501001031MD1210091+9999MW1021
0057011520999991951030812004+67283+014417FM-12+001399999V0200901N00511220001CN0700001N9-00111-00501102401ADDAY111999GF103991011081012501031001MD1210051+9999MW1021
0057011520999991951030815004+67283+014417FM-12+001399999V0201101N004119999999N0700001N9-00221-00611102371ADDAY121999GF105991011091008001031001MD1710031+9999MW1021
0095011520999991951030818004+67283+014417FM-12+001399999V0200901N00411220001CN0700001N9-00281-00721102341ADDAY121999GF104991999001999999031001IA1199KA1999M-00111MD1710031+9999MW1011EQDQ01+000002SCOTLC
0057011520999991951030900004+67283+014417FM-12+001399999V0200901N00621220001CN0700001N9-00611-00891102271ADDAY101999GF100991001001999999001001MD1710041+9999MW1001
0057011520999991951030903004+67283+014417FM-12+001399999V0200901N00511220001CN0700001N9-00611-00891102211ADDAY101999GF100991001001999999001001MD1710061+9999MW1021
0095011520999991951030906004+67283+014417FM-12+001399999V0200901N00721220001CN0600001N9-00611-01001102151ADDAY101999GF101991999001999999031001IA1199KA1999N-00721MD1710061+9999MW1021EQDQ01+000002SCOTLC
0057011520999991951030909004+67283+014417FM-12+001399999V0200901N00621220001CN0700001N9-00391-00891102191ADDAY101999GF101991011081012501031001MD1210041+9999MW1021
0057011520999991951030912004+67283+014417FM-12+001399999V0201101N00621220001CN0700001N9-00221-00781102261ADDAY101999GF101991011011012501001001MD1210071+9999MW1021
0057011520999991951030915004+67283+014417FM-12+001399999V0201101N00821220001CN0700001N9-00221-00891102231ADDAY101999GF101991011021012501001001MD1710031+9999MW1021
0076011520999991951030918004+67283+014417FM-12+001399999V0201101N00621220001CN0700001N9-00391-01001102241ADDAY101999GF101991011021012501001001IA1199KA1999M-00221MD1210011+9999MW1021
0057011520999991951031000004+67283+014417FM-12+001399999V0200901N00511220001CN0700001N9-00721-01111102171ADDAY101999GF100991001001999999001001MD1710031+9999MW1001
0057011520999991951031003004+67283+014417FM-12+001399999V0200901N00511220001CN0700001N9-00781-01111102051ADDAY101999GF100991001001999999001001MD1710121+9999MW1021
0076011520999991951031006004+67283+014417FM-12+001399999V0200901N00511220001CN0700001N9-00781-01001101941ADDAY111999GF105991001001999999001041IA1199KA1999N-00891MD1710111+9999MW1031
0073011520999991951031009004+67283+014417FM-12+001399999V0201101N00411220001CN0400001N9-00611-00891101871ADDAY111999GA1021+014709059GF106991011071008001011001MD1810071+9999MW1151
0057011520999991951031012004+67283+014417FM-12+001399999V0201401N003119999999N0160001N9-00391-00611101751ADDAY171999GF108991041051008001021999MD1710121+9999MW1701
0057011520999991951031015004+67283+014417FM-12+001399999V0202701N00821007801CN0140001N9+00001-00111101501ADDAY181999GF108991081091008001999999MD1810251+9999MW1851
0087011520999991951031018004+67283+014417FM-12+001399999V0202301N00721007801CN0400001N9+00001-00111101411ADDAA199000691AY181999GF108991081091008001999999IA1199KA1999M+00001MD1710091+9999MW1021
0057011520999991951031103004+67283+014417FM-12+001399999V0202901N00511007801CN0200001N9+00001-00111100991ADDAY181999GF106991061091008001001001MD1710181+9999MW1151
0087011520999991951031106004+67283+014417FM-12+001399999V0202901N00721007801CN0400001N9+00001-00391100801ADDAA199000391AY121999GF107991051091008001001021IA1309KA1999N-00281MD1710191+9999MW1151
0057011520999991951031109004+67283+014417FM-12+001399999V0202901N00621004501CN0160001N9-00221-00281100711ADDAY181999GF107991071091004501001001MD1710091+9999MW1851
0057011520999991951031112004+67283+014417FM-12+001399999V0202901N00511004501CN0160001N9+00001-00111100611ADDAY181999GF107991071091004501001001MD1710101+9999MW1851
0057011520999991951031115004+67283+014417FM-12+001399999V0203201N00621007801CN0200001N9+00001-00221100491ADDAY181999GF107991051091008001061021MD1710121+9999MW1021
0087011520999991951031118004+67283+014417FM-12+001399999V0203201N00621004501CN0002001N9-00221-00281100401ADDAA199000591AY181999GF108991081091004501999999IA1209KA1999M+00111MD1710091+9999MW1861
0057011520999991951031200004+67283+014417FM-12+001399999V0202501N00411004501CN0090001N9-00221-00281100241ADDAY171999GF108991081051004501999999MD1710101+9999MW1701
0057011520999991951031203004+67283+014417FM-12+001399999V0201801N00621007801CN0200001N9-00221-00281100101ADDAY181999GF107991071091008001001001MD1810141+9999MW1021
0087011520999991951031206004+67283+014417FM-12+001399999V0201801N00511007801CN0400001N9-00221-00281100031ADDAA199001091AY121999GF108991051091008001071999IA1319KA1999N-00391MD1810071+9999MW1021
0057011520999991951031209004+67283+014417FM-12+001399999V0201601N00511004501CN0150001N9-00221-00391100021ADDAY181999GF108991071091004501071999MD1710011+9999MW1151
0057011520999991951031212004+67283+014417FM-12+001399999V0201801N00411007801CN0400001N9-00111-00281100061ADDAY181999GF107991061091008001071999MD1210041+9999MW1151
0057011520999991951031215004+67283+014417FM-12+001399999V0201801N003119999999N0600001N9-00111-00391100041ADDAY111999GF105991041081008001001021MD1710021+9999MW1151
0106011520999991951031218004+67283+014417FM-12+001399999V0201401N003119999999N0600001N9-00221-00611100041ADDAA199000691AY111999GF107991021091008001071071IA1309KA1999M+00001MD1410001+9999MW1151EQDQ01+000022APCTEN
0078011520999991951031300004+67283+014417FM-12+001399999V0200701N00621220001CN0400001N9-00501-00891100051ADDAY111999GF101991011041008001001001MW1011EQDQ01+000032APCTENQ02+000002APC3  
0076011520999991951031303004+67283+014417FM-12+001399999V0200901N00621220001CN0400001N9-00611-01001100081ADDAY101999GF101991999001999999041001MD1310031+9999MW1021EQDQ01+000002SCOTLC
0087011520999991951031306004+67283+014417FM-12+001399999V0200901N00821220001CN0400001N9-00721-01111100061ADDAA199000691AY101999GF102991011021008001001051IA1319KA1999N-00721MD1710021+9999MW1021
0057011520999991951031309004+67283+014417FM-12+001399999V0200901N00721220001CN0700001N9-00721-01221100151ADDAY101999GF103991011021008001001051MD1210091+9999MW1021
0076011520999991951031312004+67283+014417FM-12+001399999V0200901N00721220001CN0700001N9-00501+99999100221ADDAY101999GF102991999001999999041001MD1210071+9999MW1021EQDQ01+000002SCOTLC
0092011520999991951031315004+67283+014417FM-12+001399999V0200901N00411220001CN0700001N9-00501-01111100321ADDAY111999GF101991011081012501001001MD1210101+9999MW1021EQDQ01+000042APCTENQ02+000102APC3  
0076011520999991951031318004+67283+014417FM-12+001399999V0200901N00511220001CN0700001N9-00721-01221100421ADDAY111999GF101991011041012501001001IA1309KA1999M-00391MD1210101+9999MW1011
0078011520999991951031400004+67283+014417FM-12+001399999V0201101N00621220001CN0700001N9-00891-01221100681ADDAY101999GF100991001001999999001001MW1021EQDQ01+000042APCTENQ02+000122APC3  
0057011520999991951031403004+67283+014417FM-12+001399999V0201101N00511220001CN0700001N9-00891-01111100781ADDAY101999GF100991001001999999001001MD1310101+9999MW1021
0076011520999991951031406004+67283+014417FM-12+001399999V0201101N00511220001CN0700001N9-00781-01001100841ADDAY101999GF101991011091012501001001IA1319KA1999N-01001MD1210061+9999MW1031
0057011520999991951031409004+67283+014417FM-12+001399999V0201101N00511220001CN0400001N9-00501-00721100921ADDAY181999GF103991031091012501001001MD1210081+9999MW1151
0057011520999991951031412004+67283+014417FM-12+001399999V0201101N00411220001CN0700001N9-00281-00611101031ADDAY121999GF103991031091012501041001MD1210111+9999MW1021
0057011520999991951031415004+67283+014417FM-12+001399999V0201401N00311220001CN0600001N9-00221-00391101051ADDAY181999GF101991011091008001001001MD1010021+9999MW1021
0087011520999991951031418004+67283+014417FM-12+001399999V0200901N00411220001CN0600001N9-00391-00611101011ADDAA199000691AY181999GF102991021091008001001001IA1309KA1999M-00221MD1710041+9999MW1151
0078011520999991951031500004+67283+014417FM-12+001399999V0200901N00981220001CN0700001N9-00501-00721101051ADDAY101999GF100991001001999999001001MW1021EQDQ01+000032APCTENQ02+000002APC3  
0057011520999991951031503004+67283+014417FM-12+001399999V0201101N01081220001CN0700001N9-00391-01001101081ADDAY101999GF100991001001999999001001MD1210031+9999MW1021
0076011520999991951031506004+67283+014417FM-12+001399999V0201101N00981220001CN0700001N9-00501-01111101141ADDAY101999GF100991001001999999001001IA1319KA1999N-00721MD1110061+9999MW1021
0076011520999991951031509004+67283+014417FM-12+001399999V0201101N00721220001CN0700001N9-00501-01221101221ADDAY101999GF101991999001999999041001MD1210081+9999MW1021EQDQ01+000002SCOTLC
0076011520999991951031512004+67283+014417FM-12+001399999V0201101N00821220001CN0700001N9-00391-01221101331ADDAY101999GF102991999001999999041001MD1210111+9999MW1021EQDQ01+000002SCOTLC
0057011520999991951031515004+67283+014417FM-12+001399999V0201101N00871220001CN0700001N9-00391-01721101261ADDAY111999GF101991011021012501001011MD1610071+9999MW1021
0095011520999991951031518004+67283+014417FM-12+001399999V0200901N00821220001CN0700001N9-00611-01501101261ADDAY101999GF101991011081012501001001IA1309KA1999M-00391MD1410001+9999MW1021EQDQ01+000022APCTEN
0078011520999991951031600004+67283+014417FM-12+001399999V0200901N00821220001CN0700001N9-00781-01391101251ADDAY101999GF101991001001999999001021MW1021EQDQ01+000032APCTENQ02+000002APC3  
0057011520999991951031603004+67283+014417FM-12+001399999V0201101N00721220001CN0700001N9-00891-01501101311ADDAY101999GF100991001001999999001001MD1210061+9999MW1021
0095011520999991951031606004+67283+014417FM-12+001399999V0200901N00721220001CN0700001N9-01001-01611101311ADDAY101999GF101991001001999999001021IA1319KA1999N-01111MD1410001+9999MW1031EQDQ01+000032APCTEN
0057011520999991951031609004+67283+014417FM-12+001399999V0201101N00511220001CN0700001N9-00721-01281101361ADDAY101999GF103991001001999999041051MD1210051+9999MW1031
0057011520999991951031612004+67283+014417FM-12+001399999V0201101N00511220001CN0700001N9-00391-01111101371ADDAY101999GF103991021081012501041001MD1210011+9999MW1021
0057011520999991951031615004+67283+014417FM-12+001399999V0201801N004119999999N0400001N9-00391-01111101341ADDAY111999GF106991011081012501021071MD1710031+9999MW1151
0076011520999991951031618004+67283+014417FM-12+001399999V0201801N004119999999N0400001N9-00391-01111101331ADDAY121999GF107991021081012501021071IA1309KA1999M-00281MD1810011+9999MW1151
0078011520999991951031700004+67283+014417FM-12+001399999V0201801N005119999999N0400001N9-00501-01221101331ADDAY121999GF107991021041012501041999MW1021EQDQ01+000032APCTENQ02+000002APC3  
0057011520999991951031703004+67283+014417FM-12+001399999V0201101N005119999999N0400001N9-00721-01221101291ADDAY121999GF107991041041012501041001MD1710041+9999MW1021
0087011520999991951031706004+67283+014417FM-12+001399999V0201401N00411004501CN0014001N9-00721-00781101261ADDAA199000691AY181999GF108991081051004501999999IA1319KA1999N-00721MD1710031+9999MW1851
0076011520999991951031709004+67283+014417FM-12+001399999V0201101N00411004501CN0160001N9-00501-00721101261ADDAY181999GF107991051091004501071001MD1410001+9999MW1151EQDQ01+000032APCTEN
0057011520999991951031712004+67283+014417FM-12+001399999V0201101N00511004501CN0070001N9-00501-00611101241ADDAY181999GF108991051091004501071999MD1710021+9999MW1851
0057011520999991951031715004+67283+014417FM-12+001399999V0201401N00311007801CN0400001N9-00391-00501101121ADDAY181999GF106991051081008001001011MD1810121+9999MW1151
0087011520999991951031718004+67283+014417FM-12+001399999V0201401N00411007801CN0200001N9-00391-00611101021ADDAA199000691AY181999GF107991071081008001001001IA1319KA1999M-00391MD1810101+9999MW1151
0057011520999991951031803004+67283+014417FM-12+001399999V0200901N006219999999N0600001N9-00611-01001100601ADDAY101999GF105991021081017501051001MD1810241+9999MW1021
0076011520999991951031806004+67283+014417FM-12+001399999V0200901N006219999999N0600001N9-00501-01001100401ADDAY121999GF107991031091008001071001IA1319KA1999N-00721MD1810201+9999MW1031
0057011520999991951031809004+67283+014417FM-12+001399999V0201101N005119999999N0400001N9-00281-00891100291ADDAY121999GF107991021091008001071001MD1810111+9999MW1151
0057011520999991951031812004+67283+014417FM-12+001399999V0201601N00411004501CN0160001N9-00221-00611100171ADDAY181999GF108991051091004501021999MD1810121+9999MW1151
0057011520999991951031815004+67283+014417FM-12+001399999V0201801N00311007801CN0200001N9-00111-00501100061ADDAY121999GF107991061091008001021001MD1710111+9999MW1151
0087011520999991951031818004+67283+014417FM-12+001399999V0201601N00511007801CN0160001N9-00221-00391099961ADDAA199000691AY181999GF108991071091008001021999IA1309KA1999M-00111MD1710101+9999MW1151
0057011520999991951031900004+67283+014417FM-12+001399999V0202301N00211004501CN0018001N9-00281-00501099851ADDAY171999GF108991081001004501021999MD1710061+9999MW1701
0057011520999991951031903004+67283+014417FM-12+001399999V0201601N005119999999N0160001N9-00391-00501099801ADDAY171999GF108991021061004501021999MD1710051+9999MW1151
0087011520999991951031906004+67283+014417FM-12+001399999V0201101N00511000151CN0002001N9-00501-00611099811ADDAA199002091AY171999GF109991091999000251999999IA1319KA1999N-00611MD1210011+9999MW1731
0076011520999991951031909004+67283+014417FM-12+001399999V0200901N00621007801CN0200001N9-00391-00501099811ADDAY171999GF107991061091008001061001MD1410001+9999MW1151EQDQ01+000022APCTEN
0057011520999991951031912004+67283+014417FM-12+001399999V0201101N006219999999N0002001N9-00501-00611099861ADDAY171999GF109991091999999999999999MD1210051+9999MW1751
0057011520999991951031915004+67283+014417FM-12+001399999V0200901N00411004501CN0050001N9-00391-00501099911ADDAY171999GF108991081091004501999999MD1210051+9999MW1711
0087011520999991951031918004+67283+014417FM-12+001399999V0201801N00211004501CN0110001N9-00281-00391100041ADDAA199005091AY181999GF108991081091004501999999IA1319KA1999M-00281MD1210131+9999MW1151
0057011520999991951032000004+67283+014417FM-12+001399999V0200901N005119999999N0048001N9-00721-00891100131ADDAY181999GF105991011071004501021001MD1310141+9999MW1851
0092011520999991951032003004+67283+014417FM-12+001399999V0200901N006219999999N0200001N9-00611-01221100451ADDAY121999GF107991021071008001011001MD1210321+9999MW1151EQDQ01+000042APCTENQ02+000152APC3  
0087011520999991951032006004+67283+014417FM-12+001399999V0200901N006219999999N0200001N9-00721-01221100591ADDAA199000591AY181999GF105991041091008001001011IA1319KA1999N-00781MD1310141+9999MW1151
0057011520999991951032009004+67283+014417FM-12+001399999V0200901N00721007801CN0200001N9-00611-01001100821ADDAY181999GF107991071091008001001001MD1210231+9999MW1261
0057011520999991951032012004+67283+014417FM-12+001399999V0201101N00621007801CN0010001N9-00611-00721100961ADDAY181999GF108991081091008001999999MD1210141+9999MW1861
0057011520999991951032015004+67283+014417FM-12+001399999V0200901N00511004501CN0160001N9-00391-01001101071ADDAY181999GF107991051091004501999999MD1210111+9999MW1151
0087011520999991951032018004+67283+014417FM-12+001399999V0200901N005119999999N0400001N9-00501-01111101211ADDAA199000391AY121999GF106991021091008001061001IA1319KA1999M-00391MD1210141+9999MW1021
0057011520999991951032100004+67283+014417FM-12+001399999V0200901N00621220001CN0400001N9-00721-01221101251ADDAY101999GF100991001001999999001001MD1310011+9999MW1021
0057011520999991951032103004+67283+014417FM-12+001399999V0201101N00621220001CN0400001N9-00721-01221101201ADDAY101999GF100991001001999999001001MD1810051+9999MW1021
0111011520999991951032106004+67283+014417FM-12+001399999V0201101N00821220001CN0400001N9-00781-01281101281ADDAY101999GF102991021001022501051001IA1319KA1999N-00891MD1210081+9999MW1031EQDQ01+000042APCTENQ02+000082APC3  
0057011520999991951032109004+67283+014417FM-12+001399999V0201101N00871220001CN0700001N9-00611-01221101361ADDAY101999GF101991001001999999001011MD1210081+9999MW1021
0057011520999991951032112004+67283+014417FM-12+001399999V0200901N00621220001CN0700001N9-00391-01111101431ADDAY101999GF100991001001999999001001MD1110071+9999MW1021
0057011520999991951032115004+67283+014417FM-12+001399999V0200901N00511220001CN0700001N9-00281-01001101581ADDAY101999GF100991001001999999001001MD1210151+9999MW1021
0095011520999991951032118004+67283+014417FM-12+001399999V0200901N00511220001CN0700001N9-00611-01281101641ADDAY101999GF102991999001999999041001IA1319KA1999M-00281MD1210061+9999MW1031EQDQ01+000002SCOTLC
0057011520999991951032200004+67283+014417FM-12+001399999V0200901N00621220001CN0700001N9-00281-01281101551ADDAY101999GF100991001001999999001001MD1810061+9999MW1001
0057011520999991951032203004+67283+014417FM-12+001399999V0200901N00721220001CN0700001N9-00781-01281101351ADDAY101999GF100991001001999999001001MD1710201+9999MW1001
0095011520999991951032206004+67283+014417FM-12+001399999V0200901N00621220001CN0700001N9-00781-01281101241ADDAY101999GF101991999001999999041001IA1319KA1999N-01001MD1710111+9999MW1021EQDQ01+000002SCOTLC
0057011520999991951032209004+67283+014417FM-12+001399999V0200901N00621220001CN0700001N9-00611-01281101081ADDAY101999GF100991001001999999001001MD1710161+9999MW1021
0057011520999991951032212004+67283+014417FM-12+001399999V0201101N00411220001CN0700001N9-00391-01111100861ADDAY101999GF100991001001999999001001MD1710221+9999MW1021
0057011520999991951032215004+67283+014417FM-12+001399999V0200901N00101220001CN0700001N9-00281-01111100641ADDAY101999GF101991001001999999001011MD1810221+9999MW1021
0076011520999991951032218004+67283+014417FM-12+001399999V0203601N00621220001CN0700001N9-00221-00891100261ADDAY101999GF101991001001999999001011IA1319KA1999M-00111MD1810381+9999MW1021
0076011520999991951032300004+67283+014417FM-12+001399999V0201101N00311220001CN0700001N9-00721-01221099801ADDAY101999GF102991999001999999041001MD1710211+9999MW1031EQDQ01+000002SCOTLC
0057011520999991951032303004+67283+014417FM-12+001399999V0202001N00311000151CN0008001N9-00391-00501099431ADDAY171999GF109991091999000251999999MD1990371+9999MW1731
0087011520999991951032306004+67283+014417FM-12+001399999V0200901N00311000151CN0008001N9-00611-00611099141ADDAA199002091AY171999GF109991091999000251999999IA1319KA1999N-00781MD1810291+9999MW1741
0057011520999991951032309004+67283+014417FM-12+001399999V0201401N00211007801CN0200001N9-00391-00501098971ADDAY171999GF107991051081008001001011MD1710171+9999MW1701
0057011520999991951032312004+67283+014417FM-12+001399999V0202701N00821007801CN0030001N9+00111+00001098751ADDAY181999GF108991081091008001999999MD1710221+9999MW1861
0057011520999991951032315004+67283+014417FM-12+001399999V0202701N00511007801CN0120001N9+00001-00111098671ADDAY181999GF107991051091008001061999MD1710081+9999MW1151
0087011520999991951032318004+67283+014417FM-12+001399999V0203401N00621007801CN0150001N9+00111-00111098631ADDAA199002091AY181999GF107991051091008001061999IA1319KA1999M+00111MD1710041+9999MW1151
0057011520999991951032400004+67283+014417FM-12+001399999V0202901N00511004501CN0400001N9+00001-00111098621ADDAY181999GF106991061091004501001001MD1710011+9999MW1151
0057011520999991951032403004+67283+014417FM-12+001399999V0203401N00211004501CN0160001N9-00111-00221098591ADDAY181999GF106991061091004501001001MD1710031+9999MW1261
0122011520999991951032406004+67283+014417FM-12+001399999V0203201N00411004501CN0200001N9+00001-00111098611ADDAA199001091AY181999GF106991051091004501091001IA1319KA1999N-00221MD1210021+9999MW1151EQDQ01+000042APCTENQ02+000022APC3  
0057011520999991951032409004+67283+014417FM-12+001399999V0203201N00721004501CN0016001N9-00111-00221098601ADDAY181999GF108991081091004501999999MD1710011+9999MW1861
0092011520999991951032412004+67283+014417FM-12+001399999V0203401N00871004501CN0100001N9-00111-00221098761ADDAY181999GF108991081091004501999999MD1210161+9999MW1851EQDQ01+000042APCTENQ02+000162APC3  
0057011520999991951032415004+67283+014417FM-12+001399999V0203201N01081004501CN0160001N9+00111-00221098851ADDAY181999GF106991051091004501999999MD1210091+9999MW1151
0087011520999991951032418004+67283+014417FM-12+001399999V0202901N01081004501CN0100001N9+00111+00001098971ADDAA199001091AY181999GF108991081091004501999999IA1319KA1999M+00221MD1210121+9999MW1851
0057011520999991951032503004+67283+014417FM-12+001399999V0202701N00981007801CN0400001N9+00111-00391099231ADDAY121999GF107991071071008001999999MD1210051+9999MW1021
0122011520999991951032506004+67283+014417FM-12+001399999V0202301N00411007801CN0400001N9-00221-00281099291ADDAA199000591AY181999GF107991071091008001001001IA1319KA1999N-00281MD1210061+9999MW1261EQDQ01+000042APCTENQ02+000062APC3  
0057011520999991951032509004+67283+014417FM-12+001399999V0202301N007219999999N0400001N9+00111-00281099341ADDAY181999GF107991041021008001061031MD1210051+9999MW1261
0057011520999991951032512004+67283+014417FM-12+001399999V0202301N00511007801CN0200001N9+00111-00391099501ADDAY121999GF107991051091008001061031MD1210161+9999MW1151
