0057011520999991958010100004+67267+014367FM-12+001099999V0201001N005719999999N0700001N9-01061+99999100011ADDAY101999GF101991011051012501001001MD1210041+9999MW1021
0043011520999991958010101004+67267+014367FM-12+001099999V0201001N00511220001CN0700001N9+99999+99999999999ADDAY101999GF100991001001999999001001MW1011
0043011520999991958010102004+67267+014367FM-12+001099999V0201101N00721220001CN0700001N9+99999+99999999999ADDAY101999GF100991001001999999001001MW1021
0057011520999991958010103004+67267+014367FM-12+001099999V0201101N00621220001CN0700001N9-01111+99999100101ADDAY101999GF100991001001999999001001MD1210091+9999MW1021
0043011520999991958010104004+67267+014367FM-12+001099999V0201001N00721220001CN0700001N9+99999+99999999999ADDAY101999GF100991001001999999001001MW1021
0043011520999991958010105004+67267+014367FM-12+001099999V0201001N00621220001CN0700001N9+99999+99999999999ADDAY101999GF100991001001999999001001MW1021
0089011520999991958010106004+67267+014367FM-12+001099999V0201001N00621220001CN0700001N9-01061+99999100131ADDAY101999GF100991001001999999001001IA1009KA1999M-00891KA2999N-01111MD1210031+9999MW1021
0043011520999991958010107004+67267+014367FM-12+001099999V0201101N006219999999N0700001N9+99999+99999999999ADDAY101999GF101991011051012501041011MW1031
0043011520999991958010108004+67267+014367FM-12+001099999V0201001N006219999999N0700001N9+99999+99999999999ADDAY101999GF101991011051012501041011MW1021
0057011520999991958010109004+67267+014367FM-12+001099999V0201101N006219999999N0700001N9-01111+99999100301ADDAY101999GF102991011051012501041011MD1210171+9999MW1031
0043011520999991958010110004+67267+014367FM-12+001099999V0201001N006219999999N0700001N9+99999+99999999999ADDAY101999GF103991011051012501041011MW1031
0043011520999991958010111004+67267+014367FM-12+001099999V0201001N006219999999N0700001N9+99999+99999999999ADDAY101999GF103991011051012501041011MW1021
0057011520999991958010112004+67267+014367FM-12+001099999V0201001N007219999999N0700001N9-01111+99999100441ADDAY101999GF103991011051012501041011MD1210141+9999MW1021
0043011520999991958010113004+67267+014367FM-12+001099999V0201101N006219999999N0700001N9+99999+99999999999ADDAY101999GF103991011051012501041011MW1021
0043011520999991958010114004+67267+014367FM-12+001099999V0201101N005719999999N0700001N9+99999+99999999999ADDAY101999GF101991011051012501001011MW1011
0057011520999991958010115004+67267+014367FM-12+001099999V0201101N006219999999N0700001N9-01111+99999100521ADDAY101999GF101991011051012501041011MD1210081+9999MW1021
0043011520999991958010116004+67267+014367FM-12+001099999V0201101N006719999999N0700001N9+99999+99999999999ADDAY101999GF101991011051012501041001MW1021
0043011520999991958010117004+67267+014367FM-12+001099999V0201201N005719999999N0700001N9+99999+99999999999ADDAY101999GF101991011051012501041001MW1021
0083011520999991958010118004+67267+014367FM-12+001099999V0201101N005119999999N0700001N9-01171+99999100611ADDAY101999GF101991011051012501041001KA1999M-01061KA2999N-01171MD1210091+9999MW1021
0043011520999991958010119004+67267+014367FM-12+001099999V0201001N005119999999N0700001N9+99999+99999999999ADDAY101999GF102991011051012501041001MW1031
0043011520999991958010120004+67267+014367FM-12+001099999V0201101N005119999999N0700001N9+99999+99999999999ADDAY101999GF102991011051012501041011MW1021
0043011520999991958010121004+67267+014367FM-12+001099999V0201101N006219999999N0700001N9+99999+99999100741ADDAY101999GF103991011051012501041051MW1031
0043011520999991958010122004+67267+014367FM-12+001099999V0201001N005119999999N0700001N9+99999+99999999999ADDAY111999GF105991011051012501041061MW1031
0043011520999991958010123004+67267+014367FM-12+001099999V0201001N006219999999N0700001N9+99999+99999999999ADDAY121999GF106991011051012501041061MW1031
0057011520999991958010200004+67267+014367FM-12+001099999V0201101N004619999999N0700001N9-01061+99999100861ADDAY111999GF106991011051012501041061MD1210121+9999MW1021
0043011520999991958010201004+67267+014367FM-12+001099999V0201001N005119999999N0700001N9+99999+99999999999ADDAY121999GF106991011051012501041061MW1021
0043011520999991958010202004+67267+014367FM-12+001099999V0201001N004619999999N0700001N9+99999+99999999999ADDAY121999GF104991011051012501031061MW1011
0057011520999991958010203004+67267+014367FM-12+001099999V0201001N006219999999N0700001N9-01061+99999100971ADDAY111999GF102991011051012501031011MD1210111+9999MW1011
0043011520999991958010204004+67267+014367FM-12+001099999V0201101N006219999999N0700001N9+99999+99999999999ADDAY101999GF102991011051012501031011MW1021
0043011520999991958010205004+67267+014367FM-12+001099999V0201101N006219999999N0700001N9+99999+99999999999ADDAY101999GF102991011051012501031011MW1021
0089011520999991958010206004+67267+014367FM-12+001099999V0201101N005119999999N0700001N9-01001+99999101061ADDAY111999GF102991011051012501031011IA1009KA1999M-00941KA2999N-01171MD1210091+9999MW1021
0043011520999991958010207004+67267+014367FM-12+001099999V0201101N006719999999N0700001N9+99999+99999999999ADDAY101999GF104991011051012501071011MW1031
0043011520999991958010208004+67267+014367FM-12+001099999V0201101N006719999999N0700001N9+99999+99999999999ADDAY111999GF106991011051012501021999MW1031
0057011520999991958010209004+67267+014367FM-12+001099999V0201101N006719999999N0700001N9-00891+99999101241ADDAY111999GF107991011051008001021999MD1210181+9999MW1031
0043011520999991958010210004+67267+014367FM-12+001099999V0201101N007219999999N0700001N9+99999+99999999999ADDAY121999GF107991011051008001021071MW1021
0043011520999991958010211004+67267+014367FM-12+001099999V0201101N007719999999N0700001N9+99999+99999999999ADDAY121999GF107991011011008001001071MW1021
0057011520999991958010212004+67267+014367FM-12+001099999V0201101N006219999999N0700001N9-00891+99999101341ADDAY111999GF105991011011008001001071MD1210101+9999MW1011
0043011520999991958010213004+67267+014367FM-12+001099999V0201101N006719999999N0700001N9+99999+99999999999ADDAY121999GF105991011011008001071071MW1021
0043011520999991958010214004+67267+014367FM-12+001099999V0201101N006219999999N0700001N9+99999+99999999999ADDAY121999GF106991011081008001071071MW1031
0057011520999991958010215004+67267+014367FM-12+001099999V0201101N006219999999N0700001N9-01001+99999101491ADDAY121999GF106991011021008001071071MD1210151+9999MW1021
0043011520999991958010216004+67267+014367FM-12+001099999V0201101N006219999999N0700001N9+99999+99999999999ADDAY121999GF106991011021008001071071MW1021
0043011520999991958010217004+67267+014367FM-12+001099999V0201101N007219999999N0700001N9+99999+99999999999ADDAY121999GF106991011021008001071071MW1021
0083011520999991958010218004+67267+014367FM-12+001099999V0201101N007219999999N0700001N9-00941+99999101621ADDAY121999GF106991011021008001031071KA1999M-00831KA2999N-01001MD1210131+9999MW1021
0043011520999991958010219004+67267+014367FM-12+001099999V0201101N00821007801CN0700001N9+99999+99999999999ADDAY121999GF107991071081008001031999MW1031
0043011520999991958010220004+67267+014367FM-12+001099999V0201101N00721007801CN0150001N9+99999+99999999999ADDAY121999GF108991081081008001999999MW1151
0043011520999991958010221004+67267+014367FM-12+001099999V0201101N00721007801CN0200001N9+99999+99999101761ADDAY181999GF107991071081008001999999MW1261
0043011520999991958010222004+67267+014367FM-12+001099999V0201101N00821007801CN0200001N9+99999+99999999999ADDAY121999GF107991071081008001999999MW1151
0043011520999991958010223004+67267+014367FM-12+001099999V0201101N00721004501CN0060001N9+99999+99999999999ADDAY181999GF108991081081004501999999MW1851
0057011520999991958010300004+67267+014367FM-12+001099999V0201101N00671007801CN0120001N9-00781+99999101881ADDAY181999GF107991071081008001999999MD1210121+9999MW1261
0043011520999991958010301004+67267+014367FM-12+001099999V0201101N00771007801CN0150001N9+99999+99999999999ADDAY121999GF105991051081008001999999MW1151
0043011520999991958010302004+67267+014367FM-12+001099999V0201101N00671007801CN0200001N9+99999+99999999999ADDAY121999GF106991061081008001999999MW1151
0057011520999991958010303004+67267+014367FM-12+001099999V0201101N00621004501CN0150001N9-00781+99999101971ADDAY121999GF106991061091004501999999MD1210091+9999MW1151
0043011520999991958010304004+67267+014367FM-12+001099999V0201101N00511004501CN0150001N9+99999+99999999999ADDAY181999GF107991071091004501999999MW1261
0043011520999991958010305004+67267+014367FM-12+001099999V0201101N00511007801CN0150001N9+99999+99999999999ADDAY181999GF105991051021008001999999MW1271
0100011520999991958010306004+67267+014367FM-12+001099999V0201101N00511012301CN0200001N9-00781+99999102091ADDAA199000691AY181999GF105991051081012501999999IA1009KA1999M-00721KA2999N-00941MD1210121+9999MW1261
0043011520999991958010307004+67267+014367FM-12+001099999V0201001N006719999999N0250001N9+99999+99999999999ADDAY111999GF103991021081008001041011MW1151
0043011520999991958010308004+67267+014367FM-12+001099999V0201101N006219999999N0200001N9+99999+99999999999ADDAY111999GF105991031081008001041021MW1151
0057011520999991958010309004+67267+014367FM-12+001099999V0201101N006219999999N0200001N9-00781+99999102251ADDAY111999GF107991031081008001021021MD1210161+9999MW1151
0043011520999991958010310004+67267+014367FM-12+001099999V0201101N006219999999N0180001N9+99999+99999999999ADDAY121999GF107991041061004501071999MW1151
0043011520999991958010311004+67267+014367FM-12+001099999V0201101N00511004501CN0015001N9+99999+99999999999ADDAY181999GF109991091999004501999999MW1861
0057011520999991958010312004+67267+014367FM-12+001099999V0201101N005119999999N0500001N9-00611+99999102331ADDAY181999GF106991041061004501061999MD1110081+9999MW1261
0043011520999991958010313004+67267+014367FM-12+001099999V0201001N00621004501CN0010001N9+99999+99999999999ADDAY181999GF109991091999004501999999MW1861
0062011520999991958010314004+67267+014367FM-12+001099999V0200901N00621004501CN0060001N9+99999+99999999999ADDAY181999GF108991999091004501061999MW1851EQDQ01+000082SCOTLC
0057011520999991958010315004+67267+014367FM-12+001099999V0201001N00771004501CN0010001N9-00611+99999102431ADDAY181999GF109991091999004501999999MD1210101+9999MW1861
0043011520999991958010316004+67267+014367FM-12+001099999V0201001N00821004501CN0020001N9+99999+99999999999ADDAY181999GF108991081091004501999999MW1851
0043011520999991958010317004+67267+014367FM-12+001099999V0201001N00511007801CN0250001N9+99999+99999999999ADDAY181999GF107991071081008001999999MW1261
0094011520999991958010318004+67267+014367FM-12+001099999V0201001N006219999999N0300001N9-00781+99999102551ADDAA199001091AY181999GF102991021081008001001001KA1999M-00561KA2999N-00781MD1210121+9999MW1011
0043011520999991958010319004+67267+014367FM-12+001099999V0201001N005119999999N0600001N9+99999+99999999999ADDAY101999GF102991021081008001001001MW1021
0043011520999991958010320004+67267+014367FM-12+001099999V0201101N005119999999N0600001N9+99999+99999999999ADDAY101999GF101991011081008001001001MW1011
0043011520999991958010321004+67267+014367FM-12+001099999V0201001N006219999999N0700001N9+99999+99999102611ADDAY101999GF101991011011008001001001MW1021
0043011520999991958010322004+67267+014367FM-12+001099999V0201001N006219999999N0700001N9+99999+99999999999ADDAY101999GF101991011011008001001001MW1021
0043011520999991958010323004+67267+014367FM-12+001099999V0201001N006719999999N0700001N9+99999+99999999999ADDAY101999GF101991011011008001001001MW1021
0057011520999991958010400004+67267+014367FM-12+001099999V0201001N006219999999N0700001N9-00941+99999102581ADDAY101999GF101991011011008001001001MD1710031+9999MW1021
0043011520999991958010401004+67267+014367FM-12+001099999V0201001N006219999999N0700001N9+99999+99999999999ADDAY101999GF101991011011012501001001MW1021
0043011520999991958010402004+67267+014367FM-12+001099999V0201001N007219999999N0700001N9+99999+99999999999ADDAY101999GF101991011011012501041001MW1021
0057011520999991958010403004+67267+014367FM-12+001099999V0200901N008219999999N0700001N9-00941+99999102481ADDAY101999GF101991011011008001001001MD1710101+9999MW1021
0043011520999991958010404004+67267+014367FM-12+001099999V0201101N006719999999N0700001N9+99999+99999999999ADDAY101999GF101991011011008001041011MW1021
0043011520999991958010405004+67267+014367FM-12+001099999V0201001N008219999999N0700001N9+99999+99999999999ADDAY101999GF101991011081008001041011MW1021
0089011520999991958010406004+67267+014367FM-12+001099999V0201101N008719999999N0700001N9-00941+99999102391ADDAY101999GF101991011051008001041011IA1009KA1999M-00721KA2999N-00941MD1710091+9999MW1021
0043011520999991958010407004+67267+014367FM-12+001099999V0201101N009319999999N0700001N9+99999+99999999999ADDAY101999GF101991011001999999041041MW1021
0043011520999991958010408004+67267+014367FM-12+001099999V0201101N01031220001CN0700001N9+99999+99999999999ADDAY101999GF101991001001999999001041MW1021
0057011520999991958010409004+67267+014367FM-12+001099999V0201101N00821220001CN0700001N9-00941+99999102361ADDAY101999GF101991001001999999001041MD1710031+9999MW1021
0043011520999991958010410004+67267+014367FM-12+001099999V0201101N01031220001CN0700001N9+99999+99999999999ADDAY101999GF101991001001999999001041MW1021
0043011520999991958010411004+67267+014367FM-12+001099999V0201101N00931220001CN0700001N9+99999+99999999999ADDAY101999GF101991001001999999001041MW1021
0057011520999991958010412004+67267+014367FM-12+001099999V0201101N00931220001CN0700001N9-00831+99999102181ADDAY101999GF101991001001999999001041MD1710181+9999MW1021
0043011520999991958010413004+67267+014367FM-12+001099999V0201001N008219999999N0700001N9+99999+99999999999ADDAY101999GF101991011051012501001041MW1021
0043011520999991958010414004+67267+014367FM-12+001099999V0201101N008219999999N0700001N9+99999+99999999999ADDAY101999GF101991011051012501001041MW1021
0057011520999991958010415004+67267+014367FM-12+001099999V0201001N009319999999N0700001N9-00831+99999102121ADDAY101999GF101991011051012501001021MD1710061+9999MW1021
0043011520999991958010416004+67267+014367FM-12+001099999V0201101N009319999999N0700001N9+99999+99999999999ADDAY101999GF101991011051012501001021MW1021
0043011520999991958010417004+67267+014367FM-12+001099999V0201001N009319999999N0700001N9+99999+99999999999ADDAY101999GF101991011051012501001011MW1021
0083011520999991958010418004+67267+014367FM-12+001099999V0201001N00931220001CN0700001N9-00891+99999101961ADDAY101999GF100991001001999999001001KA1999M-00781KA2999N-00941MD1710161+9999MW1011
0043011520999991958010419004+67267+014367FM-12+001099999V0201001N01031220001CN0700001N9+99999+99999999999ADDAY101999GF100991001001999999001001MW1021
0043011520999991958010420004+67267+014367FM-12+001099999V0201001N01031220001CN0700001N9+99999+99999999999ADDAY101999GF100991001001999999001001MW1021
0043011520999991958010421004+67267+014367FM-12+001099999V0201001N01131220001CN0700001N9+99999+99999999999ADDAY101999GF100991001001999999001001MW1021
0043011520999991958010422004+67267+014367FM-12+001099999V0201001N01031220001CN0700001N9+99999+99999999999ADDAY101999GF100991001001999999001001MW1021
0043011520999991958010423004+67267+014367FM-12+001099999V0201001N00931220001CN0700001N9+99999+99999999999ADDAY101999GF100991001001999999001001MW1021
0057011520999991958010500004+67267+014367FM-12+001099999V0201101N01031220001CN0700001N9-00781+99999101671ADDAY101999GF100991001001999999001001MD1710151+9999MW1021
0043011520999991958010501004+67267+014367FM-12+001099999V0201101N01131220001CN0700001N9+99999+99999999999ADDAY101999GF100991001001999999001001MW1021
0043011520999991958010502004+67267+014367FM-12+001099999V0201101N01131220001CN0700001N9+99999+99999999999ADDAY101999GF100991001001999999001001MW1021
0057011520999991958010503004+67267+014367FM-12+001099999V0201101N010319999999N0700001N9-00721+99999101471ADDAY101999GF101991011051012501001001MD1710201+9999MW1031
0043011520999991958010504004+67267+014367FM-12+001099999V0201101N013419999999N0700001N9+99999+99999999999ADDAY101999GF101991011081012501001021MW1021
0043011520999991958010505004+67267+014367FM-12+001099999V0201101N01341220001CN0700001N9+99999+99999999999ADDAY101999GF101991001001999999001051MW1021
0043011520999991958010507004+67267+014367FM-12+001099999V0201301N009319999999N0700001N9+99999+99999999999ADDAY131999GF102991011051012501041051MW1031
0043011520999991958010508004+67267+014367FM-12+001099999V0201301N011319999999N0700001N9+99999+99999999999ADDAY101999GF102991011051012501041051MW1021
0057011520999991958010509004+67267+014367FM-12+001099999V0201401N016519999999N0700001N9-00611+99999101111ADDAY131999GF104991011051012501041051MD1610181+9999MW1361
0043011520999991958010510004+67267+014367FM-12+001099999V0201501N017519999999N0700001N9+99999+99999999999ADDAY131999GF103991011051012501041051MW1361
0043011520999991958010511004+67267+014367FM-12+001099999V0201501N011319999999N0700001N9+99999+99999999999ADDAY131999GF103991011051012501041051MW1021
0057011520999991958010512004+67267+014367FM-12+001099999V0201301N009319999999N0700001N9-00391+99999100931ADDAY131999GF103991011051012501041051MD1710181+9999MW1021
0043011520999991958010513004+67267+014367FM-12+001099999V0201501N008719999999N0700001N9+99999+99999999999ADDAY101999GF103991011051012501041011MW1021
0043011520999991958010514004+67267+014367FM-12+001099999V0201501N008219999999N0700001N9+99999+99999999999ADDAY101999GF103991011051012501041011MW1021
0057011520999991958010515004+67267+014367FM-12+001099999V0201501N011319999999N0700001N9-00391+99999100791ADDAY131999GF103991011051012501041011MD1710141+9999MW1361
0083011520999991958010518004+67267+014367FM-12+001099999V0201101N017519999999N0700001N9-00501+99999100721ADDAY131999GF103991011051012501041011KA1999M-00281KA2999N-00611MD1710071+9999MW1361
0043011520999991958010520004+67267+014367FM-12+001099999V0201201N013419999999N0700001N9+99999+99999999999ADDAY131999GF103991011051012501041011MW1361
0043011520999991958010521004+67267+014367FM-12+001099999V0201301N017519999999N0700001N9+99999+99999999999ADDAY131999GF103991011051012501041011MW1361
0057011520999991958010600004+67267+014367FM-12+001099999V0201301N018019999999N0700001N9-00501+99999100501ADDAY131999GF101991011051008001041001MD1710101+9999MW1361
0043011520999991958010601004+67267+014367FM-12+001099999V0201301N019519999999N0700001N9+99999+99999999999ADDAY131999GF101991011051008001041001MW1361
0043011520999991958010602004+67267+014367FM-12+001099999V0201401N020619999999N0700001N9+99999+99999999999ADDAY131999GF101991011051008001041001MW1361
0057011520999991958010603004+67267+014367FM-12+001099999V0201301N019519999999N0700001N9-00501+99999100341ADDAY131999GF101991011051008001041001MD1710161+9999MW1361
0043011520999991958010604004+67267+014367FM-12+001099999V0201301N018519999999N0700001N9+99999+99999999999ADDAY131999GF101991011051008001041001MW1021
0043011520999991958010605004+67267+014367FM-12+001099999V0201301N017519999999N0700001N9+99999+99999999999ADDAY101999GF101991011051008001041001MW1021
0089011520999991958010606004+67267+014367FM-12+001099999V0201401N015419999999N0700001N9-00611+99999100441ADDAY131999GF101991011051008001041001IA1009KA1999M-00501KA2999N-00721MD1310101+9999MW1361
0043011520999991958010607004+67267+014367FM-12+001099999V0201501N018519999999N0700001N9+99999+99999999999ADDAY131999GF101991011051008001041001MW1361
0043011520999991958010608004+67267+014367FM-12+001099999V0201501N017519999999N0700001N9+99999+99999999999ADDAY131999GF101991011051008001041001MW1361
0057011520999991958010609004+67267+014367FM-12+001099999V0201301N017519999999N0700001N9-00671+99999100561ADDAY131999GF103991011051008001041011MD1210121+9999MW1361
0043011520999991958010610004+67267+014367FM-12+001099999V0201401N015419999999N0700001N9+99999+99999999999ADDAY131999GF102991011051008001041011MW1021
0043011520999991958010611004+67267+014367FM-12+001099999V0201301N014419999999N0700001N9+99999+99999999999ADDAY121999GF102991011051008001041011MW1021
0057011520999991958010612004+67267+014367FM-12+001099999V0201301N015419999999N0700001N9-00721+99999100611ADDAY131999GF103991011051008001041011MD1210051+9999MW1021
0043011520999991958010613004+67267+014367FM-12+001099999V0201301N014419999999N0700001N9+99999+99999999999ADDAY101999GF103991011051008001041051MW1021
0043011520999991958010614004+67267+014367FM-12+001099999V0201201N013419999999N0700001N9+99999+99999999999ADDAY101999GF103991011051008001051051MW1021
0057011520999991958010615004+67267+014367FM-12+001099999V0201101N014419999999N0700001N9-00891+99999100691ADDAY101999GF102991011051008001051001MD1010081+9999MW1011
0043011520999991958010616004+67267+014367FM-12+001099999V0201101N015419999999N0700001N9+99999+99999999999ADDAY101999GF102991011051008001051001MW1021
0043011520999991958010617004+67267+014367FM-12+001099999V0201101N016519999999N0700001N9+99999+99999999999ADDAY101999GF102991011051008001051001MW1021
0083011520999991958010618004+67267+014367FM-12+001099999V0201101N021619999999N0700001N9-00831+99999100591ADDAY131999GF102991011051008001051001KA1999M-00501KA2999N-00891MD1710101+9999MW1361
0043011520999991958010620004+67267+014367FM-12+001099999V0201101N020619999999N0700001N9+99999+99999999999ADDAY131999GF102991011051008001051001MW1361
0043011520999991958010621004+67267+014367FM-12+001099999V0201301N020619999999N0700001N9+99999+99999999999ADDAY131999GF102991011051008001051001MW1361
0043011520999991958010622004+67267+014367FM-12+001099999V0201101N020619999999N0700001N9+99999+99999999999ADDAY131999GF102991011051008001051001MW1361
0043011520999991958010623004+67267+014367FM-12+001099999V0201101N023719999999N0700001N9+99999+99999999999ADDAY131999GF102991011051008001051001MW1361
0076011520999991958010700004+67267+014367FM-12+001099999V0201101N02371220001CN0700001N9-01221+99999100821ADDAY131999GF101991999001999999041001MD1310071+9999MW1021EQDQ01+000002SCOTLC
0062011520999991958010701004+67267+014367FM-12+001099999V0201101N02571220001CN0700001N9+99999+99999999999ADDAY101999GF101991999001999999041001MW1021EQDQ01+000002SCOTLC
0062011520999991958010702004+67267+014367FM-12+001099999V0201101N02161220001CN0700001N9+99999+99999999999ADDAY101999GF101991999001999999041001MW1021EQDQ01+000002SCOTLC
0076011520999991958010703004+67267+014367FM-12+001099999V0201101N02161220001CN0700001N9-01221+99999100721ADDAY101999GF101991999001999999041001MD1710101+9999MW1021EQDQ01+000002SCOTLC
0062011520999991958010704004+67267+014367FM-12+001099999V0201101N01851220001CN0700001N9+99999+99999999999ADDAY101999GF101991999001999999041001MW1021EQDQ01+000002SCOTLC
0062011520999991958010705004+67267+014367FM-12+001099999V0201101N01751220001CN0700001N9+99999+99999999999ADDAY101999GF101991999001999999041001MW1021EQDQ01+000002SCOTLC
0089011520999991958010706004+67267+014367FM-12+001099999V0201101N017519999999N0700001N9-01061+99999100871ADDAY101999GF101991011051012501041001IA1009KA1999M-00831KA2999N-01281MD1310151+9999MW1021
0043011520999991958010707004+67267+014367FM-12+001099999V0201101N018019999999N0700001N9+99999+99999999999ADDAY101999GF101991011051012501041001MW1021
0057011520999991958010709004+67267+014367FM-12+001099999V0201101N018019999999N0700001N9-01001+99999100911ADDAY101999GF101991011051012501041001MD1210041+9999MW1021
0043011520999991958010710004+67267+014367FM-12+001099999V0201101N017519999999N0700001N9+99999+99999999999ADDAY101999GF101991011051012501041001MW1021
0043011520999991958010713004+67267+014367FM-12+001099999V0201101N015419999999N0700001N9+99999+99999999999ADDAY101999GF101991011051012501001001MW1021
0043011520999991958010714004+67267+014367FM-12+001099999V0201201N013919999999N0700001N9+99999+99999999999ADDAY101999GF101991011051012501001001MW1021
0057011520999991958010715004+67267+014367FM-12+001099999V0201201N014919999999N0700001N9-01111+99999101061ADDAY101999GF101991011051012501001001MD1210111+9999MW1021
0043011520999991958010716004+67267+014367FM-12+001099999V0201201N014419999999N0700001N9+99999+99999999999ADDAY101999GF101991011051012501001001MW1021
0083011520999991958010718004+67267+014367FM-12+001099999V0201201N011319999999N0700001N9-01001+99999101101ADDAY101999GF101991011051012501001001KA1999M-00941KA2999N-01111MD1110051+9999MW1021
0043011520999991958010719004+67267+014367FM-12+001099999V0201101N012319999999N0700001N9+99999+99999999999ADDAY101999GF101991011051012501001001MW1021
0043011520999991958010720004+67267+014367FM-12+001099999V0201101N011319999999N0700001N9+99999+99999999999ADDAY101999GF101991011051012501001001MW1021
0043011520999991958010721004+67267+014367FM-12+001099999V0201101N011819999999N0700001N9+99999+99999999999ADDAY101999GF101991011051012501001001MW1021
0043011520999991958010722004+67267+014367FM-12+001099999V0201101N010319999999N0700001N9+99999+99999999999ADDAY101999GF101991011051012501001001MW1021
0043011520999991958010723004+67267+014367FM-12+001099999V0201101N011319999999N0700001N9+99999+99999999999ADDAY101999GF101991011051012501001001MW1021
0057011520999991958010800004+67267+014367FM-12+001099999V0201001N011319999999N0700001N9-01111+99999101041ADDAY101999GF101991011051012501001001MD1810061+9999MW1021
0043011520999991958010801004+67267+014367FM-12+001099999V0201001N011319999999N0700001N9+99999+99999999999ADDAY101999GF101991011051012501001001MW1021
0043011520999991958010802004+67267+014367FM-12+001099999V0201001N010319999999N0700001N9+99999+99999999999ADDAY101999GF101991011051012501001001MW1021
0076011520999991958010803004+67267+014367FM-12+001099999V0200901N01231220001CN0700001N9-01171+99999100991ADDAY101999GF101991999001999999041001MD1710051+9999MW1021EQDQ01+000002SCOTLC
0062011520999991958010804004+67267+014367FM-12+001099999V0201001N00931220001CN0700001N9+99999+99999999999ADDAY101999GF101991999001999999041001MW1021EQDQ01+000002SCOTLC
0043011520999991958010805004+67267+014367FM-12+001099999V0200901N008219999999N0700001N9+99999+99999999999ADDAY101999GF101991011081008001041001MW1021
0089011520999991958010806004+67267+014367FM-12+001099999V0200901N007219999999N0700001N9-01221+99999100911ADDAY101999GF101991011081008001001001IA1009KA1999M-00941KA2999N-01221MD1710081+9999MW1021
0043011520999991958010807004+67267+014367FM-12+001099999V0201001N010319999999N0700001N9+99999+99999999999ADDAY101999GF101991011081008001001001MW1021
0043011520999991958010808004+67267+014367FM-12+001099999V0201001N009319999999N0700001N9+99999+99999999999ADDAY101999GF101991011081008001001001MW1021
0057011520999991958010809004+67267+014367FM-12+001099999V0200901N008219999999N0700001N9-01221+99999100841ADDAY101999GF101991011081008001041001MD1710071+9999MW1021
0043011520999991958010810004+67267+014367FM-12+001099999V0201001N008219999999N0700001N9+99999+99999999999ADDAY101999GF102991011081008001041001MW1031
0043011520999991958010811004+67267+014367FM-12+001099999V0200901N008219999999N0700001N9+99999+99999999999ADDAY101999GF102991011081008001041001MW1021
0057011520999991958010812004+67267+014367FM-12+001099999V0200901N008219999999N0700001N9-01171+99999100721ADDAY111999GF107991011081008001011071MD1710121+9999MW1031
0043011520999991958010813004+67267+014367FM-12+001099999V0200901N007719999999N0700001N9+99999+99999999999ADDAY121999GF107991011081008001071071MW1021
0043011520999991958010814004+67267+014367FM-12+001099999V0201001N007719999999N0700001N9+99999+99999999999ADDAY121999GF107991011081008001071071MW1021
0057011520999991958010815004+67267+014367FM-12+001099999V0200901N008219999999N0600001N9-01171+99999100561ADDAY121999GF107991011081008001071071MD1710161+9999MW1021
0043011520999991958010816004+67267+014367FM-12+001099999V0200901N007219999999N0600001N9+99999+99999999999ADDAY121999GF107991011051008001071071MW1021
0043011520999991958010817004+67267+014367FM-12+001099999V0200901N007219999999N0600001N9+99999+99999999999ADDAY121999GF107991031051008001071999MW1021
0083011520999991958010818004+67267+014367FM-12+001099999V0200901N007219999999N0500001N9-01111+99999100391ADDAY121999GF108991031051008001071999KA1999M-01111KA2999N-01281MD1710171+9999MW1031
0043011520999991958010819004+67267+014367FM-12+001099999V0201001N007219999999N0600001N9+99999+99999999999ADDAY121999GF105991021051008001071071MW1011
0043011520999991958010820004+67267+014367FM-12+001099999V0200901N008719999999N0700001N9+99999+99999999999ADDAY111999GF103991011051008001071071MW1011
0043011520999991958010821004+67267+014367FM-12+001099999V0200901N008219999999N0700001N9+99999+99999999999ADDAY101999GF102991011051008001041071MW1011
0043011520999991958010822004+67267+014367FM-12+001099999V0201001N007719999999N0700001N9+99999+99999999999ADDAY101999GF101991011051008001041001MW1011
0043011520999991958010823004+67267+014367FM-12+001099999V0201001N009319999999N0700001N9+99999+99999999999ADDAY101999GF101991011051008001001001MW1021
0057011520999991958010900004+67267+014367FM-12+001099999V0200901N009319999999N0700001N9-01171+99999100061ADDAY111999GF101991011051008001001001MD1710151+9999MW1021
0043011520999991958010901004+67267+014367FM-12+001099999V0200901N008719999999N0700001N9+99999+99999999999ADDAY101999GF101991011051008001001001MW1021
0043011520999991958010902004+67267+014367FM-12+001099999V0201001N007719999999N0700001N9+99999+99999999999ADDAY101999GF101991011051008001001011MW1021
0057011520999991958010903004+67267+014367FM-12+001099999V0201001N008719999999N0700001N9-01281+99999099851ADDAY101999GF101991011051008001001001MD1710211+9999MW1021
0043011520999991958010904004+67267+014367FM-12+001099999V0201001N009819999999N0700001N9+99999+99999999999ADDAY101999GF103991011051008001031071MW1031
0043011520999991958010905004+67267+014367FM-12+001099999V0201001N010819999999N0700001N9+99999+99999999999ADDAY111999GF107991041051008001071999MW1031
0089011520999991958010906004+67267+014367FM-12+001099999V0201001N010319999999N0700001N9-01281+99999099631ADDAY121999GF105991021051012501071071IA1009KA1999M-01061KA2999N-01281MD1610221+9999MW1011
0043011520999991958010907004+67267+014367FM-12+001099999V0201101N010319999999N0700001N9+99999+99999999999ADDAY121999GF106991021051012501071071MW1031
0043011520999991958010908004+67267+014367FM-12+001099999V0201001N011319999999N0700001N9+99999+99999999999ADDAY121999GF106991021051012501071071MW1021
0057011520999991958010909004+67267+014367FM-12+001099999V0201001N012319999999N0700001N9-01391+99999099421ADDAY121999GF105991011051012501071021MD1710211+9999MW1011
0043011520999991958010910004+67267+014367FM-12+001099999V0201001N014419999999N0700001N9+99999+99999999999ADDAY121999GF105991011051012501071021MW1021
0043011520999991958010911004+67267+014367FM-12+001099999V0201001N009319999999N0700001N9+99999+99999999999ADDAY121999GF105991011051012501071021MW1021
0057011520999991958010912004+67267+014367FM-12+001099999V0201001N011319999999N0700001N9-01391+99999099281ADDAY121999GF105991011051012501071021MD1710141+9999MW1021
0043011520999991958010913004+67267+014367FM-12+001099999V0201001N011319999999N0700001N9+99999+99999999999ADDAY121999GF105991011051012501021021MW1021
0043011520999991958010914004+67267+014367FM-12+001099999V0201001N01231007801CN0700001N9+99999+99999999999ADDAY121999GF107991061051008001021999MW1031
0057011520999991958010915004+67267+014367FM-12+001099999V0201001N01291007801CN0700001N9-01331+99999098981ADDAY121999GF107991061051008001021999MD1710301+9999MW1021
0043011520999991958010916004+67267+014367FM-12+001099999V0201001N01291007801CN0600001N9+99999+99999999999ADDAY121999GF108991071051008001021999MW1031
0043011520999991958010917004+67267+014367FM-12+001099999V0201101N01291001501CN0010001N9+99999+99999999999ADDAY171999GF109991091999001501999999MW1731
0094011520999991958010918004+67267+014367FM-12+001099999V0201101N01231001501CN0002001N9-01281+99999098791ADDAA199000391AY171999GF109991091999001501999999KA1999M-01221KA2999N-01561MD1710191+9999MW1751
0043011520999991958010919004+67267+014367FM-12+001099999V0201101N01341001501CN0005001N9+99999+99999999999ADDAY171999GF109991091999001501999999MW1731
0043011520999991958010920004+67267+014367FM-12+001099999V0201101N01131001501CN0005001N9+99999+99999999999ADDAY171999GF109991091999001501999999MW1731
0043011520999991958010921004+67267+014367FM-12+001099999V0201101N01031001501CN0010001N9+99999+99999999999ADDAY171999GF109991091999001501999999MW1711
0043011520999991958010922004+67267+014367FM-12+001099999V0201201N00931002401CN0050001N9+99999+99999999999ADDAY171999GF108991071061002501021999MW1711
0043011520999991958010923004+67267+014367FM-12+001099999V0201201N01081002401CN0035001N9+99999+99999999999ADDAY171999GF108991071061002501021999MW1711
0057011520999991958011000004+67267+014367FM-12+001099999V0201901N00621000601CN0005001N9-00561+99999098531ADDAY171999GF109991091999000751999999MD1510031+9999MW1721
0043011520999991958011001004+67267+014367FM-12+001099999V0202301N01341002401CN0200001N9+99999+99999999999ADDAY171999GF108991071061002501021999MW1151
0043011520999991958011002004+67267+014367FM-12+001099999V0202401N01541007801CN0200001N9+99999+99999999999ADDAY131999GF108991071051008001021999MW1361
0057011520999991958011003004+67267+014367FM-12+001099999V0202401N01231007801CN0250001N9-00501+99999098561ADDAY171999GF108991071051008001021999MD1210031+9999MW1021
0043011520999991958011004004+67267+014367FM-12+001099999V0202401N01131007801CN0300001N9+99999+99999999999ADDAY121999GF107991051051008001021999MW1011
0043011520999991958011005004+67267+014367FM-12+001099999V0202401N00621007801CN0400001N9+99999+99999999999ADDAY121999GF106991051051008001071011MW1011
0094011520999991958011006004+67267+014367FM-12+001099999V0201301N007219999999N0700001N9-00331+99999098561ADDAA199003091AY171999GF105991021051008001041011KA1999M-00331KA2999N-01281MD1410001+9999MW1011
0043011520999991958011007004+67267+014367FM-12+001099999V0201301N007219999999N0700001N9+99999+99999999999ADDAY121999GF105991021051008001041011MW1021
0043011520999991958011008004+67267+014367FM-12+001099999V0201301N010319999999N0700001N9+99999+99999999999ADDAY111999GF103991021051008001041999MW1011
0057011520999991958011009004+67267+014367FM-12+001099999V0201301N01031220001CN0550001N9-00671+99999098531ADDAY111999GF106991001001999999071071MD1710031+9999MW1031
0043011520999991958011010004+67267+014367FM-12+001099999V0201101N00871220001CN0600001N9+99999+99999999999ADDAY121999GF108991001001999999071071MW1031
0043011520999991958011011004+67267+014367FM-12+001099999V0201101N007719999999N0700001N9+99999+99999999999ADDAY121999GF108991011051008001071071MW1021
0057011520999991958011012004+67267+014367FM-12+001099999V0201101N008219999999N0700001N9-00561+99999098511ADDAY121999GF108991011051008001071071MD1710021+9999MW1021
0043011520999991958011013004+67267+014367FM-12+001099999V0201001N005119999999N0700001N9+99999+99999999999ADDAY121999GF108991011051008001071071MW1021
0043011520999991958011014004+67267+014367FM-12+001099999V0201001N005719999999N0700001N9+99999+99999999999ADDAY121999GF108991011051008001071071MW1021
0057011520999991958011015004+67267+014367FM-12+001099999V0201201N004619999999N0700001N9-00561+99999098541ADDAY121999GF106991021051008001021071MD1110031+9999MW1011
0043011520999991958011016004+67267+014367FM-12+001099999V0201001N009319999999N0700001N9+99999+99999999999ADDAY111999GF103991021051008001021001MW1011
0043011520999991958011017004+67267+014367FM-12+001099999V0201101N010319999999N0700001N9+99999+99999999999ADDAY101999GF102991021051008001001001MW1011
0083011520999991958011018004+67267+014367FM-12+001099999V0201001N012319999999N0700001N9-00831+99999098521ADDAY101999GF102991021051008001001001KA1999M-00281KA2999N-00891MD1710021+9999MW1021
0043011520999991958011019004+67267+014367FM-12+001099999V0201101N013419999999N0700001N9+99999+99999999999ADDAY131999GF102991021051008001001001MW1361
0043011520999991958011020004+67267+014367FM-12+001099999V0201101N013419999999N0700001N9+99999+99999999999ADDAY131999GF102991021051008001001001MW1361
0043011520999991958011021004+67267+014367FM-12+001099999V0201101N015419999999N0700001N9+99999+99999098511ADDAY131999GF102991021051008001001001MW1361
0043011520999991958011022004+67267+014367FM-12+001099999V0201101N015419999999N0700001N9+99999+99999999999ADDAY131999GF102991021051008001001001MW1361
0043011520999991958011023004+67267+014367FM-12+001099999V0201101N016519999999N0200001N9+99999+99999999999ADDAY131999GF105991021051008001021001MW1381
0057011520999991958011109004+67267+014367FM-12+001099999V0201201N008219999999N0250001N9-00331+99999098121ADDAY121999GF105991021051012501021999MD1410001+9999MW1011
0043011520999991958011110004+67267+014367FM-12+001099999V0201101N015419999999N0600001N9+99999+99999999999ADDAY121999GF107991031051012501041071MW1031
0043011520999991958011111004+67267+014367FM-12+001099999V0201101N015419999999N0600001N9+99999+99999999999ADDAY121999GF107991041051012501041071MW1021
0057011520999991958011112004+67267+014367FM-12+001099999V0201101N011319999999N0700001N9-00221+99999098201ADDAY121999GF107991041051012501071071MD1210081+9999MW1021
0043011520999991958011113004+67267+014367FM-12+001099999V0201201N011319999999N0700001N9+99999+99999999999ADDAY121999GF107991041051012501071071MW1021
0043011520999991958011114004+67267+014367FM-12+001099999V0201101N013919999999N0700001N9+99999+99999999999ADDAY121999GF107991031051012501071999MW1021
0057011520999991958011115004+67267+014367FM-12+001099999V0201101N01131015001CN0700001N9-00441+99999098371ADDAY121999GF108991051051017501071999MD1210171+9999MW1031
0043011520999991958011116004+67267+014367FM-12+001099999V0201101N01231015001CN0700001N9+99999+99999999999ADDAY121999GF108991051051017501071999MW1021
0043011520999991958011117004+67267+014367FM-12+001099999V0201101N01541015001CN0700001N9+99999+99999999999ADDAY121999GF108991051051017501071999MW1021
0083011520999991958011118004+67267+014367FM-12+001099999V0201101N01131015001CN0700001N9-00221+99999098571ADDAY121999GF108991061051017501071999KA1999M-00221KA2999N-00671MD1210201+9999MW1021
0043011520999991958011119004+67267+014367FM-12+001099999V0201201N00931015001CN0700001N9+99999+99999999999ADDAY121999GF107991061051017501071999MW1011
0043011520999991958011120004+67267+014367FM-12+001099999V0201301N00931015001CN0700001N9+99999+99999999999ADDAY121999GF108991061051017501071999MW1031
0043011520999991958011121004+67267+014367FM-12+001099999V0201201N00931015001CN0700001N9+99999+99999999999ADDAY121999GF108991061051017501071999MW1021
0043011520999991958011122004+67267+014367FM-12+001099999V0201201N009319999999N0700001N9+99999+99999999999ADDAY121999GF108991031051017501071999MW1021
0043011520999991958011123004+67267+014367FM-12+001099999V0201201N009319999999N0700001N9+99999+99999999999ADDAY121999GF108991031051017501071999MW1021
0057011520999991958011200004+67267+014367FM-12+001099999V0201201N008219999999N0700001N9-00111+99999099101ADDAY121999GF108991031051017501071999MD1210281+9999MW1021
0043011520999991958011201004+67267+014367FM-12+001099999V0201201N013419999999N0700001N9+99999+99999999999ADDAY121999GF108991031051017501071999MW1021
0043011520999991958011202004+67267+014367FM-12+001099999V0201101N013419999999N0700001N9+99999+99999999999ADDAY121999GF108991031051017501071999MW1021
0057011520999991958011203004+67267+014367FM-12+001099999V0201201N010319999999N0700001N9-00061+99999099371ADDAY121999GF108991031051017501071999MD1210271+9999MW1021
0043011520999991958011204004+67267+014367FM-12+001099999V0201201N006219999999N0700001N9+99999+99999999999ADDAY121999GF108991031051017501071999MW1021
0043011520999991958011205004+67267+014367FM-12+001099999V0201401N006219999999N0700001N9+99999+99999999999ADDAY121999GF108991031051017501071999MW1021
0083011520999991958011206004+67267+014367FM-12+001099999V0201501N007219999999N0700001N9+00001+99999099671ADDAY121999GF108991031051017501071999KA1999M+00001KA2999N-00221MD1210301+9999MW1021
0043011520999991958011207004+67267+014367FM-12+001099999V0201401N007219999999N0600001N9+99999+99999999999ADDAY121999GF107991031051017501071999MW1011
0043011520999991958011208004+67267+014367FM-12+001099999V0201201N006219999999N0500001N9+99999+99999999999ADDAY121999GF107991041051017501071999MW1021
0057011520999991958011209004+67267+014367FM-12+001099999V0201201N006219999999N0600001N9+00061+99999099951ADDAY121999GF107991031051017501071999MD1210281+9999MW1021
0043011520999991958011210004+67267+014367FM-12+001099999V0201101N007719999999N0600001N9+99999+99999999999ADDAY121999GF107991011051017501071071MW1021
0043011520999991958011211004+67267+014367FM-12+001099999V0201101N005719999999N0600001N9+99999+99999999999ADDAY121999GF107991011021008001071071MW1021
0057011520999991958011212004+67267+014367FM-12+001099999V0201101N007719999999N0600001N9+00061+99999100191ADDAY121999GF107991011081008001071071MD1210241+9999MW1021
0043011520999991958011213004+67267+014367FM-12+001099999V0201101N007719999999N0600001N9+99999+99999999999ADDAY121999GF107991011081012501071071MW1021
0043011520999991958011214004+67267+014367FM-12+001099999V0201101N010319999999N0550001N9+99999+99999999999ADDAY121999GF108991011081012501071011MW1031
0057011520999991958011215004+67267+014367FM-12+001099999V0201501N011319999999N0550001N9+00111+99999100341ADDAY121999GF106991011081012501071011MD1310151+9999MW1011
0043011520999991958011216004+67267+014367FM-12+001099999V0201101N010319999999N0550001N9+99999+99999999999ADDAY111999GF103991011051012501071011MW1011
0043011520999991958011217004+67267+014367FM-12+001099999V0201401N00931220001CN0700001N9+99999+99999999999ADDAY101999GF102991001001999999071011MW1011
0083011520999991958011218004+67267+014367FM-12+001099999V0201401N00621220001CN0700001N9+00061+99999100531ADDAY111999GF103991001001999999071011KA1999M+00171KA2999N+00001MD1210211+9999MW1031
0043011520999991958011219004+67267+014367FM-12+001099999V0201201N009319999999N0550001N9+99999+99999999999ADDAY111999GF105991011051012501071071MW1031
0043011520999991958011220004+67267+014367FM-12+001099999V0201101N006219999999N0550001N9+99999+99999999999ADDAY121999GF105991011051012501071071MW1021
0043011520999991958011221004+67267+014367FM-12+001099999V0201201N006719999999N0550001N9+99999+99999999999ADDAY121999GF108991021051012501071071MW1031
0043011520999991958011222004+67267+014367FM-12+001099999V0201301N006219999999N0550001N9+99999+99999999999ADDAY121999GF105991021051012501071071MW1011
0043011520999991958011223004+67267+014367FM-12+001099999V0201101N006719999999N0550001N9+99999+99999999999ADDAY121999GF108991021051012501071071MW1031
0076011520999991958011300004+67267+014367FM-12+001099999V0201101N006219999999N0400001N9-00061+99999999999ADDAY111999GF108991011051012501021999MD1210131+9999MW1021EQDQ01+101823APOSLP
0043011520999991958011301004+67267+014367FM-12+001099999V0201101N005119999999N0300001N9+99999+99999999999ADDAY121999GF108991041051012501021999MW1021
0043011520999991958011302004+67267+014367FM-12+001099999V0201401N00461012301CN0250001N9+99999+99999999999ADDAY121999GF108991071051012501021999MW1021
0057011520999991958011303004+67267+014367FM-12+001099999V0201601N00621012301CN0150001N9+00061+99999100941ADDAY121999GF108991071051012501021999MD1210121+9999MW1151
0043011520999991958011304004+67267+014367FM-12+001099999V0201501N00461004501CN0080001N9+99999+99999999999ADDAY171999GF108991071001004501021999MW1681
0043011520999991958011305004+67267+014367FM-12+001099999V0201301N00621004501CN0080001N9+99999+99999999999ADDAY171999GF108991051001004501021999MW1711
0094011520999991958011306004+67267+014367FM-12+001099999V0201201N00621004501CN0100001N9-00111+99999101211ADDAA199000391AY171999GF108991061001004501021999KA1999M+00061KA2999N-00111MD1210271+9999MW1711
0043011520999991958011307004+67267+014367FM-12+001099999V0201101N00621007801CN0050001N9+99999+99999999999ADDAY171999GF108991081001008001021999MW1711
0043011520999991958011308004+67267+014367FM-12+001099999V0201101N00721004501CN0200001N9+99999+99999999999ADDAY171999GF108991071051004501021999MW1221
0057011520999991958011309004+67267+014367FM-12+001099999V0201101N00671004501CN0018001N9-00111+99999101481ADDAY181999GF109991091999004501999999MD1210271+9999MW1861
0043011520999991958011310004+67267+014367FM-12+001099999V0201201N00511002401CN0010001N9+99999+99999999999ADDAY181999GF109991091999002501999999MW1861
0043011520999991958011311004+67267+014367FM-12+001099999V0201201N00721004501CN0350001N9+99999+99999999999ADDAY181999GF108991081091004501999999MW1851
0057011520999991958011312004+67267+014367FM-12+001099999V0202101N00511004501CN0030001N9-00111+99999101711ADDAY181999GF108991081091004501999999MD1210231+9999MW1851
0043011520999991958011313004+67267+014367FM-12+001099999V0201301N00411004501CN0250001N9+99999+99999999999ADDAY181999GF106991051081004501999061MW1261
0043011520999991958011314004+67267+014367FM-12+001099999V0201901N00261004501CN0100001N9+99999+99999999999ADDAY181999GF108991071021004501999061MW1261
0057011520999991958011315004+67267+014367FM-12+001099999V0201201N00571004501CN0250001N9-00061+99999101851ADDAY181999GF108991071021004501999061MD1110141+9999MW1151
0043011520999991958011316004+67267+014367FM-12+001099999V0201101N00721007801CN0250001N9+99999+99999999999ADDAY121999GF107991071021008001999061MW1151
0043011520999991958011317004+67267+014367FM-12+001099999V0201201N00571007801CN0250001N9+99999+99999999999ADDAY121999GF107991071021008001999061MW1151
0094011520999991958011318004+67267+014367FM-12+001099999V0201101N00821007801CN0300001N9+00001+99999101861ADDAA199002091AY181999GF107991071021008001999999KA1999M+00111KA2999N-00171MD1210011+9999MW1151
0043011520999991958011319004+67267+014367FM-12+001099999V0201101N00721007801CN0300001N9+99999+99999999999ADDAY121999GF107991071081008001999999MW1151
0043011520999991958011320004+67267+014367FM-12+001099999V0201101N00571007801CN0300001N9+99999+99999999999ADDAY121999GF107991071081008001999999MW1151
0043011520999991958011321004+67267+014367FM-12+001099999V0201401N00411007801CN0300001N9+99999+99999999999ADDAY121999GF107991071081008001999999MW1151
0043011520999991958011322004+67267+014367FM-12+001099999V0201501N00571007801CN0300001N9+99999+99999999999ADDAY121999GF108991081081008001999999MW1021
0043011520999991958011323004+67267+014367FM-12+001099999V0201701N00621007801CN0300001N9+99999+99999999999ADDAY121999GF108991081081008001999999MW1021
0057011520999991958011400004+67267+014367FM-12+001099999V0201701N00671007801CN0300001N9+00221+99999101731ADDAY121999GF108991051051008001031999MD1810111+9999MW1021
0043011520999991958011401004+67267+014367FM-12+001099999V0201701N00721012301CN0300001N9+99999+99999999999ADDAY121999GF108991061051012501031999MW1021
0043011520999991958011402004+67267+014367FM-12+001099999V0201601N00721012301CN0300001N9+99999+99999999999ADDAY121999GF108991071051012501071999MW1021
0057011520999991958011403004+67267+014367FM-12+001099999V0201601N00571007801CN0250001N9+00281+99999101501ADDAY171999GF108991081051008001999999MD1710201+9999MW1221
0043011520999991958011404004+67267+014367FM-12+001099999V0201701N00771007801CN0250001N9+99999+99999999999ADDAY121999GF108991081051008001999999MW1021
0043011520999991958011405004+67267+014367FM-12+001099999V0201701N00671007801CN0150001N9+99999+99999999999ADDAY161999GF108991081051008001999999MW1621
0100011520999991958011406004+67267+014367FM-12+001099999V0201501N00671007801CN0150001N9+00391+99999101261ADDAA199000691AY171999GF108991081051008001999999IA1009KA1999M+00391KA2999N-00061MD1710241+9999MW1621
0043011520999991958011407004+67267+014367FM-12+001099999V0201501N00721007801CN0150001N9+99999+99999999999ADDAY161999GF108991071051008001021999MW1611
0043011520999991958011408004+67267+014367FM-12+001099999V0201901N00821004501CN0200001N9+99999+99999999999ADDAY161999GF108991071051004501021999MW1611
0057011520999991958011409004+67267+014367FM-12+001099999V0202001N01031004501CN0200001N9+00391+99999101051ADDAY161999GF108991071051004501021999MD1710211+9999MW1611
0043011520999991958011410004+67267+014367FM-12+001099999V0202001N00931004501CN0200001N9+99999+99999999999ADDAY161999GF108991071051004501021999MW1611
0043011520999991958011411004+67267+014367FM-12+001099999V0202101N00821004501CN0400001N9+99999+99999999999ADDAY161999GF108991071051004501021999MW1211
0057011520999991958011412004+67267+014367FM-12+001099999V0202101N00931004501CN0400001N9+00441+99999100821ADDAY161999GF108991071051004501021999MD1710231+9999MW1151
0043011520999991958011413004+67267+014367FM-12+001099999V0202201N01031004501CN0350001N9+99999+99999999999ADDAY161999GF108991071051004501021999MW1601
0043011520999991958011414004+67267+014367FM-12+001099999V0202301N01391004501CN0150001N9+99999+99999999999ADDAY161999GF108991071051004501021999MW1611
0057011520999991958011415004+67267+014367FM-12+001099999V0202401N01541004501CN0150001N9+00441+99999100811ADDAY161999GF108991071051004501021999MD1510011+9999MW1611
0043011520999991958011416004+67267+014367FM-12+001099999V0202401N01291004501CN0090001N9+99999+99999999999ADDAY161999GF108991081061004501999999MW1621
0043011520999991958011417004+67267+014367FM-12+001099999V0202401N01291004501CN0070001N9+99999+99999999999ADDAY161999GF108991081061004501999999MW1631
0094011520999991958011418004+67267+014367FM-12+001099999V0202501N01031002401CN0080001N9+00281+99999100961ADDAA199002091AY161999GF108991081061002501999999KA1999M+00441KA2999N+00281MD1210151+9999MW1631
0043011520999991958011419004+67267+014367FM-12+001099999V0203001N00931004501CN0100001N9+99999+99999999999ADDAY161999GF108991071061004501999999MW1211
0062011520999991958011420004+67267+014367FM-12+001099999V0202801N007719999999N0200001N9+99999+99999999999ADDAY121999GF105991999021008001001001MW1011EQDQ01+000032SCOTLC
0043011520999991958011421004+67267+014367FM-12+001099999V0202901N00621004501CN0120001N9+99999+99999999999ADDAY181999GF108991071091004501999999MW1261
0043011520999991958011422004+67267+014367FM-12+001099999V0202901N00871004501CN0200001N9+99999+99999999999ADDAY121999GF107991061091004501999999MW1151
0043011520999991958011423004+67267+014367FM-12+001099999V0203001N01031004501CN0130001N9+99999+99999999999ADDAY181999GF108991071091004501999999MW1261
0057011520999991958011500004+67267+014367FM-12+001099999V0203101N008219999999N0250001N9+00171+99999101371ADDAY181999GF102991021091004501001001MD1210201+9999MW1261
0043011520999991958011501004+67267+014367FM-12+001099999V0203101N00671004501CN0250001N9+99999+99999999999ADDAY181999GF105991051091004501001001MW1271
0043011520999991958011502004+67267+014367FM-12+001099999V0202901N00671007801CN0250001N9+99999+99999999999ADDAY121999GF108991081081008001999999MW1151
0057011520999991958011503004+67267+014367FM-12+001099999V0202801N005119999999N0250001N9+00111+99999101521ADDAY181999GF102991021021008001001001MD1210151+9999MW1011
0043011520999991958011504004+67267+014367FM-12+001099999V0203101N00461004501CN0250001N9+99999+99999999999ADDAY181999GF106991061091004501001001MW1271
0043011520999991958011505004+67267+014367FM-12+001099999V0203101N005719999999N0250001N9+99999+99999999999ADDAY121999GF106991041021008001041999MW1021
0094011520999991958011506004+67267+014367FM-12+001099999V0202601N004119999999N0300001N9+00171+99999101611ADDAA199001091AY181999GF104991031081012501041001KA1999M+00391KA2999N+00061MD1110091+9999MW1011
0043011520999991958011507004+67267+014367FM-12+001099999V0202301N005719999999N0400001N9+99999+99999999999ADDAY121999GF104991031081012501041001MW1021
0043011520999991958011508004+67267+014367FM-12+001099999V0202101N006219999999N0400001N9+99999+99999999999ADDAY121999GF104991031081012501041001MW1021
0057011520999991958011509004+67267+014367FM-12+001099999V0202301N00621012301CN0400001N9+00221+99999101661ADDAY121999GF106991061081012501041011MD1210051+9999MW1151
0043011520999991958011510004+67267+014367FM-12+001099999V0202201N00621004501CN0500001N9+99999+99999999999ADDAY121999GF106991061081004501061999MW1151
0043011520999991958011511004+67267+014367FM-12+001099999V0202001N00511007801CN0500001N9+99999+99999999999ADDAY121999GF107991071081008001999999MW1031
0057011520999991958011512004+67267+014367FM-12+001099999V0202001N00511012301CN0500001N9+00221+99999101541ADDAY121999GF108991071081012501061999MD1710121+9999MW1031
0043011520999991958011513004+67267+014367FM-12+001099999V0201801N00461012301CN0500001N9+99999+99999999999ADDAY121999GF107991071051012501999999MW1011
0043011520999991958011514004+67267+014367FM-12+001099999V0201401N00411004501CN0400001N9+99999+99999999999ADDAY121999GF108991071051004501021999MW1151
0057011520999991958011515004+67267+014367FM-12+001099999V0201901N00511007801CN0400001N9+00331+99999101291ADDAY121999GF108991061051008001021999MD1710251+9999MW1021
0043011520999991958011516004+67267+014367FM-12+001099999V0202101N00671007801CN0400001N9+99999+99999999999ADDAY121999GF108991061051008001021999MW1021
0043011520999991958011517004+67267+014367FM-12+001099999V0202001N00461007801CN0400001N9+99999+99999999999ADDAY121999GF108991071051008001021999MW1021
0083011520999991958011518004+67267+014367FM-12+001099999V0202101N00821007801CN0300001N9+00391+99999100891ADDAY121999GF108991071051008001021999KA1999M+00391KA2999N+00111MD1710401+9999MW1021
0043011520999991958011519004+67267+014367FM-12+001099999V0202001N00511007801CN0300001N9+99999+99999999999ADDAY121999GF108991071051008001021999MW1021
0043011520999991958011520004+67267+014367FM-12+001099999V0201901N00721007801CN0300001N9+99999+99999999999ADDAY161999GF108991071051008001021999MW1601
0043011520999991958011521004+67267+014367FM-12+001099999V0201901N00621007801CN0300001N9+99999+99999999999ADDAY161999GF108991071051008001021999MW1211
0043011520999991958011522004+67267+014367FM-12+001099999V0201801N00771007801CN0300001N9+99999+99999999999ADDAY121999GF108991081051008001999999MW1021
0043011520999991958011523004+67267+014367FM-12+001099999V0202001N01131007801CN0300001N9+99999+99999999999ADDAY121999GF108991081051008001999999MW1021
0092011520999991958011600004+67267+014367FM-12+001099999V0202201N01231007801CN0300001N9+00501+99999099682ADDAY161999GF108991081051008001999999MD1710542+9999MW1601EQDQ01+099683APOSLPQ02+000542APC3  
0043011520999991958011601004+67267+014367FM-12+001099999V0202401N02061007801CN0200001N9+99999+99999999999ADDAY161999GF108991081051008001999999MW1601
0043011520999991958011602004+67267+014367FM-12+001099999V0202501N01951002401CN0200001N9+99999+99999999999ADDAY161999GF108991081061002501999999MW1151
0057011520999991958011603004+67267+014367FM-12+001099999V0202501N01851004501CN0200001N9+00561+99999099501ADDAY181999GF108991081091004501999999MD1710181+9999MW1271
0043011520999991958011604004+67267+014367FM-12+001099999V0202501N01951004501CN0200001N9+99999+99999999999ADDAY181999GF108991081081004501999999MW1811
0043011520999991958011605004+67267+014367FM-12+001099999V0202401N01951004501CN0200001N9+99999+99999999999ADDAY181999GF108991081081004501999999MW1811
0094011520999991958011606004+67267+014367FM-12+001099999V0202401N01851004501CN0200001N9+00441+99999099151ADDAA199000391AY181999GF108991081081004501999999KA1999M+00611KA2999N+00281MD1710351+9999MW1251
0043011520999991958011607004+67267+014367FM-12+001099999V0202601N01851004501CN0100001N9+99999+99999999999ADDAY181999GF108991081031004501999999MW1881
0043011520999991958011608004+67267+014367FM-12+001099999V0202601N01541004501CN0200001N9+99999+99999999999ADDAY181999GF108991081031004501999999MW1271
0057011520999991958011609004+67267+014367FM-12+001099999V0202701N01541004501CN0200001N9+00221+99999099071ADDAY181999GF107991071031004501999999MD1510081+9999MW1271
0043011520999991958011610004+67267+014367FM-12+001099999V0202701N01951007801CN0250001N9+99999+99999999999ADDAY121999GF107991061081008001071999MW1151
0043011520999991958011611004+67267+014367FM-12+001099999V0202701N01801004501CN0200001N9+99999+99999999999ADDAY121999GF107991061031004501071999MW1151
0057011520999991958011612004+67267+014367FM-12+001099999V0202801N01541004501CN0200001N9+00221+99999099031ADDAY181999GF107991071091004501999999MD1710041+9999MW1271
0043011520999991958011613004+67267+014367FM-12+001099999V0202801N01751007801CN0300001N9+99999+99999999999ADDAY121999GF108991081091008001999999MW1151
0043011520999991958011614004+67267+014367FM-12+001099999V0202601N01751007801CN0200001N9+99999+99999999999ADDAY181999GF108991081091008001999999MW1251
0057011520999991958011615004+67267+014367FM-12+001099999V0202801N01541007801CN0200001N9+00221+99999098831ADDAY181999GF108991081091008001999999MD1710201+9999MW1021
0043011520999991958011616004+67267+014367FM-12+001099999V0202701N01291007801CN0200001N9+99999+99999999999ADDAY181999GF108991081091008001999999MW1261
0043011520999991958011617004+67267+014367FM-12+001099999V0202901N017519999999N0200001N9+99999+99999999999ADDAY181999GF104991041091008001001001MW1261
0094011520999991958011618004+67267+014367FM-12+001099999V0202901N016519999999N0200001N9+00111+99999098691ADDAA199002091AY181999GF103991031021012501001001KA1999M+00501KA2999N-00171MD1710141+9999MW1011
0043011520999991958011619004+67267+014367FM-12+001099999V0202801N01441007801CN0200001N9+99999+99999999999ADDAY181999GF106991061091008001001001MW1271
0043011520999991958011620004+67267+014367FM-12+001099999V0202801N017519999999N0300001N9+99999+99999999999ADDAY121999GF104991041021012501001001MW1011
0043011520999991958011621004+67267+014367FM-12+001099999V0202801N017519999999N0400001N9+99999+99999999999ADDAY101999GF101991011021012501001001MW1011
0043011520999991958011622004+67267+014367FM-12+001099999V0202801N01291007801CN0200001N9+99999+99999999999ADDAY181999GF108991081091008001999999MW1271
0043011520999991958011623004+67267+014367FM-12+001099999V0202801N01441007801CN0200001N9+99999+99999999999ADDAY181999GF108991081091008001999999MW1271
0057011520999991958011700004+67267+014367FM-12+001099999V0202801N01441007801CN0200001N9-00171+99999098121ADDAY181999GF107991071091008001999999MD1710301+9999MW1271
0043011520999991958011701004+67267+014367FM-12+001099999V0202801N01541007801CN0200001N9+99999+99999999999ADDAY181999GF107991071091008001999999MW1151
0043011520999991958011702004+67267+014367FM-12+001099999V0202701N01541007801CN0200001N9+99999+99999999999ADDAY181999GF108991081091008001999999MW1271
0057011520999991958011703004+67267+014367FM-12+001099999V0202801N01231007801CN0100001N9-00111+99999097811ADDAY181999GF108991081091008001999999MD1710311+9999MW1881
0043011520999991958011704004+67267+014367FM-12+001099999V0203201N01341007801CN0100001N9+99999+99999999999ADDAY181999GF108991081091008001999999MW1881
0043011520999991958011705004+67267+014367FM-12+001099999V0202901N01231007801CN0100001N9+99999+99999999999ADDAY181999GF108991081091008001999999MW1871
0100011520999991958011706004+67267+014367FM-12+001099999V0202901N01031007801CN0250001N9-00171+99999097551ADDAA199003091AY181999GF106991061091008001001001IA1009KA1999M+00111KA2999N-00281MD1710261+9999MW1271
0043011520999991958011707004+67267+014367FM-12+001099999V0202901N01291007801CN0250001N9+99999+99999999999ADDAY121999GF107991071091008001999999MW1151
0043011520999991958011708004+67267+014367FM-12+001099999V0202901N01031004501CN0350001N9+99999+99999999999ADDAY121999GF107991071091004501999999MW1151
0057011520999991958011709004+67267+014367FM-12+001099999V0202801N01441007801CN0400001N9+00061+99999097401ADDAY121999GF108991071021008001071999MD1710151+9999MW1021
0043011520999991958011710004+67267+014367FM-12+001099999V0202901N01341004501CN0400001N9+99999+99999999999ADDAY121999GF108991071091004501071999MW1151
0043011520999991958011711004+67267+014367FM-12+001099999V0202901N01541004501CN0550001N9+99999+99999999999ADDAY121999GF108991081081004501999999MW1151
0057011520999991958011712004+67267+014367FM-12+001099999V0202901N01651004501CN0300001N9+00111+99999097241ADDAY121999GF108991081081004501999999MD1710161+9999MW1151
0043011520999991958011713004+67267+014367FM-12+001099999V0202801N01851001501CN0010001N9+99999+99999999999ADDAY181999GF109991091999001501999999MW1861
0043011520999991958011714004+67267+014367FM-12+001099999V0202801N01541001501CN0010001N9+99999+99999999999ADDAY181999GF109991091999001501999999MW1841
0057011520999991958011715004+67267+014367FM-12+001099999V0203101N01031002401CN0060001N9+00111+99999097091ADDAY181999GF107991071091002501999999MD1710151+9999MW1871
0043011520999991958011716004+67267+014367FM-12+001099999V0203101N01031001501CN0020001N9+99999+99999999999ADDAY181999GF109991091999001501999999MW1861
0043011520999991958011717004+67267+014367FM-12+001099999V0203601N00931001501CN0020001N9+99999+99999999999ADDAY181999GF109991091999001501999999MW1861
0094011520999991958011718004+67267+014367FM-12+001099999V0203501N01651001501CN0025001N9+00111+99999097301ADDAA199001091AY181999GF109991091999001501999999KA1999M+00221KA2999N-00171MD1210211+9999MW1871
0043011520999991958011719004+67267+014367FM-12+001099999V0203501N01541001501CN0025001N9+99999+99999999999ADDAY181999GF109991091999001501999999MW1861
0043011520999991958011720004+67267+014367FM-12+001099999V0203401N01131007801CN0250001N9+99999+99999999999ADDAY181999GF107991071021008001999999MW1261
0043011520999991958011721004+67267+014367FM-12+001099999V0203201N01651007801CN0250001N9+99999+99999097581ADDAY121999GF108991071021008001999999MW1031
0043011520999991958011722004+67267+014367FM-12+001099999V0203101N01441007801CN0250001N9+99999+99999999999ADDAY121999GF108991071021008001999999MW1021
0043011520999991958011723004+67267+014367FM-12+001099999V0203101N01231007801CN0250001N9+99999+99999999999ADDAY121999GF108991071021008001999999MW1021
0057011520999991958011800004+67267+014367FM-12+001099999V0203101N01541004501CN0250001N9+00001+99999097771ADDAY181999GF106991061091004501999999MD1210191+9999MW1151
0043011520999991958011801004+67267+014367FM-12+001099999V0203101N01291007801CN0200001N9+99999+99999999999ADDAY121999GF107991071091008001999999MW1151
0043011520999991958011802004+67267+014367FM-12+001099999V0203001N01131007801CN0150001N9+99999+99999999999ADDAY121999GF108991081091008001999999MW1151
0057011520999991958011803004+67267+014367FM-12+001099999V0202901N01131007801CN0200001N9-00061+99999097661ADDAY121999GF107991061091008001071999MD1710111+9999MW1151
0043011520999991958011804004+67267+014367FM-12+001099999V0203001N01441004501CN0150001N9+99999+99999999999ADDAY121999GF107991061021004501071999MW1151
0043011520999991958011805004+67267+014367FM-12+001099999V0202901N01441007801CN0200001N9+99999+99999999999ADDAY181999GF106991061091008001999999MW1261
0100011520999991958011806004+67267+014367FM-12+001099999V0202901N016519999999N0300001N9-00061+99999097461ADDAA199000691AY181999GF105991041091008001061999IA1009KA1999M+00171KA2999N-00331MD1710201+9999MW1011
0043011520999991958011807004+67267+014367FM-12+001099999V0202901N012319999999N0300001N9+99999+99999999999ADDAY121999GF105991041091008001061999MW1021
0043011520999991958011808004+67267+014367FM-12+001099999V0202901N01441000601CN0001001N9+99999+99999999999ADDAY181999GF109991091999000751999999MW1861
0057011520999991958011809004+67267+014367FM-12+001099999V0202801N01651000601CN0005001N9-00061+99999097231ADDAY181999GF109991091999000751999999MD1710231+9999MW1861
0043011520999991958011810004+67267+014367FM-12+001099999V0202901N01751001501CN0025001N9+99999+99999999999ADDAY181999GF109991091999001501999999MW1881
0043011520999991958011811004+67267+014367FM-12+001099999V0202801N01751002401CN0150001N9+99999+99999999999ADDAY181999GF108991081061002501999999MW1151
0057011520999991958011812004+67267+014367FM-12+001099999V0202701N01751002401CN0050001N9+00061+99999096971ADDAY181999GF108991081061002501999999MD1710161+9999MW1261
0043011520999991958011813004+67267+014367FM-12+001099999V0202601N01541002401CN0100001N9+99999+99999999999ADDAY121999GF108991081061002501999999MW1151
0043011520999991958011814004+67267+014367FM-12+001099999V0202601N01541002401CN0100001N9+99999+99999999999ADDAY121999GF108991081061002501999999MW1151
0076011520999991958011815004+67267+014367FM-12+001099999V0202601N01751002401CN0150001N9+00171+99999096851ADDAY181999GF107991999061002501999999MD1710121+9999MW1801EQDQ01+000082SCOTLC
0043011520999991958011816004+67267+014367FM-12+001099999V0203201N00871001501CN0005001N9+99999+99999999999ADDAY181999GF109991091999001501999999MW1881
0043011520999991958011817004+67267+014367FM-12+001099999V0203001N00411004501CN0150001N9+99999+99999999999ADDAY181999GF108991081061004501999999MW1271
0094011520999991958011818004+67267+014367FM-12+001099999V0200201N010319999999N0200001N9+00111+99999096841ADDAA199007091AY181999GF108991041021008001021999KA1999M+00221KA2999N-00331MD1510011+9999MW1021
0043011520999991958011819004+67267+014367FM-12+001099999V0200201N00931007801CN0200001N9+99999+99999999999ADDAY121999GF108991051021008001021999MW1021
0043011520999991958011820004+67267+014367FM-12+001099999V0200201N00931007801CN0300001N9+99999+99999999999ADDAY121999GF105991051021008001001001MW1011
0043011520999991958011821004+67267+014367FM-12+001099999V0200301N006719999999N0400001N9+99999+99999097041ADDAY111999GF102991021021008001001001MW1011
0043011520999991958011822004+67267+014367FM-12+001099999V0200301N004119999999N0400001N9+99999+99999999999ADDAY101999GF101991011021008001001001MW1011
0043011520999991958011823004+67267+014367FM-12+001099999V0200301N004119999999N0500001N9+99999+99999999999ADDAY101999GF101991011021008001001001MW1021
0057011520999991958011900004+67267+014367FM-12+001099999V0200601N003119999999N0350001N9+00061+99999097081ADDAY181999GF103991031021008001001001MD1010041+9999MW1851
0043011520999991958011901004+67267+014367FM-12+001099999V0200801N00411007801CN0100001N9+99999+99999999999ADDAY181999GF108991081091008001999999MW1871
0043011520999991958011902004+67267+014367FM-12+001099999V0200501N00211007801CN0200001N9+99999+99999999999ADDAY181999GF105991051091008001001001MW1151
0057011520999991958011903004+67267+014367FM-12+001099999V0201401N00261007801CN0200001N9-00111+99999097031ADDAY181999GF106991061091008001001001MD1710051+9999MW1151
0043011520999991958011904004+67267+014367FM-12+001099999V0200301N00311007801CN0200001N9+99999+99999999999ADDAY121999GF106991061091008001001001MW1151
0043011520999991958011905004+67267+014367FM-12+001099999V0201201N003119999999N0300001N9+99999+99999999999ADDAY121999GF104991041091008001001001MW1151
0100011520999991958011906004+67267+014367FM-12+001099999V0201001N005119999999N0550001N9-00221+99999096861ADDAA199000391AY181999GF104991041021008001001001IA1009KA1999M+00171KA2999N-00281MD1710171+9999MW1021
0043011520999991958011907004+67267+014367FM-12+001099999V0201001N006219999999N0500001N9+99999+99999999999ADDAY121999GF104991031021008001041011MW1021
0043011520999991958011908004+67267+014367FM-12+001099999V0201001N005719999999N0400001N9+99999+99999999999ADDAY121999GF105991041081008001041011MW1031
0057011520999991958011909004+67267+014367FM-12+001099999V0201001N006719999999N0400001N9-00391+99999096961ADDAY121999GF104991031081008001041021MD1210101+9999MW1011
0043011520999991958011910004+67267+014367FM-12+001099999V0200901N005119999999N0500001N9+99999+99999999999ADDAY101999GF102991011081008001041001MW1011
0043011520999991958011911004+67267+014367FM-12+001099999V0200901N005119999999N0700001N9+99999+99999999999ADDAY101999GF102991011021008001041001MW1021
0057011520999991958011912004+67267+014367FM-12+001099999V0200901N004119999999N0700001N9-00501+99999097051ADDAY111999GF102991011021008001041001MD1310091+9999MW1021
0043011520999991958011913004+67267+014367FM-12+001099999V0200901N003619999999N0700001N9+99999+99999999999ADDAY101999GF102991011021008001041001MW1021
0043011520999991958011914004+67267+014367FM-12+001099999V0201001N004619999999N0700001N9+99999+99999999999ADDAY111999GF105991041081008001041001MW1031
0057011520999991958011915004+67267+014367FM-12+001099999V0201001N006219999999N0700001N9-00561+99999097131ADDAY111999GF103991021081008001041001MD1210081+9999MW1011
0043011520999991958011916004+67267+014367FM-12+001099999V0201001N005119999999N0700001N9+99999+99999999999ADDAY101999GF103991021081008001041001MW1021
0043011520999991958011917004+67267+014367FM-12+001099999V0201001N005119999999N0700001N9+99999+99999999999ADDAY101999GF102991011081008001041001MW1011
0083011520999991958011918004+67267+014367FM-12+001099999V0201101N005719999999N0700001N9-00671+99999097241ADDAY111999GF101991011081008001001001KA1999M-00221KA2999N-00671MD1210111+9999MW1011
0043011520999991958011919004+67267+014367FM-12+001099999V0201101N005719999999N0700001N9+99999+99999999999ADDAY101999GF101991011081008001001001MW1021
0043011520999991958011920004+67267+014367FM-12+001099999V0201001N005719999999N0700001N9+99999+99999999999ADDAY101999GF101991011081008001001001MW1021
0043011520999991958011921004+67267+014367FM-12+001099999V0201001N005719999999N0700001N9+99999+99999999999ADDAY101999GF101991011081008001001001MW1021
0043011520999991958011922004+67267+014367FM-12+001099999V0201201N00511007801CN0600001N9+99999+99999999999ADDAY111999GF107991071081008001999999MW1031
0043011520999991958011923004+67267+014367FM-12+001099999V0201101N00461007801CN0600001N9+99999+99999999999ADDAY121999GF107991071081008001999999MW1021
0057011520999991958012000004+67267+014367FM-12+001099999V0201101N00621004501CN0250001N9-00561+99999097381ADDAY181999GF108991081021004501999999MD1210031+9999MW1851
0043011520999991958012001004+67267+014367FM-12+001099999V0201001N00621004501CN0080001N9+99999+99999999999ADDAY181999GF108991081021004501999999MW1851
0043011520999991958012002004+67267+014367FM-12+001099999V0201201N00511004501CN0100001N9+99999+99999999999ADDAY181999GF107991071021004501999999MW1851
0057011520999991958012003004+67267+014367FM-12+001099999V0201101N003619999999N0200001N9-00611+99999097411ADDAY181999GF105991041091004501061001MD1210031+9999MW1851
0043011520999991958012004004+67267+014367FM-12+001099999V0201101N00411004501CN0200001N9+99999+99999999999ADDAY181999GF105991051091004501001001MW1151
0043011520999991958012005004+67267+014367FM-12+001099999V0201101N004119999999N0350001N9+99999+99999999999ADDAY121999GF104991031021008001061001MW1151
0100011520999991958012006004+67267+014367FM-12+001099999V0201101N003619999999N0350001N9-00611+99999097531ADDAA199000591AY181999GF104991031021008001061001IA1009KA1999M-00561KA2999N-00781MD1210121+9999MW1021
0043011520999991958012007004+67267+014367FM-12+001099999V0201101N004119999999N0350001N9+99999+99999999999ADDAY121999GF104991031021008001061001MW1021
0043011520999991958012008004+67267+014367FM-12+001099999V0201101N004119999999N0400001N9+99999+99999999999ADDAY121999GF105991031021008001061001MW1031
0057011520999991958012009004+67267+014367FM-12+001099999V0201101N005119999999N0700001N9-00501+99999097701ADDAY121999GF104991031021008001061001MD1210171+9999MW1011
0043011520999991958012010004+67267+014367FM-12+001099999V0201001N003119999999N0700001N9+99999+99999999999ADDAY121999GF106991031021008001061001MW1031
0043011520999991958012011004+67267+014367FM-12+001099999V0201101N00411007801CN0700001N9+99999+99999999999ADDAY121999GF106991051091008001061011MW1021
0057011520999991958012012004+67267+014367FM-12+001099999V0201001N004119999999N0700001N9-00501+99999097901ADDAY121999GF105991021091008001061011MD1210201+9999MW1011
0062011520999991958012013004+67267+014367FM-12+001099999V0201101N00411007801CN0700001N9+99999+99999999999ADDAY121999GF105991999091008001061011MW1021EQDQ01+000072SCOTLC
0043011520999991958012014004+67267+014367FM-12+001099999V0201101N005119999999N0700001N9+99999+99999999999ADDAY121999GF104991021091008001061011MW1011
0057011520999991958012015004+67267+014367FM-12+001099999V0201001N004119999999N0700001N9-00671+99999098101ADDAY121999GF103991011091008001061011MD1210201+9999MW1011
0043011520999991958012016004+67267+014367FM-12+001099999V0201101N004119999999N0700001N9+99999+99999999999ADDAY121999GF103991011091008001061011MW1021
0043011520999991958012017004+67267+014367FM-12+001099999V0201101N005119999999N0700001N9+99999+99999999999ADDAY101999GF102991011091008001061001MW1011
0083011520999991958012018004+67267+014367FM-12+001099999V0201101N005119999999N0700001N9-00671+99999098391ADDAY101999GF102991011051008001041001KA1999M-00441KA2999N-00781MD1210291+9999MW1021
0043011520999991958012019004+67267+014367FM-12+001099999V0201101N005119999999N0700001N9+99999+99999999999ADDAY101999GF102991011051008001041001MW1021
0043011520999991958012020004+67267+014367FM-12+001099999V0201101N006219999999N0700001N9+99999+99999999999ADDAY101999GF102991011051008001041001MW1021
0043011520999991958012021004+67267+014367FM-12+001099999V0201101N007219999999N0700001N9+99999+99999999999ADDAY101999GF102991011051008001041001MW1021
0043011520999991958012022004+67267+014367FM-12+001099999V0201101N006219999999N0700001N9+99999+99999999999ADDAY111999GF104991021051008001041011MW1031
0043011520999991958012023004+67267+014367FM-12+001099999V0201101N006219999999N0700001N9+99999+99999999999ADDAY121999GF104991021051008001041011MW1021
0057011520999991958012100004+67267+014367FM-12+001099999V0201101N005719999999N0700001N9-00721+99999098731ADDAY111999GF104991031051008001031011MD1210161+9999MW1021
0043011520999991958012101004+67267+014367FM-12+001099999V0201001N005119999999N0700001N9+99999+99999999999ADDAY121999GF104991021051008001031011MW1021
0043011520999991958012102004+67267+014367FM-12+001099999V0201001N005119999999N0700001N9+99999+99999999999ADDAY121999GF105991041051008001071999MW1031
0057011520999991958012103004+67267+014367FM-12+001099999V0201101N00511007801CN0450001N9-00611+99999098911ADDAY121999GF108991051051008001021999MD1210181+9999MW1031
0043011520999991958012104004+67267+014367FM-12+001099999V0201101N004619999999N0400001N9+99999+99999999999ADDAY121999GF108991031051008001021999MW1021
0043011520999991958012105004+67267+014367FM-12+001099999V0201101N006719999999N0500001N9+99999+99999999999ADDAY121999GF105991031051008001021999MW1011
0089011520999991958012106004+67267+014367FM-12+001099999V0201101N006719999999N0700001N9-00671+99999099041ADDAY111999GF103991021051008001031001IA1009KA1999M-00611KA2999N-00721MD1210131+9999MW1011
0043011520999991958012107004+67267+014367FM-12+001099999V0201101N006719999999N0700001N9+99999+99999999999ADDAY101999GF102991011051008001031001MW1011
0043011520999991958012108004+67267+014367FM-12+001099999V0201101N00511004501CN0700001N9+99999+99999999999ADDAY111999GF107991061091004501031999MW1151
0057011520999991958012109004+67267+014367FM-12+001099999V0201101N00821004501CN0080001N9-00721+99999099231ADDAY181999GF106991061091004501001001MD1210291+9999MW1261
0043011520999991958012110004+67267+014367FM-12+001099999V0201001N00721004501CN0300001N9+99999+99999999999ADDAY121999GF107991061091004501041999MW1151
0043011520999991958012111004+67267+014367FM-12+001099999V0201001N00821002401CN0008001N9+99999+99999999999ADDAY181999GF109991091999002501999999MW1861
0057011520999991958012112004+67267+014367FM-12+001099999V0201101N00821004501CN0200001N9-00671+99999099331ADDAY181999GF107991071091004501999999MD1210101+9999MW1261
0043011520999991958012113004+67267+014367FM-12+001099999V0201101N00931004501CN0250001N9+99999+99999999999ADDAY121999GF107991071091004501999999MW1161
0062011520999991958012114004+67267+014367FM-12+001099999V0201001N00721004501CN0250001N9+99999+99999999999ADDAY121999GF106991999091004501999999MW1161EQDQ01+000072SCOTLC
0057011520999991958012115004+67267+014367FM-12+001099999V0201101N00821004501CN0300001N9-00611+99999099431ADDAY121999GF107991071091004501999999MD1210101+9999MW1161
0043011520999991958012116004+67267+014367FM-12+001099999V0201101N007719999999N0550001N9+99999+99999999999ADDAY121999GF105991021091008001061001MW1151
0043011520999991958012117004+67267+014367FM-12+001099999V0201101N007719999999N0600001N9+99999+99999999999ADDAY121999GF104991011091008001041001MW1011
0094011520999991958012118004+67267+014367FM-12+001099999V0201001N006219999999N0650001N9-00611+99999099521ADDAA199000391AY111999GF102991011031008001041001KA1999M-00561KA2999N-00721MD1210091+9999MW1011
0043011520999991958012119004+67267+014367FM-12+001099999V0201101N006719999999N0700001N9+99999+99999999999ADDAY101999GF101991011081008001001001MW1011
0043011520999991958012120004+67267+014367FM-12+001099999V0201001N006219999999N0700001N9+99999+99999999999ADDAY101999GF101991011081008001001001MW1021
0043011520999991958012121004+67267+014367FM-12+001099999V0201101N008719999999N0700001N9+99999+99999999999ADDAY101999GF101991011081008001001001MW1021
0043011520999991958012122004+67267+014367FM-12+001099999V0201001N008219999999N0700001N9+99999+99999999999ADDAY101999GF101991011081008001001001MW1021
0043011520999991958012123004+67267+014367FM-12+001099999V0201001N008219999999N0700001N9+99999+99999999999ADDAY101999GF101991011081008001001001MW1021
0057011520999991958012200004+67267+014367FM-12+001099999V0201101N008219999999N0700001N9-00561+99999099801ADDAY101999GF101991011081008001001001MD1210141+9999MW1021
0043011520999991958012201004+67267+014367FM-12+001099999V0201101N008719999999N0700001N9+99999+99999999999ADDAY101999GF101991011081008001001001MW1021
0043011520999991958012202004+67267+014367FM-12+001099999V0201101N010319999999N0700001N9+99999+99999999999ADDAY131999GF101991011081008001001001MW1361
0057011520999991958012203004+67267+014367FM-12+001099999V0201101N009819999999N0700001N9-00441+99999099791ADDAY131999GF103991031091004501001001MD1510011+9999MW1361
0043011520999991958012204004+67267+014367FM-12+001099999V0201001N008719999999N0600001N9+99999+99999999999ADDAY131999GF102991021081008001001001MW1361
0043011520999991958012205004+67267+014367FM-12+001099999V0201101N009319999999N0600001N9+99999+99999999999ADDAY131999GF102991021081008001001001MW1361
0089011520999991958012206004+67267+014367FM-12+001099999V0201001N008719999999N0600001N9-00391+99999099841ADDAY131999GF101991011081008001001001IA1009KA1999M-00391KA2999N-00671MD1310051+9999MW1361
0043011520999991958012207004+67267+014367FM-12+001099999V0201101N010319999999N0600001N9+99999+99999999999ADDAY131999GF101991011051012501041001MW1021
0043011520999991958012208004+67267+014367FM-12+001099999V0201101N008219999999N0700001N9+99999+99999999999ADDAY121999GF105991011051012501021051MW1031
0057011520999991958012209004+67267+014367FM-12+001099999V0201001N007219999999N0700001N9-00391+99999099981ADDAY131999GF106991011051012501021051MD1210111+9999MW1031
0043011520999991958012210004+67267+014367FM-12+001099999V0201101N009319999999N0700001N9+99999+99999999999ADDAY121999GF106991011051012501041051MW1021
0043011520999991958012211004+67267+014367FM-12+001099999V0201201N007219999999N0700001N9+99999+99999999999ADDAY121999GF106991011081008001041051MW1021
0057011520999991958012212004+67267+014367FM-12+001099999V0201201N007219999999N0700001N9-00281+99999099981ADDAY121999GF105991011081008001041011MD1410001+9999MW1011
0043011520999991958012213004+67267+014367FM-12+001099999V0201201N004119999999N0700001N9+99999+99999999999ADDAY121999GF105991011091008001041011MW1021
0043011520999991958012214004+67267+014367FM-12+001099999V0201101N007219999999N0600001N9+99999+99999999999ADDAY121999GF105991011021008001041011MW1021
0057011520999991958012215004+67267+014367FM-12+001099999V0201101N008719999999N0600001N9-00561+99999100041ADDAY121999GF106991011021008001041011MD1210061+9999MW1031
0043011520999991958012216004+67267+014367FM-12+001099999V0201101N010319999999N0600001N9+99999+99999999999ADDAY121999GF104991021021008001031011MW1011
0043011520999991958012217004+67267+014367FM-12+001099999V0201001N011319999999N0700001N9+99999+99999999999ADDAY111999GF103991021021008001031001MW1011
0083011520999991958012218004+67267+014367FM-12+001099999V0201101N01031007801CN0600001N9-00611+99999100151ADDAY111999GF106991051081008001031001KA1999M-00221KA2999N-00671MD1210111+9999MW1031
0043011520999991958012219004+67267+014367FM-12+001099999V0201001N01031007801CN0500001N9+99999+99999999999ADDAY121999GF107991071051008001071999MW1031
0062011520999991958012220004+67267+014367FM-12+001099999V0201101N01131007801CN0060001N9+99999+99999999999ADDAY171999GF108991999051008001021999MW1711EQDQ01+000082SCOTLC
0043011520999991958012221004+67267+014367FM-12+001099999V0201101N01131007801CN0080001N9+99999+99999999999ADDAY171999GF108991071051008001021999MW1711
0043011520999991958012222004+67267+014367FM-12+001099999V0201101N01031001501CN0020001N9+99999+99999999999ADDAY171999GF109991091999001501999999MW1731
0043011520999991958012223004+67267+014367FM-12+001099999V0201101N00931004501CN0035001N9+99999+99999999999ADDAY171999GF109991091999004501999999MW1711
0057011520999991958012300004+67267+014367FM-12+001099999V0201001N00931007801CN0150001N9-00501+99999100361ADDAY171999GF108991071051008001021999MD1210101+9999MW1221
0043011520999991958012301004+67267+014367FM-12+001099999V0201001N009319999999N0300001N9+99999+99999999999ADDAY111999GF103991031051008001001001MW1011
0043011520999991958012302004+67267+014367FM-12+001099999V0201001N008219999999N0500001N9+99999+99999999999ADDAY101999GF103991031051008001001001MW1021
0057011520999991958012303004+67267+014367FM-12+001099999V0201101N011319999999N0700001N9-00561+99999100361ADDAY131999GF103991021051008001041011MD1410001+9999MW1361
0043011520999991958012304004+67267+014367FM-12+001099999V0201101N011319999999N0700001N9+99999+99999999999ADDAY131999GF103991021051008001041011MW1361
0043011520999991958012305004+67267+014367FM-12+001099999V0201101N012319999999N0700001N9+99999+99999999999ADDAY131999GF103991021051008001041011MW1361
0094011520999991958012306004+67267+014367FM-12+001099999V0201101N008219999999N0700001N9-00721+99999100461ADDAA199000691AY131999GF103991021051008001041011KA1999M-00441KA2999N-00721MD1210101+9999MW1021
0043011520999991958012307004+67267+014367FM-12+001099999V0201101N009319999999N0700001N9+99999+99999999999ADDAY101999GF103991021051008001071011MW1021
0043011520999991958012308004+67267+014367FM-12+001099999V0201001N009319999999N0700001N9+99999+99999999999ADDAY111999GF105991021051008001071011MW1031
0057011520999991958012309004+67267+014367FM-12+001099999V0201101N009319999999N0700001N9-00781+99999100651ADDAY111999GF107991021051008001071051MD1210191+9999MW1031
0043011520999991958012310004+67267+014367FM-12+001099999V0201001N010319999999N0700001N9+99999+99999999999ADDAY121999GF107991021051008001071051MW1021
0043011520999991958012311004+67267+014367FM-12+001099999V0201101N01031220001CN0700001N9+99999+99999999999ADDAY121999GF105991001001999999041051MW1011
0057011520999991958012312004+67267+014367FM-12+001099999V0201101N01131220001CN0700001N9-00671+99999100721ADDAY121999GF104991001001999999041051MD1210071+9999MW1011
0043011520999991958012313004+67267+014367FM-12+001099999V0201101N01031220001CN0700001N9+99999+99999999999ADDAY101999GF102991001001999999041051MW1011
0043011520999991958012314004+67267+014367FM-12+001099999V0201101N00931220001CN0700001N9+99999+99999999999ADDAY101999GF102991001001999999041051MW1021
0057011520999991958012315004+67267+014367FM-12+001099999V0201101N00821220001CN0700001N9-00561+99999100781ADDAY101999GF102991001001999999041051MD1210061+9999MW1021
0043011520999991958012316004+67267+014367FM-12+001099999V0201001N00771220001CN0700001N9+99999+99999999999ADDAY101999GF102991001001999999041051MW1021
0043011520999991958012317004+67267+014367FM-12+001099999V0200901N00821220001CN0700001N9+99999+99999999999ADDAY101999GF102991001001999999041051MW1021
0083011520999991958012318004+67267+014367FM-12+001099999V0201101N00621015001CN0600001N9-00281+99999100861ADDAY111999GF108991081001017501071999KA1999M-00281KA2999N-00781MD1210081+9999MW1031
0043011520999991958012319004+67267+014367FM-12+001099999V0201401N008219999999N0600001N9+99999+99999999999ADDAY121999GF108991021051012501071999MW1021
0043011520999991958012320004+67267+014367FM-12+001099999V0201301N011319999999N0600001N9+99999+99999999999ADDAY121999GF108991021051012501071999MW1021
0043011520999991958012321004+67267+014367FM-12+001099999V0201101N009819999999N0600001N9+99999+99999999999ADDAY121999GF108991011051012501071999MW1021
0043011520999991958012322004+67267+014367FM-12+001099999V0201301N009319999999N0600001N9+99999+99999999999ADDAY121999GF108991011051012501071999MW1021
0043011520999991958012323004+67267+014367FM-12+001099999V0201301N008719999999N0600001N9+99999+99999999999ADDAY121999GF108991011051012501071999MW1021
0057011520999991958012400004+67267+014367FM-12+001099999V0201301N007219999999N0600001N9-00221+99999100931ADDAY121999GF104991011051012501071011MD1210031+9999MW1011
0043011520999991958012401004+67267+014367FM-12+001099999V0201501N009319999999N0600001N9+99999+99999999999ADDAY101999GF103991011051012501071011MW1011
0043011520999991958012402004+67267+014367FM-12+001099999V0201101N010319999999N0600001N9+99999+99999999999ADDAY101999GF104991021051012501071011MW1031
0057011520999991958012403004+67267+014367FM-12+001099999V0201201N007719999999N0600001N9-00221+99999101021ADDAY111999GF105991021051012501071011MD1210091+9999MW1031
0043011520999991958012404004+67267+014367FM-12+001099999V0201101N009319999999N0600001N9+99999+99999999999ADDAY121999GF105991021051008001071011MW1021
0043011520999991958012405004+67267+014367FM-12+001099999V0201101N008219999999N0700001N9+99999+99999999999ADDAY121999GF104991011051008001071011MW1011
0089011520999991958012406004+67267+014367FM-12+001099999V0201101N007219999999N0700001N9-00171+99999101191ADDAY121999GF104991011051008001071011IA1009KA1999M-00111KA2999N-00331MD1210171+9999MW1021
0043011520999991958012407004+67267+014367FM-12+001099999V0201001N011319999999N0600001N9+99999+99999999999ADDAY111999GF103991011051008001071011MW1011
0043011520999991958012408004+67267+014367FM-12+001099999V0201001N010319999999N0350001N9+99999+99999999999ADDAY101999GF104991011051012501071011MW1031
0057011520999991958012409004+67267+014367FM-12+001099999V0201001N009319999999N0400001N9-00281+99999101401ADDAY111999GF105991011051008001071011MD1210211+9999MW1101
0043011520999991958012410004+67267+014367FM-12+001099999V0201101N010319999999N0400001N9+99999+99999999999ADDAY111999GF103991011051008001071011MW1101
0043011520999991958012411004+67267+014367FM-12+001099999V0201001N010319999999N0400001N9+99999+99999999999ADDAY101999GF102991011051012501071011MW1101
0057011520999991958012412004+67267+014367FM-12+001099999V0201001N009819999999N0350001N9-00171+99999101471ADDAY111999GF105991011051012501071051MD1110071+9999MW1101
0043011520999991958012413004+67267+014367FM-12+001099999V0201201N010319999999N0300001N9+99999+99999999999ADDAY121999GF105991011051012501071051MW1101
0043011520999991958012414004+67267+014367FM-12+001099999V0201201N01031220001CN0250001N9+99999+99999999999ADDAY121999GF105991001001999999071061MW1151
0057011520999991958012415004+67267+014367FM-12+001099999V0201201N01231220001CN0250001N9-00111+99999101451ADDAY121999GF105991001001999999071081MD1710021+9999MW1151
0043011520999991958012416004+67267+014367FM-12+001099999V0201301N011319999999N0200001N9+99999+99999999999ADDAY121999GF107991011051012501071081MW1151
0043011520999991958012417004+67267+014367FM-12+001099999V0201101N007219999999N0200001N9+99999+99999999999ADDAY121999GF108991011051012501071999MW1051
0083011520999991958012418004+67267+014367FM-12+001099999V0201201N011319999999N0200001N9-00111+99999101411ADDAY121999GF108991011051012501011999KA1999M-00061KA2999N-00391MD1710041+9999MW1051
0043011520999991958012419004+67267+014367FM-12+001099999V0201101N010319999999N0200001N9+99999+99999999999ADDAY121999GF108991011051012501021999MW1051
0043011520999991958012420004+67267+014367FM-12+001099999V0201101N010319999999N0250001N9+99999+99999999999ADDAY121999GF107991011051012501071999MW1011
0043011520999991958012421004+67267+014367FM-12+001099999V0201201N010819999999N0250001N9+99999+99999999999ADDAY121999GF108991011051012501071999MW1031
0043011520999991958012422004+67267+014367FM-12+001099999V0201101N009319999999N0250001N9+99999+99999999999ADDAY121999GF108991011051012501071999MW1021
0043011520999991958012423004+67267+014367FM-12+001099999V0201101N008219999999N0250001N9+99999+99999999999ADDAY121999GF108991011051012501071999MW1021
0057011520999991958012500004+67267+014367FM-12+001099999V0201201N010319999999N0250001N9-00221+99999101451ADDAY121999GF108991011051012501071999MD1210041+9999MW1021
0043011520999991958012501004+67267+014367FM-12+001099999V0201201N007219999999N0250001N9+99999+99999999999ADDAY121999GF108991011051012501071999MW1021
0043011520999991958012502004+67267+014367FM-12+001099999V0201201N008219999999N0250001N9+99999+99999999999ADDAY121999GF108991011051012501071999MW1021
0057011520999991958012503004+67267+014367FM-12+001099999V0201101N007219999999N0250001N9-00331+99999101521ADDAY121999GF108991011051012501071999MD1210071+9999MW1021
0043011520999991958012504004+67267+014367FM-12+001099999V0201101N008219999999N0250001N9+99999+99999999999ADDAY121999GF108991011051012501071999MW1021
0043011520999991958012505004+67267+014367FM-12+001099999V0201101N008219999999N0250001N9+99999+99999999999ADDAY171999GF108991011051012501071999MW1701
0100011520999991958012506004+67267+014367FM-12+001099999V0201001N009319999999N0250001N9-00441+99999101571ADDAA199000691AY171999GF108991011051012501071999IA1009KA1999M+00001KA2999N-00441MD1210051+9999MW1701
0043011520999991958012507004+67267+014367FM-12+001099999V0201001N009319999999N0300001N9+99999+99999999999ADDAY171999GF107991011051012501071999MW1221
0043011520999991958012508004+67267+014367FM-12+001099999V0201001N008219999999N0300001N9+99999+99999999999ADDAY121999GF107991011051008001071999MW1151
0057011520999991958012509004+67267+014367FM-12+001099999V0201001N00931021001CN0350001N9-00561+99999101641ADDAY171999GF106991051001022501071071MD1110071+9999MW1011
0043011520999991958012510004+67267+014367FM-12+001099999V0201001N010319999999N0500001N9+99999+99999999999ADDAY111999GF103991011051012501071071MW1011
0043011520999991958012511004+67267+014367FM-12+001099999V0201001N009319999999N0500001N9+99999+99999999999ADDAY101999GF103991011051017501041071MW1021
0057011520999991958012512004+67267+014367FM-12+001099999V0201101N007219999999N0500001N9-00501+99999101641ADDAY171999GF103991011051017501041001MD1410001+9999MW1021
0043011520999991958012513004+67267+014367FM-12+001099999V0201101N007719999999N0500001N9+99999+99999999999ADDAY101999GF102991011051017501041001MW1011
0043011520999991958012514004+67267+014367FM-12+001099999V0201101N007719999999N0500001N9+99999+99999999999ADDAY101999GF104991011051017501041001MW1031
0057011520999991958012515004+67267+014367FM-12+001099999V0201101N007719999999N0400001N9-00561+99999101741ADDAY111999GF107991011051017501041001MD1210101+9999MW1031
0043011520999991958012516004+67267+014367FM-12+001099999V0201201N006219999999N0400001N9+99999+99999999999ADDAY121999GF107991021051008001041001MW1021
0043011520999991958012517004+67267+014367FM-12+001099999V0201101N00771007801CN0400001N9+99999+99999999999ADDAY121999GF106991061051008001041001MW1011
0083011520999991958012518004+67267+014367FM-12+001099999V0201101N00721007801CN0400001N9-00561+99999101791ADDAY121999GF107991061051008001071001KA1999M-00331KA2999N-00561MD1210051+9999MW1031
0043011520999991958012519004+67267+014367FM-12+001099999V0201101N00871007801CN0400001N9+99999+99999999999ADDAY121999GF107991061051008001071001MW1021
0043011520999991958012520004+67267+014367FM-12+001099999V0201101N00771007801CN0400001N9+99999+99999999999ADDAY121999GF107991061051008001031001MW1021
0043011520999991958012521004+67267+014367FM-12+001099999V0201101N007219999999N0600001N9+99999+99999999999ADDAY121999GF104991031051012501031001MW1011
0043011520999991958012522004+67267+014367FM-12+001099999V0201101N008719999999N0600001N9+99999+99999999999ADDAY101999GF103991021051012501031001MW1011
0043011520999991958012523004+67267+014367FM-12+001099999V0201101N008719999999N0600001N9+99999+99999999999ADDAY101999GF101991011051012501031001MW1011
0057011520999991958012600004+67267+014367FM-12+001099999V0201101N008219999999N0700001N9-00561+99999101931ADDAY111999GF101991011051012501001001MD1210041+9999MW1011
0043011520999991958012601004+67267+014367FM-12+001099999V0201101N006219999999N0700001N9+99999+99999999999ADDAY101999GF102991021051012501001001MW1031
0043011520999991958012602004+67267+014367FM-12+001099999V0201201N006219999999N0700001N9+99999+99999999999ADDAY101999GF104991041051012501001001MW1151
0057011520999991958012603004+67267+014367FM-12+001099999V0201101N00721007801CN0250001N9-00501+99999101981ADDAY171999GF108991051051008001021999MD1210051+9999MW1701
0043011520999991958012604004+67267+014367FM-12+001099999V0201001N00621004501CN0080001N9+99999+99999999999ADDAY171999GF109991091999004501999999MW1701
0043011520999991958012605004+67267+014367FM-12+001099999V0201001N00671004501CN9999999N9+99999+99999999999ADDAY171999GF109991091999004501999999MW1711
0100011520999991958012606004+67267+014367FM-12+001099999V0201001N00621001501CN0005001N9-00501+99999102041ADDAA199003091AY171999GF109991091999001501999999IA1009KA1999M-00391KA2999N-00561MD1210061+9999MW1731
0043011520999991958012607004+67267+014367FM-12+001099999V0201001N00621004501CN0010001N9+99999+99999999999ADDAY171999GF109991091999004501999999MW1731
0043011520999991958012608004+67267+014367FM-12+001099999V0201101N00621001501CN0005001N9+99999+99999999999ADDAY171999GF109991091999001501999999MW1721
0057011520999991958012609004+67267+014367FM-12+001099999V0201001N00571004501CN0300001N9-00331+99999102111ADDAY171999GF107991071081004501999999MD1210071+9999MW1221
0043011520999991958012610004+67267+014367FM-12+001099999V0201001N00571004501CN0350001N9+99999+99999999999ADDAY121999GF107991071061004501999999MW1151
0043011520999991958012611004+67267+014367FM-12+001099999V0201001N00621004501CN0020001N9+99999+99999999999ADDAY181999GF108991081031004501999999MW1851
0057011520999991958012612004+67267+014367FM-12+001099999V0201001N00621002401CN0008001N9-00281+99999102131ADDAY181999GF109991091999002501999999MD1610021+9999MW1861
0043011520999991958012613004+67267+014367FM-12+001099999V0201201N00571004501CN0020001N9+99999+99999999999ADDAY181999GF107991071091004501999999MW1851
0043011520999991958012614004+67267+014367FM-12+001099999V0201101N006219999999N0400001N9+99999+99999999999ADDAY181999GF107991031061002501001071MW1261
0057011520999991958012615004+67267+014367FM-12+001099999V0201001N006219999999N0400001N9-00281+99999102111ADDAY181999GF108991021061002501031071MD1810021+9999MW1031
0043011520999991958012616004+67267+014367FM-12+001099999V0201001N006219999999N0400001N9+99999+99999999999ADDAY121999GF107991041061004501071071MW1011
0043011520999991958012617004+67267+014367FM-12+001099999V0201101N006219999999N0400001N9+99999+99999999999ADDAY121999GF107991031051008001071071MW1021
0094011520999991958012618004+67267+014367FM-12+001099999V0201101N006219999999N0600001N9-00331+99999102071ADDAA199005091AY181999GF107991021051008001071071KA1999M-00171KA2999N-00501MD1710041+9999MW1021
0043011520999991958012619004+67267+014367FM-12+001099999V0201101N007219999999N0600001N9+99999+99999999999ADDAY121999GF107991021051008001071071MW1021
0043011520999991958012620004+67267+014367FM-12+001099999V0201101N006719999999N0600001N9+99999+99999999999ADDAY121999GF107991021051008001071071MW1021
0043011520999991958012621004+67267+014367FM-12+001099999V0201001N007719999999N0600001N9+99999+99999999999ADDAY121999GF107991021051008001071071MW1021
0043011520999991958012622004+67267+014367FM-12+001099999V0201001N007219999999N0600001N9+99999+99999999999ADDAY121999GF108991021051012501071999MW1031
0043011520999991958012623004+67267+014367FM-12+001099999V0201101N008219999999N0600001N9+99999+99999999999ADDAY121999GF108991021051012501071999MW1021
0057011520999991958012700004+67267+014367FM-12+001099999V0201101N009319999999N0600001N9-00281+99999101941ADDAY121999GF108991021051012501071999MD1710091+9999MW1021
0043011520999991958012701004+67267+014367FM-12+001099999V0201101N008219999999N0600001N9+99999+99999999999ADDAY121999GF108991021051012501071999MW1021
0043011520999991958012702004+67267+014367FM-12+001099999V0201101N008219999999N0600001N9+99999+99999999999ADDAY121999GF108991021051012501071999MW1021
0057011520999991958012703004+67267+014367FM-12+001099999V0201101N008219999999N0600001N9-00221+99999101951ADDAY121999GF108991021051012501071999MD1210011+9999MW1021
0043011520999991958012704004+67267+014367FM-12+001099999V0201101N008219999999N0600001N9+99999+99999999999ADDAY121999GF108991021051012501071999MW1021
0043011520999991958012705004+67267+014367FM-12+001099999V0201001N008219999999N0600001N9+99999+99999999999ADDAY121999GF108991021051012501071999MW1021
0089011520999991958012706004+67267+014367FM-12+001099999V0201101N007219999999N0600001N9-00221+99999101811ADDAY121999GF108991021051012501071999IA1009KA1999M-00171KA2999N-00391MD1710141+9999MW1021
0043011520999991958012707004+67267+014367FM-12+001099999V0201101N008219999999N0600001N9+99999+99999999999ADDAY121999GF107991021051012501071999MW1011
0043011520999991958012708004+67267+014367FM-12+001099999V0201201N007719999999N0400001N9+99999+99999999999ADDAY121999GF108991031051012501021999MW1031
0057011520999991958012709004+67267+014367FM-12+001099999V0201101N00771004501CN0300001N9-00111+99999101741ADDAY121999GF108991061001004501021999MD1710071+9999MW1151
0043011520999991958012710004+67267+014367FM-12+001099999V0201201N00871004501CN0100001N9+99999+99999999999ADDAY121999GF108991081001004501021999MW1141
0043011520999991958012711004+67267+014367FM-12+001099999V0201201N00821002401CN0010001N9+99999+99999999999ADDAY171999GF109991091999002501999999MW1731
0057011520999991958012712004+67267+014367FM-12+001099999V0201101N00821002401CN0008001N9-00281+99999101661ADDAY171999GF109991091999002501999999MD1810081+9999MW1731
0043011520999991958012713004+67267+014367FM-12+001099999V0201101N00931001501CN0008001N9+99999+99999999999ADDAY171999GF109991091999001501999999MW1731
0043011520999991958012714004+67267+014367FM-12+001099999V0201101N00821001501CN0006001N9+99999+99999999999ADDAY171999GF109991091999001501999999MW1731
0057011520999991958012715004+67267+014367FM-12+001099999V0201201N00821001501CN0008001N9-00061+99999101541ADDAY171999GF109991091999001501999999MD1710121+9999MW1731
0043011520999991958012716004+67267+014367FM-12+001099999V0201201N00621001501CN0008001N9+99999+99999999999ADDAY171999GF109991091999001501999999MW1731
0043011520999991958012717004+67267+014367FM-12+001099999V0201101N00671002401CN0008001N9+99999+99999999999ADDAY171999GF109991091999002501999999MW1731
0094011520999991958012718004+67267+014367FM-12+001099999V0201201N00621002401CN0008001N9+00001+99999101511ADDAA199012091AY171999GF109991091999002501999999KA1999M+00061KA2999N-00221MD1810031+9999MW1731
0043011520999991958012719004+67267+014367FM-12+001099999V0201201N00621002401CN0008001N9+99999+99999999999ADDAY171999GF109991091999002501999999MW1731
0043011520999991958012720004+67267+014367FM-12+001099999V0201201N00621002401CN0008001N9+99999+99999999999ADDAY171999GF109991091999002501999999MW1731
0043011520999991958012721004+67267+014367FM-12+001099999V0201101N00721002401CN0019001N9+99999+99999999999ADDAY171999GF109991091999002501999999MW1731
0043011520999991958012722004+67267+014367FM-12+001099999V0201201N007219999999N0080001N9+99999+99999999999ADDAY171999GF108991021061002501021999MW1681
0043011520999991958012723004+67267+014367FM-12+001099999V0201201N006719999999N0080001N9+99999+99999999999ADDAY171999GF108991031061002501021999MW1681
0057011520999991958012800004+67267+014367FM-12+001099999V0201101N007219999999N0100001N9+00061+99999101511ADDAY171999GF108991021061002501021999MD1710011+9999MW1631
0043011520999991958012801004+67267+014367FM-12+001099999V0201201N008719999999N0120001N9+99999+99999999999ADDAY161999GF108991021061002501021999MW1631
0043011520999991958012802004+67267+014367FM-12+001099999V0201201N007719999999N0150001N9+99999+99999999999ADDAY161999GF108991021061002501021999MW1631
0057011520999991958012803004+67267+014367FM-12+001099999V0201201N007219999999N0150001N9+00061+99999101461ADDAY161999GF108991011061004501021999MD1710051+9999MW1631
0043011520999991958012804004+67267+014367FM-12+001099999V0201101N007219999999N0120001N9+99999+99999999999ADDAY161999GF108991021061004501021999MW1631
0043011520999991958012805004+67267+014367FM-12+001099999V0201101N006719999999N0150001N9+99999+99999999999ADDAY161999GF108991031061004501021999MW1631
0100011520999991958012806004+67267+014367FM-12+001099999V0201101N006219999999N0150001N9+00111+99999101371ADDAA199016091AY161999GF108991021061004501021999IA1009KA1999M+00171KA2999N+00001MD1710091+9999MW1631
0043011520999991958012807004+67267+014367FM-12+001099999V0201101N007719999999N0120001N9+99999+99999999999ADDAY161999GF108991011061004501021999MW1631
0043011520999991958012808004+67267+014367FM-12+001099999V0201101N006219999999N0150001N9+99999+99999999999ADDAY161999GF108991041061004501021999MW1631
0057011520999991958012809004+67267+014367FM-12+001099999V0201101N007719999999N0150001N9+00171+99999101321ADDAY161999GF108991031061002501021999MD1710051+9999MW1631
0043011520999991958012810004+67267+014367FM-12+001099999V0201101N007719999999N0110001N9+99999+99999999999ADDAY161999GF108991021061002501021999MW1631
