0057011520999991954010100004+67283+014417FM-12+001399999V0202401N01031004501CN0120001N9+00221+00111100911ADDAY191999GF108991081091004501999999MD1990021+9999MW1811
0057011520999991954010103004+67283+014417FM-12+001399999V0202201N01341004501CN0140001N9+00391+00001100491ADDAY181999GF108991081091004501999999MD1710421+9999MW1811
0087011520999991954010106004+67283+014417FM-12+001399999V0202501N01341004501CN0160001N9+00611+00281100291ADDAA199006091AY181999GF107991061091004501061999IA1159KA1999N+00001MD1510201+9999MW1291
0057011520999991954010109004+67283+014417FM-12+001399999V0202601N01181004501CN0160001N9+00611+00221100451ADDAY181999GF108991081081004501999999MD1310161+9999MW1801
0057011520999991954010112004+67283+014417FM-12+001399999V0202601N01231004501CN0150001N9+00501+00281100561ADDAY181999GF108991081081004501999999MD1210111+9999MW1801
0057011520999991954010115004+67283+014417FM-12+001399999V0202601N00931004501CN0150001N9+00281+00221100571ADDAY161999GF108991081081004501999999MD1310011+9999MW1621
0087011520999991954010118004+67283+014417FM-12+001399999V0202601N01031004501CN0150001N9+00281+00221100501ADDAA199002091AY161999GF108991061081004501011999IA1109KA1999M+00611MD1210071+9999MW1621
0057011520999991954010200004+67283+014417FM-12+001399999V0202601N00931004501CN0160001N9+00391+00281100411ADDAY181999GF108991081081004501999999MD1710041+9999MW1611
0057011520999991954010203004+67283+014417FM-12+001399999V0203001N00721007801CN0160001N9+00281+00221100311ADDAY161999GF108991081081008001999999MD1710101+9999MW1611
0103011520999991954010206004+67283+014417FM-12+001399999V0209991C00001004501CN0120001N9+00221+00111100021ADDAA199005091AY161999GA1061+004509079GF108991061061004501021999IA1109KA1999N+00111MD1710291+9999MW1681
0073011520999991954010209004+67283+014417FM-12+001399999V0200401N00211001501CN0010001N9+00001+00001099631ADDAY171999GA1081+001509079GF108991081061001501999999MD1810391+9999MW1691
0073011520999991954010212004+67283+014417FM-12+001399999V0200301N00211001801CN0012001N9+00001+00001099371ADDAY171999GA1081+001809049GF108991081061001501999999MD1710261+9999MW1691
0092011520999991954010215004+67283+014417FM-12+001399999V0200301N00621003001CN0050001N9+00001-00111099371ADDAY171999GA1081+003009049GF108991081061004501999999MD1410001+9999MW1681EQDQ01+000022APCTEN
0087011520999991954010218004+67283+014417FM-12+001399999V0200101N01131007801CN0150001N9+00001-00221099711ADDAA199007091AY171999GF107991061061008001071999IA1009KA1999M+00221MD1210341+9999MW1021
0057011520999991954010300004+67283+014417FM-12+001399999V0200601N004119999999N0400001N9-00281-00781100571ADDAY121999GF105991041051008001071999MD1210431+9999MW1021
0057011520999991954010303004+67283+014417FM-12+001399999V0200601N00511220001CN0400001N9-00111-00781101301ADDAY121999GF104991031051008001071999MD1310731+9999MW1021
0076011520999991954010306004+67283+014417FM-12+001399999V0200301N00311220001CN0400001N9-00221-00781101901ADDAY101999GF102991021051008001999999IA1199KA1999N-00611MD1310601+9999MW1011
0057011520999991954010309004+67283+014417FM-12+001399999V0200801N00151220001CN0400001N9-00501-00781102311ADDAY121999GF103991021081008001001011MD1310411+9999MW1151
0057011520999991954010312004+67283+014417FM-12+001399999V0201001N003119999999N0600001N9-00111-00281102551ADDAY121999GF107991041081012501071011MD1310241+9999MW1031
0057011520999991954010315004+67283+014417FM-12+001399999V0200901N00621220001CN0600001N9-00391-00501102761ADDAY101999GF102991021081012501001001MD1310211+9999MW1011
0076011520999991954010318004+67283+014417FM-12+001399999V0200901N00461220001CN0700001N9-00501-00611102851ADDAY101999GF102991021081012501001001IA1199KA1999M-00111MD1210091+9999MW1021
0057011520999991954010400004+67283+014417FM-12+001399999V0201001N00721012301CN0400001N9-00281-00501102781ADDAY111999GF108991081051012501999999MD1990121+9999MW1031
0057011520999991954010403004+67283+014417FM-12+001399999V0201001N00721012301CN0400001N9-00221-00501102491ADDAY121999GF108991081051012501999999MD1990291+9999MW1021
0092011520999991954010406004+67283+014417FM-12+001399999V0202201N01231010501CN0400001N9+00221-00221102121ADDAY121999GA1081+010509059GF108991081051012501999999IA1209KA1999N-00611MD1710371+9999MW1021
0089011520999991954010409004+67283+014417FM-12+001399999V0202201N01651007501CN0160001N9+00281+00111101811ADDAY161999GA1061+007509059GA2021+004509079GF108991081051008001999999MD1510311+9999MW1611
0089011520999991954010412004+67283+014417FM-12+001399999V0202201N01851007501CN0160001N9+00281+00221101341ADDAY161999GA1051+007509059GA2031+004509079GF108991081051008001999999MD1810471+9999MW1151
0089011520999991954010415004+67283+014417FM-12+001399999V0202401N01951007501CN0160001N9+00501+00391101221ADDAY161999GA1051+007509059GA2021+004509079GF107991071051008001999999MD1610121+9999MW1601
0087011520999991954010418004+67283+014417FM-12+001399999V0202401N00931007801CN0160001N9+00611+00391101271ADDAA199000691AY121999GF108991081051008001999999IA1109KA1999M+00611MD1110051+9999MW1021
0076011520999991954010500004+67283+014417FM-12+001399999V0202301N01651004501CN0100001N9+00721+00611100461ADDAY161999GF108991081051004501999999MD1810502+9999MW1631EQDQ01+000502APC3  
0057011520999991954010503004+67283+014417FM-12+001399999V0202301N01751000151CN0060001N9+00721+00611100091ADDAY161999GF109991091999000251999999MD1610371+9999MW1631
0103011520999991954010506004+67283+014417FM-12+001399999V0202301N01231003001CN0100001N9+00721+00611099981ADDAA199017091AY161999GA1081+003009079GF108991081061004501999999IA1109KA1999N+00221MD1710111+9999MW1631
0073011520999991954010509004+67283+014417FM-12+001399999V0202301N01851004501CN0100001N9+00781+00721099781ADDAY161999GA1071+004509079GF108991071061004501999999MD1810201+9999MW1631
0089011520999991954010512004+67283+014417FM-12+001399999V0202301N01651002401CN0032001N9+00721+00611099631ADDAY161999GA1061+002409079GA2021+001509079GF108991071061002501999999MD1990151+9999MW1581
0073011520999991954010515004+67283+014417FM-12+001399999V0202501N01391003001CN0050001N9+00721+00611099511ADDAY161999GA1061+003009079GF108991081061004501999999MD1710121+9999MW1581
0087011520999991954010518004+67283+014417FM-12+001399999V0202201N01131004501CN0060001N9+00611+00281099291ADDAA199016091AY161999GF108991081061004501999999IA1109KA1999M+00781MD1810221+9999MW1601
0057011520999991954010600004+67283+014417FM-12+001399999V0202701N01541004501CN0060001N9+00221-00111099461ADDAY161999GF108991081061004501999999MD1210081+9999MW1601
0057011520999991954010603004+67283+014417FM-12+001399999V0202801N01441004501CN0100001N9+00001-00111099381ADDAY181999GF108991081061004501999999MD1710081+9999MW1871
0103011520999991954010606004+67283+014417FM-12+001399999V0202701N00411007801CN0160001N9+00001-00221099161ADDAA199003091AY121999GA1081+007809089GF108991081081008001999999IA1199KA1999N-00111MD1710221+9999MW1021
0073011520999991954010609004+67283+014417FM-12+001399999V0200701N00261220001CN0004001N9-00111-00281098931ADDAY181999GA1091+999999999GF109991091999999999999999MD1510231+9999MW1861
0089011520999991954010612004+67283+014417FM-12+001399999V0202301N01541009001CN0140001N9+00111-00281098701ADDAY181999GA1061+009009089GA2011+002709079GF107991061081008001999999MD1710231+9999MW1361
0124011520999991954010615004+67283+014417FM-12+001399999V0203201N01651000601CN0001001N9-00111-00111098791ADDAY181999GA1091+000609999GF109991091999000751999999MD1210091+9999MW1861EQDQ01+000082SCOTCVQ02+000042APCTENQ03+000092APC3  
0087011520999991954010618004+67283+014417FM-12+001399999V0203401N01031004501CN0140001N9-00111-00221099331ADDAA199010091AY181999GF108991081091004501999999IA1319KA1999M+00111MD1210541+9999MW1851
0057011520999991954010700004+67283+014417FM-12+001399999V0203501N00931220001CN0160001N9-00111-00391100061ADDAY181999GF104991041081008001001001MD1310331+9999MW1261
0057011520999991954010703004+67283+014417FM-12+001399999V0203401N00931220001CN0160001N9-00221-00721100381ADDAY121999GF101991011081008001001001MD1310321+9999MW1151
0103011520999991954010706004+67283+014417FM-12+001399999V0203201N00721220001CN0160001N9-00281-00721100661ADDAA199000591AY111999GA1041+006009089GF104991041081008001001001IA1319KA1999N-00281MD1310281+9999MW1151
0073011520999991954010709004+67283+014417FM-12+001399999V0203001N00621220001CN0160001N9-00391-00611100991ADDAY181999GA1041+006009099GF105991051091008001001001MD1310331+9999MW1261
0092011520999991954010712004+67283+014417FM-12+001399999V0209991C00001004501CN0160001N9-00391-00501101151ADDAY181999GA1051+004509099GF106991999091004501001001MD1110161+9999MW1261EQDQ01+000052SCOTLC
0108011520999991954010715004+67283+014417FM-12+001399999V0202601N00821004801CN0200001N9-00221-00781101151ADDAY181999GA1051+004809099GF105991999091004501001001MD1410001+9999MW1151EQDQ01+000042SCOTLCQ02+000072APCTEN
0087011520999991954010718004+67283+014417FM-12+001399999V0201901N00931004501CN0160001N9-00221-00501101011ADDAA199000591AY181999GF105991051091004501061999IA1319KA1999M-00111MD1710141+9999MW1261
0057011520999991954010800004+67283+014417FM-12+001399999V0201901N01131004501CN0080001N9+00001-00281100331ADDAY181999GF108991081081004501999999MD1710441+9999MW1711
0057011520999991954010803004+67283+014417FM-12+001399999V0202601N00871004501CN0060001N9+00111+00001100051ADDAY171999GF108991081061004501999999MD1710281+9999MW1681
0119011520999991954010806004+67283+014417FM-12+001399999V0202201N00671006001CN0160001N9+00111+00001099881ADDAA199010091AY171999GA1061+006009089GA2011+004509079GF107991061081008001061999IA1209KA1999N-00281MD1710171+9999MW1011
0089011520999991954010809004+67283+014417FM-12+001399999V0202001N00821006901CN0140001N9+00111+00001099781ADDAY171999GA1061+006909089GA2011+004809079GF108991061081008001061999MD1990101+9999MW1261
0089011520999991954010812004+67283+014417FM-12+001399999V0202501N00621006001CN0120001N9+00111+00001099631ADDAY181999GA1061+006009089GA2021+004209079GF108991061081008001061999MD1610151+9999MW1261
0089011520999991954010815004+67283+014417FM-12+001399999V0202701N01231004801CN0140001N9+00111-00221099481ADDAY181999GA1051+004809089GA2021+003009079GF107991061081004501061011MD1710151+9999MW1151
0087011520999991954010818004+67283+014417FM-12+001399999V0202701N01131007801CN0160001N9+00001-00391099491ADDAA199007091AY181999GF107991051081008001061001IA1199KA1999M+00221MD1210011+9999MW1871
0057011520999991954010900004+67283+014417FM-12+001399999V0202101N00821007801CN0200001N9-00111-00391099401ADDAY121999GF106991051081008001061001MD1710081+9999MW1021
0057011520999991954010903004+67283+014417FM-12+001399999V0200501N00621002401CN0030001N9-00221-00281099631ADDAY171999GF108991081081002501001001MD1210231+9999MW1741
0103011520999991954010906004+67283+014417FM-12+001399999V0203601N00821220001CN0400001N9+00001+00001099931ADDAA199009091AY171999GA1041+006009089GF105991051081008001001001IA1319KA1999N-00391MD1210301+9999MW1701
0073011520999991954010909004+67283+014417FM-12+001399999V0203201N00511007501CN0600001N9-00111-00221099911ADDAY121999GA1061+007509089GF107991061081008001061999MD1710021+9999MW1151
0089011520999991954010912004+67283+014417FM-12+001399999V0203201N00311006001CN0200001N9-00221-00221099941ADDAY181999GA1051+006009089GA2021+004209079GF107991051081008001041011MD1210031+9999MW1021
0073011520999991954010915004+67283+014417FM-12+001399999V0202401N01651220001CN0010001N9-00281-00391099391ADDAY181999GA1091+999999999GF109991091999999999999999MD1810551+9999MW1861
0087011520999991954010918004+67283+014417FM-12+001399999V0203301N00931007801CN0160001N9+00001-00391099431ADDAA199002091AY181999GF107991061081008001061999IA1319KA1999M+00001MD1210041+9999MW1261
0057011520999991954011000004+67283+014417FM-12+001399999V0200701N00361220001CN0200001N9-00721-00781099911ADDAY121999GF101991011051008001001001MD1210251+9999MW1011
0057011520999991954011003004+67283+014417FM-12+001399999V0200801N00621220001CN0200001N9-00781-01001100071ADDAY101999GF101991011051008001001001MD1110161+9999MW1021
0103011520999991954011006004+67283+014417FM-12+001399999V0200801N00571220001CN0200001N9-00781-01001100161ADDAA199000691AY101999GA1021+006009059GF102991021051008001001001IA1319KA1999N-01001MD1210091+9999MW1031
0073011520999991954011009004+67283+014417FM-12+001399999V0200901N00621220001CN0700001N9-00891-01221100271ADDAY101999GA1011+007509089GF101991011081008001041021MD1210111+9999MW1021
0073011520999991954011012004+67283+014417FM-12+001399999V0200801N00621220001CN0700001N9-00891-01221100271ADDAY101999GA1011+004509079GF102991011061004501041021MD1010001+9999MW1031
0057011520999991954011015004+67283+014417FM-12+001399999V0200901N00671220001CN0700001N9-00891-01221100201ADDAY101999GF104991011061004501071051MD1510071+9999MW1031
0076011520999991954011018004+67283+014417FM-12+001399999V0200801N007219999999N0700001N9-00781-01111100271ADDAY111999GF107991011051012501041999IA1319KA1999M-00781MD1310071+9999MW1031
0057011520999991954011100004+67283+014417FM-12+001399999V0200801N006719999999N0600001N9-00781-01111100211ADDAY121999GF107991041051012501041999MD1710061+9999MW1021
0057011520999991954011103004+67283+014417FM-12+001399999V0200901N00721012301CN0600001N9-00781-01111100091ADDAY121999GF108991061051012501999999MD1990121+9999MW1021
0103011520999991954011106004+67283+014417FM-12+001399999V0200901N00771004501CN0020001N9-00611-00611099901ADDAA199000391AY171999GA1071+004509079GF108991071061004501021999IA1319KA1999N-00891MD1710191+9999MW1731
0089011520999991954011109004+67283+014417FM-12+001399999V0201301N00621009001CN0160001N9-00281-00611099551ADDAY171999GA1071+009009059GA2011+006009079GF108991071051008001999999MD1710351+9999MW1021
0073011520999991954011112004+67283+014417FM-12+001399999V0202201N01131009001CN0160001N9+00001-00391099211ADDAY131999GA1071+009009059GF108991071051008001999999MD1710341+9999MW1361
0073011520999991954011115004+67283+014417FM-12+001399999V0202301N01341220001CN0004001N9-00111-00221098961ADDAY171999GA1091+999999999GF109991091999000251999999MD1710251+9999MW1731
0087011520999991954011118004+67283+014417FM-12+001399999V0203601N00511000151CN0004001N9-00221-00391098881ADDAA199014091AY171999GF109991091999000251999999IA1319KA1999M+00111MD1710081+9999MW1731
0076011520999991954011200004+67283+014417FM-12+001399999V0203001N00771004501CN0160001N9-00111-00611098881ADDAY171999GF108991999071004501021999MD1810021+9999MW1021EQDQ01+000082SCOTLC
0076011520999991954011203004+67283+014417FM-12+001399999V0202901N00931004501CN0160001N9-00221-00501098921ADDAY121999GF108991999071004501021999MD1210041+9999MW1021EQDQ01+000082SCOTLC
0122011520999991954011206004+67283+014417FM-12+001399999V0203001N00721007501CN0160001N9-00111-00391098851ADDAA199004091AY121999GA1051+007509059GF108991999071004501021999IA1319KA1999N-00281MD1810071+9999MW1021EQDQ01+000082SCOTLC
0073011520999991954011209004+67283+014417FM-12+001399999V0203001N00821004201CN0100001N9-00111-00281098821ADDAY181999GA1081+004209079GF108991081061004501999999MD1710031+9999MW1851
0073011520999991954011212004+67283+014417FM-12+001399999V0203001N00511004201CN0030001N9-00111-00391098881ADDAY181999GA1081+004209079GF108991081061004501999999MD1210061+9999MW1851
0073011520999991954011215004+67283+014417FM-12+001399999V0203001N00621003601CN0100001N9-00111-00391098941ADDAY181999GA1061+003609079GF108991081061004501999999MD1210061+9999MW1151
0087011520999991954011218004+67283+014417FM-12+001399999V0203201N00411002401CN0100001N9-00111-00501099071ADDAA199001091AY181999GF109991091999002501999999IA1319KA1999M+00001MD1210131+9999MW1851
0057011520999991954011300004+67283+014417FM-12+001399999V0200801N00211000151CN0040001N9-00281-00391099241ADDAY171999GF109991091999000251999999MD1210081+9999MW1711
0057011520999991954011303004+67283+014417FM-12+001399999V0201001N00511000151CN0008001N9-00281-00391099191ADDAY171999GF109991091999000251999999MD1710051+9999MW1731
0103011520999991954011306004+67283+014417FM-12+001399999V0201001N00621004801CN0140001N9-00281-00391099041ADDAA199005091AY171999GA1081+004809079GF108991081061004501999999IA1009KA1999N-00391MD1810151+9999MW1151
0073011520999991954011309004+67283+014417FM-12+001399999V0200801N00821004501CN0150001N9-00281-00501098901ADDAY171999GA1081+004509079GF108991081061004501999999MD1710141+9999MW1701
0073011520999991954011312004+67283+014417FM-12+001399999V0200801N00931006001CN0140001N9-00111-00391098801ADDAY171999GA1081+006009049GF108991081001008001021999MD1710101+9999MW1701
0073011520999991954011315004+67283+014417FM-12+001399999V0200801N01181003001CN0024001N9-00111-00111098621ADDAY171999GA1081+003009079GF108991081061004501999999MD1710181+9999MW1711
0087011520999991954011318004+67283+014417FM-12+001399999V0201101N00721004501CN0120001N9+00111+00111098491ADDAA199008091AY171999GF108991061061004501021999IA1209KA1999M+00111MD1710131+9999MW1601
0078011520999991954011400004+67283+014417FM-12+001399999V0202101N00411007801CN0160001N9+00391+00281098551ADDAY161999GF108991061071008001021999MW1151EQDQ01+000072APCTENQ02+000002APC3  
0057011520999991954011403004+67283+014417FM-12+001399999V0201001N005119999999N0160001N9+00221+00111098501ADDAY121999GF107991031051008001021999MD1710051+9999MW1011
0103011520999991954011406004+67283+014417FM-12+001399999V0200901N00511006001CN0160001N9+00221+00111098541ADDAA199000391AY121999GA1051+006009059GF107991041071008001021999IA1319KA1999N+00001MD1710051+9999MW1021
0073011520999991954011409004+67283+014417FM-12+001399999V0200901N00411220001CN0400001N9+00221+00111098401ADDAY111999GA1041+009909059GF105991041051008001011999MD1990051+9999MW1021
0073011520999991954011412004+67283+014417FM-12+001399999V0200801N00511220001CN0600001N9+00221-00111098361ADDAY101999GA1011+001809079GF103991021051008001011999MD1710041+9999MW1021
0073011520999991954011415004+67283+014417FM-12+001399999V0200801N00621220001CN0600001N9+00111-00221098231ADDAY101999GA1021+009009059GF103991021051008001011999MD1510141+9999MW1021
0087011520999991954011418004+67283+014417FM-12+001399999V0200801N007219999999N0400001N9+00221-00221098101ADDAA199000391AY121999GF106991011051008001031999IA1319KA1999M+00281MD1990121+9999MW1031
0057011520999991954011500004+67283+014417FM-12+001399999V0200801N006219999999N0600001N9+00221-00221097961ADDAY121999GF106991011051012501031001MD1610051+9999MW1021
0057011520999991954011503004+67283+014417FM-12+001399999V0200901N006219999999N0200001N9+00281-00111097821ADDAY121999GF108991021051008001071999MD1810141+9999MW1031
0108011520999991954011506004+67283+014417FM-12+001399999V0200801N00621021001CN0200001N9+00281-00221097651ADDAY121999GA1021+009009059GA2061+021009039GF108991021051008001071999IA1319KA1999N+00111MD1810171+9999MW1021
0073011520999991954011509004+67283+014417FM-12+001399999V0202001N00411009901CN0160001N9+00221-00221097561ADDAY121999GA1051+009909089GF108991051071008001011999MD1810091+9999MW1021
0073011520999991954011512004+67283+014417FM-12+001399999V0200801N00211013501CN0200001N9+00221-00221097301ADDAY121999GA1051+013509059GF106991051051012501041999MD1810261+9999MW1021
0073011520999991954011515004+67283+014417FM-12+001399999V0200701N00211013501CN0200001N9-00111-00391097111ADDAY121999GA1051+013509059GF107991051051012501041001MD1810291+9999MW1031
0076011520999991954011518004+67283+014417FM-12+001399999V0200901N00821220001CN0600001N9-00111-00501096941ADDAY101999GF102991001001999999031011IA1199KA1999M+00281MD1810171+9999MW1011
0078011520999991954011600004+67283+014417FM-12+001399999V0200801N00621220001CN0600001N9+00001-00391096941ADDAY101999GF103991021021012501061001MW1021EQDQ01+000022APCTENQ02+000002APC3  
0092011520999991954011603004+67283+014417FM-12+001399999V0200701N00511220001CN0600001N9-00221-00611097001ADDAY101999GA1041+018009089GF199999011081012501031001MD1110061+9999MW1011EQDQ01+000022SCOTCV
0092011520999991954011606004+67283+014417FM-12+001399999V0200701N00411220001CN0600001N9-00221-00611097121ADDAY121999GA1021+012009059GF107991051081012501999999IA1319KA1999N-00391MD1810121+9999MW1031
0089011520999991954011609004+67283+014417FM-12+001399999V0200901N00261009001CN0150001N9-00221-00501097361ADDAY171999GA1071+009009059GA2021+006009079GF108991071051008001999999MD1310241+9999MW1701
0089011520999991954011612004+67283+014417FM-12+001399999V0200901N00211009901CN0150001N9-00221-00281097601ADDAY171999GA1051+009909059GA2011+007509089GF107991051051008001999999MD1310241+9999MW1701
0089011520999991954011615004+67283+014417FM-12+001399999V0200101N00931220001CN0200001N9-00111-00611097811ADDAY121999GA1041+009009059GA2021+007509089GF106991061081008001071001MD1310121+9999MW1151
0087011520999991954011618004+67283+014417FM-12+001399999V0200301N00871007801CN0160001N9-00111-00721098051ADDAA199000391AY121999GF107991071081008001999999IA1319KA1999M-00111MD1310241+9999MW1851
0057011520999991954011700004+67283+014417FM-12+001399999V0200701N00211220001CN0600001N9-00611-01001098651ADDAY101999GF100991001001999999001001MD1210301+9999MW1011
0057011520999991954011703004+67283+014417FM-12+001399999V0201601N00511220001CN0600001N9-00281-00781098891ADDAY101999GF104991031051008001041001MD1310251+9999MW1031
0076011520999991954011706004+67283+014417FM-12+001399999V0201001N00211007801CN0200001N9-00501-00611099341ADDAY121999GF108991071051008001071001IA1319KA1999N-00611MD1310551+9999MW1711
0057011520999991954011709004+67283+014417FM-12+001399999V0202001N00411007801CN0160001N9-00281-00391099361ADDAY121999GF107991061081008001041001MD1210021+9999MW1151
0073011520999991954011712004+67283+014417FM-12+001399999V0201001N00261220001CN0200001N9-00501-00611099671ADDAY181999GA1031+007509089GF103991031021008001001001MD1310311+9999MW1021
0057011520999991954011715004+67283+014417FM-12+001399999V0201201N00261007801CN0160001N9-00501-00611100011ADDAY181999GF107991071091008001999999MD1310341+9999MW1851
0087011520999991954011718004+67283+014417FM-12+001399999V0203401N00411220001CN0600001N9-00281-00391100311ADDAA199002091AY181999GF104991041021008001001001IA1319KA1999M-00221MD1310301+9999MW1021
0057011520999991954011800004+67283+014417FM-12+001399999V0203501N00361220001CN0600001N9+00001-00611100791ADDAY181999GF103991031081008001001001MD1310241+9999MW1151
0057011520999991954011803004+67283+014417FM-12+001399999V0203401N00411220001CN0600001N9+00001-00611100971ADDAY181999GF102991021081004501001001MD1310181+9999MW1011
0103011520999991954011806004+67283+014417FM-12+001399999V0200701N00311220001CN0600001N9-00611-00611101121ADDAA199000591AY181999GA1011+004809089GF102991021081004501001001IA1319KA1999N-00611MD1210151+9999MW1021
0073011520999991954011809004+67283+014417FM-12+001399999V0200901N00411006001CN0200001N9-00391-00501101261ADDAY121999GA1061+006009089GF107991061081008001021001MD1210141+9999MW1151
0089011520999991954011812004+67283+014417FM-12+001399999V0200901N00511220001CN0200001N9-00391-00501101341ADDAY181999GA1041+004509089GA2031+021009049GF107991041081008001021999MD1310081+9999MW1151
0089011520999991954011815004+67283+014417FM-12+001399999V0201001N00361006001CN0160001N9-00281-00391101361ADDAY181999GA1061+006009089GA2021+003009079GF108991061081008001021001MD1210021+9999MW1151
0087011520999991954011818004+67283+014417FM-12+001399999V0203101N00931007801CN0160001N9+00001-00281101281ADDAA199004091AY171999GF107991061091008001021999IA1319KA1999M+00001MD1710081+9999MW1261
0078011520999991954011900004+67283+014417FM-12+001399999V0202601N00721007801CN0160001N9+00001-00501101301ADDAY121999GF107991051091008001061999MW1271EQDQ01+000022APCTENQ02+000002APC3  
0057011520999991954011903004+67283+014417FM-12+001399999V0202501N00671007801CN0150001N9-00221-00281101211ADDAY181999GF108991061091008001061999MD1710091+9999MW1861
0103011520999991954011906004+67283+014417FM-12+001399999V0202301N00671007501CN0150001N9-00221-00281101011ADDAA199002091AY181999GA1071+007509099GF107991071091008001999999IA1319KA1999N-00281MD1710201+9999MW1261
0089011520999991954011909004+67283+014417FM-12+001399999V0201901N00511220001CN0160001N9-00221-00391100801ADDAY181999GA1031+024009039GA2021+006609099GF106991021091008001071001MD1710211+9999MW1261
0073011520999991954011912004+67283+014417FM-12+001399999V0201301N00411220001CN0160001N9-00391-00611100651ADDAY181999GA1021+005109099GF103991021091004501071051MD1990151+9999MW1151
0089011520999991954011915004+67283+014417FM-12+001399999V0200701N00821220001CN0200001N9-00501-00781100631ADDAY121999GA1021+024009039GA2031+006009099GF106991021091004501071011MD1710021+9999MW1151
0087011520999991954011918004+67283+014417FM-12+001399999V0200901N00821220001CN0200001N9-00611-00781100201ADDAA199000691AY121999GF102991011051008001041001IA1319KA1999M-00221MD1710431+9999MW1021
0057011520999991954012000004+67283+014417FM-12+001399999V0201001N010319999999N0600001N9-00391-00781099831ADDAY111999GF105991041051008001041999MD1810191+9999MW1021
0057011520999991954012003004+67283+014417FM-12+001399999V0200601N006219999999N0400001N9-00501-01111099871ADDAY121999GF106991041051008001041999MD1510041+9999MW1021
0092011520999991954012006004+67283+014417FM-12+001399999V0200501N00411009001CN0200001N9-00391-01001099971ADDAY121999GA1061+009009059GF106991041051008001041999IA1319KA1999N-00781MD1210101+9999MW1021
0073011520999991954012009004+67283+014417FM-12+001399999V0200801N00211009001CN0200001N9-00501-01111100241ADDAY121999GA1061+009009059GF107991061051008001071999MD1210271+9999MW1021
0073011520999991954012012004+67283+014417FM-12+001399999V0200501N00411009001CN0200001N9-00391-01111100551ADDAY121999GA1051+009009059GF106991051051008001071011MD1210311+9999MW1021
0073011520999991954012015004+67283+014417FM-12+001399999V0200601N00461220001CN0700001N9-00391-01221100911ADDAY121999GA1011+009009089GF103991011081008001071001MD1210361+9999MW1011
0076011520999991954012018004+67283+014417FM-12+001399999V0200801N00411220001CN0700001N9-00501-01281101241ADDAY111999GF100991001001999999001001IA1319KA1999M-00281MD1210331+9999MW1011
0057011520999991954012100004+67283+014417FM-12+001399999V0200801N00411220001CN0700001N9-00891-01501101841ADDAY101999GF100991001001999999001001MD1210301+9999MW1011
0057011520999991954012103004+67283+014417FM-12+001399999V0200801N00511220001CN0700001N9-00721-01001102091ADDAY101999GF100991001001999999001001MD1210251+9999MW1011
0111011520999991954012106004+67283+014417FM-12+001399999V0200801N00511220001CN0700001N9-00781-01001102251ADDAY101999GA1011+060009039GF101991999001999999041001IA1319KA1999N-01111MD1210161+9999MW1021EQDQ01+000002SCOTLC
0089011520999991954012109004+67283+014417FM-12+001399999V0200901N00721220001CN0700001N9-00781-01111102421ADDAY101999GA1031+013509059GA2011+024009039GF104991031051012501041001MD1310171+9999MW1031
0073011520999991954012112004+67283+014417FM-12+001399999V0201001N00621220001CN0600001N9-00721-01001102601ADDAY101999GA1011+006009089GF101991011081008001041001MD1210171+9999MW1021
0073011520999991954012115004+67283+014417FM-12+001399999V0200901N00411220001CN0160001N9-00611-01001102751ADDAY121999GA1041+006009059GF106991041081008001031999MD1210151+9999MW1151
0087011520999991954012118004+67283+014417FM-12+001399999V0200901N00571220001CN0200001N9-00611-00721102871ADDAA199000391AY181999GF104991041081008001999999IA1319KA1999M-00501MD1210121+9999MW1151
0057011520999991954012200004+67283+014417FM-12+001399999V0202301N007719999999N0200001N9+00001-00111103091ADDAY181999GF106991041081004501041001MD1210121+9999MW1151
0057011520999991954012203004+67283+014417FM-12+001399999V0202401N00671004501CN0024001N9+00111-00111103231ADDAY181999GF108991081091004501999999MD1210141+9999MW1851
0103011520999991954012206004+67283+014417FM-12+001399999V0202301N00821006001CN0160001N9+00111+00001103321ADDAA199005091AY181999GA1051+006009089GF107991071081008001999999IA1209KA1999N-00611MD1210091+9999MW1151
0073011520999991954012209004+67283+014417FM-12+001399999V0202401N00671006001CN0160001N9+00221+00111103481ADDAY181999GA1061+006009089GF107991071081004501999999MD1210161+9999MW1801
0073011520999991954012212004+67283+014417FM-12+001399999V0202501N00621005401CN0200001N9+00221+00111103641ADDAY181999GA1061+005409089GF108991071081004501999999MD1310161+9999MW1831
0089011520999991954012215004+67283+014417FM-12+001399999V0202001N00411220001CN0400001N9+00111-00221103761ADDAY181999GA1031+005109089GA2041+006009059GF107991071081008001999999MD1310121+9999MW1151
0087011520999991954012218004+67283+014417FM-12+001399999V0200901N005119999999N0200001N9-00111-00221103821ADDAA199000691AY121999GF107991041081008001041999IA1319KA1999M+00221MD1110061+9999MW1021
0057011520999991954012300004+67283+014417FM-12+001399999V0200901N00621220001CN0700001N9-00281-00501103801ADDAY101999GF100991001001999999001001MD1710091+9999MW1021
0057011520999991954012303004+67283+014417FM-12+001399999V0200901N00721220001CN0700001N9-00391-00721103701ADDAY101999GF102991021041012501001001MD1710101+9999MW1031
0111011520999991954012306004+67283+014417FM-12+001399999V0200901N00871220001CN0700001N9-00391-00781103521ADDAY101999GA1021+024009049GF103991999001012501011001IA1319KA1999N-00501MD1810181+9999MW1031EQDQ01+000012SCOTLC
0092011520999991954012309004+67283+014417FM-12+001399999V0200901N00931024001CN0700001N9-00391-01001103281ADDAY101999GA1051+024009049GF105991999001999999021001MD1710241+9999MW1031EQDQ01+000002SCOTLC
0092011520999991954012312004+67283+014417FM-12+001399999V0200901N00821024001CN0600001N9-00221-01001103181ADDAY121999GA1071+024009039GF108991999001999999021001MD1710101+9999MW1021EQDQ01+000002SCOTLC
0108011520999991954012315004+67283+014417FM-12+001399999V0200801N00621015001CN0400001N9+00001-00891103051ADDAY121999GA1051+015009039GF108991999001999999021001MD1710131+9999MW1021EQDQ01+000002SCOTLCQ02+000992SCOLCB
0076011520999991954012318004+67283+014417FM-12+001399999V0201401N005719999999N0400001N9+00221-00891102851ADDAY121999GF108991021051008001021999IA1319KA1999M+00281MD1710201+9999MW1021
0057011520999991954012400004+67283+014417FM-12+001399999V0201001N00931000151CN0100001N9+00001+00001102771ADDAY171999GF109991091999000251999999MD1710041+9999MW1681
0057011520999991954012403004+67283+014417FM-12+001399999V0201101N00621000151CN0060001N9+00111+00001102721ADDAY171999GF109991091999000251999999MD1710051+9999MW1681
0087011520999991954012406004+67283+014417FM-12+001399999V0201001N00411004501CN0130001N9+00111+00001102631ADDAA199010091AY161999GF108991081071004501999999IA1209KA1999N-00111MD1710091+9999MW1611
0057011520999991954012409004+67283+014417FM-12+001399999V0201101N004119999999N0160001N9+00221+00111102621ADDAY161999GF108991041051004501021999MD1710011+9999MW1151
0076011520999991954012412004+67283+014417FM-12+001399999V0201801N00621004501CN0140001N9+00221+00111102621ADDAY161999GF108991061061004501021999MD1410001+9999MW1601EQDQ01+000032APCTEN
0057011520999991954012415004+67283+014417FM-12+001399999V0201001N00411004501CN0160001N9+00281+00111102591ADDAY161999GF108991061071004501021999MD1710031+9999MW1601
0087011520999991954012418004+67283+014417FM-12+001399999V0201001N006219999999N0160001N9+00221+00001102601ADDAA199004091AY161999GF107991041071008001021999IA1209KA1999M+00281MD1310011+9999MW1601
0057011520999991954012500004+67283+014417FM-12+001399999V0200901N005119999999N0160001N9+00221-00111102511ADDAY121999GF107991031071008001021999MD1710051+9999MW1011
0057011520999991954012503004+67283+014417FM-12+001399999V0200901N00511220001CN0400001N9+00111-00221102461ADDAY111999GF101991011051008001999999MD1710051+9999MW1031
0103011520999991954012506004+67283+014417FM-12+001399999V0200901N00511220001CN0200001N9+00111-00281102371ADDAA199000691AY121999GA1041+009909059GF105991041051008001021999IA1209KA1999N+00001MD1710091+9999MW1031
0073011520999991954012509004+67283+014417FM-12+001399999V0200901N00771220001CN0700001N9+00111-00611102331ADDAY111999GA1031+015009059GF103991031051017501041001MD1710041+9999MW1141
0073011520999991954012512004+67283+014417FM-12+001399999V0200901N00571220001CN0700001N9+00111-00781102371ADDAY101999GA1011+015009059GF101991011051017501041001MD1210041+9999MW1011
0108011520999991954012515004+67283+014417FM-12+001399999V0200801N00821220001CN0700001N9+00001-00891102411ADDAY101999GA1011+004509079GF101991011061004501041001MD1210041+9999MW1021EQDQ01+000042APCTENQ02+000042APC3  
0076011520999991954012518004+67283+014417FM-12+001399999V0200801N00771220001CN0700001N9+00001-01001102461ADDAY101999GF100991001001999999001001IA1209KA1999M+00221MD1110051+9999MW1011
0057011520999991954012600004+67283+014417FM-12+001399999V0200901N00721220001CN0600001N9-00221-01111102711ADDAY101999GF100991001001999999001001MD1310131+9999MW1021
0057011520999991954012603004+67283+014417FM-12+001399999V0200901N00621220001CN0700001N9-00281-01221102801ADDAY101999GF100991001001999999001001MD1310091+9999MW1021
0076011520999991954012606004+67283+014417FM-12+001399999V0200901N00621220001CN0700001N9-00391-01221102921ADDAY101999GF100991001001999999001001IA1209KA1999N-00501MD1310121+9999MW1021
0092011520999991954012609004+67283+014417FM-12+001399999V0200901N00621220001CN0700001N9-00501-01221103041ADDAY101999GA1011+015009059GF101991011051017501999001MD1210121+9999MW1031EQDQ01    003SCOMCG
0057011520999991954012612004+67283+014417FM-12+001399999V0200901N00621220001CN0600001N9-00501-01221103161ADDAY101999GF100991001001999999001001MD1110121+9999MW1001
0073011520999991954012615004+67283+014417FM-12+001399999V0200901N00621220001CN0700001N9-00611-01281103191ADDAY101999GA1011+013509059GF101991011051012501001001MD1210031+9999MW1031
0076011520999991954012618004+67283+014417FM-12+001399999V0200901N00511220001CN0700001N9-00611-01111103231ADDAY101999GF101991011051012501001001IA1209KA1999M-00391MD1210041+9999MW1021
0057011520999991954012700004+67283+014417FM-12+001399999V0200901N00461220001CN0600001N9-00611-00891103291ADDAY101999GF104991011051017501041001MD1210031+9999MW1031
0092011520999991954012703004+67283+014417FM-12+001399999V0200901N00511012301CN0400001N9-00501-00781103301ADDAY111999GF107991061051012501041001MD1210011+9999MW1031EQDQ01+000042APCTENQ02+000012APC3  
0111011520999991954012706004+67283+014417FM-12+001399999V0200901N00461012001CN0400001N9-00501-00781103301ADDAY121999GA1061+012009059GF107991061051012501041999IA1209KA1999N-00721MD1410001+9999MW1021EQDQ01+000022APCTEN
0073011520999991954012709004+67283+014417FM-12+001399999V0200901N00511009001CN0400001N9-00501-00781103331ADDAY121999GA1061+009009059GF107991061051008001999999MD1210031+9999MW1021
0073011520999991954012712004+67283+014417FM-12+001399999V0200901N00621009001CN0400001N9-00391-00721103371ADDAY121999GA1061+009009059GF107991061051008001031999MD1210041+9999MW1021
0073011520999991954012715004+67283+014417FM-12+001399999V0200901N00511008701CN0400001N9-00391-00721103291ADDAY121999GA1081+008709059GF108991081051008001999999MD1710081+9999MW1021
0076011520999991954012718004+67283+014417FM-12+001399999V0200901N00511007801CN0400001N9-00281-00501103251ADDAY121999GF108991081051008001999999IA1209KA1999M-00281MD1710041+9999MW1021
0057011520999991954012800004+67283+014417FM-12+001399999V0200801N00621015001CN0400001N9-00391-00721103211ADDAY121999GF108991081001017501011999MD1810021+9999MW1021
0057011520999991954012803004+67283+014417FM-12+001399999V0200701N00721220001CN0400001N9-00501-00781103201ADDAY101999GF103991011051012501011001MD1810011+9999MW1011
0092011520999991954012806004+67283+014417FM-12+001399999V0200901N00871220001CN0600001N9-00501-00781103151ADDAY101999GA1021+013509059GF102991021051012501001001IA1209KA1999N-00721MD1710051+9999MW1021
0073011520999991954012809004+67283+014417FM-12+001399999V0200901N00931220001CN0600001N9-00611-00891103131ADDAY101999GA1011+015009059GF102991011051012501071001MD1610021+9999MW1021
0073011520999991954012812004+67283+014417FM-12+001399999V0200901N00721220001CN0600001N9-00281-00611103191ADDAY101999GA1011+015009059GF102991011051012501071001MD1210061+9999MW1021
0073011520999991954012815004+67283+014417FM-12+001399999V0200801N00621013501CN0600001N9-00221-00501103241ADDAY121999GA1051+013509059GF106991051051012501071001MD1210051+9999MW1031
0076011520999991954012818004+67283+014417FM-12+001399999V0200801N00621012301CN0400001N9-00221-00611103261ADDAY121999GF108991081051012501999999IA1209KA1999M-00221MD1210021+9999MW1021
0057011520999991954012900004+67283+014417FM-12+001399999V0200901N00511012301CN0600001N9-00281-00611103271ADDAY121999GF108991081051012501999999MD1210011+9999MW1021
0057011520999991954012903004+67283+014417FM-12+001399999V0201001N00411012301CN0600001N9-00281-00611103241ADDAY121999GF107991071051012501999999MD1710031+9999MW1021
0092011520999991954012906004+67283+014417FM-12+001399999V0200901N00511009901CN0600001N9-00281-00501103201ADDAY121999GA1081+009909059GF108991081051008001999999IA1209KA1999N-00391MD1710041+9999MW1021
0089011520999991954012909004+67283+014417FM-12+001399999V0200901N00261015001CN0600001N9-00281-00501103151ADDAY121999GA1061+015009059GA2011+009009079GF106991061051012501999999MD1710051+9999MW1021
0073011520999991954012912004+67283+014417FM-12+001399999V0200901N00411220001CN0700001N9-00391-00611103141ADDAY101999GA1021+007509089GF103991021021008001031999MD1710011+9999MW1011
0073011520999991954012915004+67283+014417FM-12+001399999V0200901N00621220001CN0700001N9-00281-00391103131ADDAY101999GA1011+006009089GF101991011081008001041001MD1510011+9999MW1021
0095011520999991954012918004+67283+014417FM-12+001399999V0200601N00571220001CN0700001N9-00281-00501103211ADDAY101999GF101991999001999999041001IA1209KA1999M-00221MD1310081+9999MW1021EQDQ01+000002SCOTLC
0057011520999991954013000004+67283+014417FM-12+001399999V0200901N00721220001CN0600001N9-00501-00781103481ADDAY101999GF100991001001999999001001MD1310131+9999MW1011
0057011520999991954013003004+67283+014417FM-12+001399999V0200801N00931220001CN0600001N9-00611-00891103571ADDAY101999GF100991001001999999001001MD1310091+9999MW1011
0076011520999991954013006004+67283+014417FM-12+001399999V0200801N00721220001CN0600001N9-00721-01001103661ADDAY101999GF100991001001999999001001IA1209KA1999N-00891MD1310091+9999MW1011
0073011520999991954013009004+67283+014417FM-12+001399999V0200901N00721220001CN0600001N9-00721-01001103741ADDAY101999GA1011+007509089GF102991011021008001041001MD1210081+9999MW1031
0073011520999991954013012004+67283+014417FM-12+001399999V0200801N00671220001CN0400001N9-00721-01001103881ADDAY101999GA1011+006009089GF101991011081008001041021MD1210141+9999MW1011
0073011520999991954013015004+67283+014417FM-12+001399999V0200901N00671006901CN0600001N9-00721-01001103911ADDAY121999GA1051+006909059GF107991051051008001031999MD1210031+9999MW1021
0076011520999991954013018004+67283+014417FM-12+001399999V0200901N00621007801CN0400001N9-00721-01001103991ADDAY121999GF107991061081008001999999IA1209KA1999M-00721MD1210081+9999MW1021
0078011520999991954013100004+67283+014417FM-12+001399999V0200901N00671012301CN0600001N9-00611-00611104041ADDAY121999GF107991071051012501999999MW1021EQDQ01+000022APCTENQ02+000002APC3  
0057011520999991954013103004+67283+014417FM-12+001399999V0200901N00621012301CN0400001N9-00501-00721104031ADDAY171999GF108991071051012501999999MD1710011+9999MW1701
0087011520999991954013106004+67283+014417FM-12+001399999V0200901N00671012301CN0400001N9-00501-00611104001ADDAA199000691AY171999GF108991071051012501999999IA1209KA1999N-00781MD1710031+9999MW1021
0057011520999991954013109004+67283+014417FM-12+001399999V0200801N00571007801CN0400001N9-00501-00611104021ADDAY171999GF108991051051008001071999MD1210021+9999MW1701
0057011520999991954013112004+67283+014417FM-12+001399999V0200901N005119999999N0200001N9-00391-00611104001ADDAY171999GF107991041051008001071999MD1610021+9999MW1701
0057011520999991954013115004+67283+014417FM-12+001399999V0200901N00571007801CN0400001N9-00391-00501103911ADDAY171999GF107991051081008001071001MD1810091+9999MW1151
0087011520999991954013118004+67283+014417FM-12+001399999V0200901N00461007801CN0400001N9-00391-00721103841ADDAA199000691AY121999GF106991061081008001071001IA1209KA1999M-00281MD1990071+9999MW1011
0057011520999991954020100004+67283+014417FM-12+001399999V0201501N00311220001CN0600001N9-00391-00781103621ADDAY101999GF103991031081012501001001MD1610091+9999MW1011
0057011520999991954020103004+67283+014417FM-12+001399999V0201201N00261220001CN0600001N9-00611-00891103531ADDAY101999GF103991021081012501031001MD1710091+9999MW1021
0092011520999991954020106004+67283+014417FM-12+001399999V0200901N00621220001CN0600001N9-00501-00781103391ADDAY101999GA1031+013509059GF105991031051012501071999IA1209KA1999N-00781MD1710141+9999MW1031
0092011520999991954020109004+67283+014417FM-12+001399999V0200901N00721220001CN0700001N9-00611-01001103311ADDAY101999GA1021+024009049GF102991999001999999071999MD1710081+9999MW1021EQDQ01+000002SCOTLC
0092011520999991954020112004+67283+014417FM-12+001399999V0200901N00511220001CN0700001N9-00501-01001103191ADDAY101999GA1011+024009049GF101991999001999999071999MD1710121+9999MW1021EQDQ01+000002SCOTLC
0073011520999991954020115004+67283+014417FM-12+001399999V0200901N00821015001CN0700001N9-00501-01001103061ADDAY121999GA1051+015009059GF106991051051012501071999MD1710131+9999MW1031
0095011520999991954020118004+67283+014417FM-12+001399999V0200901N00771220001CN0700001N9-00501-01001102981ADDAY111999GF104991999051012501001001IA1209KA1999M-00501MD1710081+9999MW1021EQDQ01+000032SCOTLC
0057011520999991954020200004+67283+014417FM-12+001399999V0200901N00931220001CN0700001N9-00501-01001102801ADDAY101999GF100991001001999999001001MD1710091+9999MW1021
0057011520999991954020203004+67283+014417FM-12+001399999V0201001N00931220001CN0600001N9-00501-01001102691ADDAY101999GF101991011051012501001001MD1710111+9999MW1031
0092011520999991954020206004+67283+014417FM-12+001399999V0200901N00821009001CN0200001N9-00391-00891102551ADDAY121999GA1081+009009059GF108991081051008001999999IA1209KA1999N-00391MD1710111+9999MW1221
0073011520999991954020209004+67283+014417FM-12+001399999V0200901N00931220001CN0400001N9-00391-00781102491ADDAY121999GA1041+013509059GF104991041051012501071001MD1610061+9999MW1011
0073011520999991954020212004+67283+014417FM-12+001399999V0201101N00771220001CN0400001N9-00281-00721102331ADDAY121999GA1041+012009059GF104991041051012501001001MD1810161+9999MW1031
0089011520999991954020215004+67283+014417FM-12+001399999V0201001N00871220001CN0600001N9-00221-00611102001ADDAY121999GA1041+012009059GA2031+009009059GF107991041051008001041021MD1710331+9999MW1021
0087011520999991954020218004+67283+014417FM-12+001399999V0201401N00821007801CN0200001N9+00111-00391101651ADDAA199000691AY121999GF108991071051008001999999IA1209KA1999M+00111MD1710351+9999MW1681
0057011520999991954020300004+67283+014417FM-12+001399999V0202001N01031007801CN0100001N9+00221+00111101091ADDAY171999GF108991081051008001999999MD1610281+9999MW1681
0057011520999991954020303004+67283+014417FM-12+001399999V0202201N00931007801CN0100001N9+00111+00001101031ADDAY171999GF108991081051008001999999MD1710061+9999MW1681
0103011520999991954020306004+67283+014417FM-12+001399999V0202201N00931004501CN0030001N9+00221+00111100941ADDAA199002091AY171999GA1081+004509089GF108991081091008001999999IA1209KA1999N+00001MD1710091+9999MW1871
0089011520999991954020309004+67283+014417FM-12+001399999V0202401N00931004501CN0160001N9+00111+00001101031ADDAY181999GA1061+004509089GA2021+002409079GF107991071081004501061999MD1210091+9999MW1271
0073011520999991954020312004+67283+014417FM-12+001399999V0202801N00871005101CN0160001N9+00221+00001101161ADDAY181999GA1061+005109089GF107991071081004501061999MD1210131+9999MW1151
0089011520999991954020315004+67283+014417FM-12+001399999V0203001N01031006001CN0200001N9+00221-00281101381ADDAY181999GA1061+006009089GA2011+002409079GF107991061081008001999999MD1210221+9999MW1151
0087011520999991954020318004+67283+014417FM-12+001399999V0202901N00871007801CN0400001N9+00221-00281101461ADDAA199004091AY121999GF108991071081008001999999IA1209KA1999M+00281MD1110081+9999MW1021
0078011520999991954020400004+67283+014417FM-12+001399999V0203001N00821004501CN0120001N9+00111+00001101501ADDAY171999GF108991081091004501999999MW1831EQDQ01+000042APCTENQ02+000042APC3  
0057011520999991954020403004+67283+014417FM-12+001399999V0203301N00511004501CN0160001N9+00111+00001101651ADDAY181999GF107991071081004501999999MD1110151+9999MW1151
0103011520999991954020406004+67283+014417FM-12+001399999V0202801N00211004501CN0024001N9+00111+00001101761ADDAA199001091AY181999GA1061+004509089GF108991081081004501999999IA1209KA1999N+00001MD1210111+9999MW1831
0089011520999991954020409004+67283+014417FM-12+001399999V0201701N00211021001CN0150001N9+00111+00001101681ADDAY181999GA1021+001509079GA2081+021009049GF108991031081008001021999MD1990081+9999MW1151
0089011520999991954020412004+67283+014417FM-12+001399999V0200901N00871021001CN0150001N9+00111+00111101601ADDAY181999GA1031+001509079GA2061+021009049GF108991021081008001021999MD1710081+9999MW1261
0089011520999991954020415004+67283+014417FM-12+001399999V0201601N00411021001CN0150001N9+00221+00111101411ADDAY181999GA1031+002409079GA2061+021009049GF108991031081008001021999MD1710191+9999MW1151
0087011520999991954020418004+67283+014417FM-12+001399999V0202201N01031007801CN0120001N9+00501+00281101271ADDAA199000591AY161999GF108991071081008001021999IA1209KA1999M+00501MD1710141+9999MW1601
0078011520999991954020500004+67283+014417FM-12+001399999V0202401N006219999999N0150001N9+00391+00221101341ADDAY161999GF105991031081008001021999MW1601EQDQ01+000042APCTENQ02+000092APC3  
0057011520999991954020503004+67283+014417FM-12+001399999V0202401N00871007801CN0150001N9+00501+00111101311ADDAY181999GF107991051091008001021999MD1710031+9999MW1811
0119011520999991954020506004+67283+014417FM-12+001399999V0202301N01131220001CN0160001N9+00391+00001101201ADDAA199002091AY161999GA1021+004509079GA2041+007809099GF107991061091008001021999IA1209KA1999N+00281MD1710111+9999MW1601
0089011520999991954020509004+67283+014417FM-12+001399999V0202301N01031220001CN0140001N9+00281+00221101181ADDAY181999GA1041+003009079GA2031+004809099GF107991061091004501021999MD1710021+9999MW1151
0089011520999991954020512004+67283+014417FM-12+001399999V0202401N01031004801CN0140001N9+00281+00221101151ADDAY181999GA1051+004809099GA2021+009009089GF107991051091004501021999MD1710031+9999MW1151
0073011520999991954020515004+67283+014417FM-12+001399999V0202301N01231005401CN0140001N9+00391+00111101061ADDAY181999GA1051+005409099GF106991051091004501999999MD1710091+9999MW1871
0087011520999991954020518004+67283+014417FM-12+001399999V0202201N010319999999N0160001N9+00391+00111100891ADDAA199003091AY111999GF105991041091008001061999IA1209KA1999M+00501MD1990171+9999MW1151
0057011520999991954020600004+67283+014417FM-12+001399999V0202201N01541007801CN0120001N9+00391+00111100511ADDAY181999GF107991071091008001999999MD1710191+9999MW1271
0057011520999991954020603004+67283+014417FM-12+001399999V0202301N01441007801CN0120001N9+00281+00221100331ADDAY181999GF108991071091008001999999MD1710181+9999MW1151
0103011520999991954020606004+67283+014417FM-12+001399999V0202701N00821004801CN0120001N9+00221+00111100311ADDAA199011091AY181999GA1081+004809099GF108991081091004501999999IA1199KA1999N+00111MD1710021+9999MW1871
0108011520999991954020609004+67283+014417FM-12+001399999V0202701N00931007501CN0140001N9+00281+00001100371ADDAY181999GA1021+004509059GA2081+007509059GF108991999051008001021999MD1210061+9999MW1151EQDQ01+000082SCOTLC
0073011520999991954020612004+67283+014417FM-12+001399999V0202701N00261008701CN0160001N9+00221-00111100311ADDAY121999GA1061+008709059GF107991061051008001071999MD1990061+9999MW1021
0073011520999991954020615004+67283+014417FM-12+001399999V0201001N00511006001CN0160001N9+00221-00111100051ADDAY181999GA1061+006009059GF108991061051008001071999MD1810261+9999MW1601
0087011520999991954020618004+67283+014417FM-12+001399999V0202101N01031007801CN0160001N9+00391+00221099851ADDAA199000591AY161999GF107991051051008001041999IA1199KA1999M+00391MD1710201+9999MW1211
0057011520999991954020700004+67283+014417FM-12+001399999V0202201N01291007801CN0160001N9+00391+00111099891ADDAY181999GF106991051091008001999999MD1210021+9999MW1261
0057011520999991954020703004+67283+014417FM-12+001399999V0202101N00771004501CN0160001N9+00391+00001099931ADDAY181999GF108991081091004501999999MD1210041+9999MW1021
0087011520999991954020706004+67283+014417FM-12+001399999V0201601N005119999999N0160001N9+00281-00111099801ADDAA199003091AY111999GF105991041051008001071999IA1209KA1999N+00221MD1990131+9999MW1011
0057011520999991954020709004+67283+014417FM-12+001399999V0200801N003619999999N0700001N9+00281-00281099741ADDAY111999GF106991011051017501041021MD1710061+9999MW1031
0057011520999991954020712004+67283+014417FM-12+001399999V0200801N006719999999N0700001N9+00111-00391099631ADDAY121999GF106991011081012501041021MD1710111+9999MW1021
0057011520999991954020715004+67283+014417FM-12+001399999V0200801N005119999999N0700001N9+00001-00391099651ADDAY121999GF106991011051008001011999MD1610021+9999MW1021
0076011520999991954020718004+67283+014417FM-12+001399999V0200801N006219999999N0700001N9-00111-00221099721ADDAY121999GF107991021051008001021999IA1199KA1999M+00391MD1110071+9999MW1021
0057011520999991954020800004+67283+014417FM-12+001399999V0200801N00821220001CN0600001N9-00221-00721099771ADDAY121999GF107991001001999999041021MD1210041+9999MW1021
0092011520999991954020803004+67283+014417FM-12+001399999V0200801N00721220001CN0600001N9-00391-00781099871ADDAY111999GF102991001001999999041021MD1210101+9999MW1011EQDQ01+000042APCTENQ02+000102APC3  
0092011520999991954020806004+67283+014417FM-12+001399999V0200801N00771220001CN0600001N9-00391-00781099991ADDAY101999GA1011+015009059GF104991011051017501041021IA1199KA1999N-00391MD1210121+9999MW1021
0073011520999991954020809004+67283+014417FM-12+001399999V0200801N00931220001CN0700001N9-00391-00891100181ADDAY101999GA1011+013509059GF102991011051017501041021MD1210191+9999MW1021
0073011520999991954020812004+67283+014417FM-12+001399999V0200801N01031220001CN0600001N9-00281-00781100251ADDAY101999GA1011+015009059GF103991011051012501051021MD1010071+9999MW1011
0089011520999991954020815004+67283+014417FM-12+001399999V0200801N00931021001CN0600001N9-00391-00891100201ADDAY121999GA1051+021009039GA2011+015009059GF107991011051012501021011MD1810051+9999MW1021
0076011520999991954020818004+67283+014417FM-12+001399999V0200901N00981220001CN0600001N9-00391-01001100401ADDAY101999GF103991011051012501051001IA1199KA1999M-00281MD1710201+9999MW1011
0057011520999991954020900004+67283+014417FM-12+001399999V0200901N00931220001CN0400001N9-00221-01001100611ADDAY101999GF104991011051017501021999MD1310011+9999MW1021
0057011520999991954020903004+67283+014417FM-12+001399999V0200801N01031220001CN0400001N9-00221-01001100601ADDAY101999GF103991011051017501021999MD1710011+9999MW1011
0111011520999991954020906004+67283+014417FM-12+001399999V0200801N00981220001CN0600001N9-00111-01001100601ADDAY101999GA1021+013509059GF104991021051012501021999IA1199KA1999N-00391MD1410001+9999MW1021EQDQ01+000072APCTEN
0092011520999991954020909004+67283+014417FM-12+001399999V0200901N01031220001CN0600001N9-00221-01221100711ADDAY101999GA1011+024009039GF101991999001999999041001MD1610111+9999MW1011EQDQ01+000002SCOTLC
0092011520999991954020912004+67283+014417FM-12+001399999V0200901N01341220001CN0600001N9-00221-01111100771ADDAY101999GA1011+024009039GF101991999001999999041001MD1210061+9999MW1011EQDQ01+000002SCOTLC
0073011520999991954020915004+67283+014417FM-12+001399999V0201001N01341220001CN0700001N9-00221-00891100861ADDAY101999GA1011+013509089GF101991011021012501041001MD1210091+9999MW1021
0076011520999991954020918004+67283+014417FM-12+001399999V0201201N01231220001CN0600001N9-00221-00891100941ADDAY101999GF101991011011012501041001IA1199KA1999M-00111MD1110081+9999MW1021
0057011520999991954021000004+67283+014417FM-12+001399999V0201401N00931220001CN0600001N9+00001-00721100971ADDAY101999GF102991021011012501041001MD1210021+9999MW1031
0057011520999991954021003004+67283+014417FM-12+001399999V0201401N00981220001CN0600001N9+00001-00781101001ADDAY101999GF100991001001999999001001MD1210031+9999MW1011
0111011520999991954021006004+67283+014417FM-12+001399999V0201401N00821220001CN0600001N9+00001-00781101201ADDAY101999GA1011+024009039GF101991999001999999041001IA1199KA1999N-00221MD1210201+9999MW1011EQDQ01+000002SCOTLC
0092011520999991954021009004+67283+014417FM-12+001399999V0201201N00511220001CN0400001N9+00001-00781101331ADDAY101999GA1011+024009039GF101991999001999999041001MD1210131+9999MW1011EQDQ01+000002SCOTLC
0089011520999991954021012004+67283+014417FM-12+001399999V0201401N00821220001CN0400001N9+00001-00781101391ADDAY101999GA1011+014409089GA2011+024009039GF102991011011012501041001MD1210061+9999MW1021
0073011520999991954021015004+67283+014417FM-12+001399999V0201501N00931220001CN0600001N9+00001-00721101501ADDAY101999GA1011+013509089GF101991011011012501041011MD1210111+9999MW1021
0076011520999991954021018004+67283+014417FM-12+001399999V0201301N00461220001CN0700001N9-00111-00781101621ADDAY101999GF101991011041012501001001IA1199KA1999M+00111MD1210121+9999MW1021
0076011520999991954021100004+67283+014417FM-12+001399999V0200801N00821220001CN0600001N9-00281-00891101841ADDAY101999GF101991999001999999041001MD1210111+9999MW1021EQDQ01+000002SCOTLC
0076011520999991954021103004+67283+014417FM-12+001399999V0200801N00821220001CN0600001N9-00281-00891101861ADDAY101999GF101991999001999999041001MD1210021+9999MW1021EQDQ01+000002SCOTLC
0111011520999991954021106004+67283+014417FM-12+001399999V0200801N00721220001CN0600001N9-00501-01111101891ADDAY101999GA1011+024009039GF101991999001999999041001IA1199KA1999N-00501MD1110031+9999MW1021EQDQ01+000002SCOTLC
0092011520999991954021109004+67283+014417FM-12+001399999V0200801N00931220001CN0600001N9-00501-01001101941ADDAY101999GA1031+024009039GF104991999001999999041021MD1210051+9999MW1031EQDQ01+000002SCOTLC
0073011520999991954021112004+67283+014417FM-12+001399999V0200801N00821220001CN0700001N9-00391-01001101921ADDAY111999GA1011+013509059GF106991011051012501041071MD1710021+9999MW1011
0092011520999991954021115004+67283+014417FM-12+001399999V0200801N00671220001CN0700001N9-00501-01111101921ADDAY121999GA1011+013509059GF105991011051012501041021MD1410001+9999MW1011EQDQ01+000022APCTEN
0076011520999991954021118004+67283+014417FM-12+001399999V0200901N00821220001CN0700001N9-00611-01111101921ADDAY101999GF103991011051012501041999IA1199KA1999M-00391MD1010001+9999MW1021
0076011520999991954021200004+67283+014417FM-12+001399999V0200801N00931220001CN0700001N9-00781-01281101971ADDAY101999GF101991999001999999041001MD1210021+9999MW1021EQDQ01+000002SCOTLC
0057011520999991954021203004+67283+014417FM-12+001399999V0200801N00871220001CN0700001N9-00781-01281102021ADDAY101999GF101991011051017501001011MD1310051+9999MW1021
0092011520999991954021206004+67283+014417FM-12+001399999V0200801N00931220001CN0700001N9-00891-01281102081ADDAY101999GA1011+015009059GF101991011051017501041021IA1199KA1999N-00891MD1210061+9999MW1031
0073011520999991954021209004+67283+014417FM-12+001399999V0200801N00981220001CN0600001N9-00781-01221102151ADDAY101999GA1041+008409059GF105991041051012501021999MD1210071+9999MW1021
0073011520999991954021212004+67283+014417FM-12+001399999V0200801N00871220001CN0400001N9-00781-01221102161ADDAY121999GA1031+007509059GF106991051081008001071999MD1210011+9999MW1031
0092011520999991954021215004+67283+014417FM-12+001399999V0200901N00931004801CN0140001N9-00781-01221102161ADDAY121999GA1071+004809059GF108991071081008001071999MD1410001+9999MW1701EQDQ01+000022APCTEN
0106011520999991954021218004+67283+014417FM-12+001399999V0200801N00981007801CN0150001N9-00781-01221102161ADDAA199000691AY121999GF108991081081008001999999IA1199KA1999M-00781MD1410001+9999MW1151EQDQ01+000022APCTEN
0057011520999991954021300004+67283+014417FM-12+001399999V0200901N00771007801CN0400001N9-00891-01281102071ADDAY121999GF107991071081008001999999MD1710031+9999MW1021
0057011520999991954021303004+67283+014417FM-12+001399999V0200801N00621007801CN0400001N9-01001-01281102021ADDAY121999GF107991071081008001999999MD1710051+9999MW1021
0092011520999991954021306004+67283+014417FM-12+001399999V0200801N00721220001CN0400001N9-00891-01221101981ADDAY121999GA1031+008409059GF106991061081008001999999IA1199KA1999N-01111MD1710041+9999MW1021
0089011520999991954021309004+67283+014417FM-12+001399999V0200901N00721024001CN0160001N9-00891-01221101941ADDAY121999GA1021+009009059GA2051+024009049GF107991021051008001071999MD1710041+9999MW1151
0092011520999991954021312004+67283+014417FM-12+001399999V0200901N00771007501CN0160001N9-00781-01111101941ADDAY121999GA1061+007509059GF107991061051008001071999MD1410001+9999MW1151EQDQ01+000022APCTEN
0073011520999991954021315004+67283+014417FM-12+001399999V0200901N00621007501CN0160001N9-00721-01111101921ADDAY121999GA1061+007509059GF108991061051008001999999MD1710021+9999MW1151
0106011520999991954021318004+67283+014417FM-12+001399999V0200901N00511007801CN0160001N9-00611-00781101941ADDAA199000691AY171999GF108991999051008001021999IA1199KA1999M-00391MD1210021+9999MW1711EQDQ01+000082SCOTLC
0057011520999991954021400004+67283+014417FM-12+001399999V0201201N003619999999N0160001N9-00501-00501102001ADDAY171999GF108991031081008001021999MD1310061+9999MW1681
0057011520999991954021403004+67283+014417FM-12+001399999V0201901N003119999999N0200001N9-00221-00281101991ADDAY171999GF108991011081008001021999MD1710011+9999MW1681
0087011520999991954021406004+67283+014417FM-12+001399999V0201701N00411007801CN0160001N9-00221-00281102001ADDAA199000691AY171999GF108991071051008001071999IA1199KA1999N-00781MD1210011+9999MW1701
0092011520999991954021409004+67283+014417FM-12+001399999V0201101N00411007801CN0100001N9-00281-00391102051ADDAY171999GF108991071051008001071999MD1210051+9999MW1701EQDQ01+000042APCTENQ02+000052APC3  
0057011520999991954021412004+67283+014417FM-12+001399999V0201301N00411004501CN0040001N9-00221-00221102121ADDAY171999GF107991051051004501071999MD1210071+9999MW1711
0057011520999991954021415004+67283+014417FM-12+001399999V0202001N00261004501CN0160001N9-00111-00111102201ADDAY171999GF108991071081004501999999MD1310081+9999MW1701
0087011520999991954021418004+67283+014417FM-12+001399999V0200701N00411004501CN0040001N9-00221-00221102331ADDAA199003091AY171999GF108991081081004501999999IA1199KA1999M-00111MD1310131+9999MW1771
0057011520999991954021500004+67283+014417FM-12+001399999V0200901N00311004501CN0040001N9-00111-00111102521ADDAY171999GF108991081081004501999999MD1210091+9999MW1721
0057011520999991954021503004+67283+014417FM-12+001399999V0201401N00261004501CN0080001N9+00001-00111102511ADDAY171999GF108991081091004501999999MD1110011+9999MW1701
0103011520999991954021506004+67283+014417FM-12+001399999V0202001N00621001201CN0014001N9+00001+00001102501ADDAA199006091AY171999GA1091+001209999GF109991091999001501999999IA1209KA1999N-00281MD1310011+9999MW1861
0124011520999991954021509004+67283+014417FM-12+001399999V0202301N00821220001CN0160001N9+00111+00001102521ADDAY181999GA1041+005109089GA2011+003009079GF107991071081004501061001MD1210021+9999MW1831EQDQ01+000042APCTENQ02+000022APC3  
0089011520999991954021512004+67283+014417FM-12+001399999V0202301N00821005401CN0140001N9+00111+00001102551ADDAY181999GA1051+005409089GA2021+003009079GF107991071081004501061001MD1210031+9999MW1831
0124011520999991954021515004+67283+014417FM-12+001399999V0202301N00771004501CN0100001N9+00111+00001102561ADDAY181999GA1061+004509089GA2041+002109079GF107991071081004501001001MD1210011+9999MW1861EQDQ01+000042APCTENQ02+000012APC3  
0087011520999991954021518004+67283+014417FM-12+001399999V0202301N00671004501CN0150001N9+00111+00111102581ADDAA199003091AY181999GF108991071091004501071001IA1199KA1999M+00221MD1210021+9999MW1831
0057011520999991954021600004+67283+014417FM-12+001399999V0202301N00871004501CN0030001N9+00111+00001102631ADDAY181999GF108991081091004501999999MD1210021+9999MW1831
0092011520999991954021603004+67283+014417FM-12+001399999V0202301N00821004501CN0120001N9+00111+00001102641ADDAY181999GF108991081081004501999999MD1210011+9999MW1831EQDQ01+000042APCTENQ02+000012APC3  
0103011520999991954021606004+67283+014417FM-12+001399999V0202301N00721220001CN0160001N9+00111+00001102641ADDAA199003091AY181999GA1041+004509099GF106991061081004501001001IA1209KA1999N+00001MD1010001+9999MW1261
0124011520999991954021609004+67283+014417FM-12+001399999V0201801N00211006001CN0160001N9+00111+00001102691ADDAY181999GA1021+003009079GA2051+006009099GF107991061091008001061999MD1210051+9999MW1871EQDQ01+000042APCTENQ02+000052APC3  
0089011520999991954021612004+67283+014417FM-12+001399999V0200901N00461220001CN0160001N9+00001-00111102761ADDAY181999GA1031+004509089GA2041+009009089GF107991071081004501001001MD1210071+9999MW1151
0108011520999991954021615004+67283+014417FM-12+001399999V0200801N00151013501CN0200001N9+00001-00281102771ADDAY121999GA1031+006009089GA2061+013509059GF107991999081008001001001MD1210011+9999MW1021EQDQ01+000032SCOTLC
0087011520999991954021618004+67283+014417FM-12+001399999V0200901N00571220001CN0600001N9+00001-00501102701ADDAA199000691AY101999GF101991011061008001001001IA1209KA1999M+00111MD1710071+9999MW1011
0057011520999991954021700004+67283+014417FM-12+001399999V0200901N01231220001CN0700001N9-00111-00721102841ADDAY101999GF101991011051012501001001MD1990061+9999MW1011
0057011520999991954021703004+67283+014417FM-12+001399999V0201201N01131220001CN0700001N9-00221-00781102641ADDAY101999GF100991001001999999001001MD1710201+9999MW1021
0092011520999991954021706004+67283+014417FM-12+001399999V0201001N01031220001CN0700001N9-00221-00781102511ADDAY101999GA1011+013509059GF101991011051012501001001IA1209KA1999N-00281MD1610111+9999MW1031
0073011520999991954021709004+67283+014417FM-12+001399999V0201101N00931220001CN0700001N9-00221-00891102411ADDAY101999GA1011+013509059GF102991011051012501071041MD1710101+9999MW1031
0092011520999991954021712004+67283+014417FM-12+001399999V0201201N01031220001CN0700001N9-00111-00891102221ADDAY101999GA1011+048009039GF101991999001999999071001MD1710191+9999MW1021EQDQ01+000002SCOTLC
0092011520999991954021715004+67283+014417FM-12+001399999V0201201N01131220001CN0600001N9-00221-00891102161ADDAY101999GA1021+039009039GF102991999001999999071001MD1710071+9999MW1021EQDQ01+000002SCOTLC
0095011520999991954021718004+67283+014417FM-12+001399999V0201001N01751220001CN0600001N9-00391-01111102021ADDAY101999GF102991999001999999071001IA1209KA1999M-00221MD1610141+9999MW1021EQDQ01+000002SCOTLC
0076011520999991954021800004+67283+014417FM-12+001399999V0200901N01031220001CN0700001N9-00501-01281102111ADDAY101999GF101991999001999999071001MD1210041+9999MW1021EQDQ01+000002SCOTLC
0076011520999991954021803004+67283+014417FM-12+001399999V0200901N01291220001CN0700001N9-00391-01221102221ADDAY101999GF101991999001999999071001MD1210111+9999MW1021EQDQ01+000002SCOTLC
0111011520999991954021806004+67283+014417FM-12+001399999V0200901N00931220001CN0700001N9-00611-01391102281ADDAY101999GA1011+024009039GF101991999001999999071001IA1209KA1999N-01111MD1210061+9999MW1021EQDQ01+000002SCOTLC
0073011520999991954021809004+67283+014417FM-12+001399999V0200901N01031220001CN0700001N9-00611-01281102411ADDAY101999GA1011+013509059GF101991011051012501001001MD1210131+9999MW1021
0073011520999991954021812004+67283+014417FM-12+001399999V0200901N00931220001CN0700001N9-00501-01221102501ADDAY101999GA1011+013509059GF101991011051012501001001MD1210091+9999MW1021
0057011520999991954021815004+67283+014417FM-12+001399999V0200801N00931220001CN0700001N9-00501-01221102491ADDAY101999GF100991001001999999001001MD1710011+9999MW1021
0095011520999991954021818004+67283+014417FM-12+001399999V0200801N00871220001CN0700001N9-00611-01281102541ADDAY101999GF101991999001999999041001IA1199KA1999M-00391MD1210051+9999MW1021EQDQ01+000002SCOTLC
0076011520999991954021900004+67283+014417FM-12+001399999V0200801N00721220001CN0700001N9-00611-01281102561ADDAY101999GF102991999001999999041001MD1210011+9999MW1031EQDQ01+000002SCOTLC
0057011520999991954021903004+67283+014417FM-12+001399999V0200801N00721220001CN0700001N9-00611-01281102471ADDAY101999GF100991001001999999001001MD1710091+9999MW1011
0076011520999991954021906004+67283+014417FM-12+001399999V0200801N00721220001CN0700001N9-00611-01281102501ADDAY101999GF100991001001999999001001IA1209KA1999N-00781MD1110031+9999MW1011
0092011520999991954021909004+67283+014417FM-12+001399999V0200801N00571220001CN0700001N9-00611-01281102501ADDAY101999GA1011+012009059GF101991011051012501001001MD1410001+9999MW1021EQDQ01+000022APCTEN
0073011520999991954021912004+67283+014417FM-12+001399999V0200801N00671220001CN0700001N9-00391-01111102471ADDAY101999GA1011+012009059GF101991011051012501001001MD1710031+9999MW1021
0057011520999991954021915004+67283+014417FM-12+001399999V0200901N00511220001CN0700001N9-00501-01221102391ADDAY101999GF100991001001999999001001MD1990081+9999MW1021
0076011520999991954021918004+67283+014417FM-12+001399999V0200801N00621220001CN0700001N9-00721-01281102331ADDAY101999GF101991011051012501001001IA1209KA1999M-00391MD1610061+9999MW1021
0057011520999991954022000004+67283+014417FM-12+001399999V0200801N00511220001CN0700001N9-00781-01281102241ADDAY101999GF100991001001999999001001MD1710031+9999MW1001
0057011520999991954022003004+67283+014417FM-12+001399999V0200801N00621220001CN0700001N9-00781-01281102211ADDAY101999GF100991001001999999001001MD1710031+9999MW1001
0092011520999991954022006004+67283+014417FM-12+001399999V0200801N00621220001CN0700001N9-00781-01281102161ADDAY101999GA1011+012009059GF101991011051012501001001IA1199KA1999N-00891MD1810051+9999MW1021
0073011520999991954022009004+67283+014417FM-12+001399999V0200801N00621220001CN0700001N9-00781-01281102201ADDAY101999GA1011+012009059GF101991011051012501001001MD1510041+9999MW1021
0073011520999991954022012004+67283+014417FM-12+001399999V0200901N00511220001CN0700001N9-00611-01111102221ADDAY101999GA1011+012009059GF101991011051012501001001MD1210021+9999MW1021
0073011520999991954022015004+67283+014417FM-12+001399999V0200801N00621220001CN0700001N9-00721-01221102141ADDAY101999GA1021+012009059GF103991031051012501001011MD1710051+9999MW1031
0076011520999991954022018004+67283+014417FM-12+001399999V0200801N00621007801CN0200001N9-00611-01221102211ADDAY121999GF108991081051008001999999IA1199KA1999M-00611MD1210041+9999MW1021
0057011520999991954022100004+67283+014417FM-12+001399999V0201001N00721002401CN0100001N9-00501-00611102201ADDAY181999GF109991091999002501999999MD1210091+9999MW1851
0057011520999991954022103004+67283+014417FM-12+001399999V0200901N00621001501CN0020001N9-00391-00391102301ADDAY181999GF109991091999001501999999MD1210101+9999MW1861
0087011520999991954022106004+67283+014417FM-12+001399999V0200901N00621007801CN0140001N9-00281-00391102341ADDAA199004091AY181999GF107991071091008001999999IA1209KA1999N-00721MD1210041+9999MW1261
0057011520999991954022109004+67283+014417FM-12+001399999V0201101N00511007801CN0160001N9-00281-00391102451ADDAY121999GF107991071081008001999999MD1310111+9999MW1021
0057011520999991954022112004+67283+014417FM-12+001399999V0201001N00621007801CN0160001N9-00111-00221102541ADDAY121999GF107991071081008001999999MD1310091+9999MW1151
0076011520999991954022115004+67283+014417FM-12+001399999V0200901N00511220001CN0700001N9+00001-00221102541ADDAY101999GF101991011051008001001001MD1410001+9999MW1011EQDQ01+000022APCTEN
0087011520999991954022118004+67283+014417FM-12+001399999V0200901N00721220001CN0700001N9-00111-00501102511ADDAA199000691AY101999GF101991011051012501001001IA1209KA1999M+00001MD1710031+9999MW1021
0057011520999991954022200004+67283+014417FM-12+001399999V0201001N01291220001CN0700001N9+00111-00391102271ADDAY101999GF101991011051012501001001MD1710131+9999MW1021
0057011520999991954022203004+67283+014417FM-12+001399999V0201001N01341220001CN0700001N9+00001-00501102021ADDAY101999GF100991001001999999001001MD1810251+9999MW1001
0092011520999991954022206004+67283+014417FM-12+001399999V0200901N01131220001CN0700001N9-00221-00721101821ADDAY101999GA1011+010509059GF101991011051012501071001IA1199KA1999N-00221MD1810201+9999MW1031
0073011520999991954022209004+67283+014417FM-12+001399999V0200901N01341024001CN0700001N9-00221-00781101771ADDAY121999GA1061+024009049GF106991051051012501071061MD1710051+9999MW1031
0092011520999991954022212004+67283+014417FM-12+001399999V0200901N01131024001CN0700001N9-00111-00781101791ADDAY121999GA1071+024009049GF107991999001017501021001MD1210021+9999MW1021EQDQ01+000002SCOTLC
0073011520999991954022215004+67283+014417FM-12+001399999V0200801N01031006001CN0160001N9+00001-00721101841ADDAY121999GA1051+006009059GF108991071051008001021999MD1210051+9999MW1151
0111011520999991954022218004+67283+014417FM-12+001399999V0200901N00931007801CN0120001N9-00221-00781101881ADDAY121999GF108991071051008001999999IA1199KA1999M+00001MD1210041+9999MW1151EQDQ01+000042APCTENQ02+000042APC3  
0057011520999991954022300004+67283+014417FM-12+001399999V0200901N01131007801CN0160001N9-00221-00721101941ADDAY121999GF108991081051008001999999MD1110031+9999MW1151
0057011520999991954022303004+67283+014417FM-12+001399999V0200901N01231012301CN0160001N9-00281-00721101861ADDAY121999GF106991051051012501071999MD1990081+9999MW1011
0108011520999991954022306004+67283+014417FM-12+001399999V0200901N01231220001CN0160001N9-00281-00781101601ADDAY121999GA1031+024009049GA2041+010509059GF107991041051012501071999IA1199KA1999N-00391MD1810261+9999MW1021
0073011520999991954022309004+67283+014417FM-12+001399999V0200901N01651220001CN0200001N9-00281-00781101411ADDAY121999GA1031+013509059GF105991031051012501071051MD1810191+9999MW1361
0089011520999991954022312004+67283+014417FM-12+001399999V0201001N01751027001CN0400001N9-00221-00721101091ADDAY131999GA1051+027009049GA2011+012009059GF107991011051012501011071MD1710321+9999MW1361
0089011520999991954022315004+67283+014417FM-12+001399999V0200901N01231220001CN0200001N9-00111-00611100971ADDAY131999GA1031+024009049GA2031+010509059GF107991031051012501011999MD1710121+9999MW1361
0076011520999991954022318004+67283+014417FM-12+001399999V0201001N013419999999N0160001N9+00001-00501100851ADDAY161999GF108991011051008001021001IA1199KA1999M+00001MD1710121+9999MW1601
0057011520999991954022400004+67283+014417FM-12+001399999V0201401N009319999999N0200001N9+00111-00391100691ADDAY121999GF108991041051012501071999MD1510041+9999MW1021
0057011520999991954022403004+67283+014417FM-12+001399999V0201401N00821012301CN0400001N9+00281-00281100631ADDAY121999GF108991051051012501071999MD1710061+9999MW1021
0127011520999991954022406004+67283+014417FM-12+001399999V0201401N01131024001CN0400001N9+00221-00391100631ADDAY121999GA1051+024009039GA2031+012009059GF108991031051012501071999IA1199KA1999N-00111MD1410001+9999MW1021EQDQ01+000072APCTEN
0073011520999991954022409004+67283+014417FM-12+001399999V0201301N00981220001CN0400001N9+00221-00391100661ADDAY121999GA1041+009009059GF107991031051012501071011MD1990031+9999MW1021
0124011520999991954022412004+67283+014417FM-12+001399999V0201301N01231010501CN0400001N9+00221-00391100691ADDAY121999GA1031+021009039GA2051+010509059GF107991061081012501071999MD1210031+9999MW1021EQDQ01+000042APCTENQ02+000032APC3  
0089011520999991954022415004+67283+014417FM-12+001399999V0201401N01031220001CN0400001N9+00111-00611100701ADDAY121999GA1031+024009039GA2041+012009059GF107991041061012501051999MD1210011+9999MW1021
0095011520999991954022418004+67283+014417FM-12+001399999V0201401N01441220001CN0400001N9+00001-00721100701ADDAY121999GF107991001001999999051999IA1199KA1999M+00281MD1410001+9999MW1021EQDQ01+000022APCTEN
0057011520999991954022500004+67283+014417FM-12+001399999V0201301N00931220001CN0600001N9+00001-00721100751ADDAY101999GF103991011051012501021999MD1210061+9999MW1021
0057011520999991954022503004+67283+014417FM-12+001399999V0201201N008719999999N0160001N9+00001-00721100711ADDAY121999GF107991041051008001021999MD1710041+9999MW1031
0092011520999991954022506004+67283+014417FM-12+001399999V0201401N01131010501CN0200001N9+00001-00721100691ADDAY121999GA1051+010509059GF107991051051012501071999IA1199KA1999N-00111MD1710021+9999MW1021
0073011520999991954022509004+67283+014417FM-12+001399999V0201401N01031220001CN0200001N9-00111-00781100721ADDAY121999GA1021+012009059GF104991021051012501041021MD1210031+9999MW1031
0073011520999991954022512004+67283+014417FM-12+001399999V0201301N00721220001CN0200001N9+00111-00721100711ADDAY121999GA1031+012009059GF105991031051012501041021MD1710011+9999MW1021
0073011520999991954022515004+67283+014417FM-12+001399999V0201101N01031220001CN0200001N9+00001-00721100661ADDAY121999GA1041+012009059GF106991041051012501041021MD1710051+9999MW1021
0076011520999991954022518004+67283+014417FM-12+001399999V0201301N01031220001CN0200001N9-00111-00781100691ADDAY111999GF103991021051012501041999IA1199KA1999M+00111MD1110031+9999MW1011
0057011520999991954022600004+67283+014417FM-12+001399999V0201001N00931220001CN0400001N9-00391-01111100751ADDAY101999GF100991001001999999001001MD1210031+9999MW1021
0057011520999991954022603004+67283+014417FM-12+001399999V0201201N00931220001CN0400001N9-00391-01111100761ADDAY101999GF100991001001999999001001MD1210011+9999MW1021
0111011520999991954022606004+67283+014417FM-12+001399999V0201201N00621220001CN0400001N9-00501-01111100761ADDAY101999GA1011+012009059GF101991011051012501041001IA1199KA1999N-00721MD1410001+9999MW1031EQDQ01+000022APCTEN
0073011520999991954022609004+67283+014417FM-12+001399999V0201001N01131220001CN0200001N9-00611-01281100831ADDAY101999GA1011+012009089GF101991011011012501041999MD1210071+9999MW1021
0092011520999991954022612004+67283+014417FM-12+001399999V0201001N01131220001CN0200001N9-00611-01281100881ADDAY101999GA1011+024009039GF101991999001999999041999MD1210051+9999MW1021EQDQ01+000002SCOTLC
0092011520999991954022615004+67283+014417FM-12+001399999V0201001N01231220001CN0400001N9-00611-01221100841ADDAY101999GA1011+024009039GF101991999001999999041001MD1710041+9999MW1021EQDQ01+000002SCOTLC
0095011520999991954022618004+67283+014417FM-12+001399999V0201001N01131220001CN0400001N9-00781-01281100851ADDAY101999GF101991999001999999041001IA1199KA1999M-00501MD1210011+9999MW1021EQDQ01+000002SCOTLC
0057011520999991954022700004+67283+014417FM-12+001399999V0200901N01031220001CN0400001N9-00781-01281100921ADDAY101999GF100991001001999999001001MD1210031+9999MW1021
0057011520999991954022703004+67283+014417FM-12+001399999V0200901N01031220001CN0400001N9-00781-01281100951ADDAY101999GF100991001001999999001001MD1210031+9999MW1021
0111011520999991954022706004+67283+014417FM-12+001399999V0200801N00821220001CN0400001N9-00721-01221100961ADDAY101999GA1011+024009039GF101991999001999999041001IA1199KA1999N-01001MD1310011+9999MW1021EQDQ01+000002SCOTLC
0073011520999991954022709004+67283+014417FM-12+001399999V0200901N00931220001CN0200001N9-00721-01221100931ADDAY101999GA1011+012009059GF101991011041012501001001MD1990031+9999MW1021
0073011520999991954022712004+67283+014417FM-12+001399999V0200901N00821220001CN0200001N9-00501-01111100881ADDAY101999GA1011+012009059GF101991011051012501001001MD1810051+9999MW1051
0073011520999991954022715004+67283+014417FM-12+001399999V0200901N00821220001CN0200001N9-00611-00891100791ADDAY101999GA1011+012009059GF101991011051012501001001MD1610091+9999MW1051
0076011520999991954022718004+67283+014417FM-12+001399999V0200801N00871220001CN0200001N9-00721-01001100711ADDAY101999GF102991011051012501041001IA1199KA1999M-00501MD1990081+9999MW1051
0057011520999991954022800004+67283+014417FM-12+001399999V0201001N00931220001CN0400001N9-00721-01221100621ADDAY101999GF100991001001999999001001MD1710051+9999MW1021
0057011520999991954022803004+67283+014417FM-12+001399999V0200801N00931220001CN0400001N9-00721-01221100481ADDAY101999GF100991001001999999001001MD1710141+9999MW1021
0076011520999991954022806004+67283+014417FM-12+001399999V0200901N00821012301CN0400001N9-00611-01221100411ADDAY121999GF107991071051012501999999IA1199KA1999N-00891MD1710071+9999MW1031
0057011520999991954022809004+67283+014417FM-12+001399999V0200901N01341012301CN0160001N9-00611-01281100371ADDAY121999GF107991051051012501071999MD1710041+9999MW1021
0057011520999991954022812004+67283+014417FM-12+001399999V0200801N009319999999N0200001N9-00501-01111100391ADDAY121999GF105991021051012501071001MD1210021+9999MW1051
0057011520999991954022815004+67283+014417FM-12+001399999V0200901N01031220001CN0200001N9-00501-01111100321ADDAY121999GF104991011051012501071001MD1710071+9999MW1051
0076011520999991954022818004+67283+014417FM-12+001399999V0200901N01031220001CN0200001N9-00611-01281100251ADDAY121999GF103991011051012501071001IA1199KA1999M-00501MD1710071+9999MW1051
0057011520999991954030100004+67283+014417FM-12+001399999V0200901N01231220001CN0200001N9-00721-01221100301ADDAY121999GF104991021051012501071999MD1710021+9999MW1021
0057011520999991954030103004+67283+014417FM-12+001399999V0200901N01291220001CN0200001N9-00781-01281100291ADDAY121999GF104991011051012501071999MD1710011+9999MW1021
0111011520999991954030106004+67283+014417FM-12+001399999V0200801N01131220001CN0160001N9-00781-01281100291ADDAY121999GA1021+007509059GF106991021051008001021999IA1199KA1999N-01001MD1410001+9999MW1031EQDQ01+000022APCTEN
0073011520999991954030109004+67283+014417FM-12+001399999V0200901N01231012001CN0200001N9-00891-01391100341ADDAY121999GA1051+012009059GF107991051051012501001011MD1210051+9999MW1051
0073011520999991954030112004+67283+014417FM-12+001399999V0200801N01031220001CN0200001N9-00781-01281100351ADDAY121999GA1031+012009059GF107991031051012501041011MD1210011+9999MW1051
0073011520999991954030115004+67283+014417FM-12+001399999V0200901N00931220001CN0200001N9-00721-01221100321ADDAY121999GA1021+012009059GF103991031051012501041011MD1990031+9999MW1051
0076011520999991954030118004+67283+014417FM-12+001399999V0200801N01081220001CN0200001N9-00891-01281100231ADDAY101999GF101991011051012501001011IA1199KA1999M-00721MD1810091+9999MW1051
0057011520999991954030200004+67283+014417FM-12+001399999V0200801N01131220001CN0200001N9-00781-01281100171ADDAY101999GF100991001001999999001001MD1710031+9999MW1021
0057011520999991954030203004+67283+014417FM-12+001399999V0200801N01031220001CN0200001N9-00721-01221100101ADDAY101999GF101991011051012501001001MD1710071+9999MW1021
0092011520999991954030206004+67283+014417FM-12+001399999V0200801N00931220001CN0200001N9-00721-01221100061ADDAY101999GA1011+012009059GF101991011051012501041001IA1199KA1999N-01001MD1810041+9999MW1031
0092011520999991954030209004+67283+014417FM-12+001399999V0200801N01031220001CN0200001N9-00611-01111100011ADDAY101999GA1011+024009039GF101991999001999999041001MD1710051+9999MW1051EQDQ01+000002SCOTLC
0092011520999991954030212004+67283+014417FM-12+001399999V0200801N00931220001CN0200001N9-00391-01001099991ADDAY101999GA1021+024009039GF102991999001999999041001MD1710021+9999MW1051EQDQ01+000002SCOTLC
0073011520999991954030215004+67283+014417FM-12+001399999V0200801N00931220001CN0200001N9-00281-00891099861ADDAY101999GA1011+015009059GF102991011051017501041011MD1710131+9999MW1051
0076011520999991954030218004+67283+014417FM-12+001399999V0200701N00871220001CN0200001N9-00391-00891099821ADDAY101999GF103991011051017501041021IA1199KA1999M-00281MD1710041+9999MW1051
0057011520999991954030300004+67283+014417FM-12+001399999V0200801N00821220001CN0200001N9-00501-01001099711ADDAY121999GF103991021051012501041999MD1710051+9999MW1051
0057011520999991954030303004+67283+014417FM-12+001399999V0200701N008219999999N0200001N9-00501-01001099701ADDAY121999GF105991031051012501041999MD1810011+9999MW1051
0108011520999991954030306004+67283+014417FM-12+001399999V0200801N00931220001CN0160001N9-00501-01001099681ADDAY121999GA1021+015009059GA2021+024009039GF105991021051017501041021IA1199KA1999N-00611MD1710021+9999MW1051
0073011520999991954030309004+67283+014417FM-12+001399999V0200801N00821220001CN0200001N9-00391-00891099701ADDAY121999GA1011+010509089GF102991011081012501041021MD1210021+9999MW1051
0073011520999991954030312004+67283+014417FM-12+001399999V0200801N00721220001CN0200001N9-00281-00781099741ADDAY111999GA1011+010509089GF101991011081012501041021MD1010041+9999MW1051
0073011520999991954030315004+67283+014417FM-12+001399999V0200701N00511220001CN0200001N9-00281-00781099711ADDAY101999GA1011+012009059GF102991011051012501041021MD1710031+9999MW1051
0095011520999991954030318004+67283+014417FM-12+001399999V0200801N00571220001CN0200001N9-00501-01001099711ADDAY121999GF104991031051012501051999IA1199KA1999M-00281MD1410001+9999MW1051EQDQ01+000072APCTEN
0057011520999991954030400004+67283+014417FM-12+001399999V0200801N006219999999N0160001N9-00501-00781099711ADDAY121999GF108991031051012501071999MD1210011+9999MW1701
0057011520999991954030403004+67283+014417FM-12+001399999V0200801N007719999999N0140001N9-00501-00721099671ADDAY171999GF107991041051012501041999MD1710041+9999MW1221
0122011520999991954030406004+67283+014417FM-12+001399999V0200801N00621220001CN0160001N9-00611-00781099671ADDAA199000691AY171999GA1041+007509059GF107991041051008001071999IA1199KA1999N-00611MD1410001+9999MW1151EQDQ01+000072APCTEN
0073011520999991954030409004+67283+014417FM-12+001399999V0200801N00821220001CN0160001N9-00611-00891099721ADDAY101999GA1011+012009059GF101991011051012501071001MD1210051+9999MW1051
0073011520999991954030412004+67283+014417FM-12+001399999V0200901N00771220001CN0200001N9-00391-00721099781ADDAY101999GA1011+013509059GF101991011081012501041021MD1210061+9999MW1051
0073011520999991954030415004+67283+014417FM-12+001399999V0200901N00821220001CN0200001N9-00391-00781099791ADDAY101999GA1011+012009059GF101991011081012501041021MD1210011+9999MW1051
0076011520999991954030418004+67283+014417FM-12+001399999V0200801N00821220001CN0400001N9-00501-00891099861ADDAY101999GF102991011051012501001011IA1199KA1999M-00281MD1210071+9999MW1051
0057011520999991954030500004+67283+014417FM-12+001399999V0200801N00871220001CN0400001N9-00611-01111099931ADDAY101999GF101991011051012501001001MD1310011+9999MW1021
0057011520999991954030503004+67283+014417FM-12+001399999V0200801N01031220001CN0400001N9-00611-01111099911ADDAY101999GF101991011051012501001001MD1710021+9999MW1021
0092011520999991954030506004+67283+014417FM-12+001399999V0200801N01081220001CN0400001N9-00721-01221099881ADDAY101999GA1011+012009059GF102991011051012501041011IA1199KA1999N-00781MD1710031+9999MW1051
0073011520999991954030509004+67283+014417FM-12+001399999V0200801N01031220001CN0400001N9-00611-01111099841ADDAY101999GA1011+012009059GF104991011051012501051011MD1710041+9999MW1051
0073011520999991954030512004+67283+014417FM-12+001399999V0200801N01031220001CN0400001N9-00281-00781099751ADDAY121999GA1021+015009059GF107991021051012501051011MD1710091+9999MW1051
0073011520999991954030515004+67283+014417FM-12+001399999V0200801N01031220001CN0400001N9-00221-00721099631ADDAY121999GA1031+015009059GF106991031051012501041011MD1810121+9999MW1051
0076011520999991954030518004+67283+014417FM-12+001399999V0200801N01441012301CN0200001N9-00111-00721099501ADDAY121999GF108991051051012501021999IA1199KA1999M-00111MD1610131+9999MW1051
0057011520999991954030600004+67283+014417FM-12+001399999V0200801N01341012301CN0400001N9-00111-00611099441ADDAY121999GF106991051051012501021001MD1710031+9999MW1051
0057011520999991954030603004+67283+014417FM-12+001399999V0200801N00621012301CN0400001N9-00111-00611099411ADDAY121999GF105991051051012501001001MD1710031+9999MW1051
0092011520999991954030606004+67283+014417FM-12+001399999V0200801N00511220001CN0400001N9+00001-00501099441ADDAY121999GA1021+012009059GF107991021051012501071011IA1199KA1999N-00391MD1210031+9999MW1031
0073011520999991954030609004+67283+014417FM-12+001399999V0200801N00721220001CN0400001N9+00001-00501099451ADDAY101999GA1011+012009059GF102991011051012501071011MD1210011+9999MW1021
0073011520999991954030612004+67283+014417FM-12+001399999V0200801N00931220001CN0400001N9+00001-00501099401ADDAY121999GA1031+024009049GF105991031001022501011021MD1710051+9999MW1031
0089011520999991954030615004+67283+014417FM-12+001399999V0200801N00721027001CN0600001N9+00111-00281099291ADDAY121999GA1061+027009049GA2011+012009059GF107991011051012501011071MD1710111+9999MW1021
0076011520999991954030618004+67283+014417FM-12+001399999V0200801N006219999999N0600001N9+00001-00281099271ADDAY121999GF107991011051012501011071IA1199KA1999M+00221MD1610021+9999MW1021
0078011520999991954030700004+67283+014417FM-12+001399999V0200801N00261220001CN0400001N9+00111-00111099421ADDAY101999GF101991001001999999001011MW1021EQDQ01+000042APCTENQ02+000072APC3  
0057011520999991954030703004+67283+014417FM-12+001399999V0200801N004119999999N0400001N9-00111-00221099601ADDAY121999GF106991031051012501011999MD1310181+9999MW1031
0076011520999991954030706004+67283+014417FM-12+001399999V0200801N00571007801CN0200001N9+00001-00221099751ADDAY121999GF107991061051008001999999IA1199KA1999N-00221MD1310151+9999MW1151
0089011520999991954030709004+67283+014417FM-12+001399999V0200801N00721015001CN0600001N9+00111-00221099931ADDAY171999GA1051+015009059GA2011+007509089GF107991071081008001041021MD1210181+9999MW1021
0073011520999991954030712004+67283+014417FM-12+001399999V0200801N00671220001CN0600001N9+00221-00221099961ADDAY101999GA1011+013509059GF102991011081012501041011MD1210031+9999MW1021
0057011520999991954030715004+67283+014417FM-12+001399999V0200801N01131220001CN0600001N9+00281-00281099801ADDAY101999GF101991001001999999001011MD1990161+9999MW1011
0095011520999991954030718004+67283+014417FM-12+001399999V0200801N00931220001CN0600001N9+00111-00501099731ADDAY101999GF101991999001999999041001IA1199KA1999M+00281MD1510071+9999MW1021EQDQ01+000002SCOTLC
0057011520999991954030800004+67283+014417FM-12+001399999V0200801N01031220001CN0600001N9+00111-00501099791ADDAY101999GF101991001001999999041011MD1210021+9999MW1021
0057011520999991954030803004+67283+014417FM-12+001399999V0200801N01231220001CN0400001N9+00281-00221099651ADDAY111999GF106991001001999999041021MD1710141+9999MW1031
0079011520999991954030806004+67283+014417FM-12+001399999V0200801N01651012001CN0400001N9+00281-00281099521ADDAY121999GA1051+012009059GF108991051051012501071999IA1199MD1710131+9999MW1021
0073011520999991954030809004+67283+014417FM-12+001399999V0200801N01391009001CN0400001N9+00391-00221099601ADDAY121999GA1051+009009059GF107991061051008001071999MD1210081+9999MW1021
0073011520999991954030812004+67283+014417FM-12+001399999V0201201N00931013501CN0600001N9+00391-00221099521ADDAY121999GA1051+013509089GF105991051081012501999999MD1710081+9999MW1011
0073011520999991954030815004+67283+014417FM-12+001399999V0201201N01851220001CN0400001N9+00391-00221099301ADDAY121999GA1041+012909089GF104991041081012501041999MD1710221+9999MW1021
0076011520999991954030818004+67283+014417FM-12+001399999V0201201N01341007801CN0200001N9+00391-00221099341ADDAY121999GF107991051091008001041999IA1199KA1999M+00391MD1210041+9999MW1151
0057011520999991954030900004+67283+014417FM-12+001399999V0201001N008219999999N0400001N9+00391-00111099361ADDAY121999GF106991011051008001071999MD1210031+9999MW1021
0057011520999991954030903004+67283+014417FM-12+001399999V0201301N01031220001CN0400001N9+00501+00001099321ADDAY121999GF103991031001012501071999MD1710041+9999MW1021
0092011520999991954030906004+67283+014417FM-12+001399999V0201701N00571009001CN0200001N9+00501+00001099361ADDAY121999GA1051+009009089GF107991051081008001071999IA1199KA1999N+00281MD1210041+9999MW1151
0124011520999991954030909004+67283+014417FM-12+001399999V0202001N00821009001CN0200001N9+00501+00221099741ADDAY111999GA1021+007509089GA2071+009009059GF107991071081008001999999MD1210381+9999MW1151EQDQ01+000042APCTENQ02+000382APC3  
0073011520999991954030912004+67283+014417FM-12+001399999V0202301N01031220001CN0160001N9+00391+00281100111ADDAY181999GA1041+007509089GF106991041091008001061001MD1210361+9999MW1251
0073011520999991954030915004+67283+014417FM-12+001399999V0202301N01291220001CN0160001N9+00391+00281100381ADDAY181999GA1041+007509089GF106991041091008001041999MD1210271+9999MW1151
0087011520999991954030918004+67283+014417FM-12+001399999V0202201N01031007801CN0160001N9+00391+00001100521ADDAA199002091AY181999GF108991061091008001021999IA1199KA1999M+00611MD1110141+9999MW1151
0057011520999991954031000004+67283+014417FM-12+001399999V0202301N00981004501CN0100001N9+00501+00281100601ADDAY161999GF109991091999004501999999MD1710061+9999MW1621
0057011520999991954031003004+67283+014417FM-12+001399999V0202401N01291004501CN0080001N9+00391+00281100591ADDAY161999GF109991091999004501999999MD1710011+9999MW1621
0119011520999991954031006004+67283+014417FM-12+001399999V0202201N00871004501CN0150001N9+00221+00111100881ADDAA199013091AY181999GA1051+004509089GA2021+003009079GF108991071081004501021999IA1199KA1999N+00111MD1210291+9999MW1601
0073011520999991954031009004+67283+014417FM-12+001399999V0201801N00571001501CN0030001N9+00221+00111100901ADDAY181999GA1091+001509999GF109991091999001501999999MD1210021+9999MW1841
0089011520999991954031012004+67283+014417FM-12+001399999V0202001N00621003001CN0120001N9+00281+00221100871ADDAY181999GA1061+003009059GA2021+001509079GF108991061051004501021999MD1710031+9999MW1801
0124011520999991954031015004+67283+014417FM-12+001399999V0202201N00931005401CN0160001N9+00281+00221100901ADDAY181999GA1061+005409089GA2011+003009079GF107991071081004501999999MD1210031+9999MW1261EQDQ01+000042APCTENQ02+000032APC3  
0087011520999991954031018004+67283+014417FM-12+001399999V0202301N01031220001CN0160001N9+00391+00111100911ADDAA199010091AY181999GF103991031081004501001001IA1189KA1999M+00391MD1210011+9999MW1251
0076011520999991954031100004+67283+014417FM-12+001399999V0202501N00821004501CN0150001N9+00111+00001101131ADDAY181999GF106991999091004501001001MD1210111+9999MW1151EQDQ01+000052SCOTLC
0057011520999991954031103004+67283+014417FM-12+001399999V0202601N01131004501CN0100001N9+00111+00001101201ADDAY181999GF108991071091004501021001MD1210071+9999MW1831
0106011520999991954031106004+67283+014417FM-12+001399999V0202801N00821005701CN0140001N9+00111-00221101381ADDAA199002091AY181999GA1061+005709089GA2021+002109079GF108991061081004501999999IA1009MD1210181+9999MW1871
0089011520999991954031109004+67283+014417FM-12+001399999V0202601N00821007501CN0200001N9+00001-00281101541ADDAY181999GA1051+007509089GA2011+004509079GF106991051081008001061001MD1210201+9999MW1261
0073011520999991954031112004+67283+014417FM-12+001399999V0202801N00821006001CN0160001N9+00111-00111101731ADDAY181999GA1051+006009089GF107991051081008001061001MD1210151+9999MW1851
0108011520999991954031115004+67283+014417FM-12+001399999V0202801N00621220001CN0160001N9+00001-00221101731ADDAY181999GA1041+006309089GA2011+003909079GF107991051081008001061999MD1410001+9999MW1261EQDQ01+000022APCTEN
0087011520999991954031118004+67283+014417FM-12+001399999V0202901N00721000151CN0040001N9+00001-00111101741ADDAA199000391AY181999GF109991091999000251999999IA1199KA1999M+00221MD1210011+9999MW1861
0057011520999991954031200004+67283+014417FM-12+001399999V0202901N00461004501CN0024001N9-00111-00281101821ADDAY181999GF108991081061004501999999MD1210041+9999MW1711
0057011520999991954031203004+67283+014417FM-12+001399999V0202601N00311004501CN0160001N9-00221-00391101821ADDAY171999GF107991071051004501999999MD1010001+9999MW1011
0103011520999991954031206004+67283+014417FM-12+001399999V0203601N00411220001CN0200001N9-00221-00611101891ADDAA199002091AY181999GA1041+009009089GF106991061081008001001001IA1199KA1999N-00221MD1310071+9999MW1151
0073011520999991954031209004+67283+014417FM-12+001399999V0203501N00571220001CN0160001N9-00111-00501102111ADDAY181999GA1041+009009089GF107991071081008001001001MD1310221+9999MW1151
0073011520999991954031212004+67283+014417FM-12+001399999V0203601N00571006001CN0150001N9-00281-00281102421ADDAY181999GA1051+006009089GF107991071081004501001001MD1310311+9999MW1261
0073011520999991954031215004+67283+014417FM-12+001399999V0203601N00511009001CN0200001N9-00221-00781102681ADDAY181999GA1061+009009089GF107991071081008001001001MD1310261+9999MW1151
0106011520999991954031218004+67283+014417FM-12+001399999V0200201N00311007801CN0200001N9-00221-00781102901ADDAA199000691AY121999GF107991999081008001001001IA1199KA1999M+00221MD1310281+9999MW1151EQDQ01+000062SCOTLC
0057011520999991954031300004+67283+014417FM-12+001399999V0201701N00411007801CN0400001N9-00281-00611103141ADDAY121999GF107991071081008001001001MD1310071+9999MW1021
0057011520999991954031303004+67283+014417FM-12+001399999V0200801N00571007801CN0400001N9-00501-00721103111ADDAY121999GF107991061081008001011001MD1710031+9999MW1021
0108011520999991954031306004+67283+014417FM-12+001399999V0200801N00771024001CN0600001N9-00611-00891102901ADDAY121999GA1061+024009049GA2011+010509059GF107991011051012501071999IA1199KA1999N-00781MD1710211+9999MW1021
0092011520999991954031309004+67283+014417FM-12+001399999V0200801N00821024001CN0200001N9-00501-01001102761ADDAY121999GA1071+024009049GF107991999001999999021999MD1710141+9999MW1021EQDQ01+000002SCOTLC
0073011520999991954031312004+67283+014417FM-12+001399999V0200901N00621220001CN0700001N9-00281-00781102641ADDAY121999GA1041+015009059GF108991041051017501071999MD1710121+9999MW1021
0073011520999991954031315004+67283+014417FM-12+001399999V0201001N00571006001CN0160001N9-00221-00891102381ADDAY121999GA1051+006009059GF108991051051008001021999MD1710261+9999MW1851
0087011520999991954031318004+67283+014417FM-12+001399999V0201001N00621007801CN0160001N9-00221-00281102061ADDAA199000591AY181999GF108991061051008001021999IA1199KA1999M-00111MD1810331+9999MW1871
0057011520999991954031400004+67283+014417FM-12+001399999V0202301N01441004501CN0060001N9+00611+00501101621ADDAY161999GF109991091999004501999999MD1710191+9999MW1621
0057011520999991954031403004+67283+014417FM-12+001399999V0202301N01591002401CN0050001N9+00611+00611101471ADDAY161999GF109991091999002501999999MD1710151+9999MW1621
0087011520999991954031406004+67283+014417FM-12+001399999V0202301N01541004501CN0120001N9+00611+00501101311ADDAA199004091AY161999GF108991081071004501999999IA1199KA1999N-00221MD1710161+9999MW1801
0076011520999991954031409004+67283+014417FM-12+001399999V0202301N01541004501CN0050001N9+00501+00391101031ADDAY161999GF108991999071004501021999MD1710281+9999MW1631EQDQ01+000082SCOTLC
0076011520999991954031412004+67283+014417FM-12+001399999V0202301N01341004501CN0100001N9+00501+00391100871ADDAY161999GF108991999071004501021999MD1710161+9999MW1631EQDQ01+000082SCOTLC
0076011520999991954031415004+67283+014417FM-12+001399999V0202501N00821004501CN0090001N9+00501+00501100751ADDAY161999GF108991999071004501021999MD1710121+9999MW1631EQDQ01+000082SCOTLC
0122011520999991954031418004+67283+014417FM-12+001399999V0202601N00721004501CN0100001N9+00391+00281100841ADDAA199017091AY161999GF107991051071004501071011IA1189KA1999M+00611MD1210091+9999MW1151EQDQ01+000042APCTENQ02+000092APC3  
0057011520999991954031500004+67283+014417FM-12+001399999V0202501N011319999999N0150001N9+00281+00221100741ADDAY181999GF108991041071008001071999MD1710051+9999MW1251
0057011520999991954031503004+67283+014417FM-12+001399999V0202501N009319999999N0150001N9+00281+00221100611ADDAY181999GF108991041071008001071999MD1710131+9999MW1251
0103011520999991954031506004+67283+014417FM-12+001399999V0202701N01131005401CN0150001N9+00281+00001100531ADDAA199001091AY181999GA1051+005409089GF108991051071004501021999IA1189KA1999N+00221MD1710081+9999MW1801
0073011520999991954031509004+67283+014417FM-12+001399999V0202801N01031003001CN0150001N9+00221-00111100501ADDAY181999GA1051+003009089GF107991051071004501021999MD1710031+9999MW1151
0073011520999991954031512004+67283+014417FM-12+001399999V0202601N01031004801CN0150001N9+00221-00111100391ADDAY181999GA1051+004809089GF108991051071004501021999MD1710111+9999MW1151
0073011520999991954031515004+67283+014417FM-12+001399999V0202901N01341006001CN0160001N9+00221-00111100271ADDAY181999GA1051+006009089GF107991071081008001999999MD1710121+9999MW1271
0087011520999991954031518004+67283+014417FM-12+001399999V0203001N01181007801CN0160001N9+00111-00391100331ADDAA199000691AY181999GF107991071081008001999999IA1189KA1999M+00281MD1210061+9999MW1261
0057011520999991954031600004+67283+014417FM-12+001399999V0202901N01341007801CN0160001N9+00001-00281100391ADDAY121999GF107991071081008001999999MD1210031+9999MW1151
0057011520999991954031603004+67283+014417FM-12+001399999V0203301N01441007801CN0150001N9+00001-00281100561ADDAY181999GF108991081081008001999999MD1210171+9999MW1151
0103011520999991954031606004+67283+014417FM-12+001399999V0203201N01031006001CN0160001N9-00111-00721100801ADDAA199000391AY181999GA1071+006009089GF108991081081004501999999IA1189KA1999N-00281MD1210241+9999MW1151
0073011520999991954031609004+67283+014417FM-12+001399999V0203201N00211006001CN0160001N9-00111-00781101051ADDAY121999GA1051+006009089GF107991071091008001999999MD1310251+9999MW1151
0073011520999991954031612004+67283+014417FM-12+001399999V0202501N00411220001CN0160001N9+00001-00501101241ADDAY181999GA1031+007509089GF106991061081008001001021MD1110191+9999MW1151
0073011520999991954031615004+67283+014417FM-12+001399999V0202801N00511220001CN0200001N9+00111-00281101291ADDAY181999GA1031+007509089GF105991041081008001041021MD1010051+9999MW1261
0087011520999991954031618004+67283+014417FM-12+001399999V0202901N00411007801CN0200001N9+00001-00281101341ADDAA199000691AY181999GF107991061081008001041001IA1189KA1999M+00111MD1210051+9999MW1151
0057011520999991954031700004+67283+014417FM-12+001399999V0200701N00101220001CN0600001N9-00501-00611101561ADDAY111999GF102991011021012501041021MD1310111+9999MW1011
0057011520999991954031703004+67283+014417FM-12+001399999V0200701N003619999999N0600001N9-00391-00501101621ADDAY111999GF106991011081008001041061MD1310061+9999MW1021
0108011520999991954031706004+67283+014417FM-12+001399999V0200701N00511027001CN0700001N9-00391-00891101551ADDAY121999GA1061+027009049GA2011+015009059GF107991011051017501011999IA1189KA1999N-00501MD1710071+9999MW1021
0089011520999991954031709004+67283+014417FM-12+001399999V0200801N00571024001CN0700001N9-00391-01001101491ADDAY121999GA1061+024009049GA2011+013509059GF107991011051012501021999MD1990061+9999MW1021
0089011520999991954031712004+67283+014417FM-12+001399999V0200901N00821024001CN0600001N9-00391-01111101231ADDAY121999GA1061+024009049GA2011+015009059GF107991011051017501021999MD1710261+9999MW1021
0073011520999991954031715004+67283+014417FM-12+001399999V0200901N00931220001CN0150001N9-00281-01001100821ADDAY121999GA1021+000909079GF108991021051012501021999MD1810411+9999MW1151
0087011520999991954031718004+67283+014417FM-12+001399999V0200901N010319999999N0030001N9-00501-00611100531ADDAA199001091AY181999GF108991021051002501021999IA1189KA1999M-00281MD1610291+9999MW1861
0057011520999991954031800004+67283+014417FM-12+001399999V0200801N006219999999N0060001N9-00391-00391100361ADDAY171999GF108991011051004501021999MD1990101+9999MW1721
0057011520999991954031803004+67283+014417FM-12+001399999V0200801N004619999999N0080001N9-00391-00501100401ADDAY181999GF108991021051008001021999MD1210041+9999MW1701
0119011520999991954031806004+67283+014417FM-12+001399999V0200701N00311004801CN0120001N9-00391-00501100531ADDAA199002091AY181999GA1061+004809059GA2021+003009079GF108991061051004501999999IA1209KA1999N-00501MD1210131+9999MW1151
0073011520999991954031809004+67283+014417FM-12+001399999V0200801N00261006001CN0160001N9-00281-00391100761ADDAY121999GA1071+006009059GF107991071051008001999999MD1310231+9999MW1151
0073011520999991954031812004+67283+014417FM-12+001399999V0200901N00461220001CN0200001N9-00221-00501101051ADDAY101999GA1031+009009089GF104991031081008001041999MD1310291+9999MW1011
0073011520999991954031815004+67283+014417FM-12+001399999V0200801N00621220001CN0200001N9-00281-00891101311ADDAY101999GA1011+007509059GF102991011051008001041011MD1310261+9999MW1021
0076011520999991954031818004+67283+014417FM-12+001399999V0200701N00511220001CN0700001N9-00501-01001101431ADDAY101999GF102991001001999999041999IA1209KA1999M-00221MD1310121+9999MW1021
0076011520999991954031900004+67283+014417FM-12+001399999V0200901N00621220001CN0600001N9-00611-00891101571ADDAY101999GF101991999001999999041001MD1210071+9999MW1011EQDQ01+000002SCOTLC
0057011520999991954031903004+67283+014417FM-12+001399999V0200901N006219999999N0600001N9-00611-00891101611ADDAY111999GF105991031071008001041001MD1210041+9999MW1031
0092011520999991954031906004+67283+014417FM-12+001399999V0200901N00621220001CN0600001N9-00501-00781101531ADDAY121999GA1041+009909059GF106991041051008001041001IA1199KA1999N-00721MD1710081+9999MW1031
0073011520999991954031909004+67283+014417FM-12+001399999V0201001N00621012001CN0400001N9-00281-00781101491ADDAY121999GA1081+012009059GF108991081051004501999999MD1710041+9999MW1021
0073011520999991954031912004+67283+014417FM-12+001399999V0202301N00311009901CN0400001N9-00111-00611101411ADDAY121999GA1081+009909059GF108991081051008001999999MD1710081+9999MW1021
0089011520999991954031915004+67283+014417FM-12+001399999V0202301N01031006001CN0160001N9+00221+00111101291ADDAY181999GA1051+006009059GA2021+003909079GF108991081051004501999999MD1710121+9999MW1251
