0057011520999991957010100004+67267+014367FM-12+001099999V0200901N006219999999N0700001N9-00611+99999102071ADDAY101999GF101991011051012501001001MD1610101+9999MW1021
0057011520999991957010103004+67267+014367FM-12+001099999V0200901N005119999999N0700001N9-00561+99999101961ADDAY101999GF101991011051012501001001MD1810111+9999MW1021
0106011520999991957010106004+67267+014367FM-12+001099999V0200901N005719999999N0700001N9-00501+99999101891ADDAJ100009199999999AY101999GF101991011051012501001001IA1009KA1999M-00501KA2999N-00721MD1710071+9999MW1021
0043011520999991957010107004+67267+014367FM-12+001099999V0200901N005119999999N0700001N9+99999+99999999999ADDAY101999GF101991011051012501001001MW1021
0043011520999991957010108004+67267+014367FM-12+001099999V0201001N006219999999N0700001N9+99999+99999999999ADDAY101999GF101991011051012501041011MW1021
0057011520999991957010109004+67267+014367FM-12+001099999V0201001N006219999999N0700001N9-00441+99999101821ADDAY101999GF101991011051012501041011MD1710071+9999MW1021
0043011520999991957010110004+67267+014367FM-12+001099999V0201001N005719999999N0700001N9+99999+99999999999ADDAY101999GF101991011051012501041011MW1021
0043011520999991957010111004+67267+014367FM-12+001099999V0201001N004619999999N0700001N9+99999+99999999999ADDAY101999GF101991011051012501041011MW1021
0057011520999991957010112004+67267+014367FM-12+001099999V0200901N005719999999N0700001N9-00391+99999101811ADDAY101999GF101991011051012501041011MD1710011+9999MW1021
0043011520999991957010113004+67267+014367FM-12+001099999V0200901N005719999999N0700001N9+99999+99999999999ADDAY101999GF101991011051012501041011MW1021
0043011520999991957010114004+67267+014367FM-12+001099999V0200901N005119999999N0700001N9+99999+99999999999ADDAY101999GF101991011051012501041001MW1021
0057011520999991957010115004+67267+014367FM-12+001099999V0200901N005119999999N0700001N9-00391+99999101771ADDAY101999GF101991011051012501001001MD1710041+9999MW1021
0043011520999991957010116004+67267+014367FM-12+001099999V0200801N005719999999N0700001N9+99999+99999999999ADDAY101999GF101991011051012501001001MW1021
0043011520999991957010117004+67267+014367FM-12+001099999V0200801N005119999999N0700001N9+99999+99999999999ADDAY101999GF101991011051012501001001MW1021
0083011520999991957010118004+67267+014367FM-12+001099999V0200901N005119999999N0700001N9-00501+99999101721ADDAY101999GF101991011051012501001001KA1999M-00391KA2999N-00501MD1710051+9999MW1021
0057011520999991957010200004+67267+014367FM-12+001099999V0200901N006219999999N0700001N9-00561+99999101651ADDAY101999GF101991011051012501001001MD1710031+9999MW1021
0057011520999991957010203004+67267+014367FM-12+001099999V0200901N005719999999N0700001N9-00561+99999101571ADDAY101999GF101991011051012501001001MD1710081+9999MW1021
0125011520999991957010206004+67267+014367FM-12+001099999V0200901N00621007801CN0600001N9-00561+99999101521ADDAJ100009199999999AY111999GF106991999051008001001001IA1009KA1999M-00441KA2999N-00611MD1710051+9999MW1031EQDQ01+000052SCOTLC
0043011520999991957010207004+67267+014367FM-12+001099999V0200901N00571007801CN0600001N9+99999+99999999999ADDAY121999GF107991061051008001071999MW1031
0043011520999991957010208004+67267+014367FM-12+001099999V0200901N00771007801CN0600001N9+99999+99999999999ADDAY121999GF107991061051008001071999MW1021
0057011520999991957010209004+67267+014367FM-12+001099999V0200901N00621007801CN0600001N9-00561+99999101501ADDAY121999GF107991071051008001001001MD1710021+9999MW1021
0043011520999991957010210004+67267+014367FM-12+001099999V0200901N00721007801CN0550001N9+99999+99999999999ADDAY121999GF105991051051008001001001MW1011
0062011520999991957010211004+67267+014367FM-12+001099999V0200901N006219999999N0650001N9+99999+99999999999ADDAY121999GF104991999051008001001001MW1011EQDQ01+000032SCOTLC
0057011520999991957010212004+67267+014367FM-12+001099999V0200901N007719999999N0700001N9-00671+99999101431ADDAY111999GF103991021051008001001011MD1710071+9999MW1011
0043011520999991957010213004+67267+014367FM-12+001099999V0200901N007219999999N0700001N9+99999+99999999999ADDAY101999GF103991021051008001001011MW1021
0043011520999991957010214004+67267+014367FM-12+001099999V0200901N006219999999N0700001N9+99999+99999999999ADDAY101999GF103991021051008001001011MW1021
0076011520999991957010215004+67267+014367FM-12+001099999V0201001N006219999999N0700001N9-00721+99999101371ADDAY101999GF103991999051008001001001MD1710061+9999MW1021EQDQ01+000022SCOTLC
0062011520999991957010216004+67267+014367FM-12+001099999V0201001N005119999999N0700001N9+99999+99999999999ADDAY101999GF103991999051008001001001MW1021EQDQ01+000022SCOTLC
0062011520999991957010217004+67267+014367FM-12+001099999V0201001N005119999999N0700001N9+99999+99999999999ADDAY101999GF103991999051008001001001MW1021EQDQ01+000022SCOTLC
0118011520999991957010218004+67267+014367FM-12+001099999V0200901N006219999999N0700001N9-00781+99999101361ADDAY101999GF103991999051008001001001KA1999M-00501KA2999N+99999MD1610011+9999MW1021EQDQ01+000022SCOTLCQ02 -00722ATMN  
0057011520999991957010300004+67267+014367FM-12+001099999V0200901N005719999999N0700001N9-00831+99999101271ADDAY101999GF101991011051008001001001MD1710051+9999MW1011
0057011520999991957010303004+67267+014367FM-12+001099999V0200801N005119999999N0700001N9-00831+99999101221ADDAY101999GF101991011051008001001011MD1710051+9999MW1021
0106011520999991957010306004+67267+014367FM-12+001099999V0200901N006219999999N0700001N9-00781+99999101191ADDAJ100009199999999AY101999GF101991011051008001001011IA1009KA1999M-00721KA2999N-00891MD1710031+9999MW1021
0043011520999991957010307004+67267+014367FM-12+001099999V0200901N004619999999N0700001N9+99999+99999999999ADDAY101999GF101991011051008001001001MW1021
0043011520999991957010308004+67267+014367FM-12+001099999V0200901N006219999999N0700001N9+99999+99999999999ADDAY101999GF101991011051008001001001MW1021
0057011520999991957010309004+67267+014367FM-12+001099999V0200901N005119999999N0700001N9-00781+99999101171ADDAY101999GF101991011051008001001011MD1610021+9999MW1021
0043011520999991957010310004+67267+014367FM-12+001099999V0200901N004119999999N0700001N9+99999+99999999999ADDAY101999GF101991011051008001001001MW1021
0043011520999991957010311004+67267+014367FM-12+001099999V0200901N005119999999N0700001N9+99999+99999999999ADDAY101999GF101991011051008001001001MW1021
0057011520999991957010312004+67267+014367FM-12+001099999V0200901N005719999999N0700001N9-00561+99999101221ADDAY101999GF101991011051008001001001MD1310051+9999MW1021
0057011520999991957010412004+67267+014367FM-12+001099999V0200901N013919999999N0700001N9-00061+99999100621ADDAY131999GF101991011051008001001001MD1610221+9999MW1321
0043011520999991957010413004+67267+014367FM-12+001099999V0200901N012919999999N0700001N9+99999+99999999999ADDAY131999GF101991011051008001041001MW1311
0043011520999991957010414004+67267+014367FM-12+001099999V0200901N010319999999N0700001N9+99999+99999999999ADDAY131999GF101991011051012501041001MW1021
0057011520999991957010415004+67267+014367FM-12+001099999V0201001N010319999999N0700001N9-00281+99999100561ADDAY101999GF101991011051012501001001MD1810061+9999MW1021
0043011520999991957010416004+67267+014367FM-12+001099999V0201001N011319999999N0700001N9+99999+99999999999ADDAY101999GF101991011051012501001001MW1021
0043011520999991957010417004+67267+014367FM-12+001099999V0201001N017519999999N0700001N9+99999+99999999999ADDAY101999GF101991011051012501001001MW1021
0083011520999991957010418004+67267+014367FM-12+001099999V0201101N015419999999N0700001N9-00111+99999100211ADDAY131999GF101991011051012501001001KA1999M+00001KA2999N-00391MD1710351+9999MW1021
0057011520999991957010500004+67267+014367FM-12+001099999V0201501N01131007801CN0250001N9+00171+99999100061ADDAY111999GF108991071051008001021999MD1710101+9999MW1701
0057011520999991957010503004+67267+014367FM-12+001099999V0200901N01031007801CN0250001N9+00001+99999099981ADDAY171999GF108991061051008001021999MD1710081+9999MW1701
0100011520999991957010506004+67267+014367FM-12+001099999V0200901N00931007801CN0250001N9+00061+99999099701ADDAA199000691AY171999GF108991061051008001021999IA1009KA1999M+00221KA2999N-00111MD1710281+9999MW1021
0043011520999991957010507004+67267+014367FM-12+001099999V0201001N00981007801CN0200001N9+99999+99999999999ADDAY121999GF108991061051008001021999MW1021
0043011520999991957010508004+67267+014367FM-12+001099999V0201101N01341007801CN0250001N9+99999+99999999999ADDAY121999GF108991061051008001021999MW1021
0057011520999991957010509004+67267+014367FM-12+001099999V0201001N012319999999N0350001N9+00171+99999099311ADDAY121999GF108991021051008001021999MD1610391+9999MW1021
0043011520999991957010510004+67267+014367FM-12+001099999V0201101N012319999999N0400001N9+99999+99999999999ADDAY121999GF108991031051008001071999MW1021
0043011520999991957010511004+67267+014367FM-12+001099999V0201101N011319999999N0400001N9+99999+99999999999ADDAY121999GF107991041051008001071999MW1011
0057011520999991957010512004+67267+014367FM-12+001099999V0201101N01131007801CN0400001N9+00281+99999098971ADDAY121999GF108991051051008001071999MD1710341+9999MW1151
0043011520999991957010513004+67267+014367FM-12+001099999V0200901N00981007801CN0500001N9+99999+99999999999ADDAY121999GF108991051051008001071999MW1151
0043011520999991957010514004+67267+014367FM-12+001099999V0201001N00871007801CN0450001N9+99999+99999999999ADDAY121999GF108991061051008001071999MW1151
0057011520999991957010515004+67267+014367FM-12+001099999V0200901N00931007801CN0300001N9+00171+99999098841ADDAY171999GF108991071051008001999999MD1610131+9999MW1151
0043011520999991957010516004+67267+014367FM-12+001099999V0201001N01031007801CN0300001N9+99999+99999999999ADDAY121999GF108991071051008001999999MW1151
0043011520999991957010517004+67267+014367FM-12+001099999V0201001N00871012301CN0300001N9+99999+99999999999ADDAY121999GF108991071051012501999999MW1021
0094011520999991957010518004+67267+014367FM-12+001099999V0200901N00871012301CN0300001N9+00171+99999098921ADDAA199000691AY171999GF108991071051012501999999KA1999M+00281KA2999N+00061MD1310081+9999MW1151
0043011520999991957010519004+67267+014367FM-12+001099999V0200901N00721007801CN0300001N9+99999+99999999999ADDAY171999GF108991071051008001021999MW1701
0043011520999991957010520004+67267+014367FM-12+001099999V0200901N00821007801CN0300001N9+99999+99999999999ADDAY171999GF108991071051008001021999MW1701
0043011520999991957010521004+67267+014367FM-12+001099999V0200901N00571007801CN0300001N9+99999+99999999999ADDAY171999GF108991061051008001021999MW1021
0043011520999991957010522004+67267+014367FM-12+001099999V0200901N005719999999N0300001N9+99999+99999999999ADDAY121999GF107991031051008001021999MW1011
0057011520999991957010600004+67267+014367FM-12+001099999V0200901N00411012301CN0450001N9+00061+99999099101ADDAY171999GF108991071051012501999999MD1210091+9999MW1031
0057011520999991957010603004+67267+014367FM-12+001099999V0200801N00621012301CN0450001N9+00061+99999099061ADDAY121999GF108991071051012501999999MD1810041+9999MW1021
0117011520999991957010606004+67267+014367FM-12+001099999V0200901N00721012301CN0450001N9-00061+99999098951ADDAA199000691AJ100009199999999AY121999GF108991071051012501999999IA1009KA1999M+00221KA2999N-00061MD1710111+9999MW1151
0043011520999991957010607004+67267+014367FM-12+001099999V0200901N00621012301CN0350001N9+99999+99999999999ADDAY121999GF107991061051012501021999MW1011
0043011520999991957010608004+67267+014367FM-12+001099999V0200901N00721012301CN0400001N9+99999+99999999999ADDAY121999GF107991061051012501021999MW1021
0057011520999991957010609004+67267+014367FM-12+001099999V0200801N006719999999N0500001N9-00111+99999098891ADDAY121999GF106991031051008001071011MD1710061+9999MW1011
0043011520999991957010610004+67267+014367FM-12+001099999V0201001N00771012301CN0550001N9+99999+99999999999ADDAY121999GF108991061051012501071999MW1031
0043011520999991957010611004+67267+014367FM-12+001099999V0200901N00621012301CN0600001N9+99999+99999999999ADDAY121999GF108991051051012501021999MW1021
0057011520999991957010612004+67267+014367FM-12+001099999V0200801N00771012301CN0450001N9+00001+99999098951ADDAY121999GF108991061051012501071999MD1210061+9999MW1151
0043011520999991957010613004+67267+014367FM-12+001099999V0200901N00721012301CN0350001N9+99999+99999999999ADDAY171999GF108991071051012501021999MW1701
0043011520999991957010614004+67267+014367FM-12+001099999V0200901N00671007801CN0200001N9+99999+99999999999ADDAY171999GF108991071051008001021999MW1781
0057011520999991957010615004+67267+014367FM-12+001099999V0201001N00511007801CN0250001N9-00111+99999099081ADDAY171999GF108991071051008001071999MD1210131+9999MW1701
0043011520999991957010616004+67267+014367FM-12+001099999V0201001N00511007801CN0280001N9+99999+99999999999ADDAY171999GF108991061051008001071999MW1221
0043011520999991957010617004+67267+014367FM-12+001099999V0200901N00571007801CN0200001N9+99999+99999999999ADDAY171999GF108991061051008001071999MW1701
0094011520999991957010618004+67267+014367FM-12+001099999V0200901N00721007801CN0250001N9-00171+99999099261ADDAA199000691AY171999GF108991081051008001999999KA1999M-00061KA2999N-00171MD1210181+9999MW1221
0057011520999991957010700004+67267+014367FM-12+001099999V0201101N00211002401CN0050001N9-00111+99999099611ADDAY181999GF109991091999002501999999MD1210141+9999MW1851
0057011520999991957010703004+67267+014367FM-12+001099999V0202401N01031004501CN0250001N9+00281+99999099721ADDAY181999GF108991081081004501999999MD1210111+9999MW1021
0117011520999991957010706004+67267+014367FM-12+001099999V0202801N00461007801CN0300001N9+00441+99999099961ADDAA199003091AJ100009199999999AY181999GF108991081081008001999999IA1009KA1999M+00441KA2999N-00171MD1210241+9999MW1031
0043011520999991957010707004+67267+014367FM-12+001099999V0202601N00461007801CN0300001N9+99999+99999999999ADDAY121999GF106991051081008001021999MW1011
0043011520999991957010708004+67267+014367FM-12+001099999V0202501N00981007801CN0250001N9+99999+99999999999ADDAY181999GF107991061081008001021999MW1791
0057011520999991957010709004+67267+014367FM-12+001099999V0202201N004119999999N0350001N9+00221+99999100131ADDAY191999GF104991031091004501001011MD1210171+9999MW1291
0043011520999991957010710004+67267+014367FM-12+001099999V0202201N005119999999N0300001N9+99999+99999999999ADDAY121999GF104991031091004501041011MW1151
0043011520999991957010711004+67267+014367FM-12+001099999V0202101N006219999999N0400001N9+99999+99999999999ADDAY121999GF104991021091004501041011MW1151
0057011520999991957010712004+67267+014367FM-12+001099999V0201901N004119999999N0300001N9+00281+99999100101ADDAY191999GF105991021091008001071011MD1810031+9999MW1151
0043011520999991957010713004+67267+014367FM-12+001099999V0201901N00261012301CN0500001N9+99999+99999999999ADDAY121999GF108991061081012501071999MW1031
0043011520999991957010714004+67267+014367FM-12+001099999V0201301N004119999999N0500001N9+99999+99999999999ADDAY121999GF108991021081012501021999MW1021
0057011520999991957010715004+67267+014367FM-12+001099999V0201101N005719999999N0500001N9+00221+99999099831ADDAY121999GF108991031051008001021999MD1710271+9999MW1021
0043011520999991957010716004+67267+014367FM-12+001099999V0201401N006719999999N0450001N9+99999+99999999999ADDAY121999GF108991021051008001021999MW1021
0043011520999991957010717004+67267+014367FM-12+001099999V0201501N00981007801CN0200001N9+99999+99999999999ADDAY171999GF108991081001008001021999MW1681
0094011520999991957010718004+67267+014367FM-12+001099999V0201201N00871007801CN0250001N9+00331+99999099191ADDAA199000691AY171999GF108991081001008001021999KA1999M+00441KA2999N+00111MD1710641+9999MW1231
0057011520999991957010800004+67267+014367FM-12+001099999V0202301N01031007801CN0200001N9+00501+99999099031ADDAY161999GF108991081051008001999999MD1710081+9999MW1021
0057011520999991957010803004+67267+014367FM-12+001099999V0201601N00511012301CN0300001N9+00501+99999098451ADDAY121999GF108991081051012501999999MD1710581+9999MW1021
0136011520999991957010806004+67267+014367FM-12+001099999V0201501N00771007801CN0150001N9+00441+99999097672ADDAA199002091AJ100009199999999AY161999GF108991081051008001999999IA1009KA1999M+00561KA2999N+00171MD1710781+9999MW1611EQDQ01+097673APOSLP
0043011520999991957010807004+67267+014367FM-12+001099999V0202401N01341004501CN0200001N9+99999+99999999999ADDAY161999GF108991081051004501999999MW1211
0043011520999991957010808004+67267+014367FM-12+001099999V0202501N01231004501CN0250001N9+99999+99999999999ADDAY121999GF108991051081004501061999MW1151
0057011520999991957010809004+67267+014367FM-12+001099999V0202601N01131007801CN0220001N9+00501+99999097851ADDAY161999GF108991061081008001021999MD1310181+9999MW1151
0043011520999991957010810004+67267+014367FM-12+001099999V0202501N01231007801CN0250001N9+99999+99999999999ADDAY121999GF108991061081008001051999MW1151
0043011520999991957010811004+67267+014367FM-12+001099999V0202501N01181007801CN0300001N9+99999+99999999999ADDAY121999GF108991061081008001051999MW1151
0057011520999991957010812004+67267+014367FM-12+001099999V0202401N013419999999N0300001N9+00441+99999097861ADDAY161999GF108991011061004501021999MD1010011+9999MW1151
0043011520999991957010813004+67267+014367FM-12+001099999V0202501N012319999999N0230001N9+99999+99999999999ADDAY181999GF108991011061004501021999MW1801
0043011520999991957010814004+67267+014367FM-12+001099999V0202501N01031007801CN0250001N9+99999+99999999999ADDAY181999GF108991061081008001021999MW1251
0057011520999991957010815004+67267+014367FM-12+001099999V0202501N01131007801CN0250001N9+00441+99999097831ADDAY181999GF108991061081008001021999MD1710031+9999MW1151
0043011520999991957010816004+67267+014367FM-12+001099999V0202501N01181007801CN0250001N9+99999+99999999999ADDAY121999GF108991061081008001021999MW1151
0043011520999991957010817004+67267+014367FM-12+001099999V0202401N01031012301CN0250001N9+99999+99999999999ADDAY161999GF108991051051012501021999MW1601
0094011520999991957010818004+67267+014367FM-12+001099999V0202301N01031012301CN0250001N9+00331+99999097751ADDAA199000691AY181999GF108991051051012501021999KA1999M+00671KA2999N+00281MD1710081+9999MW1211
0057011520999991957010900004+67267+014367FM-12+001099999V0202501N006719999999N0250001N9+00331+99999097691ADDAY181999GF107991041091008001021999MD1510011+9999MW1801
0057011520999991957010903004+67267+014367FM-12+001099999V0203301N002619999999N0350001N9+00171+99999097601ADDAY181999GF106991021061002501011999MD1810091+9999MW1251
0117011520999991957010906004+67267+014367FM-12+001099999V0202701N00411007801CN0400001N9+00281+99999097471ADDAA199001091AJ100009199999999AY181999GF107991071081008001011999IA1009KA1999M+00391KA2999N+00171MD1710131+9999MW1021
0043011520999991957010907004+67267+014367FM-12+001099999V0203601N00101012301CN0400001N9+99999+99999999999ADDAY121999GF107991071081012501999999MW1021
0043011520999991957010908004+67267+014367FM-12+001099999V0202401N00511012301CN0400001N9+99999+99999999999ADDAY121999GF107991071081012501999999MW1021
0057011520999991957010909004+67267+014367FM-12+001099999V0203001N00411007801CN0100001N9+00111+99999097521ADDAY181999GF108991061091008001061999MD1310051+9999MW1851
0043011520999991957010910004+67267+014367FM-12+001099999V0203101N00411004501CN0200001N9+99999+99999999999ADDAY121999GF108991061081004501061999MW1151
0043011520999991957010911004+67267+014367FM-12+001099999V0202901N003619999999N0400001N9+99999+99999999999ADDAY181999GF107991041081004501061011MW1271
0057011520999991957010912004+67267+014367FM-12+001099999V0202701N01031004501CN0150001N9+00221+99999097631ADDAY181999GF108991061091004501071011MD1310111+9999MW1851
0043011520999991957010913004+67267+014367FM-12+001099999V0203001N00621007801CN0400001N9+99999+99999999999ADDAY181999GF107991051081008001061011MW1151
0043011520999991957010914004+67267+014367FM-12+001099999V0202701N00821007801CN0300001N9+99999+99999999999ADDAY121999GF107991061081008001061999MW1151
0057011520999991957010915004+67267+014367FM-12+001099999V0202701N006219999999N0350001N9+00171+99999097701ADDAY181999GF107991041091008001061011MD1110071+9999MW1151
0043011520999991957010916004+67267+014367FM-12+001099999V0202801N005119999999N0400001N9+99999+99999999999ADDAY121999GF106991041091008001001011MW1151
0043011520999991957010917004+67267+014367FM-12+001099999V0202701N004619999999N0350001N9+99999+99999999999ADDAY121999GF107991031091008001001011MW1151
0094011520999991957010918004+67267+014367FM-12+001099999V0202701N00671004501CN0300001N9+00221+99999097701ADDAA199001091AY181999GF106991061091004501021011KA1999M+00331KA2999N+00061MD1410001+9999MW1271
0057011520999991957011000004+67267+014367FM-12+001099999V0202701N01031007801CN0300001N9+00281+99999097911ADDAY181999GF108991071081008001021999MD1210101+9999MW1151
0057011520999991957011003004+67267+014367FM-12+001099999V0203601N00511004501CN0200001N9+00221+99999098181ADDAY181999GF108991071081004501021999MD1210271+9999MW1261
0117011520999991957011006004+67267+014367FM-12+001099999V0200101N00621004501CN0300001N9+00221+99999098591ADDAA199001091AJ100009199999999AY181999GF107991061081004501999999IA1009KA1999M+00281KA2999N+00061MD1210411+9999MW1011
0062011520999991957011007004+67267+014367FM-12+001099999V0200201N005719999999N0400001N9+99999+99999999999ADDAY121999GF105991999081008001001001MW1011EQDQ01+000042SCOTLC
0043011520999991957011008004+67267+014367FM-12+001099999V0203601N003119999999N0400001N9+99999+99999999999ADDAY111999GF103991031081008001001001MW1011
0057011520999991957011009004+67267+014367FM-12+001099999V0200101N003119999999N0550001N9+00221+99999099081ADDAY111999GF104991041081008001001001MD1210491+9999MW1031
0043011520999991957011010004+67267+014367FM-12+001099999V0203601N00311007801CN0550001N9+99999+99999999999ADDAY111999GF106991051081008001071011MW1031
0043011520999991957011011004+67267+014367FM-12+001099999V0203601N003619999999N0600001N9+99999+99999999999ADDAY121999GF106991041081008001071011MW1021
0057011520999991957011012004+67267+014367FM-12+001099999V0203401N00461007801CN0600001N9+00281+99999099441ADDAY111999GF107991051081008001071011MD1210361+9999MW1031
0043011520999991957011013004+67267+014367FM-12+001099999V0202801N00361007801CN0350001N9+99999+99999999999ADDAY181999GF108991051091008001021999MW1831
0043011520999991957011014004+67267+014367FM-12+001099999V0203101N010319999999N0100001N9+99999+99999999999ADDAY181999GF108991021061001501021999MW1271
0057011520999991957011015004+67267+014367FM-12+001099999V0203001N00771007801CN0250001N9+00221+99999099691ADDAY181999GF107991051091008001999999MD1210251+9999MW1151
0043011520999991957011016004+67267+014367FM-12+001099999V0203201N00311007801CN0300001N9+99999+99999999999ADDAY181999GF107991051081008001999999MW1261
0043011520999991957011017004+67267+014367FM-12+001099999V0203101N008219999999N0100001N9+99999+99999999999ADDAY191999GF104991041091004501001001MW1291
0094011520999991957011018004+67267+014367FM-12+001099999V0203401N00721004501CN0200001N9+00221+99999099921ADDAA199003091AY191999GF107991051091004501999999KA1999M+00331KA2999N+00111MD1210231+9999MW1261
0043011520999991957011019004+67267+014367FM-12+001099999V0203401N01031007801CN0200001N9+99999+99999999999ADDAY121999GF107991051091008001999999MW1151
0043011520999991957011020004+67267+014367FM-12+001099999V0203301N008219999999N0200001N9+99999+99999999999ADDAY181999GF107991041091008001999999MW1801
0057011520999991957011100004+67267+014367FM-12+001099999V0203401N00621004501CN0200001N9+00111+99999100421ADDAY181999GF106991051091004501071999MD1210201+9999MW1151
0057011520999991957011103004+67267+014367FM-12+001099999V0203601N007219999999N0200001N9+00111+99999100711ADDAY111999GF105991041091008001999999MD1210291+9999MW1151
0119011520999991957011106004+67267+014367FM-12+001099999V0203301N005119999999N0150001N9-00061+99999100961ADDAA199000591AY181999GF104991999091008001001001IA1009KA1999M+00281KA2999N-00061MD1210241+9999MW1261EQDQ01+000032SCOTLC
0043011520999991957011107004+67267+014367FM-12+001099999V0203501N004619999999N0350001N9+99999+99999999999ADDAY121999GF104991041091004501001001MW1151
0043011520999991957011108004+67267+014367FM-12+001099999V0203301N005119999999N0500001N9+99999+99999999999ADDAY101999GF103991031021008001001001MW1151
0057011520999991957011109004+67267+014367FM-12+001099999V0203301N004619999999N0600001N9+00061+99999101031ADDAY101999GF104991041081008001001011MD1110071+9999MW1031
0043011520999991957011110004+67267+014367FM-12+001099999V0202001N00211007801CN0400001N9+99999+99999999999ADDAY181999GF106991061081008001061001MW1261
0043011520999991957011111004+67267+014367FM-12+001099999V0202301N00211007801CN0500001N9+99999+99999999999ADDAY121999GF107991071081008001061001MW1151
0057011520999991957011112004+67267+014367FM-12+001099999V0203001N00411007801CN0500001N9+00001+99999101101ADDAY181999GF107991071081008001061001MD1210071+9999MW1151
0043011520999991957011113004+67267+014367FM-12+001099999V0203001N00211007801CN0500001N9+99999+99999999999ADDAY121999GF106991061081008001001011MW1151
0043011520999991957011114004+67267+014367FM-12+001099999V0202001N00311004501CN0400001N9+99999+99999999999ADDAY121999GF107991051081004501071999MW1151
0057011520999991957011115004+67267+014367FM-12+001099999V0203501N00511004501CN0100001N9+00001+99999101091ADDAY181999GF107991051091004501071999MD1810011+9999MW1851
0043011520999991957011116004+67267+014367FM-12+001099999V0201201N001019999999N0300001N9+99999+99999999999ADDAY181999GF102991021081008001999999MW1261
0043011520999991957011117004+67267+014367FM-12+001099999V0201801N00261012301CN0500001N9+99999+99999999999ADDAY121999GF105991051081012501999999MW1021
0113011520999991957011118004+67267+014367FM-12+001099999V0201901N00261012301CN0300001N9-00111+99999100941ADDAA199000391AY181999GF106991999081012501999999KA1999M+00061KA2999N-00281MD1710151+9999MW1151EQDQ01+000072SCOTLC
0057011520999991957011200004+67267+014367FM-12+001099999V0200901N005119999999N0700001N9-00441+99999100611ADDAY111999GF101991011041008001001011MD1710241+9999MW1011
0057011520999991957011203004+67267+014367FM-12+001099999V0200801N008219999999N0700001N9-00561+99999100421ADDAY101999GF101991011041008001071011MD1710191+9999MW1021
0089011520999991957011206004+67267+014367FM-12+001099999V0200901N009319999999N0700001N9-00501+99999100341ADDAY101999GF101991011051008001071011IA1009KA1999M-00061KA2999N-00561MD1610081+9999MW1021
0043011520999991957011207004+67267+014367FM-12+001099999V0200901N010319999999N0700001N9+99999+99999999999ADDAY101999GF101991011051008001031001MW1021
0043011520999991957011208004+67267+014367FM-12+001099999V0200901N010319999999N0700001N9+99999+99999999999ADDAY101999GF101991011051008001031001MW1021
0043011520999991957011209004+67267+014367FM-12+001099999V0200901N009319999999N0700001N9-00391+99999100501ADDAY101999GF101991011051012501041051MW1021
0043011520999991957011210004+67267+014367FM-12+001099999V0200901N007219999999N0700001N9+99999+99999999999ADDAY101999GF101991011051012501041001MW1021
0043011520999991957011211004+67267+014367FM-12+001099999V0200901N006219999999N0700001N9+99999+99999999999ADDAY101999GF101991011051012501041001MW1021
0057011520999991957011212004+67267+014367FM-12+001099999V0200901N007219999999N0700001N9-00331+99999100681ADDAY101999GF101991011051012501041001MD1210181+9999MW1021
0043011520999991957011213004+67267+014367FM-12+001099999V0200801N008219999999N0700001N9+99999+99999999999ADDAY101999GF101991011051012501001001MW1021
0043011520999991957011214004+67267+014367FM-12+001099999V0200801N007219999999N0700001N9+99999+99999999999ADDAY101999GF101991011051012501001001MW1021
0057011520999991957011215004+67267+014367FM-12+001099999V0200801N007219999999N0700001N9-00391+99999100961ADDAY101999GF101991011051012501001001MD1210281+9999MW1021
0043011520999991957011216004+67267+014367FM-12+001099999V0200801N006219999999N0700001N9+99999+99999999999ADDAY101999GF101991011051012501001001MW1021
0043011520999991957011217004+67267+014367FM-12+001099999V0200801N005119999999N0700001N9+99999+99999999999ADDAY101999GF101991011051012501001001MW1021
0083011520999991957011218004+67267+014367FM-12+001099999V0200801N006219999999N0700001N9-00441+99999101281ADDAY101999GF101991011051012501001001KA1999M-00331KA2999N-00561MD1210321+9999MW1021
0057011520999991957011300004+67267+014367FM-12+001099999V0200801N00511220001CN0700001N9-00611+99999102011ADDAY101999GF100991001001999999001001MD1210361+9999MW1021
0057011520999991957011303004+67267+014367FM-12+001099999V0200901N00621220001CN0700001N9-00671+99999102361ADDAY101999GF100991001001999999001001MD1210351+9999MW1021
0089011520999991957011306004+67267+014367FM-12+001099999V0200801N00621220001CN0700001N9-00721+99999102561ADDAY101999GF100991001001999999001001IA1009KA1999M-00391KA2999N-00721MD1210201+9999MW1021
0043011520999991957011307004+67267+014367FM-12+001099999V0200901N00621220001CN0700001N9+99999+99999999999ADDAY101999GF100991001001999999001001MW1021
0043011520999991957011308004+67267+014367FM-12+001099999V0200901N00621220001CN0700001N9+99999+99999999999ADDAY101999GF100991001001999999001001MW1021
0057011520999991957011309004+67267+014367FM-12+001099999V0200901N006219999999N0700001N9-00721+99999102831ADDAY101999GF101991011041008001041001MD1210271+9999MW1031
0043011520999991957011310004+67267+014367FM-12+001099999V0200901N006219999999N0700001N9+99999+99999999999ADDAY101999GF101991011041008001001021MW1021
0043011520999991957011311004+67267+014367FM-12+001099999V0200901N005119999999N0700001N9+99999+99999999999ADDAY101999GF102991011081008001001021MW1031
0057011520999991957011312004+67267+014367FM-12+001099999V0201001N006219999999N0700001N9-00781+99999103061ADDAY101999GF103991011081008001001021MD1210231+9999MW1031
0043011520999991957011313004+67267+014367FM-12+001099999V0201001N006219999999N0700001N9+99999+99999999999ADDAY111999GF105991011081008001001021MW1031
0043011520999991957011314004+67267+014367FM-12+001099999V0200901N006219999999N0700001N9+99999+99999999999ADDAY121999GF105991011041008001001021MW1021
0057011520999991957011315004+67267+014367FM-12+001099999V0201001N006219999999N0700001N9-00781+99999103201ADDAY111999GF105991011051008001001021MD1210141+9999MW1021
0043011520999991957011316004+67267+014367FM-12+001099999V0201001N006219999999N0700001N9+99999+99999999999ADDAY121999GF104991011051008001001021MW1011
0043011520999991957011317004+67267+014367FM-12+001099999V0201001N006219999999N0700001N9+99999+99999999999ADDAY121999GF104991011051008001001021MW1021
0083011520999991957011318004+67267+014367FM-12+001099999V0201001N006219999999N0700001N9-00781+99999103251ADDAY111999GF105991011051008001001021KA1999M-00671KA2999N-00831MD1210051+9999MW1031
0057011520999991957011400004+67267+014367FM-12+001099999V0201001N006719999999N0700001N9-00671+99999103191ADDAY101999GF102991011041012501001071MD1810061+9999MW1011
0057011520999991957011403004+67267+014367FM-12+001099999V0201301N005119999999N0700001N9-00561+99999103051ADDAY101999GF103991011051012501041071MD1710141+9999MW1031
0089011520999991957011406004+67267+014367FM-12+001099999V0201001N005119999999N0700001N9-00561+99999102791ADDAY101999GF104991011051012501041071IA1009KA1999M-00501KA2999N-00781MD1710261+9999MW1031
0043011520999991957011407004+67267+014367FM-12+001099999V0200901N005119999999N0700001N9+99999+99999999999ADDAY121999GF104991021051008001041071MW1021
0043011520999991957011408004+67267+014367FM-12+001099999V0200901N002619999999N0700001N9+99999+99999999999ADDAY121999GF104991021051008001041011MW1021
0057011520999991957011409004+67267+014367FM-12+001099999V0201401N004619999999N0700001N9-00501+99999102611ADDAY121999GF104991021051008001041021MD1710181+9999MW1021
0043011520999991957011410004+67267+014367FM-12+001099999V0201601N005719999999N0650001N9+99999+99999999999ADDAY121999GF104991031051008001051021MW1021
0043011520999991957011411004+67267+014367FM-12+001099999V0201401N00511007801CN0600001N9+99999+99999999999ADDAY121999GF107991061051008001001021MW1031
0057011520999991957011412004+67267+014367FM-12+001099999V0201801N00621007801CN0600001N9-00221+99999102311ADDAY121999GF107991061051008001001021MD1710301+9999MW1021
0043011520999991957011413004+67267+014367FM-12+001099999V0201401N00621007801CN0500001N9+99999+99999999999ADDAY121999GF108991071051008001071999MW1151
0043011520999991957011414004+67267+014367FM-12+001099999V0201201N00821007801CN0500001N9+99999+99999999999ADDAY121999GF107991071051008001071999MW1021
0057011520999991957011415004+67267+014367FM-12+001099999V0202101N01231007801CN0500001N9+00061+99999101931ADDAY121999GF108991071051008001071999MD1710381+9999MW1031
0043011520999991957011416004+67267+014367FM-12+001099999V0202101N01391007801CN0500001N9+99999+99999999999ADDAY121999GF108991081051008001999999MW1021
0043011520999991957011417004+67267+014367FM-12+001099999V0202201N01391007801CN0250001N9+99999+99999999999ADDAY161999GF108991081051008001999999MW1601
0094011520999991957011418004+67267+014367FM-12+001099999V0202201N01441004501CN0250001N9+00331+99999101391ADDAA199000691AY161999GF108991081051004501999999KA1999M+00331KA2999N-00611MD1710541+9999MW1601
0057011520999991957011500004+67267+014367FM-12+001099999V0202901N01131002401CN0040001N9+00221+99999100611ADDAY181999GF109991091999002501999999MD1710391+9999MW1831
0057011520999991957011503004+67267+014367FM-12+001099999V0202901N01291007801CN0300001N9+00221+99999100531ADDAY181999GF107991071031008001999999MD1710081+9999MW1021
0100011520999991957011506004+67267+014367FM-12+001099999V0202701N01341007801CN0400001N9+00111+99999100421ADDAA199004091AY181999GF107991061031008001061999IA1009KA1999M+00441KA2999N+00001MD1710111+9999MW1261
0043011520999991957011507004+67267+014367FM-12+001099999V0203101N01541007801CN0040001N9+99999+99999999999ADDAY181999GF108991061031008001999999MW1831
0043011520999991957011508004+67267+014367FM-12+001099999V0203101N01801007801CN0200001N9+99999+99999999999ADDAY121999GF106991061031008001001001MW1151
0057011520999991957011509004+67267+014367FM-12+001099999V0203101N01541007801CN0350001N9+00001+99999100981ADDAY181999GF107991071031008001001001MD1310561+9999MW1261
0043011520999991957011510004+67267+014367FM-12+001099999V0203001N01541007801CN0070001N9+99999+99999999999ADDAY181999GF106991051091008001999999MW1851
0062011520999991957011511004+67267+014367FM-12+001099999V0203101N014419999999N0180001N9+99999+99999999999ADDAY181999GF105991999091008001001001MW1271EQDQ01+000042SCOTLC
0057011520999991957011512004+67267+014367FM-12+001099999V0203001N01441002401CN0002001N9-00111+99999101361ADDAY181999GF109991091999002501999999MD1210381+9999MW1861
0043011520999991957011513004+67267+014367FM-12+001099999V0203001N01031007801CN0180001N9+99999+99999999999ADDAY181999GF106991061031008001999999MW1261
0043011520999991957011514004+67267+014367FM-12+001099999V0203001N01131007801CN0200001N9+99999+99999999999ADDAY181999GF107991061031008001051011MW1261
0057011520999991957011515004+67267+014367FM-12+001099999V0203101N00871004501CN0170001N9-00111+99999101581ADDAY181999GF107991071091004501061999MD1110221+9999MW1851
0043011520999991957011516004+67267+014367FM-12+001099999V0203001N01441001501CN0015001N9+99999+99999999999ADDAY181999GF109991091999001501999999MW1861
0043011520999991957011517004+67267+014367FM-12+001099999V0203101N01031004501CN0250001N9+99999+99999999999ADDAY181999GF106991061091004501001001MW1261
0094011520999991957011518004+67267+014367FM-12+001099999V0203201N01081004501CN0250001N9-00061+99999101661ADDAA199002091AY181999GF107991071091004501001001KA1999M+00171KA2999N-00281MD1210081+9999MW1151
0057011520999991957011600004+67267+014367FM-12+001099999V0202501N01031002401CN0015001N9+00111+99999101691ADDAY181999GF109991091999002501999999MD1810041+9999MW1861
0057011520999991957011603004+67267+014367FM-12+001099999V0202701N00771004501CN0300001N9+00221+99999101421ADDAY181999GF108991071031004501999999MD1710271+9999MW1251
0136011520999991957011606004+67267+014367FM-12+001099999V0202801N01131007801CN0250001N9+00441+99999101391ADDAA199001091AJ100009199999999AY181999GF108991999081008001021999IA1009KA1999M+00441KA2999N-00171MD1510031+9999MW1251EQDQ01+000082SCOTLC
0043011520999991957011607004+67267+014367FM-12+001099999V0202801N01181004501CN0200001N9+99999+99999999999ADDAY181999GF108991071081004501021999MW1251
0043011520999991957011608004+67267+014367FM-12+001099999V0202701N01031004501CN0180001N9+99999+99999999999ADDAY121999GF107991071081004501999999MW1151
0057011520999991957011609004+67267+014367FM-12+001099999V0202801N01031004501CN0200001N9+00441+99999101511ADDAY181999GF107991061091004501021999MD1210121+9999MW1151
0043011520999991957011610004+67267+014367FM-12+001099999V0202801N01131007801CN0200001N9+99999+99999999999ADDAY121999GF107991061091008001999999MW1151
0043011520999991957011611004+67267+014367FM-12+001099999V0202801N01031007801CN0180001N9+99999+99999999999ADDAY121999GF107991061091008001999999MW1151
0057011520999991957011612004+67267+014367FM-12+001099999V0202901N00981007801CN0180001N9+00501+99999101791ADDAY181999GF107991061081008001071999MD1210281+9999MW1151
0043011520999991957011613004+67267+014367FM-12+001099999V0203001N00871007801CN0200001N9+99999+99999999999ADDAY181999GF108991071081008001999999MW1261
0043011520999991957011614004+67267+014367FM-12+001099999V0203001N00931007801CN0180001N9+99999+99999999999ADDAY121999GF108991071081008001999999MW1151
0057011520999991957011615004+67267+014367FM-12+001099999V0202901N00871007801CN0110001N9+00441+99999102061ADDAY181999GF108991061081008001999999MD1210271+9999MW1871
0043011520999991957011616004+67267+014367FM-12+001099999V0202901N00461007801CN0100001N9+99999+99999999999ADDAY181999GF108991061081008001999999MW1871
0043011520999991957011617004+67267+014367FM-12+001099999V0202701N00771007801CN0100001N9+99999+99999999999ADDAY181999GF108991051081008001021999MW1271
0094011520999991957011618004+67267+014367FM-12+001099999V0202501N008719999999N0150001N9+00391+99999102171ADDAA199000691AY181999GF107991041081008001021999KA1999M+00501KA2999N+00441MD1010111+9999MW1151
0057011520999991957011700004+67267+014367FM-12+001099999V0202601N01341002401CN0200001N9+00561+99999101871ADDAY181999GF108991051061002501999999MD1610101+9999MW1151
0057011520999991957011703004+67267+014367FM-12+001099999V0202601N01441001501CN0150001N9+00561+99999101801ADDAY181999GF108991061061001501999999MD1810071+9999MW1801
0117011520999991957011706004+67267+014367FM-12+001099999V0202601N01541002401CN0200001N9+00501+99999101731ADDAA199005091AJ100009199999999AY181999GF108991071061002501021999IA1009KA1999M+00561KA2999N+00391MD1710071+9999MW1251
0043011520999991957011707004+67267+014367FM-12+001099999V0202601N01341004501CN0100001N9+99999+99999999999ADDAY161999GF108991061071004501021999MW1211
0043011520999991957011708004+67267+014367FM-12+001099999V0202601N01181004501CN0100001N9+99999+99999999999ADDAY161999GF108991071071004501021999MW1211
0057011520999991957011709004+67267+014367FM-12+001099999V0202601N01491002401CN0100001N9+00501+99999101631ADDAY161999GF108991071061002501021999MD1610101+9999MW1211
0062011520999991957011710004+67267+014367FM-12+001099999V0202501N01031002401CN0150001N9+99999+99999999999ADDAY121999GF108991999061002501021999MW1151EQDQ01+000082SCOTLC
0043011520999991957011711004+67267+014367FM-12+001099999V0202601N00981002401CN0120001N9+99999+99999999999ADDAY121999GF108991071061002501021999MW1021
0057011520999991957011712004+67267+014367FM-12+001099999V0202601N01131002401CN0100001N9+00501+99999101641ADDAY161999GF108991071061002501021999MD1010011+9999MW1021
0043011520999991957011713004+67267+014367FM-12+001099999V0202601N01231002401CN0120001N9+99999+99999999999ADDAY121999GF108991081061002501999999MW1101
0043011520999991957011714004+67267+014367FM-12+001099999V0202501N01131004501CN0180001N9+99999+99999999999ADDAY121999GF107991071061004501999999MW1101
0057011520999991957011715004+67267+014367FM-12+001099999V0202501N01131004501CN0150001N9+00501+99999101531ADDAY121999GF108991081061004501999999MD1810131+9999MW1151
0043011520999991957011716004+67267+014367FM-12+001099999V0202501N01291004501CN0120001N9+99999+99999999999ADDAY151999GF108991081061004501999999MW1501
0043011520999991957011717004+67267+014367FM-12+001099999V0202501N01181004501CN0120001N9+99999+99999999999ADDAY151999GF108991081061004501999999MW1501
0094011520999991957011718004+67267+014367FM-12+001099999V0202501N01131004501CN0100001N9+00441+99999101471ADDAA199000391AY161999GF108991081061004501999999KA1999M+00561KA2999N+00391MD1810061+9999MW1601
0076011520999991957011800004+67267+014367FM-12+001099999V0202501N01131002401CN0080001N9+00501+99999101191ADDAY161999GF108991999061002501021999MD1710151+9999MW1621EQDQ01+000082SCOTLC
0057011520999991957011803004+67267+014367FM-12+001099999V0202401N01441002401CN0060001N9+00561+99999100781ADDAY161999GF108991081061002501999999MD1710411+9999MW1591
0117011520999991957011806004+67267+014367FM-12+001099999V0202301N01491002401CN0200001N9+00561+99999100181ADDAA199004091AJ100009199999999AY161999GF108991071061002501071999IA1009KA1999M+00561KA2999N+00441MD1710601+9999MW1151
0043011520999991957011807004+67267+014367FM-12+001099999V0202301N01441002401CN0150001N9+99999+99999999999ADDAY161999GF108991081061002501999999MW1601
0043011520999991957011808004+67267+014367FM-12+001099999V0202301N01291004501CN0150001N9+99999+99999999999ADDAY161999GF108991081061004501999999MW1611
0076011520999991957011809004+67267+014367FM-12+001099999V0202601N01291002401CN0100001N9+00561+99999099532ADDAY161999GF108991081061002501999999MD1510651+9999MW1631EQDQ01+099533APOSLP
0043011520999991957011810004+67267+014367FM-12+001099999V0202501N01291004501CN0180001N9+99999+99999999999ADDAY161999GF107991071061004501999999MW1211
0043011520999991957011811004+67267+014367FM-12+001099999V0202401N01341004501CN0120001N9+99999+99999999999ADDAY121999GF108991081061004501999999MW1151
0057011520999991957011812004+67267+014367FM-12+001099999V0202601N01341004501CN0150001N9+00111+99999099571ADDAY181999GF107991071031004501999999MD1210041+9999MW1271
0043011520999991957011813004+67267+014367FM-12+001099999V0202601N013919999999N0150001N9+99999+99999999999ADDAY181999GF104991021031004501021011MW1271
0043011520999991957011814004+67267+014367FM-12+001099999V0202801N01291004501CN0060001N9+99999+99999999999ADDAY181999GF108991051091004501021999MW1871
0057011520999991957011815004+67267+014367FM-12+001099999V0202801N01541004501CN0150001N9+00061+99999099591ADDAY181999GF106991061081004501001001MD1210021+9999MW1261
0062011520999991957011816004+67267+014367FM-12+001099999V0202801N01651004501CN0200001N9+99999+99999999999ADDAY181999GF106991999081004501001001MW1261EQDQ01+000052SCOTLC
0043011520999991957011817004+67267+014367FM-12+001099999V0202901N01801004501CN0100001N9+99999+99999999999ADDAY181999GF108991061091004501999999MW1851
0094011520999991957011818004+67267+014367FM-12+001099999V0202801N01751007801CN0200001N9-00061+99999099741ADDAA199006091AY181999GF105991051091008001001001KA1999M+00611KA2999N-00061MD1210151+9999MW1261
0057011520999991957011900004+67267+014367FM-12+001099999V0203101N01341004501CN0150001N9-00061+99999100431ADDAY181999GF106991051091004501001011MD1310311+9999MW1271
0057011520999991957011903004+67267+014367FM-12+001099999V0203001N012319999999N0200001N9-00221+99999100701ADDAY181999GF104991031091004501031011MD1210271+9999MW1261
0119011520999991957011906004+67267+014367FM-12+001099999V0203001N011319999999N0200001N9-00221+99999100781ADDAA199002091AY181999GF105991999091004501001001IA1009KA1999M+00111KA2999N-00281MD1110081+9999MW1271EQDQ01+000042SCOTLC
0043011520999991957011907004+67267+014367FM-12+001099999V0203101N011819999999N0200001N9+99999+99999999999ADDAY181999GF106991041091004501061001MW1261
0043011520999991957011908004+67267+014367FM-12+001099999V0202901N01031004501CN0050001N9+99999+99999999999ADDAY181999GF107991061091004501999999MW1851
0057011520999991957011909004+67267+014367FM-12+001099999V0202901N00931007801CN0150001N9-00111+99999100821ADDAY181999GF107991061091008001061999MD1210041+9999MW1871
0043011520999991957011910004+67267+014367FM-12+001099999V0202701N00721001501CN0010001N9+99999+99999999999ADDAY181999GF109991091999001501999999MW1861
0043011520999991957011911004+67267+014367FM-12+001099999V0202701N00511001501CN0030001N9+99999+99999999999ADDAY181999GF109991091999001501999999MW1861
0057011520999991957011912004+67267+014367FM-12+001099999V0202501N00461001501CN0005001N9-00171+99999100441ADDAY181999GF109991091999001501999999MD1810381+9999MW1731
0043011520999991957011913004+67267+014367FM-12+001099999V0201601N00411001501CN0005001N9+99999+99999999999ADDAY171999GF109991091999001501999999MW1731
0043011520999991957011914004+67267+014367FM-12+001099999V0200901N00511002401CN0020001N9+99999+99999999999ADDAY171999GF109991091999002501999999MW1711
0057011520999991957011915004+67267+014367FM-12+001099999V0200901N00721001501CN0005001N9-00221+99999099781ADDAY171999GF109991091999001501999999MD1710661+9999MW1731
0043011520999991957011916004+67267+014367FM-12+001099999V0201001N01031001501CN0008001N9+99999+99999999999ADDAY171999GF109991091999001501999999MW1731
0043011520999991957011917004+67267+014367FM-12+001099999V0201001N00931001501CN0020001N9+99999+99999999999ADDAY171999GF108991081061001501999999MW1681
0094011520999991957011918004+67267+014367FM-12+001099999V0202401N01541001501CN0040001N9+00391+99999099321ADDAA199008091AY171999GF108991081061001501999999KA1999M+00391KA2999N-00221MD1710461+9999MW1631
0057011520999991957012000004+67267+014367FM-12+001099999V0202201N01441004501CN0100001N9+00501+99999098461ADDAY161999GF108991081061004501999999MD1710451+9999MW1631
0057011520999991957012003004+67267+014367FM-12+001099999V0202101N00931004501CN0200001N9+00441+99999097761ADDAY161999GF108991081061004501999999MD1710701+9999MW1611
0117011520999991957012006004+67267+014367FM-12+001099999V0202301N01751004501CN0250001N9+99999+99999097391ADDAA199023091AJ100009199999999AY161999GF108991071071004501021999IA1009KA1999M+00611KA2999N+00331MD1610371+9999MW1211
0043011520999991957012007004+67267+014367FM-12+001099999V0202401N01291007801CN0100001N9+99999+99999999999ADDAY161999GF108991071071008001021999MW1601
0043011520999991957012008004+67267+014367FM-12+001099999V0202501N01231007801CN0200001N9+99999+99999999999ADDAY161999GF107991051051008001071999MW1211
0057011520999991957012009004+67267+014367FM-12+001099999V0202401N00931007801CN0200001N9+00441+99999097301ADDAY161999GF108991051081008001071999MD1510091+9999MW1151
0043011520999991957012010004+67267+014367FM-12+001099999V0202401N01441007801CN0300001N9+99999+99999999999ADDAY161999GF107991051081008001061071MW1211
0043011520999991957012011004+67267+014367FM-12+001099999V0202401N01341007801CN0300001N9+99999+99999999999ADDAY181999GF108991061081008001061071MW1251
0057011520999991957012012004+67267+014367FM-12+001099999V0202301N01341007801CN0300001N9+00501+99999097011ADDAY181999GF108991061081008001061071MD1710291+9999MW1251
0043011520999991957012013004+67267+014367FM-12+001099999V0202201N01541007801CN0400001N9+99999+99999999999ADDAY181999GF107991071081008001999999MW1801
0043011520999991957012014004+67267+014367FM-12+001099999V0202301N01751007801CN0400001N9+99999+99999999999ADDAY181999GF107991051081008001071999MW1151
0057011520999991957012015004+67267+014367FM-12+001099999V0202301N01651007801CN0400001N9+00501+99999096631ADDAY191999GF108991051081008001021999MD1710381+9999MW1291
0043011520999991957012016004+67267+014367FM-12+001099999V0202701N00771007801CN0300001N9+99999+99999999999ADDAY191999GF108991051081008001021999MW1911
0043011520999991957012017004+67267+014367FM-12+001099999V0202701N00821007801CN0250001N9+99999+99999999999ADDAY181999GF108991051081008001021999MW1871
0094011520999991957012018004+67267+014367FM-12+001099999V0202601N00721004501CN0250001N9+00281+99999096421ADDAA199006091AY191999GF108991051081004501021999KA1999M+00611KA2999N+00281MD1710211+9999MW1871
0057011520999991957012100004+67267+014367FM-12+001099999V0202301N00821004501CN0070001N9+00001+99999096521ADDAY181999GF108991081091004501999999MD1210101+9999MW1831
0057011520999991957012103004+67267+014367FM-12+001099999V0202601N01031007801CN0300001N9+00171+99999096521ADDAY181999GF108991081081008001999999MD1510001+9999MW1271
0100011520999991957012106004+67267+014367FM-12+001099999V0202601N01541007801CN0300001N9+00221+99999096491ADDAA199009091AY191999GF107991061091008001999999IA1009KA1999M+00281KA2999N+00001MD1710031+9999MW1931
0043011520999991957012107004+67267+014367FM-12+001099999V0202601N01541004501CN0090001N9+99999+99999999999ADDAY181999GF108991071091004501999999MW1271
0043011520999991957012108004+67267+014367FM-12+001099999V0202601N01291007801CN0120001N9+99999+99999999999ADDAY121999GF107991061091008001999999MW1151
0057011520999991957012109004+67267+014367FM-12+001099999V0202601N01341004501CN0020001N9+00001+99999096811ADDAY181999GF108991071091004501999999MD1310321+9999MW1841
0043011520999991957012110004+67267+014367FM-12+001099999V0202501N01751004501CN0200001N9+99999+99999999999ADDAY181999GF107991071091004501051999MW1261
0043011520999991957012111004+67267+014367FM-12+001099999V0202701N00931004501CN0180001N9+99999+99999999999ADDAY181999GF107991071031004501999999MW1871
0057011520999991957012112004+67267+014367FM-12+001099999V0202501N01291004501CN0150001N9+00111+99999097161ADDAY181999GF107991071091004501001021MD1210351+9999MW1871
0043011520999991957012113004+67267+014367FM-12+001099999V0202701N01341004501CN0180001N9+99999+99999999999ADDAY181999GF107991071091004501061001MW1271
0043011520999991957012114004+67267+014367FM-12+001099999V0202701N01031004501CN0150001N9+99999+99999999999ADDAY181999GF107991071091004501061001MW1271
0057011520999991957012115004+67267+014367FM-12+001099999V0202601N01231004501CN0200001N9+00221+99999097431ADDAY181999GF107991061091004501061001MD1210271+9999MW1271
0043011520999991957012116004+67267+014367FM-12+001099999V0202701N01031004501CN0150001N9+99999+99999999999ADDAY181999GF107991061091004501999999MW1871
0043011520999991957012117004+67267+014367FM-12+001099999V0202401N01131007801CN0150001N9+99999+99999999999ADDAY181999GF107991061091008001999999MW1271
0094011520999991957012118004+67267+014367FM-12+001099999V0202801N00771007801CN0200001N9+00111+99999097621ADDAA199002091AY181999GF106991051091008001999999KA1999M+00281KA2999N+00001MD1210191+9999MW1271
0057011520999991957012200004+67267+014367FM-12+001099999V0202401N01441004501CN0020001N9+00171+99999097931ADDAY181999GF108991061091004501999999MD1210161+9999MW1861
0057011520999991957012203004+67267+014367FM-12+001099999V0202401N01541004501CN0200001N9+00281+99999098131ADDAY181999GF106991051091004501061999MD1210201+9999MW1271
0100011520999991957012206004+67267+014367FM-12+001099999V0202401N01291004501CN0200001N9+00111+99999098271ADDAA199001091AY181999GF107991051091004501061999IA1009KA1999M+00281KA2999N+00001MD1210201+9999MW1151
0043011520999991957012207004+67267+014367FM-12+001099999V0202401N00821004501CN0250001N9+99999+99999999999ADDAY121999GF107991061091004501061999MW1151
0043011520999991957012208004+67267+014367FM-12+001099999V0202201N00931004501CN0180001N9+99999+99999999999ADDAY121999GF108991081091004501999999MW1151
0057011520999991957012209004+67267+014367FM-12+001099999V0201901N00871004501CN0250001N9+00171+99999098371ADDAY181999GF107991061091004501061999MD1210101+9999MW1271
0043011520999991957012210004+67267+014367FM-12+001099999V0202501N00871002401CN0020001N9+99999+99999999999ADDAY181999GF109991091999002501999999MW1871
0062011520999991957012211004+67267+014367FM-12+001099999V0201801N00571004501CN0200001N9+99999+99999999999ADDAY181999GF107991999061004501999999MW1271EQDQ01+000082SCOTLC
0057011520999991957012212004+67267+014367FM-12+001099999V0202401N00871004501CN0080001N9+00171+99999098511ADDAY181999GF107991061091004501999999MD1110141+9999MW1151
0043011520999991957012213004+67267+014367FM-12+001099999V0202601N00261004501CN0160001N9+99999+99999999999ADDAY121999GF107991051091004501999999MW1151
0043011520999991957012214004+67267+014367FM-12+001099999V0201801N00461004501CN0060001N9+99999+99999999999ADDAY181999GF108991061091004501999999MW1831
0057011520999991957012215004+67267+014367FM-12+001099999V0201701N00411004501CN0200001N9+00061+99999098541ADDAY181999GF107991071061004501999999MD1010031+9999MW1261
0043011520999991957012216004+67267+014367FM-12+001099999V0201201N00461002401CN0180001N9+99999+99999999999ADDAY121999GF108991081061002501999999MW1031
0043011520999991957012217004+67267+014367FM-12+001099999V0202101N00771002401CN0060001N9+99999+99999999999ADDAY181999GF108991081061002501999999MW1851
0094011520999991957012218004+67267+014367FM-12+001099999V0202001N00461004501CN0250001N9+00061+99999098591ADDAA199002091AY181999GF107991071091004501999999KA1999M+00281KA2999N+00001MD1210051+9999MW1261
0057011520999991957012300004+67267+014367FM-12+001099999V0202201N00771004501CN0100001N9+00111+99999098701ADDAY181999GF107991061091004501999999MD1310051+9999MW1261
0057011520999991957012303004+67267+014367FM-12+001099999V0202701N00981001501CN0010001N9+00001+99999099051ADDAY181999GF109991091999001501999999MD1310351+9999MW1861
0100011520999991957012306004+67267+014367FM-12+001099999V0201601N00511001501CN0015001N9-00061+99999099121ADDAA199002091AY181999GF109991091999001501999999IA1009KA1999M+00171KA2999N-00061MD1110071+9999MW1861
0043011520999991957012307004+67267+014367FM-12+001099999V0201801N00621002401CN0150001N9+99999+99999999999ADDAY181999GF107991071061002501999999MW1851
0043011520999991957012308004+67267+014367FM-12+001099999V0201501N00721002401CN0025001N9+99999+99999999999ADDAY181999GF109991091999002501999999MW1851
0057011520999991957012309004+67267+014367FM-12+001099999V0201401N00511004501CN0300001N9+00001+99999099061ADDAY181999GF107991071061004501999999MD1710061+9999MW1261
0043011520999991957012310004+67267+014367FM-12+001099999V0201901N00931002401CN0025001N9+99999+99999999999ADDAY181999GF109991091999002501999999MW1831
0043011520999991957012311004+67267+014367FM-12+001099999V0201901N00771007801CN0100001N9+99999+99999999999ADDAY181999GF107991061081008001999999MW1801
0057011520999991957012312004+67267+014367FM-12+001099999V0202201N01291004501CN0100001N9+00331+99999098931ADDAY181999GF107991061081004501061999MD1710131+9999MW1801
0043011520999991957012313004+67267+014367FM-12+001099999V0202301N01441004501CN0120001N9+99999+99999999999ADDAY181999GF107991071091004501999999MW1831
0043011520999991957012314004+67267+014367FM-12+001099999V0202401N01181002401CN0180001N9+99999+99999999999ADDAY181999GF107991061061002501061999MW1261
0057011520999991957012315004+67267+014367FM-12+001099999V0202501N01031002401CN0100001N9+00281+99999099051ADDAY181999GF108991071061002501999999MD1310121+9999MW1801
0043011520999991957012316004+67267+014367FM-12+001099999V0203301N01131004501CN0200001N9+99999+99999999999ADDAY181999GF108991071061004501999999MW1251
0043011520999991957012317004+67267+014367FM-12+001099999V0203401N00931004501CN0250001N9+99999+99999999999ADDAY121999GF108991071061004501999999MW1021
0094011520999991957012318004+67267+014367FM-12+001099999V0203301N00621007801CN0300001N9+00221+99999100031ADDAA199003091AY181999GF105991051081008001001001KA1999M+00391KA2999N+00001MD1210981+9999MW1011
0057011520999991957012400004+67267+014367FM-12+001099999V0202401N004619999999N0600001N9+00281+99999100741ADDAY111999GF101991011041008001001011MD1210421+9999MW1011
0057011520999991957012403004+67267+014367FM-12+001099999V0201801N004119999999N0600001N9+00221+99999100871ADDAY101999GF102991021081008001071011MD1210131+9999MW1031
0100011520999991957012406004+67267+014367FM-12+001099999V0200901N005119999999N0600001N9+00061+99999100951ADDAA199000691AY181999GF102991021081008001071001IA1009KA1999M+00331KA2999N+00061MD1210081+9999MW1261
0043011520999991957012407004+67267+014367FM-12+001099999V0200801N005119999999N0700001N9+99999+99999999999ADDAY101999GF102991011051008001071011MW1021
0043011520999991957012408004+67267+014367FM-12+001099999V0200901N005119999999N0700001N9+99999+99999999999ADDAY101999GF102991011051008001071011MW1021
0057011520999991957012409004+67267+014367FM-12+001099999V0200901N007219999999N0700001N9-00111+99999100981ADDAY111999GF105991011041008001071011MD1210031+9999MW1031
0043011520999991957012410004+67267+014367FM-12+001099999V0200801N008719999999N0700001N9+99999+99999999999ADDAY121999GF106991011051008001051011MW1031
0043011520999991957012411004+67267+014367FM-12+001099999V0200901N00931220001CN0700001N9+99999+99999999999ADDAY121999GF106991001001999999051011MW1021
0057011520999991957012412004+67267+014367FM-12+001099999V0200801N00931220001CN0700001N9-00061+99999100881ADDAY121999GF107991001001999999021011MD1810101+9999MW1031
0043011520999991957012413004+67267+014367FM-12+001099999V0200801N00871220001CN0700001N9+99999+99999999999ADDAY121999GF107991001001999999021011MW1021
0043011520999991957012414004+67267+014367FM-12+001099999V0200801N00981220001CN0700001N9+99999+99999999999ADDAY121999GF107991001001999999021011MW1021
0076011520999991957012415004+67267+014367FM-12+001099999V0200801N00931220001CN0700001N9+00001+99999100841ADDAY121999GF107991999001999999021001MD1710041+9999MW1021EQDQ01+000002SCOTLC
0043011520999991957012416004+67267+014367FM-12+001099999V0200901N01031220001CN0700001N9+99999+99999999999ADDAY121999GF107991001001999999021999MW1021
0043011520999991957012417004+67267+014367FM-12+001099999V0200901N01131220001CN0700001N9+99999+99999999999ADDAY121999GF107991001001999999091011MW1021
0083011520999991957012418004+67267+014367FM-12+001099999V0201001N01231220001CN0700001N9+00001+99999100701ADDAY121999GF107991001001999999091011KA1999M+00061KA2999N-00111MD1610141+9999MW1021
0000011520999991957012419004+67267+014367FM-12+001099999V0201001N010319999999N9999999N9+99999+99999999999
0057011520999991957012500004+67267+014367FM-12+001099999V0200801N00621220001CN0550001N9-00061+99999100721ADDAY121999GF102991001001999999041011MD1210011+9999MW1011
0057011520999991957012503004+67267+014367FM-12+001099999V0200901N00621220001CN0550001N9-00171+99999100711ADDAY101999GF102991001001999999041011MD1810011+9999MW1021
0089011520999991957012506004+67267+014367FM-12+001099999V0200901N00621220001CN0550001N9-00281+99999100681ADDAY101999GF103991001001999999041011IA1009KA1999M+00061KA2999N-00281MD1710031+9999MW1031
0062011520999991957012507004+67267+014367FM-12+001099999V0200901N00671220001CN0700001N9+99999+99999999999ADDAY101999GF101991999001999999041001MW1011EQDQ01+000002SCOTLC
0043011520999991957012508004+67267+014367FM-12+001099999V0200801N006219999999N0700001N9+99999+99999999999ADDAY101999GF101991011051012501041001MW1021
0057011520999991957012509004+67267+014367FM-12+001099999V0200801N006219999999N0700001N9-00391+99999100691ADDAY101999GF102991011051012501031001MD1310011+9999MW1031
0043011520999991957012510004+67267+014367FM-12+001099999V0200801N007219999999N0700001N9+99999+99999999999ADDAY101999GF103991011051012501031011MW1031
0043011520999991957012511004+67267+014367FM-12+001099999V0200801N00821220001CN0700001N9+99999+99999999999ADDAY111999GF106991001001999999031011MW1031
0057011520999991957012512004+67267+014367FM-12+001099999V0200901N00771220001CN0700001N9-00331+99999100631ADDAY111999GF106991001001999999031011MD1710061+9999MW1021
0043011520999991957012513004+67267+014367FM-12+001099999V0200801N008719999999N0700001N9+99999+99999999999ADDAY111999GF103991031051012501031001MW1011
0043011520999991957012514004+67267+014367FM-12+001099999V0200801N007719999999N0700001N9+99999+99999999999ADDAY101999GF102991021051012501031001MW1011
0057011520999991957012515004+67267+014367FM-12+001099999V0200901N009319999999N0700001N9-00391+99999100481ADDAY111999GF101991011051012501041011MD1710151+9999MW1011
0043011520999991957012516004+67267+014367FM-12+001099999V0200801N006219999999N0700001N9+99999+99999999999ADDAY101999GF102991011051012501041011MW1031
0043011520999991957012517004+67267+014367FM-12+001099999V0200801N006719999999N0700001N9+99999+99999999999ADDAY101999GF102991011051012501041001MW1021
0083011520999991957012518004+67267+014367FM-12+001099999V0200801N006219999999N0700001N9-00331+99999100381ADDAY111999GF102991011051012501041001KA1999M-00281KA2999N-00441MD1710101+9999MW1021
0057011520999991957012600004+67267+014367FM-12+001099999V0200901N00931012301CN0700001N9-00221+99999100331ADDAY111999GF108991071051012501999999MD1710021+9999MW1021
0057011520999991957012603004+67267+014367FM-12+001099999V0200801N011319999999N0700001N9-00331+99999100301ADDAY121999GF107991041051012501031999MD1710031+9999MW1011
0089011520999991957012606004+67267+014367FM-12+001099999V0201001N012919999999N0700001N9-00171+99999100261ADDAY121999GF107991041051012501071999IA1009KA1999M-00111KA2999N-00391MD1710041+9999MW1021
0043011520999991957012607004+67267+014367FM-12+001099999V0201001N01491012301CN0700001N9+99999+99999999999ADDAY121999GF107991071051012501071999MW1021
0043011520999991957012608004+67267+014367FM-12+001099999V0201101N01491012301CN0700001N9+99999+99999999999ADDAY121999GF107991071051012501071999MW1021
0057011520999991957012609004+67267+014367FM-12+001099999V0200901N01441012301CN0700001N9-00171+99999100221ADDAY121999GF107991071051012501071999MD1710041+9999MW1021
0043011520999991957012610004+67267+014367FM-12+001099999V0200901N01441012301CN0700001N9+99999+99999999999ADDAY121999GF107991071051012501071999MW1021
0043011520999991957012611004+67267+014367FM-12+001099999V0200901N013919999999N0700001N9+99999+99999999999ADDAY121999GF107991041051012501071011MW1021
0057011520999991957012612004+67267+014367FM-12+001099999V0200901N012319999999N0700001N9-00221+99999100111ADDAY121999GF106991031051012501041011MD1710111+9999MW1011
0043011520999991957012613004+67267+014367FM-12+001099999V0201001N012919999999N0700001N9+99999+99999999999ADDAY111999GF103991021051012501041001MW1011
0043011520999991957012614004+67267+014367FM-12+001099999V0201001N013419999999N0700001N9+99999+99999999999ADDAY101999GF102991021051012501041001MW1011
0057011520999991957012615004+67267+014367FM-12+001099999V0201101N014419999999N0700001N9-00061+99999099851ADDAY111999GF103991021051012501041001MD1710261+9999MW1031
0043011520999991957012616004+67267+014367FM-12+001099999V0201101N013419999999N0700001N9+99999+99999999999ADDAY101999GF103991021051012501041001MW1021
0043011520999991957012617004+67267+014367FM-12+001099999V0201201N014419999999N0700001N9+99999+99999999999ADDAY101999GF103991021051012501041001MW1021
0057011520999991957012700004+67267+014367FM-12+001099999V0201201N01291007801CN0300001N9+00061+99999099101ADDAY111999GF106991061051008001999999MD1710221+9999MW1031
0057011520999991957012703004+67267+014367FM-12+001099999V0201401N01131012301CN0250001N9+00171+99999098781ADDAY121999GF108991071051012501071999MD1710321+9999MW1031
0089011520999991957012706004+67267+014367FM-12+001099999V0201401N01231007801CN0250001N9+00221+99999098671ADDAY121999GF108991071051008001999999IA1009KA1999M+00221KA2999N+00061MD1710111+9999MW1021
0043011520999991957012707004+67267+014367FM-12+001099999V0201201N01341007801CN0200001N9+99999+99999999999ADDAY171999GF108991071051008001999999MW1221
0057011520999991957012709004+67267+014367FM-12+001099999V0201101N01441007801CN0450001N9+00111+99999098731ADDAY171999GF108991051051008001021999MD1310061+9999MW1151
0043011520999991957012710004+67267+014367FM-12+001099999V0201201N01131012301CN0450001N9+99999+99999999999ADDAY121999GF107991051051012501021999MW1011
0043011520999991957012711004+67267+014367FM-12+001099999V0201101N01131012301CN0450001N9+99999+99999999999ADDAY121999GF107991051051012501021999MW1021
0057011520999991957012712004+67267+014367FM-12+001099999V0201001N01231012301CN0400001N9+00061+99999098771ADDAY171999GF107991061051012501071999MD1210041+9999MW1151
0043011520999991957012713004+67267+014367FM-12+001099999V0200901N01131012301CN0400001N9+99999+99999999999ADDAY121999GF107991071051012501999999MW1151
0043011520999991957012714004+67267+014367FM-12+001099999V0201001N01031007801CN0400001N9+99999+99999999999ADDAY121999GF108991081051008001999999MW1151
0076011520999991957012715004+67267+014367FM-12+001099999V0200901N01181007801CN0400001N9+00001+99999098951ADDAY121999GF108991999051008001021999MD1310181+9999MW1151EQDQ01+000082SCOTLC
0062011520999991957012716004+67267+014367FM-12+001099999V0201001N01231007801CN0300001N9+99999+99999999999ADDAY121999GF108991999051008001021999MW1151EQDQ01+000082SCOTLC
0062011520999991957012717004+67267+014367FM-12+001099999V0201001N01131004501CN0150001N9+99999+99999999999ADDAY121999GF108991999051004501021999MW1151EQDQ01+000082SCOTLC
0113011520999991957012718004+67267+014367FM-12+001099999V0200901N01131004501CN0150001N9-00111+99999099281ADDAA199000691AY121999GF108991999051004501021999KA1999M+00221KA2999N-00171MD1210331+9999MW1151EQDQ01+000082SCOTLC
0057011520999991957012800004+67267+014367FM-12+001099999V0200801N00771002401CN0100001N9-00391+99999099871ADDAY171999GF108991071061002501021999MD1210361+9999MW1701
0057011520999991957012803004+67267+014367FM-12+001099999V0200901N00931004501CN0250001N9-00391+99999100101ADDAY171999GF106991051051004501071011MD1210291+9999MW1151
0100011520999991957012806004+67267+014367FM-12+001099999V0200901N007219999999N0600001N9-00331+99999100301ADDAA199000691AY171999GF101991011051012501041011IA1009KA1999M-00061KA2999N-00391MD1210201+9999MW1011
0043011520999991957012807004+67267+014367FM-12+001099999V0200901N007219999999N0600001N9+99999+99999999999ADDAY101999GF102991011051012501041011MW1031
0043011520999991957012808004+67267+014367FM-12+001099999V0200901N007719999999N0400001N9+99999+99999999999ADDAY101999GF104991031051012501041001MW1031
0057011520999991957012809004+67267+014367FM-12+001099999V0200901N007219999999N0400001N9-00281+99999100551ADDAY101999GF102991021051012501041001MD1210251+9999MW1011
0043011520999991957012810004+67267+014367FM-12+001099999V0200901N008219999999N0500001N9+99999+99999999999ADDAY101999GF102991021021008001041001MW1021
0043011520999991957012811004+67267+014367FM-12+001099999V0200901N007219999999N0500001N9+99999+99999999999ADDAY101999GF102991011091008001041001MW1021
0057011520999991957012812004+67267+014367FM-12+001099999V0200901N006719999999N0500001N9-00281+99999100671ADDAY101999GF102991011091008001041001MD1110121+9999MW1021
0043011520999991957012813004+67267+014367FM-12+001099999V0201001N00821220001CN0500001N9+99999+99999999999ADDAY101999GF102991001001999999041011MW1021
0043011520999991957012814004+67267+014367FM-12+001099999V0200901N00721220001CN0500001N9+99999+99999999999ADDAY101999GF102991001001999999041011MW1021
0057011520999991957012815004+67267+014367FM-12+001099999V0200901N00821220001CN0500001N9-00281+99999100711ADDAY101999GF102991001001999999041011MD1210041+9999MW1021
0043011520999991957012816004+67267+014367FM-12+001099999V0200901N00821220001CN0500001N9+99999+99999999999ADDAY101999GF102991001001999999041011MW1021
0043011520999991957012817004+67267+014367FM-12+001099999V0200901N009319999999N0500001N9+99999+99999999999ADDAY101999GF102991011051017501041001MW1021
0083011520999991957012818004+67267+014367FM-12+001099999V0200901N011319999999N0500001N9-00221+99999100511ADDAY101999GF102991011051017501041001KA1999M-00221KA2999N-00441MD1810201+9999MW1021
0057011520999991957012903004+67267+014367FM-12+001099999V0201101N01291012301CN0300001N9+00171+99999099701ADDAY171999GF108991071051012501021999MD1710171+9999MW1021
0100011520999991957012906004+67267+014367FM-12+001099999V0201001N01231004501CN0050001N9-00111+99999099711ADDAA199000691AY171999GF109991091999004501999999IA1009KA1999M+00281KA2999N-00281MD1310011+9999MW1711
0043011520999991957012907004+67267+014367FM-12+001099999V0200901N01341004501CN0050001N9+99999+99999999999ADDAY171999GF109991091999004501999999MW1711
0043011520999991957012908004+67267+014367FM-12+001099999V0200901N01131002401CN0030001N9+99999+99999999999ADDAY171999GF109991091999002501999999MW1711
0057011520999991957012909004+67267+014367FM-12+001099999V0200901N01231002401CN0025001N9-00221+99999099771ADDAY171999GF109991091999002501999999MD1210061+9999MW1711
0043011520999991957012910004+67267+014367FM-12+001099999V0200901N01441001501CN0005001N9+99999+99999999999ADDAY171999GF109991091999001501999999MW1711
0043011520999991957012911004+67267+014367FM-12+001099999V0200901N01291001501CN0005001N9+99999+99999999999ADDAY171999GF109991091999001501999999MW1711
0057011520999991957012912004+67267+014367FM-12+001099999V0200901N01131012301CN0300001N9-00391+99999099891ADDAY171999GF107991051051012501071999MD1210121+9999MW1361
0043011520999991957012913004+67267+014367FM-12+001099999V0200901N00931002401CN0028001N9+99999+99999999999ADDAY171999GF109991091999002501999999MW1701
0043011520999991957012914004+67267+014367FM-12+001099999V0200901N01031004501CN0190001N9+99999+99999999999ADDAY171999GF107991071051004501999999MW1701
0057011520999991957012915004+67267+014367FM-12+001099999V0200901N01031007801CN0300001N9-00281+99999100061ADDAY171999GF107991071081008001999999MD1210171+9999MW1221
0043011520999991957012916004+67267+014367FM-12+001099999V0200901N00931007801CN0180001N9+99999+99999999999ADDAY181999GF107991071091008001999999MW1271
0043011520999991957012917004+67267+014367FM-12+001099999V0200901N01131007801CN0180001N9+99999+99999999999ADDAY121999GF107991071091008001999999MW1021
0094011520999991957012918004+67267+014367FM-12+001099999V0200901N00931007801CN0150001N9+00061+99999100211ADDAA199001091AY181999GF108991071081008001999999KA1999M+00061KA2999N-00441MD1210151+9999MW1261
0057011520999991957013000004+67267+014367FM-12+001099999V0202301N01391004501CN0140001N9+00281+99999100511ADDAY191999GF106991051091004501999999MD1210151+9999MW1951
0057011520999991957013003004+67267+014367FM-12+001099999V0202301N01341007801CN0110001N9+00331+99999100661ADDAY181999GF107991061091008001999999MD1210151+9999MW1271
0117011520999991957013006004+67267+014367FM-12+001099999V0202501N01031007801CN0150001N9+00391+99999100851ADDAA199008091AJ100009199999999AY191999GF108991071081008001999999IA1009KA1999M+00501KA2999N-00171MD1310191+9999MW1151
0043011520999991957013007004+67267+014367FM-12+001099999V0202401N01031007801CN0200001N9+99999+99999999999ADDAY121999GF107991061081008001061999MW1151
0043011520999991957013008004+67267+014367FM-12+001099999V0202501N01031007801CN0300001N9+99999+99999999999ADDAY121999GF106991051081008001061999MW1151
0057011520999991957013009004+67267+014367FM-12+001099999V0202501N009319999999N0300001N9+00441+99999101141ADDAY121999GF107991041081008001031999MD1210291+9999MW1151
0043011520999991957013010004+67267+014367FM-12+001099999V0202301N01131007801CN0400001N9+99999+99999999999ADDAY161999GF107991061081008001071999MW1601
0043011520999991957013011004+67267+014367FM-12+001099999V0202301N01031007801CN0130001N9+99999+99999999999ADDAY161999GF108991071051008001071999MW1631
0057011520999991957013012004+67267+014367FM-12+001099999V0202301N01341007801CN0150001N9+00441+99999101281ADDAY161999GF108991071051008001071999MD1210141+9999MW1631
0043011520999991957013013004+67267+014367FM-12+001099999V0202301N01541007801CN0200001N9+99999+99999999999ADDAY161999GF108991071051008001071999MW1211
0043011520999991957013014004+67267+014367FM-12+001099999V0202401N01341007801CN0200001N9+99999+99999999999ADDAY121999GF108991071051008001071999MW1151
0057011520999991957013015004+67267+014367FM-12+001099999V0202401N01131004501CN0200001N9+00611+99999101531ADDAY161999GF108991071051004501021999MD1210251+9999MW1151
0043011520999991957013016004+67267+014367FM-12+001099999V0202401N01231004501CN0200001N9+99999+99999999999ADDAY121999GF107991071081004501071999MW1011
0043011520999991957013017004+67267+014367FM-12+001099999V0202401N01231004501CN0150001N9+99999+99999999999ADDAY121999GF107991071081004501071999MW1021
0094011520999991957013018004+67267+014367FM-12+001099999V0202401N01231007801CN0150001N9+00561+99999101691ADDAA199000591AY161999GF105991051081008001071999KA1999M+00611KA2999N+00331MD1210161+9999MW1011
0043011520999991957013019004+67267+014367FM-12+001099999V0202401N009819999999N0200001N9+99999+99999999999ADDAY121999GF104991041081008001071999MW1011
0057011520999991957013100004+67267+014367FM-12+001099999V0202201N00261012301CN0300001N9+00331+99999101711ADDAY121999GF105991051051012501001001MD1310021+9999MW1021
0057011520999991957013103004+67267+014367FM-12+001099999V0201001N007219999999N0500001N9+00331+99999101691ADDAY111999GF103991021051012501041001MD1810021+9999MW1011
0117011520999991957013106004+67267+014367FM-12+001099999V0201001N006219999999N0500001N9+00281+99999101601ADDAA199000691AJ100009199999999AY111999GF104991011051012501071011IA1009KA1999M+00561KA2999N+00221MD1710091+9999MW1021
0043011520999991957013107004+67267+014367FM-12+001099999V0201001N007219999999N0550001N9+99999+99999999999ADDAY121999GF107991011051012501071001MW1031
0043011520999991957013108004+67267+014367FM-12+001099999V0201001N007219999999N0550001N9+99999+99999999999ADDAY121999GF107991011051012501071001MW1021
0057011520999991957013109004+67267+014367FM-12+001099999V0201001N006219999999N0700001N9+00331+99999101461ADDAY121999GF107991011051012501071011MD1710141+9999MW1021
0043011520999991957013110004+67267+014367FM-12+001099999V0201101N006219999999N0700001N9+99999+99999999999ADDAY121999GF107991011051012501071011MW1021
0043011520999991957013111004+67267+014367FM-12+001099999V0200901N006219999999N0700001N9+99999+99999999999ADDAY121999GF107991011051012501071011MW1021
0057011520999991957013112004+67267+014367FM-12+001099999V0200901N005719999999N0700001N9+00281+99999101311ADDAY121999GF107991011051012501071011MD1710151+9999MW1021
0043011520999991957013113004+67267+014367FM-12+001099999V0201201N005119999999N0700001N9+99999+99999999999ADDAY121999GF107991021051012501071011MW1021
0043011520999991957013114004+67267+014367FM-12+001099999V0201001N005119999999N0700001N9+99999+99999999999ADDAY121999GF107991021051012501071011MW1021
0057011520999991957013115004+67267+014367FM-12+001099999V0201101N006219999999N0700001N9+00221+99999101181ADDAY121999GF107991021051012501071011MD1710131+9999MW1021
0043011520999991957013116004+67267+014367FM-12+001099999V0201001N006219999999N0700001N9+99999+99999999999ADDAY121999GF107991011051012501071011MW1021
0043011520999991957013117004+67267+014367FM-12+001099999V0201001N007219999999N0700001N9+99999+99999999999ADDAY121999GF107991021051012501071011MW1021
0083011520999991957013118004+67267+014367FM-12+001099999V0201001N006219999999N0700001N9+00221+99999100941ADDAY121999GF107991021051012501071011KA1999M+00391KA2999N+00221MD1710241+9999MW1021
0057011520999991957020100004+67267+014367FM-12+001099999V0201001N00721220001CN0700001N9+00331+99999100341ADDAY111999GF101991001001999999041011MD1710301+9999MW1011
0043011520999991957020101004+67267+014367FM-12+001099999V0201201N00721220001CN0700001N9+99999+99999999999ADDAY101999GF101991001001999999041011MW1021
0043011520999991957020102004+67267+014367FM-12+001099999V0201201N00771220001CN0700001N9+99999+99999999999ADDAY101999GF101991001001999999041011MW1021
0057011520999991957020103004+67267+014367FM-12+001099999V0200701N00721220001CN0700001N9+00331+99999099821ADDAY101999GF101991001001999999041011MD1710521+9999MW1021
0043011520999991957020104004+67267+014367FM-12+001099999V0200901N01031220001CN0700001N9+99999+99999999999ADDAY101999GF101991001001999999041011MW1021
0043011520999991957020105004+67267+014367FM-12+001099999V0200901N01291220001CN0700001N9+99999+99999999999ADDAY101999GF101991001001999999041011MW1021
0106011520999991957020106004+67267+014367FM-12+001099999V0201001N01541220001CN0700001N9+00221+99999099141ADDAJ100009199999999AY101999GF101991001001999999041011IA1009KA1999M+00561KA2999N+00171MD1710681+9999MW1021
0043011520999991957020107004+67267+014367FM-12+001099999V0201201N011319999999N0700001N9+99999+99999999999ADDAY101999GF103991011051012501041011MW1031
0043011520999991957020108004+67267+014367FM-12+001099999V0201101N010319999999N0600001N9+99999+99999999999ADDAY111999GF107991041051012501071999MW1031
0057011520999991957020109004+67267+014367FM-12+001099999V0201401N008719999999N0600001N9+00281+99999099051ADDAY111999GF106991041051012501071999MD1710091+9999MW1011
0043011520999991957020110004+67267+014367FM-12+001099999V0201201N010319999999N0650001N9+99999+99999999999ADDAY121999GF106991021051012501071999MW1141
0043011520999991957020111004+67267+014367FM-12+001099999V0201301N011819999999N0700001N9+99999+99999999999ADDAY121999GF107991021051012501071999MW1141
0057011520999991957020112004+67267+014367FM-12+001099999V0201301N011319999999N0550001N9+00281+99999098831ADDAY111999GF107991041051012501071999MD1710221+9999MW1151
0043011520999991957020113004+67267+014367FM-12+001099999V0201401N006719999999N0550001N9+99999+99999999999ADDAY121999GF107991021051012501021999MW1151
0043011520999991957020114004+67267+014367FM-12+001099999V0201401N007219999999N0600001N9+99999+99999999999ADDAY171999GF107991041051012501021999MW1231
0057011520999991957020115004+67267+014367FM-12+001099999V0201301N00721012301CN0500001N9+00331+99999098741ADDAY171999GF108991061051012501021999MD1710091+9999MW1141
0043011520999991957020116004+67267+014367FM-12+001099999V0201301N00621007801CN0300001N9+99999+99999999999ADDAY171999GF108991071051008001021999MW1701
0043011520999991957020117004+67267+014367FM-12+001099999V0201301N00721012301CN0500001N9+99999+99999999999ADDAY171999GF107991071051012501071999MW1011
0094011520999991957020118004+67267+014367FM-12+001099999V0201601N00721012301CN0500001N9+00331+99999098581ADDAA199000691AY171999GF107991061051012501071999KA1999M+00391KA2999N+00171MD1810161+9999MW1021
0043011520999991957020119004+67267+014367FM-12+001099999V0201801N00821012301CN0500001N9+99999+99999999999ADDAY161999GF108991071051012501999999MW1211
0043011520999991957020120004+67267+014367FM-12+001099999V0201301N006219999999N0500001N9+99999+99999999999ADDAY121999GF104991041051012501999999MW1011
0057011520999991957020121004+67267+014367FM-12+001099999V0201501N00411012301CN0500001N9+99999+99999098581ADDAY111999GF108991071051012501999999MD1410001+9999MW1031
0043011520999991957020122004+67267+014367FM-12+001099999V0201101N00411012301CN0500001N9+99999+99999999999ADDAY121999GF108991071051012501999999MW1031
0043011520999991957020123004+67267+014367FM-12+001099999V0201501N00721012301CN0500001N9+99999+99999999999ADDAY121999GF108991051051012501999999MW1011
0057011520999991957020200004+67267+014367FM-12+001099999V0201501N00311012301CN0500001N9+00441+99999098531ADDAY161999GF106991051051012501041999MD1710051+9999MW1021
0043011520999991957020201004+67267+014367FM-12+001099999V0200901N00211012301CN0300001N9+99999+99999999999ADDAY121999GF108991071051012501041999MW1031
0043011520999991957020202004+67267+014367FM-12+001099999V0201601N004119999999N0300001N9+99999+99999999999ADDAY111999GF103991031051012501999999MW1011
0057011520999991957020203004+67267+014367FM-12+001099999V0201801N003119999999N0300001N9+00281+99999098501ADDAY111999GF104991041081008001999999MD1710031+9999MW1031
0043011520999991957020204004+67267+014367FM-12+001099999V0201201N00411007801CN0300001N9+99999+99999999999ADDAY121999GF106991061081008001999999MW1031
0043011520999991957020205004+67267+014367FM-12+001099999V0201001N00411007801CN0300001N9+99999+99999999999ADDAY121999GF107991071081008001999999MW1031
0100011520999991957020206004+67267+014367FM-12+001099999V0201001N00511007801CN0300001N9+00221+99999098511ADDAA199000691AY111999GF107991071081008001041999IA1009KA1999M+00441KA2999N+00171MD1210011+9999MW1021
0043011520999991957020207004+67267+014367FM-12+001099999V0202401N00411007801CN0300001N9+99999+99999999999ADDAY171999GF107991071051008001041999MW1231
0043011520999991957020208004+67267+014367FM-12+001099999V0201701N00311007801CN0250001N9+99999+99999999999ADDAY171999GF108991071051008001071999MW1601
0057011520999991957020209004+67267+014367FM-12+001099999V0201601N00621002401CN0300001N9+00171+99999098701ADDAY171999GF108991071061002501071999MD1210191+9999MW1211
0043011520999991957020210004+67267+014367FM-12+001099999V0201301N00411002401CN0350001N9+99999+99999999999ADDAY171999GF107991051061002501071999MW1681
0043011520999991957020211004+67267+014367FM-12+001099999V0201001N00461002401CN0300001N9+99999+99999999999ADDAY171999GF107991061061002501071999MW1231
0057011520999991957020212004+67267+014367FM-12+001099999V0201201N00621002401CN0350001N9+00171+99999098781ADDAY171999GF107991061061002501071999MD1210081+9999MW1151
0043011520999991957020213004+67267+014367FM-12+001099999V0201401N00621002401CN0350001N9+99999+99999999999ADDAY121999GF107991061061002501071999MW1151
0043011520999991957020214004+67267+014367FM-12+001099999V0201201N00621004501CN0350001N9+99999+99999999999ADDAY121999GF107991061061004501071999MW1151
0057011520999991957020215004+67267+014367FM-12+001099999V0201101N00511007801CN0350001N9+00111+99999098831ADDAY121999GF107991061081008001021999MD1110051+9999MW1151
0043011520999991957020216004+67267+014367FM-12+001099999V0201401N00461007801CN0200001N9+99999+99999999999ADDAY181999GF108991061081008001021999MW1261
0043011520999991957020217004+67267+014367FM-12+001099999V0201901N00721002401CN0030001N9+99999+99999999999ADDAY181999GF109991091999002501999999MW1831
0094011520999991957020218004+67267+014367FM-12+001099999V0202101N01031004501CN0060001N9+00281+99999098891ADDAA199001091AY181999GF108991051091004501021999KA1999M+00281KA2999N+00111MD1210061+9999MW1271
0062011520999991957020219004+67267+014367FM-12+001099999V0202201N00721007801CN0020001N9+99999+99999999999ADDAY181999GF108991999091008001021999MW1871EQDQ01+000082SCOTLC
0043011520999991957020220004+67267+014367FM-12+001099999V0202201N00671007801CN0100001N9+99999+99999999999ADDAY181999GF106991061091008001021999MW1261
0043011520999991957020221004+67267+014367FM-12+001099999V0202301N01291001501CN0005001N9+99999+99999999999ADDAY181999GF109991091999001501999999MW1841
0043011520999991957020222004+67267+014367FM-12+001099999V0202401N01441001501CN0005001N9+99999+99999999999ADDAY181999GF109991091999001501999999MW1881
0043011520999991957020223004+67267+014367FM-12+001099999V0202501N01131001501CN0045001N9+99999+99999999999ADDAY181999GF109991091999001501999999MW1811
0057011520999991957020300004+67267+014367FM-12+001099999V0202701N01291007801CN0300001N9+00391+99999099211ADDAY181999GF107991061081008001999999MD1210201+9999MW1251
0043011520999991957020301004+67267+014367FM-12+001099999V0202801N010319999999N0100001N9+99999+99999999999ADDAY181999GF107991041091008001999999MW1831
0043011520999991957020302004+67267+014367FM-12+001099999V0202601N013419999999N0300001N9+99999+99999999999ADDAY181999GF107991041091008001999999MW1261
0057011520999991957020303004+67267+014367FM-12+001099999V0202701N006219999999N0400001N9+00221+99999099431ADDAY181999GF104991041081008001999999MD1210221+9999MW1011
0043011520999991957020304004+67267+014367FM-12+001099999V0202601N01541007801CN0300001N9+99999+99999999999ADDAY121999GF108991071081008001999999MW1031
0043011520999991957020305004+67267+014367FM-12+001099999V0202501N01031007801CN0200001N9+99999+99999999999ADDAY181999GF106991051091008001999999MW1271
0100011520999991957020306004+67267+014367FM-12+001099999V0202701N011319999999N0400001N9+00441+99999099581ADDAA199007091AY181999GF107991041091008001061999IA1009KA1999M+00441KA2999N+00111MD1210151+9999MW1151
0043011520999991957020307004+67267+014367FM-12+001099999V0202601N011319999999N0300001N9+99999+99999999999ADDAY121999GF107991041091008001999999MW1151
0062011520999991957020308004+67267+014367FM-12+001099999V0202701N01031007801CN0250001N9+99999+99999999999ADDAY181999GF106991999091008001001001MW1271EQDQ01+000052SCOTLC
0057011520999991957020309004+67267+014367FM-12+001099999V0202701N013419999999N0350001N9+00441+99999099791ADDAY181999GF104991041091008001041001MD1210211+9999MW1151
0043011520999991957020310004+67267+014367FM-12+001099999V0202701N01031007801CN0350001N9+99999+99999999999ADDAY121999GF105991051091008001001001MW1151
0043011520999991957020311004+67267+014367FM-12+001099999V0202701N011319999999N0350001N9+99999+99999999999ADDAY111999GF103991031091008001001021MW1151
0057011520999991957020312004+67267+014367FM-12+001099999V0202701N009319999999N0350001N9+00331+99999099841ADDAY181999GF106991031091008001041011MD1110051+9999MW1151
0043011520999991957020313004+67267+014367FM-12+001099999V0202401N009319999999N0350001N9+99999+99999999999ADDAY121999GF107991041091008001041011MW1151
0043011520999991957020314004+67267+014367FM-12+001099999V0202301N008219999999N0350001N9+99999+99999999999ADDAY121999GF108991041091008001071999MW1151
0057011520999991957020315004+67267+014367FM-12+001099999V0202301N01131007801CN0200001N9+00331+99999099791ADDAY181999GF108991081091008001999999MD1510051+9999MW1871
0043011520999991957020316004+67267+014367FM-12+001099999V0202301N00621007801CN0200001N9+99999+99999999999ADDAY181999GF107991071081008001999999MW1271
0043011520999991957020317004+67267+014367FM-12+001099999V0202301N00621007801CN0200001N9+99999+99999999999ADDAY121999GF108991071081008001999999MW1151
0094011520999991957020318004+67267+014367FM-12+001099999V0202101N00721007801CN0200001N9+00171+99999099961ADDAA199000691AY181999GF106991051081008001999999KA1999M+00501KA2999N+00171MD1310171+9999MW1871
0043011520999991957020319004+67267+014367FM-12+001099999V0202701N00821007801CN0200001N9+99999+99999999999ADDAY181999GF106991051081008001999999MW1271
0043011520999991957020320004+67267+014367FM-12+001099999V0202701N007219999999N0200001N9+99999+99999999999ADDAY121999GF105991041081012501999071MW1151
0043011520999991957020321004+67267+014367FM-12+001099999V0202601N00931012301CN0250001N9+99999+99999999999ADDAY181999GF106991051081012501999071MW1271
0043011520999991957020322004+67267+014367FM-12+001099999V0202501N01031012301CN0250001N9+99999+99999999999ADDAY121999GF108991071081012501999999MW1151
0043011520999991957020323004+67267+014367FM-12+001099999V0202701N00931002401CN0100001N9+99999+99999999999ADDAY181999GF109991091999002501999999MW1681
0057011520999991957020400004+67267+014367FM-12+001099999V0202701N01031002401CN0050001N9+00281+99999100391ADDAY181999GF109991091999002501999999MD1210141+9999MW1871
0043011520999991957020401004+67267+014367FM-12+001099999V0202601N01131007801CN0200001N9+99999+99999999999ADDAY181999GF107991071031008001999999MW1271
0043011520999991957020402004+67267+014367FM-12+001099999V0202601N01081007801CN0250001N9+99999+99999999999ADDAY121999GF106991051041008001999999MW1011
0057011520999991957020403004+67267+014367FM-12+001099999V0202601N01081007801CN0300001N9+00331+99999100421ADDAY181999GF105991051091008001999999MD1210031+9999MW1011
0062011520999991957020404004+67267+014367FM-12+001099999V0202501N005119999999N0300001N9+99999+99999999999ADDAY111999GF103991999091008001001001MW1011EQDQ01+000022SCOTLC
0043011520999991957020405004+67267+014367FM-12+001099999V0202201N00621007801CN0250001N9+99999+99999999999ADDAY111999GF106991061081008001001001MW1801
0100011520999991957020406004+67267+014367FM-12+001099999V0201801N005119999999N0400001N9+00221+99999100251ADDAA199002091AY181999GF103991031081008001001001IA1009KA1999M+00391KA2999N+00111MD1810171+9999MW1251
0043011520999991957020407004+67267+014367FM-12+001099999V0201901N00511007801CN0500001N9+99999+99999999999ADDAY111999GF107991061081008001071999MW1151
0043011520999991957020408004+67267+014367FM-12+001099999V0201501N00411007801CN0450001N9+99999+99999999999ADDAY121999GF107991061051008001071999MW1151
0057011520999991957020409004+67267+014367FM-12+001099999V0201001N00571007801CN0350001N9+00171+99999100071ADDAY111999GF107991061051008001071999MD1710181+9999MW1151
0043011520999991957020410004+67267+014367FM-12+001099999V0201001N005119999999N0060001N9+99999+99999999999ADDAY181999GF108991011061004501021999MW1831
0043011520999991957020411004+67267+014367FM-12+001099999V0201001N005119999999N0060001N9+99999+99999999999ADDAY181999GF108991011061002501021999MW1831
0057011520999991957020412004+67267+014367FM-12+001099999V0200901N00621004501CN0350001N9+00061+99999099851ADDAY181999GF108991061051004501021999MD1710221+9999MW1261
0043011520999991957020413004+67267+014367FM-12+001099999V0200901N00721004501CN0400001N9+99999+99999999999ADDAY171999GF107991061051004501021999MW1231
0043011520999991957020414004+67267+014367FM-12+001099999V0201001N008719999999N0500001N9+99999+99999999999ADDAY121999GF107991041051008001021999MW1151
0057011520999991957020415004+67267+014367FM-12+001099999V0200901N006719999999N0600001N9+00171+99999099601ADDAY171999GF108991041051008001021999MD1710251+9999MW1151
0043011520999991957020416004+67267+014367FM-12+001099999V0200901N006219999999N0600001N9+99999+99999999999ADDAY121999GF108991041051008001021999MW1021
0043011520999991957020417004+67267+014367FM-12+001099999V0200801N00771012301CN0600001N9+99999+99999999999ADDAY121999GF108991061051012501021999MW1021
0094011520999991957020418004+67267+014367FM-12+001099999V0200801N00621012301CN0600001N9+00221+99999099421ADDAA199000691AY121999GF108991061051012501021999KA1999M+00281KA2999N+00061MD1710181+9999MW1021
0043011520999991957020419004+67267+014367FM-12+001099999V0200901N00511007801CN0600001N9+99999+99999999999ADDAY121999GF108991061051008001021999MW1021
0043011520999991957020420004+67267+014367FM-12+001099999V0200901N00821007801CN0100001N9+99999+99999999999ADDAY171999GF108991071051008001021999MW1711
0043011520999991957020421004+67267+014367FM-12+001099999V0200901N00931007801CN0050001N9+99999+99999999999ADDAY171999GF108991071051008001021999MW1711
0043011520999991957020422004+67267+014367FM-12+001099999V0200901N00871007801CN0030001N9+99999+99999999999ADDAY171999GF108991071051008001021999MW1731
0043011520999991957020423004+67267+014367FM-12+001099999V0200901N01231004501CN0040001N9+99999+99999999999ADDAY171999GF108991071051004501021999MW1691
0057011520999991957020500004+67267+014367FM-12+001099999V0201001N00771004501CN0100001N9+00061+99999099291ADDAY171999GF108991071051004501021999MD1510071+9999MW1501
0043011520999991957020501004+67267+014367FM-12+001099999V0200901N00511002401CN0100001N9+99999+99999999999ADDAY151999GF108991071051002501021999MW1511
0043011520999991957020502004+67267+014367FM-12+001099999V0202101N00721004501CN0150001N9+99999+99999999999ADDAY151999GF108991071051004501021999MW1511
0057011520999991957020503004+67267+014367FM-12+001099999V0202201N00721004501CN0150001N9+00441+99999099411ADDAY151999GF108991071051004501021999MD1110121+9999MW1611
0043011520999991957020504004+67267+014367FM-12+001099999V0202201N00821004501CN0150001N9+99999+99999999999ADDAY161999GF108991071051004501021999MW1611
0043011520999991957020505004+67267+014367FM-12+001099999V0202201N007219999999N0200001N9+99999+99999999999ADDAY161999GF106991031051008001071999MW1211
0117011520999991957020506004+67267+014367FM-12+001099999V0202101N006219999999N0300001N9+00441+99999099371ADDAA199002091AJ100009199999999AY161999GF106991041081008001071999IA1009KA1999M+00441KA2999N+00061MD1810041+9999MW1021
0043011520999991957020507004+67267+014367FM-12+001099999V0201001N006219999999N0300001N9+99999+99999999999ADDAY111999GF102991011011008001001021MW1011
0043011520999991957020508004+67267+014367FM-12+001099999V0200901N005119999999N0300001N9+99999+99999999999ADDAY101999GF102991011011008001041021MW1021
0057011520999991957020509004+67267+014367FM-12+001099999V0200901N006219999999N0400001N9+00221+99999099251ADDAY111999GF105991021081008001051011MD1710121+9999MW1031
0043011520999991957020510004+67267+014367FM-12+001099999V0200901N005719999999N0450001N9+99999+99999999999ADDAY121999GF105991021051008001071011MW1101
0043011520999991957020511004+67267+014367FM-12+001099999V0200901N005719999999N0450001N9+99999+99999999999ADDAY121999GF105991021051008001071011MW1101
0057011520999991957020512004+67267+014367FM-12+001099999V0201001N006719999999N0500001N9+00281+99999098901ADDAY121999GF107991021051012501071011MD1710351+9999MW1031
0043011520999991957020514004+67267+014367FM-12+001099999V0200901N008219999999N0500001N9+99999+99999999999ADDAY121999GF107991021051012501071999MW1021
0057011520999991957020515004+67267+014367FM-12+001099999V0200801N007719999999N0500001N9+00281+99999098481ADDAY121999GF108991031051012501071999MD1710421+9999MW1151
0043011520999991957020516004+67267+014367FM-12+001099999V0200801N007219999999N0500001N9+99999+99999999999ADDAY121999GF108991031051012501071999MW1021
0043011520999991957020517004+67267+014367FM-12+001099999V0200901N006219999999N0500001N9+99999+99999999999ADDAY121999GF108991031051012501021999MW1021
0043011520999991957020519004+67267+014367FM-12+001099999V0200901N007719999999N0400001N9+99999+99999999999ADDAY121999GF108991031051012501021999MW1021
0043011520999991957020520004+67267+014367FM-12+001099999V0200901N005719999999N0400001N9+99999+99999999999ADDAY121999GF105991021051012501021011MW1011
0043011520999991957020521004+67267+014367FM-12+001099999V0200801N005119999999N0600001N9+99999+99999999999ADDAY111999GF103991011051012501011011MW1011
0043011520999991957020522004+67267+014367FM-12+001099999V0200801N004119999999N0600001N9+99999+99999999999ADDAY101999GF102991021051012501001001MW1011
0043011520999991957020523004+67267+014367FM-12+001099999V0200901N003619999999N0700001N9+99999+99999999999ADDAY101999GF101991011051012501041001MW1011
0057011520999991957020600004+67267+014367FM-12+001099999V0201001N003619999999N0700001N9+00061+99999098261ADDAY111999GF102991021051012501001001MD1310111+9999MW1031
0043011520999991957020601004+67267+014367FM-12+001099999V0200901N005119999999N0700001N9+99999+99999999999ADDAY101999GF102991021051012501001001MW1021
0043011520999991957020602004+67267+014367FM-12+001099999V0200901N005119999999N0700001N9+99999+99999999999ADDAY101999GF102991021051012501001001MW1021
0057011520999991957020603004+67267+014367FM-12+001099999V0200901N006219999999N0700001N9-00061+99999098351ADDAY101999GF102991021051012501001001MD1110091+9999MW1021
0043011520999991957020604004+67267+014367FM-12+001099999V0200901N005719999999N0700001N9+99999+99999999999ADDAY101999GF102991021051012501001001MW1021
0043011520999991957020605004+67267+014367FM-12+001099999V0200801N006719999999N0700001N9+99999+99999999999ADDAY101999GF102991021051012501001001MW1021
0106011520999991957020606004+67267+014367FM-12+001099999V0200901N005719999999N0700001N9-00061+99999098351ADDAJ100009199999999AY101999GF102991021051012501001001IA1009KA1999M+00331KA2999N-00111MD1410001+9999MW1021
0043011520999991957020607004+67267+014367FM-12+001099999V0200901N006219999999N0700001N9+99999+99999999999ADDAY101999GF103991021051012501041001MW1031
0043011520999991957020610004+67267+014367FM-12+001099999V0200901N008219999999N0500001N9+99999+99999999999ADDAY121999GF107991041051012501071001MW1151
0043011520999991957020611004+67267+014367FM-12+001099999V0200901N008219999999N0400001N9+99999+99999999999ADDAY121999GF107991041061008001071001MW1151
0057011520999991957020612004+67267+014367FM-12+001099999V0200901N008219999999N0030001N9+00061+99999098551ADDAY171999GF107991041061004501999999MD1210161+9999MW1701
0043011520999991957020613004+67267+014367FM-12+001099999V0200901N00621001501CN0007001N9+99999+99999999999ADDAY171999GF109991091999001501999999MW1731
0043011520999991957020614004+67267+014367FM-12+001099999V0200801N00771001501CN0011001N9+99999+99999999999ADDAY171999GF109991091999001501999999MW1711
0057011520999991957020615004+67267+014367FM-12+001099999V0200901N00821002401CN0020001N9-00061+99999098611ADDAY171999GF109991091999002501999999MD1210061+9999MW1711
0043011520999991957020616004+67267+014367FM-12+001099999V0200901N00931002401CN0035001N9+99999+99999999999ADDAY171999GF109991091999002501999999MW1711
0043011520999991957020617004+67267+014367FM-12+001099999V0200901N00821002401CN0035001N9+99999+99999999999ADDAY171999GF109991091999002501999999MW1711
0094011520999991957020618004+67267+014367FM-12+001099999V0200801N00821002401CN0025001N9-00061+99999098611ADDAA199001091AY171999GF109991091999002501999999KA1999M+00061KA2999N-00061MD1410001+9999MW1711
0043011520999991957020619004+67267+014367FM-12+001099999V0200801N00821002401CN0020001N9+99999+99999999999ADDAY171999GF109991091999002501999999MW1711
0043011520999991957020620004+67267+014367FM-12+001099999V0200801N00931001501CN0015001N9+99999+99999999999ADDAY171999GF109991091999001501999999MW1731
0043011520999991957020621004+67267+014367FM-12+001099999V0200801N00931001501CN0015001N9+99999+99999999999ADDAY171999GF109991091999001501999999MW1731
0043011520999991957020622004+67267+014367FM-12+001099999V0200801N00931002401CN0025001N9+99999+99999999999ADDAY171999GF109991091999002501999999MW1711
0043011520999991957020623004+67267+014367FM-12+001099999V0200801N007219999999N0050001N9+99999+99999999999ADDAY171999GF108991021061002501021999MW1221
0057011520999991957020700004+67267+014367FM-12+001099999V0200801N00721002401CN0200001N9-00111+99999098751ADDAY171999GF107991051061002501021999MD1210091+9999MW1151
0043011520999991957020701004+67267+014367FM-12+001099999V0200801N00671002401CN0200001N9+99999+99999999999ADDAY121999GF108991051061002501021999MW1151
0043011520999991957020702004+67267+014367FM-12+001099999V0200801N00621004501CN0250001N9+99999+99999999999ADDAY121999GF108991061051004501021999MW1151
0057011520999991957020703004+67267+014367FM-12+001099999V0200901N005119999999N0150001N9-00111+99999098941ADDAY121999GF108991031051004501021999MD1210191+9999MW1151
0043011520999991957020704004+67267+014367FM-12+001099999V0201001N00411007801CN0250001N9+99999+99999999999ADDAY121999GF107991051051008001021011MW1151
0043011520999991957020705004+67267+014367FM-12+001099999V0200801N00411004501CN0300001N9+99999+99999999999ADDAY121999GF107991051051004501021011MW1151
0100011520999991957020706004+67267+014367FM-12+001099999V0200901N004119999999N0400001N9-00221+99999099101ADDAA199002091AY121999GF106991041051008001071011IA1009KA1999M+00001KA2999N-00171MD1210161+9999MW1151
0043011520999991957020707004+67267+014367FM-12+001099999V0200901N002619999999N0550001N9+99999+99999999999ADDAY121999GF106991041081012501071011MW1021
0043011520999991957020708004+67267+014367FM-12+001099999V0200801N003119999999N0550001N9+99999+99999999999ADDAY121999GF106991041081012501071001MW1021
0057011520999991957020709004+67267+014367FM-12+001099999V0200801N003119999999N0700001N9-00221+99999099321ADDAY121999GF106991041081008001041001MD1210221+9999MW1021
0043011520999991957020710004+67267+014367FM-12+001099999V0200801N001519999999N0700001N9+99999+99999999999ADDAY121999GF106991041081008001041001MW1151
0043011520999991957020711004+67267+014367FM-12+001099999V0200801N002619999999N0700001N9+99999+99999999999ADDAY121999GF104991031081008001041001MW1151
0057011520999991957020712004+67267+014367FM-12+001099999V0200901N002619999999N0700001N9-00281+99999099551ADDAY121999GF104991031081008001041001MD1210231+9999MW1151
0043011520999991957020713004+67267+014367FM-12+001099999V0200901N002119999999N0700001N9+99999+99999999999ADDAY111999GF102991011081008001041001MW1011
0043011520999991957020714004+67267+014367FM-12+001099999V0200801N002119999999N0700001N9+99999+99999999999ADDAY101999GF101991011081008001041001MW1011
0057011520999991957020715004+67267+014367FM-12+001099999V0200901N002119999999N0700001N9-00441+99999099781ADDAY111999GF101991011081008001041001MD1210231+9999MW1021
0043011520999991957020716004+67267+014367FM-12+001099999V0200901N004119999999N0700001N9+99999+99999999999ADDAY101999GF101991011081008001001001MW1021
0043011520999991957020717004+67267+014367FM-12+001099999V0201001N003619999999N0700001N9+99999+99999999999ADDAY101999GF101991011081008001001001MW1021
0083011520999991957020718004+67267+014367FM-12+001099999V0200801N004119999999N0700001N9-00561+99999099981ADDAY111999GF101991011051008001001001KA1999M-00171KA2999N-00611MD1210201+9999MW1021
0043011520999991957020719004+67267+014367FM-12+001099999V0200901N004119999999N0700001N9+99999+99999999999ADDAY101999GF101991011051008001001001MW1021
0043011520999991957020720004+67267+014367FM-12+001099999V0201001N004619999999N0700001N9+99999+99999999999ADDAY101999GF101991011051008001001001MW1021
0043011520999991957020721004+67267+014367FM-12+001099999V0200801N004619999999N0700001N9+99999+99999999999ADDAY101999GF101991011051008001001001MW1021
0043011520999991957020722004+67267+014367FM-12+001099999V0201001N005719999999N0700001N9+99999+99999999999ADDAY101999GF101991011051008001001001MW1021
0043011520999991957020723004+67267+014367FM-12+001099999V0201001N00621220001CN0700001N9+99999+99999999999ADDAY101999GF100991001001999999001001MW1011
0057011520999991957020800004+67267+014367FM-12+001099999V0200901N006219999999N0700001N9-00671+99999100141ADDAY101999GF101991011051008001001001MD1210041+9999MW1031
0043011520999991957020801004+67267+014367FM-12+001099999V0200901N006219999999N0700001N9+99999+99999999999ADDAY101999GF101991011051008001031001MW1021
0043011520999991957020802004+67267+014367FM-12+001099999V0200901N005119999999N0700001N9+99999+99999999999ADDAY101999GF102991011051008001031001MW1031
