0057011520999991955010100004+67283+014417FM-12+001399999V0202501N01441004501CN0050001N9+00721+00391102661ADDAY151999GF108991081061004501999999MD1110151+9999MW1531
0057011520999991955010103004+67283+014417FM-12+001399999V0202501N01031004501CN0100001N9+00611+00391102821ADDAY151999GF108991081061004501999999MD1210161+9999MW1021
0081011520999991955010106004+67283+014417FM-12+001399999V0202601N01031004501CN0100001N9+00391+00281102931ADDAA199001091AY181999GF108991081061004501999999KA1999N+00391MD1110111+9999MW1691
0057011520999991955010109004+67283+014417FM-12+001399999V0202801N00981007801CN0200001N9+00281+00221103211ADDAY181999GF107991051091008001021999MD1210281+9999MW1251
0057011520999991955010112004+67283+014417FM-12+001399999V0202901N00821007801CN0200001N9+00391+00001103581ADDAY181999GF107991061091008001021999MD1210371+9999MW1151
0057011520999991955010115004+67283+014417FM-12+001399999V0203001N00461220001CN0200001N9+00281-00111103921ADDAY181999GF104991031091008001041001MD1210341+9999MW1151
0081011520999991955010118004+67283+014417FM-12+001399999V0203401N00511007801CN0200001N9+00391+00001104161ADDAA199002091AY181999GF107991051081008001071999KA1999M+00501MD1310241+9999MW1151
0057011520999991955010200004+67283+014417FM-12+001399999V0202301N00311007801CN0250001N9+00281+00001104521ADDAY181999GF107991051081008001071999MD1210181+9999MW1151
0057011520999991955010203004+67283+014417FM-12+001399999V0202801N002619999999N0400001N9+00281+00111104621ADDAY121999GF106991041081008001071999MD1210101+9999MW1021
0081011520999991955010206004+67283+014417FM-12+001399999V0202601N00211007801CN0300001N9+00281+00001104621ADDAA199000691AY111999GF108991061081008001071999KA1999N+00221MD1410001+9999MW1031
0057011520999991955010209004+67283+014417FM-12+001399999V0201901N004119999999N0400001N9+00281+00221104681ADDAY121999GF108991041051012501071999MD1110061+9999MW1021
0057011520999991955010212004+67283+014417FM-12+001399999V0201201N00151015001CN0500001N9+00221+00111104671ADDAY121999GF108991051051017501071999MD1810011+9999MW1021
0057011520999991955010215004+67283+014417FM-12+001399999V0201201N00311012301CN0500001N9+00111+00001104761ADDAY121999GF107991071051012501071999MD1210091+9999MW1021
0070011520999991955010218004+67283+014417FM-12+001399999V0201401N00311012301CN0500001N9+00221-00111104691ADDAY121999GF107991051051012501071999KA1999M+00391MD1710071+9999MW1021
0057011520999991955010300004+67283+014417FM-12+001399999V0201101N004119999999N0500001N9+00001-00281104511ADDAY121999GF105991041051012501031001MD1710081+9999MW1021
0076011520999991955010303004+67283+014417FM-12+001399999V0201101N00511220001CN0500001N9-00111-00501104441ADDAY101999GF102991999001999999041001MD1710071+9999MW1011EQDQ01+000002SCOTLC
0089011520999991955010306004+67283+014417FM-12+001399999V0201101N00571220001CN0500001N9-00111-00281104311ADDAY121999GF103991999001999999041001KA1999N-00221MD1710131+9999MW1021EQDQ01+000002SCOTLC
0073011520999991955010309004+67283+014417FM-12+001399999V0201101N00671220001CN0600001N9+00001-00221104221ADDAY121999GA1041+012009059GF107991041051012501071001MD1710051+9999MW1021
0073011520999991955010312004+67283+014417FM-12+001399999V0201201N00511015001CN0600001N9-00111-00391104141ADDAY121999GA1061+015009059GF107991061051017501071999MD1710081+9999MW1021
0089011520999991955010315004+67283+014417FM-12+001399999V0201301N00461015001CN0550001N9+00001-00221104001ADDAY121999GA1011+007509059GA2051+015009059GF108991051051012501071999MD1610141+9999MW1021
0070011520999991955010318004+67283+014417FM-12+001399999V0201201N005119999999N0450001N9+00001-00221103801ADDAY121999GF108991041051012501071999KA1999M+00001MD1710201+9999MW1021
0057011520999991955010400004+67283+014417FM-12+001399999V0201101N00511007801CN0100001N9+00001-00111103431ADDAY171999GF108991081051008001999999MD1710201+9999MW1701
0057011520999991955010403004+67283+014417FM-12+001399999V0201801N00261007801CN0150001N9+00221+00111103211ADDAY171999GF108991081051008001999999MD1710221+9999MW1221
0097011520999991955010406004+67283+014417FM-12+001399999V0202301N01181007501CN0200001N9+00391+00281102881ADDAA199000591AY171999GA1051+007509059GF108991081051008001999999KA1999N-00111MD1710331+9999MW1151
0073011520999991955010409004+67283+014417FM-12+001399999V0202301N01131007501CN0200001N9+00391+00111102771ADDAY161999GA1061+007509059GF108991061051008001021999MD1710101+9999MW1601
0089011520999991955010412004+67283+014417FM-12+001399999V0202401N01131220001CN0200001N9+00501+00391102631ADDAY161999GA1021+006009099GA2041+006009059GF108991071081008001021999MD1710141+9999MW1151
0089011520999991955010415004+67283+014417FM-12+001399999V0202801N01031220001CN0200001N9+00501+00281102511ADDAY181999GA1031+005109099GA2041+006909059GF107991051081008001041999MD1710121+9999MW1251
0081011520999991955010418004+67283+014417FM-12+001399999V0203501N00871007801CN0100001N9+00391+00281102451ADDAA199002091AY181999GF108991081081008001999999KA1999M+00501MD1710061+9999MW1801
0057011520999991955010500004+67283+014417FM-12+001399999V0202901N00511007801CN0200001N9+00001-00501102671ADDAY181999GF107991071081008001999999MD1010081+9999MW1261
0057011520999991955010503004+67283+014417FM-12+001399999V0203501N01031004501CN0150001N9+00111-00221102631ADDAY181999GF108991051091004501021999MD1710041+9999MW1831
0097011520999991955010506004+67283+014417FM-12+001399999V0203201N00931005401CN0200001N9-00111-00221102621ADDAA199001091AY181999GA1071+005409099GF108991071091004501999999KA1999N-00111MD1710011+9999MW1271
0092011520999991955010509004+67283+014417FM-12+001399999V0203401N00571006901CN0200001N9-00111-00611102621ADDAY121999GA1051+006909099GF108991051081008001071999MD1410001+9999MW1151EQDQ01+000022APCTEN
0073011520999991955010512004+67283+014417FM-12+001399999V0203601N00621220001CN0200001N9-00111-00501102611ADDAY181999GA1041+006909089GF107991061081008001061999MD1810011+9999MW1151
0089011520999991955010515004+67283+014417FM-12+001399999V0200201N00771220001CN0150001N9-00281-00501102691ADDAY181999GA1041+006009099GA2021+003909089GF105991041091008001061999MD1210081+9999MW1271
0081011520999991955010518004+67283+014417FM-12+001399999V0200201N005719999999N0200001N9-00221-00721102731ADDAA199000691AY181999GF106991031091008001061021KA1999M-00111MD1210041+9999MW1151
0057011520999991955010600004+67283+014417FM-12+001399999V0201801N006219999999N0350001N9-00281-00611102651ADDAY181999GF107991021091008001061999MD1710051+9999MW1021
0057011520999991955010603004+67283+014417FM-12+001399999V0201201N00411007801CN0350001N9-00391-00611102461ADDAY121999GF107991051091008001061999MD1710191+9999MW1021
0097011520999991955010606004+67283+014417FM-12+001399999V0202201N00621002401CN0030001N9-00281-00391102171ADDAA199002091AY181999GA1091+002409999GF109991091999001501999999KA1999N-00501MD1710291+9999MW1861
0073011520999991955010609004+67283+014417FM-12+001399999V0202301N00621004501CN0050001N9-00281-00391101851ADDAY181999GA1051+004509089GF108991081081004501999999MD1710321+9999MW1851
0073011520999991955010612004+67283+014417FM-12+001399999V0201501N00461003901CN0100001N9-00111-00281101501ADDAY181999GA1071+003909099GF108991081091004501999999MD1710351+9999MW1851
0073011520999991955010615004+67283+014417FM-12+001399999V0201001N01031003001CN0030001N9-00281-00391100951ADDAY181999GA1091+003009999GF109991091999004501999999MD1710551+9999MW1861
0081011520999991955010618004+67283+014417FM-12+001399999V0201701N00261004501CN0100001N9-00221-00281100531ADDAA199004091AY181999GF108991081091004501999999KA1999M-00111MD1710421+9999MW1151
0057011520999991955010700004+67283+014417FM-12+001399999V0203601N00511001501CN0004001N9+00001-00111100151ADDAY181999GF109991091999001501999999MD1710091+9999MW1861
0057011520999991955010703004+67283+014417FM-12+001399999V0203601N00621007801CN0150001N9+00111-00281100091ADDAY181999GF107991071081008001999999MD1710061+9999MW1151
0097011520999991955010706004+67283+014417FM-12+001399999V0200101N00571220001CN0350001N9+00111-00281100091ADDAA199003091AY181999GA1041+006609089GF106991061031008001999999KA1999N-00221MD1410001+9999MW1011
0089011520999991955010709004+67283+014417FM-12+001399999V0200101N00511220001CN0150001N9+00001-00501100271ADDAY121999GA1031+003909099GA2021+006009089GF105991051091004501001001MD1310181+9999MW1851
0073011520999991955010712004+67283+014417FM-12+001399999V0200101N01031220001CN0400001N9-00111-00611100451ADDAY121999GA1031+006009089GF105991051081008001001001MD1310181+9999MW1021
0073011520999991955010715004+67283+014417FM-12+001399999V0200401N00511006601CN0400001N9-00281-00781100681ADDAY121999GA1051+006609089GF105991051021008001001001MD1310231+9999MW1021
0081011520999991955010718004+67283+014417FM-12+001399999V0200701N00311220001CN0550001N9-00781-01221100811ADDAA199000691AY121999GF101991011021008001001001KA1999M+00111MD1310131+9999MW1011
0057011520999991955010800004+67283+014417FM-12+001399999V0201101N00511220001CN0500001N9-00721-00781100911ADDAY121999GF104991031041012501041001MD1110031+9999MW1021
0057011520999991955010803004+67283+014417FM-12+001399999V0201101N00671004501CN0100001N9-00611-00721100791ADDAY121999GF108991081091004501999999MD1710121+9999MW1731
0097011520999991955010806004+67283+014417FM-12+001399999V0201101N00461006901CN0150001N9-00501-00611100701ADDAA199003091AY171999GA1071+006909079GF108991081091008001999999KA1999N-01001MD1510091+9999MW1221
0089011520999991955010809004+67283+014417FM-12+001399999V0200801N00211220001CN0300001N9-00501-00611100711ADDAY181999GA1031+006009099GA2011+004809089GF107991071091008001999999MD1210011+9999MW1151
0089011520999991955010812004+67283+014417FM-12+001399999V0200201N00211220001CN0350001N9-00281-00391100721ADDAY181999GA1041+004809099GA2031+006009089GF106991061091004501001021MD1710011+9999MW1151
0073011520999991955010815004+67283+014417FM-12+001399999V0201501N00361220001CN0150001N9-00391-00501100671ADDAY181999GA1041+004809099GF104991041091004501001001MD1810051+9999MW1151
0081011520999991955010818004+67283+014417FM-12+001399999V0201501N00261220001CN0100001N9-00281-00391100611ADDAA199001091AY171999GF104991041091008001001001KA1999M-00221MD1710061+9999MW1711
0057011520999991955010900004+67283+014417FM-12+001399999V0200901N00571000601CN0010001N9-00501-00611100341ADDAY181999GF109991091999000751999999MD1710131+9999MW1861
0057011520999991955010903004+67283+014417FM-12+001399999V0200801N00621001501CN0020001N9-00501-00611100161ADDAY171999GF109991091999001501999999MD1710181+9999MW1721
0097011520999991955010906004+67283+014417FM-12+001399999V0201101N00511004501CN0100001N9-00391-00501099961ADDAA199010091AY171999GA1061+004509089GF108991061071004501021999KA1999N-00611MD1710201+9999MW1711
0089011520999991955010909004+67283+014417FM-12+001399999V0200801N00411220001CN0100001N9-00501-00501099831ADDAY181999GA1031+004509099GA2041+005109089GF108991051071004501021021MD1710131+9999MW1151
0073011520999991955010912004+67283+014417FM-12+001399999V0202901N00621220001CN0100001N9-00221-00611099701ADDAY181999GA1041+004509089GF108991061071004501021999MD1710131+9999MW1871
0073011520999991955010915004+67283+014417FM-12+001399999V0203101N00411006301CN0250001N9-00281-00611099611ADDAY181999GA1071+006309099GF108991071091008001999999MD1710091+9999MW1151
0081011520999991955010918004+67283+014417FM-12+001399999V0202001N00361007801CN0200001N9-00281-00501099491ADDAA199004091AY181999GF107991071091008001999999KA1999M-00221MD1710121+9999MW1851
0057011520999991955011000004+67283+014417FM-12+001399999V0200801N00261007801CN0200001N9-00281-00501099371ADDAY111999GF106991061081008001999999MD1610031+9999MW1151
0057011520999991955011003004+67283+014417FM-12+001399999V0200701N00261002401CN0005001N9-00501-00611099311ADDAY181999GF109991091999002501999999MD1710061+9999MW1861
0097011520999991955011006004+67283+014417FM-12+001399999V0201001N00461003601CN0050001N9-00501-00611099211ADDAA199002091AY181999GA1091+003609999GF109991091999004501999999KA1999N-00501MD1710101+9999MW1851
0073011520999991955011009004+67283+014417FM-12+001399999V0201001N00621220001CN0400001N9-00611-00721099031ADDAY121999GA1021+009009089GF105991031081008001021011MD1710181+9999MW1021
0073011520999991955011012004+67283+014417FM-12+001399999V0200801N00511220001CN0600001N9-00721-01001098771ADDAY181999GA1021+012009089GF105991021081012501041071MD1710261+9999MW1021
0108011520999991955011015004+67283+014417FM-12+001399999V0200801N00721060001CN0700001N9-00721-01111098431ADDAY121999GA1021+012009089GA2071+060009029GF199999021081012501071071MD1710341+9999MW1021EQDQ01+000052SCOTCV
0081011520999991955011018004+67283+014417FM-12+001399999V0200801N008219999999N0500001N9-00721-01111098031ADDAA199000691AY121999GF108991021081012501041071KA1999M-00501MD1710401+9999MW1021
0057011520999991955011100004+67283+014417FM-12+001399999V0200701N00571004501CN0050001N9-00611-00721097231ADDAY171999GF109991091999004501999999MD1710401+9999MW1721
0057011520999991955011103004+67283+014417FM-12+001399999V0200501N00361004501CN0080001N9-00721-00781096951ADDAY171999GF108991081001004501021999MD1710281+9999MW1711
0097011520999991955011106004+67283+014417FM-12+001399999V0200801N00571003001CN0080001N9-00721-00781096761ADDAA199001091AY171999GA1081+003009049GF108991081001004501021999KA1999N-00721MD1710191+9999MW1711
0073011520999991955011109004+67283+014417FM-12+001399999V0200801N00361005401CN0120001N9-00611-00721096651ADDAY171999GA1061+005409049GF108991061001004501021999MD1710111+9999MW1701
0073011520999991955011112004+67283+014417FM-12+001399999V0200901N00261006001CN0120001N9-00721-00781096541ADDAY171999GA1051+006009049GF108991051001004501021999MD1810111+9999MW1701
0073011520999991955011115004+67283+014417FM-12+001399999V0201501N00311003001CN0030001N9-00611-00721096401ADDAY171999GA1061+003009049GF108991061001004501021999MD1710141+9999MW1731
0081011520999991955011118004+67283+014417FM-12+001399999V0201001N00411220001CN0300001N9-00721-00781096331ADDAA199001091AY171999GF104991031081008001071071KA1999M-00611MD1710071+9999MW1701
0057011520999991955011200004+67283+014417FM-12+001399999V0201001N003119999999N0500001N9-00781-00891096411ADDAY171999GF107991021051008001041091MD1210041+9999MW1021
0057011520999991955011203004+67283+014417FM-12+001399999V0201701N007219999999N0100001N9-00391-00501096311ADDAY171999GF107991041091004501021999MD1710101+9999MW1851
0097011520999991955011206004+67283+014417FM-12+001399999V0203401N01951220001CN0000001N9-00111-00221096091ADDAA199008091AY181999GA1091+999999999GF109991091999000251999999KA1999N-00891MD1710221+9999MW1861
0073011520999991955011209004+67283+014417FM-12+001399999V0203201N02111000151CN0000001N9-00111-00221096201ADDAY181999GA1091+000159999GF109991091999000251999999MD1210111+9999MW1861
0073011520999991955011212004+67283+014417FM-12+001399999V0203201N01231000901CN0010001N9-00111-00221096461ADDAY181999GA1081+000909049GF108991081001001501021999MD1210261+9999MW1861
0089011520999991955011215004+67283+014417FM-12+001399999V0203601N01651003601CN0000001N9-00221-00281096771ADDAY181999GA1091+999999999GA2051+003609059GF109991091999000251999999MD1210311+9999MW1861
0081011520999991955011218004+67283+014417FM-12+001399999V0203601N01031000151CN0001001N9-00281-00391097291ADDAA199028091AY181999GF109991091999000251999999KA1999M-00111MD1210531+9999MW1861
0057011520999991955011300004+67283+014417FM-12+001399999V0203601N01031000151CN0001001N9-00391-00501097711ADDAY181999GF109991091999000251999999MD1210211+9999MW1861
0076011520999991955011303004+67283+014417FM-12+001399999V0200201N00621004501CN0100001N9-00391-00501097861ADDAY181999GF108991999071004501011999MD1110151+9999MW1021EQDQ01+000082SCOTLC
0097011520999991955011306004+67283+014417FM-12+001399999V0200901N00151220001CN0200001N9-00721-00781097981ADDAA199002091AY181999GA1031+004509099GF103991031091004501001001KA1999N-00721MD1210121+9999MW1021
0089011520999991955011309004+67283+014417FM-12+001399999V0200901N00461220001CN0450001N9-00721-00781098101ADDAY121999GA1031+004209099GA2021+007509059GF107991031091004501071071MD1210121+9999MW1151
0092011520999991955011312004+67283+014417FM-12+001399999V0200901N00621220001CN0450001N9-00721-00781098101ADDAY121999GA1021+003909089GF104991021081004501071011MD1410001+9999MW1021EQDQ01+000072APCTEN
0089011520999991955011315004+67283+014417FM-12+001399999V0200901N00821220001CN0450001N9-00781-01001098001ADDAY121999GA1011+005109089GA2041+030009039GF107991011081004501071011MD1710101+9999MW1021
0113011520999991955011318004+67283+014417FM-12+001399999V0200901N00981030001CN0350001N9-00611-00891097841ADDAA199000691AY181999GA1021+004509089GA2061+030009039GF108991021081004501071999KA1999M-00611MD1710161+9999MW1261
0057011520999991955011400004+67283+014417FM-12+001399999V0200901N00621007801CN0500001N9-00501-00891097581ADDAY121999GF107991061081008001041999MD1710141+9999MW1031
0057011520999991955011403004+67283+014417FM-12+001399999V0200901N00511012301CN0400001N9-00501-00891097541ADDAY121999GF108991051081012501071999MD1610041+9999MW1031
0097011520999991955011406004+67283+014417FM-12+001399999V0201101N00511006001CN0100001N9-00391-00721097531ADDAA199000691AY121999GA1061+006009059GF108991061051008001071999KA1999N-00611MD1510011+9999MW1711
0073011520999991955011409004+67283+014417FM-12+001399999V0201301N00511008101CN0200001N9-00391-00781097581ADDAY121999GA1061+008109059GF108991061051008001071999MD1210051+9999MW1151
0073011520999991955011412004+67283+014417FM-12+001399999V0201501N00671220001CN0300001N9-00281-00781097561ADDAY121999GA1041+006009099GF107991041091008001071999MD1710021+9999MW1151
0073011520999991955011415004+67283+014417FM-12+001399999V0202101N00411006001CN0150001N9-00391-00721097871ADDAY181999GA1071+006009059GF108991071051008001999999MD1310311+9999MW1151
0081011520999991955011418004+67283+014417FM-12+001399999V0200201N00101004501CN0020001N9-00391-00501097981ADDAA199005091AY181999GF109991091999004501999999KA1999M-00281MD1210111+9999MW1861
0057011520999991955011500004+67283+014417FM-12+001399999V0201401N00511220001CN0200001N9-00391-01001097961ADDAY181999GF104991021081008001071999MD1210021+9999MW1261
0057011520999991955011503004+67283+014417FM-12+001399999V0201001N00871007801CN0150001N9-00611-01111097931ADDAY181999GF107991051081008001071999MD1710031+9999MW1851
0097011520999991955011506004+67283+014417FM-12+001399999V0201201N00721220001CN0250001N9-00391-00891097941ADDAA199000691AY181999GA1021+007509059GF106991031081008001071999KA1999N-00721MD1210011+9999MW1151
0073011520999991955011509004+67283+014417FM-12+001399999V0201001N01031220001CN0200001N9-00611-01001097941ADDAY121999GA1041+006009099GF106991041091008001051999MD1410001+9999MW1361
0089011520999991955011512004+67283+014417FM-12+001399999V0202901N01131006001CN0150001N9-00391-00611098301ADDAY181999GA1011+004509099GA2061+006009089GF107991061081008001071999MD1110361+9999MW1361
0073011520999991955011515004+67283+014417FM-12+001399999V0202601N00211005401CN0150001N9-00501-00721098571ADDAY181999GA1051+005409099GF107991051091004501071999MD1210271+9999MW1261
0081011520999991955011518004+67283+014417FM-12+001399999V0201201N00511220001CN0300001N9-00721-00781098671ADDAA199007091AY181999GF104991031081008001041999KA1999M-00281MD1210101+9999MW1151
0057011520999991955011600004+67283+014417FM-12+001399999V0200901N00721220001CN0450001N9-00781-01221098731ADDAY101999GF103991031081008001001001MD1210041+9999MW1021
0057011520999991955011603004+67283+014417FM-12+001399999V0200901N00511220001CN0450001N9-00891-01281098741ADDAY101999GF101991011081008001001001MD1210011+9999MW1011
0086011520999991955011606004+67283+014417FM-12+001399999V0200901N00721220001CN0450001N9-00891-01221098691ADDAY101999GA1011+010509059GF101991011051008001001001KA1999N-01001MD1810051+9999MW1021
0073011520999991955011609004+67283+014417FM-12+001399999V0200801N00981220001CN0550001N9-00891-01281098681ADDAY101999GA1011+012009059GF101991011051012501001011MD1710011+9999MW1021
0073011520999991955011612004+67283+014417FM-12+001399999V0201201N01031220001CN0700001N9-00781-01281098771ADDAY101999GA1011+013509059GF101991011081012501001001MD1210091+9999MW1021
0073011520999991955011615004+67283+014417FM-12+001399999V0200901N00821220001CN0700001N9-00891-01281098801ADDAY101999GA1011+012009059GF102991011051012501041001MD1210031+9999MW1021
0070011520999991955011618004+67283+014417FM-12+001399999V0200801N00821220001CN0700001N9-01001-01281098771ADDAY101999GF101991011051012501001001KA1999M-00781MD1810031+9999MW1011
0057011520999991955011700004+67283+014417FM-12+001399999V0200901N00571220001CN0550001N9-01111-01391098651ADDAY101999GF101991011051012501001001MD1710061+9999MW1021
0057011520999991955011703004+67283+014417FM-12+001399999V0200901N00621220001CN0550001N9-01111-01391098561ADDAY121999GF104991041081008001001001MD1710091+9999MW1031
0086011520999991955011706004+67283+014417FM-12+001399999V0200901N00621220001CN0550001N9-01111-01391098541ADDAY111999GA1021+013509059GF102991021051012501001001KA1999N-01221MD1710021+9999MW1011
0073011520999991955011709004+67283+014417FM-12+001399999V0201101N00671220001CN0400001N9-01001-01391098681ADDAY121999GA1031+015009059GF107991031051017501021071MD1210141+9999MW1031
0089011520999991955011712004+67283+014417FM-12+001399999V0201001N00571220001CN0400001N9-00781-01111098781ADDAY121999GA1011+007509089GA2031+030009039GF105991011021008001041011MD1210101+9999MW1011
0108011520999991955011715004+67283+014417FM-12+001399999V0200801N00511220001CN0500001N9-00781-01001098801ADDAY101999GA1011+010509089GF102991011021012501041011MD1210021+9999MW1021EQDQ01+000042APCTENQ02+000022APC3  
0070011520999991955011718004+67283+014417FM-12+001399999V0201001N00411220001CN0500001N9-00781-01001098821ADDAY101999GF101991011021012501041001KA1999M-00781MD1210021+9999MW1021
0057011520999991955011800004+67283+014417FM-12+001399999V0201101N00461220001CN0500001N9-00781-01001098791ADDAY101999GF100991001001999999001001MD1710031+9999MW1021
0057011520999991955011803004+67283+014417FM-12+001399999V0200901N00511220001CN0500001N9-00891-01001098721ADDAY101999GF101991011051012501001001MD1710071+9999MW1031
0086011520999991955011806004+67283+014417FM-12+001399999V0200901N00411220001CN0550001N9-01001-01221098651ADDAY101999GA1021+012009059GF102991021051012501001001KA1999N-01111MD1710071+9999MW1021
0089011520999991955011809004+67283+014417FM-12+001399999V0200901N00511060001CN0600001N9-00891-01111098651ADDAY101999GA1011+007509089GA2051+060009029GF107991011081008001041071MD1410001+9999MW1031
0089011520999991955011812004+67283+014417FM-12+001399999V0200901N00511220001CN0600001N9-00891-01111098581ADDAY111999GA1021+009009089GA2031+060009029GF105991021081008001041081MD1710071+9999MW1021
0089011520999991955011815004+67283+014417FM-12+001399999V0200901N00411220001CN0600001N9-01001-01111098561ADDAY121999GA1011+007509089GA2031+030009039GF105991011081008001041071MD1710021+9999MW1021
0070011520999991955011818004+67283+014417FM-12+001399999V0200901N00461220001CN0600001N9-01001-01111098581ADDAY101999GF103991011081008001041001KA1999M-00781MD1210021+9999MW1021
0076011520999991955011900004+67283+014417FM-12+001399999V0200901N00511220001CN0600001N9-01001-01111098681ADDAY101999GF102991999001999999041001MD1210041+9999MW1021EQDQ01+000002SCOTLC
0076011520999991955011903004+67283+014417FM-12+001399999V0200901N00621220001CN0600001N9-01001-01111098761ADDAY101999GF101991999001999999041001MD1210081+9999MW1011EQDQ01+000002SCOTLC
0105011520999991955011906004+67283+014417FM-12+001399999V0200901N00621220001CN0600001N9-01111-01281098801ADDAY101999GA1011+030009039GF101991999001999999041001KA1999N-01221MD1210041+9999MW1021EQDQ01+000002SCOTLC
0073011520999991955011909004+67283+014417FM-12+001399999V0200901N00511220001CN0600001N9-01001-01221098921ADDAY101999GA1011+010509059GF102991011051012501041001MD1210121+9999MW1021
0089011520999991955011912004+67283+014417FM-12+001399999V0200901N00511220001CN0700001N9-01111-01281099031ADDAY101999GA1011+003009059GA2011+010509059GF102991011051012501041001MD1210111+9999MW1021
0073011520999991955011915004+67283+014417FM-12+001399999V0200901N00511220001CN0700001N9-01111-01391099111ADDAY101999GA1011+006009059GF101991011051008001041011MD1210081+9999MW1021
0086011520999991955011918004+67283+014417FM-12+001399999V0200901N00621220001CN0700001N9-01111-01281099211ADDAY101999GA1011+006009059GF101991011051008001001011KA1999M-01001MD1210101+9999MW1021
0076011520999991955012000004+67283+014417FM-12+001399999V0200901N00571220001CN0600001N9-00891-01281099461ADDAY101999GF101991999001999999041001MD1210131+9999MW1021EQDQ01+000002SCOTLC
0057011520999991955012003004+67283+014417FM-12+001399999V0201001N00671220001CN0600001N9-00721-01111099641ADDAY101999GF100991001001999999001001MD1210221+9999MW1011
0070011520999991955012006004+67283+014417FM-12+001399999V0200901N00621220001CN0600001N9-00721-01111099841ADDAY101999GF100991001001999999001001KA1999N-01001MD1210201+9999MW1021
0073011520999991955012009004+67283+014417FM-12+001399999V0200901N00621220001CN0700001N9-00721-01221100091ADDAY101999GA1021+021009039GF102991021001017501071001MD1210251+9999MW1031
0073011520999991955012012004+67283+014417FM-12+001399999V0200901N00571220001CN0700001N9-00721-01111100381ADDAY101999GA1011+021009039GF101991011001022501041021MD1210291+9999MW1021
0073011520999991955012015004+67283+014417FM-12+001399999V0200901N00671220001CN0700001N9-00721-01111100631ADDAY101999GA1011+021009039GF101991011001022501041001MD1210251+9999MW1021
0070011520999991955012018004+67283+014417FM-12+001399999V0200901N00621220001CN0600001N9-00721-01111100901ADDAY101999GF100991001001999999001001KA1999M-00721MD1210271+9999MW1011
0057011520999991955012100004+67283+014417FM-12+001399999V0201001N00721220001CN0700001N9-00721-01111101291ADDAY101999GF100991001001999999001001MD1210201+9999MW1021
0057011520999991955012103004+67283+014417FM-12+001399999V0200901N00771220001CN0600001N9-00721-01111101411ADDAY101999GF100991001001999999001001MD1210121+9999MW1021
0105011520999991955012106004+67283+014417FM-12+001399999V0201001N00871220001CN0600001N9-00611-01221101411ADDAY101999GA1011+015009059GF101991011051017501999001KA1999N-00721MD1410001+9999MW1031EQDQ01    003SCOMCG
0073011520999991955012109004+67283+014417FM-12+001399999V0200901N00821220001CN0700001N9-00501-01111101491ADDAY101999GA1021+018009039GF102991021001017501071001MD1210081+9999MW1031
0073011520999991955012112004+67283+014417FM-12+001399999V0200901N00931220001CN0700001N9-00391-01111101481ADDAY101999GA1011+021009049GF103991011001022501011051MD1710011+9999MW1031
0108011520999991955012115004+67283+014417FM-12+001399999V0201001N00931220001CN0700001N9-00391-01111101391ADDAY101999GA1021+018009049GF105991999001999999071071MD1810091+9999MW1031EQDQ01+000002SCOTLCQ02+000992SCOLCB
0089011520999991955012118004+67283+014417FM-12+001399999V0201101N01031220001CN0600001N9-00221-01001101231ADDAY111999GF103991999001999999071001KA1999M-00221MD1710161+9999MW1011EQDQ01+000002SCOTLC
0057011520999991955012200004+67283+014417FM-12+001399999V0201401N00931220001CN0300001N9-00111-00891100991ADDAY121999GF106991001001999999041071MD1710101+9999MW1031
0057011520999991955012203004+67283+014417FM-12+001399999V0201201N00931220001CN0300001N9+00001-00781100711ADDAY121999GF107991001001999999041071MD1710281+9999MW1031
0086011520999991955012206004+67283+014417FM-12+001399999V0201401N01131021001CN0300001N9+00111-00611100531ADDAY121999GA1061+021009049GF108991081001022501021999KA1999N-00221MD1710181+9999MW1031
0089011520999991955012209004+67283+014417FM-12+001399999V0201501N01181220001CN0500001N9+00001-00611100491ADDAY121999GA1041+013509059GA2041+021009049GF107991041051012501011999MD1610041+9999MW1021
0089011520999991955012212004+67283+014417FM-12+001399999V0201401N01231021001CN0550001N9+00001-00611100411ADDAY121999GA1021+015009059GA2061+021009049GF108991021051017501021999MD1710081+9999MW1021
0073011520999991955012215004+67283+014417FM-12+001399999V0201501N01131015001CN0400001N9+00001-00721100271ADDAY121999GA1061+015009059GF108991061051017501021999MD1710141+9999MW1021
0097011520999991955012218004+67283+014417FM-12+001399999V0201301N00931007501CN0100001N9+00001-00221100141ADDAA199000691AY171999GA1051+007509049GF108991081001008001021999KA1999M+00111MD1710131+9999MW1701
0057011520999991955012300004+67283+014417FM-12+001399999V0202501N01231004501CN0150001N9+00111+00001100041ADDAY181999GF106991061091004501001001MD1710051+9999MW1251
0057011520999991955012303004+67283+014417FM-12+001399999V0202501N01951002401CN0035001N9+00111-00111100011ADDAY181999GF109991091999002501999999MD1710031+9999MW1841
0097011520999991955012306004+67283+014417FM-12+001399999V0202701N01231003001CN0100001N9-00111-00221100031ADDAA199005091AY181999GA1081+003009099GF108991081091004501999999KA1999N-00111MD1310021+9999MW1841
0073011520999991955012309004+67283+014417FM-12+001399999V0202701N01131006001CN0180001N9+00001-00391100011ADDAY181999GA1051+006009099GF107991051091008001071999MD1710021+9999MW1261
0089011520999991955012312004+67283+014417FM-12+001399999V0202701N01341220001CN0200001N9-00111-00391100051ADDAY181999GA1021+004509099GA2041+006609099GF107991061091004501071999MD1210041+9999MW1261
0073011520999991955012315004+67283+014417FM-12+001399999V0202501N01231006001CN0130001N9+00111-00111100071ADDAY181999GA1061+006009099GF107991061091004501071999MD1210021+9999MW1181
0081011520999991955012318004+67283+014417FM-12+001399999V0203101N01131004501CN0120001N9+00221-00221100371ADDAA199003091AY181999GF107991061091004501071999KA1999M+00281MD1310301+9999MW1151
0057011520999991955012400004+67283+014417FM-12+001399999V0202001N00411002401CN0035001N9+00111+00001100291ADDAY181999GF109991091999002501999999MD1710041+9999MW1701
0057011520999991955012403004+67283+014417FM-12+001399999V0200901N00511001501CN0020001N9+00001-00111099661ADDAY181999GF109991091999001501999999MD1710631+9999MW1701
0097011520999991955012406004+67283+014417FM-12+001399999V0200901N01031003001CN0020001N9+00001-00111099201ADDAA199004091AY181999GA1091+003009999GF109991091999002501999999KA1999N-00111MD1710461+9999MW1701
0073011520999991955012409004+67283+014417FM-12+001399999V0201001N00981003901CN0020001N9+00111+00001098631ADDAY171999GA1081+003909079GF108991081061004501999999MD1710571+9999MW1661
0092011520999991955012412004+67283+014417FM-12+001399999V0200901N01031003301CN0030001N9+00001-00111098321ADDAY171999GA1081+003309079GF108991999061004501021999MD1710311+9999MW1581EQDQ01+000082SCOTLC
0073011520999991955012415004+67283+014417FM-12+001399999V0200901N00721003301CN0020001N9+00111+00001098181ADDAY161999GA1081+003309079GF108991081061004501999999MD1710141+9999MW1581
0081011520999991955012418004+67283+014417FM-12+001399999V0200901N00411004501CN0025001N9+00111+00001097981ADDAA199017091AY161999GF108991081061004501999999KA1999M+00221MD1710201+9999MW1581
0057011520999991955012500004+67283+014417FM-12+001399999V0200201N01031004501CN0080001N9+00001-00111098171ADDAY161999GF108991081081004501999999MD1310301+9999MW1831
0057011520999991955012503004+67283+014417FM-12+001399999V0200101N00931007801CN0150001N9+00001-00391098621ADDAY181999GF107991071081008001999999MD1210451+9999MW1151
0097011520999991955012506004+67283+014417FM-12+001399999V0200101N00671220001CN0250001N9+00001-00611099141ADDAA199007091AY181999GA1041+006009089GF106991051081008001061999KA1999N+00001MD1210521+9999MW1011
0073011520999991955012509004+67283+014417FM-12+001399999V0203401N00931009001CN0450001N9+00001-00391099531ADDAY181999GA1051+009009089GF106991051081008001061001MD1210391+9999MW1261
0073011520999991955012512004+67283+014417FM-12+001399999V0203101N00771220001CN0500001N9+00001-00501099911ADDAY181999GA1041+010209089GF105991041081012501061001MD1210381+9999MW1261
0073011520999991955012515004+67283+014417FM-12+001399999V0202901N00871007501CN0200001N9+00001-00611100221ADDAY181999GA1051+007509089GF105991051021008001061001MD1110311+9999MW1151
0081011520999991955012518004+67283+014417FM-12+001399999V0202801N00821007801CN0100001N9+00001-00281100331ADDAA199000691AY181999GF108991061081008001071999KA1999M+00001MD1110111+9999MW1831
0057011520999991955012600004+67283+014417FM-12+001399999V0201501N003619999999N0100001N9+00001-00281100231ADDAY121999GF108991041051008001021999MD1810101+9999MW1021
0057011520999991955012603004+67283+014417FM-12+001399999V0200901N008719999999N0100001N9-00111-00281099941ADDAY121999GF108991041051008001021999MD1810291+9999MW1021
0097011520999991955012606004+67283+014417FM-12+001399999V0201001N01031003001CN0025001N9-00221-00281099641ADDAA199001091AY181999GA1091+003009999GF109991091999000251999999KA1999N-00281MD1710301+9999MW1851
0073011520999991955012609004+67283+014417FM-12+001399999V0200901N00771004501CN0050001N9-00221-00281099631ADDAY181999GA1061+004509079GF108991061061004501021999MD1210011+9999MW1661
0089011520999991955012612004+67283+014417FM-12+001399999V0200901N00671004501CN0150001N9+00001-00111099671ADDAY161999GA1021+003009079GA2051+004509079GF108991071061004501021999MD1210041+9999MW1661
0089011520999991955012615004+67283+014417FM-12+001399999V0200901N00671004501CN0150001N9+00001-00111099581ADDAY161999GA1031+002709079GA2051+004509049GF108991051061004501021999MD1710091+9999MW1611
0081011520999991955012618004+67283+014417FM-12+001399999V0201001N006719999999N0080001N9+00001-00111099441ADDAA199003091AY161999GF108991031061002501021999KA1999M+00111MD1710141+9999MW1611
0057011520999991955012700004+67283+014417FM-12+001399999V0201001N007219999999N0060001N9+00111+00001098961ADDAY161999GF108991041061002501021999MD1810151+9999MW1611
0057011520999991955012703004+67283+014417FM-12+001399999V0201001N006219999999N0100001N9+00111+00001098711ADDAY161999GF108991031061004501021999MD1710251+9999MW1501
0113011520999991955012706004+67283+014417FM-12+001399999V0201001N00571220001CN0080001N9+00221+00111098551ADDAA199015091AY161999GA1031+003009079GA2041+004509049GF108991031061004501021999KA1999N+00001MD1610161+9999MW1621
0089011520999991955012709004+67283+014417FM-12+001399999V0202401N01341004501CN0100001N9+00391+00281098491ADDAY171999GA1031+003009079GA2051+004509079GF108991081061004501999999MD1810061+9999MW1631
0089011520999991955012712004+67283+014417FM-12+001399999V0202401N00821005101CN0150001N9+00391+00281098501ADDAY161999GA1031+003009079GA2061+005109049GF108991071061004501021999MD1210011+9999MW1631
0089011520999991955012715004+67283+014417FM-12+001399999V0203601N01291005401CN0150001N9+00001-00111098911ADDAY161999GA1021+003009079GA2051+005409059GF108991051051004501071999MD1310411+9999MW1151
0081011520999991955012718004+67283+014417FM-12+001399999V0203601N00621004501CN0200001N9-00111-00611099681ADDAA199010091AY161999GF107991051051004501071999KA1999M+00391MD1210771+9999MW1151
0057011520999991955012800004+67283+014417FM-12+001399999V0209991C00001220001CN0300001N9-00221-00721100141ADDAY121999GF104991041051008001001001MD1210151+9999MW1011
0057011520999991955012803004+67283+014417FM-12+001399999V0202401N00621007801CN0250001N9-00111-00221100271ADDAY181999GF107991051091008001061999MD1210131+9999MW1271
0097011520999991955012806004+67283+014417FM-12+001399999V0202101N00621006001CN0200001N9-00111-00221100331ADDAA199000391AY181999GA1051+006009089GF108991051081008001061999KA1999N-00281MD1210061+9999MW1851
0089011520999991955012809004+67283+014417FM-12+001399999V0202301N00361220001CN0250001N9-00111-00221100381ADDAY181999GA1011+003009079GA2041+006009059GF105991041081008001061011MD1210051+9999MW1021
0089011520999991955012812004+67283+014417FM-12+001399999V0201001N00361220001CN0150001N9-00281-00391100511ADDAY181999GA1011+003009079GA2031+004509089GF106991041081004501061011MD1210131+9999MW1151
0089011520999991955012815004+67283+014417FM-12+001399999V0200801N00411220001CN0300001N9-00391-00391100531ADDAY121999GA1011+001509079GA2031+006009089GF106991061081008001001001MD1210021+9999MW1021
0081011520999991955012818004+67283+014417FM-12+001399999V0200801N00511220001CN0550001N9-00501-00611100571ADDAA199003091AY111999GF102991021081008001001001KA1999M-00111MD1210041+9999MW1011
0057011520999991955012900004+67283+014417FM-12+001399999V0200901N00621220001CN0550001N9-00721-00891100641ADDAY101999GF101991011081008001001001MD1210041+9999MW1021
0057011520999991955012903004+67283+014417FM-12+001399999V0200801N00621220001CN0550001N9-00781-01001100581ADDAY101999GF100991001001999999001001MD1810061+9999MW1011
0070011520999991955012906004+67283+014417FM-12+001399999V0200801N00721220001CN0600001N9-00891-01281100521ADDAY101999GF100991001001999999001001KA1999N-00891MD1710061+9999MW1021
0073011520999991955012909004+67283+014417FM-12+001399999V0200901N00771220001CN0700001N9-00781-01281100561ADDAY101999GA1011+013509089GF101991011081012501001001MD1210041+9999MW1021
0073011520999991955012912004+67283+014417FM-12+001399999V0200901N00621220001CN0700001N9-00781-01221100591ADDAY101999GA1011+013509089GF101991011021012501001001MD1210031+9999MW1021
0073011520999991955012915004+67283+014417FM-12+001399999V0200601N00621220001CN0700001N9-00781-01281100711ADDAY101999GA1011+013509089GF101991011021012501041001MD1210121+9999MW1021
0070011520999991955012918004+67283+014417FM-12+001399999V0200901N00721220001CN0700001N9-00721-01221100811ADDAY101999GF101991011021012501001001KA1999M-00721MD1210101+9999MW1021
0057011520999991955013000004+67283+014417FM-12+001399999V0200901N00671220001CN0700001N9-00781-01281100941ADDAY101999GF100991001001999999001001MD1210091+9999MW1021
0057011520999991955013003004+67283+014417FM-12+001399999V0200901N00721220001CN0700001N9-00891-01281100951ADDAY101999GF100991001001999999001001MD1210011+9999MW1021
0070011520999991955013006004+67283+014417FM-12+001399999V0200901N00931220001CN0700001N9-00781-01281100771ADDAY101999GF100991001001999999001001KA1999N-00891MD1710181+9999MW1021
0108011520999991955013009004+67283+014417FM-12+001399999V0200801N01031220001CN0700001N9-00781-01221100561ADDAY101999GA1011+027009039GA2031+060009029GF103991999001999999041051MD1710111+9999MW1031EQDQ01+000002SCOTLC
0108011520999991955013012004+67283+014417FM-12+001399999V0200801N01131060001CN0650001N9-00611-01111100401ADDAY101999GA1031+027009039GA2051+060009029GF106991999001999999071071MD1710161+9999MW1031EQDQ01+000002SCOTLC
0108011520999991955013015004+67283+014417FM-12+001399999V0201101N01131060001CN0650001N9-00501-01221100321ADDAY101999GA1031+027009039GA2051+060009029GF106991999001999999071071MD1710081+9999MW1021EQDQ01+000002SCOTLC
0070011520999991955013018004+67283+014417FM-12+001399999V0201001N01341220001CN0650001N9-00501-01221100141ADDAY101999GF101991001001999999001071KA1999M-00501MD1710181+9999MW1021
0057011520999991955013100004+67283+014417FM-12+001399999V0201101N01081220001CN0650001N9-00501-01221099911ADDAY101999GF104991001001999999021011MD1710121+9999MW1011
0076011520999991955013103004+67283+014417FM-12+001399999V0201001N01081220001CN0650001N9-00501-01111099801ADDAY101999GF104991999001999999021001MD1710111+9999MW1021EQDQ01+000002SCOTLC
0086011520999991955013106004+67283+014417FM-12+001399999V0201001N01031220001CN0650001N9-00501-01111099741ADDAY101999GA1031+010509059GF103991031051008001041999KA1999N-00611MD1710061+9999MW1011
0073011520999991955013109004+67283+014417FM-12+001399999V0201001N01031220001CN0700001N9-00501-01221099821ADDAY101999GA1011+013509059GF104991011051012501041051MD1310031+9999MW1021
0073011520999991955013112004+67283+014417FM-12+001399999V0200901N00931220001CN0700001N9-00611-01221099851ADDAY101999GA1011+013509059GF103991011051012501041051MD1210031+9999MW1021
0073011520999991955013115004+67283+014417FM-12+001399999V0200901N00821220001CN0700001N9-00611-01221099901ADDAY101999GA1011+013509059GF103991011051012501041051MD1210051+9999MW1011
0070011520999991955013118004+67283+014417FM-12+001399999V0200901N00821220001CN0700001N9-00721-01221100021ADDAY101999GF101991011051012501041999KA1999M-00501MD1210121+9999MW1011
0057011520999991955020100004+67283+014417FM-12+001399999V0200901N00821220001CN0550001N9-00781-01281100191ADDAY101999GF101991011051012501041001MD1210071+9999MW1021
0057011520999991955020103004+67283+014417FM-12+001399999V0200901N00871220001CN0550001N9-00781-01281100201ADDAY101999GF101991011051012501041001MD1210011+9999MW1021
0086011520999991955020106004+67283+014417FM-12+001399999V0200901N00981220001CN0550001N9-00721-01221100241ADDAY101999GA1011+012009059GF101991011051012501041001KA1999N-00781MD1210041+9999MW1021
0073011520999991955020109004+67283+014417FM-12+001399999V0200801N01031220001CN0550001N9-00611-01111100281ADDAY121999GA1011+015009059GF107991011051012501041001MD1210041+9999MW1031
0073011520999991955020112004+67283+014417FM-12+001399999V0200901N01031220001CN0650001N9-00501-01111100331ADDAY101999GA1011+015009059GF102991011051012501041001MD1210051+9999MW1011
0073011520999991955020115004+67283+014417FM-12+001399999V0200901N01031220001CN0650001N9-00611-01221100341ADDAY101999GA1011+015009059GF102991011051017501041001MD1210011+9999MW1021
0070011520999991955020118004+67283+014417FM-12+001399999V0200901N00981220001CN0650001N9-00611-01111100301ADDAY101999GF102991011051017501041001KA1999M-00501MD1810041+9999MW1021
0057011520999991955020200004+67283+014417FM-12+001399999V0200901N01131220001CN0650001N9-00501-01001100291ADDAY121999GF106991001001999999001091MD1710031+9999MW1031
0057011520999991955020203004+67283+014417FM-12+001399999V0200901N009319999999N0650001N9-00501-01001100281ADDAY121999GF107991011051017501021071MD1710011+9999MW1031
0102011520999991955020206004+67283+014417FM-12+001399999V0200901N01131220001CN0600001N9-00501-00891100241ADDAY121999GA1021+012009059GA2031+030009039GF106991021051012501041071KA1999N-00611MD1710041+9999MW1021
0089011520999991955020209004+67283+014417FM-12+001399999V0200801N01081220001CN0600001N9-00611-01001100221ADDAY121999GA1011+012009059GA2031+030009039GF106991011051012501041071MD1710021+9999MW1011
0108011520999991955020212004+67283+014417FM-12+001399999V0200901N01031220001CN0600001N9-00611-01001100241ADDAY121999GA1041+018009059GF107991041051017501021001MD1210021+9999MW1021EQDQ01+000042APCTENQ02+000022APC3  
0089011520999991955020215004+67283+014417FM-12+001399999V0200901N00931220001CN0280001N9-00611-00891100191ADDAY181999GA1031+013509059GA2041+012009049GF107991031051012501021001MD1710051+9999MW1261
0081011520999991955020218004+67283+014417FM-12+001399999V0200901N009319999999N0300001N9-00611-00891100221ADDAA199000691AY121999GF107991031051012501021001KA1999M-00501MD1210031+9999MW1151
0057011520999991955020300004+67283+014417FM-12+001399999V0200901N00931012301CN0550001N9-00501-00781100161ADDAY121999GF107991071051012501021999MD1710031+9999MW1021
0057011520999991955020303004+67283+014417FM-12+001399999V0200901N00671012301CN0500001N9-00501-00781100101ADDAY121999GF108991081051012501999999MD1710061+9999MW1031
0086011520999991955020306004+67283+014417FM-12+001399999V0200901N00621012001CN0500001N9-00501-00781099891ADDAY121999GA1061+012009059GF108991061051012501021999KA1999N-00611MD1710111+9999MW1021
0073011520999991955020309004+67283+014417FM-12+001399999V0200801N00721012001CN0500001N9-00391-00721099931ADDAY121999GA1051+012009059GF108991051051012501021999MD1210041+9999MW1021
0089011520999991955020312004+67283+014417FM-12+001399999V0200901N00981220001CN0500001N9-00391-00721099881ADDAY121999GA1021+013509059GA2041+018009049GF106991021051012501021071MD1710051+9999MW1021
0073011520999991955020315004+67283+014417FM-12+001399999V0200901N01031015001CN0500001N9-00391-00721099781ADDAY121999GA1071+015009049GF108991081001017501021999MD1710101+9999MW1021
0070011520999991955020318004+67283+014417FM-12+001399999V0200901N01131015001CN0500001N9-00391-00721099581ADDAY121999GF108991081001017501021999KA1999M-00391MD1710201+9999MW1021
0057011520999991955020400004+67283+014417FM-12+001399999V0200801N01291001501CN0020001N9-00501-00611099321ADDAY171999GF109991091999001501999999MD1710131+9999MW1731
0057011520999991955020403004+67283+014417FM-12+001399999V0200901N01231002401CN0050001N9-00391-00611099131ADDAY171999GF109991091999002501999999MD1810191+9999MW1711
0097011520999991955020406004+67283+014417FM-12+001399999V0200901N01031002401CN0100001N9-00281-00391098971ADDAA199002091AY171999GA1091+002409999GF109991091999002501999999KA1999N-00501MD1710161+9999MW1711
0089011520999991955020409004+67283+014417FM-12+001399999V0200901N01131006901CN0170001N9-00221-00501098911ADDAY171999GA1041+005409059GA2051+006909049GF108991041051008001021071MD1710061+9999MW1221
0124011520999991955020412004+67283+014417FM-12+001399999V0200901N00981006901CN0200001N9-00221-00611098901ADDAY121999GA1021+004809059GA2051+006909049GF107991021051004501021999MD1710011+9999MW1151EQDQ01+000042APCTENQ02+000012APC3  
0073011520999991955020415004+67283+014417FM-12+001399999V0200801N01031003901CN0100001N9-00221-00501098801ADDAY121999GA1081+003909049GF108991081001004501021999MD1710101+9999MW1151
0081011520999991955020418004+67283+014417FM-12+001399999V0200901N00931004501CN0050001N9-00221-00501098781ADDAA199000691AY171999GF108991081001004501021999KA1999M-00221MD1710021+9999MW1711
0057011520999991955020500004+67283+014417FM-12+001399999V0200901N00931004501CN0050001N9-00281-00611098661ADDAY171999GF108991081001004501021999MD1210021+9999MW1711
0057011520999991955020503004+67283+014417FM-12+001399999V0200901N01181004501CN0040001N9-00281-00391098881ADDAY171999GF108991081001004501021999MD1210021+9999MW1711
0097011520999991955020506004+67283+014417FM-12+001399999V0200901N00721008101CN0200001N9-00221-00281099001ADDAA199001091AY171999GA1081+008109049GF108991081001004501021999KA1999N-00391MD1210121+9999MW1021
0108011520999991955020509004+67283+014417FM-12+001399999V0201001N00871007201CN0250001N9-00111-00221099001ADDAY121999GA1031+006009059GA2061+007209049GF108991031051004501021999MD1410001+9999MW1021EQDQ01+000022APCTEN
0073011520999991955020512004+67283+014417FM-12+001399999V0201001N00621006001CN0150001N9+00001-00111099121ADDAY171999GA1051+006009059GF106991051051004501021999MD1210121+9999MW1851
0073011520999991955020515004+67283+014417FM-12+001399999V0200901N00511006001CN0250001N9+00001-00221099151ADDAY121999GA1051+006009059GF106991051051004501021999MD1210031+9999MW1021
0081011520999991955020518004+67283+014417FM-12+001399999V0200901N00621220001CN0250001N9+00001-00281099181ADDAA199000691AY121999GF104991011051008001021999KA1999M+00001MD1210031+9999MW1011
0057011520999991955020600004+67283+014417FM-12+001399999V0201001N01031007801CN0250001N9+00111-00281099191ADDAY121999GF108991061051008001021999MD1210011+9999MW1021
0057011520999991955020603004+67283+014417FM-12+001399999V0200901N00721007801CN0250001N9+00111-00281099201ADDAY121999GF108991061051008001021999MD1210011+9999MW1021
0105011520999991955020606004+67283+014417FM-12+001399999V0201001N00721007501CN0250001N9+00111-00281099201ADDAY121999GA1061+007509059GF108991061051008001021999KA1999N+00111MD1410001+9999MW1021EQDQ01+000022APCTEN
0073011520999991955020609004+67283+014417FM-12+001399999V0201101N01031012001CN0250001N9+00221-00221099341ADDAY121999GA1071+012009059GF108991071051008001021999MD1210141+9999MW1151
0057011520999991955020612004+67283+014417FM-12+001399999V0201201N009319999999N0300001N9+00111-00221099401ADDAY121999GF107991031081008001021999MD1210061+9999MW1021
0057011520999991955020615004+67283+014417FM-12+001399999V0201001N004619999999N0300001N9+00111-00221099461ADDAY121999GF106991031051008001021999MD1210061+9999MW1021
0070011520999991955020618004+67283+014417FM-12+001399999V0200901N00571220001CN0400001N9-00111-00501099521ADDAY111999GF103991021051008001021999KA1999M+00281MD1210061+9999MW1011
0057011520999991955020700004+67283+014417FM-12+001399999V0201001N006219999999N0300001N9+00111-00221099611ADDAY121999GF108991031051012501021999MD1110071+9999MW1021
0057011520999991955020703004+67283+014417FM-12+001399999V0201001N006719999999N0300001N9+00111-00221099551ADDAY121999GF106991041051012501021999MD1810061+9999MW1021
0086011520999991955020706004+67283+014417FM-12+001399999V0200901N00621220001CN0300001N9+00111-00221099541ADDAY121999GA1041+011109059GF105991041051012501041001KA1999N-00111MD1710011+9999MW1021
0108011520999991955020709004+67283+014417FM-12+001399999V0201001N00621024001CN0300001N9+00221-00281099541ADDAY121999GA1011+012009059GA2061+024009049GF107991011051012501041001MD1410001+9999MW1021EQDQ01+000072APCTEN
0089011520999991955020712004+67283+014417FM-12+001399999V0201201N00511024001CN0300001N9+00221-00111099591ADDAY121999GA1021+012009059GA2061+024009049GF107991021051012501011001MD1210051+9999MW1021
0073011520999991955020715004+67283+014417FM-12+001399999V0201001N00621220001CN0600001N9+00221-00111099561ADDAY121999GA1031+012009059GF104991031051012501011001MD1710031+9999MW1011
0070011520999991955020718004+67283+014417FM-12+001399999V0200901N006219999999N0300001N9+00221-00111099541ADDAY121999GF108991041051008001021999KA1999M+00281MD1710021+9999MW1031
0057011520999991955020800004+67283+014417FM-12+001399999V0200901N005119999999N0600001N9+00001-00111099531ADDAY121999GF105991011051017501041071MD1610081+9999MW1021
0057011520999991955020803004+67283+014417FM-12+001399999V0200901N004119999999N0600001N9+00001-00111099451ADDAY121999GF105991011051012501041071MD1710081+9999MW1021
0102011520999991955020806004+67283+014417FM-12+001399999V0201001N00461220001CN0300001N9+00001+00001099401ADDAY121999GA1031+006909059GA2041+012009039GF107991031051008001071071KA1999N-00111MD1710051+9999MW1031
0089011520999991955020809004+67283+014417FM-12+001399999V0201401N00261010201CN0080001N9-00111-00221099401ADDAY171999GA1041+006009059GA2081+010209049GF108991041051008001001001MD1410001+9999MW1711
0089011520999991955020812004+67283+014417FM-12+001399999V0201401N00261006001CN0020001N9-00111-00221099391ADDAY171999GA1051+006009059GA2081+010509049GF108991051051004501021999MD1710011+9999MW1711
0089011520999991955020815004+67283+014417FM-12+001399999V0200901N00621004501CN0040001N9-00111-00221099391ADDAY171999GA1051+004509059GA2051+007509049GF108991051051004501021999MD1410001+9999MW1711
0081011520999991955020818004+67283+014417FM-12+001399999V0200901N006219999999N0100001N9-00221-00281099391ADDAA199002091AY171999GF108991031051008001071999KA1999M+00001MD1410001+9999MW1221
0057011520999991955020900004+67283+014417FM-12+001399999V0200901N003619999999N0400001N9-00281-00611099481ADDAY121999GF105991021051008001041999MD1210041+9999MW1021
0057011520999991955020903004+67283+014417FM-12+001399999V0200901N003619999999N0500001N9-00391-00611099571ADDAY121999GF105991021051012501041999MD1210091+9999MW1021
0086011520999991955020906004+67283+014417FM-12+001399999V0200901N00361220001CN0500001N9-00501-00611099671ADDAY121999GA1031+012009059GF105991031051012501031999KA1999N-00501MD1210101+9999MW1021
0089011520999991955020909004+67283+014417FM-12+001399999V0200901N00361220001CN0300001N9-00391-00501099801ADDAY121999GA1011+005109079GA2041+006609059GF107991051081008001071999MD1210131+9999MW1151
0089011520999991955020912004+67283+014417FM-12+001399999V0201001N00361220001CN0280001N9-00501-00721999999ADDAY181999GA1011+006009089GA2031+006909059GF105991041081008001061011MD1210201+9999MW1151
0073011520999991955020915004+67283+014417FM-12+001399999V0201201N00151004501CN0045001N9-00391-00501100011ADDAY181999GA1051+004509099GF108991051091004501021999MD1210011+9999MW1261
0081011520999991955020918004+67283+014417FM-12+001399999V0203601N01031004501CN0070001N9-00111-00391100101ADDAA199003091AY181999GF108991061091004501021999KA1999M+00001MD1210091+9999MW1151
0057011520999991955021000004+67283+014417FM-12+001399999V0203601N00931004501CN0150001N9-00111-00391100141ADDAY181999GF108991081081004501999999MD1210021+9999MW1261
0057011520999991955021003004+67283+014417FM-12+001399999V0203601N00821004501CN0200001N9-00111-00501100181ADDAY121999GF107991071091004501999999MD1210041+9999MW1151
0097011520999991955021006004+67283+014417FM-12+001399999V0200201N00411220001CN0400001N9-00221-00721100161ADDAA199000691AY121999GA1041+010509089GF105991041081008001061001KA1999N-00501MD1810021+9999MW1021
0073011520999991955021009004+67283+014417FM-12+001399999V0203501N00361220001CN0300001N9-00221-00501100171ADDAY121999GA1031+006909089GF105991041081008001071001MD1210011+9999MW1151
0089011520999991955021012004+67283+014417FM-12+001399999V0201001N00151007501CN0500001N9-00281-00391100131ADDAY181999GA1011+004509099GA2061+007509089GF107991071031008001061001MD1810041+9999MW1151
0073011520999991955021015004+67283+014417FM-12+001399999V0201001N00211220001CN0400001N9-00391-00501100061ADDAY121999GA1031+007509089GF104991031081008001061001MD1710071+9999MW1151
0081011520999991955021018004+67283+014417FM-12+001399999V0201001N00411220001CN0500001N9-00721-00781100061ADDAA199000691AY111999GF103991031081008001001001KA1999M-00221MD1410001+9999MW1011
0057011520999991955021100004+67283+014417FM-12+001399999V0201001N00511220001CN0550001N9-00721-00781100091ADDAY101999GF101991011081012501001001MD1210011+9999MW1021
0057011520999991955021103004+67283+014417FM-12+001399999V0201001N00511001501CN0040001N9-00611-00721100111ADDAY171999GF109991091999001501999999MD1210021+9999MW1711
0097011520999991955021106004+67283+014417FM-12+001399999V0200901N00821220001CN0100001N9-00501-00721100231ADDAA199000691AY171999GA1041+005109099GF107991041091004501071999KA1999N-00721MD1210121+9999MW1151
0073011520999991955021109004+67283+014417FM-12+001399999V0200901N00771220001CN0700001N9-00611-00891100501ADDAY121999GA1011+012009059GF102991011081012501041001MD1210271+9999MW1021
0073011520999991955021112004+67283+014417FM-12+001399999V0201001N00721220001CN0700001N9-00611-00891100801ADDAY101999GA1011+012009089GF101991011081012501041011MD1210301+9999MW1021
0073011520999991955021115004+67283+014417FM-12+001399999V0201001N00621220001CN0700001N9-00611-01001101041ADDAY101999GA1011+012009089GF101991011081012501041001MD1210241+9999MW1021
0070011520999991955021118004+67283+014417FM-12+001399999V0200801N00511220001CN0700001N9-00721-01221101331ADDAY101999GF101991011081012501001001KA1999M-00501MD1210291+9999MW1021
0057011520999991955021200004+67283+014417FM-12+001399999V0200901N00621220001CN0550001N9-00891-01281101601ADDAY101999GF100991001001999999001001MD1210141+9999MW1011
0057011520999991955021203004+67283+014417FM-12+001399999V0200901N00571220001CN0550001N9-01001-01281101651ADDAY101999GF100991001001999999001001MD1210051+9999MW1021
0086011520999991955021206004+67283+014417FM-12+001399999V0200901N00411220001CN0550001N9-01001-01281101661ADDAY101999GA1011+013209059GF101991011051012501001001KA1999N-01001MD1210011+9999MW1031
0073011520999991955021209004+67283+014417FM-12+001399999V0201001N00721012001CN0200001N9-00891-01111101611ADDAY121999GA1061+012009059GF107991061051012501041001MD1810051+9999MW1151
0073011520999991955021212004+67283+014417FM-12+001399999V0201701N00621000151CN0030001N9-00501-00611101491ADDAY181999GA1091+000159999GF109991091999002501999999MD1710121+9999MW1851
0092011520999991955021215004+67283+014417FM-12+001399999V0203401N01081004501CN0120001N9-00611-00721101351ADDAY181999GA1061+004509099GF107991999091004501001001MD1710141+9999MW1371EQDQ01+000062SCOTLC
0081011520999991955021218004+67283+014417FM-12+001399999V0200101N00621004501CN0150001N9-00221-00721101371ADDAA199003091AY121999GF105991051091004501001001KA1999M-00221MD1210021+9999MW1151
0057011520999991955021300004+67283+014417FM-12+001399999V0203201N00771004501CN0060001N9-00111-00221101111ADDAY181999GF108991081091004501999999MD1610121+9999MW1151
0057011520999991955021303004+67283+014417FM-12+001399999V0203501N00721004501CN0150001N9-00111-00391101041ADDAY181999GF106991061091004501001001MD1610071+9999MW1151
0097011520999991955021306004+67283+014417FM-12+001399999V0203601N00771220001CN0150001N9-00111-00501100991ADDAA199002091AY181999GA1041+005109099GF105991041091004501001021KA1999N-00221MD1710051+9999MW1151
0073011520999991955021309004+67283+014417FM-12+001399999V0203501N00511220001CN0120001N9-00221-00501101021ADDAY181999GA1041+005109089GF106991041031004501061999MD1210031+9999MW1151
0073011520999991955021312004+67283+014417FM-12+001399999V0203401N00411001501CN0009001N9-00221-00281100971ADDAY181999GA1091+001509999GF109991091999001501999999MD1710051+9999MW1861
0073011520999991955021315004+67283+014417FM-12+001399999V0203601N00821220001CN0150001N9-00221-00611100861ADDAY181999GA1041+004809089GF105991041021004501061001MD1710111+9999MW1151
0100011520999991955021318004+67283+014417FM-12+001399999V0203601N005719999999N0200001N9-00111-00391100791ADDAA199002091AY181999GF105991999021008001001001KA1999M-00111MD1710071+9999MW1021EQDQ01+000042SCOTLC
0057011520999991955021400004+67283+014417FM-12+001399999V0200801N00871220001CN0350001N9-00501-00781100851ADDAY111999GF102991021021008001001001MD1210031+9999MW1021
0057011520999991955021403004+67283+014417FM-12+001399999V0201001N00981220001CN0500001N9-00611-01111101151ADDAY111999GF100991001001999999001001MD1210301+9999MW1021
0097011520999991955021406004+67283+014417FM-12+001399999V0200901N00621220001CN0500001N9-00891-01281101371ADDAA199001091AY111999GA1011+024009039GF101991011001022501041001KA1999N-00891MD1210221+9999MW1021
0073011520999991955021409004+67283+014417FM-12+001399999V0200801N00931220001CN0700001N9-00891-01281101521ADDAY101999GA1011+027009039GF101991011001022501041001MD1210171+9999MW1021
0073011520999991955021412004+67283+014417FM-12+001399999V0200801N00621220001CN0700001N9-00891-01281101571ADDAY101999GA1011+027009039GF101991011001999999041011MD1210051+9999MW1021
0073011520999991955021415004+67283+014417FM-12+001399999V0200801N00571220001CN0700001N9-01001-01391101651ADDAY101999GA1011+024009039GF101991011001022501041011MD1110081+9999MW1011
0070011520999991955021418004+67283+014417FM-12+001399999V0200901N00621220001CN0700001N9-01111-01501101511ADDAY101999GF101991011051017501041011KA1999M-00891MD1710141+9999MW1021
0057011520999991955021500004+67283+014417FM-12+001399999V0200901N006219999999N0450001N9-01001-01281101151ADDAY121999GF108991021051012501041999MD1710181+9999MW1021
0057011520999991955021503004+67283+014417FM-12+001399999V0201001N01031004501CN0050001N9-00891-01001100751ADDAY121999GF108991051091004501021999MD1710401+9999MW1851
0097011520999991955021506004+67283+014417FM-12+001399999V0201001N00931001801CN0020001N9-00781-00781100431ADDAA199000591AY181999GA1091+001809999GF109991091999001501999999KA1999N-01111MD1710321+9999MW1711
0073011520999991955021509004+67283+014417FM-12+001399999V0201001N00931002101CN0025001N9-00611-00611100061ADDAY171999GA1091+002109999GF109991091999001501999999MD1710371+9999MW1731
0073011520999991955021512004+67283+014417FM-12+001399999V0201001N00771004501CN0025001N9-00501-00611099631ADDAY171999GA1061+004509079GF108991061061004501021999MD1710431+9999MW1711
0073011520999991955021515004+67283+014417FM-12+001399999V0201001N00821001801CN0010001N9-00391-00391099221ADDAY171999GA1091+001809999GF109991091999001501999999MD1710411+9999MW1731
0081011520999991955021518004+67283+014417FM-12+001399999V0200901N00981004501CN0150001N9-00281-00611098771ADDAA199004091AY171999GF108991051071004501021999KA1999M-00281MD1710451+9999MW1151
0057011520999991955021600004+67283+014417FM-12+001399999V0200901N01131220001CN0500001N9-00501-00891098701ADDAY131999GF103991021051008001071011MD1510041+9999MW1361
0057011520999991955021603004+67283+014417FM-12+001399999V0200901N01131220001CN0500001N9-00721-01111098791ADDAY131999GF101991011051008001001001MD1210091+9999MW1011
0097011520999991955021606004+67283+014417FM-12+001399999V0200901N01131220001CN0600001N9-00781-01221098861ADDAA199000591AY121999GA1021+012009059GF106991021051012501041011KA1999N-00781MD1110071+9999MW1031
0089011520999991955021609004+67283+014417FM-12+001399999V0200901N01031045001CN0700001N9-00781-01281098951ADDAY121999GA1011+012009059GA2051+045009039GF107991011051012501041021MD1210091+9999MW1021
0089011520999991955021612004+67283+014417FM-12+001399999V0200901N00981220001CN0700001N9-00781-01221099071ADDAY121999GA1011+012009059GA2041+045009039GF106991011051012501041021MD1210121+9999MW1021
0089011520999991955021615004+67283+014417FM-12+001399999V0200901N00931220001CN0600001N9-00891-01281099191ADDAY121999GA1021+012009059GA2041+150009009GF105991021051012501041021MD1210121+9999MW1021
0070011520999991955021618004+67283+014417FM-12+001399999V0200801N00931220001CN0600001N9-01001-01391099261ADDAY111999GF102991011051012501041001KA1999M-00781MD1210071+9999MW1011
0057011520999991955021700004+67283+014417FM-12+001399999V0200901N01131220001CN0500001N9-01221-01611099411ADDAY131999GF100991001001999999001001MD1210071+9999MW1021
0057011520999991955021703004+67283+014417FM-12+001399999V0200901N01231220001CN0500001N9-01221-01501099491ADDAY131999GF100991001001999999001001MD1210081+9999MW1021
0086011520999991955021706004+67283+014417FM-12+001399999V0200901N01341220001CN0500001N9-01221-01611099621ADDAY131999GA1011+012009059GF101991011051012501001001KA1999N-01221MD1210131+9999MW1021
0089011520999991955021709004+67283+014417FM-12+001399999V0200901N01131120001CN0400001N9-01221-01611099911ADDAY131999GA1011+012009089GA2051+120009009GF106991011081012501041021MD1210291+9999MW1361
0089011520999991955021712004+67283+014417FM-12+001399999V0201001N01341220001CN0400001N9-01111-01501100091ADDAY131999GA1011+012009059GA2041+120009009GF106991011051012501041011MD1210181+9999MW1361
0089011520999991955021715004+67283+014417FM-12+001399999V0201001N01541120001CN0400001N9-01111-01501100281ADDAY131999GA1011+012009059GA2061+120009009GF106991011051012501041011MD1210191+9999MW1361
0070011520999991955021718004+67283+014417FM-12+001399999V0201201N015419999999N0400001N9-01221-01611100491ADDAY131999GF107991011051012501041011KA1999M-01111MD1210211+9999MW1361
0057011520999991955021800004+67283+014417FM-12+001399999V0201101N010319999999N0400001N9-01001-01501100921ADDAY121999GF105991031051012501041011MD1210211+9999MW1011
0057011520999991955021803004+67283+014417FM-12+001399999V0201101N010819999999N0400001N9-00891-01391100971ADDAY121999GF106991041051012501041011MD1110051+9999MW1031
0086011520999991955021806004+67283+014417FM-12+001399999V0200601N00721220001CN0400001N9-00891-01391101061ADDAY121999GA1031+012009059GF104991031051012501041011KA1999N-01221MD1110091+9999MW1011
0073011520999991955021809004+67283+014417FM-12+001399999V0200601N00571220001CN0600001N9-00891-01281101191ADDAY101999GA1011+012009059GF102991011051012501041001MD1210131+9999MW1021
0057011520999991955021812004+67283+014417FM-12+001399999V0200601N00511220001CN0600001N9-00781-01221101261ADDAY101999GF101991001001999999001051MD1210071+9999MW1021
0076011520999991955021815004+67283+014417FM-12+001399999V0200601N00571220001CN0600001N9-00781-01281101311ADDAY101999GF101991001001999999001051MD1210051+9999MW1021EQDQ01+000012SCOTLC
0070011520999991955021818004+67283+014417FM-12+001399999V0200701N00571220001CN0600001N9-01001-01391101371ADDAY101999GF101991011021008001001051KA1999M-00721MD1210061+9999MW1021
0057011520999991955021900004+67283+014417FM-12+001399999V0200901N00621220001CN0500001N9-01001-01391101421ADDAY101999GF100991001001999999001001MD1210031+9999MW1021
0057011520999991955021903004+67283+014417FM-12+001399999V0201001N00671220001CN0500001N9-01111-01391101431ADDAY101999GF100991001001999999001001MD1210011+9999MW1021
0105011520999991955021906004+67283+014417FM-12+001399999V0200901N00671220001CN0550001N9-01111-01281101411ADDAY101999GA1021+018009039GF102991999001017501041001KA1999N-01111MD1810021+9999MW1031EQDQ01+000002SCOTLC
0073011520999991955021909004+67283+014417FM-12+001399999V0201001N00511220001CN0550001N9-01001-01221101441ADDAY101999GA1011+012009089GF102991021081008001041001MD1210031+9999MW1021
0073011520999991955021912004+67283+014417FM-12+001399999V0201301N00511220001CN0550001N9-00781-01111101431ADDAY101999GA1021+011109089GF103991021081012501001021MD1810011+9999MW1031
0073011520999991955021915004+67283+014417FM-12+001399999V0201801N00621008101CN0200001N9-00391-00721101291ADDAY121999GA1071+008109089GF107991071091008001999999MD1710141+9999MW1151
0081011520999991955021918004+67283+014417FM-12+001399999V0202501N00981007801CN0200001N9-00221-00501101201ADDAA199000691AY121999GF107991061081008001999999KA1999M-00221MD1710091+9999MW1151
0057011520999991955022000004+67283+014417FM-12+001399999V0202701N01031007801CN0100001N9+00111-00281100941ADDAY171999GF108991081071008001999999MD1710131+9999MW1151
0057011520999991955022003004+67283+014417FM-12+001399999V0202801N01291007801CN0150001N9+00111-00281100761ADDAY171999GF108991081071008001999999MD1710181+9999MW1151
0097011520999991955022006004+67283+014417FM-12+001399999V0202901N01391006601CN0100001N9+00111-00281100621ADDAA199002091AY171999GA1071+006609049GF108991081071008001999999KA1999N-00281MD1710141+9999MW1151
0073011520999991955022009004+67283+014417FM-12+001399999V0202901N01541005101CN0100001N9+00001-00111100461ADDAY171999GA1061+005109059GF108991081071004501999999MD1710161+9999MW1151
0108011520999991955022012004+67283+014417FM-12+001399999V0202901N01031012001CN0080001N9+00111+00001100281ADDAY181999GA1031+006009089GA2081+012009049GF108991999081004501021999MD1710181+9999MW1151EQDQ01+000082SCOTLC
0089011520999991955022015004+67283+014417FM-12+001399999V0202801N00931010501CN0100001N9+00001-00111100251ADDAY181999GA1031+006009089GA2061+010509049GF107991061071004501021999MD1810031+9999MW1151
0081011520999991955022018004+67283+014417FM-12+001399999V0203101N005119999999N0200001N9+00111-00111100301ADDAA199004091AY181999GF105991041071008001021999KA1999M+00111MD1210051+9999MW1151
0057011520999991955022100004+67283+014417FM-12+001399999V0203201N004619999999N0150001N9+00001-00281100461ADDAY181999GF106991041081008001071999MD1210051+9999MW1151
0057011520999991955022103004+67283+014417FM-12+001399999V0202901N00461007801CN0150001N9+00001-00111100461ADDAY181999GF108991051081008001021999MD1410001+9999MW1151
0132011520999991955022106004+67283+014417FM-12+001399999V0203301N00771220001CN0150001N9-00111-00111100461ADDAA199000691AY181999GA1011+004509079GA2041+006909099GF108991041091008001021999KA1999N-00111MD1410001+9999MW1851EQDQ01+000072APCTEN
0073011520999991955022109004+67283+014417FM-12+001399999V0203001N00571220001CN0100001N9+00001-00281100451ADDAY181999GA1041+006909099GF106991041091008001051001MD1710011+9999MW1151
0089011520999991955022112004+67283+014417FM-12+001399999V0203101N00411005101CN0700001N9+00001-00221100511ADDAY181999GA1051+005109089GA2021+006009099GF106991021091008001051999MD1210061+9999MW1151
0089011520999991955022115004+67283+014417FM-12+001399999V0200301N00261220001CN0200001N9+00001-00221100521ADDAY181999GA1031+006309099GA2011+007509089GF106991031091008001061011MD1210011+9999MW1151
0081011520999991955022118004+67283+014417FM-12+001399999V0200501N002619999999N0300001N9-00281-00391100621ADDAA199003091AY181999GF106991031081008001061071KA1999M+00111MD1210101+9999MW1151
0057011520999991955022200004+67283+014417FM-12+001399999V0200901N00411220001CN0400001N9-00501-00611100661ADDAY121999GF104991021051008001041051MD1210021+9999MW1031
0057011520999991955022203004+67283+014417FM-12+001399999V0201001N006219999999N0200001N9-00391-00501100641ADDAY121999GF108991041081008001071999MD1810021+9999MW1871
0097011520999991955022206004+67283+014417FM-12+001399999V0200901N00511000601CN0015001N9-00391-00391100621ADDAA199001091AY171999GA1091+000609999GF109991091999000751999999KA1999N-00891MD1710021+9999MW1751
0073011520999991955022209004+67283+014417FM-12+001399999V0203601N00571007501CN0150001N9-00281-00391100811ADDAY171999GA1061+007509059GF108991061051008001021999MD1210191+9999MW1731
0073011520999991955022212004+67283+014417FM-12+001399999V0203101N00821220001CN0200001N9-00111-00391100981ADDAY181999GA1021+005109079GF107991041091008001071999MD1210171+9999MW1261
0089011520999991955022215004+67283+014417FM-12+001399999V0203101N00721220001CN0400001N9-00111-00611101111ADDAY181999GA1031+007509089GA2041+007509089GF104991031091008001061001MD1210131+9999MW1151
0081011520999991955022218004+67283+014417FM-12+001399999V0203201N00411220001CN0450001N9-00221-00611101301ADDAA199002091AY181999GF103991021091008001061001KA1999M-00111MD1210191+9999MW1151
0057011520999991955022300004+67283+014417FM-12+001399999V0201001N005119999999N0300001N9-00221-00281101511ADDAY121999GF107991041091008001061001MD1710101+9999MW1151
0057011520999991955022303004+67283+014417FM-12+001399999V0201001N00511004501CN0300001N9-00281-00391101501ADDAY121999GF108991081091004501999999MD1710011+9999MW1701
0097011520999991955022306004+67283+014417FM-12+001399999V0201501N00411002101CN0030001N9-00281-00391101591ADDAA199004091AY171999GA1091+002109999GF109991091999001501999999KA1999N-00281MD1310091+9999MW1731
0073011520999991955022309004+67283+014417FM-12+001399999V0201001N00461000601CN0015001N9-00281-00391101701ADDAY171999GA1091+000609999GF109991091999000751999999MD1210111+9999MW1731
0089011520999991955022312004+67283+014417FM-12+001399999V0201001N00411007501CN0150001N9-00281-00391101791ADDAY181999GA1021+002409079GA2061+007509099GF107991071081008001999999MD1110091+9999MW1151
0089011520999991955022315004+67283+014417FM-12+001399999V0201001N00461003001CN0150001N9-00221-00281101801ADDAY121999GA1051+003009059GA2031+006909059GF107991071051004501999999MD1210011+9999MW1151
0100011520999991955022318004+67283+014417FM-12+001399999V0201001N00511004501CN0100001N9-00281-00391101801ADDAA199006091AY171999GF107991071051004501999999KA1999M-00221MD1410001+9999MW1701EQDQ01+000022APCTEN
0057011520999991955022400004+67283+014417FM-12+001399999V0201001N00511007801CN0150001N9-00111-00221101721ADDAY171999GF108991081071008001999999MD1710041+9999MW1701
0057011520999991955022403004+67283+014417FM-12+001399999V0201001N00621007801CN0150001N9-00111-00221101601ADDAY171999GF108991081071008001999999MD1710121+9999MW1151
0097011520999991955022406004+67283+014417FM-12+001399999V0201201N00571009901CN0200001N9-00111-00221101471ADDAA199001091AY171999GA1061+009909059GF107991061051008001999999KA1999N-00281MD1710131+9999MW1151
0089011520999991955022409004+67283+014417FM-12+001399999V0201601N00621220001CN0550001N9+00111-00391101401ADDAY121999GA1031+008409059GA2041+009009059GF107991061051008001061999MD1710071+9999MW1151
0089011520999991955022412004+67283+014417FM-12+001399999V0201801N00311220001CN0300001N9+00111-00281101341ADDAY121999GA1041+004509059GA2041+009009059GF108991071051008001061999MD1710061+9999MW1151
0089011520999991955022415004+67283+014417FM-12+001399999V0201901N00931007501CN0300001N9+00111-00221101231ADDAY171999GA1051+007509059GA2031+003609059GF107991071051008001061999MD1710111+9999MW1151
0081011520999991955022418004+67283+014417FM-12+001399999V0201101N00621004501CN0250001N9+00001+00001101221ADDAA199000691AY171999GF108991071091004501999999KA1999M+00221MD1710011+9999MW1151
0057011520999991955022500004+67283+014417FM-12+001399999V0202401N009819999999N0120001N9+00221+00001101131ADDAY181999GF106991041051004501021001MD1710051+9999MW1251
0057011520999991955022503004+67283+014417FM-12+001399999V0202201N00931004501CN0150001N9+00281+00111101031ADDAY121999GF107991051051004501011001MD1710101+9999MW1021
0097011520999991955022506004+67283+014417FM-12+001399999V0202301N01081005101CN0080001N9+00111+00001100891ADDAA199005091AY181999GA1061+005109059GF108991061051004501021999KA1999N+00001MD1710141+9999MW1801
0089011520999991955022509004+67283+014417FM-12+001399999V0203601N00411024001CN0200001N9+00111+00001101041ADDAY181999GA1031+003009099GA2051+024009049GF107991031091002501021999MD1210151+9999MW1151
0089011520999991955022512004+67283+014417FM-12+001399999V0203501N00311220001CN0200001N9+00111-00221101071ADDAY121999GA1031+003009079GA2041+008109059GF107991031061002501021001MD1210031+9999MW1151
0073011520999991955022515004+67283+014417FM-12+001399999V0203601N00361009001CN0300001N9+00111-00281101121ADDAY121999GA1061+009009059GF107991061051008001021001MD1210051+9999MW1021
0081011520999991955022518004+67283+014417FM-12+001399999V0203601N00261007801CN0300001N9-00111-00611101151ADDAA199003091AY121999GF106991051051008001041001KA1999M+00221MD1210031+9999MW1021
0057011520999991955022600004+67283+014417FM-12+001399999V0200601N00151007801CN0200001N9-00221-00281101261ADDAY121999GF107991061051008001999999MD1210051+9999MW1151
0057011520999991955022603004+67283+014417FM-12+001399999V0200901N00151007801CN0500001N9-00611-00721101301ADDAY121999GF106991051051008001041999MD1210041+9999MW1021
0097011520999991955022606004+67283+014417FM-12+001399999V0201001N00261007801CN0400001N9-00391-00501101351ADDAA199000591AY121999GA1061+007809059GF107991061051008001041999KA1999N-00721MD1210051+9999MW1021
0089011520999991955022609004+67283+014417FM-12+001399999V0203301N00411008401CN0400001N9-00221-00501101441ADDAY121999GA1051+008409089GA2011+003009079GF106991051021008001041041MD1210091+9999MW1151
0089011520999991955022612004+67283+014417FM-12+001399999V0203601N00101220001CN0200001N9-00221-00281101511ADDAY181999GA1021+005409099GA2021+008409089GF106991041091008001061021MD1210071+9999MW1151
0089011520999991955022615004+67283+014417FM-12+001399999V0203101N00411220001CN0250001N9-00111-00501101571ADDAY121999GA1021+005109099GA2041+008109089GF106991021091008001061021MD1210061+9999MW1151
0081011520999991955022618004+67283+014417FM-12+001399999V0202501N002619999999N0200001N9-00221-00281101641ADDAA199000391AY121999GF106991031091008001061999KA1999M-00111MD1210071+9999MW1151
0057011520999991955022700004+67283+014417FM-12+001399999V0203201N006219999999N0180001N9+00001-00221101731ADDAY181999GF106991041091008001061001MD1210051+9999MW1261
0057011520999991955022703004+67283+014417FM-12+001399999V0202901N005119999999N0200001N9+00001-00281101751ADDAY181999GF108991031091008001061999MD1210021+9999MW1261
0113011520999991955022706004+67283+014417FM-12+001399999V0202801N00621220001CN0180001N9+00001-00221101761ADDAA199001091AY121999GA1041+007509089GA2031+008409059GF108991051081008001071999KA1999N-00501MD1210011+9999MW1151
0073011520999991955022709004+67283+014417FM-12+001399999V0202401N00671001201CN0020001N9+00001-00111101791ADDAY181999GA1091+001209999GF109991091999000251999999MD1210031+9999MW1861
0089011520999991955022712004+67283+014417FM-12+001399999V0202401N00821006001CN0150001N9+00111+00001101781ADDAY181999GA1061+006009079GA2011+006909089GF108991061061008001999999MD1810011+9999MW1151
0073011520999991955022715004+67283+014417FM-12+001399999V0202301N00931005401CN0180001N9+00111+00001101651ADDAY181999GA1061+005409059GF108991061051004501061999MD1710131+9999MW1151
0100011520999991955022718004+67283+014417FM-12+001399999V0202401N00871004501CN0060001N9+00221+00111101611ADDAA199009091AY181999GF108991999071004501021999KA1999M+00221MD1710041+9999MW1831EQDQ01+000082SCOTLC
0057011520999991955022800004+67283+014417FM-12+001399999V0202401N01291004501CN0100001N9+00221+00111101741ADDAY181999GF108991051071004501021999MD1210121+9999MW1151
0057011520999991955022803004+67283+014417FM-12+001399999V0202301N010319999999N0120001N9+00281+00221101801ADDAY121999GF108991031071004501021999MD1210061+9999MW1151
0113011520999991955022806004+67283+014417FM-12+001399999V0202401N01131220001CN0120001N9+00221+00111101881ADDAA199002091AY181999GA1031+004509099GA2021+006009099GF107991051091004501071999KA1999N+00111MD1210081+9999MW1271
0073011520999991955022809004+67283+014417FM-12+001399999V0202301N00671220001CN0200001N9+00281+00001101951ADDAY121999GA1031+008109089GF104991031021008001041011MD1210071+9999MW1011
0073011520999991955022812004+67283+014417FM-12+001399999V0202301N00571004501CN0150001N9+00221+00001102011ADDAY181999GA1061+004509099GF108991061091004501061999MD1210061+9999MW1151
0073011520999991955022815004+67283+014417FM-12+001399999V0201001N00511009001CN0300001N9+00221+00111101971ADDAY181999GA1051+009009059GF107991051051008001071999MD1710041+9999MW1151
0081011520999991955022818004+67283+014417FM-12+001399999V0201101N002119999999N0500001N9+00111-00111101761ADDAA199000391AY181999GF107991021051012501021071KA1999M+00281MD1710211+9999MW1021
0057011520999991955030100004+67283+014417FM-12+001399999V0201401N00621007801CN0300001N9+00221-00391101481ADDAY121999GF108991081001008001021999MD1710091+9999MW1151
0057011520999991955030103004+67283+014417FM-12+001399999V0201501N00721007801CN0250001N9+00221-00221101351ADDAY121999GF108991071051008001021999MD1710131+9999MW1151
0132011520999991955030106004+67283+014417FM-12+001399999V0201601N00771005101CN0080001N9+00221+00001101251ADDAA199000691AY171999GA1021+003009079GA2061+005109049GF108991081999004501021999KA1999N+00001MD1710101+9999MW1681EQDQ01+000002SCOLCG
0073011520999991955030109004+67283+014417FM-12+001399999V0201801N00821007501CN0150001N9+00281+00221101301ADDAY181999GA1061+007509059GF107991061051008001021081MD1310051+9999MW1151
0073011520999991955030112004+67283+014417FM-12+001399999V0201001N00771007201CN0200001N9+00221+00111101511ADDAY161999GA1051+007209059GF107991051051008001021999MD1210211+9999MW1151
0073011520999991955030115004+67283+014417FM-12+001399999V0201001N00511007501CN0200001N9+00281+00111101611ADDAY121999GA1061+007509059GF107991061051008001041999MD1210101+9999MW1151
0113011520999991955030118004+67283+014417FM-12+001399999V0200901N00411220001CN0250001N9+00281+00111101601ADDAA199000691AY161999GA1041+007509059GA2041+012009059GF108991041051008001041999KA1999M+00391MD1810011+9999MW1211
0057011520999991955030200004+67283+014417FM-12+001399999V0201501N00931007801CN0250001N9+00391+00001101131ADDAY121999GF108991071051008001021999MD1710231+9999MW1151
0057011520999991955030203004+67283+014417FM-12+001399999V0201601N00511007801CN0250001N9+00391+00111100921ADDAY121999GF108991071051008001021999MD1710211+9999MW1151
0113011520999991955030206004+67283+014417FM-12+001399999V0201601N00821007501CN0250001N9+00281+00111100741ADDAA199000691AY161999GA1051+007509059GA2021+012009049GF108991051051008001021999KA1999N+00281MD1710181+9999MW1581
0089011520999991955030209004+67283+014417FM-12+001399999V0201901N00931006601CN0130001N9+00281+00221100701ADDAY161999GA1021+004509079GA2061+006609059GF108991061051008001021999MD1510041+9999MW1601
0089011520999991955030212004+67283+014417FM-12+001399999V0202301N01031006901CN0130001N9+00221+00221100891ADDAY161999GA1021+004509079GA2061+006909059GF107991061051008001021999MD1210191+9999MW1601
0073011520999991955030215004+67283+014417FM-12+001399999V0202301N01081006001CN0180001N9+00281+00111101071ADDAY181999GA1051+006009099GF107991051091004501021021MD1210181+9999MW1151
0081011520999991955030218004+67283+014417FM-12+001399999V0202401N00821004501CN0180001N9+00281+00111101181ADDAA199004091AY181999GF107991071091004501021001KA1999M+00391MD1210171+9999MW1151
0057011520999991955030300004+67283+014417FM-12+001399999V0202601N00871220001CN0200001N9+00281+00221101361ADDAY121999GF104991021011008001041081MD1210081+9999MW1021
0057011520999991955030303004+67283+014417FM-12+001399999V0202301N00721004501CN0080001N9+00281+00281101361ADDAY161999GF108991081091004501999999MD1410001+9999MW1621
0097011520999991955030306004+67283+014417FM-12+001399999V0202201N00671004201CN0080001N9+00391+00281101231ADDAA199008091AY161999GA1071+004209059GF108991071051004501021999KA1999N+00221MD1710131+9999MW1631
0089011520999991955030309004+67283+014417FM-12+001399999V0202401N01231004501CN0060001N9+00501+00281101201ADDAY161999GA1061+004509059GA2041+002709079GF108991071061004501021999MD1210031+9999MW1631
0073011520999991955030312004+67283+014417FM-12+001399999V0202301N01231004501CN0140001N9+00501+00391101231ADDAY161999GA1061+004509059GF108991071051004501021999MD1210031+9999MW1631
0089011520999991955030315004+67283+014417FM-12+001399999V0202301N01181005101CN0100001N9+00501+00391101191ADDAY161999GA1031+002709079GA2071+005109059GF108991071051004501021999MD1710041+9999MW1611
0081011520999991955030318004+67283+014417FM-12+001399999V0202301N01031004501CN0080001N9+00501+00391101111ADDAA199015091AY161999GF108991061051004501021999KA1999M+00611MD1710081+9999MW1611
0057011520999991955030400004+67283+014417FM-12+001399999V0202101N00621007801CN0200001N9+00391+00281100911ADDAY161999GF108991061071008001021999MD1710121+9999MW1601
0057011520999991955030403004+67283+014417FM-12+001399999V0202001N00671007801CN0250001N9+00391+00221100741ADDAY161999GF108991051051008001021999MD1710171+9999MW1151
0113011520999991955030406004+67283+014417FM-12+001399999V0201201N00211007501CN0220001N9+00281+00001100671ADDAA199002091AY161999GA1031+005409059GA2051+007509059GF108991061051008001071999KA1999N+00281MD1710071+9999MW1151
0089011520999991955030409004+67283+014417FM-12+001399999V0201901N00361005101CN0200001N9+00281+00221100661ADDAY161999GA1031+003009079GA2051+005109049GF108991031061004501021999MD1710011+9999MW1601
0089011520999991955030412004+67283+014417FM-12+001399999V0201101N00151003601CN0100001N9+00221+00111100691ADDAY161999GA1031+002409079GA2081+003609049GF108991081061004501999999MD1210031+9999MW1601
0089011520999991955030415004+67283+014417FM-12+001399999V0202001N00361220001CN0120001N9+00111+00001100731ADDAY161999GA1031+001809079GA2041+003309079GF108991081061004501999999MD1210041+9999MW1601
0081011520999991955030418004+67283+014417FM-12+001399999V0201201N003119999999N0200001N9+00111+00001100871ADDAA199002091AY161999GF108991041061004501021999KA1999M+00281MD1210141+9999MW1101
0057011520999991955030500004+67283+014417FM-12+001399999V0201201N00411007801CN0300001N9+00111+00001101381ADDAY161999GF107991071051008001999999MD1210261+9999MW1021
0057011520999991955030503004+67283+014417FM-12+001399999V0201101N00311220001CN0500001N9+00001-00111101631ADDAY121999GF102991021051008001999999MD1310251+9999MW1011
0113011520999991955030506004+67283+014417FM-12+001399999V0201101N00411010501CN0400001N9+00111+00001101791ADDAA199000391AY121999GA1021+006009059GA2051+010509059GF107991061051008001061999KA1999N+00001MD1310161+9999MW1031
0089011520999991955030509004+67283+014417FM-12+001399999V0201101N00461010501CN0450001N9+00111-00111102081ADDAY121999GA1021+007509059GA2051+010509059GF106991061051008001061001MD1210291+9999MW1011
0089011520999991955030512004+67283+014417FM-12+001399999V0200901N00261220001CN0250001N9+00111-00111102271ADDAY181999GA1041+006909059GA2041+010509059GF107991061051008001071999MD1210191+9999MW1261
0089011520999991955030515004+67283+014417FM-12+001399999V0201001N00311007501CN0150001N9+00111+00001102411ADDAY181999GA1031+003909059GA2061+007509059GF107991061051008001071999MD1210141+9999MW1851
0081011520999991955030518004+67283+014417FM-12+001399999V0201101N00211007801CN0150001N9+00001-00111102521ADDAA199001091AY181999GF107991071051008001999999KA1999M+00111MD1210111+9999MW1151
0057011520999991955030600004+67283+014417FM-12+001399999V0202101N00621007801CN0450001N9+00221+00111102381ADDAY121999GF108991071051008001999999MD1710071+9999MW1021
0057011520999991955030603004+67283+014417FM-12+001399999V0202401N00931004501CN0250001N9+00221+00111102181ADDAY121999GF108991061051004501021999MD1710201+9999MW1151
0097011520999991955030606004+67283+014417FM-12+001399999V0202401N01441004501CN0180001N9+00281+00221101811ADDAA199000591AY181999GA1071+004509059GF108991071051004501071999KA1999N+00001MD1710371+9999MW1251
0089011520999991955030609004+67283+014417FM-12+001399999V0202401N01541220001CN0100001N9+00221+00111101511ADDAY181999GA1041+003609079GA2041+006009059GF108991041061004501021999MD1710301+9999MW1631
0089011520999991955030612004+67283+014417FM-12+001399999V0202401N01441006001CN0100001N9+00281+00221101181ADDAY161999GA1041+003009079GA2051+006009059GF107991041061004501021999MD1710331+9999MW1631
0089011520999991955030615004+67283+014417FM-12+001399999V0202601N01131220001CN0200001N9+00281+00221101071ADDAY161999GA1041+005109059GA2031+006009089GF107991051081004501021999MD1810111+9999MW1211
0081011520999991955030618004+67283+014417FM-12+001399999V0202901N00821004501CN0200001N9+00221+00001101141ADDAA199002091AY161999GF107991071051004501999999KA1999M+00391MD1310071+9999MW1211
0057011520999991955030700004+67283+014417FM-12+001399999V0203201N00821004501CN0200001N9+00221+00111101151ADDAY121999GF107991071051004501001001MD1210011+9999MW1151
0057011520999991955030703004+67283+014417FM-12+001399999V0203401N00931004501CN0200001N9+00221+00111101141ADDAY121999GF107991051051004501071001MD1710011+9999MW1151
0097011520999991955030706004+67283+014417FM-12+001399999V0203301N01341220001CN0200001N9+00221-00221101051ADDAA199000691AY121999GA1041+007509059GF105991041051008001041001KA1999N+00111MD1710091+9999MW1151
0089011520999991955030709004+67283+014417FM-12+001399999V0203501N01031220001CN0250001N9+00221-00111101091ADDAY181999GA1031+006609099GA2031+007509089GF107991031091008001041001MD1710041+9999MW1261
0089011520999991955030712004+67283+014417FM-12+001399999V0203401N00871220001CN0200001N9+00221+00111101101ADDAY121999GA1011+005109089GA2031+006009089GF107991061081008001061001MD1210011+9999MW1151
0073011520999991955030715004+67283+014417FM-12+001399999V0203401N00821006001CN0300001N9+00221+00111101061ADDAY121999GA1051+006009089GF105991051031008001001001MD1710041+9999MW1151
0097011520999991955030718004+67283+014417FM-12+001399999V0203601N00771006001CN0300001N9+00281+00001101061ADDAA199000691AY181999GA1051+006009089GF105991051081008001001001KA1999M+00281MD1410001+9999MW1151
0073011520999991955030800004+67283+014417FM-12+001399999V0200201N00411006001CN0200001N9+00281+00221101231ADDAY121999GA1061+006009089GF106991061021008001001001MD1210081+9999MW1021
0057011520999991955030803004+67283+014417FM-12+001399999V0200101N00461220001CN0200001N9+00221+00111101231ADDAY121999GF104991041081008001001001MD1410001+9999MW1021
0102011520999991955030806004+67283+014417FM-12+001399999V0200201N00261220001CN0250001N9+00221+00001101241ADDAY121999GA1021+007509089GA2041+013509059GF105991051081008001061001KA1999N+00221MD1210011+9999MW1021
0073011520999991955030809004+67283+014417FM-12+001399999V0200201N00511220001CN0400001N9+00221-00111101251ADDAY101999GA1021+006909089GF103991031081008001001001MD1210011+9999MW1011
0073011520999991955030812004+67283+014417FM-12+001399999V0200801N00621220001CN0500001N9+00111+00001101281ADDAY101999GA1011+006309089GF103991031081008001071021MD1210031+9999MW1031
0089011520999991955030815004+67283+014417FM-12+001399999V0200901N00871220001CN0400001N9-00111-00501101331ADDAY121999GA1021+009009059GA2021+015009039GF104991021051008001011001MD1210051+9999MW1011
0070011520999991955030818004+67283+014417FM-12+001399999V0200901N00931220001CN0500001N9-00501-00891101371ADDAY101999GF102991021051012501001001KA1999M+00281MD1210041+9999MW1021
0057011520999991955030900004+67283+014417FM-12+001399999V0200801N01031220001CN0500001N9-00721-01221101331ADDAY101999GF101991011051012501001001MD1710041+9999MW1011
0076011520999991955030903004+67283+014417FM-12+001399999V0200801N01081220001CN0500001N9-00891-01281101241ADDAY101999GF101991999001999999041001MD1810091+9999MW1021EQDQ01+000002SCOTLC
0086011520999991955030906004+67283+014417FM-12+001399999V0200801N01031220001CN0500001N9-00891-01281101101ADDAY101999GA1011+012009059GF103991011051012501021021KA1999N-00891MD1710141+9999MW1031
0073011520999991955030909004+67283+014417FM-12+001399999V0200901N01181220001CN0350001N9-00781-01281101101ADDAY121999GA1041+010509059GF107991041051012501071021MD1410001+9999MW1151
0073011520999991955030912004+67283+014417FM-12+001399999V0200901N01031010201CN0300001N9-00781-01221101011ADDAY121999GA1051+010209059GF107991051051012501041021MD1710091+9999MW1151
0073011520999991955030915004+67283+014417FM-12+001399999V0200901N01231009001CN0300001N9-00781-01221100901ADDAY121999GA1071+009009059GF107991071051012501031001MD1710111+9999MW1151
0089011520999991955030918004+67283+014417FM-12+001399999V0200901N00931012301CN0100001N9-00781-01111100901ADDAY121999GF108991999051012501001001KA1999M-00781MD1410001+9999MW1151EQDQ01+000072SCOTLC
0057011520999991955031000004+67283+014417FM-12+001399999V0201001N00931007801CN0070001N9-00781-00891101131ADDAY171999GF108991081001008001021999MD1210211+9999MW1701
0057011520999991955031003004+67283+014417FM-12+001399999V0201001N00571002401CN0050001N9-00721-00781101261ADDAY171999GF109991091999002501999999MD1210131+9999MW1701
0097011520999991955031006004+67283+014417FM-12+001399999V0200901N00621002401CN0009001N9-00611-00611101371ADDAA199003091AY171999GA1091+002409999GF109991091999002501999999KA1999N-00781MD1210111+9999MW1731
0089011520999991955031009004+67283+014417FM-12+001399999V0200901N00361002701CN0080001N9-00501-00611101651ADDAY171999GA1051+002709059GA2031+003009089GF107991071081002501999999MD1210281+9999MW1851
0073011520999991955031012004+67283+014417FM-12+001399999V0201001N00411003001CN0100001N9-00281-00391101841ADDAY171999GA1051+003009059GF107991051081002501041999MD1210191+9999MW1151
0089011520999991955031015004+67283+014417FM-12+001399999V0202001N00511220001CN0150001N9+00001-00111101881ADDAY181999GA1021+003609079GA2031+005409089GF107991031081002501061999MD1210041+9999MW1261
0113011520999991955031018004+67283+014417FM-12+001399999V0201301N00571010501CN0250001N9-00111-00221101841ADDAA199004091AY181999GA1031+009009059GA2051+010509049GF108991031051008001021999KA1999M+00111MD1810041+9999MW1701
0057011520999991955031100004+67283+014417FM-12+001399999V0201501N00411001501CN0030001N9+00111+00001101271ADDAY171999GF109991091999001501999999MD1710281+9999MW1721
0057011520999991955031103004+67283+014417FM-12+001399999V0201601N00411002401CN0040001N9+00111+00001101001ADDAY171999GF109991091999002501999999MD1710271+9999MW1691
0097011520999991955031106004+67283+014417FM-12+001399999V0202101N01231003901CN0040001N9+00391+00281100821ADDAA199012091AY161999GA1071+003909079GF108991071071004501021999KA1999N-00111MD1710181+9999MW1631
0073011520999991955031109004+67283+014417FM-12+001399999V0202301N01231004201CN0080001N9+00501+00391100701ADDAY161999GA1061+004209079GF108991061061004501021999MD1710121+9999MW1631
0073011520999991955031112004+67283+014417FM-12+001399999V0202301N01541003001CN0020001N9+00611+00501100731ADDAY161999GA1081+003009079GF108991081061002501999999MD1310031+9999MW1651
0073011520999991955031115004+67283+014417FM-12+001399999V0202601N01231003001CN0100001N9+00501+00391100991ADDAY161999GA1081+003009079GF108991081061002501999999MD1210261+9999MW1631
0081011520999991955031118004+67283+014417FM-12+001399999V0202601N00931002401CN0200001N9+00391+00221101221ADDAA199016091AY181999GF108991081081002501999999KA1999M+00611MD1210231+9999MW1271
0057011520999991955031200004+67283+014417FM-12+001399999V0202601N01541004501CN0120001N9+00281+00111101361ADDAY181999GF107991071091004501999999MD1710051+9999MW1151
0057011520999991955031203004+67283+014417FM-12+001399999V0203101N01291007801CN0150001N9+00221+00111101521ADDAY121999GF106991061091008001001001MD1210161+9999MW1151
0097011520999991955031206004+67283+014417FM-12+001399999V0202701N00931220001CN0130001N9+00221-00111101611ADDAA199001091AY181999GA1041+006609099GF108991041091008001061999KA1999N+00111MD1210091+9999MW1151
0089011520999991955031209004+67283+014417FM-12+001399999V0202601N00931220001CN0100001N9+00281-00221101701ADDAY181999GA1021+003609079GA2041+006009089GF108991041091008001061999MD1210091+9999MW1261
0089011520999991955031212004+67283+014417FM-12+001399999V0202401N00721220001CN0100001N9+00221+00001101751ADDAY181999GA1021+003609079GA2031+006009089GF107991051091008001061999MD1210051+9999MW1261
0089011520999991955031215004+67283+014417FM-12+001399999V0202701N00411220001CN0150001N9+00221+00111101571ADDAY181999GA1011+003909079GA2041+006909059GF108991061071008001071999MD1810181+9999MW1261
0081011520999991955031218004+67283+014417FM-12+001399999V0201901N00361004501CN0045001N9+00111+00001101171ADDAA199000591AY171999GF108991071071004501021999KA1999M+00281MD1710401+9999MW1681
0076011520999991955031300004+67283+014417FM-12+001399999V0200901N00931001501CN0080001N9+00001-00111099792ADDAY171999GF109991091999001501999999MD1710081+9999MW1681EQDQ01+099793APOSLP
0057011520999991955031303004+67283+014417FM-12+001399999V0203401N00931002401CN0060001N9+00111+00001099871ADDAY161999GF108991051061002501021999MD1310081+9999MW1211
0113011520999991955031306004+67283+014417FM-12+001399999V0202601N00461220001CN0120001N9+00111+00001099951ADDAA199009091AY161999GA1031+002109079GA2031+005109089GF108991041061002501071999KA1999N+00001MD1110081+9999MW1151
0089011520999991955031309004+67283+014417FM-12+001399999V0201801N00311002101CN0150001N9+00111+00001099791ADDAY121999GA1051+002109079GA2021+006009089GF107991061061002501071999MD1710161+9999MW1151
0073011520999991955031312004+67283+014417FM-12+001399999V0202001N00101000901CN0006001N9+00001-00111099851ADDAY171999GA1091+000909999GF109991091999000751999999MD1210061+9999MW1751
0108011520999991955031315004+67283+014417FM-12+001399999V0209991C00001003601CN0045001N9+00001-00111099951ADDAY171999GA1041+001209079GA2081+003609079GF108991999061002501021999MD1210101+9999MW1701EQDQ01+000082SCOTLC
0113011520999991955031318004+67283+014417FM-12+001399999V0203401N00931006001CN0150001N9+00111-00221100151ADDAA199016091AY181999GA1021+002709079GA2051+006009089GF107991051081008001061999KA1999M+00721MD1210201+9999MW1261
0057011520999991955031400004+67283+014417FM-12+001399999V0203001N01031002401CN0060001N9-00221-00391100271ADDAY181999GF108991081091002501999999MD1210061+9999MW1851
0057011520999991955031403004+67283+014417FM-12+001399999V0203201N00821007801CN0100001N9-00221-00501100291ADDAY181999GF106991051091008001061001MD1210021+9999MW1151
0097011520999991955031406004+67283+014417FM-12+001399999V0203001N00771220001CN0150001N9-00221-00501100281ADDAA199000391AY181999GA1031+006009099GF105991031091008001061001KA1999N-00281MD1710011+9999MW1151
0073011520999991955031409004+67283+014417FM-12+001399999V0202901N00771220001CN0150001N9-00111-00221100291ADDAY181999GA1041+006009099GF107991041091008001061071MD1210011+9999MW1261
0073011520999991955031412004+67283+014417FM-12+001399999V0203101N00871006301CN0150001N9-00111-00221100301ADDAY181999GA1051+006309099GF107991051091008001061999MD1210011+9999MW1261
0073011520999991955031415004+67283+014417FM-12+001399999V0202901N00931007501CN0250001N9-00111-00391100291ADDAY181999GA1051+007509059GF108991071081008001999999MD1710011+9999MW1151
0100011520999991955031418004+67283+014417FM-12+001399999V0202601N00721007801CN0040001N9-00111-00221100061ADDAA199002091AY181999GF108991999061008001021999KA1999M-00111MD1810231+9999MW1711EQDQ01+000082SCOTLC
0092011520999991955031500004+67283+014417FM-12+001399999V0200901N00931001501CN0080001N9-00221-00221098852ADDAY181999GF109991091999001501999999MD1810602+9999MW1731EQDQ01+098853APOSLPQ02+000602APC3  
0057011520999991955031503004+67283+014417FM-12+001399999V0200901N00621007801CN0150001N9+00001-00111098311ADDAY181999GF108991051091008001999999MD1810541+9999MW1151
0097011520999991955031506004+67283+014417FM-12+001399999V0201001N00621001501CN0009001N9+00111+00001097821ADDAA199010091AY181999GA1091+001509999GF109991091999001501999999KA1999N-00221MD1810491+9999MW1691
0073011520999991955031509004+67283+014417FM-12+001399999V0201001N00361001501CN0010001N9+00001-00111097601ADDAY171999GA1091+001509999GF109991091999001501999999MD1510221+9999MW1731
0089011520999991955031512004+67283+014417FM-12+001399999V0202701N00311220001CN0300001N9+00111+00001097801ADDAY171999GA1041+003009079GA2031+006009089GF107991041061004501071999MD1210201+9999MW1151
0073011520999991955031515004+67283+014417FM-12+001399999V0202801N00621006001CN0300001N9+00221-00111097811ADDAY121999GA1051+006009089GF106991051021004501071021MD1210011+9999MW1151
0100011520999991955031518004+67283+014417FM-12+001399999V0202501N00871004501CN0200001N9+00221+00001097811ADDAA199009091AY121999GF107991071021004501999999KA1999M+00221MD1410001+9999MW1151EQDQ01+000022APCTEN
0057011520999991955031600004+67283+014417FM-12+001399999V0203401N003119999999N0200001N9-00111-00221098371ADDAY171999GF105991041021004501999999MD1210281+9999MW1151
0057011520999991955031603004+67283+014417FM-12+001399999V0203401N00211001501CN0100001N9-00221-00391098461ADDAY171999GF109991091999001501999999MD1210191+9999MW1851
0097011520999991955031606004+67283+014417FM-12+001399999V0203401N00571005101CN0200001N9-00281-00611098581ADDAA199001091AY121999GA1051+005109059GF107991071051004501041999KA1999N-00281MD1210161+9999MW1021
0089011520999991955031609004+67283+014417FM-12+001399999V0200901N00931220001CN0500001N9-00391-00781098781ADDAY121999GA1011+005109079GA2041+009009059GF106991041081008001061021MD1210201+9999MW1021
0089011520999991955031612004+67283+014417FM-12+001399999V0200901N01031030001CN0550001N9-00391-01001099031ADDAY121999GA1021+012009059GA2051+030009039GF107991021081012501061021MD1210251+9999MW1021
0089011520999991955031615004+67283+014417FM-12+001399999V0200901N00981220001CN0550001N9-00391-01111099331ADDAY121999GA1011+010509089GA2041+013509039GF105991011081012501041021MD1210301+9999MW1011
0070011520999991955031618004+67283+014417FM-12+001399999V0200801N00981012301CN0550001N9-00501-01221099691ADDAY121999GF107991051051012501021999KA1999M-00281MD1210361+9999MW1031
0057011520999991955031700004+67283+014417FM-12+001399999V0200601N00621220001CN0500001N9-00781-01501100491ADDAY101999GF100991001001999999001001MD1210401+9999MW1021
0057011520999991955031703004+67283+014417FM-12+001399999V0200901N00411220001CN0500001N9-01111-01781100711ADDAY101999GF100991001001999999001001MD1210221+9999MW1021
0086011520999991955031706004+67283+014417FM-12+001399999V0200801N00511220001CN0500001N9-01111-01781100921ADDAY101999GA1011+015009089GF101991011011012501041001KA1999N-01221MD1310211+9999MW1021
0073011520999991955031709004+67283+014417FM-12+001399999V0200801N00361220001CN0700001N9-00781-01391101021ADDAY101999GA1011+013509089GF101991011011012501041001MD1210101+9999MW1021
0073011520999991955031712004+67283+014417FM-12+001399999V0201801N00261220001CN0700001N9-00391-01111101071ADDAY101999GA1011+012009089GF101991011011012501041021MD1210051+9999MW1021
0073011520999991955031715004+67283+014417FM-12+001399999V0201901N00311220001CN0700001N9-00501-01111100981ADDAY111999GA1011+007209089GF105991021081008001041021MD1710091+9999MW1021
0070011520999991955031718004+67283+014417FM-12+001399999V0200901N00411007801CN0550001N9-00781-01281100951ADDAY121999GF107991051081008001041021KA1999M-00391MD1710031+9999MW1031
0057011520999991955031800004+67283+014417FM-12+001399999V0201001N00461220001CN0500001N9-01001-01391100891ADDAY101999GF100991001001999999001001MD1710041+9999MW1021
0057011520999991955031803004+67283+014417FM-12+001399999V0201001N00461220001CN0500001N9-01001-01111100841ADDAY101999GF101991011051012501041001MD1710031+9999MW1031
0086011520999991955031806004+67283+014417FM-12+001399999V0200901N00511220001CN0600001N9-01001-01111100801ADDAY101999GA1011+006009059GF102991021081008001041001KA1999N-01111MD1710041+9999MW1031
0073011520999991955031809004+67283+014417FM-12+001399999V0200901N00511220001CN0700001N9-00891-01501100801ADDAY101999GA1011+007509089GF101991011021008001041011MD1510001+9999MW1021
0089011520999991955031812004+67283+014417FM-12+001399999V0201001N00461039001CN0700001N9-00721-01001100871ADDAY121999GA1011+009009089GA2051+039009049GF107991011021008001041011MD1210071+9999MW1021
0089011520999991955031815004+67283+014417FM-12+001399999V0200901N00361060001CN0700001N9-00611-01001100921ADDAY121999GA1011+009009089GA2061+060009029GF107991011011008001041071MD1210051+9999MW1021
0070011520999991955031818004+67283+014417FM-12+001399999V0200801N004119999999N0600001N9-00891-01281100941ADDAY121999GF107991021011008001041011KA1999M-00611MD1210021+9999MW1021
0057011520999991955031900004+67283+014417FM-12+001399999V0201001N00261220001CN0700001N9-01001-01221101001ADDAY101999GF100991001001999999001001MD1210051+9999MW1021
0057011520999991955031903004+67283+014417FM-12+001399999V0200901N00511220001CN0700001N9-00891-01111100981ADDAY101999GF100991001001999999001001MD1810021+9999MW1021
0102011520999991955031906004+67283+014417FM-12+001399999V0201001N00621220001CN0700001N9-01001-01111100961ADDAY101999GA1011+007509089GA2031+030009039GF103991011021008001041011KA1999N-01111MD1710021+9999MW1031
0073011520999991955031909004+67283+014417FM-12+001399999V0200901N00511220001CN0700001N9-00781-01001100951ADDAY101999GA1011+008109089GF101991011011008001001021MD1710011+9999MW1021
0073011520999991955031912004+67283+014417FM-12+001399999V0201001N00511220001CN0700001N9-00611-01001100931ADDAY101999GA1011+008409089GF102991011021008001001021MD1710021+9999MW1021
0073011520999991955031915004+67283+014417FM-12+001399999V0200901N00411220001CN0700001N9-00501-00891100891ADDAY101999GA1011+006009089GF102991011021008001001011MD1710041+9999MW1031
0086011520999991955031918004+67283+014417FM-12+001399999V0200901N00511220001CN0700001N9-00721-01111100851ADDAY101999GA1011+006009059GF101991011041008001001001KA1999M-00501MD1710041+9999MW1021
0057011520999991955032000004+67283+014417FM-12+001399999V0200901N00721220001CN0700001N9-01001-01281100901ADDAY101999GF102991021051008001001001MD1310031+9999MW1021
