0067011990999991953010106004+68750+023550FM-12+038299999V0200901N002619999999N0002001N9-01781+99999999999ADDAA199003091AY171999GF108991999999999999999999KA1999N-02781MW1711
0043011990999991953010112004+68750+023550FM-12+038299999V0201801N00261220001CN0010001N9-01721+99999999999ADDAY101999GF104991999999999999999999MW1771
0054011990999991953010118004+68750+023550FM-12+038299999V0200801N00101220001CN0005001N9-02111+99999999999ADDAA199000691AY101999GF103991999999999999999999MW1001
0056011990999991953010206004+68750+023550FM-12+038299999V0201801N002619999999N0002001N9-01781+99999999999ADDAY101999GF107991999999999999999999KA1999N-02391MW1001
0043011990999991953010212004+68750+023550FM-12+038299999V0201801N002619999999N0005001N9-01721+99999999999ADDAY171999GF106991999999999999999999MW1001
0054011990999991953010218004+68750+023550FM-12+038299999V0203401N00101220001CN0002001N9-01891+99999999999ADDAA199000391AY101999GF103991999999999999999999MW1001
0067011990999991953010306004+68750+023550FM-12+038299999V0202001N002619999999N0005001N9-01111+99999999999ADDAA199003091AY171999GF107991999999999999999999KA1999N-02501MW1001
0043011990999991953010312004+68750+023550FM-12+038299999V0202701N001019999999N0040001N9-00721+99999999999ADDAY101999GF106991999999999999999999MW1001
0043011990999991953010318004+68750+023550FM-12+038299999V0202401N00101220001CN0002001N9-00721+99999999999ADDAY101999GF102991999999999999999999MW1001
0067011990999991953010406004+68750+023550FM-12+038299999V0200301N001019999999N0002001N9-00391+99999999999ADDAA199002091AY171999GF108991999999999999999999KA1999N-00721MW1731
0043011990999991953010412004+68750+023550FM-12+038299999V0201801N002619999999N0005001N9-00391+99999999999ADDAY171999GF108991999999999999999999MW1731
0054011990999991953010418004+68750+023550FM-12+038299999V0201801N002619999999N0000001N9-00391+99999999999ADDAA199002091AY171999GF108991999999999999999999MW1711
0056011990999991953010506004+68750+023550FM-12+038299999V0201701N004619999999N0005001N9-00611+99999999999ADDAY131999GF107991999999999999999999KA1999N-01001MW1001
0043011990999991953010512004+68750+023550FM-12+038299999V0202001N001019999999N0010001N9-00891+99999999999ADDAY131999GF107991999999999999999999MW1771
0054011990999991953010518004+68750+023550FM-12+038299999V0201801N002619999999N0000001N9-01001+99999999999ADDAA199000591AY171999GF108991999999999999999999MW1711
0067011990999991953010606004+68750+023550FM-12+038299999V0201901N00261220001CN0002001N9-01111+99999999999ADDAA199000591AY171999GF102991999999999999999999KA1999N-01391MW1771
0043011990999991953010612004+68750+023550FM-12+038299999V0201801N00671220001CN0005001N9-01281+99999999999ADDAY131999GF103991999999999999999999MW1361
0043011990999991953010618004+68750+023550FM-12+038299999V0202001N00101220001CN0002001N9-01221+99999999999ADDAY131999GF101991999999999999999999MW1001
0056011990999991953010706004+68750+023550FM-12+038299999V0203001N00101220001CN0005001N9-01391+99999999999ADDAY101999GF103991999999999999999999KA1999N-02501MW1001
0043011990999991953010712004+68750+023550FM-12+038299999V0200901N00101220001CN0040001N9-02111+99999999999ADDAY101999GF101991999999999999999999MW1001
0043011990999991953010718004+68750+023550FM-12+038299999V0200301N00101220001CN0000501N9-02391+99999999999ADDAY101999GF103991999999999999999999MW1001
0056011990999991953010806004+68750+023550FM-12+038299999V0201801N00461220001CN0005001N9-00891+99999999999ADDAY101999GF104991999999999999999999KA1999N-02391MW1361
0043011990999991953010812004+68750+023550FM-12+038299999V0201801N00261220001CN0020001N9-01281+99999999999ADDAY101999GF103991999999999999999999MW1361
0043011990999991953010818004+68750+023550FM-12+038299999V0201601N00261220001CN0000501N9-02001+99999999999ADDAY101999GF102991999999999999999999MW1001
0067011990999991953010906004+68750+023550FM-12+038299999V0200401N004619999999N0002001N9-01501+99999999999ADDAA199002091AY171999GF108991999999999999999999KA1999N-02221MW1731
0043011990999991953010912004+68750+023550FM-12+038299999V0203601N004619999999N0010001N9-01391+99999999999ADDAY171999GF108991999999999999999999MW1361
0054011990999991953010918004+68750+023550FM-12+038299999V0200101N00261220001CN0002001N9-01281+99999999999ADDAA199002091AY171999GF102991999999999999999999MW1001
0056011990999991953011006004+68750+023550FM-12+038299999V0200901N00101220001CN0002001N9-02281+99999999999ADDAY101999GF101991999999999999999999KA1999N-02721MW1001
0043011990999991953011012004+68750+023550FM-12+038299999V0200701N00101220001CN0020001N9-02281+99999999999ADDAY101999GF103991999999999999999999MW1001
0043011990999991953011018004+68750+023550FM-12+038299999V0202101N00461220001CN0000001N9-01281+99999999999ADDAY131999GF101991999999999999999999MW1361
0056011990999991953011106004+68750+023550FM-12+038299999V0201201N00101220001CN0002001N9-01281+99999999999ADDAY101999GF102991999999999999999999KA1999N-01721MW1001
0043011990999991953011112004+68750+023550FM-12+038299999V0202801N00261220001CN0040001N9-01281+99999999999ADDAY101999GF102991999999999999999999MW1001
0043011990999991953011118004+68750+023550FM-12+038299999V0201201N00261220001CN0002001N9-01721+99999999999ADDAY101999GF101991999999999999999999MW1001
0067011990999991953011206004+68750+023550FM-12+038299999V0201801N004619999999N0000501N9-01111+99999999999ADDAA199000391AY131999GF108991999999999999999999KA1999N-02221MW1711
0043011990999991953011212004+68750+023550FM-12+038299999V0202301N004619999999N0002001N9-00721+99999999999ADDAY131999GF105991999999999999999999MW1361
0043011990999991953011218004+68750+023550FM-12+038299999V0202401N00461220001CN0002001N9-00111+99999999999ADDAY131999GF100991999999999999999999MW1361
0056011990999991953011306004+68750+023550FM-12+038299999V0200901N00101220001CN0005001N9-01111+99999999999ADDAY131999GF104991999999999999999999KA1999N-01391MW1001
0043011990999991953011312004+68750+023550FM-12+038299999V0200901N002619999999N0040001N9-00781+99999999999ADDAY171999GF105991999999999999999999MW1001
0054011990999991953011318004+68750+023550FM-12+038299999V0200801N00101220001CN0002001N9-00891+99999999999ADDAA199001091AY101999GF102991999999999999999999MW1001
0067011990999991953011406004+68750+023550FM-12+038299999V0202001N002619999999N0000501N9-00781+99999999999ADDAA199002091AY171999GF107991999999999999999999KA1999N-01281MW1711
0043011990999991953011412004+68750+023550FM-12+038299999V0203301N001019999999N0000501N9-00891+99999999999ADDAY101999GF106991999999999999999999MW1001
0054011990999991953011418004+68750+023550FM-12+038299999V0202701N002619999999N0000501N9-01221+99999999999ADDAA199001091AY171999GF107991999999999999999999MW1711
0056011990999991953011506004+68750+023550FM-12+038299999V0200601N00101220001CN0002001N9-00891+99999999999ADDAY101999GF104991999999999999999999KA1999N-01281MW1001
0043011990999991953011512004+68750+023550FM-12+038299999V0200601N001019999999N0010001N9-00721+99999999999ADDAY101999GF106991999999999999999999MW1001
0043011990999991953011518004+68750+023550FM-12+038299999V0201201N002619999999N0000501N9-00721+99999999999ADDAY101999GF108991999999999999999999MW1001
0056011990999991953011606004+68750+023550FM-12+038299999V0201701N00261220001CN0002001N9-01111+99999999999ADDAY101999GF101991999999999999999999KA1999N-01281MW1001
0043011990999991953011612004+68750+023550FM-12+038299999V0201501N006719999999N0020001N9-01221+99999999999ADDAY131999GF107991999999999999999999MW1361
0054011990999991953011618004+68750+023550FM-12+038299999V0201801N009319999999N0000001N9-00891+99999999999ADDAA199002091AY171999GF108991999999999999999999MW1361
0056011990999991953011706004+68750+023550FM-12+038299999V0202101N00461220001CN0005001N9-00611+99999999999ADDAY131999GF102991999999999999999999KA1999N-01001MW1001
0043011990999991953011712004+68750+023550FM-12+038299999V0202201N00461220001CN0040001N9-00611+99999999999ADDAY131999GF101991999999999999999999MW1361
0043011990999991953011718004+68750+023550FM-12+038299999V0202401N00261220001CN0002001N9-00611+99999999999ADDAY131999GF101991999999999999999999MW1001
0067011990999991953011806004+68750+023550FM-12+038299999V0201701N002619999999N0000501N9-00281+99999999999ADDAA199003091AY171999GF108991999999999999999999KA1999N-00891MW1711
0043011990999991953011812004+68750+023550FM-12+038299999V0200201N004619999999N0010001N9-00501+99999999999ADDAY171999GF108991999999999999999999MW1361
0054011990999991953011818004+68750+023550FM-12+038299999V0203601N015419999999N0000001N9-00781+99999999999ADDAA199002091AY131999GF108991999999999999999999MW1361
0067011990999991953011906004+68750+023550FM-12+038299999V0202801N002619999999N0000501N9-01001+99999999999ADDAA199002091AY171999GF107991999999999999999999KA1999N-01891MW1711
0043011990999991953011912004+68750+023550FM-12+038299999V0203001N00461220001CN0100001N9-01501+99999999999ADDAY131999GF101991999999999999999999MW1001
0043011990999991953011918004+68750+023550FM-12+038299999V0202801N00101220001CN0000501N9-01611+99999999999ADDAY101999GF101991999999999999999999MW1001
0056011990999991953012006004+68750+023550FM-12+038299999V0201801N012319999999N0000001N9-01111+99999999999ADDAY131999GF108991999999999999999999KA1999N-01721MW1371
0043011990999991953012012004+68750+023550FM-12+038299999V0202201N006719999999N0005001N9-00501+99999999999ADDAY131999GF107991999999999999999999MW1371
0043011990999991953012018004+68750+023550FM-12+038299999V0202701N00461220001CN0000001N9-00391+99999999999ADDAY131999GF104991999999999999999999MW1001
0067011990999991953012106004+68750+023550FM-12+038299999V0203001N00261220001CN0002001N9-01781+99999999999ADDAA199002091AY171999GF101991999999999999999999KA1999N-02221MW1001
0043011990999991953012112004+68750+023550FM-12+038299999V0200901N00101220001CN0040001N9-02001+99999999999ADDAY101999GF101991999999999999999999MW1001
0043011990999991953012118004+68750+023550FM-12+038299999V0202801N00101220001CN0005001N9-01501+99999999999ADDAY101999GF101991999999999999999999MW1001
0067011990999991953012206004+68750+023550FM-12+038299999V0203301N004619999999N0000501N9-01111+99999999999ADDAA199001091AY171999GF108991999999999999999999KA1999N-01721MW1361
0043011990999991953012212004+68750+023550FM-12+038299999V0203101N00261220001CN0040001N9-01611+99999999999ADDAY101999GF104991999999999999999999MW1001
0054011990999991953012218004+68750+023550FM-12+038299999V0203001N00261220001CN0002001N9-01221+99999999999ADDAA199000391AY171999GF102991999999999999999999MW1001
0067011990999991953012306004+68750+023550FM-12+038299999V0203001N002619999999N0005001N9-01001+99999999999ADDAA199002091AY171999GF106991999999999999999999KA1999N-02221MW1001
0043011990999991953012312004+68750+023550FM-12+038299999V0201401N00101220001CN0040001N9-01721+99999999999ADDAY101999GF101991999999999999999999MW1001
0043011990999991953012318004+68750+023550FM-12+038299999V0202701N00101220001CN0005001N9-02001+99999999999ADDAY101999GF100991999999999999999999MW1001
0056011990999991953012406004+68750+023550FM-12+038299999V0203601N00101220001CN0002001N9-02391+99999999999ADDAY101999GF102991999999999999999999KA1999N-02891MW1001
0043011990999991953012412004+68750+023550FM-12+038299999V0200901N00101220001CN0100001N9-02501+99999999999ADDAY101999GF101991999999999999999999MW1001
0043011990999991953012418004+68750+023550FM-12+038299999V0202801N00101220001CN0005001N9-02281+99999999999ADDAY101999GF101991999999999999999999MW1001
0056011990999991953012506004+68750+023550FM-12+038299999V0202901N00461220001CN0005001N9-01391+99999999999ADDAY131999GF101991999999999999999999KA1999N-02281MW1001
0043011990999991953012512004+68750+023550FM-12+038299999V0203101N00261220001CN0100001N9-01611+99999999999ADDAY101999GF102991999999999999999999MW1001
0043011990999991953012518004+68750+023550FM-12+038299999V0202701N00261220001CN0005001N9-01781+99999999999ADDAY101999GF101991999999999999999999MW1001
0056011990999991953012606004+68750+023550FM-12+038299999V0200901N00101220001CN0005001N9-01781+99999999999ADDAY101999GF103991999999999999999999KA1999N-02391MW1001
0043011990999991953012612004+68750+023550FM-12+038299999V0201201N001019999999N0010001N9-01611+99999999999ADDAY101999GF106991999999999999999999MW1001
0043011990999991953012618004+68750+023550FM-12+038299999V0200901N00101220001CN0005001N9-01891+99999999999ADDAY101999GF101991999999999999999999MW1001
0067011990999991953012706004+68750+023550FM-12+038299999V0201401N004619999999N0000001N9-01721+99999999999ADDAA199000591AY171999GF108991999999999999999999KA1999N-02001MW1731
0043011990999991953012712004+68750+023550FM-12+038299999V0201301N009319999999N0005001N9-01501+99999999999ADDAY171999GF108991999999999999999999MW1371
0054011990999991953012718004+68750+023550FM-12+038299999V0201301N006719999999N0005001N9-01611+99999999999ADDAA199001091AY171999GF107991999999999999999999MW1731
0067011990999991953012806004+68750+023550FM-12+038299999V0201601N004619999999N0005001N9-01501+99999999999ADDAA199000591AY171999GF108991999999999999999999KA1999N-01611MW1361
0043011990999991953012812004+68750+023550FM-12+038299999V0201201N004619999999N0005001N9-01501+99999999999ADDAY171999GF108991999999999999999999MW1731
0054011990999991953012818004+68750+023550FM-12+038299999V0201201N002619999999N0005001N9-01501+99999999999ADDAA199001091AY171999GF106991999999999999999999MW1711
0067011990999991953012906004+68750+023550FM-12+038299999V0201201N002619999999N0005001N9-01721+99999999999ADDAA199000391AY171999GF107991999999999999999999KA1999N-02001MW1001
0043011990999991953012912004+68750+023550FM-12+038299999V0201601N002619999999N0010001N9-01611+99999999999ADDAY171999GF108991999999999999999999MW1711
0054011990999991953012918004+68750+023550FM-12+038299999V0200901N00101220001CN0005001N9-02001+99999999999ADDAA199001091AY171999GF101991999999999999999999MW1001
0056011990999991953013006004+68750+023550FM-12+038299999V0201001N002619999999N0005001N9-01891+99999999999ADDAY101999GF108991999999999999999999KA1999N-02281MW1001
0043011990999991953013012004+68750+023550FM-12+038299999V0201101N002619999999N0010001N9-01721+99999999999ADDAY171999GF107991999999999999999999MW1711
0054011990999991953013018004+68750+023550FM-12+038299999V0202201N002619999999N0000501N9-01721+99999999999ADDAA199000691AY171999GF108991999999999999999999MW1711
0056011990999991953013106004+68750+023550FM-12+038299999V0201301N002619999999N0005001N9-01721+99999999999ADDAY101999GF106991999999999999999999KA1999N-01891MW1001
0043011990999991953013112004+68750+023550FM-12+038299999V0201501N002619999999N0020001N9-01781+99999999999ADDAY101999GF107991999999999999999999MW1001
0043011990999991953013118004+68750+023550FM-12+038299999V0201401N002619999999N0005001N9-01781+99999999999ADDAY101999GF108991999999999999999999MW1001
0067011990999991953020106004+68750+023550FM-12+038299999V0201801N002619999999N0005001N9-01721+99999999999ADDAA199000591AY171999GF107991999999999999999999KA1999N-01891MW1001
0043011990999991953020112004+68750+023550FM-12+038299999V0201701N004619999999N0010001N9-01721+99999999999ADDAY131999GF108991999999999999999999MW1361
0054011990999991953020118004+68750+023550FM-12+038299999V0201301N001019999999N0002001N9-01781+99999999999ADDAA199000391AY171999GF107991999999999999999999MW1771
0067011990999991953020206004+68750+023550FM-12+038299999V0201801N002619999999N0005001N9-01781+99999999999ADDAA199001091AY171999GF108991999999999999999999KA1999N-02221MW1771
0043011990999991953020212004+68750+023550FM-12+038299999V0201501N002619999999N0040001N9-01781+99999999999ADDAY101999GF105991999999999999999999MW1001
0043011990999991953020218004+68750+023550FM-12+038299999V0201301N00101220001CN0002001N9-02111+99999999999ADDAY101999GF103991999999999999999999MW1001
0056011990999991953020306004+68750+023550FM-12+038299999V0200901N00101220001CN0005001N9-02391+99999999999ADDAY101999GF103991999999999999999999KA1999N-02501MW1001
0043011990999991953020312004+68750+023550FM-12+038299999V0201301N002619999999N0005001N9-01721+99999999999ADDAY171999GF107991999999999999999999MW1711
0054011990999991953020318004+68750+023550FM-12+038299999V0201201N002619999999N0002001N9-01611+99999999999ADDAA199000591AY171999GF108991999999999999999999MW1771
0056011990999991953020406004+68750+023550FM-12+038299999V0201401N004619999999N0005001N9-02001+99999999999ADDAY131999GF107991999999999999999999KA1999N-02891MW1361
0043011990999991953020412004+68750+023550FM-12+038299999V0201001N00461220001CN0010001N9-02111+99999999999ADDAY171999GF104991999999999999999999MW1711
0054011990999991953020418004+68750+023550FM-12+038299999V0202901N001019999999N0000001N9-02781+99999999999ADDAA199000591AY101999GF108991999999999999999999MW1001
0056011990999991953020506004+68750+023550FM-12+038299999V0202701N001019999999N0002001N9-03501+99999999999ADDAY101999GF107991999999999999999999KA1999N-03721MW1001
0043011990999991953020512004+68750+023550FM-12+038299999V0202801N002619999999N0005001N9-02611+99999999999ADDAY171999GF107991999999999999999999MW1711
0054011990999991953020518004+68750+023550FM-12+038299999V0203201N001019999999N0002001N9-01611+99999999999ADDAA199001091AY101999GF107991999999999999999999MW1771
0067011990999991953020606004+68750+023550FM-12+038299999V0200301N002619999999N0005001N9-01221+99999999999ADDAA199002091AY171999GF108991999999999999999999KA1999N-02501MW1731
0043011990999991953020612004+68750+023550FM-12+038299999V0203501N00101220001CN0100001N9-01501+99999999999ADDAY101999GF103991999999999999999999MW1001
0043011990999991953020618004+68750+023550FM-12+038299999V0202801N00101220001CN0000501N9-02501+99999999999ADDAY101999GF100991999999999999999999MW1001
0056011990999991953020706004+68750+023550FM-12+038299999V0200901N00261220001CN0005001N9-01611+99999999999ADDAY101999GF103991999999999999999999KA1999N-02891MW1001
0043011990999991953020712004+68750+023550FM-12+038299999V0201301N00101220001CN0040001N9-02221+99999999999ADDAY101999GF102991999999999999999999MW1001
0043011990999991953020718004+68750+023550FM-12+038299999V0200901N00101220001CN0000501N9-02781+99999999999ADDAY101999GF101991999999999999999999MW1001
0056011990999991953020806004+68750+023550FM-12+038299999V0202601N00261220001CN0005001N9-03221+99999999999ADDAY101999GF102991999999999999999999KA1999N-03501MW1001
0043011990999991953020812004+68750+023550FM-12+038299999V0203601N00101220001CN0010001N9-02891+99999999999ADDAY101999GF104991999999999999999999MW1001
0043011990999991953020818004+68750+023550FM-12+038299999V0202801N001019999999N0000501N9-03111+99999999999ADDAY101999GF107991999999999999999999MW1001
0067011990999991953020906004+68750+023550FM-12+038299999V0200901N00261220001CN0005001N9-02391+99999999999ADDAA199002091AY171999GF104991999999999999999999KA1999N-03391MW1001
0043011990999991953020912004+68750+023550FM-12+038299999V0202601N001019999999N0010001N9-02891+99999999999ADDAY101999GF105991999999999999999999MW1001
0043011990999991953020918004+68750+023550FM-12+038299999V0202601N00261220001CN0002001N9-03281+99999999999ADDAY101999GF100991999999999999999999MW1001
0067011990999991953021006004+68750+023550FM-12+038299999V0202001N001019999999N0005001N9-02721+99999999999ADDAA199000691AY101999GF108991999999999999999999KA1999N-03611MW1771
0043011990999991953021012004+68750+023550FM-12+038299999V0201301N00101220001CN0020001N9-02501+99999999999ADDAY101999GF104991999999999999999999MW1001
0054011990999991953021018004+68750+023550FM-12+038299999V0200801N002619999999N0002001N9-02221+99999999999ADDAA199001091AY171999GF108991999999999999999999MW1731
0067011990999991953021106004+68750+023550FM-12+038299999V0201601N00461220001CN0010001N9-01891+99999999999ADDAA199001091AY171999GF104991999999999999999999KA1999N-02281MW1361
0043011990999991953021112004+68750+023550FM-12+038299999V0201501N002619999999N0010001N9-01891+99999999999ADDAY171999GF106991999999999999999999MW1711
0054011990999991953021118004+68750+023550FM-12+038299999V0201801N00461220001CN0002001N9-01891+99999999999ADDAA199000591AY171999GF104991999999999999999999MW1361
0056011990999991953021206004+68750+023550FM-12+038299999V0201801N00671220001CN0005001N9-01891+99999999999ADDAY131999GF104991999999999999999999KA1999N-02001MW1361
0043011990999991953021212004+68750+023550FM-12+038299999V0202101N004619999999N0002001N9-01891+99999999999ADDAY101999GF106991999999999999999999MW1001
0054011990999991953021218004+68750+023550FM-12+038299999V0202401N002619999999N0000001N9-01891+99999999999ADDAA199000591AY131999GF106991999999999999999999MW1731
0067011990999991953021306004+68750+023550FM-12+038299999V0201601N004619999999N0000501N9-01611+99999999999ADDAA199000391AY171999GF107991999999999999999999KA1999N-02001MW1361
0043011990999991953021312004+68750+023550FM-12+038299999V0201401N002619999999N0002001N9-01721+99999999999ADDAY101999GF107991999999999999999999MW1001
0054011990999991953021318004+68750+023550FM-12+038299999V0201701N004619999999N0000501N9-01781+99999999999ADDAA199000691AY171999GF105991999999999999999999MW1711
0056011990999991953021406004+68750+023550FM-12+038299999V0201801N004619999999N0002001N9-02001+99999999999ADDAY131999GF105991999999999999999999KA1999N-02221MW1361
0043011990999991953021412004+68750+023550FM-12+038299999V0201601N00671220001CN0005001N9-01891+99999999999ADDAY131999GF103991999999999999999999MW1361
0054011990999991953021418004+68750+023550FM-12+038299999V0203001N00261220001CN0002001N9-01221+99999999999ADDAA199000591AY171999GF102991999999999999999999MW1001
0056011990999991953021506004+68750+023550FM-12+038299999V0200801N00261220001CN0020001N9-01891+99999999999ADDAY101999GF101991999999999999999999KA1999N-02111MW1001
0043011990999991953021512004+68750+023550FM-12+038299999V0202501N00461220001CN0100001N9-01281+99999999999ADDAY101999GF101991999999999999999999MW1001
0043011990999991953021518004+68750+023550FM-12+038299999V0202901N00261220001CN0002001N9-01721+99999999999ADDAY131999GF101991999999999999999999MW1001
0056011990999991953021606004+68750+023550FM-12+038299999V0200901N00101220001CN0020001N9-02001+99999999999ADDAY101999GF102991999999999999999999KA1999N-02281MW1001
0043011990999991953021612004+68750+023550FM-12+038299999V0200801N00261220001CN0100001N9-01781+99999999999ADDAY101999GF102991999999999999999999MW1001
0043011990999991953021618004+68750+023550FM-12+038299999V0201401N004619999999N0002001N9-01391+99999999999ADDAY101999GF108991999999999999999999MW1001
0056011990999991953021706004+68750+023550FM-12+038299999V0201501N006719999999N0010001N9-01281+99999999999ADDAY131999GF108991999999999999999999KA1999N-01611MW1361
0043011990999991953021712004+68750+023550FM-12+038299999V0201601N002619999999N0005001N9-01281+99999999999ADDAY131999GF107991999999999999999999MW1771
0054011990999991953021718004+68750+023550FM-12+038299999V0201401N001019999999N0002001N9-01281+99999999999ADDAA199000391AY171999GF108991999999999999999999MW1771
0067011990999991953021806004+68750+023550FM-12+038299999V0201801N00461220001CN0020001N9-01281+99999999999ADDAA199001091AY171999GF103991999999999999999999KA1999N-01391MW1361
0043011990999991953021812004+68750+023550FM-12+038299999V0201401N00101220001CN0040001N9-01391+99999999999ADDAY101999GF103991999999999999999999MW1001
0043011990999991953021818004+68750+023550FM-12+038299999V0203001N002619999999N0005001N9-01281+99999999999ADDAY101999GF107991999999999999999999MW1001
0067011990999991953021906004+68750+023550FM-12+038299999V0200301N004619999999N0010001N9-01001+99999999999ADDAA199003091AY171999GF108991999999999999999999KA1999N-01281MW1731
0043011990999991953021912004+68750+023550FM-12+038299999V0200101N006719999999N0020001N9-01001+99999999999ADDAY131999GF107991999999999999999999MW1361
0054011990999991953021918004+68750+023550FM-12+038299999V0203501N004619999999N0005001N9-01111+99999999999ADDAA199004091AY171999GF106991999999999999999999MW1361
0056011990999991953022006004+68750+023550FM-12+038299999V0200501N00101220001CN0020001N9-03001+99999999999ADDAY101999GF101991999999999999999999KA1999N-03001MW1001
0043011990999991953022012004+68750+023550FM-12+038299999V0201601N00261220001CN0100001N9-02001+99999999999ADDAY101999GF102991999999999999999999MW1001
0043011990999991953022018004+68750+023550FM-12+038299999V0201601N00461220001CN0010001N9-01781+99999999999ADDAY101999GF100991999999999999999999MW1001
0056011990999991953022106004+68750+023550FM-12+038299999V0201401N00261220001CN0010001N9-01781+99999999999ADDAY101999GF103991999999999999999999KA1999N-02111MW1001
0043011990999991953022112004+68750+023550FM-12+038299999V0201601N002619999999N0010001N9-01501+99999999999ADDAY171999GF108991999999999999999999MW1711
0054011990999991953022118004+68750+023550FM-12+038299999V0202001N001019999999N0005001N9-01281+99999999999ADDAA199003091AY171999GF107991999999999999999999MW1731
0067011990999991953022206004+68750+023550FM-12+038299999V0200201N004619999999N0020001N9-00891+99999999999ADDAA199003091AY171999GF108991999999999999999999KA1999N-02221MW1361
0043011990999991953022212004+68750+023550FM-12+038299999V0203301N00261220001CN0040001N9-00781+99999999999ADDAY101999GF104991999999999999999999MW1001
0043011990999991953022218004+68750+023550FM-12+038299999V0201001N00101220001CN0005001N9-02221+99999999999ADDAY101999GF101991999999999999999999MW1001
0056011990999991953022306004+68750+023550FM-12+038299999V0200801N001019999999N0005001N9-02781+99999999999ADDAY101999GF107991999999999999999999KA1999N-02891MW1001
0043011990999991953022312004+68750+023550FM-12+038299999V0200401N001019999999N0002001N9-02281+99999999999ADDAY101999GF107991999999999999999999MW1001
0043011990999991953022318004+68750+023550FM-12+038299999V0201801N001019999999N0002001N9-01611+99999999999ADDAY101999GF107991999999999999999999MW1001
0067011990999991953022406004+68750+023550FM-12+038299999V0202301N002619999999N0005001N9-01501+99999999999ADDAA199000391AY171999GF106991999999999999999999KA1999N-02111MW1001
0043011990999991953022412004+68750+023550FM-12+038299999V0202901N00101220001CN0040001N9-01891+99999999999ADDAY101999GF103991999999999999999999MW1001
0054011990999991953022418004+68750+023550FM-12+038299999V0201901N002619999999N0002001N9-01611+99999999999ADDAA199000591AY171999GF106991999999999999999999MW1771
0067011990999991953022506004+68750+023550FM-12+038299999V0201801N012319999999N0000501N9-00891+99999999999ADDAA199000591AY171999GF108991999999999999999999KA1999N-01721MW1371
0043011990999991953022512004+68750+023550FM-12+038299999V0201901N012319999999N0002001N9-00611+99999999999ADDAY131999GF107991999999999999999999MW1371
0043011990999991953022518004+68750+023550FM-12+038299999V0201801N006719999999N0005001N9-00501+99999999999ADDAY131999GF105991999999999999999999MW1361
0056011990999991953022606004+68750+023550FM-12+038299999V0202101N00671220001CN0100001N9-00281+99999999999ADDAY131999GF101991999999999999999999KA1999N-00721MW1361
0043011990999991953022612004+68750+023550FM-12+038299999V0201901N006719999999N0040001N9-00111+99999999999ADDAY131999GF108991999999999999999999MW1361
0054011990999991953022618004+68750+023550FM-12+038299999V0202001N006719999999N0005001N9+00111+99999999999ADDAA199001091AY171999GF108991999999999999999999MW1711
0067011990999991953022706004+68750+023550FM-12+038299999V0203301N002619999999N0040001N9-00501+99999999999ADDAA199000591AY171999GF106991999999999999999999KA1999N-00611MW1001
0043011990999991953022712004+68750+023550FM-12+038299999V0202801N00461220001CN0040001N9-00221+99999999999ADDAY131999GF101991999999999999999999MW1361
0043011990999991953022718004+68750+023550FM-12+038299999V0202701N009319999999N0005001N9-00221+99999999999ADDAY131999GF106991999999999999999999MW1361
0067011990999991953022806004+68750+023550FM-12+038299999V0202701N00461220001CN0040001N9-00891+99999999999ADDAA199001091AY171999GF101991999999999999999999KA1999N-01111MW1001
0043011990999991953022812004+68750+023550FM-12+038299999V0201801N00461220001CN0040001N9-00501+99999999999ADDAY131999GF103991999999999999999999MW1361
0043011990999991953022818004+68750+023550FM-12+038299999V0201901N00461220001CN0010001N9-00221+99999999999ADDAY131999GF103991999999999999999999MW1361
0056011990999991953030106004+68750+023550FM-12+038299999V0203001N00261220001CN0100001N9-00281+99999999999ADDAY101999GF102991999999999999999999KA1999N-01111MW1001
0043011990999991953030112004+68750+023550FM-12+038299999V0202901N00931220001CN0100001N9-00221+99999999999ADDAY131999GF101991999999999999999999MW1361
0043011990999991953030118004+68750+023550FM-12+038299999V0203001N00671220001CN0005001N9-00501+99999999999ADDAY131999GF102991999999999999999999MW1361
0067011990999991953030206004+68750+023550FM-12+038299999V0201701N002619999999N0040001N9-00891+99999999999ADDAA199000591AY171999GF106991999999999999999999KA1999N-01281MW1001
0043011990999991953030212004+68750+023550FM-12+038299999V0201501N004619999999N0002001N9-00611+99999999999ADDAY171999GF108991999999999999999999MW1731
0054011990999991953030218004+68750+023550FM-12+038299999V0200301N002619999999N0000001N9-00501+99999999999ADDAA199003091AY171999GF108991999999999999999999MW1731
0067011990999991953030306004+68750+023550FM-12+038299999V0203601N004619999999N0040001N9-01111+99999999999ADDAA199003091AY171999GF105991999999999999999999KA1999N-01611MW1361
0043011990999991953030312004+68750+023550FM-12+038299999V0203601N00461220001CN0005001N9-01221+99999999999ADDAY131999GF102991999999999999999999MW1361
0054011990999991953030318004+68750+023550FM-12+038299999V0203501N00261220001CN0000501N9-01391+99999999999ADDAA199001091AY171999GF103991999999999999999999MW1771
0067011990999991953030406004+68750+023550FM-12+038299999V0201801N002619999999N0040001N9-01611+99999999999ADDAA199000391AY171999GF106991999999999999999999KA1999N-02391MW1001
0043011990999991953030412004+68750+023550FM-12+038299999V0209991C00001220001CN0100001N9-01221+99999999999ADDAY101999GF101991999999999999999999MW1001
0043011990999991953030418004+68750+023550FM-12+038299999V0200701N00261220001CN0005001N9-02281+99999999999ADDAY101999GF101991999999999999999999MW1001
0067011990999991953030506004+68750+023550FM-12+038299999V0201801N004619999999N0010001N9-01221+99999999999ADDAA199000391AY171999GF108991999999999999999999KA1999N-02611MW1731
0043011990999991953030512004+68750+023550FM-12+038299999V0201701N004619999999N0040001N9-00891+99999999999ADDAY131999GF105991999999999999999999MW1361
0043011990999991953030518004+68750+023550FM-12+038299999V0202501N00461220001CN0010001N9-00281+99999999999ADDAY101999GF101991999999999999999999MW1001
0056011990999991953030606004+68750+023550FM-12+038299999V0202001N004619999999N0040001N9+00001+99999999999ADDAY101999GF108991999999999999999999KA1999N-00281MW1001
0043011990999991953030612004+68750+023550FM-12+038299999V0202001N00671220001CN0100001N9-00391+99999999999ADDAY101999GF104991999999999999999999MW1001
0043011990999991953030618004+68750+023550FM-12+038299999V0202701N00931220001CN0005001N9+00111+99999999999ADDAY101999GF104991999999999999999999MW1001
0067011990999991953030706004+68750+023550FM-12+038299999V0203301N00261220001CN0040001N9-01281+99999999999ADDAA199001091AY171999GF103991999999999999999999KA1999N-01281MW1001
0043011990999991953030712004+68750+023550FM-12+038299999V0202501N00261220001CN0100001N9-00891+99999999999ADDAY101999GF101991999999999999999999MW1001
0043011990999991953030718004+68750+023550FM-12+038299999V0202301N00261220001CN0005001N9-01111+99999999999ADDAY101999GF101991999999999999999999MW1001
0056011990999991953030806004+68750+023550FM-12+038299999V0202101N00671220001CN0040001N9-00501+99999999999ADDAY131999GF102991999999999999999999KA1999N-01221MW1361
0043011990999991953030812004+68750+023550FM-12+038299999V0202701N01231220001CN0040001N9-00111+99999999999ADDAY101999GF101991999999999999999999MW1001
0043011990999991953030818004+68750+023550FM-12+038299999V0203001N00261220001CN0010001N9-00391+99999999999ADDAY101999GF101991999999999999999999MW1001
0056011990999991953030906004+68750+023550FM-12+038299999V0200501N00261220001CN0040001N9-00501+99999999999ADDAY101999GF102991999999999999999999KA1999N-00721MW1001
0043011990999991953030912004+68750+023550FM-12+038299999V0203401N006719999999N0020001N9-00391+99999999999ADDAY171999GF108991999999999999999999MW1731
0054011990999991953030918004+68750+023550FM-12+038299999V0203601N01231220001CN0005001N9-00611+99999999999ADDAA199002091AY171999GF104991999999999999999999MW1371
0067011990999991953031006004+68750+023550FM-12+038299999V0200501N002619999999N0020001N9-01111+99999999999ADDAA199000391AY131999GF106991999999999999999999KA1999N-01391MW1771
0043011990999991953031012004+68750+023550FM-12+038299999V0201201N00101220001CN0100001N9-00891+99999999999ADDAY101999GF101991999999999999999999MW1001
0054011990999991953031018004+68750+023550FM-12+038299999V0201101N00101220001CN0020001N9-01281+99999999999ADDAA199001091AY171999GF104991999999999999999999MW1001
0056011990999991953031106004+68750+023550FM-12+038299999V0201601N002619999999N0010001N9-01111+99999999999ADDAY101999GF105991999999999999999999KA1999N-01391MW1001
0043011990999991953031112004+68750+023550FM-12+038299999V0201601N002619999999N0040001N9-01001+99999999999ADDAY101999GF106991999999999999999999MW1001
0043011990999991953031118004+68750+023550FM-12+038299999V0201901N002619999999N0005001N9-00891+99999999999ADDAY101999GF107991999999999999999999MW1001
0067011990999991953031206004+68750+023550FM-12+038299999V0201801N002619999999N0010001N9-00891+99999999999ADDAA199000591AY101999GF107991999999999999999999KA1999N-01001MW1731
0043011990999991953031212004+68750+023550FM-12+038299999V0201801N004619999999N0010001N9-00721+99999999999ADDAY131999GF106991999999999999999999MW1361
0054011990999991953031218004+68750+023550FM-12+038299999V0201901N009319999999N0005001N9-00611+99999999999ADDAA199000391AY171999GF105991999999999999999999MW1361
0056011990999991953031306004+68750+023550FM-12+038299999V0202301N004619999999N0010001N9-00111+99999999999ADDAY131999GF107991999999999999999999KA1999N-00721MW1361
0043011990999991953031312004+68750+023550FM-12+038299999V0202601N006719999999N0100001N9+00281+99999999999ADDAY101999GF106991999999999999999999MW1001
0043011990999991953031318004+68750+023550FM-12+038299999V0202101N009319999999N0010001N9+00281+99999999999ADDAY101999GF105991999999999999999999MW1001
0056011990999991953031406004+68750+023550FM-12+038299999V0203201N01901220001CN0100001N9-00111+99999999999ADDAY101999GF101991999999999999999999KA1999N-00281MW1001
0043011990999991953031412004+68750+023550FM-12+038299999V0203201N00261220001CN0100001N9-00111+99999999999ADDAY101999GF101991999999999999999999MW1001
0043011990999991953031418004+68750+023550FM-12+038299999V0202701N002619999999N0005001N9-00221+99999999999ADDAY101999GF107991999999999999999999MW1001
0067011990999991953031506004+68750+023550FM-12+038299999V0201901N004619999999N0040001N9-00221+99999999999ADDAA199000591AY171999GF107991999999999999999999KA1999N-00781MW1001
0043011990999991953031512004+68750+023550FM-12+038299999V0202401N00671220001CN0100001N9+00281+99999999999ADDAY101999GF101991999999999999999999MW1001
0043011990999991953031518004+68750+023550FM-12+038299999V0202301N00261220001CN0010001N9-00111+99999999999ADDAY101999GF101991999999999999999999MW1001
0056011990999991953031606004+68750+023550FM-12+038299999V0202701N002619999999N0040001N9-00221+99999999999ADDAY101999GF105991999999999999999999KA1999N-01001MW1001
0043011990999991953031612004+68750+023550FM-12+038299999V0202501N004619999999N0040001N9+00221+99999999999ADDAY101999GF107991999999999999999999MW1001
0043011990999991953031618004+68750+023550FM-12+038299999V0202201N00461220001CN0010001N9+00221+99999999999ADDAY101999GF103991999999999999999999MW1001
0056011990999991953031706004+68750+023550FM-12+038299999V0201701N002619999999N0040001N9-00221+99999999999ADDAY101999GF107991999999999999999999KA1999N-00281MW1001
0043011990999991953031712004+68750+023550FM-12+038299999V0201501N002619999999N0040001N9+00001+99999999999ADDAY101999GF107991999999999999999999MW1001
0043011990999991953031718004+68750+023550FM-12+038299999V0202001N00671220001CN0010001N9+00001+99999999999ADDAY101999GF104991999999999999999999MW1001
0056011990999991953031806004+68750+023550FM-12+038299999V0202901N004619999999N0040001N9-00611+99999999999ADDAY101999GF105991999999999999999999KA1999N-01001MW1001
0043011990999991953031812004+68750+023550FM-12+038299999V0203301N00671220001CN0040001N9-00281+99999999999ADDAY101999GF104991999999999999999999MW1001
0043011990999991953031818004+68750+023550FM-12+038299999V0203001N00261220001CN0010001N9-00891+99999999999ADDAY101999GF101991999999999999999999MW1001
0056011990999991953031906004+68750+023550FM-12+038299999V0200601N002619999999N0040001N9-01001+99999999999ADDAY101999GF106991999999999999999999KA1999N-01611MW1001
0043011990999991953031912004+68750+023550FM-12+038299999V0202301N00261220001CN0100001N9+00111+99999999999ADDAY101999GF102991999999999999999999MW1001
0043011990999991953031918004+68750+023550FM-12+038299999V0202701N00261220001CN0005001N9+00001+99999999999ADDAY101999GF104991999999999999999999MW1001
0056011990999991953032006004+68750+023550FM-12+038299999V0201901N002619999999N0020001N9-00111+99999999999ADDAY101999GF107991999999999999999999KA1999N-00501MW1001
0043011990999991953032012004+68750+023550FM-12+038299999V0202101N00461220001CN0040001N9+00111+99999999999ADDAY101999GF104991999999999999999999MW1001
0054011990999991953032018004+68750+023550FM-12+038299999V0202801N00461220001CN0005001N9+00001+99999999999ADDAA199000691AY171999GF104991999999999999999999MW1001
0056011990999991953032106004+68750+023550FM-12+038299999V0202201N004619999999N0040001N9-00221+99999999999ADDAY101999GF108991999999999999999999KA1999N-00611MW1001
0043011990999991953032112004+68750+023550FM-12+038299999V0203001N00931220001CN0020001N9+00001+99999999999ADDAY171999GF102991999999999999999999MW1361
0054011990999991953032118004+68750+023550FM-12+038299999V0202801N00931220001CN0010001N9-00611+99999999999ADDAA199000591AY131999GF103991999999999999999999MW1361
0067011990999991953032206004+68750+023550FM-12+038299999V0201701N00261220001CN0100001N9-00721+99999999999ADDAA199001091AY171999GF101991999999999999999999KA1999N-00891MW1001
0043011990999991953032212004+68750+023550FM-12+038299999V0202101N00261220001CN0100001N9-00391+99999999999ADDAY101999GF102991999999999999999999MW1001
0043011990999991953032218004+68750+023550FM-12+038299999V0202301N002619999999N0020001N9-00391+99999999999ADDAY101999GF107991999999999999999999MW1001
0067011990999991953032306004+68750+023550FM-12+038299999V0202001N004619999999N0040001N9-00281+99999999999ADDAA199001091AY171999GF107991999999999999999999KA1999N-00611MW1361
0043011990999991953032312004+68750+023550FM-12+038299999V0202301N004619999999N0040001N9+00221+99999999999ADDAY131999GF107991999999999999999999MW1361
0043011990999991953032318004+68750+023550FM-12+038299999V0202901N00261220001CN0020001N9-00111+99999999999ADDAY131999GF102991999999999999999999MW1001
0067011990999991953032406004+68750+023550FM-12+038299999V0201201N00101220001CN0100001N9-00891+99999999999ADDAA199001091AY171999GF103991999999999999999999KA1999N-01281MW1001
0043011990999991953032412004+68750+023550FM-12+038299999V0200401N002619999999N0020001N9-00781+99999999999ADDAY171999GF107991999999999999999999MW1731
0054011990999991953032418004+68750+023550FM-12+038299999V0200301N00261220001CN0020001N9-01281+99999999999ADDAA199003091AY171999GF102991999999999999999999MW1001
0056011990999991953032506004+68750+023550FM-12+038299999V0200901N00101220001CN0100001N9-02221+99999999999ADDAY101999GF101991999999999999999999KA1999N-02501MW1001
0043011990999991953032512004+68750+023550FM-12+038299999V0202801N00101220001CN0100001N9-01721+99999999999ADDAY101999GF101991999999999999999999MW1001
0043011990999991953032518004+68750+023550FM-12+038299999V0203101N00101220001CN0040001N9-02391+99999999999ADDAY101999GF101991999999999999999999MW1001
0067011990999991953032606004+68750+023550FM-12+038299999V0201301N004619999999N0020001N9-01611+99999999999ADDAA199000591AY171999GF108991999999999999999999KA1999N-02781MW1361
0043011990999991953032612004+68750+023550FM-12+038299999V0201301N006719999999N0005001N9-01391+99999999999ADDAY171999GF108991999999999999999999MW1731
0054011990999991953032618004+68750+023550FM-12+038299999V0201001N006719999999N0002001N9-01281+99999999999ADDAA199001091AY171999GF108991999999999999999999MW1361
0067011990999991953032706004+68750+023550FM-12+038299999V0200401N004619999999N0020001N9-01611+99999999999ADDAA199002091AY171999GF106991999999999999999999KA1999N-01721MW1361
0043011990999991953032712004+68750+023550FM-12+038299999V0200501N00671220001CN0005001N9-01221+99999999999ADDAY131999GF103991999999999999999999MW1361
0054011990999991953032718004+68750+023550FM-12+038299999V0200401N00461220001CN0040001N9-01281+99999999999ADDAA199001091AY171999GF102991999999999999999999MW1361
0056011990999991953032806004+68750+023550FM-12+038299999V0202501N00261220001CN0040001N9-02111+99999999999ADDAY101999GF102991999999999999999999KA1999N-02221MW1001
0043011990999991953032812004+68750+023550FM-12+038299999V0200901N00261220001CN0100001N9-01281+99999999999ADDAY101999GF101991999999999999999999MW1001
0043011990999991953032818004+68750+023550FM-12+038299999V0201001N00261220001CN0040001N9-01891+99999999999ADDAY101999GF103991999999999999999999MW1001
0067011990999991953032906004+68750+023550FM-12+038299999V0201101N002619999999N0010001N9-01611+99999999999ADDAA199000391AY171999GF108991999999999999999999KA1999N-02001MW1771
0043011990999991953032912004+68750+023550FM-12+038299999V0201101N009319999999N0002001N9-01281+99999999999ADDAY171999GF107991999999999999999999MW1361
0054011990999991953032918004+68750+023550FM-12+038299999V0200901N00461220001CN0002001N9-01611+99999999999ADDAA199000591AY171999GF103991999999999999999999MW1361
0067011990999991953033006004+68750+023550FM-12+038299999V0200601N002619999999N0010001N9-01781+99999999999ADDAA199000391AY171999GF106991999999999999999999KA1999N-02281MW1771
0043011990999991953033012004+68750+023550FM-12+038299999V0203301N00261220001CN0100001N9-01501+99999999999ADDAY101999GF102991999999999999999999MW1001
0054011990999991953033018004+68750+023550FM-12+038299999V0202701N00261220001CN0010001N9-01781+99999999999ADDAA199000591AY171999GF104991999999999999999999MW1771
0067011990999991953033106004+68750+023550FM-12+038299999V0203601N004619999999N0010001N9-00891+99999999999ADDAA199002091AY171999GF107991999999999999999999KA1999N-02001MW1361
0043011990999991953033112004+68750+023550FM-12+038299999V0203301N00261220001CN0040001N9-00721+99999999999ADDAY101999GF103991999999999999999999MW1001
0043011990999991953033118004+68750+023550FM-12+038299999V0200501N00101220001CN0040001N9-01221+99999999999ADDAY101999GF102991999999999999999999MW1001
0056011990999991953040106004+68750+023550FM-12+038299999V0202701N00101220001CN0040001N9-01781+99999999999ADDAY101999GF102991999999999999999999KA1999N-02001MW1001
0043011990999991953040112004+68750+023550FM-12+038299999V0209991C00001220001CN0100001N9-01001+99999999999ADDAY101999GF100991999999999999999999MW1001
0043011990999991953040118004+68750+023550FM-12+038299999V0201601N00101220001CN0040001N9-01501+99999999999ADDAY101999GF102991999999999999999999MW1001
0056011990999991953040206004+68750+023550FM-12+038299999V0201801N00461220001CN0040001N9-01281+99999999999ADDAY101999GF103991999999999999999999KA1999N-02111MW1361
0043011990999991953040212004+68750+023550FM-12+038299999V0201801N00461220001CN0100001N9-00501+99999999999ADDAY131999GF102991999999999999999999MW1361
0043011990999991953040218004+68750+023550FM-12+038299999V0201801N00461220001CN0040001N9-00501+99999999999ADDAY131999GF103991999999999999999999MW1361
0056011990999991953040306004+68750+023550FM-12+038299999V0201601N002619999999N0040001N9-00611+99999999999ADDAY101999GF108991999999999999999999KA1999N-00721MW1001
0043011990999991953040312004+68750+023550FM-12+038299999V0201201N002619999999N0010001N9-00281+99999999999ADDAY171999GF108991999999999999999999MW1691
0054011990999991953040318004+68750+023550FM-12+038299999V0201401N004619999999N0005001N9-00111+99999999999ADDAA199002091AY171999GF108991999999999999999999MW1691
0067011990999991953040406004+68750+023550FM-12+038299999V0202201N006719999999N0040001N9+00111+99999999999ADDAA199001091AY171999GF106991999999999999999999KA1999N-00111MW1001
0043011990999991953040412004+68750+023550FM-12+038299999V0202201N00671220001CN0100001N9+00281+99999999999ADDAY101999GF103991999999999999999999MW1001
0054011990999991953040418004+68750+023550FM-12+038299999V0202101N002619999999N0040001N9+00111+99999999999ADDAA199000391AY171999GF106991999999999999999999MW1001
0056011990999991953040506004+68750+023550FM-12+038299999V0200701N00261220001CN0040001N9-00781+99999999999ADDAY101999GF104991999999999999999999KA1999N-00891MW1001
0043011990999991953040512004+68750+023550FM-12+038299999V0200701N00261220001CN0100001N9-00391+99999999999ADDAY101999GF103991999999999999999999MW1001
0054011990999991953040518004+68750+023550FM-12+038299999V0200901N002619999999N0010001N9-00281+99999999999ADDAA199000391AY171999GF108991999999999999999999MW1731
0067011990999991953040606004+68750+023550FM-12+038299999V0201601N004619999999N0005001N9+00111+99999999999ADDAA199004091AY161999GF108991999999999999999999KA1999N-00281MW1631
0043011990999991953040612004+68750+023550FM-12+038299999V0201701N004619999999N0010001N9+00221+99999999999ADDAY161999GF108991999999999999999999MW1691
0054011990999991953040618004+68750+023550FM-12+038299999V0202301N006719999999N0040001N9-00221+99999999999ADDAA199000391AY171999GF107991999999999999999999MW1361
0056011990999991953040706004+68750+023550FM-12+038299999V0201501N00261220001CN0100001N9-00781+99999999999ADDAY101999GF101991999999999999999999KA1999N-00891MW1001
0043011990999991953040712004+68750+023550FM-12+038299999V0201901N00261220001CN0100001N9+00001+99999999999ADDAY101999GF103991999999999999999999MW1001
0043011990999991953040718004+68750+023550FM-12+038299999V0202301N00101220001CN0040001N9-00281+99999999999ADDAY101999GF104991999999999999999999MW1001
0067011990999991953040806004+68750+023550FM-12+038299999V0200401N002619999999N0010001N9-00281+99999999999ADDAA199000391AY171999GF108991999999999999999999KA1999N-00501MW1731
0043011990999991953040812004+68750+023550FM-12+038299999V0200501N002619999999N0020001N9-00221+99999999999ADDAY101999GF108991999999999999999999MW1001
0054011990999991953040818004+68750+023550FM-12+038299999V0200601N004619999999N0005001N9-00281+99999999999ADDAA199002091AY171999GF108991999999999999999999MW1731
0067011990999991953040906004+68750+023550FM-12+038299999V0200601N004619999999N0005001N9-00221+99999999999ADDAA199003091AY171999GF107991999999999999999999KA1999N-00391MW1361
0043011990999991953040912004+68750+023550FM-12+038299999V0200301N00261220001CN0040001N9-00111+99999999999ADDAY101999GF104991999999999999999999MW1001
0054011990999991953040918004+68750+023550FM-12+038299999V0200601N004619999999N0005001N9-00391+99999999999ADDAA199002091AY171999GF108991999999999999999999MW1361
0067011990999991953041006004+68750+023550FM-12+038299999V0200401N00461220001CN0040001N9-00501+99999999999ADDAA199002091AY171999GF104991999999999999999999KA1999N-00781MW1361
0043011990999991953041012004+68750+023550FM-12+038299999V0200401N00261220001CN0040001N9-00391+99999999999ADDAY101999GF102991999999999999999999MW1001
0043011990999991953041018004+68750+023550FM-12+038299999V0203601N002619999999N0040001N9-00781+99999999999ADDAY101999GF106991999999999999999999MW1001
0056011990999991953041106004+68750+023550FM-12+038299999V0209991C00001220001CN0005001N9-01781+99999999999ADDAY101999GF104991999999999999999999KA1999N-02001MW1001
0043011990999991953041112004+68750+023550FM-12+038299999V0201401N00261220001CN0100001N9-00721+99999999999ADDAY101999GF101991999999999999999999MW1001
0043011990999991953041118004+68750+023550FM-12+038299999V0201601N00261220001CN0040001N9-00721+99999999999ADDAY101999GF104991999999999999999999MW1001
0056011990999991953041206004+68750+023550FM-12+038299999V0201601N002619999999N0040001N9-00721+99999999999ADDAY101999GF108991999999999999999999KA1999N-00891MW1001
0043011990999991953041212004+68750+023550FM-12+038299999V0201701N002619999999N0040001N9-00221+99999999999ADDAY101999GF106991999999999999999999MW1001
0054011990999991953041218004+68750+023550FM-12+038299999V0201801N002619999999N0005001N9-00111+99999999999ADDAA199000591AY171999GF107991999999999999999999MW1731
0067011990999991953041306004+68750+023550FM-12+038299999V0201601N002619999999N0010001N9-00221+99999999999ADDAA199000391AY171999GF108991999999999999999999KA1999N-00391MW1001
0043011990999991953041312004+68750+023550FM-12+038299999V0201401N002619999999N0005001N9+00111+99999999999ADDAY171999GF108991999999999999999999MW1691
0054011990999991953041318004+68750+023550FM-12+038299999V0201801N004619999999N0002001N9+00111+99999999999ADDAA199003091AY171999GF109991999999999999999999MW1451
0067011990999991953041406004+68750+023550FM-12+038299999V0201601N00931220001CN0040001N9+00221+99999999999ADDAA199000591AY161999GF101991999999999999999999KA1999N+00001MW1001
0043011990999991953041412004+68750+023550FM-12+038299999V0201901N004619999999N0040001N9+00221+99999999999ADDAY151999GF106991999999999999999999MW1001
0054011990999991953041418004+68750+023550FM-12+038299999V0202101N00461220001CN0040001N9+00221+99999999999ADDAA199000691AY101999GF101991999999999999999999MW1001
0056011990999991953041506004+68750+023550FM-12+038299999V0201701N00101220001CN0040001N9-00501+99999999999ADDAY101999GF104991999999999999999999KA1999N-00611MW1001
0043011990999991953041512004+68750+023550FM-12+038299999V0209991C00001220001CN0040001N9+00111+99999999999ADDAY101999GF103991999999999999999999MW1001
0043011990999991953041518004+68750+023550FM-12+038299999V0200901N001019999999N0040001N9+00001+99999999999ADDAY101999GF107991999999999999999999MW1001
0056011990999991953041606004+68750+023550FM-12+038299999V0202701N001019999999N0040001N9-00501+99999999999ADDAY101999GF107991999999999999999999KA1999N-00721MW1001
0043011990999991953041612004+68750+023550FM-12+038299999V0203201N00101220001CN0100001N9-00111+99999999999ADDAY101999GF101991999999999999999999MW1001
0043011990999991953041618004+68750+023550FM-12+038299999V0209991C00001220001CN0100001N9-00111+99999999999ADDAY101999GF102991999999999999999999MW1001
0056011990999991953041706004+68750+023550FM-12+038299999V0201701N00261220001CN0100001N9-00721+99999999999ADDAY101999GF103991999999999999999999KA1999N-01281MW1001
0043011990999991953041712004+68750+023550FM-12+038299999V0202201N002619999999N0040001N9-00221+99999999999ADDAY101999GF105991999999999999999999MW1001
0043011990999991953041718004+68750+023550FM-12+038299999V0202901N00261220001CN0100001N9-00891+99999999999ADDAY101999GF101991999999999999999999MW1001
0056011990999991953041806004+68750+023550FM-12+038299999V0201901N00931220001CN0100001N9-00891+99999999999ADDAY101999GF103991999999999999999999KA1999N-01281MW1001
0043011990999991953041812004+68750+023550FM-12+038299999V0202001N015419999999N0040001N9-00281+99999999999ADDAY101999GF107991999999999999999999MW1001
0054011990999991953041818004+68750+023550FM-12+038299999V0203201N002619999999N0005001N9-00611+99999999999ADDAA199002091AY171999GF108991999999999999999999MW1731
0067011990999991953041906004+68750+023550FM-12+038299999V0200701N00101220001CN0100001N9-01391+99999999999ADDAA199001091AY171999GF101991999999999999999999KA1999N-02111MW1001
0043011990999991953041912004+68750+023550FM-12+038299999V0203101N00461220001CN0100001N9-00391+99999999999ADDAY131999GF104991999999999999999999MW1001
0043011990999991953041918004+68750+023550FM-12+038299999V0202701N002619999999N0010001N9-00501+99999999999ADDAY101999GF105991999999999999999999MW1001
0056011990999991953042006004+68750+023550FM-12+038299999V0203101N00261220001CN0100001N9-00611+99999999999ADDAY101999GF101991999999999999999999KA1999N-01001MW1001
0043011990999991953042012004+68750+023550FM-12+038299999V0202101N00261220001CN0100001N9-00221+99999999999ADDAY101999GF101991999999999999999999MW1001
0043011990999991953042018004+68750+023550FM-12+038299999V0201601N00101220001CN0100001N9-00391+99999999999ADDAY101999GF101991999999999999999999MW1001
0056011990999991953042106004+68750+023550FM-12+038299999V0201701N004619999999N0100001N9-00501+99999999999ADDAY101999GF105991999999999999999999KA1999N-01111MW1001
0043011990999991953042112004+68750+023550FM-12+038299999V0201901N009319999999N0005001N9-00221+99999999999ADDAY131999GF107991999999999999999999MW1361
0054011990999991953042118004+68750+023550FM-12+038299999V0201801N006719999999N0010001N9-00221+99999999999ADDAA199001091AY171999GF108991999999999999999999MW1361
0067011990999991953042206004+68750+023550FM-12+038299999V0203401N004619999999N0040001N9-00281+99999999999ADDAA199000591AY171999GF105991999999999999999999KA1999N-00611MW1001
0043011990999991953042212004+68750+023550FM-12+038299999V0200201N00101220001CN0040001N9-00281+99999999999ADDAY101999GF103991999999999999999999MW1001
0043011990999991953042218004+68750+023550FM-12+038299999V0202701N00261220001CN0040001N9-00501+99999999999ADDAY101999GF102991999999999999999999MW1001
0056011990999991953042306004+68750+023550FM-12+038299999V0200701N00101220001CN0100001N9-01221+99999999999ADDAY101999GF101991999999999999999999KA1999N-01781MW1001
0043011990999991953042312004+68750+023550FM-12+038299999V0200701N00261220001CN0040001N9-00281+99999999999ADDAY101999GF103991999999999999999999MW1001
0054011990999991953042318004+68750+023550FM-12+038299999V0201701N004619999999N0010001N9-00221+99999999999ADDAA199000691AY101999GF107991999999999999999999MW1771
0056011990999991953042406004+68750+023550FM-12+038299999V0201801N002619999999N0040001N9-00111+99999999999ADDAY101999GF107991999999999999999999KA1999N-00281MW1001
0043011990999991953042412004+68750+023550FM-12+038299999V0200901N001019999999N0100001N9+00391+99999999999ADDAY101999GF107991999999999999999999MW1001
0054011990999991953042418004+68750+023550FM-12+038299999V0201601N002619999999N0040001N9+00281+99999999999ADDAA199000391AY101999GF107991999999999999999999MW1611
0056011990999991953042506004+68750+023550FM-12+038299999V0201601N00261220001CN0100001N9+00111+99999999999ADDAY101999GF101991999999999999999999KA1999N-00111MW1001
0043011990999991953042512004+68750+023550FM-12+038299999V0201401N002619999999N0040001N9+00391+99999999999ADDAY101999GF106991999999999999999999MW1531
0046011990999991953042518004+68750+023550FM-12+038299999V0201601N004619999999N0010001N9+00221+99999999999ADDAA199000691GF108991999999999999999999MW1531
0056011990999991953042606004+68750+023550FM-12+038299999V0201601N002619999999N0040001N9+00221+99999999999ADDAY101999GF106991999999999999999999KA1999N+00111MW1001
0043011990999991953042612004+68750+023550FM-12+038299999V0201501N00261220001CN0100001N9+00501+99999999999ADDAY101999GF102991999999999999999999MW1001
0043011990999991953042618004+68750+023550FM-12+038299999V0200701N00261220001CN0040001N9+00281+99999999999ADDAY101999GF101991999999999999999999MW1001
0067011990999991953042706004+68750+023550FM-12+038299999V0200901N004619999999N0040001N9+00221+99999999999ADDAA199000691AY101999GF107991999999999999999999KA1999N+00111MW1531
0043011990999991953042712004+68750+023550FM-12+038299999V0200801N002619999999N0040001N9+00221+99999999999ADDAY101999GF106991999999999999999999MW1001
0043011990999991953042718004+68750+023550FM-12+038299999V0200901N001019999999N0040001N9+00221+99999999999ADDAY101999GF106991999999999999999999MW1001
0067011990999991953042806004+68750+023550FM-12+038299999V0203501N002619999999N0005001N9+00111+99999999999ADDAA199005091AY161999GF108991999999999999999999KA1999N+00111MW1631
0043011990999991953042812004+68750+023550FM-12+038299999V0203201N002619999999N0010001N9+00111+99999999999ADDAY151999GF108991999999999999999999MW1531
0054011990999991953042818004+68750+023550FM-12+038299999V0203601N00101220001CN0100001N9+00221+99999999999ADDAA199000391AY101999GF101991999999999999999999MW1001
0056011990999991953042906004+68750+023550FM-12+038299999V0200701N00261220001CN0100001N9+00221+99999999999ADDAY101999GF101991999999999999999999KA1999N-00611MW1001
0043011990999991953042912004+68750+023550FM-12+038299999V0201201N00261220001CN0100001N9+00391+99999999999ADDAY101999GF101991999999999999999999MW1001
0043011990999991953042918004+68750+023550FM-12+038299999V0201501N00261220001CN0100001N9+00391+99999999999ADDAY101999GF102991999999999999999999MW1001
0056011990999991953043006004+68750+023550FM-12+038299999V0201701N00261220001CN0100001N9+00391+99999999999ADDAY101999GF101991999999999999999999KA1999N+00111MW1001
0043011990999991953043012004+68750+023550FM-12+038299999V0201601N00261220001CN0100001N9+00721+99999999999ADDAY101999GF101991999999999999999999MW1001
0043011990999991953043018004+68750+023550FM-12+038299999V0200501N00101220001CN0100001N9+00611+99999999999ADDAY101999GF101991999999999999999999MW1001
0056011990999991953050106004+68750+023550FM-12+038299999V0201801N00261220001CN0100001N9+00391+99999999999ADDAY101999GF102991999999999999999999KA1999N+00111MW1001
0043011990999991953050112004+68750+023550FM-12+038299999V0201801N00261220001CN0100001N9+00781+99999999999ADDAY101999GF101991999999999999999999MW1001
0043011990999991953050118004+68750+023550FM-12+038299999V0201701N00101220001CN0040001N9+00611+99999999999ADDAY101999GF103991999999999999999999MW1001
0050011990999991953050206004+68750+023550FM-12+038299999V0201501N001019999999N0040001N9+00501+99999999999ADDAY101999GF105991999999999999999999KA1999N+00221
0043011990999991953050212004+68750+023550FM-12+038299999V0203201N00261220001CN0100001N9+00611+99999999999ADDAY101999GF103991999999999999999999MW1001
0043011990999991953050218004+68750+023550FM-12+038299999V0200301N00261220001CN0100001N9+00281+99999999999ADDAY101999GF104991999999999999999999MW1001
0056011990999991953050306004+68750+023550FM-12+038299999V0202601N00101220001CN0100001N9+00221+99999999999ADDAY101999GF103991999999999999999999KA1999N+00001MW1001
0043011990999991953050312004+68750+023550FM-12+038299999V0203501N00461220001CN0100001N9+00391+99999999999ADDAY101999GF104991999999999999999999MW1001
0043011990999991953050318004+68750+023550FM-12+038299999V0200101N004619999999N0040001N9+00221+99999999999ADDAY101999GF107991999999999999999999MW1001
0056011990999991953050406004+68750+023550FM-12+038299999V0200401N001019999999N0005001N9+00111+99999999999ADDAY141999GF109991999999999999999999KA1999N+00001MW1451
0043011990999991953050412004+68750+023550FM-12+038299999V0200901N002619999999N0100001N9+00391+99999999999ADDAY101999GF106991999999999999999999MW1001
0043011990999991953050418004+68750+023550FM-12+038299999V0201601N002619999999N0100001N9+00221+99999999999ADDAY101999GF106991999999999999999999MW1001
0056011990999991953050506004+68750+023550FM-12+038299999V0200901N00261220001CN0100001N9+00001+99999999999ADDAY101999GF101991999999999999999999KA1999N-00221MW1001
0043011990999991953050512004+68750+023550FM-12+038299999V0201001N00261220001CN0100001N9+00221+99999999999ADDAY101999GF100991999999999999999999MW1001
0043011990999991953050518004+68750+023550FM-12+038299999V0200901N00261220001CN0100001N9-00111+99999999999ADDAY101999GF101991999999999999999999MW1001
0056011990999991953050606004+68750+023550FM-12+038299999V0201601N00261220001CN0100001N9-00501+99999999999ADDAY101999GF100991999999999999999999KA1999N-00721MW1001
0043011990999991953050612004+68750+023550FM-12+038299999V0202301N00261220001CN0100001N9+00001+99999999999ADDAY101999GF100991999999999999999999MW1001
0043011990999991953050618004+68750+023550FM-12+038299999V0201901N001019999999N0040001N9+00001+99999999999ADDAY101999GF106991999999999999999999MW1001
0056011990999991953050706004+68750+023550FM-12+038299999V0201801N00261220001CN0100001N9-00221+99999999999ADDAY101999GF101991999999999999999999KA1999N-00281MW1001
0043011990999991953050712004+68750+023550FM-12+038299999V0202401N002619999999N0100001N9+00391+99999999999ADDAY101999GF105991999999999999999999MW1001
0043011990999991953050718004+68750+023550FM-12+038299999V0202701N002619999999N0040001N9+00221+99999999999ADDAY101999GF106991999999999999999999MW1001
0056011990999991953050806004+68750+023550FM-12+038299999V0202801N002619999999N0040001N9+00281+99999999999ADDAY101999GF106991999999999999999999KA1999N-00221MW1001
0043011990999991953050812004+68750+023550FM-12+038299999V0203001N001019999999N0040001N9+00391+99999999999ADDAY101999GF107991999999999999999999MW1001
0043011990999991953050818004+68750+023550FM-12+038299999V0202401N001019999999N0040001N9+00281+99999999999ADDAY101999GF106991999999999999999999MW1001
0056011990999991953050906004+68750+023550FM-12+038299999V0200901N00261220001CN0040001N9+00111+99999999999ADDAY101999GF104991999999999999999999KA1999N+00001MW1001
0043011990999991953050912004+68750+023550FM-12+038299999V0200801N00261220001CN0100001N9+00221+99999999999ADDAY101999GF103991999999999999999999MW1001
0043011990999991953050918004+68750+023550FM-12+038299999V0201001N002619999999N0040001N9+00111+99999999999ADDAY101999GF108991999999999999999999MW1001
0056011990999991953051006004+68750+023550FM-12+038299999V0201301N002619999999N0020001N9+00111+99999999999ADDAY101999GF108991999999999999999999KA1999N+00001MW1001
0043011990999991953051012004+68750+023550FM-12+038299999V0202201N001019999999N0010001N9+00221+99999999999ADDAY101999GF108991999999999999999999MW1001
0054011990999991953051018004+68750+023550FM-12+038299999V0201201N002619999999N0010001N9+00111+99999999999ADDAA199001091AY161999GF108991999999999999999999MW1611
0067011990999991953051106004+68750+023550FM-12+038299999V0201001N004619999999N0010001N9-00111+99999999999ADDAA199001091AY171999GF107991999999999999999999KA1999N-00111MW1361
0043011990999991953051112004+68750+023550FM-12+038299999V0201201N002619999999N0010001N9+00111+99999999999ADDAY171999GF108991999999999999999999MW1681
0054011990999991953051118004+68750+023550FM-12+038299999V0201301N002619999999N0005001N9+00111+99999999999ADDAA199001091AY171999GF108991999999999999999999MW1681
0067011990999991953051206004+68750+023550FM-12+038299999V0201801N002619999999N0040001N9+00221+99999999999ADDAA199000591AY161999GF107991999999999999999999KA1999N+00001MW1001
0043011990999991953051212004+68750+023550FM-12+038299999V0202101N00461220001CN0100001N9+00501+99999999999ADDAY101999GF104991999999999999999999MW1001
0043011990999991953051218004+68750+023550FM-12+038299999V0202401N001019999999N0040001N9+00501+99999999999ADDAY101999GF107991999999999999999999MW1001
0067011990999991953051306004+68750+023550FM-12+038299999V0201201N002619999999N0005001N9+00001+99999999999ADDAA199000591AY171999GF108991999999999999999999KA1999N+00001MW1691
0043011990999991953051312004+68750+023550FM-12+038299999V0202401N002619999999N0020001N9+00221+99999999999ADDAY171999GF107991999999999999999999MW1001
0054011990999991953051318004+68750+023550FM-12+038299999V0200601N002619999999N0020001N9+00221+99999999999ADDAA199000591AY101999GF106991999999999999999999MW1001
0067011990999991953051406004+68750+023550FM-12+038299999V0201801N002619999999N0020001N9+00111+99999999999ADDAA199001091AY171999GF107991999999999999999999KA1999N+00001MW1001
0043011990999991953051412004+68750+023550FM-12+038299999V0201801N001019999999N0040001N9+00391+99999999999ADDAY101999GF107991999999999999999999MW1001
0054011990999991953051418004+68750+023550FM-12+038299999V0201801N002619999999N0010001N9+00221+99999999999ADDAA199003091AY161999GF108991999999999999999999MW1631
0067011990999991953051506004+68750+023550FM-12+038299999V0203201N00101220001CN0040001N9+00111+99999999999ADDAA199000391AY151999GF103991999999999999999999KA1999N+00001MW1001
0043011990999991953051512004+68750+023550FM-12+038299999V0203501N00261220001CN0100001N9+00391+99999999999ADDAY101999GF103991999999999999999999MW1001
0043011990999991953051518004+68750+023550FM-12+038299999V0202301N00261220001CN0100001N9+00391+99999999999ADDAY101999GF101991999999999999999999MW1001
0056011990999991953051606004+68750+023550FM-12+038299999V0201001N00261220001CN0100001N9+00221+99999999999ADDAY101999GF104991999999999999999999KA1999N-00111MW1001
0043011990999991953051612004+68750+023550FM-12+038299999V0201101N002619999999N0010001N9+00501+99999999999ADDAY101999GF108991999999999999999999MW1531
0054011990999991953051618004+68750+023550FM-12+038299999V0201801N009319999999N0005001N9+00721+99999999999ADDAA199001091AY161999GF107991999999999999999999MW1611
0067011990999991953051706004+68750+023550FM-12+038299999V0202201N002619999999N0040001N9+00611+99999999999ADDAA199003091AY161999GF105991999999999999999999KA1999N+00221MW1531
0043011990999991953051712004+68750+023550FM-12+038299999V0201601N002619999999N0040001N9+00721+99999999999ADDAY151999GF107991999999999999999999MW1531
0054011990999991953051718004+68750+023550FM-12+038299999V0203301N001019999999N0040001N9+00501+99999999999ADDAA199000591AY161999GF107991999999999999999999MW1611
0067011990999991953051806004+68750+023550FM-12+038299999V0200801N001019999999N0020001N9+00221+99999999999ADDAA199000391AY151999GF107991999999999999999999KA1999N+00111MW1531
0043011990999991953051812004+68750+023550FM-12+038299999V0201501N002619999999N0100001N9+00611+99999999999ADDAY101999GF105991999999999999999999MW1001
0043011990999991953051818004+68750+023550FM-12+038299999V0201001N002619999999N0100001N9+00721+99999999999ADDAY101999GF105991999999999999999999MW1001
0067011990999991953051906004+68750+023550FM-12+038299999V0200801N002619999999N0040001N9+00391+99999999999ADDAA199009091AY161999GF108991999999999999999999KA1999N+00281MW1631
0043011990999991953051912004+68750+023550FM-12+038299999V0202301N002619999999N0100001N9+00891+99999999999ADDAY101999GF106991999999999999999999MW1001
0043011990999991953051918004+68750+023550FM-12+038299999V0202701N00461220001CN0100001N9+01001+99999999999ADDAY101999GF101991999999999999999999MW1001
0056011990999991953052006004+68750+023550FM-12+038299999V0202801N00461220001CN0100001N9+00721+99999999999ADDAY101999GF101991999999999999999999KA1999N+00221MW1001
0043011990999991953052012004+68750+023550FM-12+038299999V0202701N00261220001CN0100001N9+01111+99999999999ADDAY101999GF102991999999999999999999MW1001
0043011990999991953052018004+68750+023550FM-12+038299999V0200901N00261220001CN0100001N9+01001+99999999999ADDAY101999GF101991999999999999999999MW1001
0067011990999991953052106004+68750+023550FM-12+038299999V0201501N002619999999N0010001N9+00611+99999999999ADDAA199006091AY161999GF108991999999999999999999KA1999N+00281MW1631
0043011990999991953052112004+68750+023550FM-12+038299999V0203201N004619999999N0005001N9+00611+99999999999ADDAY161999GF108991999999999999999999MW1631
0054011990999991953052118004+68750+023550FM-12+038299999V0203301N00671220001CN0100001N9+00281+99999999999ADDAA199008091AY161999GF103991999999999999999999MW1001
0056011990999991953052206004+68750+023550FM-12+038299999V0203201N00461220001CN0100001N9+00391+99999999999ADDAY101999GF102991999999999999999999KA1999N-00111MW1001
0043011990999991953052212004+68750+023550FM-12+038299999V0202701N00261220001CN0100001N9+00721+99999999999ADDAY101999GF102991999999999999999999MW1001
0043011990999991953052218004+68750+023550FM-12+038299999V0202201N00101220001CN0100001N9+00891+99999999999ADDAY101999GF102991999999999999999999MW1001
0056011990999991953052306004+68750+023550FM-12+038299999V0200301N002619999999N0040001N9+00281+99999999999ADDAY101999GF108991999999999999999999KA1999N+00001MW1001
0043011990999991953052312004+68750+023550FM-12+038299999V0200301N002619999999N0040001N9+00391+99999999999ADDAY101999GF107991999999999999999999MW1001
0054011990999991953052318004+68750+023550FM-12+038299999V0200101N002619999999N0010001N9+00221+99999999999ADDAA199000391AY171999GF107991999999999999999999MW1681
0056011990999991953052406004+68750+023550FM-12+038299999V0203201N00261220001CN0100001N9-00111+99999999999ADDAY101999GF101991999999999999999999KA1999N-00501MW1001
0043011990999991953052412004+68750+023550FM-12+038299999V0203101N00461220001CN0100001N9+00221+99999999999ADDAY181999GF103991999999999999999999MW1001
0054011990999991953052418004+68750+023550FM-12+038299999V0203301N00671220001CN0100001N9+00001+99999999999ADDAA199000391AY101999GF102991999999999999999999MW1001
0056011990999991953052506004+68750+023550FM-12+038299999V0202901N00461220001CN0100001N9-00111+99999999999ADDAY101999GF103991999999999999999999KA1999N-00501MW1001
0043011990999991953052512004+68750+023550FM-12+038299999V0203001N00461220001CN0100001N9+00221+99999999999ADDAY101999GF104991999999999999999999MW1001
0043011990999991953052518004+68750+023550FM-12+038299999V0202901N00261220001CN0100001N9+00111+99999999999ADDAY101999GF103991999999999999999999MW1001
0056011990999991953052606004+68750+023550FM-12+038299999V0201101N002619999999N0040001N9+00001+99999999999ADDAY101999GF107991999999999999999999KA1999N-00611MW1001
0043011990999991953052612004+68750+023550FM-12+038299999V0203001N001019999999N0040001N9+00281+99999999999ADDAY171999GF106991999999999999999999MW1681
0054011990999991953052618004+68750+023550FM-12+038299999V0200101N002619999999N0040001N9+00221+99999999999ADDAA199000591AY171999GF107991999999999999999999MW1001
0056011990999991953052706004+68750+023550FM-12+038299999V0203601N00261220001CN0100001N9+00111+99999999999ADDAY101999GF104991999999999999999999KA1999N-00501MW1001
0043011990999991953052712004+68750+023550FM-12+038299999V0200301N002619999999N0040001N9+00281+99999999999ADDAY101999GF107991999999999999999999MW1681
0054011990999991953052718004+68750+023550FM-12+038299999V0203501N002619999999N0040001N9+00221+99999999999ADDAA199000391AY171999GF106991999999999999999999MW1001
0056011990999991953052806004+68750+023550FM-12+038299999V0203001N00261220001CN0100001N9+00111+99999999999ADDAY101999GF102991999999999999999999KA1999N-00501MW1001
0043011990999991953052812004+68750+023550FM-12+038299999V0203601N004619999999N0040001N9+00111+99999999999ADDAY101999GF106991999999999999999999MW1681
0054011990999991953052818004+68750+023550FM-12+038299999V0203401N00261220001CN0040001N9+00111+99999999999ADDAA199000691AY101999GF103991999999999999999999MW1001
0056011990999991953052906004+68750+023550FM-12+038299999V0202701N00261220001CN0100001N9+00111+99999999999ADDAY101999GF102991999999999999999999KA1999N-00391MW1001
0043011990999991953052912004+68750+023550FM-12+038299999V0202601N00461220001CN0100001N9+00391+99999999999ADDAY101999GF103991999999999999999999MW1001
0043011990999991953052918004+68750+023550FM-12+038299999V0202701N002619999999N0040001N9+00221+99999999999ADDAY101999GF106991999999999999999999MW1001
0056011990999991953053006004+68750+023550FM-12+038299999V0202701N004619999999N0040001N9+00221+99999999999ADDAY101999GF106991999999999999999999KA1999N-00221MW1001
0043011990999991953053012004+68750+023550FM-12+038299999V0202701N004619999999N0010001N9+00391+99999999999ADDAY101999GF107991999999999999999999MW1681
0054011990999991953053018004+68750+023550FM-12+038299999V0202701N004619999999N0040001N9+00391+99999999999ADDAA199000691AY101999GF106991999999999999999999MW1001
0056011990999991953053106004+68750+023550FM-12+038299999V0202701N00461220001CN0100001N9+00611+99999999999ADDAY101999GF102991999999999999999999KA1999N+00111MW1001
0043011990999991953053112004+68750+023550FM-12+038299999V0202701N002619999999N0040001N9+00781+99999999999ADDAY101999GF106991999999999999999999MW1001
0043011990999991953053118004+68750+023550FM-12+038299999V0203601N002619999999N0040001N9+00611+99999999999ADDAY101999GF107991999999999999999999MW1001
0067011990999991953060106004+68750+023550FM-12+038299999V0200801N002619999999N0010001N9+00221+99999999999ADDAA199002091AY161999GF108991999999999999999999KA1999N+00111MW1631
0043011990999991953060112004+68750+023550FM-12+038299999V0203301N002619999999N0010001N9+00611+99999999999ADDAY161999GF108991999999999999999999MW1611
0054011990999991953060118004+68750+023550FM-12+038299999V0200301N002619999999N0100001N9+00501+99999999999ADDAA199000591AY151999GF106991999999999999999999MW1001
0056011990999991953060206004+68750+023550FM-12+038299999V0200801N002619999999N0040001N9+00281+99999999999ADDAY101999GF107991999999999999999999KA1999N+00111MW1001
0043011990999991953060212004+68750+023550FM-12+038299999V0200901N001019999999N0100001N9+01111+99999999999ADDAY101999GF106991999999999999999999MW1001
0043011990999991953060218004+68750+023550FM-12+038299999V0200901N00261220001CN0100001N9+01111+99999999999ADDAY101999GF103991999999999999999999MW1001
0067011990999991953060306004+68750+023550FM-12+038299999V0200901N002619999999N0010001N9+00611+99999999999ADDAA199006091AY161999GF108991999999999999999999KA1999N+00281MW1631
0043011990999991953060312004+68750+023550FM-12+038299999V0201101N002619999999N0020001N9+00891+99999999999ADDAY161999GF108991999999999999999999MW1101
0054011990999991953060318004+68750+023550FM-12+038299999V0200901N001019999999N0005001N9+01001+99999999999ADDAA199003091AY141999GF106991999999999999999999MW1421
0067011990999991953060406004+68750+023550FM-12+038299999V0200301N001019999999N0040001N9+00781+99999999999ADDAA199002091AY161999GF107991999999999999999999KA1999N+00501MW1531
0043011990999991953060412004+68750+023550FM-12+038299999V0200501N002619999999N0020001N9+00781+99999999999ADDAY191999GF108991999999999999999999MW1961
0054011990999991953060418004+68750+023550FM-12+038299999V0200801N002619999999N0040001N9+00721+99999999999ADDAA199006091AY191999GF107991999999999999999999MW1001
0056011990999991953060506004+68750+023550FM-12+038299999V0201601N00461220001CN0100001N9+01391+99999999999ADDAY141999GF101991999999999999999999KA1999N+00281MW1001
0043011990999991953060512004+68750+023550FM-12+038299999V0201601N006719999999N0040001N9+01281+99999999999ADDAY101999GF108991999999999999999999MW1631
0054011990999991953060518004+68750+023550FM-12+038299999V0201901N004619999999N0040001N9+01111+99999999999ADDAA199000591AY161999GF107991999999999999999999MW1001
0056011990999991953060606004+68750+023550FM-12+038299999V0201901N002619999999N0100001N9+00891+99999999999ADDAY101999GF106991999999999999999999KA1999N+00721MW1001
0043011990999991953060612004+68750+023550FM-12+038299999V0203401N004619999999N0100001N9+01391+99999999999ADDAY101999GF106991999999999999999999MW1001
0043011990999991953060618004+68750+023550FM-12+038299999V0200401N002619999999N0100001N9+00721+99999999999ADDAY101999GF106991999999999999999999MW1001
0067011990999991953060706004+68750+023550FM-12+038299999V0200801N002619999999N0010001N9+00391+99999999999ADDAA199000591AY161999GF108991999999999999999999KA1999N+00281MW1531
0043011990999991953060712004+68750+023550FM-12+038299999V0200701N001019999999N0040001N9+00781+99999999999ADDAY101999GF107991999999999999999999MW1001
0043011990999991953060718004+68750+023550FM-12+038299999V0200501N002619999999N0040001N9+01001+99999999999ADDAY141999GF107991999999999999999999MW1051
0056011990999991953060806004+68750+023550FM-12+038299999V0200901N00261220001CN0100001N9+01001+99999999999ADDAY101999GF101991999999999999999999KA1999N+00391MW1001
0043011990999991953060812004+68750+023550FM-12+038299999V0200901N00101220001CN0100001N9+01391+99999999999ADDAY141999GF103991999999999999999999MW1051
0043011990999991953060818004+68750+023550FM-12+038299999V0209991C00001220001CN0100001N9+01611+99999999999ADDAY141999GF103991999999999999999999MW1051
0056011990999991953060906004+68750+023550FM-12+038299999V0200901N00101220001CN0100001N9+01001+99999999999ADDAY101999GF103991999999999999999999KA1999N+00721MW1001
0043011990999991953060912004+68750+023550FM-12+038299999V0203201N00261220001CN0100001N9+01721+99999999999ADDAY101999GF101991999999999999999999MW1001
0043011990999991953060918004+68750+023550FM-12+038299999V0200401N00261220001CN0100001N9+01721+99999999999ADDAY101999GF100991999999999999999999MW1001
0056011990999991953061006004+68750+023550FM-12+038299999V0209991C00001220001CN0100001N9+01391+99999999999ADDAY101999GF101991999999999999999999KA1999N+00721MW1001
0043011990999991953061012004+68750+023550FM-12+038299999V0200901N00101220001CN0100001N9+02001+99999999999ADDAY101999GF102991999999999999999999MW1001
0043011990999991953061018004+68750+023550FM-12+038299999V0201501N00101220001CN0100001N9+02001+99999999999ADDAY101999GF102991999999999999999999MW1001
0056011990999991953061106004+68750+023550FM-12+038299999V0209991C00001220001CN0100001N9+01721+99999999999ADDAY101999GF104991999999999999999999KA1999N+01001MW1001
0043011990999991953061112004+68750+023550FM-12+038299999V0209991C00001220001CN0100001N9+02001+99999999999ADDAY141999GF103991999999999999999999MW1051
0043011990999991953061118004+68750+023550FM-12+038299999V0200201N00261220001CN0100001N9+01781+99999999999ADDAY141999GF103991999999999999999999MW1001
0056011990999991953061206004+68750+023550FM-12+038299999V0209991C000019999999N0100001N9+01501+99999999999ADDAY101999GF105991999999999999999999KA1999N+01111MW1051
0043011990999991953061212004+68750+023550FM-12+038299999V0202501N00101220001CN0100001N9+02281+99999999999ADDAY141999GF104991999999999999999999MW1051
0043011990999991953061218004+68750+023550FM-12+038299999V0200401N00261220001CN0100001N9+02111+99999999999ADDAY141999GF103991999999999999999999MW1001
0056011990999991953061306004+68750+023550FM-12+038299999V0200901N00261220001CN0100001N9+01391+99999999999ADDAY101999GF101991999999999999999999KA1999N+01001MW1051
0043011990999991953061312004+68750+023550FM-12+038299999V0201301N00261220001CN0100001N9+02221+99999999999ADDAY141999GF102991999999999999999999MW1051
0043011990999991953061318004+68750+023550FM-12+038299999V0200801N00461220001CN0100001N9+02001+99999999999ADDAY141999GF101991999999999999999999MW1001
0056011990999991953061406004+68750+023550FM-12+038299999V0201201N00261220001CN0100001N9+01611+99999999999ADDAY101999GF102991999999999999999999KA1999N+01221MW1001
0043011990999991953061412004+68750+023550FM-12+038299999V0201201N00261220001CN0100001N9+02391+99999999999ADDAY141999GF101991999999999999999999MW1051
0043011990999991953061418004+68750+023550FM-12+038299999V0200701N00261220001CN0100001N9+02001+99999999999ADDAY141999GF103991999999999999999999MW1051
0056011990999991953061506004+68750+023550FM-12+038299999V0201501N00261220001CN0100001N9+01781+99999999999ADDAY101999GF100991999999999999999999KA1999N+01391MW1001
0043011990999991953061512004+68750+023550FM-12+038299999V0200901N00461220001CN0100001N9+02111+99999999999ADDAY101999GF101991999999999999999999MW1001
0043011990999991953061518004+68750+023550FM-12+038299999V0201301N00261220001CN0100001N9+02111+99999999999ADDAY101999GF101991999999999999999999MW1001
0056011990999991953061606004+68750+023550FM-12+038299999V0201401N00261220001CN0100001N9+01611+99999999999ADDAY141999GF101991999999999999999999KA1999N+01281MW1051
0043011990999991953061612004+68750+023550FM-12+038299999V0201401N00461220001CN0100001N9+02001+99999999999ADDAY141999GF101991999999999999999999MW1051
0043011990999991953061618004+68750+023550FM-12+038299999V0201401N00461220001CN0100001N9+02001+99999999999ADDAY101999GF101991999999999999999999MW1001
0056011990999991953061706004+68750+023550FM-12+038299999V0201201N002619999999N0100001N9+01391+99999999999ADDAY101999GF105991999999999999999999KA1999N+01001MW1001
0043011990999991953061712004+68750+023550FM-12+038299999V0201901N002619999999N0100001N9+01611+99999999999ADDAY101999GF107991999999999999999999MW1001
0043011990999991953061718004+68750+023550FM-12+038299999V0201701N00261220001CN0100001N9+01781+99999999999ADDAY101999GF104991999999999999999999MW1001
0056011990999991953061806004+68750+023550FM-12+038299999V0209991C00001220001CN0100001N9+01891+99999999999ADDAY101999GF101991999999999999999999KA1999N+01391MW1001
0043011990999991953061812004+68750+023550FM-12+038299999V0201001N00261220001CN0100001N9+02221+99999999999ADDAY101999GF102991999999999999999999MW1001
0043011990999991953061818004+68750+023550FM-12+038299999V0201201N00461220001CN0100001N9+02111+99999999999ADDAY101999GF101991999999999999999999MW1001
0056011990999991953061906004+68750+023550FM-12+038299999V0201401N00261220001CN0100001N9+02001+99999999999ADDAY101999GF101991999999999999999999KA1999N+01281MW1001
0043011990999991953061912004+68750+023550FM-12+038299999V0201701N00461220001CN0100001N9+02221+99999999999ADDAY101999GF103991999999999999999999MW1001
0043011990999991953061918004+68750+023550FM-12+038299999V0201501N00101220001CN0100001N9+02111+99999999999ADDAY101999GF101991999999999999999999MW1001
0056011990999991953062006004+68750+023550FM-12+038299999V0201901N00101220001CN0100001N9+02111+99999999999ADDAY101999GF100991999999999999999999KA1999N+01391MW1001
0043011990999991953062012004+68750+023550FM-12+038299999V0201301N00461220001CN0100001N9+02281+99999999999ADDAY141999GF102991999999999999999999MW1051
0043011990999991953062018004+68750+023550FM-12+038299999V0201301N00461220001CN0100001N9+02281+99999999999ADDAY141999GF101991999999999999999999MW1051
0056011990999991953062106004+68750+023550FM-12+038299999V0200701N00261220001CN0100001N9+02111+99999999999ADDAY141999GF101991999999999999999999KA1999N+01501MW1051
0043011990999991953062112004+68750+023550FM-12+038299999V0201501N00461220001CN0100001N9+02281+99999999999ADDAY141999GF101991999999999999999999MW1051
0043011990999991953062118004+68750+023550FM-12+038299999V0202201N00461220001CN0100001N9+02221+99999999999ADDAY141999GF102991999999999999999999MW1051
0056011990999991953062206004+68750+023550FM-12+038299999V0201601N002619999999N0040001N9+01721+99999999999ADDAY141999GF107991999999999999999999KA1999N+01281MW1051
0043011990999991953062212004+68750+023550FM-12+038299999V0201101N00261220001CN0100001N9+02111+99999999999ADDAY141999GF103991999999999999999999MW1051
0054011990999991953062218004+68750+023550FM-12+038299999V0200901N004619999999N0040001N9+01781+99999999999ADDAA199000591AY191999GF106991999999999999999999MW1961
0056011990999991953062306004+68750+023550FM-12+038299999V0202601N00261220001CN0040001N9+01891+99999999999ADDAY141999GF100991999999999999999999KA1999N+01111MW1051
0043011990999991953062312004+68750+023550FM-12+038299999V0200401N00261220001CN0100001N9+02281+99999999999ADDAY141999GF103991999999999999999999MW1051
0043011990999991953062318004+68750+023550FM-12+038299999V0200401N00261220001CN0040001N9+02111+99999999999ADDAY141999GF104991999999999999999999MW1051
0056011990999991953062406004+68750+023550FM-12+038299999V0202701N00261220001CN0100001N9+01891+99999999999ADDAY141999GF102991999999999999999999KA1999N+01221MW1051
0043011990999991953062412004+68750+023550FM-12+038299999V0203001N00461220001CN0100001N9+02391+99999999999ADDAY141999GF101991999999999999999999MW1051
0043011990999991953062418004+68750+023550FM-12+038299999V0203101N00261220001CN0040001N9+02221+99999999999ADDAY141999GF100991999999999999999999MW1051
0056011990999991953062506004+68750+023550FM-12+038299999V0202801N00261220001CN0100001N9+01891+99999999999ADDAY141999GF103991999999999999999999KA1999N+01391MW1051
0043011990999991953062512004+68750+023550FM-12+038299999V0203301N00671220001CN0100001N9+02221+99999999999ADDAY141999GF101991999999999999999999MW1051
0043011990999991953062518004+68750+023550FM-12+038299999V0203501N00671220001CN0100001N9+01611+99999999999ADDAY141999GF101991999999999999999999MW1001
0056011990999991953062606004+68750+023550FM-12+038299999V0200201N004619999999N0100001N9+00721+99999999999ADDAY101999GF105991999999999999999999KA1999N+00501MW1001
0043011990999991953062612004+68750+023550FM-12+038299999V0200401N00261220001CN0100001N9+01281+99999999999ADDAY101999GF101991999999999999999999MW1001
0043011990999991953062618004+68750+023550FM-12+038299999V0200401N00461220001CN0100001N9+01281+99999999999ADDAY101999GF100991999999999999999999MW1001
0056011990999991953062706004+68750+023550FM-12+038299999V0202701N00101220001CN0100001N9+01221+99999999999ADDAY101999GF100991999999999999999999KA1999N+00501MW1001
0043011990999991953062712004+68750+023550FM-12+038299999V0200301N00261220001CN0100001N9+02001+99999999999ADDAY101999GF100991999999999999999999MW1001
0043011990999991953062718004+68750+023550FM-12+038299999V0200801N00261220001CN0100001N9+02001+99999999999ADDAY101999GF101991999999999999999999MW1001
0056011990999991953062806004+68750+023550FM-12+038299999V0209991C00001220001CN0100001N9+01891+99999999999ADDAY101999GF101991999999999999999999KA1999N+01001MW1001
0043011990999991953062812004+68750+023550FM-12+038299999V0200201N00261220001CN0100001N9+02281+99999999999ADDAY101999GF101991999999999999999999MW1001
0043011990999991953062818004+68750+023550FM-12+038299999V0200101N00461220001CN0100001N9+01781+99999999999ADDAY101999GF101991999999999999999999MW1001
0056011990999991953062906004+68750+023550FM-12+038299999V0200301N001019999999N0040001N9+01221+99999999999ADDAY141999GF107991999999999999999999KA1999N+00891MW1051
0043011990999991953062912004+68750+023550FM-12+038299999V0203401N002619999999N0100001N9+01501+99999999999ADDAY101999GF106991999999999999999999MW1001
0043011990999991953062918004+68750+023550FM-12+038299999V0200301N002619999999N0100001N9+01391+99999999999ADDAY101999GF105991999999999999999999MW1001
0056011990999991953063006004+68750+023550FM-12+038299999V0203601N002619999999N0040001N9+01221+99999999999ADDAY101999GF108991999999999999999999KA1999N+00721MW1001
0043011990999991953063012004+68750+023550FM-12+038299999V0203301N002619999999N0100001N9+01391+99999999999ADDAY101999GF107991999999999999999999MW1001
0043011990999991953063018004+68750+023550FM-12+038299999V0209991C00001220001CN0100001N9+01611+99999999999ADDAY101999GF104991999999999999999999MW1001
0056011990999991953070106004+68750+023550FM-12+038299999V0202701N002619999999N0100001N9+01391+99999999999ADDAY101999GF106991999999999999999999KA1999N+01001MW1051
0043011990999991953070112004+68750+023550FM-12+038299999V0202401N004619999999N0040001N9+01281+99999999999ADDAY101999GF107991999999999999999999MW1531
0054011990999991953070118004+68750+023550FM-12+038299999V0203201N002619999999N0020001N9+01111+99999999999ADDAA199001091AY161999GF107991999999999999999999MW1631
0067011990999991953070206004+68750+023550FM-12+038299999V0203401N002619999999N0100001N9+01221+99999999999ADDAA199001091AY161999GF105991999999999999999999KA1999N+00781MW1001
0043011990999991953070212004+68750+023550FM-12+038299999V0202401N001019999999N0100001N9+01221+99999999999ADDAY181999GF106991999999999999999999MW1001
0054011990999991953070218004+68750+023550FM-12+038299999V0200301N001019999999N0040001N9+01111+99999999999ADDAA199006091AY161999GF106991999999999999999999MW1631
0067011990999991953070306004+68750+023550FM-12+038299999V0203301N00261220001CN0100001N9+01001+99999999999ADDAA199002091AY161999GF103991999999999999999999KA1999N+00721MW1001
0043011990999991953070312004+68750+023550FM-12+038299999V0203001N00101220001CN0100001N9+01501+99999999999ADDAY101999GF103991999999999999999999MW1001
0054011990999991953070318004+68750+023550FM-12+038299999V0200301N002619999999N0040001N9+01111+99999999999ADDAA199002091AY161999GF106991999999999999999999MW1611
0067011990999991953070406004+68750+023550FM-12+038299999V0203401N002619999999N0040001N9+00781+99999999999ADDAA199002091AY161999GF107991999999999999999999KA1999N+00611MW1531
0043011990999991953070412004+68750+023550FM-12+038299999V0203601N002619999999N0100001N9+00891+99999999999ADDAY161999GF106991999999999999999999MW1531
0054011990999991953070418004+68750+023550FM-12+038299999V0203401N00461220001CN0100001N9+00781+99999999999ADDAA199000391AY151999GF104991999999999999999999MW1001
0056011990999991953070506004+68750+023550FM-12+038299999V0203401N00461220001CN0100001N9+00721+99999999999ADDAY101999GF103991999999999999999999KA1999N+00221MW1001
0043011990999991953070512004+68750+023550FM-12+038299999V0203601N006719999999N0100001N9+00781+99999999999ADDAY101999GF105991999999999999999999MW1001
0043011990999991953070518004+68750+023550FM-12+038299999V0203601N00671220001CN0100001N9+00781+99999999999ADDAY101999GF104991999999999999999999MW1001
0056011990999991953070606004+68750+023550FM-12+038299999V0200301N006719999999N0100001N9+00391+99999999999ADDAY101999GF108991999999999999999999KA1999N+00281MW1001
0043011990999991953070612004+68750+023550FM-12+038299999V0200601N002619999999N0100001N9+00781+99999999999ADDAY101999GF107991999999999999999999MW1001
0043011990999991953070618004+68750+023550FM-12+038299999V0200501N004619999999N0040001N9+01781+99999999999ADDAY101999GF105991999999999999999999MW1001
0056011990999991953070706004+68750+023550FM-12+038299999V0200901N00461220001CN0040001N9+00501+99999999999ADDAY101999GF104991999999999999999999KA1999N+00391MW1001
0043011990999991953070712004+68750+023550FM-12+038299999V0200901N00261220001CN0100001N9+00891+99999999999ADDAY101999GF103991999999999999999999MW1001
0043011990999991953070718004+68750+023550FM-12+038299999V0201001N00261220001CN0100001N9+01001+99999999999ADDAY101999GF102991999999999999999999MW1001
0056011990999991953070806004+68750+023550FM-12+038299999V0201201N00261220001CN0100001N9+00781+99999999999ADDAY101999GF101991999999999999999999KA1999N+00281MW1001
0043011990999991953070812004+68750+023550FM-12+038299999V0201101N00261220001CN0100001N9+01111+99999999999ADDAY101999GF103991999999999999999999MW1001
0043011990999991953070818004+68750+023550FM-12+038299999V0201201N00261220001CN0100001N9+01221+99999999999ADDAY101999GF103991999999999999999999MW1001
0056011990999991953070906004+68750+023550FM-12+038299999V0200901N00461220001CN0100001N9+00781+99999999999ADDAY101999GF101991999999999999999999KA1999N+00501MW1001
0043011990999991953070912004+68750+023550FM-12+038299999V0201001N00261220001CN0100001N9+01221+99999999999ADDAY101999GF101991999999999999999999MW1001
0043011990999991953070918004+68750+023550FM-12+038299999V0200501N00461220001CN0100001N9+01221+99999999999ADDAY101999GF102991999999999999999999MW1001
0056011990999991953071006004+68750+023550FM-12+038299999V0202201N00461220001CN0100001N9+01111+99999999999ADDAY101999GF101991999999999999999999KA1999N+00281MW1001
0043011990999991953071012004+68750+023550FM-12+038299999V0202401N00101220001CN0100001N9+01721+99999999999ADDAY101999GF103991999999999999999999MW1001
0043011990999991953071018004+68750+023550FM-12+038299999V0203201N00461220001CN0100001N9+01501+99999999999ADDAY101999GF104991999999999999999999MW1001
0056011990999991953071106004+68750+023550FM-12+038299999V0203201N002619999999N0100001N9+01391+99999999999ADDAY101999GF106991999999999999999999KA1999N+00391MW1001
0043011990999991953071112004+68750+023550FM-12+038299999V0209991C000019999999N0100001N9+01781+99999999999ADDAY101999GF105991999999999999999999MW1001
0054011990999991953071118004+68750+023550FM-12+038299999V0200301N002619999999N0040001N9+01611+99999999999ADDAA199000691AY101999GF106991999999999999999999MW1531
0067011990999991953071206004+68750+023550FM-12+038299999V0200901N002619999999N0020001N9+01111+99999999999ADDAA199001091AY161999GF108991999999999999999999KA1999N+00891MW1631
0043011990999991953071212004+68750+023550FM-12+038299999V0200601N00261220001CN0100001N9+01611+99999999999ADDAY101999GF102991999999999999999999MW1001
0054011990999991953071218004+68750+023550FM-12+038299999V0203201N001019999999N0040001N9+01111+99999999999ADDAA199003091AY191999GF106991999999999999999999MW1001
0067011990999991953071306004+68750+023550FM-12+038299999V0200401N002619999999N0010001N9+01111+99999999999ADDAA199005091AY161999GF108991999999999999999999KA1999N+01001MW1531
0043011990999991953071312004+68750+023550FM-12+038299999V0200501N002619999999N0040001N9+01281+99999999999ADDAY101999GF107991999999999999999999MW1001
0043011990999991953071318004+68750+023550FM-12+038299999V0200901N00461220001CN0100001N9+01501+99999999999ADDAY101999GF103991999999999999999999MW1001
0056011990999991953071406004+68750+023550FM-12+038299999V0200801N001019999999N0010001N9+01001+99999999999ADDAY141999GF107991999999999999999999KA1999N+00501MW1101
0043011990999991953071412004+68750+023550FM-12+038299999V0201001N00101220001CN0100001N9+01891+99999999999ADDAY101999GF102991999999999999999999MW1001
0043011990999991953071418004+68750+023550FM-12+038299999V0201301N00261220001CN0100001N9+01891+99999999999ADDAY101999GF101991999999999999999999MW1001
0056011990999991953071506004+68750+023550FM-12+038299999V0202001N00261220001CN0100001N9+01611+99999999999ADDAY101999GF102991999999999999999999KA1999N+01111MW1001
0043011990999991953071512004+68750+023550FM-12+038299999V0201801N00261220001CN0100001N9+02111+99999999999ADDAY101999GF102991999999999999999999MW1001
0043011990999991953071518004+68750+023550FM-12+038299999V0201501N00261220001CN0100001N9+02001+99999999999ADDAY101999GF102991999999999999999999MW1001
0056011990999991953071606004+68750+023550FM-12+038299999V0201701N00261220001CN0100001N9+01611+99999999999ADDAY101999GF101991999999999999999999KA1999N+00891MW1001
0043011990999991953071612004+68750+023550FM-12+038299999V0201601N00461220001CN0100001N9+01781+99999999999ADDAY101999GF103991999999999999999999MW1001
0043011990999991953071618004+68750+023550FM-12+038299999V0201601N00261220001CN0100001N9+01781+99999999999ADDAY101999GF101991999999999999999999MW1001
0056011990999991953071706004+68750+023550FM-12+038299999V0201301N00261220001CN0100001N9+01391+99999999999ADDAY101999GF103991999999999999999999KA1999N+01111MW1001
0043011990999991953071712004+68750+023550FM-12+038299999V0201501N002619999999N0040001N9+01721+99999999999ADDAY101999GF107991999999999999999999MW1051
0054011990999991953071718004+68750+023550FM-12+038299999V0201501N004619999999N0040001N9+01281+99999999999ADDAA199000691AY151999GF107991999999999999999999MW1001
0056011990999991953071806004+68750+023550FM-12+038299999V0201801N00261220001CN0100001N9+01391+99999999999ADDAY101999GF103991999999999999999999KA1999N+01001MW1001
0043011990999991953071812004+68750+023550FM-12+038299999V0202101N004619999999N0100001N9+01721+99999999999ADDAY101999GF106991999999999999999999MW1001
0043011990999991953071818004+68750+023550FM-12+038299999V0201601N00261220001CN0040001N9+01611+99999999999ADDAY101999GF103991999999999999999999MW1001
0056011990999991953071906004+68750+023550FM-12+038299999V0201201N00261220001CN0100001N9+01391+99999999999ADDAY101999GF104991999999999999999999KA1999N+00891MW1001
0043011990999991953071912004+68750+023550FM-12+038299999V0201501N00261220001CN0100001N9+01891+99999999999ADDAY101999GF103991999999999999999999MW1001
0043011990999991953071918004+68750+023550FM-12+038299999V0201101N00261220001CN0100001N9+01781+99999999999ADDAY101999GF102991999999999999999999MW1001
0056011990999991953072006004+68750+023550FM-12+038299999V0200901N001019999999N0100001N9+01501+99999999999ADDAY101999GF105991999999999999999999KA1999N+01001MW1001
0043011990999991953072012004+68750+023550FM-12+038299999V0203001N002619999999N0040001N9+01611+99999999999ADDAY161999GF106991999999999999999999MW1611
0054011990999991953072018004+68750+023550FM-12+038299999V0200501N001019999999N0100001N9+01721+99999999999ADDAA199001091AY151999GF106991999999999999999999MW1001
0056011990999991953072106004+68750+023550FM-12+038299999V0200101N002619999999N0100001N9+01001+99999999999ADDAY101999GF105991999999999999999999KA1999N+00781MW1001
0043011990999991953072112004+68750+023550FM-12+038299999V0203601N002619999999N0100001N9+01281+99999999999ADDAY101999GF107991999999999999999999MW1001
0054011990999991953072118004+68750+023550FM-12+038299999V0203501N002619999999N0020001N9+01001+99999999999ADDAA199000691AY151999GF108991999999999999999999MW1531
0067011990999991953072206004+68750+023550FM-12+038299999V0203601N002619999999N0040001N9+00781+99999999999ADDAA199001091AY161999GF108991999999999999999999KA1999N+00721MW1531
0043011990999991953072212004+68750+023550FM-12+038299999V0200101N002619999999N0100001N9+01221+99999999999ADDAY101999GF106991999999999999999999MW1001
0054011990999991953072218004+68750+023550FM-12+038299999V0200301N002619999999N0100001N9+01111+99999999999ADDAA199000391AY151999GF107991999999999999999999MW1001
0067011990999991953072306004+68750+023550FM-12+038299999V0201501N00261220001CN0100001N9+01111+99999999999ADDAA199000391AY151999GF102991999999999999999999KA1999N+00891MW1001
0043011990999991953072312004+68750+023550FM-12+038299999V0201901N00261220001CN0100001N9+01891+99999999999ADDAY101999GF103991999999999999999999MW1001
0043011990999991953072318004+68750+023550FM-12+038299999V0200701N00101220001CN0100001N9+01721+99999999999ADDAY101999GF102991999999999999999999MW1001
0056011990999991953072406004+68750+023550FM-12+038299999V0203301N002619999999N0100001N9+01501+99999999999ADDAY101999GF105991999999999999999999KA1999N+00891MW1001
0043011990999991953072412004+68750+023550FM-12+038299999V0201001N001019999999N0100001N9+01721+99999999999ADDAY101999GF106991999999999999999999MW1001
0043011990999991953072418004+68750+023550FM-12+038299999V0201101N002619999999N0100001N9+01611+99999999999ADDAY101999GF106991999999999999999999MW1001
0067011990999991953072506004+68750+023550FM-12+038299999V0200601N004619999999N0020001N9+01111+99999999999ADDAA199000691AY101999GF108991999999999999999999KA1999N+01001MW1531
0043011990999991953072512004+68750+023550FM-12+038299999V0200401N006719999999N0040001N9+01111+99999999999ADDAY161999GF108991999999999999999999MW1101
0054011990999991953072518004+68750+023550FM-12+038299999V0200301N002619999999N0010001N9+01111+99999999999ADDAA199003091AY161999GF108991999999999999999999MW1631
0067011990999991953072606004+68750+023550FM-12+038299999V0200501N004619999999N0010001N9+01001+99999999999ADDAA199003091AY161999GF108991999999999999999999KA1999N+00891MW1611
0043011990999991953072612004+68750+023550FM-12+038299999V0201401N00261220001CN0100001N9+01611+99999999999ADDAY101999GF102991999999999999999999MW1001
0043011990999991953072618004+68750+023550FM-12+038299999V0200501N002619999999N0040001N9+01611+99999999999ADDAY101999GF107991999999999999999999MW1001
0067011990999991953072706004+68750+023550FM-12+038299999V0201201N001019999999N0010001N9+01281+99999999999ADDAA199002091AY191999GF108991999999999999999999KA1999N+01221MW1531
0043011990999991953072712004+68750+023550FM-12+038299999V0202101N002619999999N0100001N9+01721+99999999999ADDAY101999GF107991999999999999999999MW1001
0043011990999991953072718004+68750+023550FM-12+038299999V0201601N002619999999N0100001N9+01781+99999999999ADDAY101999GF105991999999999999999999MW1001
0067011990999991953072806004+68750+023550FM-12+038299999V0200301N002619999999N0020001N9+01501+99999999999ADDAA199000391AY101999GF106991999999999999999999KA1999N+01221MW1611
0043011990999991953072812004+68750+023550FM-12+038299999V0200901N001019999999N0100001N9+01721+99999999999ADDAY191999GF106991999999999999999999MW1001
0054011990999991953072818004+68750+023550FM-12+038299999V0200901N001019999999N0100001N9+01781+99999999999ADDAA199002091AY161999GF106991999999999999999999MW1001
0067011990999991953072906004+68750+023550FM-12+038299999V0201101N002619999999N0020001N9+01391+99999999999ADDAA199004091AY161999GF107991999999999999999999KA1999N+01281MW1101
0043011990999991953072912004+68750+023550FM-12+038299999V0201801N004619999999N0100001N9+01721+99999999999ADDAY191999GF106991999999999999999999MW1001
0054011990999991953072918004+68750+023550FM-12+038299999V0201601N00261220001CN0100001N9+01281+99999999999ADDAA199005091AY181999GF102991999999999999999999MW1001
0067011990999991953073006004+68750+023550FM-12+038299999V0202001N002619999999N0010001N9+01221+99999999999ADDAA199001091AY161999GF108991999999999999999999KA1999N+01111MW1631
0043011990999991953073012004+68750+023550FM-12+038299999V0201801N002619999999N0010001N9+01221+99999999999ADDAY191999GF107991999999999999999999MW1961
0054011990999991953073018004+68750+023550FM-12+038299999V0203201N001019999999N0010001N9+01221+99999999999ADDAA199017091AY191999GF107991999999999999999999MW1651
0067011990999991953073106004+68750+023550FM-12+038299999V0203401N002619999999N0100001N9+00891+99999999999ADDAA199000591AY161999GF107991999999999999999999KA1999N+00781MW1001
0043011990999991953073112004+68750+023550FM-12+038299999V0203501N002619999999N0100001N9+00891+99999999999ADDAY101999GF108991999999999999999999MW1001
0043011990999991953073118004+68750+023550FM-12+038299999V0200401N00261220001CN0100001N9+00891+99999999999ADDAY101999GF104991999999999999999999MW1001
0056011990999991953080106004+68750+023550FM-12+038299999V0200901N00261220001CN0100001N9+00781+99999999999ADDAY101999GF102991999999999999999999KA1999N+00391MW1001
0043011990999991953080112004+68750+023550FM-12+038299999V0200501N004619999999N0040001N9+00891+99999999999ADDAY101999GF107991999999999999999999MW1001
0054011990999991953080118004+68750+023550FM-12+038299999V0200801N004619999999N0040001N9+00721+99999999999ADDAA199000691AY151999GF107991999999999999999999MW1001
