0067011990999991952010106004+68750+023550FM-12+038299999V0200901N002619999999N0000001N9-00501+99999999999ADDAA199003091AY171999GF108991999999999999999999KA1999N-00721MW1711
0043011990999991952010112004+68750+023550FM-12+038299999V0200701N002619999999N0010001N9-00611+99999999999ADDAY141999GF106991999999999999999999MW1101
0054011990999991952010118004+68750+023550FM-12+038299999V0200601N002619999999N0000001N9-00611+99999999999ADDAA199001091AY171999GF108991999999999999999999MW1711
0067011990999991952010206004+68750+023550FM-12+038299999V0209991C000019999999N0000001N9-00611+99999999999ADDAA199002091AY171999GF108991999999999999999999KA1999N-01721MW1771
0043011990999991952010212004+68750+023550FM-12+038299999V0209991C000019999999N0000501N9-01001+99999999999ADDAY141999GF109991999999999999999999MW1471
0043011990999991952010218004+68750+023550FM-12+038299999V0200701N00101220001CN0000001N9-01721+99999999999ADDAY141999GF102991999999999999999999MW1421
0056011990999991952010306004+68750+023550FM-12+038299999V0202701N001019999999N0000001N9-01111+99999999999ADDAY101999GF108991999999999999999999KA1999N-01721MW1001
0043011990999991952010312004+68750+023550FM-12+038299999V0200601N001019999999N0020001N9-00721+99999999999ADDAY101999GF107991999999999999999999MW1001
0054011990999991952010318004+68750+023550FM-12+038299999V0200401N004619999999N0000001N9-00501+99999999999ADDAA199002091AY171999GF108991999999999999999999MW1731
0067011990999991952010406004+68750+023550FM-12+038299999V0200401N004619999999N0002001N9-00611+99999999999ADDAA199002091AY171999GF106991999999999999999999KA1999N-00891MW1361
0043011990999991952010412004+68750+023550FM-12+038299999V0200301N004619999999N0040001N9-00781+99999999999ADDAY131999GF107991999999999999999999MW1361
0054011990999991952010418004+68750+023550FM-12+038299999V0200501N004619999999N0002001N9-00721+99999999999ADDAA199002091AY171999GF106991999999999999999999MW1361
0067011990999991952010506004+68750+023550FM-12+038299999V0200701N002619999999N0000001N9-00781+99999999999ADDAA199001091AY171999GF108991999999999999999999KA1999N-00891MW1711
0043011990999991952010512004+68750+023550FM-12+038299999V0200901N002619999999N0040001N9-00781+99999999999ADDAY101999GF107991999999999999999999MW1001
0054011990999991952010518004+68750+023550FM-12+038299999V0201401N002619999999N0002001N9-00891+99999999999ADDAA199000591AY171999GF107991999999999999999999MW1001
0056011990999991952010606004+68750+023550FM-12+038299999V0201701N00671220001CN0002001N9-01001+99999999999ADDAY131999GF104991999999999999999999KA1999N-01221MW1361
0043011990999991952010612004+68750+023550FM-12+038299999V0201601N006719999999N0010001N9-01001+99999999999ADDAY131999GF108991999999999999999999MW1361
0054011990999991952010618004+68750+023550FM-12+038299999V0201701N00461220001CN0002001N9-00781+99999999999ADDAA199000591AY171999GF103991999999999999999999MW1361
0056011990999991952010706004+68750+023550FM-12+038299999V0202201N00261220001CN0002001N9-00891+99999999999ADDAY101999GF103991999999999999999999KA1999N-01221MW1001
0043011990999991952010712004+68750+023550FM-12+038299999V0201501N002619999999N0000001N9-01001+99999999999ADDAY101999GF108991999999999999999999MW1001
0054011990999991952010718004+68750+023550FM-12+038299999V0200201N00101220001CN0005001N9-01221+99999999999ADDAA199000591AY171999GF103991999999999999999999MW1001
0067011990999991952010806004+68750+023550FM-12+038299999V0201401N002619999999N0002001N9-00781+99999999999ADDAA199002091AY171999GF108991999999999999999999KA1999N-02001MW1711
0043011990999991952010812004+68750+023550FM-12+038299999V0202901N00261220001CN0040001N9-01221+99999999999ADDAY101999GF102991999999999999999999MW1001
0043011990999991952010818004+68750+023550FM-12+038299999V0201201N00261220001CN0005001N9-01281+99999999999ADDAY101999GF102991999999999999999999MW1001
0067011990999991952010906004+68750+023550FM-12+038299999V0201801N002619999999N0000001N9-00611+99999999999ADDAA199000591AY171999GF108991999999999999999999KA1999N-01281MW1711
0043011990999991952010912004+68750+023550FM-12+038299999V0201201N006719999999N0010001N9-00501+99999999999ADDAY131999GF108991999999999999999999MW1361
0054011990999991952010918004+68750+023550FM-12+038299999V0201001N006719999999N0000001N9-00391+99999999999ADDAA199002091AY171999GF108991999999999999999999MW1731
0067011990999991952011006004+68750+023550FM-12+038299999V0202701N002619999999N0000001N9-00721+99999999999ADDAA199008091AY171999GF108991999999999999999999KA1999N-00891MW1731
0043011990999991952011012004+68750+023550FM-12+038299999V0202601N004619999999N0010001N9-00281+99999999999ADDAY171999GF108991999999999999999999MW1731
0054011990999991952011018004+68750+023550FM-12+038299999V0201801N004619999999N0000001N9-00891+99999999999ADDAA199011091AY171999GF107991999999999999999999MW1361
0067011990999991952011106004+68750+023550FM-12+038299999V0201801N004619999999N0002001N9-01001+99999999999ADDAA199001091AY171999GF106991999999999999999999KA1999N-01221MW1361
0043011990999991952011112004+68750+023550FM-12+038299999V0201601N004619999999N0005001N9-01111+99999999999ADDAY131999GF107991999999999999999999MW1361
0043011990999991952011118004+68750+023550FM-12+038299999V0201501N006719999999N0000501N9-01111+99999999999ADDAY131999GF105991999999999999999999MW1361
0056011990999991952011206004+68750+023550FM-12+038299999V0200901N00261220001CN0002001N9-01611+99999999999ADDAY101999GF103991999999999999999999KA1999N-02391MW1001
0043011990999991952011212004+68750+023550FM-12+038299999V0200801N00101220001CN0040001N9-01891+99999999999ADDAY101999GF103991999999999999999999MW1001
0043011990999991952011218004+68750+023550FM-12+038299999V0202501N00101220001CN0000001N9-02391+99999999999ADDAY101999GF104991999999999999999999MW1001
0056011990999991952011306004+68750+023550FM-12+038299999V0203601N004619999999N0000501N9-01111+99999999999ADDAY101999GF106991999999999999999999KA1999N-02501MW1361
0043011990999991952011312004+68750+023550FM-12+038299999V0203101N004619999999N0040001N9-00891+99999999999ADDAY101999GF105991999999999999999999MW1001
0043011990999991952011318004+68750+023550FM-12+038299999V0200201N00261220001CN0002001N9-00891+99999999999ADDAY101999GF104991999999999999999999MW1001
0056011990999991952011406004+68750+023550FM-12+038299999V0200901N002619999999N0000501N9-02001+99999999999ADDAY101999GF106991999999999999999999KA1999N-02221MW1001
0043011990999991952011412004+68750+023550FM-12+038299999V0201501N002619999999N0040001N9-01221+99999999999ADDAY101999GF106991999999999999999999MW1001
0043011990999991952011418004+68750+023550FM-12+038299999V0201801N00261220001CN0002001N9-01501+99999999999ADDAY101999GF103991999999999999999999MW1001
0067011990999991952011506004+68750+023550FM-12+038299999V0201601N004619999999N0000001N9-01281+99999999999ADDAA199002091AY171999GF108991999999999999999999KA1999N-01611MW1361
0043011990999991952011512004+68750+023550FM-12+038299999V0201701N002619999999N0010001N9-01281+99999999999ADDAY171999GF107991999999999999999999MW1731
0054011990999991952011518004+68750+023550FM-12+038299999V0201401N002619999999N0000001N9-01001+99999999999ADDAA199000591AY171999GF108991999999999999999999MW1711
0067011990999991952011606004+68750+023550FM-12+038299999V0201101N002619999999N0000001N9-00891+99999999999ADDAA199000591AY171999GF108991999999999999999999KA1999N-01221MW1711
0043011990999991952011612004+68750+023550FM-12+038299999V0201101N001019999999N0005001N9-00891+99999999999ADDAY141999GF109991999999999999999999MW1451
0054011990999991952011618004+68750+023550FM-12+038299999V0201101N001019999999N0000001N9-01221+99999999999ADDAA199001091AY171999GF108991999999999999999999MW1731
0067011990999991952011706004+68750+023550FM-12+038299999V0200901N002619999999N0000501N9-01221+99999999999ADDAA199000391AY171999GF108991999999999999999999KA1999N-01721MW1771
0035011990999991952011712004+68750+023550FM-12+038299999V0200901N001019999999N0010001N9-01391+99999999999ADDGF107991999999999999999999MW1001
0054011990999991952011718004+68750+023550FM-12+038299999V0201001N001019999999N0000001N9-01281+99999999999ADDAA199000591AY171999GF108991999999999999999999MW1771
0056011990999991952011806004+68750+023550FM-12+038299999V0202901N00101220001CN0002001N9-02111+99999999999ADDAY101999GF104991999999999999999999KA1999N-02221MW1001
0043011990999991952011812004+68750+023550FM-12+038299999V0200701N001019999999N0010001N9-01611+99999999999ADDAY171999GF108991999999999999999999MW1711
0054011990999991952011818004+68750+023550FM-12+038299999V0200901N001019999999N0000001N9-01611+99999999999ADDAA199001091AY171999GF108991999999999999999999MW1711
0056011990999991952011906004+68750+023550FM-12+038299999V0201001N001019999999N0000001N9-01501+99999999999ADDAY141999GF108991999999999999999999KA1999N-02001MW1001
0043011990999991952011912004+68750+023550FM-12+038299999V0200201N001019999999N0010001N9-01501+99999999999ADDAY171999GF107991999999999999999999MW1771
0054011990999991952011918004+68750+023550FM-12+038299999V0201501N00101220001CN0000001N9-01891+99999999999ADDAA199000391AY171999GF104991999999999999999999MW1001
0056011990999991952012006004+68750+023550FM-12+038299999V0201201N001019999999N0000001N9-01611+99999999999ADDAY101999GF106991999999999999999999KA1999N-02501MW1001
0043011990999991952012012004+68750+023550FM-12+038299999V0200601N00101220001CN0040001N9-02221+99999999999ADDAY101999GF103991999999999999999999MW1001
0054011990999991952012018004+68750+023550FM-12+038299999V0203001N001019999999N0000001N9-00891+99999999999ADDAA199000391AY171999GF108991999999999999999999MW1711
0056011990999991952012106004+68750+023550FM-12+038299999V0201601N001019999999N0000001N9-01111+99999999999ADDAY101999GF107991999999999999999999KA1999N-01391MW1001
0043011990999991952012112004+68750+023550FM-12+038299999V0202001N002619999999N0040001N9-00611+99999999999ADDAY101999GF106991999999999999999999MW1001
0043011990999991952012118004+68750+023550FM-12+038299999V0202001N004619999999N0000001N9-00391+99999999999ADDAY131999GF107991999999999999999999MW1361
0056011990999991952012206004+68750+023550FM-12+038299999V0202301N002619999999N0000001N9+00111+99999999999ADDAY131999GF107991999999999999999999KA1999N-00501MW1001
0043011990999991952012212004+68750+023550FM-12+038299999V0202701N002619999999N0040001N9+00111+99999999999ADDAY131999GF106991999999999999999999MW1001
0043011990999991952012218004+68750+023550FM-12+038299999V0202401N002619999999N0000001N9+00221+99999999999ADDAY101999GF107991999999999999999999MW1001
0056011990999991952012306004+68750+023550FM-12+038299999V0200401N00261220001CN0000501N9-00501+99999999999ADDAY101999GF103991999999999999999999KA1999N-01001MW1001
0043011990999991952012312004+68750+023550FM-12+038299999V0202001N001019999999N0010001N9-00611+99999999999ADDAY171999GF106991999999999999999999MW1711
0054011990999991952012318004+68750+023550FM-12+038299999V0200601N001019999999N0000001N9-00891+99999999999ADDAA199001091AY171999GF108991999999999999999999MW1711
0067011990999991952012406004+68750+023550FM-12+038299999V0203601N00101220001CN0002001N9-01721+99999999999ADDAA199006091AY171999GF103991999999999999999999KA1999N-02221MW1001
0043011990999991952012412004+68750+023550FM-12+038299999V0201601N002619999999N0040001N9-01391+99999999999ADDAY101999GF107991999999999999999999MW1001
0043011990999991952012418004+68750+023550FM-12+038299999V0201401N00261220001CN0000001N9-01391+99999999999ADDAY101999GF102991999999999999999999MW1001
0056011990999991952012506004+68750+023550FM-12+038299999V0201801N00261220001CN0000501N9-01611+99999999999ADDAY101999GF103991999999999999999999KA1999N-01781MW1001
0043011990999991952012512004+68750+023550FM-12+038299999V0200801N002619999999N0020001N9-01721+99999999999ADDAY101999GF107991999999999999999999MW1001
0054011990999991952012518004+68750+023550FM-12+038299999V0200601N001019999999N0000001N9-01501+99999999999ADDAA199000591AY171999GF108991999999999999999999MW1731
0067011990999991952012606004+68750+023550FM-12+038299999V0200401N00101220001CN0000501N9-02501+99999999999ADDAA199002091AY171999GF103991999999999999999999KA1999N-02781MW1001
0043011990999991952012612004+68750+023550FM-12+038299999V0201501N002619999999N0002001N9-02111+99999999999ADDAY101999GF106991999999999999999999MW1001
0043011990999991952012618004+68750+023550FM-12+038299999V0202001N00261220001CN0000001N9-01781+99999999999ADDAY101999GF102991999999999999999999MW1001
0056011990999991952012706004+68750+023550FM-12+038299999V0202601N001019999999N0000001N9-01891+99999999999ADDAY101999GF108991999999999999999999KA1999N-02001MW1001
0043011990999991952012712004+68750+023550FM-12+038299999V0201201N001019999999N0002001N9-01781+99999999999ADDAY101999GF107991999999999999999999MW1711
0054011990999991952012718004+68750+023550FM-12+038299999V0202201N001019999999N0000001N9-01501+99999999999ADDAA199002091AY171999GF108991999999999999999999MW1711
0067011990999991952012806004+68750+023550FM-12+038299999V0200801N001019999999N0000001N9-01611+99999999999ADDAA199000591AY101999GF108991999999999999999999KA1999N-02111MW1711
0043011990999991952012812004+68750+023550FM-12+038299999V0202701N001019999999N0002001N9-02001+99999999999ADDAY101999GF107991999999999999999999MW1001
0043011990999991952012818004+68750+023550FM-12+038299999V0202801N001019999999N0000001N9-01781+99999999999ADDAY101999GF108991999999999999999999MW1001
0067011990999991952012906004+68750+023550FM-12+038299999V0200901N001019999999N0000001N9-01611+99999999999ADDAA199001091AY171999GF108991999999999999999999KA1999N-01781MW1001
0043011990999991952012912004+68750+023550FM-12+038299999V0200901N001019999999N0010001N9-01501+99999999999ADDAY101999GF107991999999999999999999MW1001
0043011990999991952012918004+68750+023550FM-12+038299999V0203601N00101220001CN0000001N9-01611+99999999999ADDAY101999GF103991999999999999999999MW1001
0056011990999991952013006004+68750+023550FM-12+038299999V0202701N001019999999N0000001N9-02111+99999999999ADDAY101999GF108991999999999999999999KA1999N-02111MW1001
0043011990999991952013012004+68750+023550FM-12+038299999V0202901N001019999999N0002001N9-01891+99999999999ADDAY171999GF107991999999999999999999MW1711
0054011990999991952013018004+68750+023550FM-12+038299999V0200301N00101220001CN0000001N9-01891+99999999999ADDAA199003091AY171999GF104991999999999999999999MW1001
0056011990999991952013106004+68750+023550FM-12+038299999V0201401N002619999999N0000001N9-01611+99999999999ADDAY101999GF108991999999999999999999KA1999N-02221MW1001
0043011990999991952013112004+68750+023550FM-12+038299999V0201801N001019999999N0002001N9-01721+99999999999ADDAY101999GF105991999999999999999999MW1001
0043011990999991952013118004+68750+023550FM-12+038299999V0201201N00261220001CN0000001N9-01721+99999999999ADDAY131999GF103991999999999999999999MW1001
0067011990999991952020106004+68750+023550FM-12+038299999V0201701N00261220001CN0000001N9-01221+99999999999ADDAA199002091AY171999GF103991999999999999999999KA1999N-01781MW1001
0043011990999991952020112004+68750+023550FM-12+038299999V0201801N004619999999N0002001N9-01001+99999999999ADDAY171999GF107991999999999999999999MW1361
0054011990999991952020118004+68750+023550FM-12+038299999V0201901N004619999999N0000001N9-01001+99999999999ADDAA199001091AY171999GF107991999999999999999999MW1361
0067011990999991952020206004+68750+023550FM-12+038299999V0201401N004619999999N0000501N9-00781+99999999999ADDAA199001091AY171999GF108991999999999999999999KA1999N-01111MW1711
0043011990999991952020212004+68750+023550FM-12+038299999V0201401N002619999999N0002001N9-00781+99999999999ADDAY141999GF106991999999999999999999MW1101
0054011990999991952020218004+68750+023550FM-12+038299999V0201401N004619999999N0000501N9-00781+99999999999ADDAA199000391AY171999GF107991999999999999999999MW1361
0056011990999991952020306004+68750+023550FM-12+038299999V0201401N002619999999N0000501N9-00721+99999999999ADDAY141999GF108991999999999999999999KA1999N-00781MW1101
0043011990999991952020312004+68750+023550FM-12+038299999V0201701N002619999999N0002001N9-00611+99999999999ADDAY141999GF108991999999999999999999MW1101
0043011990999991952020318004+68750+023550FM-12+038299999V0201501N002619999999N0000501N9-00501+99999999999ADDAY141999GF108991999999999999999999MW1101
0056011990999991952020406004+68750+023550FM-12+038299999V0202001N002619999999N0000501N9-00391+99999999999ADDAY141999GF107991999999999999999999KA1999N-00781MW1101
0043011990999991952020412004+68750+023550FM-12+038299999V0202001N002619999999N0002001N9-00391+99999999999ADDAY141999GF106991999999999999999999MW1101
0043011990999991952020418004+68750+023550FM-12+038299999V0202201N002619999999N0000501N9-00721+99999999999ADDAY101999GF105991999999999999999999MW1001
0056011990999991952020506004+68750+023550FM-12+038299999V0201801N00261220001CN0000501N9-01281+99999999999ADDAY101999GF102991999999999999999999KA1999N-01501MW1001
0043011990999991952020512004+68750+023550FM-12+038299999V0201801N002619999999N0005001N9-01281+99999999999ADDAY101999GF107991999999999999999999MW1711
0054011990999991952020518004+68750+023550FM-12+038299999V0202901N00101220001CN0002001N9-01281+99999999999ADDAA199001091AY171999GF102991999999999999999999MW1001
0056011990999991952020606004+68750+023550FM-12+038299999V0200501N00101220001CN0002001N9-01501+99999999999ADDAY101999GF103991999999999999999999KA1999N-01891MW1001
0043011990999991952020612004+68750+023550FM-12+038299999V0201601N00101220001CN0020001N9-01221+99999999999ADDAY101999GF104991999999999999999999MW1001
0043011990999991952020618004+68750+023550FM-12+038299999V0201801N004619999999N0000501N9-01281+99999999999ADDAY101999GF108991999999999999999999MW1361
0067011990999991952020706004+68750+023550FM-12+038299999V0202401N004619999999N0000501N9-00891+99999999999ADDAA199001091AY171999GF108991999999999999999999KA1999N-01281MW1361
0043011990999991952020712004+68750+023550FM-12+038299999V0201101N004619999999N0000501N9-00781+99999999999ADDAY131999GF107991999999999999999999MW1361
0054011990999991952020718004+68750+023550FM-12+038299999V0200901N002619999999N0000001N9-00891+99999999999ADDAA199001091AY131999GF108991999999999999999999MW1711
0067011990999991952020806004+68750+023550FM-12+038299999V0201801N001019999999N0000501N9-01611+99999999999ADDAA199001091AY171999GF105991999999999999999999KA1999N-01611MW1001
0043011990999991952020812004+68750+023550FM-12+038299999V0203601N00101220001CN0040001N9-01281+99999999999ADDAY101999GF104991999999999999999999MW1771
0054011990999991952020818004+68750+023550FM-12+038299999V0201801N001019999999N0020001N9-01501+99999999999ADDAA199001091AY171999GF106991999999999999999999MW1001
0056011990999991952020906004+68750+023550FM-12+038299999V0203001N001019999999N0000501N9-01721+99999999999ADDAY101999GF107991999999999999999999KA1999N-02281MW1001
0043011990999991952020912004+68750+023550FM-12+038299999V0203301N001019999999N0000501N9-01611+99999999999ADDAY101999GF107991999999999999999999MW1001
0043011990999991952020918004+68750+023550FM-12+038299999V0202701N001019999999N0000001N9-01611+99999999999ADDAY101999GF108991999999999999999999MW1001
0067011990999991952021006004+68750+023550FM-12+038299999V0203601N002619999999N0000501N9-01001+99999999999ADDAA199000391AY101999GF107991999999999999999999KA1999N-01781MW1711
0043011990999991952021012004+68750+023550FM-12+038299999V0203601N004619999999N0002001N9-00891+99999999999ADDAY171999GF107991999999999999999999MW1361
0054011990999991952021018004+68750+023550FM-12+038299999V0203601N004619999999N0000501N9-00891+99999999999ADDAA199004091AY171999GF107991999999999999999999MW1731
0067011990999991952021106004+68750+023550FM-12+038299999V0201601N004619999999N0000501N9-00721+99999999999ADDAA199005091AY171999GF108991999999999999999999KA1999N-00891MW1731
0043011990999991952021112004+68750+023550FM-12+038299999V0201801N006719999999N0002001N9-00781+99999999999ADDAY171999GF108991999999999999999999MW1731
0054011990999991952021118004+68750+023550FM-12+038299999V0201701N006719999999N0000001N9-00891+99999999999ADDAA199002091AY171999GF108991999999999999999999MW1731
0067011990999991952021206004+68750+023550FM-12+038299999V0201801N004619999999N0000501N9-00891+99999999999ADDAA199000591AY171999GF107991999999999999999999KA1999N-01111MW1361
0043011990999991952021212004+68750+023550FM-12+038299999V0202001N001019999999N0002001N9-01111+99999999999ADDAY141999GF107991999999999999999999MW1101
0043011990999991952021218004+68750+023550FM-12+038299999V0202901N001019999999N0000001N9-01001+99999999999ADDAY141999GF108991999999999999999999MW1101
0067011990999991952021306004+68750+023550FM-12+038299999V0202701N001019999999N0000501N9-01501+99999999999ADDAA199001091AY171999GF108991999999999999999999KA1999N-01501MW1711
0043011990999991952021312004+68750+023550FM-12+038299999V0209991C000019999999N0002001N9-01221+99999999999ADDAY171999GF107991999999999999999999MW1731
0054011990999991952021318004+68750+023550FM-12+038299999V0202101N001019999999N0000001N9-01391+99999999999ADDAA199003091AY171999GF107991999999999999999999MW1731
0067011990999991952021406004+68750+023550FM-12+038299999V0201701N002619999999N0000501N9-01221+99999999999ADDAA199001091AY171999GF108991999999999999999999KA1999N-01781MW1711
0043011990999991952021412004+68750+023550FM-12+038299999V0201701N00261220001CN0040001N9-01391+99999999999ADDAY171999GF104991999999999999999999MW1711
0054011990999991952021418004+68750+023550FM-12+038299999V0201801N00461220001CN0000001N9-01611+99999999999ADDAA199001091AY131999GF104991999999999999999999MW1001
0067011990999991952021506004+68750+023550FM-12+038299999V0200901N00261220001CN0000501N9-01611+99999999999ADDAA199008091AY171999GF104991999999999999999999KA1999N-01781MW1001
0043011990999991952021512004+68750+023550FM-12+038299999V0201501N002619999999N0002001N9-01111+99999999999ADDAY101999GF105991999999999999999999MW1001
0054011990999991952021518004+68750+023550FM-12+038299999V0201401N001019999999N0000001N9-01221+99999999999ADDAA199002091AY171999GF108991999999999999999999MW1731
0067011990999991952021606004+68750+023550FM-12+038299999V0201701N006719999999N0002001N9-00611+99999999999ADDAA199001091AY171999GF108991999999999999999999KA1999N-01221MW1361
0043011990999991952021612004+68750+023550FM-12+038299999V0201501N006719999999N0005001N9-00781+99999999999ADDAY131999GF106991999999999999999999MW1361
0054011990999991952021618004+68750+023550FM-12+038299999V0201401N004619999999N0000001N9-01111+99999999999ADDAA199001091AY171999GF108991999999999999999999MW1361
0067011990999991952021706004+68750+023550FM-12+038299999V0201501N00261220001CN0002001N9-01501+99999999999ADDAA199001091AY171999GF104991999999999999999999KA1999N-01781MW1771
0043011990999991952021712004+68750+023550FM-12+038299999V0201801N00461220001CN0005001N9-01501+99999999999ADDAY131999GF103991999999999999999999MW1361
0043011990999991952021718004+68750+023550FM-12+038299999V0201701N00261220001CN0000001N9-01501+99999999999ADDAY101999GF102991999999999999999999MW1001
0056011990999991952021806004+68750+023550FM-12+038299999V0201801N00261220001CN0020001N9-01611+99999999999ADDAY101999GF104991999999999999999999KA1999N-02001MW1001
0043011990999991952021812004+68750+023550FM-12+038299999V0201401N00261220001CN0005001N9-02001+99999999999ADDAY101999GF103991999999999999999999MW1001
0043011990999991952021818004+68750+023550FM-12+038299999V0201101N002619999999N0000001N9-01721+99999999999ADDAY101999GF108991999999999999999999MW1001
0067011990999991952021906004+68750+023550FM-12+038299999V0201501N002619999999N0002001N9-01281+99999999999ADDAA199002091AY171999GF108991999999999999999999KA1999N-01721MW1731
0043011990999991952021912004+68750+023550FM-12+038299999V0202001N002619999999N0002001N9-00781+99999999999ADDAY171999GF108991999999999999999999MW1731
0054011990999991952021918004+68750+023550FM-12+038299999V0201401N004619999999N0000001N9-00891+99999999999ADDAA199002091AY171999GF108991999999999999999999MW1361
0067011990999991952022006004+68750+023550FM-12+038299999V0201401N002619999999N0005001N9-01111+99999999999ADDAA199000591AY171999GF107991999999999999999999KA1999N-01111MW1001
0043011990999991952022012004+68750+023550FM-12+038299999V0201501N00261220001CN0020001N9-01111+99999999999ADDAY101999GF104991999999999999999999MW1001
0054011990999991952022018004+68750+023550FM-12+038299999V0201401N001019999999N0000001N9-01111+99999999999ADDAA199000591AY171999GF108991999999999999999999MW1711
0067011990999991952022106004+68750+023550FM-12+038299999V0200501N004619999999N0002001N9-00891+99999999999ADDAA199000591AY171999GF105991999999999999999999KA1999N-01111MW1361
0043011990999991952022112004+68750+023550FM-12+038299999V0200401N002619999999N0000501N9-00891+99999999999ADDAY171999GF108991999999999999999999MW1731
0054011990999991952022118004+68750+023550FM-12+038299999V0203601N002619999999N0000001N9-01001+99999999999ADDAA199003091AY171999GF108991999999999999999999MW1711
0067011990999991952022206004+68750+023550FM-12+038299999V0200901N001019999999N0010001N9-01001+99999999999ADDAA199001091AY171999GF108991999999999999999999KA1999N-01281MW1001
0043011990999991952022212004+68750+023550FM-12+038299999V0201401N002619999999N0010001N9-00781+99999999999ADDAY171999GF108991999999999999999999MW1711
0054011990999991952022218004+68750+023550FM-12+038299999V0201401N002619999999N0000001N9-00781+99999999999ADDAA199001091AY171999GF108991999999999999999999MW1771
0067011990999991952022306004+68750+023550FM-12+038299999V0201501N004619999999N0002001N9-00781+99999999999ADDAA199001091AY171999GF108991999999999999999999KA1999N-00891MW1361
0043011990999991952022312004+68750+023550FM-12+038299999V0201601N002619999999N0002001N9-00781+99999999999ADDAY171999GF107991999999999999999999MW1361
0054011990999991952022318004+68750+023550FM-12+038299999V0201801N004619999999N0000001N9-00781+99999999999ADDAA199000391AY171999GF108991999999999999999999MW1361
0056011990999991952022406004+68750+023550FM-12+038299999V0202201N004619999999N0002001N9-00891+99999999999ADDAY131999GF108991999999999999999999KA1999N-01391MW1361
0043011990999991952022412004+68750+023550FM-12+038299999V0201901N004619999999N0002001N9-00891+99999999999ADDAY131999GF105991999999999999999999MW1361
0043011990999991952022418004+68750+023550FM-12+038299999V0202001N00261220001CN0000001N9-01281+99999999999ADDAY131999GF102991999999999999999999MW1001
0056011990999991952022506004+68750+023550FM-12+038299999V0201801N001019999999N0000501N9-01391+99999999999ADDAY101999GF108991999999999999999999KA1999N-01721MW1001
0043011990999991952022512004+68750+023550FM-12+038299999V0201501N002619999999N0002001N9-01281+99999999999ADDAY171999GF107991999999999999999999MW1711
0054011990999991952022518004+68750+023550FM-12+038299999V0201801N002619999999N0000001N9-01001+99999999999ADDAA199002091AY171999GF108991999999999999999999MW1731
0056011990999991952022606004+68750+023550FM-12+038299999V0201801N002619999999N0000501N9-00781+99999999999ADDAY101999GF107991999999999999999999KA1999N-01001MW1001
0043011990999991952022612004+68750+023550FM-12+038299999V0201801N004619999999N0002001N9-00781+99999999999ADDAY141999GF108991999999999999999999MW1101
0054011990999991952022618004+68750+023550FM-12+038299999V0201801N006719999999N0000001N9-00781+99999999999ADDAA199000591AY171999GF108991999999999999999999MW1361
0056011990999991952022706004+68750+023550FM-12+038299999V0201801N004619999999N0002001N9-00721+99999999999ADDAY141999GF107991999999999999999999KA1999N-00781MW1101
0043011990999991952022712004+68750+023550FM-12+038299999V0202001N00261220001CN0005001N9-00501+99999999999ADDAY101999GF103991999999999999999999MW1001
0054011990999991952022718004+68750+023550FM-12+038299999V0201901N004619999999N0000001N9-00391+99999999999ADDAA199000391AY171999GF108991999999999999999999MW1361
0056011990999991952022806004+68750+023550FM-12+038299999V0203101N00101220001CN0020001N9-01111+99999999999ADDAY101999GF101991999999999999999999KA1999N-02281MW1001
0043011990999991952022812004+68750+023550FM-12+038299999V0200301N00101220001CN0040001N9-01221+99999999999ADDAY101999GF101991999999999999999999MW1001
0043011990999991952022818004+68750+023550FM-12+038299999V0200801N00101220001CN0000001N9-02221+99999999999ADDAY101999GF101991999999999999999999MW1001
0056011990999991952022906004+68750+023550FM-12+038299999V0201401N002619999999N0010001N9-01221+99999999999ADDAY101999GF107991999999999999999999KA1999N-02781MW1001
0043011990999991952022912004+68750+023550FM-12+038299999V0201801N00101220001CN0040001N9-01281+99999999999ADDAY101999GF103991999999999999999999MW1001
0043011990999991952022918004+68750+023550FM-12+038299999V0203101N00101220001CN0000001N9-01501+99999999999ADDAY101999GF104991999999999999999999MW1001
0056011990999991952030106004+68750+023550FM-12+038299999V0200801N00101220001CN0020001N9-02721+99999999999ADDAY101999GF102991999999999999999999KA1999N-02781MW1001
0043011990999991952030112004+68750+023550FM-12+038299999V0209991C00001220001CN0010001N9-02391+99999999999ADDAY101999GF101991999999999999999999MW1001
0043011990999991952030118004+68750+023550FM-12+038299999V0200701N00101220001CN0000001N9-02781+99999999999ADDAY101999GF100991999999999999999999MW1001
0056011990999991952030206004+68750+023550FM-12+038299999V0201001N00101220001CN0010001N9-02721+99999999999ADDAY101999GF103991999999999999999999KA1999N-03001MW1001
0043011990999991952030212004+68750+023550FM-12+038299999V0200901N001019999999N0000501N9-02281+99999999999ADDAY101999GF105991999999999999999999MW1001
0043011990999991952030218004+68750+023550FM-12+038299999V0200701N001019999999N0000001N9-02281+99999999999ADDAY101999GF106991999999999999999999MW1001
0056011990999991952030306004+68750+023550FM-12+038299999V0200901N001019999999N0000501N9-02501+99999999999ADDAY101999GF106991999999999999999999KA1999N-02501MW1001
0043011990999991952030312004+68750+023550FM-12+038299999V0201701N00261220001CN0020001N9-02111+99999999999ADDAY101999GF103991999999999999999999MW1001
0043011990999991952030318004+68750+023550FM-12+038299999V0201501N002619999999N0000001N9-01721+99999999999ADDAY101999GF108991999999999999999999MW1711
0067011990999991952030406004+68750+023550FM-12+038299999V0202001N004619999999N0002001N9-00781+99999999999ADDAA199004091AY171999GF108991999999999999999999KA1999N-02781MW1731
0043011990999991952030412004+68750+023550FM-12+038299999V0201601N002619999999N0005001N9-00781+99999999999ADDAY171999GF107991999999999999999999MW1731
0054011990999991952030418004+68750+023550FM-12+038299999V0201201N002619999999N0002001N9-00891+99999999999ADDAA199002091AY171999GF108991999999999999999999MW1731
0067011990999991952030506004+68750+023550FM-12+038299999V0201901N002619999999N0005001N9-00611+99999999999ADDAA199002091AY171999GF108991999999999999999999KA1999N-00891MW1711
0043011990999991952030512004+68750+023550FM-12+038299999V0202601N002619999999N0005001N9-00501+99999999999ADDAY141999GF107991999999999999999999MW1101
0054011990999991952030518004+68750+023550FM-12+038299999V0203501N001019999999N0002001N9-00721+99999999999ADDAA199003091AY171999GF107991999999999999999999MW1731
0056011990999991952030606004+68750+023550FM-12+038299999V0203001N001019999999N0005001N9-01501+99999999999ADDAY101999GF106991999999999999999999KA1999N-02501MW1001
0043011990999991952030612004+68750+023550FM-12+038299999V0200301N00101220001CN0020001N9-01611+99999999999ADDAY101999GF102991999999999999999999MW1001
0043011990999991952030618004+68750+023550FM-12+038299999V0200601N00101220001CN0005001N9-02501+99999999999ADDAY101999GF101991999999999999999999MW1001
0056011990999991952030706004+68750+023550FM-12+038299999V0200701N00101220001CN0020001N9-01721+99999999999ADDAY101999GF103991999999999999999999KA1999N-02721MW1001
0043011990999991952030712004+68750+023550FM-12+038299999V0201501N002619999999N0040001N9-01001+99999999999ADDAY101999GF107991999999999999999999MW1001
0054011990999991952030718004+68750+023550FM-12+038299999V0201801N002619999999N0000001N9-00891+99999999999ADDAA199002091AY171999GF108991999999999999999999MW1731
0067011990999991952030806004+68750+023550FM-12+038299999V0201901N002619999999N0000001N9-00721+99999999999ADDAA199000391AY101999GF108991999999999999999999KA1999N-00891MW1001
0043011990999991952030812004+68750+023550FM-12+038299999V0202001N001019999999N0000501N9-00721+99999999999ADDAY141999GF108991999999999999999999MW1101
0054011990999991952030818004+68750+023550FM-12+038299999V0200901N001019999999N0002001N9-00781+99999999999ADDAA199001091AY171999GF107991999999999999999999MW1731
0067011990999991952030906004+68750+023550FM-12+038299999V0201501N002619999999N0010001N9-00781+99999999999ADDAA199002091AY171999GF106991999999999999999999KA1999N-00781MW1001
0043011990999991952030912004+68750+023550FM-12+038299999V0201801N002619999999N0020001N9-00721+99999999999ADDAY101999GF106991999999999999999999MW1001
0054011990999991952030918004+68750+023550FM-12+038299999V0202001N004619999999N0002001N9-00721+99999999999ADDAA199000391AY171999GF106991999999999999999999MW1361
0056011990999991952031006004+68750+023550FM-12+038299999V0201801N00671220001CN0010001N9-00721+99999999999ADDAY131999GF104991999999999999999999KA1999N-00721MW1361
0043011990999991952031012004+68750+023550FM-12+038299999V0201901N00671220001CN0040001N9-00281+99999999999ADDAY131999GF104991999999999999999999MW1361
0043011990999991952031018004+68750+023550FM-12+038299999V0202301N004619999999N0000501N9+00111+99999999999ADDAY101999GF105991999999999999999999MW1001
0067011990999991952031106004+68750+023550FM-12+038299999V0200601N001019999999N0010001N9-00391+99999999999ADDAA199003091AY171999GF107991999999999999999999KA1999N-01221MW1001
0043011990999991952031112004+68750+023550FM-12+038299999V0203601N001019999999N0040001N9-00391+99999999999ADDAY101999GF105991999999999999999999MW1001
0043011990999991952031118004+68750+023550FM-12+038299999V0203601N00101220001CN0000501N9-01221+99999999999ADDAY101999GF103991999999999999999999MW1001
0056011990999991952031206004+68750+023550FM-12+038299999V0209991C000019999999N0010001N9-01111+99999999999ADDAY101999GF106991999999999999999999KA1999N-01501MW1001
0043011990999991952031212004+68750+023550FM-12+038299999V0200101N00461220001CN0020001N9-00611+99999999999ADDAY101999GF104991999999999999999999MW1001
0043011990999991952031218004+68750+023550FM-12+038299999V0200201N004619999999N0000501N9-00721+99999999999ADDAY101999GF106991999999999999999999MW1001
0056011990999991952031306004+68750+023550FM-12+038299999V0201801N00461220001CN0040001N9-01391+99999999999ADDAY101999GF104991999999999999999999KA1999N-01781MW1361
0043011990999991952031312004+68750+023550FM-12+038299999V0203201N00101220001CN0040001N9-01001+99999999999ADDAY101999GF101991999999999999999999MW1001
0043011990999991952031318004+68750+023550FM-12+038299999V0200701N00101220001CN0002001N9-01781+99999999999ADDAY101999GF102991999999999999999999MW1001
0056011990999991952031406004+68750+023550FM-12+038299999V0200601N00101220001CN0020001N9-02221+99999999999ADDAY101999GF101991999999999999999999KA1999N-02611MW1001
0043011990999991952031412004+68750+023550FM-12+038299999V0201601N00261220001CN0040001N9-01221+99999999999ADDAY101999GF104991999999999999999999MW1001
0054011990999991952031418004+68750+023550FM-12+038299999V0201501N002619999999N0000501N9-01111+99999999999ADDAA199000391AY101999GF108991999999999999999999MW1711
0067011990999991952031506004+68750+023550FM-12+038299999V0201701N002619999999N0010001N9-01281+99999999999ADDAA199001091AY171999GF107991999999999999999999KA1999N-01501MW1711
0043011990999991952031512004+68750+023550FM-12+038299999V0201501N002619999999N0010001N9-01391+99999999999ADDAY101999GF107991999999999999999999MW1711
0054011990999991952031518004+68750+023550FM-12+038299999V0201601N002619999999N0000501N9-01391+99999999999ADDAA199000591AY171999GF108991999999999999999999MW1731
0067011990999991952031606004+68750+023550FM-12+038299999V0201601N002619999999N0010001N9-01611+99999999999ADDAA199000391AY101999GF105991999999999999999999KA1999N-02111MW1731
0043011990999991952031612004+68750+023550FM-12+038299999V0201601N00261220001CN0040001N9-01611+99999999999ADDAY101999GF103991999999999999999999MW1001
0043011990999991952031618004+68750+023550FM-12+038299999V0209991C00001220001CN0002001N9-02001+99999999999ADDAY101999GF103991999999999999999999MW1001
0056011990999991952031706004+68750+023550FM-12+038299999V0201501N00261220001CN0040001N9-02111+99999999999ADDAY101999GF103991999999999999999999KA1999N-02281MW1001
0043011990999991952031712004+68750+023550FM-12+038299999V0209991C00001220001CN0040001N9-01611+99999999999ADDAY101999GF102991999999999999999999MW1001
0043011990999991952031718004+68750+023550FM-12+038299999V0200701N00101220001CN0010001N9-02111+99999999999ADDAY101999GF104991999999999999999999MW1001
0056011990999991952031806004+68750+023550FM-12+038299999V0200601N00101220001CN0040001N9-02001+99999999999ADDAY101999GF104991999999999999999999KA1999N-02611MW1001
0043011990999991952031812004+68750+023550FM-12+038299999V0201601N00671220001CN0040001N9-01221+99999999999ADDAY131999GF104991999999999999999999MW1361
0043011990999991952031818004+68750+023550FM-12+038299999V0201801N00671220001CN0010001N9-01001+99999999999ADDAY131999GF104991999999999999999999MW1361
0056011990999991952031906004+68750+023550FM-12+038299999V0202001N004619999999N0020001N9-01111+99999999999ADDAY131999GF107991999999999999999999KA1999N-01281MW1361
0043011990999991952031912004+68750+023550FM-12+038299999V0200901N00101220001CN0040001N9-00781+99999999999ADDAY101999GF101991999999999999999999MW1001
0043011990999991952031918004+68750+023550FM-12+038299999V0201901N002619999999N0010001N9-00891+99999999999ADDAY131999GF106991999999999999999999MW1001
0056011990999991952032006004+68750+023550FM-12+038299999V0201801N00261220001CN0010001N9-01611+99999999999ADDAY101999GF104991999999999999999999KA1999N-01721MW1001
0043011990999991952032012004+68750+023550FM-12+038299999V0201601N00261220001CN0040001N9-01001+99999999999ADDAY101999GF100991999999999999999999MW1001
0043011990999991952032018004+68750+023550FM-12+038299999V0200501N00101220001CN0020001N9-01721+99999999999ADDAY101999GF100991999999999999999999MW1001
0056011990999991952032106004+68750+023550FM-12+038299999V0202701N00101220001CN0040001N9-02611+99999999999ADDAY101999GF101991999999999999999999KA1999N-02781MW1001
0043011990999991952032112004+68750+023550FM-12+038299999V0209991C00001220001CN0040001N9-01781+99999999999ADDAY101999GF101991999999999999999999MW1001
0043011990999991952032118004+68750+023550FM-12+038299999V0200801N00101220001CN0020001N9-01781+99999999999ADDAY101999GF101991999999999999999999MW1001
0056011990999991952032206004+68750+023550FM-12+038299999V0200501N00101220001CN0005001N9-02501+99999999999ADDAY101999GF104991999999999999999999KA1999N-02781MW1001
0043011990999991952032212004+68750+023550FM-12+038299999V0202901N00101220001CN0040001N9-02111+99999999999ADDAY101999GF101991999999999999999999MW1001
0043011990999991952032218004+68750+023550FM-12+038299999V0209991C00001220001CN0020001N9-02281+99999999999ADDAY101999GF101991999999999999999999MW1001
0067011990999991952032306004+68750+023550FM-12+038299999V0200501N002619999999N0010001N9-01281+99999999999ADDAA199001091AY171999GF106991999999999999999999KA1999N-02611MW1731
0043011990999991952032312004+68750+023550FM-12+038299999V0200501N00671220001CN0000501N9-01001+99999999999ADDAY131999GF103991999999999999999999MW1361
0054011990999991952032318004+68750+023550FM-12+038299999V0200601N00671220001CN0000501N9-01281+99999999999ADDAA199002091AY171999GF104991999999999999999999MW1361
0056011990999991952032406004+68750+023550FM-12+038299999V0200701N00671220001CN0010001N9-01391+99999999999ADDAY131999GF103991999999999999999999KA1999N-01611MW1361
0043011990999991952032412004+68750+023550FM-12+038299999V0200501N00461220001CN0020001N9-01001+99999999999ADDAY131999GF102991999999999999999999MW1361
0043011990999991952032418004+68750+023550FM-12+038299999V0200401N00461220001CN0020001N9-01221+99999999999ADDAY131999GF102991999999999999999999MW1361
0067011990999991952032506004+68750+023550FM-12+038299999V0200201N002619999999N0005001N9-00781+99999999999ADDAA199002091AY171999GF108991999999999999999999KA1999N-01281MW1711
0043011990999991952032512004+68750+023550FM-12+038299999V0200201N004619999999N0002001N9-00501+99999999999ADDAY171999GF107991999999999999999999MW1711
0054011990999991952032518004+68750+023550FM-12+038299999V0200601N004619999999N0002001N9-00891+99999999999ADDAA199001091AY171999GF105991999999999999999999MW1361
0067011990999991952032606004+68750+023550FM-12+038299999V0203601N00261220001CN0010001N9-01501+99999999999ADDAA199002091AY171999GF103991999999999999999999KA1999N-01721MW1001
0043011990999991952032612004+68750+023550FM-12+038299999V0200201N00261220001CN0040001N9-01281+99999999999ADDAY101999GF101991999999999999999999MW1001
0043011990999991952032618004+68750+023550FM-12+038299999V0200201N00261220001CN0040001N9-01391+99999999999ADDAY101999GF102991999999999999999999MW1001
0067011990999991952032706004+68750+023550FM-12+038299999V0200201N00261220001CN0020001N9-01281+99999999999ADDAA199000591AY171999GF103991999999999999999999KA1999N-01391MW1001
0043011990999991952032712004+68750+023550FM-12+038299999V0203601N00261220001CN0040001N9-01221+99999999999ADDAY101999GF102991999999999999999999MW1001
0054011990999991952032718004+68750+023550FM-12+038299999V0200201N00261220001CN0010001N9-01221+99999999999ADDAA199000391AY101999GF103991999999999999999999MW1711
0056011990999991952032806004+68750+023550FM-12+038299999V0200101N00261220001CN0020001N9-01221+99999999999ADDAY101999GF103991999999999999999999KA1999N-02001MW1001
0043011990999991952032812004+68750+023550FM-12+038299999V0202901N00101220001CN0040001N9-01111+99999999999ADDAY101999GF101991999999999999999999MW1001
0043011990999991952032818004+68750+023550FM-12+038299999V0200801N00101220001CN0040001N9-01891+99999999999ADDAY101999GF101991999999999999999999MW1001
0056011990999991952032906004+68750+023550FM-12+038299999V0200801N002619999999N0040001N9-01501+99999999999ADDAY101999GF107991999999999999999999KA1999N-02781MW1771
0043011990999991952032912004+68750+023550FM-12+038299999V0200801N00261220001CN0040001N9-01111+99999999999ADDAY101999GF102991999999999999999999MW1001
0043011990999991952032918004+68750+023550FM-12+038299999V0200801N00101220001CN0020001N9-01721+99999999999ADDAY101999GF101991999999999999999999MW1001
0056011990999991952033006004+68750+023550FM-12+038299999V0200901N00101220001CN0040001N9-01221+99999999999ADDAY101999GF104991999999999999999999KA1999N-02001MW1001
0043011990999991952033012004+68750+023550FM-12+038299999V0200901N00261220001CN0100001N9-01111+99999999999ADDAY101999GF103991999999999999999999MW1001
0043011990999991952033018004+68750+023550FM-12+038299999V0200101N00101220001CN0020001N9-02001+99999999999ADDAY101999GF102991999999999999999999MW1001
0056011990999991952033106004+68750+023550FM-12+038299999V0209991C00001220001CN0020001N9-02501+99999999999ADDAY101999GF102991999999999999999999KA1999N-02781MW1001
0043011990999991952033112004+68750+023550FM-12+038299999V0200701N00101220001CN0040001N9-01001+99999999999ADDAY101999GF102991999999999999999999MW1001
0043011990999991952033118004+68750+023550FM-12+038299999V0200801N001019999999N0040001N9-01391+99999999999ADDAY101999GF105991999999999999999999MW1001
0067011990999991952040106004+68750+023550FM-12+038299999V0201601N002619999999N0010001N9-01001+99999999999ADDAA199000391AY171999GF105991999999999999999999KA1999N-01391MW1711
0043011990999991952040112004+68750+023550FM-12+038299999V0201601N00261220001CN0040001N9-00781+99999999999ADDAY101999GF101991999999999999999999MW1001
0043011990999991952040118004+68750+023550FM-12+038299999V0200401N00261220001CN0020001N9-01221+99999999999ADDAY101999GF103991999999999999999999MW1001
0067011990999991952040206004+68750+023550FM-12+038299999V0200701N00261220001CN0040001N9-01721+99999999999ADDAA199000391AY171999GF102991999999999999999999KA1999N-01781MW1001
0043011990999991952040212004+68750+023550FM-12+038299999V0200801N002619999999N0000501N9-01221+99999999999ADDAY171999GF108991999999999999999999MW1731
0054011990999991952040218004+68750+023550FM-12+038299999V0200401N004619999999N0000501N9-01281+99999999999ADDAA199001091AY171999GF108991999999999999999999MW1731
0067011990999991952040306004+68750+023550FM-12+038299999V0203401N002619999999N0020001N9-01501+99999999999ADDAA199001091AY171999GF106991999999999999999999KA1999N-01611MW1001
0043011990999991952040312004+68750+023550FM-12+038299999V0202801N001019999999N0000501N9-00781+99999999999ADDAY171999GF108991999999999999999999MW1731
0054011990999991952040318004+68750+023550FM-12+038299999V0202401N006719999999N0000501N9-00721+99999999999ADDAA199008091AY171999GF108991999999999999999999MW1731
0067011990999991952040406004+68750+023550FM-12+038299999V0202901N00461220001CN0040001N9-00891+99999999999ADDAA199006091AY171999GF102991999999999999999999KA1999N-01001MW1001
0043011990999991952040412004+68750+023550FM-12+038299999V0202801N00261220001CN0040001N9-00611+99999999999ADDAY131999GF102991999999999999999999MW1001
0043011990999991952040418004+68750+023550FM-12+038299999V0203001N00261220001CN0020001N9-00891+99999999999ADDAY131999GF102991999999999999999999MW1001
0056011990999991952040506004+68750+023550FM-12+038299999V0200401N00101220001CN0040001N9-01501+99999999999ADDAY101999GF100991999999999999999999KA1999N-01501MW1001
0043011990999991952040512004+68750+023550FM-12+038299999V0200501N00101220001CN0100001N9-00611+99999999999ADDAY101999GF102991999999999999999999MW1001
0043011990999991952040518004+68750+023550FM-12+038299999V0201301N00101220001CN0040001N9-01281+99999999999ADDAY101999GF101991999999999999999999MW1001
0056011990999991952040606004+68750+023550FM-12+038299999V0200701N00101220001CN0010001N9-02221+99999999999ADDAY101999GF100991999999999999999999KA1999N-02611MW1001
0043011990999991952040612004+68750+023550FM-12+038299999V0200701N00101220001CN0040001N9-00721+99999999999ADDAY101999GF101991999999999999999999MW1001
0037011990999991952040618004+68750+023550FM-12+038299999V0201801N001019999999N0020001N9-00501+99999999999ADDAY101999GF108991999999999999999999
0056011990999991952040706004+68750+023550FM-12+038299999V0202001N002619999999N0002001N9-00391+99999999999ADDAY141999GF108991999999999999999999KA1999N-00721MW1101
0043011990999991952040712004+68750+023550FM-12+038299999V0201801N00101220001CN0020001N9+00111+99999999999ADDAY141999GF103991999999999999999999MW1101
0054011990999991952040718004+68750+023550FM-12+038299999V0201901N002619999999N0002001N9-00111+99999999999ADDAA199001091AY171999GF107991999999999999999999MW1001
0067011990999991952040806004+68750+023550FM-12+038299999V0201901N001019999999N0000501N9-00111+99999999999ADDAA199001091AY171999GF108991999999999999999999KA1999N-00391MW1001
0043011990999991952040812004+68750+023550FM-12+038299999V0201101N002619999999N0000501N9+00111+99999999999ADDAY171999GF107991999999999999999999MW1691
0054011990999991952040818004+68750+023550FM-12+038299999V0200301N002619999999N0002001N9+00001+99999999999ADDAA199004091AY171999GF108991999999999999999999MW1691
0067011990999991952040906004+68750+023550FM-12+038299999V0202701N00261220001CN0040001N9-00281+99999999999ADDAA199005091AY171999GF103991999999999999999999KA1999N-00281MW1001
0043011990999991952040912004+68750+023550FM-12+038299999V0202801N00261220001CN0100001N9+00281+99999999999ADDAY101999GF103991999999999999999999MW1001
0043011990999991952040918004+68750+023550FM-12+038299999V0202701N00461220001CN0040001N9+00111+99999999999ADDAY101999GF103991999999999999999999MW1001
0056011990999991952041006004+68750+023550FM-12+038299999V0202701N00101220001CN0040001N9-00391+99999999999ADDAY101999GF102991999999999999999999KA1999N-00891MW1001
0043011990999991952041012004+68750+023550FM-12+038299999V0202001N00261220001CN0040001N9+00111+99999999999ADDAY101999GF103991999999999999999999MW1001
0043011990999991952041018004+68750+023550FM-12+038299999V0200501N00101220001CN0020001N9-00111+99999999999ADDAY101999GF104991999999999999999999MW1001
0056011990999991952041106004+68750+023550FM-12+038299999V0201701N00261220001CN0040001N9+00111+99999999999ADDAY101999GF104991999999999999999999KA1999N-00221MW1001
0043011990999991952041112004+68750+023550FM-12+038299999V0202201N00101220001CN0100001N9+00391+99999999999ADDAY101999GF104991999999999999999999MW1001
0043011990999991952041118004+68750+023550FM-12+038299999V0201801N002619999999N0040001N9+00221+99999999999ADDAY101999GF105991999999999999999999MW1001
0056011990999991952041206004+68750+023550FM-12+038299999V0201801N00101220001CN0020001N9+00111+99999999999ADDAY101999GF101991999999999999999999KA1999N+00001MW1001
0043011990999991952041212004+68750+023550FM-12+038299999V0200601N00101220001CN0040001N9+00391+99999999999ADDAY101999GF101991999999999999999999MW1001
0037011990999991952041218004+68750+023550FM-12+038299999V0200401N001019999999N0040001N9+00221+99999999999ADDAY101999GF106991999999999999999999
0056011990999991952041306004+68750+023550FM-12+038299999V0200601N001019999999N0020001N9+00221+99999999999ADDAY141999GF108991999999999999999999KA1999N+00001MW1101
0043011990999991952041312004+68750+023550FM-12+038299999V0202301N00461220001CN0100001N9+00501+99999999999ADDAY101999GF101991999999999999999999MW1001
0043011990999991952041318004+68750+023550FM-12+038299999V0209991C00001220001CN0040001N9+00111+99999999999ADDAY101999GF101991999999999999999999MW1001
0067011990999991952041406004+68750+023550FM-12+038299999V0202701N00261220001CN0040001N9-00281+99999999999ADDAA199000391AY171999GF103991999999999999999999KA1999N-00501MW1001
0043011990999991952041412004+68750+023550FM-12+038299999V0202601N00261220001CN0100001N9+00111+99999999999ADDAY101999GF102991999999999999999999MW1001
0043011990999991952041418004+68750+023550FM-12+038299999V0209991C00001220001CN0040001N9-00221+99999999999ADDAY101999GF103991999999999999999999MW1001
0067011990999991952041506004+68750+023550FM-12+038299999V0201601N004619999999N0002001N9-00111+99999999999ADDAA199001091AY171999GF108991999999999999999999KA1999N-00721MW1731
0043011990999991952041512004+68750+023550FM-12+038299999V0202601N01541220001CN0100001N9+00281+99999999999ADDAY101999GF103991999999999999999999MW1001
0043011990999991952041518004+68750+023550FM-12+038299999V0202501N00931220001CN0040001N9-00221+99999999999ADDAY101999GF104991999999999999999999MW1001
0067011990999991952041606004+68750+023550FM-12+038299999V0203601N012319999999N0000001N9-00221+99999999999ADDAA199005091AY171999GF108991999999999999999999KA1999N-00391MW1731
0043011990999991952041612004+68750+023550FM-12+038299999V0203601N009319999999N0000501N9-00281+99999999999ADDAY171999GF108991999999999999999999MW1731
0054011990999991952041618004+68750+023550FM-12+038299999V0203501N00461220001CN0020001N9-00391+99999999999ADDAA199008091AY171999GF104991999999999999999999MW1361
0056011990999991952041706004+68750+023550FM-12+038299999V0202601N002619999999N0020001N9-00611+99999999999ADDAY131999GF107991999999999999999999KA1999N-00781MW1001
0043011990999991952041712004+68750+023550FM-12+038299999V0203301N004619999999N0002001N9-00221+99999999999ADDAY101999GF108991999999999999999999MW1731
0054011990999991952041718004+68750+023550FM-12+038299999V0203501N002619999999N0010001N9-00501+99999999999ADDAA199000591AY171999GF105991999999999999999999MW1001
0067011990999991952041806004+68750+023550FM-12+038299999V0200301N00101220001CN0040001N9-01111+99999999999ADDAA199001091AY171999GF101991999999999999999999KA1999N-01611MW1001
0043011990999991952041812004+68750+023550FM-12+038299999V0202501N00101220001CN0040001N9-00111+99999999999ADDAY101999GF104991999999999999999999MW1001
0043011990999991952041818004+68750+023550FM-12+038299999V0203601N00101220001CN0020001N9-00611+99999999999ADDAY101999GF104991999999999999999999MW1001
0056011990999991952041906004+68750+023550FM-12+038299999V0203101N00101220001CN0040001N9-01001+99999999999ADDAY101999GF102991999999999999999999KA1999N-01501MW1001
0043011990999991952041912004+68750+023550FM-12+038299999V0202701N00101220001CN0100001N9-00391+99999999999ADDAY101999GF102991999999999999999999MW1001
0043011990999991952041918004+68750+023550FM-12+038299999V0203101N00101220001CN0040001N9-00501+99999999999ADDAY101999GF103991999999999999999999MW1001
0056011990999991952042006004+68750+023550FM-12+038299999V0203001N00101220001CN0040001N9-00891+99999999999ADDAY101999GF103991999999999999999999KA1999N-01391MW1001
0043011990999991952042012004+68750+023550FM-12+038299999V0202401N00101220001CN0100001N9-00111+99999999999ADDAY101999GF101991999999999999999999MW1001
0043011990999991952042018004+68750+023550FM-12+038299999V0200901N00261220001CN0040001N9-00781+99999999999ADDAY101999GF101991999999999999999999MW1001
0056011990999991952042106004+68750+023550FM-12+038299999V0201501N00261220001CN0100001N9-00611+99999999999ADDAY101999GF103991999999999999999999KA1999N-01221MW1001
0043011990999991952042112004+68750+023550FM-12+038299999V0200701N00261220001CN0100001N9+00111+99999999999ADDAY101999GF102991999999999999999999MW1001
0043011990999991952042118004+68750+023550FM-12+038299999V0201701N002619999999N0040001N9-00111+99999999999ADDAY101999GF108991999999999999999999MW1001
0056011990999991952042206004+68750+023550FM-12+038299999V0200201N002619999999N0020001N9-00501+99999999999ADDAY101999GF108991999999999999999999KA1999N-00501MW1001
0043011990999991952042212004+68750+023550FM-12+038299999V0200401N00261220001CN0040001N9-00221+99999999999ADDAY101999GF104991999999999999999999MW1001
0043011990999991952042218004+68750+023550FM-12+038299999V0200601N00261220001CN0020001N9-00391+99999999999ADDAY101999GF104991999999999999999999MW1001
0067011990999991952042306004+68750+023550FM-12+038299999V0201101N004619999999N0010001N9-00501+99999999999ADDAA199001091AY171999GF107991999999999999999999KA1999N-00611MW1361
0043011990999991952042312004+68750+023550FM-12+038299999V0201301N006719999999N0002001N9-00111+99999999999ADDAY131999GF108991999999999999999999MW1361
0054011990999991952042318004+68750+023550FM-12+038299999V0201301N006719999999N0002001N9-00111+99999999999ADDAA199001091AY131999GF108991999999999999999999MW1731
0067011990999991952042406004+68750+023550FM-12+038299999V0202401N002619999999N0002001N9+00001+99999999999ADDAA199001091AY161999GF108991999999999999999999KA1999N-00281MW1611
0043011990999991952042412004+68750+023550FM-12+038299999V0202401N002619999999N0040001N9+00281+99999999999ADDAY101999GF107991999999999999999999MW1001
0043011990999991952042418004+68750+023550FM-12+038299999V0202501N00101220001CN0040001N9+00281+99999999999ADDAY101999GF103991999999999999999999MW1001
0056011990999991952042506004+68750+023550FM-12+038299999V0201801N002619999999N0040001N9+00111+99999999999ADDAY101999GF107991999999999999999999KA1999N+00001MW1001
0043011990999991952042512004+68750+023550FM-12+038299999V0202701N004619999999N0040001N9+00281+99999999999ADDAY101999GF106991999999999999999999MW1001
0043011990999991952042518004+68750+023550FM-12+038299999V0202701N00261220001CN0040001N9+00111+99999999999ADDAY101999GF101991999999999999999999MW1001
0056011990999991952042606004+68750+023550FM-12+038299999V0203401N00261220001CN0040001N9-00221+99999999999ADDAY101999GF104991999999999999999999KA1999N-00391MW1001
0043011990999991952042612004+68750+023550FM-12+038299999V0203101N00261220001CN0100001N9+00111+99999999999ADDAY101999GF104991999999999999999999MW1001
0043011990999991952042618004+68750+023550FM-12+038299999V0202701N00101220001CN0040001N9+00001+99999999999ADDAY101999GF104991999999999999999999MW1001
0056011990999991952042706004+68750+023550FM-12+038299999V0201901N00261220001CN0040001N9-00111+99999999999ADDAY101999GF103991999999999999999999KA1999N-00281MW1001
0043011990999991952042712004+68750+023550FM-12+038299999V0201901N00261220001CN0040001N9+00281+99999999999ADDAY101999GF104991999999999999999999MW1001
0043011990999991952042718004+68750+023550FM-12+038299999V0202201N002619999999N0020001N9+00281+99999999999ADDAY101999GF105991999999999999999999MW1001
0067011990999991952042806004+68750+023550FM-12+038299999V0202401N002619999999N0020001N9+00281+99999999999ADDAA199001091AY161999GF107991999999999999999999KA1999N+00221MW1101
0043011990999991952042812004+68750+023550FM-12+038299999V0202501N004619999999N0040001N9+00501+99999999999ADDAY101999GF105991999999999999999999MW1001
0043011990999991952042818004+68750+023550FM-12+038299999V0202701N00261220001CN0040001N9+00501+99999999999ADDAY101999GF103991999999999999999999MW1001
0067011990999991952042906004+68750+023550FM-12+038299999V0200701N001019999999N0010001N9+00281+99999999999ADDAA199002091AY161999GF107991999999999999999999KA1999N+00001MW1101
0043011990999991952042912004+68750+023550FM-12+038299999V0200101N001019999999N0040001N9+00281+99999999999ADDAY141999GF107991999999999999999999MW1101
0043011990999991952042918004+68750+023550FM-12+038299999V0200801N002619999999N0020001N9+00111+99999999999ADDAY141999GF108991999999999999999999MW1101
0056011990999991952043006004+68750+023550FM-12+038299999V0201101N00461220001CN0040001N9-00281+99999999999ADDAY101999GF104991999999999999999999KA1999N-00391MW1001
0043011990999991952043012004+68750+023550FM-12+038299999V0201301N004619999999N0040001N9+00111+99999999999ADDAY101999GF107991999999999999999999MW1001
0043011990999991952043018004+68750+023550FM-12+038299999V0201501N002619999999N0040001N9-00111+99999999999ADDAY101999GF108991999999999999999999MW1001
0056011990999991952050106004+68750+023550FM-12+038299999V0201701N004619999999N0040001N9-00281+99999999999ADDAY101999GF108991999999999999999999KA1999N-00281MW1001
0043011990999991952050112004+68750+023550FM-12+038299999V0201601N004619999999N0100001N9+00001+99999999999ADDAY101999GF107991999999999999999999MW1001
0043011990999991952050118004+68750+023550FM-12+038299999V0201901N004619999999N0040001N9+00111+99999999999ADDAY101999GF106991999999999999999999MW1001
0056011990999991952050206004+68750+023550FM-12+038299999V0201901N002619999999N0040001N9-00111+99999999999ADDAY101999GF106991999999999999999999KA1999N-00221MW1001
0043011990999991952050212004+68750+023550FM-12+038299999V0202801N00101220001CN0100001N9+00221+99999999999ADDAY101999GF102991999999999999999999MW1001
0043011990999991952050218004+68750+023550FM-12+038299999V0203001N00101220001CN0100001N9+00281+99999999999ADDAY101999GF102991999999999999999999MW1001
0056011990999991952050306004+68750+023550FM-12+038299999V0203301N00101220001CN0100001N9-00221+99999999999ADDAY101999GF102991999999999999999999KA1999N-00501MW1001
0043011990999991952050312004+68750+023550FM-12+038299999V0200201N002619999999N0100001N9+00111+99999999999ADDAY101999GF107991999999999999999999MW1001
0054011990999991952050318004+68750+023550FM-12+038299999V0200301N002619999999N0005001N9-00111+99999999999ADDAA199000591AY171999GF107991999999999999999999MW1711
0067011990999991952050406004+68750+023550FM-12+038299999V0200401N004619999999N0005001N9-00281+99999999999ADDAA199001091AY171999GF107991999999999999999999KA1999N-00281MW1361
0043011990999991952050412004+68750+023550FM-12+038299999V0200501N006719999999N0010001N9-00111+99999999999ADDAY131999GF107991999999999999999999MW1361
0043011990999991952050418004+68750+023550FM-12+038299999V0200501N002619999999N0040001N9-00221+99999999999ADDAY131999GF106991999999999999999999MW1001
0056011990999991952050506004+68750+023550FM-12+038299999V0201501N002619999999N0040001N9-00221+99999999999ADDAY101999GF108991999999999999999999KA1999N-00391MW1001
0043011990999991952050512004+68750+023550FM-12+038299999V0201601N001019999999N0100001N9+00221+99999999999ADDAY101999GF107991999999999999999999MW1001
0043011990999991952050518004+68750+023550FM-12+038299999V0201301N00101220001CN0100001N9+00221+99999999999ADDAY101999GF102991999999999999999999MW1001
0056011990999991952050606004+68750+023550FM-12+038299999V0200801N00261220001CN0100001N9-00221+99999999999ADDAY101999GF101991999999999999999999KA1999N-00281MW1001
0043011990999991952050612004+68750+023550FM-12+038299999V0200901N00461220001CN0100001N9+00111+99999999999ADDAY101999GF102991999999999999999999MW1001
0043011990999991952050618004+68750+023550FM-12+038299999V0200201N00261220001CN0100001N9-00221+99999999999ADDAY101999GF101991999999999999999999MW1001
0056011990999991952050706004+68750+023550FM-12+038299999V0201101N004619999999N0040001N9-00391+99999999999ADDAY101999GF107991999999999999999999KA1999N-00721MW1001
0043011990999991952050712004+68750+023550FM-12+038299999V0201201N00461220001CN0100001N9-00221+99999999999ADDAY101999GF100991999999999999999999MW1001
0043011990999991952050718004+68750+023550FM-12+038299999V0201201N00261220001CN0100001N9-00281+99999999999ADDAY101999GF100991999999999999999999MW1001
0056011990999991952050806004+68750+023550FM-12+038299999V0201901N00261220001CN0040001N9-00281+99999999999ADDAY101999GF103991999999999999999999KA1999N-00781MW1001
0043011990999991952050812004+68750+023550FM-12+038299999V0202501N00261220001CN0100001N9+00281+99999999999ADDAY101999GF102991999999999999999999MW1001
0043011990999991952050818004+68750+023550FM-12+038299999V0202701N00101220001CN0100001N9+00281+99999999999ADDAY101999GF102991999999999999999999MW1001
0056011990999991952050906004+68750+023550FM-12+038299999V0202701N00261220001CN0040001N9+00281+99999999999ADDAY101999GF102991999999999999999999KA1999N-00221MW1001
0043011990999991952050912004+68750+023550FM-12+038299999V0202701N00261220001CN0040001N9+00611+99999999999ADDAY141999GF103991999999999999999999MW1101
0043011990999991952050918004+68750+023550FM-12+038299999V0203601N00261220001CN0040001N9+00391+99999999999ADDAY101999GF103991999999999999999999MW1001
0056011990999991952051006004+68750+023550FM-12+038299999V0202901N002619999999N0040001N9+00221+99999999999ADDAY101999GF108991999999999999999999KA1999N+00111MW1001
0043011990999991952051012004+68750+023550FM-12+038299999V0203601N002619999999N0040001N9+00281+99999999999ADDAY141999GF107991999999999999999999MW1101
0043011990999991952051018004+68750+023550FM-12+038299999V0203601N002619999999N0020001N9+00221+99999999999ADDAY141999GF107991999999999999999999MW1101
0067011990999991952051106004+68750+023550FM-12+038299999V0203001N00101220001CN0100001N9+00111+99999999999ADDAA199001091AY171999GF104991999999999999999999KA1999N-00501MW1001
0043011990999991952051112004+68750+023550FM-12+038299999V0203601N00101220001CN0100001N9+00111+99999999999ADDAY101999GF104991999999999999999999MW1001
0054011990999991952051118004+68750+023550FM-12+038299999V0202501N00461220001CN0040001N9-00501+99999999999ADDAA199001091AY171999GF102991999999999999999999MW1001
0056011990999991952051206004+68750+023550FM-12+038299999V0200301N00261220001CN0100001N9-00391+99999999999ADDAY101999GF103991999999999999999999KA1999N-00721MW1001
0043011990999991952051212004+68750+023550FM-12+038299999V0200301N00101220001CN0100001N9-00221+99999999999ADDAY101999GF102991999999999999999999MW1001
0043011990999991952051218004+68750+023550FM-12+038299999V0200901N00101220001CN0100001N9-00221+99999999999ADDAY101999GF102991999999999999999999MW1001
0056011990999991952051306004+68750+023550FM-12+038299999V0200901N00261220001CN0100001N9-00611+99999999999ADDAY101999GF103991999999999999999999KA1999N-01001MW1001
0043011990999991952051312004+68750+023550FM-12+038299999V0200801N00261220001CN0100001N9-00111+99999999999ADDAY101999GF102991999999999999999999MW1001
0043011990999991952051318004+68750+023550FM-12+038299999V0200901N00101220001CN0100001N9-00221+99999999999ADDAY101999GF103991999999999999999999MW1001
0056011990999991952051406004+68750+023550FM-12+038299999V0200701N002619999999N0040001N9-00391+99999999999ADDAY101999GF105991999999999999999999KA1999N-00891MW1001
0043011990999991952051412004+68750+023550FM-12+038299999V0201001N00101220001CN0100001N9+00221+99999999999ADDAY101999GF102991999999999999999999MW1101
0043011990999991952051418004+68750+023550FM-12+038299999V0201001N00101220001CN0040001N9-00111+99999999999ADDAY101999GF103991999999999999999999MW1001
0067011990999991952051506004+68750+023550FM-12+038299999V0203601N00261220001CN0100001N9-00391+99999999999ADDAA199001091AY171999GF103991999999999999999999KA1999N-00611MW1001
0043011990999991952051512004+68750+023550FM-12+038299999V0200101N00261220001CN0100001N9-00221+99999999999ADDAY101999GF103991999999999999999999MW1001
0054011990999991952051518004+68750+023550FM-12+038299999V0203101N002619999999N0005001N9-00281+99999999999ADDAA199000591AY171999GF107991999999999999999999MW1731
0067011990999991952051606004+68750+023550FM-12+038299999V0202701N002619999999N0020001N9-00221+99999999999ADDAA199003091AY171999GF107991999999999999999999KA1999N-00501MW1001
0043011990999991952051612004+68750+023550FM-12+038299999V0203501N00261220001CN0100001N9-00111+99999999999ADDAY101999GF102991999999999999999999MW1001
0054011990999991952051618004+68750+023550FM-12+038299999V0203301N004619999999N0020001N9-00221+99999999999ADDAA199001091AY171999GF107991999999999999999999MW1361
0067011990999991952051706004+68750+023550FM-12+038299999V0203401N002619999999N0040001N9-00281+99999999999ADDAA199000391AY171999GF106991999999999999999999KA1999N-00611MW1001
0043011990999991952051712004+68750+023550FM-12+038299999V0203201N002619999999N0100001N9-00111+99999999999ADDAY101999GF107991999999999999999999MW1001
0054011990999991952051718004+68750+023550FM-12+038299999V0200301N002619999999N0002001N9-00221+99999999999ADDAA199002091AY171999GF108991999999999999999999MW1731
0067011990999991952051806004+68750+023550FM-12+038299999V0200401N00261220001CN0100001N9-00391+99999999999ADDAA199001091AY171999GF102991999999999999999999KA1999N-00891MW1001
0043011990999991952051812004+68750+023550FM-12+038299999V0200201N00261220001CN0100001N9-00221+99999999999ADDAY101999GF102991999999999999999999MW1001
0043011990999991952051818004+68750+023550FM-12+038299999V0200101N00261220001CN0100001N9-00281+99999999999ADDAY101999GF102991999999999999999999MW1001
0067011990999991952051906004+68750+023550FM-12+038299999V0202601N00261220001CN0100001N9-00501+99999999999ADDAA199000591AY171999GF101991999999999999999999KA1999N-00891MW1001
0043011990999991952051912004+68750+023550FM-12+038299999V0200501N00101220001CN0100001N9+00221+99999999999ADDAY101999GF103991999999999999999999MW1001
0043011990999991952051918004+68750+023550FM-12+038299999V0201601N00261220001CN0100001N9-00221+99999999999ADDAY101999GF101991999999999999999999MW1001
0056011990999991952052006004+68750+023550FM-12+038299999V0201601N002619999999N0020001N9-00221+99999999999ADDAY141999GF107991999999999999999999KA1999N-00501MW1101
0043011990999991952052012004+68750+023550FM-12+038299999V0202301N002619999999N0040001N9+00281+99999999999ADDAY101999GF107991999999999999999999MW1101
0043011990999991952052018004+68750+023550FM-12+038299999V0201901N001019999999N0040001N9+00281+99999999999ADDAY101999GF106991999999999999999999MW1101
0056011990999991952052106004+68750+023550FM-12+038299999V0201701N002619999999N0040001N9+00221+99999999999ADDAY101999GF106991999999999999999999KA1999N+00001MW1001
0043011990999991952052112004+68750+023550FM-12+038299999V0202101N002619999999N0040001N9+00501+99999999999ADDAY101999GF105991999999999999999999MW1001
0054011990999991952052118004+68750+023550FM-12+038299999V0202401N001019999999N0002001N9+00501+99999999999ADDAA199001091AY161999GF108991999999999999999999MW1631
0067011990999991952052206004+68750+023550FM-12+038299999V0201701N001019999999N0040001N9+00501+99999999999ADDAA199002091AY161999GF105991999999999999999999KA1999N+00221MW1001
0043011990999991952052212004+68750+023550FM-12+038299999V0202501N001019999999N0020001N9+00721+99999999999ADDAY161999GF106991999999999999999999MW1101
0054011990999991952052218004+68750+023550FM-12+038299999V0200401N00101220001CN0040001N9+00501+99999999999ADDAA199000591AY161999GF103991999999999999999999MW1001
0067011990999991952052306004+68750+023550FM-12+038299999V0200501N00101220001CN0100001N9+00501+99999999999ADDAA199002091AY161999GF103991999999999999999999KA1999N+00111MW1001
0043011990999991952052312004+68750+023550FM-12+038299999V0200201N00101220001CN0100001N9+00891+99999999999ADDAY101999GF104991999999999999999999MW1001
0043011990999991952052318004+68750+023550FM-12+038299999V0200801N001019999999N0020001N9+00391+99999999999ADDAY101999GF108991999999999999999999MW1101
0067011990999991952052406004+68750+023550FM-12+038299999V0203101N00101220001CN0040001N9+00391+99999999999ADDAA199002091AY161999GF103991999999999999999999KA1999N+00221MW1001
0043011990999991952052412004+68750+023550FM-12+038299999V0202401N00261220001CN0100001N9+00721+99999999999ADDAY101999GF102991999999999999999999MW1001
0043011990999991952052418004+68750+023550FM-12+038299999V0202401N00261220001CN0100001N9+00611+99999999999ADDAY101999GF101991999999999999999999MW1001
0056011990999991952052506004+68750+023550FM-12+038299999V0201801N00261220001CN0040001N9+00281+99999999999ADDAY101999GF104991999999999999999999KA1999N+00111MW1001
0043011990999991952052512004+68750+023550FM-12+038299999V0202801N001019999999N0002001N9+00221+99999999999ADDAY171999GF108991999999999999999999MW1711
0054011990999991952052518004+68750+023550FM-12+038299999V0203401N00101220001CN0040001N9+00391+99999999999ADDAA199002091AY171999GF104991999999999999999999MW1001
0067011990999991952052606004+68750+023550FM-12+038299999V0203501N00101220001CN0100001N9+00221+99999999999ADDAA199000591AY171999GF102991999999999999999999KA1999N+00111MW1001
0043011990999991952052612004+68750+023550FM-12+038299999V0202701N00261220001CN0100001N9+00391+99999999999ADDAY101999GF102991999999999999999999MW1001
0043011990999991952052618004+68750+023550FM-12+038299999V0203601N00261220001CN0100001N9+00281+99999999999ADDAY101999GF101991999999999999999999MW1001
0050011990999991952052706004+68750+023550FM-12+038299999V0200101N002619999999N0040001N9+00111+99999999999ADDAY101999GF107991999999999999999999KA1999N-00221
0043011990999991952052712004+68750+023550FM-12+038299999V0203601N002619999999N0040001N9+00221+99999999999ADDAY101999GF106991999999999999999999MW1001
0043011990999991952052718004+68750+023550FM-12+038299999V0200101N002619999999N0040001N9+00221+99999999999ADDAY101999GF107991999999999999999999MW1001
0056011990999991952052806004+68750+023550FM-12+038299999V0201601N002619999999N0040001N9+00221+99999999999ADDAY101999GF106991999999999999999999KA1999N+00001MW1001
0043011990999991952052812004+68750+023550FM-12+038299999V0201401N00261220001CN0040001N9+00391+99999999999ADDAY101999GF103991999999999999999999MW1001
0043011990999991952052818004+68750+023550FM-12+038299999V0201201N00261220001CN0040001N9+00391+99999999999ADDAY101999GF102991999999999999999999MW1001
0056011990999991952052906004+68750+023550FM-12+038299999V0201601N002619999999N0040001N9+00391+99999999999ADDAY101999GF106991999999999999999999KA1999N+00001MW1001
0043011990999991952052912004+68750+023550FM-12+038299999V0201501N00461220001CN0100001N9+00781+99999999999ADDAY101999GF103991999999999999999999MW1001
0043011990999991952052918004+68750+023550FM-12+038299999V0201401N002619999999N0040001N9+00721+99999999999ADDAY101999GF107991999999999999999999MW1001
0067011990999991952053006004+68750+023550FM-12+038299999V0200801N002619999999N0005001N9+00391+99999999999ADDAA199001091AY161999GF108991999999999999999999KA1999N+00221MW1531
0043011990999991952053012004+68750+023550FM-12+038299999V0201001N004619999999N0040001N9+00611+99999999999ADDAY101999GF107991999999999999999999MW1101
0054011990999991952053018004+68750+023550FM-12+038299999V0200901N002619999999N0010001N9+00391+99999999999ADDAA199000691AY141999GF108991999999999999999999MW1611
0067011990999991952053106004+68750+023550FM-12+038299999V0201101N004619999999N0010001N9+00501+99999999999ADDAA199002091AY161999GF108991999999999999999999KA1999N+00281MW1611
0043011990999991952053112004+68750+023550FM-12+038299999V0201401N006719999999N0020001N9+00721+99999999999ADDAY101999GF107991999999999999999999MW1101
0054011990999991952053118004+68750+023550FM-12+038299999V0201601N006719999999N0005001N9+00501+99999999999ADDAA199001091AY161999GF106991999999999999999999MW1611
0067011990999991952060106004+68750+023550FM-12+038299999V0201801N004619999999N0040001N9+00501+99999999999ADDAA199002091AY161999GF107991999999999999999999KA1999N+00281MW1101
0043011990999991952060112004+68750+023550FM-12+038299999V0201801N002619999999N0040001N9+00611+99999999999ADDAY181999GF106991999999999999999999MW1001
0054011990999991952060118004+68750+023550FM-12+038299999V0202401N00101220001CN0100001N9+00891+99999999999ADDAA199001091AY101999GF103991999999999999999999MW1001
0056011990999991952060206004+68750+023550FM-12+038299999V0202401N00461220001CN0100001N9+00611+99999999999ADDAY101999GF101991999999999999999999KA1999N+00001MW1001
0043011990999991952060212004+68750+023550FM-12+038299999V0202101N00461220001CN0100001N9+00721+99999999999ADDAY101999GF103991999999999999999999MW1001
0043011990999991952060218004+68750+023550FM-12+038299999V0201501N002619999999N0040001N9+00611+99999999999ADDAY101999GF107991999999999999999999MW1001
0067011990999991952060306004+68750+023550FM-12+038299999V0201001N004619999999N0005001N9+00281+99999999999ADDAA199003091AY161999GF108991999999999999999999KA1999N+00221MW1631
0043011990999991952060312004+68750+023550FM-12+038299999V0201001N006719999999N0002001N9+00391+99999999999ADDAY161999GF108991999999999999999999MW1631
0054011990999991952060318004+68750+023550FM-12+038299999V0201001N004619999999N0000501N9+00501+99999999999ADDAA199001091AY161999GF109991999999999999999999MW1451
0067011990999991952060406004+68750+023550FM-12+038299999V0200901N004619999999N0000501N9+00281+99999999999ADDAA199000391AY161999GF109991999999999999999999KA1999N+00221MW1451
0043011990999991952060412004+68750+023550FM-12+038299999V0200901N002619999999N0040001N9+00281+99999999999ADDAY141999GF107991999999999999999999MW1001
0054011990999991952060418004+68750+023550FM-12+038299999V0200901N002619999999N0002001N9+00391+99999999999ADDAA199001091AY161999GF108991999999999999999999MW1611
0067011990999991952060506004+68750+023550FM-12+038299999V0200501N00261220001CN0040001N9+00281+99999999999ADDAA199000391AY161999GF103991999999999999999999KA1999N+00221MW1001
0043011990999991952060512004+68750+023550FM-12+038299999V0200901N00261220001CN0100001N9+00611+99999999999ADDAY101999GF104991999999999999999999MW1001
0043011990999991952060518004+68750+023550FM-12+038299999V0200701N00261220001CN0100001N9+00611+99999999999ADDAY101999GF102991999999999999999999MW1001
0056011990999991952060606004+68750+023550FM-12+038299999V0201401N00261220001CN0100001N9+00281+99999999999ADDAY101999GF101991999999999999999999KA1999N-00111MW1001
0043011990999991952060612004+68750+023550FM-12+038299999V0201701N00461220001CN0100001N9+00891+99999999999ADDAY101999GF102991999999999999999999MW1001
0043011990999991952060618004+68750+023550FM-12+038299999V0201801N00461220001CN0100001N9+01001+99999999999ADDAY101999GF103991999999999999999999MW1001
0067011990999991952060706004+68750+023550FM-12+038299999V0201201N004619999999N0005001N9+00611+99999999999ADDAA199000591AY161999GF108991999999999999999999KA1999N+00391MW1611
0043011990999991952060712004+68750+023550FM-12+038299999V0201501N006719999999N0040001N9+00891+99999999999ADDAY161999GF107991999999999999999999MW1101
0054011990999991952060718004+68750+023550FM-12+038299999V0201601N004619999999N0020001N9+01001+99999999999ADDAA199000591AY161999GF108991999999999999999999MW1101
0067011990999991952060806004+68750+023550FM-12+038299999V0201401N00261220001CN0040001N9+01001+99999999999ADDAA199000391AY161999GF104991999999999999999999KA1999N+00781MW1001
0043011990999991952060812004+68750+023550FM-12+038299999V0201501N006719999999N0100001N9+01611+99999999999ADDAY101999GF106991999999999999999999MW1001
0043011990999991952060818004+68750+023550FM-12+038299999V0201501N004619999999N0040001N9+01111+99999999999ADDAY141999GF105991999999999999999999MW1101
0067011990999991952060906004+68750+023550FM-12+038299999V0203101N001019999999N0000501N9+00891+99999999999ADDAA199002091AY161999GF109991999999999999999999KA1999N+00611MW1451
0043011990999991952060912004+68750+023550FM-12+038299999V0202401N001019999999N0002001N9+01221+99999999999ADDAY161999GF108991999999999999999999MW1631
0054011990999991952060918004+68750+023550FM-12+038299999V0200601N001019999999N0000501N9+00781+99999999999ADDAA199009091AY161999GF108991999999999999999999MW1651
0067011990999991952061006004+68750+023550FM-12+038299999V0200101N004619999999N0002001N9+00501+99999999999ADDAA199023091AY161999GF107991999999999999999999KA1999N+00221MW1611
0043011990999991952061012004+68750+023550FM-12+038299999V0200401N00671220001CN0100001N9+01391+99999999999ADDAY101999GF102991999999999999999999MW1631
0054011990999991952061018004+68750+023550FM-12+038299999V0200501N00461220001CN0100001N9+01221+99999999999ADDAA199000691AY101999GF101991999999999999999999MW1001
0067011990999991952061106004+68750+023550FM-12+038299999V0200401N002619999999N0002001N9+00221+99999999999ADDAA199004091AY171999GF107991999999999999999999KA1999N+00001MW1611
0043011990999991952061112004+68750+023550FM-12+038299999V0201101N001019999999N0020001N9+00721+99999999999ADDAY161999GF107991999999999999999999MW1001
0054011990999991952061118004+68750+023550FM-12+038299999V0200801N002619999999N0040001N9+00721+99999999999ADDAA199000391AY161999GF106991999999999999999999MW1001
0056011990999991952061206004+68750+023550FM-12+038299999V0201201N004619999999N0010001N9+00611+99999999999ADDAY141999GF107991999999999999999999KA1999N+00391MW1101
0043011990999991952061212004+68750+023550FM-12+038299999V0201001N00461220001CN0040001N9+00891+99999999999ADDAY101999GF104991999999999999999999MW1001
0043011990999991952061218004+68750+023550FM-12+038299999V0200701N00101220001CN0100001N9+01221+99999999999ADDAY101999GF101991999999999999999999MW1001
0050011990999991952061306004+68750+023550FM-12+038299999V0200901N00461220001CN0100001N9+00781+99999999999ADDAY101999GF101991999999999999999999KA1999N+00501
0043011990999991952061312004+68750+023550FM-12+038299999V0200901N00261220001CN0100001N9+01221+99999999999ADDAY101999GF101991999999999999999999MW1001
0043011990999991952061318004+68750+023550FM-12+038299999V0201101N00261220001CN0100001N9+01221+99999999999ADDAY101999GF101991999999999999999999MW1001
0056011990999991952061406004+68750+023550FM-12+038299999V0200701N00261220001CN0100001N9+00391+99999999999ADDAY101999GF103991999999999999999999KA1999N+00111MW1001
0043011990999991952061412004+68750+023550FM-12+038299999V0200701N001019999999N0040001N9+00891+99999999999ADDAY101999GF107991999999999999999999MW1001
0054011990999991952061418004+68750+023550FM-12+038299999V0201701N002619999999N0040001N9+00611+99999999999ADDAA199001091AY161999GF108991999999999999999999MW1631
0067011990999991952061506004+68750+023550FM-12+038299999V0201101N002619999999N0040001N9+00781+99999999999ADDAA199002091AY161999GF106991999999999999999999KA1999N+00501MW1611
0043011990999991952061512004+68750+023550FM-12+038299999V0201301N002619999999N0100001N9+01281+99999999999ADDAY101999GF107991999999999999999999MW1001
0054011990999991952061518004+68750+023550FM-12+038299999V0201501N002619999999N0040001N9+01001+99999999999ADDAA199003091AY161999GF107991999999999999999999MW1631
0067011990999991952061606004+68750+023550FM-12+038299999V0201301N004619999999N0020001N9+01111+99999999999ADDAA199008091AY161999GF108991999999999999999999KA1999N+00891MW1631
0043011990999991952061612004+68750+023550FM-12+038299999V0201501N004619999999N0040001N9+01221+99999999999ADDAY161999GF108991999999999999999999MW1631
0054011990999991952061618004+68750+023550FM-12+038299999V0201801N00671220001CN0100001N9+01391+99999999999ADDAA199001091AY161999GF103991999999999999999999MW1001
0067011990999991952061706004+68750+023550FM-12+038299999V0209991C000019999999N0020001N9+00891+99999999999ADDAA199002091AY161999GF107991999999999999999999KA1999N+00781MW1611
0043011990999991952061712004+68750+023550FM-12+038299999V0202201N00101220001CN0100001N9+01501+99999999999ADDAY101999GF104991999999999999999999MW1001
0054011990999991952061718004+68750+023550FM-12+038299999V0200101N001019999999N0005001N9+01221+99999999999ADDAA199001091AY161999GF108991999999999999999999MW1631
0067011990999991952061806004+68750+023550FM-12+038299999V0202801N002619999999N0005001N9+00781+99999999999ADDAA199015091AY161999GF108991999999999999999999KA1999N+00721MW1631
0043011990999991952061812004+68750+023550FM-12+038299999V0203601N00261220001CN0100001N9+01221+99999999999ADDAY141999GF104991999999999999999999MW1001
0043011990999991952061818004+68750+023550FM-12+038299999V0200601N00101220001CN0100001N9+01611+99999999999ADDAY101999GF102991999999999999999999MW1001
0056011990999991952061906004+68750+023550FM-12+038299999V0201501N00261220001CN0100001N9+01501+99999999999ADDAY101999GF101991999999999999999999KA1999N+01111MW1001
0043011990999991952061912004+68750+023550FM-12+038299999V0202001N00261220001CN0100001N9+01891+99999999999ADDAY101999GF101991999999999999999999MW1001
0043011990999991952061918004+68750+023550FM-12+038299999V0201301N00261220001CN0100001N9+01891+99999999999ADDAY101999GF102991999999999999999999MW1001
0056011990999991952062006004+68750+023550FM-12+038299999V0201001N00261220001CN0100001N9+01721+99999999999ADDAY101999GF104991999999999999999999KA1999N+01111MW1001
0043011990999991952062012004+68750+023550FM-12+038299999V0201001N002619999999N0005001N9+01391+99999999999ADDAY191999GF107991999999999999999999MW1961
0054011990999991952062018004+68750+023550FM-12+038299999V0201101N00261220001CN0100001N9+01501+99999999999ADDAA199012091AY191999GF102991999999999999999999MW1051
0056011990999991952062106004+68750+023550FM-12+038299999V0202001N002619999999N0040001N9+01221+99999999999ADDAY101999GF107991999999999999999999KA1999N+00891MW1001
0043011990999991952062112004+68750+023550FM-12+038299999V0201901N00261220001CN0040001N9+01281+99999999999ADDAY161999GF103991999999999999999999MW1051
0054011990999991952062118004+68750+023550FM-12+038299999V0201801N00261220001CN0100001N9+01501+99999999999ADDAA199002091AY101999GF104991999999999999999999MW1001
0056011990999991952062206004+68750+023550FM-12+038299999V0201701N00261220001CN0100001N9+01281+99999999999ADDAY101999GF101991999999999999999999KA1999N+01001MW1001
0043011990999991952062212004+68750+023550FM-12+038299999V0201801N00101220001CN0100001N9+01721+99999999999ADDAY101999GF101991999999999999999999MW1001
0043011990999991952062218004+68750+023550FM-12+038299999V0209991C000019999999N0100001N9+01721+99999999999ADDAY101999GF107991999999999999999999MW1001
0067011990999991952062306004+68750+023550FM-12+038299999V0200501N004619999999N0002001N9+01001+99999999999ADDAA199002091AY161999GF108991999999999999999999KA1999N+00781MW1631
0043011990999991952062312004+68750+023550FM-12+038299999V0200801N012319999999N0005001N9+00891+99999999999ADDAY161999GF108991999999999999999999MW1631
0054011990999991952062318004+68750+023550FM-12+038299999V0200701N009319999999N0005001N9+01001+99999999999ADDAA199000591AY161999GF107991999999999999999999MW1611
0067011990999991952062406004+68750+023550FM-12+038299999V0201401N004619999999N0000501N9+01001+99999999999ADDAA199003091AY161999GF108991999999999999999999KA1999N+00891MW1631
0043011990999991952062412004+68750+023550FM-12+038299999V0201301N004619999999N0010001N9+01001+99999999999ADDAY161999GF107991999999999999999999MW1631
0054011990999991952062418004+68750+023550FM-12+038299999V0201101N002619999999N0100001N9+01281+99999999999ADDAA199002091AY161999GF105991999999999999999999MW1001
0067011990999991952062506004+68750+023550FM-12+038299999V0201501N002619999999N0000501N9+01001+99999999999ADDAA199010091AY161999GF108991999999999999999999KA1999N+01001MW1631
0043011990999991952062512004+68750+023550FM-12+038299999V0201801N00461220001CN0010001N9+01281+99999999999ADDAY161999GF104991999999999999999999MW1001
0054011990999991952062518004+68750+023550FM-12+038299999V0201801N00461220001CN0010001N9+01221+99999999999ADDAA199002091AY161999GF104991999999999999999999MW1631
0067011990999991952062606004+68750+023550FM-12+038299999V0203401N004619999999N0020001N9+00781+99999999999ADDAA199001091AY161999GF108991999999999999999999KA1999N+00721MW1611
0043011990999991952062612004+68750+023550FM-12+038299999V0203401N002619999999N0040001N9+01001+99999999999ADDAY101999GF106991999999999999999999MW1531
0048011990999991952062618004+68750+023550FM-12+038299999V0203501N002619999999N0040001N9+01111+99999999999ADDAA199000391AY151999GF106991999999999999999999
0056011990999991952062706004+68750+023550FM-12+038299999V0202601N00261220001CN0040001N9+01001+99999999999ADDAY101999GF103991999999999999999999KA1999N+00611MW1001
0043011990999991952062712004+68750+023550FM-12+038299999V0202001N00261220001CN0040001N9+01391+99999999999ADDAY101999GF104991999999999999999999MW1001
0043011990999991952062718004+68750+023550FM-12+038299999V0201801N00261220001CN0100001N9+01611+99999999999ADDAY101999GF103991999999999999999999MW1001
0056011990999991952062806004+68750+023550FM-12+038299999V0201701N00261220001CN0100001N9+01281+99999999999ADDAY191999GF101991999999999999999999KA1999N+01001MW1001
0043011990999991952062812004+68750+023550FM-12+038299999V0202201N004619999999N0040001N9+01891+99999999999ADDAY101999GF107991999999999999999999MW1001
0054011990999991952062818004+68750+023550FM-12+038299999V0201701N002619999999N0020001N9+01281+99999999999ADDAA199001091AY161999GF106991999999999999999999MW1611
0067011990999991952062906004+68750+023550FM-12+038299999V0202301N002619999999N0002001N9+01281+99999999999ADDAA199001091AY151999GF108991999999999999999999KA1999N+01221MW1611
0043011990999991952062912004+68750+023550FM-12+038299999V0202201N002619999999N0040001N9+01391+99999999999ADDAY151999GF107991999999999999999999MW1531
0054011990999991952062918004+68750+023550FM-12+038299999V0201601N00261220001CN0040001N9+01721+99999999999ADDAA199000591AY161999GF103991999999999999999999MW1001
0067011990999991952063006004+68750+023550FM-12+038299999V0201601N004619999999N0005001N9+01281+99999999999ADDAA199000591AY151999GF108991999999999999999999KA1999N+01001MW1631
0043011990999991952063012004+68750+023550FM-12+038299999V0202101N004619999999N0005001N9+01281+99999999999ADDAY161999GF107991999999999999999999MW1611
0054011990999991952063018004+68750+023550FM-12+038299999V0203401N004619999999N0010001N9+01001+99999999999ADDAA199004091AY161999GF105991999999999999999999MW1631
0056011990999991952070106004+68750+023550FM-12+038299999V0201201N00101220001CN0040001N9+01001+99999999999ADDAY141999GF103991999999999999999999KA1999N+00611MW1001
0043011990999991952070112004+68750+023550FM-12+038299999V0202701N002619999999N0020001N9+01001+99999999999ADDAY181999GF107991999999999999999999MW1631
0054011990999991952070118004+68750+023550FM-12+038299999V0200601N00261220001CN0040001N9+01281+99999999999ADDAA199002091AY161999GF103991999999999999999999MW1001
0056011990999991952070206004+68750+023550FM-12+038299999V0202701N00461220001CN0100001N9+01111+99999999999ADDAY101999GF102991999999999999999999KA1999N+00501MW1001
0043011990999991952070212004+68750+023550FM-12+038299999V0202601N00461220001CN0100001N9+01501+99999999999ADDAY101999GF104991999999999999999999MW1001
0043011990999991952070218004+68750+023550FM-12+038299999V0202101N00461220001CN0040001N9+01611+99999999999ADDAY101999GF104991999999999999999999MW1001
0067011990999991952070306004+68750+023550FM-12+038299999V0201801N004619999999N0005001N9+01221+99999999999ADDAA199001091AY161999GF108991999999999999999999KA1999N+01221MW1631
0043011990999991952070312004+68750+023550FM-12+038299999V0201801N006719999999N0000501N9+01281+99999999999ADDAY161999GF108991999999999999999999MW1631
0054011990999991952070318004+68750+023550FM-12+038299999V0202901N00461220001CN0100001N9+01281+99999999999ADDAA199006091AY161999GF101991999999999999999999MW1001
0056011990999991952070406004+68750+023550FM-12+038299999V0202701N00671220001CN0100001N9+00891+99999999999ADDAY101999GF102991999999999999999999KA1999N+00501MW1001
0043011990999991952070412004+68750+023550FM-12+038299999V0202901N00671220001CN0040001N9+01111+99999999999ADDAY101999GF104991999999999999999999MW1001
0043011990999991952070418004+68750+023550FM-12+038299999V0202801N004619999999N0040001N9+00781+99999999999ADDAY101999GF107991999999999999999999MW1001
0056011990999991952070506004+68750+023550FM-12+038299999V0202801N004619999999N0040001N9+00721+99999999999ADDAY101999GF106991999999999999999999KA1999N+00501MW1001
0043011990999991952070512004+68750+023550FM-12+038299999V0203401N00671220001CN0040001N9+01221+99999999999ADDAY101999GF104991999999999999999999MW1001
0043011990999991952070518004+68750+023550FM-12+038299999V0203301N00461220001CN0040001N9+01001+99999999999ADDAY101999GF103991999999999999999999MW1001
0056011990999991952070606004+68750+023550FM-12+038299999V0201301N00101220001CN0040001N9+00891+99999999999ADDAY101999GF103991999999999999999999KA1999N+00111MW1001
0043011990999991952070612004+68750+023550FM-12+038299999V0201601N00101220001CN0100001N9+01391+99999999999ADDAY101999GF102991999999999999999999MW1001
0043011990999991952070618004+68750+023550FM-12+038299999V0202301N002619999999N0040001N9+01501+99999999999ADDAY101999GF106991999999999999999999MW1001
0056011990999991952070706004+68750+023550FM-12+038299999V0202501N002619999999N0040001N9+01281+99999999999ADDAY101999GF107991999999999999999999KA1999N+01001MW1001
0043011990999991952070712004+68750+023550FM-12+038299999V0202401N00261220001CN0040001N9+01781+99999999999ADDAY101999GF104991999999999999999999MW1051
0043011990999991952070718004+68750+023550FM-12+038299999V0202701N00261220001CN0040001N9+01891+99999999999ADDAY101999GF101991999999999999999999MW1051
0056011990999991952070806004+68750+023550FM-12+038299999V0202301N00461220001CN0040001N9+01891+99999999999ADDAY141999GF101991999999999999999999KA1999N+01221MW1051
0043011990999991952070812004+68750+023550FM-12+038299999V0202601N00461220001CN0040001N9+02281+99999999999ADDAY101999GF101991999999999999999999MW1001
0043011990999991952070818004+68750+023550FM-12+038299999V0203001N00261220001CN0020001N9+02111+99999999999ADDAY101999GF103991999999999999999999MW1051
0056011990999991952070906004+68750+023550FM-12+038299999V0200901N00261220001CN0040001N9+01221+99999999999ADDAY101999GF104991999999999999999999KA1999N+01111MW1001
0043011990999991952070912004+68750+023550FM-12+038299999V0202501N002619999999N0020001N9+01611+99999999999ADDAY101999GF107991999999999999999999MW1051
0054011990999991952070918004+68750+023550FM-12+038299999V0209991C000019999999N0010001N9+01391+99999999999ADDAA199004091AY101999GF108991999999999999999999MW1531
0067011990999991952071006004+68750+023550FM-12+038299999V0200901N00261220001CN0040001N9+01281+99999999999ADDAA199000391AY151999GF104991999999999999999999KA1999N+01111MW1001
0043011990999991952071012004+68750+023550FM-12+038299999V0201201N00261220001CN0040001N9+01781+99999999999ADDAY101999GF103991999999999999999999MW1001
0054011990999991952071018004+68750+023550FM-12+038299999V0201201N002619999999N0020001N9+01501+99999999999ADDAA199004091AY191999GF107991999999999999999999MW1961
0067011990999991952071106004+68750+023550FM-12+038299999V0203201N002619999999N0010001N9+01391+99999999999ADDAA199003091AY161999GF108991999999999999999999KA1999N+01391MW1611
0043011990999991952071112004+68750+023550FM-12+038299999V0209991C000019999999N0040001N9+01781+99999999999ADDAY101999GF106991999999999999999999MW1001
0054011990999991952071118004+68750+023550FM-12+038299999V0201901N002619999999N0010001N9+01611+99999999999ADDAA199000691AY101999GF107991999999999999999999MW1531
0067011990999991952071206004+68750+023550FM-12+038299999V0200501N002619999999N0020001N9+01501+99999999999ADDAA199001091AY161999GF107991999999999999999999KA1999N+01391MW1611
0043011990999991952071212004+68750+023550FM-12+038299999V0200701N002619999999N0020001N9+02001+99999999999ADDAY141999GF107991999999999999999999MW1051
0054011990999991952071218004+68750+023550FM-12+038299999V0201201N00261220001CN0010001N9+01721+99999999999ADDAA199005091AY161999GF104991999999999999999999MW1611
0067011990999991952071306004+68750+023550FM-12+038299999V0201501N004619999999N0010001N9+01501+99999999999ADDAA199000591AY161999GF107991999999999999999999KA1999N+01281MW1051
0043011990999991952071312004+68750+023550FM-12+038299999V0201801N004619999999N0010001N9+01501+99999999999ADDAY161999GF107991999999999999999999MW1631
0054011990999991952071318004+68750+023550FM-12+038299999V0201601N004619999999N0020001N9+01391+99999999999ADDAA199005091AY161999GF107991999999999999999999MW1611
0067011990999991952071406004+68750+023550FM-12+038299999V0201601N004619999999N0005001N9+01221+99999999999ADDAA199000391AY151999GF108991999999999999999999KA1999N+01111MW1051
0043011990999991952071412004+68750+023550FM-12+038299999V0201101N00461220001CN0010001N9+01501+99999999999ADDAY141999GF104991999999999999999999MW1051
0043011990999991952071418004+68750+023550FM-12+038299999V0202101N00261220001CN0020001N9+01391+99999999999ADDAY141999GF102991999999999999999999MW1001
0067011990999991952071506004+68750+023550FM-12+038299999V0200901N002619999999N0005001N9+01281+99999999999ADDAA199000591AY151999GF107991999999999999999999KA1999N+01111MW1611
0043011990999991952071512004+68750+023550FM-12+038299999V0201801N004619999999N0020001N9+01391+99999999999ADDAY191999GF106991999999999999999999MW1001
0054011990999991952071518004+68750+023550FM-12+038299999V0202901N00261220001CN0040001N9+01501+99999999999ADDAA199006091AY101999GF103991999999999999999999MW1001
0067011990999991952071606004+68750+023550FM-12+038299999V0203201N002619999999N0000501N9+00891+99999999999ADDAA199003091AY161999GF108991999999999999999999KA1999N+00891MW1611
0043011990999991952071612004+68750+023550FM-12+038299999V0202701N002619999999N0040001N9+01221+99999999999ADDAY161999GF107991999999999999999999MW1001
0054011990999991952071618004+68750+023550FM-12+038299999V0203401N00101220001CN0040001N9+01281+99999999999ADDAA199001091AY101999GF103991999999999999999999MW1001
0056011990999991952071706004+68750+023550FM-12+038299999V0200701N00101220001CN0040001N9+01221+99999999999ADDAY101999GF104991999999999999999999KA1999N+00721MW1001
0043011990999991952071712004+68750+023550FM-12+038299999V0201101N00261220001CN0040001N9+01611+99999999999ADDAY101999GF104991999999999999999999MW1001
0054011990999991952071718004+68750+023550FM-12+038299999V0202901N00101220001CN0040001N9+01391+99999999999ADDAA199001091AY161999GF103991999999999999999999MW1001
0056011990999991952071806004+68750+023550FM-12+038299999V0201301N00101220001CN0100001N9+01281+99999999999ADDAY141999GF101991999999999999999999KA1999N+00611MW1001
0043011990999991952071812004+68750+023550FM-12+038299999V0201401N00261220001CN0040001N9+01611+99999999999ADDAY101999GF102991999999999999999999MW1001
0054011990999991952071818004+68750+023550FM-12+038299999V0201501N002619999999N0040001N9+01281+99999999999ADDAA199000591AY161999GF105991999999999999999999MW1001
0067011990999991952071906004+68750+023550FM-12+038299999V0201801N002619999999N0005001N9+01111+99999999999ADDAA199003091AY161999GF108991999999999999999999KA1999N+01001MW1611
0043011990999991952071912004+68750+023550FM-12+038299999V0202001N002619999999N0010001N9+01221+99999999999ADDAY161999GF107991999999999999999999MW1611
0054011990999991952071918004+68750+023550FM-12+038299999V0202301N002619999999N0002001N9+01111+99999999999ADDAA199003091AY191999GF107991999999999999999999MW1961
0067011990999991952072006004+68750+023550FM-12+038299999V0200601N004619999999N0000501N9+01111+99999999999ADDAA199008091AY161999GF108991999999999999999999KA1999N+01001MW1631
0043011990999991952072012004+68750+023550FM-12+038299999V0201501N004619999999N0005001N9+01391+99999999999ADDAY161999GF107991999999999999999999MW1611
0054011990999991952072018004+68750+023550FM-12+038299999V0200601N004619999999N0000501N9+01281+99999999999ADDAA199006091AY161999GF108991999999999999999999MW1631
0067011990999991952072106004+68750+023550FM-12+038299999V0203401N006719999999N0020001N9+01001+99999999999ADDAA199005091AY161999GF107991999999999999999999KA1999N+00891MW1001
0043011990999991952072112004+68750+023550FM-12+038299999V0203401N004619999999N0002001N9+01001+99999999999ADDAY161999GF108991999999999999999999MW1631
0054011990999991952072118004+68750+023550FM-12+038299999V0203201N004619999999N0000501N9+00891+99999999999ADDAA199004091AY161999GF108991999999999999999999MW1631
0067011990999991952072206004+68750+023550FM-12+038299999V0203401N002619999999N0010001N9+00781+99999999999ADDAA199003091AY161999GF107991999999999999999999KA1999N+00611MW1611
0043011990999991952072212004+68750+023550FM-12+038299999V0209991C000019999999N0020001N9+01001+99999999999ADDAY101999GF105991999999999999999999MW1001
0043011990999991952072218004+68750+023550FM-12+038299999V0200401N002619999999N0040001N9+01111+99999999999ADDAY101999GF107991999999999999999999MW1001
0056011990999991952072306004+68750+023550FM-12+038299999V0203601N004619999999N0040001N9+00891+99999999999ADDAY101999GF106991999999999999999999KA1999N+00611MW1001
0043011990999991952072312004+68750+023550FM-12+038299999V0203601N004619999999N0040001N9+01001+99999999999ADDAY101999GF107991999999999999999999MW1001
0043011990999991952072318004+68750+023550FM-12+038299999V0203501N006719999999N0040001N9+00891+99999999999ADDAY101999GF107991999999999999999999MW1001
0056011990999991952072406004+68750+023550FM-12+038299999V0203501N006719999999N0020001N9+00611+99999999999ADDAY101999GF107991999999999999999999KA1999N+00611MW1001
0043011990999991952072412004+68750+023550FM-12+038299999V0200101N006719999999N0040001N9+00891+99999999999ADDAY101999GF106991999999999999999999MW1001
0043011990999991952072418004+68750+023550FM-12+038299999V0203601N004619999999N0040001N9+00781+99999999999ADDAY101999GF107991999999999999999999MW1001
0056011990999991952072506004+68750+023550FM-12+038299999V0200201N004619999999N0040001N9+00721+99999999999ADDAY101999GF107991999999999999999999KA1999N+00611MW1001
0043011990999991952072512004+68750+023550FM-12+038299999V0203601N004619999999N0040001N9+01001+99999999999ADDAY101999GF106991999999999999999999MW1001
0043011990999991952072518004+68750+023550FM-12+038299999V0203501N002619999999N0040001N9+01001+99999999999ADDAY101999GF107991999999999999999999MW1001
0056011990999991952072606004+68750+023550FM-12+038299999V0200101N002619999999N0040001N9+00721+99999999999ADDAY101999GF107991999999999999999999KA1999N+00501MW1001
0043011990999991952072612004+68750+023550FM-12+038299999V0200201N002619999999N0040001N9+01111+99999999999ADDAY101999GF107991999999999999999999MW1001
0043011990999991952072618004+68750+023550FM-12+038299999V0200101N002619999999N0040001N9+01001+99999999999ADDAY101999GF107991999999999999999999MW1001
0056011990999991952072706004+68750+023550FM-12+038299999V0200301N002619999999N0040001N9+00781+99999999999ADDAY101999GF108991999999999999999999KA1999N+00611MW1001
0043011990999991952072712004+68750+023550FM-12+038299999V0200201N004619999999N0040001N9+01001+99999999999ADDAY101999GF107991999999999999999999MW1001
0043011990999991952072718004+68750+023550FM-12+038299999V0200101N001019999999N0040001N9+00891+99999999999ADDAY101999GF107991999999999999999999MW1001
0056011990999991952072806004+68750+023550FM-12+038299999V0203101N002619999999N0020001N9+00721+99999999999ADDAY101999GF107991999999999999999999KA1999N+00611MW1001
0043011990999991952072812004+68750+023550FM-12+038299999V0203001N001019999999N0040001N9+01111+99999999999ADDAY101999GF105991999999999999999999MW1001
0043011990999991952072818004+68750+023550FM-12+038299999V0203601N002619999999N0040001N9+01001+99999999999ADDAY101999GF107991999999999999999999MW1001
0056011990999991952072906004+68750+023550FM-12+038299999V0209991C00001220001CN0100001N9+01001+99999999999ADDAY101999GF101991999999999999999999KA1999N+00281MW1001
0043011990999991952072912004+68750+023550FM-12+038299999V0203001N00101220001CN0100001N9+01721+99999999999ADDAY101999GF103991999999999999999999MW1001
0043011990999991952072918004+68750+023550FM-12+038299999V0200601N00261220001CN0100001N9+01721+99999999999ADDAY101999GF101991999999999999999999MW1001
0056011990999991952073006004+68750+023550FM-12+038299999V0201801N00261220001CN0100001N9+01281+99999999999ADDAY101999GF101991999999999999999999KA1999N+00781MW1001
0043011990999991952073012004+68750+023550FM-12+038299999V0201801N00261220001CN0040001N9+01891+99999999999ADDAY101999GF101991999999999999999999MW1051
0043011990999991952073018004+68750+023550FM-12+038299999V0202101N00261220001CN0040001N9+01891+99999999999ADDAY141999GF101991999999999999999999MW1051
0056011990999991952073106004+68750+023550FM-12+038299999V0201801N00261220001CN0100001N9+01391+99999999999ADDAY101999GF101991999999999999999999KA1999N+00721MW1001
0043011990999991952073112004+68750+023550FM-12+038299999V0202301N00101220001CN0100001N9+01891+99999999999ADDAY101999GF102991999999999999999999MW1001
