0056011990999991951010107004+68750+023550FM-12+038299999V0202701N00101220001CN9999999N9-03111+99999999999ADDAY101999GF103991999999999999999999KA1999N-03221MW1001
0043011990999991951010112004+68750+023550FM-12+038299999V0202601N00101220001CN9999999N9-03001+99999999999ADDAY101999GF104991999999999999999999MW1001
0043011990999991951010118004+68750+023550FM-12+038299999V0200401N00101220001CN9999999N9-03111+99999999999ADDAY101999GF102991999999999999999999MW1001
0056011990999991951010207004+68750+023550FM-12+038299999V0201001N00261220001CN9999999N9-02391+99999999999ADDAY101999GF104991999999999999999999KA1999N-03111MW1001
0043011990999991951010212004+68750+023550FM-12+038299999V0201801N00261220001CN9999999N9-02391+99999999999ADDAY101999GF101991999999999999999999MW1001
0043011990999991951010218004+68750+023550FM-12+038299999V0201801N00101220001CN9999999N9-02391+99999999999ADDAY101999GF101991999999999999999999MW1001
0056011990999991951010307004+68750+023550FM-12+038299999V0201801N004619999999N9999999N9-01781+99999999999ADDAY131999GF108991999999999999999999KA1999N-02391MW1361
0043011990999991951010312004+68750+023550FM-12+038299999V0201501N00101220001CN9999999N9-01781+99999999999ADDAY101999GF104991999999999999999999MW1001
0043011990999991951010318004+68750+023550FM-12+038299999V0201101N00101220001CN9999999N9-01721+99999999999ADDAY101999GF103991999999999999999999MW1001
0056011990999991951010407004+68750+023550FM-12+038299999V0201101N001019999999N9999999N9-01721+99999999999ADDAY101999GF108991999999999999999999KA1999N-02001MW1001
0043011990999991951010412004+68750+023550FM-12+038299999V0201001N001019999999N9999999N9-01891+99999999999ADDAY101999GF108991999999999999999999MW1001
0043011990999991951010418004+68750+023550FM-12+038299999V0200301N001019999999N9999999N9-02001+99999999999ADDAY101999GF108991999999999999999999MW1001
0067011990999991951010507004+68750+023550FM-12+038299999V0200401N004619999999N9999999N9-00781+99999999999ADDAA199005091AY171999GF108991999999999999999999KA1999N-02221MW1731
0043011990999991951010512004+68750+023550FM-12+038299999V0200201N004619999999N9999999N9-00721+99999999999ADDAY131999GF108991999999999999999999MW1361
0043011990999991951010518004+68750+023550FM-12+038299999V0200101N004619999999N9999999N9-00781+99999999999ADDAY131999GF106991999999999999999999MW1001
0067011990999991951010607004+68750+023550FM-12+038299999V0203501N00261220001CN9999999N9-01001+99999999999ADDAA199001091AY171999GF103991999999999999999999KA1999N-02221MW1361
0043011990999991951010612004+68750+023550FM-12+038299999V0209991C00001220001CN9999999N9-01281+99999999999ADDAY101999GF101991999999999999999999MW1001
0043011990999991951010618004+68750+023550FM-12+038299999V0209991C00001220001CN9999999N9-02111+99999999999ADDAY101999GF100991999999999999999999MW1001
0056011990999991951010707004+68750+023550FM-12+038299999V0202801N001019999999N9999999N9-01281+99999999999ADDAY101999GF106991999999999999999999KA1999N-02501MW1001
0043011990999991951010712004+68750+023550FM-12+038299999V0202301N00101220001CN9999999N9-01391+99999999999ADDAY101999GF101991999999999999999999MW1001
0043011990999991951010718004+68750+023550FM-12+038299999V0200801N001019999999N9999999N9-01281+99999999999ADDAY101999GF108991999999999999999999MW1001
0067011990999991951010807004+68750+023550FM-12+038299999V0201101N002619999999N9999999N9-01111+99999999999ADDAA199001091AY171999GF108991999999999999999999KA1999N-02781MW1731
0043011990999991951010812004+68750+023550FM-12+038299999V0209991C00001220001CN9999999N9-02281+99999999999ADDAY101999GF101991999999999999999999MW1001
0043011990999991951010818004+68750+023550FM-12+038299999V0209991C00001220001CN9999999N9-02781+99999999999ADDAY101999GF102991999999999999999999MW1001
0056011990999991951010907004+68750+023550FM-12+038299999V0201101N00101220001CN9999999N9-01891+99999999999ADDAY101999GF101991999999999999999999KA1999N-03001MW1001
0043011990999991951010912004+68750+023550FM-12+038299999V0209991C00001220001CN9999999N9-02111+99999999999ADDAY101999GF101991999999999999999999MW1001
0043011990999991951010918004+68750+023550FM-12+038299999V0209991C00001220001CN9999999N9-02391+99999999999ADDAY101999GF101991999999999999999999MW1001
0056011990999991951011007004+68750+023550FM-12+038299999V0200701N00101220001CN9999999N9-02501+99999999999ADDAY101999GF104991999999999999999999KA1999N-02611MW1001
0043011990999991951011012004+68750+023550FM-12+038299999V0201501N002619999999N9999999N9-01501+99999999999ADDAY101999GF107991999999999999999999MW1001
0043011990999991951011018004+68750+023550FM-12+038299999V0203501N00101220001CN9999999N9-01781+99999999999ADDAY171999GF103991999999999999999999MW1001
0067011990999991951011107004+68750+023550FM-12+038299999V0203001N001019999999N9999999N9-01611+99999999999ADDAA199000391AY101999GF108991999999999999999999KA1999N-02221MW1001
0043011990999991951011112004+68750+023550FM-12+038299999V0202901N001019999999N9999999N9-01501+99999999999ADDAY101999GF108991999999999999999999MW1001
0043011990999991951011118004+68750+023550FM-12+038299999V0209991C000019999999N9999999N9-01391+99999999999ADDAY101999GF108991999999999999999999MW1001
0067011990999991951011207004+68750+023550FM-12+038299999V0202101N001019999999N9999999N9-01611+99999999999ADDAA199000391AY101999GF108991999999999999999999KA1999N-02281MW1771
0043011990999991951011212004+68750+023550FM-12+038299999V0202101N001019999999N9999999N9-01891+99999999999ADDAY101999GF108991999999999999999999MW1001
0043011990999991951011218004+68750+023550FM-12+038299999V0201801N00261220001CN9999999N9-02281+99999999999ADDAY101999GF104991999999999999999999MW1001
0056011990999991951011307004+68750+023550FM-12+038299999V0201101N001019999999N9999999N9-01781+99999999999ADDAY101999GF108991999999999999999999KA1999N-02501MW1001
0043011990999991951011312004+68750+023550FM-12+038299999V0201001N002619999999N9999999N9-01781+99999999999ADDAY101999GF106991999999999999999999MW1001
0043011990999991951011318004+68750+023550FM-12+038299999V0209991C000019999999N9999999N9-02221+99999999999ADDAY101999GF106991999999999999999999MW1001
0067011990999991951011407004+68750+023550FM-12+038299999V0202901N00101220001CN9999999N9-02111+99999999999ADDAA199000391AY171999GF104991999999999999999999KA1999N-03001MW1001
0043011990999991951011412004+68750+023550FM-12+038299999V0209991C00001220001CN9999999N9-02891+99999999999ADDAY101999GF101991999999999999999999MW1001
0043011990999991951011418004+68750+023550FM-12+038299999V0203001N001019999999N9999999N9-02281+99999999999ADDAY101999GF108991999999999999999999MW1001
0067011990999991951011507004+68750+023550FM-12+038299999V0200901N002619999999N9999999N9-01111+99999999999ADDAA199000591AY101999GF108991999999999999999999KA1999N-02281MW1731
0043011990999991951011512004+68750+023550FM-12+038299999V0200901N002619999999N9999999N9-01111+99999999999ADDAY101999GF108991999999999999999999MW1001
0043011990999991951011518004+68750+023550FM-12+038299999V0201101N002619999999N9999999N9-01281+99999999999ADDAY101999GF105991999999999999999999MW1001
0067011990999991951011607004+68750+023550FM-12+038299999V0200301N001019999999N9999999N9-01391+99999999999ADDAA199000591AY171999GF108991999999999999999999KA1999N-03111MW1771
0043011990999991951011612004+68750+023550FM-12+038299999V0201001N00101220001CN9999999N9-02111+99999999999ADDAY101999GF101991999999999999999999MW1001
0043011990999991951011618004+68750+023550FM-12+038299999V0209991C00001220001CN9999999N9-03111+99999999999ADDAY101999GF101991999999999999999999MW1001
0056011990999991951011707004+68750+023550FM-12+038299999V0201001N00101220001CN9999999N9-03221+99999999999ADDAY101999GF102991999999999999999999KA1999N-03501MW1001
0043011990999991951011712004+68750+023550FM-12+038299999V0200701N00101220001CN9999999N9-03001+99999999999ADDAY101999GF101991999999999999999999MW1001
0043011990999991951011718004+68750+023550FM-12+038299999V0200901N00101220001CN9999999N9-02111+99999999999ADDAY101999GF102991999999999999999999MW1001
0067011990999991951011807004+68750+023550FM-12+038299999V0201501N006719999999N9999999N9-01611+99999999999ADDAA199000591AY171999GF108991999999999999999999KA1999N-03001MW1361
0043011990999991951011812004+68750+023550FM-12+038299999V0201101N00461220001CN9999999N9-01891+99999999999ADDAY131999GF104991999999999999999999MW1361
0043011990999991951011818004+68750+023550FM-12+038299999V0201801N006719999999N9999999N9-02001+99999999999ADDAY131999GF108991999999999999999999MW1361
0056011990999991951011907004+68750+023550FM-12+038299999V0201801N002619999999N9999999N9-01221+99999999999ADDAY101999GF108991999999999999999999KA1999N-02001MW1001
0043011990999991951011912004+68750+023550FM-12+038299999V0201501N004619999999N9999999N9-01001+99999999999ADDAY131999GF105991999999999999999999MW1361
0043011990999991951011918004+68750+023550FM-12+038299999V0201501N001019999999N9999999N9-00721+99999999999ADDAY101999GF108991999999999999999999MW1001
0056011990999991951012007004+68750+023550FM-12+038299999V0202501N006719999999N9999999N9-00781+99999999999ADDAY131999GF105991999999999999999999KA1999N-01001MW1361
0043011990999991951012012004+68750+023550FM-12+038299999V0202501N00461220001CN9999999N9-00891+99999999999ADDAY131999GF101991999999999999999999MW1361
0043011990999991951012018004+68750+023550FM-12+038299999V0203301N009319999999N9999999N9-00721+99999999999ADDAY131999GF108991999999999999999999MW1361
0086011990999991951012107004+68750+023550FM-12+038299999V0203201N004619999999N9999999N9-01721+99999999999ADDAA199002091AY171999GF105991999999999999999999KA1999N+99999MW1361EQDQ01 -00892ATMN  
0043011990999991951012112004+68750+023550FM-12+038299999V0203001N00101220001CN9999999N9-01611+99999999999ADDAY131999GF103991999999999999999999MW1001
0043011990999991951012118004+68750+023550FM-12+038299999V0203001N00261220001CN9999999N9-01721+99999999999ADDAY131999GF104991999999999999999999MW1001
0056011990999991951012207004+68750+023550FM-12+038299999V0200501N00101220001CN9999999N9-03001+99999999999ADDAY101999GF100991999999999999999999KA1999N-03391MW1001
0043011990999991951012212004+68750+023550FM-12+038299999V0200601N00101220001CN9999999N9-03111+99999999999ADDAY101999GF101991999999999999999999MW1001
0043011990999991951012218004+68750+023550FM-12+038299999V0200501N00101220001CN9999999N9-03221+99999999999ADDAY101999GF100991999999999999999999MW1001
0056011990999991951012307004+68750+023550FM-12+038299999V0201601N00101220001CN9999999N9-02391+99999999999ADDAY101999GF103991999999999999999999KA1999N-03281MW1001
0043011990999991951012312004+68750+023550FM-12+038299999V0201701N004619999999N9999999N9-02111+99999999999ADDAY131999GF106991999999999999999999MW1361
0043011990999991951012318004+68750+023550FM-12+038299999V0201701N00461220001CN9999999N9-01781+99999999999ADDAY131999GF103991999999999999999999MW1361
0056011990999991951012407004+68750+023550FM-12+038299999V0201201N002619999999N9999999N9-01281+99999999999ADDAY131999GF105991999999999999999999KA1999N-01891MW1101
0043011990999991951012412004+68750+023550FM-12+038299999V0201901N015419999999N9999999N9-01611+99999999999ADDAY131999GF108991999999999999999999MW1371
0043011990999991951012418004+68750+023550FM-12+038299999V0201701N009319999999N9999999N9-00781+99999999999ADDAY131999GF108991999999999999999999MW1361
0056011990999991951012507004+68750+023550FM-12+038299999V0201701N00261220001CN9999999N9-00501+99999999999ADDAY131999GF104991999999999999999999KA1999N-00891MW1101
0043011990999991951012512004+68750+023550FM-12+038299999V0200701N00101220001CN9999999N9-00501+99999999999ADDAY101999GF102991999999999999999999MW1001
0043011990999991951012518004+68750+023550FM-12+038299999V0200801N00101220001CN9999999N9-00721+99999999999ADDAY131999GF103991999999999999999999MW1001
0056011990999991951012607004+68750+023550FM-12+038299999V0202001N002619999999N9999999N9-01221+99999999999ADDAY101999GF108991999999999999999999KA1999N-01391MW1001
0043011990999991951012612004+68750+023550FM-12+038299999V0201901N001019999999N9999999N9-01221+99999999999ADDAY101999GF108991999999999999999999MW1001
0043011990999991951012618004+68750+023550FM-12+038299999V0201001N002619999999N9999999N9-01221+99999999999ADDAY101999GF108991999999999999999999MW1001
0056011990999991951012707004+68750+023550FM-12+038299999V0201401N002619999999N9999999N9-01221+99999999999ADDAY131999GF106991999999999999999999KA1999N-01281MW1001
0043011990999991951012712004+68750+023550FM-12+038299999V0201901N004619999999N9999999N9-01001+99999999999ADDAY131999GF106991999999999999999999MW1361
0043011990999991951012718004+68750+023550FM-12+038299999V0201601N002619999999N9999999N9-01111+99999999999ADDAY131999GF108991999999999999999999MW1101
0056011990999991951012807004+68750+023550FM-12+038299999V0201601N004619999999N9999999N9-01001+99999999999ADDAY131999GF108991999999999999999999KA1999N-01111MW1361
0043011990999991951012812004+68750+023550FM-12+038299999V0202001N006719999999N9999999N9-01001+99999999999ADDAY131999GF107991999999999999999999MW1361
0043011990999991951012818004+68750+023550FM-12+038299999V0201601N00671220001CN9999999N9-01001+99999999999ADDAY131999GF104991999999999999999999MW1361
0056011990999991951012907004+68750+023550FM-12+038299999V0201701N004619999999N9999999N9-01501+99999999999ADDAY101999GF108991999999999999999999KA1999N-01501MW1361
0043011990999991951012912004+68750+023550FM-12+038299999V0201501N002619999999N9999999N9-01281+99999999999ADDAY131999GF106991999999999999999999MW1361
0043011990999991951012918004+68750+023550FM-12+038299999V0201701N002619999999N9999999N9-01111+99999999999ADDAY141999GF108991999999999999999999MW1101
0056011990999991951013007004+68750+023550FM-12+038299999V0201601N004619999999N9999999N9-01001+99999999999ADDAY101999GF106991999999999999999999KA1999N-01281MW1361
0043011990999991951013012004+68750+023550FM-12+038299999V0201601N00461220001CN9999999N9-01001+99999999999ADDAY101999GF104991999999999999999999MW1361
0043011990999991951013018004+68750+023550FM-12+038299999V0201601N00261220001CN9999999N9-00781+99999999999ADDAY131999GF101991999999999999999999MW1001
0056011990999991951013107004+68750+023550FM-12+038299999V0201801N00261220001CN9999999N9-01001+99999999999ADDAY101999GF104991999999999999999999KA1999N-01611MW1101
0043011990999991951013112004+68750+023550FM-12+038299999V0201601N00261220001CN9999999N9-01221+99999999999ADDAY101999GF103991999999999999999999MW1001
0043011990999991951013118004+68750+023550FM-12+038299999V0200801N00101220001CN9999999N9-01611+99999999999ADDAY101999GF101991999999999999999999MW1001
0056011990999991951020107004+68750+023550FM-12+038299999V0201901N00261220001CN9999999N9-01891+99999999999ADDAY101999GF104991999999999999999999KA1999N-02111MW1001
0043011990999991951020112004+68750+023550FM-12+038299999V0202001N00261220001CN9999999N9-02001+99999999999ADDAY101999GF104991999999999999999999MW1001
0043011990999991951020118004+68750+023550FM-12+038299999V0202001N001019999999N9999999N9-01721+99999999999ADDAY101999GF108991999999999999999999MW1001
0056011990999991951020207004+68750+023550FM-12+038299999V0202101N004619999999N9999999N9-00891+99999999999ADDAY131999GF108991999999999999999999KA1999N-01721MW1361
0043011990999991951020212004+68750+023550FM-12+038299999V0201801N004619999999N9999999N9-00721+99999999999ADDAY131999GF108991999999999999999999MW1361
0043011990999991951020218004+68750+023550FM-12+038299999V0201101N004619999999N9999999N9-00611+99999999999ADDAY131999GF108991999999999999999999MW1361
0056011990999991951020307004+68750+023550FM-12+038299999V0201601N002619999999N9999999N9-00391+99999999999ADDAY131999GF108991999999999999999999KA1999N-00611MW1101
0043011990999991951020312004+68750+023550FM-12+038299999V0201701N004619999999N9999999N9-00391+99999999999ADDAY131999GF107991999999999999999999MW1101
0043011990999991951020318004+68750+023550FM-12+038299999V0201801N006719999999N9999999N9-00391+99999999999ADDAY131999GF108991999999999999999999MW1361
0056011990999991951020407004+68750+023550FM-12+038299999V0201801N006719999999N9999999N9-01281+99999999999ADDAY101999GF108991999999999999999999KA1999N-01281MW1361
0043011990999991951020412004+68750+023550FM-12+038299999V0201501N00461220001CN9999999N9-01001+99999999999ADDAY131999GF103991999999999999999999MW1001
0043011990999991951020418004+68750+023550FM-12+038299999V0201801N009319999999N9999999N9-00891+99999999999ADDAY131999GF105991999999999999999999MW1361
0056011990999991951020507004+68750+023550FM-12+038299999V0202001N004619999999N9999999N9-01001+99999999999ADDAY131999GF108991999999999999999999KA1999N-01221MW1361
0043011990999991951020512004+68750+023550FM-12+038299999V0202001N00671220001CN9999999N9-01111+99999999999ADDAY131999GF103991999999999999999999MW1361
0043011990999991951020518004+68750+023550FM-12+038299999V0201801N006719999999N9999999N9-01001+99999999999ADDAY131999GF108991999999999999999999MW1361
0056011990999991951020607004+68750+023550FM-12+038299999V0202001N004619999999N9999999N9-01111+99999999999ADDAY131999GF108991999999999999999999KA1999N-01221MW1361
0043011990999991951020612004+68750+023550FM-12+038299999V0202001N004619999999N9999999N9-01111+99999999999ADDAY131999GF108991999999999999999999MW1361
0043011990999991951020618004+68750+023550FM-12+038299999V0202301N002619999999N9999999N9-01001+99999999999ADDAY131999GF108991999999999999999999MW1771
0067011990999991951020707004+68750+023550FM-12+038299999V0200901N002619999999N9999999N9-01111+99999999999ADDAA199001091AY171999GF108991999999999999999999KA1999N-01611MW1731
0043011990999991951020712004+68750+023550FM-12+038299999V0200601N002619999999N9999999N9-01221+99999999999ADDAY171999GF108991999999999999999999MW1711
0043011990999991951020718004+68750+023550FM-12+038299999V0200901N00261220001CN9999999N9-01611+99999999999ADDAY171999GF104991999999999999999999MW1101
0067011990999991951020807004+68750+023550FM-12+038299999V0201001N002619999999N9999999N9-01221+99999999999ADDAA199000591AY171999GF108991999999999999999999KA1999N-01721MW1771
0043011990999991951020812004+68750+023550FM-12+038299999V0200601N002619999999N9999999N9-01111+99999999999ADDAY141999GF108991999999999999999999MW1101
0043011990999991951020818004+68750+023550FM-12+038299999V0201001N002619999999N9999999N9-01281+99999999999ADDAY141999GF108991999999999999999999MW1101
0067011990999991951020907004+68750+023550FM-12+038299999V0200901N002619999999N9999999N9-01221+99999999999ADDAA199000591AY171999GF108991999999999999999999KA1999N-01611MW1711
0043011990999991951020912004+68750+023550FM-12+038299999V0200701N00101220001CN9999999N9-01281+99999999999ADDAY171999GF104991999999999999999999MW1001
0043011990999991951020918004+68750+023550FM-12+038299999V0201001N002619999999N9999999N9-01111+99999999999ADDAY141999GF108991999999999999999999MW1101
0067011990999991951021007004+68750+023550FM-12+038299999V0201201N004619999999N9999999N9-00781+99999999999ADDAA199001091AY101999GF108991999999999999999999KA1999N-01111MW1731
0043011990999991951021012004+68750+023550FM-12+038299999V0201601N004619999999N9999999N9-00611+99999999999ADDAY131999GF108991999999999999999999MW1361
0043011990999991951021018004+68750+023550FM-12+038299999V0202301N002619999999N9999999N9-00391+99999999999ADDAY141999GF108991999999999999999999MW1101
0056011990999991951021107004+68750+023550FM-12+038299999V0202001N002619999999N9999999N9-00501+99999999999ADDAY101999GF108991999999999999999999KA1999N-00611MW1001
0043011990999991951021112004+68750+023550FM-12+038299999V0202301N001019999999N9999999N9-00501+99999999999ADDAY141999GF109991999999999999999999MW1451
0043011990999991951021118004+68750+023550FM-12+038299999V0202301N002619999999N9999999N9-00391+99999999999ADDAY141999GF108991999999999999999999MW1001
0067011990999991951021207004+68750+023550FM-12+038299999V0203001N001019999999N9999999N9-00611+99999999999ADDAA199002091AY171999GF108991999999999999999999KA1999N-00891MW1731
0043011990999991951021212004+68750+023550FM-12+038299999V0201001N001019999999N9999999N9-00611+99999999999ADDAY141999GF107991999999999999999999MW1101
0043011990999991951021218004+68750+023550FM-12+038299999V0200901N001019999999N9999999N9-00781+99999999999ADDAY171999GF107991999999999999999999MW1711
0067011990999991951021307004+68750+023550FM-12+038299999V0200601N00101220001CN9999999N9-01781+99999999999ADDAA199001091AY171999GF103991999999999999999999KA1999N-03001MW1101
0043011990999991951021312004+68750+023550FM-12+038299999V0200901N00101220001CN9999999N9-01781+99999999999ADDAY101999GF102991999999999999999999MW1001
0043011990999991951021318004+68750+023550FM-12+038299999V0209991C00001220001CN9999999N9-03001+99999999999ADDAY101999GF101991999999999999999999MW1001
0056011990999991951021407004+68750+023550FM-12+038299999V0200901N00101220001CN9999999N9-03721+99999999999ADDAY101999GF101991999999999999999999KA1999N-03721MW1001
0043011990999991951021412004+68750+023550FM-12+038299999V0209991C00001220001CN9999999N9-03001+99999999999ADDAY101999GF100991999999999999999999MW1001
0043011990999991951021418004+68750+023550FM-12+038299999V0200901N00261220001CN9999999N9-02721+99999999999ADDAY101999GF101991999999999999999999MW1001
0056011990999991951021507004+68750+023550FM-12+038299999V0200501N00101220001CN9999999N9-02391+99999999999ADDAY101999GF100991999999999999999999KA1999N-02891MW1001
0043011990999991951021512004+68750+023550FM-12+038299999V0200901N00101220001CN9999999N9-02111+99999999999ADDAY101999GF100991999999999999999999MW1001
0043011990999991951021518004+68750+023550FM-12+038299999V0201801N00261220001CN9999999N9-02281+99999999999ADDAY101999GF100991999999999999999999MW1001
0056011990999991951021607004+68750+023550FM-12+038299999V0201601N00461220001CN9999999N9-02111+99999999999ADDAY101999GF103991999999999999999999KA1999N-02391MW1361
0043011990999991951021612004+68750+023550FM-12+038299999V0201601N002619999999N9999999N9-01721+99999999999ADDAY101999GF106991999999999999999999MW1001
0043011990999991951021618004+68750+023550FM-12+038299999V0201601N004619999999N9999999N9-01721+99999999999ADDAY101999GF108991999999999999999999MW1361
0056011990999991951021707004+68750+023550FM-12+038299999V0201501N00101220001CN9999999N9-02391+99999999999ADDAY101999GF103991999999999999999999KA1999N-02721MW1001
0043011990999991951021712004+68750+023550FM-12+038299999V0201601N00101220001CN9999999N9-02611+99999999999ADDAY101999GF103991999999999999999999MW1001
0043011990999991951021718004+68750+023550FM-12+038299999V0202001N002619999999N9999999N9-02001+99999999999ADDAY101999GF107991999999999999999999MW1771
0067011990999991951021807004+68750+023550FM-12+038299999V0201401N002619999999N9999999N9-01721+99999999999ADDAA199000691AY131999GF106991999999999999999999KA1999N-02001MW1101
0043011990999991951021812004+68750+023550FM-12+038299999V0201201N002619999999N9999999N9-01891+99999999999ADDAY131999GF107991999999999999999999MW1001
0043011990999991951021818004+68750+023550FM-12+038299999V0201001N002619999999N9999999N9-01721+99999999999ADDAY131999GF108991999999999999999999MW1711
0067011990999991951021907004+68750+023550FM-12+038299999V0201401N004619999999N9999999N9-01391+99999999999ADDAA199001091AY171999GF108991999999999999999999KA1999N-01721MW1361
0043011990999991951021912004+68750+023550FM-12+038299999V0201401N002619999999N9999999N9-01221+99999999999ADDAY171999GF108991999999999999999999MW1771
0043011990999991951021918004+68750+023550FM-12+038299999V0201601N002619999999N9999999N9-01221+99999999999ADDAY131999GF108991999999999999999999MW1711
0067011990999991951022007004+68750+023550FM-12+038299999V0201601N002619999999N9999999N9-01221+99999999999ADDAA199001091AY171999GF108991999999999999999999KA1999N-01611MW1711
0043011990999991951022012004+68750+023550FM-12+038299999V0200901N00101220001CN9999999N9-01611+99999999999ADDAY101999GF103991999999999999999999MW1001
0043011990999991951022018004+68750+023550FM-12+038299999V0201701N001019999999N9999999N9-01391+99999999999ADDAY101999GF108991999999999999999999MW1711
0067011990999991951022107004+68750+023550FM-12+038299999V0201501N002619999999N9999999N9-01611+99999999999ADDAA199000591AY131999GF108991999999999999999999KA1999N-01781MW1101
0043011990999991951022112004+68750+023550FM-12+038299999V0202001N002619999999N9999999N9-01391+99999999999ADDAY141999GF108991999999999999999999MW1101
0043011990999991951022118004+68750+023550FM-12+038299999V0201701N002619999999N9999999N9-01281+99999999999ADDAY141999GF108991999999999999999999MW1771
0067011990999991951022207004+68750+023550FM-12+038299999V0201401N002619999999N9999999N9-00891+99999999999ADDAA199000591AY171999GF108991999999999999999999KA1999N-01281MW1001
0043011990999991951022212004+68750+023550FM-12+038299999V0201601N002619999999N9999999N9-00781+99999999999ADDAY141999GF108991999999999999999999MW1101
0043011990999991951022218004+68750+023550FM-12+038299999V0201801N002619999999N9999999N9-00611+99999999999ADDAY131999GF108991999999999999999999MW1771
0067011990999991951022307004+68750+023550FM-12+038299999V0201701N002619999999N9999999N9-00721+99999999999ADDAA199000391AY101999GF108991999999999999999999KA1999N-00891MW1001
0043011990999991951022312004+68750+023550FM-12+038299999V0201801N002619999999N9999999N9-00721+99999999999ADDAY101999GF108991999999999999999999MW1001
0043011990999991951022318004+68750+023550FM-12+038299999V0201501N002619999999N9999999N9-00891+99999999999ADDAY101999GF108991999999999999999999MW1771
0067011990999991951022407004+68750+023550FM-12+038299999V0201701N002619999999N9999999N9-01281+99999999999ADDAA199000591AY171999GF108991999999999999999999KA1999N-01781MW1101
0043011990999991951022412004+68750+023550FM-12+038299999V0201501N00261220001CN9999999N9-01501+99999999999ADDAY101999GF103991999999999999999999MW1001
0043011990999991951022418004+68750+023550FM-12+038299999V0201001N00101220001CN9999999N9-01781+99999999999ADDAY101999GF103991999999999999999999MW1001
0067011990999991951022507004+68750+023550FM-12+038299999V0200201N002619999999N9999999N9-02111+99999999999ADDAA199000691AY101999GF108991999999999999999999KA1999N-02611MW1771
0043011990999991951022512004+68750+023550FM-12+038299999V0201601N00101220001CN9999999N9-01721+99999999999ADDAY101999GF103991999999999999999999MW1001
0043011990999991951022518004+68750+023550FM-12+038299999V0201701N002619999999N9999999N9-01501+99999999999ADDAY101999GF108991999999999999999999MW1711
0067011990999991951022607004+68750+023550FM-12+038299999V0201901N004619999999N9999999N9-00891+99999999999ADDAA199001091AY171999GF108991999999999999999999KA1999N-01501MW1361
0043011990999991951022612004+68750+023550FM-12+038299999V0202001N002619999999N9999999N9-00721+99999999999ADDAY131999GF106991999999999999999999MW1001
0043011990999991951022618004+68750+023550FM-12+038299999V0201801N004619999999N9999999N9-00721+99999999999ADDAY131999GF108991999999999999999999MW1361
0067011990999991951022707004+68750+023550FM-12+038299999V0202001N004619999999N9999999N9-00891+99999999999ADDAA199000391AY171999GF108991999999999999999999KA1999N-01111MW1361
0043011990999991951022712004+68750+023550FM-12+038299999V0201901N004619999999N9999999N9-01001+99999999999ADDAY131999GF107991999999999999999999MW1361
0043011990999991951022718004+68750+023550FM-12+038299999V0201801N002619999999N9999999N9-01001+99999999999ADDAY131999GF108991999999999999999999MW1771
0067011990999991951022807004+68750+023550FM-12+038299999V0201701N004619999999N9999999N9-01111+99999999999ADDAA199000591AY131999GF107991999999999999999999KA1999N-01111MW1361
0043011990999991951022812004+68750+023550FM-12+038299999V0201701N009319999999N9999999N9-00721+99999999999ADDAY131999GF108991999999999999999999MW1361
0043011990999991951022818004+68750+023550FM-12+038299999V0202001N00671220001CN9999999N9-00781+99999999999ADDAY131999GF102991999999999999999999MW1361
0056011990999991951030107004+68750+023550FM-12+038299999V0201801N00261220001CN9999999N9-00501+99999999999ADDAY131999GF103991999999999999999999KA1999N-01221MW1361
0043011990999991951030112004+68750+023550FM-12+038299999V0202001N00461220001CN9999999N9-00501+99999999999ADDAY131999GF104991999999999999999999MW1361
0043011990999991951030118004+68750+023550FM-12+038299999V0201701N004619999999N9999999N9-00611+99999999999ADDAY131999GF105991999999999999999999MW1361
0056011990999991951030207004+68750+023550FM-12+038299999V0202001N009319999999N9999999N9-00391+99999999999ADDAY131999GF106991999999999999999999KA1999N-00721MW1371
0043011990999991951030212004+68750+023550FM-12+038299999V0202001N009319999999N9999999N9-00221+99999999999ADDAY131999GF108991999999999999999999MW1371
0043011990999991951030218004+68750+023550FM-12+038299999V0201901N004619999999N9999999N9-00111+99999999999ADDAY131999GF105991999999999999999999MW1001
0056011990999991951030307004+68750+023550FM-12+038299999V0201801N006719999999N9999999N9-00221+99999999999ADDAY131999GF107991999999999999999999KA1999N-00281MW1361
0043011990999991951030312004+68750+023550FM-12+038299999V0201801N009319999999N9999999N9-00111+99999999999ADDAY131999GF107991999999999999999999MW1361
0043011990999991951030318004+68750+023550FM-12+038299999V0202101N00931220001CN9999999N9+00001+99999999999ADDAY131999GF103991999999999999999999MW1361
0056011990999991951030407004+68750+023550FM-12+038299999V0202201N00671220001CN9999999N9+00281+99999999999ADDAY131999GF102991999999999999999999KA1999N-00501MW1001
0043011990999991951030412004+68750+023550FM-12+038299999V0202501N00671220001CN9999999N9+00281+99999999999ADDAY101999GF102991999999999999999999MW1001
0043011990999991951030418004+68750+023550FM-12+038299999V0203001N00261220001CN9999999N9-00391+99999999999ADDAY101999GF102991999999999999999999MW1001
0056011990999991951030507004+68750+023550FM-12+038299999V0202001N00101220001CN9999999N9-01221+99999999999ADDAY101999GF101991999999999999999999KA1999N-01611MW1001
0043011990999991951030512004+68750+023550FM-12+038299999V0201901N00261220001CN9999999N9-00611+99999999999ADDAY101999GF101991999999999999999999MW1001
0043011990999991951030518004+68750+023550FM-12+038299999V0200501N00101220001CN9999999N9-01611+99999999999ADDAY101999GF101991999999999999999999MW1001
0056011990999991951030607004+68750+023550FM-12+038299999V0209991C000019999999N9999999N9-01721+99999999999ADDAY101999GF108991999999999999999999KA1999N-01891MW1001
0043011990999991951030612004+68750+023550FM-12+038299999V0202901N001019999999N9999999N9-01111+99999999999ADDAY101999GF108991999999999999999999MW1001
0043011990999991951030618004+68750+023550FM-12+038299999V0202701N001019999999N9999999N9-01111+99999999999ADDAY171999GF108991999999999999999999MW1711
0067011990999991951030707004+68750+023550FM-12+038299999V0202901N00101220001CN9999999N9-00891+99999999999ADDAA199004091AY171999GF103991999999999999999999KA1999N-01281MW1001
0043011990999991951030712004+68750+023550FM-12+038299999V0203301N00101220001CN9999999N9-00891+99999999999ADDAY101999GF103991999999999999999999MW1001
0043011990999991951030718004+68750+023550FM-12+038299999V0200201N001019999999N9999999N9-01111+99999999999ADDAY101999GF107991999999999999999999MW1771
0067011990999991951030807004+68750+023550FM-12+038299999V0200501N00101220001CN9999999N9-02501+99999999999ADDAA199000391AY101999GF103991999999999999999999KA1999N-02721MW1001
0043011990999991951030812004+68750+023550FM-12+038299999V0203301N00101220001CN9999999N9-00722+99999999999ADDAY101999GF104991999999999999999999MW1001
0043011990999991951030818004+68750+023550FM-12+038299999V0203601N001019999999N9999999N9-00781+99999999999ADDAY101999GF106991999999999999999999MW1771
0067011990999991951030907004+68750+023550FM-12+038299999V0202801N00101220001CN9999999N9-01221+99999999999ADDAA199000691AY101999GF104991999999999999999999KA1999N-02281MW1001
0043011990999991951030912004+68750+023550FM-12+038299999V0202901N00101220001CN9999999N9-01111+99999999999ADDAY101999GF103991999999999999999999MW1001
0043011990999991951030918004+68750+023550FM-12+038299999V0200501N00101220001CN9999999N9-02281+99999999999ADDAY101999GF101991999999999999999999MW1001
0056011990999991951031007004+68750+023550FM-12+038299999V0209991C000019999999N9999999N9-01891+99999999999ADDAY101999GF107991999999999999999999KA1999N-02391MW1001
0043011990999991951031012004+68750+023550FM-12+038299999V0202801N00101220001CN9999999N9-01001+99999999999ADDAY101999GF103991999999999999999999MW1001
0043011990999991951031018004+68750+023550FM-12+038299999V0202701N001019999999N9999999N9-01221+99999999999ADDAY101999GF108991999999999999999999MW1771
0067011990999991951031107004+68750+023550FM-12+038299999V0201701N002619999999N9999999N9-01221+99999999999ADDAA199000391AY101999GF107991999999999999999999KA1999N-01221MW1101
0043011990999991951031112004+68750+023550FM-12+038299999V0202601N004619999999N9999999N9-00611+99999999999ADDAY101999GF106991999999999999999999MW1361
0043011990999991951031118004+68750+023550FM-12+038299999V0202201N001019999999N9999999N9-01111+99999999999ADDAY101999GF106991999999999999999999MW1101
0056011990999991951031207004+68750+023550FM-12+038299999V0200501N00261220001CN9999999N9-01611+99999999999ADDAY101999GF103991999999999999999999KA1999N-01721MW1001
0043011990999991951031212004+68750+023550FM-12+038299999V0200701N00101220001CN9999999N9-01281+99999999999ADDAY101999GF104991999999999999999999MW1001
0043011990999991951031218004+68750+023550FM-12+038299999V0200701N00261220001CN9999999N9-01391+99999999999ADDAY101999GF102991999999999999999999MW1101
0056011990999991951031307004+68750+023550FM-12+038299999V0200901N00101220001CN9999999N9-01721+99999999999ADDAY101999GF102991999999999999999999KA1999N-02111MW1001
0043011990999991951031312004+68750+023550FM-12+038299999V0200901N00101220001CN9999999N9-01281+99999999999ADDAY101999GF101991999999999999999999MW1001
0043011990999991951031318004+68750+023550FM-12+038299999V0203001N00101220001CN9999999N9-01611+99999999999ADDAY101999GF101991999999999999999999MW1101
0067011990999991951031407004+68750+023550FM-12+038299999V0202801N001019999999N9999999N9-02111+99999999999ADDAA199001091AY171999GF107991999999999999999999KA1999N-02281MW1001
0043011990999991951031412004+68750+023550FM-12+038299999V0202901N00101220001CN9999999N9-01221+99999999999ADDAY101999GF102991999999999999999999MW1001
0043011990999991951031418004+68750+023550FM-12+038299999V0202801N00101220001CN9999999N9-01721+99999999999ADDAY101999GF101991999999999999999999MW1101
0056011990999991951031507004+68750+023550FM-12+038299999V0200701N00101220001CN9999999N9-02781+99999999999ADDAY101999GF102991999999999999999999KA1999N-03111MW1001
0043011990999991951031512004+68750+023550FM-12+038299999V0201801N00101220001CN9999999N9-01501+99999999999ADDAY101999GF101991999999999999999999MW1001
0043011990999991951031518004+68750+023550FM-12+038299999V0200601N00101220001CN9999999N9-02721+99999999999ADDAY101999GF101991999999999999999999MW1001
0056011990999991951031607004+68750+023550FM-12+038299999V0209991C00001220001CN9999999N9-02391+99999999999ADDAY101999GF104991999999999999999999KA1999N-03001MW1001
0043011990999991951031612004+68750+023550FM-12+038299999V0202701N00101220001CN9999999N9-01001+99999999999ADDAY101999GF101991999999999999999999MW1001
0043011990999991951031618004+68750+023550FM-12+038299999V0200701N00101220001CN9999999N9-02221+99999999999ADDAY101999GF103991999999999999999999MW1101
0056011990999991951031707004+68750+023550FM-12+038299999V0209991C00001220001CN9999999N9-02111+99999999999ADDAY101999GF102991999999999999999999KA1999N-03001MW1001
0043011990999991951031712004+68750+023550FM-12+038299999V0200401N00101220001CN9999999N9-01281+99999999999ADDAY101999GF101991999999999999999999MW1001
0043011990999991951031718004+68750+023550FM-12+038299999V0201801N00261220001CN9999999N9-01501+99999999999ADDAY101999GF102991999999999999999999MW1001
0056011990999991951031807004+68750+023550FM-12+038299999V0201101N00101220001CN9999999N9-01721+99999999999ADDAY101999GF101991999999999999999999KA1999N-01781MW1001
0043011990999991951031812004+68750+023550FM-12+038299999V0201701N00261220001CN9999999N9-01221+99999999999ADDAY101999GF101991999999999999999999MW1001
0043011990999991951031818004+68750+023550FM-12+038299999V0201601N00261220001CN9999999N9-01501+99999999999ADDAY101999GF102991999999999999999999MW1001
0056011990999991951031907004+68750+023550FM-12+038299999V0203001N00101220001CN9999999N9-01721+99999999999ADDAY101999GF101991999999999999999999KA1999N-02111MW1001
0043011990999991951031912004+68750+023550FM-12+038299999V0201801N00461220001CN9999999N9-01221+99999999999ADDAY101999GF102991999999999999999999MW1001
0043011990999991951031918004+68750+023550FM-12+038299999V0201801N00261220001CN9999999N9-01111+99999999999ADDAY101999GF101991999999999999999999MW1101
0056011990999991951032007004+68750+023550FM-12+038299999V0200701N00261220001CN9999999N9-02001+99999999999ADDAY101999GF100991999999999999999999KA1999N-02281MW1001
0043011990999991951032012004+68750+023550FM-12+038299999V0200801N00261220001CN9999999N9-01391+99999999999ADDAY101999GF100991999999999999999999MW1001
0043011990999991951032018004+68750+023550FM-12+038299999V0200801N00101220001CN9999999N9-02001+99999999999ADDAY101999GF100991999999999999999999MW1001
0056011990999991951032107004+68750+023550FM-12+038299999V0209991C00001220001CN9999999N9-02501+99999999999ADDAY101999GF100991999999999999999999KA1999N-03221MW1001
0043011990999991951032112004+68750+023550FM-12+038299999V0201001N00101220001CN9999999N9-02111+99999999999ADDAY101999GF102991999999999999999999MW1001
0043011990999991951032118004+68750+023550FM-12+038299999V0209991C000019999999N9999999N9-02501+99999999999ADDAY101999GF107991999999999999999999MW1101
0056011990999991951032207004+68750+023550FM-12+038299999V0200901N001019999999N9999999N9-02281+99999999999ADDAY101999GF107991999999999999999999KA1999N-03001MW1001
0043011990999991951032212004+68750+023550FM-12+038299999V0203601N004619999999N9999999N9-01001+99999999999ADDAY101999GF108991999999999999999999MW1361
0043011990999991951032218004+68750+023550FM-12+038299999V0200701N002619999999N9999999N9-01001+99999999999ADDAY171999GF108991999999999999999999MW1731
0067011990999991951032307004+68750+023550FM-12+038299999V0209991C00001220001CN9999999N9-01781+99999999999ADDAA199004091AY171999GF102991999999999999999999KA1999N-02001MW1101
0043011990999991951032312004+68750+023550FM-12+038299999V0201001N004619999999N9999999N9-01221+99999999999ADDAY131999GF107991999999999999999999MW1361
0043011990999991951032318004+68750+023550FM-12+038299999V0201701N004619999999N9999999N9-00781+99999999999ADDAY171999GF108991999999999999999999MW1361
0067011990999991951032407004+68750+023550FM-12+038299999V0201101N00261220001CN9999999N9-01391+99999999999ADDAA199001091AY131999GF102991999999999999999999KA1999N-01501MW1001
0043011990999991951032412004+68750+023550FM-12+038299999V0202901N00101220001CN9999999N9-00891+99999999999ADDAY101999GF103991999999999999999999MW1001
0043011990999991951032418004+68750+023550FM-12+038299999V0202201N00101220001CN9999999N9-00391+99999999999ADDAY101999GF104991999999999999999999MW1101
0056011990999991951032507004+68750+023550FM-12+038299999V0201701N00261220001CN9999999N9-01221+99999999999ADDAY101999GF102991999999999999999999KA1999N-01721MW1001
0043011990999991951032512004+68750+023550FM-12+038299999V0202501N00261220001CN9999999N9-00391+99999999999ADDAY101999GF101991999999999999999999MW1001
0043011990999991951032518004+68750+023550FM-12+038299999V0202401N00461220001CN9999999N9-00721+99999999999ADDAY101999GF102991999999999999999999MW1361
0056011990999991951032607004+68750+023550FM-12+038299999V0202001N00261220001CN9999999N9-01001+99999999999ADDAY101999GF100991999999999999999999KA1999N-01281MW1001
0043011990999991951032612004+68750+023550FM-12+038299999V0201601N00261220001CN9999999N9-00391+99999999999ADDAY101999GF101991999999999999999999MW1001
0043011990999991951032618004+68750+023550FM-12+038299999V0201601N00261220001CN9999999N9-00781+99999999999ADDAY101999GF103991999999999999999999MW1101
0067011990999991951032707004+68750+023550FM-12+038299999V0202801N001019999999N9999999N9-00891+99999999999ADDAA199001091AY171999GF107991999999999999999999KA1999N-01111MW1771
0043011990999991951032712004+68750+023550FM-12+038299999V0201901N00261220001CN9999999N9-00391+99999999999ADDAY101999GF101991999999999999999999MW1001
0043011990999991951032718004+68750+023550FM-12+038299999V0201401N00261220001CN9999999N9-01111+99999999999ADDAY101999GF104991999999999999999999MW1101
0056011990999991951032807004+68750+023550FM-12+038299999V0202201N001019999999N9999999N9-00891+99999999999ADDAY101999GF108991999999999999999999KA1999N-01281MW1101
0043011990999991951032812004+68750+023550FM-12+038299999V0200501N002619999999N9999999N9-00891+99999999999ADDAY101999GF108991999999999999999999MW1101
0043011990999991951032818004+68750+023550FM-12+038299999V0202201N001019999999N9999999N9-01281+99999999999ADDAY101999GF106991999999999999999999MW1101
0067011990999991951032907004+68750+023550FM-12+038299999V0200401N002619999999N9999999N9-00611+99999999999ADDAA199000391AY171999GF107991999999999999999999KA1999N-01281MW1001
0043011990999991951032912004+68750+023550FM-12+038299999V0200401N001019999999N9999999N9-00391+99999999999ADDAY171999GF107991999999999999999999MW1711
0043011990999991951032918004+68750+023550FM-12+038299999V0202701N001019999999N9999999N9-00781+99999999999ADDAY171999GF108991999999999999999999MW1731
0067011990999991951033007004+68750+023550FM-12+038299999V0201601N00261220001CN9999999N9-01221+99999999999ADDAA199003091AY101999GF104991999999999999999999KA1999N-01501MW1001
0043011990999991951033012004+68750+023550FM-12+038299999V0201801N001019999999N9999999N9-00611+99999999999ADDAY171999GF107991999999999999999999MW1711
0043011990999991951033018004+68750+023550FM-12+038299999V0201601N002619999999N9999999N9-00611+99999999999ADDAY171999GF108991999999999999999999MW1711
0067011990999991951033107004+68750+023550FM-12+038299999V0202801N001019999999N9999999N9-00721+99999999999ADDAA199001091AY171999GF108991999999999999999999KA1999N-01281MW1771
0043011990999991951033112004+68750+023550FM-12+038299999V0203201N002619999999N9999999N9-00611+99999999999ADDAY101999GF105991999999999999999999MW1001
0043011990999991951033118004+68750+023550FM-12+038299999V0202401N00101220001CN9999999N9-01281+99999999999ADDAY101999GF102991999999999999999999MW1001
0056011990999991951040107004+68750+023550FM-12+038299999V0200201N00101220001CN9999999N9-01281+99999999999ADDAY101999GF104991999999999999999999KA1999N-01891MW1001
0043011990999991951040112004+68750+023550FM-12+038299999V0201201N00261220001CN9999999N9-00611+99999999999ADDAY101999GF102991999999999999999999MW1001
0043011990999991951040118004+68750+023550FM-12+038299999V0201801N00461220001CN9999999N9-00501+99999999999ADDAY131999GF104991999999999999999999MW1361
0067011990999991951040207004+68750+023550FM-12+038299999V0202201N002619999999N9999999N9-00721+99999999999ADDAA199000591AY171999GF106991999999999999999999KA1999N-00721MW1001
0043011990999991951040212004+68750+023550FM-12+038299999V0201901N002619999999N9999999N9-00501+99999999999ADDAY101999GF108991999999999999999999MW1101
0043011990999991951040218004+68750+023550FM-12+038299999V0201801N004619999999N9999999N9-00611+99999999999ADDAY131999GF107991999999999999999999MW1361
0056011990999991951040307004+68750+023550FM-12+038299999V0200701N001019999999N9999999N9-00781+99999999999ADDAY101999GF108991999999999999999999KA1999N-01111MW1001
0043011990999991951040312004+68750+023550FM-12+038299999V0201901N00101220001CN9999999N9-00611+99999999999ADDAY101999GF103991999999999999999999MW1001
0043011990999991951040318004+68750+023550FM-12+038299999V0200701N002619999999N9999999N9-00721+99999999999ADDAY101999GF108991999999999999999999MW1101
0056011990999991951040407004+68750+023550FM-12+038299999V0203401N00101220001CN9999999N9-01001+99999999999ADDAY101999GF101991999999999999999999KA1999N-01721MW1001
0043011990999991951040412004+68750+023550FM-12+038299999V0200401N00101220001CN9999999N9-00611+99999999999ADDAY101999GF102991999999999999999999MW1001
0043011990999991951040418004+68750+023550FM-12+038299999V0200401N00101220001CN9999999N9-00781+99999999999ADDAY101999GF101991999999999999999999MW1101
0056011990999991951040507004+68750+023550FM-12+038299999V0201001N00261220001CN9999999N9-01111+99999999999ADDAY101999GF104991999999999999999999KA1999N-01501MW1001
0043011990999991951040512004+68750+023550FM-12+038299999V0200601N00101220001CN9999999N9-00501+99999999999ADDAY101999GF101991999999999999999999MW1001
0043011990999991951040518004+68750+023550FM-12+038299999V0201001N00461220001CN9999999N9-00891+99999999999ADDAY131999GF103991999999999999999999MW1361
0067011990999991951040607004+68750+023550FM-12+038299999V0200601N002619999999N9999999N9-00721+99999999999ADDAA199001091AY171999GF106991999999999999999999KA1999N-01221MW1001
0043011990999991951040612004+68750+023550FM-12+038299999V0200701N002619999999N9999999N9-00501+99999999999ADDAY101999GF108991999999999999999999MW1731
0043011990999991951040618004+68750+023550FM-12+038299999V0200401N002619999999N9999999N9-00501+99999999999ADDAY171999GF108991999999999999999999MW1101
0067011990999991951040707004+68750+023550FM-12+038299999V0200801N00101220001CN9999999N9-00611+99999999999ADDAA199001091AY171999GF103991999999999999999999KA1999N-01281MW1001
0043011990999991951040712004+68750+023550FM-12+038299999V0203501N00101220001CN9999999N9-00721+99999999999ADDAY101999GF101991999999999999999999MW1001
0043011990999991951040718004+68750+023550FM-12+038299999V0200401N00101220001CN9999999N9-01281+99999999999ADDAY101999GF103991999999999999999999MW1101
0067011990999991951040807004+68750+023550FM-12+038299999V0201501N002619999999N9999999N9-00501+99999999999ADDAA199000391AY171999GF108991999999999999999999KA1999N-01891MW1101
0043011990999991951040812004+68750+023550FM-12+038299999V0201301N004619999999N9999999N9-00221+99999999999ADDAY171999GF108991999999999999999999MW1711
0043011990999991951040818004+68750+023550FM-12+038299999V0201401N004619999999N9999999N9-00111+99999999999ADDAY131999GF108991999999999999999999MW1361
0067011990999991951040907004+68750+023550FM-12+038299999V0201901N004619999999N9999999N9+00111+99999999999ADDAA199002091AY171999GF108991999999999999999999KA1999N-00221MW1691
0043011990999991951040912004+68750+023550FM-12+038299999V0202001N00671220001CN9999999N9+00221+99999999999ADDAY101999GF104991999999999999999999MW1001
0043011990999991951040918004+68750+023550FM-12+038299999V0201901N004619999999N9999999N9+00111+99999999999ADDAY101999GF107991999999999999999999MW1101
0067011990999991951041007004+68750+023550FM-12+038299999V0202701N001019999999N9999999N9+00001+99999999999ADDAA199000391AY171999GF108991999999999999999999KA1999N-00501MW1771
0043011990999991951041012004+68750+023550FM-12+038299999V0201001N00101220001CN9999999N9+00281+99999999999ADDAY101999GF101991999999999999999999MW1001
0043011990999991951041018004+68750+023550FM-12+038299999V0200701N00101220001CN9999999N9-00501+99999999999ADDAY101999GF101991999999999999999999MW1101
0067011990999991951041107004+68750+023550FM-12+038299999V0200201N002619999999N9999999N9-00391+99999999999ADDAA199001091AY171999GF108991999999999999999999KA1999N-00891MW1711
0043011990999991951041112004+68750+023550FM-12+038299999V0203501N006719999999N9999999N9-00281+99999999999ADDAY171999GF108991999999999999999999MW1731
0043011990999991951041118004+68750+023550FM-12+038299999V0203501N004619999999N9999999N9-00281+99999999999ADDAY171999GF108991999999999999999999MW1711
0067011990999991951041207004+68750+023550FM-12+038299999V0200801N00101220001CN9999999N9-00501+99999999999ADDAA199007091AY171999GF104991999999999999999999KA1999N-00891MW1101
0043011990999991951041212004+68750+023550FM-12+038299999V0201401N004619999999N9999999N9-00391+99999999999ADDAY101999GF107991999999999999999999MW1101
0043011990999991951041218004+68750+023550FM-12+038299999V0201601N002619999999N9999999N9-00391+99999999999ADDAY101999GF107991999999999999999999MW1771
0067011990999991951041307004+68750+023550FM-12+038299999V0201401N004619999999N9999999N9-00281+99999999999ADDAA199000591AY171999GF108991999999999999999999KA1999N-00611MW1361
0043011990999991951041312004+68750+023550FM-12+038299999V0201801N004619999999N9999999N9+00001+99999999999ADDAY131999GF108991999999999999999999MW1361
0043011990999991951041318004+68750+023550FM-12+038299999V0202001N004619999999N9999999N9+00111+99999999999ADDAY171999GF108991999999999999999999MW1771
0067011990999991951041407004+68750+023550FM-12+038299999V0200701N002619999999N9999999N9-00281+99999999999ADDAA199000591AY131999GF108991999999999999999999KA1999N-00611MW1711
0043011990999991951041412004+68750+023550FM-12+038299999V0201501N002619999999N9999999N9+00111+99999999999ADDAY171999GF108991999999999999999999MW1691
0043011990999991951041418004+68750+023550FM-12+038299999V0201901N004619999999N9999999N9+00001+99999999999ADDAY171999GF108991999999999999999999MW1361
0067011990999991951041507004+68750+023550FM-12+038299999V0201501N001019999999N9999999N9-00111+99999999999ADDAA199003091AY171999GF108991999999999999999999KA1999N-00111MW1101
0043011990999991951041512004+68750+023550FM-12+038299999V0201101N002619999999N9999999N9+00111+99999999999ADDAY141999GF108991999999999999999999MW1101
0043011990999991951041518004+68750+023550FM-12+038299999V0200401N002619999999N9999999N9+00001+99999999999ADDAY141999GF108991999999999999999999MW1771
0067011990999991951041607004+68750+023550FM-12+038299999V0201901N001019999999N9999999N9-00281+99999999999ADDAA199003091AY171999GF107991999999999999999999KA1999N-00391MW1771
0043011990999991951041612004+68750+023550FM-12+038299999V0201901N00261220001CN9999999N9+00001+99999999999ADDAY101999GF102991999999999999999999MW1001
0043011990999991951041618004+68750+023550FM-12+038299999V0201801N00261220001CN9999999N9-00221+99999999999ADDAY101999GF102991999999999999999999MW1101
0056011990999991951041707004+68750+023550FM-12+038299999V0201401N004619999999N9999999N9-00111+99999999999ADDAY131999GF108991999999999999999999KA1999N-00611MW1361
0043011990999991951041712004+68750+023550FM-12+038299999V0201401N004619999999N9999999N9+00001+99999999999ADDAY131999GF108991999999999999999999MW1361
0043011990999991951041718004+68750+023550FM-12+038299999V0201301N004619999999N9999999N9+00001+99999999999ADDAY131999GF108991999999999999999999MW1361
0067011990999991951041807004+68750+023550FM-12+038299999V0201501N002619999999N9999999N9+00001+99999999999ADDAA199001091AY171999GF106991999999999999999999KA1999N-00281MW1001
0043011990999991951041812004+68750+023550FM-12+038299999V0201601N00261220001CN9999999N9+00001+99999999999ADDAY101999GF104991999999999999999999MW1001
0043011990999991951041818004+68750+023550FM-12+038299999V0202701N00261220001CN9999999N9-00391+99999999999ADDAY101999GF103991999999999999999999MW1101
0067011990999991951041907004+68750+023550FM-12+038299999V0202201N00461220001CN9999999N9-00391+99999999999ADDAA199000391AY171999GF100991999999999999999999KA1999N-01391MW1001
0043011990999991951041912004+68750+023550FM-12+038299999V0202501N00101220001CN9999999N9-00221+99999999999ADDAY101999GF102991999999999999999999MW1001
0043011990999991951041918004+68750+023550FM-12+038299999V0202101N00261220001CN9999999N9-00501+99999999999ADDAY131999GF103991999999999999999999MW1001
0056011990999991951042007004+68750+023550FM-12+038299999V0200801N00101220001CN9999999N9-00721+99999999999ADDAY101999GF100991999999999999999999KA1999N-01781MW1001
0043011990999991951042012004+68750+023550FM-12+038299999V0203301N00261220001CN9999999N9-00281+99999999999ADDAY101999GF101991999999999999999999MW1001
0043011990999991951042018004+68750+023550FM-12+038299999V0203101N00101220001CN9999999N9-00611+99999999999ADDAY101999GF101991999999999999999999MW1001
0056011990999991951042107004+68750+023550FM-12+038299999V0202701N00101220001CN9999999N9-00281+99999999999ADDAY101999GF100991999999999999999999KA1999N-01501MW1001
0043011990999991951042112004+68750+023550FM-12+038299999V0202601N00261220001CN9999999N9+00001+99999999999ADDAY101999GF102991999999999999999999MW1001
0043011990999991951042118004+68750+023550FM-12+038299999V0202001N002619999999N9999999N9-00221+99999999999ADDAY101999GF105991999999999999999999MW1001
0056011990999991951042207004+68750+023550FM-12+038299999V0203101N00461220001CN9999999N9-00111+99999999999ADDAY131999GF104991999999999999999999KA1999N-00391MW1361
0043011990999991951042212004+68750+023550FM-12+038299999V0203001N00261220001CN9999999N9+00111+99999999999ADDAY101999GF103991999999999999999999MW1001
0043011990999991951042218004+68750+023550FM-12+038299999V0203301N00461220001CN9999999N9-00221+99999999999ADDAY101999GF104991999999999999999999MW1361
0067011990999991951042307004+68750+023550FM-12+038299999V0202701N002619999999N9999999N9-00111+99999999999ADDAA199000391AY171999GF108991999999999999999999KA1999N-00721MW1101
0043011990999991951042312004+68750+023550FM-12+038299999V0202101N004619999999N9999999N9+00001+99999999999ADDAY131999GF108991999999999999999999MW1361
0043011990999991951042318004+68750+023550FM-12+038299999V0202101N004619999999N9999999N9+00111+99999999999ADDAY171999GF108991999999999999999999MW1101
0067011990999991951042407004+68750+023550FM-12+038299999V0201801N002619999999N9999999N9+00111+99999999999ADDAA199001091AY171999GF108991999999999999999999KA1999N-00221MW1101
0043011990999991951042412004+68750+023550FM-12+038299999V0201901N002619999999N9999999N9+00221+99999999999ADDAY141999GF108991999999999999999999MW1101
0043011990999991951042418004+68750+023550FM-12+038299999V0201601N001019999999N9999999N9+00111+99999999999ADDAY141999GF108991999999999999999999MW1101
0056011990999991951042507004+68750+023550FM-12+038299999V0201701N001019999999N9999999N9+00111+99999999999ADDAY141999GF109991999999999999999999KA1999N-00111MW1451
0043011990999991951042512004+68750+023550FM-12+038299999V0202201N001019999999N9999999N9+00221+99999999999ADDAY141999GF108991999999999999999999MW1101
0043011990999991951042518004+68750+023550FM-12+038299999V0200201N001019999999N9999999N9+00111+99999999999ADDAY101999GF106991999999999999999999MW1101
0056011990999991951042607004+68750+023550FM-12+038299999V0203101N001019999999N9999999N9+00111+99999999999ADDAY141999GF108991999999999999999999KA1999N-00111MW1101
0043011990999991951042612004+68750+023550FM-12+038299999V0203001N001019999999N9999999N9+00281+99999999999ADDAY141999GF107991999999999999999999MW1101
0043011990999991951042618004+68750+023550FM-12+038299999V0203001N001019999999N9999999N9+00221+99999999999ADDAY141999GF107991999999999999999999MW1101
0067011990999991951042707004+68750+023550FM-12+038299999V0201601N001019999999N9999999N9+00001+99999999999ADDAA199001091AY171999GF109991999999999999999999KA1999N-00111MW1451
0043011990999991951042712004+68750+023550FM-12+038299999V0200201N00101220001CN9999999N9+00281+99999999999ADDAY101999GF103991999999999999999999MW1001
0043011990999991951042718004+68750+023550FM-12+038299999V0200701N001019999999N9999999N9-00111+99999999999ADDAY141999GF108991999999999999999999MW1101
0067011990999991951042807004+68750+023550FM-12+038299999V0200101N004619999999N9999999N9+00001+99999999999ADDAA199002091AY171999GF108991999999999999999999KA1999N-00391MW1691
0043011990999991951042812004+68750+023550FM-12+038299999V0200301N00101220001CN9999999N9+00281+99999999999ADDAY101999GF103991999999999999999999MW1001
0043011990999991951042818004+68750+023550FM-12+038299999V0202901N00101220001CN9999999N9+00221+99999999999ADDAY101999GF101991999999999999999999MW1001
0056011990999991951042907004+68750+023550FM-12+038299999V0200201N00261220001CN9999999N9+00111+99999999999ADDAY141999GF103991999999999999999999KA1999N-00391MW1001
0043011990999991951042912004+68750+023550FM-12+038299999V0200201N00101220001CN9999999N9+00501+99999999999ADDAY101999GF101991999999999999999999MW1001
0043011990999991951042918004+68750+023550FM-12+038299999V0200701N00101220001CN9999999N9+00001+99999999999ADDAY101999GF101991999999999999999999MW1001
0056011990999991951043007004+68750+023550FM-12+038299999V0202101N00101220001CN9999999N9-00111+99999999999ADDAY141999GF101991999999999999999999KA1999N-00721MW1001
0043011990999991951043012004+68750+023550FM-12+038299999V0202301N001019999999N9999999N9+00221+99999999999ADDAY101999GF107991999999999999999999MW1001
0043011990999991951043018004+68750+023550FM-12+038299999V0202901N002619999999N9999999N9+00221+99999999999ADDAY101999GF105991999999999999999999MW1101
0056011990999991951050107004+68750+023550FM-12+038299999V0203201N00461220001CN9999999N9+00001+99999999999ADDAY101999GF102991999999999999999999KA1999N-00391MW1001
0043011990999991951050112004+68750+023550FM-12+038299999V0203201N00671220001CN9999999N9+00111+99999999999ADDAY101999GF102991999999999999999999MW1001
0043011990999991951050118004+68750+023550FM-12+038299999V0203301N00461220001CN9999999N9-00111+99999999999ADDAY101999GF102991999999999999999999MW1001
0056011990999991951050207004+68750+023550FM-12+038299999V0202501N004619999999N9999999N9-00111+99999999999ADDAY141999GF108991999999999999999999KA1999N-00611MW1101
0043011990999991951050212004+68750+023550FM-12+038299999V0202601N002619999999N9999999N9+00111+99999999999ADDAY101999GF107991999999999999999999MW1771
0043011990999991951050218004+68750+023550FM-12+038299999V0202401N00261220001CN9999999N9-00111+99999999999ADDAY101999GF102991999999999999999999MW1001
0067011990999991951050307004+68750+023550FM-12+038299999V0200701N002619999999N9999999N9-00221+99999999999ADDAA199002091AY171999GF108991999999999999999999KA1999N-00391MW1691
0043011990999991951050312004+68750+023550FM-12+038299999V0200401N004619999999N9999999N9-00221+99999999999ADDAY131999GF108991999999999999999999MW1361
0043011990999991951050318004+68750+023550FM-12+038299999V0200301N002619999999N9999999N9-00281+99999999999ADDAY101999GF107991999999999999999999MW1771
0067011990999991951050407004+68750+023550FM-12+038299999V0203401N00101220001CN9999999N9-00611+99999999999ADDAA199000691AY101999GF103991999999999999999999KA1999N-01001MW1001
0043011990999991951050412004+68750+023550FM-12+038299999V0203601N00261220001CN9999999N9-00221+99999999999ADDAY101999GF103991999999999999999999MW1001
0043011990999991951050418004+68750+023550FM-12+038299999V0200201N002619999999N9999999N9-00281+99999999999ADDAY101999GF107991999999999999999999MW1101
0067011990999991951050507004+68750+023550FM-12+038299999V0203501N00101220001CN9999999N9-00221+99999999999ADDAA199000691AY171999GF104991999999999999999999KA1999N-00501MW1001
0043011990999991951050512004+68750+023550FM-12+038299999V0200101N00101220001CN9999999N9+00001+99999999999ADDAY101999GF104991999999999999999999MW1001
0043011990999991951050518004+68750+023550FM-12+038299999V0200301N001019999999N9999999N9-00221+99999999999ADDAY101999GF107991999999999999999999MW1101
0056011990999991951050607004+68750+023550FM-12+038299999V0200201N00261220001CN9999999N9-00391+99999999999ADDAY141999GF103991999999999999999999KA1999N-00891MW1001
0043011990999991951050612004+68750+023550FM-12+038299999V0203601N00261220001CN9999999N9-00221+99999999999ADDAY101999GF103991999999999999999999MW1001
0043011990999991951050618004+68750+023550FM-12+038299999V0200101N00261220001CN9999999N9-00501+99999999999ADDAY101999GF102991999999999999999999MW1001
0056011990999991951050707004+68750+023550FM-12+038299999V0203101N00101220001CN9999999N9-00891+99999999999ADDAY101999GF101991999999999999999999KA1999N-01611MW1001
0043011990999991951050712004+68750+023550FM-12+038299999V0203001N00101220001CN9999999N9-00281+99999999999ADDAY101999GF101991999999999999999999MW1001
0043011990999991951050718004+68750+023550FM-12+038299999V0209991C00001220001CN9999999N9-00281+99999999999ADDAY101999GF100991999999999999999999MW1001
0056011990999991951050807004+68750+023550FM-12+038299999V0200801N00101220001CN9999999N9-00281+99999999999ADDAY141999GF103991999999999999999999KA1999N-01501MW1001
0043011990999991951050812004+68750+023550FM-12+038299999V0201101N001019999999N9999999N9-00111+99999999999ADDAY101999GF107991999999999999999999MW1681
0043011990999991951050818004+68750+023550FM-12+038299999V0200901N00101220001CN9999999N9-00111+99999999999ADDAY101999GF102991999999999999999999MW1001
0067011990999991951050907004+68750+023550FM-12+038299999V0203101N002619999999N9999999N9-00501+99999999999ADDAA199001091AY171999GF108991999999999999999999KA1999N-00781MW1681
0043011990999991951050912004+68750+023550FM-12+038299999V0200501N001019999999N9999999N9+00111+99999999999ADDAY171999GF105991999999999999999999MW1001
0043011990999991951050918004+68750+023550FM-12+038299999V0200701N00101220001CN9999999N9-00221+99999999999ADDAY101999GF101991999999999999999999MW1001
0067011990999991951051007004+68750+023550FM-12+038299999V0200301N00101220001CN9999999N9-00221+99999999999ADDAA199000391AY101999GF100991999999999999999999KA1999N-01281MW1001
0043011990999991951051012004+68750+023550FM-12+038299999V0201901N00101220001CN9999999N9+00001+99999999999ADDAY101999GF101991999999999999999999MW1001
0043011990999991951051018004+68750+023550FM-12+038299999V0200801N00101220001CN9999999N9-00221+99999999999ADDAY101999GF103991999999999999999999MW1001
0056011990999991951051107004+68750+023550FM-12+038299999V0202001N004619999999N9999999N9+00111+99999999999ADDAY141999GF108991999999999999999999KA1999N-00501MW1101
0043011990999991951051112004+68750+023550FM-12+038299999V0202001N004619999999N9999999N9+00111+99999999999ADDAY141999GF108991999999999999999999MW1101
0043011990999991951051118004+68750+023550FM-12+038299999V0201901N002619999999N9999999N9+00111+99999999999ADDAY151999GF108991999999999999999999MW1101
0067011990999991951051207004+68750+023550FM-12+038299999V0201401N001019999999N9999999N9+00281+99999999999ADDAA199000591AY151999GF108991999999999999999999KA1999N+00001MW1531
0043011990999991951051212004+68750+023550FM-12+038299999V0201401N002619999999N9999999N9+00221+99999999999ADDAY101999GF108991999999999999999999MW1001
0043011990999991951051218004+68750+023550FM-12+038299999V0200201N001019999999N9999999N9+00111+99999999999ADDAY141999GF108991999999999999999999MW1101
0056011990999991951051307004+68750+023550FM-12+038299999V0200401N00461220001CN9999999N9+00221+99999999999ADDAY101999GF103991999999999999999999KA1999N-00111MW1001
0043011990999991951051312004+68750+023550FM-12+038299999V0200401N00461220001CN9999999N9+00221+99999999999ADDAY101999GF103991999999999999999999MW1001
0043011990999991951051318004+68750+023550FM-12+038299999V0200301N00261220001CN9999999N9+00111+99999999999ADDAY101999GF102991999999999999999999MW1001
0056011990999991951051407004+68750+023550FM-12+038299999V0203201N00101220001CN9999999N9+00111+99999999999ADDAY101999GF101991999999999999999999KA1999N-00611MW1001
0043011990999991951051412004+68750+023550FM-12+038299999V0201001N00101220001CN9999999N9+00501+99999999999ADDAY101999GF101991999999999999999999MW1001
0043011990999991951051418004+68750+023550FM-12+038299999V0200901N00101220001CN9999999N9+00221+99999999999ADDAY101999GF101991999999999999999999MW1001
0056011990999991951051507004+68750+023550FM-12+038299999V0201001N00261220001CN9999999N9+00001+99999999999ADDAY101999GF101991999999999999999999KA1999N-00501MW1001
0043011990999991951051512004+68750+023550FM-12+038299999V0201001N00261220001CN9999999N9+00221+99999999999ADDAY101999GF101991999999999999999999MW1001
0043011990999991951051518004+68750+023550FM-12+038299999V0200901N00261220001CN9999999N9+00001+99999999999ADDAY101999GF102991999999999999999999MW1001
0056011990999991951051607004+68750+023550FM-12+038299999V0202701N00261220001CN9999999N9+00281+99999999999ADDAY101999GF104991999999999999999999KA1999N-00611MW1001
0043011990999991951051612004+68750+023550FM-12+038299999V0202701N00261220001CN9999999N9+00391+99999999999ADDAY101999GF104991999999999999999999MW1001
0043011990999991951051618004+68750+023550FM-12+038299999V0202401N002619999999N9999999N9+00221+99999999999ADDAY101999GF106991999999999999999999MW1001
0067011990999991951051707004+68750+023550FM-12+038299999V0202401N00261220001CN9999999N9+00281+99999999999ADDAA199001091AY171999GF103991999999999999999999KA1999N-00221MW1001
0043011990999991951051712004+68750+023550FM-12+038299999V0203301N00461220001CN9999999N9+00281+99999999999ADDAY101999GF102991999999999999999999MW1001
0043011990999991951051718004+68750+023550FM-12+038299999V0203401N00261220001CN9999999N9+00221+99999999999ADDAY101999GF103991999999999999999999MW1001
0056011990999991951051807004+68750+023550FM-12+038299999V0202001N004619999999N9999999N9+00111+99999999999ADDAY141999GF108991999999999999999999KA1999N-00781MW1101
0043011990999991951051812004+68750+023550FM-12+038299999V0202101N00461220001CN9999999N9+00221+99999999999ADDAY101999GF104991999999999999999999MW1001
0043011990999991951051818004+68750+023550FM-12+038299999V0202701N00101220001CN9999999N9+00281+99999999999ADDAY101999GF102991999999999999999999MW1001
0067011990999991951051907004+68750+023550FM-12+038299999V0203101N002619999999N9999999N9+00281+99999999999ADDAA199000591AY171999GF108991999999999999999999KA1999N+00001MW1101
0043011990999991951051912004+68750+023550FM-12+038299999V0203301N002619999999N9999999N9+00501+99999999999ADDAY101999GF107991999999999999999999MW1001
0043011990999991951051918004+68750+023550FM-12+038299999V0203001N002619999999N9999999N9+00281+99999999999ADDAY101999GF105991999999999999999999MW1001
0056011990999991951052007004+68750+023550FM-12+038299999V0202901N002619999999N9999999N9+00221+99999999999ADDAY141999GF107991999999999999999999KA1999N-00111MW1101
0043011990999991951052012004+68750+023550FM-12+038299999V0200301N002619999999N9999999N9+00111+99999999999ADDAY101999GF107991999999999999999999MW1001
0043011990999991951052018004+68750+023550FM-12+038299999V0203601N002619999999N9999999N9-00111+99999999999ADDAY101999GF106991999999999999999999MW1001
0067011990999991951052107004+68750+023550FM-12+038299999V0203301N002619999999N9999999N9-00111+99999999999ADDAA199001091AY171999GF108991999999999999999999KA1999N-00281MW1681
0043011990999991951052112004+68750+023550FM-12+038299999V0202401N004619999999N9999999N9+00001+99999999999ADDAY171999GF107991999999999999999999MW1771
0043011990999991951052118004+68750+023550FM-12+038299999V0203501N004619999999N9999999N9-00221+99999999999ADDAY171999GF107991999999999999999999MW1771
0067011990999991951052207004+68750+023550FM-12+038299999V0200301N00461220001CN9999999N9-00281+99999999999ADDAA199001091AY171999GF103991999999999999999999KA1999N-00501MW1001
0043011990999991951052212004+68750+023550FM-12+038299999V0200101N00461220001CN9999999N9-00221+99999999999ADDAY101999GF104991999999999999999999MW1001
0043011990999991951052218004+68750+023550FM-12+038299999V0200301N00461220001CN9999999N9-00281+99999999999ADDAY171999GF104991999999999999999999MW1001
0067011990999991951052307004+68750+023550FM-12+038299999V0201001N004619999999N9999999N9-00221+99999999999ADDAA199000391AY171999GF108991999999999999999999KA1999N-00611MW1101
0043011990999991951052312004+68750+023550FM-12+038299999V0203601N002619999999N9999999N9-00111+99999999999ADDAY101999GF107991999999999999999999MW1001
0043011990999991951052318004+68750+023550FM-12+038299999V0203601N002619999999N9999999N9-00281+99999999999ADDAY171999GF107991999999999999999999MW1771
0067011990999991951052407004+68750+023550FM-12+038299999V0203501N004619999999N9999999N9-00111+99999999999ADDAA199000391AY171999GF108991999999999999999999KA1999N-00391MW1101
0043011990999991951052412004+68750+023550FM-12+038299999V0203601N002619999999N9999999N9+00001+99999999999ADDAY141999GF108991999999999999999999MW1101
0043011990999991951052418004+68750+023550FM-12+038299999V0203501N002619999999N9999999N9-00111+99999999999ADDAY141999GF108991999999999999999999MW1101
0056011990999991951052507004+68750+023550FM-12+038299999V0201901N004619999999N9999999N9+00001+99999999999ADDAY141999GF108991999999999999999999KA1999N-00221MW1101
0043011990999991951052512004+68750+023550FM-12+038299999V0202501N002619999999N9999999N9+00221+99999999999ADDAY141999GF107991999999999999999999MW1101
0043011990999991951052518004+68750+023550FM-12+038299999V0201101N001019999999N9999999N9+00001+99999999999ADDAY101999GF107991999999999999999999MW1101
0056011990999991951052607004+68750+023550FM-12+038299999V0203301N001019999999N9999999N9+00111+99999999999ADDAY141999GF108991999999999999999999KA1999N-00221MW1101
0043011990999991951052612004+68750+023550FM-12+038299999V0203501N00261220001CN9999999N9+00221+99999999999ADDAY101999GF104991999999999999999999MW1001
0043011990999991951052618004+68750+023550FM-12+038299999V0200301N00461220001CN9999999N9-00111+99999999999ADDAY101999GF104991999999999999999999MW1001
0056011990999991951052707004+68750+023550FM-12+038299999V0200201N00461220001CN9999999N9-00221+99999999999ADDAY101999GF103991999999999999999999KA1999N-00501MW1001
0043011990999991951052712004+68750+023550FM-12+038299999V0200301N00261220001CN9999999N9+00001+99999999999ADDAY101999GF104991999999999999999999MW1001
0043011990999991951052718004+68750+023550FM-12+038299999V0200301N00261220001CN9999999N9-00221+99999999999ADDAY101999GF104991999999999999999999MW1001
0056011990999991951052807004+68750+023550FM-12+038299999V0200201N00461220001CN9999999N9-00111+99999999999ADDAY101999GF103991999999999999999999KA1999N-00391MW1001
0043011990999991951052812004+68750+023550FM-12+038299999V0200301N00461220001CN9999999N9+00111+99999999999ADDAY101999GF104991999999999999999999MW1001
0043011990999991951052818004+68750+023550FM-12+038299999V0200501N00461220001CN9999999N9+00001+99999999999ADDAY101999GF103991999999999999999999MW1001
0056011990999991951052907004+68750+023550FM-12+038299999V0200501N00261220001CN9999999N9+00001+99999999999ADDAY101999GF104991999999999999999999KA1999N-00501MW1001
0043011990999991951052912004+68750+023550FM-12+038299999V0200701N002619999999N9999999N9+00001+99999999999ADDAY101999GF108991999999999999999999MW1101
0043011990999991951052918004+68750+023550FM-12+038299999V0200501N002619999999N9999999N9+00001+99999999999ADDAY141999GF108991999999999999999999MW1101
0056011990999991951053007004+68750+023550FM-12+038299999V0200401N002619999999N9999999N9-00111+99999999999ADDAY141999GF108991999999999999999999KA1999N-00221MW1101
0043011990999991951053012004+68750+023550FM-12+038299999V0200201N00101220001CN9999999N9+00111+99999999999ADDAY101999GF103991999999999999999999MW1001
0043011990999991951053018004+68750+023550FM-12+038299999V0200301N00101220001CN9999999N9+00221+99999999999ADDAY101999GF101991999999999999999999MW1001
0056011990999991951053107004+68750+023550FM-12+038299999V0201801N002619999999N9999999N9+00111+99999999999ADDAY141999GF107991999999999999999999KA1999N-00721MW1101
0043011990999991951053112004+68750+023550FM-12+038299999V0201801N00261220001CN9999999N9+00391+99999999999ADDAY101999GF104991999999999999999999MW1001
0043011990999991951053118004+68750+023550FM-12+038299999V0201701N001019999999N9999999N9+00391+99999999999ADDAY101999GF106991999999999999999999MW1101
0067011990999991951060107004+68750+023550FM-12+038299999V0202001N002619999999N9999999N9+00391+99999999999ADDAA199001091AY161999GF108991999999999999999999KA1999N+00221MW1611
0043011990999991951060112004+68750+023550FM-12+038299999V0201801N002619999999N9999999N9+00281+99999999999ADDAY161999GF108991999999999999999999MW1631
0043011990999991951060118004+68750+023550FM-12+038299999V0203401N002619999999N9999999N9+00221+99999999999ADDAY161999GF108991999999999999999999MW1691
0067011990999991951060207004+68750+023550FM-12+038299999V0200401N002619999999N9999999N9+00281+99999999999ADDAA199009091AY171999GF108991999999999999999999KA1999N+00111MW1631
0043011990999991951060212004+68750+023550FM-12+038299999V0200301N002619999999N9999999N9+00501+99999999999ADDAY101999GF107991999999999999999999MW1001
0043011990999991951060218004+68750+023550FM-12+038299999V0200101N00261220001CN9999999N9+00391+99999999999ADDAY101999GF104991999999999999999999MW1101
0056011990999991951060307004+68750+023550FM-12+038299999V0203601N002619999999N9999999N9+00281+99999999999ADDAY141999GF105991999999999999999999KA1999N+00111MW1101
0043011990999991951060312004+68750+023550FM-12+038299999V0202701N001019999999N9999999N9+00611+99999999999ADDAY141999GF106991999999999999999999MW1101
0043011990999991951060318004+68750+023550FM-12+038299999V0202501N00101220001CN9999999N9+00611+99999999999ADDAY101999GF103991999999999999999999MW1001
0056011990999991951060407004+68750+023550FM-12+038299999V0202801N002619999999N9999999N9+00611+99999999999ADDAY141999GF105991999999999999999999KA1999N+00221MW1101
0043011990999991951060412004+68750+023550FM-12+038299999V0202901N00261220001CN9999999N9+00611+99999999999ADDAY101999GF104991999999999999999999MW1001
0043011990999991951060418004+68750+023550FM-12+038299999V0202901N002619999999N9999999N9+00391+99999999999ADDAY101999GF106991999999999999999999MW1101
0056011990999991951060507004+68750+023550FM-12+038299999V0203101N00461220001CN9999999N9+00281+99999999999ADDAY101999GF103991999999999999999999KA1999N+00001MW1001
0043011990999991951060512004+68750+023550FM-12+038299999V0202901N00261220001CN9999999N9+00391+99999999999ADDAY101999GF104991999999999999999999MW1001
0043011990999991951060518004+68750+023550FM-12+038299999V0203001N00261220001CN9999999N9+00221+99999999999ADDAY101999GF102991999999999999999999MW1001
0056011990999991951060607004+68750+023550FM-12+038299999V0203001N00461220001CN9999999N9+00221+99999999999ADDAY101999GF104991999999999999999999KA1999N-00391MW1001
0043011990999991951060612004+68750+023550FM-12+038299999V0203001N002619999999N9999999N9+00281+99999999999ADDAY101999GF105991999999999999999999MW1001
0043011990999991951060618004+68750+023550FM-12+038299999V0203601N004619999999N9999999N9+00281+99999999999ADDAY101999GF105991999999999999999999MW1691
0067011990999991951060707004+68750+023550FM-12+038299999V0203601N002619999999N9999999N9+00221+99999999999ADDAA199001091AY171999GF107991999999999999999999KA1999N-00221MW1101
0043011990999991951060712004+68750+023550FM-12+038299999V0202701N004619999999N9999999N9+00391+99999999999ADDAY141999GF108991999999999999999999MW1101
0043011990999991951060718004+68750+023550FM-12+038299999V0202401N00261220001CN9999999N9+00221+99999999999ADDAY101999GF103991999999999999999999MW1001
0056011990999991951060807004+68750+023550FM-12+038299999V0202601N00261220001CN9999999N9+00391+99999999999ADDAY101999GF103991999999999999999999KA1999N-00281MW1001
0043011990999991951060812004+68750+023550FM-12+038299999V0202401N00261220001CN9999999N9+00611+99999999999ADDAY141999GF103991999999999999999999MW1101
0043011990999991951060818004+68750+023550FM-12+038299999V0201601N00261220001CN9999999N9+00281+99999999999ADDAY101999GF103991999999999999999999MW1871
0067011990999991951060907004+68750+023550FM-12+038299999V0202501N00261220001CN9999999N9+00721+99999999999ADDAA199000391AY101999GF103991999999999999999999KA1999N-00221MW1001
0043011990999991951060912004+68750+023550FM-12+038299999V0200801N002619999999N9999999N9+00501+99999999999ADDAY181999GF105991999999999999999999MW1001
0043011990999991951060918004+68750+023550FM-12+038299999V0201001N002619999999N9999999N9+00221+99999999999ADDAY191999GF108991999999999999999999MW1631
0067011990999991951061007004+68750+023550FM-12+038299999V0202001N001019999999N9999999N9+00391+99999999999ADDAA199004091AY161999GF108991999999999999999999KA1999N+00111MW1531
0043011990999991951061012004+68750+023550FM-12+038299999V0202201N00261220001CN9999999N9+00611+99999999999ADDAY161999GF103991999999999999999999MW1001
0043011990999991951061018004+68750+023550FM-12+038299999V0203201N00101220001CN9999999N9+00611+99999999999ADDAY101999GF102991999999999999999999MW1001
0067011990999991951061107004+68750+023550FM-12+038299999V0201501N00261220001CN9999999N9+00781+99999999999ADDAA199000391AY101999GF103991999999999999999999KA1999N+00111MW1001
0043011990999991951061112004+68750+023550FM-12+038299999V0202001N002619999999N9999999N9+01001+99999999999ADDAY101999GF108991999999999999999999MW1101
0043011990999991951061118004+68750+023550FM-12+038299999V0202701N001019999999N9999999N9+00391+99999999999ADDAY141999GF108991999999999999999999MW1101
0056011990999991951061207004+68750+023550FM-12+038299999V0203301N00261220001CN9999999N9+00501+99999999999ADDAY101999GF102991999999999999999999KA1999N+00111MW1001
0043011990999991951061212004+68750+023550FM-12+038299999V0202801N00461220001CN9999999N9+00891+99999999999ADDAY101999GF103991999999999999999999MW1001
0043011990999991951061218004+68750+023550FM-12+038299999V0202901N00261220001CN9999999N9+00501+99999999999ADDAY101999GF102991999999999999999999MW1001
0056011990999991951061307004+68750+023550FM-12+038299999V0202901N00461220001CN9999999N9+00721+99999999999ADDAY101999GF102991999999999999999999KA1999N+00001MW1001
0043011990999991951061312004+68750+023550FM-12+038299999V0202601N00261220001CN9999999N9+00781+99999999999ADDAY101999GF102991999999999999999999MW1001
0043011990999991951061318004+68750+023550FM-12+038299999V0200801N00101220001CN9999999N9+00891+99999999999ADDAY101999GF104991999999999999999999MW1001
0067011990999991951061407004+68750+023550FM-12+038299999V0203401N002619999999N9999999N9+00221+99999999999ADDAA199004091AY161999GF108991999999999999999999KA1999N+00221MW1631
0043011990999991951061412004+68750+023550FM-12+038299999V0203501N002619999999N9999999N9+00281+99999999999ADDAY161999GF108991999999999999999999MW1611
0043011990999991951061418004+68750+023550FM-12+038299999V0200501N001019999999N9999999N9+00391+99999999999ADDAY161999GF105991999999999999999999MW1001
0067011990999991951061507004+68750+023550FM-12+038299999V0203301N00261220001CN9999999N9+00501+99999999999ADDAA199002091AY171999GF104991999999999999999999KA1999N-00111MW1001
0043011990999991951061512004+68750+023550FM-12+038299999V0203301N00261220001CN9999999N9+00611+99999999999ADDAY101999GF103991999999999999999999MW1001
0043011990999991951061518004+68750+023550FM-12+038299999V0203501N00261220001CN9999999N9+00501+99999999999ADDAY101999GF102991999999999999999999MW1001
0067011990999991951061607004+68750+023550FM-12+038299999V0203401N002619999999N9999999N9+00391+99999999999ADDAA199000691AY171999GF108991999999999999999999KA1999N-00111MW1101
0043011990999991951061612004+68750+023550FM-12+038299999V0203301N00461220001CN9999999N9+00611+99999999999ADDAY141999GF104991999999999999999999MW1001
0043011990999991951061618004+68750+023550FM-12+038299999V0203401N00261220001CN9999999N9+00501+99999999999ADDAY101999GF103991999999999999999999MW1001
0056011990999991951061707004+68750+023550FM-12+038299999V0203301N00261220001CN9999999N9+00721+99999999999ADDAY141999GF104991999999999999999999KA1999N-00111MW1001
0043011990999991951061712004+68750+023550FM-12+038299999V0202701N00261220001CN9999999N9+00891+99999999999ADDAY101999GF103991999999999999999999MW1001
0043011990999991951061718004+68750+023550FM-12+038299999V0203401N00261220001CN9999999N9+00781+99999999999ADDAY101999GF102991999999999999999999MW1001
0056011990999991951061807004+68750+023550FM-12+038299999V0202701N002619999999N9999999N9+00891+99999999999ADDAY101999GF106991999999999999999999KA1999N+00111MW1101
0043011990999991951061812004+68750+023550FM-12+038299999V0202901N00101220001CN9999999N9+01221+99999999999ADDAY101999GF103991999999999999999999MW1001
0043011990999991951061818004+68750+023550FM-12+038299999V0202701N002619999999N9999999N9+01111+99999999999ADDAY101999GF108991999999999999999999MW1101
0067011990999991951061907004+68750+023550FM-12+038299999V0201601N002619999999N9999999N9+00891+99999999999ADDAA199001091AY161999GF107991999999999999999999KA1999N+00391MW1101
0043011990999991951061912004+68750+023550FM-12+038299999V0201901N002619999999N9999999N9+01111+99999999999ADDAY101999GF107991999999999999999999MW1101
0043011990999991951061918004+68750+023550FM-12+038299999V0201601N002619999999N9999999N9+00611+99999999999ADDAY141999GF108991999999999999999999MW1631
0067011990999991951062007004+68750+023550FM-12+038299999V0203501N002619999999N9999999N9+00611+99999999999ADDAA199003091AY161999GF106991999999999999999999KA1999N+00501MW1001
0043011990999991951062012004+68750+023550FM-12+038299999V0203501N002619999999N9999999N9+00781+99999999999ADDAY101999GF106991999999999999999999MW1001
0043011990999991951062018004+68750+023550FM-12+038299999V0200101N001019999999N9999999N9+00611+99999999999ADDAY141999GF108991999999999999999999MW1101
0056011990999991951062107004+68750+023550FM-12+038299999V0203601N00261220001CN9999999N9+00501+99999999999ADDAY101999GF104991999999999999999999KA1999N+00221MW1001
0043011990999991951062112004+68750+023550FM-12+038299999V0203601N004619999999N9999999N9+00721+99999999999ADDAY101999GF105991999999999999999999MW1001
0043011990999991951062118004+68750+023550FM-12+038299999V0200201N002619999999N9999999N9+00611+99999999999ADDAY101999GF108991999999999999999999MW1101
0056011990999991951062207004+68750+023550FM-12+038299999V0202701N002619999999N9999999N9+00891+99999999999ADDAY141999GF108991999999999999999999KA1999N+00221MW1101
0043011990999991951062212004+68750+023550FM-12+038299999V0203001N002619999999N9999999N9+01001+99999999999ADDAY141999GF107991999999999999999999MW1101
0043011990999991951062218004+68750+023550FM-12+038299999V0209991C00001220001CN9999999N9+01221+99999999999ADDAY101999GF101991999999999999999999MW1001
0056011990999991951062307004+68750+023550FM-12+038299999V0201901N00261220001CN9999999N9+01391+99999999999ADDAY101999GF101991999999999999999999KA1999N+00281MW1001
0043011990999991951062312004+68750+023550FM-12+038299999V0201901N00261220001CN9999999N9+01721+99999999999ADDAY101999GF102991999999999999999999MW1001
0043011990999991951062318004+68750+023550FM-12+038299999V0202001N004619999999N9999999N9+01281+99999999999ADDAY191999GF106991999999999999999999MW1001
0056011990999991951062407004+68750+023550FM-12+038299999V0201801N00261220001CN9999999N9+01611+99999999999ADDAY141999GF104991999999999999999999KA1999N+00781MW1051
0043011990999991951062412004+68750+023550FM-12+038299999V0202401N01231220001CN9999999N9+01391+99999999999ADDAY191999GF104991999999999999999999MW1051
0043011990999991951062418004+68750+023550FM-12+038299999V0201201N002619999999N9999999N9+00891+99999999999ADDAY191999GF108991999999999999999999MW1631
0067011990999991951062507004+68750+023550FM-12+038299999V0201901N001019999999N9999999N9+01281+99999999999ADDAA199005091AY161999GF106991999999999999999999KA1999N+00781MW1001
0043011990999991951062512004+68750+023550FM-12+038299999V0201801N002619999999N9999999N9+01221+99999999999ADDAY141999GF108991999999999999999999MW1531
0043011990999991951062518004+68750+023550FM-12+038299999V0200701N001019999999N9999999N9+01221+99999999999ADDAY141999GF109991999999999999999999MW1451
0067011990999991951062607004+68750+023550FM-12+038299999V0203601N002619999999N9999999N9+00781+99999999999ADDAA199017091AY161999GF108991999999999999999999KA1999N+00721MW1531
0043011990999991951062612004+68750+023550FM-12+038299999V0203601N002619999999N9999999N9+01111+99999999999ADDAY101999GF106991999999999999999999MW1001
0043011990999991951062618004+68750+023550FM-12+038299999V0203601N00261220001CN9999999N9+01221+99999999999ADDAY101999GF101991999999999999999999MW1001
0056011990999991951062707004+68750+023550FM-12+038299999V0201201N002619999999N9999999N9+00891+99999999999ADDAY141999GF106991999999999999999999KA1999N+00391MW1101
0043011990999991951062712004+68750+023550FM-12+038299999V0200801N002619999999N9999999N9+01001+99999999999ADDAY101999GF106991999999999999999999MW1101
0043011990999991951062718004+68750+023550FM-12+038299999V0200901N002619999999N9999999N9+01001+99999999999ADDAY141999GF107991999999999999999999MW1101
0056011990999991951062807004+68750+023550FM-12+038299999V0200201N002619999999N9999999N9+00891+99999999999ADDAY141999GF108991999999999999999999KA1999N+00721MW1101
0043011990999991951062812004+68750+023550FM-12+038299999V0200601N002619999999N9999999N9+01111+99999999999ADDAY141999GF107991999999999999999999MW1001
0043011990999991951062818004+68750+023550FM-12+038299999V0200301N004619999999N9999999N9+00721+99999999999ADDAY141999GF105991999999999999999999MW1001
0056011990999991951062907004+68750+023550FM-12+038299999V0203501N004619999999N9999999N9+00611+99999999999ADDAY141999GF106991999999999999999999KA1999N+00221MW1001
0043011990999991951062912004+68750+023550FM-12+038299999V0203401N004619999999N9999999N9+00781+99999999999ADDAY101999GF107991999999999999999999MW1001
0043011990999991951062918004+68750+023550FM-12+038299999V0200201N00261220001CN9999999N9+00721+99999999999ADDAY101999GF102991999999999999999999MW1001
0056011990999991951063007004+68750+023550FM-12+038299999V0203001N002619999999N9999999N9+00891+99999999999ADDAY101999GF106991999999999999999999KA1999N+00281MW1001
0043011990999991951063012004+68750+023550FM-12+038299999V0203201N002619999999N9999999N9+01001+99999999999ADDAY101999GF106991999999999999999999MW1001
0043011990999991951063018004+68750+023550FM-12+038299999V0202901N002619999999N9999999N9+00891+99999999999ADDAY101999GF107991999999999999999999MW1101
0056011990999991951070107004+68750+023550FM-12+038299999V0202601N002619999999N9999999N9+01001+99999999999ADDAY141999GF106991999999999999999999KA1999N+00391MW1001
0043011990999991951070112004+68750+023550FM-12+038299999V0203201N002619999999N9999999N9+01281+99999999999ADDAY101999GF105991999999999999999999MW1001
0043011990999991951070118004+68750+023550FM-12+038299999V0209991C00001220001CN9999999N9+01001+99999999999ADDAY101999GF104991999999999999999999MW1001
0067011990999991951070207004+68750+023550FM-12+038299999V0201801N002619999999N9999999N9+00891+99999999999ADDAA199002091AY161999GF108991999999999999999999KA1999N+00781MW1611
0043011990999991951070212004+68750+023550FM-12+038299999V0202401N002619999999N9999999N9+01001+99999999999ADDAY161999GF107991999999999999999999MW1001
0043011990999991951070218004+68750+023550FM-12+038299999V0203201N002619999999N9999999N9+01221+99999999999ADDAY161999GF107991999999999999999999MW1101
0067011990999991951070307004+68750+023550FM-12+038299999V0200801N002619999999N9999999N9+01111+99999999999ADDAA199004091AY141999GF106991999999999999999999KA1999N+00391MW1001
0043011990999991951070312004+68750+023550FM-12+038299999V0200201N002619999999N9999999N9+00891+99999999999ADDAY161999GF107991999999999999999999MW1611
0043011990999991951070318004+68750+023550FM-12+038299999V0200901N00461220001CN9999999N9+01001+99999999999ADDAY101999GF104991999999999999999999MW1001
0067011990999991951070407004+68750+023550FM-12+038299999V0200501N002619999999N9999999N9+00501+99999999999ADDAA199003091AY161999GF108991999999999999999999KA1999N+00391MW1101
0043011990999991951070412004+68750+023550FM-12+038299999V0200601N002619999999N9999999N9+00721+99999999999ADDAY141999GF108991999999999999999999MW1101
0043011990999991951070418004+68750+023550FM-12+038299999V0200201N004619999999N9999999N9+00611+99999999999ADDAY141999GF108991999999999999999999MW1101
0056011990999991951070507004+68750+023550FM-12+038299999V0200201N002619999999N9999999N9+00501+99999999999ADDAY141999GF109991999999999999999999KA1999N+00281MW1451
0043011990999991951070512004+68750+023550FM-12+038299999V0200401N004619999999N9999999N9+00611+99999999999ADDAY161999GF108991999999999999999999MW1631
0043011990999991951070518004+68750+023550FM-12+038299999V0200401N002619999999N9999999N9+00781+99999999999ADDAY161999GF108991999999999999999999MW1611
0067011990999991951070607004+68750+023550FM-12+038299999V0200601N006719999999N9999999N9+00891+99999999999ADDAA199003091AY161999GF108991999999999999999999KA1999N+00501MW1101
0043011990999991951070612004+68750+023550FM-12+038299999V0200401N004619999999N9999999N9+00891+99999999999ADDAY141999GF108991999999999999999999MW1101
0043011990999991951070618004+68750+023550FM-12+038299999V0200801N002619999999N9999999N9+00781+99999999999ADDAY141999GF108991999999999999999999MW1531
0067011990999991951070707004+68750+023550FM-12+038299999V0200201N002619999999N9999999N9+00721+99999999999ADDAA199001091AY161999GF108991999999999999999999KA1999N+00391MW1101
0043011990999991951070712004+68750+023550FM-12+038299999V0200301N002619999999N9999999N9+00891+99999999999ADDAY141999GF108991999999999999999999MW1101
0043011990999991951070718004+68750+023550FM-12+038299999V0203601N00101220001CN9999999N9+00781+99999999999ADDAY151999GF104991999999999999999999MW1001
0067011990999991951070807004+68750+023550FM-12+038299999V0203401N001019999999N9999999N9+00781+99999999999ADDAA199000691AY141999GF108991999999999999999999KA1999N+00391MW1101
0043011990999991951070812004+68750+023550FM-12+038299999V0200601N002619999999N9999999N9+01001+99999999999ADDAY101999GF107991999999999999999999MW1101
0043011990999991951070818004+68750+023550FM-12+038299999V0200901N00101220001CN9999999N9+01111+99999999999ADDAY101999GF102991999999999999999999MW1001
0056011990999991951070907004+68750+023550FM-12+038299999V0200101N002619999999N9999999N9+00781+99999999999ADDAY141999GF108991999999999999999999KA1999N+00501MW1101
0043011990999991951070912004+68750+023550FM-12+038299999V0209991C000019999999N9999999N9+01111+99999999999ADDAY141999GF107991999999999999999999MW1001
0043011990999991951070918004+68750+023550FM-12+038299999V0200901N002619999999N9999999N9+01001+99999999999ADDAY141999GF108991999999999999999999MW1101
0056011990999991951071007004+68750+023550FM-12+038299999V0200301N00461220001CN9999999N9+00721+99999999999ADDAY101999GF104991999999999999999999KA1999N+00501MW1001
0043011990999991951071012004+68750+023550FM-12+038299999V0200701N002619999999N9999999N9+00891+99999999999ADDAY141999GF108991999999999999999999MW1101
0043011990999991951071018004+68750+023550FM-12+038299999V0200901N006719999999N9999999N9+00891+99999999999ADDAY141999GF108991999999999999999999MW1101
0056011990999991951071107004+68750+023550FM-12+038299999V0200801N00101220001CN9999999N9+01001+99999999999ADDAY101999GF101991999999999999999999KA1999N+00281MW1001
0043011990999991951071112004+68750+023550FM-12+038299999V0201301N00261220001CN9999999N9+01281+99999999999ADDAY101999GF102991999999999999999999MW1001
0043011990999991951071118004+68750+023550FM-12+038299999V0201301N00461220001CN9999999N9+01391+99999999999ADDAY101999GF103991999999999999999999MW1001
0056011990999991951071207004+68750+023550FM-12+038299999V0201601N006719999999N9999999N9+01111+99999999999ADDAY141999GF108991999999999999999999KA1999N+00891MW1101
0043011990999991951071212004+68750+023550FM-12+038299999V0200201N002619999999N9999999N9+01281+99999999999ADDAY141999GF108991999999999999999999MW1101
0043011990999991951071218004+68750+023550FM-12+038299999V0201501N002619999999N9999999N9+01281+99999999999ADDAY141999GF108991999999999999999999MW1101
0067011990999991951071307004+68750+023550FM-12+038299999V0203001N004619999999N9999999N9+01111+99999999999ADDAA199015091AY161999GF107991999999999999999999KA1999N+01001MW1631
0043011990999991951071312004+68750+023550FM-12+038299999V0203001N00461220001CN9999999N9+01221+99999999999ADDAY101999GF104991999999999999999999MW1001
0043011990999991951071318004+68750+023550FM-12+038299999V0203201N00671220001CN9999999N9+01111+99999999999ADDAY101999GF103991999999999999999999MW1001
0056011990999991951071407004+68750+023550FM-12+038299999V0203101N00261220001CN9999999N9+00891+99999999999ADDAY101999GF103991999999999999999999KA1999N+00221MW1001
0043011990999991951071412004+68750+023550FM-12+038299999V0202901N00261220001CN9999999N9+01281+99999999999ADDAY101999GF103991999999999999999999MW1001
0043011990999991951071418004+68750+023550FM-12+038299999V0202401N00101220001CN9999999N9+01281+99999999999ADDAY101999GF103991999999999999999999MW1001
0056011990999991951071507004+68750+023550FM-12+038299999V0201801N00461220001CN9999999N9+01611+99999999999ADDAY101999GF101991999999999999999999KA1999N+00611MW1001
0043011990999991951071512004+68750+023550FM-12+038299999V0201901N00461220001CN9999999N9+01891+99999999999ADDAY101999GF102991999999999999999999MW1001
0043011990999991951071518004+68750+023550FM-12+038299999V0201801N004619999999N9999999N9+01391+99999999999ADDAY101999GF106991999999999999999999MW1101
0067011990999991951071607004+68750+023550FM-12+038299999V0203501N002619999999N9999999N9+01111+99999999999ADDAA199001091AY161999GF108991999999999999999999KA1999N+00891MW1611
0043011990999991951071612004+68750+023550FM-12+038299999V0203301N002619999999N9999999N9+01001+99999999999ADDAY141999GF108991999999999999999999MW1611
0043011990999991951071618004+68750+023550FM-12+038299999V0200201N00261220001CN9999999N9+01111+99999999999ADDAY101999GF101991999999999999999999MW1001
0067011990999991951071707004+68750+023550FM-12+038299999V0201601N002619999999N9999999N9+01281+99999999999ADDAA199000391AY101999GF107991999999999999999999KA1999N+00391MW1101
0043011990999991951071712004+68750+023550FM-12+038299999V0201501N002619999999N9999999N9+01281+99999999999ADDAY141999GF108991999999999999999999MW1101
0043011990999991951071718004+68750+023550FM-12+038299999V0201001N002619999999N9999999N9+01391+99999999999ADDAY101999GF106991999999999999999999MW1101
0056011990999991951071807004+68750+023550FM-12+038299999V0200901N00931220001CN9999999N9+01221+99999999999ADDAY101999GF104991999999999999999999KA1999N+00781MW1001
0043011990999991951071812004+68750+023550FM-12+038299999V0200101N009319999999N9999999N9+01001+99999999999ADDAY141999GF108991999999999999999999MW1611
0043011990999991951071818004+68750+023550FM-12+038299999V0200501N002619999999N9999999N9+00891+99999999999ADDAY161999GF108991999999999999999999MW1531
0067011990999991951071907004+68750+023550FM-12+038299999V0200401N002619999999N9999999N9+00721+99999999999ADDAA199003091AY161999GF108991999999999999999999KA1999N+00501MW1101
0043011990999991951071912004+68750+023550FM-12+038299999V0200501N002619999999N9999999N9+00781+99999999999ADDAY141999GF108991999999999999999999MW1101
0043011990999991951071918004+68750+023550FM-12+038299999V0200701N004619999999N9999999N9+00781+99999999999ADDAY141999GF108991999999999999999999MW1611
0067011990999991951072007004+68750+023550FM-12+038299999V0200501N004619999999N9999999N9+00721+99999999999ADDAA199002091AY161999GF108991999999999999999999KA1999N+00391MW1101
0043011990999991951072012004+68750+023550FM-12+038299999V0200401N004619999999N9999999N9+00721+99999999999ADDAY181999GF108991999999999999999999MW1631
0043011990999991951072018004+68750+023550FM-12+038299999V0200301N006719999999N9999999N9+00611+99999999999ADDAY161999GF108991999999999999999999MW1101
0067011990999991951072107004+68750+023550FM-12+038299999V0200101N009319999999N9999999N9+00721+99999999999ADDAA199002091AY161999GF108991999999999999999999KA1999N+00221MW1101
0043011990999991951072112004+68750+023550FM-12+038299999V0200201N006719999999N9999999N9+00611+99999999999ADDAY161999GF108991999999999999999999MW1611
0043011990999991951072118004+68750+023550FM-12+038299999V0203601N006719999999N9999999N9+00501+99999999999ADDAY161999GF108991999999999999999999MW1611
0067011990999991951072207004+68750+023550FM-12+038299999V0203601N004619999999N9999999N9+00721+99999999999ADDAA199003091AY161999GF108991999999999999999999KA1999N+00281MW1101
0043011990999991951072212004+68750+023550FM-12+038299999V0203601N004619999999N9999999N9+00891+99999999999ADDAY141999GF106991999999999999999999MW1001
0043011990999991951072218004+68750+023550FM-12+038299999V0203401N004619999999N9999999N9+00721+99999999999ADDAY101999GF106991999999999999999999MW1001
0056011990999991951072307004+68750+023550FM-12+038299999V0203101N004619999999N9999999N9+00721+99999999999ADDAY101999GF105991999999999999999999KA1999N+00391MW1001
0043011990999991951072312004+68750+023550FM-12+038299999V0202901N00261220001CN9999999N9+01221+99999999999ADDAY101999GF103991999999999999999999MW1001
0043011990999991951072318004+68750+023550FM-12+038299999V0200701N00261220001CN9999999N9+01111+99999999999ADDAY101999GF102991999999999999999999MW1001
0056011990999991951072407004+68750+023550FM-12+038299999V0201101N00261220001CN9999999N9+01221+99999999999ADDAY101999GF102991999999999999999999KA1999N+00281MW1001
0043011990999991951072412004+68750+023550FM-12+038299999V0200501N00261220001CN9999999N9+01721+99999999999ADDAY101999GF103991999999999999999999MW1001
0043011990999991951072418004+68750+023550FM-12+038299999V0200901N00261220001CN9999999N9+01781+99999999999ADDAY101999GF101991999999999999999999MW1001
0056011990999991951072507004+68750+023550FM-12+038299999V0201301N00261220001CN9999999N9+01611+99999999999ADDAY101999GF103991999999999999999999KA1999N+00781MW1001
0043011990999991951072512004+68750+023550FM-12+038299999V0201401N00261220001CN9999999N9+01891+99999999999ADDAY101999GF102991999999999999999999MW1001
0043011990999991951072518004+68750+023550FM-12+038299999V0201101N00101220001CN9999999N9+01781+99999999999ADDAY101999GF102991999999999999999999MW1001
0056011990999991951072607004+68750+023550FM-12+038299999V0201601N00261220001CN9999999N9+01781+99999999999ADDAY101999GF102991999999999999999999KA1999N+01001MW1001
0043011990999991951072612004+68750+023550FM-12+038299999V0201801N004619999999N9999999N9+02111+99999999999ADDAY191999GF105991999999999999999999MW1961
0043011990999991951072618004+68750+023550FM-12+038299999V0200901N002619999999N9999999N9+01391+99999999999ADDAY101999GF106991999999999999999999MW1001
0067011990999991951072707004+68750+023550FM-12+038299999V0201601N002619999999N9999999N9+01281+99999999999ADDAA199004091AY161999GF108991999999999999999999KA1999N+01001MW1101
0043011990999991951072712004+68750+023550FM-12+038299999V0201401N00261220001CN9999999N9+01501+99999999999ADDAY101999GF104991999999999999999999MW1001
0043011990999991951072718004+68750+023550FM-12+038299999V0201801N002619999999N9999999N9+01281+99999999999ADDAY101999GF107991999999999999999999MW1101
0056011990999991951072807004+68750+023550FM-12+038299999V0201701N002619999999N9999999N9+01391+99999999999ADDAY141999GF108991999999999999999999KA1999N+01111MW1101
0043011990999991951072812004+68750+023550FM-12+038299999V0201601N004619999999N9999999N9+01501+99999999999ADDAY141999GF107991999999999999999999MW1101
0043011990999991951072818004+68750+023550FM-12+038299999V0201401N004619999999N9999999N9+01281+99999999999ADDAY161999GF108991999999999999999999MW1961
0067011990999991951072907004+68750+023550FM-12+038299999V0201001N002619999999N9999999N9+01111+99999999999ADDAA199004091AY161999GF107991999999999999999999KA1999N+00611MW1101
0043011990999991951072912004+68750+023550FM-12+038299999V0200701N002619999999N9999999N9+01221+99999999999ADDAY141999GF108991999999999999999999MW1101
0043011990999991951072918004+68750+023550FM-12+038299999V0200801N002619999999N9999999N9+01221+99999999999ADDAY101999GF108991999999999999999999MW1101
0067011990999991951073007004+68750+023550FM-12+038299999V0202801N004619999999N9999999N9+01111+99999999999ADDAA199024091AY161999GF108991999999999999999999KA1999N+00891MW1631
0043011990999991951073012004+68750+023550FM-12+038299999V0202301N002619999999N9999999N9+01281+99999999999ADDAY181999GF105991999999999999999999MW1001
0043011990999991951073018004+68750+023550FM-12+038299999V0202801N00261220001CN9999999N9+01221+99999999999ADDAY101999GF104991999999999999999999MW1001
0067011990999991951073107004+68750+023550FM-12+038299999V0202101N00461220001CN9999999N9+01391+99999999999ADDAA199003091AY161999GF102991999999999999999999KA1999N+00721MW1001
0043011990999991951073112004+68750+023550FM-12+038299999V0202201N00261220001CN9999999N9+01391+99999999999ADDAY101999GF103991999999999999999999MW1001
0043011990999991951073118004+68750+023550FM-12+038299999V0203101N00101220001CN9999999N9+01001+99999999999ADDAY101999GF104991999999999999999999MW1001
0056011990999991951080107004+68750+023550FM-12+038299999V0203301N002619999999N9999999N9+01111+99999999999ADDAY141999GF105991999999999999999999KA1999N+00281MW1001
0043011990999991951080112004+68750+023550FM-12+038299999V0202201N00261220001CN9999999N9+01391+99999999999ADDAY101999GF104991999999999999999999MW1001
0043011990999991951080118004+68750+023550FM-12+038299999V0201101N00261220001CN9999999N9+01281+99999999999ADDAY101999GF103991999999999999999999MW1001
0056011990999991951080207004+68750+023550FM-12+038299999V0201601N006719999999N9999999N9+01501+99999999999ADDAY141999GF106991999999999999999999KA1999N+00781MW1001
0043011990999991951080212004+68750+023550FM-12+038299999V0201801N004619999999N9999999N9+01611+99999999999ADDAY101999GF106991999999999999999999MW1051
0043011990999991951080218004+68750+023550FM-12+038299999V0201501N002619999999N9999999N9+01611+99999999999ADDAY141999GF108991999999999999999999MW1101
0067011990999991951080307004+68750+023550FM-12+038299999V0201201N002619999999N9999999N9+01111+99999999999ADDAA199001091AY161999GF108991999999999999999999KA1999N+01111MW1101
0043011990999991951080312004+68750+023550FM-12+038299999V0201801N004619999999N9999999N9+01281+99999999999ADDAY161999GF108991999999999999999999MW1631
