0057028640999991952010100004+65783+024583FM-12+001599999V0201401N00311004501CN0140001N9+00001+00001098791ADDAY121999GF108991071071004501021999MD1810261+9999MW1711
0087028640999991952010106004+65783+024583FM-12+001599999V0201401N00311004501CN0400001N9+00001+00001098401ADDAA199001091AY171999GF108991081071004501999999IA1319KA1999N+00001MD1810131+9999MW1021
0057028640999991952010112004+65783+024583FM-12+001599999V0200501N00211004501CN0400001N9-00111-00111098311ADDAY121999GF107991071051004501999999MD1810041+9999MW1011
0076028640999991952010118004+65783+024583FM-12+001599999V0203601N00311004501CN0400001N9-00221-00221098321ADDAY121999GF106991061051004501001001IA1009KA1999M+00111MD1310011+9999MW1011
0057028640999991952010200004+65783+024583FM-12+001599999V0209991C00001004501CN0400001N9-00391-00501098681ADDAY121999GF108991081051004501999999MD1310151+9999MW1021
0087028640999991952010206004+65783+024583FM-12+001599999V0201401N00261030001CN0140001N9-00281-00281098951ADDAA199000691AY111999GF108991031051004501021999IA1319KA1999N-00721MD1310101+9999MW1711
0057028640999991952010212004+65783+024583FM-12+001599999V0201601N00211001501CN0050001N9-00111-00111099151ADDAY171999GF108991081061001501999999MD1310071+9999MW1221
0087028640999991952010218004+65783+024583FM-12+001599999V0201601N00411007801CN0200001N9-00111-00221099211ADDAA199001091AY121999GF108991081051008001999999IA1319KA1999M+00001MD1310041+9999MW1021
0057028640999991952010300004+65783+024583FM-12+001599999V0200901N00211001501CN0200001N9-00111-00221099121ADDAY121999GF108991081061001501999999MD1810121+9999MW1021
0087028640999991952010306004+65783+024583FM-12+001599999V0200501N00311004501CN0034001N9-00221-00221098941ADDAA199000691AY171999GF108991081051004501999999IA1319KA1999N-00221MD1810111+9999MW1711
0087028640999991952010318004+65783+024583FM-12+001599999V0200201N00311004501CN0014001N9-00281-00391098951ADDAA199001091AY181999GF108991051051004501021999IA1319KA1999M-00111MD1310031+9999MW1731
0057028640999991952010400004+65783+024583FM-12+001599999V0200201N00211004501CN0200001N9-00391-00611099181ADDAY121999GF108991061051004501071999MD1310101+9999MW1021
0087028640999991952010406004+65783+024583FM-12+001599999V0200201N00311030001CN0140001N9-00501-00611099551ADDAA199000391AY121999GF106991021051004501071999IA1319KA1999N-00501MD1310191+9999MW1701
0057028640999991952010412004+65783+024583FM-12+001599999V0200201N00151030001CN0600001N9-00501-00611100041ADDAY121999GF107991021051004501071999MD1310251+9999MW1021
0087028640999991952010418004+65783+024583FM-12+001599999V0201201N00101030001CN0600001N9-00611-00721100481ADDAA199000391AY121999GF106991041051004501071999IA1319KA1999M-00281MD1310191+9999MW1011
0057028640999991952010500004+65783+024583FM-12+001599999V0200201N00211004501CN0600001N9-00501-00611101001ADDAY121999GF108991081051004501999999MD1310251+9999MW1021
0095028640999991952010518004+65783+024583FM-12+001599999V0200201N00211220001CN0400001N9-01221-01391102291ADDAY101999GF101991999001999999051001IA1319KA1999M-00281MD1310121+9999MW1031EQDQ01+000002SCOTLC
0095028640999991952010606004+65783+024583FM-12+001599999V0201401N00311220001CN0200001N9-01001-01111101641ADDAY111999GF106991999001999999071001IA1319KA1999N-01721MD1810371+9999MW1031EQDQ01+000002SCOTLC
0076028640999991952010612004+65783+024583FM-12+001599999V0201801N00821002401CN0004001N9-00611-00721100822ADDAY171999GF108991051071002501021999MD1810421+9999MW1751EQDQ01+100823APOSLP
0057028640999991952010700004+65783+024583FM-12+001599999V0202001N00621002401CN0044001N9+00001+00001099911ADDAY121999GF108991061071002501021999MD1810241+9999MW1731
0057028640999991952010712004+65783+024583FM-12+001599999V0202901N00151000151CN0034001N9+00001+00001999999ADDAY171999GF108991081061000251999999MD1810151+9999MW1681
0087028640999991952010718004+65783+024583FM-12+001599999V0202901N00511220001CN0400001N9-00111-00501099191ADDAA199000591AY111999GF101991011051004501001001IA1319KA1999M+00111MD1310201+9999MW1021
0076028640999991952010800004+65783+024583FM-12+001599999V0202301N00101220001CN0600001N9-00721-00781099721ADDAY101999GF101991999001999999041001MD1310201+9999MW1021EQDQ01+000002SCOTLC
0087028640999991952010806004+65783+024583FM-12+001599999V0202301N00511030001CN0200001N9+00001+00001099451ADDAA199001091AY171999GF107991021051004501071999IA1319KA1999N-00891MD1810171+9999MW1021
0057028640999991952010812004+65783+024583FM-12+001599999V0202701N00311220001CN0600001N9-00281-00501099851ADDAY111999GF102991021051004501071001MD1310101+9999MW1011
0081028640999991952010818004+65783+024583FM-12+001599999V0202001N00151007801CN0600001N9-00501-00611999999ADDAY121999GF107991051061008001071999IA1319KA1999M+00001MW1031EQDQ01+000002APC3  
0057028640999991952010900004+65783+024583FM-12+001599999V0201401N00461220001CN0600001N9-00221-00281099521ADDAY121999GF108991001001999999021999MD1810351+9999MW1031
0057028640999991952010912004+65783+024583FM-12+001599999V0201801N01851001501CN0070001N9+00111+00001097841ADDAY151999GF108991071071001501021999MD1810431+9999MW1561
0073028640999991952010918004+65783+024583FM-12+001599999V0202001N01131004501CN0140001N9+00221+00221097791ADDAA199000391AY161999GF108991071071004501021999IA1319KA1999M+00221MW1601
0095028640999991952011006004+65783+024583FM-12+001599999V0201801N00311220001CN0400001N9-00221-00221097301ADDAY101999GF101991999001004501041001IA1319KA1999N-00221MD1810111+9999MW1021EQDQ01+000002SCOTLC
0057028640999991952011012004+65783+024583FM-12+001599999V0202001N00311220001CN0600001N9-00281-00281097321ADDAY111999GF104991021051004501041011MD1990041+9999MW1031
0057028640999991952011100004+65783+024583FM-12+001599999V0202001N00511002401CN0200001N9-00221-00221097181ADDAY171999GF107991071051002501999999MD1810011+9999MW1021
0087028640999991952011106004+65783+024583FM-12+001599999V0201801N00411002401CN0200001N9-00111-00221097191ADDAA199001091AY171999GF108991081051002501999999IA1009KA1999N-00221MD1210011+9999MW1701
0057028640999991952011112004+65783+024583FM-12+001599999V0202501N00151000151CN0004001N9-00611-00721097461ADDAY121999GF109991091051000251999999MD1310161+9999MW1451
0087028640999991952011118004+65783+024583FM-12+001599999V0203201N00101030001CN0140001N9-00781-00891097601ADDAA199003091AY171999GF107991031051001501071999IA1319KA1999M-00611MD1310081+9999MW1711
0057028640999991952011200004+65783+024583FM-12+001599999V0209991C00001002401CN0200001N9-00891-01001097791ADDAY121999GF108991081051002501999999MD1310051+9999MW1021
0087028640999991952011206004+65783+024583FM-12+001599999V0200201N00101030001CN0110001N9-00721-00781097891ADDAA199000391AY171999GF108991031051002501071999IA1319KA1999N-01001MD1310071+9999MW1711
0057028640999991952011212004+65783+024583FM-12+001599999V0200201N00211004501CN0400001N9-00611-00721098051ADDAY171999GF107991061051004501071999MD1310111+9999MW1701
0106028640999991952011218004+65783+024583FM-12+001599999V0200201N00261220001CN0160001N9-01281-01501098221ADDAA199000691AY121999GF104991999001999999071001IA1319KA1999M-00611MD1310091+9999MW1021EQDQ01+000002SCOTLC
0057028640999991952011300004+65783+024583FM-12+001599999V0200201N00261220001CN0008001N9-01281-01501098611ADDAY111999GF107991001001999999071999MD1310161+9999MW1101
0076028640999991952011306004+65783+024583FM-12+001599999V0203601N00151004501CN0110001N9-00891-01001098801ADDAY121999GF107991071051004501999999IA1209KA1999N-01501MD1310211+9999MW1021
0057028640999991952011312004+65783+024583FM-12+001599999V0203401N00311030001CN0200001N9-01111-01281099211ADDAY121999GF107991031051004501071999MD1310201+9999MW1011
0076028640999991952011318004+65783+024583FM-12+001599999V0203601N00101220001CN0400001N9-01281-01501099621ADDAY111999GF102991011051004501071001IA1319KA1999M-00891MD1310141+9999MW1011
0076028640999991952011400004+65783+024583FM-12+001599999V0203601N00151220001CN0400001N9-01221-01391099861ADDAY101999GF101991999001999999071001MD1310141+9999MW1021EQDQ01+000002SCOTLC
0057028640999991952011500004+65783+024583FM-12+001599999V0209991C00001001501CN0004001N9-01281-01501099811ADDAY141999GF108991081061001501999999MD1810161+9999MW1441
0087028640999991952011506004+65783+024583FM-12+001599999V0201801N00621004501CN0050001N9-00891-01001099411ADDAA199000691AY171999GF108991081061004501999999IA1319KA1999N-01721MD1810331+9999MW1711
0057028640999991952011512004+65783+024583FM-12+001599999V0201601N00511002401CN0110001N9-00721-00781098911ADDAY171999GF108991081051002501999999MD1810271+9999MW1221
0087028640999991952011518004+65783+024583FM-12+001599999V0201301N00571002401CN0050001N9+99999+99999098331ADDAA199000391AY181999GF108991081051002501999999IA1319KA1999M-00501MD1810261+9999MW1711
0057028640999991952011600004+65783+024583FM-12+001599999V0201401N00621002401CN0140001N9-00391-00501097941ADDAY121999GF108991081061002501999999MD1810201+9999MW1021
0087028640999991952011606004+65783+024583FM-12+001599999V0200901N00511220001CN0050001N9-00721-00891097711ADDAA199000691AY171999GF108991001001999999071071IA1319KA1999N-00781MD1810061+9999MW1711
0057028640999991952011612004+65783+024583FM-12+001599999V0200701N00361030001CN0080001N9-00781-00891097841ADDAY171999GF108991031051004501021999MD1310101+9999MW1711
0087028640999991952011618004+65783+024583FM-12+001599999V0200401N00361030001CN0200001N9-01001-01391098141ADDAA199001091AY171999GF106991031051004501071999IA1319KA1999M-00501MD1310121+9999MW1221
0076028640999991952011700004+65783+024583FM-12+001599999V0200201N00261220001CN0600001N9-01221-01391098581ADDAY111999GF102991999001999999061001MD1310221+9999MW1011EQDQ01+000002SCOTLC
0095028640999991952011706004+65783+024583FM-12+001599999V0200201N00151220001CN0400001N9-01611-01721099001ADDAY111999GF106991999001999999071001IA1319KA1999N-01611MD1310221+9999MW1011EQDQ01+000002SCOTLC
0076028640999991952011712004+65783+024583FM-12+001599999V0200201N00211220001CN0600001N9-01781-01891099541ADDAY111999GF102991999001999999071001MD1310261+9999MW1011EQDQ01+000002SCOTLC
0076028640999991952011718004+65783+024583FM-12+001599999V0200201N00151220001CN0200001N9-02111+99999099991ADDAY101999GF100991001001999999001001IA1319KA1999M-01611MD1310241+9999MW1021
0057028640999991952011800004+65783+024583FM-12+001599999V0209991C00001220001CN0400001N9-02391+99999100421ADDAY101999GF100991001001999999001001MD1310201+9999MW1021
0076028640999991952011806004+65783+024583FM-12+001599999V0209991C00001000151CN0008001N9-01611-01781100861ADDAY141999GF109991091999000251999999IA1319KA1999N-02721MD1310191+9999MW1421
0087028640999991952011818004+65783+024583FM-12+001599999V0209991C00001220001CN0090001N9-01501-01721101681ADDAA199000391AY171999GF108991001001999999011999IA1319KA1999M-01281MD1310211+9999MW1221
0057028640999991952011900004+65783+024583FM-12+001599999V0201301N00101004501CN0200001N9-01221-01281101881ADDAY171999GF108991081051004501999999MD1210091+9999MW1031
0087028640999991952011906004+65783+024583FM-12+001599999V0201801N00411004501CN0080001N9-01111-01221102051ADDAA199000391AY171999GF108991081051004501999999IA1319KA1999N-01501MD1310081+9999MW1711
0057028640999991952011912004+65783+024583FM-12+001599999V0201801N00311030001CN0110001N9-00781-01001102481ADDAY171999GF108991031051004501071999MD1310171+9999MW1711
0087028640999991952011918004+65783+024583FM-12+001599999V0209991C00001002401CN0160001N9+99999+99999102841ADDAA199000391AY171999GF108991081061002501999999IA1319KA1999M-00781MD1310171+9999MW1711
0057028640999991952012000004+65783+024583FM-12+001599999V0209991C00001004501CN0200001N9-01001-01111103081ADDAY121999GF108991081051004501999999MD1310071+9999MW1021
0076028640999991952012006004+65783+024583FM-12+001599999V0209991C00001220001CN0400001N9-02391+99999103181ADDAY101999GF100991001001999999001001IA1009KA1999N-02501MD1310021+9999MW1021
0057028640999991952012012004+65783+024583FM-12+001599999V0209991C00001030001CN0034001N9-01781-02001103171ADDAY121999GF107991041061000751071999MD1990031+9999MW1021
0113028640999991952012018004+65783+024583FM-12+001599999V0200201N00101220001CN0200001N9-02221+99999103191ADDAY111999GF103991999001999999071001IA1319KA1999M-01111MW1011EQDQ01+000002SCOTLCQ02+000042APCTENQ03+000062APC3  
0062028640999991952012200004+65783+024583FM-12+001599999V0202301N00211220001CN0400001N9-00891-01001102251ADDAY101999GF102991999001999999071001MW1011EQDQ01+000002SCOTLC
0095028640999991952012206004+65783+024583FM-12+001599999V0202501N00311220001CN0400001N9-00611-00781101991ADDAY101999GF102991999001999999071001IA1319KA1999N-00891MD1810091+9999MW1021EQDQ01+000002SCOTLC
0057028640999991952012300004+65783+024583FM-12+001599999V0202201N00101220001CN0400001N9-00781-00781101411ADDAY111999GF106991001001999999071071MD1810111+9999MW1031
0050028640999991952012306004+65783+024583FM-12+001599999V02099999999999999999N0400001N9-00891-01001101021ADDAY111999IA1319KA1999N-01501MD1810231+9999MW1011
0076028640999991952012400004+65783+024583FM-12+001599999V0202301N00311220001CN0400001N9-00611-00721099791ADDAY111999GF103991999001999999071001MD1810211+9999MW1021EQDQ01+000002SCOTLC
0057028640999991952012512004+65783+024583FM-12+001599999V0201801N00621004501CN0024001N9-00391-00501099611ADDAY121999GF108991061071004501021999MD1010011+9999MW1721
0057028640999991952012600004+65783+024583FM-12+001599999V0201801N00511004501CN0200001N9-00501-00611099521ADDAY171999GF108991061051004501021999MD1310051+9999MW1221
0087028640999991952012606004+65783+024583FM-12+001599999V0201801N00311007801CN0024001N9-00221-00391099751ADDAA199001091AY171999GF108991081071008001999999IA1319KA1999N-00501MD1310071+9999MW1721
0057028640999991952012612004+65783+024583FM-12+001599999V0202001N00411030001CN0160001N9-00391-00501099991ADDAY171999GF105991041051004501071001MD1310041+9999MW1011
0087028640999991952012906004+65783+024583FM-12+001599999V0200901N00151004501CN0200001N9-00721-00781100521ADDAA199000591AY171999GF108991051071004501021999IA1319KA1999N-00891MD1810021+9999MW1711
0078028640999991952012912004+65783+024583FM-12+001599999V0200401N00101004501CN0200001N9-00781-00891100541ADDAY121999GF108991061051004501021999MW1021EQDQ01+000022APCTENQ02+000002APC3  
0078028640999991952020100004+65783+024583FM-12+001599999V0201601N00211004501CN0200001N9-00611-00721100291ADDAY171999GF108991081061004501999999MW1021EQDQ01+000032APCTENQ02+000002APC3  
0087028640999991952020106004+65783+024583FM-12+001599999V0201101N00211004501CN0140001N9-00721-00721100151ADDAA199000391AY171999GF108991081061004501999999IA1319KA1999N-00781MD1810071+9999MW1221
0057028640999991952020112004+65783+024583FM-12+001599999V0201101N00211004501CN0140001N9-00721-00781100141ADDAY171999GF107991071051004501999999MD1990021+9999MW1701
0108028640999991952020118004+65783+024583FM-12+001599999V0201601N00721004501CN0050001N9-00281-00391100141ADDAA199001091AY171999GF108991071071004501021999IA1319KA1999M-00281MW1731EQDQ01+000032APCTENQ02+000002APC3  
0057028640999991952020200004+65783+024583FM-12+001599999V0201401N00411004501CN0400001N9-00391-00501100261ADDAY121999GF108991081051004501999999MD1310081+9999MW1021
0087028640999991952020206004+65783+024583FM-12+001599999V0201101N00411004501CN0400001N9-00391-00721100061ADDAA199000391AY121999GF108991081051004501999999IA1319KA1999N-00611MD1810111+9999MW1021
0057028640999991952020212004+65783+024583FM-12+001599999V0201401N00621004501CN0014001N9-00391-00501100011ADDAY171999GF108991061071004501021999MD1810031+9999MW1731
0087028640999991952020218004+65783+024583FM-12+001599999V0201401N00461004501CN0200001N9-00281-00501999999ADDAA199001091AY171999GF108991081071004501999999IA1319KA1999M-00281MD1310021+9999MW1221
0057028640999991952020300004+65783+024583FM-12+001599999V0201401N00411004501CN0200001N9-00281-00391099941ADDAY121999GF108991081051004501999999MD1810021+9999MW1021
0087028640999991952020306004+65783+024583FM-12+001599999V0201401N00361002401CN0110001N9-00391-00391099991ADDAA199000591AY171999GF108991081071002501999999IA1319KA1999N-00391MD1310021+9999MW1021
0057028640999991952020312004+65783+024583FM-12+001599999V0201401N00311004501CN0160001N9-00391-00391999999ADDAY121999GF107991071051004501999999MD1310051+9999MW1031
0076028640999991952020318004+65783+024583FM-12+001599999V0201401N00311007801CN0160001N9-00281-00501100191ADDAY121999GF108991081051008001999999IA1319KA1999M-00281MD1310061+9999MW1021
0057028640999991952020400004+65783+024583FM-12+001599999V0201401N00511004501CN0110001N9-00281-00281100321ADDAY171999GF108991081051004501999999MD1310071+9999MW1711
0087028640999991952020406004+65783+024583FM-12+001599999V0201601N00411002401CN0160001N9-00281-00501100401ADDAA199000391AY121999GF108991081051002501999999IA1319KA1999N-00391MD1110221+9999MW1021
0057028640999991952020412004+65783+024583FM-12+001599999V0201801N00261002401CN0110001N9-00281-00391100741ADDAY121999GF108991081051002501999999MD1310091+9999MW1021
0073028640999991952020418004+65783+024583FM-12+001599999V0201601N00311001501CN0034001N9-00391-00391100891ADDAA199000691AY171999GF108991081061001501999999IA1319KA1999M-00281MW1711
0057028640999991952020500004+65783+024583FM-12+001599999V0201601N00261001501CN0110001N9-00281-00281101191ADDAY171999GF108991081061001501999999MD1310131+9999MW1021
0087028640999991952020506004+65783+024583FM-12+001599999V0201801N00101000601CN0046001N9-00391-00391101441ADDAA199000691AY121999GF108991081061000751999999IA1319KA1999N-00391MD1310101+9999MW1021
0057028640999991952020512004+65783+024583FM-12+001599999V0202301N00211001501CN0200001N9-00281-00501101741ADDAY121999GF108991081061001501999999MD1310071+9999MW1021
0076028640999991952020518004+65783+024583FM-12+001599999V0202501N00211001501CN0140001N9-00501-00611101941ADDAY121999GF108991081061001501999999IA1319KA1999M-00111MD1310111+9999MW1021
0057028640999991952020600004+65783+024583FM-12+001599999V0202701N00151000151CN0004001N9-00781-01001102001ADDAY121999GF109991091999000251999999MD1810021+9999MW1471
0076028640999991952020606004+65783+024583FM-12+001599999V0202001N01131000151CN0002001N9-01281-01501101821ADDAY141999GF109991091999000251999999IA1319KA1999N-01281MD1810151+9999MW1431
0057028640999991952020612004+65783+024583FM-12+001599999V0202001N00411002401CN0110001N9-00501-00501101441ADDAY141999GF108991081001002501999999MD1810261+9999MW1241
0043028640999991952020618004+65783+024583FM-12+001599999V0201601N00621007801CN0140001N9-00611-00721100551ADDAY121999GF108991081081008001999999MW1021
0076028640999991952020700004+65783+024583FM-12+001599999V0201401N00931004501CN0010001N9-00611-00721099451ADDAY131999GF108991061071004501021999MD1810662+9999MW1731EQDQ01+000662APC3  
0106028640999991952020706004+65783+024583FM-12+001599999V0201401N00821220001CN0014001N9-00501-00611098492ADDAA199000591AY131999GF108991001001999999021999IA1319KA1999N-00721MD1810401+9999MW1731EQDQ01+098493APOSLP
0087028640999991952020718004+65783+024583FM-12+001599999V0202001N00311220001CN0160001N9-00501-00611097981ADDAA199001091AY171999GF108991001001999999011999IA1319KA1999M-00221MD1210021+9999MW1021
0076028640999991952020800004+65783+024583FM-12+001599999V0202001N00311220001CN0600001N9-00781-00891098041ADDAY111999GF102991999001999999041001MD1310061+9999MW1011EQDQ01+000002SCOTLC
0097028640999991952020806004+65783+024583FM-12+001599999V0202001N00511004501CN0200001N9-00221-00391098001ADDAY121999GF108991081051004501999999IA1319KA1999N-00891MW1701EQDQ01+000032APCTENQ02+000002APC3  
0057028640999991952020812004+65783+024583FM-12+001599999V0201401N00361002401CN0050001N9-00221-00281098041ADDAY171999GF108991071051002501021999MD1990011+9999MW1711
0087028640999991952020818004+65783+024583FM-12+001599999V0201401N00411001501CN0034001N9-00111-00221098161ADDAA199002091AY171999GF108991081051001501999999IA1319KA1999M-00111MD1310051+9999MW1711
0057028640999991952020900004+65783+024583FM-12+001599999V0200901N00311220001CN0200001N9-00221-00281098411ADDAY121999GF108991001001999999071999MD1310141+9999MW1011
0057028640999991952020912004+65783+024583FM-12+001599999V0200401N00361004501CN0050001N9-00281-00391098891ADDAY171999GF108991061071004501021999MD1310131+9999MW1731
0106028640999991952020918004+65783+024583FM-12+001599999V0200401N00261004501CN0140001N9-00281-00391099001ADDAA199002091AY171999GF108991999071004501021999IA1319KA1999M-00111MD1310071+9999MW1711EQDQ01+000082SCOTLC
0057028640999991952021000004+65783+024583FM-12+001599999V0200201N00311004501CN0400001N9-00391-00501098911ADDAY121999GF108991081051004501999999MD1990071+9999MW1021
0087028640999991952021006004+65783+024583FM-12+001599999V0200401N00361004501CN0010001N9-00281-00391098601ADDAA199001091AY171999GF108991071071004501021999IA1319KA1999N-00281MD1810161+9999MW1731
0087028640999991952021018004+65783+024583FM-12+001599999V0200201N001519999999N0044001N9-00501-00501099441ADDAA199001091AY171999GF109991021071004501021999IA1319KA1999M-00281MD1310061+9999MW1711
0057028640999991952021100004+65783+024583FM-12+001599999V0201401N00101004501CN0070001N9-00611-00721098751ADDAY171999GF108991051071004501021999MD1310171+9999MW1701
0087028640999991952021106004+65783+024583FM-12+001599999V0201801N00571004501CN0140001N9-00281-00391099181ADDAA199001091AY171999GF108991061071004501021999IA1319KA1999N-00721MD1310221+9999MW1221
0057028640999991952021112004+65783+024583FM-12+001599999V0201801N00821002401CN0034001N9-00391-00391099711ADDAY131999GF108991061051002501021999MD1310221+9999MW1711
0087028640999991952021118004+65783+024583FM-12+001599999V0201801N00621004501CN0160001N9-00391-00611100221ADDAA199000691AY171999GF108991081051004501999999IA1319KA1999M-00221MD1310271+9999MW1701
0057028640999991952021200004+65783+024583FM-12+001599999V0201401N00411004501CN0400001N9-00611-00721999999ADDAY121999GF108991081051004501999999MD1310071+9999MW1021
0076028640999991952021206004+65783+024583FM-12+001599999V0201401N00311220001CN0400001N9-00781-01001100511ADDAY111999GF104991041051008001001011IA1319KA1999N-00891MD1310071+9999MW1011
0057028640999991952021212004+65783+024583FM-12+001599999V0200501N00311030001CN0400001N9-01001-01111999999ADDAY111999GF107991021051008001071071MD1810131+9999MW1031
0087028640999991952021218004+65783+024583FM-12+001599999V0200201N00311220001CN0034001N9-00781-00891099971ADDAA199000591AY171999GF108991001001999999021999IA1319KA1999M-00781MD1810201+9999MW1731
0057028640999991952021300004+65783+024583FM-12+001599999V0200401N00211220001CN0200001N9-01221-01281099791ADDAY121999GF108991001001999999071999MD1810101+9999MW1021
0087028640999991952021306004+65783+024583FM-12+001599999V0200501N00261030001CN0044001N9-00781-00891099591ADDAA199000391AY171999GF108991021051008001021999IA1319KA1999N-01221MD1810071+9999MW1711
0057028640999991952021312004+65783+024583FM-12+001599999V0201101N00261004501CN0200001N9-00891-01001099881ADDAY171999GF108991061071004501021999MD1310201+9999MW1711
0087028640999991952021318004+65783+024583FM-12+001599999V0201801N00311002401CN0160001N9-00891-01111100161ADDAA199000591AY121999GF108991061051002501021999IA1319KA1999M-00721MD1310131+9999MW1701
0057028640999991952021400004+65783+024583FM-12+001599999V0201801N00411004501CN0200001N9-00781-00891100381ADDAY121999GF108991071051004501021999MD1310081+9999MW1701
0108028640999991952021406004+65783+024583FM-12+001599999V0201801N00211004501CN0200001N9-00781-01001100421ADDAA199000591AY121999GF107991061051004501021999IA1319KA1999N-01221MW1701EQDQ01+000042APCTENQ02+000072APC3  
0057028640999991952021412004+65783+024583FM-12+001599999V0202001N00461004501CN0200001N9-00611-00781100741ADDAY121999GF107991051051004501071999MD1310161+9999MW1011
0087028640999991952021418004+65783+024583FM-12+001599999V0201801N00411030001CN0400001N9-00501-00611100941ADDAA199000691AY111999GF108991041051004501071999IA1319KA1999M-00501MD1310111+9999MW1031
0057028640999991952021500004+65783+024583FM-12+001599999V0201601N00311004501CN0400001N9-00721-00781101151ADDAY121999GF108991081051004501999999MD1310091+9999MW1021
0087028640999991952021506004+65783+024583FM-12+001599999V0201801N00411001501CN0080001N9-00391-00501101221ADDAA199000391AY171999GF108991071071001501021999IA1319KA1999N-00781MD1310071+9999MW1711
0057028640999991952021512004+65783+024583FM-12+001599999V0201801N00721001501CN0020001N9-00391-00501101361ADDAY171999GF108991081061001501999999MD1310031+9999MW1731
0087028640999991952021518004+65783+024583FM-12+001599999V0201801N00821001501CN0034001N9-00281-00391101191ADDAA199000591AY171999GF108991081061001501999999IA1319KA1999M-00281MD1810101+9999MW1731
0057028640999991952021600004+65783+024583FM-12+001599999V0201801N00821004501CN0160001N9-00391-00611101041ADDAY171999GF108991081051004501999999MD1810091+9999MW1361
0087028640999991952021606004+65783+024583FM-12+001599999V0201401N00821004501CN0110001N9-00891-01111100951ADDAA199000391AY131999GF108991081051004501999999IA1319KA1999N-00891MD1810041+9999MW1361
0057028640999991952021612004+65783+024583FM-12+001599999V0201401N00771004501CN0034001N9-00891-01111100791ADDAY171999GF108991081051004501999999MD1810131+9999MW1731
0087028640999991952021618004+65783+024583FM-12+001599999V0201401N00931004501CN0034001N9-00501-00501100381ADDAA199000391AY171999GF108991081051004501999999IA1319KA1999M-00501MD1610171+9999MW1731
0078028640999991952021700004+65783+024583FM-12+001599999V0202001N00621004501CN0140001N9-00221-00281100511ADDAY171999GF107991061051004501071999MW1011EQDQ01+000042APCTENQ02+000172APC3  
0106028640999991952021706004+65783+024583FM-12+001599999V0201801N00151220001CN0110001N9-01001-01221100881ADDAA199000391AY111999GF108991999001999999041001IA1319KA1999N-01111MD1310201+9999MW1011EQDQ01+000002SCOTLC
0057028640999991952021712004+65783+024583FM-12+001599999V0209991C00001220001CN0034001N9-00781-01001101121ADDAY141999GF103991031061999999001001MD1310071+9999MW1281
0043028640999991952021800004+65783+024583FM-12+001599999V0209991C00001002401CN0110001N9-00721-00721101391ADDAY121999GF108991081051002501999999MW1021
0076028640999991952021818004+65783+024583FM-12+001599999V0209991C00001000601CN0044001N9-01221-01281101321ADDAY141999GF108991081061000751999999IA1319KA1999M-00611MD1810131+9999MW1021
0057028640999991952021900004+65783+024583FM-12+001599999V0202001N00311001501CN0110001N9-00721-00781101221ADDAY121999GF108991081061001501999999MD1810031+9999MW1021
0076028640999991952021906004+65783+024583FM-12+001599999V0201401N00411004501CN0110001N9+99999+99999999999ADDAY121999GF108991061051004501021999IA1319KA1999N-00721MD1810031+9999MW1701
0057028640999991952021912004+65783+024583FM-12+001599999V0201801N00721024001CN0200001N9-00501-00611100901ADDAY121999GF108991081001999999071999MD1810131+9999MW1021
0087028640999991952021918004+65783+024583FM-12+001599999V0201601N00721004501CN0024001N9-00611-00721100711ADDAA199000691AY171999GF108991081061004501999999IA1319KA1999M-00501MD1810061+9999MW1731
0057028640999991952022100004+65783+024583FM-12+001599999V0201301N01031000151CN0006001N9-00111-00111098581ADDAY171999GF109991091999000251999999MD1810351+9999MW1731
0108028640999991952022106004+65783+024583FM-12+001599999V0209999999999030001CN0140001N9-00611-00781098511ADDAA199002091AY171999GF108991041051004501021999IA1319KA1999N-00611MW1221EQDQ01+000042APCTENQ02+000182APC3  
0057028640999991952022112004+65783+024583FM-12+001599999V0209991C00001004501CN0200001N9-00391-00391098801ADDAY171999GF108991051051004501021999MD1310151+9999MW1221
0087028640999991952022118004+65783+024583FM-12+001599999V0201601N00411002401CN0140001N9-00501-00611099281ADDAA199000591AY171999GF108991061071002501021999IA1319KA1999M-00111MD1310231+9999MW1561
0057028640999991952022200004+65783+024583FM-12+001599999V0201401N00151030001CN0400001N9-00611-00781099681ADDAY121999GF108991041051004501021999MD1310191+9999MW1021
0087028640999991952022206004+65783+024583FM-12+001599999V0201101N00211002401CN0200001N9-00611-00721100051ADDAA199000691AY171999GF108991071051002501021999IA1319KA1999N-00721MD1310211+9999MW1221
0057028640999991952022212004+65783+024583FM-12+001599999V0200901N00101007801CN0400001N9-00501-00721100311ADDAY171999GF107991051051008001071999MD1310071+9999MW1031
0087028640999991952022218004+65783+024583FM-12+001599999V0209991C00001004501CN0200001N9-00501-00611100481ADDAA199000391AY121999GF108991081051004501999999IA1319KA1999M-00391MD1310091+9999MW1021
0087028640999991952022306004+65783+024583FM-12+001599999V0201101N00211004501CN0024001N9-00611-00611100661ADDAA199001091AY171999GF108991061071004501021999IA1319KA1999N-00611MD1310131+9999MW1731
0074028640999991952022318004+65783+024583FM-12+001599999V0201401N00211002401CN0160001N9-00611-00721101411ADDAA199000391AY171999GF108991081061002501999999IA1319MD1310221+9999MW1021
0057028640999991952022400004+65783+024583FM-12+001599999V0201101N00101220001CN0050001N9-00781-00891101711ADDAY111999GF108991001001999999021999MD1310131+9999MW1711
0087028640999991952022406004+65783+024583FM-12+001599999V0209991C00001001501CN0110001N9-00721-00891101921ADDAA199000691AY121999GF108991081061001501999999IA1319KA1999N-01001MD1310111+9999MW1031
0057028640999991952022412004+65783+024583FM-12+001599999V0209991C00001000151CN0004001N9-00721-00781102211ADDAY121999GF109991091999000251999999MD1310131+9999MW1451
0076028640999991952022418004+65783+024583FM-12+001599999V0202301N00101000601CN0044001N9-00781-00891102521ADDAY141999GF108991081061000751999999IA1319KA1999M-00611MD1310171+9999MW1021
0057028640999991952022500004+65783+024583FM-12+001599999V0209991C00001002401CN0110001N9-00781-00891102641ADDAY121999GF108991081061002501999999MD1310051+9999MW1021
0076028640999991952022506004+65783+024583FM-12+001599999V0202001N00311001501CN0200001N9-00721-00781102711ADDAY121999GF108991081061001501999999IA1319KA1999N-00891MD1310041+9999MW1021
0057028640999991952022512004+65783+024583FM-12+001599999V0201601N00411002401CN0200001N9-00721-00781102601ADDAY171999GF108991061051002501021999MD1810091+9999MW1711
0087028640999991952022518004+65783+024583FM-12+001599999V0201801N00671002401CN0200001N9-00611-00781102281ADDAA199000591AY171999GF108991071071002501021999IA1319KA1999M-00501MD1810091+9999MW1561
0057028640999991952022600004+65783+024583FM-12+001599999V0201401N00411002401CN0200001N9-00611-00611102141ADDAY151999GF108991071071002501021999MD1810111+9999MW1561
0087028640999991952022606004+65783+024583FM-12+001599999V0201401N00411001501CN0044001N9-00781-00891101921ADDAA199000591AY121999GF108991081061001501999999IA1319KA1999N-01001MD1810101+9999MW1561
0087028640999991952022618004+65783+024583FM-12+001599999V0201401N00311004501CN0110001N9-00721-00781102061ADDAA199000591AY151999GF108991081061004501999999IA1319KA1999M-00611MD1310141+9999MW1561
0057028640999991952022700004+65783+024583FM-12+001599999V0201401N00211004501CN0034001N9-00721-00781102151ADDAY171999GF108991061071004501021999MD1310021+9999MW1731
0057028640999991952022712004+65783+024583FM-12+001599999V0201701N00411007801CN0010001N9-00611-00721102181ADDAY171999GF108991081061008001999999MD1710071+9999MW1731
0057028640999991952022800004+65783+024583FM-12+001599999V0201801N00621001501CN0050001N9-00721-00781101811ADDAY121999GF108991081061001501999999MD1810111+9999MW1021
0087028640999991952022806004+65783+024583FM-12+001599999V0201401N00311000601CN0200001N9-00611-00721101521ADDAA199010091AY171999GF108991081061000751999999IA1319KA1999N-00721MD1810061+9999MW1221
0087028640999991952022818004+65783+024583FM-12+001599999V0202901N00101030001CN0110001N9-00501-00611101441ADDAA199000691AY141999GF108991031051004501071999IA1319KA1999M-00391MD1310021+9999MW1031
0057028640999991952022900004+65783+024583FM-12+001599999V0209991C00001220001CN0400001N9-01781-02001101361ADDAY101999GF100991001001999999001001MD1810081+9999MW1021
0076028640999991952022906004+65783+024583FM-12+001599999V0209991C00001220001CN0034001N9-02111+99999101091ADDAY111999GF103991021051999999071001IA1319KA1999N-02281MD1810171+9999MW1011
0076028640999991952022912004+65783+024583FM-12+001599999V0201801N00461220001CN0400001N9-00611-01111100851ADDAY111999GF102991999001999999071001MD1810161+9999MW1011EQDQ01+000002SCOTLC
0087028640999991952022918004+65783+024583FM-12+001599999V0201801N00671004501CN0024001N9-00721-00721100511ADDAA199000391AY171999GF108991071071004501021999IA1319KA1999M-00501MD1810141+9999MW1731
0057028640999991952030100004+65783+024583FM-12+001599999V0201601N00571004501CN0060001N9-00611-00721100421ADDAY171999GF108991071071004501021999MD1810191+9999MW1731
0095028640999991952030106004+65783+024583FM-12+001599999V0201601N00511004501CN0140001N9-00781-00891100481ADDAA199000591AY171999GF108991071071004501021999IA1319MW1711EQDQ01+000042APCTENQ02+000062APC3  
0057028640999991952030112004+65783+024583FM-12+001599999V0201101N00101004501CN0110001N9-00721-00891100711ADDAY171999GF108991061071004501021999MD1310121+9999MW1701
0087028640999991952030118004+65783+024583FM-12+001599999V0209991C00001004501CN0140001N9-01001-01111101021ADDAA199000391AY171999GF106991061051004501071999IA1319KA1999M-00721MD1310151+9999MW1011
0057028640999991952030200004+65783+024583FM-12+001599999V0209991C00001220001CN0400001N9-01281-01391101361ADDAY111999GF100991001001999999001001MD1310161+9999MW1011
0076028640999991952030206004+65783+024583FM-12+001599999V0209991C00001220001CN0060001N9-01891-02111101441ADDAY111999GF104991031061001501001041IA1319KA1999N-02001MD1310031+9999MW1011
0076028640999991952030218004+65783+024583FM-12+001599999V0200201N00211220001CN0160001N9-01221-01391101391ADDAY121999GF108991001001999999011999IA1319KA1999M-01001MD1810031+9999MW1031
0057028640999991952030300004+65783+024583FM-12+001599999V0203601N00211220001CN0044001N9-01281-01501101241ADDAY121999GF108991001001999999021999MD1810081+9999MW1711
0106028640999991952030306004+65783+024583FM-12+001599999V0209991C00001220001CN0050001N9-01501-01721101291ADDAA199001091AY171999GF102991999001999999071001IA1319KA1999N-01721MD1310081+9999MW1701EQDQ01+000002SCOTLC
0057028640999991952030312004+65783+024583FM-12+001599999V0201801N00411220001CN0080001N9-01221-01391101791ADDAY121999GF108991001001999999021999MD1310251+9999MW1021
0087028640999991952030318004+65783+024583FM-12+001599999V0201401N00511030001CN0034001N9-00721-00891101971ADDAA199000691AY171999GF108991031051004501021999IA1319KA1999M-00721MD1310031+9999MW1731
0057028640999991952030400004+65783+024583FM-12+001599999V0201601N00821030001CN0060001N9-00721-00781102201ADDAY171999GF108991031051004501021999MD1310121+9999MW1711
0087028640999991952030406004+65783+024583FM-12+001599999V0201601N00771220001CN0024001N9-00781-01001102461ADDAA199000391AY171999GF108991001001999999021999IA1319KA1999N-00891MD1310141+9999MW1731
0057028640999991952030412004+65783+024583FM-12+001599999V0201801N00671004501CN0024001N9-00721-00781102691ADDAY171999GF108991061071004501021999MD1310081+9999MW1751
0087028640999991952030418004+65783+024583FM-12+001599999V0201801N00721220001CN0200001N9-00391-00611102741ADDAA199000591AY171999GF108991001001999999021999IA1319KA1999M-00281MD1810021+9999MW1711
0057028640999991952030500004+65783+024583FM-12+001599999V0202001N00771030001CN0034001N9-00281-00281102741ADDAY171999GF108991041071004501021999MD1710021+9999MW1731
0108028640999991952030506004+65783+024583FM-12+001599999V0202001N00571002401CN0050001N9-00281-00391102771ADDAA199001091AY171999GF108991061071002501021999IA1319KA1999N-00391MW1221EQDQ01+000042APCTENQ02+000042APC3  
0057028640999991952030512004+65783+024583FM-12+001599999V0201001N00511004501CN0110001N9-00281-00391102791ADDAY121999GF108991081061004501999999MD1010011+9999MW1021
0108028640999991952030518004+65783+024583FM-12+001599999V0202001N00571002401CN0110001N9-00221-00281102771ADDAA199000391AY121999GF108991081061002501999999IA1319KA1999M-00111MW1021EQDQ01+000032APCTENQ02+000002APC3  
0057028640999991952030600004+65783+024583FM-12+001599999V0202001N00621004501CN0200001N9-00221-00281102741ADDAY121999GF108991081061004501999999MD1810041+9999MW1021
0097028640999991952030606004+65783+024583FM-12+001599999V0202301N00311004501CN0200001N9-00221-00391102691ADDAY121999GF108991081051004501999999IA1319KA1999N-00391MW1021EQDQ01+000032APCTENQ02+000002APC3  
0057028640999991952030612004+65783+024583FM-12+001599999V0202601N00211002401CN0200001N9-00281-00391102891ADDAY121999GF108991061071002501021999MD1310111+9999MW1021
0087028640999991952030618004+65783+024583FM-12+001599999V0209991C00001030001CN0050001N9-00391-00501103041ADDAA199000591AY171999GF108991041051002501021999IA1319KA1999M-00221MD1310101+9999MW1701
0057028640999991952030700004+65783+024583FM-12+001599999V0209991C00001004501CN0110001N9-00611-00611103121ADDAY111999GF107991071051004501001001MD1310071+9999MW1011
0108028640999991952030706004+65783+024583FM-12+001599999V0209991C00001001501CN0200001N9-00611-00721103181ADDAA199000691AY121999GF108991081051001501999999IA1319KA1999N-00781MW1021EQDQ01+000022APCTENQ02+000002APC3  
0057028640999991952030712004+65783+024583FM-12+001599999V0202001N001019999999N0110001N9-00281-00391103121ADDAY121999GF106991031051017501999999MD1810051+9999MW1011
0087028640999991952030718004+65783+024583FM-12+001599999V0201601N00311002401CN0110001N9-00281-00281102791ADDAA199000691AY171999GF108991081051002501999999IA1319KA1999M-00281MD1810201+9999MW1711
0057028640999991952030800004+65783+024583FM-12+001599999V0202301N00311220001CN0200001N9-00611-00721102391ADDAY121999GF106991001001999999001061MD1810211+9999MW1011
0076028640999991952030806004+65783+024583FM-12+001599999V0202001N00411220001CN0400001N9-00721-00721102001ADDAY111999GF107991001001999999071999IA1319KA1999N-01001MD1810201+9999MW1021
0057028640999991952030812004+65783+024583FM-12+001599999V0202501N00311220001CN0400001N9-00281-00721101791ADDAY121999GF108991001001999999021999MD1810071+9999MW1021
0097028640999991952030818004+65783+024583FM-12+001599999V0209991C00001220001CN0400001N9-00391-00611101681ADDAY121999GF108991001001999999071999IA1319KA1999M-00281MW1021EQDQ01+000042APCTENQ02+000032APC3  
0057028640999991952030900004+65783+024583FM-12+001599999V0209991C00001004501CN0400001N9-00501-00611101551ADDAY171999GF108991081051004501999999MD1810011+9999MW1021
0087028640999991952030906004+65783+024583FM-12+001599999V0209991C00001004501CN0400001N9-00611-00721101461ADDAA199001091AY121999GF107991071051004501999999IA1319KA1999N-00721MD1810011+9999MW1021
0057028640999991952030912004+65783+024583FM-12+001599999V0201801N00151007801CN0400001N9-00221-00281101491ADDAY111999GF107991061051008001071999MD1410001+9999MW1011
0076028640999991952030918004+65783+024583FM-12+001599999V0201801N00151004501CN0400001N9-00391-00501101481ADDAY111999GF107991071051004501999999IA1319KA1999M-00111MD1810031+9999MW1031
0057028640999991952031000004+65783+024583FM-12+001599999V0201801N00411004501CN0400001N9-00391-00501101381ADDAY121999GF108991081051004501999999MD1810081+9999MW1031
0076028640999991952031006004+65783+024583FM-12+001599999V0201801N00461012301CN0110001N9-00281-00391101141ADDAY121999GF108991051051012501021999IA1319KA1999N-00501MD1810111+9999MW1871
0057028640999991952031012004+65783+024583FM-12+001599999V0202001N00411004501CN0200001N9-00221-00281101051ADDAY121999GF108991071051004501071999MD1810041+9999MW1031
0087028640999991952031018004+65783+024583FM-12+001599999V0202001N00361000151CN0002001N9-00391-00391100861ADDAA199000691AY121999GF109991091999000251999999IA1319KA1999M-00221MD1810071+9999MW1471
0057028640999991952031100004+65783+024583FM-12+001599999V0202001N00211000151CN0002001N9-00391-00391100601ADDAY141999GF109991091999000251999999MD1810151+9999MW1451
0076028640999991952031106004+65783+024583FM-12+001599999V0201801N00261000151CN0002001N9-00391-00391100281ADDAY121999GF109991091999000251999999IA1319KA1999N-00391MD1810131+9999MW1471
0057028640999991952031112004+65783+024583FM-12+001599999V0201801N00211000151CN0008001N9-00281-00281100121ADDAY141999GF109991091999000251999999MD1710051+9999MW1491
0035028640999991952031118004+65783+024583FM-12+001599999V0200201N001019999999N0024001N9-00281-00281100041ADDGF108991081061999999999999IA1319
0078028640999991952031200004+65783+024583FM-12+001599999V0203601N00101007801CN0200001N9-00391-00391100031ADDAY121999GF107991071051008001001001MW1011EQDQ01+000032APCTENQ02+000002APC3  
0087028640999991952031206004+65783+024583FM-12+001599999V0203601N00311004501CN0070001N9-00611-00721099881ADDAA199001091AY171999GF108991061051004501021999IA1209KA1999N-00611MD1810101+9999MW1711
0057028640999991952031212004+65783+024583FM-12+001599999V0200201N00211030001CN0200001N9-00391-00611099151ADDAY171999GF108991021051002501021999MD1810101+9999MW1711
0087028640999991952031218004+65783+024583FM-12+001599999V0200201N00261002401CN0200001N9-00501-00611099601ADDAA199000391AY171999GF108991051051002501021999IA1319KA1999M-00391MD1310011+9999MW1711
0057028640999991952031312004+65783+024583FM-12+001599999V0200201N00671220001CN0600001N9-00501-00891101121ADDAY101999GF101991011011012501001001MD1310241+9999MW1031
0095028640999991952031318004+65783+024583FM-12+001599999V0203601N99999220001CN0600001N9-00891-01221101481ADDAY101999GF101991999001999999071001IA1319KA1999M-00391MD1310161+9999MW1021EQDQ01+000002SCOTLC
0057028640999991952031400004+65783+024583FM-12+001599999V0209991C00001220001CN0600001N9-01501-02001101651ADDAY101999GF100991001001999999001001MD1310061+9999MW1021
0076028640999991952031406004+65783+024583FM-12+001599999V0209991C00001220001CN0200001N9-02391+99999101491ADDAY111999GF106991001001999999071021IA1319KA1999N-02501MD1810111+9999MW1021
0057028640999991952031412004+65783+024583FM-12+001599999V0202001N00311220001CN0200001N9-00781-01221101191ADDAY121999GF108991001001999999071071MD1810161+9999MW1021
0076028640999991952031418004+65783+024583FM-12+001599999V0201401N00311220001CN0160001N9-00891-01221100851ADDAY121999GF108991001001999999071999IA1319KA1999M-00781MD1810121+9999MW1021
0057028640999991952031500004+65783+024583FM-12+001599999V0201401N00411030001CN0200001N9-00891-01221100791ADDAY121999GF108991031051002501021999MD1810061+9999MW1031
0057028640999991952031512004+65783+024583FM-12+001599999V0209999999999030001CN0400001N9-00721-01221100711ADDAY111999GF106991011051008001071001MD1810031+9999MW1031
0087028640999991952031518004+65783+024583FM-12+001599999V0201101N00571030001CN0200001N9-01001-01281100611ADDAA199000691AY121999GF108991031051008001071999IA1319KA1999M-00721MD1810031+9999MW1701
0057028640999991952031600004+65783+024583FM-12+001599999V0201201N00571004501CN0200001N9-01111-01221100511ADDAY171999GF108991061051004501021999MD1810031+9999MW1711
0106028640999991952031606004+65783+024583FM-12+001599999V0201201N00411220001CN0400001N9-01281-01611100611ADDAA199000691AY111999GF102991999001999999041001IA1009KA1999N-01391MD1310081+9999MW1011EQDQ01+000002SCOTLC
0076028640999991952031612004+65783+024583FM-12+001599999V0201401N00461220001CN0400001N9-00781-01391100861ADDAY111999GF107991999001999999071001MD1310121+9999MW1031EQDQ01+000002SCOTLC
0076028640999991952031618004+65783+024583FM-12+001599999V0201401N00101220001CN0400001N9-01001+99999101221ADDAY111999GF107991001001999999071999IA1319KA1999M-00721MD1310231+9999MW1021
0076028640999991952031700004+65783+024583FM-12+001599999V0201601N00411220001CN0400001N9-01391-02001101481ADDAY121999GF102991999001999999071001MD1310111+9999MW1011EQDQ01+000002SCOTLC
0087028640999991952031706004+65783+024583FM-12+001599999V0201601N00261030001CN0400001N9-01611-02111101751ADDAA199000691AY171999GF107991031051008001071999IA1319KA1999N-01721MD1310131+9999MW1701
0057028640999991952031712004+65783+024583FM-12+001599999V0201801N00311220001CN0600001N9-01221-01501102001ADDAY101999GF103991011051008001041001MD1310101+9999MW1021
0076028640999991952031718004+65783+024583FM-12+001599999V0201801N00211004501CN0600001N9-01111-01281102111ADDAY121999GF108991061051004501071999IA1319KA1999M-01001MD1310101+9999MW1021
0057028640999991952031800004+65783+024583FM-12+001599999V0201101N00101004501CN0600001N9-01221-01501102351ADDAY121999GF108991081051004501999999MD1310131+9999MW1021
0057028640999991952031812004+65783+024583FM-12+001599999V0209991C00001220001CN0600001N9-00501-01221102981ADDAY101999GF101991001001999999001011MD1310081+9999MW1021
0076028640999991952031818004+65783+024583FM-12+001599999V0209991C00001220001CN0160001N9-01721-01781103091ADDAY101999GF101991001001999999001011IA1319KA1999M-00501MD1310051+9999MW1001
0057028640999991952031900004+65783+024583FM-12+001599999V0209991C00001220001CN0700001N9-01611-02001103241ADDAY101999GF100991001001999999001001MD1310071+9999MW1021
0076028640999991952031906004+65783+024583FM-12+001599999V0201401N00101220001CN0600001N9-01501-01781103311ADDAY101999GF100991001001999999001001IA1319KA1999N-02281MD1310061+9999MW1021
0057028640999991952031912004+65783+024583FM-12+001599999V0209991C00001220001CN0400001N9-00891-01391103221ADDAY101999GF100991001001999999001001MD1810091+9999MW1021
0095028640999991952031918004+65783+024583FM-12+001599999V0209991C00001220001CN0060001N9-01721-01891103021ADDAY101999GF101991999001999999041001IA1319KA1999M-00891MD1810071+9999MW1021EQDQ01+000002SCOTLC
0057028640999991952032000004+65783+024583FM-12+001599999V0209991C00001220001CN0200001N9-02111+99999102921ADDAY101999GF100991001001999999001001MD1810061+9999MW1021
0076028640999991952032006004+65783+024583FM-12+001599999V0209991C00001220001CN0400001N9-02781+99999102691ADDAY101999GF100991001001999999001001IA1319KA1999N-02891MD1810061+9999MW1021
0076028640999991952032012004+65783+024583FM-12+001599999V0200201N00101220001CN0400001N9-00612-01221101762ADDAY111999GF101991011051008001001001MD1810271+9999MW1011EQDQ01+101763APOSLP
0095028640999991952032018004+65783+024583FM-12+001599999V0200201N00101220001CN0400001N9-01001-01611101981ADDAY101999GF102991999001999999041001IA1319KA1999M-00391MD1810131+9999MW1031EQDQ01+000002SCOTLC
0057028640999991952032100004+65783+024583FM-12+001599999V0200201N00211220001CN0400001N9-01611-01781101661ADDAY101999GF100991001001999999001001MD1810051+9999MW1021
0124028640999991952032106004+65783+024583FM-12+001599999V0200201N00211220001CN0200001N9-01281-01501101861ADDAA199000591AY171999GF106991999001999999071001IA1319KA1999N-01611MW1711EQDQ01+000002SCOTLCQ02+000042APCTENQ03+000032APC3  
0076028640999991952032118004+65783+024583FM-12+001599999V0209991C00001220001CN0600001N9-01721-01891102381ADDAY101999GF100991001001999999001001IA1319KA1999M-00611MD1310131+9999MW1021
0057028640999991952032200004+65783+024583FM-12+001599999V0200201N00211220001CN0600001N9-02111+99999102411ADDAY101999GF100991001001999999001001MD1810021+9999MW1021
0076028640999991952032206004+65783+024583FM-12+001599999V0200201N00101220001CN0400001N9-01721-01891102211ADDAY111999GF106991001001999999071061IA1319KA1999N-02221MD1810121+9999MW1011
0057028640999991952032212004+65783+024583FM-12+001599999V0201201N00101220001CN0400001N9-00611-01221101761ADDAY111999GF101991011051008001001001MD1810271+9999MW1011
0095028640999991952032218004+65783+024583FM-12+001599999V0203601N00101220001CN0400001N9-01111-01281101511ADDAY111999GF101991999001999999041001IA1319KA1999M-00611MD1810041+9999MW1021EQDQ01+000002SCOTLC
0057028640999991952032300004+65783+024583FM-12+001599999V0200201N00211220001CN0400001N9-01501-01721101421ADDAY101999GF100991001001999999001001MD1810071+9999MW1021
0087028640999991952032306004+65783+024583FM-12+001599999V0200201N00461004501CN0034001N9-01111-01281101011ADDAA199000691AY111999GF108991081051004501999999IA1319KA1999N-01611MD1810261+9999MW1731
0078028640999991952032312004+65783+024583FM-12+001599999V0200901N00511030001CN0400001N9-00501-00781100941ADDAY171999GF105991021011008001071001MW1011EQDQ01+000032APCTENQ02+000002APC3  
0106028640999991952032318004+65783+024583FM-12+001599999V0200901N00411220001CN0400001N9-00781-01391101211ADDAA199000691AY111999GF106991999001999999071001IA1319KA1999M-00501MD1310191+9999MW1031EQDQ01+000002SCOTLC
0057028640999991952032400004+65783+024583FM-12+001599999V0200501N00411220001CN0110001N9-01111-01391101371ADDAY111999GF108991001001999999071999MD1310061+9999MW1701
0087028640999991952032406004+65783+024583FM-12+001599999V0200501N00311220001CN0200001N9-01281-01501101811ADDAA199000691AY111999GF104991001001999999071011IA1319KA1999N-01391MD1310071+9999MW1701
0057028640999991952032412004+65783+024583FM-12+001599999V0200901N00361030001CN0200001N9-00781-01221101541ADDAY171999GF108991031051004501021999MD1310011+9999MW1711
0087028640999991952032418004+65783+024583FM-12+001599999V0200401N00671220001CN0400001N9-00721-01611101651ADDAA199000391AY121999GF107991001001999999071999IA1319KA1999M-00721MD1310081+9999MW1021
0057028640999991952032500004+65783+024583FM-12+001599999V0200201N00311220001CN0400001N9-01281-01891101781ADDAY101999GF100991001001999999001001MD1310041+9999MW1021
0095028640999991952032506004+65783+024583FM-12+001599999V0200201N00361220001CN0400001N9-01391-01781101881ADDAY111999GF102991999001999999041001IA1319KA1999N-01611MD1310041+9999MW1021EQDQ01+000002SCOTLC
0076028640999991952032512004+65783+024583FM-12+001599999V0200201N00361220001CN0600001N9-00391-01111101691ADDAY101999GF101991999001999999041001MD1810151+9999MW1021EQDQ01+000002SCOTLC
0087028640999991952032518004+65783+024583FM-12+001599999V0200201N00821030001CN0050001N9+99999+99999999999ADDAA199000391AY181999GF106991041081002501071999IA1319KA1999M-00281MD1810351+9999MW1861
0106028640999991952032606004+65783+024583FM-12+001599999V0200401N00461220001CN0400001N9-01611-02001101801ADDAA199000691AY111999GF102991999001999999071001IA1319KA1999N-02001MD1990051+9999MW1021EQDQ01+000002SCOTLC
0057028640999991952032612004+65783+024583FM-12+001599999V0200201N00621220001CN0600001N9+99999+99999101621ADDAY101999GF100991001001999999001001MD1810091+9999MW1011
0076028640999991952032618004+65783+024583FM-12+001599999V0200201N00311220001CN0600001N9-00781-01391101551ADDAY121999GF108991001001999999071999IA1319KA1999M-00391MD1610011+9999MW1021
0057028640999991952032700004+65783+024583FM-12+001599999V0200201N00411220001CN0600001N9-01221-01501101491ADDAY111999GF100991001001999999001001MD1810041+9999MW1011
0076028640999991952032706004+65783+024583FM-12+001599999V0200201N00311220001CN0600001N9-01281-01501101611ADDAY111999GF104991001001999999041011IA1319KA1999N-01501MD1310081+9999MW1011
0057028640999991952032712004+65783+024583FM-12+001599999V0203601N00311220001CN0600001N9-00721-01001101681ADDAY111999GF102991001001999999001011MD1310031+9999MW1031
0095028640999991952032718004+65783+024583FM-12+001599999V0203601N00101220001CN0600001N9-01111-01501101831ADDAY111999GF101991999001999999041001IA1319KA1999M-00611MD1310071+9999MW1021EQDQ01+000002SCOTLC
0057028640999991952032800004+65783+024583FM-12+001599999V0200101N00261220001CN0600001N9-01611-01781101841ADDAY101999GF100991001001999999001001MD1310021+9999MW1021
0108028640999991952032806004+65783+024583FM-12+001599999V0200201N00361220001CN0400001N9-01001-01221101721ADDAA199000691AY111999GF106991001001999999041011IA1009KA1999N-01781MW1021EQDQ01+000032APCTENQ02+000002APC3  
0076028640999991952032818004+65783+024583FM-12+001599999V0200201N00151220001CN0200001N9-00781-01221101541ADDAY111999GF107991001001999999071999IA1319KA1999M-00391MD1810051+9999MW1021
0057028640999991952032900004+65783+024583FM-12+001599999V0209991C00001220001CN0400001N9-01111-01281101211ADDAY111999GF107991001001999999071999MD1810141+9999MW1701
0057028640999991952032912004+65783+024583FM-12+001599999V0202001N00211220001CN0100001N9-00891-01221100821ADDAY101999GF101991011011012501001001MD1810121+9999MW1021
0074028640999991952032918004+65783+024583FM-12+001599999V0209991C00001220001CN0034001N9-01611-02001100621ADDAA199000691AY101999GF100991001001999999001001IA1319MD1810131+9999MW1021
0057028640999991952033000004+65783+024583FM-12+001599999V0209991C00001220001CN0006001N9-02221+99999100531ADDAY101999GF100991001001999999001001MD1810041+9999MW1461
0097028640999991952033006004+65783+024583FM-12+001599999V0209991C00001220001CN0060001N9-02001+99999100601ADDAY141999GF100991001001999999001001IA1319KA1999N-02391MW1021EQDQ01+000032APCTENQ02+000002APC3  
0057028640999991952033012004+65783+024583FM-12+001599999V0203601N00311220001CN0200001N9-00501-01221100581ADDAY111999GF102991001001999999001051MD1810021+9999MW1031
0095028640999991952033018004+65783+024583FM-12+001599999V0209991C00001220001CN0400001N9-01281-01391100611ADDAY101999GF101991999001999999041001IA1319KA1999M-00391MD1310041+9999MW1011EQDQ01+000002SCOTLC
0057028640999991952033100004+65783+024583FM-12+001599999V0200201N00101220001CN0600001N9-02001-02221100741ADDAY101999GF100991001001999999001001MD1310051+9999MW1021
0076028640999991952033106004+65783+024583FM-12+001599999V0209991C00001220001CN0110001N9-01781-02001100811ADDAY141999GF108991001001999999001011IA1319KA1999N-02281MD1310061+9999MW1281
0057028640999991952033112004+65783+024583FM-12+001599999V0209991C00001220001CN0110001N9-00611-01001100821ADDAY111999GF106991001001999999071051MD1310031+9999MW1051
0076028640999991952033118004+65783+024583FM-12+001599999V0209991C00001220001CN0060001N9-01111-01281100811ADDAY121999GF106991001001999999071051IA1319KA1999M-00391MD1310031+9999MW1011
0076028640999991952040100004+65783+024583FM-12+001599999V0200201N00211220001CN0200001N9-01611-01781100861ADDAY101999GF101991999001999999999001MD1310051+9999MW1021EQDQ01+000002SCOTLC
0076028640999991952040106004+65783+024583FM-12+001599999V0200501N00101220001CN0200001N9-01001-01221100861ADDAY111999GF108991001001999999071071IA1319KA1999N-01781MD1210031+9999MW1031
0057028640999991952040112004+65783+024583FM-12+001599999V0200901N00311220001CN0080001N9-00501-00721100851ADDAY171999GF108991001001999999071071MD1810031+9999MW1711
0087028640999991952040118004+65783+024583FM-12+001599999V0200701N00261220001CN0200001N9-00501-00781100651ADDAA199000691AY121999GF108991001001999999071999IA1319KA1999M-00391MD1810071+9999MW1021
0087028640999991952040206004+65783+024583FM-12+001599999V0200501N00511030001CN0140001N9-00781-01221099811ADDAA199000691AY171999GF108991031051004501021999IA1319KA1999N-01001MD1810331+9999MW1711
0057028640999991952040212004+65783+024583FM-12+001599999V0200501N00511030001CN0070001N9-00781-01111099281ADDAY171999GF108991021071004501021999MD1810171+9999MW1711
0087028640999991952040218004+65783+024583FM-12+001599999V0200201N00211220001CN0110001N9-01001-01221099181ADDAA199000591AY171999GF107991001001999999071999IA1319KA1999M-00501MD1810101+9999MW1221
0087028640999991952040306004+65783+024583FM-12+001599999V0203401N00361220001CN0110001N9-01221-01221098961ADDAA199000391AY171999GF107991001001999999071999IA1319KA1999N-01391MD1310021+9999MW1701
0057028640999991952040312004+65783+024583FM-12+001599999V0203201N00721075001CN0200001N9-00721-01281099221ADDAY121999GF108991041011008001001071MD1310051+9999MW1361
0076028640999991952040318004+65783+024583FM-12+001599999V0203401N00211220001CN0600001N9-00721-00891099461ADDAY111999GF107991001001999999071999IA1319KA1999M-00611MD1310121+9999MW1021
0057028640999991952040400004+65783+024583FM-12+001599999V0203301N00411220001CN0600001N9-00721-00781099621ADDAY111999GF100991001001999999001001MD1310111+9999MW1011
0076028640999991952040406004+65783+024583FM-12+001599999V0203201N00411220001CN0600001N9-00611-01111999999ADDAY101999GF101991001001999999001011IA1319KA1999N-01001MD1310181+9999MW1031
0057028640999991952040412004+65783+024583FM-12+001599999V0203201N00621220001CN0600001N9+00001-00781100211ADDAY101999GF101991011011012501001001MD1310071+9999MW1361
0076028640999991952040418004+65783+024583FM-12+001599999V0203201N00311220001CN0600001N9-00281-01221100481ADDAY111999GF101991011041008001001001IA1319KA1999M+00111MD1310131+9999MW1021
0076028640999991952040500004+65783+024583FM-12+001599999V0209991C00001220001CN0600001N9-00891-01111100771ADDAY101999GF101991999001999999041001MD1310141+9999MW1031EQDQ01+000002SCOTLC
0076028640999991952040506004+65783+024583FM-12+001599999V0209991C00001220001CN0400001N9-01281-01721100891ADDAY111999GF107991001001999999001071IA1319KA1999N-02111MD1310061+9999MW1031
0057028640999991952040512004+65783+024583FM-12+001599999V0201801N00211220001CN0400001N9-00391-00891100981ADDAY111999GF107991001001999999071071MD1310041+9999MW1021
0087028640999991952040518004+65783+024583FM-12+001599999V0201601N00151004501CN0400001N9-00281-00501101011ADDAA199000691AY121999GF108991061051004501021999IA1319KA1999M-00221MD1310041+9999MW1701
0057028640999991952040600004+65783+024583FM-12+001599999V0209991C00001004501CN0400001N9-00281-00611101261ADDAY121999GF107991071051004501999999MD1310161+9999MW1021
0057028640999991952040612004+65783+024583FM-12+001599999V0202001N00101030001CN0400001N9+00111-00281101811ADDAY111999GF107991021051008001071999MD1310061+9999MW1021
0076028640999991952040618004+65783+024583FM-12+001599999V0209991C00001220001CN0200001N9-00221-00221101791ADDAY111999GF105991001001999999071011IA1319KA1999M+00221MD1810011+9999MW1031
0057028640999991952040700004+65783+024583FM-12+001599999V0201401N00311030001CN0400001N9-00111-00221101661ADDAY121999GF107991021051004501071999MD1810081+9999MW1021
0095028640999991952040706004+65783+024583FM-12+001599999V0201801N00311220001CN0400001N9-00111-00221101491ADDAY111999GF101991999001999999071001IA1319KA1999N-00721MD1810041+9999MW1011EQDQ01+000002SCOTLC
0076028640999991952040718004+65783+024583FM-12+001599999V0201801N00721220001CN0140001N9+00391-00111101341ADDAY121999GF108991001001999999071999IA1319KA1999M+00391MD1810111+9999MW1021
0057028640999991952040800004+65783+024583FM-12+001599999V0201801N00621220001CN0140001N9+00281-00111101021ADDAY121999GF108991001001999999071999MD1810221+9999MW1021
0087028640999991952040806004+65783+024583FM-12+001599999V0201601N00621001501CN0014001N9+00111+00001100551ADDAA199003091AY171999GF108991071071001501021999IA1319KA1999N+00001MD1810271+9999MW1691
0057028640999991952040812004+65783+024583FM-12+001599999V0201801N00511001501CN0044001N9+00221+00111100091ADDAY161999GF108991081061001501999999MD1810171+9999MW1631
0108028640999991952040818004+65783+024583FM-12+001599999V0202201N00511004501CN0600001N9+00221+00001100061ADDAA199006091AY171999GF106991051051004501071001IA1009KA1999M+00391MW1011EQDQ01+000042APCTENQ02+000102APC3  
0057028640999991952040900004+65783+024583FM-12+001599999V0202801N00411220001CN0600001N9+00001+99999100541ADDAY101999GF100991001001999999001001MD1310251+9999MW1111
0076028640999991952040906004+65783+024583FM-12+001599999V0202001N00311220001CN0600001N9-00221-00281100751ADDAY101999GF102991001001999999041011IA1209KA1999N-00281MD1310141+9999MW1021
0076028640999991952040912004+65783+024583FM-12+001599999V0202301N00311220001CN0600001N9+00221-00111101181ADDAY101999GF101991999001999999041001MD1310161+9999MW1021EQDQ01+000002SCOTLC
0095028640999991952040918004+65783+024583FM-12+001599999V0209991C00001220001CN0400001N9+00001-00221101401ADDAY101999GF102991999001999999071001IA1209KA1999M+00391MD1310081+9999MW1021EQDQ01+000002SCOTLC
0057028640999991952041000004+65783+024583FM-12+001599999V0202701N00101220001CN0400001N9-00111-00501101611ADDAY111999GF106991001001999999071061MD1310081+9999MW1021
0076028640999991952041006004+65783+024583FM-12+001599999V0202701N00261220001CN0400001N9-00111-00501101851ADDAY111999GF103991001001999999071011IA1209KA1999N-00391MD1310121+9999MW1011
0057028640999991952041012004+65783+024583FM-12+001599999V0202001N00311220001CN0600001N9+00281-00111102041ADDAY101999GF102991001001999999041051MD1310091+9999MW1021
0076028640999991952041018004+65783+024583FM-12+001599999V0201401N00211220001CN0600001N9+00111-00111101981ADDAY101999GF106991001001999999071071IA1209KA1999M+00281MD1810041+9999MW1031
0076028640999991952041100004+65783+024583FM-12+001599999V0201401N00211220001CN0400001N9-00221-00391101821ADDAY101999GF103991999001999999071001MD1810091+9999MW1021EQDQ01+000002SCOTLC
0062028640999991952041106004+65783+024583FM-12+001599999V0201801N00311220001CN0400001N9+00001-00111101681ADDAY111999GF106991001001999999001061IA1209KA1999N-00391MW1011
0057028640999991952041112004+65783+024583FM-12+001599999V0201801N00411220001CN0200001N9+00221+00001101551ADDAY111999GF102991001001999999001011MD1710071+9999MW1051
0097028640999991952041118004+65783+024583FM-12+001599999V0201801N00211220001CN0160001N9+00001+00001101451ADDAY111999GF106991001001999999001011IA1209KA1999M+00221MW1021EQDQ01+000022APCTENQ02+000002APC3  
0057028640999991952041200004+65783+024583FM-12+001599999V0201801N00311220001CN0200001N9+00001-00111101381ADDAY111999GF108991001001999999001071MD1810041+9999MW1031
0057028640999991952041212004+65783+024583FM-12+001599999V0202001N00511000151CN0008001N9+00111+00111101061ADDAY141999GF109991091999000251999999MD1810101+9999MW1451
0076028640999991952041218004+65783+024583FM-12+001599999V0202001N00151000151CN0002001N9+00001+00001100851ADDAY141999GF109991091999000251999999IA1209KA1999M+00221MD1810071+9999MW1451
0078028640999991952041300004+65783+024583FM-12+001599999V0209991C00001220001CN0110001N9-00111-00111100911ADDAY141999GF100991001001999999001001MW1281EQDQ01+000032APCTENQ02+000002APC3  
0095028640999991952041306004+65783+024583FM-12+001599999V0209991C00001220001CN0600001N9+00111+00001101061ADDAY101999GF102991999001999999071001IA1209KA1999N-00281MD1310131+9999MW1021EQDQ01+000002SCOTLC
0057028640999991952041312004+65783+024583FM-12+001599999V0202001N00261220001CN0600001N9+00501+00001101141ADDAY101999GF100991001001999999001001MD1310061+9999MW1021
0097028640999991952041318004+65783+024583FM-12+001599999V0202001N00101220001CN0600001N9+00001+00001101141ADDAY101999GF106991001001999999071999IA1199KA1999M+00781MW1031EQDQ01+000042APCTENQ02+000012APC3  
0076028640999991952041400004+65783+024583FM-12+001599999V0202701N00211220001CN0600001N9-00111-00221101181ADDAY111999GF101991999001999999041001MD1310021+9999MW1011EQDQ01+000002SCOTLC
0057028640999991952041412004+65783+024583FM-12+001599999V0202001N00211220001CN0600001N9+00281+00001101391ADDAY121999GF107991001001999999071061MD1310071+9999MW1021
0076028640999991952041418004+65783+024583FM-12+001599999V0202001N00211220001CN0400001N9+00221+00001101171ADDAY111999GF106991001001999999071011IA1199KA1999M+00501MD1990131+9999MW1011
0087028640999991952041506004+65783+024583FM-12+001599999V0202001N00411030001CN0200001N9+00221+00111100581ADDAA199000391AY141999GF108991031061004501021999IA1199KA1999N+00111MD1810241+9999MW1611
0057028640999991952041512004+65783+024583FM-12+001599999V0202301N00571030001CN0400001N9+00391+00001100041ADDAY101999GF107991031081008001071999MD1810121+9999MW1031
0087028640999991952041518004+65783+024583FM-12+001599999V0202901N00411220001CN0600001N9+00281-00501100321ADDAA199000691AY111999GF101991011041012501001001IA1199KA1999M+00721MD1310081+9999MW1011
0087028640999991952041606004+65783+024583FM-12+001599999V0202901N00871004501CN0400001N9+00221-00281099441ADDAA199000691AY111999GF107991051081004501071999IA1309KA1999N-00221MD1810181+9999MW1851
0076028640999991952041612004+65783+024583FM-12+001599999V0203601N00511007801CN0600001N9+00391-00501100221ADDAY121999GF108991081081008001999999MD1310542+9999MW1281EQDQ01+000542APC3  
0076028640999991952041618004+65783+024583FM-12+001599999V0203601N00621220001CN0600001N9+00111-00391100991ADDAY101999GF102991021031008001001001IA1199KA1999M+00391MD1310361+9999MW1031
0076028640999991952041700004+65783+024583FM-12+001599999V0203201N00261220001CN0400001N9-00111-00221101401ADDAY101999GF101991999001999999071001MD1310201+9999MW1021EQDQ01+000002SCOTLC
0095028640999991952041706004+65783+024583FM-12+001599999V0203201N00411220001CN0600001N9-00111-00281101481ADDAY101999GF102991999001999999041001IA1199KA1999N-00281MD1310041+9999MW1011EQDQ01+000002SCOTLC
0057028640999991952041712004+65783+024583FM-12+001599999V0203601N00411220001CN0400001N9+00281-00721101401ADDAY111999GF102991021011008001001001MD1810051+9999MW1021
0076028640999991952041718004+65783+024583FM-12+001599999V0203201N00211220001CN0600001N9+00221-00501101101ADDAY111999GF102991021041012501001001IA1199KA1999M+00501MD1810091+9999MW1011
0076028640999991952041800004+65783+024583FM-12+001599999V0209991C00001220001CN0600001N9-00501-00611101391ADDAY111999GF102991999001999999041001MD1310081+9999MW1021EQDQ01+000002SCOTLC
0097028640999991952041806004+65783+024583FM-12+001599999V0209991C00001030001CN0600001N9-00221-00611999999ADDAY111999GF106991031051012501071999IA1199KA1999N-00611MW1021EQDQ01+000032APCTENQ02+000002APC3  
0057028640999991952041812004+65783+024583FM-12+001599999V0202301N00361030001CN0600001N9+00001-00281101241ADDAY111999GF106991011021012501041011MD1810111+9999MW1021
0076028640999991952041818004+65783+024583FM-12+001599999V0202301N00101030001CN0400001N9-00221-00281100951ADDAY111999GF106991011081004501071999IA1199KA1999M+00111MD1810171+9999MW1021
0076028640999991952041906004+65783+024583FM-12+001599999V0200201N00211030001CN0400001N9-00281-00501101051ADDAY111999GF107991011051008001071061IA1199KA1999N-00891MD1310101+9999MW1011
0057028640999991952041912004+65783+024583FM-12+001599999V0202301N00101007801CN0600001N9+00001-00721101041ADDAY111999GF106991051081008001041001MD1990031+9999MW1031
0076028640999991952041918004+65783+024583FM-12+001599999V0202701N00211220001CN0600001N9-00221-00391100961ADDAY111999GF103991011051008001071001IA1199KA1999M+00111MD1810031+9999MW1011
0078028640999991952042000004+65783+024583FM-12+001599999V0209991C00001220001CN0600001N9-00391-00391100951ADDAY111999GF104991031051008001041001MW1021EQDQ01+000032APCTENQ02+000002APC3  
0097028640999991952042006004+65783+024583FM-12+001599999V0209991C00001220001CN0600001N9-00221-00281100941ADDAY111999GF102991021061002501001001IA1199KA1999N-00781MW1011EQDQ01+000042APCTENQ02+000012APC3  
0057028640999991952042012004+65783+024583FM-12+001599999V0202001N00101220001CN0024001N9-00111-00111101041ADDAY141999GF103991031081999999001001MD1310021+9999MW1011
0076028640999991952042018004+65783+024583FM-12+001599999V0209991C00001000151CN0001001N9-00281-00281100961ADDAY121999GF109991091999000251999999IA1199KA1999M+00001MD1810041+9999MW1451
0057028640999991952042100004+65783+024583FM-12+001599999V0201001N00411220001CN0200001N9+00001-00501100681ADDAY111999GF106991001001999999071999MD1810141+9999MW1021
0087028640999991952042106004+65783+024583FM-12+001599999V0201401N00411030001CN0024001N9+00001-00111100321ADDAA199002091AY171999GF108991041051001501021999IA1199KA1999N-00391MD1810191+9999MW1731
0057028640999991952042112004+65783+024583FM-12+001599999V0201101N00411004501CN0050001N9+00221+00001100161ADDAY171999GF108991061071004501021051MD1810071+9999MW1731
0108028640999991952042118004+65783+024583FM-12+001599999V0200701N00101001501CN0080001N9+00111+00001100151ADDAA199002091AY171999GF108991061071001501021999IA1199KA1999M+00111MW1681EQDQ01+000042APCTENQ02+000032APC3  
0057028640999991952042200004+65783+024583FM-12+001599999V0203601N00101002401CN0400001N9+00001+00001100391ADDAY121999GF107991071051002501999999MD1310161+9999MW1011
0087028640999991952042206004+65783+024583FM-12+001599999V0203601N00101030001CN0400001N9+00111-00111100751ADDAA199000691AY121999GF107991041051004501071999IA1199KA1999N-00221MD1310191+9999MW1021
0057028640999991952042212004+65783+024583FM-12+001599999V0209991C00001007801CN0600001N9+00501-00281101061ADDAY111999GF106991061051008001011001MD1310141+9999MW1031
0076028640999991952042218004+65783+024583FM-12+001599999V0209991C00001220001CN0140001N9+00111-00111101281ADDAY121999GF108991001001999999071999IA1199KA1999M+00501MD1310101+9999MW1021
0057028640999991952042300004+65783+024583FM-12+001599999V0200901N00101220001CN0200001N9-00111-00111101441ADDAY121999GF108991001001999999071999MD1310051+9999MW1031
0087028640999991952042306004+65783+024583FM-12+001599999V0201101N00411030001CN0200001N9+00221-00111101221ADDAA199000691AY121999GF108991021051004501071999IA1199KA1999N-00281MD1810131+9999MW1031
0057028640999991952042312004+65783+024583FM-12+001599999V0201301N00621002401CN0034001N9+00221+00221100941ADDAY161999GF108991081061002501999999MD1990191+9999MW1531
0057028640999991952042400004+65783+024583FM-12+001599999V0202001N00101000151CN0004001N9+00111+00111101081ADDAY141999GF109991091999000251999999MD1310101+9999MW1451
0076028640999991952042406004+65783+024583FM-12+001599999V0201801N00211000151CN0002001N9-00111-00111101381ADDAY141999GF109991091999000251999999IA1199KA1999N-00221MD1310161+9999MW1431
0051028640999991952042412004+65783+024583FM-12+001599999V0202001N00311220001CN0400001N9+00281+00221101541ADDAY111999GF103991001001999999041041MD1310061+9999
0095028640999991952042418004+65783+024583FM-12+001599999V0202001N00101220001CN0400001N9+00221+00111101571ADDAY111999GF101991999001999999041001IA1199KA1999M+00391MD1710021+9999MW1021EQDQ01+000002SCOTLC
0076028640999991952042500004+65783+024583FM-12+001599999V0209991C00001220001CN0200001N9-00221-00281101451ADDAY101999GF101991999001999999041001MD1810061+9999MW1021EQDQ01+000002SCOTLC
0063028640999991952042506004+65783+024583FM-12+001599999V0209991C00001000151CN0002001N9-00111-00111101411ADDAY141999GF109991091999000251999999IA1199MD1310031+9999MW1471
0076028640999991952042512004+65783+024583FM-12+001599999V0202001N00151220001CN0600001N9+00391+00001101381ADDAY101999GF101991999001999999041001MD1310061+9999MW1021EQDQ01+000002SCOTLC
0076028640999991952042518004+65783+024583FM-12+001599999V0202701N00211220001CN0600001N9+00611-00111101601ADDAY111999GF102991021041012501041001IA1199KA1999M+00721MD1310071+9999MW1021
0076028640999991952042606004+65783+024583FM-12+001599999V0200201N00101220001CN0600001N9+00501-00281102251ADDAY101999GF102991001001999999041011IA1199KA1999N-00501MD1210201+9999MW1031
0057028640999991952042612004+65783+024583FM-12+001599999V0203601N00211075001CN0600001N9+00781-00391102621ADDAY111999GF106991011011012501041061MD1310171+9999MW1021
0076028640999991952042618004+65783+024583FM-12+001599999V0209991C00001220001CN0600001N9+00611-00221102801ADDAY111999GF107991001001999999001061IA1199KA1999M+00781MD1310071+9999MW1031
0094028640999991952042700004+65783+024583FM-12+001599999V0209991C00001220001CN0400001N9-00281-00281103001ADDAY101999GF101991999001999999041001MW1021EQDQ01+000002SCOTLCQ02+000032APCTENQ03+000002APC3  
0095028640999991952042706004+65783+024583FM-12+001599999V0202001N00101220001CN0400001N9+00221-00391103041ADDAY101999GF101991999001999999041001IA1199KA1999N-00501MD1310031+9999MW1021EQDQ01+000002SCOTLC
0057028640999991952042712004+65783+024583FM-12+001599999V0202301N00101220001CN0600001N9+00611-00111102941ADDAY111999GF102991001001999999001011MD1990151+9999MW1021
0076028640999991952042718004+65783+024583FM-12+001599999V0209991C00001220001CN0600001N9+00391-00111102711ADDAY111999GF102991001001999999001011IA1199KA1999M+00611MD1810131+9999MW1011
0076028640999991952042806004+65783+024583FM-12+001599999V0202001N00211220001CN0600001N9+00221-00221102401ADDAY101999GF101991001001999999001011IA1199KA1999N-00281MD1810061+9999MW1011
0057028640999991952042812004+65783+024583FM-12+001599999V0202001N00151220001CN0600001N9+00501+00111102321ADDAY101999GF100991001001999999001001MD1810061+9999MW1021
0095028640999991952042818004+65783+024583FM-12+001599999V0201801N00101220001CN0600001N9+00391+00111102141ADDAY101999GF101991999001999999041001IA1199KA1999M+00611MD1810111+9999MW1021EQDQ01+000002SCOTLC
0076028640999991952042900004+65783+024583FM-12+001599999V0209991C00001220001CN0600001N9-00281-00281102001ADDAY101999GF101991999001999999041001MD1810031+9999MW1021EQDQ01+000002SCOTLC
0076028640999991952042906004+65783+024583FM-12+001599999V0209991C00001220001CN0600001N9+99999+99999101951ADDAY101999GF102991001001999999041011IA1199KA1999N-00391MD1810031+9999MW1031
0057028640999991952042912004+65783+024583FM-12+001599999V0202301N00101220001CN0600001N9+00891+00221101981ADDAY101999GF102991001001999999001021MD1710031+9999MW1021
0076028640999991952042918004+65783+024583FM-12+001599999V0209991C00001220001CN0600001N9+00781+00281101971ADDAY101999GF101991001001999999001011IA1199KA1999M+01111MD1310031+9999MW1021
0057028640999991952043000004+65783+024583FM-12+001599999V0200201N00311220001CN0400001N9+00391+00221102181ADDAY111999GF103991031051008001001001MD1310151+9999MW1031
0097028640999991952043018004+65783+024583FM-12+001599999V0200901N00311220001CN0600001N9+00391+99999102421ADDAY111999GF101991001001999999001011IA1199KA1999M+00611MW1011EQDQ01+000042APCTENQ02+000042APC3  
0043028640999991952050100004+65783+024583FM-12+001599999V0201101N00411220001CN0400001N9-00111-00721102491ADDAY101999GF101991001001999999041061MW1021
0057028640999991952050112004+65783+024583FM-12+001599999V0201101N00311007801CN0600001N9+00281-00111102321ADDAY111999GF106991061051008001041001MD1990121+9999MW1031
0076028640999991952050118004+65783+024583FM-12+001599999V0209991C00001030001CN0600001N9+00281-00391102091ADDAY111999GF106991021051004501071011IA1189KA1999M+00501MD1810081+9999MW1011
0057028640999991952050200004+65783+024583FM-12+001599999V0201801N00211007801CN0600001N9+00221+00001101911ADDAY111999GF108991081051008001999999MD1810071+9999MW1021
0076028640999991952050206004+65783+024583FM-12+001599999V0201801N00411007801CN0600001N9+00221-00111101601ADDAY121999GF106991061081008001001001IA1189KA1999N+00001MD1810161+9999MW1011
0057028640999991952050212004+65783+024583FM-12+001599999V0201501N00101030001CN0400001N9+00221-00111101421ADDAY121999GF108991041051004501021999MD1810101+9999MW1681
0087028640999991952050218004+65783+024583FM-12+001599999V0200201N00101030001CN0140001N9+00111+00111101321ADDAA199000691AY171999GF107991021071002501071999IA1189KA1999M+00221MD1810031+9999MW1681
0076028640999991952050300004+65783+024583FM-12+001599999V0209991C000019999999N0200001N9+00111+00111101181ADDAY171999GF106991999001022501071999MD1810101+9999MW1021EQDQ01+000002SCOTLC
0087028640999991952050306004+65783+024583FM-12+001599999V0200201N00361002401CN0400001N9+99999+99999101081ADDAA199001091AY121999GF107991071999002501999999IA1189KA1999N+00001MD1810051+9999MW1011
0057028640999991952050312004+65783+024583FM-12+001599999V0200201N00311004501CN0600001N9+00501-00111101021ADDAY121999GF106991061081004501001001MD1810071+9999MW1021
0057028640999991952050512004+65783+024583FM-12+001599999V0203201N00101220001CN0200001N9+00611+00281102411ADDAY111999GF103991031051008001001001MD1310011+9999MW1021
0063028640999991952050618004+65783+024583FM-12+001599999V0200901N00211220001CN0600001N9+01001+00111102401ADDAY111999GF102991011041012501001011IA1189MD1310051+9999MW1011
0057028640999991952050712004+65783+024583FM-12+001599999V0201101N00411220001CN0600001N9+99999+99999103441ADDAY111999GF102991011011012501041001MD1310021+9999MW1011
0057028640999991952050800004+65783+024583FM-12+001599999V0200401N00101220001CN0600001N9-00391-00611103551ADDAY101999GF100991001001999999001001MD1310101+9999MW1021
0097028640999991952050806004+65783+024583FM-12+001599999V0202001N00211220001CN0600001N9+00221-00391103541ADDAY101999GF102991001001999999999999IA1189KA1999N-00611MW1031EQDQ01+000032APCTENQ02+000002APC3  
0076028640999991952050812004+65783+024583FM-12+001599999V0202001N00211220001CN0600001N9+00391-00281103301ADDAY111999GF106991999001999999071001MD1810131+9999MW1021EQDQ01+000002SCOTLC
0076028640999991952050818004+65783+024583FM-12+001599999V0202001N00101220001CN0600001N9+00281-00281102981ADDAY101999GF102991001001999999051011IA1189KA1999M+00611MD1810181+9999MW1021
0076028640999991952050900004+65783+024583FM-12+001599999V0209991C00001220001CN0600001N9-00221-00221102681ADDAY111999GF102991999001999999071001MD1810141+9999MW1011EQDQ01+000002SCOTLC
0076028640999991952050906004+65783+024583FM-12+001599999V0202001N00211220001CN0600001N9+00501-00111102401ADDAY101999GF102991001001999999001011IA1189KA1999N-00281MD1810131+9999MW1021
0057028640999991952050912004+65783+024583FM-12+001599999V0202001N00311220001CN0400001N9+00721-00111102141ADDAY111999GF103991001001999999001011MD1810161+9999MW1031
0076028640999991952050918004+65783+024583FM-12+001599999V0202401N00311220001CN0600001N9+00501+00001101811ADDAY111999GF105991001001999999001061IA1189KA1999M+00891MD1810131+9999MW1021
0057028640999991952051000004+65783+024583FM-12+001599999V0209991C00001220001CN0400001N9+00111+00111101681ADDAY101999GF102991001001999999001011MD1810031+9999MW1011
0057028640999991952051012004+65783+024583FM-12+001599999V0202701N00211012301CN0400001N9+01111+00281101541ADDAY121999GF107991061051012501071999MD1810031+9999MW1031
0063028640999991952051018004+65783+024583FM-12+001599999V0200701N002119999999N0400001N9+01221+00281101521ADDAY121999GF108991999999999999999999IA1009MD1310041+9999MW1021
0057028640999991952051100004+65783+024583FM-12+001599999V0209991C00001012301CN0400001N9+00391+00221101581ADDAY121999GF107991071051012501999999MD1310021+9999MW1021
0076028640999991952051106004+65783+024583FM-12+001599999V0209991C00001012301CN0600001N9+00611+00111101401ADDAY121999GF107991071051012501999999IA1189KA1999N+00221MD1810081+9999MW1021
0057028640999991952051112004+65783+024583FM-12+001599999V0202701N00211030001CN0600001N9+01111+00111101221ADDAY111999GF105991041011012501041001MD1810111+9999MW1011
0063028640999991952051118004+65783+024583FM-12+001599999V0203601N00261012301CN0600001N9+00721-00281101221ADDAY121999GF106991061041012501999999IA1009MD1010111+9999MW1031
0057028640999991952051200004+65783+024583FM-12+001599999V0200201N00361012301CN0600001N9+00001-00611101571ADDAY121999GF107991071051012501001001MD1310231+9999MW1021
0076028640999991952051206004+65783+024583FM-12+001599999V0200201N00671220001CN0600001N9+00111-00891101661ADDAY111999GF105991001001999999071061IA1189KA1999N-00221MD1310031+9999MW1031
0057028640999991952051212004+65783+024583FM-12+001599999V0200401N00311030001CN0600001N9+00611-00891101781ADDAY121999GF107991011011012501071061MD1310011+9999MW1031
0076028640999991952051218004+65783+024583FM-12+001599999V0200901N00211075001CN0600001N9+00391-00501101781ADDAY111999GF105991011041012501071011IA1009KA1999M+00781MD1310021+9999MW1011
0076028640999991952051300004+65783+024583FM-12+001599999V0200901N00311220001CN0600001N9+00111-00611101791ADDAY121999GF107991999001999999071001MD1310011+9999MW1021EQDQ01+000002SCOTLC
0076028640999991952051306004+65783+024583FM-12+001599999V0200901N00411220001CN0600001N9+00221-00721101721ADDAY121999GF108991001001999999071999IA1189KA1999N+00001MD1810061+9999MW1031
0057028640999991952051312004+65783+024583FM-12+001599999V0200901N00511030001CN0600001N9+00501-00721101721ADDAY121999GF108991021011008001071999MD1810051+9999MW1021
0076028640999991952051318004+65783+024583FM-12+001599999V0201101N00211030001CN0400001N9+00391-00391101601ADDAY111999GF105991031051008001041091IA1189KA1999M+00501MD1810051+9999MW1011
0076028640999991952051400004+65783+024583FM-12+001599999V0209991C00001220001CN0600001N9-00221-00721101521ADDAY111999GF106991999001999999071001MD1710061+9999MW1021EQDQ01+000002SCOTLC
0076028640999991952051406004+65783+024583FM-12+001599999V0200901N00511030001CN0600001N9+00501+00001101321ADDAY111999GF107991011011004501051071IA1189KA1999N-00281MD1810131+9999MW1031
0057028640999991952051412004+65783+024583FM-12+001599999V0200401N00311030001CN0600001N9+00721-00781101091ADDAY111999GF106991021011012501071001MD1810111+9999MW1011
0076028640999991952051418004+65783+024583FM-12+001599999V0200401N00211030001CN0600001N9+00391-00611101041ADDAY111999GF108991021091008001071011IA1189KA1999M+00781MD1810071+9999MW1011
0076028640999991952051500004+65783+024583FM-12+001599999V0200201N00101220001CN0600001N9-00111-00611101011ADDAY101999GF101991999001999999071001MD1810011+9999MW1011EQDQ01+000002SCOTLC
0076028640999991952051506004+65783+024583FM-12+001599999V0203601N00311220001CN0600001N9+00281+00001100891ADDAY101999GF105991031011012501001011IA1189KA1999N-00501MD1810031+9999MW1031
0076028640999991952051512004+65783+024583FM-12+001599999V0203401N003119999999N0600001N9+00391-00891100921ADDAY111999GF108991999081012501001001MD1210011+9999MW1011EQDQ01+000042SCOTLC
0087028640999991952051518004+65783+024583FM-12+001599999V0200401N00101220001CN0600001N9+00221-00391101101ADDAA199000691AY111999GF103991031081012501001001IA1189KA1999M+00611MD1310131+9999MW1011
0076028640999991952051600004+65783+024583FM-12+001599999V0209991C00001220001CN0400001N9-00501-00501101281ADDAY101999GF101991999001999999071001MD1310101+9999MW1011EQDQ01+000002SCOTLC
0076028640999991952051606004+65783+024583FM-12+001599999V0202901N00211030001CN0600001N9+00281-00501101391ADDAY111999GF107991011011012501071071IA1189KA1999N-00611MD1310031+9999MW1021
0078028640999991952051612004+65783+024583FM-12+001599999V0202301N00311004501CN0600001N9+00501-00221101441ADDAY181999GF106991061091004501999999MW1261EQDQ01+000022APCTENQ02+000002APC3  
0087028640999991952051618004+65783+024583FM-12+001599999V0202901N00101004501CN0600001N9+00221+00111101581ADDAA199000591AY181999GF106991061091004501999999IA1189KA1999M+00611MD1310101+9999MW1011
0057028640999991952051700004+65783+024583FM-12+001599999V0209991C00001007801CN0600001N9-00111-00391101841ADDAY111999GF105991051051008001041001MD1310171+9999MW1011
0076028640999991952051706004+65783+024583FM-12+001599999V0200201N00411007801CN0600001N9+00281-00611101911ADDAY111999GF106991051021008001001011IA1189KA1999N-00221MD1310031+9999MW1031
0057028640999991952051712004+65783+024583FM-12+001599999V0200201N00311007801CN0600001N9+00501-00781101921ADDAY111999GF107991071021008001999999MD1710021+9999MW1031
0076028640999991952051718004+65783+024583FM-12+001599999V0200201N00311007801CN0600001N9+00391-00611101841ADDAY111999GF105991051081008001001001IA1189KA1999M+00501MD1810041+9999MW1011
0076028640999991952051800004+65783+024583FM-12+001599999V0200201N00101220001CN0600001N9-00221-00611101841ADDAY111999GF102991999001999999041001MD1710011+9999MW1011EQDQ01+000002SCOTLC
0057028640999991952051812004+65783+024583FM-12+001599999V0203601N00311012301CN0400001N9+00501+99999101941ADDAY121999GF106991061091012501001011MD1310011+9999MW1021
0076028640999991952051818004+65783+024583FM-12+001599999V0200201N00311220001CN0400001N9+00111-00281102241ADDAY181999GF103991021091008001061001IA1189KA1999M+00611MD1310111+9999MW1011
0076028640999991952051900004+65783+024583FM-12+001599999V0200201N00101220001CN0600001N9-00221-00391102211ADDAY101999GF101991999001999999041001MD1310071+9999MW1021EQDQ01+000002SCOTLC
0076028640999991952051906004+65783+024583FM-12+001599999V0200401N00511220001CN0600001N9+00221-00501102521ADDAY111999GF103991031011008001001001IA1189KA1999N-00281MD1310041+9999MW1031
0057028640999991952051912004+65783+024583FM-12+001599999V0200401N00411012301CN0600001N9+00391-00501102611ADDAY111999GF107991071081012501001001MD1310041+9999MW1021
0076028640999991952051918004+65783+024583FM-12+001599999V0200201N00211012301CN0600001N9+00281-00611102711ADDAY111999GF107991071051012501001001IA1189KA1999M+00501MD1310061+9999MW1021
0076028640999991952052000004+65783+024583FM-12+001599999V0209991C00001220001CN0600001N9-00281-00391102881ADDAY111999GF101991999001999999071001MD1310041+9999MW1011EQDQ01+000002SCOTLC
0076028640999991952052006004+65783+024583FM-12+001599999V0202301N00211220001CN0600001N9+00391-00611103011ADDAY111999GF107991001001999999071071IA1189KA1999N-00501MD1310041+9999MW1031
0057028640999991952052012004+65783+024583FM-12+001599999V0202301N00621220001CN0600001N9+00501-00281102991ADDAY111999GF106991001001999999041091MD1810031+9999MW1021
0076028640999991952052018004+65783+024583FM-12+001599999V0202001N00211220001CN0600001N9+00281-00281102891ADDAY111999GF106991001001999999021999IA1189KA1999M+00611MD1810021+9999MW1021
0076028640999991952052100004+65783+024583FM-12+001599999V0201801N00311220001CN0400001N9-00111-00221102841ADDAY111999GF105991999001999999071001MD1810041+9999MW1021EQDQ01+000002SCOTLC
0076028640999991952052106004+65783+024583FM-12+001599999V0201801N00461030001CN0400001N9+00501-00111102801ADDAY121999GF107991021051008001071999IA1009KA1999N+00001MD1310071+9999MW1021
0057028640999991952052112004+65783+024583FM-12+001599999V0201601N00311220001CN0600001N9+00781-00111102951ADDAY111999GF104991001001999999001051MD1310101+9999MW1011
0076028640999991952052118004+65783+024583FM-12+001599999V0209991C00001220001CN0600001N9+00891+00281102741ADDAY111999GF105991001001999999001011IA1009KA1999M+01001MD1810091+9999MW1021
0057028640999991952052200004+65783+024583FM-12+001599999V0209991C00001220001CN0110001N9+00111+00001102551ADDAY111999GF106991001001999999071091MD1810101+9999MW1041
0076028640999991952052206004+65783+024583FM-12+001599999V0202001N00101220001CN0200001N9+00501+00001102421ADDAY121999GF108991001001999999071999IA1009KA1999N+00001MD1810061+9999MW1021
0057028640999991952052212004+65783+024583FM-12+001599999V0202301N00411220001CN0400001N9+01001-00221102291ADDAY121999GF107991001001999999071999MD1810121+9999MW1021
0063028640999991952052218004+65783+024583FM-12+001599999V0202301N00101220001CN0400001N9+00721+00221102221ADDAY121999GF109991001001999999071999IA1009MD1810031+9999MW1611
0057028640999991952052300004+65783+024583FM-12+001599999V0209991C00001220001CN0200001N9+00611+00501102191ADDAY161999GF108991001001999999071999MD1810031+9999MW1021
0087028640999991952052306004+65783+024583FM-12+001599999V0209991C00001030001CN0080001N9+00721+00721102091ADDAA199000691AY121999GF108991021071004501021999IA1009KA1999N+00501MD1810021+9999MW1611
0057028640999991952052312004+65783+024583FM-12+001599999V0209991C00001002401CN0060001N9+00721+00611101971ADDAY161999GF108991061071002501021999MD1810071+9999MW1611
0087028640999991952052318004+65783+024583FM-12+001599999V0202001N00151001501CN0034001N9+00721+00721101691ADDAA199003091AY121999GF108991081061001501999999IA1089KA1999M+00781MD1810141+9999MW1021
0057028640999991952052400004+65783+024583FM-12+001599999V0209991C00001000151CN0002001N9+00611+00611101511ADDAY161999GF107991071061000251999999MD1810111+9999MW1461
0108028640999991952052406004+65783+024583FM-12+001599999V0209991C00001000151CN0002001N9+00721+00611101451ADDAA199000391AY141999GF109991091999000251999999IA1089KA1999N+00501MW1451EQDQ01+000042APCTENQ02+000032APC3  
0057028640999991952052412004+65783+024583FM-12+001599999V0200201N00211030001CN0400001N9+01221+00721101481ADDAY111999GF105991041091008001061001MD1710051+9999MW1021
0087028640999991952052418004+65783+024583FM-12+001599999V0202301N00151220001CN0600001N9+00781+00391101361ADDAA199000691AY101999GF102991021041012501051001IA1009KA1999M+01281MD1810071+9999MW1021
0076028640999991952052500004+65783+024583FM-12+001599999V0202701N00101220001CN0400001N9+00221+00221101171ADDAY101999GF101991999001999999071001MD1810131+9999MW1111EQDQ01+000002SCOTLC
0076028640999991952052506004+65783+024583FM-12+001599999V0202001N00311030001CN0400001N9+00781+00281100781ADDAY121999GF107991021051008001071999IA1009KA1999N+00111MD1810211+9999MW1031
0057028640999991952052512004+65783+024583FM-12+001599999V0202001N00511030001CN0120001N9+00611-00111100391ADDAY161999GF108991021051008001071999MD1810181+9999MW1611
0087028640999991952052518004+65783+024583FM-12+001599999V0202301N00211220001CN0400001N9+00501+00391100221ADDAA199003091AY161999GF108991001001999999021999IA1009KA1999M+00891MD1810071+9999MW1611
0057028640999991952052600004+65783+024583FM-12+001599999V0209991C00001220001CN0400001N9+00501+00281100351ADDAY121999GF104991021051004501071001MD1810071+9999MW1011
0076028640999991952052606004+65783+024583FM-12+001599999V0200201N00411002401CN0600001N9+00611+00281100561ADDAY111999GF106991061081002501041001IA1009KA1999N+00281MD1310121+9999MW1021
0078028640999991952052612004+65783+024583FM-12+001599999V0200201N00411220001CN0600001N9+01111+00111100641ADDAY111999GF106991041021008001001041MW1021EQDQ01+000022APCTENQ02+000002APC3  
0076028640999991952052618004+65783+024583FM-12+001599999V0200201N00511220001CN0600001N9+01111-00281100621ADDAY111999GF104991021021012501041041IA1009KA1999M+01281MD1210021+9999MW1031
0057028640999991952052700004+65783+024583FM-12+001599999V0200201N00511220001CN0600001N9+99999+99999100601ADDAY111999GF106991001001999999071999MD1810051+9999MW1021
0076028640999991952052706004+65783+024583FM-12+001599999V0200201N00511220001CN0600001N9+00781-00281100391ADDAY151999GF103991011011008001041001IA1009KA1999N+00391MD1810091+9999MW1011
0078028640999991952052712004+65783+024583FM-12+001599999V0200201N00621220001CN0600001N9+01111-00391100401ADDAY111999GF103991021011012501071001MW1011EQDQ01+000032APCTENQ02+000002APC3  
0076028640999991952052718004+65783+024583FM-12+001599999V0203601N00311220001CN0600001N9+00781-00111100561ADDAY111999GF104991041041012501001001IA1009KA1999M+01221MD1310211+9999MW1011
0063028640999991952052806004+65783+024583FM-12+001599999V0201101N00211012301CN0600001N9+00781+00001100771ADDAY111999GF106991051051012501071999IA1009MD1310051+9999MW1031
0057028640999991952052812004+65783+024583FM-12+001599999V0202001N00411220001CN0600001N9+01111+00501100771ADDAY111999GF103991031011017501001001MD1710011+9999MW1011
0076028640999991952052818004+65783+024583FM-12+001599999V0202001N00101220001CN0600001N9+01001+00391100741ADDAY101999GF102991011041012501071001IA1009KA1999M+01111MD1210011+9999MW1021
0043028640999991952052900004+65783+024583FM-12+001599999V0201101N00311007801CN0400001N9+00391-00221100821ADDAY111999GF106991061051008001999999MW1011
0076028640999991952052906004+65783+024583FM-12+001599999V0201401N00511030001CN0600001N9+01001+00001100861ADDAY111999GF108991031051008001071999IA1009KA1999N+00391MD1310031+9999MW1031
0057028640999991952052912004+65783+024583FM-12+001599999V0201601N00621030001CN0600001N9+01611+00891100811ADDAY111999GF106991021021008001071001MD1810031+9999MW1021
0087028640999991952052918004+65783+024583FM-12+001599999V0200701N00101004501CN0600001N9+01221+00781100791ADDAA199000691AY121999GF108991061091004501061999IA1009KA1999M+01721MD1310041+9999MW1021
0057028640999991952053000004+65783+024583FM-12+001599999V0201401N00311220001CN0400001N9+01001+00611100851ADDAY161999GF108991001001999999021999MD1310021+9999MW1611
0087028640999991952053006004+65783+024583FM-12+001599999V0200901N00311030001CN9999999N9+00891+00781100421ADDAA199003091AY161999GF108991041071002501021999IA1109KA1999N+00781MD1810201+9999MW1631
0057028640999991952053012004+65783+024583FM-12+001599999V0201801N00571007801CN0600001N9+01281+01001100371ADDAY161999GF107991061091008001061999MD1310151+9999MW1011
0087028640999991952053018004+65783+024583FM-12+001599999V0200201N00211007801CN0400001N9+01221+01001100091ADDAA199002091AY161999GF107991061051008001071999IA1109KA1999M+01501MD1810181+9999MW1021
0057028640999991952053100004+65783+024583FM-12+001599999V0202001N00671030001CN0070001N9+00611+00611099751ADDAY161999GF108991041081012501011999MD1510021+9999MW1021
0087028640999991952053106004+65783+024583FM-12+001599999V0201801N00571002401CN0080001N9+00721+00611100181ADDAA199002091AY121999GF108991061071002501021999IA1109KA1999N+00501MD1310131+9999MW1621
0057028640999991952053112004+65783+024583FM-12+001599999V0201801N00411002401CN0060001N9+00721+00611100381ADDAY161999GF108991051071002501021999MD1810081+9999MW1621
0087028640999991952053118004+65783+024583FM-12+001599999V0201801N00571030001CN0400001N9+00781+00501100521ADDAA199004091AY121999GF107991031051004501071999IA1109KA1999M+01221MD1310091+9999MW1021
0076028640999991952060106004+65783+024583FM-12+001599999V0202001N00411001501CN0400001N9+00611-00781100681ADDAY121999GF108991081061001501999999IA1189KA1999N+00611MD1810051+9999MW1031
0057028640999991952060112004+65783+024583FM-12+001599999V0202001N00311220001CN0600001N9+00721+00611100851ADDAY121999GF102991021021012501001001MD1310061+9999MW1011
0076028640999991952060118004+65783+024583FM-12+001599999V0202001N00211220001CN0600001N9+00781+00391101011ADDAY101999GF102991011021012501001021IA1009KA1999M+00891MD1310081+9999MW1011
0095028640999991952060206004+65783+024583FM-12+001599999V0202001N00211220001CN0600001N9+01221+00611101391ADDAY101999GF101991999001999999041001IA1009KA1999N+00281MD1310061+9999MW1021EQDQ01+000002SCOTLC
0087028640999991952060218004+65783+024583FM-12+001599999V0201101N00211220001CN0600001N9+01221+00781101221ADDAA199000691AY161999GF108991001001999999071999IA1009KA1999M+01221MD1810321+9999MW1021
0057028640999991952060300004+65783+024583FM-12+001599999V0201101N00511220001CN0600001N9+01221+00391100791ADDAY121999GF108991001001999999071999MD1810291+9999MW1021
0106028640999991952060306004+65783+024583FM-12+001599999V0201601N00361002401CN0110001N9+01001+99999100451ADDAA199005091AY161999GF108991061071002501021999IA1109KA1999N+01001MD1810111+9999MW1631EQDQ01+028422ATOD  
0057028640999991952060312004+65783+024583FM-12+001599999V0202301N00211002401CN0200001N9+01001+00781100651ADDAY141999GF108991081071002501999999MD1310011+9999MW1021
0108028640999991952060318004+65783+024583FM-12+001599999V0201601N00311220001CN0400001N9+01001+00891100611ADDAA199000391AY111999GF104991021081008001071001IA1009KA1999M+01281MW1011EQDQ01+000022APCTENQ02+000002APC3  
0057028640999991952060400004+65783+024583FM-12+001599999V0202001N00101004501CN0400001N9+00781+00721100651ADDAY121999GF107991071081004501999999MD1310031+9999MW1021
0087028640999991952060406004+65783+024583FM-12+001599999V0201101N00211004501CN0400001N9+01001+01001100741ADDAA199000691AY121999GF108991081051004501999999IA1089KA1999N+00781MD1310061+9999MW1021
0076028640999991952060418004+65783+024583FM-12+001599999V0200901N00311004501CN0600001N9+01001+00721101081ADDAY121999GF108991081051004501999999IA1009KA1999M+01221MD1310051+9999MW1021
0057028640999991952060500004+65783+024583FM-12+001599999V0200201N00261007801CN0400001N9+00611+00501101261ADDAY121999GF108991081051008001999999MD1310081+9999MW1021
0076028640999991952060506004+65783+024583FM-12+001599999V0200201N00461004501CN0600001N9+00721+00221101511ADDAY121999GF106991051011004501071001IA1009KA1999N+00501MD1310151+9999MW1011
0057028640999991952060512004+65783+024583FM-12+001599999V0200701N00411007801CN0600001N9+01001+00281101741ADDAY121999GF107991061081008001071999MD1310101+9999MW1031
0057028640999991952060600004+65783+024583FM-12+001599999V0209991C00001220001CN0600001N9+00721+00391101921ADDAY121999GF107991001001999999071999MD1310021+9999MW1021
0076028640999991952060606004+65783+024583FM-12+001599999V0202001N00211030001CN0600001N9+00891+00281101911ADDAY111999GF106991041081008001041021IA1009KA1999N+00611MD1810021+9999MW1031
0076028640999991952060618004+65783+024583FM-12+001599999V0201401N00311220001CN0600001N9+01221+00221101581ADDAY121999GF106991001001999999071061IA1009KA1999M+01501MD1810161+9999MW1011
0057028640999991952060700004+65783+024583FM-12+001599999V0201601N00411220001CN0600001N9+01001+00391101361ADDAY121999GF108991001001999999071999MD1810081+9999MW1021
0087028640999991952060706004+65783+024583FM-12+001599999V0201401N00511004501CN0600001N9+01001+00721101191ADDAA199000591AY161999GF107991061071004501071999IA1089KA1999N+00721MD1810121+9999MW1011
0076028640999991952060712004+65783+024583FM-12+001599999V0201601N00511007801CN0600001N9+01611+00721101081ADDAY121999GF108991999041008001071999MD1810041+9999MW1031EQDQ01+000082SCOTLC
0076028640999991952060800004+65783+024583FM-12+001599999V0201601N00511220001CN0400001N9+01111+00391100961ADDAY111999GF104991999001999999071001MD1810021+9999MW1021EQDQ01+000002SCOTLC
0076028640999991952060806004+65783+024583FM-12+001599999V0201401N00721030001CN0600001N9+01721+00721100811ADDAY121999GF107991021051008001071999IA1009KA1999N+01221MD1810091+9999MW1021
0078028640999991952060812004+65783+024583FM-12+001599999V0201601N00461030001CN0600001N9+01501+01001100771ADDAY161999GF108991031051012501021999MW1601EQDQ01+000042APCTENQ02+000042APC3  
0057028640999991952060900004+65783+024583FM-12+001599999V0200201N00101004501CN0400001N9+01001+01001100651ADDAY161999GF108991061051004501071999MD1810151+9999MW1211
0087028640999991952060906004+65783+024583FM-12+001599999V0201801N00461002401CN0044001N9+01221+01221100281ADDAA199003091AY181999GF108991071071002501021999IA1109KA1999N+00891MD1810131+9999MW1621
0057028640999991952060912004+65783+024583FM-12+001599999V0202501N00311004501CN0400001N9+01001+00891100641ADDAY121999GF107991061081004501071999MD1310141+9999MW1021
0057028640999991952061000004+65783+024583FM-12+001599999V0202901N00211220001CN0200001N9+00611+00611100581ADDAY111999GF103991001001999999071041MD1810061+9999MW1031
0076028640999991952061006004+65783+024583FM-12+001599999V0203201N00261004501CN0400001N9+00891+00501100371ADDAY121999GF107991071051004501999999IA1089KA1999N+00501MD1810101+9999MW1031
0057028640999991952061012004+65783+024583FM-12+001599999V0203601N00101004501CN0600001N9+01001+00611100291ADDAY121999GF108991081051004501999999MD1810031+9999MW1021
0094028640999991952061100004+65783+024583FM-12+001599999V0209991C00001220001CN0004001N9+00611+00611100161ADDAY121999GF103991999001999999071001MW1441EQDQ01+000002SCOTLCQ02+000032APCTENQ03+000002APC3  
0087028640999991952061106004+65783+024583FM-12+001599999V0201101N00211220001CN0400001N9+00891+00721100241ADDAA199000391AY111999GF106991001001999999071999IA1089KA1999N+00281MD1310031+9999MW1021
0057028640999991952061112004+65783+024583FM-12+001599999V0202901N00151007801CN0400001N9+01281+00721100511ADDAY111999GF108991061081008001071999MD1310111+9999MW1261
0087028640999991952061118004+65783+024583FM-12+001599999V0200401N00211007801CN0400001N9+01281+00611100641ADDAA199001091AY181999GF106991051091008001061999IA1089KA1999M+01391MD1310071+9999MW1021
0076028640999991952061200004+65783+024583FM-12+001599999V0200201N00211220001CN0400001N9+00501+00391100861ADDAY111999GF104991999001999999071001MD1310121+9999MW1021EQDQ01+000002SCOTLC
0076028640999991952061206004+65783+024583FM-12+001599999V0200201N00311007801CN0400001N9+01111+00721101001ADDAY121999GF107991061081008001071999IA1009KA1999N+00391MD1310071+9999MW1031
0087028640999991952061218004+65783+024583FM-12+001599999V0200901N00261030001CN0600001N9+01281+00721101081ADDAA199000691AY121999GF106991031041008001081001IA1089KA1999M+01611MD1310021+9999MW1011
0095028640999991952061306004+65783+024583FM-12+001599999V0200401N00411220001CN0600001N9+01281+00501101141ADDAY101999GF101991999001999999071001IA1009KA1999N+00391MD1990041+9999MW1011EQDQ01+000002SCOTLC
0057028640999991952061312004+65783+024583FM-12+001599999V0202301N00311220001CN0600001N9+01391+00501101151ADDAY101999GF103991011011012501071001MD1810021+9999MW1021
0076028640999991952061318004+65783+024583FM-12+001599999V0202501N00311220001CN0600001N9+01281+00501101021ADDAY101999GF102991011041012501041001IA1009KA1999M+01721MD1810031+9999MW1021
0057028640999991952061400004+65783+024583FM-12+001599999V0201401N00311220001CN0400001N9+00501+00501101001ADDAY111999GF104991021051004501071001MD1310021+9999MW1021
0057028640999991952061412004+65783+024583FM-12+001599999V0202201N00411075001CN0400001N9+01281+00001100681ADDAY121999GF108991011011012501001071MD1810101+9999MW1011
0076028640999991952061500004+65783+024583FM-12+001599999V0202001N00311220001CN0600001N9+00891+00781100411ADDAY111999GF103991999001999999041001MD1810021+9999MW1011EQDQ01+000002SCOTLC
0076028640999991952061506004+65783+024583FM-12+001599999V0201601N00411007801CN0400001N9+01391+01001100321ADDAY111999GF107991071051008001001001IA1009KA1999N+00891MD1990091+9999MW1031
0087028640999991952061518004+65783+024583FM-12+001599999V0201101N00211007801CN0400001N9+01391+01221100041ADDAA199000391AY181999GF108991051051008001071999IA1089KA1999M+01721MD1810071+9999MW1021
0057028640999991952061600004+65783+024583FM-12+001599999V0201401N00721030001CN0070001N9+01281+01221099941ADDAY161999GF108991031071004501021999MD1810081+9999MW1631
0087028640999991952061606004+65783+024583FM-12+001599999V0201401N00511002401CN0160001N9+01221+01221099741ADDAA199011091AY161999GF108991051071002501021999IA1109KA1999N+01221MD1610071+9999MW1201
0057028640999991952061612004+65783+024583FM-12+001599999V0202701N00411220001CN0600001N9+01391+00721100281ADDAY111999GF104991021021012501071021MD1310371+9999MW1011
0087028640999991952061618004+65783+024583FM-12+001599999V0202701N00101012301CN0600001N9+01111+00721100481ADDAA199000691AY121999GF107991061051012501071999IA1109KA1999M+01611MD1310131+9999MW1021
0087028640999991952061706004+65783+024583FM-12+001599999V0209991C00001004501CN0400001N9+01001+00781100781ADDAA199001091AY121999GF107991051051004501071999IA1109KA1999N+00781MD1310131+9999MW1021
0057028640999991952061712004+65783+024583FM-12+001599999V0203201N00511004501CN0110001N9+01001+00891100681ADDAY161999GF108991061071004501021999MD1810091+9999MW1631
0087028640999991952061718004+65783+024583FM-12+001599999V0203201N00211007801CN0400001N9+01111+00891100641ADDAA199008091AY121999GF108991061051008001021999IA1109KA1999M+01221MD1310091+9999MW1021
0057028640999991952061800004+65783+024583FM-12+001599999V0202701N00361030001CN0400001N9+00891+00891100891ADDAY161999GF108991021051004501071999MD1310091+9999MW1211
0087028640999991952061806004+65783+024583FM-12+001599999V0202001N00211220001CN0600001N9+01281+01001101121ADDAA199000591AY101999GF101991011011012501071001IA1109KA1999N+00891MD1310091+9999MW1021
0076028640999991952061818004+65783+024583FM-12+001599999V0202001N00101220001CN0600001N9+01391+00781101431ADDAY111999GF102991001001999999001021IA1089KA1999M+01391MD1210021+9999MW1011
