0078028640999991953010100004+65783+024583FM-12+001599999V0209991C00001007801CN0110001N9-01221-01501101511ADDAY171999GF107991071051008001001001MW1711EQDQ01+000032APCTENQ02+000002APC3  
0108028640999991953010106004+65783+024583FM-12+001599999V0209991C00001007801CN0110001N9-01281-01501101511ADDAA199000591AY171999GF107991071051008001001001IA1009KA1999N-01281MW1711EQDQ01+000032APCTENQ02+000002APC3  
0078028640999991953010112004+65783+024583FM-12+001599999V0201601N00101004501CN0070001N9-01391-01611101601ADDAY171999GF108991061051004501021999MW1711EQDQ01+000032APCTENQ02+000002APC3  
0087028640999991953010118004+65783+024583FM-12+001599999V0201601N00211002401CN0200001N9-01501-01721101641ADDAA199000591AY121999GF108991061051002501071999IA1319KA1999M-01281MD1210031+9999MW1021
0057028640999991953010200004+65783+024583FM-12+001599999V0201601N00211004501CN0200001N9-01391-01611101621ADDAY171999GF108991061071004501021999MD1810021+9999MW1711
0087028640999991953010206004+65783+024583FM-12+001599999V0201601N00261004501CN0200001N9-01221-01391101571ADDAA199000391AY121999GF107991071051004501999999IA1319KA1999N-01611MD1810041+9999MW1021
0078028640999991953010212004+65783+024583FM-12+001599999V0201801N00311030001CN0200001N9-01111-01281101621ADDAY111999GF106991041051004501071001MW1031EQDQ01+000022APCTENQ02+000002APC3  
0087028640999991953010218004+65783+024583FM-12+001599999V0201801N00211002401CN0110001N9-01281-01501101581ADDAA199000691AY171999GF108991081051002501999999IA1319KA1999M-01001MD1510011+9999MW1711
0057028640999991953010300004+65783+024583FM-12+001599999V0200901N00101004501CN0160001N9-01721-02001101851ADDAY121999GF106991061051004501001001MD1310171+9999MW1011
0076028640999991953010306004+65783+024583FM-12+001599999V0209991C00001000151CN0008001N9-01391-01611102121ADDAY141999GF109991091999000251999999IA1319KA1999N-02001MD1310151+9999MW1471
0076028640999991953010400004+65783+024583FM-12+001599999V0202001N00101220001CN0200001N9-01111-01221102001ADDAY121999GF107991999001999999071001MD1810111+9999MW1021EQDQ01+000002SCOTLC
0113028640999991953010406004+65783+024583FM-12+001599999V0202001N00101220001CN0200001N9-01001-01111101981ADDAY121999GF107991999001999999071001IA1319KA1999N-01611MW1021EQDQ01+000002SCOTLCQ02+000032APCTENQ03+000002APC3  
0057028640999991953010412004+65783+024583FM-12+001599999V0202001N00051030001CN0200001N9-00781-01111101941ADDAY121999GF106991031051012501071001MD1810041+9999MW1011
0076028640999991953010418004+65783+024583FM-12+001599999V0209991C00001220001CN0400001N9-01001-01111101911ADDAY111999GF100991001001999999001001IA1319KA1999M+00001MD1810031+9999MW1011
0057028640999991953010500004+65783+024583FM-12+001599999V0201801N00101001501CN0160001N9-01111-01221101981ADDAY111999GF108991081061001501999999MD1310031+9999MW1031
0076028640999991953010506004+65783+024583FM-12+001599999V0201401N00151001501CN0140001N9-01001-01111101681ADDAY121999GF108991081061001501999999IA1319KA1999N-01111MD1810101+9999MW1021
0057028640999991953010512004+65783+024583FM-12+001599999V0202001N00311004501CN0200001N9-00501-00611101581ADDAY121999GF108991061051004501071999MD1810101+9999MW1031
0076028640999991953010518004+65783+024583FM-12+001599999V0201801N00621004501CN0200001N9-00611-00721101291ADDAY121999GF108991081051004501999999IA1319KA1999M-00391MD1810141+9999MW1031
0095028640999991953010606004+65783+024583FM-12+001599999V0202001N00411220001CN0600001N9-00781-01001101061ADDAY111999GF106991999001999999071001IA1319KA1999N-01001MD1810011+9999MW1021EQDQ01+000002SCOTLC
0057028640999991953010612004+65783+024583FM-12+001599999V0202001N00361030001CN0400001N9-00721-00891101211ADDAY121999GF106991021051008001071999MD1110041+9999MW1031
0076028640999991953010618004+65783+024583FM-12+001599999V0202001N00361030001CN0400001N9-00611-00721101201ADDAY121999GF106991031051004501071999IA1319KA1999M-00611MD1310011+9999MW1011
0057028640999991953010700004+65783+024583FM-12+001599999V0202001N00511220001CN0400001N9-00611-00721101041ADDAY111999GF103991021051004501071001MD1810041+9999MW1031
0087028640999991953010706004+65783+024583FM-12+001599999V0202001N00311030001CN0034001N9-00611-00721100771ADDAA199001091AY171999GF108991021071004501021999IA1319KA1999N-00781MD1810161+9999MW1731
0057028640999991953010712004+65783+024583FM-12+001599999V0203601N00211001501CN0080001N9-00781-00891100801ADDAY121999GF108991081061001501999999MD1110041+9999MW1021
0087028640999991953010718004+65783+024583FM-12+001599999V0202701N00211220001CN0600001N9-01501-01721100941ADDAA199000591AY111999GF104991041051008001001001IA1319KA1999M-00611MD1310081+9999MW1021
0057028640999991953010800004+65783+024583FM-12+001599999V0202001N00211220001CN0400001N9-01781-02001100921ADDAY101999GF105991001001999999071999MD1810071+9999MW1031
0076028640999991953010818004+65783+024583FM-12+001599999V0201801N00361002401CN0200001N9-01001-01111099951ADDAY121999GF108991061051002501021999IA1319KA1999M-00891MD1810271+9999MW1021
0057028640999991953010900004+65783+024583FM-12+001599999V0201801N00931002401CN0034001N9-00391-00391099441ADDAY171999GF108991081051002501999999MD1810211+9999MW1731
0087028640999991953010906004+65783+024583FM-12+001599999V0202701N00211001501CN0034001N9-00611-00611099051ADDAA199004091AY171999GF108991081051001501999999IA1319KA1999N-01001MD1810101+9999MW1731
0057028640999991953010912004+65783+024583FM-12+001599999V0202701N00311030001CN0110001N9-01111-01221099211ADDAY171999GF105991021071004501071001MD1310101+9999MW1701
0087028640999991953010918004+65783+024583FM-12+001599999V0202301N00211220001CN0400001N9-01781-02001099641ADDAA199001091AY101999GF100991001001999999001001IA1319KA1999M-00281MD1310191+9999MW1021
0057028640999991953011000004+65783+024583FM-12+001599999V0202901N00211220001CN0600001N9-01221-01281099971ADDAY111999GF100991001001999999001001MD1310111+9999MW1011
0095028640999991953011006004+65783+024583FM-12+001599999V0202001N00101220001CN0600001N9-02221+99999100261ADDAY101999GF101991999001999999071001IA1319KA1999N-02221MD1310141+9999MW1031EQDQ01+000002SCOTLC
0076028640999991953011012004+65783+024583FM-12+001599999V0201801N00101220001CN0200001N9-02001-02221100581ADDAY111999GF102991999001999999071001MD1310071+9999MW1011EQDQ01+000002SCOTLC
0076028640999991953011018004+65783+024583FM-12+001599999V0201601N00101220001CN0200001N9-02111+99999100721ADDAY111999GF100991001001999999001001IA1319KA1999M-01721MD1310071+9999MW1021
0057028640999991953011100004+65783+024583FM-12+001599999V0201801N00101220001CN0400001N9-01781+99999100591ADDAY121999GF100991001001999999001001MD1310061+9999MW1021
0095028640999991953011106004+65783+024583FM-12+001599999V0202001N00211220001CN0400001N9-01391-01611100811ADDAY101999GF103991999001999999071001IA1319KA1999N-02281MD1310081+9999MW1031EQDQ01+000002SCOTLC
0076028640999991953011118004+65783+024583FM-12+001599999V0201401N00101220001CN0400001N9-01721-01891101621ADDAY111999GF106991001001999999071999IA1319KA1999M-01111MD1310271+9999MW1021
0076028640999991953011200004+65783+024583FM-12+001599999V0200901N00101220001CN0400001N9-02111+99999101891ADDAY111999GF101991999001999999071001MD1310011+9999MW1021EQDQ01+000002SCOTLC
0087028640999991953011206004+65783+024583FM-12+001599999V0201601N00211004501CN0200001N9-01111-01221101521ADDAA199000691AY111999GF108991081051004501999999IA1319KA1999N-02221MD1810251+9999MW1711
0057028640999991953011212004+65783+024583FM-12+001599999V0202301N00931001501CN0050001N9-00111-00221100621ADDAY171999GF108991061071001501021999MD1810421+9999MW1581
0087028640999991953011218004+65783+024583FM-12+001599999V0202701N00461030001CN0400001N9+00001-00111100421ADDAA199001091AY121999GF107991021051004501021999IA1319KA1999M+00001MD1810081+9999MW1021
0076028640999991953011300004+65783+024583FM-12+001599999V0202701N00621220001CN0400001N9+00111+00001100461ADDAY121999GF102991999001999999071001MD1310041+9999MW1011EQDQ01+000002SCOTLC
0113028640999991953011306004+65783+024583FM-12+001599999V0202301N00311220001CN0400001N9-00111-00111100661ADDAY111999GF104991999001999999071001IA1319KA1999N-00111MW1021EQDQ01+000002SCOTLCQ02+000042APCTENQ03+000152APC3  
0057028640999991953011312004+65783+024583FM-12+001599999V0202001N00311001501CN0110001N9-00111-00111100661ADDAY121999GF108991061061001501071999MD1810071+9999MW1031
0049028640999991953011318004+65783+024583FM-12+001599999V0203001N00311000601CN0034001N9+00001+00001100341ADDGF108991081999000751999999IA1139MD1810141+9999
0057028640999991953011400004+65783+024583FM-12+001599999V0202001N00311000151CN0002001N9-00111-00111100201ADDAY141999GF109991091999000251999999MD1810101+9999MW1471
0087028640999991953011406004+65783+024583FM-12+001599999V0202001N00671001501CN0200001N9+00001-00111099741ADDAA199001091AY121999GF108991061051001501021999IA1319KA1999N-00221MD1810341+9999MW1021
0057028640999991953011412004+65783+024583FM-12+001599999V0202201N00511220001CN0400001N9-00111-00281099521ADDAY111999GF103991021051004501071001MD1810151+9999MW1011
0076028640999991953011500004+65783+024583FM-12+001599999V0203401N00261220001CN0400001N9-00281-00281099441ADDAY111999GF102991999001999999071001MD1310191+9999MW1011EQDQ01+000002SCOTLC
0106028640999991953011506004+65783+024583FM-12+001599999V0203401N00101220001CN0400001N9-01221-01391099971ADDAA199002091AY101999GF101991999001999999071001IA1319KA1999N-01281MD1310211+9999MW1031EQDQ01+000002SCOTLC
0057028640999991953011512004+65783+024583FM-12+001599999V0200901N00311000151CN0008001N9-00781-00891100051ADDAY141999GF109991091999000251999999MD1710031+9999MW1431
0076028640999991953011518004+65783+024583FM-12+001599999V0200901N00411000601CN0070001N9-00611-00721100121ADDAY121999GF108991081061000751999999IA1319KA1999M-00611MD1710011+9999MW1021
0057028640999991953011600004+65783+024583FM-12+001599999V0200401N00411002401CN0140001N9-00611-00721100251ADDAY121999GF108991081051002501999999MD1310031+9999MW1021
0076028640999991953011606004+65783+024583FM-12+001599999V0200201N00261004501CN0200001N9-00891-01001100481ADDAY111999GF107991071051004501999999IA1319KA1999N-01001MD1310131+9999MW1031
0057028640999991953011612004+65783+024583FM-12+001599999V0200201N00101002401CN0200001N9-01221-01281100491ADDAY111999GF107991071061002501999999MD1810021+9999MW1031
0094028640999991953011700004+65783+024583FM-12+001599999V0202201N00721220001CN0400001N9+00001-00111099761ADDAY121999GF102991999001999999071001MW1011EQDQ01+000002SCOTLCQ02+000042APCTENQ03+000052APC3  
0106028640999991953011706004+65783+024583FM-12+001599999V0202701N00411220001CN0400001N9-00111-00281100241ADDAA199000591AY111999GF102991999001999999071001IA1319KA1999N-00391MD1210201+9999MW1031EQDQ01+000002SCOTLC
0057028640999991953011712004+65783+024583FM-12+001599999V0202301N00461220001CN0400001N9+00111+00001100261ADDAY121999GF107991001001999999071999MD1810061+9999MW1021
0076028640999991953011718004+65783+024583FM-12+001599999V0202701N00311030001CN0400001N9+00111+00001999999ADDAY111999GF106991021051008001071001IA1319KA1999M+00221MD1810121+9999MW1031
0057028640999991953011800004+65783+024583FM-12+001599999V0202001N00621004501CN0400001N9+00111-00111099341ADDAY121999GF108991081051004501999999MD1810391+9999MW1021
0122028640999991953011806004+65783+024583FM-12+001599999V0202001N00721002401CN0200001N9+00001+00001098112ADDAA199001091AY171999GF107991061071002501021999IA1319KA1999N-00111MD1810672+9999MW1011EQDQ01+098113APOSLPQ02+000672APC3  
0092028640999991953011812004+65783+024583FM-12+001599999V0202301N00721030001CN0400001N9+00111-00221999999ADDAY111999GF105991021051008001071001MD1810502+9999MW1011EQDQ01+097203APOSLPQ02+000502APC3  
0106028640999991953011818004+65783+024583FM-12+001599999V0203401N00461002401CN0024001N9+00001-00111098691ADDAA199001091AY171999GF108991071071002501021999IA1319KA1999M+00281MD1310582+9999MW1691EQDQ01+000582APC3  
0076028640999991953011900004+65783+024583FM-12+001599999V0203601N00621004501CN0400001N9-00391-00501099391ADDAY121999GF108991081051004501999999MD1310762+9999MW1031EQDQ01+000762APC3  
0057028640999991953011912004+65783+024583FM-12+001599999V0203201N00311030001CN0400001N9-00891-01281100711ADDAY111999GF105991031091004501041001MD1310271+9999MW1031
0076028640999991953011918004+65783+024583FM-12+001599999V0209991C00001220001CN0600001N9-02001-02281101201ADDAY101999GF101991001001999999001051IA1319KA1999M-00781MD1310191+9999MW1021
0057028640999991953012000004+65783+024583FM-12+001599999V0202701N00211220001CN0200001N9-01781-02001101051ADDAY101999GF100991001001999999001001MD1810181+9999MW1021
0122028640999991953012006004+65783+024583FM-12+001599999V0202001N01031007801CN0014001N9-00501-00611099762ADDAA199000691AY171999GF108991061051008001021999IA1319KA1999N-02281MD1810752+9999MW1381EQDQ01+099763APOSLPQ02+000752APC3  
0057028640999991953012012004+65783+024583FM-12+001599999V0202301N00931030001CN0400001N9+00111+00001098771ADDAY121999GF107991031051004501021999MD1810421+9999MW1021
0087028640999991953012018004+65783+024583FM-12+001599999V0202701N00771220001CN0400001N9+00001-00501098581ADDAA199000691AY101999GF100991001001999999001001IA1319KA1999M+00281MD1310031+9999MW1021
0057028640999991953012100004+65783+024583FM-12+001599999V0202701N00311220001CN0600001N9-00281-00501098341ADDAY101999GF100991001001999999001001MD1810121+9999MW1021
0076028640999991953012106004+65783+024583FM-12+001599999V0203201N00311220001CN0600001N9-00501-00721099011ADDAY101999GF102991021051004501999999IA1319KA1999N-00501MD1310491+9999MW1021
0057028640999991953012112004+65783+024583FM-12+001599999V0209991C00001030001CN0200001N9-01111-01221099391ADDAY111999GF107991011041017501071999MD1310111+9999MW1031
0076028640999991953012118004+65783+024583FM-12+001599999V0209991C00001220001CN0024001N9-02001+99999099411ADDAY141999GF100991001001999999001001IA1319KA1999M-00501MD1310031+9999MW1021
0057028640999991953012300004+65783+024583FM-12+001599999V0203201N00411220001CN0400001N9-02111+99999099541ADDAY101999GF107991001001999999071071MD1310071+9999MW1001
0095028640999991953012306004+65783+024583FM-12+001599999V0203201N00411220001CN0400001N9-00721-01001099591ADDAY101999GF102991999001999999071001IA1319KA1999N-02221MD1310071+9999MW1021EQDQ01+000002SCOTLC
0057028640999991953012312004+65783+024583FM-12+001599999V0203601N00411220001CN0400001N9-00781-01001099881ADDAY111999GF104991001001999999071051MD1310151+9999MW1011
0076028640999991953012318004+65783+024583FM-12+001599999V0209991C00001220001CN0400001N9-01891-02001100021ADDAY101999GF100991001001999999001001IA1319KA1999M-00721MD1310011+9999MW1021
0076028640999991953012400004+65783+024583FM-12+001599999V0209991C00001220001CN0400001N9-02001-02221099981ADDAY111999GF105991999001999999071001MD1810041+9999MW1021EQDQ01+000002SCOTLC
0095028640999991953012406004+65783+024583FM-12+001599999V0203601N00101220001CN0400001N9-02001-02221099921ADDAY111999GF102991999001999999071001IA1319KA1999N-02611MD1710011+9999MW1031EQDQ01+000002SCOTLC
0076028640999991953012412004+65783+024583FM-12+001599999V0203601N00101220001CN0400001N9-01891-02111100111ADDAY111999GF102991999001999999071001MD1310061+9999MW1021EQDQ01+000002SCOTLC
0076028640999991953012418004+65783+024583FM-12+001599999V0203601N00101220001CN0600001N9-02281+99999100191ADDAY101999GF100991001001999999001001IA1319KA1999M-01891MD1310031+9999MW1011
0057028640999991953012500004+65783+024583FM-12+001599999V0209991C00001220001CN0600001N9-02611+99999100181ADDAY101999GF100991001001999999001001MD1710031+9999MW1021
0076028640999991953012506004+65783+024583FM-12+001599999V0209991C00001030001CN0600001N9-01891-02111100061ADDAY101999GF106991031051004501071001IA1319KA1999N-02891MD1810011+9999MW1031
0057028640999991953012512004+65783+024583FM-12+001599999V0203601N00101030001CN0400001N9-01611-01781100481ADDAY171999GF107991021051004501021001MD1310111+9999MW1711
0087028640999991953012518004+65783+024583FM-12+001599999V0209991C00001220001CN0600001N9-01891-02111100641ADDAA199000691AY111999GF107991001001999999001071IA1319KA1999M-01111MD1310071+9999MW1031
0095028640999991953012606004+65783+024583FM-12+001599999V0203401N00101220001CN0600001N9-02501+99999100861ADDAY111999GF106991999001999999071001IA1319KA1999N-02781MD1310081+9999MW1031EQDQ01+000002SCOTLC
0057028640999991953012612004+65783+024583FM-12+001599999V0209991C00001220001CN0080001N9-02001-02221100811ADDAY121999GF107991001001999999071999MD1810111+9999MW1021
0076028640999991953012618004+65783+024583FM-12+001599999V0201601N00261220001CN0400001N9-01781-02001100521ADDAY121999GF107991001001999999071061IA1319KA1999M-01781MD1810191+9999MW1021
0057028640999991953012700004+65783+024583FM-12+001599999V0201401N00311002401CN0400001N9-01501-01721100091ADDAY121999GF108991081061002501999999MD1810271+9999MW1021
0087028640999991953012706004+65783+024583FM-12+001599999V0201401N00721030001CN0024001N9-01391-01611099351ADDAA199002091AY131999GF108991021071004501021999IA1319KA1999N-01781MD1810381+9999MW1731
0057028640999991953012712004+65783+024583FM-12+001599999V0201401N010319999999N0010001N9-01281-01501098641ADDAY171999GF108991999999999999021999MD1810331+9999MW1751
0087028640999991953012718004+65783+024583FM-12+001599999V0201401N00821001501CN0034001N9-01001-01221098111ADDAA199001091AY171999GF108991051071001501021999IA1319KA1999M-01001MD1810181+9999MW1711
0087028640999991953012806004+65783+024583FM-12+001599999V0201101N00511007801CN0024001N9-00891-01111097441ADDAA199000591AY171999GF108991081051008001999999IA1319KA1999N-01001MD1810181+9999MW1731
0057028640999991953012812004+65783+024583FM-12+001599999V0200901N00411030001CN0200001N9-00891-01111097421ADDAY121999GF108991031051004501021999MD1710021+9999MW1711
0087028640999991953012818004+65783+024583FM-12+001599999V0200901N00311004501CN0050001N9-01001-01221097661ADDAA199001091AY171999GF108991051071004501021999IA1319KA1999M-00781MD1310181+9999MW1731
0076028640999991953012900004+65783+024583FM-12+001599999V0200901N00101220001CN0600001N9-01391-01611097941ADDAY111999GF105991999001999999071001MD1310181+9999MW1021EQDQ01+000002SCOTLC
0079028640999991953012906004+65783+024583FM-12+001599999V0200501N00311220001CN0600001N9-01781-02001098161ADDAA199000591GF102991001001999999071011IA1319KA1999N-01891MD1310081+9999MW1021
0057028640999991953012912004+65783+024583FM-12+001599999V0200201N00101220001CN0200001N9-01781-02001098491ADDAY111999GF106991001001999999071999MD1310161+9999MW1031
0095028640999991953012918004+65783+024583FM-12+001599999V0200201N00151220001CN0400001N9-02221+99999098791ADDAY101999GF101991999001999999041001IA1319KA1999M-01611MD1310211+9999MW1021EQDQ01+000002SCOTLC
0076028640999991953013000004+65783+024583FM-12+001599999V0200901N00311220001CN0600001N9-02111+99999098981ADDAY111999GF103991999001999999071001MD1310051+9999MW1011EQDQ01+000002SCOTLC
0076028640999991953013006004+65783+024583FM-12+001599999V0200901N00311007801CN0400001N9-01891-02111099211ADDAY121999GF107991051051008001071999IA1319KA1999N-02501MD1310141+9999MW1021
0057028640999991953013012004+65783+024583FM-12+001599999V0200901N00411220001CN0200001N9-01391-01721099521ADDAY121999GF108991001001999999021999MD1310151+9999MW1701
0087028640999991953013018004+65783+024583FM-12+001599999V0200901N00361030001CN0140001N9-01501-01781099971ADDAA199000391AY171999GF108991041051008001021999IA1319KA1999M-01391MD1310221+9999MW1711
0057028640999991953013100004+65783+024583FM-12+001599999V0200901N00311004501CN0400001N9-01721-01891100251ADDAY121999GF108991081051004501999999MD1310141+9999MW1031
0076028640999991953013106004+65783+024583FM-12+001599999V0200701N00211030001CN0400001N9-01721-01891100401ADDAY121999GF108991021051004501071999IA1319KA1999N-01781MD1310061+9999MW1021
0057028640999991953013112004+65783+024583FM-12+001599999V0200901N00311220001CN0200001N9-01781-02111100481ADDAY121999GF106991001001999999051999MD1310061+9999MW1011
0076028640999991953013118004+65783+024583FM-12+001599999V0200901N00211220001CN0400001N9-02001+99999100591ADDAY101999GF101991001001999999001011IA1319KA1999M-01721MD1310051+9999MW1021
0057028640999991953020100004+65783+024583FM-12+001599999V0200901N00211220001CN0400001N9-02001-02221100821ADDAY121999GF108991001001999999071999MD1310111+9999MW1031
0076028640999991953020106004+65783+024583FM-12+001599999V0200901N00261220001CN0400001N9-01891-02221101021ADDAY121999GF108991001001999999071999IA1319KA1999N-02111MD1310081+9999MW1031
0057028640999991953020112004+65783+024583FM-12+001599999V0200901N00411220001CN0400001N9-01721-01891101341ADDAY121999GF108991001001999999071051MD1310151+9999MW1021
0087028640999991953020118004+65783+024583FM-12+001599999V0200901N00211007801CN0200001N9-01721-01891101741ADDAA199000691AY171999GF108991081051008001999999IA1319KA1999M-01391MD1310271+9999MW1711
0057028640999991953020200004+65783+024583FM-12+001599999V0200901N00101220001CN0400001N9-01391-01611102121ADDAY121999GF108991001001999999021999MD1310211+9999MW1021
0095028640999991953020206004+65783+024583FM-12+001599999V0200901N00211220001CN0400001N9-01611-01611102491ADDAY121999GF108991001001999999021999IA1319KA1999N+99999MD1310221+9999MW1021EQDQ01 -01502ATMN  
0057028640999991953020212004+65783+024583FM-12+001599999V0200201N00101220001CN0060001N9-01221-01391102881ADDAY171999GF107991001001999999021999MD1310111+9999MW1711
0087028640999991953020218004+65783+024583FM-12+001599999V0200201N00211220001CN0140001N9-02111+99999103171ADDAA199000391AY101999GF100991001001999999001001IA1319KA1999M-01111MD1310121+9999MW1021
0057028640999991953020300004+65783+024583FM-12+001599999V0200201N00211220001CN0600001N9-02501+99999103251ADDAY101999GF100991001001999999001001MD1310061+9999MW1021
0087028640999991953020306004+65783+024583FM-12+001599999V0200201N00101000601CN0110001N9-01721-01891103111ADDAA199000691AY121999GF108991071061000751021999IA1319KA1999N-02611MD1810081+9999MW1701
0057028640999991953020312004+65783+024583FM-12+001599999V0200701N00101002401CN0110001N9-01721-01891102941ADDAY121999GF108991051061002501071999MD1990171+9999MW1021
0095028640999991953020318004+65783+024583FM-12+001599999V0201101N00101220001CN0140001N9-02001-02221102401ADDAY111999GF102991999001999999071001IA1319KA1999M-01611MD1810271+9999MW1021EQDQ01+000002SCOTLC
0057028640999991953020400004+65783+024583FM-12+001599999V0201101N00311220001CN0400001N9-02001-02221102111ADDAY111999GF107991001001999999071071MD1810071+9999MW1021
0087028640999991953020406004+65783+024583FM-12+001599999V0200901N00411220001CN0200001N9-01891-02111102211ADDAA199000691AY171999GF108991001001999999021999IA1319KA1999N-02111MD1310071+9999MW1021
0057028640999991953020412004+65783+024583FM-12+001599999V0200901N00411220001CN0200001N9-01891-02111102491ADDAY121999GF107991001001999999051999MD1810161+9999MW1021
0097028640999991953020418004+65783+024583FM-12+001599999V0200501N00101220001CN0200001N9-02721+99999102521ADDAY111999GF100991001001999999001001IA1319KA1999M-01721MW1011EQDQ01+000032APCTENQ02+000002APC3  
0057028640999991953020500004+65783+024583FM-12+001599999V0200501N00261220001CN0400001N9-03221+99999102491ADDAY101999GF100991001001999999001001MD1310011+9999MW1021
0076028640999991953020506004+65783+024583FM-12+001599999V0200501N00101220001CN0200001N9-03391+99999102451ADDAY101999GF100991001001999999001001IA1319KA1999N-03611MD1810051+9999MW1021
0076028640999991953020600004+65783+024583FM-12+001599999V0200201N00101220001CN0400001N9-02781+99999102381ADDAY121999GF102991999001999999041001MD1310031+9999MW1021EQDQ01+000002SCOTLC
0113028640999991953020606004+65783+024583FM-12+001599999V0200201N00311220001CN0400001N9-02221+99999102321ADDAY111999GF103991999001999999041001IA1319KA1999N-02891MW1011EQDQ01+000002SCOTLCQ02+000042APCTENQ03+000092APC3  
0035028640999991953020612004+65783+024583FM-12+001599999V0200401N00211030001CN0150001N9+99999+99999102401ADDGF106991021051022501071021MW1221
0106028640999991953020618004+65783+024583FM-12+001599999V0200201N00151220001CN0140001N9-02281+99999102551ADDAA199000391AY171999GF102991999001999999071001IA1319KA1999M-01891MD1810011+9999MW1701EQDQ01+000002SCOTLC
0057028640999991953020700004+65783+024583FM-12+001599999V0200201N00211220001CN0400001N9-02891+99999102591ADDAY101999GF100991001001999999001001MD1310051+9999MW1011
0106028640999991953020706004+65783+024583FM-12+001599999V0200201N00311220001CN0400001N9-03001+99999102661ADDAA199000691AY101999GF102991999001999999071001IA1319KA1999N-03281MD1310011+9999MW1031EQDQ01+000002SCOTLC
0057028640999991953020712004+65783+024583FM-12+001599999V0200401N00411220001CN0400001N9-02221+99999102661ADDAY111999GF108991001001999999071999MD1810061+9999MW1031
0095028640999991953020718004+65783+024583FM-12+001599999V0200401N00311220001CN0400001N9-02221+99999102711ADDAY111999GF103991999001999999071001IA1319KA1999M-02221MD1310041+9999MW1021EQDQ01+000002SCOTLC
0057028640999991953020800004+65783+024583FM-12+001599999V0200701N00411220001CN0110001N9-02001-02221102921ADDAY171999GF108991001001999999021999MD1310041+9999MW1711
0087028640999991953020806004+65783+024583FM-12+001599999V0200401N00261004501CN0110001N9-02221+99999103001ADDAA199001091AY111999GF108991081061004501999999IA1319KA1999N-02281MD1310051+9999MW1711
0078028640999991953020812004+65783+024583FM-12+001599999V0200901N00311220001CN0140001N9-01781-02111103061ADDAY171999GF108991001001999999021999MW1711EQDQ01+000032APCTENQ02+000002APC3  
0087028640999991953020818004+65783+024583FM-12+001599999V0200401N00311220001CN0400001N9-02391+99999103081ADDAA199000591AY111999GF100991001001999999001001IA1319KA1999M-01781MD1310051+9999MW1021
0057028640999991953020900004+65783+024583FM-12+001599999V0200401N00311220001CN0200001N9-02111+99999103201ADDAY171999GF100991001001999999001001MD1310091+9999MW1021
0087028640999991953020906004+65783+024583FM-12+001599999V0200901N00411220001CN0110001N9-01611-01891102911ADDAA199000591AY171999GF106991001001999999071999IA1319KA1999N-02391MD1810071+9999MW1711
0057028640999991953020912004+65783+024583FM-12+001599999V0200901N00821220001CN0400001N9-01781-02111102951ADDAY121999GF107991001001999999071999MD1990051+9999MW1011
0076028640999991953020918004+65783+024583FM-12+001599999V0201101N00411220001CN0400001N9-01721-02001102771ADDAY121999GF106991001001999999071999IA1319KA1999M-01611MD1810041+9999MW1011
0078028640999991953021000004+65783+024583FM-12+001599999V0200901N00211220001CN0160001N9-01781-02001102821ADDAY111999GF108991001001999999071999MW1701EQDQ01+000032APCTENQ02+000002APC3  
0087028640999991953021006004+65783+024583FM-12+001599999V0201101N00361220001CN0200001N9-01781-02001102851ADDAA199000391AY171999GF108991001001999999021999IA1319KA1999N-01891MD1310031+9999MW1221
0092028640999991953021018004+65783+024583FM-12+001599999V0200901N004119999999N0034001N9-01221-01611102241ADDAA199002091GF108991999999999999021999IA1319KA1999M+99999MD1810261+9999EQDQ01 -01392ATMX  
0057028640999991953021100004+65783+024583FM-12+001599999V0201101N00411030001CN0044001N9-01501-01611102061ADDAY171999GF108991041071004501021999MD1810011+9999MW1731
0087028640999991953021106004+65783+024583FM-12+001599999V0201401N00411030001CN0140001N9-01391-01721102281ADDAA199002091AY171999GF108991041051004501021999IA1319KA1999N-01391MD1310091+9999MW1711
0057028640999991953021112004+65783+024583FM-12+001599999V0201401N00311030001CN0060001N9-01281-01501102611ADDAY171999GF108991031051008001071999MD1310101+9999MW1711
0106028640999991953021118004+65783+024583FM-12+001599999V0201401N00211220001CN0200001N9-01721-01891102881ADDAA199000591AY171999GF102991999001999999071001IA1319KA1999M-01221MD1310151+9999MW1011EQDQ01+000002SCOTLC
0057028640999991953021200004+65783+024583FM-12+001599999V0201101N00211220001CN0400001N9-02111+99999103191ADDAY101999GF100991001001999999001001MD1310091+9999MW1021
0095028640999991953021206004+65783+024583FM-12+001599999V0201401N00101220001CN0200001N9-02281+99999103361ADDAY101999GF104991999001999999071001IA1319KA1999N-02501MD1310061+9999MW1031EQDQ01+000002SCOTLC
0057028640999991953021212004+65783+024583FM-12+001599999V0200501N00211220001CN0070001N9-01501-01611103521ADDAY171999GF108991001001999999021999MD1810101+9999MW1711
0087028640999991953021218004+65783+024583FM-12+001599999V0201101N00101220001CN0044001N9-01221-01391103181ADDAA199001091AY171999GF108991001001999999021999IA1319KA1999M-01221MD1810071+9999MW1711
0057028640999991953021300004+65783+024583FM-12+001599999V0201401N00411220001CN0110001N9-01221-01391102881ADDAY121999GF108991001001999999021999MD1810141+9999MW1701
0087028640999991953021306004+65783+024583FM-12+001599999V0201801N00621030001CN0060001N9-01281-01501102651ADDAA199002091AY171999GF108991031051004501021061IA1319KA1999N-01391MD1810041+9999MW1711
0057028640999991953021312004+65783+024583FM-12+001599999V0201001N00411030001CN0140001N9-01221-01391102511ADDAY171999GF108991031051004501021999MD1810081+9999MW1711
0087028640999991953021318004+65783+024583FM-12+001599999V0202001N00621030001CN0200001N9-01281-01501102261ADDAA199001091AY171999GF108991041051004501021999IA1319KA1999M-01221MD1810141+9999MW1711
0076028640999991953021400004+65783+024583FM-12+001599999V0202001N00411220001CN0400001N9-01611-01781101861ADDAY121999GF102991999001999999071001MD1810151+9999MW1011EQDQ01+000002SCOTLC
0076028640999991953021406004+65783+024583FM-12+001599999V0201801N00511220001CN0400001N9-01781-02001101401ADDAY111999GF103991001001999999001051IA1319KA1999N-02001MD1810271+9999MW1021
0095028640999991953021418004+65783+024583FM-12+001599999V0202501N00101220001CN0140001N9-01781-02001101021ADDAY111999GF103991999001999999071001IA1319KA1999M-01391MD1810011+9999MW1021EQDQ01+000002SCOTLC
0057028640999991953021500004+65783+024583FM-12+001599999V0202001N00101220001CN0600001N9-02611+99999101121ADDAY101999GF100991001001999999001001MD1310091+9999MW1021
0095028640999991953021506004+65783+024583FM-12+001599999V0209991C00001220001CN0400001N9-02781+99999101261ADDAY101999GF101991999001999999071001IA1319KA1999N-02891MD1310111+9999MW1031EQDQ01+000002SCOTLC
0076028640999991953021512004+65783+024583FM-12+001599999V0202001N00151220001CN0200001N9-01781-02001101441ADDAY111999GF106991999001999999041001MD1310051+9999MW1031EQDQ01+000002SCOTLC
0095028640999991953021518004+65783+024583FM-12+001599999V0202001N00211220001CN0400001N9-01611-01781101281ADDAY111999GF103991999001999999071001IA1319KA1999M-01611MD1810101+9999MW1011EQDQ01+000002SCOTLC
0057028640999991953021600004+65783+024583FM-12+001599999V0209991C00001220001CN0400001N9-02221+99999101211ADDAY101999GF100991001001999999001001MD1810031+9999MW1011
0082028640999991953021606004+65783+024583FM-12+001599999V0200901N00151220001CN0034001N9-02391+99999101241ADDAY111999GF106991999001999999051001IA1319MD1310041+9999MW1031EQDQ01+000002SCOTLC
0057028640999991953021612004+65783+024583FM-12+001599999V0209991C00001000601CN0110001N9-01391-01611101191ADDAY121999GF108991081061000751999999MD1810071+9999MW1021
0087028640999991953021618004+65783+024583FM-12+001599999V0201101N00411220001CN0400001N9-01611-01721100851ADDAA199000691AY111999GF108991001001999999021999IA1009KA1999M-01281MD1810171+9999MW1031
0057028640999991953021700004+65783+024583FM-12+001599999V0201101N00621002401CN0024001N9+99999+99999100251ADDAY121999GF108991071071002501999999MD1810331+9999MW1731
0087028640999991953021706004+65783+024583FM-12+001599999V0201001N00411220001CN0044001N9-00891-01001099641ADDAA199001091AY171999GF108991001001999999021999IA1319KA1999N-01611MD1810271+9999MW1711
0057028640999991953021712004+65783+024583FM-12+001599999V0201101N00411030001CN0080001N9-00391-00721099291ADDAY171999GF108991021051004501031999MD1810151+9999MW1711
0087028640999991953021718004+65783+024583FM-12+001599999V0201101N00461030001CN0140001N9-00501-00611099141ADDAA199001091AY171999GF108991041071004501021999IA1319KA1999M-00501MD1810051+9999MW1711
0043028640999991953021800004+65783+024583FM-12+001599999V0201601N00311001501CN0050001N9+99999+99999099181ADDAY171999GF108991081041001501999999MW1711
0108028640999991953021806004+65783+024583FM-12+001599999V0201401N00311001501CN0050001N9-00501-00611099191ADDAA199002091AY171999GF108991081061001501999999IA1319KA1999N-00611MW1711EQDQ01+000032APCTENQ02+000002APC3  
0057028640999991953021812004+65783+024583FM-12+001599999V0202001N00261001501CN0060001N9-00611-00721099191ADDAY171999GF108991081061001501999999MD1710011+9999MW1711
0087028640999991953021818004+65783+024583FM-12+001599999V0201601N00261000601CN0024001N9-00391-00501098801ADDAA199000591AY171999GF108991081061000751999999IA1319KA1999M-00391MD1810251+9999MW1691
0057028640999991953021900004+65783+024583FM-12+001599999V0201601N00411000601CN0018001N9-00501-00611098241ADDAY171999GF108991081061000751999999MD1810281+9999MW1731
0087028640999991953021906004+65783+024583FM-12+001599999V0200901N00211004501CN0018001N9-00721-00781098161ADDAA199004091AY171999GF108991061061004501999999IA1319KA1999N-00721MD1310021+9999MW1731
0057028640999991953021912004+65783+024583FM-12+001599999V0200201N00311004501CN0034001N9-00721-00781098411ADDAY171999GF108991061071004501021999MD1310191+9999MW1731
0057028640999991953022000004+65783+024583FM-12+001599999V0203601N00411220001CN0200001N9-00781-00891099361ADDAY171999GF108991001001999999021999MD1310331+9999MW1221
0092028640999991953022006004+65783+024583FM-12+001599999V0203201N00261220001CN0400001N9-01281-01611098911ADDAA199001091AY111999GF102991999001999999071001IA1319KA1999N-01281MW1011EQDQ01+000002SCOTLC
0057028640999991953022012004+65783+024583FM-12+001599999V0202001N00151220001CN0400001N9-01111-01721999999ADDAY101999GF102991001001999999001011MD1310041+9999MW1031
0095028640999991953022018004+65783+024583FM-12+001599999V0201401N00311220001CN0400001N9-02001-02001099801ADDAY101999GF102991999001999999041001IA1319KA1999M-00721MD1810191+9999MW1021EQDQ01+000002SCOTLC
0057028640999991953022100004+65783+024583FM-12+001599999V0201401N00261220001CN0400001N9-01721-01891099521ADDAY111999GF104991001001999999001061MD1810161+9999MW1021
0057028640999991953022112004+65783+024583FM-12+001599999V0201601N00621004501CN0060001N9-00721-00781098751ADDAY171999GF108991061051004501021999MD1810251+9999MW1711
0087028640999991953022118004+65783+024583FM-12+001599999V0201601N00621030001CN0018001N9-00611-00721098461ADDAA199001091AY171999GF108991021071004501021999IA1319KA1999M-00611MD1810081+9999MW1731
0057028640999991953022200004+65783+024583FM-12+001599999V0201401N00211220001CN0044001N9-00611-00781098641ADDAY171999GF108991001001999999011999MD1310201+9999MW1731
0087028640999991953022206004+65783+024583FM-12+001599999V0200901N00211220001CN0014001N9-00781-00891099211ADDAA199003091AY171999GF108991001001999999021999IA1319KA1999N-00781MD1310271+9999MW1731
0057028640999991953022212004+65783+024583FM-12+001599999V0200901N00101004501CN0140001N9-00781-00891099621ADDAY121999GF107991061051004501071999MD1310181+9999MW1021
0087028640999991953022218004+65783+024583FM-12+001599999V0200901N00211220001CN9999999N9-00891-01001099911ADDAA199002091AY171999GF108991001001999999021999IA1319KA1999M-00721MD1310121+9999MW1711
0057028640999991953022300004+65783+024583FM-12+001599999V0200901N00101220001CN0080001N9-01001-01111100261ADDAY171999GF108991001001999999021999MD1310141+9999MW1711
0087028640999991953022306004+65783+024583FM-12+001599999V0209991C00001004501CN0200001N9-00721-00891100491ADDAA199001091AY121999GF108991051051004501071071IA1319KA1999N-00721MD1310131+9999MW1021
0076028640999991953022312004+65783+024583FM-12+001599999V0209991C00001220001CN0400001N9-01111-01391100621ADDAY111999GF102991999001999999041001MD1010041+9999MW1011EQDQ01+000002SCOTLC
0097028640999991953022318004+65783+024583FM-12+001599999V0209991C00001220001CN0000001N9-02221+99999100661ADDAY111999GF100991001001999999001001IA1319KA1999M-00781MW1461EQDQ01+000022APCTENQ02+000002APC3  
0057028640999991953022400004+65783+024583FM-12+001599999V0209991C00001000151CN0002001N9-02111+99999100941ADDAY141999GF109991091999000251999999MD1310151+9999MW1451
0076028640999991953022406004+65783+024583FM-12+001599999V0209991C00001001501CN0080001N9-01891-02111101351ADDAY121999GF108991081061001501999999IA1319KA1999N-02391MD1310241+9999MW1021
0057028640999991953022412004+65783+024583FM-12+001599999V0201401N00101030001CN0200001N9-01281-01501101841ADDAY121999GF108991021051004501021999MD1310221+9999MW1021
0076028640999991953022418004+65783+024583FM-12+001599999V0201401N00311004501CN0200001N9-01221-01281102121ADDAY121999GF108991061051004501071999IA1319KA1999M-01221MD1310111+9999MW1021
0057028640999991953022500004+65783+024583FM-12+001599999V0201801N00361004501CN0200001N9-00781-00891102141ADDAY121999GF108991081051004501999999MD1810061+9999MW1021
0087028640999991953022506004+65783+024583FM-12+001599999V0201801N00511001501CN0050001N9-00501-00721101811ADDAA199000691AY171999GF108991081061001501999999IA1319KA1999N-01221MD1810121+9999MW1711
0057028640999991953022512004+65783+024583FM-12+001599999V0201801N00821001501CN0008001N9-00281-00391101321ADDAY121999GF108991081061001501999999MD1810261+9999MW1571
0087028640999991953022518004+65783+024583FM-12+001599999V0202001N00621001501CN0034001N9+00001+00001100851ADDAA199002091AY171999GF108991081061001501999999IA1319KA1999M+00001MD1810241+9999MW1691
0078028640999991953022600004+65783+024583FM-12+001599999V0202201N00101220001CN0008001N9-00111-00111100941ADDAY121999GF100991001001999999001001MW1441EQDQ01+000042APCTENQ02+000142APC3  
0106028640999991953022606004+65783+024583FM-12+001599999V0202301N00311220001CN0400001N9-00501-00611101201ADDAA199004091AY101999GF101991999001999999071001IA1319KA1999N-01111MD1310111+9999MW1031EQDQ01+000002SCOTLC
0057028640999991953022612004+65783+024583FM-12+001599999V0202001N00461220001CN0400001N9+00001-00111100981ADDAY121999GF107991001001999999071999MD1990281+9999MW1021
0122028640999991953022618004+65783+024583FM-12+001599999V0202301N01231220001CN0400001N9+00111+00001099802ADDAA199001091AY111999GF102991001001999999001041IA1209KA1999M+00221MD1810652+9999MW1181EQDQ01+099803APOSLPQ02+000652APC3  
0078028640999991953022700004+65783+024583FM-12+001599999V0202901N00931220001CN0400001N9+00501-00391099911ADDAY101999GF100991001001999999001001MW1021EQDQ01+000042APCTENQ02+000372APC3  
0095028640999991953022706004+65783+024583FM-12+001599999V0202901N00411220001CN0400001N9+00111-00611100921ADDAY101999GF102991999001999999071001IA1209KA1999N+00001MD1310471+9999MW1031EQDQ01+000002SCOTLC
0076028640999991953022712004+65783+024583FM-12+001599999V0202701N00571220001CN0400001N9-00111-00281101351ADDAY111999GF104991999001999999041001MD1310171+9999MW1011EQDQ01+000002SCOTLC
0076028640999991953022718004+65783+024583FM-12+001599999V0202701N00411220001CN0400001N9-00111-00501101581ADDAY111999GF108991001001999999071999IA1319KA1999M+00001MD1010091+9999MW1031
0076028640999991953022800004+65783+024583FM-12+001599999V0202701N00411220001CN0400001N9-00221-00611101591ADDAY111999GF101991999001999999041001MD1810011+9999MW1011EQDQ01+000002SCOTLC
0076028640999991953022806004+65783+024583FM-12+001599999V0202901N00101220001CN0400001N9-00611-00781102141ADDAY101999GF102991001001999999041011IA1319KA1999N-00781MD1310341+9999MW1021
0057028640999991953022812004+65783+024583FM-12+001599999V0202701N00311220001CN0400001N9-00221-00501102351ADDAY121999GF107991001001999999041071MD1990071+9999MW1031
0076028640999991953022818004+65783+024583FM-12+001599999V0202201N00621030001CN0400001N9+00111-00221101691ADDAY121999GF107991031051012501071999IA1319KA1999M+00111MD1810281+9999MW1021
0057028640999991953030100004+65783+024583FM-12+001599999V0202501N00621220001CN0400001N9+00221+00001101241ADDAY121999GF107991001001999999071999MD1810041+9999MW1021
0076028640999991953030106004+65783+024583FM-12+001599999V0202301N00721220001CN0400001N9+00221+00001101001ADDAY111999GF104991011051004501041001IA1319KA1999N+00001MD1810091+9999MW1011
0057028640999991953030112004+65783+024583FM-12+001599999V0202701N00571075001CN0400001N9+00281+00111100921ADDAY111999GF106991011051008001041061MD1810031+9999MW1031
0095028640999991953030118004+65783+024583FM-12+001599999V0202901N00311220001CN0400001N9-00221-00611101171ADDAY111999GF102991999001999999041001IA1319KA1999M+00501MD1310131+9999MW1011EQDQ01+000002SCOTLC
0076028640999991953030212004+65783+024583FM-12+001599999V0201801N00361030001CN0400001N9+00001+00001100091ADDAY121999GF106991011061001501041051MD1810512+9999MW1011EQDQ01+000512APC3  
0057028640999991953030300004+65783+024583FM-12+001599999V0203201N00821002401CN0050001N9+00221+00111098191ADDAY121999GF108991051071002501021999MD1810191+9999MW1691
0087028640999991953030306004+65783+024583FM-12+001599999V0203601N00931030001CN0400001N9-00391-01221099361ADDAA199001091AY131999GF106991031051004501071001IA1319KA1999N-00501MD1310201+9999MW1011
0057028640999991953030312004+65783+024583FM-12+001599999V0203601N01131004501CN0400001N9-00611-01281100391ADDAY131999GF107991071051004501999999MD1310451+9999MW1031
0087028640999991953030318004+65783+024583FM-12+001599999V0203601N00511220001CN0400001N9-00781-01391100861ADDAA199000391AY131999GF101991011051004501001001IA1319KA1999M-00391MD1310191+9999MW1011
0095028640999991953030406004+65783+024583FM-12+001599999V0203201N00211220001CN0400001N9-01501-01611101461ADDAY101999GF102991999001999999071001IA1209KA1999N-02001MD1310061+9999MW1011EQDQ01+000002SCOTLC
0076028640999991953030412004+65783+024583FM-12+001599999V0200201N00311220001CN0400001N9-00611-01221101141ADDAY101999GF101991999001999999041001MD1310161+9999MW1021EQDQ01+000002SCOTLC
0076028640999991953030418004+65783+024583FM-12+001599999V0209991C00001220001CN0200001N9-01611-01781102091ADDAY101999GF100991001001999999001001IA1209KA1999M-00501MD1310301+9999MW1021
0057028640999991953030500004+65783+024583FM-12+001599999V0209991C00001220001CN0400001N9-02281+99999102291ADDAY101999GF100991001001999999001001MD1310031+9999MW1021
0076028640999991953030506004+65783+024583FM-12+001599999V0201801N00411220001CN0400001N9-01501-01721101851ADDAY121999GF107991001001999999071999IA1319KA1999N-02391MD1810341+9999MW1021
0057028640999991953030512004+65783+024583FM-12+001599999V0202701N00261030001CN0400001N9-00391-00501101461ADDAY111999GF106991011051002501071021MD1810171+9999MW1011
0057028640999991953030600004+65783+024583FM-12+001599999V0209991C00001220001CN0400001N9-01001-01111101201ADDAY111999GF100991001001999999001001MD1810151+9999MW1011
0076028640999991953030606004+65783+024583FM-12+001599999V0201601N00361075001CN0400001N9-00281-00281100591ADDAY111999GF106991021061004501071061IA1209KA1999N-01111MD1810371+9999MW1011
0057028640999991953030612004+65783+024583FM-12+001599999V0202301N00821030001CN0200001N9+00391+00111099841ADDAY161999GF108991021071004501021999MD1810381+9999MW1611
0076028640999991953030712004+65783+024583FM-12+001599999V0203601N00721220001CN0600001N9+00281-00111101091ADDAY101999GF101991011011008001001001MD1310502+9999MW1021EQDQ01+000502APC3  
0076028640999991953030900004+65783+024583FM-12+001599999V0202301N00211220001CN0400001N9+00111+00001099721ADDAY101999GF102991999001999999041001MD1810331+9999MW1021EQDQ01+000002SCOTLC
0095028640999991953030906004+65783+024583FM-12+001599999V0202701N00931220001CN0400001N9+00221-00111098991ADDAY111999GF102991999001999999041001IA1319KA1999N-00221MD1810441+9999MW1021EQDQ01+000002SCOTLC
0070028640999991953030912004+65783+024583FM-12+001599999V0203201N00771030001CN0200001N9+00281-00221098681ADDGF108991041051004501021999MW1681EQDQ01+000042APCTENQ02+000082APC3  
0122028640999991953030918004+65783+024583FM-12+001599999V0203601N00821030001CN0400001N9+00001-00501100202ADDAA199001091AY121999GF106991041051004501071999IA1319KA1999M+00391MD1310792+9999MW1011EQDQ01+100203APOSLPQ02+000792APC3  
0057028640999991953031012004+65783+024583FM-12+001599999V0203601N00311220001CN0600001N9-00391-00891102461ADDAY101999GF100991001001999999001001MD1310131+9999MW1011
0076028640999991953031112004+65783+024583FM-12+001599999V0209991C00001220001CN0600001N9-00611-01221102611ADDAY111999GF101991999001999999041001MD1310091+9999MW1021EQDQ01+000002SCOTLC
0095028640999991953031118004+65783+024583FM-12+001599999V0209991C00001220001CN0034001N9-01721-02001102691ADDAY101999GF101991999001999999041001IA1319KA1999M-00391MD1310031+9999MW1051EQDQ01+000002SCOTLC
0057028640999991953031200004+65783+024583FM-12+001599999V0209991C00001220001CN0400001N9-02111+99999102751ADDAY101999GF100991001001999999001001MD1310011+9999MW1021
0095028640999991953031206004+65783+024583FM-12+001599999V0209991C00001220001CN0140001N9-02221+99999102791ADDAY101999GF101991999001999999071001IA1209KA1999N-02501MD1210021+9999MW1051EQDQ01+000002SCOTLC
0057028640999991953031212004+65783+024583FM-12+001599999V0201801N00411220001CN0400001N9-01001-01501102641ADDAY121999GF107991001001999999071999MD1990091+9999MW1021
0076028640999991953031218004+65783+024583FM-12+001599999V0201801N00511007801CN0400001N9-00721-01111102151ADDAY121999GF108991051061008001071999IA1009KA1999M-00721MD1810231+9999MW1021
0078028640999991953031300004+65783+024583FM-12+001599999V0201801N00211000151CN0034001N9-00391-00391102021ADDAY121999GF108991081061000251999999MW1021EQDQ01+000042APCTENQ02+000052APC3  
0087028640999991953031306004+65783+024583FM-12+001599999V0201801N001019999999N0024001N9-00781-00891102161ADDAA199000691AY141999GF107991021061999999071999IA1319KA1999N-00891MD1010001+9999MW1281
0057028640999991953031312004+65783+024583FM-12+001599999V0202701N999999999999N0400001N9+00391-00221101811ADDAY111999GF107991999051008001071001MD1810241+9999MW1031
0076028640999991953031318004+65783+024583FM-12+001599999V0202001N00261220001CN0400001N9+00111-00221101411ADDAY111999GF108991001001999999071999IA1319KA1999M+00501MD1810311+9999MW1031
0076028640999991953031400004+65783+024583FM-12+001599999V0202501N00821220001CN0400001N9+00391+00281100851ADDAY121999GF102991999001999999061001MD1810231+9999MW1011EQDQ01+000002SCOTLC
0097028640999991953031406004+65783+024583FM-12+001599999V0202901N00821220001CN0400001N9+00391-00501101021ADDAY101999GF100991001001999999001001IA1209KA1999N+00001MW1021EQDQ01+000042APCTENQ02+000232APC3  
0057028640999991953031412004+65783+024583FM-12+001599999V0203201N00621220001CN0600001N9+00721-00391101801ADDAY101999GF101991011011012501041001MD1310351+9999MW1031
0076028640999991953031418004+65783+024583FM-12+001599999V0209991C00001220001CN0140001N9-00111-00281102181ADDAY111999GF105991001001999999071061IA1209KA1999M+00721MD1310061+9999MW1031
0076028640999991953031506004+65783+024583FM-12+001599999V0202001N00211220001CN0400001N9-00111-00281102061ADDAY111999GF105991001001999999071021IA1209KA1999N-00391MD1810061+9999MW1011
0113028640999991953031518004+65783+024583FM-12+001599999V0202001N00101220001CN0600001N9+00001-00111102311ADDAY101999GF101991999001999999041001IA1209KA1999M+00391MW1011EQDQ01+000002SCOTLCQ02+000032APCTENQ03+000002APC3  
0057028640999991953031600004+65783+024583FM-12+001599999V0202901N00151220001CN0400001N9-00281-00391102421ADDAY101999GF100991001001999999001001MD1310091+9999MW1011
0076028640999991953031606004+65783+024583FM-12+001599999V0201401N00101220001CN0400001N9-00281-00391102681ADDAY111999GF105991001001999999041071IA1209KA1999N-00611MD1310131+9999MW1031
0076028640999991953031612004+65783+024583FM-12+001599999V0202001N00311220001CN0400001N9+00221-00111102781ADDAY121999GF108991999001999999071001MD1810041+9999MW1021EQDQ01+000002SCOTLC
0076028640999991953031618004+65783+024583FM-12+001599999V0201801N00311220001CN0034001N9-00111-00111102691ADDAY111999GF104991041071000751001001IA1209KA1999M+00221MD1810021+9999MW1031
0057028640999991953031700004+65783+024583FM-12+001599999V0201601N00151000151CN0002001N9-00281-00281102461ADDAY141999GF109991091999000251999999MD1810111+9999MW1451
0076028640999991953031706004+65783+024583FM-12+001599999V0202201N00311000151CN0002001N9-00221-00221102261ADDAY141999GF109991091999000251999999IA1319KA1999N-00221MD1810061+9999MW1451
0057028640999991953031712004+65783+024583FM-12+001599999V0202301N00511000151CN0010001N9-00111-00111101991ADDAY141999GF108991081061000251999999MD1810151+9999MW1101
0076028640999991953031800004+65783+024583FM-12+001599999V0202701N00621220001CN0400001N9+00001-00111101311ADDAY101999GF101991999001999999041001MD1810031+9999MW1021EQDQ01+000002SCOTLC
0113028640999991953031806004+65783+024583FM-12+001599999V0203201N01231220001CN0400001N9+00111-00391101311ADDAY101999GF101991999001999999041001IA1319KA1999N-00221MW1021EQDQ01+000002SCOTLCQ02+000042APCTENQ03+000132APC3  
0076028640999991953031812004+65783+024583FM-12+001599999V0203401N01231220001CN0600001N9+00391-00111102061ADDAY101999GF101991999001999999041001MD1310391+9999MW1181EQDQ01+000002SCOTLC
0095028640999991953031818004+65783+024583FM-12+001599999V0203201N00311220001CN0600001N9-00111-00781102841ADDAY101999GF101991999001999999041001IA1209KA1999M+00391MD1310301+9999MW1021EQDQ01+000002SCOTLC
0057028640999991953031900004+65783+024583FM-12+001599999V0203201N00101220001CN0600001N9-00721-01221103081ADDAY101999GF100991001001999999001001MD1310071+9999MW1021
0076028640999991953031906004+65783+024583FM-12+001599999V0202001N00211220001CN0400001N9-00281-00611102981ADDAY111999GF107991001001999999071999IA1209KA1999N-01221MD1990111+9999MW1021
0057028640999991953031912004+65783+024583FM-12+001599999V0202301N00311030001CN0400001N9+00111-00221102801ADDAY121999GF107991011081008001071999MD1810051+9999MW1031
0095028640999991953031918004+65783+024583FM-12+001599999V0202001N00101220001CN0400001N9-00221-00281102721ADDAY111999GF101991999001999999041001IA1209KA1999M+00221MD1610011+9999MW1011EQDQ01+000002SCOTLC
0057028640999991953032000004+65783+024583FM-12+001599999V0201801N00211220001CN0400001N9-00611-00721102611ADDAY111999GF106991001001999999001071MD1810071+9999MW1021
0057028640999991953032012004+65783+024583FM-12+001599999V0202701N00671220001CN0400001N9+00281-00111102121ADDAY111999GF105991001001999999001061MD1310041+9999MW1031
0076028640999991953032018004+65783+024583FM-12+001599999V0202201N00511030001CN0400001N9+00281-00221101891ADDAY121999GF108991031051012501021999IA1209KA1999M+00281MD1810151+9999MW1031
0057028640999991953032100004+65783+024583FM-12+001599999V0202301N00411220001CN0400001N9+00221-00111101411ADDAY121999GF108991001001999999021999MD1810241+9999MW1021
0095028640999991953032106004+65783+024583FM-12+001599999V0202301N00821220001CN0400001N9+00221-00111100581ADDAY121999GF108991001001999999021999IA1009KA1999N+00111MD1810512+9999MW1021EQDQ01+000512APC3  
0076028640999991953032112004+65783+024583FM-12+001599999V0202001N01131030001CN0400001N9+00221-00221099752ADDAY121999GF107991011051004501071071MD1810361+9999MW1021EQDQ01+099753APOSLP
0076028640999991953032118004+65783+024583FM-12+001599999V0203201N00311220001CN0400001N9+00281-00721100111ADDAY121999GF107991001001999999071061IA1209KA1999M+00781MD1310351+9999MW1021
0095028640999991953032206004+65783+024583FM-12+001599999V0203101N00511220001CN0400001N9-00111-00721101391ADDAY101999GF100991001001999999001001IA1209KA1999N-00111MD1310632+9999MW1021EQDQ01+000632APC3  
0057028640999991953032212004+65783+024583FM-12+001599999V0202901N00461220001CN0400001N9+00281-00501102061ADDAY101999GF105991001001999999071021MD1310231+9999MW1031
0095028640999991953032218004+65783+024583FM-12+001599999V0202301N00311220001CN0400001N9-00111-00501101951ADDAY111999GF102991999001999999071001IA1209KA1999M+00281MD1810111+9999MW1011EQDQ01+000002SCOTLC
0057028640999991953032300004+65783+024583FM-12+001599999V0201801N00411002401CN0110001N9-00111-00611101411ADDAY171999GF108991071071002501021999MD1810261+9999MW1711
0087028640999991953032306004+65783+024583FM-12+001599999V0202701N00411220001CN0400001N9+00221-00111100601ADDAA199001091AY111999GF107991001001999999071999IA1209KA1999N-00221MD1810341+9999MW1031
0057028640999991953032312004+65783+024583FM-12+001599999V0202301N00821030001CN0200001N9+00281-00111099801ADDAY121999GF107991011051004501071999MD1810461+9999MW1011
0095028640999991953032318004+65783+024583FM-12+001599999V0202701N00511220001CN0400001N9+00391-00281099411ADDAY111999GF103991999001999999071001IA1209KA1999M+00391MD1990071+9999MW1011EQDQ01+000002SCOTLC
0057028640999991953032400004+65783+024583FM-12+001599999V0202701N00511220001CN0600001N9+00111-00391099641ADDAY101999GF100991001001999999001001MD1310191+9999MW1021
0063028640999991953032406004+65783+024583FM-12+001599999V0203201N00361220001CN0600001N9+00001-00391100201ADDAY111999GF106991001001999999071091IA1209MD1310251+9999MW1031
0057028640999991953032412004+65783+024583FM-12+001599999V0209991C00001220001CN0400001N9+00221-00391100221ADDAY121999GF107991001001999999071999MD1810091+9999MW1011
0095028640999991953032418004+65783+024583FM-12+001599999V0209991C00001220001CN0400001N9-00281-00391100191ADDAY121999GF102991999001999999071001IA1209KA1999M+00221MD1310051+9999MW1011EQDQ01+000002SCOTLC
0076028640999991953032512004+65783+024583FM-12+001599999V0200701N004119999999N0400001N9-00781-01391101451ADDAY121999GF108991999001022501041071MD1310081+9999MW1021EQDQ01+000002SCOTLC
0076028640999991953032612004+65783+024583FM-12+001599999V0200901N00511004501CN0060001N9-00781-01001099481ADDAY171999GF108991061071004501021999MD1810502+9999MW1711EQDQ01+000502APC3  
0057028640999991953032712004+65783+024583FM-12+001599999V0200201N00821004501CN0010001N9-00721-00891097381ADDAY171999GF108991051071004501051999MD1310391+9999MW1751
0057028640999991953032812004+65783+024583FM-12+001599999V0203601N00361220001CN0400001N9-00891-01501100641ADDAY111999GF103991001001999999041011MD1310131+9999MW1011
0057028640999991953032912004+65783+024583FM-12+001599999V0201101N00821002401CN0024001N9-00611-00721098251ADDAY171999GF108991061071002501021999MD1810481+9999MW1731
0076028640999991953033012004+65783+024583FM-12+001599999V0203201N00411220001CN0600001N9-00891-01391098851ADDAY101999GF101991999001999999041001MD1310141+9999MW1021EQDQ01+000002SCOTLC
0057028640999991953040100004+65783+024583FM-12+001599999V0202001N00101220001CN0400001N9-01781-02001100161ADDAY101999GF100991001001999999001001MD1310271+9999MW1021
0076028640999991953040106004+65783+024583FM-12+001599999V0201801N00411030001CN0400001N9-01221-01391100511ADDAY111999GF106991021051004501041999IA1319KA1999N-02281MD1310141+9999MW1031
0057028640999991953040112004+65783+024583FM-12+001599999V0202001N00411220001CN0400001N9-00721-01221100961ADDAY101999GF102991011021008001001011MD1310241+9999MW1011
0076028640999991953040118004+65783+024583FM-12+001599999V0203001N00211220001CN0600001N9-00781-01221101621ADDAY111999GF100991001001999999001001IA1319KA1999M-00281MD1310341+9999MW1011
0057028640999991953040200004+65783+024583FM-12+001599999V0209991C00001220001CN0400001N9-02391+99999102201ADDAY101999GF100991001001999999001001MD1310211+9999MW1021
0076028640999991953040206004+65783+024583FM-12+001599999V0201601N00511220001CN0400001N9-01001-01281102451ADDAY111999GF106991001001999999071011IA1319KA1999N-02611MD1310081+9999MW1031
0057028640999991953040212004+65783+024583FM-12+001599999V0201601N00981220001CN0400001N9-00221-00891102411ADDAY121999GF107991001001999999071999MD1990071+9999MW1361
0087028640999991953040218004+65783+024583FM-12+001599999V0201401N01031002401CN0008001N9-00281-00391101991ADDAA199000391AY171999GF108991051071002501021999IA1319KA1999M+00001MD1810191+9999MW1731
0076028640999991953040300004+65783+024583FM-12+001599999V0201801N00821001501CN0024001N9+00001+00001101591ADDAY171999GF108991999061001501021999MD1610091+9999MW1731EQDQ01+000082SCOTLC
0087028640999991953040306004+65783+024583FM-12+001599999V0202001N00821000601CN0010001N9+00111+00111101711ADDAA199003091AY151999GF108991081061000751999999IA1209KA1999N-00281MD1310091+9999MW1511
0057028640999991953040312004+65783+024583FM-12+001599999V0201601N00721001501CN0140001N9+00221+00111101591ADDAY161999GF108991071061001501021999MD1810121+9999MW1611
0087028640999991953040318004+65783+024583FM-12+001599999V0201401N00981030001CN0110001N9+00281+00111100821ADDAA199005091AY161999GF108991021061001501021999IA1209KA1999M+00281MD1810421+9999MW1631
0057028640999991953040400004+65783+024583FM-12+001599999V0201801N01231030001CN0200001N9+00221+00111100241ADDAY121999GF108991041071002501021001MD1810311+9999MW1611
0108028640999991953040406004+65783+024583FM-12+001599999V0202001N01031001501CN0140001N9+00111+00111100311ADDAA199004091AY121999GF108991061061001501021999IA1209KA1999N+00111MW1021EQDQ01+000042APCTENQ02+000122APC3  
0057028640999991953040412004+65783+024583FM-12+001599999V0202001N00871030001CN0200001N9+00111+00001100641ADDAY121999GF108991021071002501071999MD1310111+9999MW1021
0076028640999991953040418004+65783+024583FM-12+001599999V0202001N00771001501CN0400001N9+00111+00001100891ADDAY121999GF109991061071001501071001IA1319KA1999M+00221MD1310181+9999MW1011
0076028640999991953040506004+65783+024583FM-12+001599999V0201601N00361002401CN0400001N9+00111+00001101281ADDAY121999GF108991061071002501021999IA1209KA1999N-00111MD1310111+9999MW1031
0057028640999991953040512004+65783+024583FM-12+001599999V0200201N00151001501CN0140001N9+00221+00111101211ADDAY171999GF108991061071001501021999MD1810071+9999MW1681
0087028640999991953040518004+65783+024583FM-12+001599999V0201801N00821030001CN0400001N9+00391+00111100861ADDAA199003091AY151999GF108991041051004501071999IA1209KA1999M+00501MD1810101+9999MW1021
0057028640999991953040600004+65783+024583FM-12+001599999V0201801N01591030001CN0400001N9+00391+00001100451ADDAY121999GF108991041051004501021999MD1810241+9999MW1021
0087028640999991953040606004+65783+024583FM-12+001599999V0201801N01291030001CN0400001N9+00281+00281100091ADDAA199000691AY121999GF108991041051004501071999IA1209KA1999N+00221MD1810021+9999MW1211
0057028640999991953040612004+65783+024583FM-12+001599999V0202001N01341220001CN0600001N9+00221+00001100311ADDAY111999GF102991011011008001071001MD1310181+9999MW1021
0095028640999991953040618004+65783+024583FM-12+001599999V0202301N00721220001CN0600001N9+00001-00111100921ADDAY101999GF102991999001999999071001IA1209KA1999M+00611MD1310241+9999MW1031EQDQ01+000002SCOTLC
0076028640999991953040700004+65783+024583FM-12+001599999V0201801N00411220001CN0200001N9-00111-00111100921ADDAY121999GF102991999001999999071001MD1990101+9999MW1011EQDQ01+000002SCOTLC
0076028640999991953040706004+65783+024583FM-12+001599999V0201801N00621002401CN0200001N9+00111-00111100741ADDAY121999GF108991061071002501021999IA1209KA1999N-00111MD1610061+9999MW1701
0057028640999991953040712004+65783+024583FM-12+001599999V0201801N00821001501CN0034001N9+00111+00111100641ADDAY171999GF108991071061001501021999MD1810031+9999MW1681
0108028640999991953040718004+65783+024583FM-12+001599999V0202001N00671001501CN0110001N9+00111+00001100621ADDAA199001091AY121999GF108991081061001501999999IA1209KA1999M+00111MW1021EQDQ01+000032APCTENQ02+000002APC3  
0087028640999991953040806004+65783+024583FM-12+001599999V0201601N00411002401CN0140001N9+00111+00001100261ADDAA199001091AY171999GF108991061071002501021999IA1199KA1999N+00001MD1810121+9999MW1681
0057028640999991953040812004+65783+024583FM-12+001599999V0201801N00311004501CN0200001N9+00221+00111100011ADDAY121999GF108991061071004501021999MD1810161+9999MW1501
0087028640999991953040818004+65783+024583FM-12+001599999V0209991C00001001501CN0014001N9+00111+00001099721ADDAA199001091AY161999GF108991051071001501021999IA1199KA1999M+00281MD1810151+9999MW1681
0076028640999991953040900004+65783+024583FM-12+001599999V0201401N00211000601CN0044001N9+00001+00001099351ADDAY171999GF108991999061000751021999MD1810211+9999MW1691EQDQ01+000082SCOTLC
0087028640999991953040906004+65783+024583FM-12+001599999V0201601N00311001501CN0200001N9-00111-00111099261ADDAA199000591AY121999GF108991081061001501999999IA1209KA1999N-00221MD1810041+9999MW1021
0057028640999991953040912004+65783+024583FM-12+001599999V0201801N00101004501CN0400001N9-00221-00391099391ADDAY121999GF108991061071004501071999MD1310081+9999MW1021
0106028640999991953040918004+65783+024583FM-12+001599999V0202501N00211220001CN0400001N9-00221-00391099371ADDAA199001091AY121999GF105991999001999999041001IA1209KA1999M+00111MD1310051+9999MW1031EQDQ01+000002SCOTLC
0057028640999991953041000004+65783+024583FM-12+001599999V0202501N00211220001CN0400001N9-00221-00391099601ADDAY111999GF103991031051004501001001MD1310081+9999MW1011
0087028640999991953041006004+65783+024583FM-12+001599999V0202701N00101004501CN0400001N9-00111-00111099781ADDAA199000591AY121999GF107991071051004501001001IA1209KA1999N-00281MD1310091+9999MW1011
0057028640999991953041012004+65783+024583FM-12+001599999V0202901N00411004501CN0034001N9+00001-00221100261ADDAY121999GF108991061051004501021999MD1310301+9999MW1721
0087028640999991953041018004+65783+024583FM-12+001599999V0203201N00571004501CN0014001N9+00001-00111100721ADDAA199000591AY171999GF108991051071004501021999IA1199KA1999M+00111MD1310241+9999MW1741
0076028640999991953041106004+65783+024583FM-12+001599999V0201801N00211220001CN0400001N9-00501-00781101851ADDAY101999GF102991001001999999041051IA1209KA1999N-01111MD1310241+9999MW1031
0057028640999991953041112004+65783+024583FM-12+001599999V0202001N00411075001CN0400001N9-00221-00501102021ADDAY111999GF107991011011008001001071MD1310051+9999MW1021
0076028640999991953041118004+65783+024583FM-12+001599999V0201401N00361220001CN0400001N9-00281-00611101861ADDAY101999GF102991001001999999041021IA1209KA1999M+00111MD1810101+9999MW1021
0076028640999991953041200004+65783+024583FM-12+001599999V0201601N01131220001CN0400001N9-00111-00281101351ADDAY101999GF103991999001999999071001MD1810251+9999MW1031EQDQ01+000002SCOTLC
0062028640999991953041206004+65783+024583FM-12+001599999V0201801N00931220001CN0400001N9+00111-00221100841ADDAY111999GF108991001001999999999999IA1309KA1999N-00391MW1031
0057028640999991953041212004+65783+024583FM-12+001599999V0201801N01131030001CN0400001N9+00221-00111100691ADDAY121999GF108991021051004501021999MD1810061+9999MW1181
0087028640999991953041218004+65783+024583FM-12+001599999V0202001N00621030001CN0400001N9+00111+00001100621ADDAA199000391AY121999GF108991041051004501071999IA1209KA1999M+00281MD1310041+9999MW1021
0057028640999991953041300004+65783+024583FM-12+001599999V0201801N00361004501CN0400001N9+00111+00001100841ADDAY121999GF108991051051004501071999MD1310091+9999MW1021
0076028640999991953041306004+65783+024583FM-12+001599999V0201801N00721030001CN0200001N9+00221+00001100961ADDAY121999GF108991041051004501071999IA1209KA1999N+00111MD1310101+9999MW1021
0057028640999991953041312004+65783+024583FM-12+001599999V0201601N00671220001CN0200001N9+00501+00111100991ADDAY121999GF108991001001999999071999MD1810061+9999MW1021
0087028640999991953041318004+65783+024583FM-12+001599999V0201801N00411220001CN0200001N9+00281+00001101111ADDAA199002091AY111999GF104991001001999999071021IA1209KA1999M+00721MD1310141+9999MW1011
0057028640999991953041400004+65783+024583FM-12+001599999V0201801N00511220001CN0400001N9+00391-00111101141ADDAY101999GF100991001001999999001001MD1990041+9999MW1021
0076028640999991953041406004+65783+024583FM-12+001599999V0201601N00981220001CN0400001N9+00501-00111101001ADDAY111999GF103991001001999999041021IA1209KA1999N-00111MD1710031+9999MW1031
0057028640999991953041412004+65783+024583FM-12+001599999V0202001N00931030001CN0400001N9+00281+00111101571ADDAY121999GF107991021051008001071999MD1310311+9999MW1031
0076028640999991953041418004+65783+024583FM-12+001599999V0202301N00261220001CN0400001N9+00111+00001102001ADDAY111999GF106991001001999999071061IA1199KA1999M+00611MD1310181+9999MW1021
0057028640999991953041500004+65783+024583FM-12+001599999V0209991C00001220001CN0600001N9-00281-00281102211ADDAY101999GF106991001001999999001061MD1110061+9999MW1031
0076028640999991953041506004+65783+024583FM-12+001599999V0209991C00001030001CN0400001N9-00111-00111102281ADDAY121999GF107991011021004501071071IA1209KA1999N-00391MD1310031+9999MW1031
0057028640999991953041512004+65783+024583FM-12+001599999V0203401N00311030001CN0400001N9+00611-00111102221ADDAY111999GF107991021081008001061071MD1710031+9999MW1021
0076028640999991953041518004+65783+024583FM-12+001599999V0200201N00151220001CN0400001N9+00391+00001102091ADDAY111999GF107991001001999999041071IA1209KA1999M+00781MD1810021+9999MW1031
0076028640999991953041600004+65783+024583FM-12+001599999V0209991C00001220001CN0400001N9+00111-00111101941ADDAY111999GF103991999001999999071001MD1810091+9999MW1021EQDQ01+000002SCOTLC
0076028640999991953041606004+65783+024583FM-12+001599999V0209991C00001030001CN0400001N9+00281+00111101761ADDAY111999GF107991011051008001071071IA1199KA1999N-00221MD1810101+9999MW1021
0057028640999991953041612004+65783+024583FM-12+001599999V0201801N00261220001CN0400001N9+00721+00111101641ADDAY111999GF106991001001999999071021MD1810061+9999MW1011
0076028640999991953041618004+65783+024583FM-12+001599999V0209991C00001220001CN0110001N9+00281+00111101571ADDAY111999GF103991001001999999041011IA1199KA1999M+00721MD1810061+9999MW1011
0057028640999991953041700004+65783+024583FM-12+001599999V0202001N00151004501CN0200001N9-00111-00111101451ADDAY121999GF108991081051004501999999MD1810081+9999MW1031
0076028640999991953041706004+65783+024583FM-12+001599999V0202501N00311000151CN0002001N9+00001-00111101451ADDAY141999GF109991091999000251999999IA1209KA1999N-00111MD1310011+9999MW1471
0097028640999991953041718004+65783+024583FM-12+001599999V0202901N00511012301CN0400001N9+00111-00221101491ADDAY181999GF106991051091012501071001IA1209KA1999M+00281MW1011EQDQ01+000042APCTENQ02+000322APC3  
0076028640999991953041800004+65783+024583FM-12+001599999V0202701N00151220001CN0400001N9-00501-00781102121ADDAY101999GF101991999001999999041001MD1310241+9999MW1021EQDQ01+000002SCOTLC
0076028640999991953041806004+65783+024583FM-12+001599999V0209999999999220001CN0400001N9-00281-00781102021ADDAY111999GF199999001001999999041061IA1009KA1999N-00781MD1810081+9999MW1031
0043028640999991953041812004+65783+024583FM-12+001599999V0202001N00821220001CN0400001N9-00111-00611101541ADDGF107991001001999999071061MD1810341+9999
0057028640999991953041900004+65783+024583FM-12+001599999V0201801N00821004501CN0400001N9-00221-00281100251ADDAY121999GF108991061051004501021999MD1810281+9999MW1021
0108028640999991953041906004+65783+024583FM-12+001599999V0203201N00621002401CN0050001N9-00391-00611100261ADDAA199002091AY171999GF108991061071002501021999IA1199KA1999N-00501MW1831EQDQ01+000042APCTENQ02+000152APC3  
0057028640999991953041912004+65783+024583FM-12+001599999V0203201N00461220001CN0400001N9+00111-01001100561ADDAY101999GF101991001001999999001041MD1310131+9999MW1021
0076028640999991953041918004+65783+024583FM-12+001599999V0202301N00311220001CN0600001N9-00111-00391100721ADDAY101999GF101991011041008001001001IA1199KA1999M+00221MD1310071+9999MW1011
0057028640999991953042000004+65783+024583FM-12+001599999V0209991C00001220001CN0600001N9-00781-00891100851ADDAY101999GF100991001001999999001001MD1310101+9999MW1021
0076028640999991953042006004+65783+024583FM-12+001599999V0203201N00151220001CN0600001N9-00281-00781101321ADDAY101999GF100991001001999999001001IA1199KA1999N-01111MD1310271+9999MW1011
0057028640999991953042012004+65783+024583FM-12+001599999V0202301N00361220001CN0600001N9+00281-00891101801ADDAY101999GF101991011011017501001001MD1310251+9999MW1021
0057028640999991953042100004+65783+024583FM-12+001599999V0209991C00001220001CN0200001N9-00891-01001102211ADDAY101999GF100991001001999999001001MD1310041+9999MW1021
0076028640999991953042106004+65783+024583FM-12+001599999V0201401N00311220001CN0600001N9-00111-00721102151ADDAY101999GF103991001001999999041011IA1199KA1999N-01111MD1810031+9999MW1031
0057028640999991953042112004+65783+024583FM-12+001599999V0201601N00721220001CN0600001N9+00391-00501101861ADDAY101999GF102991001001999999041021MD1810151+9999MW1021
0087028640999991953042118004+65783+024583FM-12+001599999V0201801N00621220001CN0044001N9+00221-00221101571ADDAA199000691AY171999GF108991001001999999021999IA1199KA1999M+00391MD1810161+9999MW1711
0057028640999991953042200004+65783+024583FM-12+001599999V0201801N00361001501CN0140001N9+00111+00001101221ADDAY121999GF108991081061001501999999MD1810111+9999MW1501
0087028640999991953042206004+65783+024583FM-12+001599999V0209991C00001000151CN0002001N9+00001+00001101321ADDAA199000691AY121999GF109991091999000251999999IA1199KA1999N+00001MD1310081+9999MW1441
0057028640999991953042212004+65783+024583FM-12+001599999V0203601N00211004501CN0400001N9+00391+00111101791ADDAY111999GF108991061051004501071999MD1310251+9999MW1021
0087028640999991953042218004+65783+024583FM-12+001599999V0200201N00101220001CN0600001N9+00391-00391102221ADDAA199000691AY111999GF102991011051008001041021IA1199KA1999M+00501MD1310171+9999MW1021
0076028640999991953042300004+65783+024583FM-12+001599999V0209991C00001220001CN0120001N9-00611-00781102511ADDAY101999GF103991999001999999041001MD1310101+9999MW1021EQDQ01+000002SCOTLC
0076028640999991953042306004+65783+024583FM-12+001599999V0201101N00211220001CN0400001N9+00001+99999102651ADDAY121999GF108991001001999999071999IA1199KA1999N-00611MD1310081+9999MW1031
0076028640999991953042312004+65783+024583FM-12+001599999V0201601N005719999999N0600001N9+00501-00391102581ADDAY111999GF105991001001999999001071MD1810071+9999MW1021EQDQ01+000982SCOLCB
0076028640999991953042318004+65783+024583FM-12+001599999V0201401N00361220001CN0400001N9+00501-00221102191ADDAY121999GF107991001001999999071071IA1009KA1999M+00721MD1810151+9999MW1011
0057028640999991953042400004+65783+024583FM-12+001599999V0201601N00411220001CN0400001N9+00281-00111101911ADDAY121999GF104991041051004501001999MD1810201+9999MW1011
0076028640999991953042406004+65783+024583FM-12+001599999V0201601N00511004501CN0400001N9+00281+00001101641ADDAY121999GF106991051081004501071999IA1199KA1999N+00221MD1810151+9999MW1011
0057028640999991953042412004+65783+024583FM-12+001599999V0202001N00671030001CN0400001N9+00611+00001101491ADDAY121999GF107991031081008001071999MD1810101+9999MW1011
0076028640999991953042418004+65783+024583FM-12+001599999V0202001N00721030001CN0400001N9+00391+00001101261ADDAY111999GF106991011041008001071051IA1199KA1999M+00611MD1810051+9999MW1021
0057028640999991953042500004+65783+024583FM-12+001599999V0201601N00511220001CN0400001N9+00111-00221101311ADDAY111999GF107991001001999999071071MD1310041+9999MW1021
0076028640999991953042506004+65783+024583FM-12+001599999V0201801N00621220001CN0400001N9+00391+00111101241ADDAY111999GF107991001001999999051071IA1199KA1999N+00111MD1710011+9999MW1021
0057028640999991953042512004+65783+024583FM-12+001599999V0201401N00311007801CN0400001N9+00781+00281101281ADDAY111999GF107991061081008001071999MD1710021+9999MW1031
0076028640999991953042518004+65783+024583FM-12+001599999V0201101N00261012301CN0400001N9+00781+00221101151ADDAY121999GF107991071081012501999999IA1199KA1999M+01001MD1810071+9999MW1021
0057028640999991953042600004+65783+024583FM-12+001599999V0201401N00311220001CN0400001N9+00611+00281101021ADDAY121999GF107991001001999999071999MD1810051+9999MW1021
0113028640999991953042606004+65783+024583FM-12+001599999V0201601N00311007801CN0400001N9+00721+00281101001ADDAY121999GF108991999041008001061999IA1199KA1999N+00391MW1251EQDQ01+000082SCOTLCQ02+000042APCTENQ03+000062APC3  
0057028640999991953042612004+65783+024583FM-12+001599999V0201101N00311030001CN0400001N9+01221+00391100911ADDAY111999GF108991011081008001041071MD1810061+9999MW1021
0076028640999991953042618004+65783+024583FM-12+001599999V0200901N00411030001CN0400001N9+01001+00281100661ADDAY121999GF108991031051008001021999IA1199KA1999M+01281MD1810111+9999MW1021
0078028640999991953042700004+65783+024583FM-12+001599999V0201101N00511220001CN0110001N9+00781+00221100621ADDAY121999GF108991001001999999021999MW1611EQDQ01+000042APCTENQ02+000042APC3  
0087028640999991953042706004+65783+024583FM-12+001599999V0201601N00211002401CN0024001N9+00281+00281100881ADDAA199003091AY161999GF108991061061002501021999IA1199KA1999N+00221MD1310171+9999MW1611
0057028640999991953042712004+65783+024583FM-12+001599999V0202901N00261001501CN0050001N9+00221+00221101141ADDAY161999GF108991051071001501021999MD1310121+9999MW1611
0087028640999991953042806004+65783+024583FM-12+001599999V0202001N00101000151CN0002001N9-00111-00111101481ADDAA199000691AY141999GF109991091999000251999999IA1199KA1999N-00221MD1310081+9999MW1431
0057028640999991953042812004+65783+024583FM-12+001599999V0201801N00311000151CN0014001N9+00001+00001101661ADDAY141999GF108991081061000251999999MD1310101+9999MW1101
0076028640999991953042818004+65783+024583FM-12+001599999V0202001N00261220001CN0400001N9+00391+00001101661ADDAY101999GF101991001001999999001011IA1199KA1999M+00391MD1710011+9999MW1021
0076028640999991953042900004+65783+024583FM-12+001599999V0201801N00311220001CN0400001N9-00111-00111101721ADDAY101999GF102991999001017501091001MD1310021+9999MW1031EQDQ01+000002SCOTLC
0076028640999991953042906004+65783+024583FM-12+001599999V0201601N00101220001CN0400001N9+00721-00281101741ADDAY111999GF104991001001999999041011IA1189KA1999N-00221MD1210011+9999MW1011
0057028640999991953042912004+65783+024583FM-12+001599999V0201801N00261220001CN0600001N9+01111+00111101751ADDAY111999GF104991001001999999041011MD1710041+9999MW1021
0076028640999991953043000004+65783+024583FM-12+001599999V0201101N00311220001CN0600001N9+00501-00111101921ADDAY101999GF101991999001999999071001MD1310151+9999MW1021EQDQ01+000002SCOTLC
0076028640999991953043006004+65783+024583FM-12+001599999V0201601N00511220001CN0600001N9+01001-00111101991ADDAY111999GF104991001001999999041021IA1189KA1999N+00281MD1310051+9999MW1031
0057028640999991953043012004+65783+024583FM-12+001599999V0202001N00721220001CN0600001N9+01221+99999102091ADDAY101999GF102991001001999999041011MD1310101+9999MW1031
0076028640999991953043018004+65783+024583FM-12+001599999V0202301N00101030001CN0600001N9+00781+00281102161ADDAY111999GF106991011051008001041021IA1189KA1999M+01501MD1210041+9999MW1031
0057028640999991953050100004+65783+024583FM-12+001599999V0209991C00001012301CN0600001N9+00391+00281102341ADDAY111999GF106991061051012501071001MD1310081+9999MW1031
0057028640999991953050112004+65783+024583FM-12+001599999V0201401N00261007801CN0600001N9+01221+00221102481ADDAY121999GF106991051081008001061999MD1310021+9999MW1021
0076028640999991953050118004+65783+024583FM-12+001599999V0209991C00001220001CN0600001N9+00781+00221102471ADDAY101999GF102991001001999999041011IA1189KA1999M+01391MD1210011+9999MW1031
0094028640999991953050200004+65783+024583FM-12+001599999V0209991C00001220001CN0400001N9+00221+00111102581ADDAY101999GF102991999001999999041001MW1021EQDQ01+000002SCOTLCQ02+000032APCTENQ03+000002APC3  
0076028640999991953050206004+65783+024583FM-12+001599999V0201801N00101220001CN0400001N9+00501+00221102511ADDAY111999GF107991001001999999071999IA1189KA1999N+00111MD1810021+9999MW1031
0057028640999991953050212004+65783+024583FM-12+001599999V0201801N00361030001CN0400001N9+00611+00281102421ADDAY121999GF108991021051008001071001MD1810051+9999MW1051
0049028640999991953050218004+65783+024583FM-12+001599999V0202001N00151030001CN0034001N9+00391+00281102181ADDAY161999GF108991031071008001021999IA1189MW1611
0076028640999991953050300004+65783+024583FM-12+001599999V0203201N00211220001CN0400001N9+00501+00391102121ADDAY101999GF102991999001999999071001MD1810051+9999MW1011EQDQ01+000002SCOTLC
0087028640999991953050306004+65783+024583FM-12+001599999V0203201N00671004501CN0400001N9+00391+00221101991ADDAA199001091AY121999GF107991071071004501999999IA1189KA1999N+00221MD1810091+9999MW1031
0057028640999991953050312004+65783+024583FM-12+001599999V0200201N00621002401CN0200001N9+00721+00391102071ADDAY161999GF108991061071002501021999MD1310071+9999MW1511
0087028640999991953050318004+65783+024583FM-12+001599999V0200201N00411004501CN0400001N9+00721+00111102091ADDAA199001091AY121999GF107991071051004501999999IA1189KA1999M+00891MD1310021+9999MW1021
0057028640999991953050400004+65783+024583FM-12+001599999V0200201N00261004501CN0400001N9+00391+00111102211ADDAY121999GF108991081051004501999999MD1310061+9999MW1001
0087028640999991953050406004+65783+024583FM-12+001599999V0200201N00461030001CN0400001N9+00281+00111102261ADDAA199000691AY161999GF108991041071004501021999IA1189KA1999N+00221MD1310031+9999MW1021
0057028640999991953050412004+65783+024583FM-12+001599999V0200201N00311004501CN0400001N9+00611+00111102211ADDAY121999GF108991061051004501071999MD1990091+9999MW1031
0076028640999991953050418004+65783+024583FM-12+001599999V0209991C00001220001CN0400001N9+00611+00111101951ADDAY121999GF104991041051004501001001IA1189KA1999M+00721MD1810181+9999MW1011
0057028640999991953050500004+65783+024583FM-12+001599999V0209991C00001007801CN0400001N9-00111-00221101751ADDAY101999GF106991061051008001001001MD1810131+9999MW1031
0076028640999991953050506004+65783+024583FM-12+001599999V0200201N00101220001CN0400001N9+00281+00111101451ADDAY111999GF102991011041017501001999IA1189KA1999N-00221MD1810131+9999MW1031
0057028640999991953050512004+65783+024583FM-12+001599999V0203401N00311220001CN0600001N9+00891-00391101281ADDAY101999GF102991021011017501001001MD1810071+9999MW1011
0076028640999991953050518004+65783+024583FM-12+001599999V0201101N00461220001CN0600001N9+00721-00611101361ADDAY101999GF101991011041008001001001IA1189KA1999M+01001MD1310091+9999MW1021
0076028640999991953050600004+65783+024583FM-12+001599999V0209991C00001220001CN0400001N9-00111-00501101991ADDAY111999GF101991999001999999071001MD1310311+9999MW1011EQDQ01+000002SCOTLC
0076028640999991953050606004+65783+024583FM-12+001599999V0201101N00721220001CN0400001N9-00111-01001102421ADDAY111999GF102991011051004501041001IA1189KA1999N-00281MD1310201+9999MW1021
0043028640999991953050612004+65783+024583FM-12+001599999V0200501N00411220001CN0600001N9+00391-00611102541ADDAY101999GF102991011011012501001011MW1031
0076028640999991953050618004+65783+024583FM-12+001599999V0200201N00151220001CN0600001N9+00281-00891102461ADDAY101999GF101991011041012501001001IA1189KA1999M+00391MD1510031+9999MW1021
0063028640999991953050706004+65783+024583FM-12+001599999V0200401N00151220001CN0600001N9+00111-01001102441ADDAY101999GF101991001001999999001021IA1189MD1710011+9999MW1021
0057028640999991953050712004+65783+024583FM-12+001599999V0203201N00311220001CN0600001N9+00501+99999102121ADDAY101999GF102991001001999999001021MD1810211+9999MW1031
0076028640999991953050718004+65783+024583FM-12+001599999V0202501N00311220001CN0600001N9+00221-00281101981ADDAY101999GF105991001001999999001061IA1189KA1999M+00721MD1510051+9999MW1031
0057028640999991953050800004+65783+024583FM-12+001599999V0209991C00001220001CN0200001N9-00281-00281101881ADDAY111999GF103991001001999999001041MD1810041+9999MW1021
0076028640999991953050806004+65783+024583FM-12+001599999V0202001N00261220001CN0600001N9+00221-00781101821ADDAY111999GF104991001001999999071021IA1189KA1999N-00391MD1810011+9999MW1011
0057028640999991953050812004+65783+024583FM-12+001599999V0202001N00511030001CN0400001N9+00391-00611101721ADDAY111999GF107991021051004501071071MD1810091+9999MW1031
0076028640999991953050818004+65783+024583FM-12+001599999V0202001N00151030001CN0400001N9+00281-00721101521ADDAY121999GF108991041051004501071999IA1189KA1999M+00501MD1810071+9999MW1021
0078028640999991953050900004+65783+024583FM-12+001599999V0209991C00001030001CN0400001N9+00111-00391101461ADDAY121999GF108991031051012501071999MW1021EQDQ01+000032APCTENQ02+000002APC3  
0057028640999991953050906004+65783+024583FM-12+001599999V0209991C00001007801CN0400001N9+00281-00611999999ADDAY121999GF108991061051008001021999MD1310101+9999MW1021
0057028640999991953050912004+65783+024583FM-12+001599999V0202301N00411030001CN0400001N9+00501+00001101691ADDAY121999GF108991041091008001061999MD1310041+9999MW1031
0076028640999991953050918004+65783+024583FM-12+001599999V0202401N00101007801CN0400001N9+00391+00111101711ADDAY121999GF108991081081008001999999IA1089KA1999M+00611MD1810011+9999MW1031
0057028640999991953051000004+65783+024583FM-12+001599999V0200201N00211004501CN0400001N9+00281+00111101681ADDAY121999GF107991071081004501999999MD1810021+9999MW1011
0076028640999991953051006004+65783+024583FM-12+001599999V0200401N00361220001CN0400001N9+00501-00111101651ADDAY111999GF102991021051008001041001IA1089KA1999N+00001MD1810031+9999MW1031
0057028640999991953051012004+65783+024583FM-12+001599999V0201801N00311007801CN0400001N9+00891+00111101641ADDAY111999GF106991051081008001041001MD1710021+9999MW1011
0097028640999991953051018004+65783+024583FM-12+001599999V0209991C00001007801CN0400001N9+00721+00221101661ADDAY111999GF106991061081008001001001IA1089KA1999M+01001MW1031EQDQ01+000032APCTENQ02+000002APC3  
0076028640999991953051100004+65783+024583FM-12+001599999V0200901N00411220001CN0400001N9+00281+00001101781ADDAY111999GF106991999001999999071001MD1310051+9999MW1031EQDQ01+000002SCOTLC
0076028640999991953051106004+65783+024583FM-12+001599999V0201401N00571030001CN0400001N9+00501+00001101861ADDAY121999GF108991021051012501071999IA1009KA1999N+00281MD1310051+9999MW1031
0057028640999991953051112004+65783+024583FM-12+001599999V0201601N00621012301CN0400001N9+00781-00111102021ADDAY111999GF106991061081012501999999MD1310031+9999MW1011
0076028640999991953051118004+65783+024583FM-12+001599999V0201101N00211030001CN0400001N9+00721-00111101991ADDAY121999GF106991021041008001031001IA1089KA1999M+00781MD1810041+9999MW1011
0076028640999991953051200004+65783+024583FM-12+001599999V0200901N00311220001CN0400001N9+00111-00501102121ADDAY111999GF102991999001999999071001MD1310081+9999MW1021EQDQ01+000002SCOTLC
0095028640999991953051206004+65783+024583FM-12+001599999V0201101N00411220001CN0400001N9+00281-00501102081ADDAY101999GF101991999001999999041001IA1009KA1999N-00111MD1990061+9999MW1021EQDQ01+000002SCOTLC
0057028640999991953051212004+65783+024583FM-12+001599999V0201101N00511220001CN0400001N9+00611-00611101891ADDAY101999GF101991011011012501001011MD1810081+9999MW1021
0076028640999991953051218004+65783+024583FM-12+001599999V0202501N00101220001CN0400001N9+00391-00281101691ADDAY101999GF101991001001999999001011IA1009KA1999M+00721MD1810051+9999MW1021
0057028640999991953051300004+65783+024583FM-12+001599999V0209991C00001220001CN0400001N9-00221-00391101641ADDAY101999GF102991001001999999041021MD1710081+9999MW1021
0076028640999991953051306004+65783+024583FM-12+001599999V0200901N00151007801CN0400001N9+00221-00281101441ADDAY121999GF108991081051008001001001IA1089KA1999N-00391MD1810091+9999MW1021
0057028640999991953051312004+65783+024583FM-12+001599999V0202201N00211220001CN0400001N9+00611-00221101251ADDAY111999GF102991021011012501001011MD1810061+9999MW1021
0076028640999991953051318004+65783+024583FM-12+001599999V0202501N00101220001CN0400001N9+00501-00111101111ADDAY111999GF106991001001999999041061IA1009KA1999M+00781MD1810061+9999MW1021
0057028640999991953051400004+65783+024583FM-12+001599999V0209991C00001004501CN0200001N9+00221+00111101091ADDAY121999GF107991051051004501071999MD1810021+9999MW1021
0076028640999991953051406004+65783+024583FM-12+001599999V0200401N00101220001CN0400001N9+00891+00111101021ADDAY111999GF106991001001999999071061IA1009KA1999N-00111MD1810011+9999MW1021
0057028640999991953051412004+65783+024583FM-12+001599999V0202301N00311220001CN0400001N9+01001-00111100991ADDAY121999GF107991001001999999071091MD1610031+9999MW1021
0076028640999991953051418004+65783+024583FM-12+001599999V0202201N00211220001CN0400001N9+00611-00221101011ADDAY111999GF103991011021012501041001IA1009KA1999M+01111MD1310011+9999MW1011
0057028640999991953051500004+65783+024583FM-12+001599999V0201601N00461002401CN0200001N9+00281+00281101111ADDAY111999GF107991071061002501999999MD1810011+9999MW1031
0057028640999991953051512004+65783+024583FM-12+001599999V0201801N00461220001CN0034001N9+00501+00281101391ADDAY111999GF103991031081999999001001MD1310061+9999MW1021
0097028640999991953051518004+65783+024583FM-12+001599999V0201801N003119999999N0024001N9+00281+00281101421ADDAY111999GF106991021061999999001051IA1009KA1999M+00501MW1031EQDQ01+000032APCTENQ02+000002APC3  
0078028640999991953051600004+65783+024583FM-12+001599999V0209991C00001220001CN0200001N9+00391+00001101491ADDAY121999GF107991001001999999071011MW1021EQDQ01+000032APCTENQ02+000002APC3  
0076028640999991953051606004+65783+024583FM-12+001599999V0201601N00821220001CN0200001N9+01111+00391101321ADDAY111999GF106991001001999999071011IA1009KA1999N+00221MD1810061+9999MW1011
0057028640999991953051612004+65783+024583FM-12+001599999V0202001N00931030001CN0400001N9+01501+00611101261ADDAY121999GF107991021081008001071071MD1990061+9999MW1011
0087028640999991953051618004+65783+024583FM-12+001599999V0201401N00361012301CN0060001N9+00721+00611101171ADDAA199002091AY161999GF108991061071012501999999IA1109KA1999M+01611MD1810021+9999MW1631
0057028640999991953051700004+65783+024583FM-12+001599999V0201801N00621000601CN0024001N9+00611+00611100881ADDAY161999GF108991081061000751999999MD1810101+9999MW1101
0087028640999991953051706004+65783+024583FM-12+001599999V0201101N00261000151CN0008001N9+00781+00781100541ADDAA199015091AY141999GF108991081061000251999999IA1109KA1999N+00501MD1810271+9999MW1611
0057028640999991953051712004+65783+024583FM-12+001599999V0201801N00981000601CN0060001N9+00891+00781100341ADDAY161999GF108991071071000751021999MD1210021+9999MW1021
0087028640999991953051718004+65783+024583FM-12+001599999V0202301N00821030001CN0400001N9+00501+00501100371ADDAA199009091AY181999GF106991021091008001061051IA1109KA1999M+01001MD1310051+9999MW1011
0076028640999991953051800004+65783+024583FM-12+001599999V0202301N00101220001CN0200001N9+00391+00391101021ADDAY121999GF102991999001999999071001MD1310281+9999MW1011EQDQ01+000002SCOTLC
0076028640999991953051806004+65783+024583FM-12+001599999V0202001N00311220001CN0060001N9+00781+00501101291ADDAY111999GF103991011081008001041011IA1109KA1999N+00111MD1310161+9999MW1031
0057028640999991953051812004+65783+024583FM-12+001599999V0202001N00101220001CN0400001N9+01501+00721101421ADDAY111999GF102991011081008001071001MD1310061+9999MW1011
0076028640999991953051818004+65783+024583FM-12+001599999V0202201N00361220001CN0400001N9+01111+00721101441ADDAY111999GF103991021031012501041041IA1089KA1999M+01721MD1310071+9999MW1031
0076028640999991953051900004+65783+024583FM-12+001599999V0209991C00001220001CN0044001N9+00391+00391101551ADDAY111999GF102991999001999999041001MD1310031+9999MW1121EQDQ01+000002SCOTLC
0076028640999991953051906004+65783+024583FM-12+001599999V0202001N00101000151CN0002001N9+00391+00391101711ADDAY141999GF109991091999000251999999IA1089KA1999N+00221MD1310121+9999MW1431
0057028640999991953051912004+65783+024583FM-12+001599999V0203201N00721220001CN0400001N9+01001+00721101921ADDAY111999GF103991021091004501041041MD1310121+9999MW1011
0076028640999991953051918004+65783+024583FM-12+001599999V0202501N00571220001CN0600001N9+01391+00391102021ADDAY101999GF101991011041012501001001IA1089KA1999M+01501MD1310121+9999MW1011
0057028640999991953052000004+65783+024583FM-12+001599999V0202901N00211220001CN0400001N9+00781+00391102441ADDAY101999GF100991001001999999001001MD1310141+9999MW1011
0076028640999991953052006004+65783+024583FM-12+001599999V0202301N00151220001CN0600001N9+01221+00501102681ADDAY101999GF102991001001999999001041IA1009KA1999N+00001MD1310111+9999MW1031
0043028640999991953052012004+65783+024583FM-12+001599999V0202301N00411220001CN0600001N9+99999+99999102781ADDAY111999GF106991001001999999041051MW1011
0057028640999991953052100004+65783+024583FM-12+001599999V0201401N00411004501CN0080001N9+01001+00891101981ADDAY161999GF108991061071004501021999MD1810411+9999MW1611
0087028640999991953052106004+65783+024583FM-12+001599999V0202001N00671000151CN0004001N9+00781+00781101201ADDAA199014091AY161999GF108991081061000251999999IA1109KA1999N+00781MD1810341+9999MW1471
0076028640999991953052118004+65783+024583FM-12+001599999V0203201N00361220001CN0600001N9+01391+00391101451ADDAY101999GF102991021051012501001001IA1009KA1999M+01501MD1310201+9999MW1021
0076028640999991953052200004+65783+024583FM-12+001599999V0203201N00211220001CN0400001N9+00611+00281102081ADDAY101999GF101991999001999999041001MD1310291+9999MW1021EQDQ01+000002SCOTLC
0076028640999991953052206004+65783+024583FM-12+001599999V0203201N00311220001CN0400001N9+00781+00001102401ADDAY111999GF103991001001999999041021IA1009KA1999N+00221MD1310121+9999MW1011
0057028640999991953052212004+65783+024583FM-12+001599999V0202301N00461075001CN0400001N9+01001+00001102401ADDAY111999GF106991011011012501041061MD1990031+9999MW1011
0076028640999991953052218004+65783+024583FM-12+001599999V0202201N00211030001CN0400001N9+00781+00221102091ADDAY111999GF106991011051008001071001IA1009KA1999M+01111MD1810161+9999MW1011
0057028640999991953052300004+65783+024583FM-12+001599999V0209991C00001007801CN0400001N9+00611+00391101551ADDAY121999GF108991081051008001999999MD1810271+9999MW1031
0122028640999991953052306004+65783+024583FM-12+001599999V0201401N00461002401CN0080001N9+00891+00891100352ADDAA199017091AY161999GF108991081071002501999999IA1109KA1999N+00611MD1810642+9999MW1631EQDQ01+100353APOSLPQ02+000642APC3  
0057028640999991953052312004+65783+024583FM-12+001599999V0202701N00511004501CN0400001N9+01001+00781100261ADDAY121999GF108991081051004501999999MD1310091+9999MW1011
0087028640999991953052318004+65783+024583FM-12+001599999V0203201N00311004501CN0400001N9+00781+00501100591ADDAA199000591AY121999GF108991051081004501021999IA1109KA1999M+01001MD1310111+9999MW1601
0057028640999991953052400004+65783+024583FM-12+001599999V0203201N00311030001CN0400001N9+00611+00391100781ADDAY111999GF105991011051004501071001MD1310061+9999MW1021
0097028640999991953052406004+65783+024583FM-12+001599999V0203401N00311007801CN0400001N9+00611+00111100851ADDAY111999GF106991051081008001071001IA1089KA1999N+00281MW1031EQDQ01+000032APCTENQ02+000002APC3  
0057028640999991953052412004+65783+024583FM-12+001599999V0202901N00721007801CN0400001N9+00721-00611100991ADDAY121999GF106991061081008001001001MD1310011+9999MW1011
0108028640999991953052418004+65783+024583FM-12+001599999V0203201N00511220001CN0400001N9+00611-00501101021ADDAA199000691AY111999GF104991041081008001001001IA1089KA1999M+00891MW1011EQDQ01+000042APCTENQ02+000112APC3  
0057028640999991953052500004+65783+024583FM-12+001599999V0203201N00621220001CN0400001N9+00001-00111101401ADDAY181999GF103991031081004501001001MD1310251+9999MW1011
0087028640999991953052506004+65783+024583FM-12+001599999V0203201N00621220001CN0600001N9+00281-00281101611ADDAA199000391AY111999GF102991001001999999001021IA1089KA1999N-00111MD1310061+9999MW1021
0057028640999991953052512004+65783+024583FM-12+001599999V0202901N00721012301CN0600001N9+00721-00891101641ADDAY121999GF106991061081012501001001MD1210021+9999MW1031
0076028640999991953052518004+65783+024583FM-12+001599999V0203201N00361220001CN0600001N9+00721-00781101541ADDAY111999GF104991021091008001061021IA1009KA1999M+00721MD1810101+9999MW1011
0057028640999991953052600004+65783+024583FM-12+001599999V0209991C00001220001CN0400001N9+00001-00111101381ADDAY101999GF101991011051008001001001MD1810121+9999MW1011
0070028640999991953052606004+65783+024583FM-12+001599999V0202701N00411220001CN0400001N9+00721+00001100981ADDAY101999GF102991011011012501041011KA1999N-00111MD1810201+9999MW1031
0057028640999991953052612004+65783+024583FM-12+001599999V0202301N00621220001CN0400001N9+00721+00111100641ADDAY111999GF104991021081008001041001MD1810221+9999MW1031
0076028640999991953052618004+65783+024583FM-12+001599999V0209991C00001030001CN0400001N9+00721+00221100201ADDAY121999GF107991011041008001071999IA1009KA1999M+00781MD1810211+9999MW1031
0057028640999991953052700004+65783+024583FM-12+001599999V0209991C00001220001CN0400001N9+00111+00001099751ADDAY111999GF107991001001999999071071MD1810191+9999MW1021
0076028640999991953052706004+65783+024583FM-12+001599999V0200201N00621007801CN0400001N9+00721+00221099511ADDAY111999GF107991061091008001001021IA1009KA1999N-00111MD1810111+9999MW1031
0057028640999991953052712004+65783+024583FM-12+001599999V0203601N00511220001CN0600001N9+01001-00391099541ADDAY111999GF104991031021017501061001MD1310041+9999MW1011
0076028640999991953052718004+65783+024583FM-12+001599999V0203401N00461220001CN0600001N9+00781-00501099711ADDAY111999GF102991021041012501001001IA1009KA1999M+01111MD1310101+9999MW1011
0057028640999991953052800004+65783+024583FM-12+001599999V0203601N00361220001CN0400001N9+00391-00281099841ADDAY121999GF107991001001999999071999MD1310011+9999MW1021
0076028640999991953052806004+65783+024583FM-12+001599999V0203601N00411030001CN0400001N9+00611-00221099921ADDAY121999GF106991011081008001071001IA1009KA1999N+00221MD1310041+9999MW1011
0057028640999991953052812004+65783+024583FM-12+001599999V0203201N00101007801CN0400001N9+01001-00501100021ADDAY121999GF107991061091008001071999MD1310051+9999MW1021
0087028640999991953052818004+65783+024583FM-12+001599999V0201101N00101007801CN0400001N9+00721+00001100351ADDAA199000691AY121999GF106991061091008001001001IA1089KA1999M+01001MD1310161+9999MW1801
0076028640999991953052900004+65783+024583FM-12+001599999V0203201N00211220001CN0600001N9+00221-00111100491ADDAY111999GF102991999001999999041001MD1310031+9999MW1021EQDQ01+000002SCOTLC
0076028640999991953052906004+65783+024583FM-12+001599999V0203401N00361220001CN0600001N9+00611-00281100481ADDAY101999GF101991011011012501001021IA1089KA1999N+00111MD1990021+9999MW1031
0057028640999991953052912004+65783+024583FM-12+001599999V0203201N00361015001CN0600001N9+00781-00781100351ADDAY121999GF106991061081017501001001MD1810071+9999MW1021
0076028640999991953052918004+65783+024583FM-12+001599999V0202701N00411220001CN0600001N9+00611-00221100221ADDAY101999GF102991011051012501061051IA1009KA1999M+00891MD1810091+9999MW1011
0057028640999991953053000004+65783+024583FM-12+001599999V0209991C00001220001CN0400001N9+00111-00111100121ADDAY111999GF107991001001999999071999MD1810061+9999MW1031
0097028640999991953053006004+65783+024583FM-12+001599999V0202001N00311030001CN0400001N9+00611+00221100111ADDAY121999GF107991031081008001071999IA1009KA1999N-00111MW1021EQDQ01+000042APCTENQ02+000042APC3  
0057028640999991953053012004+65783+024583FM-12+001599999V0202501N00621007801CN0400001N9+00721-00501100211ADDAY121999GF107991051081008001071999MD1310031+9999MW1031
0097028640999991953053018004+65783+024583FM-12+001599999V0202201N00311220001CN0400001N9+00611+00391100251ADDAY111999GF104991001001999999071041IA1009KA1999M+01001MW1021EQDQ01+000032APCTENQ02+000002APC3  
0076028640999991953053100004+65783+024583FM-12+001599999V0202001N00461220001CN0400001N9+00611+00391100401ADDAY121999GF106991999001999999071001MD1310041+9999MW1031EQDQ01+000002SCOTLC
0076028640999991953053106004+65783+024583FM-12+001599999V0202001N00621030001CN0400001N9+00721+00501100651ADDAY111999GF106991021011004501051021IA1009KA1999N+00391MD1310131+9999MW1021
0057028640999991953053112004+65783+024583FM-12+001599999V0201801N00571002401CN0400001N9+00781+00611100811ADDAY121999GF108991081081002501999999MD1310011+9999MW1021
0076028640999991953053118004+65783+024583FM-12+001599999V0201401N00261004501CN0400001N9+01001+00611100801ADDAY121999GF107991061081004501071999IA1009KA1999M+01001MD1810011+9999MW1021
0057028640999991953060100004+65783+024583FM-12+001599999V0201801N00211004501CN0200001N9+00891+00781100771ADDAY161999GF108991061051004501071999MD1810011+9999MW1021
0087028640999991953060106004+65783+024583FM-12+001599999V0201801N00311004501CN0200001N9+00891+00721100811ADDAA199000691AY121999GF107991061081004501071999IA1009KA1999N+00721MD1310031+9999MW1021
0057028640999991953060112004+65783+024583FM-12+001599999V0202001N00211220001CN0400001N9+01221+00781100811ADDAY101999GF102991011021012501041001MD1990061+9999MW1021
0076028640999991953060118004+65783+024583FM-12+001599999V0209991C00001030001CN0400001N9+01611+00501100741ADDAY111999GF107991021081012501071061IA1009KA1999M+01611MD1810011+9999MW1031
0087028640999991953060206004+65783+024583FM-12+001599999V0209991C00001000601CN0050001N9+01221+01221100911ADDAA199001091AY161999GF108991071071000751021999IA1089KA1999N+00891MD1310101+9999MW1581
0057028640999991953060212004+65783+024583FM-12+001599999V0202501N003619999999N0400001N9+01281+01001101181ADDAY151999GF199999021081999999041051MD1990161+9999MW1011
0087028640999991953060218004+65783+024583FM-12+001599999V0203601N00101220001CN0400001N9+01721+01111101181ADDAA199000691AY101999GF103991011041012501071041IA1009KA1999M+01781MD1810031+9999MW1031
0057028640999991953060300004+65783+024583FM-12+001599999V0200901N00411030001CN0400001N9+01501+01281101051ADDAY111999GF105991041081008001071001MD1990111+9999MW1011
0076028640999991953060306004+65783+024583FM-12+001599999V0201601N00621030001CN0400001N9+01781+01111100981ADDAY111999GF106991041051022501041001IA1009KA1999N+01281MD1310031+9999MW1011
0049028640999991953060312004+65783+024583FM-12+001599999V0201801N00411030001CN0600001N9+02391+01111100811ADDGF106991031081012501061001MD1810121+9999MW1021
0057028640999991953060400004+65783+024583FM-12+001599999V0201401N00511220001CN0400001N9+01781+00891100691ADDAY101999GF102991011051012501001041MD1810041+9999MW1251
0087028640999991953060406004+65783+024583FM-12+001599999V0201601N00461012301CN0400001N9+01781+01111100661ADDAA199000691AY121999GF107991061091012501061999IA1009KA1999N+01611MD1210061+9999MW1801
0057028640999991953060412004+65783+024583FM-12+001599999V0202201N00461220001CN0400001N9+01501+01001101201ADDAY111999GF104991031081004501001011MD1310291+9999MW1011
0097028640999991953060418004+65783+024583FM-12+001599999V0200901N00151220001CN0400001N9+01781+00891101291ADDAY101999GF102991021081012501001001IA1009KA1999M+02001MW1031EQDQ01+000032APCTENQ02+000002APC3  
0057028640999991953060500004+65783+024583FM-12+001599999V0209991C00001220001CN0400001N9+01001+00891101411ADDAY111999GF102991021081008001001001MD1310101+9999MW1021
0076028640999991953060506004+65783+024583FM-12+001599999V0201401N00361007801CN0200001N9+01501+01111101291ADDAY121999GF108991061081008001071999IA1009KA1999N+00891MD1810081+9999MW1801
0087028640999991953060518004+65783+024583FM-12+001599999V0202001N00721004501CN0140001N9+01111+00781101541ADDAA199002091AY121999GF108991061071004501021999IA1009KA1999M+01781MD1310031+9999MW1031
0076028640999991953060600004+65783+024583FM-12+001599999V0201801N00411220001CN0110001N9+00891+00611101461ADDAY121999GF105991999001999999071001MD1810061+9999MW1011EQDQ01+000002SCOTLC
0106028640999991953060606004+65783+024583FM-12+001599999V0202001N00261220001CN0200001N9+01001+00721101451ADDAA199000691AY111999GF104991999001999999041001IA1009KA1999N+00781MD1810011+9999MW1051EQDQ01+000002SCOTLC
0057028640999991953060612004+65783+024583FM-12+001599999V0202001N00361030001CN0200001N9+01391+01001101481ADDAY111999GF106991011021008001051001MD1710031+9999MW1051
0076028640999991953060618004+65783+024583FM-12+001599999V0202001N00261030001CN0200001N9+01001+00781101511ADDAY111999GF107991021091008001061999IA1009KA1999M+01391MD1510031+9999MW1051
0057028640999991953060700004+65783+024583FM-12+001599999V0201801N00101001501CN0010001N9+00721+00721101721ADDAY111999GF108991061001001501071999MD1310091+9999MW1101
0087028640999991953060706004+65783+024583FM-12+001599999V0201101N00101000601CN0050001N9+01111+00891102051ADDAA199000691AY121999GF107991051061000751071999IA1089KA1999N+00611MD1310181+9999MW1051
0076028640999991953060718004+65783+024583FM-12+001599999V0202701N00211220001CN0034001N9+01111+01001102341ADDAY111999GF102991021091999999001001IA1009KA1999M+01391MD1310021+9999MW1011
0057028640999991953060800004+65783+024583FM-12+001599999V0209991C00001220001CN0008001N9+00781+00781102451ADDAY141999GF107991001001999999071999MD1310051+9999MW1421
0076028640999991953060806004+65783+024583FM-12+001599999V0209991C00001220001CN0200001N9+01221+01111102511ADDAY121999GF107991001001999999071999IA1009KA1999N+00721MD1310051+9999MW1051
0057028640999991953060812004+65783+024583FM-12+001599999V0202501N00461030001CN0200001N9+01781+01001102481ADDAY111999GF105991021021012501041001MD1810031+9999MW1051
0076028640999991953060818004+65783+024583FM-12+001599999V0202201N00211220001CN0400001N9+01611+01221102481ADDAY111999GF103991001001999999071011IA1009KA1999M+02001MD1210011+9999MW1011
0057028640999991953060900004+65783+024583FM-12+001599999V0209991C00001220001CN0200001N9+01001+00891102521ADDAY111999GF107991001001999999071999MD1310031+9999MW1111
0076028640999991953060906004+65783+024583FM-12+001599999V0209991C00001220001CN0200001N9+01501+00891102481ADDAY111999GF107991001001999999071999IA1009KA1999N+00891MD1710011+9999MW1021
0057028640999991953060912004+65783+024583FM-12+001599999V0202701N00311075001CN0400001N9+01891+00781102411ADDAY111999GF105991011021012501071021MD1810051+9999MW1021
0076028640999991953060918004+65783+024583FM-12+001599999V0202001N00311007801CN0400001N9+01501+01001102241ADDAY121999GF107991061081008001071999IA1009KA1999M+01891MD1810071+9999MW1021
0057028640999991953061000004+65783+024583FM-12+001599999V0209991C00001220001CN0400001N9+01001+00891102201ADDAY111999GF104991041081008001001001MD1810031+9999MW1031
0076028640999991953061006004+65783+024583FM-12+001599999V0201401N00411220001CN0400001N9+01611+01001102341ADDAY111999GF102991021081008001041001IA1009KA1999N+00891MD1310091+9999MW1011
