0078028640999991958010100004+65783+024583FM-12+001599999V0203601N00151220001CN0150001N9-01001-01111099391ADDAY171999GF108991001001999999021999MW1701EQDQ01+000042APCTENQ02+000012APC3  
0081028640999991958010106004+65783+024583FM-12+001599999V0203601N00511220001CN0250001N9-01221-01281099441ADDAA199000691AY171999GF106991001001999999021999KA1999N-01611MD1210031+9999MW1011
0057028640999991958010112004+65783+024583FM-12+001599999V0203601N00261030001CN0200001N9-01001-01111099621ADDAY121999GF107991021061012501071999MD1210041+9999MW1711
0081028640999991958010118004+65783+024583FM-12+001599999V0203601N00211030001CN0500001N9-01111-01221099881ADDAA199000691AY121999GF107991021051008001071999KA1999M-00891MD1210141+9999MW1031
0076028640999991958010200004+65783+024583FM-12+001599999V0203601N00211220001CN0500001N9-01221-01281100191ADDAY111999GF102991999001999999051001MD1210141+9999MW1011EQDQ01+000002SCOTLC
0081028640999991958010206004+65783+024583FM-12+001599999V0203601N00261024001CN0050001N9-00781-00891100441ADDAA199000691AY121999GF108991081001999999021999KA1999N-01501MD1210191+9999MW1771
0057028640999991958010212004+65783+024583FM-12+001599999V0203601N00311220001CN0200001N9-01111-01221100861ADDAY121999GF107991001001999999051999MD1210201+9999MW1021
0100028640999991958010218004+65783+024583FM-12+001599999V0203601N00311220001CN0250001N9-01721-01781101411ADDAA199000691AY111999GF101991999001999999041001KA1999M-00781MD1210271+9999MW1031EQDQ01+000002SCOTLC
0076028640999991958010300004+65783+024583FM-12+001599999V0203601N00151220001CN0400001N9-02111-02281101801ADDAY111999GF101991999001999999041001MD1210161+9999MW1011EQDQ01+000002SCOTLC
0100028640999991958010306004+65783+024583FM-12+001599999V0203601N00101220001CN0300001N9-02391-02611102161ADDAA199000691AY101999GF101991999001999999041001KA1999N-02611MD1210191+9999MW1021EQDQ01+000002SCOTLC
0076028640999991958010312004+65783+024583FM-12+001599999V0200201N00151220001CN0250001N9-02501-02721102561ADDAY101999GF102991999001999999071001MD1210151+9999MW1021EQDQ01+000002SCOTLC
0070028640999991958010318004+65783+024583FM-12+001599999V0203601N00151220001CN0400001N9-02781-03111102791ADDAY101999GF100991001001999999001001KA1999M-02391MD1110091+9999MW1021
0057028640999991958010400004+65783+024583FM-12+001599999V0209991C00001220001CN0200001N9-02891-03001103021ADDAY101999GF106991001001999999071999MD1210031+9999MW1031
0070028640999991958010406004+65783+024583FM-12+001599999V0209991C00001000601CN0200001N9-02891-03221103081ADDAY121999GF108991081061000751999999KA1999N-03111MD1210061+9999MW1021
0057028640999991958010412004+65783+024583FM-12+001599999V0209991C00001001501CN0050001N9-02501-02611103061ADDAY171999GF108991081061001501999999MD1710071+9999MW1771
0081028640999991958010418004+65783+024583FM-12+001599999V0209991C00001001501CN0070001N9-02721-03001103001ADDAA199000591AY121999GF108991081061001501999999KA1999M-02501MD1610041+9999MW1771
0057028640999991958010500004+65783+024583FM-12+001599999V0203601N00101220001CN0060001N9-02391-02611102811ADDAY171999GF107991001001999999071999MD1710071+9999MW1771
0081028640999991958010506004+65783+024583FM-12+001599999V0209991C00001002401CN0070001N9-02001-02221102841ADDAA199000391AY171999GF108991061051002501071999KA1999N-02721MD1410001+9999MW1711
0057028640999991958010512004+65783+024583FM-12+001599999V0201401N00101002401CN0080001N9-01501-01721102771ADDAY171999GF108991081071002501999999MD1810041+9999MW1711
0081028640999991958010518004+65783+024583FM-12+001599999V0201401N00261220001CN0400001N9-02111-02281102861ADDAA199000391AY171999GF100991001001999999001001KA1999M-01501MD1310041+9999MW1011
0057028640999991958010600004+65783+024583FM-12+001599999V0201401N00211220001CN0500001N9-02281-02501102841ADDAY101999GF100991001001999999001001MD1710031+9999MW1021
0070028640999991958010606004+65783+024583FM-12+001599999V0201401N00211220001CN0400001N9-02391-02611102801ADDAY101999GF100991001001999999001001KA1999N-02501MD1810031+9999MW1021
0057028640999991958010612004+65783+024583FM-12+001599999V0201401N00211220001CN0300001N9-02391-02721102771ADDAY101999GF102991011061001501041001MD1810041+9999MW1031
0070028640999991958010618004+65783+024583FM-12+001599999V0200901N00151220001CN0300001N9-03001-03281102661ADDAY101999GF100991001001999999001001KA1999M-02391MD1610061+9999MW1011
0057028640999991958010700004+65783+024583FM-12+001599999V0203601N00211220001CN0300001N9-02781-03111102321ADDAY101999GF106991001001999999071999MD1710171+9999MW1031
0081028640999991958010706004+65783+024583FM-12+001599999V0200201N00211220001CN0200001N9-02391-02611101981ADDAA199000691AY121999GF107991001001999999071999KA1999N-03111MD1710161+9999MW1221
0057028640999991958010712004+65783+024583FM-12+001599999V0200201N00211030001CN0200001N9-02111-02281101741ADDAY121999GF107991031051004501071999MD1710151+9999MW1771
0081028640999991958010718004+65783+024583FM-12+001599999V0203601N00211030001CN0300001N9-02281-02391101611ADDAA199000691AY121999GF106991011051004501071999KA1999M-02111MD1710111+9999MW1021
0057028640999991958010800004+65783+024583FM-12+001599999V0209991C00001220001CN0400001N9-02111-02281101241ADDAY121999GF107991001001999999071999MD1710221+9999MW1011
0081028640999991958010806004+65783+024583FM-12+001599999V0203601N00151220001CN0100001N9-02221-02391100991ADDAA199000591AY171999GF106991001001999999071999KA1999N-02281MD1710101+9999MW1711
0076028640999991958010812004+65783+024583FM-12+001599999V0203601N00151220001CN0250001N9-02611-02781101011ADDAY111999GF101991999001999999041001MD1610021+9999MW1011EQDQ01+000002SCOTLC
0100028640999991958010818004+65783+024583FM-12+001599999V0203601N00211220001CN0080001N9-03111-03221100981ADDAA199000691AY111999GF102991999001999999041001KA1999M-02221MD1010021+9999MW1221EQDQ01+000002SCOTLC
0057028640999991958010900004+65783+024583FM-12+001599999V0209991C00001220001CN0200001N9-03501-03781100941ADDAY101999GF100991001001999999001001MD1710031+9999MW1011
0070028640999991958010906004+65783+024583FM-12+001599999V0203601N00101220001CN0300001N9-03781+99999100681ADDAY101999GF100991001001999999001001KA1999N-03891MD1710171+9999MW1021
0057028640999991958010912004+65783+024583FM-12+001599999V0209991C00001220001CN0100001N9-03721+99999100341ADDAY101999GF100991001001999999001001MD1710131+9999MW1021
0091028640999991958010918004+65783+024583FM-12+001599999V0209991C00001220001CN0060001N9-04001+99999100151ADDAY101999GF100991001001999999001001KA1999M-03721MW1041EQDQ01+000032APCTENQ02+000002APC3  
0057028640999991958011000004+65783+024583FM-12+001599999V0201401N00151220001CN0080001N9-03721+99999100211ADDAY101999GF100991001001999999001001MD1210041+9999MW1041
0081028640999991958011006004+65783+024583FM-12+001599999V0201401N00151220001CN0040001N9-02891+99999100161ADDAA199000691AY111999GF108991001001999999021999KA1999N-04111MD1510031+9999MW1711
0057028640999991958011012004+65783+024583FM-12+001599999V0201401N00411030001CN0020001N9-02221-02391100251ADDAY171999GF108991021051008001071999MD1210011+9999MW1711
0100028640999991958011018004+65783+024583FM-12+001599999V0201601N00361220001CN0100001N9-02111-02281100511ADDAA199001091AY171999GF102991999001999999071001KA1999M-02111MD1210121+9999MW1011EQDQ01+000002SCOTLC
0057028640999991958011100004+65783+024583FM-12+001599999V0202401N00211220001CN0200001N9-02221-02391100661ADDAY121999GF106991001001999999041061MD1210031+9999MW1031
0089028640999991958011106004+65783+024583FM-12+001599999V0201101N00311220001CN0300001N9-02281-02501100651ADDAY101999GF101991999001999999041001KA1999N-02501MD1710031+9999MW1031EQDQ01+000002SCOTLC
0057028640999991958011112004+65783+024583FM-12+001599999V0201101N00311220001CN0350001N9-02111-02281100591ADDAY111999GF104991001001999999041061MD1610041+9999MW1031
0081028640999991958011118004+65783+024583FM-12+001599999V0200901N00261004501CN0150001N9-01891-02111100651ADDAA199000691AY101999GF108991081071004501999999KA1999M-01891MD1110031+9999MW1711
0057028640999991958011200004+65783+024583FM-12+001599999V0200901N00101004501CN0150001N9-01781-01891100951ADDAY171999GF108991081051004501999999MD1210191+9999MW1711
0081028640999991958011206004+65783+024583FM-12+001599999V0200701N00211001501CN0150001N9-01611-01721101171ADDAA199000691AY171999GF108991081071001501999999KA1999N-01891MD1210111+9999MW1781
0057028640999991958011212004+65783+024583FM-12+001599999V0200701N00211002401CN0120001N9-01221-01391101441ADDAY171999GF108991071051002501021999MD1210271+9999MW1221
0081028640999991958011218004+65783+024583FM-12+001599999V0200901N00211001501CN0100001N9-01221-01281101661ADDAA199000691AY121999GF108991051071001501071999KA1999M-01001MD1210181+9999MW1031
0057028640999991958011300004+65783+024583FM-12+001599999V0200901N00151002401CN0100001N9-00891-01001101711ADDAY171999GF108991081051002501999999MD1410001+9999MW1701
0081028640999991958011306004+65783+024583FM-12+001599999V0200901N00151004501CN0080001N9-00721-00781101741ADDAA199000391AY121999GF108991081051004501999999KA1999N-01281MD1210011+9999MW1701
0057028640999991958011312004+65783+024583FM-12+001599999V0209991C00001002401CN0050001N9-00611-00721101951ADDAY171999GF108991061051002501021999MD1210091+9999MW1711
0081028640999991958011318004+65783+024583FM-12+001599999V0202501N00311000151CN0008001N9-00781-00891102291ADDAA199000391AY121999GF109991091999000251999999KA1999M-00611MD1210181+9999MW1471
0057028640999991958011400004+65783+024583FM-12+001599999V0201801N00101220001CN0070001N9-01221-01281102491ADDAY121999GF103991031061001501001001MD1210031+9999MW1011
0057028640999991958011406004+65783+024583FM-12+001599999V0201801N00361000151CN0007001N9-00891-00891102401ADDAY141999GF109991091999000251999999MD1710041+9999MW1761
0057028640999991958011412004+65783+024583FM-12+001599999V0201801N00511000601CN0050001N9-00781-00781102041ADDAY171999GF108991081071000751999999MD1710271+9999MW1031
0081028640999991958011418004+65783+024583FM-12+001599999V0202001N00671000601CN0015001N9-00221-00221101571ADDAA199001091AY121999GF108991081071000751999999KA1999M-00221MD1710241+9999MW1771
0057028640999991958011500004+65783+024583FM-12+001599999V0202301N00361004501CN0025001N9-00501-00501101121ADDAY171999GF108991061051004501021999MD1710201+9999MW1731
0100028640999991958011506004+65783+024583FM-12+001599999V0209991C00001220001CN0150001N9-01001-01111101151ADDAA199001091AY171999GF101991999001999999041001KA1999N-01111MD1210091+9999MW1011EQDQ01+000002SCOTLC
0076028640999991958011512004+65783+024583FM-12+001599999V0209991C00001220001CN0250001N9-01221-01281101511ADDAY101999GF101991999001999999041001MD1210181+9999MW1011EQDQ01+000002SCOTLC
0070028640999991958011518004+65783+024583FM-12+001599999V0209991C00001220001CN0008001N9-02111-02281101641ADDAY101999GF100991001001999999001001KA1999M-01001MD1810031+9999MW1411
0057028640999991958011600004+65783+024583FM-12+001599999V0201601N00311220001CN0070001N9-01501-01611101321ADDAY101999GF102991021061000751001001MD1710221+9999MW1031
0089028640999991958011606004+65783+024583FM-12+001599999V0201801N00671030001CN0050001N9-00781-00891100211ADDAY111999GF108991021071004501021999KA1999N-02111MD1710612+9999MW1711EQDQ01+000612APC3  
0057028640999991958011612004+65783+024583FM-12+001599999V0202301N00771220001CN0300001N9+00001-00111099401ADDAY121999GF102991011071001501041001MD1710331+9999MW1011
0081028640999991958011618004+65783+024583FM-12+001599999V0202501N00511220001CN0100001N9+00001-00391099151ADDAA199000591AY121999GF103991031071004501001001KA1999M+00111MD1710101+9999MW1261
0057028640999991958011700004+65783+024583FM-12+001599999V0202501N00511220001CN0100001N9-00221-00221098651ADDAY101999GF100991001001999999001001MD1710301+9999MW1011
0057028640999991958011706004+65783+024583FM-12+001599999V0202501N00571220001CN0300001N9-00281-00391098011ADDAY101999GF102991001001999999041021MD1710331+9999MW1021
0057028640999991958011712004+65783+024583FM-12+001599999V0202501N00461220001CN0150001N9-00611-00721097301ADDAY121999GF104991021051004501041001MD1710261+9999MW1011
0081028640999991958011718004+65783+024583FM-12+001599999V0202501N00721220001CN0010001N9-00501-00501096651ADDAA199000691AY111999GF108991001001999999021999KA1999M-00281MD1710331+9999MW1751
0076028640999991958011800004+65783+024583FM-12+001599999V0202701N00461220001CN0400001N9-00611-00781096511ADDAY111999GF101991999001999999041001MD1210041+9999MW1011EQDQ01+000002SCOTLC
0081028640999991958011806004+65783+024583FM-12+001599999V0202901N00621220001CN0400001N9-00221-00891096381ADDAA199000591AY121999GF108991001001999999071999KA1999N-00721MD1610031+9999MW1021
0057028640999991958011812004+65783+024583FM-12+001599999V0203601N00211220001CN0500001N9-00611-00891096681ADDAY121999GF103991011051004501041051MD1210231+9999MW1011
0070028640999991958011818004+65783+024583FM-12+001599999V0209991C00001220001CN0070001N9-01391-01501096941ADDAY111999GF102991021061001501001001KA1999M-00221MD1110011+9999MW1041
0057028640999991958011900004+65783+024583FM-12+001599999V0209991C00001220001CN0150001N9-01391-01501097051ADDAY101999GF108991001001999999021999MD1210061+9999MW1031
0100028640999991958011906004+65783+024583FM-12+001599999V0201601N00361220001CN0200001N9-00891-01001097051ADDAA199001091AY171999GF103991999001999999071001KA1999N-01781MD1310011+9999MW1011EQDQ01+000002SCOTLC
0078028640999991958011912004+65783+024583FM-12+001599999V0200701N00361030001CN0200001N9-00891-01001097061ADDAY121999GF108991021051002501071999MW1011EQDQ01+000042APCTENQ02+000012APC3  
0070028640999991958011918004+65783+024583FM-12+001599999V0200501N00511220001CN0400001N9-00891-01111096801ADDAY121999GF108991001001999999071999KA1999M-00781MD1610111+9999MW1021
0057028640999991958012000004+65783+024583FM-12+001599999V0200401N00411220001CN0080001N9-01111-01221096921ADDAY121999GF106991001001999999071999MD1210051+9999MW1711
0081028640999991958012006004+65783+024583FM-12+001599999V0203601N00461030001CN0050001N9-01221-01391097041ADDAA199000391AY171999GF108991021071004501021999KA1999N-01281MD1210131+9999MW1711
0057028640999991958012012004+65783+024583FM-12+001599999V0203401N00311030001CN0400001N9-01281-01281097551ADDAY121999GF107991011051008001071051MD1210241+9999MW1011
0076028640999991958012018004+65783+024583FM-12+001599999V0203601N00211220001CN0300001N9-01501-01611097061ADDAY121999GF102991999001999999071001MD1210261+9999MW1011EQDQ01+000002SCOTLC
0092028640999991958012100004+65783+024583FM-12+001599999V0203401N00151220001CN0400001N9-02221-02391098642ADDAY101999GF101991999001999999041001MD1210321+9999MW1011EQDQ01+000002SCOTLCQ02+098643APOSLP
0081028640999991958012106004+65783+024583FM-12+001599999V0209991C00001220001CN0150001N9-01891-02111099811ADDAA199000391AY111999GF107991001001999999021999KA1999N-02501MD1210271+9999MW1731
0057028640999991958012112004+65783+024583FM-12+001599999V0209991C00001220001CN0080001N9-02111-02221099861ADDAY171999GF106991001001999999041071MD1210231+9999MW1041
0081028640999991958012118004+65783+024583FM-12+001599999V0209991C00001220001CN0200001N9-02611-02781100251ADDAA199000391AY111999GF100991001001999999001001KA1999M-01891MD1210251+9999MW1021
0057028640999991958012200004+65783+024583FM-12+001599999V0201601N00411002401CN0045001N9-01281-01391100711ADDAY171999GF108991081071002501999999MD1210201+9999MW1711
0081028640999991958012206004+65783+024583FM-12+001599999V0201601N00361004501CN0060001N9-01391-01501100941ADDAA199000591AY171999GF108991081071004501999999KA1999N-02611MD1210151+9999MW1711
0057028640999991958012212004+65783+024583FM-12+001599999V0201401N00211004501CN0080001N9-01281-01391101171ADDAY171999GF108991081051004501999999MD1010071+9999MW1711
0081028640999991958012218004+65783+024583FM-12+001599999V0201401N00361002401CN0050001N9-01281-01391101351ADDAA199000391AY171999GF108991081051002501999999KA1999M-01281MD1210071+9999MW1711
0057028640999991958012300004+65783+024583FM-12+001599999V0201401N00261002401CN0100001N9-01001-01111101341ADDAY171999GF108991081051002501999999MD1410001+9999MW1221
0081028640999991958012306004+65783+024583FM-12+001599999V0201401N00211004501CN0130001N9-00891-01001101311ADDAA199000391AY121999GF108991081051004501999999KA1999N-01281MD1410001+9999MW1711
0057028640999991958012312004+65783+024583FM-12+001599999V0201601N00211001501CN0035001N9-00781-00891101601ADDAY171999GF108991081061001501999999MD1210111+9999MW1731
0100028640999991958012318004+65783+024583FM-12+001599999V0201601N00361001501CN0050001N9-00721-00721101981ADDAA199000391AY171999GF108991081061001501999999KA1999M+99999MD1210181+9999MW1021EQDQ01 -00892ATMX  
0057028640999991958012400004+65783+024583FM-12+001599999V0201601N00411220001CN0150001N9-00721-00781102181ADDAY121999GF108991001001999999021999MD1210021+9999MW1711
0043028640999991958012406004+65783+024583FM-12+001599999V0201601N00721002401CN0045001N9-00611-00611102371ADDAY171999GF108991061071002501021999MW1731
0057028640999991958012412004+65783+024583FM-12+001599999V0200901N00461030001CN0150001N9-00781-00891102511ADDAY121999GF108991041051002501021999MD1710111+9999MW1011
0081028640999991958012418004+65783+024583FM-12+001599999V0201401N00621000151CN0012001N9-00501-00611101971ADDAA199002091AY171999GF109991091999000251999999KA1999M-00501MD1710161+9999MW1731
0057028640999991958012500004+65783+024583FM-12+001599999V0201601N00511004501CN0080001N9-00391-00611102111ADDAY171999GF108991081051004501999999MD1210081+9999MW1711
0081028640999991958012506004+65783+024583FM-12+001599999V0201601N00361002401CN0080001N9-00391-00501102081ADDAA199001091AY171999GF108991081051002501999999KA1999N-00501MD1410001+9999MW1711
0057028640999991958012512004+65783+024583FM-12+001599999V0201601N00311004501CN0050001N9-00501-00501102051ADDAY171999GF108991051071004501021999MD1610031+9999MW1711
0081028640999991958012518004+65783+024583FM-12+001599999V0201801N00311001501CN0080001N9-00391-00501102091ADDAA199001091AY171999GF108991081071001501999999KA1999M-00391MD1310051+9999MW1711
0057028640999991958012600004+65783+024583FM-12+001599999V0201801N00211000601CN0040001N9-00891-01001102281ADDAY141999GF108991081061000751999999MD1210071+9999MW1281
0100028640999991958012606004+65783+024583FM-12+001599999V0201601N00151220001CN0200001N9-01721-01781102341ADDAA199000691AY141999GF101991999001999999041001KA1999N-01721MD1110051+9999MW1031EQDQ01+000002SCOTLC
0057028640999991958012612004+65783+024583FM-12+001599999V0201801N00101220001CN0050001N9-01721-01781102381ADDAY111999GF101991011061002501001001MD1410001+9999MW1041
0089028640999991958012618004+65783+024583FM-12+001599999V0201601N00101220001CN0070001N9-02111-02281102321ADDAY111999GF103991999001999999071001KA1999M-01611MD1610041+9999MW1761EQDQ01+000002SCOTLC
0057028640999991958012700004+65783+024583FM-12+001599999V0209991C00001000601CN0018001N9-02221-02281102311ADDAY111999GF107991071061000751999999MD1710021+9999MW1101
0070028640999991958012706004+65783+024583FM-12+001599999V0209991C00001220001CN0100001N9-01611-01721102311ADDAY121999GF107991001001999999071999KA1999N-02391MD1310011+9999MW1011
0057028640999991958012712004+65783+024583FM-12+001599999V0209991C00001030001CN0080001N9-01281-01391102351ADDAY121999GF108991021051002501071999MD1710031+9999MW1011
0070028640999991958012718004+65783+024583FM-12+001599999V0209991C00001000151CN0005001N9-00891-00891101851ADDAY121999GF109991091999000251999999KA1999M-00891MD1710281+9999MW1471
0057028640999991958012800004+65783+024583FM-12+001599999V0209991C00001004501CN0400001N9-00891-01001101621ADDAY171999GF108991081051004501999999MD1710081+9999MW1021
0081028640999991958012806004+65783+024583FM-12+001599999V0209991C00001220001CN0300001N9-01391-01501101751ADDAA199000591AY101999GF107991001001999999021999KA1999N-01501MD1210021+9999MW1031
0057028640999991958012812004+65783+024583FM-12+001599999V0209991C00001220001CN0100001N9-01221-01281101881ADDAY121999GF108991001001999999021999MD1710011+9999MW1021
0070028640999991958012818004+65783+024583FM-12+001599999V0200201N00211220001CN0150001N9-01111-01221102141ADDAY121999GF107991001001999999071999KA1999M-01111MD1210191+9999MW1021
0076028640999991958012900004+65783+024583FM-12+001599999V0200201N00261220001CN0500001N9-01501-01611102541ADDAY111999GF101991999001999999041001MD1210211+9999MW1011EQDQ01+000002SCOTLC
0089028640999991958012906004+65783+024583FM-12+001599999V0200201N00151220001CN0300001N9-02111-02281102781ADDAY101999GF101991999001999999041001KA1999N-02221MD1210161+9999MW1021EQDQ01+000002SCOTLC
0057028640999991958012912004+65783+024583FM-12+001599999V0209991C00001220001CN0300001N9-01891-02111102981ADDAY101999GF102991001001999999041021MD1110041+9999MW1011
0089028640999991958012918004+65783+024583FM-12+001599999V0209991C00001220001CN0300001N9-02281-02391102921ADDAY101999GF105991999001999999051001KA1999M-01781MD1610021+9999MW1031EQDQ01+000002SCOTLC
0057028640999991958013000004+65783+024583FM-12+001599999V0201401N00151000601CN0070001N9-01721-01781102641ADDAY121999GF108991061061000751071999MD1710201+9999MW1031
0081028640999991958013006004+65783+024583FM-12+001599999V0201601N00311220001CN0080001N9-01281-01391102021ADDAA199000691AY121999GF108991001001999999021999KA1999N-02281MD1710251+9999MW1711
0057028640999991958013012004+65783+024583FM-12+001599999V0201601N00621030001CN0030001N9-00781-00891101481ADDAY171999GF108991021071004501021999MD1710341+9999MW1731
0081028640999991958013018004+65783+024583FM-12+001599999V0201801N00571001501CN0060001N9-00391-00391101091ADDAA199001091AY171999GF108991081061001501999999KA1999M-00391MD1710231+9999MW1761
0057028640999991958013100004+65783+024583FM-12+001599999V0202001N00151000151CN0015001N9-00281-00281100711ADDAY121999GF108991081061000251999999MD1710061+9999MW1101
0081028640999991958013106004+65783+024583FM-12+001599999V0201801N00151220001CN0150001N9-01001-01111100701ADDAA199000691AY111999GF101991011061000751041001KA1999N-01001MD1410001+9999MW1031
0078028640999991958013112004+65783+024583FM-12+001599999V0209991C00001030001CN0080001N9-00781-00781100601ADDAY111999GF107991011061000751071071MW1011EQDQ01+000042APCTENQ02+000012APC3  
0070028640999991958013118004+65783+024583FM-12+001599999V0201401N00211220001CN0200001N9-00891-01001100411ADDAY111999GF103991001001999999041011KA1999M-00721MD1710171+9999MW1031
0057028640999991958020100004+65783+024583FM-12+001599999V0202301N00671030001CN0100001N9+00111+00111099821ADDAY121999GF108991021071004501021999MD1710291+9999MW1611
0081028640999991958020106004+65783+024583FM-12+001599999V0202501N00411220001CN0400001N9+00281+00111099721ADDAA199002091AY121999GF107991001001999999071999KA1999N+00001MD1410001+9999MW1011
0057028640999991958020112004+65783+024583FM-12+001599999V0202701N005119999999N0500001N9+00281+00111099741ADDAY121999GF107991051051999999071999MD1210011+9999MW1021
0070028640999991958020118004+65783+024583FM-12+001599999V0202301N00511007801CN0500001N9+00221+00001099571ADDAY121999GF107991051051008001071999KA1999M+00611MD1710131+9999MW1021
0057028640999991958020200004+65783+024583FM-12+001599999V0201801N00511004501CN0400001N9+00001-00111099121ADDAY121999GF108991051051004501071999MD1710181+9999MW1031
0100028640999991958020206004+65783+024583FM-12+001599999V0201801N00261220001CN0500001N9-00111-00281098891ADDAA199000691AY121999GF103991999001999999071001KA1999N-00221MD1710091+9999MW1031EQDQ01+000002SCOTLC
0057028640999991958020212004+65783+024583FM-12+001599999V0202301N00571030001CN0500001N9+00001-00281098951ADDAY101999GF106991031051004501071999MD1110021+9999MW1031
0070028640999991958020218004+65783+024583FM-12+001599999V0202301N00721030001CN0500001N9+00001-00281098661ADDAY101999GF107991011051004501011999KA1999M+00001MD1710201+9999MW1031
0057028640999991958020300004+65783+024583FM-12+001599999V0202001N00671220001CN0500001N9-00111-00281098381ADDAY101999GF107991001001999999041071MD1710141+9999MW1031
0070028640999991958020306004+65783+024583FM-12+001599999V0201801N005719999999N0500001N9-00221-00391098211ADDAY111999GF107991999021008001041071KA1999N-00281MD1810041+9999MW1031
0057028640999991958020312004+65783+024583FM-12+001599999V0203601N00511001501CN0100001N9-00221-00281098721ADDAY171999GF108991081051001501999999MD1210331+9999MW1711
0081028640999991958020318004+65783+024583FM-12+001599999V0203601N00621220001CN0150001N9-00501-00781099521ADDAA199002091AY171999GF106991001001999999071999KA1999M-00221MD1210371+9999MW1221
0076028640999991958020400004+65783+024583FM-12+001599999V0203601N00721220001CN0500001N9-00781-01111099941ADDAY101999GF102991999001999999041001MD1210191+9999MW1021EQDQ01+000002SCOTLC
0081028640999991958020406004+65783+024583FM-12+001599999V0203601N00671220001CN0400001N9-01001-01281100081ADDAA199000391AY101999GF106991001001999999071999KA1999N-01001MD1010071+9999MW1031
0057028640999991958020412004+65783+024583FM-12+001599999V0203601N00511220001CN0400001N9-00891-01111100181ADDAY111999GF108991001001999999999999MD1410001+9999MW1011
0081028640999991958020418004+65783+024583FM-12+001599999V0200201N00621220001CN0500001N9-01001-01281100211ADDAA199000691AY121999GF107991001001999999021071KA1999M-00891MD1110031+9999MW1011
0057028640999991958020500004+65783+024583FM-12+001599999V0203601N00621220001CN0500001N9-01111-01501100281ADDAY121999GF107991001001999999001071MD1210061+9999MW1021
0081028640999991958020506004+65783+024583FM-12+001599999V0203601N00461220001CN0500001N9-01221-01501100411ADDAA199000691AY121999GF102991001001999999001011KA1999N-01281MD1210041+9999MW1021
0057028640999991958020512004+65783+024583FM-12+001599999V0200401N00511220001CN0500001N9-01221-01611100461ADDAY101999GF103991001001999999001061MD1710051+9999MW1021
0070028640999991958020518004+65783+024583FM-12+001599999V0203601N00411220001CN0500001N9-01611-01721100421ADDAY101999GF100991001001999999001001KA1999M-01221MD1710021+9999MW1021
0057028640999991958020600004+65783+024583FM-12+001599999V0203601N00411220001CN0500001N9-01721-01781100351ADDAY101999GF100991001001999999001001MD1710051+9999MW1011
0089028640999991958020606004+65783+024583FM-12+001599999V0203601N00211220001CN0500001N9-01721-01781100181ADDAY101999GF101991999001999999041001KA1999N-01891MD1710071+9999MW1021EQDQ01+000002SCOTLC
0057028640999991958020612004+65783+024583FM-12+001599999V0203601N00461220001CN0100001N9-01281-01611099991ADDAY111999GF108991001001999999071999MD1710101+9999MW1701
0081028640999991958020618004+65783+024583FM-12+001599999V0203601N00511220001CN0250001N9-01221-01501099861ADDAA199000391AY171999GF107991001001999999071999KA1999M-01221MD1710061+9999MW1701
0057028640999991958020700004+65783+024583FM-12+001599999V0200201N00511220001CN0500001N9-01111-01391099801ADDAY121999GF106991001001999999001061MD1710031+9999MW1011
0081028640999991958020706004+65783+024583FM-12+001599999V0200201N00311220001CN0500001N9-01281-01501099911ADDAA199000691AY111999GF102991001001999999041011KA1999N-01391MD1210071+9999MW1031
0062028640999991958020712004+65783+024583FM-12+001599999V0203601N00461220001CN0400001N9-01221-01281100091ADDAY171999GF103991999001999999051001MW1031EQDQ01+000002SCOTLC
0100028640999991958020718004+65783+024583FM-12+001599999V0203601N00211220001CN0100001N9-01111-01221100221ADDAA199000691AY171999GF103991999001999999071001KA1999M-01001MD1210091+9999MW1011EQDQ01+000002SCOTLC
0057028640999991958020800004+65783+024583FM-12+001599999V0203601N00211220001CN0400001N9-01281-01501100441ADDAY101999GF100991001001999999001001MD1210121+9999MW1011
0070028640999991958020806004+65783+024583FM-12+001599999V0203601N00211220001CN0500001N9-01611-01721100611ADDAY101999GF105991001001999999041061KA1999N-01721MD1210071+9999MW1031
0057028640999991958020812004+65783+024583FM-12+001599999V0203601N00261220001CN0500001N9-01281-01611100751ADDAY111999GF102991001001999999041061MD1210031+9999MW1011
0070028640999991958020818004+65783+024583FM-12+001599999V0203601N00151220001CN0400001N9-01891-02001100891ADDAY101999GF100991001001999999001001KA1999M-01281MD1010031+9999MW1011
0057028640999991958020900004+65783+024583FM-12+001599999V0203601N00361000601CN0400001N9-01891-02001101011ADDAY101999GF105991051061000751001001MD1210061+9999MW1031
0081028640999991958020906004+65783+024583FM-12+001599999V0209991C00001220001CN0150001N9-01501-01611100981ADDAA199000691AY121999GF101991011061001501001001KA1999N-02281MD1810021+9999MW1021
0057028640999991958020912004+65783+024583FM-12+001599999V0203601N00211220001CN0400001N9-01501-01611100981ADDAY101999GF101991001001999999001021MD1710021+9999MW1021
0089028640999991958020918004+65783+024583FM-12+001599999V0203601N00211220001CN0400001N9-02001-02221100921ADDAY101999GF101991999001999999041001KA1999M-01501MD1510031+9999MW1021EQDQ01+000002SCOTLC
0057028640999991958021000004+65783+024583FM-12+001599999V0209991C00001220001CN0300001N9-02221-02391101041ADDAY101999GF100991001001999999001001MD1210051+9999MW1021
0081028640999991958021006004+65783+024583FM-12+001599999V0209991C00001002401CN0100001N9-01891-02111101241ADDAA199000691AY171999GF107991071051002501999999KA1999N-02721MD1210081+9999MW1711
0057028640999991958021012004+65783+024583FM-12+001599999V0209991C00001007801CN0300001N9-01501-01611101401ADDAY101999GF106991061051008001999999MD1110051+9999MW1031
0057028640999991958021018004+65783+024583FM-12+001599999V0209991C00001220001CN0080001N9-01391-01611101391ADDAY101999GF100991001001999999001001MD1710011+9999MW1041
0057028640999991958021100004+65783+024583FM-12+001599999V0200201N00211004501CN0250001N9-01891-02111101311ADDAY111999GF108991081051004501999999MD1710051+9999MW1021
0100028640999991958021106004+65783+024583FM-12+001599999V0209991C00001220001CN0100001N9-02611+99999101351ADDAA199000591AY101999GF101991999001999999041001KA1999N-02721MD1210061+9999MW1021EQDQ01+000002SCOTLC
0043028640999991958021112004+65783+024583FM-12+001599999V0209991C00001220001CN0250001N9-01781+99999101611ADDAY101999GF101991011051008001041001MW1011
0070028640999991958021118004+65783+024583FM-12+001599999V0203601N00151220001CN0250001N9-02611-02721101711ADDAY101999GF101991011051004501001001KA1999M-01721MD1010031+9999MW1011
0057028640999991958021200004+65783+024583FM-12+001599999V0201401N00211220001CN0300001N9-01721-01781101601ADDAY171999GF108991001001999999041071MD1810121+9999MW1011
0100028640999991958021206004+65783+024583FM-12+001599999V0201401N00511220001CN0400001N9-01501-01781101201ADDAA199000691AY111999GF107991999001999999071001KA1999N-02891MD1710201+9999MW1021EQDQ01+000002SCOTLC
0057028640999991958021212004+65783+024583FM-12+001599999V0201401N00571030001CN0025001N9-01111-01281100741ADDAY171999GF108991041071002501021999MD1710201+9999MW1731
0081028640999991958021218004+65783+024583FM-12+001599999V0201601N00621220001CN0030001N9-01111-01221100291ADDAA199000591AY171999GF108991001001999999021999KA1999M-01111MD1710191+9999MW1731
0057028640999991958021300004+65783+024583FM-12+001599999V0201401N00461220001CN0025001N9-01111-01221100011ADDAY171999GF108991001001999999021999MD1710131+9999MW1731
0081028640999991958021306004+65783+024583FM-12+001599999V0200901N00361004501CN0030001N9-01221-01391099861ADDAA199001091AY171999GF108991081051004501999999KA1999N-01221MD1810041+9999MW1731
0057028640999991958021312004+65783+024583FM-12+001599999V0201401N00261220001CN0100001N9-01111-01281099951ADDAY171999GF108991001001999999071999MD1210031+9999MW1711
0081028640999991958021318004+65783+024583FM-12+001599999V0200701N00151030001CN0200001N9-01111-01221100211ADDAA199002091AY121999GF108991021051004501021999KA1999M-01111MD1210161+9999MW1031
0076028640999991958021400004+65783+024583FM-12+001599999V0209991C00001220001CN0250001N9-01501-01611100401ADDAY111999GF101991999001999999041001MD1210151+9999MW1011EQDQ01+000002SCOTLC
0070028640999991958021406004+65783+024583FM-12+001599999V0201401N00311030001CN0100001N9-01281-01391100481ADDAY111999GF107991041051002501071999KA1999N-01611MD1710091+9999MW1031
0057028640999991958021412004+65783+024583FM-12+001599999V0201601N00461001501CN0050001N9-00891-01001100251ADDAY171999GF108991081061001501999999MD1710191+9999MW1021
0057028640999991958021418004+65783+024583FM-12+001599999V0201801N00571001501CN0200001N9-00281-00391099891ADDAY171999GF108991081071001501999999MD1710151+9999MW1021
0057028640999991958021500004+65783+024583FM-12+001599999V0201701N00311220001CN0300001N9-00611-00721099711ADDAY111999GF108991001001999999071999MD1710071+9999MW1031
0091028640999991958021506004+65783+024583FM-12+001599999V0201701N00211220001CN0150001N9-00781-00781099591ADDAY111999GF104991011051002501071001KA1999N-00891MW1021EQDQ01+000022APCTENQ02+000002APC3  
0057028640999991958021512004+65783+024583FM-12+001599999V0209991C00001220001CN0020001N9-00721-00721099711ADDAY101999GF102991999999999999999999MD1210091+9999MW1041
0070028640999991958021518004+65783+024583FM-12+001599999V0209991C00001030001CN0070001N9-01281-01281099881ADDAY141999GF105991041061000751041001KA1999M-00721MD1110041+9999MW1281
0057028640999991958021600004+65783+024583FM-12+001599999V0201601N00101220001CN0045001N9-01501-01611099831ADDAY101999GF104991031061000251041001MD1710061+9999MW1031
0070028640999991958021606004+65783+024583FM-12+001599999V0209991C00001030001CN0200001N9-01221-01281099551ADDAY121999GF107991041051008001071999KA1999N-01781MD1710171+9999MW1031
0057028640999991958021612004+65783+024583FM-12+001599999V0200901N00151001501CN0080001N9-00721-00781099421ADDAY121999GF108991081061001501999999MD1710101+9999MW1011
0081028640999991958021618004+65783+024583FM-12+001599999V0202301N00151220001CN0020001N9-00611-00611099181ADDAA199003091AY171999GF108991001001999999021999KA1999M-00611MD1510131+9999MW1731
0057028640999991958021700004+65783+024583FM-12+001599999V0201401N00411220001CN0300001N9-00611-00721099171ADDAY171999GF107991001001999999071071MD1210021+9999MW1011
0081028640999991958021706004+65783+024583FM-12+001599999V0201401N00461004501CN0300001N9-01001-01111099311ADDAA199003091AY121999GF107991051051004501071999KA1999N-01001MD1210101+9999MW1011
0057028640999991958021712004+65783+024583FM-12+001599999V0200201N00261004501CN0150001N9-00781-00891099391ADDAY121999GF108991061051004501071999MD1710041+9999MW1701
0102028640999991958021718004+65783+024583FM-12+001599999V0200201N002119999999N0070001N9-00781-00781099401ADDAA199000591AY171999GF108991081041999999999999KA1999M-00721MW1711EQDQ01+000042APCTENQ02+000012APC3  
0078028640999991958021800004+65783+024583FM-12+001599999V0200201N00311030001CN0060001N9-01001-01111099421ADDAY171999GF108991041051004501021999MW1701EQDQ01+000042APCTENQ02+000012APC3  
0081028640999991958021806004+65783+024583FM-12+001599999V0203601N00361004501CN0150001N9-01111-01111099421ADDAA199000391AY121999GF108991061051004501071999KA1999N-01111MD1110031+9999MW1021
0057028640999991958021812004+65783+024583FM-12+001599999V0203601N00261030001CN0300001N9-00781-00891099541ADDAY121999GF107991011051008001071999MD1110041+9999MW1011
0081028640999991958021818004+65783+024583FM-12+001599999V0203601N00211220001CN0070001N9-00891-01001099581ADDAA199000391AY171999GF108991001001999999021999KA1999M-00781MD1410001+9999MW1711
0057028640999991958021900004+65783+024583FM-12+001599999V0203601N00151220001CN0400001N9-01001-01111099551ADDAY171999GF108991001001999999021999MD1710051+9999MW1221
0081028640999991958021906004+65783+024583FM-12+001599999V0203601N00151007801CN0300001N9-01111-01221099511ADDAA199000391AY121999GF108991061051008001021999KA1999N-01111MD1810021+9999MW1031
0057028640999991958021912004+65783+024583FM-12+001599999V0203601N00211007801CN0400001N9-00891-01111099411ADDAY121999GF108991051051008001071999MD1710071+9999MW1011
0081028640999991958021918004+65783+024583FM-12+001599999V0203401N00211220001CN0050001N9-01111-01221099351ADDAA199000691AY121999GF108991001001999999021999KA1999M-00891MD1710051+9999MW1711
0057028640999991958022000004+65783+024583FM-12+001599999V0203601N00151220001CN0050001N9-01111-01221099281ADDAY171999GF108991001001999999021999MD1710021+9999MW1711
0116028640999991958022006004+65783+024583FM-12+001599999V0203601N00151220001CN0200001N9-01891-02001099381ADDAA199002091AY101999GF101991999001999999041001KA1999N+99999MD1210061+9999MW1021EQDQ01+000002SCOTLCQ02 -01002ATMN  
0057028640999991958022012004+65783+024583FM-12+001599999V0200201N00101030001CN0200001N9-01391-01501099821ADDAY121999GF107991021051004501041071MD1210081+9999MW1011
0081028640999991958022018004+65783+024583FM-12+001599999V0203601N00151220001CN0100001N9-01781-01891099761ADDAA199000691AY121999GF107991001001999999071071KA1999M-01391MD1010031+9999MW1711
0057028640999991958022100004+65783+024583FM-12+001599999V0200201N00211000601CN0050001N9-02281-02391099791ADDAY101999GF105991051061000751001001MD1410001+9999MW1031
0081028640999991958022106004+65783+024583FM-12+001599999V0209991C00001220001CN0035001N9-01721-01781099691ADDAA199000391AY171999GF108991001001999999021999KA1999N-02611MD1710051+9999MW1731
0057028640999991958022112004+65783+024583FM-12+001599999V0209991C00001220001CN0050001N9-01391-01611099791ADDAY171999GF106991001001999999041071MD1210041+9999MW1781
0057028640999991958022118004+65783+024583FM-12+001599999V0209991C00001220001CN0220001N9-02281-02391100021ADDAY111999GF104991001001999999041051MD1210171+9999MW1771
0057028640999991958022200004+65783+024583FM-12+001599999V0203601N00211004501CN0100001N9-02001-02221100291ADDAY111999GF108991071051004501999999MD1210151+9999MW1031
0081028640999991958022206004+65783+024583FM-12+001599999V0203601N00211004501CN0070001N9-01891-02111100541ADDAA199000391AY171999GF108991051051004501021999KA1999N-02501MD1210141+9999MW1781
0057028640999991958022212004+65783+024583FM-12+001599999V0203601N00211220001CN0080001N9-01501-01721100691ADDAY171999GF106991001001999999041071MD1210081+9999MW1771
0057028640999991958022218004+65783+024583FM-12+001599999V0203601N00261220001CN0080001N9-01721-01781100751ADDAY171999GF107991001001999999041071MD1210021+9999MW1771
0076028640999991958022300004+65783+024583FM-12+001599999V0203601N00261220001CN0200001N9-01781-01891100711ADDAY171999GF101991999001999999041001MD1710051+9999MW1221EQDQ01+000002SCOTLC
0081028640999991958022306004+65783+024583FM-12+001599999V0200201N00261007801CN0150001N9-01891-02001100741ADDAA199000691AY121999GF108991061051008001071999KA1999N-02111MD1310031+9999MW1031
0057028640999991958022312004+65783+024583FM-12+001599999V0203601N00211220001CN0200001N9-01611-01781100781ADDAY101999GF100991001001999999001001MD1210051+9999MW1051
0100028640999991958022318004+65783+024583FM-12+001599999V0203601N00211220001CN0200001N9-02391-02611101001ADDAA199000691AY101999GF101991999001999999041001KA1999M-01501MD1210111+9999MW1021EQDQ01+000002SCOTLC
0057028640999991958022400004+65783+024583FM-12+001599999V0203601N00151220001CN0400001N9-03001-03111101201ADDAY101999GF100991001001999999001001MD1210071+9999MW1021
0089028640999991958022406004+65783+024583FM-12+001599999V0200201N00211220001CN0200001N9-03001-03111101361ADDAY101999GF101991999001999999041001KA1999N-03221MD1210061+9999MW1031EQDQ01+000002SCOTLC
0076028640999991958022412004+65783+024583FM-12+001599999V0203601N00211220001CN0200001N9-02001-02221101421ADDAY101999GF101991999001999999041001MD1110021+9999MW1051EQDQ01+000002SCOTLC
0081028640999991958022418004+65783+024583FM-12+001599999V0203601N00261220001CN0100001N9-01781-01891101351ADDAA199000691AY121999GF106991001001999999071061KA1999M-01721MD1710041+9999MW1711
0057028640999991958022500004+65783+024583FM-12+001599999V0209991C00001220001CN0400001N9-02501+99999101351ADDAY101999GF100991001001999999001001MD1210031+9999MW1021
0100028640999991958022506004+65783+024583FM-12+001599999V0209991C00001220001CN0100001N9-03221+99999101541ADDAA199000691AY101999GF102991999001999999041001KA1999N-03281MD1210111+9999MW1031EQDQ01+000002SCOTLC
0057028640999991958022512004+65783+024583FM-12+001599999V0209991C00001220001CN0120001N9-01891-02221101801ADDAY101999GF101991001001999999001021MD1210071+9999MW1041
0076028640999991958022518004+65783+024583FM-12+001599999V0209991C00001220001CN0050001N9+99999+99999101801ADDAY141999GF104991999001999999041001MD1510001+9999MW1401EQDQ01+000002SCOTLC
0057028640999991958022600004+65783+024583FM-12+001599999V0203401N00101220001CN0050001N9-01891-02111101601ADDAY121999GF108991001001999999051999MD1810101+9999MW1701
0068028640999991958022606004+65783+024583FM-12+001599999V0203601N00151220001CN0020001N9-01391-01501101281ADDAA199001091AY121999GF108991001001999999021999MD1710121+9999MW1701
0057028640999991958022612004+65783+024583FM-12+001599999V0201801N00211030001CN0100001N9-01501-01721101141ADDAY171999GF106991011051008001071021MD1510021+9999MW1221
0057028640999991958022618004+65783+024583FM-12+001599999V0201601N00311004501CN0150001N9-01891-02111101421ADDAY121999GF108991081051004501999999MD1210201+9999MW1781
0057028640999991958022700004+65783+024583FM-12+001599999V0200201N00211001501CN0150001N9-01721-01781101521ADDAY171999GF108991081061001501999999MD1010001+9999MW1781
0081028640999991958022706004+65783+024583FM-12+001599999V0203601N00211220001CN0030001N9-01281-01391101291ADDAA199000691AY171999GF108991001001999999021999KA1999N-02001MD1710111+9999MW1731
0057028640999991958022712004+65783+024583FM-12+001599999V0200901N00361220001CN0010001N9-00891-01001101191ADDAY171999GF108991001001999999021999MD1710091+9999MW1741
0081028640999991958022718004+65783+024583FM-12+001599999V0201401N00361030001CN0050001N9-00781-00891101151ADDAA199006091AY171999GF108991031051004501021999KA1999M-00781MD1110021+9999MW1701
0057028640999991958022800004+65783+024583FM-12+001599999V0201801N00361030001CN0150001N9-01611-01721101541ADDAY171999GF106991041051004501071999MD1210221+9999MW1021
0081028640999991958022806004+65783+024583FM-12+001599999V0201401N00461001501CN0120001N9-01781-01891101541ADDAA199001091AY111999GF108991081061001501999999KA1999N-02281MD1710091+9999MW1031
0057028640999991958022812004+65783+024583FM-12+001599999V0201601N00511002401CN0050001N9-01281-01501101291ADDAY171999GF108991071071002501071999MD1810011+9999MW1711
0081028640999991958022818004+65783+024583FM-12+001599999V0201101N00361220001CN0020001N9-01111-01221100941ADDAA199001091AY171999GF108991001001999999021999KA1999M-01111MD1710321+9999MW1731
0057028640999991958030100004+65783+024583FM-12+001599999V0201401N00461000151CN0007001N9-01001-01111100411ADDAY171999GF109991091999000251999999MD1710261+9999MW1751
0081028640999991958030106004+65783+024583FM-12+001599999V0201101N00511220001CN0010001N9-00891-01001100041ADDAA199003091AY171999GF108991001001999999021999KA1999N-01111MD1710131+9999MW1751
0057028640999991958030112004+65783+024583FM-12+001599999V0202301N00311220001CN0080001N9-01281-01501100221ADDAY171999GF106991001001999999071061MD1210181+9999MW1771
0081028640999991958030118004+65783+024583FM-12+001599999V0200501N00211004501CN0100001N9-01781-01891100541ADDAA199001091AY121999GF108991061051004501071999KA1999M-00781MD1210161+9999MW1021
0057028640999991958030200004+65783+024583FM-12+001599999V0202001N00101220001CN0200001N9-02501-02611100721ADDAY101999GF100991001001999999001001MD1210071+9999MW1021
0089028640999991958030206004+65783+024583FM-12+001599999V0201801N00051220001CN0050001N9-02281-02501100911ADDAY111999GF103991999001999999071001KA1999N-02721MD1210151+9999MW1051EQDQ01+000002SCOTLC
0057028640999991958030212004+65783+024583FM-12+001599999V0203601N00361220001CN0400001N9-00502-00891101361ADDAY101999GF101991011051004501001001MD1210221+9999MW1031
0070028640999991958030218004+65783+024583FM-12+001599999V0203401N00311220001CN0500001N9-01001-01281101851ADDAY101999GF100991001001999999001001KA1999M-00501MD1210301+9999MW1011
0057028640999991958030300004+65783+024583FM-12+001599999V0200201N00151220001CN0500001N9-02221-02281102181ADDAY101999GF100991001001999999001001MD1210201+9999MW1021
0081028640999991958030306004+65783+024583FM-12+001599999V0203601N00151004501CN0150001N9-01501-01611102511ADDAA199000691AY121999GF108991061051004501071999KA1999N-02501MD1110031+9999MW1031
0057028640999991958030312004+65783+024583FM-12+001599999V0202701N00211030001CN0200001N9-01111-01281102521ADDAY121999GF106991041051008001071001MD1810011+9999MW1011
0070028640999991958030318004+65783+024583FM-12+001599999V0202001N00101000151CN0020001N9-02001-02111102351ADDAY121999GF106991061061000251999999KA1999M-01001MD1710081+9999MW1101
0057028640999991958030400004+65783+024583FM-12+001599999V0201401N00261220001CN0250001N9-02111-02221102001ADDAY171999GF107991001001999999001071MD1710211+9999MW1011
0081028640999991958030406004+65783+024583FM-12+001599999V0201601N00771220001CN0012001N9-01221-01281101211ADDAA199001091AY171999GF108991001001999999021999KA1999N-02221MD1710431+9999MW1751
0057028640999991958030412004+65783+024583FM-12+001599999V0201801N00821220001CN0010001N9-01001-01111100241ADDAY171999GF108991001001999999021999MD1710481+9999MW1751
0081028640999991958030418004+65783+024583FM-12+001599999V0209991C00001004501CN0100001N9-00891-01001099751ADDAA199000591AY171999GF106991061051004501001001KA1999M-00611MD1710141+9999MW1011
0057028640999991958030500004+65783+024583FM-12+001599999V0200701N00151000151CN0100001N9-00891-01001099421ADDAY141999GF108991081061000251999999MD1710171+9999MW1021
0070028640999991958030506004+65783+024583FM-12+001599999V0200201N00211000601CN0020001N9-00611-00611099051ADDAY141999GF108991081061000751999999KA1999N-01001MD1710081+9999MW1281
0057028640999991958030512004+65783+024583FM-12+001599999V0200901N00361004501CN0200001N9-00501-00781099001ADDAY171999GF108991061051004501021999MD1310061+9999MW1021
0081028640999991958030518004+65783+024583FM-12+001599999V0200701N00211220001CN0250001N9-01221-01501099351ADDAA199000391AY171999GF106991001001999999071071KA1999M-00501MD1210211+9999MW1011
0057028640999991958030600004+65783+024583FM-12+001599999V0200701N00411220001CN0300001N9-01721-02001099851ADDAY121999GF106991001001999999041071MD1210231+9999MW1021
0081028640999991958030606004+65783+024583FM-12+001599999V0200501N00461220001CN0300001N9-02001-02221100281ADDAA199000691AY121999GF104991001001999999041061KA1999N-02111MD1210181+9999MW1011
0076028640999991958030612004+65783+024583FM-12+001599999V0200201N00361220001CN0500001N9-01391-01781100491ADDAY101999GF101991999001999999041001MD1210091+9999MW1011EQDQ01+000002SCOTLC
0089028640999991958030618004+65783+024583FM-12+001599999V0200201N00151220001CN0500001N9-01781-01891100681ADDAY101999GF101991999001999999041001KA1999M-01281MD1210141+9999MW1031EQDQ01+000002SCOTLC
0057028640999991958030700004+65783+024583FM-12+001599999V0200201N00261220001CN0500001N9-02611-02721100781ADDAY101999GF105991001001999999041061MD1810021+9999MW1031
0081028640999991958030706004+65783+024583FM-12+001599999V0200201N00211220001CN0300001N9-02001-02111100781ADDAA199000691AY121999GF102991011051008001071001KA1999N-02891MD1310011+9999MW1011
0057028640999991958030712004+65783+024583FM-12+001599999V0203601N00461220001CN0500001N9-00391-01001100951ADDAY121999GF104991041081008001041001MD1210071+9999MW1011
0081028640999991958030718004+65783+024583FM-12+001599999V0203401N00311007801CN0400001N9-00611-00891101141ADDAA199000691AY121999GF107991071051008001999999KA1999M-00391MD1210111+9999MW1021
0057028640999991958030800004+65783+024583FM-12+001599999V0203201N00151007801CN0500001N9-01001-01221101201ADDAY121999GF108991081051008001999999MD1410001+9999MW1021
0070028640999991958030806004+65783+024583FM-12+001599999V0201601N00151012301CN0300001N9-01001-01221101141ADDAY121999GF108991081051012501999999KA1999N-01111MD1710021+9999MW1021
0057028640999991958030812004+65783+024583FM-12+001599999V0202001N00411220001CN0400001N9-00611-00781101181ADDAY111999GF104991011051012501071041MD1310031+9999MW1011
0081028640999991958030818004+65783+024583FM-12+001599999V0201801N00361220001CN0400001N9-01221-01281101181ADDAA199000691AY121999GF106991001001999999041061KA1999M-00391MD1110021+9999MW1021
0057028640999991958030900004+65783+024583FM-12+001599999V0201801N00461220001CN0300001N9-01221-01281101241ADDAY101999GF106991001001999999071999MD1210071+9999MW1031
0081028640999991958030906004+65783+024583FM-12+001599999V0201801N00411030001CN0200001N9-01281-01391101351ADDAA199000691AY121999GF107991021051004501071999KA1999N-01391MD1210041+9999MW1011
0057028640999991958030912004+65783+024583FM-12+001599999V0202001N00571220001CN0500001N9-00781-01111101571ADDAY121999GF106991001001999999071999MD1210081+9999MW1011
0089028640999991958030918004+65783+024583FM-12+001599999V0202001N00311220001CN0400001N9-01221-01391101681ADDAY101999GF101991999001999999041001KA1999M-00781MD1210071+9999MW1021EQDQ01+000002SCOTLC
0057028640999991958031000004+65783+024583FM-12+001599999V0201101N00211030001CN0400001N9-01611-01721101801ADDAY111999GF107991031051008001071999MD1110021+9999MW1031
0070028640999991958031006004+65783+024583FM-12+001599999V0200401N00101004501CN0400001N9-01281-01501101751ADDAY121999GF108991051051004501021999KA1999N-01891MD1310011+9999MW1011
0057028640999991958031012004+65783+024583FM-12+001599999V0200701N00461220001CN0500001N9-00891-01501101581ADDAY121999GF103991021021012501001051MD1710151+9999MW1031
0057028640999991958031018004+65783+024583FM-12+001599999V0200401N00311220001CN0500001N9-01281-01721101251ADDAY121999GF106991001001999999041061MD1710141+9999MW1031
0057028640999991958031100004+65783+024583FM-12+001599999V0200401N00311220001CN0015001N9-01111-01221100891ADDAY171999GF108991001001999999021999MD1710141+9999MW1731
0081028640999991958031106004+65783+024583FM-12+001599999V0200701N00411220001CN0035001N9-01001-01221100711ADDAA199003091AY171999GF108991001001999999021999KA1999N-01391MD1710041+9999MW1731
0057028640999991958031112004+65783+024583FM-12+001599999V0200901N00571220001CN0200001N9-00721-01111100581ADDAY171999GF107991001001999999071999MD1710051+9999MW1221
0081028640999991958031118004+65783+024583FM-12+001599999V0200701N00511007801CN0070001N9-00781-01001100541ADDAA199001091AY171999GF108991051051008001021999KA1999M-00721MD1310021+9999MW1711
0057028640999991958031200004+65783+024583FM-12+001599999V0200501N00311220001CN0050001N9-00891-01111100541ADDAY171999GF108991001001999999021999MD1410001+9999MW1711
0081028640999991958031206004+65783+024583FM-12+001599999V0200501N00311030001CN0050001N9-00891-01001100461ADDAA199001091AY171999GF108991021051008001021999KA1999N-01001MD1610031+9999MW1711
0081028640999991958031218004+65783+024583FM-12+001599999V0200501N00151030001CN0060001N9-00721-00781100741ADDAA199002091AY171999GF108991031051008001021999KA1999M-00611MD1210121+9999MW1711
0057028640999991958031300004+65783+024583FM-12+001599999V0201101N00311007801CN0300001N9-00611-00781101021ADDAY121999GF108991081051008001999999MD1210141+9999MW1021
0081028640999991958031306004+65783+024583FM-12+001599999V0200901N00151004501CN0030001N9-00721-00781101291ADDAA199000391AY171999GF108991071051004501021999KA1999N-00781MD1210171+9999MW1731
0057028640999991958031312004+65783+024583FM-12+001599999V0200401N00211004501CN0300001N9-00391-00721101401ADDAY121999GF108991061051004501021999MD1210011+9999MW1031
0081028640999991958031318004+65783+024583FM-12+001599999V0203601N00261220001CN0050001N9-00721-00721101521ADDAA199001091AY171999GF104991021051004501071001KA1999M-00281MD1210111+9999MW1221
0057028640999991958031400004+65783+024583FM-12+001599999V0200201N00151004501CN0100001N9-01281-01391101721ADDAY101999GF105991051051004501999999MD1210101+9999MW1031
0081028640999991958031406004+65783+024583FM-12+001599999V0200201N00211220001CN0040001N9-00721-01781101881ADDAA199000391AY121999GF108991001001999999071999KA1999N-01611MD1210071+9999MW1711
0076028640999991958031412004+65783+024583FM-12+001599999V0200501N00511220001CN0080001N9-00281-01611101891ADDAY121999GF102991999001999999041001MD1710021+9999MW1051EQDQ01+000002SCOTLC
0081028640999991958031418004+65783+024583FM-12+001599999V0200201N00311220001CN0250001N9-00721-00781102061ADDAA199000691AY111999GF103991001001999999001051KA1999M-00221MD1210151+9999MW1011
0057028640999991958031500004+65783+024583FM-12+001599999V0200401N00211007801CN0300001N9-00721-00781102191ADDAY111999GF108991081051008001999999MD1110011+9999MW1031
0070028640999991958031506004+65783+024583FM-12+001599999V0200701N00311007801CN0120001N9-00281-00501102281ADDAY121999GF108991071051008001021999KA1999N-01111MD1110041+9999MW1781
0043028640999991958031512004+65783+024583FM-12+001599999V0200901N002619999999N0200001N9-00111-00391102411ADDAY171999GF107991071051999999999999MW1021
0057028640999991958031518004+65783+024583FM-12+001599999V0200701N002119999999N0100001N9-00281-00391102551ADDAY121999GF107991071999999999021999MD1210091+9999MW1011
0057028640999991958031600004+65783+024583FM-12+001599999V0200501N00211012301CN0300001N9-00611-00721102601ADDAY121999GF108991081051012501999999MD1210011+9999MW1021
0070028640999991958031606004+65783+024583FM-12+001599999V0201101N00311012301CN0200001N9-00281-00501102611ADDAY121999GF107991071051012501999999KA1999N-00781MD1010021+9999MW1011
0057028640999991958031612004+65783+024583FM-12+001599999V0201401N00151220001CN0500001N9+00001-00501102551ADDAY121999GF107991001001999999071999MD1710071+9999MW1031
0070028640999991958031618004+65783+024583FM-12+001599999V0200901N00311030001CN0200001N9-00221-00611102421ADDAY121999GF107991031051008001071999KA1999M+00001MD1710081+9999MW1051
0057028640999991958031700004+65783+024583FM-12+001599999V0201401N00461007801CN0400001N9-00221-00391102371ADDAY121999GF108991081051008001999999MD1710021+9999MW1021
0070028640999991958031706004+65783+024583FM-12+001599999V0201401N00511220001CN0100001N9-00501-00611102391ADDAY121999GF107991001001999999021051KA1999N-00611MD1310031+9999MW1011
0057028640999991958031712004+65783+024583FM-12+001599999V0201401N00461004501CN0250001N9-00221-00501102421ADDAY121999GF108991061051004501021999MD1610021+9999MW1051
0070028640999991958031718004+65783+024583FM-12+001599999V0200901N00461004501CN0150001N9-00281-00611102541ADDAY121999GF108991061051004501021999KA1999M-00221MD1210091+9999MW1021
0057028640999991958031800004+65783+024583FM-12+001599999V0201401N00461004501CN0150001N9-00281-00501102711ADDAY121999GF108991081051004501999999MD1210111+9999MW1031
0070028640999991958031806004+65783+024583FM-12+001599999V0200901N00361004501CN0150001N9-00391-00611102941ADDAY121999GF108991081051004501999999KA1999N-00501MD1210111+9999MW1771
0057028640999991958031812004+65783+024583FM-12+001599999V0201101N00151220001CN0200001N9-00281-00781103151ADDAY111999GF103991031021012501001001MD1210091+9999MW1011
0057028640999991958031818004+65783+024583FM-12+001599999V0209991C00001220001CN0300001N9-00781-01111103241ADDAY121999GF102991021051008001071001MD1210101+9999MW1011
0057028640999991958031900004+65783+024583FM-12+001599999V0209991C00001007801CN0200001N9-01391-01501103311ADDAY121999GF108991081051008001999999MD1310011+9999MW1031
0081028640999991958031906004+65783+024583FM-12+001599999V0209991C00001030001CN0045001N9-00891-01001103281ADDAA199000691AY121999GF108991041051008001021999KA1999N-01721MD1710041+9999MW1711
0057028640999991958031912004+65783+024583FM-12+001599999V0203601N00101004501CN0080001N9-00281-00611103211ADDAY101999GF107991071021004501999999MD1710041+9999MW1701
0081028640999991958031918004+65783+024583FM-12+001599999V0203601N00211004501CN0150001N9-00391-00781103181ADDAA199000691AY121999GF107991071051004501999999KA1999M-00221MD1310021+9999MW1031
0057028640999991958032000004+65783+024583FM-12+001599999V0200201N00311220001CN0250001N9-01221-01281103181ADDAY101999GF100991001001999999001001MD1210031+9999MW1021
0070028640999991958032006004+65783+024583FM-12+001599999V0209991C00001220001CN0100001N9-01501-01611103141ADDAY121999GF107991001001999999041071KA1999N-01721MD1710021+9999MW1031
0057028640999991958032012004+65783+024583FM-12+001599999V0202701N00151220001CN0200001N9-00391-00781103061ADDAY121999GF107991001001999999071071MD1710041+9999MW1031
0070028640999991958032018004+65783+024583FM-12+001599999V0202501N00151220001CN0100001N9-00891-01001102961ADDAY121999GF107991001001999999071999KA1999M-00391MD1610041+9999MW1041
0057028640999991958032100004+65783+024583FM-12+001599999V0209991C00001030001CN0200001N9-00781-01001102841ADDAY121999GF108991041051008001071999MD1710061+9999MW1031
0070028640999991958032106004+65783+024583FM-12+001599999V0202301N00151030001CN0100001N9-00721-00891102681ADDAY121999GF107991021051012501071999KA1999N-00891MD1710071+9999MW1011
0057028640999991958032112004+65783+024583FM-12+001599999V0202001N00311220001CN0300001N9-00611-00891102691ADDAY121999GF107991001001999999071071MD1410001+9999MW1031
0070028640999991958032118004+65783+024583FM-12+001599999V0201801N00151220001CN0100001N9-01111-01221102691ADDAY111999GF104991001001999999041021KA1999M-00501MD1510021+9999MW1011
0076028640999991958032200004+65783+024583FM-12+001599999V0201601N00211220001CN0050001N9-00501-00611102611ADDAY101999GF101991999001999999041001MD1710061+9999MW1011EQDQ01+000002SCOTLC
0089028640999991958032206004+65783+024583FM-12+001599999V0201601N00261220001CN0200001N9-01391-01501102451ADDAY101999GF102991999001999999041001KA1999N-01721MD1710081+9999MW1021EQDQ01+000002SCOTLC
0076028640999991958032212004+65783+024583FM-12+001599999V0201801N00411220001CN0250001N9-00721-00891102291ADDAY101999GF101991999001999999041001MD1710081+9999MW1011EQDQ01+000002SCOTLC
0089028640999991958032218004+65783+024583FM-12+001599999V0202001N00311220001CN0200001N9-00721-00781102021ADDAY101999GF102991999001999999071001KA1999M-00391MD1710111+9999MW1011EQDQ01+000002SCOTLC
0076028640999991958032300004+65783+024583FM-12+001599999V0202501N00311220001CN0200001N9-00721-00891101971ADDAY101999GF101991999001999999041001MD1710061+9999MW1021EQDQ01+000002SCOTLC
0070028640999991958032306004+65783+024583FM-12+001599999V0202001N00311220001CN0300001N9-00891-01001101801ADDAY111999GF106991001001999999041011KA1999N-01221MD1710121+9999MW1031
0057028640999991958032312004+65783+024583FM-12+001599999V0202001N00461220001CN0300001N9-00391-00611101591ADDAY121999GF106991001001999999001051MD1710161+9999MW1021
0102028640999991958032318004+65783+024583FM-12+001599999V0202901N00311004501CN0200001N9-00221-00281101351ADDAA199000691AY121999GF107991071051004501999999KA1999M-00111MW1031EQDQ01+000032APCTENQ02+000002APC3  
0057028640999991958032400004+65783+024583FM-12+001599999V0209991C00001220001CN0500001N9-01281-01391101641ADDAY101999GF100991001001999999001001MD1210091+9999MW1021
0070028640999991958032406004+65783+024583FM-12+001599999V0209991C00001220001CN0500001N9-01501-01611101721ADDAY101999GF100991001001999999001001KA1999N-02001MD1210051+9999MW1021
0076028640999991958032412004+65783+024583FM-12+001599999V0202301N00211220001CN0500001N9-00611-01001101821ADDAY101999GF101991999001999999041001MD1210031+9999MW1021EQDQ01+000002SCOTLC
0057028640999991958032418004+65783+024583FM-12+001599999V0202301N00311220001CN0500001N9-01001-01281101741ADDAY101999GF100991001001999999001001MD1710071+9999MW1021
0057028640999991958032500004+65783+024583FM-12+001599999V0201801N00261220001CN0500001N9-01611-01721101641ADDAY101999GF100991001001999999001001MD1710011+9999MW1021
0089028640999991958032506004+65783+024583FM-12+001599999V0202001N00101220001CN0150001N9-01891-02111101601ADDAY101999GF101991999001999999041001KA1999N-02221MD1410001+9999MW1041EQDQ01+000002SCOTLC
0057028640999991958032512004+65783+024583FM-12+001599999V0202001N00211220001CN0250001N9-00781-01391101751ADDAY101999GF102991011011008001041021MD1110061+9999MW1031
0057028640999991958032518004+65783+024583FM-12+001599999V0201801N00261220001CN0200001N9-01281-01391101811ADDAY111999GF104991011051008001041051MD1110041+9999MW1011
0076028640999991958032600004+65783+024583FM-12+001599999V0209991C00001220001CN0200001N9-01721-01781101791ADDAY111999GF102991999001999999041001MD1410001+9999MW1031EQDQ01+000002SCOTLC
0070028640999991958032606004+65783+024583FM-12+001599999V0201601N00151000601CN0045001N9-01781-01891101651ADDAY111999GF106991061071000751001001KA1999N-02001MD1710081+9999MW1031
0076028640999991958032612004+65783+024583FM-12+001599999V0202001N00261220001CN0150001N9-01111-01391101491ADDAY111999GF101991999001999999041001MD1710081+9999MW1011EQDQ01+000002SCOTLC
0081028640999991958032618004+65783+024583FM-12+001599999V0201801N00151220001CN0050001N9-01611-01721101381ADDAA199000691AY101999GF101991011051004501001001KA1999M-01001MD1710021+9999MW1041
0057028640999991958032700004+65783+024583FM-12+001599999V0201401N00151000601CN0040001N9-01891-02001101391ADDAY111999GF105991051061000751999999MD1310021+9999MW1031
0070028640999991958032706004+65783+024583FM-12+001599999V0200201N00151220001CN0250001N9-02001-02111101591ADDAY101999GF101991001001999999001011KA1999N-02281MD1210121+9999MW1011
0057028640999991958032712004+65783+024583FM-12+001599999V0203601N00211220001CN0500001N9-00721-01111101721ADDAY101999GF101991001001999999001011MD1110021+9999MW1011
0057028640999991958032718004+65783+024583FM-12+001599999V0202301N00151220001CN0400001N9-01221-01501101721ADDAY101999GF102991021051012501041001MD1310011+9999MW1031
0078028640999991958032800004+65783+024583FM-12+001599999V0201601N00101220001CN0500001N9-01721-01781101741ADDAY111999GF100991001001999999001001MW1021EQDQ01+000022APCTENQ02+000002APC3  
0070028640999991958032806004+65783+024583FM-12+001599999V0200701N00101220001CN0400001N9-01781-01891101861ADDAY101999GF101991001001999999041011KA1999N-02501MD1210081+9999MW1031
0057028640999991958032812004+65783+024583FM-12+001599999V0202001N00311220001CN0400001N9-01001-01281101861ADDAY121999GF107991001001999999041071MD1810041+9999MW1011
0057028640999991958032818004+65783+024583FM-12+001599999V0202301N00211220001CN0400001N9-00891-01111101721ADDAY121999GF107991001001999999021071MD1610071+9999MW1011
0057028640999991958032900004+65783+024583FM-12+001599999V0209991C00001220001CN0500001N9-01281-01391101741ADDAY121999GF100991001001999999001001MD1210011+9999MW1011
0070028640999991958032906004+65783+024583FM-12+001599999V0200201N00211220001CN0500001N9-01281-01391102111ADDAY101999GF101991001001999999041011KA1999N-02111MD1210191+9999MW1031
0057028640999991958032912004+65783+024583FM-12+001599999V0202501N00261220001CN0400001N9+00001-00721102461ADDAY101999GF107991001001999999001071MD1210141+9999MW1031
0057028640999991958032918004+65783+024583FM-12+001599999V0202301N00211220001CN0200001N9-00721-00781102601ADDAY121999GF107991001001999999071999MD1210061+9999MW1031
0076028640999991958033000004+65783+024583FM-12+001599999V0201401N00211220001CN0300001N9-01111-01221102641ADDAY111999GF103991999001999999041001MD1210031+9999MW1031EQDQ01+000002SCOTLC
0070028640999991958033006004+65783+024583FM-12+001599999V0201401N00151220001CN0400001N9-01221-01281102711ADDAY121999GF107991001001999999011071KA1999N-01391MD1210041+9999MW1011
0057028640999991958033012004+65783+024583FM-12+001599999V0201801N00311220001CN0400001N9-00391-00721102791ADDAY121999GF107991001001999999001071MD1110031+9999MW1021
0070028640999991958033018004+65783+024583FM-12+001599999V0201801N00151220001CN0050001N9-00781-00781102811ADDAY111999GF102991001001999999041051KA1999M-00281MD1310041+9999MW1011
0057028640999991958033100004+65783+024583FM-12+001599999V0201401N00211000601CN0045001N9-01221-01281102841ADDAY141999GF106991061061000751999999MD1210051+9999MW1011
0070028640999991958033106004+65783+024583FM-12+001599999V0209991C00001220001CN0500001N9-01001-01111102991ADDAY121999GF107991001001999999001071KA1999N-01281MD1210111+9999MW1011
0057028640999991958033112004+65783+024583FM-12+001599999V0202501N00101220001CN0500001N9-00281-00781103141ADDAY121999GF107991001001999999001071MD1010051+9999MW1031
0089028640999991958033118004+65783+024583FM-12+001599999V0209991C00001220001CN0080001N9-00721-00891103241ADDAY111999GF101991999001999999041001KA1999M-00111MD1210071+9999MW1041EQDQ01+000002SCOTLC
0057028640999991958040100004+65783+024583FM-12+001599999V0200901N00151220001CN0500001N9-01721-01781103421ADDAY101999GF100991001001999999001001MD1210081+9999MW1021
0070028640999991958040106004+65783+024583FM-12+001599999V0201601N00101220001CN0500001N9-00721-01221103541ADDAY101999GF100991001001999999001001KA1999N-01781MD1210061+9999MW1011
0057028640999991958040112004+65783+024583FM-12+001599999V0201601N00361220001CN0500001N9-00221-00891103661ADDAY101999GF100991001001999999001001MD1210081+9999MW1021
0057028640999991958040118004+65783+024583FM-12+001599999V0209991C00001220001CN0500001N9-00501-00891103581ADDAY101999GF100991001001999999001001MD1710081+9999MW1021
0057028640999991958040200004+65783+024583FM-12+001599999V0201801N00211220001CN0500001N9-01001-01111103571ADDAY101999GF100991001001999999001001MD1710031+9999MW1021
0070028640999991958040206004+65783+024583FM-12+001599999V0201601N00211220001CN0500001N9-01221-01391103541ADDAY101999GF101991001001999999001011KA1999N-01611MD1810031+9999MW1011
0057028640999991958040212004+65783+024583FM-12+001599999V0201801N00261220001CN0500001N9-00501-00891103521ADDAY121999GF107991001001999999001071MD1710051+9999MW1021
0089028640999991958040218004+65783+024583FM-12+001599999V0201801N00411220001CN0400001N9-00391-01111103191ADDAY111999GF102991999001999999041001KA1999M-00221MD1710201+9999MW1021EQDQ01+000002SCOTLC
0057028640999991958040300004+65783+024583FM-12+001599999V0209991C00001220001CN0500001N9-00781-01001103051ADDAY101999GF100991001001999999001001MD1710071+9999MW1021
0070028640999991958040306004+65783+024583FM-12+001599999V0202301N00461220001CN0500001N9-00721-01111102881ADDAY111999GF107991001001999999041071KA1999N-01001MD1610031+9999MW1011
0057028640999991958040312004+65783+024583FM-12+001599999V0202001N00461220001CN0250001N9-00221-00501102741ADDAY121999GF107991001001999999041071MD1810091+9999MW1021
0057028640999991958040318004+65783+024583FM-12+001599999V0202001N00621220001CN0250001N9-00281-00501102491ADDAY121999GF107991001001999999071071MD1710141+9999MW1031
0057028640999991958040400004+65783+024583FM-12+001599999V0202301N00511220001CN0400001N9-00611-00781102391ADDAY121999GF105991001001999999001061MD1710041+9999MW1011
0070028640999991958040406004+65783+024583FM-12+001599999V0202301N00571220001CN0500001N9-00501-00721102311ADDAY101999GF102991001001999999001011KA1999N-00721MD1610031+9999MW1021
0057028640999991958040412004+65783+024583FM-12+001599999V0202001N00211220001CN0500001N9-00221-00611102001ADDAY101999GF101991001001999999001011MD1710021+9999MW1021
0089028640999991958040418004+65783+024583FM-12+001599999V0202001N00211220001CN0500001N9-00111-00391101971ADDAY101999GF105991999001999999071001KA1999M-00111MD1710131+9999MW1031EQDQ01+000002SCOTLC
0057028640999991958040500004+65783+024583FM-12+001599999V0202001N00411220001CN0500001N9-00611-00781101861ADDAY101999GF100991001001999999001001MD1710051+9999MW1021
0070028640999991958040506004+65783+024583FM-12+001599999V0201801N00411220001CN0400001N9-00721-00891101691ADDAY101999GF106991001001999999071061KA1999N-01001MD1710081+9999MW1031
0057028640999991958040512004+65783+024583FM-12+001599999V0201801N00361030001CN0050001N9-00281-00501101581ADDAY121999GF108991021051004501021999MD1710081+9999MW1711
0081028640999991958040518004+65783+024583FM-12+001599999V0201801N00101030001CN0050001N9-00111-00281101261ADDAA199000691AY171999GF108991041071002501021999KA1999M-00111MD1710081+9999MW1711
0057028640999991958040600004+65783+024583FM-12+001599999V0209991C00001004501CN0050001N9-00281-00281101021ADDAY171999GF108991061071004501021999MD1710121+9999MW1711
0081028640999991958040606004+65783+024583FM-12+001599999V0203601N00311220001CN0050001N9-00281-00281100781ADDAA199005091AY171999GF108991001001999999021999KA1999N-00281MD1710101+9999MW1711
0057028640999991958040612004+65783+024583FM-12+001599999V0203401N00261004501CN0500001N9+00001-00391100521ADDAY121999GF107991071081004501999999MD1710131+9999MW1021
0081028640999991958040618004+65783+024583FM-12+001599999V0201801N00211220001CN0400001N9-00501-00891100241ADDAA199000691AY101999GF102991021051004501041051KA1999M+00111MD1710111+9999MW1021
0076028640999991958040700004+65783+024583FM-12+001599999V0201401N00211220001CN0400001N9-01111-01221099971ADDAY101999GF103991999001999999041001MD1710181+9999MW1031EQDQ01+000002SCOTLC
0070028640999991958040706004+65783+024583FM-12+001599999V0200201N00211220001CN0300001N9-01001-01111099851ADDAY121999GF107991001001999999021999KA1999N-01611MD1710031+9999MW1011
0057028640999991958040712004+65783+024583FM-12+001599999V0202901N00461007801CN0500001N9-00111-00891099821ADDAY111999GF106991061011008001041001MD1410001+9999MW1031
0081028640999991958040718004+65783+024583FM-12+001599999V0203601N00571030001CN0080001N9-00391-00611100191ADDAA199000591AY171999GF108991031071004501021999KA1999M+00001MD1210301+9999MW1711
0076028640999991958040800004+65783+024583FM-12+001599999V0203401N00571220001CN0500001N9-00721-01001100591ADDAY101999GF101991999001999999041001MD1210191+9999MW1031EQDQ01+000002SCOTLC
0070028640999991958040806004+65783+024583FM-12+001599999V0203401N00311220001CN0500001N9-00781-01111100951ADDAY101999GF101991001001999999001011KA1999N-01001MD1210191+9999MW1021
0057028640999991958040812004+65783+024583FM-12+001599999V0202301N00461220001CN0500001N9-00281-00891101011ADDAY101999GF101991001001999999041021MD1310021+9999MW1011
0057028640999991958040818004+65783+024583FM-12+001599999V0201801N00361220001CN0500001N9-00891-01111100911ADDAY101999GF107991001001999999041071MD1710041+9999MW1031
0076028640999991958040900004+65783+024583FM-12+001599999V0201801N00571220001CN0500001N9-01111-01391100881ADDAY101999GF101991999001999999041001MD1410001+9999MW1021EQDQ01+000002SCOTLC
0070028640999991958040906004+65783+024583FM-12+001599999V0201801N00621030001CN0400001N9-01111-01281101021ADDAY111999GF107991031051004501041071KA1999N-01221MD1210081+9999MW1031
0057028640999991958040912004+65783+024583FM-12+001599999V0201801N00571007801CN0400001N9-00391-00891101321ADDAY121999GF108991061051008001041999MD1210141+9999MW1031
0081028640999991958040918004+65783+024583FM-12+001599999V0209991C00001220001CN0020001N9-00501-00501101551ADDAA199000591AY121999GF108991001001999999021999KA1999M-00281MD1210131+9999MW1731
0057028640999991958041000004+65783+024583FM-12+001599999V0209991C00001220001CN0300001N9-01721-01781102011ADDAY101999GF100991001001999999001001MD1210261+9999MW1021
0081028640999991958041006004+65783+024583FM-12+001599999V0209991C00001220001CN0200001N9-01391-01611102391ADDAA199001091AY101999GF102991001001999999041021KA1999N-02391MD1210181+9999MW1031
0057028640999991958041012004+65783+024583FM-12+001599999V0202301N00361220001CN0350001N9-00721-01111102641ADDAY121999GF106991001001999999041071MD1210061+9999MW1011
0094028640999991958041018004+65783+024583FM-12+001599999V0201801N00211220001CN0300001N9-01001-01221102691ADDAY111999GF104991999001999999041001MW1021EQDQ01+000002SCOTLCQ02+000042APCTENQ03+000012APC3  
0076028640999991958041100004+65783+024583FM-12+001599999V0201601N00211220001CN0400001N9-01391-01501102661ADDAY111999GF103991999001999999041001MD1710021+9999MW1031EQDQ01+000002SCOTLC
0070028640999991958041106004+65783+024583FM-12+001599999V0201601N00211030001CN0400001N9-01111-01281102491ADDAY121999GF107991021051004501021999KA1999N-01611MD1710081+9999MW1021
0057028640999991958041112004+65783+024583FM-12+001599999V0202301N00461220001CN0500001N9-00221-00391102251ADDAY121999GF107991001001999999041071MD1710121+9999MW1011
0070028640999991958041118004+65783+024583FM-12+001599999V0201801N00151004501CN0400001N9-00221-00391102061ADDAY121999GF107991071051004501999999KA1999M+00001MD1710051+9999MW1031
0057028640999991958041200004+65783+024583FM-12+001599999V0202901N00151220001CN0500001N9-00611-00721102151ADDAY121999GF106991001001999999071071MD1210071+9999MW1021
0070028640999991958041206004+65783+024583FM-12+001599999V0201801N00151220001CN0100001N9-00391-00611102121ADDAY121999GF106991001001999999051061KA1999N-00721MD1710021+9999MW1041
0057028640999991958041212004+65783+024583FM-12+001599999V0201801N00461220001CN0500001N9+00001-00281101681ADDAY121999GF106991001001999999041071MD1710271+9999MW1021
0043028640999991958041218004+65783+024583FM-12+001599999V0202001N00311004501CN0300001N9+00111+00001100961ADDAY121999GF108991061071004501021999MW1611
0057028640999991958041300004+65783+024583FM-12+001599999V0202501N00211004501CN0400001N9+00111+00111100561ADDAY161999GF107991071051004501999999MD1710161+9999MW1011
0081028640999991958041306004+65783+024583FM-12+001599999V0203401N00671004501CN0500001N9+00001-00221100811ADDAA199002091AY121999GF108991081051004501999999KA1999N-00111MD1210231+9999MW1031
0057028640999991958041312004+65783+024583FM-12+001599999V0203601N00571030001CN0500001N9+00001-00611101281ADDAY121999GF105991041021008001041001MD1210201+9999MW1011
0089028640999991958041318004+65783+024583FM-12+001599999V0200201N00311220001CN0500001N9-00221-01001101591ADDAY101999GF101991999001999999041001KA1999M+00111MD1210141+9999MW1021EQDQ01+000002SCOTLC
0057028640999991958041400004+65783+024583FM-12+001599999V0200501N00211220001CN0300001N9-01281-01391101781ADDAY101999GF100991001001999999001001MD1210051+9999MW1021
0070028640999991958041406004+65783+024583FM-12+001599999V0201401N00211220001CN0400001N9-00611-01111101791ADDAY111999GF106991001001999999071999KA1999N-01721MD1010001+9999MW1031
0057028640999991958041412004+65783+024583FM-12+001599999V0201801N00411030001CN0400001N9-00221-00891101551ADDAY121999GF108991011071004501021999MD1710171+9999MW1031
0057028640999991958041418004+65783+024583FM-12+001599999V0201601N00511002401CN0025001N9-00281-00501101151ADDAY171999GF108991051071002501021999MD1710181+9999MW1731
0057028640999991958041500004+65783+024583FM-12+001599999V0201601N00311030001CN0080001N9-00221-00221100751ADDAY171999GF108991021081017501031999MD1710031+9999MW1711
0081028640999991958041506004+65783+024583FM-12+001599999V0201101N00211000601CN0050001N9-00111-00221100561ADDAA199002091AY171999GF108991081071000751999999KA1999N-00281MD1710061+9999MW1011
0057028640999991958041512004+65783+024583FM-12+001599999V0201101N00361001501CN0050001N9+00111+00001100451ADDAY121999GF108991081071001501999999MD1710061+9999MW1681
0081028640999991958041518004+65783+024583FM-12+001599999V0201101N00461001501CN0040001N9+00111+00111100011ADDAA199000691AY121999GF108991061071001501021999KA1999M+00221MD1710201+9999MW1681
0057028640999991958041600004+65783+024583FM-12+001599999V0201601N00361001501CN0070001N9+00111+00111099581ADDAY171999GF108991081071001501999999MD1710201+9999MW1681
0081028640999991958041606004+65783+024583FM-12+001599999V0202001N00461000601CN0025001N9+00001+00001099401ADDAA199003091AY171999GF108991081061000751999999KA1999N+00001MD1610021+9999MW1681
0057028640999991958041612004+65783+024583FM-12+001599999V0201801N00411000601CN0020001N9+00111+00111099491ADDAY171999GF108991081061000751999999MD1210041+9999MW1681
0057028640999991958041618004+65783+024583FM-12+001599999V0200301N00261000151CN9999999N9+00001+00001099641ADDAY141999GF109991091999000251999999MD1210111+9999MW1471
0057028640999991958041700004+65783+024583FM-12+001599999V0209991C00001000601CN0045001N9-00111-00111099691ADDAY141999GF108991081061000751999999MD1310021+9999MW1281
0081028640999991958041706004+65783+024583FM-12+001599999V0203601N00101000601CN0040001N9+00001+00001099881ADDAA199004091AY171999GF108991081071000751999999KA1999N-00221MD1210101+9999MW1681
0057028640999991958041712004+65783+024583FM-12+001599999V0203401N00311001501CN0080001N9+00221+00001100341ADDAY171999GF108991081071001501999999MD1210211+9999MW1681
0057028640999991958041718004+65783+024583FM-12+001599999V0203201N00311030001CN0300001N9+00001-00221100741ADDAY121999GF107991021051004501071999MD1210181+9999MW1011
0057028640999991958041800004+65783+024583FM-12+001599999V0203401N00211007801CN0500001N9-00111-00391100961ADDAY121999GF108991081051008001999999MD1210071+9999MW1021
0089028640999991958041806004+65783+024583FM-12+001599999V0203501N00311220001CN0500001N9-00221-00611101181ADDAY121999GF101991999001999999041001KA1999N-00281MD1210091+9999MW1011EQDQ01+000002SCOTLC
0057028640999991958041812004+65783+024583FM-12+001599999V0203401N00211030001CN0500001N9+00221-00721101291ADDAY121999GF106991021081008001051011MD1110031+9999MW1011
0057028640999991958041818004+65783+024583FM-12+001599999V0202901N00361220001CN0500001N9-00111-00611101391ADDAY111999GF102991021041012501041001MD1210051+9999MW1021
0076028640999991958041900004+65783+024583FM-12+001599999V0209991C00001220001CN0400001N9-00891-01111101481ADDAY101999GF102991999001999999041001MD1210041+9999MW1021EQDQ01+000002SCOTLC
0070028640999991958041906004+65783+024583FM-12+001599999V0209991C00001220001CN0400001N9-00391-00781101481ADDAY111999GF107991001001999999041071KA1999N-01111MD1410001+9999MW1011
0057028640999991958041912004+65783+024583FM-12+001599999V0201101N00361030001CN0400001N9+00281-00611101461ADDAY121999GF108991021081008001011071MD1610021+9999MW1031
0057028640999991958041918004+65783+024583FM-12+001599999V0201101N00311030001CN0050001N9+00001+00001101461ADDAY171999GF108991031071002501021999MD1310021+9999MW1711
0057028640999991958042000004+65783+024583FM-12+001599999V0201101N00621030001CN0300001N9+00001-00221101541ADDAY121999GF107991011051004501071999MD1410001+9999MW1031
0081028640999991958042006004+65783+024583FM-12+001599999V0201101N00211007801CN0200001N9+00001-00281101691ADDAA199000691AY121999GF107991051081008001071071KA1999N-00111MD1210151+9999MW1851
0057028640999991958042012004+65783+024583FM-12+001599999V0200701N00511030001CN0500001N9+00391-00221101651ADDAY181999GF107991011011008001011071MD1810051+9999MW1011
0057028640999991958042018004+65783+024583FM-12+001599999V0201101N00461030001CN0500001N9+00391-00221101511ADDAY121999GF107991021081008001071071MD1710061+9999MW1011
0057028640999991958042100004+65783+024583FM-12+001599999V0201101N00461007801CN0500001N9+00111-00221101511ADDAY121999GF106991061051008001001001MD1410001+9999MW1011
0081028640999991958042106004+65783+024583FM-12+001599999V0201101N00461220001CN0500001N9+00221-00501101551ADDAA199000691AY111999GF102991011081008001041021KA1999N-00111MD1210061+9999MW1011
0057028640999991958042112004+65783+024583FM-12+001599999V0201401N00571220001CN0500001N9+00501-00111101741ADDAY111999GF103991011011008001041071MD1210061+9999MW1031
0057028640999991958042118004+65783+024583FM-12+001599999V0201101N00411220001CN0500001N9+00281-00221101991ADDAY111999GF105991011041008001001061MD1210171+9999MW1021
0057028640999991958042200004+65783+024583FM-12+001599999V0201101N00361220001CN0550001N9-00221-00721102391ADDAY111999GF108991001001999999051021MD1210201+9999MW1011
0070028640999991958042206004+65783+024583FM-12+001599999V0200901N00461220001CN0500001N9-00391-01111102741ADDAY111999GF102991001001999999001051KA1999N-00391MD1210151+9999MW1021
0057028640999991958042212004+65783+024583FM-12+001599999V0200701N00461220001CN0500001N9+00111-01001102851ADDAY101999GF101991001001999999001021MD1210031+9999MW1021
0070028640999991958042218004+65783+024583FM-12+001599999V0200701N00411220001CN0500001N9+00001-00781102921ADDAY101999GF101991001001999999001011KA1999M+00221MD1210071+9999MW1021
0076028640999991958042300004+65783+024583FM-12+001599999V0200701N00511220001CN0500001N9-00501-00891103091ADDAY101999GF102991999001999999041001MD1210071+9999MW1031EQDQ01+000002SCOTLC
0070028640999991958042306004+65783+024583FM-12+001599999V0200701N00461220001CN0500001N9-00501-01001103261ADDAY101999GF100991001001999999001001KA1999N-00721MD1210081+9999MW1021
0076028640999991958042312004+65783+024583FM-12+001599999V0200901N00461220001CN0500001N9+00221-00611103251ADDAY101999GF101991999001999999041001MD1810021+9999MW1031EQDQ01+000002SCOTLC
0091028640999991958042318004+65783+024583FM-12+001599999V0200901N00311220001CN0500001N9+00221-00611103191ADDAY101999GF101991001001999999001011KA1999M+00391MW1021EQDQ01+000022APCTENQ02+000002APC3  
0057028640999991958042400004+65783+024583FM-12+001599999V0201101N00361220001CN0500001N9-00391-00891103221ADDAY101999GF102991001001999999041011MD1110011+9999MW1031
0070028640999991958042406004+65783+024583FM-12+001599999V0201101N00211220001CN0500001N9-00281-01001103221ADDAY101999GF101991001001999999041011KA1999N-00721MD1010001+9999MW1011
0057028640999991958042412004+65783+024583FM-12+001599999V0201101N00261220001CN0500001N9+00281-00721103141ADDAY121999GF102991001001999999001021MD1810091+9999MW1031
0070028640999991958042418004+65783+024583FM-12+001599999V0200901N00211075001CN0500001N9+00281-00611102981ADDAY111999GF106991011051008001041061KA1999M+00501MD1510041+9999MW1031
0057028640999991958042500004+65783+024583FM-12+001599999V0201101N00411220001CN0500001N9-00391-00781103011ADDAY101999GF100991001001999999001001MD1210031+9999MW1021
0070028640999991958042506004+65783+024583FM-12+001599999V0201101N00261220001CN0500001N9-00281-01001103011ADDAY101999GF100991001001999999001001KA1999N-00611MD1610011+9999MW1021
0057028640999991958042512004+65783+024583FM-12+001599999V0201101N00311220001CN0500001N9+00281-00611102911ADDAY101999GF100991001001999999001001MD1810061+9999MW1021
0076028640999991958042518004+65783+024583FM-12+001599999V0200901N00311220001CN0500001N9+00281-00611102781ADDAY101999GF101991999001999999041001MD1710051+9999MW1021EQDQ01+000002SCOTLC
0057028640999991958042600004+65783+024583FM-12+001599999V0201101N00361220001CN0500001N9-00221-00721102781ADDAY101999GF100991001001999999001001MD1210021+9999MW1011
0070028640999991958042606004+65783+024583FM-12+001599999V0201101N00361220001CN0500001N9+00111-00611102721ADDAY101999GF100991001001999999001001KA1999N-00281MD1710051+9999MW1021
0057028640999991958042612004+65783+024583FM-12+001599999V0201101N00511220001CN0500001N9+00611-00281102351ADDAY111999GF106991001001999999041071MD1710231+9999MW1011
0057028640999991958042618004+65783+024583FM-12+001599999V0201401N00361004501CN0150001N9+00281+00221102201ADDAY121999GF108991051061004501021999MD1410001+9999MW1611
0076028640999991958042700004+65783+024583FM-12+001599999V0201101N00211220001CN0200001N9+00111+00001102051ADDAY161999GF104991999001999999021001MD1710051+9999MW1011EQDQ01+000002SCOTLC
0081028640999991958042706004+65783+024583FM-12+001599999V0201101N00311220001CN0500001N9+00281-00281101981ADDAA199003091AY121999GF103991001001999999001061KA1999N-00111MD1710041+9999MW1011
0057028640999991958042712004+65783+024583FM-12+001599999V0200701N00461220001CN0500001N9+00781-00281101781ADDAY111999GF107991001001999999001071MD1710141+9999MW1031
0081028640999991958042718004+65783+024583FM-12+001599999V0200701N00461030001CN0300001N9+00391-00111101681ADDAA199000691AY121999GF108991041051004501021999KA1999M+00891MD1410001+9999MW1611
0057028640999991958042800004+65783+024583FM-12+001599999V0200401N00261004501CN0400001N9+00111+00111101541ADDAY121999GF108991051051004501021999MD1710091+9999MW1031
0081028640999991958042806004+65783+024583FM-12+001599999V0200701N00311030001CN0400001N9+00281+00111101411ADDAA199000691AY121999GF107991041051008001071999KA1999N+00001MD1710031+9999MW1011
0057028640999991958042812004+65783+024583FM-12+001599999V0200701N00411004501CN0400001N9+00611+00111101261ADDAY121999GF108991061051004501021999MD1610051+9999MW1031
0057028640999991958042818004+65783+024583FM-12+001599999V0201401N00211030001CN0300001N9+00281+00221101341ADDAY161999GF108991041071004501071999MD1310011+9999MW1611
0057028640999991958042900004+65783+024583FM-12+001599999V0200901N00311004501CN0400001N9+00221+00111101361ADDAY121999GF108991081051004501999999MD1210011+9999MW1021
0081028640999991958042906004+65783+024583FM-12+001599999V0200701N00361002401CN0050001N9+00221+00221101201ADDAA199001091AY121999GF108991061071002501021999KA1999N+00111MD1710121+9999MW1621
0057028640999991958042912004+65783+024583FM-12+001599999V0201601N00461001501CN0080001N9+00391+00281101241ADDAY161999GF108991061071001501021999MD1210121+9999MW1601
0102028640999991958042918004+65783+024583FM-12+001599999V0201101N00151002401CN0080001N9+00281+00281101411ADDAA199004091AY121999GF108991051071002501021999KA1999M+00391MW1611EQDQ01+000022APCTENQ02+000002APC3  
0057028640999991958043000004+65783+024583FM-12+001599999V0201801N00511001501CN0300001N9+00111+00111101381ADDAY121999GF108991081051001501999999MD1210041+9999MW1031
0081028640999991958043006004+65783+024583FM-12+001599999V0201801N00411001501CN0150001N9+00111+00001101341ADDAA199000691AY121999GF108991081071001501999999KA1999N+00001MD1610041+9999MW1021
0057028640999991958043012004+65783+024583FM-12+001599999V0201601N00361001501CN0025001N9+00111+00111101091ADDAY121999GF108991081071001501999999MD1710081+9999MW1691
0057028640999991958043018004+65783+024583FM-12+001599999V0201601N00311000601CN0025001N9+00001+00001101021ADDAY151999GF108991081061000751999999MD1710061+9999MW1501
0057028640999991958050100004+65783+024583FM-12+001599999V0201601N00151004501CN0060001N9+00001+00001100981ADDAY171999GF107991071051004501001001MD1710051+9999MW1231
0081028640999991958050106004+65783+024583FM-12+001599999V0201101N00311000601CN0050001N9+00111+00111100961ADDAA199000591AY141999GF108991081071000751999999KA1999N-00111MD1710021+9999MW1281
0057028640999991958050112004+65783+024583FM-12+001599999V0202001N00261220001CN0400001N9+00391+00221100991ADDAY121999GF102991011021008001041021MD1310031+9999MW1021
0070028640999991958050118004+65783+024583FM-12+001599999V0201801N00151030001CN0500001N9+00221+00111101011ADDAY111999GF106991021081008001041051KA1999M+00611MD1410001+9999MW1031
0057028640999991958050200004+65783+024583FM-12+001599999V0201801N00151004501CN0300001N9+00001+00001100981ADDAY121999GF107991051051004501071999MD1710021+9999MW1031
0070028640999991958050206004+65783+024583FM-12+001599999V0201601N00361030001CN0400001N9+00221+00001100851ADDAY121999GF106991021081004501041999KA1999N-00111MD1710061+9999MW1011
0057028640999991958050212004+65783+024583FM-12+001599999V0201801N00361220001CN0400001N9+00391+00111100801ADDAY121999GF103991021021008001041001MD1710051+9999MW1011
0070028640999991958050218004+65783+024583FM-12+001599999V0201601N00101220001CN0500001N9+00611+00281100661ADDAY111999GF102991011041008001041011KA1999M+00611MD1510051+9999MW1021
0057028640999991958050300004+65783+024583FM-12+001599999V0201101N00211220001CN0500001N9-00111-00221100691ADDAY101999GF102991001001999999041021MD1410001+9999MW1021
0070028640999991958050306004+65783+024583FM-12+001599999V0200901N00311030001CN0500001N9+00391-00111100661ADDAY111999GF106991021051012501041071KA1999N-00221MD1810011+9999MW1031
0057028640999991958050312004+65783+024583FM-12+001599999V0201101N00411007801CN0350001N9+00721+00111100681ADDAY121999GF107991061091008001061011MD1310011+9999MW1801
0081028640999991958050318004+65783+024583FM-12+001599999V0200501N00311012301CN0500001N9+00611-00281100681ADDAA199000691AY111999GF106991061051012501071001KA1999M+00891MD1310011+9999MW1031
0057028640999991958050400004+65783+024583FM-12+001599999V0200501N00101220001CN0500001N9+00001-00111100721ADDAY121999GF101991011051008001001001MD1410001+9999MW1011
0070028640999991958050406004+65783+024583FM-12+001599999V0203601N00361007801CN0300001N9+00281-00111100611ADDAY121999GF107991061051008001071999KA1999N-00111MD1810031+9999MW1021
0057028640999991958050412004+65783+024583FM-12+001599999V0200201N00361007801CN0400001N9+00501+00111100561ADDAY121999GF107991071081008001999999MD1710041+9999MW1251
0081028640999991958050418004+65783+024583FM-12+001599999V0200701N00361007801CN0400001N9+00391+00111100561ADDAA199000691AY121999GF108991081051008001999999KA1999M+00611MD1310021+9999MW1031
0078028640999991958050500004+65783+024583FM-12+001599999V0200501N00261030001CN0300001N9+00281+00111100581ADDAY121999GF108991041051004501021999MW1031EQDQ01+000042APCTENQ02+000012APC3  
0070028640999991958050506004+65783+024583FM-12+001599999V0200501N00411007801CN0500001N9+00391-00221100591ADDAY121999GF107991051081008001041061KA1999N+00111MD1410001+9999MW1011
0057028640999991958050512004+65783+024583FM-12+001599999V0200701N00461007801CN0500001N9+00721-00221100651ADDAY121999GF107991071081008001999999MD1110051+9999MW1021
0081028640999991958050518004+65783+024583FM-12+001599999V0200401N00361030001CN0200001N9+00281+00001100881ADDAA199000691AY181999GF106991031081004501071061KA1999M+00781MD1210101+9999MW1801
0057028640999991958050600004+65783+024583FM-12+001599999V0200401N00211004501CN0200001N9+00221+00001100961ADDAY121999GF108991061051004501021999MD1210031+9999MW1021
0081028640999991958050606004+65783+024583FM-12+001599999V0200701N00461004501CN0400001N9+00281+00001101081ADDAA199000691AY121999GF108991081081004501999999KA1999N+00111MD1310061+9999MW1031
0057028640999991958050612004+65783+024583FM-12+001599999V0200801N00361004501CN0400001N9+00501+00001101191ADDAY121999GF108991081081004501999999MD1210051+9999MW1021
0081028640999991958050618004+65783+024583FM-12+001599999V0200701N00311007801CN0500001N9+00391-00111101211ADDAA199000691AY181999GF107991071081008001999999KA1999M+00501MD1410001+9999MW1011
0057028640999991958050700004+65783+024583FM-12+001599999V0200501N00211030001CN0500001N9+00111-00111101191ADDAY121999GF108991021051008001071999MD1810031+9999MW1021
0070028640999991958050706004+65783+024583FM-12+001599999V0200701N00211220001CN0500001N9+00391-00281101091ADDAY111999GF100991001001999999001001KA1999N+00001MD1710061+9999MW1011
0057028640999991958050712004+65783+024583FM-12+001599999V0201401N00311220001CN0500001N9+00721-00611101021ADDAY101999GF104991011011012501999999MD1710011+9999MW1021
0057028640999991958050718004+65783+024583FM-12+001599999V0200501N00211030001CN0450001N9+00111-00111101191ADDAY121999GF108991021051008001071999MD1810031+9999MW1021
0076028640999991958050800004+65783+024583FM-12+001599999V0200201N00211220001CN0500001N9-00221-00501101211ADDAY101999GF101991999001999999041001MD1210071+9999MW1021EQDQ01+000002SCOTLC
0089028640999991958050806004+65783+024583FM-12+001599999V0203601N00211220001CN0500001N9+00111-00611101361ADDAY101999GF101991999001999999041001KA1999N-00391MD1110031+9999MW1021EQDQ01+000002SCOTLC
0057028640999991958050812004+65783+024583FM-12+001599999V0200901N00211220001CN0500001N9+00721-00501101411ADDAY101999GF101991011011012501001001MD1410001+9999MW1021
0057028640999991958050818004+65783+024583FM-12+001599999V0202001N00151220001CN0250001N9+00281-00281101441ADDAY101999GF104991011041012501001041MD1410001+9999MW1041
0057028640999991958050900004+65783+024583FM-12+001599999V0209991C00001220001CN0400001N9+00001-00501101481ADDAY121999GF107991001001999999021999MD1210021+9999MW1021
0070028640999991958050906004+65783+024583FM-12+001599999V0201101N00361220001CN0400001N9+00391-00281101321ADDAY121999GF107991001001999999021999KA1999N-00111MD1710061+9999MW1011
0057028640999991958050912004+65783+024583FM-12+001599999V0201801N00311007801CN0400001N9+00721-00111101211ADDAY121999GF108991061081008001021999MD1710061+9999MW1021
0081028640999991958050918004+65783+024583FM-12+001599999V0201101N00261030001CN0300001N9+00611+00001100991ADDAA199000691AY121999GF108991031051008001071999KA1999M+00781MD1710131+9999MW1031
0057028640999991958051000004+65783+024583FM-12+001599999V0201401N00311007801CN0100001N9+00501+00001100841ADDAY121999GF108991061051008001021999MD1710041+9999MW1601
0081028640999991958051006004+65783+024583FM-12+001599999V0201401N00571030001CN0150001N9+00611+00001100641ADDAA199000691AY121999GF108991031051008001021999KA1999N+00281MD1710081+9999MW1601
0057028640999991958051012004+65783+024583FM-12+001599999V0201401N00571004501CN0100001N9+00721+00221100511ADDAY161999GF108991061051004501021999MD1710071+9999MW1611
0057028640999991958051018004+65783+024583FM-12+001599999V0201401N00461004501CN0050001N9+00391+00281100461ADDAY161999GF108991071071004501021999MD1710051+9999MW1631
0057028640999991958051100004+65783+024583FM-12+001599999V0200901N00461002401CN0100001N9+00221+00221100351ADDAY161999GF108991071071002501021999MD1710081+9999MW1611
0081028640999991958051106004+65783+024583FM-12+001599999V0201401N00461000151CN0015001N9+00221+00221100341ADDAA199006091AY161999GF108991081061000251999999KA1999N+00111MD1410001+9999MW1521
0057028640999991958051112004+65783+024583FM-12+001599999V0201801N00261000151CN0004001N9+00111+00111100411ADDAY151999GF109991091999000251999999MD1210061+9999MW1451
0057028640999991958051118004+65783+024583FM-12+001599999V0203601N00261001501CN0300001N9+00221+00001100511ADDAY141999GF108991081071001501999999MD1210061+9999MW1021
0057028640999991958051200004+65783+024583FM-12+001599999V0200501N00151004501CN0400001N9+00001+00001100581ADDAY121999GF108991071051004501999999MD1210031+9999MW1021
0070028640999991958051206004+65783+024583FM-12+001599999V0200501N00411004501CN0400001N9+00001-00221100591ADDAY121999GF107991071051004501999999KA1999N-00111MD1710011+9999MW1011
0057028640999991958051212004+65783+024583FM-12+001599999V0200401N00261007801CN0500001N9+00391-00221100601ADDAY121999GF105991051011008001001021MD1810011+9999MW1011
0107028640999991958051218004+65783+024583FM-12+001599999V0200501N00411220001CN0500001N9+00391-00221100561ADDAY101999GF101991999001999999041001KA1999M+00501MW1011EQDQ01+000002SCOTLCQ02+000042APCTENQ03+000012APC3  
0076028640999991958051300004+65783+024583FM-12+001599999V0200501N00151220001CN0500001N9-00281-00391100551ADDAY101999GF103991999001999999071001MD1710031+9999MW1031EQDQ01+000002SCOTLC
0070028640999991958051306004+65783+024583FM-12+001599999V0200501N00311220001CN0500001N9+00221-00221100401ADDAY101999GF102991021051017501041001KA1999N-00281MD1710061+9999MW1021
0057028640999991958051312004+65783+024583FM-12+001599999V0200201N00571030001CN0400001N9+00721-00281100341ADDAY111999GF106991011011012501041071MD1710041+9999MW1031
0057028640999991958051318004+65783+024583FM-12+001599999V0203601N00311220001CN0500001N9+00611-00281100341ADDAY101999GF102991011051012501001051MD1210031+9999MW1031
0057028640999991958051400004+65783+024583FM-12+001599999V0200201N00151007801CN0300001N9-00221-00501100561ADDAY111999GF107991051051008001071041MD1210071+9999MW1031
0070028640999991958051406004+65783+024583FM-12+001599999V0203601N00311012301CN0400001N9+00221-00391100861ADDAY121999GF108991061051012501071999KA1999N-00281MD1210141+9999MW1031
0057028640999991958051412004+65783+024583FM-12+001599999V0203601N00361220001CN0500001N9+00611-00281101011ADDAY121999GF104991041011012501001001MD1210081+9999MW1011
0043028640999991958051418004+65783+024583FM-12+001599999V0202701N00211012301CN0500001N9+00281-00111101171ADDAY121999GF105991051081012501001001MW1031
0057028640999991958051500004+65783+024583FM-12+001599999V0209991C00001030001CN0300001N9-00221-00281101351ADDAY111999GF105991011051008001071001MD1210061+9999MW1021
0081028640999991958051506004+65783+024583FM-12+001599999V0201401N00211012301CN0500001N9+00281+00001101481ADDAA199000691AY111999GF107991061081012501041999KA1999N-00281MD1110101+9999MW1261
0078028640999991958051512004+65783+024583FM-12+001599999V0202301N00311220001CN0500001N9+00781+00001101511ADDAY111999GF102991021021008001041001MW1011EQDQ01+000042APCTENQ02+000012APC3  
0043028640999991958051518004+65783+024583FM-12+001599999V0202301N00211220001CN0500001N9+00721+99999101401ADDAY101999GF102991021091008001001051MW1021
0043028640999991958051600004+65783+024583FM-12+001599999V0209999999999220001CN0500001N9+00281+99999101341ADDAY101999GF199999001001999999001011MW1011
0070028640999991958051606004+65783+024583FM-12+001599999V0200901N00511220001CN0500001N9+00781-00281101151ADDAY121999GF107991001001999999001071KA1999N+00001MD1710061+9999MW1021
0057028640999991958051612004+65783+024583FM-12+001599999V0200901N00721220001CN0500001N9+00891-00391100741ADDAY121999GF108991001001999999021999MD1710231+9999MW1021
0057028640999991958051618004+65783+024583FM-12+001599999V0200701N00621001501CN0020001N9+00111+00111100511ADDAY171999GF108991061071001501021999MD1710031+9999MW1691
0057028640999991958051700004+65783+024583FM-12+001599999V0200901N00511001501CN0020001N9+00111+00111100161ADDAY171999GF108991081071001501999999MD1710131+9999MW1681
0102028640999991958051706004+65783+024583FM-12+001599999V0201801N00461000601CN0018001N9+00221+00221100151ADDAA199004091AY171999GF108991081071000751999999KA1999N+00001MW1511EQDQ01+000042APCTENQ02+000022APC3  
0057028640999991958051712004+65783+024583FM-12+001599999V0202301N00311000601CN0060001N9+00221+00221100391ADDAY141999GF108991071071000751021999MD1210131+9999MW1021
0081028640999991958051718004+65783+024583FM-12+001599999V0202001N00151004501CN0200001N9+00221+00111100521ADDAA199000691AY121999GF107991061081004501071999KA1999M+00501MD1710021+9999MW1031
0043028640999991958051800004+65783+024583FM-12+001599999V0200201N00151030001CN0300001N9-00111-00221100181ADDAY121999GF106991011051004501041071MW1011
0081028640999991958051806004+65783+024583FM-12+001599999V0203601N00311004501CN0040001N9+00221+00001099661ADDAA199000691AY121999GF108991071071004501021999KA1999N-00221MD1710241+9999MW1691
0057028640999991958051812004+65783+024583FM-12+001599999V0203601N00511000601CN0020001N9+00111+00111099161ADDAY171999GF108991071071000751021999MD1710261+9999MW1691
0081028640999991958051818004+65783+024583FM-12+001599999V0203601N00571001501CN0015001N9+00111+00111098661ADDAA199014091AY171999GF108991071071001501021999KA1999M+00221MD1710161+9999MW1691
0057028640999991958051900004+65783+024583FM-12+001599999V0200201N00571001501CN0030001N9+00001+00001098841ADDAY171999GF108991071071001501021999MD1210021+9999MW1681
0081028640999991958051906004+65783+024583FM-12+001599999V0203601N00571004501CN0035001N9+00001-00111099021ADDAA199007091AY171999GF108991071071004501021999KA1999N-00111MD1210251+9999MW1681
0076028640999991958051912004+65783+024583FM-12+001599999V0203601N00671001501CN0030001N9+00111-00111099821ADDAY171999GF108991999071001501021999MD1210441+9999MW1681EQDQ01+000082SCOTLC
0057028640999991958051918004+65783+024583FM-12+001599999V0203601N00511004501CN0050001N9+00111-00281100491ADDAY171999GF108991051071004501021999MD1210351+9999MW1701
0057028640999991958052000004+65783+024583FM-12+001599999V0203601N00311007801CN0400001N9-00221-00611101041ADDAY121999GF107991071051008001999999MD1210251+9999MW1031
0070028640999991958052006004+65783+024583FM-12+001599999V0203601N00361030001CN0500001N9+00001-00611101311ADDAY121999GF106991041051008001041061KA1999N-00221MD1210101+9999MW1011
0057028640999991958052012004+65783+024583FM-12+001599999V0202001N003619999999N0500001N9+00221-00501101411ADDAY121999GF106991999011012501001021MD1810031+9999MW1011
0070028640999991958052018004+65783+024583FM-12+001599999V0201601N00261030001CN0400001N9+00111-00221101201ADDAY121999GF107991021041008001041071KA1999M+00281MD1710151+9999MW1031
0057028640999991958052100004+65783+024583FM-12+001599999V0201101N00511001501CN0018001N9+00001+00001100651ADDAY121999GF108991061071001501021999MD1710261+9999MW1731
0081028640999991958052106004+65783+024583FM-12+001599999V0201101N00571001501CN0020001N9+00111+00111100151ADDAA199002091AY171999GF108991061071001501021999KA1999N+00001MD1710141+9999MW1681
0057028640999991958052112004+65783+024583FM-12+001599999V0201801N00361000151CN0006001N9+00281+00281100051ADDAY151999GF108991081061000251999999MD1310031+9999MW1461
0081028640999991958052118004+65783+024583FM-12+001599999V0202301N00261000151CN0008001N9+00221+00221100281ADDAA199000391AY141999GF109991091999000251999999KA1999M+00391MD1210141+9999MW1431
0057028640999991958052200004+65783+024583FM-12+001599999V0201801N00151000151CN0008001N9+00111+00111100421ADDAY141999GF109991091999000251999999MD1310011+9999MW1451
0081028640999991958052206004+65783+024583FM-12+001599999V0201101N00461001501CN0400001N9+00501+00391100051ADDAA199000391AY121999GF108991081071001501999999KA1999N+00111MD1710241+9999MW1031
0057028640999991958052212004+65783+024583FM-12+001599999V0202301N00211000601CN0050001N9+00281+00281099791ADDAY161999GF108991081071000751999999MD1210031+9999MW1611
0057028640999991958052218004+65783+024583FM-12+001599999V0202301N00211000151CN0006001N9+00221+00221100091ADDAY141999GF109991091999000251999999MD1210191+9999MW1501
0057028640999991958052300004+65783+024583FM-12+001599999V0203401N00261002401CN0006001N9+00281+00281100781ADDAY151999GF108991071081002501999999MD1210411+9999MW1501
0081028640999991958052306004+65783+024583FM-12+001599999V0200201N00151030001CN0400001N9+00501+00221101421ADDAA199000691AY121999GF107991011081004501071999KA1999N+00221MD1210271+9999MW1011
0057028640999991958052312004+65783+024583FM-12+001599999V0202301N00461030001CN0400001N9+00611+00281101911ADDAY111999GF106991021081008001061001MD1210191+9999MW1031
0070028640999991958052318004+65783+024583FM-12+001599999V0201601N00151030001CN0500001N9+00781+00221101951ADDAY111999GF106991021081008001041021KA1999M+00891MD1410001+9999MW1011
0057028640999991958052400004+65783+024583FM-12+001599999V0201401N00261220001CN0500001N9+00391+00111102011ADDAY121999GF102991021081008001041001MD1410001+9999MW1011
0070028640999991958052406004+65783+024583FM-12+001599999V0201801N00361030001CN0400001N9+00781+00281102081ADDAY101999GF105991021091008001051001KA1999N+00001MD1310041+9999MW1801
0057028640999991958052412004+65783+024583FM-12+001599999V0202301N00311220001CN0200001N9+00891+00281102241ADDAY101999GF101991011021012501001001MD1210071+9999MW1041
