0057028640999991957010100004+65783+024583FM-12+001599999V0209991C00001000601CN0300001N9-01111-01221102151ADDAY101999GF106991061061000751999999MD1210041+9999MW1031
0081028640999991957010106004+65783+024583FM-12+001599999V0209991C00001004501CN0300001N9-01111-01221102251ADDAA199000691AY111999GF108991081051004501999999KA1999N-01721MD1210031+9999MW1031
0091028640999991957010118004+65783+024583FM-12+001599999V0202701N00101000601CN0050001N9-00891-01001102371ADDAY121999GF108991081061000751999999KA1999M-00781MW1021EQDQ01+000042APCTENQ02+000022APC3  
0078028640999991957010200004+65783+024583FM-12+001599999V0202701N00261000601CN0050001N9-01001-01111102351ADDAY121999GF108991081061000751999999MW1021EQDQ01+000042APCTENQ02+000012APC3  
0081028640999991957010206004+65783+024583FM-12+001599999V0201101N00311004501CN0060001N9-00781-00891102151ADDAA199000691AY171999GF108991081061004501999999KA1999N-01111MD1710101+9999MW1711
0057028640999991957010212004+65783+024583FM-12+001599999V0201601N00361002401CN0070001N9-01001-01111102021ADDAY171999GF108991081061002501999999MD1710091+9999MW1711
0081028640999991957010218004+65783+024583FM-12+001599999V0200901N00151004501CN0100001N9-01281-01391101881ADDAA199000691AY171999GF108991081051004501999999KA1999M-00721MD1610061+9999MW1711
0070028640999991957010306004+65783+024583FM-12+001599999V0209991C00001004501CN0300001N9-01111-01221101641ADDAY121999GF108991081051004501999999KA1999N-01221MD1310021+9999MW1021
0057028640999991957010312004+65783+024583FM-12+001599999V0209991C00001220001CN0200001N9-01721-01781101721ADDAY171999GF102991011011008001041001MD1110051+9999MW1221
0081028640999991957010318004+65783+024583FM-12+001599999V0209991C00001004501CN0070001N9-01721-01781101971ADDAA199000691AY111999GF108991081051004501999999KA1999M-01111MD1210101+9999MW1711
0057028640999991957010400004+65783+024583FM-12+001599999V0201101N00101004501CN0200001N9-01111-01281102121ADDAY171999GF107991071051004501999999MD1210101+9999MW1711
0081028640999991957010406004+65783+024583FM-12+001599999V0209991C00001004501CN0150001N9-01611-01721102321ADDAA199000691AY111999GF108991081051004501999999KA1999N-02111MD1210101+9999MW1031
0081028640999991957010418004+65783+024583FM-12+001599999V0201401N00511001501CN0100001N9-00891-01001102221ADDAA199000691AY171999GF108991081061001501999999KA1999M-00781MD1710091+9999MW1701
0057028640999991957010500004+65783+024583FM-12+001599999V0201801N00461004501CN0300001N9-00891-01001101921ADDAY171999GF108991081051004501999999MD1710161+9999MW1021
0081028640999991957010506004+65783+024583FM-12+001599999V0201401N00621002401CN0300001N9-00501-00611101311ADDAA199000691AY121999GF108991081051002501999999KA1999N-01001MD1710231+9999MW1021
0100028640999991957010518004+65783+024583FM-12+001599999V0201101N00721001501CN0010001N9-00391-00501099911ADDAA199000591AY171999GF108991999071001501021999KA1999M-00281MD1710311+9999MW1751EQDQ01+000082SCOTLC
0057028640999991957010600004+65783+024583FM-12+001599999V0201101N00621002401CN0030001N9-00391-00501099651ADDAY171999GF108991081051002501999999MD1710101+9999MW1731
0081028640999991957010606004+65783+024583FM-12+001599999V0201101N00461220001CN0045001N9-00501-00611099491ADDAA199003091AY171999GF108991001001999999021999KA1999N-00501MD1710091+9999MW1731
0051028640999991957010612004+65783+024583FM-12+001599999V0200201N99999002401CN9999999N9-00391-00501099651ADDAY171999GF108991081051002501999999MD1710101+9999
0057028640999991957010700004+65783+024583FM-12+001599999V0200201N00211004501CN0100001N9-00781-00891099681ADDAY171999GF108991081051004501999999MD1210171+9999MW1711
0081028640999991957010706004+65783+024583FM-12+001599999V0200401N00211220001CN0100001N9-00891-01001100021ADDAA199000391AY171999GF108991001001999999021999KA1999N-01001MD1210141+9999MW1711
0057028640999991957010712004+65783+024583FM-12+001599999V0209991C00001000151CN0001001N9-01611-01721100311ADDAY141999GF109991091999000251999999MD1210131+9999MW1731
0100028640999991957010718004+65783+024583FM-12+001599999V0201601N00101220001CN0300001N9-01221-01281100401ADDAA199000391AY171999GF102991999001999999071001KA1999M-00891MD1810031+9999MW1011EQDQ01+000002SCOTLC
0076028640999991957010800004+65783+024583FM-12+001599999V0201401N00051220001CN0150001N9-00721-00781099971ADDAY101999GF102991999001999999071001MD1710321+9999MW1031EQDQ01+000002SCOTLC
0081028640999991957010806004+65783+024583FM-12+001599999V0201601N00671000601CN0050001N9-00391-00391099391ADDAA199000391AY121999GF108991081061000751999999KA1999N-01281MD1710341+9999MW1761
0076028640999991957010812004+65783+024583FM-12+001599999V0202601N00771000601CN0030001N9-00221-00221098401ADDAY171999GF108991081061000751999999MD1710582+9999MW1381EQDQ01+000582APC3  
0081028640999991957010818004+65783+024583FM-12+001599999V0202501N00511002401CN0200001N9+00111+00111097991ADDAA199001091AY121999GF108991081071002501999999KA1999M+00111MD1710181+9999MW1021
0057028640999991957010900004+65783+024583FM-12+001599999V0202301N00311000151CN0004001N9-00111-00111097781ADDAY141999GF109991091999000251999999MD1710101+9999MW1451
0070028640999991957010906004+65783+024583FM-12+001599999V0202501N00411220001CN0200001N9+00001+00001097391ADDAY121999GF108991001001999999071999KA1999N-00221MD1710221+9999MW1011
0057028640999991957010912004+65783+024583FM-12+001599999V0209991C00001000151CN0002001N9-00391-00501097111ADDAY121999GF109991091999000251999999MD1610031+9999MW1471
0070028640999991957010918004+65783+024583FM-12+001599999V0202701N00151220001CN0100001N9-00781-00781097181ADDAY121999GF107991001001999999071071KA1999M+00111MD1210081+9999MW1021
0057028640999991957011000004+65783+024583FM-12+001599999V0202701N00101004501CN0100001N9-00611-00721097561ADDAY121999GF108991081051004501999999MD1210161+9999MW1021
0070028640999991957011006004+65783+024583FM-12+001599999V0202701N00151220001CN0250001N9-01221-01281097881ADDAY101999GF102991021051004501001001KA1999N-01391MD1210151+9999MW1021
0057028640999991957011012004+65783+024583FM-12+001599999V0203201N00411220001CN0500001N9-00611-00781098421ADDAY111999GF103991011051008001041011MD1210311+9999MW1021
0089028640999991957011018004+65783+024583FM-12+001599999V0203401N00101220001CN0400001N9-00721-00891099021ADDAY101999GF102991999001999999041001KA1999M-00501MD1210301+9999MW1031EQDQ01+000002SCOTLC
0057028640999991957011100004+65783+024583FM-12+001599999V0203401N00511220001CN0500001N9-00721-00891099461ADDAY101999GF100991001001999999001001MD1210171+9999MW1021
0070028640999991957011106004+65783+024583FM-12+001599999V0203401N00361220001CN0400001N9-00721-00891099741ADDAY101999GF105991001001999999041061KA1999N-00891MD1210111+9999MW1031
0057028640999991957011112004+65783+024583FM-12+001599999V0203401N00511030001CN9999999N9-00391-00611099841ADDAY121999GF107991011051012501021999MD1310031+9999MW1441
0070028640999991957011118004+65783+024583FM-12+001599999V0203201N00311220001CN0400001N9-00501-00721100221ADDAY111999GF101991001001999999001011KA1999M-00391MD1210201+9999MW1021
0057028640999991957011200004+65783+024583FM-12+001599999V0203401N00311220001CN0500001N9-00891-00891100351ADDAY101999GF100991001001999999001001MD1210061+9999MW1021
0070028640999991957011206004+65783+024583FM-12+001599999V0203601N00311220001CN0400001N9-01281-01391100451ADDAY101999GF100991001001999999001001KA1999N-01611MD1210061+9999MW1021
0057028640999991957011212004+65783+024583FM-12+001599999V0203601N00151004501CN0350001N9-00891-01221100741ADDAY121999GF107991071051004501999999MD1210121+9999MW1021
0070028640999991957011218004+65783+024583FM-12+001599999V0203601N00211007801CN0500001N9-00891-01001101141ADDAY121999GF107991071051008001999999KA1999M-00891MD1210221+9999MW1031
0057028640999991957011300004+65783+024583FM-12+001599999V0203601N00311220001CN0500001N9-01611-01721101551ADDAY101999GF100991001001999999001001MD1210171+9999MW1021
0089028640999991957011318004+65783+024583FM-12+001599999V0203601N00211220001CN0500001N9-01111-01221102991ADDAY101999GF102991999001999999071001KA1999M-00721MD1210231+9999MW1011EQDQ01+000002SCOTLC
0078028640999991957011400004+65783+024583FM-12+001599999V0209991C00001220001CN0500001N9-02001-02111103151ADDAY101999GF101991001001999999001011MW1031EQDQ01+000042APCTENQ02+000012APC3  
0070028640999991957011406004+65783+024583FM-12+001599999V0202001N00261220001CN0400001N9-01281-01391102811ADDAY111999GF104991001001999999041999KA1999N-02111MD1710231+9999MW1021
0057028640999991957011412004+65783+024583FM-12+001599999V0202301N00461220001CN0400001N9-01001-01281102391ADDAY121999GF107991001001999999071081MD1710241+9999MW1011
0070028640999991957011418004+65783+024583FM-12+001599999V0202301N00571220001CN0400001N9-00781-01111101811ADDAY121999GF107991001001999999071081KA1999M-00781MD1710301+9999MW1011
0057028640999991957011500004+65783+024583FM-12+001599999V0202301N00721220001CN0500001N9-00721-00781101251ADDAY121999GF106991001001999999041071MD1710291+9999MW1031
0057028640999991957011512004+65783+024583FM-12+001599999V0202901N00361220001CN0500001N9-00611-00891100481ADDAY101999GF100991001001999999001001MD1410001+9999MW1011
0070028640999991957011518004+65783+024583FM-12+001599999V0202701N00261220001CN0500001N9-00721-00891100961ADDAY101999GF104991041051008001001001KA1999M-00281MD1210301+9999MW1031
0057028640999991957011600004+65783+024583FM-12+001599999V0202901N00361220001CN0500001N9-00891-01221101311ADDAY101999GF100991001001999999001001MD1210161+9999MW1021
0070028640999991957011606004+65783+024583FM-12+001599999V0202701N00211220001CN0500001N9-01001-01111101241ADDAY111999GF104991001001999999071051KA1999N-01391MD1710111+9999MW1011
0057028640999991957011612004+65783+024583FM-12+001599999V0202701N00261220001CN0500001N9-00391-00611100611ADDAY111999GF102991011051008001041001MD1710301+9999MW1011
0070028640999991957011618004+65783+024583FM-12+001599999V0203201N00211220001CN0500001N9-00111-00391101171ADDAY101999GF101991011051008001001001KA1999M+00001MD1210441+9999MW1021
0057028640999991957011700004+65783+024583FM-12+001599999V0202501N00211220001CN0500001N9-00611-00891101351ADDAY121999GF106991001001999999041081MD1710041+9999MW1031
0081028640999991957011706004+65783+024583FM-12+001599999V0202701N00311030001CN0400001N9-00111-00281100681ADDAA199000691AY171999GF107991021051004501071999KA1999N-01111MD1710291+9999MW1021
0057028640999991957011712004+65783+024583FM-12+001599999V0202701N00311030001CN0500001N9+00111-00221100641ADDAY121999GF107991011051004501071071MD1810031+9999MW1011
0057028640999991957011800004+65783+024583FM-12+001599999V0209991C00001220001CN0500001N9-00111-00221100691ADDAY121999GF107991001001999999071999MD1710051+9999MW1021
0070028640999991957011806004+65783+024583FM-12+001599999V0202501N00151220001CN0500001N9-00391-00501100491ADDAY101999GF100991001001999999001001KA1999N-00501MD1710111+9999MW1021
0057028640999991957011812004+65783+024583FM-12+001599999V0202501N00511030001CN0400001N9+00001-00221099811ADDAY111999GF106991011051012501071999MD1710401+9999MW1031
0070028640999991957011818004+65783+024583FM-12+001599999V0202701N00511220001CN0500001N9+00111-00611099351ADDAY111999GF100991001001999999001001KA1999M+00281MD1310011+9999MW1021
0057028640999991957011900004+65783+024583FM-12+001599999V0202901N00721220001CN0500001N9-00111-00501099571ADDAY101999GF100991001001999999001001MD1210161+9999MW1021
0070028640999991957011906004+65783+024583FM-12+001599999V0202701N00571220001CN0500001N9-00391-01001100191ADDAY101999GF100991001001999999001001KA1999N-00391MD1210311+9999MW1021
0057028640999991957011912004+65783+024583FM-12+001599999V0202501N00411220001CN0500001N9-00611-01001100581ADDAY101999GF101991011011008001041001MD1210071+9999MW1031
0081028640999991957011918004+65783+024583FM-12+001599999V0209991C00001220001CN0030001N9-00501-00611100411ADDAA199000691AY121999GF108991001001999999021999KA1999M-00391MD1710131+9999MW1731
0057028640999991957012000004+65783+024583FM-12+001599999V0201401N00151001501CN0050001N9-00221-00221099391ADDAY171999GF108991081071001501999999MD1710401+9999MW1711
0081028640999991957012006004+65783+024583FM-12+001599999V0202301N00621220001CN0200001N9+00281+00001098501ADDAA199001091AY121999GF108991001001999999021999KA1999N-00611MD1710391+9999MW1601
0057028640999991957012012004+65783+024583FM-12+001599999V0202001N00621220001CN0150001N9+00111+00001097861ADDAY181999GF106991001001999999071999MD1710261+9999MW1011
0081028640999991957012018004+65783+024583FM-12+001599999V0202001N00621004501CN0500001N9+00111-00221097381ADDAA199000691AY111999GF108991081051004501999999KA1999M+00281MD1710231+9999MW1031
0092028640999991957012100004+65783+024583FM-12+001599999V0202301N00511220001CN0500001N9+00221+00001096112ADDAY171999GF102991021051008001001001MD1710662+9999MW1011EQDQ01+096113APOSLPQ02+000662APC3  
0081028640999991957012106004+65783+024583FM-12+001599999V0202501N00511220001CN0500001N9+00001-00391096691ADDAA199000691AY121999GF107991001001999999071999KA1999N+00001MD1210141+9999MW1021
0057028640999991957012112004+65783+024583FM-12+001599999V0202501N00511220001CN0500001N9-00111-00281096991ADDAY121999GF102991021081008001041001MD1210221+9999MW1011
0076028640999991957012200004+65783+024583FM-12+001599999V0202701N00411220001CN0500001N9-00281-00391098091ADDAY101999GF101991999001999999041001MD1210181+9999MW1021EQDQ01+000002SCOTLC
0089028640999991957012206004+65783+024583FM-12+001599999V0202701N00261220001CN0500001N9-00281-00391098441ADDAY101999GF101991999001999999041001KA1999N-00721MD1210161+9999MW1021EQDQ01+000002SCOTLC
0057028640999991957012212004+65783+024583FM-12+001599999V0202501N00151220001CN0500001N9-00391-00611098841ADDAY111999GF104991011051008001041011MD1210201+9999MW1011
0089028640999991957012218004+65783+024583FM-12+001599999V0202301N00151220001CN0500001N9-00501-00501098991ADDAY111999GF102991999001999999071001KA1999M-00281MD1210051+9999MW1031EQDQ01+000002SCOTLC
0057028640999991957012300004+65783+024583FM-12+001599999V0209991C00001220001CN0500001N9-01221-01391099141ADDAY101999GF102991021061000751001001MD1210151+9999MW1021
0089028640999991957012306004+65783+024583FM-12+001599999V0201101N00151220001CN0050001N9-01221-01281099241ADDAY101999GF101991999001999999071001KA1999N-01391MD1310031+9999MW1031EQDQ01+000002SCOTLC
0057028640999991957012312004+65783+024583FM-12+001599999V0209991C00001000601CN0040001N9-01111-01221099601ADDAY121999GF106991051081000751041051MD1210221+9999MW1031
0089028640999991957012318004+65783+024583FM-12+001599999V0209991C00001220001CN0010001N9-01001-01891100151ADDAY111999GF102991021061000251001001KA1999M+99999MD1210291+9999MW1101EQDQ01 -01112ATMX  
0057028640999991957012400004+65783+024583FM-12+001599999V0209991C00001220001CN0100001N9-01891-01891100601ADDAY101999GF100991001001999999001001MD1210271+9999MW1021
0070028640999991957012406004+65783+024583FM-12+001599999V0200401N00151001501CN0060001N9-01281-01501101111ADDAY101999GF106991061061001501999999KA1999N-02001MD1210231+9999MW1031
0057028640999991957012412004+65783+024583FM-12+001599999V0209991C00001001501CN0100001N9-01111-01221101571ADDAY121999GF108991081061001501999999MD1210161+9999MW1031
0081028640999991957012418004+65783+024583FM-12+001599999V0209991C00001000151CN0015001N9-00891-01001101571ADDAA199000691AY171999GF108991081061000251999999KA1999M-00891MD1010001+9999MW1561
0057028640999991957012500004+65783+024583FM-12+001599999V0209991C00001000601CN0060001N9-00721-00781101651ADDAY121999GF108991081061000751999999MD1410001+9999MW1021
0070028640999991957012506004+65783+024583FM-12+001599999V0201401N00151000601CN0060001N9-00611-00721101411ADDAY121999GF108991081071000751999999KA1999N-01001MD1810081+9999MW1021
0057028640999991957012512004+65783+024583FM-12+001599999V0201601N00261000151CN0060001N9-00611-00721101351ADDAY121999GF108991081061000251999999MD1710041+9999MW1021
0081028640999991957012518004+65783+024583FM-12+001599999V0200701N00151000601CN0045001N9-00501-00501101211ADDAA199001091AY171999GF108991081061000751999999KA1999M-00501MD1710091+9999MW1761
0078028640999991957012600004+65783+024583FM-12+001599999V0201101N00151001501CN0045001N9-00501-00501101181ADDAY171999GF108991081071001501999999MW1731EQDQ01+000042APCTENQ02+000012APC3  
0081028640999991957012606004+65783+024583FM-12+001599999V0201401N00411030001CN0045001N9-00391-00391101211ADDAA199002091AY171999GF108991041071001501021999KA1999N-00501MD1210041+9999MW1731
0081028640999991957012618004+65783+024583FM-12+001599999V0201101N00461220001CN0050001N9-00611-00781101181ADDAA199001091AY171999GF107991001001999999021999KA1999M-00391MD1710081+9999MW1711
0057028640999991957012700004+65783+024583FM-12+001599999V0201101N00361220001CN0300001N9-00721-00781100911ADDAY171999GF100991001001999999001001MD1710111+9999MW1011
0081028640999991957012706004+65783+024583FM-12+001599999V0201101N00511004501CN0400001N9-00721-00891100561ADDAA199000591AY121999GF108991081051004501999999KA1999N-00891MD1710141+9999MW1021
0043028640999991957012712004+65783+024583FM-12+001599999V0201101N00721004501CN0100001N9-00721-00781100241ADDAY171999GF108991081051004501999999MW1711
0081028640999991957012718004+65783+024583FM-12+001599999V0201101N00721002401CN0020001N9-00611-00721099971ADDAA199000591AY171999GF108991061071002501021999KA1999M-00611MD1710091+9999MW1731
0057028640999991957012800004+65783+024583FM-12+001599999V0201101N00721002401CN0015001N9-00501-00611099951ADDAY171999GF108991071071002501021999MD1310021+9999MW1731
0081028640999991957012806004+65783+024583FM-12+001599999V0200901N00511004501CN0020001N9-00611-00721100221ADDAA199002091AY171999GF108991071071004501021999KA1999N-00611MD1210201+9999MW1731
0057028640999991957012812004+65783+024583FM-12+001599999V0200501N00311004501CN0050001N9-00611-00781100811ADDAY171999GF108991051071004501021999MD1210291+9999MW1711
0081028640999991957012818004+65783+024583FM-12+001599999V0200501N00211004501CN0200001N9-00781-01001101321ADDAA199003091AY171999GF108991081071004501999999KA1999M-00501MD1210181+9999MW1221
0057028640999991957012900004+65783+024583FM-12+001599999V0201101N00261002401CN0400001N9-00781-00891101681ADDAY121999GF108991081051002501999999MD1210111+9999MW1021
0081028640999991957012906004+65783+024583FM-12+001599999V0201601N00411000601CN0020001N9-00611-00721101841ADDAA199000691AY121999GF108991081061000751999999KA1999N-00781MD1710041+9999MW1561
0057028640999991957012912004+65783+024583FM-12+001599999V0201401N00571001501CN0100001N9-00501-00611101351ADDAY151999GF108991081061001501999999MD1710231+9999MW1781
0081028640999991957012918004+65783+024583FM-12+001599999V0201601N00721002401CN0010001N9-00391-00391100821ADDAA199001091AY171999GF108991081071002501999999KA1999M-00281MD1710231+9999MW1731
0057028640999991957013000004+65783+024583FM-12+001599999V0209991C00001220001CN0100001N9-00391-00501101011ADDAY121999GF107991001001999999071999MD1210201+9999MW1011
0081028640999991957013006004+65783+024583FM-12+001599999V0202001N00051220001CN0150001N9-00391-00611101391ADDAA199002091AY101999GF102991011051004501041001KA1999N-00501MD1210141+9999MW1031
0057028640999991957013012004+65783+024583FM-12+001599999V0201801N00211030001CN0070001N9-00891-00891101511ADDAY111999GF106991021051008001071011MD1010031+9999MW1701
0089028640999991957013018004+65783+024583FM-12+001599999V0202301N00211220001CN0300001N9-00781-00891101711ADDAY111999GF103991999001999999071001KA1999M-00781MD1710121+9999MW1031EQDQ01+000002SCOTLC
0057028640999991957013100004+65783+024583FM-12+001599999V0209991C00001220001CN0300001N9-00611-00721101891ADDAY121999GF105991001001999999071999MD1210081+9999MW1011
0070028640999991957013106004+65783+024583FM-12+001599999V0209991C00001220001CN0200001N9-00721-00781101991ADDAY121999GF107991001001999999071999KA1999N-01001MD1010011+9999MW1031
0078028640999991957013112004+65783+024583FM-12+001599999V0201801N00211220001CN0150001N9-00611-00721102021ADDAY121999GF107991001001999999071999MW1021EQDQ01+000072APCTENQ02+000002APC3  
0070028640999991957013118004+65783+024583FM-12+001599999V0202001N002119999999N0300001N9-00611-00721101761ADDAY121999GF107991021041017501999999KA1999M-00501MD1710161+9999MW1011
0057028640999991957020100004+65783+024583FM-12+001599999V0202001N00211220001CN0200001N9-00501-00501101601ADDAY121999GF108991001001999999071999MD1710081+9999MW1031
0081028640999991957020106004+65783+024583FM-12+001599999V0201801N00361002401CN0300001N9-00221-00391101321ADDAA199000591AY171999GF108991081071002501999999KA1999N-00611MD1710221+9999MW1021
0057028640999991957020112004+65783+024583FM-12+001599999V0201801N00211001501CN0050001N9-00391-00391100751ADDAY171999GF108991081061001501999999MD1710351+9999MW1771
0057028640999991957020200004+65783+024583FM-12+001599999V0202001N00621001501CN0050001N9+00001+00001099401ADDAY171999GF108991081071001501999999MD1810191+9999MW1221
0081028640999991957020206004+65783+024583FM-12+001599999V0202301N00721002401CN0070001N9-00221-00281099021ADDAA199001091AY121999GF108991081071002501999999KA1999N-00221MD1710221+9999MW1021
0070028640999991957020218004+65783+024583FM-12+001599999V0202501N00211004501CN0200001N9-00281-00391099281ADDAY121999GF108991081061004501999999KA1999M-00221MD1210261+9999MW1021
0076028640999991957020300004+65783+024583FM-12+001599999V0202501N00411220001CN0300001N9-00721-00781099291ADDAY101999GF101991999001999999041001MD1210051+9999MW1021EQDQ01+000002SCOTLC
0070028640999991957020306004+65783+024583FM-12+001599999V0202501N00211030001CN0400001N9-00721-00781099401ADDAY111999GF105991021061004501071999KA1999N-01001MD1210041+9999MW1031
0070028640999991957020318004+65783+024583FM-12+001599999V0202501N00211220001CN0400001N9-00721-00781099881ADDAY111999GF101991011051004501001001KA1999M-00111MD1010101+9999MW1031
0057028640999991957020400004+65783+024583FM-12+001599999V0209991C00001220001CN0500001N9-00781-00781100111ADDAY101999GF101991011051004501001001MD1210161+9999MW1021
0070028640999991957020406004+65783+024583FM-12+001599999V0202501N00311220001CN0500001N9-00721-00781100361ADDAY101999GF100991001001999999001001KA1999N-00891MD1210131+9999MW1011
0070028640999991957020418004+65783+024583FM-12+001599999V0201401N00211220001CN0300001N9-00611-00721100161ADDAY121999GF107991001001999999071999KA1999M-00501MD1710171+9999MW1011
0057028640999991957020500004+65783+024583FM-12+001599999V0201401N00361001501CN0060001N9-00281-00281099891ADDAY121999GF108991081061001501999999MD1710131+9999MW1771
0081028640999991957020506004+65783+024583FM-12+001599999V0201401N00151000151CN0004001N9-00221-00221099751ADDAA199000391AY121999GF109991091999000251999999KA1999N-00611MD1710051+9999MW1471
0081028640999991957020518004+65783+024583FM-12+001599999V0201601N00411001501CN0050001N9-00111-00111098891ADDAA199000691AY121999GF108991081061001501999999KA1999M-00111MD1710481+9999MW1701
0057028640999991957020600004+65783+024583FM-12+001599999V0209991C00001002401CN0300001N9-00391-00501098681ADDAY121999GF107991051071002501071041MD1210301+9999MW1031
0081028640999991957020606004+65783+024583FM-12+001599999V0203201N00211030001CN0100001N9-00281-00281098481ADDAA199003091AY121999GF106991021051004501071999KA1999N-00611MD1210361+9999MW1031
0081028640999991957020618004+65783+024583FM-12+001599999V0209991C00001030001CN0100001N9-00501-00501099201ADDAA199000691AY171999GF108991041071002501021999KA1999M-00281MD1210051+9999MW1711
0078028640999991957020700004+65783+024583FM-12+001599999V0200501N00051220001CN0100001N9-00611-00721099221ADDAY171999GF108991001001999999071999MW1701EQDQ01+000042APCTENQ02+000022APC3  
0081028640999991957020706004+65783+024583FM-12+001599999V0200501N00211030001CN0050001N9-00721-00781099111ADDAA199003091AY171999GF108991021071002501021999KA1999N-00781MD1710061+9999MW1731
0057028640999991957020712004+65783+024583FM-12+001599999V0200501N00461030001CN0020001N9-00501-00611098981ADDAY171999GF108991021071004501021999MD1710081+9999MW1731
0081028640999991957020718004+65783+024583FM-12+001599999V0200201N00461030001CN0020001N9-00611-00721099161ADDAA199004091AY171999GF108991041071004501021999KA1999M-00501MD1210051+9999MW1751
0057028640999991957020800004+65783+024583FM-12+001599999V0200201N00571220001CN0010001N9-00611-00721099341ADDAY171999GF108991001001999999021999MD1210251+9999MW1751
0081028640999991957020806004+65783+024583FM-12+001599999V0203601N00311220001CN0080001N9-00611-00721099521ADDAA199003091AY171999GF108991001001999999021999KA1999N-00721MD1210191+9999MW1751
0057028640999991957020812004+65783+024583FM-12+001599999V0203601N00211220001CN0500001N9-00781-01001099741ADDAY111999GF104991001001999999011051MD1210081+9999MW1011
0070028640999991957020818004+65783+024583FM-12+001599999V0203601N00211220001CN0500001N9-01611-01721099851ADDAY111999GF100991001001999999001001KA1999M-00611MD1210041+9999MW1011
0089028640999991957020906004+65783+024583FM-12+001599999V0209991C00001220001CN0200001N9-02391-02611099891ADDAY101999GF101991999001999999041001KA1999N-02611MD1010011+9999MW1031EQDQ01+000002SCOTLC
0057028640999991957020918004+65783+024583FM-12+001599999V0209991C00001220001CN0015001N9-02611-02721099951ADDAY141999GF100991001001999999001001MD1410001+9999MW1101
0057028640999991957021000004+65783+024583FM-12+001599999V0209991C00001007801CN0200001N9-02111-02391100011ADDAY121999GF107991071051008001999999MD1210041+9999MW1011
0081028640999991957021006004+65783+024583FM-12+001599999V0209991C00001001501CN0150001N9-01721-01781100081ADDAA199000691AY171999GF108991081071001501999999KA1999N-02781MD1210091+9999MW1221
0070028640999991957021018004+65783+024583FM-12+001599999V0203401N00101220001CN0150001N9-01611-01721100351ADDAY111999GF103991011061004501071999KA1999M-01001MD1210091+9999MW1021
0076028640999991957021100004+65783+024583FM-12+001599999V0209991C00001220001CN0300001N9-01891-02111100521ADDAY101999GF103991999001999999041001MD1210081+9999MW1011EQDQ01+000002SCOTLC
0089028640999991957021106004+65783+024583FM-12+001599999V0200201N00151220001CN0200001N9-01721-01781100591ADDAY101999GF102991999001999999041001KA1999N-01891MD1210041+9999MW1021EQDQ01+000002SCOTLC
0081028640999991957021118004+65783+024583FM-12+001599999V0209991C00001030001CN0015001N9-02111-02281100661ADDAA199000691AY101999GF107991031051002501071999KA1999M-01111MD1210011+9999MW1101
0076028640999991957021200004+65783+024583FM-12+001599999V0209991C00001220001CN0100001N9-02281+99999100661ADDAY101999GF102991999001999999041001MD1410001+9999MW1021EQDQ01+000002SCOTLC
0070028640999991957021206004+65783+024583FM-12+001599999V0209991C00001220001CN0050001N9-02611+99999100661ADDAY101999GF106991001001999999071999KA1999N-02781MD1410001+9999MW1041
0057028640999991957021212004+65783+024583FM-12+001599999V0209991C00001001501CN0040001N9-01781-01891100721ADDAY171999GF105991051061001501071001MD1310021+9999MW1771
0081028640999991957021218004+65783+024583FM-12+001599999V0209991C00001030001CN0050001N9-01721-01781100851ADDAA199000591AY171999GF107991031071001501071999KA1999M-01721MD1210091+9999MW1781
0081028640999991957021306004+65783+024583FM-12+001599999V0201601N00101004501CN0070001N9-01501-01611100941ADDAA199000691AY171999GF108991061051004501071999KA1999N-01781MD1210011+9999MW1781
0081028640999991957021318004+65783+024583FM-12+001599999V0209991C00001000601CN0019001N9-01891-02111101021ADDAA199000591AY141999GF108991081061000751999999KA1999M-01221MD1610011+9999MW1101
0057028640999991957021400004+65783+024583FM-12+001599999V0209991C00001000601CN0030001N9-01611-01721101021ADDAY171999GF108991081061000751999999MD1210011+9999MW1781
0081028640999991957021406004+65783+024583FM-12+001599999V0209991C00001001501CN0060001N9-01721-01781101001ADDAA199000691AY171999GF108991081061001501999999KA1999N-01891MD1810021+9999MW1781
0089028640999991957021418004+65783+024583FM-12+001599999V0200201N00151220001CN0200001N9-02001-02111100911ADDAY101999GF101991999001999999041001KA1999M-01501MD1610021+9999MW1021EQDQ01+000002SCOTLC
0057028640999991957021500004+65783+024583FM-12+001599999V0200501N00261220001CN0300001N9-02001-02111100791ADDAY101999GF102991001001999999041051MD1710081+9999MW1031
0081028640999991957021506004+65783+024583FM-12+001599999V0200501N00461004501CN0150001N9-01721-01781100541ADDAA199000391AY171999GF108991081051004501999999KA1999N-02221MD1710151+9999MW1221
0081028640999991957021518004+65783+024583FM-12+001599999V0200401N00361030001CN0060001N9-01111-01221100211ADDAA199002091AY171999GF108991041071004501021999KA1999M-01111MD1710071+9999MW1711
0081028640999991957021606004+65783+024583FM-12+001599999V0200401N00361004501CN0060001N9-00781-00891099911ADDAA199001091AY171999GF108991061071004501021999KA1999N-01111MD1710081+9999MW1711
0081028640999991957021618004+65783+024583FM-12+001599999V0200201N00211002401CN0070001N9-00501-00611099851ADDAA199003091AY171999GF108991071071002501021999KA1999M-00501MD1310031+9999MW1711
0081028640999991957021706004+65783+024583FM-12+001599999V0200901N00361001501CN0035001N9+00001+00001099791ADDAA199002091AY171999GF108991081071001501999999KA1999N-00501MD1610041+9999MW1731
0081028640999991957021718004+65783+024583FM-12+001599999V0200401N00211004501CN0200001N9+00001+00001099691ADDAA199001091AY121999GF108991081051004501999999KA1999M+00111MD1810011+9999MW1021
0057028640999991957021800004+65783+024583FM-12+001599999V0200201N00151002401CN0040001N9-00111-00111099661ADDAY171999GF108991061071002501021999MD1410001+9999MW1711
0081028640999991957021806004+65783+024583FM-12+001599999V0200201N00151004501CN0080001N9-00221-00221099681ADDAA199002091AY171999GF108991061051004501071999KA1999N-00281MD1310011+9999MW1221
0081028640999991957021818004+65783+024583FM-12+001599999V0203401N00101004501CN0080001N9-00281-00281099551ADDAA199000391AY171999GF108991061051004501021999KA1999M-00221MD1210101+9999MW1711
0043028640999991957021900004+65783+024583FM-12+001599999V0209991C00001004501CN0100001N9-00281-00391099151ADDAY171999GF108991081051004501999999MW1221
0100028640999991957021906004+65783+024583FM-12+001599999V0202701N00051004501CN0120001N9-00501-00611100382ADDAA199000391AY121999GF108991081051004501999999KA1999N-00501MD1210121+9999MW1031EQDQ01+100383APOSLP
0081028640999991957021918004+65783+024583FM-12+001599999V0201401N00101030001CN0045001N9-00611-00721100781ADDAA199001091AY171999GF108991021071004501021999KA1999M-00391MD1210051+9999MW1711
0057028640999991957022000004+65783+024583FM-12+001599999V0209991C00001002401CN0200001N9-00501-00501100741ADDAY171999GF108991081051002501999999MD1710041+9999MW1221
0081028640999991957022006004+65783+024583FM-12+001599999V0200201N00151004501CN0150001N9-00501-00501100561ADDAA199000591AY121999GF108991061051004501021999KA1999N-00501MD1710071+9999MW1021
0070028640999991957022018004+65783+024583FM-12+001599999V0200201N00211004501CN0250001N9-00281-00391100321ADDAY121999GF108991081051004501999999KA1999M-00281MD1710021+9999MW1031
0057028640999991957022100004+65783+024583FM-12+001599999V0203601N00211004501CN0060001N9-00391-00501100291ADDAY171999GF108991071071004501021999MD1410001+9999MW1711
0081028640999991957022106004+65783+024583FM-12+001599999V0203601N00311004501CN0035001N9-00391-00501100321ADDAA199001091AY171999GF108991071071004501021999KA1999N-00391MD1210011+9999MW1731
0057028640999991957022112004+65783+024583FM-12+001599999V0203601N00261030001CN0035001N9-00391-00611100601ADDAY171999GF108991041071004501021999MD1210121+9999MW1731
0081028640999991957022118004+65783+024583FM-12+001599999V0203601N00311030001CN0050001N9-00611-00721100821ADDAA199001091AY171999GF108991021071004501021999KA1999M-00281MD1110101+9999MW1711
0057028640999991957022200004+65783+024583FM-12+001599999V0203601N00101220001CN0100001N9-00891-01001101111ADDAY171999GF106991001001999999011999MD1210101+9999MW1711
0089028640999991957022218004+65783+024583FM-12+001599999V0200501N00261220001CN0300001N9-01001-01111102041ADDAY121999GF105991999001999999051001KA1999M-00611MD1210131+9999MW1011EQDQ01+000002SCOTLC
0076028640999991957022300004+65783+024583FM-12+001599999V0200401N00261220001CN0300001N9-01221-01281102221ADDAY111999GF101991999001999999041001MD1210051+9999MW1011EQDQ01+000002SCOTLC
0081028640999991957022306004+65783+024583FM-12+001599999V0200501N00311220001CN0300001N9-01221-01281102261ADDAA199000691AY121999GF104991021051004501071999KA1999N-01391MD1610021+9999MW1031
0081028640999991957022318004+65783+024583FM-12+001599999V0200901N00571220001CN0040001N9-00611-00781101841ADDAA199000391AY171999GF108991001001999999021999KA1999M-00501MD1710071+9999MW1731
0057028640999991957022400004+65783+024583FM-12+001599999V0200701N00771220001CN0020001N9-00721-00891101621ADDAY131999GF108991001001999999021999MD1710131+9999MW1731
0081028640999991957022406004+65783+024583FM-12+001599999V0200701N00511030001CN0040001N9-00721-00891101361ADDAA199000591AY171999GF108991031071004501021999KA1999N-00781MD1710161+9999MW1731
0057028640999991957022412004+65783+024583FM-12+001599999V0200501N00461220001CN0030001N9-00611-00781101001ADDAY171999GF108991001001999999021999MD1710201+9999MW1731
0081028640999991957022418004+65783+024583FM-12+001599999V0200701N00461030001CN0030001N9-00501-00611100641ADDAA199001091AY171999GF108991021071004501021999KA1999M-00501MD1710151+9999MW1731
0057028640999991957022500004+65783+024583FM-12+001599999V0201101N00461030001CN0035001N9-00391-00501100661ADDAY171999GF108991031051004501021999MD1210061+9999MW1711
0081028640999991957022506004+65783+024583FM-12+001599999V0201401N00571007801CN0070001N9-00501-00611100981ADDAA199002091AY171999GF108991071051008001021999KA1999N-00611MD1210131+9999MW1711
0081028640999991957022518004+65783+024583FM-12+001599999V0201601N00411004501CN0050001N9-00501-00611101571ADDAA199000591AY171999GF108991051051004501021999KA1999M-00501MD1110071+9999MW1711
0057028640999991957022600004+65783+024583FM-12+001599999V0201601N00261004501CN0100001N9-00721-00781101671ADDAY171999GF108991081051004501999999MD1210091+9999MW1711
0081028640999991957022606004+65783+024583FM-12+001599999V0201601N00211004501CN0060001N9-00781-00891101951ADDAA199000591AY171999GF108991071051004501021999KA1999N-00891MD1210051+9999MW1711
0081028640999991957022618004+65783+024583FM-12+001599999V0201601N00461004501CN0100001N9-00611-00781102261ADDAA199000691AY171999GF108991081051004501999999KA1999M-00611MD1210061+9999MW1701
0057028640999991957022700004+65783+024583FM-12+001599999V0201401N00361004501CN0100001N9-00781-00891102441ADDAY121999GF108991051051004501071999MD1210191+9999MW1701
0102028640999991957022706004+65783+024583FM-12+001599999V0201601N00511004501CN0100001N9-00721-00781102411ADDAA199000391AY171999GF108991061051004501021999KA1999N-01001MW1711EQDQ01+000042APCTENQ02+000012APC3  
0081028640999991957022718004+65783+024583FM-12+001599999V0201401N00311004501CN0050001N9-00781-00891102651ADDAA199000591AY171999GF108991071051004501021999KA1999M-00611MD1210111+9999MW1711
0057028640999991957022800004+65783+024583FM-12+001599999V0201101N00211030001CN0100001N9-00891-00891102811ADDAY171999GF107991031051004501071999MD1210071+9999MW1711
0081028640999991957022806004+65783+024583FM-12+001599999V0200401N00151002401CN0100001N9-00781-00891103041ADDAA199000591AY171999GF108991081051002501999999KA1999N-01001MD1210131+9999MW1021
0081028640999991957022818004+65783+024583FM-12+001599999V0201801N00261002401CN0080001N9-00721-00781103391ADDAA199000691AY121999GF108991081051002501999999KA1999M-00611MD1210041+9999MW1771
0057028640999991957030100004+65783+024583FM-12+001599999V0201801N00411000151CN0030001N9-00891-01001103641ADDAY121999GF108991081061000251999999MD1210031+9999MW1021
0081028640999991957030106004+65783+024583FM-12+001599999V0201801N00311000601CN0150001N9-01001-01111103351ADDAA199000691AY121999GF108991081061000751999999KA1999N-01111MD1710051+9999MW1771
0057028640999991957030112004+65783+024583FM-12+001599999V0201801N00511002401CN0007001N9-00891-01001103311ADDAY171999GF108991081051002501999999MD1710031+9999MW1771
0081028640999991957030118004+65783+024583FM-12+001599999V0201801N00361001501CN0100001N9-00781-00891103181ADDAA199000691AY171999GF108991081071001501999999KA1999M-00781MD1710081+9999MW1021
0057028640999991957030200004+65783+024583FM-12+001599999V0201801N00461001501CN0050001N9-00721-00781103111ADDAY121999GF108991081061001501999999MD1710011+9999MW1771
0081028640999991957030206004+65783+024583FM-12+001599999V0201801N00511001501CN0050001N9-00611-00721103021ADDAA199000691AY171999GF108991081061001501999999KA1999N-00891MD1710021+9999MW1771
0057028640999991957030212004+65783+024583FM-12+001599999V0201601N00511030001CN0045001N9-00611-00721103011ADDAY171999GF108991031071002501021999MD1710041+9999MW1771
0081028640999991957030218004+65783+024583FM-12+001599999V0201601N00511002401CN0050001N9-00501-00611102781ADDAA199000391AY171999GF108991061071002501021999KA1999M-00501MD1710131+9999MW1771
0081028640999991957030306004+65783+024583FM-12+001599999V0201601N00671004501CN0150001N9-01111-01281102261ADDAA199000391AY121999GF108991061051004501071999KA1999N-01221MD1710141+9999MW1021
0081028640999991957030318004+65783+024583FM-12+001599999V0201601N00571004501CN0150001N9-00721-01111101601ADDAA199000591AY131999GF108991081051004501999999KA1999M-00721MD1710191+9999MW1361
0057028640999991957030400004+65783+024583FM-12+001599999V0201601N00771004501CN0200001N9-01001-01221101321ADDAY131999GF108991081051004501999999MD1710131+9999MW1361
0081028640999991957030406004+65783+024583FM-12+001599999V0201401N00511007801CN0150001N9-01111-01281101081ADDAA199000691AY121999GF108991081051008001999999KA1999N-01111MD1710071+9999MW1021
0057028640999991957030412004+65783+024583FM-12+001599999V0201101N00511030001CN0300001N9-00781-01221100821ADDAY171999GF107991021051008001071999MD1710151+9999MW1031
0081028640999991957030418004+65783+024583FM-12+001599999V0201101N00511004501CN0060001N9-00891-01111100741ADDAA199000691AY121999GF108991051051004501011999KA1999M-00781MD1710011+9999MW1711
0057028640999991957030500004+65783+024583FM-12+001599999V0200901N00361220001CN0050001N9+00001-01001100691ADDAY171999GF106991001001999999021999MD1410001+9999MW1711
0081028640999991957030506004+65783+024583FM-12+001599999V0200901N00361030001CN0060001N9-01001-01221100801ADDAA199001091AY171999GF108991021051004501021999KA1999N-01111MD1210101+9999MW1711
0057028640999991957030512004+65783+024583FM-12+001599999V0201101N00211220001CN0250001N9-00891-01221101001ADDAY111999GF105991001001999999001071MD1210061+9999MW1031
0081028640999991957030518004+65783+024583FM-12+001599999V0200701N00101220001CN0250001N9-01611-01721101191ADDAA199000691AY111999GF102991001001999999001011KA1999M-00891MD1210071+9999MW1011
0057028640999991957030600004+65783+024583FM-12+001599999V0201401N00151220001CN0400001N9-01611-01721101361ADDAY101999GF100991001001999999001001MD1210071+9999MW1021
0070028640999991957030606004+65783+024583FM-12+001599999V0201401N00101220001CN0300001N9-01781-01891101451ADDAY101999GF103991001001999999001011KA1999N-01891MD1110051+9999MW1031
0057028640999991957030612004+65783+024583FM-12+001599999V0202001N00211220001CN0150001N9-01281-01611101571ADDAY111999GF103991001001999999041051MD1010021+9999MW1051
0081028640999991957030618004+65783+024583FM-12+001599999V0201801N00101220001CN0050001N9-01721-01781101621ADDAA199000691AY111999GF103991031061000751001001KA1999M-01281MD1210041+9999MW1011
0070028640999991957030706004+65783+024583FM-12+001599999V0201601N00411220001CN0120001N9-01281-01391101711ADDAY121999GF107991001001999999021999KA1999N-01891MD1210061+9999MW1031
0057028640999991957030712004+65783+024583FM-12+001599999V0201601N00411001501CN0045001N9-01001-01111101811ADDAY171999GF108991081061001501999999MD1110041+9999MW1771
0057028640999991957030800004+65783+024583FM-12+001599999V0201801N00721001501CN0060001N9-00721-00781101821ADDAY171999GF108991081071001501999999MD1410001+9999MW1561
0081028640999991957030806004+65783+024583FM-12+001599999V0201601N00621001501CN0050001N9-00611-00721101941ADDAA199000691AY171999GF108991081061001501999999KA1999N-00781MD1210041+9999MW1021
0057028640999991957030812004+65783+024583FM-12+001599999V0202001N00671001501CN0070001N9-00281-00391102081ADDAY171999GF108991081071001501999999MD1210071+9999MW1021
0081028640999991957030818004+65783+024583FM-12+001599999V0202001N00571002401CN0090001N9-00281-00391102221ADDAA199000691AY171999GF108991081071002501999999KA1999M-00281MD1210071+9999MW1021
0057028640999991957030900004+65783+024583FM-12+001599999V0202001N00571002401CN0100001N9-00391-00501102281ADDAY121999GF108991081051002501999999MD1210011+9999MW1021
0070028640999991957030906004+65783+024583FM-12+001599999V0202001N00511004501CN0070001N9-00281-00391102221ADDAY121999GF108991081051004501999999KA1999N-00391MD1710031+9999MW1021
0057028640999991957030912004+65783+024583FM-12+001599999V0202301N00461002401CN0045001N9-00281-00391102241ADDAY171999GF108991081051002501999999MD1510011+9999MW1771
0081028640999991957030918004+65783+024583FM-12+001599999V0202001N00571004501CN0080001N9-00281-00501102201ADDAA199000691AY171999GF107991061071004501021999KA1999M-00221MD1810031+9999MW1771
0081028640999991957031006004+65783+024583FM-12+001599999V0202001N00411001501CN0060001N9-00281-00281100821ADDAA199000691AY171999GF108991081061001501999999KA1999N-00391MD1710101+9999MW1021
0057028640999991957031012004+65783+024583FM-12+001599999V0202301N00211220001CN0060001N9-00281-00501101941ADDAY121999GF108991001001999999041071MD1210081+9999MW1031
0070028640999991957031018004+65783+024583FM-12+001599999V0202301N00211220001CN0009001N9-00611-00721102061ADDAY111999GF100991001001999999001001KA1999M-00221MD1210061+9999MW1461
0057028640999991957031112004+65783+024583FM-12+001599999V0202001N00101220001CN0050001N9-00111-00221101721ADDAY121999GF102991999999999999999999MD1710071+9999MW1011
0070028640999991957031206004+65783+024583FM-12+001599999V0209991C00001001501CN0050001N9-00111-00111101421ADDAY121999GF108991081061001501999999KA1999N-00281MD1810071+9999MW1021
0057028640999991957031212004+65783+024583FM-12+001599999V0209991C00001001501CN0025001N9+00001-00111101321ADDAY171999GF108991081061001501999999MD1810031+9999MW1731
0081028640999991957031218004+65783+024583FM-12+001599999V0200201N00151075001CN0200001N9-00111-00221101291ADDAA199002091AY171999GF107991011051004501001071KA1999M+00111MD1310031+9999MW1011
0057028640999991957031300004+65783+024583FM-12+001599999V0203601N00211220001CN0500001N9-00501-00501101391ADDAY121999GF106991001001999999041071MD1210061+9999MW1021
0070028640999991957031306004+65783+024583FM-12+001599999V0200201N00311030001CN0500001N9-00781-00891101341ADDAY121999GF106991011071002501071051KA1999N-00891MD1410001+9999MW1011
0057028640999991957031312004+65783+024583FM-12+001599999V0200701N00571030001CN0500001N9-00891-01221101651ADDAY121999GF107991031051008001071999MD1210131+9999MW1021
0070028640999991957031318004+65783+024583FM-12+001599999V0200901N00571030001CN0500001N9-01391-02001101761ADDAY121999GF108991031051008001071999KA1999M-00611MD1110051+9999MW1021
0057028640999991957031400004+65783+024583FM-12+001599999V0200901N00621220001CN0500001N9-01781-02281101641ADDAY121999GF108991001001999999021999MD1710091+9999MW1031
0070028640999991957031406004+65783+024583FM-12+001599999V0200901N00671220001CN0500001N9-01781-02501101211ADDAY121999GF107991001001999999021999KA1999N-01891MD1710161+9999MW1021
0057028640999991957031412004+65783+024583FM-12+001599999V0200901N00671220001CN0020001N9-01611-01891100661ADDAY131999GF108991001001999999021999MD1710281+9999MW1731
0081028640999991957031418004+65783+024583FM-12+001599999V0200901N00461220001CN0006001N9-01501-01721100291ADDAA199002091AY171999GF108991001001999999021999KA1999M-01501MD1710091+9999MW1751
0057028640999991957031500004+65783+024583FM-12+001599999V0200701N00461220001CN0025001N9-01501-01721100021ADDAY171999GF108991001001999999021999MD1710131+9999MW1731
0057028640999991957031512004+65783+024583FM-12+001599999V0200501N00571220001CN0045001N9-01001-01221100381ADDAY171999GF108991001001999999021999MD1210221+9999MW1711
0081028640999991957031518004+65783+024583FM-12+001599999V0200401N00571220001CN0250001N9-01221-01611100791ADDAA199001091AY121999GF108991001001999999071999KA1999M-00891MD1210271+9999MW1021
0057028640999991957031600004+65783+024583FM-12+001599999V0200401N00411220001CN0500001N9-01781-02221101351ADDAY121999GF107991001001999999001071MD1210261+9999MW1021
0070028640999991957031606004+65783+024583FM-12+001599999V0200201N00311220001CN0500001N9-02281-02501101791ADDAY101999GF102991001001999999041011KA1999N-02501MD1210181+9999MW1031
0057028640999991957031612004+65783+024583FM-12+001599999V0202301N00261220001CN0500001N9-01501-02781101881ADDAY101999GF101991001001999999001011MD1410001+9999MW1021
0089028640999991957031618004+65783+024583FM-12+001599999V0202501N00101220001CN0300001N9-02221-02391101581ADDAY101999GF101991999001999999041001KA1999M-01501MD1710171+9999MW1011EQDQ01+000002SCOTLC
0057028640999991957031700004+65783+024583FM-12+001599999V0209991C00001220001CN0400001N9-02501-02721101281ADDAY111999GF102991001001999999001011MD1710081+9999MW1021
0070028640999991957031706004+65783+024583FM-12+001599999V0209991C00001220001CN0300001N9-02781-03111100981ADDAY101999GF102991001001999999041011KA1999N-02891MD1710161+9999MW1021
0057028640999991957031712004+65783+024583FM-12+001599999V0202001N00211220001CN0200001N9-01391-01721100771ADDAY111999GF107991001001999999071999MD1710151+9999MW1031
0070028640999991957031718004+65783+024583FM-12+001599999V0209991C00001220001CN0200001N9-02001-02111100521ADDAY101999GF102991001001999999041051KA1999M-01221MD1710071+9999MW1021
0057028640999991957031800004+65783+024583FM-12+001599999V0200501N00261220001CN0500001N9-02391-02611100521ADDAY101999GF105991001001999999041051MD1410001+9999MW1031
0070028640999991957031806004+65783+024583FM-12+001599999V0200701N00311220001CN0500001N9-02001-02221100561ADDAY121999GF106991001001999999041071KA1999N-02781MD1210041+9999MW1021
0057028640999991957031812004+65783+024583FM-12+001599999V0200901N00211220001CN0500001N9-01111-01721100741ADDAY111999GF102991001001999999001041MD1210051+9999MW1021
0089028640999991957031818004+65783+024583FM-12+001599999V0200701N00211220001CN0500001N9-01781-02221100891ADDAY101999GF101991999001999999041001KA1999M-01111MD1210091+9999MW1021EQDQ01+000002SCOTLC
0057028640999991957031900004+65783+024583FM-12+001599999V0209991C00001220001CN0500001N9-03001-03281101051ADDAY101999GF100991001001999999001001MD1210061+9999MW1011
0089028640999991957031906004+65783+024583FM-12+001599999V0200201N00051220001CN0400001N9-03001-03281101121ADDAY101999GF102991999001999999041001KA1999N-03391MD1410001+9999MW1021EQDQ01+000002SCOTLC
0057028640999991957031912004+65783+024583FM-12+001599999V0203601N00151220001CN0400001N9-01112-01721101091ADDAY101999GF103991001001999999041011MD1610031+9999MW1031
0089028640999991957031918004+65783+024583FM-12+001599999V0203601N00101220001CN0400001N9-02001-02221101311ADDAY101999GF101991999001999999041001KA1999M-01001MD1210181+9999MW1021EQDQ01+000002SCOTLC
0057028640999991957032000004+65783+024583FM-12+001599999V0209991C00001220001CN0400001N9-03001+99999101481ADDAY101999GF100991001001999999001001MD1210061+9999MW1021
0070028640999991957032006004+65783+024583FM-12+001599999V0209991C00001220001CN0070001N9-02781+99999101491ADDAY101999GF101991001001999999001011KA1999N-03221MD1710011+9999MW1021
0057028640999991957032012004+65783+024583FM-12+001599999V0201801N00211220001CN0150001N9-01501-01891101401ADDAY101999GF100991001001999999001001MD1710081+9999MW1051
0070028640999991957032018004+65783+024583FM-12+001599999V0201801N00211220001CN0200001N9-01721-01781101201ADDAY101999GF100991001001999999001001KA1999M-01501MD1710121+9999MW1021
0057028640999991957032100004+65783+024583FM-12+001599999V0209991C00001220001CN0300001N9-02611-02721100981ADDAY101999GF100991001001999999001001MD1710141+9999MW1021
0070028640999991957032106004+65783+024583FM-12+001599999V0209991C00001000151CN0300001N9-02721-02781100801ADDAY111999GF108991081061000251999999KA1999N-02891MD1010071+9999MW1031
0076028640999991957032112004+65783+024583FM-12+001599999V0201801N00051220001CN0060001N9-01501-01781100651ADDAY111999GF101991999001999999041001MD1710081+9999MW1041EQDQ01+000002SCOTLC
0070028640999991957032118004+65783+024583FM-12+001599999V0209991C00001220001CN0100001N9-02221+99999100521ADDAY101999GF102991001001999999071041KA1999M-01001MD1610031+9999MW1041
0057028640999991957032200004+65783+024583FM-12+001599999V0209991C00001220001CN0500001N9-02721+99999100561ADDAY101999GF100991001001999999001001MD1210041+9999MW1021
0070028640999991957032206004+65783+024583FM-12+001599999V0203601N00151220001CN0300001N9-02611+99999100751ADDAY101999GF100991001001999999001001KA1999N-03001MD1210091+9999MW1011
0057028640999991957032212004+65783+024583FM-12+001599999V0209991C00001220001CN0400001N9-00722-01281101061ADDAY101999GF102991001001999999041011MD1210161+9999MW1031
0070028640999991957032218004+65783+024583FM-12+001599999V0202601N00101220001CN0500001N9-01221-01281101481ADDAY101999GF100991001001999999001001KA1999M-00501MD1210231+9999MW1021
0057028640999991957032300004+65783+024583FM-12+001599999V0209991C00001220001CN0400001N9-02281-02501101911ADDAY101999GF100991001001999999001001MD1210231+9999MW1021
0070028640999991957032306004+65783+024583FM-12+001599999V0209991C00001220001CN0200001N9-02111-02281102351ADDAY121999GF107991001001999999021999KA1999N-02611MD1210111+9999MW1031
0057028640999991957032312004+65783+024583FM-12+001599999V0202501N00261220001CN0200001N9-00721-01221102521ADDAY111999GF101991001001999999001011MD1210081+9999MW1021
0070028640999991957032318004+65783+024583FM-12+001599999V0202501N00101220001CN0300001N9-01221-01501102741ADDAY101999GF102991001001999999041011KA1999M-00611MD1210141+9999MW1011
0089028640999991957032406004+65783+024583FM-12+001599999V0201401N00151220001CN0500001N9-01891-02111103111ADDAY101999GF102991001001999999071011KA1999N+99999MD1110071+9999MW1021EQDQ01 -01392ATMN  
0057028640999991957032412004+65783+024583FM-12+001599999V0201801N00511220001CN0500001N9-00891-01111103141ADDAY101999GF102991001001999999041041MD1010041+9999MW1021
0070028640999991957032418004+65783+024583FM-12+001599999V0202001N00621220001CN0500001N9-00781-01111102891ADDAY111999GF102991001001999999041041KA1999M-00611MD1710091+9999MW1011
0076028640999991957032500004+65783+024583FM-12+001599999V0201801N00411220001CN0400001N9-00891-01001102591ADDAY111999GF102991999001999999071001MD1710171+9999MW1011EQDQ01+000002SCOTLC
0070028640999991957032506004+65783+024583FM-12+001599999V0201801N00621001501CN0150001N9-00781-00891102211ADDAY111999GF107991061071001501021999KA1999N-01001MD1710201+9999MW1031
0057028640999991957032512004+65783+024583FM-12+001599999V0202301N00721001501CN0080001N9-00391-00501102011ADDAY171999GF108991071071001501999999MD1710101+9999MW1361
0081028640999991957032518004+65783+024583FM-12+001599999V0202301N00621030001CN0100001N9-00391-00501101881ADDAA199000691AY131999GF108991031071002501071999KA1999M-00391MD1610061+9999MW1361
0057028640999991957032600004+65783+024583FM-12+001599999V0202001N00671002401CN0150001N9-00281-00391101681ADDAY121999GF107991071071002501999999MD1710161+9999MW1021
0070028640999991957032606004+65783+024583FM-12+001599999V0202001N00461002401CN0150001N9-00221-00281101421ADDAY121999GF108991081051002501999999KA1999N-00501MD1710121+9999MW1021
0057028640999991957032612004+65783+024583FM-12+001599999V0202001N00621001501CN0060001N9-00111-00111101291ADDAY121999GF108991081061001501999999MD1710081+9999MW1761
0070028640999991957032618004+65783+024583FM-12+001599999V0202301N00621002401CN0080001N9+00001-00111101281ADDAY121999GF108991081071002501999999KA1999M+00001MD1310011+9999MW1021
0057028640999991957032700004+65783+024583FM-12+001599999V0202001N00671001501CN0060001N9+00001-00111101261ADDAY121999GF108991081071001501999999MD1710041+9999MW1031
0102028640999991957032706004+65783+024583FM-12+001599999V0202001N00361000151CN0010001N9+00001+00001101191ADDAA199000691AY151999GF108991081061000251999999KA1999N-00111MW1511EQDQ01+000042APCTENQ02+000012APC3  
0057028640999991957032712004+65783+024583FM-12+001599999V0202001N00411000601CN0100001N9+00001-00111101201ADDAY121999GF108991081061000751999999MD1410001+9999MW1021
0070028640999991957032718004+65783+024583FM-12+001599999V0202001N00311030001CN0100001N9+00001+00001101121ADDAY121999GF106991021051008001051999KA1999M+00111MD1610011+9999MW1011
0057028640999991957032800004+65783+024583FM-12+001599999V0202301N00151220001CN0200001N9+00111+00001101091ADDAY121999GF107991001001999999071999MD1310021+9999MW1011
0070028640999991957032806004+65783+024583FM-12+001599999V0203601N00361220001CN0500001N9-00111-00391101581ADDAY141999GF102991001001999999081011KA1999N-00611MD1210321+9999MW1011
0057028640999991957032812004+65783+024583FM-12+001599999V0203601N00311220001CN0500001N9+00221-00611101981ADDAY101999GF102991001001999999041011MD1210191+9999MW1021
0070028640999991957032818004+65783+024583FM-12+001599999V0209991C00001220001CN0500001N9-00281-00721102321ADDAY101999GF102991001001999999041011KA1999M+00221MD1210221+9999MW1011
0057028640999991957032900004+65783+024583FM-12+001599999V0209991C00001220001CN0500001N9-01391-01501102621ADDAY101999GF100991001001999999001001MD1210121+9999MW1021
0070028640999991957032906004+65783+024583FM-12+001599999V0209991C00001220001CN0500001N9-01501-01611102801ADDAY121999GF106991001001999999041071KA1999N-01721MD1210061+9999MW1011
0057028640999991957032912004+65783+024583FM-12+001599999V0202301N00361220001CN0500001N9-00281-00721102691ADDAY111999GF106991001001999999041071MD1710131+9999MW1031
0070028640999991957032918004+65783+024583FM-12+001599999V0202001N00261030001CN0500001N9-00501-00721102301ADDAY121999GF107991011051008001071071KA1999M-00111MD1810141+9999MW1011
0057028640999991957033000004+65783+024583FM-12+001599999V0202301N00151220001CN0500001N9-00501-01501101911ADDAY121999GF107991001001999999071999MD1810081+9999MW1021
0070028640999991957033006004+65783+024583FM-12+001599999V0209991C00001030001CN0060001N9-00391-00611102191ADDAY121999GF107991021051004501071999KA1999N-00781MD1210191+9999MW1041
0057028640999991957033012004+65783+024583FM-12+001599999V0200701N00211030001CN0400001N9+00001-00611102711ADDAY121999GF108991031051008001071999MD1210161+9999MW1031
0089028640999991957033018004+65783+024583FM-12+001599999V0201601N00361220001CN0400001N9-00221-00611102291ADDAY101999GF102991999001999999041001KA1999M+00221MD1710261+9999MW1021EQDQ01+000002SCOTLC
0076028640999991957033100004+65783+024583FM-12+001599999V0202301N00211220001CN0500001N9-00111-00221101611ADDAY101999GF102991999001999999041001MD1710311+9999MW1021EQDQ01+000002SCOTLC
0081028640999991957033106004+65783+024583FM-12+001599999V0202701N00571220001CN0250001N9+00281+00001101211ADDAA199000691AY161999GF107991001001999999071999KA1999N-00281MD1710111+9999MW1011
0057028640999991957033112004+65783+024583FM-12+001599999V0202501N00411030001CN0200001N9+00501+00001101291ADDAY111999GF106991011011008001041081MD1210091+9999MW1031
0070028640999991957033118004+65783+024583FM-12+001599999V0200201N00151220001CN0500001N9+00611-00111101661ADDAY121999GF107991001001999999071021KA1999M+00891MD1210301+9999MW1011
0076028640999991957040100004+65783+024583FM-12+001599999V0200401N00311220001CN0500001N9-00111-00611102291ADDAY101999GF101991999001999999071001MD1210301+9999MW1011EQDQ01+000002SCOTLC
0070028640999991957040106004+65783+024583FM-12+001599999V0201101N00261030001CN0500001N9-00281-00891102461ADDAY111999GF107991031051008001071999KA1999N-00781MD1010021+9999MW1021
0070028640999991957040118004+65783+024583FM-12+001599999V0209991C00001030001CN0150001N9-00111-00221101971ADDAY111999GF108991031051008001071999KA1999M+00111MD1710131+9999MW1031
0057028640999991957040200004+65783+024583FM-12+001599999V0209991C00001004501CN0300001N9-00111-00221101891ADDAY161999GF108991051051004501021999MD1710031+9999MW1021
0102028640999991957040206004+65783+024583FM-12+001599999V0200901N00101030001CN0250001N9+00001-00221101951ADDAA199000691AY121999GF108991031051008001021999KA1999N-00221MW1681EQDQ01+000042APCTENQ02+000012APC3  
0057028640999991957040212004+65783+024583FM-12+001599999V0202001N00051030001CN0400001N9+00281+00111101951ADDAY121999GF108991031051008001021999MD1210021+9999MW1021
0081028640999991957040218004+65783+024583FM-12+001599999V0209991C00001030001CN0150001N9+00001-00111101971ADDAA199000691AY121999GF107991011051004501071071KA1999M+00391MD1010011+9999MW1031
0070028640999991957040306004+65783+024583FM-12+001599999V0201801N00211220001CN0200001N9-00111-00221101751ADDAY121999GF107991001001999999071999KA1999N-00221MD1710071+9999MW1021
0078028640999991957040312004+65783+024583FM-12+001599999V0202301N00211220001CN0200001N9+00391+00001101651ADDAY111999GF102991001001999999041021MW1041EQDQ01+000022APCTENQ02+000002APC3  
0070028640999991957040318004+65783+024583FM-12+001599999V0202501N00261030001CN0150001N9+00221+00111101651ADDAY121999GF107991021051008001071999KA1999M+00501MD1410001+9999MW1041
0076028640999991957040400004+65783+024583FM-12+001599999V0209991C00001220001CN0300001N9-00281-00391101711ADDAY101999GF101991999001999999041001MD1210071+9999MW1021EQDQ01+000002SCOTLC
0070028640999991957040406004+65783+024583FM-12+001599999V0209991C00001220001CN0150001N9-00221-00281101691ADDAY121999GF107991001001999999071999KA1999N-00611MD1710071+9999MW1041
0057028640999991957040412004+65783+024583FM-12+001599999V0202001N00051030001CN0400001N9+00221+00111101361ADDAY121999GF108991041051008001071999MD1710261+9999MW1021
0081028640999991957040418004+65783+024583FM-12+001599999V0202001N00101007801CN0150001N9+00111+00001101001ADDAA199000691AY121999GF108991051051008001071999KA1999M+00281MD1710181+9999MW1031
0076028640999991957040500004+65783+024583FM-12+001599999V0202501N00211220001CN0400001N9+00221+00001100741ADDAY111999GF101991999001999999071001MD1710141+9999MW1011EQDQ01+000002SCOTLC
0070028640999991957040506004+65783+024583FM-12+001599999V0202501N00621030001CN0300001N9+00281+00221100311ADDAY111999GF107991041051004501071999KA1999N+00001MD1710231+9999MW1031
0057028640999991957040512004+65783+024583FM-12+001599999V0202001N00361030001CN0400001N9+00501+00111099921ADDAY121999GF107991031051004501071999MD1710211+9999MW1021
0070028640999991957040518004+65783+024583FM-12+001599999V0202301N00261004501CN0400001N9+00281+00001099481ADDAY111999GF107991061051004501071999KA1999M+00501MD1710251+9999MW1031
0081028640999991957040606004+65783+024583FM-12+001599999V0203201N00361030001CN0400001N9+00221+00001098981ADDAA199000691AY121999GF107991021051008001071999KA1999N-00221MD1110071+9999MW1601
0057028640999991957040612004+65783+024583FM-12+001599999V0203401N00721004501CN0400001N9+00501+00001099521ADDAY161999GF106991051081004501071999MD1210331+9999MW1211
0081028640999991957040618004+65783+024583FM-12+001599999V0203401N00721220001CN0500001N9+00221-00391100241ADDAA199000691AY121999GF102991021081004501001011KA1999M+00501MD1210451+9999MW1011
0057028640999991957040700004+65783+024583FM-12+001599999V0203401N00621220001CN0500001N9-00281-00611101011ADDAY101999GF100991001001999999001001MD1210331+9999MW1021
0070028640999991957040706004+65783+024583FM-12+001599999V0203401N00461220001CN0500001N9-00391-00781101521ADDAY101999GF100991001001999999001001KA1999N-00611MD1210171+9999MW1011
0078028640999991957040712004+65783+024583FM-12+001599999V0203401N00461220001CN0500001N9-00111-01001101691ADDAY101999GF102991001001999999041011MW1031EQDQ01+000022APCTENQ02+000002APC3  
0070028640999991957040718004+65783+024583FM-12+001599999V0202301N00311220001CN0500001N9-00281-00611101321ADDAY121999GF108991001001999999021999KA1999M+00001MD1710271+9999MW1031
0081028640999991957040806004+65783+024583FM-12+001599999V0200501N00411030001CN0500001N9-00501-00781101051ADDAA199000691AY111999GF106991021051004501071071KA1999N-00501MD1210331+9999MW1031
0070028640999991957040818004+65783+024583FM-12+001599999V0203401N00461220001CN0500001N9-00611-01221101391ADDAY111999GF102991011011008001001011KA1999M-00281MD1310031+9999MW1011
0057028640999991957040900004+65783+024583FM-12+001599999V0203201N00511030001CN0500001N9-00611-00891100921ADDAY121999GF108991021051004501021999MD1710351+9999MW1031
0070028640999991957040906004+65783+024583FM-12+001599999V0203601N00461220001CN0500001N9-00221-00611100711ADDAY111999GF103991021081004501061001KA1999N-00721MD1210031+9999MW1021
0057028640999991957040912004+65783+024583FM-12+001599999V0200501N00571220001CN0500001N9-00111-00781100881ADDAY111999GF103991031011008001001001MD1210101+9999MW1021
0070028640999991957040918004+65783+024583FM-12+001599999V0209991C00001220001CN0500001N9-00391-00781100891ADDAY101999GF102991011041008001001051KA1999M-00111MD1710011+9999MW1011
0076028640999991957041000004+65783+024583FM-12+001599999V0209991C00001220001CN0500001N9-01281-01501100751ADDAY101999GF101991999001999999041001MD1710081+9999MW1031EQDQ01+000002SCOTLC
0070028640999991957041006004+65783+024583FM-12+001599999V0200201N00211220001CN0500001N9-01001-01281100611ADDAY111999GF104991001001999999041051KA1999N-01721MD1710061+9999MW1011
0057028640999991957041012004+65783+024583FM-12+001599999V0200201N00411220001CN0500001N9-00281-00891100451ADDAY111999GF104991041011004501001001MD1710091+9999MW1031
0070028640999991957041018004+65783+024583FM-12+001599999V0203601N00151220001CN0500001N9-00391-01001100381ADDAY111999GF102991001001999999041011KA1999M-00221MD1710021+9999MW1011
0076028640999991957041100004+65783+024583FM-12+001599999V0200201N002619999999N0500001N9-00721-01221100351ADDAY111999GF108991999001002501021999MD1710031+9999MW1031EQDQ01+000002SCOTLC
0070028640999991957041106004+65783+024583FM-12+001599999V0203601N00461220001CN0400001N9-00611-01001100381ADDAY121999GF107991001001999999021071KA1999N-00891MD1210031+9999MW1021
0057028640999991957041112004+65783+024583FM-12+001599999V0200301N00571007801CN0500001N9-00221-00781100411ADDAY121999GF107991061081008001001071MD1310031+9999MW1031
0081028640999991957041118004+65783+024583FM-12+001599999V0200501N00511004501CN0400001N9-00281-00781100601ADDAA199000691AY121999GF108991081081004501999999KA1999M-00221MD1210121+9999MW1031
0076028640999991957041200004+65783+024583FM-12+001599999V0200201N00411220001CN0400001N9-00501-00611100821ADDAY111999GF103991999001999999071001MD1210091+9999MW1011EQDQ01+000002SCOTLC
0089028640999991957041206004+65783+024583FM-12+001599999V0200501N00461220001CN0500001N9-00611-00891100951ADDAY121999GF106991999001999999041001KA1999N-00781MD1210031+9999MW1021EQDQ01+000002SCOTLC
0057028640999991957041212004+65783+024583FM-12+001599999V0200501N00671007801CN0500001N9-00221-00611100881ADDAY121999GF107991051081008001071071MD1710051+9999MW1021
0081028640999991957041218004+65783+024583FM-12+001599999V0200401N00621030001CN0300001N9-00281-00721100961ADDAA199000691AY171999GF108991041071004501021999KA1999M-00221MD1210081+9999MW1031
0057028640999991957041300004+65783+024583FM-12+001599999V0200201N00571030001CN0015001N9-00721-00891101041ADDAY171999GF108991031071004501021999MD1210031+9999MW1751
0081028640999991957041306004+65783+024583FM-12+001599999V0200201N00511220001CN0038001N9-00721-00891101141ADDAA199001091AY171999GF108991001001999999021999KA1999N-00781MD1210051+9999MW1731
0057028640999991957041312004+65783+024583FM-12+001599999V0200501N00621030001CN0050001N9-00391-00721101281ADDAY141999GF108991031071004501021999MD1210071+9999MW1711
0081028640999991957041318004+65783+024583FM-12+001599999V0200701N00511030001CN0400001N9-00391-00781101601ADDAA199000591AY171999GF106991031071004501071021KA1999M-00391MD1210181+9999MW1011
0081028640999991957041406004+65783+024583FM-12+001599999V0200501N00511030001CN0150001N9-00781-01111101911ADDAA199000691AY171999GF108991021071004501071071KA1999N-01111MD1210091+9999MW1711
0057028640999991957041412004+65783+024583FM-12+001599999V0200501N00571220001CN0500001N9-00391-00891102001ADDAY101999GF102991011011008001041001MD1210021+9999MW1011
0081028640999991957041418004+65783+024583FM-12+001599999V0200501N00261220001CN0500001N9-00611-01001102061ADDAA199000691AY121999GF102991011041008001041001KA1999M-00281MD1210061+9999MW1011
0076028640999991957041500004+65783+024583FM-12+001599999V0200201N00151220001CN0400001N9-01111-01221102211ADDAY101999GF101991999001999999041001MD1210031+9999MW1021EQDQ01+000002SCOTLC
0070028640999991957041506004+65783+024583FM-12+001599999V0200501N00311220001CN0250001N9-00891-01111102381ADDAY121999GF106991001001999999041051KA1999N-01391MD1210081+9999MW1011
0057028640999991957041512004+65783+024583FM-12+001599999V0209991C00001220001CN0400001N9+00111-00721102371ADDAY111999GF101991001001999999001011MD1710031+9999MW1021
0070028640999991957041518004+65783+024583FM-12+001599999V0202001N00101220001CN0400001N9-00111-00391102291ADDAY101999GF102991001001999999041041KA1999M+00281MD1510021+9999MW1031
0076028640999991957041600004+65783+024583FM-12+001599999V0201101N00261220001CN0500001N9-00611-00891102211ADDAY101999GF101991999001999999041001MD1710041+9999MW1021EQDQ01+000002SCOTLC
0070028640999991957041606004+65783+024583FM-12+001599999V0201401N00261030001CN0500001N9-00501-00781102091ADDAY111999GF106991021081004501071999KA1999N-00781MD1710031+9999MW1031
0057028640999991957041612004+65783+024583FM-12+001599999V0202001N00211220001CN0350001N9-00221-00391102021ADDAY101999GF102991011011008001001021MD1710061+9999MW1011
0089028640999991957041618004+65783+024583FM-12+001599999V0209991C00001220001CN0200001N9-00281-00501101791ADDAY101999GF101991999001999999071001KA1999M-00111MD1710091+9999MW1031EQDQ01+000002SCOTLC
0057028640999991957041700004+65783+024583FM-12+001599999V0209991C00001030001CN0400001N9-00501-00781101651ADDAY121999GF106991021051004501071999MD1710091+9999MW1031
0070028640999991957041706004+65783+024583FM-12+001599999V0202301N00211220001CN0300001N9-00501-00721101721ADDAY111999GF102991001001999999001021KA1999N-00891MD1210081+9999MW1031
0057028640999991957041712004+65783+024583FM-12+001599999V0201801N00511030001CN0250001N9-00221-00281101801ADDAY121999GF108991041051004501071999MD1310021+9999MW1031
0081028640999991957041718004+65783+024583FM-12+001599999V0202001N00511004501CN0080001N9-00111-00111101821ADDAA199000691AY171999GF108991081071004501999999KA1999M+00001MD1310031+9999MW1221
0057028640999991957041800004+65783+024583FM-12+001599999V0201801N00621004501CN0300001N9-00111-00221101971ADDAY121999GF108991081051004501999999MD1210061+9999MW1021
0070028640999991957041806004+65783+024583FM-12+001599999V0201601N00511004501CN0400001N9-00221-00391102201ADDAY121999GF108991081051004501999999KA1999N-00281MD1210111+9999MW1031
0076028640999991957041812004+65783+024583FM-12+001599999V0201601N00361220001CN0500001N9-00111-00221102461ADDAY101999GF102991999001999999041001MD1110021+9999MW1011EQDQ01+000002SCOTLC
0070028640999991957041818004+65783+024583FM-12+001599999V0201801N00411030001CN0400001N9+00111-00111102451ADDAY121999GF107991041051008001071999KA1999M+00221MD1010001+9999MW1031
0076028640999991957041900004+65783+024583FM-12+001599999V0201401N00311220001CN0500001N9-00221-00281102411ADDAY101999GF103991999001999999041001MD1710061+9999MW1031EQDQ01+000002SCOTLC
0070028640999991957041906004+65783+024583FM-12+001599999V0201601N00571220001CN0300001N9+00001-00611102251ADDAY121999GF107991001001999999021071KA1999N-00281MD1710081+9999MW1021
0057028640999991957041912004+65783+024583FM-12+001599999V0201601N00151030001CN0060001N9+00221-00111102021ADDAY121999GF108991031051004501021999MD1710161+9999MW1681
0081028640999991957041918004+65783+024583FM-12+001599999V0201401N00361002401CN0050001N9+00221+00001101801ADDAA199000691AY171999GF108991061071002501021999KA1999M+00281MD1710021+9999MW1681
0057028640999991957042000004+65783+024583FM-12+001599999V0201401N00261007801CN0100001N9+00111+00111101751ADDAY161999GF108991061071008001021999MD1710041+9999MW1601
0081028640999991957042006004+65783+024583FM-12+001599999V0201601N00211004501CN0100001N9+00111+00001101761ADDAA199000391AY171999GF108991081061004501999999KA1999N+00001MD1210031+9999MW1681
0057028640999991957042012004+65783+024583FM-12+001599999V0202001N00101002401CN0060001N9+00221+00001101921ADDAY171999GF107991071081002501999999MD1210051+9999MW1051
0057028640999991957042112004+65783+024583FM-12+001599999V0201601N00361000151CN0011001N9-00111-00111103091ADDAY141999GF108991081061000251999999MD1210111+9999MW1101
0070028640999991957042118004+65783+024583FM-12+001599999V0201801N00101220001CN0200001N9+00001+00001103201ADDAY111999GF100991001001999999001001KA1999M+00111MD1110021+9999MW1021
0057028640999991957042200004+65783+024583FM-12+001599999V0201601N00101220001CN0050001N9-00391-00391103381ADDAY101999GF100991001001999999001001MD1210101+9999MW1021
0070028640999991957042206004+65783+024583FM-12+001599999V0201601N00101000151CN0008001N9-00501-00501103581ADDAY111999GF109991091999000251999999KA1999N-00501MD1210121+9999MW1431
0057028640999991957042212004+65783+024583FM-12+001599999V0202001N00261000601CN0035001N9-00111-00111103761ADDAY121999GF108991081061000751999999MD1110021+9999MW1031
0070028640999991957042218004+65783+024583FM-12+001599999V0201601N00101000151CN0001001N9-00221-00221103811ADDAY141999GF109991091999000251999999KA1999M-00111MD1210061+9999MW1451
0070028640999991957042306004+65783+024583FM-12+001599999V0201801N00151000151CN0004001N9-00221-00221103951ADDAY141999GF109991091999000251999999KA1999N-00391MD1310031+9999MW1451
0070028640999991957042318004+65783+024583FM-12+001599999V0209991C00001220001CN0050001N9-00111-00221103911ADDAY111999GF104991041061001501001001KA1999M+00001MD1710081+9999MW1051
0076028640999991957042400004+65783+024583FM-12+001599999V0201801N00361220001CN0100001N9-00281-00391103861ADDAY101999GF102991999001999999041001MD1710021+9999MW1021EQDQ01+000002SCOTLC
0089028640999991957042406004+65783+024583FM-12+001599999V0201801N00311220001CN0150001N9-00111-00221103711ADDAY101999GF101991999001999999041001KA1999N-00391MD1710041+9999MW1051EQDQ01+000002SCOTLC
0070028640999991957042418004+65783+024583FM-12+001599999V0209991C00001220001CN0400001N9+00221-00111103421ADDAY101999GF101991001001999999001011KA1999M+00281MD1710091+9999MW1021
0057028640999991957042500004+65783+024583FM-12+001599999V0209991C00001220001CN0400001N9-00281-00391103341ADDAY111999GF104991001001999999041051MD1710051+9999MW1031
0070028640999991957042506004+65783+024583FM-12+001599999V0202001N00151220001CN0300001N9+00221-00221103251ADDAY121999GF107991001001999999001071KA1999N-00611MD1710021+9999MW1051
0057028640999991957042512004+65783+024583FM-12+001599999V0202301N00101220001CN0200001N9+00611+00001103321ADDAY101999GF102991001001999999001021MD1210071+9999MW1051
0070028640999991957042518004+65783+024583FM-12+001599999V0203601N00101220001CN0500001N9+00611+00001103441ADDAY111999GF102991011041008001041011KA1999M+01001MD1110051+9999MW1021
0076028640999991957042600004+65783+024583FM-12+001599999V0209991C00001220001CN0500001N9-00391-00391103541ADDAY101999GF101991999001999999041001MD1410001+9999MW1021EQDQ01+000002SCOTLC
0070028640999991957042606004+65783+024583FM-12+001599999V0201401N00101220001CN0250001N9+00111-00391103451ADDAY111999GF105991001001999999001021KA1999N-00721MD1710061+9999MW1051
0057028640999991957042612004+65783+024583FM-12+001599999V0202301N00361220001CN0300001N9+00281-00111103341ADDAY121999GF107991001001999999041071MD1710081+9999MW1021
0070028640999991957042618004+65783+024583FM-12+001599999V0201801N00211220001CN0500001N9+00111-00221103021ADDAY121999GF106991001001999999041051KA1999M+00391MD1710151+9999MW1021
0057028640999991957042700004+65783+024583FM-12+001599999V0201801N00211220001CN0500001N9-00111-00281102711ADDAY121999GF106991001001999999041081MD1710141+9999MW1021
0070028640999991957042706004+65783+024583FM-12+001599999V0201801N00311220001CN0500001N9+00001-00111102391ADDAY121999GF107991001001999999051071KA1999N-00221MD1710151+9999MW1021
0057028640999991957042712004+65783+024583FM-12+001599999V0202001N00411220001CN0500001N9+00281+00001102121ADDAY101999GF102991001001999999041011MD1710161+9999MW1011
0070028640999991957042718004+65783+024583FM-12+001599999V0201801N00211220001CN0400001N9+00221+00001101741ADDAY121999GF107991001001999999071999KA1999M+00281MD1710201+9999MW1031
0057028640999991957042800004+65783+024583FM-12+001599999V0201601N00101220001CN0400001N9-00221-00281101401ADDAY111999GF102991021051008001001001MD1710191+9999MW1011
0070028640999991957042806004+65783+024583FM-12+001599999V0201801N00261220001CN0500001N9+00001-00221101061ADDAY111999GF103991021051008001041041KA1999N-00391MD1710221+9999MW1031
0057028640999991957042812004+65783+024583FM-12+001599999V0202001N00461220001CN0500001N9+00391-00111100811ADDAY111999GF103991001001999999041011MD1710161+9999MW1031
0070028640999991957042818004+65783+024583FM-12+001599999V0202701N00361220001CN0500001N9+00501+00001100821ADDAY101999GF104991011041008001041041KA1999M+00501MD1310081+9999MW1011
0057028640999991957042900004+65783+024583FM-12+001599999V0209991C00001220001CN0500001N9-00111-00391101111ADDAY101999GF105991001001999999001061MD1210121+9999MW1031
0070028640999991957042906004+65783+024583FM-12+001599999V0209991C00001220001CN0300001N9+00111-00281101171ADDAY111999GF106991001001999999041071KA1999N-00501MD1010001+9999MW1041
0057028640999991957042912004+65783+024583FM-12+001599999V0202001N00361220001CN0500001N9+00501-00391101051ADDAY111999GF107991001001999999051071MD1710081+9999MW1031
0070028640999991957042918004+65783+024583FM-12+001599999V0209991C00001030001CN0500001N9+00501-00281100721ADDAY121999GF107991031051004501071999KA1999M+00611MD1710201+9999MW1031
0057028640999991957043000004+65783+024583FM-12+001599999V0209991C00001004501CN0200001N9+00221+00111100091ADDAY121999GF108991051071004501021999MD1710351+9999MW1611
0081028640999991957043006004+65783+024583FM-12+001599999V0203401N00211001501CN0100001N9+00221+00221099881ADDAA199004091AY161999GF108991081071001501999999KA1999N+00111MD1710031+9999MW1601
0057028640999991957043012004+65783+024583FM-12+001599999V0203401N00461001501CN0200001N9+00391+00111100101ADDAY181999GF107991071081001501999999MD1210151+9999MW1801
0081028640999991957043018004+65783+024583FM-12+001599999V0203401N00261004501CN0500001N9+00221-00221100521ADDAA199000691AY181999GF106991061081004501999999KA1999M+00501MD1210191+9999MW1031
0057028640999991957050112004+65783+024583FM-12+001599999V0203601N00511220001CN0500001N9+00501-00611100741ADDAY101999GF102991011011012501001011MD1610021+9999MW1031
0107028640999991957050118004+65783+024583FM-12+001599999V0203601N00151220001CN0500001N9+00501-00391100721ADDAY101999GF102991999001999999041001KA1999M+00611MW1011EQDQ01+000002SCOTLCQ02+000042APCTENQ03+000012APC3  
0076028640999991957050200004+65783+024583FM-12+001599999V0209991C00001220001CN0400001N9+00391-00501100581ADDAY101999GF102991999001999999041001MD1710141+9999MW1021EQDQ01+000002SCOTLC
0089028640999991957050206004+65783+024583FM-12+001599999V0201801N00461220001CN0500001N9+00001-00111100151ADDAY121999GF108991001001999999021999KA1999N+99999MD1710211+9999MW1031EQDQ01 +00502ATMN  
0057028640999991957050212004+65783+024583FM-12+001599999V0202001N00461030001CN0500001N9+00281+00001099971ADDAY121999GF107991021081004501071071MD1710071+9999MW1031
0081028640999991957050218004+65783+024583FM-12+001599999V0202501N00511030001CN0500001N9+00221-00221099801ADDAA199000691AY181999GF107991041081008001061041KA1999M+00281MD1710051+9999MW1011
0057028640999991957050300004+65783+024583FM-12+001599999V0202301N00511007801CN0500001N9+00111-00281099711ADDAY121999GF106991061041008001999999MD1710081+9999MW1031
0057028640999991957050312004+65783+024583FM-12+001599999V0202301N00671220001CN0500001N9+00221-00281099981ADDAY101999GF102991021081008001041001MD1210231+9999MW1021
0070028640999991957050318004+65783+024583FM-12+001599999V0202001N00721075001CN0500001N9+00111-00111100341ADDAY121999GF107991011041008001001071KA1999M+00281MD1210191+9999MW1011
0070028640999991957050406004+65783+024583FM-12+001599999V0200401N00411220001CN0400001N9+00221-00221100381ADDAY121999GF108991001001999999021999KA1999N-00391MD1710051+9999MW1021
0057028640999991957050412004+65783+024583FM-12+001599999V0200501N00671001501CN0015001N9+00001+00001100161ADDAY171999GF108991081071001501999999MD1710171+9999MW1691
0081028640999991957050418004+65783+024583FM-12+001599999V0200401N00461001501CN0014001N9+00001+00001099921ADDAA199006091AY171999GF108991081071001501999999KA1999M+00281MD1710131+9999MW1691
0057028640999991957050500004+65783+024583FM-12+001599999V0200401N00461002401CN0100001N9+00111+00111099811ADDAY171999GF108991051071002501021999MD1710061+9999MW1611
0081028640999991957050506004+65783+024583FM-12+001599999V0200501N00571001501CN0200001N9+00221+00111099641ADDAA199006091AY161999GF108991081071001501999999KA1999N+00001MD1710061+9999MW1211
0057028640999991957050512004+65783+024583FM-12+001599999V0200401N00261001501CN0007001N9+00111+00001099641ADDAY171999GF108991081071001501999999MD1310031+9999MW1691
0081028640999991957050518004+65783+024583FM-12+001599999V0200501N00211002401CN0200001N9+00221+00111099711ADDAA199010091AY121999GF107991071081002501999999KA1999M+00221MD1210091+9999MW1011
0057028640999991957050600004+65783+024583FM-12+001599999V0200501N00261002401CN0200001N9+00111-00111099921ADDAY121999GF108991051071002501021999MD1210111+9999MW1601
0081028640999991957050606004+65783+024583FM-12+001599999V0200501N00361001501CN0030001N9+00111+00001100151ADDAA199002091AY171999GF108991081071001501999999KA1999N+00001MD1210101+9999MW1681
0057028640999991957050612004+65783+024583FM-12+001599999V0200201N00361000601CN0050001N9+00221+00111100451ADDAY171999GF108991081071000751999999MD1210141+9999MW1681
0081028640999991957050618004+65783+024583FM-12+001599999V0209991C00001000601CN0060001N9+00111+00111100641ADDAA199004091AY161999GF108991081071000751999999KA1999M+00221MD1210111+9999MW1681
0057028640999991957050700004+65783+024583FM-12+001599999V0200201N00151001501CN0100001N9+00111+00111100991ADDAY171999GF108991081071001501999999MD1210171+9999MW1601
0081028640999991957050706004+65783+024583FM-12+001599999V0200201N00311002401CN0050001N9+00001-00111101411ADDAA199001091AY171999GF108991081071002501999999KA1999N-00111MD1210241+9999MW1681
0057028640999991957050712004+65783+024583FM-12+001599999V0200501N00151001501CN0200001N9+00221-00111101911ADDAY171999GF108991081071001501999999MD1210231+9999MW1231
0081028640999991957050718004+65783+024583FM-12+001599999V0200501N00101004501CN0500001N9+00281+00111102151ADDAA199000691AY121999GF107991071081004501999999KA1999M+00391MD1210101+9999MW1021
0057028640999991957050800004+65783+024583FM-12+001599999V0200501N00211007801CN0500001N9+00221-00111102381ADDAY121999GF106991061051008001999999MD1210101+9999MW1011
0081028640999991957050806004+65783+024583FM-12+001599999V0200701N00411030001CN0200001N9+00221+00111102381ADDAA199001091AY171999GF108991041071004501021999KA1999N+00001MD1210021+9999MW1601
0057028640999991957050812004+65783+024583FM-12+001599999V0200701N00671220001CN0500001N9+00781+00001102211ADDAY111999GF105991001001999999041071MD1710071+9999MW1011
0081028640999991957050906004+65783+024583FM-12+001599999V0200701N00671004501CN0050001N9+00391+00281101361ADDAA199007091AY191999GF108991081071004501999999KA1999N+00281MD1710121+9999MW1631
0057028640999991957050912004+65783+024583FM-12+001599999V0200901N00621004501CN0200001N9+00611+00501101261ADDAY121999GF108991081071004501999999MD1610041+9999MW1021
0057028640999991957051000004+65783+024583FM-12+001599999V0201801N00151000601CN0050001N9+00221+00221102121ADDAY121999GF108991081071000751999999MD1210221+9999MW1021
0081028640999991957051006004+65783+024583FM-12+001599999V0201801N00361000601CN0030001N9+00221+00221102421ADDAA199000391AY151999GF108991081061000751999999KA1999N+00111MD1210171+9999MW1201
0057028640999991957051012004+65783+024583FM-12+001599999V0209991C00001001501CN0070001N9+00501+00391102561ADDAY121999GF108991081071001501999999MD1110011+9999MW1021
0057028640999991957051100004+65783+024583FM-12+001599999V0200201N00361000151CN0005001N9+00281+00281102461ADDAY121999GF109991091999000251999999MD1710031+9999MW1451
0081028640999991957051106004+65783+024583FM-12+001599999V0200201N00261000601CN0040001N9+00501+00501102261ADDAA199000691AY141999GF108991081061000751999999KA1999N+00221MD1610011+9999MW1021
0057028640999991957051112004+65783+024583FM-12+001599999V0200701N00311030001CN0500001N9+00891+00611102141ADDAY121999GF107991021051008001071999MD1610081+9999MW1011
0081028640999991957051118004+65783+024583FM-12+001599999V0200501N00211000601CN0030001N9+00721+00721102021ADDAA199002091AY151999GF108991081061000751999999KA1999M+01001MD1810091+9999MW1121
0057028640999991957051200004+65783+024583FM-12+001599999V0209991C00001000151CN0001001N9+00721+00721101971ADDAY141999GF109991091999000251999999MD1710071+9999MW1471
0081028640999991957051206004+65783+024583FM-12+001599999V0200501N00211220001CN0004001N9+00781+00781101711ADDAA199000591AY141999GF107991001001999999071999KA1999N+00501MD1710171+9999MW1421
0057028640999991957051212004+65783+024583FM-12+001599999V0200201N00311220001CN0300001N9+01501+01111101381ADDAY111999GF106991001001999999061071MD1710211+9999MW1011
0081028640999991957051218004+65783+024583FM-12+001599999V0200201N00211030001CN0050001N9+01001+01001101091ADDAA199000591AY181999GF107991021081008001081999KA1999M+01611MD1710161+9999MW1411
0057028640999991957051300004+65783+024583FM-12+001599999V0201801N00211001501CN0100001N9+00501+00501101081ADDAY121999GF108991081071001501999999MD1210061+9999MW1021
0070028640999991957051306004+65783+024583FM-12+001599999V0202001N00361000601CN0017001N9+00281+00281101081ADDAY141999GF108991081061000751999999KA1999N+00111MD1410001+9999MW1101
0070028640999991957051318004+65783+024583FM-12+001599999V0201601N00211000151CN0003001N9+00221+00221101201ADDAY141999GF109991091999000251999999KA1999M+00501MD1610051+9999MW1451
0081028640999991957051406004+65783+024583FM-12+001599999V0201401N00211001501CN0050001N9+00281+00281101241ADDAA199000391AY121999GF107991071071001501999999KA1999N+00001MD1210021+9999MW1601
0057028640999991957051412004+65783+024583FM-12+001599999V0209991C00001002401CN0100001N9+00721+00501101341ADDAY161999GF107991051081002501061999MD1710011+9999MW1051
0081028640999991957051418004+65783+024583FM-12+001599999V0202001N00261012301CN0300001N9+00891+00501101081ADDAA199001091AY181999GF107991061091012501061999KA1999M+01001MD1710101+9999MW1031
0057028640999991957051500004+65783+024583FM-12+001599999V0209991C00001007801CN0200001N9+00391+00281100881ADDAY121999GF107991051051008001071999MD1710041+9999MW1021
0081028640999991957051506004+65783+024583FM-12+001599999V0209991C00001015001CN0010001N9+00501+00501100721ADDAA199002091AY161999GF108991061001017501001999KA1999N+00281MD1710051+9999MW1461
0057028640999991957051512004+65783+024583FM-12+001599999V0203601N00511002401CN0200001N9+00391+00221100861ADDAY161999GF108991081051002501999999MD1210131+9999MW1021
0081028640999991957051518004+65783+024583FM-12+001599999V0203601N00511002401CN0300001N9+00391+00111101211ADDAA199000391AY121999GF107991061091002501061999KA1999M+00611MD1210141+9999MW1251
0057028640999991957051600004+65783+024583FM-12+001599999V0203401N00151220001CN0500001N9+00111-00111101541ADDAY131999GF103991021051004501041011MD1210201+9999MW1011
0081028640999991957051606004+65783+024583FM-12+001599999V0200201N00261220001CN0500001N9+00391-00281101951ADDAA199000691AY101999GF101991011011008001071001KA1999N-00111MD1210161+9999MW1031
0057028640999991957051612004+65783+024583FM-12+001599999V0202301N00361030001CN0500001N9+00611-00221102051ADDAY111999GF105991011011008001071051MD1210061+9999MW1031
0070028640999991957051618004+65783+024583FM-12+001599999V0209991C00001030001CN0150001N9+00281-00221101921ADDAY121999GF108991021051008001021999KA1999M+00721MD1710091+9999MW1601
0057028640999991957051700004+65783+024583FM-12+001599999V0201101N00261004501CN0150001N9+00391+00281101461ADDAY161999GF108991061071004501021999MD1710251+9999MW1631
0081028640999991957051706004+65783+024583FM-12+001599999V0201801N00311000601CN0025001N9+00281+00281101031ADDAA199008091AY161999GF108991081071000751999999KA1999N+00281MD1710171+9999MW1051
0057028640999991957051712004+65783+024583FM-12+001599999V0201801N00411030001CN0100001N9+00501+00281100611ADDAY121999GF107991021051008001071999MD1710211+9999MW1051
0081028640999991957051718004+65783+024583FM-12+001599999V0202301N00311030001CN0100001N9+00391+00281100181ADDAA199000591AY121999GF108991041051004501071999KA1999M+00611MD1710221+9999MW1021
0057028640999991957051800004+65783+024583FM-12+001599999V0202701N00101000151CN0002001N9+00111+00111100151ADDAY141999GF109991091999000251999999MD1710071+9999MW1451
0070028640999991957051806004+65783+024583FM-12+001599999V0202701N00101030001CN0500001N9+00391+00281100611ADDAY111999GF105991041011004501061021KA1999N+00001MD1210141+9999MW1031
0057028640999991957051812004+65783+024583FM-12+001599999V0202001N00261030001CN0500001N9+00781+00281100801ADDAY111999GF107991021021008001081081MD1210081+9999MW1021
0081028640999991957051818004+65783+024583FM-12+001599999V0203601N00101004501CN0040001N9+00501+00501100621ADDAA199003091AY161999GF108991051051004501021999KA1999M+00781MD1710091+9999MW1611
0076028640999991957051900004+65783+024583FM-12+001599999V0209991C00001220001CN0100001N9+00111+00111100911ADDAY111999GF102991999001999999071001MD1210231+9999MW1111EQDQ01+000002SCOTLC
0081028640999991957051906004+65783+024583FM-12+001599999V0202501N00311220001CN0500001N9+00501+00111101341ADDAA199000591AY111999GF103991011011004501001041KA1999N+00001MD1210241+9999MW1011
0070028640999991957051918004+65783+024583FM-12+001599999V0201601N00101220001CN0500001N9+00501-00221101581ADDAY121999GF107991001001999999071999KA1999M+00891MD1210151+9999MW1021
0081028640999991957052006004+65783+024583FM-12+001599999V0201801N00621220001CN0500001N9+00891+00391100991ADDAA199000391AY111999GF104991021081008001041011KA1999N+00501MD1710121+9999MW1011
0081028640999991957052018004+65783+024583FM-12+001599999V0201601N00211030001CN0050001N9+00501+00391100581ADDAA199003091AY181999GF108991041081004501071999KA1999M+01391MD1710031+9999MW1611
0057028640999991957052100004+65783+024583FM-12+001599999V0202301N00151000151CN0000001N9+00221+00221100651ADDAY141999GF109991091999000251999999MD1210041+9999MW1471
0081028640999991957052106004+65783+024583FM-12+001599999V0202501N00361220001CN0500001N9+00501+00281100891ADDAA199000691AY141999GF101991011011008001041001KA1999N+00001MD1210111+9999MW1031
0070028640999991957052118004+65783+024583FM-12+001599999V0200201N00311030001CN0500001N9+01111+00281101591ADDAY111999GF106991021031012501051051KA1999M+01281MD1210221+9999MW1021
0070028640999991957052206004+65783+024583FM-12+001599999V0203601N00361220001CN0500001N9+00781+00111102421ADDAY111999GF104991021051008001041051KA1999N-00221MD1210171+9999MW1031
0057028640999991957052212004+65783+024583FM-12+001599999V0203401N00361012301CN0500001N9+01111-00111102541ADDAY111999GF106991051011012501001041MD1210021+9999MW1011
0070028640999991957052218004+65783+024583FM-12+001599999V0209991C00001012301CN0500001N9+01001-00281102511ADDAY121999GF106991061041012501041999KA1999M+01221MD1310011+9999MW1031
0057028640999991957052300004+65783+024583FM-12+001599999V0209991C00001030001CN0500001N9+00781-00221102481ADDAY111999GF106991041051008001071999MD1710031+9999MW1031
0070028640999991957052306004+65783+024583FM-12+001599999V0203401N00621220001CN0500001N9+00501-00781102611ADDAY111999GF101991011011012501001001KA1999N+00111MD1210181+9999MW1021
0057028640999991957052312004+65783+024583FM-12+001599999V0203601N00571220001CN0500001N9+00891-00721102801ADDAY111999GF103991031011017501001001MD1210081+9999MW1011
0070028640999991957052318004+65783+024583FM-12+001599999V0203601N00361012301CN0500001N9+00611-00281102921ADDAY111999GF105991051081012501061001KA1999M+01001MD1210051+9999MW1141
0057028640999991957052400004+65783+024583FM-12+001599999V0203401N00311007801CN0500001N9+00391-00221103051ADDAY111999GF108991081081008001999999MD1210061+9999MW1031
0070028640999991957052406004+65783+024583FM-12+001599999V0203601N00571007801CN0500001N9+00391-00281103241ADDAY121999GF108991081081008001999999KA1999N+00221MD1210111+9999MW1031
0078028640999991957052412004+65783+024583FM-12+001599999V0203601N00621007801CN0500001N9+00611-00501103361ADDAY111999GF105991051011008001001001MW1011EQDQ01+000042APCTENQ02+000012APC3  
0070028640999991957052418004+65783+024583FM-12+001599999V0203601N00511012301CN0500001N9+00781-00391103281ADDAY121999GF105991051081012501001001KA1999M+01001MD1410001+9999MW1011
0057028640999991957052500004+65783+024583FM-12+001599999V0203601N00311220001CN0500001N9+00281-00281103191ADDAY111999GF102991021081008001001001MD1210071+9999MW1011
0070028640999991957052506004+65783+024583FM-12+001599999V0203601N00361030001CN0500001N9+00391-00281103511ADDAY121999GF107991041051008001071999KA1999N+00111MD1310021+9999MW1031
0078028640999991957052512004+65783+024583FM-12+001599999V0203601N00511007801CN0500001N9+00611-00281103511ADDAY121999GF108991081081008001999999MW1031EQDQ01+000022APCTENQ02+000002APC3  
0070028640999991957052518004+65783+024583FM-12+001599999V0203601N00361012301CN0500001N9+00721-00281103461ADDAY121999GF107991071081012501999999KA1999M+00721MD1210021+9999MW1021
0057028640999991957052600004+65783+024583FM-12+001599999V0203601N00101012301CN0500001N9+00391+00111103581ADDAY121999GF107991071081012501999999MD1210081+9999MW1021
0070028640999991957052606004+65783+024583FM-12+001599999V0203601N00261030001CN0500001N9+00611-00391103601ADDAY111999GF105991031081012501061999KA1999N+00221MD1810021+9999MW1021
0057028640999991957052612004+65783+024583FM-12+001599999V0202701N00311012301CN0500001N9+00891-00111103451ADDAY111999GF105991051011012501001001MD1710081+9999MW1011
0070028640999991957052618004+65783+024583FM-12+001599999V0202301N00311220001CN0500001N9+00501+00111103361ADDAY111999GF101991011041012501041001KA1999M+01001MD1710061+9999MW1011
0057028640999991957052700004+65783+024583FM-12+001599999V0202501N00151220001CN0500001N9+00281+00001103381ADDAY101999GF101991001001999999001041MD1810011+9999MW1011
0070028640999991957052706004+65783+024583FM-12+001599999V0202001N00311220001CN0500001N9+00501-00111103191ADDAY101999GF102991001001999999001041KA1999N+00221MD1710091+9999MW1011
0057028640999991957052712004+65783+024583FM-12+001599999V0202301N00511220001CN0200001N9+00721-00111102861ADDAY101999GF102991001001999999041011MD1710201+9999MW1041
0070028640999991957052718004+65783+024583FM-12+001599999V0201801N00311220001CN0500001N9+00611-00111102411ADDAY101999GF107991001001999999071999KA1999M+00781MD1710261+9999MW1031
0057028640999991957052800004+65783+024583FM-12+001599999V0202001N00361030001CN0300001N9+00501+00111102111ADDAY121999GF108991031051008001021999MD1710201+9999MW1031
0081028640999991957052806004+65783+024583FM-12+001599999V0202001N00211000601CN0060001N9+00391+00391101921ADDAA199002091AY161999GF108991061071000751021999KA1999N+00281MD1710071+9999MW1611
0043028640999991957052812004+65783+024583FM-12+001599999V0202301N001519999999N0050001N9+00721+00501101881ADDAY121999GF108991999999999999999999MW1041
0070028640999991957052818004+65783+024583FM-12+001599999V0201801N00261030001CN0150001N9+00611+00501101741ADDAY121999GF107991021051004501071999KA1999M+00891MD1710071+9999MW1041
0057028640999991957052900004+65783+024583FM-12+001599999V0201601N00151030001CN0200001N9+00391+00281101581ADDAY121999GF107991021051008001071999MD1710111+9999MW1011
0076028640999991957052906004+65783+024583FM-12+001599999V0202301N00261220001CN0500001N9+00781+00221101281ADDAY141999GF103991999001999999071001MD1710091+9999MW1031EQDQ01+000002SCOTLC
0057028640999991957052912004+65783+024583FM-12+001599999V0202001N00311007801CN0300001N9+01001+00501101141ADDAY121999GF107991061091008001061999MD1610071+9999MW1801
0081028640999991957052918004+65783+024583FM-12+001599999V0203401N00211007801CN0300001N9+01221+00391100951ADDAA199002091AY121999GF107991061081008001061999KA1999M+01221MD1710041+9999MW1031
0057028640999991957053000004+65783+024583FM-12+001599999V0209991C00001012301CN0400001N9+00611+00111101021ADDAY121999GF107991071081012501999999MD1710051+9999MW1021
0056028640999991957053006004+65783+024583FM-12+001599999V0203601N00411030001CN9999999N9+00781-00111101081ADDGF106991021011008001071001KA1999N+00501MD1410001+9999
0043028640999991957053012004+65783+024583FM-12+001599999V0203401N00361012301CN0500001N9+00111-00221101181ADDAY121999GF107991071081012501999999MW1021
0070028640999991957053018004+65783+024583FM-12+001599999V0202501N00211075001CN0500001N9+00221-00111100951ADDAY111999GF105991021081012501041011KA1999M+01111MD1710041+9999MW1011
0081028640999991957053106004+65783+024583FM-12+001599999V0201601N00411004501CN0060001N9+00391+00281100391ADDAA199001091AY121999GF108991051071004501021999KA1999N+00001MD1710191+9999MW1631
0081028640999991957053118004+65783+024583FM-12+001599999V0201801N00101007801CN0400001N9+00721+00501099801ADDAA199002091AY121999GF107991051091008001061999KA1999M+01001MD1710171+9999MW1251
0057028640999991957060100004+65783+024583FM-12+001599999V0209991C00001000151CN0004001N9+00391+00391099541ADDAY121999GF109991091999000251999999MD1710151+9999MW1471
0081028640999991957060106004+65783+024583FM-12+001599999V0203401N00211000151CN0040001N9+00501+00391099391ADDAA199000391AY141999GF108991081061000251999999KA1999N+00221MD1410001+9999MW1021
0057028640999991957060112004+65783+024583FM-12+001599999V0200201N00151007801CN0500001N9+01111+00281099291ADDAY111999GF106991051081008001061051MD1710041+9999MW1031
0081028640999991957060118004+65783+024583FM-12+001599999V0203201N00211004501CN0500001N9+00891+00611099391ADDAA199002091AY181999GF107991061091004501061021KA1999M+01221MD1310011+9999MW1031
0057028640999991957060200004+65783+024583FM-12+001599999V0203401N00261004501CN0500001N9+00611+00611099661ADDAY121999GF107991061081004501061999MD1210141+9999MW1011
0081028640999991957060206004+65783+024583FM-12+001599999V0203601N00461004501CN0500001N9+00781+00501100161ADDAA199000691AY111999GF107991071081004501999999KA1999N+00611MD1210241+9999MW1031
0057028640999991957060212004+65783+024583FM-12+001599999V0203201N00211012301CN0400001N9+01111+00221100481ADDAY121999GF107991061091012501061999MD1210121+9999MW1801
0081028640999991957060218004+65783+024583FM-12+001599999V0202501N00211012301CN0500001N9+00891+00281100601ADDAA199000391AY121999GF107991071081012501999999KA1999M+01281MD1210071+9999MW1031
0057028640999991957060300004+65783+024583FM-12+001599999V0201401N00101030001CN0500001N9+00501+00221100561ADDAY121999GF107991041051008001021999MD1710071+9999MW1011
0081028640999991957060306004+65783+024583FM-12+001599999V0201801N00101001501CN0080001N9+00501+00391100181ADDAA199003091AY161999GF108991061071001501021999KA1999N+00501MD1710161+9999MW1631
0057028640999991957060312004+65783+024583FM-12+001599999V0202901N00311004501CN0400001N9+01001+00501099811ADDAY121999GF107991061091004501061999MD1310051+9999MW1801
0081028640999991957060318004+65783+024583FM-12+001599999V0202701N00211220001CN0500001N9+01001+00501100011ADDAA199002091AY111999GF104991031091008001061001KA1999M+01221MD1210171+9999MW1021
0070028640999991957060406004+65783+024583FM-12+001599999V0203601N00311007801CN0500001N9+00781+00391100401ADDAY111999GF107991061081008001071999KA1999N+00391MD1110041+9999MW1031
0057028640999991957060412004+65783+024583FM-12+001599999V0203401N00361001501CN0050001N9+00501+00391100561ADDAY181999GF108991081071001501999999MD1210121+9999MW1631
0081028640999991957060418004+65783+024583FM-12+001599999V0200501N00211007801CN0400001N9+00721+00391100641ADDAA199011091AY181999GF107991061091008001061999KA1999M+01001MD1210061+9999MW1801
0057028640999991957060500004+65783+024583FM-12+001599999V0209991C00001030001CN0500001N9+00501+00391100661ADDAY121999GF107991041081008001071999MD1210031+9999MW1021
0081028640999991957060506004+65783+024583FM-12+001599999V0209991C00001220001CN0500001N9+00721+00391100741ADDAA199000691AY111999GF104991041081008001041001KA1999N+00391MD1110011+9999MW1011
0089028640999991957060518004+65783+024583FM-12+001599999V0202501N00211220001CN0500001N9+01111+00221100711ADDAY111999GF102991021021012501001011KA1999M+99999MD1710031+9999MW1021EQDQ01 +00722ATMX  
0057028640999991957060600004+65783+024583FM-12+001599999V0200201N00211220001CN0500001N9+00221+00001100621ADDAY101999GF102991011081008001001041MD1710091+9999MW1031
0070028640999991957060606004+65783+024583FM-12+001599999V0200901N00361220001CN0500001N9+01221+00391100421ADDAY121999GF106991001001999999041061KA1999N+00111MD1710111+9999MW1031
0057028640999991957060612004+65783+024583FM-12+001599999V0201101N00571075001CN0500001N9+01611+00221100201ADDAY121999GF107991031011012501001071MD1710141+9999MW1021
0070028640999991957060618004+65783+024583FM-12+001599999V0201101N00361030001CN0500001N9+01391+00221100041ADDAY121999GF108991031081012501011071KA1999M+01721MD1710031+9999MW1021
0070028640999991957060706004+65783+024583FM-12+001599999V0200501N00261004501CN0500001N9+00891+00221099661ADDAY121999GF108991051081004501999999KA1999N+00611MD1710111+9999MW1031
0057028640999991957060712004+65783+024583FM-12+001599999V0200501N00311004501CN0300001N9+00891+00611099551ADDAY161999GF108991071071004501021999MD1710091+9999MW1211
0070028640999991957060718004+65783+024583FM-12+001599999V0202301N00151030001CN0150001N9+00781+00721099541ADDAY161999GF108991041071004501071999KA1999M+00891MD1310011+9999MW1611
0057028640999991957060800004+65783+024583FM-12+001599999V0202901N00151030001CN0070001N9+00721+00721099601ADDAY121999GF108991031071004501021999MD1210061+9999MW1581
0081028640999991957060806004+65783+024583FM-12+001599999V0202701N00211030001CN0400001N9+00781+00611099841ADDAA199001091AY161999GF107991041081004501071999KA1999N+00611MD1210151+9999MW1031
0057028640999991957060812004+65783+024583FM-12+001599999V0202501N00311004501CN0500001N9+01001+00391100241ADDAY161999GF107991051091004501071041MD1210181+9999MW1031
0081028640999991957060818004+65783+024583FM-12+001599999V0202001N00211030001CN0500001N9+00891+00721100611ADDAA199000391AY111999GF106991021081004501041051KA1999M+01221MD1210151+9999MW1031
0057028640999991957060900004+65783+024583FM-12+001599999V0201601N00211220001CN0400001N9+00501+00501100881ADDAY111999GF104991001001999999071021MD1210141+9999MW1111
0081028640999991957060906004+65783+024583FM-12+001599999V0201601N00261007801CN0400001N9+00891+00391101081ADDAA199000691AY121999GF107991071081008001999999KA1999N+00391MD1210101+9999MW1021
0057028640999991957060912004+65783+024583FM-12+001599999V0202301N00461220001CN0500001N9+01111+00721101321ADDAY111999GF102991011999012501041021MD1210061+9999MW1011
0070028640999991957060918004+65783+024583FM-12+001599999V0202001N00571220001CN0500001N9+01001+00501101421ADDAY101999GF102991011021012501001051KA1999M+01221MD1110031+9999MW1021
0057028640999991957061000004+65783+024583FM-12+001599999V0201801N00411220001CN0500001N9+00891+00391101481ADDAY111999GF107991001001999999071071MD1410001+9999MW1031
0081028640999991957061006004+65783+024583FM-12+001599999V0201101N00511030001CN0200001N9+00891+00781101091ADDAA199007091AY161999GF108991021051008001071999KA1999N+00721MD1710261+9999MW1011
0057028640999991957061012004+65783+024583FM-12+001599999V0202001N00211004501CN0040001N9+01221+01111100861ADDAY121999GF108991061071004501021999MD1610091+9999MW1651
0081028640999991957061018004+65783+024583FM-12+001599999V0202701N00151000601CN0040001N9+01001+00891100851ADDAA199015091AY121999GF108991071071000751021999KA1999M+01391MD1210131+9999MW1021
0057028640999991957061100004+65783+024583FM-12+001599999V0202701N00101220001CN0400001N9+00781+00781101541ADDAY111999GF100991001001999999001001MD1210291+9999MW1111
0070028640999991957061106004+65783+024583FM-12+001599999V0201801N00211220001CN0500001N9+01281+00891101991ADDAY111999GF106991001001999999001071KA1999N+00721MD1210221+9999MW1031
0057028640999991957061112004+65783+024583FM-12+001599999V0201801N00361220001CN0500001N9+01611+00781102191ADDAY101999GF102991011011012501001051MD1210071+9999MW1011
0070028640999991957061118004+65783+024583FM-12+001599999V0209991C00001220001CN0500001N9+01891+01221102011ADDAY111999GF103991011041012501001051KA1999M+02001MD1710061+9999MW1011
0070028640999991957061206004+65783+024583FM-12+001599999V0201601N00311004501CN0400001N9+01501+01221101691ADDAY121999GF108991081051004501999999KA1999N+00891MD1710171+9999MW1031
0057028640999991957061212004+65783+024583FM-12+001599999V0201501N00261030001CN0150001N9+02001+01501101341ADDAY111999GF107991041081008001071011MD1710241+9999MW1051
0057028640999991957061300004+65783+024583FM-12+001599999V0202501N00311001501CN0500001N9+01281+01281101771ADDAY161999GF108991081061001501999999MD1810051+9999MW1011
0081028640999991957061306004+65783+024583FM-12+001599999V0203401N00721030001CN0500001N9+01111+00781101421ADDAA199011091AY111999GF106991021011008001041001KA1999N+01001MD1810451+9999MW1021
0057028640999991957061312004+65783+024583FM-12+001599999V0203601N01081220001CN0500001N9+01281+00221102011ADDAY101999GF103991031011012501001001MD1210241+9999MW1021
