0057028640999991956010100004+65783+024583FM-12+001599999V0200901N00461030001CN0100001N9-00721-00781100111ADDAY171999GF108991041071001501021999MD1210091+9999MW1221
0078028640999991956010106004+65783+024583FM-12+001599999V0201101N00571001501CN0100001N9-00781-00891100161ADDAY171999GF108991051071001501021999MW1711EQDQ01+000042APCTENQ02+000022APC3  
0057028640999991956010112004+65783+024583FM-12+001599999V0201101N00211002401CN0020001N9-01111-01221100201ADDAY171999GF108991061071002501021999MD1210041+9999MW1711
0081028640999991956010118004+65783+024583FM-12+001599999V0200901N00311220001CN0080001N9-01281-01391100381ADDAA199003091AY171999GF107991001001999999071999KA1999M-00781MD1210101+9999MW1711
0057028640999991956010200004+65783+024583FM-12+001599999V0200901N00311220001CN0500001N9-01391-01501100561ADDAY171999GF107991001001999999001071MD1210081+9999MW1011
0100028640999991956010206004+65783+024583FM-12+001599999V0200901N00311220001CN0400001N9-01501-01611100721ADDAA199001091AY171999GF108991999001999999071001KA1999N-01501MD1110071+9999MW1021EQDQ01+000002SCOTLC
0057028640999991956010212004+65783+024583FM-12+001599999V0203601N00211004501CN0060001N9-01501-01611100961ADDAY171999GF108991051051004501021999MD1210111+9999MW1711
0081028640999991956010218004+65783+024583FM-12+001599999V0209991C00001030001CN0100001N9-01391-01501100991ADDAA199001091AY121999GF108991021051004501071999KA1999M-01391MD1010011+9999MW1021
0057028640999991956010300004+65783+024583FM-12+001599999V0209991C00001004501CN0150001N9-01281-01391100991ADDAY171999GF108991081051004501999999MD1710031+9999MW1711
0081028640999991956010306004+65783+024583FM-12+001599999V0201801N00311004501CN0150001N9-01111-01221100481ADDAA199000391AY171999GF108991061051004501021999KA1999N-01391MD1710291+9999MW1711
0092028640999991956010312004+65783+024583FM-12+001599999V0201801N00871001501CN0005001N9-00781-00891098882ADDAY171999GF108991061071001501021999MD1710992+9999MW1751EQDQ01+098883APOSLPQ02+000992APC3  
0081028640999991956010318004+65783+024583FM-12+001599999V0202501N00671004501CN0200001N9-00111-00221098161ADDAA199001091AY171999GF108991071071004501021999KA1999M+00001MD1710131+9999MW1361
0057028640999991956010400004+65783+024583FM-12+001599999V0202501N00671030001CN0500001N9-00221-00281098641ADDAY121999GF108991021051004501071999MD1210271+9999MW1021
0089028640999991956010406004+65783+024583FM-12+001599999V0202901N00621220001CN0500001N9+00001-00391099311ADDAY111999GF102991999001999999071001KA1999N-00281MD1210441+9999MW1011EQDQ01+000002SCOTLC
0076028640999991956010412004+65783+024583FM-12+001599999V0202701N00151220001CN0500001N9-00391-00721100281ADDAY101999GF102991001001999999071011MD1210532+9999MW1021EQDQ01+000532APC3  
0089028640999991956010418004+65783+024583FM-12+001599999V0201801N00151220001CN0300001N9-00611-00721100611ADDAY101999GF102991999001999999071001KA1999M+00111MD1210101+9999MW1011EQDQ01+000002SCOTLC
0076028640999991956010500004+65783+024583FM-12+001599999V0202001N00361220001CN0400001N9-00111-00221100711ADDAY111999GF102991999001999999071001MD1310131+9999MW1011EQDQ01+000002SCOTLC
0057028640999991956010512004+65783+024583FM-12+001599999V0202001N00411220001CN0500001N9+00221+00221101291ADDAY121999GF107991001001999999071999MD1210211+9999MW1021
0070028640999991956010518004+65783+024583FM-12+001599999V0202301N00571220001CN0500001N9+00281+00221101341ADDAY111999GF106991001001999999071999KA1999M+00501MD1210021+9999MW1031
0057028640999991956010600004+65783+024583FM-12+001599999V0202301N00771220001CN0500001N9+00221+00001101391ADDAY101999GF100991001001999999001001MD1410001+9999MW1011
0070028640999991956010606004+65783+024583FM-12+001599999V0202301N00361000151CN0005001N9-00111-00111101361ADDAY141999GF109991091999000251999999KA1999N-00111MD1710011+9999MW1451
0057028640999991956010612004+65783+024583FM-12+001599999V0202001N00671000151CN0006001N9+00001+00001101241ADDAY141999GF109991091999000251999999MD1710071+9999MW1451
0089028640999991956010618004+65783+024583FM-12+001599999V0202001N00361220001CN0500001N9-00221-00221101401ADDAY101999GF101991999001999999071001KA1999M+00001MD1210081+9999MW1021EQDQ01+000002SCOTLC
0076028640999991956010700004+65783+024583FM-12+001599999V0202001N00361220001CN0500001N9+00001-00221101391ADDAY111999GF107991999001999999071001MD1710041+9999MW1031EQDQ01+000002SCOTLC
0070028640999991956010706004+65783+024583FM-12+001599999V0202001N00981000151CN0020001N9-00111-00111101091ADDAY141999GF108991081061000251999999KA1999N-00281MD1710191+9999MW1021
0057028640999991956010712004+65783+024583FM-12+001599999V0202001N00721000601CN0030001N9-00111-00111100921ADDAY121999GF108991081061000751999999MD1710091+9999MW1021
0070028640999991956010718004+65783+024583FM-12+001599999V0202001N00721001501CN0200001N9-00221-00281100801ADDAY121999GF108991081061001501999999KA1999M-00111MD1710081+9999MW1021
0057028640999991956010800004+65783+024583FM-12+001599999V0202001N00621001501CN0300001N9-00111-00221100811ADDAY121999GF108991081061001501999999MD1710031+9999MW1021
0070028640999991956010806004+65783+024583FM-12+001599999V0202001N00571004501CN0400001N9+00001-00111100641ADDAY121999GF108991081051004501999999KA1999N-00221MD1810071+9999MW1021
0057028640999991956010812004+65783+024583FM-12+001599999V0202001N00211004501CN0400001N9-00281-00281100851ADDAY121999GF107991061051004501999999MD1210101+9999MW1011
0070028640999991956010818004+65783+024583FM-12+001599999V0209991C00001220001CN0400001N9-01001-01111101061ADDAY121999GF106991001001999999071999KA1999M+00001MD1210121+9999MW1011
0057028640999991956010900004+65783+024583FM-12+001599999V0200201N00261001501CN0300001N9-00781-00891101181ADDAY141999GF105991051061001501001001MD1210021+9999MW1011
0081028640999991956010906004+65783+024583FM-12+001599999V0200201N00211002401CN0045001N9-00391-00391101141ADDAA199001091AY171999GF108991061051002501021999KA1999N-01111MD1610011+9999MW1711
0057028640999991956010912004+65783+024583FM-12+001599999V0200501N00101004501CN0035001N9-00281-00281999999ADDAY171999GF108991061071004501031999MD1210031+9999MW1731
0081028640999991956010918004+65783+024583FM-12+001599999V0201601N00511004501CN0120001N9-00611-00721101541ADDAA199002091AY171999GF108991061071004501021999KA1999M-00221MD1210181+9999MW1711
0081028640999991956011006004+65783+024583FM-12+001599999V0201401N00151004501CN0300001N9-01111-01221101921ADDAA199000391AY121999GF108991051051004501021999KA1999N-01111MD1210071+9999MW1711
0057028640999991956011012004+65783+024583FM-12+001599999V0200901N00151030001CN0200001N9-01001-01111102021ADDAY171999GF108991041051008001021999MD1110041+9999MW1711
0081028640999991956011018004+65783+024583FM-12+001599999V0209991C00001030001CN0400001N9-01111-01221101971ADDAA199000691AY171999GF108991031051004501071001KA1999M-01001MD1610061+9999MW1701
0078028640999991956011100004+65783+024583FM-12+001599999V0200901N00101004501CN0400001N9-01221-01391102001ADDAY121999GF108991081051004501999999MW1701EQDQ01+000042APCTENQ02+000022APC3  
0081028640999991956011106004+65783+024583FM-12+001599999V0201101N00311004501CN0300001N9-01111-01281101861ADDAA199000691AY121999GF108991081051004501999999KA1999N-01281MD1710101+9999MW1701
0081028640999991956011118004+65783+024583FM-12+001599999V0200901N00261002401CN0100001N9-00891-01111101721ADDAA199000591AY171999GF108991071051002501021999KA1999M-00891MD1710031+9999MW1711
0070028640999991956011206004+65783+024583FM-12+001599999V0200901N00361004501CN0500001N9-00781-01001101201ADDAY121999GF108991081051004501999999KA1999N-01111MD1710161+9999MW1021
0057028640999991956011212004+65783+024583FM-12+001599999V0201401N00511030001CN0200001N9-01001-01221101151ADDAY171999GF107991021051004501071999MD1710031+9999MW1711
0081028640999991956011218004+65783+024583FM-12+001599999V0201401N00311030001CN0100001N9-00891-01001101111ADDAA199000591AY171999GF108991021071004501021999KA1999M-00781MD1710031+9999MW1711
0081028640999991956011306004+65783+024583FM-12+001599999V0201101N00261220001CN0080001N9-01111-01221100811ADDAA199001091AY171999GF104991001001999999071999KA1999N-01221MD1710081+9999MW1711
0057028640999991956011312004+65783+024583FM-12+001599999V0201101N00261004501CN0100001N9-00891-01001100681ADDAY171999GF108991061051004501021999MD1710091+9999MW1701
0081028640999991956011318004+65783+024583FM-12+001599999V0200701N00311002401CN0300001N9-00721-00781100391ADDAA199000691AY121999GF108991061071002501021999KA1999M-00721MD1710161+9999MW1701
0089028640999991956011406004+65783+024583FM-12+001599999V0200701N00261220001CN0400001N9-01001-01111099991ADDAY111999GF103991999001999999071001KA1999N-01001MD1710101+9999MW1031EQDQ01+000002SCOTLC
0091028640999991956011418004+65783+024583FM-12+001599999V0200501N00461002401CN0150001N9-00781-00891099881ADDAY121999GF108991061051002501071999KA1999M-00611MW1021EQDQ01+000042APCTENQ02+000012APC3  
0081028640999991956011506004+65783+024583FM-12+001599999V0203601N00311004501CN0300001N9-00721-00781099801ADDAA199001091AY121999GF108991061071004501021999KA1999N-00891MD1710061+9999MW1221
0057028640999991956011512004+65783+024583FM-12+001599999V0200201N00261004501CN0150001N9-00721-00781099761ADDAY171999GF108991061071004501021999MD1710031+9999MW1711
0057028640999991956011600004+65783+024583FM-12+001599999V0209991C00001004501CN0200001N9-00721-00781099601ADDAY121999GF108991081051004501999999MD1710051+9999MW1021
0081028640999991956011606004+65783+024583FM-12+001599999V0209991C00001001501CN0100001N9-00781-00891099521ADDAA199000691AY171999GF108991061071001501021999KA1999N-00781MD1710011+9999MW1711
0078028640999991956011612004+65783+024583FM-12+001599999V0209991C00001030001CN0045001N9-01001-01111099571ADDAY171999GF106991021051004501071999MW1711EQDQ01+000022APCTENQ02+000002APC3  
0081028640999991956011618004+65783+024583FM-12+001599999V0209991C00001001501CN0200001N9-01001-01111099591ADDAA199000591AY171999GF108991081061001501999999KA1999M-00781MD1610031+9999MW1711
0057028640999991956011700004+65783+024583FM-12+001599999V0201401N00411002401CN0200001N9-00721-00781099481ADDAY171999GF108991081061002501999999MD1710051+9999MW1711
0081028640999991956011706004+65783+024583FM-12+001599999V0201401N00151000601CN0020001N9-00721-00781099381ADDAA199000691AY171999GF108991081061000751999999KA1999N-01001MD1610051+9999MW1771
0081028640999991956011718004+65783+024583FM-12+001599999V0200901N00101001501CN0250001N9-01001-01111099451ADDAA199000591AY121999GF108991081061001501999999KA1999M-00721MD1210041+9999MW1711
0057028640999991956011800004+65783+024583FM-12+001599999V0203601N00101220001CN0080001N9-01391-01501099541ADDAY121999GF108991001001999999021999MD1210021+9999MW1701
0081028640999991956011806004+65783+024583FM-12+001599999V0200401N00211220001CN0100001N9-01391-01501099541ADDAA199000391AY171999GF108991001001999999021999KA1999N-01611MD1210011+9999MW1711
0057028640999991956011812004+65783+024583FM-12+001599999V0200701N00151220001CN0150001N9-01391-01501099361ADDAY101999GF100991001001999999001001MD1710101+9999MW1011
0081028640999991956011818004+65783+024583FM-12+001599999V0200901N00411004501CN0300001N9-01391-01611099091ADDAA199000691AY111999GF108991081051004501999999KA1999M-01221MD1710191+9999MW1031
0057028640999991956011900004+65783+024583FM-12+001599999V0200501N00621002401CN0045001N9-00891-01111098311ADDAY121999GF108991071071002501021999MD1710411+9999MW1731
0081028640999991956011906004+65783+024583FM-12+001599999V0200501N00621002401CN0040001N9-00781-00891097681ADDAA199001091AY171999GF108991071071002501021999KA1999N-01391MD1710251+9999MW1731
0057028640999991956011912004+65783+024583FM-12+001599999V0200201N00571001501CN0030001N9-00611-00721097191ADDAY171999GF108991071031001501999999MD1710271+9999MW1731
0081028640999991956011918004+65783+024583FM-12+001599999V0200501N00621004501CN0030001N9-00501-00611096981ADDAA199004091AY171999GF108991061071004501021999KA1999M-00501MD1710101+9999MW1731
0057028640999991956012000004+65783+024583FM-12+001599999V0200201N00511002401CN0050001N9-00611-00721096991ADDAY171999GF108991051071002501021999MD1410001+9999MW1731
0081028640999991956012006004+65783+024583FM-12+001599999V0203601N002119999999N0050001N9-00721-00781096991ADDAA199004091AY171999GF109991021071004501021999KA1999N-00721MD1410001+9999MW1731
0057028640999991956012012004+65783+024583FM-12+001599999V0201101N00361002401CN0045001N9-00781-00891097731ADDAY171999GF108991081071002501999999MD1210221+9999MW1711
0081028640999991956012018004+65783+024583FM-12+001599999V0201101N00311220001CN0150001N9-00891-01001097581ADDAA199003091AY171999GF104991041061004501001001KA1999M-00721MD1210181+9999MW1711
0081028640999991956012106004+65783+024583FM-12+001599999V0200901N00461004501CN0080001N9-01111-01221098181ADDAA199000391AY171999GF108991071071004501021999KA1999N-01111MD1210051+9999MW1731
0057028640999991956012112004+65783+024583FM-12+001599999V0200701N00461030001CN0150001N9-01281-01391098201ADDAY171999GF106991031051008001071051MD1810021+9999MW1711
0081028640999991956012118004+65783+024583FM-12+001599999V0200401N00361004501CN0400001N9-01221-01281098011ADDAA199001091AY171999GF108991081051004501999999KA1999M-01111MD1710131+9999MW1031
0081028640999991956012206004+65783+024583FM-12+001599999V0200201N00311220001CN0050001N9-01001-01221097751ADDAA199000691AY121999GF108991001001999999071999KA1999N-01221MD1610031+9999MW1731
0057028640999991956012212004+65783+024583FM-12+001599999V0203601N00261030001CN0300001N9-01111-01221097841ADDAY121999GF108991021051004501071999MD1210061+9999MW1701
0081028640999991956012218004+65783+024583FM-12+001599999V0203601N00101220001CN0150001N9-01391-01391097921ADDAA199000591AY171999GF107991001001999999071999KA1999M-01001MD1210041+9999MW1711
0081028640999991956012306004+65783+024583FM-12+001599999V0209991C00001000601CN0030001N9-01611-01721098401ADDAA199000691AY171999GF108991051061000751021999KA1999N-02501MD1210081+9999MW1711
0057028640999991956012312004+65783+024583FM-12+001599999V0209991C00001030001CN0030001N9-01611-01721098731ADDAY171999GF106991021061002501071999MD1210221+9999MW1711
0081028640999991956012318004+65783+024583FM-12+001599999V0209991C00001004501CN0050001N9-01611-01721099081ADDAA199000391AY121999GF108991071051004501021999KA1999M-01391MD1210141+9999MW1711
0057028640999991956012400004+65783+024583FM-12+001599999V0209991C00001220001CN0100001N9-01891-02001099461ADDAY171999GF107991001001999999071071MD1210201+9999MW1761
0081028640999991956012406004+65783+024583FM-12+001599999V0203601N00211220001CN0400001N9-02001-02221099801ADDAA199000691AY111999GF100991001001999999001001KA1999N-02391MD1210141+9999MW1021
0100028640999991956012418004+65783+024583FM-12+001599999V0209991C00001220001CN0150001N9-02721-03001100481ADDAA199000691AY101999GF101991999001999999041001KA1999M-02001MD1210131+9999MW1011EQDQ01+000002SCOTLC
0057028640999991956012500004+65783+024583FM-12+001599999V0203601N00151220001CN0500001N9-02891-03221100771ADDAY101999GF105991001001999999001061MD1210151+9999MW1031
0070028640999991956012506004+65783+024583FM-12+001599999V0209991C00001000151CN0006001N9-02391-02611100961ADDAY141999GF109991091999000251999999KA1999N-03221MD1210081+9999MW1771
0057028640999991956012512004+65783+024583FM-12+001599999V0209991C00001030001CN0035001N9-02221-02391101181ADDAY171999GF107991041061001501071999MD1210081+9999MW1781
0081028640999991956012518004+65783+024583FM-12+001599999V0209991C00001000601CN0050001N9-02501-02721101291ADDAA199000691AY171999GF108991081061000751999999KA1999M-02221MD1110091+9999MW1781
0057028640999991956012600004+65783+024583FM-12+001599999V0209991C00001220001CN0050001N9-02281-02501101421ADDAY171999GF107991001001999999071999MD1210041+9999MW1781
0081028640999991956012606004+65783+024583FM-12+001599999V0209991C00001001501CN0100001N9-02111-02281101481ADDAA199000391AY121999GF108991081061001501999999KA1999N-02501MD1410001+9999MW1021
0057028640999991956012612004+65783+024583FM-12+001599999V0209991C00001030001CN0035001N9-02501-02611101661ADDAY121999GF107991041061001501011999MD1110061+9999MW1011
0089028640999991956012618004+65783+024583FM-12+001599999V0209991C00001220001CN0100001N9-03001-03111101741ADDAY101999GF101991999001999999041001KA1999M-02001MD1210011+9999MW1011EQDQ01+000002SCOTLC
0057028640999991956012700004+65783+024583FM-12+001599999V0209991C00001004501CN0150001N9-02281-02501101781ADDAY121999GF108991051051004501021999MD1710031+9999MW1031
0081028640999991956012706004+65783+024583FM-12+001599999V0201101N00211004501CN0060001N9-02001-02221101661ADDAA199000591AY171999GF108991071051004501021999KA1999N-03111MD1710081+9999MW1711
0081028640999991956012718004+65783+024583FM-12+001599999V0209991C00001004501CN0100001N9-01781-01891101861ADDAA199001091AY171999GF108991061051004501021999KA1999M-01781MD1210131+9999MW1711
0081028640999991956012806004+65783+024583FM-12+001599999V0209991C00001220001CN0150001N9-01721-02221103501ADDAA199000591AY171999GF105991001001999999071999KA1999N-02001MD1210311+9999MW1221
0076028640999991956012812004+65783+024583FM-12+001599999V0200901N00261220001CN0150001N9-02281-02501103711ADDAY111999GF102991999001999999061001MD1210281+9999MW1011EQDQ01+000002SCOTLC
0089028640999991956012818004+65783+024583FM-12+001599999V0203601N00151220001CN0300001N9-02891-03221104091ADDAY101999GF101991999001999999071001KA1999M-02001MD1210201+9999MW1021EQDQ01+000002SCOTLC
0057028640999991956012900004+65783+024583FM-12+001599999V0203601N00151220001CN0500001N9-03111-03391104351ADDAY101999GF100991001001999999001001MD1210051+9999MW1021
0070028640999991956012906004+65783+024583FM-12+001599999V0200501N00211220001CN0400001N9-03221-03281104561ADDAY101999GF100991001001999999001001KA1999N-03391MD1210041+9999MW1021
0089028640999991956013006004+65783+024583FM-12+001599999V0203601N00101220001CN0250001N9-03721+99999104781ADDAY101999GF102991999001999999071001KA1999N-04001MD1410001+9999MW1031EQDQ01+000002SCOTLC
0094028640999991956013012004+65783+024583FM-12+001599999V0209991C00001220001CN0300001N9-03391-03721104851ADDAY101999GF102991999001999999041001MW1011EQDQ01+000002SCOTLCQ02+000012APCTENQ03+000002APC3  
0070028640999991956013018004+65783+024583FM-12+001599999V0209991C00001220001CN0150001N9-03611-03891104811ADDAY101999GF102991021061000751041001KA1999M-03391MD1310031+9999MW1021
0078028640999991956013100004+65783+024583FM-12+001599999V0209991C00001220001CN0300001N9-03721+99999104821ADDAY111999GF103991021051000751041001MW1021EQDQ01+000042APCTENQ02+000032APC3  
0070028640999991956013106004+65783+024583FM-12+001599999V0209991C00001220001CN0100001N9-03891+99999104651ADDAY101999GF102991021061000751001001KA1999N-04001MD1710101+9999MW1031
0057028640999991956013112004+65783+024583FM-12+001599999V0209991C00001075001CN0045001N9-03501-03611104381ADDAY111999GF105991011061000751041061MD1710191+9999MW1031
0070028640999991956013118004+65783+024583FM-12+001599999V0209991C00001220001CN0100001N9-03611-03891104141ADDAY101999GF100991001001999999001001KA1999M-03281MD1610061+9999MW1021
0070028640999991956020106004+65783+024583FM-12+001599999V0203601N00261030001CN0300001N9-01001-01221103941ADDAY121999GF108991021051008001071999KA1999N-03611MD1210021+9999MW1011
0057028640999991956020112004+65783+024583FM-12+001599999V0203601N00411007801CN0400001N9-00611-00781104001ADDAY121999GF107991051051008001071999MD1210021+9999MW1011
0070028640999991956020118004+65783+024583FM-12+001599999V0203601N00311004501CN0400001N9-00391-00611104041ADDAY121999GF108991081051004501999999KA1999M-00391MD1210061+9999MW1021
0070028640999991956020206004+65783+024583FM-12+001599999V0203601N00101220001CN0500001N9-00611-00721104311ADDAY101999GF102991011051004501041001KA1999N-00891MD1210131+9999MW1031
0057028640999991956020212004+65783+024583FM-12+001599999V0203601N00261030001CN0500001N9-00391-00391104421ADDAY111999GF105991031051004501061999MD1410001+9999MW1021
0070028640999991956020218004+65783+024583FM-12+001599999V0203601N00211007801CN0400001N9-00391-00501104441ADDAY121999GF108991081051008001999999KA1999M-00221MD1410001+9999MW1031
0078028640999991956020300004+65783+024583FM-12+001599999V0203601N00361220001CN0500001N9-00781-00891104371ADDAY101999GF101991011051004501001001MW1011EQDQ01+000072APCTENQ02+000002APC3  
0070028640999991956020306004+65783+024583FM-12+001599999V0203601N00211220001CN0500001N9-01391-01501104321ADDAY101999GF102991011051004501041001KA1999N-01501MD1810011+9999MW1031
0057028640999991956020312004+65783+024583FM-12+001599999V0203601N00211007801CN0500001N9-00891-01001104211ADDAY121999GF107991071051008001999999MD1710111+9999MW1021
0081028640999991956020318004+65783+024583FM-12+001599999V0203601N00101004501CN0200001N9-00891-01001104021ADDAA199000691AY121999GF108991081051004501999999KA1999M-00781MD1710131+9999MW1021
0057028640999991956020400004+65783+024583FM-12+001599999V0203601N00151004501CN0300001N9-01001-01111103721ADDAY171999GF108991081051004501999999MD1710191+9999MW1021
0081028640999991956020406004+65783+024583FM-12+001599999V0203601N00101004501CN0300001N9-00891-01001103381ADDAA199000691AY121999GF108991081051004501999999KA1999N-01001MD1710141+9999MW1701
0057028640999991956020412004+65783+024583FM-12+001599999V0200901N00461220001CN0500001N9-01611-01721103181ADDAY101999GF102991011051008001041041MD1710141+9999MW1011
0070028640999991956020418004+65783+024583FM-12+001599999V0200901N00361220001CN0500001N9-01891-02221103001ADDAY101999GF100991001001999999001001KA1999M-01721MD1610091+9999MW1021
0057028640999991956020500004+65783+024583FM-12+001599999V0200901N00721030001CN0300001N9-02281-02501102941ADDAY121999GF108991041051004501021999MD1710031+9999MW1031
0102028640999991956020506004+65783+024583FM-12+001599999V0200901N00571004501CN0100001N9-02281-02501102911ADDAA199000691AY171999GF108991081051004501999999KA1999N-02281MW1711EQDQ01+000042APCTENQ02+000012APC3  
0057028640999991956020512004+65783+024583FM-12+001599999V0200901N00461007801CN0400001N9-02391-02611102781ADDAY171999GF106991051051008001071999MD1710121+9999MW1031
0081028640999991956020518004+65783+024583FM-12+001599999V0200901N00211004501CN0400001N9-02501-02721102721ADDAA199000391AY121999GF108991081051004501999999KA1999M-02281MD1310021+9999MW1021
0076028640999991956020600004+65783+024583FM-12+001599999V0200901N00311220001CN0500001N9-02611-02781102921ADDAY111999GF104991999001999999071001MD1210211+9999MW1011EQDQ01+000002SCOTLC
0070028640999991956020606004+65783+024583FM-12+001599999V0200901N00261030001CN0500001N9-02781-03111103321ADDAY121999GF107991021051008001071999KA1999N-03001MD1210201+9999MW1031
0057028640999991956020612004+65783+024583FM-12+001599999V0200901N00151007801CN0400001N9-02501-02721103601ADDAY121999GF107991061051008001071999MD1210071+9999MW1021
0070028640999991956020618004+65783+024583FM-12+001599999V0209991C00001007801CN0400001N9-02281-02501103661ADDAY121999GF108991081051008001999999KA1999M-02281MD1610021+9999MW1021
0070028640999991956020706004+65783+024583FM-12+001599999V0203601N00311220001CN0500001N9-02781-03111103481ADDAY101999GF101991001001999999001041KA1999N-02781MD1710071+9999MW1031
0057028640999991956020712004+65783+024583FM-12+001599999V0200901N00211220001CN0500001N9-02111-02281103291ADDAY121999GF106991001001999999041061MD1710161+9999MW1021
0070028640999991956020718004+65783+024583FM-12+001599999V0201101N00311220001CN0400001N9-02281-02501103221ADDAY121999GF106991001001999999071999KA1999M-02111MD1310031+9999MW1011
0089028640999991956020806004+65783+024583FM-12+001599999V0201401N00151220001CN0500001N9-02721-03001103691ADDAY101999GF101991999001999999041001KA1999N-02721MD1210151+9999MW1031EQDQ01+000002SCOTLC
0057028640999991956020812004+65783+024583FM-12+001599999V0201101N00361220001CN0025001N9-02501-02721104151ADDAY111999GF103991021061001501071001MD1210191+9999MW1761
0100028640999991956020818004+65783+024583FM-12+001599999V0201401N00361220001CN0300001N9-02611-02781104441ADDAA199000691AY101999GF102991999001999999041001KA1999M-02391MD1210141+9999MW1021EQDQ01+000002SCOTLC
0057028640999991956020900004+65783+024583FM-12+001599999V0201401N00101220001CN0400001N9-02781-03111104631ADDAY101999GF100991001001999999001001MD1210041+9999MW1021
0081028640999991956020906004+65783+024583FM-12+001599999V0201801N00151004501CN0050001N9-02611-02781104591ADDAA199000691AY121999GF108991061071004501021999KA1999N-02891MD1710041+9999MW1731
0057028640999991956020912004+65783+024583FM-12+001599999V0201401N00151030001CN0045001N9-02221-02391104511ADDAY171999GF108991031051004501021999MD1710031+9999MW1711
0100028640999991956020918004+65783+024583FM-12+001599999V0201401N00311220001CN0100001N9-02391-02611104491ADDAA199001091AY171999GF102991999001999999071001KA1999M-02111MD1510021+9999MW1221EQDQ01+000002SCOTLC
0057028640999991956021000004+65783+024583FM-12+001599999V0201401N00411220001CN0200001N9-03001-03281104391ADDAY101999GF100991001001999999001001MD1710041+9999MW1021
0070028640999991956021006004+65783+024583FM-12+001599999V0203601N00411001501CN0200001N9-02721-02891104011ADDAY121999GF108991081051001501999999KA1999N-03221MD1710151+9999MW1021
0076028640999991956021012004+65783+024583FM-12+001599999V0203601N00151220001CN0200001N9-02111-02281103651ADDAY111999GF101991999001999999041001MD1710231+9999MW1021EQDQ01+000002SCOTLC
0100028640999991956021018004+65783+024583FM-12+001599999V0203601N00211220001CN0200001N9-03111-03391103191ADDAA199000691AY101999GF101991999001999999071001KA1999M-02111MD1710211+9999MW1021EQDQ01+000002SCOTLC
0092028640999991956021100004+65783+024583FM-12+001599999V0200901N00721220001CN0200001N9-02721-03001102341ADDAY101999GF102991999001999999071001MD1710532+9999MW1031EQDQ01+000002SCOTLCQ02+000532APC3  
0081028640999991956021106004+65783+024583FM-12+001599999V0201401N00821030001CN0010001N9-02111-02281101211ADDAA199000591AY171999GF108991021071001501021999KA1999N-03501MD1710451+9999MW1731
0057028640999991956021112004+65783+024583FM-12+001599999V0201101N00511220001CN0300001N9-01891-02111101191ADDAY171999GF107991001001999999071999MD1310021+9999MW1701
0081028640999991956021118004+65783+024583FM-12+001599999V0200201N00361030001CN0250001N9-02111-02281101641ADDAA199001091AY121999GF108991041051004501071999KA1999M-01891MD1210291+9999MW1701
0057028640999991956021200004+65783+024583FM-12+001599999V0200701N00261220001CN0150001N9-02111-02281101991ADDAY171999GF104991001001999999071999MD1210131+9999MW1711
0081028640999991956021206004+65783+024583FM-12+001599999V0200901N00361220001CN0080001N9-02111-02281102311ADDAA199000391AY171999GF108991001001999999021999KA1999N-02221MD1210211+9999MW1711
0057028640999991956021212004+65783+024583FM-12+001599999V0200901N00511220001CN0400001N9-02111-02281102661ADDAY121999GF107991001001999999021999MD1210141+9999MW1021
0081028640999991956021218004+65783+024583FM-12+001599999V0203601N00361220001CN0400001N9-02501-02501102961ADDAA199000691AY121999GF105991001001999999071999KA1999M-02111MD1210131+9999MW1011
0076028640999991956021300004+65783+024583FM-12+001599999V0200501N00211220001CN0400001N9-02391-02611103201ADDAY111999GF102991999001999999071001MD1210091+9999MW1011EQDQ01+000002SCOTLC
0089028640999991956021306004+65783+024583FM-12+001599999V0203601N00261220001CN0400001N9-02891-03221103381ADDAY101999GF102991999001999999041001KA1999N-02891MD1210051+9999MW1031EQDQ01+000002SCOTLC
0076028640999991956021312004+65783+024583FM-12+001599999V0200501N00411220001CN0100001N9-02281-02501103451ADDAY101999GF101991999001999999041001MD1510031+9999MW1051EQDQ01+000002SCOTLC
0089028640999991956021318004+65783+024583FM-12+001599999V0200201N00361220001CN0300001N9-02391-02611103421ADDAY101999GF102991999001999999041001KA1999M-02221MD1410001+9999MW1021EQDQ01+000002SCOTLC
0057028640999991956021400004+65783+024583FM-12+001599999V0200201N00461220001CN0400001N9-02281-02501103261ADDAY101999GF100991001001999999001001MD1710131+9999MW1021
0081028640999991956021406004+65783+024583FM-12+001599999V0200201N00671030001CN0200001N9-01721-02001102721ADDAA199000691AY101999GF108991031051004501021999KA1999N-02391MD1710301+9999MW1711
0057028640999991956021412004+65783+024583FM-12+001599999V0200401N00571220001CN0035001N9-01221-01391102211ADDAY171999GF108991001001999999021999MD1610241+9999MW1731
0081028640999991956021418004+65783+024583FM-12+001599999V0200501N00621030001CN0050001N9-01391-01501102261ADDAA199001091AY171999GF108991031071004501021999KA1999M-01221MD1210091+9999MW1711
0057028640999991956021500004+65783+024583FM-12+001599999V0200901N00621030001CN0100001N9-01111-01221102391ADDAY171999GF108991041071004501021999MD1210071+9999MW1711
0081028640999991956021518004+65783+024583FM-12+001599999V0200901N00511030001CN0400001N9-00611-00891102411ADDAA199000591AY121999GF108991031051004501071999KA1999M-00611MD1210101+9999MW1031
0057028640999991956021600004+65783+024583FM-12+001599999V0201401N00511030001CN0150001N9-00391-00611102951ADDAY121999GF108991041051004501071999MD1210221+9999MW1021
0100028640999991956021606004+65783+024583FM-12+001599999V0201101N00511007801CN0050001N9-00721-00781103261ADDAA199000391AY171999GF108991071051008001021999KA1999N+99999MD1210151+9999MW1711EQDQ01 -00612ATMN  
0081028640999991956021618004+65783+024583FM-12+001599999V0201101N00511030001CN0100001N9-01001-01221103651ADDAA199001091AY171999GF108991021051004501021999KA1999M-00721MD1210031+9999MW1711
0081028640999991956021706004+65783+024583FM-12+001599999V0201401N00461030001CN0100001N9-01001-01111104661ADDAA199000391AY171999GF108991021071004501021999KA1999N-01001MD1210211+9999MW1711
0057028640999991956021712004+65783+024583FM-12+001599999V0201101N00411004501CN0050001N9-01001-01111104791ADDAY171999GF108991061071004501021999MD1210041+9999MW1711
0081028640999991956021718004+65783+024583FM-12+001599999V0201101N00511220001CN0400001N9-01111-01391104841ADDAA199000391AY121999GF107991001001999999071999KA1999M-01001MD1310071+9999MW1011
0089028640999991956021806004+65783+024583FM-12+001599999V0200901N00311220001CN0500001N9-01781-02111104821ADDAY101999GF103991999001999999071001KA1999N-01781MD1710041+9999MW1031EQDQ01+000002SCOTLC
0057028640999991956021812004+65783+024583FM-12+001599999V0200901N00361220001CN0500001N9-01501-01891104661ADDAY111999GF104991001001999999001061MD1710121+9999MW1011
0089028640999991956021818004+65783+024583FM-12+001599999V0200901N00571220001CN0500001N9-01501-01781104461ADDAY111999GF102991999001999999041001KA1999M-01391MD1710051+9999MW1011EQDQ01+000002SCOTLC
0089028640999991956021906004+65783+024583FM-12+001599999V0200901N00361220001CN0500001N9-01781-02111104151ADDAY101999GF102991999001999999041001KA1999N-01891MD1710091+9999MW1021EQDQ01+000002SCOTLC
0057028640999991956021912004+65783+024583FM-12+001599999V0200901N00261030001CN0300001N9-01281-01501103941ADDAY171999GF107991021051008001071999MD1710131+9999MW1711
0100028640999991956021918004+65783+024583FM-12+001599999V0200901N00101030001CN0150001N9-01281-01391102572ADDAA199000391AY171999GF108991041051004501021999KA1999M-01281MD1710191+9999MW1711EQDQ01+102573APOSLP
0067028640999991956022006004+65783+024583FM-12+001599999V0201401N00671004501CN0015001N9-00891-01391102911ADDAA199003091AY171999GF108991061071004501021999KA1999N-01281MW1751
0057028640999991956022012004+65783+024583FM-12+001599999V0202001N00461002401CN0045001N9-00721-00781103011ADDAY171999GF108991061071002501021999MD1210071+9999MW1731
0081028640999991956022018004+65783+024583FM-12+001599999V0202001N00511002401CN0150001N9-00721-00781103151ADDAA199003091AY171999GF108991071071002501021999KA1999M-00721MD1110021+9999MW1711
0081028640999991956022106004+65783+024583FM-12+001599999V0202001N00461001501CN0070001N9-00721-00781103281ADDAA199000691AY121999GF108991081061001501999999KA1999N-00781MD1110031+9999MW1021
0089028640999991956022118004+65783+024583FM-12+001599999V0209991C00001220001CN0100001N9-02111-02221103591ADDAY101999GF101991999001999999041001KA1999M-00721MD1210041+9999MW1011EQDQ01+000002SCOTLC
0057028640999991956022200004+65783+024583FM-12+001599999V0209991C00001000601CN0050001N9-01721-01781103601ADDAY141999GF108991081061000751999999MD1410001+9999MW1021
0070028640999991956022206004+65783+024583FM-12+001599999V0209991C00001000151CN0002001N9-01611-01721103461ADDAY141999GF109991091999000251999999KA1999N-02221MD1710121+9999MW1451
0057028640999991956022212004+65783+024583FM-12+001599999V0201801N00211001501CN0030001N9-01781-01891103281ADDAY171999GF107991071061001501999999MD1710151+9999MW1761
0081028640999991956022218004+65783+024583FM-12+001599999V0202001N00721002401CN0100001N9-00891-01001102681ADDAA199000591AY171999GF107991071061002501999999KA1999M-00891MD1710301+9999MW1701
0081028640999991956022306004+65783+024583FM-12+001599999V0202001N00461004501CN0080001N9-01001-01111101391ADDAA199000591AY171999GF108991071071004501021999KA1999N-01111MD1710321+9999MW1711
0057028640999991956022312004+65783+024583FM-12+001599999V0202001N00411004501CN0070001N9-01001-01111100981ADDAY171999GF108991071071004501021999MD1710181+9999MW1711
0081028640999991956022318004+65783+024583FM-12+001599999V0202701N00261030001CN0100001N9-01221-01391100681ADDAA199002091AY171999GF108991021071004501021999KA1999M-01001MD1710101+9999MW1701
0057028640999991956022400004+65783+024583FM-12+001599999V0203201N00771030001CN0300001N9-00781-01111100621ADDAY171999GF107991021051004501071999MD1310101+9999MW1011
0081028640999991956022406004+65783+024583FM-12+001599999V0202901N00311220001CN0400001N9-01501-01781101061ADDAA199000591AY101999GF100991001001999999001001KA1999N-01611MD1210171+9999MW1011
0076028640999991956022412004+65783+024583FM-12+001599999V0202701N00411220001CN0500001N9-00891-01281101181ADDAY101999GF101991999001999999041001MD1010001+9999MW1021EQDQ01+000002SCOTLC
0089028640999991956022418004+65783+024583FM-12+001599999V0201801N00101220001CN0500001N9-01891-02111100951ADDAY101999GF101991999001999999041001KA1999M-00891MD1710161+9999MW1021EQDQ01+000002SCOTLC
0076028640999991956022500004+65783+024583FM-12+001599999V0201801N00101220001CN0500001N9-02781-03111100861ADDAY101999GF101991999001999999041001MD1410001+9999MW1021EQDQ01+000002SCOTLC
0089028640999991956022506004+65783+024583FM-12+001599999V0201801N00101220001CN0500001N9-02891-03221100881ADDAY101999GF102991999001999999071001KA1999N-03111MD1210051+9999MW1021EQDQ01+000002SCOTLC
0057028640999991956022512004+65783+024583FM-12+001599999V0201801N00211220001CN0100001N9-01721-01891100951ADDAY101999GF101991001001999999041011MD1610011+9999MW1021
0089028640999991956022518004+65783+024583FM-12+001599999V0202301N00151220001CN0400001N9-01611-01781100811ADDAY101999GF101991999001999999041001KA1999M-01281MD1710071+9999MW1021EQDQ01+000002SCOTLC
0076028640999991956022600004+65783+024583FM-12+001599999V0209991C00001220001CN0500001N9-01891-02111100841ADDAY101999GF101991999001999999041001MD1210011+9999MW1021EQDQ01+000002SCOTLC
0089028640999991956022606004+65783+024583FM-12+001599999V0202001N00101220001CN0500001N9-02611-02781100881ADDAY101999GF101991999001999999041001KA1999N-02611MD1110061+9999MW1021EQDQ01+000002SCOTLC
0057028640999991956022612004+65783+024583FM-12+001599999V0202001N00151220001CN0500001N9-01221-01501101061ADDAY101999GF102991001001999999041011MD1210081+9999MW1021
0089028640999991956022618004+65783+024583FM-12+001599999V0209991C00001220001CN0500001N9-02391-02501101151ADDAY101999GF102991999001999999041001KA1999M-01001MD1210051+9999MW1021EQDQ01+000002SCOTLC
0057028640999991956022700004+65783+024583FM-12+001599999V0201801N00101000601CN0100001N9-02391-02611101091ADDAY111999GF105991051061000751001001MD1710061+9999MW1031
0070028640999991956022706004+65783+024583FM-12+001599999V0201801N00211220001CN0200001N9-02501-02611100881ADDAY111999GF104991001001999999071091KA1999N-02611MD1710111+9999MW1031
0057028640999991956022712004+65783+024583FM-12+001599999V0201801N00411030001CN0100001N9-01501-01611100491ADDAY121999GF106991031051002501071999MD1710221+9999MW1711
0081028640999991956022718004+65783+024583FM-12+001599999V0201801N00311004501CN0150001N9-01001-01111100191ADDAA199000391AY171999GF108991061051004501021999KA1999M-01001MD1710101+9999MW1711
0081028640999991956022806004+65783+024583FM-12+001599999V0202701N00151220001CN0040001N9-02721-02781100261ADDAA199000591AY111999GF102991001001999999071011KA1999N-02721MD1210061+9999MW1411
0057028640999991956022812004+65783+024583FM-12+001599999V0203601N00101220001CN0300001N9-01111-01221100441ADDAY101999GF102991001001999999041011MD1210071+9999MW1021
0089028640999991956022818004+65783+024583FM-12+001599999V0209991C00001220001CN0080001N9-02281-02501100611ADDAY101999GF102991999001999999041001KA1999M-01001MD1210051+9999MW1021EQDQ01+000002SCOTLC
0089028640999991956022906004+65783+024583FM-12+001599999V0201401N00621220001CN0200001N9-01391-01501099591ADDAY121999GF107991001001999999071999KA1999N-02611MD1710502+9999MW1021EQDQ01+000502APC3  
0057028640999991956022912004+65783+024583FM-12+001599999V0201601N00821004501CN0035001N9-00721-00781098541ADDAY131999GF108991061071004501021999MD1710491+9999MW1731
0081028640999991956022918004+65783+024583FM-12+001599999V0201401N00821004501CN0020001N9-00391-00391097761ADDAA199000391AY131999GF108991061071004501021999KA1999M-00391MD1710361+9999MW1731
0057028640999991956030100004+65783+024583FM-12+001599999V0201401N00771004501CN0050001N9-00501-00721097321ADDAY171999GF108991051071004501021999MD1710161+9999MW1711
0081028640999991956030106004+65783+024583FM-12+001599999V0201401N00101000151CN0002001N9-00501-00611097281ADDAA199000391AY141999GF109991091999000251999999KA1999N-00501MD1310021+9999MW1471
0100028640999991956030118004+65783+024583FM-12+001599999V0209991C00001220001CN0200001N9-01111-01221097751ADDAA199000691AY111999GF102991999001999999071001KA1999M-00281MD1210091+9999MW1011EQDQ01+000002SCOTLC
0057028640999991956030200004+65783+024583FM-12+001599999V0201401N00211030001CN0150001N9-01281-01391097381ADDAY141999GF107991021061000751071999MD1710241+9999MW1031
0081028640999991956030206004+65783+024583FM-12+001599999V0201101N00461000601CN0100001N9-00611-00721096811ADDAA199000391AY171999GF108991081061000751999999KA1999N-01611MD1710201+9999MW1021
0043028640999991956030212004+65783+024583FM-12+001599999V0201601N00361001501CN0060001N9-00391-00391096781ADDAY121999GF108991061061001501021999MW1711
0081028640999991956030218004+65783+024583FM-12+001599999V0202301N00151000601CN0050001N9-00501-00501096941ADDAA199000691AY171999GF108991081061000751999999KA1999M-00391MD1210121+9999MW1791
0081028640999991956030306004+65783+024583FM-12+001599999V0203601N00151000151CN0008001N9-01001-01111097311ADDAA199000691AY141999GF109991091999000251999999KA1999N-01111MD1210121+9999MW1431
0057028640999991956030318004+65783+024583FM-12+001599999V0203601N00311220001CN0400001N9-00781-00891097601ADDAY101999GF103991001001999999001071MD1210111+9999MW1021
0070028640999991956030406004+65783+024583FM-12+001599999V0209991C00001000151CN0003001N9-02001-02221098311ADDAY111999GF109991091999000251999999KA1999N-02721MD1210091+9999MW1451
0089028640999991956030418004+65783+024583FM-12+001599999V0202701N00101220001CN0200001N9-01891-02111098791ADDAY101999GF103991999001999999071001KA1999M-01391MD1210131+9999MW1021EQDQ01+000002SCOTLC
0070028640999991956030506004+65783+024583FM-12+001599999V0209991C00001000601CN0040001N9-02281-02391099251ADDAY141999GF106991061061000751999999KA1999N-02391MD1210141+9999MW1031
0057028640999991956030512004+65783+024583FM-12+001599999V0202001N00211220001CN0100001N9-01781-01891099541ADDAY101999GF102991001001999999001021MD1210151+9999MW1011
0089028640999991956030518004+65783+024583FM-12+001599999V0202001N00151220001CN0200001N9-02501-02721099741ADDAY101999GF101991999001999999041001KA1999M-01501MD1110081+9999MW1021EQDQ01+000002SCOTLC
0078028640999991956030600004+65783+024583FM-12+001599999V0202701N00151220001CN0200001N9-02501-02721099791ADDAY101999GF100991001001999999001001MW1011EQDQ01+000042APCTENQ02+000012APC3  
0107028640999991956030606004+65783+024583FM-12+001599999V0209991C00001220001CN0300001N9-02781-03111099791ADDAY101999GF102991999001999999071001KA1999N-02891MW1031EQDQ01+000002SCOTLCQ02+000042APCTENQ03+000012APC3  
0076028640999991956030612004+65783+024583FM-12+001599999V0209991C00001220001CN0045001N9-01281-01392099811ADDAY111999GF104991999001999999071001MD1210031+9999MW1711EQDQ01+000002SCOTLC
0081028640999991956030618004+65783+024583FM-12+001599999V0209991C00001220001CN0080001N9-01611-01721100051ADDAA199000591AY121999GF105991001001999999071999KA1999M-01281MD1210101+9999MW1011
0057028640999991956030700004+65783+024583FM-12+001599999V0209991C00001220001CN0400001N9-02611-02781100221ADDAY101999GF100991001001999999001001MD1210091+9999MW1011
0070028640999991956030706004+65783+024583FM-12+001599999V0209991C00001220001CN0200001N9-03001-03281100601ADDAY101999GF102991001001999999071011KA1999N-03111MD1210211+9999MW1031
0076028640999991956030712004+65783+024583FM-12+001599999V0201801N00101220001CN0400001N9-01282-01611101021ADDAY101999GF101991999001999999041001MD1210201+9999MW1021EQDQ01+000002SCOTLC
0089028640999991956030718004+65783+024583FM-12+001599999V0209991C00001220001CN0400001N9-02001-02111101341ADDAY101999GF101991999001999999041001KA1999M-00781MD1210151+9999MW1021EQDQ01+000002SCOTLC
0057028640999991956030800004+65783+024583FM-12+001599999V0201801N00101220001CN0400001N9-02501-02721101511ADDAY101999GF100991001001999999001001MD1210081+9999MW1021
0070028640999991956030806004+65783+024583FM-12+001599999V0209991C00001030001CN0100001N9-02281-02501101591ADDAY111999GF107991021051004501071999KA1999N-02721MD1010041+9999MW1021
0057028640999991956030812004+65783+024583FM-12+001599999V0201801N00461220001CN0200001N9-01391-01781101711ADDAY111999GF106991001001999999041071MD1210071+9999MW1011
0089028640999991956030818004+65783+024583FM-12+001599999V0201601N00151220001CN0400001N9-01891-02111101891ADDAY101999GF102991999001999999041001KA1999M-01221MD1210151+9999MW1021EQDQ01+000002SCOTLC
0057028640999991956030900004+65783+024583FM-12+001599999V0201601N00151220001CN0500001N9-01781-01891102081ADDAY101999GF100991001001999999001001MD1210101+9999MW1021
0081028640999991956030906004+65783+024583FM-12+001599999V0201601N00411004501CN0040001N9-01111-01221101951ADDAA199000691AY121999GF108991061071004501021999KA1999N-02281MD1710071+9999MW1711
0057028640999991956030912004+65783+024583FM-12+001599999V0201601N00621004501CN0150001N9-00611-00721102001ADDAY171999GF108991081061004501999999MD1210051+9999MW1221
0081028640999991956030918004+65783+024583FM-12+001599999V0201601N00621220001CN0250001N9-00501-00611102041ADDAA199001091AY111999GF104991041051004501001001KA1999M-00391MD1410001+9999MW1011
0076028640999991956031000004+65783+024583FM-12+001599999V0201601N00511220001CN0400001N9-00611-00721101981ADDAY121999GF103991999001999999041001MD1810101+9999MW1011EQDQ01+000002SCOTLC
0081028640999991956031006004+65783+024583FM-12+001599999V0201601N00361220001CN0400001N9-00501-00611101951ADDAA199000691AY121999GF107991001001999999071999KA1999N-00611MD1410001+9999MW1021
0057028640999991956031012004+65783+024583FM-12+001599999V0201801N00311030001CN0400001N9-00111-00221102201ADDAY111999GF107991021051004501071081MD1210091+9999MW1031
0070028640999991956031018004+65783+024583FM-12+001599999V0201801N00311004501CN0400001N9-00281-00391102441ADDAY121999GF107991051051004501071999KA1999M+00001MD1210121+9999MW1021
0057028640999991956031100004+65783+024583FM-12+001599999V0201401N00261220001CN0300001N9-00721-00781102651ADDAY111999GF100991001001999999001001MD1210111+9999MW1011
0070028640999991956031106004+65783+024583FM-12+001599999V0201401N00311030001CN0040001N9-00891-01001102721ADDAY111999GF106991031061001501071999KA1999N-01221MD1210031+9999MW1031
0057028640999991956031112004+65783+024583FM-12+001599999V0201801N00311220001CN0400001N9-00111-00281102781ADDAY111999GF101991001001999999041041MD1010021+9999MW1011
0089028640999991956031118004+65783+024583FM-12+001599999V0201401N00311220001CN0400001N9-00721-00781102721ADDAY101999GF101991999001999999041001KA1999M+00001MD1310011+9999MW1031EQDQ01+000002SCOTLC
0070028640999991956031206004+65783+024583FM-12+001599999V0209991C00001220001CN0500001N9-01391-01611102921ADDAY111999GF106991001001999999051041KA1999N-01721MD1210101+9999MW1031
0089028640999991956031218004+65783+024583FM-12+001599999V0209991C00001220001CN0150001N9-01281-01281103201ADDAY101999GF101991999001999999041001KA1999M-00281MD1210071+9999MW1021EQDQ01+000002SCOTLC
0057028640999991956031300004+65783+024583FM-12+001599999V0209991C00001220001CN0005001N9-01781-01891103281ADDAY101999GF100991001001999999001001MD1210051+9999MW1461
0081028640999991956031306004+65783+024583FM-12+001599999V0201101N00101000601CN0030001N9-01221-01281103351ADDAA199000691AY141999GF107991071061000751999999KA1999N-01891MD1210061+9999MW1281
0078028640999991956031312004+65783+024583FM-12+001599999V0209991C00001220001CN0060001N9-00501-00721103311ADDAY101999GF102991001001999999001071MW1041EQDQ01+000042APCTENQ02+000012APC3  
0070028640999991956031318004+65783+024583FM-12+001599999V0209991C00001220001CN0006001N9-01111-01111103181ADDAY101999GF100991001001999999001001KA1999M-00391MD1710051+9999MW1461
0070028640999991956031406004+65783+024583FM-12+001599999V0201601N00261000151CN0040001N9-01111-01221103051ADDAY111999GF107991071061000251999999KA1999N-01391MD1310041+9999MW1031
0057028640999991956031412004+65783+024583FM-12+001599999V0201801N00411000151CN0025001N9-00891-01001103061ADDAY141999GF108991081061000251999999MD1110051+9999MW1021
0070028640999991956031418004+65783+024583FM-12+001599999V0201801N00261000151CN0009001N9-00891-01001103221ADDAY121999GF109991081061000251999999KA1999M-00781MD1210111+9999MW1471
0057028640999991956031500004+65783+024583FM-12+001599999V0209991C00001000151CN0005001N9-01111-01221103451ADDAY141999GF109991091999000251999999MD1210131+9999MW1471
0070028640999991956031506004+65783+024583FM-12+001599999V0209991C00001000601CN0040001N9-01221-01281103681ADDAY141999GF108991081061000751999999KA1999N-01281MD1210121+9999MW1021
0057028640999991956031512004+65783+024583FM-12+001599999V0209991C00001001501CN0060001N9-00781-00781103721ADDAY171999GF108991081061001501999999MD1210051+9999MW1781
0081028640999991956031518004+65783+024583FM-12+001599999V0201101N00211002401CN0070001N9-00721-00781103721ADDAA199000691AY171999GF108991081061002501999999KA1999M-00721MD1410001+9999MW1771
0057028640999991956031600004+65783+024583FM-12+001599999V0200901N00211001501CN0150001N9-00721-00781103821ADDAY121999GF108991081061001501999999MD1210051+9999MW1021
0100028640999991956031606004+65783+024583FM-12+001599999V0200701N00361220001CN0200001N9-00721-00781103851ADDAA199001091AY111999GF105991999001999999071001KA1999N-00891MD1210031+9999MW1011EQDQ01+000002SCOTLC
0057028640999991956031612004+65783+024583FM-12+001599999V0201801N00621220001CN0400001N9-00221-00501104051ADDAY111999GF102991001001999999071051MD1210141+9999MW1011
0070028640999991956031618004+65783+024583FM-12+001599999V0209991C00001220001CN0150001N9-00891-01001104181ADDAY101999GF102991001001999999041041KA1999M-00221MD1310041+9999MW1021
0057028640999991956031700004+65783+024583FM-12+001599999V0209991C00001220001CN0400001N9-01721-01781104311ADDAY101999GF100991001001999999001001MD1210051+9999MW1021
0070028640999991956031706004+65783+024583FM-12+001599999V0201401N00361220001CN0200001N9-01001-01111104351ADDAY101999GF101991001001999999001011KA1999N-02001MD1210031+9999MW1021
0057028640999991956031712004+65783+024583FM-12+001599999V0201801N00311220001CN0200001N9-00391-00611104491ADDAY101999GF107991001001999999071999MD1210031+9999MW1031
0070028640999991956031718004+65783+024583FM-12+001599999V0201801N00311007801CN0400001N9-00281-00391104401ADDAY121999GF107991071051008001999999KA1999M-00281MD1810031+9999MW1021
0070028640999991956031806004+65783+024583FM-12+001599999V0201801N00621004501CN0400001N9-00391-00501104311ADDAY121999GF108991051051004501071999KA1999N-00391MD1310041+9999MW1011
0057028640999991956031812004+65783+024583FM-12+001599999V0201601N00571004501CN0400001N9-00501-00611104291ADDAY121999GF107991061051004501071999MD1410001+9999MW1011
0089028640999991956031818004+65783+024583FM-12+001599999V0201601N00361220001CN0400001N9-00891-01001104151ADDAY121999GF102991999001999999071001KA1999M-00391MD1710051+9999MW1011EQDQ01+000002SCOTLC
0070028640999991956031906004+65783+024583FM-12+001599999V0201601N00411030001CN0250001N9-00721-00781104011ADDAY121999GF108991031051008001071999KA1999N-01001MD1710031+9999MW1021
0057028640999991956031912004+65783+024583FM-12+001599999V0201401N00511030001CN0400001N9-00281-00611103801ADDAY171999GF107991031051008001061999MD1710181+9999MW1021
0081028640999991956031918004+65783+024583FM-12+001599999V0201801N00411002401CN0250001N9-00611-00721103591ADDAA199000691AY171999GF108991061051002501021999KA1999M-00221MD1710041+9999MW1701
0076028640999991956032000004+65783+024583FM-12+001599999V0202001N00511220001CN0400001N9-01001-01111103491ADDAY121999GF102991999001999999071001MD1710041+9999MW1011EQDQ01+000002SCOTLC
0081028640999991956032006004+65783+024583FM-12+001599999V0201801N00511030001CN0400001N9-00891-01001103361ADDAA199000691AY121999GF108991031051004501071999KA1999N-01001MD1710031+9999MW1701
0057028640999991956032012004+65783+024583FM-12+001599999V0201801N00511004501CN0300001N9-00781-00891103321ADDAY121999GF108991081051004501999999MD1810021+9999MW1221
0081028640999991956032018004+65783+024583FM-12+001599999V0201801N00411001501CN0300001N9-00781-00891103121ADDAA199000691AY171999GF105991051071001501001001KA1999M-00721MD1710101+9999MW1011
0057028640999991956032112004+65783+024583FM-12+001599999V0202001N00361220001CN0400001N9-00611-00891103321ADDAY111999GF100991001001999999001001MD1210101+9999MW1011
0089028640999991956032118004+65783+024583FM-12+001599999V0201801N00411220001CN0400001N9-00781-00891103291ADDAY101999GF101991999001999999041001KA1999M-00501MD1610021+9999MW1021EQDQ01+000002SCOTLC
0057028640999991956032200004+65783+024583FM-12+001599999V0201401N00311220001CN0400001N9-01221-01281103391ADDAY101999GF100991001001999999001001MD1210051+9999MW1021
0089028640999991956032206004+65783+024583FM-12+001599999V0201401N00311220001CN0400001N9-01391-01501103411ADDAY101999GF102991999001999999041001KA1999N-01501MD1210021+9999MW1031EQDQ01+000002SCOTLC
0057028640999991956032212004+65783+024583FM-12+001599999V0201801N00361220001CN0500001N9-00501-00891103521ADDAY101999GF101991001001999999001011MD1410001+9999MW1021
0070028640999991956032218004+65783+024583FM-12+001599999V0201601N00261220001CN0500001N9-00611-01001103321ADDAY101999GF100991001001999999001001KA1999M-00281MD1710091+9999MW1011
0070028640999991956032306004+65783+024583FM-12+001599999V0201801N00411220001CN0500001N9-01111-01281103241ADDAY111999GF104991001001999999041091KA1999N-01611MD1710041+9999MW1021
0057028640999991956032312004+65783+024583FM-12+001599999V0201801N00571220001CN0500001N9-00611-00721103111ADDAY111999GF104991001001999999041071MD1710111+9999MW1021
0070028640999991956032318004+65783+024583FM-12+001599999V0201601N00511004501CN0300001N9-00281-00611102841ADDAY121999GF108991061051004501071999KA1999M-00281MD1710141+9999MW1031
0057028640999991956032400004+65783+024583FM-12+001599999V0202001N00721002401CN0200001N9-00391-00391102681ADDAY121999GF108991081061002501999999MD1710071+9999MW1031
0070028640999991956032406004+65783+024583FM-12+001599999V0202301N00461002401CN0070001N9-00721-00781102691ADDAY121999GF108991081061002501999999KA1999N-00721MD1810021+9999MW1021
0057028640999991956032412004+65783+024583FM-12+001599999V0202001N00721002401CN0200001N9-00501-00611102721ADDAY121999GF107991071071002501999999MD1210041+9999MW1011
0091028640999991956032418004+65783+024583FM-12+001599999V0202001N00511220001CN0250001N9-00501-00611102681ADDAY111999GF105991001001999999071999KA1999M-00391MW1011EQDQ01+000042APCTENQ02+000012APC3  
0057028640999991956032500004+65783+024583FM-12+001599999V0201601N00311220001CN0400001N9-01001-01111102651ADDAY111999GF107991001001999999071071MD1710021+9999MW1021
0089028640999991956032506004+65783+024583FM-12+001599999V0201601N00511220001CN0400001N9-00891-01111102551ADDAY111999GF101991999001999999071001KA1999N-01221MD1710051+9999MW1011EQDQ01+000002SCOTLC
0078028640999991956032512004+65783+024583FM-12+001599999V0201801N00621220001CN0400001N9-00281-00281102511ADDAY111999GF106991001001999999041071MW1021EQDQ01+000042APCTENQ02+000022APC3  
0089028640999991956032518004+65783+024583FM-12+001599999V0201801N00311220001CN0400001N9-00611-00781102451ADDAY101999GF101991999001999999041001KA1999M-00111MD1710021+9999MW1011EQDQ01+000002SCOTLC
0057028640999991956032600004+65783+024583FM-12+001599999V0201801N00261220001CN0400001N9-01111-01221102481ADDAY101999GF100991001001999999001001MD1410001+9999MW1021
0070028640999991956032606004+65783+024583FM-12+001599999V0201401N00311000151CN0003001N9-00891-01001102491ADDAY141999GF109991091999000251999999KA1999N-01281MD1710011+9999MW1451
0057028640999991956032612004+65783+024583FM-12+001599999V0202001N00571001501CN0040001N9-00501-00501102481ADDAY121999GF108991081061001501999999MD1810041+9999MW1771
0081028640999991956032618004+65783+024583FM-12+001599999V0202001N00511001501CN0060001N9-00391-00391102221ADDAA199000691AY171999GF108991081061001501999999KA1999M-00281MD1610131+9999MW1221
0057028640999991956032700004+65783+024583FM-12+001599999V0202001N00671001501CN0200001N9-00391-00391101891ADDAY121999GF108991081061001501999999MD1710131+9999MW1021
0070028640999991956032706004+65783+024583FM-12+001599999V0201801N00621220001CN0100001N9-00281-00391101691ADDAY111999GF107991001001999999071071KA1999N-00501MD1610031+9999MW1011
0057028640999991956032712004+65783+024583FM-12+001599999V0202001N00461220001CN0300001N9+00221+00001101611ADDAY111999GF103991001001999999041051MD1710071+9999MW1011
0070028640999991956032718004+65783+024583FM-12+001599999V0202901N00411030001CN0500001N9+00281-00391101581ADDAY121999GF108991021051004501021999KA1999M+00391MD1310041+9999MW1021
0057028640999991956032800004+65783+024583FM-12+001599999V0202301N00151220001CN0500001N9-00111-00281101381ADDAY121999GF106991001001999999041051MD1710161+9999MW1011
0081028640999991956032806004+65783+024583FM-12+001599999V0201801N00151002401CN0030001N9-00221-00221100741ADDAA199000691AY121999GF108991051071002501021999KA1999N-00611MD1710381+9999MW1731
0057028640999991956032812004+65783+024583FM-12+001599999V0202901N00671030001CN0500001N9+00781+00781100461ADDAY111999GF105991041021008001041001MD1210131+9999MW1031
0100028640999991956032818004+65783+024583FM-12+001599999V0203401N00721007801CN0400001N9+00221-00281101541ADDAA199001091AY111999GF106991061051008001999999KA1999M+00781MD1210652+9999MW1031EQDQ01+000652APC3  
0057028640999991956032900004+65783+024583FM-12+001599999V0203601N00361220001CN0500001N9-00111-00221102341ADDAY101999GF100991001001999999001001MD1210341+9999MW1021
0070028640999991956032906004+65783+024583FM-12+001599999V0209991C00001220001CN0500001N9-00721-01001102561ADDAY121999GF107991001001999999071999KA1999N-01221MD1010051+9999MW1011
0057028640999991956032912004+65783+024583FM-12+001599999V0201801N00621220001CN0400001N9-00281-00611102241ADDAY121999GF108991001001999999071999MD1710211+9999MW1021
0081028640999991956032918004+65783+024583FM-12+001599999V0201801N00311030001CN0150001N9-00111-00221101521ADDAA199000691AY121999GF106991031051004501071999KA1999M-00111MD1710421+9999MW1021
0057028640999991956033000004+65783+024583FM-12+001599999V0202301N00211004501CN0400001N9-00281-00281100941ADDAY111999GF107991071051004501999999MD1710201+9999MW1031
0070028640999991956033006004+65783+024583FM-12+001599999V0202901N00311030001CN0500001N9+00221-00111100861ADDAY121999GF107991021051008001071999KA1999N-00501MD1310051+9999MW1021
0057028640999991956033012004+65783+024583FM-12+001599999V0203201N00571220001CN0500001N9+00111-00501101321ADDAY111999GF103991031011008001041001MD1210181+9999MW1031
0070028640999991956033018004+65783+024583FM-12+001599999V0202901N00211220001CN0500001N9-00281-00611101481ADDAY111999GF103991021091008001071001KA1999M+00281MD1310071+9999MW1011
0057028640999991956033100004+65783+024583FM-12+001599999V0202901N00211220001CN0500001N9-00721-00891101601ADDAY101999GF100991001001999999001001MD1210071+9999MW1021
0070028640999991956033106004+65783+024583FM-12+001599999V0202901N00151220001CN0500001N9-01001-01281101401ADDAY111999GF102991001001999999071021KA1999N-01501MD1710131+9999MW1011
0057028640999991956033112004+65783+024583FM-12+001599999V0203201N00361220001CN0500001N9+00001-00721101241ADDAY101999GF102991021011008001041021MD1710071+9999MW1031
0070028640999991956033118004+65783+024583FM-12+001599999V0203201N00151220001CN0500001N9-00281-00891101061ADDAY101999GF102991011041004501041001KA1999M+00111MD1710051+9999MW1031
0057028640999991956040100004+65783+024583FM-12+001599999V0209991C00001220001CN0500001N9-01111-01221100771ADDAY121999GF108991001001999999021999MD1710221+9999MW1021
0070028640999991956040106004+65783+024583FM-12+001599999V0209991C00001220001CN0500001N9-01001-01221100321ADDAY121999GF107991001001999999081071KA1999N-01281MD1710191+9999MW1021
0057028640999991956040112004+65783+024583FM-12+001599999V0203401N00411030001CN0500001N9+00111-00501100021ADDAY121999GF107991021011008001071071MD1710161+9999MW1031
0081028640999991956040118004+65783+024583FM-12+001599999V0200201N00411220001CN0500001N9-00391-00611099891ADDAA199000691AY181999GF101991011091004501001001KA1999M+00111MD1310011+9999MW1261
0057028640999991956040200004+65783+024583FM-12+001599999V0209991C00001220001CN0500001N9-01501-01611100021ADDAY101999GF102991021051004501001001MD1810021+9999MW1031
0081028640999991956040206004+65783+024583FM-12+001599999V0203401N00101220001CN0500001N9-01221-01281100061ADDAA199000391AY101999GF102991001001999999041021KA1999N-01721MD1810011+9999MW1031
0057028640999991956040212004+65783+024583FM-12+001599999V0202901N00261220001CN0500001N9-00391-00781099881ADDAY111999GF102991021011008001041001MD1710131+9999MW1031
0057028640999991956040300004+65783+024583FM-12+001599999V0202301N00151220001CN0500001N9-01781-01891099461ADDAY101999GF100991001001999999001001MD1710061+9999MW1021
0081028640999991956040306004+65783+024583FM-12+001599999V0209991C00001030001CN0040001N9-01501-01611099361ADDAA199000691AY111999GF108991041051004501071999KA1999N-02111MD1510021+9999MW1701
0057028640999991956040312004+65783+024583FM-12+001599999V0203601N00311220001CN0500001N9-00501-01221099441ADDAY101999GF102991011081008001041001MD1110031+9999MW1031
0070028640999991956040318004+65783+024583FM-12+001599999V0209991C00001030001CN0250001N9-01111-01281099511ADDAY111999GF105991031051004501041001KA1999M-00281MD1210041+9999MW1031
0057028640999991956040400004+65783+024583FM-12+001599999V0209991C00001220001CN0400001N9-02111-02281099541ADDAY101999GF100991001001999999001001MD1410001+9999MW1021
0089028640999991956040406004+65783+024583FM-12+001599999V0209991C00001220001CN0500001N9-01781-01891099641ADDAY101999GF101991999001999999041001KA1999N-02391MD1210091+9999MW1021EQDQ01+000002SCOTLC
0057028640999991956040412004+65783+024583FM-12+001599999V0202001N00211220001CN0400001N9-00611-01111099851ADDAY101999GF102991011011008001001051MD1210111+9999MW1051
0089028640999991956040418004+65783+024583FM-12+001599999V0209991C00001220001CN0400001N9-01221-01281099981ADDAY101999GF101991999001999999041001KA1999M-00501MD1210061+9999MW1021EQDQ01+000002SCOTLC
0057028640999991956040500004+65783+024583FM-12+001599999V0202901N00211220001CN0400001N9-02111-02281100201ADDAY101999GF100991001001999999001001MD1210131+9999MW1021
0089028640999991956040506004+65783+024583FM-12+001599999V0202901N00101220001CN0400001N9-01891-02281100371ADDAY101999GF102991999001999999041001KA1999N-02391MD1210101+9999MW1021EQDQ01+000002SCOTLC
0057028640999991956040512004+65783+024583FM-12+001599999V0202001N00361220001CN0500001N9-00501-00891100561ADDAY101999GF101991001001999999001011MD1210101+9999MW1021
0089028640999991956040518004+65783+024583FM-12+001599999V0202301N00101220001CN0500001N9-01111-01281100721ADDAY101999GF101991999001999999041001KA1999M-00391MD1210101+9999MW1011EQDQ01+000002SCOTLC
0076028640999991956040600004+65783+024583FM-12+001599999V0209991C00001220001CN0500001N9-01891-02111100951ADDAY101999GF101991999001999999041001MD1210141+9999MW1031EQDQ01+000002SCOTLC
0070028640999991956040606004+65783+024583FM-12+001599999V0202301N00211220001CN0500001N9-01721-01891101201ADDAY111999GF104991001001999999081021KA1999N-02391MD1210161+9999MW1031
0057028640999991956040612004+65783+024583FM-12+001599999V0201801N00311220001CN0600001N9-00781-01221101601ADDAY111999GF106991001001999999071051MD1210181+9999MW1021
0089028640999991956040618004+65783+024583FM-12+001599999V0201601N00261220001CN0300001N9-01111-01281101891ADDAY111999GF101991999001999999041001KA1999M-00611MD1210191+9999MW1021EQDQ01+000002SCOTLC
0057028640999991956040700004+65783+024583FM-12+001599999V0201601N00151220001CN0500001N9-01781-01891102321ADDAY101999GF100991001001999999001001MD1210171+9999MW1021
0070028640999991956040706004+65783+024583FM-12+001599999V0201601N00211220001CN0500001N9-01501-01721102611ADDAY101999GF100991001001999999001001KA1999N-02001MD1210151+9999MW1021
0078028640999991956040712004+65783+024583FM-12+001599999V0209991C00001220001CN0400001N9-00391-01001102741ADDAY101999GF100991001001999999001001MW1021EQDQ01+000042APCTENQ02+000012APC3  
0057028640999991956040800004+65783+024583FM-12+001599999V0200501N00311220001CN0500001N9-01891-02111102561ADDAY101999GF100991001001999999001001MD1710051+9999MW1021
0070028640999991956040806004+65783+024583FM-12+001599999V0203601N00261220001CN0500001N9-01111-01721102371ADDAY101999GF102991001001999999041011KA1999N-02001MD1710071+9999MW1021
0076028640999991956040812004+65783+024583FM-12+001599999V0200501N00461220001CN0500001N9+00001-00721102001ADDAY101999GF101991999001999999041001MD1710221+9999MW1021EQDQ01+000002SCOTLC
0089028640999991956040818004+65783+024583FM-12+001599999V0200501N00151220001CN0500001N9-00221-00891101741ADDAY101999GF102991999001999999041001KA1999M+00111MD1710111+9999MW1021EQDQ01+000002SCOTLC
0057028640999991956040900004+65783+024583FM-12+001599999V0200201N00361220001CN0400001N9-00391-00611101491ADDAY111999GF107991001001999999071999MD1710101+9999MW1031
0081028640999991956040906004+65783+024583FM-12+001599999V0200701N00571004501CN0400001N9-00281-00611101191ADDAA199000691AY121999GF108991051051004501071999KA1999N-00501MD1710141+9999MW1791
0057028640999991956040912004+65783+024583FM-12+001599999V0200701N00511220001CN0500001N9-00111-00501101011ADDAY111999GF102991001001999999041011MD1710131+9999MW1011
0057028640999991956041000004+65783+024583FM-12+001599999V0200901N00361004501CN9999999N9+99999+99999999999ADDAY121999GF108991081051004501999999MD1710061+9999MW1021
0081028640999991956041006004+65783+024583FM-12+001599999V0200501N00361004501CN0050001N9-00391-00611100741ADDAA199000691AY171999GF108991061071004501021999KA1999N-00391MD1710021+9999MW1731
0057028640999991956041100004+65783+024583FM-12+001599999V0200901N00461004501CN0040001N9-00111-00221100521ADDAY171999GF108991071071004501021999MD1710071+9999MW1731
0081028640999991956041106004+65783+024583FM-12+001599999V0200901N00511004501CN0060001N9-00111-00221100401ADDAA199003091AY171999GF108991061071004501021999KA1999N-00221MD1610031+9999MW1711
0057028640999991956041112004+65783+024583FM-12+001599999V0200401N00721002401CN0050001N9-00111-00221100201ADDAY171999GF108991071071002501021999MD1710121+9999MW1731
0081028640999991956041118004+65783+024583FM-12+001599999V0200501N00511002401CN0040001N9-00221-00281100081ADDAA199001091AY171999GF108991051071002501021999KA1999M+00001MD1310031+9999MW1731
0081028640999991956041206004+65783+024583FM-12+001599999V0200501N00621004501CN0035001N9-00281-00391100351ADDAA199001091AY121999GF108991061071004501021999KA1999N-00391MD1210061+9999MW1731
0081028640999991956041218004+65783+024583FM-12+001599999V0200201N00671002401CN0025001N9-00611-00721100521ADDAA199001091AY171999GF108991071071002501021999KA1999M-00281MD1310051+9999MW1731
0081028640999991956041306004+65783+024583FM-12+001599999V0200701N00771220001CN0500001N9-00891-01391101251ADDAA199003091AY121999GF106991001001999999031999KA1999N-01001MD1210231+9999MW1181
0057028640999991956041312004+65783+024583FM-12+001599999V0200701N00821220001CN0500001N9-00501-01281101401ADDAY101999GF101991001001999999001011MD1210051+9999MW1021
0089028640999991956041318004+65783+024583FM-12+001599999V0200501N00621220001CN0500001N9-00611-00781101641ADDAY101999GF102991999001999999041001KA1999M-00391MD1210131+9999MW1021EQDQ01+000002SCOTLC
0057028640999991956041400004+65783+024583FM-12+001599999V0200701N00411220001CN0500001N9-01281-01611101921ADDAY101999GF100991001001999999001001MD1210181+9999MW1021
0070028640999991956041406004+65783+024583FM-12+001599999V0200701N00511220001CN0500001N9-01391-01781102011ADDAY101999GF101991001001999999001021KA1999N-01611MD1210071+9999MW1021
0057028640999991956041412004+65783+024583FM-12+001599999V0200901N00571220001CN0500001N9-00721-01501101961ADDAY101999GF104991001001999999001061MD1710111+9999MW1031
0070028640999991956041418004+65783+024583FM-12+001599999V0200901N00211220001CN0500001N9-00781-01501101721ADDAY121999GF107991001001999999041071KA1999M-00611MD1610031+9999MW1031
0070028640999991956041506004+65783+024583FM-12+001599999V0200901N00311220001CN0500001N9-01001-01221101661ADDAY111999GF104991001001999999071999KA1999N-01221MD1410001+9999MW1021
0057028640999991956041512004+65783+024583FM-12+001599999V0200901N00621220001CN0500001N9-00391-01001101551ADDAY111999GF106991001001999999071061MD1610051+9999MW1031
0081028640999991956041518004+65783+024583FM-12+001599999V0200701N00361030001CN0500001N9-00391-01111101491ADDAA199000691AY121999GF108991021051008001021999KA1999M-00281MD1410001+9999MW1031
0057028640999991956041600004+65783+024583FM-12+001599999V0200901N00361004501CN0400001N9-00721-01111101461ADDAY121999GF108991081051004501999999MD1710011+9999MW1021
0081028640999991956041606004+65783+024583FM-12+001599999V0201101N00411030001CN0200001N9-00781-01111101601ADDAA199000691AY121999GF108991021051004501021999KA1999N-00891MD1210101+9999MW1711
0057028640999991956041612004+65783+024583FM-12+001599999V0201601N00621220001CN0500001N9-00221-00611101611ADDAY111999GF107991001001999999071999MD1710011+9999MW1021
0070028640999991956041618004+65783+024583FM-12+001599999V0209991C00001220001CN0400001N9-00281-00611101591ADDAY121999GF107991001001999999071999KA1999M-00221MD1310031+9999MW1031
0057028640999991956041700004+65783+024583FM-12+001599999V0201401N00151004501CN0400001N9-00391-00721101681ADDAY121999GF108991081051004501999999MD1210061+9999MW1021
0081028640999991956041706004+65783+024583FM-12+001599999V0201601N00361000601CN0050001N9-00611-00721101801ADDAA199000691AY121999GF108991081061000751999999KA1999N-00721MD1210091+9999MW1221
0057028640999991956041712004+65783+024583FM-12+001599999V0201801N00461001501CN0150001N9-00281-00391102001ADDAY121999GF108991081061001501999999MD1210071+9999MW1021
0081028640999991956041718004+65783+024583FM-12+001599999V0201401N00101002401CN0150001N9-00281-00391102201ADDAA199000691AY171999GF106991051061002501071999KA1999M-00221MD1210111+9999MW1231
0057028640999991956041800004+65783+024583FM-12+001599999V0209991C00001000151CN0003001N9-01001-01111102281ADDAY141999GF109991091999000251999999MD1210011+9999MW1451
0070028640999991956041806004+65783+024583FM-12+001599999V0203601N00361220001CN0250001N9-01001-01111102121ADDAY141999GF107991001001999999041071KA1999N-01221MD1710091+9999MW1031
0076028640999991956041812004+65783+024583FM-12+001599999V0203601N00361220001CN0500001N9+00111-00611101841ADDAY101999GF101991999001999999041001MD1710181+9999MW1011EQDQ01+000002SCOTLC
0070028640999991956041818004+65783+024583FM-12+001599999V0200201N00261220001CN0500001N9-00221-00611101811ADDAY111999GF104991001001999999041021KA1999M+00221MD1510021+9999MW1021
0057028640999991956041900004+65783+024583FM-12+001599999V0209991C00001220001CN0500001N9-01611-01721101841ADDAY101999GF100991001001999999001001MD1310031+9999MW1021
0070028640999991956041906004+65783+024583FM-12+001599999V0201601N00621220001CN0400001N9-00611-00781101511ADDAY111999GF107991001001999999071071KA1999N-01891MD1710241+9999MW1031
0057028640999991956041912004+65783+024583FM-12+001599999V0202001N00771002401CN0017001N9-00111-00111100851ADDAY171999GF108991071071002501021999MD1710341+9999MW1751
0081028640999991956041918004+65783+024583FM-12+001599999V0202001N00671030001CN0500001N9-00111-00221100611ADDAA199002091AY111999GF106991021081004501071001KA1999M+00221MD1710081+9999MW1031
0057028640999991956042000004+65783+024583FM-12+001599999V0202301N00411004501CN0200001N9+00001-00221100981ADDAY121999GF108991081051004501999999MD1210301+9999MW1701
0057028640999991956042012004+65783+024583FM-12+001599999V0203401N00571220001CN0500001N9+00281-00281101861ADDAY101999GF100991001001999999001001MD1210161+9999MW1011
0070028640999991956042018004+65783+024583FM-12+001599999V0209991C00001220001CN0500001N9+00221-00281102011ADDAY101999GF100991001001999999001001KA1999M+00391MD1210071+9999MW1021
0057028640999991956042100004+65783+024583FM-12+001599999V0202301N00101220001CN0400001N9-00781-01001102021ADDAY101999GF104991001001999999041041MD1710021+9999MW1031
0057028640999991956042112004+65783+024583FM-12+001599999V0201801N00411220001CN0500001N9+00001-00281101811ADDAY101999GF101991001001999999001011MD1210031+9999MW1021
0070028640999991956042118004+65783+024583FM-12+001599999V0201801N00211220001CN0500001N9-00111-00221101841ADDAY101999GF102991001001999999041051KA1999M+00111MD1210051+9999MW1011
0070028640999991956042206004+65783+024583FM-12+001599999V0200901N00151220001CN0500001N9+00001-00221102021ADDAY111999GF106991001001999999041021KA1999N-00891MD1110011+9999MW1031
0057028640999991956042212004+65783+024583FM-12+001599999V0201801N00101220001CN0500001N9+00501+00221102021ADDAY111999GF105991001001999999041021MD1710081+9999MW1011
0070028640999991956042218004+65783+024583FM-12+001599999V0202501N00151220001CN0500001N9+00391+00221101941ADDAY111999GF102991001001999999041021KA1999M+00611MD1710011+9999MW1031
0076028640999991956042300004+65783+024583FM-12+001599999V0209991C00001220001CN0500001N9-00611-00721101921ADDAY101999GF101991999001999999041001MD1410001+9999MW1021EQDQ01+000002SCOTLC
0070028640999991956042306004+65783+024583FM-12+001599999V0201601N00411220001CN0500001N9+00001-00391101951ADDAY101999GF102991001001999999001021KA1999N-00781MD1210021+9999MW1011
0057028640999991956042312004+65783+024583FM-12+001599999V0201801N00411220001CN0500001N9+00391-00221101921ADDAY111999GF106991001001999999001071MD1710011+9999MW1031
0070028640999991956042318004+65783+024583FM-12+001599999V0201801N00361220001CN0500001N9+00221-00501101751ADDAY111999GF104991001001999999041021KA1999M+00391MD1710051+9999MW1021
0076028640999991956042400004+65783+024583FM-12+001599999V0201601N00261220001CN0500001N9-00221-00391101601ADDAY111999GF102991999001999999071001MD1710091+9999MW1011EQDQ01+000002SCOTLC
0070028640999991956042406004+65783+024583FM-12+001599999V0201801N00211220001CN0500001N9-00111-00391101411ADDAY111999GF105991001001999999041051KA1999N-00391MD1710081+9999MW1021
0057028640999991956042412004+65783+024583FM-12+001599999V0201801N00311220001CN0500001N9+00281+00001101351ADDAY101999GF103991001001999999041051MD1710041+9999MW1031
0070028640999991956042418004+65783+024583FM-12+001599999V0200201N00311220001CN0500001N9+00391+00111101391ADDAY111999GF103991001001999999071021KA1999M+00611MD1210041+9999MW1011
0043028640999991956042500004+65783+024583FM-12+001599999V0209991C00001004501CN0500001N9+00001-00391101581ADDGF105991051051004501999999MD1210091+9999
0070028640999991956042506004+65783+024583FM-12+001599999V0200201N00211030001CN0500001N9+00281-00391101481ADDAY111999GF106991021051004501071999KA1999N-00111MD1710051+9999MW1011
0057028640999991956042512004+65783+024583FM-12+001599999V0200201N00411007801CN0500001N9+00501-00221101351ADDAY121999GF107991051081008001001071MD1710111+9999MW1011
0070028640999991956042518004+65783+024583FM-12+001599999V0209991C00001030001CN0300001N9-00111-00221101181ADDAY121999GF105991021081008001041051KA1999M+00611MD1710071+9999MW1011
0057028640999991956042600004+65783+024583FM-12+001599999V0203601N00211220001CN0400001N9-00221-00221101191ADDAY111999GF107991001001999999071999MD1410001+9999MW1031
0081028640999991956042606004+65783+024583FM-12+001599999V0203601N00261004501CN0035001N9+00001+00001101281ADDAA199000691AY171999GF108991071061004501021999KA1999N-00281MD1110061+9999MW1711
0057028640999991956042612004+65783+024583FM-12+001599999V0202301N00361220001CN0500001N9+00111-00221101311ADDAY111999GF107991001001999999071999MD1010021+9999MW1011
0070028640999991956042618004+65783+024583FM-12+001599999V0202501N00311220001CN0500001N9-00111-00391101241ADDAY111999GF102991001001999999051051KA1999M+00221MD1710041+9999MW1011
0057028640999991956042700004+65783+024583FM-12+001599999V0203601N00361220001CN0500001N9-00781-00891101311ADDAY111999GF104991001001999999071051MD1210011+9999MW1031
0070028640999991956042706004+65783+024583FM-12+001599999V0203601N00261220001CN0500001N9-00221-00611101451ADDAY111999GF106991001001999999001061KA1999N-01001MD1310061+9999MW1021
0078028640999991956042712004+65783+024583FM-12+001599999V0203401N00311075001CN0500001N9+00501+00001101541ADDAY111999GF105991031011008001001071MW1011EQDQ01+000042APCTENQ02+000012APC3  
0070028640999991956042718004+65783+024583FM-12+001599999V0203201N00101220001CN0500001N9+00111-00281101591ADDAY111999GF102991021041008001001021KA1999M+00501MD1210011+9999MW1011
0057028640999991956042800004+65783+024583FM-12+001599999V0203601N00361220001CN0500001N9-00391-00611101661ADDAY101999GF101991011051008001001001MD1210021+9999MW1021
0070028640999991956042806004+65783+024583FM-12+001599999V0201101N00511220001CN0500001N9+00221-00221101761ADDAY111999GF103991031081008001001001KA1999N-00781MD1210041+9999MW1021
0057028640999991956042812004+65783+024583FM-12+001599999V0201101N00411220001CN0500001N9+00391-00221101841ADDAY111999GF104991031081008001041001MD1110021+9999MW1011
0070028640999991956042818004+65783+024583FM-12+001599999V0201401N00211007801CN0500001N9+00391+00001101801ADDAY111999GF106991061081008001999999KA1999M+00501MD1710021+9999MW1031
0070028640999991956042906004+65783+024583FM-12+001599999V0200901N00311007801CN0400001N9+00111-00221101791ADDAY121999GF107991051051008001071999KA1999N-00111MD1210011+9999MW1031
0057028640999991956042912004+65783+024583FM-12+001599999V0200901N00151002401CN0300001N9+00221+00001101881ADDAY121999GF108991081051002501999999MD1110011+9999MW1021
0081028640999991956042918004+65783+024583FM-12+001599999V0202301N00151004501CN0300001N9+00221+00001101911ADDAA199000691AY161999GF106991061081004501001001KA1999M+00221MD1310041+9999MW1011
0057028640999991956043000004+65783+024583FM-12+001599999V0209991C00001030001CN0100001N9-00501-00501102001ADDAY121999GF107991041051002501071999MD1210041+9999MW1011
0081028640999991956043006004+65783+024583FM-12+001599999V0209991C00001000151CN0030001N9-00111-00111102051ADDAA199000691AY171999GF108991081061000251999999KA1999N-00391MD1210061+9999MW1711
0078028640999991956043012004+65783+024583FM-12+001599999V0202001N00411220001CN0100001N9+00221+00111102121ADDAY111999GF102991021081004501001001MW1011EQDQ01+000022APCTENQ02+000002APC3  
0081028640999991956043018004+65783+024583FM-12+001599999V0202001N00261220001CN0300001N9-00111-00221102151ADDAA199000691AY101999GF101991011051004501041001KA1999M+00391MD1310031+9999MW1021
0057028640999991956050100004+65783+024583FM-12+001599999V0209991C00001220001CN0013001N9-00611-00721102251ADDAY101999GF104991041061000751001001MD1210041+9999MW1101
0070028640999991956050106004+65783+024583FM-12+001599999V0201801N00261220001CN0030001N9-00391-00391102351ADDAY101999GF102991021061002501001001KA1999N-00781MD1210061+9999MW1021
0057028640999991956050112004+65783+024583FM-12+001599999V0201801N00511220001CN0400001N9+00221-00111102311ADDAY101999GF102991021061004501001001MD1710041+9999MW1031
0070028640999991956050118004+65783+024583FM-12+001599999V0201801N00311220001CN0500001N9+00221-00221102191ADDAY111999GF103991001001999999041051KA1999M+00281MD1710071+9999MW1011
0076028640999991956050200004+65783+024583FM-12+001599999V0201601N00361220001CN0400001N9-00281-00501102201ADDAY101999GF101991999001999999071001MD1410001+9999MW1021EQDQ01+000002SCOTLC
0070028640999991956050206004+65783+024583FM-12+001599999V0201801N00411220001CN0500001N9-00221-00391102191ADDAY111999GF107991001001999999041071KA1999N-00391MD1210011+9999MW1031
0057028640999991956050212004+65783+024583FM-12+001599999V0201801N00461220001CN0300001N9+00221-00111102211ADDAY121999GF108991001001999999041071MD1210021+9999MW1031
0070028640999991956050218004+65783+024583FM-12+001599999V0201801N00311220001CN0400001N9+00221+00001102151ADDAY121999GF106991001001999999041071KA1999M+00281MD1810011+9999MW1011
0076028640999991956050300004+65783+024583FM-12+001599999V0201401N00261220001CN0500001N9-00281-00391102141ADDAY101999GF101991999001999999041001MD1710021+9999MW1021EQDQ01+000002SCOTLC
0070028640999991956050306004+65783+024583FM-12+001599999V0201801N00411220001CN0500001N9+00001-00391102021ADDAY101999GF101991001001999999001011KA1999N-00391MD1710051+9999MW1011
0057028640999991956050312004+65783+024583FM-12+001599999V0201801N00571220001CN0500001N9+00391-00111101861ADDAY121999GF106991001001999999051041MD1710071+9999MW1021
0070028640999991956050318004+65783+024583FM-12+001599999V0201401N00311030001CN0500001N9+00221+00001101581ADDAY121999GF107991021051004501071999KA1999M+00501MD1710111+9999MW1031
0057028640999991956050400004+65783+024583FM-12+001599999V0201401N00311030001CN0150001N9-00111-00111101401ADDAY111999GF106991031051004501071999MD1710091+9999MW1031
0070028640999991956050406004+65783+024583FM-12+001599999V0201801N00261220001CN0300001N9+00001+00001101311ADDAY141999GF103991021061001501071001KA1999N-00281MD1010041+9999MW1281
0057028640999991956050412004+65783+024583FM-12+001599999V0201601N00411220001CN0300001N9+00391+00221101251ADDAY121999GF107991001001999999041051MD1710061+9999MW1021
0070028640999991956050418004+65783+024583FM-12+001599999V0201801N00261030001CN0300001N9+00281+00221101141ADDAY121999GF108991041051004501071999KA1999M+00501MD1610011+9999MW1031
0078028640999991956050500004+65783+024583FM-12+001599999V0202301N00101030001CN0300001N9+00281+00221101171ADDAY121999GF107991041051004501071999MW1031EQDQ01+000042APCTENQ02+000012APC3  
0089028640999991956050506004+65783+024583FM-12+001599999V0202701N00211220001CN0500001N9+00611+00111101201ADDAY111999GF103991999051008001001001KA1999N+00221MD1210021+9999MW1011EQDQ01+000022SCOTLC
0057028640999991956050512004+65783+024583FM-12+001599999V0202501N00361220001CN0500001N9+00781+00221101261ADDAY101999GF102991021011008001041001MD1210031+9999MW1031
0070028640999991956050518004+65783+024583FM-12+001599999V0201601N00211030001CN0500001N9+00391+00221101261ADDAY101999GF106991031091004501041051KA1999M+00891MD1810041+9999MW1141
0057028640999991956050600004+65783+024583FM-12+001599999V0201401N00101220001CN0500001N9-00111-00221101171ADDAY111999GF104991011051004501071001MD1710091+9999MW1011
0070028640999991956050606004+65783+024583FM-12+001599999V0201801N00101030001CN0500001N9+00281+00111101001ADDAY121999GF107991021051008001071999KA1999N-00221MD1710061+9999MW1021
0057028640999991956050612004+65783+024583FM-12+001599999V0201801N00211220001CN0500001N9+00611+00221100911ADDAY101999GF102991001001999999001041MD1710031+9999MW1011
0070028640999991956050618004+65783+024583FM-12+001599999V0201801N00211220001CN0500001N9+00501+00281100821ADDAY111999GF104991011041008001041051KA1999M+00781MD1710081+9999MW1011
0057028640999991956050700004+65783+024583FM-12+001599999V0201601N00101220001CN0400001N9-00111-00111100721ADDAY121999GF104991001001999999071051MD1710051+9999MW1011
0070028640999991956050706004+65783+024583FM-12+001599999V0202501N00261220001CN0500001N9+00501+00221100541ADDAY111999GF104991001001999999041051KA1999N-00221MD1710091+9999MW1011
0057028640999991956050712004+65783+024583FM-12+001599999V0202301N00411220001CN0500001N9+00501+00221100391ADDAY121999GF105991001001999999041051MD1710081+9999MW1011
0070028640999991956050718004+65783+024583FM-12+001599999V0209991C00001220001CN0500001N9+00611+00111100111ADDAY111999GF105991001001999999071051KA1999M+00781MD1710151+9999MW1031
0057028640999991956050800004+65783+024583FM-12+001599999V0200201N00261030001CN0500001N9+00001-00111100061ADDAY121999GF107991011081004501051051MD1710041+9999MW1021
0070028640999991956050806004+65783+024583FM-12+001599999V0203601N00101075001CN0500001N9+00501+00111100091ADDAY121999GF106991011081008001071061KA1999N-00111MD1210071+9999MW1011
0057028640999991956050812004+65783+024583FM-12+001599999V0202301N00211030001CN0500001N9+01001+00391100291ADDAY111999GF106991031021008001041051MD1210131+9999MW1011
0070028640999991956050818004+65783+024583FM-12+001599999V0202301N00051220001CN0500001N9+00781+00391100391ADDAY111999GF104991031081008001001051KA1999M+01221MD1210041+9999MW1021
0057028640999991956050900004+65783+024583FM-12+001599999V0209991C00001220001CN0500001N9-00111-00111100451ADDAY111999GF102991011081004501041001MD1410001+9999MW1021
0070028640999991956050906004+65783+024583FM-12+001599999V0209991C00001220001CN0500001N9+00781+00281100541ADDAY111999GF104991021081008001071001KA1999N-00221MD1210061+9999MW1021
0057028640999991956050912004+65783+024583FM-12+001599999V0202301N00311030001CN0500001N9+01111+00391100771ADDAY111999GF106991021081008001061051MD1210091+9999MW1031
0081028640999991956050918004+65783+024583FM-12+001599999V0203601N00361030001CN0500001N9+00611+00281101121ADDAA199000691AY121999GF106991041081004501071021KA1999M+01281MD1210191+9999MW1011
0076028640999991956051000004+65783+024583FM-12+001599999V0203601N00411220001CN0500001N9+00111+00111101401ADDAY111999GF102991999001999999071001MD1210111+9999MW1011EQDQ01+000002SCOTLC
0089028640999991956051006004+65783+024583FM-12+001599999V0203601N00411220001CN0500001N9+00281-00221101491ADDAY101999GF101991999001999999041001KA1999N-00111MD1210031+9999MW1021EQDQ01+000002SCOTLC
0057028640999991956051012004+65783+024583FM-12+001599999V0200201N00511220001CN0500001N9+00611+00001101481ADDAY101999GF102991021011012501041001MD1410001+9999MW1021
0070028640999991956051018004+65783+024583FM-12+001599999V0200401N00461220001CN0500001N9+00501+00001101581ADDAY101999GF101991011041008001001021KA1999M+00721MD1210091+9999MW1021
0057028640999991956051100004+65783+024583FM-12+001599999V0200201N00261220001CN0500001N9-00221-00501101861ADDAY101999GF101991001001999999041021MD1210151+9999MW1021
0070028640999991956051106004+65783+024583FM-12+001599999V0200501N00511220001CN0500001N9+00221-00501101971ADDAY101999GF102991021011008001041001KA1999N-00391MD1410001+9999MW1031
0057028640999991956051112004+65783+024583FM-12+001599999V0202301N00361220001CN0500001N9+00501-00281101861ADDAY101999GF100991001001999999001001MD1710051+9999MW1021
0089028640999991956051118004+65783+024583FM-12+001599999V0201101N00361220001CN0500001N9+00721-00221101511ADDAY101999GF101991999001999999041001KA1999M+00721MD1710181+9999MW1021EQDQ01+000002SCOTLC
0057028640999991956051200004+65783+024583FM-12+001599999V0201401N00871220001CN0500001N9+00391-00391101361ADDAY101999GF101991001001999999001051MD1710091+9999MW1021
0089028640999991956051206004+65783+024583FM-12+001599999V0201601N00771220001CN0500001N9+00501+00001101261ADDAY101999GF101991999001999999041001KA1999N+00111MD1610031+9999MW1021EQDQ01+000002SCOTLC
0057028640999991956051212004+65783+024583FM-12+001599999V0201601N00721030001CN0500001N9+01221+00281101061ADDAY111999GF105991031081008001061001MD1710131+9999MW1031
0070028640999991956051218004+65783+024583FM-12+001599999V0201801N00461220001CN0500001N9+00721+00221100921ADDAY101999GF104991011081008001071001KA1999M+01281MD1410001+9999MW1031
0057028640999991956051300004+65783+024583FM-12+001599999V0201601N00511220001CN0500001N9+00391+00221100981ADDAY111999GF102991021051008001001001MD1410001+9999MW1021
0081028640999991956051306004+65783+024583FM-12+001599999V0202001N00671004501CN0500001N9+00391+00221101081ADDAA199000691AY161999GF106991051081004501061999KA1999N+00281MD1210091+9999MW1031
0057028640999991956051312004+65783+024583FM-12+001599999V0202001N00621000601CN0019001N9+00391+00391101201ADDAY121999GF108991081061000751999999MD1210061+9999MW1101
0091028640999991956051318004+65783+024583FM-12+001599999V0201801N00361220001CN0300001N9+00281+00221101251ADDAY101999GF103991021021004501041001KA1999M+00611MW1011EQDQ01+000042APCTENQ02+000012APC3  
0076028640999991956051400004+65783+024583FM-12+001599999V0201401N00151220001CN0300001N9-00111-00111101281ADDAY101999GF101991999001999999041001MD1210031+9999MW1021EQDQ01+000002SCOTLC
0091028640999991956051406004+65783+024583FM-12+001599999V0201801N00361220001CN0500001N9+00391+00111101261ADDAY111999GF106991001001999999001021KA1999N-00111MW1031EQDQ01+000022APCTENQ02+000002APC3  
0070028640999991956051418004+65783+024583FM-12+001599999V0201401N00311012301CN0500001N9+01281+00221100551ADDAY121999GF107991061081012501071999KA1999M+01501MD1710221+9999MW1031
0057028640999991956051500004+65783+024583FM-12+001599999V0201101N00151007801CN0200001N9+00501+00281100391ADDAY161999GF108991051081008001021999MD1710091+9999MW1611
0081028640999991956051506004+65783+024583FM-12+001599999V0201101N00311004501CN0400001N9+00781+00391100111ADDAA199000591AY161999GF108991051081004501021999KA1999N+00391MD1710121+9999MW1611
0057028640999991956051512004+65783+024583FM-12+001599999V0201401N00361000151CN0040001N9+00281+00281100121ADDAY141999GF108991081071000251999999MD1210031+9999MW1021
0081028640999991956051518004+65783+024583FM-12+001599999V0201801N00101000601CN0030001N9+00221+00221100291ADDAA199001091AY121999GF108991081061000751999999KA1999M+00781MD1210101+9999MW1511
0057028640999991956051600004+65783+024583FM-12+001599999V0202001N00101000151CN0000001N9+00111+00111100311ADDAY141999GF109991091999000251999999MD1710011+9999MW1471
0081028640999991956051606004+65783+024583FM-12+001599999V0201401N00311000601CN0050001N9+00281+00281100321ADDAA199000691AY141999GF108991081061000751999999KA1999N+00001MD1610011+9999MW1021
0057028640999991956051612004+65783+024583FM-12+001599999V0201801N00411220001CN0500001N9+01111+00001100091ADDAY111999GF102991021011012501041011MD1710161+9999MW1021
0081028640999991956051618004+65783+024583FM-12+001599999V0200901N00671002401CN0200001N9+00611+00501099641ADDAA199001091AY161999GF108991061071002501021999KA1999M+01221MD1710141+9999MW1611
0057028640999991956051700004+65783+024583FM-12+001599999V0201801N00411000601CN0035001N9+00391+00391099241ADDAY161999GF108991081071000751999999MD1710141+9999MW1021
0081028640999991956051706004+65783+024583FM-12+001599999V0201801N00511000151CN0002001N9+00111+00111099291ADDAA199004091AY141999GF109991091999000251999999KA1999N+00001MD1310041+9999MW1451
0057028640999991956051712004+65783+024583FM-12+001599999V0202301N00461220001CN0250001N9+00501+00221099411ADDAY111999GF104991031021002501041011MD1210081+9999MW1011
0070028640999991956051718004+65783+024583FM-12+001599999V0201801N00311220001CN0500001N9+00501+00001099491ADDAY101999GF102991011031004501071001KA1999M+00721MD1210031+9999MW1021
0057028640999991956051800004+65783+024583FM-12+001599999V0201401N00261220001CN0500001N9-00111-00221099591ADDAY101999GF102991011081008001071001MD1410001+9999MW1031
0070028640999991956051806004+65783+024583FM-12+001599999V0201601N00621220001CN0500001N9+00611+00221099621ADDAY101999GF102991011011008001041001KA1999N-00221MD1210031+9999MW1011
0057028640999991956051812004+65783+024583FM-12+001599999V0201801N00411220001CN0500001N9+00781+00281099751ADDAY101999GF102991021091012501041011MD1110021+9999MW1021
0070028640999991956051818004+65783+024583FM-12+001599999V0201801N00361220001CN0500001N9+00391+00221099861ADDAY111999GF102991011091008001041001KA1999M+00891MD1210061+9999MW1011
0043028640999991956051900004+65783+024583FM-12+001599999V0201401N00211002401CN0200001N9+00001+00001099971ADDAY111999GF108991081051002501999999MW1031
0070028640999991956051906004+65783+024583FM-12+001599999V0201801N00211001501CN0050001N9+00281+00221100061ADDAY121999GF108991081051001501999999KA1999N-00111MD1210101+9999MW1021
0057028640999991956051912004+65783+024583FM-12+001599999V0202001N00261220001CN0300001N9+00721+00221100191ADDAY111999GF102991021091008001061021MD1010021+9999MW1021
0070028640999991956051918004+65783+024583FM-12+001599999V0202001N002619999999N0080001N9+00281+00221100181ADDAY111999GF199999041091999999001021KA1999M+00891MD1410001+9999MW1031
0057028640999991956052000004+65783+024583FM-12+001599999V0209991C00001000151CN0006001N9-00281-00281100201ADDAY141999GF109991091999000251999999MD1710031+9999MW1471
0081028640999991956052006004+65783+024583FM-12+001599999V0203601N00361001501CN0100001N9+00281+00111100251ADDAA199005091AY161999GF108991061071001501071999KA1999N-00281MD1110061+9999MW1611
0043028640999991956052012004+65783+024583FM-12+001599999V0200201N00721030001CN0500001N9+00891-00391100401ADDAY111999GF105991041081008001041001MW1011
0081028640999991956052018004+65783+024583FM-12+001599999V0203401N00511220001CN0500001N9+00611-00501100601ADDAA199000691AY111999GF102991021041008001071001KA1999M+01001MD1110091+9999MW1021
0057028640999991956052100004+65783+024583FM-12+001599999V0203201N00311007801CN0500001N9+00221-00611100801ADDAY121999GF107991071051008001999999MD1210081+9999MW1031
0057028640999991956052112004+65783+024583FM-12+001599999V0202301N00571220001CN0500001N9+00721-00501101221ADDAY101999GF103991021011012501071061MD1210091+9999MW1021
0070028640999991956052118004+65783+024583FM-12+001599999V0202701N00411030001CN0500001N9+00391-00281101381ADDAY111999GF106991011041008001041071KA1999M+00781MD1210061+9999MW1031
0057028640999991956052200004+65783+024583FM-12+001599999V0202001N00261030001CN0500001N9+00111-00111101391ADDAY121999GF107991021051008001071071MD1710011+9999MW1021
0070028640999991956052206004+65783+024583FM-12+001599999V0201601N00361007801CN0400001N9+00391+00111101451ADDAY121999GF107991051051008001071999KA1999N+00111MD1210061+9999MW1011
0057028640999991956052212004+65783+024583FM-12+001599999V0202001N00311220001CN0500001N9+00891+00501101581ADDAY111999GF104991021011008001041001MD1210031+9999MW1031
0070028640999991956052218004+65783+024583FM-12+001599999V0202301N00311220001CN0500001N9+00611+00001101681ADDAY111999GF103991021081004501041011KA1999M+00891MD1310081+9999MW1021
0057028640999991956052300004+65783+024583FM-12+001599999V0201401N00151220001CN0400001N9+00111+00111101851ADDAY101999GF102991021051008001041001MD1210121+9999MW1111
0070028640999991956052306004+65783+024583FM-12+001599999V0209991C00001220001CN0500001N9+00721+00221101991ADDAY121999GF106991001001999999071061KA1999N+00001MD1210051+9999MW1011
0051028640999991956052312004+65783+024583FM-12+001599999V0202001N00411220001CN0200001N9+01001+00281102001ADDAY101999GF102991021021008001041001MD1410001+9999
0070028640999991956052318004+65783+024583FM-12+001599999V0201801N00261220001CN0500001N9+00891+00281101911ADDAY111999GF104991031081008001061051KA1999M+01221MD1710061+9999MW1021
0070028640999991956052406004+65783+024583FM-12+001599999V0202001N00571030001CN0500001N9+00781+00111101711ADDAY121999GF105991011051008001071001KA1999N+00221MD1710071+9999MW1011
0057028640999991956052412004+65783+024583FM-12+001599999V0202001N00511220001CN0500001N9+00721+00221101591ADDAY121999GF107991001001999999071071MD1710081+9999MW1011
0070028640999991956052418004+65783+024583FM-12+001599999V0202001N00151075001CN0500001N9+00781+00221101321ADDAY111999GF105991011011012501041061KA1999M+01111MD1710091+9999MW1031
0057028640999991956052500004+65783+024583FM-12+001599999V0201401N00311220001CN0200001N9+00281+00221101221ADDAY121999GF108991001001999999021999MD1710091+9999MW1021
0070028640999991956052506004+65783+024583FM-12+001599999V0201401N00261030001CN0500001N9+00611+00281101191ADDAY121999GF108991021051012501021999KA1999N+00111MD1710051+9999MW1021
0057028640999991956052512004+65783+024583FM-12+001599999V0202001N00621220001CN0400001N9+00781+00111101061ADDAY111999GF106991001001999999071051MD1710061+9999MW1031
0070028640999991956052518004+65783+024583FM-12+001599999V0202301N00571007801CN0150001N9+00611+00281100751ADDAY121999GF107991071081008001999999KA1999M+00891MD1710151+9999MW1041
0057028640999991956052600004+65783+024583FM-12+001599999V0201601N00151004501CN0100001N9+00391+00391100851ADDAY161999GF108991071071004501021999MD1210081+9999MW1611
0057028640999991956052612004+65783+024583FM-12+001599999V0202301N00621030001CN0400001N9+01281+00221100961ADDAY111999GF106991031081012501041051MD1010041+9999MW1021
0070028640999991956052618004+65783+024583FM-12+001599999V0202501N00261007801CN0500001N9+00781+00221100751ADDAY111999GF106991061081008001061999KA1999M+01281MD1710131+9999MW1031
0057028640999991956052700004+65783+024583FM-12+001599999V0203201N00311220001CN0500001N9+00501+00001100621ADDAY111999GF102991011051008001001051MD1710071+9999MW1011
0070028640999991956052706004+65783+024583FM-12+001599999V0203401N00261220001CN0500001N9+01001+00111100561ADDAY101999GF102991011011008001041021KA1999N+00281MD1210031+9999MW1031
0057028640999991956052712004+65783+024583FM-12+001599999V0203601N00411007801CN0500001N9+01391+00111100721ADDAY121999GF106991061081008001999999MD1210081+9999MW1031
0081028640999991956052718004+65783+024583FM-12+001599999V0203601N00411220001CN0500001N9+01281+00001101041ADDAA199000691AY101999GF102991021081012501001001KA1999M+01501MD1210201+9999MW1011
0076028640999991956052800004+65783+024583FM-12+001599999V0203601N00261220001CN0500001N9+00111-00111101421ADDAY101999GF102991999001999999071001MD1210151+9999MW1031EQDQ01+000002SCOTLC
0070028640999991956052806004+65783+024583FM-12+001599999V0201601N00311220001CN0500001N9+00891+00001101461ADDAY111999GF102991001001999999071051KA1999N-00111MD1710041+9999MW1011
0057028640999991956052812004+65783+024583FM-12+001599999V0201801N00571030001CN0500001N9+01001+00221101241ADDAY121999GF107991011051008001071999MD1710171+9999MW1021
0070028640999991956052818004+65783+024583FM-12+001599999V0202001N00621030001CN0500001N9+00721+00501100881ADDAY111999GF106991041051008001041071KA1999M+01221MD1710171+9999MW1031
0076028640999991956052900004+65783+024583FM-12+001599999V0201401N00211220001CN0500001N9+00221+00221100821ADDAY111999GF104991999001999999071001MD1210031+9999MW1031EQDQ01+000002SCOTLC
0081028640999991956052906004+65783+024583FM-12+001599999V0202001N00211007801CN0300001N9+00781+00391100891ADDAA199000691AY161999GF108991081081008001999999KA1999N+00111MD1210041+9999MW1211
0057028640999991956052912004+65783+024583FM-12+001599999V0202001N00511030001CN0300001N9+00781+00611100801ADDAY121999GF107991031081002501071051MD1710101+9999MW1031
0070028640999991956052918004+65783+024583FM-12+001599999V0201801N00511220001CN0050001N9+00611+00501100481ADDAY111999GF102991021071004501071001KA1999M+00891MD1710111+9999MW1011
0057028640999991956053000004+65783+024583FM-12+001599999V0201401N00151220001CN0500001N9+00611+00111100311ADDAY111999GF102991021051008001001001MD1710071+9999MW1011
0070028640999991956053006004+65783+024583FM-12+001599999V0202701N00621030001CN0500001N9+00781+00391100291ADDAY111999GF105991031021004501061001KA1999N+00111MD1310021+9999MW1031
0057028640999991956053012004+65783+024583FM-12+001599999V0202901N00931220001CN0500001N9+01111-00611100751ADDAY181999GF104991041081008001001001MD1210271+9999MW1031
0081028640999991956053018004+65783+024583FM-12+001599999V0203201N00511007801CN0500001N9+01001-00221101261ADDAA199000691AY121999GF105991051081008001001001KA1999M+01281MD1210231+9999MW1021
0057028640999991956053100004+65783+024583FM-12+001599999V0202701N00361220001CN0500001N9+00281-00391101571ADDAY101999GF101991011051008001001001MD1210101+9999MW1021
0070028640999991956053106004+65783+024583FM-12+001599999V0202701N00311220001CN0500001N9+00721-00281101591ADDAY111999GF106991001001999999071061KA1999N+00281MD1010011+9999MW1011
0057028640999991956053112004+65783+024583FM-12+001599999V0202001N00671030001CN0500001N9+00781-00221101491ADDAY111999GF106991011011008001051051MD1710071+9999MW1011
0070028640999991956053118004+65783+024583FM-12+001599999V0201101N00411004501CN0500001N9+00721-00281101041ADDAY121999GF108991051071004501021999KA1999M+01001MD1710261+9999MW1021
0057028640999991956060100004+65783+024583FM-12+001599999V0201401N00151004501CN0300001N9+00721+00001100601ADDAY121999GF108991061071004501021999MD1710241+9999MW1031
0081028640999991956060106004+65783+024583FM-12+001599999V0200901N00261030001CN0500001N9+00891+00391100291ADDAA199000691AY121999GF106991041051008001071999KA1999N+00611MD1710111+9999MW1021
0078028640999991956060112004+65783+024583FM-12+001599999V0202301N00461030001CN0500001N9+01281+00501100221ADDAY121999GF107991021021008001041071MW1021EQDQ01+000042APCTENQ02+000012APC3  
0070028640999991956060118004+65783+024583FM-12+001599999V0201801N00411004501CN0400001N9+00781+00281099991ADDAY121999GF108991061051004501021999KA1999M+01501MD1710151+9999MW1031
0057028640999991956060200004+65783+024583FM-12+001599999V0201401N00411001501CN0040001N9+01001+01001099121ADDAY161999GF108991071071001501021999MD1710481+9999MW1631
0081028640999991956060206004+65783+024583FM-12+001599999V0202701N00311000151CN0025001N9+00611+00611098591ADDAA199007091AY141999GF108991071061000251021999KA1999N+00391MD1710191+9999MW1511
0057028640999991956060212004+65783+024583FM-12+001599999V0202701N00821004501CN0300001N9+01001+00501099351ADDAY161999GF108991071051004501021999MD1210431+9999MW1601
0081028640999991956060218004+65783+024583FM-12+001599999V0201801N00411004501CN0500001N9+01111+00501099861ADDAA199001091AY121999GF106991061081004501999999KA1999M+01281MD1210141+9999MW1021
0057028640999991956060300004+65783+024583FM-12+001599999V0209991C00001220001CN0500001N9+00281+00281099971ADDAY111999GF101991011051004501001001MD1210041+9999MW1011
0070028640999991956060306004+65783+024583FM-12+001599999V0201101N00261220001CN0500001N9+01001+00391100061ADDAY101999GF102991011081008001041001KA1999N+00221MD1210071+9999MW1021
0057028640999991956060312004+65783+024583FM-12+001599999V0202301N00361075001CN0500001N9+01111+00611100111ADDAY121999GF107991021081008001001071MD1210021+9999MW1011
0070028640999991956060318004+65783+024583FM-12+001599999V0201801N00261004501CN0500001N9+01001+00721100041ADDAY111999GF107991061081004501071999KA1999M+01391MD1810031+9999MW1021
0043028640999991956060400004+65783+024583FM-12+001599999V0209991C00001000151CN0003001N9+00611+00611099981ADDAY141999GF109991091999000251999999MW1471
0081028640999991956060406004+65783+024583FM-12+001599999V0201401N00411004501CN0250001N9+00891+00721099791ADDAA199000691AY121999GF108991061071004501021999KA1999N+00501MD1710111+9999MW1601
0057028640999991956060412004+65783+024583FM-12+001599999V0201601N00311001501CN0100001N9+00721+00611099851ADDAY161999GF108991081071001501999999MD1310021+9999MW1031
0081028640999991956060418004+65783+024583FM-12+001599999V0201601N00361004501CN0150001N9+00611+00501100051ADDAA199001091AY121999GF107991051051004501071999KA1999M+01001MD1210101+9999MW1601
0057028640999991956060500004+65783+024583FM-12+001599999V0201801N00101220001CN0500001N9+00611+00611100181ADDAY111999GF101991011051004501001011MD1210071+9999MW1111
0070028640999991956060506004+65783+024583FM-12+001599999V0202001N00411220001CN0500001N9+00891+00391100391ADDAY101999GF102991001001999999081021KA1999N+00221MD1210141+9999MW1031
0057028640999991956060512004+65783+024583FM-12+001599999V0201401N00461030001CN0500001N9+01221+00221100381ADDAY121999GF108991011081012501011999MD1810091+9999MW1031
0081028640999991956060518004+65783+024583FM-12+001599999V0201101N00461004501CN0060001N9+01001+00891099811ADDAA199006091AY161999GF108991071071004501021999KA1999M+01281MD1710351+9999MW1631
0057028640999991956060600004+65783+024583FM-12+001599999V0202001N00771001501CN0100001N9+00611+00611099401ADDAY161999GF108991081071001501999999MD1610011+9999MW1211
0081028640999991956060606004+65783+024583FM-12+001599999V0202001N00821220001CN0500001N9+00721+00501099601ADDAA199005091AY101999GF104991011011004501071051KA1999N+00611MD1210121+9999MW1031
0057028640999991956060612004+65783+024583FM-12+001599999V02099999999999999999N0500001N9+00781+00391999999ADDAY111999GF105991999091004501071999MD1110041+9999MW1011
0070028640999991956060618004+65783+024583FM-12+001599999V0202301N00621004501CN0500001N9+00891+00391100051ADDAY111999GF106991051081004501051001KA1999M+01001MD1210221+9999MW1031
0076028640999991956060700004+65783+024583FM-12+001599999V0202701N00261220001CN0500001N9+00891+00611100691ADDAY101999GF101991999001999999041001MD1210331+9999MW1011EQDQ01+000002SCOTLC
0070028640999991956060706004+65783+024583FM-12+001599999V0202701N00151220001CN0500001N9+01221+00501101381ADDAY101999GF102991011011008001001011KA1999N+00721MD1210301+9999MW1031
0057028640999991956060712004+65783+024583FM-12+001599999V0202301N00571220001CN0500001N9+01221+00501101781ADDAY111999GF105991011011008001001041MD1210111+9999MW1031
