0057028640999991954010100004+65783+024583FM-12+001599999V0202301N00461220001CN0400001N9-00281-00501101041ADDAY101999GF100991001001999999001001MD1310061+9999MW1021
0095028640999991954010106004+65783+024583FM-12+001599999V0202301N00571220001CN0400001N9-00221-00391101021ADDAY101999GF101991999001999999071001IA1199KA1999N-00611MD1810091+9999MW1031EQDQ01+000002SCOTLC
0057028640999991954010112004+65783+024583FM-12+001599999V0202301N01031220001CN0200001N9+00111+00111100541ADDAY121999GF108991001001999999071999MD1810291+9999MW1031
0095028640999991954010118004+65783+024583FM-12+001599999V0202301N00721220001CN0400001N9+00111-00111100351ADDAY121999GF108991999001999999071001IA1199KA1999M+00111MD1810041+9999MW1031EQDQ01+000002SCOTLC
0057028640999991954010200004+65783+024583FM-12+001599999V0202701N00211220001CN0400001N9+00001-00111100241ADDAY121999GF108991001001999999071999MD1810051+9999MW1021
0076028640999991954010206004+65783+024583FM-12+001599999V0202301N00311220001CN0400001N9-00111-00221100011ADDAY111999GF107991001001999999071999IA1199KA1999N-00391MD1810131+9999MW1031
0057028640999991954010212004+65783+024583FM-12+001599999V0209991C00001004501CN0400001N9-00221-00281099601ADDAY171999GF108991081051004501999999MD1810251+9999MW1701
0087028640999991954010218004+65783+024583FM-12+001599999V0200201N00461000151CN0034001N9-00221-00281099151ADDAA199001091AY171999GF109991091999000251999999IA1319KA1999M+00111MD1810141+9999MW1731
0057028640999991954010300004+65783+024583FM-12+001599999V0200201N00621004501CN0200001N9-00391-00611099581ADDAY121999GF108991061051004501021999MD1310331+9999MW1021
0087028640999991954010306004+65783+024583FM-12+001599999V0200201N00931220001CN0400001N9-00221-00501100661ADDAA199000391AY111999GF108991001001999999071999IA1319KA1999N-00611MD1310461+9999MW1031
0092028640999991954010312004+65783+024583FM-12+001599999V0200201N006219999999N0400001N9-00501-01001101882ADDAY101999GF199999999051004501071001MD1310552+9999MW1021EQDQ01+101883APOSLPQ02+000552APC3  
0057028640999991954010400004+65783+024583FM-12+001599999V0203601N00211220001CN0400001N9-01721-01891102171ADDAY101999GF100991001001999999001001MD1310161+9999MW1021
0062028640999991954010418004+65783+024583FM-12+001599999V0202301N00821220001CN0400001N9-00391-00781101391ADDAY111999GF102991011051004501071001IA1319KA1999M-00391MW1011
0057028640999991954010500004+65783+024583FM-12+001599999V0202701N00411220001CN0400001N9-00221-00391101011ADDAY121999GF108991001001999999071999MD1810111+9999MW1021
0076028640999991954010506004+65783+024583FM-12+001599999V0202301N00621012301CN0200001N9+00001-00221100411ADDAY161999GF108991081051012501999999IA1209KA1999N-00501MD1810411+9999MW1791
0057028640999991954010512004+65783+024583FM-12+001599999V0202301N00931220001CN0400001N9+00281+00001100041ADDAY121999GF108991001001999999071999MD1810151+9999MW1021
0076028640999991954010518004+65783+024583FM-12+001599999V0202301N01131030001CN0400001N9+00391+00111099801ADDAY121999GF108991021051008001071999IA1209KA1999M+00391MD1810161+9999MW1021
0057028640999991954010600004+65783+024583FM-12+001599999V0202001N00721220001CN0400001N9+00281+00111099661ADDAY121999GF108991001001999999071999MD1990101+9999MW1021
0076028640999991954010606004+65783+024583FM-12+001599999V0202401N00721220001CN0400001N9+00221+00111099621ADDAY121999GF108991001001999999071999IA1199KA1999N+00221MD1210081+9999MW1021
0057028640999991954010612004+65783+024583FM-12+001599999V0202001N00821002401CN0110001N9+00111+00001099481ADDAY171999GF108991071071002501021999MD1810131+9999MW1731
0087028640999991954010618004+65783+024583FM-12+001599999V0202001N00671002401CN0200001N9+00111+00001099391ADDAA199000691AY121999GF108991061071002501021999IA1199KA1999M+00281MD1810011+9999MW1021
0076028640999991954010700004+65783+024583FM-12+001599999V0202301N00671220001CN0400001N9-00111-00391099641ADDAY121999GF102991999001999999071001MD1310161+9999MW1011EQDQ01+000002SCOTLC
0095028640999991954010706004+65783+024583FM-12+001599999V0202301N00311220001CN0400001N9-00611-00891100151ADDAY101999GF101991999001999999041001IA1199KA1999N-00611MD1310271+9999MW1031EQDQ01+000002SCOTLC
0076028640999991954010712004+65783+024583FM-12+001599999V0202901N00211220001CN0400001N9-00611-01111100811ADDAY111999GF103991999001999999041001MD1310311+9999MW1031EQDQ01+000002SCOTLC
0057028640999991954010800004+65783+024583FM-12+001599999V0209991C00001220001CN0400001N9-01501-01721101381ADDAY101999GF100991001001999999001001MD1990051+9999MW1021
0076028640999991954010806004+65783+024583FM-12+001599999V0202301N00871220001CN0400001N9-00391-00781100941ADDAY101999GF100991001001999999001001IA1199KA1999N-01611MD1810251+9999MW1021
0057028640999991954010812004+65783+024583FM-12+001599999V0202001N00931030001CN0400001N9-00221-00611100421ADDAY121999GF107991011081008001071999MD1810261+9999MW1021
0076028640999991954010818004+65783+024583FM-12+001599999V0202001N00621030001CN0140001N9-00221-00501099991ADDAY121999GF108991021051004501071999IA1199KA1999M-00111MD1610231+9999MW1031
0057028640999991954010900004+65783+024583FM-12+001599999V0202501N00411004501CN0400001N9-00221-00281099711ADDAY121999GF108991051051004501071999MD1810081+9999MW1031
0087028640999991954010906004+65783+024583FM-12+001599999V0201101N00311004501CN0060001N9-00391-00391099481ADDAA199000391AY171999GF108991071071004501021999IA1319KA1999N-00391MD1810061+9999MW1731
0057028640999991954010912004+65783+024583FM-12+001599999V0200501N00211004501CN0024001N9-00611-00611099951ADDAY171999GF108991071071004501021999MD1210031+9999MW1751
0087028640999991954010918004+65783+024583FM-12+001599999V0200201N00311220001CN0200001N9-00781-01001099621ADDAA199003091AY171999GF107991001001999999071999IA1319KA1999M-00391MD1310051+9999MW1021
0057028640999991954011000004+65783+024583FM-12+001599999V0200201N00311220001CN0140001N9-00781-01001099721ADDAY171999GF108991001001999999021999MD1310041+9999MW1701
0087028640999991954011006004+65783+024583FM-12+001599999V0200201N00311220001CN0140001N9-00781-01001099801ADDAA199002091AY171999GF108991001001999999021999IA1319KA1999N-00891MD1310011+9999MW1711
0057028640999991954011012004+65783+024583FM-12+001599999V0200401N00211030001CN0044001N9-00781-00891099951ADDAY171999GF108991031071004501021999MD1310051+9999MW1731
0087028640999991954011018004+65783+024583FM-12+001599999V0200901N00311030001CN0050001N9-01001-01221100121ADDAA199001091AY171999GF108991031051004501021999IA1319KA1999M-00721MD1310111+9999MW1711
0057028640999991954011100004+65783+024583FM-12+001599999V0200901N00311220001CN0400001N9-01501-01721100221ADDAY171999GF100991001001999999001001MD1310051+9999MW1021
0087028640999991954011106004+65783+024583FM-12+001599999V0201101N00311220001CN0200001N9-01501-01721100291ADDAA199001091AY171999GF108991001001999999071999IA1319KA1999N-01781MD1010041+9999MW1701
0078028640999991954011112004+65783+024583FM-12+001599999V0201101N00311004501CN0200001N9-01281-01501100281ADDAY171999GF107991071051004501071999MW1711EQDQ01+000042APCTENQ02+000042APC3  
0087028640999991954011118004+65783+024583FM-12+001599999V0201801N00511030001CN0200001N9-00501-00721099881ADDAA199000391AY171999GF108991031071004501021999IA1319KA1999M-00501MD1810221+9999MW1711
0057028640999991954011200004+65783+024583FM-12+001599999V0202301N01131030001CN0200001N9-00391-00501099381ADDAY171999GF108991021071004501021999MD1810281+9999MW1221
0087028640999991954011206004+65783+024583FM-12+001599999V0202301N00621030001CN0010001N9-00501-00501098851ADDAA199000691AY171999GF108991021071004501021999IA1319KA1999N-00721MD1810231+9999MW1751
0078028640999991954011212004+65783+024583FM-12+001599999V0209991C00001030001CN0400001N9-01001-01111098841ADDAY121999GF107991021051008001071999MW1031EQDQ01+000042APCTENQ02+000032APC3  
0106028640999991954011218004+65783+024583FM-12+001599999V0201801N00101220001CN0200001N9-01721-01891098941ADDAA199001091AY101999GF101991999001999999041001IA1319KA1999M-01001MD1310171+9999MW1021EQDQ01+000002SCOTLC
0076028640999991954011300004+65783+024583FM-12+001599999V0203601N00101220001CN0400001N9+99999+99999099181ADDAY101999GF101991999001999999041001MD1310181+9999MW1021EQDQ01+000002SCOTLC
0076028640999991954011306004+65783+024583FM-12+001599999V0200201N00101220001CN0400001N9-02281+99999099441ADDAY101999GF100991001001999999001001IA1319KA1999N-02391MD1310111+9999MW1021
0057028640999991954011312004+65783+024583FM-12+001599999V0201101N00101030001CN0400001N9-01281-01501099751ADDAY101999GF106991021051004501071999MD1810031+9999MW1031
0087028640999991954011318004+65783+024583FM-12+001599999V0201101N00411220001CN0018001N9-00501-00611099291ADDAA199001091AY171999GF108991001001999999021999IA1319KA1999M-00501MD1810191+9999MW1731
0057028640999991954011400004+65783+024583FM-12+001599999V0202001N00721002401CN0200001N9+00001+00001099111ADDAY171999GF108991081061002501999999MD1810041+9999MW1021
0087028640999991954011406004+65783+024583FM-12+001599999V0202301N00511000601CN0200001N9+00001+00001098881ADDAA199003091AY171999GF108991081071000751999999IA1319KA1999N-00501MD1810091+9999MW1021
0078028640999991954011412004+65783+024583FM-12+001599999V0202301N00461001501CN0140001N9+00001+00001098921ADDAY151999GF108991081061001501999999MW1201EQDQ01+000032APCTENQ02+000002APC3  
0054028640999991954011418004+65783+024583FM-12+001599999V0202001N00621000601CN0024001N9+00001+00001098951ADDAA199003091AY171999GF108991081061000751999999MW1681
0057028640999991954011500004+65783+024583FM-12+001599999V0201801N00721004501CN0400001N9+00111+00001098991ADDAY121999GF108991081051004501999999MD1810031+9999MW1021
0087028640999991954011506004+65783+024583FM-12+001599999V0201801N00721001501CN0080001N9+00001+00001098771ADDAA199000391AY151999GF108991081061001501999999IA1209KA1999N-00111MD1810111+9999MW1571
0057028640999991954011512004+65783+024583FM-12+001599999V0201601N00721002401CN0200001N9-00221-00281098481ADDAY171999GF108991061071002501021999MD1810201+9999MW1711
0087028640999991954011518004+65783+024583FM-12+001599999V0201101N00931002401CN0024001N9-00221-00281097721ADDAA199001091AY171999GF108991061071002501021999IA1319KA1999M+00001MD1810401+9999MW1731
0057028640999991954011600004+65783+024583FM-12+001599999V0201401N00721002401CN0024001N9-00111-00281097261ADDAY171999GF108991061071002501021999MD1310101+9999MW1731
0087028640999991954011606004+65783+024583FM-12+001599999V0201401N00771002401CN0024001N9+00001+00001097251ADDAA199005091AY171999GF108991061071002501021999IA1319KA1999N-00281MD1310061+9999MW1731
0057028640999991954011612004+65783+024583FM-12+001599999V0201101N00511002401CN0200001N9-00391-00501097451ADDAY171999GF108991061071002501021999MD1210031+9999MW1221
0087028640999991954011618004+65783+024583FM-12+001599999V0200201N00211220001CN0140001N9-00611-00721097551ADDAA199000391AY121999GF108991001001999999071999IA1319KA1999M+00001MD1310031+9999MW1701
0057028640999991954011700004+65783+024583FM-12+001599999V0203601N00101220001CN0140001N9-00611-00891097791ADDAY171999GF108991001001999999071999MD1310111+9999MW1701
0087028640999991954011706004+65783+024583FM-12+001599999V0203601N00261220001CN0140001N9-00611-00721098151ADDAA199001091AY171999GF108991001001999999021999IA1319KA1999N-00721MD1310201+9999MW1711
0057028640999991954011712004+65783+024583FM-12+001599999V0203201N00411220001CN0200001N9-00781-01001098591ADDAY111999GF106991001001999999071999MD1310231+9999MW1701
0087028640999991954011718004+65783+024583FM-12+001599999V0203601N00311004501CN0200001N9-00891-01111099221ADDAA199000691AY121999GF107991071051004501001001IA1319KA1999M-00611MD1310321+9999MW1701
0057028640999991954011800004+65783+024583FM-12+001599999V0203401N00511220001CN0400001N9-00721-01001099811ADDAY101999GF100991001001999999001001MD1310281+9999MW1021
0095028640999991954011806004+65783+024583FM-12+001599999V0203201N00721220001CN0400001N9-00721-00891100201ADDAY111999GF104991999001999999071001IA1319KA1999N-01001MD1310181+9999MW1831EQDQ01+000002SCOTLC
0076028640999991954011812004+65783+024583FM-12+001599999V0203401N00621220001CN0400001N9-00721-01111100721ADDAY111999GF102991999001999999071001MD1310251+9999MW1021EQDQ01+000002SCOTLC
0087028640999991954011818004+65783+024583FM-12+001599999V0203201N00211220001CN0400001N9-01391-01721101151ADDAA199000691AY101999GF100991001001999999001001IA1319KA1999M-00501MD1310161+9999MW1021
0078028640999991954011900004+65783+024583FM-12+001599999V0209991C00001220001CN0400001N9-02281+99999101281ADDAY101999GF101991001001999999001021MW1011EQDQ01+000032APCTENQ02+000002APC3  
0063028640999991954011906004+65783+024583FM-12+001599999V0203101N00101030001CN0400001N9-01781-02111101061ADDAY111999GF106991031051004501071999IA1319MD1810171+9999MW1021
0076028640999991954011912004+65783+024583FM-12+001599999V0201801N00101220001CN0160001N9-01391-01721100801ADDAY141999GF102991999001999999071001MD1810071+9999MW1401EQDQ01+000002SCOTLC
0076028640999991954011918004+65783+024583FM-12+001599999V0209991C00001220001CN0400001N9-02221+99999100721ADDAY101999GF102991001001999999071011IA1319KA1999M-01501MD1810141+9999MW1031
0087028640999991954012018004+65783+024583FM-12+001599999V0200901N00411220001CN0010001N9-00781-00891100921ADDAA199013091AY171999GF108991001001999999021999IA1319KA1999M-00611MD1310311+9999MW1731
0087028640999991954012106004+65783+024583FM-12+001599999V0203601N00261220001CN0400001N9-01111-01281101761ADDAA199002091AY171999GF107991001001999999071999IA1319KA1999N-01281MD1310181+9999MW1221
0095028640999991954012118004+65783+024583FM-12+001599999V0200201N00101220001CN0400001N9-02721+99999102561ADDAY101999GF101991999001999999041001IA1319KA1999M-01001MD1310131+9999MW1031EQDQ01+000002SCOTLC
0076028640999991954012200004+65783+024583FM-12+001599999V0203601N00101220001CN0400001N9-02781+99999102841ADDAY101999GF101991999001999999041001MD1310121+9999MW1021EQDQ01+000002SCOTLC
0095028640999991954012206004+65783+024583FM-12+001599999V0200201N00101220001CN0400001N9-02281+99999102961ADDAY101999GF102991999001999999041001IA1319KA1999N-03001MD1310031+9999MW1021EQDQ01+000002SCOTLC
0076028640999991954012212004+65783+024583FM-12+001599999V0209991C00001220001CN0050001N9-01891-02111103211ADDAY101999GF101991999001999999041001MD1310081+9999MW1401EQDQ01+000002SCOTLC
0076028640999991954012218004+65783+024583FM-12+001599999V0209991C00001220001CN0200001N9-02391+99999103511ADDAY101999GF100991001001999999001001IA1319KA1999M-01891MD1310151+9999MW1021
0057028640999991954012300004+65783+024583FM-12+001599999V0209991C00001220001CN0200001N9-02281+99999103881ADDAY101999GF100991001001999999001001MD1310161+9999MW1021
0076028640999991954012306004+65783+024583FM-12+001599999V0209991C00001220001CN0004001N9-02281+99999104011ADDAY141999GF100991001001999999001001IA1319KA1999N-02501MD1310081+9999MW1441
0057028640999991954012312004+65783+024583FM-12+001599999V0209991C00001000151CN0004001N9-02001+99999104141ADDAY141999GF109991091999000251999999MD1310071+9999MW1471
0057028640999991954012400004+65783+024583FM-12+001599999V0201201N00311001501CN0110001N9-01221-01281103851ADDAY121999GF108991081061001501999999MD1810131+9999MW1021
0087028640999991954012406004+65783+024583FM-12+001599999V0201401N00411000151CN0010001N9-01111-01281103571ADDAA199000691AY141999GF108991081061000251999999IA1319KA1999N-01391MD1810131+9999MW1101
0057028640999991954012412004+65783+024583FM-12+001599999V0201401N00411000601CN0050001N9-00891-01001103401ADDAY121999GF108991081061000751999999MD1810101+9999MW1021
0087028640999991954012418004+65783+024583FM-12+001599999V0201601N00511001501CN0110001N9-00721-00781103291ADDAA199000691AY171999GF108991081061001501999999IA1319KA1999M-00611MD1810051+9999MW1761
0057028640999991954012500004+65783+024583FM-12+001599999V0201401N00361001501CN0110001N9-00721-00781103281ADDAY121999GF108991081061001501999999MD1310011+9999MW1761
0087028640999991954012506004+65783+024583FM-12+001599999V0201101N00261001501CN0080001N9-00891-01001103341ADDAA199000391AY171999GF108991081061001501999999IA1319KA1999N-01001MD1210021+9999MW1761
0057028640999991954012512004+65783+024583FM-12+001599999V0201801N00361001501CN0050001N9-00721-00721103411ADDAY121999GF108991081061001501999999MD1310031+9999MW1021
0095028640999991954012518004+65783+024583FM-12+001599999V0201801N00211002401CN0200001N9-00501-00611103491ADDAY121999GF108991999051002501021999IA1319KA1999M-00501MD1310081+9999MW1021EQDQ01+000082SCOTLC
0057028640999991954012600004+65783+024583FM-12+001599999V0209991C00001002401CN0200001N9-00611-00611103591ADDAY121999GF108991081061002501999999MD1310041+9999MW1021
0076028640999991954012606004+65783+024583FM-12+001599999V0209991C00001004501CN0200001N9-00611-00721103511ADDAY121999GF108991081051004501999999IA1319KA1999N-00611MD1810041+9999MW1021
0057028640999991954012612004+65783+024583FM-12+001599999V0202301N00211004501CN0200001N9-00781-00891103411ADDAY121999GF108991081051004501999999MD1990081+9999MW1021
0087028640999991954012618004+65783+024583FM-12+001599999V0200901N00101001501CN0200001N9-01001-01001103281ADDAA199000691AY121999GF108991081061001501999999IA1319KA1999M-00501MD1810061+9999MW1021
0057028640999991954012700004+65783+024583FM-12+001599999V0203601N00101001501CN0400001N9-01111-01281103141ADDAY121999GF108991081061001501999999MD1810051+9999MW1031
0076028640999991954012706004+65783+024583FM-12+001599999V0203601N00101030001CN0400001N9-01611-01781102911ADDAY121999GF105991021051004501071999IA1319KA1999N-01721MD1810071+9999MW1011
0057028640999991954012712004+65783+024583FM-12+001599999V0203601N00151220001CN0400001N9-01221-01391102891ADDAY121999GF107991001001999999071999MD1810011+9999MW1021
0076028640999991954012718004+65783+024583FM-12+001599999V0200201N00211220001CN0400001N9-00721-00781102921ADDAY121999GF108991001001999999071999IA1319KA1999M-00721MD1310071+9999MW1021
0057028640999991954012800004+65783+024583FM-12+001599999V0200201N00151220001CN0400001N9-00781-00781103181ADDAY121999GF104991001001999999071999MD1310151+9999MW1011
0095028640999991954012806004+65783+024583FM-12+001599999V0203601N00411220001CN0400001N9-01391-01391103421ADDAY111999GF103991999001999999071001IA1319KA1999N-01781MD1310071+9999MW1031EQDQ01+000002SCOTLC
0057028640999991954012812004+65783+024583FM-12+001599999V0203601N00211220001CN0400001N9-01721-01891103641ADDAY101999GF100991001001999999001001MD1210011+9999MW1021
0076028640999991954012818004+65783+024583FM-12+001599999V0203601N00211220001CN0400001N9-01891-02111103541ADDAY101999GF100991001001999999001001IA1319KA1999M-01391MD1810061+9999MW1021
0057028640999991954012900004+65783+024583FM-12+001599999V0203601N00211220001CN0400001N9-01721-02001103401ADDAY121999GF107991001001999999071999MD1810071+9999MW1021
0087028640999991954012906004+65783+024583FM-12+001599999V0203601N00211030001CN0400001N9-01391-01611103261ADDAA199000691AY171999GF105991041051008001071001IA1319KA1999N-02281MD1810051+9999MW1221
0076028640999991954012912004+65783+024583FM-12+001599999V0203601N00151220001CN0400001N9-01611-01781103361ADDAY101999GF101991999001999999041001MD1310041+9999MW1021EQDQ01+000002SCOTLC
0095028640999991954012918004+65783+024583FM-12+001599999V0203601N00151220001CN0400001N9-02111+99999103521ADDAY101999GF101991999001999999041001IA1319KA1999M-01391MD1310071+9999MW1021EQDQ01+000002SCOTLC
0057028640999991954013000004+65783+024583FM-12+001599999V0203601N00101220001CN0400001N9-02391+99999103621ADDAY101999GF100991001001999999001001MD1310051+9999MW1021
0076028640999991954013006004+65783+024583FM-12+001599999V0203601N00101220001CN0400001N9-02781+99999103481ADDAY101999GF100991001001999999001001IA1319KA1999N-03001MD1810081+9999MW1021
0057028640999991954013012004+65783+024583FM-12+001599999V0209991C00001004501CN0140001N9-01781-02001103291ADDAY121999GF108991061051004501071999MD1810141+9999MW1051
0076028640999991954013018004+65783+024583FM-12+001599999V0203601N00101220001CN0200001N9-01281-01391103121ADDAY121999GF107991001001999999071999IA1319KA1999M-01111MD1810071+9999MW1021
0057028640999991954013100004+65783+024583FM-12+001599999V0203201N00311220001CN0400001N9-00281-00391103091ADDAY121999GF108991001001999999071999MD1810031+9999MW1021
0076028640999991954013106004+65783+024583FM-12+001599999V0203601N00311220001CN0400001N9-00111-00281103151ADDAY121999GF108991001001999999071999IA1319KA1999N-01221MD1310021+9999MW1021
0057028640999991954013112004+65783+024583FM-12+001599999V0203601N00311220001CN0400001N9-00111-00391103291ADDAY121999GF108991001001999999071999MD1110091+9999MW1021
0076028640999991954013118004+65783+024583FM-12+001599999V0203601N00211220001CN0400001N9-00391-00501103391ADDAY121999GF107991001001999999071999IA1009KA1999M+00001MD1310071+9999MW1021
0076028640999991954020100004+65783+024583FM-12+001599999V0209991C00001220001CN0400001N9-00721-00781999999ADDAY111999GF102991999001999999041001MD1310031+9999MW1011EQDQ01+000002SCOTLC
0113028640999991954020106004+65783+024583FM-12+001599999V0209991C00001220001CN0400001N9-00781-00891103381ADDAY111999GF106991999001999999071001IA1319KA1999N-01391MW1011EQDQ01+000002SCOTLCQ02+000022APCTENQ03+000002APC3  
0076028640999991954020112004+65783+024583FM-12+001599999V0209991C00001220001CN0002001N9-01281-01501103381ADDAY141999GF101991999001999999071001MD1310011+9999MW1441EQDQ01+000002SCOTLC
0097028640999991954020118004+65783+024583FM-12+001599999V0209991C00001004501CN0200001N9-01001-01221103341ADDAY121999GF108991061051004501071999IA1319KA1999M-00281MW1021EQDQ01+000032APCTENQ02+000002APC3  
0057028640999991954020200004+65783+024583FM-12+001599999V0201101N00151004501CN0400001N9-00781-00891103251ADDAY121999GF108991081051004501999999MD1810051+9999MW1021
0095028640999991954020206004+65783+024583FM-12+001599999V0209991C00001220001CN0400001N9-01001-01221103121ADDAY111999GF102991999001999999071001IA1319KA1999N-01111MD1810091+9999MW1011EQDQ01+000002SCOTLC
0057028640999991954020212004+65783+024583FM-12+001599999V0201601N00261220001CN0110001N9-00891-00891102891ADDAY111999GF103991021081001501071001MD1810111+9999MW1021
0095028640999991954020218004+65783+024583FM-12+001599999V0201801N00101220001CN0400001N9-01281-01391102601ADDAY101999GF103991999001999999071001IA1319KA1999M-00501MD1810141+9999MW1031EQDQ01+000002SCOTLC
0057028640999991954020300004+65783+024583FM-12+001599999V0201801N00411220001CN0400001N9-01221-01501102191ADDAY101999GF100991001001999999001001MD1810191+9999MW1011
0095028640999991954020306004+65783+024583FM-12+001599999V0201801N00511220001CN0140001N9-00781-00891101651ADDAY101999GF101991999001999999071001IA1319KA1999N-01281MD1810301+9999MW1011EQDQ01+000002SCOTLC
0076028640999991954020312004+65783+024583FM-12+001599999V0202001N00461220001CN0400001N9-00611-00611101441ADDAY101999GF102991999001999999041001MD1810131+9999MW1021EQDQ01+000002SCOTLC
0076028640999991954020318004+65783+024583FM-12+001599999V0201801N00261220001CN0400001N9-01001-01111101261ADDAY111999GF100991001001999999001001IA1319KA1999M-00501MD1810031+9999MW1021
0076028640999991954020406004+65783+024583FM-12+001599999V0209991C00001220001CN0400001N9-02111+99999101441ADDAY101999GF100991001001999999001001IA1319KA1999N-02221MD1310101+9999MW1021
0095028640999991954020418004+65783+024583FM-12+001599999V0209991C00001220001CN0200001N9-02281+99999101981ADDAY101999GF102991999001999999071001IA1319KA1999M-01221MD1310111+9999MW1021EQDQ01+000002SCOTLC
0076028640999991954020500004+65783+024583FM-12+001599999V0209991C00001220001CN0400001N9-01721-01891101921ADDAY111999GF103991999001999999071001MD1990031+9999MW1021EQDQ01+000002SCOTLC
0076028640999991954020506004+65783+024583FM-12+001599999V0201401N00461004501CN0400001N9-00721-00781101511ADDAY121999GF108991081061004501999999IA1319KA1999N-02391MD1810201+9999MW1021
0078028640999991954020512004+65783+024583FM-12+001599999V0209991C00001000151CN0001001N9-00391-00501101421ADDAY141999GF109991091999000251999999MW1761EQDQ01+000032APCTENQ02+000002APC3  
0087028640999991954020518004+65783+024583FM-12+001599999V0201401N00101220001CN0200001N9-01001-01221101351ADDAA199000691AY111999GF103991031061001501001001IA1319KA1999M-00391MD1710071+9999MW1011
0076028640999991954020606004+65783+024583FM-12+001599999V0201801N00311000601CN0140001N9-00391-00501100911ADDAY111999GF107991071061000751999999IA1319KA1999N-01221MD1810181+9999MW1031
0057028640999991954020612004+65783+024583FM-12+001599999V0201801N00311030001CN0400001N9-00281-00391100721ADDAY121999GF108991011061001501041071MD1810051+9999MW1031
0076028640999991954020618004+65783+024583FM-12+001599999V0201801N00511001501CN0140001N9-00221-00221100681ADDAY151999GF108991081061001501999999IA1319KA1999M-00221MD1810031+9999MW1501
0057028640999991954020700004+65783+024583FM-12+001599999V0202001N00771000601CN0110001N9-00221-00221100611ADDAY121999GF108991081061000751999999MD1810041+9999MW1701
0108028640999991954020706004+65783+024583FM-12+001599999V0201801N00461001501CN0200001N9-00221-00221100691ADDAA199000691AY121999GF108991081061001501999999IA1319KA1999N-00221MW1701EQDQ01+000022APCTENQ02+000002APC3  
0057028640999991954020712004+65783+024583FM-12+001599999V0201801N00621004501CN0400001N9-00281-00391100621ADDAY121999GF108991081051004501999999MD1810061+9999MW1021
0087028640999991954020718004+65783+024583FM-12+001599999V0202001N00871030001CN0200001N9-00221-00281100511ADDAA199000691AY171999GF108991031071004501021999IA1319KA1999M-00111MD1810041+9999MW1711
0057028640999991954020800004+65783+024583FM-12+001599999V0202001N00511030001CN0400001N9-00221-00391100581ADDAY171999GF108991041071004501021999MD1310071+9999MW1711
0087028640999991954020806004+65783+024583FM-12+001599999V0202301N00571004501CN0400001N9-00391-00721100821ADDAA199000591AY121999GF108991051051004501021999IA1319KA1999N-00391MD1310141+9999MW1021
0057028640999991954020812004+65783+024583FM-12+001599999V0202301N00311004501CN0400001N9-00501-00721101141ADDAY121999GF108991061071004501021999MD1310151+9999MW1021
0095028640999991954020818004+65783+024583FM-12+001599999V0202001N00261220001CN0400001N9-01281-01391101411ADDAY101999GF102991999001999999071001IA1319KA1999M-00391MD1310141+9999MW1021EQDQ01+000002SCOTLC
0057028640999991954020900004+65783+024583FM-12+001599999V0201801N00311220001CN0400001N9-00781-00891101661ADDAY101999GF100991001001999999001001MD1310151+9999MW1011
0076028640999991954020906004+65783+024583FM-12+001599999V0201801N00101220001CN0400001N9-00781-00891101821ADDAY121999GF108991001001999999071999IA1319KA1999N-01721MD1210071+9999MW1021
0057028640999991954020912004+65783+024583FM-12+001599999V0201101N00361220001CN0400001N9-00501-00781102091ADDAY111999GF107991001001999999041071MD1310081+9999MW1011
0076028640999991954020918004+65783+024583FM-12+001599999V0201401N00361220001CN0400001N9-01221-01391102211ADDAY111999GF102991001001999999001051IA1319KA1999M-00501MD1310071+9999MW1011
0057028640999991954021000004+65783+024583FM-12+001599999V0201401N00211220001CN0400001N9-01501-01721102421ADDAY101999GF100991001001999999001001MD1310091+9999MW1021
0076028640999991954021006004+65783+024583FM-12+001599999V0201101N00101220001CN0400001N9-01781-02001102581ADDAY101999GF101991001001999999001041IA1319KA1999N-01781MD1310071+9999MW1031
0057028640999991954021012004+65783+024583FM-12+001599999V0201101N00261004501CN0200001N9-01501-01721102661ADDAY121999GF108991081051004501999999MD1110051+9999MW1021
0113028640999991954021018004+65783+024583FM-12+001599999V0201101N00101220001CN0400001N9-02001+99999102751ADDAY101999GF101991999001999999071001IA1319KA1999M-01281MW1011EQDQ01+000002SCOTLCQ02+000022APCTENQ03+000002APC3  
0078028640999991954021100004+65783+024583FM-12+001599999V0201101N00101220001CN0400001N9-02111+99999102751ADDAY101999GF100991001001999999001001MW1011EQDQ01+000032APCTENQ02+000002APC3  
0087028640999991954021106004+65783+024583FM-12+001599999V0201101N00311004501CN0400001N9-01611-01781102771ADDAA199000691AY171999GF108991051071004501021999IA1319KA1999N-02221MD1710031+9999MW1711
0057028640999991954021112004+65783+024583FM-12+001599999V0201601N00361004501CN0014001N9-01281-01611102841ADDAY171999GF108991071071004501021999MD1310031+9999MW1011
0073028640999991954021118004+65783+024583FM-12+001599999V0201101N00411030001CN0110001N9-01281-01501102881ADDAA199000391AY171999GF108991021071004501021999IA1189KA1999M-01281MW1711
0078028640999991954021200004+65783+024583FM-12+001599999V0201101N00211220001CN0400001N9-02001-02221102921ADDAY101999GF100991001001999999001001MW1011EQDQ01+000032APCTENQ02+000002APC3  
0095028640999991954021206004+65783+024583FM-12+001599999V0200401N00151220001CN0200001N9-02281+99999102851ADDAY101999GF102991999001999999071001IA1319KA1999N-02391MD1810041+9999MW1031EQDQ01+000002SCOTLC
0057028640999991954021212004+65783+024583FM-12+001599999V0200501N00211220001CN0110001N9-01781-02001102691ADDAY101999GF103991001001999999071011MD1810121+9999MW1051
0057028640999991954021300004+65783+024583FM-12+001599999V0203601N00311220001CN0400001N9-01891-02001102161ADDAY111999GF108991001001999999001071MD1810151+9999MW1031
0063028640999991954021306004+65783+024583FM-12+001599999V0203601N00311220001CN0200001N9-01781-02001101921ADDAY171999GF107991001001999999071061IA1319MD1810111+9999MW1711
0057028640999991954021312004+65783+024583FM-12+001599999V0203601N00261220001CN0200001N9-01501-01781101801ADDAY171999GF108991001001999999011071MD1810061+9999MW1711
0087028640999991954021318004+65783+024583FM-12+001599999V0203601N00211220001CN0200001N9-01891-02111101791ADDAA199000691AY171999GF107991001001999999071999IA1319KA1999M-01501MD1710021+9999MW1711
0076028640999991954021400004+65783+024583FM-12+001599999V0203601N00101220001CN0400001N9-02281+99999101801ADDAY171999GF105991999001999999071001MD1310011+9999MW1011EQDQ01+000002SCOTLC
0108028640999991954021406004+65783+024583FM-12+001599999V0203601N00211220001CN0200001N9-02281+99999101891ADDAA199000391AY171999GF107991001001999999071999IA1319KA1999N-02611MW1711EQDQ01+000022APCTENQ02+000002APC3  
0057028640999991954021412004+65783+024583FM-12+001599999V0203601N00101220001CN0400001N9-01891-02111102181ADDAY111999GF103991001001999999001051MD1310101+9999MW1011
0076028640999991954021418004+65783+024583FM-12+001599999V0209991C00001220001CN0400001N9-02721+99999102401ADDAY101999GF100991001001999999001001IA1319KA1999M-01781MD1310101+9999MW1011
0076028640999991954021500004+65783+024583FM-12+001599999V0209991C00001220001CN0200001N9-02221+99999102601ADDAY171999GF106991999001999999071001MD1310101+9999MW1021EQDQ01+000002SCOTLC
0106028640999991954021506004+65783+024583FM-12+001599999V0209991C00001220001CN0400001N9-02391+99999102781ADDAA199000691AY101999GF102991999001999999041001IA1009KA1999N-02781MD1990081+9999MW1021EQDQ01+000002SCOTLC
0062028640999991954021512004+65783+024583FM-12+001599999V0209999999999220001CN9999999N9-01891-02221102951ADDGF103991999001999999031001MD1310021+9999EQDQ01+000002SCOTLC
0076028640999991954021518004+65783+024583FM-12+001599999V0209991C00001220001CN0110001N9-02501+99999102951ADDAY111999GF199999001001999999001061IA1319KA1999M-01721MD1610041+9999MW1041
0057028640999991954021600004+65783+024583FM-12+001599999V0209991C00001220001CN0400001N9-02391+99999102961ADDAY101999GF100991001001999999001001MD1310011+9999MW1021
0087028640999991954021606004+65783+024583FM-12+001599999V0200901N00101001501CN9999999N9-02001-02221102991ADDAA199000691AY171999GF108991061051001501071999IA1319KA1999N-02611MD1310041+9999MW1731
0057028640999991954021612004+65783+024583FM-12+001599999V0203601N00101075001CN0140001N9-01781-02001103251ADDAY171999GF105991011051004501041021MD1310121+9999MW1711
0106028640999991954021618004+65783+024583FM-12+001599999V0203601N00151220001CN0400001N9-02281+99999103541ADDAA199000691AY111999GF102991999001999999071001IA1319KA1999M-01721MD1310131+9999MW1011EQDQ01+000002SCOTLC
0057028640999991954021700004+65783+024583FM-12+001599999V0209991C00001220001CN0400001N9-02721+99999103761ADDAY101999GF100991001001999999001001MD1310131+9999MW1021
0087028640999991954021706004+65783+024583FM-12+001599999V0200201N00101001501CN0200001N9-02221+99999103801ADDAA199000691AY171999GF108991081061001501999999IA1319KA1999N-03111MD1990011+9999MW1781
0057028640999991954021712004+65783+024583FM-12+001599999V0203601N00101001501CN0200001N9-01781-02001103841ADDAY171999GF107991051061001501071999MD1710031+9999MW1711
0087028640999991954021718004+65783+024583FM-12+001599999V0209991C00001220001CN0400001N9-02391+99999103711ADDAA199000591AY101999GF100991001001999999001001IA1319KA1999M-01781MD1710021+9999MW1011
0057028640999991954021800004+65783+024583FM-12+001599999V0203601N00211220001CN0400001N9-03001+99999103661ADDAY101999GF101991001001999999001011MD1810021+9999MW1031
0076028640999991954021806004+65783+024583FM-12+001599999V0203601N00101001501CN0034001N9-03001+99999103541ADDAY101999GF107991051061001501071999IA1319KA1999N-03281MD1810061+9999MW1401
0078028640999991954021812004+65783+024583FM-12+001599999V0209991C00001001501CN0024001N9-02111+99999103571ADDAY141999GF106991061061001501999999MW1401EQDQ01+000042APCTENQ02+000012APC3  
0076028640999991954021818004+65783+024583FM-12+001599999V0201801N00101220001CN0200001N9-02391+99999103361ADDAY141999GF101991011061001501001001IA1319KA1999M-02001MD1810101+9999MW1021
0057028640999991954021900004+65783+024583FM-12+001599999V0201601N00101220001CN0200001N9-02221+99999103211ADDAY101999GF100991001001999999001001MD1810121+9999MW1021
0076028640999991954021906004+65783+024583FM-12+001599999V0201801N00101220001CN0140001N9-02611+99999103011ADDAY101999GF100991001001999999001001IA1319KA1999N-02891MD1810081+9999MW1021
0057028640999991954021912004+65783+024583FM-12+001599999V0209991C00001220001CN0050001N9-01781-02221102911ADDAY101999GF100991001001999999001001MD1810051+9999MW1041
0076028640999991954021918004+65783+024583FM-12+001599999V0209991C00001220001CN0034001N9-02721+99999102681ADDAY101999GF102991021061999999001001IA1319KA1999M-01781MD1810111+9999MW1031
0057028640999991954022000004+65783+024583FM-12+001599999V0209991C00001220001CN0400001N9-02891+99999102521ADDAY101999GF102991001001999999041011MD1810081+9999MW1021
0076028640999991954022006004+65783+024583FM-12+001599999V0209991C00001000151CN0002001N9-02721+99999102461ADDAY141999GF109991091999000251999999IA1319KA1999N-03111MD1810021+9999MW1471
0078028640999991954022012004+65783+024583FM-12+001599999V0209991C00001220001CN0044001N9-02221+99999102511ADDAY101999GF102991001001999999041051MW1041EQDQ01+000032APCTENQ02+000002APC3  
0076028640999991954022018004+65783+024583FM-12+001599999V0209991C00001220001CN0140001N9-02891+99999102351ADDAY101999GF100991001001999999001001IA1319KA1999M-02111MD1810121+9999MW1021
0057028640999991954022100004+65783+024583FM-12+001599999V0209991C00001220001CN0160001N9-03001+99999102221ADDAY101999GF100991001001999999001001MD1810071+9999MW1021
0076028640999991954022106004+65783+024583FM-12+001599999V0203601N00211001501CN0140001N9-02391+99999102351ADDAY111999GF107991071061001501999999IA1319KA1999N-03111MD1310081+9999MW1031
0076028640999991954022112004+65783+024583FM-12+001599999V0203601N00211220001CN0200001N9-02111+99999102741ADDAY111999GF101991999001999999041001MD1310211+9999MW1011EQDQ01+000002SCOTLC
0076028640999991954022118004+65783+024583FM-12+001599999V0209991C00001002401CN0200001N9-01721-01891103011ADDAY111999GF108991051071002501021999IA1319KA1999M-01721MD1310121+9999MW1711
0057028640999991954022200004+65783+024583FM-12+001599999V0209991C00001002401CN0200001N9-01501-01721103191ADDAY121999GF108991081051002501999999MD1310081+9999MW1701
0087028640999991954022206004+65783+024583FM-12+001599999V0209991C00001002401CN0200001N9-01391-01611103211ADDAA199000691AY171999GF108991081051002501999999IA1319KA1999N-01721MD1310011+9999MW1711
0087028640999991954022218004+65783+024583FM-12+001599999V0209991C00001030001CN0140001N9-01391-01501103441ADDAA199000691AY171999GF107991031071004501021999IA1319KA1999M-01221MD1310051+9999MW1711
0076028640999991954022300004+65783+024583FM-12+001599999V0201101N00311004501CN0110001N9-01501-01611103541ADDAY171999GF108991999061004501021999MD1310031+9999MW1711EQDQ01+000082SCOTLC
0087028640999991954022306004+65783+024583FM-12+001599999V0201401N00311004501CN0110001N9-01221-01281103461ADDAA199000691AY171999GF108991081061004501999999IA1319KA1999N-01721MD1810041+9999MW1711
0057028640999991954022312004+65783+024583FM-12+001599999V0201601N00571030001CN0200001N9-01001-01111103421ADDAY171999GF107991011051004501071999MD1810061+9999MW1221
0087028640999991954022318004+65783+024583FM-12+001599999V0201401N00821220001CN0200001N9-00781-01001103211ADDAA199000691AY111999GF103991031051004501001001IA1319KA1999M-00781MD1810091+9999MW1031
0076028640999991954022400004+65783+024583FM-12+001599999V0201401N01031220001CN0400001N9-01221-01501103181ADDAY101999GF102991999001999999071001MD1810051+9999MW1031EQDQ01+000002SCOTLC
0076028640999991954022406004+65783+024583FM-12+001599999V0201401N00771030001CN0400001N9-01221-01391103161ADDAY121999GF107991031051004501071999IA1319KA1999N-01281MD1210021+9999MW1011
0057028640999991954022412004+65783+024583FM-12+001599999V0201401N00981002401CN0160001N9-01281-01501103171ADDAY121999GF108991051071002501021999MD1710031+9999MW1711
0057028640999991954022500004+65783+024583FM-12+001599999V0201401N00621220001CN0400001N9-01501-01721102991ADDAY101999GF100991001001999999001001MD1810031+9999MW1021
0076028640999991954022506004+65783+024583FM-12+001599999V0201401N00671220001CN0034001N9-01721-01891102861ADDAY101999GF100991001001999999001001IA1319KA1999N-01721MD1810081+9999MW1401
0057028640999991954022512004+65783+024583FM-12+001599999V0201401N01031220001CN0140001N9-01281-01611102891ADDAY101999GF100991001001999999001001MD1710011+9999MW1361
0095028640999991954022518004+65783+024583FM-12+001599999V0201101N00361220001CN0200001N9-01611-01891102751ADDAY101999GF101991999001999999041001IA1319KA1999M-01221MD1810041+9999MW1021EQDQ01+000002SCOTLC
0057028640999991954022600004+65783+024583FM-12+001599999V0201401N00821030001CN0200001N9-01221-01501102621ADDAY121999GF108991041071004501021999MD1810061+9999MW1711
0087028640999991954022606004+65783+024583FM-12+001599999V0201101N00621004501CN0140001N9-01221-01391102511ADDAA199000691AY171999GF108991071071004501021999IA1319KA1999N-01721MD1810061+9999MW1711
0057028640999991954022612004+65783+024583FM-12+001599999V0201101N00931220001CN0110001N9-01111-01391102351ADDAY171999GF108991001001999999071999MD1810131+9999MW1711
0093028640999991954022618004+65783+024583FM-12+001599999V0201101N00571220001CN0200001N9-01111-01501102181ADDAA199000691AY171999GF105991999001999999071001IA1319MD1610041+9999MW1711EQDQ01+000002SCOTLC
0057028640999991954022700004+65783+024583FM-12+001599999V0201101N00311220001CN0400001N9-01611-01891102011ADDAY101999GF100991001001999999001001MD1810161+9999MW1021
0076028640999991954022706004+65783+024583FM-12+001599999V0201101N00311220001CN0400001N9-01501-01781102061ADDAY121999GF106991001001999999071999IA1319KA1999N-01721MD1810031+9999MW1021
0057028640999991954022712004+65783+024583FM-12+001599999V0201401N00621220001CN0400001N9-01111-01611102011ADDAY121999GF107991001001999999071071MD1990041+9999MW1031
0076028640999991954022718004+65783+024583FM-12+001599999V0201101N00671220001CN0400001N9-01111-01611101951ADDAY121999GF108991001001999999071999IA1319KA1999M-01001MD1810011+9999MW1031
0076028640999991954022800004+65783+024583FM-12+001599999V0201101N00621220001CN0400001N9-01391-01721101981ADDAY101999GF102991999001999999071001MD1810011+9999MW1021EQDQ01+000002SCOTLC
0095028640999991954022806004+65783+024583FM-12+001599999V0201101N00461220001CN0400001N9-01721-01891101851ADDAY101999GF101991999001999999041001IA1319KA1999N-01721MD1810051+9999MW1021EQDQ01+000002SCOTLC
0057028640999991954022812004+65783+024583FM-12+001599999V0200901N00461220001CN0400001N9-01221-01721101681ADDAY101999GF102991001001999999001011MD1810111+9999MW1021
0087028640999991954030106004+65783+024583FM-12+001599999V0200901N00311220001CN0060001N9-01221-01391101341ADDAA199001091AY171999GF108991001001999999021999IA1319KA1999N-01281MD1810061+9999MW1731
0057028640999991954030112004+65783+024583FM-12+001599999V0201101N00261007801CN0110001N9-01001-01221101271ADDAY171999GF108991051041008001999999MD1810031+9999MW1711
0106028640999991954030118004+65783+024583FM-12+001599999V0209991C00001220001CN0080001N9-01221-01501101201ADDAA199000591AY171999GF105991999001999999011001IA1319KA1999M-01001MD1990031+9999MW1711EQDQ01+000002SCOTLC
0057028640999991954030200004+65783+024583FM-12+001599999V0201101N00361220001CN0200001N9-01221-01281101181ADDAY101999GF104991001001999999021999MD1810021+9999MW1711
0087028640999991954030206004+65783+024583FM-12+001599999V0201101N00361002401CN0050001N9-00721-00781100911ADDAA199000691AY121999GF108991081061002501999999IA1319KA1999N-01721MD1810181+9999MW1021
0057028640999991954030212004+65783+024583FM-12+001599999V0200501N00621004501CN0110001N9-00611-00891100481ADDAY171999GF108991081071004501999999MD1810301+9999MW1021
0074028640999991954030218004+65783+024583FM-12+001599999V0200901N00771030001CN0044001N9-00501-00611100121ADDAA199002091AY171999GF108991021071002501021999IA1319MD1810101+9999MW1731
0057028640999991954030300004+65783+024583FM-12+001599999V0201101N00671004501CN0200001N9-00391-00611999999ADDAY171999GF108991051071004501021999MD1810061+9999MW1221
0087028640999991954030306004+65783+024583FM-12+001599999V0201101N00621002401CN0044001N9-00391-00501099911ADDAA199001091AY171999GF108991051071002501021999IA1319KA1999N-00501MD1810011+9999MW1731
0057028640999991954030312004+65783+024583FM-12+001599999V0201801N00621030001CN0060001N9-00391-00501100121ADDAY171999GF108991041071002501021999MD1310101+9999MW1701
0108028640999991954030318004+65783+024583FM-12+001599999V0201401N00621004501CN0140001N9-00221-00391100111ADDAA199012091AY171999GF108991061071004501021999IA1319KA1999M-00221MW1711EQDQ01+000032APCTENQ02+000002APC3  
0057028640999991954030400004+65783+024583FM-12+001599999V0200901N00311030001CN0200001N9-00281-00281099981ADDAY171999GF108991041071004501021999MD1810081+9999MW1711
0087028640999991954030406004+65783+024583FM-12+001599999V0200201N00151004501CN0080001N9-00391-00501099821ADDAA199001091AY171999GF108991061071004501021999IA1319KA1999N-00501MD1810071+9999MW1731
0057028640999991954030412004+65783+024583FM-12+001599999V0202701N00311030001CN0160001N9-00221-00501100151ADDAY121999GF108991041071004501021999MD1310191+9999MW1021
0057028640999991954030500004+65783+024583FM-12+001599999V0200201N00151001501CN0010001N9-00781-00891100581ADDAY121999GF108991081061001501999999MD1310041+9999MW1021
0076028640999991954030506004+65783+024583FM-12+001599999V0200201N00261004501CN0200001N9-00501-00611100481ADDAY121999GF108991081051004501999999IA1319KA1999N-01391MD1810071+9999MW1021
0057028640999991954030512004+65783+024583FM-12+001599999V0200401N00671030001CN0400001N9-00221-00501100261ADDAY121999GF108991041051008001021999MD1810121+9999MW1031
0057028640999991954030600004+65783+024583FM-12+001599999V0200901N00511004501CN0110001N9-00111-00221100151ADDAY121999GF108991081071004501999999MD1810031+9999MW1701
0087028640999991954030606004+65783+024583FM-12+001599999V0201101N00311000151CN0004001N9+00111+00111100201ADDAA199000691AY121999GF109991091999000251999999IA1319KA1999N-00221MD1310041+9999MW1471
0057028640999991954030612004+65783+024583FM-12+001599999V0200901N00571001501CN0034001N9+00221+00111099881ADDAY161999GF108991061071001501021999MD1810241+9999MW1611
0073028640999991954030618004+65783+024583FM-12+001599999V0201101N00981001501CN0080001N9+00111+00111099611ADDAA199007091AY161999GF108991071071001501021999IA1209KA1999M+00221MW1611
0076028640999991954030700004+65783+024583FM-12+001599999V0201401N01031001501CN0080001N9+00001-00111099521ADDAY171999GF108991999071001501021999MD1810031+9999MW1681EQDQ01+000082SCOTLC
0055028640999991954030706004+65783+024583FM-12+001599999V0201801N00981002401CN0200001N9+00221+00001099771ADDGF108991061091002501021091IA1009MD1310011+9999MW1021
0057028640999991954030712004+65783+024583FM-12+001599999V0201801N00931004501CN0400001N9+00001-00111100961ADDAY121999GF108991061071004501021999MD1310201+9999MW1021
0087028640999991954030718004+65783+024583FM-12+001599999V0201801N00621002401CN0110001N9+00001+00001101111ADDAA199000691AY171999GF108991061071002501021999IA1319KA1999M+00221MD1310101+9999MW1781
0057028640999991954030800004+65783+024583FM-12+001599999V0201801N00821001501CN0110001N9+00111+00001101291ADDAY121999GF108991081071001501999999MD1310081+9999MW1501
0108028640999991954030806004+65783+024583FM-12+001599999V0201401N00771007801CN0140001N9+00111-00111101391ADDAA199000391AY121999GF108991081041008001999999IA1319KA1999N-00111MW1021EQDQ01+000022APCTENQ02+000002APC3  
0057028640999991954030812004+65783+024583FM-12+001599999V0201401N00931004501CN0140001N9+00111-00111101321ADDAY121999GF108991081051004501999999MD1810091+9999MW1021
0087028640999991954030818004+65783+024583FM-12+001599999V0201401N00871030001CN0140001N9+00001-00221101171ADDAA199000691AY171999GF108991041071004501021999IA1319KA1999M+00221MD1810081+9999MW1221
0057028640999991954030900004+65783+024583FM-12+001599999V0201401N00931030001CN0110001N9-00221-00281101041ADDAY171999GF108991031071002501021999MD1810071+9999MW1711
0087028640999991954030906004+65783+024583FM-12+001599999V0201801N01081001501CN0080001N9+00001+00001100921ADDAA199000391AY171999GF108991081051001501999999IA1319KA1999N-00281MD1610071+9999MW1221
0087028640999991954030918004+65783+024583FM-12+001599999V0202001N01031001501CN0050001N9+00001+00001101361ADDAA199000691AY121999GF108991081061001501999999IA1209KA1999M+00111MD1310131+9999MW1021
0057028640999991954031000004+65783+024583FM-12+001599999V0201801N01031000601CN0010001N9+00001+00001101571ADDAY121999GF108991081061000751999999MD1310101+9999MW1101
0076028640999991954031006004+65783+024583FM-12+001599999V0202001N00931001501CN0060001N9+00001+00001101641ADDAY121999GF108991081061001501999999IA1209KA1999N-00111MD1310061+9999MW1021
0057028640999991954031012004+65783+024583FM-12+001599999V0202001N00771001501CN0160001N9+00001+00001101761ADDAY121999GF108991081051001501999999MD1310041+9999MW1021
0076028640999991954031018004+65783+024583FM-12+001599999V0201801N00621002401CN0200001N9+00001-00111101681ADDAY121999GF108991081061002501999999IA1319KA1999M+00001MD1810091+9999MW1021
0057028640999991954031100004+65783+024583FM-12+001599999V0202001N00821002401CN0200001N9+00001-00221101521ADDAY121999GF108991081071002501999999MD1810051+9999MW1021
0076028640999991954031106004+65783+024583FM-12+001599999V0202001N00821220001CN0200001N9-00281-00281101411ADDAY101999GF102991011071001501001051IA1319KA1999N-00501MD1810011+9999MW1011
0057028640999991954031112004+65783+024583FM-12+001599999V0202001N00621220001CN0400001N9-00111-00281101651ADDAY111999GF104991001001999999041051MD1310041+9999MW1031
0097028640999991954031118004+65783+024583FM-12+001599999V0201801N00311030001CN0400001N9-00281-00281101711ADDAY111999GF106991021051004501071999IA1319KA1999M-00111MW1021EQDQ01+000042APCTENQ02+000062APC3  
0057028640999991954031200004+65783+024583FM-12+001599999V0201801N00211220001CN0400001N9-00281-00391101711ADDAY121999GF108991001001999999071999MD1810011+9999MW1031
0087028640999991954031206004+65783+024583FM-12+001599999V0209991C00001030001CN0050001N9-00221-00281101651ADDAA199002091AY171999GF108991031061002501071999IA1319KA1999N-00391MD1990021+9999MW1731
0057028640999991954031212004+65783+024583FM-12+001599999V0203601N00511030001CN0110001N9-00111-00391101791ADDAY171999GF107991031071002501071999MD1310071+9999MW1221
0106028640999991954031218004+65783+024583FM-12+001599999V0203201N00511220001CN0400001N9-00501-01001102291ADDAA199001091AY101999GF101991999001999999041001IA1319KA1999M-00111MD1310341+9999MW1021EQDQ01+000002SCOTLC
0057028640999991954031300004+65783+024583FM-12+001599999V0209991C00001220001CN0400001N9-01501-01891102811ADDAY101999GF100991001001999999001001MD1310201+9999MW1021
0076028640999991954031306004+65783+024583FM-12+001599999V0201801N00211220001CN0400001N9-02001-02221103151ADDAY111999GF104991001001999999001061IA1319KA1999N-02281MD1310111+9999MW1031
0057028640999991954031312004+65783+024583FM-12+001599999V0202001N00511220001CN0400001N9-01001-01281103051ADDAY111999GF107991001001999999071071MD1810121+9999MW1031
0095028640999991954031318004+65783+024583FM-12+001599999V0202301N00461220001CN0400001N9-00611-00891102491ADDAY111999GF107991999001999999071001IA1319KA1999M-00611MD1810281+9999MW1021EQDQ01+000002SCOTLC
0057028640999991954031400004+65783+024583FM-12+001599999V0202001N00721030001CN0400001N9-00391-00501101691ADDAY121999GF107991021051008001071999MD1810431+9999MW1011
0087028640999991954031406004+65783+024583FM-12+001599999V0202301N00621030001CN0400001N9+00111-00111101111ADDAA199000691AY121999GF108991031071002501021999IA1319KA1999N-00721MD1810231+9999MW1011
0057028640999991954031412004+65783+024583FM-12+001599999V0202301N00511030001CN0400001N9+00221+00001100921ADDAY111999GF107991021051002501021999MD1810091+9999MW1021
0087028640999991954031418004+65783+024583FM-12+001599999V0201801N00311030001CN0400001N9+00111+00001100591ADDAA199001091AY161999GF108991031051004501021999IA1319KA1999M+00281MD1810231+9999MW1211
0057028640999991954031500004+65783+024583FM-12+001599999V0202901N00361030001CN0140001N9+00221+00221100251ADDAY161999GF108991031071004501021999MD1810121+9999MW1631
0087028640999991954031506004+65783+024583FM-12+001599999V0202701N00361030001CN0200001N9-00111-00111100061ADDAA199005091AY141999GF108991031061001501071999IA1209KA1999N-00111MD1810061+9999MW1021
0057028640999991954031512004+65783+024583FM-12+001599999V0202301N00411030001CN0400001N9+00221-00111099681ADDAY111999GF105991021051012501071001MD1810231+9999MW1011
0087028640999991954031518004+65783+024583FM-12+001599999V0203201N00621030001CN0160001N9+00111-00221099281ADDAA199000691AY111999GF108991041081004501011999IA1209KA1999M+00281MD1810111+9999MW1851
0076028640999991954031600004+65783+024583FM-12+001599999V0203201N00721220001CN0400001N9-00281-00721099431ADDAY101999GF101991999001999999041001MD1310111+9999MW1011EQDQ01+000002SCOTLC
0106028640999991954031606004+65783+024583FM-12+001599999V0202901N00721220001CN0400001N9-00501-01001099581ADDAA199000391AY101999GF101991999001999999041001IA1209KA1999N-00611MD1310101+9999MW1021EQDQ01+000002SCOTLC
0057028640999991954031612004+65783+024583FM-12+001599999V0203201N00821220001CN0400001N9-00111-00721100081ADDAY101999GF102991011081004501041001MD1310261+9999MW1021
0076028640999991954031618004+65783+024583FM-12+001599999V0203201N00621220001CN0400001N9-00391-01111100581ADDAY101999GF102991011011004501001021IA1209KA1999M+00111MD1310201+9999MW1031
0076028640999991954031700004+65783+024583FM-12+001599999V0203601N00621220001CN0200001N9-00891-01281101011ADDAY101999GF101991999001999999071001MD1310191+9999MW1021EQDQ01+000002SCOTLC
0095028640999991954031706004+65783+024583FM-12+001599999V0203201N00461220001CN0400001N9-01281-01721101361ADDAY101999GF101991999001999999071001IA1319KA1999N-01391MD1310181+9999MW1021EQDQ01+000002SCOTLC
0076028640999991954031718004+65783+024583FM-12+001599999V0209991C00001220001CN0400001N9-01391-01721101291ADDAY111999GF102991001001999999011061IA1209KA1999M-00611MD1810071+9999MW1021
0057028640999991954031800004+65783+024583FM-12+001599999V0209991C00001220001CN0400001N9-01891-02111101091ADDAY121999GF107991001001999999001071MD1810091+9999MW1021
0108028640999991954031806004+65783+024583FM-12+001599999V0201101N00311030001CN0400001N9-01391-01611100991ADDAA199000691AY111999GF106991011051004501071999IA1209KA1999N-02111MW1011EQDQ01+000032APCTENQ02+000002APC3  
0057028640999991954031812004+65783+024583FM-12+001599999V0201801N00311220001CN0400001N9-00611-00891101221ADDAY111999GF107991001001999999071999MD1310141+9999MW1031
0087028640999991954031818004+65783+024583FM-12+001599999V0202701N002619999999N0400001N9-01001-01221101401ADDAA199000691AY111999GF106991011041004501999061IA1209KA1999M-00391MD1310121+9999MW1021
0095028640999991954031906004+65783+024583FM-12+001599999V0202901N00261220001CN0400001N9-01281-01611101311ADDAY111999GF105991999001999999071001IA1209KA1999N-01611MD1410001+9999MW1021EQDQ01+000002SCOTLC
0078028640999991954031912004+65783+024583FM-12+001599999V0202301N00511220001CN0400001N9-00721-01111101281ADDAY111999GF105991001001999999071011MW1031EQDQ01+000032APCTENQ02+000002APC3  
0095028640999991954031918004+65783+024583FM-12+001599999V0202001N00211220001CN0400001N9-00781-01001101081ADDAY111999GF106991999001999999071001IA1209KA1999M-00501MD1310111+9999MW1011EQDQ01+000002SCOTLC
0076028640999991954032006004+65783+024583FM-12+001599999V0202001N00261220001CN0400001N9-00781-00891100801ADDAY121999GF108991001001999999021999IA1209KA1999N-00891MD1510021+9999MW1021
0057028640999991954032012004+65783+024583FM-12+001599999V0201801N00511220001CN0400001N9+00001-00391100891ADDAY111999GF106991001001999999041051MD1310051+9999MW1011
0076028640999991954032018004+65783+024583FM-12+001599999V0201401N00411220001CN0400001N9-00391-00501100841ADDAY101999GF108991001001999999001051IA1209KA1999M+00001MD1990011+9999MW1011
0097028640999991954032106004+65783+024583FM-12+001599999V0201801N00361220001CN0400001N9-00611-00721100751ADDAY111999GF106991001001999999041061IA1209KA1999N-00891MW1011EQDQ01+000032APCTENQ02+000002APC3  
0076028640999991954032118004+65783+024583FM-12+001599999V0202001N00621004501CN0200001N9-00221-00281100751ADDAY121999GF108991061061004501021999IA1209KA1999M+00001MD1810131+9999MW1021
0057028640999991954032200004+65783+024583FM-12+001599999V0209999999999002401CN0400001N9-00111-00111100241ADDAY121999GF199999081061002501999999MD1810271+9999MW1021
0106028640999991954032206004+65783+024583FM-12+001599999V0201801N00621001501CN0034001N9+00001+00001099721ADDAA199002091AY171999GF108991999061001501021999IA1209KA1999N-00221MD1810231+9999MW1711EQDQ01+000082SCOTLC
0057028640999991954032212004+65783+024583FM-12+001599999V0202001N00571030001CN0160001N9+00001-00221099751ADDAY111999GF107991021071004501071061MD1310011+9999MW1031
0106028640999991954032218004+65783+024583FM-12+001599999V0202001N00361220001CN0400001N9+00001-00221099571ADDAA199000591AY111999GF102991999001999999041001IA1209KA1999M+00111MD1710071+9999MW1011EQDQ01+000002SCOTLC
0057028640999991954032300004+65783+024583FM-12+001599999V0201801N00411030001CN0140001N9-00111-00221099521ADDAY121999GF106991021071004501071999MD1310031+9999MW1011
0087028640999991954032306004+65783+024583FM-12+001599999V0202001N00411220001CN0400001N9-00391-00501099611ADDAA199000691AY121999GF106991001001999999041091IA1209KA1999N-00611MD1310081+9999MW1021
0057028640999991954032312004+65783+024583FM-12+001599999V0202001N00461220001CN0400001N9+99999+99999099501ADDAY111999GF105991001001999999041051MD1310111+9999MW1031
0076028640999991954032318004+65783+024583FM-12+001599999V0201801N00621030001CN0200001N9+00111+00001099721ADDAY121999GF108991011071002501021999IA1209KA1999M+00221MD1810091+9999MW1021
0057028640999991954032400004+65783+024583FM-12+001599999V0201801N00621001501CN0140001N9+00111+00111099421ADDAY121999GF108991061071001501021999MD1810171+9999MW1601
0087028640999991954032406004+65783+024583FM-12+001599999V0202901N00821030001CN0400001N9-00221-00721099891ADDAA199004091AY121999GF107991021031004501071999IA1209KA1999N-00221MD1310341+9999MW1021
0057028640999991954032412004+65783+024583FM-12+001599999V0202301N00671220001CN0600001N9-00281-00891100411ADDAY111999GF103991001001999999001011MD1310191+9999MW1011
0095028640999991954032506004+65783+024583FM-12+001599999V0203201N00721220001CN0400001N9-00611-01221101281ADDAY111999GF102991001001999999071051IA1209KA1999N-01111MD1510592+9999MW1031EQDQ01+000592APC3  
0057028640999991954032512004+65783+024583FM-12+001599999V0203601N00361220001CN0400001N9+00001-00781101761ADDAY101999GF101991001001999999001011MD1310181+9999MW1021
0095028640999991954032518004+65783+024583FM-12+001599999V0203601N00211220001CN0400001N9-00501-00891101841ADDAY101999GF102991999001999999041001IA1319KA1999M+00001MD1310091+9999MW1021EQDQ01+000002SCOTLC
0057028640999991954032600004+65783+024583FM-12+001599999V0200901N00411220001CN0600001N9-00891-01221102011ADDAY101999GF100991001001999999001001MD1310031+9999MW1021
0076028640999991954032606004+65783+024583FM-12+001599999V0200901N00511220001CN0600001N9-00891-01501101921ADDAY101999GF107991001001999999071071IA1319KA1999N-01221MD1810051+9999MW1031
0057028640999991954032612004+65783+024583FM-12+001599999V0201101N00621220001CN0400001N9+00001-00611101691ADDAY121999GF107991001001999999001071MD1810161+9999MW1021
0076028640999991954032618004+65783+024583FM-12+001599999V0200901N00311220001CN0400001N9-00281-01111101351ADDAY121999GF108991001001999999071071IA1209KA1999M-00111MD1990141+9999MW1021
0057028640999991954032700004+65783+024583FM-12+001599999V0201101N00311220001CN0400001N9-00501-00781101111ADDAY101999GF100991001001999999001001MD1810111+9999MW1021
0087028640999991954032706004+65783+024583FM-12+001599999V0201101N00361030001CN0110001N9-00501-00611100911ADDAA199000591AY171999GF108991021071004501021999IA1209KA1999N-00501MD1810071+9999MW1711
0057028640999991954032712004+65783+024583FM-12+001599999V0201801N00101004501CN0400001N9-00281-00501100841ADDAY171999GF108991081051004501999999MD1990011+9999MW1711
0087028640999991954032718004+65783+024583FM-12+001599999V0209991C00001004501CN0160001N9-00281-00391100911ADDAA199000391AY171999GF108991051071004501021999IA1319KA1999M-00221MD1310071+9999MW1711
0043028640999991954032812004+65783+024583FM-12+001599999V0203601N00311004501CN0160001N9+00001-00281101211ADDAY171999GF106991061051004501041001MW1701
0087028640999991954032818004+65783+024583FM-12+001599999V0203601N00261004501CN0110001N9-00221-00221101511ADDAA199000591AY171999GF108991061071004501021999IA1319KA1999M+00001MD1310191+9999MW1711
0106028640999991954032906004+65783+024583FM-12+001599999V0200201N00361220001CN0400001N9-00721-01001102221ADDAA199000691AY101999GF101991999001999999071001IA1319KA1999N-00891MD1310231+9999MW1021EQDQ01+000002SCOTLC
0057028640999991954032912004+65783+024583FM-12+001599999V0200401N00571220001CN0400001N9+00001-00611102481ADDAY101999GF100991001001999999001001MD1310131+9999MW1021
0076028640999991954032918004+65783+024583FM-12+001599999V0200201N00261220001CN0400001N9-00221-00721102681ADDAY101999GF101991001001999999001011IA1319KA1999M+00221MD1310131+9999MW1021
0057028640999991954033000004+65783+024583FM-12+001599999V0203601N00311220001CN0400001N9-00721-01111102951ADDAY101999GF100991001001999999001001MD1310091+9999MW1021
0057028640999991954033012004+65783+024583FM-12+001599999V0200501N00511220001CN0400001N9+00001-00891102811ADDAY111999GF103991001001999999001051MD1810111+9999MW1021
0078028640999991954033100004+65783+024583FM-12+001599999V0201101N00311220001CN0400001N9-00611-01111102621ADDAY101999GF100991001001999999001001MW1021EQDQ01+000032APCTENQ02+000002APC3  
0076028640999991954033106004+65783+024583FM-12+001599999V0201101N00311220001CN0400001N9-00611-01281102501ADDAY101999GF100991001001999999001001IA1209KA1999N-01001MD1610021+9999MW1021
0057028640999991954033112004+65783+024583FM-12+001599999V0201801N00311220001CN0400001N9+00001-00721102551ADDAY101999GF100991001001999999001001MD1810131+9999MW1021
0095028640999991954033118004+65783+024583FM-12+001599999V0201101N00101220001CN0400001N9-00281-00721102181ADDAY101999GF102991999001999999041001IA1209KA1999M+00111MD1810111+9999MW1021EQDQ01+000002SCOTLC
0057028640999991954040100004+65783+024583FM-12+001599999V0201101N00101012301CN0400001N9-00391-00781102111ADDAY111999GF107991071051012501001001MD1810031+9999MW1031
0076028640999991954040106004+65783+024583FM-12+001599999V0201401N00411007801CN0400001N9-00221-00391101991ADDAY121999GF107991071051008001999999IA1209KA1999N-00611MD1810061+9999MW1021
0057028640999991954040112004+65783+024583FM-12+001599999V0201401N00621004501CN0160001N9+00221+00001101811ADDAY111999GF106991051051004501041999MD1810131+9999MW1011
0087028640999991954040118004+65783+024583FM-12+001599999V0201401N00211030001CN0400001N9+00111-00281101491ADDAA199000691AY121999GF107991011051004501071999IA1209KA1999M+00281MD1810151+9999MW1031
0057028640999991954040200004+65783+024583FM-12+001599999V0201101N00361030001CN0400001N9-00111-00391101311ADDAY121999GF108991031051004501071999MD1810111+9999MW1021
0076028640999991954040206004+65783+024583FM-12+001599999V0209991C00001220001CN0400001N9-00111-00391101141ADDAY121999GF108991001001999999071999IA1209KA1999N-00281MD1810051+9999MW1011
0057028640999991954040212004+65783+024583FM-12+001599999V0209991C00001007801CN0400001N9+00281-00391100951ADDAY121999GF106991051091008001041999MD1810101+9999MW1031
0076028640999991954040218004+65783+024583FM-12+001599999V0209991C00001030001CN0400001N9+00001-00501100861ADDAY181999GF105991021051008001061001IA1209KA1999M+00391MD1810041+9999MW1011
0078028640999991954040300004+65783+024583FM-12+001599999V0209991C00001220001CN0400001N9-00891-01111100811ADDAY101999GF100991001001999999001001MW1021EQDQ01+000032APCTENQ02+000002APC3  
0076028640999991954040306004+65783+024583FM-12+001599999V0201801N00211030001CN0050001N9-00501-00501100781ADDAY141999GF107991031061004501071999IA1209KA1999N-01111MD1990021+9999MW1281
0078028640999991954040312004+65783+024583FM-12+001599999V0201801N00411075001CN0200001N9+00001-00281100811ADDAY111999GF106991011011008001071031MW1051EQDQ01+000032APCTENQ02+000002APC3  
0087028640999991954040318004+65783+024583FM-12+001599999V0201801N00101004501CN0080001N9-00111-00281100771ADDAA199000691AY171999GF108991051051004501071999IA1209KA1999M+00001MD1610021+9999MW1711
0057028640999991954040400004+65783+024583FM-12+001599999V0209991C00001000151CN0004001N9-00281-00281100751ADDAY141999GF109991091999000251999999MD1810031+9999MW1451
0087028640999991954040406004+65783+024583FM-12+001599999V0201101N00101030001CN0090001N9-00391-00501100641ADDAA199000691AY121999GF107991021061001501071999IA1209KA1999N-00501MD1810051+9999MW1021
0057028640999991954040412004+65783+024583FM-12+001599999V0201401N00511030001CN0400001N9+00221-00281100381ADDAY111999GF106991041081008001041999MD1810151+9999MW1031
0087028640999991954040418004+65783+024583FM-12+001599999V0201101N00571002401CN0024001N9+00001+00001099791ADDAA199000391AY171999GF108991061071002501021999IA1209KA1999M+00221MD1810331+9999MW1731
0057028640999991954040500004+65783+024583FM-12+001599999V0200901N00721002401CN0024001N9+00001+00001099021ADDAY171999GF108991061071002501021999MD1810431+9999MW1731
0087028640999991954040506004+65783+024583FM-12+001599999V0200901N00511030001CN0024001N9+00001+00001098511ADDAA199004091AY171999GF108991021071002501021999IA1309KA1999N-00111MD1810141+9999MW1731
0057028640999991954040512004+65783+024583FM-12+001599999V0200201N00361001501CN0200001N9+00111+00111098601ADDAY171999GF108991061071001501021999MD1310071+9999MW1681
0087028640999991954040518004+65783+024583FM-12+001599999V0203601N00461002401CN0070001N9+00001-00111099041ADDAA199001091AY171999GF107991061071002501021999IA1209KA1999M+00281MD1310291+9999MW1711
0057028640999991954040600004+65783+024583FM-12+001599999V0203601N00621004501CN0400001N9-00281-00391099711ADDAY121999GF108991081051004501999999MD1310371+9999MW1031
0057028640999991954040612004+65783+024583FM-12+001599999V0202601N00461004501CN0400001N9+00001-00611101171ADDAY121999GF108991081051004501999999MD1310361+9999MW1021
0076028640999991954040618004+65783+024583FM-12+001599999V0203601N00151030001CN0400001N9-00221-00611101691ADDAY111999GF106991041051004501041001IA1209KA1999M+00111MD1310251+9999MW1011
0057028640999991954040700004+65783+024583FM-12+001599999V0203601N00211220001CN0400001N9-00611-00891102181ADDAY111999GF101991011051008001001001MD1310221+9999MW1011
0095028640999991954040706004+65783+024583FM-12+001599999V0203601N00311220001CN0400001N9-00721-00891102491ADDAY101999GF101991999001999999041001IA1209KA1999N-00891MD1310191+9999MW1021EQDQ01+000002SCOTLC
0057028640999991954040712004+65783+024583FM-12+001599999V0203601N00151220001CN0400001N9+00111-01001102621ADDAY111999GF103991021011008001041011MD1310041+9999MW1031
0095028640999991954040718004+65783+024583FM-12+001599999V0202901N00151220001CN0400001N9-00111-00781102621ADDAY101999GF101991999001999999071001IA1209KA1999M+00221MD1310041+9999MW1011EQDQ01+000002SCOTLC
0076028640999991954040800004+65783+024583FM-12+001599999V0203201N00101220001CN0400001N9-01001-01111102791ADDAY101999GF101991999001999999071001MD1310051+9999MW1021EQDQ01+000002SCOTLC
0095028640999991954040806004+65783+024583FM-12+001599999V0209991C00001220001CN0400001N9-00611-01111102861ADDAY111999GF105991999001999999081001IA1209KA1999N-01111MD1310051+9999MW1031EQDQ01+000002SCOTLC
0057028640999991954040812004+65783+024583FM-12+001599999V0203201N00511220001CN0400001N9+00391-00391102981ADDAY111999GF106991001001999999041051MD1710051+9999MW1031
0076028640999991954040818004+65783+024583FM-12+001599999V0203201N00261220001CN0400001N9+00281-00281102901ADDAY121999GF104991001001999999001051IA1309KA1999M+00611MD1310031+9999MW1011
0057028640999991954040900004+65783+024583FM-12+001599999V0209991C00001220001CN0400001N9-00611-00721103151ADDAY101999GF100991001001999999001001MD1310071+9999MW1011
0076028640999991954040906004+65783+024583FM-12+001599999V0209991C00001220001CN0400001N9-00501-00781103191ADDAY101999GF101991001001999999041011IA1209KA1999N-01111MD1110031+9999MW1021
0057028640999991954040912004+65783+024583FM-12+001599999V0201801N00261220001CN0400001N9+00221-00391103191ADDAY101999GF100991001001999999001001MD1710041+9999MW1021
0076028640999991954040918004+65783+024583FM-12+001599999V0202001N00211220001CN0400001N9-00221-00501103091ADDAY101999GF102991001001999999041041IA1209KA1999M+00391MD1510051+9999MW1011
0076028640999991954041000004+65783+024583FM-12+001599999V0201401N00211220001CN0160001N9-00611-00781102951ADDAY101999GF103991999001999999041001MD1810071+9999MW1031EQDQ01+000002SCOTLC
0076028640999991954041006004+65783+024583FM-12+001599999V0201101N00101220001CN0400001N9-00501-00721102781ADDAY121999GF107991001001999999071999IA1209KA1999N-00721MD1810101+9999MW1021
0076028640999991954041012004+65783+024583FM-12+001599999V0201801N00261220001CN0400001N9+00111-00281102711ADDAY121999GF106991999001999999051001MD1810031+9999MW1011EQDQ01+000002SCOTLC
0076028640999991954041018004+65783+024583FM-12+001599999V0201801N00151220001CN0200001N9-00221-00281102591ADDAY121999GF107991001001999999041071IA1209KA1999M+00111MD1810041+9999MW1021
0057028640999991954041100004+65783+024583FM-12+001599999V0201401N00151000151CN0002001N9-00501-00611102461ADDAY141999GF109991091999000251999999MD1810111+9999MW1471
0076028640999991954041106004+65783+024583FM-12+001599999V0201401N00311001501CN0200001N9-00501-00501102251ADDAY121999GF108991081061001501999999IA1209KA1999N-00721MD1810091+9999MW1031
0057028640999991954041112004+65783+024583FM-12+001599999V0201801N00621002401CN0400001N9+00001-00221102061ADDAY111999GF107991071051002501999999MD1810121+9999MW1031
0076028640999991954041118004+65783+024583FM-12+001599999V0202001N00671220001CN0400001N9+00001-00281101651ADDAY111999GF103991001001999999041011IA1209KA1999M+00221MD1810101+9999MW1021
0057028640999991954041200004+65783+024583FM-12+001599999V0201801N00621220001CN0400001N9-00111-00391101201ADDAY111999GF105991001001999999071061MD1810221+9999MW1031
0057028640999991954041212004+65783+024583FM-12+001599999V0201801N00871000601CN0010001N9+00001+00001100941ADDAY171999GF108991071071000751021999MD1810051+9999MW1711
0087028640999991954041218004+65783+024583FM-12+001599999V0201801N00571001501CN0024001N9+00001+00001100821ADDAA199002091AY171999GF108991071071001501021999IA1209KA1999M+00111MD1810081+9999MW1691
0057028640999991954041300004+65783+024583FM-12+001599999V0201801N00671002401CN0400001N9+00001+00001100681ADDAY171999GF108991081071002501999999MD1810091+9999MW1021
0087028640999991954041306004+65783+024583FM-12+001599999V0201801N00621004501CN0044001N9-00221-00221100481ADDAA199004091AY171999GF108991061071004501021999IA1209KA1999N-00221MD1810061+9999MW1731
0057028640999991954041312004+65783+024583FM-12+001599999V0201801N00621030001CN0034001N9-00111-00111100461ADDAY171999GF108991041071004501021999MD1310021+9999MW1711
0087028640999991954041318004+65783+024583FM-12+001599999V0201401N00511002401CN0044001N9-00111-00111100491ADDAA199001091AY171999GF108991061071002501021999IA1209KA1999M+00001MD1310051+9999MW1731
0057028640999991954041400004+65783+024583FM-12+001599999V0201601N00621002401CN0044001N9-00111-00111100541ADDAY171999GF108991061071002501021999MD1310031+9999MW1731
0087028640999991954041406004+65783+024583FM-12+001599999V0201801N00311000601CN0044001N9-00111-00111100391ADDAA199002091AY171999GF108991071071000751021999IA1319KA1999N-00111MD1310111+9999MW1711
0057028640999991954041412004+65783+024583FM-12+001599999V0201801N00311002401CN0110001N9+00001-00111100801ADDAY171999GF108991061071002501021999MD1310051+9999MW1221
0087028640999991954041418004+65783+024583FM-12+001599999V0209991C00001012301CN0016001N9+00001-00111100851ADDAA199000391AY121999GF107991061051012501071001IA1319KA1999M+00111MD1310031+9999MW1011
0076028640999991954041500004+65783+024583FM-12+001599999V0200501N00101220001CN0400001N9-00721-00891101081ADDAY141999GF104991999001999999071001MD1310131+9999MW1281EQDQ01+000002SCOTLC
0076028640999991954041506004+65783+024583FM-12+001599999V0209991C00001220001CN0120001N9-00281-00391101491ADDAY121999GF103991021051008001071001IA1319KA1999N-00721MD1310241+9999MW1011
0057028640999991954041512004+65783+024583FM-12+001599999V0202701N00211075001CN0400001N9+00281-00611101811ADDAY111999GF105991041081008001001051MD1310141+9999MW1021
0063028640999991954041518004+65783+024583FM-12+001599999V0202701N00101220001CN0400001N9+00001-00281102111ADDAY101999GF103991031051004501001001IA1319MD1310171+9999MW1031
0076028640999991954041600004+65783+024583FM-12+001599999V0203401N00101220001CN0400001N9-00721-00781102411ADDAY101999GF102991999001999999041001MD1310161+9999MW1011EQDQ01+000002SCOTLC
0095028640999991954041606004+65783+024583FM-12+001599999V0203601N00261220001CN0400001N9-00281-00721102711ADDAY101999GF102991999001999999041001IA1209KA1999N-01001MD1310191+9999MW1021EQDQ01+000002SCOTLC
0057028640999991954041612004+65783+024583FM-12+001599999V0203601N00411012301CN0400001N9+00501-00501102881ADDAY111999GF105991051021012501001001MD1310041+9999MW1031
0057028640999991954041700004+65783+024583FM-12+001599999V0203601N00211220001CN0400001N9-00501-00891103061ADDAY101999GF100991001001999999001001MD1310021+9999MW1021
0076028640999991954041706004+65783+024583FM-12+001599999V0209991C00001220001CN0400001N9-00281-00781102991ADDAY101999GF102991001001999999001021IA1209KA1999N-00891MD1990041+9999MW1031
0057028640999991954041712004+65783+024583FM-12+001599999V0202001N00211220001CN0200001N9+00001-00391102781ADDAY121999GF107991001001999999021071MD1810141+9999MW1021
0076028640999991954041718004+65783+024583FM-12+001599999V0201801N00361220001CN0200001N9+00001-00501102451ADDAY121999GF107991001001999999071999IA1209KA1999M+00221MD1810131+9999MW1021
0057028640999991954041800004+65783+024583FM-12+001599999V0201401N00101012301CN0400001N9-00221-00281102221ADDAY121999GF108991081051012501999999MD1810151+9999MW1021
0076028640999991954041806004+65783+024583FM-12+001599999V0201401N00411220001CN0400001N9-00221-00391102091ADDAY121999GF107991001001999999071999IA1209KA1999N-00281MD1810031+9999MW1021
0057028640999991954041812004+65783+024583FM-12+001599999V0201801N00411004501CN0400001N9+00111-00221102121ADDAY121999GF107991051051004501071999MD1110041+9999MW1011
0076028640999991954041818004+65783+024583FM-12+001599999V0201801N00211004501CN0400001N9+00001-00111102201ADDAY121999GF107991071051004501999999IA1209KA1999M+00221MD1510051+9999MW1031
0076028640999991954041900004+65783+024583FM-12+001599999V0201401N00261220001CN0400001N9-00111-00111102291ADDAY121999GF104991999001999999071001MD1310011+9999MW1011EQDQ01+000002SCOTLC
0097028640999991954041906004+65783+024583FM-12+001599999V0201801N00461030001CN0400001N9+00001-00111102291ADDAY121999GF107991021081008001071999IA1209KA1999N-00221MW1021EQDQ01+000022APCTENQ02+000002APC3  
0057028640999991954041912004+65783+024583FM-12+001599999V0201801N00671002401CN0400001N9+00111-00111102281ADDAY121999GF108991071051002501999999MD1710031+9999MW1021
0087028640999991954041918004+65783+024583FM-12+001599999V0201801N00261000601CN0018001N9+00001+00001102221ADDAA199000691AY141999GF108991081061000751999999IA1209KA1999M+00111MD1610031+9999MW1101
0057028640999991954042000004+65783+024583FM-12+001599999V0201601N00211220001CN0400001N9-00111-00221102181ADDAY111999GF107991001001999999071999MD1810071+9999MW1031
0076028640999991954042006004+65783+024583FM-12+001599999V0201801N00311220001CN0400001N9-00221-00391101971ADDAY121999GF107991001001999999041071IA1209KA1999N-00281MD1810151+9999MW1011
0087028640999991954042018004+65783+024583FM-12+001599999V0202301N00511004501CN0400001N9+00221-00111100991ADDAA199000391AY181999GF107991061081004501071999IA1209KA1999M+00221MD1610171+9999MW1871
0076028640999991954042100004+65783+024583FM-12+001599999V0202701N00261220001CN0400001N9-00111-00391100981ADDAY101999GF102991999001999999041001MD1810011+9999MW1021EQDQ01+000002SCOTLC
0076028640999991954042106004+65783+024583FM-12+001599999V0202901N00621030001CN0400001N9-00221-00781101041ADDAY121999GF106991021081008001071999IA1209KA1999N-00391MD1310071+9999MW1031
0057028640999991954042112004+65783+024583FM-12+001599999V0202901N00931007801CN0400001N9+00001-01001101321ADDAY111999GF106991061091008001001001MD1310131+9999MW1021
0076028640999991954042200004+65783+024583FM-12+001599999V0202901N00211220001CN0400001N9-00781-01221101601ADDAY101999GF101991999001999999041001MD1310061+9999MW1021EQDQ01+000002SCOTLC
0095028640999991954042206004+65783+024583FM-12+001599999V0202901N00101220001CN0400001N9-00611-01111101581ADDAY101999GF101991999001999999041001IA1209KA1999N-01111MD1810041+9999MW1021EQDQ01+000002SCOTLC
0057028640999991954042212004+65783+024583FM-12+001599999V0202001N00411220001CN0400001N9-00111-00611101571ADDAY111999GF102991021081004501061041MD1710021+9999MW1011
0076028640999991954042218004+65783+024583FM-12+001599999V0209991C00001220001CN0400001N9-00281-00611101401ADDAY111999GF102991011041008001041001IA1199KA1999M+00001MD1810091+9999MW1021
0076028640999991954042300004+65783+024583FM-12+001599999V0201101N00101220001CN0400001N9-00781-00891101221ADDAY101999GF102991999001999999041001MD1810091+9999MW1031EQDQ01+000002SCOTLC
0076028640999991954042306004+65783+024583FM-12+001599999V0203601N00101220001CN0400001N9-00281-00721101171ADDAY111999GF104991011021008001041051IA1199KA1999N-01001MD1310031+9999MW1011
0057028640999991954042312004+65783+024583FM-12+001599999V0203201N00361220001CN0400001N9+00281-00391101291ADDAY111999GF102991021011012501001001MD1310061+9999MW1021
0076028640999991954042318004+65783+024583FM-12+001599999V0209991C00001220001CN0400001N9+00001-00281101441ADDAY111999GF102991021041008001001011IA1199KA1999M+00391MD1310101+9999MW1011
0057028640999991954042400004+65783+024583FM-12+001599999V0200201N00211220001CN0400001N9-00781-01001101581ADDAY101999GF102991021051004501001001MD1310031+9999MW1031
0087028640999991954042406004+65783+024583FM-12+001599999V0203601N00571030001CN0110001N9-00221-00391101711ADDAA199000691AY181999GF106991031091004501061999IA1199KA1999N-00781MD1310101+9999MW1851
0057028640999991954042412004+65783+024583FM-12+001599999V0203601N00621220001CN0400001N9+00001-00611101711ADDAY111999GF104991031011008001001011MD1710011+9999MW1031
0087028640999991954042418004+65783+024583FM-12+001599999V0203601N00361007801CN0400001N9+00001-00721101711ADDAA199000691AY121999GF106991061041008001999999IA1199KA1999M+00111MD1990011+9999MW1021
0057028640999991954042500004+65783+024583FM-12+001599999V0203201N00311220001CN0400001N9-00501-00891101681ADDAY101999GF100991001001999999001001MD1810021+9999MW1011
0095028640999991954042506004+65783+024583FM-12+001599999V0203201N00361220001CN0400001N9-00281-01001101601ADDAY101999GF101991999001999999041001IA1199KA1999N-00721MD1810081+9999MW1021EQDQ01+000002SCOTLC
0057028640999991954042512004+65783+024583FM-12+001599999V0203201N00671220001CN0400001N9+00281-00611101451ADDAY111999GF104991041081008001061001MD1810081+9999MW1031
0087028640999991954042518004+65783+024583FM-12+001599999V0203201N00311030001CN0400001N9+00111-00391101341ADDAA199000691AY111999GF105991041081008001071001IA1199KA1999M+00391MD1710051+9999MW1141
0076028640999991954042600004+65783+024583FM-12+001599999V0202901N00211220001CN0400001N9-00501-00781101321ADDAY101999GF101991999001999999041001MD1310011+9999MW1021EQDQ01+000002SCOTLC
0095028640999991954042606004+65783+024583FM-12+001599999V0203601N00211220001CN0400001N9-00221-00721101341ADDAY101999GF101991999001999999041001IA1199KA1999N-00891MD1310021+9999MW1021EQDQ01+000002SCOTLC
0078028640999991954042612004+65783+024583FM-12+001599999V0202301N00211075001CN0400001N9+00001-00501101361ADDAY111999GF106991021011008001041061MW1021EQDQ01+000032APCTENQ02+000002APC3  
0076028640999991954042618004+65783+024583FM-12+001599999V0209991C00001220001CN0400001N9-00111-00391101381ADDAY111999GF104991001001999999001021IA1199KA1999M+00111MD1310021+9999MW1031
0076028640999991954042706004+65783+024583FM-12+001599999V0209991C00001075001CN0400001N9-00221-00501101661ADDAY111999GF105991011011004501001091IA1199KA1999N-00891MD1310081+9999MW1021
0078028640999991954042712004+65783+024583FM-12+001599999V0202001N00101220001CN0400001N9+00391-00611101711ADDAY111999GF104991021011012501001041MW1031EQDQ01+000032APCTENQ02+000002APC3  
0097028640999991954042718004+65783+024583FM-12+001599999V0209991C00001220001CN0200001N9+00111-00611101711ADDAY111999GF106991001001999999041041IA1199KA1999M+00501MW1011EQDQ01+000032APCTENQ02+000002APC3  
0057028640999991954042812004+65783+024583FM-12+001599999V0202001N00261030001CN0400001N9+00281-00281101391ADDAY111999GF107991021021008001061071MD1810041+9999MW1011
0076028640999991954042818004+65783+024583FM-12+001599999V0202301N00101030001CN0400001N9+00111-00221101211ADDAY121999GF107991011041008001071071IA1199KA1999M+00391MD1810091+9999MW1131
0057028640999991954042900004+65783+024583FM-12+001599999V0209991C00001030001CN0400001N9+00001-00281101021ADDAY111999GF106991021051004501071001MD1810121+9999MW1031
0057028640999991954042912004+65783+024583FM-12+001599999V0209991C00001030001CN0400001N9+00501-00281101011ADDAY121999GF106991021021012501061051MD1310021+9999MW1011
0087028640999991954042918004+65783+024583FM-12+001599999V0200901N00151030001CN0400001N9+00391-00111101011ADDAA199010091AY121999GF107991011021012501071999IA1199KA1999M+00611MD1310061+9999MW1131
0057028640999991954043000004+65783+024583FM-12+001599999V0201101N00311220001CN0400001N9+00111-00281101091ADDAY121999GF108991001001999999071999MD1310041+9999MW1031
0087028640999991954043006004+65783+024583FM-12+001599999V0200901N00411030001CN0400001N9+00221-00391101321ADDAA199000391AY171999GF106991031051008001071001IA1199KA1999N-00111MD1310101+9999MW1221
0057028640999991954043012004+65783+024583FM-12+001599999V0200901N00511030001CN0400001N9+00611-00221101401ADDAY111999GF107991021021008001061011MD1310051+9999MW1031
0076028640999991954043018004+65783+024583FM-12+001599999V0200501N00461030001CN0400001N9+00501+00111101551ADDAY121999GF108991021041004501021999IA1199KA1999M+00721MD1310071+9999MW1031
0057028640999991954050100004+65783+024583FM-12+001599999V0200901N00721030001CN0200001N9+00281-00221101761ADDAY121999GF108991031071004501021999MD1310071+9999MW1011
0087028640999991954050106004+65783+024583FM-12+001599999V0200901N00671030001CN0400001N9+00281-00221101981ADDAA199000691AY121999GF108991021071004501021999IA1189KA1999N+00221MD1310091+9999MW1031
0057028640999991954050112004+65783+024583FM-12+001599999V0200901N00511220001CN0400001N9+00781-00281101981ADDAY111999GF106991001001999999051011MD1610011+9999MW1021
0076028640999991954050118004+65783+024583FM-12+001599999V0201101N00311004501CN0400001N9+00611-00281101991ADDAY121999GF108991081071004501999999IA1189KA1999M+00781MD1310021+9999MW1021
0108028640999991954050206004+65783+024583FM-12+001599999V0201101N00361220001CN0400001N9+00501-00221102151ADDAA199000691AY111999GF106991001001999999031011IA1189KA1999N+00281MW1131EQDQ01+000032APCTENQ02+000002APC3  
0076028640999991954050212004+65783+024583FM-12+001599999V0202701N00101220001CN0400001N9+00781+00111101971ADDAY111999GF106991999001999999031001MD1610091+9999MW1031EQDQ01+000002SCOTLC
0076028640999991954050218004+65783+024583FM-12+001599999V0209991C00001220001CN0400001N9+00721+00111101891ADDAY101999GF102991001001999999001011IA1189KA1999M+01001MD1810031+9999MW1021
0076028640999991954050306004+65783+024583FM-12+001599999V0201401N00461220001CN0400001N9+00611-00221102051ADDAY101999GF104991001001999999001071IA1189KA1999N-00111MD1110081+9999MW1021
0097028640999991954050318004+65783+024583FM-12+001599999V0200401N00211030001CN0400001N9+01001+00221102011ADDAY111999GF106991021051012501071001IA1189KA1999M+01221MW1031EQDQ01+000032APCTENQ02+000002APC3  
0057028640999991954050400004+65783+024583FM-12+001599999V0201601N00151015001CN9999999N9+00501-00111102371ADDAY121999GF107991071001017501071999MD1310041+9999MW1051
0076028640999991954050406004+65783+024583FM-12+001599999V0200901N00211220001CN0400001N9+00781+00281102191ADDAY121999GF106991001001999999031011IA1189KA1999N+00391MD1310031+9999MW1131
0057028640999991954050412004+65783+024583FM-12+001599999V0200901N00311030001CN0400001N9+01111+00221102151ADDAY121999GF108991041051012501071999MD1710041+9999MW1031
0076028640999991954050418004+65783+024583FM-12+001599999V0203601N00151012301CN0400001N9+01001+00391102051ADDAY111999GF107991051051012501071999IA1189KA1999M+01281MD1610051+9999MW1131
0076028640999991954050500004+65783+024583FM-12+001599999V0201101N00461220001CN0400001N9+00611+00111102021ADDAY111999GF102991999001999999071001MD1310011+9999MW1011EQDQ01+000002SCOTLC
0063028640999991954050506004+65783+024583FM-12+001599999V0201101N00411220001CN0400001N9+01891+00391102121ADDAY101999GF100991001001999999001001IA1189MD1310071+9999MW1011
0057028640999991954050512004+65783+024583FM-12+001599999V0200501N00361220001CN0400001N9+01281+00281102191ADDAY101999GF101991011011012501001001MD1990021+9999MW1011
0113028640999991954050518004+65783+024583FM-12+001599999V0200901N00311220001CN0400001N9+01281+00611102151ADDAY101999GF101991999001999999041001IA1189KA1999M+01391MW1021EQDQ01+000002SCOTLCQ02+000042APCTENQ03+000032APC3  
0076028640999991954050600004+65783+024583FM-12+001599999V0201101N00261220001CN0400001N9+00501+00001102261ADDAY111999GF101991999001999999041001MD1310051+9999MW1011EQDQ01+000002SCOTLC
0076028640999991954050606004+65783+024583FM-12+001599999V0201401N00461220001CN0400001N9+00891+00221102221ADDAY111999GF106991001001999999041051IA1189KA1999N+00391MD1810031+9999MW1031
0057028640999991954050612004+65783+024583FM-12+001599999V0201401N00411030001CN0200001N9+01111+00221102061ADDAY111999GF108991041071004501021999MD1510041+9999MW1251
0087028640999991954050618004+65783+024583FM-12+001599999V0201801N00311000151CN0002001N9+00391+00391102161ADDAA199003091AY141999GF109991091999000251999999IA1189KA1999M+01391MD1210021+9999MW1451
0057028640999991954050700004+65783+024583FM-12+001599999V0201401N00411000151CN0002001N9+00221+00221102261ADDAY141999GF109991091999000251999999MD1310021+9999MW1451
0087028640999991954050706004+65783+024583FM-12+001599999V0201101N00211000151CN0004001N9+00501+00501102261ADDAA199000691AY141999GF109991091999000251999999IA1189KA1999N+00221MD1210021+9999MW1471
0057028640999991954050712004+65783+024583FM-12+001599999V0200901N00211030001CN0200001N9+01281+01111101951ADDAY111999GF106991021071004501041011MD1810201+9999MW1211
0063028640999991954050718004+65783+024583FM-12+001599999V0201801N00101007801CN0400001N9+01391+00891101861ADDAY111999GF106991051081008001071011IA1189MD1990031+9999MW1031
0057028640999991954050800004+65783+024583FM-12+001599999V0202301N00211000151CN0006001N9+00611+00611102041ADDAY141999GF109991091999000251999999MD1310101+9999MW1451
0087028640999991954050806004+65783+024583FM-12+001599999V0201801N00311000151CN0008001N9+00501+00501102081ADDAA199000691AY141999GF109991091999000251999999IA1189KA1999N+00281MD1010011+9999MW1431
0057028640999991954050812004+65783+024583FM-12+001599999V0201801N00101220001CN0200001N9+00721+00721102091ADDAY141999GF104991011061001501051001MD1710041+9999MW1281
0087028640999991954050818004+65783+024583FM-12+001599999V0201101N00101030001CN0050001N9+00721+00721102051ADDAA199002091AY161999GF108991021081004501071999IA1189KA1999M+01111MD1710031+9999MW1211
0057028640999991954050900004+65783+024583FM-12+001599999V0202301N00101001501CN0010001N9+00221+00221102191ADDAY141999GF106991061061001501071999MD1310051+9999MW1281
0087028640999991954050906004+65783+024583FM-12+001599999V0202901N00261220001CN0400001N9+00781+00391102341ADDAA199002091AY101999GF100991001001999999001001IA1189KA1999N-00111MD1310111+9999MW1021
0057028640999991954050912004+65783+024583FM-12+001599999V0202501N00571220001CN0400001N9+01221+00281102451ADDAY101999GF102991021011012501001001MD1310041+9999MW1031
0076028640999991954050918004+65783+024583FM-12+001599999V0202901N00461220001CN0400001N9+01111-00221102511ADDAY101999GF101991011041012501001051IA1159KA1999M+01281MD1310051+9999MW1011
0076028640999991954051006004+65783+024583FM-12+001599999V0200901N00211220001CN0400001N9+00721+00001102781ADDAY101999GF100991001001999999001001IA1089KA1999N+00111MD1310031+9999MW1021
0078028640999991954051012004+65783+024583FM-12+001599999V0203201N00411030001CN0400001N9+01221+00001102751ADDAY111999GF105991041021012501061001MW1011EQDQ01+000042APCTENQ02+000032APC3  
0076028640999991954051018004+65783+024583FM-12+001599999V0203201N00261220001CN0400001N9+01111+00001102781ADDAY111999GF103991021041017501061041IA1009KA1999M+01281MD1210021+9999MW1011
0057028640999991954051100004+65783+024583FM-12+001599999V0203201N00311220001CN0400001N9+00281-00221102881ADDAY101999GF103991011051012501041051MD1310031+9999MW1031
0097028640999991954051106004+65783+024583FM-12+001599999V0203601N00771030001CN0400001N9+00611-00111102881ADDAY111999GF106991021081004501071001IA1009KA1999N+00111MW1011EQDQ01+000032APCTENQ02+000002APC3  
0057028640999991954051112004+65783+024583FM-12+001599999V0203601N00411007801CN0400001N9+00721-00281102961ADDAY121999GF108991061081008001071999MD1110031+9999MW1021
0076028640999991954051118004+65783+024583FM-12+001599999V0203601N00361007801CN0400001N9+00721-00221103051ADDAY121999GF107991061081008001071999IA1009KA1999M+00721MD1310041+9999MW1021
0057028640999991954051200004+65783+024583FM-12+001599999V0200201N00311030001CN0400001N9+00391-00221103261ADDAY121999GF108991041051008001071999MD1310121+9999MW1011
0076028640999991954051206004+65783+024583FM-12+001599999V0200201N00511007801CN0400001N9+00221-00501103441ADDAY121999GF106991061051008001001001IA1009KA1999N+00111MD1310091+9999MW1011
0057028640999991954051212004+65783+024583FM-12+001599999V0200201N00411220001CN0400001N9+00781+00001103311ADDAY101999GF100991001001999999001001MD1810111+9999MW1021
0095028640999991954051218004+65783+024583FM-12+001599999V0200201N00511220001CN0400001N9+00781-00501103191ADDAY101999GF101991999001999999041001IA1009KA1999M+00891MD1710011+9999MW1031EQDQ01+000002SCOTLC
0057028640999991954051300004+65783+024583FM-12+001599999V0200201N00261220001CN0400001N9-00221-00391103351ADDAY101999GF101991001001999999001021MD1310091+9999MW1011
0095028640999991954051306004+65783+024583FM-12+001599999V0203601N00211220001CN0400001N9+00391+99999103361ADDAY101999GF101991999001999999041001IA1009KA1999N-00281MD1990021+9999MW1021EQDQ01+000002SCOTLC
0057028640999991954051312004+65783+024583FM-12+001599999V0203601N00411220001CN0400001N9+00891-00501103051ADDAY101999GF101991001001999999001021MD1810171+9999MW1021
0095028640999991954051318004+65783+024583FM-12+001599999V0200501N00511220001CN0400001N9+00891-00611102921ADDAY101999GF101991999001999999041001IA1009KA1999M+01111MD1810011+9999MW1021EQDQ01+000002SCOTLC
0076028640999991954051400004+65783+024583FM-12+001599999V0200201N00261220001CN0400001N9+00001-00501102981ADDAY111999GF103991999001999999071001MD1310051+9999MW1021EQDQ01+000002SCOTLC
0076028640999991954051406004+65783+024583FM-12+001599999V0203601N00411012301CN0400001N9+00221-00721102941ADDAY121999GF107991071051012501001001IA1009KA1999N-00281MD1810051+9999MW1021
0057028640999991954051412004+65783+024583FM-12+001599999V0200201N00671220001CN0400001N9+00501-00611102621ADDAY111999GF104991041011012501001001MD1810201+9999MW1021
0076028640999991954051418004+65783+024583FM-12+001599999V0200501N00411007801CN0400001N9+00501-00611102281ADDAY121999GF107991071051008001999999IA1009KA1999M+00721MD1810171+9999MW1031
0087028640999991954051506004+65783+024583FM-12+001599999V0200901N00461004501CN0400001N9+00111+00001101791ADDAA199001091AY121999GF107991071091004501999999IA1089KA1999N+00001MD1610031+9999MW1021
0057028640999991954051512004+65783+024583FM-12+001599999V0200501N00311004501CN0400001N9+00281-00391101741ADDAY121999GF107991061081004501061999MD1810051+9999MW1021
0076028640999991954051518004+65783+024583FM-12+001599999V0203201N00211007801CN0400001N9+00281-00281101541ADDAY121999GF107991071051008001999999IA1089KA1999M+00391MD1810121+9999MW1021
0078028640999991954051600004+65783+024583FM-12+001599999V0209991C00001007801CN0400001N9+00001-00281101461ADDAY121999GF107991071051008001999999MW1021EQDQ01+000032APCTENQ02+000002APC3  
0087028640999991954051606004+65783+024583FM-12+001599999V0201401N00361004501CN0400001N9+00221-00111101581ADDAA199000691AY121999GF108991081081004501999999IA1089KA1999N-00221MD1310081+9999MW1221
0057028640999991954051612004+65783+024583FM-12+001599999V0201101N00511030001CN0400001N9+00721-00281101651ADDAY121999GF106991041091012501061999MD1310051+9999MW1011
0097028640999991954051618004+65783+024583FM-12+001599999V0201101N00721007801CN0400001N9+00721-00281101691ADDAY111999GF107991061091008001061999IA1009KA1999M+00781MW1141EQDQ01+000032APCTENQ02+000002APC3  
0057028640999991954051700004+65783+024583FM-12+001599999V0201101N00671002401CN0200001N9+00281+00221101621ADDAY161999GF108991061071002501021999MD1810111+9999MW1021
0087028640999991954051706004+65783+024583FM-12+001599999V0201101N00721030001CN0140001N9+00501+00221101221ADDAA199003091AY161999GF108991041071004501021999IA1109KA1999N+00221MD1810221+9999MW1631
0057028640999991954051712004+65783+024583FM-12+001599999V0201401N00981004501CN0070001N9+00891+00611101181ADDAY111999GF107991051091004501001071MD1110041+9999MW1031
0087028640999991954051718004+65783+024583FM-12+001599999V0201801N00511075001CN0400001N9+00501+00111101601ADDAA199008091AY121999GF106991021081008001001051IA1109KA1999M+00891MD1310181+9999MW1011
0057028640999991954051800004+65783+024583FM-12+001599999V0201401N00101004501CN0140001N9+00281+00281101891ADDAY161999GF108991061071004501021999MD1310141+9999MW1611
0087028640999991954051806004+65783+024583FM-12+001599999V0203601N00151001501CN0400001N9+00611+00501102011ADDAA199003091AY121999GF108991071061001501011999IA1109KA1999N+00281MD1310061+9999MW1021
0057028640999991954051812004+65783+024583FM-12+001599999V0202701N00151002401CN0140001N9+00781+00611102081ADDAY161999GF108991061071002501021999MD1310031+9999MW1611
0108028640999991954051818004+65783+024583FM-12+001599999V0203601N00211004501CN0050001N9+00891+00891102051ADDAA199002091AY121999GF108991061091004501071999IA1109KA1999M+01001MW1021EQDQ01+000042APCTENQ02+000042APC3  
0057028640999991954051900004+65783+024583FM-12+001599999V0209991C00001004501CN0110001N9+00721+00721102221ADDAY161999GF108991051071004501021999MD1310041+9999MW1611
0087028640999991954051906004+65783+024583FM-12+001599999V0203401N00101000601CN0034001N9+00781+00611102351ADDAA199001091AY141999GF108991081061000751999999IA1089KA1999N+00611MD1010051+9999MW1501
0057028640999991954051912004+65783+024583FM-12+001599999V0203601N00101030001CN0400001N9+01501+00891102211ADDAY121999GF107991021021008001041071MD1990021+9999MW1021
0087028640999991954051918004+65783+024583FM-12+001599999V0203601N00311220001CN0400001N9+01501+00891102201ADDAA199000691AY111999GF105991001001999999041011IA1009KA1999M+01721MD1810031+9999MW1011
0076028640999991954052000004+65783+024583FM-12+001599999V0203601N00261220001CN0200001N9+00611+00501102191ADDAY101999GF101991999001999999041001MD1810011+9999MW1111EQDQ01+000002SCOTLC
0076028640999991954052006004+65783+024583FM-12+001599999V0203601N00361220001CN0400001N9+01221+00781102141ADDAY111999GF102991011011008001041011IA1009KA1999N+00501MD1990011+9999MW1011
0057028640999991954052012004+65783+024583FM-12+001599999V0209991C00001220001CN0400001N9+02001+00611102021ADDAY111999GF104991031021012501071001MD1810081+9999MW1031
0087028640999991954052018004+65783+024583FM-12+001599999V0203601N00101220001CN0400001N9+01781+00721102011ADDAA199000691AY111999GF104991021041012501071001IA1009KA1999M+02001MD1990021+9999MW1011
0057028640999991954052100004+65783+024583FM-12+001599999V0200901N00361030001CN0400001N9+01281+00611102111ADDAY121999GF106991021051008001071001MD1310071+9999MW1021
0076028640999991954052106004+65783+024583FM-12+001599999V0200901N00411004501CN0400001N9+01221+00781102261ADDAY111999GF106991051081004501071001IA1009KA1999N+00891MD1310091+9999MW1031
0057028640999991954052112004+65783+024583FM-12+001599999V0200901N00461075001CN0400001N9+01891+00501102261ADDAY121999GF105991011011012501071011MD1710041+9999MW1011
0076028640999991954052118004+65783+024583FM-12+001599999V0209991C00001220001CN0400001N9+01501+00721102221ADDAY111999GF102991011041012501041041IA1009KA1999M+02001MD1210021+9999MW1011
0076028640999991954052200004+65783+024583FM-12+001599999V0201101N00261220001CN0200001N9+01001+00611102421ADDAY111999GF103991999001999999041001MD1310091+9999MW1021EQDQ01+000002SCOTLC
0081028640999991954052206004+65783+024583FM-12+001599999V0201101N00261220001CN0400001N9+01391+00611102561ADDAY101999GF102991999001999999031001IA1009KA1999N+00891MW1011EQDQ01+000002SCOTLC
0057028640999991954052212004+65783+024583FM-12+001599999V0202001N00361220001CN0400001N9+01781+00501102461ADDAY101999GF102991021011012501001001MD1610041+9999MW1031
0076028640999991954052218004+65783+024583FM-12+001599999V0202001N00101220001CN0400001N9+01781+00721102311ADDAY101999GF101991011041012501001001IA1009KA1999M+01891MD1810051+9999MW1011
0057028640999991954052300004+65783+024583FM-12+001599999V0201101N00311220001CN0400001N9+01001+00221999999ADDAY101999GF102991011051012501041001MD1310041+9999MW1021
0097028640999991954052306004+65783+024583FM-12+001599999V0201401N00211220001CN0400001N9+01501+00001102411ADDAY101999GF102991001001999999001051IA1009KA1999N+00721MW1031EQDQ01+000032APCTENQ02+000002APC3  
0057028640999991954052312004+65783+024583FM-12+001599999V0202301N99999220001CN0400001N9+01781+00111102251ADDAY101999GF101991001001999999001061MD1810071+9999MW1021
0076028640999991954052318004+65783+024583FM-12+001599999V0202501N00101220001CN0400001N9+01611+00391102091ADDAY111999GF106991001001999999001061IA1009KA1999M+01891MD1610041+9999MW1021
0057028640999991954052400004+65783+024583FM-12+001599999V0209991C00001220001CN0400001N9+00391+00281102181ADDAY111999GF101991001001999999001011MD1310041+9999MW1011
0076028640999991954052406004+65783+024583FM-12+001599999V0201801N00261220001CN0400001N9+01391+00501102211ADDAY101999GF100991001001999999001001IA1009KA1999N+00221MD1310051+9999MW1021
0057028640999991954052412004+65783+024583FM-12+001599999V0202001N00261220001CN0400001N9+02001+00391102181ADDAY101999GF101991001001999999001021MD1810031+9999MW1021
0076028640999991954052418004+65783+024583FM-12+001599999V0202301N00051220001CN0400001N9+01891+00501101991ADDAY101999GF101991001001999999001021IA1009KA1999M+02001MD1810081+9999MW1021
0078028640999991954052500004+65783+024583FM-12+001599999V0200201N00151220001CN0400001N9+00611+00501102011ADDAY101999GF100991001001999999001001MW1021EQDQ01+000032APCTENQ02+000002APC3  
0095028640999991954052506004+65783+024583FM-12+001599999V0201401N00101220001CN0400001N9+02001+00221102011ADDAY101999GF101991999001999999041001IA1009KA1999N+00501MD1990031+9999MW1021EQDQ01+000002SCOTLC
0078028640999991954052512004+65783+024583FM-12+001599999V0202301N00311220001CN0200001N9+01891+00611102061ADDAY111999GF103991011011017501071001MW1041EQDQ01+000032APCTENQ02+000002APC3  
0097028640999991954052518004+65783+024583FM-12+001599999V0202001N00211220001CN0600001N9+01281+00891102081ADDAY101999GF103991001001999999041051IA1009KA1999M+02281MW1021EQDQ01+000032APCTENQ02+000002APC3  
0057028640999991954052600004+65783+024583FM-12+001599999V0201801N00261220001CN0400001N9+00781+00611102111ADDAY101999GF102991001001999999041051MD1810011+9999MW1021
0062028640999991954052606004+65783+024583FM-12+001599999V0201801N00311220001CN0400001N9+01001+00721102051ADDAY111999GF102991001001999999001091IA1009KA1999N+00721MW1011
0076028640999991954052618004+65783+024583FM-12+001599999V0203601N00411220001CN0400001N9+01721+00781102051ADDAY111999GF104991041081012501001001IA1009KA1999M+02001MD1310101+9999MW1031
0076028640999991954052700004+65783+024583FM-12+001599999V0203601N00671220001CN0400001N9+00891+00781102371ADDAY111999GF106991999001999999041001MD1310131+9999MW1011EQDQ01+000002SCOTLC
0095028640999991954052706004+65783+024583FM-12+001599999V0203601N00511220001CN0400001N9+01111+00391102581ADDAY111999GF102991999001999999051001IA1009KA1999N+00781MD1310091+9999MW1011EQDQ01+000002SCOTLC
0057028640999991954052712004+65783+024583FM-12+001599999V0203201N00411220001CN0400001N9+01891+00281102591ADDAY101999GF102991011011017501041041MD1810061+9999MW1031
0062028640999991954052718004+65783+024583FM-12+001599999V0202701N00261220001CN0400001N9+01611+00391102511ADDAY111999GF104991011041012501041091IA1009KA1999M+01891MW1021
0057028640999991954052800004+65783+024583FM-12+001599999V0201101N000519999999N0400001N9+00781+00611102541ADDAY121999GF106991999051008001041999MD1810011+9999MW1021
0076028640999991954052806004+65783+024583FM-12+001599999V0202001N00411220001CN0400001N9+01281+00501102381ADDAY111999GF104991001001999999081041IA1009KA1999N+00721MD1810061+9999MW1011
0057028640999991954052812004+65783+024583FM-12+001599999V0202001N00461030001CN0400001N9+01281+00721102121ADDAY121999GF108991011021012501011999MD1810161+9999MW1021
0087028640999991954052818004+65783+024583FM-12+001599999V0201801N00101030001CN0400001N9+01111+00781101841ADDAA199000691AY161999GF106991021051008001071999IA1089KA1999M+01611MD1810181+9999MW1211
0076028640999991954052900004+65783+024583FM-12+001599999V0209991C00001220001CN0400001N9+00721+00611101661ADDAY101999GF102991999001999999041001MD1810091+9999MW1111EQDQ01+000002SCOTLC
0076028640999991954052906004+65783+024583FM-12+001599999V0201301N00411220001CN0400001N9+01281+00781101411ADDAY121999GF107991001001999999041071IA1009KA1999N+00501MD1810111+9999MW1031
0057028640999991954052912004+65783+024583FM-12+001599999V0202301N00621007801CN0400001N9+01611+00781101091ADDAY121999GF107991071091008001999999MD1810171+9999MW1031
0097028640999991954052918004+65783+024583FM-12+001599999V0203601N00511030001CN0400001N9+01781+00611100891ADDAY121999GF106991041091012501041001IA1009KA1999M+02111MW1021EQDQ01+000042APCTENQ02+000062APC3  
0076028640999991954053000004+65783+024583FM-12+001599999V0203601N00511220001CN0400001N9+00611-00221101301ADDAY111999GF102991999001999999041001MD1310241+9999MW1021EQDQ01+000002SCOTLC
0076028640999991954053006004+65783+024583FM-12+001599999V0203601N005119999999N0400001N9+00781-00281101681ADDAY111999GF106991011011012501999061IA1009KA1999N+00501MD1310081+9999MW1031
0057028640999991954053012004+65783+024583FM-12+001599999V0202501N00511030001CN0400001N9+00891-00111101581ADDAY111999GF107991011011012501071999MD1810121+9999MW1031
0063028640999991954053018004+65783+024583FM-12+001599999V0202301N00361007801CN0400001N9+00721+00001101281ADDAY121999GF108991081051008001999999IA1009MD1810121+9999MW1021
0057028640999991954053100004+65783+024583FM-12+001599999V0201401N00211015001CN0200001N9+00611+00221100921ADDAY121999GF108991051051017501999999MD1810201+9999MW1031
0106028640999991954053106004+65783+024583FM-12+001599999V0201801N00151007801CN0200001N9+00781+00611100561ADDAA199000691AY161999GF108991999041008001071999IA1009KA1999N+00781MD1510171+9999MW1211EQDQ01+000082SCOTLC
0057028640999991954053112004+65783+024583FM-12+001599999V0203201N00511007801CN0400001N9+00891+00721100591ADDAY161999GF108991061081008001021999MD1310071+9999MW1611
0087028640999991954053118004+65783+024583FM-12+001599999V0203601N00511030001CN0400001N9+00891+00111100721ADDAA199000391AY111999GF108991041081008001041001IA1009KA1999M+01221MD1310121+9999MW1011
0057028640999991954060100004+65783+024583FM-12+001599999V0203201N00511030001CN0400001N9+00501-00221101001ADDAY111999GF105991031051008001071001MD1310071+9999MW1031
0076028640999991954060106004+65783+024583FM-12+001599999V0203201N00411007801CN0400001N9+00501-00391101191ADDAY111999GF106991051041008001041001IA1009KA1999N+00221MD1310061+9999MW1011
