0057028640999991955010100004+65783+024583FM-12+001599999V0202001N00571002401CN0200001N9+00001-00111103341ADDAY121999GF108991081051002501999999MD1710091+9999MW1021
0070028640999991955010106004+65783+024583FM-12+001599999V0202001N00721002401CN0200001N9+00111+00001103051ADDAY121999GF108991081051002501999999KA1999N-00111MD1710121+9999MW1021
0057028640999991955010112004+65783+024583FM-12+001599999V0202001N00311002401CN0300001N9+00001-00111102981ADDAY121999GF108991051051002501071999MD1710021+9999MW1031
0070028640999991955010118004+65783+024583FM-12+001599999V0209991C00001220001CN0500001N9-00501-00611103461ADDAY101999GF100991001001999999001001KA1999M+00111MD1210331+9999MW1021
0057028640999991955010200004+65783+024583FM-12+001599999V0209991C00001220001CN0500001N9-00891-01001104021ADDAY101999GF100991001001999999001001MD1210281+9999MW1021
0070028640999991955010206004+65783+024583FM-12+001599999V0209991C00001220001CN0500001N9-01501-01501104371ADDAY101999GF100991001001999999001001KA1999N-01611MD1210111+9999MW1021
0076028640999991955010212004+65783+024583FM-12+001599999V0209991C00001220001CN0500001N9-01391-01501104591ADDAY101999GF101991999001999999041001MD1210071+9999MW1021EQDQ01+000002SCOTLC
0070028640999991955010218004+65783+024583FM-12+001599999V0209991C00001220001CN0300001N9-01721-01781104711ADDAY101999GF100991001001999999001001KA1999M-01391MD1310071+9999MW1021
0070028640999991955010306004+65783+024583FM-12+001599999V0201101N00101220001CN0050001N9-01111-01221104441ADDAY111999GF102991021061000751001001KA1999N-01891MD1710131+9999MW1021
0057028640999991955010312004+65783+024583FM-12+001599999V0209991C00001220001CN0100001N9-01391-01501104121ADDAY111999GF104991021051002501041011MD1710201+9999MW1031
0089028640999991955010318004+65783+024583FM-12+001599999V0209991C00001220001CN0400001N9-01721-01781103811ADDAY111999GF102991999001999999041001KA1999M-00891MD1710161+9999MW1011EQDQ01+000002SCOTLC
0089028640999991955010406004+65783+024583FM-12+001599999V0202001N00151220001CN0400001N9-00611-00721102891ADDAY101999GF102991999001999999041001KA1999N-01721MD1710311+9999MW1021EQDQ01+000002SCOTLC
0057028640999991955010412004+65783+024583FM-12+001599999V0202001N00261220001CN0400001N9-00611-00721102481ADDAY101999GF102991011051004501041001MD1710261+9999MW1021
0057028640999991955010500004+65783+024583FM-12+001599999V0203601N00311220001CN0400001N9-00501-00721101781ADDAY121999GF102991001001999999041011MD1310031+9999MW1011
0089028640999991955010506004+65783+024583FM-12+001599999V0203601N00411220001CN0400001N9-00781-00891102051ADDAY111999GF103991999001999999071001KA1999N-00781MD1210161+9999MW1011EQDQ01+000002SCOTLC
0057028640999991955010512004+65783+024583FM-12+001599999V0200201N00261220001CN0500001N9-01281-01391102181ADDAY101999GF106991001001999999011041MD1210021+9999MW1031
0070028640999991955010518004+65783+024583FM-12+001599999V0203601N00211220001CN0500001N9-01221-01281102191ADDAY121999GF107991001001999999071999KA1999M-00781MD1210071+9999MW1031
0057028640999991955010600004+65783+024583FM-12+001599999V0203201N00361220001CN0500001N9-01611-01721102391ADDAY101999GF100991001001999999001001MD1310071+9999MW1011
0089028640999991955010606004+65783+024583FM-12+001599999V0201801N00101220001CN0500001N9-02111-02221102221ADDAY101999GF101991999001999999041001KA1999N-02501MD1710111+9999MW1021EQDQ01+000002SCOTLC
0057028640999991955010612004+65783+024583FM-12+001599999V0202301N00211220001CN0500001N9-01501-01721101761ADDAY111999GF106991001001999999041051MD1810241+9999MW1021
0070028640999991955010618004+65783+024583FM-12+001599999V0201801N00151220001CN0400001N9-01721-01781101081ADDAY101999GF104991001001999999001061KA1999M-01501MD1710311+9999MW1031
0057028640999991955010700004+65783+024583FM-12+001599999V0202001N00311220001CN0500001N9-00781-00891100371ADDAY121999GF107991001001999999001071MD1710391+9999MW1021
0068028640999991955010706004+65783+024583FM-12+001599999V0202901N00151004501CN0050001N9-00501-00501099681ADDAA199002091AY171999GF108991051071004501021999MD1710271+9999MW1711
0057028640999991955010712004+65783+024583FM-12+001599999V0203601N00511030001CN0500001N9-01391-01501099691ADDAY121999GF106991021051004501071021MD1310091+9999MW1011
0100028640999991955010718004+65783+024583FM-12+001599999V0203201N00411220001CN0500001N9-01221-01391100201ADDAA199000691AY101999GF101991999001999999041001KA1999M-00501MD1210261+9999MW1031EQDQ01+000002SCOTLC
0057028640999991955010800004+65783+024583FM-12+001599999V0209991C00001220001CN0500001N9-01721-01781100491ADDAY101999GF100991001001999999001001MD1210161+9999MW1021
0070028640999991955010806004+65783+024583FM-12+001599999V0203201N00101220001CN0500001N9-02391-02611100621ADDAY101999GF103991001001999999041051KA1999N-02391MD1210061+9999MW1021
0057028640999991955010812004+65783+024583FM-12+001599999V0201801N00211075001CN0400001N9-02001-02221100541ADDAY111999GF105991021051004501041011MD1710151+9999MW1031
0089028640999991955010818004+65783+024583FM-12+001599999V0203601N00101220001CN0400001N9-02221-02391100541ADDAY111999GF105991999001999999071001KA1999M-01221MD1310041+9999MW1031EQDQ01+000002SCOTLC
0057028640999991955010912004+65783+024583FM-12+001599999V0201101N00311004501CN0070001N9-01221-01281100151ADDAY171999GF108991081051004501999999MD1710241+9999MW1771
0081028640999991955010918004+65783+024583FM-12+001599999V0202001N00261220001CN0200001N9-01001-01111099801ADDAA199000691AY111999GF104991021051002501071999KA1999M-00721MD1710151+9999MW1031
0057028640999991955011000004+65783+024583FM-12+001599999V0200201N00151220001CN0200001N9-01391-01501099651ADDAY141999GF108991001001999999011999MD1710101+9999MW1031
0057028640999991955011012004+65783+024583FM-12+001599999V0209991C00001000601CN0030001N9-01111-01221099221ADDAY141999GF108991081061000751999999MD1710171+9999MW1281
0081028640999991955011018004+65783+024583FM-12+001599999V0201101N00311002401CN0020001N9-00501-00501098561ADDAA199001091AY171999GF108991061071002501021999KA1999M-00501MD1710391+9999MW1731
0057028640999991955011100004+65783+024583FM-12+001599999V0201401N00671002401CN0100001N9-00221-00281097891ADDAY171999GF108991061051002501021999MD1710401+9999MW1711
0100028640999991955011106004+65783+024583FM-12+001599999V0201401N00931002401CN0020001N9-00721-00781096951ADDAA199002091AY171999GF108991061071002501021999KA1999N-00721MD1710502+9999MW1731EQDQ01+000502APC3  
0057028640999991955011112004+65783+024583FM-12+001599999V0201101N00571002401CN0010001N9-00721-00781096041ADDAY171999GF108991061071002501021999MD1710461+9999MW1741
0081028640999991955011118004+65783+024583FM-12+001599999V0201401N00411220001CN0100001N9-00391-00391095621ADDAA199005091AY171999GF104991041051002501001001KA1999M-00281MD1710191+9999MW1221
0057028640999991955011200004+65783+024583FM-12+001599999V0202301N00621004501CN0100001N9-01001-01111095711ADDAY171999GF108991071051004501021999MD1210131+9999MW1711
0100028640999991955011206004+65783+024583FM-12+001599999V0202301N00261220001CN0400001N9-01611-01721096181ADDAA199000391AY111999GF103991999001999999071001KA1999N-01611MD1210241+9999MW1011EQDQ01+000002SCOTLC
0057028640999991955011212004+65783+024583FM-12+001599999V0209991C00001220001CN0350001N9-01501-01611096351ADDAY111999GF106991001001999999071999MD1210031+9999MW1011
0081028640999991955011218004+65783+024583FM-12+001599999V0209991C00001004501CN0150001N9-01391-01501096621ADDAA199000691AY121999GF106991061051004501001001KA1999M-01391MD1210171+9999MW1711
0057028640999991955011300004+65783+024583FM-12+001599999V0200201N00211220001CN0500001N9-02221-02391097111ADDAY101999GF100991001001999999001001MD1210241+9999MW1021
0081028640999991955011306004+65783+024583FM-12+001599999V0200201N00211220001CN0200001N9-01891-02111097581ADDAA199000691AY111999GF102991011051002501041001KA1999N-02281MD1210231+9999MW1011
0057028640999991955011312004+65783+024583FM-12+001599999V0203601N00101001501CN0040001N9-01391-01501098081ADDAY171999GF108991071071001501021999MD1210231+9999MW1711
0100028640999991955011318004+65783+024583FM-12+001599999V0209991C00001220001CN0400001N9-01781-01891098461ADDAA199002091AY111999GF102991999001999999071001KA1999M-01111MD1210181+9999MW1021EQDQ01+000002SCOTLC
0057028640999991955011400004+65783+024583FM-12+001599999V0209991C00001220001CN0400001N9-02111-02221098771ADDAY101999GF103991001001999999001051MD1210141+9999MW1031
0070028640999991955011406004+65783+024583FM-12+001599999V0201101N00311004501CN0400001N9-01001-01111098751ADDAY121999GF108991081051004501999999KA1999N-02501MD1510041+9999MW1021
0057028640999991955011412004+65783+024583FM-12+001599999V0201101N00311001501CN0100001N9-00891-01001098791ADDAY171999GF108991081061001501999999MD1410001+9999MW1771
0081028640999991955011418004+65783+024583FM-12+001599999V0200501N00311001501CN0100001N9-01281-01391098781ADDAA199000691AY121999GF108991081061001501999999KA1999M-00781MD1410001+9999MW1701
0081028640999991955011506004+65783+024583FM-12+001599999V0200201N00151002401CN0200001N9-01281-01391098641ADDAA199000691AY171999GF108991081061002501999999KA1999N-01611MD1710031+9999MW1711
0057028640999991955011512004+65783+024583FM-12+001599999V0200201N00151030001CN0100001N9-01281-01391098651ADDAY171999GF107991021051004501071999MD1210041+9999MW1711
0081028640999991955011518004+65783+024583FM-12+001599999V0203601N00101220001CN0400001N9-01611-01721098681ADDAA199000391AY111999GF100991001001999999001001KA1999M-01221MD1510011+9999MW1011
0057028640999991955011600004+65783+024583FM-12+001599999V0203601N00211002401CN0200001N9-01391-01501098801ADDAY121999GF108991081051002501999999MD1210051+9999MW1021
0070028640999991955011606004+65783+024583FM-12+001599999V0202901N00101002401CN0200001N9-01501-01611099001ADDAY121999GF108991081051002501999999KA1999N-01611MD1210091+9999MW1701
0057028640999991955011612004+65783+024583FM-12+001599999V0209991C00001220001CN0200001N9-02221-02281099081ADDAY101999GF101991011051004501041001MD1210061+9999MW1021
0081028640999991955011618004+65783+024583FM-12+001599999V0209991C00001220001CN0200001N9-02781-03111098911ADDAA199000691AY101999GF100991001001999999001001KA1999M-01391MD1710121+9999MW1011
0057028640999991955011700004+65783+024583FM-12+001599999V0200201N00101220001CN0200001N9-02391-02611098541ADDAY101999GF100991001001999999001001MD1710251+9999MW1021
0070028640999991955011706004+65783+024583FM-12+001599999V0203601N00211030001CN0200001N9-02281-02501098091ADDAY111999GF106991021051004501071999KA1999N-02891MD1710171+9999MW1031
0057028640999991955011712004+65783+024583FM-12+001599999V0203601N00211220001CN0200001N9-02221-02391098141ADDAY111999GF105991001001999999071999MD1410001+9999MW1031
0070028640999991955011718004+65783+024583FM-12+001599999V0200201N00261004501CN0300001N9-01501-01611098121ADDAY111999GF108991081051004501999999KA1999M-01501MD1810011+9999MW1701
0057028640999991955011800004+65783+024583FM-12+001599999V0200201N00311002401CN0400001N9-00891-01001097981ADDAY121999GF108991081061002501999999MD1710161+9999MW1021
0081028640999991955011806004+65783+024583FM-12+001599999V0200201N00311004501CN0500001N9-00501-00501097681ADDAA199000691AY111999GF108991081051004501999999KA1999N-01501MD1710191+9999MW1031
0057028640999991955011812004+65783+024583FM-12+001599999V0203601N00571030001CN0200001N9-00501-00721097411ADDAY171999GF108991011071002501021999MD1710131+9999MW1701
0081028640999991955011818004+65783+024583FM-12+001599999V0200201N00461004501CN0200001N9-00501-00721097281ADDAA199000391AY171999GF108991051041004501021999KA1999M-00391MD1710031+9999MW1711
0076028640999991955011900004+65783+024583FM-12+001599999V0203601N00571004501CN0035001N9-00611-00721097321ADDAY171999GF108991999071004501021999MD1210051+9999MW1731EQDQ01+000082SCOTLC
0081028640999991955011906004+65783+024583FM-12+001599999V0203601N00461004501CN0040001N9-00501-00611097571ADDAA199001091AY171999GF108991061071004501021999KA1999N-00611MD1210111+9999MW1731
0057028640999991955011912004+65783+024583FM-12+001599999V0203601N00511030001CN0040001N9-00391-00501097971ADDAY171999GF108991041071004501021999MD1210181+9999MW1731
0081028640999991955011918004+65783+024583FM-12+001599999V0203601N00571004501CN0200001N9-00281-00611098281ADDAA199001091AY121999GF108991081071004501999999KA1999M-00281MD1210171+9999MW1021
0057028640999991955012000004+65783+024583FM-12+001599999V0203601N00511004501CN0400001N9-00391-00611098661ADDAY121999GF108991071051004501999999MD1210221+9999MW1011
0089028640999991955012006004+65783+024583FM-12+001599999V0203601N00311220001CN0400001N9-00281-00721099211ADDAY111999GF102991999001999999071001KA1999N-00281MD1210331+9999MW1011EQDQ01+000002SCOTLC
0057028640999991955012012004+65783+024583FM-12+001599999V0203601N00311030001CN0500001N9-00611-00781099881ADDAY121999GF107991021051004501071071MD1210271+9999MW1031
0070028640999991955012018004+65783+024583FM-12+001599999V0203601N00211220001CN0500001N9-01611-01721100661ADDAY101999GF100991001001999999001001KA1999M-00501MD1210351+9999MW1011
0089028640999991955012106004+65783+024583FM-12+001599999V0200201N00211220001CN0500001N9-02001-02281101781ADDAY101999GF102991999001999999041001KA1999N-02111MD1210181+9999MW1031EQDQ01+000002SCOTLC
0070028640999991955012118004+65783+024583FM-12+001599999V0209991C00001220001CN0100001N9-02501-02721102451ADDAY141999GF101991011061999999001001KA1999M-02001MD1210101+9999MW1011
0057028640999991955012200004+65783+024583FM-12+001599999V0209991C000019999999N0040001N9-02111-02281102601ADDAY111999GF108991041061999999071999MD1210061+9999MW1031
0070028640999991955012206004+65783+024583FM-12+001599999V0201801N00511002401CN0200001N9-00721-00781102591ADDAY121999GF108991081051002501999999KA1999N-02721MD1710031+9999MW1021
0057028640999991955012212004+65783+024583FM-12+001599999V0201601N00671002401CN0020001N9-01001-01111102511ADDAY171999GF108991061071002501021999MD1810101+9999MW1771
0057028640999991955012300004+65783+024583FM-12+001599999V0200201N01231002401CN0300001N9-00281-00391101511ADDAY121999GF108991081071002501999999MD1710331+9999MW1021
0067028640999991955012306004+65783+024583FM-12+001599999V0202301N01231030001CN0004001N9-00221-00221100881ADDAA199000691GF108991041071002501021999KA1999N-00891MD1710311+9999
0057028640999991955012312004+65783+024583FM-12+001599999V0202301N00821030001CN0400001N9-00111-00221100611ADDAY111999GF107991041071004501071999MD1710171+9999MW1361
0081028640999991955012318004+65783+024583FM-12+001599999V0202701N00511004501CN0200001N9-00281-00391100221ADDAA199002091AY171999GF105991051071004501999999KA1999M-00111MD1310031+9999MW1011
0057028640999991955012400004+65783+024583FM-12+001599999V0202301N00411220001CN0400001N9-00611-01001100421ADDAY101999GF100991001001999999001001MD1210081+9999MW1021
0081028640999991955012406004+65783+024583FM-12+001599999V0201801N00151220001CN0400001N9-00501-00611100221ADDAA199000691AY121999GF108991001001999999021999KA1999N-00721MD1710231+9999MW1021
0057028640999991955012412004+65783+024583FM-12+001599999V0201801N00821001501CN0050001N9-00111-00221099491ADDAY171999GF108991061071001501021999MD1710461+9999MW1711
0081028640999991955012418004+65783+024583FM-12+001599999V0202001N00981002401CN0080001N9-00111-00111098511ADDAA199000591AY171999GF108991061071002501021999KA1999M+00001MD1710421+9999MW1221
0057028640999991955012500004+65783+024583FM-12+001599999V0202501N00211002401CN0010001N9+00001+00001097911ADDAY171999GF108991071071002501021999MD1710281+9999MW1751
0081028640999991955012506004+65783+024583FM-12+001599999V0203601N00721002401CN0050001N9-00281-00281097991ADDAA199004091AY171999GF108991071071002501021999KA1999N-00391MD1310251+9999MW1731
0076028640999991955012512004+65783+024583FM-12+001599999V0203401N00151220001CN0500001N9-00721-00891099141ADDAY101999GF103991001001999999041091MD1210562+9999MW1031EQDQ01+000562APC3  
0070028640999991955012518004+65783+024583FM-12+001599999V0209991C00001220001CN0500001N9-01111-01221099881ADDAY101999GF100991001001999999001001KA1999M-00281MD1210391+9999MW1011
0057028640999991955012600004+65783+024583FM-12+001599999V0209991C00001220001CN0500001N9-01721-02001100221ADDAY101999GF100991001001999999001001MD1210181+9999MW1021
0100028640999991955012606004+65783+024583FM-12+001599999V0209991C00001220001CN0400001N9-01391-01501100351ADDAA199000391AY101999GF102991999001999999041001KA1999N-02001MD1110011+9999MW1031EQDQ01+000002SCOTLC
0057028640999991955012612004+65783+024583FM-12+001599999V0209991C00001004501CN0030001N9-00891-01001100281ADDAY121999GF108991071051004501021999MD1710051+9999MW1731
0081028640999991955012618004+65783+024583FM-12+001599999V0201101N00261030001CN0100001N9-00781-00891100111ADDAA199001091AY171999GF107991031071001501071999KA1999M-00721MD1810031+9999MW1711
0057028640999991955012700004+65783+024583FM-12+001599999V0201101N00311002401CN0200001N9-00501-00611099721ADDAY121999GF108991061071002501071999MD1710191+9999MW1701
0081028640999991955012706004+65783+024583FM-12+001599999V0200501N00261030001CN0030001N9-00611-00721098991ADDAA199000591AY171999GF108991041071004501021999KA1999N-00781MD1710341+9999MW1731
0057028640999991955012712004+65783+024583FM-12+001599999V0203601N00101220001CN0200001N9-00781-00891099041ADDAY171999GF107991001001999999071999MD1310071+9999MW1031
0081028640999991955012718004+65783+024583FM-12+001599999V0209991C00001030001CN0300001N9-00721-00721099081ADDAA199004091AY171999GF107991021071004501021999KA1999M-00611MD1610011+9999MW1221
0076028640999991955012800004+65783+024583FM-12+001599999V0203601N00361220001CN0500001N9-01111-01221099661ADDAY101999GF101991999001999999041001MD1210341+9999MW1011EQDQ01+000002SCOTLC
0100028640999991955012806004+65783+024583FM-12+001599999V0209991C00001220001CN0500001N9-01501-01611100201ADDAA199000691AY101999GF101991999001999999041001KA1999N-01501MD1210221+9999MW1021EQDQ01+000002SCOTLC
0076028640999991955012812004+65783+024583FM-12+001599999V0209991C00001220001CN0500001N9-01611-01721100511ADDAY101999GF101991999001999999041001MD1210141+9999MW1031EQDQ01+000002SCOTLC
0057028640999991955012818004+65783+024583FM-12+001599999V0209991C00001220001CN0200001N9-02391-02611100591ADDAY101999GF100991001001999999001001MD1210041+9999MW1021
0057028640999991955012900004+65783+024583FM-12+001599999V0209991C00001220001CN0200001N9-02891-03001100741ADDAY101999GF100991001001999999001001MD1210101+9999MW1021
0070028640999991955012906004+65783+024583FM-12+001599999V0209991C00001000151CN0050001N9-03001-03281100751ADDAY111999GF105991051061000251001001KA1999N-03111MD1010001+9999MW1011
0076028640999991955012912004+65783+024583FM-12+001599999V0209991C00001220001CN0070001N9-02781-02781100811ADDAY111999GF102991999001999999041001MD1210021+9999MW1041EQDQ01+000002SCOTLC
0070028640999991955012918004+65783+024583FM-12+001599999V0209991C00001220001CN0200001N9-03111-03111100861ADDAY101999GF100991001001999999001001KA1999M-02721MD1210071+9999MW1021
0057028640999991955013000004+65783+024583FM-12+001599999V0209991C00001220001CN0300001N9-03221-03281101241ADDAY101999GF100991001001999999001001MD1210151+9999MW1021
0070028640999991955013006004+65783+024583FM-12+001599999V0209991C00001001501CN0200001N9-03221-03501101121ADDAY101999GF105991051061001501001001KA1999N-03281MD1710011+9999MW1031
0057028640999991955013012004+65783+024583FM-12+001599999V0209991C000019999999N0040001N9-02781-03111101171ADDAY121999GF107991021061999999001071MD1410001+9999MW1011
0089028640999991955013018004+65783+024583FM-12+001599999V0209991C00001220001CN0005001N9-02501-02721101051ADDAY141999GF104991999001999999041001KA1999M-02501MD1710071+9999MW1481EQDQ01+000002SCOTLC
0057028640999991955013100004+65783+024583FM-12+001599999V0209991C00001220001CN0150001N9-02111-02281100841ADDAY101999GF100991001001999999001001MD1710151+9999MW1021
0070028640999991955013106004+65783+024583FM-12+001599999V0200201N00151004501CN0150001N9-02001-02221100551ADDAY121999GF108991081051004501999999KA1999N-02391MD1710141+9999MW1021
0057028640999991955013112004+65783+024583FM-12+001599999V0200201N00151004501CN0150001N9-01721-01781100521ADDAY121999GF107991051051004501021999MD1410001+9999MW1711
0081028640999991955013118004+65783+024583FM-12+001599999V0200401N00211220001CN0070001N9-01221-01281100461ADDAA199001091AY171999GF108991001001999999001021KA1999M-01221MD1710031+9999MW1711
0070028640999991955020118004+65783+024583FM-12+001599999V0203601N00151220001CN0400001N9-02281-02391101171ADDAY101999GF100991001001999999001001KA1999M-02001MD1210101+9999MW1021
0057028640999991955020200004+65783+024583FM-12+001599999V0200201N00101030001CN0500001N9-02001+99999101281ADDAY121999GF108991021051004501071999MD1210091+9999MW1021
0070028640999991955020206004+65783+024583FM-12+001599999V0200201N00211030001CN0500001N9-01611-01721101181ADDAY121999GF106991021051004501071999KA1999N-02501MD1710081+9999MW1031
0057028640999991955020212004+65783+024583FM-12+001599999V0200901N00311030001CN0030001N9-01221-01281101061ADDAY171999GF108991021071004501021999MD1710041+9999MW1731
0068028640999991955020218004+65783+024583FM-12+001599999V0200901N00211004501CN0150001N9-01111-01221100881ADDAA199001091AY171999GF108991051071004501021999MD1710061+9999MW1711
0057028640999991955020300004+65783+024583FM-12+001599999V0200901N00311030001CN0500001N9-01221-01281100841ADDAY121999GF107991031051004501071999MD1710011+9999MW1031
0081028640999991955020306004+65783+024583FM-12+001599999V0200901N00261220001CN0100001N9-01281-01391100791ADDAA199000391AY171999GF108991001001999999021999KA1999N-01281MD1710041+9999MW1711
0057028640999991955020312004+65783+024583FM-12+001599999V0200501N00211002401CN0050001N9-01221-01281100781ADDAY171999GF108991061051002501021999MD1010021+9999MW1711
0057028640999991955020400004+65783+024583FM-12+001599999V0200401N00151030001CN0150001N9-01111-01281100481ADDAY171999GF108991031071004501021999MD1710091+9999MW1711
0081028640999991955020406004+65783+024583FM-12+001599999V0200401N00311004501CN0150001N9-01001-01281100081ADDAA199004091AY171999GF108991061071004501021999KA1999N-01221MD1710241+9999MW1711
0081028640999991955020418004+65783+024583FM-12+001599999V0201401N00361000601CN0020001N9-00221-00221099511ADDAA199003091AY171999GF108991071071000751021999KA1999M-00221MD1710071+9999MW1711
0057028640999991955020500004+65783+024583FM-12+001599999V0202301N00261030001CN0100001N9-00611-00611099591ADDAY171999GF108991021071002501021999MD1210061+9999MW1221
0057028640999991955020512004+65783+024583FM-12+001599999V0201801N00461000151CN0010001N9-00111-00111099781ADDAY151999GF108991081061000251999999MD1210061+9999MW1561
0081028640999991955020518004+65783+024583FM-12+001599999V0201401N00261000601CN0038001N9+00001+00001099851ADDAA199000591AY151999GF108991081061000751999999KA1999M+00001MD1210031+9999MW1561
0057028640999991955020600004+65783+024583FM-12+001599999V0200901N00101001501CN0050001N9-00111-00111099911ADDAY121999GF108991081061001501999999MD1410001+9999MW1021
0081028640999991955020606004+65783+024583FM-12+001599999V0200501N00311004501CN0100001N9-00111-00111099801ADDAA199000391AY121999GF108991081071004501999999KA1999N-00111MD1010081+9999MW1701
0057028640999991955020612004+65783+024583FM-12+001599999V0200901N00311002401CN0300001N9+00111-00111099821ADDAY121999GF108991061071002501021999MD1310031+9999MW1021
0081028640999991955020618004+65783+024583FM-12+001599999V0201101N00361001501CN0050001N9+00111+00111099981ADDAA199001091AY171999GF108991071071001501021999KA1999M+00111MD1210081+9999MW1681
0057028640999991955020700004+65783+024583FM-12+001599999V0201401N00461000601CN0100001N9+00111+00111100181ADDAY121999GF108991081061000751999999MD1210071+9999MW1021
0081028640999991955020706004+65783+024583FM-12+001599999V0201101N00311001501CN0050001N9+00111+00111100091ADDAA199001091AY171999GF108991081071001501999999KA1999N+00001MD1710051+9999MW1681
0057028640999991955020712004+65783+024583FM-12+001599999V0201101N00311001501CN0040001N9+00111+00111100021ADDAY171999GF108991081071001501999999MD1710051+9999MW1681
0081028640999991955020718004+65783+024583FM-12+001599999V0201401N00511000601CN0030001N9+00111+00111099941ADDAA199003091AY171999GF108991081061000751999999KA1999M+00111MD1710021+9999MW1511
0081028640999991955020806004+65783+024583FM-12+001599999V0201401N00361004501CN0200001N9-00111-00221099951ADDAA199003091AY121999GF108991061051004501021999KA1999N-00221MD1710031+9999MW1701
0057028640999991955020812004+65783+024583FM-12+001599999V0201401N00411030001CN0200001N9-00111-00281099971ADDAY171999GF107991021051004501071999MD1410001+9999MW1221
0081028640999991955020818004+65783+024583FM-12+001599999V0201601N00261004501CN0200001N9-00281-00391099861ADDAA199000691AY121999GF105991051051004501999999KA1999M-00111MD1710041+9999MW1021
0057028640999991955020900004+65783+024583FM-12+001599999V0201101N00261004501CN0300001N9-00391-00611099811ADDAY121999GF107991071051004501999999MD1710011+9999MW1011
0070028640999991955020906004+65783+024583FM-12+001599999V0209991C00001004501CN0400001N9-00611-00721099721ADDAY121999GF199999061051004501071999KA1999N-00781MD1710031+9999MW1021
0057028640999991955020912004+65783+024583FM-12+001599999V0209991C00001220001CN0500001N9-00891-01001099691ADDAY121999GF104991011051008001071041MD1810021+9999MW1011
0089028640999991955020918004+65783+024583FM-12+001599999V0209991C00001220001CN0004001N9-01501-01611099641ADDAY141999GF102991999001999999071001KA1999M-00611MD1710041+9999MW1441EQDQ01+000002SCOTLC
0057028640999991955021000004+65783+024583FM-12+001599999V0209991C00001030001CN0050001N9-01781-01891099621ADDAY141999GF106991021051004501071999MD1710021+9999MW1281
0057028640999991955021012004+65783+024583FM-12+001599999V0209991C00001030001CN0045001N9-01221-01281099581ADDAY171999GF107991021051004501071999MD1410001+9999MW1711
0081028640999991955021018004+65783+024583FM-12+001599999V0201801N00101030001CN0080001N9-01501-01611099741ADDAA199001091AY171999GF108991021051004501071999KA1999M-01001MD1210121+9999MW1711
0076028640999991955021100004+65783+024583FM-12+001599999V0209991C00001220001CN0200001N9-01391-01501100061ADDAY101999GF103991999001999999071001MD1210161+9999MW1701EQDQ01+000002SCOTLC
0081028640999991955021106004+65783+024583FM-12+001599999V0209991C00001004501CN0100001N9-01001-01111100311ADDAA199001091AY171999GF108991071071004501021999KA1999N-01781MD1210141+9999MW1711
0057028640999991955021112004+65783+024583FM-12+001599999V0203601N00101004501CN0020001N9+99999+99999100681ADDAY121999GF108991071071004501021999MD1210141+9999MW1731
0100028640999991955021118004+65783+024583FM-12+001599999V0200201N00211220001CN0300001N9-01001-01111100961ADDAA199001091AY171999GF102991999001999999071001KA1999M-00611MD1210181+9999MW1011EQDQ01+000002SCOTLC
0076028640999991955021200004+65783+024583FM-12+001599999V0203601N00261220001CN0400001N9-01221-01281101241ADDAY101999GF102991999001999999071001MD1210121+9999MW1031EQDQ01+000002SCOTLC
0081028640999991955021206004+65783+024583FM-12+001599999V0200201N00211030001CN0300001N9-01111-01221101311ADDAA199000691AY121999GF107991021051004501071999KA1999N-01501MD1210031+9999MW1031
0057028640999991955021212004+65783+024583FM-12+001599999V0203201N00051004501CN0400001N9-01111-01221101241ADDAY111999GF106991061051004501999999MD1710071+9999MW1031
0070028640999991955021218004+65783+024583FM-12+001599999V0209991C00001220001CN0015001N9-02281-02391101001ADDAY141999GF100991001001999999001001KA1999M-01221MD1710151+9999MW1101
0057028640999991955021300004+65783+024583FM-12+001599999V0209991C00001000151CN0040001N9-02001-02221100851ADDAY141999GF106991061061000251999999MD1710081+9999MW1021
0070028640999991955021306004+65783+024583FM-12+001599999V0209991C00001030001CN0070001N9-02111-02281100771ADDAY141999GF106991041061001501041001KA1999N-02391MD1610031+9999MW1031
0057028640999991955021312004+65783+024583FM-12+001599999V0209991C00001030001CN0100001N9-01891-02001100811ADDAY121999GF107991011061001501071999MD1210021+9999MW1781
0081028640999991955021318004+65783+024583FM-12+001599999V0203601N00101004501CN0100001N9-01501-01611100921ADDAA199000691AY121999GF108991081051004501999999KA1999M-01501MD1210071+9999MW1781
0057028640999991955021400004+65783+024583FM-12+001599999V0203601N00211220001CN0400001N9-02001-02221101121ADDAY101999GF100991001001999999001001MD1210101+9999MW1021
0081028640999991955021406004+65783+024583FM-12+001599999V0200201N00311220001CN0050001N9-01281-01391101221ADDAA199000591AY171999GF106991001001999999071999KA1999N-02111MD1210081+9999MW1221
0057028640999991955021412004+65783+024583FM-12+001599999V0203601N00151030001CN0100001N9-01221-01281101421ADDAY171999GF107991021051008001011999MD1210041+9999MW1701
0081028640999991955021418004+65783+024583FM-12+001599999V0200201N00211004501CN0400001N9-01221-01281101401ADDAA199000691AY171999GF108991081051004501999999KA1999M-01111MD1710021+9999MW1711
0081028640999991955021506004+65783+024583FM-12+001599999V0200201N00151007801CN0200001N9-02221-02391100941ADDAA199000691AY121999GF107991071051008001999999KA1999N-02391MD1710131+9999MW1021
0057028640999991955021512004+65783+024583FM-12+001599999V0209991C00001220001CN0300001N9-01721-01781100551ADDAY111999GF102991021051008001001001MD1710231+9999MW1011
0070028640999991955021518004+65783+024583FM-12+001599999V0209991C00001220001CN0300001N9-02721-03001100141ADDAY101999GF100991001001999999001001KA1999M-01721MD1710201+9999MW1021
0057028640999991955021600004+65783+024583FM-12+001599999V0200501N00101001501CN0200001N9-02111-02281099951ADDAY121999GF107991071051001501999999MD1710051+9999MW1021
0081028640999991955021606004+65783+024583FM-12+001599999V0200201N00101004501CN0200001N9-02001-02221099851ADDAA199000691AY171999GF108991081051004501999999KA1999N-02781MD1410001+9999MW1021
0057028640999991955021612004+65783+024583FM-12+001599999V0203601N00101220001CN0300001N9-01781-01891099841ADDAY111999GF104991001001999999041051MD1410001+9999MW1011
0057028640999991955021700004+65783+024583FM-12+001599999V0203601N00261220001CN0500001N9-02611-02781100181ADDAY101999GF100991001001999999001001MD1210171+9999MW1021
0089028640999991955021706004+65783+024583FM-12+001599999V0203601N00211220001CN0300001N9-02781-03111100371ADDAY101999GF102991999001999999041001KA1999N-02891MD1210121+9999MW1031EQDQ01+000002SCOTLC
0057028640999991955021712004+65783+024583FM-12+001599999V0203601N00211220001CN0300001N9-02281-02391100651ADDAY101999GF102991001001999999001051MD1210101+9999MW1011
0070028640999991955021718004+65783+024583FM-12+001599999V0203601N00101220001CN0300001N9-02281-02501100821ADDAY111999GF104991041051004501001001KA1999M-02221MD1210071+9999MW1711
0076028640999991955021800004+65783+024583FM-12+001599999V0209991C00001220001CN0400001N9-02891-03221101021ADDAY101999GF102991999001999999041001MD1210061+9999MW1021EQDQ01+000002SCOTLC
0081028640999991955021806004+65783+024583FM-12+001599999V0209991C00001000151CN0003001N9-02221-02281101151ADDAA199000691AY121999GF109991091999000251999999KA1999N-03111MD1210081+9999MW1451
0070028640999991955021818004+65783+024583FM-12+001599999V0209991C00001000151CN0020001N9-02781-02891101291ADDAY101999GF108991081071000251001001KA1999M-00891MD1210031+9999MW1031
0057028640999991955021900004+65783+024583FM-12+001599999V0209991C00001220001CN0005001N9-03001-03281101291ADDAY101999GF100991001001999999001001MD1710021+9999MW1461
0070028640999991955021906004+65783+024583FM-12+001599999V0201601N00151000151CN0020001N9-02721-02781101111ADDAY141999GF108991081061000251999999KA1999N-03111MD1710121+9999MW1021
0057028640999991955021912004+65783+024583FM-12+001599999V0209991C00001030001CN0070001N9-01721-01781101021ADDAY121999GF107991041061001501041999MD1710041+9999MW1051
0081028640999991955021918004+65783+024583FM-12+001599999V0203601N00261220001CN0400001N9-02111-02281101051ADDAA199000591AY171999GF100991001001999999001001KA1999M-01611MD1310061+9999MW1021
0070028640999991955022006004+65783+024583FM-12+001599999V0203601N00101220001CN0300001N9-02391-02611100941ADDAY111999GF103991031051004501001001KA1999N-02391MD1710021+9999MW1011
0078028640999991955022012004+65783+024583FM-12+001599999V0203501N00311220001CN0037001N9-02001-02221100951ADDAY111999GF103991031061001501001001MW1011EQDQ01+000022APCTENQ02+000002APC3  
0070028640999991955022018004+65783+024583FM-12+001599999V0209991C00001220001CN0015001N9-02501-02721100961ADDAY121999GF102991021061000751001001KA1999M-01891MD1210111+9999MW1101
0057028640999991955022100004+65783+024583FM-12+001599999V0201101N00261220001CN0200001N9-02221-02391101011ADDAY101999GF102991021061002501001001MD1210011+9999MW1031
0089028640999991955022106004+65783+024583FM-12+001599999V0201101N00311220001CN0300001N9-01781-01891101011ADDAY121999GF108991999001999999071001KA1999N-02721MD1410001+9999MW1701EQDQ01+000002SCOTLC
0057028640999991955022112004+65783+024583FM-12+001599999V0201101N00511004501CN0200001N9-01391-01501101011ADDAY171999GF107991061051004501071999MD1710011+9999MW1711
0081028640999991955022118004+65783+024583FM-12+001599999V0209991C00001004501CN0150001N9-01611-01721101021ADDAA199001091AY171999GF108991061071004501021999KA1999M-01391MD1210011+9999MW1711
0057028640999991955022200004+65783+024583FM-12+001599999V0201101N00101030001CN9999999N9-01391-01501101041ADDAY171999GF108991021071004501021999MD1410001+9999MW1711
0081028640999991955022206004+65783+024583FM-12+001599999V0200201N00101030001CN0070001N9-01611-01721101151ADDAA199000591AY171999GF105991021051004501071999KA1999N-01721MD1210061+9999MW1711
0070028640999991955022218004+65783+024583FM-12+001599999V0209991C00001220001CN0150001N9-02111-02281101511ADDAY121999GF107991001001999999071999KA1999M-01281MD1210101+9999MW1021
0057028640999991955022300004+65783+024583FM-12+001599999V0200201N00101000151CN0030001N9-01891-02111101741ADDAY141999GF108991081061000251999999MD1210111+9999MW1021
0081028640999991955022306004+65783+024583FM-12+001599999V0203601N00151030001CN0150001N9-01781-01891101851ADDAA199000691AY171999GF106991041071001501071011KA1999N-02611MD1210071+9999MW1221
0057028640999991955022312004+65783+024583FM-12+001599999V0203601N00311030001CN0200001N9-01391-01501102041ADDAY171999GF105991031051008001071001MD1210071+9999MW1221
0081028640999991955022318004+65783+024583FM-12+001599999V0203601N00261220001CN0300001N9-02001-02221102151ADDAA199000691AY101999GF100991001001999999001001KA1999M-01391MD1210041+9999MW1011
0057028640999991955022400004+65783+024583FM-12+001599999V0203601N00101220001CN0200001N9-02001-02221102221ADDAY101999GF108991001001999999021999MD1210021+9999MW1701
0081028640999991955022406004+65783+024583FM-12+001599999V0203601N00211220001CN0200001N9-02721-02781102151ADDAA199000391AY101999GF100991001001999999001001KA1999N-02781MD1710071+9999MW1021
0076028640999991955022412004+65783+024583FM-12+001599999V0203601N00211220001CN0500001N9-01891-02111101911ADDAY101999GF101991999001999999041001MD1710181+9999MW1021EQDQ01+000002SCOTLC
0070028640999991955022418004+65783+024583FM-12+001599999V0203601N00311220001CN0500001N9-02221-02391101571ADDAY101999GF100991001001999999001001KA1999M-01721MD1710161+9999MW1011
0057028640999991955022500004+65783+024583FM-12+001599999V0203601N00211220001CN0500001N9-02611-02721101351ADDAY101999GF100991001001999999001001MD1710081+9999MW1021
0089028640999991955022506004+65783+024583FM-12+001599999V0203601N00311220001CN0200001N9-02891-02891101201ADDAY101999GF101991999001999999041001KA1999N-02891MD1710071+9999MW1021EQDQ01+000002SCOTLC
0057028640999991955022512004+65783+024583FM-12+001599999V0203601N00151220001CN0300001N9-01781-01891101171ADDAY101999GF104991001001999999071041MD1810071+9999MW1031
0091028640999991955022518004+65783+024583FM-12+001599999V0209991C00001030001CN0150001N9-01501-01781101091ADDAY121999GF107991021051004501071999KA1999M-01501MW1701EQDQ01+000032APCTENQ02+000002APC3  
0057028640999991955022600004+65783+024583FM-12+001599999V0209991C00001030001CN0500001N9-01501-01611101111ADDAY121999GF107991021051004501071999MD1410001+9999MW1021
0081028640999991955022606004+65783+024583FM-12+001599999V0200201N00101007801CN0300001N9-02001-02221101241ADDAA199000691AY171999GF107991071051008001999999KA1999N-02111MD1110051+9999MW1711
0057028640999991955022612004+65783+024583FM-12+001599999V0209991C00001007801CN0060001N9-01611-01781101401ADDAY171999GF107991061051008001071999MD1210061+9999MW1711
0081028640999991955022618004+65783+024583FM-12+001599999V0209991C00001030001CN0100001N9-01781-01891101511ADDAA199000591AY171999GF106991031051008001071001KA1999M-01501MD1210071+9999MW1711
0057028640999991955022700004+65783+024583FM-12+001599999V0209991C00001220001CN0400001N9-02391-02611101581ADDAY101999GF100991001001999999001001MD1210031+9999MW1021
0081028640999991955022706004+65783+024583FM-12+001599999V0201601N00101002401CN0050001N9-01891-02111101641ADDAA199000691AY171999GF108991081051002501999999KA1999N-02721MD1210041+9999MW1711
0057028640999991955022712004+65783+024583FM-12+001599999V0202001N00051220001CN0400001N9-01391-01611101801ADDAY101999GF103991011051004501041061MD1210081+9999MW1021
0089028640999991955022718004+65783+024583FM-12+001599999V0201601N00101220001CN0080001N9-02391-02501101971ADDAY101999GF101991999001999999041001KA1999M-01391MD1210071+9999MW1011EQDQ01+000002SCOTLC
0057028640999991955022800004+65783+024583FM-12+001599999V0201401N00101000601CN0050001N9-02281-02281102061ADDAY121999GF106991061061000751001001MD1210061+9999MW1021
0070028640999991955022806004+65783+024583FM-12+001599999V0201401N00151220001CN0300001N9-01891-02111101991ADDAY111999GF102991021061002501071001KA1999N-02501MD1710051+9999MW1021
0057028640999991955022812004+65783+024583FM-12+001599999V0209991C00001220001CN0048001N9-00891-01001102091ADDAY111999GF103991001001999999071051MD1210121+9999MW1011
0070028640999991955022818004+65783+024583FM-12+001599999V0203601N00151220001CN0100001N9-01501-01611102341ADDAY111999GF106991001001999999071999KA1999M-00891MD1210111+9999MW1031
0057028640999991955030100004+65783+024583FM-12+001599999V0203601N00261220001CN0200001N9-01891-02111102481ADDAY101999GF103991031061001501001001MD1210081+9999MW1031
0081028640999991955030106004+65783+024583FM-12+001599999V0209991C00001000151CN0040001N9-01391-01391102411ADDAA199000691AY171999GF108991081061000251999999KA1999N-02111MD1710011+9999MW1021
0057028640999991955030112004+65783+024583FM-12+001599999V0201101N00211001501CN0100001N9-00891-01001102591ADDAY171999GF108991081061001501999999MD1210021+9999MW1221
0081028640999991955030118004+65783+024583FM-12+001599999V0201101N00101004501CN0300001N9-00891-01001102561ADDAA199000391AY111999GF107991051051004501071999KA1999M-00781MD1210051+9999MW1011
0057028640999991955030200004+65783+024583FM-12+001599999V0201401N00511001501CN0100001N9-00781-00891102641ADDAY121999GF108991081061001501999999MD1210031+9999MW1021
0081028640999991955030206004+65783+024583FM-12+001599999V0201401N00571001501CN0070001N9-00781-00891102311ADDAA199000691AY171999GF108991081061001501999999KA1999N-01001MD1710221+9999MW1711
0057028640999991955030212004+65783+024583FM-12+001599999V0201401N00621002401CN0010001N9-00781-00891101811ADDAY171999GF108991061071002501021999MD1710331+9999MW1741
0057028640999991955030300004+65783+024583FM-12+001599999V0202001N00101220001CN0100001N9-01501-01611101511ADDAY101999GF102991021061000751001001MD1210041+9999MW1011
0057028640999991955030312004+65783+024583FM-12+001599999V0209991C00001030001CN0200001N9-00781-00781101791ADDAY121999GF107991031051008001071999MD1210081+9999MW1011
0070028640999991955030318004+65783+024583FM-12+001599999V0201101N00211007801CN0300001N9-00721-00781101721ADDAY111999GF107991061051008001071999KA1999M-00611MD1710051+9999MW1031
0057028640999991955030400004+65783+024583FM-12+001599999V0201101N00411002401CN0300001N9-00781-00781101641ADDAY121999GF108991061051002501021999MD1710011+9999MW1031
0070028640999991955030406004+65783+024583FM-12+001599999V0201101N00511001501CN0070001N9-00501-00501101441ADDAY121999GF108991081061001501999999KA1999N-00781MD1710071+9999MW1021
0057028640999991955030412004+65783+024583FM-12+001599999V0201101N00571002401CN0050001N9-00611-00721101441ADDAY171999GF108991081061002501999999MD1010001+9999MW1711
0081028640999991955030418004+65783+024583FM-12+001599999V0201101N00411004501CN0100001N9-00781-01001101601ADDAA199000391AY171999GF108991071071004501021999KA1999M-00501MD1210111+9999MW1711
0057028640999991955030500004+65783+024583FM-12+001599999V0201101N00361220001CN0400001N9-01111-01281101981ADDAY111999GF105991001001999999001091MD1210191+9999MW1021
0081028640999991955030506004+65783+024583FM-12+001599999V0201101N00261001501CN0100001N9-01281-01501102381ADDAA199000691AY111999GF108991071071001501021999KA1999N-01391MD1210201+9999MW1711
0057028640999991955030512004+65783+024583FM-12+001599999V0200901N00051220001CN0150001N9-01001-01221102691ADDAY171999GF107991001001999999071071MD1210121+9999MW1711
0081028640999991955030518004+65783+024583FM-12+001599999V0209991C00001220001CN0100001N9-01501-01611102851ADDAA199000391AY121999GF106991001001999999071999KA1999M-00611MD1210081+9999MW1011
0057028640999991955030600004+65783+024583FM-12+001599999V0201401N00101007801CN0300001N9-01501-01611102841ADDAY111999GF107991071051008001999999MD1710071+9999MW1031
0081028640999991955030606004+65783+024583FM-12+001599999V0201401N00361002401CN0050001N9-01391-01501102101ADDAA199000691AY171999GF107991071051002501999999KA1999N-01781MD1710101+9999MW1221
0057028640999991955030612004+65783+024583FM-12+001599999V0201801N00721004501CN0040001N9-01001-01111101661ADDAY121999GF108991071051004501021999MD1710481+9999MW1711
0100028640999991955030618004+65783+024583FM-12+001599999V0201801N00671002401CN0050001N9-00501-00501100641ADDAA199000691AY171999GF107991071051002501999999KA1999M-00501MD1710552+9999MW1711EQDQ01+000552APC3  
0057028640999991955030700004+65783+024583FM-12+001599999V0209991C00001220001CN0300001N9-01001-01281100151ADDAY101999GF102991001001999999041021MD1710131+9999MW1011
0081028640999991955030706004+65783+024583FM-12+001599999V0203601N00211075001CN0200001N9-00391-00391099881ADDAA199001091AY111999GF105991021051008001061011KA1999N-01281MD1710051+9999MW1011
0057028640999991955030712004+65783+024583FM-12+001599999V0200201N00411002401CN0010001N9-00501-00611100151ADDAY171999GF108991051071002501021999MD1210191+9999MW1741
0100028640999991955030718004+65783+024583FM-12+001599999V0200201N00411220001CN0300001N9-01001-01221100611ADDAA199001091AY171999GF104991999001999999071001KA1999M-00391MD1210231+9999MW1221EQDQ01+000002SCOTLC
0057028640999991955030800004+65783+024583FM-12+001599999V0200201N00511220001CN0500001N9-01501-01611101001ADDAY101999GF100991001001999999001001MD1210181+9999MW1021
0070028640999991955030806004+65783+024583FM-12+001599999V0203601N00311220001CN0500001N9-01721-01781101281ADDAY111999GF107991001001999999071999KA1999N-01721MD1210111+9999MW1031
0057028640999991955030812004+65783+024583FM-12+001599999V0200401N00721220001CN0400001N9-01111-01391101551ADDAY111999GF107991001001999999071071MD1210121+9999MW1021
0081028640999991955030818004+65783+024583FM-12+001599999V0200201N00411220001CN0150001N9-01281-01501101661ADDAA199000691AY121999GF108991001001999999021999KA1999M-01221MD1210081+9999MW1711
0081028640999991955030906004+65783+024583FM-12+001599999V0200201N00311220001CN0070001N9-01391-01501101621ADDAA199000391AY171999GF108991001001999999071999KA1999N-01501MD1710061+9999MW1711
0057028640999991955030912004+65783+024583FM-12+001599999V0200501N00261220001CN0150001N9-01111-01281101571ADDAY171999GF105991001001999999051071MD1710081+9999MW1221
0057028640999991955031000004+65783+024583FM-12+001599999V0200501N00101030001CN0050001N9-01501-01611101661ADDAY171999GF108991041051004501021999MD1210091+9999MW1711
0100028640999991955031006004+65783+024583FM-12+001599999V0209991C00001030001CN0060001N9-01611-01721101921ADDAA199001091AY171999GF107991021051004501071999KA1999N+99999MD1210131+9999MW1711EQDQ01 -01392ATMN  
0076028640999991955031012004+65783+024583FM-12+001599999V0203601N00311220001CN0100001N9-01281-01611102251ADDAY121999GF106991999001999999071001MD1210151+9999MW1051EQDQ01+000002SCOTLC
0057028640999991955031100004+65783+024583FM-12+001599999V0209991C00001220001CN0300001N9-02781-03111102861ADDAY101999GF100991001001999999001001MD1210111+9999MW1021
0068028640999991955031106004+65783+024583FM-12+001599999V0201401N00311001501CN0050001N9-02001-02111102621ADDAA199007091AY121999GF107991071061001501999999MD1810141+9999MW1011
0076028640999991955031112004+65783+024583FM-12+001599999V0201401N00871030001CN0010001N9-01001-01111101811ADDAY171999GF108991041051002501021999MD1710532+9999MW1731EQDQ01+000532APC3  
0100028640999991955031118004+65783+024583FM-12+001599999V0202001N00721001501CN0050001N9-00221-00221100922ADDAA199001091AY171999GF108991071071001501021999KA1999M-00221MD1710401+9999MW1221EQDQ01+100923APOSLP
0070028640999991955031206004+65783+024583FM-12+001599999V0202701N00411220001CN0400001N9-00221-00501101171ADDAY111999GF102991011051004501041001KA1999N-00221MD1210041+9999MW1031
0076028640999991955031212004+65783+024583FM-12+001599999V0202901N00361220001CN0500001N9+00281-00501101511ADDAY101999GF101991999001999999041001MD1210171+9999MW1021EQDQ01+000002SCOTLC
0089028640999991955031218004+65783+024583FM-12+001599999V0201801N00261220001CN0500001N9-00721-00781101491ADDAY101999GF101991999001999999071001KA1999M+00281MD1710081+9999MW1011EQDQ01+000002SCOTLC
0057028640999991955031300004+65783+024583FM-12+001599999V0201101N00311004501CN0500001N9-00721-00781101001ADDAY111999GF108991081051004501999999MD1710321+9999MW1031
0057028640999991955031312004+65783+024583FM-12+001599999V0202701N00411004501CN0400001N9+00391+00001099341ADDAY111999GF107991051051004501071999MD1710221+9999MW1031
0070028640999991955031318004+65783+024583FM-12+001599999V0202301N00311220001CN0500001N9-00111-00611099421ADDAY111999GF102991011051004501071001KA1999M+00391MD1210101+9999MW1011
0076028640999991955031400004+65783+024583FM-12+001599999V0202701N00211220001CN0500001N9-00611-00891099351ADDAY101999GF101991999001999999071001MD1710011+9999MW1021EQDQ01+000002SCOTLC
0089028640999991955031406004+65783+024583FM-12+001599999V0202901N00461220001CN0500001N9-00611-00891099281ADDAY101999GF101991999001999999041001KA1999N-00721MD1710031+9999MW1011EQDQ01+000002SCOTLC
0057028640999991955031412004+65783+024583FM-12+001599999V0203201N00771220001CN0500001N9-00111-00111099361ADDAY111999GF104991021011004501041011MD1210041+9999MW1031
0089028640999991955031418004+65783+024583FM-12+001599999V0202901N00621220001CN0300001N9-00391+99999099581ADDAY111999GF102991999001999999041001KA1999M-00111MD1210091+9999MW1011EQDQ01+000002SCOTLC
0070028640999991955031506004+65783+024583FM-12+001599999V0200901N00261030001CN0300001N9-00721-00781099291ADDAY111999GF107991021051004501071071KA1999N-01111MD1710151+9999MW1031
0057028640999991955031512004+65783+024583FM-12+001599999V0201101N00771030001CN0020001N9-00501-00721098371ADDAY171999GF108991011071017501021999MD1710441+9999MW1731
0081028640999991955031518004+65783+024583FM-12+001599999V0201101N00821030001CN0010001N9-00501-00611097811ADDAA199001091AY171999GF108991021071004501021999KA1999M-00501MD1710181+9999MW1711
0057028640999991955031600004+65783+024583FM-12+001599999V0200901N00721004501CN0300001N9-00501-00721097921ADDAY171999GF108991081051004501999999MD1310031+9999MW1361
0081028640999991955031606004+65783+024583FM-12+001599999V0200401N00571002401CN0020001N9-00891-01111098391ADDAA199001091AY171999GF108991071071002501021999KA1999N-01001MD1210261+9999MW1731
0057028640999991955031612004+65783+024583FM-12+001599999V0200201N00771004501CN0010001N9-00891-01111098861ADDAY171999GF108991071071004501021999MD1210251+9999MW1751
0081028640999991955031618004+65783+024583FM-12+001599999V0200201N00931030001CN0040001N9-00891-01111099201ADDAA199001091AY131999GF108991031071004501021999KA1999M-00891MD1210181+9999MW1391
0057028640999991955031700004+65783+024583FM-12+001599999V0203601N00721220001CN0060001N9-01001-01281099421ADDAY131999GF105991001001999999071999MD1210091+9999MW1361
0081028640999991955031706004+65783+024583FM-12+001599999V0203601N00821220001CN0200001N9-01221-01391099641ADDAA199000591AY131999GF106991001001999999071999KA1999N-01221MD1210101+9999MW1361
0057028640999991955031712004+65783+024583FM-12+001599999V0200201N00721220001CN0500001N9-00721-01111099811ADDAY111999GF107991001001999999041071MD1210071+9999MW1031
0070028640999991955031718004+65783+024583FM-12+001599999V0203601N00411220001CN0500001N9-00781-01221999999ADDAY121999GF107991001001999999071071KA1999M-00721MD1210081+9999MW1011
0057028640999991955031800004+65783+024583FM-12+001599999V0203601N00211220001CN0500001N9-01391-01611099981ADDAY101999GF100991001001999999001001MD1710041+9999MW1021
0070028640999991955031806004+65783+024583FM-12+001599999V0203601N00101220001CN0500001N9-01501-01611099911ADDAY121999GF107991001001999999041071KA1999N-01611MD1710031+9999MW1031
0043028640999991955031812004+65783+024583FM-12+001599999V0200201N00461030001CN0500001N9-00501-01001099891ADDAY111999GF107991031051008001071021MW1031
0081028640999991955031818004+65783+024583FM-12+001599999V0203601N00261220001CN0150001N9-00721-00891099991ADDAA199000691AY121999GF107991001001999999071071KA1999M-00501MD1210061+9999MW1711
0068028640999991955031906004+65783+024583FM-12+001599999V0203601N00211030001CN0040001N9-00781-00891100201ADDAA199005091AY171999GF108991031071004501021999MD1010041+9999MW1711
0057028640999991955031912004+65783+024583FM-12+001599999V0200201N00151030001CN0040001N9-00611-00781100381ADDAY171999GF108991021071004501021999MD1210091+9999MW1771
0081028640999991955031918004+65783+024583FM-12+001599999V0201801N00101004501CN0025001N9-00781-00891100581ADDAA199002091AY171999GF108991061071004501021999KA1999M-00611MD1210101+9999MW1731
0057028640999991955032000004+65783+024583FM-12+001599999V0201401N00101001501CN0080001N9-01111-01221100881ADDAY171999GF108991081061001501999999MD1210191+9999MW1711
0081028640999991955032006004+65783+024583FM-12+001599999V0201401N00101030001CN0050001N9-00781-00891101151ADDAA199001091AY171999GF107991021051004501071999KA1999N-01221MD1210151+9999MW1711
0057028640999991955032012004+65783+024583FM-12+001599999V0209991C00001004501CN0100001N9-00611-00781101311ADDAY171999GF105991051021004501001001MD1010031+9999MW1701
0081028640999991955032018004+65783+024583FM-12+001599999V0203601N00101220001CN0100001N9-01221-01221101121ADDAA199000691AY121999GF106991001001999999041999KA1999M-00501MD1710101+9999MW1031
0057028640999991955032100004+65783+024583FM-12+001599999V0203201N00361004501CN0300001N9-00891-01111100691ADDAY121999GF108991081051004501999999MD1710241+9999MW1031
0081028640999991955032106004+65783+024583FM-12+001599999V0202901N00361007801CN0150001N9-00781-01001100211ADDAA199000691AY121999GF108991061051008001011999KA1999N-01611MD1710231+9999MW1701
0057028640999991955032112004+65783+024583FM-12+001599999V0202901N00461030001CN0045001N9-00721-00891100161ADDAY171999GF108991021071004501021999MD1210031+9999MW1711
0081028640999991955032118004+65783+024583FM-12+001599999V0202301N00361030001CN0050001N9-00781-01001100251ADDAA199001091AY111999GF107991031051004501071999KA1999M-00721MD1210061+9999MW1701
0057028640999991955032200004+65783+024583FM-12+001599999V0202001N00411220001CN0300001N9-00781-00891100461ADDAY101999GF100991001001999999001001MD1210131+9999MW1021
0070028640999991955032206004+65783+024583FM-12+001599999V0201401N00411220001CN0009001N9-01391-01501100691ADDAY121999GF102991001001999999041051KA1999N-01391MD1210181+9999MW1461
0057028640999991955032212004+65783+024583FM-12+001599999V0201801N99999220001CN0500001N9-00781-01111100881ADDAY101999GF101991011011004501001001MD1210071+9999MW1011
0070028640999991955032218004+65783+024583FM-12+001599999V0201601N00621220001CN0500001N9-00891-01391100821ADDAY101999GF102991001001999999071051KA1999M-00611MD1410001+9999MW1031
0057028640999991955032300004+65783+024583FM-12+001599999V0201101N00511004501CN0500001N9-01001-01221100821ADDAY111999GF108991081051004501999999MD1710031+9999MW1031
0081028640999991955032306004+65783+024583FM-12+001599999V0201401N00411002401CN0050001N9-01001-01111101001ADDAA199000691AY171999GF107991051051002501071999KA1999N-01281MD1210071+9999MW1711
0057028640999991955032312004+65783+024583FM-12+001599999V0201801N00511220001CN0400001N9-00721-00781101151ADDAY111999GF102991001001999999071021MD1210031+9999MW1011
0081028640999991955032318004+65783+024583FM-12+001599999V0202001N00411030001CN0400001N9+99999+99999101051ADDAA199000691AY111999GF106991021051004501071051KA1999M-00281MD1610031+9999MW1031
0081028640999991955032406004+65783+024583FM-12+001599999V0202001N00411220001CN0500001N9-00721-00891101181ADDAA199000691AY101999GF102991001001999999041051KA1999N-00781MD1210061+9999MW1011
0057028640999991955032412004+65783+024583FM-12+001599999V0201801N00511220001CN0500001N9-00391-00611101311ADDAY101999GF102991001001999999041051MD1210131+9999MW1021
0070028640999991955032418004+65783+024583FM-12+001599999V0201801N00411220001CN0400001N9-00721-00781101191ADDAY111999GF106991001001999999041061KA1999M-00281MD1710071+9999MW1021
0076028640999991955032500004+65783+024583FM-12+001599999V0201101N00261220001CN0400001N9-01281-01391101141ADDAY101999GF101991999001999999041001MD1810061+9999MW1021EQDQ01+000002SCOTLC
0070028640999991955032506004+65783+024583FM-12+001599999V0201401N00361001501CN0100001N9-01111-01221101121ADDAY121999GF108991081061001501999999KA1999N-01281MD1310011+9999MW1021
0057028640999991955032512004+65783+024583FM-12+001599999V0201801N00361220001CN0500001N9-00501-00781101151ADDAY121999GF107991001001999999071071MD1410001+9999MW1031
0070028640999991955032518004+65783+024583FM-12+001599999V0201401N00101030001CN0400001N9-00721-00891101151ADDAY111999GF105991031051008001071001KA1999M-00391MD1410001+9999MW1011
0081028640999991955032606004+65783+024583FM-12+001599999V0209991C00001030001CN0300001N9-00891-00891101041ADDAA199000691AY121999GF106991021051008001071999KA1999N-01721MD1710031+9999MW1011
0057028640999991955032612004+65783+024583FM-12+001599999V0201801N00101030001CN0500001N9-00611-00891101001ADDAY111999GF106991011051008001051071MD1710021+9999MW1031
0070028640999991955032618004+65783+024583FM-12+001599999V0209991C00001030001CN0200001N9-01001-01111100881ADDAY111999GF107991031051004501071999KA1999M-00281MD1710021+9999MW1031
0076028640999991955032700004+65783+024583FM-12+001599999V0209991C00001220001CN0200001N9-01221-01281100781ADDAY121999GF102991999001999999071001MD1710071+9999MW1701EQDQ01+000002SCOTLC
0081028640999991955032706004+65783+024583FM-12+001599999V0203601N00151000601CN0100001N9-01111-01221100711ADDAA199000391AY121999GF108991051061000751021999KA1999N-01501MD1710011+9999MW1701
0057028640999991955032712004+65783+024583FM-12+001599999V0203601N00311220001CN0350001N9-00281-00721100631ADDAY121999GF103991011051004501001051MD1610051+9999MW1011
0089028640999991955032718004+65783+024583FM-12+001599999V0200201N00211220001CN0400001N9-00721-01001100711ADDAY101999GF102991999001999999041001KA1999M-00221MD1310071+9999MW1031EQDQ01+000002SCOTLC
0076028640999991955032800004+65783+024583FM-12+001599999V0203601N00211220001CN0500001N9-01281-01501100691ADDAY111999GF102991999001999999041001MD1210011+9999MW1011EQDQ01+000002SCOTLC
0100028640999991955032806004+65783+024583FM-12+001599999V0203601N00211220001CN0500001N9-01611-01721100751ADDAA199000691AY101999GF101991999001999999041001KA1999N-01721MD1310021+9999MW1021EQDQ01+000002SCOTLC
0057028640999991955032812004+65783+024583FM-12+001599999V0200201N00411220001CN0500001N9-00611-01221100851ADDAY111999GF105991001001999999071021MD1210051+9999MW1031
0089028640999991955032818004+65783+024583FM-12+001599999V0203601N00101220001CN0500001N9-01111-01391101081ADDAY101999GF101991999001999999041001KA1999M-00501MD1210131+9999MW1021EQDQ01+000002SCOTLC
0057028640999991955032900004+65783+024583FM-12+001599999V0203601N00101220001CN0500001N9-01781-01891101351ADDAY101999GF100991001001999999001001MD1210101+9999MW1021
0070028640999991955032906004+65783+024583FM-12+001599999V0203601N00101220001CN0400001N9-01611-01721101451ADDAY101999GF102991001001999999041041KA1999N-02501MD1110041+9999MW1031
0057028640999991955032912004+65783+024583FM-12+001599999V0202001N00311220001CN0500001N9-00781-01111101321ADDAY111999GF104991001001999999041051MD1710131+9999MW1031
0070028640999991955032918004+65783+024583FM-12+001599999V0201801N00261030001CN0200001N9-00781-01001100781ADDAY121999GF107991021051004501071999KA1999M-00721MD1710341+9999MW1031
0076028640999991955033000004+65783+024583FM-12+001599999V0202001N00411220001CN0400001N9-00501-00721099851ADDAY111999GF108991001001999999021999MD1710532+9999MW1031EQDQ01+000532APC3  
0100028640999991955033006004+65783+024583FM-12+001599999V0201801N00361001501CN0020001N9-00281-00281098921ADDAA199000591AY121999GF108991071071001501021999KA1999N-01001MD1710522+9999MW1731EQDQ01+000522APC3  
0057028640999991955033012004+65783+024583FM-12+001599999V0202901N00721030001CN0070001N9-00281-00611098581ADDAY171999GF108991041051004501021999MD1710021+9999MW1711
0081028640999991955033018004+65783+024583FM-12+001599999V0202701N00461220001CN0045001N9-00501-00611098401ADDAA199004091AY171999GF108991001001999999021999KA1999M-00221MD1710161+9999MW1711
0057028640999991955033100004+65783+024583FM-12+001599999V0203601N00311004501CN0080001N9-00611-00721098411ADDAY171999GF108991061051004501021999MD1310091+9999MW1731
0081028640999991955033106004+65783+024583FM-12+001599999V0203601N00671030001CN0200001N9-00501-00781098991ADDAA199002091AY171999GF107991021051004501071071KA1999N-00721MD1210301+9999MW1711
0057028640999991955033112004+65783+024583FM-12+001599999V0203601N00721220001CN0500001N9-00391-01111099621ADDAY131999GF102991011011012501041041MD1210311+9999MW1011
0070028640999991955033118004+65783+024583FM-12+001599999V0209991C00001220001CN0500001N9-01111-01281099881ADDAY101999GF102991011041008001041001KA1999M-00391MD1210141+9999MW1021
0057028640999991955040100004+65783+024583FM-12+001599999V0209991C00001220001CN0500001N9-02001-02221099581ADDAY101999GF102991001001999999001051MD1710021+9999MW1031
0070028640999991955040106004+65783+024583FM-12+001599999V0201401N00211030001CN0500001N9-01281-01501099651ADDAY121999GF105991011051004501071999KA1999N-02111MD1710121+9999MW1011
0057028640999991955040112004+65783+024583FM-12+001599999V0202301N00311220001CN0500001N9-00611-01221099691ADDAY111999GF103991021081004501071999MD1210081+9999MW1011
0070028640999991955040118004+65783+024583FM-12+001599999V0209991C00001220001CN0500001N9-00891-01391099941ADDAY121999GF106991001001999999041061KA1999M-00281MD1210091+9999MW1011
0057028640999991955040200004+65783+024583FM-12+001599999V0201401N00211220001CN0500001N9-01391-01611099761ADDAY121999GF107991001001999999071071MD1710131+9999MW1021
0070028640999991955040206004+65783+024583FM-12+001599999V0203601N00101220001CN0500001N9-01721-02001099751ADDAY101999GF102991011021008001041021KA1999N-02221MD1310041+9999MW1031
0057028640999991955040212004+65783+024583FM-12+001599999V0203401N00311220001CN0500001N9-00391-01391100091ADDAY101999GF100991001001999999001001MD1210181+9999MW1021
0070028640999991955040218004+65783+024583FM-12+001599999V0202301N00411220001CN0500001N9-00611-01111099991ADDAY111999GF102991021051004501041001KA1999M-00281MD1710131+9999MW1011
0076028640999991955040300004+65783+024583FM-12+001599999V0202901N00101220001CN0500001N9-00891-01281999999ADDAY111999GF101991999001999999041001MD1210111+9999MW1011EQDQ01+000002SCOTLC
0089028640999991955040306004+65783+024583FM-12+001599999V0202901N00211220001CN0500001N9-01001-01391100251ADDAY101999GF101991999001999999041001KA1999N-01281MD1210141+9999MW1011EQDQ01+000002SCOTLC
0057028640999991955040312004+65783+024583FM-12+001599999V0203201N00511220001CN0500001N9-00281-00611100401ADDAY101999GF102991021011008001001001MD1210071+9999MW1021
0089028640999991955040318004+65783+024583FM-12+001599999V0209991C00001220001CN0400001N9-00891-01111100661ADDAY101999GF101991999001999999041001KA1999M-00281MD1210151+9999MW1021EQDQ01+000002SCOTLC
0070028640999991955040406004+65783+024583FM-12+001599999V0209991C00001220001CN0400001N9-01781-02111101421ADDAY101999GF100991001001999999001001KA1999N-02391MD1210241+9999MW1021
0057028640999991955040412004+65783+024583FM-12+001599999V0202001N00101220001CN0500001N9-00721-01111101681ADDAY101999GF100991001001999999001001MD1210141+9999MW1021
0070028640999991955040418004+65783+024583FM-12+001599999V0209991C00001220001CN0500001N9-01001-01221101851ADDAY101999GF101991011041008001001001KA1999M-00391MD1210101+9999MW1021
0057028640999991955040500004+65783+024583FM-12+001599999V0209991C00001220001CN0500001N9-02221-02391102081ADDAY101999GF100991001001999999001001MD1210081+9999MW1021
0070028640999991955040506004+65783+024583FM-12+001599999V0209991C00001220001CN0030001N9-01781-01891102181ADDAY101999GF102991001001999999041011KA1999N-02501MD1210031+9999MW1041
0057028640999991955040512004+65783+024583FM-12+001599999V0202001N00211220001CN0150001N9-00721-01111102201ADDAY111999GF102991011011008001041011MD1810031+9999MW1031
0070028640999991955040518004+65783+024583FM-12+001599999V0201801N00101220001CN0400001N9-01111-01221102221ADDAY101999GF101991011051008001041001KA1999M-00611MD1310051+9999MW1021
0057028640999991955040600004+65783+024583FM-12+001599999V0209991C00001220001CN0300001N9-02111-02221102461ADDAY101999GF100991001001999999001001MD1210121+9999MW1011
0070028640999991955040606004+65783+024583FM-12+001599999V0209991C00001220001CN0500001N9-01721-02781102801ADDAY101999GF100991001001999999001001KA1999N-02391MD1210141+9999MW1021
0057028640999991955040612004+65783+024583FM-12+001599999V0200701N00411220001CN0500001N9-00221-00782102981ADDAY111999GF102991021011008001001001MD1210031+9999MW1031
0070028640999991955040618004+65783+024583FM-12+001599999V0200401N00211220001CN0500001N9-00501-01221103151ADDAY101999GF101991011041004501041001KA1999M+00001MD1210121+9999MW1021
0089028640999991955040706004+65783+024583FM-12+001599999V0200201N00101220001CN0500001N9-01221-01391103391ADDAY101999GF101991999001999999041001KA1999N-02001MD1210021+9999MW1021EQDQ01+000002SCOTLC
0057028640999991955040712004+65783+024583FM-12+001599999V0200901N00461007801CN0500001N9-00221-00611103311ADDAY111999GF106991051021008001041001MD1810101+9999MW1031
0070028640999991955040718004+65783+024583FM-12+001599999V0200901N00211220001CN0450001N9-00501-01111103181ADDAY101999GF101991011041008001001001KA1999M-00111MD1510011+9999MW1021
0057028640999991955040800004+65783+024583FM-12+001599999V0200901N00411220001CN0500001N9-01111-01611103251ADDAY101999GF100991001001999999001001MD1210081+9999MW1021
0070028640999991955040806004+65783+024583FM-12+001599999V0200201N00101220001CN0500001N9-01391-01891103341ADDAY101999GF100991001001999999001001KA1999N-01781MD1310011+9999MW1021
0057028640999991955040812004+65783+024583FM-12+001599999V0200901N00311220001CN0500001N9-00721-00891103181ADDAY101999GF100991001001999999001001MD1710131+9999MW1021
0070028640999991955040818004+65783+024583FM-12+001599999V0200401N00211220001CN0400001N9-00781-01611103021ADDAY101999GF100991001001999999001001KA1999M-00391MD1710061+9999MW1021
0070028640999991955040906004+65783+024583FM-12+001599999V0200901N00261220001CN0500001N9-01391-01891103201ADDAY101999GF100991001001999999001001KA1999N-02281MD1010011+9999MW1021
0057028640999991955040912004+65783+024583FM-12+001599999V0200901N00211220001CN0500001N9-00501-01281103061ADDAY101999GF100991001001999999001001MD1710101+9999MW1021
0070028640999991955040918004+65783+024583FM-12+001599999V0209991C00001220001CN0500001N9-00611-01501102881ADDAY101999GF100991001001999999001001KA1999M-00281MD1710091+9999MW1021
0057028640999991955041000004+65783+024583FM-12+001599999V0200901N00411220001CN0400001N9-01611-01721102851ADDAY101999GF100991001001999999001001MD1710021+9999MW1021
0070028640999991955041006004+65783+024583FM-12+001599999V0200401N00211220001CN0500001N9-01111-01611102741ADDAY101999GF100991001001999999001001KA1999N-01611MD1710041+9999MW1021
0057028640999991955041012004+65783+024583FM-12+001599999V0209991C00001220001CN0500001N9-00111-00891102461ADDAY101999GF100991001001999999001001MD1710171+9999MW1011
0089028640999991955041018004+65783+024583FM-12+001599999V0200201N00101220001CN0500001N9-00281-01281102151ADDAY101999GF101991999001999999041001KA1999M+00001MD1710081+9999MW1021EQDQ01+000002SCOTLC
0057028640999991955041100004+65783+024583FM-12+001599999V0200901N00311004501CN0200001N9-00501-00721101951ADDAY121999GF108991081051004501999999MD1710101+9999MW1031
0057028640999991955041112004+65783+024583FM-12+001599999V0201801N00511007801CN0400001N9-00111-00721102001ADDAY121999GF107991061051008001071999MD1310071+9999MW1011
0070028640999991955041118004+65783+024583FM-12+001599999V0201101N00311004501CN0300001N9-00221-00721102051ADDAY121999GF107991061051004501071999KA1999M+00001MD1210061+9999MW1031
0057028640999991955041200004+65783+024583FM-12+001599999V0200901N00211220001CN0500001N9-00781-00891101991ADDAY101999GF101991011051004501001001MD1710041+9999MW1031
0070028640999991955041206004+65783+024583FM-12+001599999V0209991C00001220001CN0300001N9-01001-01221101881ADDAY111999GF107991001001999999071999KA1999N-01501MD1610031+9999MW1031
0057028640999991955041212004+65783+024583FM-12+001599999V0201401N00411001501CN0040001N9-00501-00501101761ADDAY171999GF108991081061001501999999MD1710071+9999MW1771
0081028640999991955041218004+65783+024583FM-12+001599999V0201401N00571030001CN0020001N9-00281-00281101321ADDAA199000591AY171999GF108991031071002501021999KA1999M-00281MD1710231+9999MW1731
0057028640999991955041300004+65783+024583FM-12+001599999V0201401N01031001501CN0200001N9-00281-00281100861ADDAY171999GF108991081071001501999999MD1710211+9999MW1221
0081028640999991955041306004+65783+024583FM-12+001599999V0201401N00771030001CN0040001N9-00281-00281100661ADDAA199002091AY171999GF108991041071001501021999KA1999N-00281MD1710131+9999MW1711
0057028640999991955041312004+65783+024583FM-12+001599999V0201401N00571030001CN0050001N9-00111-00221100561ADDAY121999GF108991041071001501021999MD1210031+9999MW1021
0081028640999991955041318004+65783+024583FM-12+001599999V0201401N00511002401CN0060001N9+00001-00111100641ADDAA199001091AY171999GF108991051071002501021999KA1999M+00001MD1210071+9999MW1681
0057028640999991955041400004+65783+024583FM-12+001599999V0201601N00211002401CN0300001N9+00001+00001100811ADDAY121999GF108991081071002501999999MD1210121+9999MW1021
0081028640999991955041406004+65783+024583FM-12+001599999V0209991C00001000601CN0030001N9+00001+00001101041ADDAA199000691AY171999GF108991081061000751999999KA1999N-00111MD1210131+9999MW1711
0057028640999991955041412004+65783+024583FM-12+001599999V0202501N00211004501CN0300001N9+00221+00001101551ADDAY121999GF107991071051004501999999MD1210261+9999MW1021
0070028640999991955041418004+65783+024583FM-12+001599999V0202301N00101220001CN0400001N9+00001-00111102021ADDAY111999GF101991011041004501001001KA1999M+00281MD1210281+9999MW1011
0057028640999991955041500004+65783+024583FM-12+001599999V0200201N00101220001CN0400001N9-00781-00891102491ADDAY101999GF100991001001999999001001MD1210221+9999MW1021
0070028640999991955041506004+65783+024583FM-12+001599999V0200201N00151220001CN0400001N9-00501-00611102641ADDAY101999GF100991001001999999001001KA1999N-01281MD1210051+9999MW1021
0057028640999991955041512004+65783+024583FM-12+001599999V0202001N00211220001CN0500001N9+00281-00281102601ADDAY101999GF101991001001999999001041MD1710101+9999MW1021
0070028640999991955041518004+65783+024583FM-12+001599999V0201801N00211220001CN0500001N9-00111-00391102251ADDAY111999GF105991001001999999041051KA1999M+00501MD1710221+9999MW1031
0076028640999991955041600004+65783+024583FM-12+001599999V0201801N00511220001CN0500001N9-00111-00221101791ADDAY111999GF103991999001999999041001MD1710281+9999MW1031EQDQ01+000002SCOTLC
0057028640999991955041612004+65783+024583FM-12+001599999V0203601N00411004501CN0500001N9+00281-00611101971ADDAY121999GF107991071081004501999999MD1210141+9999MW1141
0076028640999991955041700004+65783+024583FM-12+001599999V0203201N00411220001CN0500001N9-00391-00781102461ADDAY101999GF101991999001999999071001MD1210131+9999MW1021EQDQ01+000002SCOTLC
0070028640999991955041706004+65783+024583FM-12+001599999V0203601N00571220001CN0500001N9-00281-00781102811ADDAY101999GF103991001001999999001051KA1999N-00611MD1210191+9999MW1031
0057028640999991955041712004+65783+024583FM-12+001599999V0203601N00721030001CN0500001N9+00001-00781103121ADDAY111999GF105991041011008001041001MD1210141+9999MW1021
0070028640999991955041718004+65783+024583FM-12+001599999V0203601N00311220001CN0500001N9-00221-00891103381ADDAY111999GF101991011041008001041001KA1999M+00001MD1210131+9999MW1011
0076028640999991955041800004+65783+024583FM-12+001599999V0200201N00151220001CN0500001N9-01281-01391103541ADDAY101999GF101991999001999999041001MD1210031+9999MW1031EQDQ01+000002SCOTLC
0070028640999991955041806004+65783+024583FM-12+001599999V0209991C00001220001CN0500001N9-00781-01221103401ADDAY101999GF103991001001999999041041KA1999N-01611MD1710081+9999MW1031
0057028640999991955041812004+65783+024583FM-12+001599999V0202001N00511220001CN0500001N9-00221-00611103081ADDAY111999GF106991001001999999071091MD1710191+9999MW1031
0070028640999991955041818004+65783+024583FM-12+001599999V0201801N00261220001CN0400001N9-00391-00611102601ADDAY121999GF107991001001999999071999KA1999M-00221MD1710221+9999MW1021
0076028640999991955041900004+65783+024583FM-12+001599999V0201401N00311220001CN0500001N9-00721-00891102251ADDAY101999GF102991999001999999041001MD1710121+9999MW1021EQDQ01+000002SCOTLC
0070028640999991955041906004+65783+024583FM-12+001599999V0201801N00261220001CN0500001N9-00391-00611101941ADDAY121999GF107991001001999999071071KA1999N-00781MD1710201+9999MW1021
0057028640999991955041912004+65783+024583FM-12+001599999V0201801N00411030001CN0500001N9+00111-00221101571ADDAY121999GF107991011011004501071071MD1710171+9999MW1021
0070028640999991955041918004+65783+024583FM-12+001599999V0202001N00211220001CN0500001N9+00111+00001101061ADDAY121999GF106991001001999999071091KA1999M+00221MD1710241+9999MW1021
0057028640999991955042000004+65783+024583FM-12+001599999V0202001N00411220001CN0500001N9-00111-00221100311ADDAY101999GF100991001001999999001001MD1710251+9999MW1011
0089028640999991955042006004+65783+024583FM-12+001599999V0202301N00361220001CN0400001N9+00111-00111100091ADDAY121999GF106991999001999999071001KA1999N-00501MD1710181+9999MW1011EQDQ01+000002SCOTLC
0057028640999991955042012004+65783+024583FM-12+001599999V0202301N00461220001CN0500001N9+00391-00221100011ADDAY101999GF102991011011008001041051MD1210011+9999MW1021
0070028640999991955042018004+65783+024583FM-12+001599999V0209991C00001220001CN0500001N9+00001-00221100041ADDAY101999GF102991011081008001041001KA1999M+00501MD1310051+9999MW1021
0057028640999991955042100004+65783+024583FM-12+001599999V0200501N00151220001CN0500001N9-00611-00721100011ADDAY101999GF102991011081004501041001MD1710061+9999MW1011
0070028640999991955042106004+65783+024583FM-12+001599999V0203601N00261030001CN0500001N9-00281-00391099861ADDAY121999GF106991021081004501041051KA1999N-00781MD1710051+9999MW1021
0057028640999991955042112004+65783+024583FM-12+001599999V0203601N00621007801CN0500001N9+00221-00281099821ADDAY181999GF107991061081008001051071MD1310051+9999MW1031
0081028640999991955042118004+65783+024583FM-12+001599999V0203601N00571030001CN0500001N9+00001-00391100041ADDAA199000691AY121999GF107991011041008001041071KA1999M+00281MD1210131+9999MW1011
0057028640999991955042200004+65783+024583FM-12+001599999V0203201N00511030001CN0500001N9-00501-00891100341ADDAY111999GF105991011051008001071001MD1210141+9999MW1031
0070028640999991955042206004+65783+024583FM-12+001599999V0203601N00311220001CN0500001N9-00501-01001100541ADDAY101999GF102991001001999999041021KA1999N-00891MD1210141+9999MW1031
0057028640999991955042212004+65783+024583FM-12+001599999V0203601N00621075001CN0500001N9+00221-00611100621ADDAY111999GF106991011011008001041061MD1210011+9999MW1021
0070028640999991955042218004+65783+024583FM-12+001599999V0203601N00411220001CN0500001N9+00111-00501100661ADDAY121999GF107991001001999999071071KA1999M+00281MD1210031+9999MW1021
0057028640999991955042300004+65783+024583FM-12+001599999V0203601N00511220001CN0400001N9-00111-00391100551ADDAY121999GF108991001001999999071999MD1710081+9999MW1021
0081028640999991955042306004+65783+024583FM-12+001599999V0203601N00361001501CN0120001N9-00111-00111100401ADDAA199000591AY171999GF108991071061001501021999KA1999N-00281MD1710031+9999MW1711
0057028640999991955042312004+65783+024583FM-12+001599999V0203601N00461001501CN0070001N9+00281+00111100201ADDAY121999GF108991061071001501021999MD1710121+9999MW1601
0081028640999991955042318004+65783+024583FM-12+001599999V0203201N00361002401CN0030001N9+00111+00111099981ADDAA199001091AY171999GF108991071071002501021999KA1999M+00281MD1710161+9999MW1691
0057028640999991955042400004+65783+024583FM-12+001599999V0203201N00311002401CN0150001N9-00111-00221099451ADDAY171999GF108991071071002501021999MD1710251+9999MW1701
0081028640999991955042406004+65783+024583FM-12+001599999V0203201N00311001501CN0050001N9+00001-00111099061ADDAA199002091AY171999GF108991071071001501021999KA1999N-00111MD1710151+9999MW1701
0057028640999991955042412004+65783+024583FM-12+001599999V0202001N00311002401CN0150001N9+00111+00001098981ADDAY161999GF108991071071002501021999MD1410001+9999MW1701
0081028640999991955042418004+65783+024583FM-12+001599999V0202001N00311001501CN0020001N9+00001+00001099111ADDAA199001091AY171999GF108991071071001501021999KA1999M+00221MD1310071+9999MW1711
0081028640999991955042506004+65783+024583FM-12+001599999V0202501N00151007801CN0300001N9+00001-00111100141ADDAA199003091AY121999GF108991061051008001021999KA1999N-00111MD1210481+9999MW1021
0057028640999991955042512004+65783+024583FM-12+001599999V0202001N00311030001CN0500001N9+00501-00391100721ADDAY121999GF107991041081008001071999MD1210321+9999MW1011
0081028640999991955042518004+65783+024583FM-12+001599999V0201801N00211030001CN0500001N9+00001-00221101201ADDAA199000691AY121999GF107991011051008001071071KA1999M+00501MD1210271+9999MW1021
0057028640999991955042600004+65783+024583FM-12+001599999V0201401N00101030001CN0200001N9-00281-00391101521ADDAY121999GF106991041051004501071999MD1210111+9999MW1031
0089028640999991955042606004+65783+024583FM-12+001599999V0201401N00261220001CN0500001N9+00111-00221101651ADDAY101999GF101991999001999999041001KA1999N-00391MD1210071+9999MW1021EQDQ01+000002SCOTLC
0057028640999991955042612004+65783+024583FM-12+001599999V0200501N00411030001CN0500001N9+00611+00281101591ADDAY121999GF108991041081008001011999MD1610071+9999MW1031
0081028640999991955042618004+65783+024583FM-12+001599999V0200201N00261030001CN0400001N9+00281+00111101411ADDAA199000391AY121999GF108991041071004501021999KA1999M+00611MD1710121+9999MW1601
0057028640999991955042700004+65783+024583FM-12+001599999V0200901N00411002401CN0100001N9+00281+00281101261ADDAY161999GF108991071071002501021999MD1710051+9999MW1611
0081028640999991955042706004+65783+024583FM-12+001599999V0200501N00361220001CN0300001N9+00501+00281100951ADDAA199002091AY121999GF106991001001999999071999KA1999N+00221MD1710181+9999MW1011
0057028640999991955042712004+65783+024583FM-12+001599999V0200401N00671007801CN0500001N9+00891-00281100561ADDAY121999GF108991051081008001071999MD1710121+9999MW1031
0081028640999991955042718004+65783+024583FM-12+001599999V0201401N00261030001CN0400001N9+00111+00001100911ADDAA199000691AY121999GF106991021081004501041051KA1999M+00891MD1210171+9999MW1011
0057028640999991955042800004+65783+024583FM-12+001599999V0201101N00101030001CN0200001N9+00111+00111101001ADDAY171999GF108991041051004501021999MD1210041+9999MW1701
0094028640999991955042806004+65783+024583FM-12+001599999V0201401N00151002401CN0250001N9+00111+00001101021ADDAA199000691AY121999GF108991071071002501021999KA1999N+00001MD1210071+9999EQDQ01+000762PRSWM1
0057028640999991955042812004+65783+024583FM-12+001599999V0201801N00361220001CN0500001N9+00221-00391101121ADDAY111999GF103991021021004501061001MD1210031+9999MW1011
0081028640999991955042818004+65783+024583FM-12+001599999V0201601N00311004501CN0040001N9+00001+00001100951ADDAA199001091AY181999GF108991061081004501021999KA1999M+00281MD1710081+9999MW1851
0081028640999991955042906004+65783+024583FM-12+001599999V0203601N00311030001CN0025001N9+00001+00001100311ADDAA199002091AY171999GF108991041071002501021999KA1999N-00111MD1710191+9999MW1731
0057028640999991955042912004+65783+024583FM-12+001599999V0202701N00461007801CN0500001N9+00391-00281100321ADDAY111999GF105991051081008001001001MD1310051+9999MW1031
0070028640999991955042918004+65783+024583FM-12+001599999V0202301N00211004501CN0300001N9+00221-00221100541ADDAY111999GF106991051051004501041999KA1999M+00611MD1210081+9999MW1021
0057028640999991955043000004+65783+024583FM-12+001599999V0202901N00211004501CN0400001N9+00001-00111100561ADDAY121999GF107991051051004501071999MD1810031+9999MW1021
0070028640999991955043006004+65783+024583FM-12+001599999V0202901N00411220001CN0500001N9+00111-00221100691ADDAY111999GF107991001001999999071071KA1999N-00221MD1210071+9999MW1031
0057028640999991955043012004+65783+024583FM-12+001599999V0202901N00621012301CN0500001N9+00611-00281100811ADDAY121999GF106991061081012501001001MD1110071+9999MW1021
0070028640999991955043018004+65783+024583FM-12+001599999V0203201N00671220001CN0500001N9+00501-00221100951ADDAY111999GF102991021081008001001001KA1999M+00611MD1210071+9999MW1031
0057028640999991955050100004+65783+024583FM-12+001599999V0202901N00211004501CN0300001N9+00111-00281101121ADDAY111999GF106991061051004501999999MD1210051+9999MW1031
0070028640999991955050106004+65783+024583FM-12+001599999V0202901N00311220001CN0500001N9+00221-00281101221ADDAY111999GF103991011011008001071001KA1999N+00001MD1210041+9999MW1031
0057028640999991955050112004+65783+024583FM-12+001599999V0203601N00411030001CN0500001N9+00391-00281101251ADDAY111999GF106991031081008001061001MD1710021+9999MW1141
0070028640999991955050118004+65783+024583FM-12+001599999V0203601N00311007801CN0500001N9+00221-00501101261ADDAY121999GF107991051041008001061999KA1999M+00501MD1710011+9999MW1021
0057028640999991955050200004+65783+024583FM-12+001599999V0203201N00311007801CN0500001N9-00111-00391101281ADDAY111999GF105991051051008001001001MD1210031+9999MW1031
0089028640999991955050206004+65783+024583FM-12+001599999V0203601N00311220001CN0500001N9+00111-00221101321ADDAY111999GF101991999001999999071001KA1999N-00281MD1110011+9999MW1011EQDQ01+000002SCOTLC
0057028640999991955050212004+65783+024583FM-12+001599999V0203601N00361007801CN0500001N9+00391-00391101321ADDAY121999GF107991071081008001999999MD1810021+9999MW1021
0057028640999991955050218004+65783+024583FM-12+001599999V0203201N00261220001CN0500001N9+00281-00281101171ADDAY111999GF103991031041008001001001MD1710091+9999MW1011
0057028640999991955050300004+65783+024583FM-12+001599999V0209991C00001220001CN0500001N9-00391-00611101091ADDAY101999GF102991001001999999041041MD1710061+9999MW1011
0070028640999991955050306004+65783+024583FM-12+001599999V0200201N00361220001CN0500001N9+00111-00221100961ADDAY101999GF105991001001999999041061KA1999N-00721MD1710121+9999MW1031
0057028640999991955050312004+65783+024583FM-12+001599999V0200501N00411007801CN0500001N9+00391-00221100751ADDAY111999GF107991071081008001999999MD1710111+9999MW1031
0070028640999991955050318004+65783+024583FM-12+001599999V0200401N00361030001CN0400001N9+00391-00111100351ADDAY121999GF108991041051008001071999KA1999M+00391MD1710181+9999MW1031
0057028640999991955050400004+65783+024583FM-12+001599999V0200401N00311004501CN0060001N9+00001+00001999999ADDAY171999GF108991051071004501021999MD1710151+9999MW1681
0081028640999991955050406004+65783+024583FM-12+001599999V0200501N00311001501CN0040001N9+00001-00111099691ADDAA199002091AY171999GF108991051071001501021999KA1999N-00111MD1710091+9999MW1701
0057028640999991955050412004+65783+024583FM-12+001599999V0200501N00411004501CN0300001N9+00221-00111099681ADDAY121999GF107991071071004501999999MD1410001+9999MW1011
0081028640999991955050418004+65783+024583FM-12+001599999V0200201N00101220001CN0400001N9+00221-00221099821ADDAA199001091AY171999GF103991031051004501001001KA1999M+00391MD1210071+9999MW1011
0057028640999991955050500004+65783+024583FM-12+001599999V0209991C00001220001CN0300001N9-00391-00501099991ADDAY111999GF102991021051004501001001MD1210041+9999MW1011
0070028640999991955050506004+65783+024583FM-12+001599999V0209991C00001030001CN0400001N9+00111-00221099981ADDAY121999GF107991021051008001071999KA1999N-00611MD1410001+9999MW1021
0057028640999991955050512004+65783+024583FM-12+001599999V0200901N00411075001CN0500001N9+00391-00391099941ADDAY121999GF106991031081008001001091MD1710061+9999MW1011
0070028640999991955050518004+65783+024583FM-12+001599999V0200501N00211030001CN0500001N9+00391-00281099811ADDAY121999GF107991011011008001041071KA1999M+00501MD1610041+9999MW1021
0057028640999991955050612004+65783+024583FM-12+001599999V0203601N00261007801CN0500001N9+00391+00001100051ADDAY121999GF108991051051008001021999MD1210101+9999MW1031
0070028640999991955050618004+65783+024583FM-12+001599999V0203601N00101030001CN0500001N9+00281+00001100201ADDAY121999GF107991031041008001071999KA1999M+00391MD1210081+9999MW1011
0057028640999991955050700004+65783+024583FM-12+001599999V0203601N00101030001CN0500001N9+00111+00001100341ADDAY121999GF107991031051004501071999MD1210051+9999MW1021
0094028640999991955050706004+65783+024583FM-12+001599999V0203401N00211004501CN0500001N9+00111-00221100511ADDAA199000691AY171999GF105991051081004501001001KA1999N+00001MD1210121+9999EQDQ01+000782PRSWM1
0057028640999991955050712004+65783+024583FM-12+001599999V0200201N00311007801CN0500001N9+00391-00281100791ADDAY121999GF107991071081008001999999MD1210091+9999MW1021
0070028640999991955050718004+65783+024583FM-12+001599999V0203601N00151030001CN0500001N9+00281-00281101021ADDAY121999GF106991021081008001061001KA1999M+00501MD1210111+9999MW1011
0076028640999991955050800004+65783+024583FM-12+001599999V0209991C00001220001CN0500001N9-00281-00281101211ADDAY101999GF101991999001999999041001MD1210071+9999MW1021EQDQ01+000002SCOTLC
0070028640999991955050806004+65783+024583FM-12+001599999V0203601N00101220001CN0500001N9+00221-00281101351ADDAY101999GF100991001001999999001001KA1999N-00501MD1210041+9999MW1021
0057028640999991955050812004+65783+024583FM-12+001599999V0202301N00461220001CN0500001N9+00501-00281101321ADDAY101999GF102991021011008001001051MD1710011+9999MW1031
0070028640999991955050818004+65783+024583FM-12+001599999V0202301N00311220001CN0500001N9+00221-00281101211ADDAY111999GF102991011041008001041001KA1999M+00611MD1710071+9999MW1011
0076028640999991955050900004+65783+024583FM-12+001599999V0201101N00211220001CN0500001N9-00281-00501100981ADDAY111999GF102991999001999999071001MD1710161+9999MW1021EQDQ01+000002SCOTLC
0081028640999991955050906004+65783+024583FM-12+001599999V0201401N00311004501CN0500001N9+00001+00001100791ADDAA199000691AY121999GF108991061071004501021999KA1999N-00281MD1710091+9999MW1701
0057028640999991955050912004+65783+024583FM-12+001599999V0201801N00261007801CN0500001N9+00391-00111100541ADDAY111999GF107991061081008001071999MD1710081+9999MW1031
0070028640999991955050918004+65783+024583FM-12+001599999V0201401N00261004501CN0400001N9+00281+00001100251ADDAY121999GF107991061051004501999999KA1999M+00391MD1710171+9999MW1011
0057028640999991955051000004+65783+024583FM-12+001599999V0201101N00511001501CN0100001N9+00221+00111099991ADDAY121999GF108991081071001501999999MD1710161+9999MW1601
0081028640999991955051006004+65783+024583FM-12+001599999V0201101N00511004501CN0150001N9+00281+00221099711ADDAA199000691AY161999GF108991081071004501999999KA1999N+00221MD1710141+9999MW1021
0057028640999991955051012004+65783+024583FM-12+001599999V0201101N00671004501CN0400001N9+00501+00221099391ADDAY121999GF108991061051004501021999MD1710151+9999MW1021
0081028640999991955051018004+65783+024583FM-12+001599999V0201101N00211030001CN0070001N9+00391+00391099191ADDAA199002091AY161999GF108991041071004501021999KA1999M+00611MD1710091+9999MW1611
0057028640999991955051100004+65783+024583FM-12+001599999V0200901N00311004501CN0060001N9+00221+00221099011ADDAY161999GF108991051071004501021999MD1710101+9999MW1611
0081028640999991955051106004+65783+024583FM-12+001599999V0200901N00361002401CN0070001N9+00221+00111098751ADDAA199005091AY161999GF108991051071002501021999KA1999N+00111MD1710121+9999MW1611
0076028640999991955051112004+65783+024583FM-12+001599999V0200901N00261004501CN0080001N9+00281+00221098721ADDAY161999GF108991999071004501021999MD1410001+9999MW1611EQDQ01+000082SCOTLC
0081028640999991955051118004+65783+024583FM-12+001599999V0202301N00411004501CN0300001N9+00111+00111098941ADDAA199004091AY171999GF107991061051004501071999KA1999M+00281MD1210121+9999MW1231
0057028640999991955051200004+65783+024583FM-12+001599999V0201801N00101220001CN0500001N9-00111-00111099201ADDAY121999GF106991001001999999071051MD1210071+9999MW1021
0057028640999991955051212004+65783+024583FM-12+001599999V0202001N00621220001CN0500001N9+00281+00001099601ADDAY111999GF102991011021008001001021MD1210151+9999MW1021
0070028640999991955051218004+65783+024583FM-12+001599999V0201801N00211220001CN0300001N9+00221+00001099681ADDAY101999GF101991011041008001001001KA1999M+00391MD1210011+9999MW1021
0057028640999991955051300004+65783+024583FM-12+001599999V0201101N00101220001CN0500001N9-00281-00391099721ADDAY101999GF101991011041004501001001MD1210011+9999MW1011
0089028640999991955051306004+65783+024583FM-12+001599999V0209991C00001220001CN0500001N9+00221-00111099851ADDAY101999GF101991999001999999081001KA1999N-00391MD1210071+9999MW1021EQDQ01+000002SCOTLC
0057028640999991955051312004+65783+024583FM-12+001599999V0202001N00261220001CN0500001N9+00501+00111100151ADDAY101999GF102991021031008001001001MD1210151+9999MW1021
0070028640999991955051318004+65783+024583FM-12+001599999V0201801N00101030001CN0500001N9+00281+00001100311ADDAY111999GF106991021031008001071021KA1999M+00611MD1210071+9999MW1021
0057028640999991955051400004+65783+024583FM-12+001599999V0201101N00101030001CN0500001N9+99999+99999100851ADDAY111999GF106991041081004501041001MD1210031+9999MW1021
0070028640999991955051406004+65783+024583FM-12+001599999V0201601N00261030001CN0500001N9+00221-00111100451ADDAY121999GF107991041091004501061999KA1999N-00221MD1210071+9999MW1031
0057028640999991955051412004+65783+024583FM-12+001599999V0201801N00311220001CN0500001N9+00721+00111100481ADDAY101999GF101991011021008001001021MD1710031+9999MW1011
0070028640999991955051418004+65783+024583FM-12+001599999V0201101N00261030001CN0500001N9+00781-00221100371ADDAY111999GF107991011051008001041071KA1999M+01001MD1710111+9999MW1031
0057028640999991955051500004+65783+024583FM-12+001599999V0200901N00511004501CN0300001N9+00391-00111100051ADDAY121999GF108991051051004501071999MD1710231+9999MW1031
0081028640999991955051506004+65783+024583FM-12+001599999V0200901N00511001501CN0070001N9+00281+00281099421ADDAA199002091AY161999GF108991071071001501021999KA1999N+00221MD1710431+9999MW1611
0057028640999991955051512004+65783+024583FM-12+001599999V0201801N00511000601CN0035001N9+00501+00501099201ADDAY161999GF108991071071000751021999MD1510011+9999MW1631
0081028640999991955051518004+65783+024583FM-12+001599999V0201801N00621220001CN0500001N9+00281+00001099551ADDAA199006091AY101999GF101991011021004501001001KA1999M+00501MD1210161+9999MW1031
0070028640999991955051606004+65783+024583FM-12+001599999V0201801N00571004501CN0500001N9+00391+00221100011ADDAY121999GF108991081051004501999999KA1999N+00221MD1210131+9999MW1021
0057028640999991955051612004+65783+024583FM-12+001599999V0202001N00571075001CN0500001N9+00611+00281100211ADDAY121999GF106991031021008001001051MD1210091+9999MW1011
0070028640999991955051618004+65783+024583FM-12+001599999V0201801N00461220001CN0500001N9+00281+00001100291ADDAY101999GF102991021041008001001001KA1999M+00781MD1210041+9999MW1031
0076028640999991955051700004+65783+024583FM-12+001599999V0201801N00261220001CN0500001N9+00111-00221100421ADDAY101999GF101991999001999999041001MD1210051+9999MW1021EQDQ01+000002SCOTLC
0089028640999991955051706004+65783+024583FM-12+001599999V0201801N00411220001CN0500001N9+00391+00001100511ADDAY101999GF102991999001999999061001KA1999N+00001MD1110051+9999MW1031EQDQ01+000002SCOTLC
0057028640999991955051712004+65783+024583FM-12+001599999V0201801N00311220001CN0500001N9+00721+00221100641ADDAY111999GF102991011021008001071001MD1210041+9999MW1021
0070028640999991955051718004+65783+024583FM-12+001599999V0201801N00361220001CN0500001N9+00611+00111100661ADDAY101999GF101991011041008001041001KA1999M+00781MD1210011+9999MW1021
0057028640999991955051800004+65783+024583FM-12+001599999V0201401N00151220001CN0400001N9+00111+00111100751ADDAY101999GF102991011051008001041001MD1210021+9999MW1021
0070028640999991955051806004+65783+024583FM-12+001599999V0201801N00261220001CN0400001N9+00281+00221100951ADDAY101999GF101991011061002501001001KA1999N-00111MD1210161+9999MW1011
0057028640999991955051812004+65783+024583FM-12+001599999V0201801N00411001501CN0030001N9+00221+00111101321ADDAY121999GF107991071061001501999999MD1210191+9999MW1011
0070028640999991955051818004+65783+024583FM-12+001599999V0201801N00101220001CN0400001N9+00501+00221101391ADDAY111999GF106991001001999999041061KA1999M+00611MD1210011+9999MW1021
0057028640999991955051900004+65783+024583FM-12+001599999V0209991C00001220001CN0500001N9+00281+00111101461ADDAY111999GF102991011041008001041001MD1710061+9999MW1011
0056028640999991955051906004+65783+024583FM-12+001599999V0200901N00411030001CN0500001N9+00891+00281101221ADDAY111999GF105991021051012501051001KA1999N+00111MW1011
0057028640999991955051912004+65783+024583FM-12+001599999V0200901N00671004501CN0100001N9+00781+00611100771ADDAY161999GF108991061071004501021999MD1710221+9999MW1631
0057028640999991955052000004+65783+024583FM-12+001599999V0200901N00101030001CN0100001N9+00391+00391100591ADDAY121999GF108991031061001501071999MD1210021+9999MW1031
0081028640999991955052006004+65783+024583FM-12+001599999V0201801N00361075001CN0400001N9+00611+99999100401ADDAA199001091AY111999GF106991011081004501041061KA1999N+00221MD1710091+9999MW1031
0057028640999991955052012004+65783+024583FM-12+001599999V0200501N00211004501CN0100001N9+00781+00611999999ADDAY161999GF108991061071004501021999MD1710321+9999MW1631
0081028640999991955052018004+65783+024583FM-12+001599999V0209991C00001000601CN0030001N9+00501+00501099411ADDAA199014091AY161999GF108991071071000751021999KA1999M+00891MD1710301+9999MW1631
0057028640999991955052100004+65783+024583FM-12+001599999V0201401N00821004501CN0200001N9+00501+00221098861ADDAY121999GF108991081051004501999999MD1710241+9999MW1021
0081028640999991955052106004+65783+024583FM-12+001599999V0201801N00311000601CN0030001N9+00111+00111098751ADDAA199003091AY161999GF108991081061000751999999KA1999N+00111MD1410001+9999MW1681
0057028640999991955052112004+65783+024583FM-12+001599999V0202001N00721004501CN0400001N9+00391+00221099621ADDAY161999GF107991061051004501071999MD1210401+9999MW1011
0081028640999991955052118004+65783+024583FM-12+001599999V0201801N00101220001CN0500001N9+00281+00221100111ADDAA199000391AY121999GF103991021041004501061001KA1999M+00501MD1210161+9999MW1011
0057028640999991955052200004+65783+024583FM-12+001599999V0209991C00001000601CN0012001N9-00221-00221100341ADDAY101999GF108991081061000751999999MD1210121+9999MW1101
0070028640999991955052206004+65783+024583FM-12+001599999V0209991C00001220001CN0025001N9+00281+00221100381ADDAY141999GF103991011081000751051001KA1999N-00391MD1110031+9999MW1401
0057028640999991955052212004+65783+024583FM-12+001599999V0202701N00461030001CN0500001N9+00721+00001100511ADDAY111999GF106991021031004501071999MD1210071+9999MW1031
0070028640999991955052218004+65783+024583FM-12+001599999V0202301N00361220001CN0500001N9+00391-00221100621ADDAY111999GF102991011021012501051001KA1999M+00781MD1210071+9999MW1011
0057028640999991955052300004+65783+024583FM-12+001599999V0209991C00001220001CN0400001N9-00111-00111100641ADDAY101999GF102991021051004501041001MD1410001+9999MW1031
0070028640999991955052306004+65783+024583FM-12+001599999V0209991C00001220001CN0500001N9+00611-00111100751ADDAY101999GF102991011091008001061001KA1999N-00281MD1210041+9999MW1021
0057028640999991955052312004+65783+024583FM-12+001599999V0202001N00511220001CN0500001N9+00501+00221101001ADDAY101999GF102991021091008001001001MD1310141+9999MW1011
0070028640999991955052318004+65783+024583FM-12+001599999V0202701N00101220001CN0500001N9+00501+00221101171ADDAY111999GF103991021091008001041001KA1999M+00781MD1210101+9999MW1031
0057028640999991955052400004+65783+024583FM-12+001599999V0209991C00001220001CN0500001N9-00281-00391101251ADDAY101999GF101991011081008001001001MD1210031+9999MW1021
0070028640999991955052406004+65783+024583FM-12+001599999V0203601N00261220001CN0500001N9+00391+00111101291ADDAY101999GF101991011011008001001041KA1999N-00281MD1210031+9999MW1021
0057028640999991955052412004+65783+024583FM-12+001599999V0203601N00311220001CN0500001N9+01001-00891101081ADDAY101999GF103991031011012501001001MD1710151+9999MW1021
0070028640999991955052418004+65783+024583FM-12+001599999V0200201N00461220001CN0500001N9+00891-00281100981ADDAY111999GF102991021021012501001001KA1999M+01111MD1610011+9999MW1011
0076028640999991955052500004+65783+024583FM-12+001599999V0203601N00211220001CN0400001N9+00221+00111100961ADDAY111999GF102991999001999999071001MD1410001+9999MW1011EQDQ01+000002SCOTLC
0070028640999991955052506004+65783+024583FM-12+001599999V0203601N00621030001CN0400001N9+00501+00001101011ADDAY111999GF105991021081008001071999KA1999N+00221MD1210031+9999MW1011
0057028640999991955052512004+65783+024583FM-12+001599999V0200201N00721007801CN0500001N9+00721-00111101171ADDAY121999GF106991061081008001999999MD1210081+9999MW1181
0070028640999991955052518004+65783+024583FM-12+001599999V0200201N00511007801CN0500001N9+00611-00111101341ADDAY121999GF107991071051008001999999KA1999M+01001MD1210091+9999MW1021
0057028640999991955052600004+65783+024583FM-12+001599999V0203601N00411220001CN0400001N9+00221-00281101571ADDAY101999GF104991041051004501001001MD1210081+9999MW1021
0070028640999991955052606004+65783+024583FM-12+001599999V0200101N00311220001CN0500001N9+00391-00391101651ADDAY101999GF102991011011008001041001KA1999N+00111MD1210071+9999MW1021
0057028640999991955052612004+65783+024583FM-12+001599999V0200201N00311220001CN0500001N9+00781-00391101651ADDAY111999GF102991021011012501001001MD1710041+9999MW1021
0070028640999991955052618004+65783+024583FM-12+001599999V0200201N00261075001CN0500001N9+00781-00501101681ADDAY111999GF106991011011012501001091KA1999M+00891MD1310021+9999MW1031
0057028640999991955052700004+65783+024583FM-12+001599999V0209991C00001220001CN0500001N9-00221-00281101681ADDAY121999GF104991001001999999071021MD1410001+9999MW1021
0070028640999991955052706004+65783+024583FM-12+001599999V0201801N00311220001CN0500001N9+00611-00281101581ADDAY101999GF102991001001999999071011KA1999N-00281MD1710071+9999MW1021
0057028640999991955052712004+65783+024583FM-12+001599999V0202001N00461220001CN0500001N9+00611+00001101381ADDAY121999GF106991001001999999071061MD1710111+9999MW1011
0070028640999991955052718004+65783+024583FM-12+001599999V0202301N00151007801CN0500001N9+00501+00001101151ADDAY121999GF107991071051008001999999KA1999M+00781MD1710121+9999MW1031
0070028640999991955052806004+65783+024583FM-12+001599999V0200201N00571220001CN0500001N9+00891-00111101311ADDAY111999GF104991031081012501071001KA1999N+00221MD1210141+9999MW1031
0057028640999991955052812004+65783+024583FM-12+001599999V0203601N00671012301CN0500001N9+00721-00281101551ADDAY121999GF107991071081012501999999MD1210161+9999MW1021
0057028640999991955052900004+65783+024583FM-12+001599999V0203201N00411220001CN0500001N9+00111-00391102161ADDAY111999GF104991041051008001001001MD1210111+9999MW1011
0070028640999991955052906004+65783+024583FM-12+001599999V0203601N00571030001CN0500001N9+00391-00501102341ADDAY121999GF106991041081004501071001KA1999N+00001MD1210011+9999MW1021
0057028640999991955052912004+65783+024583FM-12+001599999V0203601N00311220001CN0500001N9+00721-00501102351ADDAY111999GF104991031011012501001021MD1610031+9999MW1011
0070028640999991955052918004+65783+024583FM-12+001599999V0202501N00411220001CN0500001N9+00501-00111102281ADDAY101999GF104991021041008001041001KA1999M+01001MD1810031+9999MW1021
0070028640999991955053006004+65783+024583FM-12+001599999V0209991C00001220001CN0500001N9+00721+00221102201ADDAY111999GF107991001001999999071071KA1999N+00111MD1310021+9999MW1031
0057028640999991955053012004+65783+024583FM-12+001599999V0203601N00311075001CN0500001N9+01391+00281102211ADDAY111999GF106991031011012501001051MD1310011+9999MW1031
0070028640999991955053018004+65783+024583FM-12+001599999V0201801N00101007801CN0500001N9+01111+00611102321ADDAY111999GF106991051041008001001051KA1999M+01611MD1210101+9999MW1031
0070028640999991955053106004+65783+024583FM-12+001599999V0209991C00001220001CN0400001N9+01001+00391102801ADDAY121999GF107991001001999999071071KA1999N+00111MD1210061+9999MW1031
0057028640999991955053112004+65783+024583FM-12+001599999V0202301N00411220001CN0500001N9+01391+00391102721ADDAY111999GF102991011011012501041011MD1710081+9999MW1011
0091028640999991955053118004+65783+024583FM-12+001599999V0202501N00211220001CN0500001N9+01111+00391102681ADDAY101999GF100991001001999999001001KA1999M+01391MW1021EQDQ01+000032APCTENQ02+000002APC3  
0076028640999991955060100004+65783+024583FM-12+001599999V0201101N00151220001CN0500001N9+00501+00501102721ADDAY101999GF101991999001999999041001MD1210011+9999MW1031EQDQ01+000002SCOTLC
0089028640999991955060106004+65783+024583FM-12+001599999V0209991C00001220001CN0500001N9+01391+00721102741ADDAY101999GF101991999001999999051001KA1999N+00221MD1610031+9999MW1021EQDQ01+000002SCOTLC
0057028640999991955060112004+65783+024583FM-12+001599999V0202301N00211030001CN0500001N9+01611+00781102551ADDAY111999GF106991011081012501071001MD1710161+9999MW1031
0070028640999991955060118004+65783+024583FM-12+001599999V0202701N00211220001CN0500001N9+01721+00721102251ADDAY111999GF102991011041012501051001KA1999M+01781MD1710101+9999MW1021
0076028640999991955060200004+65783+024583FM-12+001599999V0209991C00001220001CN0400001N9+00781+00721102111ADDAY101999GF102991999001999999031001MD1710111+9999MW1011EQDQ01+000002SCOTLC
0089028640999991955060206004+65783+024583FM-12+001599999V0203601N00411220001CN0500001N9+01611+00611101981ADDAY101999GF103991999001999999081001KA1999N+00721MD1710091+9999MW1031EQDQ01+000002SCOTLC
0057028640999991955060212004+65783+024583FM-12+001599999V0203201N00411030001CN0500001N9+02001+00891101921ADDAY121999GF105991031081008001071001MD1710041+9999MW1021
0070028640999991955060218004+65783+024583FM-12+001599999V0200201N00311030001CN0500001N9+01891+01001101941ADDAY111999GF106991041041012501041011KA1999M+02221MD1310051+9999MW1031
0057028640999991955060300004+65783+024583FM-12+001599999V0200201N00411220001CN0500001N9+00781+00611102141ADDAY101999GF103991001001999999051041MD1210051+9999MW1031
0070028640999991955060306004+65783+024583FM-12+001599999V0203401N00151075001CN0500001N9+01501+00781102091ADDAY111999GF106991011021012501001071KA1999N+00501MD1810011+9999MW1021
0057028640999991955060312004+65783+024583FM-12+001599999V0202301N00411220001CN0500001N9+01611+00721101891ADDAY101999GF103991031021012501001001MD1710131+9999MW1021
0070028640999991955060318004+65783+024583FM-12+001599999V0200201N00361030001CN0500001N9+01501+00721101721ADDAY111999GF105991041081012501061999KA1999M+01781MD1510041+9999MW1031
0057028640999991955060400004+65783+024583FM-12+001599999V0200201N00311220001CN0450001N9+00721+00501101911ADDAY111999GF103991021051004501071001MD1210101+9999MW1031
0057028640999991955060412004+65783+024583FM-12+001599999V0203601N00411075001CN0500001N9+01221+00221101841ADDAY111999GF105991031011012501001051MD1710091+9999MW1031
0070028640999991955060418004+65783+024583FM-12+001599999V0200501N00311075001CN0500001N9+01221+00111101581ADDAY121999GF107991011041012501001071KA1999M+01281MD1710141+9999MW1021
0070028640999991955060506004+65783+024583FM-12+001599999V0202301N00211030001CN0500001N9+00891+00501100881ADDAY121999GF107991011011008001021999KA1999N+00501MD1710191+9999MW1021
0043028640999991955060512004+65783+024583FM-12+001599999V0202901N00361030001CN0500001N9+01111+00281100771ADDAY111999GF105991011011012501011051MW1011
0081028640999991955060518004+65783+024583FM-12+001599999V0203601N00211007801CN0500001N9+00781+00501100751ADDAA199000691AY181999GF107991071091008001999999KA1999M+01281MD1210061+9999MW1251
0057028640999991955060600004+65783+024583FM-12+001599999V0203601N00261220001CN0500001N9+00281+00001100801ADDAY111999GF102991021081004501001001MD1210051+9999MW1011
0070028640999991955060606004+65783+024583FM-12+001599999V0203201N00261220001CN0500001N9+00611-00111100791ADDAY101999GF102991021081008001001001KA1999N+00221MD1810051+9999MW1031
