0076029700999991952010112004+60117+019900FM-12+000399999V0202701N00931220001CN0200001N9+00391+00111098811ADDAY111999GF102991999001999999041001MD1310201+9999MW1011EQDQ01+000002SCOTLC
0076029700999991952010118004+60117+019900FM-12+000399999V0202901N00821220001CN0200001N9+00221+00111099241ADDAY111999GF104991001001999999041061IA1089KA1999M+00391MD1110151+9999MW1031
0076029700999991952010206004+60117+019900FM-12+000399999V0202001N00211030001CN0160001N9+00111+00111099321ADDAY121999GF108991021071002501071999IA1009KA1999N+00001MD1010131+9999MW1021
0057029700999991952010212004+60117+019900FM-12+000399999V0201101N00511004501CN0090001N9+00221-00111098741ADDAY121999GF108991051071004501021999MD1990401+9999MW1701
0087029700999991952010218004+60117+019900FM-12+000399999V0200901N00211002401CN0090001N9+00001+00001098281ADDAA199003091AY171999GF108991061071002501011999IA1199KA1999M+00281MD1610121+9999MW1021
0057029700999991952010300004+60117+019900FM-12+000399999V0200701N00101030001CN0160001N9+00001+00001098351ADDAY121999GF108991041071004501011999MD1810081+9999MW1021
0106029700999991952010306004+60117+019900FM-12+000399999V0203401N00211220001CN0160001N9-00281-00501098541ADDAA199003091AY111999GF104991999001999999041001IA1209KA1999N-00391MD1310121+9999MW1011EQDQ01+000002SCOTLC
0097029700999991952010318004+60117+019900FM-12+000399999V0202901N00211220001CN0160001N9-00111-00221099201ADDAY111999GF108991001001999999011999IA1209KA1999M+00001MW1031EQDQ01+000042APCTENQ02+000292APC3  
0057029700999991952010400004+60117+019900FM-12+000399999V0202901N00311030001CN0200001N9-00391-00501099741ADDAY121999GF108991021071004501011999MD1310271+9999MW1021
0057029700999991952010412004+60117+019900FM-12+000399999V0202301N00411007801CN0160001N9-00391-00501100391ADDAY121999GF108991081051008001999999MD1110071+9999MW1021
0076029700999991952010418004+60117+019900FM-12+000399999V0202701N00101007801CN0200001N9-00501-00501099651ADDAY121999GF108991081051008001999999IA1309KA1999M-00111MD1110011+9999MW1021
0095029700999991952010506004+60117+019900FM-12+000399999V0202501N00211220001CN0160001N9-00501-00611101171ADDAY111999GF104991999001999999041001IA1309KA1999N-00611MD1310131+9999MW1011EQDQ01+000002SCOTLC
0057029700999991952010512004+60117+019900FM-12+000399999V0209999999999030001CN0160001N9-00221+99999101511ADDAY171999GF107991011021004501041021MD1210221+9999MW1021
0087029700999991952010518004+60117+019900FM-12+000399999V0203601N00211220001CN0200001N9-00391-00501101941ADDAA199000391AY111999GF102991021021004501001001IA1309KA1999M-00221MD1110161+9999MW1011
0076029700999991952010606004+60117+019900FM-12+000399999V0203401N00101220001CN0160001N9-00501-00611102351ADDAY121999GF104991001001999999001061IA1309KA1999N-00781MD1010041+9999MW1021
0057029700999991952010612004+60117+019900FM-12+000399999V0202301N00411004501CN0090001N9-00111-00111102001ADDAY121999GF108991051071004501999999MD1990271+9999MW1601
0087029700999991952010618004+60117+019900FM-12+000399999V0201601N00571012301CN0034001N9-00611-00781999999ADDAA199001091AY171999GF108991081001012501011999IA1319KA1999M+00001MD1810241+9999MW1711
0057029700999991952010700004+60117+019900FM-12+000399999V0202301N00511002401CN0044001N9+00221+00221101171ADDAY161999GF108991071071002501021999MD1990241+9999MW1601
0087029700999991952010706004+60117+019900FM-12+000399999V0202501N00101000601CN0024001N9+00391+00281100891ADDAA199000591AY151999GF108991081071000751999999IA1189KA1999N+00001MD1710281+9999MW1511
0057029700999991952010712004+60117+019900FM-12+000399999V0202301N00721030001CN0200001N9+00611+00281100341ADDAY111999GF108991031071004501011999MD1810271+9999MW1011
0097029700999991952010718004+60117+019900FM-12+000399999V0202701N00721220001CN0200001N9+00501+00111100841ADDAY111999GF103991001001999999041021IA1109KA1999M+00721MW1011EQDQ01+000042APCTENQ02+000372APC3  
0057029700999991952010800004+60117+019900FM-12+000399999V0202901N00721220001CN0200001N9+00221-00111101401ADDAY101999GF100991001001999999001001MD1110191+9999MW1011
0076029700999991952010806004+60117+019900FM-12+000399999V0203401N00311220001CN0200001N9+00111-00111101381ADDAY101999GF101991001001999999001061IA1139KA1999N-00221MD1010071+9999MW1011
0057029700999991952010812004+60117+019900FM-12+000399999V0202901N00211220001CN0160001N9+00221-00111101321ADDAY111999GF105991001001999999041041MD1010121+9999MW1011
0076029700999991952010818004+60117+019900FM-12+000399999V0202301N00361030001CN0160001N9+00221+00221100961ADDAY111999GF107991031051017501011999IA1139KA1999M+00501MD1810211+9999MW1031
0095029700999991952010906004+60117+019900FM-12+000399999V0202301N01231004501CN0140001N9+00391+00391099321ADDAY121999GF108991071071004501011999IA1089KA1999N+00221MD1810512+9999MW1021EQDQ01+000512APC3  
0057029700999991952010912004+60117+019900FM-12+000399999V0202001N01901004501CN0140001N9+00391+00281098781ADDAY121999GF108991071071004501011999MD1810251+9999MW1031
0076029700999991952010918004+60117+019900FM-12+000399999V0202001N00931030001CN0160001N9+00281+00111098641ADDAY121999GF108991031071004501011999IA1109KA1999M+00391MD1810051+9999MW1021
0095029700999991952011006004+60117+019900FM-12+000399999V0202001N01031030001CN0160001N9+00111+00111098211ADDAY121999GF108991021071004501011999IA1089KA1999N+99999MD1810161+9999MW1021EQDQ01 +00222ATMN  
0076029700999991952011018004+60117+019900FM-12+000399999V0202001N00721220001CN0200001N9+00111-00281097781ADDAY111999GF103991031021012501001001IA1089KA1999M+00391MD1510091+9999MW1011
0076029700999991952011106004+60117+019900FM-12+000399999V0202001N01031012301CN0200001N9+00221-00221097381ADDAY121999GF107991061081012501999999IA1009KA1999N+00001MD1010241+9999MW1021
0057029700999991952011112004+60117+019900FM-12+000399999V0202001N00511030001CN0200001N9+00221+00221097021ADDAY171999GF108991041071002501011999MD1610051+9999MW1011
0087029700999991952011118004+60117+019900FM-12+000399999V0202001N00511002401CN0160001N9+00221+00221096911ADDAA199002091AY121999GF108991071071002501011999IA1109KA1999M+00221MD1810071+9999MW1021
0057029700999991952011200004+60117+019900FM-12+000399999V0201101N00621030001CN0160001N9+00221+00111096781ADDAY121999GF108991031071004501011999MD1810111+9999MW1021
0076029700999991952011206004+60117+019900FM-12+000399999V0200901N00411030001CN0160001N9+00001-00111097021ADDAY121999GF108991021071004501021999IA1089KA1999N-00111MD1310151+9999MW1021
0057029700999991952011212004+60117+019900FM-12+000399999V0203601N00411220001CN0200001N9+00001-00221097401ADDAY121999GF108991001001999999021999MD1110161+9999MW1021
0076029700999991952011218004+60117+019900FM-12+000399999V0203601N00411004501CN0140001N9+00001+00001098041ADDAY121999GF108991071001004501011999IA1089KA1999M+00281MD1810361+9999MW1701
0087029700999991952011306004+60117+019900FM-12+000399999V0203601N00621030001CN0200001N9+00001+00001099201ADDAA199000391AY121999GF108991041071004501011999IA1089KA1999N-00221MD1110111+9999MW1021
0057029700999991952011312004+60117+019900FM-12+000399999V0202401N00411030001CN0200001N9+00111-00221099661ADDAY171999GF107991041021008001061999MD1310211+9999MW1701
0087029700999991952011318004+60117+019900FM-12+000399999V0203401N00411007801CN0200001N9+00111-00391099951ADDAA199000691AY121999GF108991081051008001999999IA1309KA1999M+00221MD1110081+9999MW1021
0057029700999991952011400004+60117+019900FM-12+000399999V0203401N00211220001CN0200001N9-00221-00281100261ADDAY111999GF108991001001999999011999MD1110081+9999MW1021
0076029700999991952011406004+60117+019900FM-12+000399999V0202001N00211007801CN0200001N9-00611-00611100111ADDAY111999GF108991081081008001999999IA1309KA1999N-00611MD1810111+9999MW1021
0057029700999991952011412004+60117+019900FM-12+000399999V0201801N00211220001CN0200001N9+00111-00281099861ADDAY111999GF105991001001999999071999MD1990131+9999MW1011
0087029700999991952011418004+60117+019900FM-12+000399999V0201801N00311004501CN0090001N9+00281+00221099601ADDAA199001091AY171999GF108991071071004501021061IA1199KA1999M+00281MD1610071+9999MW1231
0062029700999991952011500004+60117+019900FM-12+000399999V0201801N99999002401CN0160001N9+00111+00111099601ADDAY121999GF108991999071002501011999MW1021EQDQ01+000082SCOTLC
0087029700999991952011506004+60117+019900FM-12+000399999V0202001N00101004501CN0160001N9+00001-00111099651ADDAA199000691AY121999GF108991071071004501011999IA1199KA1999N+00001MD1310041+9999MW1021
0106029700999991952011518004+60117+019900FM-12+000399999V0202001N00931002401CN0140001N9+00391+00001097541ADDAA199004091AY161999GF108991071071002501021999IA1189KA1999M+00391MD1990962+9999MW1021EQDQ01+000962APC3  
0097029700999991952011606004+60117+019900FM-12+000399999V0202901N01541004501CN0160001N9+00221-00221096941ADDAY121999GF108991061071004501011999IA1109KA1999N+00111MW1021EQDQ01+000042APCTENQ02+000442APC3  
0057029700999991952011612004+60117+019900FM-12+000399999V0203201N01341030001CN0140001N9+00001+00001097661ADDAY171999GF108991041071002501011999MD1310361+9999MW1011
0087029700999991952011618004+60117+019900FM-12+000399999V0202901N999999999999N0140001N9-00221-00221098451ADDAA199000591AY121999GF108991999999999999011999IA1109KA1999M+00391MD1310361+9999MW1021
0095029700999991952011706004+60117+019900FM-12+000399999V0202901N00101220001CN0200001N9-00221-00501099991ADDAY101999GF101991999001999999041001IA1189KA1999N-00281MD1110121+9999MW1011EQDQ01+000002SCOTLC
0057029700999991952011712004+60117+019900FM-12+000399999V0202701N99999220001CN0200001N9+00001-00391099611ADDAY111999GF103991011011012501041041MD1110081+9999MW1031
0076029700999991952011718004+60117+019900FM-12+000399999V0202701N00101030001CN0160001N9-00281-00281099861ADDAY121999GF108991041071004501011999IA1189KA1999M+00221MD1110111+9999MW1021
0076029700999991952011800004+60117+019900FM-12+000399999V0202001N00101220001CN0160001N9-00281-00281100141ADDAY111999GF102991999001999999041001MD1210111+9999MW1011EQDQ01+000002SCOTLC
0076029700999991952011806004+60117+019900FM-12+000399999V0200701N00211220001CN0160001N9-00111-00111100371ADDAY121999GF106991001001999999041021IA1189KA1999N-00391MD1110051+9999MW1021
0057029700999991952011812004+60117+019900FM-12+000399999V0200901N00311007801CN0160001N9+00111-00221100601ADDAY121999GF108991061071008001011999MD1110081+9999MW1021
0076029700999991952011818004+60117+019900FM-12+000399999V0200901N00621007801CN0160001N9+00111-00221100821ADDAY121999GF108991061071008001011999IA1189KA1999M+00221MD1310131+9999MW1021
0057029700999991952011900004+60117+019900FM-12+000399999V0200901N00211002401CN0090001N9+00001+00001100951ADDAY171999GF108991071071002501021999MD1310081+9999MW1731
0087029700999991952011906004+60117+019900FM-12+000399999V0200901N00411030001CN0160001N9+00001+00001101241ADDAA199006091AY121999GF108991021071002501011999IA1319KA1999N-00111MD1310151+9999MW1021
0057029700999991952011912004+60117+019900FM-12+000399999V0200901N00311007801CN0160001N9+00001-00781101601ADDAY121999GF108991061071008001011999MD1110091+9999MW1021
0076029700999991952011918004+60117+019900FM-12+000399999V0200701N00211012301CN0160001N9-00111-00221102041ADDAY121999GF108991051071012501011999IA1319KA1999M+00111MD1310211+9999MW1021
0076029700999991952012006004+60117+019900FM-12+000399999V0200701N00821007801CN0160001N9-00281-00501102741ADDAY121999GF108991071071008001011999IA1319KA1999N-00391MD1310231+9999MW1021
0057029700999991952012012004+60117+019900FM-12+000399999V0200701N00621220001CN0160001N9-00391-00501102961ADDAY121999GF108991001001999999021999MD1110081+9999MW1021
0113029700999991952012018004+60117+019900FM-12+000399999V0200201N00411220001CN0200001N9-00391-00611103191ADDAY101999GF102991999011012501001001IA1319KA1999M-00111MW1011EQDQ01+000012SCOTLCQ02+000042APCTENQ03+000152APC3  
0076029700999991952012306004+60117+019900FM-12+000399999V0202701N00101220001CN0200001N9-00721-00781102371ADDAY111999GF199999001001999999041001IA1319KA1999N-00721MD1810111+9999MW1021
0057029700999991952012400004+60117+019900FM-12+000399999V0202501N00411220001CN0200001N9-00391-00501101441ADDAY111999GF105991001001999999071999MD1810161+9999MW1011
0078029700999991952012512004+60117+019900FM-12+000399999V0202301N00311030001CN0160001N9-00111-00391099651ADDAY121999GF106991041071012501011999MW1011EQDQ01+000062APCTENQ02+000002APC3  
0087029700999991952012606004+60117+019900FM-12+000399999V0201401N00101012301CN0200001N9-00221-00281099951ADDAA199000391AY121999GF108991061071012501011999IA1319KA1999N-00391MD1110031+9999MW1851
0057029700999991952012612004+60117+019900FM-12+000399999V0200201N00101004501CN0090001N9-00221-00221099891ADDAY171999GF108991061071004501011999MD1310071+9999MW1731
0057029700999991952012912004+60117+019900FM-12+000399999V0203401N00101015001CN0140001N9-00221-00281100381ADDAY121999GF108991061071017501011999MD1110161+9999MW1021
0057029700999991952020100004+60117+019900FM-12+000399999V0200501N00101012301CN0140001N9-00111-00111099641ADDAY121999GF108991071071012501011999MD1810081+9999MW1021
0076029700999991952020106004+60117+019900FM-12+000399999V0201601N00311220001CN0160001N9-00111-00281099491ADDAY111999GF104991001001999999041999IA1319KA1999N-00221MD1810241+9999MW1011
0057029700999991952020112004+60117+019900FM-12+000399999V0201101N00511015001CN0070001N9-00111-00221099251ADDAY111999GF108991061071017501011999MD1990191+9999MW1711
0087029700999991952020118004+60117+019900FM-12+000399999V0201601N00721002401CN0060001N9-00111-00111098981ADDAA199003091AY171999GF108991061071002501011999IA1319KA1999M+00111MD1810111+9999MW1731
0087029700999991952020206004+60117+019900FM-12+000399999V0201801N00621220001CN0160001N9+00221+00221099221ADDAA199001091AY111999GF106991001001999999041999IA1319KA1999N-00111MD1310231+9999MW1021
0057029700999991952020212004+60117+019900FM-12+000399999V0201801N003119999999N0160001N9+00221+00111099441ADDAY111999GF105991999041004501001021MD1310031+9999MW1011
0076029700999991952020218004+60117+019900FM-12+000399999V0201601N00101220001CN0160001N9+00001+00001099521ADDAY111999GF102991001001999999041999IA1319KA1999M+00281MD1110011+9999MW1011
0057029700999991952020300004+60117+019900FM-12+000399999V0201601N00211220001CN0160001N9+00221+00001099541ADDAY111999GF108991001001999999041999MD1310011+9999MW1031
0097029700999991952020306004+60117+019900FM-12+000399999V0201601N00311030001CN0160001N9+00221+00001099551ADDAY121999GF108991021071001501011999IA1319KA1999N+00001MW1021EQDQ01+000042APCTENQ02+000052APC3  
0043029700999991952020312004+60117+019900FM-12+000399999V0201601N00211220001CN0200001N9+00221+00111099761ADDAY111999GF106991001001999999041021MW1001
0076029700999991952020318004+60117+019900FM-12+000399999V0201401N00101220001CN0160001N9-00221-00221099981ADDAY101999GF103991001001999999041041IA1319KA1999M+00221MD1310121+9999MW1011
0095029700999991952020406004+60117+019900FM-12+000399999V0209991C00001220001CN0110001N9-00391-00721100541ADDAY111999GF106991001001999999041999IA1319KA1999N-00891MD1310532+9999MW1031EQDQ01+000532APC3  
0057029700999991952020412004+60117+019900FM-12+000399999V0202001N00101220001CN0160001N9+00001-00111100911ADDAY111999GF104991001001999999041021MD1310171+9999MW1011
0076029700999991952020418004+60117+019900FM-12+000399999V0202701N00101001501CN0044001N9-00221-00281101211ADDAY111999GF108991051061001501011999IA1319KA1999M-00221MD1310171+9999MW1421
0057029700999991952020512004+60117+019900FM-12+000399999V0203601N00101030001CN0200001N9-00111-00221101971ADDAY121999GF108991031071022501011999MD1110091+9999MW1021
0076029700999991952020518004+60117+019900FM-12+000399999V0203601N00311220001CN0600001N9-00111-00391102121ADDAY111999GF107991001001999999041999IA1319KA1999M-00111MD1310081+9999MW1021
0057029700999991952020600004+60117+019900FM-12+000399999V0202701N00101220001CN0200001N9-00221-00221102211ADDAY121999GF108991001001999999041999MD1310071+9999MW1021
0076029700999991952020606004+60117+019900FM-12+000399999V0209991C00001030001CN0200001N9-00111-00221102021ADDAY121999GF108991021071022501021999IA1309KA1999N-00221MD1010111+9999MW1031
0057029700999991952020612004+60117+019900FM-12+000399999V0202001N00211220001CN0140001N9-00221-00281101721ADDAY121999GF106991001001999999041999MD1810251+9999MW1021
0111029700999991952020618004+60117+019900FM-12+000399999V0201601N00721030001CN0200001N9+00111+00111100792ADDAY121999GF108991021071022501021999IA1319KA1999M+00111MD1810532+9999MW1021EQDQ01+100793APOSLPQ02+000532APC3  
0076029700999991952020718004+60117+019900FM-12+000399999V0202301N00211220001CN0200001N9+00001-00221098611ADDAY111999GF102991001001999999041011IA1209KA1999M+00221MD1810191+9999MW1021
0057029700999991952020800004+60117+019900FM-12+000399999V0202301N00621220001CN0160001N9+00111+00001098311ADDAY111999GF105991001001999999041021MD1810151+9999MW1031
0076029700999991952020806004+60117+019900FM-12+000399999V0202301N00101220001CN0160001N9+00001+00001098051ADDAY121999GF108991001001999999011999IA1159KA1999N+00001MD1610071+9999MW1021
0057029700999991952020812004+60117+019900FM-12+000399999V0203201N00311007801CN0044001N9+00001+00001098011ADDAY171999GF108991071071008001021999MD1990041+9999MW1731
0087029700999991952020818004+60117+019900FM-12+000399999V0203401N00211220001CN0200001N9-00221-00281098121ADDAA199001091AY171999GF104991001001999999001021IA1159KA1999M+00111MD1110031+9999MW1011
0057029700999991952020900004+60117+019900FM-12+000399999V0202901N00101012301CN0200001N9-00281-00501098211ADDAY111999GF107991071081012501999999MD1310051+9999MW1021
0076029700999991952020906004+60117+019900FM-12+000399999V0202401N00101012301CN0200001N9-00391-00501098281ADDAY121999GF107991071081012501999999IA1159KA1999N-00611MD1310041+9999MW1021
0078029700999991952020912004+60117+019900FM-12+000399999V0200201N00211007801CN0200001N9-00221-00391098371ADDAY171999GF108991061071008001011999MW1021EQDQ01+000012APCTENQ02+000002APC3  
0087029700999991952020918004+60117+019900FM-12+000399999V0203401N00211007801CN0200001N9-00281-00501098371ADDAA199001091AY121999GF108991071071008001011999IA1159KA1999M-00221MD1010011+9999MW1021
0057029700999991952021000004+60117+019900FM-12+000399999V0202701N00101007801CN0014001N9-00111-00221098211ADDAY171999GF108991071071008001011999MD1810051+9999MW1011
0087029700999991952021006004+60117+019900FM-12+000399999V0203601N00101007801CN0200001N9-00221-00221098211ADDAA199000591AY121999GF108991071071008001011999IA1159KA1999N-00501MD1610011+9999MW1021
0057029700999991952021012004+60117+019900FM-12+000399999V0203401N00311007801CN0200001N9-00221-00501098441ADDAY171999GF108991071071008001011999MD1310111+9999MW1021
0087029700999991952021018004+60117+019900FM-12+000399999V0202901N00411007801CN0160001N9-00281-00501098591ADDAA199001091AY121999GF108991061071008001011999IA1319KA1999M-00111MD1110011+9999MW1021
0057029700999991952021100004+60117+019900FM-12+000399999V0209991C00001007801CN0160001N9-00281-00391099011ADDAY121999GF108991071071008001011999MD1610131+9999MW1021
0076029700999991952021106004+60117+019900FM-12+000399999V0202901N00311012301CN0200001N9-00501-00721099201ADDAY121999GF107991071081012501999999IA1319KA1999N-00501MD1310091+9999MW1021
0076029700999991952021112004+60117+019900FM-12+000399999V0201401N00101220001CN0200001N9-00111-00111099381ADDAY111999GF102991999001999999041001MD1310031+9999MW1011EQDQ01+000002SCOTLC
0087029700999991952021118004+60117+019900FM-12+000399999V0200701N00211007801CN0160001N9-00281-00391099571ADDAA199001091AY171999GF108991061071008001011999IA1319KA1999M-00111MD1310081+9999MW1021
0078029700999991952021200004+60117+019900FM-12+000399999V0200701N00211007801CN0160001N9-00611-00721099651ADDAY111999GF108991061071008001011999MW1031EQDQ01+000012APCTENQ02+000002APC3  
0087029700999991952021206004+60117+019900FM-12+000399999V0200701N00311012301CN0160001N9-00391-00501099611ADDAA199000591AY171999GF108991081051012501999999IA1319KA1999N-00721MD1610011+9999MW1021
0057029700999991952021212004+60117+019900FM-12+000399999V0200201N00411007801CN0160001N9-00281-00721099611ADDAY121999GF108991061071008001021999MD1010011+9999MW1701
0108029700999991952021218004+60117+019900FM-12+000399999V0200201N00101030001CN0200001N9-00611-00611099741ADDAA199000391AY121999GF108991031071012501011999IA1319KA1999M-00221MW1021EQDQ01+000042APCTENQ02+000092APC3  
0076029700999991952021306004+60117+019900FM-12+000399999V0209991C00001007801CN0200001N9-00611-00611100251ADDAY121999GF108991071071008001011999IA1319KA1999N-00721MD1310131+9999MW1021
0076029700999991952021312004+60117+019900FM-12+000399999V0202501N00311220001CN0160001N9-00391-00721100761ADDAY111999GF106991999001999999041001MD1310081+9999MW1011EQDQ01+000002SCOTLC
0124029700999991952021318004+60117+019900FM-12+000399999V0202501N00511220001CN0160001N9-00501-00781100561ADDAA199000391AY121999GF104991999001999999041001IA1319KA1999M-00221MW1021EQDQ01+000002SCOTLCQ02+000042APCTENQ03+000072APC3  
0076029700999991952021400004+60117+019900FM-12+000399999V0202501N00101220001CN0200001N9-00611-00891100711ADDAY121999GF102991999001999999041001MD1110041+9999MW1101EQDQ01+000002SCOTLC
0076029700999991952021406004+60117+019900FM-12+000399999V0209991C00001220001CN0160001N9-01721-01721100781ADDAY101999GF102991001001999999041021IA1009KA1999N-01781MD1310041+9999MW1021
0057029700999991952021412004+60117+019900FM-12+000399999V0202301N00411220001CN0200001N9-00221-00721101001ADDAY111999GF103991021011008001001021MD1310121+9999MW1011
0113029700999991952021418004+60117+019900FM-12+000399999V0202501N00211220001CN0200001N9-00501-00721101241ADDAY101999GF102991999001999999041001IA1319KA1999M-00221MW1021EQDQ01+000002SCOTLCQ02+000042APCTENQ03+000162APC3  
0076029700999991952021500004+60117+019900FM-12+000399999V0209991C00001220001CN0160001N9-01281-01281101481ADDAY101999GF101991999001999999041001MD1310121+9999MW1021EQDQ01+000002SCOTLC
0095029700999991952021506004+60117+019900FM-12+000399999V0209991C00001220001CN0200001N9-01111-01111101591ADDAY111999GF106991999001999999041001IA1319KA1999N-01281MD1310091+9999MW1011EQDQ01+000002SCOTLC
0057029700999991952021512004+60117+019900FM-12+000399999V0202001N00211220001CN0200001N9+00111-00501101751ADDAY101999GF101991011011012501001001MD1110031+9999MW1011
0095029700999991952021518004+60117+019900FM-12+000399999V0202001N00211220001CN0140001N9+00001-00221101611ADDAY111999GF105991999001999999041001IA1319KA1999M+00111MD1810091+9999MW1011EQDQ01+000002SCOTLC
0076029700999991952021606004+60117+019900FM-12+000399999V0202001N01031007801CN0140001N9-00111-00281101021ADDAY121999GF108991071071008001011999IA1319KA1999N-00281MD1810211+9999MW1031
0057029700999991952021612004+60117+019900FM-12+000399999V0202001N01031007801CN0008001N9+00001+00001100861ADDAY171999GF108991071071008001021999MD1810071+9999MW1741
0074029700999991952021618004+60117+019900FM-12+000399999V0202001N009319999999N0008001N9+00001+00001100881ADDAA199001091AY171999GF108991071071999999999999IA1209MD1510031+9999MW1741
0057029700999991952021700004+60117+019900FM-12+000399999V0202001N00411004501CN0140001N9+00001+00001100791ADDAY171999GF108991071071004501011999MD1810031+9999MW1021
0087029700999991952021706004+60117+019900FM-12+000399999V0203201N00411004501CN0160001N9-00111-00111100851ADDAA199004091AY171999GF108991071071004501011999IA1209KA1999N-00111MD1510171+9999MW1021
0057029700999991952021712004+60117+019900FM-12+000399999V0202501N00051220001CN0200001N9-00111-00221101191ADDAY111999GF103991001001999999041021MD1310161+9999MW1011
0095029700999991952021718004+60117+019900FM-12+000399999V0209991C00001220001CN0160001N9-00891-01111101451ADDAY111999GF102991999001999999041001IA1319KA1999M+00001MD1310131+9999MW1011EQDQ01+000002SCOTLC
0057029700999991952021800004+60117+019900FM-12+000399999V0202501N00101220001CN0160001N9-00501-00611101551ADDAY111999GF108991001001999999011999MD1110031+9999MW1031
0076029700999991952021806004+60117+019900FM-12+000399999V0209991C00001220001CN0004001N9-01111-01111101651ADDAY141999GF108991001001999999011999IA1089KA1999N-01221MD1990091+9999MW1461
0043029700999991952021812004+60117+019900FM-12+000399999V0209991C00001012301CN0140001N9-00111-00281101691ADDAY111999GF106991061081012501999999MW1031
0095029700999991952021818004+60117+019900FM-12+000399999V0209991C00001012301CN0160001N9-00391-00501101581ADDAY111999GF108991999081012501011999IA1319KA1999M-00111MD1810081+9999MW1011EQDQ01+000082SCOTLC
0076029700999991952021906004+60117+019900FM-12+000399999V0201801N00211220001CN0200001N9-00391-00501100841ADDAY121999GF108991001001999999001061IA1319KA1999N-00391MD1810161+9999MW1021
0057029700999991952021912004+60117+019900FM-12+000399999V0202001N00311007801CN0008001N9-00111-00281100801ADDAY171999GF108991071071008001021999MD1990041+9999MW1721
0087029700999991952021918004+60117+019900FM-12+000399999V0209991C00001004501CN0018001N9-00281-00281100881ADDAA199001091AY171999GF108991071071004501021999IA1319KA1999M-00111MD1510131+9999MW1711
0057029700999991952022100004+60117+019900FM-12+000399999V0202001N01031007801CN0160001N9+00111+00111099391ADDAY121999GF108991071071008001011999MD1990431+9999MW1031
0076029700999991952022106004+60117+019900FM-12+000399999V0202701N00621007801CN0160001N9+00111+00111098961ADDAY121999GF108991071071008001011999IA1209KA1999N+00001MD1610121+9999MW1021
0094029700999991952022112004+60117+019900FM-12+000399999V0203201N00721220001CN0200001N9+00221-00221099141ADDAY111999GF101991999001999999041001MW1011EQDQ01+000002SCOTLCQ02+000042APCTENQ03+000172APC3  
0106029700999991952022118004+60117+019900FM-12+000399999V0203201N00621220001CN0200001N9+00111-00501099391ADDAA199000391AY101999GF101991999001999999041001IA1209KA1999M+00221MD1110091+9999MW1021EQDQ01+000002SCOTLC
0113029700999991952022206004+60117+019900FM-12+000399999V0209991C00001220001CN0200001N9-00281-00281099681ADDAY101999GF101991999001999999041001IA1209KA1999N-00611MW1021EQDQ01+000002SCOTLCQ02+000042APCTENQ03+000202APC3  
0076029700999991952022218004+60117+019900FM-12+000399999V0209991C00001012301CN0200001N9-00281-00391100341ADDAY121999GF108991081051012501999999IA1209KA1999M+00221MD1310131+9999MW1011
0087029700999991952022306004+60117+019900FM-12+000399999V0201601N00311004501CN0004001N9-00221-00221100191ADDAA199001091AY171999GF108991071071004501021999IA1209KA1999N-00721MD1810071+9999MW1731
0057029700999991952022312004+60117+019900FM-12+000399999V0201101N00311004501CN0004001N9-00221-00221100341ADDAY171999GF108991071071004501021999MD1510161+9999MW1751
0106029700999991952022318004+60117+019900FM-12+000399999V0209991C00001220001CN0200001N9-00111-00611101141ADDAA199006091AY111999GF101991999001999999041001IA1199KA1999M-00111MD1310421+9999MW1011EQDQ01+000002SCOTLC
0057029700999991952022400004+60117+019900FM-12+000399999V0209991C00001220001CN0160001N9-01001-01001101541ADDAY111999GF108991001001999999011999MD1310211+9999MW1021
0076029700999991952022406004+60117+019900FM-12+000399999V0209991C00001012301CN0140001N9-00611-00721101941ADDAY121999GF108991081051012501999999IA1319KA1999N-01111MD1110161+9999MW1051
0057029700999991952022412004+60117+019900FM-12+000399999V0209991C00001012301CN0140001N9+00001-00221102221ADDAY121999GF107991071081012501999999MD1110121+9999MW1051
0097029700999991952022418004+60117+019900FM-12+000399999V0209991C00001220001CN0140001N9-00721-00721102491ADDAY121999GF108991001001999999031999IA1319KA1999M+00111MW1021EQDQ01+000042APCTENQ02+000172APC3  
0057029700999991952022500004+60117+019900FM-12+000399999V0209991C00001220001CN0140001N9-00501-00501102661ADDAY121999GF108991001001999999031999MD1110051+9999MW1021
0076029700999991952022506004+60117+019900FM-12+000399999V0209991C00001012301CN0024001N9-00281-00391102741ADDAY121999GF108991081051012501999999IA1319KA1999N-00781MD1310031+9999MW1101
0057029700999991952022512004+60117+019900FM-12+000399999V0201801N00051012301CN0200001N9+00111-00221102711ADDAY111999GF107991071081012501001001MD1990031+9999MW1021
0076029700999991952022518004+60117+019900FM-12+000399999V0209991C00001007801CN0200001N9-00281-00281102511ADDAY121999GF108991081051008001999999IA1319KA1999M+00221MD1810131+9999MW1021
0057029700999991952022600004+60117+019900FM-12+000399999V0201601N00211007801CN0160001N9-00111-00221102191ADDAY121999GF108991081051008001999999MD1810201+9999MW1021
0087029700999991952022606004+60117+019900FM-12+000399999V0209991C00001001501CN0004001N9+00001+00001101801ADDAA199000591AY151999GF108991081061001501999999IA1209KA1999N-00391MD1810231+9999MW1471
0057029700999991952022612004+60117+019900FM-12+000399999V0203401N00211004501CN0044001N9+00281+00281101651ADDAY151999GF108991071071004501021999MD1610051+9999MW1511
0087029700999991952022618004+60117+019900FM-12+000399999V0200201N00101004501CN0034001N9+00221+00111101721ADDAA199002091AY151999GF108991071071004501021999IA1209KA1999M+00281MD1510081+9999MW1511
0087029700999991952022706004+60117+019900FM-12+000399999V0201601N00211004501CN0006001N9-00111-00111102181ADDAA199000391AY151999GF108991071071004501021999IA1209KA1999N-00111MD1110081+9999MW1511
0057029700999991952022712004+60117+019900FM-12+000399999V0201601N00411004501CN0018001N9-00111-00721102241ADDAY171999GF108991071071004501021999MD1010011+9999MW1711
0108029700999991952022718004+60117+019900FM-12+000399999V0202601N00311004501CN0004001N9-00221-00221102181ADDAA199001091AY181999GF108991071071004501021999IA1209KA1999M+00001MW1691EQDQ01+000062APCTENQ02+000002APC3  
0087029700999991952022806004+60117+019900FM-12+000399999V0202001N00211004501CN0018001N9-00221-00221101971ADDAA199005091AY171999GF108991071071004501021999IA1319KA1999N-00281MD1610051+9999MW1711
0057029700999991952022812004+60117+019900FM-12+000399999V0202001N00211001501CN0004001N9+00001+00001101821ADDAY151999GF108991081061001501999999MD1990121+9999MW1461
0087029700999991952022818004+60117+019900FM-12+000399999V0202901N00211220001CN0140001N9+00001-00111101741ADDAA199001091AY121999GF108991001001999999011999IA1209KA1999M+00111MD1510031+9999MW1001
0057029700999991952022900004+60117+019900FM-12+000399999V0202901N00101007801CN0140001N9+99999+99999101611ADDAY121999GF108991061021008001999999MD1810071+9999MW1021
0076029700999991952022906004+60117+019900FM-12+000399999V0209991C00001220001CN0140001N9-00781-00891101351ADDAY111999GF104991001001999999041021IA1209KA1999N-00781MD1710121+9999MW1401
0057029700999991952022912004+60117+019900FM-12+000399999V0201601N00211220001CN0200001N9+00001-00111101001ADDAY121999GF108991001001999999011999MD1990231+9999MW1021
0087029700999991952022918004+60117+019900FM-12+000399999V0201601N00211004501CN0002001N9+00001-00891100541ADDAA199004091AY171999GF108991071071004501021999IA1319KA1999M+00001MD1810211+9999MW1731
0079029700999991952030106004+60117+019900FM-12+000399999V0203401N00411030001CN0200001N9-00391-00721100381ADDAA199001091GF105991021021012501061001IA1319KA1999N-00391MD1310081+9999MW1211
0057029700999991952030112004+60117+019900FM-12+000399999V0203401N00511030001CN0200001N9-00281-00501100481ADDAY111999GF106991021021008001061001MD1310071+9999MW1031
0087029700999991952030118004+60117+019900FM-12+000399999V0209991C00001220001CN0200001N9-00611-00721100851ADDAA199001091AY111999GF101991011011012501001001IA1319KA1999M+00001MD1310171+9999MW1011
0076029700999991952030200004+60117+019900FM-12+000399999V0209991C00001220001CN0200001N9-00891-01001100991ADDAY101999GF101991999001999999041001MD1110041+9999MW1021EQDQ01+000002SCOTLC
0095029700999991952030206004+60117+019900FM-12+000399999V0203601N00621220001CN0200001N9-00611-00781101081ADDAY111999GF106991999001999999061001IA1319KA1999N-01391MD1310041+9999MW1031EQDQ01+000002SCOTLC
0097029700999991952030218004+60117+019900FM-12+000399999V0203601N00511220001CN0140001N9-00391-00721101081ADDAY121999GF108991001001999999061999IA1009KA1999M-00281MW1011EQDQ01+000032APCTENQ02+000002APC3  
0057029700999991952030300004+60117+019900FM-12+000399999V0209991C00001220001CN0160001N9-00501-00721101061ADDAY121999GF108991001001999999011999MD1710011+9999MW1021
0076029700999991952030306004+60117+019900FM-12+000399999V0201101N00211220001CN0060001N9-00721-00781101221ADDAY121999GF108991001001999999051999IA1319KA1999N-00721MD1310091+9999MW1051
0057029700999991952030312004+60117+019900FM-12+000399999V0201601N00411220001CN0140001N9-00221-00611101421ADDAY121999GF108991001001999999011999MD1110071+9999MW1021
0108029700999991952030318004+60117+019900FM-12+000399999V0201601N00721220001CN0140001N9-00221-00611101711ADDAA199000691AY121999GF108991001001999999011999IA1319KA1999M-00221MW1021EQDQ01+000042APCTENQ02+000212APC3  
0097029700999991952030406004+60117+019900FM-12+000399999V0201601N00931007801CN0140001N9-00221-00281102411ADDAY121999GF108991051071008001999999IA1319KA1999N-00281MW1021EQDQ01+000042APCTENQ02+000232APC3  
0057029700999991952030412004+60117+019900FM-12+000399999V0201801N01031220001CN0034001N9+00001-00221102811ADDAY121999GF104991001001999999041011MD1110131+9999MW1051
0095029700999991952030418004+60117+019900FM-12+000399999V0201601N00101220001CN0034001N9-00501-00501102921ADDAY111999GF102991999001999999041001IA1319KA1999M+00001MD1310081+9999MW1051EQDQ01+000002SCOTLC
0076029700999991952030506004+60117+019900FM-12+000399999V0201101N00101075001CN0140001N9-01111-01221103011ADDAY111999GF107991011011008001001071IA1319KA1999N-01221MD1310041+9999MW1021
0057029700999991952030512004+60117+019900FM-12+000399999V0201901N00311012301CN0200001N9-00111-00111103061ADDAY121999GF108991081051012501999999MD1110011+9999MW1021
0095029700999991952030518004+60117+019900FM-12+000399999V0201101N00101220001CN0200001N9-00391-00391103111ADDAY101999GF101991999001999999041001IA1319KA1999M+00001MD1510071+9999MW1021EQDQ01+000002SCOTLC
0076029700999991952030600004+60117+019900FM-12+000399999V0209991C00001220001CN0140001N9-01111-01281103191ADDAY101999GF102991999001999999041001MD1310051+9999MW1021EQDQ01+000002SCOTLC
0076029700999991952030606004+60117+019900FM-12+000399999V0209991C00001220001CN0160001N9-01501-01721103291ADDAY101999GF101991001001999999001061IA1319KA1999N-01501MD1310081+9999MW1021
0057029700999991952030612004+60117+019900FM-12+000399999V0202001N00411220001CN0600001N9+00111-00281103541ADDAY111999GF102991001001999999041021MD1310131+9999MW1021
0097029700999991952030618004+60117+019900FM-12+000399999V0202001N00311220001CN0200001N9-00221-00281103571ADDAY111999GF104991021021008001001021IA1319KA1999M+00111MW1031EQDQ01+000042APCTENQ02+000032APC3  
0057029700999991952030700004+60117+019900FM-12+000399999V0202501N00411220001CN0200001N9-00221-00391103561ADDAY111999GF104991001001999999041081MD1310041+9999MW1021
0076029700999991952030706004+60117+019900FM-12+000399999V0202501N00511220001CN0200001N9-00221-00501103691ADDAY111999GF105991011011012501001041IA1319KA1999N-00391MD1510051+9999MW1011
0057029700999991952030712004+60117+019900FM-12+000399999V0202001N00511220001CN0400001N9+00001-00391103811ADDAY101999GF100991001001999999001001MD1110041+9999MW1021
0076029700999991952030718004+60117+019900FM-12+000399999V0202001N00411220001CN0200001N9-00221-00221103721ADDAY101999GF101991001001999999001061IA1319KA1999M+00001MD1610031+9999MW1021
0076029700999991952030806004+60117+019900FM-12+000399999V0202301N00511220001CN0400001N9-00221-00221103511ADDAY101999GF100991001001999999001001IA1319KA1999N-00391MD1990081+9999MW1021
0057029700999991952030812004+60117+019900FM-12+000399999V0202001N00511220001CN0400001N9+00111+00111103251ADDAY101999GF101991011011012501001001MD1990191+9999MW1021
0076029700999991952030818004+60117+019900FM-12+000399999V0202001N00821220001CN0400001N9+00001-00221102861ADDAY101999GF100991001001999999001001IA1319KA1999M+00111MD1810191+9999MW1021
0057029700999991952030900004+60117+019900FM-12+000399999V0202301N00821220001CN0400001N9-00111-00281102491ADDAY101999GF100991001001999999001001MD1810171+9999MW1021
0076029700999991952030906004+60117+019900FM-12+000399999V0202501N00821220001CN0400001N9-00221-00391102151ADDAY101999GF100991001001999999001001IA1319KA1999N-00281MD1610161+9999MW1021
0078029700999991952030912004+60117+019900FM-12+000399999V0202501N00821012301CN0160001N9+00001-00111101941ADDAY111999GF107991071081012501999999MW1031EQDQ01+000062APCTENQ02+000002APC3  
0076029700999991952030918004+60117+019900FM-12+000399999V0202501N00311030001CN0200001N9+00001-00391101741ADDAY121999GF107991011011008001051001IA1319KA1999M+00111MD1810081+9999MW1021
0076029700999991952031000004+60117+019900FM-12+000399999V0202501N00051220001CN0200001N9-00111-00281101601ADDAY101999GF101991999001999999041001MD1810091+9999MW1021EQDQ01+000002SCOTLC
0076029700999991952031006004+60117+019900FM-12+000399999V0202501N00211220001CN0160001N9-00221-00221101441ADDAY111999GF108991001001999999001071IA1319KA1999N-00281MD1810081+9999MW1021
0057029700999991952031012004+60117+019900FM-12+000399999V0202501N00311220001CN0034001N9+00111+00001101351ADDAY121999GF108991001001999999011999MD1610031+9999MW1051
0095029700999991952031018004+60117+019900FM-12+000399999V0202301N00101220001CN0160001N9+00001-00221101141ADDAY111999GF102991999001999999041001IA1209KA1999M+00221MD1610071+9999MW1011EQDQ01+000002SCOTLC
0095029700999991952031106004+60117+019900FM-12+000399999V0202301N00311220001CN0090001N9+00001-00281100581ADDAY111999GF107991999001999999041001IA1209KA1999N-00391MD1810161+9999MW1051EQDQ01+000002SCOTLC
0057029700999991952031112004+60117+019900FM-12+000399999V0202501N00511007801CN0050001N9+00221+00001100341ADDAY171999GF108991061071008001011999MD1990151+9999MW1051
0087029700999991952031118004+60117+019900FM-12+000399999V0202501N00211007801CN0050001N9+00111-00111100151ADDAA199000691AY121999GF108991061071008001011999IA1209KA1999M+00221MD1610041+9999MW1051
0057029700999991952031200004+60117+019900FM-12+000399999V0202501N00101220001CN0050001N9-00111-00111100081ADDAY111999GF101991001001999999011999MD1810081+9999MW1051
0076029700999991952031206004+60117+019900FM-12+000399999V0203401N00821220001CN0200001N9+00111-00111100081ADDAY121999GF108991001001999999011999IA1209KA1999N-00111MD1510081+9999MW1021
0087029700999991952031218004+60117+019900FM-12+000399999V0202901N00311030001CN0160001N9+00111+00001099941ADDAA199000591AY111999GF108991021071008001011999IA1209KA1999M+00221MD1990191+9999MW1031
0057029700999991952031312004+60117+019900FM-12+000399999V0200201N01031012301CN0160001N9-00281-00781100421ADDAY181999GF108991061031012501011999MD1310241+9999MW1281
0076029700999991952031406004+60117+019900FM-12+000399999V0209991C00001220001CN0400001N9-00781-00891101911ADDAY111999GF104991001001999999041021IA1209KA1999N-00781MD1310071+9999MW1011
0057029700999991952031412004+60117+019900FM-12+000399999V0202901N00511220001CN0400001N9-00111-00501101711ADDAY111999GF104991001001999999041021MD1990201+9999MW1011
0087029700999991952031418004+60117+019900FM-12+000399999V0202501N00621004501CN0008001N9-00111-00111100921ADDAA199000591AY171999GF108991071071004501021999IA1209KA1999M-00111MD1810471+9999MW1731
0057029700999991952031500004+60117+019900FM-12+000399999V0202501N00721007801CN0140001N9-00111-00111100511ADDAY171999GF108991061071008001011999MD1610111+9999MW1021
0108029700999991952031506004+60117+019900FM-12+000399999V0203401N00101007801CN0018001N9+00111+00001100461ADDAA199001091AY181999GF108991071071008001021999IA1209KA1999N+00111MW1511EQDQ01+000062APCTENQ02+000002APC3  
0057029700999991952031512004+60117+019900FM-12+000399999V0203401N00311220001CN0200001N9+00281-00111100511ADDAY121999GF108991001001999999011999MD1010031+9999MW1021
0087029700999991952031518004+60117+019900FM-12+000399999V0200201N00211220001CN0200001N9+00111+00001100351ADDAA199000391AY121999GF108991001001999999071999IA1209KA1999M+00281MD1990121+9999MW1021
0097029700999991952031606004+60117+019900FM-12+000399999V0202901N00621220001CN0200001N9+00221+00221099801ADDAY121999GF107991001001999999031999IA1209KA1999N+00001MW1021EQDQ01+000062APCTENQ02+000002APC3  
0078029700999991952031612004+60117+019900FM-12+000399999V0203401N00821030001CN0200001N9-00111-00281100151ADDAY111999GF107991021011012501041021MW1031EQDQ01+000042APCTENQ02+000232APC3  
0082029700999991952031618004+60117+019900FM-12+000399999V0203401N00821004501CN0014001N9+00221-00501999999ADDAY131999GF107991061071004501031031IA1009MD1010031+9999MW1251EQDQ01+095353APOSLP
0057029700999991952031700004+60117+019900FM-12+000399999V0203401N00621220001CN0160001N9-00501-00721101211ADDAY121999GF108991001001999999011999MD1110191+9999MW1021
0076029700999991952031706004+60117+019900FM-12+000399999V0200701N00311220001CN0200001N9-00611-00891101641ADDAY121999GF108991001001999999071999IA1209KA1999N-00611MD1310211+9999MW1021
0057029700999991952031712004+60117+019900FM-12+000399999V0202501N00311220001CN0200001N9-00221-00391102001ADDAY101999GF102991001001999999041041MD1310171+9999MW1011
0113029700999991952031718004+60117+019900FM-12+000399999V0201601N00211220001CN0400001N9-00721-01001102241ADDAY101999GF103991999001999999041001IA1209KA1999M-00111MW1021EQDQ01+000002SCOTLCQ02+000042APCTENQ03+000192APC3  
0076029700999991952031800004+60117+019900FM-12+000399999V0202001N00101220001CN0160001N9-01281-01391102481ADDAY101999GF101991999001999999041001MD1110091+9999MW1021EQDQ01+000002SCOTLC
0097029700999991952031806004+60117+019900FM-12+000399999V0201401N00211220001CN0160001N9-00721-00891102661ADDAY111999GF107991001001999999011999IA1209KA1999N-01721MW1021EQDQ01+000042APCTENQ02+000132APC3  
0057029700999991952031812004+60117+019900FM-12+000399999V0202001N00411007801CN0018001N9-00221-00501102811ADDAY171999GF108991071071008001021999MD1110041+9999MW1731
0106029700999991952031818004+60117+019900FM-12+000399999V0209991C00001220001CN0160001N9+99999+99999102801ADDAA199000591AY111999GF103991999001999999061001IA1209KA1999M-00111MD1510041+9999MW1121EQDQ01+000002SCOTLC
0057029700999991952031900004+60117+019900FM-12+000399999V0209991C00001220001CN0160001N9-00721-00781102791ADDAY101999GF104991041081012501001001MD1990041+9999MW1021
0095029700999991952031906004+60117+019900FM-12+000399999V0200501N00211220001CN0160001N9-01001-01281102851ADDAY111999GF102991999001999999041001IA1209KA1999N-01281MD1310031+9999MW1011EQDQ01+000002SCOTLC
0057029700999991952031912004+60117+019900FM-12+000399999V0200701N00211220001CN0200001N9-00391-00781102841ADDAY101999GF101991011011012501001001MD1010071+9999MW1011
0095029700999991952031918004+60117+019900FM-12+000399999V0200201N00311220001CN0200001N9-01001-01281102621ADDAY101999GF101991999001999999041001IA1209KA1999M-00281MD1610081+9999MW1021EQDQ01+000002SCOTLC
0063029700999991952032006004+60117+019900FM-12+000399999V0209991C00001220001CN0400001N9-01891-02111102011ADDAY101999GF100991001001999999001001IA1309MD1810201+9999MW1021
0057029700999991952032012004+60117+019900FM-12+000399999V0200601N00211220001CN0160001N9-00501-01111101251ADDAY101999GF101991011011012501001021MD1990231+9999MW1021
0095029700999991952032018004+60117+019900FM-12+000399999V0200201N00211220001CN0160001N9-00721-01001101291ADDAY101999GF101991999001999999041001IA1209KA1999M-00391MD1610071+9999MW1021EQDQ01+000002SCOTLC
0076029700999991952032100004+60117+019900FM-12+000399999V0209991C00001220001CN0160001N9-01001-01391101201ADDAY101999GF101991999001999999041001MD1610041+9999MW1021EQDQ01+000002SCOTLC
0097029700999991952032106004+60117+019900FM-12+000399999V0200701N00211220001CN0160001N9-01001-01221101191ADDAY111999GF105991001001999999041021IA1209KA1999N-01111MW1031EQDQ01+000062APCTENQ02+000002APC3  
0113029700999991952032118004+60117+019900FM-12+000399999V0209991C00001220001CN0200001N9-01111-01391101721ADDAY101999GF102991999001999999041001IA1209KA1999M-00501MW1021EQDQ01+000002SCOTLCQ02+000042APCTENQ03+000202APC3  
0076029700999991952032206004+60117+019900FM-12+000399999V0200201N00211220001CN0160001N9-01891-02111101651ADDAY101999GF103991001001999999001061IA1209KA1999N-02501MD1990201+9999MW1031
0057029700999991952032212004+60117+019900FM-12+000399999V0200901N00211220001CN0160001N9-00501-01111101251ADDAY101999GF101991011011012501001021MD1990231+9999MW1021
0076029700999991952032218004+60117+019900FM-12+000399999V0209991C00001220001CN0160001N9-01111-01281100891ADDAY111999GF103991001001999999001061IA1209KA1999M-00501MD1610131+9999MW1021
0057029700999991952032300004+60117+019900FM-12+000399999V0209991C00001220001CN0160001N9-01611-01721100711ADDAY101999GF100991001001999999001001MD1990121+9999MW1021
0076029700999991952032306004+60117+019900FM-12+000399999V0200201N00211220001CN0034001N9-01721-01891100711ADDAY101999GF102991001001999999001061IA1209KA1999N-01891MD1510031+9999MW1051
0057029700999991952032312004+60117+019900FM-12+000399999V0202901N00211220001CN0160001N9-00611-01221100691ADDAY111999GF103991031021012501001001MD1010031+9999MW1031
0087029700999991952032318004+60117+019900FM-12+000399999V0202301N00211007801CN0012001N9-00781-00781100641ADDAA199000691AY171999GF108991071071008001021999IA1209KA1999M-00501MD1610011+9999MW1701
0078029700999991952032400004+60117+019900FM-12+000399999V0202901N00101007801CN0140001N9-01221-01281100551ADDAY171999GF108991071071008001011999MW1021EQDQ01+000062APCTENQ02+000002APC3  
0087029700999991952032406004+60117+019900FM-12+000399999V0200701N00311007801CN0018001N9-01111-01221100541ADDAA199000591AY171999GF108991071071008001021999IA1309KA1999N-01391MD1510041+9999MW1711
0087029700999991952032418004+60117+019900FM-12+000399999V0200501N00311220001CN0140001N9-01001-01221100981ADDAA199000391AY121999GF108991001001999999011999IA1209KA1999M-00611MD1610131+9999MW1021
0076029700999991952032500004+60117+019900FM-12+000399999V0209991C00001220001CN0200001N9-01611-01781101021ADDAY111999GF101991999001999999041001MD1310091+9999MW1011EQDQ01+000002SCOTLC
0087029700999991952032506004+60117+019900FM-12+000399999V0200501N00311007801CN0018001N9-01001-01111100851ADDAA199000391AY171999GF108991071071008001021999IA1209KA1999N-02001MD1810081+9999MW1701
0057029700999991952032512004+60117+019900FM-12+000399999V0200501N00721030001CN0160001N9-00781-01111100811ADDAY171999GF105991031021012501041021MD1510011+9999MW1031
0087029700999991952032518004+60117+019900FM-12+000399999V0200501N00211030001CN0160001N9-01001-01391101001ADDAA199000391AY181999GF106991041031008001061001IA1209KA1999M-00781MD1310111+9999MW1011
0074029700999991952032606004+60117+019900FM-12+000399999V0201701N00311007801CN0004001N9-00721-00721100841ADDAA199000691AY171999GF108991071071008001021999IA1209MD1990211+9999MW1741
0057029700999991952032612004+60117+019900FM-12+000399999V0203401N00621075001CN0040001N9-00781-01111101191ADDAY131999GF105991021021008001061021MD1510281+9999MW1031
0106029700999991952032618004+60117+019900FM-12+000399999V0203601N00311220001CN0040001N9-01111-01221101281ADDAA199000391AY171999GF102991999001999999999001IA1209KA1999M-00611MD1110031+9999MW1011EQDQ01+000002SCOTLC
0087029700999991952032706004+60117+019900FM-12+000399999V0209991C00001220001CN0200001N9-02001+99999101321ADDAA199000691AY121999GF199999001001999999011999IA1209KA1999N-02221MD1010031+9999MW1021
0057029700999991952032712004+60117+019900FM-12+000399999V0203601N00311007801CN0018001N9-00501-00891101361ADDAY171999GF108991071071008001021999MD1310031+9999MW1701
0108029700999991952032718004+60117+019900FM-12+000399999V0203601N00311007801CN0024001N9-00721-00781101511ADDAA199000391AY181999GF108991051031008001061021IA1209KA1999M-00391MW1851EQDQ01+000042APCTENQ02+000122APC3  
0078029700999991952032800004+60117+019900FM-12+000399999V0209991C00001220001CN0160001N9-01281-01391101591ADDAY181999GF108991001001999999011999MW1021EQDQ01+000012APCTENQ02+000002APC3  
0087029700999991952032806004+60117+019900FM-12+000399999V0200201N00211220001CN0140001N9-01221-01391101451ADDAA199000391AY181999GF108991001001999999011999IA1209KA1999N-01611MD1810051+9999MW1021
0057029700999991952032812004+60117+019900FM-12+000399999V0200201N00411004501CN0050001N9-00501-00891101381ADDAY181999GF108991061031004501011999MD1990071+9999MW1851
0087029700999991952032818004+60117+019900FM-12+000399999V0200201N00311004501CN0140001N9-00611-00781101151ADDAA199001091AY181999GF108991071071004501011999IA1319KA1999M-00391MD1610051+9999MW1021
0057029700999991952032900004+60117+019900FM-12+000399999V0200201N00101220001CN0140001N9-01001-01001101181ADDAY121999GF108991001001999999011999MD1510041+9999MW1021
0087029700999991952032906004+60117+019900FM-12+000399999V0209991C00001220001CN0140001N9-01501-01721101121ADDAA199000591AY171999GF108991001001999999011999IA1319KA1999N-01781MD1610011+9999MW1021
0057029700999991952032912004+60117+019900FM-12+000399999V0202901N00101030001CN0004001N9-00391-00721101041ADDAY181999GF108991031031008001011999MD1990071+9999MW1851
0106029700999991952032918004+60117+019900FM-12+000399999V0209991C00001220001CN0140001N9-00891-01001100921ADDAA199000691AY111999GF101991999001999999041001IA1319KA1999M-00281MD1610031+9999MW1121EQDQ01+000002SCOTLC
0057029700999991952033000004+60117+019900FM-12+000399999V0209991C00001220001CN0200001N9-01781-02001100841ADDAY101999GF100991001001999999001001MD1810041+9999MW1021
0076029700999991952033006004+60117+019900FM-12+000399999V0209991C00001220001CN0200001N9-01611-01781100741ADDAY111999GF104991041081012501001001IA1319KA1999N-02001MD1610041+9999MW1031
0076029700999991952033012004+60117+019900FM-12+000399999V0201001N00311220001CN0200001N9+00112-00111100741ADDAY111999GF102991999001999999041001MD1010011+9999MW1021EQDQ01+000002SCOTLC
0097029700999991952033018004+60117+019900FM-12+000399999V0202001N00311220001CN0200001N9-00221-00501100661ADDAY111999GF108991001001999999001071IA1319KA1999M+00221MW1021EQDQ01+000062APCTENQ02+000002APC3  
0043029700999991952033112004+60117+019900FM-12+000399999V0202001N00621220001CN0160001N9+00001-00111100721ADDAY111999GF104991001001999999041999MW1011
0076029700999991952033118004+60117+019900FM-12+000399999V0202001N00311220001CN0160001N9-00221-00501100641ADDAY121999GF108991001001999999011999IA1319KA1999M+00001MD1810051+9999MW1021
0057029700999991952040100004+60117+019900FM-12+000399999V0202001N00101220001CN0160001N9-00281-00391100511ADDAY121999GF108991001001999999011999MD1990111+9999MW1021
0087029700999991952040106004+60117+019900FM-12+000399999V0201101N00211007801CN0018001N9-00281-00391100161ADDAA199000691AY171999GF108991071071008001021999IA1309KA1999N-00391MD1990171+9999MW1701
0057029700999991952040112004+60117+019900FM-12+000399999V0200901N00411007801CN0008001N9-00221-00281099621ADDAY171999GF108991071071008001021999MD1990331+9999MW1731
0087029700999991952040118004+60117+019900FM-12+000399999V0200701N00721007801CN0004001N9-00501-00501098841ADDAA199010091AY171999GF108991071071008001021999IA1319KA1999M-00221MD1610241+9999MW1751
0108029700999991952040206004+60117+019900FM-12+000399999V0203601N00621004501CN0004001N9-00281-00281098461ADDAA199004091AY171999GF108991071071004501021999IA1319KA1999N-00721MW1731EQDQ01+000042APCTENQ02+000092APC3  
0057029700999991952040212004+60117+019900FM-12+000399999V0203401N00931004501CN0004001N9-00281-00501099041ADDAY171999GF108991071071004501021999MD1310361+9999MW1731
0087029700999991952040218004+60117+019900FM-12+000399999V0203401N00311004501CN0160001N9-00281-00501099601ADDAA199001091AY171999GF108991051071004501011999IA1319KA1999M-00221MD1110231+9999MW1021
0076029700999991952040306004+60117+019900FM-12+000399999V0203201N00411220001CN0400001N9-00221-00221999999ADDAY111999GF104991031011012501001021IA1319KA1999N-00721MD1310201+9999MW1011
0057029700999991952040312004+60117+019900FM-12+000399999V0203201N00511220001CN0400001N9+00111+00111100281ADDAY111999GF102991011011012501001021MD1110131+9999MW1011
0097029700999991952040318004+60117+019900FM-12+000399999V0202901N00211220001CN0400001N9-00111-00111100451ADDAY111999GF103991001001999999041999IA1109KA1999M+00281MW1031EQDQ01+000042APCTENQ02+000122APC3  
0076029700999991952040400004+60117+019900FM-12+000399999V0209991C00001220001CN0200001N9-00281-00611100751ADDAY101999GF102991999001999999041001MD1310131+9999MW1021EQDQ01+000002SCOTLC
0095029700999991952040406004+60117+019900FM-12+000399999V0203401N00211220001CN0400001N9-00221-00221101221ADDAY101999GF101991999001999999041001IA1319KA1999N-00721MD1310231+9999MW1011EQDQ01+000002SCOTLC
0057029700999991952040412004+60117+019900FM-12+000399999V0202701N00211220001CN0400001N9+00281+00281101521ADDAY101999GF100991001001999999001001MD1310121+9999MW1021
0095029700999991952040418004+60117+019900FM-12+000399999V0202301N00311220001CN0400001N9+00001-00281101481ADDAY101999GF101991999001999999041001IA1319KA1999M+00391MD1510031+9999MW1011EQDQ01+000002SCOTLC
0057029700999991952040500004+60117+019900FM-12+000399999V0202501N00311220001CN0200001N9+00111+00111999999ADDAY101999GF100991001001999999001001MD1810031+9999MW1011
0095029700999991952040506004+60117+019900FM-12+000399999V0202501N00101220001CN0400001N9+00111+00111101261ADDAY101999GF102991999001999999041001IA1319KA1999N-00221MD1810051+9999MW1021EQDQ01+000002SCOTLC
0057029700999991952040512004+60117+019900FM-12+000399999V0202301N00211220001CN0400001N9+00501+00001101291ADDAY101999GF101991001001999999001021MD1010031+9999MW1011
0095029700999991952040518004+60117+019900FM-12+000399999V0202001N00101220001CN0400001N9+00111-00111101281ADDAY101999GF102991999001999999041001IA1319KA1999M+00501MD1510031+9999MW1021EQDQ01+000002SCOTLC
0076029700999991952040600004+60117+019900FM-12+000399999V0202901N00211220001CN0160001N9-00111-00111101361ADDAY101999GF102991999001999999041001MD1310041+9999MW1021EQDQ01+000002SCOTLC
0076029700999991952040606004+60117+019900FM-12+000399999V0201801N00101220001CN0004001N9-00501-00501101461ADDAY141999GF101991001001999999001011IA1209KA1999N-00611MD1310071+9999MW1421
0057029700999991952040612004+60117+019900FM-12+000399999V0202301N00211220001CN0034001N9+00611+00221101601ADDAY101999GF101991001001999999001061MD1310071+9999MW1051
0076029700999991952040618004+60117+019900FM-12+000399999V0201601N00101220001CN0018001N9+00001+00001101641ADDAY101999GF101991001001999999001061IA1209KA1999M+00721MD1310031+9999MW1051
0076029700999991952040706004+60117+019900FM-12+000399999V0202001N00511220001CN0160001N9+99999+99999101891ADDAY101999GF103991001001999999001061IA1209KA1999N-00221MD1110011+9999MW1021
0057029700999991952040712004+60117+019900FM-12+000399999V0201801N00721220001CN0200001N9+00391+00001101851ADDAY101999GF102991001001999999041041MD1010081+9999MW1021
0076029700999991952040718004+60117+019900FM-12+000399999V0201801N00931220001CN0160001N9+00221+00111101591ADDAY111999GF106991001001999999001051IA1209KA1999M+00611MD1990201+9999MW1031
0057029700999991952040800004+60117+019900FM-12+000399999V0201801N01231030001CN0140001N9+00281+00111100961ADDAY121999GF108991041071008001011999MD1810331+9999MW1031
0087029700999991952040806004+60117+019900FM-12+000399999V0202001N01031004501CN0140001N9+00281+00281100801ADDAA199005091AY161999GF108991071071004501011999IA1199KA1999N+00111MD1510041+9999MW1021
0076029700999991952040812004+60117+019900FM-12+000399999V0202301N01031024001CN0200001N9+00501+00501101351ADDAY111999GF108991001001999999001061MD1310241+9999MW1011EQDQ01+000082SCOTLC
0076029700999991952040818004+60117+019900FM-12+000399999V0209991C00001220001CN0200001N9+00221+00001101571ADDAY111999GF108991001001999999011999IA1199KA1999M+00611MD1110081+9999MW1021
0076029700999991952040900004+60117+019900FM-12+000399999V0209991C00001220001CN0160001N9+00221+00001101651ADDAY101999GF101991999001999999041001MD1110031+9999MW1011EQDQ01+000002SCOTLC
0097029700999991952040906004+60117+019900FM-12+000399999V0202501N00211220001CN0200001N9+00221+00221101761ADDAY101999GF101991011011012501001001IA1199KA1999N+00111MW1011EQDQ01+000042APCTENQ02+000092APC3  
0057029700999991952040912004+60117+019900FM-12+000399999V0203401N00211220001CN0400001N9+00721+00501102021ADDAY101999GF100991001001999999001001MD1110091+9999MW1021
0076029700999991952040918004+60117+019900FM-12+000399999V0209991C00001220001CN0400001N9+00281+00001102241ADDAY111999GF102991001001999999041041IA1199KA1999M+00781MD1110061+9999MW1021
0076029700999991952041000004+60117+019900FM-12+000399999V0201601N00101220001CN0200001N9-00281-00281102381ADDAY111999GF104991999001999999051001MD1310051+9999MW1031EQDQ01+000002SCOTLC
0076029700999991952041006004+60117+019900FM-12+000399999V0209991C00001220001CN0160001N9+00001+00001102441ADDAY101999GF101991001001999999001061IA1199KA1999N-00391MD1310031+9999MW1011
0057029700999991952041012004+60117+019900FM-12+000399999V0202301N00311220001CN0200001N9+00611+00001102541ADDAY101999GF101991001001999999001061MD1110011+9999MW1021
0076029700999991952041018004+60117+019900FM-12+000399999V0202301N00511220001CN0200001N9+00281+00001102421ADDAY111999GF104991001001999999041041IA1199KA1999M+00721MD1610041+9999MW1031
0076029700999991952041100004+60117+019900FM-12+000399999V0202301N00051220001CN0200001N9+00111+00001102521ADDAY101999GF101991999001999999041001MD1310041+9999MW1011EQDQ01+000002SCOTLC
0097029700999991952041106004+60117+019900FM-12+000399999V0202001N00411220001CN0400001N9+00221+00001102561ADDAY101999GF101991001001999999001011IA1199KA1999N+00001MW1021EQDQ01+000042APCTENQ02+000042APC3  
0076029700999991952041118004+60117+019900FM-12+000399999V0202001N00621012301CN0160001N9+00281+00221103341ADDAY121999GF108991051071012501011999IA1199KA1999M+00611MD1810091+9999MW1031
0076029700999991952041200004+60117+019900FM-12+000399999V0202001N00311000601CN0002001N9+00111+00111102142ADDAY141999GF108991081061000751999999MD1990161+9999MW1471EQDQ01+102143APOSLP
0076029700999991952041206004+60117+019900FM-12+000399999V0202001N00411000601CN0002001N9+00111+00111101991ADDAY141999GF108991081061000751999999IA1199KA1999N+00001MD1990121+9999MW1441
0057029700999991952041212004+60117+019900FM-12+000399999V0202301N00311220001CN0004001N9+00221+00221101791ADDAY141999GF108991001001999999011999MD1810111+9999MW1421
0076029700999991952041218004+60117+019900FM-12+000399999V0202001N00211220001CN0160001N9+00281+00281101651ADDAY111999GF108991001001999999071999IA1189KA1999M+00501MD1610011+9999MW1021
0094029700999991952041300004+60117+019900FM-12+000399999V0209991C00001220001CN0140001N9+00281+00281101601ADDAY111999GF102991999001999999041001MW1011EQDQ01+000002SCOTLCQ02+000062APCTENQ03+000002APC3  
0094029700999991952041312004+60117+019900FM-12+000399999V0202501N00311220001CN0400001N9+01281+00781101661ADDAY111999GF101991999001999999041001MW1011EQDQ01+000002SCOTLCQ02+000012APCTENQ03+000002APC3  
0113029700999991952041318004+60117+019900FM-12+000399999V0209991C00001220001CN0200001N9+00501+00221101711ADDAY121999GF105991999081999999041021IA1189KA1999M+01391MW1021EQDQ01+000002SCOTLCQ02+000042APCTENQ03+000042APC3  
0097029700999991952041406004+60117+019900FM-12+000399999V0209991C00001220001CN0400001N9+00611+00111102011ADDAY111999GF105991001001999999041011IA1189KA1999N+00001MW1021EQDQ01+000042APCTENQ02+000112APC3  
0057029700999991952041412004+60117+019900FM-12+000399999V0202301N00051220001CN0400001N9+01391+00781102141ADDAY111999GF103991001001999999001041MD1110011+9999MW1011
0095029700999991952041418004+60117+019900FM-12+000399999V0201601N00211220001CN0200001N9+00281+00221102021ADDAY101999GF101991999001999999041001IA1159KA1999M+01391MD1710071+9999MW1021EQDQ01+000002SCOTLC
0057029700999991952041500004+60117+019900FM-12+000399999V0209991C00001220001CN0200001N9+00221+00221101801ADDAY101999GF100991001001999999001001MD1310111+9999MW1021
0095029700999991952041518004+60117+019900FM-12+000399999V0209991C00001220001CN0200001N9+00721+00501101521ADDAY111999GF105991999001999999061001IA1189KA1999M+01611MD1510051+9999MW1021EQDQ01+000002SCOTLC
0057029700999991952041600004+60117+019900FM-12+000399999V0202801N00361220001CN0160001N9+00501+00001101951ADDAY111999GF108991001001999999999999MD1110121+9999MW1021
0097029700999991952041606004+60117+019900FM-12+000399999V0202901N00511220001CN0200001N9+00281-00501101991ADDAY101999GF101991001001999999001061IA1189KA1999N+00001MW1011EQDQ01+000012APCTENQ02+000002APC3  
0057029700999991952041612004+60117+019900FM-12+000399999V0203401N01231220001CN0400001N9+00891-00611101851ADDAY101999GF101991011011012501001001MD1810051+9999MW1011
0076029700999991952041618004+60117+019900FM-12+000399999V0203401N01341220001CN0400001N9+00611-00611101981ADDAY101999GF101991011011012501001001IA1189KA1999M+00891MD1310081+9999MW1021
0057029700999991952041700004+60117+019900FM-12+000399999V0203401N00621220001CN0200001N9+00501-00111102201ADDAY101999GF101991011011012501001001MD1310121+9999MW1021
0076029700999991952041706004+60117+019900FM-12+000399999V0203401N00571220001CN0200001N9+00281-00281102251ADDAY111999GF103991001001999999041011IA1189KA1999N+00001MD1010011+9999MW1031
0057029700999991952041712004+60117+019900FM-12+000399999V0203201N00721220001CN0400001N9+00501-00501102141ADDAY121999GF108991001001999999011999MD1990091+9999MW1021
0087029700999991952041718004+60117+019900FM-12+000399999V0201601N00211030001CN0200001N9+00221+00111101791ADDAA199000691AY161999GF108991041071008001021999IA1189KA1999M+00721MD1810191+9999MW1601
0087029700999991952041806004+60117+019900FM-12+000399999V0200701N00101030001CN0400001N9+00111+00111101911ADDAA199001091AY161999GF108991031071008001011999IA1089KA1999N+00001MD1310131+9999MW1021
0057029700999991952041812004+60117+019900FM-12+000399999V0202301N00411012301CN0400001N9+00281+00111101821ADDAY121999GF108991051081012501999999MD1010161+9999MW1021
0087029700999991952041818004+60117+019900FM-12+000399999V0202801N00511007801CN0200001N9+00221+00001101191ADDAA199000691AY161999GF108991051071008001011999IA1089KA1999M+00391MD1990361+9999MW1021
0057029700999991952041900004+60117+019900FM-12+000399999V0202001N00311030001CN0160001N9+00611+00391100791ADDAY111999GF108991041071008001021999MD1610151+9999MW1601
0087029700999991952041906004+60117+019900FM-12+000399999V0200201N00311007801CN0200001N9+00281+00281100721ADDAA199000691AY161999GF108991051071008001021999IA1089KA1999N+00221MD1510041+9999MW1601
0043029700999991952041912004+60117+019900FM-12+000399999V0202701N00311220001CN0400001N9+00391-00221100941ADDAY111999GF104991021021012501001999MW1011
0057029700999991952042000004+60117+019900FM-12+000399999V0209991C00001012301CN0200001N9-00111-00221101141ADDAY121999GF108991081081012501999999MD1010041+9999MW1021
0097029700999991952042006004+60117+019900FM-12+000399999V0202001N00311030001CN0400001N9+00221+00001101111ADDAY121999GF108991021071008001011999IA1089KA1999N-00221MW1021EQDQ01+000062APCTENQ02+000002APC3  
0057029700999991952042012004+60117+019900FM-12+000399999V0202001N00621220001CN0400001N9+00501+00111100901ADDAY111999GF105991001001999999041011MD1810081+9999MW1011
0087029700999991952042018004+60117+019900FM-12+000399999V0201801N00511015001CN0200001N9+00221+00001100641ADDAA199000391AY161999GF108991071011017501011021IA1009KA1999M+00281MD1810161+9999MW1601
0087029700999991952042106004+60117+019900FM-12+000399999V0202001N00311001501CN0002001N9+00391+00391100041ADDAA199006091AY161999GF108991081061001501999999IA1109KA1999N+00221MD1610031+9999MW1471
0057029700999991952042112004+60117+019900FM-12+000399999V0202001N00411220001CN0200001N9+00891+00501100211ADDAY121999GF103991001001999999001011MD1310081+9999MW1011
0087029700999991952042118004+60117+019900FM-12+000399999V0209999999999220001CN0160001N9+00611+00221100371ADDAA199003091AY111999GF199999001001999999041011IA1009KA1999M+00891MD1310071+9999MW1031
0076029700999991952042200004+60117+019900FM-12+000399999V0209991C00001220001CN0200001N9+00111+00111100581ADDAY101999GF101991999001999999041001MD1110081+9999MW1021EQDQ01+000002SCOTLC
0062029700999991952042206004+60117+019900FM-12+000399999V0201101N00211220001CN0160001N9+00501+00391100621ADDAY111999GF105991001001999999001041IA1109KA1999N-00221MW1021
0057029700999991952042212004+60117+019900FM-12+000399999V0201601N00211220001CN0160001N9+00611+00391100801ADDAY121999GF107991001001999999041021MD1310081+9999MW1031
0087029700999991952042218004+60117+019900FM-12+000399999V0201401N00211030001CN0024001N9+00501+00391100691ADDAA199000691AY161999GF108991041071008001011999IA1109KA1999M+01001MD1810051+9999MW1051
0057029700999991952042300004+60117+019900FM-12+000399999V0201401N00311220001CN0002001N9+00501+00501100651ADDAY141999GF108991001001999999011999MD1510041+9999MW1421
0076029700999991952042306004+60117+019900FM-12+000399999V0202301N00211220001CN0024001N9+00721+00611101021ADDAY141999GF105991001001999999041041IA1109KA1999N+00281MD1310191+9999MW1051
0057029700999991952042312004+60117+019900FM-12+000399999V0202301N00411220001CN0200001N9+00891+00501101341ADDAY111999GF107991001001999999001091MD1110131+9999MW1031
0076029700999991952042400004+60117+019900FM-12+000399999V0209991C00001220001CN0200001N9+00501+00281101711ADDAY101999GF101991999001999999041001MD1110081+9999MW1021EQDQ01+000002SCOTLC
0043029700999991952042406004+60117+019900FM-12+000399999V0209991C00001220001CN0200001N9+00611+00501101791ADDAY121999GF108991001001999999999999MW1021
0043029700999991952042412004+60117+019900FM-12+000399999V0202001N00311220001CN0200001N9+00891+00391101861ADDAY121999GF108991001001999999011999MW1021
0063029700999991952042418004+60117+019900FM-12+000399999V0202001N00211220001CN0200001N9+00611+00501101811ADDAY111999GF105991001001999999041021IA1009MD1010101+9999MW1011
0078029700999991952042500004+60117+019900FM-12+000399999V0202001N00101220001CN0400001N9+00391+00391101821ADDAY121999GF106991001001999999041021MW1031EQDQ01+000062APCTENQ02+000002APC3  
0097029700999991952042506004+60117+019900FM-12+000399999V0209991C00001012301CN0200001N9+00781+00611101881ADDAY121999GF108991081081012501999999IA1089KA1999N+00501MW1021EQDQ01+000042APCTENQ02+000052APC3  
0057029700999991952042512004+60117+019900FM-12+000399999V0202301N00211220001CN0200001N9+01221+00721102011ADDAY111999GF101991011011012501001001MD1110031+9999MW1021
0095029700999991952042518004+60117+019900FM-12+000399999V0209991C00001220001CN0200001N9+00721+00501102051ADDAY111999GF106991999001999999031001IA1089KA1999M+01221MD1510051+9999MW1021EQDQ01+000002SCOTLC
0057029700999991952042600004+60117+019900FM-12+000399999V0209991C00001220001CN0200001N9+00611+00501102181ADDAY121999GF106991001001999999041021MD1310071+9999MW1021
0076029700999991952042606004+60117+019900FM-12+000399999V0200701N00211220001CN0200001N9+00611+00391102291ADDAY111999GF103991031081012501001001IA1089KA1999N+00001MD1310091+9999MW1031
0057029700999991952042612004+60117+019900FM-12+000399999V0200501N00211220001CN0400001N9+01391+00221102401ADDAY111999GF105991001001999999041021MD1310051+9999MW1021
0097029700999991952042618004+60117+019900FM-12+000399999V0200201N00411220001CN0400001N9+00611-00111102541ADDAY111999GF104991001001999999041041IA1089KA1999M+01391MW1031EQDQ01+000042APCTENQ02+000092APC3  
0094029700999991952042700004+60117+019900FM-12+000399999V0200501N00311220001CN0200001N9+00391-00111102601ADDAY101999GF102991999001999999041001MW1021EQDQ01+000002SCOTLCQ02+000012APCTENQ03+000002APC3  
0076029700999991952042706004+60117+019900FM-12+000399999V0200201N00511012301CN0400001N9+00501+00111102521ADDAY121999GF105991051081012501001001IA1089KA1999N+00221MD1810031+9999MW1021
0057029700999991952042712004+60117+019900FM-12+000399999V0200201N00411220001CN0400001N9+01221+00391102521ADDAY121999GF107991001001999999031999MD1010041+9999MW1031
0062029700999991952042718004+60117+019900FM-12+000399999V0200701N00211220001CN0400001N9+01001+00391102401ADDAY111999GF104991001001999999001081IA1009KA1999M+01391MW1031
0076029700999991952042806004+60117+019900FM-12+000399999V0200701N00411220001CN0400001N9+01001+00281102161ADDAY111999GF199999001001999999041021IA1089KA1999N+00721MD1610051+9999MW1011
0078029700999991952042812004+60117+019900FM-12+000399999V0200701N00311220001CN0400001N9+01501+00781102201ADDAY111999GF102991001001999999001021MW1011EQDQ01+000042APCTENQ02+000072APC3  
0076029700999991952042818004+60117+019900FM-12+000399999V0201101N00101220001CN0400001N9+01111+00721999999ADDAY101999GF103991001001999999001061IA1089KA1999M+01501MD1610041+9999MW1021
0057029700999991952042900004+60117+019900FM-12+000399999V0209991C00001220001CN0400001N9+00281+00221101921ADDAY111999GF101991001001999999001061MD1010131+9999MW1021
0076029700999991952042906004+60117+019900FM-12+000399999V0209991C00001220001CN0200001N9+00891+00721101761ADDAY101999GF102991001001999999001091IA1089KA1999N+00111MD1610041+9999MW1021
0076029700999991952042912004+60117+019900FM-12+000399999V0201101N00311220001CN0200001N9+01781+00721101571ADDAY111999GF102991999001999999041001MD1810121+9999MW1011EQDQ01+000002SCOTLC
0095029700999991952042918004+60117+019900FM-12+000399999V0209991C00001220001CN0200001N9+01221+00781101321ADDAY111999GF104991999001999999041001IA1089KA1999M+01891MD1810111+9999MW1021EQDQ01+000002SCOTLC
0043029700999991952043000004+60117+019900FM-12+000399999V0201401N002119999999N0160001N9+00781+00721101041ADDAY181999GF108991999999999999999999MW1021
0057029700999991952043012004+60117+019900FM-12+000399999V0202001N00411220001CN0034001N9+00721+00611101191ADDAY161999GF106991001001999999041021MD1110151+9999MW1051
0073029700999991952043018004+60117+019900FM-12+000399999V0202001N00311220001CN0034001N9+00501+00391101381ADDAA199002091AY111999GF105991001001999999041021IA1109KA1999M+00781MW1051
0076029700999991952050100004+60117+019900FM-12+000399999V0209991C00001220001CN0160001N9+00281+00221101491ADDAY101999GF102991999001999999041001MD1110041+9999MW1021EQDQ01+000002SCOTLC
0076029700999991952050106004+60117+019900FM-12+000399999V0200701N00211001501CN0002001N9+00391+00391101571ADDAY141999GF108991081061001501999999IA1009KA1999N+00221MD1310051+9999MW1451
0070029700999991952050112004+60117+019900FM-12+000399999V0201401N00101220001CN0024001N9+00781+00611101641ADDGF108991001001999999071999MW1031EQDQ01+000012APCTENQ02+000002APC3  
0076029700999991952050118004+60117+019900FM-12+000399999V0200201N00211220001CN0024001N9+00501+00221101681ADDAY121999GF108991001001999999011999IA1089KA1999M+00891MD1110041+9999MW1051
0057029700999991952050200004+60117+019900FM-12+000399999V0200201N00411030001CN0160001N9+00391+00221101451ADDAY121999GF108991041071008001011999MD1810131+9999MW1021
0076029700999991952050206004+60117+019900FM-12+000399999V0203601N00511220001CN0200001N9+00501+00281101261ADDAY111999GF106991001001999999041021IA1089KA1999N+00501MD1610071+9999MW1011
0057029700999991952050212004+60117+019900FM-12+000399999V0203601N00621030001CN0400001N9+00501+00281101211ADDAY121999GF108991041071008001011999MD1610011+9999MW1021
0076029700999991952050218004+60117+019900FM-12+000399999V0203601N00411220001CN0400001N9+00501+00111101211ADDAY121999GF101991001001999999001061IA1009KA1999M+00721MD1510011+9999MW1021
0078029700999991952050300004+60117+019900FM-12+000399999V0203401N00311220001CN0400001N9+00111+00111101381ADDAY121999GF100991001001999999001001MW1021EQDQ01+000042APCTENQ02+000122APC3  
0076029700999991952050306004+60117+019900FM-12+000399999V0203201N00411220001CN0400001N9+00501+00001101411ADDAY101999GF105991001001999999001091IA1089KA1999N+00001MD1110011+9999MW1011
0057029700999991952050312004+60117+019900FM-12+000399999V0203201N00411220001CN0400001N9+00781-00281101541ADDAY101999GF101991011011012501001001MD1310071+9999MW1021
0076029700999991952050318004+60117+019900FM-12+000399999V0200501N00101220001CN0400001N9+00721-00391101541ADDAY111999GF100991001001999999001001IA1009KA1999M+00891MD1010031+9999MW1011
0076029700999991952050512004+60117+019900FM-12+000399999V0201401N00411220001CN0400001N9+01001+00001101541ADDAY101999GF101991999001999999011001MD1810071+9999MW1021EQDQ01+000002SCOTLC
0097029700999991952050618004+60117+019900FM-12+000399999V0201401N00311007801CN0400001N9+01111+00001101381ADDAY121999GF107991071081008001999999IA1009KA1999M+01781MW1021EQDQ01+000042APCTENQ02+000152APC3  
0057029700999991952050712004+60117+019900FM-12+000399999V0201101N00511220001CN0400001N9+01391-00111102291ADDAY101999GF101991001001999999001061MD1310241+9999MW1021
0057029700999991952050800004+60117+019900FM-12+000399999V0200901N00411220001CN0400001N9+00221-00221102951ADDAY101999GF100991001001999999001001MD1310201+9999MW1021
0076029700999991952050806004+60117+019900FM-12+000399999V0209991C00001220001CN0400001N9+00501-00281103601ADDAY101999GF100991001001999999001001IA1009KA1999N+00001MD1310161+9999MW1021
0057029700999991952050812004+60117+019900FM-12+000399999V0200701N00311220001CN0400001N9+00781-00281103441ADDAY101999GF100991001001999999001001MD1110041+9999MW1021
0076029700999991952050818004+60117+019900FM-12+000399999V0202501N00211220001CN0400001N9+00501+00001103321ADDAY101999GF101991001001999999001011IA1009KA1999M+00891MD1810051+9999MW1021
0057029700999991952050900004+60117+019900FM-12+000399999V0201601N00101220001CN0400001N9-00391-00391103261ADDAY101999GF100991001001999999001001MD1810041+9999MW1021
0076029700999991952050906004+60117+019900FM-12+000399999V0202301N00211220001CN0400001N9+00391-00111103171ADDAY101999GF100991001001999999001001IA1089KA1999N-00611MD1810051+9999MW1021
0057029700999991952050912004+60117+019900FM-12+000399999V0202001N00411220001CN0400001N9+00781-00221102921ADDAY101999GF100991001001999999001001MD1990111+9999MW1021
0076029700999991952050918004+60117+019900FM-12+000399999V0202301N00411220001CN0400001N9+00611+00001102441ADDAY101999GF100991001001999999001001IA1009KA1999M+00891MD1610161+9999MW1021
0076029700999991952051006004+60117+019900FM-12+000399999V0202301N00311220001CN0400001N9+00611+00111101911ADDAY121999GF100991001001999999001001IA1009KA1999N+00281MD1110121+9999MW1021
0057029700999991952051012004+60117+019900FM-12+000399999V0202301N00211220001CN0400001N9+01001+00281101711ADDAY101999GF100991001001999999001001MD1990111+9999MW1021
0063029700999991952051018004+60117+019900FM-12+000399999V0202501N00211220001CN0140001N9+00721+00221101461ADDAY101999GF100991001001999999001001IA1009MD1610071+9999MW1021
0057029700999991952051100004+60117+019900FM-12+000399999V0209991C00001220001CN0400001N9+00281+00281101351ADDAY101999GF100991001001999999001001MD1990111+9999MW1021
0097029700999991952051106004+60117+019900FM-12+000399999V0201801N00311220001CN0400001N9+01001+00391101351ADDAY101999GF100991001001999999001001IA1009KA1999N+00001MW1021EQDQ01+000032APCTENQ02+000002APC3  
0057029700999991952051112004+60117+019900FM-12+000399999V0202001N00211220001CN0400001N9+01281+00281101381ADDAY101999GF102991001001999999001011MD1110011+9999MW1031
0095029700999991952051118004+60117+019900FM-12+000399999V0201801N00101220001CN0400001N9+00891+00221101201ADDAY101999GF102991999001999999041001IA1009KA1999M+01391MD1610011+9999MW1031EQDQ01+000002SCOTLC
0057029700999991952051200004+60117+019900FM-12+000399999V0202001N00101220001CN0400001N9+00501+00281101091ADDAY111999GF103991001001999999041041MD1810081+9999MW1031
0097029700999991952051206004+60117+019900FM-12+000399999V0202001N00051220001CN0400001N9+00891+00391101041ADDAY101999GF101991001001999999001061IA1009KA1999N+00391MW1011EQDQ01+000062APCTENQ02+000002APC3  
0057029700999991952051212004+60117+019900FM-12+000399999V0202001N00101220001CN0400001N9+01611+00611101081ADDAY101999GF101991001001999999001091MD1010011+9999MW1021
0076029700999991952051218004+60117+019900FM-12+000399999V0202001N00101220001CN0400001N9+01111+00611101021ADDAY111999GF102991001001999999041011IA1009KA1999M+01721MD1810041+9999MW1031
0057029700999991952051300004+60117+019900FM-12+000399999V0203201N00211220001CN0200001N9+00501+00281101051ADDAY111999GF108991001001999999011999MD1010011+9999MW1021
0076029700999991952051306004+60117+019900FM-12+000399999V0203201N00101220001CN0200001N9+00781+00221101061ADDAY121999GF108991001001999999011999IA1009KA1999N+00281MD1510031+9999MW1021
0078029700999991952051312004+60117+019900FM-12+000399999V0203201N00411030001CN0400001N9+00721+00281101211ADDAY121999GF108991021071008001011999MW1031EQDQ01+000042APCTENQ02+000122APC3  
0087029700999991952051318004+60117+019900FM-12+000399999V0203601N00621007801CN0200001N9+00281+00281101111ADDAA199000691AY161999GF108991071071008001021999IA1089KA1999M+01281MD1810071+9999MW1601
0057029700999991952051400004+60117+019900FM-12+000399999V0203601N00411030001CN0200001N9+00221+00221101051ADDAY121999GF108991041071008001011999MD1010091+9999MW1021
0076029700999991952051406004+60117+019900FM-12+000399999V0203601N00721030001CN0200001N9+00281+00001100961ADDAY111999GF106991021021008001061001IA1009KA1999N+00111MD1990091+9999MW1011
0087029700999991952051418004+60117+019900FM-12+000399999V0203601N00411007801CN0200001N9+00221+00111100791ADDAA199010091AY161999GF108991051071008001011999IA1089KA1999M+00891MD1010051+9999MW1021
0057029700999991952051500004+60117+019900FM-12+000399999V0203601N00721004501CN0200001N9+00111+00001100881ADDAY121999GF108991071071004501011999MD1310041+9999MW1021
0076029700999991952051506004+60117+019900FM-12+000399999V0203601N00821220001CN0400001N9+00501-00391101151ADDAY101999GF101991011011012501001001IA1089KA1999N+00111MD1310131+9999MW1011
0057029700999991952051512004+60117+019900FM-12+000399999V0203201N00821007801CN0400001N9+00611-00221101391ADDAY111999GF105991051011008001001001MD1310151+9999MW1021
0097029700999991952051518004+60117+019900FM-12+000399999V0203201N00721012301CN0400001N9+00501-00391101511ADDAY121999GF105991051081012501001001IA1009KA1999M+00781MW1031EQDQ01+000012APCTENQ02+000002APC3  
0057029700999991952051600004+60117+019900FM-12+000399999V0209991C00001220001CN0400001N9+00001-00221101591ADDAY121999GF199999001001999999001051MD1310051+9999MW1021
0095029700999991952051606004+60117+019900FM-12+000399999V0209991C00001220001CN0400001N9+00611+00111101651ADDAY121999GF106991999001999999051001IA1009KA1999N-00281MD1110011+9999MW1021EQDQ01+000002SCOTLC
0057029700999991952051612004+60117+019900FM-12+000399999V0202901N00821220001CN0400001N9+00891-00611101861ADDAY111999GF104991041011008001001001MD1310031+9999MW1021
0076029700999991952051618004+60117+019900FM-12+000399999V0203401N00311220001CN0400001N9+00721-00611102011ADDAY101999GF100991001001999999001001IA1009KA1999M+01001MD1310011+9999MW1011
0076029700999991952051700004+60117+019900FM-12+000399999V0209991C00001220001CN0400001N9-00111-00221102051ADDAY121999GF107991999001999999071001MD1310041+9999MW1021EQDQ01+000002SCOTLC
0095029700999991952051706004+60117+019900FM-12+000399999V0203401N00721220001CN0400001N9+00611-00281102001ADDAY111999GF106991999001999999041001IA1009KA1999N-00281MD1310091+9999MW1011EQDQ01+000002SCOTLC
0057029700999991952051712004+60117+019900FM-12+000399999V0203401N00931220001CN0400001N9+00721-00221102181ADDAY111999GF101991011011012501001001MD1310091+9999MW1011
0095029700999991952051718004+60117+019900FM-12+000399999V0203401N00621220001CN0400001N9+00611-00611102061ADDAY111999GF102991999001999999071001IA1009KA1999M+00781MD1310071+9999MW1011EQDQ01+000002SCOTLC
0076029700999991952051806004+60117+019900FM-12+000399999V0200201N00311012301CN0400001N9+00501+00001101451ADDAY121999GF107991071071012501001001IA1009KA1999N-00281MD1010161+9999MW1021
0057029700999991952051812004+60117+019900FM-12+000399999V0202901N01031220001CN0400001N9+00611-00721101511ADDAY111999GF102991011011012501051001MD1310051+9999MW1011
0076029700999991952051818004+60117+019900FM-12+000399999V0200501N00931007801CN0400001N9+00281+00001101481ADDAY111999GF106991061011008001001001IA1009KA1999M+00781MD1310011+9999MW1031
0057029700999991952051900004+60117+019900FM-12+000399999V0202901N00311220001CN0400001N9+00001-00221101561ADDAY121999GF102991011051022501001011MD1210051+9999MW1021
0057029700999991952051912004+60117+019900FM-12+000399999V0200201N01231007801CN0400001N9+00501+00111101841ADDAY111999GF106991061011008001001001MD1310131+9999MW1011
0076029700999991952051918004+60117+019900FM-12+000399999V0200201N00211220001CN0400001N9+00501+00001102111ADDAY111999GF101991011011008001001001IA1009KA1999M+00781MD1310171+9999MW1011
0076029700999991952052006004+60117+019900FM-12+000399999V0200201N00511220001CN0400001N9+00611-00281102611ADDAY101999GF100991001001999999001001IA1009KA1999N-00281MD1310131+9999MW1001
0076029700999991952052012004+60117+019900FM-12+000399999V0200201N00621220001CN0400001N9+00891-00281102981ADDAY101999GF101991999001999999051001MD1310161+9999MW1011EQDQ01+000002SCOTLC
0097029700999991952052018004+60117+019900FM-12+000399999V0200201N00411220001CN0400001N9+00501-00611102951ADDAY101999GF102991001001999999051021IA1009KA1999M+01001MW1021EQDQ01+000032APCTENQ02+000002APC3  
0076029700999991952052100004+60117+019900FM-12+000399999V0200201N00101220001CN0400001N9+00221-00111102861ADDAY101999GF101991999001999999041001MD1310031+9999MW1011EQDQ01+000002SCOTLC
0113029700999991952052106004+60117+019900FM-12+000399999V0200201N00211220001CN0400001N9+00611+00001102801ADDAY111999GF105991999001999999051001IA1009KA1999N-00111MW1011EQDQ01+000002SCOTLCQ02+000032APCTENQ03+000002APC3  
0076029700999991952052112004+60117+019900FM-12+000399999V0200201N00311220001CN0400001N9+01221-00611102591ADDAY111999GF105991999001999999051001MD1810161+9999MW1021EQDQ01+000002SCOTLC
0095029700999991952052118004+60117+019900FM-12+000399999V0203601N00571220001CN0400001N9+00891-01001102481ADDAY111999GF101991999001999999051001IA1009KA1999M+01391MD1810031+9999MW1011EQDQ01+000002SCOTLC
0057029700999991952052200004+60117+019900FM-12+000399999V0203601N00101220001CN0400001N9+00281-00281102411ADDAY101999GF100991001001999999001001MD1810071+9999MW1001
0095029700999991952052206004+60117+019900FM-12+000399999V0203601N00211220001CN0400001N9+01001+00111102311ADDAY111999GF104991999001999999051001IA1009KA1999N+00111MD1310051+9999MW1021EQDQ01+000002SCOTLC
0057029700999991952052212004+60117+019900FM-12+000399999V0203601N00311220001CN0400001N9+01611-00501102211ADDAY111999GF104991001001999999051011MD1810041+9999MW1011
0095029700999991952052218004+60117+019900FM-12+000399999V0203601N00311220001CN0400001N9+01221-00391102221ADDAY111999GF105991999001999999051001IA1009KA1999M+01611MD1310031+9999MW1031EQDQ01+000002SCOTLC
0076029700999991952052300004+60117+019900FM-12+000399999V0209991C00001220001CN0400001N9+00721+00111102161ADDAY121999GF108991999001999999071001MD1310051+9999MW1021EQDQ01+000002SCOTLC
0087029700999991952052306004+60117+019900FM-12+000399999V0203601N00101007801CN0400001N9+00891+00721102081ADDAA199000691AY121999GF108991081071008001001001IA1089KA1999N+00611MD1310031+9999MW1021
0057029700999991952052312004+60117+019900FM-12+000399999V0200201N00101007801CN0200001N9+01111+00721102121ADDAY121999GF108991081071008001001001MD1810031+9999MW1021
0087029700999991952052318004+60117+019900FM-12+000399999V0209991C00001007801CN0200001N9+00891+00781102011ADDAA199003091AY111999GF107991071091008001001001IA1089KA1999M+01221MD1810121+9999MW1011
0097029700999991952052406004+60117+019900FM-12+000399999V0201601N00311012301CN0200001N9+00781+00391101521ADDAY111999GF106991061051012501001001IA1089KA1999N+00611MW1011EQDQ01+000032APCTENQ02+000002APC3  
0076029700999991952052412004+60117+019900FM-12+000399999V0203401N00511220001CN0400001N9+01001+00391101741ADDAY111999GF105991999001999999081001MD1310011+9999MW1011EQDQ01+000002SCOTLC
0076029700999991952052418004+60117+019900FM-12+000399999V0203601N00101220001CN0400001N9+00891+00611101821ADDAY101999GF100991001001999999001001IA1009KA1999M+01111MD1310051+9999MW1001
0062029700999991952052506004+60117+019900FM-12+000399999V0202701N00101220001CN9999999N9+01001+00111101571ADDGF103991001001999999001051IA1089KA1999N+00501MD1810161+9999
0057029700999991952052512004+60117+019900FM-12+000399999V0201801N00621220001CN0400001N9+01111+00391101181ADDAY121999GF107991001001999999091061MD1810211+9999MW1031
0076029700999991952052518004+60117+019900FM-12+000399999V0202001N00101220001CN0400001N9+01001+00501100991ADDAY111999GF106991001001999999081011IA1009KA1999M+01391MD1810051+9999MW1021
0076029700999991952052600004+60117+019900FM-12+000399999V0209991C00001220001CN0400001N9+00611+00501100641ADDAY111999GF106991999001999999071001MD1810121+9999MW1021EQDQ01+000002SCOTLC
0079029700999991952052606004+60117+019900FM-12+000399999V0203501N00511220001CN0400001N9+00611+00281100501ADDAA199000691AY191999GF106991999001999999081001IA1009MW1021EQDQ01+000002SCOTLC
0057029700999991952052612004+60117+019900FM-12+000399999V0203601N00821220001CN0400001N9+00781+00221100781ADDAY101999GF101991011011012501001001MD1310031+9999MW1021
0095029700999991952052618004+60117+019900FM-12+000399999V0203201N00721220001CN0400001N9+00781+00501100621ADDAY101999GF101991999001999999081001IA1009KA1999M+01281MD1310111+9999MW1011EQDQ01+000002SCOTLC
0076029700999991952052706004+60117+019900FM-12+000399999V0203301N00821220001CN0400001N9+00781+00111100591ADDAY101999GF100991001001999999001001IA1009KA1999N+00391MD1310051+9999MW1001
0057029700999991952052712004+60117+019900FM-12+000399999V0203401N00621220001CN0400001N9+01001-00111100751ADDAY111999GF102991021021012501061001MD1310051+9999MW1021
0048029700999991952052718004+60117+019900FM-12+000399999V0209999999999220001CN0400001N9+99999+99999999999ADDGF100991001001999999001001IA1009KA1999M+01111
0057029700999991952052800004+60117+019900FM-12+000399999V0209991C00001220001CN0400001N9-00221-00391100681ADDAY101999GF100991001001999999001001MD1310081+9999MW1001
0089029700999991952052806004+60117+019900FM-12+000399999V0201801N00311220001CN0400001N9+00891+00111100491ADDAY101999GF101991999001999999081001KA1999N-00281MD1810161+9999MW1031EQDQ01+000002SCOTLC
0076029700999991952052812004+60117+019900FM-12+000399999V0201101N00621220001CN0400001N9+01111+00501100401ADDAY111999GF105991999001999999081001MD1810011+9999MW1021EQDQ01+000002SCOTLC
0095029700999991952052818004+60117+019900FM-12+000399999V0201601N00721220001CN0200001N9+00781+00501100191ADDAY111999GF106991999001999999071001IA1009KA1999M+01281MD1810131+9999MW1011EQDQ01+000002SCOTLC
0057029700999991952052900004+60117+019900FM-12+000399999V0209999901131220001CN9999999N9+00721+00611099881ADDAY161999GF108991001001999999999999MD1810081+9999MW1601
0106029700999991952052906004+60117+019900FM-12+000399999V0200201N00311220001CN0400001N9+00781+00501100211ADDAA199003091AY111999GF104991999001999999041001IA1089KA1999N+00781MD1310151+9999MW1011EQDQ01+000002SCOTLC
0057029700999991952052912004+60117+019900FM-12+000399999V0201801N00211220001CN0400001N9+01111+00891100391ADDAY111999GF102991011021012501001051MD1310031+9999MW1011
0076029700999991952052918004+60117+019900FM-12+000399999V0201601N00361220001CN0400001N9+00721+00501100341ADDAY111999GF103991001001999999001021IA1009KA1999M+01281MD1310081+9999MW1011
0057029700999991952053000004+60117+019900FM-12+000399999V0201601N00101007801CN0200001N9+00611+00281100181ADDAY121999GF108991081051008001001001MD1810121+9999MW1021
0076029700999991952053006004+60117+019900FM-12+000399999V0201601N00361004501CN0034001N9+00611+00501100081ADDAY141999GF106991061061004501001001IA1009KA1999N+00501MD1310081+9999MW1441
0057029700999991952053012004+60117+019900FM-12+000399999V0201601N00411220001CN0200001N9+01111+00721100191ADDAY111999GF104991001001999999041011MD1110031+9999MW1031
0097029700999991952053018004+60117+019900FM-12+000399999V0201801N00511030001CN9999999N9+00781+00391100211ADDAY111999GF105991031021012501061021IA1009KA1999M+01221MW1031EQDQ01+000032APCTENQ02+000002APC3  
0076029700999991952053100004+60117+019900FM-12+000399999V0202501N00721220001CN0200001N9+00721+00501100451ADDAY111999GF102991999001999999071001MD1110131+9999MW1021EQDQ01+000002SCOTLC
0095029700999991952053106004+60117+019900FM-12+000399999V0202001N00621220001CN0200001N9+00721+00501100561ADDAY111999GF106991999001999999071001IA1009KA1999N+00611MD1310051+9999MW1021EQDQ01+000002SCOTLC
0057029700999991952053112004+60117+019900FM-12+000399999V0200201N01031030001CN0200001N9+00891+00501100661ADDAY161999GF106991031091004501061001MD1310021+9999MW1601
0087029700999991952053118004+60117+019900FM-12+000399999V0200201N00721030001CN0200001N9+00781+00611100751ADDAA199000591AY181999GF106991031091004501061001IA1089KA1999M+01111MD1310051+9999MW1021
0057029700999991952060100004+60117+019900FM-12+000399999V0200201N00511220001CN0200001N9+00781+00501100911ADDAY101999GF101991011041012501001001MD1310051+9999MW1011
0076029700999991952060106004+60117+019900FM-12+000399999V0200701N00411220001CN0400001N9+01001+00501101061ADDAY101999GF100991001001999999001001IA1009KA1999N+00721MD1310051+9999MW1001
0057029700999991952060112004+60117+019900FM-12+000399999V0202001N00621220001CN0400001N9+01391+00501101291ADDAY111999GF102991021011008001001021MD1310131+9999MW1021
0076029700999991952060118004+60117+019900FM-12+000399999V0201801N00211220001CN0400001N9+01001+00611101401ADDAY101999GF102991001001999999001071IA1009KA1999M+01501MD1310011+9999MW1021
0076029700999991952060206004+60117+019900FM-12+000399999V0201601N00411220001CN0400001N9+01221+00611101481ADDAY111999GF105991001001999999041071IA1009KA1999N+00281MD1310031+9999MW1021
0057029700999991952060212004+60117+019900FM-12+000399999V0201601N00721007801CN0200001N9+01221+00781101311ADDAY121999GF107991071071008001021001MD1810091+9999MW1031
0076029700999991952060218004+60117+019900FM-12+000399999V0201601N00621004501CN0110001N9+01221+01001999999ADDAY121999GF108991081071004501001001IA1009KA1999M+01611MD1310121+9999MW1451
0057029700999991952060300004+60117+019900FM-12+000399999V0202601N00621004501CN0110001N9+00891+00891101011ADDAY141999GF107991071071004501001001MD1310031+9999MW1421
0106029700999991952060306004+60117+019900FM-12+000399999V0202001N00721220001CN0200001N9+00891+00891101061ADDAA199002091AY111999GF106991999001999999081001IA1089KA1999N+00781MD1310051+9999MW1021EQDQ01+000002SCOTLC
0057029700999991952060312004+60117+019900FM-12+000399999V0202301N00821220001CN0400001N9+01391+00781101091ADDAY111999GF102991011011012501001021MD1310041+9999MW1011
0095029700999991952060318004+60117+019900FM-12+000399999V0202701N00721220001CN0400001N9+01501+00281101191ADDAY111999GF101991999001999999051001IA1009KA1999M+01501MD1310091+9999MW1011EQDQ01+000002SCOTLC
0078029700999991952060400004+60117+019900FM-12+000399999V0202701N00511007801CN0400001N9+01001+00221101361ADDAY111999GF105991051051008001001001MW1031EQDQ01+000042APCTENQ02+000032APC3  
0097029700999991952060406004+60117+019900FM-12+000399999V0203601N00411220001CN0400001N9+01111+00391101521ADDAY111999GF103991021021012501061001IA1009KA1999N+00781MW1031EQDQ01+000042APCTENQ02+000242APC3  
0057029700999991952060412004+60117+019900FM-12+000399999V0203201N00511220001CN0400001N9+01111+00111101861ADDAY121999GF102991021021012501061001MD1310211+9999MW1021
0095029700999991952060418004+60117+019900FM-12+000399999V0202001N00621220001CN0400001N9+00891+00501101891ADDAY111999GF103991999001999999081001IA1009KA1999M+01501MD1310051+9999MW1011EQDQ01+000002SCOTLC
0057029700999991952060500004+60117+019900FM-12+000399999V0209991C00001007801CN0200001N9+00391+00281101791ADDAY101999GF106991061051008001001001MD1990081+9999MW1001
0076029700999991952060506004+60117+019900FM-12+000399999V0203601N00621220001CN0400001N9+01221+00111101891ADDAY101999GF100991001001999999001001IA1009KA1999N+00111MD1310031+9999MW1001
0057029700999991952060512004+60117+019900FM-12+000399999V0202701N00511220001CN0400001N9+01281+00111102001ADDAY111999GF102991011021008001061001MD1310041+9999MW1021
0076029700999991952060518004+60117+019900FM-12+000399999V0201401N00311030001CN0400001N9+01281+00281101911ADDAY111999GF106991011011008001061051IA1009KA1999M+01611MD1810071+9999MW1031
0076029700999991952060600004+60117+019900FM-12+000399999V0201601N00211220001CN0200001N9+00501+00391101661ADDAY111999GF102991999001999999071001MD1810051+9999MW1011EQDQ01+000002SCOTLC
0095029700999991952060606004+60117+019900FM-12+000399999V0202001N00211220001CN0200001N9+01221+00611101691ADDAY111999GF107991999001999999071001IA1009KA1999N+00391MD1810051+9999MW1021EQDQ01+000002SCOTLC
0076029700999991952060612004+60117+019900FM-12+000399999V0201801N00621220001CN0200001N9+01281+00611101551ADDAY111999GF107991999001999999071001MD1810081+9999MW1021EQDQ01+000002SCOTLC
0095029700999991952060618004+60117+019900FM-12+000399999V0201601N00721220001CN0200001N9+01221+00721101261ADDAY111999GF107991999001999999071001IA1009KA1999M+01611MD1810161+9999MW1021EQDQ01+000002SCOTLC
0095029700999991952060706004+60117+019900FM-12+000399999V0201601N00721220001CN0200001N9+01281+00721100821ADDAY111999GF106991999001999999071001IA1009KA1999N+00281MD1810131+9999MW1021EQDQ01+000002SCOTLC
0057029700999991952060712004+60117+019900FM-12+000399999V0201601N00621220001CN0400001N9+01721+00781100741ADDAY111999GF106991001001999999001061MD1310111+9999MW1021
0087029700999991952060806004+60117+019900FM-12+000399999V0202501N00411220001CN0400001N9+01221+00391100541ADDAA199018091AY111999GF105991021011008001001061IA1089KA1999N+00891MD1310101+9999MW1011
0063029700999991952060818004+60117+019900FM-12+000399999V0202001N00211220001CN0400001N9+01391+99999100211ADDAY111999GF105991001001999999061071IA1009MD1810491+9999MW1021
0057029700999991952060900004+60117+019900FM-12+000399999V0202701N00311220001CN0400001N9+01001+00501100661ADDAY111999GF100991001001999999001001MD1310081+9999MW1011
0097029700999991952060906004+60117+019900FM-12+000399999V0202001N00311220001CN0400001N9+01001+00611100721ADDAY111999GF102991001001999999001021IA1009KA1999N+00501MW1021EQDQ01+000032APCTENQ02+000002APC3  
0057029700999991952060912004+60117+019900FM-12+000399999V0202001N00621220001CN0400001N9+01281+00721101061ADDAY111999GF103991031021008001001001MD1310031+9999MW1021
0076029700999991952060918004+60117+019900FM-12+000399999V0202001N00411220001CN0400001N9+01001+00721100751ADDAY111999GF104991021051008001051001IA1009KA1999M+01391MD1810131+9999MW1031
0076029700999991952061006004+60117+019900FM-12+000399999V0203401N001019999999N0400001N9+01111+00721100491ADDAY111999GF199999021011008001001071IA1009KA1999N+00281MD1810071+9999MW1011
0057029700999991952061012004+60117+019900FM-12+000399999V0203201N00411075001CN0400001N9+01391+00281100401ADDAY111999GF106991041031008001001021MD1810031+9999MW1021
0078029700999991952061100004+60117+019900FM-12+000399999V0209991C00001220001CN0024001N9+00221+00221100291ADDAY141999GF100991001001999999001001MW1121EQDQ01+000032APCTENQ02+000002APC3  
0095029700999991952061106004+60117+019900FM-12+000399999V0200501N00101220001CN0200001N9+00781+00611100311ADDAY111999GF106991999001999999041001IA1009KA1999N+00001MD1310051+9999MW1031EQDQ01+000002SCOTLC
0057029700999991952061112004+60117+019900FM-12+000399999V0202301N00511030001CN0400001N9+01611+00721100391ADDAY121999GF106991031021008001061021MD1310081+9999MW1021
0076029700999991952061118004+60117+019900FM-12+000399999V0200901N00101220001CN0400001N9+01391+00281100511ADDAY111999GF103991011021008001051999IA1009KA1999M+01721MD1310051+9999MW1011
0057029700999991952061200004+60117+019900FM-12+000399999V0209991C00001220001CN0034001N9+00221+00221100721ADDAY141999GF100991001001999999001001MD1310031+9999MW1121
0095029700999991952061206004+60117+019900FM-12+000399999V0202001N00101220001CN0400001N9+01391+00721100861ADDAY111999GF102991999001999999081001IA1009KA1999N+00111MD1310051+9999MW1031EQDQ01+000002SCOTLC
0057029700999991952061212004+60117+019900FM-12+000399999V0202001N00411220001CN0400001N9+01721+00891100861ADDAY111999GF102991021031008001051001MD1310011+9999MW1021
0095029700999991952061218004+60117+019900FM-12+000399999V0209991C00001220001CN0200001N9+01391+01001100781ADDAY111999GF106991999001999999071001IA1009KA1999M+01891MD1990081+9999MW1031EQDQ01+000002SCOTLC
0076029700999991952061300004+60117+019900FM-12+000399999V0209991C00001220001CN0200001N9+00611+00611100711ADDAY111999GF103991999001999999071001MD1810051+9999MW1021EQDQ01+000002SCOTLC
0113029700999991952061306004+60117+019900FM-12+000399999V0201801N00101220001CN0400001N9+01501+00781100681ADDAY111999GF101991999001999999071001IA1009KA1999N+00391MW1021EQDQ01+000002SCOTLCQ02+000032APCTENQ03+000002APC3  
0057029700999991952061312004+60117+019900FM-12+000399999V0202001N00511220001CN0400001N9+01891+00781100841ADDAY111999GF102991021031008001001001MD1310031+9999MW1021
0057029700999991952061400004+60117+019900FM-12+000399999V0201801N00411004501CN0024001N9+00891+00891100841ADDAY141999GF108991081051004501999999MD1310051+9999MW1441
0076029700999991952061406004+60117+019900FM-12+000399999V0201801N00721004501CN0160001N9+01001+00891100741ADDAY121999GF108991081071004501001001IA1009KA1999N+00781MD1810031+9999MW1021
0057029700999991952061412004+60117+019900FM-12+000399999V0202001N00621004501CN0200001N9+01221+01001100881ADDAY121999GF108991081071004501001001MD1810091+9999MW1021
0087029700999991952061418004+60117+019900FM-12+000399999V0201601N007219999999N0160001N9+01001+00891100311ADDAA199000691AY121999GF108991081071999999001001IA1009KA1999M+01501MD1810111+9999MW1021
0087029700999991952061506004+60117+019900FM-12+000399999V0201601N00511004501CN0160001N9+01221+01001099941ADDAA199001091AY111999GF108991061071004501021001IA1089KA1999N+01001MD1810031+9999MW1031
0057029700999991952061512004+60117+019900FM-12+000399999V0201601N00311030001CN0044001N9+01221+01111099821ADDAY161999GF108991021071004501021001MD1810071+9999MW1621
0087029700999991952061518004+60117+019900FM-12+000399999V0201801N00311004501CN0004001N9+01111+01111099661ADDAA199001091AY141999GF108991081071004501001001IA1089KA1999M+01501MD1810051+9999MW1471
0094029700999991952061600004+60117+019900FM-12+000399999V0202501N00311220001CN0200001N9+01001+00611099761ADDAY111999GF102991999001999999071001MW1011EQDQ01+000002SCOTLCQ02+000042APCTENQ03+000092APC3  
0111029700999991952061606004+60117+019900FM-12+000399999V0202001N00721220001CN0400001N9+01001+00611100091ADDAY111999GF103991999001999999091001IA1009KA1999N+99999MD1310151+9999MW1021EQDQ01+000002SCOTLCQ02 +01222ATMN  
0057029700999991952061612004+60117+019900FM-12+000399999V0201801N00821030001CN0400001N9+01281+00781100321ADDAY111999GF105991041011004501061001MD1310081+9999MW1021
0076029700999991952061618004+60117+019900FM-12+000399999V0202001N00621220001CN0400001N9+01111+00891100371ADDAY111999GF102991011011004501041001IA1009KA1999M+01391MD1310031+9999MW1011
0076029700999991952061706004+60117+019900FM-12+000399999V0202701N00311220001CN0400001N9+01111+01001100641ADDAY111999GF102991001001999999041041IA1009KA1999N+00501MD1310071+9999MW1011
0057029700999991952061712004+60117+019900FM-12+000399999V0202001N00311220001CN0400001N9+01501+00781100891ADDAY111999GF102991021021004501001031MD1310161+9999MW1021
0076029700999991952061718004+60117+019900FM-12+000399999V0201801N00411220001CN0400001N9+01501+00721101041ADDAY101999GF101991011011004501001001IA1009KA1999M+01611MD1310091+9999MW1011
0076029700999991952061806004+60117+019900FM-12+000399999V0202001N003119999999N0400001N9+01221+00781101441ADDAY111999GF105991999999999999031001IA1009KA1999N+00721MD1310071+9999MW1031
0076029700999991952061812004+60117+019900FM-12+000399999V0202001N00311220001CN0400001N9+01611+00781101551ADDAY111999GF105991999001999999051001MD1310071+9999MW1021EQDQ01+000002SCOTLC
0097029700999991952061818004+60117+019900FM-12+000399999V0201601N00511220001CN0140001N9+01281+00891101591ADDAY101999GF100991001001999999001001IA1009KA1999M+01781MW1051EQDQ01+000032APCTENQ02+000002APC3  
0095029700999991952061906004+60117+019900FM-12+000399999V0201401N00621220001CN0200001N9+01391+00781101201ADDAY111999GF106991999001999999011001IA1009KA1999N+00781MD1810131+9999MW1031EQDQ01+000002SCOTLC
0076029700999991952061912004+60117+019900FM-12+000399999V0201101N00621220001CN0200001N9+01611+00891100751ADDAY111999GF107991999001999999021001MD1810241+9999MW1031EQDQ01+000002SCOTLC
0087029700999991952061918004+60117+019900FM-12+000399999V0201401N00621004501CN0160001N9+01221+01111100461ADDAA199008091AY161999GF108991061071004501021001IA1089KA1999M+01781MD1810051+9999MW1631
0057029700999991952062000004+60117+019900FM-12+000399999V0201801N00211220001CN0160001N9+01111+01111100601ADDAY141999GF102991021051008001001001MD1110011+9999MW1121
0108029700999991952062006004+60117+019900FM-12+000399999V0202301N01031220001CN0200001N9+01111+00891100861ADDAA199000391AY111999GF102991021031008001001001IA1089KA1999N+01111MW1031EQDQ01+000042APCTENQ02+000192APC3  
0076029700999991952062018004+60117+019900FM-12+000399999V0202001N00821220001CN0400001N9+01111+00891101141ADDAY111999GF103991021021008001041001IA1009KA1999M+01501MD1310031+9999MW1021
0057029700999991952062100004+60117+019900FM-12+000399999V0202001N00311220001CN0200001N9+01001+00781101151ADDAY101999GF100991001001999999001001MD1310091+9999MW1021
0097029700999991952062106004+60117+019900FM-12+000399999V0201401N00311004501CN0160001N9+01221+01111101171ADDAY121999GF108991061061004501021001IA1009KA1999N+00781MW1031EQDQ01+000032APCTENQ02+000002APC3  
0078029700999991952062112004+60117+019900FM-12+000399999V0201801N00721004501CN0160001N9+01391+01111101061ADDAY111999GF105991051011004501001001MW1051EQDQ01+000032APCTENQ02+000002APC3  
0076029700999991952062118004+60117+019900FM-12+000399999V0201801N00621220001CN0200001N9+01221+01001100921ADDAY111999GF103991031011004501001001IA1009KA1999M+01501MD1810131+9999MW1011
0108029700999991952062206004+60117+019900FM-12+000399999V0209991C00001004501CN0200001N9+01111+01001100771ADDAA199004091AY111999GF108991081071004501001001IA1089KA1999N+00721MW1031EQDQ01+000032APCTENQ02+000002APC3  
