0057029720999991953010100004+60517+022267FM-12+005499999V0209991C00001220001CN0040001N9-00221-00391101111ADDAY121999GF107991001001999999071999MD1310081+9999MW1021
0087029720999991953010106004+60517+022267FM-12+005499999V0209991C00001001501CN0030001N9-00281-00281101191ADDAA199000691AY121999GF108991081061001501999999IA1209KA1999N-00391MD1210051+9999MW1021
0057029720999991953010112004+60517+022267FM-12+005499999V0201401N00101001501CN0024001N9-00281-00281101321ADDAY141999GF107991071061001501999999MD1310051+9999MW1011
0087029720999991953010118004+60517+022267FM-12+005499999V0203201N00211007801CN0100001N9-00281-00501101491ADDAA199000691AY121999GF108991081051008001999999IA1209KA1999M-00281MD1310111+9999MW1021
0057029720999991953010200004+60517+022267FM-12+005499999V0203201N00211007801CN0140001N9-00391-00721101591ADDAY121999GF108991081051008001999999MD1310051+9999MW1021
0076029720999991953010206004+60517+022267FM-12+005499999V0203201N00101030001CN0160001N9-00891-01001101651ADDAY121999GF107991011051008001041061IA1209KA1999N-01001MD1210041+9999MW1011
0057029720999991953010212004+60517+022267FM-12+005499999V0200401N00101220001CN0030001N9-00721-00781101741ADDAY121999GF108991001001999999041071MD1210011+9999MW1021
0063029720999991953010218004+60517+022267FM-12+005499999V0200401N00411030001CN0070001N9-00721-00781101761ADDAY121999GF108991031061002501021999IA1209MD1310041+9999MW1031
0057029720999991953010300004+60517+022267FM-12+005499999V0200201N00411004501CN0070001N9-00611-00781101801ADDAY121999GF108991081061004501999999MD1310041+9999MW1021
0076029720999991953010306004+60517+022267FM-12+005499999V0203601N00311004501CN0070001N9-01111-01221101811ADDAY111999GF107991071051004501001001IA1209KA1999N-01221MD1210031+9999MW1031
0057029720999991953010312004+60517+022267FM-12+005499999V0200501N00511220001CN0140001N9-00611-00891101861ADDAY101999GF102991001001999999001051MD1990031+9999MW1011
0095029720999991953010318004+60517+022267FM-12+005499999V0200201N00411220001CN0140001N9-01221-01281102041ADDAY101999GF101991999001999999041001IA1209KA1999M-00611MD1310121+9999MW1021EQDQ01+000002SCOTLC
0076029720999991953010406004+60517+022267FM-12+005499999V0200201N00211220001CN0100001N9-01891-02001102261ADDAY101999GF100991001001999999001001IA1209KA1999N-01891MD1310051+9999MW1021
0057029720999991953010412004+60517+022267FM-12+005499999V0200401N00101220001CN0140001N9-01501-01721102411ADDAY101999GF100991001001999999001001MD1310051+9999MW1021
0076029720999991953010418004+60517+022267FM-12+005499999V0200201N00101220001CN0110001N9-02001-02111102601ADDAY101999GF100991001001999999001001IA1209KA1999M-01501MD1310111+9999MW1021
0057029720999991953010500004+60517+022267FM-12+005499999V0203601N00101220001CN0160001N9-02001-02221102641ADDAY101999GF101991001001999999001051MD1210011+9999MW1031
0057029720999991953010512004+60517+022267FM-12+005499999V0200901N00101220001CN0020001N9-01721-01781102451ADDAY101999GF104991001001999999001011MD1810111+9999MW1101
0076029720999991953010518004+60517+022267FM-12+005499999V0201001N00101220001CN0034001N9-01391-01611102351ADDAY101999GF100991001001999999001001IA1209KA1999M-01391MD1810051+9999MW1021
0057029720999991953010600004+60517+022267FM-12+005499999V0201401N00211220001CN0100001N9-01001-01111102191ADDAY101999GF100991001001999999001001MD1810091+9999MW1021
0076029720999991953010606004+60517+022267FM-12+005499999V0201401N00211007801CN0140001N9-00611-00721102061ADDAY121999GF108991081061008001999999IA1209KA1999N-01611MD1510031+9999MW1021
0057029720999991953010612004+60517+022267FM-12+005499999V0201201N00311002401CN0050001N9-00221-00281102011ADDAY121999GF108991081061002501999999MD1710051+9999MW1561
0087029720999991953010618004+60517+022267FM-12+005499999V0201801N00211001501CN0050001N9+00001+00001102001ADDAA199000591AY171999GF108991081061001501999999IA1209KA1999M+00111MD1110011+9999MW1701
0057029720999991953010700004+60517+022267FM-12+005499999V0201601N00211002401CN0060001N9+00001-00111101971ADDAY121999GF108991081061002501999999MD1810031+9999MW1021
0087029720999991953010706004+60517+022267FM-12+005499999V0201601N00211001501CN0050001N9+00001+00001101681ADDAA199000691AY171999GF108991081061001501999999IA1209KA1999N-00111MD1810161+9999MW1711
0057029720999991953010712004+60517+022267FM-12+005499999V0202001N00101220001CN0140001N9+00001-00111101641ADDAY121999GF107991001001999999071061MD1990071+9999MW1021
0087029720999991953010718004+60517+022267FM-12+005499999V0202001N00101007801CN0002001N9-00221-00221101511ADDAA199001091AY141999GF108991081061008001999999IA1209KA1999M+00111MD1990041+9999MW1711
0057029720999991953010800004+60517+022267FM-12+005499999V0201801N00101004501CN0014001N9-00721-00721101441ADDAY141999GF105991051071004501001001MD1810041+9999MW1101
0063029720999991953010806004+60517+022267FM-12+005499999V0201801N00101002401CN0110001N9-00221-00281101401ADDAY121999GF108991081061002501999999IA1209MD1210031+9999MW1021
0057029720999991953010812004+60517+022267FM-12+005499999V0202001N00211220001CN0200001N9-00281-00501101251ADDAY101999GF102991001001999999041051MD1810131+9999MW1021
0076029720999991953010818004+60517+022267FM-12+005499999V0202301N00411004501CN0160001N9-00221-00391100991ADDAY121999GF108991081051004501999999IA1209KA1999M-00221MD1810171+9999MW1021
0057029720999991953010900004+60517+022267FM-12+005499999V0202001N00411007801CN0140001N9-00111-00281100521ADDAY121999GF108991081051008001999999MD1810281+9999MW1021
0076029720999991953010906004+60517+022267FM-12+005499999V0202001N00511004501CN0140001N9+00001-00281100221ADDAY121999GF108991081051004501999999IA1209KA1999N-00221MD1810151+9999MW1021
0057029720999991953010912004+60517+022267FM-12+005499999V0202301N00211002401CN0030001N9+00001+00001100081ADDAY171999GF108991071061002501021999MD1610051+9999MW1771
0087029720999991953010918004+60517+022267FM-12+005499999V0202701N00211001501CN0050001N9-00111-00221100251ADDAA199002091AY171999GF106991061061001501999999IA1209KA1999M+00001MD1310111+9999MW1221
0057029720999991953011000004+60517+022267FM-12+005499999V0209991C00001220001CN0002001N9-00781-00781100591ADDAY141999GF100991001001999999001001MD1310161+9999MW1461
0076029720999991953011006004+60517+022267FM-12+005499999V0209991C00001001501CN0050001N9-00721-00721100881ADDAY121999GF108991081061001501999999IA1209KA1999N-01111MD1310111+9999MW1021
0057029720999991953011012004+60517+022267FM-12+005499999V0202701N00101004501CN0160001N9-00281-00501101181ADDAY121999GF107991071051004501999999MD1310071+9999MW1021
0076029720999991953011018004+60517+022267FM-12+005499999V0209991C00001220001CN0002001N9-01111-01221101511ADDAY141999GF100991001001999999001001IA1209KA1999M-00111MD1310161+9999MW1441
0057029720999991953011100004+60517+022267FM-12+005499999V0209991C00001002401CN0050001N9-00611-00611101751ADDAY141999GF108991081061002501999999MD1310091+9999MW1021
0076029720999991953011106004+60517+022267FM-12+005499999V0202701N00311001501CN0140001N9-00281-00391101881ADDAY121999GF108991081061001501999999IA1209KA1999N-01221MD1310121+9999MW1021
0057029720999991953011112004+60517+022267FM-12+005499999V0202001N00101220001CN0200001N9-00111-00281101941ADDAY111999GF105991001001999999001051MD1990031+9999MW1011
0076029720999991953011118004+60517+022267FM-12+005499999V0202201N00211220001CN0160001N9-00281-00391102221ADDAY101999GF101991001001999999001051IA1199KA1999M+00001MD1310121+9999MW1021
0057029720999991953011200004+60517+022267FM-12+005499999V0202501N00311002401CN0080001N9-00111-00281102461ADDAY101999GF108991081061002501999999MD1310081+9999MW1021
0076029720999991953011206004+60517+022267FM-12+005499999V0202301N00311000601CN0012001N9-00281-00281102661ADDAY141999GF108991081061000751999999IA1209KA1999N-00501MD1210051+9999MW1101
0043029720999991953011212004+60517+022267FM-12+005499999V0202301N00511001501CN0090001N9-00111-00111102611ADDGF108991081061001501999999MD1990051+9999
0076029720999991953011218004+60517+022267FM-12+005499999V0202301N00821001501CN0100001N9+00001-00111102411ADDAY121999GF108991081061001501999999IA1209KA1999M+00111MD1810171+9999MW1021
0057029720999991953011300004+60517+022267FM-12+005499999V0202301N00101000601CN0070001N9+00111+00111102241ADDAY121999GF108991081061000751999999MD1810091+9999MW1021
0087029720999991953011306004+60517+022267FM-12+005499999V0202501N00621001501CN0030001N9+00221+00111102001ADDAA199000691AY151999GF108991081061001501999999IA1209KA1999N+00001MD1810131+9999MW1511
0057029720999991953011312004+60517+022267FM-12+005499999V0202301N00411000601CN0050001N9+00221+00221101841ADDAY151999GF108991081061000751999999MD1810131+9999MW1021
0087029720999991953011318004+60517+022267FM-12+005499999V0202301N00511007801CN0044001N9+00221+00111101711ADDAA199000691AY121999GF108991081061008001999999IA1209KA1999M+00221MD1810071+9999MW1021
0057029720999991953011400004+60517+022267FM-12+005499999V0202301N00411001501CN0070001N9+00221+00111101541ADDAY121999GF108991081061001501999999MD1810131+9999MW1021
0076029720999991953011406004+60517+022267FM-12+005499999V0202401N00621004501CN0100001N9+00281+00111101311ADDAY121999GF108991081061004501999999IA1209KA1999N+00221MD1810121+9999MW1021
0057029720999991953011412004+60517+022267FM-12+005499999V0202201N00511004501CN0140001N9+00281+00001101151ADDAY121999GF108991081051004501999999MD1810131+9999MW1021
0076029720999991953011418004+60517+022267FM-12+005499999V0202301N00511004501CN0100001N9+00221+00111101011ADDAY121999GF108991081051004501999999IA1209KA1999M+00281MD1810051+9999MW1021
0087029720999991953011506004+60517+022267FM-12+005499999V0202501N00411000601CN0040001N9+00221+00221100901ADDAA199003091AY171999GF108991081061000751999999IA1209KA1999N+00111MD1810131+9999MW1601
0057029720999991953011512004+60517+022267FM-12+005499999V0202301N00721001501CN0070001N9+00221+00111100321ADDAY151999GF108991081071001501999999MD1810231+9999MW1021
0063029720999991953011518004+60517+022267FM-12+005499999V0202201N00721001501CN0020001N9+00111+00001099751ADDAY171999GF108991081061001501999999IA1209MD1810151+9999MW1681
0057029720999991953011600004+60517+022267FM-12+005499999V0202001N00311001501CN0030001N9+00111+00111099921ADDAY151999GF108991081061001501999999MD1310111+9999MW1511
0087029720999991953011606004+60517+022267FM-12+005499999V0202501N00211001501CN0044001N9+00111+00111100351ADDAA199002091AY161999GF108991081061001501999999IA1209KA1999N+00111MD1310241+9999MW1021
0057029720999991953011612004+60517+022267FM-12+005499999V0202901N00511001501CN0080001N9+00111+00001100911ADDAY121999GF108991081061001501999999MD1310241+9999MW1021
0076029720999991953011618004+60517+022267FM-12+005499999V0202701N00211002401CN0110001N9+00001-00221101341ADDAY121999GF108991081061002501999999IA1209KA1999M+00111MD1310201+9999MW1021
0097029720999991953011706004+60517+022267FM-12+005499999V0202001N00211220001CN0140001N9+00111+00001101541ADDAY101999GF102991021061004501001001IA1209KA1999N-00111MW1031EQDQ01+000022APCTENQ02+000002APC3  
0057029720999991953011712004+60517+022267FM-12+005499999V0202001N00311004501CN0160001N9+00221+00111101551ADDAY121999GF108991081061004501999999MD1210031+9999MW1021
0076029720999991953011718004+60517+022267FM-12+005499999V0202001N00511002401CN0140001N9+00221+00111101341ADDAY121999GF105991051061002501001001IA1209KA1999M+00221MD1810081+9999MW1021
0057029720999991953011800004+60517+022267FM-12+005499999V0202001N00511002401CN0140001N9+00221+00111100711ADDAY121999GF106991061061002501001001MD1810361+9999MW1011
0076029720999991953011806004+60517+022267FM-12+005499999V0202301N00511001501CN0060001N9+00281+00221100241ADDAY121999GF108991081061001501999999IA1209KA1999N+00001MD1810331+9999MW1021
0057029720999991953011812004+60517+022267FM-12+005499999V0202701N00621220001CN0200001N9+00391+00001099991ADDAY101999GF102991011051004501001021MD1810121+9999MW1021
0095029720999991953011818004+60517+022267FM-12+005499999V0202901N01131220001CN0200001N9+00221-00611100021ADDAY111999GF102991999001999999041001IA1209KA1999M+00391MD1210041+9999MW1011EQDQ01+000002SCOTLC
0087029720999991953011906004+60517+022267FM-12+005499999V0203101N00821220001CN0060001N9-00221-00391100781ADDAA199000691AY171999GF102991021051004501001001IA1199KA1999N-00281MD1310321+9999MW1221
0057029720999991953011912004+60517+022267FM-12+005499999V0203201N00511220001CN0200001N9-00221-00781101411ADDAY101999GF101991011081004501001001MD1310241+9999MW1011
0076029720999991953011918004+60517+022267FM-12+005499999V0202701N00311220001CN0160001N9-00391-00721101801ADDAY101999GF102991021051004501001001IA1199KA1999M-00221MD1310161+9999MW1021
0057029720999991953012000004+60517+022267FM-12+005499999V0202001N00101220001CN0160001N9-01111-01111102041ADDAY171999GF101991011051008001001001MD1310031+9999MW1261
0087029720999991953012006004+60517+022267FM-12+005499999V0202001N00211220001CN0140001N9-00221-00281101661ADDAA199000691AY111999GF107991001001999999021999IA1199KA1999N-01221MD1810321+9999MW1031
0057029720999991953012012004+60517+022267FM-12+005499999V0202301N00511030001CN0160001N9+00001-00221101801ADDAY121999GF107991011051008001071999MD1310291+9999MW1021
0095029720999991953012018004+60517+022267FM-12+005499999V0202301N00311220001CN0200001N9+00001-00111100582ADDAY111999GF102991011051004501041001IA1199KA1999M+00111MD1810211+9999MW1011EQDQ01+100583APOSLP
0057029720999991953012100004+60517+022267FM-12+005499999V0202501N00511220001CN0200001N9+00111-00111100371ADDAY101999GF103991031051004501001001MD1810121+9999MW1021
0095029720999991953012106004+60517+022267FM-12+005499999V0202901N00511220001CN0400001N9+00111-00501100221ADDAY101999GF101991999001999999041001IA1199KA1999N-00111MD1510001+9999MW1021EQDQ01+000002SCOTLC
0076029720999991953012112004+60517+022267FM-12+005499999V0203201N00771220001CN0400001N9+00111-00611100201ADDAY101999GF102991999051004501001001MD1990041+9999MW1021EQDQ01+000012SCOTLC
0095029720999991953012118004+60517+022267FM-12+005499999V0202801N00311220001CN0200001N9-00221-00611100211ADDAY101999GF103991999001999999041001IA1199KA1999M+00111MD1990031+9999MW1031EQDQ01+000002SCOTLC
0057029720999991953012200004+60517+022267FM-12+005499999V0203001N00311030001CN0160001N9-00281-00501100051ADDAY171999GF107991041051008001041999MD1810071+9999MW1221
0057029720999991953012212004+60517+022267FM-12+005499999V0202701N00311007801CN0140001N9-00391-00611100161ADDAY171999GF107991051071008001001061MD1990041+9999MW1261
0063029720999991953012218004+60517+022267FM-12+005499999V0203201N00411007801CN0200001N9-00611-00721100051ADDAY181999GF106991061051008001001001IA1319MD1210031+9999MW1011
0057029720999991953012300004+60517+022267FM-12+005499999V0202701N00101220001CN0400001N9-01391-01501100241ADDAY101999GF100991001001999999001001MD1310041+9999MW1021
0087029720999991953012306004+60517+022267FM-12+005499999V0202901N00211220001CN0140001N9-01391-01391100291ADDAA199000391AY181999GF104991021081004501041001IA1319KA1999N-01781MD1210031+9999MW1261
0057029720999991953012312004+60517+022267FM-12+005499999V0203101N00311220001CN0200001N9-00721-00891100391ADDAY111999GF102991021021008001041011MD1990011+9999MW1021
0087029720999991953012318004+60517+022267FM-12+005499999V0202901N00411220001CN0200001N9-00781-01111100401ADDAA199000691AY101999GF100991001001999999001001IA1319KA1999M-00611MD1210011+9999MW1011
0076029720999991953012400004+60517+022267FM-12+005499999V0203401N00101220001CN0200001N9-01391-01391100401ADDAY101999GF101991999001999999041001MD1710011+9999MW1021EQDQ01+000002SCOTLC
0076029720999991953012406004+60517+022267FM-12+005499999V0209991C00001030001CN0160001N9-01611-01721100251ADDAY121999GF107991031031008001071999IA1319KA1999N-01891MD1810091+9999MW1031
0057029720999991953012412004+60517+022267FM-12+005499999V0203201N00101004501CN0100001N9-00781-00891100201ADDAY121999GF107991061051004501071999MD1810051+9999MW1701
0106029720999991953012418004+60517+022267FM-12+005499999V0203601N00101220001CN0140001N9-01281-01391100291ADDAA199000691AY101999GF101991999001999999041001IA1319KA1999M-00611MD1310081+9999MW1031EQDQ01+000002SCOTLC
0057029720999991953012500004+60517+022267FM-12+005499999V0203201N00101000151CN0008001N9-01501-01611100421ADDAY141999GF107991071061000251999999MD1310041+9999MW1101
0076029720999991953012506004+60517+022267FM-12+005499999V0203601N00101220001CN0034001N9-01781-01891100551ADDAY141999GF100991001001999999001001IA1319KA1999N-01891MD1310091+9999MW1011
0076029720999991953012512004+60517+022267FM-12+005499999V0203201N00101220001CN0140001N9-01281-01281100601ADDAY141999GF103991999001999999041001MD1010011+9999MW1401EQDQ01+000002SCOTLC
0106029720999991953012518004+60517+022267FM-12+005499999V0203601N00411220001CN0100001N9-01111-01111100781ADDAA199001091AY101999GF101991999001999999041001IA1319KA1999M-01001MD1310161+9999MW1011EQDQ01+000002SCOTLC
0057029720999991953012600004+60517+022267FM-12+005499999V0209991C00001220001CN0140001N9-01891-02001101141ADDAY121999GF106991001001999999001061MD1310131+9999MW1031
0087029720999991953012606004+60517+022267FM-12+005499999V0202301N00211004501CN0140001N9-01391-01501101111ADDAA199000691AY171999GF107991071051004501999999IA1319KA1999N-02281MD1510011+9999MW1021
0087029720999991953012618004+60517+022267FM-12+005499999V0201801N00101030001CN0100001N9-00721-00721100861ADDAA199000691AY171999GF107991041051004501071071IA1319KA1999M-00611MD1810081+9999MW1711
0062029720999991953012700004+60517+022267FM-12+005499999V0201301N001019999999N0044001N9-00611-00721100391ADDGF108991999001022501021999MD1810311+9999EQDQ01+000002SCOTLC
0087029720999991953012706004+60517+022267FM-12+005499999V0201801N00311002401CN0090001N9-00111-00221099541ADDAA199001091AY171999GF108991081061002501999999IA1319KA1999N-01001MD1810441+9999MW1021
0057029720999991953012712004+60517+022267FM-12+005499999V0201801N00511001501CN0030001N9+00111+00001098741ADDAY171999GF108991081061001501999999MD1810441+9999MW1681
0087029720999991953012718004+60517+022267FM-12+005499999V0201801N00411001501CN0024001N9+00111+00001098191ADDAA199003091AY171999GF108991081061001501999999IA1209KA1999M+00111MD1810231+9999MW1681
0043029720999991953012800004+60517+022267FM-12+005499999V0202001N00411001501CN9999999N9+00111+00001097891ADDGF108991081061001501999999MD1810091+9999
0087029720999991953012806004+60517+022267FM-12+005499999V0202501N00051000151CN0002001N9-00391-00391097491ADDAA199000691AY141999GF108991081061000251999999IA1319KA1999N-00501MD1810231+9999MW1471
0057029720999991953012812004+60517+022267FM-12+005499999V0201501N00101000601CN0024001N9+00001+00001097211ADDAY141999GF108991081061000751999999MD1810161+9999MW1681
0087029720999991953012818004+60517+022267FM-12+005499999V0201101N00261004501CN9999999N9+00111-00111097641ADDAA199000391AY121999GF108991061071004501021999IA1189KA1999M+00111MD1310131+9999MW1701
0057029720999991953012900004+60517+022267FM-12+005499999V0200901N00211030001CN0040001N9-00111-00111097821ADDAY171999GF108991041061002501011999MD1310201+9999MW1711
0087029720999991953012906004+60517+022267FM-12+005499999V0200901N00101002401CN0080001N9-00281-00391098141ADDAA199005091AY171999GF108991081061002501999999IA1319KA1999N-00391MD1310131+9999MW1221
0057029720999991953012912004+60517+022267FM-12+005499999V0203301N00211004501CN0140001N9-00281-00501098511ADDAY121999GF108991081051004501999999MD1310201+9999MW1021
0076029720999991953012918004+60517+022267FM-12+005499999V0203201N00101004501CN0044001N9-00611-00721099041ADDAY121999GF108991081061004501999999IA1319KA1999M-00281MD1310251+9999MW1031
0057029720999991953013000004+60517+022267FM-12+005499999V0202701N00511220001CN0110001N9-00391-00501099491ADDAY101999GF100991001001999999001001MD1310201+9999MW1011
0076029720999991953013006004+60517+022267FM-12+005499999V0202701N00411220001CN0160001N9-00391-00611099761ADDAY101999GF101991001001999999001051IA1319KA1999N-00721MD1310111+9999MW1021
0057029720999991953013012004+60517+022267FM-12+005499999V0202701N00721030001CN0200001N9-00111-00501099941ADDAY121999GF107991011061004501071051MD1210041+9999MW1011
0087029720999991953013018004+60517+022267FM-12+005499999V0202701N00411220001CN0200001N9-00281-00721100111ADDAA199000391AY101999GF101991001001999999001051IA1319KA1999M-00111MD1310071+9999MW1021
0076029720999991953013100004+60517+022267FM-12+005499999V0202301N00311220001CN0050001N9-01111-01111100121ADDAY101999GF102991999001999999041001MD1310041+9999MW1121EQDQ01+000002SCOTLC
0063029720999991953013106004+60517+022267FM-12+005499999V0209991C00001220001CN0070001N9-01001-01001100051ADDAY121999GF108991001001999999011999IA1319MD1710071+9999MW1031
0057029720999991953013112004+60517+022267FM-12+005499999V0200901N00311220001CN0044001N9-00391-00501099721ADDAY121999GF108991001001999999071999MD1810201+9999MW1031
0087029720999991953013118004+60517+022267FM-12+005499999V0200901N00721002401CN0030001N9-00281-00391099541ADDAA199000591AY171999GF108991081061002501999999IA1319KA1999M-00281MD1810091+9999MW1711
0057029720999991953020100004+60517+022267FM-12+005499999V0200901N00721002401CN0040001N9-00281-00391099541ADDAY171999GF108991061061002501021999MD1310011+9999MW1711
0087029720999991953020106004+60517+022267FM-12+005499999V0200901N00821002401CN0040001N9-00221-00391099611ADDAA199002091AY171999GF108991081061002501999999IA1319KA1999N-00281MD1310091+9999MW1711
0057029720999991953020112004+60517+022267FM-12+005499999V0200901N00721001501CN0024001N9-00221-00391999999ADDAY171999GF108991081061001501999999MD1310201+9999MW1731
0087029720999991953020118004+60517+022267FM-12+005499999V0200701N00311002401CN0050001N9-00281-00501100401ADDAA199003091AY171999GF108991081061002501999999IA1319KA1999M-00221MD1310201+9999MW1711
0057029720999991953020200004+60517+022267FM-12+005499999V0200901N00411004501CN0050001N9-00281-00391100881ADDAY171999GF108991081061004501999999MD1310251+9999MW1711
0087029720999991953020206004+60517+022267FM-12+005499999V0200701N00311002401CN0020001N9-00391-00501101391ADDAA199003091AY171999GF108991081061002501999999IA1319KA1999N-00391MD1310271+9999MW1731
0057029720999991953020212004+60517+022267FM-12+005499999V0200801N00051002401CN0046001N9-00221-00221102021ADDAY171999GF108991081061002501999999MD1310291+9999MW1721
0087029720999991953020218004+60517+022267FM-12+005499999V0200401N00311004501CN0070001N9-00781-01111102461ADDAA199001091AY121999GF108991081051004501999999IA1319KA1999M-00391MD1310241+9999MW1031
0106029720999991953020306004+60517+022267FM-12+005499999V0203601N00101220001CN0044001N9-01221-01281102911ADDAA199001091AY121999GF103991999001999999041001IA1319KA1999N-01221MD1310131+9999MW1011EQDQ01+000002SCOTLC
0057029720999991953020312004+60517+022267FM-12+005499999V0203601N00101220001CN0080001N9-01221-01391102771ADDAY101999GF101991001001999999001041MD1810111+9999MW1051
0076029720999991953020318004+60517+022267FM-12+005499999V0203601N00101220001CN0050001N9-01781-02001102401ADDAY101999GF100991001001999999001001IA1319KA1999M-01221MD1810241+9999MW1011
0057029720999991953020400004+60517+022267FM-12+005499999V0201201N00101220001CN0110001N9-01391-01611101841ADDAY121999GF108991001001999999071999MD1810291+9999MW1031
0057029720999991953020412004+60517+022267FM-12+005499999V0201201N01031004501CN0040001N9-00721-00891101011ADDAY171999GF108991081061004501999999MD1610031+9999MW1711
0087029720999991953020418004+60517+022267FM-12+005499999V0200901N00051220001CN0050001N9-01111-01391101091ADDAA199000391AY171999GF103991031051004501001001IA1319KA1999M-00721MD1010011+9999MW1221
0057029720999991953020500004+60517+022267FM-12+005499999V0200701N00721004501CN0030001N9-01281-01501101241ADDAY171999GF108991081051004501999999MD1310071+9999MW1721
0087029720999991953020506004+60517+022267FM-12+005499999V0200701N00721004501CN0140001N9-01721-02001101251ADDAA199000691AY121999GF107991071051004501999999IA1319KA1999N-01781MD1310051+9999MW1011
0057029720999991953020512004+60517+022267FM-12+005499999V0200701N00621220001CN0160001N9-01501-02001101241ADDAY131999GF107991001001999999041071MD1710011+9999MW1021
0097029720999991953020518004+60517+022267FM-12+005499999V0200401N00621220001CN0160001N9-01781-02221101311ADDAY111999GF102991001001999999001051IA1319KA1999M-01501MW1011EQDQ01+000042APCTENQ02+000052APC3  
0076029720999991953020606004+60517+022267FM-12+005499999V0200201N00511220001CN0200001N9-02391-02721101291ADDAY101999GF102991001001999999001051IA1319KA1999N-02391MD1710031+9999MW1021
0057029720999991953020612004+60517+022267FM-12+005499999V0200401N00621220001CN0200001N9-01891-02391101221ADDAY101999GF103991001001999999001051MD1990071+9999MW1031
0076029720999991953020618004+60517+022267FM-12+005499999V0200401N00411220001CN0160001N9-02111-02501101311ADDAY101999GF100991001001999999001001IA1319KA1999M-01891MD1310081+9999MW1021
0057029720999991953020700004+60517+022267FM-12+005499999V0200401N00621012301CN0160001N9-02221-02501101311ADDAY111999GF108991081061012501999999MD1310011+9999MW1021
0087029720999991953020706004+60517+022267FM-12+005499999V0200401N00411220001CN0140001N9-02221-02501101321ADDAA199000691AY121999GF108991001001999999071999IA1319KA1999N-02281MD1210031+9999MW1031
0057029720999991953020712004+60517+022267FM-12+005499999V0200701N00311220001CN0080001N9-01721-02111101401ADDAY171999GF108991001001999999071071MD1310051+9999MW1761
0087029720999991953020718004+60517+022267FM-12+005499999V0200701N00621030001CN0034001N9-01611-01891101591ADDAA199000591AY171999GF108991041051004501011999IA1319KA1999M-01611MD1310111+9999MW1711
0057029720999991953020800004+60517+022267FM-12+005499999V0200701N00411030001CN0060001N9-01721-02001101741ADDAY171999GF108991041051004501011999MD1310041+9999MW1021
0087029720999991953020806004+60517+022267FM-12+005499999V0200701N00511004501CN0030001N9-01391-01611101801ADDAA199000391AY171999GF108991081051004501999999IA1319KA1999N-01721MD1310071+9999MW1711
0057029720999991953020812004+60517+022267FM-12+005499999V0200701N00511220001CN0050001N9-01111-01391101891ADDAY171999GF107991001001999999071061MD1010011+9999MW1221
0087029720999991953020818004+60517+022267FM-12+005499999V0200701N00411004501CN0030001N9-01281-01501102011ADDAA199000691AY171999GF108991081061004501999999IA1319KA1999M-01111MD1310111+9999MW1711
0078029720999991953020900004+60517+022267FM-12+005499999V0200901N00411004501CN0050001N9-01221-01391102011ADDAY171999GF107991071061004501999999MW1711EQDQ01+000022APCTENQ02+000002APC3  
0087029720999991953020906004+60517+022267FM-12+005499999V0200901N00621004501CN0034001N9-01111-01281101971ADDAA199000591AY121999GF108991081061004501999999IA1319KA1999N-01281MD1610041+9999MW1711
0057029720999991953020912004+60517+022267FM-12+005499999V0200901N00411030001CN0070001N9-01221-01501101981ADDAY171999GF107991041061004501071051MD1510011+9999MW1711
0087029720999991953020918004+60517+022267FM-12+005499999V0200901N00511004501CN0050001N9-01221-01501102001ADDAA199000691AY171999GF108991081061004501999999IA1319KA1999M-01111MD1110051+9999MW1711
0057029720999991953021000004+60517+022267FM-12+005499999V0200701N00511004501CN0050001N9-01391-01611101951ADDAY171999GF108991081061004501999999MD1810111+9999MW1111
0087029720999991953021006004+60517+022267FM-12+005499999V0200701N00511004501CN0040001N9-01721-01891101601ADDAA199000691AY171999GF108991071061004501021999IA1319KA1999N-01721MD1810191+9999MW1771
0057029720999991953021012004+60517+022267FM-12+005499999V0200701N00511220001CN0040001N9-01281-01611101121ADDAY171999GF108991001001999999021999MD1810251+9999MW1771
0084029720999991953021018004+60517+022267FM-12+005499999V0200701N00311220001CN0034001N9-01391-01611101091ADDAY171999GF105991001001999999071999IA1319MW1711EQDQ01+000042APCTENQ02+000042APC3  
0057029720999991953021100004+60517+022267FM-12+005499999V0200901N00211004501CN0030001N9-01111-01281101321ADDAY171999GF108991051051004501021999MD1310111+9999MW1731
0087029720999991953021106004+60517+022267FM-12+005499999V0200901N00411004501CN0040001N9-00891-01111101601ADDAA199000391AY171999GF108991081051004501999999IA1319KA1999N-01501MD1310171+9999MW1711
0057029720999991953021112004+60517+022267FM-12+005499999V0200901N00511030001CN0060001N9-00781-01001101941ADDAY171999GF107991041051004501071071MD1310111+9999MW1711
0087029720999991953021118004+60517+022267FM-12+005499999V0200701N00511220001CN0110001N9-01221-01391102161ADDAA199000691AY171999GF102991021051004501001001IA1319KA1999M-00721MD1310131+9999MW1011
0057029720999991953021200004+60517+022267FM-12+005499999V0200201N00511007801CN0030001N9-01111-01281102281ADDAY171999GF108991081061008001999999MD1310081+9999MW1711
0087029720999991953021206004+60517+022267FM-12+005499999V0200701N00511004501CN0030001N9-01001-01221102341ADDAA199001091AY171999GF108991081061004501999999IA1319KA1999N-01221MD1310041+9999MW1711
0057029720999991953021212004+60517+022267FM-12+005499999V0200701N00511004501CN0030001N9-01001-01281102411ADDAY171999GF108991061061004501021999MD1110011+9999MW1731
0087029720999991953021218004+60517+022267FM-12+005499999V0200701N00411007801CN0060001N9-01221-01501102551ADDAA199001091AY171999GF108991051061008001071999IA1319KA1999M-01001MD1310081+9999MW1711
0057029720999991953021300004+60517+022267FM-12+005499999V0200901N00411004501CN0060001N9-01221-01391102651ADDAY171999GF108991081061004501999999MD1310041+9999MW1711
0087029720999991953021306004+60517+022267FM-12+005499999V0200601N00311004501CN0034001N9-01111-01281102641ADDAA199000691AY171999GF108991081061004501999999IA1319KA1999N-01221MD1990011+9999MW1711
0057029720999991953021312004+60517+022267FM-12+005499999V0200701N00211004501CN0050001N9-01001-01111102681ADDAY171999GF107991051051004501041021MD1990011+9999MW1711
0108029720999991953021318004+60517+022267FM-12+005499999V0200401N00211220001CN0060001N9-01221-01391102611ADDAA199000691AY121999GF107991001001999999071999IA1319KA1999M-01001MW1021EQDQ01+000072APCTENQ02+000002APC3  
0057029720999991953021400004+60517+022267FM-12+005499999V0200401N00101220001CN0140001N9-01391-01611102451ADDAY121999GF108991001001999999071999MD1810111+9999MW1031
0076029720999991953021406004+60517+022267FM-12+005499999V0202001N00101220001CN0024001N9-01391-01611102281ADDAY121999GF108991001001999999071999IA1319KA1999N-01501MD1810091+9999MW1021
0057029720999991953021412004+60517+022267FM-12+005499999V0201401N00101004501CN0070001N9-00891-01221102141ADDAY121999GF108991061061004501999999MD1810111+9999MW1021
0076029720999991953021418004+60517+022267FM-12+005499999V0202201N00101004501CN0070001N9-00611-00611101851ADDAY121999GF108991081061004501999999IA1319KA1999M-00501MD1810081+9999MW1021
0057029720999991953021500004+60517+022267FM-12+005499999V0202201N00101220001CN0100001N9-00891-01001101861ADDAY101999GF100991001001999999001001MD1310041+9999MW1011
0097029720999991953021506004+60517+022267FM-12+005499999V0209991C00001030001CN0050001N9-01111-01221101941ADDAY101999GF107991041061004501071001IA1319KA1999N-01221MW1021EQDQ01+000042APCTENQ02+000042APC3  
0057029720999991953021512004+60517+022267FM-12+005499999V0202301N00211220001CN0090001N9-00721-00891102121ADDAY111999GF105991001001999999041011MD1310081+9999MW1011
0095029720999991953021518004+60517+022267FM-12+005499999V0202201N00101220001CN0080001N9-01001-01111102081ADDAY121999GF107991999001999999071001IA1319KA1999M-00611MD1990011+9999MW1021EQDQ01+000002SCOTLC
0057029720999991953021600004+60517+022267FM-12+005499999V0202201N00101220001CN0140001N9-00781-00781101891ADDAY121999GF108991001001999999071999MD1810151+9999MW1031
0076029720999991953021606004+60517+022267FM-12+005499999V0202201N00311030001CN0090001N9-00281-00391101581ADDAY121999GF108991041051004501071999IA1319KA1999N-01111MD1710171+9999MW1021
0057029720999991953021612004+60517+022267FM-12+005499999V0202201N00621002401CN0110001N9-00221-00501101321ADDAY121999GF108991081061002501999999MD1810151+9999MW1021
0087029720999991953021618004+60517+022267FM-12+005499999V0202301N00621001501CN0110001N9-00221-00281100911ADDAA199000691AY121999GF108991081061001501999999IA1309KA1999M-00111MD1810271+9999MW1021
0057029720999991953021700004+60517+022267FM-12+005499999V0201801N00511002401CN0010001N9-00111-00111100281ADDAY171999GF108991081061002501999999MD1810351+9999MW1721
0087029720999991953021706004+60517+022267FM-12+005499999V0202301N00511000151CN0004001N9+00001+00001099491ADDAA199002091AY121999GF108991081061000251999999IA1209KA1999N-00221MD1810291+9999MW1511
0070029720999991953021712004+60517+022267FM-12+005499999V0202701N00511001501CN0024001N9+00111+00001099241ADDAY171999GF108991081061001501999999MD1610081+9999EQDQ01+000782PRSWM1
0087029720999991953021718004+60517+022267FM-12+005499999V0202501N00101000151CN0008001N9-00281-00281099261ADDAA124999999AY111999GF108991081061000251999999IA1209KA1999M+00111MD1210031+9999MW1471
0057029720999991953021800004+60517+022267FM-12+005499999V0209991C00001001501CN0050001N9-00501-00501099381ADDAY141999GF108991081061001501999999MD1310051+9999MW1031
0087029720999991953021806004+60517+022267FM-12+005499999V0209991C00001000151CN0002001N9-00221-00221099481ADDAA199000391AY121999GF108991081061000251999999IA1209KA1999N-00611MD1310111+9999MW1471
0057029720999991953021812004+60517+022267FM-12+005499999V0202701N003119999999N0140001N9+00111-00111099581ADDAY121999GF107991021051004501999999MD1110011+9999MW1011
0087029720999991953021818004+60517+022267FM-12+005499999V0202301N00211220001CN0110001N9-00111-00281099191ADDAA199000691AY121999GF108991001001999999071999IA1319KA1999M+00221MD1810251+9999MW1031
0076029720999991953021900004+60517+022267FM-12+005499999V0201801N00621004501CN0030001N9+00001+00001098081ADDAY171999GF108991061061004501021999MD1810602+9999MW1711EQDQ01+000602APC3  
0087029720999991953021906004+60517+022267FM-12+005499999V0202901N00621001501CN0080001N9+00111+00001097591ADDAA199005091AY151999GF108991071061001501021999IA1209KA1999N-00111MD1810121+9999MW1231
0057029720999991953021912004+60517+022267FM-12+005499999V0203201N01231004501CN0024001N9-00391-00611097941ADDAY171999GF108991071061004501021999MD1310121+9999MW1391
0106029720999991953021918004+60517+022267FM-12+005499999V0203201N01441007801CN0016001N9-00501-00611098951ADDAA199000691AY171999GF108991081051008001999999IA1319KA1999M+00111MD1310632+9999MW1751EQDQ01+000632APC3  
0076029720999991953022000004+60517+022267FM-12+005499999V0203201N01131220001CN0100001N9-00721-01001099811ADDAY131999GF104991999001999999071001MD1310391+9999MW1371EQDQ01+000002SCOTLC
0087029720999991953022006004+60517+022267FM-12+005499999V0202901N00621220001CN0400001N9-00891-01281100511ADDAA199000391AY101999GF100991001001999999001001IA1319KA1999N-01001MD1310291+9999MW1021
0057029720999991953022012004+60517+022267FM-12+005499999V0202501N00411220001CN0400001N9-00391-00721100681ADDAY101999GF101991001001999999001011MD1210011+9999MW1031
0076029720999991953022018004+60517+022267FM-12+005499999V0201801N00101220001CN0200001N9-01281-01281100591ADDAY101999GF107991001001999999021071IA1319KA1999M-00391MD1990121+9999MW1031
0076029720999991953022100004+60517+022267FM-12+005499999V0201601N001019999999N0050001N9-00281-00391099851ADDAY121999GF108991999001017501021999MD1810401+9999MW1711EQDQ01+000002SCOTLC
0087029720999991953022106004+60517+022267FM-12+005499999V0201601N00511000601CN0030001N9-00111-00111099201ADDAA199000691AY151999GF108991081061000751999999IA1319KA1999N-01281MD1810281+9999MW1561
0057029720999991953022112004+60517+022267FM-12+005499999V0201401N00311001501CN0040001N9+00111+00111098791ADDAY121999GF108991081061001501999999MD1810311+9999MW1021
0079029720999991953022118004+60517+022267FM-12+005499999V0200901N00311000601CN0024001N9+00111+00001098211ADDAA199001091AY171999GF108991999061000751021999IA1209MW1681EQDQ01+000082SCOTLC
0076029720999991953022200004+60517+022267FM-12+005499999V0209991C00001001501CN0050001N9+00001+00001098641ADDAY171999GF108991999061001501021999MD1310281+9999MW1681EQDQ01+000082SCOTLC
0087029720999991953022206004+60517+022267FM-12+005499999V0202901N00721004501CN0050001N9+00001+00001099061ADDAA199002091AY121999GF108991081061004501999999IA1319KA1999N+00001MD1310241+9999MW1681
0057029720999991953022212004+60517+022267FM-12+005499999V0203201N00721030001CN0400001N9-00111-00501099541ADDAY121999GF106991021011008001041021MD1310191+9999MW1011
0106029720999991953022218004+60517+022267FM-12+005499999V0203201N00511220001CN0200001N9-00611-00891099851ADDAA199000691AY111999GF102991999001008001041001IA1319KA1999M+00111MD1310161+9999MW1011EQDQ01+000002SCOTLC
0057029720999991953022300004+60517+022267FM-12+005499999V0203401N00621220001CN0160001N9-00721-00891100261ADDAY111999GF100991001001999999001001MD1310291+9999MW1011
0095029720999991953022306004+60517+022267FM-12+005499999V0202901N00411220001CN0160001N9-00891-01111100661ADDAY101999GF101991999001999999041001IA1319KA1999N-01111MD1310191+9999MW1011EQDQ01+000002SCOTLC
0057029720999991953022312004+60517+022267FM-12+005499999V0202401N00101220001CN0200001N9-00281-00781100801ADDAY101999GF102991001001999999001011MD1010011+9999MW1031
0076029720999991953022318004+60517+022267FM-12+005499999V0201201N00211220001CN0140001N9-00501-00721100641ADDAY121999GF108991001001999999071999IA1319KA1999M-00221MD1810091+9999MW1021
0076029720999991953022406004+60517+022267FM-12+005499999V0200901N00101220001CN0100001N9-00721-00891101281ADDAY121999GF108991001001999999071999IA1319KA1999N-00781MD1310321+9999MW1021
0057029720999991953022412004+60517+022267FM-12+005499999V0201601N00101030001CN0110001N9-00391-00781101911ADDAY171999GF108991041051008001071999MD1810271+9999MW1021
0076029720999991953022418004+60517+022267FM-12+005499999V0202201N00101001501CN0060001N9-00221-00391102371ADDAY121999GF108991081061001501999999IA1319KA1999M-00221MD1310271+9999MW1021
0057029720999991953022500004+60517+022267FM-12+005499999V0209991C00001004501CN0100001N9-00111-00221102621ADDAY121999GF108991081051004501999999MD1310131+9999MW1001
0087029720999991953022506004+60517+022267FM-12+005499999V0202001N00411002401CN0160001N9+00001-00221102651ADDAA199000691AY121999GF108991081061002501999999IA1319KA1999N-00281MD1310031+9999MW1021
0057029720999991953022512004+60517+022267FM-12+005499999V0202001N00511001501CN0030001N9+00111+00111102521ADDAY151999GF108991081061001501999999MD1710091+9999MW1511
0087029720999991953022518004+60517+022267FM-12+005499999V0202201N00721001501CN0030001N9+00111+00111102251ADDAA199000391AY121999GF108991081061001501999999IA1209KA1999M+00111MD1810161+9999MW1521
0057029720999991953022600004+60517+022267FM-12+005499999V0202401N00311001501CN0050001N9+00221+00221102181ADDAY171999GF108991081061001501999999MD1310081+9999MW1021
0087029720999991953022606004+60517+022267FM-12+005499999V0202301N00101220001CN0010001N9-00221-00221102421ADDAA199000391AY141999GF101991001001999999001011IA1209KA1999N-00501MD1310121+9999MW1461
0057029720999991953022612004+60517+022267FM-12+005499999V0202001N00311000151CN0002001N9+00001+00001102421ADDAY141999GF108991081061000251999999MD1810081+9999MW1451
0087029720999991953022618004+60517+022267FM-12+005499999V0202001N00411000151CN0004001N9+00221+00221101951ADDAA199000691AY141999GF108991081061000251999999IA1209KA1999M+00281MD1810231+9999MW1451
0057029720999991953022700004+60517+022267FM-12+005499999V0202901N00211220001CN0008001N9+00221+00221102021ADDAY141999GF100991001001999999001001MD1310081+9999MW1461
0076029720999991953022706004+60517+022267FM-12+005499999V0209991C00001030001CN0008001N9-00221-00221102211ADDAY141999GF106991031061001501041051IA1209KA1999N-00281MD1310111+9999MW1421
0057029720999991953022712004+60517+022267FM-12+005499999V0203601N00101004501CN0016001N9+00221+00221101991ADDAY121999GF108991051061004501071999MD1810161+9999MW1601
0087029720999991953022718004+60517+022267FM-12+005499999V0200701N00101002401CN0020001N9+00221+00111102011ADDAA199005091AY161999GF108991081061002501999999IA1209KA1999M+00281MD1210151+9999MW1631
0057029720999991953022800004+60517+022267FM-12+005499999V0203401N00311030001CN0080001N9+00111+00001102461ADDAY121999GF108991041061004501071999MD1310271+9999MW1021
0087029720999991953022806004+60517+022267FM-12+005499999V0203201N00311220001CN0140001N9+00001-00221102981ADDAA199001091AY101999GF101991001001999999001011IA1209KA1999N+00001MD1310161+9999MW1011
0043029720999991953022812004+60517+022267FM-12+005499999V0203201N00411220001CN0400001N9+00281-00221103261ADDAY111999GF101991001001999999001021MW1011
0076029720999991953022818004+60517+022267FM-12+005499999V0202501N00211220001CN0200001N9-00111-00221103311ADDAY101999GF100991001001999999001001IA1209KA1999M+00391MD1210011+9999MW1011
0076029720999991953030106004+60517+022267FM-12+005499999V0202401N00101220001CN0200001N9-00281-00391102711ADDAY121999GF106991001001999999001061IA1209KA1999N-00501MD1810121+9999MW1021
0057029720999991953030112004+60517+022267FM-12+005499999V0202301N00211220001CN0400001N9+00391-00281102541ADDAY101999GF104991001001999999001011MD1810121+9999MW1031
0097029720999991953030118004+60517+022267FM-12+005499999V0202701N00101220001CN0200001N9-00111-00221102401ADDAY101999GF102991001001999999041051IA1209KA1999M+00501MW1011EQDQ01+000032APCTENQ02+000002APC3  
0057029720999991953030200004+60517+022267FM-12+005499999V0209991C00001220001CN0200001N9-00501-00501102341ADDAY121999GF106991001001999999041051MD1810031+9999MW1021
0063029720999991953030206004+60517+022267FM-12+005499999V0202001N00101220001CN0110001N9-00721-00721102181ADDAY101999GF104991001001999999041011IA1209MD1810081+9999MW1111
0057029720999991953030212004+60517+022267FM-12+005499999V0202501N00311220001CN0400001N9+00501-00111101761ADDAY111999GF104991001001999999001051MD1810361+9999MW1021
0057029720999991953030300004+60517+022267FM-12+005499999V0202401N00411220001CN0160001N9+00221-00111100051ADDAY121999GF107991001001999999071999MD1810451+9999MW1011
0113029720999991953030306004+60517+022267FM-12+005499999V0203201N01131220001CN0400001N9+00111-00221100011ADDAY101999GF102991999001999999041001IA1159KA1999N+00001MW1021EQDQ01+000002SCOTLCQ02+000042APCTENQ03+000232APC3  
0057029720999991953030312004+60517+022267FM-12+005499999V0203201N01541007801CN0200001N9-00111-01001100781ADDAY121999GF105991051021008001001001MD1310361+9999MW1031
0057029720999991953030400004+60517+022267FM-12+005499999V0203401N00821220001CN0600001N9-00501-01221101611ADDAY101999GF100991001001999999001001MD1310081+9999MW1021
0076029720999991953030406004+60517+022267FM-12+005499999V0203201N00411220001CN0400001N9-00721-01221101741ADDAY101999GF102991001001999999001051IA1209KA1999N-00781MD1310041+9999MW1031
0057029720999991953030412004+60517+022267FM-12+005499999V0203101N00311220001CN0400001N9-00221-01221101741ADDAY111999GF105991001001999999041021MD1310031+9999MW1031
0076029720999991953030418004+60517+022267FM-12+005499999V0203401N00311220001CN0400001N9-00611-01221102061ADDAY101999GF100991001001999999001001IA1199KA1999M+00001MD1810281+9999MW1021
0057029720999991953030500004+60517+022267FM-12+005499999V0203601N00211220001CN0400001N9-01221-01281102641ADDAY101999GF100991001001999999001001MD1810311+9999MW1021
0089029720999991953030506004+60517+022267FM-12+005499999V0202001N00101220001CN0140001N9-01611-01611102991ADDAY101999GF102991001001999999001051KA1999N+99999MD1990091+9999MW1021EQDQ01 -01392ATMN  
0057029720999991953030512004+60517+022267FM-12+005499999V0202301N00411220001CN0400001N9-00111-00721102721ADDAY111999GF107991001001999999071999MD1810271+9999MW1031
0076029720999991953030606004+60517+022267FM-12+005499999V0202701N00101220001CN0110001N9-00281-00281101881ADDAY111999GF106991001001999999041051IA1199KA1999N-00391MD1810091+9999MW1031
0057029720999991953030612004+60517+022267FM-12+005499999V0202301N00211220001CN0400001N9+00611-00111101401ADDAY101999GF104991001001999999041011MD1810321+9999MW1031
0076029720999991953030618004+60517+022267FM-12+005499999V0202201N00411000601CN0014001N9+00221+00001100771ADDAY111999GF108991081061000751999999IA1199KA1999M+00611MD1810321+9999MW1401
0057029720999991953030700004+60517+022267FM-12+005499999V0209991C00001000601CN0004001N9-00111-00111100111ADDAY141999GF108991081061000751999999MD1810311+9999MW1451
0084029720999991953030706004+60517+022267FM-12+005499999V0203201N00511030001CN0140001N9+00111-00221099971ADDAY121999GF108991041061004501021999IA1199MW1011EQDQ01+000042APCTENQ02+000012APC3  
0057029720999991953030712004+60517+022267FM-12+005499999V0203601N01031030001CN0400001N9+00281-00501100441ADDAY121999GF107991011011008001021081MD1810211+9999MW1021
0082029720999991953030718004+60517+022267FM-12+005499999V0203601N01031220001CN0400001N9-00221-01221101451ADDAY101999GF100991001001999999001001IA1199MD1310562+9999MW1021EQDQ01+000562APC3  
0057029720999991953030800004+60517+022267FM-12+005499999V0203601N00511220001CN0400001N9-00611-01281102161ADDAY101999GF100991001001999999001001MD1310311+9999MW1021
0076029720999991953030806004+60517+022267FM-12+005499999V0203201N00101220001CN0400001N9-01111-01281102391ADDAY101999GF104991001001999999041011IA1199KA1999N-01221MD1110111+9999MW1021
0057029720999991953030812004+60517+022267FM-12+005499999V0202301N00311220001CN0400001N9+00111-00501102221ADDAY111999GF107991001001999999011051MD1810131+9999MW1011
0076029720999991953030818004+60517+022267FM-12+005499999V0202301N00211220001CN0400001N9+00001-00281101921ADDAY121999GF107991001001999999071999IA1199KA1999M+00111MD1810121+9999MW1031
0076029720999991953030900004+60517+022267FM-12+005499999V0202301N00411220001CN0400001N9-00281-00611101571ADDAY101999GF102991999001999999071001MD1810191+9999MW1021EQDQ01+000002SCOTLC
0063029720999991953030906004+60517+022267FM-12+005499999V0202701N00411220001CN0110001N9+00221-00111101051ADDAY161999GF108991001001999999071999IA1209MD1810211+9999MW1611
0057029720999991953030912004+60517+022267FM-12+005499999V0203001N01231220001CN0400001N9+00391-00281100821ADDAY101999GF102991011011012501041011MD1990041+9999MW1021
0124029720999991953030918004+60517+022267FM-12+005499999V0203201N01031220001CN0400001N9+00001-00501100861ADDAA199002091AY101999GF101991999001999999041001IA1159KA1999M+00501MW1021EQDQ01+000002SCOTLCQ02+000042APCTENQ03+000012APC3  
0076029720999991953031000004+60517+022267FM-12+005499999V0203301N00931220001CN0400001N9-00111-00611101251ADDAY101999GF101991999001999999041001MD1310211+9999MW1011EQDQ01+000002SCOTLC
0063029720999991953031006004+60517+022267FM-12+005499999V0203401N01031220001CN0400001N9-00221-00781101841ADDAY101999GF101991001001999999041011IA1199MD1310391+9999MW1021
0057029720999991953031012004+60517+022267FM-12+005499999V0203601N00931220001CN0400001N9-00111-01001102241ADDAY101999GF100991001001999999001001MD1310161+9999MW1021
0082029720999991953031018004+60517+022267FM-12+005499999V0203401N00621220001CN0400001N9-00391-00781102351ADDAY101999GF101991999001999999041001IA1199MD1310051+9999MW1031EQDQ01+000002SCOTLC
0057029720999991953031100004+60517+022267FM-12+005499999V0203401N00211220001CN0200001N9-01001-01111102291ADDAY111999GF103991001001999999071051MD1710041+9999MW1031
0076029720999991953031106004+60517+022267FM-12+005499999V0209999999999220001CN0140001N9-00891-01221102181ADDAY121999GF199999001001999999071999IA1199KA1999N-01111MD1810051+9999MW1021
0057029720999991953031112004+60517+022267FM-12+005499999V0200701N00211021001CN0070001N9-00611-00781102251ADDAY171999GF108991081001022501021011MD1710031+9999MW1711
0106029720999991953031118004+60517+022267FM-12+005499999V0203601N00101220001CN0200001N9-00891-01111102391ADDAA199000691AY101999GF101991999001999999041001IA1199KA1999M-00501MD1310111+9999MW1011EQDQ01+000002SCOTLC
0076029720999991953031200004+60517+022267FM-12+005499999V0203401N00101220001CN0400001N9-01501-01501102651ADDAY101999GF101991999001999999041001MD1310081+9999MW1021EQDQ01+000002SCOTLC
0076029720999991953031206004+60517+022267FM-12+005499999V0203401N00101220001CN0140001N9-01781-01891102781ADDAY101999GF100991001001999999001001IA1009KA1999N-01891MD1310041+9999MW1041
0076029720999991953031212004+60517+022267FM-12+005499999V0209991C00001220001CN0400001N9-00281-01221102841ADDAY101999GF101991999001999999041001MD1990011+9999MW1021EQDQ01+000002SCOTLC
0113029720999991953031218004+60517+022267FM-12+005499999V0203001N00101220001CN0200001N9-00611-01111102791ADDAY111999GF105991999001999999041001IA1199KA1999M-00221MW1031EQDQ01+000002SCOTLCQ02+000072APCTENQ03+000002APC3  
0057029720999991953031300004+60517+022267FM-12+005499999V0203201N00101007801CN0160001N9+99999+99999999999ADDAY121999GF108991081051008001999999MD1310031+9999MW1881
0087029720999991953031306004+60517+022267FM-12+005499999V0201401N00101004501CN0160001N9-00501-00781102941ADDAA199000691AY121999GF108991081061004501999999IA1009KA1999N-00501MD1310121+9999MW1021
0057029720999991953031312004+60517+022267FM-12+005499999V0202001N00311007801CN0400001N9-00111-00611103321ADDAY121999GF108991051051008001071999MD1310131+9999MW1021
0076029720999991953031318004+60517+022267FM-12+005499999V0202301N00511001501CN0160001N9-00111-00221103261ADDAY121999GF108991081061001501999999IA1199KA1999M+00001MD1610031+9999MW1031
0057029720999991953031400004+60517+022267FM-12+005499999V0202301N00621000601CN0100001N9-00111-00111102891ADDAY121999GF108991081061000751999999MD1810241+9999MW1021
0076029720999991953031406004+60517+022267FM-12+005499999V0202701N00311220001CN0200001N9+00001-00391102601ADDAY121999GF107991001001999999071061IA1199KA1999N-00111MD1810071+9999MW1031
0078029720999991953031412004+60517+022267FM-12+005499999V0203101N00511220001CN0400001N9+00611+00001102621ADDAY121999GF107991001001999999071051MW1031EQDQ01+000042APCTENQ02+000052APC3  
0076029720999991953031418004+60517+022267FM-12+005499999V0203001N00411220001CN0400001N9+00281+00001102771ADDAY121999GF101991001001999999041021IA1199KA1999M+00611MD1510081+9999MW1021
0057029720999991953031500004+60517+022267FM-12+005499999V0202701N00101220001CN0400001N9-00221-00221102841ADDAY101999GF100991001001999999001001MD1010031+9999MW1021
0097029720999991953031506004+60517+022267FM-12+005499999V0202901N00101220001CN0200001N9+00111+00001103021ADDAY161999GF107991001001999999071999IA1199KA1999N-00281MW1211EQDQ01+000042APCTENQ02+000082APC3  
0078029720999991953031512004+60517+022267FM-12+005499999V0202901N00101220001CN0200001N9+00611+00221103111ADDAY121999GF107991001001999999071999MW1021EQDQ01+000072APCTENQ02+000002APC3  
0057029720999991953031600004+60517+022267FM-12+005499999V0209991C00001220001CN0008001N9-00391+99999103291ADDAY151999GF100991001001999999001001MD1210011+9999MW1461
0076029720999991953031606004+60517+022267FM-12+005499999V0202001N00101220001CN0040001N9-00501-00501103361ADDAY141999GF102991001001999999001021IA1199KA1999N-00611MD1210041+9999MW1111
0057029720999991953031612004+60517+022267FM-12+005499999V0202101N00211000601CN0016001N9-00111-00111103491ADDAY141999GF108991081061000751999999MD1110051+9999MW1101
0076029720999991953031618004+60517+022267FM-12+005499999V0201801N00311002401CN0050001N9+00111-00111103401ADDAY121999GF108991081061002501999999IA1199KA1999M+00221MD1810071+9999MW1021
0057029720999991953031700004+60517+022267FM-12+005499999V0202001N00411004501CN0100001N9+00001-00221103311ADDAY121999GF108991081061004501999999MD1810041+9999MW1021
0087029720999991953031706004+60517+022267FM-12+005499999V0202001N00311001501CN0070001N9-00111-00221103081ADDAA199000691AY121999GF108991081061001501999999IA1199KA1999N-00111MD1810081+9999MW1021
0057029720999991953031712004+60517+022267FM-12+005499999V0202201N00411001501CN0050001N9+00001-00111102911ADDAY121999GF108991081061001501999999MD1810091+9999MW1021
0076029720999991953031718004+60517+022267FM-12+005499999V0202501N00211001501CN0034001N9+00001-00111102751ADDAY121999GF108991081061001501999999IA1199KA1999M+00001MD1610041+9999MW1021
0076029720999991953031800004+60517+022267FM-12+005499999V0202501N00101000151CN0004001N9-00111-00111102771ADDAY141999GF108991999061000251021999MD1810011+9999MW1471EQDQ01+000082SCOTLC
0076029720999991953031806004+60517+022267FM-12+005499999V0203201N00101000151CN0002001N9-00221-00221102841ADDAY141999GF108991081061000251999999IA1199KA1999N-00221MD1310091+9999MW1451
0057029720999991953031812004+60517+022267FM-12+005499999V0203201N00621220001CN0400001N9+00501-00281102981ADDAY101999GF100991001001999999001001MD1310051+9999MW1021
0076029720999991953031818004+60517+022267FM-12+005499999V0203201N00311220001CN0400001N9+00001-00611103211ADDAY101999GF101991001001999999001011IA1199KA1999M+00501MD1310191+9999MW1021
0057029720999991953031900004+60517+022267FM-12+005499999V0203401N00101220001CN0200001N9-00281-00501103481ADDAY101999GF100991001001999999001001MD1310081+9999MW1021
0076029720999991953031906004+60517+022267FM-12+005499999V0202701N00101220001CN0160001N9-00611-00721103691ADDAY101999GF100991001001999999001001IA1199KA1999N-00781MD1310091+9999MW1021
0057029720999991953031912004+60517+022267FM-12+005499999V0202801N00211220001CN0400001N9+00501-00781103821ADDAY101999GF101991001001999999001011MD1610011+9999MW1021
0076029720999991953031918004+60517+022267FM-12+005499999V0202201N00211220001CN0400001N9+00111-00501103721ADDAY101999GF103991001001999999001021IA1199KA1999M+00501MD1010011+9999MW1021
0094029720999991953032000004+60517+022267FM-12+005499999V0202201N00211220001CN0400001N9-00281-00611103751ADDAY101999GF102991999001999999041001MW1031EQDQ01+000002SCOTLCQ02+000042APCTENQ03+000012APC3  
0063029720999991953032006004+60517+022267FM-12+005499999V0202301N00101220001CN0400001N9-00221-00611103661ADDAY101999GF102991001001999999041051IA1199MD1710041+9999MW1021
0057029720999991953032012004+60517+022267FM-12+005499999V0202201N00411220001CN0400001N9+00501-00281103611ADDAY101999GF104991001001999999001011MD1810071+9999MW1031
0076029720999991953032018004+60517+022267FM-12+005499999V0202301N00311220001CN0400001N9+00001-00391103381ADDAY121999GF106991001001999999001061IA1199KA1999M+00501MD1810111+9999MW1031
0095029720999991953032106004+60517+022267FM-12+005499999V0202201N005119999999N0200001N9+00001-00111102561ADDAY121999GF108991999001022501071071IA1199KA1999N-00221MD1810251+9999MW1021EQDQ01+000002SCOTLC
0057029720999991953032112004+60517+022267FM-12+005499999V0202301N00511220001CN0200001N9+00391+00001102211ADDAY121999GF107991001001999999041071MD1610161+9999MW1051
0076029720999991953032118004+60517+022267FM-12+005499999V0202301N00411220001CN0160001N9+00281+00001101911ADDAY121999GF107991001001999999071999IA1199KA1999M+00391MD1610071+9999MW1021
0057029720999991953032200004+60517+022267FM-12+005499999V0202701N00311220001CN0200001N9+00501-00111101781ADDAY121999GF107991001001999999041071MD1810031+9999MW1021
0076029720999991953032206004+60517+022267FM-12+005499999V0203201N00511220001CN0400001N9+00391+00111102011ADDAY121999GF107991001001999999041071IA1199KA1999N+00221MD1310211+9999MW1021
0057029720999991953032212004+60517+022267FM-12+005499999V0203501N00211220001CN0400001N9+00611-00391102461ADDAY121999GF106991001001999999001091MD1310161+9999MW1011
0095029720999991953032218004+60517+022267FM-12+005499999V0202701N002119999999N0400001N9+00281-00391102711ADDAY121999GF107991999001022501071999IA1199KA1999M+00611MD1310091+9999MW1031EQDQ01+000002SCOTLC
0076029720999991953032300004+60517+022267FM-12+005499999V0202201N001019999999N0160001N9+00111-00221102611ADDAY121999GF108991999001017501021999MD1810111+9999MW1601EQDQ01+000002SCOTLC
0087029720999991953032306004+60517+022267FM-12+005499999V0201801N00211220001CN0400001N9+00281+00001102011ADDAA199000691AY121999GF107991001001999999071091IA1199KA1999N+00281MD1810281+9999MW1011
0057029720999991953032312004+60517+022267FM-12+005499999V0202501N00311001501CN0044001N9+00221+00111101641ADDAY151999GF108991081061001501999999MD1810131+9999MW1201
0087029720999991953032318004+60517+022267FM-12+005499999V0202301N00311220001CN0100001N9+00221+00001101401ADDAA199000691AY121999GF106991001001999999001061IA1199KA1999M+00391MD1810091+9999MW1011
0097029720999991953032406004+60517+022267FM-12+005499999V0202501N00511220001CN0160001N9+00221-00111101211ADDAY121999GF107991001001999999041071IA1199KA1999N+00111MW1011EQDQ01+000072APCTENQ02+000002APC3  
0057029720999991953032412004+60517+022267FM-12+005499999V0202301N00211030001CN0160001N9+00501+00111100921ADDAY161999GF108991031061004501071999MD1810251+9999MW1611
0087029720999991953032418004+60517+022267FM-12+005499999V0203001N00511030001CN0160001N9+00721+00111100641ADDAA199000391AY121999GF108991031051008001071999IA1009KA1999M+00781MD1810041+9999MW1601
0043029720999991953032500004+60517+022267FM-12+005499999V0203201N00511220001CN0040001N9+00501+00111100941ADDGF100991001001999999001001MD1310211+9999
0063029720999991953032506004+60517+022267FM-12+005499999V0202501N00101220001CN0400001N9+00391+00001101181ADDAY111999GF107991001001999999051011IA1189MD1010171+9999MW1021
0057029720999991953032512004+60517+022267FM-12+005499999V0203001N00821220001CN0400001N9+01001+00111101051ADDAY101999GF103991001001999999041011MD1310081+9999MW1021
0063029720999991953032518004+60517+022267FM-12+005499999V0202901N00621220001CN0400001N9+00781+00001101121ADDAY121999GF103991001001999999041051IA1189MD1310121+9999MW1011
0057029720999991953032600004+60517+022267FM-12+005499999V0209991C00001220001CN0400001N9+00111+00001101241ADDAY111999GF102991001001999999001051MD1710031+9999MW1011
0063029720999991953032606004+60517+022267FM-12+005499999V0201401N00411000151CN0014001N9-00111-00111100851ADDAY121999GF108991081061000251999999IA1189MD1810281+9999MW1101
0057029720999991953032612004+60517+022267FM-12+005499999V0202501N00621220001CN0200001N9+00721+00111100141ADDAY121999GF107991001001999999001071MD1810341+9999MW1021
0063029720999991953032618004+60517+022267FM-12+005499999V0202001N00411030001CN0140001N9+00501-00111099311ADDAY121999GF107991021051008001071999IA1189MD1810441+9999MW1031
0057029720999991953032700004+60517+022267FM-12+005499999V0202401N00511030001CN0100001N9+00501+00111098291ADDAY121999GF107991021051004501071999MD1810441+9999MW1021
0063029720999991953032706004+60517+022267FM-12+005499999V0202501N00721220001CN0400001N9+00221-00281098121ADDAY101999GF101991011021008001001001IA1189MD1110031+9999MW1021
0076029720999991953032718004+60517+022267FM-12+005499999V0202701N00721220001CN0400001N9+00221-00391098641ADDAY111999GF106991001001999999071071IA1189KA1999M+00501MD1310171+9999MW1031
0076029720999991953032800004+60517+022267FM-12+005499999V0203401N00821004501CN0070001N9-00391-00781099521ADDAY121999GF108991081051004501999999MD1310522+9999MW1021EQDQ01+000522APC3  
0076029720999991953032806004+60517+022267FM-12+005499999V0203201N00411220001CN0400001N9-00501-00891100291ADDAY101999GF101991011011008001001051IA1189KA1999N-00611MD1310431+9999MW1011
0057029720999991953032812004+60517+022267FM-12+005499999V0202901N00511220001CN0400001N9+00001-00611100781ADDAY111999GF104991031081008001041001MD1310171+9999MW1021
0057029720999991953032900004+60517+022267FM-12+005499999V0201601N00621004501CN0200001N9+00111-00221100211ADDAY121999GF108991081061004501999999MD1810401+9999MW1031
0087029720999991953032906004+60517+022267FM-12+005499999V0201801N00821001501CN0090001N9+00221+00111099251ADDAA199003091AY171999GF108991081061001501999999IA1109KA1999N-00111MD1810311+9999MW1231
0057029720999991953032912004+60517+022267FM-12+005499999V0202101N00621002401CN0100001N9+00391+00281099081ADDAY161999GF108991071061002501071999MD1990031+9999MW1021
0049029720999991953032918004+60517+022267FM-12+005499999V0202201N005119999999N0200001N9+00391+00001099111ADDAY121999GF107991999999004501041999IA1109MW1021
0057029720999991953033000004+60517+022267FM-12+005499999V0202201N00211007801CN0080001N9+00281+00001098981ADDAY121999GF108991081071008001999999MD1990011+9999MW1601
0087029720999991953033106004+60517+022267FM-12+005499999V0200401N99999000601CN0018001N9+00111+00001098261ADDAA199002091AY181999GF108991081061000751999999IA1189KA1999N+00001MD1810291+9999MW1861
0057029720999991953033112004+60517+022267FM-12+005499999V0203401N00821030001CN0200001N9+00111-00281098751ADDAY121999GF107991031051004501071071MD1310351+9999MW1011
0111029720999991953033118004+60517+022267FM-12+005499999V0203201N00511220001CN0400001N9-00221-01221099992ADDAY121999GF104991001001999999001051IA1189KA1999M+00221MD1310602+9999MW1011EQDQ01+099993APOSLPQ02+000602APC3  
0057029720999991953040100004+60517+022267FM-12+005499999V0209991C00001220001CN0400001N9-00611-00781100751ADDAY121999GF106991001001999999041061MD1310321+9999MW1021
0076029720999991953040106004+60517+022267FM-12+005499999V0209991C00001220001CN0070001N9-00501-00721101291ADDAY121999GF107991001001999999041071IA1189KA1999N-00721MD1310291+9999MW1041
0057029720999991953040112004+60517+022267FM-12+005499999V0202301N00211220001CN0400001N9+00221-00781101651ADDAY101999GF105991011011008001001011MD1310161+9999MW1031
0076029720999991953040118004+60517+022267FM-12+005499999V0202201N00101220001CN0400001N9+00001-00501102061ADDAY101999GF101991001001999999001051IA1189KA1999M+00281MD1310201+9999MW1021
0057029720999991953040200004+60517+022267FM-12+005499999V0201401N00101220001CN0400001N9-00281-00281102441ADDAY101999GF103991001001999999001051MD1310161+9999MW1031
0076029720999991953040206004+60517+022267FM-12+005499999V0201301N00511220001CN0200001N9-00111-00391102461ADDAY121999GF108991001001999999071999IA1009KA1999N-00281MD1310011+9999MW1021
0057029720999991953040212004+60517+022267FM-12+005499999V0201401N00931002401CN0008001N9+00001-00221102351ADDAY131999GF108991081061002501999999MD1810121+9999MW1371
0124029720999991953040218004+60517+022267FM-12+005499999V0201601N00821030001CN0140001N9+00391-00111102211ADDAA199002091AY161999GF108991031071004501021999IA1089KA1999M+99999MW1611EQDQ01+000042APCTENQ02+000092APC3  Q03 +00282ATMX  
0057029720999991953040300004+60517+022267FM-12+005499999V0201601N00721007801CN0200001N9+00391-00111102281ADDAY161999GF108991081061008001999999MD1310031+9999MW1021
0087029720999991953040306004+60517+022267FM-12+005499999V0201401N99999220001CN0400001N9+00281+00111102191ADDAA199000691AY121999GF108991001001999999011999IA1189KA1999N+00221MD1810051+9999MW1021
0057029720999991953040312004+60517+022267FM-12+005499999V0201301N00821220001CN0200001N9+00611+00221101971ADDAY121999GF107991001001999999041071MD1810131+9999MW1021
0076029720999991953040318004+60517+022267FM-12+005499999V0201401N00821007801CN0200001N9+00501+00221101651ADDAY121999GF108991061071008001071999IA1189KA1999M+00721MD1810091+9999MW1021
0057029720999991953040400004+60517+022267FM-12+005499999V0201801N00511007801CN0160001N9+00721+00391101541ADDAY181999GF108991071071008001021001MD1810131+9999MW1811
0087029720999991953040406004+60517+022267FM-12+005499999V0201801N00411002401CN0060001N9+00501+00391101571ADDAA199001091AY161999GF108991081061002501999999IA1189KA1999N+00501MD1310071+9999MW1621
0057029720999991953040412004+60517+022267FM-12+005499999V0201901N00721220001CN0110001N9+00891+00391101581ADDAY111999GF106991001001999999041061MD1310011+9999MW1051
0097029720999991953040418004+60517+022267FM-12+005499999V0201801N00411220001CN0160001N9+00891+00391101571ADDAY101999GF102991001001999999041051IA1189KA1999M+01111MW1011EQDQ01+000042APCTENQ02+000042APC3  
0057029720999991953040500004+60517+022267FM-12+005499999V0202001N00821220001CN0200001N9+00891+00281101551ADDAY101999GF100991001001999999001001MD1710081+9999MW1021
0076029720999991953040506004+60517+022267FM-12+005499999V0201601N00721220001CN0160001N9+00781+00221101571ADDAY111999GF101991001001999999999999IA1089KA1999N+00721MD1210011+9999MW1051
0057029720999991953040512004+60517+022267FM-12+005499999V0201601N00721220001CN0200001N9+00781+00281101551ADDAY101999GF101991011011008001001001MD1010001+9999MW1021
0076029720999991953040518004+60517+022267FM-12+005499999V0201601N00821007801CN0200001N9+00891+00221101121ADDAY121999GF107991071051008001999999IA1089KA1999M+00891MD1810201+9999MW1031
0057029720999991953040600004+60517+022267FM-12+005499999V0201801N00511000601CN0100001N9+00391+00281101151ADDAY161999GF108991081061000751999999MD1310121+9999MW1031
0087029720999991953040606004+60517+022267FM-12+005499999V0201801N00311220001CN0160001N9+00281+00221101441ADDAA199004091AY101999GF104991031071001501001051IA1089KA1999N+00221MD1310151+9999MW1031
0057029720999991953040612004+60517+022267FM-12+005499999V0201601N00511002401CN0140001N9+00281+00001101581ADDAY121999GF108991081061002501999999MD1310031+9999MW1031
0076029720999991953040618004+60517+022267FM-12+005499999V0201401N00311002401CN0050001N9+00281+00221101381ADDAY121999GF108991081061002501999999IA1089KA1999M+00721MD1610091+9999MW1021
0057029720999991953040700004+60517+022267FM-12+005499999V0209991C00001000151CN0006001N9+00281+00221101181ADDAY161999GF108991081061000251999999MD1810091+9999MW1471
0087029720999991953040706004+60517+022267FM-12+005499999V0201601N00211000601CN0030001N9+00111+00111101061ADDAA199001091AY121999GF108991081061000751999999IA1089KA1999N+00111MD1810011+9999MW1021
0057029720999991953040712004+60517+022267FM-12+005499999V0201401N00511000601CN0014001N9+00281+00281101001ADDAY151999GF108991081061000751999999MD1710031+9999MW1511
0087029720999991953040718004+60517+022267FM-12+005499999V0201101N00311001501CN9999999N9+00221+00111100681ADDAA199001091AY161999GF108991071071001501021999IA1089KA1999M+00391MD1810191+9999MW1611
0057029720999991953040800004+60517+022267FM-12+005499999V0201401N00101000151CN0020001N9+00111+00111100391ADDAY161999GF108991081061000251999999MD1810121+9999MW1611
0087029720999991953040806004+60517+022267FM-12+005499999V0201601N00101000151CN0010001N9+00221+00111100241ADDAA199003091AY121999GF108991081061000251999999IA1089KA1999N+00111MD1710031+9999MW1501
0057029720999991953040812004+60517+022267FM-12+005499999V0202701N00511002401CN0200001N9+00281+00111100381ADDAY161999GF108991081061002501999999MD1310121+9999MW1021
0087029720999991953040818004+60517+022267FM-12+005499999V0202001N00411004501CN0200001N9+00391+00001100291ADDAA199001091AY121999GF108991071051004501071999IA1089KA1999M+00611MD1810131+9999MW1021
0057029720999991953040900004+60517+022267FM-12+005499999V0202501N00821004501CN0160001N9+00391+00111099941ADDAY121999GF107991071051004501999999MD1810091+9999MW1021
0087029720999991953040906004+60517+022267FM-12+005499999V0202401N00511004501CN0200001N9+00221+00001100021ADDAA199000391AY121999GF106991051051004501041001IA1089KA1999N+00111MD1110041+9999MW1021
0057029720999991953040912004+60517+022267FM-12+005499999V0202501N00721220001CN0400001N9+00501-00391100281ADDAY101999GF103991031011008001001001MD1310151+9999MW1031
0076029720999991953040918004+60517+022267FM-12+005499999V0202301N00311220001CN0400001N9+00281-00111100481ADDAY101999GF101991011011008001041001IA1009KA1999M+00501MD1310071+9999MW1021
0057029720999991953041000004+60517+022267FM-12+005499999V0202301N00101220001CN0140001N9-00281-00391100591ADDAY101999GF100991001001999999001001MD1310071+9999MW1111
0095029720999991953041006004+60517+022267FM-12+005499999V0203001N00411220001CN0400001N9+00001-00281100911ADDAY101999GF101991999001999999041001IA1139KA1999N-00501MD1310161+9999MW1021EQDQ01+000002SCOTLC
0076029720999991953041012004+60517+022267FM-12+005499999V0202901N00721220001CN0400001N9+00391-00391101281ADDAY101999GF102991021011008001001001MD1310842+9999MW1021EQDQ01+000842APC3  
0076029720999991953041018004+60517+022267FM-12+005499999V0202901N00311220001CN0400001N9+00221-00501101661ADDAY101999GF101991011041008001001001IA1009KA1999M+00391MD1310171+9999MW1021
0057029720999991953041100004+60517+022267FM-12+005499999V0203001N00511220001CN0200001N9+00001-00501102111ADDAY101999GF100991001001999999001001MD1310231+9999MW1021
0076029720999991953041106004+60517+022267FM-12+005499999V0202701N00211220001CN0400001N9+00111-00281102491ADDAY101999GF100991001001999999001001IA1009KA1999N-00391MD1310191+9999MW1021
0057029720999991953041112004+60517+022267FM-12+005499999V0202301N00511220001CN0400001N9+00721-00281102451ADDAY121999GF105991001001999999001061MD1610071+9999MW1011
0076029720999991953041118004+60517+022267FM-12+005499999V0202001N00311220001CN0400001N9+00281-00281102211ADDAY111999GF105991001001999999001061IA1009KA1999M+00721MD1810111+9999MW1021
0057029720999991953041200004+60517+022267FM-12+005499999V0202001N00511220001CN0400001N9+00281-00281102151ADDAY121999GF105991001001999999001061MD1810031+9999MW1011
0076029720999991953041206004+60517+022267FM-12+005499999V0202001N00311004501CN0200001N9+00281-00111101941ADDAY121999GF108991051051004501021041IA1009KA1999N+00221MD1810111+9999MW1021
0057029720999991953041212004+60517+022267FM-12+005499999V0202001N00511220001CN0400001N9+00721+00111101891ADDAY111999GF104991001001999999041999MD1810041+9999MW1011
0076029720999991953041218004+60517+022267FM-12+005499999V0201801N00411220001CN0200001N9+00281-00111101791ADDAY121999GF106991001001999999011061IA1009KA1999M+00781MD1810051+9999MW1011
0057029720999991953041300004+60517+022267FM-12+005499999V0201601N00101220001CN0200001N9+00221-00111101721ADDAY121999GF104991001001999999001051MD1810041+9999MW1021
0076029720999991953041306004+60517+022267FM-12+005499999V0201601N00511220001CN0200001N9+00611+00221101651ADDAY121999GF107991001001999999001071IA1009KA1999N+00281MD1810031+9999MW1021
0057029720999991953041312004+60517+022267FM-12+005499999V0201601N00721220001CN0400001N9+01001+00001101711ADDAY101999GF101991001001999999001011MD1010011+9999MW1021
0097029720999991953041318004+60517+022267FM-12+005499999V0201701N00211220001CN0400001N9+00891+00001101641ADDAY101999GF101991001001999999001011IA1009KA1999M+01221MW1021EQDQ01+000062APCTENQ02+000002APC3  
0057029720999991953041400004+60517+022267FM-12+005499999V0201501N00411220001CN0200001N9+00721+00111101491ADDAY101999GF100991001001999999001001MD1810091+9999MW1021
0076029720999991953041406004+60517+022267FM-12+005499999V0201801N00211220001CN0200001N9+00721+00221101601ADDAY121999GF106991001001999999001061IA1009KA1999N+00501MD1310131+9999MW1021
0057029720999991953041412004+60517+022267FM-12+005499999V0202701N00311220001CN0200001N9+01111+00281101781ADDAY121999GF107991001001999999051071MD1310041+9999MW1021
0076029720999991953041418004+60517+022267FM-12+005499999V0200201N00511220001CN0160001N9+00891+00281101751ADDAY121999GF108991001001999999071071IA1009KA1999M+01221MD1310031+9999MW1031
0057029720999991953041500004+60517+022267FM-12+005499999V0200901N00101220001CN0160001N9+00281+99999101611ADDAY121999GF106991001001999999061999MD1810041+9999MW1021
0076029720999991953041506004+60517+022267FM-12+005499999V0201201N00211220001CN0140001N9+00721+00111101611ADDAY121999GF107991001001999999041071IA1009KA1999N+00111MD1210031+9999MW1051
0057029720999991953041512004+60517+022267FM-12+005499999V0201201N00511007801CN0200001N9+01221+00111101691ADDAY121999GF105991051021008001001011MD1310051+9999MW1021
0097029720999991953041518004+60517+022267FM-12+005499999V0201201N00311220001CN0200001N9+00781-00111101761ADDAY111999GF102991001001999999041051IA1009KA1999M+01281MW1011EQDQ01+000042APCTENQ02+000052APC3  
0057029720999991953041600004+60517+022267FM-12+005499999V0209991C00001220001CN0200001N9-00221-00281101781ADDAY101999GF100991001001999999001001MD1810031+9999MW1021
0076029720999991953041606004+60517+022267FM-12+005499999V0200401N00211220001CN0140001N9+00281-00111101691ADDAY101999GF101991001001999999001011IA1009KA1999N-00221MD1710011+9999MW1041
0057029720999991953041612004+60517+022267FM-12+005499999V0201801N00101220001CN0160001N9+01111+00111101651ADDAY101999GF103991021011008001041011MD1710031+9999MW1031
0076029720999991953041618004+60517+022267FM-12+005499999V0202501N00211220001CN0200001N9+00721+00221101711ADDAY121999GF107991001001999999071051IA1009KA1999M+01221MD1310071+9999MW1021
0057029720999991953041700004+60517+022267FM-12+005499999V0209991C00001220001CN0140001N9+00501+00281101801ADDAY161999GF107991001001999999071999MD1310051+9999MW1211
0076029720999991953041706004+60517+022267FM-12+005499999V0202901N00211001501CN0140001N9+00221+00111102111ADDAY121999GF108991081061001501999999IA1009KA1999N+00111MD1310191+9999MW1021
0097029720999991953041718004+60517+022267FM-12+005499999V0202501N00101220001CN0400001N9+00611+00111102161ADDAY121999GF105991001001999999071061IA1009KA1999M+01111MW1031EQDQ01+000042APCTENQ02+000012APC3  
0057029720999991953041800004+60517+022267FM-12+005499999V0203601N00211007801CN0140001N9+00001+00001102191ADDAY111999GF107991071051008001001001MD1810031+9999MW1031
0076029720999991953041806004+60517+022267FM-12+005499999V0200401N00101220001CN0160001N9+00391+00111102081ADDAY121999GF107991001001999999041071IA1009KA1999N+00001MD1710041+9999MW1031
0057029720999991953041812004+60517+022267FM-12+005499999V0202701N00411075001CN0400001N9+01221-00281101751ADDAY111999GF105991041021008001001051MD1810231+9999MW1021
0076029720999991953041818004+60517+022267FM-12+005499999V0202501N00211220001CN0400001N9+00611-00281101401ADDAY101999GF103991001001999999041051IA1009KA1999M+01221MD1810131+9999MW1031
0057029720999991953041900004+60517+022267FM-12+005499999V0201801N00211220001CN0160001N9+00391+00001100841ADDAY161999GF108991001001999999021999MD1810311+9999MW1211
0087029720999991953041906004+60517+022267FM-12+005499999V0203201N00621001501CN0100001N9+00111-00111100621ADDAA199003091AY171999GF108991061061001501021999IA1089KA1999N+00111MD1210011+9999MW1681
0057029720999991953041912004+60517+022267FM-12+005499999V0203401N00931220001CN0400001N9+00221-01111101141ADDAY121999GF103991021011008001001021MD1310271+9999MW1011
0087029720999991953041918004+60517+022267FM-12+005499999V0203201N00411220001CN0400001N9+00111-00721101511ADDAA199000691AY101999GF101991011081008001041001IA1009KA1999M+00281MD1310191+9999MW1011
0076029720999991953042006004+60517+022267FM-12+005499999V0202901N00411220001CN0400001N9+00221-00221101851ADDAY101999GF101991011011008001041051IA1139KA1999N-00221MD1310051+9999MW1021
0057029720999991953042012004+60517+022267FM-12+005499999V0202901N00721007801CN0400001N9+00721-00391101921ADDAY121999GF106991061021008001001011MD1110041+9999MW1021
0082029720999991953042018004+60517+022267FM-12+005499999V0203201N00211220001CN0400001N9+00391-00501102061ADDAY101999GF101991999001999999041001IA1009MD1310081+9999MW1021EQDQ01+000002SCOTLC
0057029720999991953042100004+60517+022267FM-12+005499999V0209991C00001220001CN0200001N9-00281-00281102191ADDAY101999GF100991001001999999001001MD1310011+9999MW1021
0076029720999991953042106004+60517+022267FM-12+005499999V0200701N00101220001CN0040001N9+00111-00281102211ADDAY101999GF101991001001999999001051IA1009KA1999N-00611MD1210031+9999MW1041
0057029720999991953042112004+60517+022267FM-12+005499999V0202001N00411220001CN0400001N9+00781-00391102121ADDAY101999GF101991011011012501001011MD1810051+9999MW1021
0076029720999991953042118004+60517+022267FM-12+005499999V0201601N00101220001CN0400001N9+00501-00721102081ADDAY101999GF102991001001999999041021IA1009KA1999M+00891MD1810011+9999MW1021
0076029720999991953042200004+60517+022267FM-12+005499999V0209991C00001220001CN0200001N9-00221-00281102011ADDAY101999GF104991999001999999031001MD1810041+9999MW1031EQDQ01+000002SCOTLC
0095029720999991953042206004+60517+022267FM-12+005499999V0201401N00051220001CN0030001N9+00391+00111102121ADDAY101999GF103991999001999999041001IA1009KA1999N-00281MD1310051+9999MW1041EQDQ01+000002SCOTLC
0078029720999991953042212004+60517+022267FM-12+005499999V0202501N00511220001CN0400001N9+01221+00281102161ADDAY121999GF104991041011008001041001MW1011EQDQ01+000022APCTENQ02+000002APC3  
0076029720999991953042218004+60517+022267FM-12+005499999V0203201N00311220001CN0400001N9+00891+00001102261ADDAY101999GF101991001001999999001051IA1009KA1999M+01391MD1310111+9999MW1021
0057029720999991953042300004+60517+022267FM-12+005499999V0203401N00101220001CN0400001N9+00111+00001102451ADDAY101999GF101991001001999999001051MD1310091+9999MW1021
0076029720999991953042306004+60517+022267FM-12+005499999V0203601N00101220001CN0200001N9+00721+00111102521ADDAY101999GF102991001001999999041011IA1009KA1999N-00111MD1210031+9999MW1031
0049029720999991953042312004+60517+022267FM-12+005499999V0200701N00311220001CN0400001N9+99999+99999102441ADDGF103991011011012501001021MD1810081+9999MW1021
0076029720999991953042318004+60517+022267FM-12+005499999V0202501N00211220001CN0400001N9+01111+00001102281ADDAY101999GF101991001001999999001011IA1009KA1999M+01501MD1810031+9999MW1021
0063029720999991953042406004+60517+022267FM-12+005499999V0201401N00211220001CN0160001N9+00611+00111102111ADDAY101999GF100991001001999999001001IA1009MD1810121+9999MW1021
0057029720999991953042412004+60517+022267FM-12+005499999V0202201N00411220001CN0200001N9+01221+00391102021ADDAY101999GF102991011011012501041011MD1810031+9999MW1031
0076029720999991953042418004+60517+022267FM-12+005499999V0201801N00311220001CN0200001N9+01001+00221101791ADDAY101999GF100991001001999999001001IA1009KA1999M+01281MD1810081+9999MW1011
0076029720999991953042506004+60517+022267FM-12+005499999V0201401N00211220001CN0160001N9+00781+00221101491ADDAY121999GF106991001001999999051061IA1009KA1999N+00111MD1990071+9999MW1021
0057029720999991953042512004+60517+022267FM-12+005499999V0202101N00211030001CN0200001N9+01501+00391101291ADDAY111999GF106991011021012501091001MD1810131+9999MW1051
0076029720999991953042518004+60517+022267FM-12+005499999V0201401N00411220001CN0200001N9+01221+00111101091ADDAY101999GF101991001001999999041021IA1009KA1999M+01611MD1810051+9999MW1021
0057029720999991953042600004+60517+022267FM-12+005499999V0201201N00411220001CN0160001N9+00721+00281100921ADDAY121999GF107991001001999999071999MD1810081+9999MW1021
0076029720999991953042606004+60517+022267FM-12+005499999V0201201N00511220001CN0160001N9+00781+00281100681ADDAY121999GF108991001001999999071999IA1009KA1999N+00391MD1810111+9999MW1031
0057029720999991953042612004+60517+022267FM-12+005499999V0201601N00211007801CN0140001N9+00891+00721999999ADDAY161999GF108991081061008001999999MD1610051+9999MW1611
0108029720999991953042618004+60517+022267FM-12+005499999V0202201N00311075001CN0200001N9+00611+00391100751ADDAA199002091AY121999GF105991011051004501051021IA1109KA1999M+00891MW1011EQDQ01+000042APCTENQ02+000092APC3  
0057029720999991953042700004+60517+022267FM-12+005499999V0209991C00001220001CN0090001N9-00111-00221100881ADDAY101999GF100991001001999999001001MD1310081+9999MW1121
0076029720999991953042706004+60517+022267FM-12+005499999V0202001N00511220001CN0200001N9+00281+00281101081ADDAY141999GF100991001001999999001001IA1009KA1999N-00281MD1310131+9999MW1011
0057029720999991953042712004+60517+022267FM-12+005499999V0202501N00621220001CN0400001N9+00221+00001101281ADDAY111999GF103991031011008001001001MD1310111+9999MW1011
0057029720999991953042800004+60517+022267FM-12+005499999V0209991C00001220001CN0140001N9-00221-00281101691ADDAY101999GF100991001001999999001001MD1310121+9999MW1021
0076029720999991953042806004+60517+022267FM-12+005499999V0200901N00101220001CN0140001N9+00501+00111101791ADDAY101999GF100991001001999999001001IA1009KA1999N-00391MD1310041+9999MW1041
0057029720999991953042812004+60517+022267FM-12+005499999V0201201N00511220001CN0400001N9+01391-00221101721ADDAY101999GF103991011011012501001021MD1810081+9999MW1021
0076029720999991953042818004+60517+022267FM-12+005499999V0201201N00311220001CN0400001N9+01001-00221101591ADDAY101999GF106991001001999999001071IA1009KA1999M+01501MD1810051+9999MW1021
0057029720999991953042900004+60517+022267FM-12+005499999V0201201N00211220001CN0160001N9+00501+00111101481ADDAY101999GF102991001001999999001051MD1810041+9999MW1021
0076029720999991953042906004+60517+022267FM-12+005499999V0201101N00511220001CN0140001N9+01001+00221101351ADDAY101999GF100991001001999999001001IA1009KA1999N+00391MD1810071+9999MW1021
0057029720999991953042912004+60517+022267FM-12+005499999V0201401N00931220001CN0200001N9+01781+00281101251ADDAY101999GF100991001001999999001001MD1990011+9999MW1011
0097029720999991953042918004+60517+022267FM-12+005499999V0201201N00621220001CN0200001N9+01501+00001101291ADDAY111999GF105991001001999999041061IA1009KA1999M+01891MW1031EQDQ01+000042APCTENQ02+000072APC3  
0057029720999991953043000004+60517+022267FM-12+005499999V0202701N00211220001CN0200001N9+00781+00501101681ADDAY121999GF107991001001999999071999MD1310131+9999MW1031
0087029720999991953043006004+60517+022267FM-12+005499999V0203601N00101030001CN0140001N9+00781+00721101861ADDAA124999999AY121999GF107991031051004501071999IA1089KA1999N+00721MD1310081+9999MW1211
0057029720999991953043012004+60517+022267FM-12+005499999V0200401N00101030001CN0200001N9+01501+00781102021ADDAY121999GF107991011011008001071999MD1110051+9999MW1021
0057029720999991953050100004+60517+022267FM-12+005499999V0202701N00101220001CN0140001N9+00391+00281102261ADDAY101999GF101991001001999999001011MD1210091+9999MW1021
0076029720999991953050106004+60517+022267FM-12+005499999V0203401N00101220001CN0200001N9+01111+00611102451ADDAY111999GF104991001001999999041011IA1009KA1999N+00221MD1310111+9999MW1021
0078029720999991953050112004+60517+022267FM-12+005499999V0202301N00411220001CN0400001N9+01891+00221102481ADDAY101999GF102991011011008001001031MW1021EQDQ01+000022APCTENQ02+000002APC3  
0076029720999991953050118004+60517+022267FM-12+005499999V0202901N00211220001CN0200001N9+01611+00281102521ADDAY101999GF101991011011008001001001IA1009KA1999M+02001MD1610041+9999MW1021
0057029720999991953050200004+60517+022267FM-12+005499999V0209991C00001220001CN0160001N9+00391+00221102661ADDAY101999GF101991001001999999001051MD1310071+9999MW1021
0076029720999991953050206004+60517+022267FM-12+005499999V0209991C00001220001CN0140001N9+01111+00391102741ADDAY101999GF102991001001999999001051IA1009KA1999N+00391MD1510011+9999MW1041
0057029720999991953050212004+60517+022267FM-12+005499999V0202501N00511220001CN0200001N9+01891+00001102691ADDAY101999GF101991011011008001001011MD1810051+9999MW1021
0076029720999991953050218004+60517+022267FM-12+005499999V0202701N00211030001CN0200001N9+01391+00221102681ADDAY121999GF105991011011012501041051IA1009KA1999M+02001MD1510051+9999MW1031
0076029720999991953050306004+60517+022267FM-12+005499999V0203201N00101220001CN0160001N9+00891+00611102401ADDAY101999GF106991001001999999001011IA1009KA1999N+00611MD1810091+9999MW1031
0057029720999991953050312004+60517+022267FM-12+005499999V0203401N00721220001CN0400001N9+01281-00111102151ADDAY101999GF106991011011012501001061MD1810131+9999MW1011
0076029720999991953050318004+60517+022267FM-12+005499999V0203201N00511220001CN0400001N9+01001+00001101911ADDAY101999GF101991011031012501041011IA1009KA1999M+01501MD1810091+9999MW1021
0057029720999991953050400004+60517+022267FM-12+005499999V0203401N00511220001CN0200001N9+00281+00001101981ADDAY101999GF101991001001999999001011MD1310031+9999MW1021
0097029720999991953050406004+60517+022267FM-12+005499999V0203401N00721220001CN0200001N9+00721+00221101921ADDAY101999GF101991011011008001001001IA1009KA1999N+00281MW1021EQDQ01+000072APCTENQ02+000002APC3  
0057029720999991953050412004+60517+022267FM-12+005499999V0203601N00621007801CN0200001N9+01111+00111101821ADDAY121999GF106991061061008001071999MD1990011+9999MW1021
0076029720999991953050418004+60517+022267FM-12+005499999V0200201N00411004501CN0200001N9+00891+00221101761ADDAY121999GF107991051051004501071999IA1009KA1999M+01221MD1810041+9999MW1021
0057029720999991953050500004+60517+022267FM-12+005499999V0203401N00211007801CN0160001N9+00611+00221101621ADDAY121999GF108991081051008001999999MD1810131+9999MW1031
0076029720999991953050506004+60517+022267FM-12+005499999V0209991C00001030001CN0140001N9+00721+00281101291ADDAY121999GF107991011021008001071051IA1009KA1999N+00501MD1810191+9999MW1021
0057029720999991953050512004+60517+022267FM-12+005499999V0202901N00621007801CN0200001N9+01001+00221101011ADDAY121999GF108991061031008001001071MD1810121+9999MW1801
0087029720999991953050518004+60517+022267FM-12+005499999V0202901N00211030001CN0160001N9+00781+00611100881ADDAA199000391AY181999GF107991041081008001071999IA1089KA1999M+01281MD1610031+9999MW1011
0057029720999991953050600004+60517+022267FM-12+005499999V0200401N00101004501CN0200001N9+00611+00501100911ADDAY121999GF107991061051004501071001MD1310031+9999MW1021
0076029720999991953050606004+60517+022267FM-12+005499999V0200601N99999030001CN0160001N9+00721+00281101051ADDAY181999GF107991021081004501071999IA1089KA1999N+00281MD1310121+9999MW1021
0057029720999991953050612004+60517+022267FM-12+005499999V0200401N00721012301CN0200001N9+00501-00721101521ADDAY121999GF107991071081012501001001MD1310211+9999MW1011
0063029720999991953050618004+60517+022267FM-12+005499999V0202601N006219999999N0400001N9+00281-01111101611ADDAY101999GF199999031011008001001051IA1009MD1310191+9999MW1021
0076029720999991953050706004+60517+022267FM-12+005499999V0203601N00721220001CN0400001N9+00001-01001101821ADDAY101999GF101991011011008001001051IA1009KA1999N-00721MD1810111+9999MW1031
0057029720999991953050712004+60517+022267FM-12+005499999V0203601N00821220001CN0400001N9+00611-00721101461ADDAY121999GF106991001001999999041061MD1810151+9999MW1021
0076029720999991953050718004+60517+022267FM-12+005499999V0200201N00101030001CN0400001N9+00611-00501101451ADDAY121999GF106991031051012501041999IA1009KA1999M+00891MD1310041+9999MW1011
0057029720999991953050800004+60517+022267FM-12+005499999V0200201N00211220001CN0400001N9+00221-00221101401ADDAY121999GF105991001001999999071051MD1810031+9999MW1021
0097029720999991953050806004+60517+022267FM-12+005499999V0200701N00511030001CN0400001N9+00221-00391101411ADDAY171999GF106991031051004501041011IA1009KA1999N+00001MW1221EQDQ01+000042APCTENQ02+000012APC3  
0057029720999991953050812004+60517+022267FM-12+005499999V0200701N00511012301CN0400001N9+00611-00891101521ADDAY121999GF106991061011012501001001MD1210011+9999MW1011
0076029720999991953050818004+60517+022267FM-12+005499999V0201001N00311220001CN0200001N9+00611-00611101441ADDAY121999GF106991001001999999071999IA1009KA1999M+00721MD1610041+9999MW1031
0057029720999991953050900004+60517+022267FM-12+005499999V0200501N00101220001CN0200001N9+00001-00221101421ADDAY121999GF107991001001999999071999MD1810031+9999MW1021
0070029720999991953050906004+60517+022267FM-12+005499999V0201201N00311220001CN0400001N9+00391-00281101521ADDAY101999GF101991011011008001001011KA1999N-00221MD1510091+9999MW1031
0057029720999991953050912004+60517+022267FM-12+005499999V0202401N00211220001CN0400001N9+01111-00391101591ADDAY101999GF102991021999012501001001MD1110031+9999MW1021
0113029720999991953050918004+60517+022267FM-12+005499999V0203001N00511220001CN0400001N9+00781-00221101601ADDAY101999GF101991999001999999071001IA1009KA1999M+01111MW1021EQDQ01+000002SCOTLCQ02+000072APCTENQ03+000002APC3  
0076029720999991953051000004+60517+022267FM-12+005499999V0203601N00101220001CN0400001N9+00111-00281101521ADDAY101999GF101991999001999999041001MD1810071+9999MW1011EQDQ01+000002SCOTLC
0076029720999991953051006004+60517+022267FM-12+005499999V0200201N00311220001CN0400001N9+00781+00001101291ADDAY101999GF102991001001999999041051IA1009KA1999N+00111MD1810131+9999MW1021
0057029720999991953051012004+60517+022267FM-12+005499999V0200601N00411030001CN0400001N9+01391-00501101221ADDAY121999GF105991041011008001041021MD1810031+9999MW1011
0076029720999991953051018004+60517+022267FM-12+005499999V0209991C00001220001CN0400001N9+01001+00001101291ADDAY121999GF107991001001999999071999IA1009KA1999M+01501MD1310081+9999MW1011
0057029720999991953051100004+60517+022267FM-12+005499999V0200901N00211030001CN0200001N9+00721-00111101421ADDAY121999GF107991031051004501071999MD1310011+9999MW1021
0076029720999991953051106004+60517+022267FM-12+005499999V0200901N00211220001CN0140001N9+00891+00111101541ADDAY101999GF100991001001999999001001IA1009KA1999N+00221MD1210051+9999MW1041
0057029720999991953051112004+60517+022267FM-12+005499999V0201101N00101012301CN0200001N9+01501+00111101451ADDAY121999GF108991061021012501001061MD1710041+9999MW1021
0076029720999991953051118004+60517+022267FM-12+005499999V0200701N00511030001CN0160001N9+01391-00281101291ADDAY121999GF108991011041008001051999IA1009KA1999M+01611MD1810081+9999MW1031
0057029720999991953051200004+60517+022267FM-12+005499999V0200401N00621220001CN0200001N9+00781-00111101321ADDAY111999GF104991001001999999071051MD1810011+9999MW1011
0076029720999991953051206004+60517+022267FM-12+005499999V0200701N00621220001CN0400001N9+00721-00221101221ADDAY101999GF104991001001999999041011IA1009KA1999N+00391MD1810051+9999MW1021
0057029720999991953051212004+60517+022267FM-12+005499999V0200701N00821220001CN0400001N9+01221-00281101061ADDAY101999GF102991001001999999001011MD1810041+9999MW1031
0097029720999991953051218004+60517+022267FM-12+005499999V0200401N00511220001CN0400001N9+01001-00111101061ADDAY101999GF101991001001999999001011IA1009KA1999M+01281MW1011EQDQ01+000042APCTENQ02+000052APC3  
0057029720999991953051300004+60517+022267FM-12+005499999V0200401N00311220001CN0400001N9+00111-00221101061ADDAY101999GF100991001001999999001001MD1810051+9999MW1021
0076029720999991953051306004+60517+022267FM-12+005499999V0200401N00101220001CN0200001N9+00611+00001100941ADDAY101999GF103991001001999999001051IA1009KA1999N-00111MD1990091+9999MW1021
0057029720999991953051312004+60517+022267FM-12+005499999V0202001N00211220001CN0160001N9+00891+00281100951ADDAY161999GF108991001001999999071999MD1310071+9999MW1611
0087029720999991953051318004+60517+022267FM-12+005499999V0201401N00101030001CN0060001N9+00781+00721101051ADDAA199000391AY161999GF108991041061001501071999IA1089KA1999M+01221MD1310061+9999MW1601
0057029720999991953051400004+60517+022267FM-12+005499999V0202001N00101002401CN0100001N9+00501+00391101171ADDAY121999GF107991071051002501999999MD1310041+9999MW1021
0063029720999991953051406004+60517+022267FM-12+005499999V0202301N00101001501CN0090001N9+00391+00391101261ADDAY121999GF108991081061001501999999IA1089MD1310121+9999MW1021
0057029720999991953051412004+60517+022267FM-12+005499999V0201401N00511220001CN0400001N9+01281+00501101311ADDAY111999GF104991011011012501041021MD1610031+9999MW1031
0076029720999991953051418004+60517+022267FM-12+005499999V0202001N00101220001CN0200001N9+01281+00501101351ADDAY101999GF101991001001999999001051IA1009KA1999M+01501MD1310051+9999MW1021
0063029720999991953051506004+60517+022267FM-12+005499999V0202301N00101220001CN0140001N9+01111+00501101641ADDAY101999GF101991001001999999001051IA1009MD1310111+9999MW1051
0057029720999991953051512004+60517+022267FM-12+005499999V0202301N00311220001CN0200001N9+01781+00391101661ADDAY101999GF103991011011012501001011MD1990031+9999MW1031
0076029720999991953051518004+60517+022267FM-12+005499999V0202501N00211220001CN0200001N9+01501+00501101651ADDAY101999GF100991001001999999001001IA1009KA1999M+01781MD1610031+9999MW1021
0078029720999991953051600004+60517+022267FM-12+005499999V0209991C00001220001CN0100001N9+00281+00221101741ADDAY111999GF101991001001999999001051MW1111EQDQ01+000032APCTENQ02+000002APC3  
0076029720999991953051606004+60517+022267FM-12+005499999V0201601N00101220001CN0110001N9+01221+00611101721ADDAY111999GF103991001001999999001061IA1009KA1999N+00221MD1110031+9999MW1051
0057029720999991953051612004+60517+022267FM-12+005499999V0201801N00411220001CN0200001N9+01501+00391101651ADDAY121999GF108991001001999999021999MD1610011+9999MW1031
0076029720999991953051618004+60517+022267FM-12+005499999V0201801N00411030001CN0200001N9+01221+00611101511ADDAY121999GF108991011051008001021999IA1009KA1999M+01721MD1990081+9999MW1021
0057029720999991953051700004+60517+022267FM-12+005499999V0201601N00311004501CN0160001N9+01001+00611101381ADDAY121999GF108991071051004501021999MD1810051+9999MW1601
0063029720999991953051706004+60517+022267FM-12+005499999V0201601N00311007801CN0140001N9+01001+00611101181ADDAY161999GF108991061051008001071999IA1089MD1810071+9999MW1611
0057029720999991953051712004+60517+022267FM-12+005499999V0202001N00211030001CN0140001N9+01501+01111101121ADDAY121999GF106991011051008001041011MD1310011+9999MW1011
0087029720999991953051718004+60517+022267FM-12+005499999V0201801N00101220001CN0090001N9+01111+00891101321ADDAA199005091AY121999GF107991001001999999041061IA1009KA1999M+01611MD1310071+9999MW1051
0087029720999991953051806004+60517+022267FM-12+005499999V0201101N00051030001CN0050001N9+00891+00891101651ADDAA199000391AY121999GF107991011021004501071011IA1009KA1999N+00611MD1310131+9999MW1211
0057029720999991953051812004+60517+022267FM-12+005499999V0202301N00411220001CN0400001N9+01781+00891101781ADDAY111999GF103991021021012501041001MD1310091+9999MW1011
0076029720999991953051818004+60517+022267FM-12+005499999V0202301N00101220001CN0400001N9+01501+00721101921ADDAY101999GF101991011021008001001001IA1009KA1999M+01781MD1310081+9999MW1021
0057029720999991953051900004+60517+022267FM-12+005499999V0202201N00051220001CN0160001N9+01001+00721102121ADDAY101999GF103991001001999999041011MD1310071+9999MW1021
0076029720999991953051906004+60517+022267FM-12+005499999V0202301N00311220001CN0200001N9+01391+00781102341ADDAY101999GF104991001001999999001061IA1009KA1999N+00611MD1310111+9999MW1031
0057029720999991953051912004+60517+022267FM-12+005499999V0202401N00511220001CN0400001N9+01891+00781102641ADDAY101999GF102991011011012501001021MD1310121+9999MW1021
0076029720999991953051918004+60517+022267FM-12+005499999V0202301N00411220001CN0400001N9+01611+00721102751ADDAY101999GF102991001001999999001011IA1009KA1999M+01891MD1310041+9999MW1031
0057029720999991953052000004+60517+022267FM-12+005499999V0201801N00101220001CN0200001N9+01001+00721102881ADDAY121999GF106991001001999999071999MD1310031+9999MW1031
0063029720999991953052006004+60517+022267FM-12+005499999V0201401N00101220001CN0140001N9+01391+00781103021ADDAY121999GF106991001001999999071999IA1009MD1010051+9999MW1051
0057029720999991953052012004+60517+022267FM-12+005499999V0202201N00311220001CN0200001N9+01891+00721102951ADDAY111999GF102991001001999999041011MD1810071+9999MW1011
0076029720999991953052018004+60517+022267FM-12+005499999V0201601N00411220001CN0200001N9+01891+00721102561ADDAY111999GF104991001001999999001011IA1009KA1999M+02111MD1810161+9999MW1021
0076029720999991953052100004+60517+022267FM-12+005499999V0201601N00101220001CN0400001N9+01281+00611102381ADDAY101999GF101991999001999999041001MD1810111+9999MW1011EQDQ01+000002SCOTLC
0076029720999991953052106004+60517+022267FM-12+005499999V0202001N00211220001CN0200001N9+01721+01001102151ADDAY111999GF102991001001999999001011IA1009KA1999N+01111MD1810131+9999MW1011
0057029720999991953052112004+60517+022267FM-12+005499999V0202301N00511030001CN0200001N9+02001+01281102081ADDAY121999GF107991011021012501071051MD1010001+9999MW1011
0076029720999991953052118004+60517+022267FM-12+005499999V0202701N00511220001CN0200001N9+01721+00721102091ADDAY111999GF104991001001999999041021IA1009KA1999M+02001MD1310011+9999MW1021
0076029720999991953052200004+60517+022267FM-12+005499999V0203201N00101220001CN0090001N9+00781+99999102291ADDAY101999GF101991999001999999041001MD1310111+9999MW1111EQDQ01+000002SCOTLC
0076029720999991953052206004+60517+022267FM-12+005499999V0209991C00001220001CN0140001N9+01501+00891102371ADDAY121999GF106991001001999999041061IA1009KA1999N+00501MD1310051+9999MW1021
0057029720999991953052212004+60517+022267FM-12+005499999V0202201N00211220001CN0140001N9+02111+00721102291ADDAY121999GF106991001001999999041051MD1810031+9999MW1021
0076029720999991953052218004+60517+022267FM-12+005499999V0209991C00001220001CN0200001N9+01781+00781102011ADDAY111999GF105991001001999999041051IA1009KA1999M+02221MD1810161+9999MW1021
0076029720999991953052300004+60517+022267FM-12+005499999V0201601N00511220001CN0200001N9+01391+00611101681ADDAY111999GF104991999001999999041001MD1810211+9999MW1021EQDQ01+000002SCOTLC
0087029720999991953052306004+60517+022267FM-12+005499999V0202701N004119999999N0160001N9+01281+01111101481ADDAA199000591AY111999GF108991081999999999999999IA1009KA1999N+01221MD1810031+9999MW1911
0057029720999991953052312004+60517+022267FM-12+005499999V0202301N00621075001CN0200001N9+02001+01281101361ADDAY121999GF106991011071008001041061MD1710011+9999MW1011
0087029720999991953052318004+60517+022267FM-12+005499999V0202001N00211030001CN0200001N9+01721+01111101001ADDAA199000391AY121999GF108991011061004501021999IA1089KA1999M+02001MD1810111+9999MW1031
0057029720999991953052400004+60517+022267FM-12+005499999V0202401N00311030001CN0060001N9+01221+01111101041ADDAY121999GF108991041051004501071999MD1810081+9999MW1021
0087029720999991953052406004+60517+022267FM-12+005499999V0202901N00211030001CN0200001N9+01111+00891101111ADDAA199002091AY121999GF108991031051008001071999IA1089KA1999N+01001MD1310071+9999MW1021
0087029720999991953052418004+60517+022267FM-12+005499999V0203201N00621030001CN0200001N9+00891+00781101221ADDAA199005091AY161999GF107991041061004501071999IA1109KA1999M+01391MD1310071+9999MW1011
0076029720999991953052500004+60517+022267FM-12+005499999V0203201N00511220001CN0400001N9+00281+00111101711ADDAY121999GF103991999001999999041001MD1310231+9999MW1011EQDQ01+000002SCOTLC
0076029720999991953052506004+60517+022267FM-12+005499999V0203101N00621007801CN0400001N9+00501-00281102151ADDAY111999GF105991051021008001001001IA1089KA1999N+00221MD1310281+9999MW1031
0057029720999991953052512004+60517+022267FM-12+005499999V0203401N00821220001CN0400001N9+00721-00781102451ADDAY101999GF102991021011012501001001MD1310121+9999MW1021
0063029720999991953052518004+60517+022267FM-12+005499999V0203101N99999220001CN0600001N9+00721+00221102461ADDAY101999GF100991001001999999001001IA1009MD1990031+9999MW1021
0057029720999991953052600004+60517+022267FM-12+005499999V0201801N00101220001CN0200001N9+00721+00281102201ADDAY121999GF107991001001999999071999MD1810111+9999MW1031
0076029720999991953052606004+60517+022267FM-12+005499999V0202501N00511220001CN0200001N9+01221+00391101711ADDAY111999GF105991001001999999041011IA1009KA1999N+00391MD1810171+9999MW1031
0057029720999991953052612004+60517+022267FM-12+005499999V0202501N00411004501CN0080001N9+00891+00781101201ADDAY161999GF108991071071004501021999MD1810241+9999MW1631
0106029720999991953052618004+60517+022267FM-12+005499999V0202101N00721001501CN0044001N9+00781+00781100241ADDAA199009091AY161999GF108991071071001501021999IA1009KA1999M+01221MD1810532+9999MW1631EQDQ01+000532APC3  
0057029720999991953052700004+60517+022267FM-12+005499999V0202701N00411001501CN0090001N9+00781+00781099481ADDAY161999GF108991071071001501021999MD1810361+9999MW1631
0087029720999991953052706004+60517+022267FM-12+005499999V0202901N00411004501CN0400001N9+00721+00611099411ADDAA199009091AY121999GF107991071051004501999999IA1089KA1999N+00611MD1310081+9999MW1021
0078029720999991953052712004+60517+022267FM-12+005499999V0202701N00511004501CN0400001N9+01001+00611099461ADDAY121999GF107991071081004501999999MW1021EQDQ01+000042APCTENQ02+000012APC3  
0087029720999991953052718004+60517+022267FM-12+005499999V0203201N00621220001CN0400001N9+00781+00221099881ADDAA199000391AY111999GF101991011081008001001001IA1009KA1999M+01111MD1310171+9999MW1011
0076029720999991953052800004+60517+022267FM-12+005499999V0203201N00311220001CN0400001N9+00391+00111100151ADDAY111999GF107991999001999999041001MD1310041+9999MW1021EQDQ01+000002SCOTLC
0076029720999991953052806004+60517+022267FM-12+005499999V0203401N00511004501CN0400001N9+00611+00391100261ADDAY121999GF106991061051004501001021IA1009KA1999N+00281MD1310071+9999MW1011
0057029720999991953052812004+60517+022267FM-12+005499999V0202901N00721007801CN0400001N9+00721-00221100311ADDAY121999GF106991061081008001001001MD1210031+9999MW1011
0097029720999991953052818004+60517+022267FM-12+005499999V0202801N00411007801CN0400001N9+00781+00001100311ADDAY121999GF106991051031008001041051IA1089KA1999M+00891MW1021EQDQ01+000042APCTENQ02+000012APC3  
0076029720999991953052900004+60517+022267FM-12+005499999V0203401N00311220001CN0160001N9+00221+00111100411ADDAY101999GF101991999001999999041001MD1310051+9999MW1011EQDQ01+000002SCOTLC
0076029720999991953052906004+60517+022267FM-12+005499999V0203401N00511220001CN0400001N9+00611-00221100551ADDAY101999GF101991011011008001001001IA1009KA1999N+00111MD1310111+9999MW1031
0078029720999991953052912004+60517+022267FM-12+005499999V0202901N00411012301CN0400001N9+00721+00111100601ADDAY181999GF107991051031012501041031MW1251EQDQ01+000042APCTENQ02+000042APC3  
0108029720999991953052918004+60517+022267FM-12+005499999V0202901N00311220001CN0400001N9+00891-00221100591ADDAA199000691AY101999GF103991011021012501001021IA1009KA1999M+01111MW1031EQDQ01+000032APCTENQ02+000002APC3  
0057029720999991953053000004+60517+022267FM-12+005499999V0201601N00101220001CN0400001N9+00111+00001100481ADDAY121999GF106991001001999999071051MD1810091+9999MW1031
0076029720999991953053006004+60517+022267FM-12+005499999V0201601N00511030001CN0200001N9+00781+00391100391ADDAY121999GF108991011011008001041071IA1009KA1999N+00001MD1710011+9999MW1031
0057029720999991953053012004+60517+022267FM-12+005499999V0201001N00511002401CN0160001N9+00781+00391100551ADDAY161999GF108991071031002501001071MD1310111+9999MW1801
0087029720999991953053018004+60517+022267FM-12+005499999V0201401N00511002401CN0140001N9+00721+00611100561ADDAA199001091AY161999GF108991081061002501999999IA1109KA1999M+01001MD1710011+9999MW1611
0078029720999991953053100004+60517+022267FM-12+005499999V0201201N00311004501CN0140001N9+00781+00781100621ADDAY121999GF108991081051004501999999MW1021EQDQ01+000032APCTENQ02+000002APC3  
