0057029720999991954010100004+60517+022267FM-12+005499999V0202501N00151001501CN0030001N9+00001+00001102341ADDAY171999GF108991081061001501999999MD1310041+9999MW1681
0087029720999991954010106004+60517+022267FM-12+005499999V0202501N00211001501CN0100001N9+00001-00111102451ADDAA199001091AY121999GF108991081061001501999999IA1319KA1999N+00001MD1210071+9999MW1021
0057029720999991954010112004+60517+022267FM-12+005499999V0202501N00411002401CN0160001N9+00001-00221102541ADDAY121999GF107991071051002501999999MD1710011+9999MW1021
0076029720999991954010118004+60517+022267FM-12+005499999V0202201N00411220001CN0140001N9+00001-00221102251ADDAY101999GF100991001001999999001001IA1319KA1999M+00111MD1810201+9999MW1021
0057029720999991954010200004+60517+022267FM-12+005499999V0202401N00621004501CN0140001N9+00111-00221101691ADDAY121999GF107991071051004501999999MD1810311+9999MW1021
0087029720999991954010206004+60517+022267FM-12+005499999V0202301N00511001501CN0060001N9+00111+00111101211ADDAA199000591AY151999GF108991081061001501999999IA1209KA1999N-00111MD1810231+9999MW1201
0043029720999991954010212004+60517+022267FM-12+005499999V0202301N00211220001CN0200001N9+00221+00111100661ADDAY121999GF107991001001999999071061MW1021
0106029720999991954010218004+60517+022267FM-12+005499999V0201601N003119999999N0160001N9+00221+00221099611ADDAA199000391AY121999GF106991031051004501999999IA1209KA1999M+00221MD1810592+9999MW1031EQDQ01+000592APC3  
0057029720999991954010300004+60517+022267FM-12+005499999V0202101N00311001501CN0140001N9+00281+00221098721ADDAY121999GF108991081061001501999999MD1810371+9999MW1021
0106029720999991954010306004+60517+022267FM-12+005499999V0202701N00051001501CN0020001N9+00221+00221098401ADDAA199002091AY161999GF108991081061001501999999IA1199KA1999N+99999MD1810081+9999MW1591EQDQ01 +00392ATMN  
0057029720999991954010312004+60517+022267FM-12+005499999V0200401N00511001501CN0024001N9+00221+00111098861ADDAY161999GF108991081061001501999999MD1310371+9999MW1581
0122029720999991954010318004+60517+022267FM-12+005499999V0200201N01441002401CN0020001N9-00221-00281100202ADDAA199003091AY171999GF108991081061002501999999IA1319KA1999M+00281MD1310612+9999MW1711EQDQ01+100203APOSLPQ02+000612APC3  
0092029720999991954010400004+60517+022267FM-12+005499999V0200401N01231002401CN0020001N9-00611-00611101612ADDAY171999GF108991081061002501999999MD1310692+9999MW1711EQDQ01+101613APOSLPQ02+000692APC3  
0087029720999991954010406004+60517+022267FM-12+005499999V0200401N00721220001CN0100001N9-01221-01281102491ADDAA199000391AY101999GF100991001001999999001001IA1319KA1999N-01281MD1310371+9999MW1021
0043029720999991954010412004+60517+022267FM-12+005499999V0200801N00411220001CN0160001N9-01391-01611102941ADDAY121999GF107991001001999999001021MW1031
0076029720999991954010418004+60517+022267FM-12+005499999V0200901N00211220001CN0140001N9-01611-01611103041ADDAY101999GF100991001001999999001001IA1319KA1999M-01281MD1990051+9999MW1011
0076029720999991954010500004+60517+022267FM-12+005499999V0201401N00101220001CN0160001N9-01611-01611102991ADDAY101999GF101991999001999999041001MD1810051+9999MW1021EQDQ01+000002SCOTLC
0076029720999991954010506004+60517+022267FM-12+005499999V0202401N00361220001CN0140001N9-00501-00611102541ADDAY101999GF102991001001999999001051IA1319KA1999N-01891MD1810241+9999MW1021
0057029720999991954010512004+60517+022267FM-12+005499999V0202301N00411220001CN0200001N9-00221-00891102211ADDAY121999GF107991001001999999071071MD1810191+9999MW1021
0095029720999991954010518004+60517+022267FM-12+005499999V0202401N00621220001CN0200001N9-00111-00611101841ADDAY121999GF102991999001999999071001IA1319KA1999M-00111MD1810161+9999MW1011EQDQ01+000002SCOTLC
0057029720999991954010600004+60517+022267FM-12+005499999V0202301N00411004501CN0200001N9-00111-00281101541ADDAY121999GF107991071061004501999999MD1810211+9999MW1021
0076029720999991954010606004+60517+022267FM-12+005499999V0202301N00721004501CN0200001N9+00111-00281101191ADDAY121999GF108991081061004501999999IA1319KA1999N-00281MD1810171+9999MW1021
0057029720999991954010612004+60517+022267FM-12+005499999V0202301N00721004501CN0090001N9+00221-00281100891ADDAY121999GF108991081061004501999999MD1810201+9999MW1021
0076029720999991954010618004+60517+022267FM-12+005499999V0202301N00621004501CN0140001N9+00221-00111100811ADDAY121999GF108991081051004501999999IA1319KA1999M+00221MD1610041+9999MW1021
0057029720999991954010700004+60517+022267FM-12+005499999V0202301N00511004501CN0080001N9+00111-00111100811ADDAY171999GF108991081061004501999999MD1310011+9999MW1681
0087029720999991954010706004+60517+022267FM-12+005499999V0202401N00311001501CN0030001N9+00001-00111100991ADDAA199000391AY171999GF108991081061001501999999IA1319KA1999N+00001MD1310131+9999MW1681
0087029720999991954010718004+60517+022267FM-12+005499999V0203201N00051007801CN0080001N9-00221-00221101571ADDAA199001091AY121999GF108991081061008001999999IA1319KA1999M+00111MD1310161+9999MW1021
0057029720999991954010800004+60517+022267FM-12+005499999V0203201N00051007801CN0080001N9-00221-00221101571ADDAY121999GF108991081061008001999999MD1310161+9999MW1021
0100029720999991954010806004+60517+022267FM-12+005499999V0203601N00101220001CN0140001N9-01391-01501101841ADDAY101999GF101991999001999999041001IA1319MW1031EQDQ01+000002SCOTLCQ02+000022APCTENQ03+000002APC3  
0057029720999991954010812004+60517+022267FM-12+005499999V0209991C00001220001CN0020001N9-01501-01611101751ADDAY101999GF102991001001999999001051MD1810111+9999MW1021
0076029720999991954010818004+60517+022267FM-12+005499999V0209991C00001220001CN0004001N9-01001-01001101411ADDAY141999GF100991001001999999001001IA1319KA1999M-00891MD1810231+9999MW1461
0057029720999991954010900004+60517+022267FM-12+005499999V0202301N00621004501CN0090001N9-00391-00501100691ADDAY121999GF108991081061004501999999MD1810351+9999MW1031
0087029720999991954010906004+60517+022267FM-12+005499999V0201601N00771002401CN0034001N9+00111-00111099791ADDAA199001091AY171999GF108991081061002501999999IA1319KA1999N-01391MD1810411+9999MW1711
0076029720999991954010912004+60517+022267FM-12+005499999V0201301N01031002401CN0002001N9-00221-00221098841ADDAY171999GF108991081061002501999999MD1810532+9999MW1751EQDQ01+000532APC3  
0087029720999991954010918004+60517+022267FM-12+005499999V0201801N00931002401CN0050001N9-00281-00391098371ADDAA199003091AY171999GF108991081061002501999999IA1319KA1999M+00111MD1810171+9999MW1731
0087029720999991954011006004+60517+022267FM-12+005499999V0200801N00511002401CN0060001N9-00501-00721098751ADDAA199000591AY171999GF106991061061002501001001IA1319KA1999N-01111MD1310121+9999MW1711
0057029720999991954011012004+60517+022267FM-12+005499999V0200701N00411004501CN0050001N9-00391-00611098991ADDAY121999GF106991051091004501041021MD1310081+9999MW1851
0087029720999991954011018004+60517+022267FM-12+005499999V0200301N00211004501CN0080001N9-00611-00721099311ADDAA199000591AY171999GF106991061051004501999999IA1319KA1999M-00391MD1310151+9999MW1221
0057029720999991954011100004+60517+022267FM-12+005499999V0200401N00411220001CN0080001N9-00721-00781099511ADDAY121999GF102991021051008001001001MD1310111+9999MW1781
0087029720999991954011106004+60517+022267FM-12+005499999V0200401N00511004501CN0060001N9-00501-00721099861ADDAA199000591AY171999GF108991081061004501999999IA1319KA1999N-00781MD1310231+9999MW1711
0057029720999991954011112004+60517+022267FM-12+005499999V0200401N00311004501CN0040001N9-00611-00781100201ADDAY171999GF108991081051004501999999MD1310121+9999MW1711
0063029720999991954011118004+60517+022267FM-12+005499999V0200401N00151220001CN0060001N9-01111-01221100461ADDAY111999GF107991001001999999071999IA1319MD1310121+9999MW1031
0057029720999991954011200004+60517+022267FM-12+005499999V0209991C00001220001CN0060001N9-01781-02001100481ADDAY101999GF100991001001999999001001MD1810011+9999MW1021
0076029720999991954011206004+60517+022267FM-12+005499999V0201401N00311030001CN0070001N9-00611-00721100341ADDAY121999GF107991031051004501071999IA1319KA1999N-02001MD1710131+9999MW1021
0057029720999991954011212004+60517+022267FM-12+005499999V0202301N00411004501CN0140001N9-00111-00391100201ADDAY121999GF108991061051004501071999MD1810091+9999MW1711
0087029720999991954011218004+60517+022267FM-12+005499999V0202301N00621004501CN0050001N9-00111-00221100011ADDAA199000391AY171999GF108991081061004501999999IA1319KA1999M-00111MD1810091+9999MW1711
0057029720999991954011300004+60517+022267FM-12+005499999V0202501N00411004501CN0140001N9+00001-00221999999ADDAY171999GF108991081061004501999999MD1310041+9999MW1021
0087029720999991954011306004+60517+022267FM-12+005499999V0202301N00411001501CN0140001N9-00111-00111100121ADDAA199001091AY121999GF108991081061001501999999IA1319KA1999N-00111MD1310071+9999MW1021
0057029720999991954011312004+60517+022267FM-12+005499999V0202001N00411002401CN0140001N9+00221+00111100201ADDAY121999GF108991081061002501999999MD1010031+9999MW1021
0076029720999991954011318004+60517+022267FM-12+005499999V0202501N00511001501CN0080001N9+00111+00001100141ADDAY121999GF108991081061001501999999IA1319KA1999M+00281MD1510031+9999MW1021
0087029720999991954011406004+60517+022267FM-12+005499999V0202001N00311004501CN0060001N9+00281+00221099821ADDAA199000691AY121999GF108991081051004501999999IA1209KA1999N+00111MD1810091+9999MW1021
0057029720999991954011412004+60517+022267FM-12+005499999V0201501N005119999999N0040001N9+00221-00111099791ADDAY151999GF108991081061999999999999MD1810071+9999MW1021
0087029720999991954011418004+60517+022267FM-12+005499999V0201601N00721004501CN0090001N9+00111-00281099551ADDAA199000691AY121999GF108991081051004501999999IA1199KA1999M+00391MD1810071+9999MW1021
0057029720999991954011500004+60517+022267FM-12+005499999V0201401N00721002401CN0030001N9-00111-00281099421ADDAY171999GF108991081061002501999999MD1810091+9999MW1731
0087029720999991954011506004+60517+022267FM-12+005499999V0201601N00821002401CN0050001N9+00111+00001098991ADDAA199001091AY171999GF108991081061002501999999IA1209KA1999N-00221MD1810251+9999MW1231
0057029720999991954011512004+60517+022267FM-12+005499999V0201801N00721001501CN0010001N9+00111+00001098591ADDAY171999GF108991081061001501999999MD1810211+9999MW1691
0087029720999991954011518004+60517+022267FM-12+005499999V0201901N00721002401CN0140001N9+00221+00001098251ADDAA199012091AY171999GF107991061061002501071999IA1209KA1999M+00281MD1810171+9999MW1251
0076029720999991954011600004+60517+022267FM-12+005499999V0201401N99999002401CN0020001N9+00001-00221097411ADDAY171999GF108991081061002501999999MD1810562+9999MW1691EQDQ01+000562APC3  
0106029720999991954011606004+60517+022267FM-12+005499999V0200901N00931001501CN0060001N9+00001-00111096281ADDAA199003091AY171999GF108991081061001501999999IA1319KA1999N-00221MD1810522+9999MW1701EQDQ01+000522APC3  
0057029720999991954011612004+60517+022267FM-12+005499999V0201601N00411002401CN0040001N9+00221+00111096111ADDAY161999GF108991081061002501999999MD1810081+9999MW1631
0087029720999991954011618004+60517+022267FM-12+005499999V0203101N00511001501CN0020001N9+00111+00111096621ADDAA199007091AY171999GF108991081061001501999999IA1209KA1999M+00281MD1310361+9999MW1511
0057029720999991954011700004+60517+022267FM-12+005499999V0203101N00821004501CN0140001N9-00111-00391097571ADDAY121999GF107991071051004501999999MD1310431+9999MW1021
0087029720999991954011706004+60517+022267FM-12+005499999V0203201N00411004501CN0140001N9-00221-00611098161ADDAA199000691AY111999GF107991071051004501999999IA1209KA1999N-00281MD1310271+9999MW1031
0057029720999991954011712004+60517+022267FM-12+005499999V0203201N00511007801CN0200001N9-00111-00501098681ADDAY121999GF107991061051008001041999MD1310291+9999MW1011
0106029720999991954011718004+60517+022267FM-12+005499999V0203201N00621220001CN0200001N9-00281-00611099251ADDAA199000691AY171999GF106991999001999999051001IA1209KA1999M-00111MD1310311+9999MW1021EQDQ01+000002SCOTLC
0076029720999991954011800004+60517+022267FM-12+005499999V0203401N00621220001CN0400001N9-00391-00781099851ADDAY101999GF101991999001999999041001MD1310291+9999MW1011EQDQ01+000002SCOTLC
0087029720999991954011806004+60517+022267FM-12+005499999V0203401N00721220001CN0200001N9-00281-00781100491ADDAA199000691AY121999GF103991031051004501001001IA1209KA1999N-00501MD1310371+9999MW1021
0057029720999991954011812004+60517+022267FM-12+005499999V0203201N00621220001CN0200001N9-00281-00781101001ADDAY101999GF101991011011008001001001MD1310201+9999MW1021
0076029720999991954011818004+60517+022267FM-12+005499999V0203201N00511220001CN0200001N9-00391-00781101341ADDAY101999GF100991001001999999001001IA1209KA1999M-00281MD1310171+9999MW1021
0076029720999991954011906004+60517+022267FM-12+005499999V0203201N00101220001CN0400001N9-01221-01281101801ADDAY101999GF106991001001999999041051IA1209KA1999N-01221MD1110021+9999MW1031
0057029720999991954011912004+60517+022267FM-12+005499999V0200901N00101030001CN0030001N9-00611-00721101661ADDAY121999GF107991021051004501071071MD1810121+9999MW1021
0076029720999991954011918004+60517+022267FM-12+005499999V0201401N00511030001CN0110001N9-00281-00501101061ADDAY121999GF107991011051004501041071IA1209KA1999M-00281MD1810371+9999MW1021
0057029720999991954012012004+60517+022267FM-12+005499999V0201201N01031002401CN0008001N9-00281-00391099151ADDAY171999GF108991051061002501021999MD1810131+9999MW1731
0087029720999991954012018004+60517+022267FM-12+005499999V0200901N01231004501CN0030001N9-00281-00781099221ADDAA199000391AY171999GF108991081061004501999999IA1319KA1999M-00111MD1310121+9999MW1361
0043029720999991954012100004+60517+022267FM-12+005499999V0200901N01231004501CN0100001N9-00391-00891099891ADDAY121999GF108991061061004501071999MW1181
0095029720999991954012106004+60517+022267FM-12+005499999V0200901N00721030001CN0160001N9-00501-00781100752ADDAY121999GF108991021051004501021999IA1319KA1999N-00501MD1310441+9999MW1021EQDQ01+100753APOSLP
0076029720999991954012118004+60517+022267FM-12+005499999V0200401N00411007801CN0140001N9-00501-00781102141ADDAY121999GF108991081051008001999999IA1319KA1999M-00391MD1310321+9999MW1021
0057029720999991954012200004+60517+022267FM-12+005499999V0200201N00311007801CN0140001N9-00501-00781102741ADDAY121999GF107991071051008001999999MD1310281+9999MW1021
0076029720999991954012206004+60517+022267FM-12+005499999V0203601N00211220001CN0090001N9-01001-01111103141ADDAY101999GF100991001001999999001001IA1319KA1999N-01001MD1310211+9999MW1011
0049029720999991954012212004+60517+022267FM-12+005499999V0203601N00311220001CN0140001N9-01111-01281103611ADDGF100991001001999999001001MD1310191+9999MW1021
0076029720999991954012218004+60517+022267FM-12+005499999V0203601N00211220001CN0100001N9-01391-01611103911ADDAY101999GF100991001001999999001001IA1319KA1999M-01001MD1210111+9999MW1021
0097029720999991954012306004+60517+022267FM-12+005499999V0203401N00211030001CN0070001N9-01001-01111104061ADDAY121999GF107991031061004501041001IA1009KA1999N-01781MW1011EQDQ01+000022APCTENQ02+000002APC3  
0057029720999991954012312004+60517+022267FM-12+005499999V0203601N00211007801CN0140001N9-00611-00611104011ADDAY121999GF107991071051008001999999MD1990011+9999MW1021
0076029720999991954012406004+60517+022267FM-12+005499999V0200401N00101030001CN0060001N9-01391-01501103861ADDAY121999GF107991021061004501071999IA1319KA1999N-01611MD1810091+9999MW1031
0057029720999991954012412004+60517+022267FM-12+005499999V0209999900461220001CN9999999N9-00391-00781103761ADDAY101999GF100991001001999999001001MD1810051+9999MW1001
0087029720999991954012418004+60517+022267FM-12+005499999V0200901N00211001501CN0030001N9-01001-01001103791ADDAA199000691AY171999GF108991081061001501999999IA1319KA1999M-00721MD1610011+9999MW1781
0057029720999991954012500004+60517+022267FM-12+005499999V0200901N00211004501CN0100001N9-00781-00891103741ADDAY121999GF108991081061004501999999MD1810031+9999MW1021
0087029720999991954012506004+60517+022267FM-12+005499999V0200901N00211004501CN0080001N9-00891-01001103761ADDAA199000691AY171999GF108991081051004501999999IA1319KA1999N-01001MD1710011+9999MW1711
0057029720999991954012512004+60517+022267FM-12+005499999V0200701N00211220001CN0080001N9-01001-01221103811ADDAY171999GF100991001001999999001001MD1010011+9999MW1051
0087029720999991954012518004+60517+022267FM-12+005499999V0200401N00101220001CN0080001N9-01501-01611103851ADDAA199000691AY111999GF100991001001999999001001IA1319KA1999M-00891MD1310051+9999MW1011
0057029720999991954012600004+60517+022267FM-12+005499999V0200901N00101001501CN0140001N9-01611-01721103881ADDAY111999GF107991071061001501999999MD1310011+9999MW1031
0076029720999991954012606004+60517+022267FM-12+005499999V0200201N00151000601CN0100001N9-01501-01611103851ADDAY121999GF108991081061000751999999IA1319KA1999N-01891MD1510001+9999MW1021
0057029720999991954012612004+60517+022267FM-12+005499999V0209991C00001220001CN0060001N9-01721-01781103781ADDAY101999GF104991001001999999001011MD1710091+9999MW1031
0106029720999991954012618004+60517+022267FM-12+005499999V0203601N00101220001CN0080001N9-01611-01781103581ADDAA199000691AY101999GF102991999001999999041001IA1319KA1999M-01501MD1810071+9999MW1021EQDQ01+000002SCOTLC
0057029720999991954012700004+60517+022267FM-12+005499999V0202901N00101004501CN0100001N9-01111-01221103191ADDAY121999GF108991081051004501999999MD1810281+9999MW1021
0076029720999991954012706004+60517+022267FM-12+005499999V0203201N00411030001CN0140001N9-00611-00721102751ADDAY121999GF107991041051004501071999IA1319KA1999N-01721MD1810201+9999MW1021
0057029720999991954012712004+60517+022267FM-12+005499999V0203601N00511220001CN0140001N9-00611-00891102521ADDAY121999GF107991001001999999071071MD1810051+9999MW1011
0078029720999991954012800004+60517+022267FM-12+005499999V0203601N00151004501CN0140001N9-00721-00781102251ADDAY121999GF105991051061004501001001MW1011EQDQ01+000032APCTENQ02+000002APC3  
0095029720999991954012806004+60517+022267FM-12+005499999V0200401N00621220001CN0160001N9-00891-01221102411ADDAY101999GF101991999001999999041001IA1319KA1999N-01001MD1310111+9999MW1031EQDQ01+000002SCOTLC
0057029720999991954012812004+60517+022267FM-12+005499999V0200201N00721220001CN0200001N9-01001-01501102591ADDAY101999GF100991001001999999001001MD1110051+9999MW1021
0097029720999991954012818004+60517+022267FM-12+005499999V0200201N00411004501CN0140001N9-01111-01391102601ADDAY171999GF108991081061004501999999IA1319KA1999M-00891MW1021EQDQ01+000022APCTENQ02+000002APC3  
0087029720999991954012906004+60517+022267FM-12+005499999V0203601N00211004501CN0140001N9-01721-01891102421ADDAA199000691AY111999GF108991081051004501999999IA1319KA1999N-01721MD1310031+9999MW1031
0057029720999991954012912004+60517+022267FM-12+005499999V0200201N00511220001CN0140001N9-01391-01721102341ADDAY101999GF101991011051004501041001MD1810071+9999MW1031
0076029720999991954012918004+60517+022267FM-12+005499999V0200401N00311220001CN0160001N9-01891-02391102521ADDAY101999GF101991011051008001001001IA1319KA1999M-01391MD1310131+9999MW1021
0057029720999991954013000004+60517+022267FM-12+005499999V0200401N00211220001CN0140001N9-01781-02111102821ADDAY101999GF100991001001999999001001MD1310201+9999MW1011
0063029720999991954013006004+60517+022267FM-12+005499999V0203601N00261220001CN0140001N9-02221-02391103021ADDAY101999GF101991001001999999001051IA1319MD1310121+9999MW1041
0057029720999991954013012004+60517+022267FM-12+005499999V0203601N00311220001CN0140001N9-01781-02111103201ADDAY101999GF101991001001999999001011MD1010081+9999MW1021
0076029720999991954013018004+60517+022267FM-12+005499999V0203201N00211220001CN0140001N9-02001-02281103251ADDAY101999GF100991001001999999001001IA1319KA1999M-01721MD1010011+9999MW1021
0057029720999991954013100004+60517+022267FM-12+005499999V0203201N00211004501CN0140001N9-01611-01781103041ADDAY101999GF107991071061004501999999MD1810201+9999MW1701
0063029720999991954013106004+60517+022267FM-12+005499999V0203601N00211002401CN0140001N9-01001-01111102811ADDAY171999GF107991071061002501999999IA1319MD1610071+9999MW1021
0057029720999991954013112004+60517+022267FM-12+005499999V0203601N00311007801CN0140001N9-00391-00611102921ADDAY121999GF108991051051008001071999MD1310071+9999MW1701
0087029720999991954013118004+60517+022267FM-12+005499999V0203601N00311030001CN0160001N9-00221-00391103091ADDAA199000691AY121999GF108991031051004501071999IA1319KA1999M-00221MD1310111+9999MW1011
0057029720999991954020100004+60517+022267FM-12+005499999V0203601N00101004501CN0160001N9-00281-00391103321ADDAY121999GF108991081051004501999999MD1310121+9999MW1031
0057029720999991954020112004+60517+022267FM-12+005499999V0203201N00051007801CN0140001N9-00281-00281103541ADDAY121999GF107991071051008001999999MD1110011+9999MW1021
0076029720999991954020118004+60517+022267FM-12+005499999V0209991C00001007801CN0140001N9-00391-00391103551ADDAY121999GF108991051051008001071999IA1319KA1999M-00221MD1310011+9999MW1021
0078029720999991954020200004+60517+022267FM-12+005499999V0209991C00001004501CN0060001N9-00501-00611103591ADDAY121999GF108991081061004501999999MW1021EQDQ01+000032APCTENQ02+000002APC3  
0097029720999991954020206004+60517+022267FM-12+005499999V0209991C00001000151CN0006001N9-00611-00611103591ADDAY141999GF108991081061000251999999IA1319KA1999N-00721MW1431EQDQ01+000072APCTENQ02+000002APC3  
0076029720999991954020212004+60517+022267FM-12+005499999V0202201N000519999999N0030001N9-00281-00391103601ADDAY141999GF108991999001022501071999MD1990041+9999MW1021EQDQ01+000002SCOTLC
0076029720999991954020218004+60517+022267FM-12+005499999V0202301N00101030001CN0090001N9-00501-00611103461ADDAY121999GF108991021051008001071999IA1319KA1999M-00221MD1810071+9999MW1021
0057029720999991954020300004+60517+022267FM-12+005499999V0202301N00101220001CN0090001N9-00501-00611103211ADDAY121999GF104991001001999999071999MD1810121+9999MW1021
0095029720999991954020306004+60517+022267FM-12+005499999V0202201N00211220001CN0140001N9-00611-00721102921ADDAY111999GF101991999001999999071001IA1319KA1999N-00781MD1810131+9999MW1021EQDQ01+000002SCOTLC
0057029720999991954020312004+60517+022267FM-12+005499999V0202401N00721220001CN0200001N9-00221-00891102681ADDAY101999GF101991011051008001001001MD1810161+9999MW1021
0076029720999991954020318004+60517+022267FM-12+005499999V0202501N00511004501CN0160001N9-00281-00611102411ADDAY121999GF108991081051004501999999IA1319KA1999M-00221MD1810111+9999MW1021
0057029720999991954020400004+60517+022267FM-12+005499999V0202301N00101002401CN0160001N9-00281-00501102321ADDAY121999GF108991081061002501999999MD1810041+9999MW1021
0063029720999991954020406004+60517+022267FM-12+005499999V0202501N00411004501CN0100001N9-00281-00391102091ADDAY121999GF108991051061004501071999IA1319MD1810121+9999MW1701
0057029720999991954020412004+60517+022267FM-12+005499999V0202901N00511004501CN0200001N9+00221-00111101971ADDAY121999GF107991071061004501071999MD1810041+9999MW1011
0087029720999991954020418004+60517+022267FM-12+005499999V0203201N00411001501CN0160001N9+00111-00111102011ADDAA199000391AY121999GF108991081061001501999999IA1319KA1999M+00221MD1210051+9999MW1021
0076029720999991954020500004+60517+022267FM-12+005499999V0203601N001019999999N0160001N9-00111-00111102151ADDAY121999GF108991999001022501071999MD1310081+9999MW1021EQDQ01+000002SCOTLC
0076029720999991954020506004+60517+022267FM-12+005499999V0201401N00101021001CN0160001N9-00111-00281102251ADDAY121999GF107991071001022501071999IA1319KA1999N-00221MD1310071+9999MW1011
0057029720999991954020512004+60517+022267FM-12+005499999V0201801N00211007801CN0160001N9+00001-00281102351ADDAY121999GF108991061051008001071999MD1210011+9999MW1021
0076029720999991954020518004+60517+022267FM-12+005499999V0202001N00101001501CN0100001N9+00111-00111102311ADDAY121999GF108991081061001501999999IA1319KA1999M+00111MD1810031+9999MW1021
0057029720999991954020600004+60517+022267FM-12+005499999V0201801N00211004501CN0100001N9+00111+00001102241ADDAY171999GF107991051051004501071999MD1810041+9999MW1021
0063029720999991954020606004+60517+022267FM-12+005499999V0201801N00211001501CN0060001N9+00111+00001102011ADDAY171999GF107991071061001501999999IA1319MD1810131+9999MW1021
0057029720999991954020612004+60517+022267FM-12+005499999V0202001N00211004501CN0140001N9+00111-00221101861ADDAY121999GF107991061051004501071999MD1810081+9999MW1011
0087029720999991954020618004+60517+022267FM-12+005499999V0202501N00511002401CN0140001N9+00001-00221101661ADDAA199000691AY121999GF108991081061002501999999IA1319KA1999M+00221MD1710081+9999MW1021
0078029720999991954020700004+60517+022267FM-12+005499999V0202301N00311002401CN0160001N9-00221-00221101681ADDAY111999GF107991071061002501999999MW1021EQDQ01+000032APCTENQ02+000002APC3  
0087029720999991954020706004+60517+022267FM-12+005499999V0203301N00621002401CN0160001N9+00111-00111101671ADDAA199000691AY121999GF108991081061002501999999IA1319KA1999N-00281MD1710011+9999MW1021
0057029720999991954020712004+60517+022267FM-12+005499999V0202001N00721004501CN0160001N9+00001-00501101651ADDAY121999GF108991081051004501999999MD1710011+9999MW1021
0097029720999991954020718004+60517+022267FM-12+005499999V0202001N00621004501CN0160001N9-00111-00501101681ADDAY121999GF108991081051004501999999IA1319KA1999M+00111MW1021EQDQ01+000042APCTENQ02+000032APC3  
0057029720999991954020800004+60517+022267FM-12+005499999V0202001N00511004501CN0160001N9-00111-00501101761ADDAY121999GF108991081051004501999999MD1310071+9999MW1021
0097029720999991954020806004+60517+022267FM-12+005499999V0202001N00311004501CN0160001N9-00111-00611101791ADDAY121999GF108991081051004501999999IA1319KA1999N-00111MW1021EQDQ01+000042APCTENQ02+000032APC3  
0057029720999991954020812004+60517+022267FM-12+005499999V0201601N00361004501CN0080001N9-00391-00721102041ADDAY121999GF106991051051004501001051MD1310121+9999MW1011
0076029720999991954020818004+60517+022267FM-12+005499999V0201401N00511220001CN0140001N9-00721-00891999999ADDAY101999GF100991001001999999001001IA1319KA1999M-00111MD1810011+9999MW1021
0097029720999991954020906004+60517+022267FM-12+005499999V0201201N00721220001CN0140001N9-00781-01001101881ADDAY101999GF101991001001999999001051IA1319KA1999N-01001MW1021EQDQ01+000022APCTENQ02+000002APC3  
0057029720999991954020912004+60517+022267FM-12+005499999V0201201N00621220001CN0200001N9-00391-01001101971ADDAY101999GF100991001001999999001001MD1110051+9999MW1021
0097029720999991954020918004+60517+022267FM-12+005499999V0201201N00511220001CN0200001N9-00721-01221102051ADDAY101999GF100991001001999999001001IA1319KA1999M-00391MW1021EQDQ01+000042APCTENQ02+000042APC3  
0057029720999991954021000004+60517+022267FM-12+005499999V0200901N00411220001CN0200001N9-00891-01111102211ADDAY101999GF100991001001999999001001MD1310041+9999MW1021
0095029720999991954021006004+60517+022267FM-12+005499999V0200901N00511220001CN0100001N9-01221-01281102351ADDAY101999GF101991999001999999041001IA1319KA1999N-01221MD1310111+9999MW1021EQDQ01+000002SCOTLC
0057029720999991954021012004+60517+022267FM-12+005499999V0200901N00721002401CN0050001N9-01001-01111102411ADDAY171999GF108991081061002501999999MD1710011+9999MW1711
0108029720999991954021018004+60517+022267FM-12+005499999V0201001N00511004501CN0080001N9-01001-01221102411ADDAA199000391AY171999GF107991061061004501071999IA1319KA1999M-00891MW1021EQDQ01+000032APCTENQ02+000002APC3  
0078029720999991954021100004+60517+022267FM-12+005499999V0200901N00311220001CN0100001N9-01111-01281102411ADDAY121999GF107991001001999999071999MW1021EQDQ01+000032APCTENQ02+000002APC3  
0076029720999991954021106004+60517+022267FM-12+005499999V0200901N00621030001CN0140001N9-01111-01391102381ADDAY121999GF107991021051004501071999IA1319KA1999N-01111MD1210011+9999MW1011
0057029720999991954021112004+60517+022267FM-12+005499999V0200901N00621030001CN0140001N9-00891-01281102111ADDAY171999GF106991021051004501041051MD1810051+9999MW1221
0108029720999991954021118004+60517+022267FM-12+005499999V0200701N00511004501CN0140001N9-01111-01391102241ADDAA199000691AY121999GF108991081051004501999999IA1319KA1999M-01001MW1021EQDQ01+000032APCTENQ02+000002APC3  
0057029720999991954021200004+60517+022267FM-12+005499999V0200701N00511004501CN0070001N9-01111-01391102081ADDAY171999GF108991081061004501999999MD1810091+9999MW1711
0087029720999991954021206004+60517+022267FM-12+005499999V0200401N00511030001CN0070001N9-01221-01391101921ADDAA199000691AY171999GF108991031061004501071999IA1319KA1999N-01281MD1810091+9999MW1701
0057029720999991954021212004+60517+022267FM-12+005499999V0200401N00211220001CN0080001N9-01001-01281101851ADDAY171999GF107991001001999999071061MD1990051+9999MW1781
0108029720999991954021218004+60517+022267FM-12+005499999V0200201N00211220001CN0030001N9-01781-01891101821ADDAA199000691AY111999GF102991001001999999001051IA1319KA1999M-01001MW1011EQDQ01+000032APCTENQ02+000002APC3  
0087029720999991954021306004+60517+022267FM-12+005499999V0203601N00051000151CN0002001N9-02111-02221101801ADDAA199000691AY171999GF108991081061000251999999IA1319KA1999N-02391MD1710011+9999MW1471
0078029720999991954021312004+60517+022267FM-12+005499999V0209991C00001220001CN0030001N9-01281-01391101811ADDAY121999GF100991001001999999001001MW1021EQDQ01+000032APCTENQ02+000002APC3  
0076029720999991954021318004+60517+022267FM-12+005499999V0203201N00211220001CN0060001N9-01721-01891101861ADDAY121999GF108991001001999999071999IA1319KA1999M-01281MD1210031+9999MW1701
0087029720999991954021406004+60517+022267FM-12+005499999V0203601N00101004501CN0060001N9-01221-01391101091ADDAA199000691AY171999GF108991061061004501071999IA1319KA1999N-01721MD1310071+9999MW1711
0076029720999991954021412004+60517+022267FM-12+005499999V0202301N00211220001CN0080001N9-01001-01281102222ADDAY171999GF107991001001999999071999MD1110051+9999MW1711EQDQ01+102223APOSLP
0087029720999991954021418004+60517+022267FM-12+005499999V0202701N00211007801CN0080001N9-00721-00891102201ADDAA199000691AY171999GF108991081051008001999999IA1319KA1999M-00721MD1710031+9999MW1711
0057029720999991954021500004+60517+022267FM-12+005499999V0203601N00211220001CN0140001N9-01891-02001102511ADDAY101999GF103991031051008001001001MD1310211+9999MW1031
0087029720999991954021506004+60517+022267FM-12+005499999V0200201N00211220001CN0140001N9-02001-02221102801ADDAA199000391AY101999GF100991001001999999001001IA1319KA1999N-02111MD1310211+9999MW1021
0076029720999991954021512004+60517+022267FM-12+005499999V0203601N00101220001CN0140001N9-01611-01781102991ADDAY101999GF101991999001999999041001MD1010031+9999MW1021EQDQ01+000002SCOTLC
0076029720999991954021518004+60517+022267FM-12+005499999V0209991C00001220001CN0060001N9-02111-02221103111ADDAY101999GF100991001001999999001001IA1319KA1999M-01501MD1310091+9999MW1041
0057029720999991954021600004+60517+022267FM-12+005499999V0209991C00001220001CN0080001N9-02501-02721103291ADDAY101999GF100991001001999999001001MD1310081+9999MW1021
0097029720999991954021606004+60517+022267FM-12+005499999V0200401N00101220001CN0030001N9-02721-02891103321ADDAY101999GF101991001001999999001051IA1319KA1999N-02721MW1041EQDQ01+000022APCTENQ02+000002APC3  
0057029720999991954021612004+60517+022267FM-12+005499999V0209991C00001220001CN0070001N9-01391-01721103341ADDAY101999GF106991001001999999041061MD1710011+9999MW1041
0076029720999991954021618004+60517+022267FM-12+005499999V0203601N00101220001CN0060001N9-01501-01721103321ADDAY121999GF107991001001999999041071IA1319KA1999M-01221MD1210031+9999MW1021
0043029720999991954021700004+60517+022267FM-12+005499999V0200901N00051007801CN0060001N9-01281-01501103411ADDAY171999GF107991071051008001999999MW1711
0108029720999991954021706004+60517+022267FM-12+005499999V0209991C00001007801CN0030001N9-01221-01281103421ADDAA199000391AY171999GF108991081051008001999999IA1319KA1999N-01721MW1731EQDQ01+000042APCTENQ02+000032APC3  
0057029720999991954021712004+60517+022267FM-12+005499999V0201201N00051030001CN0060001N9-00891-01111103481ADDAY171999GF107991031051008001071999MD1110011+9999MW1711
0113029720999991954021718004+60517+022267FM-12+005499999V0209991C00001220001CN0040001N9-01721-01891103411ADDAY101999GF102991999001999999041001IA1319KA1999M-00891MW1011EQDQ01+000002SCOTLCQ02+000022APCTENQ03+000002APC3  
0076029720999991954021806004+60517+022267FM-12+005499999V0200701N00051220001CN0016001N9-02611-02781103491ADDAY101999GF101991001001999999071051IA1319KA1999N-02891MD1210031+9999MW1041
0057029720999991954021812004+60517+022267FM-12+005499999V0209991C00001220001CN0060001N9-01611-01781103581ADDAY101999GF100991001001999999001001MD1010041+9999MW1051
0063029720999991954021818004+60517+022267FM-12+005499999V0209991C00001220001CN0060001N9-01611-01781103581ADDAY101999GF100991001001999999001001IA1089MD1010041+9999MW1051
0057029720999991954021900004+60517+022267FM-12+005499999V0209991C00001220001CN0090001N9-02391-02611103621ADDAY101999GF101991001001999999001011MD1310041+9999MW1031
0076029720999991954021906004+60517+022267FM-12+005499999V0203601N00051220001CN0024001N9-02611-02781103521ADDAY101999GF101991001001999999001051IA1319KA1999N-02721MD1810081+9999MW1041
0057029720999991954021912004+60517+022267FM-12+005499999V0203201N00101220001CN0100001N9-01001-01721103481ADDAY101999GF100991001001999999001001MD1990051+9999MW1021
0076029720999991954021918004+60517+022267FM-12+005499999V0209991C00001220001CN0100001N9-01781-02001103351ADDAY101999GF100991001001999999001001IA1319KA1999M-01001MD1990041+9999MW1021
0057029720999991954022000004+60517+022267FM-12+005499999V0209991C00001004501CN0100001N9-01221-01281103321ADDAY171999GF108991081051004501999999MD1310031+9999MW1021
0108029720999991954022006004+60517+022267FM-12+005499999V0202701N00051220001CN0140001N9-01281-01391103351ADDAA199000691AY171999GF103991001001999999041051IA1319KA1999N-02281MW1021EQDQ01+000042APCTENQ02+000042APC3  
0078029720999991954022012004+60517+022267FM-12+005499999V0203201N00211220001CN0160001N9-00721-01111103401ADDAY101999GF101991011051012501001001MW1021EQDQ01+000032APCTENQ02+000002APC3  
0097029720999991954022018004+60517+022267FM-12+005499999V0202501N00101220001CN0110001N9-01611-01721103421ADDAY101999GF100991001001999999001001IA1319KA1999M-00721MW1041EQDQ01+000042APCTENQ02+000042APC3  
0057029720999991954022100004+60517+022267FM-12+005499999V0209991C00001220001CN0100001N9-02221-02281103391ADDAY101999GF100991001001999999001001MD1810031+9999MW1021
0095029720999991954022106004+60517+022267FM-12+005499999V0202001N00101220001CN0140001N9-02221-02281103321ADDAY101999GF101991999001999999041001IA1319KA1999N-02501MD1990041+9999MW1031EQDQ01+000002SCOTLC
0057029720999991954022112004+60517+022267FM-12+005499999V0202301N00311030001CN0160001N9-00611-01001103261ADDAY121999GF107991011011004501041061MD1810071+9999MW1031
0113029720999991954022206004+60517+022267FM-12+005499999V0201601N00101220001CN0012001N9-02111-02281103311ADDAY101999GF101991999001999999071001IA1319KA1999N-02281MW1101EQDQ01+000002SCOTLCQ02+000042APCTENQ03+000042APC3  
0057029720999991954022212004+60517+022267FM-12+005499999V0202201N00101220001CN0140001N9-00501-01001103361ADDAY101999GF102991011011008001041011MD1110041+9999MW1021
0087029720999991954022306004+60517+022267FM-12+005499999V0201201N00311007801CN0040001N9-00891-01001103621ADDAA199000691AY171999GF107991071051008001999999IA1319KA1999N-01891MD1510011+9999MW1711
0057029720999991954022312004+60517+022267FM-12+005499999V0201401N00311001501CN0070001N9-00781-00891103721ADDAY171999GF106991061061001501001001MD1210041+9999MW1011
0108029720999991954022318004+60517+022267FM-12+005499999V0201401N00211220001CN0080001N9-01221-01391103661ADDAA199000691AY101999GF100991001001999999001001IA1319KA1999M-00781MW1011EQDQ01+000072APCTENQ02+000002APC3  
0057029720999991954022400004+60517+022267FM-12+005499999V0201401N00211220001CN0140001N9-01501-01721103541ADDAY101999GF100991001001999999001001MD1810091+9999MW1021
0063029720999991954022406004+60517+022267FM-12+005499999V0201201N00311220001CN0140001N9-01501-01721103421ADDAY101999GF101991001001999999001051IA1319MD1810051+9999MW1031
0076029720999991954022418004+60517+022267FM-12+005499999V0201201N00211220001CN0080001N9-01501-01721103181ADDAY101999GF100991001001999999001001IA1319KA1999M-00891MD1990041+9999MW1011
0057029720999991954022500004+60517+022267FM-12+005499999V0201201N00311220001CN0160001N9-01611-01721102981ADDAY101999GF100991001001999999001001MD1810091+9999MW1021
0076029720999991954022506004+60517+022267FM-12+005499999V0201101N00411002401CN0040001N9-01501-01721102711ADDAY111999GF105991051061002501001001IA1319KA1999N-01721MD1810131+9999MW1021
0057029720999991954022512004+60517+022267FM-12+005499999V0201201N00511220001CN0070001N9-01111-01281102491ADDAY171999GF101991001001999999001051MD1810161+9999MW1011
0076029720999991954022518004+60517+022267FM-12+005499999V0200901N00621220001CN0100001N9-01221-01501102251ADDAY111999GF102991001001999999001051IA1009KA1999M-00891MD1810071+9999MW1011
0057029720999991954022600004+60517+022267FM-12+005499999V0201201N00621220001CN0140001N9-01611-01721101981ADDAY101999GF100991001001999999001001MD1810151+9999MW1021
0087029720999991954022606004+60517+022267FM-12+005499999V0201201N00821002401CN0080001N9-01281-01501101641ADDAA199000691AY121999GF108991081061002501999999IA1319KA1999N-01501MD1610151+9999MW1031
0076029720999991954022618004+60517+022267FM-12+005499999V0201101N01031004501CN0160001N9-01001-01501101261ADDAY121999GF108991051051004501071999IA1319KA1999M-00891MD1810041+9999MW1021
0057029720999991954022700004+60517+022267FM-12+005499999V0201101N01031007801CN0070001N9-00891-01221101181ADDAY171999GF108991081061008001999999MD1810051+9999MW1711
0087029720999991954022706004+60517+022267FM-12+005499999V0201101N00931030001CN0160001N9-01001-01501101211ADDAA199000691AY121999GF107991011051004501071999IA1319KA1999N-01111MD1310051+9999MW1021
0057029720999991954022712004+60517+022267FM-12+005499999V0201201N00621030001CN0100001N9-01111-01501101251ADDAY171999GF108991021051004501011999MD1710011+9999MW1021
0087029720999991954022718004+60517+022267FM-12+005499999V0200901N00721004501CN0070001N9-01111-01501101211ADDAA199000691AY171999GF108991081061004501999999IA1319KA1999M-00891MD1010031+9999MW1711
0057029720999991954022800004+60517+022267FM-12+005499999V0200901N00311004501CN0050001N9-01001-01281101171ADDAY171999GF108991081061004501999999MD1810041+9999MW1711
0087029720999991954022806004+60517+022267FM-12+005499999V0200901N00261004501CN0024001N9-01001-01111100981ADDAA199000591AY171999GF108991081061004501999999IA1319KA1999N-01221MD1610051+9999MW1731
0078029720999991954022812004+60517+022267FM-12+005499999V0200901N00411004501CN0040001N9-00721-01001100961ADDAY171999GF108991081061004501999999MW1711EQDQ01+000022APCTENQ02+000002APC3  
0063029720999991954022818004+60517+022267FM-12+005499999V0200901N00311004501CN0050001N9-00721-00891100951ADDAY121999GF108991081061004501999999IA1319MD1210031+9999MW1711
0057029720999991954030100004+60517+022267FM-12+005499999V0200901N00211002401CN0050001N9-00721-00781100921ADDAY171999GF108991081061002501999999MD1990031+9999MW1221
0087029720999991954030106004+60517+022267FM-12+005499999V0201201N00411002401CN0030001N9-00611-00721100841ADDAA199000691AY171999GF108991081061002501999999IA1319KA1999N-00721MD1810051+9999MW1021
0057029720999991954030112004+60517+022267FM-12+005499999V0201101N00511002401CN0050001N9-00221-00391100851ADDAY121999GF108991081061002501999999MD1010031+9999MW1021
0087029720999991954030118004+60517+022267FM-12+005499999V0201201N00621002401CN0040001N9-00221-00391100681ADDAA199000691AY121999GF108991081061002501999999IA1319KA1999M-00111MD1810071+9999MW1021
0057029720999991954030200004+60517+022267FM-12+005499999V0200701N00411001501CN0014001N9-00221-00221100021ADDAY121999GF108991081061001501999999MD1810471+9999MW1711
0087029720999991954030206004+60517+022267FM-12+005499999V0201801N00101000601CN0024001N9+00001+00001099641ADDAA199003091AY171999GF108991081061000751999999IA1319KA1999N-00221MD1510081+9999MW1021
0043029720999991954030212004+60517+022267FM-12+005499999V0201801N00621004501CN0050001N9+00111-00221099791ADDAY171999GF108991081061004501999999MW1711
0108029720999991954030218004+60517+022267FM-12+005499999V0201801N00101001501CN0030001N9+00001+00001099801ADDAA199001091AY171999GF108991081061001501999999IA1319KA1999M+00111MW1731EQDQ01+000042APCTENQ02+000042APC3  
0057029720999991954030300004+60517+022267FM-12+005499999V0202001N00311002401CN0070001N9+00001-00111100141ADDAY171999GF108991081061002501999999MD1310111+9999MW1711
0087029720999991954030306004+60517+022267FM-12+005499999V0201601N00411002401CN0060001N9-00111-00281100211ADDAA199000591AY171999GF108991081061002501999999IA1319KA1999N-00221MD1110011+9999MW1021
0087029720999991954030318004+60517+022267FM-12+005499999V0201801N00411012301CN0060001N9+00001-00111099311ADDAA199004091AY171999GF108991061081012501999999IA1319KA1999M+00111MD1510031+9999MW1021
0057029720999991954030400004+60517+022267FM-12+005499999V0202301N00411004501CN0100001N9+00001-00221099691ADDAY121999GF108991081061004501999999MD1310271+9999MW1021
0076029720999991954030406004+60517+022267FM-12+005499999V0201401N00101004501CN0050001N9-00281-00281999999ADDAY121999GF108991081051004501999999IA1319KA1999N-00281MD1310111+9999MW1021
0057029720999991954030412004+60517+022267FM-12+005499999V0200901N00411002401CN0080001N9+00111-00221100021ADDAY121999GF108991081061002501999999MD1810081+9999MW1021
0076029720999991954030418004+60517+022267FM-12+005499999V0200901N00411001501CN0024001N9+00111+00001099761ADDAY121999GF108991081061001501999999IA1319KA1999M+00111MD1810121+9999MW1021
0057029720999991954030500004+60517+022267FM-12+005499999V0200901N00211001501CN0044001N9+00111+00001099521ADDAY171999GF108991081061001501999999MD1810091+9999MW1021
0087029720999991954030506004+60517+022267FM-12+005499999V0200901N00211000601CN0020001N9+00111+00111099451ADDAA199001091AY151999GF108991081061000751999999IA1319KA1999N+00001MD1990011+9999MW1681
0057029720999991954030512004+60517+022267FM-12+005499999V0201401N00101000151CN0004001N9+00111+00111099651ADDAY141999GF108991081061000251999999MD1310151+9999MW1451
0087029720999991954030518004+60517+022267FM-12+005499999V0201401N00211000151CN0010001N9+00111+00111099811ADDAA199000391AY141999GF108991081061000251999999IA1319KA1999M+00221MD1310151+9999MW1281
0057029720999991954030600004+60517+022267FM-12+005499999V0200901N00511000601CN0030001N9+00111+00111099811ADDAY121999GF108991081061000751999999MD1990051+9999MW1021
0087029720999991954030606004+60517+022267FM-12+005499999V0201201N00821001501CN0030001N9+00221+00111099291ADDAA199000391AY121999GF108991081061001501999999IA1209KA1999N+00111MD1810231+9999MW1631
0057029720999991954030612004+60517+022267FM-12+005499999V0201601N00721002401CN0100001N9+00221-00111099411ADDAY151999GF108991081061002501999999MD1210011+9999MW1021
0106029720999991954030618004+60517+022267FM-12+005499999V0202001N00621004501CN0160001N9+00221-00111100261ADDAA199001091AY121999GF108991081051004501999999IA1209KA1999M+00281MD1310562+9999MW1021EQDQ01+000562APC3  
0057029720999991954030700004+60517+022267FM-12+005499999V0202001N00511000601CN0030001N9+00111+00001100911ADDAY101999GF108991081061000751999999MD1310241+9999MW1021
0076029720999991954030706004+60517+022267FM-12+005499999V0201601N00211001501CN0020001N9+00111+00001101151ADDAY121999GF108991081061001501999999IA1209KA1999N+00001MD1310131+9999MW1021
0078029720999991954030712004+60517+022267FM-12+005499999V0201601N00211001501CN0040001N9+00111+00001101281ADDAY171999GF108991081061001501999999MW1681EQDQ01+000042APCTENQ02+000052APC3  
0087029720999991954030718004+60517+022267FM-12+005499999V0201601N00311004501CN0040001N9+00111+00001101511ADDAA199000391AY141999GF108991081051004501999999IA1209KA1999M+00221MD1310161+9999MW1021
0057029720999991954030800004+60517+022267FM-12+005499999V0201601N00411001501CN0030001N9+00001+00001101551ADDAY121999GF108991081061001501999999MD1810031+9999MW1021
0057029720999991954030812004+60517+022267FM-12+005499999V0201401N00511000601CN0030001N9+00001-00111101441ADDAY151999GF108991081061000751999999MD1210041+9999MW1511
0087029720999991954030906004+60517+022267FM-12+005499999V0201801N00621002401CN0060001N9+00111-00111101801ADDAA199000691AY171999GF108991081061002501999999IA1209KA1999N+00001MD1310081+9999MW1681
0057029720999991954030912004+60517+022267FM-12+005499999V0201601N00411001501CN0050001N9+00111+00001102091ADDAY171999GF108991081061001501999999MD1310091+9999MW1681
0087029720999991954030918004+60517+022267FM-12+005499999V0201601N00211001501CN0040001N9+00111+00001102261ADDAA199001091AY171999GF108991081061001501999999IA1209KA1999M+00111MD1310091+9999MW1681
0057029720999991954031000004+60517+022267FM-12+005499999V0201801N00411001501CN0050001N9+00001-00111102351ADDAY121999GF108991081061001501999999MD1310011+9999MW1021
0087029720999991954031006004+60517+022267FM-12+005499999V0201601N00311001501CN0034001N9-00111-00111102401ADDAA199000391AY121999GF108991081061001501999999IA1209KA1999N-00111MD1210031+9999MW1201
0078029720999991954031012004+60517+022267FM-12+005499999V0201801N00411001501CN0030001N9+00001-00221102451ADDAY151999GF108991081061001501999999MW1561EQDQ01+000022APCTENQ02+000002APC3  
0108029720999991954031018004+60517+022267FM-12+005499999V0201601N00411001501CN0040001N9-00111-00221102441ADDAA199000691AY151999GF108991081061001501999999IA1209KA1999M+00001MW1201EQDQ01+000072APCTENQ02+000002APC3  
0057029720999991954031100004+60517+022267FM-12+005499999V0201601N00211002401CN0050001N9-00111-00281102401ADDAY121999GF108991081061002501999999MD1810031+9999MW1021
0087029720999991954031106004+60517+022267FM-12+005499999V0209999900101001501CN0040001N9-00111-00111102321ADDAA199000691AY121999GF108991081061001501999999IA1209KA1999N-00221MD1810051+9999MW1561
0057029720999991954031112004+60517+022267FM-12+005499999V0201801N00101002401CN0070001N9+00001-00111102411ADDAY171999GF108991081061002501999999MD1010011+9999MW1681
0108029720999991954031118004+60517+022267FM-12+005499999V0201601N00051001501CN0034001N9+00001-00111102441ADDAA199000691AY121999GF108991081061001501999999IA1209KA1999M+00111MW1781EQDQ01+000042APCTENQ02+000072APC3  
0078029720999991954031200004+60517+022267FM-12+005499999V0209991C00001001501CN0040001N9+00001-00111102451ADDAY171999GF108991081061001501999999MW1221EQDQ01+000032APCTENQ02+000002APC3  
0106029720999991954031206004+60517+022267FM-12+005499999V0202301N00311002401CN0100001N9-00221-00221102381ADDAA199000391AY171999GF108991081061002501999999IA1209KA1999N+99999MD1610031+9999MW1021EQDQ01 -00112ATMN  
0057029720999991954031212004+60517+022267FM-12+005499999V0202501N00411002401CN0090001N9-00111-00221102341ADDAY121999GF108991081061002501999999MD1710091+9999MW1501
0087029720999991954031218004+60517+022267FM-12+005499999V0202501N00101001501CN0070001N9-00111-00221102261ADDAA199000691AY171999GF108991081061001501999999IA1209KA1999M+00001MD1710031+9999MW1761
0057029720999991954031300004+60517+022267FM-12+005499999V0202301N00101002401CN0100001N9-00111-00221102611ADDAY121999GF107991071061002501999999MD1310201+9999MW1011
0087029720999991954031306004+60517+022267FM-12+005499999V0203601N00311220001CN0200001N9-00501-01001103261ADDAA199000691AY101999GF100991001001999999001001IA1209KA1999N-00501MD1310351+9999MW1021
0057029720999991954031312004+60517+022267FM-12+005499999V0200701N00211220001CN0200001N9-00111-01281103641ADDAY101999GF105991001001999999001061MD1310121+9999MW1031
0076029720999991954031318004+60517+022267FM-12+005499999V0209991C00001220001CN0160001N9-00391-00781103591ADDAY121999GF106991001001999999041061IA1209KA1999M+00111MD1710011+9999MW1021
0057029720999991954031400004+60517+022267FM-12+005499999V0209991C00001220001CN0140001N9-00781-01001103451ADDAY111999GF102991001001999999001021MD1810071+9999MW1011
0057029720999991954031412004+60517+022267FM-12+005499999V0202201N00211004501CN0200001N9-00111-00501102611ADDAY121999GF108991081081004501999999MD1810251+9999MW1031
0076029720999991954031418004+60517+022267FM-12+005499999V0202101N00311004501CN0200001N9-00111-00391102221ADDAY121999GF108991081051004501999999IA1209KA1999M-00111MD1810191+9999MW1021
0057029720999991954031500004+60517+022267FM-12+005499999V0202301N00311002401CN0140001N9-00111-00281101841ADDAY121999GF108991081061002501999999MD1810191+9999MW1021
0076029720999991954031506004+60517+022267FM-12+005499999V0202501N00311001501CN0100001N9-00111-00221101421ADDAY121999GF107991071061001501999999IA1209KA1999N-00221MD1810161+9999MW1011
0057029720999991954031512004+60517+022267FM-12+005499999V0202501N00411220001CN0200001N9+00281-00221101091ADDAY111999GF107991001001999999071061MD1810171+9999MW1011
0076029720999991954031606004+60517+022267FM-12+005499999V0203201N00821220001CN0200001N9+00001-00721100201ADDAY111999GF102991011061008001041051IA1199KA1999N+00001MD1110011+9999MW1011
0057029720999991954031612004+60517+022267FM-12+005499999V0203201N00931220001CN0200001N9+00111-00721100381ADDAY121999GF104991041081008001001001MD1310091+9999MW1021
0076029720999991954031618004+60517+022267FM-12+005499999V0203201N00511220001CN0200001N9-00111-00611100841ADDAY111999GF101991011051008001001051IA1199KA1999M+00111MD1310281+9999MW1011
0057029720999991954031700004+60517+022267FM-12+005499999V0203001N00211220001CN0200001N9-00281-00611101171ADDAY101999GF100991001001999999001001MD1310151+9999MW1021
0057029720999991954031712004+60517+022267FM-12+005499999V0200201N00411030001CN0160001N9-00221-00891101401ADDAY181999GF106991041081008001041001MD1310081+9999MW1261
0087029720999991954031718004+60517+022267FM-12+005499999V0203601N00211220001CN0200001N9-00501-01391101541ADDAA199000691AY121999GF108991001001999999011071IA1209KA1999M+00001MD1310111+9999MW1031
0057029720999991954031800004+60517+022267FM-12+005499999V0201401N00101220001CN0200001N9-00611-01221101361ADDAY121999GF108991001001999999011071MD1810131+9999MW1021
0087029720999991954031806004+60517+022267FM-12+005499999V0201101N00511002401CN0006001N9-00611-00721100851ADDAA199000591AY171999GF108991081061002501999999IA1209KA1999N-00721MD1810281+9999MW1731
0057029720999991954031812004+60517+022267FM-12+005499999V0201201N00311004501CN0020001N9-00221-00221100481ADDAY171999GF108991081061004501999999MD1810131+9999MW1711
0087029720999991954031818004+60517+022267FM-12+005499999V0200701N00621002401CN0030001N9-00501-00721100661ADDAA199004091AY171999GF108991081061002501999999IA1319KA1999M-00111MD1310191+9999MW1711
0076029720999991954031906004+60517+022267FM-12+005499999V0200201N00211220001CN0200001N9-01611-01781102061ADDAY101999GF100991001001999999001001IA1319KA1999N-01721MD1310211+9999MW1021
0057029720999991954031912004+60517+022267FM-12+005499999V0202901N00211220001CN0200001N9-00391-01391102381ADDAY101999GF102991001001999999001011MD1310111+9999MW1031
0076029720999991954031918004+60517+022267FM-12+005499999V0202501N00211220001CN0200001N9-00891-01391102391ADDAY111999GF103991001001999999001051IA1319KA1999M-00221MD1210011+9999MW1011
0076029720999991954032006004+60517+022267FM-12+005499999V0202501N00411220001CN0200001N9-00281-00611102121ADDAY121999GF108991001001999999071071IA1319KA1999N-01721MD1710011+9999MW1031
0078029720999991954032012004+60517+022267FM-12+005499999V0202501N00511220001CN0200001N9+00221-00501102141ADDAY121999GF107991001001999999001021MW1011EQDQ01+000032APCTENQ02+000002APC3  
0097029720999991954032018004+60517+022267FM-12+005499999V0202301N00311220001CN0200001N9-00221-00391102111ADDAY101999GF102991001001999999001021IA1319KA1999M+00221MW1011EQDQ01+000032APCTENQ02+000002APC3  
0057029720999991954032100004+60517+022267FM-12+005499999V0202301N00311220001CN0200001N9-00281-00281102151ADDAY101999GF101991001001999999001011MD1310041+9999MW1011
0063029720999991954032106004+60517+022267FM-12+005499999V0202201N00511001501CN0160001N9-00111-00221102091ADDAY121999GF107991071061001501999999IA1319MD1990031+9999MW1021
0057029720999991954032112004+60517+022267FM-12+005499999V0202201N00411220001CN0200001N9+00281-00221102051ADDAY101999GF101991011011008001001001MD1810071+9999MW1011
0076029720999991954032118004+60517+022267FM-12+005499999V0202101N00411220001CN0200001N9+00001-00281101721ADDAY101999GF103991011051004501001051IA1199KA1999M+00281MD1810171+9999MW1021
0057029720999991954032200004+60517+022267FM-12+005499999V0202001N00411220001CN0160001N9+00001-00111101321ADDAY121999GF108991001001999999021999MD1810201+9999MW1031
0087029720999991954032206004+60517+022267FM-12+005499999V0202301N00361001501CN0024001N9+00221+00111101051ADDAA199000691AY151999GF108991081061001501999999IA1199KA1999N-00111MD1510031+9999MW1511
0078029720999991954032212004+60517+022267FM-12+005499999V0202301N00411001501CN0040001N9+00281+00221101061ADDAY121999GF108991081061001501999999MW1021EQDQ01+000062APCTENQ02+000002APC3  
0087029720999991954032218004+60517+022267FM-12+005499999V0202001N00411001501CN0024001N9+00221+00111100801ADDAA199003091AY161999GF108991081061001501999999IA1199KA1999M+00281MD1810121+9999MW1631
0057029720999991954032300004+60517+022267FM-12+005499999V0202201N00101001501CN0050001N9+00281+00281100791ADDAY121999GF108991081061001501999999MD1310011+9999MW1021
0108029720999991954032306004+60517+022267FM-12+005499999V0202301N00211000151CN0008001N9+00281+00281100801ADDAA199002091AY141999GF108991081061000251999999IA1199KA1999N+00221MW1441EQDQ01+000042APCTENQ02+000012APC3  
0043029720999991954032312004+60517+022267FM-12+005499999V0202301N00101000151CN0006001N9+00391+00281100961ADDAY141999GF108991081061000251999999MW1441
0076029720999991954032318004+60517+022267FM-12+005499999V0201801N00211220001CN0050001N9+99999+99999100921ADDAY121999GF107991001001999999071051IA1199KA1999M+00611MD1210011+9999MW1051
0095029720999991954032406004+60517+022267FM-12+005499999V0202001N00211220001CN0080001N9+00281+00111100721ADDAY101999GF101991999001999999041001IA1199KA1999N+00281MD1810131+9999MW1051EQDQ01+000002SCOTLC
0057029720999991954032412004+60517+022267FM-12+005499999V0202301N00311220001CN0090001N9+00611+00111100711ADDAY111999GF105991001001999999001061MD1990021+9999MW1051
0076029720999991954032418004+60517+022267FM-12+005499999V0203601N00511004501CN0160001N9+00111-00221100921ADDAY121999GF108991071051004501071999IA1189KA1999M+00611MD1310171+9999MW1021
0057029720999991954032512004+60517+022267FM-12+005499999V0200701N00511220001CN0400001N9+00221-01111101391ADDAY101999GF102991001001999999001021MD1990041+9999MW1021
0076029720999991954032518004+60517+022267FM-12+005499999V0200401N00151220001CN0400001N9-00111-01111101391ADDAY121999GF105991001001999999041021IA1189KA1999M+00221MD1310041+9999MW1021
0057029720999991954032600004+60517+022267FM-12+005499999V0200401N00511007801CN0160001N9-00221-01111101281ADDAY121999GF108991081051008001999999MD1990131+9999MW1031
0076029720999991954032606004+60517+022267FM-12+005499999V0200901N00411004501CN0160001N9-00111-00891101121ADDAY121999GF108991081051004501999999IA1189KA1999N-00221MD1710031+9999MW1021
0057029720999991954032612004+60517+022267FM-12+005499999V0200701N00211004501CN0060001N9+00001-00391100941ADDAY171999GF108991081051004501999999MD1610071+9999MW1711
0087029720999991954032618004+60517+022267FM-12+005499999V0200701N00101004501CN0024001N9-00111-00111100921ADDAA199001091AY171999GF108991081061004501999999IA1319KA1999M+00111MD1210031+9999MW1731
0057029720999991954032700004+60517+022267FM-12+005499999V0200401N00051001501CN0020001N9-00111-00111100851ADDAY121999GF108991081061001501999999MD1810101+9999MW1711
0087029720999991954032706004+60517+022267FM-12+005499999V0200201N00101002401CN0024001N9-00111-00111100811ADDAA199001091AY171999GF108991081061002501999999IA1209KA1999N-00221MD1710011+9999MW1711
0078029720999991954032712004+60517+022267FM-12+005499999V0209991C00001002401CN0060001N9+00111-00111100851ADDAY121999GF108991081061002501999999MW1701EQDQ01+000032APCTENQ02+000002APC3  
0043029720999991954032718004+60517+022267FM-12+005499999V0209991C00001002401CN0060001N9+00001-00111100861ADDAY121999GF108991081061002501999999MW1021
0057029720999991954032800004+60517+022267FM-12+005499999V0209991C00001004501CN0100001N9-00221-00281100881ADDAY121999GF108991081051004501001001MD1310011+9999MW1021
0108029720999991954032806004+60517+022267FM-12+005499999V0203601N00051007801CN0044001N9-00111-00111100891ADDAA199000691AY171999GF107991071051008001999999IA1199KA1999N-00221MW1711EQDQ01+000042APCTENQ02+000042APC3  
0057029720999991954032812004+60517+022267FM-12+005499999V0203601N00211030001CN0160001N9+00281-00281100861ADDAY121999GF108991021011008001071999MD1990041+9999MW1031
0073029720999991954032818004+60517+022267FM-12+005499999V0203601N00211030001CN0160001N9-00111-00111101001ADDAA199000691AY121999GF108991031051008001071999IA1199KA1999M+00391MW1711
0057029720999991954032900004+60517+022267FM-12+005499999V0203601N00051004501CN0100001N9+00001-00111101171ADDAY111999GF108991081061004501999999MD1310121+9999MW1021
0087029720999991954032906004+60517+022267FM-12+005499999V0203601N00211004501CN0140001N9-00111-00281101251ADDAA199000691AY121999GF108991081061004501999999IA1199KA1999N-00221MD1210051+9999MW1021
0057029720999991954032912004+60517+022267FM-12+005499999V0200201N00511004501CN0140001N9+00221-00221101391ADDAY171999GF108991071051004501071999MD1310071+9999MW1681
0063029720999991954032918004+60517+022267FM-12+005499999V0203601N00211004501CN0004001N9+00001-00111101481ADDAY171999GF108991061061004501021999IA1199MD1310051+9999MW1681
0057029720999991954033000004+60517+022267FM-12+005499999V0200201N00101004501CN0090001N9+00001-00281101591ADDAY121999GF108991081061004501999999MD1310071+9999MW1021
0063029720999991954033006004+60517+022267FM-12+005499999V0200401N00311004501CN0060001N9+00001-00111101651ADDAY171999GF108991051061004501071999IA1199MD1210041+9999MW1711
0057029720999991954033012004+60517+022267FM-12+005499999V0200901N00411002401CN0080001N9+00221+00111101761ADDAY171999GF108991081061002501999999MD1110071+9999MW1021
0087029720999991954033018004+60517+022267FM-12+005499999V0200901N00511004501CN0080001N9+00221-00111101921ADDAA199000391AY121999GF108991081051004501999999IA1189KA1999M+00281MD1310051+9999MW1021
0076029720999991954033106004+60517+022267FM-12+005499999V0200901N00411002401CN0080001N9+00001-00111102051ADDAY121999GF108991081061002501999999IA1189KA1999N+00001MD1010031+9999MW1021
0057029720999991954033112004+60517+022267FM-12+005499999V0201401N00361004501CN0080001N9+00221-00111102081ADDAY121999GF108991081051004501999999MD1710031+9999MW1021
0076029720999991954033118004+60517+022267FM-12+005499999V0201101N00261004501CN0070001N9+00111-00111102021ADDAY121999GF108991081051004501999999IA1189KA1999M+00221MD1510011+9999MW1021
0057029720999991954040100004+60517+022267FM-12+005499999V0201201N00211007801CN0100001N9+00111-00111101941ADDAY121999GF107991071051008001999999MD1810081+9999MW1011
0076029720999991954040106004+60517+022267FM-12+005499999V0201001N00511030001CN0100001N9+00111-00111101661ADDAY121999GF108991031051008001071999IA1189KA1999N+00001MD1810171+9999MW1031
0057029720999991954040112004+60517+022267FM-12+005499999V0200901N00621030001CN0140001N9+00391-00221101241ADDAY121999GF108991011051004501021999MD1810271+9999MW1021
0087029720999991954040118004+60517+022267FM-12+005499999V0200901N00721001501CN0030001N9+00111+00001100681ADDAA199002091AY171999GF108991081061001501999999IA1189KA1999M+00391MD1810241+9999MW1681
0057029720999991954040200004+60517+022267FM-12+005499999V0201401N00311002401CN0050001N9+00111+00001100481ADDAY121999GF108991081061002501999999MD1810111+9999MW1021
0108029720999991954040206004+60517+022267FM-12+005499999V0202001N00101000601CN0020001N9+00111+00001100421ADDAA199001091AY121999GF108991081061000751999999IA1189KA1999N+00111MW1101EQDQ01+000042APCTENQ02+000042APC3  
0057029720999991954040212004+60517+022267FM-12+005499999V0202501N00211002401CN0160001N9+00221+00001100791ADDAY121999GF108991061051002501999999MD1310161+9999MW1021
0076029720999991954040218004+60517+022267FM-12+005499999V0202901N00211004501CN0090001N9+00111-00111100911ADDAY121999GF108991081051004501999999IA1189KA1999M+00221MD1310041+9999MW1021
0057029720999991954040300004+60517+022267FM-12+005499999V0202901N00211002401CN0140001N9+00001-00221101021ADDAY121999GF108991081061002501999999MD1310031+9999MW1021
0076029720999991954040306004+60517+022267FM-12+005499999V0202701N00101002401CN0090001N9-00111-00281101061ADDAY111999GF107991051061002501071999IA1189KA1999N-00221MD1210071+9999MW1021
0078029720999991954040312004+60517+022267FM-12+005499999V0202301N00101004501CN0140001N9+00001-00391101091ADDAY121999GF108991081051004501999999MW1021EQDQ01+000022APCTENQ02+000002APC3  
0076029720999991954040318004+60517+022267FM-12+005499999V0201801N00101004501CN0100001N9-00111-00281101051ADDAY121999GF108991081061004501999999IA1189KA1999M+00001MD1710011+9999MW1021
0087029720999991954040406004+60517+022267FM-12+005499999V0201401N00261001501CN0024001N9-00111-00111100801ADDAA199000391AY171999GF108991081061001501999999IA1189KA1999N-00221MD1610041+9999MW1731
0057029720999991954040412004+60517+022267FM-12+005499999V0201601N00311001501CN0034001N9+00001+00001100451ADDAY171999GF108991081061001501999999MD1810271+9999MW1681
0106029720999991954040418004+60517+022267FM-12+005499999V0201601N00621001501CN0020001N9+00111+00111099542ADDAA199002091AY171999GF108991081061001501999999IA1189KA1999M+00221MD1810471+9999MW1581EQDQ01+099543APOSLP
0087029720999991954040506004+60517+022267FM-12+005499999V0202101N00621030001CN0200001N9+00281-00111098781ADDAA199001091AY121999GF107991031051004501071999IA1189KA1999N+00111MD1610041+9999MW1021
0057029720999991954040512004+60517+022267FM-12+005499999V0202401N00621004501CN0200001N9+00391+00111099011ADDAY181999GF108991081051004501999999MD1310201+9999MW1021
0087029720999991954040518004+60517+022267FM-12+005499999V0202001N00101030001CN0200001N9+00111-00111099661ADDAA199001091AY121999GF106991031051008001071999IA1189KA1999M+00501MD1310251+9999MW1011
0057029720999991954040600004+60517+022267FM-12+005499999V0202601N00051220001CN0140001N9+00111+00001100281ADDAY121999GF108991001001999999071999MD1310351+9999MW1021
0057029720999991954040612004+60517+022267FM-12+005499999V0202001N00211030001CN0200001N9+00501-00111101311ADDAY121999GF107991021081008001071999MD1310161+9999MW1021
0095029720999991954040618004+60517+022267FM-12+005499999V0203201N00101220001CN0200001N9+00221-00221101551ADDAY111999GF101991999001999999041001IA1189KA1999M+00611MD1310121+9999MW1011EQDQ01+000002SCOTLC
0057029720999991954040700004+60517+022267FM-12+005499999V0203401N00101220001CN0200001N9-00221-00391101861ADDAY101999GF100991001001999999001001MD1310151+9999MW1021
0095029720999991954040706004+60517+022267FM-12+005499999V0203401N00101220001CN0140001N9-00221-00391102141ADDAY101999GF101991999001999999041001IA1189KA1999N-00391MD1310161+9999MW1031EQDQ01+000002SCOTLC
0057029720999991954040712004+60517+022267FM-12+005499999V0203601N00211004501CN0200001N9+00111-00611102381ADDAY121999GF108991061051004501071999MD1310121+9999MW1021
0087029720999991954040718004+60517+022267FM-12+005499999V0203201N00411220001CN0200001N9-00111-00281102511ADDAA199000691AY111999GF102991021051008001041001IA1189KA1999M+00221MD1310111+9999MW1011
0057029720999991954040800004+60517+022267FM-12+005499999V0203401N00211220001CN0140001N9-00281-00391102681ADDAY101999GF100991001001999999001001MD1310041+9999MW1011
0076029720999991954040806004+60517+022267FM-12+005499999V0203601N00101220001CN0140001N9-00111-00111102891ADDAY121999GF108991001001999999071999IA1189KA1999N-00111MD1310111+9999MW1021
0057029720999991954040812004+60517+022267FM-12+005499999V0203601N00211007801CN0200001N9+00221-00781103061ADDAY121999GF107991061081008001041001MD1310041+9999MW1031
0095029720999991954040818004+60517+022267FM-12+005499999V0203201N00211220001CN0200001N9+00111-00611103181ADDAY111999GF101991999001999999041001IA1189KA1999M+00391MD1310091+9999MW1011EQDQ01+000002SCOTLC
0076029720999991954040906004+60517+022267FM-12+005499999V0203401N00311220001CN0200001N9-00221-00611103511ADDAY111999GF104991001001999999041061IA1189KA1999N-00281MD1310041+9999MW1021
0076029720999991954040912004+60517+022267FM-12+005499999V0203401N00411220001CN0400001N9+00611-00721103391ADDAY111999GF101991999001999999041001MD1810111+9999MW1011EQDQ01+000002SCOTLC
0076029720999991954040918004+60517+022267FM-12+005499999V0203201N00511220001CN0400001N9+00221-00721103281ADDAY101999GF100991001001999999001001IA1189KA1999M+00611MD1010011+9999MW1021
0078029720999991954041000004+60517+022267FM-12+005499999V0203601N00211220001CN0200001N9-00221-00611103291ADDAY101999GF100991001001999999001001MW1021EQDQ01+000022APCTENQ02+000002APC3  
0076029720999991954041006004+60517+022267FM-12+005499999V0203401N00051220001CN0160001N9-00111-00501103241ADDAY101999GF102991001001999999001011IA1189KA1999N-00611MD1810031+9999MW1031
0057029720999991954041012004+60517+022267FM-12+005499999V0202101N00101075001CN0200001N9+00721-00781103051ADDAY121999GF107991011011012501001071MD1810121+9999MW1021
0076029720999991954041018004+60517+022267FM-12+005499999V0201801N00101220001CN0200001N9+00221-00391102981ADDAY121999GF107991001001999999071999IA1189KA1999M+00721MD1610011+9999MW1021
0076029720999991954041106004+60517+022267FM-12+005499999V0201301N00101220001CN0200001N9+00001-00391102891ADDAY101999GF100991001001999999001001IA1189KA1999N-00391MD1990021+9999MW1021
0057029720999991954041112004+60517+022267FM-12+005499999V0202301N00211220001CN0200001N9+00611-00391102751ADDAY101999GF100991001001999999001001MD1810091+9999MW1021
0082029720999991954041118004+60517+022267FM-12+005499999V0201801N00101220001CN0200001N9+00111-00391102411ADDAY101999GF101991999001999999041001IA1189MD1810161+9999MW1021EQDQ01+000002SCOTLC
0057029720999991954041200004+60517+022267FM-12+005499999V0201601N00101220001CN0200001N9-00111-00221102121ADDAY101999GF100991001001999999001001MD1810191+9999MW1021
0076029720999991954041206004+60517+022267FM-12+005499999V0201801N00311030001CN0160001N9+00221-00221101741ADDAY121999GF106991011051004501041001IA1189KA1999N-00221MD1810131+9999MW1021
0057029720999991954041212004+60517+022267FM-12+005499999V0201601N00621030001CN0160001N9+00281-00221101461ADDAY121999GF107991031051004501071999MD1810161+9999MW1021
0087029720999991954041218004+60517+022267FM-12+005499999V0201601N00511004501CN0140001N9+00111-00281101211ADDAA199000691AY121999GF108991051061004501071999IA1189KA1999M+00391MD1810151+9999MW1681
0057029720999991954041300004+60517+022267FM-12+005499999V0201601N00621004501CN0040001N9-00111-00111100661ADDAY171999GF108991081061004501999999MD1810321+9999MW1731
0087029720999991954041306004+60517+022267FM-12+005499999V0201401N00621001501CN0020001N9-00111-00221100261ADDAA199003091AY171999GF108991081061001501999999IA1309KA1999N-00111MD1810171+9999MW1731
0057029720999991954041312004+60517+022267FM-12+005499999V0201201N00511001501CN0020001N9+00001-00281100261ADDAY171999GF108991081061001501999999MD1210011+9999MW1691
0087029720999991954041318004+60517+022267FM-12+005499999V0203601N00051002401CN0070001N9+00001-00111100351ADDAA199001091AY171999GF108991071061002501001061IA1199KA1999M+00111MD1310081+9999MW1681
0087029720999991954041406004+60517+022267FM-12+005499999V0203601N00101002401CN0090001N9-00111-00111100801ADDAA199000691AY121999GF107991071061002501999999IA1199KA1999N-00221MD1310161+9999MW1011
0057029720999991954041412004+60517+022267FM-12+005499999V0202201N00101004501CN0160001N9+00281-00221100961ADDAY121999GF107991071081004501071999MD1310081+9999MW1021
0097029720999991954041418004+60517+022267FM-12+005499999V0201801N00101220001CN0200001N9+00111-00221100941ADDAY111999GF103991021051004501041011IA1189KA1999M+00391MW1011EQDQ01+000032APCTENQ02+000002APC3  
0087029720999991954041506004+60517+022267FM-12+005499999V0200401N00311220001CN0020001N9-00111-00281100811ADDAA199000691AY121999GF108991001001999999071999IA1209KA1999N-00391MD1210041+9999MW1731
0057029720999991954041512004+60517+022267FM-12+005499999V0200401N00411004501CN0140001N9+00281+00111101121ADDAY171999GF108991081051004501999999MD1310131+9999MW1021
0074029720999991954041518004+60517+022267FM-12+005499999V0203601N00511030001CN0140001N9+00281+00001101391ADDAA199000591AY121999GF108991031051004501071999IA1209MD1310131+9999MW1021
0057029720999991954041600004+60517+022267FM-12+005499999V0200201N00621002401CN0060001N9+00111+00001101451ADDAY171999GF108991081061002501999999MD1310011+9999MW1681
0079029720999991954041606004+60517+022267FM-12+005499999V0200201N00411002401CN0100001N9+00221+00111101781ADDAA199003091GF108991061061002501071999IA1189KA1999N+00001MD1310211+9999MW1371
0057029720999991954041612004+60517+022267FM-12+005499999V0200201N00511220001CN0140001N9+00781-00111102041ADDAY111999GF104991031011008001001051MD1110091+9999MW1031
0076029720999991954041618004+60517+022267FM-12+005499999V0200201N00511220001CN0160001N9+00501-00221102381ADDAY101999GF102991021051004501001001IA1089KA1999M+00891MD1310191+9999MW1021
0057029720999991954041700004+60517+022267FM-12+005499999V0203601N00211220001CN0160001N9+00001-00391102561ADDAY101999GF100991001001999999001001MD1310071+9999MW1021
0076029720999991954041706004+60517+022267FM-12+005499999V0203601N00101220001CN0160001N9+00111-00391102691ADDAY101999GF100991001001999999001001IA1089KA1999N-00111MD1310031+9999MW1021
0057029720999991954041712004+60517+022267FM-12+005499999V0200201N00411007801CN0200001N9+00721-00221102581ADDAY111999GF105991051011008001001001MD1810071+9999MW1031
0057029720999991954041800004+60517+022267FM-12+005499999V0203201N00051220001CN0200001N9-00111-00391102521ADDAY101999GF101991001001999999001051MD1810041+9999MW1021
0057029720999991954041812004+60517+022267FM-12+005499999V0202501N00101030001CN0200001N9+00781-00391102201ADDAY121999GF107991031011008001041071MD1810071+9999MW1021
0097029720999991954041818004+60517+022267FM-12+005499999V0202001N00101220001CN0200001N9+00501-00501102201ADDAY111999GF102991001001999999071051IA1089KA1999M+00781MW1011EQDQ01+000042APCTENQ02+000052APC3  
0095029720999991954041906004+60517+022267FM-12+005499999V0209991C00001220001CN0050001N9+00111-00111102461ADDAY121999GF103991999001999999041001IA1089KA1999N-00501MD1310071+9999MW1051EQDQ01+000002SCOTLC
0057029720999991954041912004+60517+022267FM-12+005499999V0202301N00101220001CN0400001N9+00891-00281102481ADDAY101999GF102991021011012501001001MD1990031+9999MW1021
0076029720999991954041918004+60517+022267FM-12+005499999V0202901N00311220001CN0400001N9+00501-00611102491ADDAY101999GF101991011041012501001001IA1089KA1999M+00891MD1210031+9999MW1021
0057029720999991954042000004+60517+022267FM-12+005499999V0209991C00001220001CN0200001N9-00281-00501102661ADDAY101999GF100991001001999999001001MD1310081+9999MW1021
0076029720999991954042006004+60517+022267FM-12+005499999V0203601N00051220001CN0050001N9+00111-00281102641ADDAY111999GF106991001001999999041061IA1089KA1999N-00501MD1710031+9999MW1041
0057029720999991954042012004+60517+022267FM-12+005499999V0202501N00151220001CN0200001N9+01001-00281102411ADDAY101999GF102991011011012501001011MD1810161+9999MW1021
0076029720999991954042018004+60517+022267FM-12+005499999V0202701N00211220001CN0200001N9+00611-00501102111ADDAY101999GF104991001001999999001051IA1009KA1999M+01001MD1810111+9999MW1031
0057029720999991954042100004+60517+022267FM-12+005499999V0209991C00001220001CN0200001N9-00281-00281101941ADDAY101999GF101991001001999999001051MD1810081+9999MW1021
0076029720999991954042106004+60517+022267FM-12+005499999V0203401N00311220001CN0200001N9+00281-00221101811ADDAY121999GF107991001001999999071021IA1139KA1999N-00391MD1510011+9999MW1031
0078029720999991954042112004+60517+022267FM-12+005499999V0203401N00721220001CN0200001N9+00391-01111101881ADDAY111999GF104991011011012501001061MW1021EQDQ01+000042APCTENQ02+000012APC3  
0095029720999991954042118004+60517+022267FM-12+005499999V0203401N00511220001CN0400001N9+00001-01111102001ADDAY101999GF101991999001999999041001IA1009KA1999M+00611MD1310111+9999MW1021EQDQ01+000002SCOTLC
0076029720999991954042200004+60517+022267FM-12+005499999V0203001N00211220001CN0200001N9-00281-00501102061ADDAY101999GF101991999001999999041001MD1810011+9999MW1021EQDQ01+000002SCOTLC
0097029720999991954042206004+60517+022267FM-12+005499999V0203401N00511220001CN0400001N9+00001-00611102061ADDAY101999GF101991011021008001001001IA1009KA1999N-00501MW1021EQDQ01+000042APCTENQ02+000042APC3  
0076029720999991954042218004+60517+022267FM-12+005499999V0202701N00311220001CN0400001N9+00111-00501101921ADDAY121999GF106991001001999999041051IA1009KA1999M+00501MD1810071+9999MW1031
0057029720999991954042300004+60517+022267FM-12+005499999V0202701N00101004501CN0200001N9+00001-00281101641ADDAY111999GF108991081061004501999999MD1810211+9999MW1021
0095029720999991954042306004+60517+022267FM-12+005499999V0202501N00101220001CN0200001N9+00391-00281101201ADDAY111999GF104991999001999999041001IA1009KA1999N-00111MD1810191+9999MW1011EQDQ01+000002SCOTLC
0057029720999991954042312004+60517+022267FM-12+005499999V0209991C00001004501CN0010001N9+00111+00001100851ADDAY171999GF108991081061004501999999MD1810171+9999MW1691
0108029720999991954042318004+60517+022267FM-12+005499999V0203601N00311002401CN0100001N9+00221+00111100941ADDAA199004091AY171999GF107991051061002501071999IA1109KA1999M+00611MW1211EQDQ01+000042APCTENQ02+000162APC3  
0076029720999991954042406004+60517+022267FM-12+005499999V0203601N00411030001CN0200001N9+00001-00281101391ADDAY121999GF107991011011004501071001IA1009KA1999N-00221MD1310091+9999MW1011
0057029720999991954042412004+60517+022267FM-12+005499999V0203201N00511012301CN0200001N9+00611-00721101441ADDAY121999GF107991071031012501071999MD1990011+9999MW1031
0087029720999991954042418004+60517+022267FM-12+005499999V0203401N00411220001CN0400001N9+00281-00501101451ADDAA199000691AY181999GF104991021031008001041001IA1009KA1999M+00721MD1110011+9999MW1011
0076029720999991954042500004+60517+022267FM-12+005499999V0203201N00311220001CN0200001N9-00221-00501101521ADDAY101999GF101991999001999999041001MD1210031+9999MW1021EQDQ01+000002SCOTLC
0076029720999991954042506004+60517+022267FM-12+005499999V0203401N00411220001CN0400001N9-00111-00721101641ADDAY111999GF106991001001999999041021IA1139KA1999N-00391MD1110051+9999MW1031
0057029720999991954042512004+60517+022267FM-12+005499999V0203401N00511012301CN0400001N9+00281-00891101651ADDAY121999GF106991061031012501001011MD1410001+9999MW1851
0108029720999991954042518004+60517+022267FM-12+005499999V0203001N00411220001CN0400001N9+00111-00391101641ADDAA199000691AY101999GF101991011031008001001001IA1009KA1999M+00501MW1011EQDQ01+000042APCTENQ02+000032APC3  
0094029720999991954042600004+60517+022267FM-12+005499999V0203201N00101220001CN0400001N9-00391-00501101761ADDAY101999GF101991999001999999071001MW1021EQDQ01+000002SCOTLCQ02+000032APCTENQ03+000002APC3  
0076029720999991954042606004+60517+022267FM-12+005499999V0202301N00101030001CN0200001N9+00111-00281101751ADDAY121999GF106991031051004501071001IA1009KA1999N-00611MD1710011+9999MW1031
0057029720999991954042612004+60517+022267FM-12+005499999V0202701N00101007801CN0400001N9+00391-00501101651ADDAY181999GF107991071031008001999999MD1610031+9999MW1021
0087029720999991954042618004+60517+022267FM-12+005499999V0209991C00001007801CN0400001N9+00391-00721101521ADDAA199000691AY121999GF105991051031008001001001IA1009KA1999M+00611MD1810081+9999MW1011
0094029720999991954042700004+60517+022267FM-12+005499999V0209991C00001220001CN0200001N9-00501-00501101591ADDAY101999GF101991999001999999041001MW1021EQDQ01+000002SCOTLCQ02+000032APCTENQ03+000002APC3  
0076029720999991954042706004+60517+022267FM-12+005499999V0209991C00001220001CN0040001N9+00111-00281101611ADDAY101999GF101991001001999999001011IA1009KA1999N-00611MD1210041+9999MW1051
0057029720999991954042712004+60517+022267FM-12+005499999V0202001N00101007801CN0400001N9+00721-00721101601ADDAY121999GF105991051021008001001001MD1710031+9999MW1021
0095029720999991954042718004+60517+022267FM-12+005499999V0202501N00211220001CN0400001N9+00391-00501101711ADDAY111999GF102991999001999999041001IA1009KA1999M+00721MD1310081+9999MW1011EQDQ01+000002SCOTLC
0094029720999991954042800004+60517+022267FM-12+005499999V0209991C00001220001CN0200001N9-00281-00611101741ADDAY101999GF101991999001999999041001MW1021EQDQ01+000002SCOTLCQ02+000032APCTENQ03+000002APC3  
0097029720999991954042806004+60517+022267FM-12+005499999V0202901N00101000601CN0016001N9-00221-00221101711ADDAY141999GF108991081061000751999999IA1009KA1999N-00501MW1101EQDQ01+000072APCTENQ02+000002APC3  
0057029720999991954042812004+60517+022267FM-12+005499999V0202501N00211007801CN0200001N9+00501+00001101641ADDAY121999GF106991061021008001041001MD1710011+9999MW1011
0076029720999991954042818004+60517+022267FM-12+005499999V0202201N00211075001CN0400001N9+00391-00111101511ADDAY121999GF105991011041008001041021IA1009KA1999M+00721MD1610051+9999MW1011
0057029720999991954042900004+60517+022267FM-12+005499999V0209991C00001220001CN0200001N9+00111-00111101261ADDAY121999GF106991001001999999071999MD1810131+9999MW1031
0076029720999991954042906004+60517+022267FM-12+005499999V0202001N00211004501CN0200001N9+00281+00111101061ADDAY121999GF108991081051004501999999IA1009KA1999N+00001MD1710031+9999MW1021
0078029720999991954042912004+60517+022267FM-12+005499999V0201601N00101075001CN0160001N9+00501+00111101041ADDAY121999GF105991041081004501001051MW1011EQDQ01+000072APCTENQ02+000002APC3  
0087029720999991954042918004+60517+022267FM-12+005499999V0201601N99999030001CN0400001N9+00501+00111100801ADDAA199000691AY121999GF107991021031017501071999IA1009KA1999M+00781MD1810121+9999MW1031
0057029720999991954043000004+60517+022267FM-12+005499999V0201201N00511220001CN0200001N9+00391+00111100441ADDAY121999GF106991001001999999071999MD1810201+9999MW1011
0087029720999991954043006004+60517+022267FM-12+005499999V0200901N00211001501CN0060001N9+00281+00281100281ADDAA199000591AY161999GF108991081061001501999999IA1109KA1999N+00281MD1810041+9999MW1611
0057029720999991954043012004+60517+022267FM-12+005499999V0201801N00211004501CN0140001N9+00611+00221100641ADDAY121999GF107991071051004501999999MD1310251+9999MW1021
0087029720999991954043018004+60517+022267FM-12+005499999V0201801N00101001501CN0050001N9+00391+00281101021ADDAA199025091AY151999GF108991071061001501021999IA1089KA1999M+00611MD1310191+9999MW1021
0057029720999991954050100004+60517+022267FM-12+005499999V0209991C00001002401CN0060001N9+00281+00281101411ADDAY151999GF108991081061002501999999MD1310161+9999MW1611
0087029720999991954050106004+60517+022267FM-12+005499999V0201001N00051001501CN0100001N9+00391+00281101661ADDAA199000391AY121999GF108991081061001501999999IA1089KA1999N+00221MD1310131+9999MW1021
0078029720999991954050112004+60517+022267FM-12+005499999V0201401N00101004501CN0160001N9+00611+00001101761ADDAY121999GF108991051081004501071999MW1021EQDQ01+000022APCTENQ02+000002APC3  
0095029720999991954050118004+60517+022267FM-12+005499999V0203601N00101220001CN0200001N9+00501-00111101711ADDAY101999GF101991999001999999041001IA1009KA1999M+00721MD1610011+9999MW1011EQDQ01+000002SCOTLC
0076029720999991954050200004+60517+022267FM-12+005499999V0209991C00001220001CN0200001N9-00111-00221101691ADDAY101999GF101991999001999999041001MD1810031+9999MW1021EQDQ01+000002SCOTLC
0097029720999991954050206004+60517+022267FM-12+005499999V0200401N00311220001CN0160001N9+00611+00111101611ADDAY101999GF100991001001999999001001IA1009KA1999N-00281MW1021EQDQ01+000032APCTENQ02+000002APC3  
0057029720999991954050212004+60517+022267FM-12+005499999V0201401N00311030001CN0200001N9+01611+01391101421ADDAY111999GF105991041011008001041051MD1810091+9999MW1031
0108029720999991954050218004+60517+022267FM-12+005499999V0200901N00511220001CN0200001N9+01281+01281101351ADDAA199010091AY121999GF106991001001999999071999IA1009KA1999M+01611MW1011EQDQ01+000072APCTENQ02+000002APC3  
0057029720999991954050300004+60517+022267FM-12+005499999V0200901N00311220001CN0200001N9+00781+00501101451ADDAY121999GF106991001001999999071999MD1310051+9999MW1021
0076029720999991954050306004+60517+022267FM-12+005499999V0200701N00211004501CN0090001N9+00721+00501101401ADDAY121999GF108991081051004501999999IA1009KA1999N+00501MD1710011+9999MW1051
0057029720999991954050312004+60517+022267FM-12+005499999V0200701N00411004501CN0110001N9+00891+00611101441ADDAY121999GF108991081061004501999999MD1310041+9999MW1021
0097029720999991954050318004+60517+022267FM-12+005499999V0200701N00721030001CN0100001N9+01001+00721101491ADDAY121999GF107991021051004501071999IA1009KA1999M+01111MW1011EQDQ01+000042APCTENQ02+000032APC3  
0057029720999991954050412004+60517+022267FM-12+005499999V0200601N00211004501CN0120001N9+01111+00721101621ADDAY151999GF108991081061004501001999MD1210111+9999MW1021
0087029720999991954050418004+60517+022267FM-12+005499999V0200401N00101030001CN0140001N9+01111+00781101751ADDAA199000691AY121999GF108991021051004501071999IA1009KA1999M+01221MD1310181+9999MW1011
0057029720999991954050500004+60517+022267FM-12+005499999V0200401N00101007801CN0080001N9+00781+00721101821ADDAY121999GF108991081051008001999999MD1210031+9999MW1021
0076029720999991954050506004+60517+022267FM-12+005499999V0200901N00051007801CN0024001N9+01891+00781101921ADDAY121999GF108991071051008001071999IA1009KA1999N+00721MD1010051+9999MW1141
0057029720999991954050512004+60517+022267FM-12+005499999V0201101N00311007801CN0200001N9+01281+00721101991ADDAY121999GF107991051051008001071999MD1710021+9999MW1021
0097029720999991954050518004+60517+022267FM-12+005499999V0201201N00311030001CN0200001N9+01391+00721101881ADDAY121999GF107991031051012501071051IA1009KA1999M+01611MW1031EQDQ01+000042APCTENQ02+000042APC3  
0057029720999991954050600004+60517+022267FM-12+005499999V0201201N00411007801CN0100001N9+00891+00611101971ADDAY161999GF108991081051008001999999MD1310051+9999MW1601
0108029720999991954050606004+60517+022267FM-12+005499999V0201201N00051002401CN0160001N9+00891+00781101981ADDAA199005091AY121999GF108991081061002501999999IA1139KA1999N+00781MW1601EQDQ01+000042APCTENQ02+000082APC3  
0057029720999991954050612004+60517+022267FM-12+005499999V0200201N00101001501CN0050001N9+01111+01001102091ADDAY121999GF108991071061001501021999MD1110071+9999MW1011
0087029720999991954050618004+60517+022267FM-12+005499999V0203601N00311220001CN0090001N9+01221+01111101981ADDAA199000691AY121999GF106991011011012501001061IA1089KA1999M+01391MD1990071+9999MW1021
0043029720999991954050700004+60517+022267FM-12+005499999V0200901N00211220001CN0100001N9+01001+00781101801ADDAY101999GF102991021031008001041001MW1021
0087029720999991954050706004+60517+022267FM-12+005499999V0200901N00621220001CN0100001N9+01111+01001101851ADDAA199003091AY191999GF106991001001999999041021IA1089KA1999N+00891MD1510001+9999MW1021
0057029720999991954050712004+60517+022267FM-12+005499999V0201401N00511220001CN0160001N9+02221+01221101891ADDAY111999GF104991001001999999001021MD1210031+9999MW1011
0076029720999991954050718004+60517+022267FM-12+005499999V0201401N00411220001CN0200001N9+02001+01111101981ADDAY101999GF101991001001999999041011IA1009KA1999M+02501MD1310071+9999MW1031
0057029720999991954050800004+60517+022267FM-12+005499999V0201401N00311220001CN0200001N9+01391+00721102151ADDAY101999GF101991001001999999041011MD1310071+9999MW1021
0076029720999991954050806004+60517+022267FM-12+005499999V0201201N00411220001CN0200001N9+01391+00891102191ADDAY101999GF102991011091008001001011IA1009KA1999N+01111MD1210011+9999MW1021
0057029720999991954050812004+60517+022267FM-12+005499999V0202501N00411220001CN0200001N9+01781+00891102221ADDAY101999GF101991011011012501001001MD1710011+9999MW1031
0076029720999991954050818004+60517+022267FM-12+005499999V0201401N00211220001CN0200001N9+01611+00781102221ADDAY101999GF101991001001999999071051IA1009KA1999M+01891MD1510011+9999MW1021
0076029720999991954050900004+60517+022267FM-12+005499999V0203201N00211220001CN0160001N9+00721+00611102381ADDAY111999GF104991999001999999071001MD1310091+9999MW1031EQDQ01+000002SCOTLC
0076029720999991954050906004+60517+022267FM-12+005499999V0203601N00511220001CN0200001N9+01001+00611102521ADDAY111999GF103991011051008001071001IA1009KA1999N+00721MD1310131+9999MW1011
0078029720999991954050912004+60517+022267FM-12+005499999V0203401N00511220001CN0400001N9+01891+00281102521ADDAY101999GF102991011011008001041011MW1031EQDQ01+000042APCTENQ02+000032APC3  
0076029720999991954050918004+60517+022267FM-12+005499999V0203501N00621220001CN0400001N9+01501+00111102611ADDAY101999GF102991001001999999001021IA1009KA1999M+02001MD1310051+9999MW1011
0057029720999991954051000004+60517+022267FM-12+005499999V0203601N00211220001CN0400001N9+00501+00001102921ADDAY101999GF100991001001999999001001MD1310081+9999MW1021
0076029720999991954051006004+60517+022267FM-12+005499999V0203201N00101220001CN0200001N9+01111+00001103051ADDAY101999GF101991001001999999001011IA1009KA1999N+00391MD1310071+9999MW1031
0057029720999991954051012004+60517+022267FM-12+005499999V0203301N00621220001CN0400001N9+01721+00111102921ADDAY101999GF101991011011012501001011MD1810081+9999MW1021
0076029720999991954051018004+60517+022267FM-12+005499999V0203201N00511220001CN0400001N9+01111+00111102811ADDAY101999GF101991001001999999001051IA1009KA1999M+01721MD1510041+9999MW1011
0078029720999991954051100004+60517+022267FM-12+005499999V0203601N00311220001CN0200001N9+00391+00111102861ADDAY101999GF100991001001999999001001MW1021EQDQ01+000032APCTENQ02+000002APC3  
0076029720999991954051106004+60517+022267FM-12+005499999V0203601N00211220001CN0400001N9+01111+00111102881ADDAY101999GF102991001001999999001051IA1009KA1999N+00221MD1990041+9999MW1021
0057029720999991954051112004+60517+022267FM-12+005499999V0202901N00621075001CN0400001N9+01611-00501102411ADDAY111999GF105991011011012501001021MD1810291+9999MW1031
0076029720999991954051118004+60517+022267FM-12+005499999V0200401N00821220001CN0400001N9+01221-00111102351ADDAY101999GF101991011041012501041001IA1009KA1999M+01721MD1210071+9999MW1011
0057029720999991954051200004+60517+022267FM-12+005499999V0203601N00411220001CN0200001N9+00281-00111102641ADDAY121999GF100991001001999999001001MD1310091+9999MW1011
0095029720999991954051206004+60517+022267FM-12+005499999V0203401N00411220001CN0400001N9+00721+00001102721ADDAY101999GF101991999001999999041001IA1009KA1999N+00221MD1310041+9999MW1031EQDQ01+000002SCOTLC
0057029720999991954051212004+60517+022267FM-12+005499999V0200201N00621007801CN0200001N9+01001-00281102591ADDAY121999GF106991061021008001001001MD1810111+9999MW1011
0097029720999991954051218004+60517+022267FM-12+005499999V0200401N00511220001CN0400001N9+01001-00391102461ADDAY101999GF101991011051008001001001IA1009KA1999M+01281MW1011EQDQ01+000022APCTENQ02+000002APC3  
0076029720999991954051306004+60517+022267FM-12+005499999V0200201N00511220001CN0400001N9+00501-00501102771ADDAY101999GF100991001001999999001001IA1009KA1999N-00221MD1210031+9999MW1021
0057029720999991954051312004+60517+022267FM-12+005499999V0200401N00511220001CN0400001N9+01111-00781102621ADDAY101999GF103991001001999999001051MD1810091+9999MW1021
0076029720999991954051318004+60517+022267FM-12+005499999V0200401N00311220001CN0400001N9+01001-00781102491ADDAY101999GF100991001001999999001001IA1009KA1999M+01221MD1510031+9999MW1011
0076029720999991954051406004+60517+022267FM-12+005499999V0203601N00101075001CN0160001N9+00611-00281102391ADDAY111999GF106991011011008001041061IA1009KA1999N-00281MD1710031+9999MW1031
0057029720999991954051412004+60517+022267FM-12+005499999V0200401N00411012301CN0200001N9+01001-00611102081ADDAY121999GF107991071031012501001001MD1810121+9999MW1031
0076029720999991954051418004+60517+022267FM-12+005499999V0201601N00311030001CN0400001N9+00611+00001101951ADDAY121999GF107991031051008001041051IA1009KA1999M+01111MD1990011+9999MW1011
0076029720999991954051506004+60517+022267FM-12+005499999V0201401N00411030001CN0400001N9+00281-00221101601ADDAY121999GF107991031051012501071999IA1009KA1999N+00221MD1810081+9999MW1011
0057029720999991954051512004+60517+022267FM-12+005499999V0201901N00411030001CN0400001N9+00721-00281101511ADDAY181999GF107991031051008001071999MD1610031+9999MW1011
0087029720999991954051518004+60517+022267FM-12+005499999V0201601N00311004501CN0200001N9+00501-00111101401ADDAA199000691AY121999GF107991071081004501999999IA1009KA1999M+00721MD1710071+9999MW1021
0078029720999991954051600004+60517+022267FM-12+005499999V0202001N00311004501CN0200001N9+00391+00001101391ADDAY121999GF107991071051004501999999MW1021EQDQ01+000032APCTENQ02+000002APC3  
0087029720999991954051606004+60517+022267FM-12+005499999V0201601N00311004501CN0400001N9+00501+00281101351ADDAA199000691AY121999GF108991081051004501999999IA1009KA1999N+00281MD1110011+9999MW1031
0078029720999991954051612004+60517+022267FM-12+005499999V0201601N00511030001CN0400001N9+00891-00221101351ADDAY111999GF107991011011008001071999MW1031EQDQ01+000032APCTENQ02+000002APC3  
0087029720999991954051618004+60517+022267FM-12+005499999V0201601N00721220001CN0400001N9+01001+00001101201ADDAA199000691AY181999GF107991001001999999071071IA1009KA1999M+01111MD1610081+9999MW1021
0057029720999991954051700004+60517+022267FM-12+005499999V0201801N00821030001CN0200001N9+01111+00111101121ADDAY121999GF108991031051004501071999MD1810051+9999MW1021
0087029720999991954051706004+60517+022267FM-12+005499999V0201601N00411030001CN0160001N9+00891+00391101241ADDAA199001091AY161999GF107991021051008001071999IA1089KA1999N+00721MD1310111+9999MW1011
0057029720999991954051712004+60517+022267FM-12+005499999V0202001N00621220001CN0200001N9+01281+00281101551ADDAY121999GF108991001001999999071091MD1310131+9999MW1021
0087029720999991954051718004+60517+022267FM-12+005499999V0201601N00311220001CN0200001N9+01501+00391101591ADDAA199000691AY121999GF108991001001999999041071IA1009KA1999M+01501MD1310041+9999MW1021
0057029720999991954051800004+60517+022267FM-12+005499999V0200901N00511007801CN0200001N9+01111+00221101551ADDAY121999GF107991071051008001999999MD1810031+9999MW1031
0087029720999991954051806004+60517+022267FM-12+005499999V0201201N00511007801CN0200001N9+01221+00281101541ADDAA199000691AY181999GF107991071081008001999999IA1009KA1999N+01001MD1110051+9999MW1021
0057029720999991954051812004+60517+022267FM-12+005499999V0201401N00411030001CN0200001N9+01721+00391101641ADDAY121999GF107991031051008001071999MD1210011+9999MW1011
0087029720999991954051818004+60517+022267FM-12+005499999V0201201N00721220001CN0200001N9+01501+00281101741ADDAA199000691AY121999GF107991001001999999071061IA1009KA1999M+02001MD1310111+9999MW1021
0076029720999991954051900004+60517+022267FM-12+005499999V0200901N00211220001CN0200001N9+01001+00611101821ADDAY111999GF103991999001999999041001MD1310031+9999MW1011EQDQ01+000002SCOTLC
0063029720999991954051906004+60517+022267FM-12+005499999V0200901N00211220001CN0200001N9+99999+99999101801ADDAY101999GF103991001001999999001051IA1009MD1310031+9999MW1031
0057029720999991954051912004+60517+022267FM-12+005499999V0201201N00311012301CN0200001N9+01891+00281101801ADDAY121999GF107991071081012501999999MD1810081+9999MW1031
0097029720999991954051918004+60517+022267FM-12+005499999V0200401N00211030001CN0200001N9+01781+00611101721ADDAY121999GF107991011031012501071999IA1009KA1999M+01891MW1011EQDQ01+000072APCTENQ02+000002APC3  
0057029720999991954052000004+60517+022267FM-12+005499999V0200901N00211220001CN0200001N9+01111+00721101751ADDAY121999GF107991001001999999071999MD1210011+9999MW1021
0076029720999991954052006004+60517+022267FM-12+005499999V0200901N00311220001CN0160001N9+01391+00891101691ADDAY111999GF103991001001999999001011IA1009KA1999N+00891MD1990041+9999MW1051
0057029720999991954052012004+60517+022267FM-12+005499999V0201201N00411075001CN0400001N9+02221+00611101551ADDAY121999GF105991021011012501041011MD1810081+9999MW1021
0076029720999991954052018004+60517+022267FM-12+005499999V0201101N00411030001CN0160001N9+01781+00781101511ADDAY121999GF108991011051012501071999IA1009KA1999M+02221MD1410001+9999MW1031
0078029720999991954052100004+60517+022267FM-12+005499999V0200701N00211007801CN0200001N9+01611+00611101541ADDAY161999GF108991061051008001071999MW1021EQDQ01+000032APCTENQ02+000002APC3  
0076029720999991954052106004+60517+022267FM-12+005499999V0200701N00311220001CN0400001N9+01781+00781101551ADDAY101999GF102991001001999999041051IA1009KA1999N+01281MD1990011+9999MW1021
0057029720999991954052112004+60517+022267FM-12+005499999V0201101N00621012301CN0200001N9+02281+00611101461ADDAY121999GF105991051021012501001001MD1710071+9999MW1021
0097029720999991954052118004+60517+022267FM-12+005499999V0200901N00621220001CN0200001N9+02111+00891101391ADDAY111999GF102991011999012501001011IA1009KA1999M+02391MW1011EQDQ01+000022APCTENQ02+000002APC3  
0076029720999991954052200004+60517+022267FM-12+005499999V0200701N00511220001CN0200001N9+01501+01001101491ADDAY101999GF101991999001999999041001MD1810031+9999MW1021EQDQ01+000002SCOTLC
0076029720999991954052206004+60517+022267FM-12+005499999V0200901N00511220001CN0200001N9+01611+01001101571ADDAY121999GF107991001001999999071999IA1009KA1999N+01391MD1210071+9999MW1021
0057029720999991954052212004+60517+022267FM-12+005499999V0200901N00511030001CN0090001N9+01721+01391101651ADDAY161999GF108991031051008001071999MD1210041+9999MW1611
0087029720999991954052218004+60517+022267FM-12+005499999V0200901N00311030001CN0090001N9+01501+01391101681ADDAA199009091AY161999GF108991031051004501071999IA1109KA1999M+01721MD1710011+9999MW1631
0076029720999991954052300004+60517+022267FM-12+005499999V0200701N00311220001CN0160001N9+99999+99999999999ADDAY121999GF103991999001999999041001MD1310081+9999MW1171EQDQ01+000002SCOTLC
0124029720999991954052306004+60517+022267FM-12+005499999V0200901N00311220001CN0160001N9+01501+01001101811ADDAA199000591AY101999GF101991999001999999041001IA1009KA1999N+00891MW1021EQDQ01+000002SCOTLCQ02+000032APCTENQ03+000002APC3  
0057029720999991954052312004+60517+022267FM-12+005499999V0200701N00511220001CN0400001N9+02001+00611101661ADDAY111999GF103991031011012501001001MD1810091+9999MW1031
0076029720999991954052318004+60517+022267FM-12+005499999V0202201N00411220001CN0400001N9+01391+00781101601ADDAY101999GF103991021011012501041011IA1009KA1999M+02221MD1410001+9999MW1021
0057029720999991954052400004+60517+022267FM-12+005499999V0203601N00101030001CN0140001N9+01111+01001101691ADDAY121999GF108991041061004501071999MD1810011+9999MW1031
0108029720999991954052406004+60517+022267FM-12+005499999V0200701N00211004501CN0140001N9+01221+01001101621ADDAA199000691AY151999GF108991081051004501999999IA1089KA1999N+00721MW1021EQDQ01+000032APCTENQ02+000002APC3  
0057029720999991954052412004+60517+022267FM-12+005499999V0200401N00211004501CN0160001N9+01501+01221101711ADDAY121999GF108991081051004501999999MD1310041+9999MW1021
0076029720999991954052418004+60517+022267FM-12+005499999V0209991C00001004501CN0140001N9+01611+01281101751ADDAY121999GF108991081051004501999999IA1009KA1999M+01611MD1310031+9999MW1021
0076029720999991954052500004+60517+022267FM-12+005499999V0209991C00001220001CN0002001N9+01001+01001101861ADDAY141999GF103991999001999999071001MD1310041+9999MW1461EQDQ01+000002SCOTLC
0076029720999991954052506004+60517+022267FM-12+005499999V0203401N00211030001CN0080001N9+01501+01281102001ADDAY121999GF107991031051004501071999IA1009KA1999N+00891MD1310091+9999MW1021
0108029720999991954052518004+60517+022267FM-12+005499999V0203201N00411075001CN0200001N9+01721+01111102161ADDAA199000691AY111999GF105991021091008001041011IA1009KA1999M+02111MW1021EQDQ01+000042APCTENQ02+000072APC3  
0057029720999991954052600004+60517+022267FM-12+005499999V0203201N00101007801CN0200001N9+01111+00891102291ADDAY121999GF106991051051008001071999MD1310081+9999MW1021
0097029720999991954052606004+60517+022267FM-12+005499999V0203601N00101030001CN0200001N9+01501+01111102341ADDAY121999GF107991011031008001071999IA1009KA1999N+01001MW1021EQDQ01+000032APCTENQ02+000002APC3  
0076029720999991954052618004+60517+022267FM-12+005499999V0203601N00311220001CN0200001N9+02001+00891102251ADDAY101999GF102991011021012501041001IA1009KA1999M+02391MD1210031+9999MW1011
0043029720999991954052700004+60517+022267FM-12+005499999V0203101N00211220001CN0200001N9+01111+00721102371ADDAY101999GF101991001001999999001051MW1021
0076029720999991954052706004+60517+022267FM-12+005499999V0203601N00051220001CN0200001N9+01781+01001102371ADDAY101999GF101991001001999999001051IA1009KA1999N+00781MD1110031+9999MW1021
0057029720999991954052712004+60517+022267FM-12+005499999V0203601N00621220001CN0200001N9+02391+00501102251ADDAY121999GF104991041021012501001001MD1810091+9999MW1021
0054029720999991954052718004+60517+022267FM-12+005499999V0203601N00511220001CN0400001N9+02221+00611102191ADDGF101991011011012501999001IA1009KA1999M+02501MW1021
0057029720999991954052800004+60517+022267FM-12+005499999V0203601N00211220001CN0200001N9+01221+00501102371ADDAY101999GF101991001001999999001051MD1310041+9999MW1021
0076029720999991954052806004+60517+022267FM-12+005499999V0201201N00311220001CN0200001N9+01611+01001102441ADDAY121999GF104991001001999999041011IA1009KA1999N+00781MD1110041+9999MW1011
0057029720999991954052812004+60517+022267FM-12+005499999V0202801N00511220001CN0200001N9+01891+01001102421ADDAY121999GF105991041021012501001011MD1990071+9999MW1021
0076029720999991954052818004+60517+022267FM-12+005499999V0202201N00211220001CN0400001N9+01611+00391102341ADDAY121999GF107991001001999999041071IA1009KA1999M+02001MD1990051+9999MW1031
0057029720999991954052900004+60517+022267FM-12+005499999V0209991C00001220001CN0200001N9+00781+00611102261ADDAY121999GF106991001001999999071061MD1810041+9999MW1011
0076029720999991954052906004+60517+022267FM-12+005499999V0202301N00101220001CN0200001N9+01391+00781102091ADDAY111999GF105991001001999999041011IA1009KA1999N+00611MD1810121+9999MW1031
0057029720999991954052912004+60517+022267FM-12+005499999V0202201N00511220001CN0400001N9+02111+00721101951ADDAY111999GF102991001001999999041011MD1810121+9999MW1011
0076029720999991954052918004+60517+022267FM-12+005499999V0202801N00411220001CN0400001N9+01501+00501101751ADDAY101999GF103991001001999999041021IA1009KA1999M+02221MD1810041+9999MW1031
0057029720999991954053000004+60517+022267FM-12+005499999V0202701N00101220001CN0200001N9+01111+00781101651ADDAY121999GF108991001001999999041071MD1810081+9999MW1031
0063029720999991954053006004+60517+022267FM-12+005499999V0200201N00211220001CN0200001N9+01611+00891101601ADDAY121999GF106991001001999999001061IA1009MD1710041+9999MW1011
0057029720999991954053012004+60517+022267FM-12+005499999V0203401N00211220001CN0400001N9+02391+00891101521ADDAY101999GF102991011011017501001051MD1810081+9999MW1021
0076029720999991954053018004+60517+022267FM-12+005499999V0203101N00511220001CN0400001N9+02001+00611101421ADDAY101999GF101991001001999999001011IA1009KA1999M+02391MD1810041+9999MW1031
0051029720999991954053100004+60517+022267FM-12+005499999V0203401N00101030001CN0200001N9+01221+00721101311ADDAY111999GF108991031051008001071071MD1810041+9999
0087029720999991954053106004+60517+022267FM-12+005499999V0203101N00311004501CN0140001N9+01281+01221101111ADDAA199001091AY161999GF108991051061004501071999IA1109KA1999N+00891MD1610051+9999MW1211
0057029720999991954053112004+60517+022267FM-12+005499999V0203501N00821007801CN0400001N9+01281+00221101781ADDAY121999GF105991051011008001001011MD1310161+9999MW1011
0082029720999991954053118004+60517+022267FM-12+005499999V0202901N00621220001CN0400001N9+01281+00391100942ADDAY111999GF103991021011012501041001IA1009MD1710051+9999MW1011EQDQ01+100943APOSLP
0078029720999991954060100004+60517+022267FM-12+005499999V0203101N00411030001CN0400001N9+00891+00721100961ADDAY121999GF107991021051004501071999MW1031EQDQ01+000032APCTENQ02+000002APC3  
0076029720999991954060106004+60517+022267FM-12+005499999V0203601N00311220001CN0400001N9+01111+00391101141ADDAY121999GF107991001001999999071999IA1009KA1999N+00721MD1110091+9999MW1021
0057029720999991954060112004+60517+022267FM-12+005499999V0203601N00411012301CN0400001N9+01221+00111101291ADDAY121999GF108991051021012501071999MD1310091+9999MW1021
0097029720999991954060118004+60517+022267FM-12+005499999V0203201N00511220001CN0400001N9+01221-00111101341ADDAY101999GF102991011021012501041011IA1009KA1999M+01391MW1011EQDQ01+000072APCTENQ02+000002APC3  
0076029720999991954060200004+60517+022267FM-12+005499999V0203601N00211220001CN0200001N9+00391+00111101571ADDAY111999GF104991999001999999041001MD1310071+9999MW1021EQDQ01+000002SCOTLC
0057029720999991954060212004+60517+022267FM-12+005499999V0202501N00511030001CN0400001N9+01391-00221101421ADDAY121999GF107991021011012501041061MD1810161+9999MW1031
0063029720999991954060218004+60517+022267FM-12+005499999V0202001N00511030001CN0200001N9+00781+00501100991ADDAY121999GF108991041051008001021999IA1109MD1810251+9999MW1611
0057029720999991954060300004+60517+022267FM-12+005499999V0202801N00511220001CN0400001N9+00501+00221101121ADDAY101999GF100991001001999999001001MD1310171+9999MW1011
0087029720999991954060306004+60517+022267FM-12+005499999V0203601N01031004501CN0400001N9+00891+00221101411ADDAA199001091AY121999GF107991061021004501999999IA1089KA1999N+00501MD1310211+9999MW1011
0057029720999991954060312004+60517+022267FM-12+005499999V0203501N00821007801CN0400001N9+01281+00221101781ADDAY121999GF105991051011008001001011MD1310161+9999MW1011
