0057029720999991956010100004+60517+022267FM-12+005499999V0201801N00101220001CN0150001N9-00111-00111099441ADDAY111999GF107991001001999999071999MD1210081+9999MW1031
0081029720999991956010106004+60517+022267FM-12+005499999V0201801N00101004501CN0100001N9-00111-00221099401ADDAA199001091AY121999GF108991061061004501071999KA1999N-00221MD1610051+9999MW1021
0057029720999991956010112004+60517+022267FM-12+005499999V0201801N00101002401CN0150001N9-00111-00221099401ADDAY171999GF107991071061002501999999MD1410001+9999MW1021
0081029720999991956010118004+60517+022267FM-12+005499999V0201801N00211004501CN0080001N9-00281-00391099511ADDAA199000391AY171999GF108991081061004501999999KA1999M-00111MD1210111+9999MW1731
0081029720999991956010206004+60517+022267FM-12+005499999V0200601N00411002401CN0040001N9-00611-00721100141ADDAA199003091AY171999GF108991081061002501999999KA1999N-00611MD1210191+9999MW1731
0057029720999991956010212004+60517+022267FM-12+005499999V0203401N00411002401CN0080001N9-00611-00721100551ADDAY171999GF108991081061002501999999MD1210181+9999MW1711
0081029720999991956010218004+60517+022267FM-12+005499999V0203401N00311004501CN0100001N9-00721-00781100951ADDAA199000391AY171999GF108991081051004501999999KA1999M-00501MD1210251+9999MW1221
0057029720999991956010300004+60517+022267FM-12+005499999V0203401N00311004501CN0100001N9-00721-00781101221ADDAY121999GF108991081061004501999999MD1210131+9999MW1021
0102029720999991956010306004+60517+022267FM-12+005499999V0202501N00311004501CN0100001N9-00501-00611101281ADDAA199000691AY121999GF108991081061004501999999KA1999N-00781MW1021EQDQ01+000022APCTENQ02+000002APC3  
0057029720999991956010312004+60517+022267FM-12+005499999V0202001N00621004501CN0200001N9-00281-00501100801ADDAY121999GF108991071051004501071999MD1710341+9999MW1031
0081029720999991956010318004+60517+022267FM-12+005499999V0202701N00511002401CN0150001N9+00111+00001100621ADDAA199000691AY171999GF108991051061002501071999KA1999M+00111MD1210021+9999MW1021
0076029720999991956010400004+60517+022267FM-12+005499999V0202701N00821220001CN0100001N9+00281-00391100921ADDAY111999GF103991999001999999071001MD1210141+9999MW1031EQDQ01+000002SCOTLC
0070029720999991956010406004+60517+022267FM-12+005499999V0202701N00411220001CN0150001N9+00281-00611101121ADDAY121999GF106991001001999999071999KA1999N+00001MD1210041+9999MW1031
0057029720999991956010412004+60517+022267FM-12+005499999V0203001N00311220001CN0400001N9+00391-00391101121ADDAY121999GF100991001001999999001001MD1510011+9999MW1011
0070029720999991956010418004+60517+022267FM-12+005499999V0202301N00311030001CN0200001N9-00111-00281101511ADDAY121999GF107991021051004501071999KA1999M+00391MD1210171+9999MW1031
0076029720999991956010500004+60517+022267FM-12+005499999V0202301N00211220001CN0200001N9-00111-00221101841ADDAY111999GF103991999001999999071001MD1210121+9999MW1031EQDQ01+000002SCOTLC
0089029720999991956010506004+60517+022267FM-12+005499999V0203201N00211220001CN0200001N9+00001+00001102081ADDAY111999GF101991999001999999041001KA1999N-00221MD1210091+9999MW1011EQDQ01+000002SCOTLC
0057029720999991956010512004+60517+022267FM-12+005499999V0202001N00211220001CN0150001N9+00221+00001102401ADDAY111999GF106991001001999999041021MD1210101+9999MW1111
0091029720999991956010518004+60517+022267FM-12+005499999V0201601N00411220001CN0050001N9+00111-00111102451ADDAY101999GF100991001001999999001001KA1999M+00281MW1111EQDQ01+000012APCTENQ02+000002APC3  
0057029720999991956010600004+60517+022267FM-12+005499999V0202001N00511220001CN0100001N9+00221+00111102521ADDAY101999GF100991001001999999001001MD1210021+9999MW1021
0091029720999991956010606004+60517+022267FM-12+005499999V0202001N00821000151CN0006001N9+00111+00111102571ADDAY121999GF108991081061000251999999KA1999N+00111MW1471EQDQ01+000022APCTENQ02+000002APC3  
0057029720999991956010612004+60517+022267FM-12+005499999V0202301N00721000601CN0009001N9+00111+00111102721ADDAY151999GF108991081061000751999999MD1210051+9999MW1511
0081029720999991956010618004+60517+022267FM-12+005499999V0202301N00621001501CN0015001N9+00111+00001102581ADDAA199000591AY151999GF108991081061001501999999KA1999M+00221MD1710041+9999MW1511
0057029720999991956010700004+60517+022267FM-12+005499999V0202001N00721001501CN0040001N9+00111+00111102371ADDAY151999GF108991081061001501999999MD1710111+9999MW1531
0081029720999991956010706004+60517+022267FM-12+005499999V0202001N00511001501CN9999999N9+00221+00221102121ADDAA199000591AY121999GF108991081061001501999999KA1999N+00001MD1710141+9999MW1021
0057029720999991956010712004+60517+022267FM-12+005499999V0202001N00511000601CN0030001N9+00221+00221101941ADDAY121999GF108991081061000751999999MD1710171+9999MW1501
0081029720999991956010718004+60517+022267FM-12+005499999V0202001N00511000151CN0015001N9+00111+00111101701ADDAA199000391AY151999GF108991081061000251999999KA1999M+00221MD1710101+9999MW1511
0057029720999991956010800004+60517+022267FM-12+005499999V0201801N00621000601CN0060001N9+00111+00001101581ADDAY151999GF108991081061000751999999MD1710101+9999MW1531
0081029720999991956010806004+60517+022267FM-12+005499999V0201801N00621001501CN0015001N9-00111-00111101411ADDAA199000391AY151999GF108991081051001501999999KA1999N-00111MD1710071+9999MW1571
0057029720999991956010812004+60517+022267FM-12+005499999V0201801N00411001501CN0080001N9-00221-00281101331ADDAY171999GF108991071061001501999999MD1710091+9999MW1771
0081029720999991956010818004+60517+022267FM-12+005499999V0201801N00411001501CN0050001N9-00281-00391101261ADDAA199002091AY171999GF108991081061001501999999KA1999M-00111MD1810011+9999MW1571
0057029720999991956010900004+60517+022267FM-12+005499999V0201801N00511002401CN0060001N9-00501-00611101151ADDAY151999GF108991081061002501999999MD1710081+9999MW1561
0081029720999991956010906004+60517+022267FM-12+005499999V0201401N00411004501CN0060001N9-00781-01001101111ADDAA199000691AY171999GF108991081051004501999999KA1999N-00781MD1710011+9999MW1711
0057029720999991956010912004+60517+022267FM-12+005499999V0201401N00211004501CN0070001N9-01001-01281101131ADDAY171999GF108991081051004501999999MD1810021+9999MW1711
0081029720999991956010918004+60517+022267FM-12+005499999V0201101N00311004501CN0050001N9-00891-01221101141ADDAA199000391AY171999GF108991081051004501999999KA1999M-00781MD1310011+9999MW1711
0057029720999991956011000004+60517+022267FM-12+005499999V0201201N00311007801CN0100001N9-00781-00891101231ADDAY171999GF108991081051008001999999MD1210061+9999MW1711
0081029720999991956011006004+60517+022267FM-12+005499999V0201201N00511004501CN0080001N9-00501-00611101271ADDAA199000391AY171999GF108991081051004501999999KA1999N-00891MD1310031+9999MW1711
0057029720999991956011012004+60517+022267FM-12+005499999V0201101N00311002401CN0040001N9-00501-00611101391ADDAY171999GF108991081061002501999999MD1810011+9999MW1711
0081029720999991956011018004+60517+022267FM-12+005499999V0201101N00311004501CN0080001N9-00611-00721101311ADDAA199000391AY171999GF108991081061004501999999KA1999M-00391MD1010001+9999MW1771
0057029720999991956011100004+60517+022267FM-12+005499999V0201201N00311001501CN0010001N9-00281-00391101331ADDAY151999GF108991081061001501999999MD1310011+9999MW1571
0081029720999991956011106004+60517+022267FM-12+005499999V0201101N00311002401CN0040001N9-00281-00391101251ADDAA199000391AY151999GF108991081061002501999999KA1999N-00611MD1610041+9999MW1021
0057029720999991956011112004+60517+022267FM-12+005499999V0201101N00511002401CN0200001N9-00721-00781101201ADDAY121999GF108991081061002501999999MD1810071+9999MW1021
0081029720999991956011118004+60517+022267FM-12+005499999V0201201N00211002401CN0070001N9-00501-00611100951ADDAA199000691AY171999GF108991081061002501999999KA1999M-00281MD1510121+9999MW1711
0057029720999991956011200004+60517+022267FM-12+005499999V0201101N00311002401CN0050001N9-00611-00721100851ADDAY171999GF108991081061002501999999MD1710061+9999MW1711
0081029720999991956011206004+60517+022267FM-12+005499999V0201101N00311000601CN0015001N9-00391-00391100781ADDAA199002091AY171999GF108991081061000751999999KA1999N-00611MD1510001+9999MW1711
0057029720999991956011212004+60517+022267FM-12+005499999V0201201N00211001501CN0100001N9-00281-00391100781ADDAY171999GF108991081061001501999999MD1710031+9999MW1021
0081029720999991956011218004+60517+022267FM-12+005499999V0201401N00411000151CN0004001N9-00111-00111100711ADDAA199001091AY141999GF108991081061000251999999KA1999M-00111MD1710061+9999MW1471
0081029720999991956011306004+60517+022267FM-12+005499999V0201201N00511001501CN0080001N9-00221-00221099971ADDAA199001091AY121999GF108991081061001501999999KA1999N-00281MD1710301+9999MW1021
0057029720999991956011312004+60517+022267FM-12+005499999V0200901N00511001501CN0020001N9-00111-00221099411ADDAY171999GF108991081061001501999999MD1710341+9999MW1731
0081029720999991956011318004+60517+022267FM-12+005499999V0200901N00211004501CN0070001N9-00111-00221098961ADDAA199002091AY171999GF108991081051004501999999KA1999M-00111MD1710211+9999MW1711
0057029720999991956011400004+60517+022267FM-12+005499999V0200701N00511002401CN0050001N9-00111-00221098761ADDAY171999GF108991081061002501999999MD1710061+9999MW1021
0081029720999991956011406004+60517+022267FM-12+005499999V0203401N00311004501CN0040001N9-00221-00221098941ADDAA199002091AY171999GF108991081051004501999999KA1999N-00221MD1210111+9999MW1711
0057029720999991956011412004+60517+022267FM-12+005499999V0203001N00411004501CN0040001N9-00281-00391099301ADDAY171999GF108991061061004501071999MD1210161+9999MW1221
0081029720999991956011418004+60517+022267FM-12+005499999V0202901N00311002401CN0030001N9-00281-00391099601ADDAA199001091AY171999GF107991051061002501071999KA1999M-00221MD1210131+9999MW1711
0081029720999991956011506004+60517+022267FM-12+005499999V0203201N00211004501CN0100001N9-00391-00501100031ADDAA199002091AY171999GF108991081061004501999999KA1999N-00501MD1210061+9999MW1711
0057029720999991956011512004+60517+022267FM-12+005499999V0203101N00101001501CN0070001N9-00391-00501099961ADDAY121999GF108991081061001501999999MD1710131+9999MW1021
0081029720999991956011518004+60517+022267FM-12+005499999V0200701N00051004501CN0100001N9-00391-00501099861ADDAA199000691AY121999GF108991081061004501999999KA1999M-00281MD1710081+9999MW1021
0057029720999991956011600004+60517+022267FM-12+005499999V0200901N00211001501CN0020001N9-00501-00501099691ADDAY151999GF108991081061001501999999MD1710111+9999MW1571
0081029720999991956011606004+60517+022267FM-12+005499999V0200701N00311002401CN0040001N9-00611-00721099551ADDAA199000691AY171999GF108991081061002501999999KA1999N-00721MD1710051+9999MW1771
0057029720999991956011612004+60517+022267FM-12+005499999V0200901N00211004501CN0013001N9-00501-00611099491ADDAY171999GF108991081061004501999999MD1610011+9999MW1731
0081029720999991956011618004+60517+022267FM-12+005499999V0201401N00311004501CN0030001N9-00501-00611099491ADDAA199002091AY171999GF108991081051004501999999KA1999M-00501MD1010021+9999MW1711
0057029720999991956011700004+60517+022267FM-12+005499999V0201801N00211001501CN0030001N9-00501-00611099451ADDAY171999GF108991081061001501999999MD1710071+9999MW1711
0081029720999991956011706004+60517+022267FM-12+005499999V0201101N00211004501CN0080001N9-00611-00611098941ADDAA199001091AY121999GF108991081061004501999999KA1999N-00611MD1710321+9999MW1021
0057029720999991956011712004+60517+022267FM-12+005499999V0201201N00721001501CN0007001N9-00281-00391097971ADDAY171999GF108991081061001501999999MD1710471+9999MW1751
0081029720999991956011718004+60517+022267FM-12+005499999V0200901N00721004501CN0015001N9-00281-00391097871ADDAA199002091AY171999GF108991081061004501999999KA1999M-00281MD1310051+9999MW1731
0057029720999991956011800004+60517+022267FM-12+005499999V0200201N00511220001CN0046001N9-00781-00891098651ADDAY171999GF103991031061004501001001MD1210401+9999MW1711
0081029720999991956011806004+60517+022267FM-12+005499999V0200901N00411004501CN0200001N9-00781-00891098881ADDAA199000391AY121999GF108991081061004501999999KA1999N-00891MD1210011+9999MW1021
0076029720999991956011812004+60517+022267FM-12+005499999V0201201N00511001501CN0030001N9-00501-00611098231ADDAY171999GF108991081061001501999999MD1710502+9999MW1731EQDQ01+000502APC3  
0081029720999991956011818004+60517+022267FM-12+005499999V0202001N00311001501CN0009001N9+00001+00001097491ADDAA199003091AY171999GF108991081061001501999999KA1999M+00001MD1710271+9999MW1751
0057029720999991956011900004+60517+022267FM-12+005499999V0201601N00211000601CN0010001N9+00001+00001097151ADDAY171999GF108991081061000751999999MD1710231+9999MW1681
0081029720999991956011906004+60517+022267FM-12+005499999V0202301N00211220001CN0200001N9-00391-00501097041ADDAA199002091AY111999GF103991021051004501041001KA1999N-00391MD1310021+9999MW1031
0057029720999991956011912004+60517+022267FM-12+005499999V0202001N00511004501CN0020001N9-00721-00781097071ADDAY171999GF108991071061004501041999MD1010021+9999MW1731
0081029720999991956011918004+60517+022267FM-12+005499999V0202701N00511007801CN0030001N9-00501-00611097021ADDAA199000391AY171999GF108991081051008001999999KA1999M-00281MD1310011+9999MW1731
0057029720999991956012000004+60517+022267FM-12+005499999V0202701N00511004501CN0030001N9-00501-00611097471ADDAY171999GF108991081051004501999999MD1210111+9999MW1731
0081029720999991956012006004+60517+022267FM-12+005499999V0202701N00411004501CN0060001N9-00721-00781097811ADDAA199002091AY171999GF107991071051004501999999KA1999N-00781MD1210191+9999MW1701
0057029720999991956012012004+60517+022267FM-12+005499999V0203001N00621030001CN0100001N9-00501-00721098471ADDAY171999GF106991031051008001071021MD1210351+9999MW1221
0081029720999991956012018004+60517+022267FM-12+005499999V0202501N00511220001CN0300001N9-00391-00611098811ADDAA199000591AY101999GF101991011061008001001001KA1999M-00221MD1210161+9999MW1011
0057029720999991956012100004+60517+022267FM-12+005499999V0202201N00411220001CN0200001N9-00611-00721098851ADDAY101999GF100991001001999999001001MD1710031+9999MW1021
0100029720999991956012106004+60517+022267FM-12+005499999V0201401N00511004501CN0030001N9-00221-00221098021ADDAA199001091AY171999GF108991081061004501999999KA1999N-00781MD1710612+9999MW1731EQDQ01+000612APC3  
0057029720999991956012112004+60517+022267FM-12+005499999V0201801N00621000601CN0050001N9+00001+00001097091ADDAY171999GF108991081061000751999999MD1710401+9999MW1681
0081029720999991956012118004+60517+022267FM-12+005499999V0202001N00511001501CN0040001N9+00001+00001096581ADDAA199006091AY171999GF108991081061001501999999KA1999M+00111MD1710211+9999MW1681
0057029720999991956012200004+60517+022267FM-12+005499999V0202701N00211001501CN0040001N9+00001+00001096821ADDAY121999GF108991061061001501999999MD1210181+9999MW1021
0116029720999991956012206004+60517+022267FM-12+005499999V0203401N00821004501CN0100001N9-00391-00611098172ADDAA199001091AY121999GF108991081061004501999999KA1999N-00501MD1210612+9999MW1021EQDQ01+098173APOSLPQ02+000612APC3  
0057029720999991956012212004+60517+022267FM-12+005499999V0202901N00411004501CN0300001N9-00391-00611098311ADDAY121999GF108991081061004501999999MD1210071+9999MW1021
0070029720999991956012218004+60517+022267FM-12+005499999V0202901N00101004501CN0200001N9-00501-00721098291ADDAY121999GF107991071061004501999999KA1999M-00391MD1210041+9999MW1011
0057029720999991956012300004+60517+022267FM-12+005499999V0202901N00051004501CN0200001N9-00501-00611098501ADDAY121999GF108991081061004501999999MD1210021+9999MW1021
0081029720999991956012306004+60517+022267FM-12+005499999V0203201N00621004501CN0200001N9-00391-00611098861ADDAA199000691AY171999GF106991061061004501999999KA1999N-00721MD1210271+9999MW1021
0057029720999991956012312004+60517+022267FM-12+005499999V0202501N00621004501CN0006001N9-00391-00501099221ADDAY121999GF108991081051004501999999MD1210041+9999MW1751
0081029720999991956012318004+60517+022267FM-12+005499999V0202701N00101220001CN0050001N9-00891-00891099681ADDAA199001091AY111999GF101991011051008001001001KA1999M-00281MD1210251+9999MW1111
0057029720999991956012400004+60517+022267FM-12+005499999V0202001N00311220001CN0100001N9-00891-01001099781ADDAY101999GF101991001001999999001011MD1710021+9999MW1011
0089029720999991956012406004+60517+022267FM-12+005499999V0203601N00211220001CN0150001N9-01221-01281099771ADDAY111999GF102991999021999999041001KA1999N-01221MD1710011+9999MW1011EQDQ01+000002SCOTLC
0057029720999991956012412004+60517+022267FM-12+005499999V0200701N00101000601CN0050001N9-01111-01221099981ADDAY141999GF108991081061000751999999MD1210101+9999MW1021
0070029720999991956012418004+60517+022267FM-12+005499999V0200701N00311000601CN0020001N9-01111-01221100141ADDAY121999GF108991081061000751999999KA1999M-00721MD1110071+9999MW1021
0057029720999991956012500004+60517+022267FM-12+005499999V0200701N00311220001CN0200001N9-01781-01891100391ADDAY101999GF100991001001999999001001MD1210081+9999MW1011
0070029720999991956012506004+60517+022267FM-12+005499999V0200401N00211220001CN0300001N9-02281-02501100701ADDAY101999GF101991001001999999001051KA1999N-02281MD1210141+9999MW1031
0057029720999991956012512004+60517+022267FM-12+005499999V0200701N00211220001CN0300001N9-01891-02111100991ADDAY101999GF100991001001999999001001MD1210141+9999MW1021
0089029720999991956012518004+60517+022267FM-12+005499999V0200901N00211220001CN0150001N9-02281-02501101281ADDAY111999GF104991999001999999041001KA1999M-01781MD1210131+9999MW1021EQDQ01+000002SCOTLC
0057029720999991956012600004+60517+022267FM-12+005499999V0200401N00211220001CN0150001N9-02281-02501101551ADDAY121999GF107991001001999999041999MD1210141+9999MW1031
0089029720999991956012606004+60517+022267FM-12+005499999V0200901N00211220001CN0100001N9-02611-02781101711ADDAY101999GF101991999001999999041001KA1999N-02721MD1210111+9999MW1011EQDQ01+000002SCOTLC
0057029720999991956012612004+60517+022267FM-12+005499999V0200201N00101220001CN0200001N9-02001-02001101831ADDAY101999GF100991001001999999001001MD1210011+9999MW1021
0089029720999991956012618004+60517+022267FM-12+005499999V0200701N00101220001CN0150001N9-02391-02611101801ADDAY101999GF101991999001999999041001KA1999M-01891MD1310011+9999MW1021EQDQ01+000002SCOTLC
0057029720999991956012700004+60517+022267FM-12+005499999V0209991C00001220001CN0003001N9-02281-02501101851ADDAY141999GF107991001001999999071999MD1210021+9999MW1461
0089029720999991956012706004+60517+022267FM-12+005499999V0200601N00101220001CN0150001N9-02391-02611101841ADDAY111999GF105991999001999999071001KA1999N-02611MD1410001+9999MW1031EQDQ01+000002SCOTLC
0057029720999991956012712004+60517+022267FM-12+005499999V0201601N00211004501CN0100001N9-01501-01611101851ADDAY121999GF108991051061004501071999MD1810061+9999MW1021
0070029720999991956012718004+60517+022267FM-12+005499999V0201601N00211001501CN0040001N9-01221-01281101881ADDAY121999GF108991081061001501999999KA1999M-01111MD1210041+9999MW1021
0076029720999991956012800004+60517+022267FM-12+005499999V0201601N00101001501CN0030001N9-00891-01001102071ADDAY121999GF108991081061001501999999MD1210932+9999MW1021EQDQ01+000932APC3  
0057029720999991956012812004+60517+022267FM-12+005499999V0203601N00211004501CN0150001N9-01611-01721102881ADDAY121999GF108991081061004501999999MD1210191+9999MW1021
0070029720999991956012818004+60517+022267FM-12+005499999V0200401N00211220001CN0150001N9-01781-01891103361ADDAY121999GF100991001001999999001001KA1999M-01391MD1210251+9999MW1011
0057029720999991956012900004+60517+022267FM-12+005499999V0200401N00311220001CN0150001N9-02221-02391103711ADDAY111999GF107991001001999999071999MD1210161+9999MW1031
0070029720999991956012906004+60517+022267FM-12+005499999V0200401N00311220001CN0150001N9-02611-02781103951ADDAY101999GF100991001001999999001001KA1999N-02611MD1210141+9999MW1021
0057029720999991956012912004+60517+022267FM-12+005499999V0200401N00211220001CN0200001N9-02281-02501104241ADDAY101999GF100991001001999999001001MD1210091+9999MW1021
0070029720999991956012918004+60517+022267FM-12+005499999V0200401N00211220001CN0200001N9-02611-02781104301ADDAY101999GF100991001001999999001001KA1999M-02221MD1010011+9999MW1021
0057029720999991956013000004+60517+022267FM-12+005499999V0200401N00101220001CN0200001N9-02891-03221104241ADDAY101999GF100991001001999999001001MD1810061+9999MW1021
0070029720999991956013006004+60517+022267FM-12+005499999V0200401N00211220001CN0300001N9-03111-03391104171ADDAY101999GF100991001001999999001001KA1999N-03111MD1310011+9999MW1021
0057029720999991956013012004+60517+022267FM-12+005499999V0200401N00211220001CN0300001N9-02611-02781104201ADDAY101999GF100991001001999999001001MD1010011+9999MW1021
0070029720999991956013018004+60517+022267FM-12+005499999V0203601N00311220001CN0300001N9-02781-03111104111ADDAY101999GF100991001001999999001001KA1999M-02391MD1610031+9999MW1021
0057029720999991956013100004+60517+022267FM-12+005499999V0200401N00311220001CN0200001N9-03001-03281104111ADDAY101999GF100991001001999999001001MD1710011+9999MW1021
0070029720999991956013106004+60517+022267FM-12+005499999V0200401N00311220001CN0200001N9-03001-03281104211ADDAY101999GF100991001001999999001001KA1999N-03111MD1210121+9999MW1021
0057029720999991956013112004+60517+022267FM-12+005499999V0200201N00311220001CN0300001N9-02501-02721104241ADDAY101999GF100991001001999999001001MD1810011+9999MW1021
0089029720999991956013118004+60517+022267FM-12+005499999V0203601N00311220001CN0300001N9-02781-03111104281ADDAY101999GF101991999001999999041001KA1999M-02501MD1210021+9999MW1021EQDQ01+000002SCOTLC
0070029720999991956020106004+60517+022267FM-12+005499999V0203201N00311220001CN0300001N9-01891-02221103421ADDAY121999GF108991001001999999021999KA1999N-02891MD1710341+9999MW1031
0057029720999991956020112004+60517+022267FM-12+005499999V0203601N00621030001CN0200001N9-01001-01111102861ADDAY121999GF106991011061004501071999MD1710211+9999MW1011
0081029720999991956020118004+60517+022267FM-12+005499999V0200201N00621004501CN0300001N9-00501-00611102881ADDAA199000391AY121999GF108991081061004501999999KA1999M-00501MD1210061+9999MW1021
0070029720999991956020206004+60517+022267FM-12+005499999V0200201N00621004501CN0150001N9-00281-00391103161ADDAY171999GF108991081061004501999999KA1999N-00611MD1210111+9999MW1711
0057029720999991956020212004+60517+022267FM-12+005499999V0200401N00511007801CN0200001N9-00221-00501103501ADDAY171999GF107991071051008001999999MD1210111+9999MW1221
0081029720999991956020218004+60517+022267FM-12+005499999V0200201N00411004501CN0200001N9-00281-00501103711ADDAA199000691AY171999GF108991081051004501999999KA1999M-00221MD1210101+9999MW1021
0057029720999991956020300004+60517+022267FM-12+005499999V0200201N00311220001CN0200001N9-00611-00611103681ADDAY101999GF103991031051004501999999MD1710021+9999MW1011
0081029720999991956020306004+60517+022267FM-12+005499999V0203601N00311004501CN0150001N9-00281-00391103681ADDAA199000691AY171999GF108991081051004501999999KA1999N-00611MD1410001+9999MW1711
0057029720999991956020312004+60517+022267FM-12+005499999V0200401N00511030001CN0400001N9-00391-00891103651ADDAY121999GF106991011051008001071999MD1710051+9999MW1031
0089029720999991956020318004+60517+022267FM-12+005499999V0200201N00411220001CN0300001N9-00891-01001103631ADDAY101999GF101991999001999999041001KA1999M-00281MD1010021+9999MW1021EQDQ01+000002SCOTLC
0057029720999991956020400004+60517+022267FM-12+005499999V0203601N00311004501CN0200001N9-01001-01111103501ADDAY121999GF108991081061004501999999MD1710091+9999MW1021
0081029720999991956020406004+60517+022267FM-12+005499999V0200201N00211004501CN0100001N9-00891-01001103291ADDAA199000691AY171999GF108991081061004501999999KA1999N-01221MD1710061+9999MW1731
0057029720999991956020412004+60517+022267FM-12+005499999V0201401N00211007801CN0100001N9-00891-01111102981ADDAY171999GF107991051051008001071999MD1710161+9999MW1711
0081029720999991956020418004+60517+022267FM-12+005499999V0202301N00051004501CN0100001N9-01111-01221102771ADDAA199000391AY171999GF108991081061004501999999KA1999M-00781MD1710061+9999MW1021
0057029720999991956020500004+60517+022267FM-12+005499999V0209991C00001220001CN0100001N9-01611-01721102681ADDAY101999GF100991001001999999001001MD1710041+9999MW1021
0070029720999991956020506004+60517+022267FM-12+005499999V0201401N00101004501CN0200001N9-01281-01501102661ADDAY121999GF107991071051004501999999KA1999N-02111MD1710031+9999MW1021
0057029720999991956020512004+60517+022267FM-12+005499999V0201601N00411220001CN0300001N9-01281-01391102581ADDAY121999GF107991001001999999071999MD1710091+9999MW1031
0081029720999991956020518004+60517+022267FM-12+005499999V0201601N00411004501CN0150001N9-01221-01391102291ADDAA199000391AY171999GF108991081061004501999999KA1999M-01221MD1710131+9999MW1711
0057029720999991956020600004+60517+022267FM-12+005499999V0200901N00311002401CN0150001N9-01001-01221101791ADDAY171999GF108991081061002501999999MD1710291+9999MW1711
0076029720999991956020612004+60517+022267FM-12+005499999V0200401N00621220001CN0300001N9-02111-02501102911ADDAY101999GF101991999001999999041001MD1210181+9999MW1011EQDQ01+000002SCOTLC
0070029720999991956020618004+60517+022267FM-12+005499999V0203601N00511220001CN0300001N9-02281-02501103151ADDAY101999GF100991001001999999001001KA1999M-01891MD1210071+9999MW1021
0057029720999991956020700004+60517+022267FM-12+005499999V0203401N00411220001CN0300001N9-02501-02721103141ADDAY101999GF100991001001999999001001MD1710051+9999MW1021
0089029720999991956020706004+60517+022267FM-12+005499999V0200201N00411220001CN0300001N9-02391-02611103031ADDAY101999GF101991999001999999041001KA1999N-02501MD1610051+9999MW1031EQDQ01+000002SCOTLC
0057029720999991956020712004+60517+022267FM-12+005499999V0200201N00311220001CN0300001N9-02111-02391103111ADDAY101999GF101991001001999999041011MD1210011+9999MW1011
0070029720999991956020718004+60517+022267FM-12+005499999V0200401N00211220001CN0300001N9-02501-02721103111ADDAY101999GF100991001001999999001001KA1999M-02001MD1410001+9999MW1011
0070029720999991956020806004+60517+022267FM-12+005499999V0200401N00311220001CN0300001N9-03001-03281103411ADDAY101999GF100991001001999999001001KA1999N-03111MD1210181+9999MW1021
0057029720999991956020812004+60517+022267FM-12+005499999V0200701N00411220001CN0300001N9-02611-02781103731ADDAY101999GF100991001001999999001001MD1310081+9999MW1021
0070029720999991956020818004+60517+022267FM-12+005499999V0200701N00411220001CN0300001N9-02891-03221104171ADDAY101999GF100991001001999999001001KA1999M-02501MD1210261+9999MW1021
0057029720999991956020900004+60517+022267FM-12+005499999V0200401N00311220001CN0300001N9-03111-03391104471ADDAY101999GF100991001001999999001001MD1210131+9999MW1021
0070029720999991956020906004+60517+022267FM-12+005499999V0200401N00311220001CN0300001N9-03221-03501104441ADDAY101999GF100991001001999999001001KA1999N-03221MD1810031+9999MW1021
0057029720999991956020912004+60517+022267FM-12+005499999V0200201N00311220001CN0300001N9-02391-02721104231ADDAY101999GF100991001001999999001001MD1710151+9999MW1021
0070029720999991956020918004+60517+022267FM-12+005499999V0200201N00411220001CN0300001N9-02611-02781103911ADDAY101999GF101991001001999999001011KA1999M-02221MD1710121+9999MW1021
0057029720999991956021000004+60517+022267FM-12+005499999V0203601N00311220001CN0300001N9-02721-03001103711ADDAY101999GF100991001001999999001001MD1710101+9999MW1021
0070029720999991956021006004+60517+022267FM-12+005499999V0203601N00311004501CN0300001N9-02781-03111103501ADDAY121999GF107991071051004501999999KA1999N-03001MD1710121+9999MW1031
0057029720999991956021012004+60517+022267FM-12+005499999V0200201N00411220001CN0300001N9-02111-02391103311ADDAY101999GF100991001001999999001001MD1710121+9999MW1021
0081029720999991956021018004+60517+022267FM-12+005499999V0203401N00311220001CN0300001N9-02391-02611103251ADDAA199000691AY101999GF100991001001999999001001KA1999M-02001MD1610031+9999MW1021
0057029720999991956021100004+60517+022267FM-12+005499999V0203201N00211220001CN0200001N9-02781-03111103071ADDAY101999GF100991001001999999001001MD1710151+9999MW1021
0070029720999991956021106004+60517+022267FM-12+005499999V0201801N00311004501CN0080001N9-02111-02281102411ADDAY121999GF107991051061004501021999KA1999N-02891MD1710401+9999MW1411
0057029720999991956021112004+60517+022267FM-12+005499999V0202001N00621002401CN0012001N9-01111-01221101361ADDAY171999GF108991081061002501999999MD1710421+9999MW1731
0081029720999991956021118004+60517+022267FM-12+005499999V0201801N00311002401CN0080001N9-01221-01281101041ADDAA199001091AY171999GF108991081061002501999999KA1999M-01001MD1710111+9999MW1711
0057029720999991956021200004+60517+022267FM-12+005499999V0201101N00311004501CN0060001N9-01001-01111100801ADDAY171999GF108991081061004501999999MD1710121+9999MW1711
0081029720999991956021206004+60517+022267FM-12+005499999V0201201N00511004501CN0050001N9-01391-01611100711ADDAA199001091AY171999GF108991081061004501999999KA1999N-01501MD1810021+9999MW1711
0057029720999991956021212004+60517+022267FM-12+005499999V0201201N00511004501CN0030001N9-01501-01721101131ADDAY171999GF108991081051004501999999MD1210261+9999MW1711
0081029720999991956021218004+60517+022267FM-12+005499999V0200901N00621007801CN0080001N9-01721-01891101571ADDAA199000591AY171999GF106991051051008001041999KA1999M-01391MD1210251+9999MW1701
0057029720999991956021300004+60517+022267FM-12+005499999V0200701N00721220001CN0100001N9-02111-02281101821ADDAY171999GF100991001001999999001001MD1210071+9999MW1011
0081029720999991956021306004+60517+022267FM-12+005499999V0200401N00821004501CN0100001N9-02001-02281101701ADDAA199000691AY121999GF108991081061004501999999KA1999N-02111MD1710011+9999MW1021
0057029720999991956021312004+60517+022267FM-12+005499999V0200401N00821220001CN0150001N9-01721-02111101651ADDAY121999GF108991001001999999071999MD1810061+9999MW1221
0081029720999991956021318004+60517+022267FM-12+005499999V0200701N00821030001CN0070001N9-01721-02001101531ADDAA199000691AY171999GF108991031061004501071999KA1999M-01611MD1710101+9999MW1371
0057029720999991956021400004+60517+022267FM-12+005499999V0200401N01231030001CN0080001N9-01611-01781100841ADDAY131999GF108991031051004501071999MD1710451+9999MW1371
0081029720999991956021406004+60517+022267FM-12+005499999V0200401N00931004501CN0020001N9-01501-01721100351ADDAA199000391AY131999GF108991081061004501999999KA1999N-01721MD1710201+9999MW1731
0057029720999991956021412004+60517+022267FM-12+005499999V0200701N00821004501CN0045001N9-01001-01221100221ADDAY171999GF108991081051004501999999MD1510011+9999MW1731
0081029720999991956021418004+60517+022267FM-12+005499999V0201201N00621030001CN0050001N9-01001-01221100821ADDAA199000391AY171999GF108991031061004501021999KA1999M-00781MD1210221+9999MW1731
0057029720999991956021500004+60517+022267FM-12+005499999V0200901N00051220001CN0080001N9-01221-01391101131ADDAY171999GF102991021051004501001001MD1210101+9999MW1011
0081029720999991956021506004+60517+022267FM-12+005499999V0200401N00311002401CN0050001N9-01001-01111101061ADDAA199000691AY121999GF108991081061002501999999KA1999N-01391MD1610061+9999MW1701
0057029720999991956021512004+60517+022267FM-12+005499999V0200601N00621030001CN0015001N9-00611-00721100891ADDAY171999GF108991041061004501021999MD1710071+9999MW1731
0081029720999991956021518004+60517+022267FM-12+005499999V0201201N00721002401CN0100001N9-00501-00721101271ADDAA199002091AY171999GF108991081061002501999999KA1999M-00501MD1210261+9999MW1711
0081029720999991956021606004+60517+022267FM-12+005499999V0201201N00621004501CN0200001N9-00721-00891102271ADDAA199000691AY171999GF108991081061004501999999KA1999N-00721MD1210181+9999MW1701
0081029720999991956021618004+60517+022267FM-12+005499999V0201401N00821004501CN0010001N9-00721-00781102931ADDAA199000391AY171999GF108991081051004501999999KA1999M-00721MD1210411+9999MW1731
0057029720999991956021700004+60517+022267FM-12+005499999V0201201N00721004501CN0080001N9-00891-01001103621ADDAY171999GF108991081061004501999999MD1210291+9999MW1711
0081029720999991956021706004+60517+022267FM-12+005499999V0201201N00721004501CN0100001N9-00781-00891103711ADDAA199000391AY121999GF108991081061004501999999KA1999N-01001MD1210011+9999MW1701
0057029720999991956021712004+60517+022267FM-12+005499999V0200901N00821030001CN0200001N9-00891-01111103831ADDAY171999GF108991031051004501071999MD1210041+9999MW1711
0081029720999991956021718004+60517+022267FM-12+005499999V0200901N00821220001CN0150001N9-01281-01611103891ADDAA199000691AY171999GF108991001001999999071999KA1999M-00781MD1210071+9999MW1031
0070029720999991956021806004+60517+022267FM-12+005499999V0200901N00511220001CN0200001N9-01281-01501103661ADDAY121999GF107991001001999999071999KA1999N-01391MD1710031+9999MW1031
0057029720999991956021812004+60517+022267FM-12+005499999V0200901N00511004501CN0100001N9-01221-01501103611ADDAY171999GF108991051061004501071999MD1710051+9999MW1701
0081029720999991956021818004+60517+022267FM-12+005499999V0200901N00411030001CN0100001N9-01281-01611103651ADDAA199000691AY171999GF107991041061004501071999KA1999M-01111MD1210071+9999MW1711
0081029720999991956021906004+60517+022267FM-12+005499999V0200701N00411004501CN0100001N9-01111-01281103251ADDAA199000691AY171999GF108991051051004501071999KA1999N-01501MD1710171+9999MW1221
0057029720999991956021912004+60517+022267FM-12+005499999V0201201N00821004501CN0200001N9-00611-00781102791ADDAY171999GF108991061051004501071999MD1710231+9999MW1701
0081029720999991956021918004+60517+022267FM-12+005499999V0201201N00621004501CN0200001N9-00501-01001102681ADDAA199000591AY131999GF108991081051004501999999KA1999M-00501MD1710021+9999MW1361
0057029720999991956022000004+60517+022267FM-12+005499999V0201601N00721007801CN0150001N9-00611-01111102771ADDAY121999GF108991081051008001999999MD1210071+9999MW1181
0070029720999991956022006004+60517+022267FM-12+005499999V0201801N00511004501CN0300001N9-00721-01111102951ADDAY121999GF108991081051004501999999KA1999N-00721MD1210151+9999MW1021
0057029720999991956022012004+60517+022267FM-12+005499999V0201601N00621030001CN0300001N9-00721-01111103241ADDAY171999GF107991031051008001041021MD1210121+9999MW1011
0081029720999991956022018004+60517+022267FM-12+005499999V0201401N00311220001CN0300001N9-00781-01111103401ADDAA199000691AY121999GF108991001001999999071071KA1999M-00611MD1210101+9999MW1021
0057029720999991956022100004+60517+022267FM-12+005499999V0201401N00411220001CN0300001N9-00891-01391103641ADDAY121999GF107991001001999999001071MD1210101+9999MW1021
0070029720999991956022106004+60517+022267FM-12+005499999V0201601N00311220001CN0300001N9-01281-01501103721ADDAY101999GF102991001001999999001051KA1999N-01501MD1310051+9999MW1031
0057029720999991956022112004+60517+022267FM-12+005499999V0201601N00411220001CN0300001N9-00721-01221103921ADDAY101999GF102991001001999999001011MD1210021+9999MW1021
0070029720999991956022118004+60517+022267FM-12+005499999V0201201N00211220001CN0300001N9-01281-01501103961ADDAY101999GF100991001001999999001001KA1999M-00721MD1210021+9999MW1011
0057029720999991956022200004+60517+022267FM-12+005499999V0201201N00311220001CN0300001N9-01781-01891103941ADDAY101999GF100991001001999999001001MD1310021+9999MW1021
0089029720999991956022206004+60517+022267FM-12+005499999V0200901N00311220001CN0200001N9-02221-02391103761ADDAY101999GF102991999001999999041001KA1999N-02281MD1710071+9999MW1031EQDQ01+000002SCOTLC
0057029720999991956022212004+60517+022267FM-12+005499999V0201801N00311220001CN0300001N9-01001-01611103621ADDAY101999GF100991001001999999001001MD1710091+9999MW1021
0070029720999991956022218004+60517+022267FM-12+005499999V0201401N00211220001CN0300001N9-01281-01501103251ADDAY101999GF101991001001999999001011KA1999M-00721MD1710171+9999MW1011
0057029720999991956022300004+60517+022267FM-12+005499999V0201401N00211220001CN0200001N9-01781-01891102901ADDAY101999GF101991001001999999001011MD1710231+9999MW1031
0070029720999991956022306004+60517+022267FM-12+005499999V0201401N00311220001CN0200001N9-02221-02281102541ADDAY101999GF104991001001999999041011KA1999N-02221MD1710191+9999MW1031
0070029720999991956022318004+60517+022267FM-12+005499999V0202201N00311002401CN0060001N9-01391-01501101921ADDAY111999GF107991071061002501999999KA1999M-01001MD1710121+9999MW1031
0057029720999991956022400004+60517+022267FM-12+005499999V0202301N00311001501CN0150001N9-00721-00781101561ADDAY121999GF108991081061001501999999MD1710171+9999MW1031
0070029720999991956022406004+60517+022267FM-12+005499999V0203201N00311220001CN0150001N9-01111-01221101501ADDAY111999GF104991021051008001071001KA1999N-01391MD1210041+9999MW1031
0057029720999991956022412004+60517+022267FM-12+005499999V0203401N00621220001CN0500001N9-00611-01391101951ADDAY101999GF101991011011008001001011MD1210171+9999MW1021
0070029720999991956022418004+60517+022267FM-12+005499999V0202901N00411220001CN0500001N9-01001-01281102101ADDAY121999GF107991001001999999071021KA1999M-00611MD1210021+9999MW1031
0057029720999991956022500004+60517+022267FM-12+005499999V0202401N00211220001CN0400001N9-01501-01721101681ADDAY121999GF108991001001999999001071MD1710191+9999MW1021
0081029720999991956022506004+60517+022267FM-12+005499999V0203401N00511002401CN0200001N9-00611-00781101211ADDAA199001091AY171999GF105991051061002501041001KA1999N-01501MD1510061+9999MW1221
0076029720999991956022512004+60517+022267FM-12+005499999V0203201N00721220001CN0500001N9-00611-01281101761ADDAY101999GF101991999001999999041001MD1210271+9999MW1021EQDQ01+000002SCOTLC
0070029720999991956022518004+60517+022267FM-12+005499999V0203001N00411220001CN0500001N9-01221-01391101991ADDAY101999GF101991001001999999001011KA1999M-00611MD1210111+9999MW1021
0076029720999991956022600004+60517+022267FM-12+005499999V0202301N00311220001CN0300001N9-01281-01501101991ADDAY121999GF104991999001999999031001MD1710091+9999MW1021EQDQ01+000002SCOTLC
0070029720999991956022606004+60517+022267FM-12+005499999V0202301N00311030001CN0300001N9-01221-01391101691ADDAY121999GF107991021051008001071999KA1999N-01611MD1710111+9999MW1011
0057029720999991956022612004+60517+022267FM-12+005499999V0202301N00311220001CN0500001N9-00391-00721101421ADDAY121999GF107991001001999999071999MD1710191+9999MW1031
0081029720999991956022618004+60517+022267FM-12+005499999V0201401N00311002401CN0013001N9-00281-00391101041ADDAA199002091AY171999GF108991081061002501999999KA1999M-00281MD1710181+9999MW1731
0043029720999991956022700004+60517+022267FM-12+005499999V0200201N00411002401CN0200001N9-00391-00501100921ADDAY121999GF108991081061002501999999MW1021
0057029720999991956022706004+60517+022267FM-12+005499999V0200201N00211002401CN0200001N9-00611-00721100961ADDAY121999GF108991081061002501999999MD1210041+9999MW1021
0057029720999991956022712004+60517+022267FM-12+005499999V0200701N00101004501CN0300001N9-00391-00721100921ADDAY121999GF108991081051004501999999MD1710011+9999MW1021
0070029720999991956022718004+60517+022267FM-12+005499999V0202201N00311002401CN0100001N9-00501-00611100811ADDAY121999GF108991081061002501999999KA1999M-00281MD1410001+9999MW1701
0081029720999991956022806004+60517+022267FM-12+005499999V0202301N00211000601CN0050001N9-00391-00391100431ADDAA199000391AY141999GF108991081061000751999999KA1999N-00611MD1710081+9999MW1261
0057029720999991956022812004+60517+022267FM-12+005499999V0202701N00311220001CN0300001N9-00111-00391100421ADDAY121999GF107991001001999999071999MD1510011+9999MW1021
0070029720999991956022818004+60517+022267FM-12+005499999V0202701N00101220001CN0300001N9-00501-00611100611ADDAY121999GF108991001001999999001071KA1999M+00001MD1210121+9999MW1021
0057029720999991956022900004+60517+022267FM-12+005499999V0201801N00101220001CN0030001N9-01001-01111100681ADDAY101999GF100991001001999999001001MD1810011+9999MW1111
0081029720999991956022906004+60517+022267FM-12+005499999V0201801N00621000601CN0070001N9-00281-00281100271ADDAA199000391AY141999GF108991081061000751999999KA1999N-01221MD1710311+9999MW1711
0092029720999991956022912004+60517+022267FM-12+005499999V0202001N01031000601CN0004001N9-00111-00221099062ADDAY171999GF108991081061000751999999MD1710712+9999MW1681EQDQ01+099063APOSLPQ02+000712APC3  
0081029720999991956022918004+60517+022267FM-12+005499999V0202501N00411001501CN0030001N9+00001+00001098281ADDAA199002091AY171999GF108991081061001501999999KA1999M+00001MD1510161+9999MW1681
0057029720999991956030100004+60517+022267FM-12+005499999V0202501N00621220001CN0100001N9-00111-00281098161ADDAY171999GF100991001001999999001001MD1710161+9999MW1011
0081029720999991956030106004+60517+022267FM-12+005499999V0202501N00511004501CN0300001N9-00111-00391098041ADDAA199000591AY121999GF107991051051004501071999KA1999N-00221MD1510051+9999MW1021
0076029720999991956030112004+60517+022267FM-12+005499999V0203001N00931220001CN0300001N9+00221-00391098381ADDAY121999GF107991999001999999041001MD1210151+9999MW1181EQDQ01+000002SCOTLC
0102029720999991956030118004+60517+022267FM-12+005499999V0202001N00211220001CN0300001N9-00281-00391098521ADDAA199000691AY101999GF101991001001999999001011KA1999M+00281MW1011EQDQ01+000022APCTENQ02+000002APC3  
0057029720999991956030200004+60517+022267FM-12+005499999V0202301N00311220001CN0300001N9-00501-00611097901ADDAY101999GF102991001001999999001051MD1710401+9999MW1021
0070029720999991956030206004+60517+022267FM-12+005499999V0202301N00511000601CN0030001N9-00221-00221096961ADDAY121999GF108991081061000751999999KA1999N-00611MD1710471+9999MW1021
0057029720999991956030212004+60517+022267FM-12+005499999V0201201N00411001501CN0030001N9+00001-00111096191ADDAY171999GF108991071061001501999999MD1710281+9999MW1711
0081029720999991956030218004+60517+022267FM-12+005499999V0200201N00511001501CN0015001N9+00001+00001096251ADDAA199002091AY171999GF108991081061001501999999KA1999M+00001MD1310161+9999MW1731
0057029720999991956030300004+60517+022267FM-12+005499999V0203401N00721001501CN0030001N9-00221-00221096681ADDAY171999GF108991081061001501999999MD1210281+9999MW1731
0081029720999991956030306004+60517+022267FM-12+005499999V0203201N00821220001CN0300001N9-00781-01111097471ADDAA199001091AY171999GF106991001001999999041011KA1999N-00781MD1210461+9999MW1021
0057029720999991956030312004+60517+022267FM-12+005499999V0203201N00821220001CN0300001N9-00391-00891098041ADDAY101999GF100991001001999999001001MD1210261+9999MW1011
0070029720999991956030318004+60517+022267FM-12+005499999V0203001N00411220001CN0500001N9-00721-01001098661ADDAY101999GF100991001001999999001001KA1999M-00391MD1210331+9999MW1021
0057029720999991956030400004+60517+022267FM-12+005499999V0203001N00211220001CN0300001N9-01281-01391098861ADDAY101999GF100991001001999999001001MD1210101+9999MW1021
0070029720999991956030406004+60517+022267FM-12+005499999V0202901N00211220001CN0300001N9-01391-01501098821ADDAY111999GF106991001001999999041011KA1999N-01611MD1410001+9999MW1031
0057029720999991956030412004+60517+022267FM-12+005499999V0201801N00211220001CN0200001N9-00221-00611098611ADDAY121999GF108991001001999999071071MD1710081+9999MW1051
0070029720999991956030418004+60517+022267FM-12+005499999V0201101N00211030001CN0200001N9-00221-00391098611ADDAY121999GF108991031051004501071999KA1999M-00111MD1210031+9999MW1701
0057029720999991956030500004+60517+022267FM-12+005499999V0201201N00311002401CN0030001N9-00281-00391098731ADDAY171999GF108991081061002501999999MD1210091+9999MW1731
0081029720999991956030506004+60517+022267FM-12+005499999V0201201N00511002401CN0200001N9-00391-00501098881ADDAA199002091AY171999GF108991061061002501071999KA1999N-00391MD1210141+9999MW1711
0057029720999991956030512004+60517+022267FM-12+005499999V0200601N00721030001CN0300001N9-00281-00891099321ADDAY121999GF108991041061004501071999MD1210211+9999MW1701
0081029720999991956030518004+60517+022267FM-12+005499999V0200401N00511220001CN0500001N9-00501-01221099951ADDAA199000691AY121999GF107991001001999999071999KA1999M-00281MD1210341+9999MW1021
0057029720999991956030600004+60517+022267FM-12+005499999V0200401N00211220001CN0400001N9-01111-01391100421ADDAY101999GF100991001001999999001001MD1210231+9999MW1021
0070029720999991956030606004+60517+022267FM-12+005499999V0200401N00211220001CN0150001N9-01891-02001100691ADDAY101999GF103991001001999999041011KA1999N-02001MD1210141+9999MW1021
0057029720999991956030612004+60517+022267FM-12+005499999V0202301N00311220001CN0300001N9-00391-01111100681ADDAY101999GF102991001001999999001011MD1510031+9999MW1021
0070029720999991956030618004+60517+022267FM-12+005499999V0202301N00211220001CN0300001N9-01111-01281100591ADDAY101999GF102991001001999999001011KA1999M-00281MD1710051+9999MW1031
0057029720999991956030700004+60517+022267FM-12+005499999V0202301N00211220001CN0200001N9-01221-01281100441ADDAY121999GF107991001001999999001071MD1710071+9999MW1031
0081029720999991956030706004+60517+022267FM-12+005499999V0202301N00261004501CN0040001N9-01111-01221100531ADDAA199000691AY171999GF108991081061004501999999KA1999N-01391MD1310101+9999MW1711
0057029720999991956030712004+60517+022267FM-12+005499999V0200401N00511220001CN0300001N9-00501-00781101001ADDAY171999GF104991011011004501041011MD1210261+9999MW1011
0081029720999991956030718004+60517+022267FM-12+005499999V0203601N00411220001CN0300001N9-00781-01111101791ADDAA199000691AY101999GF100991001001999999001001KA1999M-00391MD1210441+9999MW1011
0057029720999991956030800004+60517+022267FM-12+005499999V0203601N00261220001CN0300001N9-01501-01611102161ADDAY101999GF100991001001999999001001MD1210151+9999MW1021
0081029720999991956030806004+60517+022267FM-12+005499999V0202301N00261004501CN0040001N9-01111-01221102531ADDAA199000691AY171999GF108991081061004501999999KA1999N-01391MD1310101+9999MW1711
0076029720999991956030812004+60517+022267FM-12+005499999V0203201N00211220001CN0500001N9-00501-01001102351ADDAY101999GF101991001001999999001011MD1410001+9999MW1021EQDQ01+000012SCOTLC
0056029720999991956030818004+60517+022267FM-12+005499999V0202701N00211220001CN0400001N9-01001+99999102431ADDAY101999GF106991001001999999041061KA1999M-00281MW1021
0057029720999991956030900004+60517+022267FM-12+005499999V0202701N00211002401CN0030001N9-00721-00781102261ADDAY171999GF108991081061002501999999MD1710121+9999MW1731
0081029720999991956030906004+60517+022267FM-12+005499999V0202701N00211004501CN0070001N9-00501-00501102261ADDAA199003091AY171999GF107991061061004501071999KA1999N-01221MD1210081+9999MW1711
0057029720999991956030912004+60517+022267FM-12+005499999V0200901N00211004501CN0400001N9-00111-00281102561ADDAY171999GF108991061051004501071999MD1210141+9999MW1021
0070029720999991956030918004+60517+022267FM-12+005499999V0201601N00311004501CN0300001N9-00281-00501102761ADDAY121999GF108991081051004501999999KA1999M-00111MD1210141+9999MW1021
0057029720999991956031000004+60517+022267FM-12+005499999V0201601N00101004501CN0300001N9-00391-00501103011ADDAY121999GF108991051051004501071999MD1210121+9999MW1011
0070029720999991956031006004+60517+022267FM-12+005499999V0201601N00211220001CN0300001N9-00781-00891103121ADDAY101999GF104991001001999999041011KA1999N-00781MD1210091+9999MW1031
0057029720999991956031012004+60517+022267FM-12+005499999V0202001N00511220001CN0500001N9-00221-00891103301ADDAY101999GF102991001001999999041051MD1010061+9999MW1011
0070029720999991956031018004+60517+022267FM-12+005499999V0202001N00311220001CN0300001N9-00501-00781103411ADDAY121999GF107991001001999999071999KA1999M-00221MD1310041+9999MW1031
0057029720999991956031100004+60517+022267FM-12+005499999V0202001N00311220001CN0300001N9-00721-00781103501ADDAY121999GF107991001001999999071999MD1210041+9999MW1031
0070029720999991956031106004+60517+022267FM-12+005499999V0202001N00211220001CN0500001N9-00501-00611103421ADDAY121999GF108991001001999999071999KA1999N-01001MD1810041+9999MW1021
0057029720999991956031112004+60517+022267FM-12+005499999V0202501N00311220001CN0500001N9+00001-00501103391ADDAY121999GF107991001001999999071999MD1710031+9999MW1021
0089029720999991956031118004+60517+022267FM-12+005499999V0202501N00211220001CN0500001N9-00391-00501103281ADDAY101999GF102991999001999999041001KA1999M+00221MD1810041+9999MW1021EQDQ01+000002SCOTLC
0057029720999991956031200004+60517+022267FM-12+005499999V0209991C00001220001CN0200001N9-00721-00721103311ADDAY121999GF107991001001999999071999MD1210021+9999MW1031
0070029720999991956031206004+60517+022267FM-12+005499999V0202201N00101021001CN0200001N9-00501-00611103261ADDAY121999GF107991071001022501071999KA1999N-00781MD1710031+9999MW1021
0057029720999991956031212004+60517+022267FM-12+005499999V0200401N00101220001CN0300001N9+00501-00611103261ADDAY121999GF107991001001999999071999MD1710011+9999MW1021
0070029720999991956031218004+60517+022267FM-12+005499999V0200201N00101220001CN0300001N9+00281-00611103231ADDAY121999GF106991001001999999071999KA1999M+00611MD1210021+9999MW1011
0089029720999991956031306004+60517+022267FM-12+005499999V0200401N00101220001CN0300001N9-00501-00721103271ADDAY101999GF101991999001999999041001KA1999N-00721MD1410001+9999MW1021EQDQ01+000002SCOTLC
0057029720999991956031312004+60517+022267FM-12+005499999V0201801N00101220001CN0300001N9+00781-00111103271ADDAY101999GF101991001001999999001011MD1810041+9999MW1021
0070029720999991956031318004+60517+022267FM-12+005499999V0201801N00101220001CN0200001N9-00221-00391103341ADDAY111999GF101991001001999999001051KA1999M+01001MD1210051+9999MW1011
0057029720999991956031400004+60517+022267FM-12+005499999V0201801N00051220001CN0100001N9-00611-00721103451ADDAY101999GF100991001001999999001001MD1210061+9999MW1021
0089029720999991956031406004+60517+022267FM-12+005499999V0201801N00101220001CN0200001N9-01001-01111103411ADDAY101999GF102991999001999999041001KA1999N-01111MD1810031+9999MW1011EQDQ01+000002SCOTLC
0076029720999991956031412004+60517+022267FM-12+005499999V0201601N00411220001CN0300001N9+00111-00391103521ADDAY101999GF101991999001999999041001MD1210041+9999MW1021EQDQ01+000002SCOTLC
0091029720999991956031418004+60517+022267FM-12+005499999V0209991C00001220001CN0400001N9-00391-00611103481ADDAY101999GF100991001001999999001001KA1999M+00111MW1021EQDQ01+000042APCTENQ02+000022APC3  
0057029720999991956031500004+60517+022267FM-12+005499999V0209991C00001220001CN0300001N9-01001-01111103511ADDAY101999GF100991001001999999001001MD1410001+9999MW1021
0089029720999991956031506004+60517+022267FM-12+005499999V0200401N00311220001CN0300001N9-01281-01391103431ADDAY101999GF101991999001999999041001KA1999N-01501MD1710091+9999MW1021EQDQ01+000002SCOTLC
0057029720999991956031512004+60517+022267FM-12+005499999V0201101N00511220001CN0500001N9+00111-00721103241ADDAY101999GF102991001001999999041011MD1710141+9999MW1021
0070029720999991956031518004+60517+022267FM-12+005499999V0201101N00411004501CN0300001N9-00111-00721103211ADDAY121999GF108991081051004501999999KA1999M+00111MD1210031+9999MW1031
0057029720999991956031600004+60517+022267FM-12+005499999V0201201N00311004501CN0200001N9-00281-00391103311ADDAY171999GF108991081051004501999999MD1210111+9999MW1221
0081029720999991956031606004+60517+022267FM-12+005499999V0201201N00211220001CN0400001N9-00391-00781103571ADDAA199000391AY121999GF106991001001999999041091KA1999N-00391MD1210131+9999MW1021
0057029720999991956031612004+60517+022267FM-12+005499999V0201401N00621220001CN0500001N9+00221-00781103721ADDAY121999GF106991001001999999041011MD1010031+9999MW1031
0070029720999991956031618004+60517+022267FM-12+005499999V0201201N00311220001CN0300001N9-00221-00781103841ADDAY101999GF101991001001999999001011KA1999M+00281MD1210071+9999MW1011
0057029720999991956031700004+60517+022267FM-12+005499999V0201001N00151012301CN0150001N9-00501-00781104021ADDAY121999GF108991081051012501999999MD1210081+9999MW1031
0070029720999991956031706004+60517+022267FM-12+005499999V0201101N00311004501CN0200001N9-00221-00611104131ADDAY121999GF108991081051004501999999KA1999N-00611MD1210071+9999MW1021
0057029720999991956031712004+60517+022267FM-12+005499999V0201401N00511030001CN0200001N9+00281-00391104241ADDAY121999GF108991041051004501071999MD1210011+9999MW1021
0070029720999991956031718004+60517+022267FM-12+005499999V0201201N00101220001CN0300001N9-00111-00611104281ADDAY101999GF101991001001999999001011KA1999M+00391MD1210031+9999MW1021
0091029720999991956031806004+60517+022267FM-12+005499999V0200901N00211220001CN0300001N9-00781-00781104411ADDAY101999GF100991001001999999001001KA1999N-01001MW1011EQDQ01+000042APCTENQ02+000012APC3  
0076029720999991956031812004+60517+022267FM-12+005499999V0200901N00311220001CN0400001N9+00111-00501104331ADDAY111999GF106991999001999999041001MD1810081+9999MW1031EQDQ01+000002SCOTLC
0070029720999991956031818004+60517+022267FM-12+005499999V0201201N00211220001CN0300001N9-00221-00721104121ADDAY121999GF100991001001999999001001KA1999M+00221MD1610041+9999MW1011
0057029720999991956031900004+60517+022267FM-12+005499999V0201201N00311220001CN0300001N9-00721-00781104091ADDAY101999GF100991001001999999001001MD1410001+9999MW1021
0070029720999991956031906004+60517+022267FM-12+005499999V0201401N00311220001CN0400001N9-01001-01221104041ADDAY111999GF105991001001999999001051KA1999N-01001MD1810021+9999MW1031
0057029720999991956031912004+60517+022267FM-12+005499999V0201601N00621220001CN0400001N9-00221-01001104051ADDAY101999GF102991001001999999001011MD1810031+9999MW1011
0070029720999991956031918004+60517+022267FM-12+005499999V0201401N00211220001CN0300001N9-00501-01281103891ADDAY101999GF101991001001999999001011KA1999M-00221MD1710101+9999MW1011
0057029720999991956032000004+60517+022267FM-12+005499999V0201401N00211220001CN0300001N9+00001-01111103801ADDAY101999GF100991001001999999001001MD1710041+9999MW1021
0070029720999991956032006004+60517+022267FM-12+005499999V0201101N00211220001CN0300001N9-00781-01111103791ADDAY101999GF100991001001999999001001KA1999N-00891MD1210021+9999MW1021
0057029720999991956032012004+60517+022267FM-12+005499999V0201601N00511220001CN0500001N9+00221-00891103701ADDAY101999GF101991001001999999001011MD1710061+9999MW1021
0070029720999991956032018004+60517+022267FM-12+005499999V0201401N00311220001CN0500001N9-00221-00891103501ADDAY101999GF100991001001999999001001KA1999M+00221MD1710091+9999MW1021
0057029720999991956032100004+60517+022267FM-12+005499999V0201601N00311220001CN0400001N9-00611-01111103431ADDAY101999GF100991001001999999001001MD1710051+9999MW1021
0070029720999991956032106004+60517+022267FM-12+005499999V0201401N00411220001CN0400001N9-00611-01001103431ADDAY101999GF100991001001999999001001KA1999N-00721MD1310011+9999MW1021
0078029720999991956032112004+60517+022267FM-12+005499999V0201001N00511220001CN0500001N9+00281-00721103451ADDAY101999GF100991001001999999001001MW1021EQDQ01+000042APCTENQ02+000012APC3  
0070029720999991956032118004+60517+022267FM-12+005499999V0201201N00311220001CN0300001N9-00111-00891103381ADDAY101999GF100991001001999999001001KA1999M+00391MD1610031+9999MW1021
0057029720999991956032200004+60517+022267FM-12+005499999V0201401N00511220001CN0300001N9-00501-01001103421ADDAY101999GF100991001001999999001001MD1210021+9999MW1021
0070029720999991956032206004+60517+022267FM-12+005499999V0201101N00411220001CN0300001N9-00721-01111103431ADDAY101999GF101991001001999999001051KA1999N-01001MD1110031+9999MW1021
0057029720999991956032212004+60517+022267FM-12+005499999V0201601N00511220001CN0300001N9+00221-00721103481ADDAY101999GF101991001001999999001051MD1110011+9999MW1021
0070029720999991956032218004+60517+022267FM-12+005499999V0201201N00511220001CN0300001N9-00111-00611103441ADDAY101999GF101991001001999999001011KA1999M+00221MD1810041+9999MW1031
0057029720999991956032300004+60517+022267FM-12+005499999V0201601N00511220001CN0350001N9-00221-00781103491ADDAY101999GF100991001001999999001001MD1210041+9999MW1021
0091029720999991956032306004+60517+022267FM-12+005499999V0201601N00511220001CN0150001N9-00611-00721103491ADDAY101999GF102991001001999999001011KA1999N-00721MW1021EQDQ01+000022APCTENQ02+000002APC3  
0057029720999991956032312004+60517+022267FM-12+005499999V0201601N00621220001CN0300001N9+00001-00611103511ADDAY101999GF102991001001999999001011MD1810041+9999MW1031
0070029720999991956032318004+60517+022267FM-12+005499999V0201601N00621220001CN0300001N9-00281-00781103531ADDAY111999GF101991001001999999001011KA1999M+00001MD1710011+9999MW1011
0057029720999991956032400004+60517+022267FM-12+005499999V0201601N00411220001CN0300001N9-00611-00891103461ADDAY101999GF100991001001999999001001MD1710051+9999MW1021
0070029720999991956032406004+60517+022267FM-12+005499999V0201101N00511220001CN0300001N9-00721-00891103351ADDAY101999GF101991001001999999001011KA1999N-00781MD1710031+9999MW1031
0057029720999991956032412004+60517+022267FM-12+005499999V0201601N00621220001CN0300001N9+00111-00721103271ADDAY111999GF101991001001999999001011MD1710051+9999MW1011
0070029720999991956032418004+60517+022267FM-12+005499999V0201401N00721220001CN0300001N9-00111-00781103041ADDAY101999GF108991001001999999051051KA1999M+00221MD1710101+9999MW1031
0057029720999991956032500004+60517+022267FM-12+005499999V0201401N00511220001CN0200001N9-00281-00781102871ADDAY121999GF105991001001999999001021MD1710111+9999MW1011
0070029720999991956032506004+60517+022267FM-12+005499999V0201601N00411220001CN0300001N9-00391-00781102771ADDAY121999GF106991001001999999041021KA1999N-00501MD1710031+9999MW1021
0057029720999991956032512004+60517+022267FM-12+005499999V0201801N00621220001CN0500001N9+00281-00611102701ADDAY121999GF104991001001999999001021MD1810031+9999MW1011
0070029720999991956032518004+60517+022267FM-12+005499999V0201601N00511220001CN0500001N9-00111-00721102661ADDAY101999GF101991001001999999001011KA1999M+00281MD1410001+9999MW1011
0076029720999991956032600004+60517+022267FM-12+005499999V0201601N00211220001CN0400001N9-00501-00721102741ADDAY101999GF101991999001999999041001MD1210031+9999MW1031EQDQ01+000002SCOTLC
0089029720999991956032606004+60517+022267FM-12+005499999V0201401N00211220001CN0300001N9-00721-00891102861ADDAY121999GF106991999001999999041001KA1999N-00891MD1210101+9999MW1051EQDQ01+000002SCOTLC
0057029720999991956032612004+60517+022267FM-12+005499999V0201601N00411220001CN0300001N9+00221-00721102931ADDAY101999GF100991001001999999001001MD1610011+9999MW1021
0070029720999991956032618004+60517+022267FM-12+005499999V0201601N00411220001CN0200001N9-00221-00781102961ADDAY101999GF102991001001999999001011KA1999M+00281MD1410001+9999MW1031
0057029720999991956032700004+60517+022267FM-12+005499999V0201801N00311220001CN0200001N9-00611-00721103011ADDAY101999GF100991001001999999001001MD1210021+9999MW1021
0070029720999991956032706004+60517+022267FM-12+005499999V0202001N00311220001CN0040001N9-00501-00611102951ADDAY101999GF101991001001999999001011KA1999N-00781MD1610041+9999MW1051
0057029720999991956032712004+60517+022267FM-12+005499999V0202301N00511220001CN0200001N9+00221-00281102931ADDAY101999GF101991001001999999001011MD1810051+9999MW1021
0070029720999991956032718004+60517+022267FM-12+005499999V0202301N00411220001CN0200001N9-00111-00281102881ADDAY121999GF108991001001999999001071KA1999M+00281MD1410001+9999MW1031
0057029720999991956032800004+60517+022267FM-12+005499999V0202301N00411004501CN0200001N9-00221-00391102701ADDAY121999GF108991081061004501999999MD1710161+9999MW1031
0070029720999991956032806004+60517+022267FM-12+005499999V0202701N00411030001CN0200001N9+00111-00501102281ADDAY121999GF108991021061004501071999KA1999N-00391MD1710221+9999MW1021
0057029720999991956032812004+60517+022267FM-12+005499999V0203201N00721220001CN0300001N9+00721+00001101871ADDAY121999GF107991001001999999001071MD1710231+9999MW1021
0070029720999991956032818004+60517+022267FM-12+005499999V0203201N00511220001CN0400001N9+00391+00001101881ADDAY101999GF101991001001999999041011KA1999M+00721MD1310101+9999MW1011
0057029720999991956032900004+60517+022267FM-12+005499999V0203201N00211220001CN0200001N9+00111-00221102251ADDAY111999GF106991001001999999041061MD1210311+9999MW1031
0070029720999991956032906004+60517+022267FM-12+005499999V0203401N00311220001CN0400001N9-00111-00281102661ADDAY121999GF106991001001999999041061KA1999N-00111MD1210121+9999MW1011
0057029720999991956032912004+60517+022267FM-12+005499999V0203401N00211220001CN0500001N9+00611-00501102731ADDAY121999GF107991001001999999071071MD1810051+9999MW1031
0070029720999991956032918004+60517+022267FM-12+005499999V0202501N00211220001CN0500001N9+00221-00391102561ADDAY121999GF102991001001999999041011KA1999M+00721MD1710031+9999MW1011
0057029720999991956033000004+60517+022267FM-12+005499999V0202301N00511220001CN0300001N9+00111+00001102171ADDAY121999GF108991001001999999071071MD1710211+9999MW1021
0081029720999991956033006004+60517+022267FM-12+005499999V0202701N00311004501CN0200001N9+00221+00111101791ADDAA199000691AY121999GF108991061051004501071999KA1999N-00111MD1710121+9999MW1021
0057029720999991956033012004+60517+022267FM-12+005499999V0203201N00511220001CN0400001N9+00781+00111101571ADDAY121999GF102991001001999999001051MD1710111+9999MW1011
0070029720999991956033018004+60517+022267FM-12+005499999V0203201N00411220001CN0400001N9+00281-00281101131ADDAY101999GF101991001001999999001011KA1999M+00781MD1210091+9999MW1021
0057029720999991956033100004+60517+022267FM-12+005499999V0203601N00211220001CN0300001N9-00221-00391101851ADDAY101999GF100991001001999999001001MD1210071+9999MW1021
0070029720999991956033106004+60517+022267FM-12+005499999V0203401N00101220001CN0300001N9-00281-00611101931ADDAY101999GF102991001001999999041011KA1999N-00611MD1310021+9999MW1021
0057029720999991956033112004+60517+022267FM-12+005499999V0203201N00511220001CN0400001N9+00391-00781101711ADDAY111999GF104991001001999999041051MD1710141+9999MW1011
0070029720999991956033118004+60517+022267FM-12+005499999V0203601N00511220001CN0500001N9-00111-00781101411ADDAY121999GF106991001001999999041061KA1999M+00391MD1710101+9999MW1031
0057029720999991956040100004+60517+022267FM-12+005499999V0203401N00101220001CN0300001N9-00391-00721101351ADDAY101999GF102991001001999999001051MD1710011+9999MW1021
0070029720999991956040106004+60517+022267FM-12+005499999V0202201N00151220001CN0400001N9-00391-00611101151ADDAY111999GF105991001001999999071011KA1999N-00721MD1710121+9999MW1031
0057029720999991956040112004+60517+022267FM-12+005499999V0202901N00511002401CN0200001N9+00221+00001100581ADDAY171999GF108991061061002501021999MD1710311+9999MW1021
0081029720999991956040118004+60517+022267FM-12+005499999V0203201N00511030001CN0300001N9+00111-00111100341ADDAA199000591AY121999GF108991011051004501071071KA1999M+00281MD1710041+9999MW1031
0057029720999991956040200004+60517+022267FM-12+005499999V0203201N00311220001CN0400001N9-00221-00391100361ADDAY101999GF101991001001999999001011MD1710011+9999MW1021
0091029720999991956040206004+60517+022267FM-12+005499999V0202901N00311220001CN0500001N9-00281-00721100371ADDAY121999GF107991001001999999001071KA1999N-00501MW1031EQDQ01+000022APCTENQ02+000002APC3  
0057029720999991956040212004+60517+022267FM-12+005499999V0202501N00311075001CN0500001N9-00221-00611999999ADDAY121999GF107991031051004501001071MD1710261+9999MW1021
0081029720999991956040218004+60517+022267FM-12+005499999V0201201N00411002401CN0012001N9-00221-00221099131ADDAA199002091AY171999GF108991081061002501999999KA1999M+00221MD1710481+9999MW1731
0057029720999991956040300004+60517+022267FM-12+005499999V0200401N00721030001CN0100001N9-00281-00391098801ADDAY171999GF108991041061002501071999MD1210151+9999MW1021
0081029720999991956040306004+60517+022267FM-12+005499999V0200401N00621220001CN0300001N9-00721-00891099401ADDAA199003091AY171999GF103991011061002501041001KA1999N-00721MD1210281+9999MW1011
0057029720999991956040312004+60517+022267FM-12+005499999V0203201N00211075001CN0500001N9-00221-00781099641ADDAY121999GF105991031011008001001051MD1210051+9999MW1011
0081029720999991956040318004+60517+022267FM-12+005499999V0209991C00001004501CN0500001N9-00391-00501099701ADDAA199000391AY181999GF106991051031004501041031KA1999M+00111MD1210111+9999MW1261
0076029720999991956040400004+60517+022267FM-12+005499999V0209991C00001220001CN0200001N9-01001-01111099731ADDAY101999GF102991999001999999041001MD1210071+9999MW1021EQDQ01+000002SCOTLC
0081029720999991956040406004+60517+022267FM-12+005499999V0202701N00051001501CN0100001N9-00781-00891099771ADDAA199000591AY171999GF108991051061001501071999KA1999N-01281MD1210061+9999MW1221
0057029720999991956040412004+60517+022267FM-12+005499999V0203001N00311220001CN0500001N9-00281-00781099991ADDAY101999GF101991011011008001001001MD1210091+9999MW1011
0081029720999991956040418004+60517+022267FM-12+005499999V0202501N00211220001CN0500001N9-00501-01111100111ADDAA199000691AY101999GF101991011011008001001001KA1999M-00111MD1210091+9999MW1021
0057029720999991956040500004+60517+022267FM-12+005499999V0201801N00101220001CN0400001N9-01001-01111100181ADDAY101999GF100991001001999999001001MD1410001+9999MW1021
0070029720999991956040506004+60517+022267FM-12+005499999V0201801N00511004501CN0100001N9-00501-00611100221ADDAY121999GF107991071051004501999999KA1999N-01111MD1210061+9999MW1021
0043029720999991956040512004+60517+022267FM-12+005499999V0201601N00311004501CN0500001N9-00221+99999100431ADDAY121999GF107991071051004501999999MW1021
0081029720999991956040518004+60517+022267FM-12+005499999V0200901N00211220001CN0500001N9-00501-00891100541ADDAA199000691AY111999GF104991011051004501001051KA1999M-00111MD1310101+9999MW1011
0057029720999991956040600004+60517+022267FM-12+005499999V0209991C00001220001CN0200001N9-01221-01281100821ADDAY101999GF100991001001999999001001MD1210121+9999MW1021
0070029720999991956040606004+60517+022267FM-12+005499999V0201601N00051000601CN0080001N9-00891-01001101211ADDAY141999GF108991051061000751011999KA1999N-01221MD1210201+9999MW1021
0057029720999991956040612004+60517+022267FM-12+005499999V0203601N00211004501CN0200001N9+00001-01501101531ADDAY111999GF105991051021004501001011MD1210121+9999MW1011
0070029720999991956040618004+60517+022267FM-12+005499999V0200201N00101220001CN0300001N9-00111-00891101761ADDAY121999GF101991011041004501001001KA1999M+00281MD1210161+9999MW1011
0057029720999991956040700004+60517+022267FM-12+005499999V0200401N00101220001CN0300001N9-00781-01001102091ADDAY101999GF100991001001999999001001MD1210161+9999MW1021
0091029720999991956040706004+60517+022267FM-12+005499999V0200201N00511220001CN0300001N9-00721-01001102091ADDAY121999GF106991001001999999001051KA1999N-00891MW1031EQDQ01+000022APCTENQ02+000002APC3  
0057029720999991956040712004+60517+022267FM-12+005499999V0200201N00821220001CN0400001N9+00001-01001101941ADDAY121999GF107991001001999999001071MD1710151+9999MW1021
0070029720999991956040718004+60517+022267FM-12+005499999V0203601N00621220001CN0500001N9-00221-01281101801ADDAY121999GF103991001001999999001051KA1999M+00111MD1510021+9999MW1011
0057029720999991956040800004+60517+022267FM-12+005499999V0203601N00721220001CN0300001N9-00501-01111101501ADDAY101999GF100991001001999999001001MD1710211+9999MW1011
0081029720999991956040806004+60517+022267FM-12+005499999V0203601N00721004501CN0200001N9-00501-00891101241ADDAA199000691AY171999GF108991061051004501071999KA1999N-00611MD1710071+9999MW1711
0057029720999991956040812004+60517+022267FM-12+005499999V0203601N00721004501CN0035001N9-00281-00501101081ADDAY171999GF108991081051004501999999MD1710081+9999MW1731
0081029720999991956040818004+60517+022267FM-12+005499999V0203601N00411002401CN0080001N9-00221-00281101051ADDAA199001091AY171999GF108991081051002501999999KA1999M-00221MD1310031+9999MW1711
0057029720999991956040900004+60517+022267FM-12+005499999V0203401N00311007801CN0150001N9-00221-00281100941ADDAY121999GF108991061051008001071999MD1710061+9999MW1021
0081029720999991956040906004+60517+022267FM-12+005499999V0203201N00211220001CN0300001N9-00111-00281100781ADDAA199000691AY121999GF107991001001999999071999KA1999N-00281MD1610051+9999MW1021
0057029720999991956040912004+60517+022267FM-12+005499999V0202701N00211220001CN0500001N9+00391-00221100601ADDAY121999GF107991001001999999071999MD1510081+9999MW1021
0070029720999991956040918004+60517+022267FM-12+005499999V0201801N00211220001CN0500001N9+00001-00501100441ADDAY121999GF107991001001999999041021KA1999M+00391MD1710031+9999MW1031
0057029720999991956041000004+60517+022267FM-12+005499999V0201601N00211004501CN0080001N9-00221-00221100321ADDAY171999GF108991081051004501999999MD1710071+9999MW1731
0081029720999991956041006004+60517+022267FM-12+005499999V0202001N00101000151CN0003001N9-00111-00111100281ADDAA199002091AY141999GF108991081061000251999999KA1999N-00281MD1110021+9999MW1451
0057029720999991956041012004+60517+022267FM-12+005499999V0202001N00051001501CN0040001N9+00001-00111100231ADDAY121999GF108991081061001501999999MD1710041+9999MW1021
0057029720999991956041100004+60517+022267FM-12+005499999V0200901N00511004501CN0060001N9+00001+00001099461ADDAY121999GF108991081061004501999999MD1710291+9999MW1681
0081029720999991956041106004+60517+022267FM-12+005499999V0200701N00721002401CN0020001N9+00001+00001098921ADDAA199002091AY171999GF108991081061002501999999KA1999N+00001MD1710231+9999MW1681
0057029720999991956041112004+60517+022267FM-12+005499999V0200701N00621001501CN0060001N9+00111+00111098811ADDAY171999GF108991081061001501999999MD1610041+9999MW1681
0081029720999991956041118004+60517+022267FM-12+005499999V0200701N00621001501CN0040001N9+00111+00111098801ADDAA199003091AY171999GF108991081061001501999999KA1999M+00111MD1510011+9999MW1681
0057029720999991956041200004+60517+022267FM-12+005499999V0201401N00621001501CN0010001N9+00001+00001098851ADDAY171999GF108991081061001501999999MD1210041+9999MW1691
0081029720999991956041206004+60517+022267FM-12+005499999V0200701N00411001501CN0020001N9+00001+00001098991ADDAA199002091AY171999GF108991081061001501999999KA1999N+00001MD1210111+9999MW1681
0057029720999991956041212004+60517+022267FM-12+005499999V0200401N00411001501CN0025001N9+00111+00001099211ADDAY171999GF108991081061001501999999MD1210081+9999MW1681
0081029720999991956041218004+60517+022267FM-12+005499999V0203401N00311001501CN0025001N9+00001+00001099351ADDAA199003091AY171999GF108991081061001501999999KA1999M+00221MD1110031+9999MW1681
0057029720999991956041300004+60517+022267FM-12+005499999V0203401N00211002401CN0060001N9+00001+00001099361ADDAY171999GF108991081061002501999999MD1210031+9999MW1681
0081029720999991956041306004+60517+022267FM-12+005499999V0200401N00511002401CN0070001N9+00001-00111099641ADDAA199002091AY171999GF107991071061002501999999KA1999N+00001MD1210201+9999MW1681
0057029720999991956041312004+60517+022267FM-12+005499999V0200701N00721002401CN0150001N9+00111-00111100201ADDAY171999GF108991081061002501999999MD1210321+9999MW1681
0081029720999991956041318004+60517+022267FM-12+005499999V0200901N00311004501CN0100001N9+00001-00111100591ADDAA199000391AY171999GF108991081051004501999999KA1999M+00111MD1210191+9999MW1681
0043029720999991956041400004+60517+022267FM-12+005499999V0201201N00621001501CN0100001N9-00221+99999100801ADDAY171999GF108991051031001501011001MW1711
0081029720999991956041406004+60517+022267FM-12+005499999V0201401N00411001501CN0045001N9-00221-00281100871ADDAA199001091AY171999GF108991081061001501999999KA1999N-00221MD1210041+9999MW1711
0057029720999991956041412004+60517+022267FM-12+005499999V0201601N00411004501CN0020001N9-00111-00221101071ADDAY171999GF108991081051004501999999MD1110051+9999MW1731
0081029720999991956041418004+60517+022267FM-12+005499999V0201101N00311001501CN0040001N9+00001+00001100991ADDAA199001091AY171999GF108991061061001501999999KA1999M+00001MD1610031+9999MW1681
0057029720999991956041500004+60517+022267FM-12+005499999V0201201N00411001501CN0040001N9-00111-00111100851ADDAY171999GF108991081061001501999999MD1710081+9999MW1731
0081029720999991956041506004+60517+022267FM-12+005499999V0200601N00211001501CN0030001N9-00111-00221100831ADDAA199004091AY171999GF108991081061001501999999KA1999N-00221MD1310051+9999MW1731
0057029720999991956041512004+60517+022267FM-12+005499999V0200701N00101002401CN0200001N9+00221-00111100891ADDAY121999GF108991081061002501999999MD1210041+9999MW1021
0081029720999991956041518004+60517+022267FM-12+005499999V0209999999999004501CN0200001N9+00001-00281100971ADDAA199000691AY121999GF108991081061004501999999KA1999M+00221MD1210061+9999MW1021
0057029720999991956041600004+60517+022267FM-12+005499999V0200701N00511004501CN0300001N9-00111-00281101101ADDAY121999GF108991081051004501999999MD1210051+9999MW1021
0070029720999991956041606004+60517+022267FM-12+005499999V0200401N00211004501CN0400001N9-00111-00501101231ADDAY121999GF108991081051004501999999KA1999N-00221MD1210091+9999MW1021
0057029720999991956041612004+60517+022267FM-12+005499999V0200201N00511004501CN0400001N9+00001-00391101441ADDAY121999GF108991081051004501999999MD1210091+9999MW1021
0070029720999991956041618004+60517+022267FM-12+005499999V0200401N00101004501CN0300001N9+00001-00501101641ADDAY121999GF108991081051004501999999KA1999M+00111MD1210131+9999MW1021
0057029720999991956041700004+60517+022267FM-12+005499999V0200901N00051220001CN0300001N9-00221-00611101091ADDAY121999GF104991041051008001001001MD1210071+9999MW1011
0089029720999991956041706004+60517+022267FM-12+005499999V0200401N00101220001CN0300001N9-00281-00611102042ADDAY121999GF106991001001999999041021KA1999N-00611MD1210091+9999MW1021EQDQ01+102043APOSLP
0057029720999991956041712004+60517+022267FM-12+005499999V0200901N00511220001CN0300001N9+00221-00501101921ADDAY121999GF108991001001999999011071MD1710121+9999MW1031
0070029720999991956041718004+60517+022267FM-12+005499999V0200701N00721220001CN0300001N9+00221-00391101631ADDAY121999GF108991001001999999021999KA1999M+00281MD1510091+9999MW1021
0057029720999991956041800004+60517+022267FM-12+005499999V0200701N00821001501CN0010001N9+00001+00001101091ADDAY171999GF108991081061001501999999MD1710341+9999MW1751
0081029720999991956041806004+60517+022267FM-12+005499999V0200201N00821002401CN0020001N9+00001+00001100841ADDAA199005091AY171999GF108991081061002501999999KA1999N-00111MD1710031+9999MW1731
0057029720999991956041812004+60517+022267FM-12+005499999V0203601N00721004501CN0300001N9+00221-00111101191ADDAY171999GF108991061061004501071999MD1210241+9999MW1211
0081029720999991956041818004+60517+022267FM-12+005499999V0203401N00511220001CN0500001N9+00281-00281101631ADDAA199000591AY121999GF105991001001999999001021KA1999M+00501MD1210241+9999MW1011
0057029720999991956041900004+60517+022267FM-12+005499999V0203401N00211220001CN0500001N9-00391-00611102141ADDAY101999GF100991001001999999001001MD1210161+9999MW1021
0070029720999991956041906004+60517+022267FM-12+005499999V0200401N00101220001CN0500001N9-00281-00781102331ADDAY101999GF100991001001999999001001KA1999N-00721MD1210081+9999MW1011
0057029720999991956041912004+60517+022267FM-12+005499999V0202601N00311220001CN0500001N9+00721-00611102161ADDAY101999GF100991001001999999001001MD1710161+9999MW1021
0070029720999991956041918004+60517+022267FM-12+005499999V0202001N00261220001CN0500001N9+00221-00611101891ADDAY101999GF101991001001999999001051KA1999M+00721MD1610121+9999MW1031
0057029720999991956042000004+60517+022267FM-12+005499999V0202501N00101220001CN0400001N9-00221-00891101641ADDAY111999GF102991001001999999001051MD1710071+9999MW1011
0070029720999991956042006004+60517+022267FM-12+005499999V0203601N00101220001CN0500001N9+00111-00611101581ADDAY101999GF102991001001999999041021KA1999N-00501MD1210021+9999MW1021
0057029720999991956042012004+60517+022267FM-12+005499999V0200201N00511220001CN0500001N9+00721-00281101631ADDAY101999GF103991021011012501001011MD1210021+9999MW1021
0070029720999991956042018004+60517+022267FM-12+005499999V0200201N00511220001CN0500001N9+00391-00611101801ADDAY101999GF101991001001999999041011KA1999M+00781MD1210101+9999MW1021
0057029720999991956042100004+60517+022267FM-12+005499999V0200401N00311220001CN0300001N9-00221-00501102021ADDAY101999GF100991001001999999001001MD1210071+9999MW1021
0057029720999991956042106004+60517+022267FM-12+005499999V0200401N00511220001CN0500001N9-00111-00501102091ADDAY101999GF103991001001999999001051MD1110031+9999MW1031
0057029720999991956042112004+60517+022267FM-12+005499999V0200401N00511220001CN0500001N9+00501-00391101921ADDAY121999GF107991001001999999001061MD1710131+9999MW1021
0070029720999991956042118004+60517+022267FM-12+005499999V0200201N00311220001CN0500001N9+00391-00501101721ADDAY111999GF105991001001999999001061KA1999M+00501MD1710051+9999MW1011
0057029720999991956042200004+60517+022267FM-12+005499999V0200201N00411220001CN0500001N9-00111-00721101651ADDAY101999GF100991001001999999001001MD1710041+9999MW1021
0070029720999991956042206004+60517+022267FM-12+005499999V0200201N00411220001CN0500001N9+00111-00611101551ADDAY101999GF101991001001999999001051KA1999N-00281MD1710011+9999MW1021
0057029720999991956042212004+60517+022267FM-12+005499999V0200401N00621220001CN0500001N9+00001-00501101421ADDAY101999GF101991001001999999001051MD1710091+9999MW1021
0070029720999991956042218004+60517+022267FM-12+005499999V0200201N00311220001CN0500001N9+00721-00391101351ADDAY101999GF101991001001999999001011KA1999M+01001MD1210041+9999MW1021
0057029720999991956042300004+60517+022267FM-12+005499999V0200401N00311220001CN0500001N9+99999+99999999999ADDAY101999GF100991001001999999001001MD1210021+9999MW1021
0070029720999991956042306004+60517+022267FM-12+005499999V0200401N00511220001CN0500001N9+00281-00281101511ADDAY101999GF100991001001999999001001KA1999N-00111MD1210061+9999MW1021
0057029720999991956042312004+60517+022267FM-12+005499999V0200401N00621220001CN0500001N9+00891-00221101471ADDAY101999GF100991001001999999001001MD1810021+9999MW1021
0070029720999991956042318004+60517+022267FM-12+005499999V0200401N00311220001CN0500001N9+00721-00501101541ADDAY101999GF100991001001999999001001KA1999M+01001MD1310051+9999MW1021
0057029720999991956042400004+60517+022267FM-12+005499999V0200401N00211220001CN0500001N9-00281-00501101701ADDAY101999GF102991001001999999001051MD1210061+9999MW1031
0070029720999991956042406004+60517+022267FM-12+005499999V0200901N00101220001CN0500001N9+00281-00391101711ADDAY101999GF101991001001999999001011KA1999N-00501MD1010011+9999MW1021
0057029720999991956042412004+60517+022267FM-12+005499999V0209991C00001220001CN0500001N9+01001-00391101611ADDAY101999GF103991001001999999001011MD1810061+9999MW1031
0070029720999991956042418004+60517+022267FM-12+005499999V0202201N00211220001CN0500001N9+00391-00501101491ADDAY101999GF102991001001999999001041KA1999M+01111MD1710011+9999MW1021
0057029720999991956042500004+60517+022267FM-12+005499999V0209991C00001220001CN0500001N9-00281-00391101511ADDAY101999GF102991001001999999999999MD1710011+9999MW1021
0070029720999991956042506004+60517+022267FM-12+005499999V0201801N00101220001CN0500001N9+00221-00611101481ADDAY101999GF104991001001999999001011KA1999N-00611MD1810031+9999MW1021
0057029720999991956042512004+60517+022267FM-12+005499999V0202001N00511220001CN0400001N9+00781-00111101491ADDAY101999GF104991011011012501001011MD1810011+9999MW1021
0070029720999991956042518004+60517+022267FM-12+005499999V0202301N00101220001CN0400001N9+00721-00111101341ADDAY101999GF101991001001999999001011KA1999M+01001MD1610061+9999MW1011
0057029720999991956042600004+60517+022267FM-12+005499999V0200701N00101220001CN0400001N9-00221-00281101321ADDAY101999GF100991001001999999001001MD1710041+9999MW1021
0070029720999991956042606004+60517+022267FM-12+005499999V0200901N00211220001CN0400001N9+00221-00281101161ADDAY101999GF102991001001999999041011KA1999N-00281MD1710071+9999MW1021
0057029720999991956042612004+60517+022267FM-12+005499999V0202001N00311220001CN0400001N9+00781+00001101071ADDAY101999GF102991011011012501041011MD1710051+9999MW1031
0057029720999991956042618004+60517+022267FM-12+005499999V0201801N00211030001CN0200001N9+00281-00111101091ADDAY121999GF108991011051008001071999MD1410001+9999MW1011
0057029720999991956042700004+60517+022267FM-12+005499999V0201801N00211030001CN0150001N9+00111+00001101171ADDAY121999GF108991021051008001071999MD1210011+9999MW1021
0070029720999991956042706004+60517+022267FM-12+005499999V0201401N00101220001CN0150001N9+00281+00111101151ADDAY121999GF105991001001999999071061KA1999N-00111MD1710021+9999MW1011
0057029720999991956042712004+60517+022267FM-12+005499999V0202301N00311007801CN0200001N9+00781+00111101261ADDAY121999GF106991051021008001001061MD1210031+9999MW1021
0081029720999991956042718004+60517+022267FM-12+005499999V0202701N00051030001CN0300001N9+00611+00001101301ADDAA199000691AY161999GF107991021051008001071999KA1999M+00891MD1210031+9999MW1021
0057029720999991956042800004+60517+022267FM-12+005499999V0203601N00101030001CN0300001N9+00221+00001101391ADDAY121999GF106991021051008001071999MD1210021+9999MW1011
0070029720999991956042806004+60517+022267FM-12+005499999V0200201N00101030001CN0300001N9+00281+00001101501ADDAY121999GF108991011051004501071999KA1999N+00111MD1210081+9999MW1011
0057029720999991956042812004+60517+022267FM-12+005499999V0203201N00101012301CN0400001N9+00891+00001101571ADDAY121999GF108991061031012501071999MD1210021+9999MW1031
0070029720999991956042818004+60517+022267FM-12+005499999V0203401N00211007801CN0400001N9+00721+00111101651ADDAY121999GF107991051051008001071999KA1999M+01001MD1210081+9999MW1021
0057029720999991956042900004+60517+022267FM-12+005499999V0200201N00101220001CN0300001N9+00281+00001101681ADDAY121999GF108991001001999999071999MD1410001+9999MW1011
0070029720999991956042906004+60517+022267FM-12+005499999V0203601N00311220001CN0300001N9+00391+00111101691ADDAY121999GF107991001001999999071999KA1999N+00221MD1810031+9999MW1021
0057029720999991956042912004+60517+022267FM-12+005499999V0200701N00311012301CN0400001N9+01001-00111101591ADDAY121999GF106991061021012501041001MD1710091+9999MW1021
0070029720999991956042918004+60517+022267FM-12+005499999V0200701N00101030001CN0500001N9+00721+00001101571ADDAY121999GF107991031031008001041011KA1999M+01001MD1210041+9999MW1021
0057029720999991956043000004+60517+022267FM-12+005499999V0200401N00211220001CN0400001N9+00111-00111101631ADDAY101999GF100991001001999999001001MD1210021+9999MW1011
0070029720999991956043006004+60517+022267FM-12+005499999V0200401N00411220001CN0400001N9+00281-00111101571ADDAY101999GF101991001001999999001051KA1999N-00221MD1710011+9999MW1021
0057029720999991956043012004+60517+022267FM-12+005499999V0200501N00721220001CN0500001N9+00891-00221101651ADDAY101999GF103991031011012501001001MD1210031+9999MW1031
0070029720999991956043018004+60517+022267FM-12+005499999V0200401N00211220001CN0500001N9+00721-00111101761ADDAY101999GF102991001001999999001011KA1999M+01001MD1210101+9999MW1021
0057029720999991956050100004+60517+022267FM-12+005499999V0209991C00001220001CN0300001N9-00111-00391101991ADDAY101999GF100991001001999999001001MD1210091+9999MW1021
0070029720999991956050106004+60517+022267FM-12+005499999V0200901N00211220001CN0500001N9+00391-00281102161ADDAY121999GF103991001001999999001011KA1999N-00111MD1210101+9999MW1011
0057029720999991956050112004+60517+022267FM-12+005499999V0200901N00511075001CN0500001N9+00891-00501102221ADDAY121999GF107991011011012501001071MD1610041+9999MW1021
0070029720999991956050118004+60517+022267FM-12+005499999V0200901N00311220001CN0500001N9+00721-00281102271ADDAY111999GF104991001001999999041061KA1999M+01001MD1210061+9999MW1011
0057029720999991956050200004+60517+022267FM-12+005499999V0200701N00101220001CN0500001N9-00221-00221102391ADDAY101999GF101991001001999999001011MD1210061+9999MW1021
0070029720999991956050206004+60517+022267FM-12+005499999V0200701N00211220001CN0500001N9+00391-00611102391ADDAY101999GF101991001001999999001011KA1999N-00281MD1810011+9999MW1021
0057029720999991956050212004+60517+022267FM-12+005499999V0201201N00211220001CN0500001N9+01221-00221102331ADDAY101999GF101991001001999999001011MD1710021+9999MW1011
0089029720999991956050218004+60517+022267FM-12+005499999V0201801N00411220001CN0500001N9+00891-00221102301ADDAY101999GF101991999001999999041001KA1999M+01281MD1310051+9999MW1021EQDQ01+000002SCOTLC
0057029720999991956050300004+60517+022267FM-12+005499999V0201201N00211220001CN0300001N9-00111-00221102351ADDAY101999GF101991001001999999001051MD1710011+9999MW1021
0091029720999991956050306004+60517+022267FM-12+005499999V0200401N00101220001CN0400001N9+00391-00221102271ADDAY121999GF108991001001999999071999KA1999N-00221MW1021EQDQ01+000012APCTENQ02+000002APC3  
0057029720999991956050312004+60517+022267FM-12+005499999V0203201N00101030001CN0500001N9+01001-00111102141ADDAY121999GF108991021051008001071999MD1610071+9999MW1021
0070029720999991956050318004+60517+022267FM-12+005499999V0202701N00101030001CN0400001N9+00891+00111102041ADDAY121999GF106991011051008001041011KA1999M+01001MD1610061+9999MW1011
0057029720999991956050400004+60517+022267FM-12+005499999V0202301N00101000151CN0002001N9+00221+00221102101ADDAY141999GF108991081061000251999999MD1210031+9999MW1471
0057029720999991956050406004+60517+022267FM-12+005499999V0201801N00101220001CN0100001N9+00501+00281101991ADDAY141999GF107991001001999999041071MD1710051+9999MW1051
0078029720999991956050412004+60517+022267FM-12+005499999V0202501N00311075001CN0400001N9+01501+00391101931ADDAY121999GF107991011011012501001071MW1031EQDQ01+000022APCTENQ02+000002APC3  
0089029720999991956050418004+60517+022267FM-12+005499999V0202001N00311220001CN0400001N9+00891+00391101881ADDAY121999GF106991999001999999041001KA1999M+01611MD1310011+9999MW1031EQDQ01+000002SCOTLC
0057029720999991956050500004+60517+022267FM-12+005499999V0203201N00311220001CN0200001N9+00501+00221101851ADDAY121999GF107991001001999999071999MD1210051+9999MW1021
0070029720999991956050506004+60517+022267FM-12+005499999V0203201N00511220001CN0500001N9+00721+00001102091ADDAY111999GF105991001001999999001021KA1999N+00281MD1210111+9999MW1031
0057029720999991956050512004+60517+022267FM-12+005499999V0203201N00721220001CN0500001N9+01221-00111102181ADDAY121999GF107991001001999999071999MD1110011+9999MW1031
0070029720999991956050518004+60517+022267FM-12+005499999V0202001N00211220001CN0500001N9+00781-00111102111ADDAY121999GF106991001001999999071999KA1999M+01281MD1710101+9999MW1011
0057029720999991956050600004+60517+022267FM-12+005499999V0202001N00211220001CN0400001N9+00501+00281101851ADDAY111999GF105991001001999999071011MD1710161+9999MW1011
0070029720999991956050606004+60517+022267FM-12+005499999V0202001N00051220001CN0150001N9+00501+00221101581ADDAY121999GF107991001001999999071999KA1999N+00221MD1710091+9999MW1021
0057029720999991956050612004+60517+022267FM-12+005499999V0202501N00311030001CN0300001N9+01281+00281101381ADDAY121999GF106991011011008001071999MD1710131+9999MW1021
0081029720999991956050618004+60517+022267FM-12+005499999V0203201N00311030001CN0200001N9+00781+00611101261ADDAA199000691AY161999GF107991021051008001071999KA1999M+01391MD1710021+9999MW1211
0057029720999991956050700004+60517+022267FM-12+005499999V0209991C00001220001CN0008001N9+00221+00221101311ADDAY111999GF100991001001999999001001MD1410001+9999MW1121
0070029720999991956050706004+60517+022267FM-12+005499999V0201401N00311030001CN0100001N9+00611+00391100971ADDAY121999GF107991021061004501071999KA1999N+00001MD1710231+9999MW1051
0057029720999991956050712004+60517+022267FM-12+005499999V0202301N00621030001CN0100001N9+00721+00501100521ADDAY121999GF108991031051004501071999MD1710131+9999MW1601
0081029720999991956050718004+60517+022267FM-12+005499999V0201801N00211000151CN0010001N9+00391+00391099991ADDAA199003091AY161999GF108991081061000251999999KA1999M+00891MD1710231+9999MW1101
0057029720999991956050800004+60517+022267FM-12+005499999V0202901N00051000601CN0010001N9+00391+00391099771ADDAY121999GF108991081061000751999999MD1710081+9999MW1101
0081029720999991956050806004+60517+022267FM-12+005499999V0203201N00511000151CN0010001N9+00281+00281099961ADDAA199000691AY141999GF108991081061000251999999KA1999N+00221MD1210161+9999MW1511
0057029720999991956050812004+60517+022267FM-12+005499999V0203401N00721004501CN0400001N9+00891+00501100281ADDAY121999GF107991061051004501071999MD1210151+9999MW1021
0081029720999991956050818004+60517+022267FM-12+005499999V0203201N00621220001CN0500001N9+00891+00221100511ADDAA199000391AY111999GF101991011051008001001001KA1999M+01221MD1210121+9999MW1021
0076029720999991956050900004+60517+022267FM-12+005499999V0203201N00411220001CN0500001N9+00221+00111100631ADDAY101999GF101991999001999999041001MD1210031+9999MW1011EQDQ01+000002SCOTLC
0070029720999991956050906004+60517+022267FM-12+005499999V0202701N00101220001CN0500001N9+00721+00221100631ADDAY101999GF103991001001999999001011KA1999N+00001MD1510001+9999MW1031
0057029720999991956050912004+60517+022267FM-12+005499999V0203401N00511030001CN0500001N9+01391+00001100681ADDAY121999GF106991041021012501041011MD1210061+9999MW1011
0081029720999991956050918004+60517+022267FM-12+005499999V0203401N00621220001CN0500001N9+01221+00001100891ADDAA199000691AY101999GF102991021091008001001001KA1999M+01611MD1210151+9999MW1011
0057029720999991956051000004+60517+022267FM-12+005499999V0203601N00101220001CN0500001N9+00281+00111101051ADDAY101999GF101991011051008001001051MD1210061+9999MW1021
0070029720999991956051006004+60517+022267FM-12+005499999V0200401N00211220001CN0500001N9+00891+00111101031ADDAY101999GF101991011021008001001011KA1999N+00111MD1210031+9999MW1021
0057029720999991956051012004+60517+022267FM-12+005499999V0200701N00411220001CN0500001N9+01611-00111100861ADDAY101999GF104991041011012501001001MD1710081+9999MW1021
0070029720999991956051018004+60517+022267FM-12+005499999V0203201N00511220001CN0500001N9+01391+00221100781ADDAY101999GF102991021011012501001001KA1999M+01611MD1310011+9999MW1011
0057029720999991956051100004+60517+022267FM-12+005499999V0200401N00211220001CN0300001N9+00501+00221101001ADDAY101999GF100991001001999999001001MD1210121+9999MW1021
0070029720999991956051106004+60517+022267FM-12+005499999V0200901N00101220001CN0400001N9+01001+00221101271ADDAY101999GF102991011011012501041001KA1999N+00281MD1210131+9999MW1031
0057029720999991956051112004+60517+022267FM-12+005499999V0202501N00511012301CN0500001N9+01721+00281101341ADDAY121999GF106991061011012501001001MD1210011+9999MW1021
0070029720999991956051118004+60517+022267FM-12+005499999V0203201N00411220001CN0500001N9+01391+00111101321ADDAY101999GF101991011051017501001001KA1999M+01721MD1710011+9999MW1011
0057029720999991956051200004+60517+022267FM-12+005499999V0209991C00001220001CN0500001N9+00221+00111101411ADDAY101999GF101991001001999999001011MD1210021+9999MW1021
0057029720999991956051206004+60517+022267FM-12+005499999V0201601N00211220001CN0300001N9+00781+00281101381ADDAY101999GF101991011051004501001001MD1810051+9999MW1031
0057029720999991956051212004+60517+022267FM-12+005499999V0201801N00411220001CN0500001N9+01501+00001101351ADDAY101999GF102991021011012501001001MD1710021+9999MW1021
0070029720999991956051218004+60517+022267FM-12+005499999V0202001N00411220001CN0500001N9+01111+00111101351ADDAY101999GF102991011041012501001051KA1999M+01611MD1310041+9999MW1021
0057029720999991956051300004+60517+022267FM-12+005499999V0201401N00101220001CN0500001N9+00281-00281101411ADDAY101999GF101991001001999999001011MD1210011+9999MW1021
0070029720999991956051306004+60517+022267FM-12+005499999V0201801N00411220001CN0500001N9+00891+00111101481ADDAY121999GF106991001001999999071051KA1999N+00111MD1210081+9999MW1021
0057029720999991956051312004+60517+022267FM-12+005499999V0202001N00311030001CN0200001N9+01111+00501101601ADDAY121999GF108991031081008001071999MD1210081+9999MW1601
0081029720999991956051318004+60517+022267FM-12+005499999V0202401N00211220001CN0300001N9+01001+00721101681ADDAA199000591AY121999GF104991021031008001041011KA1999M+01281MD1310051+9999MW1011
0078029720999991956051400004+60517+022267FM-12+005499999V0209991C00001000151CN0001001N9+00281+00281101731ADDAY141999GF109991091999000251999999MW1451EQDQ01+000042APCTENQ02+000012APC3  
0070029720999991956051406004+60517+022267FM-12+005499999V0201401N00101000151CN0002001N9+00391+00391101641ADDAY141999GF108991081061000251999999KA1999N+00281MD1710071+9999MW1451
0057029720999991956051412004+60517+022267FM-12+005499999V0201801N00621220001CN0300001N9+01221+00611101331ADDAY121999GF106991011011008001001061MD1710211+9999MW1031
0070029720999991956051418004+60517+022267FM-12+005499999V0201801N00511220001CN0300001N9+00781+00391100991ADDAY121999GF107991001001999999071999KA1999M+01391MD1710171+9999MW1031
0057029720999991956051500004+60517+022267FM-12+005499999V0202001N00411001501CN0100001N9+00611+00611100681ADDAY161999GF108991081061001501999999MD1710191+9999MW1611
0081029720999991956051506004+60517+022267FM-12+005499999V0202501N00411220001CN0200001N9+00781+00391100621ADDAA199002091AY101999GF101991011021008001041001KA1999N+00501MD1710031+9999MW1021
0057029720999991956051512004+60517+022267FM-12+005499999V0203001N00721220001CN0500001N9+01221+00001100951ADDAY121999GF104991041011008001001001MD1210191+9999MW1021
0070029720999991956051518004+60517+022267FM-12+005499999V0203001N00621220001CN0500001N9+01001-00111101141ADDAY101999GF101991011011012501001001KA1999M+01391MD1310041+9999MW1011
0057029720999991956051600004+60517+022267FM-12+005499999V0209991C00001220001CN0200001N9+00281+00111101091ADDAY101999GF101991001001999999041011MD1710111+9999MW1021
0057029720999991956051612004+60517+022267FM-12+005499999V0202001N00821007801CN0400001N9+01001+00501100421ADDAY121999GF107991061081008001041999MD1110151+9999MW1021
0081029720999991956051618004+60517+022267FM-12+005499999V0202001N00411220001CN0100001N9+00721+00501100151ADDAA199000691AY111999GF103991011061004501041001KA1999M+01221MD1710131+9999MW1011
0070029720999991956051706004+60517+022267FM-12+005499999V0202001N00621220001CN0400001N9+00781+00281099971ADDAY101999GF103991031011008001041001KA1999N+00501MD1210011+9999MW1031
0057029720999991956051712004+60517+022267FM-12+005499999V0202301N00821220001CN0400001N9+01111+00111100051ADDAY121999GF104991041011008001001011MD1210051+9999MW1011
0081029720999991956051718004+60517+022267FM-12+005499999V0202001N00511030001CN0300001N9+00721+00111100131ADDAA199000691AY121999GF105991031031008001041011KA1999M+01221MD1310031+9999MW1251
0057029720999991956051800004+60517+022267FM-12+005499999V0201801N00411220001CN0300001N9+00281+00111100061ADDAY111999GF104991041051004501001001MD1710021+9999MW1021
0070029720999991956051806004+60517+022267FM-12+005499999V0202001N00411220001CN0300001N9+00721+00221100111ADDAY121999GF104991021011004501041001KA1999N+00281MD1210091+9999MW1011
0057029720999991956051812004+60517+022267FM-12+005499999V0202001N00931007801CN0500001N9+00891+00111100231ADDAY121999GF106991061021008001001001MD1110051+9999MW1181
0070029720999991956051818004+60517+022267FM-12+005499999V0202001N00621030001CN0400001N9+00611+00221100301ADDAY121999GF107991031051008001071999KA1999M+01001MD1510021+9999MW1021
0057029720999991956051900004+60517+022267FM-12+005499999V0201801N00311002401CN0300001N9+00391+00281100171ADDAY121999GF108991081061002501999999MD1710051+9999MW1031
0081029720999991956051906004+60517+022267FM-12+005499999V0202001N00411002401CN0150001N9+00611+00281100131ADDAA199000691AY161999GF107991051081002501071999KA1999N+00391MD1310011+9999MW1021
0057029720999991956051912004+60517+022267FM-12+005499999V0202301N00621030001CN0500001N9+01111+00221100181ADDAY121999GF106991031031008001041021MD1010011+9999MW1011
0070029720999991956051918004+60517+022267FM-12+005499999V0202001N00411220001CN0500001N9+00781+00281100361ADDAY101999GF102991011091008001001011KA1999M+01221MD1210121+9999MW1021
0057029720999991956052000004+60517+022267FM-12+005499999V0202201N00051001501CN0030001N9+00391+00281100431ADDAY121999GF108991081061001501999999MD1710011+9999MW1031
0070029720999991956052006004+60517+022267FM-12+005499999V0203601N00101000601CN0050001N9+00281+00281100481ADDAY141999GF108991081061000751999999KA1999N+00221MD1210081+9999MW1281
0057029720999991956052012004+60517+022267FM-12+005499999V0202701N00411012301CN0500001N9+01281+00111100541ADDAY121999GF106991061021012501001001MD1210041+9999MW1161
0070029720999991956052018004+60517+022267FM-12+005499999V0203001N00621075001CN0500001N9+01001+00281100751ADDAY111999GF106991011011012501041061KA1999M+01391MD1210111+9999MW1031
0057029720999991956052100004+60517+022267FM-12+005499999V0202701N00211220001CN0300001N9+00501+00221101031ADDAY121999GF107991001001999999071999MD1210071+9999MW1021
0070029720999991956052106004+60517+022267FM-12+005499999V0203201N00101030001CN0400001N9+00781+00111101191ADDAY121999GF106991011021008001071001KA1999N+00391MD1210111+9999MW1011
0043029720999991956052112004+60517+022267FM-12+005499999V0203001N00621030001CN0400001N9+01281+99999101381ADDAY121999GF107991021011012501041051MW1031
0070029720999991956052118004+60517+022267FM-12+005499999V0203201N00511030001CN0400001N9+00781-00391101591ADDAY121999GF106991011081012501071999KA1999M+01281MD1210081+9999MW1011
0057029720999991956052200004+60517+022267FM-12+005499999V0203201N00151220001CN0400001N9+00111+00001101701ADDAY101999GF101991001001999999071011MD1210101+9999MW1021
0070029720999991956052206004+60517+022267FM-12+005499999V0203401N00211220001CN0300001N9+00721+00221101991ADDAY101999GF101991001001999999041011KA1999N+00001MD1210091+9999MW1011
0057029720999991956052212004+60517+022267FM-12+005499999V0202501N00311012301CN0400001N9+01281+00001102001ADDAY121999GF106991061021012501001001MD1210021+9999MW1011
0070029720999991956052218004+60517+022267FM-12+005499999V0202901N00411220001CN0500001N9+01221-00221102011ADDAY101999GF101991011051012501001001KA1999M+01501MD1310051+9999MW1011
0057029720999991956052300004+60517+022267FM-12+005499999V0203401N00101220001CN0300001N9+00281+00001102191ADDAY101999GF101991001001999999001011MD1210081+9999MW1021
0070029720999991956052306004+60517+022267FM-12+005499999V0200901N00101220001CN0500001N9+01111-00111102281ADDAY101999GF100991001001999999001001KA1999N+00111MD1210061+9999MW1011
0057029720999991956052312004+60517+022267FM-12+005499999V0202001N00511220001CN0500001N9+01501-00111102271ADDAY101999GF102991011011012501001011MD1810041+9999MW1031
0070029720999991956052318004+60517+022267FM-12+005499999V0202301N00411075001CN0500001N9+01221+00001102251ADDAY121999GF107991011041012501001071KA1999M+01611MD1210031+9999MW1021
0076029720999991956052400004+60517+022267FM-12+005499999V0201801N00101220001CN0500001N9+00501+00111102271ADDAY101999GF101991999001999999041001MD1410001+9999MW1011EQDQ01+000002SCOTLC
0089029720999991956052406004+60517+022267FM-12+005499999V0201601N00211220001CN0500001N9+01001+00221102191ADDAY101999GF101991999001999999041001KA1999N+00221MD1710081+9999MW1021EQDQ01+000002SCOTLC
0057029720999991956052412004+60517+022267FM-12+005499999V0201601N00511220001CN0500001N9+01721+00001102091ADDAY101999GF102991011011012501041011MD1710071+9999MW1021
0070029720999991956052418004+60517+022267FM-12+005499999V0202201N00511220001CN0500001N9+01391+00281102021ADDAY101999GF104991001001999999001051KA1999M+01781MD1510011+9999MW1031
0057029720999991956052500004+60517+022267FM-12+005499999V0201801N00051220001CN0400001N9+00611+00391102021ADDAY101999GF102991001001999999001011MD1710011+9999MW1021
0070029720999991956052506004+60517+022267FM-12+005499999V0202301N00411220001CN0200001N9+01221+00281101961ADDAY121999GF105991001001999999001021KA1999N+00391MD1710051+9999MW1051
0057029720999991956052512004+60517+022267FM-12+005499999V0202201N00621220001CN0500001N9+01721+00221101861ADDAY101999GF101991001001999999001011MD1810051+9999MW1021
0070029720999991956052518004+60517+022267FM-12+005499999V0202301N00311220001CN0500001N9+01391+00111101651ADDAY101999GF101991001001999999001011KA1999M+01781MD1710091+9999MW1021
0057029720999991956052600004+60517+022267FM-12+005499999V0202001N00311220001CN0500001N9+00781+00501101691ADDAY101999GF101991001001999999001011MD1210021+9999MW1021
0070029720999991956052606004+60517+022267FM-12+005499999V0202301N00621220001CN0500001N9+01501+00391101611ADDAY101999GF101991001001999999041011KA1999N+00721MD1710021+9999MW1021
0057029720999991956052612004+60517+022267FM-12+005499999V0202301N00621220001CN0500001N9+01781+00501101471ADDAY121999GF107991001001999999041071MD1710061+9999MW1021
0081029720999991956052618004+60517+022267FM-12+005499999V0203401N00411030001CN0150001N9+00891+00721101421ADDAA199001091AY161999GF108991021051008001071999KA1999M+02001MD1210081+9999MW1611
0057029720999991956052700004+60517+022267FM-12+005499999V0202701N00211220001CN0200001N9+00281+00221101391ADDAY111999GF105991001001999999041011MD1710011+9999MW1011
0081029720999991956052706004+60517+022267FM-12+005499999V0202701N00311002401CN0100001N9+00721+00611101081ADDAA199001091AY121999GF108991081061002501999999KA1999N+00281MD1710221+9999MW1601
0057029720999991956052712004+60517+022267FM-12+005499999V0203201N00621004501CN0400001N9+00891+00391100961ADDAY181999GF107991071081004501999999MD1710011+9999MW1011
0081029720999991956052718004+60517+022267FM-12+005499999V0203401N00511220001CN0500001N9+01111+00281101151ADDAA199004091AY121999GF103991031031008001001001KA1999M+01221MD1210111+9999MW1011
0057029720999991956052800004+60517+022267FM-12+005499999V0203401N00411220001CN0300001N9+00391+00221101591ADDAY101999GF101991001001999999001011MD1210191+9999MW1021
0070029720999991956052806004+60517+022267FM-12+005499999V0200401N00101220001CN0500001N9+01001+00281101821ADDAY101999GF101991001001999999001011KA1999N+00281MD1210091+9999MW1021
0057029720999991956052812004+60517+022267FM-12+005499999V0203001N00211220001CN0500001N9+01721+00001101731ADDAY101999GF101991011011017501001011MD1710081+9999MW1021
