0057029700999991956010100004+60117+019900FM-12+000399999V0202301N00051004501CN0100001N9+99999+99999099251ADDAY121999GF108991081051004501999999MD1210031+9999MW1021
0057029700999991956010200004+60117+019900FM-12+000399999V0203601N00511007801CN0050001N9-00221-00281099881ADDAY121999GF107991071061008001999999MD1210171+9999MW1021
0057029700999991956010212004+60117+019900FM-12+000399999V0200201N00511004501CN0100001N9-00221-00281100751ADDAY121999GF108991081051004501999999MD1210161+9999MW1701
0057029700999991956010312004+60117+019900FM-12+000399999V0202501N00721002401CN0020001N9+00001+00001100721ADDAY171999GF108991081051002501999999MD1710451+9999MW1711
0081029700999991956010318004+60117+019900FM-12+000399999V0202901N00411220001CN0150001N9+00221+00001100961ADDAA199002091AY121999GF108991001001999999071999KA1999M+00221MD1110191+9999MW1021
0057029700999991956010400004+60117+019900FM-12+000399999V0202901N00511220001CN0200001N9+00281-00221101261ADDAY101999GF102991001001999999031041MD1110051+9999MW1031
0070029700999991956010406004+60117+019900FM-12+000399999V0202701N00411220001CN0200001N9+00221+00001101451ADDAY121999GF108991001001999999071999KA1999N+00111MD1110031+9999MW1031
0057029700999991956010412004+60117+019900FM-12+000399999V0202901N00411220001CN0250001N9+00281+00001101321ADDAY101999GF102991001001999999071011MD1610041+9999MW1011
0070029700999991956010418004+60117+019900FM-12+000399999V0203601N00101220001CN0300001N9+00111-00281101621ADDAY121999GF100991001001999999001001KA1999M+00281MD1210191+9999MW1021
0057029700999991956010500004+60117+019900FM-12+000399999V0200201N00211220001CN0200001N9+00111-00111101971ADDAY101999GF100991001001999999001001MD1210151+9999MW1021
0076029700999991956010512004+60117+019900FM-12+000399999V0202001N00361220001CN0150001N9+00111+00111102371ADDAY101999GF104991999001999999031001MD1810011+9999MW1031EQDQ01+000002SCOTLC
0057029700999991956010612004+60117+019900FM-12+000399999V0202201N00721000601CN0012001N9+00111+00111102591ADDAY151999GF108991081061000751999999MD1810011+9999MW1201
0057029700999991956010712004+60117+019900FM-12+000399999V0202201N00621000601CN0007001N9+00221+00221101841ADDAY121999GF108991081061000751999999MD1710251+9999MW1471
0070029700999991956010718004+60117+019900FM-12+000399999V0202301N00511001501CN0050001N9+00111+00111101611ADDAY141999GF108991081061001501999999KA1999M+00281MD1710111+9999MW1021
0057029700999991956010800004+60117+019900FM-12+000399999V0202201N00721001501CN0050001N9+00111+00111101411ADDAY161999GF108991081061001501999999MD1710251+9999MW1601
0081029700999991956010806004+60117+019900FM-12+000399999V0202001N00511002401CN0050001N9+00111-00111101211ADDAA199001091AY171999GF108991081061002501999999KA1999N+00001MD1710081+9999MW1261
0057029700999991956010812004+60117+019900FM-12+000399999V0202101N00671004501CN0150001N9+00111-00111101121ADDAY151999GF108991081051004501999999MD1710071+9999MW1201
0057029700999991956010900004+60117+019900FM-12+000399999V0201301N00511004501CN0100001N9-00221-00281101001ADDAY121999GF108991081061004501999999MD1710051+9999MW1021
0081029700999991956011118004+60117+019900FM-12+000399999V0200901N00311002401CN0030001N9-00281-00391100751ADDAA199001091AY171999GF108991081061002501999999KA1999M-00111MD1710111+9999MW1731
0081029700999991956011206004+60117+019900FM-12+000399999V0201101N00211001501CN0040001N9-00111-00111100581ADDAA199002091AY171999GF108991081061001501999999KA1999N-00281MD1510031+9999MW1711
0057029700999991956011312004+60117+019900FM-12+000399999V0200901N00511001501CN0030001N9+00001+00001099141ADDAY171999GF108991081061001501999999MD1710291+9999MW1711
0057029700999991956011512004+60117+019900FM-12+000399999V0200901N00101002401CN0100001N9-00221-00281099991ADDAY121999GF108991081061002501999999MD1710121+9999MW1021
0081029700999991956011606004+60117+019900FM-12+000399999V0200901N00101002401CN0030001N9-00111-00111099381ADDAA199001091AY171999GF108991081071002501999999KA1999N-00221MD1710111+9999MW1711
0057029700999991956011612004+60117+019900FM-12+000399999V0203401N00101001501CN0020001N9-00221-00281099421ADDAY171999GF108991081071001501999999MD1310031+9999MW1731
0057029700999991956011700004+60117+019900FM-12+000399999V0202201N00211001501CN0080001N9-00501-00501099481ADDAY121999GF108991081061001501999999MD1710121+9999MW1021
0076029700999991956011812004+60117+019900FM-12+000399999V0201601N00621002401CN0015001N9+00001+00001097801ADDAY171999GF108991081061002501999999MD1710602+9999MW1731EQDQ01+000602APC3  
0057029700999991956011912004+60117+019900FM-12+000399999V0202701N00821004501CN0100001N9-00721-00891097451ADDAY131999GF107991061051004501031999MD1210331+9999MW1361
0081029700999991956011918004+60117+019900FM-12+000399999V0202701N00931004501CN0100001N9-00721-00781097601ADDAA199001091AY131999GF108991081061004501999999KA1999M-00611MD1210161+9999MW1361
0057029700999991956012000004+60117+019900FM-12+000399999V0202701N00931004501CN0050001N9-00611-00721097841ADDAY131999GF108991081061004501999999MD1210081+9999MW1181
0081029700999991956012006004+60117+019900FM-12+000399999V0203201N00511004501CN0020001N9-00501-00501098181ADDAA199002091AY131999GF108991081061004501999999KA1999N-00721MD1210211+9999MW1391
0057029700999991956012012004+60117+019900FM-12+000399999V0202801N00671220001CN0400001N9-00221-00501098791ADDAY101999GF101991011051004501031001MD1210251+9999MW1011
0094029700999991956012018004+60117+019900FM-12+000399999V0202701N00721220001CN0300001N9-00281-00611099091ADDAY101999GF102991999001999999031001MW1031EQDQ01+000002SCOTLCQ02+000042APCTENQ03+000072APC3  
0057029700999991956012212004+60117+019900FM-12+000399999V0209991C00001220001CN0300001N9-00221-00391098311ADDAY111999GF105991021051004501001011MD1810081+9999MW1011
0057029700999991956012312004+60117+019900FM-12+000399999V0202701N00671220001CN0400001N9-00221-00501099451ADDAY121999GF107991001001999999071999MD1110071+9999MW1021
0070029700999991956012318004+60117+019900FM-12+000399999V0202701N00311220001CN0200001N9-00391-00611099841ADDAY101999GF102991011051008001001011KA1999M-00221MD1210151+9999MW1021
0057029700999991956012400004+60117+019900FM-12+000399999V0209991C00001220001CN0200001N9-01281-01281099881ADDAY101999GF102991001001999999041011MD1710031+9999MW1021
0089029700999991956012406004+60117+019900FM-12+000399999V0209991C00001220001CN0100001N9-01501-01501099761ADDAY101999GF101991999001999999071001KA1999N-01611MD1710081+9999MW1111EQDQ01+000002SCOTLC
0057029700999991956012500004+60117+019900FM-12+000399999V0209991C00001012301CN0300001N9-00891-00891100371ADDAY121999GF106991051051012501031999MD1310121+9999MW1021
0057029700999991956012612004+60117+019900FM-12+000399999V0200901N00101007801CN0080001N9-00891-01001101681ADDAY171999GF107991071051008001999999MD1110031+9999MW1701
0089029700999991956012718004+60117+019900FM-12+000399999V0209991C00001220001CN0200001N9-01221-01221101921ADDAY121999GF106991999001999999031001KA1999M-00611MD1210051+9999MW1021EQDQ01+000002SCOTLC
0081029700999991956012806004+60117+019900FM-12+000399999V0200201N00411004501CN0200001N9-00721-00781102491ADDAA199001091AY121999GF108991081051004501999999KA1999N-01721MD1210321+9999MW1021
0057029700999991956012812004+60117+019900FM-12+000399999V0200101N00621002401CN0025001N9-01001-01111102921ADDAY171999GF108991081051002501999999MD1210191+9999MW1731
0057029700999991956012900004+60117+019900FM-12+000399999V0200201N00211220001CN0100001N9-01721-01781103591ADDAY101999GF100991001001999999001001MD1210081+9999MW1021
0070029700999991956012906004+60117+019900FM-12+000399999V0200201N00211220001CN0100001N9-02111-02281103841ADDAY101999GF100991001001999999001001KA1999N-02111MD1210131+9999MW1021
0057029700999991956012912004+60117+019900FM-12+000399999V0200401N00211220001CN0200001N9-01891-02111104081ADDAY101999GF100991001001999999001001MD1210111+9999MW1051
0057029700999991956013000004+60117+019900FM-12+000399999V0200401N00101220001CN0200001N9-02221-02281104121ADDAY101999GF100991001001999999001001MD1710041+9999MW1021
0057029700999991956013012004+60117+019900FM-12+000399999V0200201N00511220001CN0300001N9-02111-02281104061ADDAY101999GF100991001001999999001001MD1210011+9999MW1021
0070029700999991956013018004+60117+019900FM-12+000399999V0200201N00211220001CN0300001N9-02281-02501104001ADDAY101999GF100991001001999999001001KA1999M-02111MD1410001+9999MW1021
0070029700999991956013106004+60117+019900FM-12+000399999V0200401N00411220001CN0300001N9-02611-02781104051ADDAY101999GF100991001001999999001001KA1999N-02891MD1210111+9999MW1021
0057029700999991956013112004+60117+019900FM-12+000399999V0200501N00411220001CN0500001N9-02221-02391104151ADDAY101999GF101991011051004501001001MD1410001+9999MW1021
0070029700999991956013118004+60117+019900FM-12+000399999V0200201N00211220001CN0300001N9-02501-02611104241ADDAY101999GF100991001001999999001001KA1999M-02221MD1210031+9999MW1021
0070029700999991956020106004+60117+019900FM-12+000399999V0203201N00511004501CN0100001N9-01391-01501103621ADDAY121999GF106991061061004501999999KA1999N-02781MD1710271+9999MW1021
0057029700999991956020112004+60117+019900FM-12+000399999V0203601N00821004501CN0025001N9-00891-01001103081ADDAY171999GF108991061071004501021999MD1610351+9999MW1711
0081029700999991956020118004+60117+019900FM-12+000399999V0200201N00721012301CN0200001N9-00391-00611102951ADDAA199000591AY121999GF108991081051012501999999KA1999M-00391MD1510031+9999MW1021
0081029700999991956020206004+60117+019900FM-12+000399999V0200301N00621004501CN0100001N9-00221-00391103201ADDAA199000691AY171999GF108991081051004501999999KA1999N-00501MD1210051+9999MW1711
0057029700999991956020212004+60117+019900FM-12+000399999V0200301N00511012301CN0200001N9-00111-00391103551ADDAY121999GF107991061051012501999999MD1210121+9999MW1031
0057029700999991956020300004+60117+019900FM-12+000399999V0200101N00261012301CN0300001N9-00391-00781103791ADDAY121999GF105991051051012501001001MD1410001+9999MW1011
0057029700999991956020412004+60117+019900FM-12+000399999V0209991C00001007801CN0100001N9-00721-00781103021ADDAY171999GF108991081051008001999999MD1710161+9999MW1711
0081029700999991956020418004+60117+019900FM-12+000399999V0209991C00001004501CN0080001N9-00781-00781102711ADDAA199000591AY171999GF108991081051004501999999KA1999M-00611MD1710091+9999MW1711
0057029700999991956020500004+60117+019900FM-12+000399999V0201301N00461007801CN0060001N9-00781-00891102551ADDAY171999GF108991081071008001999999MD1710041+9999MW1711
0057029700999991956020512004+60117+019900FM-12+000399999V0202201N00311002401CN0080001N9-00501-00501102481ADDAY171999GF108991081061002501999999MD1710051+9999MW1711
0081029700999991956020518004+60117+019900FM-12+000399999V0209991C00001220001CN0100001N9-01111-01111102261ADDAA199001091AY101999GF100991001001999999001001KA1999M-00501MD1810151+9999MW1111
0057029700999991956020600004+60117+019900FM-12+000399999V0203001N00361220001CN0300001N9-00721-00781101911ADDAY121999GF105991001001999999031999MD1610111+9999MW1021
0068029700999991956020606004+60117+019900FM-12+000399999V0200201N007219999999N0200001N9-00781-00891102181ADDAA199000691AY121999GF108991081999999999999999MD1210231+9999MW1021
0076029700999991956020612004+60117+019900FM-12+000399999V0200401N00511220001CN0150001N9-01721-01891102841ADDAY111999GF103991999001999999041001MD1210271+9999MW1031EQDQ01+000002SCOTLC
0057029700999991956020618004+60117+019900FM-12+000399999V0203601N00211220001CN0150001N9-02111-02221102851ADDAY101999GF100991001001999999001001MD1210151+9999MW1021
0076029700999991956020712004+60117+019900FM-12+000399999V0200301N00621220001CN0400001N9-01281-01781103051ADDAY101999GF101991999001999999041001MD1710071+9999MW1021EQDQ01+000002SCOTLC
0070029700999991956020806004+60117+019900FM-12+000399999V0200601N00211220001CN0200001N9-02221-02281103181ADDAY101999GF100991001001999999001001KA1999N-02221MD1210191+9999MW1021
0057029700999991956020812004+60117+019900FM-12+000399999V0200901N00411220001CN0200001N9-02221-02391103541ADDAY101999GF100991001001999999001001MD1210121+9999MW1021
0070029700999991956020818004+60117+019900FM-12+000399999V0200601N00311220001CN0300001N9-02391-02781103981ADDAY101999GF100991001001999999001001KA1999M-02111MD1210251+9999MW1021
0076029700999991956020912004+60117+019900FM-12+000399999V0203601N00311220001CN0150001N9-01891-02221104191ADDAY101999GF101991999001999999051001MD1010191+9999MW1031EQDQ01+000002SCOTLC
0070029700999991956020918004+60117+019900FM-12+000399999V0200201N00511220001CN0150001N9-02221-02391103951ADDAY101999GF100991001001999999001001KA1999M-01891MD1710091+9999MW1021
0057029700999991956021000004+60117+019900FM-12+000399999V0209991C00001220001CN0150001N9-02721-03001103781ADDAY101999GF100991001001999999001001MD1710081+9999MW1021
0070029700999991956021006004+60117+019900FM-12+000399999V0209991C00001220001CN0150001N9-02281-02501103601ADDAY101999GF100991001001999999001001KA1999N-02781MD1410001+9999MW1021
0057029700999991956021100004+60117+019900FM-12+000399999V0203201N00311004501CN0100001N9-01721-01781103111ADDAY121999GF108991081051004501999999MD1710171+9999MW1021
0057029700999991956021112004+60117+019900FM-12+000399999V0202701N00211007801CN0100001N9-01001-01111101441ADDAY171999GF106991061061008001999999MD1710431+9999MW1221
0081029700999991956021118004+60117+019900FM-12+000399999V0203201N00511004501CN0030001N9-00281-00391101141ADDAA199001091AY171999GF108991081051004501999999KA1999M-00281MD1710171+9999MW1711
0081029700999991956021206004+60117+019900FM-12+000399999V0203201N00621004501CN0030001N9-01501-01721100921ADDAA199001091AY121999GF108991051051004501021999KA1999N-01501MD1610041+9999MW1701
0057029700999991956021212004+60117+019900FM-12+000399999V0203201N00511220001CN0150001N9-01281-01611100861ADDAY101999GF102991011051004501031001MD1210091+9999MW1011
0081029700999991956021218004+60117+019900FM-12+000399999V0209991C00001220001CN0150001N9-02111-02281101281ADDAA199000691AY101999GF100991001001999999001001KA1999M-01281MD1210191+9999MW1021
0057029700999991956021312004+60117+019900FM-12+000399999V0200501N00621220001CN0150001N9-01721-02001101651ADDAY121999GF108991001001999999011999MD1710041+9999MW1021
0081029700999991956021318004+60117+019900FM-12+000399999V0200601N00721030001CN0030001N9-01611-01891101511ADDAA199000591AY171999GF108991031071008001021999KA1999M-01611MD1710071+9999MW1711
0057029700999991956021400004+60117+019900FM-12+000399999V0200201N011319999999N0020001N9-01611-01781100891ADDAY131999GF105991041051008001999999MD1710371+9999MW1361
0100029700999991956021406004+60117+019900FM-12+000399999V0200401N00821015001CN0008001N9-01501-01721100381ADDAA199000691AY131999GF108991999081017501041021KA1999N-01721MD1710211+9999MW1741EQDQ01+000082SCOTLC
0057029700999991956021412004+60117+019900FM-12+000399999V0200401N00621004501CN0008001N9-01281-01391100211ADDAY171999GF108991081051004501999999MD1710111+9999MW1761
0057029700999991956021500004+60117+019900FM-12+000399999V0201001N00621002401CN0100001N9-00611-00721100811ADDAY121999GF108991081071002501999999MD1310231+9999MW1021
0057029700999991956021512004+60117+019900FM-12+000399999V0200301N00311030001CN0014001N9-00721-00781100851ADDAY171999GF108991041071004501021999MD1810081+9999MW1731
0081029700999991956021518004+60117+019900FM-12+000399999V0200901N00511004501CN0080001N9-00501-00501100991ADDAA199003091AY171999GF108991081061004501999999KA1999M-00501MD1210121+9999MW1221
0081029700999991956021606004+60117+019900FM-12+000399999V0201401N00931004501CN0100001N9-00281-00281101781ADDAA199001091AY171999GF108991081061004501999999KA1999N-00501MD1210241+9999MW1711
0081029700999991956021618004+60117+019900FM-12+000399999V0201801N00621004501CN0080001N9-00501-00611102401ADDAA199005091AY171999GF107991061051004501999999KA1999M-00281MD1210361+9999MW1221
0057029700999991956021712004+60117+019900FM-12+000399999V0200901N00721004501CN0025001N9-00891-01111103511ADDAY121999GF108991051061004501031999MD1210011+9999MW1701
0081029700999991956021718004+60117+019900FM-12+000399999V0200901N00771030001CN0100001N9-01111-01281103551ADDAA199000591AY121999GF108991041051004501021999KA1999M-00781MD1210041+9999MW1021
0081029700999991956021806004+60117+019900FM-12+000399999V0200901N00621012301CN0020001N9-01111-01221103381ADDAA199000391AY171999GF108991081051012501999999KA1999N-01721MD1610051+9999MW1731
0057029700999991956021912004+60117+019900FM-12+000399999V0200501N00511002401CN0005001N9-00781-00891102561ADDAY171999GF108991071071002501999999MD1710251+9999MW1751
0057029700999991956022012004+60117+019900FM-12+000399999V0201401N00621030001CN0050001N9-00501-00611102981ADDAY171999GF108991041051004501031999MD1210161+9999MW1221
0089029700999991956022118004+60117+019900FM-12+000399999V0201801N00211004501CN0200001N9-00611-00721103791ADDAY121999GF106991061051004501999999KA1999M+99999MD1710131+9999MW1021EQDQ01 -00722ATMX  
0070029700999991956022206004+60117+019900FM-12+000399999V0203601N00101004501CN0100001N9-01281-01501103621ADDAY121999GF108991061051004501031999KA1999N-02221MD1710071+9999MW1021
0057029700999991956022300004+60117+019900FM-12+000399999V0209991C00001220001CN0150001N9-02611-02781102811ADDAY101999GF101991001001999999001011MD1710211+9999MW1021
0057029700999991956022312004+60117+019900FM-12+000399999V0209991C00001004501CN0100001N9-01111-01281102221ADDAY111999GF108991071051004501001011MD1710151+9999MW1021
0070029700999991956022318004+60117+019900FM-12+000399999V0209991C00001220001CN0200001N9-01611-01721101941ADDAY101999GF100991001001999999001001KA1999M-01111MD1810091+9999MW1021
0057029700999991956022412004+60117+019900FM-12+000399999V0203501N00621220001CN0400001N9-00721-01221102201ADDAY101999GF102991001001999999031011MD1210131+9999MW1021
0076029700999991956022512004+60117+019900FM-12+000399999V0203401N00621220001CN0500001N9-00501-00781102061ADDAY101999GF101991999001999999041001MD1210201+9999MW1021EQDQ01+000002SCOTLC
0062029700999991956022518004+60117+019900FM-12+000399999V0209991C00001220001CN0550001N9-01501-02001102151ADDGF101991001001999999999999KA1999M-00501MD1010011+9999MW1011
0057029700999991956022600004+60117+019900FM-12+000399999V0209991C00001220001CN0300001N9-01391-01501102041ADDAY111999GF107991001001999999051999MD1710131+9999MW1031
0070029700999991956022606004+60117+019900FM-12+000399999V0202701N00411220001CN0400001N9-00611-00891101751ADDAY111999GF104991011051008001051011KA1999N-02001MD1010151+9999MW1011
0057029700999991956022612004+60117+019900FM-12+000399999V0202201N00511220001CN0300001N9-00391-00721101391ADDAY121999GF108991001001999999031999MD1710121+9999MW1021
0057029700999991956022700004+60117+019900FM-12+000399999V0203501N00211007801CN0100001N9-00391-00391101041ADDAY121999GF108991051051008001021999MD1210031+9999MW1021
0057029700999991956022712004+60117+019900FM-12+000399999V0201901N00311002401CN0100001N9-00611-00611100891ADDAY121999GF107991061051002501031999MD1710121+9999MW1011
0070029700999991956022718004+60117+019900FM-12+000399999V0201501N00211004501CN9999999N9-00501-00721100811ADDAY121999GF108991081071004501999999KA1999M-00501MD1710031+9999MW1021
0057029700999991956022818004+60117+019900FM-12+000399999V0209991C00001220001CN0150001N9-00781-00891100621ADDAY121999GF108991001001999999021999MD1210071+9999MW1031
0076029700999991956022912004+60117+019900FM-12+000399999V0202101N01341000601CN0020001N9+00001+00001098891ADDAY171999GF108991081061000751999999MD1710672+9999MW1681EQDQ01+000672APC3  
0081029700999991956022918004+60117+019900FM-12+000399999V0202801N00721002401CN0100001N9+00221+00221098381ADDAA199003091AY161999GF108991081071002501999999KA1999M+00221MD1610131+9999MW1611
0081029700999991956030106004+60117+019900FM-12+000399999V0202701N00621220001CN0400001N9+00001-00281098391ADDAA199000391AY121999GF106991001001999999051999KA1999N-00221MD1310031+9999MW1031
0057029700999991956030200004+60117+019900FM-12+000399999V0201801N00311220001CN0300001N9-00501-00611097921ADDAY101999GF100991001001999999001001MD1710431+9999MW1021
0051029700999991956030212004+60117+019900FM-12+000399999V0200701N00211001501CN0150001N9+00111+00001095941ADDAY101999GF108991081071001501999999MD1610111+9999
0081029700999991956030218004+60117+019900FM-12+000399999V0200201N00821001501CN0015001N9+00001-00111096491ADDAA199003091AY171999GF108991081071001501999999KA1999M+00111MD1210371+9999MW1731
0057029700999991956030318004+60117+019900FM-12+000399999V0203301N01031220001CN0500001N9-00281-00721098481ADDAY101999GF101991011011004501001001MD1210251+9999MW1021
0070029700999991956030406004+60117+019900FM-12+000399999V0209991C00001004501CN0300001N9-01221-01281098781ADDAY121999GF107991071051004501999999KA1999N-01721MD1710111+9999MW1021
0057029700999991956030412004+60117+019900FM-12+000399999V0202001N00511002401CN0100001N9-00111-00221098461ADDAY171999GF108991071051002501999999MD1710121+9999MW1221
0070029700999991956030418004+60117+019900FM-12+000399999V0202001N00211007801CN0100001N9-00221-00281098521ADDAY121999GF108991081061008001999999KA1999M-00111MD1210031+9999MW1021
0081029700999991956030506004+60117+019900FM-12+000399999V0203601N00101004501CN0030001N9-00281-00281098801ADDAA199000591AY171999GF108991071051004501999999KA1999N-00721MD1210131+9999MW1711
0057029700999991956030600004+60117+019900FM-12+000399999V0200201N00411220001CN0100001N9-01001-01221100521ADDAY101999GF102991021051008001001001MD1210241+9999MW1021
0057029700999991956030612004+60117+019900FM-12+000399999V0202701N00211220001CN0500001N9-00391-01001100921ADDAY101999GF101991001001999999001011MD1210051+9999MW1021
0070029700999991956030618004+60117+019900FM-12+000399999V0202501N00101220001CN0400001N9-00391-00721100641ADDAY121999GF107991001001999999011999KA1999M-00221MD1610071+9999MW1031
0057029700999991956030712004+60117+019900FM-12+000399999V0203601N00821220001CN0400001N9-00611-00891101201ADDAY101999GF102991011051008001001011MD1210321+9999MW1011
0081029700999991956030718004+60117+019900FM-12+000399999V0203601N00621220001CN0400001N9-01221-01391101911ADDAA199000691AY101999GF100991001001999999001001KA1999M-00221MD1210291+9999MW1021
0057029700999991956030800004+60117+019900FM-12+000399999V0203601N00101220001CN0200001N9-02111-02281102261ADDAY101999GF100991001001999999001001MD1210091+9999MW1021
0070029700999991956030806004+60117+019900FM-12+000399999V0209991C00001220001CN0400001N9-02391-02501102391ADDAY101999GF100991001001999999001001KA1999N-02501MD1210071+9999MW1021
0057029700999991956030812004+60117+019900FM-12+000399999V0203201N00101220001CN0500001N9-00282-00782102451ADDAY101999GF102991001001999999001041MD1210031+9999MW1031
0070029700999991956030818004+60117+019900FM-12+000399999V0209991C00001030001CN0200001N9-01001-01221102481ADDAY121999GF107991021051008001071999KA1999M-00281MD1410001+9999MW1031
0057029700999991956030900004+60117+019900FM-12+000399999V0202801N00411220001CN0150001N9-00281-00721102291ADDAY101999GF101991011051004501001001MD1710111+9999MW1021
0089029700999991956030906004+60117+019900FM-12+000399999V0200201N00101220001CN0300001N9-00891-01111102351ADDAY101999GF101991999001999999031001KA1999N-01221MD1210041+9999MW1021EQDQ01+000002SCOTLC
0057029700999991956030912004+60117+019900FM-12+000399999V0203501N00211220001CN0500001N9+00001-00721102541ADDAY101999GF106991001001999999001051MD1210051+9999MW1021
0070029700999991956030918004+60117+019900FM-12+000399999V0209991C00001220001CN0400001N9-00611-00891102681ADDAY101999GF102991001001999999001011KA1999M+00281MD1210131+9999MW1021
0057029700999991956031000004+60117+019900FM-12+000399999V0209991C00001000151CN0005001N9-01221-01281102851ADDAY141999GF109991091999000251999999MD1110071+9999MW1441
0057029700999991956031012004+60117+019900FM-12+000399999V0202001N00511001501CN0150001N9-00111-00281103221ADDAY121999GF108991071051001501999999MD1110091+9999MW1021
0070029700999991956031018004+60117+019900FM-12+000399999V0202001N00511220001CN0150001N9-00391-00501103291ADDAY101999GF102991021051004501999999KA1999M-00111MD1210041+9999MW1011
0089029700999991956031106004+60117+019900FM-12+000399999V0201801N00101220001CN0200001N9-00781-00781103401ADDAY101999GF101991999001999999031001KA1999N-00781MD1310011+9999MW1021EQDQ01+000002SCOTLC
0070029700999991956031118004+60117+019900FM-12+000399999V0201801N00101220001CN0200001N9-00391-00501103261ADDAY101999GF100991001001999999001001KA1999M+00001MD1610011+9999MW1011
0089029700999991956031206004+60117+019900FM-12+000399999V0203501N00101220001CN0005001N9-01391-01501103241ADDAY101999GF102991999001999999071001KA1999N-01611MD1710031+9999MW1461EQDQ01+000002SCOTLC
0089029700999991956031218004+60117+019900FM-12+000399999V0203601N00051220001CN0150001N9-00501-00501103211ADDAY111999GF105991999001999999031001KA1999M+00221MD1410001+9999MW1021EQDQ01+000002SCOTLC
0076029700999991956031300004+60117+019900FM-12+000399999V0209991C00001220001CN0200001N9-00391-00391103201ADDAY111999GF102991999001999999031001MD1010001+9999MW1011EQDQ01+000002SCOTLC
0070029700999991956031306004+60117+019900FM-12+000399999V0209991C00001220001CN0150001N9-01001-01001103241ADDAY111999GF105991001001999999031051KA1999N-01111MD1310031+9999MW1031
0094029700999991956031400004+60117+019900FM-12+000399999V0201801N00311220001CN0200001N9-00281-00391103291ADDAY121999GF103991999001999999071001MW1021EQDQ01+000002SCOTLCQ02+000012APCTENQ03+000002APC3  
0076029700999991956031412004+60117+019900FM-12+000399999V0201601N00511220001CN0150001N9+00001-00391103381ADDAY101999GF102991999001999999031001MD1310011+9999MW1011EQDQ01+000002SCOTLC
0070029700999991956031418004+60117+019900FM-12+000399999V0201001N00211220001CN0100001N9-00611-00611103361ADDAY101999GF100991001001999999001001KA1999M+00111MD1410001+9999MW1021
0057029700999991956031512004+60117+019900FM-12+000399999V0200901N00511220001CN0100001N9-00221-00721103191ADDAY111999GF106991001001999999041081MD1710121+9999MW1051
0070029700999991956031518004+60117+019900FM-12+000399999V0200901N00311004501CN9999999N9-00391-00611103081ADDAY111999GF106991061051004501001001KA1999M-00111MD1210011+9999MW1701
0057029700999991956031600004+60117+019900FM-12+000399999V0201001N00211002401CN0100001N9-00391-00391103111ADDAY121999GF108991081051002501001001MD1310081+9999MW1021
0081029700999991956031606004+60117+019900FM-12+000399999V0200901N00311004501CN0100001N9-00281-00391103311ADDAA199000391AY121999GF108991081051004501999999KA1999N-00501MD1210131+9999MW1021
0057029700999991956031612004+60117+019900FM-12+000399999V0201001N00721220001CN0300001N9-00111-00391103481ADDAY121999GF108991001001999999011999MD1210051+9999MW1011
0070029700999991956031618004+60117+019900FM-12+000399999V0201201N00511220001CN0300001N9-00221-00611103591ADDAY121999GF108991001001999999011999KA1999M-00111MD1110081+9999MW1021
0057029700999991956031700004+60117+019900FM-12+000399999V0201301N00511220001CN0200001N9-00221-00501103661ADDAY121999GF108991001001999999011999MD1310051+9999MW1031
0070029700999991956031706004+60117+019900FM-12+000399999V0201401N00511007801CN0250001N9+00001-00281103801ADDAY121999GF108991081051008001999999KA1999N-00391MD1310091+9999MW1021
0089029700999991956031818004+60117+019900FM-12+000399999V0201301N00411220001CN0200001N9-00281-00501103921ADDAY101999GF101991999001999999031001KA1999M+00111MD1610071+9999MW1021EQDQ01+000002SCOTLC
0057029700999991956031912004+60117+019900FM-12+000399999V0201501N00621220001CN0300001N9-00221-00391103801ADDAY111999GF102991021051004501001001MD1810031+9999MW1011
0057029700999991956032012004+60117+019900FM-12+000399999V0201501N00511220001CN0400001N9+00001-00281103461ADDAY101999GF100991001001999999001001MD1810031+9999MW1021
0070029700999991956032018004+60117+019900FM-12+000399999V0201401N00511220001CN0200001N9-00281-00611103261ADDAY101999GF100991001001999999001001KA1999M+00001MD1710121+9999MW1021
0070029700999991956032118004+60117+019900FM-12+000399999V0201301N00411220001CN0300001N9-00221-00721103141ADDAY101999GF100991001001999999001001KA1999M+00221MD1410001+9999MW1021
0057029700999991956032200004+60117+019900FM-12+000399999V0201301N00511220001CN0300001N9-00391-00611103091ADDAY101999GF100991001001999999001001MD1610011+9999MW1021
0057029700999991956032212004+60117+019900FM-12+000399999V0201501N00721220001CN9999999N9-00111-00501103181ADDAY101999GF101991001001999999001011MD1310031+9999MW1021
0070029700999991956032306004+60117+019900FM-12+000399999V0201501N00411220001CN0100001N9-00501-00611103141ADDAY101999GF102991001001999999031041KA1999N-00611MD1110031+9999MW1031
0057029700999991956032312004+60117+019900FM-12+000399999V0201601N00821220001CN0150001N9-00111-00391103201ADDAY101999GF102991011051002501041011MD1210031+9999MW1011
0057029700999991956032318004+60117+019900FM-12+000399999V0201501N00721220001CN0150001N9-00281-00501103211ADDAY101999GF101991001001999999001011MD1610031+9999MW1011
0089029700999991956032406004+60117+019900FM-12+000399999V0201501N00411220001CN0200001N9-00391-00611103011ADDAY101999GF105991999001999999031001KA1999N-00721MD1610031+9999MW1031EQDQ01+000002SCOTLC
0057029700999991956032412004+60117+019900FM-12+000399999V0201501N00621220001CN0200001N9-00111-00501102951ADDAY121999GF107991001001999999071999MD1810031+9999MW1021
0070029700999991956032418004+60117+019900FM-12+000399999V0201501N00821220001CN0150001N9-00221-00611102691ADDAY121999GF107991001001999999051011KA1999M+00001MD1710091+9999MW1031
0070029700999991956032506004+60117+019900FM-12+000399999V0201501N00411220001CN0200001N9-00391-00611102481ADDAY101999GF103991001001999999071011KA1999N-00391MD1110031+9999MW1021
0070029700999991956032618004+60117+019900FM-12+000399999V0202001N00821002401CN0100001N9-00111-00281102811ADDAY121999GF108991081051002501999999KA1999M+00111MD1710031+9999MW1031
0070029700999991956032706004+60117+019900FM-12+000399999V0202001N00621000151CN0003001N9-00391-00391102911ADDAY141999GF108991081061000251999999KA1999N-00611MD1110071+9999MW1451
0057029700999991956032712004+60117+019900FM-12+000399999V0202101N00621220001CN0100001N9-00111-00111102941ADDAY101999GF102991001001999999001011MD1810031+9999MW1011
0070029700999991956032718004+60117+019900FM-12+000399999V0202301N00261220001CN0250001N9-00111-00221102941ADDAY121999GF107991001001999999031081KA1999M+00111MD1110031+9999MW1011
0057029700999991956032800004+60117+019900FM-12+000399999V0202001N00101220001CN0300001N9-00281-00391102821ADDAY111999GF100991001001999999001001MD1710091+9999MW1001
0070029700999991956032806004+60117+019900FM-12+000399999V0202701N00261220001CN0200001N9+00111-00221102541ADDAY121999GF108991001001999999071999KA1999N-00391MD1710071+9999MW1021
0057029700999991956032812004+60117+019900FM-12+000399999V0202701N00621220001CN0250001N9+00721-00111102281ADDAY111999GF108991001001999999001071MD1610171+9999MW1021
0089029700999991956032818004+60117+019900FM-12+000399999V0203501N00931220001CN0300001N9+00611+00111102211ADDAY101999GF103991999001999999031001KA1999M+01001MD1010051+9999MW1021EQDQ01+000002SCOTLC
0076029700999991956032900004+60117+019900FM-12+000399999V0203501N00511220001CN0200001N9+00281+00221102521ADDAY111999GF105991999001999999041001MD1210131+9999MW1031EQDQ01+000002SCOTLC
0070029700999991956032906004+60117+019900FM-12+000399999V0203501N00311220001CN0400001N9-00111-00221102771ADDAY121999GF107991001001999999041081KA1999N-00221MD1210121+9999MW1031
0076029700999991956033000004+60117+019900FM-12+000399999V0202001N00311220001CN0200001N9+00111-00221102211ADDAY111999GF106991999001999999011001MD1710201+9999MW1031EQDQ01+000002SCOTLC
0057029700999991956033012004+60117+019900FM-12+000399999V0203601N00721220001CN0500001N9+00611+00001101851ADDAY101999GF105991001001999999001081MD1610041+9999MW1021
0070029700999991956033018004+60117+019900FM-12+000399999V0203401N00211220001CN0400001N9+00281+00001101891ADDAY101999GF101991011051017501001011KA1999M+00611MD1410001+9999MW1021
0070029700999991956033106004+60117+019900FM-12+000399999V0200201N00101220001CN0400001N9-00391-00391101991ADDAY101999GF104991001001999999041011KA1999N-00501MD1110051+9999MW1031
0057029700999991956033112004+60117+019900FM-12+000399999V0202801N00511220001CN0500001N9+00391-00721101841ADDAY111999GF104991001001999999041081MD1710151+9999MW1011
0070029700999991956033118004+60117+019900FM-12+000399999V0209991C00001030001CN0500001N9-00221-00501101571ADDAY121999GF106991021051004501041999KA1999M+00391MD1710161+9999MW1021
0070029700999991956040106004+60117+019900FM-12+000399999V0202501N00151030001CN0500001N9-00221-00221101241ADDAY121999GF106991021061002501051999KA1999N-00721MD1710051+9999MW1031
0057029700999991956040112004+60117+019900FM-12+000399999V0203201N00621220001CN0500001N9+00501-00221100941ADDAY101999GF106991001001999999041999MD1710171+9999MW1021
0081029700999991956040118004+60117+019900FM-12+000399999V0203401N00511004501CN0150001N9+00281+00001100661ADDAA199000391AY181999GF108991061051004501041999KA1999M+00611MD1310041+9999MW1251
0076029700999991956040200004+60117+019900FM-12+000399999V0203301N00311220001CN0300001N9-00111-00281100651ADDAY101999GF102991999001999999031001MD1810011+9999MW1021EQDQ01+000002SCOTLC
0057029700999991956040300004+60117+019900FM-12+000399999V0203401N00411004501CN0050001N9-00111-00111099021ADDAY171999GF108991081061004501999999MD1310031+9999MW1731
0057029700999991956040312004+60117+019900FM-12+000399999V0200201N00311220001CN0300001N9+00001-00721099681ADDAY111999GF106991031011008001001061MD1210071+9999MW1201
0070029700999991956040318004+60117+019900FM-12+000399999V0203501N00101220001CN0400001N9-00391-00611099751ADDAY101999GF101991001001999999001011KA1999M+00001MD1310041+9999MW1011
0081029700999991956040406004+60117+019900FM-12+000399999V0203401N00101220001CN0500001N9-00781-00891099941ADDAA199000591AY101999GF100991001001999999001001KA1999N-01001MD1210111+9999MW1011
0057029700999991956040412004+60117+019900FM-12+000399999V0202701N00511220001CN0500001N9-00111-01111100091ADDAY101999GF101991011011008001001011MD1210071+9999MW1021
0070029700999991956040418004+60117+019900FM-12+000399999V0202001N00211220001CN0300001N9-00391-00611100141ADDAY101999GF101991011041008001001001KA1999M+00001MD1210041+9999MW1021
0070029700999991956040506004+60117+019900FM-12+000399999V0209991C00001220001CN0200001N9-00781-00891100161ADDAY101999GF102991021051004501001011KA1999N-01281MD1310191+9999MW1021
0070029700999991956040518004+60117+019900FM-12+000399999V0200701N00051030001CN0400001N9-00281-00611100551ADDAY121999GF108991011041008001071071KA1999M+00111MD1210121+9999MW1031
0070029700999991956040606004+60117+019900FM-12+000399999V0200401N00211030001CN0100001N9-00721-00781101151ADDAY121999GF108991021061002501071999KA1999N-00781MD1210211+9999MW1021
0057029700999991956040712004+60117+019900FM-12+000399999V0200201N00821220001CN0500001N9-00111-01221102221ADDAY101999GF103991001001999999001011MD1410001+9999MW1021
0070029700999991956040806004+60117+019900FM-12+000399999V0203601N00511220001CN0500001N9-00501-01001101661ADDAY121999GF108991001001999999011071KA1999N-00781MD1710031+9999MW1021
0057029700999991956040812004+60117+019900FM-12+000399999V0203601N01031220001CN0500001N9-00221-00611101391ADDAY121999GF108991001001999999021999MD1710151+9999MW1031
0070029700999991956040818004+60117+019900FM-12+000399999V0203601N00621220001CN0400001N9-00281-00611101281ADDAY121999GF107991001001999999071999KA1999M-00111MD1410001+9999MW1021
0057029700999991956040900004+60117+019900FM-12+000399999V0203601N00411220001CN0300001N9-00501-00501101111ADDAY121999GF108991001001999999071999MD1710111+9999MW1031
0070029700999991956040906004+60117+019900FM-12+000399999V0203301N00211220001CN0500001N9-00721-00891100951ADDAY101999GF101991001001999999031011KA1999N-00891MD1710121+9999MW1021
0057029700999991956041100004+60117+019900FM-12+000399999V0200901N00621001501CN0020001N9+00001+00001099301ADDAY171999GF108991081061001501999999MD1710151+9999MW1681
0057029700999991956041112004+60117+019900FM-12+000399999V0200201N00411001501CN0030001N9+00111+00111098911ADDAY171999GF108991081061001501999999MD1210081+9999MW1681
0067029700999991956041306004+60117+019900FM-12+000399999V0203401N00721001501CN0025001N9-00221-00281099801ADDAA199002091AY171999GF108991081061001501999999KA1999N-00281MW1731
0029029700999991956041312004+60117+019900FM-12+000399999V0200401N00211001501CN9999999N9+00221+00111999999ADDGF108991081061001501999999
0081029700999991956041318004+60117+019900FM-12+000399999V0200901N00211001501CN0080001N9+00001+00001100441ADDAA199001091AY171999GF108991081061001501999999KA1999M+00221MD1210161+9999MW1681
0057029700999991956041400004+60117+019900FM-12+000399999V0209991C00001001501CN0050001N9+00001+00001100541ADDAY171999GF108991081061001501999999MD1210031+9999MW1711
0057029700999991956041500004+60117+019900FM-12+000399999V0200201N00511004501CN0150001N9-00111-00221100861ADDAY121999GF108991081051004501999999MD1710031+9999MW1021
0057029700999991956041512004+60117+019900FM-12+000399999V0200201N00511004501CN0400001N9+00001-00281100961ADDAY121999GF106991061081004501001001MD1110051+9999MW1011
0070029700999991956041606004+60117+019900FM-12+000399999V0203601N00411000601CN0100001N9-00221-00221101311ADDAY121999GF108991081061000751999999KA1999N-00221MD1210051+9999MW1031
0057029700999991956041612004+60117+019900FM-12+000399999V0203601N00411002401CN0200001N9+00001-00281101521ADDAY121999GF108991071051002501999999MD1210121+9999MW1021
0070029700999991956041618004+60117+019900FM-12+000399999V0200201N00311220001CN0200001N9-00221-00391101691ADDAY121999GF102991021051004501001011KA1999M+00111MD1210091+9999MW1011
0070029700999991956041706004+60117+019900FM-12+000399999V0200401N00101030001CN0100001N9-00501-00501101971ADDAY121999GF107991011051002501031051KA1999N-00611MD1210051+9999MW1011
0049029700999991956041712004+60117+019900FM-12+000399999V0200401N00511075001CN0250001N9+00111-00281101861ADDGF108991021011004501001071MD1710091+9999MW1051
0057029700999991956041800004+60117+019900FM-12+000399999V0200301N00821220001CN0039001N9+00001+00001101181ADDAY171999GF108991001001999999021999MD1710191+9999MW1701
0057029700999991956041812004+60117+019900FM-12+000399999V0203601N00821220001CN0400001N9+00221-00281101541ADDAY101999GF102991001001999999031011MD1210281+9999MW1021
0057029700999991956041900004+60117+019900FM-12+000399999V0200101N00211220001CN0300001N9-00611-00781102311ADDAY101999GF100991001001999999001001MD1310081+9999MW1021
0057029700999991956041912004+60117+019900FM-12+000399999V0202001N00511220001CN0500001N9+00281-00501102221ADDAY101999GF101991011011008001001011MD1710121+9999MW1031
0057029700999991956041918004+60117+019900FM-12+000399999V0202001N00211220001CN0400001N9+00001-00391999999ADDAY101999GF107991001001999999001011MD1710191+9999MW1021
0070029700999991956042006004+60117+019900FM-12+000399999V0200201N00511220001CN0500001N9+00111-00391101681ADDAY101999GF101991001001999999031011KA1999N-00611MD1210041+9999MW1011
0043029700999991956042012004+60117+019900FM-12+000399999V0200201N00721220001CN0500001N9+00391-00281101801ADDAY101999GF101991001001999999001011MW1021
0070029700999991956042018004+60117+019900FM-12+000399999V0200201N00511220001CN0500001N9+00001-00391101991ADDAY101999GF100991001001999999001001KA1999M+00501MD1210111+9999MW1021
0070029700999991956042118004+60117+019900FM-12+000399999V0200201N00411220001CN0400001N9+00001-00501101841ADDAY121999GF106991001001999999041011KA1999M+00281MD1710091+9999MW1031
0057029700999991956042212004+60117+019900FM-12+000399999V0200201N00721220001CN0500001N9+00721-00391101581ADDAY101999GF101991001001999999001011MD1610041+9999MW1021
0057029700999991956042300004+60117+019900FM-12+000399999V0200201N00101220001CN0300001N9+00221-00391101441ADDAY101999GF100991001001999999001001MD1710031+9999MW1021
0057029700999991956042312004+60117+019900FM-12+000399999V0200301N00311220001CN0500001N9+00891-00391101541ADDAY101999GF100991001001999999001001MD1310011+9999MW1021
0070029700999991956042318004+60117+019900FM-12+000399999V0200201N00211220001CN0500001N9+00611-00111101591ADDAY101999GF101991001001999999001011KA1999M+00891MD1310031+9999MW1021
0070029700999991956042406004+60117+019900FM-12+000399999V0200101N00051220001CN0500001N9+00001-00281101711ADDAY101999GF100991001001999999001001KA1999N-00611MD1210041+9999MW1021
0057029700999991956042412004+60117+019900FM-12+000399999V0202201N00311075001CN0500001N9+00611+00001101681ADDAY101999GF105991011011008001001051MD1710041+9999MW1031
0070029700999991956042418004+60117+019900FM-12+000399999V0202101N00101030001CN0500001N9+00281-00221101571ADDAY111999GF105991011041004501031051KA1999M+00721MD1510041+9999MW1831
0057029700999991956042500004+60117+019900FM-12+000399999V0209991C00001220001CN0400001N9-00501-00611101491ADDAY101999GF105991001001999999001051MD1810051+9999MW1021
0070029700999991956042506004+60117+019900FM-12+000399999V0209991C00001220001CN0500001N9+00221-00501101421ADDAY101999GF104991001001999999001041KA1999N-00611MD1610041+9999MW1021
0057029700999991956042512004+60117+019900FM-12+000399999V0201801N00721220001CN0500001N9+00501-00111101401ADDAY101999GF101991011011012501041011MD1810011+9999MW1011
0070029700999991956042518004+60117+019900FM-12+000399999V0200901N00101220001CN0400001N9+00281+00001101361ADDAY101999GF103991021001999999031021KA1999M+00781MD1710041+9999MW1031
0057029700999991956042600004+60117+019900FM-12+000399999V0200201N00101220001CN0200001N9-00221-00281101201ADDAY121999GF107991001001999999031999MD1710151+9999MW1031
0057029700999991956042700004+60117+019900FM-12+000399999V0209991C00001220001CN0300001N9+00111+00111101121ADDAY121999GF108991001001999999071999MD1110031+9999MW1021
0057029700999991956042712004+60117+019900FM-12+000399999V0202001N00101004501CN0150001N9+00611+00391101221ADDAY121999GF108991061051004501071999MD1210051+9999MW1601
0057029700999991956042812004+60117+019900FM-12+000399999V0200501N00211030001CN0250001N9+00781+00111101621ADDAY121999GF106991011051008001031999MD1210041+9999MW1011
0070029700999991956042818004+60117+019900FM-12+000399999V0200201N00211220001CN0300001N9+00281+00001101661ADDAY111999GF104991021051008001001081KA1999M+00781MD1410001+9999MW1031
0070029700999991956042906004+60117+019900FM-12+000399999V0200201N00511220001CN0300001N9+00001-00221101711ADDAY121999GF106991001001999999031999KA1999N-00111MD1110011+9999MW1011
0057029700999991956042912004+60117+019900FM-12+000399999V0200301N00621220001CN0400001N9+00611-00111101721ADDAY101999GF101991001001999999001081MD1710041+9999MW1011
0070029700999991956042918004+60117+019900FM-12+000399999V0200201N00511001501CN0150001N9-00111-00221101681ADDAY121999GF106991061061001501999999KA1999M+00611MD1410001+9999MW1031
0057029700999991956043000004+60117+019900FM-12+000399999V0200201N00511220001CN0300001N9-00111-00221101621ADDAY111999GF100991001001999999001001MD1710051+9999MW1021
0070029700999991956043006004+60117+019900FM-12+000399999V0200301N00511001501CN0150001N9+00001-00111101641ADDAY121999GF106991061061001501999999KA1999N-00221MD1010011+9999MW1011
0057029700999991956043012004+60117+019900FM-12+000399999V0200401N00311220001CN0300001N9+00781+00221101751ADDAY101999GF100991001001999999001001MD1210071+9999MW1021
0057029700999991956050100004+60117+019900FM-12+000399999V0200201N00101220001CN0300001N9-00111-00281101971ADDAY101999GF102991001001999999001011MD1110041+9999MW1021
0057029700999991956050112004+60117+019900FM-12+000399999V0200901N00411220001CN0500001N9+00891-00391102211ADDAY111999GF106991001001999999031011MD1110051+9999MW1011
0070029700999991956050118004+60117+019900FM-12+000399999V0209991C00001220001CN0500001N9+00611-00391102261ADDAY101999GF102991001001999999041081KA1999M+00891MD1310041+9999MW1021
0089029700999991956050206004+60117+019900FM-12+000399999V0200401N00101220001CN0500001N9+00501-00501102381ADDAY111999GF104991999001999999031001KA1999N-00281MD1210031+9999MW1011EQDQ01+000002SCOTLC
0057029700999991956050212004+60117+019900FM-12+000399999V0200401N00511220001CN0500001N9+01001-00611102391ADDAY111999GF104991001001999999081091MD1210031+9999MW1021
0089029700999991956050218004+60117+019900FM-12+000399999V0200601N00101220001CN0400001N9+00781-00391102341ADDAY101999GF101991999001999999041001KA1999M+01111MD1510031+9999MW1021EQDQ01+000002SCOTLC
0057029700999991956050300004+60117+019900FM-12+000399999V0209991C00001220001CN0400001N9-00111-00111102371ADDAY101999GF102991001001999999001031MD1410001+9999MW1021
0070029700999991956050306004+60117+019900FM-12+000399999V0209991C00001220001CN0400001N9+00501+00111102251ADDAY121999GF108991001001999999031999KA1999N-00111MD1710031+9999MW1021
0057029700999991956050312004+60117+019900FM-12+000399999V0202001N00261220001CN0500001N9+01001+00281102161ADDAY111999GF104991021051017501031001MD1810051+9999MW1011
0070029700999991956050318004+60117+019900FM-12+000399999V0202201N00101220001CN0300001N9+00391+00111102051ADDAY101999GF102991001001999999041011KA1999M+01111MD1610051+9999MW1021
0057029700999991956050400004+60117+019900FM-12+000399999V0209991C00001220001CN0300001N9+00111+00001102021ADDAY111999GF104991001001999999001051MD1710041+9999MW1021
0070029700999991956050406004+60117+019900FM-12+000399999V0202401N00101220001CN0200001N9+00611+00391102011ADDAY121999GF107991001001999999001061KA1999N+00001MD1010011+9999MW1021
0070029700999991956050418004+60117+019900FM-12+000399999V0201601N00211030001CN0250001N9+00611+00281101841ADDAY101999GF105991041051008001031081KA1999M+01111MD1710091+9999MW1031
0057029700999991956050500004+60117+019900FM-12+000399999V0203601N00621007801CN0150001N9+00281+00221102091ADDAY121999GF108991071051008001999999MD1210161+9999MW1031
0057029700999991956050512004+60117+019900FM-12+000399999V0202701N00511220001CN0500001N9+01221-00111102371ADDAY121999GF107991001001999999091021MD1410001+9999MW1021
0070029700999991956050518004+60117+019900FM-12+000399999V0202001N00511220001CN0500001N9+00611+00281102111ADDAY121999GF108991001001999999071999KA1999M+01281MD1810161+9999MW1031
0070029700999991956050606004+60117+019900FM-12+000399999V0202701N00211220001CN0500001N9+00781+00221101681ADDAY121999GF108991001001999999071081KA1999N+00111MD1810071+9999MW1021
0057029700999991956050612004+60117+019900FM-12+000399999V0202601N00411030001CN0300001N9+01111+00281101541ADDAY121999GF108991031051004501071999MD1610071+9999MW1601
0081029700999991956050618004+60117+019900FM-12+000399999V0201401N00101220001CN0300001N9+00891+00721101391ADDAA199002091AY111999GF103991031041008001041001KA1999M+01221MD1410001+9999MW1011
0057029700999991956050700004+60117+019900FM-12+000399999V0209991C00001220001CN0015001N9+00111+00111101341ADDAY101999GF102991001001999999001011MD1810071+9999MW1101
0070029700999991956050706004+60117+019900FM-12+000399999V0202101N00311220001CN0150001N9+00501+00391100911ADDAY121999GF108991001001999999011999KA1999N-00111MD1710211+9999MW1031
0057029700999991956050712004+60117+019900FM-12+000399999V0202001N00211007801CN0100001N9+00781+00501100411ADDAY161999GF108991071051008001999999MD1710251+9999MW1611
0081029700999991956050718004+60117+019900FM-12+000399999V0209991C00001004501CN0030001N9+00611+00611100061ADDAA199001091AY161999GF108991061071004501021999KA1999M+00781MD1710191+9999MW1011
0057029700999991956050800004+60117+019900FM-12+000399999V0203401N00621001501CN0030001N9+00221+00221999999ADDAY121999GF108991081061001501999999MD1210031+9999MW1581
0081029700999991956050806004+60117+019900FM-12+000399999V0203401N00511004501CN0400001N9+00391+00221100291ADDAA199000691AY121999GF107991071051004501999999KA1999N+00221MD1210171+9999MW1031
0076029700999991956050900004+60117+019900FM-12+000399999V0209991C00001220001CN0400001N9-00111-00111100821ADDAY101999GF102991999001999999031001MD1710011+9999MW1021EQDQ01+000002SCOTLC
0057029700999991956050912004+60117+019900FM-12+000399999V0200201N00411220001CN0500001N9+01281+00001100941ADDAY111999GF104991011011008001041021MD1210151+9999MW1011
0070029700999991956050918004+60117+019900FM-12+000399999V0203501N00311220001CN0500001N9+00781+00281101151ADDAY101999GF100991001001999999001001KA1999M+01391MD1210051+9999MW1011
0070029700999991956051006004+60117+019900FM-12+000399999V0203601N00211220001CN0500001N9+00721+00221101111ADDAY101999GF100991001001999999001001KA1999N-00111MD1710081+9999MW1021
0057029700999991956051012004+60117+019900FM-12+000399999V0201601N00411220001CN0500001N9+01391+00391100981ADDAY101999GF101991011021008001001081MD1710051+9999MW1021
0076029700999991956051100004+60117+019900FM-12+000399999V0203601N00311220001CN0300001N9+00111-00111101081ADDAY101999GF101991999001999999041001MD1210051+9999MW1021EQDQ01+000002SCOTLC
0057029700999991956051112004+60117+019900FM-12+000399999V0203301N00411220001CN0500001N9+01501+00391101481ADDAY101999GF100991001001999999001001MD1210071+9999MW1021
0070029700999991956051118004+60117+019900FM-12+000399999V0202401N00151220001CN0500001N9+01001+00391101481ADDAY101999GF100991001001999999001001KA1999M+01611MD1410001+9999MW1021
0070029700999991956051206004+60117+019900FM-12+000399999V0201801N00211220001CN0500001N9+00781+00391101281ADDAY101999GF100991001001999999001001KA1999N+00221MD1710081+9999MW1021
0057029700999991956051212004+60117+019900FM-12+000399999V0201801N00621220001CN0400001N9+01111+00391101221ADDAY101999GF101991001001999999001011MD1810051+9999MW1021
0070029700999991956051218004+60117+019900FM-12+000399999V0201701N00621220001CN0300001N9+00721+00611101241ADDAY101999GF104991001001999999041051KA1999M+01221MD1510011+9999MW1031
0057029700999991956051300004+60117+019900FM-12+000399999V0201601N00311030001CN0200001N9+00391-00221101321ADDAY121999GF108991031051008001071999MD1110051+9999MW1031
0057029700999991956051312004+60117+019900FM-12+000399999V0202101N00411220001CN0300001N9+01281+00891101591ADDAY101999GF102991011021004501041081MD1210071+9999MW1011
0070029700999991956051318004+60117+019900FM-12+000399999V0203401N00211220001CN0400001N9+01221+00611101661ADDAY101999GF101991001001999999061081KA1999M+01281MD1210031+9999MW1021
0070029700999991956051406004+60117+019900FM-12+000399999V0201801N00311220001CN0500001N9+00891+00501101521ADDAY111999GF105991001001999999001051KA1999N-00111MD1710081+9999MW1031
0081029700999991956051418004+60117+019900FM-12+000399999V0202201N00511030001CN0150001N9+00781+00611100891ADDAA199000591AY161999GF108991041051004501021999KA1999M+01221MD1610161+9999MW1601
0057029700999991956051500004+60117+019900FM-12+000399999V0202501N00411220001CN0300001N9+00781+00391100691ADDAY121999GF105991001001999999041999MD1710121+9999MW1011
0081029700999991956051506004+60117+019900FM-12+000399999V0203001N00821220001CN0500001N9+00891+00221100801ADDAA199000591AY101999GF100991001001999999001001KA1999N+00501MD1210091+9999MW1021
0057029700999991956051512004+60117+019900FM-12+000399999V0203401N00511220001CN0500001N9+01281+00221101191ADDAY101999GF101991011011008001061001MD1110171+9999MW1021
0070029700999991956051518004+60117+019900FM-12+000399999V0201801N00101220001CN0500001N9+00891+00221101261ADDAY101999GF102991011041012501061011KA1999M+01391MD1210031+9999MW1011
0057029700999991956051600004+60117+019900FM-12+000399999V0202101N00101220001CN0450001N9+00501+00281101061ADDAY101999GF105991001001999999001051MD1710151+9999MW1021
0070029700999991956051606004+60117+019900FM-12+000399999V0202101N00511220001CN0500001N9+00781+00501100711ADDAY111999GF103991001001999999041081KA1999N+00281MD1710151+9999MW1011
0057029700999991956051712004+60117+019900FM-12+000399999V0202101N00621004501CN0500001N9+00891+00281100081ADDAY111999GF106991061051004501001011MD1210041+9999MW1141
0070029700999991956051718004+60117+019900FM-12+000399999V0202001N00411220001CN0500001N9+00781+00281100041ADDAY101999GF102991021041008001031001KA1999M+01111MD1710011+9999MW1141
0070029700999991956051806004+60117+019900FM-12+000399999V0202301N00511220001CN0500001N9+00611+00221100011ADDAY101999GF102991011051008001031011KA1999N+00391MD1510031+9999MW1011
0081029700999991956051818004+60117+019900FM-12+000399999V0202201N00211004501CN0150001N9+00501+00391100121ADDAA199000691AY181999GF107991061031004501999999KA1999M+00891MD1010011+9999MW1801
0057029700999991956051900004+60117+019900FM-12+000399999V0202201N00101220001CN0400001N9+00281+00221100091ADDAY111999GF103991031051008001001001MD1610011+9999MW1021
0081029700999991956051906004+60117+019900FM-12+000399999V0202501N00311220001CN0500001N9+00611+00391100121ADDAA199000691AY101999GF102991011051002501041001KA1999N+00111MD1010031+9999MW1011
0057029700999991956051912004+60117+019900FM-12+000399999V0202201N00411075001CN0400001N9+00891+00501100241ADDAY111999GF105991031091004501001031MD1210081+9999MW1171
0070029700999991956051918004+60117+019900FM-12+000399999V0202101N00211030001CN0500001N9+00781+00391100321ADDAY121999GF106991011021004501031021KA1999M+01111MD1110051+9999MW1021
0076029700999991956052000004+60117+019900FM-12+000399999V0209991C00001220001CN0004001N9+00001+00001100391ADDAY141999GF102991999001022501041001MD1210031+9999MW1121EQDQ01+000002SCOTLC
0089029700999991956052006004+60117+019900FM-12+000399999V0200201N00311220001CN0500001N9+00781+00281100491ADDAY101999GF101991999001999999041001KA1999N-00221MD1210051+9999MW1011EQDQ01+000002SCOTLC
0057029700999991956052012004+60117+019900FM-12+000399999V0203201N00511220001CN0500001N9+01221+00281100771ADDAY111999GF103991031091004501001011MD1210161+9999MW1021
0057029700999991956052100004+60117+019900FM-12+000399999V0209991C00001220001CN0400001N9+00281+00281101121ADDAY121999GF104991001001999999031011MD1210051+9999MW1011
0057029700999991956052112004+60117+019900FM-12+000399999V0200401N00311030001CN0500001N9+00891+00281101591ADDAY121999GF108991021051012501071999MD1110161+9999MW1021
0081029700999991956052118004+60117+019900FM-12+000399999V0203401N00211030001CN0500001N9+00781+00221101691ADDAA199000691AY121999GF107991041051008001041999KA1999M+01111MD1210071+9999MW1021
0070029700999991956052206004+60117+019900FM-12+000399999V0209991C00001220001CN0500001N9+00781-00111102051ADDAY101999GF101991001001999999031011KA1999N-00221MD1210091+9999MW1011
0057029700999991956052212004+60117+019900FM-12+000399999V0202201N00511220001CN0500001N9+01111-00221102141ADDAY101999GF101991011011012501041001MD1110031+9999MW1021
0070029700999991956052218004+60117+019900FM-12+000399999V0202201N00311220001CN0500001N9+00781+00221102121ADDAY101999GF101991001001999999001081KA1999M+01221MD1610011+9999MW1021
0076029700999991956052300004+60117+019900FM-12+000399999V0202301N00101220001CN0300001N9+00501+00281102141ADDAY101999GF102991999001022501041001MD1210011+9999MW1021EQDQ01+000002SCOTLC
0070029700999991956052306004+60117+019900FM-12+000399999V0202001N00211220001CN0500001N9+01001+00611102221ADDAY101999GF101991011011008001041011KA1999N+00221MD1210071+9999MW1011
0057029700999991956052312004+60117+019900FM-12+000399999V0202001N00511220001CN0500001N9+01391+00611102251ADDAY101999GF101991011011008001061011MD1410001+9999MW1021
0070029700999991956052318004+60117+019900FM-12+000399999V0201301N00211220001CN0400001N9+01001+00721102201ADDAY101999GF101991001001999999031011KA1999M+01391MD1810011+9999MW1021
0089029700999991956052406004+60117+019900FM-12+000399999V0202001N00101220001CN0500001N9+01221+00781102141ADDAY101999GF102991999001999999031001KA1999N+00111MD1710011+9999MW1021EQDQ01+000002SCOTLC
0070029700999991956052418004+60117+019900FM-12+000399999V0202001N00511220001CN0400001N9+01111+00281101951ADDAY101999GF102991001001999999041081KA1999M+01501MD1510041+9999MW1011
0057029700999991956052500004+60117+019900FM-12+000399999V0209991C00001220001CN0400001N9+00611+00281101971ADDAY101999GF101991001001999999001011MD1710031+9999MW1021
0070029700999991956052606004+60117+019900FM-12+000399999V0202301N00311220001CN0400001N9+01221+00501101611ADDAY121999GF106991001001999999041021KA1999N+00781MD1110011+9999MW1031
0057029700999991956052612004+60117+019900FM-12+000399999V0200401N00721220001CN0500001N9+01221+00721101641ADDAY121999GF106991001001999999041081MD1010011+9999MW1021
0081029700999991956052618004+60117+019900FM-12+000399999V0203601N00511002401CN0200001N9+00611+00501101601ADDAA199001091AY161999GF107991061071002501021999KA1999M+01501MD1810051+9999MW1611
0057029700999991956052700004+60117+019900FM-12+000399999V0202701N00211220001CN0030001N9+00501+00501101571ADDAY111999GF104991031061001501031011MD1710071+9999MW1111
0081029700999991956052706004+60117+019900FM-12+000399999V0202901N00411030001CN0300001N9+00781+00721101181ADDAA199000591AY121999GF108991041071002501021999KA1999N+00111MD1710231+9999MW1021
0057029700999991956052712004+60117+019900FM-12+000399999V0203401N00821220001CN0500001N9+01281+00611101211ADDAY101999GF103991031011008001031001MD1310031+9999MW1021
0081029700999991956052718004+60117+019900FM-12+000399999V0203401N00511220001CN0500001N9+01281+00501101351ADDAA199000691AY101999GF101991011011008001001011KA1999M+01391MD1310071+9999MW1011
0057029700999991956052800004+60117+019900FM-12+000399999V0200201N00101220001CN0500001N9+00391+00281101691ADDAY101999GF100991001001999999001001MD1110111+9999MW1021
0070029700999991956052806004+60117+019900FM-12+000399999V0209991C00001220001CN0500001N9+01111+00391101911ADDAY101999GF101991001001999999031011KA1999N+00111MD1210111+9999MW1031
0076029700999991956052900004+60117+019900FM-12+000399999V0209991C00001220001CN0200001N9+00391+00391101441ADDAY101999GF102991999001999999041001MD1710151+9999MW1031EQDQ01+000002SCOTLC
0057029700999991956052912004+60117+019900FM-12+000399999V0202001N00511220001CN0400001N9+01391+00891101041ADDAY111999GF104991001001999999031091MD1610031+9999MW1031
0081029700999991956052918004+60117+019900FM-12+000399999V0200401N00311220001CN0500001N9+01111+00721101251ADDAA199000691AY111999GF102991011021012501031001KA1999M+01721MD1110121+9999MW1011
0089029700999991956053006004+60117+019900FM-12+000399999V0202101N00211220001CN0500001N9+01221+00611101461ADDAY111999GF102991999001999999041001KA1999N+00111MD1310051+9999MW1011EQDQ01+000002SCOTLC
0076029700999991956053012004+60117+019900FM-12+000399999V0200201N00771220001CN0500001N9+01391+00221101891ADDAY101999GF101991999001999999041001MD1210351+9999MW1181EQDQ01+000002SCOTLC
0070029700999991956053018004+60117+019900FM-12+000399999V0200301N00211220001CN0500001N9+01221+00001102091ADDAY101999GF101991001001999999001021KA1999M+01611MD1110051+9999MW1021
0057029700999991956053100004+60117+019900FM-12+000399999V0209991C00001220001CN0300001N9+00501+00281102291ADDAY101999GF100991001001999999001001MD1110031+9999MW1021
0070029700999991956053106004+60117+019900FM-12+000399999V0202001N00211220001CN0500001N9+01221+00001102241ADDAY101999GF101991001001999999001011KA1999N-00111MD1810051+9999MW1021
0057029700999991956053112004+60117+019900FM-12+000399999V0201801N00821220001CN0500001N9+01281+00391101951ADDAY101999GF103991001001999999001011MD1710211+9999MW1031
0070029700999991956053118004+60117+019900FM-12+000399999V0202001N00931220001CN0500001N9+01001+00281101521ADDAY121999GF105991001001999999041061KA1999M+01281MD1710241+9999MW1011
0057029700999991956060100004+60117+019900FM-12+000399999V0202001N00511220001CN0300001N9+00781+00501101141ADDAY121999GF103991001001999999041011MD1710161+9999MW1011
0070029700999991956060106004+60117+019900FM-12+000399999V0202001N00511220001CN0500001N9+01111+00501100811ADDAY121999GF108991001001999999041071KA1999N+00781MD1710161+9999MW1011
0057029700999991956060112004+60117+019900FM-12+000399999V0202001N00821220001CN0500001N9+01611+00611100561ADDAY111999GF106991001001999999051061MD1310201+9999MW1031
0067029700999991956060118004+60117+019900FM-12+000399999V0202201N00211030001CN0100001N9+00891+99999100201ADDAA199005091AY161999GF107991021071002501021999KA1999M+01781MW1611
0057029700999991956060200004+60117+019900FM-12+000399999V0209991C00001030001CN0200001N9+00891+00721100321ADDAY191999GF106991021051008001071001MD1110091+9999MW1021
0070029700999991956060318004+60117+019900FM-12+000399999V0202201N00511030001CN0350001N9+01221+00781100621ADDAY121999GF106991031011008001041051KA1999M+01501MD1510091+9999MW1031
0070029700999991956060406004+60117+019900FM-12+000399999V0202501N00621220001CN0500001N9+01111+00611100771ADDAY101999GF103991001001999999001011KA1999N+00781MD1210111+9999MW1031
0057029700999991956060412004+60117+019900FM-12+000399999V0202101N00621220001CN0500001N9+01281+00721101001ADDAY111999GF104991011011008001001011MD1210081+9999MW1011
0070029700999991956060418004+60117+019900FM-12+000399999V0202001N00311220001CN0500001N9+01001+00611100941ADDAY121999GF107991001001999999031061KA1999M+01501MD1810041+9999MW1021
0057029700999991956060500004+60117+019900FM-12+000399999V0202101N00621220001CN0400001N9+00891+00781100811ADDAY111999GF105991001001999999001061MD1710081+9999MW1031
0070029700999991956060506004+60117+019900FM-12+000399999V0201401N00721220001CN0300001N9+01001+00721100461ADDAY121999GF108991001001999999021999KA1999N+00781MD1710171+9999MW1601
0057029700999991956060512004+60117+019900FM-12+000399999V0202001N00771030001CN0060001N9+01111+00721100181ADDAY121999GF108991011071002501071999MD1710071+9999MW1021
0043029700999991956060600004+60117+019900FM-12+000399999V0202101N00621220001CN0200001N9+00781+00611100651ADDAY101999GF100991001001999999001001MW1021
0057029700999991956060612004+60117+019900FM-12+000399999V0202101N00931220001CN0400001N9+01221+00721101181ADDAY111999GF102991021011008001001001MD1210151+9999MW1031
0070029700999991956060618004+60117+019900FM-12+000399999V0202101N00721220001CN0300001N9+01111+00721101311ADDAY101999GF101991001001999999001081KA1999M+01391MD1210051+9999MW1031
0057029700999991956060706004+60117+019900FM-12+000399999V0201301N00211220001CN0200001N9+01111+00781101721ADDAY121999GF108991001001999999041071MD1210071+9999MW1031
0057029700999991956060712004+60117+019900FM-12+000399999V0201101N00411004501CN0100001N9+01111+01001101691ADDAY161999GF108991061071004501021999MD1810071+9999MW1601
0081029700999991956060718004+60117+019900FM-12+000399999V0200901N00211000601CN0030001N9+01221+01221101551ADDAA199006091AY121999GF108991081061000751999999KA1999M+01281MD1610051+9999MW1021
0070029700999991956060806004+60117+019900FM-12+000399999V0201401N00211000151CN0003001N9+01221+01221101591ADDAY141999GF108991081061000251999999KA1999N+01111MD1510011+9999MW1431
0057029700999991956060812004+60117+019900FM-12+000399999V0201101N00411220001CN0200001N9+02111+01611101571ADDAY191999GF104991021011008001081081MD1810031+9999MW1251
0081029700999991956060818004+60117+019900FM-12+000399999V0201401N00621220001CN0200001N9+01891+01221101551ADDAA199001091AY101999GF101991001001999999001021KA1999M+02281MD1210031+9999MW1051
0070029700999991956060906004+60117+019900FM-12+000399999V0202001N00261220001CN0300001N9+01721+01281101851ADDAY101999GF102991001001999999001011KA1999N+01221MD1310091+9999MW1021
0070029700999991956060918004+60117+019900FM-12+000399999V0200301N00101220001CN0350001N9+01001+00391102291ADDAY101999GF100991001001999999001001KA1999M+02281MD1210091+9999MW1021
0076029700999991956061000004+60117+019900FM-12+000399999V0200201N00101220001CN0150001N9+00891+00781102511ADDAY101999GF101991999001999999041001MD1210071+9999MW1021EQDQ01+000002SCOTLC
0057029700999991956061012004+60117+019900FM-12+000399999V0201101N00311220001CN0300001N9+02611+01501102641ADDAY101999GF100991001001999999001001MD1210031+9999MW1051
0070029700999991956061018004+60117+019900FM-12+000399999V0200901N00311075001CN0300001N9+02281+01391102641ADDAY111999GF106991011021012501041061KA1999M+02721MD1610011+9999MW1031
0043029700999991956061106004+60117+019900FM-12+000399999V0201001N00311220001CN0500001N9+01781+99999102551ADDAY111999GF104991001001999999001011MW1011
0057029700999991956061112004+60117+019900FM-12+000399999V0201401N00621220001CN0400001N9+01501+01111102551ADDAY111999GF104991031021012501081001MD1510011+9999MW1031
0081029700999991956061118004+60117+019900FM-12+000399999V0202101N00311007801CN0060001N9+01281+01221102341ADDAA199002091AY191999GF107991071031008001999999KA1999M+02111MD1610051+9999MW1951
0057029700999991956061200004+60117+019900FM-12+000399999V0201701N00211002401CN0100001N9+01221+01221102291ADDAY121999GF108991081061002501999999MD1310031+9999MW1021
0081029700999991956061206004+60117+019900FM-12+000399999V0202001N00411001501CN0150001N9+01391+01221102161ADDAA199005091AY111999GF107991071061001501999999KA1999N+01111MD1410001+9999MW1031
0057029700999991956061212004+60117+019900FM-12+000399999V0201401N00511075001CN0200001N9+01891+01391102061ADDAY111999GF105991021021008001001051MD1710111+9999MW1051
0073029700999991956061218004+60117+019900FM-12+000399999V0200901N00311030001CN0150001N9+01611+01281101711ADDAA199000391GF108991021071004501071999KA1999M+02001MD1710211+9999MW1611
0057029700999991956061300004+60117+019900FM-12+000399999V0200701N00311004501CN0030001N9+01391+01391101181ADDAY161999GF108991071071004501999999MD1710311+9999MW1631
0081029700999991956061306004+60117+019900FM-12+000399999V0201601N00721000601CN0015001N9+01281+01281100861ADDAA199008091AY141999GF108991081061000751999999KA1999N+01221MD1210071+9999MW1101
0070029700999991956061318004+60117+019900FM-12+000399999V0201701N00821001501CN0015001N9+01111+01001101061ADDAY121999GF108991081061001501999999KA1999M+01391MD1610031+9999MW1101
0057029700999991956061400004+60117+019900FM-12+000399999V0202001N00821030001CN0020001N9+01001+01001101171ADDAY121999GF105991021061001501071999MD1210041+9999MW1101
0057029700999991956061412004+60117+019900FM-12+000399999V0202001N008719999999N0100001N9+01391+01001101551ADDAY101999GF199999011011012501031001MD1310051+9999MW1051
0070029700999991956061418004+60117+019900FM-12+000399999V0202201N00211220001CN0150001N9+01111+00891101621ADDAY101999GF101991011011008001041001KA1999M+01501MD1310071+9999MW1051
0056029700999991956061506004+60117+019900FM-12+000399999V0202101N00211220001CN0500001N9+01221+99999102041ADDAY121999GF108991001001999999011999KA1999N+00611MW1031
0057029700999991956061512004+60117+019900FM-12+000399999V0201801N00621220001CN0500001N9+01221+00781102151ADDAY121999GF107991001001999999041071MD1110011+9999MW1011
0070029700999991956061518004+60117+019900FM-12+000399999V0201501N00101021001CN0500001N9+01221+00891101941ADDAY121999GF108991081001022501071999KA1999M+01501MD1810121+9999MW1021
0057029700999991956061600004+60117+019900FM-12+000399999V0201801N00311007801CN0300001N9+01111+00781101541ADDAY121999GF108991071051008001999999MD1710291+9999MW1021
0076029700999991956061612004+60117+019900FM-12+000399999V0201601N00211000601CN0018001N9+01501+01391100461ADDAY141999GF108991081071000751999999MD1610852+9999MW1281EQDQ01+000852APC3  
0081029700999991956061618004+60117+019900FM-12+000399999V0202101N00101000601CN0007001N9+00891+00891100521ADDAA199002091AY141999GF108991081071000751999999KA1999M+01501MD1210021+9999MW1451
0081029700999991956061706004+60117+019900FM-12+000399999V0202001N00721220001CN0500001N9+01001+00721101181ADDAA199000591AY101999GF101991011061001501001001KA1999N+00721MD1210151+9999MW1021
0057029700999991956061712004+60117+019900FM-12+000399999V0202001N00821220001CN0500001N9+01221+00891101461ADDAY101999GF102991021011004501001011MD1210131+9999MW1021
0057029700999991956061800004+60117+019900FM-12+000399999V0202101N00721004501CN0200001N9+00891+00891101761ADDAY101999GF108991071051004501999999MD1210091+9999MW1031
0057029700999991956061812004+60117+019900FM-12+000399999V0202001N00821220001CN0500001N9+01391+00891101851ADDAY101999GF101991001001999999001011MD1610031+9999MW1011
0070029700999991956061818004+60117+019900FM-12+000399999V0201801N00721220001CN0500001N9+01281+01111101761ADDAY111999GF106991001001999999041081KA1999M+01391MD1710091+9999MW1031
0070029700999991956061906004+60117+019900FM-12+000399999V0201801N00311030001CN0400001N9+01281+01001101441ADDAY121999GF107991031011012501031999KA1999N+01111MD1710111+9999MW1031
0057029700999991956061912004+60117+019900FM-12+000399999V0202101N00621220001CN0500001N9+01721+01111101281ADDAY121999GF106991001001999999031081MD1610131+9999MW1021
0070029700999991956061918004+60117+019900FM-12+000399999V0202001N00721220001CN0400001N9+01221+01221101021ADDAY121999GF106991001001999999031011KA1999M+01721MD1710051+9999MW1021
0057029700999991956062000004+60117+019900FM-12+000399999V0201601N00211220001CN0100001N9+01111+01111100891ADDAY121999GF107991001001999999051999MD1710101+9999MW1111
0081029700999991956062006004+60117+019900FM-12+000399999V0202101N00311220001CN0150001N9+01221+01001100681ADDAA199000391AY121999GF108991001001999999071999KA1999N+00891MD1610081+9999MW1051
0078029700999991956062012004+60117+019900FM-12+000399999V0202001N00411220001CN0080001N9+01501+01221100711ADDAY111999GF103991021011008001001041MW1051EQDQ01+000062APCTENQ02+000002APC3  
0070029700999991956062018004+60117+019900FM-12+000399999V0202001N00511220001CN0100001N9+01281+01111100741ADDAY101999GF102991011051002501001011KA1999M+01611MD1210011+9999MW1051
0057029700999991956062200004+60117+019900FM-12+000399999V0203601N00511007801CN0200001N9+01001+00721101591ADDAY121999GF107991071051008001999999MD1210081+9999MW1021
0057029700999991956062212004+60117+019900FM-12+000399999V0203601N00721220001CN0500001N9+01501+00781102051ADDAY121999GF106991001001999999031061MD1210091+9999MW1021
0070029700999991956062306004+60117+019900FM-12+000399999V0200201N00621220001CN0500001N9+01391+00781102091ADDAY111999GF102991001001999999041011KA1999N+01391MD1710051+9999MW1011
0057029700999991956062312004+60117+019900FM-12+000399999V0200301N00721220001CN0500001N9+01891+00721101991ADDAY111999GF103991001001999999001011MD1710091+9999MW1021
0070029700999991956062318004+60117+019900FM-12+000399999V0200201N00621220001CN0500001N9+01501+00721101711ADDAY101999GF101991001001999999041011KA1999M+01891MD1710161+9999MW1031
0076029700999991956062400004+60117+019900FM-12+000399999V0203601N00311220001CN0500001N9+00721+00501101571ADDAY101999GF101991999001999999031001MD1710121+9999MW1021EQDQ01+000002SCOTLC
0070029700999991956062406004+60117+019900FM-12+000399999V0203601N00621220001CN0500001N9+01501+00611101321ADDAY111999GF104991001001999999001011KA1999N+00721MD1710241+9999MW1021
0057029700999991956062412004+60117+019900FM-12+000399999V0200201N00511220001CN0500001N9+01721+01001101221ADDAY101999GF103991001001999999001091MD1710051+9999MW1031
0070029700999991956062418004+60117+019900FM-12+000399999V0203601N00721220001CN0500001N9+01501+00501101001ADDAY101999GF102991001001999999041021KA1999M+01891MD1710131+9999MW1021
0057029700999991956062500004+60117+019900FM-12+000399999V0203601N00411220001CN0400001N9+00891+00611100891ADDAY111999GF103991011051008001041011MD1710041+9999MW1031
0070029700999991956062506004+60117+019900FM-12+000399999V0200101N00511030001CN0500001N9+01221+00721100711ADDAY121999GF106991011011008001041011KA1999N+00781MD1510041+9999MW1031
0057029700999991956062600004+60117+019900FM-12+000399999V0209991C00001030001CN0200001N9+00721+00501100461ADDAY121999GF107991041051004501071999MD1710071+9999MW1031
0057029700999991956062612004+60117+019900FM-12+000399999V0202701N004119999999N0200001N9+01111+01001100321ADDAY121999GF108991041061001501999999MD1710081+9999MW1021
0070029700999991956062706004+60117+019900FM-12+000399999V0202801N00101001501CN0400001N9+01111+00891100441ADDAY121999GF108991051061001501999999KA1999N+00891MD1710011+9999MW1021
0057029700999991956062712004+60117+019900FM-12+000399999V0202101N00511220001CN0500001N9+01391+00891100401ADDAY101999GF103991021021008001061001MD1610051+9999MW1011
0070029700999991956062718004+60117+019900FM-12+000399999V0202101N00311030001CN0500001N9+01221+00891100341ADDAY121999GF107991021041004501031001KA1999M+01501MD1710071+9999MW1021
0081029700999991956062806004+60117+019900FM-12+000399999V0201601N00211030001CN0300001N9+01391+00781099801ADDAA199000691AY121999GF107991021021004501041999KA1999N+00781MD1710121+9999MW1031
0057029700999991956062812004+60117+019900FM-12+000399999V0202001N00511030001CN0400001N9+01501+01111099761ADDAY121999GF106991041021004501081001MD1710031+9999MW1011
0070029700999991956062818004+60117+019900FM-12+000399999V0202001N007219999999N0400001N9+01221+00891099761ADDAY121999GF107991061091999999031999KA1999M+01501MD1610011+9999MW1021
0057029700999991956062900004+60117+019900FM-12+000399999V0202201N00311030001CN0300001N9+01221+01001099721ADDAY121999GF108991021041004501041999MD1710041+9999MW1021
0070029700999991956062906004+60117+019900FM-12+000399999V0202101N00511004501CN0500001N9+01221+01001099751ADDAY121999GF107991061051004501031999KA1999N+01111MD1210041+9999MW1021
0057029700999991956062912004+60117+019900FM-12+000399999V0202101N00821220001CN0500001N9+01391+01001099881ADDAY101999GF102991021021004501001001MD1210041+9999MW1021
0057029700999991956063000004+60117+019900FM-12+000399999V0202001N00821012301CN0400001N9+01111+01001100081ADDAY121999GF106991061051012501001001MD1710071+9999MW1021
0057029700999991956063012004+60117+019900FM-12+000399999V0202201N00461030001CN0500001N9+01611+01111100481ADDAY111999GF105991041031004501061021MD1210131+9999MW1141
0081029700999991956063018004+60117+019900FM-12+000399999V0203601N00311220001CN0400001N9+01281+01001100711ADDAA199000391AY111999GF104991021031004501001031KA1999M+01611MD1110111+9999MW1011
0070029700999991956070106004+60117+019900FM-12+000399999V0203301N00621220001CN0500001N9+01281+00781101051ADDAY101999GF101991001001999999001081KA1999N+00391MD1210111+9999MW1021
0057029700999991956070112004+60117+019900FM-12+000399999V0203401N006219999999N0500001N9+01611+00721101261ADDAY101999GF199999021041002501081999MD1210111+9999MW1011
0070029700999991956070118004+60117+019900FM-12+000399999V0203401N00511220001CN0500001N9+01611+00611101361ADDAY101999GF101991011021008001001001KA1999M+01721MD1210071+9999MW1021
0057029700999991956070200004+60117+019900FM-12+000399999V0209991C00001021001CN0400001N9+00611+00611101511ADDAY111999GF105991051001022501081001MD1210041+9999MW1031
0070029700999991956070206004+60117+019900FM-12+000399999V0201701N00101220001CN0500001N9+01781+00781101621ADDAY101999GF100991001001999999001001KA1999N+00391MD1210071+9999MW1021
0057029700999991956070212004+60117+019900FM-12+000399999V0202101N00511220001CN0500001N9+02001+00781101811ADDAY101999GF101991001001999999001011MD1210081+9999MW1021
0057029700999991956070300004+60117+019900FM-12+000399999V0209991C00001220001CN0500001N9+00281+00281102011ADDAY101999GF100991001001999999001001MD1210071+9999MW1021
0070029700999991956070306004+60117+019900FM-12+000399999V0200101N00101220001CN0500001N9+01781+00721102061ADDAY101999GF100991001001999999001001KA1999N+00281MD1210031+9999MW1021
0057029700999991956070312004+60117+019900FM-12+000399999V0202001N00311220001CN0500001N9+02221+99999102091ADDAY101999GF101991011011008001001001MD1810011+9999MW1021
0057029700999991956070400004+60117+019900FM-12+000399999V0209991C00001220001CN0500001N9+00611+00501102111ADDAY101999GF100991001001999999001001MD1210011+9999MW1021
0070029700999991956070418004+60117+019900FM-12+000399999V0201401N00411220001CN0400001N9+02001+01281101861ADDAY101999GF100991001001999999001001KA1999M+02281MD1710161+9999MW1051
0057029700999991956070500004+60117+019900FM-12+000399999V0200901N00211220001CN0400001N9+01221+01111101781ADDAY101999GF101991001001999999001011MD1810091+9999MW1031
0057029700999991956070512004+60117+019900FM-12+000399999V0201801N00511000151CN0010001N9+01611+01501101491ADDAY121999GF108991081061000251999999MD1710041+9999MW1401
0081029700999991956070518004+60117+019900FM-12+000399999V0201801N00511030001CN0100001N9+01501+01391101171ADDAA199002091AY121999GF107991011071001501071999KA1999M+02111MD1610161+9999MW1011
0057029700999991956070600004+60117+019900FM-12+000399999V0201501N00621004501CN0100001N9+01391+01281100791ADDAY121999GF108991081061004501999999MD1710211+9999MW1021
0081029700999991956070606004+60117+019900FM-12+000399999V0201501N00821001501CN0050001N9+01501+01391100221ADDAA199003091AY121999GF108991081071001501999999KA1999N+01391MD1710231+9999MW1601
0057029700999991956070612004+60117+019900FM-12+000399999V0201401N00511001501CN0030001N9+01501+01391099851ADDAY161999GF108991081071001501999999MD1710171+9999MW1631
0081029700999991956070618004+60117+019900FM-12+000399999V0201801N00311000151CN0008001N9+01391+01391099651ADDAA199022091AY141999GF108991081071000251999999KA1999M+01501MD1610071+9999MW1471
0057029700999991956070700004+60117+019900FM-12+000399999V0201701N00211000601CN0040001N9+01281+01221099711ADDAY121999GF108991081061000751999999MD1310041+9999MW1021
0081029700999991956070706004+60117+019900FM-12+000399999V0200901N00211001501CN0100001N9+01391+01281099891ADDAA199000391AY121999GF108991081061001501999999KA1999N+01111MD1210131+9999MW1021
0057029700999991956070712004+60117+019900FM-12+000399999V0201601N00411004501CN0300001N9+01781+01391100191ADDAY121999GF106991061081004501001011MD1110121+9999MW1051
0070029700999991956070718004+60117+019900FM-12+000399999V0209991C00001075001CN0300001N9+01611+01391100411ADDAY121999GF107991041051004501001081KA1999M+01891MD1210091+9999MW1051
0057029700999991956070800004+60117+019900FM-12+000399999V0203301N00311030001CN0070001N9+01391+01391100561ADDAY161999GF108991031071004501071999MD1210011+9999MW1631
0057029700999991956070812004+60117+019900FM-12+000399999V0203601N00411220001CN0500001N9+02221+01221100981ADDAY101999GF102991011021008001001011MD1210201+9999MW1021
0089029700999991956070818004+60117+019900FM-12+000399999V0203201N00411220001CN0400001N9+01611+01281101261ADDAY101999GF101991999001999999031001KA1999M+02221MD1110171+9999MW1021EQDQ01+000002SCOTLC
0057029700999991956070900004+60117+019900FM-12+000399999V0203601N00411000151CN0005001N9+01281+01281101381ADDAY101999GF108991081061000251999999MD1210011+9999MW1471
0070029700999991956070906004+60117+019900FM-12+000399999V0203301N00621004501CN0500001N9+01501+01221101441ADDAY111999GF106991061051004501031001KA1999N+01221MD1210031+9999MW1031
0076029700999991956070912004+60117+019900FM-12+000399999V0203301N00621220001CN0500001N9+01721+01281101461ADDAY101999GF101991999001999999031001MD1110011+9999MW1011EQDQ01+000002SCOTLC
0070029700999991956070918004+60117+019900FM-12+000399999V0203301N00511220001CN0500001N9+01721+01281101391ADDAY101999GF100991001001999999001001KA1999M+01891MD1710081+9999MW1021
0076029700999991956071000004+60117+019900FM-12+000399999V0203501N00101220001CN0400001N9+00891+00781101341ADDAY101999GF101991999001999999031001MD1810051+9999MW1021EQDQ01+000002SCOTLC
0070029700999991956071006004+60117+019900FM-12+000399999V0203201N00511220001CN0500001N9+01721+01001101311ADDAY101999GF102991011021017501031001KA1999N+00781MD1410001+9999MW1031
0057029700999991956071012004+60117+019900FM-12+000399999V0203601N00721220001CN0500001N9+01781+00891101221ADDAY111999GF106991001001999999041091MD1410001+9999MW1031
0070029700999991956071018004+60117+019900FM-12+000399999V0203601N00511220001CN0500001N9+01611+01001101321ADDAY101999GF102991001001999999031011KA1999M+02001MD1210071+9999MW1021
0076029700999991956071100004+60117+019900FM-12+000399999V0203601N00211220001CN0300001N9+00891+00891101491ADDAY101999GF101991999001999999031001MD1210081+9999MW1021EQDQ01+000002SCOTLC
0070029700999991956071106004+60117+019900FM-12+000399999V0203401N00211030001CN0500001N9+01611+01281101711ADDAY121999GF106991021081002501031001KA1999N+00781MD1210111+9999MW1011
0057029700999991956071112004+60117+019900FM-12+000399999V0201901N00311220001CN0500001N9+01891+01221101781ADDAY111999GF103991031021004501001001MD1210041+9999MW1021
0070029700999991956071118004+60117+019900FM-12+000399999V0203501N00311220001CN0500001N9+01611+01001101801ADDAY101999GF101991001001999999001011KA1999M+02001MD1010011+9999MW1021
0057029700999991956071200004+60117+019900FM-12+000399999V0209991C00001220001CN0010001N9+00891+00891101811ADDAY101999GF101991011041008001001001MD1210031+9999MW1411
0057029700999991956071212004+60117+019900FM-12+000399999V0203201N00511220001CN0500001N9+02001+01221101651ADDAY101999GF103991021011008001001051MD1810041+9999MW1021
0070029700999991956071218004+60117+019900FM-12+000399999V0203301N00571075001CN0500001N9+01611+01281101591ADDAY121999GF106991011011004501051061KA1999M+02001MD1710051+9999MW1031
0070029700999991956071306004+60117+019900FM-12+000399999V0203301N00311030001CN0400001N9+01611+01391101391ADDAY121999GF106991031061001501041999KA1999N+01281MD1510031+9999MW1011
0057029700999991956071312004+60117+019900FM-12+000399999V0200701N00311030001CN0400001N9+02281+01501101411ADDAY111999GF106991021021008001041011MD1310071+9999MW1021
0076029700999991956071400004+60117+019900FM-12+000399999V0203601N00261220001CN0400001N9+01281+01111101521ADDAY111999GF107991999001999999031001MD1210041+9999MW1031EQDQ01+000002SCOTLC
0070029700999991956071406004+60117+019900FM-12+000399999V0200401N00261220001CN0400001N9+02001+01281101581ADDAY111999GF104991011021008001031001KA1999N+01221MD1210041+9999MW1021
0076029700999991956071412004+60117+019900FM-12+000399999V0200301N00311220001CN0500001N9+02221+00781101551ADDAY101999GF101991999001999999031001MD1710011+9999MW1011EQDQ01+000002SCOTLC
0070029700999991956071418004+60117+019900FM-12+000399999V0203601N00311220001CN0500001N9+01891+01001101481ADDAY101999GF101991011021008001061001KA1999M+02281MD1610071+9999MW1031
0057029700999991956071500004+60117+019900FM-12+000399999V0200301N00211220001CN0500001N9+01281+01111101481ADDAY101999GF101991011041008001001001MD1710011+9999MW1021
0070029700999991956071506004+60117+019900FM-12+000399999V0200301N00211220001CN0500001N9+01891+01221101491ADDAY101999GF102991001001999999031091KA1999N+01001MD1410001+9999MW1031
0076029700999991956071600004+60117+019900FM-12+000399999V0203501N99999220001CN0500001N9+00891+00781101341ADDAY101999GF101991999001999999031001MD1810071+9999MW1021EQDQ01+000002SCOTLC
0057029700999991956071612004+60117+019900FM-12+000399999V0200801N00511075001CN0500001N9+02221+01001101341ADDAY111999GF106991021041008001001081MD1210021+9999MW1031
0070029700999991956071618004+60117+019900FM-12+000399999V0203601N00411220001CN0500001N9+01891+01111101311ADDAY121999GF104991021051008001041001KA1999M+02281MD1710011+9999MW1021
0070029700999991956071706004+60117+019900FM-12+000399999V0200501N00411220001CN0500001N9+01611+00891101551ADDAY101999GF101991011021008001001001KA1999N+00781MD1210071+9999MW1021
0057029700999991956071712004+60117+019900FM-12+000399999V0203601N00621220001CN0014001N9+01891+00611101721ADDAY101999GF101991011021008001001001MD1210051+9999MW1021
0070029700999991956071718004+60117+019900FM-12+000399999V0203601N00411220001CN0500001N9+01721+00721101751ADDAY101999GF100991001001999999001001KA1999M+01891MD1210031+9999MW1021
0057029700999991956071800004+60117+019900FM-12+000399999V0203401N00101220001CN0500001N9+00721+00721101841ADDAY101999GF100991001001999999001001MD1210031+9999MW1021
0070029700999991956071806004+60117+019900FM-12+000399999V0203201N00101220001CN0500001N9+01611+01111101811ADDAY101999GF100991001001999999001001KA1999N+00501MD1710031+9999MW1021
0057029700999991956071812004+60117+019900FM-12+000399999V0201901N00411220001CN0500001N9+01891+00721101721ADDAY101999GF102991011011012501081001MD1710051+9999MW1021
0070029700999991956071818004+60117+019900FM-12+000399999V0202101N00621220001CN0500001N9+01781+01221101451ADDAY111999GF101991011011012501001001KA1999M+02111MD1710121+9999MW1011
0057029700999991956071900004+60117+019900FM-12+000399999V0203501N00311220001CN0400001N9+01391+01281101351ADDAY121999GF107991001001999999031999MD1710041+9999MW1021
0070029700999991956071906004+60117+019900FM-12+000399999V0200501N00411220001CN0500001N9+01781+01221101401ADDAY101999GF101991011011004501001001KA1999N+01001MD1110071+9999MW1011
0057029700999991956071912004+60117+019900FM-12+000399999V0200301N00411220001CN0500001N9+02001+01001101551ADDAY111999GF102991021011008001001081MD1110051+9999MW1021
0057029700999991956072000004+60117+019900FM-12+000399999V0203501N00211220001CN0004001N9+00891+00891101481ADDAY141999GF100991001001999999001001MD1410001+9999MW1461
0057029700999991956072012004+60117+019900FM-12+000399999V0203401N00411220001CN0500001N9+02111+00721101091ADDAY101999GF101991001001999999031091MD1710081+9999MW1021
0070029700999991956072018004+60117+019900FM-12+000399999V0203601N00311012301CN0500001N9+01721+01111100951ADDAY121999GF107991071051012501999999KA1999M+02221MD1710071+9999MW1031
0070029700999991956072106004+60117+019900FM-12+000399999V0203301N00211220001CN0400001N9+01611+01281100801ADDAY121999GF104991031021008001001011KA1999N+00891MD1710011+9999MW1021
0057029700999991956072112004+60117+019900FM-12+000399999V0203501N00511007801CN0500001N9+01721+01001100821ADDAY121999GF106991061021008001031999MD1110031+9999MW1021
0070029700999991956072118004+60117+019900FM-12+000399999V0203501N00311220001CN0500001N9+01501+01001100861ADDAY111999GF103991021021008001001011KA1999M+01781MD1410001+9999MW1011
0057029700999991956072206004+60117+019900FM-12+000399999V0203601N00361220001CN0500001N9+01501+00781100891ADDAY101999GF101991011011008001001011MD1310031+9999MW1021
0057029700999991956072212004+60117+019900FM-12+000399999V0203201N00511007801CN0400001N9+01781+01001100991ADDAY111999GF105991051031008001031011MD1410001+9999MW1011
0070029700999991956072218004+60117+019900FM-12+000399999V0203401N00511220001CN0400001N9+01501+00781100821ADDAY101999GF101991011021008001001011KA1999M+01781MD1710041+9999MW1021
0081029700999991956072306004+60117+019900FM-12+000399999V0203201N00411030001CN0400001N9+01221+00781100381ADDAA199003091AY121999GF108991021071004501071999KA1999N+00891MD1710081+9999MW1021
0057029700999991956072312004+60117+019900FM-12+000399999V0203401N00511001501CN0250001N9+01281+01111100281ADDAY121999GF108991061061001501021001MD1710031+9999MW1021
0081029700999991956072318004+60117+019900FM-12+000399999V0203401N00621030001CN0400001N9+01221+00781100221ADDAA199002091AY121999GF108991031051004501021999KA1999M+01281MD1810011+9999MW1011
0057029700999991956072400004+60117+019900FM-12+000399999V0203601N00211002401CN0400001N9+01111+01001100221ADDAY121999GF108991061061002501021999MD1410001+9999MW1021
0070029700999991956072406004+60117+019900FM-12+000399999V0203601N00511004501CN0400001N9+01221+00891100261ADDAY121999GF107991051061004501021001KA1999N+01111MD1210011+9999MW1021
0057029700999991956072512004+60117+019900FM-12+000399999V0203301N00621002401CN0100001N9+01281+01221100641ADDAY181999GF108991071071002501071999MD1210101+9999MW1801
0081029700999991956072518004+60117+019900FM-12+000399999V0203001N00511001501CN0300001N9+01221+01001100681ADDAA199001091AY121999GF107991051061001501031999KA1999M+01391MD1410001+9999MW1021
0057029700999991956072600004+60117+019900FM-12+000399999V0202801N00101021001CN0400001N9+00891+00891100641ADDAY111999GF107991071001022501051999MD1810051+9999MW1031
0070029700999991956072606004+60117+019900FM-12+000399999V0201501N00211021001CN0400001N9+01391+01111100341ADDAY121999GF107991071001022501031999KA1999N+00721MD1710131+9999MW1021
0057029700999991956072612004+60117+019900FM-12+000399999V0201501N00411030001CN0400001N9+01501+01221099801ADDAY121999GF106991021061002501031999MD1710431+9999MW1011
0081029700999991956072618004+60117+019900FM-12+000399999V0201501N00311075001CN0400001N9+01281+01111099171ADDAA199004091AY121999GF105991021021008001031011KA1999M+01611MD1710291+9999MW1011
0057029700999991956072700004+60117+019900FM-12+000399999V0209991C00001220001CN0005001N9+00611+00611098811ADDAY121999GF101991011051008001001001MD1710191+9999MW1461
0070029700999991956072706004+60117+019900FM-12+000399999V0203101N00311001501CN0300001N9+01221+01221098691ADDAY121999GF107991061061001501031999KA1999N+00501MD1710031+9999MW1801
0057029700999991956072800004+60117+019900FM-12+000399999V0209991C00001220001CN0300001N9+00721+00721099261ADDAY101999GF102991001001999999031011MD1210081+9999MW1121
0057029700999991956072812004+60117+019900FM-12+000399999V0203301N00411004501CN9999999N9+01781+01221099821ADDAY111999GF106991051021004501031001MD1210191+9999MW1021
0070029700999991956072818004+60117+019900FM-12+000399999V0202101N00211220001CN0500001N9+01721+01221100051ADDAY101999GF101991001001999999031011KA1999M+01891MD1210081+9999MW1021
0070029700999991956072906004+60117+019900FM-12+000399999V0202401N00211220001CN0300001N9+01391+01111100341ADDAY121999GF107991001001999999041081KA1999N+00721MD1210081+9999MW1021
0057029700999991956072912004+60117+019900FM-12+000399999V0202001N00511220001CN0500001N9+01781+01281100611ADDAY101999GF101991011021008001001011MD1210131+9999MW1021
0057029700999991956073000004+60117+019900FM-12+000399999V0209991C00001220001CN0005001N9+00721+00721100841ADDAY101999GF101991001001999999001011MD1210011+9999MW1461
0070029700999991956073006004+60117+019900FM-12+000399999V0200901N00211007801CN0300001N9+01611+01281100771ADDAY121999GF108991051061008001021999KA1999N+00721MD1710011+9999MW1021
0057029700999991956073012004+60117+019900FM-12+000399999V0201201N00411001501CN0100001N9+01611+01501100681ADDAY161999GF108991081071001501999999MD1810051+9999MW1211
0081029700999991956073018004+60117+019900FM-12+000399999V0201701N00311001501CN0040001N9+01501+01391100601ADDAA199001091AY121999GF108991081071001501999999KA1999M+01781MD1510111+9999MW1031
0070029700999991956073106004+60117+019900FM-12+000399999V0202101N00511220001CN0400001N9+01111+01001100841ADDAY101999GF100991001001999999001001KA1999N+01111MD1110011+9999MW1021
0057029700999991956073112004+60117+019900FM-12+000399999V0201901N00721030001CN0350001N9+01721+01281100811ADDAY111999GF106991011011008001031081MD1710071+9999MW1051
0057029700999991956080112004+60117+019900FM-12+000399999V0201201N00211030001CN0500001N9+01781+01281099891ADDAY121999GF105991041091004501031091MD1710131+9999MW1021
0070029700999991956080118004+60117+019900FM-12+000399999V0200201N00101075001CN0350001N9+01611+01281099851ADDAY111999GF105991031091004501001031KA1999M+01891MD1410001+9999MW1011
0070029700999991956080206004+60117+019900FM-12+000399999V0202701N00211220001CN0400001N9+01391+01221099841ADDAY111999GF104991031021004501031001KA1999N+00501MD1710011+9999MW1031
0057029700999991956080212004+60117+019900FM-12+000399999V0202801N00211004501CN0300001N9+01611+01111099821ADDAY121999GF106991061021004501001001MD1610011+9999MW1021
0081029700999991956080218004+60117+019900FM-12+000399999V0202401N00311030001CN0400001N9+01501+01221099861ADDAA199001091AY121999GF105991031021004501061021KA1999M+01781MD1310011+9999MW1011
0076029700999991956080300004+60117+019900FM-12+000399999V0209991C00001220001CN0007001N9+00611+00611099891ADDAY141999GF101991999001999999031001MD1410001+9999MW1441EQDQ01+000002SCOTLC
0070029700999991956080306004+60117+019900FM-12+000399999V0209991C00001220001CN0350001N9+01501+01221099911ADDAY101999GF103991031021004501031001KA1999N+00501MD1310031+9999MW1031
0057029700999991956080312004+60117+019900FM-12+000399999V0203401N00261004501CN0300001N9+01501+01281099951ADDAY111999GF107991051031004501041021MD1210051+9999MW1151
0081029700999991956080318004+60117+019900FM-12+000399999V0209991C00001030001CN0150001N9+01281+01221999999ADDAA199009091AY121999GF106991021031004501041021KA1999M+01891MD1210041+9999MW1111
0057029700999991956080400004+60117+019900FM-12+000399999V0203101N00051220001CN0030001N9+00611+00611100021ADDAY101999GF101991001001999999041011MD1710031+9999MW1121
0070029700999991956080406004+60117+019900FM-12+000399999V0203401N00101030001CN0100001N9+01281+01281100091ADDAY121999GF107991011021004501041051KA1999N+00501MD1210011+9999MW1031
0043029700999991956080412004+60117+019900FM-12+000399999V0203601N00311030001CN0250001N9+01781+01111100241ADDAY121999GF107991031021004501031061MW1021
0070029700999991956080518004+60117+019900FM-12+000399999V0202401N00311220001CN0500001N9+01781+01221100781ADDAY101999GF102991011021004501001021KA1999M+02001MD1210071+9999MW1011
0089029700999991956080606004+60117+019900FM-12+000399999V0201801N00211220001CN0450001N9+01611+01501101111ADDAY101999GF104991999001999999041001KA1999N+00611MD1210111+9999MW1031EQDQ01+000002SCOTLC
0057029700999991956080612004+60117+019900FM-12+000399999V0202001N00461220001CN0400001N9+02001+01501101221ADDAY111999GF102991021091004501001001MD1210041+9999MW1171
0070029700999991956080618004+60117+019900FM-12+000399999V0202201N00511220001CN0400001N9+01781+01391101261ADDAY101999GF101991001001999999031011KA1999M+02221MD1210041+9999MW1021
0057029700999991956080700004+60117+019900FM-12+000399999V0202401N00311220001CN0300001N9+01611+01281101381ADDAY101999GF101991011051008001041001MD1210051+9999MW1011
0070029700999991956080706004+60117+019900FM-12+000399999V0202401N00461220001CN0400001N9+01501+01281101401ADDAY101999GF104991041011004501001001KA1999N+01281MD1210031+9999MW1031
0076029700999991956080712004+60117+019900FM-12+000399999V0202401N00411004501CN0400001N9+01781+01111101361ADDAY121999GF107991999021004501001001MD1210071+9999MW1021EQDQ01+000062SCOTLC
0070029700999991956080718004+60117+019900FM-12+000399999V0202301N00311030001CN0350001N9+01501+01111101181ADDAY121999GF106991011021008001031051KA1999M+01781MD1710091+9999MW1031
0081029700999991956080806004+60117+019900FM-12+000399999V0202901N00211030001CN0200001N9+01281+01221100961ADDAA199001091AY181999GF106991031031012501031011KA1999N+00611MD1710011+9999MW1251
0057029700999991956080900004+60117+019900FM-12+000399999V0209991C00001220001CN0300001N9+00611+00611101081ADDAY101999GF101991011051008001001001MD1710041+9999MW1021
0057029700999991956080912004+60117+019900FM-12+000399999V0203201N00621220001CN0500001N9+01501+00611101041ADDAY101999GF102991011021008001041001MD1410001+9999MW1031
0081029700999991956081006004+60117+019900FM-12+000399999V0203401N00511220001CN0500001N9+01391+00781101181ADDAA199001091AY111999GF104991031021008001041001KA1999N+00391MD1210111+9999MW1031
0057029700999991956081012004+60117+019900FM-12+000399999V0203301N00721004501CN0500001N9+01501+00781101351ADDAY121999GF106991061021004501001001MD1210091+9999MW1021
0070029700999991956081018004+60117+019900FM-12+000399999V0203401N00411220001CN0500001N9+01221+00501101441ADDAY101999GF101991011011012501001001KA1999M+01501MD1110031+9999MW1011
0057029700999991956081100004+60117+019900FM-12+000399999V0209991C00001220001CN0500001N9+00111+00111101481ADDAY101999GF100991001001999999001001MD1210011+9999MW1021
0070029700999991956081106004+60117+019900FM-12+000399999V0203201N00411220001CN0400001N9+01391+00891101461ADDAY101999GF102991021051012501001001KA1999N+00111MD1410001+9999MW1021
0057029700999991956081112004+60117+019900FM-12+000399999V0200201N00151012301CN0500001N9+01721+00281101381ADDAY121999GF106991051011012501061001MD1610041+9999MW1021
0070029700999991956081118004+60117+019900FM-12+000399999V0201001N00211220001CN0500001N9+01501+00891101251ADDAY101999GF101991011041008001001001KA1999M+01891MD1510031+9999MW1011
0057029700999991956081200004+60117+019900FM-12+000399999V0203501N00101220001CN0400001N9+00281+00281101181ADDAY101999GF100991001001999999001001MD1710071+9999MW1021
0089029700999991956081206004+60117+019900FM-12+000399999V0203501N00101220001CN0500001N9+01221+01111101011ADDAY101999GF101991999001999999031001KA1999N-00111MD1710071+9999MW1021EQDQ01+000002SCOTLC
0057029700999991956081312004+60117+019900FM-12+000399999V0201801N00511030001CN0500001N9+01721+00781101011ADDAY121999GF107991011051008001051061MD1710011+9999MW1021
0089029700999991956081318004+60117+019900FM-12+000399999V0201801N003119999999N0400001N9+01391+01111100921ADDAY121999GF108991999001022501041999KA1999M+01781MD1710111+9999MW1601EQDQ01+000002SCOTLC
0057029700999991956081412004+60117+019900FM-12+000399999V0201501N00671030001CN0250001N9+01391+01221100421ADDAY161999GF108991021071004501071999MD1710191+9999MW1601
0081029700999991956081418004+60117+019900FM-12+000399999V0201501N00821002401CN0050001N9+01391+01281099911ADDAA199004091AY161999GF108991061051002501071999KA1999M+01611MD1710281+9999MW1621
0057029700999991956081500004+60117+019900FM-12+000399999V0201401N00411002401CN0150001N9+01221+01221099621ADDAY161999GF108991081071002501999999MD1810081+9999MW1211
0081029700999991956081506004+60117+019900FM-12+000399999V0201401N00511030001CN0300001N9+01501+01281099491ADDAA199009091AY121999GF107991021031004501041021KA1999N+01221MD1710081+9999MW1031
0057029700999991956081512004+60117+019900FM-12+000399999V0201201N00511004501CN0200001N9+01391+01281099391ADDAY181999GF107991051031004501041999MD1710071+9999MW1251
0081029700999991956081518004+60117+019900FM-12+000399999V0202501N00211030001CN0300001N9+01281+01221099351ADDAA199005091AY121999GF107991041031004501031001KA1999M+01611MD1210011+9999MW1021
0076029700999991956081600004+60117+019900FM-12+000399999V0209991C00001220001CN0003001N9+00611+00611099391ADDAY141999GF104991999001999999061001MD1410001+9999MW1461EQDQ01+000002SCOTLC
0081029700999991956081606004+60117+019900FM-12+000399999V0202401N00411004501CN0025001N9+01221+01111099381ADDAA199000391AY161999GF108991071061004501999999KA1999N+00501MD1210011+9999MW1211
0057029700999991956081612004+60117+019900FM-12+000399999V0201901N00511004501CN0300001N9+01501+01111099481ADDAY121999GF107991061051004501031999MD1210051+9999MW1021
0057029700999991956081700004+60117+019900FM-12+000399999V0203601N00051220001CN0100001N9+00611+00611099571ADDAY101999GF102991011041004501041001MD1210041+9999MW1111
0057029700999991956081712004+60117+019900FM-12+000399999V0200701N00151004501CN0400001N9+01611+01221099811ADDAY121999GF106991061091004501061001MD1210041+9999MW1021
0057029700999991956081800004+60117+019900FM-12+000399999V0203501N00101220001CN0500001N9+00281+00281100011ADDAY101999GF100991001001999999001001MD1210011+9999MW1021
0089029700999991956081806004+60117+019900FM-12+000399999V0203501N00101220001CN0400001N9+01001+01001999999ADDAY101999GF103991999001999999031001KA1999N+00221MD1210011+9999MW1021EQDQ01+000002SCOTLC
0057029700999991956081812004+60117+019900FM-12+000399999V0201801N00511030001CN0500001N9+01721+01221100081ADDAY111999GF106991021031008001031001MD1210041+9999MW1021
0070029700999991956081818004+60117+019900FM-12+000399999V0202301N00311030001CN0200001N9+01391+01111100151ADDAY121999GF106991031031004501041001KA1999M+01721MD1210031+9999MW1151
0057029700999991956081900004+60117+019900FM-12+000399999V0209991C00001220001CN0003001N9+00611+00611100181ADDAY141999GF101991001001999999031011MD1110011+9999MW1461
0070029700999991956081906004+60117+019900FM-12+000399999V0201301N00311030001CN0300001N9+01391+01281100091ADDAY121999GF108991021051002501041071KA1999N+00501MD1710081+9999MW1031
0057029700999991956081912004+60117+019900FM-12+000399999V0201001N00511001501CN9999999N9+01391+01281099941ADDAY161999GF108991071051001501999999MD1710131+9999MW1601
0081029700999991956081918004+60117+019900FM-12+000399999V0201201N00311001501CN0050001N9+01391+01391099751ADDAA199003091AY161999GF108991071061001501999999KA1999M+01611MD1710071+9999MW1211
0057029700999991956082000004+60117+019900FM-12+000399999V0201501N00211002401CN0050001N9+01391+01391099651ADDAY121999GF108991081061002501999999MD1710051+9999MW1031
0081029700999991956082006004+60117+019900FM-12+000399999V0201901N00211002401CN0100001N9+01501+01391099601ADDAA199000691AY121999GF108991081061002501999999KA1999N+01281MD1510011+9999MW1021
0057029700999991956082100004+60117+019900FM-12+000399999V0202701N00411004501CN0060001N9+01281+01221100181ADDAY121999GF108991051041004501041999MD1210051+9999MW1801
0057029700999991956082112004+60117+019900FM-12+000399999V0202101N00511007801CN0400001N9+01611+01111100421ADDAY111999GF105991051021008001061001MD1210071+9999MW1031
0070029700999991956082118004+60117+019900FM-12+000399999V0201901N00721220001CN0400001N9+01501+01221100421ADDAY111999GF104991021031008001041001KA1999M+01721MD1710021+9999MW1021
0057029700999991956082200004+60117+019900FM-12+000399999V0202401N00101220001CN0400001N9+01221+01111100381ADDAY101999GF102991001001999999041011MD1710031+9999MW1021
0070029700999991956082206004+60117+019900FM-12+000399999V0202101N00511004501CN0500001N9+01281+01111100291ADDAY111999GF105991051051004501001001KA1999N+01001MD1710041+9999MW1031
0057029700999991956082212004+60117+019900FM-12+000399999V0202101N00621030001CN0400001N9+01611+01001100351ADDAY121999GF107991041021004501041001MD1210011+9999MW1021
0070029700999991956082218004+60117+019900FM-12+000399999V0202401N00051030001CN0300001N9+01281+01111100241ADDAY121999GF106991041031002501041021KA1999M+01611MD1710051+9999MW1031
0057029700999991956082300004+60117+019900FM-12+000399999V0203501N00051007801CN0300001N9+00781+00781100261ADDAY121999GF106991051051008001031999MD1310011+9999MW1021
0081029700999991956082306004+60117+019900FM-12+000399999V0203601N00211220001CN0500001N9+01281+01221100311ADDAA199000591AY101999GF101991011031008001061001KA1999N+00501MD1210041+9999MW1021
0057029700999991956082312004+60117+019900FM-12+000399999V0200401N00101004501CN0500001N9+01501+01001100441ADDAY121999GF106991061031004501001021MD1210041+9999MW1021
0081029700999991956082318004+60117+019900FM-12+000399999V0203401N00211220001CN0500001N9+01221+00891100561ADDAA199000591AY121999GF102991021041008001001001KA1999M+01721MD1210051+9999MW1021
0076029700999991956082400004+60117+019900FM-12+000399999V0203601N00101220001CN0030001N9+00281+00281100591ADDAY101999GF101991999001999999031001MD1210011+9999MW1411EQDQ01+000002SCOTLC
