0076029700999991953010106004+60117+019900FM-12+000399999V0209991C00001007801CN0140001N9-00281-00281101171ADDAY121999GF108991081071008001999999IA1319KA1999N-01111MD1310051+9999MW1711
0057029700999991953010112004+60117+019900FM-12+000399999V0200401N00051012301CN0160001N9-00221-00221101361ADDAY111999GF107991071051012501999999MD1310081+9999MW1021
0087029700999991953010118004+60117+019900FM-12+000399999V0203401N00051012301CN0160001N9-00391-00391101511ADDAA199000691AY121999GF105991051051012501999999IA1319KA1999M-00221MD1310091+9999MW1021
0057029700999991953010200004+60117+019900FM-12+000399999V0209991C00001007801CN0140001N9-00611-00611101641ADDAY121999GF108991081051008001999999MD1310011+9999MW1031
0062029700999991953010206004+60117+019900FM-12+000399999V0209991C00001007801CN0140001N9-00501-00501101641ADDAY121999GF107991071051008001999999IA1319KA1999N-01221MW1021
0057029700999991953010212004+60117+019900FM-12+000399999V0200701N00101007801CN0200001N9-00391-00391101601ADDAY121999GF108991081051008001999999MD1710081+9999MW1021
0076029700999991953010218004+60117+019900FM-12+000399999V0200501N00311007801CN0200001N9-00501-00501101661ADDAY111999GF108991081051008001999999IA1319KA1999M-00281MD1310081+9999MW1031
0078029700999991953010300004+60117+019900FM-12+000399999V0200501N00511007801CN0200001N9-00501-00501101711ADDAY111999GF108991081051008001999999MW1031EQDQ01+000032APCTENQ02+000002APC3  
0097029700999991953010306004+60117+019900FM-12+000399999V0200501N00511220001CN0200001N9-00611-00611101711ADDAY111999GF100991001001999999001001IA1319KA1999N-00721MW1001EQDQ01+000032APCTENQ02+000002APC3  
0057029700999991953010312004+60117+019900FM-12+000399999V0200501N00511007801CN0200001N9-00501-00501101801ADDAY111999GF108991071051008001999999MD1810031+9999MW1011
0076029700999991953010318004+60117+019900FM-12+000399999V0200501N00511220001CN0200001N9-00501-00501101951ADDAY101999GF100991001001999999001001IA1319KA1999M-00391MD1310121+9999MW1001
0078029700999991953010400004+60117+019900FM-12+000399999V0200501N00411007801CN0200001N9-00611-00611102081ADDAY111999GF107991071051008001999999MW1031EQDQ01+000032APCTENQ02+000002APC3  
0076029700999991953010406004+60117+019900FM-12+000399999V0200501N00511007801CN0200001N9-00501-00501102221ADDAY121999GF108991081051008001999999IA1319KA1999N-00721MD1310081+9999MW1021
0057029700999991953010412004+60117+019900FM-12+000399999V0200501N00511004501CN0200001N9-00611-00611102311ADDAY111999GF108991081051004501999999MD1310111+9999MW1031
0076029700999991953010418004+60117+019900FM-12+000399999V0200501N00101220001CN0200001N9-01221-01221102521ADDAY101999GF100991001001999999001001IA1319KA1999M-00501MD1310091+9999MW1001
0057029700999991953010500004+60117+019900FM-12+000399999V0209991C00001220001CN0200001N9-01611-01611102561ADDAY101999GF100991001001999999001001MD1310011+9999MW1001
0076029700999991953010506004+60117+019900FM-12+000399999V0209991C00001220001CN0200001N9-01781-01781102461ADDAY101999GF100991001001999999001001IA1319KA1999N-01781MD1810081+9999MW1001
0057029700999991953010512004+60117+019900FM-12+000399999V0201801N00511220001CN0200001N9-00281-00281102291ADDAY101999GF100991001001999999001001MD1810111+9999MW1001
0076029700999991953010518004+60117+019900FM-12+000399999V0201801N00721220001CN0200001N9-00111-00111102141ADDAY101999GF100991001001999999001001IA1319KA1999M+00001MD1810031+9999MW1001
0057029700999991953010600004+60117+019900FM-12+000399999V0202001N00721004501CN0200001N9+00001+00001101891ADDAY111999GF108991081051004501999999MD1810211+9999MW1031
0076029700999991953010606004+60117+019900FM-12+000399999V0202001N00311004501CN0200001N9+00111+00111101811ADDAY121999GF108991081051004501999999IA1319KA1999N-00221MD1810051+9999MW1021
0057029700999991953010612004+60117+019900FM-12+000399999V0201801N00101004501CN0044001N9+00111+00111101821ADDAY141999GF108991081071004501999999MD1990011+9999MW1681
0106029700999991953010618004+60117+019900FM-12+000399999V0201801N00101004501CN0044001N9+00111+00111101791ADDAA199000391AY141999GF108991999071004501011011IA1209KA1999M+00111MD1010041+9999MW1441EQDQ01+000082SCOTLC
0057029700999991953010700004+60117+019900FM-12+000399999V0209991C00001004501CN0110001N9+00111+00111101721ADDAY141999GF108991081051004501999999MD1810081+9999MW1421
0076029700999991953010706004+60117+019900FM-12+000399999V0202301N00411004501CN0140001N9+00111+00111101551ADDAY121999GF108991081071004501999999IA1209KA1999N+00001MD1810111+9999MW1021
0057029700999991953010712004+60117+019900FM-12+000399999V0202301N00311012301CN0160001N9+00001+00001101541ADDAY111999GF107991071071012501999999MD1990041+9999MW1021
0076029700999991953010718004+60117+019900FM-12+000399999V0202901N00211220001CN0160001N9-00391-00391101451ADDAY111999GF100991001001999999001001IA1209KA1999M+00221MD1810031+9999MW1001
0057029700999991953010800004+60117+019900FM-12+000399999V0203201N00101012301CN0160001N9-00391-00391101451ADDAY121999GF108991081051012501999999MD1810051+9999MW1021
0097029700999991953010806004+60117+019900FM-12+000399999V0203201N00211012301CN0160001N9-00221-00221101401ADDAY121999GF108991081051012501999999IA1209KA1999N-00611MW1021EQDQ01+000082APCTENQ02+000002APC3  
0057029700999991953010812004+60117+019900FM-12+000399999V0202501N00311012301CN0160001N9-00281-00281101221ADDAY121999GF108991081051012501999999MD1810111+9999MW1021
0076029700999991953010818004+60117+019900FM-12+000399999V0202301N00721012301CN0090001N9-00501-00501101021ADDAY141999GF108991081051012501999999IA1209KA1999M-00221MD1810161+9999MW1021
0057029700999991953010900004+60117+019900FM-12+000399999V0202301N01231004501CN0140001N9-00391-00391100451ADDAY111999GF108991081071004501999999MD1810231+9999MW1021
0076029700999991953010906004+60117+019900FM-12+000399999V0202301N00821004501CN0140001N9-00111-00111100111ADDAY121999GF108991081071004501999999IA1209KA1999N-00611MD1810151+9999MW1021
0057029700999991953010912004+60117+019900FM-12+000399999V0202301N00511002401CN0044001N9+00001+00001100021ADDAY171999GF108991081071002501999999MD1810011+9999MW1731
0087029700999991953010918004+60117+019900FM-12+000399999V0203601N00211002401CN0090001N9-00111-00111100281ADDAA199002091AY141999GF108991081071002501999999IA1009KA1999M-00111MD1310151+9999MW1021
0057029700999991953011000004+60117+019900FM-12+000399999V0203601N00101220001CN0160001N9-01001-01001100611ADDAY101999GF100991001001999999001001MD1310131+9999MW1001
0076029700999991953011006004+60117+019900FM-12+000399999V0209991C00001007801CN0160001N9-00721-00721100861ADDAY121999GF107991071051008001999999IA1209KA1999N-01391MD1310121+9999MW1031
0057029700999991953011012004+60117+019900FM-12+000399999V0209991C00001007801CN0160001N9-00221-00221101141ADDAY121999GF108991081051008001999999MD1310091+9999MW1021
0076029700999991953011018004+60117+019900FM-12+000399999V0202701N00051007801CN0160001N9-00281-00281101511ADDAY121999GF108991081051008001999999IA1209KA1999M-00111MD1310311+9999MW1021
0057029700999991953011100004+60117+019900FM-12+000399999V0202301N00311012301CN0160001N9-00391-00391101721ADDAY121999GF108991081051012501999999MD1310111+9999MW1021
0076029700999991953011118004+60117+019900FM-12+000399999V0202701N004119999999N0200001N9-00391-00391102151ADDAY121999GF108991081071999999999999IA1209KA1999M-00111MD1310111+9999MW1021
0076029700999991953011206004+60117+019900FM-12+000399999V0202301N00211220001CN0160001N9-00611-00611102581ADDAY111999GF102991021051008001999999IA1209KA1999N-00721MD1310031+9999MW1011
0057029700999991953011212004+60117+019900FM-12+000399999V0202301N00821000151CN0008001N9-00221-00221102591ADDAY141999GF109991091999999999999999MD1990051+9999MW1451
0076029700999991953011218004+60117+019900FM-12+000399999V0202301N00821004501CN0140001N9+00001+00001102381ADDAY121999GF108991081051004501999999IA1209KA1999M+00001MD1810091+9999MW1021
0057029700999991953011300004+60117+019900FM-12+000399999V0201801N00931004501CN0140001N9+00111+00111102191ADDAY121999GF108991081071004501999999MD1810111+9999MW1021
0076029700999991953011306004+60117+019900FM-12+000399999V0202701N00931004501CN0140001N9+00221+00221101951ADDAY111999GF108991081071004501999999IA1209KA1999N-00111MD1810161+9999MW1021
0057029700999991953011312004+60117+019900FM-12+000399999V0202301N005119999999N0050001N9+00221+00221101861ADDAY141999GF108991081061999999999999MD1810081+9999MW1441
0076029700999991953011318004+60117+019900FM-12+000399999V0202301N00511002401CN0090001N9+00221+99999101741ADDAY121999GF108991081071002501999999IA1199KA1999M+00281MD1310051+9999MW1021
0057029700999991953011400004+60117+019900FM-12+000399999V0202301N00511004501CN0090001N9+00221+00221101581ADDAY121999GF108991081051004501999999MD1810111+9999MW1021
0076029700999991953011406004+60117+019900FM-12+000399999V0202301N00931012301CN0140001N9+00281+00281101261ADDAY121999GF107991071051012501999999IA1189KA1999N+00221MD1810161+9999MW1021
0057029700999991953011412004+60117+019900FM-12+000399999V0202301N008219999999N0160001N9+00281+00281101081ADDAY121999GF108991081051999999999999MD1810161+9999MW1021
0076029700999991953011418004+60117+019900FM-12+000399999V0202701N00621007801CN0200001N9+00281+00281101041ADDAY121999GF105991051051008001999999IA1189KA1999M+00501MD1810011+9999MW1011
0078029700999991953011500004+60117+019900FM-12+000399999V0202701N00511004501CN0110001N9+00221+00221100951ADDAY151999GF108991081071004501999999MW1501EQDQ01+000082APCTENQ02+000002APC3  
0087029700999991953011506004+60117+019900FM-12+000399999V0202701N00511004501CN0110001N9+00221+00221100751ADDAA199000691AY121999GF108991081071004501999999IA1319KA1999N+00111MD1810161+9999MW1501
0057029700999991953011512004+60117+019900FM-12+000399999V0202301N01231001501CN0110001N9+00111+00111100091ADDAY121999GF108991081071001501999999MD1990441+9999MW1681
0087029700999991953011518004+60117+019900FM-12+000399999V0202001N00931001501CN0110001N9+00111+00111099661ADDAA199002091AY161999GF108991081071001501999999IA1189KA1999M+00281MD1810041+9999MW1681
0078029700999991953011600004+60117+019900FM-12+000399999V0209991C00001000151CN0008001N9+00111+00111099881ADDAY141999GF109991091999000251999999MW1471EQDQ01+000042APCTENQ02+000202APC3  
0076029700999991953011606004+60117+019900FM-12+000399999V0203601N00411004501CN0140001N9+00111+00111100491ADDAY121999GF108991081071004501999999IA1189KA1999N+00111MD1310291+9999MW1021
0057029700999991953011612004+60117+019900FM-12+000399999V0203201N00361220001CN0200001N9+00111+00111101001ADDAY111999GF104991041051008001999999MD1310201+9999MW1011
0076029700999991953011618004+60117+019900FM-12+000399999V0202301N00511220001CN0200001N9+00001+00001101311ADDAY111999GF102991021051008001999999IA1189KA1999M+00111MD1310201+9999MW1011
0057029700999991953011700004+60117+019900FM-12+000399999V0202301N00411220001CN0200001N9+00111+00111101411ADDAY101999GF100991001001999999001001MD1310071+9999MW1001
0076029700999991953011706004+60117+019900FM-12+000399999V0202301N00311220001CN0200001N9+00001+00001101451ADDAY101999GF103991031051012501999999IA1189KA1999N+00001MD1510031+9999MW1031
0057029700999991953011712004+60117+019900FM-12+000399999V0202301N00211220001CN0200001N9+00111+00111101401ADDAY111999GF102991001001999999041999MD1810031+9999MW1011
0076029700999991953011718004+60117+019900FM-12+000399999V0202301N00511220001CN0200001N9+00221+00221101251ADDAY111999GF103991001001999999071999IA1159KA1999M+00221MD1810041+9999MW1031
0057029700999991953011800004+60117+019900FM-12+000399999V0202301N00931004501CN0160001N9+00111+00111100751ADDAY121999GF108991081071004501999999MD1810351+9999MW1021
0076029700999991953011806004+60117+019900FM-12+000399999V0202301N00931004501CN0160001N9+00281+00281100291ADDAY121999GF108991081071004501999999IA1189KA1999N+00111MD1810191+9999MW1021
0078029700999991953011812004+60117+019900FM-12+000399999V0202701N00621220001CN0200001N9+00281+00281100201ADDAY101999GF100991001001999999001001MW1001EQDQ01+000082APCTENQ02+000002APC3  
0076029700999991953011818004+60117+019900FM-12+000399999V0202901N01031004501CN0160001N9+00281+00281100421ADDAY111999GF105991051071004501011999IA1189KA1999M+00611MD1310271+9999MW1031
0057029700999991953011900004+60117+019900FM-12+000399999V0203201N01231220001CN0200001N9+00001+00001100641ADDAY101999GF100991001001999999001001MD1310051+9999MW1001
0076029700999991953011906004+60117+019900FM-12+000399999V0203601N00931220001CN0200001N9-00111-00111101091ADDAY101999GF102991021051012501001001IA1189KA1999N-00221MD1310271+9999MW1031
0057029700999991953011912004+60117+019900FM-12+000399999V0203401N00511220001CN0200001N9+00001+00001101641ADDAY111999GF103991031011012501001001MD1310241+9999MW1031
0076029700999991953011918004+60117+019900FM-12+000399999V0203401N00411220001CN0200001N9-00221-00221101981ADDAY111999GF104991041051008001001001IA1189KA1999M+00281MD1310211+9999MW1031
0057029700999991953012000004+60117+019900FM-12+000399999V0209991C00001220001CN0200001N9-00611-00611102041ADDAY101999GF101991011051008001001001MD1990031+9999MW1021
0076029700999991953012006004+60117+019900FM-12+000399999V0202501N00931004501CN0200001N9+00001+00001101601ADDAY121999GF108991081071004501999999IA1189KA1999N-00611MD1810321+9999MW1021
0057029700999991953012012004+60117+019900FM-12+000399999V0202501N01031220001CN0200001N9+00111+00111101001ADDAY121999GF106991001001999999071999MD1810361+9999MW1011
0076029700999991953012018004+60117+019900FM-12+000399999V0209999999999220001CN0400001N9+00221+00111100651ADDAY101999GF105991001001999999071999IA1189KA1999M+00221MD1810071+9999MW1021
0057029700999991953012100004+60117+019900FM-12+000399999V0202501N00101220001CN0200001N9+00111-00221100481ADDAY121999GF107991001001999999071999MD1810071+9999MW1021
0076029700999991953012106004+60117+019900FM-12+000399999V0202901N00621012301CN0200001N9+00221+00221100401ADDAY111999GF105991051051012501999999IA1189KA1999N-00111MD1810051+9999MW1031
0078029700999991953012112004+60117+019900FM-12+000399999V0202901N00931220001CN0400001N9+00111-00111100481ADDAY111999GF100991001001999999001001MW1001EQDQ01+000032APCTENQ02+000002APC3  
0076029700999991953012118004+60117+019900FM-12+000399999V0202901N00721220001CN0200001N9+00111-00111100181ADDAY101999GF101991011051012501001001IA1189KA1999M+00281MD1310041+9999MW1021
0057029700999991953012300004+60117+019900FM-12+000399999V0203201N00621220001CN0200001N9-00281-00281100451ADDAY111999GF104991041021008001999999MD1310041+9999MW1021
0087029700999991953012306004+60117+019900FM-12+000399999V0203201N00621220001CN0200001N9-00281-00281100451ADDAA199001091AY111999GF103991031021008001999999IA1209KA1999N-00501MD1310051+9999MW1021
0057029700999991953012312004+60117+019900FM-12+000399999V0203201N00511007801CN0200001N9-00221-00221100651ADDAY111999GF106991061021008001999999MD1310071+9999MW1031
0076029700999991953012318004+60117+019900FM-12+000399999V0203201N00511007801CN0200001N9-00281-00281100641ADDAY111999GF107991071051008001999999IA1309KA1999M-00221MD1310031+9999MW1021
0057029700999991953012400004+60117+019900FM-12+000399999V0203201N00101012301CN0200001N9-00391-00391100481ADDAY111999GF106991061051012501999999MD1990151+9999MW1021
0076029700999991953012406004+60117+019900FM-12+000399999V0209991C00001220001CN0200001N9-00611-00611100351ADDAY111999GF102991021021012501001001IA1309KA1999N-00721MD1810081+9999MW1011
0078029700999991953012412004+60117+019900FM-12+000399999V0203201N00411012301CN0200001N9-00281-00281100321ADDAY111999GF106991061021012501999999MW1031EQDQ01+000082APCTENQ02+000002APC3  
0087029700999991953012418004+60117+019900FM-12+000399999V0203201N00411012301CN0160001N9-00501-00501100311ADDAA199000591AY181999GF108991081021012501999999IA1309KA1999M-00221MD1810091+9999MW1861
0057029700999991953012500004+60117+019900FM-12+000399999V0209991C00001004501CN0160001N9-00781-00781100451ADDAY171999GF108991081071004501999999MD1310051+9999MW1721
0098029700999991953012506004+60117+019900FM-12+000399999V0209991C00001004501CN0160001N9-01221-01221100541ADDAA199001091GF106991061021004501999999IA1319KA1999N+99999MD1310081+9999MW1701EQDQ01 -01112ATMN  
0057029700999991953012512004+60117+019900FM-12+000399999V0203201N00311220001CN0400001N9-00391-00501100771ADDAY111999GF104991041021004501999999MD1310301+9999MW1021
0087029700999991953012518004+60117+019900FM-12+000399999V0203401N00721004501CN0200001N9-00611-00781100911ADDAA199000391AY111999GF107991071021004501011061IA1319KA1999M-00391MD1310161+9999MW1031
0057029700999991953012600004+60117+019900FM-12+000399999V0203401N00411220001CN0200001N9-01111-01111101141ADDAY101999GF100991001001999999001001MD1310041+9999MW1001
0087029700999991953012606004+60117+019900FM-12+000399999V0209991C00001220001CN0200001N9-01001-01001101081ADDAA199000391AY101999GF103991031021004501999999IA1319KA1999N-01281MD1810051+9999MW1001
0057029700999991953012612004+60117+019900FM-12+000399999V0202701N00101220001CN0090001N9-00391-00501101011ADDAY121999GF108991001001999999011999MD1810081+9999MW1711
0087029700999991953012618004+60117+019900FM-12+000399999V0202501N00101004501CN0090001N9-00391-00391100801ADDAA199000391AY121999GF108991081071004501999999IA1319KA1999M-00391MD1810081+9999MW1701
0057029700999991953012700004+60117+019900FM-12+000399999V0202301N00511004501CN0160001N9-00221-00221100261ADDAY121999GF108991081071004501999999MD1810291+9999MW1021
0106029700999991953012706004+60117+019900FM-12+000399999V0202301N00721004501CN0034001N9+00001+00001099401ADDAA199000691AY141999GF108991999071004501011061IA1319KA1999N-00391MD1810451+9999MW1441EQDQ01+000082SCOTLC
0057029700999991953012712004+60117+019900FM-12+000399999V0202301N01031002401CN0044001N9+00111+00001098601ADDAY161999GF108991081071002501999999MD1810411+9999MW1681
0087029700999991953012718004+60117+019900FM-12+000399999V0202301N00411002401CN0044001N9+00111+00111098091ADDAA199002091AY161999GF108991081071002501999999IA1209KA1999M+00221MD1810121+9999MW1021
0057029700999991953012800004+60117+019900FM-12+000399999V0209991C00001220001CN0200001N9+00001+00001097951ADDAY111999GF100991001001999999001001MD1810051+9999MW1001
0076029700999991953012806004+60117+019900FM-12+000399999V0201801N00101004501CN0044001N9+00111+00001097361ADDAY111999GF108991081051004501999999IA1209KA1999N-00281MD1810371+9999MW1461
0057029700999991953012812004+60117+019900FM-12+000399999V0209991C00001000151CN0010001N9+00001-00111097111ADDAY141999GF109991091999000251999999MD1810051+9999MW1751
0087029700999991953012818004+60117+019900FM-12+000399999V0203401N00051002401CN0018001N9-00111-00111097541ADDAA199007091AY171999GF107991071071002501999999IA1319KA1999M+00111MD1310401+9999MW1711
0076029700999991953012900004+60117+019900FM-12+000399999V0203201N00101004501CN0010001N9+00001+00001098502ADDAY121999GF108991081051004501999999MD1810191+9999MW1461EQDQ01+098503APOSLP
0087029700999991953012906004+60117+019900FM-12+000399999V0203201N00311220001CN0160001N9-00111-00111098381ADDAA199001091AY121999GF107991001001999999071999IA1319KA1999N-00221MD1310121+9999MW1021
0076029700999991953012912004+60117+019900FM-12+000399999V0203201N00511220001CN0200001N9+00001+00001098661ADDAY111999GF103991999001999999041001MD1310191+9999MW1011EQDQ01+000002SCOTLC
0076029700999991953012918004+60117+019900FM-12+000399999V0203201N00311220001CN0200001N9-00221-00221099201ADDAY111999GF103991001001999999051999IA1319KA1999M-00111MD1310321+9999MW1031
0057029700999991953013000004+60117+019900FM-12+000399999V0202901N00211220001CN0160001N9-00281-00281099741ADDAY101999GF102991021051012501001001MD1310191+9999MW1131
0076029700999991953013006004+60117+019900FM-12+000399999V0203201N00621220001CN0200001N9-00281-00281100061ADDAY101999GF100991001001999999001001IA1319KA1999N-00501MD1310151+9999MW1001
0057029700999991953013012004+60117+019900FM-12+000399999V0202701N00621220001CN0200001N9-00221-00391100281ADDAY111999GF105991001001999999041021MD1310091+9999MW1021
0076029700999991953013018004+60117+019900FM-12+000399999V0203201N00511220001CN0200001N9-00281-00721100281ADDAY111999GF100991001001999999001001IA1319KA1999M-00221MD1310051+9999MW1001
0057029700999991953013100004+60117+019900FM-12+000399999V0203201N00211012301CN0200001N9-00391-00391100181ADDAY101999GF106991061051012501999999MD1810111+9999MW1031
0076029700999991953013106004+60117+019900FM-12+000399999V0201401N00101012301CN0200001N9-00281-00281099891ADDAY121999GF108991081051012501999999IA1319KA1999N-00721MD1810161+9999MW1021
0057029700999991953013112004+60117+019900FM-12+000399999V0201401N00621002401CN0044001N9+00001+00001099421ADDAY171999GF108991081071002501999999MD1810271+9999MW1731
0087029700999991953013118004+60117+019900FM-12+000399999V0201401N00411002401CN0044001N9+00001+00001099061ADDAA199007091AY171999GF108991081071002501999999IA1319KA1999M+00111MD1810051+9999MW1751
0087029700999991953020106004+60117+019900FM-12+000399999V0201401N00621002401CN0044001N9+00001+00001099291ADDAA199006091AY171999GF108991081071002501999999IA1209KA1999N+00001MD1310121+9999MW1751
0057029700999991953020112004+60117+019900FM-12+000399999V0200901N00511002401CN0044001N9+00001+00001099741ADDAY171999GF108991081071002501999999MD1010031+9999MW1731
0087029700999991953020118004+60117+019900FM-12+000399999V0200901N00411002401CN0044001N9-00111-00111100211ADDAA199006091AY171999GF108991081071002501999999IA1319KA1999M-00111MD1310271+9999MW1021
0057029700999991953020200004+60117+019900FM-12+000399999V0200901N00211002401CN0044001N9-00221-00221100691ADDAY121999GF108991081071002501999999MD1310251+9999MW1021
0087029700999991953020206004+60117+019900FM-12+000399999V0200901N00101002401CN0090001N9-00281-00281101061ADDAA199002091AY171999GF108991081071002501999999IA1319KA1999N-00281MD1310321+9999MW1701
0057029700999991953020212004+60117+019900FM-12+000399999V0200501N00511002401CN0044001N9-00281-00281101801ADDAY171999GF108991081071002501999999MD1310281+9999MW1731
0087029700999991953020218004+60117+019900FM-12+000399999V0200501N00311002401CN0090001N9-00501-00501102351ADDAA199003091AY171999GF108991081071002501999999IA1319KA1999M-00281MD1310231+9999MW1711
0057029700999991953020300004+60117+019900FM-12+000399999V0200501N00411002401CN0090001N9-00721-00721102551ADDAY171999GF108991081071002501999999MD1310201+9999MW1711
0087029700999991953020306004+60117+019900FM-12+000399999V0200501N00051002401CN0090001N9-00611-00611102841ADDAA199003091AY121999GF108991081071002501999999IA1319KA1999N-00781MD1310081+9999MW1021
0057029700999991953020312004+60117+019900FM-12+000399999V0200501N00211220001CN0200001N9-00611-00611102641ADDAY121999GF108991001001999999021999MD1990081+9999MW1021
0076029700999991953020318004+60117+019900FM-12+000399999V0200501N00211012301CN0160001N9-00611-00611102371ADDAY121999GF108991081071012501999999IA1319KA1999M-00391MD1810151+9999MW1021
0087029700999991953020406004+60117+019900FM-12+000399999V0201801N00621004501CN0090001N9-00281-00281100551ADDAA199000391AY171999GF108991081071004501999999IA1319KA1999N-00611MD1810441+9999MW1711
0057029700999991953020412004+60117+019900FM-12+000399999V0201601N01131001501CN0010001N9-00221-00281100091ADDAY171999GF108991081071001501999999MD1810131+9999MW1391
0087029700999991953020418004+60117+019900FM-12+000399999V0201601N00821001501CN0010001N9-00111-00111100541ADDAA199009091AY171999GF108991081071001501999999IA1319KA1999M-00111MD1310171+9999MW1391
0087029700999991953020506004+60117+019900FM-12+000399999V0200901N00621002401CN0110001N9-01111-01111100891ADDAA199005091AY171999GF108991081071002501999999IA1319KA1999N-01111MD1310031+9999MW1711
0078029700999991953020512004+60117+019900FM-12+000399999V0202301N00101004501CN0044001N9-01891-02111101401ADDAY171999GF108991081061004501999999MW1711EQDQ01+000032APCTENQ02+000002APC3  
0087029700999991953020518004+60117+019900FM-12+000399999V0200501N00511220001CN0200001N9-01391-01391101091ADDAA199006091AY111999GF102991021071004501999999IA1319KA1999M-00221MD1310131+9999MW1011
0078029700999991953020600004+60117+019900FM-12+000399999V0200501N00721220001CN0200001N9-01721-01721101211ADDAY111999GF100991001001999999001001MW1001EQDQ01+000032APCTENQ02+000002APC3  
0097029700999991953020606004+60117+019900FM-12+000399999V0200501N00621220001CN0200001N9-01781-02001101211ADDAY101999GF100991001001999999001001IA1319KA1999N-01891MW1001EQDQ01+000032APCTENQ02+000002APC3  
0078029700999991953020612004+60117+019900FM-12+000399999V0200701N00621220001CN0200001N9-01611-01611101201ADDAY111999GF102991001001999999001051MW1021EQDQ01+000032APCTENQ02+000002APC3  
0076029700999991953020618004+60117+019900FM-12+000399999V0200501N00721220001CN0200001N9-01721-01721101241ADDAY101999GF100991001001999999001001IA1319KA1999M-01391MD1310011+9999MW1001
0057029700999991953020700004+60117+019900FM-12+000399999V0200501N00621220001CN0200001N9-02001-02001101221ADDAY101999GF100991001001999999001001MD1810161+9999MW1001
0097029700999991953020706004+60117+019900FM-12+000399999V0200501N00211220001CN0200001N9-02111-02111101261ADDAY101999GF105991001001999999011999IA1319KA1999N-02221MW1031EQDQ01+000082APCTENQ02+000002APC3  
0057029700999991953020712004+60117+019900FM-12+000399999V0200501N00311220001CN0200001N9-01781-01781101301ADDAY121999GF107991001001999999011999MD1310051+9999MW1031
0076029700999991953020718004+60117+019900FM-12+000399999V0200501N00411220001CN0200001N9-01781-01781101481ADDAY121999GF103991001001999999011999IA1319KA1999M-01721MD1310161+9999MW1021
0078029700999991953020800004+60117+019900FM-12+000399999V0200501N00411004501CN0160001N9-01501-01501101571ADDAY121999GF107991071071004501999999MW1021EQDQ01+000032APCTENQ02+000002APC3  
0124029700999991953020806004+60117+019900FM-12+000399999V0200501N00411004501CN0090001N9-01281-01281101551ADDAA199000591AY171999GF108991999071004501011999IA1319KA1999N-01891MW1701EQDQ01+000082SCOTLCQ02+000082APCTENQ03+000002APC3  
0078029700999991953020812004+60117+019900FM-12+000399999V0200501N00621004501CN0044001N9-01001-01001101591ADDAY171999GF108991081071004501999999MW1731EQDQ01+000032APCTENQ02+000002APC3  
0108029700999991953020818004+60117+019900FM-12+000399999V0200901N00721004501CN0044001N9-00891-00891101601ADDAA199004091AY171999GF107991071071004501999999IA1319KA1999M-00781MW1711EQDQ01+000032APCTENQ02+000002APC3  
0057029700999991953020900004+60117+019900FM-12+000399999V0200901N00511004501CN0110001N9-00891-00891101661ADDAY121999GF107991071071004501999999MD1310011+9999MW1021
0087029700999991953020906004+60117+019900FM-12+000399999V0200901N00211004501CN0044001N9-00781-00781101591ADDAA199000591AY171999GF108991081071004501999999IA1319KA1999N-01001MD1810031+9999MW1701
0057029700999991953020912004+60117+019900FM-12+000399999V0200901N00721004501CN0044001N9-00721-00721101601ADDAY171999GF107991071071004501999999MD1810011+9999MW1711
0087029700999991953020918004+60117+019900FM-12+000399999V0200901N00721004501CN0044001N9-00891-00891101621ADDAA199004091AY171999GF108991081071004501999999IA1319KA1999M-00721MD1310111+9999MW1731
0078029700999991953021000004+60117+019900FM-12+000399999V0200901N006219999999N0110001N9-01001-01001101621ADDAY121999GF108991081071999999999999MW1021EQDQ01+000032APCTENQ02+000002APC3  
0076029700999991953021006004+60117+019900FM-12+000399999V0200901N00621004501CN0110001N9-01281-01281101341ADDAY121999GF108991081071004501999999IA1319KA1999N-01281MD1810201+9999MW1021
0057029700999991953021012004+60117+019900FM-12+000399999V0200901N00621004501CN0044001N9-01391-01391101041ADDAY171999GF108991081071004501999999MD1810191+9999MW1731
0087029700999991953021018004+60117+019900FM-12+000399999V0200901N00411004501CN0090001N9-01281-01281100861ADDAA199002091AY121999GF107991071071004501999999IA1319KA1999M-00781MD1310031+9999MW1021
0057029700999991953021100004+60117+019900FM-12+000399999V0200901N00511004501CN0110001N9-01001-01001101081ADDAY171999GF108991081071004501999999MD1310081+9999MW1701
0087029700999991953021106004+60117+019900FM-12+000399999V0200901N00621004501CN0110001N9-00891-00891101391ADDAA199000591AY171999GF108991081071004501999999IA1319KA1999N-01281MD1310161+9999MW1701
0057029700999991953021112004+60117+019900FM-12+000399999V0200901N00311004501CN0110001N9-00611-01281101651ADDAY171999GF109991081071004501999999MD1310151+9999MW1701
0087029700999991953021118004+60117+019900FM-12+000399999V0200901N00411004501CN0090001N9-00781-00781101921ADDAA199000591AY121999GF108991081071004501999999IA1319KA1999M-00611MD1310231+9999MW1021
0078029700999991953021200004+60117+019900FM-12+000399999V0200901N00511004501CN0110001N9-01111-01111102021ADDAY121999GF108991081071004501999999MW1021EQDQ01+000032APCTENQ02+000002APC3  
0087029700999991953021206004+60117+019900FM-12+000399999V0200901N00511004501CN0024001N9-01001-01001102111ADDAA199000391AY171999GF108991081071004501999999IA1319KA1999N-01111MD1310031+9999MW1711
0078029700999991953021212004+60117+019900FM-12+000399999V0200701N00411004501CN0044001N9-00891-00891102191ADDAY171999GF107991071071004501999999MW1701EQDQ01+000032APCTENQ02+000002APC3  
0087029700999991953021218004+60117+019900FM-12+000399999V0200901N00511004501CN0090001N9-01001-01001102351ADDAA199002091AY121999GF108991081071004501999999IA1319KA1999M-00781MD1310121+9999MW1021
0078029700999991953021300004+60117+019900FM-12+000399999V0200501N00311004501CN0110001N9-01001-01001102401ADDAY121999GF108991081071004501999999MW1021EQDQ01+000032APCTENQ02+000002APC3  
0076029700999991953021306004+60117+019900FM-12+000399999V0209991C00001220001CN0110001N9-01111-01111102491ADDAY121999GF105991001001999999071999IA1319KA1999N-01111MD1310031+9999MW1011
0078029700999991953021312004+60117+019900FM-12+000399999V0200501N00101007801CN0160001N9-01001-01001102561ADDAY111999GF107991071051008001999999MW1031EQDQ01+000032APCTENQ02+000002APC3  
0097029700999991953021318004+60117+019900FM-12+000399999V0200501N00051007801CN0160001N9-01001-01001102511ADDAY121999GF108991081051008001999999IA1319KA1999M-00891MW1021EQDQ01+000032APCTENQ02+000002APC3  
0057029700999991953021400004+60117+019900FM-12+000399999V0200501N00051007801CN0160001N9-01111-01111102391ADDAY121999GF108991081051008001999999MD1990131+9999MW1021
0076029700999991953021406004+60117+019900FM-12+000399999V0209991C00001007801CN0160001N9-01111-01111102241ADDAY121999GF108991081051008001999999IA1319KA1999N-01221MD1810081+9999MW1021
0097029700999991953021418004+60117+019900FM-12+000399999V0202501N00411220001CN0200001N9-00611-00611101851ADDAY111999GF103991031051012501999999IA1319KA1999M-00391MW1011EQDQ01+000082APCTENQ02+000002APC3  
0078029700999991953021500004+60117+019900FM-12+000399999V0202301N00101012301CN0200001N9-00781-00781101911ADDAY111999GF105991051051012501999999MW1031EQDQ01+000042APCTENQ02+000032APC3  
0097029700999991953021506004+60117+019900FM-12+000399999V0209991C00001012301CN0160001N9-01001-01001101971ADDAY111999GF107991071051012501999999IA1319KA1999N-01221MW1031EQDQ01+000032APCTENQ02+000002APC3  
0057029700999991953021512004+60117+019900FM-12+000399999V0209991C00001012301CN0200001N9-00391-00391102081ADDAY121999GF108991081051012501999999MD1310051+9999MW1021
0076029700999991953021518004+60117+019900FM-12+000399999V0209991C00001004501CN0160001N9-00611-00721102011ADDAY121999GF108991081051004501999999IA1319KA1999M-00281MD1810051+9999MW1701
0057029700999991953021600004+60117+019900FM-12+000399999V0209991C00001007801CN0160001N9-00391-00391101801ADDAY121999GF108991081051008001999999MD1810131+9999MW1021
0076029700999991953021606004+60117+019900FM-12+000399999V0202301N00511004501CN0160001N9-00501-00501101521ADDAY121999GF108991081071004501999999IA1319KA1999N-00721MD1810131+9999MW1031
0057029700999991953021612004+60117+019900FM-12+000399999V0202301N00621004501CN0044001N9-00281-00281101201ADDAY121999GF108991081071004501999999MD1810201+9999MW1101
0076029700999991953021618004+60117+019900FM-12+000399999V0202301N00821004501CN0110001N9-00221-00221100811ADDAY121999GF108991081071004501999999IA1319KA1999M-00221MD1810201+9999MW1021
0057029700999991953021700004+60117+019900FM-12+000399999V0202301N00931004501CN0110001N9+00001+00001100051ADDAY171999GF108991081071004501999999MD1810401+9999MW1711
0087029700999991953021706004+60117+019900FM-12+000399999V0202701N00511004501CN0044001N9+00001+00001099401ADDAA199000591AY121999GF108991081071004501999999IA1319KA1999N-00281MD1810371+9999MW1101
0057029700999991953021712004+60117+019900FM-12+000399999V0202701N00101220001CN0200001N9+00111+00111099321ADDAY111999GF103991001001999999031999MD1810051+9999MW1011
0097029700999991953021718004+60117+019900FM-12+000399999V0209991C00001004501CN0160001N9-00221-00221099261ADDAY111999GF106991061051004501999999IA1319KA1999M+00221MW1031EQDQ01+000082APCTENQ02+000002APC3  
0057029700999991953021800004+60117+019900FM-12+000399999V0209991C00001004501CN0160001N9+00001+00001099381ADDAY121999GF108991081071004501999999MD1310041+9999MW1021
0076029700999991953021806004+60117+019900FM-12+000399999V0203201N00721004501CN0160001N9+00111+00111099591ADDAY121999GF107991071051004501999999IA1319KA1999N-00281MD1210131+9999MW1021
0078029700999991953021812004+60117+019900FM-12+000399999V0203201N00211220001CN0200001N9+00221+00221099661ADDAY111999GF104991001001999999051999MW1021EQDQ01+000032APCTENQ02+000002APC3  
0076029700999991953021818004+60117+019900FM-12+000399999V0202301N00821004501CN0200001N9+00001+00001098991ADDAY111999GF107991071051004501999999IA1319KA1999M+00221MD1810431+9999MW1021
0092029700999991953021900004+60117+019900FM-12+000399999V0202301N00721004501CN0160001N9+00111+00111097982ADDAY121999GF108991081071004501999999MD1810522+9999MW1021EQDQ01+097983APOSLPQ02+000522APC3  
0087029700999991953021906004+60117+019900FM-12+000399999V0203201N01031220001CN0200001N9+00001+00001098061ADDAA199002091AY121999GF102991021051008001001001IA1319KA1999N-00111MD1310271+9999MW1011
0057029700999991953021912004+60117+019900FM-12+000399999V0203201N01541007801CN0200001N9-00221-00221098651ADDAY111999GF108991081051008001999999MD1310211+9999MW1021
0095029700999991953021918004+60117+019900FM-12+000399999V0203201N01131220001CN0200001N9-00281-00281099522ADDAY111999GF102991001001999999041999IA1319KA1999M+00281MD1310401+9999MW1011EQDQ01+099523APOSLP
0076029700999991953022006004+60117+019900FM-12+000399999V0203201N00411220001CN0200001N9-00781-00781100751ADDAY101999GF100991001001999999001001IA1009KA1999N-00891MD1310161+9999MW1001
0057029700999991953022012004+60117+019900FM-12+000399999V0202701N00511220001CN0200001N9-00221-00221100801ADDAY101999GF102991001001999999001021MD1310011+9999MW1031
0076029700999991953022018004+60117+019900FM-12+000399999V0201801N00621220001CN0200001N9-00111-00111100461ADDAY111999GF106991001001999999011999IA1319KA1999M-00111MD1810281+9999MW1031
0057029700999991953022100004+60117+019900FM-12+000399999V0201801N00821004501CN0160001N9+00001+00001099541ADDAY121999GF108991081071004501999999MD1810431+9999MW1021
0087029700999991953022106004+60117+019900FM-12+000399999V0202301N00721002401CN0044001N9+00001+00001099111ADDAA199000391AY171999GF108991081071002501999999IA1319KA1999N-00221MD1810151+9999MW1101
0057029700999991953022112004+60117+019900FM-12+000399999V0202001N00411220001CN0200001N9+00281+00281098741ADDAY111999GF106991001001999999041999MD1810271+9999MW1011
0061029700999991953022118004+60117+019900FM-12+000399999V0202001N001019999999N0160001N9+99999+99999999999ADDAA199001091AY121999IA1209KA1999M+00281MD1810131+9999MW1611
0057029700999991953022200004+60117+019900FM-12+000399999V0203201N00721012301CN0160001N9+00281+00281098811ADDAY111999GF107991071051012501999999MD1310411+9999MW1021
0076029700999991953022206004+60117+019900FM-12+000399999V0203201N00821012301CN0200001N9+00221+00221099381ADDAY121999GF106991061051012501999999IA1319KA1999N+00111MD1310321+9999MW1011
0057029700999991953022212004+60117+019900FM-12+000399999V0203201N00721220001CN0200001N9+00221+00221099851ADDAY111999GF102991001001999999051999MD1310231+9999MW1011
0076029700999991953022218004+60117+019900FM-12+000399999V0203601N00311220001CN0200001N9-00221-00221099991ADDAY101999GF100991001001999999001001IA1309KA1999M+00391MD1310041+9999MW1001
0057029700999991953022300004+60117+019900FM-12+000399999V0209991C00001220001CN0200001N9-00721-00721100411ADDAY101999GF100991001001999999001001MD1310311+9999MW1001
0095029700999991953022306004+60117+019900FM-12+000399999V0209991C00001220001CN0200001N9-01281-01281100681ADDAY101999GF102991999001999999051001IA1209KA1999N-01391MD1310041+9999MW1001EQDQ01+000002SCOTLC
0057029700999991953022312004+60117+019900FM-12+000399999V0201801N00411220001CN0200001N9-00391-00391100651ADDAY111999GF105991001001999999001061MD1990121+9999MW1021
0076029700999991953022318004+60117+019900FM-12+000399999V0201801N00411220001CN0200001N9+00001+00001100311ADDAY121999GF108991001001999999021999IA1209KA1999M+00111MD1810151+9999MW1021
0078029700999991953022400004+60117+019900FM-12+000399999V0201501N00101220001CN0200001N9+00001+00001100461ADDAY121999GF108991001001999999021999MW1021EQDQ01+000042APCTENQ02+000162APC3  
0076029700999991953022406004+60117+019900FM-12+000399999V0209991C00001001501CN0044001N9+00001+00001101121ADDAY121999GF108991081051001501999999IA1209KA1999N-00111MD1310371+9999MW1681
0057029700999991953022412004+60117+019900FM-12+000399999V0203201N00211002401CN0160001N9+00001+00001101791ADDAY121999GF108991081071002501999999MD1310271+9999MW1021
0076029700999991953022418004+60117+019900FM-12+000399999V0202301N00211002401CN0160001N9-00111-00111102241ADDAY121999GF108991081071002501999999IA1209KA1999M+00111MD1310251+9999MW1021
0057029700999991953022500004+60117+019900FM-12+000399999V0202301N00311002401CN0160001N9-00221-00221102511ADDAY121999GF108991081071002501999999MD1310111+9999MW1021
0076029700999991953022506004+60117+019900FM-12+000399999V0202001N00721002401CN0160001N9+00001+00001102381ADDAY121999GF108991081071002501999999IA1209KA1999N-00221MD1810131+9999MW1021
0078029700999991953022512004+60117+019900FM-12+000399999V0202001N00721002401CN0110001N9+00001+00001102371ADDAY151999GF108991081071002501999999MW1521EQDQ01+000082APCTENQ02+000002APC3  
0087029700999991953022518004+60117+019900FM-12+000399999V0202001N01231002401CN0110001N9+00111+00111102081ADDAA199001091AY121999GF108991081071002501999999IA1009KA1999M+00111MD1810111+9999MW1101
0057029700999991953022600004+60117+019900FM-12+000399999V0209991C00001002401CN0110001N9+00221+00221102291ADDAY121999GF108991081071002501999999MD1990191+9999MW1101
0076029700999991953022606004+60117+019900FM-12+000399999V0209991C00001000151CN0008001N9+00221+00221102511ADDAY141999GF109991091999000251999999IA1209KA1999N+00001MD1310161+9999MW1471
0057029700999991953022612004+60117+019900FM-12+000399999V0202001N00721000151CN0004001N9+00221+00221102251ADDAY141999GF109991091999999999999999MD1810191+9999MW1451
0076029700999991953022618004+60117+019900FM-12+000399999V0202001N00511002401CN0110001N9+00221+00221101921ADDAY141999GF108991081071002501999999IA1209KA1999M+00281MD1810051+9999MW1101
0057029700999991953022700004+60117+019900FM-12+000399999V0202901N00051220001CN0160001N9+00281+00281102111ADDAY111999GF100991001001999999001001MD1310161+9999MW1001
0097029700999991953022706004+60117+019900FM-12+000399999V0209991C00001000151CN0004001N9+00221+00221102191ADDAY141999GF109991091999000251999999IA1209KA1999N+00111MW1471EQDQ01+000032APCTENQ02+000002APC3  
0057029700999991953022712004+60117+019900FM-12+000399999V0202301N00311000151CN0008001N9+00111+00111101881ADDAY141999GF109991091999000251999999MD1810161+9999MW1451
0087029700999991953022718004+60117+019900FM-12+000399999V0200501N00211001501CN0044001N9+00001+00001101941ADDAA199007091AY161999GF108991081071001501999999IA1209KA1999M+00391MD1310291+9999MW1681
0057029700999991953022800004+60117+019900FM-12+000399999V0203601N00101004501CN0160001N9+00111+00111102551ADDAY121999GF108991081051004501999999MD1310211+9999MW1021
0087029700999991953022806004+60117+019900FM-12+000399999V0203201N00411220001CN0200001N9+00001+00001103141ADDAA199001091AY141999GF105991001001999999051999IA1209KA1999N-00111MD1310211+9999MW1011
0057029700999991953022812004+60117+019900FM-12+000399999V0203201N00311220001CN0200001N9+00391+00391103451ADDAY111999GF102991001001999999001021MD1310131+9999MW1021
0076029700999991953022818004+60117+019900FM-12+000399999V0209991C00001220001CN0200001N9-00221-00221103311ADDAY111999GF101991001001999999001021IA1209KA1999M+00391MD1810041+9999MW1011
0076029700999991953030106004+60117+019900FM-12+000399999V0202701N00211220001CN0200001N9+00001+00001102721ADDAY101999GF102991001001999999041999IA1209KA1999N+00001MD1810171+9999MW1031
0057029700999991953030112004+60117+019900FM-12+000399999V0202701N00211220001CN0200001N9+00391+00391102561ADDAY111999GF102991001001999999001021MD1810111+9999MW1021
0097029700999991953030118004+60117+019900FM-12+000399999V0202301N00211220001CN0200001N9+00111+00111102421ADDAY111999GF102991001001999999041999IA1209KA1999M+00611MW1021EQDQ01+000082APCTENQ02+000002APC3  
0057029700999991953030212004+60117+019900FM-12+000399999V0202301N00621000151CN0044001N9+00221+00111101891ADDAY141999GF106991061061000251999999MD1810241+9999MW1421
0076029700999991953030300004+60117+019900FM-12+000399999V0203201N00721220001CN0200001N9+00281+00281100241ADDAY111999GF102991999001999999071001MD1810131+9999MW1021EQDQ01+000002SCOTLC
0076029700999991953030306004+60117+019900FM-12+000399999V0203201N01031220001CN0200001N9+00221+00221100521ADDAY111999GF105991001001999999041999IA1209KA1999N+00111MD1310271+9999MW1021
0057029700999991953030312004+60117+019900FM-12+000399999V0203401N01651030001CN0200001N9+00001+00001101381ADDAY111999GF105991041091004501061999MD1310451+9999MW1021
0076029700999991953030318004+60117+019900FM-12+000399999V0203401N01031004501CN0200001N9-00111-00111101801ADDAY111999GF105991051091004501999999IA1209KA1999M+00611MD1310281+9999MW1021
0057029700999991953030400004+60117+019900FM-12+000399999V0203601N00511004501CN0200001N9-00221-00221101911ADDAY111999GF108991081051004501999999MD1310051+9999MW1031
0113029700999991953030406004+60117+019900FM-12+000399999V0209991C00001220001CN0200001N9-00781-00891101851ADDAY111999GF102991999001999999041001IA1209KA1999N-00781MW1031EQDQ01+000002SCOTLCQ02+000082APCTENQ03+000002APC3  
0057029700999991953030412004+60117+019900FM-12+000399999V0202301N00211220001CN0160001N9+00001+00001101711ADDAY111999GF104991011011012501041001MD1810111+9999MW1031
0076029700999991953030418004+60117+019900FM-12+000399999V0200901N00211220001CN0200001N9-00281-00281101841ADDAY111999GF102991021051008001999999IA1209KA1999M+00111MD1810271+9999MW1011
0057029700999991953030500004+60117+019900FM-12+000399999V0202301N00101220001CN0200001N9-00891-00891102681ADDAY101999GF100991001001999999001001MD1310281+9999MW1001
0076029700999991953030506004+60117+019900FM-12+000399999V0202301N00101220001CN0200001N9-01221-01221102981ADDAY101999GF102991001001999999041999IA1209KA1999N-01501MD1310081+9999MW1031
0057029700999991953030512004+60117+019900FM-12+000399999V0202301N00821220001CN0200001N9+00001+00001102741ADDAY111999GF107991001001999999041071MD1990191+9999MW1031
0057029700999991953030600004+60117+019900FM-12+000399999V0209991C00001220001CN0200001N9+00001+00001102201ADDAY101999GF100991001001999999001001MD1810051+9999MW1001
0076029700999991953030606004+60117+019900FM-12+000399999V0209991C00001012301CN0200001N9+00111+00111101921ADDAY101999GF106991061051012501999999IA1209KA1999N-00391MD1810161+9999MW1001
0076029700999991953030612004+60117+019900FM-12+000399999V0202301N00411220001CN0200001N9+00501+00501101451ADDAY111999GF102991999001999999041001MD1810251+9999MW1011EQDQ01+000002SCOTLC
0076029700999991953030618004+60117+019900FM-12+000399999V0201301N003119999999N0200001N9+00001+00001100751ADDAY121999GF108991011051012501999999IA1209KA1999M+00611MD1810211+9999MW1011
0057029700999991953030712004+60117+019900FM-12+000399999V0200201N00931220001CN0200001N9+00221+00221100741ADDAY111999GF102991011011012501051001MD1310391+9999MW1011
0057029700999991953030812004+60117+019900FM-12+000399999V0203401N00101220001CN0200001N9+00111+00111102751ADDAY111999GF107991001001999999011999MD1810081+9999MW1031
0076029700999991953030906004+60117+019900FM-12+000399999V0202701N00311012301CN0200001N9+00221+00221101251ADDAY121999GF107991071051012501999999IA1209KA1999N+00111MD1810131+9999MW1021
0078029700999991953030912004+60117+019900FM-12+000399999V0203201N00931220001CN0200001N9+00501+00501101181ADDAY111999GF101991001001999999001021MW1011EQDQ01+000042APCTENQ02+000122APC3  
0076029700999991953030918004+60117+019900FM-12+000399999V0203201N01131012301CN0200001N9+00111+00111101341ADDAY121999GF107991071051012501001001IA1209KA1999M+00611MD1310121+9999MW1031
0057029700999991953031012004+60117+019900FM-12+000399999V0203401N01341220001CN0200001N9+00001+00001102591ADDAY111999GF103991031051999999001001MD1310161+9999MW1021
0057029700999991953031100004+60117+019900FM-12+000399999V0209991C00001220001CN0200001N9-00611-00611102291ADDAY101999GF100991001001999999001001MD1810091+9999MW1001
0097029700999991953031106004+60117+019900FM-12+000399999V0209991C00001220001CN0200001N9-00391-00391102011ADDAY111999GF108991001001999999011999IA1209KA1999N-00781MW1031EQDQ01+000082APCTENQ02+000002APC3  
0057029700999991953031112004+60117+019900FM-12+000399999V0201801N00211220001CN0200001N9-00111-00111102091ADDAY121999GF108991001001999999011999MD1810021+9999MW1021
0087029700999991953031118004+60117+019900FM-12+000399999V0201101N00101220001CN0200001N9-00611-00611102321ADDAA199001091AY121999GF108991001001999999071999IA1209KA1999M+00001MD1310171+9999MW1021
0057029700999991953031200004+60117+019900FM-12+000399999V0209991C00001220001CN0200001N9-01221-01221102661ADDAY101999GF100991001001999999001001MD1310131+9999MW1001
0076029700999991953031206004+60117+019900FM-12+000399999V0209991C00001012301CN0200001N9-01111-01111102781ADDAY111999GF107991071051012501999999IA1209KA1999N-01501MD1310031+9999MW1031
0078029700999991953031212004+60117+019900FM-12+000399999V0209991C00001220001CN0200001N9-00221-00221102841ADDAY111999GF106991001001999999061999MW1021EQDQ01+000032APCTENQ02+000002APC3  
0076029700999991953031218004+60117+019900FM-12+000399999V0209991C00001012301CN0200001N9-00281-00281102771ADDAY121999GF107991071051012501999999IA1209KA1999M-00221MD1310041+9999MW1031
0078029700999991953031300004+60117+019900FM-12+000399999V0209991C00001012301CN0200001N9-00221-00221102741ADDAY121999GF108991081051012501999999MW1021EQDQ01+000082APCTENQ02+000002APC3  
0076029700999991953031306004+60117+019900FM-12+000399999V0209991C000019999999N0008001N9-00281-00281102821ADDAY121999GF105991031061999999041999IA1209KA1999N-00281MD1310131+9999MW1461
0057029700999991953031312004+60117+019900FM-12+000399999V0201801N00411002401CN0200001N9+00221+00221103261ADDAY121999GF105991051061002501999999MD1310191+9999MW1011
0076029700999991953031318004+60117+019900FM-12+000399999V0202001N00511220001CN0200001N9+00001+00001103211ADDAY111999GF103991031051004501999999IA1209KA1999M+00501MD1810081+9999MW1011
0057029700999991953031400004+60117+019900FM-12+000399999V0202001N00721220001CN0200001N9+00001+00001102841ADDAY101999GF100991001001999999001001MD1810351+9999MW1001
0076029700999991953031406004+60117+019900FM-12+000399999V0202701N00101220001CN0200001N9+00111+00111102661ADDAY111999GF106991001001999999071999IA1209KA1999N-00111MD1810011+9999MW1031
0057029700999991953031412004+60117+019900FM-12+000399999V0203201N00411220001CN0200001N9+00721+00721102801ADDAY111999GF106991001001999999071999MD1310081+9999MW1021
0076029700999991953031418004+60117+019900FM-12+000399999V0209991C00001220001CN0200001N9+00281+00281102921ADDAY111999GF102991001001999999001021IA1199KA1999M+00781MD1310111+9999MW1011
0113029700999991953031506004+60117+019900FM-12+000399999V0209991C00001220001CN0200001N9-00221-00221103221ADDAY101999GF102991999001999999041001IA1199KA1999N-00391MW1031EQDQ01+000002SCOTLCQ02+000032APCTENQ03+000002APC3  
0076029700999991953031512004+60117+019900FM-12+000399999V0209991C00001220001CN0200001N9+00891+00891103181ADDAY101999GF101991999001999999041001MD1310031+9999MW1011EQDQ01+000002SCOTLC
0095029700999991953031518004+60117+019900FM-12+000399999V0209991C00001220001CN0200001N9+00221+00221103191ADDAY111999GF104991999001999999041001IA1199KA1999M+01001MD1310031+9999MW1031EQDQ01+000002SCOTLC
0057029700999991953031600004+60117+019900FM-12+000399999V0209991C00001000151CN0004001N9-00221-00221103251ADDAY101999GF109991091999000251999999MD1810051+9999MW1471
0076029700999991953031606004+60117+019900FM-12+000399999V0202301N00101000151CN0004001N9-00111-00111103321ADDAY141999GF109991091999000251999999IA1199KA1999N-00281MD1310041+9999MW1451
0057029700999991953031612004+60117+019900FM-12+000399999V0202001N00411000151CN0004001N9+00001+00001103391ADDAY141999GF109991091999000251999999MD1310071+9999MW1451
0076029700999991953031618004+60117+019900FM-12+000399999V0202001N00511001501CN0160001N9+00111+00111103221ADDAY121999GF108991081061001501999999IA1199KA1999M+00221MD1810111+9999MW1021
0057029700999991953031700004+60117+019900FM-12+000399999V0201801N00621004501CN0160001N9+00111+00111103121ADDAY121999GF108991081051004501999999MD1810091+9999MW1021
0076029700999991953031706004+60117+019900FM-12+000399999V0202301N00721004501CN0060001N9-00111-00111102921ADDAY121999GF108991081051004501999999IA1199KA1999N-00111MD1810081+9999MW1101
0057029700999991953031712004+60117+019900FM-12+000399999V0202301N00721000601CN0044001N9+00001+00001102771ADDAY121999GF108991081061000751999999MD1810081+9999MW1101
0095029700999991953031718004+60117+019900FM-12+000399999V0202301N00411220001CN0044001N9+00001+00001102661ADDAY111999GF101991999001999999051001IA1199KA1999M+00111MD1810011+9999MW1101EQDQ01+000002SCOTLC
0078029700999991953031800004+60117+019900FM-12+000399999V0202301N00101220001CN0110001N9-00281-00281102791ADDAY101999GF100991001001999999001001MW1101EQDQ01+000032APCTENQ02+000002APC3  
0076029700999991953031806004+60117+019900FM-12+000399999V0203401N00211220001CN0200001N9-00111-00111102911ADDAY101999GF102991001001999999001021IA1199KA1999N-00391MD1310091+9999MW1031
0057029700999991953031812004+60117+019900FM-12+000399999V0203601N00621220001CN0200001N9+00781+00501103101ADDAY111999GF102991001001999999001021MD1310211+9999MW1021
0076029700999991953031818004+60117+019900FM-12+000399999V0203201N00211220001CN0200001N9-00111-00111103311ADDAY111999GF101991001001999999001021IA1199KA1999M+00611MD1310111+9999MW1011
0057029700999991953031900004+60117+019900FM-12+000399999V0209991C00001220001CN0200001N9-00221-00221103521ADDAY101999GF100991001001999999001001MD1310051+9999MW1001
0076029700999991953031906004+60117+019900FM-12+000399999V0209991C00001220001CN0200001N9-00721-00721103661ADDAY101999GF102991001001999999001021IA1199KA1999N-00781MD1310111+9999MW1031
0057029700999991953031912004+60117+019900FM-12+000399999V0202301N00211220001CN0200001N9+00611+00611103821ADDAY111999GF102991001001999999001021MD1310091+9999MW1021
0076029700999991953031918004+60117+019900FM-12+000399999V0201801N00311220001CN0200001N9-00111-00111103721ADDAY111999GF104991001001999999001061IA1199KA1999M+00611MD1810041+9999MW1031
0076029700999991953032000004+60117+019900FM-12+000399999V0209991C00001220001CN0200001N9-00111-00111103661ADDAY101999GF101991999001999999041001MD1810031+9999MW1031EQDQ01+000002SCOTLC
0057029700999991953032012004+60117+019900FM-12+000399999V0202301N00511220001CN0200001N9+00281+00281103521ADDAY111999GF102991001001999999001021MD1810011+9999MW1021
0076029700999991953032018004+60117+019900FM-12+000399999V0202001N00511220001CN0200001N9+00111+00111103251ADDAY111999GF103991001001999999001021IA1199KA1999M+00281MD1810111+9999MW1021
0057029700999991953032100004+60117+019900FM-12+000399999V0202301N00511220001CN0200001N9+00001+00001102941ADDAY101999GF100991001001999999001001MD1810201+9999MW1001
0095029700999991953032106004+60117+019900FM-12+000399999V0202301N00411001501CN0200001N9+00001+00001102391ADDAY101999GF108991081071001501999999IA1199KA1999N+99999MD1810311+9999MW1031EQDQ01 +00112ATMN  
0057029700999991953032112004+60117+019900FM-12+000399999V0202301N00621220001CN0160001N9+00391+00391102181ADDAY111999GF106991001001999999001091MD1810211+9999MW1051
0095029700999991953032118004+60117+019900FM-12+000399999V0202501N00621220001CN0160001N9+00501+00501101991ADDAY111999GF101991999001999999041001IA1199KA1999M+00611MD1310011+9999MW1011EQDQ01+000002SCOTLC
0078029700999991953032200004+60117+019900FM-12+000399999V0202501N00411220001CN0200001N9+00391+00391102001ADDAY111999GF105991001001999999041999MW1031EQDQ01+000032APCTENQ02+000002APC3  
0076029700999991953032206004+60117+019900FM-12+000399999V0203401N00511220001CN0200001N9+00721+00721102211ADDAY111999GF108991001001999999041071IA1199KA1999N+00391MD1310191+9999MW1031
0057029700999991953032212004+60117+019900FM-12+000399999V0200201N00211220001CN0200001N9+00721-00111102641ADDAY111999GF105991001001999999041061MD1310271+9999MW1011
0097029700999991953032218004+60117+019900FM-12+000399999V0200201N00101220001CN0200001N9+00391+00281102741ADDAY111999GF106991001001999999051011IA1199KA1999M+00781MW1021EQDQ01+000032APCTENQ02+000002APC3  
0057029700999991953032300004+60117+019900FM-12+000399999V0202301N00511012301CN0200001N9+00281+00111102511ADDAY121999GF107991071051012501999999MD1810201+9999MW1021
0076029700999991953032306004+60117+019900FM-12+000399999V0202301N00621001501CN0044001N9+00221+00221101941ADDAY121999GF108991081061001501999999IA1199KA1999N+00111MD1810271+9999MW1101
0076029700999991953032318004+60117+019900FM-12+000399999V0202701N00311220001CN0200001N9+00391+00221101511ADDAY111999GF103991001001999999041999IA1089KA1999M+00611MD1810081+9999MW1021
0057029700999991953032400004+60117+019900FM-12+000399999V0202701N00511220001CN0200001N9+00391+00221101411ADDAY121999GF107991001001999999071999MD1810081+9999MW1021
0113029700999991953032406004+60117+019900FM-12+000399999V0202701N00411220001CN0200001N9+00281+00281101361ADDAY101999GF106991001001999999001071IA1199KA1999N+99999MW1031EQDQ01+000082APCTENQ02+000002APC3  Q03 +00392ATMN  
0057029700999991953032412004+60117+019900FM-12+000399999V0202701N00821220001CN0200001N9+00781+00501100981ADDAY111999GF106991001001999999041999MD1810231+9999MW1021
0097029700999991953032418004+60117+019900FM-12+000399999V0202901N01031220001CN0200001N9+01001+00281100821ADDAY111999GF106991001001999999071999IA1189KA1999M+01001MW1021EQDQ01+000082APCTENQ02+000002APC3  
0057029700999991953032512004+60117+019900FM-12+000399999V0202701N00931220001CN0200001N9+01221+00391101321ADDAY111999GF104991001001999999051999MD1310051+9999MW1031
0057029700999991953032612004+60117+019900FM-12+000399999V0202301N00621220001CN0200001N9+00721+00391100061ADDAY121999GF106991001001999999041999MD1810291+9999MW1021
0057029700999991953032812004+60117+019900FM-12+000399999V0202001N00311075001CN0200001N9+00281+00001100691ADDAY111999GF106991011011012501001071MD1310161+9999MW1021
0078029700999991953032912004+60117+019900FM-12+000399999V0202301N01131004501CN0160001N9+00391+00391098951ADDAY181999GF108991061091004501999999MW1801EQDQ01+000082APCTENQ02+000002APC3  
0078029700999991953033012004+60117+019900FM-12+000399999V0202301N00721012301CN0200001N9+00501+00281099201ADDAY121999GF107991071051012501999999MW1021EQDQ01+000032APCTENQ02+000002APC3  
0043029700999991953033112004+60117+019900FM-12+000399999V0203601N00931220001CN0200001N9-00221-00501099251ADDAY171999GF106991001001999999999999MW1011
0057029700999991953040100004+60117+019900FM-12+000399999V0209991C00001012301CN0200001N9-00611-00611100561ADDAY101999GF106991061051012501999999MD1310091+9999MW1031
0076029700999991953040106004+60117+019900FM-12+000399999V0209991C00001220001CN0200001N9-00891-00891101261ADDAY111999GF102991021051012501001001IA1309KA1999N-01111MD1310231+9999MW1011
0057029700999991953040112004+60117+019900FM-12+000399999V0202301N00311220001CN0200001N9+00111+00001101611ADDAY101999GF100991001001999999001001MD1310211+9999MW1001
0076029700999991953040118004+60117+019900FM-12+000399999V0202301N00621220001CN0200001N9+00001+00001101921ADDAY101999GF102991001001999999001021IA1309KA1999M+00281MD1310161+9999MW1031
0087029700999991953040206004+60117+019900FM-12+000399999V0201401N01031004501CN0090001N9+00111+00111101941ADDAA199000691AY171999GF108991081071004501999999IA1089KA1999N-00391MD1810171+9999MW1731
0094029700999991953040212004+60117+019900FM-12+000399999V0201401N01031001501CN0090001N9+00221+00111098152ADDAY171999GF108991081071001501999999MW1021EQDQ01+098153APOSLPQ02+000082APCTENQ03+000002APC3  
0087029700999991953040218004+60117+019900FM-12+000399999V0201801N01031001501CN0090001N9+00221+00221098121ADDAA199008091AY161999GF108991081071001501999999IA1109KA1999M+00281MD1310081+9999MW1611
0076029700999991953040300004+60117+019900FM-12+000399999V0201401N00721012301CN0160001N9+00501+00281101882ADDAY121999GF108991081051012501999999MD1310041+9999MW1021EQDQ01+101883APOSLP
0087029700999991953040306004+60117+019900FM-12+000399999V0201401N00931001501CN0200001N9+00391+00221101581ADDAA199001091AY121999GF108991081071001501999999IA1109KA1999N+00221MD1810211+9999MW1021
0057029700999991953040312004+60117+019900FM-12+000399999V0201401N01131220001CN0200001N9+00501+00391101411ADDAY121999GF108991001001999999071999MD1810131+9999MW1021
0076029700999991953040318004+60117+019900FM-12+000399999V0201801N01031220001CN0200001N9+00611+00391101111ADDAY111999GF108991001001999999071999IA1109KA1999M+00721MD1810231+9999MW1011
0078029700999991953040400004+60117+019900FM-12+000399999V0201801N01031220001CN0200001N9+00501+00501101111ADDAY121999GF108991001001999999071011MW1021EQDQ01+000082APCTENQ02+000002APC3  
0097029700999991953040406004+60117+019900FM-12+000399999V0201801N00211000601CN0024001N9+00391+00281101111ADDAY141999GF107991071061000751999999IA1109KA1999N+00281MW1421EQDQ01+000082APCTENQ02+000002APC3  
0057029700999991953040412004+60117+019900FM-12+000399999V0201801N008219999999N0044001N9+00721+00391101241ADDAY121999GF106991021061001501999071MD1410001+9999MW1101
0076029700999991953040418004+60117+019900FM-12+000399999V0201801N00511220001CN0200001N9+00501+00391101211ADDAY111999GF102991001001999999001051IA1109KA1999M+00781MD1310071+9999MW1011
0057029700999991953040500004+60117+019900FM-12+000399999V0201801N00821220001CN0200001N9+00501+00391101181ADDAY161999GF100991001001999999001001MD1810071+9999MW1001
0097029700999991953040506004+60117+019900FM-12+000399999V0201801N00821220001CN0200001N9+00501+00281101141ADDAY101999GF100991001001999999001001IA1109KA1999N+00391MW1001EQDQ01+000082APCTENQ02+000002APC3  
0094029700999991953040512004+60117+019900FM-12+000399999V0201801N01031220001CN0200001N9+00721+00391101041ADDAY101999GF101991999001999999051001MW1031EQDQ01+000002SCOTLCQ02+000082APCTENQ03+000002APC3  
0043029700999991953040518004+60117+019900FM-12+000399999V0201601N011319999999N0160001N9+99999+99999999999ADDAY161999GF108991081071999999999999MW1601
0078029700999991953040600004+60117+019900FM-12+000399999V0202301N00821012301CN0200001N9+00281+00281100981ADDAY121999GF107991071051012501999999MW1011EQDQ01+000042APCTENQ02+000272APC3  
0087029700999991953040606004+60117+019900FM-12+000399999V0202301N00411220001CN0200001N9+00221+00111101241ADDAA199001091AY101999GF106991001001999999001071IA1109KA1999N+00221MD1310151+9999MW1031
0078029700999991953040612004+60117+019900FM-12+000399999V0201301N00411220001CN0200001N9+00721+00281101321ADDAY111999GF106991001001999999001021MW1031EQDQ01+000032APCTENQ02+000002APC3  
0076029700999991953040618004+60117+019900FM-12+000399999V0201401N00411004501CN0160001N9+00221+00221101141ADDAY111999GF108991081071004501999999IA1109KA1999M+00721MD1810041+9999MW1021
0057029700999991953040700004+60117+019900FM-12+000399999V0201401N00511004501CN0160001N9+00221+00111100951ADDAY121999GF108991081071004501999999MD1810121+9999MW1021
0076029700999991953040706004+60117+019900FM-12+000399999V0201601N00211000151CN0002001N9+00221+00221100771ADDAY141999GF109991091999000251999999IA1109KA1999N+00001MD1810131+9999MW1471
0057029700999991953040712004+60117+019900FM-12+000399999V0201601N00211000151CN0002001N9+00221+00221100751ADDAY141999GF109991091999000251999999MD1810031+9999MW1451
0076029700999991953040718004+60117+019900FM-12+000399999V0201601N00211000151CN0002001N9+00221+00221100551ADDAY141999GF109991091999000251999999IA1109KA1999M+00391MD1810071+9999MW1451
0057029700999991953040800004+60117+019900FM-12+000399999V0202301N00311004501CN0110001N9+00221+00111100381ADDAY121999GF108991081071004501999999MD1810161+9999MW1021
0087029700999991953040806004+60117+019900FM-12+000399999V0202301N00101002401CN0044001N9+00281+00281100151ADDAA199000591AY151999GF108991081071002501999999IA1109KA1999N+00111MD1310031+9999MW1511
0057029700999991953040812004+60117+019900FM-12+000399999V0202901N00211220001CN0200001N9+00611+00501100351ADDAY111999GF106991001001999999001061MD1310071+9999MW1011
0076029700999991953040818004+60117+019900FM-12+000399999V0202301N00821220001CN0200001N9+00391+00221100051ADDAY111999GF108991001001999999021999IA1089KA1999M+00781MD1810271+9999MW1031
0078029700999991953040900004+60117+019900FM-12+000399999V0202301N00511220001CN0200001N9+00281+00111099981ADDAY111999GF101991011051012501001001MW1011EQDQ01+000082APCTENQ02+000002APC3  
0076029700999991953040906004+60117+019900FM-12+000399999V0202501N00721220001CN0200001N9+00111+00001100081ADDAY111999GF101991011071008001001001IA1089KA1999N+00001MD1310091+9999MW1021
0057029700999991953040912004+60117+019900FM-12+000399999V0202701N00411220001CN0200001N9+00611-00111100291ADDAY111999GF101991011011008001001001MD1310151+9999MW1021
0076029700999991953040918004+60117+019900FM-12+000399999V0201801N00101030001CN0200001N9+00221+00221100441ADDAY111999GF106991031041012501051999IA1089KA1999M+00721MD1310091+9999MW1031
0057029700999991953041000004+60117+019900FM-12+000399999V0209991C00001220001CN0200001N9+00111-00221100691ADDAY111999GF100991001001999999001001MD1310111+9999MW1001
0076029700999991953041006004+60117+019900FM-12+000399999V0203401N00721220001CN0200001N9+00111+00001101051ADDAY101999GF100991001001999999001001IA1139KA1999N-00221MD1310191+9999MW1001
0076029700999991953041018004+60117+019900FM-12+000399999V0203201N00101220001CN0200001N9+00281-00391101781ADDAY111999GF101991011041004501001001IA1009KA1999M+00501MD1310211+9999MW1021
0057029700999991953041100004+60117+019900FM-12+000399999V0209991C00001220001CN0200001N9+00001-00111102251ADDAY101999GF100991001001999999001001MD1310171+9999MW1001
0076029700999991953041106004+60117+019900FM-12+000399999V0202301N00211220001CN0200001N9+00111-00281102481ADDAY101999GF102991001001999999001061IA1139KA1999N-00391MD1310051+9999MW1031
0057029700999991953041112004+60117+019900FM-12+000399999V0202301N00821220001CN0200001N9+00501+00281102281ADDAY111999GF105991001001999999001021MD1990161+9999MW1021
0076029700999991953041118004+60117+019900FM-12+000399999V0202301N00821220001CN0200001N9+00391+00221102061ADDAY111999GF107991001001999999021999IA1089KA1999M+00611MD1810071+9999MW1031
0057029700999991953041200004+60117+019900FM-12+000399999V0201801N00821220001CN0200001N9+00281+00001101941ADDAY121999GF107991001001999999021999MD1810121+9999MW1021
0076029700999991953041206004+60117+019900FM-12+000399999V0202001N00721220001CN0200001N9+00281+00221101751ADDAY121999GF108991001001999999021999IA1009KA1999N+00221MD1810111+9999MW1021
0057029700999991953041212004+60117+019900FM-12+000399999V0201801N01031220001CN0200001N9+00391+00391101601ADDAY111999GF107991001001999999021999MD1810081+9999MW1021
0097029700999991953041218004+60117+019900FM-12+000399999V0202001N00931220001CN0200001N9+00281+00221101461ADDAY111999GF107991001001999999071999IA1089KA1999M+00611MW1021EQDQ01+000082APCTENQ02+000002APC3  
0062029700999991953041300004+60117+019900FM-12+000399999V0201801N00721220001CN9999999N9+00281+00281101361ADDGF102991999001999999071001MD1810131+9999EQDQ01+000002SCOTLC
0076029700999991953041306004+60117+019900FM-12+000399999V0201801N00721220001CN0200001N9+00501+00391101251ADDAY111999GF105991001001999999041999IA1089KA1999N+00281MD1810051+9999MW1031
0078029700999991953041312004+60117+019900FM-12+000399999V0201801N00821220001CN0200001N9+00781+00501101291ADDAY111999GF100991001001999999001001MW1001EQDQ01+000082APCTENQ02+000002APC3  
0076029700999991953041318004+60117+019900FM-12+000399999V0201801N00511220001CN0200001N9+00501+00221101221ADDAY111999GF102991001001999999001021IA1089KA1999M+00781MD1810111+9999MW1031
0057029700999991953041400004+60117+019900FM-12+000399999V0201801N00931220001CN0200001N9+00501+00281101141ADDAY101999GF100991001001999999001001MD1310031+9999MW1001
0095029700999991953041406004+60117+019900FM-12+000399999V0202301N00211220001CN0200001N9+00611+00281101521ADDAY111999GF104991999001999999041001IA1089KA1999N+00281MD1310241+9999MW1031EQDQ01+000002SCOTLC
0076029700999991953041418004+60117+019900FM-12+000399999V0203401N00311220001CN0200001N9+00501+00221101741ADDAY111999GF107991001001999999071999IA1089KA1999M+01001MD1810051+9999MW1031
0076029700999991953041500004+60117+019900FM-12+000399999V0200201N00411220001CN0200001N9+00281+00111101491ADDAY111999GF102991999001999999051001MD1810161+9999MW1011EQDQ01+000002SCOTLC
0076029700999991953041506004+60117+019900FM-12+000399999V0200201N00101220001CN0200001N9+00391+00221101401ADDAY111999GF107991001001999999011999IA1089KA1999N+00111MD1810031+9999MW1031
0078029700999991953041512004+60117+019900FM-12+000399999V0201401N00101220001CN0200001N9+01001+00501101541ADDAY111999GF106991001001999999041999MW1021EQDQ01+000042APCTENQ02+000172APC3  
0095029700999991953041518004+60117+019900FM-12+000399999V0201401N00101220001CN0200001N9+00611+00281101621ADDAY111999GF104991999001999999041001IA1089KA1999M+01111MD1310041+9999MW1011EQDQ01+000002SCOTLC
0057029700999991953041600004+60117+019900FM-12+000399999V0209991C00001220001CN0200001N9+00001+00001101661ADDAY111999GF104991001001999999071999MD1990071+9999MW1031
0076029700999991953041606004+60117+019900FM-12+000399999V0200201N00101220001CN0200001N9+00281+00221101601ADDAY111999GF103991001001999999051999IA1089KA1999N-00111MD1810041+9999MW1011
0078029700999991953041612004+60117+019900FM-12+000399999V0203201N00311220001CN0200001N9+00781+00391101591ADDAY111999GF106991001001999999051999MW1031EQDQ01+000042APCTENQ02+000072APC3  
0076029700999991953041618004+60117+019900FM-12+000399999V0203201N00211220001CN0200001N9+00281+00281101711ADDAY121999GF107991001001999999071999IA1089KA1999M+01221MD1310071+9999MW1021
0076029700999991953041700004+60117+019900FM-12+000399999V0209991C00001220001CN0200001N9+00111+00001101891ADDAY121999GF102991999001999999021001MD1310071+9999MW1011EQDQ01+000002SCOTLC
0076029700999991953041706004+60117+019900FM-12+000399999V0201801N00051220001CN0200001N9+00221-00391102081ADDAY111999GF103991001001999999041999IA1089KA1999N-00391MD1310081+9999MW1031
0057029700999991953041712004+60117+019900FM-12+000399999V0201801N00311220001CN0200001N9+00781+00391102181ADDAY101999GF102991011021012501001021MD1310031+9999MW1031
0076029700999991953041718004+60117+019900FM-12+000399999V0202001N00101220001CN0200001N9+00391+00281102161ADDAY111999GF106991001001999999071999IA1089KA1999M+00891MD1310051+9999MW1031
0076029700999991953041800004+60117+019900FM-12+000399999V0209991C00001220001CN0200001N9-00111-00221102111ADDAY111999GF101991999001999999071001MD1990081+9999MW1011EQDQ01+000002SCOTLC
0097029700999991953041806004+60117+019900FM-12+000399999V0203601N00411220001CN0200001N9+00391-00111102061ADDAY111999GF101991001001999999041021IA1089KA1999N-00221MW1031EQDQ01+000082APCTENQ02+000002APC3  
0057029700999991953041812004+60117+019900FM-12+000399999V0202301N00101220001CN0200001N9+01001+00281101811ADDAY111999GF101991011011012501001001MD1810151+9999MW1011
0057029700999991953041900004+60117+019900FM-12+000399999V0202301N00151220001CN0200001N9+00281+00221100741ADDAY121999GF108991001001999999021999MD1810261+9999MW1021
0087029700999991953041906004+60117+019900FM-12+000399999V0203201N00511004501CN0200001N9+00001-00111100951ADDAA199000591AY171999GF108991081071004501999999IA1089KA1999N-00111MD1310241+9999MW1701
0057029700999991953041912004+60117+019900FM-12+000399999V0203601N01031220001CN0200001N9+00221+00111101441ADDAY111999GF103991021051012501061001MD1310291+9999MW1011
0076029700999991953041918004+60117+019900FM-12+000399999V0203201N00931220001CN0200001N9+00281-00281101661ADDAY111999GF102991011021012501061001IA1009KA1999M+00501MD1310111+9999MW1011
0057029700999991953042000004+60117+019900FM-12+000399999V0203201N00511220001CN0200001N9+00111-00391101881ADDAY101999GF100991001001999999001001MD1310031+9999MW1001
0113029700999991953042006004+60117+019900FM-12+000399999V0202901N00511220001CN0200001N9+00281-00391101981ADDAY101999GF101991999001999999041001IA1009KA1999N-00221MW1031EQDQ01+000002SCOTLCQ02+000032APCTENQ03+000002APC3  
0078029700999991953042012004+60117+019900FM-12+000399999V0203201N00511220001CN0200001N9+00611-00391102001ADDAY111999GF102991011011012501001091MW1031EQDQ01+000042APCTENQ02+000052APC3  
0095029700999991953042018004+60117+019900FM-12+000399999V0201801N00051220001CN0200001N9+00221+00001102091ADDAY111999GF105991999001999999061001IA1009KA1999M+00781MD1310041+9999MW1031EQDQ01+000002SCOTLC
0078029700999991953042100004+60117+019900FM-12+000399999V0209999999999220001CN0200001N9+00221+00111101991ADDAY121999GF199999001001999999071999MW1021EQDQ01+000082APCTENQ02+000002APC3  
0095029700999991953042106004+60117+019900FM-12+000399999V0201801N00311220001CN0200001N9+00391+00111101991ADDAY111999GF102991999001999999051001IA1009KA1999N+00221MD1310031+9999MW1011EQDQ01+000002SCOTLC
0057029700999991953042112004+60117+019900FM-12+000399999V0202001N00211075001CN0200001N9+00781+00221101981ADDAY111999GF105991011011012501001021MD1990041+9999MW1031
0076029700999991953042118004+60117+019900FM-12+000399999V0209991C00001220001CN0200001N9+00501+00281101911ADDAY111999GF103991001001999999031021IA1009KA1999M+00891MD1810031+9999MW1011
0076029700999991953042206004+60117+019900FM-12+000399999V0209991C00001220001CN0200001N9+00501+00391102051ADDAY111999GF106991001001999999071999IA1009KA1999N-00221MD1310111+9999MW1021
0057029700999991953042212004+60117+019900FM-12+000399999V0202301N00211220001CN0200001N9+01221+00281102161ADDAY111999GF103991021021012501061001MD1310041+9999MW1011
0076029700999991953042218004+60117+019900FM-12+000399999V0200901N00101220001CN0200001N9+00891+00221102261ADDAY111999GF102991001001999999061021IA1009KA1999M+01281MD1310051+9999MW1011
0057029700999991953042300004+60117+019900FM-12+000399999V0209991C00001220001CN0200001N9-00221-00391102451ADDAY111999GF100991001001999999001001MD1310031+9999MW1001
0095029700999991953042306004+60117+019900FM-12+000399999V0209991C00001220001CN0200001N9+00221+00111102491ADDAY111999GF104991999001999999061001IA1009KA1999N-00281MD1310031+9999MW1011EQDQ01+000002SCOTLC
0076029700999991953042312004+60117+019900FM-12+000399999V0202301N00211220001CN0200001N9+01281+00111102411ADDAY111999GF102991999021012501001001MD1710071+9999MW1021EQDQ01+000012SCOTLC
0076029700999991953042318004+60117+019900FM-12+000399999V0202301N00051220001CN0200001N9+00781+00111102241ADDAY111999GF102991001001999999061021IA1009KA1999M+01391MD1810111+9999MW1021
0076029700999991953042406004+60117+019900FM-12+000399999V0209991C00001220001CN0200001N9+00501+00221101941ADDAY101999GF100991001001999999001001IA1009KA1999N-00391MD1810081+9999MW1001
0057029700999991953042412004+60117+019900FM-12+000399999V0201601N00411220001CN0200001N9+01001+00611101821ADDAY101999GF100991001001999999001001MD1810071+9999MW1001
0076029700999991953042418004+60117+019900FM-12+000399999V0201601N00721220001CN0160001N9+00501+00391101511ADDAY111999GF101991011061001501001001IA1009KA1999M+01111MD1810131+9999MW1051
0057029700999991953042500004+60117+019900FM-12+000399999V0201601N00821220001CN0200001N9+00611+00221101391ADDAY101999GF100991001001999999001001MD1810111+9999MW1001
0076029700999991953042506004+60117+019900FM-12+000399999V0201801N00511220001CN0200001N9+00721+00221101241ADDAY111999GF106991001001999999041091IA1009KA1999N+00391MD1810031+9999MW1031
0057029700999991953042512004+60117+019900FM-12+000399999V0201601N00411220001CN0200001N9+01221+00611101141ADDAY111999GF105991001001999999051999MD1810051+9999MW1021
0095029700999991953042518004+60117+019900FM-12+000399999V0201401N00311220001CN0200001N9+00721+00501100821ADDAY111999GF101991999001999999041001IA1009KA1999M+01391MD1810131+9999MW1011EQDQ01+000002SCOTLC
0057029700999991953042600004+60117+019900FM-12+000399999V0201801N00511220001CN0200001N9+00611+00281100591ADDAY101999GF100991001001999999001001MD1810211+9999MW1001
0076029700999991953042606004+60117+019900FM-12+000399999V0202301N00411220001CN0200001N9+00721+00391100391ADDAY111999GF104991011011012501041999IA1009KA1999N+00391MD1810081+9999MW1031
0057029700999991953042612004+60117+019900FM-12+000399999V0202001N00621075001CN0200001N9+00721+00501100521ADDAY111999GF105991021071004501071011MD1310081+9999MW1021
0095029700999991953042618004+60117+019900FM-12+000399999V0202001N00311220001CN0200001N9+00501+00221100601ADDAY111999GF101991999001999999041001IA1009KA1999M+00891MD1310041+9999MW1011EQDQ01+000002SCOTLC
0057029700999991953042700004+60117+019900FM-12+000399999V0202001N00411220001CN0200001N9+00111+00001100771ADDAY101999GF100991001001999999001001MD1310081+9999MW1001
0076029700999991953042706004+60117+019900FM-12+000399999V0202301N00411220001CN0200001N9+00501+00111101081ADDAY101999GF100991001001999999001001IA1009KA1999N-00111MD1310171+9999MW1001
0057029700999991953042712004+60117+019900FM-12+000399999V0202301N00411220001CN0200001N9+00891+00281101251ADDAY101999GF102991021021012501001001MD1310201+9999MW1031
0076029700999991953042718004+60117+019900FM-12+000399999V0202301N00101220001CN0200001N9+00611+00281101361ADDAY111999GF101991011041012501001001IA1009KA1999M+00891MD1310081+9999MW1021
0057029700999991953042800004+60117+019900FM-12+000399999V0209991C00001220001CN0200001N9-00221-00221101581ADDAY101999GF100991001001999999001001MD1310031+9999MW1001
0076029700999991953042806004+60117+019900FM-12+000399999V0200901N00101220001CN0200001N9+00611+00281101641ADDAY101999GF100991001001999999001001IA1009KA1999N-00391MD1810011+9999MW1001
0043029700999991953042812004+60117+019900FM-12+000399999V0201601N00411220001CN0200001N9+01111-00111101651ADDAY111999GF103991001001999999001061MW1021
0076029700999991953042818004+60117+019900FM-12+000399999V0201401N00311220001CN0200001N9+00781+00501101361ADDAY111999GF105991001001999999001061IA1009KA1999M+01111MD1810161+9999MW1011
0057029700999991953042900004+60117+019900FM-12+000399999V0209991C00001220001CN0200001N9+00611+00281101141ADDAY101999GF100991001001999999001001MD1810131+9999MW1001
0076029700999991953042906004+60117+019900FM-12+000399999V0201401N00511220001CN0200001N9+01111+00781100941ADDAY101999GF100991001001999999001001IA1009KA1999N+00501MD1810071+9999MW1001
0078029700999991953042912004+60117+019900FM-12+000399999V0201401N01031220001CN0200001N9+01611+00611100891ADDAY101999GF100991001001999999001001MW1001EQDQ01+000082APCTENQ02+000002APC3  
0076029700999991953042918004+60117+019900FM-12+000399999V0201401N01031002401CN0200001N9+00721+00611101081ADDAY111999GF108991081071002501999999IA1009KA1999M+01721MD1810191+9999MW1031
0057029700999991953043000004+60117+019900FM-12+000399999V0209991C00001220001CN0200001N9+00391+00391101591ADDAY101999GF100991001001999999001001MD1310211+9999MW1001
0076029700999991953043006004+60117+019900FM-12+000399999V0209991C00001220001CN0200001N9+00721+00611101801ADDAY101999GF100991001001999999001001IA1009KA1999N-00111MD1310111+9999MW1001
0057029700999991953043012004+60117+019900FM-12+000399999V0202001N00311220001CN0200001N9+01501+00721101991ADDAY111999GF103991001001999999001061MD1310051+9999MW1031
0113029700999991953043018004+60117+019900FM-12+000399999V0201401N00211220001CN0200001N9+00391+00391102051ADDAY111999GF103991999001999999041001IA1009KA1999M+01611MW1031EQDQ01+000002SCOTLCQ02+000032APCTENQ03+000002APC3  
0057029700999991953050100004+60117+019900FM-12+000399999V0209991C00001220001CN0200001N9+00221+00221102241ADDAY101999GF100991001001999999001001MD1310191+9999MW1001
0076029700999991953050106004+60117+019900FM-12+000399999V0209991C00001220001CN0200001N9+00721+00721102391ADDAY111999GF101991001001999999001011IA1009KA1999N-00111MD1310051+9999MW1031
0057029700999991953050112004+60117+019900FM-12+000399999V0202301N00051220001CN0200001N9+01391+00611102541ADDAY101999GF100991001001999999001001MD1310091+9999MW1001
0076029700999991953050118004+60117+019900FM-12+000399999V0202301N00051220001CN0200001N9+01221+00721102491ADDAY101999GF100991001001999999001001IA1009KA1999M+01501MD1810031+9999MW1001
0057029700999991953050200004+60117+019900FM-12+000399999V0209991C00001220001CN0200001N9+00111+00111102661ADDAY101999GF100991001001999999001001MD1310091+9999MW1001
0076029700999991953050206004+60117+019900FM-12+000399999V0209991C00001220001CN0200001N9+00891+00501102751ADDAY101999GF100991001001999999001001IA1009KA1999N-00111MD1310031+9999MW1001
0057029700999991953050212004+60117+019900FM-12+000399999V0202301N00051220001CN0200001N9+01611+00281102741ADDAY111999GF102991001001999999001021MD1990011+9999MW1011
0076029700999991953050218004+60117+019900FM-12+000399999V0202301N00051220001CN0200001N9+01001+00391102461ADDAY111999GF107991001001999999091071IA1009KA1999M+01721MD1810111+9999MW1031
0108029700999991953050306004+60117+019900FM-12+000399999V0200201N00211220001CN0200001N9+00781+00501102491ADDAA199001091AY111999GF106991001001999999001021IA1089KA1999N+00391MW1031EQDQ01+000082APCTENQ02+000002APC3  
0057029700999991953050312004+60117+019900FM-12+000399999V0203201N00211220001CN0200001N9+01111-00111102321ADDAY111999GF106991001001999999001071MD1810091+9999MW1021
0076029700999991953050318004+60117+019900FM-12+000399999V0203201N00101220001CN0200001N9+00611+00111102051ADDAY111999GF106991001001999999021999IA1009KA1999M+01281MD1810131+9999MW1031
0078029700999991953050400004+60117+019900FM-12+000399999V0209991C00001220001CN0200001N9+00391+00111102061ADDAY111999GF100991001001999999001001MW1001EQDQ01+000042APCTENQ02+000112APC3  
0113029700999991953050406004+60117+019900FM-12+000399999V0203601N00101220001CN0200001N9+00781+00221102061ADDAY101999GF101991999001999999041001IA1009KA1999N+00111MW1031EQDQ01+000002SCOTLCQ02+000082APCTENQ03+000002APC3  
0094029700999991953050412004+60117+019900FM-12+000399999V0200201N00621220001CN0200001N9+01111+00111101981ADDAY111999GF103991999001999999051001MW1011EQDQ01+000002SCOTLCQ02+000082APCTENQ03+000002APC3  
0076029700999991953050418004+60117+019900FM-12+000399999V0202401N00311220001CN0200001N9+00721+00501101861ADDAY111999GF101991001001999999001021IA1009KA1999M+01281MD1810051+9999MW1031
0057029700999991953050500004+60117+019900FM-12+000399999V0209991C00001220001CN0200001N9+00111+00111101661ADDAY101999GF100991001001999999001001MD1810191+9999MW1001
0063029700999991953050506004+60117+019900FM-12+000399999V0203201N00101220001CN0200001N9+00501+00391101321ADDAY111999GF107991001001999999071999IA1009MD1810111+9999MW1031
0057029700999991953050512004+60117+019900FM-12+000399999V0203201N00101220001CN0200001N9+00721+00501101051ADDAY121999GF108991001001999999021999MD1810081+9999MW1021
0076029700999991953050518004+60117+019900FM-12+000399999V0203601N00101220001CN0200001N9+00501+00281100921ADDAY111999GF107991001001999999021999IA1009KA1999M+00891MD1810011+9999MW1011
0094029700999991953050600004+60117+019900FM-12+000399999V0209991C00001220001CN0200001N9+00281+00281100891ADDAY111999GF108991999001999999071001MW1031EQDQ01+000002SCOTLCQ02+000082APCTENQ03+000002APC3  
0076029700999991953050606004+60117+019900FM-12+000399999V0200501N00211220001CN0200001N9+00611+00501100981ADDAY111999GF106991001001999999071999IA1009KA1999N+00111MD1310081+9999MW1021
0057029700999991953050612004+60117+019900FM-12+000399999V0200901N00411002401CN0200001N9+00891+00001101391ADDAY111999GF106991061011002501001001MD1310191+9999MW1011
0076029700999991953050618004+60117+019900FM-12+000399999V0200501N00721220001CN0200001N9+00391-00281101761ADDAY111999GF102991021041012501001001IA1009KA1999M+01221MD1310151+9999MW1021
0057029700999991953050700004+60117+019900FM-12+000399999V0209991C00001220001CN0200001N9-00281-00611102041ADDAY101999GF100991001001999999001001MD1310051+9999MW1001
0095029700999991953050706004+60117+019900FM-12+000399999V0203601N00721220001CN0200001N9+00111+00001101881ADDAY111999GF103991999051012501001001IA1009KA1999N-00501MD1810071+9999MW1031EQDQ01+000022SCOTLC
0057029700999991953050712004+60117+019900FM-12+000399999V0203401N00931220001CN0200001N9+00391-00611101781ADDAY111999GF104991001001999999061021MD1810041+9999MW1031
0097029700999991953050718004+60117+019900FM-12+000399999V0203601N00511220001CN0200001N9+00281-00111101711ADDAY111999GF100991001001999999001001IA1009KA1999M+00501MW1001EQDQ01+000082APCTENQ02+000002APC3  
0057029700999991953050800004+60117+019900FM-12+000399999V0203601N00211220001CN0200001N9+00001-00221101311ADDAY101999GF100991001001999999001001MD1310311+9999MW1001
0113029700999991953050806004+60117+019900FM-12+000399999V0200201N00211220001CN0200001N9+00001+00001101311ADDAY111999GF106991999001999999071001IA1009KA1999N-00111MW1031EQDQ01+000002SCOTLCQ02+000082APCTENQ03+000002APC3  
0076029700999991953050812004+60117+019900FM-12+000399999V0200501N002119999999N0200001N9+00501-00391101411ADDAY111999GF106991999091004501001001MD1310161+9999MW1251EQDQ01+000012SCOTLC
0076029700999991953050818004+60117+019900FM-12+000399999V0200501N00211220001CN0200001N9+00391-00221101461ADDAY111999GF102991021041012501001001IA1009KA1999M+00721MD1810081+9999MW1011
0057029700999991953050900004+60117+019900FM-12+000399999V0209991C00001012301CN0200001N9+00221-00221101361ADDAY111999GF108991081051012501999999MD1810041+9999MW1031
0049029700999991953050906004+60117+019900FM-12+000399999V0200901N00051220001CN0400001N9+99999+99999999999ADDGF102991021011012501001001IA1009MD1310091+9999
0057029700999991953050912004+60117+019900FM-12+000399999V0200901N00211220001CN0200001N9+00781+00111101611ADDAY111999GF102991021011012501001001MD1010301+9999MW1021
0076029700999991953050918004+60117+019900FM-12+000399999V0203201N00101220001CN0200001N9+00721+00221101661ADDAY111999GF100991001001999999001001IA1009KA1999M+00891MD1310031+9999MW1001
0057029700999991953051000004+60117+019900FM-12+000399999V0200201N00511220001CN0200001N9+00001-00221101551ADDAY101999GF100991001001999999001001MD1990161+9999MW1001
0097029700999991953051006004+60117+019900FM-12+000399999V0200201N00511220001CN0200001N9+00721+00001101381ADDAY101999GF101991001001999999001021IA1009KA1999N-00111MW1031EQDQ01+000082APCTENQ02+000002APC3  
0057029700999991953051012004+60117+019900FM-12+000399999V0200201N00511220001CN0200001N9+01221-00501101291ADDAY111999GF102991001001999999001021MD1810011+9999MW1021
0076029700999991953051018004+60117+019900FM-12+000399999V0200701N00211220001CN0200001N9+00611+00221101341ADDAY121999GF107991001001999999021999IA1009KA1999M+01221MD1310071+9999MW1031
0078029700999991953051100004+60117+019900FM-12+000399999V0209991C00001220001CN0200001N9+00391+00281101341ADDAY121999GF108991001001999999021999MW1021EQDQ01+000032APCTENQ02+000002APC3  
0076029700999991953051106004+60117+019900FM-12+000399999V0209991C00001012301CN0200001N9+00721+00391101411ADDAY111999GF107991071051012501999999IA1009KA1999N+00111MD1310031+9999MW1031
0057029700999991953051112004+60117+019900FM-12+000399999V0209991C00001220001CN0200001N9+01281+00221101421ADDAY111999GF102991021011012501001001MD1990041+9999MW1011
0076029700999991953051118004+60117+019900FM-12+000399999V0200501N00411220001CN0160001N9+00891+00001101311ADDAY121999GF107991001001999999071999IA1009KA1999M+01391MD1810011+9999MW1021
0057029700999991953051200004+60117+019900FM-12+000399999V0200501N00511220001CN0200001N9+00891+00221101151ADDAY111999GF107991001001999999071999MD1810081+9999MW1031
0097029700999991953051206004+60117+019900FM-12+000399999V0200501N00721220001CN0200001N9+00721+00111101051ADDAY121999GF105991001001999999031999IA1009KA1999N+00501MW1011EQDQ01+000082APCTENQ02+000002APC3  
0076029700999991953051212004+60117+019900FM-12+000399999V0200501N00821220001CN0200001N9+01281-00111100991ADDAY111999GF102991999001999999051001MD1810031+9999MW1011EQDQ01+000002SCOTLC
0076029700999991953051218004+60117+019900FM-12+000399999V0202301N00101220001CN0200001N9+00611+00391101021ADDAY111999GF101991001001999999001011IA1009KA1999M+01391MD1310031+9999MW1011
0057029700999991953051300004+60117+019900FM-12+000399999V0209991C00001220001CN0200001N9+00001+00001100981ADDAY101999GF100991001001999999001001MD1810071+9999MW1001
0076029700999991953051306004+60117+019900FM-12+000399999V0200501N00311220001CN0200001N9+00611+00221100881ADDAY101999GF102991011011012501001021IA1009KA1999N-00221MD1810031+9999MW1031
0078029700999991953051312004+60117+019900FM-12+000399999V0200501N00211012301CN0200001N9+01001+00111100851ADDAY111999GF106991061051012501001001MW1031EQDQ01+000082APCTENQ02+000002APC3  
0087029700999991953051318004+60117+019900FM-12+000399999V0200501N00051220001CN0200001N9+00611+00281100951ADDAA199000691AY121999GF108991001001999999071999IA1089KA1999M+01111MD1310081+9999MW1611
0057029700999991953051400004+60117+019900FM-12+000399999V0209991C00001004501CN0010001N9+00391+00391101051ADDAY141999GF108991081051004501999999MD1310031+9999MW1441
0076029700999991953051406004+60117+019900FM-12+000399999V0201801N00311004501CN0010001N9+00501+00501101151ADDAY141999GF108991081051004501999999IA1009KA1999N+00281MD1310081+9999MW1461
0057029700999991953051412004+60117+019900FM-12+000399999V0202001N00411220001CN0200001N9+01001+00501101211ADDAY111999GF103991001001999999001051MD1310071+9999MW1011
0076029700999991953051418004+60117+019900FM-12+000399999V0201801N00051220001CN0200001N9+00781+00391101261ADDAY111999GF102991001001999999001021IA1009KA1999M+01111MD1310041+9999MW1021
0057029700999991953051500004+60117+019900FM-12+000399999V0209991C00001220001CN0200001N9+00391+00391101391ADDAY101999GF100991001001999999001001MD1310041+9999MW1001
0057029700999991953051512004+60117+019900FM-12+000399999V0202301N00311220001CN0200001N9+01501+00721101601ADDAY111999GF100991001001999999001001MD1310051+9999MW1001
0076029700999991953051518004+60117+019900FM-12+000399999V0201801N00721220001CN0200001N9+01001+00501101521ADDAY101999GF100991001001999999001001IA1009KA1999M+01611MD1810071+9999MW1001
0076029700999991953051606004+60117+019900FM-12+000399999V0201801N00721220001CN9999999N9+01001+00721101321ADDAY121999GF107991001001999999021999IA1009KA1999N+00111MD1810041+9999MW1021
0057029700999991953051612004+60117+019900FM-12+000399999V0201801N00721220001CN0160001N9+00781+00781101351ADDAY161999GF108991001001999999021999MD1810051+9999MW1631
0076029700999991953051618004+60117+019900FM-12+000399999V0201801N00511220001CN0160001N9+00781+00721101241ADDAY121999GF108991001001999999021999IA1009KA1999M+01221MD1810081+9999MW1021
0057029700999991953051700004+60117+019900FM-12+000399999V0201801N00511220001CN0160001N9+00781+00781101041ADDAY121999GF108991001001999999021999MD1810051+9999MW1021
0087029700999991953051706004+60117+019900FM-12+000399999V0201801N00101220001CN0010001N9+00781+00781100851ADDAA199001091AY141999GF108991001001999999021999IA1089KA1999N+00721MD1810081+9999MW1461
0057029700999991953051712004+60117+019900FM-12+000399999V0202301N00101220001CN0044001N9+01221+01001101051ADDAY141999GF105991001001999999001051MD1310171+9999MW1101
0063029700999991953051718004+60117+019900FM-12+000399999V0202301N00101220001CN0200001N9+01221+00781101191ADDAY111999GF102991001001999999001021IA1009MD1310071+9999MW1011
0057029700999991953051800004+60117+019900FM-12+000399999V0209991C00001220001CN0200001N9+00781+00721101391ADDAY111999GF100991001001999999001001MD1310111+9999MW1001
0095029700999991953051806004+60117+019900FM-12+000399999V0202301N00211220001CN0200001N9+01221+01001101591ADDAY111999GF103991999001999999051001IA1009KA1999N+00721MD1310111+9999MW1021EQDQ01+000002SCOTLC
0057029700999991953051812004+60117+019900FM-12+000399999V0202301N00211220001CN0200001N9+01781+01001101721ADDAY111999GF101991011021012501001001MD1310081+9999MW1011
0095029700999991953051818004+60117+019900FM-12+000399999V0202001N00311220001CN0200001N9+01391+00781101821ADDAY111999GF103991999001999999061001IA1009KA1999M+01781MD1310071+9999MW1031EQDQ01+000002SCOTLC
0076029700999991953051900004+60117+019900FM-12+000399999V0202301N00511220001CN0200001N9+01111+00611102111ADDAY111999GF101991999001999999041001MD1310081+9999MW1011EQDQ01+000002SCOTLC
0076029700999991953051906004+60117+019900FM-12+000399999V0202301N00621220001CN0200001N9+01111+00891102321ADDAY111999GF105991001001999999001999IA1109KA1999N+01001MD1310231+9999MW1031
0057029700999991953051912004+60117+019900FM-12+000399999V0202301N00511220001CN0200001N9+01611+00891102601ADDAY111999GF103991011011012501001021MD1310121+9999MW1031
0097029700999991953051918004+60117+019900FM-12+000399999V0202301N00311220001CN0200001N9+01221+00781102651ADDAY111999GF103991001001999999001091IA1009KA1999M+01781MW1031EQDQ01+000032APCTENQ02+000002APC3  
0057029700999991953052000004+60117+019900FM-12+000399999V0209991C00001220001CN0200001N9+01001+00721102771ADDAY121999GF107991001001999999071999MD1310031+9999MW1021
0095029700999991953052006004+60117+019900FM-12+000399999V0201401N00101220001CN0160001N9+01221+01001102821ADDAY111999GF104991999001999999031001IA1009KA1999N+00611MD1310011+9999MW1031EQDQ01+000002SCOTLC
0057029700999991953052012004+60117+019900FM-12+000399999V0201601N00101220001CN0200001N9+01721+00891102791ADDAY111999GF105991001001999999051999MD1990051+9999MW1021
0095029700999991953052018004+60117+019900FM-12+000399999V0201601N00101220001CN0200001N9+01281+01111102401ADDAY111999GF103991999001999999041001IA1009KA1999M+01781MD1810191+9999MW1021EQDQ01+000002SCOTLC
0076029700999991953052100004+60117+019900FM-12+000399999V0201801N00511220001CN0200001N9+01221+01221102151ADDAY111999GF102991999001999999041001MD1810111+9999MW1021EQDQ01+000002SCOTLC
0097029700999991953052106004+60117+019900FM-12+000399999V0202001N00211220001CN0200001N9+01221+00781102011ADDAY111999GF105991001001999999091999IA1009KA1999N+00891MW1011EQDQ01+000082APCTENQ02+000002APC3  
0095029700999991953052118004+60117+019900FM-12+000399999V0203201N00051220001CN0200001N9+01721+00891102021ADDAY111999GF103991999001999999051001IA1009KA1999M+02001MD1310051+9999MW1031EQDQ01+000002SCOTLC
0094029700999991953052200004+60117+019900FM-12+000399999V0209991C00001220001CN0010001N9+00501+00501102241ADDAY101999GF101991999001999999051001MW1461EQDQ01+000002SCOTLCQ02+000032APCTENQ03+000002APC3  
0097029700999991953052206004+60117+019900FM-12+000399999V0209991C00001220001CN0200001N9+01391+01001102251ADDAY121999GF107991001001999999021999IA1009KA1999N+00391MW1031EQDQ01+000032APCTENQ02+000002APC3  
0078029700999991953052212004+60117+019900FM-12+000399999V0201801N00211220001CN0200001N9+01501+00781102261ADDAY121999GF107991001001999999071999MW1021EQDQ01+000032APCTENQ02+000002APC3  
0076029700999991953052218004+60117+019900FM-12+000399999V0201401N00311220001CN0200001N9+01611+00721101811ADDAY111999GF105991001001999999051999IA1009KA1999M+01781MD1810251+9999MW1011
0076029700999991953052300004+60117+019900FM-12+000399999V0201801N00211220001CN0200001N9+01281+00781101541ADDAY111999GF103991999001999999061001MD1810201+9999MW1001EQDQ01+000002SCOTLC
0076029700999991953052306004+60117+019900FM-12+000399999V0202901N00051220001CN0200001N9+99999+99999101221ADDAY121999GF107991001001999999071999IA1009KA1999N+00891MD1810191+9999MW1021
0057029700999991953052312004+60117+019900FM-12+000399999V0202001N00211220001CN0200001N9+01721+01111101201ADDAY111999GF104991001001999999041999MD1810031+9999MW1021
0087029700999991953052318004+60117+019900FM-12+000399999V0202701N00511004501CN0160001N9+01281+01111101171ADDAA199000391AY161999GF108991081071004501999999IA1009KA1999M+01891MD1310011+9999MW1601
0108029700999991953052406004+60117+019900FM-12+000399999V0203601N00051220001CN0200001N9+01111+00891101171ADDAA199001091AY121999GF107991001001999999021999IA1009KA1999N+00891MW1011EQDQ01+000032APCTENQ02+000002APC3  
0057029700999991953052412004+60117+019900FM-12+000399999V0203601N00101220001CN0200001N9+01001+01001101191ADDAY161999GF108991001001999999071011MD1310031+9999MW1601
0087029700999991953052418004+60117+019900FM-12+000399999V0203601N00211220001CN0200001N9+00721+00611101511ADDAA199001091AY111999GF102991001001999999999999IA1009KA1999M+01501MD1810171+9999MW1011
0076029700999991953052500004+60117+019900FM-12+000399999V0203201N00721220001CN0200001N9+00611-00111101981ADDAY111999GF103991999051008001001001MD1310211+9999MW1021EQDQ01+000022SCOTLC
0076029700999991953052506004+60117+019900FM-12+000399999V0203201N00821220001CN0200001N9+00501-00281102401ADDAY111999GF102991021011012501001001IA1009KA1999N+00391MD1310211+9999MW1031
0057029700999991953052512004+60117+019900FM-12+000399999V0203201N00821220001CN0200001N9+00781+00221102691ADDAY111999GF102991021011012501001001MD1310161+9999MW1011
0095029700999991953052518004+60117+019900FM-12+000399999V0203201N00621220001CN0200001N9+00781+00281102511ADDAY111999GF101991999001999999061001IA1009KA1999M+01111MD1810151+9999MW1021EQDQ01+000002SCOTLC
0076029700999991953052600004+60117+019900FM-12+000399999V0202301N00621220001CN0200001N9+00721+00501102141ADDAY111999GF101991999001999999071001MD1810251+9999MW1021EQDQ01+000002SCOTLC
0076029700999991953052606004+60117+019900FM-12+000399999V0202301N00411220001CN0200001N9+00891+00501101761ADDAY121999GF108991001001999999021999IA1009KA1999N+00501MD1810191+9999MW1021
0057029700999991953052612004+60117+019900FM-12+000399999V0202301N00511001501CN0110001N9+00781+00781101091ADDAY161999GF108991081071001501999999MD1810391+9999MW1621
0087029700999991953052618004+60117+019900FM-12+000399999V0202301N00511001501CN0090001N9+00781+00781100151ADDAA199007091AY161999GF108991081071001501999999IA1109KA1999M+01001MD1810401+9999MW1631
0057029700999991953052700004+60117+019900FM-12+000399999V0202301N00411220001CN0200001N9+00781+00781099611ADDAY161999GF106991001001999999021999MD1810251+9999MW1011
0087029700999991953052706004+60117+019900FM-12+000399999V0203201N00311012301CN0200001N9+01001+00891099551ADDAA199004091AY111999GF106991061051012501999999IA1089KA1999N+00611MD1810011+9999MW1011
0057029700999991953052712004+60117+019900FM-12+000399999V0203601N00931002401CN0200001N9+00611+00611099811ADDAY111999GF108991081071002501999999MD1310191+9999MW1031
0095029700999991953052718004+60117+019900FM-12+000399999V0203601N00821220001CN0200001N9+00721+00281100121ADDAY111999GF101991999001999999061001IA1009KA1999M+01281MD1310081+9999MW1011EQDQ01+000002SCOTLC
0057029700999991953052800004+60117+019900FM-12+000399999V0203601N00621220001CN0200001N9+00611+00221100291ADDAY111999GF107991001001999999071999MD1310031+9999MW1031
0087029700999991953052806004+60117+019900FM-12+000399999V0203201N00621220001CN0200001N9+00611+00391100491ADDAA199000391AY111999GF101991011021012501001001IA1089KA1999N+00391MD1310081+9999MW1011
0057029700999991953052812004+60117+019900FM-12+000399999V0203201N00511220001CN0200001N9+00891+00111100461ADDAY111999GF102991021021004501001021MD1990071+9999MW1021
0087029700999991953052818004+60117+019900FM-12+000399999V0203201N00211002401CN0200001N9+00391+00281100401ADDAA199000591AY181999GF106991061091002501999999IA1089KA1999M+01111MD1310051+9999MW1031
0057029700999991953052900004+60117+019900FM-12+000399999V0203201N00511220001CN0200001N9+00281+00281100521ADDAY111999GF104991041051004501001001MD1310051+9999MW1021
0076029700999991953052906004+60117+019900FM-12+000399999V0203601N00411220001CN0200001N9+00721+00001100721ADDAY101999GF101991011021012501001001IA1009KA1999N+00111MD1310131+9999MW1031
0078029700999991953052912004+60117+019900FM-12+000399999V0203201N00511220001CN0200001N9+00781+00281100771ADDAY111999GF102991021021012501001001MW1031EQDQ01+000032APCTENQ02+000002APC3  
0076029700999991953052918004+60117+019900FM-12+000399999V0202001N00211220001CN0200001N9+00611+00501100591ADDAY111999GF106991001001999999071999IA1009KA1999M+01001MD1810091+9999MW1031
0057029700999991953053000004+60117+019900FM-12+000399999V0202301N00511220001CN0200001N9+00611+00611100321ADDAY111999GF105991001001999999071999MD1810161+9999MW1021
0076029700999991953053006004+60117+019900FM-12+000399999V0201801N00311002401CN0200001N9+00781+00781100141ADDAY121999GF108991081071002501999999IA1009KA1999N+00391MD1810071+9999MW1021
0078029700999991953053012004+60117+019900FM-12+000399999V0201401N00411001501CN0044001N9+00721+00721100201ADDAY161999GF108991081071001501999999MW1631EQDQ01+000042APCTENQ02+000082APC3  
0087029700999991953053018004+60117+019900FM-12+000399999V0201801N00511000601CN0004001N9+00721+00721100281ADDAA199003091AY141999GF108991081071000751999999IA1089KA1999M+00891MD1310121+9999MW1441
0057029700999991953053100004+60117+019900FM-12+000399999V0201801N00311001501CN0004001N9+00721+00721100521ADDAY141999GF108991081071001501999999MD1310011+9999MW1441
0076029700999991953053106004+60117+019900FM-12+000399999V0201801N00101002401CN0004001N9+00721+00721100561ADDAY141999GF108991081071002501999999IA1089KA1999N+00721MD1310011+9999MW1461
0078029700999991953053112004+60117+019900FM-12+000399999V0201801N00411000601CN0110001N9+01001+00781100651ADDAY121999GF108991081061000751999999MW1021EQDQ01+000032APCTENQ02+000002APC3  
0076029700999991953053118004+60117+019900FM-12+000399999V0201401N00411220001CN0200001N9+01001+00501100681ADDAY111999GF101991011041012501001001IA1009KA1999M+01111MD1810031+9999MW1011
0057029700999991953060100004+60117+019900FM-12+000399999V0209991C00001220001CN0004001N9+00281+00281100561ADDAY101999GF100991001001999999001001MD1810111+9999MW1461
0076029700999991953060106004+60117+019900FM-12+000399999V0200501N00211000601CN0110001N9+01001+00891100291ADDAY141999GF108991081061000751999999IA1009KA1999N+00281MD1810111+9999MW1031
0057029700999991953060112004+60117+019900FM-12+000399999V0200501N00211001501CN0160001N9+01221+01111100011ADDAY161999GF108991081071001501999999MD1810161+9999MW1631
0087029700999991953060118004+60117+019900FM-12+000399999V0200701N00051000601CN0044001N9+01001+00891100321ADDAA199002091AY151999GF108991081071000751999999IA1009KA1999M+01281MD1310401+9999MW1521
0076029700999991953060206004+60117+019900FM-12+000399999V0200501N00311220001CN0200001N9+00891+00891100401ADDAY121999GF108991001001999999021999IA1009KA1999N+00611MD1810131+9999MW1021
0057029700999991953060212004+60117+019900FM-12+000399999V0200501N00411030001CN0200001N9+02281+01221100321ADDAY161999GF107991021091012501071001MD1810281+9999MW1211
0100029700999991953060218004+60117+019900FM-12+000399999V0200901N00311021001CN0200001N9+01781+01501099921ADDAA199003091AY121999GF105991051091022501999999IA1089KA1999M+02281MD1810011+9999EQDQ01+000822PRSWM1
0087029700999991953060306004+60117+019900FM-12+000399999V0201401N00211000601CN0018001N9+01111+01111100311ADDAA199000591AY121999GF108991081071000751999999IA1089KA1999N+01001MD1310131+9999MW1101
0057029700999991953060312004+60117+019900FM-12+000399999V0200901N00311002401CN0200001N9+01891+01391100181ADDAY111999GF107991071091002501999999MD1990151+9999MW1021
0087029700999991953060318004+60117+019900FM-12+000399999V0200901N00311002401CN0200001N9+01721+01111099971ADDAA199000391AY111999GF106991061091002501999999IA1089KA1999M+02111MD1810091+9999MW1011
0076029700999991953060406004+60117+019900FM-12+000399999V0201401N00931220001CN0200001N9+01001+00781100321ADDAY111999GF103991031071999999001001IA1009KA1999N+00781MD1310131+9999MW1011
0057029700999991953060412004+60117+019900FM-12+000399999V0201401N00721001501CN0200001N9+01281+01111100551ADDAY111999GF106991061091001501011061MD1310161+9999MW1021
0108029700999991953060418004+60117+019900FM-12+000399999V0201601N00931001501CN0200001N9+01001+00721100851ADDAA199002091AY111999GF107991071071001501999999IA1089KA1999M+01721MW1021EQDQ01+000032APCTENQ02+000002APC3  
0087029700999991953060506004+60117+019900FM-12+000399999V0201801N00621220001CN0200001N9+01001+00891101221ADDAA199000391AY121999GF106991001001999999071999IA1089KA1999N+00721MD1310111+9999MW1011
0095029700999991953060518004+60117+019900FM-12+000399999V0201801N00211220001CN0160001N9+01001+00781101521ADDAY111999GF104991999001999999051001IA1009KA1999M+01391MD1810041+9999MW1051EQDQ01+000002SCOTLC
0076029700999991953060600004+60117+019900FM-12+000399999V0201801N00411220001CN0160001N9+00781+00781101481ADDAY111999GF102991999001999999041001MD1810051+9999MW1031EQDQ01+000002SCOTLC
0076029700999991953060606004+60117+019900FM-12+000399999V0201801N00511220001CN0140001N9+01001+00781101581ADDAY111999GF102991011061999999041999IA1009KA1999N+00501MD1310091+9999MW1051
0057029700999991953060612004+60117+019900FM-12+000399999V0202001N00621220001CN0140001N9+01281+00781101791ADDAY111999GF101991011021004501001001MD1310171+9999MW1051
0095029700999991953060618004+60117+019900FM-12+000399999V0202001N00721220001CN0160001N9+01001+01001101921ADDAY111999GF103991999001999999051001IA1009KA1999M+01501MD1310081+9999MW1051EQDQ01+000002SCOTLC
