0057029700999991955010912004+60117+019900FM-12+000399999V0202001N002119999999N0400001N9-00391+99999100961ADDAY111999GF106991061051999999999999MD1810041+9999MW1031
0057029700999991955011912004+60117+019900FM-12+000399999V0202901N00511001501CN0150001N9-00391-00501098491ADDAY171999GF108991081071001501999999MD1210111+9999MW1701
0057029700999991955020112004+60117+019900FM-12+000399999V0202501N00311001501CN0050001N9+00111-00221100601ADDAY121999GF108991081071001501999999MD1210101+9999MW1101
0043029700999991955020212004+60117+019900FM-12+000399999V0209991C00001000151CN0001001N9+00221+00221100581ADDAY141999GF109991091999000251999999MW1471
0057029700999991955020612004+60117+019900FM-12+000399999V0201601N00211000151CN0003001N9+00221+00221099191ADDAY141999GF109991091999000251999999MD1310111+9999MW1451
0078029700999991955020912004+60117+019900FM-12+000399999V0209991C00001220001CN0650001N9-00221-00221099921ADDAY111999GF103991001001999999001031MW1021EQDQ01+000012APCTENQ02+000002APC3  
0057029700999991955021012004+60117+019900FM-12+000399999V0200201N00211004501CN0200001N9-00221-00611099811ADDAY121999GF108991081051004501999999MD1110041+9999MW1021
0057029700999991955021212004+60117+019900FM-12+000399999V0203401N99999002401CN0050001N9-00281-00501101041ADDAY171999GF107991071071002501999999MD1110051+9999MW1711
0057029700999991955021712004+60117+019900FM-12+000399999V0200701N00411220001CN0400001N9-00891-01111099451ADDAY111999GF105991001001999999051021MD1110041+9999MW1011
0078029700999991955021912004+60117+019900FM-12+000399999V0200701N00211220001CN0400001N9-01001-01281100621ADDAY111999GF105991001001999999999999MW1011EQDQ01+000022APCTENQ02+000002APC3  
0057029700999991955022112004+60117+019900FM-12+000399999V0202301N00311004501CN0400001N9-01391-01501101121ADDAY111999GF108991081051004501999999MD1010011+9999MW1021
0078029700999991955030212004+60117+019900FM-12+000399999V0202301N00621220001CN0400001N9-00221-00391102401ADDAY121999GF108991001001999999071999MW1021EQDQ01+000012APCTENQ02+000002APC3  
0043029700999991955031912004+60117+019900FM-12+000399999V0201101N00211220001CN0400001N9-00221-00891100661ADDAY111999GF102991021011012501001001MW1011
0078029700999991955032212004+60117+019900FM-12+000399999V0200701N00211001501CN0400001N9-00391-00611101111ADDAY111999GF108991081071001501999999MW1021EQDQ01+000062APCTENQ02+000002APC3  
0057029700999991955032612004+60117+019900FM-12+000399999V0201401N00101002401CN0100001N9+99999+99999100911ADDAY121999GF108991081071002501999999MD1710131+9999MW1101
0057029700999991955032812004+60117+019900FM-12+000399999V0203601N00411007801CN0400001N9-00281-00721100681ADDAY111999GF108991081051008001999999MD1310081+9999MW1031
0057029700999991955032912004+60117+019900FM-12+000399999V0203401N00621220001CN0400001N9-00391-00721101791ADDAY111999GF103991031011012501001001MD1210121+9999MW1021
0057029700999991955033112004+60117+019900FM-12+000399999V0202401N00821220001CN0400001N9-00111-00281099841ADDAY111999GF103991031011012501001001MD1210191+9999MW1031
0057029700999991955040112004+60117+019900FM-12+000399999V0209999900411220001CN0400001N9+00001-00111100381ADDAY111999GF103991021011012501001021MD1510131+9999MW1021
0043029700999991955040712004+60117+019900FM-12+000399999V0209999999999004501CN0400001N9-00111-00391999999ADDAY111999GF107991071071004501999999MW1011
0078029700999991955040912004+60117+019900FM-12+000399999V0200501N00511220001CN0400001N9-00221-00611102481ADDAY111999GF101991011011012501001001MW1021EQDQ01+000072APCTENQ02+000002APC3  
0057029700999991955041112004+60117+019900FM-12+000399999V0202001N00211220001CN0400001N9+00001-00281101541ADDAY111999GF101991011011012501001001MD1710041+9999MW1011
0057029700999991955041312004+60117+019900FM-12+000399999V0202001N00101001501CN0200001N9+00221+00001100511ADDAY121999GF108991081071001501999999MD1710111+9999MW1021
0057029700999991955041412004+60117+019900FM-12+000399999V0200201N00621002401CN0200001N9+00221+00001101291ADDAY121999GF108991081071002501999999MD1210241+9999MW1021
0057029700999991955041612004+60117+019900FM-12+000399999V0202001N00101220001CN0400001N9+00501+00001102581ADDAY111999GF108991001001999999021999MD1210051+9999MW1031
0057029700999991955041712004+60117+019900FM-12+000399999V0203601N00821220001CN0400001N9+00001+00001102911ADDAY111999GF103991031011012501001011MD1210031+9999MW1021
0057029700999991955041912004+60117+019900FM-12+000399999V0202301N00311220001CN0400001N9+00611-00891102251ADDAY111999GF104991001001999999001021MD1710041+9999MW1031
0057029700999991955042112004+60117+019900FM-12+000399999V0203601N00721001501CN0100001N9+00221+00001099901ADDAY171999GF108991071071001501999999MD1210131+9999MW1701
0057029700999991955042212004+60117+019900FM-12+000399999V0203401N00621220001CN0400001N9+00111-00221100911ADDAY111999GF103991031021012501001001MD1210111+9999MW1031
0078029700999991955042312004+60117+019900FM-12+000399999V0203401N00411220001CN0400001N9+00281-00391100801ADDAY111999GF102991021011012501001001MW1031EQDQ01+000062APCTENQ02+000002APC3  
0057029700999991955042412004+60117+019900FM-12+000399999V0202901N00511220001CN0400001N9+00221-00111100461ADDAY111999GF102991021011012501001001MD1710331+9999MW1021
0057029700999991955042512004+60117+019900FM-12+000399999V0203401N00511012301CN0400001N9+00281-00281101141ADDAY111999GF106991061051012501999999MD1210151+9999MW1021
0057029700999991955042812004+60117+019900FM-12+000399999V0201801N00411220001CN0400001N9+00611+00111101191ADDAY111999GF108991001001999999011999MD1810041+9999MW1031
0078029700999991955050112004+60117+019900FM-12+000399999V0201401N00311220001CN0400001N9+00781+00221101311ADDAY111999GF105991001001999999051999MW1011EQDQ01+000042APCTENQ02+000042APC3  
0057029700999991955050412004+60117+019900FM-12+000399999V0202301N00411220001CN0400001N9+00501+00111100311ADDAY111999GF107991001001999999021999MD1110051+9999MW1021
0057029700999991955050512004+60117+019900FM-12+000399999V0202301N00311002401CN0150001N9+00611+00391099621ADDAY121999GF107991071071002501999999MD1210081+9999MW1011
0057029700999991955050612004+60117+019900FM-12+000399999V0202301N00311002401CN0050001N9+00891+00721099981ADDAY111999GF107991071091002501999999MD1210031+9999MW1101
0057029700999991955050912004+60117+019900FM-12+000399999V0202301N00311002401CN0400001N9+00611+00501100551ADDAY121999GF108991081071002501999999MD1610071+9999MW1021
0057029700999991955051012004+60117+019900FM-12+000399999V0202501N00411002401CN0200001N9+00891+00721099321ADDAY121999GF108991081071002501999999MD1410001+9999MW1021
0057029700999991955051112004+60117+019900FM-12+000399999V0202301N00511220001CN0400001N9+99999+99999099761ADDAY111999GF101991011011012501001001MD1210401+9999MW1021
0057029700999991955051212004+60117+019900FM-12+000399999V0202301N00511001501CN0150001N9+00391+00281100091ADDAY121999GF108991081071001501999999MD1710051+9999MW1631
0057029700999991955051312004+60117+019900FM-12+000399999V0202301N00511030001CN0300001N9+00721+00391100601ADDAY111999GF108991021071001501021999MD1410001+9999MW1031
0076029700999991955051612004+60117+019900FM-12+000399999V0202001N00511220001CN0400001N9+00891+00281100541ADDAY111999GF102991999001999999061001MD1210121+9999MW1021EQDQ01+000002SCOTLC
0076029700999991955051812004+60117+019900FM-12+000399999V0201101N00511220001CN0400001N9+01221+00501100991ADDAY111999GF103991999001999999041001MD1810081+9999MW1021EQDQ01+000002SCOTLC
0057029700999991955051912004+60117+019900FM-12+000399999V0202001N00821220001CN0400001N9+00891+00501100541ADDAY111999GF100991001001999999001001MD1210111+9999MW1001
0057029700999991955052112004+60117+019900FM-12+000399999V0203401N00311012301CN0400001N9+00891+00281100241ADDAY111999GF106991061091012501999999MD1110171+9999MW1021
0057029700999991955052212004+60117+019900FM-12+000399999V0203201N00621075001CN0300001N9+00611-00221101251ADDAY111999GF105991011021012501001091MD1210111+9999MW1031
0057029700999991955052312004+60117+019900FM-12+000399999V0202301N00211001501CN0400001N9+00391+00281101241ADDAY111999GF107991071091001501999999MD1210041+9999MW1871
0057029700999991955052512004+60117+019900FM-12+000399999V0203401N00511220001CN0400001N9+00781+00221100921ADDAY111999GF102991021011012501001001MD1210041+9999MW1031
0057029700999991955052612004+60117+019900FM-12+000399999V0200201N00621012301CN0400001N9+00721+00111101351ADDAY111999GF107991061011012501001061MD1210081+9999MW1021
0078029700999991955052812004+60117+019900FM-12+000399999V0203401N00511220001CN0400001N9+01001+00281101441ADDAY111999GF101991011011012501001001MW1021EQDQ01+000042APCTENQ02+000082APC3  
0078029700999991955053112004+60117+019900FM-12+000399999V0200501N00411220001CN0400001N9+01611+00611102481ADDAY111999GF105991001001999999001061MW1011EQDQ01+000072APCTENQ02+000002APC3  
0057029700999991955060112004+60117+019900FM-12+000399999V0202301N00311220001CN0400001N9+01281+00221102481ADDAY111999GF106991001001999999041999MD1810031+9999MW1021
0076029700999991955060212004+60117+019900FM-12+000399999V0203601N00101220001CN0400001N9+01721+00721102151ADDAY111999GF103991999001999999041001MD1210111+9999MW1021EQDQ01+000002SCOTLC
0057029700999991955060312004+60117+019900FM-12+000399999V0200201N00101220001CN0400001N9+02001+00721102141ADDAY111999GF100991001001999999001001MD1810091+9999MW1001
0078029700999991955060412004+60117+019900FM-12+000399999V0203201N00411220001CN0400001N9+01721+00721101581ADDAY111999GF105991001001999999001061MW1031EQDQ01+000072APCTENQ02+000002APC3  
0076029700999991955060612004+60117+019900FM-12+000399999V0203201N00411220001CN0400001N9+01281+00391100981ADDAY111999GF105991999001999999041001MD1810011+9999MW1021EQDQ01+000002SCOTLC
0057029700999991955060912004+60117+019900FM-12+000399999V0203201N00511030001CN0500001N9+99999+99999100901ADDAY121999GF105991021021012501031001MD1210121+9999MW1021
0078029700999991955061112004+60117+019900FM-12+000399999V0203601N00621220001CN0500001N9+01281+00221101181ADDAY101999GF100991001001999999001001MW1021EQDQ01+000042APCTENQ02+000012APC3  
0057029700999991955061212004+60117+019900FM-12+000399999V0202001N00621220001CN0500001N9+01221+00391101451ADDAY111999GF102991021021012501031021MD1110011+9999MW1011
0057029700999991955061512004+60117+019900FM-12+000399999V0201801N00721001501CN0100001N9+00891+00781101061ADDAY121999GF108991081061001501999999MD1710231+9999MW1031
0078029700999991955061612004+60117+019900FM-12+000399999V0201801N00511001501CN0050001N9+01001+01001099601ADDAY161999GF108991081071001501999999MW1611EQDQ01+000032APCTENQ02+000002APC3  
0043029700999991955061812004+60117+019900FM-12+000399999V0203201N00721220001CN0400001N9+01221+00391101241ADDAY121999GF103991021011008001081001MW1011
0057029700999991955061912004+60117+019900FM-12+000399999V0203501N00621220001CN0500001N9+01111+00221101861ADDAY101999GF102991001001999999001041MD1110021+9999MW1021
0076029700999991955062412004+60117+019900FM-12+000399999V0202001N00621220001CN0400001N9+01501+01111101641ADDAY121999GF104991999001999999051001MD1110011+9999MW1051EQDQ01+000002SCOTLC
0043029700999991955062512004+60117+019900FM-12+000399999V0202001N00511220001CN0500001N9+01781+01001101651ADDGF100991001001999999001001MD1210051+9999
0057029700999991955062712004+60117+019900FM-12+000399999V0200201N00511075001CN0550001N9+01781+00281101381ADDAY121999GF105991011011012501011061MD1610011+9999MW1031
0057029700999991955062812004+60117+019900FM-12+000399999V0202001N00411220001CN0500001N9+01781+00501101711ADDAY101999GF102991021091012501001001MD1410001+9999MW1031
0076029700999991955062912004+60117+019900FM-12+000399999V0202001N00621220001CN0500001N9+01721+01001101511ADDAY101999GF102991999001999999031001MD1710041+9999MW1001EQDQ01+000002SCOTLC
0057029700999991955063012004+60117+019900FM-12+000399999V0202001N00211012301CN0300001N9+01501+01281101321ADDAY121999GF107991071061012501999999MD1410001+9999MW1011
0057029700999991955070112004+60117+019900FM-12+000399999V0202101N00311030001CN0500001N9+02001+00891101341ADDAY111999GF107991011011017501071071MD1810011+9999MW1031
0105029700999991955070206004+60117+019900FM-12+000399999V0201201N00101220001CN0500001N9+01781+01281101101ADDAY121999GF105991999001999999031001KA1999N+99999MD1710111+9999MW1031EQDQ01+000002SCOTLCQ02 +01892ATMN  
0057029700999991955070212004+60117+019900FM-12+000399999V0201801N00311220001CN0500001N9+02391+01281100811ADDAY111999GF102991011011017501011001MD1710121+9999MW1001
0057029700999991955070412004+60117+019900FM-12+000399999V0203201N00511012301CN0500001N9+02001+01391100391ADDAY101999GF105991051021012501001001MD1210121+9999MW1011
0057029700999991955070512004+60117+019900FM-12+000399999V0202001N00311220001CN0500001N9+01781+01281100881ADDAY111999GF104991041051004501001001MD1210091+9999MW1001
0070029700999991955070606004+60117+019900FM-12+000399999V0203601N00511220001CN0500001N9+01721+01281101361ADDAY101999GF104991001001999999071011KA1999N+00891MD1210071+9999MW1001
0037029700999991955070612004+60117+019900FM-12+000399999V0203601N00511220001CN0180001N9+02001+01221101581ADDAY111999GF102991001001999999031061
0057029700999991955070700004+60117+019900FM-12+000399999V0209991C00001220001CN0500001N9+00501+00501101801ADDAY101999GF103991001001999999031011MD1210011+9999MW1031
0043029700999991955070712004+60117+019900FM-12+000399999V0202001N00411220001CN0500001N9+02001+99999101981ADDAY101999GF102991011021012501999999MW1021
0057029700999991955070912004+60117+019900FM-12+000399999V0200201N00411220001CN0500001N9+02221+00781102891ADDAY101999GF100991001001999999001001MD1810031+9999MW1001
0070029700999991955071006004+60117+019900FM-12+000399999V0200301N00211220001CN0500001N9+01891+01221102741ADDAY101999GF100991001001999999001001KA1999N+00781MD1110031+9999MW1001
0057029700999991955071100004+60117+019900FM-12+000399999V0203601N00211220001CN0500001N9+01111+01001102581ADDAY101999GF100991001001999999001001MD1210011+9999MW1021
0057029700999991955071112004+60117+019900FM-12+000399999V0200401N00411220001CN0500001N9+02501+00281102551ADDAY101999GF100991001001999999001001MD1410001+9999MW1021
0057029700999991955071312004+60117+019900FM-12+000399999V0202201N00411220001CN0400001N9+02501+02001101951ADDAY101999GF102991011011012501031011MD1410001+9999MW1031
0057029700999991955071400004+60117+019900FM-12+000399999V0209991C00001220001CN0002001N9+01111+01111101851ADDAY141999GF102991011051008001031001MD1710011+9999MW1461
0070029700999991955071406004+60117+019900FM-12+000399999V0209991C00001030001CN0200001N9+01891+01721101821ADDAY121999GF107991031031008001021021KA1999N+01001MD1710031+9999MW1601
0057029700999991955071412004+60117+019900FM-12+000399999V0201801N00511220001CN0044001N9+02391+01721101821ADDAY101999GF103991021021008001031001MD1410001+9999MW1021
0089029700999991955071418004+60117+019900FM-12+000399999V0201601N00311220001CN0500001N9+02221+01891101591ADDAY101999GF102991999001999999011001KA1999M+02391MD1710151+9999MW1021EQDQ01+000002SCOTLC
0057029700999991955071512004+60117+019900FM-12+000399999V0202101N00671220001CN0500001N9+99999+99999101311ADDAY101999GF101991011091008001041001MD1610111+9999MW1031
0057029700999991955071612004+60117+019900FM-12+000399999V0203401N00621220001CN0500001N9+02111+01111100951ADDAY101999GF102991011011012501031001MD1210121+9999MW1011
0057029700999991955071712004+60117+019900FM-12+000399999V0202001N00411220001CN0500001N9+02391+02111101121ADDAY101999GF101991011011999999001001MD1010041+9999MW1021
0057029700999991955071912004+60117+019900FM-12+000399999V0202401N00511220001CN0500001N9+99999+99999999999ADDAY111999GF103991001001999999001051MD1710011+9999MW1031
0057029700999991955072112004+60117+019900FM-12+000399999V0203401N00821030001CN0500001N9+01721+01721101481ADDAY101999GF105991021011012501031001MD1210051+9999MW1011
0057029700999991955072212004+60117+019900FM-12+000399999V0203401N00721220001CN0500001N9+01781+01111101421ADDAY101999GF102991011011012501031011MD1410001+9999MW1011
0057029700999991955072312004+60117+019900FM-12+000399999V0203601N00721220001CN0500001N9+02001+01501101151ADDAY111999GF104991021011012501031011MD1710071+9999MW1031
0057029700999991955072400004+60117+019900FM-12+000399999V0203601N00511220001CN0500001N9+01391+01001101181ADDAY111999GF103991031041012501001001MD1710081+9999MW1001
0057029700999991955072412004+60117+019900FM-12+000399999V0200201N00721007801CN0450001N9+01501+01221101511ADDAY121999GF108991071071008001999999MD1210151+9999MW1021
0070029700999991955072518004+60117+019900FM-12+000399999V0203601N00821220001CN0500001N9+01721+01001101611ADDAY101999GF101991001001999999001011KA1999M+01781MD1410001+9999MW1011
0070029700999991955072606004+60117+019900FM-12+000399999V0200201N00211220001CN0500001N9+01721+01281101841ADDAY101999GF100991001001999999001001KA1999N+01111MD1310031+9999MW1021
0057029700999991955072618004+60117+019900FM-12+000399999V0200201N00511220001CN0500001N9+02001+01281102021ADDAY111999GF103991001001999999031011MD1710011+9999MW1021
0057029700999991955072700004+60117+019900FM-12+000399999V0203601N00101220001CN0400001N9+00891+00891102141ADDAY101999GF100991001001999999001001MD1210041+9999MW1021
0057029700999991955072800004+60117+019900FM-12+000399999V0209991C00001220001CN0500001N9+99999+99999101711ADDAY101999GF100991001001999999001001MD1710011+9999MW1021
0043029700999991955072912004+60117+019900FM-12+000399999V0203601N00511220001CN0300001N9+01611+00721101751ADDAY161999GF108991001001999999021999MW1211
0081029700999991955072918004+60117+019900FM-12+000399999V0203601N00211015001CN0500001N9+01281+01221101251ADDAA199002091AY121999GF105991051041017501001001KA1999M+01891MD1410001+9999MW1021
0057029700999991955073012004+60117+019900FM-12+000399999V0203501N00311220001CN0500001N9+02501+02221101651ADDAY101999GF102991001001999999031011MD1210031+9999MW1031
0057029700999991955073100004+60117+019900FM-12+000399999V0209991C00001220001CN0500001N9+01001+01001101591ADDAY101999GF101991001001999999001011MD1210011+9999MW1011
0070029700999991955073106004+60117+019900FM-12+000399999V0202501N00211220001CN9999999N9+01781+01001101271ADDAY101999GF102991001001999999001011KA1999N+00611MD1410001+9999MW1021
0057029700999991955080100004+60117+019900FM-12+000399999V0202001N00211220001CN0500001N9+01721+01501101221ADDAY101999GF100991001001999999001001MD1710041+9999MW1011
0057029700999991955080200004+60117+019900FM-12+000399999V0201901N00101220001CN0400001N9+01611+01391100781ADDAY101999GF101991011041017501001001MD1710121+9999MW1021
0057029700999991955080212004+60117+019900FM-12+000399999V0203601N00511007801CN0500001N9+01781+01281100861ADDAY121999GF107991071081008001031001MD1110081+9999MW1031
0081029700999991955080306004+60117+019900FM-12+000399999V0203601N00511220001CN0500001N9+01391+00781101061ADDAA199000691AY101999GF102991001001999999051021KA1999N+01111MD1210041+9999MW1031
0043029700999991955080312004+60117+019900FM-12+000399999V0203601N00621220001CN0500001N9+99999+99999101201ADDAY111999GF102991011011999999999999MW1021
0089029700999991955080318004+60117+019900FM-12+000399999V0203601N00511220001CN0500001N9+01501+00611101221ADDAY101999GF101991999001999999031001KA1999M+01781MD1210011+9999MW1011EQDQ01+000002SCOTLC
0057029700999991955080400004+60117+019900FM-12+000399999V0209991C00001220001CN0003001N9+00281+00281101311ADDAY121999GF101991011051012501001001MD1210011+9999MW1461
0076029700999991955080600004+60117+019900FM-12+000399999V0201801N00511220001CN0500001N9+01391+01111100961ADDAY121999GF106991999001999999071001MD1710131+9999MW1011EQDQ01+000002SCOTLC
0057029700999991955080612004+60117+019900FM-12+000399999V0202001N00311030001CN0500001N9+01781+01391100401ADDAY121999GF107991041011004501031051MD1710111+9999MW1031
0057029700999991955080712004+60117+019900FM-12+000399999V0201901N00511220001CN0500001N9+01781+01111100251ADDAY121999GF104991031021008001031011MD1110111+9999MW1021
0057029700999991955080812004+60117+019900FM-12+000399999V0200901N00311030001CN0500001N9+02111+01221101441ADDAY121999GF108991011021004501071001MD1110151+9999MW1011
0057029700999991955081000004+60117+019900FM-12+000399999V0203601N00211220001CN0200001N9+01281+01281102251ADDAY121999GF104991041051001501001001MD1210041+9999MW1011
0057029700999991955081012004+60117+019900FM-12+000399999V0203301N00511220001CN0500001N9+02221+01221102341ADDAY111999GF103991001001999999001011MD1410001+9999MW1021
0057029700999991955081112004+60117+019900FM-12+000399999V0203501N00511220001CN0500001N9+02111+01111102401ADDAY101999GF103991001001999999001051MD1410001+9999MW1031
0070029700999991955081118004+60117+019900FM-12+000399999V0203501N00211220001CN0500001N9+01501+01111102371ADDAY111999GF106991001001999999011061KA1999M+02111MD1610011+9999MW1031
0076029700999991955081212004+60117+019900FM-12+000399999V0200501N00211220001CN0500001N9+02391+00781102141ADDAY101999GF101991999001999999031001MD1710111+9999MW1011EQDQ01+000002SCOTLC
0057029700999991955081412004+60117+019900FM-12+000399999V0202001N00411220001CN0500001N9+02221+01111101001ADDAY101999GF102991001001999999001021MD1710041+9999MW1021
0057029700999991955081612004+60117+019900FM-12+000399999V0201801N00511220001CN0500001N9+02391+01391101811ADDAY111999GF101991001001999999001011MD1210071+9999MW1021
0070029700999991955081706004+60117+019900FM-12+000399999V0209991C00001220001CN0300001N9+01891+01501101971ADDAY101999GF100991001001999999001001KA1999N+01001MD1210071+9999MW1051
0057029700999991955081712004+60117+019900FM-12+000399999V0202001N00511220001CN0200001N9+02281+01501101991ADDAY101999GF100991001001999999001001MD1410001+9999MW1051
0057029700999991955081800004+60117+019900FM-12+000399999V0201901N00311220001CN0020001N9+01781+01721101941ADDAY101999GF100991001001999999001001MD1210031+9999MW1101
0057029700999991955081812004+60117+019900FM-12+000399999V0201801N00311002401CN0150001N9+02111+01611101971ADDAY121999GF107991071061002501001001MD1410001+9999MW1051
0070029700999991955081906004+60117+019900FM-12+000399999V0201801N00211002401CN0050001N9+01891+01781102011ADDAY121999GF107991071061002501999999KA1999N+01281MD1210041+9999MW1021
0076029700999991955081912004+60117+019900FM-12+000399999V0201901N00411220001CN0300001N9+02281+01721102181ADDAY111999GF101991999001999999031001MD1210051+9999MW1051EQDQ01+000002SCOTLC
0057029700999991955082012004+60117+019900FM-12+000399999V0202001N00411030001CN0200001N9+02111+01781102551ADDAY121999GF107991031071004501071011MD1210071+9999MW1051
0070029700999991955082018004+60117+019900FM-12+000399999V0202001N00311030001CN0100001N9+01891+01781102491ADDAY111999GF108991011061004501011999KA1999M+02221MD1410001+9999MW1051
0070029700999991955082106004+60117+019900FM-12+000399999V0209991C00001220001CN0050001N9+01781+01781102521ADDAY141999GF101991001001999999001011KA1999N+01221MD1210011+9999MW1421
0057029700999991955082112004+60117+019900FM-12+000399999V0202001N00211030001CN0080001N9+02111+01611102511ADDAY121999GF107991011011008001011021MD1610011+9999MW1031
0070029700999991955082118004+60117+019900FM-12+000399999V0201801N00101030001CN0200001N9+02001+01721102381ADDAY121999GF107991011051012501021021KA1999M+02281MD1710041+9999MW1031
0057029700999991955082200004+60117+019900FM-12+000399999V0209991C00001220001CN0150001N9+01611+01501102421ADDAY111999GF103991001001999999021011MD1210011+9999MW1011
0057029700999991955082212004+60117+019900FM-12+000399999V0209991C000019999999N0300001N9+01891+01611102551ADDAY121999GF107991999041008001031031MD1210031+9999MW1021
0057029700999991955082412004+60117+019900FM-12+000399999V0203601N00411220001CN0500001N9+02281+00891102551ADDAY101999GF100991001001999999001001MD1610031+9999MW1021
0070029700999991955082418004+60117+019900FM-12+000399999V0200201N00411220001CN0500001N9+01781+00221102511ADDAY101999GF102991001001999999001011KA1999M+02281MD1410001+9999MW1031
0070029700999991955082506004+60117+019900FM-12+000399999V0209991C00001220001CN0500001N9+01611+01501102541ADDAY101999GF101991011051004501001021KA1999N+00721MD1610011+9999MW1021
0057029700999991955082512004+60117+019900FM-12+000399999V0202501N00311220001CN0500001N9+02501+01221102461ADDAY101999GF101991001001999999001011MD1710041+9999MW1021
0070029700999991955082518004+60117+019900FM-12+000399999V0202201N00311220001CN0500001N9+01891+01391102351ADDAY101999GF100991001001999999001001KA1999M+02501MD1710031+9999MW1021
0057029700999991955082612004+60117+019900FM-12+000399999V0202001N00411220001CN0500001N9+02221+01281102351ADDAY101999GF100991001001999999001001MD1410001+9999MW1021
0091029700999991955082706004+60117+019900FM-12+000399999V0201801N00101220001CN0500001N9+01611+01501102211ADDAY141999GF101991001001999999001011KA1999N+00781MW1281EQDQ01+000022APCTENQ02+000002APC3  
0070029700999991955082718004+60117+019900FM-12+000399999V0201901N00511220001CN0300001N9+01891+01781101721ADDAY101999GF101991001001999999001011KA1999M+02221MD1710121+9999MW1021
0057029700999991955082800004+60117+019900FM-12+000399999V0202001N00211220001CN0300001N9+01721+01391101601ADDAY101999GF100991001001999999001001MD1710071+9999MW1021
0057029700999991955082812004+60117+019900FM-12+000399999V0200201N00511220001CN0500001N9+02001+00891101691ADDAY101999GF102991011021012501041001MD1210071+9999MW1021
0070029700999991955082818004+60117+019900FM-12+000399999V0203601N00101220001CN0500001N9+01391+00721101791ADDAY101999GF102991001001999999031011KA1999M+02111MD1210051+9999MW1021
0070029700999991955082906004+60117+019900FM-12+000399999V0209991C00001075001CN0500001N9+01001+00891102011ADDAY111999GF105991011041012501031041KA1999N+00221MD1210041+9999MW1021
0057029700999991955082912004+60117+019900FM-12+000399999V0202001N00311075001CN0500001N9+01891+01111102041ADDAY101999GF105991011011008001041021MD1010101+9999MW1011
0057029700999991955083000004+60117+019900FM-12+000399999V0203601N00101220001CN0500001N9+00611+00611101971ADDAY101999GF102991011051022501001011MD1810041+9999MW1011
0057029700999991955083100004+60117+019900FM-12+000399999V0202001N00311220001CN0500001N9+01721+01611101691ADDAY101999GF100991001001999999001001MD1710131+9999MW1021
0057029700999991955083112004+60117+019900FM-12+000399999V0201801N00511220001CN0500001N9+02281+01391101351ADDAY101999GF100991001001999999001001MD1710121+9999MW1021
0057029700999991955090112004+60117+019900FM-12+000399999V0202001N00621075001CN0300001N9+02111+01611100411ADDAY111999GF105991021021004501041011MD1710081+9999MW1011
0070029700999991955090206004+60117+019900FM-12+000399999V0209991C00001030001CN0200001N9+01391+01391100091ADDAY141999GF106991021021012501011021KA1999N+00781MD1510011+9999MW1031
0057029700999991955090312004+60117+019900FM-12+000399999V0201901N00511030001CN0500001N9+01891+01501099411ADDAY121999GF106991041021004501031001MD1710071+9999MW1031
0057029700999991955090512004+60117+019900FM-12+000399999V0202001N00511220001CN0500001N9+01891+01281100991ADDAY101999GF102991011021008001031011MD1810011+9999MW1021
0070029700999991955090518004+60117+019900FM-12+000399999V0202001N00211220001CN0250001N9+01611+01391100951ADDAY101999GF102991011051012501031001KA1999M+01891MD1710011+9999MW1011
0070029700999991955090606004+60117+019900FM-12+000399999V0202401N00411220001CN0250001N9+01611+01391101011ADDAY121999GF106991001001999999051011KA1999N+00891MD1310011+9999MW1031
0057029700999991955090612004+60117+019900FM-12+000399999V0201901N00511220001CN0500001N9+01891+01501101011ADDAY121999GF106991001001999999031011MD1710041+9999MW1021
0076029700999991955090700004+60117+019900FM-12+000399999V0202701N00311220001CN0400001N9+01721+01281101121ADDAY121999GF103991999001999999041001MD1210071+9999MW1021EQDQ01+000002SCOTLC
0057029700999991955090712004+60117+019900FM-12+000399999V0200201N00311220001CN0500001N9+01891+00781101921ADDAY101999GF105991001001999999001011MD1210121+9999MW1011
0057029700999991955090812004+60117+019900FM-12+000399999V0202001N00311001501CN0040001N9+01891+01611102291ADDAY121999GF106991061051001501999999MD1410001+9999MW1051
0070029700999991955090818004+60117+019900FM-12+000399999V0201401N00101001501CN0015001N9+01721+01611102181ADDAY111999GF107991071051001501999999KA1999M+02001MD1710041+9999MW1101
0057029700999991955090912004+60117+019900FM-12+000399999V0201601N00511220001CN0100001N9+02221+01501101811ADDAY101999GF100991001001999999001001MD1710151+9999MW1051
0057029700999991955091000004+60117+019900FM-12+000399999V0201901N00311220001CN0100001N9+01721+01721101541ADDAY101999GF100991001001999999001001MD1710011+9999MW1021
0070029700999991955091006004+60117+019900FM-12+000399999V0209991C00001000151CN0002001N9+01611+01611101511ADDAY141999GF109991091999999999999999KA1999N+01501MD1210211+9999MW1451
0070029700999991955091018004+60117+019900FM-12+000399999V0201901N00211000601CN0001001N9+01611+01611101391ADDAY141999GF108991081061000751999999KA1999M+02221MD1610011+9999MW1471
0057029700999991955091100004+60117+019900FM-12+000399999V0209991C00001000601CN0000001N9+01281+01281101321ADDAY141999GF108991081061000751999999MD1710031+9999MW1451
0043029700999991955091112004+60117+019900FM-12+000399999V0201501N00511000601CN0015001N9+01781+99999100791ADDAY161999GF108991081061000751999999MW1611
0057029700999991955091300004+60117+019900FM-12+000399999V0209991C00001220001CN0400001N9+99999+99999999999ADDAY111999GF100991001001999999001001MD1410001+9999MW1021
0057029700999991955091312004+60117+019900FM-12+000399999V0203401N00261002401CN0150001N9+01221+01111101321ADDAY161999GF108991071071002501021999MD1610191+9999MW1621
0057029700999991955091412004+60117+019900FM-12+000399999V0202901N00361030001CN0500001N9+01611+01001100241ADDAY121999GF106991041021004501031021MD1210081+9999MW1011
0057029700999991955091500004+60117+019900FM-12+000399999V0200301N99999002401CN0150001N9+99999+99999100811ADDAY121999GF108991061051002501021999MD1710041+9999MW1601
0057029700999991955091512004+60117+019900FM-12+000399999V0200401N00101002401CN0150001N9+01501+01391099861ADDAY121999GF107991071061002501031001MD1710041+9999MW1011
0057029700999991955091612004+60117+019900FM-12+000399999V0201601N00931004501CN0400001N9+01501+00891100261ADDAY101999GF107991071021004501001001MD1210201+9999MW1031
0057029700999991955091700004+60117+019900FM-12+000399999V0201601N01131002401CN0300001N9+01391+01111099891ADDAY161999GF106991061061002501001001MD1710271+9999MW1601
0081029700999991955091718004+60117+019900FM-12+000399999V0202201N00931012301CN0500001N9+01501+01111100801ADDAA199002091AY121999GF107991071051012501999999KA1999M+01721MD1210241+9999MW1031
0081029700999991955091806004+60117+019900FM-12+000399999V0202301N00621220001CN0500001N9+01281+01001101061ADDAA199000691AY111999GF104991021051004501001021KA1999N+01221MD1210031+9999MW1031
0057029700999991955091812004+60117+019900FM-12+000399999V0202101N00511075001CN0500001N9+01501+01111101051ADDAY111999GF105991011021008001031011MD1710071+9999MW1021
0081029700999991955091818004+60117+019900FM-12+000399999V0202001N00311004501CN0100001N9+01111+00891100911ADDAA199002091AY121999GF108991061091004501021999KA1999M+01611MD1710081+9999MW1291
0057029700999991955091900004+60117+019900FM-12+000399999V0209991C00001220001CN0300001N9+00781+00781100821ADDAY101999GF100991001001999999001001MD1710051+9999MW1021
0057029700999991955091912004+60117+019900FM-12+000399999V0203101N00511002401CN0250001N9+01281+01001100991ADDAY161999GF107991051031002501021021MD1210111+9999MW1951
0057029700999991955092012004+60117+019900FM-12+000399999V0203401N00931004501CN0300001N9+01391+99999101121ADDAY121999GF107991061081004501031999MD1310011+9999MW1181
0057029700999991955092112004+60117+019900FM-12+000399999V0203601N01031004501CN0500001N9+01281+01001101541ADDAY121999GF108991081051004501999999MD1210091+9999MW1021
0081029700999991955092206004+60117+019900FM-12+000399999V0203601N00621002401CN0400001N9+01111+00891101691ADDAA199000691AY121999GF108991081061002501999999KA1999N+01111MD1310011+9999MW1501
0081029700999991955092218004+60117+019900FM-12+000399999V0200201N00411004501CN0200001N9+01111+00891101981ADDAA199000691AY121999GF108991081061004501999999KA1999M+01281MD1210171+9999MW1501
0057029700999991955092300004+60117+019900FM-12+000399999V0203601N00211007801CN0300001N9+01001+01001102191ADDAY151999GF108991081061008001999999MD1210121+9999MW1201
0057029700999991955092412004+60117+019900FM-12+000399999V0203001N00051007801CN0500001N9+01221+00781102691ADDAY121999GF108991081051008001999999MD1310011+9999MW1011
0070029700999991955092518004+60117+019900FM-12+000399999V0201801N00821012301CN0300001N9+01281+01111101941ADDAY121999GF107991061051012501021999KA1999M+01391MD1710131+9999MW1021
0057029700999991955092612004+60117+019900FM-12+000399999V0202301N00511220001CN0300001N9+01391+01111101021ADDAY111999GF102991021081008001001001MD1610011+9999MW1031
0057029700999991955092700004+60117+019900FM-12+000399999V0202501N00211220001CN0500001N9+01001+00721100861ADDAY101999GF100991001001999999001001MD1310031+9999MW1021
0070029700999991955092706004+60117+019900FM-12+000399999V0202701N00311220001CN0500001N9+01001+00781100791ADDAY101999GF102991011051008001001041KA1999N+00891MD1710031+9999MW1031
0057029700999991955092712004+60117+019900FM-12+000399999V0202501N00311220001CN0500001N9+01221+00721100811ADDAY101999GF102991021011008001001051MD1310031+9999MW1011
0057029700999991955092912004+60117+019900FM-12+000399999V0202001N00771220001CN0500001N9+01221+00721101571ADDAY121999GF107991001001999999071999MD1710111+9999MW1021
0070029700999991955092918004+60117+019900FM-12+000399999V0202301N00511220001CN0400001N9+01221+00781101241ADDAY121999GF108991001001999999071999KA1999M+01281MD1810111+9999MW1021
0070029700999991955093006004+60117+019900FM-12+000399999V0202301N00461220001CN0400001N9+01221+01221100711ADDAY101999GF102991011051008001041021KA1999N+01111MD1710151+9999MW1011
0057029700999991955093012004+60117+019900FM-12+000399999V0202401N00621004501CN0300001N9+01611+01281100411ADDAY121999GF107991071051004501999999MD1710211+9999MW1031
0070029700999991955093018004+60117+019900FM-12+000399999V0202601N00721220001CN0300001N9+01501+01221100151ADDAY101999GF101991011051008001001021KA1999M+01721MD1710081+9999MW1011
0057029700999991955100100004+60117+019900FM-12+000399999V0202701N00511030001CN0400001N9+01221+01001100121ADDAY121999GF106991031051008001031001MD1210031+9999MW1011
0057029700999991955100112004+60117+019900FM-12+000399999V0202701N00511220001CN0500001N9+01281+00501100011ADDAY111999GF103991031021004501001001MD1210011+9999MW1031
0057029700999991955100200004+60117+019900FM-12+000399999V0202801N00621220001CN0400001N9+00891+00281100451ADDAY101999GF101991011041004501001001MD1210111+9999MW1021
0070029700999991955100206004+60117+019900FM-12+000399999V0202801N00511004501CN0500001N9+00781+00391100821ADDAY111999GF106991051051004501031001KA1999N+00721MD1210191+9999MW1021
0057029700999991955100312004+60117+019900FM-12+000399999V0202201N00721002401CN0150001N9+01111+01001101001ADDAY161999GF108991081061002501999999MD1410001+9999MW1601
0081029700999991955100318004+60117+019900FM-12+000399999V0202001N00931012301CN0250001N9+01221+01001100881ADDAA199001091AY161999GF108991061061012501021999KA1999M+01221MD1710051+9999MW1211
0070029700999991955100406004+60117+019900FM-12+000399999V0202301N00511220001CN0300001N9+01001+00781100601ADDAY101999GF102991011051004501021011KA1999N+01001MD1510031+9999MW1011
0057029700999991955100412004+60117+019900FM-12+000399999V0202701N00511220001CN0500001N9+01281+00721100891ADDAY111999GF103991031061004501001001MD1210151+9999MW1021
0070029700999991955100418004+60117+019900FM-12+000399999V0200201N00051220001CN0400001N9+00281+00281101121ADDAY101999GF102991001001999999081041KA1999M+01281MD1210121+9999MW1111
0057029700999991955100500004+60117+019900FM-12+000399999V0200201N00101220001CN0500001N9+00721+00611101321ADDAY121999GF107991001001999999051999MD1210091+9999MW1031
0043029700999991955100612004+60117+019900FM-12+000399999V0201401N00461001501CN0150001N9+01001+00781101411ADDAY121999GF108991081061001501999999MW1021
0057029700999991955100712004+60117+019900FM-12+000399999V0201401N00411001501CN0030001N9+01281+01221101441ADDAY121999GF108991081061001501999999MD1210041+9999MW1101
0070029700999991955100718004+60117+019900FM-12+000399999V0201601N00411002401CN0050001N9+01221+01111101571ADDAY121999GF108991081061002501999999KA1999M+01281MD1210081+9999MW1021
0070029700999991955100806004+60117+019900FM-12+000399999V0209991C00001000151CN0030001N9+01001+01001101781ADDAY141999GF108991081061000251999999KA1999N+01001MD1310041+9999MW1501
0057029700999991955100812004+60117+019900FM-12+000399999V0203601N00211001501CN0030001N9+01111+01001101841ADDAY161999GF108991081061001501999999MD1410001+9999MW1611
0076029700999991955100900004+60117+019900FM-12+000399999V0202301N00101220001CN0100001N9+01221+01111101951ADDAY121999GF108991999001999999011001MD1410001+9999MW1031EQDQ01+000002SCOTLC
0057029700999991955100912004+60117+019900FM-12+000399999V0202201N00821030001CN0250001N9+01221+01001101711ADDAY121999GF108991031071004501021999MD1710051+9999MW1181
0057029700999991955101112004+60117+019900FM-12+000399999V0202001N00621220001CN0050001N9+01281+01111101991ADDAY101999GF101991011011004501001001MD1710071+9999MW1051
0056029700999991955101118004+60117+019900FM-12+000399999V0202401N00311220001CN0100001N9+01111+99999101881ADDAY101999GF100991001001999999001001KA1999M+01391MW1021
0070029700999991955101206004+60117+019900FM-12+000399999V0202601N00151007801CN0300001N9+01001+00891101851ADDAY121999GF108991081051008001999999KA1999N+00721MD1310031+9999MW1021
0057029700999991955101300004+60117+019900FM-12+000399999V0202201N00211004501CN0100001N9+01111+01111101711ADDAY151999GF108991081061004501999999MD1710121+9999MW1511
0057029700999991955101312004+60117+019900FM-12+000399999V0202201N00621004501CN0120001N9+01221+01111101341ADDAY121999GF108991081051004501999999MD1710111+9999MW1021
0057029700999991955101512004+60117+019900FM-12+000399999V0202901N00511002401CN0100001N9+00891+00721098121ADDAY121999GF107991051061002501021999MD1210281+9999MW1021
0081029700999991955101606004+60117+019900FM-12+000399999V0203601N00511004501CN0150001N9+00281+00221097971ADDAA199001091AY121999GF107991051051004501021999KA1999N+00111MD1210081+9999MW1601
0057029700999991955101612004+60117+019900FM-12+000399999V0203601N00461030001CN0500001N9+00391+00221098461ADDAY161999GF108991021071002501021999MD1110191+9999MW1261
0057029700999991955101800004+60117+019900FM-12+000399999V0209991C00001220001CN0500001N9-00281-00391099951ADDAY101999GF100991001001999999001001MD1210031+9999MW1021
0043029700999991955101812004+60117+019900FM-12+000399999V0201701N00211030001CN0400001N9+00781+99999099741ADDAY111999GF107991041081004501021999MW1031
0057029700999991955101912004+60117+019900FM-12+000399999V0203301N00511004501CN0500001N9+00501+00221100581ADDAY121999GF107991061051004501031999MD1210361+9999MW1011
0081029700999991955102006004+60117+019900FM-12+000399999V0201701N00511030001CN0300001N9+00391+00111101541ADDAA199000691AY121999GF108991021051008001021999KA1999N-00221MD1810011+9999MW1031
0057029700999991955102100004+60117+019900FM-12+000399999V0202001N01131220001CN0300001N9+00891+00721100411ADDAY111999GF102991021051008001001001MD1610161+9999MW1011
0057029700999991955102112004+60117+019900FM-12+000399999V0202001N01031002401CN0100001N9+01001+00891100261ADDAY121999GF108991081061002501999999MD1010011+9999MW1211
0057029700999991955102212004+60117+019900FM-12+000399999V0200401N00671012301CN0500001N9+00611+00221101811ADDAY111999GF106991061051012501001001MD1210211+9999MW1011
0057029700999991955102312004+60117+019900FM-12+000399999V0200601N00211220001CN0500001N9+00281-00281102121ADDAY111999GF104991001001999999001021MD1710111+9999MW1021
0070029700999991955102318004+60117+019900FM-12+000399999V0209991C00001220001CN0500001N9-00281-00391102311ADDAY101999GF103991011041008001041011KA1999M+00391MD1710031+9999MW1021
0070029700999991955102406004+60117+019900FM-12+000399999V0209991C00001004501CN0400001N9+00111-00111101661ADDAY121999GF108991081051004501999999KA1999N-00501MD1610151+9999MW1031
0057029700999991955102412004+60117+019900FM-12+000399999V0201001N00211000601CN0008001N9+00611+00611101151ADDAY151999GF108991081061000751999999MD1710291+9999MW1511
0081029700999991955102418004+60117+019900FM-12+000399999V0201701N00211004501CN0040001N9+00781+00781100851ADDAA199001091AY121999GF108991081071004501999999KA1999M+00891MD1710071+9999MW1021
0057029700999991955102512004+60117+019900FM-12+000399999V0203001N00411002401CN0300001N9+00611+00391100281ADDAY161999GF108991081061002501999999MD1810031+9999MW1601
0057029700999991955102612004+60117+019900FM-12+000399999V0200401N00311004501CN0100001N9+00391+00281098891ADDAY161999GF108991081061004501999999MD1710131+9999MW1611
0057029700999991955102712004+60117+019900FM-12+000399999V0203101N00511000601CN9999999N9+00281+00111099191ADDAY171999GF108991081031000751999999MD1210111+9999MW1211
0070029700999991955102806004+60117+019900FM-12+000399999V0209991C00001007801CN0400001N9-00111-00111099851ADDAY121999GF107991061061008001031999KA1999N-00281MD1210071+9999MW1021
0057029700999991955102812004+60117+019900FM-12+000399999V0202901N00211220001CN0500001N9+00391-00281099991ADDAY111999GF104991041031008001041001MD1210041+9999MW1031
0057029700999991955102900004+60117+019900FM-12+000399999V0203401N00411004501CN0200001N9+00001+00001100141ADDAY151999GF106991051051004501031001MD1710031+9999MW1021
0057029700999991955103012004+60117+019900FM-12+000399999V0202901N00571001501CN0300001N9+00221+00221099021ADDAY181999GF108991081031001501999999MD1210171+9999MW1261
0057029700999991955103112004+60117+019900FM-12+000399999V0203001N00511004501CN0500001N9+00001+00001100341ADDAY181999GF106991061021004501001011MD1210081+9999MW1261
0081029700999991955103118004+60117+019900FM-12+000399999V0202801N00411007801CN0400001N9-00111-00391100491ADDAA199000391AY121999GF106991061041008001001001KA1999M+00111MD1310081+9999MW1011
0081029700999991955110106004+60117+019900FM-12+000399999V0202701N00511030001CN0500001N9+00001-00221100661ADDAA199000591AY101999GF106991011051012501031011KA1999N-00281MD1210041+9999MW1021
0070029700999991955110406004+60117+019900FM-12+000399999V0202301N00211007801CN0300001N9+00391+00111101571ADDAY121999GF108991081051008001999999KA1999N+00391MD1710111+9999MW1021
0057029700999991955110412004+60117+019900FM-12+000399999V0202501N00311004501CN0300001N9+00501+00221101601ADDAY121999GF108991081051004501999999MD1710011+9999MW1021
0057029700999991955110500004+60117+019900FM-12+000399999V0209991C00001007801CN0300001N9+00281+00221101611ADDAY121999GF108991081051008001999999MD1810031+9999MW1031
0081029700999991955110506004+60117+019900FM-12+000399999V0209991C00001007801CN0150001N9+00281+00281101521ADDAA199000691AY121999GF108991081051008001999999KA1999N+00111MD1510041+9999MW1021
0057029700999991955110512004+60117+019900FM-12+000399999V0209991C00001004501CN0100001N9+00611+00501101491ADDAY121999GF108991081061004501999999MD1110011+9999MW1501
0057029700999991955110812004+60117+019900FM-12+000399999V0202001N00511004501CN0300001N9+00501+00281102121ADDAY121999GF108991081051004501999999MD1810081+9999MW1021
0070029700999991955110818004+60117+019900FM-12+000399999V0201801N00621004501CN0200001N9+00501+00281101951ADDAY121999GF108991081061004501999999KA1999M+00611MD1710071+9999MW1021
0081029700999991955110906004+60117+019900FM-12+000399999V0201801N00511001501CN0100001N9+00611+00611101491ADDAA199001091AY161999GF108991081061001501999999KA1999N+00281MD1710081+9999MW1611
0057029700999991955110912004+60117+019900FM-12+000399999V0201601N00721001501CN0070001N9+00721+00721101201ADDAY161999GF108991081061001501999999MD1610211+9999MW1611
0081029700999991955110918004+60117+019900FM-12+000399999V0201801N00621004501CN0060001N9+00721+00721100991ADDAA199009091AY161999GF108991081061004501999999KA1999M+00781MD1610091+9999MW1211
0057029700999991955111012004+60117+019900FM-12+000399999V0201801N00511000151CN9999999N9+00721+00721100721ADDAY141999GF108991081061000251999999MD1710071+9999MW1581
0057029700999991955111212004+60117+019900FM-12+000399999V0202101N00931001501CN0040001N9+00721+00611101581ADDAY121999GF108991081061001501999999MD1410001+9999MW1021
0070029700999991955111218004+60117+019900FM-12+000399999V0202101N01131001501CN0030001N9+00721+00611101351ADDAY121999GF108991081061001501999999KA1999M+00721MD1710111+9999MW1181
0057029700999991955111300004+60117+019900FM-12+000399999V0202101N01031001501CN0070001N9+00721+00611100851ADDAY121999GF108991081061001501999999MD1710271+9999MW1021
0081029700999991955111306004+60117+019900FM-12+000399999V0202101N01131007801CN0070001N9+00721+00611100211ADDAA199000391AY121999GF108991081051008001999999KA1999N+00721MD1710401+9999MW1601
0057029700999991955111400004+60117+019900FM-12+000399999V0203401N00931002401CN0050001N9+00281+00281100211ADDAY161999GF108991081061002501999999MD1310071+9999MW1631
0057029700999991955111612004+60117+019900FM-12+000399999V0203601N00411004501CN0130001N9+00221+00001102511ADDAY121999GF107991061061004501999999MD1210251+9999MW1021
0081029700999991955111618004+60117+019900FM-12+000399999V0200401N00101007801CN0300001N9+00111-00111102681ADDAA199001091AY121999GF108991081051008001999999KA1999M+00281MD1210071+9999MW1021
0057029700999991955111700004+60117+019900FM-12+000399999V0209991C00001007801CN0300001N9+00111+00001102691ADDAY121999GF108991061051008001999999MD1810071+9999MW1011
0070029700999991955111706004+60117+019900FM-12+000399999V0202701N00211007801CN0400001N9+00221+00221102601ADDAY121999GF106991061051008001999999KA1999N-00111MD1710031+9999MW1031
0057029700999991955111800004+60117+019900FM-12+000399999V0202201N00721007801CN0100001N9+00391+00221102011ADDAY121999GF108991081061008001999999MD1710321+9999MW1181
0057029700999991955111812004+60117+019900FM-12+000399999V0203101N00511030001CN0400001N9+00611+00111101401ADDAY121999GF106991041051008001031001MD1410001+9999MW1021
0056029700999991955111918004+60117+019900FM-12+000399999V0202201N00821220001CN0400001N9+00501+00111101601ADDAY121999GF108991001001999999021999KA1999M+00501MW1021
0057029700999991955112012004+60117+019900FM-12+000399999V0200101N01231002401CN0400001N9+00221-00111101091ADDAY121999GF108991081051002501999999MD1210351+9999MW1181
0070029700999991955112018004+60117+019900FM-12+000399999V0203601N00621220001CN0200001N9+00111+00001102051ADDAY161999GF100991001001999999001001KA1999M+00501MD1210431+9999MW1181
0057029700999991955112100004+60117+019900FM-12+000399999V0200101N00211220001CN0300001N9-00221-00221102341ADDAY101999GF100991001001999999001001MD1210051+9999MW1021
0070029700999991955112106004+60117+019900FM-12+000399999V0202601N00511004501CN0300001N9-00111-00111102041ADDAY101999GF106991061061004501999999KA1999N-00501MD1710191+9999MW1021
0057029700999991955112212004+60117+019900FM-12+000399999V0209991C00001004501CN0300001N9+00281+00221100981ADDAY121999GF106991061061004501001001MD1710131+9999MW1021
0081029700999991955112318004+60117+019900FM-12+000399999V0203201N00211004501CN0300001N9+00111+00001098011ADDAA199000591AY121999GF105991051051004501001001KA1999M+00391MD1710041+9999MW1021
0057029700999991955112412004+60117+019900FM-12+000399999V0200201N00821001501CN0010001N9-00221-00221099461ADDAY171999GF108991081071001501999999MD1110361+9999MW1731
0100029700999991955112418004+60117+019900FM-12+000399999V0200301N01231004501CN0050001N9-00221-00611100201ADDAA199000591AY171999GF107991071051004501001001KA1999M+99999MD1210361+9999MW1711EQDQ01 -00282ATMX  
0081029700999991955112506004+60117+019900FM-12+000399999V0200301N00511220001CN0300001N9-00391-00891101041ADDAA199000391AY101999GF103991031051008001001001KA1999N-00391MD1210161+9999MW1021
0057029700999991955112600004+60117+019900FM-12+000399999V0202301N00051007801CN0300001N9-00111-00281100111ADDAY121999GF108991061051008001021999MD1710321+9999MW1021
0081029700999991955112606004+60117+019900FM-12+000399999V0209991C00001030001CN0300001N9-00221-00721099881ADDAA199000591AY121999GF108991021051004501021999KA1999N-00281MD1610081+9999MW1021
0057029700999991955112612004+60117+019900FM-12+000399999V0209991C00001030001CN0150001N9+00001-00111099861ADDAY121999GF107991021051008001021011MD1710191+9999MW1011
0057029700999991955112712004+60117+019900FM-12+000399999V0203301N00821004501CN0400001N9+00221-00111099081ADDAY121999GF107991071051004501999999MD1310121+9999MW1031
0081029700999991955112806004+60117+019900FM-12+000399999V0200201N00411004501CN0200001N9-00611-00781100191ADDAA199001091AY121999GF107991071051004501999999KA1999N-00721MD1210311+9999MW1021
0057029700999991955112812004+60117+019900FM-12+000399999V0200401N00211220001CN0500001N9-00611-01111100941ADDAY101999GF102991021061004501001001MD1210331+9999MW1021
0081029700999991955112818004+60117+019900FM-12+000399999V0209991C00001220001CN0300001N9-01001-01221101441ADDAA199000591AY111999GF104991041051008001031001KA1999M-00611MD1210231+9999MW1011
0081029700999991955112906004+60117+019900FM-12+000399999V0203601N00511220001CN0300001N9-00611-01111102421ADDAA199003091AY111999GF104991041051008001001001KA1999N-01391MD1210391+9999MW1011
0057029700999991955120112004+60117+019900FM-12+000399999V0202801N00511030001CN0100001N9+00391+00221100341ADDAY121999GF107991021061004501031999MD1410001+9999MW1051
0057029700999991955120118004+60117+019900FM-12+000399999V0202901N00411220001CN0050001N9+00281+00221100321ADDAY121999GF106991001001999999031081MD1310041+9999MW1011
0057029700999991955120212004+60117+019900FM-12+000399999V0203201N00621002401CN0200001N9+00111-00111099891ADDAY161999GF108991081051002501999999MD1210251+9999MW1211
0070029700999991955120218004+60117+019900FM-12+000399999V0203201N00721004501CN0100001N9-00111-00281100621ADDAY121999GF108991081051004501999999KA1999M+00501MD1210321+9999MW1021
0057029700999991955120300004+60117+019900FM-12+000399999V0203601N00311004501CN0100001N9-00111-00221100861ADDAY121999GF108991081051004501999999MD1210051+9999MW1021
0068029700999991955120312004+60117+019900FM-12+000399999V0201201N00211001501CN0100001N9+00111+00111099711ADDGF108991081071001501999999MD1710522+9999MW1001EQDQ01+000522APC3  
0081029700999991955120318004+60117+019900FM-12+000399999V0201001N00511001501CN0030001N9+00001+00001099011ADDAA199010091AY171999GF108991081071001501999999KA1999M+00111MD1710201+9999MW1681
0057029700999991955120400004+60117+019900FM-12+000399999V0200501N00511004501CN0100001N9-00281-00391099311ADDAY171999GF108991081061004501999999MD1210211+9999MW1221
0070029700999991955120518004+60117+019900FM-12+000399999V0201501N00211004501CN0200001N9-00111-00221100751ADDAY121999GF108991081051004501999999KA1999M+00111MD1710201+9999MW1021
0057029700999991955120612004+60117+019900FM-12+000399999V0203301N00511220001CN0400001N9+00391-00111099051ADDAY101999GF102991021051008001031001MD1310191+9999MW1021
0070029700999991955120618004+60117+019900FM-12+000399999V0203001N00621220001CN0300001N9+00221-00391099441ADDAY101999GF100991001001999999001001KA1999M+00501MD1210171+9999MW1021
0070029700999991955120706004+60117+019900FM-12+000399999V0202901N00621220001CN0200001N9+00111-00501099171ADDAY101999GF102991001001999999031011KA1999N+00001MD1710191+9999MW1031
0057029700999991955120800004+60117+019900FM-12+000399999V0203201N00211220001CN0300001N9-00221-00611098341ADDAY111999GF102991021051008001001001MD1310081+9999MW1011
0057029700999991955120912004+60117+019900FM-12+000399999V0209999999999220001CN0400001N9-00501-00721999999ADDAY101999GF101991011021004501001001MD1810011+9999MW1021
0057029700999991955121006004+60117+019900FM-12+000399999V0202301N00101220001CN0150001N9-00781-00891099451ADDAY101999GF101991011051008001001001MD1710081+9999MW1021
0076029700999991955121012004+60117+019900FM-12+000399999V0202401N00311220001CN0400001N9-00501-00721099401ADDAY101999GF102991999001999999031001MD1710051+9999MW1021EQDQ01+000002SCOTLC
0070029700999991955121018004+60117+019900FM-12+000399999V0209991C00001220001CN0400001N9-01221-01391099381ADDAY101999GF101991011051008001051001KA1999M-00501MD1410001+9999MW1031
0070029700999991955121106004+60117+019900FM-12+000399999V0209991C00001030001CN0300001N9-00891-00891099611ADDAY121999GF106991011051004501071999KA1999N-01281MD1210111+9999MW1031
0057029700999991955121200004+60117+019900FM-12+000399999V0203601N00101007801CN0100001N9-00721-00781100861ADDAY171999GF105991051061008001001001MD1210131+9999MW1701
0057029700999991955121312004+60117+019900FM-12+000399999V0203601N00101002401CN0300001N9-00501-00501101351ADDAY171999GF107991051051002501031999MD1710041+9999MW1221
0043029700999991955121412004+60117+019900FM-12+000399999V0200701N00511002401CN0045001N9-00721+99999101451ADDAY171999GF108991081051002501999999MW1711
0081029700999991955121418004+60117+019900FM-12+000399999V0200101N00211220001CN0200001N9-01221-01281101461ADDAA199000591AY101999GF100991001001999999001001KA1999M-00721MD1710051+9999MW1021
0070029700999991955121506004+60117+019900FM-12+000399999V0200501N00511220001CN0200001N9-01111-01391101051ADDAY101999GF101991011051008001001001KA1999N-01501MD1710121+9999MW1021
0057029700999991955121600004+60117+019900FM-12+000399999V0200701N00721007801CN0150001N9-00721-00891100401ADDAY121999GF108991081051008001999999MD1710091+9999MW1031
0057029700999991955121712004+60117+019900FM-12+000399999V0200801N00931002401CN0015001N9-00891-01001100221ADDAY171999GF108991081071002501999999MD1710231+9999MW1731
0057029700999991955121812004+60117+019900FM-12+000399999V0202101N00511002401CN0007001N9-00281-00391099451ADDAY171999GF108991081071002501999999MD1210161+9999MW1731
0081029700999991955121818004+60117+019900FM-12+000399999V0203101N00101220001CN0150001N9-00781-00891099641ADDAA199012091AY101999GF103991001001999999021999KA1999M+00001MD1210071+9999MW1011
0070029700999991955121906004+60117+019900FM-12+000399999V0200901N00511002401CN0150001N9-00391-00391099291ADDAY121999GF108991081051002501999999KA1999N-01611MD1710131+9999MW1031
0057029700999991955122000004+60117+019900FM-12+000399999V0203501N00411004501CN0200001N9-00721-00781099741ADDAY171999GF108991081051004501999999MD1210171+9999MW1221
0057029700999991955122212004+60117+019900FM-12+000399999V0200801N00511004501CN0015001N9-00391-00391100751ADDAY171999GF108991081051004501999999MD1710031+9999MW1711
0081029700999991955122306004+60117+019900FM-12+000399999V0203401N00211004501CN0200001N9-01111-01111101241ADDAA199000591AY111999GF106991061051004501999999KA1999N-01501MD1210111+9999MW1031
0070029700999991955122318004+60117+019900FM-12+000399999V0200901N00101007801CN0100001N9-00781-00891101181ADDAY121999GF107991071051008001999999KA1999M-00721MD1710031+9999MW1021
0057029700999991955122400004+60117+019900FM-12+000399999V0201701N00511007801CN0100001N9-00281-00611101001ADDAY121999GF108991081051008001999999MD1710151+9999MW1021
0057029700999991955122612004+60117+019900FM-12+000399999V0203201N99999004501CN0200001N9+00001-00221101401ADDAY121999GF108991081051004501999999MD1010051+9999MW1021
0070029700999991955122618004+60117+019900FM-12+000399999V0201801N00721004501CN9999999N9+00221-00111101051ADDAY121999GF108991081051004501999999KA1999M+00221MD1710171+9999MW1021
0081029700999991955122706004+60117+019900FM-12+000399999V0201801N00721002401CN0050001N9+00221+00221099921ADDAA199003091AY161999GF108991081061002501999999KA1999N+00221MD1710211+9999MW1601
0057029700999991955122712004+60117+019900FM-12+000399999V0202001N99999002401CN0100001N9+00221+00221099661ADDAY161999GF108991081081002501999999MD1810121+9999MW1211
0070029700999991955122806004+60117+019900FM-12+000399999V0202201N00721004501CN0100001N9+00281+00221099761ADDAY121999GF107991071051004501999999KA1999N+00221MD1710051+9999MW1011
0057029700999991955122912004+60117+019900FM-12+000399999V0202201N00931001501CN0080001N9+00281+00221096801ADDAY121999GF108991071071001501021999MD1710161+9999MW1601
0081029700999991955122918004+60117+019900FM-12+000399999V0202501N00511007801CN0100001N9+00221+00111097051ADDAA199000591AY161999GF105991051051008001999999KA1999M+00281MD1710151+9999MW1211
0081029700999991955123006004+60117+019900FM-12+000399999V0202201N00411002401CN0050001N9+00111+00111097181ADDAA199001091AY161999GF108991081051002501999999KA1999N+00111MD1710031+9999MW1601
0057029700999991955123012004+60117+019900FM-12+000399999V0202301N00311001501CN0150001N9+00221+00001097591ADDAY121999GF108991081061001501999999MD1210191+9999MW1201
0081029700999991955123018004+60117+019900FM-12+000399999V0203501N00311001501CN0030001N9+00111+00111098001ADDAA199000591AY151999GF108991081061001501999999KA1999M+00221MD1210191+9999MW1681
0081029700999991955123106004+60117+019900FM-12+000399999V0203101N00151007801CN0150001N9-00111-00111098641ADDAA199000391AY121999GF108991081051008001999999KA1999N-00111MD1210111+9999MW1021
0057029700999991955123112004+60117+019900FM-12+000399999V0202701N001019999999N9999999N9-00111-00221098991ADDAY171999GF107991051999999999021999MD1210111+9999MW1221
