0057029720999991958010100004+60517+022267FM-12+005499999V0203401N00311030001CN0150001N9-00781-00891098671ADDAY171999GF107991031051004501071999MD1210091+9999MW1771
0081029720999991958010106004+60517+022267FM-12+005499999V0203401N00511004501CN0150001N9-01001-01221098921ADDAA199000391AY171999GF105991051051004501001001KA1999N-01111MD1210061+9999MW1711
0057029720999991958010112004+60517+022267FM-12+005499999V0203201N00211220001CN0200001N9-01111-01281099221ADDAY171999GF107991001001999999011999MD1210071+9999MW1021
0081029720999991958010118004+60517+022267FM-12+005499999V0203201N00411220001CN0300001N9-01221-01501099491ADDAA199000691AY101999GF100991001001999999001001KA1999M-01001MD1210141+9999MW1011
0057029720999991958010200004+60517+022267FM-12+005499999V0203401N00311220001CN0300001N9-01221-01391099841ADDAY121999GF108991001001999999071999MD1210161+9999MW1031
0070029720999991958010206004+60517+022267FM-12+005499999V0203201N00411004501CN0200001N9-01221-01221100151ADDAY121999GF108991081061004501999999KA1999N-01391MD1210161+9999MW1701
0076029720999991958010212004+60517+022267FM-12+005499999V0203201N00211220001CN0300001N9-01001-01281100591ADDAY121999GF106991999001999999071001MD1210171+9999MW1021EQDQ01+000002SCOTLC
0100029720999991958010218004+60517+022267FM-12+005499999V0203401N00211220001CN0200001N9-01611-01781100971ADDAA199000691AY101999GF102991999001999999041001KA1999M-01001MD1210171+9999MW1031EQDQ01+000002SCOTLC
0057029720999991958010300004+60517+022267FM-12+005499999V0203401N00211030001CN0100001N9-01501-01721101301ADDAY121999GF107991031061004501071999MD1210161+9999MW1701
0081029720999991958010306004+60517+022267FM-12+005499999V0203401N00211004501CN0100001N9-01221-01391101701ADDAA199000691AY171999GF108991081061004501999999KA1999N-01781MD1210241+9999MW1221
0076029720999991958010312004+60517+022267FM-12+005499999V0203601N00211220001CN0200001N9-01281-01501102201ADDAY171999GF101991999001999999041001MD1210171+9999MW1011EQDQ01+000002SCOTLC
0081029720999991958010318004+60517+022267FM-12+005499999V0203601N00311220001CN0200001N9-01501-01721102621ADDAA199000691AY121999GF107991001001999999071999KA1999M-01001MD1210201+9999MW1031
0057029720999991958010400004+60517+022267FM-12+005499999V0203601N00211220001CN0300001N9-01891-02111102951ADDAY101999GF100991001001999999001001MD1210091+9999MW1021
0070029720999991958010406004+60517+022267FM-12+005499999V0203601N00101220001CN0300001N9-02281-02501103101ADDAY101999GF100991001001999999001001KA1999N-02391MD1210071+9999MW1021
0057029720999991958010412004+60517+022267FM-12+005499999V0201401N00211220001CN0300001N9-01721-02001103101ADDAY121999GF107991001001999999001071MD1710091+9999MW1021
0070029720999991958010418004+60517+022267FM-12+005499999V0201201N00511030001CN0300001N9-01391-01611102821ADDAY121999GF108991021051004501071999KA1999M-01391MD1710211+9999MW1021
0057029720999991958010500004+60517+022267FM-12+005499999V0201201N00511004501CN0020001N9-01001-01221102661ADDAY171999GF108991081061004501999999MD1710071+9999MW1731
0100029720999991958010506004+60517+022267FM-12+005499999V0201201N00411220001CN0150001N9-01391-01611102591ADDAA199000591AY171999GF101991999001999999041001KA1999N-01501MD1710011+9999MW1011EQDQ01+000002SCOTLC
0057029720999991958010512004+60517+022267FM-12+005499999V0200901N00511030001CN0400001N9-01221-01391102541ADDAY111999GF105991041051004501041001MD1710101+9999MW1781
0081029720999991958010518004+60517+022267FM-12+005499999V0201201N00721220001CN0200001N9-01281-01611102361ADDAA199000691AY171999GF103991031051004501001001KA1999M-01221MD1710111+9999MW1781
0057029720999991958010600004+60517+022267FM-12+005499999V0201401N00821007801CN0300001N9-01391-01721102111ADDAY171999GF107991071031008001001001MD1710131+9999MW1181
0081029720999991958010606004+60517+022267FM-12+005499999V0201101N00721004501CN0200001N9-01281-01611101861ADDAA199000691AY171999GF107991071051004501999999KA1999N-01391MD1710121+9999MW1771
0057029720999991958010612004+60517+022267FM-12+005499999V0200901N00821004501CN0400001N9-01221-01611101661ADDAY121999GF107991071061004501999999MD1710121+9999MW1031
0081029720999991958010618004+60517+022267FM-12+005499999V0200901N00511007801CN0200001N9-01501-01781101401ADDAA199000691AY111999GF106991061051008001001001KA1999M-01221MD1710131+9999MW1031
0076029720999991958010700004+60517+022267FM-12+005499999V0200601N00721220001CN0300001N9-01891-02221100981ADDAY111999GF101991999001999999041001MD1710221+9999MW1011EQDQ01+000002SCOTLC
0089029720999991958010706004+60517+022267FM-12+005499999V0200601N00821220001CN0300001N9-02111-02501100611ADDAY101999GF101991999001999999041001KA1999N-02111MD1710191+9999MW1031EQDQ01+000002SCOTLC
0076029720999991958010712004+60517+022267FM-12+005499999V0200401N00821220001CN0300001N9-01781-02111100461ADDAY101999GF102991999001999999071001MD1710011+9999MW1011EQDQ01+000002SCOTLC
0089029720999991958010718004+60517+022267FM-12+005499999V0200401N00721220001CN0300001N9-02111-02391100481ADDAY101999GF101991999001999999041001KA1999M-01781MD1210061+9999MW1181EQDQ01+000002SCOTLC
0057029720999991958010800004+60517+022267FM-12+005499999V0200401N00721220001CN0300001N9-02001-02281100521ADDAY101999GF100991001001999999001001MD1210031+9999MW1011
0070029720999991958010806004+60517+022267FM-12+005499999V0200401N00511004501CN0300001N9-01781-02111100661ADDAY121999GF108991081051004501999999KA1999N-02111MD1210031+9999MW1021
0057029720999991958010812004+60517+022267FM-12+005499999V0200201N00311220001CN0300001N9-02111-02391100771ADDAY111999GF100991001001999999001001MD1010011+9999MW1021
0081029720999991958010818004+60517+022267FM-12+005499999V0200401N00211220001CN0300001N9-02611-02781100921ADDAA199000691AY101999GF100991001001999999001001KA1999M-01721MD1210011+9999MW1021
0057029720999991958010900004+60517+022267FM-12+005499999V0209991C00001220001CN0300001N9-02891-03221100781ADDAY101999GF100991001001999999001001MD1710121+9999MW1021
0070029720999991958010906004+60517+022267FM-12+005499999V0200601N00211220001CN0300001N9-03111-03391100511ADDAY101999GF100991001001999999001001KA1999N-03111MD1710121+9999MW1011
0057029720999991958010912004+60517+022267FM-12+005499999V0200901N00211220001CN0300001N9-02221-02501100151ADDAY121999GF107991001001999999071999MD1710121+9999MW1031
0070029720999991958010918004+60517+022267FM-12+005499999V0201201N00411220001CN0200001N9-01891-02221099941ADDAY121999GF108991001001999999071999KA1999M-01781MD1810071+9999MW1031
0057029720999991958011000004+60517+022267FM-12+005499999V0200901N00411220001CN0300001N9-01721-01891099771ADDAY101999GF100991001001999999001001MD1710011+9999MW1011
0070029720999991958011006004+60517+022267FM-12+005499999V0200701N00511220001CN0300001N9-01781-02111099721ADDAY101999GF100991001001999999001001KA1999N-01891MD1710081+9999MW1021
0057029720999991958011012004+60517+022267FM-12+005499999V0200601N00511220001CN0400001N9-01611-01891099741ADDAY111999GF103991001001999999001011MD1810021+9999MW1011
0081029720999991958011018004+60517+022267FM-12+005499999V0200701N00621002401CN0150001N9-01611-01781099821ADDAA199000691AY121999GF108991081061002501999999KA1999M-01501MD1210031+9999MW1021
0057029720999991958011100004+60517+022267FM-12+005499999V0200901N00621004501CN0100001N9-01281-01611099761ADDAY171999GF108991081061004501999999MD1710021+9999MW1731
0070029720999991958011106004+60517+022267FM-12+005499999V0200901N00511002401CN0150001N9-01111-01221099731ADDAY121999GF108991081061002501999999KA1999N-01501MD1210031+9999MW1021
0057029720999991958011112004+60517+022267FM-12+005499999V0200701N00311001501CN0100001N9-00721-00781099841ADDAY171999GF108991081061001501999999MD1210031+9999MW1021
0081029720999991958011118004+60517+022267FM-12+005499999V0200901N00211001501CN0100001N9-00501-00611100081ADDAA199000391AY121999GF108991081061001501999999KA1999M-00501MD1210101+9999MW1021
0057029720999991958011200004+60517+022267FM-12+005499999V0201001N00411001501CN0100001N9-00391-00391100251ADDAY121999GF108991081061001501999999MD1210051+9999MW1021
0070029720999991958011206004+60517+022267FM-12+005499999V0200901N00411001501CN0060001N9-00281-00391100361ADDAY121999GF108991081061001501999999KA1999N-00611MD1210091+9999MW1021
0057029720999991958011212004+60517+022267FM-12+005499999V0200901N00511001501CN0040001N9-00111-00221100521ADDAY121999GF108991081061001501999999MD1210031+9999MW1711
0081029720999991958011218004+60517+022267FM-12+005499999V0200901N00211001501CN0060001N9-00111-00221100871ADDAA199000591AY171999GF108991081061001501999999KA1999M+00001MD1210211+9999MW1711
0057029720999991958011300004+60517+022267FM-12+005499999V0200901N00051000151CN0008001N9-00111-00111101361ADDAY141999GF109991091061000251999999MD1210251+9999MW1471
0081029720999991958011306004+60517+022267FM-12+005499999V0200901N00051000151CN0003001N9-00111-00111101851ADDAA199000391AY141999GF109991091061000251999999KA1999N-00111MD1210221+9999MW1471
0057029720999991958011312004+60517+022267FM-12+005499999V0203601N00051004501CN0050001N9-00111-00111102331ADDAY141999GF108991081051004501999999MD1210181+9999MW1021
0070029720999991958011318004+60517+022267FM-12+005499999V0203601N00051004501CN0080001N9-00221-00281102671ADDAY121999GF108991081051004501999999KA1999M-00111MD1210151+9999MW1021
0057029720999991958011400004+60517+022267FM-12+005499999V0209991C00001004501CN0150001N9-00221-00281102901ADDAY121999GF108991081051004501999999MD1210101+9999MW1021
0070029720999991958011406004+60517+022267FM-12+005499999V0202701N00051007801CN0150001N9-00221-00391102981ADDAY121999GF108991081051008001999999KA1999N-00281MD1310031+9999MW1021
0057029720999991958011412004+60517+022267FM-12+005499999V0202201N00211004501CN0200001N9-00111-00391102891ADDAY121999GF108991081051004501999999MD1710131+9999MW1021
0070029720999991958011418004+60517+022267FM-12+005499999V0202001N00411004501CN0150001N9-00111-00221102631ADDAY121999GF108991081051004501999999KA1999M-00111MD1710151+9999MW1561
0057029720999991958011500004+60517+022267FM-12+005499999V0202201N00511001501CN0040001N9+00111-00111102121ADDAY121999GF108991081061001501999999MD1710251+9999MW1511
0081029720999991958011506004+60517+022267FM-12+005499999V0202701N00411002401CN0030001N9+00001+00001101871ADDAA199001091AY171999GF108991081061002501999999KA1999N-00111MD1710081+9999MW1731
0057029720999991958011512004+60517+022267FM-12+005499999V0203201N00311002401CN0200001N9+00001+00001102021ADDAY121999GF107991061061002501999999MD1210101+9999MW1011
0081029720999991958011518004+60517+022267FM-12+005499999V0202901N00101000601CN0007001N9-00501-00501102231ADDAA199000691AY141999GF109991091061000751999999KA1999M+00111MD1210081+9999MW1451
0057029720999991958011600004+60517+022267FM-12+005499999V0209991C00001000151CN0003001N9-00721-00781102241ADDAY141999GF109991091061000251999999MD1710071+9999MW1451
0070029720999991958011606004+60517+022267FM-12+005499999V0201801N00311000151CN0010001N9-00281-00391101761ADDAY141999GF108991081061000251999999KA1999N-00781MD1710291+9999MW1101
0057029720999991958011612004+60517+022267FM-12+005499999V0202301N00211000151CN0006001N9+00001+00001101191ADDAY121999GF109991091061000251999999MD1710291+9999MW1471
0070029720999991958011618004+60517+022267FM-12+005499999V0202301N00411000601CN0030001N9+00111+00111100541ADDAY121999GF108991081061000751999999KA1999M+00111MD1710301+9999MW1421
0057029720999991958011700004+60517+022267FM-12+005499999V0200701N00211000151CN0003001N9+00001+00001100051ADDAY141999GF108991081061000251999999MD1710271+9999MW1771
0081029720999991958011706004+60517+022267FM-12+005499999V0202301N00211001501CN0050001N9+00001+00001099241ADDAA199001091AY171999GF108991081061001501999999KA1999N-00111MD1710381+9999MW1711
0057029720999991958011712004+60517+022267FM-12+005499999V0202701N00511004501CN0200001N9+00001-00221099131ADDAY121999GF107991061061004501071999MD1310021+9999MW1031
0081029720999991958011718004+60517+022267FM-12+005499999V0202501N00311220001CN0150001N9-00391-00501098541ADDAA199001091AY171999GF100991001001999999001001KA1999M+00001MD1710271+9999MW1011
0057029720999991958011800004+60517+022267FM-12+005499999V0202701N00311220001CN0100001N9-00611-00891098281ADDAY101999GF102991021051004501001001MD1710081+9999MW1021
0081029720999991958011806004+60517+022267FM-12+005499999V0202701N00411004501CN0080001N9-00281-00611098241ADDAA199000691AY121999GF108991081051004501999999KA1999N-00781MD1310031+9999MW1711
0057029720999991958011812004+60517+022267FM-12+005499999V0203001N00721075001CN0400001N9-00221-00721098601ADDAY121999GF106991041051004501001021MD1210161+9999MW1011
0081029720999991958011818004+60517+022267FM-12+005499999V0202501N00721220001CN0300001N9-00501-00891098691ADDAA199000691AY101999GF100991001001999999001001KA1999M-00221MD1710031+9999MW1021
0076029720999991958011900004+60517+022267FM-12+005499999V0201501N00511007801CN0100001N9-00221-00501097831ADDAY121999GF108991081051008001999999MD1710672+9999MW1031EQDQ01+000672APC3  
0116029720999991958011906004+60517+022267FM-12+005499999V0201801N00621001501CN0006001N9+00001+00001096312ADDAA199003091AY171999GF108991081061001501999999KA1999N-00781MD1710612+9999MW1691EQDQ01+096313APOSLPQ02+000612APC3  
0057029720999991958011912004+60517+022267FM-12+005499999V0202201N00101030001CN0300001N9-00281-00391096051ADDAY121999GF107991011031004501071999MD1710161+9999MW1021
0081029720999991958011918004+60517+022267FM-12+005499999V0201401N00261002401CN0015001N9-00391-00391095781ADDAA199002091AY171999GF108991081061002501999999KA1999M+00001MD1710131+9999MW1751
0057029720999991958012000004+60517+022267FM-12+005499999V0202201N00211002401CN0050001N9-00391-00501096431ADDAY171999GF108991081061002501999999MD1210351+9999MW1711
0100029720999991958012006004+60517+022267FM-12+005499999V0203201N00621002401CN0040001N9-00391-00501096981ADDAA199003091AY171999GF108991081051002501999999KA1999N+99999MD1210451+9999MW1731EQDQ01 -00282ATMN  
0076029720999991958012012004+60517+022267FM-12+005499999V0203201N00411004501CN0300001N9-00611-00781097841ADDAY121999GF107991051051004501071021MD1210622+9999MW1031EQDQ01+000622APC3  
0081029720999991958012018004+60517+022267FM-12+005499999V0202301N00101004501CN0200001N9-00891-01001098621ADDAA199001091AY121999GF108991061061004501071999KA1999M-00391MD1210371+9999MW1701
0076029720999991958012100004+60517+022267FM-12+005499999V0202201N00411220001CN0300001N9-01001-01111099211ADDAY171999GF101991999001999999041001MD1210301+9999MW1021EQDQ01+000002SCOTLC
0089029720999991958012106004+60517+022267FM-12+005499999V0201801N00051220001CN0200001N9-01391-01611099591ADDAY101999GF101991999001999999041001KA1999N-01501MD1210211+9999MW1021EQDQ01+000002SCOTLC
0057029720999991958012112004+60517+022267FM-12+005499999V0201201N00101220001CN0150001N9-01111-01221099981ADDAY101999GF102991011051004501041011MD1210141+9999MW1021
0070029720999991958012118004+60517+022267FM-12+005499999V0201401N00101004501CN0100001N9-01001-01111100371ADDAY111999GF106991061051004501071999KA1999M-00611MD1210241+9999MW1031
0057029720999991958012200004+60517+022267FM-12+005499999V0202601N00211220001CN0150001N9-00781-00891100631ADDAY121999GF108991001001999999071999MD1210241+9999MW1021
0081029720999991958012206004+60517+022267FM-12+005499999V0200701N00101000601CN0150001N9-00501-00501100801ADDAA199000691AY121999GF108991081061000751999999KA1999N-01281MD1210111+9999MW1021
0057029720999991958012212004+60517+022267FM-12+005499999V0200401N00101000601CN0150001N9-00391-00501101001ADDAY121999GF108991081061000751999999MD1210041+9999MW1011
0081029720999991958012218004+60517+022267FM-12+005499999V0203601N00101004501CN0070001N9-00391-00501101121ADDAA199000691AY171999GF108991081051004501999999KA1999M-00281MD1110051+9999MW1021
0057029720999991958012300004+60517+022267FM-12+005499999V0203601N00101007801CN0100001N9-00611-00721101231ADDAY121999GF108991081051008001999999MD1210061+9999MW1021
0070029720999991958012306004+60517+022267FM-12+005499999V0201301N00101004501CN0100001N9-00611-00721101511ADDAY121999GF108991081061004501999999KA1999N-00721MD1210141+9999MW1021
0057029720999991958012312004+60517+022267FM-12+005499999V0201501N00621002401CN0150001N9-00391-00501101781ADDAY121999GF108991061061002501071999MD1110071+9999MW1031
0070029720999991958012318004+60517+022267FM-12+005499999V0201601N00721004501CN0150001N9-00281-00501101891ADDAY121999GF108991081051004501999999KA1999M-00281MD1210111+9999MW1021
0057029720999991958012400004+60517+022267FM-12+005499999V0201601N00721004501CN0100001N9-00391-00611102151ADDAY121999GF108991081051004501999999MD1210101+9999MW1021
0089029720999991958012406004+60517+022267FM-12+005499999V0200901N00821220001CN0200001N9-00611-00781101551ADDAY121999GF108991001001999999071999KA1999N+99999MD1710371+9999MW1181EQDQ01 -00502ATMN  
0057029720999991958012412004+60517+022267FM-12+005499999V0201401N00261004501CN0070001N9-00501-00611101351ADDAY171999GF108991061061004501071999MD1510031+9999MW1731
0081029720999991958012418004+60517+022267FM-12+005499999V0201401N00311004501CN0080001N9-00281-00391101671ADDAA199002091AY171999GF108991051061004501071999KA1999M-00281MD1210171+9999MW1711
0057029720999991958012500004+60517+022267FM-12+005499999V0201401N00311004501CN0100001N9-00281-00391101911ADDAY121999GF108991081051004501999999MD1210081+9999MW1021
0081029720999991958012506004+60517+022267FM-12+005499999V0201801N00211001501CN0010001N9-00281-00281102151ADDAA199000391AY171999GF108991081061001501999999KA1999N-00391MD1210151+9999MW1281
0057029720999991958012512004+60517+022267FM-12+005499999V0202701N00211004501CN0100001N9-00281-00391102421ADDAY121999GF107991051051004501999999MD1210121+9999MW1011
0081029720999991958012518004+60517+022267FM-12+005499999V0202301N00211000601CN0015001N9-00501-00501102701ADDAA199000691AY121999GF108991081061000751999999KA1999M-00281MD1210101+9999MW1101
0057029720999991958012600004+60517+022267FM-12+005499999V0202301N00211004501CN0150001N9-00501-00611102881ADDAY121999GF108991081051004501999999MD1210071+9999MW1021
0070029720999991958012606004+60517+022267FM-12+005499999V0202301N00151004501CN0200001N9-00501-00611103031ADDAY121999GF108991081051004501999999KA1999N-00611MD1210061+9999MW1021
0078029720999991958012612004+60517+022267FM-12+005499999V0202301N00211000601CN0020001N9-00501-00501103221ADDAY171999GF108991081061000751999999MW1711EQDQ01+000022APCTENQ02+000002APC3  
0081029720999991958012618004+60517+022267FM-12+005499999V0202001N00311030001CN0100001N9-00391-00501103241ADDAA199000691AY121999GF107991031061002501071999KA1999M-00391MD1410001+9999MW1031
0057029720999991958012700004+60517+022267FM-12+005499999V0202301N00721220001CN0200001N9-00111-00281103141ADDAY121999GF108991001001999999071999MD1710071+9999MW1021
0070029720999991958012706004+60517+022267FM-12+005499999V0202301N00621030001CN0200001N9-00111-00611102991ADDAY121999GF108991041051004501071999KA1999N-00501MD1710081+9999MW1021
0057029720999991958012712004+60517+022267FM-12+005499999V0202301N00621220001CN0200001N9+00001-00281102961ADDAY121999GF108991001001999999071999MD1810051+9999MW1021
0081029720999991958012718004+60517+022267FM-12+005499999V0202301N00621007801CN0200001N9+00001-00281102621ADDAA199000391AY121999GF108991061051008001071999KA1999M+00111MD1710201+9999MW1661
0057029720999991958012800004+60517+022267FM-12+005499999V0202501N00621004501CN0200001N9+00001-00281102331ADDAY121999GF108991081061004501999999MD1710161+9999MW1021
0081029720999991958012806004+60517+022267FM-12+005499999V0202701N00511001501CN0150001N9+00111-00111102141ADDAA199000691AY121999GF108991081061001501999999KA1999N+00001MD1710081+9999MW1021
0057029720999991958012812004+60517+022267FM-12+005499999V0202701N00311000601CN0070001N9+00111+00001102001ADDAY161999GF108991081061000751999999MD1710081+9999MW1021
0081029720999991958012818004+60517+022267FM-12+005499999V0202701N00511000601CN0050001N9+00111+00111101681ADDAA199000691AY161999GF108991081061000751999999KA1999M+00111MD1710151+9999MW1211
0057029720999991958012900004+60517+022267FM-12+005499999V0203601N00211000601CN0060001N9+00111+00111101801ADDAY121999GF108991081061000751999999MD1310101+9999MW1021
0070029720999991958012906004+60517+022267FM-12+005499999V0200401N00411030001CN0150001N9+00001-00111102101ADDAY121999GF107991021061004501071999KA1999N+00001MD1210181+9999MW1011
0057029720999991958012912004+60517+022267FM-12+005499999V0200901N00511030001CN0300001N9-00391-00611102551ADDAY121999GF107991021051004501071999MD1210131+9999MW1021
0070029720999991958012918004+60517+022267FM-12+005499999V0200901N00211220001CN0300001N9-00721-00891102811ADDAY121999GF107991001001999999071999KA1999M+00001MD1110061+9999MW1021
0057029720999991958013000004+60517+022267FM-12+005499999V0200901N00101004501CN0200001N9-00721-00891102761ADDAY121999GF108991061051004501071999MD1710121+9999MW1021
0070029720999991958013006004+60517+022267FM-12+005499999V0201601N00411030001CN0200001N9-00611-00781102501ADDAY121999GF108991031051004501071999KA1999N-00721MD1710101+9999MW1021
0057029720999991958013012004+60517+022267FM-12+005499999V0201801N00511001501CN0030001N9-00221-00221102151ADDAY121999GF108991081061001501999999MD1710181+9999MW1511
0081029720999991958013018004+60517+022267FM-12+005499999V0201801N00721000601CN0012001N9+00001+00001101661ADDAA199001091AY171999GF108991081061000751999999KA1999M+00001MD1710211+9999MW1681
0057029720999991958013100004+60517+022267FM-12+005499999V0202201N00151001501CN0040001N9+00001+00001101381ADDAY171999GF108991081061001501999999MD1710091+9999MW1731
0081029720999991958013106004+60517+022267FM-12+005499999V0203201N00311000601CN0008001N9+00001+00001101461ADDAA199003091AY121999GF109991091061000751999999KA1999N-00111MD1210121+9999MW1471
0057029720999991958013112004+60517+022267FM-12+005499999V0202701N00211001501CN0060001N9+00001+00001101581ADDAY121999GF108991081061001501999999MD1210051+9999MW1021
0070029720999991958013118004+60517+022267FM-12+005499999V0202301N00311220001CN0100001N9-00111-00221101621ADDAY121999GF108991001001999999071999KA1999M+00111MD1310071+9999MW1111
0076029720999991958020100004+60517+022267FM-12+005499999V0202301N00211220001CN0080001N9-00501-00501101471ADDAY111999GF102991999001999999071001MD1710081+9999MW1011EQDQ01+000002SCOTLC
0070029720999991958020106004+60517+022267FM-12+005499999V0202301N00211220001CN0015001N9-00501-00501101301ADDAY101999GF102991001001999999001011KA1999N-00611MD1710091+9999MW1111
0057029720999991958020112004+60517+022267FM-12+005499999V0202301N00311220001CN0150001N9-00111-00221101121ADDAY121999GF106991001001999999071061MD1710111+9999MW1021
0070029720999991958020118004+60517+022267FM-12+005499999V0202201N00411220001CN0200001N9-00281-00391100831ADDAY121999GF102991001001999999001051KA1999M+00001MD1710171+9999MW1011
0057029720999991958020200004+60517+022267FM-12+005499999V0202301N00511220001CN0100001N9-00111-00281100561ADDAY121999GF107991001001999999071999MD1710141+9999MW1031
0070029720999991958020206004+60517+022267FM-12+005499999V0202301N00621001501CN0100001N9+00111-00111100401ADDAY121999GF108991081051001501999999KA1999N-00281MD1710021+9999MW1011
0076029720999991958020212004+60517+022267FM-12+005499999V0202701N00311220001CN0150001N9+00221-00111100511ADDAY101999GF102991999001999999041001MD1010041+9999MW1051EQDQ01+000002SCOTLC
0070029720999991958020218004+60517+022267FM-12+005499999V0202301N00211220001CN0012001N9-00501-00501100361ADDAY141999GF102991001001999999001051KA1999M+00221MD1710171+9999MW1281
0057029720999991958020300004+60517+022267FM-12+005499999V0201801N00211220001CN0200001N9-00221-00281099681ADDAY121999GF107991001001999999071071MD1710311+9999MW1021
0070029720999991958020306004+60517+022267FM-12+005499999V0201801N00051002401CN0200001N9-00111-00221099201ADDAY121999GF108991081061002501999999KA1999N-00611MD1710141+9999MW1021
0057029720999991958020312004+60517+022267FM-12+005499999V0203301N00411001501CN0200001N9-00111-00221099301ADDAY121999GF106991061061001501001011MD1210041+9999MW1011
0070029720999991958020318004+60517+022267FM-12+005499999V0203201N00311004501CN0300001N9-00111-00281099481ADDAY111999GF107991071051004501999999KA1999M+00001MD1210171+9999MW1031
0076029720999991958020400004+60517+022267FM-12+005499999V0203401N00511220001CN0200001N9-00391-01001099961ADDAY111999GF101991999001999999041001MD1210281+9999MW1181EQDQ01+000002SCOTLC
0070029720999991958020406004+60517+022267FM-12+005499999V0203201N00721220001CN0300001N9-00611-01221100201ADDAY101999GF101991001001999999001051KA1999N-00611MD1210111+9999MW1181
0057029720999991958020412004+60517+022267FM-12+005499999V0203201N00621220001CN0500001N9-00391-00891100251ADDAY101999GF101991011021008001001001MD1810031+9999MW1021
0070029720999991958020418004+60517+022267FM-12+005499999V0203201N00511220001CN0400001N9-00891-01281100151ADDAY101999GF100991001001999999001001KA1999M-00391MD1710071+9999MW1011
0057029720999991958020500004+60517+022267FM-12+005499999V0202701N00311220001CN0300001N9-01281-01501099881ADDAY101999GF102991001001999999001051MD1710151+9999MW1021
0070029720999991958020506004+60517+022267FM-12+005499999V0203401N00211220001CN0400001N9-01501-01611099461ADDAY111999GF102991001001999999001051KA1999N-01611MD1710241+9999MW1031
0057029720999991958020512004+60517+022267FM-12+005499999V0200201N00411220001CN0400001N9-01221-01501099111ADDAY101999GF102991001001999999001051MD1710221+9999MW1021
0070029720999991958020518004+60517+022267FM-12+005499999V0200201N00211220001CN0300001N9-01281-01501099011ADDAY121999GF108991001001999999071999KA1999M-01111MD1710021+9999MW1031
0057029720999991958020600004+60517+022267FM-12+005499999V0200301N00721030001CN0200001N9-01221-01501098881ADDAY171999GF108991021051004501071999MD1710021+9999MW1711
0081029720999991958020606004+60517+022267FM-12+005499999V0200201N00621002401CN0200001N9-01391-01721098941ADDAA199000391AY171999GF108991051061002501071999KA1999N-01391MD1210041+9999MW1711
0057029720999991958020612004+60517+022267FM-12+005499999V0203601N00511220001CN0300001N9-01501-01891099121ADDAY121999GF106991001001999999001071MD1210061+9999MW1011
0081029720999991958020618004+60517+022267FM-12+005499999V0203401N00511220001CN0300001N9-01611-02001099241ADDAA199000691AY101999GF103991001001999999041011KA1999M-01281MD1210051+9999MW1021
0057029720999991958020700004+60517+022267FM-12+005499999V0203401N00411220001CN0300001N9-01781-02111099251ADDAY101999GF103991001001999999001051MD1710041+9999MW1011
0081029720999991958020706004+60517+022267FM-12+005499999V0203201N00511007801CN0100001N9-01391-01611099061ADDAA199000691AY171999GF108991051051008001021999KA1999N-01891MD1710071+9999MW1711
0057029720999991958020712004+60517+022267FM-12+005499999V0203201N00511075001CN0200001N9-01001-01391099351ADDAY171999GF108991031051008001001071MD1210141+9999MW1021
0081029720999991958020718004+60517+022267FM-12+005499999V0203601N00621004501CN0200001N9-01221-01501099761ADDAA199000691AY111999GF108991081051004501999999KA1999M-00891MD1210261+9999MW1701
0057029720999991958020800004+60517+022267FM-12+005499999V0203201N00411220001CN0300001N9-01501-01721100231ADDAY101999GF102991001001999999041011MD1210231+9999MW1011
0081029720999991958020806004+60517+022267FM-12+005499999V0203401N00311220001CN0300001N9-01781-01891100601ADDAA199000691AY111999GF102991001001999999041051KA1999N-01891MD1210121+9999MW1011
0057029720999991958020812004+60517+022267FM-12+005499999V0209991C00001220001CN0300001N9-01281-01721100911ADDAY101999GF101991001001999999001011MD1210071+9999MW1021
0070029720999991958020818004+60517+022267FM-12+005499999V0203001N00101220001CN0200001N9-01721-01781101041ADDAY101999GF100991001001999999001001KA1999M-01221MD1010041+9999MW1011
0057029720999991958020900004+60517+022267FM-12+005499999V0201401N00101220001CN0060001N9-02391-02611101181ADDAY101999GF100991001001999999001001MD1210021+9999MW1021
0070029720999991958020906004+60517+022267FM-12+005499999V0201201N00101001501CN0100001N9-01721-01781100911ADDAY141999GF108991081061001501999999KA1999N-02501MD1710141+9999MW1701
0057029720999991958020912004+60517+022267FM-12+005499999V0200401N00311030001CN0300001N9-01501-01501100611ADDAY171999GF108991011061001501011999MD1710161+9999MW1021
0081029720999991958020918004+60517+022267FM-12+005499999V0200301N00311220001CN0300001N9-01391-01501100511ADDAA199000391AY121999GF108991001001999999071999KA1999M-01391MD1210041+9999MW1021
0057029720999991958021000004+60517+022267FM-12+005499999V0200201N00311002401CN0210001N9-01391-01611100961ADDAY171999GF108991081061002501999999MD1210251+9999MW1711
0070029720999991958021006004+60517+022267FM-12+005499999V0203601N00101002401CN0200001N9-01501-01611101321ADDAY171999GF108991061061002501071999KA1999N-01721MD1210191+9999MW1021
0076029720999991958021012004+60517+022267FM-12+005499999V0200301N00311220001CN0500001N9-01391-01501101611ADDAY101999GF101991999001999999041001MD1210081+9999MW1021EQDQ01+000002SCOTLC
0070029720999991958021018004+60517+022267FM-12+005499999V0200901N00211220001CN0200001N9-02111-02221101851ADDAY101999GF100991001001999999001001KA1999M-01221MD1210121+9999MW1021
0057029720999991958021100004+60517+022267FM-12+005499999V0200901N00211001501CN0100001N9-01781-01891101931ADDAY121999GF108991081061001501999999MD1410001+9999MW1021
0070029720999991958021106004+60517+022267FM-12+005499999V0200901N00211030001CN0200001N9-01891-02111101981ADDAY121999GF108991041061002501071999KA1999N-02221MD1310031+9999MW1021
0057029720999991958021112004+60517+022267FM-12+005499999V0201201N00311075001CN0200001N9-01501-01611101781ADDAY121999GF106991021051004501071061MD1810131+9999MW1011
0081029720999991958021118004+60517+022267FM-12+005499999V0201201N00511220001CN0200001N9-01281-01501101321ADDAA199000691AY171999GF108991001001999999071999KA1999M-01221MD1710181+9999MW1021
0057029720999991958021200004+60517+022267FM-12+005499999V0201201N00721002401CN0100001N9-01111-01281100701ADDAY171999GF108991081061002501999999MD1710271+9999MW1711
0081029720999991958021206004+60517+022267FM-12+005499999V0201201N00621002401CN0100001N9-01001-01221100361ADDAA199000591AY171999GF108991081061002501999999KA1999N-01281MD1710161+9999MW1701
0057029720999991958021212004+60517+022267FM-12+005499999V0200901N00511004501CN0040001N9-00781-00891100051ADDAY171999GF108991081051004501999999MD1710191+9999MW1731
0081029720999991958021218004+60517+022267FM-12+005499999V0201401N00311002401CN0150001N9-00721-00891099851ADDAA199003091AY121999GF108991081061002501999999KA1999M-00721MD1710051+9999MW1021
0057029720999991958021300004+60517+022267FM-12+005499999V0201201N00211001501CN0100001N9-00611-00721099711ADDAY171999GF108991081061001501999999MD1710061+9999MW1221
0081029720999991958021306004+60517+022267FM-12+005499999V0201401N00311000601CN0020001N9-00391-00391099521ADDAA199001091AY171999GF108991081061000751999999KA1999N-00781MD1710071+9999MW1561
0057029720999991958021312004+60517+022267FM-12+005499999V0201601N00211000151CN0005001N9-00111-00111099651ADDAY151999GF108991081061000251999999MD1210121+9999MW1561
0081029720999991958021318004+60517+022267FM-12+005499999V0203001N00101000601CN0020001N9+00001+00001100281ADDAA199000591AY171999GF108991081061000751999999KA1999M+00001MD1210401+9999MW1121
0078029720999991958021400004+60517+022267FM-12+005499999V0202701N00101075001CN0002001N9+00111+00001100771ADDAY121999GF108991011001017501051061MW1701EQDQ01+000032APCTENQ02+000002APC3  
0057029720999991958021406004+60517+022267FM-12+005499999V0202201N00211000151CN0005001N9-00501-00611101271ADDAY141999GF109991091061000251999999MD1210071+9999MW1471
0057029720999991958021412004+60517+022267FM-12+005499999V0202201N00511000601CN0080001N9+00111-00111101201ADDAY141999GF107991061061000751999999MD1710121+9999MW1011
0070029720999991958021418004+60517+022267FM-12+005499999V0202001N00511075001CN0060001N9-00111-00221100801ADDAY101999GF105991021061001501041011KA1999M+00111MD1710241+9999MW1021
0057029720999991958021500004+60517+022267FM-12+005499999V0201401N00211000601CN0020001N9+00001+00001100401ADDAY171999GF108991081061000751999999MD1710161+9999MW1681
0081029720999991958021506004+60517+022267FM-12+005499999V0203401N00151001501CN0050001N9-00111-00111100151ADDAA199002091AY171999GF108991081061001501999999KA1999N-00221MD1410001+9999MW1021
0057029720999991958021512004+60517+022267FM-12+005499999V0203201N00411002401CN0300001N9+00111-00111100421ADDAY121999GF106991061051002501001001MD1210131+9999MW1011
0081029720999991958021518004+60517+022267FM-12+005499999V0202901N00311220001CN0300001N9-00281-00391100671ADDAA199010091AY101999GF100991001001999999001001KA1999M+00111MD1210161+9999MW1011
0057029720999991958021600004+60517+022267FM-12+005499999V0202501N00211220001CN0030001N9-00891-01111100541ADDAY101999GF100991001001999999001001MD1710021+9999MW1121
0070029720999991958021606004+60517+022267FM-12+005499999V0201801N00211220001CN0005001N9-00781-00891099891ADDAY141999GF102991001001999999001051KA1999N-01221MD1710311+9999MW1461
0057029720999991958021612004+60517+022267FM-12+005499999V0200901N00211220001CN0500001N9-00281-00391099421ADDAY121999GF106991001001999999041061MD1710251+9999MW1021
0070029720999991958021618004+60517+022267FM-12+005499999V0200901N00411220001CN0150001N9-00611-00611098901ADDAY111999GF108991001001999999041071KA1999M-00281MD1710211+9999MW1031
0057029720999991958021700004+60517+022267FM-12+005499999V0200901N00621001501CN0030001N9-00501-00501098521ADDAY121999GF108991081061001501999999MD1710221+9999MW1701
0081029720999991958021706004+60517+022267FM-12+005499999V0200401N00621001501CN0070001N9-00391-00501098281ADDAA199000391AY161999GF108991081061001501999999KA1999N-00721MD1710081+9999MW1661
0057029720999991958021712004+60517+022267FM-12+005499999V0200401N00621004501CN0050001N9-00281-00501098361ADDAY171999GF108991051051004501071999MD1210041+9999MW1731
0081029720999991958021718004+60517+022267FM-12+005499999V0200401N00621002401CN0100001N9-00281-00391098571ADDAA199000591AY171999GF108991081061002501999999KA1999M-00281MD1210151+9999MW1711
0081029720999991958021806004+60517+022267FM-12+005499999V0203401N00411030001CN0200001N9-00501-00611098961ADDAA199000691AY171999GF108991041061002501071999KA1999N-00501MD1210101+9999MW1011
0057029720999991958021812004+60517+022267FM-12+005499999V0203401N00411030001CN0400001N9-00391-00721099211ADDAY121999GF108991021061004501071999MD1210121+9999MW1021
0089029720999991958021818004+60517+022267FM-12+005499999V0203201N004119999999N0300001N9-00501-00721099461ADDAY121999GF108991999001022501071999KA1999M-00281MD1210121+9999MW1021EQDQ01+000002SCOTLC
0057029720999991958021900004+60517+022267FM-12+005499999V0203201N00311030001CN0200001N9-00721-00891099651ADDAY121999GF108991021061002501071999MD1210081+9999MW1021
0070029720999991958021906004+60517+022267FM-12+005499999V0203201N00211030001CN0200001N9-00781-00891099741ADDAY121999GF108991031051004501071999KA1999N-00891MD1210021+9999MW1221
0057029720999991958021912004+60517+022267FM-12+005499999V0202701N00211030001CN0500001N9-00721-00781099831ADDAY171999GF105991041051004501041091MD1210041+9999MW1011
0081029720999991958021918004+60517+022267FM-12+005499999V0202501N00311004501CN0250001N9-00501-00721099791ADDAA199000691AY171999GF108991081051004501999999KA1999M-00391MD1210051+9999MW1711
0057029720999991958022000004+60517+022267FM-12+005499999V0201901N00101004501CN0150001N9-00611-00891099861ADDAY121999GF108991081061004501999999MD1210031+9999MW1701
0091029720999991958022006004+60517+022267FM-12+005499999V0201801N00211220001CN0200001N9-00781-01001099831ADDAY111999GF102991021061004501041001KA1999N-01001MW1011EQDQ01+000042APCTENQ02+000012APC3  
0057029720999991958022012004+60517+022267FM-12+005499999V0201401N00211004501CN0100001N9-00501-00781099781ADDAY171999GF106991061051004501001001MD1710051+9999MW1711
0081029720999991958022018004+60517+022267FM-12+005499999V0201401N00311030001CN0200001N9-00781-00891099731ADDAA199000691AY171999GF106991021051008001071999KA1999M-00391MD1410001+9999MW1221
0057029720999991958022100004+60517+022267FM-12+005499999V0201401N00211004501CN0200001N9-00781-00891099651ADDAY121999GF108991081051004501999999MD1710041+9999MW1031
0081029720999991958022106004+60517+022267FM-12+005499999V0200301N00211001501CN0020001N9-01111-01111099611ADDAA199000691AY121999GF108991081061001501999999KA1999N-01221MD1210051+9999MW1101
0057029720999991958022112004+60517+022267FM-12+005499999V0200701N00311004501CN0200001N9-00611-00721099691ADDAY171999GF107991061051004501071999MD1210031+9999MW1221
0100029720999991958022118004+60517+022267FM-12+005499999V0200401N00211220001CN0200001N9-01221-01281099831ADDAA199000691AY101999GF101991999001999999041001KA1999M-00611MD1210081+9999MW1021EQDQ01+000002SCOTLC
0057029720999991958022200004+60517+022267FM-12+005499999V0200901N00311001501CN0200001N9-01111-01221099811ADDAY121999GF108991081061001501999999MD1810071+9999MW1031
0081029720999991958022206004+60517+022267FM-12+005499999V0200401N00311002401CN0150001N9-01221-01281099991ADDAA199000691AY171999GF108991081061002501999999KA1999N-01501MD1210071+9999MW1711
0057029720999991958022212004+60517+022267FM-12+005499999V0203601N00311004501CN0100001N9-01001-01221100151ADDAY171999GF108991081051004501999999MD1210091+9999MW1711
0081029720999991958022218004+60517+022267FM-12+005499999V0203601N00311030001CN0150001N9-01111-01281100331ADDAA199000691AY171999GF108991021061004501071999KA1999M-00891MD1210111+9999MW1711
0057029720999991958022300004+60517+022267FM-12+005499999V0203401N00211220001CN0200001N9-01721-01781100511ADDAY171999GF101991011061004501001001MD1210071+9999MW1011
0081029720999991958022306004+60517+022267FM-12+005499999V0203601N00211220001CN0200001N9-02111-02281100571ADDAA199000691AY101999GF103991001001999999041051KA1999N-02221MD1210051+9999MW1031
0057029720999991958022312004+60517+022267FM-12+005499999V0200401N00211220001CN0200001N9-01501-01781100651ADDAY121999GF104991001001999999001011MD1010021+9999MW1021
0070029720999991958022318004+60517+022267FM-12+005499999V0200401N00211220001CN0150001N9-01721-01781100771ADDAY101999GF100991001001999999001001KA1999M-01221MD1210051+9999MW1011
0057029720999991958022400004+60517+022267FM-12+005499999V0200401N00101220001CN0150001N9-02221-02391100791ADDAY101999GF100991001001999999001001MD1410001+9999MW1021
0070029720999991958022406004+60517+022267FM-12+005499999V0200401N00101220001CN0150001N9-02281-02501100921ADDAY111999GF101991001001999999041011KA1999N-02281MD1210061+9999MW1031
0057029720999991958022412004+60517+022267FM-12+005499999V0203201N00101220001CN0300001N9-01221-01391101031ADDAY101999GF100991001001999999001001MD1210061+9999MW1011
0070029720999991958022418004+60517+022267FM-12+005499999V0203201N00101220001CN0300001N9-01781-02111101171ADDAY101999GF100991001001999999001001KA1999M-01111MD1210071+9999MW1021
0057029720999991958022500004+60517+022267FM-12+005499999V0200301N00101220001CN0300001N9-02281-02501101411ADDAY101999GF100991001001999999001001MD1210091+9999MW1021
0070029720999991958022506004+60517+022267FM-12+005499999V0200301N00051220001CN0200001N9-02281-02501101551ADDAY111999GF105991001001999999071011KA1999N-02611MD1310061+9999MW1031
0057029720999991958022512004+60517+022267FM-12+005499999V0209991C00001220001CN0150001N9-01391-01501101611ADDAY101999GF100991001001999999001001MD1210011+9999MW1021
0070029720999991958022518004+60517+022267FM-12+005499999V0209991C00001220001CN0150001N9-01891-02111101591ADDAY121999GF106991001001999999001061KA1999M-01391MD1710011+9999MW1031
0057029720999991958022600004+60517+022267FM-12+005499999V0200301N00211220001CN0100001N9-01781-01891101571ADDAY121999GF108991001001999999071999MD1710051+9999MW1031
0070029720999991958022606004+60517+022267FM-12+005499999V0200401N00311030001CN0150001N9-01611-01781101271ADDAY121999GF108991041061002501071999KA1999N-01891MD1710101+9999MW1711
0057029720999991958022612004+60517+022267FM-12+005499999V0200401N00621220001CN0050001N9-01221-01501101091ADDAY171999GF108991001001999999071999MD1710241+9999MW1731
0100029720999991958022618004+60517+022267FM-12+005499999V0200201N005119999999N0020001N9-01221-01391100851ADDAA199001091AY171999GF108991999001022501071999KA1999M-01111MD1710071+9999MW1731EQDQ01+000002SCOTLC
0057029720999991958022700004+60517+022267FM-12+005499999V0203601N00211004501CN0080001N9-01111-01221100611ADDAY171999GF108991051061004501071999MD1210111+9999MW1711
0081029720999991958022706004+60517+022267FM-12+005499999V0203201N00411001501CN0015001N9-01111-01221100731ADDAA199002091AY171999GF109991091999001501999999KA1999N-01221MD1210061+9999MW1731
0057029720999991958022712004+60517+022267FM-12+005499999V0203001N00511030001CN0300001N9-01001-01281101321ADDAY171999GF107991021051004501041061MD1210271+9999MW1021
0100029720999991958022718004+60517+022267FM-12+005499999V0202701N00311220001CN0200001N9-01391-01611101711ADDAA199001091AY121999GF102991999001999999041001KA1999M-00891MD1210271+9999MW1011EQDQ01+000002SCOTLC
0057029720999991958022800004+60517+022267FM-12+005499999V0201801N00211220001CN0200001N9-01611-01721102101ADDAY121999GF107991001001999999011999MD1210051+9999MW1031
0070029720999991958022806004+60517+022267FM-12+005499999V0201901N00511220001CN0150001N9-01111-01281101961ADDAY111999GF107991001001999999071999KA1999N-01721MD1210081+9999MW1021
0057029720999991958022812004+60517+022267FM-12+005499999V0201801N00621220001CN0300001N9-00501-01001101821ADDAY121999GF106991001001999999001021MD1710121+9999MW1021
0089029720999991958022818004+60517+022267FM-12+005499999V0202001N00621220001CN0300001N9-00721-00891101451ADDAY101999GF101991999001999999041001KA1999M-00501MD1710221+9999MW1011EQDQ01+000002SCOTLC
0057029720999991958030100004+60517+022267FM-12+005499999V0202201N00511004501CN0100001N9-00391-00721101061ADDAY121999GF108991081061004501999999MD1710161+9999MW1711
0070029720999991958030106004+60517+022267FM-12+005499999V0202201N00411002401CN0100001N9-00391-00501100911ADDAY121999GF108991081061002501999999KA1999N-00781MD1610131+9999MW1021
0057029720999991958030112004+60517+022267FM-12+005499999V0202201N00411004501CN0100001N9-00221-00391100981ADDAY171999GF108991081061004501999999MD1810011+9999MW1711
0081029720999991958030118004+60517+022267FM-12+005499999V0202301N00311001501CN0060001N9-00281-00391100981ADDAA199000691AY121999GF108991081061001501999999KA1999M-00221MD1210041+9999MW1021
0057029720999991958030200004+60517+022267FM-12+005499999V0202701N00101001501CN0060001N9-00281-00391101071ADDAY171999GF108991081061001501999999MD1210041+9999MW1021
0081029720999991958030206004+60517+022267FM-12+005499999V0200401N00311012301CN0050001N9-00501-00611101191ADDAA199001091AY171999GF108991051081012501021999KA1999N-00501MD1210101+9999MW1711
0057029720999991958030212004+60517+022267FM-12+005499999V0200201N00411030001CN0400001N9-00721-01001101431ADDAY121999GF107991041051004501071999MD1210091+9999MW1021
0089029720999991958030218004+60517+022267FM-12+005499999V0200201N00311220001CN0300001N9-00781-01281101731ADDAY121999GF106991999001999999071001KA1999M-00501MD1210181+9999MW1021EQDQ01+000002SCOTLC
0057029720999991958030300004+60517+022267FM-12+005499999V0203601N00311220001CN0300001N9-01391-01611102081ADDAY101999GF100991001001999999001001MD1210121+9999MW1021
0070029720999991958030306004+60517+022267FM-12+005499999V0203601N00211220001CN0300001N9-01721-01781102321ADDAY101999GF100991001001999999001001KA1999N-01781MD1210141+9999MW1021
0057029720999991958030312004+60517+022267FM-12+005499999V0200201N00411220001CN0400001N9-00891-01501102591ADDAY101999GF100991001001999999001001MD1210081+9999MW1021
0070029720999991958030318004+60517+022267FM-12+005499999V0200401N00211220001CN0400001N9-01391-01781102561ADDAY101999GF101991001001999999001011KA1999M-00781MD1410001+9999MW1021
0057029720999991958030400004+60517+022267FM-12+005499999V0201601N00211004501CN0200001N9-01391-01721102381ADDAY121999GF108991051061004501071999MD1710091+9999MW1031
0070029720999991958030406004+60517+022267FM-12+005499999V0201401N00411220001CN0300001N9-01221-01501102101ADDAY121999GF108991001001999999011999KA1999N-01721MD1710121+9999MW1031
0057029720999991958030412004+60517+022267FM-12+005499999V0201801N00821002401CN0100001N9-00721-00891101581ADDAY171999GF108991081061002501999999MD1710311+9999MW1711
0081029720999991958030418004+60517+022267FM-12+005499999V0201801N00621000601CN0020001N9-00391-00501100771ADDAA199000391AY151999GF108991081061000751999999KA1999M-00391MD1710451+9999MW1101
0076029720999991958030500004+60517+022267FM-12+005499999V0202301N00721001501CN0030001N9+00001+00001099751ADDAY121999GF108991081061001501999999MD1710532+9999MW1681EQDQ01+000532APC3  
0100029720999991958030506004+60517+022267FM-12+005499999V0202501N00411000601CN0080001N9+00001+00001098752ADDAA199005091AY171999GF108991081061000751999999KA1999N-00391MD1710341+9999MW1681EQDQ01+098753APOSLP
0057029720999991958030512004+60517+022267FM-12+005499999V0203001N00311220001CN0500001N9+00221-00221098941ADDAY111999GF102991021051004501041001MD1210151+9999MW1011
0100029720999991958030518004+60517+022267FM-12+005499999V0202201N00311220001CN0400001N9-00111-00501098941ADDAA199001091AY101999GF101991999001999999041001KA1999M+00281MD1710071+9999MW1021EQDQ01+000002SCOTLC
0057029720999991958030600004+60517+022267FM-12+005499999V0201401N00211000151CN0002001N9-00501-00611098781ADDAY101999GF109991091999000251999999MD1710061+9999MW1471
0070029720999991958030606004+60517+022267FM-12+005499999V0200901N00511000151CN0008001N9-00281-00391098321ADDAY141999GF108991081061000251999999KA1999N-00611MD1710161+9999MW1731
0057029720999991958030612004+60517+022267FM-12+005499999V0200601N01031001501CN0100001N9-00391-00611098381ADDAY171999GF108991061061001501071999MD1210111+9999MW1711
0100029720999991958030618004+60517+022267FM-12+005499999V0200401N00931220001CN0100001N9-01111-01281099081ADDAA199000391AY131999GF102991999001999999041001KA1999M-00221MD1210381+9999MW1361EQDQ01+000002SCOTLC
0057029720999991958030700004+60517+022267FM-12+005499999V0200401N00721030001CN0100001N9-01281-01611099691ADDAY131999GF107991031051004501071999MD1210301+9999MW1361
0070029720999991958030706004+60517+022267FM-12+005499999V0203601N00621220001CN0500001N9-01781-02111100131ADDAY121999GF107991001001999999071011KA1999N-01781MD1210251+9999MW1021
0057029720999991958030712004+60517+022267FM-12+005499999V0200201N00511220001CN0500001N9-01391-02001100621ADDAY111999GF102991001001999999041011MD1210211+9999MW1011
0070029720999991958030718004+60517+022267FM-12+005499999V0203601N00411220001CN0500001N9-01501-02001101071ADDAY101999GF102991001001999999041011KA1999M-01111MD1210281+9999MW1021
0076029720999991958030800004+60517+022267FM-12+005499999V0203601N00211220001CN0400001N9-01891-02111101411ADDAY101999GF101991999001999999041001MD1210111+9999MW1021EQDQ01+000002SCOTLC
0089029720999991958030806004+60517+022267FM-12+005499999V0200401N00211220001CN0200001N9-02281-02501101591ADDAY101999GF101991999001999999041001KA1999N-02281MD1210071+9999MW1021EQDQ01+000002SCOTLC
0057029720999991958030812004+60517+022267FM-12+005499999V0200901N00211220001CN0400001N9-00721-01391101651ADDAY101999GF101991011011008001001011MD1810011+9999MW1031
0089029720999991958030818004+60517+022267FM-12+005499999V0201401N00101220001CN0200001N9-01221-01611101591ADDAY101999GF101991999001999999041001KA1999M-00611MD1410001+9999MW1011EQDQ01+000002SCOTLC
0057029720999991958030900004+60517+022267FM-12+005499999V0201401N00101220001CN0200001N9-01891-02111101681ADDAY101999GF100991001001999999001001MD1410001+9999MW1021
0070029720999991958030906004+60517+022267FM-12+005499999V0200901N00311220001CN0300001N9-01781-01891101531ADDAY101999GF101991001001999999001011KA1999N-02111MD1710071+9999MW1021
0057029720999991958030912004+60517+022267FM-12+005499999V0201201N00721220001CN0400001N9-00781-01501101401ADDAY101999GF101991001001999999001011MD1710061+9999MW1031
0070029720999991958030918004+60517+022267FM-12+005499999V0200701N00511220001CN0400001N9-01001-01501101181ADDAY121999GF104991001001999999041021KA1999M-00721MD1710091+9999MW1011
0057029720999991958031000004+60517+022267FM-12+005499999V0200401N00721220001CN0300001N9-01391-01611100851ADDAY101999GF101991001001999999001011MD1710191+9999MW1011
0070029720999991958031006004+60517+022267FM-12+005499999V0200401N00821220001CN0400001N9-01391-01781100361ADDAY111999GF107991001001999999071021KA1999N-01501MD1710271+9999MW1031
0057029720999991958031012004+60517+022267FM-12+005499999V0200401N00931004501CN0150001N9-01001-01281099911ADDAY171999GF108991071051004501071999MD1710241+9999MW1711
0081029720999991958031018004+60517+022267FM-12+005499999V0200401N00821004501CN0020001N9-01001-01221099541ADDAA199000391AY171999GF108991081061004501999999KA1999M-01001MD1710171+9999MW1751
0057029720999991958031100004+60517+022267FM-12+005499999V0200401N00621220001CN0030001N9-00611-00721099161ADDAY171999GF108991001001999999071999MD1710111+9999MW1731
0081029720999991958031106004+60517+022267FM-12+005499999V0200401N00621004501CN0012001N9-00611-00721099111ADDAA199005091AY171999GF108991061051004501071999KA1999N-01001MD1710051+9999MW1731
0057029720999991958031112004+60517+022267FM-12+005499999V0200401N00621004501CN0080001N9-00281-00391099091ADDAY171999GF108991051051004501021999MD1810021+9999MW1711
0081029720999991958031118004+60517+022267FM-12+005499999V0200401N00411002401CN0030001N9-00391-00501099031ADDAA199001091AY171999GF108991081061002501999999KA1999M-00281MD1610021+9999MW1731
0057029720999991958031200004+60517+022267FM-12+005499999V0201301N00511004501CN0100001N9-00501-00721099271ADDAY171999GF108991081061004501999999MD1210171+9999MW1021
0081029720999991958031206004+60517+022267FM-12+005499999V0200901N00411004501CN0100001N9-00721-00781099381ADDAA199001091AY171999GF108991071051004501021999KA1999N-00721MD1210041+9999MW1711
0057029720999991958031212004+60517+022267FM-12+005499999V0202001N00311004501CN0100001N9-00281-00501099661ADDAY171999GF108991051051004501021999MD1210211+9999MW1711
0081029720999991958031218004+60517+022267FM-12+005499999V0201401N00211004501CN0030001N9-00501-00611100151ADDAA199000591AY171999GF108991061051004501021999KA1999M-00281MD1210221+9999MW1731
0057029720999991958031300004+60517+022267FM-12+005499999V0201201N00311220001CN0200001N9-00721-00781100421ADDAY171999GF103991021051004501071001MD1210091+9999MW1011
0081029720999991958031306004+60517+022267FM-12+005499999V0200901N00151030001CN0100001N9-01111-01221100741ADDAA199001091AY171999GF107991041051004501071999KA1999N-01111MD1210121+9999MW1021
0057029720999991958031312004+60517+022267FM-12+005499999V0200401N00311220001CN0200001N9-00281-00721100881ADDAY111999GF103991031011004501001011MD1210021+9999MW1011
0081029720999991958031318004+60517+022267FM-12+005499999V0200201N00621004501CN0040001N9-00391-00611100841ADDAA199000691AY171999GF108991081051004501999999KA1999M-00281MD1710041+9999MW1731
0057029720999991958031400004+60517+022267FM-12+005499999V0200401N00721002401CN0050001N9-00281-00391100601ADDAY171999GF108991081061002501999999MD1710091+9999MW1021
0081029720999991958031406004+60517+022267FM-12+005499999V0200901N00721220001CN0200001N9-00611-00891100671ADDAA199000591AY121999GF107991001001999999071071KA1999N-00611MD1210061+9999MW1031
0057029720999991958031412004+60517+022267FM-12+005499999V0200701N00931004501CN0100001N9-00111-00391100671ADDAY171999GF108991081051004501999999MD1510031+9999MW1711
0081029720999991958031418004+60517+022267FM-12+005499999V0200701N00721004501CN0150001N9+00001-00281100761ADDAA199000691AY171999GF108991081051004501999999KA1999M+00001MD1210101+9999MW1021
0057029720999991958031500004+60517+022267FM-12+005499999V0200901N00721004501CN0200001N9+00001-00221100921ADDAY121999GF108991081051004501999999MD1210101+9999MW1021
0070029720999991958031506004+60517+022267FM-12+005499999V0201401N00411007801CN0150001N9-00111-00721101241ADDAY121999GF107991061051008001071999KA1999N-00111MD1210201+9999MW1011
0057029720999991958031512004+60517+022267FM-12+005499999V0201201N00721007801CN0300001N9+00001-00891101551ADDAY121999GF108991081051008001999999MD1210101+9999MW1021
0070029720999991958031518004+60517+022267FM-12+005499999V0200601N00311030001CN0150001N9-00221-00391101811ADDAY121999GF108991031051004501071999KA1999M+00111MD1210141+9999MW1021
0057029720999991958031600004+60517+022267FM-12+005499999V0200401N00311004501CN0020001N9-00221-00281101991ADDAY171999GF108991081061004501999999MD1210071+9999MW1731
0043029720999991958031606004+60517+022267FM-12+005499999V0200401N00311004501CN0070001N9-00221-00281102051ADDAY171999GF107991061051004501071999MW1711
0057029720999991958031612004+60517+022267FM-12+005499999V0200601N00311004501CN0200001N9+00001-00281102091ADDAY121999GF106991061051004501999999MD1410001+9999MW1031
0100029720999991958031618004+60517+022267FM-12+005499999V0200401N00311220001CN0300001N9-00281-00611102081ADDAA199000691AY101999GF102991999001999999071001KA1999M+00111MD1210041+9999MW1011EQDQ01+000002SCOTLC
0057029720999991958031700004+60517+022267FM-12+005499999V0200401N00151220001CN0200001N9-00721-00781102021ADDAY101999GF100991001001999999001001MD1710041+9999MW1021
0089029720999991958031706004+60517+022267FM-12+005499999V0200401N00311220001CN0150001N9-01001-01111101961ADDAY101999GF101991999001999999041001KA1999N-01221MD1610021+9999MW1021EQDQ01+000002SCOTLC
0057029720999991958031712004+60517+022267FM-12+005499999V0200901N00211220001CN0300001N9+00111-00891101941ADDAY101999GF101991001001999999001011MD1710041+9999MW1011
0070029720999991958031718004+60517+022267FM-12+005499999V0200601N00211220001CN0300001N9-00221-00781101961ADDAY101999GF102991001001999999001051KA1999M+00221MD1210041+9999MW1021
0057029720999991958031800004+60517+022267FM-12+005499999V0201001N00411220001CN0300001N9-00501-00721102091ADDAY101999GF100991001001999999001001MD1210071+9999MW1021
0070029720999991958031806004+60517+022267FM-12+005499999V0200901N00311220001CN0100001N9-01001-01221102221ADDAY101999GF101991001001999999001011KA1999N-01001MD1210081+9999MW1021
0057029720999991958031812004+60517+022267FM-12+005499999V0201201N00511220001CN0300001N9-00111-00721102421ADDAY101999GF102991021011004501001001MD1210051+9999MW1031
0070029720999991958031818004+60517+022267FM-12+005499999V0200901N00411220001CN0300001N9-00391-01281102671ADDAY101999GF101991001001999999001051KA1999M+00001MD1210191+9999MW1021
0057029720999991958031900004+60517+022267FM-12+005499999V0200901N00211220001CN0200001N9-01001-01501102901ADDAY101999GF100991001001999999001001MD1210101+9999MW1021
0070029720999991958031906004+60517+022267FM-12+005499999V0200701N00311220001CN0300001N9-01391-01611103001ADDAY101999GF100991001001999999001001KA1999N-01611MD1210051+9999MW1011
0057029720999991958031912004+60517+022267FM-12+005499999V0201201N00311220001CN0400001N9-00221-01281102981ADDAY101999GF101991001001999999001011MD1710041+9999MW1031
0070029720999991958031918004+60517+022267FM-12+005499999V0200401N00211220001CN0400001N9-00611-01501102911ADDAY101999GF103991001001999999001011KA1999M-00221MD1710011+9999MW1021
0057029720999991958032000004+60517+022267FM-12+005499999V0200401N00101220001CN0300001N9-01281-01891102831ADDAY101999GF100991001001999999001001MD1710081+9999MW1021
0070029720999991958032006004+60517+022267FM-12+005499999V0200401N00311220001CN0300001N9-01501-01721102701ADDAY111999GF103991001001999999001011KA1999N-01891MD1610051+9999MW1011
0057029720999991958032012004+60517+022267FM-12+005499999V0200701N00621030001CN0400001N9-00501-01001102721ADDAY121999GF105991031011008001041051MD1210021+9999MW1021
0070029720999991958032018004+60517+022267FM-12+005499999V0200401N00211220001CN0300001N9-00781-01001102861ADDAY101999GF100991001001999999001001KA1999M-00281MD1310131+9999MW1011
0057029720999991958032100004+60517+022267FM-12+005499999V0200901N00211220001CN0300001N9-01391-01501103051ADDAY101999GF100991001001999999001001MD1210091+9999MW1021
0070029720999991958032106004+60517+022267FM-12+005499999V0200701N00051220001CN0150001N9-01721-01781103231ADDAY101999GF101991001001999999001011KA1999N-01781MD1210071+9999MW1051
0057029720999991958032112004+60517+022267FM-12+005499999V0200401N00411220001CN0500001N9-00611-01281103331ADDAY101999GF100991001001999999001001MD1810031+9999MW1021
0089029720999991958032118004+60517+022267FM-12+005499999V0200401N00101220001CN0300001N9-00891-01611103311ADDAY101999GF101991999001999999041001KA1999M-00501MD1210021+9999MW1021EQDQ01+000002SCOTLC
0057029720999991958032200004+60517+022267FM-12+005499999V0201801N00101220001CN0200001N9-01781-01891103441ADDAY101999GF100991001001999999001001MD1210041+9999MW1021
0070029720999991958032206004+60517+022267FM-12+005499999V0200901N00211220001CN0100001N9-02001-02221103441ADDAY101999GF101991001001999999041091KA1999N-02221MD1510011+9999MW1031
0062029720999991958032212004+60517+022267FM-12+005499999V0201801N00211220001CN0300001N9-00391-01281103391ADDAY101999GF101991999001999999041001MW1021EQDQ01+000002SCOTLC
0070029720999991958032218004+60517+022267FM-12+005499999V0202301N00211220001CN0300001N9-00721-01501103241ADDAY101999GF100991001001999999001001KA1999M-00221MD1710031+9999MW1021
0057029720999991958032300004+60517+022267FM-12+005499999V0202301N00101220001CN0050001N9-01721-01891103171ADDAY101999GF100991001001999999001001MD1710041+9999MW1021
0070029720999991958032306004+60517+022267FM-12+005499999V0201801N00101220001CN0080001N9-01891-02111102951ADDAY101999GF102991001001999999001011KA1999N-02111MD1710131+9999MW1031
0057029720999991958032312004+60517+022267FM-12+005499999V0202301N00311220001CN0200001N9-00221-00781102771ADDAY101999GF100991001001999999001001MD1810111+9999MW1021
0089029720999991958032318004+60517+022267FM-12+005499999V0202201N00311220001CN0150001N9-00721-00781102491ADDAY101999GF101991999001999999041001KA1999M-00111MD1710101+9999MW1021EQDQ01+000002SCOTLC
0057029720999991958032400004+60517+022267FM-12+005499999V0202301N00211001501CN0040001N9-00501-00501102321ADDAY141999GF108991081061001501999999MD1710071+9999MW1021
0070029720999991958032406004+60517+022267FM-12+005499999V0209991C00001000151CN0002001N9-00781-00891102231ADDAY141999GF109991091999000251999999KA1999N-00891MD1710011+9999MW1471
0057029720999991958032412004+60517+022267FM-12+005499999V0209991C00001220001CN0200001N9+00001-00721102211ADDAY101999GF106991001001999999001061MD1010001+9999MW1051
0091029720999991958032418004+60517+022267FM-12+005499999V0202701N00051220001CN0150001N9-00281-00721102191ADDAY121999GF105991001001999999041021KA1999M+00221MW1051EQDQ01+000032APCTENQ02+000002APC3  
0057029720999991958032500004+60517+022267FM-12+005499999V0200401N00101220001CN0200001N9-01221-01391102161ADDAY101999GF101991001001999999001011MD1710021+9999MW1011
0089029720999991958032506004+60517+022267FM-12+005499999V0201801N00311220001CN0060001N9-01281-01391102081ADDAY101999GF106991999001999999071001KA1999N-01501MD1810041+9999MW1031EQDQ01+000002SCOTLC
0057029720999991958032512004+60517+022267FM-12+005499999V0202301N00411220001CN0150001N9-00111-00721101981ADDAY121999GF106991001001999999041021MD1710071+9999MW1051
0091029720999991958032518004+60517+022267FM-12+005499999V0202301N00211220001CN0060001N9-00501-00721101911ADDAY101999GF102991001001999999041011KA1999M+00001MW1011EQDQ01+000032APCTENQ02+000002APC3  
0057029720999991958032600004+60517+022267FM-12+005499999V0203501N00211000151CN0004001N9-00781-00781101881ADDAY101999GF109991091061000251999999MD1710011+9999MW1491
0070029720999991958032606004+60517+022267FM-12+005499999V0200401N00051004501CN0070001N9-00611-00721101741ADDAY171999GF108991081051004501999999KA1999N-00891MD1710081+9999MW1701
0057029720999991958032612004+60517+022267FM-12+005499999V0200601N00311220001CN0500001N9-00111-00891101691ADDAY111999GF102991021011004501041001MD1810051+9999MW1011
0089029720999991958032618004+60517+022267FM-12+005499999V0203601N00211220001CN0400001N9-00281-01221101611ADDAY101999GF101991999001999999041001KA1999M+00001MD1310021+9999MW1011EQDQ01+000002SCOTLC
0057029720999991958032700004+60517+022267FM-12+005499999V0203601N00101220001CN0300001N9-01001-01111101691ADDAY101999GF100991001001999999001001MD1710011+9999MW1021
0070029720999991958032706004+60517+022267FM-12+005499999V0203201N00101220001CN0200001N9-01611-01721101731ADDAY101999GF102991021061000751041011KA1999N-01721MD1210021+9999MW1031
0057029720999991958032712004+60517+022267FM-12+005499999V0203201N00411220001CN0400001N9-00111-00781101711ADDAY101999GF102991011011004501041001MD1710021+9999MW1021
0070029720999991958032718004+60517+022267FM-12+005499999V0203201N00211220001CN0400001N9-00391-00891101791ADDAY101999GF100991001001999999001001KA1999M+00111MD1310101+9999MW1011
0057029720999991958032800004+60517+022267FM-12+005499999V0200201N00211220001CN0200001N9-01111-01281102041ADDAY101999GF100991001001999999001001MD1210111+9999MW1021
0070029720999991958032806004+60517+022267FM-12+005499999V0200701N00211220001CN0300001N9-01281-01611102271ADDAY101999GF100991001001999999001001KA1999N-01501MD1210131+9999MW1021
0057029720999991958032812004+60517+022267FM-12+005499999V0201601N00101220001CN0500001N9-00111-01391102441ADDAY101999GF100991001001999999001001MD1210081+9999MW1021
0070029720999991958032818004+60517+022267FM-12+005499999V0202701N00211220001CN0500001N9-00391-01501102471ADDAY101999GF101991001001999999001011KA1999M+00001MD1310041+9999MW1021
0057029720999991958032900004+60517+022267FM-12+005499999V0202701N00101220001CN0300001N9-01221-01391102681ADDAY101999GF100991001001999999001001MD1210051+9999MW1021
0070029720999991958032906004+60517+022267FM-12+005499999V0202301N00101220001CN0200001N9-01611-01781102761ADDAY101999GF101991001001999999001011KA1999N-01891MD1210061+9999MW1011
0057029720999991958032912004+60517+022267FM-12+005499999V0202201N00411220001CN0500001N9-00111-01111102801ADDAY101999GF106991001001999999041011MD1210031+9999MW1031
0089029720999991958032918004+60517+022267FM-12+005499999V0202201N00101220001CN0400001N9-00391-01001102951ADDAY121999GF106991999001999999071001KA1999M+00001MD1210101+9999MW1031EQDQ01+000002SCOTLC
0057029720999991958033000004+60517+022267FM-12+005499999V0209991C00001220001CN0300001N9-01391-01501103181ADDAY101999GF100991001001999999001001MD1210101+9999MW1021
0070029720999991958033006004+60517+022267FM-12+005499999V0209991C00001220001CN0150001N9-01281-01501103411ADDAY101999GF101991001001999999001011KA1999N-01781MD1210121+9999MW1021
0057029720999991958033012004+60517+022267FM-12+005499999V0203001N00101220001CN0500001N9+00001-01391103391ADDAY101999GF102991001001999999001011MD1810051+9999MW1021
0070029720999991958033018004+60517+022267FM-12+005499999V0203401N00311220001CN0500001N9-00281-01221103291ADDAY101999GF104991001001999999001011KA1999M+00221MD1710031+9999MW1011
0057029720999991958033100004+60517+022267FM-12+005499999V0200401N00101220001CN0300001N9-01001-01281103381ADDAY101999GF100991001001999999001001MD1210031+9999MW1011
0070029720999991958033106004+60517+022267FM-12+005499999V0200201N00101220001CN0300001N9-01281-01611103341ADDAY101999GF101991001001999999041011KA1999N-01721MD1710021+9999MW1021
0057029720999991958033112004+60517+022267FM-12+005499999V0203401N00211220001CN0500001N9+00111-01281103181ADDAY101999GF102991001001999999001011MD1810061+9999MW1021
0070029720999991958033118004+60517+022267FM-12+005499999V0200401N00101220001CN0500001N9-00221-01111103051ADDAY101999GF101991001001999999001011KA1999M+00281MD1710041+9999MW1021
0057029720999991958040100004+60517+022267FM-12+005499999V0200601N00211220001CN0300001N9-01001-01281103121ADDAY101999GF100991001001999999001001MD1410001+9999MW1021
0057029720999991958040106004+60517+022267FM-12+005499999V0200601N00411220001CN0400001N9-00721-01001103081ADDAY101999GF102991001001999999001021MD1010011+9999MW1031
0078029720999991958040112004+60517+022267FM-12+005499999V0200901N00721220001CN0400001N9+00221-01111103061ADDAY101999GF105991001001999999001061MW1181EQDQ01+000022APCTENQ02+000002APC3  
0070029720999991958040118004+60517+022267FM-12+005499999V0200901N00721030001CN0300001N9+00001-00781103131ADDAY121999GF108991031051008001021999KA1999M+00501MD1210101+9999MW1181
0057029720999991958040200004+60517+022267FM-12+005499999V0200901N00511030001CN0300001N9-00111-00891103161ADDAY121999GF108991011051008001021999MD1710091+9999MW1021
0070029720999991958040206004+60517+022267FM-12+005499999V0201201N00621030001CN0300001N9-00221-00781103161ADDAY121999GF108991021051004501071999KA1999N-00281MD1110011+9999MW1021
0057029720999991958040212004+60517+022267FM-12+005499999V0201601N00511220001CN0300001N9+00281-00501103371ADDAY121999GF108991001001999999011071MD1210111+9999MW1021
0070029720999991958040218004+60517+022267FM-12+005499999V0201201N00311220001CN0300001N9+00221-00781103361ADDAY121999GF107991001001999999001071KA1999M+00391MD1310031+9999MW1021
0057029720999991958040300004+60517+022267FM-12+005499999V0201201N00211220001CN0300001N9-00281-00721103421ADDAY121999GF107991001001999999001071MD1210031+9999MW1021
0091029720999991958040306004+60517+022267FM-12+005499999V0201401N00211220001CN0300001N9-00221-00611103401ADDAY111999GF105991001001999999041061KA1999N-00501MW1021EQDQ01+000042APCTENQ02+000012APC3  
0057029720999991958040312004+60517+022267FM-12+005499999V0201401N00511220001CN0500001N9+00501-00721103361ADDAY111999GF105991001001999999001021MD1710131+9999MW1031
0070029720999991958040318004+60517+022267FM-12+005499999V0201301N00311220001CN0500001N9+00221-01111103171ADDAY101999GF102991001001999999001021KA1999M+00611MD1810071+9999MW1011
0057029720999991958040400004+60517+022267FM-12+005499999V0201401N00311220001CN0400001N9-00281-00781103101ADDAY101999GF100991001001999999001001MD1710011+9999MW1021
0070029720999991958040406004+60517+022267FM-12+005499999V0201401N00311220001CN0400001N9-00281-00721102991ADDAY101999GF100991001001999999001001KA1999N-00611MD1710061+9999MW1011
0057029720999991958040412004+60517+022267FM-12+005499999V0201601N00621220001CN0500001N9+00391-00781102691ADDAY101999GF101991001001999999001051MD1710181+9999MW1021
0070029720999991958040418004+60517+022267FM-12+005499999V0201201N00311220001CN0500001N9+00111-01001102291ADDAY101999GF102991001001999999041051KA1999M+00501MD1710191+9999MW1011
0057029720999991958040500004+60517+022267FM-12+005499999V0201201N00311220001CN0400001N9-00221-00721102061ADDAY101999GF102991001001999999001011MD1710161+9999MW1021
0070029720999991958040506004+60517+022267FM-12+005499999V0201401N00411030001CN0100001N9-00221-00611101661ADDAY121999GF108991041051004501071999KA1999N-00281MD1710161+9999MW1731
0057029720999991958040512004+60517+022267FM-12+005499999V0200901N00311004501CN0150001N9+00111-00111101441ADDAY171999GF108991051051004501071999MD1710111+9999MW1711
0081029720999991958040518004+60517+022267FM-12+005499999V0200701N00211004501CN0050001N9+00001-00111101081ADDAA199000691AY171999GF108991081061004501999999KA1999M+00111MD1710171+9999MW1711
0057029720999991958040600004+60517+022267FM-12+005499999V0200201N00211002401CN0030001N9-00111-00111100761ADDAY171999GF108991081061002501999999MD1710151+9999MW1731
0081029720999991958040606004+60517+022267FM-12+005499999V0203601N00511001501CN0060001N9-00221-00281100531ADDAA199002091AY171999GF107991071061001501071999KA1999N-00221MD1710081+9999MW1221
0057029720999991958040612004+60517+022267FM-12+005499999V0203401N00621002401CN0200001N9+00111-00281100631ADDAY121999GF108991081061002501999999MD1210051+9999MW1021
0081029720999991958040618004+60517+022267FM-12+005499999V0203201N00411004501CN0300001N9+00001-00281100771ADDAA199000691AY121999GF106991061051004501999999KA1999M+00111MD1210061+9999MW1011
0057029720999991958040700004+60517+022267FM-12+005499999V0203201N00211220001CN0400001N9-00501-00611100941ADDAY101999GF100991001001999999001001MD1210021+9999MW1011
0089029720999991958040706004+60517+022267FM-12+005499999V0203201N00311220001CN0400001N9-00391-00781100881ADDAY101999GF101991999001999999041001KA1999N-00721MD1310061+9999MW1011EQDQ01+000002SCOTLC
0057029720999991958040712004+60517+022267FM-12+005499999V0202901N00511220001CN0500001N9+00111-00891100911ADDAY101999GF100991001001999999001001MD1810021+9999MW1021
0070029720999991958040718004+60517+022267FM-12+005499999V0202201N00411220001CN0500001N9-00221-00891100831ADDAY101999GF101991001001999999041051KA1999M+00221MD1710051+9999MW1031
0076029720999991958040800004+60517+022267FM-12+005499999V0202701N00211220001CN0300001N9-00611-00781100781ADDAY101999GF101991999001999999041001MD1210021+9999MW1021EQDQ01+000002SCOTLC
0070029720999991958040806004+60517+022267FM-12+005499999V0203601N00511220001CN0300001N9-00281-00611101141ADDAY121999GF103991031051004501001001KA1999N-00721MD1210171+9999MW1011
0057029720999991958040812004+60517+022267FM-12+005499999V0203201N00411007801CN0500001N9+00001-01001101371ADDAY121999GF106991061011008001001001MD1210031+9999MW1031
0070029720999991958040818004+60517+022267FM-12+005499999V0202701N00311220001CN0500001N9-00391-00781101441ADDAY101999GF101991011041008001041001KA1999M+00111MD1210031+9999MW1011
0057029720999991958040900004+60517+022267FM-12+005499999V0202701N00101220001CN0400001N9-01001-01111101431ADDAY101999GF100991001001999999001001MD1810061+9999MW1021
0070029720999991958040906004+60517+022267FM-12+005499999V0201801N00621220001CN0400001N9-00501-00611101281ADDAY121999GF106991001001999999041021KA1999N-01221MD1710061+9999MW1031
0057029720999991958040912004+60517+022267FM-12+005499999V0202201N00721075001CN0500001N9+00111-00611101571ADDAY121999GF107991011011012501001021MD1210141+9999MW1021
0070029720999991958040918004+60517+022267FM-12+005499999V0201601N00311220001CN0500001N9-00221-01111101811ADDAY101999GF102991001001999999001051KA1999M+00111MD1210121+9999MW1021
0057029720999991958041000004+60517+022267FM-12+005499999V0200901N00211220001CN0400001N9-00891-01111102111ADDAY101999GF100991001001999999001001MD1210141+9999MW1021
0070029720999991958041006004+60517+022267FM-12+005499999V0200701N00311220001CN0400001N9-00721-01001102401ADDAY101999GF102991001001999999041011KA1999N-01221MD1210141+9999MW1031
0057029720999991958041012004+60517+022267FM-12+005499999V0200401N00511220001CN0500001N9+00281-00721102511ADDAY101999GF102991021011008001001001MD1210061+9999MW1021
0070029720999991958041018004+60517+022267FM-12+005499999V0200201N00311220001CN0500001N9+00221-00721102681ADDAY101999GF101991001001999999001011KA1999M+00501MD1210111+9999MW1021
0057029720999991958041100004+60517+022267FM-12+005499999V0200201N00411220001CN0400001N9-00281-00781102891ADDAY101999GF100991001001999999001001MD1210081+9999MW1021
0091029720999991958041106004+60517+022267FM-12+005499999V0200401N00211220001CN0400001N9-00391-00891102951ADDAY101999GF101991001001999999001051KA1999N-00391MW1021EQDQ01+000042APCTENQ02+000012APC3  
0057029720999991958041112004+60517+022267FM-12+005499999V0200201N00511220001CN0500001N9+00281-01001102811ADDAY101999GF101991001001999999001051MD1710111+9999MW1021
0070029720999991958041118004+60517+022267FM-12+005499999V0203401N00411220001CN0500001N9+00111-01001102671ADDAY101999GF105991001001999999001061KA1999M+00501MD1710031+9999MW1031
0057029720999991958041200004+60517+022267FM-12+005499999V0203601N00211220001CN0300001N9-00501-00721102621ADDAY111999GF102991001001999999001011MD1710071+9999MW1011
0070029720999991958041206004+60517+022267FM-12+005499999V0203301N00101220001CN0200001N9-00501-00721102411ADDAY121999GF104991001001999999041051KA1999N-00781MD1710091+9999MW1011
0057029720999991958041212004+60517+022267FM-12+005499999V0202901N00411220001CN0400001N9+00781-00281102201ADDAY111999GF104991001001999999041051MD1710181+9999MW1011
0070029720999991958041218004+60517+022267FM-12+005499999V0203301N00361220001CN0400001N9+00281-00221101951ADDAY101999GF101991001001999999041011KA1999M+00781MD1310081+9999MW1011
0057029720999991958041300004+60517+022267FM-12+005499999V0202301N00211220001CN0300001N9-00281-00391101681ADDAY121999GF106991001001999999071999MD1710151+9999MW1031
0070029720999991958041306004+60517+022267FM-12+005499999V0202201N00311220001CN0300001N9+00001-00281101341ADDAY121999GF106991001001999999071061KA1999N-00391MD1710091+9999MW1021
0057029720999991958041312004+60517+022267FM-12+005499999V0202501N00211004501CN0200001N9+00391+00111101341ADDAY121999GF108991061061004501071999MD1310021+9999MW1621
0081029720999991958041318004+60517+022267FM-12+005499999V0202701N00211004501CN0060001N9+00221+00221101481ADDAA199000591AY141999GF107991071051004501999999KA1999M+00611MD1210061+9999MW1211
0057029720999991958041400004+60517+022267FM-12+005499999V0203201N00101220001CN0300001N9+00001+00001101601ADDAY121999GF107991001001999999071999MD1210031+9999MW1011
0081029720999991958041406004+60517+022267FM-12+005499999V0201201N00101220001CN0200001N9+00221-00221101711ADDAA199000691AY121999GF107991001001999999071071KA1999N-00221MD1010021+9999MW1031
0057029720999991958041412004+60517+022267FM-12+005499999V0202101N00311004501CN0400001N9+00501-00221101661ADDAY121999GF108991061051004501071999MD1710051+9999MW1021
0081029720999991958041418004+60517+022267FM-12+005499999V0201501N00411030001CN0080001N9+00221+00111101441ADDAA199000691AY161999GF108991031051004501071999KA1999M+00501MD1710121+9999MW1611
0057029720999991958041500004+60517+022267FM-12+005499999V0201501N00511220001CN0200001N9+00111+00001101081ADDAY161999GF108991001001999999071999MD1710201+9999MW1021
0100029720999991958041506004+60517+022267FM-12+005499999V0201801N00311220001CN0200001N9+00221+00001100751ADDAA199001091AY121999GF106991999001999999071001KA1999N+00111MD1710141+9999MW1021EQDQ01+000002SCOTLC
0057029720999991958041512004+60517+022267FM-12+005499999V0202101N00511030001CN0200001N9+00391+00111100551ADDAY161999GF107991041061004501071999MD1710111+9999MW1011
0081029720999991958041518004+60517+022267FM-12+005499999V0202201N00621220001CN0300001N9+00221-00111100311ADDAA199000691AY121999GF104991011051008001071001KA1999M+00391MD1710121+9999MW1021
0057029720999991958041600004+60517+022267FM-12+005499999V0202101N00311030001CN0200001N9+00221-00111100121ADDAY121999GF108991031051008001071999MD1710091+9999MW1021
0070029720999991958041606004+60517+022267FM-12+005499999V0201801N00311002401CN0100001N9+00111+00001099941ADDAY121999GF108991061061002501071999KA1999N+00111MD1710031+9999MW1021
0057029720999991958041612004+60517+022267FM-12+005499999V0202101N00511030001CN0150001N9+00501+00111999999ADDAY121999GF106991021051004501071999MD1210051+9999MW1021
0070029720999991958041618004+60517+022267FM-12+005499999V0202001N00211220001CN0150001N9+00221+00001100141ADDAY101999GF101991001001999999001011KA1999M+00611MD1210111+9999MW1011
0076029720999991958041700004+60517+022267FM-12+005499999V0201801N00211220001CN0100001N9-00111-00111100211ADDAY101999GF101991999001999999041001MD1210011+9999MW1021EQDQ01+000002SCOTLC
0070029720999991958041706004+60517+022267FM-12+005499999V0202001N00101220001CN0100001N9+00111-00221100421ADDAY101999GF101991001001999999001011KA1999N-00391MD1210131+9999MW1051
0057029720999991958041712004+60517+022267FM-12+005499999V0202901N00411220001CN0400001N9+00891-00281100721ADDAY101999GF101991011999008001001011MD1210151+9999MW1021
0070029720999991958041718004+60517+022267FM-12+005499999V0203201N00151220001CN0500001N9+00391-00221100981ADDAY101999GF101991001001999999001051KA1999M+01001MD1210121+9999MW1021
0057029720999991958041800004+60517+022267FM-12+005499999V0203201N00101220001CN0300001N9-00221-00391101261ADDAY101999GF101991001001999999001011MD1210091+9999MW1021
0057029720999991958041806004+60517+022267FM-12+005499999V0202501N00101220001CN0500001N9+00611-00501101411ADDAY101999GF100991001001999999001001MD1210021+9999MW1021
0057029720999991958041812004+60517+022267FM-12+005499999V0202501N00411220001CN0500001N9+00781-00391101431ADDAY101999GF101991011011008001001001MD1310031+9999MW1021
0070029720999991958041818004+60517+022267FM-12+005499999V0202901N00211220001CN0500001N9+00501-00391101471ADDAY101999GF101991011041012501041001KA1999M+00891MD1310031+9999MW1021
0057029720999991958041900004+60517+022267FM-12+005499999V0202001N00101220001CN0300001N9-00221-00391101541ADDAY101999GF100991001001999999001001MD1710021+9999MW1021
0070029720999991958041906004+60517+022267FM-12+005499999V0201801N01131220001CN0150001N9+00111-00221101541ADDAY101999GF102991001001999999041051KA1999N-00281MD1210021+9999MW1051
0078029720999991958041912004+60517+022267FM-12+005499999V0202001N00721075001CN0500001N9+00721-00391101481ADDAY121999GF107991011011008001001071MW1021EQDQ01+000022APCTENQ02+000002APC3  
0070029720999991958041918004+60517+022267FM-12+005499999V0201501N00311220001CN0500001N9+00391-00281101271ADDAY121999GF107991001001999999021071KA1999M+00721MD1710091+9999MW1031
0057029720999991958042000004+60517+022267FM-12+005499999V0201601N00211220001CN0300001N9+00221-00281101171ADDAY121999GF108991001001999999071999MD1710101+9999MW1021
0081029720999991958042006004+60517+022267FM-12+005499999V0201401N00411002401CN0070001N9+00111+00001101101ADDAA199001091AY171999GF108991081061002501999999KA1999N-00111MD1310011+9999MW1681
0057029720999991958042012004+60517+022267FM-12+005499999V0201601N00511030001CN0400001N9+00501+00111101231ADDAY121999GF108991041051004501071999MD1210041+9999MW1021
0081029720999991958042018004+60517+022267FM-12+005499999V0201801N00211030001CN0400001N9+00391+00111101251ADDAA199001091AY121999GF108991041051004501071999KA1999M+00501MD1710021+9999MW1021
0057029720999991958042100004+60517+022267FM-12+005499999V0201101N00311220001CN0200001N9+00001-00221101081ADDAY101999GF100991001001999999001001MD1710101+9999MW1021
0070029720999991958042106004+60517+022267FM-12+005499999V0201401N00211001501CN0200001N9+00111-00111100891ADDAY121999GF107991071061001501999999KA1999N-00111MD1710051+9999MW1031
0057029720999991958042112004+60517+022267FM-12+005499999V0201401N00621004501CN0400001N9+00611+00111100911ADDAY121999GF107991071051004501999999MD1410001+9999MW1021
0070029720999991958042118004+60517+022267FM-12+005499999V0201201N00411220001CN0400001N9+00391-00501101091ADDAY121999GF105991001001999999041999KA1999M+00721MD1210151+9999MW1011
0057029720999991958042200004+60517+022267FM-12+005499999V0200601N00511007801CN0400001N9+00111-00391101441ADDAY121999GF106991061051008001001001MD1210151+9999MW1031
0070029720999991958042206004+60517+022267FM-12+005499999V0200601N00621220001CN0400001N9+00111-00611101741ADDAY101999GF101991001001999999001011KA1999N-00221MD1210141+9999MW1021
0057029720999991958042212004+60517+022267FM-12+005499999V0200401N00621220001CN0400001N9+00611-00781101881ADDAY101999GF103991001001999999041011MD1210061+9999MW1021
0070029720999991958042218004+60517+022267FM-12+005499999V0200401N00411220001CN0400001N9+00391-00611101991ADDAY111999GF102991001001999999041011KA1999M+00721MD1210081+9999MW1021
0076029720999991958042300004+60517+022267FM-12+005499999V0200301N00211220001CN0200001N9-00111-00281102101ADDAY101999GF104991999001999999041001MD1410001+9999MW1031EQDQ01+000002SCOTLC
0081029720999991958042306004+60517+022267FM-12+005499999V0200401N00311030001CN0060001N9+00001+00001102131ADDAA199000691AY171999GF108991041061004501071999KA1999N-00221MD1210031+9999MW1731
0057029720999991958042312004+60517+022267FM-12+005499999V0200701N00411004501CN0120001N9+00281+00221102291ADDAY171999GF107991061061004501071999MD1210091+9999MW1231
0081029720999991958042318004+60517+022267FM-12+005499999V0200601N00311220001CN0500001N9+00611+00001102361ADDAA199001091AY101999GF102991001001999999041051KA1999M+00891MD1210101+9999MW1031
0057029720999991958042400004+60517+022267FM-12+005499999V0200701N00211220001CN0400001N9+00111-00721102591ADDAY111999GF104991001001999999001051MD1210071+9999MW1031
0070029720999991958042406004+60517+022267FM-12+005499999V0200701N00311220001CN0400001N9+00111-00721102621ADDAY121999GF107991001001999999001071KA1999N-00111MD1110031+9999MW1021
0057029720999991958042412004+60517+022267FM-12+005499999V0200601N00411220001CN0500001N9+00781-00781102591ADDAY121999GF105991001001999999001061MD1710071+9999MW1021
0091029720999991958042418004+60517+022267FM-12+005499999V0201601N00101220001CN0500001N9+00611-00281102561ADDAY101999GF101991001001999999001021KA1999M+00891MW1021EQDQ01+000042APCTENQ02+000022APC3  
0057029720999991958042500004+60517+022267FM-12+005499999V0201601N00211220001CN0300001N9-00221-00611102621ADDAY101999GF100991001001999999001001MD1210021+9999MW1011
0070029720999991958042506004+60517+022267FM-12+005499999V0201601N00211220001CN0400001N9+00221-00611102611ADDAY101999GF100991001001999999001001KA1999N-00501MD1810011+9999MW1021
0057029720999991958042512004+60517+022267FM-12+005499999V0200601N00211220001CN0500001N9+00781-00501102391ADDAY101999GF100991001001999999001001MD1710131+9999MW1021
0070029720999991958042518004+60517+022267FM-12+005499999V0202501N00311220001CN0500001N9+00501-00391102251ADDAY101999GF100991001001999999001001KA1999M+00891MD1710041+9999MW1011
0057029720999991958042600004+60517+022267FM-12+005499999V0200901N00211220001CN0400001N9-00281-00391102221ADDAY101999GF100991001001999999001001MD1710021+9999MW1021
0070029720999991958042606004+60517+022267FM-12+005499999V0201101N00411220001CN0400001N9+00221-00281101961ADDAY101999GF101991001001999999001051KA1999N-00281MD1710121+9999MW1021
0057029720999991958042612004+60517+022267FM-12+005499999V0201401N00621220001CN0500001N9+00891-00221101681ADDAY101999GF102991021011008001001051MD1710171+9999MW1031
0070029720999991958042618004+60517+022267FM-12+005499999V0201201N00411030001CN0500001N9+00611-00281101601ADDAY121999GF107991021051008001041051KA1999M+01001MD1410001+9999MW1021
0057029720999991958042700004+60517+022267FM-12+005499999V0201201N00411220001CN0300001N9+00221-00111101431ADDAY111999GF105991001001999999041061MD1710121+9999MW1031
0070029720999991958042706004+60517+022267FM-12+005499999V0201201N00511220001CN0150001N9+00391+00001101201ADDAY121999GF108991001001999999001071KA1999N+00111MD1710101+9999MW1051
0057029720999991958042712004+60517+022267FM-12+005499999V0201201N00721075001CN0300001N9+01001+00111101011ADDAY121999GF106991041011008001001071MD1710101+9999MW1011
0070029720999991958042718004+60517+022267FM-12+005499999V0201201N00311220001CN0300001N9+00721-00111100911ADDAY101999GF102991011011012501001051KA1999M+01111MD1610011+9999MW1031
0076029720999991958042800004+60517+022267FM-12+005499999V0200701N00411220001CN0200001N9+00001-00221100871ADDAY101999GF101991999001999999041001MD1710091+9999MW1021EQDQ01+000002SCOTLC
0070029720999991958042806004+60517+022267FM-12+005499999V0200701N00511004501CN0200001N9+00221+00001100711ADDAY121999GF107991061051004501071999KA1999N-00111MD1710081+9999MW1011
0057029720999991958042812004+60517+022267FM-12+005499999V0200701N00621004501CN0150001N9+00501+00281100581ADDAY161999GF108991061051004501021999MD1510021+9999MW1631
0081029720999991958042818004+60517+022267FM-12+005499999V0201401N00101000151CN0007001N9+00281+00281100661ADDAA199002091AY161999GF109991091061000251999999KA1999M+00611MD1210051+9999MW1471
0057029720999991958042900004+60517+022267FM-12+005499999V0209991C00001000151CN0002001N9+00111+00111100801ADDAY141999GF108991081061000251999999MD1210111+9999MW1671
0081029720999991958042906004+60517+022267FM-12+005499999V0200801N00101000601CN0080001N9+00111+00111101031ADDAA199002091AY161999GF108991061061000751021999KA1999N+00001MD1210121+9999MW1671
0057029720999991958042912004+60517+022267FM-12+005499999V0202301N00411001501CN0150001N9+00391+00221101411ADDAY121999GF108991051061001501071999MD1210221+9999MW1021
0070029720999991958042918004+60517+022267FM-12+005499999V0202401N00211001501CN0150001N9+00281+00221101761ADDAY121999GF108991081061001501999999KA1999M+00501MD1210131+9999MW1021
0057029720999991958043000004+60517+022267FM-12+005499999V0202001N00411001501CN0080001N9+00111+00001101891ADDAY121999GF108991081061001501999999MD1210011+9999MW1021
0081029720999991958043006004+60517+022267FM-12+005499999V0201801N00511000601CN0030001N9+00221+00111101601ADDAA199001091AY161999GF108991071061000751021999KA1999N+00111MD1710131+9999MW1581
0057029720999991958043012004+60517+022267FM-12+005499999V0203001N00411002401CN0400001N9+00891+00611101581ADDAY121999GF107991071051002501001001MD1210111+9999MW1011
0081029720999991958043018004+60517+022267FM-12+005499999V0202001N00311220001CN0500001N9+00721+00111101781ADDAA199003091AY101999GF102991011011004501041001KA1999M+01111MD1210071+9999MW1031
0057029720999991958050100004+60517+022267FM-12+005499999V0202001N00101220001CN0300001N9+00391+00221101651ADDAY181999GF102991011031008001041001MD1710101+9999MW1021
0081029720999991958050106004+60517+022267FM-12+005499999V0203201N00511220001CN0500001N9+00611+00001101661ADDAA199000591AY101999GF101991011031008001041001KA1999N+00221MD1410001+9999MW1021
0057029720999991958050112004+60517+022267FM-12+005499999V0203401N00821007801CN0500001N9+00891+00001101751ADDAY101999GF105991051011008001001001MD1210041+9999MW1031
0070029720999991958050118004+60517+022267FM-12+005499999V0202901N00411220001CN0500001N9+00611-00221101791ADDAY111999GF104991031051008001041011KA1999M+01111MD1410001+9999MW1011
0076029720999991958050200004+60517+022267FM-12+005499999V0202701N00311220001CN0400001N9+00111-00281101711ADDAY111999GF101991999001999999041001MD1710091+9999MW1011EQDQ01+000002SCOTLC
0070029720999991958050206004+60517+022267FM-12+005499999V0202501N00211220001CN0300001N9+00281+00001101381ADDAY121999GF107991001001999999011999KA1999N-00111MD1710201+9999MW1031
0057029720999991958050212004+60517+022267FM-12+005499999V0201601N00311004501CN0200001N9+00501+00111101001ADDAY161999GF108991081051004501999999MD1710201+9999MW1601
0081029720999991958050218004+60517+022267FM-12+005499999V0201201N00411002401CN0150001N9+00391+00221100321ADDAA199000691AY161999GF108991061061002501021999KA1999M+00611MD1710351+9999MW1611
0057029720999991958050300004+60517+022267FM-12+005499999V0200701N00821002401CN0100001N9+00111+00001099541ADDAY161999GF108991081061002501999999MD1710421+9999MW1631
0081029720999991958050306004+60517+022267FM-12+005499999V0200701N00511001501CN0006001N9+00001+00001098981ADDAA199013091AY171999GF108991081061001501999999KA1999N+00001MD1710211+9999MW1691
0057029720999991958050312004+60517+022267FM-12+005499999V0200201N00511001501CN0150001N9+00221+00221099021ADDAY171999GF108991081061001501999999MD1310181+9999MW1501
0081029720999991958050318004+60517+022267FM-12+005499999V0203401N00211000601CN0070001N9+00111+00111099201ADDAA199010091AY171999GF108991081061000751999999KA1999M+00221MD1310041+9999MW1681
0057029720999991958050400004+60517+022267FM-12+005499999V0203401N00411001501CN0060001N9+00111+00111099391ADDAY151999GF108991081061001501999999MD1210071+9999MW1511
0081029720999991958050406004+60517+022267FM-12+005499999V0203601N00411001501CN0100001N9+00111+00111099481ADDAA199001091AY161999GF108991081061001501999999KA1999N+00001MD1210091+9999MW1631
0057029720999991958050412004+60517+022267FM-12+005499999V0203601N00621001501CN0080001N9+00281+00221099881ADDAY151999GF108991081061001501999999MD1210241+9999MW1631
0081029720999991958050418004+60517+022267FM-12+005499999V0203401N00411002401CN0300001N9+00391+00281100191ADDAA199000591AY161999GF108991071051002501071999KA1999M+00501MD1210121+9999MW1601
0057029720999991958050500004+60517+022267FM-12+005499999V0203401N00411002401CN0200001N9+00221+00221100311ADDAY161999GF108991081061002501999999MD1210021+9999MW1611
0081029720999991958050506004+60517+022267FM-12+005499999V0203401N00511001501CN0080001N9+00221+00111100371ADDAA199002091AY171999GF107991061061001501071999KA1999N+00111MD1210041+9999MW1511
0057029720999991958050512004+60517+022267FM-12+005499999V0203001N00621004501CN0400001N9+00611+00001100511ADDAY121999GF108991071031004501071999MD1210081+9999MW1031
0081029720999991958050518004+60517+022267FM-12+005499999V0203401N00621030001CN0400001N9+00281+00001100701ADDAA199000691AY121999GF107991041051002501071999KA1999M+00781MD1210081+9999MW1031
0057029720999991958050600004+60517+022267FM-12+005499999V0203401N00211001501CN0200001N9+00111+00001100821ADDAY121999GF108991081061001501999999MD1210051+9999MW1021
0081029720999991958050606004+60517+022267FM-12+005499999V0203401N00311001501CN0150001N9+00221+00111100901ADDAA199000691AY121999GF108991081061001501999999KA1999N+00001MD1210071+9999MW1021
0057029720999991958050612004+60517+022267FM-12+005499999V0203001N00211004501CN0400001N9+00781+00111100911ADDAY121999GF107991071081004501999999MD1810021+9999MW1031
0091029720999991958050618004+60517+022267FM-12+005499999V0202301N00101007801CN0200001N9+00611+00281100851ADDAY121999GF106991051021008001041001KA1999M+00891MW1031EQDQ01+000042APCTENQ02+000022APC3  
0076029720999991958050700004+60517+022267FM-12+005499999V0201201N00211220001CN0300001N9+00001+00001100771ADDAY101999GF106991999001999999041001MD1710071+9999MW1011EQDQ01+000002SCOTLC
0070029720999991958050706004+60517+022267FM-12+005499999V0201201N00311220001CN0150001N9+00501+00111100601ADDAY121999GF106991001001999999041061KA1999N-00221MD1710051+9999MW1021
0057029720999991958050712004+60517+022267FM-12+005499999V0201201N00411007801CN0300001N9+00781+00001100511ADDAY121999GF107991071081008001999999MD1710021+9999MW1801
0081029720999991958050718004+60517+022267FM-12+005499999V0201201N00311030001CN0300001N9+00721-00221100481ADDAA199000691AY121999GF108991031051004501021999KA1999M+00891MD1510041+9999MW1021
0078029720999991958050800004+60517+022267FM-12+005499999V0200201N00311220001CN0300001N9+00111-00221100831ADDAY101999GF101991011051004501001001MW1011EQDQ01+000022APCTENQ02+000002APC3  
0089029720999991958050806004+60517+022267FM-12+005499999V0203601N00211220001CN0400001N9+00281-00111101231ADDAY101999GF101991999001999999041001KA1999N+00111MD1210171+9999MW1011EQDQ01+000002SCOTLC
0057029720999991958050812004+60517+022267FM-12+005499999V0202201N00311007801CN0400001N9+00891-00281101451ADDAY121999GF106991061021008001041999MD1210091+9999MW1021
0070029720999991958050818004+60517+022267FM-12+005499999V0202301N00311030001CN0500001N9+00781-00281101551ADDAY121999GF107991011021008001041021KA1999M+01111MD1310031+9999MW1011
0043029720999991958050900004+60517+022267FM-12+005499999V0201401N00101220001CN0400001N9+00221-00221101561ADDAY121999GF108991001001999999071999MW1031
0070029720999991958050906004+60517+022267FM-12+005499999V0201601N00621030001CN0400001N9+00501+00221101251ADDAY121999GF108991011011008001071999KA1999N+00221MD1710141+9999MW1021
0057029720999991958050912004+60517+022267FM-12+005499999V0201601N00511001501CN0040001N9+00501+00501101061ADDAY151999GF108991061061001501021999MD1710121+9999MW1531
0081029720999991958050918004+60517+022267FM-12+005499999V0201601N00511000151CN0009001N9+00501+00501100791ADDAA199002091AY151999GF108991081061000251999999KA1999M+00501MD1710121+9999MW1551
0057029720999991958051000004+60517+022267FM-12+005499999V0201601N00311000601CN0012001N9+00501+00501100601ADDAY151999GF108991081061000751999999MD1710061+9999MW1631
0081029720999991958051006004+60517+022267FM-12+005499999V0201801N00311000151CN0004001N9+00501+00501100491ADDAA199001091AY151999GF109991091061000251999999KA1999N+00391MD1710021+9999MW1451
0057029720999991958051012004+60517+022267FM-12+005499999V0202501N00411007801CN0300001N9+01221+00721100461ADDAY121999GF106991061081008001001001MD1710011+9999MW1011
0070029720999991958051018004+60517+022267FM-12+005499999V0202501N00311220001CN0300001N9+01111+00611100491ADDAY101999GF101991011041008001001011KA1999M+01281MD1210041+9999MW1011
0057029720999991958051100004+60517+022267FM-12+005499999V0209991C00001220001CN0003001N9+00111+00001100601ADDAY141999GF100991001001999999001001MD1710011+9999MW1461
0089029720999991958051106004+60517+022267FM-12+005499999V0201401N00211220001CN0100001N9+00611+00281100651ADDAY121999GF106991999001999999041001KA1999N-00221MD1210041+9999MW1021EQDQ01+000002SCOTLC
0057029720999991958051112004+60517+022267FM-12+005499999V0202301N00511220001CN0500001N9+01501+00001100591ADDAY101999GF104991041011008001001001MD1810031+9999MW1021
0070029720999991958051118004+60517+022267FM-12+005499999V0202701N00101220001CN0500001N9+01221-00221100511ADDAY101999GF101991011051012501041001KA1999M+01611MD1710061+9999MW1031
0057029720999991958051200004+60517+022267FM-12+005499999V0202201N00101220001CN0200001N9+00001+00001100461ADDAY101999GF102991001001999999041051MD1710081+9999MW1111
0070029720999991958051206004+60517+022267FM-12+005499999V0202001N00101220001CN0100001N9+00501+00111100301ADDAY121999GF107991001001999999011071KA1999N-00111MD1710081+9999MW1021
0057029720999991958051212004+60517+022267FM-12+005499999V0201601N00311030001CN0200001N9+00611+00111100341ADDAY121999GF108991021051008001021999MD1210031+9999MW1611
0081029720999991958051218004+60517+022267FM-12+005499999V0202201N00211002401CN0100001N9+00501+00391100311ADDAA199000391AY161999GF108991061061002501021999KA1999M+00781MD1410001+9999MW1631
0057029720999991958051300004+60517+022267FM-12+005499999V0201801N00101004501CN0100001N9+00391+00391100131ADDAY151999GF108991081061004501999999MD1710111+9999MW1021
0081029720999991958051306004+60517+022267FM-12+005499999V0201801N00311001501CN0070001N9+00501+00391099961ADDAA199002091AY161999GF108991081061001501999999KA1999N+00391MD1710151+9999MW1211
0057029720999991958051312004+60517+022267FM-12+005499999V0202501N00511001501CN0100001N9+00611+00501099921ADDAY161999GF108991061061001501021999MD1210021+9999MW1501
0081029720999991958051318004+60517+022267FM-12+005499999V0203001N00511001501CN0200001N9+00391+00281100301ADDAA199001091AY151999GF108991081061001501999999KA1999M+00721MD1210271+9999MW1021
0057029720999991958051400004+60517+022267FM-12+005499999V0202901N00311002401CN0100001N9+00221+00111100911ADDAY121999GF108991081061002501999999MD1210321+9999MW1021
0081029720999991958051406004+60517+022267FM-12+005499999V0203201N00311004501CN0200001N9+00281+00221101451ADDAA199000691AY161999GF107991061051004501071999KA1999N+00221MD1210291+9999MW1021
0057029720999991958051412004+60517+022267FM-12+005499999V0203001N00721220001CN0500001N9+01111+00001101621ADDAY111999GF104991041021008001001051MD1210081+9999MW1011
0077029720999991958051418004+60517+022267FM-12+005499999V0209999999999220001CN9999999N9+00781+00111101641ADDGF199999001001999999001061KA1999M+01221EQDQ01+000042APCTENQ02+000012APC3  
0043029720999991958051500004+60517+022267FM-12+005499999V0202201N00101220001CN0150001N9+00001-00111101731ADDAY101999GF102991001001999999001011MW1021
0070029720999991958051506004+60517+022267FM-12+005499999V0201401N00411220001CN0400001N9+00721+00001101651ADDAY111999GF105991001001999999041021KA1999N-00221MD1710051+9999MW1031
0057029720999991958051512004+60517+022267FM-12+005499999V0201201N00621030001CN0500001N9+01281-00391101191ADDAY121999GF107991011011012501011071MD1710291+9999MW1031
0081029720999991958051518004+60517+022267FM-12+005499999V0201201N00721002401CN0300001N9+00891-00221100691ADDAA199000691AY121999GF108991081061002501999999KA1999M+01391MD1710241+9999MW1601
0057029720999991958051600004+60517+022267FM-12+005499999V0200901N00721001501CN0040001N9+00611+00611099941ADDAY161999GF108991081061001501999999MD1710411+9999MW1531
0081029720999991958051606004+60517+022267FM-12+005499999V0201501N00411000601CN0050001N9+00721+00721099561ADDAA199006091AY151999GF108991071061000751999999KA1999N+00501MD1710101+9999MW1511
0057029720999991958051612004+60517+022267FM-12+005499999V0202001N00511002401CN0100001N9+00721+00611099971ADDAY151999GF108991081061002501999999MD1210251+9999MW1021
0081029720999991958051618004+60517+022267FM-12+005499999V0201801N00311001501CN0100001N9+00721+00611100201ADDAA199000691AY121999GF108991081061001501999999KA1999M+00781MD1210091+9999MW1031
0057029720999991958051700004+60517+022267FM-12+005499999V0201801N00311000151CN0002001N9+00391+00391100471ADDAY141999GF109991091061000251999999MD1210101+9999MW1471
0070029720999991958051706004+60517+022267FM-12+005499999V0201401N00101000151CN0002001N9+00501+00501100591ADDAY141999GF109991091061000251999999KA1999N+00391MD1110041+9999MW1451
0057029720999991958051712004+60517+022267FM-12+005499999V0200901N00411030001CN0300001N9+01391+00611100271ADDAY121999GF106991021011004501071999MD1710281+9999MW1011
0081029720999991958051718004+60517+022267FM-12+005499999V0200701N00621001501CN0030001N9+01001+00891099581ADDAA199004091AY121999GF108991081061001501999999KA1999M+01611MD1710421+9999MW1631
0070029720999991958051800004+60517+022267FM-12+005499999V0201801N00721000601CN0006001N9+00501+00501098851ADDAY161999GF108991081061000751999999MD1710231+9999EQDQ01+000572PRSWM1
0081029720999991958051806004+60517+022267FM-12+005499999V0202001N00311000601CN0080001N9+00501+00501098471ADDAA199010091AY151999GF108991081061000751999999KA1999N+00391MD1710181+9999MW1501
0057029720999991958051812004+60517+022267FM-12+005499999V0203001N00511001501CN0016001N9+00111+00111098931ADDAY161999GF108991081061001501999999MD1710481+9999MW1681
0081029720999991958051818004+60517+022267FM-12+005499999V0202701N00511030001CN0500001N9+00391+00221099271ADDAA199003091AY161999GF107991011051004501041021KA1999M+00611MD1210161+9999MW1011
0057029720999991958051900004+60517+022267FM-12+005499999V0202501N00411220001CN0300001N9+00501+00281099621ADDAY121999GF106991001001999999041011MD1710011+9999MW1021
0070029720999991958051906004+60517+022267FM-12+005499999V0203201N00411220001CN0500001N9+00611+00001099771ADDAY101999GF102991001001999999041011KA1999N+00221MD1210151+9999MW1021
0057029720999991958051912004+60517+022267FM-12+005499999V0203201N00511220001CN0500001N9+00891-00281100361ADDAY111999GF104991031011008001001021MD1210341+9999MW1181
0070029720999991958051918004+60517+022267FM-12+005499999V0203401N00621220001CN0500001N9+00721-00281100841ADDAY101999GF102991011011008001041011KA1999M+01001MD1210241+9999MW1011
0076029720999991958052000004+60517+022267FM-12+005499999V0202701N00051220001CN0500001N9-00111-00221101241ADDAY101999GF101991999001999999041001MD1210141+9999MW1021EQDQ01+000002SCOTLC
0070029720999991958052006004+60517+022267FM-12+005499999V0201401N00101220001CN0500001N9+00501+00111101501ADDAY101999GF101991001001999999041011KA1999N-00221MD1210141+9999MW1021
0057029720999991958052012004+60517+022267FM-12+005499999V0202001N00511030001CN0500001N9+01111-00281101461ADDAY121999GF107991011011012501071999MD1710061+9999MW1031
0081029720999991958052018004+60517+022267FM-12+005499999V0201601N00621001501CN0100001N9+00611-00501100961ADDAA199003091AY161999GF108991081061001501999999KA1999M+01281MD1710281+9999MW1631
0057029720999991958052100004+60517+022267FM-12+005499999V0202001N00511000601CN0040001N9+00611+00611100671ADDAY161999GF108991081061000751999999MD1710061+9999MW1631
0081029720999991958052106004+60517+022267FM-12+005499999V0202001N00311001501CN0500001N9+00721+00611100631ADDAA199007091AY121999GF108991051061001501071999KA1999N+00611MD1210031+9999MW1021
0057029720999991958052112004+60517+022267FM-12+005499999V0202401N00821220001CN0500001N9+01221+00501100751ADDAY111999GF104991011011008001041041MD1210101+9999MW1011
0070029720999991958052118004+60517+022267FM-12+005499999V0202001N00311220001CN0500001N9+01001+00281100781ADDAY101999GF101991001001999999041011KA1999M+01281MD1810041+9999MW1021
0057029720999991958052200004+60517+022267FM-12+005499999V0201801N00411220001CN0200001N9+00501+00281100681ADDAY121999GF106991001001999999041061MD1710081+9999MW1011
0070029720999991958052206004+60517+022267FM-12+005499999V0202501N00721030001CN0200001N9+00891+00391100621ADDAY121999GF108991041011004501071001KA1999N+00501MD1210101+9999MW1021
0057029720999991958052212004+60517+022267FM-12+005499999V0202401N00821220001CN0500001N9+01221+00281101131ADDAY111999GF102991021011008001001001MD1210251+9999MW1181
0070029720999991958052218004+60517+022267FM-12+005499999V0202301N00511220001CN0500001N9+01111+00221101351ADDAY101999GF101991011041008001041001KA1999M+01391MD1210061+9999MW1011
0076029720999991958052300004+60517+022267FM-12+005499999V0202501N00621220001CN0300001N9+00781-00281101761ADDAY101999GF101991999001999999041001MD1210211+9999MW1021EQDQ01+000002SCOTLC
0070029720999991958052306004+60517+022267FM-12+005499999V0202701N00211220001CN0500001N9+01111+00111102061ADDAY101999GF101991001001999999001011KA1999N+00611MD1210041+9999MW1021
0057029720999991958052312004+60517+022267FM-12+005499999V0202001N00621075001CN0500001N9+01501+00111102211ADDAY111999GF106991021011008001001021MD1210011+9999MW1031
0070029720999991958052318004+60517+022267FM-12+005499999V0202001N00101007801CN0500001N9+01111+00111102171ADDAY121999GF108991051051008001071999KA1999M+01611MD1610031+9999MW1031
0057029720999991958052400004+60517+022267FM-12+005499999V0201401N00101220001CN0300001N9+00611+00281102231ADDAY121999GF107991001001999999071999MD1210031+9999MW1031
0070029720999991958052406004+60517+022267FM-12+005499999V0200701N00311220001CN0400001N9+01001+00281102191ADDAY121999GF106991001001999999041021KA1999N+00501MD1010021+9999MW1011
0057029720999991958052412004+60517+022267FM-12+005499999V0201101N00311030001CN0500001N9+01611+00281102131ADDAY121999GF107991021011008001071999MD1710051+9999MW1021
0091029720999991958052418004+60517+022267FM-12+005499999V0200901N00411220001CN0500001N9+01391+00391102081ADDAY121999GF107991001001999999071999KA1999M+01721MW1011EQDQ01+000042APCTENQ02+000012APC3  
