0057029700999991954010100004+60117+019900FM-12+000399999V0202901N00211002401CN0160001N9+00001-00111102381ADDAY121999GF108991081051002501999999MD1310071+9999MW1021
0057029700999991954010112004+60117+019900FM-12+000399999V0202501N00211220001CN0200001N9+00001-00221102541ADDAY111999GF100991001001999999001001MD1990031+9999MW1001
0057029700999991954010200004+60117+019900FM-12+000399999V0202701N00821002401CN0160001N9+00001-00111101821ADDAY111999GF108991081051002501999999MD1810271+9999MW1031
0076029700999991954010206004+60117+019900FM-12+000399999V0202901N00511220001CN0200001N9+00221+00001101251ADDAY111999GF102991021051002501001001IA1189KA1999N-00281MD1810111+9999MW1011
0076029700999991954010212004+60117+019900FM-12+000399999V0202701N00211220001CN0200001N9+00221+00221100811ADDAY111999GF103991999001999999061001MD1810251+9999MW1011EQDQ01+000002SCOTLC
0095029700999991954010218004+60117+019900FM-12+000399999V0202301N00821002401CN0200001N9+00281+00281099641ADDAY111999GF105991051071002501999999IA1189KA1999M+99999MD1810481+9999MW1031EQDQ01 +00222ATMX  
0057029700999991954010300004+60117+019900FM-12+000399999V0202301N00211001501CN0160001N9+00391+00281098601ADDAY121999GF108991081071001501999999MD1810441+9999MW1601
0087029700999991954010306004+60117+019900FM-12+000399999V0203601N00211001501CN0160001N9+00221+00221098451ADDAA199004091AY161999GF108991081071001501999999IA1109KA1999N+00001MD1810071+9999MW1631
0057029700999991954010312004+60117+019900FM-12+000399999V0202101N00821000601CN9999999N9+00111+00111999999ADDAY171999GF108991081071000751999999MD1310201+9999MW1391
0087029700999991954010318004+60117+019900FM-12+000399999V0200501N01341000151CN0008001N9-00221-00391100221ADDAA199002091AY131999GF109991091999000251999999IA1199KA1999M+00391MD1310061+9999MW1391
0092029700999991954010400004+60117+019900FM-12+000399999V0200501N01031001501CN0160001N9-00501-00501101522ADDAY121999GF108991081071001501999999MD1310602+9999MW1021EQDQ01+101523APOSLPQ02+000602APC3  
0106029700999991954010406004+60117+019900FM-12+000399999V0200501N00721220001CN0160001N9-00781-00781102382ADDAA199000591AY121999GF105991001001999999071999IA1309KA1999N-00781MD1310371+9999MW1011EQDQ01+102383APOSLP
0076029700999991954010418004+60117+019900FM-12+000399999V0209991C00001220001CN0200001N9-01281-01281102981ADDAY111999GF100991001001999999001001IA1189KA1999M-00221MD1310111+9999MW1001
0076029700999991954010506004+60117+019900FM-12+000399999V0202301N00411220001CN0200001N9-00501-00501102581ADDAY101999GF100991001001999999001001IA1189KA1999N-01721MD1810211+9999MW1001
0057029700999991954010512004+60117+019900FM-12+000399999V0202501N00931220001CN0200001N9-00281-00501102251ADDAY111999GF106991001001999999021999MD1810211+9999MW1031
0076029700999991954010518004+60117+019900FM-12+000399999V0202301N00721220001CN0200001N9-00281-00281101941ADDAY121999GF108991001001999999041999IA1189KA1999M-00281MD1810081+9999MW1031
0076029700999991954010600004+60117+019900FM-12+000399999V0202301N01131220001CN0200001N9+00001-00111101481ADDAY111999GF103991999001999999071001MD1810321+9999MW1021EQDQ01+000002SCOTLC
0076029700999991954010606004+60117+019900FM-12+000399999V0202501N01131001501CN0160001N9+00111-00221101021ADDAY121999GF108991081071001501999999IA1189KA1999N-00281MD1810241+9999MW1021
0057029700999991954010612004+60117+019900FM-12+000399999V0202501N01231004501CN0160001N9+00111-00221100811ADDAY121999GF108991081051004501999999MD1810071+9999MW1021
0097029700999991954010618004+60117+019900FM-12+000399999V0202501N01031004501CN0160001N9+00111-00221100781ADDAY121999GF108991081051004501999999IA1189KA1999M+00221MW1031EQDQ01+000082APCTENQ02+000002APC3  
0078029700999991954010700004+60117+019900FM-12+000399999V0202301N00721002401CN0160001N9+00001-00111100751ADDAY121999GF108991081071002501999999MW1021EQDQ01+000082APCTENQ02+000002APC3  
0087029700999991954010706004+60117+019900FM-12+000399999V0202301N00211001501CN0110001N9+00001+00001101091ADDAA199000691AY121999GF108991081071001501999999IA1189KA1999N+00001MD1310171+9999MW1711
0057029700999991954010712004+60117+019900FM-12+000399999V0203601N00211002401CN0200001N9+00001+00001101261ADDAY121999GF108991081051002501999999MD1310121+9999MW1021
0087029700999991954010718004+60117+019900FM-12+000399999V0209991C00001004501CN0200001N9-00221-00221101591ADDAA199002091AY121999GF108991081051004501999999IA1199KA1999M+00111MD1310191+9999MW1021
0057029700999991954010800004+60117+019900FM-12+000399999V0209991C00001220001CN0200001N9-00391-00391101751ADDAY111999GF101991011051004501001001MD1310041+9999MW1021
0076029700999991954010806004+60117+019900FM-12+000399999V0209991C00001220001CN0200001N9-01221-01221101801ADDAY101999GF100991001001999999001001IA1199KA1999N-01221MD1810041+9999MW1001
0057029700999991954010812004+60117+019900FM-12+000399999V0209991C00001220001CN0200001N9-00721-00721101661ADDAY101999GF100991001001999999001001MD1810151+9999MW1001
0095029700999991954010818004+60117+019900FM-12+000399999V0202301N00931220001CN0200001N9-00221-00221101211ADDAY111999GF102991999001999999041001IA1009KA1999M-00221MD1810111+9999MW1031EQDQ01+000002SCOTLC
0057029700999991954010900004+60117+019900FM-12+000399999V0202301N01031001501CN0160001N9+00001-00111100521ADDAY111999GF108991081071001501999999MD1810361+9999MW1031
0076029700999991954010906004+60117+019900FM-12+000399999V0202301N00821001501CN0160001N9+00221+00221099511ADDAY121999GF108991081071001501999999IA1199KA1999N-00281MD1810471+9999MW1021
0076029700999991954010912004+60117+019900FM-12+000399999V0202301N00211030001CN0200001N9+00111+00111098341ADDAY121999GF106991031071001501021999MD1810552+9999MW1011EQDQ01+000552APC3  
0106029700999991954010918004+60117+019900FM-12+000399999V0200201N00211000601CN0110001N9+00001+00001097542ADDAA199013091AY121999GF108991081071000751999999IA1199KA1999M+00221MD1810361+9999MW1021EQDQ01+097543APOSLP
0087029700999991954011006004+60117+019900FM-12+000399999V0200201N00721000601CN0010001N9-00391-00391098611ADDAA199002091AY171999GF108991081071000751999999IA1309KA1999N-00391MD1310151+9999MW1751
0057029700999991954011012004+60117+019900FM-12+000399999V0203601N00721000601CN0110001N9-00391-00391098861ADDAY121999GF108991081071000751999999MD1310071+9999MW1021
0087029700999991954011018004+60117+019900FM-12+000399999V0200201N00411004501CN0110001N9-00501-00501099171ADDAA199004091AY111999GF105991051051004501999999IA1319KA1999M+00001MD1310291+9999MW1011
0043029700999991954011100004+60117+019900FM-12+000399999V0200201N00411001501CN0160001N9-00391-00391099421ADDAY121999GF108991081071001501999999MW1021
0087029700999991954011106004+60117+019900FM-12+000399999V0200201N00211001501CN0160001N9-00391-00391099721ADDAA199000391AY121999GF108991081071001501999999IA1319KA1999N-00391MD1310191+9999MW1021
0057029700999991954011112004+60117+019900FM-12+000399999V0200201N00211001501CN0200001N9+99999+99999100091ADDAY111999GF106991061091001501999999MD1310121+9999MW1011
0076029700999991954011118004+60117+019900FM-12+000399999V0209991C00001220001CN0200001N9-01111-01111100421ADDAY111999GF104991041051002501999999IA1319KA1999M-00391MD1310191+9999MW1011
0078029700999991954011200004+60117+019900FM-12+000399999V0209991C00001001501CN0160001N9-01111-01391100461ADDAY111999GF108991081071001501999999MW1031EQDQ01+000032APCTENQ02+000002APC3  
0076029700999991954011206004+60117+019900FM-12+000399999V0202501N00721001501CN0160001N9-00391-00721100201ADDAY121999GF108991081071001501999999IA1319KA1999N-01781MD1810131+9999MW1021
0057029700999991954011212004+60117+019900FM-12+000399999V0202301N01131220001CN0160001N9-00221-00221100151ADDAY121999GF108991001001999999011999MD1810081+9999MW1021
0087029700999991954011218004+60117+019900FM-12+000399999V0202301N01031001501CN0160001N9-00221-00221099991ADDAA199000391AY121999GF108991081071001501999999IA1319KA1999M-00111MD1810041+9999MW1021
0078029700999991954011300004+60117+019900FM-12+000399999V0202301N00511001501CN0160001N9+00001-00111100191ADDAY121999GF108991081071001501999999MW1021EQDQ01+000042APCTENQ02+000112APC3  
0076029700999991954011306004+60117+019900FM-12+000399999V0202301N00511002401CN0160001N9+00001+00001100081ADDAY121999GF108991081051002501999999IA1009KA1999N-00221MD1810031+9999MW1021
0057029700999991954011312004+60117+019900FM-12+000399999V0202301N00411000601CN0010001N9+00001-00111100061ADDAY121999GF108991081071000751999999MD1810041+9999MW1461
0097029700999991954011318004+60117+019900FM-12+000399999V0202301N00311001501CN0160001N9+00221+00111099991ADDAY121999GF108991081071001501999999IA1209KA1999M+00221MW1021EQDQ01+000082APCTENQ02+000002APC3  
0057029700999991954011400004+60117+019900FM-12+000399999V0202001N00721001501CN0160001N9+00281+00281099811ADDAY121999GF108991081071001501999999MD1810111+9999MW1021
0076029700999991954011406004+60117+019900FM-12+000399999V0201801N00721001501CN0160001N9+00281+00111099571ADDAY121999GF108991081071001501999999IA1199KA1999N+00111MD1810121+9999MW1021
0057029700999991954011412004+60117+019900FM-12+000399999V0201801N00931001501CN0110001N9+00281+00111099361ADDAY121999GF108991081071001501999999MD1810151+9999MW1101
0087029700999991954011418004+60117+019900FM-12+000399999V0201801N01131000601CN0110001N9+00281+00111099041ADDAA199000691AY121999GF108991081071000751999999IA1199KA1999M+00391MD1810071+9999MW1601
0087029700999991954011506004+60117+019900FM-12+000399999V0201801N01231000601CN0110001N9+00221+00001098411ADDAA199001091AY161999GF108991081071000751999999IA1189KA1999N+00221MD1810211+9999MW1621
0057029700999991954011512004+60117+019900FM-12+000399999V0202001N01231001501CN0160001N9+00281+00221098261ADDAY121999GF108991081071001501999999MD1810041+9999MW1021
0076029700999991954011518004+60117+019900FM-12+000399999V0202001N01231220001CN0160001N9+00281+00111097971ADDAY111999GF105991001001999999071999IA1189KA1999M+00391MD1810241+9999MW1011
0076029700999991954011600004+60117+019900FM-12+000399999V0201601N01341000601CN0044001N9+00111+00111096821ADDAY121999GF108991081071000751999999MD1810682+9999MW1691EQDQ01+000682APC3  
0106029700999991954011606004+60117+019900FM-12+000399999V0201801N00411000601CN0160001N9+00281+00281095912ADDAA199007091AY121999GF108991081071000751999999IA1189KA1999N+00111MD1810011+9999MW1021EQDQ01+095913APOSLP
0078029700999991954011612004+60117+019900FM-12+000399999V0202901N00511000601CN0044001N9+00221+00221096001ADDAY161999GF108991081071000751999999MW1591EQDQ01+000042APCTENQ02+000172APC3  
0106029700999991954011618004+60117+019900FM-12+000399999V0203401N01031000601CN0160001N9+00001-00221097191ADDAA199001091AY121999GF108991081071000751999999IA1189KA1999M+00391MD1310672+9999MW1021EQDQ01+000672APC3  
0057029700999991954011700004+60117+019900FM-12+000399999V0203201N00511001501CN0160001N9+00001+00001097911ADDAY121999GF108991081071001501999999MD1310331+9999MW1021
0087029700999991954011706004+60117+019900FM-12+000399999V0203201N00101001501CN0110001N9+00001+00001098221ADDAA199000591AY171999GF108991081071001501999999IA1189KA1999N+00001MD1310121+9999MW1731
0057029700999991954011712004+60117+019900FM-12+000399999V0203201N00511001501CN0110001N9-00111-00111098861ADDAY171999GF108991081071001501999999MD1310401+9999MW1021
0076029700999991954011718004+60117+019900FM-12+000399999V0203201N00621001501CN0110001N9-00221-00221099551ADDAY121999GF108991081071001501999999IA1009KA1999M+00281MD1310411+9999MW1021
0076029700999991954011806004+60117+019900FM-12+000399999V0203401N00511220001CN0200001N9-00111-00111100791ADDAY111999GF101991011051008001001001IA1199KA1999N-00281MD1310351+9999MW1001
0057029700999991954011812004+60117+019900FM-12+000399999V0203201N00511007801CN0200001N9-00111-00111101181ADDAY111999GF105991051051008001001001MD1310191+9999MW1021
0076029700999991954011818004+60117+019900FM-12+000399999V0203201N00311220001CN0200001N9-00281-00501101541ADDAY111999GF100991001001999999001001IA1319KA1999M-00111MD1310171+9999MW1001
0057029700999991954011900004+60117+019900FM-12+000399999V0209991C00001220001CN0200001N9-00781-00781102011ADDAY101999GF100991001001999999001001MD1310271+9999MW1001
0076029700999991954011906004+60117+019900FM-12+000399999V0209991C00001220001CN0200001N9-01111-01111101861ADDAY101999GF100991001001999999001001IA1319KA1999N-01221MD1810191+9999MW1001
0057029700999991954011912004+60117+019900FM-12+000399999V0202301N00101220001CN0200001N9-00221-00221101481ADDAY111999GF107991001001999999021999MD1810131+9999MW1021
0076029700999991954011918004+60117+019900FM-12+000399999V0201801N00931001501CN0160001N9+00111+00001100691ADDAY121999GF108991081071001501999999IA1319KA1999M+00221MD1810441+9999MW1021
0087029700999991954012018004+60117+019900FM-12+000399999V0201401N00931000601CN0044001N9-00221-00221100741ADDAA199013091AY171999GF108991081071000751999999IA1199KA1999M+00221MD1310151+9999MW1711
0087029700999991954012106004+60117+019900FM-12+000399999V0201401N00931000601CN0024001N9-00391-00391101381ADDAA199007091AY171999GF108991081071000751999999IA1319KA1999N-00501MD1310431+9999MW1381
0087029700999991954012118004+60117+019900FM-12+000399999V0200901N00311002401CN0160001N9-00391-00391102001ADDAA199001091AY121999GF108991081051002501999999IA1319KA1999M-00221MD1310411+9999MW1021
0057029700999991954012200004+60117+019900FM-12+000399999V0209991C00001004501CN0200001N9-00391-00391102681ADDAY121999GF108991081051004501999999MD1310321+9999MW1021
0076029700999991954012206004+60117+019900FM-12+000399999V0209991C00001004501CN0200001N9-00391-00391103171ADDAY121999GF108991081051004501999999IA1319KA1999N-00501MD1310201+9999MW1021
0057029700999991954012212004+60117+019900FM-12+000399999V0200201N00311004501CN0200001N9-00501-00721103461ADDAY111999GF107991071051004501999999MD1310071+9999MW1021
0097029700999991954012218004+60117+019900FM-12+000399999V0209991C00001220001CN0200001N9-01221-01221103911ADDAY111999GF100991001001999999001001IA1319KA1999M-00281MW1001EQDQ01+000032APCTENQ02+000002APC3  
0057029700999991954012300004+60117+019900FM-12+000399999V0209991C00001220001CN0200001N9-01001-01001104081ADDAY101999GF100991001001999999001001MD1310111+9999MW1001
0097029700999991954012306004+60117+019900FM-12+000399999V0209991C00001220001CN0200001N9-01391-01611104111ADDAY101999GF104991041051004501001001IA1319KA1999N-01501MW1031EQDQ01+000032APCTENQ02+000002APC3  
0076029700999991954012312004+60117+019900FM-12+000399999V0203601N00101220001CN0200001N9-00501-00501104041ADDAY111999GF104991999001999999031001MD1990051+9999MW1031EQDQ01+000002SCOTLC
0076029700999991954012318004+60117+019900FM-12+000399999V0209991C00001007801CN0200001N9-00391-00391103941ADDAY121999GF108991081051008001999999IA1319KA1999M-00221MD1810051+9999MW1031
0076029700999991954012406004+60117+019900FM-12+000399999V0209991C00001001501CN0160001N9-00501-00501103781ADDAY121999GF108991081071001501999999IA1319KA1999N-01111MD1810171+9999MW1021
0057029700999991954012412004+60117+019900FM-12+000399999V0203601N00101002401CN0160001N9-00281-00281103741ADDAY121999GF108991081051002501999999MD1810031+9999MW1021
0076029700999991954012418004+60117+019900FM-12+000399999V0209991C00001220001CN0200001N9-01001-01111103601ADDAY101999GF100991001001999999001001IA1319KA1999M-00281MD1810081+9999MW1001
0057029700999991954012500004+60117+019900FM-12+000399999V0209991C00001002401CN0160001N9-00501-00501103551ADDAY121999GF108991081051002501999999MD1810051+9999MW1021
0076029700999991954012506004+60117+019900FM-12+000399999V0200501N00101002401CN0160001N9-00721-00721103481ADDAY121999GF108991081051002501999999IA1319KA1999N-00721MD1810051+9999MW1031
0078029700999991954012512004+60117+019900FM-12+000399999V0201401N00101004501CN0200001N9-00501-00611103581ADDAY111999GF106991061051004501999999MW1011EQDQ01+000032APCTENQ02+000002APC3  
0097029700999991954012518004+60117+019900FM-12+000399999V0200901N00101004501CN0200001N9-00611-00891103611ADDAY121999GF108991081051004501999999IA1319KA1999M-00501MW1021EQDQ01+000032APCTENQ02+000002APC3  
0057029700999991954012600004+60117+019900FM-12+000399999V0209991C00001002401CN0200001N9-00721-00891103661ADDAY121999GF108991081051002501999999MD1310041+9999MW1021
0097029700999991954012606004+60117+019900FM-12+000399999V0200201N00101002401CN0160001N9-00721-00721103661ADDAY121999GF108991081051002501999999IA1319KA1999N-00781MW1021EQDQ01+000032APCTENQ02+000002APC3  
0057029700999991954012612004+60117+019900FM-12+000399999V0200501N00101220001CN0200001N9-00891-00891103641ADDAY111999GF103991001001999999001021MD1990071+9999MW1011
0097029700999991954012618004+60117+019900FM-12+000399999V0209991C00001220001CN0200001N9-01501-01611103541ADDAY111999GF100991001001999999001001IA1319KA1999M-00611MW1001EQDQ01+000082APCTENQ02+000002APC3  
0057029700999991954012700004+60117+019900FM-12+000399999V0209991C00001220001CN0200001N9-01721-01721103261ADDAY101999GF100991001001999999001001MD1810211+9999MW1001
0076029700999991954012706004+60117+019900FM-12+000399999V0209991C00001002401CN0200001N9-00611-00611102961ADDAY111999GF108991081051002501999999IA1319KA1999N-01891MD1810111+9999MW1031
0076029700999991954012712004+60117+019900FM-12+000399999V0203601N00211220001CN0200001N9-00221-00221102591ADDAY111999GF106991999001999999071001MD1810131+9999MW1021EQDQ01+000002SCOTLC
0095029700999991954012718004+60117+019900FM-12+000399999V0203601N00411220001CN0200001N9-00221-00281102371ADDAY111999GF104991999001999999071001IA1319KA1999M-00221MD1810111+9999MW1011EQDQ01+000002SCOTLC
0057029700999991954012800004+60117+019900FM-12+000399999V0200501N00511001501CN0160001N9-00281-00391102201ADDAY121999GF108991081071001501999999MD1810071+9999MW1021
0076029700999991954012806004+60117+019900FM-12+000399999V0200501N00411220001CN0160001N9-00611-00721102351ADDAY111999GF102991021051004501001001IA1319KA1999N-00611MD1310081+9999MW1011
0057029700999991954012812004+60117+019900FM-12+000399999V0200501N00511004501CN0200001N9-00781-00781102591ADDAY111999GF105991051051004501001001MD1810151+9999MW1021
0076029700999991954012818004+60117+019900FM-12+000399999V0200701N00411004501CN0200001N9-01001-01001102611ADDAY121999GF108991051051004501999999IA1319KA1999M-00221MD1310031+9999MW1031
0057029700999991954012900004+60117+019900FM-12+000399999V0200501N00721002401CN0200001N9-01001-01001102411ADDAY111999GF107991071051002501999999MD1810131+9999MW1021
0076029700999991954012906004+60117+019900FM-12+000399999V0200501N00621002401CN0160001N9-01221-01221102311ADDAY111999GF107991071051002501999999IA1319KA1999N-01221MD1810031+9999MW1021
0078029700999991954012912004+60117+019900FM-12+000399999V0200501N00511002401CN0200001N9-01281-01501102311ADDAY111999GF107991071051002501999999MW1021EQDQ01+000082APCTENQ02+000002APC3  
0076029700999991954012918004+60117+019900FM-12+000399999V0200501N00621002401CN0200001N9-01281-01501102421ADDAY111999GF106991061051002501999999IA1319KA1999M-00891MD1310161+9999MW1031
0057029700999991954013000004+60117+019900FM-12+000399999V0200501N00411002401CN0200001N9-01501-01781102681ADDAY121999GF108991081051002501999999MD1310161+9999MW1021
0076029700999991954013006004+60117+019900FM-12+000399999V0200501N00211220001CN0200001N9-01721-01891102921ADDAY111999GF101991011051004501001001IA1319KA1999N-01781MD1310091+9999MW1011
0057029700999991954013012004+60117+019900FM-12+000399999V0200501N00311220001CN0200001N9-01391-01781103191ADDAY111999GF100991001001999999001001MD1310131+9999MW1001
0063029700999991954013018004+60117+019900FM-12+000399999V0209991C00001220001CN0200001N9-01611-01611103261ADDAY111999GF100991001001999999001001IA1319MD1310051+9999MW1001
0057029700999991954013100004+60117+019900FM-12+000399999V0209991C00001220001CN0160001N9-01781-02001103171ADDAY111999GF102991021051004501999999MD1990151+9999MW1031
0087029700999991954013106004+60117+019900FM-12+000399999V0203601N00211001501CN0044001N9-00281-00282102861ADDAA199001091AY151999GF108991081051001501999999IA1319KA1999N-01891MD1810201+9999MW1731
0078029700999991954013112004+60117+019900FM-12+000399999V0200501N00511002401CN0160001N9-00221-00281102951ADDAY171999GF108991081071002501999999MW1021EQDQ01+000042APCTENQ02+000132APC3  
0087029700999991954013118004+60117+019900FM-12+000399999V0200501N00411002401CN0160001N9-00221-00281103081ADDAA199000591AY121999GF108991081071002501999999IA1319KA1999M-00111MD1310051+9999MW1021
0057029700999991954020100004+60117+019900FM-12+000399999V0200501N00311002401CN0160001N9-00221-00281103351ADDAY121999GF108991081071002501999999MD1310131+9999MW1021
0076029700999991954020106004+60117+019900FM-12+000399999V0209991C00001004501CN0160001N9-00391-00391103391ADDAY121999GF108991081051004501999999IA1319KA1999N-00501MD1310011+9999MW1021
0078029700999991954020112004+60117+019900FM-12+000399999V0209991C00001007801CN0200001N9-00111-00281103491ADDAY121999GF108991081051008001999999MW1021EQDQ01+000032APCTENQ02+000002APC3  
0097029700999991954020118004+60117+019900FM-12+000399999V0209991C00001007801CN0200001N9-00281-00281103461ADDAY121999GF108991081051008001999999IA1319KA1999M-00111MW1021EQDQ01+000032APCTENQ02+000002APC3  
0078029700999991954020200004+60117+019900FM-12+000399999V0209991C00001002401CN0160001N9-00391-00391103571ADDAY121999GF108991081051002501999999MW1021EQDQ01+000032APCTENQ02+000002APC3  
0097029700999991954020206004+60117+019900FM-12+000399999V0209991C00001002401CN0160001N9-00391-00391103571ADDAY121999GF108991081051002501999999IA1319KA1999N-00501MW1021EQDQ01+000032APCTENQ02+000002APC3  
0078029700999991954020212004+60117+019900FM-12+000399999V0209991C00001004501CN0200001N9-00111-00221103571ADDAY121999GF107991071051004501999999MW1011EQDQ01+000032APCTENQ02+000002APC3  
0076029700999991954020218004+60117+019900FM-12+000399999V0202701N00101220001CN0200001N9-00221-00221103351ADDAY111999GF100991001001999999001001IA1319KA1999M-00111MD1810031+9999MW1001
0057029700999991954020300004+60117+019900FM-12+000399999V0202701N00311220001CN0200001N9-00391-00501103221ADDAY111999GF100991001001999999001001MD1810081+9999MW1001
0076029700999991954020306004+60117+019900FM-12+000399999V0202501N00821220001CN0200001N9-00391-00721102841ADDAY101999GF100991001001999999001001IA1319KA1999N-01001MD1010211+9999MW1001
0057029700999991954020312004+60117+019900FM-12+000399999V0202501N00931220001CN0200001N9-00281-00281102621ADDAY101999GF101991001001999999999999MD1810161+9999MW1031
0076029700999991954020318004+60117+019900FM-12+000399999V0202501N00511002401CN0200001N9-00281-00281102381ADDAY121999GF108991081051002501999999IA1319KA1999M-00281MD1810051+9999MW1031
0076029700999991954020406004+60117+019900FM-12+000399999V0202701N00211002401CN0160001N9-00221-00221102211ADDAY121999GF108991081051002501999999IA1319KA1999N-00891MD1010081+9999MW1021
0097029700999991954020418004+60117+019900FM-12+000399999V0209991C00001220001CN0200001N9-00111-00221102081ADDAY101999GF100991001001999999001001IA1319KA1999M+00391MW1001EQDQ01+000082APCTENQ02+000002APC3  
0097029700999991954020506004+60117+019900FM-12+000399999V0209991C00001002401CN0160001N9-00111-00111102151ADDAY121999GF108991081051002501999999IA1209KA1999N-00221MW1021EQDQ01+000082APCTENQ02+000002APC3  
0057029700999991954020512004+60117+019900FM-12+000399999V0209991C00001004501CN0160001N9+00221+00221102281ADDAY121999GF107991071051004501999999MD1310031+9999MW1021
0076029700999991954020518004+60117+019900FM-12+000399999V0209991C00001012301CN0160001N9+00111+00001102211ADDAY111999GF106991061051012501999999IA1209KA1999M+00221MD1810011+9999MW1021
0076029700999991954020606004+60117+019900FM-12+000399999V0202301N00721004501CN0160001N9-00111-00391101941ADDAY121999GF108991081051004501999999IA1209KA1999N-00221MD1810111+9999MW1021
0057029700999991954020612004+60117+019900FM-12+000399999V0202301N00721001501CN0160001N9-00111-00111101711ADDAY121999GF108991081071001501999999MD1810121+9999MW1021
0076029700999991954020618004+60117+019900FM-12+000399999V0202301N00821002401CN0160001N9-00221-00221101621ADDAY121999GF108991081071002501999999IA1209KA1999M+00111MD1810011+9999MW1021
0076029700999991954020706004+60117+019900FM-12+000399999V0202301N01031001501CN0160001N9+00001+00001101491ADDAY121999GF108991081071001501999999IA1209KA1999N-00221MD1810031+9999MW1021
0057029700999991954020712004+60117+019900FM-12+000399999V0201801N01031004501CN0200001N9-00111-00221101401ADDAY111999GF108991081051004501999999MD1810051+9999MW1021
0076029700999991954020718004+60117+019900FM-12+000399999V0202301N01031220001CN0200001N9-00111-00111101441ADDAY111999GF101991011051008001001001IA1209KA1999M+00111MD1310161+9999MW1011
0078029700999991954020800004+60117+019900FM-12+000399999V0202801N00931002401CN0160001N9+99999+99999101541ADDAY121999GF108991081051002501999999MW1021EQDQ01+000032APCTENQ02+000002APC3  
0097029700999991954020806004+60117+019900FM-12+000399999V0202301N00931002401CN0160001N9-00111-00111101511ADDAY121999GF108991081051002501999999IA1209KA1999N-00221MW1021EQDQ01+000032APCTENQ02+000002APC3  
0057029700999991954020812004+60117+019900FM-12+000399999V0201801N00621004501CN0200001N9-00111-00501101691ADDAY111999GF106991061051004501999999MD1310031+9999MW1011
0076029700999991954020818004+60117+019900FM-12+000399999V0201601N00721220001CN0200001N9-00281-00281101621ADDAY101999GF100991001001999999001001IA1209KA1999M+00001MD1810011+9999MW1001
0057029700999991954020900004+60117+019900FM-12+000399999V0201601N00821220001CN0200001N9-00281-00501101481ADDAY101999GF101991011051004501001001MD1810081+9999MW1031
0076029700999991954020906004+60117+019900FM-12+000399999V0201601N00931002401CN0160001N9-00221-00221101411ADDAY121999GF108991081051002501999999IA1209KA1999N-00391MD1310031+9999MW1021
0057029700999991954020912004+60117+019900FM-12+000399999V0201401N00721002401CN0160001N9-00281-00501101491ADDAY121999GF108991081071002501999999MD1310031+9999MW1021
0076029700999991954020918004+60117+019900FM-12+000399999V0201401N00621220001CN0200001N9-00281-00721101621ADDAY111999GF100991001001999999001001IA1209KA1999M-00221MD1310131+9999MW1001
0057029700999991954021000004+60117+019900FM-12+000399999V0201401N00721002401CN0160001N9-00221-00391101811ADDAY111999GF108991081051002501999999MD1310161+9999MW1031
0076029700999991954021006004+60117+019900FM-12+000399999V0201401N00511002401CN0160001N9-00391-00501101941ADDAY111999GF108991081051002501999999IA1209KA1999N-00391MD1310071+9999MW1031
0094029700999991954021012004+60117+019900FM-12+000399999V0201101N00411220001CN0200001N9-00281-00391102051ADDAY111999GF105991999001999999061001MW1011EQDQ01+000002SCOTLCQ02+000032APCTENQ03+000002APC3  
0076029700999991954021018004+60117+019900FM-12+000399999V0201101N00211004501CN0200001N9-00501-00501102061ADDAY111999GF106991061051004501999999IA1209KA1999M-00221MD1310051+9999MW1021
0078029700999991954021100004+60117+019900FM-12+000399999V0201101N00411002401CN0400001N9-00611-00781102091ADDAY121999GF107991071051002501999999MW1021EQDQ01+000032APCTENQ02+000002APC3  
0097029700999991954021106004+60117+019900FM-12+000399999V0201101N00311002401CN0110001N9-00721-00721102061ADDAY121999GF108991081071002501999999IA1209KA1999N-00781MW1701EQDQ01+000082APCTENQ02+000002APC3  
0078029700999991954021112004+60117+019900FM-12+000399999V0200901N00511001501CN0044001N9-00781-00781102011ADDAY171999GF108991081071001501999999MW1711EQDQ01+000082APCTENQ02+000002APC3  
0087029700999991954021118004+60117+019900FM-12+000399999V0200501N00721001501CN0110001N9-01001-01001102011ADDAA199001091AY171999GF108991081071001501999999IA1319KA1999M-00391MD1310051+9999MW1701
0057029700999991954021200004+60117+019900FM-12+000399999V0209991C00001002401CN0160001N9-01001-01001101941ADDAY121999GF108991081051002501999999MD1810041+9999MW1021
0076029700999991954021206004+60117+019900FM-12+000399999V0200501N00311220001CN0110001N9-01281-01281101791ADDAY111999GF107991001001999999021999IA1319KA1999N-01501MD1810091+9999MW1031
0113029700999991954021218004+60117+019900FM-12+000399999V0209991C00001220001CN0200001N9-01721-01721101741ADDAY111999GF102991999001999999041001IA1319KA1999M-00891MW1021EQDQ01+000002SCOTLCQ02+000082APCTENQ03+000002APC3  
0057029700999991954021300004+60117+019900FM-12+000399999V0209991C00001002401CN0160001N9-01391-01391101721ADDAY111999GF108991081051002501999999MD1810031+9999MW1031
0097029700999991954021306004+60117+019900FM-12+000399999V0209991C00001002401CN0110001N9-01111-01111101651ADDAY121999GF108991081051002501999999IA1319KA1999N-01781MW1101EQDQ01+000082APCTENQ02+000002APC3  
0078029700999991954021312004+60117+019900FM-12+000399999V0209991C00001002401CN0110001N9-00721-00721101601ADDAY121999GF108991081051002501999999MW1781EQDQ01+000082APCTENQ02+000002APC3  
0087029700999991954021318004+60117+019900FM-12+000399999V0209991C00001002401CN0110001N9-00781-00781101551ADDAA199000591AY121999GF108991081051002501999999IA1319KA1999M-00721MD1810011+9999MW1021
0106029700999991954021406004+60117+019900FM-12+000399999V0209991C00001002401CN0110001N9-00721-00721102061ADDAA199002091AY121999GF108991999051002501051071IA1319KA1999N-00781MD1310051+9999MW1781EQDQ01+000082SCOTLC
0057029700999991954021412004+60117+019900FM-12+000399999V0209991C00001001501CN0044001N9-00611-00611102191ADDAY171999GF108991081071001501999999MD1310051+9999MW1731
0087029700999991954021418004+60117+019900FM-12+000399999V0209991C00001220001CN0200001N9-01611-01611102341ADDAA199000391AY111999GF100991001001999999001001IA1319KA1999M-00611MD1310081+9999MW1121
0057029700999991954021500004+60117+019900FM-12+000399999V0209991C00001002401CN0160001N9-00721-00721102491ADDAY121999GF108991081051002501999999MD1310091+9999MW1031
0063029700999991954021506004+60117+019900FM-12+000399999V0209991C00001002401CN0160001N9-01111-01111102681ADDAY121999GF108991081051002501999999IA1319MD1310091+9999MW1021
0049029700999991954021512004+60117+019900FM-12+000399999V0200501N00101220001CN0200001N9-01001-01501102921ADDGF102991021051004501001001MD1310031+9999MW1011
0076029700999991954021518004+60117+019900FM-12+000399999V0209991C00001220001CN0200001N9-01721-01721103041ADDAY101999GF100991001001999999001001IA1319KA1999M-00781MD1310081+9999MW1001
0057029700999991954021600004+60117+019900FM-12+000399999V0209991C00001002401CN0160001N9-01501-01501103211ADDAY111999GF108991081051002501999999MD1310051+9999MW1031
0097029700999991954021606004+60117+019900FM-12+000399999V0209991C00001002401CN0160001N9-01501-01501103221ADDAY121999GF107991071051002501999999IA1319KA1999N-02221MW1021EQDQ01+000032APCTENQ02+000002APC3  
0078029700999991954021612004+60117+019900FM-12+000399999V0209991C00001004501CN0200001N9-00721-00891103241ADDAY121999GF107991071051004501999999MW1781EQDQ01+000032APCTENQ02+000002APC3  
0087029700999991954021618004+60117+019900FM-12+000399999V0209991C00001002401CN0160001N9-00781-00781103211ADDAA199000591AY121999GF108991081051002501999999IA1319KA1999M-00611MD1810011+9999MW1021
0057029700999991954021700004+60117+019900FM-12+000399999V0209991C00001220001CN0200001N9-01221-01221103351ADDAY111999GF106991001001999999051999MD1310031+9999MW1011
0097029700999991954021706004+60117+019900FM-12+000399999V0209991C00001002401CN0160001N9-00891-00891103351ADDAY121999GF108991081051002501999999IA1319KA1999N-01501MW1021EQDQ01+000032APCTENQ02+000002APC3  
0094029700999991954021712004+60117+019900FM-12+000399999V0209991C00001220001CN0200001N9-00391-00781103361ADDAY111999GF104991999001999999041001MW1011EQDQ01+000002SCOTLCQ02+000032APCTENQ03+000002APC3  
0095029700999991954021718004+60117+019900FM-12+000399999V0209991C00001220001CN0200001N9-01111-01111103201ADDAY111999GF102991999001999999041001IA1319KA1999M-00391MD1810071+9999MW1011EQDQ01+000002SCOTLC
0097029700999991954021806004+60117+019900FM-12+000399999V0209991C00001220001CN0200001N9-01611-01611103211ADDAY101999GF100991001001999999001001IA1319KA1999N-01721MW1001EQDQ01+000032APCTENQ02+000002APC3  
0057029700999991954021812004+60117+019900FM-12+000399999V0200901N00101220001CN0200001N9-01221-01391103391ADDAY101999GF100991001001999999001001MD1310091+9999MW1001
0076029700999991954021818004+60117+019900FM-12+000399999V0209991C00001220001CN0200001N9-01721-01721103441ADDAY101999GF100991001001999999001001IA1319KA1999M-01111MD1310051+9999MW1001
0095029700999991954021906004+60117+019900FM-12+000399999V0209991C00001220001CN0200001N9-02001-02001103451ADDAY101999GF102991999001999999041001IA1319KA1999N-02281MD1810071+9999MW1031EQDQ01+000002SCOTLC
0076029700999991954021912004+60117+019900FM-12+000399999V0209991C00001220001CN0200001N9-00721-00891103411ADDAY111999GF102991999001999999061001MD1810041+9999MW1031EQDQ01+000002SCOTLC
0097029700999991954021918004+60117+019900FM-12+000399999V0209991C00001220001CN0200001N9-01721-01721103291ADDAY111999GF100991001001999999001001IA1319KA1999M-00611MW1001EQDQ01+000082APCTENQ02+000002APC3  
0097029700999991954022006004+60117+019900FM-12+000399999V0209991C00001220001CN0200001N9-01891-01891103321ADDAY101999GF102991021051004501001001IA1319KA1999N-02281MW1031EQDQ01+000032APCTENQ02+000002APC3  
0078029700999991954022012004+60117+019900FM-12+000399999V0202301N00101004501CN0200001N9-00611-01001103391ADDAY111999GF106991061051004501001001MW1011EQDQ01+000032APCTENQ02+000002APC3  
0076029700999991954022018004+60117+019900FM-12+000399999V0209991C00001220001CN0200001N9-01501-01501103391ADDAY101999GF100991001001999999001001IA1319KA1999M-00611MD1310041+9999MW1001
0057029700999991954022100004+60117+019900FM-12+000399999V0209991C00001220001CN0200001N9-01891-01891103351ADDAY101999GF100991001001999999001001MD1810091+9999MW1001
0076029700999991954022106004+60117+019900FM-12+000399999V0209991C00001220001CN0200001N9-01891-01891103221ADDAY101999GF100991001001999999001001IA1319KA1999N-02111MD1810111+9999MW1001
0057029700999991954022112004+60117+019900FM-12+000399999V0202501N00101220001CN0200001N9-00611-00781103261ADDAY111999GF106991001001999999041999MD1310051+9999MW1021
0095029700999991954022118004+60117+019900FM-12+000399999V0202501N00101220001CN0200001N9-01221-01221103191ADDAY111999GF101991999001999999041001IA1319KA1999M-00611MD1810031+9999MW1011EQDQ01+000002SCOTLC
0078029700999991954022200004+60117+019900FM-12+000399999V0209991C00001220001CN0200001N9-01611-01611103211ADDAY101999GF100991001001999999001001MW1001EQDQ01+000082APCTENQ02+000002APC3  
0076029700999991954022206004+60117+019900FM-12+000399999V0209991C00001220001CN0200001N9-01891-01891103091ADDAY101999GF100991001001999999001001IA1319KA1999N-02001MD1810091+9999MW1001
0057029700999991954022212004+60117+019900FM-12+000399999V0202501N00101220001CN0200001N9-00611-00781103261ADDAY101999GF102991001001999999001021MD1310071+9999MW1031
0095029700999991954022218004+60117+019900FM-12+000399999V0209991C00001220001CN0200001N9-01221-01221103281ADDAY111999GF103991999001999999041001IA1319KA1999M-00611MD1310071+9999MW1021EQDQ01+000002SCOTLC
0097029700999991954022306004+60117+019900FM-12+000399999V0201601N00101002401CN0160001N9-00501-00501103321ADDAY121999GF108991081051002501999999IA1319KA1999N-01501MW1021EQDQ01+000082APCTENQ02+000002APC3  
0108029700999991954022318004+60117+019900FM-12+000399999V0201801N00411001501CN0044001N9-00501-00501103291ADDAA199002091AY121999GF108991081071001501999999IA1319KA1999M-00281MW1021EQDQ01+000082APCTENQ02+000002APC3  
0057029700999991954022400004+60117+019900FM-12+000399999V0201601N00511002401CN0160001N9-00501-00501103081ADDAY121999GF108991081051002501999999MD1810151+9999MW1021
0076029700999991954022406004+60117+019900FM-12+000399999V0201701N00511002401CN0160001N9-00501-00781102951ADDAY121999GF108991081051002501999999IA1319KA1999N-00721MD1810051+9999MW1021
0057029700999991954022412004+60117+019900FM-12+000399999V0201801N00511001501CN0044001N9-00501-00611102891ADDAY171999GF108991081071001501999999MD1810031+9999MW1721
0076029700999991954022506004+60117+019900FM-12+000399999V0201601N00511002401CN0160001N9-00611-00721102251ADDAY121999GF108991081051002501999999IA1319KA1999N-01001MD1810161+9999MW1021
0057029700999991954022512004+60117+019900FM-12+000399999V0201401N00721001501CN0044001N9-00721-00721102021ADDAY171999GF108991081071001501999999MD1810161+9999MW1731
0087029700999991954022518004+60117+019900FM-12+000399999V0201401N00621001501CN0044001N9-00891-00891101941ADDAA199001091AY171999GF108991081071001501999999IA1319KA1999M-00611MD1810011+9999MW1711
0057029700999991954022600004+60117+019900FM-12+000399999V0201401N00511001501CN0110001N9-00721-00721101441ADDAY171999GF108991081071001501999999MD1810171+9999MW1701
0087029700999991954022606004+60117+019900FM-12+000399999V0201401N00721001501CN0110001N9-00781-00781101081ADDAA199000591AY121999GF108991081071001501999999IA1319KA1999N-01001MD1810131+9999MW1101
0043029700999991954022612004+60117+019900FM-12+000399999V0200901N00821002401CN0110001N9-00781-00781100811ADDAY121999GF108991081071002501999999MW1021
0087029700999991954022618004+60117+019900FM-12+000399999V0201401N00931002401CN0044001N9-00721-00721100751ADDAA199000391AY171999GF108991081071002501999999IA1319KA1999M-00721MD1310051+9999MW1711
0057029700999991954022700004+60117+019900FM-12+000399999V0201401N00931001501CN0110001N9-00611-00611100651ADDAY171999GF108991081071001501999999MD1810011+9999MW1711
0087029700999991954022706004+60117+019900FM-12+000399999V0201401N00721001501CN0044001N9-00721-00721100721ADDAA199005091AY171999GF108991081071001501999999IA1319KA1999N-00781MD1310051+9999MW1731
0057029700999991954022712004+60117+019900FM-12+000399999V0200901N00621001501CN0044001N9-00781-00781100861ADDAY171999GF108991081071001501999999MD1310051+9999MW1731
0057029700999991954022800004+60117+019900FM-12+000399999V0200901N00411002401CN0160001N9-01001-01001100861ADDAY121999GF108991081071002501999999MD1990091+9999MW1021
0087029700999991954022806004+60117+019900FM-12+000399999V0200901N00511002401CN0110001N9-00891-00891100711ADDAA199001091AY121999GF108991081071002501999999IA1319KA1999N-01111MD1810051+9999MW1021
0078029700999991954022812004+60117+019900FM-12+000399999V0201101N00311001501CN0110001N9-00501-00501100661ADDAY121999GF108991081071001501999999MW1101EQDQ01+000082APCTENQ02+000002APC3  
0087029700999991954030106004+60117+019900FM-12+000399999V0201401N00411001501CN0024001N9-00281-00281100481ADDAA199000591AY171999GF108991081071001501999999IA1319KA1999N-00611MD1810011+9999MW1751
0078029700999991954030112004+60117+019900FM-12+000399999V0201401N00311001501CN0044001N9-00111-00111100481ADDAY171999GF108991081071001501999999MW1711EQDQ01+000082APCTENQ02+000002APC3  
0106029700999991954030118004+60117+019900FM-12+000399999V0201101N00511000601CN0010001N9-00111-00111100341ADDAA199003091AY141999GF108991999071000751011999IA1319KA1999M-00111MD1810151+9999MW1461EQDQ01+000082SCOTLC
0087029700999991954030206004+60117+019900FM-12+000399999V0209991C00001001501CN0024001N9-00221-00221099411ADDAA199003091AY171999GF108991081071001501999999IA1319KA1999N-00281MD1810241+9999MW1731
0078029700999991954030212004+60117+019900FM-12+000399999V0202001N00821001501CN0110001N9+00001+00001099541ADDAY121999GF108991081071001501999999MW1101EQDQ01+000042APCTENQ02+000092APC3  
0087029700999991954030306004+60117+019900FM-12+000399999V0201601N00411001501CN0160001N9-00111-00111099851ADDAA199001091AY121999GF108991081071001501999999IA1319KA1999N-00281MD1810081+9999MW1021
0043029700999991954030312004+60117+019900FM-12+000399999V0201601N00621000601CN0010001N9-00111-00111099361ADDAY171999GF108991081071000751999999MW1731
0087029700999991954030318004+60117+019900FM-12+000399999V0201601N00311001501CN0044001N9+00001+00001099141ADDAA199007091AY121999GF108991081071001501999999IA1319KA1999M+00111MD1310161+9999MW1101
0076029700999991954030406004+60117+019900FM-12+000399999V0209991C00001001501CN0160001N9-00221-00221099811ADDAY121999GF108991081071001501999999IA1319KA1999N-00281MD1310071+9999MW1021
0057029700999991954030412004+60117+019900FM-12+000399999V0200901N00211000601CN0160001N9+00001+00001099781ADDAY121999GF107991051071000751021999MD1990071+9999MW1011
0076029700999991954030418004+60117+019900FM-12+000399999V0201101N00411000601CN0010001N9+00111+00111099541ADDAY141999GF108991081071000751999999IA1319KA1999M+00111MD1810071+9999MW1441
0076029700999991954030506004+60117+019900FM-12+000399999V0209991C00001000151CN0010001N9+00001+00001099221ADDAY141999GF109991091999000251999999IA1209KA1999N+00001MD1810081+9999MW1471
0076029700999991954030518004+60117+019900FM-12+000399999V0209991C00001000601CN0010001N9+00111+00111099641ADDAY141999GF108991081071000751999999IA1209KA1999M+00221MD1310121+9999MW1441
0057029700999991954030600004+60117+019900FM-12+000399999V0200901N00211001501CN0110001N9+00001+00001099421ADDAY161999GF108991081071001501999999MD1990231+9999MW1691
0087029700999991954030606004+60117+019900FM-12+000399999V0200901N00721000151CN0010001N9+00111+00111098811ADDAA199010091AY161999GF109991091999000251999999IA1209KA1999N+00001MD1810271+9999MW1691
0106029700999991954030618004+60117+019900FM-12+000399999V0202301N009319999999N0160001N9+00111+00111100051ADDAA199003091AY121999GF108991081051999999999999IA1209KA1999M+00221MD1310672+9999MW1021EQDQ01+000672APC3  
0057029700999991954030700004+60117+019900FM-12+000399999V0202301N00621001501CN0110001N9+00111+00111100661ADDAY121999GF108991081051001501999999MD1310211+9999MW1021
0097029700999991954030706004+60117+019900FM-12+000399999V0201801N00151000151CN0004001N9+00001+00001100861ADDAY141999GF109991091999000251999999IA1209KA1999N+00001MW1471EQDQ01+000032APCTENQ02+000002APC3  
0057029700999991954030712004+60117+019900FM-12+000399999V0201801N00411000151CN0010001N9+00111+00111101011ADDAY141999GF109991091011000251999999MD1310071+9999MW1451
0076029700999991954030718004+60117+019900FM-12+000399999V0201801N00621002401CN0110001N9+00111+00111101151ADDAY121999GF108991081051002501999999IA1209KA1999M+00221MD1310091+9999MW1021
0076029700999991954030806004+60117+019900FM-12+000399999V0201801N01031001501CN0110001N9+00111+00111100981ADDAY121999GF108991081071001501999999IA1209KA1999N-00111MD1810051+9999MW1021
0078029700999991954030812004+60117+019900FM-12+000399999V0201801N01031001501CN0024001N9+00111+00111100951ADDAY141999GF108991081071001501999999MW1741EQDQ01+000082APCTENQ02+000002APC3  
0087029700999991954030818004+60117+019900FM-12+000399999V0201601N00931001501CN0044001N9+00111+00111101061ADDAA199002091AY171999GF108991081071001501999999IA1209KA1999M+00221MD1310171+9999MW1681
0057029700999991954030900004+60117+019900FM-12+000399999V0201801N00721001501CN0110001N9+00111+00111101321ADDAY121999GF108991081071001501999999MD1310111+9999MW1101
0087029700999991954030906004+60117+019900FM-12+000399999V0201801N00721001501CN0044001N9+00111+00111101461ADDAA199002091AY121999GF108991081071001501999999IA1209KA1999N+00001MD1310081+9999MW1101
0076029700999991954030918004+60117+019900FM-12+000399999V0201801N00311000151CN0004001N9+00111+00111102011ADDAY141999GF109991091999000251999999IA1209KA1999M+00221MD1310161+9999MW1451
0078029700999991954031000004+60117+019900FM-12+000399999V0201801N00411001501CN0110001N9+00111+00111102111ADDAY121999GF108991081071001501999999MW1101EQDQ01+000032APCTENQ02+000002APC3  
0076029700999991954031006004+60117+019900FM-12+000399999V0202001N00511000151CN0010001N9+00001+00001102141ADDAY141999GF109991091999000251999999IA1199KA1999N+00001MD1310011+9999MW1451
0078029700999991954031012004+60117+019900FM-12+000399999V0202001N00411000151CN0010001N9+00001+00001102161ADDAY141999GF109991091999000251999999MW1451EQDQ01+000032APCTENQ02+000002APC3  
0076029700999991954031018004+60117+019900FM-12+000399999V0201801N00411000151CN0010001N9+00001+00001102171ADDAY141999GF109991091999000251999999IA1199KA1999M+00221MD1310031+9999MW1451
0078029700999991954031100004+60117+019900FM-12+000399999V0202301N00511000151CN0010001N9+00001+00001102201ADDAY141999GF109991091999000251999999MW1451EQDQ01+000032APCTENQ02+000002APC3  
0097029700999991954031106004+60117+019900FM-12+000399999V0202001N00411001501CN0110001N9+00001+00001102201ADDAY121999GF108991081071001501999999IA1199KA1999N-00111MW1701EQDQ01+000032APCTENQ02+000002APC3  
0057029700999991954031112004+60117+019900FM-12+000399999V0202301N00311001501CN0160001N9+00001+00001102261ADDAY121999GF108991081071001501999999MD1310011+9999MW1021
0087029700999991954031118004+60117+019900FM-12+000399999V0202301N00411001501CN0160001N9+00001+00001102291ADDAA199000691AY121999GF108991081071001501999999IA1199KA1999M+00111MD1310111+9999MW1021
0078029700999991954031200004+60117+019900FM-12+000399999V0202301N00621002401CN0160001N9+00001+00001102341ADDAY121999GF108991081051002501999999MW1021EQDQ01+000032APCTENQ02+000002APC3  
0076029700999991954031206004+60117+019900FM-12+000399999V0202301N00511000151CN0010001N9-00111-00111102211ADDAY141999GF109991091999000251999999IA1199KA1999N-00111MD1810051+9999MW1471
0078029700999991954031212004+60117+019900FM-12+000399999V0202301N00511000151CN0010001N9+00001+00001102201ADDAY141999GF109991091999000251999999MW1451EQDQ01+000082APCTENQ02+000002APC3  
0076029700999991954031218004+60117+019900FM-12+000399999V0202701N00101001501CN0110001N9+00001+00001102221ADDAY121999GF108991081071001501999999IA1199KA1999M+00001MD1310091+9999MW1101
0057029700999991954031300004+60117+019900FM-12+000399999V0202701N00311220001CN0160001N9+00001+00001102261ADDAY111999GF100991001001999999001001MD1310171+9999MW1001
0076029700999991954031306004+60117+019900FM-12+000399999V0200501N00721220001CN0200001N9-00281-00281103171ADDAY101999GF100991001001999999001001IA1199KA1999N-00281MD1310211+9999MW1001
0057029700999991954031312004+60117+019900FM-12+000399999V0200701N00511220001CN0200001N9+00001+00001103621ADDAY111999GF103991001001999999001021MD1310111+9999MW1031
0076029700999991954031318004+60117+019900FM-12+000399999V0209991C00001220001CN0200001N9-00391-00611103551ADDAY111999GF106991001001999999041999IA1199KA1999M+00111MD1310031+9999MW1031
0057029700999991954031400004+60117+019900FM-12+000399999V0209991C00001220001CN0200001N9-00281-00281103291ADDAY101999GF100991001001999999001001MD1810191+9999MW1001
0095029700999991954031406004+60117+019900FM-12+000399999V0202301N00721220001CN0200001N9-00281-00281102891ADDAY111999GF102991999001999999041001IA1199KA1999N-00781MD1810191+9999MW1031EQDQ01+000002SCOTLC
0057029700999991954031412004+60117+019900FM-12+000399999V0202301N00821030001CN0200001N9+00001+00001102561ADDAY111999GF105991021071004501051999MD1810081+9999MW1011
0076029700999991954031418004+60117+019900FM-12+000399999V0202301N00621002401CN0200001N9-00111-00111102201ADDAY121999GF108991081051002501999999IA1199KA1999M+00111MD1810151+9999MW1031
0076029700999991954031506004+60117+019900FM-12+000399999V0202701N00051012301CN0160001N9-00111-00111101461ADDAY111999GF106991061051012501999999IA1199KA1999N-00281MD1810191+9999MW1021
0076029700999991954031512004+60117+019900FM-12+000399999V0202701N00511220001CN0200001N9+00281+00281101221ADDAY111999GF105991999001999999041001MD1810161+9999MW1021EQDQ01+000002SCOTLC
0095029700999991954031518004+60117+019900FM-12+000399999V0202701N00721220001CN0200001N9+00281+00111100821ADDAY111999GF103991999001999999041001IA1199KA1999M+00611MD1810131+9999MW1031EQDQ01+000002SCOTLC
0057029700999991954031600004+60117+019900FM-12+000399999V0203201N00821220001CN0160001N9+00391+00391100511ADDAY111999GF106991001001999999051999MD1810171+9999MW1031
0057029700999991954031612004+60117+019900FM-12+000399999V0203401N01031220001CN0200001N9+00281+00001100691ADDAY111999GF103991011011008001061001MD1310111+9999MW1011
0095029700999991954031618004+60117+019900FM-12+000399999V0203401N00311220001CN0200001N9-00111-00221101041ADDAY111999GF102991999001999999041001IA1199KA1999M+00501MD1310161+9999MW1011EQDQ01+000002SCOTLC
0057029700999991954031700004+60117+019900FM-12+000399999V0209991C00001220001CN0200001N9-00281-00281101291ADDAY101999GF100991001001999999001001MD1310051+9999MW1001
0097029700999991954031706004+60117+019900FM-12+000399999V0209991C00001220001CN0200001N9-00611-00611101311ADDAY101999GF100991001001999999001001IA1199KA1999N-00721MW1001EQDQ01+000032APCTENQ02+000002APC3  
0095029700999991954031718004+60117+019900FM-12+000399999V0200201N00311220001CN0200001N9-00391-00501101541ADDAY111999GF103991999001999999041001IA1199KA1999M+00111MD1010011+9999MW1011EQDQ01+000002SCOTLC
0057029700999991954031800004+60117+019900FM-12+000399999V0201401N00411001501CN0110001N9-00391-00391101191ADDAY121999GF108991081071001501999999MD1810241+9999MW1701
0087029700999991954031806004+60117+019900FM-12+000399999V0202501N00821001501CN0010001N9-00111-00111100601ADDAA199002091AY171999GF108991081071001501999999IA1199KA1999N-00721MD1810211+9999MW1751
0057029700999991954031812004+60117+019900FM-12+000399999V0202701N00411002401CN0200001N9+00221+00221100381ADDAY111999GF106991061051002501999999MD1810081+9999MW1011
0063029700999991954031818004+60117+019900FM-12+000399999V0203601N00311000601CN0010001N9+00001+00001100441ADDAY171999GF108991081071000751999999IA1209MD1310071+9999MW1751
0076029700999991954031906004+60117+019900FM-12+000399999V0200201N00211220001CN0200001N9-01001-01001101941ADDAY101999GF100991001001999999001001IA1209KA1999N-01001MD1310271+9999MW1001
0057029700999991954031912004+60117+019900FM-12+000399999V0201801N00101220001CN0200001N9-00111-00221102351ADDAY101999GF100991001001999999001001MD1310151+9999MW1001
0076029700999991954031918004+60117+019900FM-12+000399999V0201801N00311220001CN0200001N9-00721-01001102341ADDAY111999GF101991001001999999041061IA1209KA1999M+00001MD1810081+9999MW1011
0057029700999991954032000004+60117+019900FM-12+000399999V0202301N00721220001CN0200001N9-00281-00281102221ADDAY111999GF100991001001999999001001MD1810041+9999MW1001
0076029700999991954032006004+60117+019900FM-12+000399999V0202701N00511220001CN0200001N9-00281-00281102111ADDAY111999GF105991001001999999041021IA1209KA1999N-00781MD1810051+9999MW1031
0078029700999991954032012004+60117+019900FM-12+000399999V0202301N00821220001CN0200001N9+00111+00111102111ADDAY111999GF106991001001999999001021MW1021EQDQ01+000082APCTENQ02+000002APC3  
0097029700999991954032018004+60117+019900FM-12+000399999V0202301N00931220001CN0200001N9-00111-00111102051ADDAY111999GF101991001001999999001021IA1209KA1999M+00221MW1011EQDQ01+000082APCTENQ02+000002APC3  
0076029700999991954032106004+60117+019900FM-12+000399999V0202301N00721220001CN0200001N9-00111-00111101951ADDAY101999GF100991001001999999001001IA1209KA1999N-00221MD1810121+9999MW1001
0076029700999991954032118004+60117+019900FM-12+000399999V0202001N00931220001CN0200001N9+00111+00111101411ADDAY121999GF108991001001999999041999IA1199KA1999M+00281MD1810211+9999MW1031
0057029700999991954032200004+60117+019900FM-12+000399999V0201801N00721001501CN0110001N9+00111+00111101061ADDAY121999GF108991081071001501999999MD1810231+9999MW1021
0108029700999991954032206004+60117+019900FM-12+000399999V0202001N00511000151CN0010001N9+00111+00111100991ADDAA199001091AY141999GF109991091999000251999999IA1199KA1999N+00001MW1471EQDQ01+000082APCTENQ02+000002APC3  
0057029700999991954032212004+60117+019900FM-12+000399999V0202301N00511000151CN0018001N9+00221+00111100921ADDAY141999GF109991091999000251999999MD1710111+9999MW1431
0087029700999991954032218004+60117+019900FM-12+000399999V0202301N00931001501CN0110001N9+00281+00221100711ADDAA199000391AY121999GF108991081071001501999999IA1199KA1999M+00281MD1810071+9999MW1021
0057029700999991954032300004+60117+019900FM-12+000399999V0202301N00511001501CN0110001N9+00221+00221100721ADDAY121999GF108991081071001501999999MD1990041+9999MW1021
0076029700999991954032306004+60117+019900FM-12+000399999V0202301N00721000151CN0010001N9+00221+00221100691ADDAY141999GF109991091999000251999999IA1199KA1999N+00221MD1810011+9999MW1451
0057029700999991954032312004+60117+019900FM-12+000399999V0202301N00511220001CN0024001N9+00611+00281100821ADDAY141999GF106991001001999999051999MD1310041+9999MW1101
0076029700999991954032318004+60117+019900FM-12+000399999V0202301N00411220001CN0044001N9+00221+00221100771ADDAY111999GF106991001001999999041999IA1199KA1999M+00611MD1810041+9999MW1101
0078029700999991954032400004+60117+019900FM-12+000399999V0202301N00721220001CN0160001N9+00221+00221100751ADDAY101999GF100991001001999999001001MW1001EQDQ01+000082APCTENQ02+000002APC3  
0095029700999991954032406004+60117+019900FM-12+000399999V0202001N00411220001CN0110001N9+00221+00001100611ADDAY111999GF103991999001999999051001IA1199KA1999N+00111MD1810071+9999MW1101EQDQ01+000002SCOTLC
0076029700999991954032412004+60117+019900FM-12+000399999V0203401N00621220001CN0200001N9+00391+00281100721ADDAY111999GF105991999001999999051001MD1310041+9999MW1031EQDQ01+000002SCOTLC
0076029700999991954032418004+60117+019900FM-12+000399999V0200201N00931220001CN0200001N9-00111-00221101001ADDAY121999GF108991001001999999071999IA1199KA1999M+00781MD1310121+9999MW1021
0076029700999991954032506004+60117+019900FM-12+000399999V0200201N00511220001CN0200001N9-00391-00391101291ADDAY101999GF102991001001999999041021IA1199KA1999N-00391MD1310111+9999MW1031
0057029700999991954032512004+60117+019900FM-12+000399999V0200901N00411220001CN0200001N9+00111+00111101341ADDAY111999GF104991001001999999051021MD1990041+9999MW1021
0076029700999991954032518004+60117+019900FM-12+000399999V0200201N00101220001CN0200001N9-00111-00111101221ADDAY111999GF108991001001999999071999IA1189KA1999M+00221MD1810031+9999MW1031
0057029700999991954032600004+60117+019900FM-12+000399999V0201401N00311220001CN0110001N9-00111-00221101081ADDAY121999GF108991001001999999071999MD1810131+9999MW1701
0087029700999991954032606004+60117+019900FM-12+000399999V0200501N00311002401CN0160001N9-00221-00221100961ADDAA199000391AY121999GF108991081071002501999999IA1189KA1999N-00281MD1810051+9999MW1021
0078029700999991954032612004+60117+019900FM-12+000399999V0200501N00411002401CN0200001N9+00001-00111100861ADDAY121999GF108991081071002501999999MW1021EQDQ01+000082APCTENQ02+000002APC3  
0087029700999991954032618004+60117+019900FM-12+000399999V0200501N00211002401CN0110001N9-00111-00111100841ADDAA199000591AY121999GF108991081071002501999999IA1209KA1999M+00001MD1310041+9999MW1701
0087029700999991954032706004+60117+019900FM-12+000399999V0209991C00001220001CN0200001N9-00281-00281100741ADDAA199000691AY121999GF104991011071002501041021IA1189KA1999N-00391MD1810031+9999MW1011
0057029700999991954032712004+60117+019900FM-12+000399999V0202001N00211030001CN0200001N9+00111-00111100771ADDAY111999GF106991011071002501021021MD1810031+9999MW1021
0097029700999991954032718004+60117+019900FM-12+000399999V0201801N00101004501CN0160001N9+00001+00001100691ADDAY121999GF108991081051004501999999IA1189KA1999M+00221MW1021EQDQ01+000082APCTENQ02+000002APC3  
0078029700999991954032800004+60117+019900FM-12+000399999V0209991C00001002401CN0110001N9+00001+00001100691ADDAY121999GF108991081071002501999999MW1021EQDQ01+000082APCTENQ02+000002APC3  
0087029700999991954032806004+60117+019900FM-12+000399999V0209991C00001002401CN0024001N9+00001+00001100791ADDAA199000591AY171999GF108991081071002501999999IA1199KA1999N-00111MD1310081+9999MW1731
0057029700999991954032812004+60117+019900FM-12+000399999V0209991C00001000601CN0044001N9+00111+00111100881ADDAY121999GF108991081071000751999999MD1310081+9999MW1101
0087029700999991954032818004+60117+019900FM-12+000399999V0200501N00211000601CN0004001N9+00001+00001101051ADDAA199005091AY171999GF108991081071000751999999IA1199KA1999M+00281MD1310151+9999MW1681
0076029700999991954032906004+60117+019900FM-12+000399999V0201801N00621001501CN0160001N9-00111-00221101401ADDAY121999GF108991081071001501999999IA1199KA1999N-00221MD1310111+9999MW1021
0078029700999991954032912004+60117+019900FM-12+000399999V0203401N00621001501CN0160001N9+00001+00001101481ADDAY121999GF108991081071001501999999MW1021EQDQ01+000032APCTENQ02+000002APC3  
0076029700999991954032918004+60117+019900FM-12+000399999V0203601N00411012301CN0160001N9+00001-00221101551ADDAY121999GF108991081051012501999999IA1199KA1999M+00111MD1310071+9999MW1021
0078029700999991954033000004+60117+019900FM-12+000399999V0200201N00411001501CN0160001N9+00001+00001101601ADDAY121999GF108991081071001501999999MW1021EQDQ01+000032APCTENQ02+000002APC3  
0108029700999991954033006004+60117+019900FM-12+000399999V0202001N01441001501CN0110001N9+00001+00001101621ADDAA199000391AY121999GF108991081071001501999999IA1199KA1999N-00111MW1701EQDQ01+000032APCTENQ02+000002APC3  
0078029700999991954033012004+60117+019900FM-12+000399999V0200501N00211001501CN0110001N9+00111+00111101601ADDAY171999GF108991081071001501999999MW1711EQDQ01+000032APCTENQ02+000002APC3  
0087029700999991954033018004+60117+019900FM-12+000399999V0201101N00311001501CN0044001N9+00111+00111101641ADDAA199002091AY121999GF108991081071001501999999IA1199KA1999M+00221MD1310031+9999MW1101
0097029700999991954033106004+60117+019900FM-12+000399999V0201401N00311001501CN0140001N9+00111+00111101781ADDAY121999GF108991081071001501999999IA1199KA1999N+00001MW1021EQDQ01+000032APCTENQ02+000002APC3  
0057029700999991954033112004+60117+019900FM-12+000399999V0201401N00411030001CN0200001N9+00281+00001101821ADDAY111999GF108991021071001501021999MD1310041+9999MW1021
0076029700999991954033118004+60117+019900FM-12+000399999V0201401N00411001501CN0160001N9+00111+00111101741ADDAY111999GF108991081071001501999999IA1189KA1999M+00391MD1810031+9999MW1021
0057029700999991954040100004+60117+019900FM-12+000399999V0201401N00511001501CN0160001N9+00111+00001101611ADDAY121999GF108991081071001501999999MD1810121+9999MW1021
0076029700999991954040106004+60117+019900FM-12+000399999V0201101N00511001501CN0160001N9+00111+00001101291ADDAY121999GF108991081071001501999999IA1189KA1999N+00001MD1810161+9999MW1021
0057029700999991954040112004+60117+019900FM-12+000399999V0201101N00621002401CN0160001N9+00221+00111100841ADDAY121999GF108991081071002501999999MD1810281+9999MW1021
0087029700999991954040118004+60117+019900FM-12+000399999V0200901N00511000601CN0010001N9+00111+00111100201ADDAA199003091AY121999GF108991081071000751999999IA1189KA1999M+00281MD1810281+9999MW1551
0078029700999991954040200004+60117+019900FM-12+000399999V0200901N00311001501CN0110001N9+00001+00001100201ADDAY121999GF108991081071001501999999MW1681EQDQ01+000082APCTENQ02+000002APC3  
0087029700999991954040206004+60117+019900FM-12+000399999V0203201N00511002401CN0160001N9+00111+00111100581ADDAA199002091AY121999GF108991081071002501999999IA1189KA1999N+00001MD1310241+9999MW1021
0057029700999991954040212004+60117+019900FM-12+000399999V0203401N00621002401CN0160001N9+00111+00111100861ADDAY121999GF108991081071002501999999MD1310171+9999MW1021
0076029700999991954040218004+60117+019900FM-12+000399999V0203401N00311002401CN0160001N9+00001-00111101021ADDAY121999GF108991081071002501999999IA1189KA1999M+00221MD1310041+9999MW1021
0076029700999991954040306004+60117+019900FM-12+000399999V0202301N00101002401CN0160001N9+00001-00111100991ADDAY121999GF108991081071002501999999IA1189KA1999N-00111MD1310031+9999MW1021
0057029700999991954040312004+60117+019900FM-12+000399999V0202001N00721002401CN0160001N9+00001+00001100941ADDAY121999GF108991081071002501999999MD1990071+9999MW1021
0087029700999991954040406004+60117+019900FM-12+000399999V0201801N00211000151CN0010001N9+00111+00111100461ADDAA199002091AY171999GF109991091999000251999999IA1189KA1999N+00001MD1810091+9999MW1681
0057029700999991954040412004+60117+019900FM-12+000399999V0201801N01031001501CN0024001N9+00111+00111999999ADDAY171999GF108991081071001501999999MD1810191+9999MW1681
0087029700999991954040418004+60117+019900FM-12+000399999V0202301N01031001501CN0024001N9+00221+00221099221ADDAA199005091AY141999GF108991081071001501999999IA1189KA1999M+00221MD1810401+9999MW1421
0076029700999991954040506004+60117+019900FM-12+000399999V0202301N01031220001CN0200001N9+00281+00111098661ADDAY111999GF104991001001999999041021IA1189KA1999N+00111MD1810071+9999MW1011
0057029700999991954040512004+60117+019900FM-12+000399999V0202301N00821001501CN0200001N9+00611+00391099081ADDAY111999GF107991071051001501999999MD1310211+9999MW1021
0076029700999991954040518004+60117+019900FM-12+000399999V0202301N00821002401CN0200001N9+00501+00281099681ADDAY111999GF107991071051002501999999IA1189KA1999M+01001MD1310281+9999MW1021
0076029700999991954040618004+60117+019900FM-12+000399999V0202701N00101220001CN0200001N9+00391+00221101481ADDAY111999GF101991011051001501001001IA1189KA1999M+00781MD1310091+9999MW1021
0057029700999991954040700004+60117+019900FM-12+000399999V0202701N00101220001CN0200001N9-00221-00221101881ADDAY111999GF100991001001999999001001MD1310161+9999MW1001
0095029700999991954040706004+60117+019900FM-12+000399999V0202301N00101220001CN0200001N9-00111-00111102141ADDAY111999GF103991021051001501001021IA1199KA1999N+99999MD1310131+9999MW1021EQDQ01 +00392ATMN  
0076029700999991954040718004+60117+019900FM-12+000399999V0200201N00101220001CN0200001N9-00111-00111102771ADDAY111999GF100991001001999999001001IA1189KA1999M+00391MD1310151+9999MW1001
0076029700999991954040806004+60117+019900FM-12+000399999V0203601N00101002401CN0024001N9+00001+00001102921ADDAY171999GF108991081071002501999999IA1189KA1999N-00391MD1310051+9999MW1751
0076029700999991954040818004+60117+019900FM-12+000399999V0203601N00211220001CN0200001N9-00111-00221103321ADDAY111999GF100991001001999999001001IA1189KA1999M+00391MD1310131+9999MW1001
0078029700999991954040900004+60117+019900FM-12+000399999V0209991C00001220001CN0200001N9-00281-00281103211ADDAY101999GF100991001001999999001001MW1001EQDQ01+000032APCTENQ02+000002APC3  
0076029700999991954040906004+60117+019900FM-12+000399999V0209991C00001220001CN0200001N9+00001-00111103461ADDAY101999GF100991001001999999001001IA1189KA1999N-00391MD1310051+9999MW1001
0078029700999991954040912004+60117+019900FM-12+000399999V0203401N00101220001CN0200001N9+00501+00111103481ADDAY101999GF100991001001999999001001MW1001EQDQ01+000042APCTENQ02+000082APC3  
0076029700999991954040918004+60117+019900FM-12+000399999V0203401N00101220001CN0200001N9+00111+00001103341ADDAY101999GF100991001001999999001001IA1189KA1999M+00501MD1810051+9999MW1001
0076029700999991954041006004+60117+019900FM-12+000399999V0200901N00211220001CN0200001N9-00111-00221103171ADDAY111999GF102991001001999999001011IA1189KA1999N-00781MD1810051+9999MW1031
0076029700999991954041018004+60117+019900FM-12+000399999V0201801N00101220001CN0200001N9+00221+00111102801ADDAY101999GF100991001001999999001001IA1189KA1999M+00611MD1810051+9999MW1001
0057029700999991954041100004+60117+019900FM-12+000399999V0201801N00101002401CN0200001N9+00111+00111102711ADDAY111999GF107991071051002501999999MD1810041+9999MW1021
0113029700999991954041106004+60117+019900FM-12+000399999V0201601N00311220001CN0200001N9+00221+00221999999ADDAY111999GF100991001001999999001001IA1189KA1999N-00111MW1001EQDQ01+101413APOSLPQ02+000082APCTENQ03+000002APC3  
0057029700999991954041112004+60117+019900FM-12+000399999V0202001N00511220001CN0200001N9+00501+00281102551ADDAY101999GF100991001001999999001001MD1810041+9999MW1001
0076029700999991954041118004+60117+019900FM-12+000399999V0202001N00621220001CN0200001N9+00111+00111102211ADDAY101999GF101991001001999999001021IA1189KA1999M+00501MD1810171+9999MW1031
0076029700999991954041200004+60117+019900FM-12+000399999V0202001N00511220001CN0200001N9+00111+00111101811ADDAY111999GF103991999001999999051001MD1810231+9999MW1031EQDQ01+000002SCOTLC
0076029700999991954041206004+60117+019900FM-12+000399999V0202301N00621002401CN0160001N9+00221+00221101361ADDAY121999GF108991081071002501999999IA1189KA1999N+00111MD1810151+9999MW1021
0057029700999991954041212004+60117+019900FM-12+000399999V0202001N00721001501CN0024001N9+00111+00111101021ADDAY171999GF108991081071001501999999MD1810171+9999MW1731
0087029700999991954041218004+60117+019900FM-12+000399999V0201801N00821001501CN0010001N9+00001+00001100811ADDAA199008091AY171999GF108991081071001501999999IA1199KA1999M+00281MD1810111+9999MW1691
0057029700999991954041300004+60117+019900FM-12+000399999V0201801N00511002401CN0044001N9+00001+00001100281ADDAY171999GF108991081071002501999999MD1810251+9999MW1681
0087029700999991954041306004+60117+019900FM-12+000399999V0203201N00511000151CN0004001N9+00001+00001100011ADDAA199005091AY141999GF109991091999000251999999IA1199KA1999N-00111MD1810071+9999MW1451
0057029700999991954041312004+60117+019900FM-12+000399999V0203201N00621000151CN0010001N9+00001+00001100161ADDAY141999GF109991091999000251999999MD1310071+9999MW1451
0076029700999991954041318004+60117+019900FM-12+000399999V0209991C00001004501CN0160001N9+00111+00111100311ADDAY121999GF107991071051004501999999IA1189KA1999M+00221MD1310091+9999MW1011
0076029700999991954041406004+60117+019900FM-12+000399999V0209991C00001001501CN0110001N9-00221-00221100811ADDAY111999GF108991081051001501999999IA1189KA1999N-00391MD1310161+9999MW1101
0057029700999991954041412004+60117+019900FM-12+000399999V0202501N00211001501CN0110001N9-00111-00111100911ADDAY121999GF108991081061001501999999MD1310031+9999MW1101
0076029700999991954041418004+60117+019900FM-12+000399999V0201601N00101000601CN0110001N9+00001+00001100711ADDAY121999GF108991081061000751999999IA1189KA1999M+00221MD1810091+9999MW1101
0057029700999991954041500004+60117+019900FM-12+000399999V0209991C00001220001CN0200001N9-00221-00221100521ADDAY111999GF100991001001999999001001MD1810121+9999MW1001
0076029700999991954041506004+60117+019900FM-12+000399999V0200701N00511075001CN0160001N9-00111-00111100611ADDAY111999GF105991021051002501001051IA1189KA1999N-00281MD1310091+9999MW1011
0057029700999991954041512004+60117+019900FM-12+000399999V0200501N00621004501CN0160001N9+00221+00001101091ADDAY111999GF108991081051004501999999MD1310211+9999MW1021
0087029700999991954041518004+60117+019900FM-12+000399999V0200501N004119999999N0160001N9+00111+00111101461ADDAA199002091AY111999GF106991011071999999021999IA1189KA1999M+00281MD1310131+9999MW1011
0073029700999991954041606004+60117+019900FM-12+000399999V0200501N00721000151CN0010001N9+00001+00001101861ADDAA199004091AY171999GF109991091999000251999999IA1209KA1999N-00111MW1751
0057029700999991954041612004+60117+019900FM-12+000399999V0200201N00721030001CN0200001N9+00281+00111102211ADDAY111999GF108991011011004501041071MD1310281+9999MW1021
0106029700999991954041618004+60117+019900FM-12+000399999V0203601N00621220001CN0200001N9+00221-00111102521ADDAA199002091AY111999GF102991999001999999051001IA1189KA1999M+00501MD1310161+9999MW1021EQDQ01+000002SCOTLC
0057029700999991954041700004+60117+019900FM-12+000399999V0203601N00511220001CN0200001N9+00001+00001102641ADDAY111999GF100991001001999999001001MD1310031+9999MW1001
0076029700999991954041706004+60117+019900FM-12+000399999V0200201N00511220001CN0200001N9+00221-00111102751ADDAY111999GF100991001001999999001001IA1189KA1999N-00111MD1310081+9999MW1001
0057029700999991954041712004+60117+019900FM-12+000399999V0200501N00721220001CN0200001N9+00611+00281102741ADDAY101999GF101991001001999999001021MD1990031+9999MW1031
0057029700999991954041800004+60117+019900FM-12+000399999V0209991C00001220001CN0200001N9-00281-00281102511ADDAY151999GF100991001001999999001001MD1810151+9999MW1001
0057029700999991954041812004+60117+019900FM-12+000399999V0202301N00511220001CN0200001N9+00501-00221102121ADDAY111999GF106991001001999999021011MD1810011+9999MW1021
0097029700999991954041818004+60117+019900FM-12+000399999V0201601N00101220001CN0200001N9+00111+00111102051ADDAY111999GF105991001001999999041041IA1189KA1999M+00611MW1021EQDQ01+000082APCTENQ02+000002APC3  
0076029700999991954041906004+60117+019900FM-12+000399999V0209991C00001220001CN0200001N9+00001+00001102371ADDAY101999GF100991001001999999001001IA1189KA1999N-00611MD1310041+9999MW1001
0057029700999991954041912004+60117+019900FM-12+000399999V0202301N00411220001CN0200001N9+00721+00221102481ADDAY101999GF101991011011012501001001MD1310041+9999MW1031
0076029700999991954041918004+60117+019900FM-12+000399999V0203401N00311220001CN0200001N9+00001+00001102641ADDAY101999GF101991011051004501001001IA1189KA1999M+00781MD1310081+9999MW1031
0078029700999991954042000004+60117+019900FM-12+000399999V0203601N00511220001CN0004001N9-00281-00281102601ADDAY141999GF100991001001999999001001MW1441EQDQ01+000032APCTENQ02+000002APC3  
0076029700999991954042006004+60117+019900FM-12+000399999V0209991C00001220001CN0160001N9-00221-00221102551ADDAY141999GF103991011061999999001021IA1189KA1999N-00501MD1810111+9999MW1011
0057029700999991954042012004+60117+019900FM-12+000399999V0202301N00101220001CN0200001N9+00781+00111102391ADDAY111999GF102991011011012501001021MD1810081+9999MW1021
0076029700999991954042018004+60117+019900FM-12+000399999V0202301N00101220001CN0200001N9+00281+00111102021ADDAY111999GF102991001001999999001021IA1189KA1999M+00891MD1810171+9999MW1031
0057029700999991954042100004+60117+019900FM-12+000399999V0209991C00001220001CN0200001N9+00111+00111101841ADDAY101999GF100991001001999999001001MD1810131+9999MW1001
0076029700999991954042106004+60117+019900FM-12+000399999V0203601N00511015001CN0200001N9+00391+00221101891ADDAY111999GF106991061051017501999999IA1139KA1999N-00221MD1310111+9999MW1031
0057029700999991954042112004+60117+019900FM-12+000399999V0203601N00931220001CN0200001N9+00281+00111102141ADDAY111999GF102991021011012501001001MD1310081+9999MW1011
0097029700999991954042118004+60117+019900FM-12+000399999V0203601N00211220001CN0200001N9+00111-00111102181ADDAY111999GF102991001001999999001021IA1139KA1999M+00501MW1011EQDQ01+000032APCTENQ02+000002APC3  
0076029700999991954042206004+60117+019900FM-12+000399999V0200201N00721220001CN0200001N9+00111+00001102201ADDAY111999GF102991021021999999001021IA1139KA1999N-00391MD1310081+9999MW1021
0057029700999991954042212004+60117+019900FM-12+000399999V0203401N00721220001CN0200001N9+00281+00221102181ADDAY111999GF102991021011012501001001MD1990031+9999MW1021
0076029700999991954042218004+60117+019900FM-12+000399999V0202301N00621220001CN0200001N9+00281+00281101921ADDAY111999GF104991001001999999041061IA1009KA1999M+00611MD1810121+9999MW1021
0095029700999991954042306004+60117+019900FM-12+000399999V0202901N00311220001CN0200001N9+00221+00001101221ADDAY111999GF103991999001999999051001IA1139KA1999N-00281MD1810211+9999MW1031EQDQ01+000002SCOTLC
0057029700999991954042312004+60117+019900FM-12+000399999V0203601N00621000601CN0160001N9+00221+00221100941ADDAY171999GF108991081071000751999999MD1810051+9999MW1681
0087029700999991954042318004+60117+019900FM-12+000399999V0203601N00621001501CN0200001N9+00111-00111101091ADDAA199002091AY111999GF105991051071001501001001IA1109KA1999M+00501MD1310231+9999MW1231
0057029700999991954042400004+60117+019900FM-12+000399999V0203401N00411220001CN0200001N9-00111-00221101351ADDAY101999GF100991001001999999001001MD1310011+9999MW1001
0095029700999991954042406004+60117+019900FM-12+000399999V0203401N00411220001CN0200001N9+00111-00221101451ADDAY101999GF101991999001999999041001IA1139KA1999N-00221MD1310031+9999MW1031EQDQ01+000002SCOTLC
0057029700999991954042412004+60117+019900FM-12+000399999V0203401N00511220001CN0200001N9+00001+00001101611ADDAY111999GF103991001001999999011091MD1310081+9999MW1021
0097029700999991954042418004+60117+019900FM-12+000399999V0203601N00411220001CN0200001N9+00111-00111101601ADDAY111999GF103991011021012501041001IA1089KA1999M+00611MW1011EQDQ01+000032APCTENQ02+000002APC3  
0057029700999991954042512004+60117+019900FM-12+000399999V0203201N01031012301CN0200001N9+00281-00111101851ADDAY111999GF105991051011012501001001MD1310031+9999MW1031
0113029700999991954042518004+60117+019900FM-12+000399999V0203601N00511220001CN0200001N9+00111+00111101861ADDAY101999GF102991999001999999051001IA1139KA1999M+00391MW1031EQDQ01+000002SCOTLCQ02+000032APCTENQ03+000002APC3  
0076029700999991954042600004+60117+019900FM-12+000399999V0209991C00001220001CN0200001N9+99999+99999101821ADDAY101999GF103991999001999999051001MD1990081+9999MW1031EQDQ01+000002SCOTLC
0076029700999991954042606004+60117+019900FM-12+000399999V0209991C000019999999N0200001N9+00111+00001101721ADDAY121999GF108991011071999999051999IA1139KA1999N-00501MD1310031+9999MW1021
0057029700999991954042612004+60117+019900FM-12+000399999V0200901N00101001501CN0200001N9+00391-00111101601ADDAY111999GF106991061091001501999999MD1810051+9999MW1021
0095029700999991954042618004+60117+019900FM-12+000399999V0202301N00101220001CN0200001N9+00221-00111101511ADDAY111999GF104991999001999999071001IA1089KA1999M+00611MD1810071+9999MW1011EQDQ01+000002SCOTLC
0076029700999991954042700004+60117+019900FM-12+000399999V0202301N00101220001CN0200001N9-00281-00281101451ADDAY111999GF102991999001999999071001MD1810031+9999MW1011EQDQ01+000002SCOTLC
0097029700999991954042706004+60117+019900FM-12+000399999V0201801N00101220001CN0200001N9+00111+00111101411ADDAY111999GF102991021021012501001001IA1139KA1999N-00611MW1031EQDQ01+000082APCTENQ02+000002APC3  
0078029700999991954042712004+60117+019900FM-12+000399999V0202301N00311002401CN0200001N9+00501+00221101511ADDAY111999GF105991051091002501001001MW1021EQDQ01+000042APCTENQ02+000112APC3  
0095029700999991954042718004+60117+019900FM-12+000399999V0202001N00211220001CN0200001N9+00281+00111101681ADDAY111999GF101991999001999999061001IA1089KA1999M+00611MD1310111+9999MW1011EQDQ01+000002SCOTLC
0057029700999991954042800004+60117+019900FM-12+000399999V0209991C00001000151CN0002001N9-00111-00111101641ADDAY141999GF109991091999000251999999MD1990111+9999MW1471
0097029700999991954042806004+60117+019900FM-12+000399999V0209991C00001000601CN0044001N9+00001+00001101661ADDAY141999GF108991081061000751999999IA1089KA1999N-00391MW1101EQDQ01+000082APCTENQ02+000002APC3  
0057029700999991954042812004+60117+019900FM-12+000399999V0202301N00211002401CN0160001N9+00611+00501101601ADDAY111999GF105991051091002501999999MD1710011+9999MW1031
0095029700999991954042818004+60117+019900FM-12+000399999V0202001N00511220001CN0200001N9+00281+00221101391ADDAY111999GF103991999001999999041001IA1089KA1999M+00721MD1810051+9999MW1011EQDQ01+000002SCOTLC
0057029700999991954042900004+60117+019900FM-12+000399999V0202301N00411220001CN0160001N9+00001+00001101081ADDAY111999GF106991001001999999071999MD1810231+9999MW1021
0076029700999991954042906004+60117+019900FM-12+000399999V0202001N00101220001CN0160001N9+00391+99999100841ADDAY111999GF105991001001999999071999IA1089KA1999N+00001MD1810081+9999MW1011
0057029700999991954042912004+60117+019900FM-12+000399999V0202001N00411075001CN0200001N9+00781+00391100741ADDAY111999GF106991021011012501001071MD1810031+9999MW1031
0057029700999991954043000004+60117+019900FM-12+000399999V0201601N00621001501CN0110001N9+00221+00221100061ADDAY161999GF108991081071001501999999MD1810151+9999MW1621
0087029700999991954043006004+60117+019900FM-12+000399999V0200901N00101001501CN0160001N9+00281+00281100061ADDAA199009091AY121999GF108991081071001501999999IA1109KA1999N+00111MD1310051+9999MW1021
0057029700999991954043012004+60117+019900FM-12+000399999V0202701N00101000601CN0044001N9+00391+00391100541ADDAY121999GF108991081061000751999999MD1310291+9999MW1101
0076029700999991954043018004+60117+019900FM-12+000399999V0202301N00101002401CN0200001N9+00281+00281100961ADDAY121999GF107991071051002501999999IA1089KA1999M+00501MD1310241+9999MW1011
0057029700999991954050100004+60117+019900FM-12+000399999V0209991C00001001501CN0160001N9+00281+00221101281ADDAY111999GF108991081071001501999999MD1310131+9999MW1031
0087029700999991954050106004+60117+019900FM-12+000399999V0202001N00101030001CN0160001N9+00281+00281101541ADDAA199000391AY121999GF108991031071002501021999IA1109KA1999N+00221MD1310131+9999MW1021
0057029700999991954050112004+60117+019900FM-12+000399999V0201401N00211012301CN0200001N9+00501+00221101661ADDAY111999GF106991061051012501999999MD1310161+9999MW1011
0095029700999991954050118004+60117+019900FM-12+000399999V0209991C00001220001CN0200001N9+00391+00001101681ADDAY111999GF101991999001999999051001IA1089KA1999M+00721MD1310031+9999MW1011EQDQ01+000002SCOTLC
0076029700999991954050206004+60117+019900FM-12+000399999V0200501N00621220001CN0200001N9+00501+00281101491ADDAY101999GF100991001001999999001001IA1089KA1999N-00221MD1810051+9999MW1001
0076029700999991954050212004+60117+019900FM-12+000399999V0200901N00411220001CN0200001N9+01281+00611101401ADDAY111999GF102991999001999999041001MD1810011+9999MW1011EQDQ01+000002SCOTLC
0076029700999991954050218004+60117+019900FM-12+000399999V0200501N00411220001CN0200001N9+00781+00281101311ADDAY111999GF106991001001999999041999IA1089KA1999M+01391MD1810041+9999MW1031
0097029700999991954050306004+60117+019900FM-12+000399999V0200901N00621002401CN0160001N9+00721+00501101221ADDAY111999GF108991081051002501999999IA1089KA1999N+00501MW1031EQDQ01+000082APCTENQ02+000002APC3  
0057029700999991954050312004+60117+019900FM-12+000399999V0200701N00411001501CN0110001N9+00781+00721101311ADDAY121999GF108991081071001501999999MD1310031+9999MW1101
0076029700999991954050318004+60117+019900FM-12+000399999V0200501N00211002401CN0110001N9+00891+00721101361ADDAY121999GF108991081051002501999999IA1089KA1999M+00891MD1310031+9999MW1101
0078029700999991954050400004+60117+019900FM-12+000399999V0200501N00211004501CN0160001N9+00721+00721101461ADDAY121999GF108991081051004501999999MW1021EQDQ01+000032APCTENQ02+000002APC3  
0076029700999991954050406004+60117+019900FM-12+000399999V0200501N00211220001CN0160001N9+00891+00721101521ADDAY121999GF107991001001999999071999IA1089KA1999N+00721MD1310031+9999MW1011
0057029700999991954050412004+60117+019900FM-12+000399999V0203601N00411012301CN0160001N9+00891+00501101621ADDAY121999GF108991081051012501999999MD1310041+9999MW1021
0087029700999991954050418004+60117+019900FM-12+000399999V0200201N00621012301CN0110001N9+01001+00781101661ADDAA199010091AY121999GF108991081051012501999999IA1089KA1999M+01111MD1310031+9999MW1021
0087029700999991954050506004+60117+019900FM-12+000399999V0201901N00101220001CN0200001N9+01001+00781101721ADDAA199010091AY111999GF102991011011008001041001IA1089KA1999N+00611MD1310041+9999MW1011
0057029700999991954050512004+60117+019900FM-12+000399999V0201101N00411220001CN0200001N9+01281+00501101761ADDAY111999GF102991001001999999001041MD1990041+9999MW1021
0076029700999991954050518004+60117+019900FM-12+000399999V0200901N00621220001CN0200001N9+01001+00721101621ADDAY111999GF107991001001999999071999IA1089KA1999M+01391MD1810161+9999MW1031
0078029700999991954050600004+60117+019900FM-12+000399999V0209991C00001000151CN0010001N9+00501+00501101791ADDAY141999GF109991091999000251999999MW1471EQDQ01+000042APCTENQ02+000122APC3  
0076029700999991954050606004+60117+019900FM-12+000399999V0209991C00001220001CN0110001N9+00781+00721101881ADDAY111999GF102991011061999999041001IA1089KA1999N+00391MD1310041+9999MW1101
0094029700999991954050612004+60117+019900FM-12+000399999V0202001N00101220001CN0200001N9+01221+00781102021ADDAY111999GF105991999001999999071001MW1031EQDQ01+000002SCOTLCQ02+000032APCTENQ03+000002APC3  
0076029700999991954050706004+60117+019900FM-12+000399999V0201401N00211220001CN0200001N9+01001+00781101621ADDAY111999GF105991001001999999081091IA1009KA1999N+00781MD1310161+9999MW1011
0057029700999991954050712004+60117+019900FM-12+000399999V0202001N00211220001CN0200001N9+01391+01001101801ADDAY111999GF104991001001999999091021MD1310201+9999MW1021
0095029700999991954050718004+60117+019900FM-12+000399999V0200901N00101220001CN0200001N9+01391+00781101811ADDAY101999GF105991999001999999081001IA1009KA1999M+01721MD1810071+9999MW1031EQDQ01+000002SCOTLC
0074029700999991954050806004+60117+019900FM-12+000399999V0200901N00101030001CN0160001N9+01111+00891102001ADDAA199001091AY111999GF105991021021012501091001IA1089MD1310041+9999MW1011
0076029700999991954050812004+60117+019900FM-12+000399999V0202301N00211220001CN0160001N9+01391+01001102121ADDAY111999GF103991999001999999081001MD1310151+9999MW1051EQDQ01+000002SCOTLC
0095029700999991954050818004+60117+019900FM-12+000399999V0200201N00511220001CN0200001N9+01111+00721102201ADDAY111999GF103991999001999999051001IA1009KA1999M+01721MD1310081+9999MW1031EQDQ01+000002SCOTLC
0057029700999991954050900004+60117+019900FM-12+000399999V0209991C00001220001CN0160001N9+00781+00611102391ADDAY111999GF106991001001999999071999MD1310031+9999MW1021
0076029700999991954050906004+60117+019900FM-12+000399999V0203601N00721220001CN0200001N9+00721+00501102651ADDAY111999GF100991001001999999001001IA1009KA1999N+00611MD1310161+9999MW1001
0078029700999991954050912004+60117+019900FM-12+000399999V0203601N00721220001CN0200001N9+01221+00611102911ADDAY101999GF101991001001999999001021MW1021EQDQ01+000032APCTENQ02+000002APC3  
0076029700999991954050918004+60117+019900FM-12+000399999V0200201N00511220001CN0200001N9+00891+00281102811ADDAY111999GF100991001001999999001001IA1009KA1999M+01281MD1810121+9999MW1001
0076029700999991954051006004+60117+019900FM-12+000399999V0200201N00311220001CN0200001N9+01111+00391103051ADDAY101999GF100991001001999999001001IA1009KA1999N+00221MD1310041+9999MW1001
0057029700999991954051012004+60117+019900FM-12+000399999V0203401N00211220001CN0200001N9+01611+00611103011ADDAY101999GF101991001001999999001011MD1990031+9999MW1031
0076029700999991954051018004+60117+019900FM-12+000399999V0200201N00101220001CN0200001N9+01221+00391102891ADDAY101999GF100991001001999999001001IA1009KA1999M+01721MD1810051+9999MW1001
0078029700999991954051100004+60117+019900FM-12+000399999V0209991C00001220001CN0200001N9+00391+00281102941ADDAY101999GF100991001001999999001001MW1001EQDQ01+000042APCTENQ02+000042APC3  
0076029700999991954051106004+60117+019900FM-12+000399999V0200501N00101220001CN0200001N9+00891+00501102891ADDAY101999GF102991001001999999001021IA1089KA1999N+00111MD1810051+9999MW1031
0057029700999991954051112004+60117+019900FM-12+000399999V0203201N00821220001CN0200001N9+01391+00501102681ADDAY111999GF102991001001999999001021MD1810091+9999MW1021
0076029700999991954051118004+60117+019900FM-12+000399999V0203401N00821220001CN0200001N9+00781+00281102561ADDAY111999GF102991001001999999001021IA1089KA1999M+01611MD1810051+9999MW1011
0078029700999991954051200004+60117+019900FM-12+000399999V0203601N00411220001CN0200001N9+00391+00111102751ADDAY101999GF100991001001999999001001MW1001EQDQ01+000042APCTENQ02+000132APC3  
0076029700999991954051206004+60117+019900FM-12+000399999V0200201N00411220001CN0200001N9+00611+00391102811ADDAY101999GF100991001001999999001001IA1009KA1999N+00221MD1310051+9999MW1001
0057029700999991954051212004+60117+019900FM-12+000399999V0200201N00821030001CN0200001N9+00781+00221102781ADDAY111999GF106991021011012501061999MD1990011+9999MW1031
0076029700999991954051218004+60117+019900FM-12+000399999V0200201N00511220001CN0200001N9+00501+00111102651ADDAY101999GF100991001001999999001001IA1009KA1999M+00891MD1810041+9999MW1001
0078029700999991954051300004+60117+019900FM-12+000399999V0200201N00411220001CN0200001N9+00221+00001102621ADDAY101999GF100991001001999999001001MW1001EQDQ01+000082APCTENQ02+000002APC3  
0076029700999991954051306004+60117+019900FM-12+000399999V0200201N00411220001CN0200001N9+00611+00221102771ADDAY101999GF100991001001999999001001IA1089KA1999N+00111MD1310081+9999MW1001
0057029700999991954051312004+60117+019900FM-12+000399999V0200501N00821220001CN0200001N9+00781+00111102791ADDAY101999GF100991001001999999001001MD1990011+9999MW1001
0076029700999991954051318004+60117+019900FM-12+000399999V0200201N00721220001CN0200001N9+00611+00221102651ADDAY111999GF100991001001999999001001IA1009KA1999M+01001MD1810081+9999MW1001
0095029700999991954051406004+60117+019900FM-12+000399999V0200201N00051220001CN0200001N9+00721+00281102291ADDAY101999GF103991999001999999041001IA1089KA1999N-00111MD1810111+9999MW1031EQDQ01+000002SCOTLC
0076029700999991954051412004+60117+019900FM-12+000399999V0200201N00311220001CN0200001N9+01111+00221102111ADDAY111999GF102991999001999999041001MD1810051+9999MW1011EQDQ01+000002SCOTLC
0076029700999991954051418004+60117+019900FM-12+000399999V0200201N00101220001CN0200001N9+00721+00281101861ADDAY111999GF100991001001999999001001IA1009KA1999M+01111MD1810091+9999MW1011
0063029700999991954051506004+60117+019900FM-12+000399999V0200201N00101220001CN0200001N9+00501+00221101401ADDAY111999GF102991021061001501001051IA1009MD1810151+9999MW1011
0078029700999991954051512004+60117+019900FM-12+000399999V0202001N00311220001CN0200001N9+00781+00221101341ADDAY111999GF102991011011012501051001MW1021EQDQ01+000082APCTENQ02+000002APC3  
0076029700999991954051518004+60117+019900FM-12+000399999V0202301N00311220001CN0200001N9+00391+00221101261ADDAY111999GF107991001001999999021999IA1009KA1999M+01001MD1810041+9999MW1031
0095029700999991954051606004+60117+019900FM-12+000399999V0202001N00511220001CN0200001N9+00611+00391101041ADDAY111999GF108991999001999999041001IA1009KA1999N+00221MD1810051+9999MW1011EQDQ01+000002SCOTLC
0057029700999991954051612004+60117+019900FM-12+000399999V0201801N01131220001CN0200001N9+00891+00391100911ADDAY111999GF107991001001999999041071MD1810051+9999MW1021
0076029700999991954051618004+60117+019900FM-12+000399999V0201801N00931030001CN0160001N9+00611+00501100791ADDAY121999GF108991021071012501021999IA1009KA1999M+01001MD1810071+9999MW1021
0078029700999991954051700004+60117+019900FM-12+000399999V0201801N01031030001CN0110001N9+00611+00611100791ADDAY161999GF108991041071002501021999MW1641EQDQ01+000082APCTENQ02+000002APC3  
0087029700999991954051706004+60117+019900FM-12+000399999V0201601N00101000151CN0004001N9+00611+00611101021ADDAA199018091AY141999GF109991091999000251999999IA1109KA1999N+00501MD1310161+9999MW1471
0057029700999991954051712004+60117+019900FM-12+000399999V0201801N00311000151CN0010001N9+00611+00611101261ADDAY141999GF109991091999000251999999MD1310111+9999MW1451
0076029700999991954051718004+60117+019900FM-12+000399999V0201601N00101220001CN0160001N9+00721+00501101351ADDAY121999GF107991001001999999071999IA1089KA1999M+00891MD1310051+9999MW1021
0057029700999991954051800004+60117+019900FM-12+000399999V0201401N00211030001CN0160001N9+00611+00501101151ADDAY121999GF108991021071002501021999MD1810131+9999MW1021
0087029700999991954051806004+60117+019900FM-12+000399999V0201401N00311220001CN0160001N9+00781+00721101191ADDAA199001091AY161999GF108991001001999999021999IA1109KA1999N+00391MD1310051+9999MW1601
0057029700999991954051812004+60117+019900FM-12+000399999V0201401N00511220001CN0200001N9+01221+00721101391ADDAY121999GF108991001001999999071999MD1310131+9999MW1021
0076029700999991954051818004+60117+019900FM-12+000399999V0200901N00411220001CN0200001N9+01111+00781101481ADDAY111999GF107991001001999999091999IA1089KA1999M+01501MD1310211+9999MW1011
0076029700999991954051900004+60117+019900FM-12+000399999V0200901N00411220001CN0200001N9+00891+00611101571ADDAY111999GF105991999001999999071001MD1310011+9999MW1011EQDQ01+000002SCOTLC
0095029700999991954051906004+60117+019900FM-12+000399999V0200701N00311220001CN0200001N9+01611+00611101661ADDAY111999GF103991999001999999041001IA1089KA1999N+00721MD1310071+9999MW1011EQDQ01+000002SCOTLC
0078029700999991954051912004+60117+019900FM-12+000399999V0200701N00311220001CN0200001N9+01721+00891101711ADDAY111999GF103991011011012501001021MW1021EQDQ01+000032APCTENQ02+000002APC3  
0097029700999991954051918004+60117+019900FM-12+000399999V0201401N00621220001CN0200001N9+01391+00721101661ADDAY111999GF107991001001999999071999IA1009KA1999M+01781MW1031EQDQ01+000082APCTENQ02+000002APC3  
0076029700999991954052000004+60117+019900FM-12+000399999V0200501N00311220001CN0200001N9+00891+00611101541ADDAY111999GF102991999001999999071001MD1810111+9999MW1011EQDQ01+000002SCOTLC
0057029700999991954052012004+60117+019900FM-12+000399999V0200701N00211220001CN0200001N9+01611+01111101491ADDAY111999GF107991001001999999011999MD1810011+9999MW1021
0076029700999991954052018004+60117+019900FM-12+000399999V0200901N00211220001CN0200001N9+01391+01111101411ADDAY111999GF107991001001999999071999IA1009KA1999M+01891MD1810011+9999MW1021
0057029700999991954052100004+60117+019900FM-12+000399999V0200901N00311220001CN0200001N9+01221+00891101351ADDAY121999GF108991001001999999071999MD1810071+9999MW1021
0113029700999991954052106004+60117+019900FM-12+000399999V0200901N00411220001CN0200001N9+01501+00891101381ADDAY111999GF101991999001999999051001IA1009KA1999N+01111MW1011EQDQ01+000002SCOTLCQ02+000082APCTENQ03+000002APC3  
0057029700999991954052112004+60117+019900FM-12+000399999V0200901N00411220001CN0200001N9+02111+01221101221ADDAY111999GF101991001001999999001021MD1810051+9999MW1011
0076029700999991954052118004+60117+019900FM-12+000399999V0200901N00311220001CN0200001N9+01891+01111101311ADDAY111999GF104991001001999999041021IA1009KA1999M+02221MD1310161+9999MW1031
0078029700999991954052200004+60117+019900FM-12+000399999V0201401N00621220001CN0200001N9+01501+01111101351ADDAY111999GF106991001001999999071999MW1031EQDQ01+000082APCTENQ02+000002APC3  
0076029700999991954052206004+60117+019900FM-12+000399999V0200901N00621220001CN0160001N9+01391+01111101351ADDAY111999GF107991001001999999041011IA1009KA1999N+01281MD1310051+9999MW1051
0057029700999991954052212004+60117+019900FM-12+000399999V0200901N00511220001CN0200001N9+01391+01281101491ADDAY111999GF107991001001999999071999MD1310041+9999MW1021
0087029700999991954052218004+60117+019900FM-12+000399999V0200901N00101220001CN0200001N9+01391+01391101611ADDAA199002091AY121999GF107991001001999999021999IA1009KA1999M+02001MD1310051+9999MW1021
0078029700999991954052300004+60117+019900FM-12+000399999V0200901N00411220001CN0200001N9+01221+01001101681ADDAY121999GF108991001001999999021999MW1021EQDQ01+000032APCTENQ02+000002APC3  
0108029700999991954052306004+60117+019900FM-12+000399999V0200701N00511220001CN0200001N9+01221+01111101691ADDAA199006091AY111999GF106991001001999999091011IA1109KA1999N+01001MW1011EQDQ01+000032APCTENQ02+000002APC3  
0062029700999991954052312004+60117+019900FM-12+000399999V0200901N00411220001CN0200001N9+01891+01111101681ADDAY111999GF101991011011012501001001MW1011EQDQ01+000002APC3  
0062029700999991954052318004+60117+019900FM-12+000399999V0200501N00511220001CN0200001N9+01501+00781101571ADDAY101999GF100991001001999999001001IA1009KA1999M+02001MW1001
0097029700999991954052406004+60117+019900FM-12+000399999V0209991C00001220001CN0200001N9+01111+00781101581ADDAY111999GF103991011011012501051001IA1089KA1999N+00391MW1011EQDQ01+000082APCTENQ02+000002APC3  
0057029700999991954052412004+60117+019900FM-12+000399999V0201801N00101030001CN0200001N9+01501+01001101621ADDAY111999GF105991041021008001061999MD1310051+9999MW1011
0095029700999991954052506004+60117+019900FM-12+000399999V0203601N00411220001CN0200001N9+01391+01111102041ADDAY111999GF102991999001999999041001IA1089KA1999N+00611MD1310091+9999MW1031EQDQ01+000002SCOTLC
0057029700999991954052512004+60117+019900FM-12+000399999V0200201N00311220001CN0200001N9+01781+01111102211ADDAY111999GF103991021011012501001021MD1310041+9999MW1031
0095029700999991954052518004+60117+019900FM-12+000399999V0200201N00101220001CN0200001N9+01501+00891102201ADDAY111999GF102991999001999999051001IA1009KA1999M+02001MD1810041+9999MW1031EQDQ01+000002SCOTLC
0082029700999991954052606004+60117+019900FM-12+000399999V0209991C00001220001CN0200001N9+01391+99999102391ADDAY111999GF105991999001999999091001IA1009MD1310031+9999MW1011EQDQ01+000002SCOTLC
0057029700999991954052612004+60117+019900FM-12+000399999V0202001N00211220001CN0200001N9+02001+01281102401ADDAY111999GF103991011031022501061091MD1990011+9999MW1011
0097029700999991954052618004+60117+019900FM-12+000399999V0200201N00211220001CN0200001N9+02001+01111102261ADDAY111999GF101991001001999999001021IA1009KA1999M+02281MW1011EQDQ01+000082APCTENQ02+000002APC3  
0097029700999991954052706004+60117+019900FM-12+000399999V0203401N00311220001CN0200001N9+01721+01111102321ADDAY101999GF102991001001999999001021IA1089KA1999N+00501MW1031EQDQ01+000032APCTENQ02+000002APC3  
0056029700999991954052712004+60117+019900FM-12+000399999V0200201N00311220001CN0200001N9+02281+01221102351ADDAY101999GF100991001001999999001001EQDQ01+000002APC3  
0073029700999991954052718004+60117+019900FM-12+000399999V0200201N00411220001CN0200001N9+01781+00891102321ADDAA199006091AY101999GF100991001001999999001001IA1009KA1999M+02391MW1001
0076029700999991954052806004+60117+019900FM-12+000399999V0203201N00211220001CN0200001N9+01501+00891102351ADDAY111999GF106991001001999999041071IA1009KA1999N+00781MD1310051+9999MW1031
0057029700999991954052812004+60117+019900FM-12+000399999V0201801N00511220001CN0200001N9+01781+01221102411ADDAY111999GF105991001001999999081021MD1310041+9999MW1011
0076029700999991954052818004+60117+019900FM-12+000399999V0201601N00411220001CN0200001N9+01501+00611102241ADDAY111999GF107991001001999999021071IA1009KA1999M+02001MD1810081+9999MW1031
0076029700999991954052900004+60117+019900FM-12+000399999V0209991C00001220001CN0200001N9+00721+00611102141ADDAY111999GF101991999001999999041001MD1810091+9999MW1011EQDQ01+000002SCOTLC
0094029700999991954052912004+60117+019900FM-12+000399999V0202001N00311220001CN0200001N9+01721+01221101951ADDAY111999GF102991999001999999051001MW1011EQDQ01+000002SCOTLCQ02+000082APCTENQ03+000002APC3  
0095029700999991954052918004+60117+019900FM-12+000399999V0203201N00211220001CN0200001N9+01891+00891101791ADDAY111999GF103991999001999999041001IA1009KA1999M+02111MD1810071+9999MW1031EQDQ01+000002SCOTLC
0076029700999991954053000004+60117+019900FM-12+000399999V0203201N00101220001CN0200001N9+00891+00781101711ADDAY111999GF103991999001999999041001MD1810111+9999MW1011EQDQ01+000002SCOTLC
0097029700999991954053006004+60117+019900FM-12+000399999V0203601N00511220001CN0160001N9+01721+01111101651ADDAY111999GF107991001001999999011999IA1009KA1999N+00781MW1051EQDQ01+000082APCTENQ02+000002APC3  
0078029700999991954053012004+60117+019900FM-12+000399999V0203401N00311220001CN0160001N9+02221+01281101641ADDAY101999GF100991001001999999001001MW1051EQDQ01+000082APCTENQ02+000002APC3  
0076029700999991954053018004+60117+019900FM-12+000399999V0201401N00211220001CN0200001N9+01781+01111101551ADDAY101999GF102991001001999999001021IA1009KA1999M+02281MD1810051+9999MW1031
0057029700999991954053100004+60117+019900FM-12+000399999V0201401N00101004501CN0160001N9+01111+01001101211ADDAY111999GF108991081071004501999999MD1810131+9999MW1031
0108029700999991954053106004+60117+019900FM-12+000399999V0200501N00511012301CN0160001N9+01281+00721101191ADDAA199000591AY121999GF106991061051012501999999IA1089KA1999N+01001MW1011EQDQ01+000032APCTENQ02+000002APC3  
0057029700999991954053112004+60117+019900FM-12+000399999V0203601N01031220001CN0200001N9+01001+00281999999ADDAY111999GF101991999001999999001021MD1310111+9999MW1011
0078029700999991954060100004+60117+019900FM-12+000399999V0203201N00411220001CN0200001N9+01001+00501101081ADDAY111999GF108991001001999999071999MW1031EQDQ01+000082APCTENQ02+000002APC3  
0095029700999991954060106004+60117+019900FM-12+000399999V0203601N00511220001CN0200001N9+01001+00611101211ADDAY111999GF105991999001999999061001IA1009KA1999N+00781MD1310071+9999MW1011EQDQ01+000002SCOTLC
0057029700999991954060112004+60117+019900FM-12+000399999V0203401N00411030001CN0200001N9+01281+00891101401ADDAY111999GF105991021021004501061001MD1310111+9999MW1011
0076029700999991954060118004+60117+019900FM-12+000399999V0203601N00511220001CN0200001N9+00891+00501101511ADDAY111999GF100991001001999999001001IA1009KA1999M+01391MD1310051+9999MW1001
0057029700999991954060200004+60117+019900FM-12+000399999V0209991C00001220001CN0200001N9+00281+00281101601ADDAY101999GF100991001001999999001001MD1310031+9999MW1001
0097029700999991954060206004+60117+019900FM-12+000399999V0203601N00101220001CN0200001N9+01001+00281101601ADDAY101999GF102991001001999999001021IA1089KA1999N+00111MW1031EQDQ01+000032APCTENQ02+000002APC3  
0076029700999991954060212004+60117+019900FM-12+000399999V0202001N00931220001CN0200001N9+01221+00391101391ADDAY111999GF105991999001999999051001MD1810161+9999MW1031EQDQ01+000002SCOTLC
0087029700999991954060218004+60117+019900FM-12+000399999V0202701N00411012301CN0200001N9+01001+00781100911ADDAA199000591AY111999GF106991061091012501999999IA1089KA1999M+01391MD1810161+9999MW1251
0057029700999991954060300004+60117+019900FM-12+000399999V0203601N00821220001CN0200001N9+00721+00221101401ADDAY101999GF100991001001999999001001MD1310231+9999MW1001
0076029700999991954060306004+60117+019900FM-12+000399999V0203601N01031220001CN0200001N9+00781+00281101711ADDAY111999GF102991001001999999001021IA1089KA1999N+00611MD1310171+9999MW1021
0057029700999991954060312004+60117+019900FM-12+000399999V0203601N01031220001CN0200001N9+01001+00281102091ADDAY111999GF101991001001999999001021MD1310111+9999MW1011
0062029700999991954060318004+60117+019900FM-12+000399999V0203601N00211220001CN0200001N9+01001+00001102191ADDAY111999GF101991001001999999001021IA1009KA1999M+01111MW1031
0094029700999991954060400004+60117+019900FM-12+000399999V0209991C00001220001CN0200001N9+00001+00001102221ADDAY111999GF101991999001999999041001MW1011EQDQ01+000002SCOTLCQ02+000032APCTENQ03+000002APC3  
0076029700999991954060406004+60117+019900FM-12+000399999V0202001N00211220001CN0200001N9+01001+00781101971ADDAY121999GF106991001001999999071999IA1009KA1999N-00111MD1810111+9999MW1021
0094029700999991954060412004+60117+019900FM-12+000399999V0203201N00311220001CN0200001N9+01611+00781101811ADDAY111999GF107991999091999999071999MW1031EQDQ01+000002SCOTLCQ02+000082APCTENQ03+000002APC3  
0095029700999991954060418004+60117+019900FM-12+000399999V0202301N00211220001CN0200001N9+01221+00721101691ADDAY111999GF105991999001999999071001IA1009KA1999M+01721MD1810051+9999MW1031EQDQ01+000002SCOTLC
0057029700999991954060500004+60117+019900FM-12+000399999V0209991C00001220001CN0200001N9+00391+00391101521ADDAY111999GF100991001001999999001001MD1810151+9999MW1001
0076029700999991954060506004+60117+019900FM-12+000399999V0203601N00511220001CN0200001N9+01281+00721101341ADDAY111999GF105991001001999999041021IA1009KA1999N+00281MD1810051+9999MW1031
0057029700999991954060512004+60117+019900FM-12+000399999V0203401N00511220001CN0200001N9+01611+00781101191ADDAY111999GF104991011011012501041021MD1810081+9999MW1021
0076029700999991954060518004+60117+019900FM-12+000399999V0203201N00101220001CN0200001N9+01281+00781100991ADDAY111999GF107991001001999999071999IA1009KA1999M+01611MD1810091+9999MW1031
0057029700999991954060600004+60117+019900FM-12+000399999V0203601N00621220001CN0200001N9+00891+00391100821ADDAY121999GF106991001001999999021999MD1810111+9999MW1011
0095029700999991954060606004+60117+019900FM-12+000399999V0203601N00721220001CN0200001N9+00891+00001101081ADDAY111999GF102991999001999999041001IA1009KA1999N+00611MD1310111+9999MW1021EQDQ01+000002SCOTLC
0057029700999991954060612004+60117+019900FM-12+000399999V0200501N00721220001CN0200001N9+00891+00001101151ADDAY111999GF100991001001999999001001MD1310051+9999MW1001
0076029700999991954060618004+60117+019900FM-12+000399999V0200201N00101220001CN0200001N9+00781-00111101081ADDAY101999GF101991001001999999001021IA1009KA1999M+01281MD1810071+9999MW1031
0076029700999991954060700004+60117+019900FM-12+000399999V0209991C00001220001CN0200001N9-00221-00221101051ADDAY101999GF103991999001999999041001MD1410001+9999MW1031EQDQ01+000002SCOTLC
0076029700999991954060706004+60117+019900FM-12+000399999V0200901N00101220001CN0200001N9+01111+00221101221ADDAY111999GF102991001001999999041021IA1089KA1999N-00281MD1310031+9999MW1011
0062029700999991954060712004+60117+019900FM-12+000399999V0202301N00311030001CN0200001N9+01281+00281101181ADDAY111999GF105991011011012501051001MW1011EQDQ01+000002APC3  
0076029700999991954060718004+60117+019900FM-12+000399999V0202801N00211220001CN0200001N9+01001+00281101151ADDAY121999GF106991001001999999091999IA1009KA1999M+01281MD1810041+9999MW1021
0057029700999991954060800004+60117+019900FM-12+000399999V0209991C00001220001CN0200001N9+00781+00281101051ADDAY121999GF107991001001999999091999MD1810121+9999MW1021
0097029700999991954060806004+60117+019900FM-12+000399999V0209991C00001220001CN0200001N9+00781+00611101061ADDAY121999GF108991001001999999021999IA1009KA1999N+00721MW1601EQDQ01+000032APCTENQ02+000002APC3  
0057029700999991954060812004+60117+019900FM-12+000399999V0201401N00211002401CN0200001N9+00891+00721101051ADDAY121999GF108991081071002501999999MD1310011+9999MW1611
0087029700999991954060818004+60117+019900FM-12+000399999V0201801N00101002401CN0110001N9+00721+00611100911ADDAA199005091AY161999GF108991081071002501999999IA1109KA1999M+01111MD1810051+9999MW1611
0078029700999991954060900004+60117+019900FM-12+000399999V0209991C00001220001CN0200001N9+00721+00721100891ADDAY121999GF108991001001999999021999MW1021EQDQ01+000032APCTENQ02+000002APC3  
0108029700999991954060906004+60117+019900FM-12+000399999V0209991C00001030001CN0200001N9+01001+00891100891ADDAA199002091AY121999GF106991021071002501061999IA1089KA1999N+00611MW1021EQDQ01+000032APCTENQ02+000002APC3  
0057029700999991954060912004+60117+019900FM-12+000399999V0201601N00101220001CN0200001N9+01611+01001100951ADDAY111999GF102991021011012501001001MD1990031+9999MW1011
0095029700999991954060918004+60117+019900FM-12+000399999V0201601N00101220001CN0200001N9+01111+00891100791ADDAY111999GF102991999001999999091001IA1009KA1999M+01611MD1810151+9999MW1011EQDQ01+000002SCOTLC
0078029700999991954061012004+60117+019900FM-12+000399999V0202001N00311220001CN0200001N9+01501+01221100351ADDAY111999GF108991001001999999071999MW1021EQDQ01+000042APCTENQ02+000192APC3  
0087029700999991954061018004+60117+019900FM-12+000399999V0202001N00511001501CN0044001N9+01111+01111100491ADDAA199004091AY161999GF108991081071001501999999IA1109KA1999M+01721MD1310051+9999MW1021
