0057029720999991952010100004+60517+022267FM-12+005499999V0202301N00931004501CN0140001N9+00391+00221098461ADDAY161999GF108991081061004501999999MD1810191+9999MW1211
0057029720999991952010112004+60517+022267FM-12+005499999V0202501N00721030001CN0200001N9+00391+00001098751ADDAY121999GF107991021051004501071061MD1310161+9999MW1021
0076029720999991952010118004+60517+022267FM-12+005499999V0202301N00621220001CN0200001N9+00221-00391099141ADDAY101999GF100991001001999999001001IA1009KA1999M+00501MD1310191+9999MW1021
0057029720999991952010200004+60517+022267FM-12+005499999V0202701N00571220001CN0200001N9+00221+00001099521ADDAY101999GF100991001001999999001001MD1310161+9999MW1021
0076029720999991952010206004+60517+022267FM-12+005499999V0202001N00311220001CN0140001N9+00221+00221099541ADDAY101999GF100991001001999999001001IA1139KA1999N+00111MD1510031+9999MW1021
0057029720999991952010212004+60517+022267FM-12+005499999V0200901N00721004501CN0110001N9+00111-00111099041ADDAY121999GF108991061061004501021999MD1810321+9999MW1011
0087029720999991952010218004+60517+022267FM-12+005499999V0200701N00511002401CN0038001N9+00001+00001098421ADDAA199001091AY171999GF108991081061002501999999IA1319KA1999M+00221MD1810271+9999MW1731
0057029720999991952010300004+60517+022267FM-12+005499999V0203201N00311002401CN0140001N9-00111-00221098321ADDAY121999GF108991081061002501999999MD1310041+9999MW1021
0087029720999991952010306004+60517+022267FM-12+005499999V0202501N00211220001CN0160001N9-00281-00281098491ADDAA199001091AY111999GF102991021061002501001001IA1319KA1999N-00391MD1310091+9999MW1111
0057029720999991952010312004+60517+022267FM-12+005499999V0202501N00311220001CN0090001N9-00111-00111098681ADDAY121999GF104991021051004501041001MD1210031+9999MW1111
0087029720999991952010318004+60517+022267FM-12+005499999V0202901N00511030001CN0140001N9+00001-00111099001ADDAA199000691AY121999GF107991041051002501071999IA1319KA1999M+00001MD1310201+9999MW1021
0076029720999991952010406004+60517+022267FM-12+005499999V0202701N00511007801CN0140001N9-00111-00281099941ADDAY121999GF108991081061008001999999IA1319KA1999N-00221MD1310171+9999MW1021
0057029720999991952010412004+60517+022267FM-12+005499999V0202501N00411004501CN0160001N9-00111-00221100371ADDAY171999GF108991081051004501999999MD1310161+9999MW1771
0087029720999991952010418004+60517+022267FM-12+005499999V0202501N00311220001CN0140001N9-00221-00391100721ADDAA199000391AY121999GF104991021051004501041999IA1319KA1999M+00001MD1310161+9999MW1011
0087029720999991952010506004+60517+022267FM-12+005499999V0201201N00211030001CN0140001N9-00391-00501101211ADDAA199000691AY121999GF108991041051004501011999IA1319KA1999N-00721MD1310121+9999MW1701
0057029720999991952010512004+60517+022267FM-12+005499999V0200401N00311007801CN0060001N9-00281-00391101591ADDAY171999GF107991071051008001999999MD1310091+9999MW1221
0087029720999991952010518004+60517+022267FM-12+005499999V0203601N00311007801CN0140001N9-00391-00391999999ADDAA199000691AY121999GF107991071051008001999999IA1319KA1999M-00221MD1310231+9999MW1021
0057029720999991952010600004+60517+022267FM-12+005499999V0203201N00211007801CN0160001N9-00611-00721102291ADDAY121999GF107991071051008001999999MD1310121+9999MW1031
0076029720999991952010606004+60517+022267FM-12+005499999V0201401N00211030001CN9999999N9-00781-00891102351ADDAY121999GF107991031061001501011999IA1319KA1999N-01111MD1810071+9999MW1031
0057029720999991952010612004+60517+022267FM-12+005499999V0202301N006219999999N0200001N9+00001-00391102151ADDAY121999GF108991071051999999999999MD1810171+9999MW1021
0087029720999991952010618004+60517+022267FM-12+005499999V0202301N00511002401CN0100001N9+00111+00001101741ADDAA199000391AY171999GF108991081061002501999999IA1209KA1999M+00111MD1510171+9999MW1021
0057029720999991952010700004+60517+022267FM-12+005499999V0202401N00511002401CN0100001N9+00281+00221101261ADDAY121999GF108991081061002501999999MD1810271+9999MW1021
0087029720999991952010706004+60517+022267FM-12+005499999V0202201N00511000601CN0160001N9+00391+00391100841ADDAA199000691AY151999GF108991081061000751999999IA1189KA1999N+00001MD1810241+9999MW1101
0057029720999991952010712004+60517+022267FM-12+005499999V0202501N00211002401CN0160001N9+00501+00391100451ADDAY121999GF108991081061002501999999MD1510171+9999MW1021
0076029720999991952010718004+60517+022267FM-12+005499999V0203201N00621030001CN0200001N9+00501+00221100521ADDAY151999GF107991021051004501071999IA1089KA1999M+00611MD1310191+9999MW1021
0057029720999991952010800004+60517+022267FM-12+005499999V0203001N00721220001CN0200001N9+00221-00221101251ADDAY101999GF100991001001999999001001MD1310281+9999MW1021
0095029720999991952010806004+60517+022267FM-12+005499999V0202301N00511220001CN0200001N9+00221-00111101241ADDAY101999GF101991999001999999071001IA1139KA1999N+00001MD1710091+9999MW1021EQDQ01+000002SCOTLC
0057029720999991952010812004+60517+022267FM-12+005499999V0202501N00411220001CN0200001N9+00221-00111101291ADDAY121999GF107991001001999999041061MD1210011+9999MW1021
0076029720999991952010818004+60517+022267FM-12+005499999V0202101N00411220001CN0200001N9+00221+00111101021ADDAY121999GF109991001001999999011071IA1089KA1999M+00281MD1810171+9999MW1031
0057029720999991952010900004+60517+022267FM-12+005499999V0202101N00511004501CN0200001N9+00281+00111100481ADDAY121999GF108991081051004501999999MD1810281+9999MW1021
0087029720999991952010906004+60517+022267FM-12+005499999V0202101N00721001501CN0070001N9+00391+00281099621ADDAA199000391AY161999GF108991081061001501999999IA1089KA1999N+00111MD1810451+9999MW1511
0057029720999991952010912004+60517+022267FM-12+005499999V0202201N01031001501CN0060001N9+00501+00281098941ADDAY161999GF108991081061001501999999MD1810311+9999MW1601
0087029720999991952010918004+60517+022267FM-12+005499999V0202001N00721030001CN0140001N9+00391+00221098691ADDAA199001091AY121999GF108991031051004501071999IA1089KA1999M+00501MD1810111+9999MW1021
0087029720999991952011006004+60517+022267FM-12+005499999V0202201N01131007801CN9999999N9+00281+00111098421ADDAA199001091AY171999GF108991081031008001999999IA1109KA1999N+00001MD1810191+9999MW1861
0057029720999991952011012004+60517+022267FM-12+005499999V0202001N00411030001CN0160001N9+00111-00111098041ADDAY121999GF107991031091004501041061MD1810151+9999MW1871
0087029720999991952011018004+60517+022267FM-12+005499999V0201801N00311220001CN0160001N9+00001-00111097841ADDAA199002091AY111999GF104991021051008001041001IA1319KA1999M+00281MD1810121+9999MW1031
0078029720999991952011100004+60517+022267FM-12+005499999V0201801N00311220001CN0200001N9+00111-00221097811ADDAY111999GF102991011051004501071011MW1011EQDQ01+000082APCTENQ02+000002APC3  
0087029720999991952011106004+60517+022267FM-12+005499999V0201601N00411075001CN0160001N9+00001-00111097711ADDAA199000691AY121999GF106991021051004501071061IA1309KA1999N-00111MD1810051+9999MW1011
0057029720999991952011112004+60517+022267FM-12+005499999V0201401N00821002401CN0004001N9+00111+00001097411ADDAY171999GF108991081061002501999999MD1810161+9999MW1731
0087029720999991952011118004+60517+022267FM-12+005499999V0201301N00511002401CN0060001N9+00111+00001097221ADDAA199003091AY171999GF108991081061002501999999IA1209KA1999M+00221MD1810111+9999MW1231
0057029720999991952011200004+60517+022267FM-12+005499999V0200601N00511004501CN0060001N9-00111-00111096991ADDAY121999GF108991081051004501999999MD1810131+9999MW1021
0108029720999991952011206004+60517+022267FM-12+005499999V0200301N00511004501CN0060001N9-00111-00281096991ADDAA199000691AY121999GF108991071051004501999999IA1319KA1999N-00281MW1021EQDQ01+000042APCTENQ02+000042APC3  
0057029720999991952011212004+60517+022267FM-12+005499999V0202601N00621004501CN0140001N9-00221-00391097281ADDAY121999GF108991081051004501999999MD1310161+9999MW1021
0076029720999991952011218004+60517+022267FM-12+005499999V0203501N00621004501CN0160001N9-00221-00391097791ADDAY121999GF108991081051004501999999IA1319KA1999M-00111MD1310281+9999MW1021
0076029720999991952011300004+60517+022267FM-12+005499999V0203201N00511220001CN0200001N9-00391-00781098421ADDAY111999GF108991999001999999041001MD1310361+9999MW1011EQDQ01+000002SCOTLC
0076029720999991952011306004+60517+022267FM-12+005499999V0203401N00511004501CN0200001N9-00221-00611099011ADDAY121999GF107991051051004501071999IA1319KA1999N-00611MD1310321+9999MW1011
0057029720999991952011312004+60517+022267FM-12+005499999V0203201N00411004501CN0200001N9-00111-00221099491ADDAY121999GF108991061051004501071999MD1310241+9999MW1021
0095029720999991952011318004+60517+022267FM-12+005499999V0203101N00311220001CN0200001N9-00391-00501099851ADDAY121999GF103991999001999999041001IA1319KA1999M-00111MD1310151+9999MW1011EQDQ01+000002SCOTLC
0076029720999991952011400004+60517+022267FM-12+005499999V0202701N00411220001CN0600001N9-00721-00781100091ADDAY121999GF101991999001999999041001MD1310031+9999MW1001EQDQ01+000002SCOTLC
0063029720999991952011406004+60517+022267FM-12+005499999V0203201N00211004501CN0160001N9-00501-00501100181ADDAY121999GF107991071051004501999999IA1319MD1110011+9999MW1021
0057029720999991952011412004+60517+022267FM-12+005499999V0201101N00211030001CN0090001N9-00281-00391100081ADDAY121999GF108991021051004501071071MD1810071+9999MW1021
0076029720999991952011418004+60517+022267FM-12+005499999V0201201N00411220001CN0160001N9-00281-00391099881ADDAY121999GF108991001001999999011999IA1319KA1999M-00281MD1810111+9999MW1021
0072029720999991952011500004+60517+022267FM-12+005499999V0201201N00311004501CN0002001N9-00111+99999099791ADDAY101999GF108991061061004501021999EQDQ01+000042APCTENQ02+000022APC3  
0108029720999991952011506004+60517+022267FM-12+005499999V0201801N00311002401CN0050001N9+00001+00001099741ADDAA199001091AY171999GF108991081061002501999999IA1319KA1999N-00391MW1681EQDQ01+000022APCTENQ02+000002APC3  
0057029720999991952011512004+60517+022267FM-12+005499999V0201801N00511002401CN0100001N9+00111-00111099381ADDAY171999GF107991061061002501071051MD1810271+9999MW1011
0122029720999991952011518004+60517+022267FM-12+005499999V0201601N00721001501CN0014001N9+00001+00001097992ADDAA199001091AY171999GF108991081061001501999999IA1209KA1999M+00221MD1810882+9999MW1691EQDQ01+097993APOSLPQ02+000882APC3  
0076029720999991952011600004+60517+022267FM-12+005499999V0202001N01031004501CN0070001N9+00391+00221096801ADDAY171999GF108991081061004501999999MD1810512+9999MW1681EQDQ01+000512APC3  
0108029720999991952011606004+60517+022267FM-12+005499999V0202501N00621001501CN0050001N9+00111+00111096521ADDAA199008091AY161999GF108991071061001501021999IA1199KA1999N+00001MW1631EQDQ01+000042APCTENQ02+000052APC3  
0057029720999991952011612004+60517+022267FM-12+005499999V0202901N00821002401CN0070001N9+00111+00001097201ADDAY171999GF108991071071002501021999MD1310361+9999MW1681
0087029720999991952011618004+60517+022267FM-12+005499999V0203001N009319999999N0140001N9-00111-00281098061ADDAA199000691AY111999GF108991071051999999999999IA1199KA1999M+00221MD1310401+9999MW1701
0057029720999991952011700004+60517+022267FM-12+005499999V0203001N00621007801CN0140001N9+00001-00391098801ADDAY121999GF108991081051008001999999MD1310351+9999MW1021
0087029720999991952011706004+60517+022267FM-12+005499999V0202401N00411004501CN0140001N9+00001-00221099261ADDAA199001091AY121999GF107991051051004501071999IA1199KA1999N-00221MD1310241+9999MW1021
0057029720999991952011712004+60517+022267FM-12+005499999V0202501N00311220001CN0200001N9+00001-00281099641ADDAY111999GF101991011051008001001001MD1310121+9999MW1011
0076029720999991952011718004+60517+022267FM-12+005499999V0201801N00211220001CN0140001N9-00501-00611099941ADDAY111999GF106991001001999999041999IA1199KA1999M+00001MD1310151+9999MW1031
0057029720999991952011800004+60517+022267FM-12+005499999V0201401N00211004501CN0160001N9-00221-00281100241ADDAY121999GF108991081051004501999999MD1310121+9999MW1021
0095029720999991952011806004+60517+022267FM-12+005499999V0201001N00311220001CN0100001N9-00221-00501100581ADDAY101999GF102991999001999999041001IA1199KA1999N-00611MD1310151+9999MW1011EQDQ01+000002SCOTLC
0057029720999991952011812004+60517+022267FM-12+005499999V0200901N00411002401CN0090001N9-00111-00281100921ADDAY121999GF108991081061002501999999MD1310081+9999MW1021
0076029720999991952011818004+60517+022267FM-12+005499999V0200701N00621004501CN0110001N9-00221-00391101121ADDAY121999GF106991061061004501999999IA1199KA1999M-00111MD1310151+9999MW1021
0057029720999991952011900004+60517+022267FM-12+005499999V0200701N00621004501CN0080001N9-00221-00281101281ADDAY171999GF108991081061004501999999MD1310071+9999MW1711
0087029720999991952011906004+60517+022267FM-12+005499999V0200901N00621030001CN0140001N9+99999+99999101511ADDAA199001091AY121999GF108991031061004501021999IA1319KA1999N-00221MD1310161+9999MW1021
0057029720999991952011912004+60517+022267FM-12+005499999V0200701N00411030001CN0140001N9-00111-00391101841ADDAY121999GF107991011051004501071061MD1310121+9999MW1011
0095029720999991952011918004+60517+022267FM-12+005499999V0200701N00511220001CN0160001N9-00221-00501102151ADDAY111999GF102991999001999999041001IA1319KA1999M+00001MD1310151+9999MW1011EQDQ01+000002SCOTLC
0076029720999991952012006004+60517+022267FM-12+005499999V0200401N00621004501CN0160001N9-00391-00721102751ADDAY121999GF108991081051004501999999IA1319KA1999N-00501MD1310091+9999MW1021
0057029720999991952012012004+60517+022267FM-12+005499999V0200201N00511220001CN0160001N9-00611-00891102941ADDAY101999GF101991001001999999041011MD1110071+9999MW1021
0076029720999991952012018004+60517+022267FM-12+005499999V0200201N00411220001CN0160001N9-00721-00891103201ADDAY101999GF100991001001999999001001IA1319KA1999M-00391MD1310161+9999MW1021
0057029720999991952012112004+60517+022267FM-12+005499999V0203601N00211220001CN0140001N9-00781-01001103541ADDAY111999GF100991001001999999001001MD1010011+9999MW1011
0043029720999991952012118004+60517+022267FM-12+005499999V0200201N00211220001CN0100001N9-01221-01281999999ADDAY101999GF100991001001999999001001MW1021
0057029720999991952012200004+60517+022267FM-12+005499999V0200701N00211220001CN0140001N9-01111-01221103511ADDAY121999GF107991001001999999071999MD1810121+9999MW1021
0095029720999991952012206004+60517+022267FM-12+005499999V0202501N00101220001CN0140001N9-01391-01501103211ADDAY101999GF101991999001999999041001IA1319KA1999N-01501MD1810191+9999MW1021EQDQ01+000002SCOTLC
0057029720999991952012212004+60517+022267FM-12+005499999V0202701N00411220001CN0140001N9-00221-00391999999ADDAY101999GF103991021011004501001011MD1810121+9999MW1011
0063029720999991952012218004+60517+022267FM-12+005499999V0202501N00411220001CN0160001N9-00391-00611102721ADDAY101999GF100991001001999999001001IA1319MD1810111+9999MW1011
0057029720999991952012300004+60517+022267FM-12+005499999V0202701N00411220001CN0160001N9-00721-00781102491ADDAY101999GF100991001001999999001001MD1810121+9999MW1021
0076029720999991952012306004+60517+022267FM-12+005499999V0202501N00211004501CN0160001N9-00391-00611999999ADDAY101999GF108991081061004501999999IA1319KA1999N-01221MD1810131+9999MW1021
0057029720999991952012312004+60517+022267FM-12+005499999V0202401N00511001501CN0090001N9-00391-00501102051ADDAY171999GF108991081061001501999999MD1810171+9999MW1711
0063029720999991952012318004+60517+022267FM-12+005499999V0202301N00511004501CN0140001N9-00391-00721101741ADDAY121999GF108991081061004501999999IA1319MD1810161+9999MW1021
0057029720999991952012400004+60517+022267FM-12+005499999V0202501N00721004501CN0140001N9-00281-00611101381ADDAY121999GF108991081061004501999999MD1810161+9999MW1021
0055029720999991952012418004+60517+022267FM-12+005499999V0202301N00511007801CN0140001N9-00281-00721100641ADDGF108991081051008001999999IA1319MD1810051+9999MW1021
0063029720999991952012506004+60517+022267FM-12+005499999V0201601N00311004501CN0140001N9+00001-00221099911ADDAY181999GF108991081051004501999999IA1309MD1810201+9999MW1021
0057029720999991952012512004+60517+022267FM-12+005499999V0201701N00411002401CN0010001N9-00111-00221099781ADDAY171999GF108991081061002501999999MD1810081+9999MW1731
0087029720999991952012518004+60517+022267FM-12+005499999V0201801N00211004501CN0110001N9-00221-00391099971ADDAA199001091AY121999GF108991061051004501071999IA1319KA1999M+00111MD1310131+9999MW1031
0057029720999991952012600004+60517+022267FM-12+005499999V0201601N00211030001CN0050001N9-00111-00111100091ADDAY171999GF108991041051008001021999MD1310071+9999MW1711
0087029720999991952012606004+60517+022267FM-12+005499999V0201401N00311004501CN0030001N9-00111-00111100061ADDAA199001091AY171999GF108991081061004501999999IA1319KA1999N-00281MD1810051+9999MW1731
0057029720999991952012612004+60517+022267FM-12+005499999V0201201N00311004501CN0090001N9-00111-00221100021ADDAY171999GF108991081061004501999999MD1810031+9999MW1221
0063029720999991952012618004+60517+022267FM-12+005499999V0201301N00211004501CN0060001N9-00111-00221100041ADDAY171999GF108991081051004501999999IA1319MD1110011+9999MW1711
0063029720999991952012706004+60517+022267FM-12+005499999V0201101N00511002401CN0050001N9-00111-00111099941ADDAY171999GF108991081061002501999999IA1209MD1810071+9999MW1711
0043029720999991952012712004+60517+022267FM-12+005499999V0200901N00311001501CN0050001N9-00111-00391099881ADDAY171999GF108991061061001501021999MW1711
0063029720999991952012718004+60517+022267FM-12+005499999V0200901N00411002401CN0060001N9-00391-00501099841ADDAY171999GF108991081061002501999999IA1209MD1710031+9999MW1221
0057029720999991952012800004+60517+022267FM-12+005499999V0200901N00311002401CN0040001N9-00501-00501099821ADDAY171999GF108991081061002501999999MD1610021+9999MW1561
0084029720999991952012806004+60517+022267FM-12+005499999V0200401N00311002401CN0030001N9-00611-00721099841ADDAY171999GF108991081061002501999999IA1319MW1731EQDQ01+000032APCTENQ02+000002APC3  
0057029720999991952012812004+60517+022267FM-12+005499999V0200901N00101220001CN0070001N9-00781-00891099881ADDAY171999GF108991001001999999071071MD1990031+9999MW1711
0063029720999991952012818004+60517+022267FM-12+005499999V0200201N00101004501CN0070001N9-00721-00781099991ADDAY171999GF108991051061004501021999IA1319MD1110051+9999MW1701
0057029720999991952012900004+60517+022267FM-12+005499999V0202301N00211004501CN0080001N9-00611-00721999999ADDAY121999GF108991081061004501999999MD1310011+9999MW1021
0087029720999991952012906004+60517+022267FM-12+005499999V0203201N00311002401CN0020001N9-00611-00721099971ADDAA199000391AY171999GF108991081061002501999999IA1319KA1999N-00781MD1610011+9999MW1731
0057029720999991952012912004+60517+022267FM-12+005499999V0203201N00411030001CN0040001N9-00391-00611100181ADDAY171999GF108991031061004501021999MD1310131+9999MW1711
0092029720999991952012918004+60517+022267FM-12+005499999V0202901N00211004501CN0080001N9-00391-00391999999ADDAA199000391AY171999GF108991081061004501999999IA1319KA1999M+99999MW1021EQDQ01 -00502ATMX  
0057029720999991952013000004+60517+022267FM-12+005499999V0202701N00211004501CN0090001N9-00281-00501100801ADDAY121999GF108991081061004501999999MD1310191+9999MW1021
0063029720999991952013006004+60517+022267FM-12+005499999V0202501N00211004501CN0090001N9-00391-00611100891ADDAY121999GF108991081051004501999999IA1319MD1110051+9999MW1021
0057029720999991952013012004+60517+022267FM-12+005499999V0202301N00311004501CN0140001N9-00501-00721101021ADDAY171999GF108991081051004501999999MD1210041+9999MW1771
0035029720999991952013018004+60517+022267FM-12+005499999V0200401N00411004501CN9999999N9+99999+99999999999ADDGF108991081051004501999999IA1319
0057029720999991952013112004+60517+022267FM-12+005499999V0200901N00101000601CN0014001N9-00221-00281100321ADDAY121999GF108991081061000751999999MD1810081+9999MW1101
0063029720999991952013118004+60517+022267FM-12+005499999V0201301N00411002401CN0060001N9-00111-00111100051ADDAY171999GF108991081061002501999999IA1319MD1810121+9999MW1221
0057029720999991952020100004+60517+022267FM-12+005499999V0201601N00511002401CN0060001N9+00001-00111099911ADDAY121999GF108991081061002501999999MD1810111+9999MW1021
0108029720999991952020106004+60517+022267FM-12+005499999V0201601N00511004501CN0080001N9+00001-00111099851ADDAA199001091AY121999GF108991081061004501999999IA1319KA1999N-00221MW1021EQDQ01+000042APCTENQ02+000032APC3  
0057029720999991952020112004+60517+022267FM-12+005499999V0201401N00621004501CN0140001N9-00221-00501099691ADDAY121999GF107991071061004501999999MD1810131+9999MW1021
0087029720999991952020118004+60517+022267FM-12+005499999V0202101N00821004501CN0070001N9-00221-00501099411ADDAA199000691AY121999GF108991081061004501999999IA1319KA1999M+00001MD1810151+9999MW1781
0078029720999991952020200004+60517+022267FM-12+005499999V0201401N00621002401CN0024001N9+00001-00111099351ADDAY171999GF108991081061002501999999MW1731EQDQ01+000032APCTENQ02+000002APC3  
0087029720999991952020206004+60517+022267FM-12+005499999V0201401N00361002401CN0060001N9+00111-00111099521ADDAA199000591AY171999GF108991081061002501999999IA1319KA1999N-00281MD1310121+9999MW1021
0057029720999991952020212004+60517+022267FM-12+005499999V0201601N00511002401CN0080001N9+00111-00111099761ADDAY121999GF108991081061002501999999MD1310031+9999MW1021
0076029720999991952020218004+60517+022267FM-12+005499999V0201401N00411004501CN0110001N9+00111-00111099811ADDAY121999GF107991071051004501999999IA1319KA1999M+00111MD1110051+9999MW1011
0078029720999991952020300004+60517+022267FM-12+005499999V0201601N00411002401CN0110001N9-00111-00391099811ADDAY121999GF108991081061002501999999MW1021EQDQ01+000032APCTENQ02+000002APC3  
0057029720999991952020312004+60517+022267FM-12+005499999V0201401N00311004501CN0140001N9+00001-00501999999ADDAY121999GF108991081061004501999999MD1310031+9999MW1021
0087029720999991952020406004+60517+022267FM-12+005499999V0200901N00101004501CN0024001N9-00281-00391100591ADDAA199000691AY171999GF108991081061004501999999IA1319KA1999N-00501MD1310131+9999MW1711
0057029720999991952020412004+60517+022267FM-12+005499999V0201301N00101000601CN0024001N9-00221-00221101001ADDAY121999GF108991081061000751999999MD1310151+9999MW1101
0076029720999991952020418004+60517+022267FM-12+005499999V0201401N00101000151CN0002001N9-00221-00221101261ADDAY141999GF108991081061000251999999IA1319KA1999M-00111MD1310111+9999MW1441
0057029720999991952020500004+60517+022267FM-12+005499999V0201101N00211000601CN0030001N9-00281-00281101551ADDAY141999GF108991081061000751999999MD1810081+9999MW1281
0076029720999991952020506004+60517+022267FM-12+005499999V0201601N00101004501CN0024001N9-00281-00281101741ADDAY121999GF108991081061004501999999IA1319KA1999N-00281MD1310071+9999MW1021
0057029720999991952020512004+60517+022267FM-12+005499999V0203601N00101030001CN0020001N9-00221-00221101951ADDAY121999GF108991031061004501071999MD1210051+9999MW1101
0076029720999991952020518004+60517+022267FM-12+005499999V0203501N00101007801CN0050001N9-00221-00221102041ADDAY121999GF108991081051008001999999IA1319KA1999M-00111MD1110051+9999MW1021
0057029720999991952020600004+60517+022267FM-12+005499999V0203601N00311004501CN0140001N9-00281-00391102151ADDAY121999GF108991081051004501999999MD1310041+9999MW1021
0076029720999991952020606004+60517+022267FM-12+005499999V0209991C00001004501CN0140001N9-00281-00391102051ADDAY121999GF108991081051004501999999IA1319KA1999N-00391MD1810081+9999MW1021
0057029720999991952020612004+60517+022267FM-12+005499999V0202001N00511004501CN0160001N9-00111-00391101861ADDAY121999GF108991081051004501999999MD1810161+9999MW1021
0076029720999991952020700004+60517+022267FM-12+005499999V0201601N00511002401CN0020001N9+00001-00111099991ADDAY171999GF108991081061002501999999MD1810602+9999MW1731EQDQ01+000602APC3  
0087029720999991952020706004+60517+022267FM-12+005499999V0202301N00411002401CN0110001N9+00111+00001099251ADDAA199004091AY161999GF108991081061002501999999IA1319KA1999N-00111MD1610211+9999MW1021
0057029720999991952020712004+60517+022267FM-12+005499999V0202301N00511004501CN0160001N9+00111-00111099001ADDAY121999GF108991081051004501999999MD1810111+9999MW1021
0076029720999991952020718004+60517+022267FM-12+005499999V0202301N00771004501CN0200001N9+00221-00111098901ADDAY111999GF106991061041004501001001IA1319KA1999M+00281MD1310031+9999MW1011
0057029720999991952020800004+60517+022267FM-12+005499999V0201601N00211220001CN0200001N9-00111-00111098451ADDAY131999GF107991001001999999041999MD1810171+9999MW1021
0076029720999991952020806004+60517+022267FM-12+005499999V0201401N00311004501CN0140001N9+00001+00001098181ADDAY121999GF108991081051004501999999IA1209KA1999N-00281MD1810111+9999MW1021
0057029720999991952020812004+60517+022267FM-12+005499999V0201601N00211001501CN0140001N9+00111+00001098081ADDAY121999GF108991051061001501071999MD1610081+9999MW1021
0087029720999991952020818004+60517+022267FM-12+005499999V0201601N00101001501CN0034001N9+00001+00001097981ADDAA199001091AY171999GF108991081061001501999999IA1209KA1999M+00111MD1810051+9999MW1601
0057029720999991952020900004+60517+022267FM-12+005499999V0203401N00211030001CN0140001N9-00111-00281098121ADDAY121999GF108991021061004501011999MD1310051+9999MW1021
0076029720999991952020906004+60517+022267FM-12+005499999V0203601N00311220001CN0140001N9-01001-01111098321ADDAY111999GF107991001001999999071999IA1319KA1999N-01111MD1310121+9999MW1031
0057029720999991952020912004+60517+022267FM-12+005499999V0203601N00311004501CN0034001N9-00611-00721098241ADDAY171999GF108991081061004501999999MD1810091+9999MW1731
0087029720999991952020918004+60517+022267FM-12+005499999V0203601N00211004501CN0044001N9-00391-00501098161ADDAA199000391AY171999GF108991071061004501071999IA1319KA1999M-00391MD1810011+9999MW1711
0078029720999991952021000004+60517+022267FM-12+005499999V0201801N00101004501CN0024001N9-00281-00281098141ADDAY171999GF108991081061004501999999MW1731EQDQ01+000072APCTENQ02+000002APC3  
0087029720999991952021006004+60517+022267FM-12+005499999V0201801N00101004501CN0090001N9-00391-00391098141ADDAA199001091AY171999GF108991081051004501999999IA1319KA1999N-00391MD1210011+9999MW1221
0078029720999991952021012004+60517+022267FM-12+005499999V0202201N00311001501CN0048001N9-00111-00281098281ADDAY111999GF108991051061001501071999MW1701EQDQ01+000042APCTENQ02+000072APC3  
0087029720999991952021018004+60517+022267FM-12+005499999V0202301N00311004501CN0140001N9-00281-00391098651ADDAA199000591AY171999GF107991071051004501999999IA1319KA1999M-00111MD1310241+9999MW1021
0043029720999991952021100004+60517+022267FM-12+005499999V0202801N00151004501CN0160001N9-00281-00391099051ADDAY121999GF108991081051004501999999MW1021
0087029720999991952021106004+60517+022267FM-12+005499999V0201101N00101004501CN9999999N9-00281-00281099361ADDAA199000691AY171999GF107991071051004501999999IA1319KA1999N-00391MD1310171+9999MW1411
0057029720999991952021112004+60517+022267FM-12+005499999V0201401N00311004501CN0110001N9-00221-00391099591ADDAY181999GF107991051091004501071999MD1310091+9999MW1261
0087029720999991952021118004+60517+022267FM-12+005499999V0201201N00411004501CN0080001N9-00281-00281099791ADDAA199002091AY111999GF107991071051004501999999IA1319KA1999M-00111MD1310131+9999MW1701
0078029720999991952021200004+60517+022267FM-12+005499999V0200701N00311004501CN0160001N9-00391-00611099821ADDAY121999GF107991071051004501999999MW1031EQDQ01+000032APCTENQ02+000002APC3  
0087029720999991952021206004+60517+022267FM-12+005499999V0200201N00411004501CN0140001N9-00721-00781099751ADDAA199000691AY121999GF108991081051004501999999IA1319KA1999N-00891MD1990051+9999MW1031
0057029720999991952021212004+60517+022267FM-12+005499999V0203601N00411004501CN0070001N9-00501-00781099551ADDAY171999GF108991061051004501071999MD1810131+9999MW1711
0106029720999991952021218004+60517+022267FM-12+005499999V0203201N00411220001CN0140001N9-01001-01111099641ADDAA199000691AY171999GF103991999001999999071001IA1319KA1999M-00501MD1310111+9999MW1021EQDQ01+000002SCOTLC
0057029720999991952021300004+60517+022267FM-12+005499999V0203301N00311007801CN0140001N9-00721-00781099891ADDAY121999GF108991081051008001999999MD1310191+9999MW1021
0076029720999991952021306004+60517+022267FM-12+005499999V0209991C00001012301CN0110001N9-00891-01001100221ADDAY121999GF107991071051012501999999IA1319KA1999N-01221MD1310161+9999MW1021
0087029720999991952021318004+60517+022267FM-12+005499999V0201401N00101030001CN0060001N9-00891-00891100651ADDAA199000391AY121999GF108991031061004501021999IA1319KA1999M-00281MD1210091+9999MW1701
0087029720999991952021406004+60517+022267FM-12+005499999V0200401N00101220001CN0070001N9-01611-01721100861ADDAA199000691AY111999GF104991021051004501071001IA1319KA1999N-01781MD1310041+9999MW1031
0057029720999991952021412004+60517+022267FM-12+005499999V0209991C00001220001CN0040001N9-01001-01001101111ADDAY101999GF102991001001999999001051MD1310011+9999MW1411
0076029720999991952021418004+60517+022267FM-12+005499999V0201201N00211220001CN0000001N9-01501-01611101391ADDAY141999GF100991001001999999001001IA1319KA1999M-00611MD1310131+9999MW1441
0057029720999991952021500004+60517+022267FM-12+005499999V0201401N00211004501CN0110001N9-01391-01501101621ADDAY121999GF108991081051004501999999MD1310121+9999MW1031
0063029720999991952021506004+60517+022267FM-12+005499999V0201601N00511002401CN0028001N9-00111-00111101691ADDAY171999GF108991081061002501999999IA1209MD1310051+9999MW1711
0057029720999991952021512004+60517+022267FM-12+005499999V0201401N00511002401CN0050001N9-00281-00391102001ADDAY171999GF108991081061002501999999MD1310151+9999MW1221
0108029720999991952021518004+60517+022267FM-12+005499999V0201401N00411004501CN0080001N9-00611-00721101981ADDAA199000591AY121999GF108991081061004501999999IA1319KA1999M-00111MW1021EQDQ01+000032APCTENQ02+000002APC3  
0057029720999991952021600004+60517+022267FM-12+005499999V0201401N00311007801CN0100001N9-00611-00721101751ADDAY121999GF107991071051008001999999MD1810171+9999MW1021
0076029720999991952021606004+60517+022267FM-12+005499999V0201501N00621004501CN0080001N9-00391-00611101391ADDAY121999GF107991071051004501999999IA1319KA1999N-00891MD1810211+9999MW1021
0057029720999991952021612004+60517+022267FM-12+005499999V0201601N00721004501CN0140001N9+00001-00281101241ADDAY121999GF108991081061004501999999MD1610031+9999MW1021
0108029720999991952021618004+60517+022267FM-12+005499999V0201601N00721004501CN0038001N9+00111-00111101151ADDAA199000691AY171999GF108991081061004501999999IA1319KA1999M+00111MW1681EQDQ01+000032APCTENQ02+000002APC3  
0057029720999991952021700004+60517+022267FM-12+005499999V0201601N00621002401CN0018001N9+00001+00001101051ADDAY171999GF108991081061002501999999MD1810071+9999MW1731
0087029720999991952021706004+60517+022267FM-12+005499999V0201401N00411001501CN0030001N9+00001+00001100831ADDAA199008091AY171999GF108991081061001501999999IA1319KA1999N-00111MD1610081+9999MW1211
0057029720999991952021712004+60517+022267FM-12+005499999V0202901N00981002401CN0140001N9+00001-00221101061ADDAY171999GF107991071061002501999999MD1310241+9999MW1011
0087029720999991952021718004+60517+022267FM-12+005499999V0202501N00101004501CN0160001N9-00111-00281101511ADDAA199002091AY121999GF108991081061004501999999IA1319KA1999M+00111MD1310241+9999MW1021
0057029720999991952021800004+60517+022267FM-12+005499999V0209991C00001004501CN0160001N9+99999+99999101611ADDAY121999GF108991081061004501999999MD1310051+9999MW1021
0076029720999991952021806004+60517+022267FM-12+005499999V0201401N00211004501CN0050001N9-00391-00391101661ADDAY121999GF107991071061004501999999IA1319KA1999N-00391MD1310051+9999MW1041
0078029720999991952021812004+60517+022267FM-12+005499999V0209991C00001075001CN0090001N9-00221-00391101761ADDAY111999GF105991021021008001041061MW1011EQDQ01+000022APCTENQ02+000002APC3  
0076029720999991952021818004+60517+022267FM-12+005499999V0201801N00211007801CN0090001N9-00281-00501101611ADDAY121999GF108991081051008001999999IA1319KA1999M-00111MD1810091+9999MW1031
0076029720999991952021906004+60517+022267FM-12+005499999V0201201N00411004501CN0090001N9-00281-00391101061ADDAY121999GF107991061051004501071999IA1319KA1999N-00611MD1810071+9999MW1021
0057029720999991952021912004+60517+022267FM-12+005499999V0201301N00511002401CN0014001N9-00221-00281101011ADDAY171999GF108991081061002501999999MD1810051+9999MW1731
0087029720999991952021918004+60517+022267FM-12+005499999V0201401N004119999999N0050001N9-00281-00391101021ADDAA199001091AY171999GF108991081061999999999999IA1319KA1999M-00221MD1310041+9999MW1711
0078029720999991952022000004+60517+022267FM-12+005499999V0201401N00211004501CN0140001N9-00281-00281101021ADDAY121999GF108991051051004501071999MW1021EQDQ01+000072APCTENQ02+000002APC3  
0062029720999991952022006004+60517+022267FM-12+005499999V0202201N00511002401CN0160001N9-00221-00281101051ADDAY121999GF108991999061002501001041MW1031EQDQ01+000082SCOTLC
0057029720999991952022012004+60517+022267FM-12+005499999V0201801N00511004501CN0200001N9+00001-00111100941ADDAY121999GF108991081051004501999999MD1810111+9999MW1021
0063029720999991952022018004+60517+022267FM-12+005499999V0202801N00721004501CN0140001N9+00001+00001100351ADDAY171999GF107991071051004501999999IA1319MD1810371+9999MW1021
0057029720999991952022100004+60517+022267FM-12+005499999V0202001N00821001501CN0060001N9+00111+00111099521ADDAY151999GF108991081061001501999999MD1810431+9999MW1511
0073029720999991952022106004+60517+022267FM-12+005499999V0202301N00311001501CN0080001N9+00111+00111098981ADDAA199006091AY171999GF108991081061001501999999IA1309KA1999N+00001MW1021
0078029720999991952022112004+60517+022267FM-12+005499999V0203201N00311000601CN0030001N9+00111+00001098851ADDAY171999GF108991081061000751999999MW1021EQDQ01+000042APCTENQ02+000012APC3  
0055029720999991952022118004+60517+022267FM-12+005499999V0202801N00621220001CN0160001N9-00111-00221999999ADDGF100991001001999999001001IA1209MD1310201+9999MW1011
0057029720999991952022200004+60517+022267FM-12+005499999V0203201N00211007801CN0160001N9-00281-00281099351ADDAY111999GF105991051051008001001001MD1310051+9999MW1011
0076029720999991952022206004+60517+022267FM-12+005499999V0203601N00211002401CN0070001N9-00501-00501099651ADDAY141999GF108991081061002501999999IA1209KA1999N-01001MD1310251+9999MW1031
0057029720999991952022212004+60517+022267FM-12+005499999V0203201N00311001501CN0140001N9-00221-00281099971ADDAY121999GF108991081061001501999999MD1310121+9999MW1021
0076029720999991952022218004+60517+022267FM-12+005499999V0203601N00101007801CN0140001N9-00281-00281100321ADDAY121999GF107991071051008001999999IA1319KA1999M-00111MD1310171+9999MW1021
0057029720999991952022300004+60517+022267FM-12+005499999V0200201N00101007801CN0140001N9-00501-00611100401ADDAY121999GF108991081061008001999999MD1310071+9999MW1021
0076029720999991952022306004+60517+022267FM-12+005499999V0209991C00001007801CN0050001N9-00501-00611100371ADDAY121999GF108991051061008001071999IA1319KA1999N-00611MD1990051+9999MW1011
0057029720999991952022312004+60517+022267FM-12+005499999V0200401N00311004501CN0040001N9-00281-00501100641ADDAY171999GF108991081061004501999999MD1310071+9999MW1711
0106029720999991952022318004+60517+022267FM-12+005499999V0200201N00211220001CN0070001N9-00611-00611101091ADDAA199000391AY171999GF104991999001999999071001IA1319KA1999M-00221MD1310391+9999MW1011EQDQ01+000002SCOTLC
0057029720999991952022400004+60517+022267FM-12+005499999V0203601N00101220001CN0050001N9-00891-00891101571ADDAY101999GF100991001001999999001001MD1310271+9999MW1011
0087029720999991952022406004+60517+022267FM-12+005499999V0203601N00051002401CN0040001N9-00891-00891101941ADDAA199000691AY171999GF108991081061002501999999IA1319KA1999N-01501MD1310211+9999MW1711
0057029720999991952022412004+60517+022267FM-12+005499999V0202801N00101220001CN0060001N9-00391-00501102261ADDAY171999GF101991011051004501001001MD1310121+9999MW1051
0087029720999991952022418004+60517+022267FM-12+005499999V0200401N00101220001CN0048001N9-00721-00721102561ADDAA199000691AY111999GF104991041051008001999999IA1319KA1999M-00281MD1310191+9999MW1111
0057029720999991952022500004+60517+022267FM-12+005499999V0209991C00001000151CN0000001N9-01391-01501102801ADDAY141999GF109991091999000251999999MD1310111+9999MW1461
0076029720999991952022506004+60517+022267FM-12+005499999V0200401N00051000151CN0002001N9-01221-01391102891ADDAY141999GF109991091999000251999999IA1319KA1999N-01721MD1310051+9999MW1451
0076029720999991952022512004+60517+022267FM-12+005499999V0209991C00001220001CN0008001N9-00721-00721102861ADDAY141999GF102991999001999999041001MD1810071+9999MW1441EQDQ01+000002SCOTLC
0076029720999991952022518004+60517+022267FM-12+005499999V0209991C00001220001CN0020001N9-01111-01221102651ADDAY141999GF102991001001999999001051IA1319KA1999M-00501MD1810151+9999MW1281
0057029720999991952022600004+60517+022267FM-12+005499999V0201201N00211004501CN0040001N9-00721-00781102401ADDAY171999GF108991081061004501999999MD1810171+9999MW1721
0087029720999991952022606004+60517+022267FM-12+005499999V0201401N00411001501CN0014001N9-00391-00391101951ADDAA199002091AY151999GF108991081061001501999999IA1319KA1999N-01391MD1810231+9999MW1561
0057029720999991952022612004+60517+022267FM-12+005499999V0201401N00411001501CN0030001N9-00111-00221101821ADDAY151999GF108991081061001501999999MD1710011+9999MW1561
0108029720999991952022618004+60517+022267FM-12+005499999V0201401N00411001501CN0046001N9-00281-00391101941ADDAA199000391AY121999GF108991081061001501999999IA1319KA1999M-00111MW1021EQDQ01+000042APCTENQ02+000092APC3  
0057029720999991952022700004+60517+022267FM-12+005499999V0201201N00411001501CN0040001N9-00501-00501102191ADDAY121999GF108991081061001501999999MD1310091+9999MW1021
0076029720999991952022706004+60517+022267FM-12+005499999V0201301N002119999999N0038001N9-00781-00891102391ADDAY121999GF108991011061001501999999IA1319KA1999N-00891MD1310131+9999MW1021
0057029720999991952022712004+60517+022267FM-12+005499999V0201401N00211001501CN0030001N9-00781-00781102411ADDAY121999GF108991081061001501999999MD1710011+9999MW1021
0063029720999991952022718004+60517+022267FM-12+005499999V0201401N00211004501CN0080001N9-00721-00891102381ADDAY121999GF108991081061004501999999IA1319MD1610011+9999MW1021
0057029720999991952022800004+60517+022267FM-12+005499999V0201401N00411024001CN0110001N9-00721-00891102371ADDAY121999GF108991081001999999021999MD1810011+9999MW1021
0076029720999991952022806004+60517+022267FM-12+005499999V0201401N00311004501CN0110001N9-00611-00781102211ADDAY121999GF107991051061004501071999IA1319KA1999N-00781MD1610051+9999MW1011
0057029720999991952022812004+60517+022267FM-12+005499999V0201601N00511004501CN0044001N9-00391-00611102061ADDAY171999GF108991081061004501999999MD1810091+9999MW1711
0087029720999991952022818004+60517+022267FM-12+005499999V0201401N00311002401CN0040001N9-00281-00391101711ADDAA199000591AY171999GF108991081061002501999999IA1319KA1999M-00281MD1810161+9999MW1711
0087029720999991952022906004+60517+022267FM-12+005499999V0203601N00211002401CN0050001N9-00391-00391101401ADDAA199001091AY121999GF108991081061002501999999IA1319KA1999N-00391MD1810071+9999MW1021
0057029720999991952022912004+60517+022267FM-12+005499999V0201401N00101000601CN0030001N9-00221-00221101171ADDAY121999GF108991081061000751999999MD1810151+9999MW1021
0087029720999991952022918004+60517+022267FM-12+005499999V0201401N00311002401CN0020001N9-00221-00281100831ADDAA199000591AY171999GF108991081061002501999999IA1319KA1999M-00221MD1810151+9999MW1711
0073029720999991952030106004+60517+022267FM-12+005499999V0202901N00411004501CN0090001N9-00281-00391100041ADDAA199005091AY121999GF108991051051004501021999IA1319KA1999N-00391MW1031
0057029720999991952030112004+60517+022267FM-12+005499999V0203201N006219999999N0140001N9-00221-00501100221ADDAY121999GF108991999999999999011999MD1310111+9999MW1021
0063029720999991952030118004+60517+022267FM-12+005499999V0209999999999004501CN0080001N9-00391-00611100621ADDAY121999GF107991061061004501071999IA1319MD1310191+9999MW1701
0057029720999991952030200004+60517+022267FM-12+005499999V0203301N00511030001CN0100001N9-00611-00781100821ADDAY171999GF107991041061004501071999MD1310081+9999MW1711
0087029720999991952030206004+60517+022267FM-12+005499999V0203401N00311004501CN0060001N9-00891-00891101001ADDAA199000691AY171999GF108991081061004501999999IA1319KA1999N-00891MD1310071+9999MW1701
0057029720999991952030212004+60517+022267FM-12+005499999V0203201N00311220001CN0070001N9-00611-00891101021ADDAY101999GF104991021061004501001051MD1610031+9999MW1051
0097029720999991952030218004+60517+022267FM-12+005499999V0203201N00411004501CN0060001N9-00891-01001101051ADDAY111999GF108991081061004501999999IA1319KA1999M-00611MW1701EQDQ01+000042APCTENQ02+000042APC3  
0076029720999991952030300004+60517+022267FM-12+005499999V0203601N00101220001CN0070001N9-01611-01721101081ADDAY101999GF102991999001999999071001MD1310041+9999MW1021EQDQ01+000002SCOTLC
0087029720999991952030306004+60517+022267FM-12+005499999V0200401N00101220001CN0028001N9-01781-01891101381ADDAA199000691AY111999GF107991001001999999001061IA1319KA1999N-02001MD1310171+9999MW1031
0057029720999991952030312004+60517+022267FM-12+005499999V0201401N00621004501CN0090001N9-00391-00611101721ADDAY121999GF107991061051004501001061MD1310201+9999MW1021
0087029720999991952030318004+60517+022267FM-12+005499999V0201401N00511030001CN0070001N9-00611-01001102081ADDAA199000691AY121999GF107991021051004501021061IA1319KA1999M-00391MD1310171+9999MW1021
0076029720999991952030406004+60517+022267FM-12+005499999V0201101N00411220001CN0034001N9-00891-01001102821ADDAY121999GF106991001001999999071999IA1319KA1999N-01001MD1310251+9999MW1021
0057029720999991952030412004+60517+022267FM-12+005499999V0201301N00511220001CN0070001N9-00221-00611103021ADDAY111999GF103991001001999999071051MD1310041+9999MW1051
0076029720999991952030418004+60517+022267FM-12+005499999V0201201N00211220001CN0040001N9-00891-01001103091ADDAY111999GF103991001001999999001051IA1319KA1999M-00111MD1210011+9999MW1011
0057029720999991952030500004+60517+022267FM-12+005499999V0200901N00211220001CN0050001N9-01221-01221103211ADDAY101999GF102991001001999999001051MD1310031+9999MW1021
0097029720999991952030506004+60517+022267FM-12+005499999V0200901N00211220001CN0030001N9-00611-01721103321ADDAY111999GF105991001001999999001061IA1319KA1999N-01721MW1031EQDQ01+000042APCTENQ02+000072APC3  
0057029720999991952030512004+60517+022267FM-12+005499999V0201101N00511220001CN0140001N9-00221-00781103221ADDAY101999GF103991001001999999001021MD1810051+9999MW1021
0076029720999991952030518004+60517+022267FM-12+005499999V0201201N00311220001CN0090001N9-00721-01221103261ADDAY111999GF102991001001999999001021IA1319KA1999M-00111MD1310081+9999MW1011
0076029720999991952030606004+60517+022267FM-12+005499999V0201201N00101220001CN0016001N9-01611-01781103481ADDAY111999GF102991001001999999001051IA1319KA1999N-01781MD1310081+9999MW1101
0057029720999991952030612004+60517+022267FM-12+005499999V0201601N00411220001CN0090001N9-00111-00721103691ADDAY101999GF102991001001999999001011MD1310111+9999MW1021
0076029720999991952030618004+60517+022267FM-12+005499999V0201601N00211220001CN0100001N9-00721-00781103681ADDAY101999GF102991001001999999001051IA1319KA1999M+00001MD1410001+9999MW1021
0057029720999991952030700004+60517+022267FM-12+005499999V0201801N00311220001CN0060001N9-01611-01721103761ADDAY141999GF102991001001999999001051MD1310041+9999MW1121
0076029720999991952030706004+60517+022267FM-12+005499999V0202801N00211220001CN0002001N9-01721-01891103781ADDAY141999GF104991001001999999001051IA1319KA1999N-01891MD1110041+9999MW1461
0057029720999991952030712004+60517+022267FM-12+005499999V0202301N00511220001CN0200001N9+00112-00611103891ADDAY101999GF102991001001999999001051MD1110041+9999MW1021
0076029720999991952030718004+60517+022267FM-12+005499999V0202201N00211220001CN0160001N9-00391-00611103821ADDAY101999GF100991001001999999001001IA1319KA1999M+00111MD1710031+9999MW1011
0057029720999991952030800004+60517+022267FM-12+005499999V0201801N00101220001CN0004001N9-01721-01891103791ADDAY141999GF100991001001999999001001MD1810041+9999MW1441
0076029720999991952030806004+60517+022267FM-12+005499999V0201801N00101220001CN0002001N9-01781-01891103261ADDAY141999GF100991001001999999001001IA1319KA1999N-01781MD1810111+9999MW1441
0057029720999991952030812004+60517+022267FM-12+005499999V0202001N00721220001CN0200001N9-00111-00611103411ADDAY101999GF101991001001999999001011MD1810121+9999MW1021
0054029720999991952030818004+60517+022267FM-12+005499999V0202101N00621220001CN0200001N9-00111-00391102951ADDGF101991001001999999001051IA1319KA1999M+00221MW1021
0057029720999991952030900004+60517+022267FM-12+005499999V0202301N00511220001CN0400001N9-00221-00501102591ADDAY101999GF100991001001999999001001MD1810171+9999MW1021
0076029720999991952030906004+60517+022267FM-12+005499999V0202301N00411220001CN0200001N9-00281-00721102201ADDAY101999GF100991001001999999001001IA1319KA1999N-00891MD1810171+9999MW1021
0043029720999991952030912004+60517+022267FM-12+005499999V0202301N00821030001CN0200001N9+00111-00221101971ADDGF107991021051008001071999MD1810161+9999
0076029720999991952030918004+60517+022267FM-12+005499999V0202301N00211220001CN0160001N9-00111-00391101781ADDAY121999GF107991001001999999071999IA1319KA1999M+00111MD1810111+9999MW1021
0076029720999991952031006004+60517+022267FM-12+005499999V0201801N00211220001CN0008001N9-01001-01111101441ADDAY111999GF106991001001999999001061IA1319KA1999N-01221MD1810151+9999MW1111
0057029720999991952031012004+60517+022267FM-12+005499999V0202201N00211220001CN0100001N9+00281-00391101401ADDAY121999GF108991001001999999041071MD1990031+9999MW1051
0076029720999991952031018004+60517+022267FM-12+005499999V0202001N00311220001CN0090001N9+00001-00221101221ADDAY121999GF107991001001999999041071IA1319KA1999M+00391MD1710051+9999MW1031
0095029720999991952031106004+60517+022267FM-12+005499999V0201601N00261220001CN0002001N9-00281-00391100711ADDAY141999GF104991999001999999041001IA1319KA1999N-00281MD1810151+9999MW1421EQDQ01+000002SCOTLC
0076029720999991952031112004+60517+022267FM-12+005499999V0202201N004119999999N0080001N9+00221-00111100451ADDAY121999GF108991999001022501071999MD1810111+9999MW1601EQDQ01+000002SCOTLC
0087029720999991952031118004+60517+022267FM-12+005499999V0202001N00311001501CN0040001N9+00111+00001100181ADDAA199000391AY171999GF108991081061001501999999IA1199KA1999M+00281MD1610111+9999MW1021
0057029720999991952031200004+60517+022267FM-12+005499999V0202301N00311001501CN0040001N9+00001+00001099861ADDAY121999GF108991081061001501999999MD1810171+9999MW1021
0076029720999991952031206004+60517+022267FM-12+005499999V0203101N00621001501CN0060001N9+00111-00111099741ADDAY121999GF108991081061001501999999IA1319KA1999N+00001MD1210031+9999MW1021
0057029720999991952031212004+60517+022267FM-12+005499999V0203201N00821004501CN0200001N9+00111-00611099921ADDAY121999GF106991051021004501041001MD1110111+9999MW1011
0087029720999991952031218004+60517+022267FM-12+005499999V0202701N00411220001CN0200001N9-00281-00781099841ADDAA199000691AY101999GF101991011041004501001051IA1319KA1999M+00111MD1810051+9999MW1021
0057029720999991952031300004+60517+022267FM-12+005499999V0203401N00311004501CN0060001N9-00391-00611099601ADDAY171999GF107991051051004501071999MD1610031+9999MW1231
0063029720999991952031306004+60517+022267FM-12+005499999V0203201N00411220001CN0140001N9-00781-00891099781ADDAY111999GF107991001001999999041061IA1319MD1310111+9999MW1021
0057029720999991952031312004+60517+022267FM-12+005499999V0203401N00821075001CN0140001N9-00501-01001100161ADDAY171999GF107991041011004501001071MD1310111+9999MW1011
0076029720999991952031406004+60517+022267FM-12+005499999V0203401N00211220001CN0200001N9-01391-01501101851ADDAY101999GF100991001001999999001001IA1319KA1999N-01611MD1310111+9999MW1021
0057029720999991952031412004+60517+022267FM-12+005499999V0202701N00311075001CN0200001N9-00391-01111101841ADDAY101999GF105991011051008001001021MD1810131+9999MW1021
0076029720999991952031418004+60517+022267FM-12+005499999V0200801N00411030001CN0080001N9-00281-00721101011ADDAY121999GF108991041061004501071999IA1319KA1999M-00281MD1810441+9999MW1801
0057029720999991952031500004+60517+022267FM-12+005499999V0203401N00511004501CN0090001N9-00281-00391100311ADDAY121999GF108991081061004501999999MD1810191+9999MW1021
0087029720999991952031506004+60517+022267FM-12+005499999V0203401N00411002401CN0140001N9-00221-00281100311ADDAA199001091AY121999GF108991081061002501999999IA1319KA1999N-00391MD1310041+9999MW1021
0057029720999991952031512004+60517+022267FM-12+005499999V0203601N00211004501CN0200001N9-00111-00391100481ADDAY121999GF107991071051004501999999MD1310041+9999MW1021
0063029720999991952031518004+60517+022267FM-12+005499999V0201401N00151030001CN0160001N9-00111-00501100521ADDAY121999GF108991021061004501071999IA1319MD1210031+9999MW1711
0087029720999991952031606004+60517+022267FM-12+005499999V0202501N00511004501CN0090001N9+00001-00221099541ADDAA199003091AY171999GF108991081061004501999999IA1319KA1999N-00391MD1810241+9999MW1221
0057029720999991952031612004+60517+022267FM-12+005499999V0202901N00931004501CN0200001N9-00281-00611099661ADDAY121999GF108991081051004501999999MD1310151+9999MW1021
0095029720999991952031618004+60517+022267FM-12+005499999V0203601N00721007801CN0160001N9-00781-01111100542ADDAY121999GF105991051051008001001001IA1319KA1999M+00221MD1310381+9999MW1011EQDQ01+100543APOSLP
0076029720999991952031706004+60517+022267FM-12+005499999V0203601N00211220001CN0200001N9-01721-01891101651ADDAY101999GF100991001001999999001001IA1319KA1999N-02001MD1310201+9999MW1021
0057029720999991952031712004+60517+022267FM-12+005499999V0202401N00261220001CN0400001N9+99999+99999101951ADDAY101999GF100991001001999999001001MD1310111+9999MW1021
0076029720999991952031718004+60517+022267FM-12+005499999V0203601N00211220001CN0200001N9-01221-01891102311ADDAY101999GF101991001001999999041051IA1319KA1999M-00501MD1310231+9999MW1021
0057029720999991952031800004+60517+022267FM-12+005499999V0200701N00101220001CN0200001N9+99999+99999102651ADDAY101999GF100991001001999999001001MD1310171+9999MW1021
0062029720999991952031806004+60517+022267FM-12+005499999V0200401N00101220001CN0020001N9+99999+99999102891ADDAY121999GF100991001001999999001001IA1319KA1999N-02501MW1101
0076029720999991952031812004+60517+022267FM-12+005499999V0201601N00211220001CN0160001N9-00391-02111102941ADDAY121999GF105991999001999999071001MD1210031+9999MW1011EQDQ01+000002SCOTLC
0097029720999991952031818004+60517+022267FM-12+005499999V0202701N00211004501CN0200001N9-00611-01111102821ADDAY121999GF107991071051004501999999IA1319KA1999M-00281MW1021EQDQ01+000042APCTENQ02+000072APC3  
0057029720999991952031900004+60517+022267FM-12+005499999V0200401N00311220001CN0200001N9+99999+99999999999ADDAY171999GF103991031051008001001001MD1310041+9999MW1011
0087029720999991952031906004+60517+022267FM-12+005499999V0200201N00211220001CN0160001N9-01501-01721102961ADDAA199000691AY101999GF100991001001999999001001IA1319KA1999N-01611MD1110081+9999MW1021
0057029720999991952031912004+60517+022267FM-12+005499999V0200901N00511220001CN0200001N9-00501-01391102881ADDAY101999GF100991001001999999001001MD1810091+9999MW1021
0076029720999991952031918004+60517+022267FM-12+005499999V0200201N00211220001CN0140001N9-01001-01721102601ADDAY101999GF101991001001999999001051IA1319KA1999M-00501MD1610111+9999MW1021
0057029720999991952032000004+60517+022267FM-12+005499999V0203601N00101220001CN0140001N9-01781-02001102341ADDAY101999GF100991001001999999001001MD1810151+9999MW1021
0076029720999991952032006004+60517+022267FM-12+005499999V0203601N00211220001CN0160001N9-01891-02111102001ADDAY101999GF101991001001999999001051IA1319KA1999N-02111MD1810161+9999MW1021
0076029720999991952032018004+60517+022267FM-12+005499999V0200701N00151220001CN0160001N9-00891-01611101381ADDAY121999GF106991001001999999071999IA1319KA1999M-00501MD1210011+9999MW1031
0076029720999991952032118004+60517+022267FM-12+005499999V0200401N00211220001CN0140001N9-01281-01721101781ADDAY101999GF101991001001999999001051IA1319KA1999M-00611MD1310171+9999MW1021
0078029720999991952032200004+60517+022267FM-12+005499999V0200201N00211220001CN0140001N9-01891-02001101851ADDAY101999GF100991001001999999001001MW1021EQDQ01+000032APCTENQ02+000002APC3  
0057029720999991952032212004+60517+022267FM-12+005499999V0203201N00211001501CN0050001N9-00611-01221101281ADDAY171999GF107991071031001501001041MD1810211+9999MW1711
0087029720999991952032218004+60517+022267FM-12+005499999V0209991C00001075001CN0020001N9-01221-01281100591ADDAA199001091AY171999GF108991031051004501001071IA1319KA1999M-00501MD1810091+9999MW1111
0057029720999991952032300004+60517+022267FM-12+005499999V0209991C00001220001CN0070001N9-01891-02001100811ADDAY101999GF100991001001999999001001MD1810071+9999MW1011
0087029720999991952032306004+60517+022267FM-12+005499999V0202401N00101002401CN0006001N9-02001-02221100781ADDAA199000691AY141999GF108991051061002501071999IA1319KA1999N-02281MD1510001+9999MW1771
0057029720999991952032312004+60517+022267FM-12+005499999V0202701N00101220001CN0100001N9-00721-01001100711ADDAY101999GF101991011021008001001001MD1510051+9999MW1051
0076029720999991952032318004+60517+022267FM-12+005499999V0202701N00211220001CN0140001N9-01111-01611100741ADDAY121999GF107991001001999999001071IA1319KA1999M-00611MD1110051+9999MW1021
0078029720999991952032400004+60517+022267FM-12+005499999V0209991C00001220001CN0080001N9-01611-01721100711ADDAY101999GF103991001001999999001051MW1021EQDQ01+000032APCTENQ02+000002APC3  
0076029720999991952032406004+60517+022267FM-12+005499999V0200601N00211220001CN0050001N9-01891-02111100841ADDAY121999GF104991011071008001001051IA1319KA1999N-02111MD1210031+9999MW1021
0057029720999991952032412004+60517+022267FM-12+005499999V0200701N00211075001CN0090001N9-00721-01111100841ADDAY111999GF105991031021004501001051MD1310031+9999MW1051
0076029720999991952032418004+60517+022267FM-12+005499999V0200201N00211220001CN0080001N9-01221-01721101041ADDAY101999GF100991001001999999001001IA1319KA1999M-00721MD1310121+9999MW1021
0087029720999991952032506004+60517+022267FM-12+005499999V0203601N00411220001CN0140001N9-01501-01721100771ADDAA199000691AY171999GF107991001001999999011071IA1319KA1999N-02221MD1710071+9999MW1021
0057029720999991952032512004+60517+022267FM-12+005499999V0200401N00621007801CN0200001N9-00891-01611100751ADDAY111999GF105991051081008001001001MD1310041+9999MW1021
0106029720999991952032518004+60517+022267FM-12+005499999V0200201N00211220001CN0200001N9-01391-02001100951ADDAA199000691AY101999GF101991999001999999041001IA1319KA1999M-00781MD1310151+9999MW1021EQDQ01+000002SCOTLC
0076029720999991952032606004+60517+022267FM-12+005499999V0209991C00001220001CN0200001N9-01221-01781100961ADDAY111999GF102991021051012501999999IA1319KA1999N-01611MD1990071+9999MW1031
0057029720999991952032612004+60517+022267FM-12+005499999V0200201N00721220001CN0140001N9-01111-01781101081ADDAY171999GF106991001001999999041061MD1310241+9999MW1031
0087029720999991952032618004+60517+022267FM-12+005499999V0203601N00411220001CN0200001N9-01501-02111101241ADDAA199000391AY101999GF101991001001999999001051IA1319KA1999M-01001MD1310091+9999MW1021
0057029720999991952032700004+60517+022267FM-12+005499999V0203201N00211220001CN0160001N9-02281-02501101341ADDAY101999GF100991001001999999001001MD1310011+9999MW1021
0076029720999991952032706004+60517+022267FM-12+005499999V0203001N00101220001CN0040001N9-02391-02611101311ADDAY121999GF108991001001999999021999IA1209KA1999N-02721MD1710011+9999MW1701
0078029720999991952032712004+60517+022267FM-12+005499999V0203601N00411220001CN0160001N9-00721-01391101321ADDAY171999GF104991041011008001001001MW1021EQDQ01+000042APCTENQ02+000032APC3  
0087029720999991952032718004+60517+022267FM-12+005499999V0203601N00211220001CN0160001N9-01111-01611101491ADDAA199000691AY111999GF101991001001999999001051IA1319KA1999M-00721MD1310111+9999MW1011
0057029720999991952032800004+60517+022267FM-12+005499999V0203401N00211220001CN0160001N9-00501-01611101571ADDAY111999GF100991001001999999001001MD1310011+9999MW1011
0087029720999991952032806004+60517+022267FM-12+005499999V0203401N00211220001CN0060001N9-01891-01891101491ADDAA199000691AY111999GF100991001001999999001001IA1319KA1999N-02111MD1990011+9999MW1221
0057029720999991952032812004+60517+022267FM-12+005499999V0203201N00411075001CN0160001N9-00611-01221101221ADDAY121999GF108991011011004501001071MD1810211+9999MW1021
0108029720999991952032818004+60517+022267FM-12+005499999V0203601N00311220001CN0110001N9-01001-01111101051ADDAA199000691AY171999GF108991001001999999021071IA1319KA1999M-00501MW1021EQDQ01+000042APCTENQ02+000032APC3  
0057029720999991952032900004+60517+022267FM-12+005499999V0203601N00311220001CN0140001N9-01391-01501101091ADDAY101999GF103991001001999999001051MD1310031+9999MW1021
0097029720999991952032906004+60517+022267FM-12+005499999V0203201N00101220001CN0110001N9-01891-02001101081ADDAY101999GF103991001001999999001051IA1319KA1999N-02221MW1021EQDQ01+000032APCTENQ02+000002APC3  
0057029720999991952032912004+60517+022267FM-12+005499999V0203001N00411220001CN0200001N9-00611-01111100991ADDAY111999GF105991031011008001001061MD1810051+9999MW1011
0076029720999991952032918004+60517+022267FM-12+005499999V0203001N00311220001CN0160001N9-00781-01281100881ADDAY101999GF100991001001999999001001IA1319KA1999M-00391MD1710011+9999MW1021
0076029720999991952033006004+60517+022267FM-12+005499999V0201401N00101220001CN0090001N9-01391-01501100771ADDAY121999GF108991001001999999071999IA1319KA1999N-02001MD1710041+9999MW1031
0057029720999991952033012004+60517+022267FM-12+005499999V0202401N00311220001CN0200001N9+00221-00721100751ADDAY121999GF107991001001999999071999MD1810041+9999MW1021
0076029720999991952033018004+60517+022267FM-12+005499999V0202301N00211220001CN0200001N9-00281-01001100741ADDAY101999GF104991001001999999041051IA1319KA1999M+00221MD1310041+9999MW1011
0057029720999991952033100004+60517+022267FM-12+005499999V0201801N00101220001CN0200001N9-00891-00891100851ADDAY121999GF107991001001999999071999MD1310071+9999MW1021
0076029720999991952033106004+60517+022267FM-12+005499999V0201801N00101220001CN0002001N9-01281-01281100851ADDAY141999GF105991001001999999071041IA1319KA1999N-01281MD1310041+9999MW1441
0057029720999991952033112004+60517+022267FM-12+005499999V0202401N00311007801CN0140001N9+00111-00781100841ADDAY121999GF106991061021008001001051MD1710031+9999MW1031
0076029720999991952033118004+60517+022267FM-12+005499999V0202301N00101220001CN0140001N9-00281-00781100791ADDAY121999GF108991001001999999021071IA1319KA1999M+00111MD1810031+9999MW1031
0057029720999991952040100004+60517+022267FM-12+005499999V0209991C00001220001CN0140001N9-00721-00781100681ADDAY121999GF108991001001999999021071MD1810081+9999MW1021
0087029720999991952040106004+60517+022267FM-12+005499999V0200601N00311002401CN0034001N9-00281-00501100381ADDAA199000691AY171999GF108991081061002501999999IA1319KA1999N-00891MD1810201+9999MW1731
0057029720999991952040112004+60517+022267FM-12+005499999V0200701N00721004501CN0110001N9+00001-01001099811ADDAY121999GF108991081061004501999999MD1810371+9999MW1021
0087029720999991952040118004+60517+022267FM-12+005499999V0200601N00821004501CN0004001N9-00391-00501098891ADDAA199001091AY171999GF108991081061004501999999IA1319KA1999M+00001MD1810391+9999MW1751
0057029720999991952040200004+60517+022267FM-12+005499999V0200201N00821004501CN0028001N9-00391-00501098111ADDAY171999GF108991081061004501999999MD1810351+9999MW1561
0081029720999991952040206004+60517+022267FM-12+005499999V0203401N00511004501CN9999999N9+99999+99999098061ADDAA199003091AY171999GF108991071061004501021999IA1319KA1999N-00501MD1310071+9999
0057029720999991952040212004+60517+022267FM-12+005499999V0202001N00821004501CN0090001N9-00281-00611098511ADDAY171999GF107991071051004501999999MD1310251+9999MW1011
0087029720999991952040218004+60517+022267FM-12+005499999V0209999999999220001CN0080001N9-00611-00891099271ADDAA199001091AY171999GF102991021061004501001001IA1319KA1999M-00221MD1310391+9999MW1711
0057029720999991952040300004+60517+022267FM-12+005499999V0202701N00311220001CN0160001N9-00721-00891099621ADDAY111999GF104991041051004501001001MD1310111+9999MW1011
0087029720999991952040306004+60517+022267FM-12+005499999V0202301N00211220001CN0110001N9-00611-00781099791ADDAA199000391AY101999GF101991011021004501001001IA1319KA1999N-01001MD1310151+9999MW1021
0057029720999991952040312004+60517+022267FM-12+005499999V0201901N00821007801CN0400001N9+00001-00501100091ADDAY121999GF106991061011008001001001MD1110191+9999MW1021
0076029720999991952040318004+60517+022267FM-12+005499999V0202701N00211030001CN0200001N9-00111-00721100341ADDAY111999GF105991031051004501041001IA1319KA1999M+00111MD1210111+9999MW1031
0078029720999991952040400004+60517+022267FM-12+005499999V0202701N00461220001CN0200001N9+99999+99999100641ADDAY121999GF102991001001999999011011MW1031EQDQ01+000032APCTENQ02+000002APC3  
0076029720999991952040406004+60517+022267FM-12+005499999V0202701N00411220001CN0200001N9-00501-00721101051ADDAY101999GF100991001001999999001001IA1319KA1999N-01221MD1310241+9999MW1021
0057029720999991952040412004+60517+022267FM-12+005499999V0202801N00621220001CN0400001N9+00221-00501101411ADDAY101999GF100991001001999999001001MD1310131+9999MW1021
0095029720999991952040418004+60517+022267FM-12+005499999V0202301N00411220001CN0400001N9-00111-00611101321ADDAY101999GF103991999001999999071001IA1319KA1999M+00221MD1810081+9999MW1021EQDQ01+000002SCOTLC
0076029720999991952040506004+60517+022267FM-12+005499999V0202301N00211220001CN0400001N9+00001-00281101311ADDAY121999GF105991001001999999041011IA1319KA1999N-00221MD1310041+9999MW1011
0057029720999991952040512004+60517+022267FM-12+005499999V0202201N00211220001CN0400001N9+00721-00111101321ADDAY111999GF106991001001999999041011MD1710011+9999MW1021
0097029720999991952040518004+60517+022267FM-12+005499999V0201801N00101220001CN0160001N9+00221-00111101361ADDAY101999GF102991001001999999001051IA1209KA1999M+00781MW1011EQDQ01+000042APCTENQ02+000012APC3  
0057029720999991952040600004+60517+022267FM-12+005499999V0201401N00101220001CN0014001N9-00501-00611101481ADDAY141999GF100991001001999999001001MD1310041+9999MW1121
0076029720999991952040606004+60517+022267FM-12+005499999V0200901N00101000151CN0008001N9-00391-00391101641ADDAY141999GF108991081061000251999999IA1209KA1999N-00611MD1310081+9999MW1421
0057029720999991952040612004+60517+022267FM-12+005499999V0201401N00211220001CN0050001N9+00501+00001101751ADDAY101999GF100991001001999999001001MD1310051+9999MW1051
0097029720999991952040618004+60517+022267FM-12+005499999V0201601N00211220001CN0020001N9+00111-00111101881ADDAY101999GF100991001001999999001001IA1209KA1999M+00781MW1101EQDQ01+000042APCTENQ02+000092APC3  
0057029720999991952040700004+60517+022267FM-12+005499999V0201601N00101220001CN0020001N9+00001+00001101981ADDAY141999GF100991001001999999001001MD1310051+9999MW1101
0078029720999991952040712004+60517+022267FM-12+005499999V0201601N00511220001CN0200001N9+99999+99999102021ADDAY101999GF103991001001999999001011MW1031EQDQ01+000042APCTENQ02+000012APC3  
0076029720999991952040718004+60517+022267FM-12+005499999V0201601N00511220001CN0140001N9+00391-00221102001ADDAY101999GF104991031051008001021051IA1209KA1999M+00721MD1810151+9999MW1021
0057029720999991952040800004+60517+022267FM-12+005499999V0201601N00721021001CN0160001N9+00391+00001101511ADDAY101999GF108991081001022501021999MD1810281+9999MW1031
0087029720999991952040806004+60517+022267FM-12+005499999V0201801N00721002401CN0034001N9+00281+00221100991ADDAA199005091AY161999GF108991071061002501021999IA1199KA1999N+00221MD1610191+9999MW1631
0057029720999991952040812004+60517+022267FM-12+005499999V0202301N00511004501CN0160001N9+00391+00001101441ADDAY121999GF107991071051004501999999MD1310291+9999MW1011
0081029720999991952040818004+60517+022267FM-12+005499999V0202801N00211220001CN0200001N9+00221+00001101701ADDAA199009091AY101999GF102991001001999999001011KA1999M+00501MD1310251+9999MW1021
0076029720999991952040906004+60517+022267FM-12+005499999V0202001N00311220001CN0200001N9+00221-00111101781ADDAY101999GF107991001001999999001051IA1199KA1999N+00001MD1310041+9999MW1021
0057029720999991952040912004+60517+022267FM-12+005499999V0202201N00311220001CN0200001N9+00611+00111102041ADDAY101999GF100991001001999999001001MD1310131+9999MW1021
0076029720999991952040918004+60517+022267FM-12+005499999V0202701N00101220001CN0200001N9+00281+00001102251ADDAY101999GF101991001001999999001011IA1199KA1999M+00721MD1310121+9999MW1011
0076029720999991952041006004+60517+022267FM-12+005499999V0209991C00001220001CN0090001N9+00111-00221102541ADDAY101999GF103991001001999999001061IA1199KA1999N-00501MD1310011+9999MW1051
0057029720999991952041012004+60517+022267FM-12+005499999V0202201N00411220001CN0200001N9+00891+00111102601ADDAY101999GF101991001001999999001011MD1710031+9999MW1011
0076029720999991952041018004+60517+022267FM-12+005499999V0201901N00211220001CN0160001N9+00391+00001102591ADDAY101999GF103991001001999999001051IA1189KA1999M+00891MD1990011+9999MW1021
0057029720999991952041100004+60517+022267FM-12+005499999V0201601N00101220001CN0160001N9-00111-00221102651ADDAY121999GF106991001001999999001021MD1310031+9999MW1021
0076029720999991952041106004+60517+022267FM-12+005499999V0202001N00311220001CN0140001N9+00221+00001102661ADDAY111999GF103991001001999999041021IA1199KA1999N-00281MD1710011+9999MW1011
0057029720999991952041112004+60517+022267FM-12+005499999V0202201N00311220001CN0400001N9+00891+00001102661ADDAY101999GF101991001001999999001011MD1990041+9999MW1021
0076029720999991952041118004+60517+022267FM-12+005499999V0202201N00311000151CN0002001N9+00111+00111102581ADDAY141999GF108991081061000251999999IA1199KA1999M+00891MD1810051+9999MW1451
0057029720999991952041200004+60517+022267FM-12+005499999V0202001N00211000151CN0002001N9+00001+00001102401ADDAY141999GF108991081061000251999999MD1810111+9999MW1451
0076029720999991952041206004+60517+022267FM-12+005499999V0201801N00311000601CN0050001N9+00111+00111102161ADDAY121999GF107991071061000751999999IA1189KA1999N+00001MD1810121+9999MW1011
0057029720999991952041212004+60517+022267FM-12+005499999V0202001N00411220001CN0160001N9+00721+00281101921ADDAY101999GF101991001001999999001011MD1810111+9999MW1021
0076029720999991952041218004+60517+022267FM-12+005499999V0201801N00311220001CN0080001N9+00281+00111101721ADDAY101999GF103991001001999999001011IA1189KA1999M+00781MD1710081+9999MW1051
0057029720999991952041300004+60517+022267FM-12+005499999V0202301N00101220001CN0070001N9+00111+00001101611ADDAY101999GF101991001001999999001011MD1810081+9999MW1111
0097029720999991952041306004+60517+022267FM-12+005499999V0202501N00211220001CN0080001N9+00501+00391101591ADDAY101999GF101991001001999999001011IA1189KA1999N-00111MW1051EQDQ01+000032APCTENQ02+000002APC3  
0057029720999991952041312004+60517+022267FM-12+005499999V0202701N00621220001CN0200001N9+01111+00391101621ADDAY101999GF103991001001999999999999MD1210011+9999MW1031
0076029720999991952041318004+60517+022267FM-12+005499999V0202701N00211220001CN0200001N9+00721+00111101741ADDAY121999GF106991011051004501001061IA1189KA1999M+01221MD1310071+9999MW1031
0057029720999991952041400004+60517+022267FM-12+005499999V0201401N00101220001CN0160001N9-00111-00221101811ADDAY101999GF102991001001999999001051MD1310031+9999MW1021
0076029720999991952041406004+60517+022267FM-12+005499999V0201401N00101220001CN0160001N9+00111-00111101951ADDAY121999GF107991001001999999051061IA1189KA1999N-00221MD1310081+9999MW1021
0057029720999991952041412004+60517+022267FM-12+005499999V0202301N00411220001CN0400001N9+01221+00221102091ADDAY121999GF107991001001999999001021MD1110011+9999MW1021
0076029720999991952041418004+60517+022267FM-12+005499999V0202501N00211220001CN0200001N9+00781+00111102091ADDAY121999GF105991001001999999001011IA1189KA1999M+01281MD1610011+9999MW1021
0057029720999991952041500004+60517+022267FM-12+005499999V0201601N00311220001CN0200001N9+00221+00111101921ADDAY101999GF100991001001999999001001MD1810131+9999MW1021
0076029720999991952041506004+60517+022267FM-12+005499999V0201801N00211220001CN0140001N9+00501+00221101621ADDAY101999GF104991001001999999001011IA1189KA1999N+00001MD1810131+9999MW1031
0057029720999991952041512004+60517+022267FM-12+005499999V0202501N00621220001CN0160001N9+01221+00221101481ADDAY101999GF102991001001999999999999MD1810071+9999MW1031
0097029720999991952041518004+60517+022267FM-12+005499999V0202701N00311220001CN0160001N9+00891+00221101481ADDAY121999GF105991001001999999041021IA1189KA1999M+01281MW1031EQDQ01+000022APCTENQ02+000002APC3  
0076029720999991952041600004+60517+022267FM-12+005499999V0203101N00411220001CN0200001N9+00391-00391101801ADDAY121999GF102991999001999999041001MD1310121+9999MW1011EQDQ01+000002SCOTLC
0076029720999991952041606004+60517+022267FM-12+005499999V0202901N00621220001CN0400001N9+00391-00501101751ADDAY101999GF101991001001999999001051IA1189KA1999N+00001MD1310051+9999MW1021
0057029720999991952041612004+60517+022267FM-12+005499999V0203201N01541220001CN0400001N9+00721-00611101571ADDAY101999GF102991021011008001001001MD1510051+9999MW1021
0076029720999991952041618004+60517+022267FM-12+005499999V0203201N01031220001CN0400001N9+00611-00391101651ADDAY101999GF101991011041008001001001IA1189KA1999M+00891MD1210081+9999MW1181
0076029720999991952041700004+60517+022267FM-12+005499999V0203201N00821220001CN0200001N9+00221-00281101891ADDAY101999GF101991999001999999071001MD1310121+9999MW1021EQDQ01+000002SCOTLC
0076029720999991952041706004+60517+022267FM-12+005499999V0203201N00621220001CN0400001N9+00281-00281102061ADDAY121999GF106991001001999999001061IA1189KA1999N+00001MD1310051+9999MW1031
0057029720999991952041712004+60517+022267FM-12+005499999V0203001N00721030001CN0400001N9+00501-00391101991ADDAY121999GF107991021051008001011999MD1610041+9999MW1021
0076029720999991952041718004+60517+022267FM-12+005499999V0202701N00411220001CN0400001N9+00221-00281101811ADDAY121999GF107991001001999999071061IA1189KA1999M+00501MD1810081+9999MW1031
0057029720999991952041800004+60517+022267FM-12+005499999V0202901N00151220001CN0200001N9+00001-00111101711ADDAY121999GF108991001001999999021999MD1710011+9999MW1701
0087029720999991952041806004+60517+022267FM-12+005499999V0202701N00151000601CN0006001N9-00111-00111101861ADDAA199000691AY141999GF107991071061000751999999IA1189KA1999N-00281MD1310081+9999MW1421
0057029720999991952041812004+60517+022267FM-12+005499999V0202501N00621075001CN0400001N9+00501+00001101781ADDAY121999GF106991021021008001041061MD1810071+9999MW1021
0062029720999991952041818004+60517+022267FM-12+005499999V0203201N00621001501CN9999999N9+00391+99999100821ADDGF108991081041001501999999IA1189KA1999M+00721MD1810291+9999
0057029720999991952041900004+60517+022267FM-12+005499999V0202301N00211007801CN0090001N9+00281+00221100721ADDAY121999GF108991081061008001999999MD1810211+9999MW1021
0087029720999991952041906004+60517+022267FM-12+005499999V0200201N00511001501CN0090001N9+00281+00221100641ADDAA199001091AY141999GF108991081061001501999999IA1089KA1999N+00111MD1510031+9999MW1021
0057029720999991952041912004+60517+022267FM-12+005499999V0200401N00511004501CN0200001N9+00501-00111100851ADDAY121999GF107991061081004501071999MD1310081+9999MW1021
0076029720999991952041918004+60517+022267FM-12+005499999V0203601N00151007801CN0200001N9+00221-00111101081ADDAY121999GF106991061051008001001001IA1189KA1999M+00611MD1310151+9999MW1011
0057029720999991952042000004+60517+022267FM-12+005499999V0203201N00151220001CN0160001N9-00221-00281101191ADDAY111999GF103991031051008001001001MD1310041+9999MW1011
0076029720999991952042006004+60517+022267FM-12+005499999V0209999999999220001CN0140001N9+00221-00221101201ADDAY121999GF199999001001999999041071IA1139KA1999N-00391MD1210031+9999MW1031
0057029720999991952042012004+60517+022267FM-12+005499999V0202001N00311030001CN0200001N9+00391-00111101191ADDAY161999GF108991041061004501021999MD1610011+9999MW1211
0087029720999991952042018004+60517+022267FM-12+005499999V0201601N00411220001CN0200001N9+00281-00501101011ADDAA199000691AY121999GF107991001001999999071999IA1089KA1999M+00501MD1810111+9999MW1021
0043029720999991952042100004+60517+022267FM-12+005499999V0201401N00511004501CN9999999N9+00221+00001100681ADDGF108991081051004501999999MD1810331+9999
0087029720999991952042106004+60517+022267FM-12+005499999V0201801N00511001501CN0030001N9+00391+00281100221ADDAA199003091AY161999GF108991071061001501021999IA1109KA1999N+00221MD1810191+9999MW1531
0057029720999991952042112004+60517+022267FM-12+005499999V0201501N00211001501CN9999999N9+00501+00391100371ADDAY141999GF108991081061001501999999MD1310121+9999MW1021
0087029720999991952042118004+60517+022267FM-12+005499999V0201601N00211000151CN0010001N9+00391+00281100541ADDAA199000391AY121999GF108991081061000251999999IA1109KA1999M+00611MD1310091+9999MW1471
0078029720999991952042200004+60517+022267FM-12+005499999V0209991C00001000151CN0000001N9+00221+00221100691ADDAY141999GF108991081061000251999999MW1471EQDQ01+000032APCTENQ02+000002APC3  
0097029720999991952042206004+60517+022267FM-12+005499999V0201401N00101000151CN0000001N9+00111+00111100801ADDAY141999GF108991081061000251999999IA1089KA1999N+00111MW1451EQDQ01+000042APCTENQ02+000032APC3  
0078029720999991952042212004+60517+022267FM-12+005499999V0201301N00311030001CN0160001N9+01001+00611100921ADDAY121999GF107991011011008001041071MW1021EQDQ01+000032APCTENQ02+000002APC3  
0076029720999991952042218004+60517+022267FM-12+005499999V0201401N00411220001CN0110001N9+01001+00721100921ADDAY121999GF107991001001999999071999IA1089KA1999M+01221MD1310051+9999MW1021
0057029720999991952042300004+60517+022267FM-12+005499999V0201101N00411004501CN0080001N9+00721+00611100851ADDAY121999GF108991081061004501999999MD1810051+9999MW1021
0076029720999991952042306004+60517+022267FM-12+005499999V0202301N00101220001CN0040001N9+00721+00611101091ADDAY161999GF107991001001999999041071IA1089KA1999N+00501MD1310171+9999MW1021
0057029720999991952042312004+60517+022267FM-12+005499999V0202301N00511075001CN0140001N9+01391+00501101291ADDAY121999GF107991011011012501001071MD1310161+9999MW1051
0076029720999991952042318004+60517+022267FM-12+005499999V0202001N00101220001CN0140001N9+00721+00391101581ADDAY121999GF107991001001999999041071IA1009KA1999M+01281MD1210051+9999MW1021
0057029720999991952042400004+60517+022267FM-12+005499999V0201301N00101220001CN0140001N9+00391+00281101821ADDAY101999GF102991001001999999001051MD1310131+9999MW1011
0076029720999991952042406004+60517+022267FM-12+005499999V0201201N00211220001CN0080001N9+00501+00391101921ADDAY121999GF108991001001999999071999IA1009KA1999N+00001MD1310071+9999MW1021
0062029720999991952042412004+60517+022267FM-12+005499999V0202201N00311012301CN0140001N9+01001+99999101971ADDAY121999GF108991061051012501021999MW1031EQDQ01+000002APC3  
0087029720999991952042418004+60517+022267FM-12+005499999V0202301N00051220001CN0060001N9+00721+00721101861ADDAA199000591AY161999GF108991001001999999021999IA1009KA1999M+01111MD1810041+9999MW1611
0057029720999991952042500004+60517+022267FM-12+005499999V0203201N00101220001CN0090001N9+00611+00611101861ADDAY121999GF108991001001999999021999MD1010001+9999MW1021
0076029720999991952042506004+60517+022267FM-12+005499999V0202501N00151220001CN0090001N9+00721+00391101911ADDAY121999GF107991001001999999041061IA1009KA1999N+00391MD1310041+9999MW1051
0057029720999991952042512004+60517+022267FM-12+005499999V0202201N00411030001CN0200001N9+01281+00721102041ADDAY121999GF107991021011008001071999MD1310071+9999MW1021
0076029720999991952042518004+60517+022267FM-12+005499999V0202701N00211030001CN0200001N9+01111+00611102091ADDAY111999GF107991011031008001041061IA1009KA1999M+01391MD1210071+9999MW1021
0057029720999991952042600004+60517+022267FM-12+005499999V0209991C00001220001CN0140001N9+00281+00281102201ADDAY121999GF106991001001999999041061MD1310041+9999MW1111
0076029720999991952042606004+60517+022267FM-12+005499999V0200601N00211030001CN0080001N9+00781+00221102341ADDAY121999GF107991011021008001041021IA1009KA1999N+00111MD1310111+9999MW1051
0057029720999991952042612004+60517+022267FM-12+005499999V0200401N00411075001CN0400001N9+01611-00221102381ADDAY121999GF105991031011008001001051MD1110031+9999MW1031
0097029720999991952042618004+60517+022267FM-12+005499999V0203601N00311220001CN0200001N9+01281+00001102441ADDAY121999GF107991001001999999071999IA1009KA1999M+01611MW1021EQDQ01+000042APCTENQ02+000072APC3  
0076029720999991952042700004+60517+022267FM-12+005499999V0203601N002119999999N0200001N9+00781+00221102581ADDAY121999GF108991999001022501071999MD1310031+9999MW1021EQDQ01+000002SCOTLC
0076029720999991952042706004+60517+022267FM-12+005499999V0200701N00311220001CN0160001N9+00891+00221102581ADDAY161999GF107991001001999999071999IA1009KA1999N+00721MD1110011+9999MW1021
0057029720999991952042712004+60517+022267FM-12+005499999V0200901N00621030001CN0200001N9+01501+00001102601ADDAY121999GF108991011051008001071999MD1990041+9999MW1021
0076029720999991952042718004+60517+022267FM-12+005499999V0209991C00001220001CN0200001N9+01501+99999102531ADDAY101999GF102991001001999999041051IA1009KA1999M+01781MD1510001+9999MW1021
0057029720999991952042800004+60517+022267FM-12+005499999V0200701N00311220001CN0160001N9+00721+00281102511ADDAY121999GF104991001001999999001051MD1810061+9999MW1021
0076029720999991952042806004+60517+022267FM-12+005499999V0200701N00511220001CN0200001N9+01221+00281102391ADDAY121999GF105991001001999999041051IA1009KA1999N+00721MD1710031+9999MW1011
0087029720999991952042818004+60517+022267FM-12+005499999V0201401N00101220001CN0200001N9+01721+01001102021ADDAA199000391AY111999GF102991011021008001041001IA1009KA1999M+02111MD1510051+9999MW1021
0076029720999991952042900004+60517+022267FM-12+005499999V0200901N00101220001CN0140001N9+00611+00501101971ADDAY101999GF102991999001999999041001MD1810041+9999MW1011EQDQ01+000002SCOTLC
0095029720999991952042906004+60517+022267FM-12+005499999V0200901N00101220001CN0080001N9+01221+00781101851ADDAY101999GF102991999001999999041001IA1009KA1999N+00391MD1810091+9999MW1041EQDQ01+000002SCOTLC
0057029720999991952042912004+60517+022267FM-12+005499999V0201101N00101220001CN0140001N9+02391+00611101621ADDAY101999GF102991011011012501041001MD1810151+9999MW1021
0076029720999991952042918004+60517+022267FM-12+005499999V0200401N00101220001CN0080001N9+01501+00891101481ADDAY121999GF106991001001999999041061IA1009KA1999M+02391MD1810091+9999MW1041
0057029720999991952043000004+60517+022267FM-12+005499999V0200701N00621220001CN0160001N9+01391+01001101291ADDAY161999GF107991001001999999071999MD1810161+9999MW1251
0087029720999991952043006004+60517+022267FM-12+005499999V0201201N00621030001CN0090001N9+01391+01001100961ADDAA199002091AY161999GF108991021051004501021999IA1109KA1999N+01221MD1810071+9999MW1601
0057029720999991952043012004+60517+022267FM-12+005499999V0202001N00511030001CN0160001N9+00891+00611101441ADDAY121999GF108991041051004501071999MD1310291+9999MW1021
0087029720999991952043018004+60517+022267FM-12+005499999V0201601N00311001501CN0050001N9+00611+00501101611ADDAA199000391AY121999GF108991081061001501999999IA1089KA1999M+01391MD1310051+9999MW1021
0049029720999991952050100004+60517+022267FM-12+005499999V0201401N00211000151CN0002001N9+00391+00391101691ADDGF108991081061000251999999MD1810011+9999MW1471
0076029720999991952050106004+60517+022267FM-12+005499999V0201201N00211000601CN0014001N9+00391+00391101741ADDAY141999GF108991081061000751999999IA1009KA1999N+00221MD1110041+9999MW1101
0057029720999991952050112004+60517+022267FM-12+005499999V0201601N00211004501CN0160001N9+01001+00501101781ADDAY121999GF107991071081004501999999MD1990011+9999MW1021
0076029720999991952050118004+60517+022267FM-12+005499999V0200701N00211004501CN0160001N9+00781+00501101661ADDAY121999GF108991061051004501071999IA1009KA1999M+01221MD1810051+9999MW1021
0057029720999991952050200004+60517+022267FM-12+005499999V0200701N00361004501CN0160001N9+00391+00111101591ADDAY121999GF108991081051004501999999MD1810131+9999MW1021
0076029720999991952050206004+60517+022267FM-12+005499999V0200201N00621004501CN0160001N9+00391+00111101251ADDAY121999GF108991071051004501021999IA1009KA1999N+00281MD1810071+9999MW1021
0057029720999991952050212004+60517+022267FM-12+005499999V0200201N00721004501CN0200001N9+01111+00221100961ADDAY121999GF108991081081004501999999MD1810131+9999MW1031
0087029720999991952050218004+60517+022267FM-12+005499999V0203401N00511007801CN0200001N9+00781+00391100981ADDAA199000691AY161999GF107991071051008001999999IA1009KA1999M+01221MD1310071+9999MW1011
0076029720999991952050300004+60517+022267FM-12+005499999V0203401N00511220001CN0200001N9+00391+00001101081ADDAY121999GF101991999001999999041001MD1710051+9999MW1011EQDQ01+000002SCOTLC
0076029720999991952050306004+60517+022267FM-12+005499999V0203201N00511220001CN0400001N9+00611+00001101181ADDAY101999GF101991011011008001001051IA1009KA1999N+00111MD1310051+9999MW1021
0057029720999991952050312004+60517+022267FM-12+005499999V0203201N00821007801CN0400001N9+00891+00001101281ADDAY121999GF106991061081008001001001MD1310041+9999MW1011
0076029720999991952050318004+60517+022267FM-12+005499999V0203201N00621220001CN0400001N9+00611-00611101461ADDAY101999GF101991011041008001001001IA1009KA1999M+01001MD1210121+9999MW1011
0057029720999991952050412004+60517+022267FM-12+005499999V0202201N00311220001CN0600001N9+01111-00501101971ADDAY101999GF101991011011012501001011MD1010011+9999MW1021
0084029720999991952050418004+60517+022267FM-12+005499999V0202001N00101220001CN0400001N9+00891-00391101951ADDAY101999GF101991001001999999001051IA1009MW1031EQDQ01+000032APCTENQ02+000002APC3  
0084029720999991952050506004+60517+022267FM-12+005499999V0200701N00411220001CN0400001N9+00781-00111102001ADDAY101999GF102991001001999999001051IA1009MW1021EQDQ01+000022APCTENQ02+000002APC3  
0057029720999991952050512004+60517+022267FM-12+005499999V0201101N00511220001CN0400001N9+01721-00281101801ADDAY101999GF101991001001999999001011MD1810151+9999MW1021
0063029720999991952050518004+60517+022267FM-12+005499999V0201101N00621220001CN0400001N9+01281-00501101641ADDAY101999GF101991001001999999001041IA1009MD1510041+9999MW1021
0057029720999991952050600004+60517+022267FM-12+005499999V0200901N00511220001CN0200001N9+00611-00281101591ADDAY101999GF101991001001999999001011MD1810071+9999MW1021
0063029720999991952050606004+60517+022267FM-12+005499999V0200901N00721220001CN0160001N9+01001-00111101451ADDAY101999GF100991001001999999001001IA1009MD1810081+9999MW1021
0057029720999991952050612004+60517+022267FM-12+005499999V0200901N00821220001CN0200001N9+01891-00391101391ADDAY101999GF100991001001999999001001MD1710011+9999MW1021
0076029720999991952050618004+60517+022267FM-12+005499999V0200901N00621220001CN0200001N9+01721-00221101491ADDAY101999GF102991001001999999041011IA1009KA1999M+02001MD1310091+9999MW1031
0057029720999991952050700004+60517+022267FM-12+005499999V0200601N00511220001CN0200001N9+00781+00001101741ADDAY101999GF101991001001999999001999MD1310091+9999MW1011
0063029720999991952050706004+60517+022267FM-12+005499999V0200701N00621220001CN0200001N9+00781+00001102021ADDAY121999GF107991001001999999001061IA1009MD1310151+9999MW1021
0076029720999991952050712004+60517+022267FM-12+005499999V0201201N00621220001CN0400001N9+01611-00391102291ADDAY101999GF102991999001999999041001MD1310121+9999MW1011EQDQ01+000002SCOTLC
0063029720999991952050718004+60517+022267FM-12+005499999V0201401N00211220001CN0400001N9+01001+00001102621ADDAY101999GF102991021051012501001001IA1009MD1310221+9999MW1011
0057029720999991952050800004+60517+022267FM-12+005499999V0200601N00261220001CN0200001N9+00001-00501103111ADDAY101999GF100991001001999999001001MD1310361+9999MW1011
0076029720999991952050806004+60517+022267FM-12+005499999V0201201N00411220001CN0400001N9+00391-00611103411ADDAY101999GF100991001001999999001001IA1009KA1999N-00281MD1310131+9999MW1021
0057029720999991952050812004+60517+022267FM-12+005499999V0201801N00211220001CN0400001N9+01001-00781103411ADDAY101999GF100991001001999999001001MD1710031+9999MW1021
0076029720999991952050818004+60517+022267FM-12+005499999V0203001N00411220001CN0400001N9+00781-00221999999ADDAY101999GF102991011021008001001051IA1009KA1999M+01221MD1810091+9999MW1031
0057029720999991952050900004+60517+022267FM-12+005499999V0202701N00101220001CN0200001N9+00501-00221103341ADDAY101999GF101991001001999999001051MD1310041+9999MW1021
0076029720999991952050906004+60517+022267FM-12+005499999V0209999900101220001CN0200001N9+00611-00611103221ADDAY101999GF100991001001999999001001IA1009KA1999N-00391MD1110241+9999MW1021
0057029720999991952050912004+60517+022267FM-12+005499999V0202301N00511220001CN0400001N9+01111-01111102941ADDAY101999GF100991001001999999001001MD1810161+9999MW1021
0076029720999991952050918004+60517+022267FM-12+005499999V0202301N00311220001CN0400001N9+00781-00281102561ADDAY101999GF101991001001999999001011IA1009KA1999M+01221MD1810201+9999MW1031
0057029720999991952051000004+60517+022267FM-12+005499999V0201801N00101220001CN0200001N9+00111-00111102281ADDAY101999GF102991001001999999001011MD1810091+9999MW1031
0076029720999991952051006004+60517+022267FM-12+005499999V0202301N00211220001CN0400001N9+00781+00221101971ADDAY111999GF105991001001999999041041IA1009KA1999N-00221MD1810121+9999MW1021
0057029720999991952051012004+60517+022267FM-12+005499999V0202201N00411220001CN0400001N9+01391+00111101761ADDAY101999GF101991001001999999001011MD1710071+9999MW1021
0063029720999991952051018004+60517+022267FM-12+005499999V0202201N00411220001CN0400001N9+01111+00111101571ADDAY101999GF100991001001999999001001IA1009MD1710071+9999MW1021
0076029720999991952051100004+60517+022267FM-12+005499999V0200701N00101220001CN0400001N9+00001-00111101491ADDAY101999GF101991999001999999041001MD1810051+9999MW1021EQDQ01+000002SCOTLC
0076029720999991952051106004+60517+022267FM-12+005499999V0209991C00001220001CN0200001N9+01001+00281101441ADDAY101999GF101991001001999999001011IA1009KA1999N-00221MD1990011+9999MW1021
0057029720999991952051112004+60517+022267FM-12+005499999V0202301N00311220001CN0400001N9+01781-00391101411ADDAY101999GF101991011011008001001001MD1990011+9999MW1021
0076029720999991952051118004+60517+022267FM-12+005499999V0202301N00311220001CN0400001N9+01281+00001101281ADDAY101999GF101991001001999999001011IA1009KA1999M+01781MD1810071+9999MW1021
0078029720999991952051200004+60517+022267FM-12+005499999V0201401N00101220001CN0200001N9+00111-00111101291ADDAY101999GF101991001001999999001011MW1021EQDQ01+000032APCTENQ02+000002APC3  
0097029720999991952051206004+60517+022267FM-12+005499999V0201801N00211220001CN0200001N9+01001+00001101201ADDAY111999GF102991001001999999001011IA1009KA1999N-00111MW1011EQDQ01+000022APCTENQ02+000002APC3  
0057029720999991952051212004+60517+022267FM-12+005499999V0202201N00211220001CN0400001N9+01611+00111101151ADDAY101999GF101991011011012501001011MD1990031+9999MW1011
0076029720999991952051218004+60517+022267FM-12+005499999V0202301N00211220001CN0400001N9+01391+00611101171ADDAY101999GF101991001001999999001011IA1009KA1999M+01781MD1510001+9999MW1021
0057029720999991952051300004+60517+022267FM-12+005499999V0201801N00211220001CN0200001N9+00721+00111101121ADDAY111999GF107991001001999999001071MD1810071+9999MW1031
0076029720999991952051306004+60517+022267FM-12+005499999V0202001N00101220001CN0160001N9+01001+00611101091ADDAY121999GF108991001001999999071071IA1009KA1999N+00501MD1510011+9999MW1031
0057029720999991952051312004+60517+022267FM-12+005499999V0202501N00311220001CN0200001N9+01281+00611101091ADDAY121999GF108991001001999999071999MD1210011+9999MW1021
0076029720999991952051318004+60517+022267FM-12+005499999V0203401N005119999999N0200001N9+00891+00391101001ADDAY121999GF108991021051008001999999IA1009KA1999M+01391MD1710041+9999MW1021
0057029720999991952051400004+60517+022267FM-12+005499999V0203401N00211030001CN0160001N9+00281+00221100941ADDAY121999GF108991031061004501021061MD1810081+9999MW1021
0076029720999991952051406004+60517+022267FM-12+005499999V0203601N00621075001CN0200001N9+00611+00221100841ADDAY121999GF107991021051004501001061IA1009KA1999N+00391MD1610051+9999MW1021
0057029720999991952051412004+60517+022267FM-12+005499999V0200201N00511220001CN0400001N9+01221-00111100601ADDAY101999GF102991001001999999051051MD1810121+9999MW1021
0087029720999991952051418004+60517+022267FM-12+005499999V0203201N00511004501CN0140001N9+00611+00221100581ADDAA199000691AY161999GF108991061061004501021999IA1089KA1999M+01501MD1210011+9999MW1611
0057029720999991952051500004+60517+022267FM-12+005499999V0203201N00621004501CN0140001N9+00221+00111100641ADDAY171999GF108991071061004501021999MD1310071+9999MW1681
0043029720999991952051506004+60517+022267FM-12+005499999V0203601N00721220001CN0200001N9+00281-00221100921ADDAY121999GF101991011071004501001001MW1011
0057029720999991952051512004+60517+022267FM-12+005499999V0203201N00931007801CN0400001N9+00891-00721101181ADDAY121999GF106991061011008001001001MD1310121+9999MW1021
0087029720999991952051518004+60517+022267FM-12+005499999V0203201N00511220001CN0400001N9+00611-00611101351ADDAA199000691AY101999GF101991011041008001041001IA1009KA1999M+01001MD1310091+9999MW1011
0057029720999991952051600004+60517+022267FM-12+005499999V0203201N00211220001CN0400001N9+99999+99999101551ADDAY121999GF107991001001999999071999MD1310091+9999MW1031
0063029720999991952051606004+60517+022267FM-12+005499999V0209991C00001220001CN0200001N9+00391-00221101721ADDAY121999GF107991001001999999071999IA1009MD1610091+9999MW1021
0057029720999991952051612004+60517+022267FM-12+005499999V0202301N00211007801CN0200001N9+00611-00111101821ADDAY181999GF106991061091008001001001MD1210081+9999MW1141
0087029720999991952051618004+60517+022267FM-12+005499999V0203201N00621220001CN0400001N9+00721-00891101861ADDAA199000691AY101999GF102991021091008001041001IA1009KA1999M+00891MD1210081+9999MW1021
0057029720999991952051700004+60517+022267FM-12+005499999V0202901N00101220001CN0200001N9-00111-00221102051ADDAY111999GF106991001001999999071999MD1310031+9999MW1031
0097029720999991952051706004+60517+022267FM-12+005499999V0203401N00211075001CN0400001N9+00611+00001102001ADDAY121999GF106991011011004501071061IA1009KA1999N-00221MW1011EQDQ01+000072APCTENQ02+000002APC3  
0057029720999991952051712004+60517+022267FM-12+005499999V0203201N00821004501CN0200001N9+00891-00111101921ADDAY181999GF107991051091004501041021MD1710051+9999MW1021
0108029720999991952051718004+60517+022267FM-12+005499999V0203201N00311030001CN0200001N9+00781-00111101881ADDAA199000691AY121999GF106991011021008001071001IA1009KA1999M+01001MW1011EQDQ01+000022APCTENQ02+000002APC3  
0063029720999991952051806004+60517+022267FM-12+005499999V0200201N00511220001CN0400001N9+00281-00221101451ADDAY161999GF104991041021004501041001IA1089MD1510031+9999MW1021
0057029720999991952051812004+60517+022267FM-12+005499999V0200401N00621007801CN0400001N9+00391-00391101391ADDAY121999GF107991061081008001071999MD1810041+9999MW1021
0108029720999991952051818004+60517+022267FM-12+005499999V0203401N00211030001CN0200001N9+00281+00001101291ADDAA199000391AY181999GF105991041091008001041001IA1009KA1999M+00721MW1011EQDQ01+000032APCTENQ02+000002APC3  
0057029720999991952051900004+60517+022267FM-12+005499999V0203401N00211030001CN0200001N9+00001-00111101411ADDAY121999GF106991041051004501041001MD1310031+9999MW1021
0087029720999991952051906004+60517+022267FM-12+005499999V0200201N00721004501CN0200001N9+00111-00221101521ADDAA199000691AY121999GF108991081051004501999999IA1009KA1999N-00221MD1310111+9999MW1021
0057029720999991952051912004+60517+022267FM-12+005499999V0200401N00931004501CN0200001N9+00501-00391101741ADDAY121999GF107991071051004501999999MD1310051+9999MW1021
0076029720999991952051918004+60517+022267FM-12+005499999V0200401N00931220001CN0200001N9+00721-00501101991ADDAY101999GF103991021051012501041001IA1009KA1999M+00781MD1310131+9999MW1011
0076029720999991952052000004+60517+022267FM-12+005499999V0200201N00721220001CN0200001N9+00221-00611102411ADDAY101999GF101991999001999999041001MD1310171+9999MW1021EQDQ01+000002SCOTLC
0095029720999991952052006004+60517+022267FM-12+005499999V0200401N00511220001CN0400001N9+00501-00721102751ADDAY101999GF101991999001999999041001IA1009KA1999N+00001MD1310151+9999MW1021EQDQ01+000002SCOTLC
0057029720999991952052012004+60517+022267FM-12+005499999V0200201N00311220001CN0400001N9+01221-00611102841ADDAY101999GF102991021011012501001011MD1210031+9999MW1021
0076029720999991952052018004+60517+022267FM-12+005499999V0203601N00511220001CN0400001N9+01111-01111102771ADDAY101999GF102991001001999999001051IA1009KA1999M+01391MD1310031+9999MW1021
0057029720999991952052100004+60517+022267FM-12+005499999V0203601N00211220001CN0400001N9+00001-00391102851ADDAY101999GF103991001001999999001051MD1310031+9999MW1021
0076029720999991952052106004+60517+022267FM-12+005499999V0200701N00211220001CN0200001N9+00891-00611102821ADDAY121999GF106991001001999999001061IA1009KA1999N-00221MD1610011+9999MW1031
0057029720999991952052112004+60517+022267FM-12+005499999V0200401N00511220001CN0200001N9+01391-00501102511ADDAY111999GF105991001001999999001061MD1810321+9999MW1011
0076029720999991952052118004+60517+022267FM-12+005499999V0200701N00311220001CN0400001N9+01391-01001102381ADDAY101999GF102991001001999999001061IA1009KA1999M+01501MD1610031+9999MW1031
0057029720999991952052200004+60517+022267FM-12+005499999V0203601N00101220001CN0200001N9+00221-00391102391ADDAY101999GF101991001001999999001051MD1810041+9999MW1011
0076029720999991952052206004+60517+022267FM-12+005499999V0200401N00211220001CN0200001N9+01221-00781102351ADDAY101999GF102991001001999999001051IA1009KA1999N-00221MD1710031+9999MW1021
0057029720999991952052212004+60517+022267FM-12+005499999V0200201N00211075001CN0200001N9+01611-00391102121ADDAY121999GF105991011011008001041061MD1810111+9999MW1021
0076029720999991952052218004+60517+022267FM-12+005499999V0203401N00621220001CN0200001N9+01501-00221102081ADDAY121999GF107991001001999999071061IA1009KA1999M+01781MD1310051+9999MW1031
0057029720999991952052300004+60517+022267FM-12+005499999V0201801N00101220001CN0200001N9+00781+00111102111ADDAY121999GF107991001001999999071999MD1810031+9999MW1021
0076029720999991952052306004+60517+022267FM-12+005499999V0201301N00101220001CN0200001N9+00891+00391102091ADDAY121999GF107991001001999999071999IA1009KA1999N+00611MD1010011+9999MW1021
0057029720999991952052312004+60517+022267FM-12+005499999V0202301N00411220001CN0200001N9+01281+00111102041ADDAY121999GF107991001001999999071071MD1710041+9999MW1021
0076029720999991952052318004+60517+022267FM-12+005499999V0202301N00101030001CN0200001N9+01111+00611101921ADDAY121999GF108991011051008001071999IA1009KA1999M+01391MD1810091+9999MW1021
0057029720999991952052400004+60517+022267FM-12+005499999V0201801N00211030001CN0200001N9+00781+00721101801ADDAY161999GF108991041061004501071999MD1810121+9999MW1021
0087029720999991952052406004+60517+022267FM-12+005499999V0202001N00311004501CN0160001N9+00891+00781101681ADDAA199001091AY161999GF108991061051004501071999IA1109KA1999N+00721MD1710031+9999MW1021
0057029720999991952052412004+60517+022267FM-12+005499999V0202401N00411004501CN0200001N9+01111+00501101751ADDAY121999GF108991071051004501071999MD1110051+9999MW1031
0097029720999991952052418004+60517+022267FM-12+005499999V0202301N00101220001CN0160001N9+01111+00721101811ADDAY101999GF102991021081008001001001IA1009KA1999M+01281MW1021EQDQ01+000032APCTENQ02+000002APC3  
0076029720999991952052500004+60517+022267FM-12+005499999V0202901N00211220001CN0160001N9+00501+00501101811ADDAY111999GF104991999001999999041001MD1710011+9999MW1111EQDQ01+000002SCOTLC
0076029720999991952052506004+60517+022267FM-12+005499999V0202001N00101220001CN0200001N9+01001+00391101611ADDAY111999GF102991001001999999041011IA1009KA1999N+00281MD1810121+9999MW1011
0057029720999991952052512004+60517+022267FM-12+005499999V0202201N00511220001CN0400001N9+01501+00391101281ADDAY121999GF106991021011012501001061MD1810151+9999MW1021
0062029720999991952052518004+60517+022267FM-12+005499999V0202001N00211220001CN9999999N9+01111+00281100931ADDGF107991001001999999041071IA1009KA1999M+01611MD1810131+9999
0076029720999991952052600004+60517+022267FM-12+005499999V0209991C00001220001CN0400001N9+00501+00391100751ADDAY121999GF106991999001999999071001MD1810131+9999MW1021EQDQ01+000002SCOTLC
0076029720999991952052606004+60517+022267FM-12+005499999V0202701N00311004501CN0200001N9+00891+00611100511ADDAY121999GF108991071051004501071999IA1009KA1999N+00221MD1810111+9999MW1031
0057029720999991952052612004+60517+022267FM-12+005499999V0202901N00621007801CN0200001N9+01281+00111100441ADDAY111999GF105991051081008001001001MD1510031+9999MW1011
0087029720999991952052618004+60517+022267FM-12+005499999V0203201N00821220001CN0200001N9+00611+00111100391ADDAA199000391AY111999GF104991041081008001001001IA1009KA1999M+01281MD1710031+9999MW1021
0057029720999991952052700004+60517+022267FM-12+005499999V0203201N00511007801CN0200001N9+00611+00281100161ADDAY121999GF107991071051008001999999MD1810121+9999MW1011
0108029720999991952052706004+60517+022267FM-12+005499999V0203401N00721004501CN0200001N9+00781+00781999999ADDAA199002091AY161999GF108991081051004501999999IA1089KA1999N+00391MW1021EQDQ01+000042APCTENQ02+000042APC3  
0057029720999991952052712004+60517+022267FM-12+005499999V0203201N00931004501CN0200001N9+00781-00221100421ADDAY121999GF107991051051004501071999MD1310121+9999MW1021
0087029720999991952052718004+60517+022267FM-12+005499999V0203201N00721004501CN0400001N9+00721+00001100591ADDAA199000691AY121999GF107991051051004501071999IA1009KA1999M+01001MD1310091+9999MW1031
0057029720999991952052800004+60517+022267FM-12+005499999V0202701N00311220001CN0400001N9+00611+00111100711ADDAY121999GF107991001001999999071999MD1310041+9999MW1021
0095029720999991952052806004+60517+022267FM-12+005499999V0201901N00101220001CN0400001N9+01001+00001100691ADDAY101999GF106991999001999999041001IA1009KA1999N+00501MD1990011+9999MW1011EQDQ01+000002SCOTLC
0057029720999991952052812004+60517+022267FM-12+005499999V0201601N00511220001CN0400001N9+01501-00221100691ADDAY111999GF104991011011012501041001MD1990011+9999MW1011
0063029720999991952052818004+60517+022267FM-12+005499999V0201601N00411030001CN0400001N9+01001+00281100611ADDAY121999GF107991041051008001071999IA1009MD1810051+9999MW1031
0057029720999991952052912004+60517+022267FM-12+005499999V0201801N00511220001CN0200001N9+01281+00281100591ADDAY111999GF104991041031004501001021MD1310081+9999MW1031
0087029720999991952052918004+60517+022267FM-12+005499999V0201801N00211075001CN0400001N9+01221+00391100541ADDAA199000691AY121999GF107991011011008001001071IA1009KA1999M+01391MD1810071+9999MW1031
0057029720999991952053000004+60517+022267FM-12+005499999V0201801N00211002401CN0140001N9+00891+00781100281ADDAY161999GF108991071061002501021999MD1810121+9999MW1631
0108029720999991952053006004+60517+022267FM-12+005499999V0201401N00101030001CN0400001N9+00781+00611100261ADDAA199006091AY161999GF105991031021004501041001IA1089KA1999N+00611MW1011EQDQ01+000032APCTENQ02+000002APC3  
0078029720999991952053012004+60517+022267FM-12+005499999V0202201N00511004501CN0400001N9+01001+00611100341ADDAY121999GF107991071021004501999999MW1031EQDQ01+000032APCTENQ02+000002APC3  
0076029720999991952053018004+60517+022267FM-12+005499999V0201601N00511004501CN0400001N9+00781+00501100401ADDAY121999GF106991061091004501001021IA1009KA1999M+01111MD1110041+9999MW1031
0057029720999991952053100004+60517+022267FM-12+005499999V0202001N00411030001CN0400001N9+00721+00611100461ADDAY161999GF107991021051004501071999MD1310041+9999MW1021
0087029720999991952053106004+60517+022267FM-12+005499999V0201801N00511030001CN0400001N9+00891+99999100691ADDAA199000591AY101999GF107991011021008001041999IA1089KA1999N+00611MD1310091+9999MW1021
0057029720999991952053112004+60517+022267FM-12+005499999V0201601N00511004501CN0400001N9+01001+00391100891ADDAY121999GF106991051081004501041001MD1310091+9999MW1021
0097029720999991952053118004+60517+022267FM-12+005499999V0201801N00511220001CN0400001N9+00891+00501100981ADDAY101999GF102991011011008001041001IA1009KA1999M+01111MW1021EQDQ01+000042APCTENQ02+000012APC3  
0095029720999991952060106004+60517+022267FM-12+005499999V0202301N00211220001CN0400001N9+01111+00721101121ADDAY101999GF101991999001999999041001IA1009KA1999N+00611MD1310051+9999MW1021EQDQ01+000002SCOTLC
0057029720999991952060112004+60517+022267FM-12+005499999V0202201N00511220001CN0400001N9+01501+00501101341ADDAY101999GF102991021021012501001051MD1310081+9999MW1021
0076029720999991952060118004+60517+022267FM-12+005499999V0202301N00311220001CN0400001N9+01391+00391101491ADDAY101999GF101991011021012501001011IA1009KA1999M+01611MD1310091+9999MW1021
0057029720999991952060200004+60517+022267FM-12+005499999V0209991C00001220001CN0160001N9+00501+00281101641ADDAY101999GF101991001001999999001011MD1310081+9999MW1111
0097029720999991952060206004+60517+022267FM-12+005499999V0201401N00101220001CN0160001N9+01221+00501101681ADDAY101999GF101991001001999999001011IA1009KA1999N+00111MW1011EQDQ01+000032APCTENQ02+000002APC3  
0057029720999991952060212004+60517+022267FM-12+005499999V0201601N00411220001CN0400001N9+01891+00501101521ADDAY101999GF103991011011008001041051MD1810091+9999MW1031
0076029720999991952060218004+60517+022267FM-12+005499999V0201801N00511220001CN0160001N9+01721+01001101181ADDAY121999GF108991001001999999051071IA1009KA1999M+02001MD1810191+9999MW1031
