0057029700999991958010100004+60117+019900FM-12+000399999V0203501N00511002401CN0050001N9-00281-00391098921ADDAY171999GF108991081071002501999999MD1210011+9999MW1711
0081029700999991958010106004+60117+019900FM-12+000399999V0203501N00511220001CN0150001N9-00391-00501099121ADDAA199001091AY111999GF103991031051004501001001KA1999N-00501MD1210121+9999MW1011
0057029700999991958010112004+60117+019900FM-12+000399999V0203501N00511004501CN0020001N9-00501-00611099451ADDAY171999GF108991061051004501021999MD1210071+9999MW1731
0081029700999991958010118004+60117+019900FM-12+000399999V0203601N00261007801CN0100001N9-00611-00721099741ADDAA199001091AY171999GF107991051051008001071001KA1999M-00281MD1210161+9999MW1711
0057029700999991958010200004+60117+019900FM-12+000399999V0203301N00101030001CN0100001N9-00611-00721100021ADDAY121999GF105991031051008001041001MD1210151+9999MW1221
0100029700999991958010206004+60117+019900FM-12+000399999V0203501N00101004501CN0030001N9-00781-00781100351ADDAA199003091AY171999GF107991071051004501051999KA1999N+99999MD1210161+9999MW1701EQDQ01 -00502ATMN  
0081029700999991958010218004+60117+019900FM-12+000399999V0209991C00001220001CN0200001N9-01721-01781100981ADDAA199002091AY101999GF102991021051004501041001KA1999M-00611MD1210151+9999MW1011
0057029700999991958010300004+60117+019900FM-12+000399999V0209991C00001220001CN0200001N9-01891-02111101341ADDAY101999GF102991021051004501041001MD1210121+9999MW1021
0081029700999991958010306004+60117+019900FM-12+000399999V0203601N00311030001CN0080001N9-00611-00721101741ADDAA199000391AY121999GF108991041051004501071001KA1999N-02221MD1210281+9999MW1701
0057029700999991958010312004+60117+019900FM-12+000399999V0200201N00211004501CN0100001N9-00501-00611102351ADDAY121999GF107991071051004501999999MD1210201+9999MW1701
0081029700999991958010318004+60117+019900FM-12+000399999V0200301N00311004501CN0100001N9-00721-00781102641ADDAA199000591AY171999GF106991061051004501001001KA1999M-00501MD1210241+9999MW1021
0057029700999991958010400004+60117+019900FM-12+000399999V0203601N00211220001CN0200001N9-01391-01391102791ADDAY101999GF100991001001999999001001MD1210071+9999MW1021
0070029700999991958010406004+60117+019900FM-12+000399999V0209991C00001220001CN0100001N9-02281-02501103001ADDAY101999GF101991011051004501001001KA1999N-02501MD1210031+9999MW1021
0081029700999991958010418004+60117+019900FM-12+000399999V0202201N00821004501CN0010001N9-00501-00501102371ADDAA199001091AY171999GF108991081051004501999999KA1999M-00391MD1710211+9999MW1731
0081029700999991958010506004+60117+019900FM-12+000399999V0201101N00511004501CN0100001N9-00391-00391102121ADDAA199001091AY111999GF108991081051004501001001KA1999N-00501MD1010011+9999MW1221
0057029700999991958010512004+60117+019900FM-12+000399999V0201101N00671002401CN0030001N9-00501-00721102041ADDAY171999GF108991081071002501999999MD1710091+9999MW1711
0081029700999991958010518004+60117+019900FM-12+000399999V0201301N00821004501CN0060001N9-00611-00781101911ADDAA199000591AY121999GF108991061051004501071001KA1999M-00391MD1710091+9999MW1361
0057029700999991958010600004+60117+019900FM-12+000399999V0201201N00871004501CN0040001N9-00611-00721101591ADDAY171999GF108991061051004501021001MD1710121+9999MW1711
0081029700999991958010606004+60117+019900FM-12+000399999V0201101N00931002401CN0150001N9-00781-01111101361ADDAA199000691AY121999GF107991061051002501041999KA1999N-00891MD1510091+9999MW1181
0057029700999991958010612004+60117+019900FM-12+000399999V0201201N00931220001CN0200001N9-00781-01221101201ADDAY111999GF104991041051004501001001MD1710121+9999MW1181
0070029700999991958010618004+60117+019900FM-12+000399999V0201001N00821007801CN0200001N9-00781-01281101001ADDAY121999GF107991071051008001999999KA1999M-00721MD1710131+9999MW1031
0057029700999991958010700004+60117+019900FM-12+000399999V0201101N00931007801CN0200001N9-00891-01501100611ADDAY121999GF108991081051008001999999MD1710241+9999MW1021
0081029700999991958010706004+60117+019900FM-12+000399999V0200601N00821004501CN0009001N9-01281-01391100311ADDAA199000591AY171999GF108991081051004501001001KA1999N-01391MD1710151+9999MW1381
0057029700999991958010800004+60117+019900FM-12+000399999V0200501N00621004501CN0050001N9-01611-01721100481ADDAY171999GF106991061051004501001001MD1210031+9999MW1711
0081029700999991958010806004+60117+019900FM-12+000399999V0200401N00511004501CN0100001N9-01391-01611100691ADDAA199000391AY121999GF107991071051004501999999KA1999N-01721MD1210161+9999MW1031
0057029700999991958010812004+60117+019900FM-12+000399999V0200401N00211220001CN0150001N9-01501-01721100821ADDAY101999GF102991021051004501031001MD1210041+9999MW1021
0081029700999991958010818004+60117+019900FM-12+000399999V0209991C00001220001CN0150001N9-01891-02111100911ADDAA199000691AY101999GF102991021051004501001001KA1999M-01001MD1210041+9999MW1011
0076029700999991958010900004+60117+019900FM-12+000399999V0209991C00001220001CN0200001N9-02001-02111100781ADDAY101999GF101991999001999999031001MD1810131+9999MW1021EQDQ01+000002SCOTLC
0070029700999991958010906004+60117+019900FM-12+000399999V0200901N00211220001CN0150001N9-01281-01391100341ADDAY121999GF107991001001999999031011KA1999N-02391MD1710311+9999MW1031
0057029700999991958010912004+60117+019900FM-12+000399999V0201001N00571004501CN0110001N9-00891-01001099841ADDAY171999GF107991051051004501071999MD1710311+9999MW1731
0081029700999991958010918004+60117+019900FM-12+000399999V0201301N00621004501CN0050001N9-00721-00891099591ADDAA199001091AY171999GF108991081071004501001001KA1999M-00611MD1610011+9999MW1711
0076029700999991958011000004+60117+019900FM-12+000399999V0201101N00511007801CN0100001N9-00721-00891099491ADDAY121999GF108991999051008001001001MD1710071+9999MW1021EQDQ01+000072SCOTLC
0081029700999991958011006004+60117+019900FM-12+000399999V0200701N00411220001CN0250001N9-01111-01221099571ADDAA199000691AY101999GF101991011051004501001001KA1999N-01111MD1510071+9999MW1011
0081029700999991958011018004+60117+019900FM-12+000399999V0200301N00311002401CN0100001N9-01221-01281099691ADDAA199000691AY171999GF108991081071002501999999KA1999M-01111MD1110041+9999MW1711
0057029700999991958011100004+60117+019900FM-12+000399999V0200601N00211002401CN0080001N9-01001-01111099641ADDAY171999GF108991081071002501999999MD1710041+9999MW1711
0081029700999991958011106004+60117+019900FM-12+000399999V0200501N00311001501CN0050001N9-00781-00891099641ADDAA199000591AY171999GF108991081071001501001001KA1999N-01221MD1210011+9999MW1711
0057029700999991958011200004+60117+019900FM-12+000399999V0200601N00311001501CN0020001N9-00111-00111100141ADDAY111999GF108991081061001501001001MD1210131+9999MW1101
0070029700999991958011206004+60117+019900FM-12+000399999V0200901N00411000601CN0018001N9-00111-00111100141ADDAY121999GF108991081061000751999999KA1999N-00111MD1210081+9999MW1101
0057029700999991958011218004+60117+019900FM-12+000399999V0200601N00311000601CN0040001N9+00001+00001100781ADDAY121999GF108991081061000751999999MD1210211+9999MW1021
0057029700999991958011300004+60117+019900FM-12+000399999V0200301N00211007801CN0040001N9-00111-00111101351ADDAY121999GF108991081051008001999999MD1210311+9999MW1021
0089029700999991958011306004+60117+019900FM-12+000399999V0200101N00101007801CN0040001N9-00111-00221101851ADDAY121999GF108991081051008001001001KA1999N+99999MD1210241+9999MW1021EQDQ01 +00002ATMN  
0057029700999991958011312004+60117+019900FM-12+000399999V0203101N00051004501CN0040001N9+00001+00001102301ADDAY121999GF108991081051004501999999MD1210201+9999MW1021
0070029700999991958011318004+60117+019900FM-12+000399999V0203201N00101007801CN0060001N9-00111-00111102711ADDAY121999GF108991081051008001001001KA1999M+00001MD1210171+9999MW1021
0057029700999991958011400004+60117+019900FM-12+000399999V0209991C00001007801CN0060001N9-00221-00221102911ADDAY121999GF108991081051008001999999MD1210081+9999MW1021
0070029700999991958011406004+60117+019900FM-12+000399999V0202401N00101004501CN0100001N9-00221-00281102981ADDAY121999GF108991081051004501999999KA1999N-00281MD1210031+9999MW1021
0057029700999991958011412004+60117+019900FM-12+000399999V0202301N00411004501CN0100001N9-00111-00281102881ADDAY121999GF108991081051004501999999MD1810111+9999MW1021
0081029700999991958011418004+60117+019900FM-12+000399999V0202001N00621007801CN0060001N9+00111+00001102481ADDAA199000691AY121999GF108991081051008001999999KA1999M+00111MD1710251+9999MW1021
0057029700999991958011500004+60117+019900FM-12+000399999V0202301N00621007801CN0100001N9+00111-00111102151ADDAY121999GF108991081051008001999999MD1710211+9999MW1011
0081029700999991958011506004+60117+019900FM-12+000399999V0202801N00411001501CN0080001N9+00111+00111102061ADDAA199000691AY121999GF108991081061001501001001KA1999N+00001MD1410001+9999MW1021
0057029700999991958011600004+60117+019900FM-12+000399999V0209991C00001220001CN0005001N9-01001-01111102251ADDAY101999GF100991001001999999001001MD1710131+9999MW1121
0057029700999991958011700004+60117+019900FM-12+000399999V0202601N00151001501CN0070001N9+00111+00111100201ADDAY111999GF107991071061001501999999MD1710321+9999MW1031
0070029700999991958011706004+60117+019900FM-12+000399999V0202501N00411220001CN0100001N9+00111-00111099511ADDAY101999GF101991011051004501001001KA1999N-00111MD1710311+9999MW1011
0057029700999991958011712004+60117+019900FM-12+000399999V0202901N00671030001CN0500001N9+00221-00281099351ADDAY111999GF108991021051008001041011MD1710121+9999MW1031
0081029700999991958011718004+60117+019900FM-12+000399999V0203001N00511012301CN0100001N9+00001-00281098811ADDAA199000591AY121999GF108991081051012501001001KA1999M+00221MD1710161+9999MW1221
0057029700999991958011800004+60117+019900FM-12+000399999V0203001N00511220001CN0150001N9-00281-00721098601ADDAY101999GF101991011061004501001001MD1710081+9999MW1021
0081029700999991958011806004+60117+019900FM-12+000399999V0203001N00621004501CN0100001N9-00281-00391098651ADDAA199000691AY121999GF108991081051004501999999KA1999N-00501MD1310051+9999MW1701
0037029700999991958011812004+60117+019900FM-12+000399999V0202901N00721220001CN9999999N9-00221-00721099091ADDAY111999GF102991001001999999041011
0081029700999991958011818004+60117+019900FM-12+000399999V0202601N00621030001CN0200001N9-00281-00781098801ADDAA199000391AY121999GF107991021051008001041041KA1999M-00221MD1710271+9999MW1031
0057029700999991958012000004+60117+019900FM-12+000399999V0202701N00621004501CN0200001N9-00391-00501097391ADDAY171999GF107991071061004501999999MD1210321+9999MW1011
0081029700999991958012006004+60117+019900FM-12+000399999V0203001N00771007801CN0050001N9-00391-00611097361ADDAA199001091AY171999GF107991071051008001999999KA1999N-00611MD1210271+9999MW1711
0070029700999991958012118004+60117+019900FM-12+000399999V0202201N00211220001CN0040001N9-01281-01391100211ADDAY141999GF101991011051004501001001KA1999M-00501MD1210171+9999MW1011
0057029700999991958012200004+60117+019900FM-12+000399999V0203301N00101220001CN0060001N9+00001-00721100551ADDAY111999GF101991011051004501041001MD1210131+9999MW1011
0081029700999991958012206004+60117+019900FM-12+000399999V0202301N00101002401CN0040001N9-00501-00501100851ADDAA199000591AY121999GF108991081061002501999999KA1999N-01281MD1210111+9999MW1031
0057029700999991958012300004+60117+019900FM-12+000399999V0202101N00051002401CN0060001N9-00891-01001101281ADDAY121999GF107991071061002501999999MD1210071+9999MW1011
0070029700999991958012306004+60117+019900FM-12+000399999V0201101N00311030001CN0150001N9-00611-00721101341ADDAY101999GF106991041051008001041001KA1999N-01001MD1410001+9999MW1031
0057029700999991958012312004+60117+019900FM-12+000399999V0201501N00721004501CN0150001N9+00001-00221101401ADDAY121999GF108991071051004501999999MD1810011+9999MW1031
0081029700999991958012318004+60117+019900FM-12+000399999V0201801N00821007801CN0100001N9+00111-00111101521ADDAA199000691AY121999GF108991081051008001001001KA1999M+00111MD1210121+9999MW1021
0057029700999991958012400004+60117+019900FM-12+000399999V0201601N00621004501CN0100001N9+00001-00221101761ADDAY121999GF108991081051004501001001MD1210051+9999MW1021
0070029700999991958012406004+60117+019900FM-12+000399999V0200801N00511004501CN0070001N9-00281-00391101361ADDAY121999GF108991081051004501999999KA1999N-00391MD1710291+9999MW1701
0081029700999991958012418004+60117+019900FM-12+000399999V0202201N00311220001CN0150001N9-00221-00391101411ADDAA199002091AY111999GF104991021051004501071001KA1999M-00111MD1210211+9999MW1011
0057029700999991958012500004+60117+019900FM-12+000399999V0209991C00001220001CN0080001N9-00891-00891101801ADDAY121999GF107991001001999999071999MD1210171+9999MW1021
0081029700999991958012506004+60117+019900FM-12+000399999V0202601N00211002401CN0100001N9-00281-00391102151ADDAA199000691AY121999GF108991051051002501071001KA1999N-01111MD1210151+9999MW1021
0057029700999991958012512004+60117+019900FM-12+000399999V0202501N00311001501CN0040001N9-00281-00391102421ADDAY121999GF108991081061001501999999MD1110091+9999MW1021
0070029700999991958012518004+60117+019900FM-12+000399999V0203101N00311004501CN0060001N9-00391-00611102721ADDAY121999GF108991081051004501001001KA1999M-00221MD1210171+9999MW1021
0057029700999991958012600004+60117+019900FM-12+000399999V0202901N00151004501CN0060001N9-00501-00721102891ADDAY121999GF108991081051004501001001MD1210071+9999MW1021
0029029700999991958012606004+60117+019900FM-12+000399999V0202701N003119999999N9999999N9-00281-00391999999ADDGF108991081999999999999999
0057029700999991958012612004+60117+019900FM-12+000399999V0202301N00461001501CN0040001N9-00281-00391103211ADDAY121999GF107991071061001501001001MD1210031+9999MW1011
0070029700999991958012618004+60117+019900FM-12+000399999V0202301N00621220001CN0150001N9-00221-00611103201ADDAY111999GF106991001001999999041011KA1999M-00221MD1410001+9999MW1031
0057029700999991958012700004+60117+019900FM-12+000399999V0202301N00771012301CN0150001N9+00111-00391103171ADDAY121999GF108991081051012501999999MD1710011+9999MW1031
0089029700999991958012706004+60117+019900FM-12+000399999V0202401N00621220001CN0200001N9+00001-00111103011ADDAY121999GF107991999001999999071001KA1999N-00281MD1710091+9999MW1011EQDQ01+000002SCOTLC
0057029700999991958012712004+60117+019900FM-12+000399999V0202301N00571220001CN0200001N9+00111-00281102961ADDAY121999GF108991001001999999071999MD1710051+9999MW1021
0089029700999991958012718004+60117+019900FM-12+000399999V0202401N00621220001CN0150001N9+00111-00221102741ADDAY121999GF108991999001999999071001KA1999M+00111MD1710131+9999MW1021EQDQ01+000002SCOTLC
0070029700999991958012806004+60117+019900FM-12+000399999V0202701N00511004501CN0100001N9+00111-00111102291ADDAY121999GF108991081051004501999999KA1999N-00281MD1510051+9999MW1021
0081029700999991958012818004+60117+019900FM-12+000399999V0203001N00361030001CN0070001N9+00221+00111101921ADDAA199000391AY121999GF107991011071002501031999KA1999M+00221MD1510081+9999MW1011
0057029700999991958012900004+60117+019900FM-12+000399999V0203301N00511030001CN0050001N9+00221+00111101911ADDAY161999GF108991031051004501071999MD1410001+9999MW1601
0081029700999991958012906004+60117+019900FM-12+000399999V0200201N00311001501CN0150001N9+00111+00111102121ADDAA199000391AY121999GF108991081061001501001001KA1999N+00001MD1210171+9999MW1021
0076029700999991958012912004+60117+019900FM-12+000399999V0200801N003119999999N0150001N9+00111-00221102451ADDAY121999GF108991999001022501071999MD1210091+9999MW1011EQDQ01+000002SCOTLC
0081029700999991958012918004+60117+019900FM-12+000399999V0201401N00411002401CN0040001N9-00111-00221102661ADDAA199000691AY171999GF108991081061002501999999KA1999M+00281MD1210091+9999MW1681
0057029700999991958013000004+60117+019900FM-12+000399999V0201701N00511004501CN0080001N9+00001-00221102601ADDAY121999GF108991081051004501001001MD1710151+9999MW1021
0081029700999991958013006004+60117+019900FM-12+000399999V0201801N00621004501CN0100001N9+00001-00221102321ADDAA199000691AY171999GF108991081051004501999999KA1999N-00221MD1710091+9999MW1221
0057029700999991958013012004+60117+019900FM-12+000399999V0202001N00621000151CN0002001N9+00111+00111101991ADDAY171999GF109991091999000251999999MD1710191+9999MW1471
0100029700999991958013018004+60117+019900FM-12+000399999V0202601N00151002401CN0030001N9+00111+00111101651ADDAA199000691AY171999GF108991081061002501001001KA1999M+99999MD1710151+9999MW1581EQDQ01 +00002ATMX  
0057029700999991958013100004+60117+019900FM-12+000399999V0203201N00311002401CN0050001N9+00111+00001101581ADDAY121999GF107991071061002501999999MD1710011+9999MW1011
0081029700999991958013106004+60117+019900FM-12+000399999V0202901N00511030001CN0060001N9-00111-00111101711ADDAA199001091AY101999GF107991021051004501041011KA1999N-00281MD1310121+9999MW1031
0070029700999991958013118004+60117+019900FM-12+000399999V0202801N00511220001CN0150001N9+00111-00111101691ADDAY121999GF107991001001999999041061KA1999M+00221MD1010031+9999MW1031
0057029700999991958020100004+60117+019900FM-12+000399999V0202601N00411220001CN0100001N9+00001+00001101571ADDAY101999GF101991001001999999001011MD1710121+9999MW1011
0070029700999991958020106004+60117+019900FM-12+000399999V0202501N00211220001CN0100001N9-00111-00221101511ADDAY101999GF104991001001999999041051KA1999N-00281MD1410001+9999MW1031
0070029700999991958020118004+60117+019900FM-12+000399999V0202401N00571220001CN0150001N9+00111-00111100951ADDAY101999GF104991001001999999041011KA1999M+00281MD1710121+9999MW1021
0057029700999991958020200004+60117+019900FM-12+000399999V0202401N00721004501CN0150001N9+00111-00111100691ADDAY121999GF107991071051004501999999MD1610171+9999MW1021
0100029700999991958020206004+60117+019900FM-12+000399999V0202401N00411220001CN0100001N9+00111+00001100591ADDAA199000391AY121999GF102991999001999999041001KA1999N+00001MD1710041+9999MW1011EQDQ01+000002SCOTLC
0057029700999991958020300004+60117+019900FM-12+000399999V0202201N00411220001CN0100001N9+00001+00001099691ADDAY111999GF100991001001999999001001MD1710331+9999MW1011
0081029700999991958020306004+60117+019900FM-12+000399999V0203601N00311004501CN0060001N9+00001-00111099401ADDAA199000691AY121999GF108991051051004501041999KA1999N-00281MD1510031+9999MW1701
0081029700999991958020318004+60117+019900FM-12+000399999V0203601N00821030001CN0150001N9+00001-00221099971ADDAA199001091AY171999GF107991031051008001041999KA1999M+00221MD1210241+9999MW1031
0057029700999991958020400004+60117+019900FM-12+000399999V0203401N00721220001CN0200001N9-00111-00721100401ADDAY101999GF104991011051008001041011MD1210201+9999MW1031
0070029700999991958020406004+60117+019900FM-12+000399999V0203501N00511220001CN0300001N9-00221-00611100641ADDAY101999GF103991031051004501001001KA1999N-00281MD1210131+9999MW1031
0081029700999991958020418004+60117+019900FM-12+000399999V0209991C00001220001CN0200001N9-01001-01111100391ADDAA199000391AY111999GF104991041051004501999001KA1999M-00221MD1710091+9999MW1021
0057029700999991958020512004+60117+019900FM-12+000399999V0200301N00211030001CN0100001N9-01001-01111099261ADDAY171999GF108991021051004501011071MD1710231+9999MW1711
0057029700999991958020700004+60117+019900FM-12+000399999V0200301N00411004501CN0015001N9-00781-00891099461ADDAY171999GF108991081051004501001001MD1210011+9999MW1731
0057029700999991958020718004+60117+019900FM-12+000399999V0203601N00511030001CN0030001N9-00721-00891099971ADDAY171999GF108991041071008001021999MD1210211+9999MW1711
0057029700999991958020800004+60117+019900FM-12+000399999V0209991C00001007801CN0050001N9-01111-01111100381ADDAY171999GF108991081051008001999999MD1210211+9999MW1711
0057029700999991958020812004+60117+019900FM-12+000399999V0200901N00101220001CN0100001N9-01001-01221101001ADDAY101999GF101991011051008001041011MD1110111+9999MW1021
0057029700999991958021012004+60117+019900FM-12+000399999V0200601N00101220001CN0300001N9-01001-01221101691ADDAY101999GF102991011051008001001011MD1210071+9999MW1031
0057029700999991958021100004+60117+019900FM-12+000399999V0200601N00211220001CN0200001N9-02281-02501101841ADDAY101999GF101991001001999999041011MD1710031+9999MW1031
0057029700999991958021212004+60117+019900FM-12+000399999V0200601N00411001501CN0080001N9-00391-00501099881ADDAY121999GF108991081071001501999999MD1610161+9999MW1021
0057029700999991958021418004+60117+019900FM-12+000399999V0201801N00511220001CN0150001N9+00001+00001100841ADDAY121999GF101991001001999999041011MD1710211+9999MW1011
0057029700999991958021500004+60117+019900FM-12+000399999V0201201N00101000151CN0005001N9+00111+00111100281ADDAY141999GF109991091999000251999999MD1710281+9999MW1451
0081029700999991958021506004+60117+019900FM-12+000399999V0203201N00511001501CN0040001N9+00001+00001100341ADDAA199001091AY121999GF108991071061001501999999KA1999N-00111MD1510081+9999MW1011
0057029700999991958021512004+60117+019900FM-12+000399999V0203201N00511220001CN0400001N9+00221-00281100671ADDAY101999GF101991001001999999001011MD1210211+9999MW1021
0070029700999991958021518004+60117+019900FM-12+000399999V0203001N00211220001CN0400001N9-00391-00721100861ADDAY101999GF102991001001999999031011KA1999M+00221MD1410001+9999MW1021
0076029700999991958021600004+60117+019900FM-12+000399999V0209991C00001220001CN0005001N9-00891-00891100481ADDAY121999GF102991999001999999041001MD1710281+9999MW1461EQDQ01+000002SCOTLC
0070029700999991958021606004+60117+019900FM-12+000399999V0209991C00001000151CN0002001N9-00891-01001099801ADDAY141999GF107991071061000251999999KA1999N-01111MD1710351+9999MW1461
0070029700999991958021618004+60117+019900FM-12+000399999V0200701N00511002401CN0150001N9-00281-00281098781ADDAY121999GF108991081061002501001001KA1999M+00111MD1710231+9999MW1021
0057029700999991958021700004+60117+019900FM-12+000399999V0203601N00211000601CN0080001N9-00611-00721098371ADDAY121999GF108991081061000751001001MD1710311+9999MW1021
0081029700999991958021718004+60117+019900FM-12+000399999V0203601N00511004501CN0025001N9-00281-00391098681ADDAA199000591AY171999GF108991081051004501999999KA1999M-00221MD1210151+9999MW1731
0057029700999991958021900004+60117+019900FM-12+000399999V0203001N00411004501CN0060001N9-00501-00721099881ADDAY171999GF108991081051004501001001MD1210071+9999MW1711
0057029700999991958022000004+60117+019900FM-12+000399999V0209991C00001220001CN0200001N9-01891-02111099791ADDAY101999GF108991001001999999999999MD1710031+9999MW1021
0057029700999991958022012004+60117+019900FM-12+000399999V0200201N00101030001CN0300001N9-00391-00721099741ADDAY121999GF108991011051004501041071MD1610041+9999MW1031
0057029700999991958022218004+60117+019900FM-12+000399999V0203601N00511004501CN0100001N9-01001-01111100491ADDAY171999GF108991081051004501001001MD1210121+9999MW1711
0057029700999991958022400004+60117+019900FM-12+000399999V0203301N00311004501CN0100001N9-01281-01611100911ADDAY171999GF108991081051004501999999MD1210031+9999MW1711
0057029700999991958022412004+60117+019900FM-12+000399999V0203501N00511220001CN0200001N9-01221-01501101171ADDAY111999GF103991031051008001001001MD1210081+9999MW1011
0057029700999991958022600004+60117+019900FM-12+000399999V0200501N00151220001CN0200001N9-01501-01721101491ADDAY121999GF108991001001999999071999MD1810071+9999MW1021
0057029700999991958022618004+60117+019900FM-12+000399999V0200101N00511030001CN0030001N9-01111-01281100751ADDAY171999GF108991021071004501021001MD1510031+9999MW1711
0076029700999991958022700004+60117+019900FM-12+000399999V0203501N00411220001CN0060001N9-01111-01111100771ADDAY171999GF108991999001999999021001MD1210041+9999MW1711EQDQ01+000002SCOTLC
0057029700999991958022812004+60117+019900FM-12+000399999V0202101N00721220001CN0200001N9-00721-01111100851ADDAY101999GF101991001001999999041081MD1810071+9999MW1011
0081029700999991958030106004+60117+019900FM-12+000399999V0202501N00511004501CN0150001N9-00281-00501101011ADDAA199000691AY121999GF108991081051004501999999KA1999N-00721MD1610011+9999MW1021
0070029700999991958030118004+60117+019900FM-12+000399999V0202201N00261002401CN0100001N9-00111-00221100981ADDAY121999GF108991081071002501001001KA1999M-00111MD1610011+9999MW1021
0057029700999991958030200004+60117+019900FM-12+000399999V0202101N00051000151CN0003001N9-00111-00111101051ADDAY121999GF109991091999000251999999MD1210071+9999MW1471
0089029700999991958030206004+60117+019900FM-12+000399999V0200401N00361001501CN0060001N9-00501-00611101201ADDAY121999GF108991999061001501001001KA1999N-00501MD1210111+9999MW1021EQDQ01+000062SCOTLC
0081029700999991958030218004+60117+019900FM-12+000399999V0203601N00511030001CN0300001N9-00781-01281101811ADDAA199000691AY121999GF108991021051008001071001KA1999M-00111MD1210201+9999MW1021
0057029700999991958030300004+60117+019900FM-12+000399999V0203601N00311220001CN0300001N9-01391-01611102081ADDAY101999GF100991001001999999001001MD1210131+9999MW1021
0070029700999991958030306004+60117+019900FM-12+000399999V0203601N00311220001CN0200001N9-01501-01721102401ADDAY121999GF101991011051004501041011KA1999N-01611MD1210091+9999MW1031
0070029700999991958030318004+60117+019900FM-12+000399999V0209991C00001220001CN0200001N9-01501-01721102551ADDAY101999GF101991001001999999001011KA1999M-00611MD1610011+9999MW1021
0057029700999991958030400004+60117+019900FM-12+000399999V0202001N00621220001CN0200001N9-00721-01001102311ADDAY121999GF108991001001999999011999MD1710191+9999MW1031
0070029700999991958030406004+60117+019900FM-12+000399999V0202001N00621004501CN0150001N9-00391-00501101861ADDAY121999GF108991081051004501999999KA1999N-01721MD1710231+9999MW1021
0081029700999991958030418004+60117+019900FM-12+000399999V0202101N00821000601CN0020001N9-00111-00111100791ADDAA199000591AY121999GF108991081061000751001001KA1999M-00111MD1710351+9999MW1101
0076029700999991958030500004+60117+019900FM-12+000399999V0202001N00721000601CN0002001N9+00001+00001099791ADDAY121999GF108991081061000751999999MD1710522+9999MW1631EQDQ01+000522APC3  
0081029700999991958030506004+60117+019900FM-12+000399999V0202701N00511001501CN0150001N9+00221+00221099091ADDAA199007091AY121999GF108991081071001501999999KA1999N-00111MD1610271+9999MW1011
0057029700999991958030518004+60117+019900FM-12+000399999V0202101N00311220001CN0400001N9-00111-00221099041ADDAY101999GF100991001001999999001001MD1810131+9999MW1021
0057029700999991958030600004+60117+019900FM-12+000399999V0201301N00151220001CN0150001N9-00281-00281098581ADDAY101999GF104991001001999999051011MD1610241+9999MW1031
0070029700999991958030606004+60117+019900FM-12+000399999V0200701N00411000151CN0012001N9-00111-00111098041ADDAY141999GF109991091999000251999999KA1999N-00721MD1710211+9999MW1431
0100029700999991958030618004+60117+019900FM-12+000399999V0200301N00621030001CN0150001N9-00781-01001099111ADDAA199001091AY131999GF107991031051004501071001KA1999M+00001MD1210522+9999MW1361EQDQ01+000522APC3  
0057029700999991958030700004+60117+019900FM-12+000399999V0200301N00411220001CN0300001N9-01281-01501099881ADDAY111999GF104991001001999999041051MD1210361+9999MW1011
0081029700999991958030706004+60117+019900FM-12+000399999V0201101N00621030001CN0060001N9-01391-01611100251ADDAA199000391AY121999GF105991031051004501041001KA1999N-01391MD1210211+9999MW1851
0081029700999991958030718004+60117+019900FM-12+000399999V0200101N00511220001CN0300001N9-01281-01611101151ADDAA199000691AY101999GF101991001001999999001011KA1999M-01111MD1210171+9999MW1011
0070029700999991958030806004+60117+019900FM-12+000399999V0209991C00001220001CN0400001N9-01111-01281101611ADDAY101999GF101991001001999999001011KA1999N-01221MD1310081+9999MW1021
0070029700999991958030818004+60117+019900FM-12+000399999V0200701N00211220001CN0400001N9-01391-01611101611ADDAY101999GF100991001001999999001001KA1999M-00781MD1710041+9999MW1011
0057029700999991958030900004+60117+019900FM-12+000399999V0200701N00211220001CN0300001N9-01611-02111101601ADDAY101999GF100991001001999999001001MD1710011+9999MW1021
0089029700999991958030906004+60117+019900FM-12+000399999V0200801N00311220001CN0300001N9-01501-01611101421ADDAY101999GF101991999001999999031001KA1999N-02001MD1710031+9999MW1021EQDQ01+000002SCOTLC
0057029700999991958030912004+60117+019900FM-12+000399999V0200501N00411030001CN0150001N9-01001-01281101381ADDAY171999GF107991041051008001031001MD1610011+9999MW1701
0081029700999991958030918004+60117+019900FM-12+000399999V0200301N00311220001CN0200001N9-01001-01501101201ADDAA199000391AY111999GF104991001001999999041051KA1999M-00781MD1710061+9999MW1031
0057029700999991958031000004+60117+019900FM-12+000399999V0200301N00411220001CN0300001N9-01221-01501100921ADDAY101999GF104991001001999999041051MD1710201+9999MW1031
0070029700999991958031006004+60117+019900FM-12+000399999V0200201N00511030001CN0300001N9-01221-01611100521ADDAY121999GF107991011051008001041061KA1999N-01281MD1710231+9999MW1011
0081029700999991958031018004+60117+019900FM-12+000399999V0200201N00721004501CN0035001N9-00781-01001099781ADDAA199000691AY171999GF108991081051004501001001KA1999M-00721MD1710051+9999MW1731
0057029700999991958031100004+60117+019900FM-12+000399999V0200101N00621004501CN0025001N9-00781-00891099491ADDAY171999GF108991081051004501001001MD1710091+9999MW1731
0081029700999991958031106004+60117+019900FM-12+000399999V0200101N00621004501CN0025001N9-00611-00721099291ADDAA199001091AY171999GF108991071051004501999999KA1999N-00891MD1710091+9999MW1731
0081029700999991958031118004+60117+019900FM-12+000399999V0200101N00621004501CN0020001N9-00391-00501099211ADDAA199001091AY171999GF108991061071004501021999KA1999M-00281MD1810031+9999MW1731
0057029700999991958031200004+60117+019900FM-12+000399999V0203601N00311001501CN0100001N9-00391-00501099141ADDAY171999GF108991081061001501999999MD1710071+9999MW1221
0081029700999991958031206004+60117+019900FM-12+000399999V0200701N00411004501CN0060001N9-00501-00611099381ADDAA199002091AY171999GF108991061051004501001011KA1999N-00611MD1210211+9999MW1711
0081029700999991958031218004+60117+019900FM-12+000399999V0203301N00211004501CN0200001N9-00721-00781100161ADDAA199000391AY121999GF107991071051004501001001KA1999M-00281MD1210201+9999MW1011
0057029700999991958031300004+60117+019900FM-12+000399999V0209991C00001004501CN0100001N9-00891-01001100401ADDAY111999GF108991081051004501001001MD1210041+9999MW1031
0070029700999991958031306004+60117+019900FM-12+000399999V0202401N00151002401CN0100001N9-01221-01281100741ADDAY121999GF107991061051002501031999KA1999N-01281MD1210121+9999MW1031
0057029700999991958031400004+60117+019900FM-12+000399999V0200201N00511002401CN0015001N9-00391-00501100711ADDAY171999GF108991081071002501999999MD1710161+9999MW1731
0081029700999991958031406004+60117+019900FM-12+000399999V0200501N00411001501CN0005001N9-00281-00391100621ADDAA199001091AY171999GF108991081071001501001001KA1999N-00781MD1710031+9999MW1731
0081029700999991958031418004+60117+019900FM-12+000399999V0200301N00511004501CN0030001N9-00111-00221100691ADDAA199000591AY171999GF108991081051004501999999KA1999M+00001MD1010031+9999MW1711
0057029700999991958031518004+60117+019900FM-12+000399999V0200601N00311007801CN0200001N9-00221-00611101801ADDAY121999GF108991081051008001999999MD1210161+9999MW1021
0043029700999991958031600004+60117+019900FM-12+000399999V0200501N002119999999N0200001N9-00391-00501101971ADDAY121999GF107991021071001501999999MW1011
0057029700999991958031918004+60117+019900FM-12+000399999V0200401N00051220001CN0200001N9-01281-01391102991ADDAY101999GF101991001001999999001011MD1310041+9999MW1021
0057029700999991958032012004+60117+019900FM-12+000399999V0200501N00511030001CN0300001N9-00391-00781102751ADDAY121999GF107991011041004501041061MD1210041+9999MW1021
0057029700999991958032300004+60117+019900FM-12+000399999V0201501N00101220001CN0200001N9-01891-02001103121ADDAY101999GF100991001001999999001001MD1710041+9999MW1021
0057029700999991958032312004+60117+019900FM-12+000399999V0202101N00411220001CN0100001N9-00281-00721102741ADDAY101999GF100991001001999999001001MD1710131+9999MW1051
0057029700999991958032500004+60117+019900FM-12+000399999V0209991C00001220001CN0200001N9-01501-01611102191ADDAY101999GF100991001001999999001001MD1710011+9999MW1021
0057029700999991958032712004+60117+019900FM-12+000399999V0203401N00361220001CN0200001N9-00221-00891101921ADDAY101999GF100991001001999999001001MD1210041+9999MW1021
0057029700999991958032718004+60117+019900FM-12+000399999V0203601N00311220001CN0400001N9-00721-00891101941ADDAY101999GF100991001001999999001001MD1110041+9999MW1021
0057029700999991958032800004+60117+019900FM-12+000399999V0203501N00101220001CN0200001N9-01391-01501102081ADDAY101999GF100991001001999999001001MD1210041+9999MW1021
0057029700999991958032818004+60117+019900FM-12+000399999V0201101N00101220001CN0500001N9-00781-01391102481ADDAY101999GF100991001001999999001001MD1210071+9999MW1021
0057029700999991958032918004+60117+019900FM-12+000399999V0201801N00211220001CN0200001N9-00281-00721102841ADDAY121999GF107991001001999999031999MD1310011+9999MW1031
0057029700999991958033000004+60117+019900FM-12+000399999V0209991C00001220001CN0200001N9-01391-01391103081ADDAY101999GF100991001001999999001001MD1210161+9999MW1021
0057029700999991958033012004+60117+019900FM-12+000399999V0202101N00051220001CN0500001N9-00111-01001103391ADDAY101999GF100991001001999999001001MD1410001+9999MW1021
0057029700999991958033100004+60117+019900FM-12+000399999V0209991C00001220001CN0300001N9-01611-01611103361ADDAY101999GF100991001001999999001001MD1710011+9999MW1011
0070029700999991958033118004+60117+019900FM-12+000399999V0209991C00001220001CN0300001N9-00781-01281103021ADDAY101999GF101991001001999999041011KA1999M+00001MD1610041+9999MW1011
0057029700999991958040100004+60117+019900FM-12+000399999V0200501N00101220001CN0300001N9-00781-01391102991ADDAY101999GF100991001001999999001001MD1710041+9999MW1021
0070029700999991958040106004+60117+019900FM-12+000399999V0200401N00511220001CN0300001N9-00611-01221102911ADDAY101999GF105991001001999999051011KA1999N-01281MD1710041+9999MW1031
0057029700999991958040118004+60117+019900FM-12+000399999V0200801N00621007801CN0030001N9-00111-02221102911ADDAY171999GF108991051081008001021001MD1210111+9999MW1711
0057029700999991958040200004+60117+019900FM-12+000399999V0200901N00511220001CN0300001N9-00281-02611103341ADDAY121999GF108991001001999999041999MD1010401+9999MW1021
0057029700999991958040300004+60117+019900FM-12+000399999V0201101N00411220001CN0250001N9-00281-00501103181ADDAY121999GF108991001001999999001071MD1210011+9999MW1021
0070029700999991958040306004+60117+019900FM-12+000399999V0201201N00311220001CN0300001N9-00221-00501103211ADDAY121999GF104991001001999999001081KA1999N-00721MD1210051+9999MW1011
0057029700999991958040400004+60117+019900FM-12+000399999V0201401N00571220001CN0400001N9-00111-00501102861ADDAY101999GF100991001001999999001001MD1710051+9999MW1021
0070029700999991958040406004+60117+019900FM-12+000399999V0201201N00411220001CN0400001N9-00221-00391102711ADDAY101999GF100991001001999999001001KA1999N-00611MD1710111+9999MW1021
0057029700999991958040412004+60117+019900FM-12+000399999V0201501N00621220001CN0500001N9+00221-00391102521ADDAY101999GF100991001001999999001001MD1710131+9999MW1021
0070029700999991958040418004+60117+019900FM-12+000399999V0201301N00411220001CN0400001N9+00111-00501102181ADDAY121999GF107991001001999999041061KA1999M+00221MD1710161+9999MW1031
0057029700999991958040500004+60117+019900FM-12+000399999V0201201N00311030001CN0200001N9+00111-00111101881ADDAY121999GF108991041051008001071999MD1710171+9999MW1021
0100029700999991958040506004+60117+019900FM-12+000399999V0201201N00311004501CN0150001N9+00001-00221101541ADDAA199000691AY171999GF108991999051004501001001KA1999N-00111MD1710131+9999MW1711EQDQ01+000062SCOTLC
0081029700999991958040518004+60117+019900FM-12+000399999V0200501N00211001501CN0035001N9-00111-00221101151ADDAA199002091AY171999GF108991071071001501021001KA1999M+00111MD1710151+9999MW1711
0057029700999991958040600004+60117+019900FM-12+000399999V0200101N00411001501CN0050001N9-00111-00111100941ADDAY171999GF108991081071001501001001MD1710091+9999MW1711
0081029700999991958040606004+60117+019900FM-12+000399999V0203501N00621001501CN0080001N9-00111-00221100861ADDAA199000391AY121999GF108991081071001501999999KA1999N-00221MD1410001+9999MW1021
0070029700999991958040618004+60117+019900FM-12+000399999V0203301N00311220001CN0500001N9-00221-00391101081ADDAY111999GF100991001001999999001001KA1999M+00111MD1110081+9999MW1021
0057029700999991958040700004+60117+019900FM-12+000399999V0209991C00001220001CN0400001N9-01111-01221101111ADDAY101999GF100991001001999999001001MD1810011+9999MW1021
0070029700999991958040718004+60117+019900FM-12+000399999V0202001N00101220001CN0500001N9-00281-00611100991ADDAY101999GF102991011051004501031011KA1999M+00281MD1510091+9999MW1031
0076029700999991958040800004+60117+019900FM-12+000399999V0203301N00411220001CN0400001N9-00391-00611101061ADDAY101999GF101991999001999999041001MD1210081+9999MW1021EQDQ01+000002SCOTLC
0070029700999991958040806004+60117+019900FM-12+000399999V0203601N00211220001CN0500001N9-00611-00721101361ADDAY101999GF100991001001999999001001KA1999N-00781MD1210171+9999MW1021
0057029700999991958040812004+60117+019900FM-12+000399999V0203201N00311004501CN0500001N9-00111-00221101581ADDAY111999GF105991051011004501001001MD1210071+9999MW1021
0057029700999991958040900004+60117+019900FM-12+000399999V0201801N00511220001CN0200001N9-00391-00501101361ADDAY101999GF100991001001999999001001MD1710151+9999MW1021
0070029700999991958040906004+60117+019900FM-12+000399999V0202001N00621030001CN0400001N9-00221-00281101241ADDAY121999GF107991011051008001041061KA1999N-01001MD1610071+9999MW1021
0070029700999991958040918004+60117+019900FM-12+000399999V0201401N00411004501CN0300001N9-00111-00391101691ADDAY121999GF106991061051004501001001KA1999M+00111MD1210171+9999MW1031
0057029700999991958041000004+60117+019900FM-12+000399999V0201801N00211220001CN0300001N9-00781-00891102011ADDAY101999GF100991001001999999001001MD1210191+9999MW1021
0057029700999991958041012004+60117+019900FM-12+000399999V0200601N00411220001CN0400001N9-00281-00781102591ADDAY101999GF101991011011008001001011MD1210071+9999MW1021
0057029700999991958041018004+60117+019900FM-12+000399999V0203601N00411220001CN0400001N9-00221-00781102791ADDAY101999GF101991001001999999001011MD1210091+9999MW1021
0057029700999991958041100004+60117+019900FM-12+000399999V0203601N00511220001CN0300001N9-00721-00781102961ADDAY101999GF100991001001999999001001MD1210091+9999MW1021
0057029700999991958041200004+60117+019900FM-12+000399999V0209991C00001220001CN0300001N9-00721-00781102721ADDAY101999GF101991001001999999001011MD1710091+9999MW1021
0057029700999991958041418004+60117+019900FM-12+000399999V0201701N00151030001CN0150001N9+00111+00111101261ADDAY161999GF108991021051008001071999MD1710171+9999MW1611
0057029700999991958041500004+60117+019900FM-12+000399999V0202101N00621220001CN0100001N9+00221+00001100991ADDAY121999GF108991001001999999071999MD1710151+9999MW1021
0057029700999991958041512004+60117+019900FM-12+000399999V0202101N00721002401CN0070001N9+00221+00111100401ADDAY121999GF108991071061002501999999MD1710151+9999MW1011
0078029700999991958041618004+60117+019900FM-12+000399999V0202101N00211220001CN0300001N9+00221-00111100051ADDAY101999GF101991011041004501001011MW1011EQDQ01+000042APCTENQ02+000042APC3  
0057029700999991958041700004+60117+019900FM-12+000399999V0209991C00001220001CN0150001N9-00281-00391100111ADDAY101999GF100991001001999999001001MD1110071+9999MW1011
0057029700999991958041712004+60117+019900FM-12+000399999V0203301N00411220001CN0500001N9+00611-00111100851ADDAY101999GF101991011011008001001011MD1210191+9999MW1021
0057029700999991958041718004+60117+019900FM-12+000399999V0203301N00211220001CN0500001N9+00221-00111101141ADDAY101999GF101991011051008001041011MD1210151+9999MW1031
0076029700999991958041800004+60117+019900FM-12+000399999V0202801N00101220001CN0300001N9-00391-00391101291ADDAY101999GF101991999001999999041001MD1210051+9999MW1011EQDQ01+000002SCOTLC
0057029700999991958041918004+60117+019900FM-12+000399999V0201601N00771001501CN0025001N9+00111+00111100981ADDAY171999GF108991081071001501001001MD1610091+9999MW1681
0057029700999991958042000004+60117+019900FM-12+000399999V0201301N00621001501CN0030001N9+00001+00001100801ADDAY171999GF108991081071001501001001MD1710091+9999MW1681
0057029700999991958042018004+60117+019900FM-12+000399999V0202501N00101000151CN0005001N9+00111+00111101081ADDAY141999GF109991091061000251999999MD1710031+9999MW1431
0057029700999991958042112004+60117+019900FM-12+000399999V0201201N00511001501CN0027001N9+00111+00111100681ADDAY171999GF108991081061001501999999MD1210051+9999MW1681
0057029700999991958042300004+60117+019900FM-12+000399999V0200601N00101220001CN0300001N9-00221-00281102081ADDAY121999GF108991001001999999041071MD1110011+9999MW1021
0057029700999991958042312004+60117+019900FM-12+000399999V0200301N00311004501CN0400001N9+00221+00221102321ADDAY121999GF108991061071004501999999MD1010091+9999MW1031
0057029700999991958042318004+60117+019900FM-12+000399999V0200101N00211030001CN0200001N9+00221+00111102441ADDAY111999GF106991011051004501051001MD1210111+9999MW1031
0057029700999991958042500004+60117+019900FM-12+000399999V0209991C00001220001CN0150001N9-00391-00501102601ADDAY101999GF100991001001999999001001MD1710031+9999MW1011
0057029700999991958042518004+60117+019900FM-12+000399999V0201101N00211220001CN0400001N9+00281-00391102551ADDAY101999GF100991001001999999001001MD1710081+9999MW1021
0057029700999991958042600004+60117+019900FM-12+000399999V0200701N00311220001CN0400001N9-00111-00111102041ADDAY101999GF100991001001999999001001MD1710051+9999MW1021
0070029700999991958042606004+60117+019900FM-12+000399999V0200901N00211220001CN0400001N9+00221-00221101761ADDAY101999GF108991001001999999001011KA1999N-00221MD1710131+9999MW1021
0057029700999991958042618004+60117+019900FM-12+000399999V0201101N00311030001CN0200001N9+00391+00001101351ADDAY121999GF108991031051008001021999MD1710091+9999MW1031
0057029700999991958042812004+60117+019900FM-12+000399999V0200301N00261004501CN0100001N9+00281+00221100501ADDAY151999GF108991081051004501001001MD1210031+9999MW1621
0057029700999991958042818004+60117+019900FM-12+000399999V0200301N00051000151CN0002001N9+00111+00111100661ADDAY141999GF109991091999000251999999MD1410001+9999MW1471
0057029700999991958042900004+60117+019900FM-12+000399999V0202301N00051001501CN0050001N9+00001+00001100781ADDAY101999GF108991081061001501999999MD1210091+9999MW1021
0043029700999991958042912004+60117+019900FM-12+000399999V0202301N00511001501CN0080001N9+00281+00221101451ADDAY121999GF108991071071001501999999MW1021
0076029700999991958043000004+60117+019900FM-12+000399999V0201901N00511220001CN0100001N9+00221+00221101681ADDAY101999GF108991999001999999011001MD1710081+9999MW1031EQDQ01+000002SCOTLC
0057029700999991958050100004+60117+019900FM-12+000399999V0209991C00001007801CN0400001N9+00221+00001101681ADDAY111999GF106991061061008001001001MD1710011+9999MW1031
0081029700999991958050106004+60117+019900FM-12+000399999V0203001N00311220001CN0400001N9+00391+00001101811ADDAA199000691AY121999GF100991001001999999001001KA1999N+00221MD1210131+9999MW1011
0057029700999991958050112004+60117+019900FM-12+000399999V0203101N00771220001CN0500001N9+01001-00221102051ADDAY101999GF104991031011008001061001MD1110051+9999MW1031
0070029700999991958050118004+60117+019900FM-12+000399999V0203101N00311220001CN0500001N9+00781-00281101981ADDAY101999GF101991011081008001031001KA1999M+01001MD1710041+9999MW1011
0057029700999991958050200004+60117+019900FM-12+000399999V0209991C00001220001CN0400001N9-00111-00221101851ADDAY111999GF103991001001999999001051MD1710161+9999MW1021
0070029700999991958050206004+60117+019900FM-12+000399999V0202001N00311030001CN0300001N9+00281+00001101381ADDAY121999GF108991041071004501021999KA1999N-00391MD1710241+9999MW1031
0057029700999991958050212004+60117+019900FM-12+000399999V0201501N00511004501CN0200001N9+00391+00281100801ADDAY121999GF108991081051004501001001MD1710311+9999MW1021
0081029700999991958050218004+60117+019900FM-12+000399999V0200901N00311000601CN0025001N9+00281+00281100021ADDAA199004091AY161999GF108991081071000751999999KA1999M+00391MD1710391+9999MW1611
0057029700999991958050400004+60117+019900FM-12+000399999V0203501N00821002401CN0100001N9+00221+00221099741ADDAY161999GF108991081061002501001001MD1210071+9999MW1611
0081029700999991958050406004+60117+019900FM-12+000399999V0203401N00931001501CN0025001N9+00111+00111099851ADDAA199007091AY171999GF108991081071001501999999KA1999N+00001MD1310081+9999MW1691
0057029700999991958050412004+60117+019900FM-12+000399999V0203501N00931004501CN0060001N9+00221+00111100281ADDAY121999GF108991071051004501021001MD1310241+9999MW1681
0081029700999991958050418004+60117+019900FM-12+000399999V0203401N00571220001CN0250001N9+00221-00111100551ADDAA199002091AY121999GF107991001001999999051011KA1999M+00501MD1310111+9999MW1021
0043029700999991958050718004+60117+019900FM-12+000399999V0200601N00051220001CN0020001N9+00221+00221100641ADDAY131999GF102991021061000751001001MW1281
0057029700999991958050912004+60117+019900FM-12+000399999V0201701N00511001501CN0030001N9+00391+00281100811ADDAY141999GF108991081061001501999999MD1710151+9999MW1011
0057029700999991958051012004+60117+019900FM-12+000399999V0202101N00411220001CN0200001N9+01111+00611100461ADDAY121999GF104991031011008001001021MD1210011+9999MW1011
0057029700999991958051018004+60117+019900FM-12+000399999V0201801N00101220001CN0300001N9+00781+00111100461ADDAY101999GF102991011041008001061001MD1210011+9999MW1011
0057029700999991958051100004+60117+019900FM-12+000399999V0209991C00001220001CN0100001N9+00001-00111100581ADDAY101999GF100991001001999999001001MD1210041+9999MW1021
0057029700999991958051112004+60117+019900FM-12+000399999V0201901N00511220001CN0400001N9+01111+00111100651ADDAY101999GF199999001001999999031001MD1610011+9999MW1021
0057029700999991958051118004+60117+019900FM-12+000399999V0202001N00311220001CN0400001N9+00781+00111100541ADDAY101999GF102991001001999999031011MD1710081+9999MW1021
0057029700999991958051200004+60117+019900FM-12+000399999V0201801N00211220001CN0300001N9+00391+00111100391ADDAY101999GF100991001001999999001001MD1710121+9999MW1011
0057029700999991958051318004+60117+019900FM-12+000399999V0203101N00621220001CN0300001N9+00781+00221100601ADDAY121999GF102991011021008001071999MD1210281+9999MW1021
0057029700999991958051412004+60117+019900FM-12+000399999V0202101N00411220001CN0500001N9+00781+00281101751ADDAY101999GF102991011011008001001011MD1210091+9999MW1021
0057029700999991958051418004+60117+019900FM-12+000399999V0201501N00211007801CN0500001N9+00611+00281101601ADDAY121999GF107991071041008001051999MD1710121+9999MW1031
0057029700999991958051518004+60117+019900FM-12+000399999V0200701N00511030001CN0200001N9+00501+00391100411ADDAY161999GF108991041051008001021001MD1710281+9999MW1611
0057029700999991958051618004+60117+019900FM-12+000399999V0201901N00311030001CN0040001N9+00501+00391100111ADDAY121999GF106991021061001501071011MD1310131+9999MW1011
0057029700999991958051700004+60117+019900FM-12+000399999V0201501N00151030001CN0040001N9+00281+00281100351ADDAY121999GF108991031061001501071999MD1310081+9999MW1021
0057029700999991958051718004+60117+019900FM-12+000399999V0200201N00511007801CN0030001N9+00721+00611099511ADDAY161999GF108991061051008001021999MD1710431+9999MW1631
0057029700999991958051812004+60117+019900FM-12+000399999V0202901N00411220001CN0400001N9+00891-00111099811ADDAY101999GF100991001001999999001001MD1610071+9999MW1011
0057029700999991958051900004+60117+019900FM-12+000399999V0202801N00101220001CN0200001N9+00281+00281099761ADDAY101999GF101991011051008001041001MD1410001+9999MW1011
0057029700999991958052000004+60117+019900FM-12+000399999V0209999999999220001CN0220001N9-00221-00221101301ADDAY101999GF100991001001999999001001MD1210101+9999MW1011
0057029700999991958052018004+60117+019900FM-12+000399999V0201801N00671004501CN0200001N9+00611+00501100711ADDAY121999GF108991051051004501021999MD1610211+9999MW1021
0057029700999991958052112004+60117+019900FM-12+000399999V0202101N00621220001CN0400001N9+01111+00611100721ADDAY101999GF101991001001999999001011MD1210051+9999MW1011
0057029700999991958052118004+60117+019900FM-12+000399999V0202001N00511220001CN0350001N9+00721+00391100691ADDAY111999GF106991001001999999041061MD1610051+9999MW1031
0057029700999991958052218004+60117+019900FM-12+000399999V0202501N00621220001CN0500001N9+01111+00111101391ADDAY101999GF101991011041008001001011MD1210091+9999MW1141
0057029700999991958052300004+60117+019900FM-12+000399999V0202501N00411220001CN0400001N9+00721+00221101851ADDAY101999GF100991001001999999001001MD1210171+9999MW1011
0057029700999991958052500004+60117+019900FM-12+000399999V0200201N00411220001CN0300001N9+00781+00501101981ADDAY121999GF107991001001999999071999MD1810071+9999MW1021
0057029700999991958052518004+60117+019900FM-12+000399999V0201801N00311220001CN0300001N9+01221+00891101991ADDAY121999GF102991001001999999001011MD1510031+9999MW1031
0057029700999991958052918004+60117+019900FM-12+000399999V0203501N00511220001CN0450001N9+00781+00391101851ADDAY111999GF104991031051012501041999MD1210231+9999MW1021
0057029700999991958053000004+60117+019900FM-12+000399999V0200301N00051220001CN0300001N9+00111+00111999999ADDAY101999GF101991001001999999041999MD1210081+9999MW1111
0057029700999991958053018004+60117+019900FM-12+000399999V0201901N00211220001CN0300001N9+01281+00611102591ADDAY101999GF101991001001999999001011MD1410001+9999MW1021
0057029700999991958053100004+60117+019900FM-12+000399999V0209991C00001220001CN0009001N9+00221+00001102771ADDAY101999GF102991001001999999041011MD1210091+9999MW1461
0057029700999991958053118004+60117+019900FM-12+000399999V0209991C00001220001CN0400001N9+01501+00501102781ADDAY101999GF102991001001999999001011MD1710091+9999MW1021
0070029700999991958060106004+60117+019900FM-12+000399999V0200701N00411220001CN0400001N9+01281+00611102771ADDAY101999GF102991001001999999001011KA1999N+00721MD1210011+9999MW1011
0057029700999991958060200004+60117+019900FM-12+000399999V0200701N00211220001CN0400001N9+01111+00391102381ADDAY121999GF106991001001999999071999MD1810091+9999MW1011
0070029700999991958060206004+60117+019900FM-12+000399999V0200601N00361030001CN0400001N9+01281+00611102191ADDAY121999GF107991011011017501071061KA1999N+01001MD1710051+9999MW1031
0070029700999991958060218004+60117+019900FM-12+000399999V0202401N00211220001CN0400001N9+01391+00721101971ADDAY101999GF101991001001999999071011KA1999M+01891MD1710081+9999MW1021
0070029700999991958060306004+60117+019900FM-12+000399999V0202401N00051220001CN0450001N9+01391+00891101721ADDAY111999GF102991021001999999081041KA1999N+01221MD1710111+9999MW1031
0057029700999991958060318004+60117+019900FM-12+000399999V0203301N00261220001CN0450001N9+01501+00281101541ADDAY101999GF102991001001999999001021MD1610081+9999MW1011
0076029700999991958060400004+60117+019900FM-12+000399999V0202501N00261220001CN0350001N9+00391+00281101361ADDAY101999GF101991999001999999071001MD1710171+9999MW1021EQDQ01+000002SCOTLC
0070029700999991958060406004+60117+019900FM-12+000399999V0202501N00511220001CN0350001N9+01281+00891100991ADDAY121999GF102991001001999999001011KA1999N+00281MD1710201+9999MW1031
0081029700999991958060418004+60117+019900FM-12+000399999V0200101N00361030001CN0300001N9+01221+00721100321ADDAA199001091AY121999GF107991021041017501071001KA1999M+02001MD1210111+9999MW1021
0076029700999991958060500004+60117+019900FM-12+000399999V0203401N00721220001CN0400001N9+00781+00111100541ADDAY101999GF105991999001999999051001MD1210171+9999MW1031EQDQ01+000002SCOTLC
0070029700999991958060506004+60117+019900FM-12+000399999V0203601N00821220001CN0500001N9+00721+00221100811ADDAY111999GF104991041011004501001001KA1999N+00391MD1310211+9999MW1021
0089029700999991958060518004+60117+019900FM-12+000399999V0203501N00821220001CN0500001N9+00501-00221101511ADDAY101999GF101991999001999999031001KA1999M+00781MD1210151+9999MW1181EQDQ01+000002SCOTLC
0070029700999991958060606004+60117+019900FM-12+000399999V0203601N00771220001CN0500001N9+00721-00281101991ADDAY101999GF101991011011008001001001KA1999N+00111MD1210121+9999MW1021
0070029700999991958060618004+60117+019900FM-12+000399999V0203301N00211220001CN0500001N9+01111-00281101981ADDAY101999GF101991001001999999001021KA1999M+01111MD1710111+9999MW1021
0057029700999991958060700004+60117+019900FM-12+000399999V0202101N00411220001CN0500001N9+00221-00221101811ADDAY101999GF101991001001999999001021MD1710121+9999MW1021
0070029700999991958060706004+60117+019900FM-12+000399999V0203301N00211220001CN0500001N9+01281+00501101551ADDAY101999GF102991001001999999001021KA1999N+00221MD1710081+9999MW1021
0070029700999991958060718004+60117+019900FM-12+000399999V0201201N00151220001CN0500001N9+01391+00281101521ADDAY101999GF103991001001999999031021KA1999M+01891MD1710011+9999MW1031
0078029700999991958060800004+60117+019900FM-12+000399999V0200401N00051220001CN0450001N9+00611+00391101521ADDAY101999GF104991001001999999031021MW1021EQDQ01+000082APCTENQ02+000002APC3  
0070029700999991958060806004+60117+019900FM-12+000399999V0201201N00411220001CN0400001N9+01001+00611101551ADDAY111999GF106991001001999999071011KA1999N+00501MD1210041+9999MW1031
0070029700999991958060818004+60117+019900FM-12+000399999V0201301N00311220001CN0400001N9+01111+00611101171ADDAY101999GF101991001001999999001011KA1999M+01611MD1710121+9999MW1021
0057029700999991958060900004+60117+019900FM-12+000399999V0201701N00411220001CN0400001N9+00781+00721100821ADDAY101999GF100991001001999999001001MD1710201+9999MW1011
0081029700999991958060906004+60117+019900FM-12+000399999V0201701N00411000601CN0012001N9+00781+00781100521ADDAA199000691AY121999GF108991081061000751999999KA1999N+00611MD1710161+9999MW1101
0081029700999991958060918004+60117+019900FM-12+000399999V0203401N00411001501CN0150001N9+00501+00391100651ADDAA199005091AY161999GF108991081071001501999999KA1999M+01221MD1310161+9999MW1611
0057029700999991958061000004+60117+019900FM-12+000399999V0200101N00211004501CN0200001N9+00501+00501100811ADDAY161999GF108991081051004501999999MD1210071+9999MW1211
0081029700999991958061006004+60117+019900FM-12+000399999V0203601N00311030001CN0200001N9+00611+00501100881ADDAA199006091AY161999GF108991021051008001071999KA1999N+00391MD1310071+9999MW1611
0081029700999991958061018004+60117+019900FM-12+000399999V0203601N00411220001CN0500001N9+00781+00781101151ADDAA199000391AY101999GF101991011051017501071091KA1999M+01001MD1210071+9999MW1011
0057029700999991958061100004+60117+019900FM-12+000399999V0203501N00211220001CN0500001N9-00111-00221101241ADDAY101999GF100991001001999999001001MD1210041+9999MW1021
0070029700999991958061106004+60117+019900FM-12+000399999V0203401N00211220001CN0500001N9+01001-00111101311ADDAY101999GF101991011041012501041001KA1999N-00221MD1210011+9999MW1021
0089029700999991958061118004+60117+019900FM-12+000399999V0203401N00311220001CN0500001N9+01111-00111101591ADDAY101999GF101991999001999999061001KA1999M+01281MD1110071+9999MW1021EQDQ01+000002SCOTLC
0076029700999991958061200004+60117+019900FM-12+000399999V0203301N00051220001CN0450001N9-00111-00221101741ADDAY101999GF101991999001999999031001MD1210121+9999MW1021EQDQ01+000002SCOTLC
0070029700999991958061206004+60117+019900FM-12+000399999V0209991C00001220001CN0500001N9+01281+01281101741ADDAY101999GF101991001001999999001011KA1999N-00221MD1110031+9999MW1021
0089029700999991958061218004+60117+019900FM-12+000399999V0200901N002119999999N0400001N9+01001+00281101851ADDAY121999GF106991999021004501001001KA1999M+01611MD1310041+9999MW1021EQDQ01+000032SCOTLC
0057029700999991958061318004+60117+019900FM-12+000399999V0203401N00101012301CN0450001N9+01001+00391102241ADDAY121999GF106991061051012501031999MD1410001+9999MW1011
0057029700999991958061418004+60117+019900FM-12+000399999V0202501N00311030001CN0450001N9+01221+00221102511ADDAY121999GF107991031051012501071999MD1510011+9999MW1011
0057029700999991958061612004+60117+019900FM-12+000399999V0201601N00361030001CN0400001N9+01001+00391102661ADDAY121999GF108991031051012501071999MD1810051+9999MW1021
0057029700999991958061712004+60117+019900FM-12+000399999V0201401N00461030001CN0350001N9+01221+00781102381ADDAY121999GF107991031051012501071999MD1710081+9999MW1211
0076029700999991958062000004+60117+019900FM-12+000399999V0201301N00261012301CN0040001N9+01001+00891100541ADDAY121999GF108991999081012501011999MD1710121+9999MW1021EQDQ01+000082SCOTLC
0057029700999991958062012004+60117+019900FM-12+000399999V0201501N00511002401CN0300001N9+01281+01001100221ADDAY121999GF107991051091002501999999MD1710071+9999MW1801
0057029700999991958062118004+60117+019900FM-12+000399999V0201401N00051030001CN0150001N9+01111+01001099701ADDAY161999GF107991031071001501071999MD1710031+9999MW1211
0057029700999991958062200004+60117+019900FM-12+000399999V0200101N00151007801CN0050001N9+00501+00501099821ADDAY121999GF107991071051008001999999MD1210071+9999MW1111
0057029700999991958062218004+60117+019900FM-12+000399999V0201401N00311002401CN0030001N9+01001+00891100461ADDAY121999GF108991081061002501001001MD1410001+9999MW1101
0057029700999991958062318004+60117+019900FM-12+000399999V0201301N00211000601CN0027001N9+01111+01001100771ADDAY101999GF105991051061000751001011MD1110081+9999MW1101
0049029700999991958062512004+60117+019900FM-12+000399999V0202201N00361220001CN0300001N9+01391+01001101111ADDGF100991001001999999001001MD1310011+9999MW1011
0057029700999991958062518004+60117+019900FM-12+000399999V0202201N00261220001CN0300001N9+01611+01001101111ADDAY101999GF102991001001999999001011MD1410001+9999MW1021
0057029700999991958062800004+60117+019900FM-12+000399999V0203601N00311220001CN0100001N9+01781+01221100911ADDAY121999GF108991001001999999071999MD1710041+9999MW1021
0057029700999991958062818004+60117+019900FM-12+000399999V0200401N00311030001CN0150001N9+01721+01611101021ADDAY161999GF107991021031004501071001MD1210011+9999MW1211
0092029700999991958062900004+60117+019900FM-12+000399999V0200301N00411220001CN0100001N9+01721+01611101842ADDAY121999GF108991999001999999071001MD1210091+9999MW1211EQDQ01+000002SCOTLCQ02+101843APOSLP
0057029700999991958062918004+60117+019900FM-12+000399999V0200401N00211220001CN0150001N9+02111+01781101581ADDAY121999GF108991001001999999071999MD1210041+9999MW1011
0076029700999991958063000004+60117+019900FM-12+000399999V0200601N00311220001CN0150001N9+01891+01611101691ADDAY101999GF101991999001999999031001MD1110031+9999MW1021EQDQ01+000002SCOTLC
0057029700999991958063012004+60117+019900FM-12+000399999V0200901N00411220001CN0250001N9+02721+01721102081ADDAY101999GF101991011011008001001011MD1210091+9999MW1021
0057029700999991958063018004+60117+019900FM-12+000399999V0200201N00101220001CN0400001N9+02501+01281102061ADDAY101999GF102991011011008001041001MD1610031+9999MW1021
0057029700999991958070100004+60117+019900FM-12+000399999V0203601N00151220001CN0200001N9+01391+01391102161ADDAY101999GF103991021051012501031999MD1210031+9999MW1021
0070029700999991958070106004+60117+019900FM-12+000399999V0200501N00311220001CN0400001N9+02221+01501102191ADDAY101999GF100991001001999999001001KA1999N+01281MD1510001+9999MW1021
0070029700999991958070118004+60117+019900FM-12+000399999V0200101N00361220001CN0450001N9+02281+01001102061ADDAY101999GF100991001001999999001001KA1999M+02721MD1810041+9999MW1011
0057029700999991958070200004+60117+019900FM-12+000399999V0200101N00051220001CN0300001N9+01111+01001102141ADDAY101999GF100991001001999999001001MD1810071+9999MW1021
0070029700999991958070206004+60117+019900FM-12+000399999V0200201N00211220001CN0500001N9+02221+01391102121ADDAY101999GF102991001001999999001011KA1999N+00891MD1310011+9999MW1031
0057029700999991958070300004+60117+019900FM-12+000399999V0203601N00311220001CN0500001N9+01391+00891101951ADDAY121999GF106991001001999999001061MD1210051+9999MW1021
0070029700999991958070306004+60117+019900FM-12+000399999V0200301N00311030001CN0500001N9+01781+00891101691ADDAY121999GF107991021051017501071999KA1999N+01281MD1710091+9999MW1031
0089029700999991958070318004+60117+019900FM-12+000399999V0201801N00311220001CN0300001N9+02001+01721101311ADDAY101999GF101991999001999999041001KA1999M+02611MD1710191+9999MW1011EQDQ01+000002SCOTLC
0057029700999991958070400004+60117+019900FM-12+000399999V0202201N00411015001CN0300001N9+01891+01391101051ADDAY161999GF108991061051017501071999MD1710151+9999MW1031
0081029700999991958070406004+60117+019900FM-12+000399999V0202001N00211030001CN0200001N9+01781+01281100781ADDAA199000691AY121999GF107991021021012501071999KA1999N+01721MD1710131+9999MW1801
0081029700999991958070418004+60117+019900FM-12+000399999V0203501N00511220001CN0400001N9+01891+01501100601ADDAA199000691AY101999GF101991011041008001001011KA1999M+02281MD1710071+9999MW1021
0057029700999991958070500004+60117+019900FM-12+000399999V0203501N00411220001CN0400001N9+01391+01281100651ADDAY101999GF101991011021012501041011MD1710011+9999MW1021
0057029700999991958070600004+60117+019900FM-12+000399999V0209991C00001220001CN0400001N9+00721+00721100881ADDAY101999GF102991021021012501041001MD1710081+9999MW1021
0057029700999991958070618004+60117+019900FM-12+000399999V0203501N00311220001CN0500001N9+01391+00391100811ADDAY121999GF104991011011008001061011MD1110041+9999MW1011
0057029700999991958070700004+60117+019900FM-12+000399999V0203501N00211220001CN0500001N9+00611+00611100991ADDAY101999GF100991001001999999001001MD1210111+9999MW1021
0057029700999991958070718004+60117+019900FM-12+000399999V0203201N00211075001CN0500001N9+01501+00721101321ADDAY121999GF105991011041008001061021MD1310041+9999MW1011
0076029700999991958070800004+60117+019900FM-12+000399999V0209991C00001220001CN0300001N9+00501+00501101441ADDAY101999GF102991999001999999041001MD1210091+9999MW1111EQDQ01+000002SCOTLC
0057029700999991958070900004+60117+019900FM-12+000399999V0202801N00151220001CN0200001N9+01391+01221100961ADDAY111999GF102991011051017501071999MD1710071+9999MW1011
0076029700999991958070918004+60117+019900FM-12+000399999V0202001N00621220001CN0500001N9+01721+01221100661ADDAY101999GF101991999001999999041001MD1710281+9999MW1021EQDQ01+000002SCOTLC
0057029700999991958071000004+60117+019900FM-12+000399999V0202101N00511220001CN0300001N9+01721+01391100191ADDAY121999GF108991001001999999071999MD1710411+9999MW1021
0057029700999991958071012004+60117+019900FM-12+000399999V0201501N00821220001CN0500001N9+02221+01111099681ADDAY101999GF102991021011012501051001MD1510081+9999MW1021
0057029700999991958071100004+60117+019900FM-12+000399999V0203201N00211007801CN0500001N9+01111+01001100211ADDAY121999GF105991051051008001001001MD1210191+9999MW1021
0043029700999991958071118004+60117+019900FM-12+000399999V0202001N00261220001CN0500001N9+01501+00391100941ADDAY101999GF102991021041017501041001MW1031
0057029700999991958071212004+60117+019900FM-12+000399999V0202001N00511220001CN0500001N9+02001+01221101191ADDAY101999GF101991011021999999011999MD1210071+9999MW1021
0057029700999991958071218004+60117+019900FM-12+000399999V0201801N00361220001CN0450001N9+01721+01391101111ADDAY101999GF101991011041017501001081MD1710051+9999MW1011
0043029700999991958071300004+60117+019900FM-12+000399999V0209991C00001030001CN0300001N9+00891+00611101111ADDAY111999GF106991011051017501061999MW1231
0057029700999991958071318004+60117+019900FM-12+000399999V0201901N00511030001CN0350001N9+01721+01391100781ADDAY121999GF107991021051017501071999MD1710121+9999MW1021
0057029700999991958071418004+60117+019900FM-12+000399999V0202101N00511030001CN0250001N9+01721+01391099401ADDAY121999GF107991021031012501041031MD1610031+9999MW1031
0057029700999991958071500004+60117+019900FM-12+000399999V0202301N00621007801CN0050001N9+01501+01391099691ADDAY161999GF108991051081008001051999MD1210161+9999MW1611
0057029700999991958071600004+60117+019900FM-12+000399999V0201901N00101220001CN0300001N9+01281+01111101221ADDAY101999GF101991011051012501001001MD1210041+9999MW1021
0070029700999991958071606004+60117+019900FM-12+000399999V0201701N00101220001CN0500001N9+01501+01221101361ADDAY101999GF102991021051004501001011KA1999N+00611MD1210091+9999MW1031
0070029700999991958071618004+60117+019900FM-12+000399999V0200501N00211030001CN0500001N9+01501+01001101521ADDAY121999GF107991011021012501071061KA1999M+01891MD1210011+9999MW1021
0057029700999991958071700004+60117+019900FM-12+000399999V0200301N00101012301CN0400001N9+01221+01111101571ADDAY121999GF107991071051012501999999MD1710011+9999MW1021
0057029700999991958071712004+60117+019900FM-12+000399999V0200701N00261220001CN0500001N9+01721+00781101481ADDAY121999GF108991001001999999071999MD1210041+9999MW1031
0070029700999991958071718004+60117+019900FM-12+000399999V0200301N00411220001CN0350001N9+01391+00891100951ADDAY121999GF108991001001999999071999KA1999M+01781MD1710311+9999MW1611
0076029700999991958071800004+60117+019900FM-12+000399999V0200501N005119999999N0100001N9+01221+01111100511ADDAY161999GF108991999001022501021999MD1710401+9999MW1631EQDQ01+000002SCOTLC
0081029700999991958071806004+60117+019900FM-12+000399999V0200801N002119999999N0150001N9+01281+01221100161ADDAA199009091AY161999GF108991041071002501999999KA1999N+01001MD1810121+9999MW1211
0081029700999991958071818004+60117+019900FM-12+000399999V0203301N00621220001CN0400001N9+01221+00891100521ADDAA199002091AY121999GF107991001001999999071999KA1999M+01501MD1310151+9999MW1011
0057029700999991958071900004+60117+019900FM-12+000399999V0203001N00311007801CN0400001N9+01221+00781100781ADDAY111999GF106991051051008001031999MD1110081+9999MW1031
0070029700999991958071906004+60117+019900FM-12+000399999V0203201N00621220001CN0500001N9+01221+00721100911ADDAY121999GF105991031081008001001011KA1999N+00891MD1210071+9999MW1011
0070029700999991958071918004+60117+019900FM-12+000399999V0202801N00261220001CN0500001N9+01391+00221101111ADDAY101999GF101991011041017501041021KA1999M+01611MD1110011+9999MW1021
0057029700999991958072000004+60117+019900FM-12+000399999V0209991C00001220001CN0300001N9+00391+00391101151ADDAY101999GF100991001001999999001001MD1310011+9999MW1011
0057029700999991958072100004+60117+019900FM-12+000399999V0209991C00001220001CN0300001N9+00221+00221100621ADDAY101999GF101991001001999999041011MD1710111+9999MW1111
0057029700999991958072218004+60117+019900FM-12+000399999V0201201N00311030001CN0150001N9+01501+01281099881ADDAY121999GF106991031051004501071001MD1310081+9999MW1011
0057029700999991958072318004+60117+019900FM-12+000399999V0201601N00311001501CN0150001N9+01501+01391099981ADDAY121999GF108991071061001501999999MD1810011+9999MW1031
0057029700999991958072400004+60117+019900FM-12+000399999V0201301N00411001501CN0025001N9+01391+01391099971ADDAY151999GF108991081061001501999999MD1710051+9999MW1511
0057029700999991958072412004+60117+019900FM-12+000399999V0201801N00211030001CN0040001N9+01391+01281099741ADDAY161999GF108991021061001501071999MD1210041+9999MW1611
0057029700999991958072418004+60117+019900FM-12+000399999V0201801N00411030001CN0060001N9+01391+01281099831ADDAY121999GF106991041061001501071999MD1210071+9999MW1011
0057029700999991958072500004+60117+019900FM-12+000399999V0201901N00621012301CN0200001N9+01281+01221100021ADDAY111999GF107991071051012501041999MD1210121+9999MW1031
0057029700999991958072512004+60117+019900FM-12+000399999V0201701N00721030001CN0150001N9+01391+01221100751ADDAY121999GF108991041051008001071999MD1210161+9999MW1021
0057029700999991958072518004+60117+019900FM-12+000399999V0201801N00361030001CN0100001N9+01281+01221100991ADDAY161999GF108991041051008001071999MD1210161+9999MW1611
0057029700999991958072612004+60117+019900FM-12+000399999V0203401N00311220001CN0500001N9+01501+00781101821ADDAY111999GF103991031011008001001001MD1210071+9999MW1011
0057029700999991958072618004+60117+019900FM-12+000399999V0201201N00151220001CN0500001N9+01391+00891101861ADDAY101999GF101991011041008001001011MD1110041+9999MW1021
0057029700999991958072700004+60117+019900FM-12+000399999V0200101N00101220001CN0400001N9+00281+00281101951ADDAY101999GF101991001001999999041011MD1210011+9999MW1111
0057029700999991958072718004+60117+019900FM-12+000399999V0202401N00211220001CN0500001N9+01611+01111101461ADDAY101999GF101991001001999999041011MD1710121+9999MW1021
0057029700999991958072800004+60117+019900FM-12+000399999V0209991C00001220001CN0200001N9+00721+00721101181ADDAY101999GF104991001001999999041011MD1710211+9999MW1111
0057029700999991958072812004+60117+019900FM-12+000399999V0203101N00361030001CN0350001N9+02001+01501100951ADDAY121999GF106991011011008001081021MD1010041+9999MW1021
0057029700999991958072818004+60117+019900FM-12+000399999V0201701N00151220001CN0300001N9+01721+01391101041ADDAY101999GF101991011041008001031011MD1310091+9999MW1011
0057029700999991958072912004+60117+019900FM-12+000399999V0201801N00311030001CN0250001N9+01891+01221100951ADDAY121999GF107991021021004501041061MD1310031+9999MW1031
0057029700999991958073000004+60117+019900FM-12+000399999V0201101N00101004501CN0100001N9+01501+01391100981ADDAY121999GF108991071051004501071999MD1410001+9999MW1021
0057029700999991958073018004+60117+019900FM-12+000399999V0201801N00261220001CN0100001N9+01611+01501999999ADDAY111999GF102991011061004501031011MD1110051+9999MW1011
0057029700999991958073100004+60117+019900FM-12+000399999V0209991C00001220001CN0003001N9+00891+00891101411ADDAY141999GF105991001001999999031011MD1110011+9999MW1441
0057029700999991958073118004+60117+019900FM-12+000399999V0201901N00411220001CN0150001N9+01611+01501101201ADDAY111999GF104991021051012501061011MD1810011+9999MW1011
0076029700999991958080100004+60117+019900FM-12+000399999V0202401N00211220001CN0150001N9+01391+01391101251ADDAY101999GF101991999001999999041001MD1210031+9999MW1021EQDQ01+000002SCOTLC
0070029700999991958080106004+60117+019900FM-12+000399999V0202301N00311220001CN0250001N9+01391+01221101311ADDAY101999GF104991041051004501001001KA1999N+00721MD1210051+9999MW1031
0057029700999991958080112004+60117+019900FM-12+000399999V0201901N00511220001CN0250001N9+01781+01281101451ADDAY101999GF104991041051004501001001MD1110051+9999MW1011
0070029700999991958080118004+60117+019900FM-12+000399999V0202401N00211220001CN0450001N9+01781+01221101451ADDAY101999GF101991011041012501001011KA1999M+01891MD1610051+9999MW1021
0057029700999991958080200004+60117+019900FM-12+000399999V0209991C00001220001CN0200001N9+01001+01001101441ADDAY101999GF101991001001999999031011MD1710051+9999MW1111
0081029700999991958080206004+60117+019900FM-12+000399999V0201301N002119999999N0200001N9+01501+01391101151ADDAA199000691AY121999GF108991041071004501999999KA1999N+00611MD1710111+9999MW1611
0057029700999991958080218004+60117+019900FM-12+000399999V0201901N00871004501CN0250001N9+01501+01221099711ADDAY121999GF107991061051004501071999MD1710121+9999MW1181
0057029700999991958080300004+60117+019900FM-12+000399999V0202101N00721220001CN0300001N9+01281+01001100081ADDAY111999GF103991031051004501031001MD1210161+9999MW1011
0057029700999991958080312004+60117+019900FM-12+000399999V0202101N00671007801CN0150001N9+01391+01281100241ADDAY181999GF107991061031008001041999MD1210081+9999MW1251
0057029700999991958080418004+60117+019900FM-12+000399999V0202201N00311030001CN0400001N9+01281+01001101211ADDAY121999GF107991041031008001041021MD1310011+9999MW1021
0057029700999991958080500004+60117+019900FM-12+000399999V0209991C00001220001CN0150001N9+01001+01001101211ADDAY101999GF103991021051017501041001MD1710041+9999MW1021
0057029700999991958080518004+60117+019900FM-12+000399999V0201701N00461000151CN0013001N9+01281+01281100541ADDAY141999GF109991091999000251999999MD1710201+9999MW1881
0057029700999991958080600004+60117+019900FM-12+000399999V0202201N00511001501CN0040001N9+01281+01281100391ADDAY181999GF108991081061001501999999MD1710031+9999MW1801
0057029700999991958080618004+60117+019900FM-12+000399999V0202101N00511220001CN0200001N9+01391+01281100281ADDAY121999GF105991001001999999041051MD1710081+9999MW1011
0057029700999991958080712004+60117+019900FM-12+000399999V0202201N00511220001CN0500001N9+01721+01111100321ADDAY101999GF101991011021004501041011MD1210091+9999MW1021
0057029700999991958080718004+60117+019900FM-12+000399999V0202401N00311220001CN0500001N9+01611+01001100441ADDAY101999GF101991011041008001001001MD1110041+9999MW1021
0057029700999991958080800004+60117+019900FM-12+000399999V0202401N00211220001CN0300001N9+01281+01001100681ADDAY101999GF100991001001999999001001MD1310111+9999MW1021
0057029700999991958080900004+60117+019900FM-12+000399999V0201701N00411030001CN0300001N9+01391+01221999999ADDAY121999GF107991041051012501071999MD1710081+9999MW1031
0057029700999991958081118004+60117+019900FM-12+000399999V0202101N00311220001CN0500001N9+01501+01221101911ADDAY101999GF102991001001999999041011MD1510011+9999MW1011
0057029700999991958081200004+60117+019900FM-12+000399999V0209991C00001220001CN0200001N9+00721+00721101841ADDAY101999GF100991001001999999001001MD1710031+9999MW1121
0057029700999991958081218004+60117+019900FM-12+000399999V0201801N00511220001CN0400001N9+01611+01221101761ADDAY101999GF101991001001999999001011MD1610041+9999MW1021
0057029700999991958081300004+60117+019900FM-12+000399999V0201501N00411220001CN0300001N9+01501+01111101601ADDAY101999GF100991001001999999001001MD1710131+9999MW1011
0076029700999991958081318004+60117+019900FM-12+000399999V0201601N00411220001CN0300001N9+01611+01281101121ADDAY121999GF108991999001999999071001MD1710111+9999MW1601EQDQ01+000002SCOTLC
0076029700999991958081418004+60117+019900FM-12+000399999V0201501N00461004501CN0120001N9+01501+01501100661ADDAY161999GF108991999051004501021999MD1710111+9999MW1211EQDQ01+000082SCOTLC
0057029700999991958081500004+60117+019900FM-12+000399999V0201701N00151000601CN0020001N9+01391+01391100561ADDAY121999GF108991081061000751999999MD1710091+9999MW1101
0057029700999991958081700004+60117+019900FM-12+000399999V0201601N00211002401CN0050001N9+01391+01281100611ADDAY121999GF108991081061002501999999MD1710011+9999MW1021
0076029700999991958081800004+60117+019900FM-12+000399999V0200101N00511220001CN0150001N9+01221+01221100911ADDAY121999GF106991999001999999031001MD1210031+9999MW1021EQDQ01+000002SCOTLC
0057029700999991958081818004+60117+019900FM-12+000399999V0203401N00311030001CN0150001N9+01391+01281101171ADDAY121999GF106991041061001501021999MD1310091+9999MW1011
0057029700999991958081900004+60117+019900FM-12+000399999V0203001N00211004501CN0150001N9+01221+01111101381ADDAY121999GF106991061051004501001999MD1210151+9999MW1021
0057029700999991958082012004+60117+019900FM-12+000399999V0201001N00211220001CN0400001N9+02001+01001101551ADDAY101999GF101991011011004501001001MD1210031+9999MW1021
0057029700999991958082100004+60117+019900FM-12+000399999V0200601N00101220001CN0200001N9+01501+00721101551ADDAY101999GF100991001001999999001001MD1210071+9999MW1021
0057029700999991958082118004+60117+019900FM-12+000399999V0200901N00211220001CN0400001N9+01391+01111101681ADDAY121999GF102991021021008001001001MD1410001+9999MW1011
0057029700999991958082300004+60117+019900FM-12+000399999V0201101N00361004501CN0300001N9+01391+01111101601ADDAY121999GF108991081051004501999999MD1710071+9999MW1021
0057029700999991958082318004+60117+019900FM-12+000399999V0200901N00571004501CN0100001N9+01391+01221100991ADDAY161999GF108991051051004501071999MD1710111+9999MW1601
0057029700999991958082400004+60117+019900FM-12+000399999V0200901N00511002401CN0100001N9+01391+01281100601ADDAY121999GF108991061061002501999999MD1710211+9999MW1601
0057029700999991958082500004+60117+019900FM-12+000399999V0201301N00511002401CN0100001N9+01391+01281099861ADDAY161999GF108991081051002501999999MD1710131+9999MW1211
0057029700999991958082512004+60117+019900FM-12+000399999V0202101N00621001501CN0100001N9+01391+01391099911ADDAY161999GF108991061061001501999999MD1210121+9999MW1601
0057029700999991958082518004+60117+019900FM-12+000399999V0202101N00621004501CN0200001N9+01501+01391099971ADDAY121999GF107991061051004501071001MD1110011+9999MW1021
0057029700999991958082718004+60117+019900FM-12+000399999V0200201N00051220001CN0350001N9+01391+01281101651ADDAY101999GF102991011011004501041999MD1210131+9999MW1011
0057029700999991958082800004+60117+019900FM-12+000399999V0209991C00001030001CN0200001N9+01221+01221101891ADDAY121999GF107991011051004501031999MD1210081+9999MW1111
0057029700999991958082818004+60117+019900FM-12+000399999V0201901N00211220001CN0300001N9+01391+01221102291ADDAY101999GF102991001001999999001011MD1310031+9999MW1031
0057029700999991958082900004+60117+019900FM-12+000399999V0201901N00101220001CN0005001N9+00721+00721102381ADDAY141999GF100991001001999999001001MD1210041+9999MW1461
0057029700999991958082918004+60117+019900FM-12+000399999V0209991C00001220001CN0200001N9+01501+01391102481ADDAY101999GF104991001001999999001011MD1410001+9999MW1021
0057029700999991958083000004+60117+019900FM-12+000399999V0200201N00211220001CN0007001N9+00781+00781102641ADDAY101999GF100991001001999999001001MD1210041+9999MW1461
0057029700999991958083018004+60117+019900FM-12+000399999V0201201N00211220001CN0300001N9+01611+01281102611ADDAY101999GF100991001001999999001001MD1210071+9999MW1021
0057029700999991958083100004+60117+019900FM-12+000399999V0209991C00001220001CN0300001N9+01001+00891102661ADDAY101999GF100991001001999999001001MD1110011+9999MW1021
0057029700999991958083112004+60117+019900FM-12+000399999V0201601N00311220001CN0300001N9+02221+01501102791ADDAY101999GF101991011011008001001001MD1110031+9999MW1031
0057029700999991958083118004+60117+019900FM-12+000399999V0201401N00051220001CN0300001N9+01501+01221102811ADDAY101999GF101991001001999999001021MD1210011+9999MW1021
0057029700999991958090100004+60117+019900FM-12+000399999V0203301N00101220001CN0150001N9+00611+00611102891ADDAY101999GF101991001001999999001011MD1210071+9999MW1111
0070029700999991958090106004+60117+019900FM-12+000399999V0203301N00051220001CN0050001N9+01281+01281102881ADDAY141999GF107991001001999999041041KA1999N+00501MD1610011+9999MW1011
0070029700999991958090118004+60117+019900FM-12+000399999V0202001N00101220001CN0100001N9+01501+01391102881ADDAY101999GF103991021061001501041001KA1999M+02001MD1510041+9999MW1021
0057029700999991958090200004+60117+019900FM-12+000399999V0202301N00101001501CN0050001N9+01391+01281102911ADDAY121999GF108991081061001501999999MD1410001+9999MW1021
0070029700999991958090206004+60117+019900FM-12+000399999V0202101N00311001501CN0060001N9+01501+01391102961ADDAY121999GF108991081061001501999999KA1999N+01221MD1310031+9999MW1021
0070029700999991958090218004+60117+019900FM-12+000399999V0209991C00001220001CN0100001N9+01391+01281103001ADDAY101999GF100991001001999999001001KA1999M+01721MD1210011+9999MW1121
0057029700999991958090300004+60117+019900FM-12+000399999V0209991C00001220001CN0004001N9+00891+00891103021ADDAY141999GF100991001001999999001001MD1210011+9999MW1441
0070029700999991958090306004+60117+019900FM-12+000399999V0202601N00211002401CN0045001N9+01391+01391103001ADDAY121999GF107991071061002501999999KA1999N+00721MD1410001+9999MW1011
0070029700999991958090318004+60117+019900FM-12+000399999V0202001N00051000151CN0002001N9+01391+01391102711ADDAY141999GF109991091999000251999999KA1999M+01721MD1610051+9999MW1471
0057029700999991958090400004+60117+019900FM-12+000399999V0200201N00261000601CN0005001N9+01281+01281102621ADDAY141999GF109991091061000751999999MD1610011+9999MW1451
0070029700999991958090418004+60117+019900FM-12+000399999V0209991C00001220001CN0100001N9+01391+01281102481ADDAY101999GF100991001001999999001001KA1999M+01891MD1710011+9999MW1121
0057029700999991958090500004+60117+019900FM-12+000399999V0209991C00001000151CN0005001N9+00721+00721102351ADDAY101999GF109991091999000251999999MD1710121+9999MW1451
0070029700999991958090506004+60117+019900FM-12+000399999V0203401N00261220001CN0150001N9+01221+01111102121ADDAY111999GF106991001001999999041041KA1999N+00501MD1710111+9999MW1031
0057029700999991958090512004+60117+019900FM-12+000399999V0203201N00721220001CN0300001N9+01781+01001102051ADDAY121999GF107991001001999999051999MD1610031+9999MW1021
0070029700999991958090518004+60117+019900FM-12+000399999V0203201N00101220001CN0300001N9+01391+01111101981ADDAY121999GF108991001001999999051071KA1999M+01891MD1410001+9999MW1031
0057029700999991958090600004+60117+019900FM-12+000399999V0203201N00411220001CN0200001N9+01501+01111101981ADDAY121999GF108991001001999999001071MD1710031+9999MW1011
0057029700999991958090612004+60117+019900FM-12+000399999V0203401N00511220001CN0350001N9+01781+01001102201ADDAY101999GF101991011011008001001001MD1010011+9999MW1011
0057029700999991958090618004+60117+019900FM-12+000399999V0203301N00101220001CN0200001N9+01111+01001102181ADDAY101999GF102991001001999999001011MD1610031+9999MW1021
0057029700999991958090712004+60117+019900FM-12+000399999V0202001N00621220001CN0080001N9+01781+01501101821ADDAY101999GF102991011051002501041011MD1710091+9999MW1051
0049029700999991958090800004+60117+019900FM-12+000399999V0202901N00211220001CN0150001N9+02501+01391101311ADDGF104991001001999999001011MD1710131+9999MW1021
0057029700999991958090818004+60117+019900FM-12+000399999V0203501N00101220001CN0150001N9+01221+01221101141ADDAY101999GF102991011051017501041999MD1510051+9999MW1121
0057029700999991958090900004+60117+019900FM-12+000399999V0200301N00211002401CN0025001N9+01221+01221101181ADDAY101999GF108991081061002501999999MD1410001+9999MW1101
0057029700999991958091000004+60117+019900FM-12+000399999V0203601N00101220001CN0200001N9+01001+00781101401ADDAY121999GF101991011051004501001001MD1710011+9999MW1011
0057029700999991958091100004+60117+019900FM-12+000399999V0209991C00001220001CN0200001N9+00391+00391101441ADDAY101999GF100991001001999999001001MD1210011+9999MW1021
0043029700999991958091200004+60117+019900FM-12+000399999V0203501N01131220001CN0450001N9+01111+00391101281ADDAY111999GF103991031051008001001001MW1021
0057029700999991958091212004+60117+019900FM-12+000399999V0203301N00721004501CN0500001N9+02221+00391102081ADDAY121999GF106991061011004501001021MD1210261+9999MW1021
0057029700999991958091400004+60117+019900FM-12+000399999V0202801N00101220001CN0300001N9+01001+00781101811ADDAY101999GF100991001001999999001001MD1710081+9999MW1021
0049029700999991958091418004+60117+019900FM-12+000399999V0209991C00001220001CN0250001N9+00781+00721101821ADDGF104991001001999999041041MD1710011+9999MW1011
0057029700999991958091500004+60117+019900FM-12+000399999V0209991C00001220001CN0200001N9+00501+00501101891ADDAY101999GF100991001001999999001001MD1310011+9999MW1021
0057029700999991958091600004+60117+019900FM-12+000399999V0200901N00311220001CN0400001N9+00891+00501102111ADDAY111999GF106991001001999999071081MD1310011+9999MW1031
0057029700999991958091618004+60117+019900FM-12+000399999V0200701N00101030001CN0400001N9+00891+00781102391ADDAY121999GF107991021091008001071001MD1210081+9999MW1021
0057029700999991958091718004+60117+019900FM-12+000399999V0202301N00311030001CN0400001N9+01221+00721102861ADDAY121999GF107991011051008001071999MD1210011+9999MW1031
0057029700999991958091800004+60117+019900FM-12+000399999V0202301N00311012301CN0300001N9+01221+00891102861ADDAY111999GF108991081051012501999999MD1710011+9999MW1031
0076029700999991958091912004+60117+019900FM-12+000399999V0202301N00101220001CN0400001N9+00721+00611102491ADDAY101999GF103991999001999999031001MD1410001+9999MW1021EQDQ01+000002SCOTLC
0057029700999991958092018004+60117+019900FM-12+000399999V0201601N00411220001CN0400001N9+01221+00721101851ADDAY111999GF104991021081004501041001MD1710131+9999MW1021
0043029700999991958092200004+60117+019900FM-12+000399999V0209991C00001001501CN0020001N9+01111+01001100981ADDAY121999GF108991081061001501999999MW1101
0043029700999991958092312004+60117+019900FM-12+000399999V0203601N00361030001CN0200001N9+01281+00891100621ADDAY121999GF107991021011004501031999MW1021
0057029700999991958092318004+60117+019900FM-12+000399999V0203401N00311002401CN0150001N9+01111+01001100651ADDAY121999GF107991061051002501999999MD1410001+9999MW1021
0057029700999991958092400004+60117+019900FM-12+000399999V0203201N00151220001CN0150001N9+00891+00891100641ADDAY111999GF104991021051004501031011MD1710031+9999MW1021
0057029700999991958092412004+60117+019900FM-12+000399999V0203001N00051220001CN0200001N9+01001+01001999999ADDAY121999GF104991031031004501061001MD1710031+9999MW1021
0057029700999991958092500004+60117+019900FM-12+000399999V0209991C00001220001CN0030001N9+00391+00391100261ADDAY101999GF102991011021004501031011MD1710121+9999MW1121
0057029700999991958092518004+60117+019900FM-12+000399999V0201201N00311002401CN0040001N9+01221+01221099461ADDAY161999GF108991081071002501999999MD1710121+9999MW1631
0057029700999991958092600004+60117+019900FM-12+000399999V0200601N00721002401CN0040001N9+01111+01111099441ADDAY161999GF108991081071002501999999MD1710011+9999MW1631
0057029700999991958092612004+60117+019900FM-12+000399999V0200401N00461002401CN0150001N9+00891+00781100111ADDAY161999GF108991081051002501999999MD1210231+9999MW1581
0057029700999991958092618004+60117+019900FM-12+000399999V0203501N00311004501CN0150001N9+00781+00611100581ADDAY161999GF107991071051004501001001MD1210211+9999MW1211
0057029700999991958092700004+60117+019900FM-12+000399999V0203601N00211220001CN0200001N9+00281+00281100951ADDAY111999GF102991011051004501001021MD1210171+9999MW1011
0057029700999991958092712004+60117+019900FM-12+000399999V0203601N00671030001CN0400001N9+01111+00611101451ADDAY121999GF106991031021004501071999MD1210131+9999MW1021
0057029700999991958092718004+60117+019900FM-12+000399999V0203501N00261220001CN0200001N9+00721+00611101801ADDAY101999GF101991011041004501031001MD1210171+9999MW1011
0057029700999991958092800004+60117+019900FM-12+000399999V0209991C00001220001CN0200001N9-00111-00111101951ADDAY101999GF100991001001999999001001MD1110041+9999MW1021
0057029700999991958092812004+60117+019900FM-12+000399999V0202701N00411220001CN0500001N9+01281+00721101881ADDAY121999GF108991001001999999041061MD1710071+9999MW1031
0057029700999991958092912004+60117+019900FM-12+000399999V0202501N00511030001CN0400001N9+01281+00891101461ADDAY121999GF107991041051012501031001MD1710041+9999MW1021
0057029700999991958093012004+60117+019900FM-12+000399999V0201901N00511030001CN0200001N9+01281+01111101121ADDAY121999GF108991011051004501041071MD1710091+9999MW1031
0057029700999991958093018004+60117+019900FM-12+000399999V0201901N006219999999N0200001N9+01281+01221100961ADDAY121999GF106991021051004501999001MD1810041+9999MW1011
0076029700999991958100100004+60117+019900FM-12+000399999V0201901N00411220001CN0200001N9+01281+01281100921ADDAY121999GF107991999001999999071001MD1710131+9999MW1021EQDQ01+000002SCOTLC
0070029700999991958100106004+60117+019900FM-12+000399999V0201901N00931030001CN0080001N9+01221+01111100801ADDAY121999GF108991011071004501071071KA1999N+01111MD1510041+9999MW1031
0057029700999991958100112004+60117+019900FM-12+000399999V0201701N00411000601CN0080001N9+01501+01281100861ADDAY121999GF108991051071000751001071MD1710011+9999MW1051
0070029700999991958100118004+60117+019900FM-12+000399999V0201501N00261220001CN0100001N9+01221+01111100911ADDAY121999GF106991001001999999071061KA1999M+01501MD1110071+9999MW1021
0057029700999991958100200004+60117+019900FM-12+000399999V0200901N00411004501CN0150001N9+01221+01221100991ADDAY121999GF107991071051004501999999MD1110031+9999MW1031
0057029700999991958100312004+60117+019900FM-12+000399999V0201201N00621001501CN0120001N9+01281+01001101421ADDAY121999GF107991071061001501001001MD1210031+9999MW1021
0057029700999991958100318004+60117+019900FM-12+000399999V0201201N00411002401CN0120001N9+01221+01111101491ADDAY121999GF107991071061002501999999MD1110041+9999MW1011
0070029700999991958100706004+60117+019900FM-12+000399999V0201801N00101002401CN0035001N9+01221+01221102201ADDAY121999GF108991081061002501999999KA1999N+01221MD1110031+9999MW1021
0057029700999991958101200004+60117+019900FM-12+000399999V0202501N00721220001CN0400001N9+01001+00721101601ADDAY101999GF101991001001999999001011MD1210091+9999MW1021
0057029700999991958101212004+60117+019900FM-12+000399999V0202201N00621220001CN0300001N9+01281+01001101411ADDAY101999GF103991011011008001041011MD1810081+9999MW1031
0057029700999991958101312004+60117+019900FM-12+000399999V0203401N00411220001CN0300001N9+01111+00611101201ADDAY111999GF104991031041004501999999MD1210091+9999MW1031
0043029700999991958101512004+60117+019900FM-12+000399999V0200901N00311220001CN0500001N9+00781+00781999999ADDAY111999GF104991031041004501041001MW1021
0057029700999991958101612004+60117+019900FM-12+000399999V0200401N00461004501CN0400001N9+00721+00221099241ADDAY121999GF107991051081004501031999MD1210051+9999MW1021
0057029700999991958101700004+60117+019900FM-12+000399999V0200101N00721007801CN0300001N9+00501+00001099571ADDAY121999GF106991061051008001001001MD1210031+9999MW1021
0057029700999991958101900004+60117+019900FM-12+000399999V0200101N00721004501CN0200001N9+00501+00221101241ADDAY121999GF108991081051004501999999MD1710011+9999MW1021
0057029700999991958102000004+60117+019900FM-12+000399999V0200101N00101004501CN0200001N9+00391+00281101451ADDAY121999GF108991081051004501999999MD1210041+9999MW1021
0057029700999991958102100004+60117+019900FM-12+000399999V0200201N00211007801CN0200001N9+00221+00221101661ADDAY121999GF106991061051008001001001MD1210071+9999MW1021
0057029700999991958102200004+60117+019900FM-12+000399999V0203601N00101220001CN0200001N9+00391+00391101941ADDAY121999GF107991001001999999071999MD1810011+9999MW1021
0057029700999991958102212004+60117+019900FM-12+000399999V0202401N00621220001CN0500001N9+00721+00281101411ADDAY121999GF107991001001999999071061MD1710391+9999MW1031
0057029700999991958102312004+60117+019900FM-12+000399999V0203601N009319999999N0500001N9+00721+00221101601ADDAY111999GF105991999999999999999999MD1710031+9999MW1181
0043029700999991958102512004+60117+019900FM-12+000399999V0203301N00981220001CN0230001N9+99999+99999999999ADDAY101999GF101991001001999999001081MW1181
0043029700999991958102600004+60117+019900FM-12+000399999V0203501N008719999999N0500001N9+00221+00221999999ADDAY121999GF106991999999999999999999MW1181
0057029700999991958102612004+60117+019900FM-12+000399999V0203501N00721220001CN0500001N9+00721+00281102041ADDAY101999GF102991021011004501001021MD1210101+9999MW1021
0057029700999991958102700004+60117+019900FM-12+000399999V0202801N00511220001CN0300001N9+00721+00281101381ADDAY161999GF108991001001999999071071MD1710371+9999MW1211
0070029700999991958102718004+60117+019900FM-12+000399999V0202001N00621220001CN0400001N9+00721+00281101191ADDAY121999GF108991001001999999071999KA1999M+01281MD1210241+9999MW1021
0057029700999991958102812004+60117+019900FM-12+000399999V0201701N00361030001CN0450001N9+00721+00281101921ADDAY121999GF108991011051008001071999MD1010051+9999MW1011
0057029700999991958102900004+60117+019900FM-12+000399999V0202101N00311004501CN0300001N9+00781+00721101911ADDAY121999GF108991081051004501001001MD1710031+9999MW1021
0043029700999991958102912004+60117+019900FM-12+000399999V0202301N00571004501CN0080001N9+00891+00721101951ADDAY111999GF107991071051004501999999MW1011
0057029700999991958103000004+60117+019900FM-12+000399999V0202401N00411220001CN0030001N9+00781+00721101681ADDAY111999GF102991001001999999001081MD1710041+9999MW1011
0057029700999991958103012004+60117+019900FM-12+000399999V0202401N00511004501CN0200001N9+00891+00611101521ADDAY121999GF108991081061004501999999MD1710121+9999MW1011
0057029700999991958103112004+60117+019900FM-12+000399999V0202201N00621002401CN0050001N9+00781+00611100721ADDAY121999GF108991081051002501001001MD1710071+9999MW1021
0070029700999991958103118004+60117+019900FM-12+000399999V0202701N00261004501CN0040001N9+00721+00611100801ADDAY121999GF108991081051004501999999KA1999M+00781MD1310091+9999MW1021
0057029700999991958110100004+60117+019900FM-12+000399999V0202501N00511004501CN0050001N9+00721+00611100821ADDAY121999GF108991081051004501999999MD1810031+9999MW1021
0057029700999991958110112004+60117+019900FM-12+000399999V0203001N00261004501CN0090001N9+00781+00501101391ADDAY121999GF108991081051004501999999MD1310161+9999MW1021
0057029700999991958110200004+60117+019900FM-12+000399999V0209991C00001220001CN0150001N9-00391-00611101981ADDAY101999GF102991001001999999001021MD1210011+9999MW1031
0057029700999991958110212004+60117+019900FM-12+000399999V0201501N00511001501CN0035001N9+00781+00721101411ADDAY151999GF108991081061001501999999MD1710241+9999MW1611
0057029700999991958110312004+60117+019900FM-12+000399999V0202201N00511001501CN0150001N9+00781+00781100651ADDAY161999GF108991071071001501999999MD1810031+9999MW1611
0057029700999991958110400004+60117+019900FM-12+000399999V0202401N00311001501CN0150001N9+00781+00721101321ADDAY121999GF108991081061001501999999MD1210241+9999MW1021
0057029700999991958110500004+60117+019900FM-12+000399999V0201001N00411004501CN0200001N9+00611+00501102451ADDAY121999GF107991071051004501999999MD1710041+9999MW1021
0043029700999991958110600004+60117+019900FM-12+000399999V0201601N00511004501CN0100001N9+00891+00721102351ADDAY121999GF108991081051004501999999MW1021
0057029700999991958110612004+60117+019900FM-12+000399999V0201901N00721001501CN0080001N9+00891+00721102581ADDAY121999GF108991061061001501999999MD1410001+9999MW1501
0057029700999991958110712004+60117+019900FM-12+000399999V0202001N00411004501CN0100001N9+00781+00611102061ADDAY101999GF108991051041004501011999MD1710121+9999MW1051
0057029700999991958110800004+60117+019900FM-12+000399999V0201901N00511001501CN0060001N9+00721+00721102081ADDAY121999GF108991081061001501999999MD1710201+9999MW1601
0057029700999991958110812004+60117+019900FM-12+000399999V0201901N00621015001CN0200001N9+00781+00611101461ADDAY121999GF108991081051017501999999MD1710161+9999MW1021
0057029700999991958110818004+60117+019900FM-12+000399999V0202001N00721007801CN0200001N9+00721+00501101241ADDAY121999GF108991081051008001999999MD1710121+9999MW1011
0043029700999991958111018004+60117+019900FM-12+000399999V0202101N00361220001CN0300001N9+00501+00501101601ADDAY101999GF101991011041004501001001MW1021
0057029700999991958111112004+60117+019900FM-12+000399999V0200601N00211004501CN0150001N9+00391+00391101761ADDAY121999GF108991051051004501041061MD1710131+9999MW1021
0057029700999991958111118004+60117+019900FM-12+000399999V0200401N00211002401CN0060001N9+00391+00391101511ADDAY161999GF108991061061002501999999MD1710121+9999MW1611
0057029700999991958111200004+60117+019900FM-12+000399999V0209991C00001004501CN0100001N9+00281+00221101481ADDAY121999GF108991081051004501999999MD1410001+9999MW1021
0057029700999991958111212004+60117+019900FM-12+000399999V0202401N00461030001CN0300001N9+00721+00611101801ADDAY121999GF108991021051004501021999MD1310051+9999MW1021
0057029700999991958111218004+60117+019900FM-12+000399999V0202701N00051030001CN0250001N9+00111+00111102191ADDAY121999GF106991031051004501071001MD1210081+9999MW1021
0057029700999991958111300004+60117+019900FM-12+000399999V0200901N00211030001CN0200001N9+00111+00111102341ADDAY121999GF106991031051004501071001MD1210011+9999MW1021
0057029700999991958111312004+60117+019900FM-12+000399999V0201601N00411001501CN0070001N9+00611+00501102201ADDAY151999GF108991061071001501999999MD1710041+9999MW1511
0057029700999991958111500004+60117+019900FM-12+000399999V0202301N00411002401CN0100001N9+00611+00501101711ADDAY151999GF108991061071002501999999MD1210031+9999MW1201
0057029700999991958111512004+60117+019900FM-12+000399999V0202501N00411004501CN0400001N9+00501+00281102011ADDAY121999GF107991071051004501999999MD1110041+9999MW1011
0057029700999991958111612004+60117+019900FM-12+000399999V0203301N00361220001CN0250001N9+00721+00221102521ADDAY111999GF103991001001999999041011MD1310231+9999MW1011
0057029700999991958111618004+60117+019900FM-12+000399999V0203401N00461220001CN0400001N9+00611+00221102781ADDAY101999GF101991001001999999001011MD1110121+9999MW1011
0057029700999991958111700004+60117+019900FM-12+000399999V0209991C00001220001CN0400001N9+00111+00001103181ADDAY101999GF100991001001999999001001MD1210191+9999MW1021
0057029700999991958111712004+60117+019900FM-12+000399999V0202401N00511220001CN0350001N9+00721+00501103021ADDAY121999GF106991001001999999001061MD1710131+9999MW1021
0057029700999991958111912004+60117+019900FM-12+000399999V0201501N00151220001CN0100001N9+00501+00391104291ADDAY101999GF101991011001999999031011MD1810031+9999MW1021
0057029700999991958112012004+60117+019900FM-12+000399999V0202301N00621004501CN0400001N9+00611+00501104111ADDAY121999GF108991081061004501999999MD1710111+9999MW1021
0057029700999991958112112004+60117+019900FM-12+000399999V0202801N00511001501CN0250001N9+00221+00001103321ADDAY121999GF108991081071001501001001MD1810281+9999MW1021
0057029700999991958112200004+60117+019900FM-12+000399999V0202701N00411007801CN0200001N9+00391+00221102381ADDAY121999GF107991071051008001999999MD1710411+9999MW1011
0057029700999991958112212004+60117+019900FM-12+000399999V0203301N00361075001CN0350001N9+00611+00281102391ADDAY121999GF108991031001999999071071MD1410001+9999MW1031
0076029700999991958112300004+60117+019900FM-12+000399999V0203101N00621220001CN0300001N9+01001+00221102201ADDAY121999GF103991999001999999071001MD1810111+9999MW1011EQDQ01+000022SCOTLC
0057029700999991958112312004+60117+019900FM-12+000399999V0203501N00411075001CN0300001N9+00891+00391102601ADDAY121999GF107991011001999999041061MD1110031+9999MW1021
0057029700999991958112400004+60117+019900FM-12+000399999V0203101N00311220001CN0250001N9+00281+00281102481ADDAY101999GF102991001001999999001011MD1710091+9999MW1031
0057029700999991958112412004+60117+019900FM-12+000399999V0202601N00361001501CN0150001N9+00281+00221102051ADDAY121999GF108991081071001501999999MD1710171+9999MW1021
0057029700999991958112418004+60117+019900FM-12+000399999V0203001N00461002401CN0200001N9+00281+00111101791ADDAY121999GF108991081051002501999999MD1710131+9999MW1021
0057029700999991958112500004+60117+019900FM-12+000399999V0202701N00361002401CN0300001N9+00281+00111101361ADDAY121999GF108991081061002501999999MD1710241+9999MW1021
0057029700999991958112512004+60117+019900FM-12+000399999V0202001N00411004501CN0300001N9+00501+00281100391ADDAY121999GF108991061051004501031001MD1710231+9999MW1021
0057029700999991958112600004+60117+019900FM-12+000399999V0203401N00621220001CN0200001N9+00391+00221100411ADDAY121999GF101991011001999999041001MD1210351+9999MW1021
0057029700999991958112612004+60117+019900FM-12+000399999V0203601N00621004501CN0150001N9+00281-00111101521ADDAY121999GF106991061091004501041001MD1210391+9999MW1831
0057029700999991958112700004+60117+019900FM-12+000399999V0201201N00211220001CN0400001N9-00501-00611100291ADDAY101999GF106991001001999999001061MD1210131+9999MW1031
0057029700999991958112712004+60117+019900FM-12+000399999V0202401N00461004501CN0300001N9+00111-00221102892ADDAY171999GF108991071051004501021999MD1710171+9999MW1711
0057029700999991958112900004+60117+019900FM-12+000399999V0202601N00411002401CN0300001N9+00281+00281102291ADDAY121999GF107991071051002501999999MD1710131+9999MW1021
0076029700999991958113000004+60117+019900FM-12+000399999V0202801N00621004501CN0200001N9+00391+00001099721ADDAY121999GF108991081061004501999999MD1710582+9999MW1021EQDQ01+000582APC3  
0057029700999991958113012004+60117+019900FM-12+000399999V0203501N00721002401CN0050001N9+00281+00111099761ADDAY181999GF107991071091002501041001MD1110091+9999MW1841
0043029700999991958120100004+60117+019900FM-12+000399999V0200301N00411220001CN0300001N9-00221-00891101041ADDAY101999GF101991011051004501001001MW1021
0057029700999991958120112004+60117+019900FM-12+000399999V0200801N00051004501CN0045001N9-00281-00281101551ADDAY171999GF107991051051004501071999MD1110081+9999MW1711
0057029700999991958120200004+60117+019900FM-12+000399999V0203401N00311220001CN0200001N9-00391-00611101751ADDAY101999GF102991021051004501001001MD1810011+9999MW1021
0057029700999991958120218004+60117+019900FM-12+000399999V0202401N00311007801CN0200001N9-00221-00391101661ADDAY121999GF108991081051008001999999MD1710161+9999MW1021
0057029700999991958120300004+60117+019900FM-12+000399999V0209991C00001220001CN0004001N9-00891-00891101511ADDAY101999GF103991031001999999041999MD1710071+9999MW1411
0057029700999991958120312004+60117+019900FM-12+000399999V0202301N00311030001CN0300001N9+00111-00111101141ADDAY131999GF107991011071002501071061MD1710161+9999MW1021
0057029700999991958120400004+60117+019900FM-12+000399999V0202801N00411220001CN0200001N9+00281+00111100381ADDAY121999GF105991001001999999071999MD1710251+9999MW1011
0057029700999991958120412004+60117+019900FM-12+000399999V0203001N00511024001CN0400001N9+00221-00281098641ADDAY121999GF106991061001999999071001MD1710081+9999MW1011
0057029700999991958120512004+60117+019900FM-12+000399999V0203601N00511004501CN0400001N9+00111-00221098661ADDAY181999GF107991071091004501999999MD1210211+9999MW1261
0057029700999991958120600004+60117+019900FM-12+000399999V0203601N00821004501CN0250001N9-00221-00501099261ADDAY181999GF105991051051004501001001MD1210131+9999MW1261
0057029700999991958120612004+60117+019900FM-12+000399999V0200501N00261030001CN0300001N9-00221-00391099781ADDAY121999GF107991041061002501031999MD1310071+9999MW1011
0043029700999991958120618004+60117+019900FM-12+000399999V0200601N00261220001CN0100001N9-00611-00611100041ADDAY171999GF104991041051004501999999MW1711
0057029700999991958120700004+60117+019900FM-12+000399999V0209991C00001220001CN0150001N9-01001-01221100401ADDAY171999GF102991999999999999999999MD1210151+9999MW1711
