0070029700999991957010106004+60117+019900FM-12+000399999V0201001N00411004501CN0150001N9-00281-00501102061ADDAY121999GF108991081051004501999999KA1999N-00281MD1710191+9999MW1021
0057029700999991957010118004+60117+019900FM-12+000399999V0200901N00311007801CN0060001N9-00391-00611101761ADDAY171999GF108991081051008001999999MD1710041+9999MW1711
0081029700999991957010206004+60117+019900FM-12+000399999V0200601N00211004501CN0050001N9-00281-00391101601ADDAA199001091AY171999GF108991081051004501999999KA1999N-00281MD1710051+9999MW1711
0057029700999991957010212004+60117+019900FM-12+000399999V0203601N00211001501CN0060001N9-00221-00281101551ADDAY121999GF107991071081001501999999MD1510031+9999MW1011
0070029700999991957010218004+60117+019900FM-12+000399999V0203601N00101220001CN0010001N9-00221-00221101621ADDAY121999GF103991031051008001001001KA1999M-00221MD1210031+9999MW1121
0089029700999991957010306004+60117+019900FM-12+000399999V0200201N00211004501CN0100001N9-00281-00391101511ADDAY121999GF108991081051004501999999KA1999N+99999MD1710041+9999MW1031EQDQ01 -00222ATMN  
0057029700999991957010312004+60117+019900FM-12+000399999V0209991C00001000151CN0020001N9-00221-00221101591ADDAY171999GF109991091999000251999999MD1210071+9999MW1731
0057029700999991957010400004+60117+019900FM-12+000399999V0209991C00001012301CN0080001N9-00611-00721102111ADDAY121999GF108991081051012501999999MD1210121+9999MW1021
0081029700999991957010418004+60117+019900FM-12+000399999V0201601N00671001501CN0030001N9+00221+00221101981ADDAA199002091AY161999GF108991081071001501999999KA1999M+00221MD1710051+9999MW1611
0057029700999991957010500004+60117+019900FM-12+000399999V0201701N00721000601CN0020001N9+00111+00111101711ADDAY161999GF108991081061000751999999MD1810071+9999MW1581
0081029700999991957010506004+60117+019900FM-12+000399999V0201601N00771000151CN0008001N9+00221+00221100941ADDAA199000591AY141999GF108991081061000251999999KA1999N+00111MD1710481+9999MW1601
0081029700999991957010518004+60117+019900FM-12+000399999V0202201N00511001501CN0050001N9+00281+00281099121ADDAA199012091AY121999GF108991081071001501999999KA1999M+00281MD1710231+9999MW1021
0057029700999991957010600004+60117+019900FM-12+000399999V0202901N00721220001CN0100001N9+00281+00221099041ADDAY121999GF105991001001999999071999MD1110031+9999MW1021
0070029700999991957010606004+60117+019900FM-12+000399999V0202501N00411007801CN0100001N9+00111+00001098981ADDAY121999GF108991071051008001999999KA1999N+00111MD1710071+9999MW1031
0057029700999991957010700004+60117+019900FM-12+000399999V0203301N01031004501CN0080001N9-00111-00221099391ADDAY121999GF108991081051004501999999MD1210481+9999MW1701
0081029700999991957010706004+60117+019900FM-12+000399999V0203501N00771007801CN0200001N9-00111-00391100211ADDAA199000391AY121999GF108991081051008001999999KA1999N-00221MD1210361+9999MW1021
0057029700999991957010712004+60117+019900FM-12+000399999V0203401N00511220001CN0250001N9-00111-00391100861ADDAY111999GF104991031051008001041001MD1210291+9999MW1011
0057029700999991957010800004+60117+019900FM-12+000399999V0202301N00511220001CN0200001N9+00001-00221100991ADDAY121999GF108991001001999999041071MD1710231+9999MW1031
0076029700999991957010812004+60117+019900FM-12+000399999V0202201N00461012301CN0150001N9+00281+00281100151ADDAY121999GF108991999051012501071999MD1710151+9999MW1021EQDQ01+000082SCOTLC
0070029700999991957010818004+60117+019900FM-12+000399999V0202501N00511220001CN0200001N9+00391+00281099801ADDAY101999GF100991001001999999001001KA1999M+00501MD1710121+9999MW1021
0070029700999991957010906004+60117+019900FM-12+000399999V0202501N00871220001CN0150001N9+00721+00391099051ADDAY121999GF108991001001999999031999KA1999N+00391MD1710251+9999MW1181
0057029700999991957010912004+60117+019900FM-12+000399999V0202501N00931030001CN0200001N9+00721+00391098741ADDAY121999GF108991031051002501021081MD1710151+9999MW1181
0070029700999991957010918004+60117+019900FM-12+000399999V0202701N00721220001CN0300001N9+00501+00111099001ADDAY101999GF101991011051012501001001KA1999M+00721MD1210241+9999MW1021
0076029700999991957011000004+60117+019900FM-12+000399999V0202401N00771220001CN0300001N9+00221-00111098961ADDAY101999GF101991999001999999031001MD1710071+9999MW1021EQDQ01+000002SCOTLC
0089029700999991957011006004+60117+019900FM-12+000399999V0202601N00411220001CN0200001N9+00111-00111098591ADDAY111999GF102991999001999999031001KA1999N+00001MD1710211+9999MW1021EQDQ01+000002SCOTLC
0057029700999991957011012004+60117+019900FM-12+000399999V0203301N00621220001CN0120001N9+00221-00221099041ADDAY111999GF102991011011004501031011MD1210351+9999MW1011
0070029700999991957011018004+60117+019900FM-12+000399999V0203601N00511004501CN0400001N9+00111-00111099151ADDAY121999GF106991061051004501999999KA1999M+00221MD1210411+9999MW1021
0076029700999991957011100004+60117+019900FM-12+000399999V0203201N00461220001CN0300001N9-00111-00281100352ADDAY101999GF101991001001999999001011MD1210201+9999MW1011EQDQ01+100353APOSLP
0089029700999991957011106004+60117+019900FM-12+000399999V0203301N00571220001CN0200001N9+00001-00281100641ADDAY101999GF101991999001999999031001KA1999N-00221MD1210201+9999MW1011EQDQ01+000002SCOTLC
0057029700999991957011200004+60117+019900FM-12+000399999V0203301N00411220001CN0300001N9-00281-00611100741ADDAY101999GF101991001001999999001011MD1710091+9999MW1021
0057029700999991957011212004+60117+019900FM-12+000399999V0200601N00211220001CN0150001N9-00391-00501100541ADDAY111999GF103991011051008001031011MD1510031+9999MW1011
0070029700999991957011218004+60117+019900FM-12+000399999V0200301N00511007801CN0300001N9-00501-00721100741ADDAY121999GF107991071051008001999999KA1999M-00391MD1210151+9999MW1031
0076029700999991957011300004+60117+019900FM-12+000399999V0200501N00361007801CN0250001N9-00501-00721101191ADDAY121999GF108991999051008001001001MD1210211+9999MW1031EQDQ01+000072SCOTLC
0057029700999991957011312004+60117+019900FM-12+000399999V0200501N00361030001CN0400001N9-00391-00781102291ADDAY121999GF107991021081004501041999MD1210271+9999MW1021
0057029700999991957011400004+60117+019900FM-12+000399999V0200401N00411004501CN0300001N9-00611-00721103111ADDAY121999GF107991071051004501999999MD1210151+9999MW1021
0070029700999991957011406004+60117+019900FM-12+000399999V0200301N00261030001CN0300001N9-00611-00721103311ADDAY111999GF105991031051008001031999KA1999N-00781MD1210121+9999MW1021
0057029700999991957011412004+60117+019900FM-12+000399999V0201201N00051021001CN0300001N9-00281-00501103551ADDAY111999GF106991051001022501031011MD1210051+9999MW1021
0089029700999991957011418004+60117+019900FM-12+000399999V0209991C00001220001CN0300001N9+00001-01001103541ADDAY111999GF102991021051004501001001KA1999M+99999MD1610041+9999MW1021EQDQ01 -00282ATMX  
0057029700999991957011500004+60117+019900FM-12+000399999V0202401N00511004501CN0250001N9-00391-00501103311ADDAY121999GF107991071051004501999999MD1710121+9999MW1011
0070029700999991957011506004+60117+019900FM-12+000399999V0202401N00621220001CN0300001N9-00501-01001102801ADDAY101999GF100991001001999999001001KA1999N-01111MD1710231+9999MW1021
0057029700999991957011600004+60117+019900FM-12+000399999V0203301N00511220001CN0300001N9-01001-01111102521ADDAY101999GF100991001001999999001001MD1210111+9999MW1021
0057029700999991957011612004+60117+019900FM-12+000399999V0202801N00311030001CN0300001N9+00111-00221102341ADDAY171999GF106991041051008001031999MD1710111+9999MW1221
0100029700999991957011618004+60117+019900FM-12+000399999V0203201N00621220001CN0300001N9+00281-00111102281ADDAA199000391AY101999GF101991999001999999031001KA1999M+00281MD1310071+9999MW1011EQDQ01+000002SCOTLC
0089029700999991957011706004+60117+019900FM-12+000399999V0203001N00311220001CN0300001N9+00001+00001102521ADDAY121999GF106991999001999999031001KA1999N-00281MD1210041+9999MW1031EQDQ01+000002SCOTLC
0057029700999991957011712004+60117+019900FM-12+000399999V0203101N00511220001CN0500001N9+00391-00111102261ADDAY111999GF103991001001999999001011MD1710191+9999MW1021
0057029700999991957011800004+60117+019900FM-12+000399999V0203301N00511220001CN0400001N9+00221-00111102041ADDAY111999GF101991001001999999031011MD1810151+9999MW1011
0057029700999991957011806004+60117+019900FM-12+000399999V0203101N00511220001CN0300001N9+00111-00111101911ADDAY101999GF101991001001999999001011MD1710071+9999MW1021
0057029700999991957011812004+60117+019900FM-12+000399999V0203001N00311220001CN0500001N9+00221-00281101751ADDAY101999GF101991001001999999001011MD1710131+9999MW1021
0070029700999991957011818004+60117+019900FM-12+000399999V0202801N00621220001CN0300001N9+00001-00391101581ADDAY101999GF102991001001999999041011KA1999M+00281MD1510031+9999MW1021
0057029700999991957011900004+60117+019900FM-12+000399999V0203001N00721220001CN0250001N9+00221-00281101721ADDAY101999GF101991001001999999001011MD1210091+9999MW1021
0070029700999991957011906004+60117+019900FM-12+000399999V0203001N00511220001CN0300001N9+00221-00391101881ADDAY121999GF107991001001999999031051KA1999N+00001MD1210041+9999MW1031
0057029700999991957012000004+60117+019900FM-12+000399999V0202401N00511220001CN0300001N9-00111-00501101291ADDAY111999GF105991001001999999001081MD1610241+9999MW1021
0057029700999991957012012004+60117+019900FM-12+000399999V0202601N01031007801CN0200001N9+00281+00001099761ADDAY121999GF108991051051008001031999MD1710241+9999MW1181
0070029700999991957012018004+60117+019900FM-12+000399999V0202301N00771004501CN0100001N9+00391+00221099391ADDAY121999GF108991081051004501999999KA1999M+00391MD1710211+9999MW1021
0070029700999991957012106004+60117+019900FM-12+000399999V0202501N01031004501CN0200001N9+00611+00391098711ADDAY121999GF105991051051004501001001KA1999N+00281MD1710011+9999MW1021
0057029700999991957012112004+60117+019900FM-12+000399999V0202501N00621075001CN0300001N9+00611+00111099441ADDAY121999GF106991021051008001001051MD1210131+9999MW1021
0057029700999991957012200004+60117+019900FM-12+000399999V0202301N00821220001CN0200001N9+00281+00001100051ADDAY121999GF107991001001999999051031MD1410001+9999MW1021
0070029700999991957012206004+60117+019900FM-12+000399999V0202501N00511220001CN0300001N9+00281+00111100291ADDAY111999GF105991001001999999031061KA1999N+00221MD1210151+9999MW1031
0057029700999991957012212004+60117+019900FM-12+000399999V0202301N00571030001CN0150001N9+00281+00221100341ADDAY161999GF108991031051004501021999MD1810011+9999MW1611
0081029700999991957012218004+60117+019900FM-12+000399999V0202301N00411001501CN0150001N9+00221+00111100051ADDAA199002091AY161999GF108991081061001501999999KA1999M+00281MD1510031+9999MW1611
0057029700999991957012300004+60117+019900FM-12+000399999V0202801N00411002401CN0150001N9+00221+00221100111ADDAY121999GF108991081061002501999999MD1210081+9999MW1021
0070029700999991957012306004+60117+019900FM-12+000399999V0203101N00261220001CN0200001N9+00001-00111100391ADDAY101999GF100991001001999999001001KA1999N-00111MD1210171+9999MW1021
0057029700999991957012400004+60117+019900FM-12+000399999V0209991C00001220001CN0300001N9-00611-00721101411ADDAY101999GF100991001001999999001001MD1210041+9999MW1021
0057029700999991957012412004+60117+019900FM-12+000399999V0202401N00211000601CN0008001N9+00111+00111101511ADDAY141999GF109991091061000751999999MD1110051+9999MW1471
0070029700999991957012418004+60117+019900FM-12+000399999V0201801N00101000151CN0001001N9+00111+00111101491ADDAY141999GF109991091061000251999999KA1999M+00111MD1110011+9999MW1471
0070029700999991957012506004+60117+019900FM-12+000399999V0201501N00211000151CN0005001N9+00111+00111101211ADDAY141999GF109991091061000251999999KA1999N+00111MD1610111+9999MW1431
0057029700999991957012512004+60117+019900FM-12+000399999V0201301N00211000151CN0006001N9+00001+00001101051ADDAY171999GF108991081061000251999999MD1710081+9999MW1771
0081029700999991957012518004+60117+019900FM-12+000399999V0201401N00211001501CN0050001N9+00001+00001100891ADDAA199002091AY171999GF108991081061001501999999KA1999M+00111MD1610031+9999MW1711
0057029700999991957012600004+60117+019900FM-12+000399999V0209991C00001001501CN0100001N9-00111-00111100861ADDAY121999GF108991081061001501999999MD1410001+9999MW1221
0081029700999991957012606004+60117+019900FM-12+000399999V0209991C00001001501CN0100001N9-00111-00111100951ADDAA199000591AY131999GF108991081061001501999999KA1999N-00221MD1110051+9999MW1031
0070029700999991957012618004+60117+019900FM-12+000399999V0201801N00101001501CN0100001N9+00001-00221100861ADDAY121999GF106991061061001501001001KA1999M+00111MD1710091+9999MW1011
0057029700999991957012700004+60117+019900FM-12+000399999V0201701N00931001501CN0050001N9+00111+00001100291ADDAY121999GF108991081061001501999999MD1710281+9999MW1181
0081029700999991957012706004+60117+019900FM-12+000399999V0202101N00671001501CN0020001N9+00111+00111099621ADDAA199005091AY171999GF108991081071001501999999KA1999N+00001MD1610271+9999MW1681
0057029700999991957012800004+60117+019900FM-12+000399999V0209991C00001220001CN0150001N9-00221-00221100151ADDAY101999GF100991001001999999001001MD1210191+9999MW1021
0057029700999991957012812004+60117+019900FM-12+000399999V0202101N00311220001CN0250001N9+00111+00001101191ADDAY101999GF102991021051004501001011MD1210271+9999MW1021
0070029700999991957012818004+60117+019900FM-12+000399999V0202901N00051220001CN0100001N9-00391-00721101681ADDAY101999GF101991001001999999001011KA1999M+00111MD1210171+9999MW1111
0081029700999991957012906004+60117+019900FM-12+000399999V0202001N00151007801CN0100001N9+00111+00001101741ADDAA199000691AY121999GF108991061071008001021999KA1999N-00611MD1710071+9999MW1601
0057029700999991957012912004+60117+019900FM-12+000399999V0201901N00311000601CN0035001N9+00111+00111101511ADDAY161999GF108991081061000751999999MD1710131+9999MW1631
0081029700999991957012918004+60117+019900FM-12+000399999V0202201N00511001501CN0040001N9+00221+00221101411ADDAA199004091AY161999GF108991081071001501999999KA1999M+00221MD1610011+9999MW1611
0057029700999991957013000004+60117+019900FM-12+000399999V0202201N00261000151CN0005001N9+00281+00281101441ADDAY151999GF108991081061000251999999MD1210011+9999MW1531
0081029700999991957013006004+60117+019900FM-12+000399999V0200101N00571001501CN0030001N9+00111+00111101661ADDAA199001091AY151999GF108991081061001501999999KA1999N+00111MD1210191+9999MW1611
0057029700999991957013012004+60117+019900FM-12+000399999V0203601N00411030001CN0400001N9+00111+00001101991ADDAY121999GF106991021051008001041011MD1210111+9999MW1011
0081029700999991957013018004+60117+019900FM-12+000399999V0200201N00311220001CN0400001N9-00111-00221102261ADDAA199001091AY101999GF100991001001999999001001KA1999M+00221MD1210081+9999MW1021
0057029700999991957013100004+60117+019900FM-12+000399999V0203601N00101220001CN0400001N9-00221-00281102541ADDAY101999GF100991001001999999001001MD1210091+9999MW1021
0070029700999991957013106004+60117+019900FM-12+000399999V0209991C00001220001CN0300001N9-00501-00501102561ADDAY101999GF100991001001999999001001KA1999N-00611MD1310011+9999MW1021
0057029700999991957020100004+60117+019900FM-12+000399999V0201601N00721000601CN0040001N9+00001+00001102021ADDAY121999GF108991081061000751999999MD1810201+9999MW1021
0057029700999991957020112004+60117+019900FM-12+000399999V0201801N00931001501CN0030001N9+00221+00111101051ADDAY121999GF108991081061001501999999MD1710281+9999MW1181
0081029700999991957020118004+60117+019900FM-12+000399999V0201901N00931001501CN0020001N9+00111+00111100411ADDAA199003091AY171999GF108991081061001501999999KA1999M+00221MD1710321+9999MW1691
0081029700999991957020206004+60117+019900FM-12+000399999V0201501N00101000601CN0015001N9+00001+00001098681ADDAA199015091AY121999GF108991081061000751999999KA1999N+00001MD1710431+9999MW1691
0081029700999991957020218004+60117+019900FM-12+000399999V0202801N00621220001CN0200001N9+00221+00111100591ADDAA199005091AY121999GF105991001001999999071999KA1999M+00221MD1210441+9999MW1011
0057029700999991957020300004+60117+019900FM-12+000399999V0202701N00511220001CN0200001N9+00221+00001101151ADDAY101999GF101991011051012501001001MD1210171+9999MW1011
0070029700999991957020306004+60117+019900FM-12+000399999V0202701N00511220001CN0250001N9+00111+00001101221ADDAY101999GF101991011051004501031001KA1999N+00001MD1310051+9999MW1021
0070029700999991957020318004+60117+019900FM-12+000399999V0202701N00511220001CN0500001N9+00111-00221101681ADDAY101999GF100991001001999999001001KA1999M+00281MD1110041+9999MW1021
0076029700999991957020400004+60117+019900FM-12+000399999V0202601N00571220001CN0300001N9+00111-00221101691ADDAY101999GF101991999001999999041001MD1510051+9999MW1021EQDQ01+000002SCOTLC
0070029700999991957020406004+60117+019900FM-12+000399999V0202701N00311220001CN0300001N9+00001-00221101691ADDAY111999GF106991001001999999051061KA1999N+00001MD1710011+9999MW1031
0057029700999991957020500004+60117+019900FM-12+000399999V0202801N00511001501CN0050001N9+00221+00221100691ADDAY121999GF108991081061001501999999MD1210031+9999MW1021
0081029700999991957020518004+60117+019900FM-12+000399999V0202201N00721220001CN0040001N9+00281+00221100021ADDAA199001091AY121999GF108991001001999999071999KA1999M+00281MD1710191+9999MW1011
0057029700999991957020600004+60117+019900FM-12+000399999V0202501N00621030001CN0300001N9+00391+00001100051ADDAY111999GF106991011051004501041051MD1210131+9999MW1031
0070029700999991957020606004+60117+019900FM-12+000399999V0202601N00821220001CN0200001N9+00281-00111099921ADDAY101999GF102991001001999999041011KA1999N+00221MD1210091+9999MW1031
0070029700999991957020618004+60117+019900FM-12+000399999V0202101N00101220001CN0300001N9+00111+00111099861ADDAY121999GF108991001001999999011071KA1999M+00391MD1710161+9999MW1021
0057029700999991957020700004+60117+019900FM-12+000399999V0202301N00261012301CN0150001N9+00111+00111099721ADDAY121999GF108991061051012501021999MD1710081+9999MW1031
0081029700999991957020706004+60117+019900FM-12+000399999V0202401N00311001501CN0060001N9+00111+00111099541ADDAA199001091AY161999GF108991081071001501999999KA1999N+00001MD1710081+9999MW1611
0057029700999991957020712004+60117+019900FM-12+000399999V0202701N00361000601CN0200001N9+00111+00111099421ADDAY171999GF108991081061000751999999MD1710041+9999MW1231
0100029700999991957020718004+60117+019900FM-12+000399999V0203001N00361220001CN0300001N9+00111-00111099491ADDAA199001091AY121999GF102991999001999999041001KA1999M+00221MD1210091+9999MW1011EQDQ01+000002SCOTLC
0057029700999991957020800004+60117+019900FM-12+000399999V0203201N00411030001CN0300001N9+00111-00281099851ADDAY121999GF108991021051008001071999MD1210191+9999MW1031
0070029700999991957020806004+60117+019900FM-12+000399999V0203301N00411220001CN0300001N9-00221-00391100211ADDAY101999GF101991011051004501031001KA1999N-00281MD1210161+9999MW1021
0057029700999991957020912004+60117+019900FM-12+000399999V0201001N00621002401CN0300001N9-00111-00281099361ADDAY121999GF107991061021002501071001MD1610051+9999MW1031
0070029700999991957021006004+60117+019900FM-12+000399999V0200201N00051220001CN0300001N9-00721-00781099991ADDAY101999GF103991011051012501041001KA1999N-00721MD1210151+9999MW1031
0081029700999991957021018004+60117+019900FM-12+000399999V0200901N00311030001CN0040001N9-00281-00391100371ADDAA199001091AY171999GF108991041051004501071999KA1999M-00221MD1210091+9999MW1711
0057029700999991957021100004+60117+019900FM-12+000399999V0200801N00311030001CN0080001N9-00281-00391100441ADDAY171999GF108991021051008001071999MD1210011+9999MW1711
0081029700999991957021106004+60117+019900FM-12+000399999V0200401N00311030001CN0200001N9-00391-00501100541ADDAA199000591AY121999GF108991021051008001071999KA1999N-00391MD1210041+9999MW1021
0070029700999991957021118004+60117+019900FM-12+000399999V0202001N00101220001CN0400001N9-00611-00721100821ADDAY121999GF107991001001999999051999KA1999M-00221MD1210091+9999MW1021
0057029700999991957021200004+60117+019900FM-12+000399999V0209991C00001220001CN0300001N9-00721-00781100661ADDAY121999GF107991001001999999071999MD1410001+9999MW1021
0081029700999991957021206004+60117+019900FM-12+000399999V0203201N00211007801CN0200001N9-00501-00721100851ADDAA199000691AY121999GF107991071051008001999999KA1999N-00891MD1410001+9999MW1021
0057029700999991957021300004+60117+019900FM-12+000399999V0200701N00411220001CN0300001N9-00611-00891100911ADDAY121999GF108991001001999999041071MD1810071+9999MW1031
0081029700999991957021318004+60117+019900FM-12+000399999V0201001N00621001501CN0030001N9-00221-00281099601ADDAA199007091AY171999GF108991081071001501999999KA1999M-00221MD1710111+9999MW1221
0081029700999991957021418004+60117+019900FM-12+000399999V0200901N00511001501CN0025001N9-00111-00111098551ADDAA199002091AY171999GF108991081071001501999999KA1999M+00001MD1710131+9999MW1711
0081029700999991957021506004+60117+019900FM-12+000399999V0201201N00461000151CN0004001N9+00111+00111098811ADDAA199002091AY141999GF109991091061000251999999KA1999N-00111MD1410001+9999MW1451
0081029700999991957021518004+60117+019900FM-12+000399999V0201101N00461000601CN0025001N9+00001+00001098801ADDAA199002091AY171999GF108991081061000751999999KA1999M+00111MD1610031+9999MW1681
0081029700999991957021606004+60117+019900FM-12+000399999V0201401N00211000151CN0006001N9+00111+00111098951ADDAA199002091AY121999GF109991091061000251999999KA1999N+00001MD1310051+9999MW1471
0070029700999991957021718004+60117+019900FM-12+000399999V0203401N00211002401CN0080001N9-00111-00221099861ADDAY121999GF108991081061002501999999KA1999M+00111MD1210161+9999MW1021
0070029700999991957021806004+60117+019900FM-12+000399999V0202501N00051002401CN0100001N9-00111-00221100181ADDAY121999GF108991081061002501999999KA1999N-00111MD1110041+9999MW1021
0081029700999991957021818004+60117+019900FM-12+000399999V0202101N00411002401CN0100001N9+00001-00111100541ADDAA199000691AY121999GF108991081061002501999999KA1999M+00001MD1210111+9999MW1021
0043029700999991957021900004+60117+019900FM-12+000399999V0201201N002119999999N0080001N9-00111-00221100621ADDAY121999GF108991081051999999999999MW1021
0081029700999991957021906004+60117+019900FM-12+000399999V0201301N00311001501CN0012001N9+00001+00001100591ADDAA199000391AY171999GF108991081061001501999999KA1999N-00281MD1710011+9999MW1681
0081029700999991957021918004+60117+019900FM-12+000399999V0200101N00411004501CN0100001N9-00111-00281100241ADDAA199000691AY121999GF108991081051004501999999KA1999M+00111MD1710111+9999MW1021
0057029700999991957022000004+60117+019900FM-12+000399999V0203601N00721004501CN0100001N9-00111-00281100151ADDAY121999GF108991081051004501999999MD1610051+9999MW1021
0081029700999991957022006004+60117+019900FM-12+000399999V0203401N00571004501CN0100001N9-00111-00391100311ADDAA199000691AY121999GF108991081061004501999999KA1999N-00111MD1310071+9999MW1021
0057029700999991957022100004+60117+019900FM-12+000399999V0202401N00311220001CN0050001N9-00281-00281100801ADDAY101999GF102991021051004501001001MD1110041+9999MW1021
0070029700999991957022106004+60117+019900FM-12+000399999V0202401N00311002401CN0040001N9-00281-00281101021ADDAY121999GF108991081061002501999999KA1999N-00781MD1310081+9999MW1021
0070029700999991957022118004+60117+019900FM-12+000399999V0203401N00211001501CN0100001N9-00221-00281101281ADDAY121999GF108991081061001501999999KA1999M-00221MD1210081+9999MW1021
0057029700999991957022200004+60117+019900FM-12+000399999V0201101N00051002401CN0100001N9-00611-00721101381ADDAY121999GF108991081061002501999999MD1210041+9999MW1021
0070029700999991957022206004+60117+019900FM-12+000399999V0200201N00101004501CN0100001N9-00391-00391101391ADDAY121999GF108991081051004501999999KA1999N-00721MD1210011+9999MW1021
0081029700999991957022218004+60117+019900FM-12+000399999V0200101N00311030001CN0150001N9-00281-00391101411ADDAA199000691AY121999GF107991031051004501071999KA1999M+00001MD1110011+9999MW1011
0057029700999991957022300004+60117+019900FM-12+000399999V0203601N00311012301CN0100001N9-00391-00611101401ADDAY121999GF108991081051012501999999MD1710041+9999MW1031
0070029700999991957022306004+60117+019900FM-12+000399999V0203501N00621007801CN0150001N9-00281-00721101341ADDAY121999GF108991081051008001999999KA1999N-00721MD1710051+9999MW1021
0081029700999991957022318004+60117+019900FM-12+000399999V0203301N00621004501CN0080001N9-00501-00721101011ADDAA199000691AY121999GF108991081051004501999999KA1999M-00281MD1710081+9999MW1021
0057029700999991957022400004+60117+019900FM-12+000399999V0203301N00571004501CN0015001N9-00611-00781100861ADDAY171999GF108991081051004501999999MD1710041+9999MW1731
0081029700999991957022406004+60117+019900FM-12+000399999V0203301N00461004501CN0100001N9-00781-00891100601ADDAA199000691AY121999GF107991071051004501071999KA1999N-00781MD1710151+9999MW1021
0057029700999991957022412004+60117+019900FM-12+000399999V0202301N00461220001CN0200001N9-00611-00721100481ADDAY121999GF104991041021004501071999MD1610051+9999MW1011
0057029700999991957022500004+60117+019900FM-12+000399999V0202301N00311220001CN0250001N9-00721-00891100801ADDAY111999GF103991031051004501001001MD1210151+9999MW1011
0070029700999991957022506004+60117+019900FM-12+000399999V0202301N00051004501CN0200001N9-01001-01221101011ADDAY121999GF107991071051004501999999KA1999N-01001MD1210091+9999MW1021
0070029700999991957022518004+60117+019900FM-12+000399999V0202101N00101004501CN0100001N9-00721-00781101381ADDAY121999GF106991061051004501999999KA1999M-00281MD1210081+9999MW1031
0081029700999991957022618004+60117+019900FM-12+000399999V0202701N00051002401CN0070001N9-00391-00391102181ADDAA199000691AY171999GF108991081051002501999999KA1999M-00111MD1210011+9999MW1731
0057029700999991957022700004+60117+019900FM-12+000399999V0203601N00311004501CN0050001N9-00391-00391102241ADDAY171999GF108991081051004501999999MD1310031+9999MW1711
0100029700999991957022706004+60117+019900FM-12+000399999V0203601N00051220001CN0015001N9-00281-00281102401ADDAA199000591AY111999GF104991999001999999031001KA1999N-00281MD1210121+9999MW1111EQDQ01+000002SCOTLC
0057029700999991957022718004+60117+019900FM-12+000399999V0202201N00051030001CN0050001N9-00781-00891102781ADDAY141999GF108991041051004501021999MD1210111+9999MW1021
0081029700999991957022806004+60117+019900FM-12+000399999V0202701N00211000151CN0004001N9-00611-00611103201ADDAA199000591AY141999GF109991091061000251999999KA1999N-00781MD1210121+9999MW1471
0057029700999991957030100004+60117+019900FM-12+000399999V0209991C00001220001CN0060001N9-00221-00221103591ADDAY101999GF100991001001999999001001MD1410001+9999MW1021
0057029700999991957030112004+60117+019900FM-12+000399999V0202101N00411000601CN0003001N9-00391-00391103421ADDAY141999GF109991091061000751999999MD1810041+9999MW1491
0070029700999991957030118004+60117+019900FM-12+000399999V0202001N00511004501CN0100001N9-00221-00391103291ADDAY121999GF108991081051004501999999KA1999M-00221MD1710011+9999MW1021
0057029700999991957030212004+60117+019900FM-12+000399999V0202001N00671004501CN0150001N9+00001-00281103041ADDAY121999GF108991081081004501999999MD1710041+9999MW1011
0070029700999991957030218004+60117+019900FM-12+000399999V0201801N00571004501CN0100001N9+00001-00221102861ADDAY121999GF108991081051004501999999KA1999M+00001MD1710051+9999MW1021
0070029700999991957030306004+60117+019900FM-12+000399999V0201901N00931004501CN0200001N9-00111-00391102281ADDAY121999GF108991081051004501999999KA1999N-00221MD1710121+9999MW1021
0070029700999991957030318004+60117+019900FM-12+000399999V0201801N00931002401CN0200001N9+00001-00111101541ADDAY121999GF108991081051002501999999KA1999M+00001MD1810231+9999MW1021
0057029700999991957030400004+60117+019900FM-12+000399999V0201701N00981002401CN0050001N9+00001-00721100981ADDAY121999GF108991081051002501999999MD1110391+9999MW1021
0081029700999991957030406004+60117+019900FM-12+000399999V0201901N00821001501CN0005001N9+00001+00001100351ADDAA199002091AY171999GF108991081071001501999999KA1999N-00111MD1710281+9999MW1731
0057029700999991957030412004+60117+019900FM-12+000399999V0201701N00981002401CN0050001N9+00001-00721100981ADDAY121999GF108991081051002501999999MD1110391+9999MW1021
0057029700999991957030500004+60117+019900FM-12+000399999V0203101N00511030001CN0100001N9+00001-00221100151ADDAY121999GF108991031051008001071999MD1310011+9999MW1021
0081029700999991957030518004+60117+019900FM-12+000399999V0203501N00571004501CN0080001N9-00501-00611100941ADDAA199000691AY121999GF108991081051004501999999KA1999M-00281MD1210201+9999MW1021
0070029700999991957030606004+60117+019900FM-12+000399999V0203601N00311004501CN0100001N9-00391-00611101391ADDAY121999GF108991081051004501999999KA1999N-00501MD1110111+9999MW1021
0057029700999991957030612004+60117+019900FM-12+000399999V0200301N00261004501CN0100001N9-00281-00611101571ADDAY121999GF106991061081004501001001MD1110051+9999MW1011
0070029700999991957030618004+60117+019900FM-12+000399999V0200901N00101220001CN0080001N9-00721-00891101681ADDAY111999GF102991021051008001031001KA1999M-00281MD1210091+9999MW1011
0057029700999991957030700004+60117+019900FM-12+000399999V0200901N00211220001CN0080001N9-00721-00891101741ADDAY121999GF108991001001999999001071MD1410001+9999MW1031
0070029700999991957030706004+60117+019900FM-12+000399999V0201901N00261004501CN0100001N9-00281-00501101851ADDAY121999GF108991081051004501999999KA1999N-01281MD1110051+9999MW1031
0057029700999991957030712004+60117+019900FM-12+000399999V0201901N00511004501CN0150001N9-00221-00501101971ADDAY111999GF108991081051004501999999MD1110041+9999MW1021
0057029700999991957030718004+60117+019900FM-12+000399999V0200901N00211220001CN0080001N9-00281-00891101741ADDAY121999GF108991001001999999001071MD1410001+9999MW1031
0057029700999991957030800004+60117+019900FM-12+000399999V0201401N00511004501CN0100001N9-00281-00501102191ADDAY121999GF108991081061004501999999MD1210051+9999MW1021
0070029700999991957030806004+60117+019900FM-12+000399999V0201401N00411004501CN0120001N9-00221-00391102321ADDAY121999GF108991081051004501999999KA1999N-00281MD1110091+9999MW1021
0057029700999991957030900004+60117+019900FM-12+000399999V0202001N00621007801CN0070001N9-00221-00611102841ADDAY121999GF108991081051008001999999MD1210081+9999MW1021
0057029700999991957030912004+60117+019900FM-12+000399999V0202101N00721007801CN0080001N9-00221-00611103001ADDAY121999GF108991081051008001999999MD1310011+9999MW1021
0070029700999991957030918004+60117+019900FM-12+000399999V0202201N00821220001CN0150001N9-00111-00281102951ADDAY101999GF101991011051004501001011KA1999M-00111MD1710031+9999MW1021
0070029700999991957031006004+60117+019900FM-12+000399999V0202401N00511220001CN0100001N9-00281-00611102851ADDAY101999GF102991011051008001041011KA1999N-00281MD1710041+9999MW1031
0057029700999991957031012004+60117+019900FM-12+000399999V0202401N00511220001CN0150001N9+00221-00281102791ADDAY131999GF105991001001999999001011MD1010031+9999MW1021
0070029700999991957031018004+60117+019900FM-12+000399999V0202501N00311220001CN0150001N9+00001-00391102771ADDAY101999GF102991001001999999001011KA1999M+00281MD1010011+9999MW1011
0070029700999991957031206004+60117+019900FM-12+000399999V0203101N00101220001CN0100001N9+00001-00111101711ADDAY111999GF104991001001999999041011KA1999N-00221MD1710071+9999MW1021
0070029700999991957031218004+60117+019900FM-12+000399999V0202401N00101220001CN0150001N9+00111+00001101481ADDAY121999GF108991001001999999041071KA1999M+00611MD1710131+9999MW1031
0057029700999991957031300004+60117+019900FM-12+000399999V0202401N00101220001CN0150001N9+00111+00001101291ADDAY121999GF107991001001999999031999MD1710071+9999MW1021
0057029700999991957031312004+60117+019900FM-12+000399999V0202001N00051007801CN0015001N9+00111-00111100781ADDAY161999GF108991081051008001999999MD1710251+9999MW1101
0081029700999991957031318004+60117+019900FM-12+000399999V0209991C00001030001CN0015001N9+00001+00001100401ADDAA199005091AY121999GF107991021061000751011081KA1999M+00221MD1610131+9999MW1101
0081029700999991957031406004+60117+019900FM-12+000399999V0201201N00511000151CN0005001N9+00001+00001099651ADDAA199000691AY141999GF108991081061000251999999KA1999N-00111MD1710291+9999MW1501
0057029700999991957031412004+60117+019900FM-12+000399999V0201301N00511001501CN0005001N9+00001+00001098771ADDAY141999GF108991081091001501999999MD1710471+9999MW1501
0081029700999991957031418004+60117+019900FM-12+000399999V0203601N00721001501CN0020001N9-00221-00221098641ADDAA199001091AY171999GF108991081071001501999999KA1999M+00111MD1310161+9999MW1711
0057029700999991957031500004+60117+019900FM-12+000399999V0203501N01031004501CN0100001N9-00781-01001099401ADDAY171999GF108991061051004501999999MD1210401+9999MW1181
0057029700999991957031512004+60117+019900FM-12+000399999V0203601N00571004501CN0050001N9-00721-00891099791ADDAY171999GF108991081051004501999999MD1510011+9999MW1711
0057029700999991957031600004+60117+019900FM-12+000399999V0200201N00511004501CN0013001N9-01221-01391099861ADDAY171999GF108991081051004501999999MD1310081+9999MW1751
0081029700999991957031606004+60117+019900FM-12+000399999V0200201N006719999999N0050001N9-01221-01391100581ADDAA199000591AY121999GF108991081051999999999999KA1999N-01221MD1210391+9999MW1361
0070029700999991957031618004+60117+019900FM-12+000399999V0200101N00511220001CN0300001N9-01221-01501101711ADDAY101999GF101991011051004501001001KA1999M-01111MD1210201+9999MW1011
0057029700999991957031700004+60117+019900FM-12+000399999V0200301N00051220001CN0300001N9-01781-01891101991ADDAY101999GF100991001001999999001001MD1210111+9999MW1021
0057029700999991957031712004+60117+019900FM-12+000399999V0201801N00621007801CN0500001N9-00611-01221101581ADDAY121999GF107991071051008001999999MD1810201+9999MW1031
0081029700999991957031718004+60117+019900FM-12+000399999V0201601N00771004501CN0100001N9-00501-00721100921ADDAA199000591AY181999GF108991081051004501999999KA1999M-00501MD1710351+9999MW1261
0057029700999991957031812004+60117+019900FM-12+000399999V0200801N00721002401CN0025001N9-00781-00891099391ADDAY171999GF108991051071002501011999MD1310031+9999MW1711
0081029700999991957031818004+60117+019900FM-12+000399999V0200301N00511030001CN0100001N9-00891-01111099691ADDAA199002091AY121999GF108991031051004501011999KA1999M-00501MD1210281+9999MW1701
0057029700999991957031900004+60117+019900FM-12+000399999V0203601N00261220001CN0300001N9-01221-01281100241ADDAY121999GF100991001001999999001001MD1210271+9999MW1011
0081029700999991957031906004+60117+019900FM-12+000399999V0200201N00261220001CN0400001N9-01721-01781100791ADDAA199000691AY101999GF101991011051012501001001KA1999N-01781MD1210251+9999MW1021
0057029700999991957031912004+60117+019900FM-12+000399999V0200601N00461220001CN0500001N9-00611-01221101121ADDAY101999GF103991031051004501001011MD1210161+9999MW1031
0070029700999991957031918004+60117+019900FM-12+000399999V0203601N00211220001CN0400001N9-01281-01611101411ADDAY101999GF100991001001999999001001KA1999M-00501MD1210161+9999MW1021
0057029700999991957032000004+60117+019900FM-12+000399999V0200101N00151220001CN0300001N9-02001-02111101781ADDAY101999GF100991001001999999001001MD1210131+9999MW1021
0070029700999991957032006004+60117+019900FM-12+000399999V0209991C00001220001CN0300001N9-02111-02281101861ADDAY101999GF101991001001999999001011KA1999N-02281MD1410001+9999MW1021
0057029700999991957032100004+60117+019900FM-12+000399999V0201201N00621220001CN0030001N9-01281-01501101201ADDAY171999GF108991001001999999021999MD1710181+9999MW1711
0057029700999991957032112004+60117+019900FM-12+000399999V0201001N00511002401CN0040001N9-00501-00611099401ADDAY171999GF108991081061002501999999MD1610011+9999MW1711
0081029700999991957032118004+60117+019900FM-12+000399999V0200701N00361002401CN0014001N9-00721-00781099611ADDAA199003091AY171999GF108991081071002501999999KA1999M-00391MD1310171+9999MW1791
0081029700999991957032206004+60117+019900FM-12+000399999V0200601N00311007801CN0200001N9-00891-01001100551ADDAA199001091AY121999GF107991061051008001051999KA1999N-01281MD1210211+9999MW1031
0057029700999991957032212004+60117+019900FM-12+000399999V0200301N00261030001CN0040001N9-00721-00891100991ADDAY171999GF108991031071004501011999MD1210251+9999MW1711
0081029700999991957032218004+60117+019900FM-12+000399999V0200101N00101030001CN0150001N9-00891-01001101391ADDAA199000591AY171999GF108991011051004501011999KA1999M-00611MD1210241+9999MW1021
0057029700999991957032300004+60117+019900FM-12+000399999V0203601N00361220001CN0150001N9-00891-01001101861ADDAY101999GF104991001001999999011071MD1210251+9999MW1021
0089029700999991957032306004+60117+019900FM-12+000399999V0200101N00361220001CN0300001N9-01281-01391102451ADDAY101999GF100991001001999999001001KA1999N+99999MD1210321+9999MW1011EQDQ01 -00892ATMN  
0057029700999991957032312004+60117+019900FM-12+000399999V0203601N00571220001CN0500001N9-00501-00891103021ADDAY101999GF101991011011004501001001MD1210281+9999MW1021
0070029700999991957032318004+60117+019900FM-12+000399999V0203601N00101220001CN0400001N9-01111-01221103381ADDAY101999GF100991001001999999001001KA1999M-00391MD1210191+9999MW1021
0089029700999991957032406004+60117+019900FM-12+000399999V0209991C00001220001CN0300001N9-01111-01281103861ADDAY101999GF101991999001999999041001KA1999N-01281MD1110081+9999MW1021EQDQ01+000002SCOTLC
0057029700999991957032500004+60117+019900FM-12+000399999V0201801N00721220001CN0300001N9-00281-00501103511ADDAY101999GF100991001001999999001001MD1810131+9999MW1021
0057029700999991957032512004+60117+019900FM-12+000399999V0201801N00821004501CN0500001N9+00001-00281103051ADDAY121999GF107991051071004501999999MD1710131+9999MW1021
0070029700999991957032518004+60117+019900FM-12+000399999V0201801N00771220001CN0400001N9-00111-00281102781ADDAY121999GF106991001001999999011999KA1999M+00111MD1710131+9999MW1021
0081029700999991957032606004+60117+019900FM-12+000399999V0201801N00771004501CN0150001N9+00111-00111102081ADDAA199000691AY161999GF108991061051004501021999KA1999N-00111MD1710241+9999MW1211
0057029700999991957032612004+60117+019900FM-12+000399999V0201801N00721004501CN0200001N9+00111-00111102121ADDAY121999GF108991061051004501051999MD1610041+9999MW1021
0081029700999991957032618004+60117+019900FM-12+000399999V0201901N00721001501CN0050001N9+00111+00111102021ADDAA199000391AY121999GF108991081071001501999999KA1999M+00221MD1710031+9999MW1021
0057029700999991957032700004+60117+019900FM-12+000399999V0202101N00211000151CN0004001N9+00001+00001101991ADDAY141999GF109991091999000251999999MD1710031+9999MW1451
0081029700999991957032706004+60117+019900FM-12+000399999V0201801N00211000151CN0004001N9+00001+00001101921ADDAA199000691AY141999GF109991091999000251999999KA1999N+00001MD1710021+9999MW1451
0057029700999991957032712004+60117+019900FM-12+000399999V0201901N00261030001CN0200001N9+00281+00111101921ADDAY111999GF107991021051012501041999MD1710021+9999MW1051
0070029700999991957032718004+60117+019900FM-12+000399999V0201701N00311004501CN0080001N9+00111+00001101801ADDAY121999GF107991061051004501999999KA1999M+00391MD1610031+9999MW1021
0057029700999991957032800004+60117+019900FM-12+000399999V0201701N00151220001CN0100001N9+00111+00001101681ADDAY121999GF102991021051008001001001MD1710071+9999MW1031
0070029700999991957032806004+60117+019900FM-12+000399999V0209991C00001030001CN0050001N9+00001+00001101551ADDAY121999GF107991021051004501071999KA1999N-00111MD1710071+9999MW1021
0057029700999991957032900004+60117+019900FM-12+000399999V0203601N00411220001CN0020001N9+00001+00001102021ADDAY101999GF100991001001999999001001MD1310091+9999MW1101
0057029700999991957032912004+60117+019900FM-12+000399999V0200201N00211004501CN0100001N9+00221+00001102641ADDAY121999GF108991081051004501999999MD1210091+9999MW1021
0056029700999991957032918004+60117+019900FM-12+000399999V0203601N00311220001CN0300001N9+00001-00221102741ADDAY111999GF103991021051008001031001KA1999M+00281MW1021
0057029700999991957033012004+60117+019900FM-12+000399999V0202001N00461220001CN0500001N9+00281-00221102811ADDAY101999GF103991001001999999001011MD1710051+9999MW1021
0070029700999991957033018004+60117+019900FM-12+000399999V0202101N00051220001CN0400001N9+00001-00221102801ADDAY101999GF102991001001999999001011KA1999M+00391MD1310011+9999MW1021
0057029700999991957033100004+60117+019900FM-12+000399999V0209991C00001220001CN0100001N9-00281-00281102751ADDAY101999GF100991001001999999001001MD1710051+9999MW1021
0070029700999991957033106004+60117+019900FM-12+000399999V0201801N00311000151CN0003001N9-00221-00221102641ADDAY141999GF106991061061000251999999KA1999N-00391MD1710021+9999MW1441
0057029700999991957033112004+60117+019900FM-12+000399999V0201901N00261220001CN0100001N9+00221-00111102621ADDAY101999GF100991001001999999001001MD1710031+9999MW1011
0089029700999991957033118004+60117+019900FM-12+000399999V0201901N00101220001CN0300001N9+00111-00111102541ADDAY101999GF101991999001999999031001KA1999M+00391MD1610071+9999MW1021EQDQ01+000002SCOTLC
0057029700999991957040100004+60117+019900FM-12+000399999V0209991C00001220001CN0300001N9-00391-00501102521ADDAY101999GF100991001001999999001001MD1710041+9999MW1021
0070029700999991957040106004+60117+019900FM-12+000399999V0209991C00001220001CN0100001N9-00221-00281102561ADDAY101999GF100991001001999999001001KA1999N-00501MD1210041+9999MW1021
0089029700999991957040118004+60117+019900FM-12+000399999V0201901N00051220001CN0200001N9+00111+00001102511ADDAY101999GF101991999001999999041001KA1999M+01001MD1610041+9999MW1051EQDQ01+000002SCOTLC
0057029700999991957040200004+60117+019900FM-12+000399999V0209991C00001220001CN0100001N9-00281-00391102421ADDAY101999GF100991001001999999001001MD1710041+9999MW1021
0070029700999991957040206004+60117+019900FM-12+000399999V0200101N00261220001CN0100001N9+00001-00221102381ADDAY101999GF100991001001999999001001KA1999N-00391MD1310031+9999MW1021
0076029700999991957040212004+60117+019900FM-12+000399999V0203501N00411220001CN0300001N9+00721+00111102411ADDAY101999GF101991999001999999041001MD1610011+9999MW1021EQDQ01+000002SCOTLC
0070029700999991957040218004+60117+019900FM-12+000399999V0203401N00051220001CN0300001N9+00221+00001102391ADDAY101999GF101991001001999999001011KA1999M+00781MD1710031+9999MW1021
0070029700999991957040306004+60117+019900FM-12+000399999V0209991C00001220001CN0080001N9-00111-00221102461ADDAY101999GF100991001001999999001001KA1999N-00391MD1810011+9999MW1021
0057029700999991957040312004+60117+019900FM-12+000399999V0202101N00411220001CN0200001N9+00781+00221102461ADDAY101999GF100991001001999999001001MD1010041+9999MW1021
0089029700999991957040318004+60117+019900FM-12+000399999V0201901N00151220001CN0250001N9+00281+00001102351ADDAY101999GF101991999001999999041001KA1999M+00781MD1710071+9999MW1021EQDQ01+000002SCOTLC
0057029700999991957040400004+60117+019900FM-12+000399999V0203001N00211220001CN0200001N9+00501+00111102321ADDAY101999GF100991001001999999001001MD1410001+9999MW1021
0070029700999991957040406004+60117+019900FM-12+000399999V0209991C00001220001CN0250001N9+00001-00111102401ADDAY101999GF102991001001999999001011KA1999N-00281MD1210041+9999MW1021
0057029700999991957040412004+60117+019900FM-12+000399999V0202001N00411220001CN0400001N9+00721+00221102241ADDAY111999GF106991001001999999001061MD1610121+9999MW1031
0070029700999991957040418004+60117+019900FM-12+000399999V0202301N00211220001CN0350001N9+00611+00281102041ADDAY121999GF106991001001999999011061KA1999M+01221MD1710041+9999MW1011
0057029700999991957040500004+60117+019900FM-12+000399999V0202601N00411220001CN0300001N9+00721+00391101851ADDAY101999GF100991001001999999001001MD1710111+9999MW1021
0070029700999991957040506004+60117+019900FM-12+000399999V0202501N00311220001CN0200001N9+00501+00221101591ADDAY121999GF107991001001999999071999KA1999N+00501MD1710131+9999MW1021
0043029700999991957040512004+60117+019900FM-12+000399999V0202501N00671220001CN0100001N9+01001+00611101281ADDAY111999GF108991001001999999041071MW1051
0070029700999991957040518004+60117+019900FM-12+000399999V0202501N00511220001CN0080001N9+00721+00501100911ADDAY121999GF107991001001999999051041KA1999M+01111MD1710161+9999MW1031
0070029700999991957040606004+60117+019900FM-12+000399999V0203001N00461220001CN0300001N9+00501-00111100621ADDAY101999GF101991001001999999041081KA1999N+00221MD1710091+9999MW1021
0057029700999991957040612004+60117+019900FM-12+000399999V0203301N00931220001CN0500001N9+00781+00221100641ADDAY101999GF101991011011008001041011MD1310041+9999MW1021
0070029700999991957040618004+60117+019900FM-12+000399999V0203401N00571030001CN0500001N9+00281-00221100811ADDAY121999GF108991041051012501051999KA1999M+00781MD1310151+9999MW1031
0057029700999991957040700004+60117+019900FM-12+000399999V0203501N00571021001CN0300001N9+00221-00111101011ADDAY121999GF105991051001022501041999MD1210081+9999MW1021
0070029700999991957040706004+60117+019900FM-12+000399999V0203601N01031220001CN0500001N9+00111-00501101491ADDAY101999GF101991011051004501001001KA1999N+00001MD1210291+9999MW1011
0057029700999991957040712004+60117+019900FM-12+000399999V0200101N01031220001CN0600001N9+00221-00721101941ADDAY101999GF101991011011004501041011MD1210241+9999MW1181
0070029700999991957040718004+60117+019900FM-12+000399999V0203401N01441220001CN0500001N9-00111-00721102181ADDAY101999GF101991001001999999001011KA1999M+00281MD1110151+9999MW1021
0081029700999991957040806004+60117+019900FM-12+000399999V0202701N00621007801CN0200001N9+00391-00111100961ADDAA199000391AY121999GF108991061051008001071999KA1999N-00501MD1610391+9999MW1831
0057029700999991957040812004+60117+019900FM-12+000399999V0203601N01131220001CN0400001N9+00281-00221101141ADDAY121999GF104991031051004501031001MD1210211+9999MW1181
0070029700999991957040818004+60117+019900FM-12+000399999V0203601N00721012301CN0400001N9-00111-00281101411ADDAY121999GF105991051081012501001001KA1999M+00501MD1310121+9999MW1011
0057029700999991957040900004+60117+019900FM-12+000399999V0203601N00461007801CN0300001N9-00391-00391101691ADDAY121999GF105991051081008001041001MD1010081+9999MW1011
0081029700999991957040906004+60117+019900FM-12+000399999V0203501N00671220001CN0500001N9-00281-00891101481ADDAA199000691AY101999GF102991021021008001001001KA1999N-00721MD1710161+9999MW1031
0076029700999991957040912004+60117+019900FM-12+000399999V0203301N00931220001CN0500001N9-00111-00781101151ADDAY101999GF102991999011008001001001MD1610191+9999MW1181EQDQ01+000012SCOTLC
0070029700999991957040918004+60117+019900FM-12+000399999V0203401N00511220001CN0400001N9-00221-00721100881ADDAY101999GF102991001001999999041011KA1999M+00001MD1710091+9999MW1011
0057029700999991957041000004+60117+019900FM-12+000399999V0203301N00101220001CN0200001N9-00501-00721100541ADDAY101999GF101991001001999999001011MD1710111+9999MW1021
0070029700999991957041006004+60117+019900FM-12+000399999V0200901N00361220001CN0400001N9-00281-00501100181ADDAY111999GF106991001001999999041011KA1999N-00781MD1710151+9999MW1031
0057029700999991957041012004+60117+019900FM-12+000399999V0200801N00511220001CN0400001N9+00001-00891100061ADDAY111999GF104991011011008001011011MD1610041+9999MW1021
0070029700999991957041018004+60117+019900FM-12+000399999V0200401N00361220001CN0400001N9-00221-00781099991ADDAY111999GF104991011011008001011081KA1999M+00001MD1710051+9999MW1021
0057029700999991957041100004+60117+019900FM-12+000399999V0200401N00361220001CN0300001N9-00281-00611099811ADDAY111999GF105991001001999999011081MD1710091+9999MW1021
0070029700999991957041106004+60117+019900FM-12+000399999V0200301N00511220001CN0400001N9-00281-00781099761ADDAY121999GF107991001001999999041011KA1999N-00391MD1510031+9999MW1031
0057029700999991957041112004+60117+019900FM-12+000399999V0200101N00821030001CN0500001N9+00001-00781099771ADDAY121999GF107991011011008001041061MD1410001+9999MW1181
0081029700999991957041206004+60117+019900FM-12+000399999V0203601N00311004501CN0050001N9-00281-00501100371ADDAA199000591AY181999GF107991071091004501999999KA1999N-00391MD1210151+9999MW1861
0057029700999991957041212004+60117+019900FM-12+000399999V0203601N00621004501CN0080001N9-00221-00391100551ADDAY181999GF107991071031004501999999MD1210141+9999MW1861
0081029700999991957041218004+60117+019900FM-12+000399999V0203401N00571030001CN0100001N9-00391-00611100861ADDAA199000591AY181999GF107991031091004501051999KA1999M+00001MD1310151+9999MW1851
0057029700999991957041300004+60117+019900FM-12+000399999V0203301N00621004501CN0080001N9-00391-00611101011ADDAY181999GF108991081051004501999999MD1210031+9999MW1851
0081029700999991957041306004+60117+019900FM-12+000399999V0203201N00511004501CN0150001N9-00281-00391101041ADDAA199002091AY181999GF107991061091004501041999KA1999N-00501MD1410001+9999MW1261
0057029700999991957041312004+60117+019900FM-12+000399999V0203301N00621004501CN0200001N9-00221-00721101181ADDAY181999GF108991051091004501001071MD1110111+9999MW1261
0057029700999991957041318004+60117+019900FM-12+000399999V0203201N00311030001CN0150001N9-00501-00721101401ADDAY181999GF106991021051004501041011MD1210071+9999MW1261
0057029700999991957041400004+60117+019900FM-12+000399999V0203001N00361030001CN0200001N9-00501-00721101441ADDAY121999GF108991011051008001071999MD1410001+9999MW1031
0081029700999991957041406004+60117+019900FM-12+000399999V0202801N00361004501CN0200001N9-00501-00721101441ADDAA199002091AY121999GF106991051031004501021071KA1999N-00721MD1210011+9999MW1011
0057029700999991957041412004+60117+019900FM-12+000399999V0203301N00311004501CN0100001N9-00391-00501101591ADDAY181999GF107991061051004501999999MD1210071+9999MW1851
0081029700999991957041418004+60117+019900FM-12+000399999V0203501N00151030001CN0200001N9-00501-00611101791ADDAA199000591AY181999GF105991031081004501031011KA1999M-00221MD1110111+9999MW1261
0057029700999991957041500004+60117+019900FM-12+000399999V0203301N00151007801CN0100001N9-00781-00891101851ADDAY121999GF108991081051008001999999MD1210011+9999MW1021
0081029700999991957041506004+60117+019900FM-12+000399999V0203101N00311220001CN0080001N9-00391-00501101881ADDAA199001091AY181999GF104991021031004501041011KA1999N-01001MD1310031+9999MW1851
0057029700999991957041512004+60117+019900FM-12+000399999V0203401N00311030001CN0300001N9-00111-00721102021ADDAY181999GF105991041031004501041001MD1210091+9999MW1151
0081029700999991957041518004+60117+019900FM-12+000399999V0200201N00211220001CN0400001N9-00501-00781102151ADDAA199000391AY111999GF103991031041008001001001KA1999M+00001MD1210071+9999MW1011
0057029700999991957041600004+60117+019900FM-12+000399999V0209991C00001220001CN0020001N9-01391-01501102141ADDAY101999GF100991001001999999001001MD1710041+9999MW1401
0070029700999991957041606004+60117+019900FM-12+000399999V0209991C00001220001CN0300001N9-00891-01111102021ADDAY101999GF102991021051008001031001KA1999N-01721MD1710031+9999MW1021
0057029700999991957041612004+60117+019900FM-12+000399999V0202201N00411220001CN0400001N9-00111-00501101941ADDAY111999GF105991021011008001001081MD1610041+9999MW1031
0070029700999991957041618004+60117+019900FM-12+000399999V0201801N00211030001CN0400001N9-00221-00501101891ADDAY111999GF106991011011008001011081KA1999M+00111MD1610011+9999MW1021
0076029700999991957041700004+60117+019900FM-12+000399999V0201801N00051220001CN0300001N9-01111-01221101981ADDAY101999GF102991999001999999031001MD1210011+9999MW1011EQDQ01+000002SCOTLC
0070029700999991957041706004+60117+019900FM-12+000399999V0209991C00001220001CN0300001N9-00611-00721102161ADDAY101999GF100991001001999999001001KA1999N-01221MD1110131+9999MW1011
0057029700999991957041712004+60117+019900FM-12+000399999V0202101N00511220001CN0400001N9+00111-00281102321ADDAY101999GF100991001001999999001001MD1110091+9999MW1011
0057029700999991957041800004+60117+019900FM-12+000399999V0202001N00411220001CN0150001N9-00111-00281102511ADDAY101999GF101991011051008001001001MD1110031+9999MW1021
0070029700999991957041806004+60117+019900FM-12+000399999V0201801N00361220001CN0300001N9+00111-00111102641ADDAY111999GF102991021051002501001001KA1999N-00221MD1310131+9999MW1011
0057029700999991957041812004+60117+019900FM-12+000399999V0201101N00311021001CN0300001N9+00221-00221102251ADDAY121999GF108991081001022501031999MD1810081+9999MW1021
0070029700999991957041818004+60117+019900FM-12+000399999V0201301N00261220001CN0350001N9+00281-00281102341ADDAY111999GF105991001001999999031011KA1999M+00611MD1710121+9999MW1031
0057029700999991957041900004+60117+019900FM-12+000399999V0201201N00511021001CN0300001N9+00281-00111102081ADDAY121999GF108991081001022501031999MD1710171+9999MW1021
0070029700999991957041906004+60117+019900FM-12+000399999V0201001N00261030001CN0300001N9+00111-00221101761ADDAY121999GF108991021051008001071999KA1999N+00111MD1710171+9999MW1031
0057029700999991957041912004+60117+019900FM-12+000399999V0201801N00361030001CN0250001N9+00391+00111101581ADDAY121999GF106991041021004501031001MD1710091+9999MW1031
0070029700999991957041918004+60117+019900FM-12+000399999V0201701N00311030001CN0200001N9+00111+00001101521ADDAY121999GF107991021051004501071999KA1999M+00501MD1410001+9999MW1031
0057029700999991957042000004+60117+019900FM-12+000399999V0201201N00051000601CN0008001N9-00111-00111101571ADDAY141999GF109991091061000751999999MD1410001+9999MW1431
0070029700999991957042006004+60117+019900FM-12+000399999V0209991C00001030001CN0100001N9+00001+00001101681ADDAY121999GF108991011061002501031999KA1999N-00221MD1210121+9999MW1021
0057029700999991957042012004+60117+019900FM-12+000399999V0201801N00211030001CN0300001N9+00611+00001102021ADDAY111999GF107991041081004501031011MD1310201+9999MW1031
0057029700999991957042112004+60117+019900FM-12+000399999V0200701N00311001501CN0100001N9+00281+00111103241ADDAY121999GF108991081061001501999999MD1210081+9999MW1021
0070029700999991957042118004+60117+019900FM-12+000399999V0201201N00211004501CN0100001N9+00221+00111103321ADDAY121999GF107991061051004501041001KA1999M+00501MD1210041+9999MW1021
0057029700999991957042200004+60117+019900FM-12+000399999V0201201N00101000601CN0008001N9+00111+00111103491ADDAY141999GF109991091061000751999999MD1310091+9999MW1471
0070029700999991957042206004+60117+019900FM-12+000399999V0201501N00361000601CN0025001N9+00111+00111103651ADDAY141999GF108991081061000751999999KA1999N+00001MD1210121+9999MW1101
0057029700999991957042212004+60117+019900FM-12+000399999V0201901N00311220001CN0300001N9+00611+00111103801ADDAY121999GF102991011031008001999999MD1110031+9999MW1011
0070029700999991957042218004+60117+019900FM-12+000399999V0201201N00101220001CN0200001N9+00221+00001103851ADDAY101999GF100991001001999999001001KA1999M+00721MD1210031+9999MW1021
0070029700999991957042306004+60117+019900FM-12+000399999V0200601N00511220001CN0200001N9+00391+00001103921ADDAY101999GF106991001001999999001011KA1999N-00281MD1010031+9999MW1031
0070029700999991957042318004+60117+019900FM-12+000399999V0200101N00361220001CN0200001N9+00501-00221103681ADDAY121999GF108991001001999999011071KA1999M+00781MD1610081+9999MW1031
0057029700999991957042400004+60117+019900FM-12+000399999V0200201N00211007801CN0150001N9+00281+00001103381ADDAY121999GF108991081051008001999999MD1710151+9999MW1031
0081029700999991957042406004+60117+019900FM-12+000399999V0200201N00261004501CN0050001N9+00221+00221103361ADDAA199005091AY161999GF108991081071004501999999KA1999N-00111MD1810021+9999MW1681
0081029700999991957042418004+60117+019900FM-12+000399999V0203401N00411000601CN0100001N9+00221+00221103121ADDAA199003091AY121999GF108991081071000751999999KA1999M+00281MD1710051+9999MW1021
0057029700999991957042500004+60117+019900FM-12+000399999V0203601N00311000601CN0100001N9+00221+00221103081ADDAY121999GF108991081071000751999999MD1710041+9999MW1021
0081029700999991957042506004+60117+019900FM-12+000399999V0203501N00511007801CN0200001N9+00281+00221103091ADDAA199000691AY121999GF108991081051008001999999KA1999N+00221MD1810031+9999MW1011
0057029700999991957042512004+60117+019900FM-12+000399999V0203501N00571220001CN0300001N9+00781+00221103151ADDAY101999GF102991011011008001031001MD1310031+9999MW1011
0070029700999991957042518004+60117+019900FM-12+000399999V0200201N00461220001CN0400001N9+00501+00111103141ADDAY101999GF100991001001999999001001KA1999M+00781MD1410001+9999MW1021
0057029700999991957042600004+60117+019900FM-12+000399999V0200201N00311220001CN0200001N9+00111+00111103101ADDAY101999GF100991001001999999001001MD1410001+9999MW1021
0070029700999991957042606004+60117+019900FM-12+000399999V0200301N00461220001CN0400001N9+00721+00001103201ADDAY101999GF100991001001999999001001KA1999N+00111MD1110031+9999MW1021
0076029700999991957042612004+60117+019900FM-12+000399999V0200201N00411220001CN0400001N9+01221+00001103171ADDAY101999GF101991999001999999041001MD1710041+9999MW1021EQDQ01+000002SCOTLC
0070029700999991957042618004+60117+019900FM-12+000399999V0200101N00671220001CN0400001N9+00611+00001102981ADDAY101999GF101991001001999999031011KA1999M+01221MD1610081+9999MW1021
0057029700999991957042700004+60117+019900FM-12+000399999V0203601N00151220001CN0300001N9+00001-00111102821ADDAY101999GF100991001001999999001001MD1710131+9999MW1021
0081029700999991957042706004+60117+019900FM-12+000399999V0200101N00211030001CN0150001N9+00501+00221102561ADDAA199000691AY121999GF108991041051008001021999KA1999N-00111MD1710081+9999MW1601
0057029700999991957042712004+60117+019900FM-12+000399999V0200201N00211007801CN0150001N9+00781+00221102341ADDAY161999GF108991061051008001021999MD1710151+9999MW1611
0081029700999991957042718004+60117+019900FM-12+000399999V0203201N00211007801CN0250001N9+00721+00391102051ADDAA199000691AY121999GF107991071051008001999999KA1999M+01001MD1610161+9999MW1011
0057029700999991957042800004+60117+019900FM-12+000399999V0203601N00211220001CN0200001N9-00111-00221101881ADDAY101999GF100991001001999999001001MD1710051+9999MW1021
0070029700999991957042806004+60117+019900FM-12+000399999V0209991C00001220001CN0700001N9+00611+00221101721ADDAY101999GF101991001001999999031011KA1999N-00281MD1710131+9999MW1001
0057029700999991957042812004+60117+019900FM-12+000399999V0202001N00411220001CN0500001N9+01221+00391101571ADDAY101999GF102991001001999999001011MD1710111+9999MW1021
0070029700999991957042818004+60117+019900FM-12+000399999V0202101N00151220001CN0400001N9+00721+00391101261ADDAY121999GF107991001001999999021061KA1999M+01281MD1710171+9999MW1021
0057029700999991957042900004+60117+019900FM-12+000399999V0202001N00051220001CN0300001N9+00111+00111101181ADDAY111999GF100991001001999999001001MD1710051+9999MW1021
0070029700999991957042906004+60117+019900FM-12+000399999V0209991C00001220001CN0300001N9+00721+00281101081ADDAY111999GF104991011051008001031001KA1999N-00111MD1710061+9999MW1011
0057029700999991957042912004+60117+019900FM-12+000399999V0201901N00461220001CN0500001N9+01111+00111100991ADDAY111999GF105991001001999999001061MD1710071+9999MW1031
0070029700999991957042918004+60117+019900FM-12+000399999V0201801N00311220001CN0200001N9+00611+00221100691ADDAY101999GF102991001001999999041011KA1999M+01281MD1710191+9999MW1011
0057029700999991957043000004+60117+019900FM-12+000399999V0202401N00151220001CN0070001N9+00391+00391100441ADDAY111999GF105991001001999999031999MD1710171+9999MW1031
0081029700999991957043006004+60117+019900FM-12+000399999V0203601N00151001501CN0100001N9+00501+00501100401ADDAA199004091AY121999GF107991071071001501999999KA1999N+00281MD1310031+9999MW1021
0057029700999991957043012004+60117+019900FM-12+000399999V0203101N00051004501CN0200001N9+00611+00281100521ADDAY121999GF107991071051004501999999MD1310041+9999MW1021
0070029700999991957043018004+60117+019900FM-12+000399999V0200101N00511002401CN0150001N9+00281+00221100401ADDAY121999GF108991081061002501999999KA1999M+00721MD1810091+9999MW1021
0057029700999991957050112004+60117+019900FM-12+000399999V0202301N00871220001CN0500001N9+00391-00221101261ADDAY101999GF101991011011004501001001MD1210281+9999MW1181
0070029700999991957050118004+60117+019900FM-12+000399999V0202701N00771220001CN0600001N9+00501-00611101511ADDAY101999GF101991011041008001001001KA1999M+00611MD1210051+9999MW1021
0070029700999991957050206004+60117+019900FM-12+000399999V0202101N00511220001CN0500001N9+00391-00221101341ADDAY101999GF102991001001999999041051KA1999N-00221MD1810091+9999MW1031
0057029700999991957050212004+60117+019900FM-12+000399999V0201901N00721030001CN0300001N9+00281+00221101141ADDAY121999GF107991011071001501071999MD1710131+9999MW1031
0081029700999991957050218004+60117+019900FM-12+000399999V0202201N00261030001CN0200001N9+00391+00221101011ADDAA199000691AY121999GF107991041051008001041999KA1999M+00611MD1710111+9999MW1021
0057029700999991957050312004+60117+019900FM-12+000399999V0201601N00621001501CN0250001N9+00501+00391100411ADDAY121999GF108991051071001501021999MD1710211+9999MW1021
0081029700999991957050318004+60117+019900FM-12+000399999V0201501N00671030001CN0200001N9+00391+00281099861ADDAA199000391AY161999GF107991021071004501041081KA1999M+00891MD1710211+9999MW1011
0057029700999991957050412004+60117+019900FM-12+000399999V0201501N00511000601CN0010001N9+00391+00391099001ADDAY161999GF108991081071000751999999MD1210011+9999MW1611
0081029700999991957050418004+60117+019900FM-12+000399999V0201101N00211000601CN0025001N9+00391+00281098991ADDAA199002091AY151999GF108991081061000751999999KA1999M+00391MD1610031+9999MW1591
0043029700999991957050500004+60117+019900FM-12+000399999V0203401N00361000601CN0060001N9+00221+00221099011ADDAY121999GF108991081061000751999999MW1021
0081029700999991957050506004+60117+019900FM-12+000399999V0203301N00511000601CN0020001N9+00111+00111099121ADDAA199001091AY161999GF108991081061000751999999KA1999N+00111MD1210091+9999MW1581
0057029700999991957050512004+60117+019900FM-12+000399999V0203301N00621001501CN0150001N9+00221+00221099621ADDAY171999GF108991081061001501999999MD1210281+9999MW1211
0081029700999991957050518004+60117+019900FM-12+000399999V0203101N00511001501CN0030001N9+00111+00001099951ADDAA199001091AY121999GF108991081061001501999999KA1999M+00221MD1210111+9999MW1511
0057029700999991957050600004+60117+019900FM-12+000399999V0203301N00721004501CN0150001N9+00111-00111100211ADDAY171999GF108991081051004501999999MD1210111+9999MW1011
0100029700999991957050606004+60117+019900FM-12+000399999V0203201N00461001501CN0035001N9+00111+00111100441ADDAA199001091AY171999GF108991999051001501011999KA1999N+00001MD1210111+9999MW1711EQDQ01+000082SCOTLC
0057029700999991957050612004+60117+019900FM-12+000399999V0203101N00311030001CN0150001N9+00221-00221100851ADDAY181999GF107991021091001501011999MD1210231+9999MW1851
0081029700999991957050618004+60117+019900FM-12+000399999V0202301N00211030001CN0300001N9+00221+00001101201ADDAA199001091AY121999GF106991011041004501041999KA1999M+00281MD1210131+9999MW1011
0070029700999991957050706004+60117+019900FM-12+000399999V0200601N00311030001CN0200001N9+00281+00221101601ADDAY121999GF106991021051004501031011KA1999N-00221MD1110071+9999MW1031
0057029700999991957050712004+60117+019900FM-12+000399999V0200301N00411030001CN0400001N9+00501-00221101571ADDAY121999GF108991041051002501011071MD1710031+9999MW1031
0081029700999991957050718004+60117+019900FM-12+000399999V0200101N00621001501CN0100001N9+00221+00221101411ADDAA199000591AY161999GF108991081071001501999999KA1999M+00611MD1710071+9999MW1611
0057029700999991957050800004+60117+019900FM-12+000399999V0200201N005119999999N0150001N9+00281+00221101261ADDAY111999GF108991081051999999999999MD1710071+9999MW1021
0081029700999991957050806004+60117+019900FM-12+000399999V0203601N00411000601CN0150001N9+00281+00281101051ADDAA199002091AY121999GF108991081071000751999999KA1999N+00111MD1710131+9999MW1021
0057029700999991957050812004+60117+019900FM-12+000399999V0203601N00511220001CN0300001N9+00891+00501100851ADDAY111999GF106991001001999999011011MD1810161+9999MW1031
0081029700999991957050906004+60117+019900FM-12+000399999V0202401N00511000601CN0025001N9+00281+00281100621ADDAA199009091AY141999GF108991081061000751999999KA1999N+00221MD1210351+9999MW1101
0057029700999991957050912004+60117+019900FM-12+000399999V0201801N00511000151CN0009001N9+00391+00391101241ADDAY121999GF109991091061000251999999MD1210271+9999MW1471
0057029700999991957051000004+60117+019900FM-12+000399999V0200601N00101030001CN0013001N9+00001+00001102041ADDAY141999GF107991031061000751031999MD1210091+9999MW1281
0070029700999991957051006004+60117+019900FM-12+000399999V0203601N00571000601CN0050001N9+00391+00391102061ADDAY141999GF106991061061000751999999KA1999N+00001MD1810011+9999MW1281
0057029700999991957051012004+60117+019900FM-12+000399999V0200301N00621220001CN0400001N9+01221+00721101851ADDAY101999GF102991001001999999001011MD1710131+9999MW1031
0070029700999991957051018004+60117+019900FM-12+000399999V0200401N00311030001CN0300001N9+01001+00611101591ADDAY121999GF107991021071012501071999KA1999M+01281MD1610091+9999MW1031
0057029700999991957051100004+60117+019900FM-12+000399999V0200901N00511004501CN0150001N9+01001+00891101441ADDAY121999GF108991061061004501071999MD1710091+9999MW1201
0081029700999991957051106004+60117+019900FM-12+000399999V0201201N00511030001CN0300001N9+00781+00611101481ADDAA199000691AY121999GF107991041051008001071999KA1999N+00721MD1210051+9999MW1021
0057029700999991957051112004+60117+019900FM-12+000399999V0201401N00621075001CN0200001N9+01281+00781101601ADDAY111999GF105991011011008001041011MD1310041+9999MW1051
0070029700999991957051118004+60117+019900FM-12+000399999V0201001N00411030001CN0200001N9+01111+00611101581ADDAY121999GF106991021051012501041001KA1999M+01611MD1410001+9999MW1011
0057029700999991957051200004+60117+019900FM-12+000399999V0201201N00211030001CN0100001N9+00781+00721101481ADDAY121999GF108991041051008001071999MD1710071+9999MW1021
0081029700999991957051206004+60117+019900FM-12+000399999V0201801N00511000601CN0006001N9+00501+00501101481ADDAA199000391AY121999GF109991091061000751999999KA1999N+00391MD1610011+9999MW1451
0057029700999991957051212004+60117+019900FM-12+000399999V0201901N00511000601CN0025001N9+00611+00501101581ADDAY121999GF108991081061000751999999MD1210051+9999MW1101
0070029700999991957051218004+60117+019900FM-12+000399999V0202101N00361000601CN0040001N9+00391+00391101681ADDAY121999GF108991081061000751999999KA1999M+00611MD1210041+9999MW1021
0057029700999991957051300004+60117+019900FM-12+000399999V0201801N00311000601CN0040001N9+00391+00391101781ADDAY121999GF108991081061000751999999MD1210041+9999MW1021
0070029700999991957051306004+60117+019900FM-12+000399999V0201801N00211220001CN0150001N9+00781+00501101841ADDAY121999GF102991021051012501001001KA1999N+00391MD1210051+9999MW1011
0070029700999991957051318004+60117+019900FM-12+000399999V0201401N00261220001CN0300001N9+00781+00501101691ADDAY101999GF102991001001999999041011KA1999M+01221MD1710151+9999MW1011
0070029700999991957051406004+60117+019900FM-12+000399999V0201501N00211030001CN0300001N9+01111+00611101401ADDAY121999GF106991021081008001081081KA1999N+00221MD1710071+9999MW1031
0057029700999991957051412004+60117+019900FM-12+000399999V0201701N00211012301CN0150001N9+01001+00781101411ADDAY161999GF106991061051012501071999MD1210011+9999MW1211
0070029700999991957051418004+60117+019900FM-12+000399999V0202101N00311220001CN0200001N9+00781+00611101291ADDAY101999GF104991011031008001071999KA1999M+01281MD1710091+9999MW1031
0070029700999991957051506004+60117+019900FM-12+000399999V0202601N00511220001CN0100001N9+00891+00721101241ADDAY101999GF101991011061004501001011KA1999N+00391MD1210031+9999MW1011
0057029700999991957051512004+60117+019900FM-12+000399999V0203301N00621220001CN0300001N9+01391+00611101441ADDAY101999GF101991011011008001001001MD1210121+9999MW1021
0070029700999991957051518004+60117+019900FM-12+000399999V0202001N00211220001CN0300001N9+01221+00721101611ADDAY101999GF101991011011008001001011KA1999M+01721MD1210081+9999MW1021
0057029700999991957051600004+60117+019900FM-12+000399999V0209991C00001220001CN0040001N9+01391+00391101721ADDAY121999GF107991001001999999071999MD1210071+9999MW1031
0070029700999991957051606004+60117+019900FM-12+000399999V0202401N00311030001CN0250001N9+01281+00891101851ADDAY121999GF106991011011008001041081KA1999N+00611MD1510091+9999MW1011
0057029700999991957051612004+60117+019900FM-12+000399999V0201601N00621220001CN0200001N9+01501+00781101911ADDAY101999GF102991001001999999001011MD1010031+9999MW1051
0070029700999991957051618004+60117+019900FM-12+000399999V0201901N00511220001CN0350001N9+01111+00721101841ADDAY101999GF101991001001999999001011KA1999M+01721MD1710081+9999MW1011
0070029700999991957051706004+60117+019900FM-12+000399999V0202001N00721220001CN0400001N9+01111+00611101521ADDAY101999GF101991001001999999001011KA1999N+00781MD1610111+9999MW1021
0057029700999991957051712004+60117+019900FM-12+000399999V0201801N00621075001CN0400001N9+01221+00781101321ADDAY111999GF105991021011012501041011MD1710031+9999MW1031
0081029700999991957051718004+60117+019900FM-12+000399999V0202101N00311030001CN0080001N9+00891+00781101291ADDAA199001091AY141999GF108991011061008001071071KA1999M+01221MD1510011+9999MW1281
0057029700999991957051800004+60117+019900FM-12+000399999V0202101N00311220001CN0100001N9+00721+00721101361ADDAY111999GF102991011051008001041001MD1210031+9999MW1011
0070029700999991957051806004+60117+019900FM-12+000399999V0201801N00311220001CN0300001N9+01111+00721101391ADDAY101999GF103991001001999999031011KA1999N+00111MD1110031+9999MW1031
0057029700999991957051812004+60117+019900FM-12+000399999V0202001N00671007801CN0400001N9+01111+00611101361ADDAY121999GF107991051051008001041999MD1710021+9999MW1031
0070029700999991957051818004+60117+019900FM-12+000399999V0202201N00361220001CN0300001N9+01001+00611101401ADDAY101999GF101991011071022501999999KA1999M+01281MD1210041+9999MW1021
0057029700999991957051900004+60117+019900FM-12+000399999V0201901N00101220001CN0200001N9+00221+00221101571ADDAY101999GF100991001001999999001001MD1310081+9999MW1121
0070029700999991957051906004+60117+019900FM-12+000399999V0201801N00051220001CN0150001N9+01111+00611101661ADDAY101999GF100991001001999999001001KA1999N+00111MD1110041+9999MW1021
0070029700999991957051918004+60117+019900FM-12+000399999V0201501N00211220001CN0200001N9+01281+00721101551ADDAY101999GF101991001001999999041041KA1999M+01611MD1710151+9999MW1051
0070029700999991957052006004+60117+019900FM-12+000399999V0202001N00211220001CN0200001N9+01281+00721101091ADDAY101999GF104991011011012501031011KA1999N+00501MD1710171+9999MW1031
0081029700999991957052018004+60117+019900FM-12+000399999V0202101N00411000601CN0015001N9+01001+00781100911ADDAA199000391AY121999GF108991061061000751031999KA1999M+01721MD1510071+9999MW1401
0070029700999991957052106004+60117+019900FM-12+000399999V0209991C00001030001CN0200001N9+01221+00891101021ADDAY121999GF107991031051008001041021KA1999N+00721MD1210081+9999MW1031
0070029700999991957052118004+60117+019900FM-12+000399999V0200201N00411220001CN0400001N9+01001-00111101481ADDAY101999GF101991011011012501031001KA1999M+01611MD1210131+9999MW1031
0089029700999991957052206004+60117+019900FM-12+000399999V0203601N00571220001CN0500001N9+01001+00281101911ADDAY111999GF105991999001999999041001KA1999N+00281MD1210131+9999MW1031EQDQ01+000002SCOTLC
0076029700999991957052212004+60117+019900FM-12+000399999V0203601N00821220001CN0500001N9+01281+00281102211ADDAY101999GF101991999001999999031001MD1210131+9999MW1011EQDQ01+000002SCOTLC
0089029700999991957052218004+60117+019900FM-12+000399999V0200201N00671220001CN0500001N9+01111+00001102321ADDAY101999GF101991999001999999041001KA1999M+01391MD1310081+9999MW1021EQDQ01+000002SCOTLC
0057029700999991957052300004+60117+019900FM-12+000399999V0203601N00311220001CN0500001N9+00721+00111102511ADDAY101999GF100991001001999999001001MD1310091+9999MW1021
0070029700999991957052306004+60117+019900FM-12+000399999V0200201N00621220001CN0500001N9+01001-00111102561ADDAY101999GF100991001001999999001001KA1999N+00611MD1210041+9999MW1021
0057029700999991957052312004+60117+019900FM-12+000399999V0203601N00821220001CN0600001N9+01001-00111102611ADDAY101999GF100991001001999999001001MD1310031+9999MW1021
0070029700999991957052318004+60117+019900FM-12+000399999V0200201N00821220001CN0500001N9+00781-00391102541ADDAY101999GF101991001001999999001011KA1999M+01281MD1510031+9999MW1181
0070029700999991957052406004+60117+019900FM-12+000399999V0200301N00671220001CN0500001N9+00781-00391103061ADDAY101999GF101991011011004501001001KA1999N+00391MD1210081+9999MW1021
0057029700999991957052412004+60117+019900FM-12+000399999V0200101N00721220001CN0500001N9+00891-00501103171ADDAY101999GF101991011011008001001001MD1810011+9999MW1021
0070029700999991957052418004+60117+019900FM-12+000399999V0203601N00671220001CN0500001N9+00501-00221103121ADDAY101999GF100991001001999999001001KA1999M+01001MD1510051+9999MW1021
0070029700999991957052506004+60117+019900FM-12+000399999V0200201N00621012301CN0400001N9+00501-00391103411ADDAY121999GF107991071051012501001001KA1999N+00001MD1310091+9999MW1021
0057029700999991957052512004+60117+019900FM-12+000399999V0203401N00721030001CN0500001N9+00891-00281103411ADDAY111999GF106991041081008001031001MD1710071+9999MW1031
0070029700999991957052518004+60117+019900FM-12+000399999V0203601N00311220001CN0500001N9+00611-00111103281ADDAY101999GF101991011041012501001001KA1999M+01001MD1510031+9999MW1021
0076029700999991957052600004+60117+019900FM-12+000399999V0203601N00211220001CN0200001N9+00001-00111103341ADDAY101999GF101991999001999999041001MD1210011+9999MW1021EQDQ01+000002SCOTLC
0070029700999991957052606004+60117+019900FM-12+000399999V0200101N00571220001CN0500001N9+00721-00111103311ADDAY101999GF104991041051008001031001KA1999N-00221MD1210031+9999MW1031
0057029700999991957052612004+60117+019900FM-12+000399999V0200601N00511007801CN0500001N9+00781-00221103351ADDAY121999GF107991071051008001999999MD1210011+9999MW1021
0070029700999991957052618004+60117+019900FM-12+000399999V0200301N00311220001CN0500001N9+00721-00281103291ADDAY101999GF102991021041008001001001KA1999M+00891MD1610031+9999MW1011
0057029700999991957052700004+60117+019900FM-12+000399999V0203601N00261021001CN0400001N9+00281+00001103351ADDAY121999GF107991071001022501031999MD1710011+9999MW1021
0089029700999991957052706004+60117+019900FM-12+000399999V0203601N00261220001CN0500001N9+00781-00221103211ADDAY101999GF101991999001999999031001KA1999N-00111MD1810091+9999MW1021EQDQ01+000002SCOTLC
0057029700999991957052712004+60117+019900FM-12+000399999V0200801N00211007801CN0500001N9+00891-00221103021ADDAY121999GF106991061051008001001001MD1810131+9999MW1021
0070029700999991957052718004+60117+019900FM-12+000399999V0201901N00511220001CN0500001N9+00721+00111102791ADDAY101999GF101991011041008001001001KA1999M+01111MD1710151+9999MW1011
0076029700999991957052800004+60117+019900FM-12+000399999V0201801N00311220001CN0300001N9+00501+00281102691ADDAY101999GF101991999001999999031001MD1710041+9999MW1021EQDQ01+000002SCOTLC
0070029700999991957052806004+60117+019900FM-12+000399999V0201701N00571220001CN0500001N9+00721+00111102391ADDAY111999GF105991001001999999041051KA1999N-00111MD1810121+9999MW1031
0057029700999991957052812004+60117+019900FM-12+000399999V0201701N00621030001CN0500001N9+00891+00111102281ADDAY111999GF106991011051012501051051MD1810071+9999MW1021
0089029700999991957052818004+60117+019900FM-12+000399999V0201201N00571012301CN0400001N9+00611+00111102081ADDAY121999GF108991999051012501071999KA1999M+01001MD1710081+9999MW1031EQDQ01+000082SCOTLC
0057029700999991957052900004+60117+019900FM-12+000399999V0200901N00211021001CN0300001N9+00501+00111102061ADDAY121999GF108991081001022501071999MD1810021+9999MW1021
0070029700999991957052906004+60117+019900FM-12+000399999V0200901N00411220001CN0500001N9+00781+00221102081ADDAY121999GF107991001001999999041081KA1999N+00391MD1510031+9999MW1011
0057029700999991957052912004+60117+019900FM-12+000399999V0201901N00461030001CN0500001N9+01001+00221102051ADDAY121999GF106991011021008001041011MD1710041+9999MW1021
0070029700999991957052918004+60117+019900FM-12+000399999V0202301N00411220001CN0400001N9+00781+00111101921ADDAY111999GF106991001001999999001051KA1999M+01111MD1610081+9999MW1031
0081029700999991957053006004+60117+019900FM-12+000399999V0202501N00311030001CN0400001N9+01001+00611101521ADDAA199000391AY121999GF107991021051012501091021KA1999N+00391MD1710131+9999MW1011
0057029700999991957053012004+60117+019900FM-12+000399999V0203401N00571021001CN0400001N9+01221+00281101591ADDAY121999GF107991051051022501071011MD1110041+9999MW1021
0081029700999991957053018004+60117+019900FM-12+000399999V0202901N00311030001CN0400001N9+00891+00721101451ADDAA199001091AY161999GF108991011071008001011001KA1999M+01281MD1610051+9999MW1601
0081029700999991957053106004+60117+019900FM-12+000399999V0202301N00211030001CN0300001N9+01221+00721101051ADDAA199000391AY161999GF108991021051008001071999KA1999N+00281MD1610081+9999MW1601
0070029700999991957053118004+60117+019900FM-12+000399999V0202201N00461220001CN0400001N9+01111+00611100491ADDAY121999GF108991001001999999011081KA1999M+01501MD1710171+9999MW1031
0081029700999991957060106004+60117+019900FM-12+000399999V0202801N00461030001CN0250001N9+01111+00781100011ADDAA199000691AY121999GF108991041051004501071999KA1999N+00891MD1610071+9999MW1021
0057029700999991957060112004+60117+019900FM-12+000399999V0203001N00461220001CN0500001N9+01281+00611100311ADDAY111999GF103991031041012501041001MD1210161+9999MW1011
0081029700999991957060118004+60117+019900FM-12+000399999V0202301N00311030001CN0200001N9+00891+00611100461ADDAA199001091AY181999GF106991041091008001041001KA1999M+01391MD1010161+9999MW1251
0057029700999991957060200004+60117+019900FM-12+000399999V0203301N00311220001CN0200001N9+00501+00221100711ADDAY101999GF100991001001999999001001MD1210161+9999MW1021
0070029700999991957060206004+60117+019900FM-12+000399999V0203401N00721220001CN0600001N9+00891+00281101041ADDAY101999GF100991001001999999001001KA1999N+00221MD1210121+9999MW1021
0057029700999991957060212004+60117+019900FM-12+000399999V0203301N00511220001CN0600001N9+01281+00111101281ADDAY101999GF100991001001999999001001MD1110121+9999MW1011
0070029700999991957060218004+60117+019900FM-12+000399999V0201201N00311220001CN0500001N9+01001+00391101201ADDAY101999GF104991011011017501051011KA1999M+01501MD1810041+9999MW1031
0057029700999991957060300004+60117+019900FM-12+000399999V0201801N00571220001CN0200001N9+00781+00721100981ADDAY111999GF103991011051017501041011MD1710121+9999MW1011
0057029700999991957060306004+60117+019900FM-12+000399999V0202701N00621220001CN0500001N9+01391+00721100821ADDAY101999GF101991001001999999031011MD1510031+9999MW1021
0057029700999991957060312004+60117+019900FM-12+000399999V0203601N00411030001CN0500001N9+00891+00611101021ADDAY111999GF105991011011008001031001MD1010061+9999MW1031
0070029700999991957060318004+60117+019900FM-12+000399999V0201201N00211030001CN0500001N9+01391+00611100921ADDAY121999GF106991031081012501041001KA1999M+01391MD1710111+9999MW1011
0070029700999991957060406004+60117+019900FM-12+000399999V0200601N00261030001CN0300001N9+01501+00611100811ADDAY121999GF108991041051008001071001KA1999N+00891MD1710051+9999MW1021
0057029700999991957060412004+60117+019900FM-12+000399999V0203601N00261030001CN0050001N9+00721+00611100891ADDAY161999GF108991021071004501021001MD1210041+9999MW1631
0081029700999991957060418004+60117+019900FM-12+000399999V0200101N00411030001CN0300001N9+00891+00611100811ADDAA199008091AY161999GF107991041051012501071999KA1999M+01611MD1610051+9999MW1011
0081029700999991957060506004+60117+019900FM-12+000399999V0201001N00151030001CN0500001N9+01111+00501100521ADDAA199000691AY121999GF106991021051012501041001KA1999N+00611MD1710161+9999MW1021
0081029700999991957060518004+60117+019900FM-12+000399999V0201201N00411001501CN0080001N9+00891+00891099941ADDAA199002091AY161999GF108991081071001501999999KA1999M+01391MD1710201+9999MW1601
0057029700999991957060600004+60117+019900FM-12+000399999V0201601N00411000601CN0009001N9+00781+00781099661ADDAY161999GF108991081071000751999999MD1710051+9999MW1461
0081029700999991957060606004+60117+019900FM-12+000399999V0201901N00511000601CN0030001N9+00781+00781099551ADDAA199003091AY141999GF108991081061000751999999KA1999N+00721MD1610031+9999MW1101
0057029700999991957060612004+60117+019900FM-12+000399999V0201501N00211001501CN0045001N9+01001+00891099661ADDAY141999GF107991071061001501051999MD1110041+9999MW1601
0068029700999991957060618004+60117+019900FM-12+000399999V0202201N00261004501CN0400001N9+00891+00721099681ADDAA199001091AY121999GF106991061021004501001001MD1710021+9999MW1021
0057029700999991957060700004+60117+019900FM-12+000399999V0202301N00311220001CN0300001N9+00781+00611099661ADDAY111999GF101991011051008001001001MD1410001+9999MW1011
0081029700999991957060706004+60117+019900FM-12+000399999V0201801N00461002401CN0100001N9+00781+00721099681ADDAA199000391AY181999GF108991071031002501071999KA1999N+00281MD1510051+9999MW1811
0057029700999991957060712004+60117+019900FM-12+000399999V0202001N00571004501CN0200001N9+00891+00721099741ADDAY121999GF107991061031004501041999MD1210061+9999MW1801
0081029700999991957060718004+60117+019900FM-12+000399999V0201601N00361007801CN0400001N9+00781+00611099721ADDAA199006091AY181999GF107991051031008001041999KA1999M+01111MD1410001+9999MW1251
0057029700999991957060800004+60117+019900FM-12+000399999V0202301N00211007801CN0300001N9+00891+00721099981ADDAY121999GF107991061051008001041999MD1210161+9999MW1021
0070029700999991957060806004+60117+019900FM-12+000399999V0202101N00571015001CN0400001N9+01111+00721100391ADDAY111999GF106991051051017501041001KA1999N+00721MD1210271+9999MW1011
0076029700999991957060812004+60117+019900FM-12+000399999V0202101N00571220001CN0400001N9+01111+00781100691ADDAY111999GF104991999081008001001001MD1210161+9999MW1011EQDQ01+000032SCOTLC
0070029700999991957060818004+60117+019900FM-12+000399999V0202001N00621220001CN0400001N9+01001+00721100941ADDAY101999GF101991011041008001041001KA1999M+01281MD1210121+9999MW1011
0076029700999991957060900004+60117+019900FM-12+000399999V0202301N00361220001CN0300001N9+00781+00611101221ADDAY101999GF102991999001000251001001MD1210121+9999MW1011EQDQ01+000002SCOTLC
0070029700999991957060906004+60117+019900FM-12+000399999V0201801N00051220001CN0500001N9+01221+00721101551ADDAY101999GF103991011011008001999011KA1999N+00281MD1210121+9999MW1031
0057029700999991957060912004+60117+019900FM-12+000399999V0201401N00621030001CN0400001N9+01501+00611101591ADDAY121999GF107991011051008001031071MD1810041+9999MW1031
0070029700999991957060918004+60117+019900FM-12+000399999V0201001N00411220001CN0400001N9+01501+00891101211ADDAY121999GF108991001001999999021999KA1999M+01721MD1710191+9999MW1021
0057029700999991957061000004+60117+019900FM-12+000399999V0202001N00361004501CN0050001N9+01221+01111101011ADDAY191999GF108991081031004501999999MD1610041+9999MW1951
0081029700999991957061006004+60117+019900FM-12+000399999V0201801N00101001501CN0030001N9+01111+01111100911ADDAA199007091AY161999GF108991071071001501999999KA1999N+01001MD1610011+9999MW1611
0057029700999991957061012004+60117+019900FM-12+000399999V0202901N00461002401CN0060001N9+01391+01221101281ADDAY161999GF107991071061002501999999MD1210281+9999MW1611
0067029700999991957061018004+60117+019900FM-12+000399999V0201801N00361220001CN0150001N9+01391+01221101511ADDAA199003091AY121999GF107991001001999999001061KA1999M+01781MW1031
0057029700999991957061100004+60117+019900FM-12+000399999V0200901N00051000601CN0010001N9+01001+01001101741ADDAY121999GF108991051071000751051071MD1210031+9999MW1101
0070029700999991957061106004+60117+019900FM-12+000399999V0200901N00211001501CN0050001N9+01281+01001101721ADDAY121999GF107991071061001501999999KA1999N+00781MD1210031+9999MW1011
0070029700999991957061118004+60117+019900FM-12+000399999V0200801N00361220001CN0300001N9+01891+01611101541ADDAY111999GF104991011021008001041021KA1999M+02001MD1610031+9999MW1011
0057029700999991957061200004+60117+019900FM-12+000399999V0201301N00211000151CN0006001N9+01221+01221101521ADDAY121999GF109991091061000251999999MD1010011+9999MW1471
0089029700999991957061206004+60117+019900FM-12+000399999V0201301N004619999999N0150001N9+01611+01281101391ADDAY141999GF108991999001022501011041KA1999N+01001MD1710201+9999MW1031EQDQ01+000002SCOTLC
0076029700999991957061212004+60117+019900FM-12+000399999V0201801N00621004501CN0100001N9+01721+01501101381ADDAY111999GF106991999051004501001001MD1210011+9999MW1031EQDQ01+000052SCOTLC
0070029700999991957061218004+60117+019900FM-12+000399999V0202601N00461007801CN0200001N9+01721+01391101481ADDAY121999GF107991071051008001041011KA1999M+01891MD1210131+9999MW1031
0102029700999991957061306004+60117+019900FM-12+000399999V0203401N00621220001CN0500001N9+01001+00611102081ADDAA199004091AY121999GF104991021051012501041999KA1999N+00781MW1011EQDQ01+000032APCTENQ02+000002APC3  
0057029700999991957061312004+60117+019900FM-12+000399999V0203401N00721220001CN0500001N9+01281+00281102401ADDAY101999GF101991011011004501999999MD1210151+9999MW1021
0070029700999991957061318004+60117+019900FM-12+000399999V0203501N00511220001CN0500001N9+01391+00391102551ADDAY101999GF100991001001999999001001KA1999M+01501MD1110011+9999MW1021
0057029700999991957061400004+60117+019900FM-12+000399999V0203401N00211220001CN0500001N9+00611+00391102771ADDAY101999GF100991001001999999001001MD1210161+9999MW1021
0070029700999991957061406004+60117+019900FM-12+000399999V0203601N00511220001CN0500001N9+01221+00611103001ADDAY101999GF101991001001999999001011KA1999N+00611MD1210121+9999MW1021
0057029700999991957061412004+60117+019900FM-12+000399999V0203601N00721220001CN0500001N9+01281+00281103191ADDAY101999GF100991001001999999001001MD1110051+9999MW1021
0057029700999991957061418004+60117+019900FM-12+000399999V0201001N00571220001CN0500001N9+01391+00221103091ADDAY101999GF102991001001999999001051MD1710071+9999MW1021
0057029700999991957061500004+60117+019900FM-12+000399999V0209991C00001220001CN0300001N9+00501+00281102991ADDAY101999GF102991001001999999041051MD1210051+9999MW1021
0070029700999991957061506004+60117+019900FM-12+000399999V0202001N00461220001CN0500001N9+01221+00721102621ADDAY111999GF106991001001999999031061KA1999N+00221MD1710191+9999MW1011
0057029700999991957061512004+60117+019900FM-12+000399999V0201401N00101030001CN0350001N9+01721+01111102511ADDAY121999GF106991011051017501021071MD1510021+9999MW1011
0070029700999991957061518004+60117+019900FM-12+000399999V0203601N00311220001CN0400001N9+01721+00781102491ADDAY101999GF104991021051017501041081KA1999M+02111MD1610011+9999MW1031
0076029700999991957061600004+60117+019900FM-12+000399999V0203501N00261220001CN0400001N9+00721+00611102561ADDAY101999GF104991999001999999041001MD1210051+9999MW1031EQDQ01+000002SCOTLC
0070029700999991957061606004+60117+019900FM-12+000399999V0200101N00411220001CN0500001N9+00611+00611102621ADDAY121999GF106991021051012501001011KA1999N+00391MD1210031+9999MW1021
0057029700999991957061612004+60117+019900FM-12+000399999V0203601N00511220001CN0260001N9+01501+00721102561ADDAY121999GF101991001001999999001011MD1710011+9999MW1011
0070029700999991957061618004+60117+019900FM-12+000399999V0203401N00101220001CN0500001N9+01001+00501102371ADDAY101999GF101991001001999999001011KA1999M+01611MD1510121+9999MW1021
0070029700999991957061706004+60117+019900FM-12+000399999V0201801N00411220001CN0500001N9+01501+00781101991ADDAY101999GF101991001001999999011051KA1999N+00281MD1710111+9999MW1021
0057029700999991957061712004+60117+019900FM-12+000399999V0201801N00411075001CN0500001N9+02001+01221101651ADDAY181999GF105991021031012501041021MD1710121+9999MW1251
0081029700999991957061718004+60117+019900FM-12+000399999V0200201N00211220001CN0500001N9+01781+00781101611ADDAA199000691AY121999GF104991011031012501041011KA1999M+02111MD1710071+9999MW1011
0057029700999991957061800004+60117+019900FM-12+000399999V0203601N00211220001CN0350001N9+00891+00721101681ADDAY101999GF102991021001022501081011MD1710011+9999MW1031
0081029700999991957061806004+60117+019900FM-12+000399999V0203601N00311030001CN0400001N9+01111+00391101651ADDAA199000691AY121999GF107991031051012501071999KA1999N+00721MD1810071+9999MW1021
0057029700999991957061812004+60117+019900FM-12+000399999V0203501N00411007801CN0350001N9+00781+00391101611ADDAY181999GF107991061081008001041999MD1710031+9999MW1251
0057029700999991957061818004+60117+019900FM-12+000399999V0203201N00311220001CN0400001N9+01221+00391101541ADDAY101999GF102991011041017501001011MD1810041+9999MW1021
0057029700999991957061900004+60117+019900FM-12+000399999V0209991C00001220001CN0100001N9+00221+00221101521ADDAY101999GF100991001001999999001001MD1510011+9999MW1011
0070029700999991957061906004+60117+019900FM-12+000399999V0203401N00721220001CN0500001N9+00891+00281101551ADDAY101999GF103991011081008001031011KA1999N+00111MD1410001+9999MW1031
0057029700999991957061912004+60117+019900FM-12+000399999V0203101N00671220001CN0500001N9+01221+00221101541ADDAY111999GF104991999041022501001011MD1410001+9999MW1021
0070029700999991957061918004+60117+019900FM-12+000399999V0203201N00361220001CN0500001N9+01111-00111101401ADDAY111999GF104991011021008001041011KA1999M+01281MD1610051+9999MW1021
0057029700999991957062000004+60117+019900FM-12+000399999V0203001N00311007801CN0300001N9+00781+00281101401ADDAY121999GF107991071081008001999999MD1210071+9999MW1021
0070029700999991957062006004+60117+019900FM-12+000399999V0203401N00571220001CN0500001N9+01001+00221101411ADDAY101999GF102991021051012501001001KA1999N+00721MD1210031+9999MW1031
0070029700999991957062018004+60117+019900FM-12+000399999V0203201N00511220001CN0500001N9+01221+00221101511ADDAY101999GF101991011081008001001011KA1999M+01281MD1410001+9999MW1011
0057029700999991957062100004+60117+019900FM-12+000399999V0203301N00311220001CN0400001N9+00781+00281101491ADDAY121999GF103991031041012501001001MD1410001+9999MW1011
0070029700999991957062106004+60117+019900FM-12+000399999V0203301N00511220001CN0500001N9+00891+00281101481ADDAY101999GF101991011011008001041011KA1999N+00611MD1810031+9999MW1031
0081029700999991957062118004+60117+019900FM-12+000399999V0201901N00361030001CN0300001N9+00891+00391101221ADDAA199000691AY121999GF108991031051008001021999KA1999M+01221MD1810081+9999MW1601
0057029700999991957062200004+60117+019900FM-12+000399999V0200601N00261030001CN0250001N9+00781+00721101011ADDAY161999GF108991021051008001021999MD1710131+9999MW1601
0081029700999991957062206004+60117+019900FM-12+000399999V0200601N00411004501CN0020001N9+00781+00721100771ADDAA199009091AY161999GF108991061051004501021999KA1999N+00721MD1710091+9999MW1611
0057029700999991957062212004+60117+019900FM-12+000399999V0200701N00511004501CN0300001N9+00891+00721100791ADDAY161999GF108991071051004501999999MD1510031+9999MW1611
0081029700999991957062218004+60117+019900FM-12+000399999V0200801N00311004501CN0350001N9+01111+00891100791ADDAA199003091AY121999GF108991081051004501999999KA1999M+01111MD1710011+9999MW1021
0057029700999991957062300004+60117+019900FM-12+000399999V0200401N00211220001CN0200001N9+00781+00721100721ADDAY121999GF104991021031004501001011MD1710031+9999MW1011
0081029700999991957062306004+60117+019900FM-12+000399999V0200201N00311004501CN0400001N9+00891+00781100591ADDAA199000691AY121999GF108991061031004501021081KA1999N+00611MD1710021+9999MW1021
0057029700999991957062312004+60117+019900FM-12+000399999V0200501N00261001501CN0350001N9+01111+00891100621ADDAY121999GF108991081051001501999999MD1210021+9999MW1031
0081029700999991957062318004+60117+019900FM-12+000399999V0201401N00311001501CN0350001N9+01111+01001100511ADDAA199000691AY151999GF108991081061001501001001KA1999M+01221MD1810111+9999MW1021
0100029700999991957062406004+60117+019900FM-12+000399999V0202101N00511007801CN0400001N9+01001+00611100291ADDAA199002091AY101999GF107991999051008001001001KA1999N+00721MD1010001+9999MW1011EQDQ01+000062SCOTLC
0057029700999991957062412004+60117+019900FM-12+000399999V0201901N00511030001CN0400001N9+01391+00721100391ADDAY111999GF105991011031004501071001MD1210031+9999MW1021
0070029700999991957062418004+60117+019900FM-12+000399999V0202201N00411220001CN0400001N9+01221+00891100421ADDAY101999GF103991021021004501081001KA1999M+01391MD1510051+9999MW1021
0057029700999991957062500004+60117+019900FM-12+000399999V0203601N00311220001CN0250001N9+00281+00281100521ADDAY101999GF101991001001999999001011MD1210081+9999MW1111
0070029700999991957062506004+60117+019900FM-12+000399999V0203301N00211220001CN0500001N9+01281+00781100611ADDAY101999GF101991001001999999041011KA1999N+00221MD1210081+9999MW1031
0057029700999991957062512004+60117+019900FM-12+000399999V0203201N00461030001CN0500001N9+01391+00781100711ADDAY121999GF107991011041008001021061MD1210081+9999MW1031
0070029700999991957062518004+60117+019900FM-12+000399999V0201401N00211220001CN0400001N9+01281+00721100781ADDAY111999GF104991011031008001091021KA1999M+01501MD1510011+9999MW1011
0057029700999991957062600004+60117+019900FM-12+000399999V0201801N00211030001CN0350001N9+01001+00891100801ADDAY121999GF107991011051008001071999MD1810011+9999MW1021
0081029700999991957062606004+60117+019900FM-12+000399999V0202701N00101004501CN0150001N9+01221+01001100851ADDAA199005091AY181999GF108991051031004501071999KA1999N+00891MD1210071+9999MW1801
0057029700999991957062612004+60117+019900FM-12+000399999V0202001N00571030001CN0400001N9+01611+01111101041ADDAY181999GF106991031091008001041021MD1210111+9999MW1171
0081029700999991957062618004+60117+019900FM-12+000399999V0202101N00311220001CN0500001N9+01391+00891101201ADDAA199001091AY111999GF103991011021008001001021KA1999M+01501MD1210051+9999MW1021
0057029700999991957062700004+60117+019900FM-12+000399999V0209991C00001012301CN0060001N9+00721+00721101251ADDAY101999GF105991051051012501041001MD1410001+9999MW1111
0070029700999991957062706004+60117+019900FM-12+000399999V0201801N00411030001CN0200001N9+01281+01001101291ADDAY121999GF107991031051012501041999KA1999N+00501MD1210071+9999MW1031
0057029700999991957062712004+60117+019900FM-12+000399999V0201801N00411030001CN0200001N9+01501+01111101251ADDAY121999GF106991021091008001041021MD1810031+9999MW1021
0081029700999991957062718004+60117+019900FM-12+000399999V0209991C00001030001CN0200001N9+01111+01001101251ADDAA199002091AY181999GF107991041051012501071001KA1999M+01611MD1710011+9999MW1801
0081029700999991957062906004+60117+019900FM-12+000399999V0203601N00051220001CN0400001N9+01221+00501101681ADDAA199000391AY111999GF102991011041008001041011KA1999N+00281MD1210091+9999MW1011
0057029700999991957063000004+60117+019900FM-12+000399999V0203501N00101030001CN0300001N9+00501+00501101691ADDAY121999GF105991031051012501041001MD1410001+9999MW1111
0070029700999991957063006004+60117+019900FM-12+000399999V0200801N00211220001CN0500001N9+01221+00221101861ADDAY101999GF100991001001999999001001KA1999N+00111MD1210081+9999MW1011
0057029700999991957063012004+60117+019900FM-12+000399999V0202101N00411220001CN0500001N9+01721+00611102011ADDAY101999GF101991011011012501041001MD1210091+9999MW1031
0070029700999991957063018004+60117+019900FM-12+000399999V0202001N00211012301CN0500001N9+01501+00611102141ADDAY101999GF106991061051012501001001KA1999M+01781MD1310031+9999MW1031
0057029700999991957070200004+60117+019900FM-12+000399999V0201501N00621030001CN0400001N9+01501+00391101791ADDAY121999GF108991021051008001071999MD1810161+9999MW1021
0057029700999991957070412004+60117+019900FM-12+000399999V0200201N00211030001CN0550001N9+01611+00781101481ADDAY121999GF108991011011012501041071MD1710041+9999MW1031
0057029700999991957070418004+60117+019900FM-12+000399999V0209991C00001030001CN0500001N9+01391+00781101381ADDAY121999GF108991021051012501051081MD1710051+9999MW1031
0057029700999991957070718004+60117+019900FM-12+000399999V0201201N00211220001CN0400001N9+01391+00501102211ADDAY111999GF105991001001999999041051MD1410001+9999MW1031
0057029700999991957071112004+60117+019900FM-12+000399999V0201901N00411220001CN0200001N9+02001+01111101451ADDAY111999GF104991011021004501031021MD1210111+9999MW1041
0057029700999991957071212004+60117+019900FM-12+000399999V0200501N00211220001CN0300001N9+02221+01111101791ADDAY111999GF102991011081008001041001MD1210031+9999MW1011
0057029700999991957071312004+60117+019900FM-12+000399999V0200901N00511030001CN0200001N9+02111+01611101801ADDAY121999GF108991011051017501041071MD1810031+9999MW1011
0057029700999991957071318004+60117+019900FM-12+000399999V0201301N00311030001CN0100001N9+01781+01611101681ADDAY121999GF107991011081008001071001MD1310031+9999MW1021
0057029700999991957071400004+60117+019900FM-12+000399999V0209999999999004501CN0050001N9+01721+01611101681ADDAY161999GF108991061051004501021999MD1610071+9999MW1211
0057029700999991957071712004+60117+019900FM-12+000399999V0200901N00511220001CN0150001N9+02391+01611101011ADDAY101999GF103991011011008001041001MD1810011+9999MW1051
0057029700999991957071812004+60117+019900FM-12+000399999V0200301N00411030001CN0250001N9+02221+01611100371ADDAY121999GF106991021081008001051011MD1710121+9999MW1031
0057029700999991957072000004+60117+019900FM-12+000399999V0200201N00101220001CN0300001N9+01281+01281100741ADDAY101999GF101991001001999999031011MD1010051+9999MW1111
0070029700999991957072006004+60117+019900FM-12+000399999V0209991C00001220001CN0300001N9+02111+01721100681ADDAY101999GF101991011051012501041011KA1999N+01001MD1810041+9999MW1011
0057029700999991957072012004+60117+019900FM-12+000399999V0202001N00411220001CN0200001N9+02281+01721100741ADDAY121999GF102991021021008001001011MD1310041+9999MW1051
0057029700999991957072100004+60117+019900FM-12+000399999V0209991C00001004501CN0030001N9+01721+01721100891ADDAY121999GF107991071091004501999999MD1210051+9999MW1101
0057029700999991957072112004+60117+019900FM-12+000399999V0201901N00361220001CN0300001N9+02281+01611101011ADDAY101999GF102991011021008001041001MD1310031+9999MW1021
0070029700999991957072118004+60117+019900FM-12+000399999V0202001N00261220001CN0400001N9+02221+01501101001ADDAY101999GF101991001001999999001081KA1999M+02391MD1710011+9999MW1021
0057029700999991957072200004+60117+019900FM-12+000399999V0209991C00001220001CN0150001N9+01281+01281100991ADDAY121999GF106991001001999999041051MD1810011+9999MW1031
0070029700999991957072206004+60117+019900FM-12+000399999V0203501N00211220001CN0200001N9+01891+01781100951ADDAY111999GF104991011021004501041061KA1999N+01111MD1810031+9999MW1021
0057029700999991957072212004+60117+019900FM-12+000399999V0203601N00411220001CN0300001N9+02281+01891100861ADDAY111999GF103991021021008001001021MD1810031+9999MW1011
0070029700999991957072218004+60117+019900FM-12+000399999V0203601N00361220001CN0300001N9+02221+01721100721ADDAY101999GF101991011021008001001001KA1999M+02501MD1610031+9999MW1011
0057029700999991957072300004+60117+019900FM-12+000399999V0203001N00311220001CN0200001N9+01611+01501100611ADDAY101999GF100991001001999999001001MD1710041+9999MW1011
0070029700999991957072306004+60117+019900FM-12+000399999V0203501N00211000601CN0150001N9+01891+01781100521ADDAY121999GF107991071061000751001001KA1999N+01501MD1410001+9999MW1021
0057029700999991957072400004+60117+019900FM-12+000399999V0203601N00311000601CN0010001N9+01721+01721100241ADDAY141999GF109991091061000751999999MD1710041+9999MW1451
0070029700999991957072406004+60117+019900FM-12+000399999V0203601N00311001501CN0025001N9+01721+01721100111ADDAY141999GF108991081061001501999999KA1999N+01721MD1710041+9999MW1281
0057029700999991957072412004+60117+019900FM-12+000399999V0203301N00511004501CN0150001N9+02111+01891099991ADDAY121999GF106991051051004501041011MD1710111+9999MW1051
0081029700999991957072418004+60117+019900FM-12+000399999V0200501N00211012301CN0200001N9+01781+01721099951ADDAA199001091AY121999GF107991071071012501001001KA1999M+02221MD1610041+9999MW1021
0057029700999991957072500004+60117+019900FM-12+000399999V0203501N00051220001CN0030001N9+01721+01721099891ADDAY121999GF104991021061001501041021MD1710041+9999MW1101
0081029700999991957072506004+60117+019900FM-12+000399999V0202501N00151001501CN0100001N9+01781+01721099801ADDAA199000691AY121999GF107991071061001501999999KA1999N+01501MD1610041+9999MW1021
0057029700999991957072512004+60117+019900FM-12+000399999V0202101N00511030001CN0150001N9+02221+01721099841ADDAY111999GF105991021021004501051051MD1210031+9999MW1051
0081029700999991957072518004+60117+019900FM-12+000399999V0201901N00361220001CN0300001N9+02001+01721099981ADDAA199000391AY111999GF103991011021008001031021KA1999M+02281MD1210071+9999MW1011
0057029700999991957072600004+60117+019900FM-12+000399999V0202001N00621007801CN0150001N9+01781+01391100141ADDAY121999GF107991071051008001999999MD1210081+9999MW1021
0070029700999991957072606004+60117+019900FM-12+000399999V0201901N00621007801CN0500001N9+01891+01391100391ADDAY121999GF106991061061008001001001KA1999N+01721MD1310051+9999MW1011
0057029700999991957072612004+60117+019900FM-12+000399999V0201601N00621007801CN0500001N9+02001+01391100421ADDAY111999GF106991061061008001001001MD1210051+9999MW1031
0057029700999991957072618004+60117+019900FM-12+000399999V0201601N00721030001CN0500001N9+01781+01281100401ADDAY101999GF105991011021008001041051MD1310031+9999MW1031
0057029700999991957072700004+60117+019900FM-12+000399999V0201201N00511220001CN0300001N9+01111+01001100391ADDAY111999GF103991011021004501051001MD1710081+9999MW1011
0076029700999991957072712004+60117+019900FM-12+000399999V0203601N00361012301CN0200001N9+01281+01111100091ADDAY161999GF108991999051012501071999MD1710091+9999MW1611EQDQ01+000082SCOTLC
0081029700999991957072718004+60117+019900FM-12+000399999V0202901N00411004501CN0200001N9+01501+01391099921ADDAA199002091AY161999GF108991061051004501021999KA1999M+01501MD1810091+9999MW1601
0057029700999991957072800004+60117+019900FM-12+000399999V0202401N00511002401CN0080001N9+01501+01501099841ADDAY161999GF108991061071002501021999MD1710041+9999MW1611
