0057029720999991957010100004+60517+022267FM-12+005499999V0201401N00511002401CN0200001N9-00501-00611102611ADDAY121999GF108991081061002501999999MD1710111+9999MW1021
0070029720999991957010106004+60517+022267FM-12+005499999V0200901N00411002401CN0200001N9-00781-00891102331ADDAY121999GF108991081061002501999999KA1999N-00781MD1710171+9999MW1021
0057029720999991957010112004+60517+022267FM-12+005499999V0200901N00511002401CN0150001N9-00781-01001102171ADDAY171999GF108991081061002501999999MD1710121+9999MW1711
0081029720999991957010118004+60517+022267FM-12+005499999V0200901N00411004501CN0100001N9-00781-00891102031ADDAA199002091AY171999GF108991081051004501999999KA1999M-00721MD1710011+9999MW1731
0057029720999991957010200004+60517+022267FM-12+005499999V0200901N00211004501CN0020001N9-00781-00891101971ADDAY171999GF108991081051004501999999MD1710011+9999MW1731
0081029720999991957010206004+60517+022267FM-12+005499999V0200901N00311002401CN0050001N9-00611-00721101771ADDAA199004091AY171999GF108991081061002501999999KA1999N-00781MD1710081+9999MW1711
0057029720999991957010212004+60517+022267FM-12+005499999V0201201N00311004501CN0100001N9-00501-00501101721ADDAY171999GF108991061061004501071999MD1710051+9999MW1701
0081029720999991957010218004+60517+022267FM-12+005499999V0201201N00211001501CN0100001N9-00391-00391101661ADDAA199001091AY121999GF108991081061001501999999KA1999M-00391MD1810011+9999MW1701
0057029720999991957010300004+60517+022267FM-12+005499999V0201601N00211001501CN0060001N9-00221-00221101611ADDAY171999GF108991081061001501999999MD1710021+9999MW1711
0057029720999991957010306004+60517+022267FM-12+005499999V0202601N00101004501CN0060001N9-00221-00221101641ADDAY171999GF108991081061004501999999MD1610021+9999MW1711
0057029720999991957010312004+60517+022267FM-12+005499999V0200901N00101004501CN0025001N9-00501-00611101601ADDAY171999GF108991081051004501999999MD1210011+9999MW1731
0081029720999991957010318004+60517+022267FM-12+005499999V0200901N00051220001CN0040001N9-00721-00781101911ADDAA199001091AY171999GF103991031051004501001001KA1999M-00281MD1210151+9999MW1711
0057029720999991957010400004+60517+022267FM-12+005499999V0201401N00101004501CN0100001N9-00721-00781102161ADDAY171999GF108991081051004501999999MD1210091+9999MW1711
0081029720999991957010406004+60517+022267FM-12+005499999V0201001N00101004501CN0060001N9-00611-00721102291ADDAA199000391AY171999GF108991081061004501999999KA1999N-01001MD1110041+9999MW1711
0057029720999991957010412004+60517+022267FM-12+005499999V0201201N00311001501CN0050001N9-00391-00501102291ADDAY171999GF108991081061001501999999MD1810051+9999MW1711
0081029720999991957010418004+60517+022267FM-12+005499999V0201401N00411001501CN0010001N9-00221-00221102201ADDAA199000591AY141999GF108991081061001501999999KA1999M-00111MD1710061+9999MW1711
0057029720999991957010500004+60517+022267FM-12+005499999V0201601N00311001501CN0030001N9-00111-00111101991ADDAY121999GF108991081061001501999999MD1710071+9999MW1721
0081029720999991957010506004+60517+022267FM-12+005499999V0201601N00621000601CN0020001N9+00001+00001101341ADDAA199000591AY171999GF108991081061000751999999KA1999N-00221MD1710341+9999MW1681
0076029720999991957010512004+60517+022267FM-12+005499999V0201601N00621000601CN0008001N9+00001+00001100281ADDAY171999GF108991081061000751999999MD1710602+9999MW1681EQDQ01+000602APC3  
0081029720999991957010518004+60517+022267FM-12+005499999V0201801N00411001501CN0005001N9+00001+00001099131ADDAA199006091AY161999GF108991081061001501999999KA1999M+00001MD1710461+9999MW1371
0057029720999991957010600004+60517+022267FM-12+005499999V0202301N00211002401CN0080001N9+00111+00111098871ADDAY121999GF108991081061002501999999MD1710031+9999MW1021
0081029720999991957010606004+60517+022267FM-12+005499999V0202701N00311001501CN0070001N9+00111+00111098801ADDAA199000591AY121999GF108991081061001501999999KA1999N+00001MD1710061+9999MW1021
0043029720999991957010612004+60517+022267FM-12+005499999V0202001N00311002401CN0100001N9+00001+00001098271ADDAY121999GF108991081061002501999999MW1681
0081029720999991957010618004+60517+022267FM-12+005499999V0203201N00051001501CN0030001N9+00001+00001098211ADDAA199001091AY171999GF108991081061001501999999KA1999M+00111MD1310041+9999MW1681
0076029720999991957010700004+60517+022267FM-12+005499999V0203401N00721004501CN0100001N9-00281-00391099011ADDAY121999GF108991081061004501999999MD1210552+9999MW1181EQDQ01+000552APC3  
0081029720999991957010706004+60517+022267FM-12+005499999V0203401N00821004501CN0200001N9-00501-00611099881ADDAA199000391AY121999GF108991081061004501999999KA1999N-00611MD1210441+9999MW1021
0057029720999991957010712004+60517+022267FM-12+005499999V0203401N00621004501CN9999999N9-00611-00781100651ADDAY121999GF108991071061004501071999MD1210301+9999MW1021
0081029720999991957010718004+60517+022267FM-12+005499999V0203601N00051004501CN0150001N9-00611-00781101171ADDAA199000391AY121999GF108991081051004501999999KA1999M-00501MD1210211+9999MW1021
0057029720999991957010800004+60517+022267FM-12+005499999V0203601N00211004501CN0150001N9-00281-00391100971ADDAY121999GF108991081061004501999999MD1710201+9999MW1021
0070029720999991957010806004+60517+022267FM-12+005499999V0202301N00411001501CN0150001N9+00001-00111100381ADDAY121999GF108991081061001501999999KA1999N-00611MD1710351+9999MW1021
0057029720999991957010812004+60517+022267FM-12+005499999V0202201N00411000601CN0012001N9+00221+00221100041ADDAY141999GF108991081061000751999999MD1710211+9999MW1101
0081029720999991957010818004+60517+022267FM-12+005499999V0202201N00511001501CN0040001N9+00221+00221099641ADDAA199000391AY141999GF108991081061001501999999KA1999M+00281MD1710221+9999MW1021
0057029720999991957010900004+60517+022267FM-12+005499999V0202301N00411220001CN0150001N9+00221+00221099391ADDAY121999GF108991001001999999071999MD1710181+9999MW1031
0070029720999991957010906004+60517+022267FM-12+005499999V0202501N00621004501CN0150001N9+00391+00281098931ADDAY121999GF108991081051004501999999KA1999N+00221MD1710271+9999MW1021
0076029720999991957010912004+60517+022267FM-12+005499999V0202301N00721002401CN0150001N9+00501+00001098761ADDAY121999GF108991999081002501051081MD1510031+9999MW1021EQDQ01+000082SCOTLC
0070029720999991957010918004+60517+022267FM-12+005499999V0202901N00931030001CN0200001N9+00501-00281098651ADDAY121999GF107991021051008001071999KA1999M+00611MD1210251+9999MW1011
0057029720999991957011000004+60517+022267FM-12+005499999V0202501N00311220001CN0300001N9+00111-00221098741ADDAY101999GF100991001001999999001001MD1710091+9999MW1021
0089029720999991957011006004+60517+022267FM-12+005499999V0202501N00411220001CN0300001N9+00001-00111098461ADDAY101999GF103991999001999999041001KA1999N-00111MD1710171+9999MW1021EQDQ01+000002SCOTLC
0057029720999991957011012004+60517+022267FM-12+005499999V0203001N00411004501CN0500001N9+00111-00111098671ADDAY121999GF107991061051004501041999MD1210211+9999MW1031
0089029720999991957011018004+60517+022267FM-12+005499999V0203201N00621220001CN0400001N9-00221-00391099231ADDAY121999GF102991999001999999041001KA1999M+00111MD1210231+9999MW1011EQDQ01+000002SCOTLC
0076029720999991957011100004+60517+022267FM-12+005499999V0203001N00511220001CN0300001N9-00281-00391100041ADDAY101999GF102991999001999999041001MD1210231+9999MW1021EQDQ01+000002SCOTLC
0089029720999991957011106004+60517+022267FM-12+005499999V0203201N00211220001CN0300001N9-00501-00611100331ADDAY101999GF100991001001999999001001KA1999N+99999MD1210141+9999MW1021EQDQ01 -00222ATMN  
0081029720999991957011118004+60517+022267FM-12+005499999V0203201N00311220001CN0300001N9-00391-00611100551ADDAA199000691AY101999GF100991001001999999001001KA1999M-00111MD1210051+9999MW1021
0057029720999991957011200004+60517+022267FM-12+005499999V0203201N00311220001CN0200001N9-00611-01001100511ADDAY101999GF100991001001999999001001MD1410001+9999MW1021
0070029720999991957011206004+60517+022267FM-12+005499999V0203201N00211220001CN0200001N9-00891-01001100441ADDAY101999GF100991001001999999001001KA1999N-00891MD1710051+9999MW1021
0070029720999991957011218004+60517+022267FM-12+005499999V0203601N00211004501CN0200001N9-00721-00781100731ADDAY121999GF108991081061004501999999KA1999M-00281MD1210121+9999MW1701
0057029720999991957011300004+60517+022267FM-12+005499999V0200201N00211030001CN0200001N9-00781-00891101181ADDAY121999GF106991031061008001071999MD1210241+9999MW1011
0081029720999991957011306004+60517+022267FM-12+005499999V0200201N00311220001CN0200001N9-01001-01111101671ADDAA199000691AY101999GF104991021061004501041001KA1999N-01111MD1210261+9999MW1031
0076029720999991957011312004+60517+022267FM-12+005499999V0203201N00211220001CN0300001N9-00721-01001102251ADDAY121999GF106991999001999999041001MD1210191+9999MW1011EQDQ01+000002SCOTLC
0070029720999991957011318004+60517+022267FM-12+005499999V0203601N00511001501CN0200001N9-01001-01111102751ADDAY121999GF108991081061001501999999KA1999M-00611MD1210301+9999MW1031
0057029720999991957011400004+60517+022267FM-12+005499999V0200201N00311001501CN0200001N9-00721-00781103061ADDAY121999GF108991081061001501999999MD1210111+9999MW1021
0070029720999991957011406004+60517+022267FM-12+005499999V0200201N00211030001CN0300001N9-00721-00891103381ADDAY121999GF108991041061002501071999KA1999N-01001MD1210151+9999MW1021
0057029720999991957011412004+60517+022267FM-12+005499999V0202701N00101220001CN0400001N9-00781-01001103591ADDAY121999GF106991001001999999041061MD1210061+9999MW1021
0070029720999991957011418004+60517+022267FM-12+005499999V0202701N00101220001CN0100001N9-01221-01391103531ADDAY101999GF103991001001999999001021KA1999M-00721MD1610051+9999MW1021
0057029720999991957011500004+60517+022267FM-12+005499999V0202201N00211220001CN0280001N9-01001-01221103501ADDAY121999GF106991001001999999001061MD1710121+9999MW1011
0070029720999991957011506004+60517+022267FM-12+005499999V0202301N00511220001CN0200001N9-00611-00781102711ADDAY101999GF101991001001999999001011KA1999N-01221MD1710281+9999MW1011
0057029720999991957011512004+60517+022267FM-12+005499999V0202401N00621004501CN0200001N9-00501-00721102231ADDAY121999GF107991071051004501999999MD1710271+9999MW1711
0081029720999991957011518004+60517+022267FM-12+005499999V0202501N00311030001CN0200001N9-00501-00611102141ADDAA199000691AY121999GF106991021061004501071999KA1999M-00281MD1210021+9999MW1011
0057029720999991957011600004+60517+022267FM-12+005499999V0203201N00311220001CN0300001N9-00501-00611102321ADDAY101999GF100991001001999999001001MD1210161+9999MW1021
0089029720999991957011606004+60517+022267FM-12+005499999V0202501N00311220001CN0300001N9-00781-00891102351ADDAY101999GF101991999001999999041001KA1999N-01001MD1310021+9999MW1021EQDQ01+000002SCOTLC
0057029720999991957011612004+60517+022267FM-12+005499999V0202301N00311001501CN0100001N9-00221-00221102071ADDAY111999GF107991051061001501071999MD1710211+9999MW1031
0070029720999991957011618004+60517+022267FM-12+005499999V0203301N00411220001CN0200001N9-00221-00281102001ADDAY101999GF101991011051008001001001KA1999M-00111MD1310041+9999MW1031
0057029720999991957011700004+60517+022267FM-12+005499999V0203201N00311220001CN0200001N9-00221-00281102271ADDAY101999GF100991001001999999001001MD1210191+9999MW1021
0089029720999991957011706004+60517+022267FM-12+005499999V0202701N00311220001CN0200001N9-00281-00391102291ADDAY101999GF102991999001999999071001KA1999N-00501MD1010061+9999MW1031EQDQ01+000002SCOTLC
0057029720999991957011712004+60517+022267FM-12+005499999V0202901N00511220001CN0400001N9+00281+00001101891ADDAY121999GF107991001001999999041061MD1710181+9999MW1031
0070029720999991957011718004+60517+022267FM-12+005499999V0203201N00621220001CN0400001N9+00111-00281101831ADDAY101999GF102991001001999999001051KA1999M+00281MD1710041+9999MW1011
0057029720999991957011800004+60517+022267FM-12+005499999V0203201N00311220001CN0200001N9+00111-00111101721ADDAY121999GF107991001001999999041051MD1710081+9999MW1031
0089029720999991957011806004+60517+022267FM-12+005499999V0202701N00311220001CN0200001N9-00111-00221101641ADDAY101999GF101991999001999999041001KA1999N-00221MD1710021+9999MW1011EQDQ01+000002SCOTLC
0057029720999991957011812004+60517+022267FM-12+005499999V0202701N00211220001CN0500001N9+00281-00221101391ADDAY101999GF104991001001999999041011MD1710211+9999MW1031
0089029720999991957011818004+60517+022267FM-12+005499999V0202301N00211220001CN0300001N9-00111-00281101241ADDAY121999GF103991999001999999041001KA1999M+00281MD1710041+9999MW1031EQDQ01+000002SCOTLC
0057029720999991957011900004+60517+022267FM-12+005499999V0202901N00511007801CN0300001N9+00111-00281101391ADDAY121999GF106991061051008001001001MD1210131+9999MW1031
0089029720999991957011906004+60517+022267FM-12+005499999V0203001N00721220001CN0300001N9+00111-00281101501ADDAY121999GF106991999001999999071001KA1999N-00111MD1210071+9999MW1031EQDQ01+000002SCOTLC
0057029720999991957011912004+60517+022267FM-12+005499999V0203201N00411220001CN0500001N9+00111-00281101621ADDAY121999GF107991001001999999071071MD1010021+9999MW1021
0070029720999991957011918004+60517+022267FM-12+005499999V0202401N00211220001CN0500001N9-00221-00391101641ADDAY101999GF100991001001999999001001KA1999M+00221MD1710081+9999MW1021
0057029720999991957012000004+60517+022267FM-12+005499999V0202001N00721220001CN0300001N9-00111-00111101041ADDAY101999GF102991001001999999041051MD1710361+9999MW1031
0089029720999991957012006004+60517+022267FM-12+005499999V0202201N00721220001CN0300001N9-00111-00281100171ADDAY121999GF108991001001999999071999KA1999N-00281MD1710502+9999MW1021EQDQ01+000502APC3  
0057029720999991957012012004+60517+022267FM-12+005499999V0202401N00411002401CN0300001N9+00221+00001099651ADDAY121999GF108991071071002501071999MD1710181+9999MW1021
0070029720999991957012018004+60517+022267FM-12+005499999V0202001N00821004501CN0200001N9+00221+00001099211ADDAY121999GF108991081071004501999999KA1999M+00281MD1710281+9999MW1021
0057029720999991957012100004+60517+022267FM-12+005499999V0202301N00721002401CN0150001N9+00281+00221098831ADDAY121999GF108991081061002501999999MD1710071+9999MW1181
0070029720999991957012106004+60517+022267FM-12+005499999V0202301N00931004501CN0150001N9+00391+00221098361ADDAY121999GF108991081061004501999999KA1999N+00221MD1710241+9999MW1181
0057029720999991957012112004+60517+022267FM-12+005499999V0202701N00621030001CN0500001N9+00501-00611099251ADDAY121999GF106991011051004501081999MD1210331+9999MW1011
0081029720999991957012118004+60517+022267FM-12+005499999V0202701N00621220001CN0400001N9+00281+00001099621ADDAA199000691AY121999GF104991001001999999071999KA1999M+00611MD1210291+9999MW1011
0076029720999991957012200004+60517+022267FM-12+005499999V0202301N00621220001CN0300001N9+00221-00221099931ADDAY111999GF103991999001999999071001MD1210081+9999MW1011EQDQ01+000002SCOTLC
0070029720999991957012206004+60517+022267FM-12+005499999V0202701N00621220001CN0300001N9+00221+00001100121ADDAY101999GF103991001001999999001011KA1999N+00111MD1210141+9999MW1031
0057029720999991957012212004+60517+022267FM-12+005499999V0202301N00411220001CN0200001N9+00221+00111100231ADDAY121999GF108991001001999999071999MD1410001+9999MW1021
0081029720999991957012218004+60517+022267FM-12+005499999V0202201N00511000601CN0060001N9+00111+00111099931ADDAA199002091AY161999GF108991081061000751999999KA1999M+00221MD1710131+9999MW1681
0057029720999991957012300004+60517+022267FM-12+005499999V0202701N00411001501CN0050001N9+00111+00111099981ADDAY121999GF108991081061001501999999MD1210081+9999MW1021
0081029720999991957012306004+60517+022267FM-12+005499999V0202901N00211001501CN0060001N9+00111+00111100301ADDAA199000691AY121999GF108991081061001501999999KA1999N+00111MD1210171+9999MW1021
0057029720999991957012312004+60517+022267FM-12+005499999V0202201N00211000151CN0004001N9-00111-00111100721ADDAY141999GF109991091061000251999999MD1210171+9999MW1451
0070029720999991957012318004+60517+022267FM-12+005499999V0209991C00001220001CN0150001N9-00281-00391101151ADDAY141999GF100991001001999999001001KA1999M+00111MD1210171+9999MW1011
0057029720999991957012400004+60517+022267FM-12+005499999V0209991C00001220001CN0150001N9-00391-00391101471ADDAY101999GF100991001001999999001001MD1210111+9999MW1021
0070029720999991957012406004+60517+022267FM-12+005499999V0201401N00051000151CN0008001N9-00281-00281101551ADDAY141999GF109991091061000251999999KA1999N-00611MD1210051+9999MW1431
0057029720999991957012412004+60517+022267FM-12+005499999V0201601N00211000151CN0008001N9+00001+00001101661ADDAY141999GF109991091061000251999999MD1210091+9999MW1431
0102029720999991957012418004+60517+022267FM-12+005499999V0201401N00211000151CN0004001N9+00001+00001101611ADDAA199000691AY141999GF108991081061000251999999KA1999M+00001MW1551EQDQ01+000042APCTENQ02+000012APC3  
0057029720999991957012500004+60517+022267FM-12+005499999V0209991C00001000151CN0003001N9+00001+00001101541ADDAY151999GF108991081061000251999999MD1710061+9999MW1511
0081029720999991957012506004+60517+022267FM-12+005499999V0201201N00211000151CN0001001N9+00001+00001101311ADDAA199000591AY141999GF108991081061000251999999KA1999N+00001MD1710141+9999MW1501
0057029720999991957012512004+60517+022267FM-12+005499999V0201401N00311000151CN0006001N9+00001+00001101131ADDAY141999GF108991081061000251999999MD1710121+9999MW1511
0081029720999991957012518004+60517+022267FM-12+005499999V0201201N00101000151CN0008001N9+00001+00001100961ADDAA199000391AY151999GF109991091061000251999999KA1999M+00001MD1710081+9999MW1471
0057029720999991957012600004+60517+022267FM-12+005499999V0209991C00001000601CN0015001N9+00001+00001100871ADDAY121999GF108991081061000751999999MD1710051+9999MW1101
0081029720999991957012606004+60517+022267FM-12+005499999V0209991C00001001501CN0030001N9-00111-00111100911ADDAA199000591AY171999GF108991081061001501999999KA1999N-00111MD1110091+9999MW1711
0057029720999991957012612004+60517+022267FM-12+005499999V0202301N00101001501CN0020001N9-00111-00111101021ADDAY121999GF108991081061001501999999MD1010031+9999MW1101
0081029720999991957012618004+60517+022267FM-12+005499999V0201601N00101001501CN0050001N9-00111-00111100941ADDAA199000691AY121999GF108991081061001501999999KA1999M+00001MD1710111+9999MW1021
0057029720999991957012700004+60517+022267FM-12+005499999V0201401N00511002401CN0050001N9-00111-00111100561ADDAY121999GF108991081061002501999999MD1710231+9999MW1021
0081029720999991957012706004+60517+022267FM-12+005499999V0201601N00621001501CN0020001N9+00001+00001099891ADDAA199000591AY171999GF108991081061001501999999KA1999N-00221MD1710321+9999MW1681
0057029720999991957012712004+60517+022267FM-12+005499999V0202001N00311001501CN0030001N9+00111+00111099701ADDAY151999GF107991071061001501999999MD1210021+9999MW1511
0081029720999991957012718004+60517+022267FM-12+005499999V0202101N00211004501CN0060001N9+00111+00111099781ADDAA199002091AY121999GF108991081061004501999999KA1999M+00111MD1210101+9999MW1021
0057029720999991957012800004+60517+022267FM-12+005499999V0202301N00051001501CN0050001N9+00001+00001100061ADDAY121999GF108991081061001501999999MD1210181+9999MW1021
0070029720999991957012806004+60517+022267FM-12+005499999V0202901N00051000601CN0020001N9-00111-00111100521ADDAY141999GF108991081061000751999999KA1999N-00111MD1210291+9999MW1281
0057029720999991957012812004+60517+022267FM-12+005499999V0203201N00051001501CN0150001N9+00001-00221101051ADDAY121999GF107991071061001501999999MD1210251+9999MW1021
0070029720999991957012818004+60517+022267FM-12+005499999V0202701N00211220001CN0300001N9-00221-00391101451ADDAY111999GF103991031051004501001001KA1999M+00001MD1210201+9999MW1011
0057029720999991957012900004+60517+022267FM-12+005499999V0201801N00051000151CN0003001N9-00611-00721101861ADDAY141999GF109991091061000251999999MD1210051+9999MW1471
0070029720999991957012906004+60517+022267FM-12+005499999V0201401N00101002401CN0100001N9-00281-00281101861ADDAY141999GF108991081061002501999999KA1999N-00781MD1810031+9999MW1021
0057029720999991957012912004+60517+022267FM-12+005499999V0201801N00511001501CN0050001N9+00111-00111101701ADDAY171999GF108991081061001501999999MD1710111+9999MW1681
0081029720999991957012918004+60517+022267FM-12+005499999V0201801N00621000151CN0006001N9+00111+00111101521ADDAA199001091AY151999GF108991081061000251999999KA1999M+00111MD1710041+9999MW1531
0057029720999991957013000004+60517+022267FM-12+005499999V0203401N00311000601CN0030001N9+00111+00111101701ADDAY121999GF108991081061000751999999MD1210141+9999MW1621
0081029720999991957013006004+60517+022267FM-12+005499999V0203201N00101000151CN0009001N9+00111+00111101561ADDAA199005091AY161999GF108991081061000251999999KA1999N+00111MD1210081+9999MW1631
0057029720999991957013012004+60517+022267FM-12+005499999V0203601N00311001501CN0150001N9+00111+00111101851ADDAY121999GF108991081061001501999999MD1210151+9999MW1021
0081029720999991957013018004+60517+022267FM-12+005499999V0203601N00211220001CN0200001N9-00111-00221102221ADDAA199000391AY111999GF101991011061001501001001KA1999M+00111MD1210181+9999MW1011
0057029720999991957013100004+60517+022267FM-12+005499999V0200401N00101000151CN0004001N9-00391-00391102531ADDAY141999GF109991091061000251999999MD1210141+9999MW1471
0078029720999991957013112004+60517+022267FM-12+005499999V0201401N00101000151CN0005001N9-00391-00501102751ADDAY141999GF108991081061000251999999MW1771EQDQ01+000022APCTENQ02+000002APC3  
0081029720999991957013118004+60517+022267FM-12+005499999V0201601N00211001501CN0070001N9-00221-00221102571ADDAA199000391AY121999GF108991081061001501999999KA1999M-00221MD1710071+9999MW1021
0057029720999991957020100004+60517+022267FM-12+005499999V0201401N00101000601CN0020001N9-00111-00111102251ADDAY151999GF108991081061000751999999MD1710161+9999MW1511
0081029720999991957020106004+60517+022267FM-12+005499999V0201801N00461000601CN0015001N9+00001+00001101821ADDAA199000691AY151999GF108991081061000751999999KA1999N-00281MD1710211+9999MW1511
0057029720999991957020112004+60517+022267FM-12+005499999V0201801N00821000601CN0015001N9+00001+00001101371ADDAY161999GF108991081061000751999999MD1710221+9999MW1101
0081029720999991957020118004+60517+022267FM-12+005499999V0201601N00931000601CN0015001N9+00111+00111100621ADDAA199000391AY121999GF108991081061000751999999KA1999M+00111MD1710411+9999MW1681
0092029720999991957020200004+60517+022267FM-12+005499999V0201801N00721000601CN0015001N9+00001+00001099542ADDAY171999GF108991081061000751999999MD1710672+9999MW1751EQDQ01+099543APOSLPQ02+000672APC3  
0076029720999991957020212004+60517+022267FM-12+005499999V0202401N00721002401CN0200001N9+00001+00001099121ADDAY171999GF108991081061002501999999MD1210562+9999MW1021EQDQ01+000562APC3  
0100029720999991957020218004+60517+022267FM-12+005499999V0202501N00311001501CN0080001N9+00111+00111100291ADDAA199006091AY121999GF108991081061001501999999KA1999M+99999MD1210451+9999MW1021EQDQ01 +00002ATMX  
0057029720999991957020300004+60517+022267FM-12+005499999V0202701N00511220001CN0200001N9+00001-00111100881ADDAY101999GF100991001001999999001001MD1210231+9999MW1021
0089029720999991957020306004+60517+022267FM-12+005499999V0202501N00411220001CN0200001N9-00111-00221101071ADDAY101999GF101991999001999999041001KA1999N-00221MD1210071+9999MW1031EQDQ01+000002SCOTLC
0076029720999991957020312004+60517+022267FM-12+005499999V0202701N00311220001CN0500001N9+00221+00001101261ADDAY101999GF101991999001999999041001MD1110101+9999MW1021EQDQ01+000002SCOTLC
0070029720999991957020318004+60517+022267FM-12+005499999V0202201N00311220001CN0400001N9-00391-00391101491ADDAY101999GF100991001001999999001001KA1999M+00221MD1210091+9999MW1021
0057029720999991957020400004+60517+022267FM-12+005499999V0202701N00621220001CN0300001N9+00001-00281101401ADDAY101999GF100991001001999999001001MD1710011+9999MW1021
0089029720999991957020406004+60517+022267FM-12+005499999V0202501N00311220001CN0300001N9-00281-00391101531ADDAY101999GF102991999001999999041001KA1999N-00501MD1210081+9999MW1031EQDQ01+000002SCOTLC
0057029720999991957020412004+60517+022267FM-12+005499999V0202201N00411002401CN0500001N9+00001-00111101491ADDAY121999GF107991071061002501071999MD1710081+9999MW1031
0070029720999991957020418004+60517+022267FM-12+005499999V0202001N00721001501CN0030001N9+00001+00001100831ADDAY121999GF108991081061001501999999KA1999M+00111MD1710371+9999MW1681
0057029720999991957020500004+60517+022267FM-12+005499999V0202501N00511001501CN0100001N9+00111+00111100551ADDAY121999GF108991081061001501999999MD1710021+9999MW1021
0081029720999991957020506004+60517+022267FM-12+005499999V0202701N00311220001CN0200001N9-00111-00111100651ADDAA199002091AY111999GF106991001001999999041061KA1999N-00111MD1010071+9999MW1031
0057029720999991957020512004+60517+022267FM-12+005499999V0202001N00511000601CN0030001N9+00221+00221100451ADDAY121999GF108991081061000751999999MD1710231+9999MW1601
0081029720999991957020518004+60517+022267FM-12+005499999V0202301N00621001501CN0050001N9+00221+00221099911ADDAA199002091AY161999GF108991081061001501999999KA1999M+00281MD1710261+9999MW1611
0057029720999991957020600004+60517+022267FM-12+005499999V0202201N00721220001CN0100001N9+00281+00001099621ADDAY101999GF100991001001999999001001MD1710031+9999MW1181
0081029720999991957020606004+60517+022267FM-12+005499999V0202301N00621220001CN0100001N9+00221+00001099741ADDAA199000691AY101999GF102991001001999999041011KA1999N+00221MD1210171+9999MW1021
0057029720999991957020612004+60517+022267FM-12+005499999V0202501N00621220001CN0300001N9+00501-00221100021ADDAY121999GF106991001001999999001021MD1210101+9999MW1021
0070029720999991957020618004+60517+022267FM-12+005499999V0201801N00211220001CN0200001N9-00111-00221099881ADDAY111999GF105991001001999999001011KA1999M+00501MD1810091+9999MW1031
0057029720999991957020700004+60517+022267FM-12+005499999V0201801N00311001501CN0100001N9+00111+00001099631ADDAY121999GF108991081061001501999999MD1710171+9999MW1021
0081029720999991957020706004+60517+022267FM-12+005499999V0202301N00211000601CN0010001N9+00111+00111099431ADDAA199000391AY141999GF108991081061000751999999KA1999N-00111MD1710051+9999MW1511
0057029720999991957020712004+60517+022267FM-12+005499999V0202201N00211001501CN0015001N9+00111+00111099271ADDAY161999GF108991081061001501999999MD1710091+9999MW1691
0081029720999991957020718004+60517+022267FM-12+005499999V0202501N00311030001CN0100001N9+00001-00111099221ADDAA199001091AY171999GF106991041061002501041001KA1999M+00111MD1510031+9999MW1011
0057029720999991957020800004+60517+022267FM-12+005499999V0203201N00621007801CN0200001N9-00111-00391099501ADDAY121999GF108991081051008001999999MD1210211+9999MW1031
0070029720999991957020806004+60517+022267FM-12+005499999V0203201N00821007801CN0500001N9-00221-00721099661ADDAY121999GF106991061051008001001001KA1999N-00281MD1210181+9999MW1011
0057029720999991957020812004+60517+022267FM-12+005499999V0203201N00621220001CN0500001N9-00221-00781100061ADDAY121999GF104991041051008001001001MD1110071+9999MW1011
0070029720999991957020818004+60517+022267FM-12+005499999V0202701N00211220001CN0200001N9-00611-00781100141ADDAY101999GF100991001001999999001001KA1999M-00111MD1210041+9999MW1021
0057029720999991957020900004+60517+022267FM-12+005499999V0200901N00311220001CN0400001N9-00781-00891099761ADDAY121999GF107991001001999999071011MD1710071+9999MW1021
0070029720999991957020906004+60517+022267FM-12+005499999V0200901N00311220001CN0400001N9-00781-00891099761ADDAY121999GF107991001001999999071011KA1999N-01111MD1710071+9999MW1021
0057029720999991957020912004+60517+022267FM-12+005499999V0200801N00511220001CN0500001N9-00501-00721099511ADDAY121999GF107991001001999999071051MD1710141+9999MW1011
0089029720999991957020918004+60517+022267FM-12+005499999V0200701N00511220001CN0300001N9-00721-00891099571ADDAY101999GF102991999001999999041001KA1999M-00391MD1210051+9999MW1011EQDQ01+000002SCOTLC
0057029720999991957021000004+60517+022267FM-12+005499999V0200701N00311220001CN0300001N9-01111-01281099811ADDAY101999GF100991001001999999001001MD1210121+9999MW1021
0089029720999991957021006004+60517+022267FM-12+005499999V0200401N00311220001CN0300001N9-01281-01391100051ADDAY101999GF101991999001999999041001KA1999N-01391MD1210151+9999MW1021EQDQ01+000002SCOTLC
0057029720999991957021012004+60517+022267FM-12+005499999V0200701N00311220001CN0400001N9-00611-01001100281ADDAY121999GF107991001001999999071999MD1210081+9999MW1031
0070029720999991957021018004+60517+022267FM-12+005499999V0200701N00211220001CN0300001N9-00721-01001100461ADDAY121999GF107991001001999999071999KA1999M-00501MD1210081+9999MW1021
0076029720999991957021100004+60517+022267FM-12+005499999V0200901N00311220001CN0300001N9-00781-00781100601ADDAY121999GF105991999001999999071001MD1210021+9999MW1011EQDQ01+000002SCOTLC
0070029720999991957021106004+60517+022267FM-12+005499999V0200701N00211220001CN0400001N9-00721-00891100621ADDAY121999GF108991001001999999071999KA1999N-00781MD1810021+9999MW1021
0057029720999991957021112004+60517+022267FM-12+005499999V0200201N00211220001CN0400001N9-00611-01001100691ADDAY121999GF106991001001999999071061MD1210031+9999MW1011
0089029720999991957021118004+60517+022267FM-12+005499999V0200401N00211220001CN0400001N9-00891-01111100781ADDAY101999GF104991999001999999041001KA1999M-00501MD1210081+9999MW1031EQDQ01+000002SCOTLC
0057029720999991957021200004+60517+022267FM-12+005499999V0200201N00211220001CN0300001N9-01001-01111100781ADDAY121999GF108991001001999999071999MD1210031+9999MW1021
0081029720999991957021206004+60517+022267FM-12+005499999V0202701N00101030001CN0200001N9-01001-01111100751ADDAA199000691AY171999GF108991021051008001071999KA1999N-01111MD1410001+9999MW1711
0057029720999991957021212004+60517+022267FM-12+005499999V0203201N00211220001CN0400001N9-00501-00891100821ADDAY111999GF103991021011008001041001MD1210051+9999MW1021
0081029720999991957021218004+60517+022267FM-12+005499999V0203201N00211220001CN0300001N9-00891-01001101001ADDAA199000691AY101999GF100991001001999999001001KA1999M-00391MD1210091+9999MW1011
0057029720999991957021300004+60517+022267FM-12+005499999V0200701N00211220001CN0300001N9-01391-01391101081ADDAY101999GF102991001001999999001011MD1210011+9999MW1021
0070029720999991957021306004+60517+022267FM-12+005499999V0200901N00411002401CN0150001N9-01111-01221100811ADDAY121999GF108991061061002501021999KA1999N-01611MD1810131+9999MW1021
0057029720999991957021312004+60517+022267FM-12+005499999V0200901N00621001501CN0100001N9-00611-00721100271ADDAY171999GF108991081061001501999999MD1710341+9999MW1711
0081029720999991957021318004+60517+022267FM-12+005499999V0200901N00621030001CN0030001N9-00501-00611099881ADDAA199001091AY171999GF108991041061004501021999KA1999M-00501MD1710131+9999MW1711
0057029720999991957021400004+60517+022267FM-12+005499999V0200901N00511001501CN0100001N9-00501-00501099741ADDAY121999GF108991081061001501999999MD1710051+9999MW1021
0081029720999991957021406004+60517+022267FM-12+005499999V0200901N00511001501CN0100001N9-00391-00391099611ADDAA199000691AY171999GF108991081061001501999999KA1999N-00501MD1710041+9999MW1221
0057029720999991957021412004+60517+022267FM-12+005499999V0200901N00621001501CN0150001N9-00281-00391099431ADDAY121999GF108991081061001501999999MD1710141+9999MW1021
0081029720999991957021418004+60517+022267FM-12+005499999V0200701N00621001501CN0025001N9-00221-00281099101ADDAA199001091AY171999GF108991081061001501999999KA1999M-00221MD1710201+9999MW1731
0057029720999991957021500004+60517+022267FM-12+005499999V0200901N00411002401CN0060001N9+00001+00001099021ADDAY171999GF108991081061002501999999MD1710041+9999MW1681
0081029720999991957021506004+60517+022267FM-12+005499999V0201401N00311000151CN0006001N9+00111+00111099051ADDAA199002091AY151999GF109991091061000251999999KA1999N-00221MD1310051+9999MW1451
0057029720999991957021512004+60517+022267FM-12+005499999V0201201N00411000601CN0008001N9+00111+00111099091ADDAY141999GF108991081061000751999999MD1210011+9999MW1771
0081029720999991957021518004+60517+022267FM-12+005499999V0200901N00411001501CN0060001N9+00001+00001098981ADDAA199002091AY171999GF108991081061001501999999KA1999M+00111MD1710071+9999MW1681
0081029720999991957021606004+60517+022267FM-12+005499999V0201201N00101000151CN0012001N9+00001+00001099111ADDAA199002091AY171999GF108991081061000251999999KA1999N+00001MD1310021+9999MW1101
0057029720999991957021612004+60517+022267FM-12+005499999V0200901N00411000601CN0012001N9+00111+00111099211ADDAY121999GF108991081061000751999999MD1810021+9999MW1101
0081029720999991957021618004+60517+022267FM-12+005499999V0200201N00211002401CN0040001N9+00001+00001099111ADDAA199001091AY171999GF108991081061002501999999KA1999M+00111MD1710031+9999MW1681
0081029720999991957021706004+60517+022267FM-12+005499999V0203201N00101001501CN0050001N9+00001+00001099171ADDAA199001091AY171999GF108991081061001501999999KA1999N+00001MD1310041+9999MW1711
0057029720999991957021712004+60517+022267FM-12+005499999V0202701N00311001501CN0050001N9+00111+00111099421ADDAY171999GF108991081061001501999999MD1210111+9999MW1231
0081029720999991957021718004+60517+022267FM-12+005499999V0202701N00411001501CN0080001N9-00111-00221099691ADDAA199000591AY171999GF108991081061001501999999KA1999M+00111MD1210151+9999MW1681
0057029720999991957021800004+60517+022267FM-12+005499999V0202701N00311002401CN0100001N9-00111-00111099961ADDAY121999GF108991081061002501999999MD1210161+9999MW1021
0081029720999991957021806004+60517+022267FM-12+005499999V0202701N00211001501CN0100001N9-00111-00221100131ADDAA199000691AY171999GF108991081061001501999999KA1999N-00111MD1210111+9999MW1711
0057029720999991957021812004+60517+022267FM-12+005499999V0202501N00211001501CN0100001N9+00001-00111100351ADDAY121999GF108991081061001501999999MD1210101+9999MW1771
0081029720999991957021818004+60517+022267FM-12+005499999V0201801N00311002401CN0080001N9-00111-00221100591ADDAA199000691AY171999GF108991081061002501999999KA1999M+00001MD1210131+9999MW1701
0057029720999991957021900004+60517+022267FM-12+005499999V0202201N00211004501CN0080001N9+00001-00221100791ADDAY121999GF108991081051004501999999MD1210121+9999MW1021
0081029720999991957021906004+60517+022267FM-12+005499999V0200901N00101001501CN0050001N9-00281-00391100721ADDAA199000691AY121999GF108991081061001501999999KA1999N-00501MD1610031+9999MW1021
0057029720999991957021912004+60517+022267FM-12+005499999V0200401N00511004501CN0100001N9+00001-00281100431ADDAY121999GF108991081051004501999999MD1710211+9999MW1711
0081029720999991957021918004+60517+022267FM-12+005499999V0200201N00621001501CN0015001N9-00111-00111100041ADDAA199001091AY171999GF108991081061001501999999KA1999M+00001MD1710181+9999MW1731
0057029720999991957022000004+60517+022267FM-12+005499999V0203601N00721001501CN0020001N9-00221-00281099771ADDAY171999GF108991081061001501999999MD1710141+9999MW1731
0081029720999991957022006004+60517+022267FM-12+005499999V0203201N00721002401CN0020001N9-00281-00391099861ADDAA199003091AY171999GF108991081061002501999999KA1999N-00391MD1210101+9999MW1731
0057029720999991957022012004+60517+022267FM-12+005499999V0203201N00721004501CN0050001N9-00221-00281100191ADDAY171999GF108991081061004501999999MD1210141+9999MW1711
0081029720999991957022018004+60517+022267FM-12+005499999V0202901N00621004501CN0200001N9-00281-00501100621ADDAA199000391AY121999GF108991081051004501999999KA1999M-00221MD1210211+9999MW1021
0057029720999991957022100004+60517+022267FM-12+005499999V0200201N00511030001CN0200001N9-00281-00391100851ADDAY121999GF108991031051008001071999MD1210111+9999MW1021
0081029720999991957022106004+60517+022267FM-12+005499999V0202301N00411004501CN0080001N9-00281-00391100951ADDAA199000691AY171999GF108991081061004501999999KA1999N-00501MD1210061+9999MW1711
0057029720999991957022112004+60517+022267FM-12+005499999V0202301N00411002401CN0100001N9-00111-00281101131ADDAY121999GF107991061061002501071999MD1210041+9999MW1011
0081029720999991957022118004+60517+022267FM-12+005499999V0202501N00211002401CN0100001N9-00281-00391101251ADDAA199000391AY121999GF108991081061002501999999KA1999M-00111MD1210071+9999MW1021
0057029720999991957022200004+60517+022267FM-12+005499999V0201801N00101001501CN0100001N9-00391-00501101321ADDAY101999GF108991081061001501999999MD1410001+9999MW1011
0070029720999991957022206004+60517+022267FM-12+005499999V0200701N00211001501CN0040001N9-00721-00781101381ADDAY121999GF108991071061001501071999KA1999N-00891MD1210031+9999MW1011
0057029720999991957022212004+60517+022267FM-12+005499999V0200201N00511001501CN0060001N9-00391-00501101341ADDAY121999GF108991081061001501999999MD1610061+9999MW1021
0081029720999991957022218004+60517+022267FM-12+005499999V0203601N00411007801CN0050001N9-00501-00611101321ADDAA199000391AY171999GF108991081051008001999999KA1999M-00281MD1610011+9999MW1731
0057029720999991957022300004+60517+022267FM-12+005499999V0203601N00511004501CN0100001N9-00501-00611101191ADDAY171999GF108991081051004501999999MD1710051+9999MW1711
0057029720999991957022306004+60517+022267FM-12+005499999V0203401N00411220001CN0080001N9-00611-00721101071ADDAY171999GF108991001001999999071999MD1710051+9999MW1711
0057029720999991957022312004+60517+022267FM-12+005499999V0203201N00511004501CN0200001N9-00501-00721100851ADDAY121999GF108991081051004501999999MD1710151+9999MW1021
0081029720999991957022318004+60517+022267FM-12+005499999V0202701N00311007801CN0100001N9-00611-00721100721ADDAA199000691AY171999GF108991081051008001999999KA1999M-00391MD1710061+9999MW1711
0057029720999991957022400004+60517+022267FM-12+005499999V0209991C00001004501CN0100001N9-00781-00891100561ADDAY171999GF108991081051004501999999MD1710121+9999MW1781
0081029720999991957022406004+60517+022267FM-12+005499999V0202701N00311004501CN0050001N9-00501-00501100331ADDAA199001091AY171999GF108991081061004501999999KA1999N-00891MD1710101+9999MW1731
0057029720999991957022412004+60517+022267FM-12+005499999V0202401N00411004501CN0050001N9-00611-00781100381ADDAY171999GF108991051061004501071999MD1210071+9999MW1711
0076029720999991957022500004+60517+022267FM-12+005499999V0201401N00101220001CN0200001N9-00721-00781100831ADDAY101999GF102991999001999999041001MD1210131+9999MW1021EQDQ01+000002SCOTLC
0081029720999991957022506004+60517+022267FM-12+005499999V0200901N00211030001CN0100001N9-01001-01111101061ADDAA199000691AY171999GF108991041051004501071999KA1999N-01221MD1210121+9999MW1711
0057029720999991957022512004+60517+022267FM-12+005499999V0201601N00311004501CN0200001N9-00281-00281101231ADDAY171999GF107991061061004501071999MD1210101+9999MW1021
0081029720999991957022518004+60517+022267FM-12+005499999V0200901N00211220001CN0050001N9-00891-01001101421ADDAA199000691AY101999GF102991021051002501001001KA1999M-00111MD1210081+9999MW1121
0081029720999991957022606004+60517+022267FM-12+005499999V0201401N00311002401CN0080001N9-00391-00391101921ADDAA199001091AY171999GF108991081061002501999999KA1999N-01001MD1210171+9999MW1711
0057029720999991957022612004+60517+022267FM-12+005499999V0201401N00211004501CN0070001N9-00281-00501102191ADDAY171999GF108991061051004501071999MD1210151+9999MW1711
0081029720999991957022618004+60517+022267FM-12+005499999V0201401N00101220001CN0150001N9-00611-00781102301ADDAA199000391AY121999GF104991001001999999071051KA1999M-00221MD1210061+9999MW1011
0057029720999991957022700004+60517+022267FM-12+005499999V0201401N00211002401CN0100001N9-00611-00721102381ADDAY121999GF108991081061002501999999MD1210031+9999MW1021
0081029720999991957022706004+60517+022267FM-12+005499999V0201401N00211002401CN0050001N9-00501-00501102461ADDAA199000591AY171999GF108991081061002501999999KA1999N-00781MD1210061+9999MW1711
0057029720999991957022712004+60517+022267FM-12+005499999V0201801N00411002401CN0020001N9-00221-00221102581ADDAY171999GF108991081061002501999999MD1210071+9999MW1731
0081029720999991957022718004+60517+022267FM-12+005499999V0209991C00001004501CN0050001N9-00281-00391102781ADDAA199001091AY171999GF108991051061004501071999KA1999M-00111MD1210121+9999MW1711
0057029720999991957022800004+60517+022267FM-12+005499999V0209991C00001004501CN0070001N9-00501-00501103031ADDAY171999GF108991081061004501999999MD1210131+9999MW1711
0081029720999991957022806004+60517+022267FM-12+005499999V0209991C00001001501CN0080001N9-00501-00501103181ADDAA199001091AY171999GF108991081061001501999999KA1999N-00781MD1210101+9999MW1021
0057029720999991957022812004+60517+022267FM-12+005499999V0203601N00311004501CN0300001N9-00281-00501103381ADDAY121999GF107991071051004501999999MD1210061+9999MW1031
0057029720999991957030100004+60517+022267FM-12+005499999V0200401N00101004501CN0100001N9-00501-00611103661ADDAY121999GF108991081061004501999999MD1210041+9999MW1021
0070029720999991957030106004+60517+022267FM-12+005499999V0201101N00101001501CN0200001N9-00611-00721103601ADDAY121999GF108991081061001501999999KA1999N-00611MD1610011+9999MW1021
0057029720999991957030112004+60517+022267FM-12+005499999V0201801N00261002401CN0200001N9-00501-00721103561ADDAY121999GF108991081061002501999999MD1710071+9999MW1021
0070029720999991957030118004+60517+022267FM-12+005499999V0201601N00211002401CN0200001N9-00391-00611103451ADDAY121999GF108991081061002501999999KA1999M-00391MD1610031+9999MW1021
0057029720999991957030200004+60517+022267FM-12+005499999V0201401N00511004501CN0200001N9-00501-00721103351ADDAY121999GF108991081051004501999999MD1710061+9999MW1021
0070029720999991957030206004+60517+022267FM-12+005499999V0201401N00311004501CN0200001N9-00611-00781103331ADDAY121999GF108991081061004501999999KA1999N-00611MD1710031+9999MW1021
0057029720999991957030212004+60517+022267FM-12+005499999V0201401N00101220001CN0200001N9-00391-00611103291ADDAY121999GF105991001001999999041041MD1810051+9999MW1011
0070029720999991957030218004+60517+022267FM-12+005499999V0201401N00411030001CN0150001N9-00781-00891103111ADDAY101999GF108991041061002501071999KA1999M-00391MD1710051+9999MW1031
0057029720999991957030300004+60517+022267FM-12+005499999V0201401N00411001501CN0150001N9-00781-00891103001ADDAY121999GF108991081061001501999999MD1710111+9999MW1021
0070029720999991957030306004+60517+022267FM-12+005499999V0201601N00621002401CN0100001N9-00721-00781102621ADDAY121999GF108991081061002501999999KA1999N-01001MD1710101+9999MW1021
0057029720999991957030312004+60517+022267FM-12+005499999V0201601N00621004501CN0100001N9-00611-00781102341ADDAY171999GF108991081061004501999999MD1710141+9999MW1711
0081029720999991957030318004+60517+022267FM-12+005499999V0201601N00721004501CN0100001N9-00721-00891101931ADDAA199000691AY171999GF108991081051004501999999KA1999M-00611MD1710231+9999MW1181
0057029720999991957030400004+60517+022267FM-12+005499999V0201401N00721004501CN0100001N9-00611-00781101351ADDAY121999GF108991081061004501999999MD1710371+9999MW1021
0081029720999991957030406004+60517+022267FM-12+005499999V0201601N00821001501CN0050001N9-00501-00611100721ADDAA199000591AY171999GF108991081061001501999999KA1999N-00721MD1710281+9999MW1731
0057029720999991957030412004+60517+022267FM-12+005499999V0201601N00721001501CN0007001N9-00391-00501100241ADDAY171999GF108991081061001501999999MD1710221+9999MW1731
0081029720999991957030418004+60517+022267FM-12+005499999V0201401N00411001501CN0030001N9-00281-00391100131ADDAA199001091AY171999GF108991081061001501999999KA1999M-00281MD1610021+9999MW1561
0057029720999991957030500004+60517+022267FM-12+005499999V0202701N00411004501CN0100001N9-00281-00391099981ADDAY171999GF108991081051004501999999MD1710021+9999MW1221
0100029720999991957030506004+60517+022267FM-12+005499999V0203001N00211004501CN0060001N9-00391-00501099981ADDAA199000391AY171999GF108991081061004501999999KA1999N+99999MD1210011+9999MW1711EQDQ01 -00282ATMN  
0057029720999991957030512004+60517+022267FM-12+005499999V0200401N00311004501CN0150001N9-00221-00391100171ADDAY171999GF107991071051004501001001MD1210091+9999MW1221
0081029720999991957030518004+60517+022267FM-12+005499999V0200201N00411004501CN0150001N9-00611-00891100801ADDAA199000591AY121999GF108991081061004501999999KA1999M-00221MD1210281+9999MW1021
0057029720999991957030600004+60517+022267FM-12+005499999V0203601N00101220001CN0150001N9-01111-01221101121ADDAY121999GF100991001001999999001001MD1210171+9999MW1011
0070029720999991957030606004+60517+022267FM-12+005499999V0200401N00051220001CN0080001N9-01501-01611101371ADDAY101999GF101991001001999999001051KA1999N-01611MD1110131+9999MW1021
0057029720999991957030612004+60517+022267FM-12+005499999V0200201N00101004501CN0150001N9-00611-00891101551ADDAY121999GF107991071051004501999999MD1210071+9999MW1021
0070029720999991957030618004+60517+022267FM-12+005499999V0200201N00211220001CN0070001N9-00891-01221101721ADDAY101999GF102991001001999999001051KA1999M-00391MD1010111+9999MW1021
0057029720999991957030700004+60517+022267FM-12+005499999V0209991C00001002401CN0100001N9-01391-01501101861ADDAY121999GF108991081061002501999999MD1210061+9999MW1031
0070029720999991957030706004+60517+022267FM-12+005499999V0200201N00101004501CN0070001N9-00781-00891101981ADDAY121999GF108991081061004501999999KA1999N-01611MD1210061+9999MW1021
0081029720999991957030718004+60517+022267FM-12+005499999V0201201N00211004501CN0100001N9-00611-00721102231ADDAA199000691AY121999GF108991081051004501999999KA1999M-00501MD1210091+9999MW1021
0057029720999991957030800004+60517+022267FM-12+005499999V0201401N00311004501CN0150001N9-00611-00781102391ADDAY121999GF108991081061004501999999MD1210091+9999MW1021
0070029720999991957030806004+60517+022267FM-12+005499999V0201201N00311004501CN0070001N9-00721-00781102501ADDAY121999GF108991081061004501999999KA1999N-00721MD1310041+9999MW1021
0057029720999991957030812004+60517+022267FM-12+005499999V0201401N00311007801CN0070001N9-00501-00721102631ADDAY171999GF108991081051008001999999MD1210101+9999MW1711
0081029720999991957030818004+60517+022267FM-12+005499999V0201601N00211004501CN0050001N9-00721-00781102861ADDAA199000691AY121999GF108991081051004501999999KA1999M-00391MD1210081+9999MW1021
0057029720999991957030912004+60517+022267FM-12+005499999V0201601N00101004501CN0040001N9-00281-00501103091ADDAY121999GF108991081051004501999999MD1510031+9999MW1771
0070029720999991957030918004+60517+022267FM-12+005499999V0202001N00511004501CN0150001N9-00281-00721103031ADDAY121999GF108991081051004501999999KA1999M-00221MD1710021+9999MW1021
0070029720999991957031006004+60517+022267FM-12+005499999V0202301N00511220001CN0070001N9-00391-00391102851ADDAY101999GF101991001001999999001011KA1999N-00501MD1710041+9999MW1031
0057029720999991957031012004+60517+022267FM-12+005499999V0202701N00721220001CN0150001N9+00111-00281102661ADDAY121999GF107991021011008001001011MD1710101+9999MW1051
0070029720999991957031018004+60517+022267FM-12+005499999V0202701N00721220001CN0150001N9-00391-00611102721ADDAY121999GF105991001001999999001021KA1999M+00111MD1310011+9999MW1011
0057029720999991957031112004+60517+022267FM-12+005499999V0202501N00621220001CN0200001N9+00391-00391101691ADDAY121999GF105991001001999999041011MD1710141+9999MW1031
0057029720999991957031200004+60517+022267FM-12+005499999V0202701N00101220001CN0150001N9+00111+00001101681ADDAY121999GF107991001001999999071999MD1710111+9999MW1021
0081029720999991957031206004+60517+022267FM-12+005499999V0203201N00211030001CN0080001N9+00111+00001101561ADDAA199000591AY121999GF108991031061002501071999KA1999N+00001MD1710061+9999MW1021
0057029720999991957031212004+60517+022267FM-12+005499999V0203201N00211220001CN0150001N9+00501+00221101471ADDAY101999GF103991011061001501001011MD1710081+9999MW1011
0070029720999991957031218004+60517+022267FM-12+005499999V0202701N00211220001CN0200001N9+00111+00001101341ADDAY121999GF107991001001999999041999KA1999M+00781MD1810061+9999MW1031
0057029720999991957031300004+60517+022267FM-12+005499999V0209991C00001220001CN0050001N9+00001+00001101201ADDAY111999GF107991001001999999071999MD1710051+9999MW1031
0070029720999991957031306004+60517+022267FM-12+005499999V0202001N00051030001CN0020001N9+00001+00001100981ADDAY121999GF108991021061002501071999KA1999N-00111MD1710101+9999MW1101
0057029720999991957031312004+60517+022267FM-12+005499999V0201801N00101220001CN0050001N9+00281+00221100791ADDAY161999GF108991001001999999071999MD1710111+9999MW1611
0081029720999991957031318004+60517+022267FM-12+005499999V0201401N00511000601CN0020001N9+00221+00221100471ADDAA199002091AY161999GF108991081061000751999999KA1999M+00391MD1710141+9999MW1611
0057029720999991957031400004+60517+022267FM-12+005499999V0201401N00721000601CN0020001N9+00001+00001100031ADDAY151999GF108991081061000751999999MD1710081+9999MW1511
0081029720999991957031406004+60517+022267FM-12+005499999V0200901N00721001501CN0070001N9-00501-00501099891ADDAA199000591AY151999GF108991081061001501999999KA1999N-00611MD1710211+9999MW1561
0057029720999991957031412004+60517+022267FM-12+005499999V0200901N00721001501CN0050001N9-00391-00501099071ADDAY161999GF108991081061001501999999MD1710411+9999MW1671
0081029720999991957031418004+60517+022267FM-12+005499999V0200201N00511002401CN0030001N9-00611-00721099051ADDAA199002091AY161999GF108991081061002501999999KA1999M-00391MD1510111+9999MW1731
0057029720999991957031500004+60517+022267FM-12+005499999V0203401N00721030001CN0100001N9-01001-01221099031ADDAY171999GF108991041061004501071999MD1210291+9999MW1711
0081029720999991957031506004+60517+022267FM-12+005499999V0203401N00511220001CN0300001N9-01221-01501099471ADDAA199002091AY171999GF103991031051004501001001KA1999N-01281MD1210201+9999MW1031
0057029720999991957031512004+60517+022267FM-12+005499999V0203201N00511004501CN0150001N9-01001-01281099541ADDAY121999GF108991081051004501999999MD1410001+9999MW1771
0081029720999991957031518004+60517+022267FM-12+005499999V0202201N00411220001CN0300001N9-01391-01611099551ADDAA199000391AY171999GF103991011051004501041001KA1999M-00891MD1310021+9999MW1011
0057029720999991957031600004+60517+022267FM-12+005499999V0203601N00311220001CN0300001N9-01721-01781099631ADDAY101999GF100991001001999999001001MD1210101+9999MW1011
0081029720999991957031606004+60517+022267FM-12+005499999V0200201N00931075001CN0200001N9-01501-01891100371ADDAA199000691AY131999GF107991031061002501001071KA1999N-01781MD1210401+9999MW1181
0057029720999991957031612004+60517+022267FM-12+005499999V0203601N00721220001CN0400001N9-01281-01891101111ADDAY101999GF103991001001999999001051MD1210371+9999MW1021
0070029720999991957031618004+60517+022267FM-12+005499999V0203601N00411220001CN0400001N9-01391-01891101641ADDAY101999GF103991001001999999001021KA1999M-01221MD1210301+9999MW1011
0057029720999991957031700004+60517+022267FM-12+005499999V0203601N00151220001CN0300001N9-02111-02281101941ADDAY101999GF100991001001999999001001MD1210071+9999MW1021
0070029720999991957031706004+60517+022267FM-12+005499999V0209991C00001220001CN0300001N9-02501-02721101901ADDAY101999GF101991001001999999001051KA1999N-02611MD1710071+9999MW1021
0057029720999991957031712004+60517+022267FM-12+005499999V0202301N00411220001CN0300001N9-00782-01391101651ADDAY101999GF103991021011008001001011MD1710141+9999MW1031
0070029720999991957031718004+60517+022267FM-12+005499999V0201401N00261220001CN0300001N9-01001-01281101171ADDAY121999GF106991001001999999071061KA1999M-00721MD1710211+9999MW1011
0057029720999991957031800004+60517+022267FM-12+005499999V0201401N00311030001CN0300001N9-01111-01391100611ADDAY121999GF108991011051008001011999MD1710441+9999MW1031
0070029720999991957031806004+60517+022267FM-12+005499999V0201201N00511030001CN0300001N9-01001-01501099941ADDAY121999GF108991041061004501021999KA1999N-01111MD1710301+9999MW1021
0057029720999991957031812004+60517+022267FM-12+005499999V0200901N00721030001CN0080001N9-00781-01281099551ADDAY171999GF108991031061004501071999MD1710161+9999MW1711
0081029720999991957031818004+60517+022267FM-12+005499999V0200601N00821030001CN0100001N9-00891-01111099691ADDAA199000391AY171999GF107991021061004501021999KA1999M-00781MD1210131+9999MW1711
0057029720999991957031900004+60517+022267FM-12+005499999V0203601N00311220001CN0100001N9-01001-01281100141ADDAY171999GF104991001001999999001021MD1210231+9999MW1011
0081029720999991957031906004+60517+022267FM-12+005499999V0200201N00411220001CN0300001N9-01391-01391100671ADDAA199000391AY101999GF101991001001999999041011KA1999N-01501MD1210251+9999MW1021
0057029720999991957031912004+60517+022267FM-12+005499999V0200401N00411220001CN0500001N9-00891-01721101061ADDAY111999GF103991001001999999001011MD1210171+9999MW1021
0070029720999991957031918004+60517+022267FM-12+005499999V0200401N00311220001CN0400001N9-01391-02001101421ADDAY101999GF101991001001999999001051KA1999M-00891MD1210231+9999MW1021
0057029720999991957032000004+60517+022267FM-12+005499999V0203601N00311220001CN0300001N9-02111-02221101811ADDAY101999GF100991001001999999001001MD1010171+9999MW1021
0070029720999991957032006004+60517+022267FM-12+005499999V0209991C00001220001CN0300001N9-02391-02501101941ADDAY101999GF101991001001999999001011KA1999N-02611MD1210061+9999MW1031
0057029720999991957032012004+60517+022267FM-12+005499999V0201601N00411220001CN0400001N9-00891-01781101781ADDAY101999GF101991001001999999041011MD1710171+9999MW1031
0070029720999991957032018004+60517+022267FM-12+005499999V0201401N00311220001CN0300001N9-01001-01721101361ADDAY121999GF108991001001999999071999KA1999M-00781MD1710211+9999MW1021
0076029720999991957032100004+60517+022267FM-12+005499999V0201201N005119999999N0200001N9-01001-01501100771ADDAY121999GF108991999001022501021999MD1710361+9999MW1021EQDQ01+000002SCOTLC
0070029720999991957032106004+60517+022267FM-12+005499999V0201201N00721002401CN0400001N9-00891-01221099871ADDAY121999GF108991051061002501071999KA1999N-01001MD1710431+9999MW1031
0057029720999991957032112004+60517+022267FM-12+005499999V0200901N00511004501CN0100001N9-00781-01001099591ADDAY171999GF108991051051004501021999MD1710091+9999MW1221
0081029720999991957032118004+60517+022267FM-12+005499999V0200901N00411004501CN0080001N9-00781-00891099711ADDAA199003091AY171999GF108991081051004501999999KA1999M-00721MD1210111+9999MW1711
0057029720999991957032200004+60517+022267FM-12+005499999V0200201N00411220001CN0200001N9-01281-01391100091ADDAY171999GF101991011051004501001001MD1210231+9999MW1011
0081029720999991957032206004+60517+022267FM-12+005499999V0200401N00411220001CN0300001N9-01391-01611100531ADDAA199000591AY121999GF106991001001999999041021KA1999N-01501MD1210241+9999MW1021
0057029720999991957032212004+60517+022267FM-12+005499999V0200201N00411030001CN0300001N9-00721-01221100971ADDAY121999GF106991011011008001041021MD1210231+9999MW1031
0070029720999991957032218004+60517+022267FM-12+005499999V0200401N00411220001CN0300001N9-00781-01221101331ADDAY121999GF107991001001999999041071KA1999M-00501MD1210251+9999MW1021
0076029720999991957032300004+60517+022267FM-12+005499999V0203601N00411220001CN0200001N9-01111-01221101851ADDAY121999GF104991999001999999021001MD1210201+9999MW1011EQDQ01+000002SCOTLC
0070029720999991957032306004+60517+022267FM-12+005499999V0200201N00411220001CN0300001N9-01611-01891102441ADDAY101999GF102991001001999999001011KA1999N-01721MD1210321+9999MW1021
0057029720999991957032312004+60517+022267FM-12+005499999V0200401N00511220001CN0400001N9-00391-01111102921ADDAY101999GF101991001001999999001011MD1210271+9999MW1021
0070029720999991957032318004+60517+022267FM-12+005499999V0200201N00211220001CN0400001N9-00501-01281103301ADDAY101999GF100991001001999999001001KA1999M-00281MD1210221+9999MW1021
0070029720999991957032406004+60517+022267FM-12+005499999V0200201N00101220001CN0300001N9-01001-01281103961ADDAY101999GF101991001001999999001011KA1999N-01111MD1210081+9999MW1021
0057029720999991957032412004+60517+022267FM-12+005499999V0202201N00411220001CN0400001N9-00221-01001104011ADDAY101999GF101991001001999999001041MD1410001+9999MW1021
0070029720999991957032418004+60517+022267FM-12+005499999V0201801N00211220001CN0400001N9-00611-01001103891ADDAY101999GF101991001001999999001011KA1999M-00111MD1610041+9999MW1021
0057029720999991957032500004+60517+022267FM-12+005499999V0201601N00411220001CN0300001N9-00891-01221103751ADDAY101999GF100991001001999999001001MD1710071+9999MW1021
0070029720999991957032506004+60517+022267FM-12+005499999V0201801N00311220001CN0400001N9-00781-00891103501ADDAY101999GF102991001001999999001011KA1999N-01111MD1710151+9999MW1031
0070029720999991957032518004+60517+022267FM-12+005499999V0201601N00621220001CN0400001N9-00221-00721103021ADDAY121999GF107991001001999999001021KA1999M-00221MD1710131+9999MW1021
0057029720999991957032600004+60517+022267FM-12+005499999V0201801N00821220001CN0400001N9-00221-00611102661ADDAY101999GF100991001001999999001001MD1610241+9999MW1011
0057029720999991957032612004+60517+022267FM-12+005499999V0201801N00721004501CN0300001N9+00001-00221102361ADDAY121999GF108991071051004501999999MD1610041+9999MW1021
0081029720999991957032618004+60517+022267FM-12+005499999V0201801N007219999999N0150001N9+00001-00111102201ADDAA199000391AY161999GF108991041061002501999999KA1999M+00111MD1710051+9999MW1611
0057029720999991957032700004+60517+022267FM-12+005499999V0201801N00511000601CN0070001N9+00001+00001102071ADDAY161999GF108991081061000751999999MD1710061+9999MW1681
0081029720999991957032706004+60517+022267FM-12+005499999V0201801N00211000601CN0020001N9+00001+00001102041ADDAA199003091AY141999GF108991081061000751999999KA1999N+00001MD1310041+9999MW1101
0076029720999991957032712004+60517+022267FM-12+005499999V0201601N00511220001CN0150001N9+00391+00001101951ADDAY121999GF107991999001999999041001MD1610041+9999MW1031EQDQ01+000002SCOTLC
0070029720999991957032718004+60517+022267FM-12+005499999V0201601N00211001501CN0070001N9+00111+00001101921ADDAY121999GF108991081061001501999999KA1999M+00501MD1210011+9999MW1021
0057029720999991957032800004+60517+022267FM-12+005499999V0201401N00101001501CN0050001N9+00001+00001101731ADDAY121999GF108991081061001501999999MD1710101+9999MW1021
0070029720999991957032806004+60517+022267FM-12+005499999V0201401N00101220001CN0100001N9+00001-00111101601ADDAY121999GF107991001001999999071999KA1999N-00111MD1710051+9999MW1021
0057029720999991957032812004+60517+022267FM-12+005499999V0200901N00051075001CN0200001N9+00781+00001101631ADDAY121999GF106991011051008001071041MD1210011+9999MW1021
0089029720999991957032818004+60517+022267FM-12+005499999V0200401N00051220001CN0200001N9+00391-00111101761ADDAY101999GF101991999001999999041001KA1999M+00781MD1210121+9999MW1021EQDQ01+000002SCOTLC
0057029720999991957032900004+60517+022267FM-12+005499999V0200201N00211220001CN0100001N9+00001+00001102051ADDAY101999GF100991001001999999001001MD1210151+9999MW1021
0070029720999991957032906004+60517+022267FM-12+005499999V0200401N00411002401CN0100001N9+00221+00111102381ADDAY121999GF107991071061002501999999KA1999N+00001MD1210221+9999MW1011
0057029720999991957032912004+60517+022267FM-12+005499999V0200701N00411007801CN0200001N9+00391-00111102601ADDAY121999GF108991061051008001071999MD1210091+9999MW1021
0070029720999991957032918004+60517+022267FM-12+005499999V0200701N00051030001CN0300001N9+00281+00001102731ADDAY121999GF107991021051004501071999KA1999M+00501MD1310091+9999MW1021
0057029720999991957033000004+60517+022267FM-12+005499999V0209991C00001220001CN0200001N9-00111-00221102801ADDAY111999GF103991031051008001001001MD1710041+9999MW1021
0070029720999991957033006004+60517+022267FM-12+005499999V0203001N00101220001CN0070001N9-00221-00221102741ADDAY121999GF107991001001999999001021KA1999N-00281MD1010021+9999MW1031
0057029720999991957033012004+60517+022267FM-12+005499999V0202901N00311220001CN0500001N9+00611-00221102831ADDAY121999GF106991001001999999001021MD1810011+9999MW1021
0070029720999991957033018004+60517+022267FM-12+005499999V0202701N00211220001CN0500001N9+00221-00281102761ADDAY121999GF103991001001999999001011KA1999M+00721MD1210021+9999MW1011
0057029720999991957033100004+60517+022267FM-12+005499999V0200201N00051220001CN0400001N9-00391-00391102761ADDAY101999GF100991001001999999001001MD1710011+9999MW1021
0070029720999991957033106004+60517+022267FM-12+005499999V0202001N00211220001CN0070001N9-00221-00281102581ADDAY101999GF100991001001999999001001KA1999N-00391MD1710121+9999MW1021
0057029720999991957033112004+60517+022267FM-12+005499999V0202001N00411220001CN0400001N9+00391-00111102581ADDAY101999GF100991001001999999001001MD1710021+9999MW1021
0089029720999991957033118004+60517+022267FM-12+005499999V0202301N00101220001CN0400001N9+00001-00221102481ADDAY101999GF101991999001999999041001KA1999M+00611MD1710011+9999MW1021EQDQ01+000002SCOTLC
0057029720999991957040100004+60517+022267FM-12+005499999V0209991C00001220001CN0003001N9-00391-00391102561ADDAY141999GF100991001001999999001001MD1210011+9999MW1441
0070029720999991957040106004+60517+022267FM-12+005499999V0209991C00001220001CN0060001N9-00391-00391102561ADDAY101999GF101991001001999999001011KA1999N-00611MD1410001+9999MW1021
0057029720999991957040112004+60517+022267FM-12+005499999V0202301N00311220001CN0300001N9+00891+00001102531ADDAY101999GF100991001001999999001001MD1710061+9999MW1021
0089029720999991957040118004+60517+022267FM-12+005499999V0202701N00211220001CN0300001N9+00501+00111102421ADDAY101999GF101991999001999999041001KA1999M+01111MD1710111+9999MW1031EQDQ01+000002SCOTLC
0057029720999991957040200004+60517+022267FM-12+005499999V0209991C00001220001CN0009001N9-00221-00221102411ADDAY101999GF100991001001999999001001MD1710021+9999MW1461
0070029720999991957040206004+60517+022267FM-12+005499999V0201801N00101220001CN0040001N9-00221-00281102281ADDAY141999GF101991001001999999001011KA1999N-00501MD1710081+9999MW1021
0070029720999991957040218004+60517+022267FM-12+005499999V0202901N00311220001CN0200001N9+00281+00001102291ADDAY101999GF101991001001999999001011KA1999M+01111MD1310071+9999MW1011
0070029720999991957040306004+60517+022267FM-12+005499999V0202701N00051220001CN0100001N9-00111-00221102531ADDAY101999GF101991001001999999001011KA1999N-00391MD1210061+9999MW1021
0057029720999991957040312004+60517+022267FM-12+005499999V0202201N00101220001CN0300001N9+00111+00111102531ADDAY101999GF100991001001999999001001MD1810011+9999MW1021
0089029720999991957040318004+60517+022267FM-12+005499999V0201801N00051220001CN0200001N9+00281+00001102301ADDAY101999GF103991001001999999041011KA1999M+99999MD1710111+9999MW1031EQDQ01 +00002ATMX  
0057029720999991957040400004+60517+022267FM-12+005499999V0202501N00101220001CN0100001N9+00001-00111102221ADDAY101999GF100991001001999999001001MD1710061+9999MW1021
0070029720999991957040406004+60517+022267FM-12+005499999V0202701N00051220001CN0120001N9+00001-00111102311ADDAY111999GF102991001001999999001011KA1999N-00221MD1210091+9999MW1051
0057029720999991957040412004+60517+022267FM-12+005499999V0202201N00411220001CN0400001N9+00281+00001102201ADDAY121999GF106991001001999999001021MD1710101+9999MW1021
0070029720999991957040418004+60517+022267FM-12+005499999V0202001N00151220001CN0100001N9+00281+00111101961ADDAY121999GF106991001001999999041021KA1999M+00281MD1710101+9999MW1011
0057029720999991957040500004+60517+022267FM-12+005499999V0202501N00211220001CN0100001N9+00501+00001101681ADDAY101999GF102991001001999999001051MD1710111+9999MW1031
0070029720999991957040506004+60517+022267FM-12+005499999V0202501N00101220001CN0200001N9+00391+00111101451ADDAY121999GF107991001001999999041091KA1999N+00221MD1710081+9999MW1031
0057029720999991957040512004+60517+022267FM-12+005499999V0202501N00411220001CN0150001N9+01001+00391101141ADDAY121999GF107991001001999999011021MD1710171+9999MW1011
0070029720999991957040518004+60517+022267FM-12+005499999V0202301N00211220001CN0100001N9+00501+00281100741ADDAY121999GF107991001001999999041071KA1999M+01001MD1710211+9999MW1031
0089029720999991957040606004+60517+022267FM-12+005499999V0202701N00311220001CN0300001N9+00391+00001100321ADDAY101999GF101991999001999999041001KA1999N+00001MD1710081+9999MW1021EQDQ01+000002SCOTLC
0057029720999991957040612004+60517+022267FM-12+005499999V0203201N00721007801CN0500001N9+00781+00001100201ADDAY121999GF106991061011008001001011MD1710011+9999MW1021
0070029720999991957040618004+60517+022267FM-12+005499999V0203201N00511004501CN0400001N9+00281+00001100361ADDAY121999GF107991071051004501999999KA1999M+00891MD1210121+9999MW1031
0081029720999991957040706004+60517+022267FM-12+005499999V0203601N00931004501CN0500001N9-00111-00781101111ADDAA199000691AY121999GF105991051011004501999999KA1999N-00111MD1210281+9999MW1031
0057029720999991957040712004+60517+022267FM-12+005499999V0203601N01131220001CN0500001N9+00281-01221101551ADDAY101999GF100991001001999999001001MD1210251+9999MW1181
0070029720999991957040718004+60517+022267FM-12+005499999V0203601N00621220001CN0400001N9+00111-01111101921ADDAY111999GF104991001001999999001021KA1999M+00281MD1210191+9999MW1031
0057029720999991957040800004+60517+022267FM-12+005499999V0202301N00101220001CN0200001N9-00221-00391101601ADDAY121999GF106991001001999999071999MD1710311+9999MW1031
0100029720999991957040806004+60517+022267FM-12+005499999V0202301N00511001501CN0012001N9-00111-00111100691ADDAA199002091AY171999GF108991081061001501999999KA1999N-00281MD1710532+9999MW1731EQDQ01+000532APC3  
0057029720999991957040812004+60517+022267FM-12+005499999V0202601N00931004501CN0300001N9+00281-00221100661ADDAY181999GF107991071031004501001001MD1210151+9999MW1021
0057029720999991957040900004+60517+022267FM-12+005499999V0203601N00621220001CN0300001N9-00611-01391101391ADDAY101999GF100991001001999999001001MD1210031+9999MW1181
0070029720999991957040906004+60517+022267FM-12+005499999V0203401N00821220001CN0300001N9-00501-01221101111ADDAY101999GF101991011011004501001011KA1999N-00721MD1710181+9999MW1031
0057029720999991957040912004+60517+022267FM-12+005499999V0203201N01031004501CN0300001N9-00221-00781100621ADDAY181999GF107991071091004501041999MD1710211+9999MW1851
0081029720999991957040918004+60517+022267FM-12+005499999V0203401N00411004501CN0300001N9-00281-00391100501ADDAA199000691AY181999GF106991051091004501041001KA1999M-00111MD1610051+9999MW1261
0057029720999991957041000004+60517+022267FM-12+005499999V0203601N00101220001CN0400001N9-00781-00781100351ADDAY101999GF100991001001999999001001MD1710081+9999MW1011
0081029720999991957041006004+60517+022267FM-12+005499999V0200401N00101220001CN0400001N9-00721-01001100191ADDAA199001091AY101999GF101991001001999999001051KA1999N-01111MD1710061+9999MW1021
0057029720999991957041012004+60517+022267FM-12+005499999V0200401N00101220001CN0500001N9-00111-00891100011ADDAY101999GF101991011011008001001001MD1710101+9999MW1021
0070029720999991957041018004+60517+022267FM-12+005499999V0200401N00211220001CN0500001N9-00221-00611099911ADDAY101999GF102991011041008001001051KA1999M+00111MD1610031+9999MW1011
0057029720999991957041100004+60517+022267FM-12+005499999V0200401N00411220001CN0300001N9-00501-00781099881ADDAY101999GF100991001001999999001001MD1710021+9999MW1021
0070029720999991957041106004+60517+022267FM-12+005499999V0200401N00621220001CN0400001N9-00501-01111099781ADDAY121999GF106991001001999999001061KA1999N-00721MD1610021+9999MW1021
0057029720999991957041112004+60517+022267FM-12+005499999V0200701N00931220001CN0400001N9+00001-01281099621ADDAY121999GF107991001001999999071071MD1710121+9999MW1021
0070029720999991957041118004+60517+022267FM-12+005499999V0203601N00621220001CN0400001N9-00111-01001099731ADDAY121999GF107991001001999999071071KA1999M+00111MD1210081+9999MW1021
0070029720999991957041206004+60517+022267FM-12+005499999V0203401N00511030001CN0300001N9-00281-00501100071ADDAY121999GF106991031051004501041061KA1999N-00501MD1210091+9999MW1011
0057029720999991957041212004+60517+022267FM-12+005499999V0203601N00411007801CN0100001N9-00221-00611100281ADDAY171999GF108991071011008001071999MD1210121+9999MW1851
0081029720999991957041218004+60517+022267FM-12+005499999V0203201N00511004501CN0070001N9-00281-00501100521ADDAA199000391AY181999GF108991081051004501999999KA1999M-00111MD1210111+9999MW1871
0076029720999991957041300004+60517+022267FM-12+005499999V0202701N00101220001CN0300001N9-00611-00891100691ADDAY101999GF102991999001999999041001MD1210031+9999MW1011EQDQ01+000002SCOTLC
0081029720999991957041306004+60517+022267FM-12+005499999V0203201N00211220001CN0300001N9-00611-00781100801ADDAA199000691AY101999GF103991001001999999041011KA1999N-00781MD1810031+9999MW1021
0057029720999991957041312004+60517+022267FM-12+005499999V0203201N00511007801CN0300001N9-00111-00891100951ADDAY181999GF106991061031008001001011MD1210081+9999MW1261
0081029720999991957041318004+60517+022267FM-12+005499999V0203001N00411030001CN0100001N9-00391-00721101131ADDAA199000691AY181999GF106991041031008001041051KA1999M+00001MD1210081+9999MW1261
0081029720999991957041406004+60517+022267FM-12+005499999V0202701N00101075001CN0100001N9-00501-00721101301ADDAA199000391AY171999GF107991031011004501001071KA1999N-00781MD1210081+9999MW1711
0057029720999991957041412004+60517+022267FM-12+005499999V0203001N00101004501CN0045001N9-00281-00391101511ADDAY181999GF108991061051004501071999MD1210081+9999MW1731
0081029720999991957041418004+60517+022267FM-12+005499999V0203201N00101004501CN0100001N9-00391-00501101641ADDAA199001091AY181999GF107991071091004501999999KA1999M-00221MD1210111+9999MW1851
0057029720999991957041500004+60517+022267FM-12+005499999V0209991C00001220001CN0100001N9-00781-00781101711ADDAY181999GF103991011051004501001051MD1210041+9999MW1011
0081029720999991957041506004+60517+022267FM-12+005499999V0203201N00051220001CN0150001N9-00721-00781101851ADDAA199001091AY101999GF102991001001999999001011KA1999N-01221MD1210061+9999MW1021
0057029720999991957041512004+60517+022267FM-12+005499999V0200901N00051004501CN0200001N9-00221-00721101991ADDAY181999GF107991071091004501999999MD1210071+9999MW1021
0081029720999991957041518004+60517+022267FM-12+005499999V0203001N00101030001CN0300001N9-00281-00501102071ADDAA199000691AY121999GF105991031091004501041001KA1999M-00111MD1310031+9999MW1011
0057029720999991957041600004+60517+022267FM-12+005499999V0209991C00001220001CN0300001N9-00781-00891102091ADDAY101999GF100991001001999999001001MD1710041+9999MW1021
0081029720999991957041606004+60517+022267FM-12+005499999V0209991C00001220001CN0100001N9-00501-00721102001ADDAA199000391AY101999GF101991011021004501001051KA1999N-01111MD1510011+9999MW1031
0057029720999991957041612004+60517+022267FM-12+005499999V0200401N00101220001CN0400001N9+00111-00781101821ADDAY111999GF104991041011008001001001MD1710121+9999MW1011
0070029720999991957041618004+60517+022267FM-12+005499999V0202701N00211220001CN0300001N9-00111-00721101821ADDAY101999GF101991001001999999041011KA1999M+00281MD1310071+9999MW1011
0057029720999991957041700004+60517+022267FM-12+005499999V0209991C00001220001CN0300001N9-00611-00721101931ADDAY101999GF100991001001999999001001MD1210021+9999MW1021
0070029720999991957041706004+60517+022267FM-12+005499999V0203001N00211220001CN0150001N9-00281-00611102191ADDAY101999GF101991001001999999001051KA1999N-00781MD1210161+9999MW1021
0070029720999991957041718004+60517+022267FM-12+005499999V0202201N00211220001CN0400001N9+00001-00501102501ADDAY101999GF100991001001999999001001KA1999M+00391MD1210081+9999MW1021
0057029720999991957041800004+60517+022267FM-12+005499999V0201601N00211220001CN0200001N9-00391-00501102621ADDAY101999GF100991001001999999001001MD1210041+9999MW1021
0070029720999991957041806004+60517+022267FM-12+005499999V0201601N00101220001CN0300001N9+00001-00501102681ADDAY101999GF103991001001999999001011KA1999N-00721MD1210061+9999MW1031
0057029720999991957041812004+60517+022267FM-12+005499999V0201201N00311220001CN0400001N9+00111-00281102401ADDAY121999GF107991001001999999041021MD1710101+9999MW1011
0070029720999991957041818004+60517+022267FM-12+005499999V0201101N00411220001CN0400001N9+00391-00501102491ADDAY121999GF106991001001999999041021KA1999M+00781MD1510041+9999MW1021
0057029720999991957041900004+60517+022267FM-12+005499999V0201201N00101220001CN0300001N9+00001-00281102301ADDAY121999GF108991001001999999071999MD1710101+9999MW1031
0081029720999991957041906004+60517+022267FM-12+005499999V0200901N00311030001CN0100001N9+00111+00111101841ADDAA199000691AY171999GF108991041061004501071999KA1999N+00001MD1710201+9999MW1221
0057029720999991957041912004+60517+022267FM-12+005499999V0201401N00211002401CN0150001N9+00221+00001101621ADDAY161999GF108991081061002501999999MD1710091+9999MW1211
0081029720999991957041918004+60517+022267FM-12+005499999V0200701N00101004501CN0150001N9+00221+00111101551ADDAA199000691AY121999GF108991081051004501999999KA1999M+00221MD1510031+9999MW1021
0057029720999991957042000004+60517+022267FM-12+005499999V0200701N00051004501CN0015001N9+00001+00001101531ADDAY171999GF108991081061004501999999MD1710031+9999MW1681
0081029720999991957042006004+60517+022267FM-12+005499999V0200201N00051000601CN0009001N9+00001+00001101601ADDAA199001091AY171999GF108991081061000751999999KA1999N+00001MD1210101+9999MW1681
0057029720999991957042012004+60517+022267FM-12+005499999V0202701N00311002401CN0200001N9+00281+00221101951ADDAY161999GF108991071051002501999999MD1210241+9999MW1021
0081029720999991957042018004+60517+022267FM-12+005499999V0202501N00101004501CN0150001N9+00221+00001102491ADDAA199000591AY121999GF108991081051004501999999KA1999M+00281MD1210261+9999MW1021
0070029720999991957042106004+60517+022267FM-12+005499999V0209991C00001002401CN0150001N9+00001-00221103111ADDAY121999GF108991081061002501999999KA1999N+00001MD1210151+9999MW1021
0057029720999991957042112004+60517+022267FM-12+005499999V0200701N00101220001CN0300001N9+00501+00111103271ADDAY101999GF104991041011008001001001MD1210021+9999MW1011
0070029720999991957042118004+60517+022267FM-12+005499999V0200701N00101030001CN0300001N9+00501+00111103351ADDAY121999GF107991021051008001071999KA1999M+00721MD1210061+9999MW1011
0057029720999991957042200004+60517+022267FM-12+005499999V0200601N00101007801CN0200001N9+00221+00111103551ADDAY121999GF108991081051008001999999MD1210071+9999MW1021
0070029720999991957042206004+60517+022267FM-12+005499999V0209991C00001021001CN0070001N9+00111+00001103781ADDAY121999GF108991081001022501071999KA1999N+00001MD1210151+9999MW1011
0057029720999991957042212004+60517+022267FM-12+005499999V0201601N00101030001CN0200001N9+00611-00111103901ADDAY121999GF108991031051008001071999MD1210031+9999MW1021
0070029720999991957042218004+60517+022267FM-12+005499999V0203601N00051007801CN0150001N9+00501+00111103921ADDAY121999GF107991061051008001071999KA1999M+00611MD1110041+9999MW1021
0070029720999991957042306004+60517+022267FM-12+005499999V0200701N00311220001CN0200001N9+00391-00221104091ADDAY101999GF101991001001999999001011KA1999N-00281MD1210081+9999MW1021
0057029720999991957042312004+60517+022267FM-12+005499999V0200701N00511030001CN0300001N9+00781-00111103921ADDAY131999GF108991031051008001041071MD1710111+9999MW1021
0070029720999991957042318004+60517+022267FM-12+005499999V0200401N00411220001CN0300001N9+00721-00111103741ADDAY121999GF106991001001999999041051KA1999M+00891MD1710041+9999MW1021
0057029720999991957042400004+60517+022267FM-12+005499999V0200401N00211220001CN0200001N9+00221+00001103641ADDAY111999GF104991001001999999071021MD1810101+9999MW1031
0081029720999991957042406004+60517+022267FM-12+005499999V0200701N00411220001CN0120001N9+00281+00111103311ADDAA199000391AY121999GF108991001001999999071999KA1999N+00111MD1710171+9999MW1601
0081029720999991957042418004+60517+022267FM-12+005499999V0202201N00101004501CN0150001N9+00391+00221103051ADDAA199000691AY121999GF108991081051004501999999KA1999M+00781MD1810021+9999MW1021
0057029720999991957042500004+60517+022267FM-12+005499999V0202401N00101007801CN0060001N9+00281+00281102961ADDAY121999GF108991081051008001999999MD1710031+9999MW1021
0070029720999991957042506004+60517+022267FM-12+005499999V0200201N00311007801CN0150001N9+00281+00001102971ADDAY121999GF107991061051008001071999KA1999N+00221MD1210041+9999MW1031
0057029720999991957042512004+60517+022267FM-12+005499999V0200401N00311012301CN0300001N9+01111+00111102941ADDAY121999GF107991061011012501041001MD1610011+9999MW1021
0089029720999991957042518004+60517+022267FM-12+005499999V0203601N00511220001CN0300001N9+00891+00281102981ADDAY101999GF101991999001999999041001KA1999M+01281MD1210071+9999MW1011EQDQ01+000002SCOTLC
0057029720999991957042600004+60517+022267FM-12+005499999V0200201N00411220001CN0300001N9+00391+00111103121ADDAY101999GF100991001001999999001001MD1210041+9999MW1021
0089029720999991957042606004+60517+022267FM-12+005499999V0200201N00411220001CN0300001N9+00501+00001103151ADDAY101999GF103991999001999999041001KA1999N+00221MD1310021+9999MW1021EQDQ01+000002SCOTLC
0057029720999991957042612004+60517+022267FM-12+005499999V0200701N00511220001CN0300001N9+01391+00221103071ADDAY101999GF102991021011008001041001MD1710091+9999MW1021
0089029720999991957042618004+60517+022267FM-12+005499999V0200401N00311220001CN0300001N9+01221+00281102911ADDAY101999GF101991999001999999041001KA1999M+01611MD1710051+9999MW1011EQDQ01+000002SCOTLC
0070029720999991957042706004+60517+022267FM-12+005499999V0200401N00411030001CN0300001N9+00611-00111102591ADDAY121999GF107991011051008001071999KA1999N+00001MD1710161+9999MW1031
0057029720999991957042712004+60517+022267FM-12+005499999V0200901N00411030001CN0150001N9+01111+00611102311ADDAY161999GF108991031051004501021999MD1710131+9999MW1611
0081029720999991957042718004+60517+022267FM-12+005499999V0200901N00051030001CN0200001N9+00891+00611101981ADDAA199001091AY161999GF107991021051004501071001KA1999M+01221MD1710151+9999MW1011
0057029720999991957042800004+60517+022267FM-12+005499999V0209991C00001220001CN0002001N9+00281+00281101751ADDAY101999GF100991001001999999001001MD1710091+9999MW1461
0070029720999991957042806004+60517+022267FM-12+005499999V0209991C00001220001CN0100001N9+00611+00501101651ADDAY141999GF100991001001999999001001KA1999N+00111MD1610031+9999MW1011
0057029720999991957042812004+60517+022267FM-12+005499999V0202701N00311220001CN0400001N9+01611+00281101431ADDAY101999GF101991011011012501001001MD1710121+9999MW1021
0070029720999991957042818004+60517+022267FM-12+005499999V0202901N00211220001CN0500001N9+01221+00111101181ADDAY121999GF107991001001999999041071KA1999M+01721MD1710131+9999MW1021
0057029720999991957042900004+60517+022267FM-12+005499999V0200201N00101220001CN0300001N9+00781+00111101081ADDAY121999GF107991001001999999071999MD1710071+9999MW1011
0070029720999991957042906004+60517+022267FM-12+005499999V0201201N00101220001CN0300001N9+01001+00391101001ADDAY121999GF106991001001999999041011KA1999N+00281MD1210011+9999MW1021
0057029720999991957042912004+60517+022267FM-12+005499999V0201801N00311220001CN0500001N9+01611+00391100841ADDAY111999GF103991031021012501001011MD1710141+9999MW1011
0070029720999991957042918004+60517+022267FM-12+005499999V0202001N00311000601CN0040001N9+00781+00611100721ADDAY121999GF108991081071000751999999KA1999M+01721MD1710091+9999MW1021
0057029720999991957043000004+60517+022267FM-12+005499999V0201601N00101000151CN0002001N9+00501+00501100461ADDAY141999GF109991091071000251999999MD1710161+9999MW1471
0070029720999991957043006004+60517+022267FM-12+005499999V0202001N00211000151CN0008001N9+00391+00391100291ADDAY141999GF109991091071000251999999KA1999N+00281MD1710041+9999MW1431
0057029720999991957043012004+60517+022267FM-12+005499999V0202701N00101001501CN0150001N9+00721+00501100431ADDAY121999GF108991081051001501999999MD1210111+9999MW1011
0070029720999991957043018004+60517+022267FM-12+005499999V0202301N00101004501CN0200001N9+00611+00391100281ADDAY121999GF108991081061004501999999KA1999M+00891MD1710141+9999MW1021
0081029720999991957050106004+60517+022267FM-12+005499999V0203401N00931001501CN0015001N9+00111+00111999999ADDAA199000391AY171999GF108991081061001501999999KA1999N+00001MD1210171+9999MW1681
0057029720999991957050112004+60517+022267FM-12+005499999V0203201N01031007801CN0300001N9+00611-00501100641ADDAY121999GF106991061011008001001001MD1210301+9999MW1011
0081029720999991957050118004+60517+022267FM-12+005499999V0203201N00721220001CN0300001N9+00391-00781101241ADDAA199000691AY101999GF101991011051012501001001KA1999M+00721MD1210251+9999MW1011
0070029720999991957050206004+60517+022267FM-12+005499999V0202001N00311220001CN0500001N9+00501-00281101301ADDAY101999GF102991001001999999071041KA1999N-00221MD1210021+9999MW1031
0057029720999991957050212004+60517+022267FM-12+005499999V0201801N00721075001CN0400001N9+00721-00111101141ADDAY121999GF106991011011012501071061MD1710121+9999MW1031
0081029720999991957050218004+60517+022267FM-12+005499999V0202001N00511030001CN0150001N9+00281-00221101031ADDAA199000391AY161999GF108991031051004501071999KA1999M+00781MD1710081+9999MW1631
0057029720999991957050300004+60517+022267FM-12+005499999V0202401N00101030001CN0200001N9+00221+00221100921ADDAY121999GF107991041051004501071999MD1710081+9999MW1031
0081029720999991957050306004+60517+022267FM-12+005499999V0201201N00051000601CN0050001N9+00221+00221100821ADDAA199000691AY121999GF108991081061000751999999KA1999N+00111MD1710011+9999MW1021
0057029720999991957050312004+60517+022267FM-12+005499999V0201801N00721030001CN0400001N9+00891+00111100481ADDAY121999GF107991041021008001071999MD1710241+9999MW1031
0081029720999991957050318004+60517+022267FM-12+005499999V0201801N00511002401CN0100001N9+00281+00221100101ADDAA199002091AY161999GF108991071061002501021999KA1999M+01001MD1710221+9999MW1631
0057029720999991957050400004+60517+022267FM-12+005499999V0201801N00621000601CN0015001N9+00281+00281099681ADDAY151999GF108991081061000751999999MD1710171+9999MW1531
0081029720999991957050406004+60517+022267FM-12+005499999V0201801N00721000151CN0010001N9+00391+00391099221ADDAA199005091AY161999GF108991081061000251999999KA1999N+00281MD1710131+9999MW1631
0057029720999991957050412004+60517+022267FM-12+005499999V0201801N00621002401CN0100001N9+00501+00281099261ADDAY121999GF107991061091002501071999MD1110031+9999MW1021
0081029720999991957050418004+60517+022267FM-12+005499999V0201601N00511002401CN0200001N9+00281+00221099141ADDAA199003091AY161999GF108991081061002501999999KA1999M+00501MD1710071+9999MW1611
0057029720999991957050500004+60517+022267FM-12+005499999V0201401N00211002401CN0100001N9+00221+00221098961ADDAY161999GF108991081061002501999999MD1710151+9999MW1611
0081029720999991957050506004+60517+022267FM-12+005499999V0209991C00001002401CN0400001N9+00221+00111098941ADDAA199002091AY161999GF108991061061002501071999KA1999N+00111MD1310061+9999MW1021
0057029720999991957050512004+60517+022267FM-12+005499999V0202701N00311002401CN0450001N9+00221+00221099331ADDAY141999GF108991081061002501999999MD1210241+9999MW1401
0081029720999991957050518004+60517+022267FM-12+005499999V0202001N00411004501CN0300001N9+00221+00001099721ADDAA199002091AY121999GF107991071071004501999999KA1999M+00611MD1210131+9999MW1021
0057029720999991957050600004+60517+022267FM-12+005499999V0202301N00211002401CN0100001N9+00111+00111099991ADDAY171999GF108991081061002501999999MD1210091+9999MW1681
0081029720999991957050606004+60517+022267FM-12+005499999V0202501N00101002401CN0100001N9+00111+00111100281ADDAA199001091AY171999GF108991071061002501999999KA1999N+00001MD1210221+9999MW1681
0057029720999991957050612004+60517+022267FM-12+005499999V0202701N00511004501CN0150001N9+00281+00001100681ADDAY181999GF107991071031004501999999MD1210201+9999MW1681
0081029720999991957050618004+60517+022267FM-12+005499999V0202501N00311220001CN0200001N9+00221-00281101121ADDAA199001091AY121999GF104991031011008001071001KA1999M+00391MD1210191+9999MW1011
0070029720999991957050706004+60517+022267FM-12+005499999V0200401N00051000601CN0010001N9-00111-00111101671ADDAY141999GF107991071061000751999999KA1999N-00391MD1210091+9999MW1101
0057029720999991957050712004+60517+022267FM-12+005499999V0200401N00621030001CN0150001N9+00391-00111101501ADDAY161999GF108991031061004501021999MD1710111+9999MW1611
0081029720999991957050718004+60517+022267FM-12+005499999V0200401N00511001501CN0100001N9+00221+00111101331ADDAA199001091AY161999GF108991081061001501999999KA1999M+00501MD1710091+9999MW1631
0100029720999991957050806004+60517+022267FM-12+005499999V0200401N00311220001CN0300001N9+00501+00391100971ADDAA199002091AY111999GF104991999001999999071001KA1999N+00221MD1710031+9999MW1021EQDQ01+000002SCOTLC
0057029720999991957050812004+60517+022267FM-12+005499999V0200401N00621030001CN0400001N9+00781+00611100611ADDAY121999GF108991021051008001071071MD1710221+9999MW1031
0100029720999991957050818004+60517+022267FM-12+005499999V0200401N00621001501CN0080001N9+00891+00781100161ADDAA199006091AY161999GF108991071061001501021999KA1999M+99999MD1710301+9999MW1631EQDQ01 +00782ATMX  
0057029720999991957050900004+60517+022267FM-12+005499999V0203601N00211001501CN0060001N9+00781+00781099731ADDAY161999GF108991081061001501999999MD1710081+9999MW1611
0081029720999991957050906004+60517+022267FM-12+005499999V0202301N00411000601CN0040001N9+00501+00501100421ADDAA199007091AY161999GF108991081061000751999999KA1999N+00501MD1210471+9999MW1211
0057029720999991957051000004+60517+022267FM-12+005499999V0200201N00311000151CN0002001N9+00221+00221102091ADDAY121999GF109991091061000251999999MD1110061+9999MW1471
0070029720999991957051006004+60517+022267FM-12+005499999V0200401N00511000151CN0008001N9+00281+00281102101ADDAY141999GF109991091061000251999999KA1999N+00221MD1010021+9999MW1451
0057029720999991957051012004+60517+022267FM-12+005499999V0200401N00721220001CN0300001N9+01001+00721101691ADDAY101999GF104991001001999999041021MD1710211+9999MW1021
0070029720999991957051018004+60517+022267FM-12+005499999V0200601N00411030001CN0300001N9+01501+01001101521ADDAY121999GF108991031051008001071999KA1999M+02001MD1610041+9999MW1031
0057029720999991957051100004+60517+022267FM-12+005499999V0200901N00511220001CN0150001N9+01221+01111101511ADDAY181999GF104991001001999999041051MD1710051+9999MW1011
0081029720999991957051106004+60517+022267FM-12+005499999V0201701N00361030001CN0300001N9+01001+00721101691ADDAA199000691AY121999GF107991021021004501041021KA1999N+00891MD1210151+9999MW1011
0057029720999991957051112004+60517+022267FM-12+005499999V0201501N00621012301CN0300001N9+01721+00611101711ADDAY111999GF105991051021012501001011MD1210011+9999MW1021
0070029720999991957051118004+60517+022267FM-12+005499999V0201801N00211030001CN0300001N9+01611+00781101671ADDAY121999GF108991031051008001071999KA1999M+01891MD1710021+9999MW1031
0057029720999991957051200004+60517+022267FM-12+005499999V0201301N00211220001CN0300001N9+01111+00721101521ADDAY121999GF107991001001999999071999MD1710101+9999MW1021
0081029720999991957051206004+60517+022267FM-12+005499999V0202101N00361220001CN0150001N9+01001+00781101451ADDAA199000691AY121999GF107991001001999999071999KA1999N+00891MD1510031+9999MW1021
0057029720999991957051212004+60517+022267FM-12+005499999V0202101N00511004501CN0200001N9+00891+00391101571ADDAY121999GF108991081051004501999999MD1210061+9999MW1031
0070029720999991957051218004+60517+022267FM-12+005499999V0202101N00411004501CN0080001N9+00611+00391101721ADDAY121999GF108991061051004501021999KA1999M+01001MD1210031+9999MW1021
0057029720999991957051300004+60517+022267FM-12+005499999V0201601N00311001501CN0070001N9+00391+00391101721ADDAY121999GF108991081061001501999999MD1210061+9999MW1501
0081029720999991957051306004+60517+022267FM-12+005499999V0202001N00051000601CN0015001N9+00501+00501101861ADDAA199000691AY141999GF108991081061000751999999KA1999N+00281MD1210041+9999MW1101
0089029720999991957051318004+60517+022267FM-12+005499999V0202001N00211220001CN0300001N9+01111+00611101781ADDAY101999GF101991001001999999001011KA1999M+99999MD1710071+9999MW1021EQDQ01 +00502ATMX  
0070029720999991957051406004+60517+022267FM-12+005499999V0201301N00411075001CN0200001N9+01111+00501101441ADDAY121999GF105991011011008001041011KA1999N+00391MD1810151+9999MW1021
0057029720999991957051412004+60517+022267FM-12+005499999V0202001N00461220001CN0300001N9+01721+00721101351ADDAY121999GF107991001001999999041021MD1710011+9999MW1021
0081029720999991957051418004+60517+022267FM-12+005499999V0202301N00311220001CN0150001N9+01221+00781101291ADDAA199000691AY121999GF107991001001999999071061KA1999M+01781MD1710081+9999MW1021
0076029720999991957051500004+60517+022267FM-12+005499999V0202001N00211220001CN0150001N9+00391+00281101171ADDAY101999GF102991999001999999041001MD1710061+9999MW1021EQDQ01+000002SCOTLC
0070029720999991957051506004+60517+022267FM-12+005499999V0202701N00311030001CN0150001N9+01111+00781101081ADDAY121999GF107991011011008001041071KA1999N+00391MD1410001+9999MW1021
0057029720999991957051512004+60517+022267FM-12+005499999V0202801N00621220001CN0300001N9+01501+00611101221ADDAY101999GF101991011011012501001001MD1210081+9999MW1011
0070029720999991957051518004+60517+022267FM-12+005499999V0203201N00511220001CN0300001N9+01221+00501101501ADDAY101999GF101991011041008001001001KA1999M+01611MD1210151+9999MW1021
0057029720999991957051600004+60517+022267FM-12+005499999V0209991C00001220001CN0150001N9+00501+00501101771ADDAY101999GF100991001001999999001001MD1210081+9999MW1111
0081029720999991957051606004+60517+022267FM-12+005499999V0201101N00411220001CN0200001N9+00781+00501101921ADDAA199000691AY121999GF107991001001999999071999KA1999N+00221MD1210111+9999MW1021
0057029720999991957051612004+60517+022267FM-12+005499999V0202301N00511220001CN0200001N9+01721+00721102001ADDAY101999GF103991001001999999001051MD1210031+9999MW1011
0070029720999991957051618004+60517+022267FM-12+005499999V0202101N00311220001CN0300001N9+01391+00781101921ADDAY101999GF102991001001999999001011KA1999M+01781MD1710031+9999MW1011
0057029720999991957051700004+60517+022267FM-12+005499999V0201501N00411220001CN0100001N9+00781+00721101871ADDAY101999GF102991001001999999001011MD1710071+9999MW1021
0070029720999991957051706004+60517+022267FM-12+005499999V0202001N00621220001CN0200001N9+01391+00721101581ADDAY101999GF101991001001999999001011KA1999N+00781MD1710151+9999MW1021
0057029720999991957051712004+60517+022267FM-12+005499999V0202001N00721220001CN0500001N9+01891+00611101461ADDAY101999GF101991011011012501001001MD1710011+9999MW1021
0081029720999991957051718004+60517+022267FM-12+005499999V0202101N00311004501CN0120001N9+01001+00781101241ADDAA199001091AY111999GF108991061051004501071999KA1999M+01891MD1510061+9999MW1011
0057029720999991957051800004+60517+022267FM-12+005499999V0202201N00361220001CN0100001N9+00721+00611101301ADDAY111999GF103991001001999999071011MD1710031+9999MW1011
0070029720999991957051806004+60517+022267FM-12+005499999V0202301N00411220001CN0300001N9+01221+00721101351ADDAY101999GF101991001001999999001011KA1999N+00611MD1210061+9999MW1021
0078029720999991957051812004+60517+022267FM-12+005499999V0202201N00621220001CN0500001N9+01611+00281101371ADDAY111999GF105991021011012501001041MW1011EQDQ01+000012APCTENQ02+000002APC3  
0070029720999991957051818004+60517+022267FM-12+005499999V0202401N00511220001CN0400001N9+01281+00721101331ADDAY111999GF101991011011012501001001KA1999M+01721MD1810021+9999MW1011
0057029720999991957051912004+60517+022267FM-12+005499999V0202201N00511220001CN0500001N9+01891+00721101771ADDAY101999GF102991021021012501001001MD1110031+9999MW1011
0070029720999991957051918004+60517+022267FM-12+005499999V0202001N00051220001CN0200001N9+01611+00611101601ADDAY101999GF101991001001999999001011KA1999M+01891MD1710091+9999MW1021
0081029720999991957052018004+60517+022267FM-12+005499999V0202101N00211030001CN0300001N9+01501+01111100881ADDAA199000691AY121999GF107991041051008001071999KA1999M+01891MD1710041+9999MW1021
0057029720999991957052100004+60517+022267FM-12+005499999V0209991C00001002401CN0150001N9+01111+01001100891ADDAY161999GF107991071061002501999999MD1710021+9999MW1631
0081029720999991957052106004+60517+022267FM-12+005499999V0203001N00101030001CN0060001N9+01111+01001100961ADDAA199010091AY161999GF107991031061001501071999KA1999N+01001MD1210091+9999MW1011
0070029720999991957052118004+60517+022267FM-12+005499999V0200201N00511007801CN0300001N9+01281+01001101321ADDAY121999GF106991061081008001001001KA1999M+01611MD1310161+9999MW1031
0070029720999991957052206004+60517+022267FM-12+005499999V0200301N00511030001CN0400001N9+01111+00611101791ADDAY121999GF107991031081008001071999KA1999N+00891MD1210161+9999MW1031
0057029720999991957052212004+60517+022267FM-12+005499999V0200401N00621075001CN0400001N9+01781+00111101961ADDAY111999GF105991011011012501041011MD1210091+9999MW1031
0070029720999991957052218004+60517+022267FM-12+005499999V0200401N00511220001CN0500001N9+01611+00111102111ADDAY101999GF101991001001999999001011KA1999M+01891MD1310101+9999MW1011
0076029720999991957052300004+60517+022267FM-12+005499999V0200201N00511220001CN0400001N9+00721+00111102361ADDAY101999GF101991999001999999011001MD1210021+9999MW1021EQDQ01+000002SCOTLC
0070029720999991957052306004+60517+022267FM-12+005499999V0200201N00621220001CN0400001N9+01001-00111102431ADDAY101999GF101991001001999999001011KA1999N+00501MD1210091+9999MW1011
0057029720999991957052312004+60517+022267FM-12+005499999V0200101N00721220001CN0500001N9+01391-00281102291ADDAY101999GF101991001001999999001011MD1810121+9999MW1031
0070029720999991957052318004+60517+022267FM-12+005499999V0200301N00721220001CN0500001N9+01111-00781102421ADDAY101999GF101991001001999999001011KA1999M+01611MD1210071+9999MW1021
0070029720999991957052406004+60517+022267FM-12+005499999V0200201N00621220001CN0500001N9+00721-00501102941ADDAY101999GF101991011011012501001001KA1999N+00281MD1010031+9999MW1031
0057029720999991957052412004+60517+022267FM-12+005499999V0200201N00721030001CN0500001N9+01001-00391102921ADDAY121999GF107991041051008001071999MD1810021+9999MW1021
0070029720999991957052418004+60517+022267FM-12+005499999V0200201N00721007801CN0500001N9+00721-00281103001ADDAY121999GF107991071051008001999999KA1999M+01001MD1210071+9999MW1021
0057029720999991957052500004+60517+022267FM-12+005499999V0200201N00411007801CN0500001N9+00501-00221103241ADDAY121999GF107991071051008001999999MD1210091+9999MW1021
0070029720999991957052506004+60517+022267FM-12+005499999V0200201N00511030001CN0500001N9+00501-00391103341ADDAY121999GF106991011011008001071001KA1999N+00391MD1210061+9999MW1021
0057029720999991957052512004+60517+022267FM-12+005499999V0203601N00621007801CN0500001N9+00891-00501103161ADDAY121999GF107991071081008001999999MD1710081+9999MW1021
0070029720999991957052518004+60517+022267FM-12+005499999V0200401N00411007801CN0400001N9+00781-00391103111ADDAY121999GF107991071051008001999999KA1999M+00891MD1710011+9999MW1021
0057029720999991957052600004+60517+022267FM-12+005499999V0200201N00211030001CN0300001N9+00281-00221103261ADDAY121999GF107991031051008001071999MD1210041+9999MW1021
0070029720999991957052606004+60517+022267FM-12+005499999V0200401N00511220001CN0500001N9+00501-00391103301ADDAY121999GF107991001001999999071999KA1999N+00281MD1210031+9999MW1021
0057029720999991957052612004+60517+022267FM-12+005499999V0200401N00511007801CN0500001N9+00891-00501103291ADDAY121999GF107991071081008001999999MD1710041+9999MW1021
0070029720999991957052618004+60517+022267FM-12+005499999V0200301N00311007801CN0500001N9+00781-00281103181ADDAY121999GF107991071081008001999999KA1999M+00891MD1710021+9999MW1021
0057029720999991957052700004+60517+022267FM-12+005499999V0201801N00101007801CN0400001N9+00611+00221103311ADDAY121999GF107991071051008001999999MD1410001+9999MW1021
0070029720999991957052706004+60517+022267FM-12+005499999V0200401N00211030001CN0400001N9+00611-00111103231ADDAY121999GF108991041051012501071999KA1999N+00281MD1710051+9999MW1021
0057029720999991957052712004+60517+022267FM-12+005499999V0203601N00051007801CN0400001N9+00891-00391103011ADDAY121999GF107991071051008001999999MD1710121+9999MW1011
0070029720999991957052718004+60517+022267FM-12+005499999V0202401N00261007801CN0400001N9+00781-00111102751ADDAY121999GF107991071051008001999999KA1999M+01001MD1710131+9999MW1021
0057029720999991957052800004+60517+022267FM-12+005499999V0202301N00101007801CN0400001N9+00501+00111102721ADDAY121999GF107991061051008001071999MD1710041+9999MW1021
0070029720999991957052806004+60517+022267FM-12+005499999V0202101N00311220001CN0400001N9+00721-00111102481ADDAY121999GF103991001001999999041011KA1999N+00391MD1710121+9999MW1011
0057029720999991957052812004+60517+022267FM-12+005499999V0202201N00411007801CN0500001N9+00891-00391102331ADDAY121999GF106991051051008001041011MD1710111+9999MW1021
0070029720999991957052818004+60517+022267FM-12+005499999V0202301N00411220001CN0500001N9+00781-00281102151ADDAY121999GF105991001001999999041011KA1999M+01111MD1610081+9999MW1021
0057029720999991957052900004+60517+022267FM-12+005499999V0209991C00001220001CN0400001N9+00111-00111102181ADDAY121999GF107991001001999999071999MD1710021+9999MW1021
0070029720999991957052906004+60517+022267FM-12+005499999V0200401N00101220001CN0500001N9+00721-00111102091ADDAY121999GF107991001001999999071051KA1999N+00111MD1010001+9999MW1021
0057029720999991957052912004+60517+022267FM-12+005499999V0202501N00311030001CN0500001N9+01281+00001101931ADDAY121999GF107991031011012501071999MD1710121+9999MW1021
0070029720999991957052918004+60517+022267FM-12+005499999V0202701N00311220001CN0500001N9+00891-00111101761ADDAY121999GF106991001001999999071021KA1999M+01391MD1710091+9999MW1031
0057029720999991957053000004+60517+022267FM-12+005499999V0202501N00211220001CN0500001N9+00721+00221101641ADDAY121999GF108991001001999999071999MD1710101+9999MW1021
0081029720999991957053006004+60517+022267FM-12+005499999V0202601N00411030001CN0400001N9+00781+00611101371ADDAA199000391AY161999GF107991021011008001071021KA1999N+00611MD1710071+9999MW1011
0070029720999991957053018004+60517+022267FM-12+005499999V0203301N00511030001CN0500001N9+01111+00221101261ADDAY121999GF107991011041012501071051KA1999M+01611MD1210021+9999MW1031
0070029720999991957053106004+60517+022267FM-12+005499999V0202101N00261220001CN0400001N9+01111+00611101051ADDAY121999GF107991001001999999071051KA1999N+00611MD1710091+9999MW1601
0057029720999991957060100004+60517+022267FM-12+005499999V0202101N00101220001CN0300001N9+00781+00611100111ADDAY121999GF107991001001999999071999MD1710191+9999MW1601
0081029720999991957060106004+60517+022267FM-12+005499999V0202301N00361002401CN0300001N9+01001+00781099881ADDAA199000391AY161999GF107991061061002501071999KA1999N+00781MD1710091+9999MW1211
0057029720999991957060112004+60517+022267FM-12+005499999V0203301N00621007801CN0400001N9+01111+00391099981ADDAY121999GF106991061021008001001001MD1210181+9999MW1011
0081029720999991957060118004+60517+022267FM-12+005499999V0202701N00511220001CN0400001N9+01001+00111100141ADDAA199001091AY111999GF103991021061004501041001KA1999M+01391MD1210091+9999MW1011
0057029720999991957060200004+60517+022267FM-12+005499999V0203301N00511220001CN0400001N9+00611+00281100361ADDAY101999GF101991001001999999001011MD1210141+9999MW1021
0070029720999991957060206004+60517+022267FM-12+005499999V0203301N00621220001CN0400001N9+01001+00281100641ADDAY101999GF100991001001999999001001KA1999N+00501MD1210161+9999MW1011
0057029720999991957060212004+60517+022267FM-12+005499999V0203301N00721220001CN0500001N9+01281-00281100951ADDAY101999GF101991011011008001001001MD1210161+9999MW1021
0070029720999991957060218004+60517+022267FM-12+005499999V0203301N00411220001CN0500001N9+01221+00001101161ADDAY101999GF103991001001999999041091KA1999M+01281MD1210071+9999MW1021
0057029720999991957060300004+60517+022267FM-12+005499999V0201601N00311220001CN0400001N9+00721+00501101101ADDAY121999GF106991001001999999071061MD1810061+9999MW1011
0070029720999991957060306004+60517+022267FM-12+005499999V0202301N00411220001CN0300001N9+01221+00721100691ADDAY121999GF104991011011008001041061KA1999N+00501MD1710071+9999MW1011
0070029720999991957060318004+60517+022267FM-12+005499999V0202701N00311030001CN0500001N9+01501+00501100951ADDAY121999GF105991041081012501041001KA1999M+02001MD1210071+9999MW1031
0081029720999991957060406004+60517+022267FM-12+005499999V0200901N00151220001CN0500001N9+01001+00721100801ADDAA199004091AY161999GF108991001001999999071999KA1999N+00781MD1510021+9999MW1021
0057029720999991957060412004+60517+022267FM-12+005499999V0200301N00511220001CN0500001N9+01281+00391100771ADDAY161999GF107991001001999999071999MD1810031+9999MW1021
0081029720999991957060418004+60517+022267FM-12+005499999V0200301N00211030001CN0500001N9+01221+00391100691ADDAA199000391AY121999GF107991041051012501071999KA1999M+01281MD1610071+9999MW1011
0057029720999991957060500004+60517+022267FM-12+005499999V0200301N00211220001CN0500001N9+00891+00501100671ADDAY121999GF107991001001999999071999MD1710021+9999MW1021
0100029720999991957060506004+60517+022267FM-12+005499999V0200901N00511220001CN0500001N9+01281+00501100521ADDAA199000691AY121999GF106991999001999999041001KA1999N+00781MD1710091+9999MW1011EQDQ01+000002SCOTLC
0081029720999991957060518004+60517+022267FM-12+005499999V0201001N00311004501CN0200001N9+01001+00781099991ADDAA199002091AY161999GF108991051051004501021999KA1999M+01721MD1710131+9999MW1601
0057029720999991957060600004+60517+022267FM-12+005499999V0201201N00511002401CN0100001N9+01001+00781099741ADDAY161999GF108991081061002501999999MD1710141+9999MW1631
0081029720999991957060606004+60517+022267FM-12+005499999V0202001N00311000601CN0200001N9+00781+00781099611ADDAA199007091AY141999GF108991081061000751999999KA1999N+00781MD1210021+9999MW1021
0057029720999991957060612004+60517+022267FM-12+005499999V0202001N00211004501CN0200001N9+01221+00781099721ADDAY121999GF108991081051004501999999MD1210061+9999MW1021
0081029720999991957060618004+60517+022267FM-12+005499999V0202101N00511000601CN0200001N9+00891+00781099721ADDAA199000691AY121999GF108991081061000751999999KA1999M+01221MD1410001+9999MW1021
