0057029720999991955010100004+60517+022267FM-12+005499999V0200901N00311001501CN0050001N9-00781-00891104211ADDAY121999GF108991081061001501999999MD1310041+9999MW1701
0081029720999991955010106004+60517+022267FM-12+005499999V0200401N00101001501CN0060001N9-00891-01001104201ADDAA199000391AY121999GF108991081061001501999999KA1999N-01001MD1410001+9999MW1021
0057029720999991955010112004+60517+022267FM-12+005499999V0203601N00151004501CN0050001N9-00721-00891104211ADDAY171999GF108991081061004501999999MD1610031+9999MW1021
0081029720999991955010118004+60517+022267FM-12+005499999V0201201N00101004501CN0070001N9-00721-00721104191ADDAA199000691AY121999GF108991081061004501999999KA1999M-00721MD1210011+9999MW1021
0057029720999991955010200004+60517+022267FM-12+005499999V0209991C00001002401CN0040001N9-00391-00501104121ADDAY171999GF108991081061002501999999MD1210041+9999MW1731
0081029720999991955010206004+60517+022267FM-12+005499999V0209991C00001001501CN0040001N9-00221-00221104251ADDAA199001091AY121999GF108991081061001501999999KA1999N-00721MD1310131+9999MW1021
0057029720999991955010212004+60517+022267FM-12+005499999V0200201N00311001501CN0100001N9-00281-00391104421ADDAY121999GF108991081061001501999999MD1810011+9999MW1021
0070029720999991955010218004+60517+022267FM-12+005499999V0200401N00511001501CN0150001N9-00281-00391104561ADDAY121999GF107991071061001501999999KA1999M-00111MD1310081+9999MW1021
0057029720999991955010300004+60517+022267FM-12+005499999V0200201N00411220001CN0200001N9-00891-01001104591ADDAY101999GF100991001001999999001001MD1310031+9999MW1021
0070029720999991955010306004+60517+022267FM-12+005499999V0200401N00411220001CN0100001N9-00781-01001104521ADDAY121999GF103991031051008001001001KA1999N-01001MD1710011+9999MW1011
0057029720999991955010312004+60517+022267FM-12+005499999V0200401N00311004501CN0100001N9-00501-00611104421ADDAY171999GF108991081051004501999999MD1710131+9999MW1701
0081029720999991955010318004+60517+022267FM-12+005499999V0200401N00311004501CN0080001N9-00391-00501104311ADDAA199000691AY121999GF108991081051004501999999KA1999M-00281MD1610071+9999MW1021
0057029720999991955010400004+60517+022267FM-12+005499999V0200401N00211002401CN0100001N9-00611-00781104141ADDAY121999GF108991081061002501999999MD1710081+9999MW1031
0081029720999991955010406004+60517+022267FM-12+005499999V0200701N00211002401CN0060001N9-00611-00721103851ADDAA199000691AY171999GF108991081061002501999999KA1999N-00721MD1710151+9999MW1711
0057029720999991955010412004+60517+022267FM-12+005499999V0200401N00101030001CN0060001N9-00611-00721103551ADDAY171999GF107991021061004501071999MD1710231+9999MW1711
0081029720999991955010418004+60517+022267FM-12+005499999V0209991C00001220001CN0003001N9-01221-01221103181ADDAA199000691AY101999GF100991001001999999001001KA1999M-00501MD1710191+9999MW1461
0057029720999991955010500004+60517+022267FM-12+005499999V0209991C00001004501CN0100001N9-00721-00781102651ADDAY121999GF108991081051004501999999MD1710311+9999MW1021
0070029720999991955010506004+60517+022267FM-12+005499999V0202701N00211004501CN0150001N9-00281-00611102151ADDAY121999GF109991061041004501071999KA1999N-01281MD1710241+9999MW1021
0057029720999991955010512004+60517+022267FM-12+005499999V0203601N00411001501CN0100001N9-00111-00221101841ADDAY151999GF108991081061001501999999MD1710151+9999MW1021
0081029720999991955010518004+60517+022267FM-12+005499999V0203401N00411004501CN0200001N9-00391-00611101951ADDAA199000691AY121999GF107991071051004501999999KA1999M+00001MD1210071+9999MW1031
0057029720999991955010600004+60517+022267FM-12+005499999V0203401N00101004501CN0150001N9-01001-01001102111ADDAY121999GF108991061061004501071999MD1210041+9999MW1031
0070029720999991955010606004+60517+022267FM-12+005499999V0203601N00101220001CN0200001N9-01281-01391102411ADDAY101999GF100991001001999999001001KA1999N-01391MD1210211+9999MW1021
0057029720999991955010612004+60517+022267FM-12+005499999V0203401N00051220001CN0080001N9-01391-01501102611ADDAY101999GF100991001001999999001001MD1110071+9999MW1021
0070029720999991955010618004+60517+022267FM-12+005499999V0200901N00051220001CN0050001N9-01891-02001102411ADDAY121999GF108991001001999999001071KA1999M-01221MD1710151+9999MW1031
0057029720999991955010700004+60517+022267FM-12+005499999V0202501N00721007801CN0300001N9-00281-00781101781ADDAY121999GF108991081051008001999999MD1710361+9999MW1181
0070029720999991955010706004+60517+022267FM-12+005499999V0202501N00511004501CN0300001N9-00111-00281101051ADDAY121999GF108991081051004501999999KA1999N-01891MD1710201+9999MW1021
0057029720999991955010712004+60517+022267FM-12+005499999V0202501N00621002401CN0200001N9+00001-00111100491ADDAY121999GF108991081061002501999999MD1710081+9999MW1021
0081029720999991955010718004+60517+022267FM-12+005499999V0202701N00621004501CN0200001N9+00111-00111100351ADDAA199000691AY121999GF108991061051004501071999KA1999M+00111MD1710011+9999MW1031
0057029720999991955010800004+60517+022267FM-12+005499999V0203601N00621007801CN0300001N9-00281-00611100691ADDAY111999GF106991061051008001001001MD1210271+9999MW1021
0081029720999991955010806004+60517+022267FM-12+005499999V0203201N00211004501CN0080001N9-00611-00721101001ADDAA199000691AY171999GF108991081061004501999999KA1999N-00721MD1210131+9999MW1761
0057029720999991955010812004+60517+022267FM-12+005499999V0201201N00101220001CN0100001N9-00721-00781101221ADDAY111999GF106991001001999999071999MD1210051+9999MW1031
0081029720999991955010818004+60517+022267FM-12+005499999V0201401N00211004501CN0080001N9-00721-00781101251ADDAA199000591AY171999GF107991061051004501071999KA1999M-00611MD1010031+9999MW1221
0081029720999991955010906004+60517+022267FM-12+005499999V0209991C00001000151CN0002001N9-01281-01391101201ADDAA199000691AY141999GF108991081061000251999999KA1999N-01781MD1410001+9999MW1451
0057029720999991955010912004+60517+022267FM-12+005499999V0201201N00211220001CN0010001N9-01281-01391101021ADDAY141999GF103991011051004501041051MD1710151+9999MW1101
0070029720999991955010918004+60517+022267FM-12+005499999V0201401N00211004501CN0100001N9-00281-00281100771ADDAY121999GF107991061051004501071999KA1999M-00281MD1610191+9999MW1021
0057029720999991955011000004+60517+022267FM-12+005499999V0201801N00511004501CN0150001N9-00111-00281100581ADDAY121999GF108991081061004501999999MD1710041+9999MW1021
0081029720999991955011006004+60517+022267FM-12+005499999V0202201N00411004501CN0030001N9+00111+00001100211ADDAA199001091AY121999GF108991081061004501999999KA1999N-00501MD1710131+9999MW1681
0057029720999991955011012004+60517+022267FM-12+005499999V0201801N00511004501CN0010001N9+00111+00001099851ADDAY181999GF108991081061004501999999MD1710291+9999MW1751
0100029720999991955011018004+60517+022267FM-12+005499999V0201601N00621001501CN0080001N9-00281-00281098951ADDAA199001091AY121999GF108991081061001501999999KA1999M+00221MD1710592+9999MW1561EQDQ01+000592APC3  
0092029720999991955011100004+60517+022267FM-12+005499999V0201801N00821001501CN0010001N9+00001-00111097492ADDAY171999GF108991081061001501999999MD1710712+9999MW1731EQDQ01+097493APOSLPQ02+000712APC3  
0081029720999991955011106004+60517+022267FM-12+005499999V0202101N00411001501CN0030001N9+00111+00111096951ADDAA199004091AY171999GF108991081061001501999999KA1999N-00391MD1710231+9999MW1611
0057029720999991955011112004+60517+022267FM-12+005499999V0202101N00511004501CN0300001N9+00221-00221096681ADDAY121999GF107991061051004501071999MD1710081+9999MW1031
0081029720999991955011118004+60517+022267FM-12+005499999V0202501N00621002401CN0100001N9-00221-00391096881ADDAA199002091AY181999GF108991081061002501999999KA1999M+00221MD1210171+9999MW1701
0057029720999991955011200004+60517+022267FM-12+005499999V0202301N00311220001CN0300001N9-00281-00611097361ADDAY111999GF100991001001999999001001MD1210231+9999MW1011
0102029720999991955011206004+60517+022267FM-12+005499999V0202501N00511220001CN0300001N9-00221-00721097381ADDAA199000391AY101999GF101991011051004501001001KA1999N-00391MW1031EQDQ01+000032APCTENQ02+000002APC3  
0057029720999991955011212004+60517+022267FM-12+005499999V0202501N00411007801CN0500001N9-00281-00611097421ADDAY111999GF107991071051008001999999MD1110041+9999MW1031
0081029720999991955011218004+60517+022267FM-12+005499999V0202701N00621002401CN0100001N9-00111-00221097651ADDAA199001091AY171999GF108991071061002501071999KA1999M+00001MD1210191+9999MW1711
0057029720999991955011300004+60517+022267FM-12+005499999V0202701N00511220001CN0500001N9-00221-00721098111ADDAY101999GF100991001001999999001001MD1210241+9999MW1021
0081029720999991955011306004+60517+022267FM-12+005499999V0202301N00411220001CN0400001N9-00501-00721098481ADDAA199000391AY101999GF104991001001999999001051KA1999N-00501MD1210171+9999MW1031
0057029720999991955011312004+60517+022267FM-12+005499999V0202301N00211220001CN0400001N9-00111-00721098691ADDAY121999GF106991001001999999001061MD1210041+9999MW1021
0070029720999991955011318004+60517+022267FM-12+005499999V0201801N00101220001CN0020001N9-01111-01111098801ADDAY101999GF100991001001999999001001KA1999M+00001MD1210051+9999MW1111
0076029720999991955011400004+60517+022267FM-12+005499999V0201201N00211220001CN0050001N9-00781-00891098801ADDAY101999GF101991999001999999041001MD1710041+9999MW1111EQDQ01+000002SCOTLC
0070029720999991955011406004+60517+022267FM-12+005499999V0201401N00511004501CN0100001N9-00391-00501098601ADDAY121999GF108991081061004501999999KA1999N-01281MD1710131+9999MW1711
0057029720999991955011412004+60517+022267FM-12+005499999V0201401N00621001501CN0004001N9-00221-00221097921ADDAY171999GF108991081061001501999999MD1710491+9999MW1751
0081029720999991955011418004+60517+022267FM-12+005499999V0202201N01031004501CN0080001N9-00281-00611097851ADDAA199003091AY171999GF107991071051004501999999KA1999M+00001MD1210161+9999MW1371
0057029720999991955011500004+60517+022267FM-12+005499999V0202701N00411002401CN0070001N9-00281-00391097851ADDAY171999GF106991061061002501999999MD1410001+9999MW1731
0081029720999991955011506004+60517+022267FM-12+005499999V0203001N00821002401CN0100001N9-00281-00721098411ADDAA199002091AY171999GF108991081061002501999999KA1999N-00501MD1210251+9999MW1711
0057029720999991955011512004+60517+022267FM-12+005499999V0202701N00511220001CN0300001N9-00391-00611098921ADDAY181999GF104991031031004501041011MD1210171+9999MW1261
0100029720999991955011518004+60517+022267FM-12+005499999V0202501N00311220001CN0300001N9-00721-00891099141ADDAA199000591AY181999GF101991999001999999021001KA1999M-00221MD1110041+9999MW1011EQDQ01+000002SCOTLC
0057029720999991955011600004+60517+022267FM-12+005499999V0202901N00511007801CN0100001N9-00501-01111099351ADDAY171999GF105991051031008001001001MD1210151+9999MW1021
0102029720999991955011606004+60517+022267FM-12+005499999V0202001N00211220001CN0300001N9-01611-01721099571ADDAA199000391AY101999GF102991001001999999001051KA1999N-01781MW1021EQDQ01+000022APCTENQ02+000002APC3  
0057029720999991955011612004+60517+022267FM-12+005499999V0201401N00511030001CN0015001N9-00281-00391098951ADDAY171999GF108991041051004501021999MD1810011+9999MW1731
0081029720999991955011618004+60517+022267FM-12+005499999V0201601N00821001501CN0020001N9-00111-00221098221ADDAA199002091AY171999GF108991081061001501999999KA1999M+00001MD1710351+9999MW1731
0057029720999991955011700004+60517+022267FM-12+005499999V0202301N00211004501CN0100001N9-00501-00721098051ADDAY171999GF107991071051004501999999MD1710111+9999MW1021
0081029720999991955011706004+60517+022267FM-12+005499999V0201401N00051220001CN0030001N9-01281-01391097781ADDAA199006091AY111999GF108991001001999999011999KA1999N-01391MD1710151+9999MW1041
0057029720999991955011712004+60517+022267FM-12+005499999V0203401N00101220001CN0050001N9-00721-00781097451ADDAY121999GF108991001001999999071999MD1710231+9999MW1021
0070029720999991955011718004+60517+022267FM-12+005499999V0203601N00311004501CN0050001N9-00721-00781097091ADDAY121999GF108991081051004501999999KA1999M-00611MD1710071+9999MW1711
0057029720999991955011800004+60517+022267FM-12+005499999V0203601N00511004501CN0100001N9-00781-00891096691ADDAY111999GF108991081061004501999999MD1710171+9999MW1021
0081029720999991955011806004+60517+022267FM-12+005499999V0203001N00511004501CN0020001N9-00721-00721096391ADDAA199002091AY171999GF108991081061004501999999KA1999N-00891MD1710151+9999MW1731
0057029720999991955011812004+60517+022267FM-12+005499999V0202701N00511007801CN0030001N9-00781-00781096591ADDAY171999GF108991081051008001999999MD1210131+9999MW1731
0081029720999991955011818004+60517+022267FM-12+005499999V0202501N00621004501CN0030001N9-00391-00501097011ADDAA199003091AY171999GF108991081051004501999999KA1999M-00391MD1210211+9999MW1731
0057029720999991955011900004+60517+022267FM-12+005499999V0202501N00411002401CN0030001N9-00391-00501097661ADDAY171999GF108991081061002501999999MD1310321+9999MW1711
0081029720999991955011906004+60517+022267FM-12+005499999V0202501N00311002401CN0030001N9-00391-00391098021ADDAA199004091AY171999GF107991071061002501999999KA1999N-00391MD1210111+9999MW1731
0057029720999991955011912004+60517+022267FM-12+005499999V0202701N00311004501CN0020001N9-00281-00391098251ADDAY171999GF108991061051004501071999MD1210051+9999MW1731
0081029720999991955011918004+60517+022267FM-12+005499999V0202701N00411004501CN0100001N9-00391-00501098481ADDAA199002091AY171999GF107991071051004501999999KA1999M-00281MD1210131+9999MW1711
0057029720999991955012000004+60517+022267FM-12+005499999V0202701N00311002401CN0005001N9-00281-00391098891ADDAY171999GF108991081061002501999999MD1210091+9999MW1731
0081029720999991955012006004+60517+022267FM-12+005499999V0203001N00411004501CN0040001N9-00281-00281099321ADDAA199005091AY171999GF108991081061004501999999KA1999N-00501MD1210231+9999MW1731
0057029720999991955012012004+60517+022267FM-12+005499999V0202901N00211030001CN0100001N9-00281-00281099991ADDAY171999GF107991041051004501041021MD1210291+9999MW1711
0081029720999991955012018004+60517+022267FM-12+005499999V0202901N00311004501CN0200001N9-00281-00391100641ADDAA199001091AY171999GF108991081061004501999999KA1999M-00221MD1210331+9999MW1021
0057029720999991955012100004+60517+022267FM-12+005499999V0202701N00211007801CN0150001N9-00281-00391101201ADDAY171999GF108991081051008001999999MD1210251+9999MW1711
0081029720999991955012106004+60517+022267FM-12+005499999V0203401N00511030001CN0100001N9-00391-00501101651ADDAA199000391AY171999GF107991031061004501071999KA1999N-00391MD1210251+9999MW1221
0057029720999991955012112004+60517+022267FM-12+005499999V0200201N00311004501CN0200001N9-01001-01111102261ADDAY111999GF107991071051004501999999MD1210201+9999MW1031
0070029720999991955012118004+60517+022267FM-12+005499999V0209991C00001220001CN0150001N9-01111-01221102611ADDAY111999GF100991001001999999001001KA1999M-00281MD1210151+9999MW1011
0057029720999991955012200004+60517+022267FM-12+005499999V0209991C00001220001CN0050001N9-02111-02221102911ADDAY101999GF100991001001999999001001MD1210091+9999MW1041
0070029720999991955012206004+60517+022267FM-12+005499999V0200401N00051220001CN0040001N9-02391-02501103021ADDAY101999GF100991001001999999001001KA1999N-02611MD1210071+9999MW1041
0057029720999991955012212004+60517+022267FM-12+005499999V0200901N00101004501CN0025001N9-01221-01281103111ADDAY101999GF107991071051004501999999MD1610041+9999MW1041
0070029720999991955012218004+60517+022267FM-12+005499999V0201401N00311004501CN0150001N9-00721-00781103091ADDAY121999GF108991081051004501999999KA1999M-00611MD1210041+9999MW1021
0057029720999991955012300004+60517+022267FM-12+005499999V0201601N00311004501CN0150001N9-00501-00721103021ADDAY121999GF108991081061004501999999MD1710071+9999MW1021
0070029720999991955012306004+60517+022267FM-12+005499999V0201601N00311004501CN0150001N9-00501-00611102851ADDAY121999GF108991081061004501999999KA1999N-00721MD1710121+9999MW1021
0057029720999991955012312004+60517+022267FM-12+005499999V0201801N00511004501CN0300001N9-00221-00501102641ADDAY121999GF108991081051004501999999MD1710091+9999MW1021
0070029720999991955012318004+60517+022267FM-12+005499999V0202101N00721004501CN0200001N9-00111-00391102201ADDAY121999GF108991081051004501999999KA1999M+00001MD1710191+9999MW1021
0070029720999991955012406004+60517+022267FM-12+005499999V0202301N00511002401CN0150001N9-00221-00281101521ADDAY121999GF108991081061002501999999KA1999N-00281MD1710211+9999MW1021
0057029720999991955012412004+60517+022267FM-12+005499999V0202201N00821002401CN0080001N9+00001-00221100801ADDAY121999GF108991081061002501999999MD1710431+9999MW1701
0081029720999991955012418004+60517+022267FM-12+005499999V0202301N00621001501CN0060001N9+00001-00111100201ADDAA199000591AY121999GF108991081061001501999999KA1999M+00111MD1710281+9999MW1021
0057029720999991955012500004+60517+022267FM-12+005499999V0202301N00821000151CN0025001N9+00111+00111099451ADDAY151999GF108991081061000251999999MD1710291+9999MW1511
0081029720999991955012506004+60517+022267FM-12+005499999V0202501N00511030001CN0080001N9+00281+00221099041ADDAA199000591AY121999GF107991041061002501071999KA1999N+00001MD1710151+9999MW1611
0057029720999991955012512004+60517+022267FM-12+005499999V0202701N00621030001CN0200001N9+00391+00111099191ADDAY161999GF107991041051008001071999MD1210131+9999MW1211
0116029720999991955012518004+60517+022267FM-12+005499999V0203201N00511220001CN0200001N9-00221-00391100592ADDAA199000391AY101999GF100991001001999999001001KA1999M+00501MD1210692+9999MW1021EQDQ01+100593APOSLPQ02+000692APC3  
0057029720999991955012600004+60517+022267FM-12+005499999V0202701N00101220001CN0200001N9-00611-00611101061ADDAY121999GF100991001001999999001001MD1210161+9999MW1011
0070029720999991955012606004+60517+022267FM-12+005499999V0201601N00211030001CN0100001N9-00111-00221101021ADDAY121999GF107991021051008001071999KA1999N-00721MD1210131+9999MW1021
0057029720999991955012612004+60517+022267FM-12+005499999V0202301N00411001501CN0070001N9+00111+00001100601ADDAY121999GF108991081061001501999999MD1710211+9999MW1021
0070029720999991955012618004+60517+022267FM-12+005499999V0202301N00211001501CN0070001N9+00221+00111100461ADDAY121999GF108991081061001501999999KA1999M+00281MD1710071+9999MW1021
0057029720999991955012700004+60517+022267FM-12+005499999V0202501N00511002401CN0100001N9+00281+00111100251ADDAY121999GF108991081061002501999999MD1710131+9999MW1021
0070029720999991955012706004+60517+022267FM-12+005499999V0202501N00621004501CN0150001N9+00111+00001100061ADDAY121999GF106991061061004501001001KA1999N+00111MD1710121+9999MW1021
0057029720999991955012712004+60517+022267FM-12+005499999V0202701N00511220001CN0200001N9+00281+00001100111ADDAY111999GF105991001001999999001061MD1210011+9999MW1031
0070029720999991955012718004+60517+022267FM-12+005499999V0202701N00311220001CN0150001N9+00001-00221100261ADDAY101999GF100991001001999999001001KA1999M+00281MD1210081+9999MW1011
0057029720999991955012800004+60517+022267FM-12+005499999V0202701N00311220001CN0200001N9+00001-00281100321ADDAY101999GF100991001001999999001001MD1710011+9999MW1021
0070029720999991955012806004+60517+022267FM-12+005499999V0202701N00311220001CN0150001N9+00001-00281100551ADDAY101999GF102991001001999999001011KA1999N-00221MD1210131+9999MW1031
0057029720999991955012812004+60517+022267FM-12+005499999V0202701N00101220001CN0300001N9+00111-00111100781ADDAY111999GF104991001001999999041011MD1210091+9999MW1011
0091029720999991955012818004+60517+022267FM-12+005499999V0209991C00001220001CN0006001N9-00611-00611100891ADDAY111999GF107991001001999999001061KA1999M+00111MW1441EQDQ01+000022APCTENQ02+000002APC3  
0057029720999991955012900004+60517+022267FM-12+005499999V0201401N00101000601CN0010001N9+00001+00001100781ADDAY121999GF108991081061000751999999MD1710081+9999MW1101
0081029720999991955012906004+60517+022267FM-12+005499999V0201801N00101001501CN0050001N9+00001+00001100451ADDAA199000591AY171999GF108991081081001501999999KA1999N-00721MD1710131+9999MW1711
0057029720999991955012912004+60517+022267FM-12+005499999V0201801N00211001501CN0008001N9+00111+00001099921ADDAY171999GF108991081061001501999999MD1710361+9999MW1751
0081029720999991955012918004+60517+022267FM-12+005499999V0202701N00411001501CN0050001N9+00111+00001099891ADDAA199006091AY171999GF108991081061001501999999KA1999M+00111MD1210081+9999MW1021
0057029720999991955013000004+60517+022267FM-12+005499999V0203601N00411002401CN0100001N9-00111-00221100511ADDAY121999GF108991081061002501999999MD1210331+9999MW1021
0070029720999991955013006004+60517+022267FM-12+005499999V0200701N00211001501CN0080001N9-00391-00501100881ADDAY121999GF108991081061001501999999KA1999N-00501MD1110121+9999MW1021
0057029720999991955013012004+60517+022267FM-12+005499999V0201101N00511004501CN0025001N9-00281-00391100851ADDAY171999GF108991081061004501999999MD1710111+9999MW1731
0081029720999991955013018004+60517+022267FM-12+005499999V0201401N00311004501CN0022001N9-00111-00111100291ADDAA199000591AY171999GF108991081061004501999999KA1999M-00111MD1710321+9999MW1711
0057029720999991955013100004+60517+022267FM-12+005499999V0201401N00051000601CN0010001N9+00111+00001099881ADDAY151999GF108991081061000751999999MD1710151+9999MW1631
0081029720999991955013106004+60517+022267FM-12+005499999V0203201N00101000601CN0025001N9+00001+00001099341ADDAA199012091AY161999GF108991081061000751999999KA1999N-00111MD1610211+9999MW1681
0081029720999991955013118004+60517+022267FM-12+005499999V0202701N00211002401CN0100001N9-00281-00391100461ADDAA199001091AY121999GF108991081061002501999999KA1999M+00111MD1210201+9999MW1021
0057029720999991955020100004+60517+022267FM-12+005499999V0209991C00001004501CN0150001N9-00221-00281100641ADDAY121999GF108991081051004501999999MD1210051+9999MW1021
0081029720999991955020106004+60517+022267FM-12+005499999V0202101N00101000601CN0025001N9+00111+00111100551ADDAA199000691AY151999GF108991081061000751999999KA1999N-00391MD1810041+9999MW1511
0081029720999991955020118004+60517+022267FM-12+005499999V0201801N00211000151CN0015001N9+00111+00111100681ADDAA199000591AY151999GF108991081061000251999999KA1999M+00221MD1210041+9999MW1511
0057029720999991955020200004+60517+022267FM-12+005499999V0202301N00101000151CN0008001N9+00001+00001100721ADDAY141999GF109991091999000251999999MD1410001+9999MW1451
0070029720999991955020206004+60517+022267FM-12+005499999V0209991C00001000151CN0005001N9+00001+00001100771ADDAY141999GF108991081061000251999999KA1999N+00001MD1210041+9999MW1471
0057029720999991955020212004+60517+022267FM-12+005499999V0201401N00101000151CN0006001N9+00111+00111100741ADDAY141999GF108991081061000251999999MD1710011+9999MW1431
0081029720999991955020218004+60517+022267FM-12+005499999V0201401N00101000151CN0010001N9+00111+00111100621ADDAA199002091AY141999GF108991081061000251999999KA1999M+00221MD1810071+9999MW1631
0057029720999991955020300004+60517+022267FM-12+005499999V0201601N00101000601CN0020001N9+00111+00111100561ADDAY161999GF108991081061000751999999MD1810011+9999MW1021
0081029720999991955020306004+60517+022267FM-12+005499999V0209991C00001000151CN0003001N9+00001+00001100511ADDAA199000591AY141999GF108991081061000251999999KA1999N+00001MD1710031+9999MW1451
0057029720999991955020312004+60517+022267FM-12+005499999V0201201N00311000151CN0002001N9+00001+00001100421ADDAY141999GF108991081061000251999999MD1810071+9999MW1451
0057029720999991955020400004+60517+022267FM-12+005499999V0201401N00511000601CN0040001N9+00111+00111100021ADDAY121999GF108991081061000751999999MD1710081+9999MW1021
0070029720999991955020406004+60517+022267FM-12+005499999V0201401N00411000601CN0010001N9+00111+00111099851ADDAY121999GF108991081061000751999999KA1999N-00111MD1710091+9999MW1101
0057029720999991955020412004+60517+022267FM-12+005499999V0201601N00101000601CN0016001N9+00111+00111099881ADDAY171999GF108991081061000751999999MD1310031+9999MW1511
0081029720999991955020418004+60517+022267FM-12+005499999V0202101N00051002401CN0050001N9+00111+00111099981ADDAA199002091AY121999GF108991081061002501999999KA1999M+00221MD1310041+9999MW1021
0057029720999991955020500004+60517+022267FM-12+005499999V0201401N00051000601CN0015001N9+00111+00111099981ADDAY151999GF108991081061000751999999MD1210031+9999MW1531
0081029720999991955020506004+60517+022267FM-12+005499999V0201401N00411001501CN0025001N9+00111+00001099751ADDAA199000391AY151999GF108991081999001501999999KA1999N+00001MD1710131+9999MW1021
0057029720999991955020512004+60517+022267FM-12+005499999V0201101N00511001501CN0020001N9+00001+00001099541ADDAY151999GF108991081061001501999999MD1710121+9999MW1681
0081029720999991955020518004+60517+022267FM-12+005499999V0201201N00511001501CN0040001N9+00111+00001099281ADDAA199001091AY171999GF108991081061001501999999KA1999M+00111MD1610121+9999MW1611
0057029720999991955020600004+60517+022267FM-12+005499999V0201401N00511001501CN0050001N9+00111+00111099221ADDAY151999GF108991081061001501999999MD1710031+9999MW1021
0081029720999991955020606004+60517+022267FM-12+005499999V0201401N00511000601CN0008001N9+00111+00111099311ADDAA199000591AY151999GF108991081061000751999999KA1999N+00001MD1210111+9999MW1511
0057029720999991955020612004+60517+022267FM-12+005499999V0201401N00311000601CN0030001N9+00111+00111099461ADDAY151999GF108991081061000751999999MD1210081+9999MW1511
0081029720999991955020618004+60517+022267FM-12+005499999V0201401N00411001501CN0030001N9+00111+00111099681ADDAA199000591AY151999GF108991081061001501999999KA1999M+00221MD1210111+9999MW1531
0057029720999991955020700004+60517+022267FM-12+005499999V0201101N00411000601CN0040001N9+00111+00111099811ADDAY151999GF108991081061000751999999MD1210051+9999MW1511
0081029720999991955020706004+60517+022267FM-12+005499999V0202301N00101001501CN0030001N9+00111+00111099841ADDAA199001091AY161999GF108991081061001501999999KA1999N+00001MD1310031+9999MW1021
0057029720999991955020712004+60517+022267FM-12+005499999V0201801N00311220001CN0150001N9+00111+00001100011ADDAY171999GF103991021011004501041001MD1210041+9999MW1221
0068029720999991955020718004+60517+022267FM-12+005499999V0202001N00411220001CN0200001N9+00001-00221100061ADDAA199010091AY121999GF101991011051004501001001MD1210051+9999MW1011
0076029720999991955020800004+60517+022267FM-12+005499999V0201801N00311220001CN0300001N9-00221-00281100091ADDAY101999GF101991999001999999051001MD1710031+9999MW1021EQDQ01+000002SCOTLC
0089029720999991955020806004+60517+022267FM-12+005499999V0201801N00101220001CN0300001N9-00501-00501100081ADDAY101999GF101991999001999999041001KA1999N-00501MD1210011+9999MW1021EQDQ01+000002SCOTLC
0057029720999991955020812004+60517+022267FM-12+005499999V0202201N00411220001CN0400001N9+00111-00391100141ADDAY101999GF103991021011008001041041MD1310031+9999MW1031
0070029720999991955020818004+60517+022267FM-12+005499999V0202201N00051220001CN0200001N9-00391-00501100021ADDAY101999GF100991001001999999001001KA1999M+00111MD1810031+9999MW1021
0057029720999991955020900004+60517+022267FM-12+005499999V0209991C00001220001CN0002001N9-00891-00891999999ADDAY141999GF100991001001999999001001MD1410001+9999MW1461
0070029720999991955020906004+60517+022267FM-12+005499999V0209991C00001000151CN0002001N9-00781-00891099941ADDAY141999GF108991081061000251999999KA1999N-01111MD1710041+9999MW1451
0057029720999991955020912004+60517+022267FM-12+005499999V0202201N00051000601CN0006001N9-00281-00281999999ADDAY141999GF108991081061000751999999MD1410001+9999MW1451
0043029720999991955020918004+60517+022267FM-12+005499999V0202301N00051220001CN0008001N9-00891+99999100581ADDAY141999GF100991001001999999001001MW1121
0057029720999991955021000004+60517+022267FM-12+005499999V0209991C00001000151CN0002001N9-00781-00781100011ADDAY141999GF108991081061000251999999MD1210011+9999MW1471
0070029720999991955021006004+60517+022267FM-12+005499999V0209991C00001002401CN0070001N9-00501-00501099911ADDAY141999GF108991081061002501999999KA1999N-01001MD1810051+9999MW1021
0057029720999991955021012004+60517+022267FM-12+005499999V0200201N00151004501CN0070001N9-00391-00501099851ADDAY121999GF107991071051004501999999MD1710031+9999MW1011
0070029720999991955021018004+60517+022267FM-12+005499999V0203601N00411004501CN0100001N9-00391-00501099821ADDAY121999GF108991081061004501999999KA1999M-00391MD1210011+9999MW1021
0057029720999991955021100004+60517+022267FM-12+005499999V0203601N00411004501CN0150001N9-00501-00721099811ADDAY121999GF108991081051004501999999MD1710011+9999MW1021
0070029720999991955021106004+60517+022267FM-12+005499999V0203601N00411004501CN0150001N9-00611-00721099951ADDAY121999GF107991071051004501999999KA1999N-00721MD1310041+9999MW1021
0057029720999991955021112004+60517+022267FM-12+005499999V0203401N00311030001CN0030001N9-00501-00611999999ADDAY171999GF108991041061004501071999MD1210071+9999MW1711
0081029720999991955021118004+60517+022267FM-12+005499999V0200201N00311004501CN0040001N9-00501-00611100241ADDAA199000591AY171999GF108991081061004501999999KA1999M-00391MD1210121+9999MW1711
0057029720999991955021200004+60517+022267FM-12+005499999V0200401N00101004501CN0040001N9-00391-00501100551ADDAY171999GF108991081061004501999999MD1210161+9999MW1711
0081029720999991955021206004+60517+022267FM-12+005499999V0203601N00101004501CN0080001N9-00611-00721100771ADDAA199000591AY121999GF108991081061004501999999KA1999N-00781MD1210111+9999MW1021
0057029720999991955021212004+60517+022267FM-12+005499999V0200201N00211004501CN0150001N9-00611-00891101011ADDAY121999GF108991081051004501999999MD1210091+9999MW1021
0070029720999991955021218004+60517+022267FM-12+005499999V0203001N00051220001CN0080001N9-01221-01281101171ADDAY111999GF108991001001999999071999KA1999M-00501MD1210051+9999MW1031
0057029720999991955021300004+60517+022267FM-12+005499999V0203201N00101004501CN0100001N9-00781-00891101121ADDAY121999GF108991081061004501999999MD1810011+9999MW1021
0081029720999991955021306004+60517+022267FM-12+005499999V0202501N00101004501CN0100001N9-00781-01001100891ADDAA199000691AY121999GF108991061061004501071999KA1999N-01281MD1710111+9999MW1701
0057029720999991955021312004+60517+022267FM-12+005499999V0202301N00211030001CN0200001N9-00391-00781100661ADDAY171999GF107991011011008001071071MD1710151+9999MW1021
0081029720999991955021318004+60517+022267FM-12+005499999V0209991C00001220001CN0002001N9-01391-01391100491ADDAA199001091AY141999GF100991001001999999001001KA1999M-00281MD1810111+9999MW1461
0057029720999991955021400004+60517+022267FM-12+005499999V0202001N00211001501CN0050001N9-01111-01281100341ADDAY171999GF107991071061001501999999MD1710091+9999MW1011
0081029720999991955021406004+60517+022267FM-12+005499999V0201401N00101002401CN0025001N9-01001-01111100351ADDAA199000691AY141999GF107991051061002501071999KA1999N-01781MD1110031+9999MW1701
0076029720999991955021412004+60517+022267FM-12+005499999V0200401N00101220001CN0150001N9-00781-01001100581ADDAY101999GF101991999001999999041001MD1210131+9999MW1031EQDQ01+000002SCOTLC
0081029720999991955021418004+60517+022267FM-12+005499999V0203601N00311002401CN0100001N9-00781-00891100771ADDAA199000691AY121999GF107991071061002501999999KA1999M-00611MD1210081+9999MW1021
0057029720999991955021500004+60517+022267FM-12+005499999V0200401N00411002401CN0080001N9-00891-01001100781ADDAY121999GF108991081061002501999999MD1710011+9999MW1031
0070029720999991955021506004+60517+022267FM-12+005499999V0203601N00151002401CN0080001N9-01111-01221100601ADDAY121999GF107991051061002501071999KA1999N-01221MD1710121+9999MW1021
0057029720999991955021512004+60517+022267FM-12+005499999V0200201N00101220001CN0080001N9-01111-01281100371ADDAY101999GF101991001001999999001051MD1710131+9999MW1021
0081029720999991955021518004+60517+022267FM-12+005499999V0200401N00051220001CN0060001N9-01781-01781100051ADDAA199000391AY101999GF100991001001999999001001KA1999M-01111MD1710161+9999MW1021
0057029720999991955021600004+60517+022267FM-12+005499999V0200901N00101004501CN0030001N9-01611-01721099741ADDAY171999GF108991081061004501999999MD1710171+9999MW1771
0068029720999991955021606004+60517+022267FM-12+005499999V0200901N00101004501CN0050001N9-01501-01611099521ADDAA199000691AY171999GF108991081061004501999999MD1710081+9999MW1021
0078029720999991955021612004+60517+022267FM-12+005499999V0200701N00211075001CN0060001N9-01391-01501099521ADDAY171999GF106991011061002501041061MW1011EQDQ01+000022APCTENQ02+000002APC3  
0081029720999991955021618004+60517+022267FM-12+005499999V0200901N00211220001CN0070001N9-01501-01501099511ADDAA199000691AY111999GF100991001001999999001001KA1999M-01221MD1210031+9999MW1011
0057029720999991955021700004+60517+022267FM-12+005499999V0200701N00311004501CN0070001N9-01391-01501099551ADDAY111999GF107991071061004501999999MD1210031+9999MW1701
0081029720999991955021706004+60517+022267FM-12+005499999V0200401N00211004501CN0080001N9-01501-01611099581ADDAA199000391AY121999GF106991061061004501999999KA1999N-01611MD1110031+9999MW1031
0057029720999991955021712004+60517+022267FM-12+005499999V0200701N00411030001CN0070001N9-01001-01111099651ADDAY171999GF106991031051004501071001MD1010011+9999MW1781
0081029720999991955021718004+60517+022267FM-12+005499999V0200701N00621220001CN0080001N9-01111-01221099691ADDAA199000691AY171999GF105991001001999999001051KA1999M-00891MD1210041+9999MW1011
0057029720999991955021800004+60517+022267FM-12+005499999V0200701N00511004501CN0050001N9-01281-01391099841ADDAY171999GF108991081061004501999999MD1210041+9999MW1711
0081029720999991955021806004+60517+022267FM-12+005499999V0200701N00721004501CN0050001N9+99999+99999099971ADDAA199000691AY171999GF108991071061004501071999KA1999N-01281MD1210081+9999MW1711
0057029720999991955021812004+60517+022267FM-12+005499999V0200701N00721004501CN0060001N9-01111-01281100111ADDAY171999GF108991061061004501071999MD1210051+9999MW1731
0081029720999991955021818004+60517+022267FM-12+005499999V0200401N00411004501CN0060001N9-01111-01281100281ADDAA199000391AY171999GF108991081061004501999999KA1999M-01001MD1210091+9999MW1731
0057029720999991955021900004+60517+022267FM-12+005499999V0200401N00411004501CN0100001N9-01391-01611100541ADDAY171999GF106991061061004501999999MD1210111+9999MW1221
0081029720999991955021906004+60517+022267FM-12+005499999V0200401N00511220001CN0150001N9-01281-01501100591ADDAA199000391AY121999GF106991001001999999071051KA1999N-01391MD1210031+9999MW1011
0057029720999991955021912004+60517+022267FM-12+005499999V0200401N00511220001CN0150001N9-01221-01501100661ADDAY111999GF106991001001999999001021MD1710011+9999MW1031
0070029720999991955021918004+60517+022267FM-12+005499999V0200201N00511220001CN0200001N9-01221-01611100651ADDAY121999GF107991001001999999001071KA1999M-01111MD1310011+9999MW1021
0070029720999991955022006004+60517+022267FM-12+005499999V0203201N00211004501CN0150001N9-02111-02221100791ADDAY121999GF107991071051004501999999KA1999N-02281MD1110051+9999MW1031
0057029720999991955022012004+60517+022267FM-12+005499999V0203201N00211220001CN0100001N9-01111-01281100921ADDAY101999GF100991001001999999001001MD1210071+9999MW1021
0081029720999991955022018004+60517+022267FM-12+005499999V0203601N00211002401CN0100001N9-01611-01721101001ADDAA199000691AY111999GF105991051061002501999999KA1999M-01001MD1210131+9999MW1031
0057029720999991955022100004+60517+022267FM-12+005499999V0200201N00211220001CN0150001N9-02281-02391101111ADDAY101999GF100991001001999999001001MD1210031+9999MW1021
0070029720999991955022106004+60517+022267FM-12+005499999V0209991C00001000601CN0010001N9-01611-01721101241ADDAY141999GF108991081061000751999999KA1999N-02391MD1310031+9999MW1101
0076029720999991955022112004+60517+022267FM-12+005499999V0201201N00051220001CN0080001N9-00891-01001101221ADDAY111999GF105991999001999999041001MD1710041+9999MW1051EQDQ01+000002SCOTLC
0081029720999991955022118004+60517+022267FM-12+005499999V0201401N00101220001CN0100001N9-01281-01281101241ADDAA199000691AY121999GF107991001001999999071999KA1999M-00501MD1210051+9999MW1031
0057029720999991955022200004+60517+022267FM-12+005499999V0201401N00311004501CN0080001N9-01001-01281101241ADDAY171999GF108991081061004501999999MD1210011+9999MW1711
0081029720999991955022206004+60517+022267FM-12+005499999V0200701N00211220001CN0100001N9-01111-01391101291ADDAA199000691AY171999GF104991021061004501071001KA1999N-01391MD1210051+9999MW1011
0043029720999991955022212004+60517+022267FM-12+005499999V0200701N00101220001CN0200001N9-00721-01221101391ADDAY101999GF101991001001999999041011MW1021
0089029720999991955022218004+60517+022267FM-12+005499999V0203601N00211220001CN0060001N9-01501-01781101481ADDAY111999GF101991999001999999041001KA1999M-00611MD1210041+9999MW1011EQDQ01+000002SCOTLC
0057029720999991955022300004+60517+022267FM-12+005499999V0200201N00101220001CN0100001N9-01721-01781101581ADDAY101999GF100991001001999999001001MD1210031+9999MW1021
0089029720999991955022306004+60517+022267FM-12+005499999V0200201N00101220001CN0100001N9-01891-02001101651ADDAY111999GF106991999001999999041001KA1999N-02111MD1210091+9999MW1031EQDQ01+000002SCOTLC
0076029720999991955022312004+60517+022267FM-12+005499999V0203601N00211220001CN0150001N9-00781-01781101621ADDAY121999GF106991999001999999071001MD1610031+9999MW1021EQDQ01+000002SCOTLC
0056029720999991955022318004+60517+022267FM-12+005499999V0203601N00211220001CN0150001N9-01281-01891101641ADDAY121999GF104991001001999999001021KA1999M-00721MW1011
0057029720999991955022400004+60517+022267FM-12+005499999V0203601N00211220001CN0200001N9-01501-01891101621ADDAY101999GF100991001001999999001001MD1410001+9999MW1011
0070029720999991955022406004+60517+022267FM-12+005499999V0203401N00621220001CN0200001N9-01391-01781101411ADDAY121999GF106991001001999999071061KA1999N-01611MD1710121+9999MW1011
0057029720999991955022412004+60517+022267FM-12+005499999V0203401N00511220001CN0300001N9-01001-01781101251ADDAY101999GF101991001001999999041011MD1610081+9999MW1021
0070029720999991955022418004+60517+022267FM-12+005499999V0203201N00621220001CN0300001N9-01221-01721101261ADDAY101999GF100991001001999999001001KA1999M-00781MD1310041+9999MW1021
0057029720999991955022500004+60517+022267FM-12+005499999V0203401N00411220001CN0300001N9-01721-02111101341ADDAY101999GF100991001001999999001001MD1210051+9999MW1021
0070029720999991955022506004+60517+022267FM-12+005499999V0203201N00311220001CN0300001N9-02001-02111101361ADDAY101999GF101991001001999999001011KA1999N-02111MD1110011+9999MW1021
0057029720999991955022512004+60517+022267FM-12+005499999V0203201N00411004501CN0200001N9-00891-01281101281ADDAY111999GF106991061051004501001001MD1710071+9999MW1701
0081029720999991955022518004+60517+022267FM-12+005499999V0203201N00101002401CN0150001N9-00891-01111101211ADDAA199000691AY121999GF108991081061002501999999KA1999M-00891MD1710011+9999MW1031
0057029720999991955022600004+60517+022267FM-12+005499999V0201101N00211001501CN0030001N9-00781-00891101021ADDAY171999GF108991081061001501999999MD1710111+9999MW1711
0102029720999991955022606004+60517+022267FM-12+005499999V0200901N00211001501CN0030001N9-00781-00891100881ADDAA199000591AY171999GF108991081061001501999999KA1999N-01001MW1021EQDQ01+000022APCTENQ02+000002APC3  
0057029720999991955022612004+60517+022267FM-12+005499999V0200701N00311004501CN0080001N9-00781-01001101081ADDAY121999GF107991071051004501999999MD1110071+9999MW1021
0081029720999991955022618004+60517+022267FM-12+005499999V0203601N00211220001CN0100001N9-01001-01281101351ADDAA199000691AY121999GF105991001001999999071051KA1999M-00721MD1210191+9999MW1011
0057029720999991955022700004+60517+022267FM-12+005499999V0203601N00211004501CN0100001N9-01721-01781101621ADDAY101999GF107991071051004501999999MD1210171+9999MW1031
0070029720999991955022706004+60517+022267FM-12+005499999V0203601N00101004501CN0100001N9-01391-01501101821ADDAY121999GF108991061051004501999999KA1999N-01781MD1210131+9999MW1021
0057029720999991955022712004+60517+022267FM-12+005499999V0209991C00001220001CN0150001N9-00721-01281102111ADDAY121999GF107991001001999999071999MD1210111+9999MW1021
0089029720999991955022718004+60517+022267FM-12+005499999V0202901N00101220001CN0100001N9-01501-01611102291ADDAY101999GF104991999001999999041001KA1999M-00611MD1210131+9999MW1031EQDQ01+000002SCOTLC
0057029720999991955022800004+60517+022267FM-12+005499999V0202701N00101002401CN0080001N9-01391-01501102561ADDAY121999GF108991081061002501999999MD1210151+9999MW1021
0070029720999991955022806004+60517+022267FM-12+005499999V0209991C00001000151CN0005001N9-01221-01281102811ADDAY141999GF108991081061000251999999KA1999N-01281MD1210131+9999MW1431
0057029720999991955022812004+60517+022267FM-12+005499999V0202201N00101220001CN0300001N9-00281-00721102941ADDAY101999GF101991001001999999001011MD1210031+9999MW1021
0070029720999991955022818004+60517+022267FM-12+005499999V0202301N00101220001CN0150001N9-00781-00781102981ADDAY101999GF102991001001999999001011KA1999M-00111MD1410001+9999MW1111
0057029720999991955030100004+60517+022267FM-12+005499999V0202301N00101220001CN0050001N9-01501-01501102891ADDAY101999GF102991001001999999071051MD1710071+9999MW1111
0070029720999991955030106004+60517+022267FM-12+005499999V0202001N00311220001CN0150001N9-00781-00891102621ADDAY101999GF105991001001999999041011KA1999N-01721MD1710161+9999MW1031
0057029720999991955030112004+60517+022267FM-12+005499999V0202301N00101030001CN0300001N9-00221-00721102581ADDAY121999GF108991021051008001071999MD1710011+9999MW1021
0070029720999991955030118004+60517+022267FM-12+005499999V0202101N00211030001CN0300001N9-00221-00501102541ADDAY121999GF107991031051004501041999KA1999M-00111MD1210041+9999MW1021
0076029720999991955030200004+60517+022267FM-12+005499999V0201401N00101220001CN0070001N9-01001-01111102621ADDAY101999GF102991999001999999041001MD1210081+9999MW1111EQDQ01+000002SCOTLC
0070029720999991955030206004+60517+022267FM-12+005499999V0201401N00151220001CN0070001N9-00721-00721102651ADDAY121999GF107991001001999999071999KA1999N-01281MD1610011+9999MW1031
0057029720999991955030212004+60517+022267FM-12+005499999V0202301N00411004501CN0100001N9-00111-00391102461ADDAY121999GF108991061061004501021999MD1610071+9999MW1021
0089029720999991955030218004+60517+022267FM-12+005499999V0202301N00101220001CN0150001N9-00391-00501102441ADDAY111999GF103991999001999999041001KA1999M+00001MD1410001+9999MW1011EQDQ01+000002SCOTLC
0057029720999991955030300004+60517+022267FM-12+005499999V0202701N00101220001CN0050001N9-01001-01001102591ADDAY141999GF102991001001999999001051MD1210071+9999MW1121
0089029720999991955030306004+60517+022267FM-12+005499999V0202701N00101220001CN0200001N9-01221-01221102651ADDAY101999GF101991999001999999041001KA1999N-01391MD1210051+9999MW1111EQDQ01+000002SCOTLC
0057029720999991955030312004+60517+022267FM-12+005499999V0202501N00411220001CN0400001N9+00391-00281102481ADDAY101999GF102991001001999999041021MD1710111+9999MW1021
0070029720999991955030318004+60517+022267FM-12+005499999V0202701N00101220001CN0200001N9-00391-01501102291ADDAY111999GF105991001001999999001051KA1999M+00501MD1710091+9999MW1031
0057029720999991955030400004+60517+022267FM-12+005499999V0202301N00051220001CN0007001N9-01001-01111101991ADDAY101999GF100991001001999999001001MD1710111+9999MW1121
0070029720999991955030406004+60517+022267FM-12+005499999V0201401N00051220001CN0015001N9-01281-01391101551ADDAY111999GF105991001001999999041021KA1999N-01391MD1710231+9999MW1101
0057029720999991955030412004+60517+022267FM-12+005499999V0201601N00101001501CN0020001N9-00221-00221101191ADDAY121999GF108991081061001501999999MD1710171+9999MW1101
0081029720999991955030418004+60517+022267FM-12+005499999V0201201N00621004501CN0080001N9-00111-00281100991ADDAA199000691AY151999GF108991081061004501999999KA1999M+00001MD1710071+9999MW1221
0057029720999991955030500004+60517+022267FM-12+005499999V0200901N00511001501CN0050001N9-00281-00391101141ADDAY121999GF108991081061001501999999MD1210111+9999MW1021
0081029720999991955030506004+60517+022267FM-12+005499999V0200701N00621002401CN0060001N9-00391-00611101411ADDAA199000691AY121999GF108991081061002501999999KA1999N-00501MD1310201+9999MW1021
0057029720999991955030512004+60517+022267FM-12+005499999V0200701N00621030001CN0120001N9-00391-00891101911ADDAY171999GF106991031051012501071001MD1210231+9999MW1011
0070029720999991955030518004+60517+022267FM-12+005499999V0200901N00511220001CN0060001N9-00721-01221102421ADDAY101999GF100991001001999999001001KA1999M-00281MD1210281+9999MW1021
0057029720999991955030600004+60517+022267FM-12+005499999V0200901N00311220001CN0100001N9-01221-01391102771ADDAY101999GF100991001001999999001001MD1210161+9999MW1021
0070029720999991955030606004+60517+022267FM-12+005499999V0200701N00051220001CN0050001N9-01611-01721102911ADDAY101999GF103991001001999999001051KA1999N-01721MD1210081+9999MW1031
0057029720999991955030612004+60517+022267FM-12+005499999V0201101N00101220001CN0080001N9-00781-01111102841ADDAY111999GF105991001001999999041021MD1710091+9999MW1051
0070029720999991955030618004+60517+022267FM-12+005499999V0202301N00411004501CN0050001N9-00721-00891102451ADDAY121999GF108991081061004501999999KA1999M-00501MD1710171+9999MW1021
0057029720999991955030700004+60517+022267FM-12+005499999V0202201N00621002401CN0060001N9-00611-00781101791ADDAY121999GF108991081061002501999999MD1710371+9999MW1021
0081029720999991955030706004+60517+022267FM-12+005499999V0202301N00511002401CN0006001N9-00501-00611101021ADDAA199000591AY171999GF108991081061002501999999KA1999N-00721MD1710411+9999MW1731
0057029720999991955030712004+60517+022267FM-12+005499999V0202301N00311004501CN0100001N9-00221-00391100661ADDAY171999GF107991071061004501999999MD1710161+9999MW1011
0081029720999991955030718004+60517+022267FM-12+005499999V0202301N00101220001CN0100001N9-00281-00391100441ADDAA199001091AY121999GF108991001001999999071999KA1999M+00001MD1710111+9999MW1031
0076029720999991955030800004+60517+022267FM-12+005499999V0209991C00001220001CN0003001N9-00891-00891100441ADDAY121999GF103991999001999999041001MD1410001+9999MW1461EQDQ01+000002SCOTLC
0081029720999991955030806004+60517+022267FM-12+005499999V0201401N00051000601CN0005001N9-00611-00611100481ADDAA199000691AY141999GF108991081061000751999999KA1999N-01001MD1210041+9999MW1711
0057029720999991955030812004+60517+022267FM-12+005499999V0203601N00101004501CN0100001N9-00111-00281100641ADDAY171999GF108991061051004501071999MD1310011+9999MW1701
0081029720999991955030818004+60517+022267FM-12+005499999V0203201N00101007801CN0050001N9-00391-00501100751ADDAA199001091AY171999GF108991081051008001999999KA1999M+00001MD1210081+9999MW1711
0057029720999991955030900004+60517+022267FM-12+005499999V0200901N00101030001CN0070001N9-00781-00891100891ADDAY171999GF105991031051004501041001MD1210071+9999MW1011
0081029720999991955030906004+60517+022267FM-12+005499999V0200401N00101030001CN0020001N9-00721-00781101061ADDAA199001091AY171999GF108991041051004501071999KA1999N-00891MD1210121+9999MW1711
0057029720999991955030912004+60517+022267FM-12+005499999V0202701N00101004501CN0050001N9-00391-00611101291ADDAY121999GF107991071051004501999999MD1210071+9999MW1021
0081029720999991955030918004+60517+022267FM-12+005499999V0202701N00211030001CN0035001N9-00721-00781101491ADDAA199001091AY121999GF106991031051004501071999KA1999M-00281MD1210131+9999MW1711
0057029720999991955031000004+60517+022267FM-12+005499999V0203001N00211004501CN0070001N9-00721-00891101791ADDAY121999GF108991081061004501999999MD1210131+9999MW1021
0081029720999991955031006004+60517+022267FM-12+005499999V0200401N00101002401CN0070001N9-00781-01001102001ADDAA199000691AY171999GF108991081061002501999999KA1999N-00891MD1210051+9999MW1711
0076029720999991955031012004+60517+022267FM-12+005499999V0200901N00051220001CN0080001N9-00501-01001102311ADDAY111999GF101991999001999999041001MD1210131+9999MW1051EQDQ01+000002SCOTLC
0070029720999991955031018004+60517+022267FM-12+005499999V0200201N00051220001CN0070001N9-01001-01111102601ADDAY101999GF100991001001999999001001KA1999M-00221MD1210191+9999MW1011
0070029720999991955031106004+60517+022267FM-12+005499999V0200401N00051220001CN0020001N9-01891-02001103191ADDAY111999GF103991001001999999041051KA1999N-02001MD1210121+9999MW1041
0057029720999991955031112004+60517+022267FM-12+005499999V0202301N00101220001CN0100001N9-00281-01001103191ADDAY101999GF101991001001999999041051MD1810051+9999MW1031
0070029720999991955031118004+60517+022267FM-12+005499999V0201601N00311001501CN0080001N9-00281-00391102991ADDAY121999GF108991081061001501999999KA1999M-00221MD1710071+9999MW1021
0057029720999991955031200004+60517+022267FM-12+005499999V0202201N00311007801CN0080001N9+00001-00281102741ADDAY121999GF108991081051008001001001MD1710081+9999MW1021
0070029720999991955031206004+60517+022267FM-12+005499999V0202501N00311220001CN0200001N9-00221-00501102511ADDAY121999GF107991001001999999071999KA1999N-00281MD1610071+9999MW1021
0057029720999991955031212004+60517+022267FM-12+005499999V0202501N00311220001CN0400001N9+00391-00221102391ADDAY111999GF102991001001999999041011MD1710031+9999MW1011
0070029720999991955031218004+60517+022267FM-12+005499999V0202501N00101220001CN0150001N9+00001-00221102341ADDAY101999GF102991001001999999041011KA1999M+00501MD1410001+9999MW1011
0057029720999991955031300004+60517+022267FM-12+005499999V0202301N00311002401CN0070001N9+00001-00111102021ADDAY121999GF108991081061002501999999MD1710171+9999MW1031
0057029720999991955031312004+60517+022267FM-12+005499999V0202301N00311002401CN0100001N9+00111-00111100801ADDAY121999GF108991081061002501999999MD1710351+9999MW1021
0081029720999991955031318004+60517+022267FM-12+005499999V0202301N00311001501CN0100001N9+00001-00111100141ADDAA199000691AY121999GF108991081061001501999999KA1999M+00221MD1710331+9999MW1031
0057029720999991955031400004+60517+022267FM-12+005499999V0202901N00151001501CN0040001N9+00001+00001099611ADDAY171999GF108991081061001501999999MD1710201+9999MW1681
0081029720999991955031406004+60517+022267FM-12+005499999V0203201N00721001501CN0030001N9-00111-00111099551ADDAA199003091AY171999GF108991081061001501999999KA1999N-00221MD1210031+9999MW1731
0057029720999991955031412004+60517+022267FM-12+005499999V0203001N00511220001CN0400001N9+00001-00281100111ADDAY101999GF101991011011004501001011MD1210241+9999MW1031
0081029720999991955031418004+60517+022267FM-12+005499999V0203001N00411030001CN0300001N9-00281-00721100491ADDAA199000591AY101999GF106991011051004501071051KA1999M+00111MD1210191+9999MW1031
0057029720999991955031500004+60517+022267FM-12+005499999V0202701N00511220001CN0300001N9-00721-00781100371ADDAY101999GF100991001001999999001001MD1310081+9999MW1021
0070029720999991955031506004+60517+022267FM-12+005499999V0202301N00311220001CN0200001N9-00391-00611100181ADDAY121999GF107991001001999999071999KA1999N-00721MD1210251+9999MW1031
0057029720999991955031512004+60517+022267FM-12+005499999V0202201N00511220001CN0400001N9+00281-00391099481ADDAY121999GF107991001001999999071061MD1710361+9999MW1021
0070029720999991955031518004+60517+022267FM-12+005499999V0202301N00411004501CN0200001N9+00111-00111098891ADDAY121999GF107991051051004501071999KA1999M+00281MD1710371+9999MW1021
0076029720999991955031600004+60517+022267FM-12+005499999V0202701N00211220001CN0150001N9-00111-00221098541ADDAY101999GF101991999001999999041001MD1710091+9999MW1011EQDQ01+000002SCOTLC
0081029720999991955031606004+60517+022267FM-12+005499999V0203001N00411004501CN0120001N9-00281-00281098451ADDAA199002091AY121999GF108991061061004501071999KA1999N-00391MD1310081+9999MW1221
0057029720999991955031612004+60517+022267FM-12+005499999V0203101N00621007801CN0300001N9+00001-00501098691ADDAY121999GF106991061011008001001001MD1210071+9999MW1021
0081029720999991955031618004+60517+022267FM-12+005499999V0202501N00311220001CN0400001N9-00281-00611098781ADDAA199000691AY101999GF101991011051004501001001KA1999M+00111MD1410001+9999MW1021
0057029720999991955031700004+60517+022267FM-12+005499999V0203001N00511004501CN0030001N9-00721-00891098911ADDAY111999GF106991061061004501001001MD1210051+9999MW1731
0081029720999991955031706004+60517+022267FM-12+005499999V0203201N00311220001CN0100001N9-01001-01111099081ADDAA199000691AY171999GF107991001001999999041021KA1999N-01001MD1210091+9999MW1221
0057029720999991955031712004+60517+022267FM-12+005499999V0203401N00411004501CN0050001N9-00721-01001099251ADDAY171999GF107991071051004501999999MD1210171+9999MW1731
0081029720999991955031718004+60517+022267FM-12+005499999V0203601N00411004501CN0060001N9-00891-01111099551ADDAA199000691AY171999GF107991071061004501999999KA1999M-00721MD1210191+9999MW1711
0057029720999991955031800004+60517+022267FM-12+005499999V0203401N00311004501CN0080001N9-01001-01221099711ADDAY121999GF108991081051004501999999MD1210051+9999MW1021
0081029720999991955031806004+60517+022267FM-12+005499999V0203401N00311004501CN0080001N9-01111-01281099801ADDAA199000691AY171999GF108991051051004501071999KA1999N-01221MD1110041+9999MW1711
0057029720999991955031812004+60517+022267FM-12+005499999V0203201N00411075001CN0100001N9-00721-01001099981ADDAY171999GF108991031051004501001071MD1210111+9999MW1701
0081029720999991955031818004+60517+022267FM-12+005499999V0202701N00211220001CN0100001N9-00891-01111100191ADDAA199000691AY121999GF107991001001999999011071KA1999M-00611MD1210091+9999MW1711
0076029720999991955031900004+60517+022267FM-12+005499999V0202501N00101220001CN0100001N9-01611-01721100391ADDAY101999GF101991999001999999011001MD1310081+9999MW1021EQDQ01+000002SCOTLC
0081029720999991955031906004+60517+022267FM-12+005499999V0202301N00101030001CN0100001N9-01391-01501100581ADDAA199000691AY171999GF107991031051004501041011KA1999N-01781MD1210131+9999MW1021
0057029720999991955031912004+60517+022267FM-12+005499999V0202001N00101220001CN0300001N9-00391-01111100821ADDAY101999GF101991011011008001001001MD1210121+9999MW1011
0081029720999991955031918004+60517+022267FM-12+005499999V0202701N00101220001CN0100001N9-01001-01281100941ADDAA199000391AY101999GF106991001001999999001061KA1999M-00281MD1210081+9999MW1031
0057029720999991955032000004+60517+022267FM-12+005499999V0200401N00101030001CN0050001N9-01221-01281100921ADDAY121999GF108991041061004501011999MD1210011+9999MW1701
0081029720999991955032006004+60517+022267FM-12+005499999V0200401N00311004501CN0020001N9-00781-01001100751ADDAA199000591AY171999GF108991061061004501021999KA1999N-01281MD1710081+9999MW1731
0057029720999991955032012004+60517+022267FM-12+005499999V0200401N00211220001CN0150001N9-00391-00781100711ADDAY171999GF105991001001999999041021MD1710051+9999MW1221
0081029720999991955032018004+60517+022267FM-12+005499999V0209991C00001004501CN0100001N9-00501-00721100711ADDAA199000691AY121999GF108991061051004501071999KA1999M-00221MD1310011+9999MW1021
0057029720999991955032100004+60517+022267FM-12+005499999V0209991C00001000151CN0008001N9-01281-01391100781ADDAY141999GF108991081061000251999999MD1210051+9999MW1471
0100029720999991955032106004+60517+022267FM-12+005499999V0200901N00101220001CN0010001N9-01221-01281100771ADDAA199001091AY171999GF102991999001999999071001KA1999N-01501MD1510011+9999MW1101EQDQ01+000002SCOTLC
0057029720999991955032112004+60517+022267FM-12+005499999V0201401N00101030001CN0200001N9-00281-01001100781ADDAY121999GF106991031031008001041021MD1110011+9999MW1021
0081029720999991955032118004+60517+022267FM-12+005499999V0202701N00311004501CN0020001N9-00281-00721100911ADDAA199000691AY171999GF107991071031004501999999KA1999M-00111MD1210131+9999MW1861
0057029720999991955032200004+60517+022267FM-12+005499999V0209991C00001000151CN0005001N9-01001-01001101281ADDAY111999GF108991081061000251999999MD1210191+9999MW1471
0081029720999991955032206004+60517+022267FM-12+005499999V0200401N00101002401CN0035001N9+99999+99999101291ADDAA199000391AY171999GF108991081061002501999999KA1999N-01221MD1410001+9999MW1031
0057029720999991955032212004+60517+022267FM-12+005499999V0200701N00101220001CN0070001N9-00501-00891101261ADDAY121999GF106991001001999999001061MD1710051+9999MW1021
0070029720999991955032218004+60517+022267FM-12+005499999V0200401N00101220001CN0080001N9-01111-01221101241ADDAY111999GF102991001001999999001051KA1999M-00391MD1310041+9999MW1111
0070029720999991955032306004+60517+022267FM-12+005499999V0202301N00101220001CN0050001N9-01781-01891101941ADDAY101999GF100991001001999999001001KA1999N-02111MD1210191+9999MW1111
0076029720999991955032312004+60517+022267FM-12+005499999V0202301N00211220001CN0300001N9-00111-00611102241ADDAY101999GF101991999001999999041001MD1210111+9999MW1031EQDQ01+000002SCOTLC
0057029720999991955032400004+60517+022267FM-12+005499999V0209991C00001220001CN0060001N9-01281-01391102261ADDAY101999GF100991001001999999001001MD1710031+9999MW1111
0070029720999991955032406004+60517+022267FM-12+005499999V0201401N00311004501CN0060001N9-00611-00611101921ADDAY121999GF108991061061004501071999KA1999N-01721MD1710211+9999MW1031
0057029720999991955032412004+60517+022267FM-12+005499999V0200901N00621030001CN0050001N9-00221-00501101461ADDAY171999GF108991041051004501011999MD1710291+9999MW1711
0081029720999991955032418004+60517+022267FM-12+005499999V0200701N00511004501CN0040001N9-00281-00501101051ADDAA199000391AY171999GF108991081061004501999999KA1999M-00111MD1710191+9999MW1731
0057029720999991955032500004+60517+022267FM-12+005499999V0200401N00311002401CN0080001N9-00281-00391100821ADDAY171999GF108991081061002501999999MD1710121+9999MW1021
0081029720999991955032506004+60517+022267FM-12+005499999V0200201N00511004501CN0100001N9-00391-00501100951ADDAA199000691AY121999GF108991081051004501999999KA1999N-00501MD1210111+9999MW1011
0057029720999991955032512004+60517+022267FM-12+005499999V0203401N00411220001CN0300001N9+00001-00611101141ADDAY121999GF107991001001999999001071MD1210051+9999MW1031
0070029720999991955032518004+60517+022267FM-12+005499999V0203601N00051220001CN0100001N9-00501-00781101351ADDAY111999GF105991001001999999071061KA1999M+00221MD1210131+9999MW1031
0057029720999991955032600004+60517+022267FM-12+005499999V0203601N00051220001CN0070001N9-01111-01111101391ADDAY101999GF107991001001999999011999MD1410001+9999MW1031
0070029720999991955032606004+60517+022267FM-12+005499999V0201201N00101220001CN0025001N9-01001-01111101361ADDAY121999GF106991001001999999071061KA1999N-01391MD1810011+9999MW1011
0057029720999991955032612004+60517+022267FM-12+005499999V0201301N00411030001CN0200001N9-00111-00501101081ADDAY121999GF107991021051004501071071MD1710161+9999MW1031
0070029720999991955032618004+60517+022267FM-12+005499999V0201101N00411030001CN0150001N9-00111-00611100611ADDAY121999GF108991031051004501021999KA1999M+00001MD1710121+9999MW1021
0057029720999991955032700004+60517+022267FM-12+005499999V0200401N00311004501CN0025001N9-00391-00501100241ADDAY171999GF108991081061004501999999MD1710171+9999MW1731
0081029720999991955032706004+60517+022267FM-12+005499999V0200201N00311004501CN0050001N9-00391-00501100241ADDAA199001091AY171999GF107991051051004501071999KA1999N-00501MD1310071+9999MW1731
0057029720999991955032712004+60517+022267FM-12+005499999V0200201N00411004501CN0150001N9-00111-00391100291ADDAY171999GF107991061081004501041999MD1410001+9999MW1011
0081029720999991955032718004+60517+022267FM-12+005499999V0203201N00411004501CN0100001N9-00221-00611100341ADDAA199000691AY121999GF107991071061004501999999KA1999M+00001MD1310041+9999MW1021
0057029720999991955032800004+60517+022267FM-12+005499999V0203601N00211220001CN0150001N9-00891-01111100401ADDAY101999GF100991001001999999001001MD1210011+9999MW1021
0081029720999991955032806004+60517+022267FM-12+005499999V0203601N00211001501CN0060001N9-01221-01281100521ADDAA199000691AY171999GF107991071061001501041999KA1999N-01281MD1210031+9999MW1711
0078029720999991955032812004+60517+022267FM-12+005499999V0203201N00411220001CN0200001N9-00391-00721100561ADDAY111999GF105991011011004501001011MW1021EQDQ01+000022APCTENQ02+000002APC3  
0081029720999991955032818004+60517+022267FM-12+005499999V0203201N00411220001CN0200001N9-00611-00891100721ADDAA199000691AY101999GF100991001001999999001001KA1999M-00111MD1310091+9999MW1021
0057029720999991955032900004+60517+022267FM-12+005499999V0203201N00411220001CN0200001N9-01281-01501101001ADDAY101999GF100991001001999999001001MD1210131+9999MW1021
0070029720999991955032906004+60517+022267FM-12+005499999V0203601N00511220001CN0150001N9-01221-01281101361ADDAY101999GF100991001001999999001001KA1999N-01501MD1210211+9999MW1021
0057029720999991955032912004+60517+022267FM-12+005499999V0203601N00621220001CN0300001N9-00391-01281101691ADDAY101999GF101991011011008001001001MD1210151+9999MW1021
0070029720999991955032918004+60517+022267FM-12+005499999V0203001N00411220001CN0300001N9-00721-01001101821ADDAY111999GF101991001001999999001051KA1999M-00281MD1210081+9999MW1021
0057029720999991955033000004+60517+022267FM-12+005499999V0202301N00211220001CN0150001N9-01111-01221101451ADDAY101999GF102991001001999999001051MD1710311+9999MW1021
0070029720999991955033006004+60517+022267FM-12+005499999V0202301N00311220001CN0300001N9-00501-01001100661ADDAY121999GF106991001001999999011061KA1999N-01391MD1210291+9999MW1011
0057029720999991955033012004+60517+022267FM-12+005499999V0202701N00511004501CN0100001N9+00001-00611099981ADDAY121999GF108991061061004501021999MD1710311+9999MW1701
0081029720999991955033018004+60517+022267FM-12+005499999V0202901N00511220001CN0400001N9-00221-00781099841ADDAA199000691AY101999GF101991001001999999041031KA1999M+00221MD1710071+9999MW1011
0057029720999991955033100004+60517+022267FM-12+005499999V0202901N00721220001CN0300001N9-00391-00891099551ADDAY101999GF100991001001999999001001MD1710081+9999MW1011
0081029720999991955033106004+60517+022267FM-12+005499999V0203001N00821220001CN0200001N9-00391-00721099261ADDAA199000591AY171999GF102991021021004501041001KA1999N-00501MD1510031+9999MW1361
0057029720999991955033112004+60517+022267FM-12+005499999V0203001N00821004501CN0300001N9-00221-00721099581ADDAY181999GF107991071091004501999999MD1210151+9999MW1851
0081029720999991955033118004+60517+022267FM-12+005499999V0203401N00511004501CN0300001N9-00281-00891099991ADDAA199000691AY121999GF106991061051004501001001KA1999M-00111MD1210241+9999MW1011
0057029720999991955040100004+60517+022267FM-12+005499999V0203001N00211220001CN0200001N9-01281-01391100281ADDAY101999GF105991001001999999001061MD1210131+9999MW1031
0070029720999991955040106004+60517+022267FM-12+005499999V0209991C00001220001CN0150001N9-01611-01721100321ADDAY121999GF107991001001999999041021KA1999N-01891MD1210011+9999MW1021
0057029720999991955040112004+60517+022267FM-12+005499999V0202301N00411030001CN0400001N9-00281-00781100391ADDAY121999GF106991041051004501041051MD1310051+9999MW1011
0070029720999991955040118004+60517+022267FM-12+005499999V0202701N00211220001CN0300001N9-00391-00721100461ADDAY111999GF101991001001999999041011KA1999M+00001MD1510081+9999MW1011
0057029720999991955040200004+60517+022267FM-12+005499999V0209991C00001220001CN0200001N9-01391-01391100711ADDAY101999GF100991001001999999001001MD1210071+9999MW1021
0070029720999991955040206004+60517+022267FM-12+005499999V0202301N00211220001CN0300001N9-00781-00891100621ADDAY101999GF106991001001999999041021KA1999N-01781MD1610051+9999MW1031
0057029720999991955040212004+60517+022267FM-12+005499999V0202701N00621001501CN0030001N9-00111-00221100581ADDAY171999GF108991081061001501999999MD1510011+9999MW1711
0081029720999991955040218004+60517+022267FM-12+005499999V0203001N00311220001CN0300001N9-00281-00781100941ADDAA199000391AY111999GF101991001001999999001051KA1999M+00111MD1210201+9999MW1021
0057029720999991955040300004+60517+022267FM-12+005499999V0202301N00211012301CN0300001N9-01221-01221101041ADDAY111999GF106991061051012501001001MD1710031+9999MW1031
0081029720999991955040306004+60517+022267FM-12+005499999V0202301N00211030001CN0400001N9-00501-00721101011ADDAA199000691AY171999GF105991011021008001041001KA1999N-01281MD1410001+9999MW1011
0057029720999991955040312004+60517+022267FM-12+005499999V0202701N00511030001CN0400001N9+00221-00501100991ADDAY121999GF107991011011008001041001MD1610011+9999MW1031
0089029720999991955040318004+60517+022267FM-12+005499999V0202701N00211220001CN0300001N9+00001-00281100861ADDAY121999GF105991999001999999071001KA1999M+00391MD1710051+9999MW1011EQDQ01+000002SCOTLC
0076029720999991955040400004+60517+022267FM-12+005499999V0200901N00101220001CN0050001N9-00611-00721100891ADDAY111999GF102991999001999999041001MD1510031+9999MW1121EQDQ01+000002SCOTLC
0070029720999991955040406004+60517+022267FM-12+005499999V0200401N00051220001CN0100001N9-00501-00501101181ADDAY101999GF101991001001999999041011KA1999N-00781MD1210191+9999MW1011
0057029720999991955040412004+60517+022267FM-12+005499999V0200401N00101220001CN0400001N9+00221-00721101421ADDAY101999GF102991021011008001001001MD1210071+9999MW1031
0057029720999991955040500004+60517+022267FM-12+005499999V0201201N00101220001CN0200001N9-00501-00721102021ADDAY121999GF106991001001999999041999MD1210131+9999MW1011
0070029720999991955040506004+60517+022267FM-12+005499999V0200901N00101220001CN0050001N9-00721-01281102311ADDAY111999GF106991001001999999071021KA1999N-01111MD1210111+9999MW1041
0057029720999991955040512004+60517+022267FM-12+005499999V0201201N00101220001CN0500001N9+00001-01221102401ADDAY101999GF102991011011012501041011MD1110011+9999MW1021
0070029720999991955040518004+60517+022267FM-12+005499999V0201801N00151220001CN0500001N9-00281-01001102321ADDAY121999GF107991001001999999071071KA1999M+00221MD1510011+9999MW1031
0057029720999991955040600004+60517+022267FM-12+005499999V0201401N00311220001CN0200001N9-00391-00781102221ADDAY121999GF108991001001999999071999MD1710051+9999MW1021
0070029720999991955040606004+60517+022267FM-12+005499999V0201201N00411004501CN0400001N9-00391-00891102061ADDAY121999GF108991081051004501999999KA1999N-00391MD1610071+9999MW1021
0057029720999991955040612004+60517+022267FM-12+005499999V0201201N00721004501CN0020001N9-00281-00391102051ADDAY171999GF108991081051004501999999MD1610071+9999MW1731
0078029720999991955040618004+60517+022267FM-12+005499999V0200901N00511004501CN0016001N9-00281-00391102091ADDAY171999GF108991081061004501999999MW1711EQDQ01+000022APCTENQ02+000002APC3  
0100029720999991955040706004+60517+022267FM-12+005499999V0200701N00511220001CN0300001N9-00611-01111102251ADDAA199003091AY101999GF101991999001999999041001KA1999N-00721MD1110041+9999MW1021EQDQ01+000002SCOTLC
0057029720999991955040712004+60517+022267FM-12+005499999V0200901N00821030001CN0300001N9-00111-01111102291ADDAY111999GF105991041011004501041001MD1410001+9999MW1031
0070029720999991955040718004+60517+022267FM-12+005499999V0200901N00511220001CN0300001N9-00221-01281102291ADDAY101999GF102991001001999999001051KA1999M+00111MD1410001+9999MW1021
0057029720999991955040800004+60517+022267FM-12+005499999V0200401N00411220001CN0500001N9-00611-01391102251ADDAY101999GF100991001001999999001001MD1710051+9999MW1021
0070029720999991955040806004+60517+022267FM-12+005499999V0200401N00511220001CN0400001N9-00781-01391102251ADDAY101999GF100991001001999999001001KA1999N-01111MD1410001+9999MW1021
0057029720999991955040812004+60517+022267FM-12+005499999V0200201N00621220001CN0400001N9-00221-01111102251ADDAY101999GF100991001001999999001001MD1410001+9999MW1021
0070029720999991955040818004+60517+022267FM-12+005499999V0203601N00211220001CN0300001N9-00391-01281102281ADDAY101999GF100991001001999999001001KA1999M-00111MD1310031+9999MW1021
0070029720999991955040906004+60517+022267FM-12+005499999V0200201N00411220001CN0300001N9-01001-01281102421ADDAY101999GF100991001001999999001001KA1999N-01611MD1010241+9999MW1021
0057029720999991955040912004+60517+022267FM-12+005499999V0200301N00311220001CN0400001N9-00221-01111102351ADDAY101999GF100991001001999999001001MD1710051+9999MW1021
0070029720999991955040918004+60517+022267FM-12+005499999V0203601N00311220001CN0350001N9-00391-01281102341ADDAY101999GF100991001001999999001001KA1999M+00001MD1310041+9999MW1021
0057029720999991955041000004+60517+022267FM-12+005499999V0203601N00211220001CN0300001N9-00891-01281102291ADDAY101999GF100991001001999999001001MD1710031+9999MW1021
0070029720999991955041006004+60517+022267FM-12+005499999V0203601N00101220001CN0300001N9-01001-01281102141ADDAY101999GF100991001001999999001001KA1999N-01281MD1710051+9999MW1021
0057029720999991955041012004+60517+022267FM-12+005499999V0203601N00211220001CN0500001N9+99999+99999101861ADDAY101999GF100991001001999999001001MD1710131+9999MW1021
0043029720999991955041018004+60517+022267FM-12+005499999V0203201N001519999999N0400001N9-00781+99999101741ADDAY121999GF107991999999999999999999MW1031
0057029720999991955041100004+60517+022267FM-12+005499999V0200901N00211007801CN0300001N9-00281-00611101721ADDAY121999GF107991071051008001999999MD1710071+9999MW1021
0070029720999991955041106004+60517+022267FM-12+005499999V0201201N00101220001CN0150001N9-00221-00781101651ADDAY101999GF104991001001999999041051KA1999N-00891MD1710011+9999MW1021
0057029720999991955041112004+60517+022267FM-12+005499999V0201801N00151004501CN0150001N9+00001-00391101641ADDAY181999GF107991071091004501999999MD1610011+9999MW1801
0081029720999991955041118004+60517+022267FM-12+005499999V0201801N00101030001CN0200001N9-00221-00391101781ADDAA199000691AY181999GF108991021051004501041071KA1999M+00111MD1210131+9999MW1031
0057029720999991955041200004+60517+022267FM-12+005499999V0209991C00001220001CN0150001N9-00611-00721101951ADDAY101999GF100991001001999999001001MD1210081+9999MW1021
0070029720999991955041206004+60517+022267FM-12+005499999V0201401N00051004501CN0350001N9-00221-00391102161ADDAY121999GF107991071061004501999999KA1999N-00721MD1210121+9999MW1011
0057029720999991955041212004+60517+022267FM-12+005499999V0201801N00621004501CN0200001N9+00111-00611102141ADDAY121999GF107991071021004501999999MD1810071+9999MW1031
0070029720999991955041218004+60517+022267FM-12+005499999V0201601N00511004501CN0300001N9+00001-00281101851ADDAY121999GF108991071061004501021999KA1999M+00221MD1710151+9999MW1031
0057029720999991955041300004+60517+022267FM-12+005499999V0201601N00411004501CN0040001N9+00001-00111101291ADDAY171999GF108991081061004501999999MD1710251+9999MW1681
0081029720999991955041306004+60517+022267FM-12+005499999V0201401N00101000601CN0007001N9+00001+00001100791ADDAA199004091AY141999GF108991081061000751999999KA1999N-00111MD1710191+9999MW1501
0057029720999991955041312004+60517+022267FM-12+005499999V0201401N00101001501CN0100001N9+00221+00111100591ADDAY121999GF108991081061001501999999MD1710121+9999MW1021
0081029720999991955041318004+60517+022267FM-12+005499999V0200801N00101001501CN0060001N9+00111+00001100581ADDAA199000591AY121999GF108991081061001501999999KA1999M+00221MD1710011+9999MW1021
0057029720999991955041400004+60517+022267FM-12+005499999V0200601N00101002401CN0070001N9+00111+00001100611ADDAY121999GF108991081061002501999999MD1210171+9999MW1021
0070029720999991955041406004+60517+022267FM-12+005499999V0200401N00211002401CN0100001N9+00111+00001100791ADDAY121999GF108991081061002501999999KA1999N+00001MD1710041+9999MW1011
0057029720999991955041412004+60517+022267FM-12+005499999V0200201N00411004501CN0150001N9+00281-00111101201ADDAY121999GF108991081051004501999999MD1210241+9999MW1021
0070029720999991955041418004+60517+022267FM-12+005499999V0200201N00621004501CN0150001N9+00281+00001101661ADDAY121999GF107991051051004501071999KA1999M+00391MD1210251+9999MW1021
0057029720999991955041500004+60517+022267FM-12+005499999V0200401N00211004501CN0100001N9+00221+00001101941ADDAY161999GF108991081061004501999999MD1210131+9999MW1211
0081029720999991955041506004+60517+022267FM-12+005499999V0200201N00311030001CN0150001N9+00221-00111102141ADDAA124999999AY121999GF108991011051004501071999KA1999N+00111MD1210111+9999MW1021
0057029720999991955041512004+60517+022267FM-12+005499999V0200401N00511030001CN0200001N9+00391-00111102341ADDAY121999GF108991041051004501071999MD1210091+9999MW1021
0070029720999991955041518004+60517+022267FM-12+005499999V0200401N00051220001CN0150001N9+00281+00001102351ADDAY121999GF107991001001999999071999KA1999M+00501MD1810011+9999MW1011
0057029720999991955041600004+60517+022267FM-12+005499999V0209991C00001220001CN0150001N9+00001-00111102481ADDAY121999GF107991001001999999071999MD1710011+9999MW1021
0057029720999991955041612004+60517+022267FM-12+005499999V0202501N00411220001CN0350001N9+00611-00501102551ADDAY121999GF107991001001999999041021MD1810011+9999MW1031
0100029720999991955041618004+60517+022267FM-12+005499999V0202701N00311220001CN0300001N9+00221+00001102381ADDAA199000691AY101999GF101991999001999999041001KA1999M+00781MD1610091+9999MW1011EQDQ01+000002SCOTLC
0057029720999991955041700004+60517+022267FM-12+005499999V0203401N00621220001CN0200001N9+00111-00721102421ADDAY101999GF100991001001999999001001MD1210071+9999MW1011
0070029720999991955041706004+60517+022267FM-12+005499999V0203601N00511220001CN0500001N9-00111-00781102611ADDAY101999GF100991001001999999001001KA1999N-00281MD1210091+9999MW1021
0057029720999991955041712004+60517+022267FM-12+005499999V0203601N00821220001CN0500001N9+00221-00781102481ADDAY111999GF104991041011008001001001MD1710151+9999MW1031
0070029720999991955041718004+60517+022267FM-12+005499999V0203601N00821007801CN0400001N9+00001-01001102591ADDAY121999GF106991061051008001999999KA1999M+00221MD1210091+9999MW1011
0057029720999991955041800004+60517+022267FM-12+005499999V0203601N00721220001CN0400001N9-00391-01001102591ADDAY101999GF102991021051008001001001MD1410001+9999MW1021
0070029720999991955041806004+60517+022267FM-12+005499999V0203601N00721220001CN0400001N9-00281-01001102781ADDAY101999GF100991001001999999001001KA1999N-00501MD1210131+9999MW1021
0057029720999991955041812004+60517+022267FM-12+005499999V0200201N00721220001CN0400001N9+00221-00891102721ADDAY101999GF100991001001999999001001MD1710031+9999MW1021
0070029720999991955041818004+60517+022267FM-12+005499999V0203601N00361220001CN0400001N9+00111-00721102581ADDAY101999GF101991001001999999001051KA1999M+00391MD1610051+9999MW1031
0057029720999991955041900004+60517+022267FM-12+005499999V0209991C00001220001CN0300001N9-00391-00781102551ADDAY101999GF100991001001999999001001MD1710011+9999MW1011
0070029720999991955041906004+60517+022267FM-12+005499999V0203601N00051220001CN0300001N9-00221-00721102441ADDAY101999GF103991001001999999001061KA1999N-00891MD1710041+9999MW1031
0057029720999991955041912004+60517+022267FM-12+005499999V0209991C00001220001CN0500001N9+00721-01111102221ADDAY101999GF103991001001999999001011MD1710151+9999MW1031
0070029720999991955041918004+60517+022267FM-12+005499999V0203501N00051220001CN0500001N9+00281-00281101921ADDAY121999GF107991001001999999001021KA1999M+00891MD1710131+9999MW1021
0057029720999991955042000004+60517+022267FM-12+005499999V0209991C00001220001CN0300001N9-00221-00281101591ADDAY121999GF106991001001999999001061MD1710211+9999MW1021
0070029720999991955042006004+60517+022267FM-12+005499999V0209991C00001220001CN0150001N9+00001-00281101151ADDAY121999GF108991001001999999071071KA1999N-00281MD1710191+9999MW1011
0057029720999991955042012004+60517+022267FM-12+005499999V0209991C00001220001CN0400001N9+00501-01111100791ADDAY121999GF107991001001999999071021MD1710231+9999MW1021
0070029720999991955042018004+60517+022267FM-12+005499999V0209991C00001030001CN0400001N9+00281-00391100481ADDAY121999GF107991041051012501071999KA1999M+00611MD1710091+9999MW1031
0057029720999991955042100004+60517+022267FM-12+005499999V0209991C00001004501CN0300001N9+00111-00281099971ADDAY121999GF108991081051004501999999MD1710241+9999MW1021
0081029720999991955042106004+60517+022267FM-12+005499999V0202701N00051001501CN0070001N9+00001-00111099651ADDAA199000591AY171999GF108991071061001501071999KA1999N-00111MD1610111+9999MW1711
0057029720999991955042112004+60517+022267FM-12+005499999V0203201N00361002401CN9999999N9+00221+00111099691ADDAY171999GF108991081061002501999999MD1210041+9999MW1681
0081029720999991955042118004+60517+022267FM-12+005499999V0203201N00211001501CN0030001N9+00111+00111099911ADDAA199005091AY171999GF108991081061001501999999KA1999M+00281MD1210121+9999MW1681
0076029720999991955042200004+60517+022267FM-12+005499999V0203401N00511220001CN0200001N9-00111-00281100051ADDAY171999GF103991999001999999041001MD1210051+9999MW1011EQDQ01+000002SCOTLC
0081029720999991955042206004+60517+022267FM-12+005499999V0203401N00621220001CN0400001N9+00001-00501100321ADDAA199002091AY121999GF107991001001999999001021KA1999N-00221MD1210151+9999MW1031
0070029720999991955042218004+60517+022267FM-12+005499999V0203201N00511220001CN0400001N9-00221-00891100891ADDAY101999GF101991001001999999001011KA1999M+00281MD1210131+9999MW1011
0057029720999991955042300004+60517+022267FM-12+005499999V0203201N00411007801CN0400001N9-00281-00611100891ADDAY121999GF107991071051008001999999MD1410001+9999MW1021
0070029720999991955042306004+60517+022267FM-12+005499999V0202701N00211030001CN0400001N9-00111-00281100851ADDAY121999GF107991011011004501071999KA1999N-00391MD1710041+9999MW1021
0057029720999991955042312004+60517+022267FM-12+005499999V0203201N00511007801CN0400001N9+00221-00781100761ADDAY121999GF106991051081008001071999MD1710011+9999MW1011
0070029720999991955042318004+60517+022267FM-12+005499999V0202901N00411220001CN0400001N9-00111-00781100721ADDAY101999GF101991001001999999001011KA1999M+00281MD1710041+9999MW1011
0057029720999991955042400004+60517+022267FM-12+005499999V0202501N00211220001CN0300001N9-00391-00781100491ADDAY101999GF100991001001999999001001MD1810171+9999MW1011
0057029720999991955042406004+60517+022267FM-12+005499999V0202301N00411220001CN0300001N9-00221-00391100321ADDAY111999GF104991011011008001041001MD1710011+9999MW1021
0057029720999991955042412004+60517+022267FM-12+005499999V0202701N00821220001CN0400001N9+00111-00781100281ADDAY111999GF103991031011012501001001MD1210071+9999MW1021
0100029720999991955042418004+60517+022267FM-12+005499999V0202301N00311220001CN0400001N9-00221-00501100481ADDAA199000691AY181999GF102991999001999999041001KA1999M+00221MD1210081+9999MW1011EQDQ01+000002SCOTLC
0070029720999991955042506004+60517+022267FM-12+005499999V0203001N00211004501CN0400001N9-00111-00221100821ADDAY121999GF107991071051004501999999KA1999N-00391MD1210151+9999MW1021
0057029720999991955042512004+60517+022267FM-12+005499999V0200201N00211007801CN0400001N9+00281-00501101121ADDAY121999GF108991081051008001999999MD1210111+9999MW1021
0070029720999991955042518004+60517+022267FM-12+005499999V0200201N00261220001CN0400001N9+00281-00391101181ADDAY121999GF107991001001999999071999KA1999M+00501MD1110011+9999MW1011
0057029720999991955042600004+60517+022267FM-12+005499999V0200401N00411004501CN0070001N9+00001+00001101011ADDAY171999GF108991051061004501071999MD1710111+9999MW1731
0081029720999991955042606004+60517+022267FM-12+005499999V0200401N00621001501CN0100001N9+00111+00001100691ADDAA199001091AY171999GF108991081061001501999999KA1999N+00001MD1710191+9999MW1681
0057029720999991955042612004+60517+022267FM-12+005499999V0200901N00461004501CN0200001N9+00281+00221100691ADDAY121999GF108991071051004501999999MD1210051+9999MW1011
0081029720999991955042618004+60517+022267FM-12+005499999V0201201N00101004501CN0400001N9+00221+00001100811ADDAA199002091AY181999GF107991071051004501999999KA1999M+00391MD1210071+9999MW1031
0076029720999991955042700004+60517+022267FM-12+005499999V0200701N00211220001CN0300001N9-00221-00281100791ADDAY101999GF101991999001999999041001MD1710031+9999MW1011EQDQ01+000002SCOTLC
0070029720999991955042706004+60517+022267FM-12+005499999V0200901N00101220001CN0200001N9+00001-00501100771ADDAY101999GF103991011021008001041001KA1999N-00501MD1710011+9999MW1031
0057029720999991955042712004+60517+022267FM-12+005499999V0202701N00311007801CN0200001N9+00391+00111100841ADDAY121999GF106991061031008001999999MD1310051+9999MW1021
0081029720999991955042718004+60517+022267FM-12+005499999V0202501N00211030001CN0150001N9+00001-00221101081ADDAA199000691AY171999GF107991021061002501071999KA1999M+00501MD1210111+9999MW1231
0076029720999991955042800004+60517+022267FM-12+005499999V0201601N00211220001CN0150001N9-00111-00111101111ADDAY101999GF101991999001999999041001MD1410001+9999MW1021EQDQ01+000002SCOTLC
0070029720999991955042806004+60517+022267FM-12+005499999V0202301N00311220001CN0100001N9+00221+00001101171ADDAY101999GF102991011011004501041001KA1999N-00221MD1110051+9999MW1021
0057029720999991955042812004+60517+022267FM-12+005499999V0202001N00621220001CN0400001N9+00721+00111101391ADDAY121999GF107991001001999999041071MD1210081+9999MW1011
0081029720999991955042818004+60517+022267FM-12+005499999V0201601N00311004501CN0100001N9+00391+00221101051ADDAA199000591AY121999GF108991061051004501021999KA1999M+00781MD1710241+9999MW1631
0081029720999991955042906004+60517+022267FM-12+005499999V0202301N00211000151CN0002001N9+00281+00281100601ADDAA199002091AY141999GF108991081061000251999999KA1999N+00281MD1210121+9999MW1451
0057029720999991955042912004+60517+022267FM-12+005499999V0203001N00621220001CN0300001N9+00781+00281101011ADDAY121999GF104991041011008001001001MD1210191+9999MW1011
0100029720999991955042918004+60517+022267FM-12+005499999V0202301N00211220001CN0400001N9+00501+00111101341ADDAA199000691AY101999GF102991999001999999041001KA1999M+00781MD1210111+9999MW1021EQDQ01+000002SCOTLC
0057029720999991955043000004+60517+022267FM-12+005499999V0201401N00101220001CN0200001N9+00281+00221101311ADDAY121999GF107991001001999999071999MD1810041+9999MW1021
0070029720999991955043006004+60517+022267FM-12+005499999V0203401N00101220001CN0300001N9+00611+00281101261ADDAY121999GF101991011011008001041001KA1999N+00111MD1310051+9999MW1011
0057029720999991955043012004+60517+022267FM-12+005499999V0203301N005119999999N0400001N9+01001-00111101361ADDAY121999GF107991999011012501001071MD1110031+9999MW1031
0070029720999991955043018004+60517+022267FM-12+005499999V0203401N00151220001CN0350001N9+00501-00391101351ADDAY121999GF107991001001999999071999KA1999M+01111MD1410001+9999MW1011
0076029720999991955050100004+60517+022267FM-12+005499999V0200201N00051220001CN0200001N9+00001-00281101381ADDAY121999GF102991999001999999071001MD1210031+9999MW1011EQDQ01+000002SCOTLC
0089029720999991955050106004+60517+022267FM-12+005499999V0201101N00211220001CN0400001N9+00391-00501101411ADDAY101999GF103991999001999999041001KA1999N-00221MD1210031+9999MW1021EQDQ01+000002SCOTLC
0076029720999991955050112004+60517+022267FM-12+005499999V0200201N00101220001CN0500001N9+01001-01001101321ADDAY101999GF101991999001999999041001MD1710071+9999MW1021EQDQ01+000002SCOTLC
0070029720999991955050118004+60517+022267FM-12+005499999V0202501N00211030001CN0500001N9+00611-00281101141ADDAY121999GF107991031051004501071999KA1999M+01111MD1610051+9999MW1031
0057029720999991955050200004+60517+022267FM-12+005499999V0200401N00101220001CN0300001N9+00221-00281101061ADDAY121999GF107991001001999999071999MD1710031+9999MW1021
0089029720999991955050206004+60517+022267FM-12+005499999V0200901N00511220001CN0400001N9+00391-00611101191ADDAY101999GF101991999001999999041001KA1999N+00221MD1210011+9999MW1011EQDQ01+000002SCOTLC
0057029720999991955050212004+60517+022267FM-12+005499999V0200701N00411220001CN0500001N9+00891-00501101111ADDAY101999GF103991011011008001001011MD1710071+9999MW1031
0070029720999991955050218004+60517+022267FM-12+005499999V0200901N00211220001CN0400001N9+00721-00281100811ADDAY121999GF108991001001999999071999KA1999M+01001MD1710151+9999MW1031
0057029720999991955050300004+60517+022267FM-12+005499999V0201401N00511004501CN0350001N9+00281-00611100601ADDAY121999GF108991081061004501999999MD1710151+9999MW1021
0081029720999991955050306004+60517+022267FM-12+005499999V0200901N00621030001CN0100001N9+00111+00001099971ADDAA199004091AY171999GF108991041061004501021999KA1999N+00001MD1710361+9999MW1631
0057029720999991955050312004+60517+022267FM-12+005499999V0201201N00721001501CN0100001N9+00221+00221099521ADDAY161999GF108991081061001501999999MD1710151+9999MW1611
0081029720999991955050318004+60517+022267FM-12+005499999V0202001N00311000151CN0002001N9+00281+00281099481ADDAA199008091AY121999GF108991081061000251999999KA1999M+00391MD1710071+9999MW1471
0057029720999991955050400004+60517+022267FM-12+005499999V0202301N00101000151CN0010001N9+00221+00221099421ADDAY161999GF108991081061000251999999MD1210011+9999MW1511
0067029720999991955050406004+60517+022267FM-12+005499999V0202701N00511000151CN0003001N9+00221+00221099691ADDAA199001091AY121999GF108991081061000251999999KA1999N+00111MW1471
0057029720999991955050412004+60517+022267FM-12+005499999V0202901N00311004501CN0200001N9+00391-00111100121ADDAY121999GF108991081051004501999999MD1210191+9999MW1021
0070029720999991955050418004+60517+022267FM-12+005499999V0201801N00411030001CN0050001N9+00281+00001100161ADDAY121999GF108991021051004501071999KA1999M+00501MD1510051+9999MW1021
0057029720999991955050500004+60517+022267FM-12+005499999V0201401N00311001501CN0050001N9+00391+00391099661ADDAY161999GF108991081061001501999999MD1710331+9999MW1631
0081029720999991955050506004+60517+022267FM-12+005499999V0202001N00411000151CN0002001N9+00391+00391099541ADDAA199005091AY161999GF108991081061000251999999KA1999N+00221MD1510011+9999MW1451
0057029720999991955050512004+60517+022267FM-12+005499999V0201801N00511001501CN0040001N9+00501+00391099751ADDAY141999GF108991081061001501999999MD1010091+9999MW1021
0081029720999991955050518004+60517+022267FM-12+005499999V0201801N00311000151CN0008001N9+00391+00391099811ADDAA199000391AY151999GF108991081061000251999999KA1999M+00611MD1210031+9999MW1611
0057029720999991955050600004+60517+022267FM-12+005499999V0202001N00101000151CN0005001N9+00281+00281099821ADDAY141999GF108991081061000251999999MD1410001+9999MW1451
0100029720999991955050606004+60517+022267FM-12+005499999V0201601N00051000601CN9999999N9+00391+00391099861ADDAA199002091AY161999GF108991999061000751071999KA1999N+00281MD1210041+9999MW1101EQDQ01+000082SCOTLC
0057029720999991955050612004+60517+022267FM-12+005499999V0202501N00361004501CN0100001N9+01001+00721999999ADDAY121999GF107991071081004501021999MD1210051+9999MW1021
0081029720999991955050618004+60517+022267FM-12+005499999V0202701N00211004501CN0150001N9+00781+00611100111ADDAA199000691AY121999GF107991061051004501071999KA1999M+01111MD1210071+9999MW1021
0057029720999991955050700004+60517+022267FM-12+005499999V0209991C00001000151CN0002001N9+00501+00501100251ADDAY141999GF108991081061000251999999MD1210011+9999MW1471
0081029720999991955050706004+60517+022267FM-12+005499999V0203201N00101000601CN0020001N9+00391+00391100451ADDAA199000691AY141999GF108991081061000751999999KA1999N+00281MD1210161+9999MW1101
0057029720999991955050712004+60517+022267FM-12+005499999V0200201N00311004501CN0200001N9+00721+00281100641ADDAY121999GF108991081051004501999999MD1210091+9999MW1021
0070029720999991955050718004+60517+022267FM-12+005499999V0200401N00511030001CN0300001N9+00501+00221100811ADDAY121999GF107991011051008001071999KA1999M+00781MD1210041+9999MW1011
0057029720999991955050800004+60517+022267FM-12+005499999V0200201N00411220001CN0400001N9+00221-00221100951ADDAY111999GF107991001001999999041999MD1210051+9999MW1031
0070029720999991955050806004+60517+022267FM-12+005499999V0200201N00211220001CN0400001N9+00391-00391101261ADDAY111999GF102991001001999999001011KA1999N+00001MD1210171+9999MW1011
0057029720999991955050812004+60517+022267FM-12+005499999V0203601N00411220001CN0400001N9+00781-00611101461ADDAY121999GF103991031011008001001001MD1210071+9999MW1011
0070029720999991955050818004+60517+022267FM-12+005499999V0203001N00511220001CN0400001N9+00611-00391101511ADDAY121999GF107991001001999999041021KA1999M+01001MD1310041+9999MW1021
0043029720999991955050906004+60517+022267FM-12+005499999V0201801N00411002401CN0080001N9+00391+99999100801ADDAY161999GF108991081061002501999999MW1601
0057029720999991955050912004+60517+022267FM-12+005499999V0202101N00411001501CN0045001N9+00501+00391100641ADDAY161999GF108991081061001501999999MD1710121+9999MW1211
0081029720999991955050918004+60517+022267FM-12+005499999V0201801N00411000601CN0015001N9+00391+00281100341ADDAA199000391AY121999GF108991081061000751999999KA1999M+00721MD1710191+9999MW1101
0057029720999991955051000004+60517+022267FM-12+005499999V0201601N00411001501CN9999999N9+00391+00391099851ADDAY161999GF108991081061001501999999MD1710291+9999MW1611
0057029720999991955051012004+60517+022267FM-12+005499999V0202201N00511001501CN0017001N9+00781+00721099341ADDAY151999GF108991081061001501999999MD1210081+9999MW1501
0081029720999991955051018004+60517+022267FM-12+005499999V0202001N00361002401CN0050001N9+00611+00501099261ADDAA199000591AY151999GF108991061061002501999999KA1999M+00781MD1810051+9999MW1511
0057029720999991955051100004+60517+022267FM-12+005499999V0201801N00311001501CN0030001N9+00391+00391099051ADDAY151999GF108991081061001501999999MD1710091+9999MW1511
0081029720999991955051106004+60517+022267FM-12+005499999V0202901N00511000601CN0070001N9+00221+00221099141ADDAA199001091AY151999GF108991081061000751999999KA1999N+00221MD1210161+9999MW1201
0057029720999991955051112004+60517+022267FM-12+005499999V0202701N00821220001CN0300001N9+00721-00611099811ADDAY111999GF101991011021008001001001MD1210391+9999MW1211
0081029720999991955051118004+60517+022267FM-12+005499999V0202001N00511220001CN0400001N9+00611+00001099951ADDAA199000691AY121999GF106991001001999999041061KA1999M+00781MD1210051+9999MW1031
0076029720999991955051200004+60517+022267FM-12+005499999V0202501N00311220001CN0300001N9+00281+00001999999ADDAY121999GF107991999001999999071001MD1210011+9999MW1021EQDQ01+000002SCOTLC
0070029720999991955051206004+60517+022267FM-12+005499999V0202501N00311220001CN0400001N9+00501+00001100091ADDAY101999GF101991011031008001041031KA1999N+00221MD1210071+9999MW1021
0057029720999991955051212004+60517+022267FM-12+005499999V0202301N00721075001CN0500001N9+00721-00281100241ADDAY111999GF107991021021008001001061MD1210041+9999MW1031
0081029720999991955051218004+60517+022267FM-12+005499999V0202301N00721004501CN0150001N9+00391+00221099891ADDAA199003091AY121999GF107991071061004501999999KA1999M+00891MD1710241+9999MW1011
0057029720999991955051300004+60517+022267FM-12+005499999V0202901N00311220001CN0350001N9+00111-00111100281ADDAY121999GF101991011061004501001001MD1210271+9999MW1011
0081029720999991955051306004+60517+022267FM-12+005499999V0202001N00311220001CN0100001N9+00281+00221100521ADDAA199000591AY141999GF104991041051002501001001KA1999N-00111MD1210081+9999MW1011
0057029720999991955051312004+60517+022267FM-12+005499999V0202001N00621030001CN0400001N9+00781+00111100681ADDAY121999GF107991021021008001011061MD1210011+9999MW1031
0081029720999991955051318004+60517+022267FM-12+005499999V0201201N00101002401CN0070001N9+00391+00281100591ADDAA199001091AY161999GF108991061061002501021999KA1999M+00891MD1710151+9999MW1611
0057029720999991955051400004+60517+022267FM-12+005499999V0201801N00311001501CN0040001N9+00391+00391100451ADDAY161999GF108991081061001501999999MD1710111+9999MW1611
0081029720999991955051406004+60517+022267FM-12+005499999V0201601N00311001501CN0020001N9+00501+00501100241ADDAA199003091AY161999GF108991081061001501999999KA1999N+00391MD1710081+9999MW1631
0057029720999991955051412004+60517+022267FM-12+005499999V0201601N00511001501CN0040001N9+00721+00611099941ADDAY161999GF108991061061001501999999MD1710171+9999MW1211
0081029720999991955051418004+60517+022267FM-12+005499999V0201601N00411000601CN0030001N9+00721+00721099781ADDAA199004091AY161999GF108991081061000751999999KA1999M+00781MD1710121+9999MW1631
0057029720999991955051500004+60517+022267FM-12+005499999V0201801N00511002401CN0100001N9+00781+00781099391ADDAY161999GF108991081061002501999999MD1710171+9999MW1211
0081029720999991955051506004+60517+022267FM-12+005499999V0202301N00511000151CN0020001N9+00501+00501099481ADDAA199004091AY141999GF108991081061000251999999KA1999N+00391MD1510051+9999MW1631
0057029720999991955051512004+60517+022267FM-12+005499999V0202301N00931220001CN0400001N9+00891+00281100121ADDAY111999GF103991031011008001001001MD1210321+9999MW1011
0081029720999991955051518004+60517+022267FM-12+005499999V0202001N00721220001CN0400001N9+00501+00281100401ADDAA199000391AY101999GF104991011011008001001021KA1999M+00891MD1210171+9999MW1031
0057029720999991955051600004+60517+022267FM-12+005499999V0201801N00411220001CN0200001N9+00391+00221100421ADDAY121999GF107991001001999999071999MD1210011+9999MW1021
0081029720999991955051606004+60517+022267FM-12+005499999V0201801N00511004501CN0100001N9+00391+00281100461ADDAA199000591AY161999GF108991051051004501071999KA1999N+00391MD1410001+9999MW1531
0057029720999991955051612004+60517+022267FM-12+005499999V0202301N00511007801CN0300001N9+01001+00281100611ADDAY121999GF106991061021008001001021MD1210091+9999MW1021
0070029720999991955051618004+60517+022267FM-12+005499999V0202301N00511220001CN0400001N9+00721+00111100751ADDAY121999GF106991001001999999041061KA1999M+01111MD1310071+9999MW1031
0057029720999991955051700004+60517+022267FM-12+005499999V0202001N00311220001CN0300001N9+00221+00221100801ADDAY121999GF105991001001999999041021MD1210031+9999MW1021
0070029720999991955051706004+60517+022267FM-12+005499999V0202001N00311220001CN0150001N9+00611+00281100811ADDAY101999GF100991001001999999001001KA1999N+00001MD1110031+9999MW1021
0057029720999991955051712004+60517+022267FM-12+005499999V0202301N00621220001CN0300001N9+01111+00391100891ADDAY111999GF104991031021008001001011MD1210051+9999MW1031
0081029720999991955051718004+60517+022267FM-12+005499999V0202001N00411002401CN0100001N9+00391+00281100981ADDAA199002091AY121999GF108991081061002501999999KA1999M+01221MD1310111+9999MW1021
0057029720999991955051800004+60517+022267FM-12+005499999V0201601N00311002401CN0100001N9+00281+00281101081ADDAY121999GF107991071061002501999999MD1410001+9999MW1021
0070029720999991955051806004+60517+022267FM-12+005499999V0201601N00311220001CN0150001N9+00501+00391101201ADDAY111999GF104991041051004501001001KA1999N+00281MD1110111+9999MW1011
0057029720999991955051812004+60517+022267FM-12+005499999V0201201N00511220001CN0400001N9+01281-00281101171ADDAY101999GF103991011011008001001011MD1810081+9999MW1031
0070029720999991955051818004+60517+022267FM-12+005499999V0201201N00511220001CN0300001N9+01281+00611100951ADDAY121999GF106991001001999999071011KA1999M+01501MD1710091+9999MW1011
0057029720999991955051900004+60517+022267FM-12+005499999V0201201N00411002401CN0100001N9+01001+00781100651ADDAY161999GF108991081061002501999999MD1710241+9999MW1021
0081029720999991955051906004+60517+022267FM-12+005499999V0201601N00621002401CN0060001N9+01001+00891100161ADDAA199006091AY161999GF108991081061002501999999KA1999N+01001MD1710211+9999MW1631
0057029720999991955051912004+60517+022267FM-12+005499999V0202301N00821220001CN0400001N9+01001+00391100621ADDAY111999GF106991011011008001001011MD1210191+9999MW1031
0081029720999991955051918004+60517+022267FM-12+005499999V0201801N00621007801CN0350001N9+00611+00281100781ADDAA199003091AY121999GF107991061031008001001021KA1999M+01111MD1110011+9999MW1031
0057029720999991955052000004+60517+022267FM-12+005499999V0201801N00621004501CN0200001N9+00501+00281100561ADDAY121999GF108991081061004501999999MD1710091+9999MW1031
0070029720999991955052006004+60517+022267FM-12+005499999V0201601N00411004501CN0150001N9+00501+00391999999ADDAY121999GF108991081061004501999999KA1999N+00391MD1710231+9999MW1021
0057029720999991955052012004+60517+022267FM-12+005499999V0202001N00411002401CN0150001N9+00611+00391099821ADDAY161999GF108991081051002501999999MD1710121+9999MW1211
0081029720999991955052018004+60517+022267FM-12+005499999V0202001N00311030001CN0200001N9+00611+00391099811ADDAA199000591AY121999GF107991011051004501071999KA1999M+00781MD1310011+9999MW1011
0057029720999991955052100004+60517+022267FM-12+005499999V0201801N00101220001CN0200001N9+00391+00391099851ADDAY121999GF107991001001999999071061MD1410001+9999MW1021
0081029720999991955052106004+60517+022267FM-12+005499999V0201801N00311030001CN0100001N9+00611+00391999999ADDAA199000691AY181999GF107991041031004501071021KA1999N+00281MD1210091+9999MW1251
0057029720999991955052112004+60517+022267FM-12+005499999V0202001N00511002401CN0200001N9+00721+00501100311ADDAY121999GF108991081051002501999999MD1210151+9999MW1021
0081029720999991955052118004+60517+022267FM-12+005499999V0202001N00211001501CN0040001N9+00501+00501100481ADDAA199001091AY161999GF108991081061001501999999KA1999M+00781MD1210051+9999MW1021
0057029720999991955052200004+60517+022267FM-12+005499999V0203201N00101220001CN0150001N9+00391+00391100601ADDAY161999GF107991001001999999071999MD1210041+9999MW1011
0081029720999991955052206004+60517+022267FM-12+005499999V0203401N00411220001CN0350001N9+00501+00221100801ADDAA199001091AY101999GF103991011031008001001021KA1999N+00111MD1210111+9999MW1031
0057029720999991955052212004+60517+022267FM-12+005499999V0203201N00621220001CN0500001N9+00891-00221100991ADDAY121999GF106991041011008001001061MD1210111+9999MW1011
0070029720999991955052218004+60517+022267FM-12+005499999V0203201N00411220001CN0400001N9+00501-00891101191ADDAY121999GF106991001001999999041061KA1999M+00891MD1210071+9999MW1021
0057029720999991955052300004+60517+022267FM-12+005499999V0202701N00101220001CN0400001N9-00221-00391101281ADDAY121999GF101991001001999999001011MD1210011+9999MW1021
0070029720999991955052306004+60517+022267FM-12+005499999V0202501N00101220001CN0400001N9+00501-00391101211ADDAY111999GF106991021011008001001061KA1999N-00281MD1710071+9999MW1031
0057029720999991955052312004+60517+022267FM-12+005499999V0202301N00621007801CN0350001N9+00721+00111101201ADDAY121999GF107991061031008001001071MD1810011+9999MW1021
0081029720999991955052318004+60517+022267FM-12+005499999V0201201N00101012301CN0300001N9+00391+00221101191ADDAA199002091AY181999GF106991061031012501001021KA1999M+00891MD1610011+9999MW1021
0057029720999991955052400004+60517+022267FM-12+005499999V0203201N00311220001CN0300001N9-00111-00111101151ADDAY101999GF102991021051004501001001MD1710041+9999MW1011
0081029720999991955052406004+60517+022267FM-12+005499999V0203401N00511220001CN0400001N9+00501+00111101091ADDAA199000391AY111999GF104991031011004501041001KA1999N-00111MD1710031+9999MW1031
0057029720999991955052412004+60517+022267FM-12+005499999V0203401N00821007801CN0400001N9+00891-00501100911ADDAY121999GF106991051031008001041021MD1710131+9999MW1021
0070029720999991955052418004+60517+022267FM-12+005499999V0203401N00621220001CN0400001N9+00781-00221100791ADDAY181999GF102991011041008001041031KA1999M+01001MD1810041+9999MW1011
0076029720999991955052500004+60517+022267FM-12+005499999V0203201N00511220001CN0400001N9+00111-00111100661ADDAY101999GF101991999001999999041001MD1710051+9999MW1021EQDQ01+000002SCOTLC
0070029720999991955052506004+60517+022267FM-12+005499999V0203401N00721075001CN0400001N9+00611-00281100541ADDAY101999GF105991011011008001041021KA1999N+00111MD1710071+9999MW1031
0057029720999991955052512004+60517+022267FM-12+005499999V0203401N00621007801CN0500001N9+01221+00111100521ADDAY121999GF107991051021008001041011MD1410001+9999MW1021
0081029720999991955052518004+60517+022267FM-12+005499999V0203401N00511075001CN0400001N9+01221+00221100601ADDAA199000691AY181999GF106991011021008001041061KA1999M+01281MD1410001+9999MW1021
0057029720999991955052600004+60517+022267FM-12+005499999V0203601N00511220001CN0400001N9+00501+00001100801ADDAY121999GF106991001001999999071021MD1210111+9999MW1021
0057029720999991955052606004+60517+022267FM-12+005499999V0203601N00511030001CN0500001N9+00611+00001101011ADDAY121999GF108991011051004501071999MD1210121+9999MW1021
0057029720999991955052612004+60517+022267FM-12+005499999V0200201N00511075001CN0500001N9+01281-00221101061ADDAY121999GF106991011011012501001021MD1710011+9999MW1011
0070029720999991955052618004+60517+022267FM-12+005499999V0200201N00621220001CN0500001N9+01221-00221101241ADDAY121999GF104991021011008001001021KA1999M+01391MD1210131+9999MW1011
0057029720999991955052700004+60517+022267FM-12+005499999V0200201N00311220001CN0300001N9+00391-00111101551ADDAY101999GF101991001001999999001011MD1210151+9999MW1021
0089029720999991955052706004+60517+022267FM-12+005499999V0203201N00311220001CN0500001N9+00611-00111101661ADDAY101999GF101991999001999999041001KA1999N+00221MD1110071+9999MW1021EQDQ01+000002SCOTLC
0057029720999991955052712004+60517+022267FM-12+005499999V0203401N00511220001CN0500001N9+01281-00281101591ADDAY111999GF104991041011012501001001MD1710071+9999MW1021
0070029720999991955052718004+60517+022267FM-12+005499999V0203201N00511075001CN0500001N9+01001-00391101541ADDAY121999GF106991011041008001041061KA1999M+01501MD1310031+9999MW1031
0076029720999991955052800004+60517+022267FM-12+005499999V0202701N00101220001CN0400001N9+00111-00221101541ADDAY101999GF101991999001999999071001MD1710011+9999MW1021EQDQ01+000002SCOTLC
0070029720999991955052806004+60517+022267FM-12+005499999V0202301N00211220001CN0150001N9+00891+00001101221ADDAY111999GF102991001001999999041011KA1999N+00001MD1710201+9999MW1011
0057029720999991955052812004+60517+022267FM-12+005499999V0203201N00621220001CN0500001N9+01501+00281101061ADDAY111999GF104991041011012501001001MD1710011+9999MW1021
0070029720999991955052818004+60517+022267FM-12+005499999V0203601N00821220001CN0500001N9+01281-00111101261ADDAY111999GF101991011011012501001001KA1999M+01721MD1210231+9999MW1011
0076029720999991955052900004+60517+022267FM-12+005499999V0203601N00621220001CN0500001N9+00501-00501101681ADDAY101999GF101991999001999999041001MD1210201+9999MW1021EQDQ01+000002SCOTLC
0070029720999991955052906004+60517+022267FM-12+005499999V0200201N00821220001CN0500001N9+00611-00281101941ADDAY101999GF102991021011008001001001KA1999N+00281MD1210051+9999MW1181
