0066036553999991955010100004+51933-001250SAO  +0138EGUA V0201801N003610042019N0064001N9+00241+00191102871ADDGA1081+004209059GF108991999999999999999999MA1999999101081MW1051
0066036553999991955010101004+51933-001250SAO  +0138EGUA V0201801N004610042019N0064001N9+00301+00021102911ADDGA1081+004209059GF108991999999999999999999MA1999999101121MW1051
0066036553999991955010102004+51933-001250SAO  +0138EGUA V0201801N005110042019N0064001N9+00301+00021102941ADDGA1081+004209059GF108991999999999999999999MA1999999101151MW1051
0066036553999991955010103004+51933-001250SAO  +0138EGUA V0201801N005710060019N0064001N9+00301-00041102971ADDGA1081+006009059GF108991999999999999999999MA1999999101191MW1051
0066036553999991955010104004+51933-001250SAO  +0138EGUA V0201801N005110060019N0080001N9+00191-00041102971ADDGA1051+006009059GF107991999999999999999999MA1999999101191MW1051
0066036553999991955010105004+51933-001250SAO  +0138EGUA V0201801N004610063019N0080001N9+00131-00151102981ADDGA1051+006309059GF107991999999999999999999MA1999999101191MW1051
0066036553999991955010106004+51933-001250SAO  +0138EGUA V0201801N005110063019N0080001N9+00131-00091103011ADDGA1081+006309059GF108991999999999999999999MA1999999101221MW1051
0066036553999991955010107004+51933-001250SAO  +0138EGUA V0201401N006210063019N0080001N9+00191-00041103121ADDGA1081+006309059GF108991999999999999999999MA1999999101291MW1051
0066036553999991955010108004+51933-001250SAO  +0138EGUA V0201801N007710072019N0144001N9+00301-00091103121ADDGA1081+007209059GF108991999999999999999999MA1999999101321MW1001
0066036553999991955010109004+51933-001250SAO  +0138EGUA V0201801N007210072019N0144001N9+00241-00091103181ADDGA1081+007209059GF108991999999999999999999MA1999999101391MW1001
0066036553999991955010110004+51933-001250SAO  +0138EGUA V0200901N008210072019N0144001N9+00301-00151103181ADDGA1081+007209059GF108991999999999999999999MA1999999101391MW1001
0066036553999991955010111004+51933-001250SAO  +0138EGUA V0200901N008710072019N0144001N9+00301-00091103181ADDGA1081+007209059GF108991999999999999999999MA1999999101391MW1001
0103036553999991955010112004+51933-001250SAO  +0138EGUA V0200901N007710072019N0144001N9+00301-00041103181ADDAA124000091GA1081+007209059GF108991999999999999999999KA1999M+00301KA2999N+00131MA1999999101391MW1001
0066036553999991955010113004+51933-001250SAO  +0138EGUA V0200901N010310072019N0144001N9+00301-00041103181ADDGA1081+007209059GF108991999999999999999999MA1999999101391MW1001
0066036553999991955010114004+51933-001250SAO  +0138EGUA V0200901N009310072019N0144001N9+00301+00021103181ADDGA1081+007209059GF108991999999999999999999MA1999999101391MW1001
0066036553999991955010115004+51933-001250SAO  +0138EGUA V0200901N008710072019N0144001N9+00241-00041103181ADDGA1081+007209059GF108991999999999999999999MA1999999101391MW1001
0066036553999991955010116004+51933-001250SAO  +0138EGUA V0200901N007210072019N0144001N9+00241-00201103221ADDGA1081+007209059GF108991999999999999999999MA1999999101421MW1001
0066036553999991955010117004+51933-001250SAO  +0138EGUA V0200901N010310072019N0144001N9+00191-00151103251ADDGA1081+007209059GF108991999999999999999999MA1999999101421MW1001
0066036553999991955010118004+51933-001250SAO  +0138EGUA V0201401N007210072019N0144001N9+00191-00261103321ADDGA1081+007209059GF108991999999999999999999MA1999999101491MW1001
0066036553999991955010119004+51933-001250SAO  +0138EGUA V0201401N006710072019N0144001N9+00191-00151103291ADDGA1081+007209059GF108991999999999999999999MA1999999101491MW1001
0066036553999991955010120004+51933-001250SAO  +0138EGUA V0201401N008210072019N0144001N9+00191-00091103291ADDGA1081+007209059GF108991999999999999999999MA1999999101491MW1001
0066036553999991955010121004+51933-001250SAO  +0138EGUA V0201401N006710072019N0144001N9+00191-00041103291ADDGA1081+007209059GF108991999999999999999999MA1999999101491MW1001
0066036553999991955010122004+51933-001250SAO  +0138EGUA V0200901N006710072019N0144001N9+00191-00091103251ADDGA1081+007209059GF108991999999999999999999MA1999999101461MW1001
0066036553999991955010123004+51933-001250SAO  +0138EGUA V0200901N007710072019N0144001N9+00191-00091103251ADDGA1081+007209059GF108991999999999999999999MA1999999101461MW1001
0066036553999991955010200004+51933-001250SAO  +0138EGUA V0200901N005710072019N0144001N9+00191-00091103251ADDGA1081+007209059GF108991999999999999999999MA1999999101461MW1001
0066036553999991955010201004+51933-001250SAO  +0138EGUA V0200901N006210087019N0144001N9+00191-00041103251ADDGA1081+008709059GF108991999999999999999999MA1999999101461MW1001
0082036553999991955010202004+51933-001250SAO  +0138EGUA V0200901N007710087019N0144001N9+00191-00041103251ADDGA1021+002409079GA2081+008709059GF108991999999999999999999MA1999999101461MW1001
0082036553999991955010203004+51933-001250SAO  +0138EGUA V0200901N006210087019N0144001N9+00191-00041103251ADDGA1021+002409079GA2081+008709059GF108991999999999999999999MA1999999101461MW1001
0082036553999991955010204004+51933-001250SAO  +0138EGUA V0200901N006710087019N0144001N9+00191-00041103221ADDGA1021+005109059GA2081+008709059GF108991999999999999999999MA1999999101421MW1001
0082036553999991955010205004+51933-001250SAO  +0138EGUA V0200901N007210087019N0144001N9+00191-00041103181ADDGA1021+005109059GA2081+008709059GF108991999999999999999999MA1999999101391MW1001
0082036553999991955010206004+51933-001250SAO  +0138EGUA V0200901N006710087019N0144001N9+00191-00041103181ADDGA1021+005109059GA2081+008709059GF108991999999999999999999MA1999999101391MW1001
0066036553999991955010207004+51933-001250SAO  +0138EGUA V0200901N005110087019N0128001N9+00191-00041103181ADDGA1081+008709059GF108991999999999999999999MA1999999101391MW1001
0082036553999991955010208004+51933-001250SAO  +0138EGUA V0200901N006710066019N0176001N9+00191+00021103221ADDGA1051+002409079GA2021+006609059GF107991999999999999999999MA1999999101391MW1001
0082036553999991955010209004+51933-001250SAO  +0138EGUA V0200901N005710033019N0176001N9+00191+00021103181ADDGA1051+002409079GA2021+003309059GF107991999999999999999999MA1999999101391MW1001
0082036553999991955010210004+51933-001250SAO  +0138EGUA V0200901N006210042019N0176001N9+00191+00021103181ADDGA1061+004209059GA2021+036009039GF107991999999999999999999MA1999999101391MW1001
0082036553999991955010211004+51933-001250SAO  +0138EGUA V0200901N008710072019N0176001N9+00241-00091103181ADDGA1041+003309059GA2031+007209059GF107991999999999999999999MA1999999101391MW1001
0119036553999991955010212004+51933-001250SAO  +0138EGUA V0200901N008710072019N0176001N9+00241-00261103181ADDAA124999929GA1061+007209059GA2011+039009039GF107991999999999999999999KA1999M+00241KA2999N+00081MA1999999101391MW1001
0066036553999991955010213004+51933-001250SAO  +0138EGUA V0200701N008210072019N0144001N9+00191-00201103181ADDGA1081+007209089GF108991999999999999999999MA1999999101351MW1001
0066036553999991955010214004+51933-001250SAO  +0138EGUA V0200701N009310072019N0144001N9+00131-00201103181ADDGA1081+007209089GF108991999999999999999999MA1999999101351MW1001
0082036553999991955010215004+51933-001250SAO  +0138EGUA V0200701N008210072019N0128001N9+00131-00201103151ADDGA1031+005409079GA2081+007209089GF108991999999999999999999MA1999999101321MW1001
0066036553999991955010216004+51933-001250SAO  +0138EGUA V0200901N008710072019N0128001N9+00081-00261103151ADDGA1071+007209059GF107991999999999999999999MA1999999101321MW1001
0066036553999991955010217004+51933-001250SAO  +0138EGUA V0200501N005110072019N0128001N9+00081-00261103151ADDGA1081+007209059GF108991999999999999999999MA1999999101321MW1001
0066036553999991955010218004+51933-001250SAO  +0138EGUA V0200501N007210072019N0128001N9+00131-00261103011ADDGA1081+007209059GF108991999999999999999999MA1999999101191MW1001
0066036553999991955010219004+51933-001250SAO  +0138EGUA V0200501N008710105019N0128001N9+00131-00151102981ADDGA1081+010509059GF108991999999999999999999MA1999999101151MW1001
0066036553999991955010220004+51933-001250SAO  +0138EGUA V0200501N006210087019N0080001N9+00191-00201102911ADDGA1081+008709059GF108991999999999999999999MA1999999101121MW1051
0066036553999991955010221004+51933-001250SAO  +0138EGUA V0200501N008210087019N0080001N9+00241-00041102911ADDGA1081+008709059GF108991999999999999999999MA1999999101121MW1051
0066036553999991955010222004+51933-001250SAO  +0138EGUA V0200901N008710129019N0080001N9+00191+00021102841ADDGA1081+012909059GF108991999999999999999999MA1999999101051MW1051
0072036553999991955010223004+51933-001250SAO  +0138EGUA V0200501N006710072019N0080001N9+00191+00021102841ADDGA1081+007209059GF108991999999999999999999MA1999999101051MW1051MW2801
0066036553999991955010300004+51933-001250SAO  +0138EGUA V0200501N008210063019N0080001N9+00191+00021102841ADDGA1081+006309059GF108991999999999999999999MA1999999101021MW1051
0066036553999991955010301004+51933-001250SAO  +0138EGUA V0200501N008210063019N0080001N9+00241+00081102781ADDGA1081+006309059GF108991999999999999999999MA1999999101021MW1051
0066036553999991955010302004+51933-001250SAO  +0138EGUA V0200501N007210063019N0080001N9+00241+00021102741ADDGA1081+006309059GF108991999999999999999999MA1999999100981MW1051
0066036553999991955010303004+51933-001250SAO  +0138EGUA V0200501N008710051019N0144001N9+00241+00021102681ADDGA1081+005109059GF108991999999999999999999MA1999999100911MW1001
0066036553999991955010304004+51933-001250SAO  +0138EGUA V0200501N008710051019N0144001N9+00301+00021102641ADDGA1081+005109059GF108991999999999999999999MA1999999100851MW1001
0066036553999991955010305004+51933-001250SAO  +0138EGUA V0200501N008710048019N0096001N9+00241+00081102571ADDGA1081+004809059GF108991999999999999999999MA1999999100781MW1511
0066036553999991955010306004+51933-001250SAO  +0138EGUA V0200501N008210048019N0096001N9+00241+00081102511ADDGA1081+004809059GF108991999999999999999999MA1999999100711MW1511
0082036553999991955010307004+51933-001250SAO  +0138EGUA V0200501N009810063019N0096001N9+00241+00021102441ADDGA1021+004809079GA2081+006309059GF108991999999999999999999MA1999999100681MW1511
0082036553999991955010308004+51933-001250SAO  +0138EGUA V0200901N010310063019N0080001N9+00241-00041102441ADDGA1061+004509079GA2081+006309059GF108991999999999999999999MA1999999100681MW1051
0082036553999991955010309004+51933-001250SAO  +0138EGUA V0200901N010810063019N0080001N9+00241-00151102441ADDGA1031+005409079GA2081+006309059GF108991999999999999999999MA1999999100681MW1051
0082036553999991955010310004+51933-001250SAO  +0138EGUA V0200901N011310072019N0096001N9+00241-00091102441ADDGA1021+003009079GA2081+007209059GF108991999999999999999999MA1999999100681MW1051
0088036553999991955010311004+51933-001250SAO  +0138EGUA V0200901N009310042019N0064001N9+00191+00021102371ADDGA1021+003009079GA2081+004209059GF108991999999999999999999MA1999999100611MW1051MW2851
0119036553999991955010312004+51933-001250SAO  +0138EGUA V0200901N012910036019N0064001N9+00191+00021102341ADDAA124000391GA1021+003009079GA2081+003609059GF108991999999999999999999KA1999M+00241KA2999N+00081MA1999999100581MW1051
0072036553999991955010313004+51933-001250SAO  +0138EGUA V0200901N007710039019N0048001N9+00191+00021102341ADDGA1081+003909089GF108991999999999999999999MA1999999100581MW1051MW2851
0072036553999991955010314004+51933-001250SAO  +0138EGUA V0200901N011810042019N0048001N9+00131-00041102301ADDGA1081+004209059GF108991999999999999999999MA1999999100541MW1051MW2851
0088036553999991955010315004+51933-001250SAO  +0138EGUA V0200901N012310033019N0048001N9+00131-00041102271ADDGA1061+003309059GA2081+007509059GF108991999999999999999999MA1999999100511MW1051MW2851
0088036553999991955010316004+51933-001250SAO  +0138EGUA V0200901N011810063019N0010001N9+00081-00041102241ADDGA1031+002409079GA2081+006309059GF108991999999999999999999MA1999999100441MW1051MW2851
0088036553999991955010317004+51933-001250SAO  +0138EGUA V0200901N010310042019N0064001N9+00081-00041102171ADDGA1061+004209059GA2081+006009059GF108991999999999999999999MA1999999100371MW1051MW2851
0082036553999991955010318004+51933-001250SAO  +0138EGUA V0200901N013910072019N0064001N9+00131-00091102071ADDGA1031+003309059GA2081+007209059GF108991999999999999999999MA1999999100301MW1051
0066036553999991955010319004+51933-001250SAO  +0138EGUA V0200901N012310051019N0064001N9+00131-00091102031ADDGA1081+005109059GF108991999999999999999999MA1999999100271MW1051
0066036553999991955010320004+51933-001250SAO  +0138EGUA V0200901N015410051019N0064001N9+00131-00091102031ADDGA1081+005109059GF108991999999999999999999MA1999999100271MW1051
0088036553999991955010321004+51933-001250SAO  +0138EGUA V0200901N011810051019N0064001N9+00081+00021102031ADDGA1021+003309059GA2081+005109059GF108991999999999999999999MA1999999100271MW1051MW2851
0088036553999991955010322004+51933-001250SAO  +0138EGUA V0200901N011810045019N0064001N9+00081-00041102031ADDGA1021+003309059GA2081+004509059GF108991999999999999999999MA1999999100241MW1051MW2851
0082036553999991955010323004+51933-001250SAO  +0138EGUA V0200901N015410045019N0064001N9+00081-00041101931ADDGA1021+003309059GA2081+004509059GF108991999999999999999999MA1999999100141MW1051
0066036553999991955010400004+51933-001250SAO  +0138EGUA V0200901N015410042019N0064001N9+00081-00041101831ADDGA1081+004209059GF108991999999999999999999MA1999999100071MW1051
0066036553999991955010401004+51933-001250SAO  +0138EGUA V0200901N014410063019N0128001N9+00081-00151101801ADDGA1081+006309059GF108991999999999999999999MA1999999100001MW1001
0066036553999991955010402004+51933-001250SAO  +0138EGUA V0200901N011810048019N0128001N9+00081-00151101801ADDGA1081+004809059GF108991999999999999999999MA1999999100001MW1001
0066036553999991955010403004+51933-001250SAO  +0138EGUA V0200901N014910048019N0128001N9+00081-00261101761ADDGA1081+004809059GF108991999999999999999999MA1999999099971MW1001
0066036553999991955010404004+51933-001250SAO  +0138EGUA V0200901N015410045019N0128001N9+00021-00261101691ADDGA1081+004509059GF108991999999999999999999MA1999999099901MW1001
0066036553999991955010405004+51933-001250SAO  +0138EGUA V0200901N011810051019N0128001N9+00021-00261101661ADDGA1081+005109059GF108991999999999999999999MA1999999099861MW1001
0066036553999991955010406004+51933-001250SAO  +0138EGUA V0200901N010810045019N0128001N9+00021-00261101521ADDGA1081+004509059GF108991999999999999999999MA1999999099731MW1001
0066036553999991955010407004+51933-001250SAO  +0138EGUA V0200901N013410048019N0128001N9+00021-00311101461ADDGA1081+004809059GF108991999999999999999999MA1999999099661MW1001
0066036553999991955010408004+51933-001250SAO  +0138EGUA V0200901N012910045019N0144001N9+00081-00261101461ADDGA1081+004509059GF108991999999999999999999MA1999999099661MW1001
0082036553999991955010409004+51933-001250SAO  +0138EGUA V0200901N012310042019N0012001N9+00081-00261101491ADDGA1091+999999999GA2091+004209059GF108991999999999999999999MA1999999099701MW1711
0082036553999991955010410004+51933-001250SAO  +0138EGUA V0201101N013410036019N0012001N9-00041-00151101461ADDGA1091+999999999GA2091+003609059GF108991999999999999999999MA1999999099661MW1711
0082036553999991955010411004+51933-001250SAO  +0138EGUA V0201101N011310033019N0008001N9-00041-00091101461ADDGA1091+999999999GA2091+003309059GF108991999999999999999999MA1999999099661MW1731
0119036553999991955010412004+51933-001250SAO  +0138EGUA V0200501N008710033019N0008001N9-00041-00091101521ADDAA124009091GA1091+999999999GA2091+003309059GF108991999999999999999999KA1999M+00081KA2999N-00091MA1999999099731MW1731
0082036553999991955010413004+51933-001250SAO  +0138EGUA V0200501N011810030019N0005001N9-00041-00151101521ADDGA1091+999999999GA2091+003009059GF108991999999999999999999MA1999999099731MW1731
0082036553999991955010414004+51933-001250SAO  +0138EGUA V0200501N008710030019N0010001N9-00041-00091101521ADDGA1091+999999999GA2091+003009059GF108991999999999999999999MA1999999099731MW1711
0066036553999991955010415004+51933-001250SAO  +0138EGUA V0200501N006710021019N0006001N9-00041-00091101521ADDGA1091+002109999GF109991999999999999999999MA1999999099731MW1731
0066036553999991955010416004+51933-001250SAO  +0138EGUA V0200901N008710015019N0006001N9-00091-00091101521ADDGA1091+001509999GF109991999999999999999999MA1999999099731MW1731
0066036553999991955010417004+51933-001250SAO  +0138EGUA V0200201N007710021019N0016001N9-00091-00091101561ADDGA1091+002109999GF109991999999999999999999MA1999999099761MW1711
0082036553999991955010418004+51933-001250SAO  +0138EGUA V0200701N006710024019N0026001N9-00041-00151101661ADDGA1091+999999999GA2091+002409059GF108991999999999999999999MA1999999099901MW1051
0098036553999991955010419004+51933-001250SAO  +0138EGUA V0200901N004110021019N0036001N9-00041-00151101761ADDGA1091+999999999GA2021+001209059GA3091+002109059GF108991999999999999999999MA1999999099971MW1051
0098036553999991955010420004+51933-001250SAO  +0138EGUA V0200901N005710024019N0036001N9-00041-00151101861ADDGA1091+999999999GA2021+001209059GA3071+002409059GF108991999999999999999999MA1999999100071MW1051
0082036553999991955010421004+51933-001250SAO  +0138EGUA V0200901N005110018019N0036001N9-00041-00151101901ADDGA1091+999999999GA2091+001809059GF108991999999999999999999MA1999999100101MW1051
0082036553999991955010422004+51933-001250SAO  +0138EGUA V0200901N005710018019N0036001N9+00021-00091101901ADDGA1091+999999999GA2091+001809059GF108991999999999999999999MA1999999100101MW1051
0066036553999991955010423004+51933-001250SAO  +0138EGUA V0200901N006710021019N0064001N9+00021-00041101901ADDGA1081+002109059GF108991999999999999999999MA1999999100101MW1051
0082036553999991955010500004+51933-001250SAO  +0138EGUA V0200901N005110018019N0018001N9+00021-00041101861ADDGA1091+999999999GA2091+001809059GF108991999999999999999999MA1999999100071MW1051
0066036553999991955010501004+51933-001250SAO  +0138EGUA V0200901N006710003019N0012001N9+00021+00021101901ADDGA1091+000309999GF109991999999999999999999MA1999999100101MW1451
0066036553999991955010502004+51933-001250SAO  +0138EGUA V0200901N005710006019N0012001N9+00021+00021101901ADDGA1091+000609999GF109991999999999999999999MA1999999100101MW1451
0066036553999991955010503004+51933-001250SAO  +0138EGUA V0200901N006210006019N0012001N9+00021+00021101931ADDGA1091+000609999GF109991999999999999999999MA1999999100141MW1451
0066036553999991955010504004+51933-001250SAO  +0138EGUA V0200901N006710009019N0012001N9+00021-00091101931ADDGA1091+000909999GF109991999999999999999999MA1999999100141MW1451
0066036553999991955010505004+51933-001250SAO  +0138EGUA V0200901N001510009019N0012001N9+00021-00091101931ADDGA1091+000909999GF109991999999999999999999MA1999999100141MW1451
0066036553999991955010506004+51933-001250SAO  +0138EGUA V0200901N005710009019N0012001N9-00041-00041101861ADDGA1091+000909999GF109991999999999999999999MA1999999100071MW1451
0066036553999991955010507004+51933-001250SAO  +0138EGUA V0200901N007710012019N0012001N9-00041-00091101861ADDGA1091+001209999GF109991999999999999999999MA1999999100071MW1451
0072036553999991955010508004+51933-001250SAO  +0138EGUA V0200901N007710009019N0012001N9+00021-00091101861ADDGA1091+000909999GF109991999999999999999999MA1999999100071MW1451MW2561
0072036553999991955010509004+51933-001250SAO  +0138EGUA V0200901N008210012019N0012001N9-00041-00091101861ADDGA1091+001209999GF109991999999999999999999MA1999999100071MW1451MW2711
0072036553999991955010510004+51933-001250SAO  +0138EGUA V0200901N007710012019N0010001N9+00021-00091101901ADDGA1091+001209999GF109991999999999999999999MA1999999100101MW1451MW2711
0072036553999991955010511004+51933-001250SAO  +0138EGUA V0200901N007710012019N0012001N9+00021-00091101901ADDGA1091+001209999GF109991999999999999999999MA1999999100101MW1451MW2711
0126036553999991955010512004+51933-001250SAO  +0138EGUA V0200901N006710012019N0012001N9+00021-00091101831ADDAA124000391AJ100089199999999GA1091+001209999GF109991999999999999999999KA1999M+00081KA2999N-00041MA1999999100031MW1451MW2711
0072036553999991955010513004+51933-001250SAO  +0138EGUA V0200901N007210009019N0010001N9+00021-00091101831ADDGA1091+000909999GF109991999999999999999999MA1999999100031MW1451MW2511
0072036553999991955010514004+51933-001250SAO  +0138EGUA V0200701N005110006019N0003001N9+00021-00041101801ADDGA1091+000609999GF109991999999999999999999MA1999999100001MW1451MW2511
0066036553999991955010515004+51933-001250SAO  +0138EGUA V0200701N006710009019N0012001N9+00021-00091101761ADDGA1091+000909999GF109991999999999999999999MA1999999099971MW1451
0066036553999991955010516004+51933-001250SAO  +0138EGUA V0200701N008210012019N0012001N9-00041-00091101731ADDGA1091+001209999GF109991999999999999999999MA1999999099931MW1451
0066036553999991955010517004+51933-001250SAO  +0138EGUA V0200701N008210009019N0010001N9-00041-00041101731ADDGA1091+000909999GF109991999999999999999999MA1999999099931MW1451
0066036553999991955010518004+51933-001250SAO  +0138EGUA V0200701N008710009019N0010001N9+00021+00021101631ADDGA1091+000909999GF109991999999999999999999MA1999999099831MW1451
0072036553999991955010519004+51933-001250SAO  +0138EGUA V0200701N007710006019N0010001N9+00081+00021101631ADDGA1091+000609999GF109991999999999999999999MA1999999099831MW1451MW2511
0072036553999991955010520004+51933-001250SAO  +0138EGUA V0200701N008210006019N0010001N9+00081-00091101591ADDGA1091+000609999GF109991999999999999999999MA1999999099801MW1451MW2511
0072036553999991955010521004+51933-001250SAO  +0138EGUA V0200701N005710006019N0010001N9+00081+00021101591ADDGA1091+000609999GF109991999999999999999999MA1999999099801MW1451MW2511
0072036553999991955010522004+51933-001250SAO  +0138EGUA V0200701N004610003019N0010001N9+00081-00041101591ADDGA1091+000309999GF109991999999999999999999MA1999999099801MW1451MW2511
0072036553999991955010523004+51933-001250SAO  +0138EGUA V0200701N005110003019N0010001N9+00081-00041101561ADDGA1091+000309999GF109991999999999999999999MA1999999099761MW1451MW2511
0066036553999991955010600004+51933-001250SAO  +0138EGUA V0200701N005710001519N0003001N9+00081+00021101461ADDGA1091+000159999GF109991999999999999999999MA1999999099661MW1451
0066036553999991955010601004+51933-001250SAO  +0138EGUA V0200501N005110003019N0010001N9+00081-00041101461ADDGA1091+000309999GF109991999999999999999999MA1999999099661MW1451
0066036553999991955010602004+51933-001250SAO  +0138EGUA V0200501N004610003019N0010001N9+00081+00021101461ADDGA1091+000309999GF109991999999999999999999MA1999999099661MW1451
0082036553999991955010603004+51933-001250SAO  +0138EGUA V0200501N006710015019N0018001N9+00081-00041101421ADDGA1061+999999999GA2081+001509079GF108991999999999999999999MA1999999099631MW1451
0082036553999991955010604004+51933-001250SAO  +0138EGUA V0200701N005710018019N0018001N9+00081-00041101391ADDGA1061+999999999GA2081+001809079GF108991999999999999999999MA1999999099591MW1451
0088036553999991955010605004+51933-001250SAO  +0138EGUA V0200701N005710018019N0016001N9+00081+00021101321ADDGA1061+999999999GA2081+001809079GF108991999999999999999999MA1999999099531MW1451MW2511
0082036553999991955010606004+51933-001250SAO  +0138EGUA V0200701N008210018019N0016001N9+00131+00081101251ADDGA1061+999999999GA2081+001809079GF108991999999999999999999MA1999999099491MW1451
0082036553999991955010607004+51933-001250SAO  +0138EGUA V0200701N008210021019N0016001N9+00131+00021101251ADDGA1051+999999999GA2081+002109079GF108991999999999999999999MA1999999099461MW1451
0072036553999991955010608004+51933-001250SAO  +0138EGUA V0200701N007710018019N0016001N9+00131+00021101221ADDGA1091+001809999GF109991999999999999999999MA1999999099421MW1451MW2611
0088036553999991955010609004+51933-001250SAO  +0138EGUA V0200701N007710018019N0022001N9+00131+00021101221ADDGA1061+999999999GA2081+001809079GF108991999999999999999999MA1999999099421MW1451MW2611
0088036553999991955010610004+51933-001250SAO  +0138EGUA V0200701N008210015019N0032001N9+00131+00021101221ADDGA1061+999999999GA2081+001509079GF108991999999999999999999MA1999999099421MW1451MW2611
0088036553999991955010611004+51933-001250SAO  +0138EGUA V0200701N007710015019N0026001N9+00131+00021101221ADDGA1061+999999999GA2081+001509079GF108991999999999999999999MA1999999099421MW1451MW2611
0142036553999991955010612004+51933-001250SAO  +0138EGUA V0200701N007210021019N0026001N9+00191+00081101191ADDAA124004091AJ100059199999999GA1061+999999999GA2081+002109079GF108991999999999999999999KA1999M+00191KA2999N+00081MA1999999099391MW1451MW2611
0088036553999991955010613004+51933-001250SAO  +0138EGUA V0200701N007710018019N0032001N9+00191+00081101151ADDGA1051+999999999GA2081+001809079GF108991999999999999999999MA1999999099361MW1451MW2611
0088036553999991955010614004+51933-001250SAO  +0138EGUA V0200701N007710021019N0032001N9+00191+00021101121ADDGA1051+999999999GA2081+002109079GF108991999999999999999999MA1999999099321MW1451MW2611
0088036553999991955010615004+51933-001250SAO  +0138EGUA V0200701N006710021019N0032001N9+00191+00081101081ADDGA1051+999999999GA2081+002109079GF108991999999999999999999MA1999999099291MW1451MW2611
0088036553999991955010616004+51933-001250SAO  +0138EGUA V0200701N007710021019N0018001N9+00131+00081101081ADDGA1051+999999999GA2081+002109079GF108991999999999999999999MA1999999099291MW1451MW2611
0088036553999991955010617004+51933-001250SAO  +0138EGUA V0200701N008210021019N0018001N9+00131+00081101081ADDGA1051+999999999GA2081+002109079GF108991999999999999999999MA1999999099291MW1451MW2611
0088036553999991955010618004+51933-001250SAO  +0138EGUA V0200701N007710018019N0016001N9+00131+00021101121ADDGA1051+999999999GA2081+001809079GF108991999999999999999999MA1999999099321MW1451MW2611
0082036553999991955010619004+51933-001250SAO  +0138EGUA V0200701N008210021019N0016001N9+00131+00021101151ADDGA1051+999999999GA2081+002109079GF108991999999999999999999MA1999999099361MW1451
0082036553999991955010620004+51933-001250SAO  +0138EGUA V0200701N007210030019N0020001N9+00131+00021101191ADDGA1041+999999999GA2081+003009079GF108991999999999999999999MA1999999099391MW1451
0088036553999991955010621004+51933-001250SAO  +0138EGUA V0200701N007210030019N0018001N9+00131+00081101221ADDGA1041+999999999GA2081+003009079GF108991999999999999999999MA1999999099421MW1451MW2611
0104036553999991955010622004+51933-001250SAO  +0138EGUA V0200701N007210030019N0018001N9+00131+00081101251ADDGA1031+999999999GA2011+002109079GA3081+003009079GF108991999999999999999999MA1999999099461MW1451MW2611
0088036553999991955010623004+51933-001250SAO  +0138EGUA V0200701N006710024019N0018001N9+00131+00081101291ADDGA1041+999999999GA2081+002409079GF108991999999999999999999MA1999999099491MW1451MW2611
0082036553999991955010700004+51933-001250SAO  +0138EGUA V0200701N005110027019N0018001N9+00131+00021101321ADDGA1041+999999999GA2081+002709079GF108991999999999999999999MA1999999099531MW1451
0082036553999991955010701004+51933-001250SAO  +0138EGUA V0200901N004610027019N0018001N9+00131+00021101351ADDGA1041+999999999GA2081+002709079GF108991999999999999999999MA1999999099561MW1451
0082036553999991955010702004+51933-001250SAO  +0138EGUA V0200501N003110027019N0018001N9+00081-00041101351ADDGA1041+999999999GA2081+002709079GF108991999999999999999999MA1999999099561MW1451
0082036553999991955010703004+51933-001250SAO  +0138EGUA V0200501N005110033019N0018001N9+00081+00021101351ADDGA1041+999999999GA2081+003309079GF108991999999999999999999MA1999999099561MW1451
0088036553999991955010704004+51933-001250SAO  +0138EGUA V0200901N004110033019N0018001N9+00081+00021101351ADDGA1031+999999999GA2081+003309079GF108991999999999999999999MA1999999099561MW1451MW2511
0082036553999991955010705004+51933-001250SAO  +0138EGUA V0200901N003610033019N0024001N9+00081+00021101351ADDGA1031+999999999GA2081+003309079GF108991999999999999999999MA1999999099561MW1451
0066036553999991955010706004+51933-001250SAO  +0138EGUA V0200901N003110039019N0048001N9+00081+00021101321ADDGA1081+003909079GF108991999999999999999999MA1999999099531MW1111
0066036553999991955010707004+51933-001250SAO  +0138EGUA V0200901N002610042019N0048001N9+00081-00041101321ADDGA1081+004209079GF108991999999999999999999MA1999999099531MW1111
0082036553999991955010708004+51933-001250SAO  +0138EGUA V0200901N004110051019N0032001N9+00081-00091101351ADDGA1011+999999999GA2081+005109079GF108991999999999999999999MA1999999099561MW1111
0066036553999991955010709004+51933-001250SAO  +0138EGUA V0200701N004610039019N0036001N9+00081-00041101391ADDGA1081+003909079GF108991999999999999999999MA1999999099591MW1451
0066036553999991955010710004+51933-001250SAO  +0138EGUA V0200701N005110033019N0036001N9+00081-00091101421ADDGA1081+003309079GF108991999999999999999999MA1999999099631MW1451
0066036553999991955010711004+51933-001250SAO  +0138EGUA V0200501N007210033019N0036001N9+00081-00091101461ADDGA1081+003309079GF108991999999999999999999MA1999999099661MW1451
0103036553999991955010712004+51933-001250SAO  +0138EGUA V0200501N005110036019N0040001N9+00081-00091101421ADDAA124999929GA1081+003609079GF108991999999999999999999KA1999M+00191KA2999N+00021MA1999999099631MW1451
0066036553999991955010713004+51933-001250SAO  +0138EGUA V0200501N005710036019N0040001N9+00081-00091101391ADDGA1081+003609079GF108991999999999999999999MA1999999099591MW1451
0066036553999991955010714004+51933-001250SAO  +0138EGUA V0200501N004610033019N0040001N9+00131-00041101391ADDGA1081+003309079GF108991999999999999999999MA1999999099591MW1451
0082036553999991955010715004+51933-001250SAO  +0138EGUA V0200501N005110030019N0036001N9+00131+00021101391ADDGA1031+001509079GA2081+003009079GF108991999999999999999999MA1999999099591MW1451
0066036553999991955010716004+51933-001250SAO  +0138EGUA V0200501N007210033019N0036001N9+00131-00041101351ADDGA1081+003309079GF108991999999999999999999MA1999999099561MW1451
0066036553999991955010717004+51933-001250SAO  +0138EGUA V0200501N005710033019N0048001N9+00131-00041101351ADDGA1081+003309079GF108991999999999999999999MA1999999099561MW1051
0066036553999991955010718004+51933-001250SAO  +0138EGUA V0200501N004610042019N0064001N9+00131-00041101321ADDGA1081+004209079GF108991999999999999999999MA1999999099531MW1051
0066036553999991955010719004+51933-001250SAO  +0138EGUA V0200501N003610042019N0064001N9+00131-00041101321ADDGA1081+004209079GF108991999999999999999999MA1999999099531MW1051
0066036553999991955010720004+51933-001250SAO  +0138EGUA V0200501N004110036019N0040001N9+00131+00081101321ADDGA1081+003609079GF108991999999999999999999MA1999999099531MW1051
0066036553999991955010721004+51933-001250SAO  +0138EGUA V0200501N005110039019N0048001N9+00191-00041101351ADDGA1081+003909079GF108991999999999999999999MA1999999099561MW1051
0066036553999991955010722004+51933-001250SAO  +0138EGUA V0200501N003610039019N0048001N9+00191+00021101351ADDGA1081+003909079GF108991999999999999999999MA1999999099561MW1051
0066036553999991955010723004+51933-001250SAO  +0138EGUA V0200501N003610036019N0048001N9+00131-00041101351ADDGA1081+003609079GF108991999999999999999999MA1999999099561MW1051
0066036553999991955010800004+51933-001250SAO  +0138EGUA V0200501N006710036019N0064001N9+00191+00021101321ADDGA1081+003609079GF108991999999999999999999MA1999999099531MW1051
0066036553999991955010801004+51933-001250SAO  +0138EGUA V0200501N003610039019N0080001N9+00191+00021101321ADDGA1081+003909059GF108991999999999999999999MA1999999099531MW1051
0066036553999991955010802004+51933-001250SAO  +0138EGUA V0209991C000010033019N0064001N9+00131+00021101321ADDGA1071+003309059GF107991999999999999999999MA1999999099531MW1051
0066036553999991955010803004+51933-001250SAO  +0138EGUA V0200501N003110039019N0080001N9+00191-00041101321ADDGA1081+003909059GF108991999999999999999999MA1999999099531MW1051
0066036553999991955010804004+51933-001250SAO  +0138EGUA V0200501N002610042019N0080001N9+00191-00041101321ADDGA1081+004209059GF108991999999999999999999MA1999999099531MW1051
0066036553999991955010805004+51933-001250SAO  +0138EGUA V0200501N004610042019N0080001N9+00131-00041101321ADDGA1081+004209059GF108991999999999999999999MA1999999099531MW1051
0066036553999991955010806004+51933-001250SAO  +0138EGUA V0200701N002610039019N0096001N9+00131-00041101321ADDGA1081+003909059GF108991999999999999999999MA1999999099531MW1051
0066036553999991955010807004+51933-001250SAO  +0138EGUA V0200701N003610039019N0096001N9+00131-00091101321ADDGA1081+003909059GF108991999999999999999999MA1999999099531MW1051
0066036553999991955010808004+51933-001250SAO  +0138EGUA V0200701N005110039019N0096001N9+00131-00041101321ADDGA1081+003909059GF108991999999999999999999MA1999999099531MW1051
0066036553999991955010809004+51933-001250SAO  +0138EGUA V0200901N003610036019N0080001N9+00081-00091101351ADDGA1081+003609059GF108991999999999999999999MA1999999099561MW1051
0066036553999991955010810004+51933-001250SAO  +0138EGUA V0200901N003110042019N0064001N9+00131-00091101351ADDGA1081+004209059GF108991999999999999999999MA1999999099561MW1051
0066036553999991955010811004+51933-001250SAO  +0138EGUA V0200901N005110039019N0096001N9+00131-00091101351ADDGA1081+003909059GF108991999999999999999999MA1999999099561MW1051
0103036553999991955010812004+51933-001250SAO  +0138EGUA V0200901N003610039019N0096001N9+00191-00091101391ADDAA124000091GA1081+003909059GF108991999999999999999999KA1999M+00191KA2999N-00091MA1999999099631MW1051
0066036553999991955010813004+51933-001250SAO  +0138EGUA V0200901N003110042019N0064001N9+00191-00041101461ADDGA1081+004209059GF108991999999999999999999MA1999999099661MW1051
0066036553999991955010814004+51933-001250SAO  +0138EGUA V0200901N003110042019N0064001N9+00191-00091101421ADDGA1081+004209059GF108991999999999999999999MA1999999099631MW1051
0066036553999991955010815004+51933-001250SAO  +0138EGUA V0200501N002610042019N0048001N9+00131-00091101391ADDGA1081+004209059GF108991999999999999999999MA1999999099591MW1051
0066036553999991955010816004+51933-001250SAO  +0138EGUA V0200501N002110045019N0064001N9+00131-00151101391ADDGA1081+004509059GF108991999999999999999999MA1999999099591MW1051
0066036553999991955010817004+51933-001250SAO  +0138EGUA V0200501N002110045019N0064001N9+00081-00151101391ADDGA1081+004509059GF108991999999999999999999MA1999999099591MW1051
0066036553999991955010818004+51933-001250SAO  +0138EGUA V0200901N002610042019N0064001N9+00021-00151101351ADDGA1081+004209059GF108991999999999999999999MA1999999099561MW1051
0066036553999991955010819004+51933-001250SAO  +0138EGUA V0209991C000010042019N0064001N9+00021-00151101351ADDGA1081+004209059GF108991999999999999999999MA1999999099561MW1051
0066036553999991955010820004+51933-001250SAO  +0138EGUA V0209991C000010042019N0064001N9+00021-00261101351ADDGA1081+004209059GF108991999999999999999999MA1999999099561MW1051
0066036553999991955010821004+51933-001250SAO  +0138EGUA V0201601N002110045019N0064001N9+00021-00151101351ADDGA1081+004509059GF108991999999999999999999MA1999999099561MW1051
0066036553999991955010822004+51933-001250SAO  +0138EGUA V0201801N002110045019N0064001N9-00041-00091101351ADDGA1081+004509079GF108991999999999999999999MA1999999099561MW1051
0066036553999991955010823004+51933-001250SAO  +0138EGUA V0202001N002110045019N0064001N9-00091-00201101351ADDGA1081+004509079GF108991999999999999999999MA1999999099561MW1051
0066036553999991955010900004+51933-001250SAO  +0138EGUA V0209991C000010045019N0064001N9-00091-00311101351ADDGA1081+004509079GF108991999999999999999999MA1999999099561MW1051
0066036553999991955010901004+51933-001250SAO  +0138EGUA V0209991C000010051019N0048001N9-00041-00311101321ADDGA1081+005109079GF108991999999999999999999MA1999999099531MW1051
0066036553999991955010902004+51933-001250SAO  +0138EGUA V0201801N002110045019N0048001N9-00041-00311101291ADDGA1081+004509079GF108991999999999999999999MA1999999099491MW1051
0066036553999991955010903004+51933-001250SAO  +0138EGUA V0202301N002610045019N0048001N9-00041-00311101291ADDGA1081+004509079GF108991999999999999999999MA1999999099491MW1051
0066036553999991955010904004+51933-001250SAO  +0138EGUA V0201801N003110045019N0048001N9-00091-00311101251ADDGA1081+004509079GF108991999999999999999999MA1999999099461MW1051
0066036553999991955010905004+51933-001250SAO  +0138EGUA V0209991C000010045019N0048001N9-00091-00421101191ADDGA1081+004509079GF108991999999999999999999MA1999999099391MW1051
0066036553999991955010906004+51933-001250SAO  +0138EGUA V0202001N002610039019N0064001N9-00091-00371101121ADDGA1081+003909079GF108991999999999999999999MA1999999099321MW1051
0066036553999991955010907004+51933-001250SAO  +0138EGUA V0201801N002110042019N0064001N9-00151-00311101121ADDGA1081+004209059GF108991999999999999999999MA1999999099321MW1051
0066036553999991955010908004+51933-001250SAO  +0138EGUA V0201801N002110042019N0048001N9-00091-00261101121ADDGA1081+004209059GF108991999999999999999999MA1999999099321MW1051
0098036553999991955010909004+51933-001250SAO  +0138EGUA V0209991C000012200019N0048001N9-00151-00421101121ADDGA1011+004209059GA2011+030009039GA3021+075009009GF102991999999999999999999MA1999999099321MW1051
0066036553999991955010910004+51933-001250SAO  +0138EGUA V0201601N002112200019N0036001N9-00091-00421101081ADDGA1061+007509059GF107991999999999999999999MA1999999099291MW1051
0082036553999991955010911004+51933-001250SAO  +0138EGUA V0201801N002110075019N0028001N9-00041-00481101081ADDGA1091+999999999GA2061+007509059GF107991999999999999999999MA1999999099291MW1051
0119036553999991955010912004+51933-001250SAO  +0138EGUA V0201801N002110042019N0032001N9-00041-00311100981ADDAA124000091GA1091+999999999GA2091+004209079GF108991999999999999999999KA1999M+00241KA2999N-00151MA1999999099221MW1051
0082036553999991955010913004+51933-001250SAO  +0138EGUA V0202301N003610042019N0032001N9+00021-00311100981ADDGA1091+999999999GA2091+004209079GF108991999999999999999999MA1999999099221MW1051
0082036553999991955010914004+51933-001250SAO  +0138EGUA V0201801N002110036019N0032001N9+00081-00201100981ADDGA1091+999999999GA2091+003609079GF108991999999999999999999MA1999999099221MW1051
0082036553999991955010915004+51933-001250SAO  +0138EGUA V0201801N002110039019N0028001N9+00131-00151100951ADDGA1091+999999999GA2091+003909079GF108991999999999999999999MA1999999099191MW1051
0082036553999991955010916004+51933-001250SAO  +0138EGUA V0201801N002610036019N0026001N9+00081-00091100911ADDGA1091+999999999GA2091+003609079GF108991999999999999999999MA1999999099151MW1051
0082036553999991955010917004+51933-001250SAO  +0138EGUA V0201801N002110042019N0018001N9+00081-00041100911ADDGA1091+999999999GA2031+004209079GF107991999999999999999999MA1999999099151MW1051
0082036553999991955010918004+51933-001250SAO  +0138EGUA V0201801N001510042019N0018001N9+00131-00091100781ADDGA1091+999999999GA2091+004209079GF108991999999999999999999MA1999999098981MW1051
0082036553999991955010919004+51933-001250SAO  +0138EGUA V0201801N001510042019N0018001N9+00131-00151100711ADDGA1091+999999999GA2091+004209079GF108991999999999999999999MA1999999098921MW1051
0082036553999991955010920004+51933-001250SAO  +0138EGUA V0201801N003610045019N0018001N9+00131-00091100711ADDGA1091+999999999GA2031+004509059GF107991999999999999999999MA1999999098921MW1051
0082036553999991955010921004+51933-001250SAO  +0138EGUA V0201801N004610240019N0018001N9+00021-00091100711ADDGA1091+999999999GA2031+024009039GF107991999999999999999999MA1999999098921MW1051
0082036553999991955010922004+51933-001250SAO  +0138EGUA V0201801N003610240019N0018001N9+00021-00041100581ADDGA1041+999999999GA2021+024009039GF107991999999999999999999MA1999999098811MW1451
0082036553999991955010923004+51933-001250SAO  +0138EGUA V0201801N005110240019N0018001N9+00131-00091100541ADDGA1091+999999999GA2031+024009039GF107991999999999999999999MA1999999098781MW1051
0082036553999991955011000004+51933-001250SAO  +0138EGUA V0202001N008210084019N0018001N9+00241-00151100471ADDGA1091+999999999GA2091+008409059GF108991999999999999999999MA1999999098711MW1051
0082036553999991955011001004+51933-001250SAO  +0138EGUA V0201801N008210063019N0018001N9+00301+00131100341ADDGA1091+999999999GA2021+006309059GF107991999999999999999999MA1999999098611MW1051
0066036553999991955011002004+51933-001250SAO  +0138EGUA V0202001N008712200019N0064001N9+00351+00191100261ADDGA1031+036009039GF102991999999999999999999MA1999999098541MW1051
0066036553999991955011003004+51933-001250SAO  +0138EGUA V0202001N008212200019N0064001N9+00411+00241100231ADDGA1031+024009049GF102991999999999999999999MA1999999098511MW1051
0082036553999991955011004004+51933-001250SAO  +0138EGUA V0202001N008210063019N0064001N9+00461+00241100161ADDGA1021+004209079GA2081+006309059GF108991999999999999999999MA1999999098441MW1051
0082036553999991955011005004+51933-001250SAO  +0138EGUA V0202001N009810063019N0064001N9+00521+00301100031ADDGA1031+004209079GA2081+006309059GF108991999999999999999999MA1999999098311MW1051
0082036553999991955011006004+51933-001250SAO  +0138EGUA V0202001N008710063019N0064001N9+00581+00351099891ADDGA1031+003909079GA2081+006309059GF108991999999999999999999MA1999999098171MW1051
0066036553999991955011007004+51933-001250SAO  +0138EGUA V0202001N010310033019N0080001N9+00631+00411099791ADDGA1081+003309079GF108991999999999999999999MA1999999098071MW1051
0066036553999991955011008004+51933-001250SAO  +0138EGUA V0202001N009810036019N0080001N9+00631+00461099691ADDGA1081+003609059GF108991999999999999999999MA1999999097971MW1051
0066036553999991955011009004+51933-001250SAO  +0138EGUA V0202001N010810039019N0048001N9+00691+00461099651ADDGA1081+003909059GF108991999999999999999999MA1999999097931MW1051
0072036553999991955011010004+51933-001250SAO  +0138EGUA V0202001N012310033019N0048001N9+00741+00521099521ADDGA1081+003309059GF108991999999999999999999MA1999999097801MW1051MW2611
0072036553999991955011011004+51933-001250SAO  +0138EGUA V0202001N012910027019N0048001N9+00741+00631099351ADDGA1081+002709059GF108991999999999999999999MA1999999097631MW1051MW2611
0103036553999991955011012004+51933-001250SAO  +0138EGUA V0202001N014410018019N0048001N9+00801+00691099251ADDAA124004091GA1081+001809059GF108991999999999999999999KA1999M+01081KA2999N+00241MA1999999097561MW1051
0072036553999991955011013004+51933-001250SAO  +0138EGUA V0202001N011310018019N0018001N9+00801+00741099181ADDGA1081+001809059GF108991999999999999999999MA1999999097461MW1051MW2811
0072036553999991955011014004+51933-001250SAO  +0138EGUA V0202001N010310015019N0028001N9+00911+00851099011ADDGA1081+001509059GF108991999999999999999999MA1999999097321MW1051MW2631
0072036553999991955011015004+51933-001250SAO  +0138EGUA V0202301N011310015019N0048001N9+01021+00911098941ADDGA1081+001509059GF108991999999999999999999MA1999999097261MW1051MW2611
0082036553999991955011016004+51933-001250SAO  +0138EGUA V0202501N007210009019N0080001N9+01071+00911098911ADDGA1061+000909059GA2081+005409059GF108991999999999999999999MA1999999097221MW1051
0082036553999991955011017004+51933-001250SAO  +0138EGUA V0202301N009310090019N0128001N9+01021+00961098871ADDGA1021+002109079GA2061+009009059GF107991999999999999999999MA1999999097221MW1001
0066036553999991955011018004+51933-001250SAO  +0138EGUA V0202301N008712200019N0128001N9+01021+00911098741ADDGA1021+003609059GF102991999999999999999999MA1999999097091MW1001
0066036553999991955011019004+51933-001250SAO  +0138EGUA V0202501N007710027019N0128001N9+01071+00961098741ADDGA1081+002709079GF108991999999999999999999MA1999999097091MW1001
0082036553999991955011020004+51933-001250SAO  +0138EGUA V0202301N008210024019N0128001N9+01071+00961098741ADDGA1021+001509079GA2081+002409079GF108991999999999999999999MA1999999097091MW1001
0088036553999991955011021004+51933-001250SAO  +0138EGUA V0202301N005110012019N0026001N9+01021+01021098741ADDGA1051+001209079GA2031+001809079GF108991999999999999999999MA1999999097091MW1051MW2611
0082036553999991955011022004+51933-001250SAO  +0138EGUA V0202501N009310018019N0128001N9+01071+01021098671ADDGA1061+001809079GA2021+002409079GF108991999999999999999999MA1999999097021MW1001
0066036553999991955011023004+51933-001250SAO  +0138EGUA V0202501N008210024019N0128001N9+01071+00961098601ADDGA1081+002409079GF108991999999999999999999MA1999999096951MW1001
0066036553999991955011100004+51933-001250SAO  +0138EGUA V0202501N009310039019N0128001N9+01071+00961098571ADDGA1081+003909079GF108991999999999999999999MA1999999096921MW1001
0082036553999991955011101004+51933-001250SAO  +0138EGUA V0203401N011810018019N0036001N9+00741+00691098601ADDGA1051+001809079GA2081+003309079GF108991999999999999999999MA1999999096951MW1631
0066036553999991955011102004+51933-001250SAO  +0138EGUA V0203601N006210018019N0128001N9+00461+00411098741ADDGA1081+001809079GF108991999999999999999999MA1999999097051MW1001
0088036553999991955011103004+51933-001250SAO  +0138EGUA V0203601N007710015019N0018001N9+00351+00301098811ADDGA1021+999999999GA2081+001509079GF108991999999999999999999MA1999999097121MW1451MW2511
0094036553999991955011104004+51933-001250SAO  +0138EGUA V0203601N007210015019N0032001N9+00241+00191098911ADDGA1021+999999999GA2081+001509079GF108991999999999999999999MA1999999097221MW1451MW2631MW3711
0098036553999991955011105004+51933-001250SAO  +0138EGUA V0203601N005110015019N0032001N9+00081+00081098971ADDGA1091+999999999GA2061+001509079GA3021+005109079GF108991999999999999999999MA1999999097291MW1711
0082036553999991955011106004+51933-001250SAO  +0138EGUA V0200201N005110045019N0064001N9+00131+00021099011ADDGA1031+001509079GA2081+004509079GF108991999999999999999999MA1999999097321MW1051
0072036553999991955011107004+51933-001250SAO  +0138EGUA V0203601N005110015019N0064001N9+00191-00041099141ADDGA1081+001509079GF108991999999999999999999MA1999999097431MW1051MW2711
0088036553999991955011108004+51933-001250SAO  +0138EGUA V0203601N006210018019N0012001N9+00131+00081099291ADDGA1031+999999999GA2081+001809079GF108991999999999999999999MA1999999097561MW1451MW2711
0088036553999991955011109004+51933-001250SAO  +0138EGUA V0203601N005110015019N0012001N9+00081+00021099391ADDGA1031+999999999GA2081+001509079GF108991999999999999999999MA1999999097661MW1451MW2711
0104036553999991955011110004+51933-001250SAO  +0138EGUA V0203601N004610045019N0022001N9+00081+00021099461ADDGA1021+999999999GA2041+004509059GA3031+018009049GF108991999999999999999999MA1999999097731MW1451MW2711
0082036553999991955011111004+51933-001250SAO  +0138EGUA V0203601N005110180019N0036001N9+00131-00091099551ADDGA1051+006909059GA2061+018009039GF108991999999999999999999MA1999999097831MW1111
0119036553999991955011112004+51933-001250SAO  +0138EGUA V0203601N008210180019N0036001N9+00131-00151099621ADDAA124008091GA1021+003009059GA2061+018009039GF107991999999999999999999KA1999M+01081KA2999N-00371MA1999999097901MW1111
0082036553999991955011113004+51933-001250SAO  +0138EGUA V0203601N007212200019N0040001N9+00191-00091099661ADDGA1021+012009059GA2021+075009009GF102991999999999999999999MA1999999097931MW1051
0082036553999991955011114004+51933-001250SAO  +0138EGUA V0203401N006212200019N0048001N9+00191-00261099831ADDGA1011+012009059GA2031+075009009GF102991999999999999999999MA1999999098101MW1051
0066036553999991955011115004+51933-001250SAO  +0138EGUA V0203401N005712200019N0064001N9+00081-00261099931ADDGA1021+075009009GF102991999999999999999999MA1999999098211MW1051
0066036553999991955011116004+51933-001250SAO  +0138EGUA V0203401N003112200019N0064001N9-00041-00531100071ADDGA1021+075009009GF102991999999999999999999MA1999999098311MW1051
0088036553999991955011117004+51933-001250SAO  +0138EGUA V0203201N003612200019N0024001N9-00091-00591100171ADDGA1021+999999999GA2011+075009009GF102991999999999999999999MA1999999098411MW1041MW2111
0066036553999991955011118004+51933-001250SAO  +0138EGUA V0203201N002612200019N0040001N9-00201-00531100241ADDGA1021+075009009GF102991999999999999999999MA1999999098481MW1051
0066036553999991955011119004+51933-001250SAO  +0138EGUA V0203201N004612200019N0064001N9-00151-00371100271ADDGA1031+075009009GF102991999999999999999999MA1999999098511MW1051
0066036553999991955011120004+51933-001250SAO  +0138EGUA V0203201N003610750019N0064001N9-00151-00201100271ADDGA1081+075009009GF108991999999999999999999MA1999999098511MW1051
0066036553999991955011121004+51933-001250SAO  +0138EGUA V0203201N003110750019N0080001N9-00151-00371100311ADDGA1061+075009009GF107991999999999999999999MA1999999098541MW1051
0066036553999991955011122004+51933-001250SAO  +0138EGUA V0202701N002112200019N0080001N9-00151-00421100311ADDGA1011+030009039GF102991999999999999999999MA1999999098541MW1051
0066036553999991955011123004+51933-001250SAO  +0138EGUA V0209991C000012200019N0080001N9-00311-00591100311ADDGA1001+999999999GF100991999999999999999999MA1999999098541MW1051
0066036553999991955011200004+51933-001250SAO  +0138EGUA V02099999999992200019N0080001N9-00371-00591100311ADDGA1001+999999999GF100991999999999999999999MA1999999098541MW1051
0066036553999991955011201004+51933-001250SAO  +0138EGUA V0202001N005112200019N0080001N9-00371-00481100371ADDGA1001+999999999GF100991999999999999999999MA1999999098581MW1051
0066036553999991955011202004+51933-001250SAO  +0138EGUA V0202001N002612200019N0080001N9-00421-00761100271ADDGA1021+078009009GF102991999999999999999999MA1999999098511MW1051
0066036553999991955011203004+51933-001250SAO  +0138EGUA V0202501N002612200019N0080001N9-00421-00591100241ADDGA1021+078009009GF102991999999999999999999MA1999999098481MW1051
0066036553999991955011204004+51933-001250SAO  +0138EGUA V0209991C000012200019N0080001N9-00531-00761100141ADDGA1041+078009009GF102991999999999999999999MA1999999098371MW1051
0066036553999991955011205004+51933-001250SAO  +0138EGUA V0209991C000012200019N0064001N9-00531-00761100041ADDGA1041+078009009GF102991999999999999999999MA1999999098271MW1051
0082036553999991955011206004+51933-001250SAO  +0138EGUA V0209991C000012200019N0032001N9-00591-00811099861ADDGA1021+999999999GA2021+078009009GF102991999999999999999999MA1999999098101MW1111
0082036553999991955011207004+51933-001250SAO  +0138EGUA V0209991C000012200019N0032001N9-00591-00701099831ADDGA1021+999999999GA2041+078009009GF107991999999999999999999MA1999999098071MW1111
0098036553999991955011208004+51933-001250SAO  +0138EGUA V0209991C000010780019N0018001N9-00531-00591099831ADDGA1021+999999999GA2021+036009039GA3031+078009009GF107991999999999999999999MA1999999098071MW1111
0098036553999991955011209004+51933-001250SAO  +0138EGUA V0203201N002110780019N0016001N9-00531-00531099761ADDGA1011+999999999GA2021+024009039GA3081+078009009GF108991999999999999999999MA1999999098001MW1111
0066036553999991955011210004+51933-001250SAO  +0138EGUA V0203201N002610780019N0048001N9-00261-00371099761ADDGA1081+078009009GF108991999999999999999999MA1999999098001MW1111
0066036553999991955011211004+51933-001250SAO  +0138EGUA V0202701N002610780019N0064001N9+00021-00151099731ADDGA1071+078009009GF107991999999999999999999MA1999999097971MW1051
0103036553999991955011212004+51933-001250SAO  +0138EGUA V0202501N002110780019N0064001N9-00091-00261099661ADDAA124000091GA1061+078009009GF107991999999999999999999KA1999M+00241KA2999N-00591MA1999999097901MW1051
0066036553999991955011213004+51933-001250SAO  +0138EGUA V0202301N004112200019N0064001N9+00081-00311099631ADDGA1021+078009009GF102991999999999999999999MA1999999097871MW1051
0066036553999991955011214004+51933-001250SAO  +0138EGUA V0202701N004112200019N0096001N9+00241-00261099591ADDGA1011+078009009GF102991999999999999999999MA1999999097831MW1051
0066036553999991955011215004+51933-001250SAO  +0138EGUA V0202901N007212200019N0080001N9+00191-00261099591ADDGA1001+999999999GF100991999999999999999999MA1999999097831MW1051
0085036553999991955011216004+51933-001250SAO  +0138EGUA V0202901N005112200019N0080001N9+00131-00091099661ADDGA1999+010509999GF100991999999999999999999MA1999999097901MW1051EQDQ01    003SCCGA1
0066036553999991955011217004+51933-001250SAO  +0138EGUA V0202901N005112200019N0064001N9+00081-00091099731ADDGA1011+012009059GF102991999999999999999999MA1999999097971MW1051
0066036553999991955011218004+51933-001250SAO  +0138EGUA V0203201N006712200019N0064001N9+00081-00041099931ADDGA1011+012009059GF102991999999999999999999MA1999999098171MW1051
0066036553999991955011219004+51933-001250SAO  +0138EGUA V0203201N005112200019N0064001N9-00041-00371100071ADDGA1001+999999999GF100991999999999999999999MA1999999098311MW1051
0066036553999991955011220004+51933-001250SAO  +0138EGUA V0202901N005712200019N0064001N9-00041-00421100141ADDGA1001+999999999GF100991999999999999999999MA1999999098371MW1051
0066036553999991955011221004+51933-001250SAO  +0138EGUA V0202701N005712200019N0064001N9-00041-00531100271ADDGA1001+999999999GF100991999999999999999999MA1999999098511MW1051
0066036553999991955011222004+51933-001250SAO  +0138EGUA V0202701N006212200019N0064001N9-00091-00531100341ADDGA1001+999999999GF100991999999999999999999MA1999999098581MW1051
0066036553999991955011223004+51933-001250SAO  +0138EGUA V0202701N006712200019N0064001N9-00091-00531100411ADDGA1001+999999999GF100991999999999999999999MA1999999098651MW1051
0066036553999991955011300004+51933-001250SAO  +0138EGUA V0202701N005712200019N0064001N9-00091-00481100441ADDGA1021+024009039GF102991999999999999999999MA1999999098681MW1051
0066036553999991955011301004+51933-001250SAO  +0138EGUA V0202701N006212200019N0144001N9-00041-00421100541ADDGA1021+010509059GF102991999999999999999999MA1999999098781MW1001
0066036553999991955011302004+51933-001250SAO  +0138EGUA V0202701N004112200019N0144001N9-00151-00421100641ADDGA1031+013509059GF102991999999999999999999MA1999999098881MW1001
0066036553999991955011303004+51933-001250SAO  +0138EGUA V0202701N002612200019N0144001N9-00201-00481100751ADDGA1011+013509059GF102991999999999999999999MA1999999098981MW1001
0066036553999991955011304004+51933-001250SAO  +0138EGUA V0202701N004112200019N0144001N9-00261-00481100781ADDGA1001+999999999GF100991999999999999999999MA1999999099021MW1001
0082036553999991955011305004+51933-001250SAO  +0138EGUA V0202701N003112200019N0144001N9-00311-00531100781ADDGA1011+013509059GA2021+036009049GF102991999999999999999999MA1999999099021MW1001
0066036553999991955011306004+51933-001250SAO  +0138EGUA V0202701N002612200019N0144001N9-00261-00531100751ADDGA1031+066009029GF102991999999999999999999MA1999999098981MW1001
0066036553999991955011307004+51933-001250SAO  +0138EGUA V0202701N002110660019N0144001N9-00261-00481100751ADDGA1061+066009029GF107991999999999999999999MA1999999098981MW1001
0066036553999991955011308004+51933-001250SAO  +0138EGUA V0209991C000010660019N0144001N9-00261-00481100711ADDGA1081+066009029GF108991999999999999999999MA1999999099021MW1001
0066036553999991955011309004+51933-001250SAO  +0138EGUA V0201801N002610660019N0064001N9-00311-00591100711ADDGA1081+066009029GF108991999999999999999999MA1999999099021MW1051
0082036553999991955011310004+51933-001250SAO  +0138EGUA V0201401N003110660019N0024001N9-00311-00591100751ADDGA1091+999999999GA2091+066009029GF108991999999999999999999MA1999999098981MW1051
0066036553999991955011311004+51933-001250SAO  +0138EGUA V0201401N003110660019N0040001N9-00201-00371100641ADDGA1081+066009029GF108991999999999999999999MA1999999098881MW1051
0103036553999991955011312004+51933-001250SAO  +0138EGUA V0201101N004610660019N0048001N9-00151-00371100441ADDAA124010091GA1081+066009029GF108991999999999999999999KA1999M-00041KA2999N-00371MA1999999098681MW1051
0066036553999991955011313004+51933-001250SAO  +0138EGUA V0201401N005110600019N0048001N9-00091-00371100411ADDGA1081+060009029GF108991999999999999999999MA1999999098651MW1051
0082036553999991955011314004+51933-001250SAO  +0138EGUA V0201101N006210420019N0032001N9-00041-00371100171ADDGA1091+999999999GA2071+042009049GF108991999999999999999999MA1999999098411MW1051
0082036553999991955011315004+51933-001250SAO  +0138EGUA V0201101N005710270019N0010001N9-00041-00371100041ADDGA1091+999999999GA2021+027009049GF108991999999999999999999MA1999999098271MW1051
0072036553999991955011316004+51933-001250SAO  +0138EGUA V0201401N005710012019N0005001N9-00091-00151099901ADDGA1091+001209999GF109991999999999999999999MA1999999098141MW1051MW2731
0072036553999991955011317004+51933-001250SAO  +0138EGUA V0201101N006710009019N0005001N9-00091-00091099801ADDGA1091+000909999GF109991999999999999999999MA1999999098041MW1051MW2731
0072036553999991955011318004+51933-001250SAO  +0138EGUA V0200901N007210009019N0005001N9-00091-00091099491ADDGA1091+000909999GF109991999999999999999999MA1999999097731MW1051MW2731
0082036553999991955011319004+51933-001250SAO  +0138EGUA V0200901N007210015019N0006001N9-00091-00091099361ADDGA1091+999999999GA2091+001509079GF108991999999999999999999MA1999999097601MW1731
0082036553999991955011320004+51933-001250SAO  +0138EGUA V0200901N008210015019N0018001N9-00041-00151099151ADDGA1041+999999999GA2081+001509079GF108991999999999999999999MA1999999097391MW1451
0088036553999991955011321004+51933-001250SAO  +0138EGUA V0200901N008210030019N0048001N9-00041-00151099091ADDGA1091+999999999GA2091+003009079GF108991999999999999999999MA1999999097321MW1051MW2711
0088036553999991955011322004+51933-001250SAO  +0138EGUA V0200901N008710036019N0022001N9-00091-00151098981ADDGA1091+999999999GA2091+003609079GF108991999999999999999999MA1999999097221MW1051MW2711
0088036553999991955011323004+51933-001250SAO  +0138EGUA V0200901N008210036019N0018001N9-00091-00091098881ADDGA1091+999999999GA2091+003609079GF108991999999999999999999MA1999999097161MW1051MW2711
0088036553999991955011400004+51933-001250SAO  +0138EGUA V0200701N007210015019N0012001N9-00091-00091098881ADDGA1091+999999999GA2091+001509079GF108991999999999999999999MA1999999097191MW1051MW2711
0072036553999991955011401004+51933-001250SAO  +0138EGUA V0200701N009810015019N0012001N9-00091-00091098851ADDGA1091+001509999GF109991999999999999999999MA1999999097121MW1051MW2711
0072036553999991955011402004+51933-001250SAO  +0138EGUA V0200701N008710015019N0010001N9-00091-00091098851ADDGA1091+001509999GF109991999999999999999999MA1999999097121MW1051MW2711
0072036553999991955011403004+51933-001250SAO  +0138EGUA V0200701N009810015019N0006001N9-00041-00091098851ADDGA1091+001509999GF109991999999999999999999MA1999999097121MW1051MW2731
0088036553999991955011404004+51933-001250SAO  +0138EGUA V0200501N008210018019N0012001N9-00041-00151098921ADDGA1091+999999999GA2091+001809079GF108991999999999999999999MA1999999097191MW1051MW2711
0072036553999991955011405004+51933-001250SAO  +0138EGUA V0200501N008710021019N0064001N9-00041-00151098951ADDGA1081+002109079GF108991999999999999999999MA1999999097221MW1051MW2711
0066036553999991955011406004+51933-001250SAO  +0138EGUA V0200501N008210027019N0064001N9-00041-00201099191ADDGA1081+002709079GF108991999999999999999999MA1999999097461MW1051
0066036553999991955011407004+51933-001250SAO  +0138EGUA V0200501N006710027019N0064001N9+00021-00151099261ADDGA1081+002709079GF108991999999999999999999MA1999999097531MW1051
0082036553999991955011408004+51933-001250SAO  +0138EGUA V0200201N006210036019N0064001N9+00021-00151099491ADDGA1061+003609079GA2081+008409059GF108991999999999999999999MA1999999097731MW1051
0082036553999991955011409004+51933-001250SAO  +0138EGUA V0203601N005710810019N0080001N9-00151-00311099701ADDGA1011+003609079GA2071+081009009GF107991999999999999999999MA1999999097931MW1051
0066036553999991955011410004+51933-001250SAO  +0138EGUA V0203601N005710810019N0040001N9-00261-00481099831ADDGA1061+081009009GF107991999999999999999999MA1999999098071MW1051
0082036553999991955011411004+51933-001250SAO  +0138EGUA V0203601N004612200019N0032001N9-00201-00591100001ADDGA1091+999999999GA2011+081009009GF102991999999999999999999MA1999999098241MW1051
0120036553999991955011412004+51933-001250SAO  +0138EGUA V0203401N005112200019N0032001N9-00151-00701100171ADDAA124000391AJ100089199999999GA1091+999999999GF102991999999999999999999KA1999M+00021KA2999N-00651MA1999999098411MW1051
0066036553999991955011413004+51933-001250SAO  +0138EGUA V0203601N004612200019N0020001N9-00151-00651100311ADDGA1091+999999999GF102991999999999999999999MA1999999098541MW1051
0066036553999991955011414004+51933-001250SAO  +0138EGUA V0203201N005112200019N0018001N9-00151-00651100471ADDGA1091+999999999GF102991999999999999999999MA1999999098711MW1051
0066036553999991955011415004+51933-001250SAO  +0138EGUA V0203601N005112200019N0024001N9-00261-00531100611ADDGA1091+999999999GF102991999999999999999999MA1999999098851MW1051
0066036553999991955011416004+51933-001250SAO  +0138EGUA V0203201N003112200019N0040001N9-00261-00651100711ADDGA1091+999999999GF102991999999999999999999MA1999999098951MW1051
0082036553999991955011417004+51933-001250SAO  +0138EGUA V0203201N003612200019N0032001N9-00261-00591100811ADDGA1091+999999999GA2021+036009049GF102991999999999999999999MA1999999099051MW1051
0082036553999991955011418004+51933-001250SAO  +0138EGUA V0203201N003112200019N0028001N9-00481-00871100911ADDGA1091+999999999GA2021+036009049GF102991999999999999999999MA1999999099121MW1051
0082036553999991955011419004+51933-001250SAO  +0138EGUA V0203401N005110360019N0028001N9-00591-00811101021ADDGA1091+999999999GA2041+036009049GF107991999999999999999999MA1999999099221MW1051
0082036553999991955011420004+51933-001250SAO  +0138EGUA V0203401N004110360019N0024001N9-00651-00811101081ADDGA1091+999999999GA2051+036009049GF107991999999999999999999MA1999999099291MW1051
0082036553999991955011421004+51933-001250SAO  +0138EGUA V0202001N002110360019N0022001N9-00591-00761101221ADDGA1091+999999999GA2021+036009049GF107991999999999999999999MA1999999099391MW1051
0082036553999991955011422004+51933-001250SAO  +0138EGUA V0202501N003110360019N0022001N9-00591-00811101321ADDGA1091+999999999GA2041+036009049GF107991999999999999999999MA1999999099491MW1051
0082036553999991955011423004+51933-001250SAO  +0138EGUA V0202301N002110360019N0024001N9-00531-00871101351ADDGA1091+999999999GA2031+036009049GF107991999999999999999999MA1999999099531MW1051
0082036553999991955011500004+51933-001250SAO  +0138EGUA V0201801N002110360019N0020001N9-00591-00811101251ADDGA1091+999999999GA2031+036009049GF107991999999999999999999MA1999999099491MW1051
0082036553999991955011501004+51933-001250SAO  +0138EGUA V0201801N001510360019N0020001N9-00531-00761101321ADDGA1091+999999999GA2021+036009049GF107991999999999999999999MA1999999099491MW1051
0066036553999991955011502004+51933-001250SAO  +0138EGUA V0201801N002110003019N0006001N9-00701-00811101321ADDGA1091+000309999GF109991999999999999999999MA1999999099491MW1451
0066036553999991955011503004+51933-001250SAO  +0138EGUA V0201401N002610024019N0006001N9-00591-00761101321ADDGA1091+002409999GF109991999999999999999999MA1999999099491MW1451
0082036553999991955011504004+51933-001250SAO  +0138EGUA V0201101N002610102019N0006001N9-00591-00811101291ADDGA1091+999999999GA2031+010209059GF108991999999999999999999MA1999999099461MW1051
0082036553999991955011505004+51933-001250SAO  +0138EGUA V0201101N003610102019N0010001N9-00421-00701101221ADDGA1091+999999999GA2041+010209059GF108991999999999999999999MA1999999099391MW1051
0082036553999991955011506004+51933-001250SAO  +0138EGUA V0201401N003610102019N0010001N9-00371-00651100981ADDGA1091+999999999GA2041+010209059GF108991999999999999999999MA1999999099151MW1051
0088036553999991955011507004+51933-001250SAO  +0138EGUA V0201401N002610102019N0010001N9-00371-00481100851ADDGA1091+999999999GA2041+010209059GF108991999999999999999999MA1999999099051MW1051MW2711
0072036553999991955011508004+51933-001250SAO  +0138EGUA V0201401N003610015019N0010001N9-00261-00311100781ADDGA1091+001509999GF109991999999999999999999MA1999999098981MW1051MW2711
0072036553999991955011509004+51933-001250SAO  +0138EGUA V0201401N004610015019N0010001N9-00091-00151100611ADDGA1091+001509999GF109991999999999999999999MA1999999098851MW1051MW2711
0088036553999991955011510004+51933-001250SAO  +0138EGUA V0201601N007710015019N0018001N9+00021+00021100471ADDGA1091+999999999GA2091+001509079GF108991999999999999999999MA1999999098711MW1051MW2711
0088036553999991955011511004+51933-001250SAO  +0138EGUA V0201401N006710015019N0018001N9+00081-00041100311ADDGA1091+999999999GA2091+001509079GF108991999999999999999999MA1999999098541MW1051MW2711
0142036553999991955011512004+51933-001250SAO  +0138EGUA V0201601N004610015019N0022001N9+00081-00041100071ADDAA124003091AJ100109199999999GA1031+999999999GA2081+001509079GF108991999999999999999999KA1999M+00461KA2999N-00701MA1999999098341MW1451MW2511
0088036553999991955011513004+51933-001250SAO  +0138EGUA V0201801N006210015019N0026001N9+00081-00041099931ADDGA1031+999999999GA2081+001509079GF108991999999999999999999MA1999999098171MW1451MW2511
0088036553999991955011514004+51933-001250SAO  +0138EGUA V0201801N007210012019N0026001N9+00081-00041099801ADDGA1031+999999999GA2081+001209079GF108991999999999999999999MA1999999098041MW1451MW2511
0072036553999991955011515004+51933-001250SAO  +0138EGUA V0201801N006210006019N0010001N9+00081+00081099631ADDGA1091+000609999GF109991999999999999999999MA1999999097871MW1451MW2511
0072036553999991955011516004+51933-001250SAO  +0138EGUA V0201801N004610006019N0003001N9+00131+00081099491ADDGA1091+000609999GF109991999999999999999999MA1999999097731MW1451MW2511
0066036553999991955011517004+51933-001250SAO  +0138EGUA V0201801N003610001519N0000001N9+00131+00131099461ADDGA1091+000159999GF109991999999999999999999MA1999999097701MW1451
0066036553999991955011518004+51933-001250SAO  +0138EGUA V0201801N002610001519N0000001N9+00191+00131099421ADDGA1091+000159999GF109991999999999999999999MA1999999097661MW1451
0066036553999991955011519004+51933-001250SAO  +0138EGUA V0201801N002110001519N0000001N9+00241+00191099391ADDGA1091+000159999GF109991999999999999999999MA1999999097631MW1451
0072036553999991955011520004+51933-001250SAO  +0138EGUA V0201801N003110001519N0000001N9+00301+00301099361ADDGA1091+000159999GF109991999999999999999999MA1999999097601MW1451MW2511
0066036553999991955011521004+51933-001250SAO  +0138EGUA V0201801N004110001519N0001001N9+00351+00351099361ADDGA1091+000159999GF109991999999999999999999MA1999999097601MW1451
0066036553999991955011522004+51933-001250SAO  +0138EGUA V0201801N004610001519N0000001N9+00411+00411099291ADDGA1091+000159999GF109991999999999999999999MA1999999097531MW1451
0066036553999991955011523004+51933-001250SAO  +0138EGUA V0201801N005110001519N0000001N9+00461+00411099261ADDGA1091+000159999GF109991999999999999999999MA1999999097491MW1451
0066036553999991955011600004+51933-001250SAO  +0138EGUA V0201801N004610001519N0000001N9+00461+00461099121ADDGA1091+000159999GF109991999999999999999999MA1999999097391MW1451
0072036553999991955011601004+51933-001250SAO  +0138EGUA V0201801N004610003019N0001001N9+00521+00521098941ADDGA1091+000309999GF109991999999999999999999MA1999999097261MW1451MW2511
0072036553999991955011602004+51933-001250SAO  +0138EGUA V0201801N004610003019N0001001N9+00581+00521098871ADDGA1091+000309999GF109991999999999999999999MA1999999097191MW1451MW2511
0082036553999991955011603004+51933-001250SAO  +0138EGUA V0201801N004610009019N0003001N9+00581+00581098771ADDGA1041+999999999GA2041+000909079GF108991999999999999999999MA1999999097091MW1451
0066036553999991955011604004+51933-001250SAO  +0138EGUA V0201801N004610006019N0001001N9+00581+00581098641ADDGA1091+000609999GF109991999999999999999999MA1999999096951MW1451
0066036553999991955011605004+51933-001250SAO  +0138EGUA V0201601N004110006019N0001001N9+00631+00581098471ADDGA1091+000609999GF109991999999999999999999MA1999999096781MW1451
0066036553999991955011606004+51933-001250SAO  +0138EGUA V0201801N004610006019N0001001N9+00631+00631098361ADDGA1091+000609999GF109991999999999999999999MA1999999096681MW1451
0066036553999991955011607004+51933-001250SAO  +0138EGUA V0201401N004610006019N0001001N9+00631+00631098261ADDGA1091+000609999GF109991999999999999999999MA1999999096581MW1451
0072036553999991955011608004+51933-001250SAO  +0138EGUA V0201401N004610006019N0003001N9+00691+00691098161ADDGA1091+000609999GF109991999999999999999999MA1999999096481MW1451MW2511
0088036553999991955011609004+51933-001250SAO  +0138EGUA V0200901N004610012019N0003001N9+00581+00581098061ADDGA1051+999999999GA2081+001209079GF108991999999999999999999MA1999999096381MW1451MW2631
0088036553999991955011610004+51933-001250SAO  +0138EGUA V0200901N005710024019N0001001N9+00631+00631097961ADDGA1041+999999999GA2081+002409079GF108991999999999999999999MA1999999096281MW1451MW2631
0088036553999991955011611004+51933-001250SAO  +0138EGUA V0200501N008210018019N0018001N9+00581+00581097891ADDGA1031+999999999GA2081+001809079GF108991999999999999999999MA1999999096211MW1451MW2631
0125036553999991955011612004+51933-001250SAO  +0138EGUA V0200201N010310015019N0036001N9+00301+00241097891ADDAA124012091GA1021+999999999GA2081+001509079GF108991999999999999999999KA1999M+00691KA2999N-00371MA1999999096241MW1451MW2611
0072036553999991955011613004+51933-001250SAO  +0138EGUA V0200201N012310015019N0036001N9+00241+00131097921ADDGA1081+001509079GF108991999999999999999999MA1999999096241MW1451MW2631
0088036553999991955011614004+51933-001250SAO  +0138EGUA V0200201N013410015019N0010001N9+00131+00021098031ADDGA1091+999999999GA2091+001509079GF108991999999999999999999MA1999999096341MW1451MW2711
0072036553999991955011615004+51933-001250SAO  +0138EGUA V0200201N013410006019N0010001N9+00081+00021098301ADDGA1091+000609999GF109991999999999999999999MA1999999096611MW1451MW2711
0088036553999991955011616004+51933-001250SAO  +0138EGUA V0200201N011310033019N0012001N9+00081+00021098501ADDGA1091+999999999GA2091+003309079GF108991999999999999999999MA1999999096821MW1451MW2711
0088036553999991955011617004+51933-001250SAO  +0138EGUA V0203601N013410024019N0018001N9+00081-00041098871ADDGA1091+999999999GA2091+002409079GF108991999999999999999999MA1999999097191MW1451MW2711
0066036553999991955011618004+51933-001250SAO  +0138EGUA V0203601N014910039019N0064001N9+00021-00151099211ADDGA1081+003909079GF108991999999999999999999MA1999999097531MW1051
0072036553999991955011619004+51933-001250SAO  +0138EGUA V0203401N010310051019N0064001N9+00021-00151099481ADDGA1081+005109079GF108991999999999999999999MA1999999097771MW1051MW2711
0066036553999991955011620004+51933-001250SAO  +0138EGUA V0203201N009810057019N0064001N9-00041-00201099721ADDGA1081+005709079GF108991999999999999999999MA1999999098001MW1051
0066036553999991955011621004+51933-001250SAO  +0138EGUA V0203201N009810051019N0048001N9-00091-00311099921ADDGA1081+005109079GF108991999999999999999999MA1999999098211MW1051
0066036553999991955011622004+51933-001250SAO  +0138EGUA V0203201N008712200019N0064001N9-00201-00421100031ADDGA1021+005109079GF102991999999999999999999MA1999999098311MW1051
0066036553999991955011623004+51933-001250SAO  +0138EGUA V0203201N008712200019N0064001N9-00261-00591100241ADDGA1021+005109079GF102991999999999999999999MA1999999098481MW1051
0066036553999991955011700004+51933-001250SAO  +0138EGUA V0203201N006212200019N0080001N9-00371-00651100311ADDGA1001+999999999GF100991999999999999999999MA1999999098541MW1051
0066036553999991955011701004+51933-001250SAO  +0138EGUA V0203201N005712200019N0128001N9-00371-00531100411ADDGA1001+999999999GF100991999999999999999999MA1999999098651MW1001
0066036553999991955011702004+51933-001250SAO  +0138EGUA V0202701N005112200019N0128001N9-00371-00531100441ADDGA1001+999999999GF100991999999999999999999MA1999999098681MW1001
0066036553999991955011703004+51933-001250SAO  +0138EGUA V0202701N007212200019N0128001N9-00311-00591100471ADDGA1001+999999999GF100991999999999999999999MA1999999098711MW1001
0066036553999991955011704004+51933-001250SAO  +0138EGUA V0202701N004612200019N0128001N9-00311-00481100471ADDGA1001+999999999GF100991999999999999999999MA1999999098711MW1001
0066036553999991955011705004+51933-001250SAO  +0138EGUA V0202701N004112200019N0128001N9-00421-00531100471ADDGA1001+999999999GF100991999999999999999999MA1999999098711MW1001
0066036553999991955011706004+51933-001250SAO  +0138EGUA V0202001N002112200019N0128001N9-00481-00651100411ADDGA1001+999999999GF100991999999999999999999MA1999999098651MW1001
0066036553999991955011707004+51933-001250SAO  +0138EGUA V0202301N003112200019N0128001N9-00531-00651100371ADDGA1001+999999999GF100991999999999999999999MA1999999098611MW1001
0066036553999991955011708004+51933-001250SAO  +0138EGUA V0202301N003612200019N0128001N9-00481-00761100371ADDGA1001+999999999GF100991999999999999999999MA1999999098611MW1001
0101036553999991955011709004+51933-001250SAO  +0138EGUA V0202501N003112200019N0096001N9-00481-00651100341ADDGA1011+010509059GA2999+069009999GF102991999999999999999999MA1999999098581MW1051EQDQ01    003SCCGA2
0082036553999991955011710004+51933-001250SAO  +0138EGUA V0202501N004612200019N0096001N9-00151-00761100341ADDGA1021+010509059GA2011+069009009GF102991999999999999999999MA1999999098581MW1051
0082036553999991955011711004+51933-001250SAO  +0138EGUA V0202301N006710690019N0128001N9-00091-00651100341ADDGA1021+010509059GA2051+069009009GF107991999999999999999999MA1999999098581MW1001
0136036553999991955011712004+51933-001250SAO  +0138EGUA V0202301N005110690019N0128001N9-00041-00651100201ADDAA124008091AJ100039199999999GA1021+027009049GA2051+069009009GF107991999999999999999999KA1999M+00081KA2999N-00651MA1999999098441MW1001
0082036553999991955011713004+51933-001250SAO  +0138EGUA V0202301N004110690019N0128001N9+00081-00371100201ADDGA1021+027009049GA2051+069009009GF107991999999999999999999MA1999999098441MW1001
0098036553999991955011714004+51933-001250SAO  +0138EGUA V0202301N003610270019N0128001N9+00081-00151100071ADDGA1021+009009089GA2031+027009049GA3021+069009009GF107991999999999999999999MA1999999098311MW1001
0082036553999991955011715004+51933-001250SAO  +0138EGUA V0202001N002610270019N0128001N9+00081-00091099971ADDGA1021+009009089GA2061+027009049GF108991999999999999999999MA1999999098211MW1001
0082036553999991955011716004+51933-001250SAO  +0138EGUA V0201801N004110090019N0080001N9+00021-00261099901ADDGA1051+009009059GA2031+027009049GF108991999999999999999999MA1999999098141MW1051
0088036553999991955011717004+51933-001250SAO  +0138EGUA V0209991C000010090019N0008001N9+00021-00151099901ADDGA1091+999999999GA2091+009009059GF108991999999999999999999MA1999999098141MW1051MW2731
0072036553999991955011718004+51933-001250SAO  +0138EGUA V0203601N002610024019N0006001N9-00091-00261099701ADDGA1091+002409999GF109991999999999999999999MA1999999097931MW1051MW2731
0104036553999991955011719004+51933-001250SAO  +0138EGUA V0203601N004110021019N0024001N9-00091-00261099631ADDGA1091+999999999GA2031+002109079GA3091+003609079GF108991999999999999999999MA1999999097871MW1051MW2711
0082036553999991955011720004+51933-001250SAO  +0138EGUA V0203601N007210018019N0026001N9-00201-00421099631ADDGA1091+999999999GA2041+001809079GF107991999999999999999999MA1999999097871MW1051
0082036553999991955011721004+51933-001250SAO  +0138EGUA V0203601N005110006019N0006001N9-00261-00421099661ADDGA1091+999999999GA2091+000609079GF108991999999999999999999MA1999999097901MW1051
0066036553999991955011722004+51933-001250SAO  +0138EGUA V0203401N005110001519N0003001N9-00311-00421099661ADDGA1091+000159999GF109991999999999999999999MA1999999097901MW1451
0066036553999991955011723004+51933-001250SAO  +0138EGUA V0203201N004112200019N0005001N9-00481-00651099701ADDGA1061+999999999GF107991999999999999999999MA1999999097931MW1451
0066036553999991955011800004+51933-001250SAO  +0138EGUA V0203201N002612200019N0012001N9-00651-00811099801ADDGA1021+999999999GF102991999999999999999999MA1999999098071MW1111
0066036553999991955011801004+51933-001250SAO  +0138EGUA V0203201N007712200019N0064001N9-00311-00481099831ADDGA1001+999999999GF100991999999999999999999MA1999999098071MW1051
0066036553999991955011802004+51933-001250SAO  +0138EGUA V0202901N005712200019N0064001N9-00371-00531099831ADDGA1001+999999999GF100991999999999999999999MA1999999098071MW1051
0066036553999991955011803004+51933-001250SAO  +0138EGUA V0203201N007212200019N0064001N9-00201-00421099861ADDGA1001+999999999GF100991999999999999999999MA1999999098101MW1051
0066036553999991955011804004+51933-001250SAO  +0138EGUA V0202901N008212200019N0064001N9-00201-00421099861ADDGA1001+999999999GF100991999999999999999999MA1999999098101MW1051
0066036553999991955011805004+51933-001250SAO  +0138EGUA V0202901N009812200019N0064001N9-00201-00371099931ADDGA1001+999999999GF100991999999999999999999MA1999999098171MW1051
0066036553999991955011806004+51933-001250SAO  +0138EGUA V0202901N009812200019N0064001N9-00091-00201099971ADDGA1001+999999999GF100991999999999999999999MA1999999098211MW1051
0066036553999991955011807004+51933-001250SAO  +0138EGUA V0202901N010312200019N0064001N9-00091-00261100041ADDGA1011+036009039GF102991999999999999999999MA1999999098271MW1051
0066036553999991955011808004+51933-001250SAO  +0138EGUA V0202901N009312200019N0176001N9-00041-00311100171ADDGA1021+010509059GF102991999999999999999999MA1999999098411MW1001
0066036553999991955011809004+51933-001250SAO  +0138EGUA V0202901N010312200019N0176001N9-00041-00311100371ADDGA1021+012009059GF102991999999999999999999MA1999999098611MW1001
0085036553999991955011810004+51933-001250SAO  +0138EGUA V0202901N010312200019N0176001N9+00081-00261100471ADDGA1999+012009999GF100991999999999999999999MA1999999098681MW1001EQDQ01    003SCCGA1
0066036553999991955011811004+51933-001250SAO  +0138EGUA V0202901N009312200019N0240001N9+00191-00201100541ADDGA1001+999999999GF100991999999999999999999MA1999999098781MW1001
0120036553999991955011812004+51933-001250SAO  +0138EGUA V0202701N008712200019N0240001N9+00191-00201100581ADDAA124000091AJ100089199999999GA1001+999999999GF100991999999999999999999KA1999M+00301KA2999N-00651MA1999999098811MW1001
0066036553999991955011813004+51933-001250SAO  +0138EGUA V0202701N006712200019N0240001N9+00301-00261100681ADDGA1001+999999999GF100991999999999999999999MA1999999098921MW1001
0085036553999991955011814004+51933-001250SAO  +0138EGUA V0202901N005112200019N0240001N9+00241-00151100781ADDGA1999+027009999GF100991999999999999999999MA1999999099021MW1001EQDQ01    003SCCGA1
0066036553999991955011815004+51933-001250SAO  +0138EGUA V0202901N008212200019N0240001N9+00241-00151100851ADDGA1021+010509059GF102991999999999999999999MA1999999099091MW1001
0085036553999991955011816004+51933-001250SAO  +0138EGUA V0202701N005112200019N0240001N9+00131-00151100911ADDGA1999+012009999GF100991999999999999999999MA1999999099121MW1001EQDQ01    003SCCGA1
0085036553999991955011817004+51933-001250SAO  +0138EGUA V0202701N007212200019N0176001N9+00131-00151100951ADDGA1999+009009999GF100991999999999999999999MA1999999099151MW1001EQDQ01    003SCCGA1
0066036553999991955011818004+51933-001250SAO  +0138EGUA V0202501N004112200019N0176001N9+00021-00311100981ADDGA1001+999999999GF100991999999999999999999MA1999999099191MW1001
0066036553999991955011819004+51933-001250SAO  +0138EGUA V0202501N004112200019N0176001N9-00091-00201101021ADDGA1001+999999999GF100991999999999999999999MA1999999099221MW1001
0066036553999991955011820004+51933-001250SAO  +0138EGUA V0202301N003612200019N0176001N9-00261-00481101051ADDGA1001+999999999GF100991999999999999999999MA1999999099261MW1001
0066036553999991955011821004+51933-001250SAO  +0138EGUA V0202501N003612200019N0176001N9-00201-00481101081ADDGA1001+999999999GF100991999999999999999999MA1999999099291MW1001
0066036553999991955011822004+51933-001250SAO  +0138EGUA V0202301N003612200019N0176001N9-00371-00531101121ADDGA1001+999999999GF100991999999999999999999MA1999999099321MW1001
0066036553999991955011823004+51933-001250SAO  +0138EGUA V0202501N003612200019N0144001N9-00311-00531101121ADDGA1001+999999999GF100991999999999999999999MA1999999099321MW1001
0066036553999991955011900004+51933-001250SAO  +0138EGUA V0202301N003612200019N0144001N9-00421-00651101121ADDGA1001+999999999GF100991999999999999999999MA1999999099321MW1001
0066036553999991955011901004+51933-001250SAO  +0138EGUA V0202301N005112200019N0144001N9-00371-00651101121ADDGA1001+999999999GF100991999999999999999999MA1999999099321MW1001
0066036553999991955011902004+51933-001250SAO  +0138EGUA V0202301N004612200019N0144001N9-00371-00651101121ADDGA1001+999999999GF100991999999999999999999MA1999999099321MW1001
0066036553999991955011903004+51933-001250SAO  +0138EGUA V0202301N004112200019N0144001N9-00261-00531101121ADDGA1001+999999999GF100991999999999999999999MA1999999099321MW1001
0066036553999991955011904004+51933-001250SAO  +0138EGUA V0202301N005112200019N0144001N9-00201-00371101121ADDGA1001+999999999GF100991999999999999999999MA1999999099321MW1001
0066036553999991955011905004+51933-001250SAO  +0138EGUA V0202301N005112200019N0144001N9-00371-00701101121ADDGA1001+999999999GF100991999999999999999999MA1999999099321MW1001
0066036553999991955011906004+51933-001250SAO  +0138EGUA V0202301N004612200019N0144001N9-00371-00651101021ADDGA1001+999999999GF100991999999999999999999MA1999999099261MW1001
0066036553999991955011907004+51933-001250SAO  +0138EGUA V0202501N003112200019N0144001N9-00371-00531101051ADDGA1011+072009009GF102991999999999999999999MA1999999099261MW1001
0066036553999991955011908004+51933-001250SAO  +0138EGUA V0202301N003112200019N0064001N9-00481-00701101021ADDGA1021+072009009GF102991999999999999999999MA1999999099221MW1051
0066036553999991955011909004+51933-001250SAO  +0138EGUA V0202301N003612200019N0064001N9-00371-00481101051ADDGA1031+072009009GF102991999999999999999999MA1999999099261MW1051
0066036553999991955011910004+51933-001250SAO  +0138EGUA V0202301N003112200019N0064001N9-00201-00421101051ADDGA1021+072009009GF102991999999999999999999MA1999999099261MW1051
0066036553999991955011911004+51933-001250SAO  +0138EGUA V0202301N003612200019N0064001N9-00041-00371101081ADDGA1021+072009009GF102991999999999999999999MA1999999099291MW1051
0120036553999991955011912004+51933-001250SAO  +0138EGUA V0209991C000012200019N0064001N9+00191-00201101051ADDAA124000091AJ100089199999999GA1031+072009009GF102991999999999999999999KA1999M+00191KA2999N-00591MA1999999099261MW1051
0066036553999991955011913004+51933-001250SAO  +0138EGUA V0209991C000012200019N0064001N9+00191-00201101051ADDGA1041+072009009GF102991999999999999999999MA1999999099261MW1051
0082036553999991955011914004+51933-001250SAO  +0138EGUA V0209991C000010120019N0064001N9+00081+00021101051ADDGA1061+012009059GA2011+072009009GF107991999999999999999999MA1999999099261MW1051
0098036553999991955011915004+51933-001250SAO  +0138EGUA V0209991C000010120019N0018001N9+00081-00041101051ADDGA1091+999999999GA2061+012009059GA3011+072009009GF107991999999999999999999MA1999999099261MW1051
0098036553999991955011916004+51933-001250SAO  +0138EGUA V0209991C000012200019N0026001N9-00041-00261101021ADDGA1091+999999999GA2031+012009059GA3011+072009009GF102991999999999999999999MA1999999099221MW1051
0098036553999991955011917004+51933-001250SAO  +0138EGUA V0200901N002112200019N0026001N9-00311-00481101021ADDGA1091+999999999GA2011+012009059GA3011+027009039GF102991999999999999999999MA1999999099221MW1051
0082036553999991955011918004+51933-001250SAO  +0138EGUA V0200901N002112200019N0048001N9-00311-00531101051ADDGA1011+012009039GA2011+027009039GF102991999999999999999999MA1999999099261MW1051
0066036553999991955011919004+51933-001250SAO  +0138EGUA V0200701N002112200019N0064001N9-00421-00531101081ADDGA1001+999999999GF100991999999999999999999MA1999999099261MW1051
0066036553999991955011920004+51933-001250SAO  +0138EGUA V0200901N002112200019N0064001N9-00421-00531101081ADDGA1001+999999999GF100991999999999999999999MA1999999099261MW1051
0066036553999991955011921004+51933-001250SAO  +0138EGUA V0200901N002112200019N0048001N9-00421-00531101081ADDGA1001+999999999GF100991999999999999999999MA1999999099261MW1051
0066036553999991955011922004+51933-001250SAO  +0138EGUA V0200901N002112200019N0048001N9-00481-00651101081ADDGA1001+999999999GF100991999999999999999999MA1999999099291MW1051
0066036553999991955011923004+51933-001250SAO  +0138EGUA V0200901N003112200019N0048001N9-00531-00591101081ADDGA1001+999999999GF100991999999999999999999MA1999999099291MW1051
0066036553999991955012000004+51933-001250SAO  +0138EGUA V0200701N004612200019N0036001N9-00591-00651101221ADDGA1001+999999999GF100991999999999999999999MA1999999099421MW1051
0066036553999991955012001004+51933-001250SAO  +0138EGUA V0200901N003612200019N0032001N9-00591-00701101221ADDGA1011+999999999GF102991999999999999999999MA1999999099421MW1111
0066036553999991955012002004+51933-001250SAO  +0138EGUA V0200901N002612200019N0022001N9-00651-00761101221ADDGA1021+999999999GF102991999999999999999999MA1999999099421MW1111
0066036553999991955012003004+51933-001250SAO  +0138EGUA V0200901N002612200019N0010001N9-00651-00701101221ADDGA1031+999999999GF102991999999999999999999MA1999999099421MW1111
0066036553999991955012004004+51933-001250SAO  +0138EGUA V0200901N003112200019N0005001N9-00651-00761101221ADDGA1051+999999999GF107991999999999999999999MA1999999099421MW1451
0066036553999991955012005004+51933-001250SAO  +0138EGUA V0200901N004112200019N0005001N9-00701-00871101251ADDGA1051+999999999GF107991999999999999999999MA1999999099421MW1451
0066036553999991955012006004+51933-001250SAO  +0138EGUA V0200901N003612200019N0005001N9-00591-00761101251ADDGA1051+999999999GF107991999999999999999999MA1999999099421MW1451
0082036553999991955012007004+51933-001250SAO  +0138EGUA V0200901N003610750019N0012001N9-00531-00651101251ADDGA1031+999999999GA2031+075009009GF107991999999999999999999MA1999999099421MW1111
0082036553999991955012008004+51933-001250SAO  +0138EGUA V0200901N005110750019N0016001N9-00421-00591101251ADDGA1021+999999999GA2041+075009009GF107991999999999999999999MA1999999099421MW1111
0098036553999991955012009004+51933-001250SAO  +0138EGUA V0200901N004610750019N0018001N9-00311-00481101221ADDGA1021+999999999GA2021+030009039GA3061+075009009GF108991999999999999999999MA1999999099421MW1111
0104036553999991955012010004+51933-001250SAO  +0138EGUA V0201101N004610750019N0036001N9-00151-00371101251ADDGA1021+999999999GA2021+030009039GA3061+075009009GF108991999999999999999999MA1999999099461MW1051MW2111
0082036553999991955012011004+51933-001250SAO  +0138EGUA V0201401N005110750019N0036001N9+00081-00091101251ADDGA1021+030009039GA2061+075009009GF108991999999999999999999MA1999999099461MW1051
0136036553999991955012012004+51933-001250SAO  +0138EGUA V0201401N003110750019N0036001N9+00191-00201101251ADDAA124999929AJ100059199999999GA1021+030009039GA2061+075009009GF108991999999999999999999KA1999M+00191KA2999N-00701MA1999999099461MW1051
0082036553999991955012013004+51933-001250SAO  +0138EGUA V0201601N004110750019N0036001N9+00191-00201101251ADDGA1021+030009039GA2061+075009009GF108991999999999999999999MA1999999099461MW1051
0098036553999991955012014004+51933-001250SAO  +0138EGUA V0201401N003610300019N0012001N9+00191-00201101221ADDGA1091+999999999GA2051+030009039GA3021+075009009GF108991999999999999999999MA1999999099421MW1051
0082036553999991955012015004+51933-001250SAO  +0138EGUA V0201401N003110300019N0012001N9+00191-00201101221ADDGA1091+999999999GA2051+030009039GF108991999999999999999999MA1999999099421MW1051
0098036553999991955012016004+51933-001250SAO  +0138EGUA V0201401N004110300019N0012001N9+00131-00151101221ADDGA1091+999999999GA2051+030009039GA3011+075009009GF108991999999999999999999MA1999999099421MW1051
0098036553999991955012017004+51933-001250SAO  +0138EGUA V0201401N003610120019N0012001N9+00131-00151101221ADDGA1091+999999999GA2051+012009059GA3011+030009039GF108991999999999999999999MA1999999099421MW1051
0082036553999991955012018004+51933-001250SAO  +0138EGUA V0201401N004610120019N0012001N9+00131-00151101151ADDGA1091+999999999GA2051+012009059GF107991999999999999999999MA1999999099361MW1051
0082036553999991955012019004+51933-001250SAO  +0138EGUA V0201401N003110120019N0018001N9+00191-00151101151ADDGA1091+999999999GA2061+012009059GF108991999999999999999999MA1999999099361MW1051
0088036553999991955012020004+51933-001250SAO  +0138EGUA V0201601N004110057019N0018001N9+00191-00151101151ADDGA1091+999999999GA2091+005709059GF108991999999999999999999MA1999999099361MW1051MW2511
0088036553999991955012021004+51933-001250SAO  +0138EGUA V0201401N002610051019N0018001N9+00131-00041101151ADDGA1091+999999999GA2091+005109059GF108991999999999999999999MA1999999099361MW1051MW2511
0072036553999991955012022004+51933-001250SAO  +0138EGUA V0201401N002610024019N0012001N9+00131+00021101191ADDGA1091+002409999GF109991999999999999999999MA1999999099391MW1451MW2511
0072036553999991955012023004+51933-001250SAO  +0138EGUA V0201401N003610018019N0010001N9+00131+00081101191ADDGA1091+001809999GF109991999999999999999999MA1999999099391MW1451MW2511
0066036553999991955012100004+51933-001250SAO  +0138EGUA V0201601N002110009019N0006001N9+00131+00081101121ADDGA1091+000909999GF109991999999999999999999MA1999999099321MW1451
0066036553999991955012101004+51933-001250SAO  +0138EGUA V0201601N003110003019N0006001N9+00191+00131101151ADDGA1091+000309999GF109991999999999999999999MA1999999099391MW1451
0066036553999991955012102004+51933-001250SAO  +0138EGUA V0201601N002110001519N0001001N9+00191+00191101151ADDGA1091+000159999GF109991999999999999999999MA1999999099391MW1451
0066036553999991955012103004+51933-001250SAO  +0138EGUA V0201601N002110001519N0000001N9+00191+00191101121ADDGA1091+000159999GF109991999999999999999999MA1999999099361MW1451
0066036553999991955012104004+51933-001250SAO  +0138EGUA V0201601N002610001519N0000001N9+00191+00191101121ADDGA1091+000159999GF109991999999999999999999MA1999999099321MW1451
0066036553999991955012105004+51933-001250SAO  +0138EGUA V0201601N003110001519N0000001N9+00241+00241101021ADDGA1091+000159999GF109991999999999999999999MA1999999099261MW1451
0066036553999991955012106004+51933-001250SAO  +0138EGUA V0201601N003610001519N0000001N9+00301+00301100811ADDGA1091+000159999GF109991999999999999999999MA1999999099091MW1451
0066036553999991955012107004+51933-001250SAO  +0138EGUA V0201401N003110001519N0000001N9+00241+00241100811ADDGA1091+000159999GF109991999999999999999999MA1999999099091MW1451
0072036553999991955012108004+51933-001250SAO  +0138EGUA V0201401N004110001519N0000001N9+00301+00301100741ADDGA1091+000159999GF109991999999999999999999MA1999999099021MW1451MW2511
0078036553999991955012109004+51933-001250SAO  +0138EGUA V0201401N004610001519N0000001N9+00351+00301100671ADDGA1091+000159999GF109991999999999999999999MA1999999098951MW1451MW2511MW3611
0078036553999991955012110004+51933-001250SAO  +0138EGUA V0201601N005110003019N0006001N9+00521+00521100571ADDGA1091+000309999GF109991999999999999999999MA1999999098851MW1451MW2511MW3611
0072036553999991955012111004+51933-001250SAO  +0138EGUA V0201601N007210006019N0010001N9+00631+00631100501ADDGA1091+000609999GF109991999999999999999999MA1999999098781MW1451MW2511
0131036553999991955012112004+51933-001250SAO  +0138EGUA V0201801N004110006019N0010001N9+00631+00631100271ADDAA124004091GA1051+999999999GA2081+000609079GF108991999999999999999999KA1999M+00741KA2999N+00131MA1999999098581MW1451MW2511MW3611
0066036553999991955012113004+51933-001250SAO  +0138EGUA V0201601N004110003019N0001001N9+00631+00631100271ADDGA1091+000309999GF109991999999999999999999MA1999999098581MW1451
0072036553999991955012114004+51933-001250SAO  +0138EGUA V0201801N003610003019N0001001N9+00691+00631100271ADDGA1091+000309999GF109991999999999999999999MA1999999098541MW1451MW2511
0072036553999991955012115004+51933-001250SAO  +0138EGUA V0201801N002610003019N0000001N9+00691+00691100231ADDGA1091+000309999GF109991999999999999999999MA1999999098511MW1451MW2511
0072036553999991955012116004+51933-001250SAO  +0138EGUA V0201801N003110003019N0001001N9+00691+00691100131ADDGA1091+000309999GF109991999999999999999999MA1999999098411MW1451MW2511
0066036553999991955012117004+51933-001250SAO  +0138EGUA V0201801N004610001519N0000001N9+00691+00691100101ADDGA1091+000159999GF109991999999999999999999MA1999999098371MW1451
0066036553999991955012118004+51933-001250SAO  +0138EGUA V0201801N004110001519N0000001N9+00741+00631100001ADDGA1091+000159999GF109991999999999999999999MA1999999098271MW1451
0066036553999991955012119004+51933-001250SAO  +0138EGUA V0201801N002610001519N0000001N9+00741+00691099961ADDGA1091+000159999GF109991999999999999999999MA1999999098241MW1451
0066036553999991955012120004+51933-001250SAO  +0138EGUA V0201801N002110001519N0000001N9+00741+00691099921ADDGA1091+000159999GF109991999999999999999999MA1999999098211MW1451
0066036553999991955012121004+51933-001250SAO  +0138EGUA V0209991C000010001519N0000001N9+00691+00631099921ADDGA1091+000159999GF109991999999999999999999MA1999999098211MW1451
0072036553999991955012122004+51933-001250SAO  +0138EGUA V0209991C000010001519N0000001N9+00581+00521099891ADDGA1091+000159999GF109991999999999999999999MA1999999098171MW1451MW2511
0072036553999991955012123004+51933-001250SAO  +0138EGUA V0209991C000010001519N0001001N9+00631+00581099891ADDGA1091+000159999GF109991999999999999999999MA1999999098171MW1451MW2511
0072036553999991955012200004+51933-001250SAO  +0138EGUA V0209991C000010001519N0001001N9+00631+00581099851ADDGA1091+000159999GF109991999999999999999999MA1999999098141MW1451MW2511
0066036553999991955012201004+51933-001250SAO  +0138EGUA V0209991C000010001519N0001001N9+00631+00581099821ADDGA1091+000159999GF109991999999999999999999MA1999999098101MW1451
0066036553999991955012202004+51933-001250SAO  +0138EGUA V0209991C000010001519N0001001N9+00581+00521099791ADDGA1091+000159999GF109991999999999999999999MA1999999098071MW1451
0066036553999991955012203004+51933-001250SAO  +0138EGUA V0209991C000010001519N0001001N9+00521+00521099791ADDGA1091+000159999GF109991999999999999999999MA1999999098071MW1451
0066036553999991955012204004+51933-001250SAO  +0138EGUA V0209991C000010001519N0001001N9+00521+00521099791ADDGA1091+000159999GF109991999999999999999999MA1999999098071MW1451
0066036553999991955012205004+51933-001250SAO  +0138EGUA V0203601N003110001519N0001001N9+00521+00521099791ADDGA1091+000159999GF109991999999999999999999MA1999999098071MW1451
0066036553999991955012206004+51933-001250SAO  +0138EGUA V0203601N003110003019N0001001N9+00461+00461099851ADDGA1091+000309999GF109991999999999999999999MA1999999098171MW1451
0066036553999991955012207004+51933-001250SAO  +0138EGUA V0203601N002610003019N0001001N9+00461+00461099891ADDGA1091+000309999GF109991999999999999999999MA1999999098171MW1451
0072036553999991955012208004+51933-001250SAO  +0138EGUA V0203601N004610003019N0001001N9+00521+00521099961ADDGA1091+000309999GF109991999999999999999999MA1999999098241MW1451MW2511
0088036553999991955012209004+51933-001250SAO  +0138EGUA V0203601N005110033019N0005001N9+00581+00581100031ADDGA1061+999999999GA2021+003309079GF108991999999999999999999MA1999999098311MW1451MW2511
0088036553999991955012210004+51933-001250SAO  +0138EGUA V0200501N004610063019N0016001N9+00631+00631100131ADDGA1021+999999999GA2081+006309079GF108991999999999999999999MA1999999098411MW1111MW2511
0110036553999991955012211004+51933-001250SAO  +0138EGUA V0200501N004110063019N0018001N9+00461+00461100191ADDGA1021+999999999GA2021+000909079GA3081+006309079GF108991999999999999999999MA1999999098481MW1111MW2511MW3611
0103036553999991955012212004+51933-001250SAO  +0138EGUA V0200201N004610069019N0040001N9+00801+00461100301ADDAA124002091GA1081+006909079GF108991999999999999999999KA1999M+00801KA2999N+00461MA1999999098581MW1051
0082036553999991955012213004+51933-001250SAO  +0138EGUA V0200201N005110066019N0005001N9+00741+00741100401ADDGA1061+999999999GA2081+006609059GF108991999999999999999999MA1999999098681MW1451
0066036553999991955012214004+51933-001250SAO  +0138EGUA V0200201N005110006019N0001001N9+00741+00741100461ADDGA1091+000609999GF109991999999999999999999MA1999999098751MW1451
0082036553999991955012215004+51933-001250SAO  +0138EGUA V0200201N007210060019N0018001N9+00801+00741100531ADDGA1051+999999999GA2081+006009059GF108991999999999999999999MA1999999098811MW1451
0082036553999991955012216004+51933-001250SAO  +0138EGUA V0200201N007710060019N0010001N9+00691+00631100701ADDGA1061+999999999GA2081+006009059GF108991999999999999999999MA1999999098981MW1451
0082036553999991955012217004+51933-001250SAO  +0138EGUA V0200201N008210015019N0006001N9+00581+00581100841ADDGA1061+999999999GA2081+001509079GF108991999999999999999999MA1999999099121MW1451
0082036553999991955012218004+51933-001250SAO  +0138EGUA V0200201N009810015019N0018001N9+00581+00461100971ADDGA1051+999999999GA2081+001509079GF108991999999999999999999MA1999999099261MW1451
0066036553999991955012219004+51933-001250SAO  +0138EGUA V0200201N008210003019N0008001N9+00521+00461101141ADDGA1091+000309999GF109991999999999999999999MA1999999099361MW1451
0066036553999991955012220004+51933-001250SAO  +0138EGUA V0200201N009310003019N0008001N9+00521+00461101241ADDGA1091+000309999GF109991999999999999999999MA1999999099461MW1451
0082036553999991955012221004+51933-001250SAO  +0138EGUA V0200201N008710012019N0018001N9+00521+00461101381ADDGA1051+999999999GA2081+001209079GF108991999999999999999999MA1999999099591MW1451
0066036553999991955012222004+51933-001250SAO  +0138EGUA V0200201N010310015019N0036001N9+00581+00411101511ADDGA1081+001509079GF108991999999999999999999MA1999999099731MW1111
0066036553999991955012223004+51933-001250SAO  +0138EGUA V0200201N008210018019N0064001N9+00581+00461101651ADDGA1081+001809079GF108991999999999999999999MA1999999099861MW1051
0066036553999991955012300004+51933-001250SAO  +0138EGUA V0200201N008710012019N0048001N9+00581+00411101721ADDGA1081+001209079GF108991999999999999999999MA1999999099861MW1051
0066036553999991955012301004+51933-001250SAO  +0138EGUA V0200201N007710012019N0048001N9+00521+00411101821ADDGA1081+001209079GF108991999999999999999999MA1999999100071MW1051
0066036553999991955012302004+51933-001250SAO  +0138EGUA V0200201N009810012019N0048001N9+00521+00461101891ADDGA1081+001209079GF108991999999999999999999MA1999999100141MW1051
0066036553999991955012303004+51933-001250SAO  +0138EGUA V0200201N008210012019N0048001N9+00521+00461101951ADDGA1081+001209079GF108991999999999999999999MA1999999100201MW1051
0066036553999991955012304004+51933-001250SAO  +0138EGUA V0200201N008210012019N0048001N9+00461+00461102021ADDGA1081+001209079GF108991999999999999999999MA1999999100271MW1051
0082036553999991955012305004+51933-001250SAO  +0138EGUA V0200201N008710009019N0026001N9+00521+00461102091ADDGA1041+999999999GA2081+000909079GF108991999999999999999999MA1999999100341MW1451
0088036553999991955012306004+51933-001250SAO  +0138EGUA V0200201N006210009019N0026001N9+00521+00461102161ADDGA1041+999999999GA2081+000909079GF108991999999999999999999MA1999999100411MW1451MW2511
0088036553999991955012307004+51933-001250SAO  +0138EGUA V0200201N006210009019N0026001N9+00461+00461102231ADDGA1041+999999999GA2081+000909079GF108991999999999999999999MA1999999100471MW1451MW2511
0082036553999991955012308004+51933-001250SAO  +0138EGUA V0200201N005110009019N0018001N9+00461+00411102331ADDGA1041+999999999GA2081+000909079GF108991999999999999999999MA1999999100581MW1451
0082036553999991955012309004+51933-001250SAO  +0138EGUA V0200201N006210009019N0012001N9+00461+00411102431ADDGA1041+999999999GA2081+000909079GF108991999999999999999999MA1999999100681MW1451
0082036553999991955012310004+51933-001250SAO  +0138EGUA V0200201N007210009019N0012001N9+00461+00411102531ADDGA1041+999999999GA2081+000909079GF108991999999999999999999MA1999999100781MW1451
0066036553999991955012311004+51933-001250SAO  +0138EGUA V0200201N005710009019N0010001N9+00461+00461102601ADDGA1091+000909999GF109991999999999999999999MA1999999100851MW1451
0119036553999991955012312004+51933-001250SAO  +0138EGUA V0200201N004610012019N0024001N9+00521+00461102671ADDAA124999929GA1031+999999999GA2081+001209079GF108991999999999999999999KA1999M+00521KA2999N+00351MA1999999100951MW1451
0082036553999991955012313004+51933-001250SAO  +0138EGUA V0200201N005110012019N0018001N9+00521+00461102701ADDGA1031+999999999GA2081+001209079GF108991999999999999999999MA1999999100951MW1451
0082036553999991955012314004+51933-001250SAO  +0138EGUA V0200201N005110009019N0024001N9+00521+00461102701ADDGA1031+999999999GA2081+000909079GF108991999999999999999999MA1999999100951MW1451
0082036553999991955012315004+51933-001250SAO  +0138EGUA V0200201N003610012019N0028001N9+00521+00461102701ADDGA1021+999999999GA2081+001209079GF108991999999999999999999MA1999999100951MW1451
0082036553999991955012316004+51933-001250SAO  +0138EGUA V0200201N002110012019N0028001N9+00521+00461102701ADDGA1021+999999999GA2081+001209079GF108991999999999999999999MA1999999100951MW1451
0082036553999991955012317004+51933-001250SAO  +0138EGUA V0203601N002610012019N0022001N9+00521+00461102731ADDGA1021+999999999GA2081+001209079GF108991999999999999999999MA1999999100981MW1451
0082036553999991955012318004+51933-001250SAO  +0138EGUA V0200701N001510012019N0020001N9+00461+00461102731ADDGA1021+999999999GA2081+001209079GF108991999999999999999999MA1999999100981MW1451
0066036553999991955012319004+51933-001250SAO  +0138EGUA V0200701N002110006019N0005001N9+00461+00461102771ADDGA1091+000609999GF109991999999999999999999MA1999999101021MW1451
0066036553999991955012320004+51933-001250SAO  +0138EGUA V0200901N001510003019N0001001N9+00411+00411102801ADDGA1091+000309999GF109991999999999999999999MA1999999101051MW1451
0066036553999991955012321004+51933-001250SAO  +0138EGUA V0209991C000010003019N0003001N9+00411+00411102801ADDGA1091+000309999GF109991999999999999999999MA1999999101051MW1451
