0082036553999991957010100004+51933-001250SAO  +0138EGUA V0201401N004110009019N0026001N9+00581+00461100571ADDGA1041+999999999GA2081+000909079GF108991999999999999999999MA1999999098881MW1451
0066036553999991957010101004+51933-001250SAO  +0138EGUA V0201101N002610015019N0036001N9+00581+00521100601ADDGA1081+001509079GF108991999999999999999999MA1999999098881MW1051
0088036553999991957010102004+51933-001250SAO  +0138EGUA V0200901N003110009019N0018001N9+00521+00461100601ADDGA1021+999999999GA2081+000909079GF108991999999999999999999MA1999999098881MW1451MW2611
0082036553999991957010103004+51933-001250SAO  +0138EGUA V0200901N002110009019N0018001N9+00521+00461100601ADDGA1021+999999999GA2081+000909079GF108991999999999999999999MA1999999098881MW1451
0082036553999991957010104004+51933-001250SAO  +0138EGUA V0209991C000010009019N0018001N9+00521+00461100571ADDGA1021+999999999GA2081+000909079GF108991999999999999999999MA1999999098851MW1451
0066036553999991957010105004+51933-001250SAO  +0138EGUA V0200901N002110006019N0012001N9+00521+00461100571ADDGA1091+000609999GF109991999999999999999999MA1999999098851MW1451
0082036553999991957010106004+51933-001250SAO  +0138EGUA V0209991C000010015019N0012001N9+00521+00461100461ADDGA1051+999999999GA2081+001509079GF108991999999999999999999MA1999999098781MW1451
0082036553999991957010107004+51933-001250SAO  +0138EGUA V0209991C000010015019N0008001N9+00521+00461100501ADDGA1061+999999999GA2081+001509079GF108991999999999999999999MA1999999098781MW1451
0082036553999991957010108004+51933-001250SAO  +0138EGUA V0209991C000010009019N0005001N9+00521+00461100501ADDGA1051+999999999GA2081+000909079GF108991999999999999999999MA1999999098781MW1451
0082036553999991957010109004+51933-001250SAO  +0138EGUA V0201401N002110009019N0012001N9+00521+00461100501ADDGA1051+999999999GA2081+000909079GF108991999999999999999999MA1999999098781MW1451
0082036553999991957010110004+51933-001250SAO  +0138EGUA V0201801N002110012019N0016001N9+00581+00521100501ADDGA1051+999999999GA2081+001209079GF108991999999999999999999MA1999999098781MW1451
0088036553999991957010111004+51933-001250SAO  +0138EGUA V0201401N002610012019N0016001N9+00521+00461100501ADDGA1051+999999999GA2081+001209079GF108991999999999999999999MA1999999098781MW1451MW2511
0135036553999991957010112004+51933-001250SAO  +0138EGUA V0201801N002610012019N0022001N9+00521+00461100531ADDAA124003091GA1041+999999999GA2061+001209079GA3081+006009059GF108991999999999999999999KA1999M+00581KA2999N+00021MA1999999098811MW1451
0082036553999991957010113004+51933-001250SAO  +0138EGUA V0202901N002110012019N0036001N9+00581+00461100531ADDGA1061+001209079GA2061+006009059GF108991999999999999999999MA1999999098811MW1111
0098036553999991957010114004+51933-001250SAO  +0138EGUA V0202901N001510120019N0048001N9+00581+00461100531ADDGA1021+001809079GA2021+006009059GA3061+012009059GF107991999999999999999999MA1999999098811MW1051
0098036553999991957010115004+51933-001250SAO  +0138EGUA V0202901N002110048019N0096001N9+00581+00411100531ADDGA1041+001809079GA2061+004809059GA3051+012009059GF108991999999999999999999MA1999999098811MW1051
0114036553999991957010116004+51933-001250SAO  +0138EGUA V0202501N002610048019N0080001N9+00581+00461100531ADDGA1021+001809079GA2041+004809059GA3031+012009059GA4021+030009039GF107991999999999999999999MA1999999098811MW1051
0082036553999991957010117004+51933-001250SAO  +0138EGUA V0202301N004110120019N0080001N9+00411+00191100531ADDGA1021+005109059GA2061+012009059GF107991999999999999999999MA1999999098811MW1051
0066036553999991957010118004+51933-001250SAO  +0138EGUA V0202301N003110012019N0048001N9+00411+00191100531ADDGA1081+001209079GF108991999999999999999999MA1999999098811MW1051
0066036553999991957010119004+51933-001250SAO  +0138EGUA V0202701N004610012019N0026001N9+00301+00241100571ADDGA1081+001209079GF108991999999999999999999MA1999999098851MW1051
0066036553999991957010120004+51933-001250SAO  +0138EGUA V0202701N003610006019N0003001N9+00301+00241100571ADDGA1091+000609999GF109991999999999999999999MA1999999098851MW1451
0066036553999991957010121004+51933-001250SAO  +0138EGUA V0202301N002110006019N0003001N9+00131+00131100601ADDGA1091+000609999GF109991999999999999999999MA1999999098881MW1451
0066036553999991957010122004+51933-001250SAO  +0138EGUA V0209991C000010006019N0003001N9+00131+00081100601ADDGA1091+000609999GF109991999999999999999999MA1999999098881MW1451
0066036553999991957010123004+51933-001250SAO  +0138EGUA V0201801N003610003019N0001001N9+00021+00021100601ADDGA1091+000309999GF109991999999999999999999MA1999999098881MW1451
0066036553999991957010200004+51933-001250SAO  +0138EGUA V0209991C000010003019N0001001N9+00021+00021100501ADDGA1091+000309999GF109991999999999999999999MA1999999098811MW1451
0066036553999991957010201004+51933-001250SAO  +0138EGUA V0209991C000010003019N0001001N9-00041-00091100541ADDGA1091+000309999GF109991999999999999999999MA1999999098811MW1451
0066036553999991957010202004+51933-001250SAO  +0138EGUA V0209991C000010003019N0001001N9-00041-00041100501ADDGA1091+000309999GF109991999999999999999999MA1999999098781MW1451
0066036553999991957010203004+51933-001250SAO  +0138EGUA V0201801N002610003019N0001001N9-00091-00151100511ADDGA1091+000309999GF109991999999999999999999MA1999999098781MW1451
0066036553999991957010204004+51933-001250SAO  +0138EGUA V0201801N003110003019N0001001N9-00091-00151100471ADDGA1091+000309999GF109991999999999999999999MA1999999098751MW1451
0066036553999991957010205004+51933-001250SAO  +0138EGUA V0201801N003110003019N0003001N9-00091-00091100471ADDGA1091+000309999GF109991999999999999999999MA1999999098711MW1451
0066036553999991957010206004+51933-001250SAO  +0138EGUA V0201801N002610009019N0012001N9-00041-00041100411ADDGA1091+000909999GF109991999999999999999999MA1999999098681MW1451
0066036553999991957010207004+51933-001250SAO  +0138EGUA V0201801N004110006019N0003001N9+00021+00021100441ADDGA1091+000609999GF109991999999999999999999MA1999999098681MW1451
0066036553999991957010208004+51933-001250SAO  +0138EGUA V0201101N002610006019N0003001N9+00081-00041100471ADDGA1091+000609999GF109991999999999999999999MA1999999098711MW1451
0082036553999991957010209004+51933-001250SAO  +0138EGUA V0201601N002610012019N0012001N9+00191+00131100471ADDGA1031+999999999GA2081+001209079GF108991999999999999999999MA1999999098711MW1451
0082036553999991957010210004+51933-001250SAO  +0138EGUA V0201401N004110012019N0012001N9+00301+00241100471ADDGA1031+999999999GA2081+001209079GF108991999999999999999999MA1999999098751MW1111
0088036553999991957010211004+51933-001250SAO  +0138EGUA V0201801N002110012019N0012001N9+00351+00351100501ADDGA1031+999999999GA2081+001209079GF108991999999999999999999MA1999999098781MW1111MW2611
0135036553999991957010212004+51933-001250SAO  +0138EGUA V0202001N003610015019N0022001N9+00521+00461100531ADDAA124001091GA1021+999999999GA2061+001509079GA3081+006009059GF108991999999999999999999KA1999M+00631KA2999N-00091MA1999999098811MW1451
0104036553999991957010213004+51933-001250SAO  +0138EGUA V0201801N002610015019N0018001N9+00581+00521100531ADDGA1021+999999999GA2061+001509079GA3081+009009059GF108991999999999999999999MA1999999098811MW1451MW2611
0082036553999991957010214004+51933-001250SAO  +0138EGUA V0201801N004110015019N0036001N9+00581+00581100531ADDGA1071+001509079GA2081+009009059GF108991999999999999999999MA1999999098811MW1051
0066036553999991957010215004+51933-001250SAO  +0138EGUA V0201801N005710015019N0036001N9+00631+00581100531ADDGA1081+001509079GF108991999999999999999999MA1999999098811MW1051
0066036553999991957010216004+51933-001250SAO  +0138EGUA V0201801N003610015019N0026001N9+00631+00581100531ADDGA1081+001509079GF108991999999999999999999MA1999999098811MW1051
0066036553999991957010217004+51933-001250SAO  +0138EGUA V0201801N003110012019N0016001N9+00631+00581100571ADDGA1081+001209079GF108991999999999999999999MA1999999098851MW1051
0066036553999991957010218004+51933-001250SAO  +0138EGUA V0201801N004610012019N0026001N9+00581+00521100631ADDGA1081+001209079GF108991999999999999999999MA1999999098921MW1051
0066036553999991957010219004+51933-001250SAO  +0138EGUA V0202301N002610012019N0026001N9+00581+00521100631ADDGA1081+001209079GF108991999999999999999999MA1999999098921MW1051
0066036553999991957010220004+51933-001250SAO  +0138EGUA V0202301N003110015019N0026001N9+00631+00521100671ADDGA1081+001509079GF108991999999999999999999MA1999999098951MW1051
0066036553999991957010221004+51933-001250SAO  +0138EGUA V0202301N003112200019N0064001N9+00581+00521100741ADDGA1031+002109079GF102991999999999999999999MA1999999099021MW1051
0082036553999991957010222004+51933-001250SAO  +0138EGUA V0201801N002110240019N0064001N9+00521+00461100771ADDGA1021+002109079GA2051+024009039GF107991999999999999999999MA1999999099051MW1051
0066036553999991957010223004+51933-001250SAO  +0138EGUA V0202301N005110012019N0048001N9+00521+00461100801ADDGA1081+001209079GF108991999999999999999999MA1999999099091MW1051
0082036553999991957010300004+51933-001250SAO  +0138EGUA V0202301N005110240019N0064001N9+00521+00461100801ADDGA1021+001209079GA2061+024009039GF107991999999999999999999MA1999999099091MW1051
0082036553999991957010301004+51933-001250SAO  +0138EGUA V0202001N006210240019N0080001N9+00521+00411100801ADDGA1031+001809079GA2061+024009039GF107991999999999999999999MA1999999099051MW1051
0082036553999991957010302004+51933-001250SAO  +0138EGUA V0202001N005710240019N0080001N9+00631+00461100771ADDGA1041+003309079GA2061+024009039GF107991999999999999999999MA1999999099021MW1051
0082036553999991957010303004+51933-001250SAO  +0138EGUA V0202001N006710240019N0080001N9+00691+00521100771ADDGA1041+003609079GA2061+024009039GF107991999999999999999999MA1999999099021MW1051
0088036553999991957010304004+51933-001250SAO  +0138EGUA V0202001N007210036019N0080001N9+00741+00631100741ADDGA1061+003609079GA2061+024009039GF108991999999999999999999MA1999999098981MW1051MW2611
0082036553999991957010305004+51933-001250SAO  +0138EGUA V0202301N006210036019N0080001N9+00851+00691100631ADDGA1031+001509079GA2081+003609079GF108991999999999999999999MA1999999098951MW1051
0066036553999991957010306004+51933-001250SAO  +0138EGUA V0202501N005712200019N0096001N9+00741+00521100771ADDGA1021+004509079GF102991999999999999999999MA1999999099021MW1051
0066036553999991957010307004+51933-001250SAO  +0138EGUA V0202501N004112200019N0096001N9+00691+00461100841ADDGA1011+012009059GF102991999999999999999999MA1999999099051MW1051
0098036553999991957010308004+51933-001250SAO  +0138EGUA V0202701N006712200019N0096001N9+00631+00411100901ADDGA1021+005109079GA2021+012009059GA3011+024009039GF102991999999999999999999MA1999999099151MW1051
0098036553999991957010309004+51933-001250SAO  +0138EGUA V0202701N007212200019N0144001N9+00581+00461100971ADDGA1011+012009059GA2011+024009049GA3011+220009009GF102991999999999999999999MA1999999099221MW1001
0066036553999991957010310004+51933-001250SAO  +0138EGUA V0202301N006212200019N0144001N9+00631+00351101041ADDGA1021+220009009GF102991999999999999999999MA1999999099291MW1001
0066036553999991957010311004+51933-001250SAO  +0138EGUA V0202701N008212200019N0144001N9+00741+00301101181ADDGA1011+220009009GF102991999999999999999999MA1999999099421MW1001
0103036553999991957010312004+51933-001250SAO  +0138EGUA V0202501N007712200019N0144001N9+00851+00461101281ADDAA124999929GA1021+220009009GF102991999999999999999999KA1999M+00961KA2999N+00521MA1999999099531MW1001
0082036553999991957010313004+51933-001250SAO  +0138EGUA V0202701N006712200019N0144001N9+00961+00411101281ADDGA1011+010509059GA2021+220009009GF102991999999999999999999MA1999999099561MW1001
0098036553999991957010314004+51933-001250SAO  +0138EGUA V0202701N006212200019N0144001N9+00911+00581101281ADDGA1011+010509059GA2021+024009039GA3061+220009009GF107991999999999999999999MA1999999099561MW1001
0098036553999991957010315004+51933-001250SAO  +0138EGUA V0202701N007712200019N0144001N9+00801+00581101311ADDGA1011+010509059GA2021+024009039GA3051+220009009GF107991999999999999999999MA1999999099591MW1001
0082036553999991957010316004+51933-001250SAO  +0138EGUA V0202301N004610240019N0144001N9+00691+00521101381ADDGA1051+024009039GA2051+220009009GF107991999999999999999999MA1999999099631MW1001
0082036553999991957010317004+51933-001250SAO  +0138EGUA V0201801N004110300019N0080001N9+00631+00581101411ADDGA1061+030009039GA2051+081009009GF107991999999999999999999MA1999999099701MW1051
0066036553999991957010318004+51933-001250SAO  +0138EGUA V0202001N004110270019N0048001N9+00691+00581101481ADDGA1061+027009039GF107991999999999999999999MA1999999099731MW1051
0088036553999991957010319004+51933-001250SAO  +0138EGUA V0202001N006210105019N0064001N9+00741+00581101511ADDGA1061+010509059GA2061+027009039GF107991999999999999999999MA1999999099761MW1051MW2611
0098036553999991957010320004+51933-001250SAO  +0138EGUA V0202001N004610048019N0064001N9+00691+00581101551ADDGA1051+004809059GA2061+010509059GA3061+027009039GF108991999999999999999999MA1999999099801MW1051
0082036553999991957010321004+51933-001250SAO  +0138EGUA V0202001N006710024019N0064001N9+00741+00581101551ADDGA1061+002409079GA2061+004809059GF108991999999999999999999MA1999999099801MW1051
0088036553999991957010322004+51933-001250SAO  +0138EGUA V0202001N005710018019N0064001N9+00801+00691101481ADDGA1071+001809079GA2061+004809059GF108991999999999999999999MA1999999099731MW1051MW2511
0066036553999991957010323004+51933-001250SAO  +0138EGUA V0202001N006710015019N0064001N9+00851+00801101311ADDGA1081+001509079GF108991999999999999999999MA1999999099591MW1051
0066036553999991957010400004+51933-001250SAO  +0138EGUA V0202301N008210018019N0096001N9+00961+00851101341ADDGA1081+001809079GF108991999999999999999999MA1999999099631MW1051
0066036553999991957010401004+51933-001250SAO  +0138EGUA V0202301N006210018019N0080001N9+01021+00851101341ADDGA1081+001809079GF108991999999999999999999MA1999999099631MW1051
0066036553999991957010402004+51933-001250SAO  +0138EGUA V0202301N006710018019N0080001N9+01131+01021101311ADDGA1081+001809079GF108991999999999999999999MA1999999099591MW1051
0072036553999991957010403004+51933-001250SAO  +0138EGUA V0202301N007210018019N0036001N9+01071+01021101311ADDGA1081+001809079GF108991999999999999999999MA1999999099591MW1051MW2611
0072036553999991957010404004+51933-001250SAO  +0138EGUA V0202301N006210018019N0064001N9+01071+01021101341ADDGA1081+001809079GF108991999999999999999999MA1999999099631MW1051MW2611
0066036553999991957010405004+51933-001250SAO  +0138EGUA V0202301N007710018019N0096001N9+01071+00961101341ADDGA1081+001809079GF108991999999999999999999MA1999999099631MW1051
0066036553999991957010406004+51933-001250SAO  +0138EGUA V0202301N006710021019N0096001N9+01071+00961101311ADDGA1081+002109079GF108991999999999999999999MA1999999099591MW1051
0066036553999991957010407004+51933-001250SAO  +0138EGUA V0202301N007210018019N0096001N9+01071+00911101381ADDGA1081+001809079GF108991999999999999999999MA1999999099661MW1051
0082036553999991957010408004+51933-001250SAO  +0138EGUA V0202301N006210018019N0096001N9+01071+00961101481ADDGA1071+001809079GA2081+006009059GF108991999999999999999999MA1999999099761MW1051
0082036553999991957010409004+51933-001250SAO  +0138EGUA V0202301N007710021019N0200001N9+01131+00961101551ADDGA1061+002109079GA2081+006009059GF108991999999999999999999MA1999999099831MW1001
0082036553999991957010410004+51933-001250SAO  +0138EGUA V0202301N006210021019N0176001N9+01131+01021101621ADDGA1061+002109079GA2081+006009059GF108991999999999999999999MA1999999099901MW1001
0082036553999991957010411004+51933-001250SAO  +0138EGUA V0202301N004610018019N0128001N9+01131+01021101651ADDGA1061+001809079GA2081+006309059GF108991999999999999999999MA1999999099931MW1001
0119036553999991957010412004+51933-001250SAO  +0138EGUA V0202001N007210018019N0128001N9+01131+01021101651ADDAA124000391GA1061+001809079GA2081+004809059GF108991999999999999999999KA1999M+01241KA2999N+00961MA1999999099931MW1001
0082036553999991957010413004+51933-001250SAO  +0138EGUA V0202301N008210018019N0128001N9+01191+01071101621ADDGA1061+001809079GA2081+004509059GF108991999999999999999999MA1999999099901MW1001
0082036553999991957010414004+51933-001250SAO  +0138EGUA V0202001N008210018019N0128001N9+01191+01071101551ADDGA1061+001809079GA2081+004509059GF108991999999999999999999MA1999999099831MW1001
0082036553999991957010415004+51933-001250SAO  +0138EGUA V0202001N008710018019N0176001N9+01191+01071101481ADDGA1061+001809079GA2081+004509059GF108991999999999999999999MA1999999099761MW1001
0066036553999991957010416004+51933-001250SAO  +0138EGUA V0202001N009310018019N0128001N9+01191+01071101451ADDGA1081+001809079GF108991999999999999999999MA1999999099731MW1511
0066036553999991957010417004+51933-001250SAO  +0138EGUA V0202001N008210018019N0096001N9+01241+01131101381ADDGA1081+001809079GF108991999999999999999999MA1999999099661MW1511
0072036553999991957010418004+51933-001250SAO  +0138EGUA V0202301N008710018019N0048001N9+01241+01131101451ADDGA1081+001809079GF108991999999999999999999MA1999999099731MW1051MW2511
0072036553999991957010419004+51933-001250SAO  +0138EGUA V0202301N008210018019N0064001N9+01241+01131101411ADDGA1081+001809079GF108991999999999999999999MA1999999099701MW1051MW2511
0072036553999991957010420004+51933-001250SAO  +0138EGUA V0202301N007710021019N0080001N9+01241+01131101411ADDGA1081+002109079GF108991999999999999999999MA1999999099701MW1051MW2511
0072036553999991957010421004+51933-001250SAO  +0138EGUA V0202301N008210018019N0064001N9+01241+01131101381ADDGA1081+001809079GF108991999999999999999999MA1999999099661MW1051MW2511
0072036553999991957010422004+51933-001250SAO  +0138EGUA V0202301N006210018019N0048001N9+01191+01131101381ADDGA1081+001809079GF108991999999999999999999MA1999999099661MW1051MW2511
0072036553999991957010423004+51933-001250SAO  +0138EGUA V0202301N007710021019N0064001N9+01191+01131101381ADDGA1081+002109079GF108991999999999999999999MA1999999099661MW1051MW2511
0072036553999991957010500004+51933-001250SAO  +0138EGUA V0202301N009310024019N0064001N9+01191+01131101321ADDGA1081+002409079GF108991999999999999999999MA1999999099591MW1051MW2511
0088036553999991957010501004+51933-001250SAO  +0138EGUA V0202301N011310015019N0048001N9+01191+01131101341ADDGA1031+000909079GA2081+001509079GF108991999999999999999999MA1999999099631MW1051MW2511
0088036553999991957010502004+51933-001250SAO  +0138EGUA V0202301N010810006019N0036001N9+01191+01131101341ADDGA1061+000609079GA2081+001509079GF108991999999999999999999MA1999999099631MW1051MW2511
0088036553999991957010503004+51933-001250SAO  +0138EGUA V0202301N009310006019N0036001N9+01191+01131101341ADDGA1061+000609079GA2081+001509079GF108991999999999999999999MA1999999099631MW1051MW2511
0072036553999991957010504004+51933-001250SAO  +0138EGUA V0202301N008710006019N0036001N9+01191+01131101381ADDGA1081+000609079GF108991999999999999999999MA1999999099661MW1051MW2511
0072036553999991957010505004+51933-001250SAO  +0138EGUA V0202301N010310006019N0040001N9+01191+01131101381ADDGA1081+000609079GF108991999999999999999999MA1999999099661MW1051MW2511
0072036553999991957010506004+51933-001250SAO  +0138EGUA V0202301N008710006019N0040001N9+01191+01131101381ADDGA1081+000609079GF108991999999999999999999MA1999999099701MW1051MW2511
0088036553999991957010507004+51933-001250SAO  +0138EGUA V0202301N009310006019N0040001N9+01191+01131101451ADDGA1061+000609079GA2081+001809079GF108991999999999999999999MA1999999099731MW1051MW2511
0088036553999991957010508004+51933-001250SAO  +0138EGUA V0202301N009310009019N0040001N9+01191+01131101481ADDGA1051+000909079GA2081+001809079GF108991999999999999999999MA1999999099761MW1051MW2511
0088036553999991957010509004+51933-001250SAO  +0138EGUA V0202301N007210012019N0018001N9+01191+01131101511ADDGA1061+001209079GA2081+002109079GF108991999999999999999999MA1999999099801MW1051MW2511
0088036553999991957010510004+51933-001250SAO  +0138EGUA V0202301N007210012019N0036001N9+01241+01131101551ADDGA1071+001209079GA2081+003009079GF108991999999999999999999MA1999999099831MW1051MW2511
0082036553999991957010511004+51933-001250SAO  +0138EGUA V0202001N008210012019N0128001N9+01241+01131101551ADDGA1071+001209079GA2081+004509059GF108991999999999999999999MA1999999099831MW1001
0119036553999991957010512004+51933-001250SAO  +0138EGUA V0202301N008210051019N0128001N9+01241+01131101451ADDAA124004091GA1041+001809079GA2081+005109059GF108991999999999999999999KA1999M+01301KA2999N+00961MA1999999099761MW1001
0082036553999991957010513004+51933-001250SAO  +0138EGUA V0202301N009310030019N0176001N9+01301+01131101411ADDGA1061+003009059GA2081+005109059GF108991999999999999999999MA1999999099701MW1001
0072036553999991957010514004+51933-001250SAO  +0138EGUA V0202301N009810024019N0048001N9+01241+01131101381ADDGA1081+002409059GF108991999999999999999999MA1999999099661MW1051MW2511
0072036553999991957010515004+51933-001250SAO  +0138EGUA V0202301N010810024019N0040001N9+01241+01131101311ADDGA1081+002409059GF108991999999999999999999MA1999999099591MW1051MW2511
0088036553999991957010516004+51933-001250SAO  +0138EGUA V0202301N010810018019N0026001N9+01191+01131101311ADDGA1071+001809079GA2081+006009059GF108991999999999999999999MA1999999099591MW1051MW2511
0088036553999991957010517004+51933-001250SAO  +0138EGUA V0202301N011810018019N0026001N9+01241+01131101281ADDGA1061+001809079GA2081+006009059GF108991999999999999999999MA1999999099561MW1051MW2511
0088036553999991957010518004+51933-001250SAO  +0138EGUA V0202301N010810018019N0064001N9+00961+00851101281ADDGA1061+001809079GA2081+006009059GF108991999999999999999999MA1999999099561MW1051MW2611
0088036553999991957010519004+51933-001250SAO  +0138EGUA V0202301N007710018019N0064001N9+01191+01131101281ADDGA1061+001809079GA2081+006009059GF108991999999999999999999MA1999999099561MW1051MW2611
0082036553999991957010520004+51933-001250SAO  +0138EGUA V0202301N008710018019N0144001N9+01241+01131101281ADDGA1061+001809079GA2081+006009059GF108991999999999999999999MA1999999099561MW1001
0082036553999991957010521004+51933-001250SAO  +0138EGUA V0202501N009810015019N0096001N9+01191+01131101281ADDGA1061+001509079GA2081+003009079GF108991999999999999999999MA1999999099561MW1511
0082036553999991957010522004+51933-001250SAO  +0138EGUA V0202501N008210021019N0096001N9+01241+01071101311ADDGA1061+002109079GA2081+003609079GF108991999999999999999999MA1999999099591MW1611
0082036553999991957010523004+51933-001250SAO  +0138EGUA V0202501N008210030019N0096001N9+01191+01071101381ADDGA1031+002109079GA2081+003009079GF108991999999999999999999MA1999999099661MW1611
0098036553999991957010600004+51933-001250SAO  +0138EGUA V0202301N005110039019N0144001N9+01191+01021101481ADDGA1031+002109079GA2061+003909079GA3031+027009039GF108991999999999999999999MA1999999099761MW1001
0066036553999991957010601004+51933-001250SAO  +0138EGUA V0202701N004612200019N0144001N9+01071+00961101511ADDGA1021+027009039GF102991999999999999999999MA1999999099801MW1001
0066036553999991957010602004+51933-001250SAO  +0138EGUA V0202501N004612200019N0144001N9+00961+00801101621ADDGA1001+999999999GF100991999999999999999999MA1999999099901MW1001
0066036553999991957010603004+51933-001250SAO  +0138EGUA V0202501N003112200019N0144001N9+00801+00691101651ADDGA1001+999999999GF100991999999999999999999MA1999999099931MW1001
0066036553999991957010604004+51933-001250SAO  +0138EGUA V0202301N004612200019N0144001N9+00741+00631101721ADDGA1001+999999999GF100991999999999999999999MA1999999100001MW1001
0066036553999991957010605004+51933-001250SAO  +0138EGUA V0202501N005112200019N0080001N9+00691+00581101751ADDGA1001+999999999GF100991999999999999999999MA1999999100031MW1051
0066036553999991957010606004+51933-001250SAO  +0138EGUA V0202501N003612200019N0080001N9+00631+00521101891ADDGA1001+999999999GF100991999999999999999999MA1999999100171MW1051
0066036553999991957010607004+51933-001250SAO  +0138EGUA V0202501N004612200019N0080001N9+00581+00461101951ADDGA1011+009009059GF102991999999999999999999MA1999999100241MW1051
0066036553999991957010608004+51933-001250SAO  +0138EGUA V0202501N005112200019N0080001N9+00631+00521102011ADDGA1011+009009059GF102991999999999999999999MA1999999100301MW1051
0066036553999991957010609004+51933-001250SAO  +0138EGUA V0202701N004612200019N0144001N9+00691+00581102191ADDGA1001+999999999GF100991999999999999999999MA1999999100471MW1001
0066036553999991957010610004+51933-001250SAO  +0138EGUA V0202701N006712200019N0176001N9+00801+00521102361ADDGA1001+999999999GF100991999999999999999999MA1999999100641MW1001
0085036553999991957010611004+51933-001250SAO  +0138EGUA V0202701N007712200019N0240001N9+00851+00521102501ADDGA1999+009009999GF100991999999999999999999MA1999999100781MW1001EQDQ01    003SCCGA1
0122036553999991957010612004+51933-001250SAO  +0138EGUA V0202701N008212200019N0240001N9+00911+00521102561ADDAA124000091GA1999+009009999GF100991999999999999999999KA1999M+01191KA2999N+00301MA1999999100851MW1001EQDQ01    003SCCGA1
0085036553999991957010613004+51933-001250SAO  +0138EGUA V0202701N009312200019N0240001N9+00961+00521102561ADDGA1999+009009999GF100991999999999999999999MA1999999100851MW1001EQDQ01    003SCCGA1
0085036553999991957010614004+51933-001250SAO  +0138EGUA V0202701N007712200019N0240001N9+00961+00631102601ADDGA1999+009009999GF100991999999999999999999MA1999999100881MW1001EQDQ01    003SCCGA1
0066036553999991957010615004+51933-001250SAO  +0138EGUA V0202701N006710105019N0240001N9+00961+00581102731ADDGA1051+010509059GF107991999999999999999999MA1999999101021MW1001
0066036553999991957010616004+51933-001250SAO  +0138EGUA V0202901N004610105019N0240001N9+00851+00411102801ADDGA1061+010509059GF107991999999999999999999MA1999999101081MW1001
0066036553999991957010617004+51933-001250SAO  +0138EGUA V0202901N006212200019N0240001N9+00691+00351102941ADDGA1021+010509059GF102991999999999999999999MA1999999101221MW1001
0082036553999991957010618004+51933-001250SAO  +0138EGUA V0202701N003112200019N0240001N9+00521+00301103111ADDGA1021+010509059GA2011+072009009GF102991999999999999999999MA1999999101321MW1001
0066036553999991957010619004+51933-001250SAO  +0138EGUA V0202501N002112200019N0240001N9+00461+00241103211ADDGA1001+999999999GF100991999999999999999999MA1999999101421MW1001
0066036553999991957010620004+51933-001250SAO  +0138EGUA V0202701N003612200019N0240001N9+00411+00301103311ADDGA1001+999999999GF100991999999999999999999MA1999999101521MW1001
0066036553999991957010621004+51933-001250SAO  +0138EGUA V0202701N002612200019N0240001N9+00411+00301103381ADDGA1001+999999999GF100991999999999999999999MA1999999101591MW1001
0066036553999991957010622004+51933-001250SAO  +0138EGUA V0202701N003612200019N0240001N9+00411+00131103441ADDGA1001+999999999GF100991999999999999999999MA1999999101661MW1001
0066036553999991957010623004+51933-001250SAO  +0138EGUA V0202701N002612200019N0176001N9+00301+00191103551ADDGA1001+999999999GF100991999999999999999999MA1999999101761MW1001
0066036553999991957010700004+51933-001250SAO  +0138EGUA V0202501N005112200019N0176001N9+00351+00241103511ADDGA1001+999999999GF100991999999999999999999MA1999999101761MW1001
0066036553999991957010701004+51933-001250SAO  +0138EGUA V0202501N005712200019N0096001N9+00241+00191103551ADDGA1001+999999999GF100991999999999999999999MA1999999101761MW1051
0066036553999991957010702004+51933-001250SAO  +0138EGUA V0202301N005710003019N0001001N9+00301+00241103551ADDGA1091+000309999GF109991999999999999999999MA1999999101761MW1451
0066036553999991957010703004+51933-001250SAO  +0138EGUA V0202701N004610003019N0001001N9+00411+00411103511ADDGA1091+000309999GF109991999999999999999999MA1999999101731MW1451
0066036553999991957010704004+51933-001250SAO  +0138EGUA V0202701N007210003019N0003001N9+00351+00351103551ADDGA1091+000309999GF109991999999999999999999MA1999999101761MW1451
0066036553999991957010705004+51933-001250SAO  +0138EGUA V0202001N005110003019N0003001N9+00411+00411103551ADDGA1091+000309999GF109991999999999999999999MA1999999101761MW1451
0066036553999991957010706004+51933-001250SAO  +0138EGUA V0202301N003112200019N0018001N9+00411+00411103581ADDGA1051+999999999GF107991999999999999999999MA1999999101791MW1451
0066036553999991957010707004+51933-001250SAO  +0138EGUA V0202001N006210003019N0005001N9+00411+00411103411ADDGA1091+000309999GF109991999999999999999999MA1999999101631MW1451
0066036553999991957010708004+51933-001250SAO  +0138EGUA V0202001N004610003019N0005001N9+00461+00461103481ADDGA1091+000309999GF109991999999999999999999MA1999999101691MW1451
0098036553999991957010709004+51933-001250SAO  +0138EGUA V0202001N004110015019N0012001N9+00461+00461103481ADDGA1051+999999999GA2011+001509079GA3021+030009039GF107991999999999999999999MA1999999101691MW1451
0098036553999991957010710004+51933-001250SAO  +0138EGUA V0202001N006210009019N0012001N9+00521+00461103481ADDGA1051+999999999GA2051+000909079GA3061+010509059GF108991999999999999999999MA1999999101691MW1451
0114036553999991957010711004+51933-001250SAO  +0138EGUA V0202001N007710270019N0080001N9+00581+00521103511ADDGA1011+001509079GA2041+027009039GA3021+036009039GA4021+220009009GF107991999999999999999999MA1999999101731MW1051
0119036553999991957010712004+51933-001250SAO  +0138EGUA V0202001N008210015019N0080001N9+00741+00521103441ADDAA124999929GA1061+001509079GA2021+027009039GF107991999999999999999999KA1999M+01021KA2999N+00241MA1999999101661MW1051
0098036553999991957010713004+51933-001250SAO  +0138EGUA V0202001N008210030019N0144001N9+00851+00691103441ADDGA1021+001509079GA2051+003009079GA3061+027009039GF108991999999999999999999MA1999999101661MW1001
0082036553999991957010714004+51933-001250SAO  +0138EGUA V0202001N005110057019N0144001N9+00851+00801103441ADDGA1051+005709079GA2051+027009039GF107991999999999999999999MA1999999101661MW1001
0082036553999991957010715004+51933-001250SAO  +0138EGUA V0202001N005110051019N0128001N9+00911+00741103411ADDGA1061+005109079GA2061+027009039GF107991999999999999999999MA1999999101631MW1611
0082036553999991957010716004+51933-001250SAO  +0138EGUA V0202001N006710051019N0128001N9+00911+00801103411ADDGA1061+005109079GA2061+027009039GF107991999999999999999999MA1999999101631MW1001
0082036553999991957010717004+51933-001250SAO  +0138EGUA V0202001N006710051019N0144001N9+00851+00801103241ADDGA1051+005109079GA2051+027009039GF107991999999999999999999MA1999999101461MW1001
0082036553999991957010718004+51933-001250SAO  +0138EGUA V0202301N005110045019N0144001N9+00911+00801103281ADDGA1031+001509079GA2081+004509079GF108991999999999999999999MA1999999101491MW1001
0066036553999991957010719004+51933-001250SAO  +0138EGUA V0202001N004610015019N0128001N9+00851+00801103281ADDGA1081+001509079GF108991999999999999999999MA1999999101491MW1001
0066036553999991957010720004+51933-001250SAO  +0138EGUA V0202001N006710018019N0128001N9+00961+00851103281ADDGA1081+001809079GF108991999999999999999999MA1999999101491MW1001
0066036553999991957010721004+51933-001250SAO  +0138EGUA V0202001N004110018019N0096001N9+00961+00851103281ADDGA1081+001809079GF108991999999999999999999MA1999999101491MW1051
0066036553999991957010722004+51933-001250SAO  +0138EGUA V0202301N006710018019N0096001N9+01021+00851103241ADDGA1081+001809079GF108991999999999999999999MA1999999101491MW1051
0082036553999991957010723004+51933-001250SAO  +0138EGUA V0202301N006210021019N0144001N9+01021+00851103241ADDGA1061+002109079GA2081+006009059GF108991999999999999999999MA1999999101491MW1001
0082036553999991957010800004+51933-001250SAO  +0138EGUA V0202301N005710024019N0096001N9+01021+00911103211ADDGA1061+002409079GA2081+006009059GF108991999999999999999999MA1999999101461MW1511
0082036553999991957010801004+51933-001250SAO  +0138EGUA V0202301N005710024019N0096001N9+01071+00911103171ADDGA1071+002409079GA2081+006009059GF108991999999999999999999MA1999999101421MW1511
0082036553999991957010802004+51933-001250SAO  +0138EGUA V0202001N007210021019N0128001N9+01131+00961103111ADDGA1061+002109079GA2081+006009059GF108991999999999999999999MA1999999101351MW1001
0082036553999991957010803004+51933-001250SAO  +0138EGUA V0202001N006210018019N0128001N9+01071+00911103111ADDGA1061+001809079GA2081+006009059GF108991999999999999999999MA1999999101351MW1001
0066036553999991957010804004+51933-001250SAO  +0138EGUA V0202301N006710018019N0096001N9+01071+00911103041ADDGA1081+001809079GF108991999999999999999999MA1999999101291MW1051
0066036553999991957010805004+51933-001250SAO  +0138EGUA V0202301N007710018019N0096001N9+01071+00911103001ADDGA1081+001809079GF108991999999999999999999MA1999999101251MW1051
0082036553999991957010806004+51933-001250SAO  +0138EGUA V0202301N007210027019N0096001N9+01071+00911102971ADDGA1071+002709079GA2081+006009059GF108991999999999999999999MA1999999101221MW1051
0082036553999991957010807004+51933-001250SAO  +0138EGUA V0202301N008710027019N0096001N9+01071+00851102971ADDGA1061+002709079GA2081+006009059GF108991999999999999999999MA1999999101221MW1051
0082036553999991957010808004+51933-001250SAO  +0138EGUA V0202301N006710042019N0144001N9+01021+00851102941ADDGA1071+004209079GA2081+009009059GF108991999999999999999999MA1999999101191MW1001
0066036553999991957010809004+51933-001250SAO  +0138EGUA V0202301N007210030019N0176001N9+01021+00851102901ADDGA1081+003009079GF108991999999999999999999MA1999999101151MW1001
0066036553999991957010810004+51933-001250SAO  +0138EGUA V0202301N007710024019N0144001N9+01021+00911102901ADDGA1081+002409079GF108991999999999999999999MA1999999101151MW1511
0082036553999991957010811004+51933-001250SAO  +0138EGUA V0202001N007710021019N0096001N9+01071+00911102901ADDGA1021+001509079GA2081+002109079GF108991999999999999999999MA1999999101151MW1511
0119036553999991957010812004+51933-001250SAO  +0138EGUA V0202001N008710027019N0144001N9+01131+00911102771ADDAA124999929GA1061+002709079GA2061+009009059GF108991999999999999999999KA1999M+01131KA2999N+00911MA1999999101051MW1511
0098036553999991957010813004+51933-001250SAO  +0138EGUA V0202301N008210027019N0144001N9+01131+00961102731ADDGA1051+002709079GA2041+009009059GA3051+030009039GF107991999999999999999999MA1999999101021MW1001
0114036553999991957010814004+51933-001250SAO  +0138EGUA V0202301N009310036019N0144001N9+01191+00961102671ADDGA1051+003609079GA2041+009009059GA3041+030009039GA4031+220009009GF107991999999999999999999MA1999999100951MW1001
0098036553999991957010815004+51933-001250SAO  +0138EGUA V0202301N008212200019N0176001N9+01071+00851102561ADDGA1021+004209079GA2011+030009039GA3081+220009009GF108991999999999999999999MA1999999100851MW1001
0098036553999991957010816004+51933-001250SAO  +0138EGUA V0202301N009312200019N0176001N9+01021+00801102531ADDGA1021+004509079GA2011+030009039GA3061+220009009GF107991999999999999999999MA1999999100811MW1001
0082036553999991957010817004+51933-001250SAO  +0138EGUA V0202001N007710060019N0176001N9+01021+00741102501ADDGA1051+006009059GA2021+030009039GF107991999999999999999999MA1999999100781MW1001
0082036553999991957010818004+51933-001250SAO  +0138EGUA V0202301N006210063019N0176001N9+01021+00801102561ADDGA1061+006309059GA2021+030009039GF107991999999999999999999MA1999999100851MW1001
0066036553999991957010819004+51933-001250SAO  +0138EGUA V0202301N008710072019N0176001N9+01021+00741102531ADDGA1051+007209059GF107991999999999999999999MA1999999100811MW1001
0066036553999991957010820004+51933-001250SAO  +0138EGUA V0202301N008210072019N0176001N9+01021+00741102501ADDGA1061+007209059GF107991999999999999999999MA1999999100781MW1001
0066036553999991957010821004+51933-001250SAO  +0138EGUA V0202301N006212200019N0176001N9+00911+00691102501ADDGA1031+007209059GF102991999999999999999999MA1999999100781MW1001
0066036553999991957010822004+51933-001250SAO  +0138EGUA V0202301N006712200019N0176001N9+00961+00691102501ADDGA1041+007209059GF102991999999999999999999MA1999999100781MW1001
0082036553999991957010823004+51933-001250SAO  +0138EGUA V0202301N006710063019N0176001N9+00961+00741102461ADDGA1021+003309079GA2061+006309059GF107991999999999999999999MA1999999100751MW1001
0082036553999991957010900004+51933-001250SAO  +0138EGUA V0202301N008210063019N0176001N9+01021+00851102331ADDGA1041+003309079GA2081+006309059GF108991999999999999999999MA1999999100611MW1001
0082036553999991957010901004+51933-001250SAO  +0138EGUA V0202301N009310063019N0176001N9+00961+00851102331ADDGA1031+003309079GA2061+006309059GF107991999999999999999999MA1999999100611MW1001
0082036553999991957010902004+51933-001250SAO  +0138EGUA V0202301N007710063019N0176001N9+00961+00801102201ADDGA1031+003309079GA2061+006309059GF107991999999999999999999MA1999999100541MW1001
0082036553999991957010903004+51933-001250SAO  +0138EGUA V0202001N006712200019N0176001N9+00911+00741102231ADDGA1021+003309079GA2041+006309059GF102991999999999999999999MA1999999100511MW1001
0082036553999991957010904004+51933-001250SAO  +0138EGUA V0202301N006710063019N0176001N9+00911+00741102191ADDGA1031+003309079GA2071+006309059GF107991999999999999999999MA1999999100471MW1001
0082036553999991957010905004+51933-001250SAO  +0138EGUA V0202301N007710063019N0176001N9+00911+00691102121ADDGA1031+003309079GA2081+006309059GF108991999999999999999999MA1999999100411MW1001
0082036553999991957010906004+51933-001250SAO  +0138EGUA V0202301N006710063019N0176001N9+00911+00691102021ADDGA1021+003309079GA2051+006309059GF107991999999999999999999MA1999999100301MW1001
0082036553999991957010907004+51933-001250SAO  +0138EGUA V0202301N005110063019N0176001N9+00911+00691102021ADDGA1021+003309079GA2061+006309059GF107991999999999999999999MA1999999100301MW1001
0082036553999991957010908004+51933-001250SAO  +0138EGUA V0202301N008210300019N0176001N9+00911+00691101991ADDGA1021+006309059GA2061+030009039GF107991999999999999999999MA1999999100271MW1001
0098036553999991957010909004+51933-001250SAO  +0138EGUA V0202301N007210120019N0176001N9+00961+00691101991ADDGA1031+005709079GA2061+012009059GA3021+030009039GF107991999999999999999999MA1999999100271MW1001
0082036553999991957010910004+51933-001250SAO  +0138EGUA V0202301N008210057019N0176001N9+00961+00691102021ADDGA1061+005709059GA2081+012009059GF108991999999999999999999MA1999999100301MW1001
0088036553999991957010911004+51933-001250SAO  +0138EGUA V0202301N007210045019N0048001N9+00961+00691102021ADDGA1061+004509059GA2081+012009059GF108991999999999999999999MA1999999100301MW1051MW2511
0141036553999991957010912004+51933-001250SAO  +0138EGUA V0203201N005110042019N0064001N9+00801+00741102231ADDAA124999929GA1021+002409079GA2061+004209059GA3081+012009059GF108991999999999999999999KA1999M+01021KA2999N+00521MA1999999100511MW1051MW2511
0104036553999991957010913004+51933-001250SAO  +0138EGUA V0202901N007210042019N0080001N9+00801+00691102231ADDGA1041+002409079GA2061+004209059GA3081+012009059GF108991999999999999999999MA1999999100511MW1051MW2511
0082036553999991957010914004+51933-001250SAO  +0138EGUA V0202701N003610150019N0128001N9+00801+00631102231ADDGA1021+004209079GA2081+015009059GF108991999999999999999999MA1999999100511MW1001
0082036553999991957010915004+51933-001250SAO  +0138EGUA V0202701N004110150019N0176001N9+00801+00631102261ADDGA1061+015009059GA2031+030009039GF107991999999999999999999MA1999999100541MW1001
0098036553999991957010916004+51933-001250SAO  +0138EGUA V0202701N005110150019N0176001N9+00741+00521102291ADDGA1061+015009059GA2041+030009039GA3061+220009009GF107991999999999999999999MA1999999100581MW1001
0098036553999991957010917004+51933-001250SAO  +0138EGUA V0202701N004110300019N0176001N9+00691+00411102331ADDGA1041+015009059GA2031+030009039GA3061+081009009GF107991999999999999999999MA1999999100611MW1001
0082036553999991957010918004+51933-001250SAO  +0138EGUA V0202901N004610300019N0128001N9+00631+00411102331ADDGA1031+015009059GA2081+030009049GF108991999999999999999999MA1999999100611MW1001
0082036553999991957010919004+51933-001250SAO  +0138EGUA V0202901N005110300019N0128001N9+00631+00351102361ADDGA1041+015009059GA2081+030009049GF108991999999999999999999MA1999999100641MW1001
0082036553999991957010920004+51933-001250SAO  +0138EGUA V0203201N004610300019N0128001N9+00581+00351102391ADDGA1021+015009059GA2081+030009049GF108991999999999999999999MA1999999100681MW1001
0082036553999991957010921004+51933-001250SAO  +0138EGUA V0202901N006710300019N0128001N9+00521+00301102431ADDGA1041+015009059GA2081+030009049GF108991999999999999999999MA1999999100711MW1001
0082036553999991957010922004+51933-001250SAO  +0138EGUA V0203201N006210300019N0128001N9+00521+00301102501ADDGA1031+015009059GA2081+030009049GF108991999999999999999999MA1999999100781MW1001
0082036553999991957010923004+51933-001250SAO  +0138EGUA V0202901N005110300019N0176001N9+00521+00241102561ADDGA1021+015009059GA2081+030009049GF108991999999999999999999MA1999999100811MW1001
0082036553999991957011000004+51933-001250SAO  +0138EGUA V0202901N003610300019N0176001N9+00521+00301102561ADDGA1021+015009059GA2081+030009049GF108991999999999999999999MA1999999100811MW1001
0066036553999991957011001004+51933-001250SAO  +0138EGUA V0203201N005110300019N0176001N9+00521+00191102601ADDGA1051+030009049GF107991999999999999999999MA1999999100851MW1001
0066036553999991957011002004+51933-001250SAO  +0138EGUA V0202901N005712200019N0176001N9+00351+00191102631ADDGA1021+030009049GF102991999999999999999999MA1999999100881MW1001
0066036553999991957011003004+51933-001250SAO  +0138EGUA V0202901N007212200019N0176001N9+00411+00131102671ADDGA1021+030009049GF102991999999999999999999MA1999999100911MW1001
0066036553999991957011004004+51933-001250SAO  +0138EGUA V0203201N007712200019N0176001N9+00301+00131102671ADDGA1021+030009049GF102991999999999999999999MA1999999100911MW1001
0066036553999991957011005004+51933-001250SAO  +0138EGUA V0202901N006712200019N0176001N9+00351+00081102671ADDGA1011+030009049GF102991999999999999999999MA1999999100911MW1001
0066036553999991957011006004+51933-001250SAO  +0138EGUA V0203201N006712200019N0176001N9+00301+00081102701ADDGA1011+030009049GF102991999999999999999999MA1999999100951MW1001
0066036553999991957011007004+51933-001250SAO  +0138EGUA V0203201N006212200019N0176001N9+00301+00081102771ADDGA1021+030009049GF102991999999999999999999MA1999999101021MW1001
0066036553999991957011008004+51933-001250SAO  +0138EGUA V0203201N005712200019N0176001N9+00241+00131102901ADDGA1021+030009049GF102991999999999999999999MA1999999101121MW1001
0098036553999991957011009004+51933-001250SAO  +0138EGUA V0203201N003612200019N0176001N9+00241+00131103041ADDGA1011+010509059GA2011+015009089GA3011+030009049GF102991999999999999999999MA1999999101251MW1001
0085036553999991957011010004+51933-001250SAO  +0138EGUA V0203201N002612200019N0176001N9+00411+00081103141ADDGA1999+010509999GF100991999999999999999999MA1999999101351MW1001EQDQ01    003SCCGA1
0066036553999991957011011004+51933-001250SAO  +0138EGUA V0203201N006212200019N0176001N9+00411+00081103241ADDGA1001+999999999GF100991999999999999999999MA1999999101461MW1001
0103036553999991957011012004+51933-001250SAO  +0138EGUA V0203201N007212200019N0176001N9+00521+00191103311ADDAA124000091GA1001+999999999GF100991999999999999999999KA1999M+00631KA2999N-00151MA1999999101521MW1001
0066036553999991957011013004+51933-001250SAO  +0138EGUA V0203601N007212200019N0176001N9+00631+00241103311ADDGA1001+999999999GF100991999999999999999999MA1999999101521MW1001
0066036553999991957011014004+51933-001250SAO  +0138EGUA V0203601N006212200019N0176001N9+00581+00131103311ADDGA1001+999999999GF100991999999999999999999MA1999999101521MW1001
0066036553999991957011015004+51933-001250SAO  +0138EGUA V0203601N007212200019N0176001N9+00521+00131103381ADDGA1021+012009059GF102991999999999999999999MA1999999101591MW1001
0066036553999991957011016004+51933-001250SAO  +0138EGUA V0203601N002612200019N0080001N9+00241+00021103511ADDGA1021+012009059GF102991999999999999999999MA1999999101731MW1051
0066036553999991957011017004+51933-001250SAO  +0138EGUA V0203601N005112200019N0080001N9+00131+00021103581ADDGA1021+012009059GF102991999999999999999999MA1999999101791MW1051
0066036553999991957011018004+51933-001250SAO  +0138EGUA V0203401N005112200019N0064001N9+00081-00091103731ADDGA1001+999999999GF100991999999999999999999MA1999999101901MW1051
0066036553999991957011019004+51933-001250SAO  +0138EGUA V0203401N005112200019N0064001N9+00021-00091103761ADDGA1001+999999999GF100991999999999999999999MA1999999101931MW1051
0066036553999991957011020004+51933-001250SAO  +0138EGUA V0203401N003612200019N0064001N9+00081-00201103831ADDGA1001+999999999GF100991999999999999999999MA1999999102001MW1051
0066036553999991957011021004+51933-001250SAO  +0138EGUA V0203401N005112200019N0064001N9-00041-00201103891ADDGA1001+999999999GF100991999999999999999999MA1999999102071MW1051
0072036553999991957011022004+51933-001250SAO  +0138EGUA V0203401N004612200019N0048001N9-00091-00201103961ADDGA1001+999999999GF100991999999999999999999MA1999999102131MW1051MW2111
0066036553999991957011023004+51933-001250SAO  +0138EGUA V0203401N004112200019N0064001N9-00091-00371104001ADDGA1001+999999999GF100991999999999999999999MA1999999102171MW1051
0066036553999991957011100004+51933-001250SAO  +0138EGUA V0203201N003112200019N0064001N9-00151-00311103931ADDGA1001+999999999GF100991999999999999999999MA1999999102131MW1051
0066036553999991957011101004+51933-001250SAO  +0138EGUA V0203201N004112200019N0036001N9-00151-00421103891ADDGA1091+999999999GF102991999999999999999999MA1999999102101MW1051
0082036553999991957011102004+51933-001250SAO  +0138EGUA V0203201N003610300019N0026001N9-00091-00311103891ADDGA1091+999999999GA2051+030009039GF107991999999999999999999MA1999999102101MW1051
0082036553999991957011103004+51933-001250SAO  +0138EGUA V0202701N002610300019N0026001N9+00021-00201103891ADDGA1091+999999999GA2051+030009039GF107991999999999999999999MA1999999102101MW1051
0066036553999991957011104004+51933-001250SAO  +0138EGUA V0202901N003612200019N0040001N9+00131-00201103931ADDGA1021+030009039GF102991999999999999999999MA1999999102101MW1051
0066036553999991957011105004+51933-001250SAO  +0138EGUA V0203201N004110360019N0064001N9+00021-00151103931ADDGA1051+036009039GF107991999999999999999999MA1999999102101MW1051
0066036553999991957011106004+51933-001250SAO  +0138EGUA V0203201N005712200019N0064001N9-00041-00201103891ADDGA1021+036009039GF102991999999999999999999MA1999999102071MW1051
0066036553999991957011107004+51933-001250SAO  +0138EGUA V0203201N006212200019N0064001N9-00091-00201103891ADDGA1011+036009039GF102991999999999999999999MA1999999102071MW1051
0082036553999991957011108004+51933-001250SAO  +0138EGUA V0203201N002612200019N0080001N9-00091-00261103891ADDGA1011+030009039GA2061+078009009GF107991999999999999999999MA1999999102071MW1051
0082036553999991957011109004+51933-001250SAO  +0138EGUA V0203201N003112200019N0128001N9+00081-00091103891ADDGA1021+030009039GA2061+078009009GF107991999999999999999999MA1999999102071MW1001
0082036553999991957011110004+51933-001250SAO  +0138EGUA V0203201N002112200019N0128001N9+00131+00021103931ADDGA1021+030009039GA2061+220009009GF107991999999999999999999MA1999999102101MW1001
0082036553999991957011111004+51933-001250SAO  +0138EGUA V0203201N003612200019N0128001N9+00411+00081103931ADDGA1011+030009039GA2051+220009009GF107991999999999999999999MA1999999102101MW1001
0119036553999991957011112004+51933-001250SAO  +0138EGUA V0202701N003612200019N0176001N9+00521+00131103931ADDAA124000091GA1011+030009039GA2041+220009009GF107991999999999999999999KA1999M+00691KA2999N-00151MA1999999102171MW1001
0082036553999991957011113004+51933-001250SAO  +0138EGUA V0202701N005112200019N0176001N9+00631+00191103961ADDGA1021+030009039GA2041+220009009GF107991999999999999999999MA1999999102171MW1001
0082036553999991957011114004+51933-001250SAO  +0138EGUA V0202901N006712200019N0176001N9+00691+00191103891ADDGA1021+030009039GA2011+220009009GF102991999999999999999999MA1999999102101MW1001
0082036553999991957011115004+51933-001250SAO  +0138EGUA V0202701N004612200019N0176001N9+00581+00241103791ADDGA1021+030009039GA2011+220009009GF102991999999999999999999MA1999999102001MW1001
0066036553999991957011116004+51933-001250SAO  +0138EGUA V0202701N005112200019N0176001N9+00461+00191103761ADDGA1021+030009039GF102991999999999999999999MA1999999101961MW1001
0098036553999991957011117004+51933-001250SAO  +0138EGUA V0202501N004610480019N0144001N9+00351+00191103761ADDGA1031+033009039GA2021+048009039GA3011+087009009GF107991999999999999999999MA1999999101931MW1001
0082036553999991957011118004+51933-001250SAO  +0138EGUA V0202501N004110360019N0080001N9+00301+00131103661ADDGA1061+036009039GA2041+087009009GF107991999999999999999999MA1999999101831MW1051
0066036553999991957011119004+51933-001250SAO  +0138EGUA V0202501N004110360019N0080001N9+00301+00191103591ADDGA1071+036009039GF107991999999999999999999MA1999999101761MW1051
0066036553999991957011120004+51933-001250SAO  +0138EGUA V0202501N005110360019N0080001N9+00411+00131103561ADDGA1071+036009039GF107991999999999999999999MA1999999101731MW1051
0066036553999991957011121004+51933-001250SAO  +0138EGUA V0202501N005710360019N0080001N9+00411+00131103451ADDGA1071+036009039GF107991999999999999999999MA1999999101661MW1051
0066036553999991957011122004+51933-001250SAO  +0138EGUA V0202501N006710360019N0080001N9+00351+00131103391ADDGA1061+036009039GF107991999999999999999999MA1999999101591MW1051
0066036553999991957011123004+51933-001250SAO  +0138EGUA V0202301N004110360019N0080001N9+00301+00131103251ADDGA1061+036009039GF107991999999999999999999MA1999999101461MW1051
0082036553999991957011200004+51933-001250SAO  +0138EGUA V0202501N007210480019N0080001N9+00301+00081103121ADDGA1021+030009039GA2061+048009039GF107991999999999999999999MA1999999101321MW1051
0066036553999991957011201004+51933-001250SAO  +0138EGUA V0202501N006210450019N0080001N9+00301+00021103011ADDGA1061+045009039GF107991999999999999999999MA1999999101221MW1051
0066036553999991957011202004+51933-001250SAO  +0138EGUA V0202501N008212200019N0080001N9+00241-00041102781ADDGA1021+045009039GF102991999999999999999999MA1999999101021MW1051
0082036553999991957011203004+51933-001250SAO  +0138EGUA V0202501N007712200019N0080001N9+00351+00081102681ADDGA1021+015009059GA2021+045009039GF102991999999999999999999MA1999999100911MW1051
0104036553999991957011204004+51933-001250SAO  +0138EGUA V0202501N006710096019N0080001N9+00461+00301102531ADDGA1021+003309079GA2061+009609059GA3021+045009039GF108991999999999999999999MA1999999100781MW1051MW2611
0082036553999991957011205004+51933-001250SAO  +0138EGUA V0202501N003610105019N0096001N9+00521+00301102431ADDGA1021+004209079GA2081+010509059GF108991999999999999999999MA1999999100681MW1051
0082036553999991957011206004+51933-001250SAO  +0138EGUA V0202701N007710450019N0096001N9+00521+00241102391ADDGA1021+010509059GA2061+045009039GF107991999999999999999999MA1999999100641MW1051
0066036553999991957011207004+51933-001250SAO  +0138EGUA V0202701N008210450019N0096001N9+00581+00351102331ADDGA1051+045009039GF107991999999999999999999MA1999999100581MW1051
0082036553999991957011208004+51933-001250SAO  +0138EGUA V0202901N005710084019N0144001N9+00581+00411102291ADDGA1051+008409059GA2061+045009039GF107991999999999999999999MA1999999100541MW1611
0098036553999991957011209004+51933-001250SAO  +0138EGUA V0202701N007710090019N0128001N9+00461+00411102261ADDGA1041+005109059GA2051+009009059GA3051+036009039GF107991999999999999999999MA1999999100511MW1001
0082036553999991957011210004+51933-001250SAO  +0138EGUA V0202901N009310510019N0200001N9+00521+00301102131ADDGA1021+010509059GA2061+051009039GF107991999999999999999999MA1999999100371MW1001
0082036553999991957011211004+51933-001250SAO  +0138EGUA V0202901N010310105019N0240001N9+00581+00351102091ADDGA1051+010509059GA2021+051009039GF107991999999999999999999MA1999999100341MW1001
0119036553999991957011212004+51933-001250SAO  +0138EGUA V0203201N009310105019N0176001N9+00741+00411102091ADDAA124002091GA1041+005109059GA2061+010509059GF107991999999999999999999KA1999M+00741KA2999N+00241MA1999999100341MW1001
0082036553999991957011213004+51933-001250SAO  +0138EGUA V0203201N009310057019N0176001N9+00631+00301102101ADDGA1051+005709059GA2051+010509059GF107991999999999999999999MA1999999100341MW1001
0098036553999991957011214004+51933-001250SAO  +0138EGUA V0203201N007710051019N0176001N9+00691+00351102021ADDGA1051+005109059GA2061+010509059GA3061+048009039GF107991999999999999999999MA1999999100271MW1001
0098036553999991957011215004+51933-001250SAO  +0138EGUA V0203201N009810057019N0176001N9+00691+00301101991ADDGA1051+005709059GA2061+010509059GA3061+048009039GF107991999999999999999999MA1999999100241MW1001
0082036553999991957011216004+51933-001250SAO  +0138EGUA V0203201N007710084019N0176001N9+00521+00241101991ADDGA1051+008409059GA2061+015009059GF107991999999999999999999MA1999999100241MW1001
0066036553999991957011217004+51933-001250SAO  +0138EGUA V0203401N007212200019N0176001N9+00461+00191101991ADDGA1041+009609059GF102991999999999999999999MA1999999100241MW1001
0066036553999991957011218004+51933-001250SAO  +0138EGUA V0203201N008212200019N0176001N9+00411+00241101951ADDGA1021+009609059GF102991999999999999999999MA1999999100201MW1001
0066036553999991957011219004+51933-001250SAO  +0138EGUA V0203201N007712200019N0176001N9+00351+00191101951ADDGA1011+009609059GF102991999999999999999999MA1999999100201MW1001
0066036553999991957011220004+51933-001250SAO  +0138EGUA V0203201N005712200019N0176001N9+00351+00131101951ADDGA1001+999999999GF100991999999999999999999MA1999999100201MW1001
0066036553999991957011221004+51933-001250SAO  +0138EGUA V0203201N007212200019N0176001N9+00301+00021101921ADDGA1001+999999999GF100991999999999999999999MA1999999100171MW1001
0066036553999991957011222004+51933-001250SAO  +0138EGUA V0203201N006212200019N0176001N9+00301-00041101891ADDGA1011+012009059GF102991999999999999999999MA1999999100141MW1001
0066036553999991957011223004+51933-001250SAO  +0138EGUA V0203201N006712200019N0176001N9+00301-00041101851ADDGA1011+012009059GF102991999999999999999999MA1999999100101MW1001
0066036553999991957011300004+51933-001250SAO  +0138EGUA V0203201N007212200019N0176001N9+00301-00041101821ADDGA1011+012009059GF102991999999999999999999MA1999999100071MW1001
0066036553999991957011301004+51933-001250SAO  +0138EGUA V0203201N008212200019N0128001N9+00301+00131101761ADDGA1011+012009059GF102991999999999999999999MA1999999100001MW1001
0066036553999991957011302004+51933-001250SAO  +0138EGUA V0203401N007712200019N0128001N9+00241+00081101761ADDGA1011+012009059GF102991999999999999999999MA1999999100001MW1001
0066036553999991957011303004+51933-001250SAO  +0138EGUA V0203401N007212200019N0128001N9+00241+00081101761ADDGA1001+999999999GF100991999999999999999999MA1999999100001MW1001
0066036553999991957011304004+51933-001250SAO  +0138EGUA V0203401N007712200019N0128001N9+00191-00041101761ADDGA1001+999999999GF100991999999999999999999MA1999999100001MW1001
0066036553999991957011305004+51933-001250SAO  +0138EGUA V0203401N008212200019N0128001N9+00131-00041101801ADDGA1001+999999999GF100991999999999999999999MA1999999100031MW1001
0066036553999991957011306004+51933-001250SAO  +0138EGUA V0203401N007712200019N0128001N9+00131-00041101861ADDGA1001+999999999GF100991999999999999999999MA1999999100101MW1001
0066036553999991957011307004+51933-001250SAO  +0138EGUA V0203401N007712200019N0096001N9+00241+00021101901ADDGA1041+012009059GF102991999999999999999999MA1999999100141MW1611
0082036553999991957011308004+51933-001250SAO  +0138EGUA V0203401N007710060019N0128001N9+00351+00021101901ADDGA1061+006009059GA2061+012009059GF107991999999999999999999MA1999999100141MW1001
0098036553999991957011309004+51933-001250SAO  +0138EGUA V0203401N008210060019N0128001N9+00351+00191101961ADDGA1051+006009059GA2061+012009059GA3021+036009039GF107991999999999999999999MA1999999100201MW1001
0082036553999991957011310004+51933-001250SAO  +0138EGUA V0203401N009810120019N0128001N9+00411+00081102001ADDGA1031+006009059GA2061+012009059GF107991999999999999999999MA1999999100241MW1001
0066036553999991957011311004+51933-001250SAO  +0138EGUA V0203401N007710120019N0128001N9+00521+00081102031ADDGA1061+012009059GF107991999999999999999999MA1999999100271MW1001
0119036553999991957011312004+51933-001250SAO  +0138EGUA V0203401N009310105019N0128001N9+00521+00081102001ADDAA124999929GA1021+006009059GA2061+010509059GF107991999999999999999999KA1999M+00581KA2999N+00131MA1999999100271MW1001
0082036553999991957011313004+51933-001250SAO  +0138EGUA V0203601N008210105019N0128001N9+00581+00351102021ADDGA1021+006309059GA2071+010509059GF107991999999999999999999MA1999999100271MW1001
0082036553999991957011314004+51933-001250SAO  +0138EGUA V0203601N008710105019N0128001N9+00581+00301101991ADDGA1011+006309059GA2071+010509059GF107991999999999999999999MA1999999100241MW1001
0082036553999991957011315004+51933-001250SAO  +0138EGUA V0203601N008210105019N0144001N9+00461+00081102001ADDGA1041+006309059GA2071+010509059GF107991999999999999999999MA1999999100241MW1001
0098036553999991957011316004+51933-001250SAO  +0138EGUA V0203601N012310060019N0080001N9+00411+00131102001ADDGA1021+001509079GA2051+006009059GA3061+010509059GF107991999999999999999999MA1999999100241MW1611
0082036553999991957011317004+51933-001250SAO  +0138EGUA V0203601N010310105019N0080001N9+00351+00021102001ADDGA1031+006009059GA2061+010509059GF107991999999999999999999MA1999999100241MW1051
0082036553999991957011318004+51933-001250SAO  +0138EGUA V0203601N009812200019N0096001N9+00301+00021101901ADDGA1021+006009059GA2041+010509059GF102991999999999999999999MA1999999100141MW1051
0066036553999991957011319004+51933-001250SAO  +0138EGUA V0203601N008710105019N0096001N9+00301+00021101901ADDGA1051+010509059GF107991999999999999999999MA1999999100141MW1051
0066036553999991957011320004+51933-001250SAO  +0138EGUA V0203601N010312200019N0144001N9+00301-00091101901ADDGA1021+010509059GF102991999999999999999999MA1999999100141MW1001
0066036553999991957011321004+51933-001250SAO  +0138EGUA V0203601N009812200019N0144001N9+00301-00041101901ADDGA1031+010509059GF102991999999999999999999MA1999999100141MW1001
0082036553999991957011322004+51933-001250SAO  +0138EGUA V0200201N010310105019N0176001N9+00241+00021101931ADDGA1041+006009059GA2061+010509059GF107991999999999999999999MA1999999100171MW1611
0066036553999991957011323004+51933-001250SAO  +0138EGUA V0200201N010312200019N0176001N9+00131-00091101961ADDGA1021+010509059GF102991999999999999999999MA1999999100201MW1001
0066036553999991957011400004+51933-001250SAO  +0138EGUA V0200201N009312200019N0176001N9+00131-00151101931ADDGA1021+010509059GF102991999999999999999999MA1999999100201MW1001
0066036553999991957011401004+51933-001250SAO  +0138EGUA V0200201N008212200019N0176001N9+00131-00151102001ADDGA1011+010509059GF102991999999999999999999MA1999999100241MW1001
0066036553999991957011402004+51933-001250SAO  +0138EGUA V0200201N008212200019N0176001N9+00081-00151102031ADDGA1021+010509059GF102991999999999999999999MA1999999100271MW1001
0066036553999991957011403004+51933-001250SAO  +0138EGUA V0200201N009810105019N0144001N9+00081-00041102101ADDGA1061+010509059GF107991999999999999999999MA1999999100341MW1851
0088036553999991957011404004+51933-001250SAO  +0138EGUA V0200201N007210042019N0048001N9+00081-00041102131ADDGA1061+004209059GA2081+010509059GF108991999999999999999999MA1999999100371MW1051MW2851
0088036553999991957011405004+51933-001250SAO  +0138EGUA V0200201N006710075019N0096001N9+00081-00041102131ADDGA1051+007509089GA2051+010509059GF107991999999999999999999MA1999999100371MW1051MW2851
0082036553999991957011406004+51933-001250SAO  +0138EGUA V0200201N008210075019N0144001N9+00131-00091102341ADDGA1051+007509089GA2051+010509059GF107991999999999999999999MA1999999100581MW1851
0098036553999991957011407004+51933-001250SAO  +0138EGUA V0200201N008710075019N0080001N9+00131-00091102401ADDGA1021+004509079GA2051+007509059GA3081+010509059GF108991999999999999999999MA1999999100641MW1851
0082036553999991957011408004+51933-001250SAO  +0138EGUA V0200201N008710060019N0080001N9+00081-00041102541ADDGA1051+006009059GA2081+010509059GF108991999999999999999999MA1999999100781MW1711
0114036553999991957011409004+51933-001250SAO  +0138EGUA V0200201N008210096019N0128001N9+00081-00151102571ADDGA1031+003009079GA2041+006009059GA3061+009609059GA4081+024009059GF108991999999999999999999MA1999999100811MW1001
0082036553999991957011410004+51933-001250SAO  +0138EGUA V0200201N008710048019N0096001N9+00081-00091102681ADDGA1061+004809059GA2081+010509059GF108991999999999999999999MA1999999100881MW1711
0082036553999991957011411004+51933-001250SAO  +0138EGUA V0200201N006710045019N0064001N9+00081-00041102741ADDGA1061+004509059GA2071+010509059GF107991999999999999999999MA1999999100951MW1711
0119036553999991957011412004+51933-001250SAO  +0138EGUA V0200201N008710045019N0064001N9+00131+00021102781ADDAA124003091GA1061+004509059GA2071+010509059GF107991999999999999999999KA1999M+00191KA2999N+00021MA1999999100981MW1711
0082036553999991957011413004+51933-001250SAO  +0138EGUA V0200201N007710045019N0128001N9+00191+00021102811ADDGA1061+004509059GA2071+010509059GF107991999999999999999999MA1999999101021MW1711
0088036553999991957011414004+51933-001250SAO  +0138EGUA V0200501N008210042019N0080001N9+00131-00041102841ADDGA1061+004209059GA2061+009009059GF108991999999999999999999MA1999999101051MW1051MW2711
0088036553999991957011415004+51933-001250SAO  +0138EGUA V0200501N007710033019N0036001N9+00131-00041102841ADDGA1051+003309079GA2061+009009059GF108991999999999999999999MA1999999101051MW1051MW2711
0082036553999991957011416004+51933-001250SAO  +0138EGUA V0200201N009810105019N0080001N9+00131-00091102951ADDGA1021+003309079GA2081+010509059GF108991999999999999999999MA1999999101121MW1051
0082036553999991957011417004+51933-001250SAO  +0138EGUA V0200201N007710045019N0080001N9+00081-00091102981ADDGA1051+004509059GA2081+009009059GF108991999999999999999999MA1999999101151MW1051
0082036553999991957011418004+51933-001250SAO  +0138EGUA V0200201N009810060019N0128001N9+00081-00091103011ADDGA1051+006009059GA2081+009009059GF108991999999999999999999MA1999999101221MW1001
0082036553999991957011419004+51933-001250SAO  +0138EGUA V0200201N007210060019N0128001N9+00131-00151103181ADDGA1061+006009059GA2081+009009059GF108991999999999999999999MA1999999101351MW1711
0082036553999991957011420004+51933-001250SAO  +0138EGUA V0200201N007710045019N0096001N9+00081-00091103181ADDGA1061+004509059GA2081+009009059GF108991999999999999999999MA1999999101351MW1711
0082036553999991957011421004+51933-001250SAO  +0138EGUA V0200201N008210045019N0080001N9+00021-00091103221ADDGA1071+004509059GA2081+009009059GF108991999999999999999999MA1999999101391MW1711
0082036553999991957011422004+51933-001250SAO  +0138EGUA V0200201N007710045019N0080001N9+00081-00091103291ADDGA1071+004509059GA2081+009009059GF108991999999999999999999MA1999999101461MW1711
0082036553999991957011423004+51933-001250SAO  +0138EGUA V0200201N008710105019N0128001N9+00081-00201103291ADDGA1021+004509059GA2081+010509059GF108991999999999999999999MA1999999101461MW1711
0066036553999991957011500004+51933-001250SAO  +0138EGUA V0200201N008210105019N0128001N9+00081-00151103291ADDGA1081+010509059GF108991999999999999999999MA1999999101461MW1711
0066036553999991957011501004+51933-001250SAO  +0138EGUA V0200501N007710105019N0128001N9+00021-00261103321ADDGA1081+010509059GF108991999999999999999999MA1999999101491MW1711
0066036553999991957011502004+51933-001250SAO  +0138EGUA V0200201N006210105019N0128001N9+00021-00261103321ADDGA1081+010509059GF108991999999999999999999MA1999999101491MW1711
0066036553999991957011503004+51933-001250SAO  +0138EGUA V0200201N008210105019N0176001N9+00021-00311103321ADDGA1081+010509059GF108991999999999999999999MA1999999101491MW1001
0066036553999991957011504004+51933-001250SAO  +0138EGUA V0200201N008710105019N0176001N9+00021-00311103321ADDGA1081+010509059GF108991999999999999999999MA1999999101491MW1001
0066036553999991957011505004+51933-001250SAO  +0138EGUA V0200201N008710105019N0176001N9+00021-00261103321ADDGA1081+010509059GF108991999999999999999999MA1999999101491MW1001
0066036553999991957011506004+51933-001250SAO  +0138EGUA V0200201N008210105019N0176001N9+00021-00311103391ADDGA1081+010509059GF108991999999999999999999MA1999999101561MW1001
0066036553999991957011507004+51933-001250SAO  +0138EGUA V0200201N008710105019N0176001N9+00021-00261103421ADDGA1081+010509059GF108991999999999999999999MA1999999101591MW1001
0066036553999991957011508004+51933-001250SAO  +0138EGUA V0200201N008210075019N0176001N9+00021-00261103491ADDGA1081+007509059GF108991999999999999999999MA1999999101661MW1001
0066036553999991957011509004+51933-001250SAO  +0138EGUA V0200201N008710075019N0176001N9+00021-00041103561ADDGA1081+007509059GF108991999999999999999999MA1999999101731MW1001
0082036553999991957011510004+51933-001250SAO  +0138EGUA V0200201N008210075019N0176001N9+00021-00041103591ADDGA1051+007509059GA2081+021009039GF108991999999999999999999MA1999999101761MW1711
0098036553999991957011511004+51933-001250SAO  +0138EGUA V0200201N008710045019N0176001N9+00081-00041103661ADDGA1021+003009079GA2051+004509059GA3081+021009039GF108991999999999999999999MA1999999101831MW1711
0135036553999991957011512004+51933-001250SAO  +0138EGUA V0200201N009310060019N0080001N9+00021-00091103791ADDAA124999929GA1021+003009079GA2051+006009059GA3081+021009039GF108991999999999999999999KA1999M+00301KA2999N+00021MA1999999101961MW1711
0098036553999991957011513004+51933-001250SAO  +0138EGUA V0200201N008210060019N0176001N9+00131-00311103791ADDGA1021+003009079GA2061+006009059GA3081+009009059GF108991999999999999999999MA1999999101961MW1001
0098036553999991957011514004+51933-001250SAO  +0138EGUA V0200201N008210060019N0176001N9+00131-00151103831ADDGA1021+003009079GA2061+006009059GA3081+009009059GF108991999999999999999999MA1999999102001MW1001
0098036553999991957011515004+51933-001250SAO  +0138EGUA V0200201N008710060019N0176001N9+00131-00151103891ADDGA1021+003009079GA2061+006009059GA3081+009009059GF108991999999999999999999MA1999999102071MW1001
0098036553999991957011516004+51933-001250SAO  +0138EGUA V0200201N007710060019N0176001N9+00081-00201103861ADDGA1021+003009079GA2061+006009059GA3081+009009059GF108991999999999999999999MA1999999102031MW1001
0082036553999991957011517004+51933-001250SAO  +0138EGUA V0200201N009810075019N0080001N9+00131-00091103891ADDGA1021+003009079GA2081+007509059GF108991999999999999999999MA1999999102071MW1711
0082036553999991957011518004+51933-001250SAO  +0138EGUA V0200201N008210048019N0128001N9+00131-00091103791ADDGA1021+003009079GA2081+004809059GF108991999999999999999999MA1999999101961MW1001
0082036553999991957011519004+51933-001250SAO  +0138EGUA V0200201N007710048019N0096001N9+00131-00091103831ADDGA1021+003009079GA2081+004809059GF108991999999999999999999MA1999999102001MW1711
0098036553999991957011520004+51933-001250SAO  +0138EGUA V0200201N007210120019N0176001N9+00131-00091103861ADDGA1021+003009079GA2031+004809059GA3081+012009059GF108991999999999999999999MA1999999102031MW1001
0098036553999991957011521004+51933-001250SAO  +0138EGUA V0203601N007210120019N0144001N9+00191+00021103891ADDGA1021+003009079GA2041+004809059GA3081+012009059GF108991999999999999999999MA1999999102071MW1001
0082036553999991957011522004+51933-001250SAO  +0138EGUA V0203601N005710120019N0128001N9+00191+00021103891ADDGA1011+003009079GA2081+012009059GF108991999999999999999999MA1999999102071MW1001
0098036553999991957011523004+51933-001250SAO  +0138EGUA V0203601N006210120019N0128001N9+00191+00021103891ADDGA1011+003009079GA2021+004809059GA3061+012009059GF107991999999999999999999MA1999999102071MW1001
0082036553999991957011600004+51933-001250SAO  +0138EGUA V0200201N007210057019N0128001N9+00301+00021103931ADDGA1061+005709059GA2061+012009059GF108991999999999999999999MA1999999102101MW1001
0082036553999991957011601004+51933-001250SAO  +0138EGUA V0200201N008210057019N0128001N9+00241+00021103961ADDGA1061+005709059GA2061+012009059GF108991999999999999999999MA1999999102131MW1001
0082036553999991957011602004+51933-001250SAO  +0138EGUA V0200201N008210057019N0128001N9+00241+00021103961ADDGA1061+005709059GA2061+012009059GF108991999999999999999999MA1999999102131MW1001
0082036553999991957011603004+51933-001250SAO  +0138EGUA V0200201N007710120019N0128001N9+00241+00021103961ADDGA1021+005709059GA2061+012009059GF107991999999999999999999MA1999999102131MW1001
0066036553999991957011604004+51933-001250SAO  +0138EGUA V0200201N008212200019N0128001N9+00191-00041104001ADDGA1021+012009059GF102991999999999999999999MA1999999102171MW1001
0066036553999991957011605004+51933-001250SAO  +0138EGUA V0200201N007212200019N0128001N9+00131-00041104031ADDGA1001+999999999GF100991999999999999999999MA1999999102201MW1001
0066036553999991957011606004+51933-001250SAO  +0138EGUA V0200201N006212200019N0128001N9+00131-00041104031ADDGA1011+012009059GF102991999999999999999999MA1999999102201MW1001
0066036553999991957011607004+51933-001250SAO  +0138EGUA V0200201N007712200019N0128001N9+00191-00041104061ADDGA1001+999999999GF100991999999999999999999MA1999999102241MW1001
0066036553999991957011608004+51933-001250SAO  +0138EGUA V0200201N006712200019N0128001N9+00131-00041104101ADDGA1011+030009039GF102991999999999999999999MA1999999102271MW1001
0082036553999991957011609004+51933-001250SAO  +0138EGUA V0200201N007212200019N0128001N9+00131-00041104201ADDGA1011+009009059GA2011+030009039GF102991999999999999999999MA1999999102371MW1001
0066036553999991957011610004+51933-001250SAO  +0138EGUA V0200201N006212200019N0128001N9+00241-00041104201ADDGA1041+009009059GF102991999999999999999999MA1999999102401MW1001
0082036553999991957011611004+51933-001250SAO  +0138EGUA V0200201N008210072019N0128001N9+00351+00081104201ADDGA1051+007209059GA2081+009009059GF108991999999999999999999MA1999999102401MW1611
0125036553999991957011612004+51933-001250SAO  +0138EGUA V0200201N007210042019N0096001N9+00411+00241104131ADDAA124001091GA1061+004209059GA2081+009009059GF108991999999999999999999KA1999M+00581KA2999N+00131MA1999999102341MW1051MW2611
0082036553999991957011613004+51933-001250SAO  +0138EGUA V0200201N009810042019N0096001N9+00581+00241104101ADDGA1061+004209089GA2031+009009059GF107991999999999999999999MA1999999102301MW1051
0082036553999991957011614004+51933-001250SAO  +0138EGUA V0200201N008710105019N0096001N9+00521+00191104031ADDGA1021+003009089GA2051+010509059GF107991999999999999999999MA1999999102241MW1051
0098036553999991957011615004+51933-001250SAO  +0138EGUA V0200201N008210105019N0096001N9+00521+00191103961ADDGA1021+002709089GA2021+006009059GA3051+010509059GF107991999999999999999999MA1999999102171MW1051
0088036553999991957011616004+51933-001250SAO  +0138EGUA V0200201N006710030019N0096001N9+00521+00241103961ADDGA1061+003009079GA2061+010509059GF108991999999999999999999MA1999999102171MW1051MW2611
0072036553999991957011617004+51933-001250SAO  +0138EGUA V0200201N008210018019N0048001N9+00461+00351103891ADDGA1081+001809079GF108991999999999999999999MA1999999102101MW1051MW2611
0088036553999991957011618004+51933-001250SAO  +0138EGUA V0200501N009310021019N0048001N9+00461+00351103831ADDGA1061+002109079GA2081+007509059GF108991999999999999999999MA1999999102031MW1051MW2611
0082036553999991957011619004+51933-001250SAO  +0138EGUA V0200201N008210024019N0064001N9+00461+00351103831ADDGA1061+002409079GA2081+007509059GF108991999999999999999999MA1999999102031MW1051
0082036553999991957011620004+51933-001250SAO  +0138EGUA V0200201N008710027019N0064001N9+00461+00351103831ADDGA1061+002709079GA2081+007509059GF108991999999999999999999MA1999999102031MW1051
0082036553999991957011621004+51933-001250SAO  +0138EGUA V0200201N008210075019N0064001N9+00461+00351103831ADDGA1031+003609079GA2081+007509059GF108991999999999999999999MA1999999102031MW1051
0088036553999991957011622004+51933-001250SAO  +0138EGUA V0200201N008710078019N0064001N9+00411+00301103791ADDGA1031+003009079GA2081+007809059GF108991999999999999999999MA1999999102001MW1051MW2611
0066036553999991957011623004+51933-001250SAO  +0138EGUA V0200201N008210078019N0064001N9+00411+00301103731ADDGA1081+007809059GF108991999999999999999999MA1999999101931MW1051
0066036553999991957011700004+51933-001250SAO  +0138EGUA V0200201N007710087019N0064001N9+00411+00301103651ADDGA1071+008709059GF107991999999999999999999MA1999999101901MW1051
0088036553999991957011701004+51933-001250SAO  +0138EGUA V0203601N007210087019N0064001N9+00411+00301103611ADDGA1021+004509079GA2061+008709059GF107991999999999999999999MA1999999101831MW1051MW2611
0082036553999991957011702004+51933-001250SAO  +0138EGUA V0203601N007710087019N0064001N9+00411+00301103581ADDGA1031+004509079GA2061+008709059GF107991999999999999999999MA1999999101791MW1051
0082036553999991957011703004+51933-001250SAO  +0138EGUA V0200501N006710105019N0096001N9+00351+00301103581ADDGA1031+004509079GA2061+010509059GF107991999999999999999999MA1999999101791MW1611
0082036553999991957011704004+51933-001250SAO  +0138EGUA V0203601N007710105019N0144001N9+00351+00241103551ADDGA1021+004509079GA2061+010509059GF107991999999999999999999MA1999999101761MW1001
0082036553999991957011705004+51933-001250SAO  +0138EGUA V0200501N006710105019N0144001N9+00351+00191103511ADDGA1021+004509079GA2061+010509059GF107991999999999999999999MA1999999101731MW1001
0088036553999991957011706004+51933-001250SAO  +0138EGUA V0200501N007210045019N0096001N9+00301+00191103511ADDGA1051+004509079GA2061+010509059GF108991999999999999999999MA1999999101731MW1051MW2611
0082036553999991957011707004+51933-001250SAO  +0138EGUA V0200501N008210045019N0096001N9+00301+00191103511ADDGA1051+004509079GA2061+010509059GF108991999999999999999999MA1999999101731MW1051
0082036553999991957011708004+51933-001250SAO  +0138EGUA V0200501N005110105019N0096001N9+00241+00191103511ADDGA1021+006009079GA2061+010509059GF107991999999999999999999MA1999999101731MW1051
0082036553999991957011709004+51933-001250SAO  +0138EGUA V0200201N006710105019N0096001N9+00301+00131103551ADDGA1021+003609079GA2061+010509059GF107991999999999999999999MA1999999101761MW1051
0098036553999991957011710004+51933-001250SAO  +0138EGUA V0200201N007210036019N0096001N9+00351+00241103551ADDGA1021+001809079GA2051+003609079GA3061+010509059GF107991999999999999999999MA1999999101761MW1051
0104036553999991957011711004+51933-001250SAO  +0138EGUA V0200501N007210024019N0096001N9+00411+00241103581ADDGA1031+001209079GA2061+002409079GA3061+010509059GF108991999999999999999999MA1999999101791MW1051MW2511
0141036553999991957011712004+51933-001250SAO  +0138EGUA V0200501N006710024019N0080001N9+00411+00351103581ADDAA124999929GA1021+001209079GA2061+002409059GA3061+010509059GF108991999999999999999999KA1999M+00521KA2999N-00041MA1999999101791MW1051MW2611
0098036553999991957011713004+51933-001250SAO  +0138EGUA V0200701N005110105019N0176001N9+00411+00301103551ADDGA1021+003009079GA2041+010509059GA3021+220009009GF107991999999999999999999MA1999999101761MW1001
0082036553999991957011714004+51933-001250SAO  +0138EGUA V0200701N005712200019N0176001N9+00521+00411103511ADDGA1021+010509059GA2041+220009009GF107991999999999999999999MA1999999101731MW1001
0082036553999991957011715004+51933-001250SAO  +0138EGUA V0200701N006712200019N0176001N9+00461+00351103511ADDGA1021+010509059GA2021+220009009GF102991999999999999999999MA1999999101731MW1001
0082036553999991957011716004+51933-001250SAO  +0138EGUA V0200701N004112200019N0176001N9+00461+00301103511ADDGA1021+010509059GA2011+220009009GF102991999999999999999999MA1999999101731MW1001
0066036553999991957011717004+51933-001250SAO  +0138EGUA V0200501N003612200019N0176001N9+00461+00301103511ADDGA1011+010509059GF102991999999999999999999MA1999999101731MW1001
0066036553999991957011718004+51933-001250SAO  +0138EGUA V0200501N004112200019N0176001N9+00351+00131103511ADDGA1001+999999999GF100991999999999999999999MA1999999101731MW1001
0066036553999991957011719004+51933-001250SAO  +0138EGUA V0200501N005112200019N0176001N9+00301+00191103511ADDGA1001+999999999GF100991999999999999999999MA1999999101731MW1001
0066036553999991957011720004+51933-001250SAO  +0138EGUA V0200501N005112200019N0176001N9+00301+00131103511ADDGA1001+999999999GF100991999999999999999999MA1999999101731MW1001
0066036553999991957011721004+51933-001250SAO  +0138EGUA V0200501N004112200019N0144001N9+00241+00131103551ADDGA1001+999999999GF100991999999999999999999MA1999999101761MW1001
0066036553999991957011722004+51933-001250SAO  +0138EGUA V0200501N005712200019N0144001N9+00241+00131103581ADDGA1001+999999999GF100991999999999999999999MA1999999101791MW1001
0066036553999991957011723004+51933-001250SAO  +0138EGUA V0200501N006212200019N0064001N9-00041-00091103591ADDGA1011+003009079GF102991999999999999999999MA1999999101791MW1051
0066036553999991957011800004+51933-001250SAO  +0138EGUA V0200501N007712200019N0018001N9+00021-00041103591ADDGA1051+999999999GF107991999999999999999999MA1999999101791MW1451
0066036553999991957011801004+51933-001250SAO  +0138EGUA V0200501N005112200019N0018001N9+00021-00041103591ADDGA1051+999999999GF107991999999999999999999MA1999999101791MW1451
0066036553999991957011802004+51933-001250SAO  +0138EGUA V0200501N005712200019N0008001N9+00081+00021103591ADDGA1061+999999999GF107991999999999999999999MA1999999101791MW1451
0066036553999991957011803004+51933-001250SAO  +0138EGUA V0200501N006212200019N0008001N9+00021-00091103591ADDGA1061+999999999GF107991999999999999999999MA1999999101791MW1451
0066036553999991957011804004+51933-001250SAO  +0138EGUA V0200501N006712200019N0018001N9+00021-00091103591ADDGA1051+999999999GF107991999999999999999999MA1999999101791MW1451
0066036553999991957011805004+51933-001250SAO  +0138EGUA V0200501N006712200019N0018001N9+00021-00041103591ADDGA1051+999999999GF107991999999999999999999MA1999999101791MW1451
0066036553999991957011806004+51933-001250SAO  +0138EGUA V0200501N007712200019N0036001N9+00081-00041103561ADDGA1011+999999999GF102991999999999999999999MA1999999101761MW1111
0066036553999991957011807004+51933-001250SAO  +0138EGUA V0200701N007210030019N0080001N9+00131-00041103561ADDGA1051+003009079GF107991999999999999999999MA1999999101761MW1051
0098036553999991957011808004+51933-001250SAO  +0138EGUA V0200701N007210036019N0080001N9+00191+00081103561ADDGA1021+002109079GA2051+003609079GA3051+009009059GF107991999999999999999999MA1999999101761MW1051
0082036553999991957011809004+51933-001250SAO  +0138EGUA V0200501N003610036019N0080001N9+00191+00021103591ADDGA1021+002109079GA2081+003609079GF108991999999999999999999MA1999999101791MW1051
0082036553999991957011810004+51933-001250SAO  +0138EGUA V0200501N003110036019N0026001N9+00191+00081103591ADDGA1021+002109079GA2081+003609079GF108991999999999999999999MA1999999101791MW1051
0082036553999991957011811004+51933-001250SAO  +0138EGUA V0200501N004110036019N0096001N9+00191+00081103661ADDGA1021+002109079GA2081+003609079GF108991999999999999999999MA1999999101831MW1051
0119036553999991957011812004+51933-001250SAO  +0138EGUA V0200501N005110105019N0096001N9+00191+00021103621ADDAA124000091GA1031+003609079GA2081+010509059GF108991999999999999999999KA1999M+00301KA2999N+00021MA1999999101791MW1051
0066036553999991957011813004+51933-001250SAO  +0138EGUA V0200501N006710054019N0144001N9+00301+00081103591ADDGA1081+005409059GF108991999999999999999999MA1999999101761MW1001
0066036553999991957011814004+51933-001250SAO  +0138EGUA V0200901N007710054019N0144001N9+00301+00131103521ADDGA1081+005409059GF108991999999999999999999MA1999999101731MW1001
0066036553999991957011815004+51933-001250SAO  +0138EGUA V0200901N006710054019N0144001N9+00301+00131103561ADDGA1081+005409059GF108991999999999999999999MA1999999101731MW1001
0066036553999991957011816004+51933-001250SAO  +0138EGUA V0200501N005710054019N0144001N9+00301+00131103561ADDGA1081+005409059GF108991999999999999999999MA1999999101731MW1001
0066036553999991957011817004+51933-001250SAO  +0138EGUA V0200501N006210054019N0144001N9+00241+00131103561ADDGA1081+005409059GF108991999999999999999999MA1999999101731MW1001
0066036553999991957011818004+51933-001250SAO  +0138EGUA V0200501N007210054019N0144001N9+00241+00131103621ADDGA1081+005409059GF108991999999999999999999MA1999999101791MW1001
0066036553999991957011819004+51933-001250SAO  +0138EGUA V0200501N004110075019N0144001N9+00241+00131103621ADDGA1081+007509059GF108991999999999999999999MA1999999101831MW1001
0066036553999991957011820004+51933-001250SAO  +0138EGUA V0200501N005110060019N0144001N9+00241+00131103621ADDGA1081+006009059GF108991999999999999999999MA1999999101831MW1001
0066036553999991957011821004+51933-001250SAO  +0138EGUA V0200501N004110060019N0144001N9+00191+00131103661ADDGA1081+006009059GF108991999999999999999999MA1999999101861MW1001
0066036553999991957011822004+51933-001250SAO  +0138EGUA V0200501N003610060019N0144001N9+00191+00131103661ADDGA1081+006009059GF108991999999999999999999MA1999999101861MW1001
0066036553999991957011823004+51933-001250SAO  +0138EGUA V0200501N003110060019N0144001N9+00241+00081103661ADDGA1081+006009059GF108991999999999999999999MA1999999101861MW1001
0066036553999991957011900004+51933-001250SAO  +0138EGUA V0200701N005110060019N0144001N9+00241+00131103591ADDGA1081+006009059GF108991999999999999999999MA1999999101791MW1001
0066036553999991957011901004+51933-001250SAO  +0138EGUA V0200701N003610048019N0144001N9+00241+00021103591ADDGA1081+004809059GF108991999999999999999999MA1999999101791MW1001
0066036553999991957011902004+51933-001250SAO  +0138EGUA V0200701N003110048019N0144001N9+00241+00021103561ADDGA1081+004809059GF108991999999999999999999MA1999999101761MW1001
0066036553999991957011903004+51933-001250SAO  +0138EGUA V0200901N003610045019N0144001N9+00241-00041103561ADDGA1081+004509059GF108991999999999999999999MA1999999101761MW1001
0066036553999991957011904004+51933-001250SAO  +0138EGUA V0200901N003110045019N0144001N9+00241-00041103561ADDGA1081+004509059GF108991999999999999999999MA1999999101761MW1001
0066036553999991957011905004+51933-001250SAO  +0138EGUA V0200901N004110045019N0144001N9+00241-00041103521ADDGA1081+004509059GF108991999999999999999999MA1999999101731MW1001
0066036553999991957011906004+51933-001250SAO  +0138EGUA V0200901N003110045019N0144001N9+00241-00041103591ADDGA1081+004509059GF108991999999999999999999MA1999999101791MW1001
0066036553999991957011907004+51933-001250SAO  +0138EGUA V0200901N002110045019N0144001N9+00191-00041103591ADDGA1081+004509059GF108991999999999999999999MA1999999101791MW1001
0066036553999991957011908004+51933-001250SAO  +0138EGUA V0200701N003110048019N0128001N9+00131-00041103591ADDGA1081+004809059GF108991999999999999999999MA1999999101791MW1001
0066036553999991957011909004+51933-001250SAO  +0138EGUA V0200901N002110051019N0128001N9+00191+00021103621ADDGA1081+005109059GF108991999999999999999999MA1999999101831MW1001
0066036553999991957011910004+51933-001250SAO  +0138EGUA V0200901N002110054019N0096001N9+00191-00041103621ADDGA1081+005409059GF108991999999999999999999MA1999999101831MW1051
0066036553999991957011911004+51933-001250SAO  +0138EGUA V0200901N002610057019N0096001N9+00191+00021103621ADDGA1081+005709059GF108991999999999999999999MA1999999101831MW1051
0119036553999991957011912004+51933-001250SAO  +0138EGUA V0209991C000010063019N0096001N9+00241-00041103621ADDAA124000091GA1071+006309059GA2081+012009059GF108991999999999999999999KA1999M+00351KA2999N+00021MA1999999101831MW1051
0066036553999991957011913004+51933-001250SAO  +0138EGUA V0209991C000010063019N0144001N9+00351+00131103591ADDGA1071+006309059GF107991999999999999999999MA1999999101791MW1001
0066036553999991957011914004+51933-001250SAO  +0138EGUA V0209991C000010078019N0176001N9+00351-00041103521ADDGA1071+007809059GF107991999999999999999999MA1999999101731MW1001
0066036553999991957011915004+51933-001250SAO  +0138EGUA V0209991C000010105019N0176001N9+00351-00091103451ADDGA1061+010509059GF107991999999999999999999MA1999999101661MW1001
0066036553999991957011916004+51933-001250SAO  +0138EGUA V0209991C000010105019N0176001N9+00301+00131103421ADDGA1071+010509059GF107991999999999999999999MA1999999101631MW1001
0066036553999991957011917004+51933-001250SAO  +0138EGUA V0202701N002110105019N0080001N9+00131+00021103391ADDGA1071+010509059GF107991999999999999999999MA1999999101591MW1051
0066036553999991957011918004+51933-001250SAO  +0138EGUA V0202701N002610102019N0080001N9+00131-00041103451ADDGA1061+010209059GF107991999999999999999999MA1999999101631MW1051
0066036553999991957011919004+51933-001250SAO  +0138EGUA V0202701N003610102019N0080001N9+00131-00041103491ADDGA1061+010209059GF107991999999999999999999MA1999999101661MW1051
0066036553999991957011920004+51933-001250SAO  +0138EGUA V0203201N002610102019N0080001N9+00191-00041103561ADDGA1061+010209059GF107991999999999999999999MA1999999101731MW1051
0066036553999991957011921004+51933-001250SAO  +0138EGUA V0203201N002610102019N0080001N9+00081-00091103491ADDGA1061+010209059GF107991999999999999999999MA1999999101661MW1051
0066036553999991957011922004+51933-001250SAO  +0138EGUA V0209991C000012200019N0080001N9+00021-00091103451ADDGA1021+010209059GF102991999999999999999999MA1999999101631MW1051
0066036553999991957011923004+51933-001250SAO  +0138EGUA V0209991C000012200019N0080001N9+00081-00091103421ADDGA1041+010209059GF102991999999999999999999MA1999999101591MW1051
0066036553999991957012000004+51933-001250SAO  +0138EGUA V0209991C000010057019N0048001N9+00081-00091103221ADDGA1071+005709059GF107991999999999999999999MA1999999101391MW1051
0066036553999991957012001004+51933-001250SAO  +0138EGUA V0202001N004110057019N0048001N9+00131-00201103221ADDGA1061+005709059GF107991999999999999999999MA1999999101391MW1051
0066036553999991957012002004+51933-001250SAO  +0138EGUA V0202301N004610057019N0064001N9+00131-00091103121ADDGA1071+005709059GF107991999999999999999999MA1999999101321MW1051
0066036553999991957012003004+51933-001250SAO  +0138EGUA V0202301N005710057019N0064001N9+00131-00151103121ADDGA1071+005709059GF107991999999999999999999MA1999999101321MW1051
0066036553999991957012004004+51933-001250SAO  +0138EGUA V0202301N004110057019N0064001N9+00131-00151103051ADDGA1061+005709059GF107991999999999999999999MA1999999101251MW1051
0066036553999991957012005004+51933-001250SAO  +0138EGUA V0202301N006210057019N0064001N9+00191-00151102981ADDGA1061+005709059GF107991999999999999999999MA1999999101221MW1051
0066036553999991957012006004+51933-001250SAO  +0138EGUA V0202301N005710057019N0064001N9+00131-00151103011ADDGA1071+005709059GF107991999999999999999999MA1999999101191MW1051
0066036553999991957012007004+51933-001250SAO  +0138EGUA V0202301N006710057019N0064001N9+00131-00151102951ADDGA1081+005709059GF108991999999999999999999MA1999999101151MW1051
0066036553999991957012008004+51933-001250SAO  +0138EGUA V0202301N007210057019N0064001N9+00191-00041102951ADDGA1081+005709059GF108991999999999999999999MA1999999101151MW1051
0082036553999991957012009004+51933-001250SAO  +0138EGUA V0202301N005710054019N0096001N9+00131-00151102881ADDGA1061+005409059GA2021+012009059GF107991999999999999999999MA1999999101081MW1051
0082036553999991957012010004+51933-001250SAO  +0138EGUA V0202301N005110120019N0144001N9+00301-00041102841ADDGA1031+005409059GA2031+012009059GF107991999999999999999999MA1999999101051MW1001
0082036553999991957012011004+51933-001250SAO  +0138EGUA V0202301N006210120019N0144001N9+00351+00021102781ADDGA1041+005409059GA2031+012009059GF107991999999999999999999MA1999999101021MW1001
0119036553999991957012012004+51933-001250SAO  +0138EGUA V0202301N005110120019N0144001N9+00461+00081102611ADDAA124000091GA1041+005409059GA2031+012009059GF107991999999999999999999KA1999M+00581KA2999N+00081MA1999999100851MW1001
0066036553999991957012013004+51933-001250SAO  +0138EGUA V0202301N008210120019N0144001N9+00521+00131102571ADDGA1051+012009059GF107991999999999999999999MA1999999100811MW1001
0066036553999991957012014004+51933-001250SAO  +0138EGUA V0202301N007710120019N0144001N9+00581+00191102511ADDGA1051+012009059GF107991999999999999999999MA1999999100751MW1001
0066036553999991957012015004+51933-001250SAO  +0138EGUA V0202301N009310105019N0144001N9+00521+00191102471ADDGA1061+010509059GF107991999999999999999999MA1999999100711MW1001
0082036553999991957012016004+51933-001250SAO  +0138EGUA V0202301N008212200019N0144001N9+00411+00191102341ADDGA1031+010509059GA2061+220009009GF107991999999999999999999MA1999999100581MW1001
0066036553999991957012017004+51933-001250SAO  +0138EGUA V0202301N008210054019N0144001N9+00411+00191102371ADDGA1081+005409059GF108991999999999999999999MA1999999100611MW1001
0066036553999991957012018004+51933-001250SAO  +0138EGUA V0202301N007210057019N0096001N9+00351+00021102301ADDGA1081+005709059GF108991999999999999999999MA1999999100541MW1051
0098036553999991957012019004+51933-001250SAO  +0138EGUA V0202001N007210096019N0096001N9+00301+00081102301ADDGA1021+005709059GA2051+009609059GA3081+024009049GF108991999999999999999999MA1999999100541MW1051
0082036553999991957012020004+51933-001250SAO  +0138EGUA V0202001N006710240019N0096001N9+00301+00081102271ADDGA1031+009609059GA2081+024009049GF108991999999999999999999MA1999999100511MW1051
0066036553999991957012021004+51933-001250SAO  +0138EGUA V0202301N007210048019N0096001N9+00351+00081102241ADDGA1081+004809059GF108991999999999999999999MA1999999100471MW1051
0066036553999991957012022004+51933-001250SAO  +0138EGUA V0202301N007710048019N0096001N9+00411+00131102201ADDGA1081+004809059GF108991999999999999999999MA1999999100441MW1051
0066036553999991957012023004+51933-001250SAO  +0138EGUA V0202301N006210045019N0128001N9+00351+00191102171ADDGA1081+004509059GF108991999999999999999999MA1999999100411MW1001
0066036553999991957012100004+51933-001250SAO  +0138EGUA V0202001N006710045019N0128001N9+00411+00191102101ADDGA1081+004509059GF108991999999999999999999MA1999999100341MW1001
0066036553999991957012101004+51933-001250SAO  +0138EGUA V0202301N008210045019N0128001N9+00521+00241102061ADDGA1081+004509059GF108991999999999999999999MA1999999100301MW1001
0066036553999991957012102004+51933-001250SAO  +0138EGUA V0202301N008710045019N0128001N9+00521+00301101951ADDGA1081+004509059GF108991999999999999999999MA1999999100201MW1001
0066036553999991957012103004+51933-001250SAO  +0138EGUA V0202301N007710045019N0128001N9+00581+00301101951ADDGA1081+004509059GF108991999999999999999999MA1999999100201MW1001
0066036553999991957012104004+51933-001250SAO  +0138EGUA V0202301N006210045019N0128001N9+00521+00351101891ADDGA1081+004509059GF108991999999999999999999MA1999999100141MW1001
0066036553999991957012105004+51933-001250SAO  +0138EGUA V0202301N008210045019N0128001N9+00581+00351101851ADDGA1081+004509059GF108991999999999999999999MA1999999100101MW1001
0066036553999991957012106004+51933-001250SAO  +0138EGUA V0202301N007710039019N0128001N9+00631+00411101791ADDGA1081+003909059GF108991999999999999999999MA1999999100031MW1611
0066036553999991957012107004+51933-001250SAO  +0138EGUA V0202001N007210036019N0128001N9+00581+00461101791ADDGA1081+003609059GF108991999999999999999999MA1999999100031MW1611
0082036553999991957012108004+51933-001250SAO  +0138EGUA V0202301N007710024019N0080001N9+00581+00461101791ADDGA1061+002409079GA2081+003609059GF108991999999999999999999MA1999999100031MW1611
0088036553999991957012109004+51933-001250SAO  +0138EGUA V0202301N007210024019N0096001N9+00581+00521101791ADDGA1061+002409079GA2081+003609059GF108991999999999999999999MA1999999100031MW1051MW2611
0088036553999991957012110004+51933-001250SAO  +0138EGUA V0202001N007710015019N0096001N9+00631+00581101791ADDGA1061+001509079GA2081+003609059GF108991999999999999999999MA1999999100031MW1051MW2611
0088036553999991957012111004+51933-001250SAO  +0138EGUA V0202001N006710018019N0096001N9+00691+00631101791ADDGA1061+001809079GA2081+003609059GF108991999999999999999999MA1999999100031MW1051MW2611
0125036553999991957012112004+51933-001250SAO  +0138EGUA V0202301N007210018019N0096001N9+00691+00631101751ADDAA124007091GA1061+001809079GA2081+003609059GF108991999999999999999999KA1999M+00691KA2999N+00411MA1999999100001MW1051MW2611
0088036553999991957012113004+51933-001250SAO  +0138EGUA V0202001N007710021019N0080001N9+00691+00631101751ADDGA1061+002109079GA2081+003609059GF108991999999999999999999MA1999999100001MW1051MW2611
0088036553999991957012114004+51933-001250SAO  +0138EGUA V0202001N008210018019N0080001N9+00691+00631101721ADDGA1061+001809079GA2081+003609059GF108991999999999999999999MA1999999099971MW1051MW2611
0088036553999991957012115004+51933-001250SAO  +0138EGUA V0202001N007210021019N0096001N9+00691+00631101681ADDGA1061+002109079GA2081+003609059GF108991999999999999999999MA1999999099931MW1051MW2611
0088036553999991957012116004+51933-001250SAO  +0138EGUA V0202001N007210021019N0096001N9+00691+00631101651ADDGA1061+002109079GA2081+003609059GF108991999999999999999999MA1999999099901MW1051MW2611
0088036553999991957012117004+51933-001250SAO  +0138EGUA V0202001N008710018019N0080001N9+00691+00631101651ADDGA1061+001809079GA2081+003609059GF108991999999999999999999MA1999999099901MW1051MW2611
0088036553999991957012118004+51933-001250SAO  +0138EGUA V0202001N008210018019N0080001N9+00691+00581101621ADDGA1061+001809079GA2081+003609059GF108991999999999999999999MA1999999099861MW1051MW2611
0088036553999991957012119004+51933-001250SAO  +0138EGUA V0202301N007210015019N0080001N9+00631+00581101621ADDGA1061+001509079GA2081+003609059GF108991999999999999999999MA1999999099861MW1051MW2611
0088036553999991957012120004+51933-001250SAO  +0138EGUA V0202301N007710015019N0080001N9+00631+00521101581ADDGA1071+001509079GA2081+003609059GF108991999999999999999999MA1999999099831MW1051MW2611
0088036553999991957012121004+51933-001250SAO  +0138EGUA V0202301N009310018019N0096001N9+00631+00521101511ADDGA1061+001809079GA2081+004809059GF108991999999999999999999MA1999999099761MW1051MW2611
0082036553999991957012122004+51933-001250SAO  +0138EGUA V0202301N008210057019N0096001N9+00631+00461101511ADDGA1031+001809079GA2061+005709059GF107991999999999999999999MA1999999099761MW1051
0082036553999991957012123004+51933-001250SAO  +0138EGUA V0202301N008710057019N0096001N9+00631+00521101511ADDGA1021+001809079GA2061+005709059GF107991999999999999999999MA1999999099761MW1051
0066036553999991957012200004+51933-001250SAO  +0138EGUA V0202001N008710075019N0144001N9+00631+00351101411ADDGA1051+007509059GF107991999999999999999999MA1999999099661MW1001
0066036553999991957012201004+51933-001250SAO  +0138EGUA V0202001N008710075019N0144001N9+00631+00351101411ADDGA1051+007509059GF107991999999999999999999MA1999999099661MW1001
0066036553999991957012202004+51933-001250SAO  +0138EGUA V0202001N008210075019N0144001N9+00631+00301101381ADDGA1051+007509059GF107991999999999999999999MA1999999099631MW1001
0066036553999991957012203004+51933-001250SAO  +0138EGUA V0202001N006710075019N0144001N9+00631+00301101381ADDGA1061+007509059GF107991999999999999999999MA1999999099631MW1001
0066036553999991957012204004+51933-001250SAO  +0138EGUA V0202001N006710075019N0144001N9+00581+00301101281ADDGA1061+007509059GF107991999999999999999999MA1999999099531MW1001
0066036553999991957012205004+51933-001250SAO  +0138EGUA V0202001N006710075019N0144001N9+00521+00241101281ADDGA1051+007509059GF107991999999999999999999MA1999999099531MW1001
0066036553999991957012206004+51933-001250SAO  +0138EGUA V0202001N005710105019N0144001N9+00521+00241101181ADDGA1051+010509059GF107991999999999999999999MA1999999099421MW1001
0066036553999991957012207004+51933-001250SAO  +0138EGUA V0202001N005710105019N0144001N9+00521+00241101141ADDGA1051+010509059GF107991999999999999999999MA1999999099391MW1001
0082036553999991957012208004+51933-001250SAO  +0138EGUA V0202001N007210084019N0096001N9+00581+00301101141ADDGA1051+008409059GA2041+024009039GF107991999999999999999999MA1999999099391MW1051
0133036553999991957012209004+51933-001250SAO  +0138EGUA V0202001N008210084019N0096001N9+00581+00411101141ADDGA1999+003309999GA2051+008409059GA3021+024009039GA4031+078009009GF107991999999999999999999MA1999999099391MW1051EQDQ01    003SCCGA1
0098036553999991957012210004+51933-001250SAO  +0138EGUA V0202001N007210780019N0096001N9+00631+00411101141ADDGA1021+005109079GA2031+024009039GA3061+078009009GF107991999999999999999999MA1999999099391MW1051
0098036553999991957012211004+51933-001250SAO  +0138EGUA V0202001N006210240019N0096001N9+00741+00411101141ADDGA1041+005109059GA2041+024009039GA3061+220009009GF108991999999999999999999MA1999999099391MW1051
0135036553999991957012212004+51933-001250SAO  +0138EGUA V0202001N006710054019N0096001N9+00741+00521101111ADDAA124999929GA1031+002409079GA2061+005409059GA3051+024009039GF108991999999999999999999KA1999M+00741KA2999N+00411MA1999999099361MW1051
0098036553999991957012213004+51933-001250SAO  +0138EGUA V0202001N008710048019N0096001N9+00741+00581101111ADDGA1041+002409079GA2061+004809059GA3081+024009039GF108991999999999999999999MA1999999099361MW1051
0098036553999991957012214004+51933-001250SAO  +0138EGUA V0201801N006210048019N0096001N9+00741+00581101041ADDGA1021+002409079GA2061+004809059GA3081+024009039GF108991999999999999999999MA1999999099291MW1051
0082036553999991957012215004+51933-001250SAO  +0138EGUA V0202001N005110051019N0096001N9+00741+00521101011ADDGA1051+005109059GA2081+024009039GF108991999999999999999999MA1999999099261MW1051
0082036553999991957012216004+51933-001250SAO  +0138EGUA V0202001N006710054019N0096001N9+00741+00461100971ADDGA1061+005409059GA2081+024009039GF108991999999999999999999MA1999999099221MW1051
0082036553999991957012217004+51933-001250SAO  +0138EGUA V0202001N007210054019N0096001N9+00691+00521100971ADDGA1061+005409059GA2081+024009039GF108991999999999999999999MA1999999099221MW1051
0082036553999991957012218004+51933-001250SAO  +0138EGUA V0202001N006210036019N0080001N9+00691+00461100941ADDGA1061+003609059GA2081+010509059GF108991999999999999999999MA1999999099221MW1051
0082036553999991957012219004+51933-001250SAO  +0138EGUA V0201801N005710120019N0080001N9+00631+00461100941ADDGA1021+003609059GA2081+012009059GF108991999999999999999999MA1999999099191MW1051
0066036553999991957012220004+51933-001250SAO  +0138EGUA V0201801N005112200019N0064001N9+00581+00411100941ADDGA1021+012009059GF102991999999999999999999MA1999999099191MW1051
0066036553999991957012221004+51933-001250SAO  +0138EGUA V0201801N005112200019N0064001N9+00461+00351100901ADDGA1021+003009079GF102991999999999999999999MA1999999099151MW1051
0066036553999991957012222004+51933-001250SAO  +0138EGUA V0201801N006212200019N0064001N9+00411+00301100901ADDGA1031+003009079GF102991999999999999999999MA1999999099151MW1051
0066036553999991957012223004+51933-001250SAO  +0138EGUA V0201801N006710027019N0064001N9+00521+00351100871ADDGA1081+002709079GF108991999999999999999999MA1999999099121MW1051
0066036553999991957012300004+51933-001250SAO  +0138EGUA V0201801N005110054019N0064001N9+00521+00351100841ADDGA1061+005409079GF107991999999999999999999MA1999999099091MW1051
0066036553999991957012301004+51933-001250SAO  +0138EGUA V0201801N004610057019N0064001N9+00521+00351100771ADDGA1051+005709059GF107991999999999999999999MA1999999099051MW1051
0066036553999991957012302004+51933-001250SAO  +0138EGUA V0201801N005110057019N0064001N9+00461+00191100701ADDGA1051+005709059GF107991999999999999999999MA1999999098981MW1051
0066036553999991957012303004+51933-001250SAO  +0138EGUA V0201801N005112200019N0064001N9+00461+00191100631ADDGA1021+006009059GF102991999999999999999999MA1999999098921MW1051
0066036553999991957012304004+51933-001250SAO  +0138EGUA V0201801N005712200019N0064001N9+00411+00241100571ADDGA1021+006009059GF102991999999999999999999MA1999999098851MW1051
0066036553999991957012305004+51933-001250SAO  +0138EGUA V0201801N006212200019N0064001N9+00411+00241100501ADDGA1021+006009059GF102991999999999999999999MA1999999098781MW1051
0066036553999991957012306004+51933-001250SAO  +0138EGUA V0201801N005112200019N0064001N9+00411+00241100431ADDGA1041+006009059GF102991999999999999999999MA1999999098711MW1051
0066036553999991957012307004+51933-001250SAO  +0138EGUA V0201801N006212200019N0064001N9+00411+00191100361ADDGA1041+006009059GF102991999999999999999999MA1999999098651MW1051
0066036553999991957012308004+51933-001250SAO  +0138EGUA V0201601N007212200019N0064001N9+00351+00241100331ADDGA1001+999999999GF100991999999999999999999MA1999999098611MW1051
0082036553999991957012309004+51933-001250SAO  +0138EGUA V0201801N007212200019N0064001N9+00351+00191100301ADDGA1011+003609079GA2031+007509059GF102991999999999999999999MA1999999098581MW1051
0066036553999991957012310004+51933-001250SAO  +0138EGUA V0201801N007710084019N0096001N9+00411+00241100231ADDGA1061+008409059GF107991999999999999999999MA1999999098511MW1051
0082036553999991957012311004+51933-001250SAO  +0138EGUA V0201801N008210045019N0096001N9+00521+00191100161ADDGA1061+004509079GA2051+008409059GF107991999999999999999999MA1999999098441MW1051
0119036553999991957012312004+51933-001250SAO  +0138EGUA V0201801N008710150019N0096001N9+00631+00461100031ADDAA124002091GA1021+004509079GA2051+015009059GF107991999999999999999999KA1999M+00691KA2999N+00351MA1999999098311MW1051
0088036553999991957012313004+51933-001250SAO  +0138EGUA V0201801N008210090019N0096001N9+00631+00411099851ADDGA1021+004509079GA2061+009009059GF107991999999999999999999MA1999999098141MW1051MW2611
