0072036553999991952010100004+51933-001250SAO  +0138EGUA V0201601N005110075019N0048001N9+00351+00301100371ADDGA1081+007509059GF108991999999999999999999MA1999999098651MW1451MW2611
0072036553999991952010101004+51933-001250SAO  +0138EGUA V0201801N005110030019N0032001N9+00411+00301100241ADDGA1081+003009059GF108991999999999999999999MA1999999098511MW1451MW2611
0066036553999991952010102004+51933-001250SAO  +0138EGUA V0202501N011312200019N0064001N9+00351+00021100241ADDGA1001+999999999GF100991999999999999999999MA1999999098511MW1051
0066036553999991952010103004+51933-001250SAO  +0138EGUA V0202701N010812200019N0064001N9+00241-00041100341ADDGA1001+999999999GF100991999999999999999999MA1999999098611MW1051
0066036553999991952010104004+51933-001250SAO  +0138EGUA V0202701N009812200019N0064001N9+00241-00151100371ADDGA1001+999999999GF100991999999999999999999MA1999999098651MW1051
0066036553999991952010105004+51933-001250SAO  +0138EGUA V0202701N010312200019N0064001N9+00191-00151100441ADDGA1001+999999999GF100991999999999999999999MA1999999098711MW1051
0066036553999991952010106004+51933-001250SAO  +0138EGUA V0202301N010312200019N0064001N9+00191-00151100611ADDGA1001+999999999GF100991999999999999999999MA1999999098881MW1051
0066036553999991952010107004+51933-001250SAO  +0138EGUA V0202301N008212200019N0128001N9+00191-00261100681ADDGA1001+999999999GF100991999999999999999999MA1999999098951MW1001
0066036553999991952010108004+51933-001250SAO  +0138EGUA V0202501N008212200019N0112001N9+00191-00091100681ADDGA1021+012009059GF102991999999999999999999MA1999999098951MW1001
0066036553999991952010109004+51933-001250SAO  +0138EGUA V0202301N006212200019N0160001N9+00131-00091100811ADDGA1021+010509059GF102991999999999999999999MA1999999099051MW1001
0066036553999991952010110004+51933-001250SAO  +0138EGUA V0202301N008212200019N0160001N9+00241-00091100911ADDGA1021+009009059GF102991999999999999999999MA1999999099151MW1001
0066036553999991952010111004+51933-001250SAO  +0138EGUA V0202301N008212200019N0160001N9+00301-00091100981ADDGA1021+009009059GF102991999999999999999999MA1999999099221MW1001
0103036553999991952010112004+51933-001250SAO  +0138EGUA V0202301N010312200019N0160001N9+00351+00081100981ADDAA124003091GA1021+009009059GF102991999999999999999999KA1999M+00741KA2999N+00131MA1999999099221MW1001
0066036553999991952010113004+51933-001250SAO  +0138EGUA V0202301N010812200019N0160001N9+00411+00081100981ADDGA1021+009009059GF102991999999999999999999MA1999999099221MW1001
0066036553999991952010114004+51933-001250SAO  +0138EGUA V0202301N008212200019N0160001N9+00461+00081100981ADDGA1021+009009059GF102991999999999999999999MA1999999099221MW1001
0066036553999991952010115004+51933-001250SAO  +0138EGUA V0202301N006212200019N0160001N9+00461+00081101021ADDGA1021+007509059GF102991999999999999999999MA1999999099261MW1001
0066036553999991952010116004+51933-001250SAO  +0138EGUA V0202301N006712200019N0160001N9+00411+00081101021ADDGA1021+007509059GF102991999999999999999999MA1999999099261MW1001
0082036553999991952010117004+51933-001250SAO  +0138EGUA V0202301N004612200019N0160001N9+00351+00081100981ADDGA1021+007509059GA2021+060009009GF102991999999999999999999MA1999999099221MW1001
0082036553999991952010118004+51933-001250SAO  +0138EGUA V0202001N008212200019N0160001N9+00411+00081100881ADDGA1021+007509059GA2021+060009009GF102991999999999999999999MA1999999099121MW1001
0066036553999991952010119004+51933-001250SAO  +0138EGUA V0202001N007710075019N0112001N9+00411+00131100751ADDGA1081+007509059GF108991999999999999999999MA1999999099021MW1001
0072036553999991952010120004+51933-001250SAO  +0138EGUA V0202001N008210075019N0048001N9+00411+00301100641ADDGA1081+007509059GF108991999999999999999999MA1999999098921MW1051MW2801
0072036553999991952010121004+51933-001250SAO  +0138EGUA V0201801N006710075019N0048001N9+00411+00351100341ADDGA1081+007509059GF108991999999999999999999MA1999999098611MW1051MW2801
0072036553999991952010122004+51933-001250SAO  +0138EGUA V0202001N008710075019N0048001N9+00581+00581100041ADDGA1081+007509059GF108991999999999999999999MA1999999098311MW1051MW2811
0072036553999991952010123004+51933-001250SAO  +0138EGUA V0202001N008210075019N0048001N9+00581+00581099931ADDGA1081+007509059GF108991999999999999999999MA1999999098211MW1051MW2801
0072036553999991952010200004+51933-001250SAO  +0138EGUA V0202501N006710075019N0048001N9+00741+00741099901ADDGA1081+007509059GF108991999999999999999999MA1999999098171MW1051MW2801
0066036553999991952010201004+51933-001250SAO  +0138EGUA V0202301N011310075019N0048001N9+00801+00631099761ADDGA1081+007509059GF108991999999999999999999MA1999999098041MW1051
0066036553999991952010202004+51933-001250SAO  +0138EGUA V0202501N015412200019N0080001N9+00911+00461099761ADDGA1041+007509059GF102991999999999999999999MA1999999098041MW1051
0066036553999991952010203004+51933-001250SAO  +0138EGUA V0202501N012912200019N0096001N9+00801+00351099801ADDGA1001+999999999GF100991999999999999999999MA1999999098071MW1051
0066036553999991952010204004+51933-001250SAO  +0138EGUA V0202301N008212200019N0096001N9+00691+00191099831ADDGA1001+999999999GF100991999999999999999999MA1999999098101MW1051
0066036553999991952010205004+51933-001250SAO  +0138EGUA V0202301N008712200019N0096001N9+00631+00191099801ADDGA1021+015009059GF102991999999999999999999MA1999999098071MW1051
0066036553999991952010206004+51933-001250SAO  +0138EGUA V0202301N007212200019N0096001N9+00691+00301099701ADDGA1021+015009059GF102991999999999999999999MA1999999097971MW1051
0066036553999991952010207004+51933-001250SAO  +0138EGUA V0202301N009810120019N0096001N9+00691+00301099661ADDGA1071+012009059GF107991999999999999999999MA1999999097931MW1051
0066036553999991952010208004+51933-001250SAO  +0138EGUA V0202301N008710030019N0096001N9+00631+00191099661ADDGA1061+003009059GF107991999999999999999999MA1999999097931MW1051
0088036553999991952010209004+51933-001250SAO  +0138EGUA V0202301N009810030019N0080001N9+00631+00131099701ADDGA1051+003009079GA2061+006009059GF107991999999999999999999MA1999999097971MW1051MW2511
0082036553999991952010210004+51933-001250SAO  +0138EGUA V0202301N007710090019N0128001N9+00581+00191099701ADDGA1021+004209079GA2051+009009059GF107991999999999999999999MA1999999097971MW1001
0082036553999991952010211004+51933-001250SAO  +0138EGUA V0202301N006710090019N0128001N9+00581+00191099631ADDGA1021+003309079GA2051+009009059GF107991999999999999999999MA1999999097901MW1001
0103036553999991952010212004+51933-001250SAO  +0138EGUA V0202301N003110105019N0128001N9+00631+00131099531ADDAA124019091GA1061+010509059GF107991999999999999999999KA1999M+00911KA2999N+00191MA1999999097801MW1001
0072036553999991952010213004+51933-001250SAO  +0138EGUA V0202301N009810075019N0080001N9+00301+00241099461ADDGA1061+007509059GF107991999999999999999999MA1999999097731MW1051MW2631
0098036553999991952010214004+51933-001250SAO  +0138EGUA V0202301N006710180019N0128001N9+00411+00131099361ADDGA1011+007509089GA2051+018009049GA3021+060009029GF107991999999999999999999MA1999999097631MW1001
0066036553999991952010215004+51933-001250SAO  +0138EGUA V0202301N006712200019N0128001N9+00521+00131099291ADDGA1021+006009089GF102991999999999999999999MA1999999097561MW1001
0066036553999991952010216004+51933-001250SAO  +0138EGUA V0202701N005110060019N0080001N9+00461+00081099261ADDGA1051+006009089GF107991999999999999999999MA1999999097531MW1051
0066036553999991952010217004+51933-001250SAO  +0138EGUA V0202301N005112200019N0096001N9+00241-00041099221ADDGA1021+036009049GF102991999999999999999999MA1999999097491MW1051
0066036553999991952010218004+51933-001250SAO  +0138EGUA V0202001N005712200019N0096001N9+00191-00091099191ADDGA1021+036009049GF102991999999999999999999MA1999999097461MW1051
0066036553999991952010219004+51933-001250SAO  +0138EGUA V0201801N003612200019N0096001N9+00191+00191099121ADDGA1001+999999999GF100991999999999999999999MA1999999097391MW1051
0066036553999991952010220004+51933-001250SAO  +0138EGUA V0201601N005112200019N0096001N9+00191+00191099091ADDGA1061+015009059GF107991999999999999999999MA1999999097361MW1051
0066036553999991952010221004+51933-001250SAO  +0138EGUA V0202001N005710120019N0096001N9+00191+00131099021ADDGA1081+012009059GF108991999999999999999999MA1999999097321MW1051
0066036553999991952010222004+51933-001250SAO  +0138EGUA V0202301N005710105019N0096001N9+00191+00081099021ADDGA1081+010509059GF108991999999999999999999MA1999999097321MW1051
0066036553999991952010223004+51933-001250SAO  +0138EGUA V0202501N005110150019N0096001N9+00191+00081099121ADDGA1051+015009059GF107991999999999999999999MA1999999097391MW1051
0066036553999991952010300004+51933-001250SAO  +0138EGUA V0202301N005710150019N0096001N9+00301+00081099021ADDGA1081+015009059GF108991999999999999999999MA1999999097631MW1051
0066036553999991952010301004+51933-001250SAO  +0138EGUA V0203201N008710075019N0096001N9+00191+00021099491ADDGA1081+007509059GF108991999999999999999999MA1999999097771MW1051
0066036553999991952010302004+51933-001250SAO  +0138EGUA V0203601N008710075019N0064001N9+00191+00081099661ADDGA1081+007509059GF108991999999999999999999MA1999999097971MW1051
0066036553999991952010303004+51933-001250SAO  +0138EGUA V0203201N009310030019N0048001N9+00081+00081099831ADDGA1081+003009079GF108991999999999999999999MA1999999098101MW1711
0066036553999991952010304004+51933-001250SAO  +0138EGUA V0203201N008210030019N0016001N9+00021+00021100001ADDGA1081+003009079GF108991999999999999999999MA1999999098241MW1711
0066036553999991952010305004+51933-001250SAO  +0138EGUA V0203201N005710030019N0048001N9+00081+00021100141ADDGA1081+003009079GF108991999999999999999999MA1999999098371MW1051
0066036553999991952010306004+51933-001250SAO  +0138EGUA V0203201N004612200019N0040001N9+00021+00021100241ADDGA1001+999999999GF100991999999999999999999MA1999999098481MW1051
0066036553999991952010307004+51933-001250SAO  +0138EGUA V0203201N003612200019N0040001N9+00021-00041100341ADDGA1001+999999999GF100991999999999999999999MA1999999098581MW1051
0066036553999991952010308004+51933-001250SAO  +0138EGUA V0203201N003612200019N0080001N9-00091-00091100471ADDGA1001+999999999GF100991999999999999999999MA1999999098711MW1051
0066036553999991952010309004+51933-001250SAO  +0138EGUA V0202301N002612200019N0080001N9-00041-00091100641ADDGA1001+999999999GF100991999999999999999999MA1999999098881MW1051
0066036553999991952010310004+51933-001250SAO  +0138EGUA V0202301N002612200019N0096001N9+00021-00151100751ADDGA1021+010509089GF102991999999999999999999MA1999999098981MW1051
0066036553999991952010311004+51933-001250SAO  +0138EGUA V0202301N002112200019N0112001N9+00131-00151100811ADDGA1001+999999999GF100991999999999999999999MA1999999099051MW1001
0120036553999991952010312004+51933-001250SAO  +0138EGUA V0202701N007712200019N0112001N9+00301-00371100851ADDAA124002091AJ100039199999999GA1021+007509059GF102991999999999999999999KA1999M+00351KA2999N-00091MA1999999099121MW1001
0066036553999991952010313004+51933-001250SAO  +0138EGUA V0202701N005712200019N0112001N9+00301+00021100881ADDGA1021+009009089GF102991999999999999999999MA1999999099151MW1001
0066036553999991952010314004+51933-001250SAO  +0138EGUA V0202701N006712200019N0112001N9+00351-00041100981ADDGA1021+009009089GF102991999999999999999999MA1999999099221MW1001
0066036553999991952010315004+51933-001250SAO  +0138EGUA V0202701N005712200019N0112001N9+00351+00021101051ADDGA1031+009009089GF102991999999999999999999MA1999999099291MW1001
0066036553999991952010316004+51933-001250SAO  +0138EGUA V0203201N005110060019N0064001N9+00351+00021101151ADDGA1051+006009059GF107991999999999999999999MA1999999099391MW1051
0072036553999991952010317004+51933-001250SAO  +0138EGUA V0202901N008210060019N0064001N9+00301+00081101251ADDGA1061+006009059GF107991999999999999999999MA1999999099461MW1051MW2611
0066036553999991952010318004+51933-001250SAO  +0138EGUA V0202901N009812200019N0064001N9+00301+00081101321ADDGA1021+006009059GF102991999999999999999999MA1999999099531MW1051
0066036553999991952010319004+51933-001250SAO  +0138EGUA V0202901N008712200019N0080001N9+00241+00021101421ADDGA1011+007509059GF102991999999999999999999MA1999999099631MW1051
0066036553999991952010320004+51933-001250SAO  +0138EGUA V0203201N006712200019N0112001N9+00241+00081101521ADDGA1011+007509059GF102991999999999999999999MA1999999099731MW1001
0066036553999991952010321004+51933-001250SAO  +0138EGUA V0203201N005712200019N0112001N9+00241+00081101631ADDGA1021+010509059GF102991999999999999999999MA1999999099831MW1001
0066036553999991952010322004+51933-001250SAO  +0138EGUA V0203201N007712200019N0112001N9+00191+00081101661ADDGA1021+010509059GF102991999999999999999999MA1999999099861MW1001
0066036553999991952010323004+51933-001250SAO  +0138EGUA V0202901N006712200019N0112001N9+00191+00021101731ADDGA1001+999999999GF100991999999999999999999MA1999999099931MW1001
0066036553999991952010400004+51933-001250SAO  +0138EGUA V0202701N005112200019N0112001N9+00241+00081101831ADDGA1001+999999999GF100991999999999999999999MA1999999100071MW1001
0066036553999991952010401004+51933-001250SAO  +0138EGUA V0202701N006712200019N0096001N9+00241-00041101901ADDGA1001+999999999GF100991999999999999999999MA1999999100141MW1051
0066036553999991952010402004+51933-001250SAO  +0138EGUA V0203201N006712200019N0096001N9+00301-00091101961ADDGA1001+999999999GF100991999999999999999999MA1999999100201MW1051
0066036553999991952010403004+51933-001250SAO  +0138EGUA V0202701N004612200019N0096001N9+00131+00021102031ADDGA1001+999999999GF100991999999999999999999MA1999999100271MW1051
0066036553999991952010404004+51933-001250SAO  +0138EGUA V0202701N003612200019N0096001N9+00131-00151102031ADDGA1001+999999999GF100991999999999999999999MA1999999100271MW1051
0066036553999991952010405004+51933-001250SAO  +0138EGUA V0202301N003612200019N0096001N9+00131-00151102031ADDGA1001+999999999GF100991999999999999999999MA1999999100271MW1051
0066036553999991952010406004+51933-001250SAO  +0138EGUA V0202701N002612200019N0096001N9+00081+00081102071ADDGA1001+999999999GF100991999999999999999999MA1999999100301MW1051
0066036553999991952010407004+51933-001250SAO  +0138EGUA V0202001N002612200019N0096001N9+00021+00021102071ADDGA1001+999999999GF100991999999999999999999MA1999999100301MW1051
0066036553999991952010408004+51933-001250SAO  +0138EGUA V0202301N003612200019N0096001N9+00021+00021102101ADDGA1001+999999999GF100991999999999999999999MA1999999100301MW1051
0066036553999991952010409004+51933-001250SAO  +0138EGUA V0202001N002612200019N0112001N9+00021+00021102101ADDGA1011+010509059GF102991999999999999999999MA1999999100301MW1001
0066036553999991952010410004+51933-001250SAO  +0138EGUA V0202301N001512200019N0112001N9+00081-00041102101ADDGA1021+012009059GF102991999999999999999999MA1999999100301MW1001
0082036553999991952010411004+51933-001250SAO  +0138EGUA V0202301N003610120019N0112001N9+00191-00261102071ADDGA1061+012009059GA2011+060009009GF107991999999999999999999MA1999999100301MW1001
0119036553999991952010412004+51933-001250SAO  +0138EGUA V0201801N004110120019N0080001N9+00191-00091102031ADDAA124007091GA1061+012009059GA2021+030009049GF108991999999999999999999KA1999M+00631KA2999N+00021MA1999999100301MW1051
0082036553999991952010413004+51933-001250SAO  +0138EGUA V0201801N005110120019N0064001N9+00241-00041102031ADDGA1051+012009059GA2021+030009049GF107991999999999999999999MA1999999100271MW1051
0082036553999991952010414004+51933-001250SAO  +0138EGUA V0201801N003110300019N0064001N9+00301+00191101901ADDGA1031+010509059GA2051+030009049GF108991999999999999999999MA1999999100141MW1051
0082036553999991952010415004+51933-001250SAO  +0138EGUA V0201801N004610300019N0080001N9+00351+00021101761ADDGA1021+009009059GA2061+030009049GF108991999999999999999999MA1999999100001MW1051
0072036553999991952010416004+51933-001250SAO  +0138EGUA V0201801N003610018019N0016001N9+00351+00191101661ADDGA1081+001809079GF108991999999999999999999MA1999999099901MW1051MW2611
0072036553999991952010417004+51933-001250SAO  +0138EGUA V0201601N006710018019N0016001N9+00351+00241101461ADDGA1081+001809059GF108991999999999999999999MA1999999099701MW1051MW2611
0072036553999991952010418004+51933-001250SAO  +0138EGUA V0201601N008710030019N0032001N9+00411+00301101191ADDGA1081+003009059GF108991999999999999999999MA1999999099421MW1051MW2631
0072036553999991952010419004+51933-001250SAO  +0138EGUA V0201801N005110030019N0032001N9+00461+00461101121ADDGA1081+003009059GF108991999999999999999999MA1999999099361MW1051MW2631
0066036553999991952010420004+51933-001250SAO  +0138EGUA V0202001N003610060019N0048001N9+00581+00461101051ADDGA1071+006009059GF107991999999999999999999MA1999999099291MW1051
0066036553999991952010421004+51933-001250SAO  +0138EGUA V0202501N008710060019N0048001N9+00631+00461101051ADDGA1081+006009059GF108991999999999999999999MA1999999099291MW1051
0066036553999991952010422004+51933-001250SAO  +0138EGUA V0202701N005710045019N0032001N9+00581+00461101081ADDGA1081+004509059GF108991999999999999999999MA1999999099321MW1801
0066036553999991952010423004+51933-001250SAO  +0138EGUA V0202701N010310045019N0032001N9+00631+00411101121ADDGA1081+004509059GF108991999999999999999999MA1999999099361MW1611
0066036553999991952010500004+51933-001250SAO  +0138EGUA V0202901N011310045019N0032001N9+00581+00351101191ADDGA1081+004509059GF108991999999999999999999MA1999999099421MW1611
0066036553999991952010501004+51933-001250SAO  +0138EGUA V0203201N010312200019N0032001N9+00631+00351101251ADDGA1081+004509059GF108991999999999999999999MA1999999099491MW1051
0066036553999991952010502004+51933-001250SAO  +0138EGUA V0203201N009812200019N0032001N9+00581+00411101391ADDGA1081+004509059GF108991999999999999999999MA1999999099631MW1051
0066036553999991952010503004+51933-001250SAO  +0138EGUA V0203201N010810045019N0032001N9+00631+00351101521ADDGA1061+004509059GF107991999999999999999999MA1999999099761MW1051
0066036553999991952010504004+51933-001250SAO  +0138EGUA V0203201N011310045019N0032001N9+00631+00301101631ADDGA1061+004509059GF107991999999999999999999MA1999999099861MW1051
0066036553999991952010505004+51933-001250SAO  +0138EGUA V0203201N010310045019N0032001N9+00581+00301101691ADDGA1051+004509059GF107991999999999999999999MA1999999099931MW1051
0066036553999991952010506004+51933-001250SAO  +0138EGUA V0203201N008712200019N0064001N9+00521+00241101831ADDGA1021+004509059GF102991999999999999999999MA1999999100071MW1051
0066036553999991952010507004+51933-001250SAO  +0138EGUA V0203201N006712200019N0064001N9+00461-00041101931ADDGA1021+004509059GF102991999999999999999999MA1999999100171MW1051
0066036553999991952010508004+51933-001250SAO  +0138EGUA V0203201N006712200019N0064001N9+00411+00131102071ADDGA1001+999999999GF100991999999999999999999MA1999999100301MW1051
0082036553999991952010509004+51933-001250SAO  +0138EGUA V0203201N006210600019N0096001N9+00411+00131102201ADDGA1021+009009059GA2051+060009029GF107991999999999999999999MA1999999100441MW1051
0082036553999991952010510004+51933-001250SAO  +0138EGUA V0202901N005110600019N0096001N9+00461+00081102301ADDGA1011+003009059GA2081+060009029GF108991999999999999999999MA1999999100541MW1051
0082036553999991952010511004+51933-001250SAO  +0138EGUA V0203201N005112200019N0096001N9+00461+00191102441ADDGA1021+003009059GA2061+060009029GF107991999999999999999999MA1999999100681MW1051
0119036553999991952010512004+51933-001250SAO  +0138EGUA V0202701N006210300019N0096001N9+00581+00191102471ADDAA124999929GA1021+003009059GA2041+030009049GF107991999999999999999999KA1999M+00631KA2999N+00411MA1999999100711MW1051
0066036553999991952010513004+51933-001250SAO  +0138EGUA V0203201N006210240019N0096001N9+00631+00191102511ADDGA1071+024009039GF107991999999999999999999MA1999999100751MW1051
0082036553999991952010514004+51933-001250SAO  +0138EGUA V0203201N006210540019N0096001N9+00631+00241102541ADDGA1021+009009059GA2081+054009049GF108991999999999999999999MA1999999100781MW1051
0066036553999991952010515004+51933-001250SAO  +0138EGUA V0202901N004610120019N0096001N9+00631+00411102641ADDGA1081+012009059GF108991999999999999999999MA1999999100881MW1051
0066036553999991952010516004+51933-001250SAO  +0138EGUA V0202901N003610090019N0096001N9+00581+00461102711ADDGA1081+009009059GF108991999999999999999999MA1999999100951MW1051
0066036553999991952010517004+51933-001250SAO  +0138EGUA V0202701N004610120019N0096001N9+00631+00411102781ADDGA1081+012009059GF108991999999999999999999MA1999999101021MW1051
0066036553999991952010518004+51933-001250SAO  +0138EGUA V0202301N003110135019N0128001N9+00631+00411102811ADDGA1051+013509059GF107991999999999999999999MA1999999101051MW1001
0066036553999991952010519004+51933-001250SAO  +0138EGUA V0202301N002612200019N0128001N9+00581+00351102811ADDGA1031+013509059GF102991999999999999999999MA1999999101051MW1001
0066036553999991952010520004+51933-001250SAO  +0138EGUA V0202301N002112200019N0128001N9+00521+00241102881ADDGA1001+999999999GF100991999999999999999999MA1999999101081MW1001
0066036553999991952010521004+51933-001250SAO  +0138EGUA V0202001N003110135019N0128001N9+00521+00351102951ADDGA1081+013509059GF108991999999999999999999MA1999999101151MW1001
0066036553999991952010522004+51933-001250SAO  +0138EGUA V0202001N002110090019N0112001N9+00411+00411103011ADDGA1081+009009059GF108991999999999999999999MA1999999101221MW1001
0066036553999991952010523004+51933-001250SAO  +0138EGUA V0202301N002110090019N0080001N9+00461+00411103081ADDGA1081+009009059GF108991999999999999999999MA1999999101291MW1051
0066036553999991952010600004+51933-001250SAO  +0138EGUA V0202301N002110090019N0080001N9+00521+00461103121ADDGA1081+009009059GF108991999999999999999999MA1999999101321MW1051
0066036553999991952010601004+51933-001250SAO  +0138EGUA V0202301N001512200019N0096001N9+00521+00461103121ADDGA1021+060009029GF102991999999999999999999MA1999999101321MW1051
0066036553999991952010602004+51933-001250SAO  +0138EGUA V0202301N003110030019N0064001N9+00631+00521103121ADDGA1081+003009079GF108991999999999999999999MA1999999101321MW1051
0066036553999991952010603004+51933-001250SAO  +0138EGUA V0202301N001510030019N0064001N9+00691+00581103181ADDGA1081+003009079GF108991999999999999999999MA1999999101391MW1051
0066036553999991952010604004+51933-001250SAO  +0138EGUA V0202301N004110030019N0032001N9+00741+00631103221ADDGA1081+003009079GF108991999999999999999999MA1999999101421MW1451
0066036553999991952010605004+51933-001250SAO  +0138EGUA V0202301N003110030019N0032001N9+00741+00631103251ADDGA1081+003009079GF108991999999999999999999MA1999999101461MW1451
0066036553999991952010606004+51933-001250SAO  +0138EGUA V0202301N002110030019N0032001N9+00631+00631103291ADDGA1081+003009079GF108991999999999999999999MA1999999101491MW1451
0072036553999991952010607004+51933-001250SAO  +0138EGUA V0202501N002110042019N0064001N9+00581+00581103291ADDGA1081+004209079GF108991999999999999999999MA1999999101491MW1451MW2511
0072036553999991952010608004+51933-001250SAO  +0138EGUA V0202301N001510042019N0064001N9+00741+00631103321ADDGA1081+004209079GF108991999999999999999999MA1999999101521MW1451MW2511
0066036553999991952010609004+51933-001250SAO  +0138EGUA V0202301N001510042019N0016001N9+00741+00631103391ADDGA1081+004209079GF108991999999999999999999MA1999999101591MW1451
0066036553999991952010610004+51933-001250SAO  +0138EGUA V0202001N002610042019N0004001N9+00741+00741103421ADDGA1081+004209079GF108991999999999999999999MA1999999101631MW1451
0072036553999991952010611004+51933-001250SAO  +0138EGUA V0202301N001010042019N0004001N9+00741+00741103451ADDGA1081+004209079GF108991999999999999999999MA1999999101661MW1451MW2511
0109036553999991952010612004+51933-001250SAO  +0138EGUA V0202301N001510042019N0016001N9+00741+00741103391ADDAA124999929GA1081+004209079GF108991999999999999999999KA1999M+00911KA2999N+00521MA1999999101631MW1451MW2511
0066036553999991952010613004+51933-001250SAO  +0138EGUA V0202001N002110042019N0016001N9+00801+00801103391ADDGA1081+004209079GF108991999999999999999999MA1999999101631MW1451
0082036553999991952010614004+51933-001250SAO  +0138EGUA V0202301N003610042019N0016001N9+00911+00911103391ADDGA1061+004209079GA2021+006009059GF108991999999999999999999MA1999999101591MW1451
0082036553999991952010615004+51933-001250SAO  +0138EGUA V0202301N003610024019N0016001N9+00911+00801103351ADDGA1061+002409079GA2031+006009059GF108991999999999999999999MA1999999101591MW1451
0082036553999991952010616004+51933-001250SAO  +0138EGUA V0202301N004610024019N0016001N9+00911+00801103351ADDGA1061+002409079GA2031+006009059GF108991999999999999999999MA1999999101591MW1451
0082036553999991952010617004+51933-001250SAO  +0138EGUA V0202301N005110021019N0016001N9+00911+00851103351ADDGA1061+002109079GA2031+006009059GF108991999999999999999999MA1999999101591MW1451
0066036553999991952010618004+51933-001250SAO  +0138EGUA V0202301N005110030019N0032001N9+00911+00691103421ADDGA1081+003009079GF108991999999999999999999MA1999999101661MW1451
0066036553999991952010619004+51933-001250SAO  +0138EGUA V0202301N006210030019N0032001N9+00911+00741103451ADDGA1081+003009079GF108991999999999999999999MA1999999101661MW1451
0066036553999991952010620004+51933-001250SAO  +0138EGUA V0202301N007710030019N0032001N9+00911+00741103451ADDGA1081+003009079GF108991999999999999999999MA1999999101661MW1451
0066036553999991952010621004+51933-001250SAO  +0138EGUA V0202301N004610030019N0032001N9+00911+00801103421ADDGA1081+003009079GF108991999999999999999999MA1999999101661MW1451
0066036553999991952010622004+51933-001250SAO  +0138EGUA V0202301N007210030019N0032001N9+00911+00801103441ADDGA1081+003009079GF108991999999999999999999MA1999999101691MW1451
0066036553999991952010623004+51933-001250SAO  +0138EGUA V0202301N006710030019N0032001N9+00911+00801103481ADDGA1081+003009079GF108991999999999999999999MA1999999101731MW1451
0066036553999991952010700004+51933-001250SAO  +0138EGUA V0202301N006710030019N0032001N9+00911+00691103391ADDGA1081+003009079GF108991999999999999999999MA1999999101631MW1451
0066036553999991952010701004+51933-001250SAO  +0138EGUA V0202001N007710045019N0048001N9+00911+00741103381ADDGA1081+004509059GF108991999999999999999999MA1999999101631MW1051
0066036553999991952010702004+51933-001250SAO  +0138EGUA V0202001N006710045019N0048001N9+00911+00741103381ADDGA1081+004509059GF108991999999999999999999MA1999999101631MW1051
0066036553999991952010703004+51933-001250SAO  +0138EGUA V0202001N005710045019N0048001N9+00911+00691103411ADDGA1081+004509059GF108991999999999999999999MA1999999101661MW1051
0066036553999991952010704004+51933-001250SAO  +0138EGUA V0202001N005110045019N0048001N9+00851+00741103411ADDGA1081+004509059GF108991999999999999999999MA1999999101661MW1051
0066036553999991952010705004+51933-001250SAO  +0138EGUA V0202001N005710045019N0048001N9+00851+00691103381ADDGA1081+004509059GF108991999999999999999999MA1999999101631MW1051
0066036553999991952010706004+51933-001250SAO  +0138EGUA V0202001N006710045019N0048001N9+00851+00691103391ADDGA1081+004509059GF108991999999999999999999MA1999999101631MW1051
0066036553999991952010707004+51933-001250SAO  +0138EGUA V0202301N006710045019N0048001N9+00851+00691103381ADDGA1081+004509059GF108991999999999999999999MA1999999101631MW1051
0082036553999991952010708004+51933-001250SAO  +0138EGUA V0201801N003110024019N0048001N9+00851+00691103411ADDGA1071+002409059GA2021+006009059GF108991999999999999999999MA1999999101631MW1051
0082036553999991952010709004+51933-001250SAO  +0138EGUA V0202301N005710060019N0064001N9+00851+00741103441ADDGA1021+004509079GA2061+006009059GF108991999999999999999999MA1999999101691MW1051
0082036553999991952010710004+51933-001250SAO  +0138EGUA V0202001N007710045019N0080001N9+00911+00691103411ADDGA1061+004509059GA2061+006009059GF108991999999999999999999MA1999999101731MW1051
0082036553999991952010711004+51933-001250SAO  +0138EGUA V0202001N007710045019N0080001N9+00911+00741103511ADDGA1061+004509059GA2061+006009059GF108991999999999999999999MA1999999101761MW1051
0119036553999991952010712004+51933-001250SAO  +0138EGUA V0202301N005710045019N0080001N9+00911+00741103481ADDAA124999929GA1061+004509059GA2061+006009059GF108991999999999999999999KA1999M+01021KA2999N+00851MA1999999101731MW1051
0082036553999991952010713004+51933-001250SAO  +0138EGUA V0202301N004110045019N0096001N9+00961+00741103421ADDGA1061+004509059GA2061+006009059GF108991999999999999999999MA1999999101661MW1051
0066036553999991952010714004+51933-001250SAO  +0138EGUA V0202301N006710045019N0096001N9+00911+00911103381ADDGA1071+004509059GF107991999999999999999999MA1999999101631MW1051
0082036553999991952010715004+51933-001250SAO  +0138EGUA V0202301N006710030019N0096001N9+00961+00801103381ADDGA1051+003009079GA2071+004509059GF107991999999999999999999MA1999999101631MW1051
0082036553999991952010716004+51933-001250SAO  +0138EGUA V0202301N006710030019N0096001N9+01021+00801103411ADDGA1051+003009079GA2071+004509059GF107991999999999999999999MA1999999101661MW1051
0082036553999991952010717004+51933-001250SAO  +0138EGUA V0202001N005710030019N0080001N9+00961+00911103411ADDGA1051+003009079GA2061+004509059GF107991999999999999999999MA1999999101661MW1051
0082036553999991952010718004+51933-001250SAO  +0138EGUA V0202301N005710030019N0080001N9+01021+00851103481ADDGA1051+003009079GA2021+004509059GF107991999999999999999999MA1999999101731MW1051
0082036553999991952010719004+51933-001250SAO  +0138EGUA V0202301N005710030019N0080001N9+01021+00801103511ADDGA1051+003009079GA2021+004509059GF107991999999999999999999MA1999999101761MW1051
0082036553999991952010720004+51933-001250SAO  +0138EGUA V0202301N005710030019N0080001N9+00961+00851103551ADDGA1051+003009079GA2021+004509059GF107991999999999999999999MA1999999101791MW1051
0082036553999991952010721004+51933-001250SAO  +0138EGUA V0202301N006210030019N0064001N9+00911+00851103551ADDGA1051+003009079GA2021+004509059GF107991999999999999999999MA1999999101791MW1611
0082036553999991952010722004+51933-001250SAO  +0138EGUA V0202001N003110030019N0096001N9+00961+00741103551ADDGA1051+003009079GA2021+004509059GF107991999999999999999999MA1999999101791MW1051
0082036553999991952010723004+51933-001250SAO  +0138EGUA V0201801N003110030019N0096001N9+00911+00801103511ADDGA1051+003009079GA2021+004509059GF107991999999999999999999MA1999999101761MW1051
0082036553999991952010800004+51933-001250SAO  +0138EGUA V0202001N003610030019N0096001N9+00911+00741103381ADDGA1051+003009079GA2021+004509059GF107991999999999999999999MA1999999101661MW1051
0072036553999991952010801004+51933-001250SAO  +0138EGUA V0201801N003610030019N0048001N9+00801+00691103351ADDGA1081+003009079GF108991999999999999999999MA1999999101591MW1051MW2511
0072036553999991952010802004+51933-001250SAO  +0138EGUA V0201801N002610030019N0048001N9+00801+00691103311ADDGA1081+003009079GF108991999999999999999999MA1999999101561MW1051MW2511
0072036553999991952010803004+51933-001250SAO  +0138EGUA V0201801N005110030019N0048001N9+00801+00691103211ADDGA1081+003009079GF108991999999999999999999MA1999999101461MW1051MW2511
0072036553999991952010804004+51933-001250SAO  +0138EGUA V0201801N006710030019N0048001N9+00801+00741103111ADDGA1081+003009079GF108991999999999999999999MA1999999101351MW1051MW2511
0072036553999991952010805004+51933-001250SAO  +0138EGUA V0202001N007710030019N0048001N9+00801+00741103001ADDGA1081+003009079GF108991999999999999999999MA1999999101251MW1051MW2511
0066036553999991952010806004+51933-001250SAO  +0138EGUA V0201801N005110030019N0048001N9+00801+00691102871ADDGA1081+003009079GF108991999999999999999999MA1999999101121MW1051
0066036553999991952010807004+51933-001250SAO  +0138EGUA V0201801N005110030019N0048001N9+00801+00581102741ADDGA1081+003009079GF108991999999999999999999MA1999999101021MW1051
0082036553999991952010808004+51933-001250SAO  +0138EGUA V0201801N006710021019N0048001N9+00691+00581102681ADDGA1051+002109079GA2031+004509059GF108991999999999999999999MA1999999100951MW1051
0098036553999991952010809004+51933-001250SAO  +0138EGUA V0201801N006710240019N0064001N9+00741+00691102501ADDGA1021+004209079GA2021+006009059GA3041+024009049GF107991999999999999999999MA1999999100781MW1051
0082036553999991952010810004+51933-001250SAO  +0138EGUA V0202001N007210045019N0064001N9+00741+00581102401ADDGA1051+004509079GA2031+006009059GF108991999999999999999999MA1999999100681MW1051
0088036553999991952010811004+51933-001250SAO  +0138EGUA V0202001N010310030019N0048001N9+00801+00461102341ADDGA1051+003009079GA2031+006009059GF108991999999999999999999MA1999999100611MW1051MW2611
0125036553999991952010812004+51933-001250SAO  +0138EGUA V0202301N010310030019N0064001N9+00851+00631102071ADDAA124002091GA1051+003009079GA2031+007509059GF108991999999999999999999KA1999M+00961KA2999N+00581MA1999999100341MW1051MW2611
0088036553999991952010813004+51933-001250SAO  +0138EGUA V0202301N010810045019N0064001N9+00911+00691101861ADDGA1051+004509079GA2031+007509059GF108991999999999999999999MA1999999100141MW1051MW2611
0088036553999991952010814004+51933-001250SAO  +0138EGUA V0202301N010810030019N0064001N9+00961+00631101691ADDGA1051+003009079GA2031+006009059GF108991999999999999999999MA1999999099971MW1051MW2611
0088036553999991952010815004+51933-001250SAO  +0138EGUA V0202301N009810033019N0064001N9+00961+00911101581ADDGA1051+003309079GA2031+006009059GF108991999999999999999999MA1999999099861MW1051MW2611
0082036553999991952010816004+51933-001250SAO  +0138EGUA V0202001N008210021019N0064001N9+00961+00691101461ADDGA1061+002109079GA2021+006009059GF108991999999999999999999MA1999999099731MW1051
0082036553999991952010817004+51933-001250SAO  +0138EGUA V0201801N011310075019N0064001N9+00911+00741101281ADDGA1041+003609079GA2021+007509059GF107991999999999999999999MA1999999099561MW1051
0082036553999991952010818004+51933-001250SAO  +0138EGUA V0202001N011810075019N0064001N9+00961+00691101121ADDGA1031+003009079GA2081+007509059GF108991999999999999999999MA1999999099421MW1051
0088036553999991952010819004+51933-001250SAO  +0138EGUA V0202001N008710075019N0064001N9+00961+00691100981ADDGA1031+003009079GA2081+007509059GF108991999999999999999999MA1999999099261MW1051MW2611
0082036553999991952010820004+51933-001250SAO  +0138EGUA V0202001N011310075019N0064001N9+00961+00741100881ADDGA1041+003009079GA2081+007509059GF108991999999999999999999MA1999999099151MW1051
0082036553999991952010821004+51933-001250SAO  +0138EGUA V0202701N006710045019N0048001N9+00911+00801100941ADDGA1021+002409079GA2081+004509059GF108991999999999999999999MA1999999099221MW1801
0066036553999991952010822004+51933-001250SAO  +0138EGUA V0202301N007710054019N0048001N9+00631+00461100981ADDGA1081+005409079GF108991999999999999999999MA1999999099221MW1611
0066036553999991952010823004+51933-001250SAO  +0138EGUA V0202301N005110054019N0064001N9+00581+00461100981ADDGA1081+005409079GF108991999999999999999999MA1999999099221MW1051
0066036553999991952010900004+51933-001250SAO  +0138EGUA V0202501N007210054019N0080001N9+00581+00351101051ADDGA1081+005409059GF108991999999999999999999MA1999999099321MW1051
0066036553999991952010901004+51933-001250SAO  +0138EGUA V0202501N006210054019N0080001N9+00521+00351101081ADDGA1081+005409059GF108991999999999999999999MA1999999099321MW1051
0082036553999991952010902004+51933-001250SAO  +0138EGUA V0202301N005710360019N0080001N9+00461+00131101081ADDGA1011+005409079GA2071+036009049GF108991999999999999999999MA1999999099321MW1051
0082036553999991952010903004+51933-001250SAO  +0138EGUA V0202301N005710360019N0080001N9+00461+00131101081ADDGA1011+005409079GA2071+036009049GF108991999999999999999999MA1999999099321MW1051
0066036553999991952010904004+51933-001250SAO  +0138EGUA V0202301N003112200019N0080001N9+00411+00131101081ADDGA1051+012009059GF107991999999999999999999MA1999999099321MW1051
0066036553999991952010905004+51933-001250SAO  +0138EGUA V0202501N006712200019N0080001N9+00351-00041101051ADDGA1001+999999999GF100991999999999999999999MA1999999099291MW1051
0066036553999991952010906004+51933-001250SAO  +0138EGUA V0202001N004112200019N0080001N9+00301-00091101021ADDGA1001+999999999GF100991999999999999999999MA1999999099261MW1051
0066036553999991952010907004+51933-001250SAO  +0138EGUA V0202301N006712200019N0080001N9+00191+00081101051ADDGA1001+999999999GF100991999999999999999999MA1999999099291MW1051
0066036553999991952010908004+51933-001250SAO  +0138EGUA V0202301N005112200019N0080001N9+00301-00041100981ADDGA1001+999999999GF100991999999999999999999MA1999999099221MW1051
0082036553999991952010909004+51933-001250SAO  +0138EGUA V0202301N007712200019N0080001N9+00191+00081101021ADDGA1021+007509059GA2011+021009039GF102991999999999999999999MA1999999099261MW1051
0082036553999991952010910004+51933-001250SAO  +0138EGUA V0202501N007712200019N0080001N9+00301+00081101021ADDGA1021+003609079GA2021+006009059GF102991999999999999999999MA1999999099261MW1051
0066036553999991952010911004+51933-001250SAO  +0138EGUA V0202501N005710060019N0080001N9+00411+00131101021ADDGA1061+006009059GF107991999999999999999999MA1999999099261MW1051
0103036553999991952010912004+51933-001250SAO  +0138EGUA V0202301N008210060019N0080001N9+00461+00081101021ADDAA124002091GA1061+006009059GF107991999999999999999999KA1999M+00581KA2999N+00131MA1999999099261MW1051
0066036553999991952010913004+51933-001250SAO  +0138EGUA V0202501N005110075019N0080001N9+00461+00081101021ADDGA1061+007509059GF107991999999999999999999MA1999999099261MW1051
0066036553999991952010914004+51933-001250SAO  +0138EGUA V0202501N010810066019N0080001N9+00581+00081101021ADDGA1051+006609059GF107991999999999999999999MA1999999099261MW1051
0066036553999991952010915004+51933-001250SAO  +0138EGUA V0202501N012312200019N0080001N9+00581+00411101021ADDGA1031+006009059GF102991999999999999999999MA1999999099261MW1051
0082036553999991952010916004+51933-001250SAO  +0138EGUA V0202501N010310054019N0080001N9+00521+00461101021ADDGA1061+005409079GA2021+007509059GF107991999999999999999999MA1999999099261MW1051
0072036553999991952010917004+51933-001250SAO  +0138EGUA V0202501N012910054019N0080001N9+00461+00461100981ADDGA1051+005409079GF107991999999999999999999MA1999999099221MW1051MW2611
0066036553999991952010918004+51933-001250SAO  +0138EGUA V0202301N008712200019N0064001N9+00461+00131100911ADDGA1041+005409089GF102991999999999999999999MA1999999099151MW1051
0072036553999991952010919004+51933-001250SAO  +0138EGUA V0202301N008710054019N0064001N9+00461+00351100911ADDGA1081+005409089GF108991999999999999999999MA1999999099151MW1051MW2811
0072036553999991952010920004+51933-001250SAO  +0138EGUA V0202501N009810054019N0064001N9+00461+00081100911ADDGA1081+005409089GF108991999999999999999999MA1999999099151MW1051MW2811
0072036553999991952010921004+51933-001250SAO  +0138EGUA V0202901N010310054019N0016001N9+00131+00131101081ADDGA1081+005409089GF108991999999999999999999MA1999999099291MW1811MW2861
0088036553999991952010922004+51933-001250SAO  +0138EGUA V0202501N007710054019N0032001N9+00191+00081101051ADDGA1051+005409089GA2021+045009039GF107991999999999999999999MA1999999099291MW1051MW2801
0066036553999991952010923004+51933-001250SAO  +0138EGUA V0202501N007210105019N0080001N9+00241+00021101021ADDGA1061+010509089GF107991999999999999999999MA1999999099261MW1051
0066036553999991952011000004+51933-001250SAO  +0138EGUA V0202501N007210105019N0064001N9+00301+00021100951ADDGA1061+010509089GF107991999999999999999999MA1999999099221MW1051
0066036553999991952011001004+51933-001250SAO  +0138EGUA V0202701N006210105019N0064001N9+00301+00081100911ADDGA1061+010509089GF107991999999999999999999MA1999999099191MW1051
0066036553999991952011002004+51933-001250SAO  +0138EGUA V0202301N005110480019N0064001N9+00351+00081100881ADDGA1081+048009029GF108991999999999999999999MA1999999099151MW1051
0066036553999991952011003004+51933-001250SAO  +0138EGUA V0202001N007710480019N0064001N9+00411+00131100751ADDGA1081+048009029GF108991999999999999999999MA1999999099021MW1051
0066036553999991952011004004+51933-001250SAO  +0138EGUA V0202301N009310480019N0064001N9+00461+00301100611ADDGA1081+048009029GF108991999999999999999999MA1999999098881MW1051
0066036553999991952011005004+51933-001250SAO  +0138EGUA V0202301N007710480019N0064001N9+00461+00191100511ADDGA1081+048009029GF108991999999999999999999MA1999999098781MW1051
0066036553999991952011006004+51933-001250SAO  +0138EGUA V0202301N009310210019N0064001N9+00461+00351100341ADDGA1081+021009049GF108991999999999999999999MA1999999098611MW1611
0066036553999991952011007004+51933-001250SAO  +0138EGUA V0202001N005710045019N0064001N9+00521+00411100241ADDGA1081+004509059GF108991999999999999999999MA1999999098511MW1611
0082036553999991952011008004+51933-001250SAO  +0138EGUA V0202001N005710024019N0040001N9+00461+00411100041ADDGA1061+002409079GA2021+004509059GF108991999999999999999999MA1999999098311MW1611
0082036553999991952011009004+51933-001250SAO  +0138EGUA V0202001N005710024019N0032001N9+00461+00411099861ADDGA1061+002409079GA2021+004509059GF108991999999999999999999MA1999999098141MW1611
0088036553999991952011010004+51933-001250SAO  +0138EGUA V0201801N005710024019N0016001N9+00461+00411099631ADDGA1061+002409079GA2021+004509059GF108991999999999999999999MA1999999097901MW1051MW2611
0088036553999991952011011004+51933-001250SAO  +0138EGUA V0202301N005710018019N0016001N9+00581+00581099461ADDGA1061+001809079GA2021+004509059GF108991999999999999999999MA1999999097731MW1051MW2611
0119036553999991952011012004+51933-001250SAO  +0138EGUA V0202301N006710024019N0064001N9+00691+00631099321ADDAA124004091GA1061+002409079GA2081+004509059GF108991999999999999999999KA1999M+01081KA2999N+00301MA1999999097601MW1051
0082036553999991952011013004+51933-001250SAO  +0138EGUA V0202001N003610024019N0048001N9+00851+00691099311ADDGA1061+002409079GA2021+004509059GF108991999999999999999999MA1999999097531MW1611
0082036553999991952011014004+51933-001250SAO  +0138EGUA V0202301N008210018019N0048001N9+00961+00851099151ADDGA1061+001809079GA2021+004509059GF108991999999999999999999MA1999999097461MW1611
0082036553999991952011015004+51933-001250SAO  +0138EGUA V0202301N010312200019N0112001N9+01071+00741099091ADDGA1041+007509059GA2021+021009049GF102991999999999999999999MA1999999097391MW1001
0088036553999991952011016004+51933-001250SAO  +0138EGUA V0202301N011810210019N0080001N9+01021+00801099021ADDGA1041+007509059GA2021+021009039GF107991999999999999999999MA1999999097321MW1051MW2611
0072036553999991952011017004+51933-001250SAO  +0138EGUA V0202701N011810075019N0048001N9+01071+00851098981ADDGA1051+007509059GF107991999999999999999999MA1999999097291MW1051MW2611
0066036553999991952011018004+51933-001250SAO  +0138EGUA V0202701N016510075019N0064001N9+01071+00851098751ADDGA1061+007509059GF107991999999999999999999MA1999999097051MW1051
0072036553999991952011019004+51933-001250SAO  +0138EGUA V0202501N012910066019N0064001N9+01021+00801098751ADDGA1061+006609059GF107991999999999999999999MA1999999097091MW1051MW2611
0072036553999991952011020004+51933-001250SAO  +0138EGUA V0202701N013410060019N0080001N9+01021+00801098681ADDGA1051+006009059GF107991999999999999999999MA1999999097021MW1051MW2611
0088036553999991952011021004+51933-001250SAO  +0138EGUA V0202701N012310075019N0080001N9+01021+00801098611ADDGA1031+004509079GA2041+007509059GF107991999999999999999999MA1999999096951MW1051MW2611
0088036553999991952011022004+51933-001250SAO  +0138EGUA V0202701N011310075019N0080001N9+01021+00801098581ADDGA1031+002409079GA2041+007509059GF107991999999999999999999MA1999999096881MW1051MW2611
0088036553999991952011023004+51933-001250SAO  +0138EGUA V0202701N013410024019N0080001N9+01021+00801098511ADDGA1061+002409079GA2021+007509059GF108991999999999999999999MA1999999096851MW1051MW2611
0088036553999991952011100004+51933-001250SAO  +0138EGUA V0202701N013410060019N0096001N9+01071+00911098481ADDGA1021+003609079GA2031+006009059GF107991999999999999999999MA1999999096821MW1051MW2611
0088036553999991952011101004+51933-001250SAO  +0138EGUA V0202701N008710060019N0080001N9+01021+00741098481ADDGA1021+003609079GA2081+006009059GF108991999999999999999999MA1999999096821MW1051MW2611
0082036553999991952011102004+51933-001250SAO  +0138EGUA V0202701N010312200019N0096001N9+00961+00521098511ADDGA1011+009009089GA2021+021009049GF102991999999999999999999MA1999999096851MW1051
0082036553999991952011103004+51933-001250SAO  +0138EGUA V0202701N008212200019N0096001N9+00851+00461098541ADDGA1021+009009089GA2021+021009049GF102991999999999999999999MA1999999096881MW1051
0082036553999991952011104004+51933-001250SAO  +0138EGUA V0202901N006712200019N0096001N9+00801+00351098541ADDGA1021+009009089GA2011+021009049GF102991999999999999999999MA1999999096921MW1051
0082036553999991952011105004+51933-001250SAO  +0138EGUA V0202701N011312200019N0096001N9+00631+00241098611ADDGA1011+009009089GA2011+030009049GF102991999999999999999999MA1999999096951MW1051
0082036553999991952011106004+51933-001250SAO  +0138EGUA V0202701N011312200019N0096001N9+00631+00241098611ADDGA1011+009009089GA2021+054009009GF102991999999999999999999MA1999999096951MW1051
0082036553999991952011107004+51933-001250SAO  +0138EGUA V0202701N008712200019N0096001N9+00631+00191098611ADDGA1021+009009089GA2021+030009049GF102991999999999999999999MA1999999096951MW1051
0066036553999991952011108004+51933-001250SAO  +0138EGUA V0203201N011310024019N0064001N9+00581+00241098711ADDGA1081+002409059GF108991999999999999999999MA1999999097051MW1811
0082036553999991952011109004+51933-001250SAO  +0138EGUA V0202901N009310075019N0112001N9+00461+00131098821ADDGA1051+007509059GA2021+021009049GF107991999999999999999999MA1999999097121MW1001
0098036553999991952011110004+51933-001250SAO  +0138EGUA V0202901N010310090019N0128001N9+00461+00131098881ADDGA1051+009009059GA2011+021009039GA3011+060009009GF107991999999999999999999MA1999999097191MW1001
0066036553999991952011111004+51933-001250SAO  +0138EGUA V0202901N011312200019N0128001N9+00461+00081098881ADDGA1031+012009059GF102991999999999999999999MA1999999097221MW1001
0119036553999991952011112004+51933-001250SAO  +0138EGUA V0202901N012312200019N0128001N9+00461+00081098881ADDAA124999929GA1011+006009079GA2021+012009059GF102991999999999999999999KA1999M+01081KA2999N+00301MA1999999097221MW1001
0082036553999991952011113004+51933-001250SAO  +0138EGUA V0202901N011312200019N0128001N9+00461+00081098881ADDGA1021+006009089GA2021+012009059GF102991999999999999999999MA1999999097221MW1001
0082036553999991952011114004+51933-001250SAO  +0138EGUA V0203201N012312200019N0160001N9+00461+00131098921ADDGA1021+006009089GA2021+009009059GF102991999999999999999999MA1999999097221MW1001
0066036553999991952011115004+51933-001250SAO  +0138EGUA V0202901N011312200019N0160001N9+00461+00081098981ADDGA1031+009009089GF102991999999999999999999MA1999999097291MW1001
0066036553999991952011116004+51933-001250SAO  +0138EGUA V0202901N010812200019N0160001N9+00411-00151099051ADDGA1021+009009059GF102991999999999999999999MA1999999097361MW1001
0066036553999991952011117004+51933-001250SAO  +0138EGUA V0202901N009812200019N0160001N9+00351-00091099091ADDGA1011+009009059GF102991999999999999999999MA1999999097391MW1001
0066036553999991952011118004+51933-001250SAO  +0138EGUA V0202701N009312200019N0160001N9+00351-00041099261ADDGA1031+009009059GF102991999999999999999999MA1999999097531MW1001
0066036553999991952011119004+51933-001250SAO  +0138EGUA V0202701N007212200019N0160001N9+00301-00041099261ADDGA1021+009009059GF102991999999999999999999MA1999999097531MW1001
0066036553999991952011120004+51933-001250SAO  +0138EGUA V0202701N008212200019N0160001N9+00301-00091099261ADDGA1001+999999999GF100991999999999999999999MA1999999097531MW1001
0066036553999991952011121004+51933-001250SAO  +0138EGUA V0202501N007712200019N0160001N9+00301+00021099261ADDGA1021+009009059GF102991999999999999999999MA1999999097531MW1001
0066036553999991952011122004+51933-001250SAO  +0138EGUA V0202701N011312200019N0160001N9+00351+00021099291ADDGA1021+009009059GF102991999999999999999999MA1999999097561MW1001
0066036553999991952011123004+51933-001250SAO  +0138EGUA V0202701N011812200019N0160001N9+00301+00021099361ADDGA1021+009009059GF102991999999999999999999MA1999999097631MW1001
0066036553999991952011200004+51933-001250SAO  +0138EGUA V0202701N007712200019N0160001N9+00301-00041099391ADDGA1001+999999999GF100991999999999999999999MA1999999097661MW1001
0066036553999991952011201004+51933-001250SAO  +0138EGUA V0202901N010310075019N0160001N9+00351+00081099391ADDGA1061+007509089GF107991999999999999999999MA1999999097661MW1001
0066036553999991952011202004+51933-001250SAO  +0138EGUA V0202901N010310075019N0160001N9+00301+00021099421ADDGA1051+007509089GF107991999999999999999999MA1999999097701MW1001
0066036553999991952011203004+51933-001250SAO  +0138EGUA V0202901N010812200019N0112001N9+00241+00021099461ADDGA1011+007509089GF102991999999999999999999MA1999999097731MW1001
0066036553999991952011204004+51933-001250SAO  +0138EGUA V0203201N008712200019N0112001N9+00241-00041099531ADDGA1001+999999999GF100991999999999999999999MA1999999097801MW1001
0066036553999991952011205004+51933-001250SAO  +0138EGUA V0203201N007212200019N0112001N9+00191+00081099591ADDGA1001+999999999GF100991999999999999999999MA1999999097871MW1001
0066036553999991952011206004+51933-001250SAO  +0138EGUA V0202901N008212200019N0112001N9+00241+00021099661ADDGA1001+999999999GF100991999999999999999999MA1999999097931MW1001
0066036553999991952011207004+51933-001250SAO  +0138EGUA V0203201N006712200019N0080001N9+00241-00041099801ADDGA1001+999999999GF100991999999999999999999MA1999999098071MW1051
0066036553999991952011208004+51933-001250SAO  +0138EGUA V0203201N005712200019N0080001N9+00191+00021099901ADDGA1001+999999999GF100991999999999999999999MA1999999098171MW1051
0066036553999991952011209004+51933-001250SAO  +0138EGUA V0203201N006712200019N0080001N9+00191-00041100041ADDGA1001+999999999GF100991999999999999999999MA1999999098311MW1051
0066036553999991952011210004+51933-001250SAO  +0138EGUA V0203401N006712200019N0064001N9+00241-00041100141ADDGA1001+999999999GF100991999999999999999999MA1999999098411MW1051
0066036553999991952011211004+51933-001250SAO  +0138EGUA V0203201N008712200019N0064001N9+00351+00021100271ADDGA1001+999999999GF100991999999999999999999MA1999999098541MW1051
0103036553999991952011212004+51933-001250SAO  +0138EGUA V0203201N009812200019N0080001N9+00411+00131100311ADDAA124000091GA1021+009009089GF102991999999999999999999KA1999M+00461KA2999N+00021MA1999999098581MW1051
0066036553999991952011213004+51933-001250SAO  +0138EGUA V0203601N009812200019N0080001N9+00461+00191100441ADDGA1021+009009089GF102991999999999999999999MA1999999098711MW1051
0066036553999991952011214004+51933-001250SAO  +0138EGUA V0203401N008712200019N0064001N9+00461+00191100581ADDGA1001+999999999GF100991999999999999999999MA1999999098851MW1051
0066036553999991952011215004+51933-001250SAO  +0138EGUA V0203401N005712200019N0032001N9+00461+00191100681ADDGA1041+009009089GF102991999999999999999999MA1999999098951MW1051
0066036553999991952011216004+51933-001250SAO  +0138EGUA V0203401N006712200019N0032001N9+00411+00081100811ADDGA1001+999999999GF100991999999999999999999MA1999999099091MW1051
0066036553999991952011217004+51933-001250SAO  +0138EGUA V0203401N007712200019N0032001N9+00351+00081100981ADDGA1001+999999999GF100991999999999999999999MA1999999099221MW1051
0066036553999991952011218004+51933-001250SAO  +0138EGUA V0203201N005712200019N0040001N9+00191+00021101191ADDGA1001+999999999GF100991999999999999999999MA1999999099421MW1051
0066036553999991952011219004+51933-001250SAO  +0138EGUA V0203401N005710090019N0032001N9+00191+00021101251ADDGA1051+009009059GF107991999999999999999999MA1999999099491MW1051
0066036553999991952011220004+51933-001250SAO  +0138EGUA V0203401N006210090019N0064001N9+00191-00041101421ADDGA1061+009009059GF107991999999999999999999MA1999999099661MW1051
0066036553999991952011221004+51933-001250SAO  +0138EGUA V0203401N006212200019N0064001N9+00081-00151101521ADDGA1001+999999999GF100991999999999999999999MA1999999099731MW1051
0066036553999991952011222004+51933-001250SAO  +0138EGUA V0203201N005112200019N0064001N9+00021-00041101631ADDGA1001+999999999GF100991999999999999999999MA1999999099831MW1051
0066036553999991952011223004+51933-001250SAO  +0138EGUA V0203201N006212200019N0064001N9+00021-00041101591ADDGA1001+999999999GF100991999999999999999999MA1999999099831MW1051
0066036553999991952011300004+51933-001250SAO  +0138EGUA V0203201N005712200019N0064001N9+00021+00021101831ADDGA1001+999999999GF100991999999999999999999MA1999999100031MW1051
0066036553999991952011301004+51933-001250SAO  +0138EGUA V0203201N006212200019N0064001N9+00021-00091101831ADDGA1001+999999999GF100991999999999999999999MA1999999100071MW1051
0066036553999991952011302004+51933-001250SAO  +0138EGUA V0203201N004112200019N0064001N9-00041-00091101831ADDGA1001+999999999GF100991999999999999999999MA1999999100071MW1051
0066036553999991952011303004+51933-001250SAO  +0138EGUA V0203201N004612200019N0048001N9-00091-00091101861ADDGA1001+999999999GF100991999999999999999999MA1999999100101MW1051
0066036553999991952011304004+51933-001250SAO  +0138EGUA V0203201N004612200019N0048001N9-00091-00091101931ADDGA1001+999999999GF100991999999999999999999MA1999999100171MW1051
0066036553999991952011305004+51933-001250SAO  +0138EGUA V0203201N004112200019N0048001N9-00091-00091101931ADDGA1001+999999999GF100991999999999999999999MA1999999100171MW1051
0066036553999991952011306004+51933-001250SAO  +0138EGUA V0203201N002612200019N0048001N9-00091-00311102071ADDGA1001+999999999GF100991999999999999999999MA1999999100301MW1051
0066036553999991952011307004+51933-001250SAO  +0138EGUA V0201801N002112200019N0048001N9-00091-00311102131ADDGA1001+999999999GF100991999999999999999999MA1999999100341MW1051
0066036553999991952011308004+51933-001250SAO  +0138EGUA V0202301N002612200019N0032001N9-00091-00311102131ADDGA1011+060009009GF102991999999999999999999MA1999999100371MW1111
0066036553999991952011309004+51933-001250SAO  +0138EGUA V0202001N003612200019N0032001N9-00151-00151102171ADDGA1021+060009009GF102991999999999999999999MA1999999100371MW1051
0066036553999991952011310004+51933-001250SAO  +0138EGUA V0202001N005110600019N0032001N9-00041-00041102171ADDGA1071+060009009GF107991999999999999999999MA1999999100371MW1051
0066036553999991952011311004+51933-001250SAO  +0138EGUA V0202001N004610600019N0032001N9+00081-00091102171ADDGA1071+060009029GF107991999999999999999999MA1999999100371MW1051
0103036553999991952011312004+51933-001250SAO  +0138EGUA V0201801N003610600019N0032001N9+00131-00151102031ADDAA124003091GA1061+060009029GF107991999999999999999999KA1999M+00581KA2999N-00151MA1999999100241MW1051
0066036553999991952011313004+51933-001250SAO  +0138EGUA V0202001N004110360019N0032001N9+00241-00371101901ADDGA1081+036009049GF108991999999999999999999MA1999999100101MW1051
0082036553999991952011314004+51933-001250SAO  +0138EGUA V0202001N005110360019N0064001N9+00241-00091101731ADDGA1061+036009049GA2081+060009029GF108991999999999999999999MA1999999099931MW1051
0082036553999991952011315004+51933-001250SAO  +0138EGUA V0201801N004610360019N0064001N9+00301-00091101631ADDGA1061+036009049GA2081+060009029GF108991999999999999999999MA1999999099831MW1051
0082036553999991952011316004+51933-001250SAO  +0138EGUA V0202001N005110240019N0064001N9+00411-00091101521ADDGA1021+010509059GA2081+024009049GF108991999999999999999999MA1999999099731MW1051
0088036553999991952011317004+51933-001250SAO  +0138EGUA V0202001N008210180019N0064001N9+00411+00081101391ADDGA1031+010509059GA2081+018009049GF108991999999999999999999MA1999999099591MW1051MW2611
0072036553999991952011318004+51933-001250SAO  +0138EGUA V0202001N011310075019N0064001N9+00521+00521101221ADDGA1081+007509059GF108991999999999999999999MA1999999099461MW1051MW2631
0066036553999991952011319004+51933-001250SAO  +0138EGUA V0202001N008710075019N0064001N9+00461+00351101121ADDGA1081+007509059GF108991999999999999999999MA1999999099361MW1051
0066036553999991952011320004+51933-001250SAO  +0138EGUA V0202001N011310075019N0064001N9+00581+00301101021ADDGA1081+007509059GF108991999999999999999999MA1999999099261MW1051
0072036553999991952011321004+51933-001250SAO  +0138EGUA V0202001N008710075019N0064001N9+00581+00461100911ADDGA1081+007509059GF108991999999999999999999MA1999999099191MW1051MW2631
0088036553999991952011322004+51933-001250SAO  +0138EGUA V0202001N011810075019N0064001N9+00411+00301100811ADDGA1021+004509079GA2081+007509059GF108991999999999999999999MA1999999099051MW1051MW2611
0088036553999991952011323004+51933-001250SAO  +0138EGUA V0202301N009810075019N0064001N9+00411+00351100811ADDGA1021+004509079GA2081+007509059GF108991999999999999999999MA1999999099051MW1051MW2611
0066036553999991952011400004+51933-001250SAO  +0138EGUA V0202301N005110090019N0064001N9+00411+00351100981ADDGA1081+009009059GF108991999999999999999999MA1999999099221MW1051
0066036553999991952011401004+51933-001250SAO  +0138EGUA V0202701N006712200019N0128001N9+00741+00461101051ADDGA1021+009009059GF102991999999999999999999MA1999999099291MW1001
0066036553999991952011402004+51933-001250SAO  +0138EGUA V0202901N008212200019N0128001N9+00691+00461101221ADDGA1041+009009059GF102991999999999999999999MA1999999099461MW1001
0066036553999991952011403004+51933-001250SAO  +0138EGUA V0202901N008212200019N0128001N9+00521+00191101391ADDGA1001+999999999GF100991999999999999999999MA1999999099631MW1001
0066036553999991952011404004+51933-001250SAO  +0138EGUA V0202701N007212200019N0128001N9+00461+00131101461ADDGA1001+999999999GF100991999999999999999999MA1999999099701MW1001
0066036553999991952011405004+51933-001250SAO  +0138EGUA V0202501N005112200019N0128001N9+00411+00241101521ADDGA1001+999999999GF100991999999999999999999MA1999999099761MW1001
0066036553999991952011406004+51933-001250SAO  +0138EGUA V0202501N004112200019N0080001N9+00301+00241101691ADDGA1001+999999999GF100991999999999999999999MA1999999099931MW1051
0066036553999991952011407004+51933-001250SAO  +0138EGUA V0202501N005112200019N0080001N9+00351+00301101801ADDGA1001+999999999GF100991999999999999999999MA1999999100031MW1051
0066036553999991952011408004+51933-001250SAO  +0138EGUA V0202501N005712200019N0080001N9+00301+00241101831ADDGA1021+007509059GF102991999999999999999999MA1999999100071MW1051
0082036553999991952011409004+51933-001250SAO  +0138EGUA V0202301N003110540019N0096001N9+00351+00131101961ADDGA1021+007509059GA2021+054009029GF107991999999999999999999MA1999999100201MW1051
0066036553999991952011410004+51933-001250SAO  +0138EGUA V0202501N005710075019N0096001N9+00411+00131102071ADDGA1051+007509059GF107991999999999999999999MA1999999100301MW1051
0082036553999991952011411004+51933-001250SAO  +0138EGUA V0202501N007210540019N0096001N9+00461+00131102171ADDGA1021+007509059GA2041+054009029GF107991999999999999999999MA1999999100371MW1051
0119036553999991952011412004+51933-001250SAO  +0138EGUA V0202501N006710540019N0096001N9+00631+00241102101ADDAA124000091GA1031+007509059GA2021+054009009GF107991999999999999999999KA1999M+00741KA2999N+00301MA1999999100341MW1051
0082036553999991952011413004+51933-001250SAO  +0138EGUA V0202501N007710540019N0096001N9+00741+00131102131ADDGA1021+007509059GA2031+054009009GF107991999999999999999999MA1999999100371MW1051
0098036553999991952011414004+51933-001250SAO  +0138EGUA V0202501N008710540019N0096001N9+00741+00241102101ADDGA1021+007509059GA2021+021009049GA3021+054009009GF107991999999999999999999MA1999999100341MW1051
0098036553999991952011415004+51933-001250SAO  +0138EGUA V0202501N008710210019N0080001N9+00741+00241102101ADDGA1021+007509059GA2051+021009049GA3011+054009009GF107991999999999999999999MA1999999100341MW1051
0098036553999991952011416004+51933-001250SAO  +0138EGUA V0202301N007710210019N0064001N9+00691+00241102131ADDGA1021+007509059GA2041+021009049GA3011+054009009GF107991999999999999999999MA1999999100371MW1051
0066036553999991952011417004+51933-001250SAO  +0138EGUA V0202301N005710075019N0064001N9+00581+00301102131ADDGA1061+007509059GF107991999999999999999999MA1999999100371MW1051
0066036553999991952011418004+51933-001250SAO  +0138EGUA V0202301N002612200019N0064001N9+00631+00351102101ADDGA1031+009009059GF102991999999999999999999MA1999999100341MW1051
0066036553999991952011419004+51933-001250SAO  +0138EGUA V0202001N004610090019N0064001N9+00691+00241102101ADDGA1071+009009059GF107991999999999999999999MA1999999100341MW1051
0066036553999991952011420004+51933-001250SAO  +0138EGUA V0202001N004610090019N0064001N9+00581+00351102101ADDGA1071+009009059GF107991999999999999999999MA1999999100341MW1051
0066036553999991952011421004+51933-001250SAO  +0138EGUA V0202001N004110090019N0064001N9+00521+00351102071ADDGA1081+009009059GF108991999999999999999999MA1999999100301MW1051
0066036553999991952011422004+51933-001250SAO  +0138EGUA V0202001N005110090019N0064001N9+00581+00351102001ADDGA1081+009009059GF108991999999999999999999MA1999999100241MW1051
0066036553999991952011423004+51933-001250SAO  +0138EGUA V0202001N006710090019N0064001N9+00581+00301101931ADDGA1051+009009059GF107991999999999999999999MA1999999100171MW1051
0066036553999991952011500004+51933-001250SAO  +0138EGUA V0202001N006710090019N0080001N9+00691+00241101801ADDGA1081+009009059GF108991999999999999999999MA1999999100031MW1051
0066036553999991952011501004+51933-001250SAO  +0138EGUA V0201801N009310210019N0080001N9+00691+00351101691ADDGA1061+021009039GF107991999999999999999999MA1999999099931MW1051
0066036553999991952011502004+51933-001250SAO  +0138EGUA V0202001N009310210019N0080001N9+00461+00191101461ADDGA1061+021009039GF107991999999999999999999MA1999999099701MW1051
0072036553999991952011503004+51933-001250SAO  +0138EGUA V0202301N008210210019N0032001N9+00581+00351101461ADDGA1081+021009049GF108991999999999999999999MA1999999099701MW1051MW2611
0066036553999991952011504004+51933-001250SAO  +0138EGUA V0202001N007710210019N0032001N9+00581+00241101421ADDGA1081+021009049GF108991999999999999999999MA1999999099661MW1051
0066036553999991952011505004+51933-001250SAO  +0138EGUA V0202301N009310210019N0032001N9+00911+00801101251ADDGA1081+021009049GF108991999999999999999999MA1999999099531MW1051
0066036553999991952011506004+51933-001250SAO  +0138EGUA V0202301N006710210019N0064001N9+00961+00851101281ADDGA1081+021009049GF108991999999999999999999MA1999999099561MW1051
0066036553999991952011507004+51933-001250SAO  +0138EGUA V0202301N006710210019N0064001N9+01071+00801101291ADDGA1081+021009049GF108991999999999999999999MA1999999099561MW1051
0082036553999991952011508004+51933-001250SAO  +0138EGUA V0202301N007710060019N0112001N9+00961+00851101291ADDGA1031+003009079GA2031+006009059GF107991999999999999999999MA1999999099561MW1001
0098036553999991952011509004+51933-001250SAO  +0138EGUA V0202301N007710090019N0128001N9+01021+00801101321ADDGA1021+003009079GA2041+009009059GA3021+021009039GF107991999999999999999999MA1999999099591MW1001
0098036553999991952011510004+51933-001250SAO  +0138EGUA V0202301N007710090019N0128001N9+01021+00801101321ADDGA1021+003009079GA2041+009009059GA3011+021009049GF107991999999999999999999MA1999999099591MW1001
0082036553999991952011511004+51933-001250SAO  +0138EGUA V0202301N005110027019N0128001N9+01021+00801101351ADDGA1061+002709079GA2011+021009039GF107991999999999999999999MA1999999099631MW1001
0103036553999991952011512004+51933-001250SAO  +0138EGUA V0202001N006710036019N0112001N9+01021+00801101391ADDAA124999929GA1061+003609059GF107991999999999999999999KA1999M+01131KA2999N+00411MA1999999099701MW1001
0082036553999991952011513004+51933-001250SAO  +0138EGUA V0202001N006210036019N0112001N9+01021+00741101381ADDGA1051+003609059GA2011+054009029GF107991999999999999999999MA1999999099661MW1001
0066036553999991952011514004+51933-001250SAO  +0138EGUA V0202001N008210036019N0112001N9+01131+00741101381ADDGA1051+003609059GF107991999999999999999999MA1999999099661MW1001
0066036553999991952011515004+51933-001250SAO  +0138EGUA V0202001N006710036019N0112001N9+00961+00521101421ADDGA1061+003609059GF107991999999999999999999MA1999999099701MW1001
0082036553999991952011516004+51933-001250SAO  +0138EGUA V0202001N006210036019N0096001N9+00961+00581101421ADDGA1051+003609059GA2011+009009089GF107991999999999999999999MA1999999099701MW1051
0066036553999991952011517004+51933-001250SAO  +0138EGUA V0202001N005110036019N0096001N9+00851+00631101421ADDGA1051+003609059GF107991999999999999999999MA1999999099701MW1051
0066036553999991952011518004+51933-001250SAO  +0138EGUA V0202501N009312200019N0096001N9+00741+00301101491ADDGA1021+007509059GF102991999999999999999999MA1999999099761MW1051
0066036553999991952011519004+51933-001250SAO  +0138EGUA V0202701N010312200019N0096001N9+00741+00191101521ADDGA1021+007509059GF102991999999999999999999MA1999999099801MW1051
0066036553999991952011520004+51933-001250SAO  +0138EGUA V0202701N005712200019N0080001N9+00581+00081101591ADDGA1021+007509059GF102991999999999999999999MA1999999099861MW1051
0066036553999991952011521004+51933-001250SAO  +0138EGUA V0202501N005112200019N0080001N9+00521+00131101631ADDGA1001+999999999GF100991999999999999999999MA1999999099901MW1051
0066036553999991952011522004+51933-001250SAO  +0138EGUA V0202001N004612200019N0080001N9+00461+00131101631ADDGA1001+999999999GF100991999999999999999999MA1999999099901MW1051
0066036553999991952011523004+51933-001250SAO  +0138EGUA V0202001N005710075019N0080001N9+00461+00191101631ADDGA1051+007509059GF107991999999999999999999MA1999999099901MW1051
0066036553999991952011600004+51933-001250SAO  +0138EGUA V0202001N003610210019N0080001N9+00411+00301101591ADDGA1061+021009039GF107991999999999999999999MA1999999099831MW1051
0066036553999991952011601004+51933-001250SAO  +0138EGUA V0202001N004610210019N0112001N9+00411+00241101491ADDGA1061+021009039GF107991999999999999999999MA1999999099761MW1001
0066036553999991952011602004+51933-001250SAO  +0138EGUA V0202001N003610210019N0112001N9+00351+00301101461ADDGA1081+021009039GF108991999999999999999999MA1999999099731MW1001
0066036553999991952011603004+51933-001250SAO  +0138EGUA V0202001N005110090019N0080001N9+00351+00351101351ADDGA1081+009009059GF108991999999999999999999MA1999999099591MW1611
0066036553999991952011604004+51933-001250SAO  +0138EGUA V0202001N009810090019N0064001N9+00461+00351101291ADDGA1081+009009059GF108991999999999999999999MA1999999099531MW1611
0066036553999991952011605004+51933-001250SAO  +0138EGUA V0202501N007710090019N0064001N9+00461+00301101291ADDGA1081+009009059GF108991999999999999999999MA1999999099531MW1611
0066036553999991952011606004+51933-001250SAO  +0138EGUA V0202901N007210090019N0096001N9+00351+00191101351ADDGA1061+009009059GF107991999999999999999999MA1999999099591MW1051
0066036553999991952011607004+51933-001250SAO  +0138EGUA V0202701N004610090019N0096001N9+00241+00191101391ADDGA1061+009009059GF107991999999999999999999MA1999999099631MW1051
0066036553999991952011608004+51933-001250SAO  +0138EGUA V0202701N007212200019N0160001N9+00241+00131101491ADDGA1001+999999999GF100991999999999999999999MA1999999099731MW1001
0066036553999991952011609004+51933-001250SAO  +0138EGUA V0202901N004112200019N0160001N9+00191+00081101491ADDGA1011+045009049GF102991999999999999999999MA1999999099731MW1001
0066036553999991952011610004+51933-001250SAO  +0138EGUA V0202901N005712200019N0160001N9+00241+00021101521ADDGA1021+045009049GF102991999999999999999999MA1999999099761MW1001
0066036553999991952011611004+51933-001250SAO  +0138EGUA V0202901N007712200019N0160001N9+00351+00021101561ADDGA1021+066009029GF102991999999999999999999MA1999999099801MW1001
0103036553999991952011612004+51933-001250SAO  +0138EGUA V0202701N007712200019N0160001N9+00411-00041101761ADDAA124999929GA1031+066009029GF102991999999999999999999KA1999M+00461KA2999N+00081MA1999999100001MW1001
0082036553999991952011613004+51933-001250SAO  +0138EGUA V0202701N006712200019N0160001N9+00461-00091101761ADDGA1011+007509089GA2041+066009029GF102991999999999999999999MA1999999099971MW1001
0082036553999991952011614004+51933-001250SAO  +0138EGUA V0202901N006210660019N0160001N9+00461-00151101691ADDGA1021+007509089GA2051+066009029GF107991999999999999999999MA1999999099931MW1001
0098036553999991952011615004+51933-001250SAO  +0138EGUA V0202901N006710360019N0160001N9+00461-00151101661ADDGA1011+007509089GA2051+036009049GA3011+066009009GF107991999999999999999999MA1999999099901MW1001
0082036553999991952011616004+51933-001250SAO  +0138EGUA V0202301N003610360019N0160001N9+00411+00021101561ADDGA1011+007509089GA2061+036009049GF107991999999999999999999MA1999999099801MW1001
0066036553999991952011617004+51933-001250SAO  +0138EGUA V0202001N005710360019N0160001N9+00301-00041101491ADDGA1081+036009049GF108991999999999999999999MA1999999099731MW1001
0066036553999991952011618004+51933-001250SAO  +0138EGUA V0202001N005112200019N0160001N9+00191-00261101251ADDGA1031+036009049GF102991999999999999999999MA1999999099491MW1001
0066036553999991952011619004+51933-001250SAO  +0138EGUA V0201601N001512200019N0160001N9+00081-00151101221ADDGA1031+036009049GF102991999999999999999999MA1999999099421MW1001
0066036553999991952011620004+51933-001250SAO  +0138EGUA V0201401N003612200019N0160001N9+00081-00151101081ADDGA1031+036009049GF102991999999999999999999MA1999999099291MW1001
0066036553999991952011621004+51933-001250SAO  +0138EGUA V0201801N003112200019N0160001N9+00081-00091100911ADDGA1001+999999999GF100991999999999999999999MA1999999099151MW1001
0066036553999991952011622004+51933-001250SAO  +0138EGUA V0202001N007712200019N0160001N9+00131-00151100781ADDGA1001+999999999GF100991999999999999999999MA1999999099021MW1001
0066036553999991952011623004+51933-001250SAO  +0138EGUA V0202001N005112200019N0160001N9+00131-00151100611ADDGA1001+999999999GF100991999999999999999999MA1999999098881MW1001
0066036553999991952011700004+51933-001250SAO  +0138EGUA V0202301N005112200019N0160001N9+00081-00041100241ADDGA1001+999999999GF100991999999999999999999MA1999999098511MW1001
0066036553999991952011701004+51933-001250SAO  +0138EGUA V0202001N005112200019N0160001N9+00081+00021100141ADDGA1001+999999999GF100991999999999999999999MA1999999098341MW1001
0066036553999991952011702004+51933-001250SAO  +0138EGUA V0202001N006710240019N0160001N9+00191+00081099761ADDGA1081+024009049GF108991999999999999999999MA1999999098041MW1001
0082036553999991952011703004+51933-001250SAO  +0138EGUA V0202001N010810045019N0080001N9+00301+00021099561ADDGA1061+004509059GA2081+024009049GF108991999999999999999999MA1999999097831MW1801
0082036553999991952011704004+51933-001250SAO  +0138EGUA V0202001N011310045019N0048001N9+00241+00191099361ADDGA1061+004509059GA2081+024009049GF108991999999999999999999MA1999999097631MW1801
0066036553999991952011705004+51933-001250SAO  +0138EGUA V0202501N005110045019N0048001N9+00081+00081099321ADDGA1081+004509059GF108991999999999999999999MA1999999097561MW1711
0066036553999991952011706004+51933-001250SAO  +0138EGUA V0202301N006710120019N0128001N9+00131+00021099261ADDGA1081+012009059GF108991999999999999999999MA1999999097491MW1001
0066036553999991952011707004+51933-001250SAO  +0138EGUA V0202001N006210120019N0096001N9+00131-00041099221ADDGA1081+012009059GF108991999999999999999999MA1999999097461MW1051
0082036553999991952011708004+51933-001250SAO  +0138EGUA V0202301N006712200019N0160001N9+00131-00151099191ADDGA1021+012009059GA2021+030009049GF102991999999999999999999MA1999999097431MW1001
0082036553999991952011709004+51933-001250SAO  +0138EGUA V0202501N009312200019N0160001N9+00131-00151099191ADDGA1011+012009089GA2011+045009039GF102991999999999999999999MA1999999097431MW1851
0066036553999991952011710004+51933-001250SAO  +0138EGUA V0202501N009312200019N0160001N9+00131-00151099191ADDGA1031+007509089GF102991999999999999999999MA1999999097431MW1851
0066036553999991952011711004+51933-001250SAO  +0138EGUA V0202501N009312200019N0160001N9+00131-00151099191ADDGA1041+007509089GF102991999999999999999999MA1999999097431MW1001
0119036553999991952011712004+51933-001250SAO  +0138EGUA V0202501N007210090019N0160001N9+00191-00091099051ADDAA124004091GA1051+009009059GA2011+054009009GF107991999999999999999999KA1999M+00301KA2999N+00081MA1999999097361MW1001
0082036553999991952011713004+51933-001250SAO  +0138EGUA V0202501N008710075019N0064001N9+00241-00091099021ADDGA1071+007509059GA2081+054009009GF108991999999999999999999MA1999999097291MW1851
0066036553999991952011714004+51933-001250SAO  +0138EGUA V0202701N013410045019N0064001N9+00301+00081098981ADDGA1081+004509059GF108991999999999999999999MA1999999097291MW1051
0098036553999991952011715004+51933-001250SAO  +0138EGUA V0202701N012310600019N0080001N9+00301-00041098981ADDGA1021+004509079GA2021+007509089GA3031+060009009GF107991999999999999999999MA1999999097291MW1051
0082036553999991952011716004+51933-001250SAO  +0138EGUA V0202701N008710600019N0080001N9+00301-00041098981ADDGA1021+007509089GA2051+060009009GF107991999999999999999999MA1999999097361MW1051
0066036553999991952011717004+51933-001250SAO  +0138EGUA V0202701N012912200019N0080001N9+00191+00021099121ADDGA1031+030009039GF102991999999999999999999MA1999999097601MW1051
0066036553999991952011718004+51933-001250SAO  +0138EGUA V0202701N012312200019N0080001N9+00131+00021099321ADDGA1011+007509059GF102991999999999999999999MA1999999097601MW1051
0066036553999991952011719004+51933-001250SAO  +0138EGUA V0202701N012312200019N0064001N9+00191-00091099421ADDGA1021+004509089GF102991999999999999999999MA1999999097661MW1851
0066036553999991952011720004+51933-001250SAO  +0138EGUA V0202701N011312200019N0080001N9+00191-00151099491ADDGA1001+999999999GF100991999999999999999999MA1999999097731MW1051
0066036553999991952011721004+51933-001250SAO  +0138EGUA V0202701N011312200019N0080001N9+00131+00131099561ADDGA1001+999999999GF100991999999999999999999MA1999999097801MW1051
0066036553999991952011722004+51933-001250SAO  +0138EGUA V0202701N012912200019N0080001N9+00131-00041099591ADDGA1001+999999999GF100991999999999999999999MA1999999097831MW1051
0066036553999991952011723004+51933-001250SAO  +0138EGUA V0202701N011312200019N0080001N9+00131-00151099661ADDGA1001+999999999GF100991999999999999999999MA1999999097901MW1051
0066036553999991952011800004+51933-001250SAO  +0138EGUA V0202701N012912200019N0080001N9+00191-00201099731ADDGA1001+999999999GF100991999999999999999999MA1999999098001MW1051
0066036553999991952011801004+51933-001250SAO  +0138EGUA V0202901N011812200019N0080001N9+00081-00091099831ADDGA1021+009009059GF102991999999999999999999MA1999999098071MW1051
0066036553999991952011802004+51933-001250SAO  +0138EGUA V0202901N011812200019N0080001N9+00131-00091099831ADDGA1011+009009059GF102991999999999999999999MA1999999098101MW1051
0066036553999991952011803004+51933-001250SAO  +0138EGUA V0202901N008712200019N0080001N9+00081-00091099931ADDGA1001+999999999GF100991999999999999999999MA1999999098211MW1051
0066036553999991952011804004+51933-001250SAO  +0138EGUA V0202901N011312200019N0080001N9+00191-00201100041ADDGA1001+999999999GF100991999999999999999999MA1999999098311MW1051
0066036553999991952011805004+51933-001250SAO  +0138EGUA V0203201N013410075019N0080001N9+00241-00201100171ADDGA1061+007509059GF107991999999999999999999MA1999999098441MW1051
0072036553999991952011806004+51933-001250SAO  +0138EGUA V0203201N018510075019N0080001N9+00191-00151100311ADDGA1081+007509059GF108991999999999999999999MA1999999098541MW1051MW2711
0072036553999991952011807004+51933-001250SAO  +0138EGUA V0203201N011310075019N0032001N9+00131-00201100441ADDGA1081+007509059GF108991999999999999999999MA1999999098681MW1051MW2711
0072036553999991952011808004+51933-001250SAO  +0138EGUA V0203401N015410060019N0096001N9+00191-00151100541ADDGA1081+006009059GF108991999999999999999999MA1999999098881MW1051MW2511
0066036553999991952011809004+51933-001250SAO  +0138EGUA V0203401N013410120019N0096001N9+00131-00091100711ADDGA1061+012009059GF107991999999999999999999MA1999999098951MW1051
0066036553999991952011810004+51933-001250SAO  +0138EGUA V0203401N012910120019N0096001N9+00241-00041100811ADDGA1061+012009059GF107991999999999999999999MA1999999099091MW1051
0066036553999991952011811004+51933-001250SAO  +0138EGUA V0203401N011810105019N0080001N9+00241-00091100911ADDGA1051+010509059GF107991999999999999999999MA1999999099191MW1051
0119036553999991952011812004+51933-001250SAO  +0138EGUA V0203401N011812200019N0096001N9+00301-00201101021ADDAA124999929GA1021+012009059GA2021+036009049GF102991999999999999999999KA1999M+00351KA2999N+00021MA1999999099261MW1051
0082036553999991952011813004+51933-001250SAO  +0138EGUA V0203401N015410360019N0096001N9+00301+00021101121ADDGA1021+012009059GA2021+036009049GF107991999999999999999999MA1999999099361MW1051
0082036553999991952011814004+51933-001250SAO  +0138EGUA V0203401N017510360019N0096001N9+00301+00021101191ADDGA1021+012009059GA2021+036009049GF107991999999999999999999MA1999999099421MW1051
0082036553999991952011815004+51933-001250SAO  +0138EGUA V0203401N015912200019N0096001N9+00351-00041101251ADDGA1021+012009059GA2021+027009049GF102991999999999999999999MA1999999099491MW1051
0066036553999991952011816004+51933-001250SAO  +0138EGUA V0203401N014912200019N0096001N9+00241-00091101321ADDGA1021+009009089GF102991999999999999999999MA1999999099561MW1051
0066036553999991952011817004+51933-001250SAO  +0138EGUA V0203401N014912200019N0096001N9+00191-00091101351ADDGA1021+009009089GF102991999999999999999999MA1999999099591MW1051
0066036553999991952011818004+51933-001250SAO  +0138EGUA V0202701N010312200019N0080001N9+00191-00151101591ADDGA1021+030009049GF102991999999999999999999MA1999999099831MW1051
0066036553999991952011819004+51933-001250SAO  +0138EGUA V0203401N011812200019N0080001N9+00191-00201101631ADDGA1001+999999999GF100991999999999999999999MA1999999099831MW1051
0066036553999991952011820004+51933-001250SAO  +0138EGUA V0203401N011312200019N0080001N9+00131-00151101631ADDGA1001+999999999GF100991999999999999999999MA1999999099831MW1051
0066036553999991952011821004+51933-001250SAO  +0138EGUA V0203201N013912200019N0080001N9+00081-00091101631ADDGA1001+999999999GF100991999999999999999999MA1999999099831MW1051
0066036553999991952011822004+51933-001250SAO  +0138EGUA V0203201N011312200019N0080001N9+00131-00201101631ADDGA1001+999999999GF100991999999999999999999MA1999999099831MW1051
0066036553999991952011823004+51933-001250SAO  +0138EGUA V0203201N009312200019N0048001N9+00021+00021101931ADDGA1001+999999999GF100991999999999999999999MA1999999100141MW1051
0066036553999991952011900004+51933-001250SAO  +0138EGUA V0203201N006712200019N0048001N9+00021+00021102031ADDGA1001+999999999GF100991999999999999999999MA1999999100241MW1051
0066036553999991952011901004+51933-001250SAO  +0138EGUA V0203201N006212200019N0080001N9+00021+00021102031ADDGA1001+999999999GF100991999999999999999999MA1999999100241MW1051
0066036553999991952011902004+51933-001250SAO  +0138EGUA V0203201N008212200019N0080001N9+00021+00021102031ADDGA1001+999999999GF100991999999999999999999MA1999999100241MW1051
0066036553999991952011903004+51933-001250SAO  +0138EGUA V0203201N005712200019N0080001N9+00021-00041102101ADDGA1001+999999999GF100991999999999999999999MA1999999100301MW1051
0066036553999991952011904004+51933-001250SAO  +0138EGUA V0203201N007212200019N0080001N9-00041-00041102101ADDGA1001+999999999GF100991999999999999999999MA1999999100301MW1051
0066036553999991952011905004+51933-001250SAO  +0138EGUA V0203201N008712200019N0080001N9+00021+00021102131ADDGA1001+999999999GF100991999999999999999999MA1999999100341MW1051
0066036553999991952011906004+51933-001250SAO  +0138EGUA V0203201N008712200019N0080001N9+00021+00021102241ADDGA1001+999999999GF100991999999999999999999MA1999999100441MW1051
0066036553999991952011907004+51933-001250SAO  +0138EGUA V0203201N008710090019N0080001N9+00081+00081102271ADDGA1061+009009059GF107991999999999999999999MA1999999100471MW1051
0066036553999991952011908004+51933-001250SAO  +0138EGUA V0203201N010310054019N0064001N9+00131-00151102271ADDGA1061+005409059GF107991999999999999999999MA1999999100471MW1051
0066036553999991952011909004+51933-001250SAO  +0138EGUA V0203201N011810075019N0096001N9+00191-00151102341ADDGA1061+007509059GF107991999999999999999999MA1999999100541MW1051
0066036553999991952011910004+51933-001250SAO  +0138EGUA V0203201N010810075019N0064001N9+00191-00091102401ADDGA1071+007509059GF107991999999999999999999MA1999999100611MW1051
0082036553999991952011911004+51933-001250SAO  +0138EGUA V0203201N011810210019N0064001N9+00241-00091102441ADDGA1031+010509059GA2021+021009039GF107991999999999999999999MA1999999100641MW1051
0119036553999991952011912004+51933-001250SAO  +0138EGUA V0203601N008210210019N0064001N9+00301+00021102441ADDAA124000091GA1021+010509059GA2041+021009039GF107991999999999999999999KA1999M+00351KA2999N-00151MA1999999100681MW1051
0066036553999991952011913004+51933-001250SAO  +0138EGUA V0203601N010812200019N0080001N9+00301+00021102441ADDGA1041+010509059GF102991999999999999999999MA1999999100681MW1051
0066036553999991952011914004+51933-001250SAO  +0138EGUA V0203601N009312200019N0064001N9+00351+00021102471ADDGA1021+009009059GF102991999999999999999999MA1999999100711MW1051
0066036553999991952011915004+51933-001250SAO  +0138EGUA V0203601N006712200019N0048001N9+00351+00021102471ADDGA1001+999999999GF100991999999999999999999MA1999999100711MW1051
0066036553999991952011916004+51933-001250SAO  +0138EGUA V0203601N005712200019N0024001N9+00241-00041102541ADDGA1001+999999999GF100991999999999999999999MA1999999100751MW1051
0066036553999991952011917004+51933-001250SAO  +0138EGUA V0203401N005112200019N0016001N9+00191-00091102611ADDGA1001+999999999GF100991999999999999999999MA1999999100811MW1051
0072036553999991952011918004+51933-001250SAO  +0138EGUA V0203401N006712200019N0016001N9+00081-00091102611ADDGA1001+999999999GF100991999999999999999999MA1999999100811MW1051MW2451
0066036553999991952011919004+51933-001250SAO  +0138EGUA V0203401N005712200019N0032001N9+00021+00021102641ADDGA1001+999999999GF100991999999999999999999MA1999999100851MW1111
0066036553999991952011920004+51933-001250SAO  +0138EGUA V0203401N005712200019N0032001N9+00021+00021102641ADDGA1001+999999999GF100991999999999999999999MA1999999100851MW1111
0066036553999991952011921004+51933-001250SAO  +0138EGUA V0203201N005112200019N0032001N9-00041-00151102681ADDGA1001+999999999GF100991999999999999999999MA1999999100881MW1111
0066036553999991952011922004+51933-001250SAO  +0138EGUA V0203401N006212200019N0032001N9-00091-00151102641ADDGA1001+999999999GF100991999999999999999999MA1999999100851MW1111
0066036553999991952011923004+51933-001250SAO  +0138EGUA V0203401N005112200019N0032001N9-00091-00151102641ADDGA1001+999999999GF100991999999999999999999MA1999999100851MW1111
0066036553999991952012000004+51933-001250SAO  +0138EGUA V0203401N004612200019N0032001N9-00151-00151102611ADDGA1001+999999999GF100991999999999999999999MA1999999100811MW1111
0066036553999991952012001004+51933-001250SAO  +0138EGUA V0203201N005712200019N0032001N9-00201-00201102571ADDGA1001+999999999GF100991999999999999999999MA1999999100781MW1111
0066036553999991952012002004+51933-001250SAO  +0138EGUA V0203201N005712200019N0032001N9-00201-00261102541ADDGA1001+999999999GF100991999999999999999999MA1999999100751MW1111
0066036553999991952012003004+51933-001250SAO  +0138EGUA V0203201N005712200019N0032001N9-00261-00261102511ADDGA1001+999999999GF100991999999999999999999MA1999999100711MW1111
0066036553999991952012004004+51933-001250SAO  +0138EGUA V0203201N005112200019N0032001N9-00201-00261102441ADDGA1001+999999999GF100991999999999999999999MA1999999100681MW1111
0066036553999991952012005004+51933-001250SAO  +0138EGUA V0203201N005712200019N0032001N9-00201-00261102441ADDGA1001+999999999GF100991999999999999999999MA1999999100681MW1111
0066036553999991952012006004+51933-001250SAO  +0138EGUA V0203201N006212200019N0032001N9-00261-00261102401ADDGA1011+007509059GF102991999999999999999999MA1999999100611MW1111
0066036553999991952012007004+51933-001250SAO  +0138EGUA V0203201N005112200019N0032001N9-00201-00261102371ADDGA1031+007509059GF102991999999999999999999MA1999999100581MW1111
0066036553999991952012008004+51933-001250SAO  +0138EGUA V0203201N005110075019N0012001N9-00091-00091102371ADDGA1081+007509059GF108991999999999999999999MA1999999100581MW1111
0082036553999991952012009004+51933-001250SAO  +0138EGUA V0203201N005712200019N0012001N9-00091-00091102371ADDGA1021+007509059GA2021+021009039GF102991999999999999999999MA1999999100581MW1111
0082036553999991952012010004+51933-001250SAO  +0138EGUA V0203401N006210210019N0012001N9-00091-00091102371ADDGA1031+009009059GA2031+021009039GF107991999999999999999999MA1999999100581MW1111
0082036553999991952012011004+51933-001250SAO  +0138EGUA V0203401N006710210019N0012001N9+00021+00021102371ADDGA1021+009009059GA2021+021009039GF107991999999999999999999MA1999999100581MW1111
0119036553999991952012012004+51933-001250SAO  +0138EGUA V0203401N005710090019N0012001N9+00081+00021102341ADDAA124999929GA1051+009009059GA2021+021009039GF107991999999999999999999KA1999M+00301KA2999N-00261MA1999999100541MW1111
0082036553999991952012013004+51933-001250SAO  +0138EGUA V0203201N007712200019N0012001N9+00191-00091102341ADDGA1021+009009059GA2021+021009039GF102991999999999999999999MA1999999100541MW1111
0082036553999991952012014004+51933-001250SAO  +0138EGUA V0203601N008210210019N0012001N9+00301+00081102301ADDGA1041+009009059GA2021+021009039GF107991999999999999999999MA1999999100511MW1111
0082036553999991952012015004+51933-001250SAO  +0138EGUA V0203601N006710210019N0012001N9+00301+00021102301ADDGA1041+009009059GA2021+021009039GF107991999999999999999999MA1999999100511MW1111
0066036553999991952012016004+51933-001250SAO  +0138EGUA V0203401N007212200019N0016001N9+00191-00041102301ADDGA1011+009009059GF102991999999999999999999MA1999999100511MW1051
0066036553999991952012017004+51933-001250SAO  +0138EGUA V0203401N006712200019N0024001N9+00131-00091102301ADDGA1011+009009059GF102991999999999999999999MA1999999100511MW1051
0066036553999991952012018004+51933-001250SAO  +0138EGUA V0203401N008210075019N0032001N9+00131-00151102271ADDGA1061+007509059GF107991999999999999999999MA1999999100471MW1051
0072036553999991952012019004+51933-001250SAO  +0138EGUA V0203401N008210045019N0008001N9+00131-00151102271ADDGA1081+004509059GF108991999999999999999999MA1999999100471MW1051MW2711
0066036553999991952012020004+51933-001250SAO  +0138EGUA V0203401N010810045019N0008001N9+00081+00021102301ADDGA1081+004509059GF108991999999999999999999MA1999999100511MW1111
0066036553999991952012021004+51933-001250SAO  +0138EGUA V0203601N009310045019N0032001N9+00131+00081102341ADDGA1081+004509059GF108991999999999999999999MA1999999100541MW1051
0066036553999991952012022004+51933-001250SAO  +0138EGUA V0203601N008710054019N0016001N9+00131+00131102371ADDGA1081+005409059GF108991999999999999999999MA1999999100581MW1051
0066036553999991952012023004+51933-001250SAO  +0138EGUA V0203601N011310054019N0040001N9+00131+00131102441ADDGA1081+005409059GF108991999999999999999999MA1999999100641MW1051
0066036553999991952012100004+51933-001250SAO  +0138EGUA V0203601N008710054019N0040001N9+00191+00191102571ADDGA1051+005409059GF107991999999999999999999MA1999999100781MW1051
0066036553999991952012101004+51933-001250SAO  +0138EGUA V0200201N008710054019N0032001N9+00131+00131102641ADDGA1061+005409059GF107991999999999999999999MA1999999100851MW1051
0066036553999991952012102004+51933-001250SAO  +0138EGUA V0200201N007210054019N0032001N9+00131+00131102681ADDGA1081+005409059GF108991999999999999999999MA1999999100881MW1051
0066036553999991952012103004+51933-001250SAO  +0138EGUA V0203601N006710054019N0032001N9+00131+00081102711ADDGA1081+005409059GF108991999999999999999999MA1999999100951MW1051
0066036553999991952012104004+51933-001250SAO  +0138EGUA V0200201N008210054019N0032001N9+00191+00191102781ADDGA1081+005409059GF108991999999999999999999MA1999999100981MW1451
0066036553999991952012105004+51933-001250SAO  +0138EGUA V0200201N007710054019N0032001N9+00241+00241102811ADDGA1081+005409059GF108991999999999999999999MA1999999101021MW1451
0066036553999991952012106004+51933-001250SAO  +0138EGUA V0203601N008710075019N0032001N9+00241+00241102951ADDGA1081+007509059GF108991999999999999999999MA1999999101121MW1451
0066036553999991952012107004+51933-001250SAO  +0138EGUA V0203401N007710075019N0032001N9+00241+00131103011ADDGA1081+007509059GF108991999999999999999999MA1999999101191MW1451
0072036553999991952012108004+51933-001250SAO  +0138EGUA V0203601N008710024019N0032001N9+00241+00131103081ADDGA1081+002409059GF108991999999999999999999MA1999999101251MW1051MW2801
0082036553999991952012109004+51933-001250SAO  +0138EGUA V0203601N005110030019N0032001N9+00191+00191103181ADDGA1061+003009059GA2021+006009079GF108991999999999999999999MA1999999101351MW1051
0082036553999991952012110004+51933-001250SAO  +0138EGUA V0203601N005710030019N0048001N9+00191+00191103181ADDGA1051+003009059GA2031+006009079GF108991999999999999999999MA1999999101391MW1051
0082036553999991952012111004+51933-001250SAO  +0138EGUA V0200201N006710030019N0048001N9+00191+00191103251ADDGA1051+003009059GA2081+006009079GF108991999999999999999999MA1999999101461MW1051
0119036553999991952012112004+51933-001250SAO  +0138EGUA V0200201N009810060019N0048001N9+00241+00021103181ADDAA124999929GA1041+003009059GA2081+006009079GF108991999999999999999999KA1999M+00241KA2999N+00081MA1999999101351MW1051
0082036553999991952012113004+51933-001250SAO  +0138EGUA V0200201N006710060019N0048001N9+00191+00021103181ADDGA1031+003009059GA2081+006009079GF108991999999999999999999MA1999999101351MW1051
0082036553999991952012114004+51933-001250SAO  +0138EGUA V0200201N005710060019N0048001N9+00191+00021103181ADDGA1031+003009059GA2081+006009079GF108991999999999999999999MA1999999101351MW1051
0082036553999991952012115004+51933-001250SAO  +0138EGUA V0200201N005710060019N0064001N9+00191+00081103181ADDGA1031+003009059GA2081+006009079GF108991999999999999999999MA1999999101351MW1051
0082036553999991952012116004+51933-001250SAO  +0138EGUA V0200201N008210060019N0064001N9+00191+00081103221ADDGA1031+003009059GA2081+006009079GF108991999999999999999999MA1999999101391MW1051
0082036553999991952012117004+51933-001250SAO  +0138EGUA V0200201N006210030019N0064001N9+00191-00041103181ADDGA1061+003009059GA2081+006009079GF108991999999999999999999MA1999999101391MW1051
0082036553999991952012118004+51933-001250SAO  +0138EGUA V0200501N005110030019N0064001N9+00191-00041103121ADDGA1061+003009059GA2081+006009079GF108991999999999999999999MA1999999101321MW1051
0082036553999991952012119004+51933-001250SAO  +0138EGUA V0203601N006210060019N0080001N9+00191-00041103151ADDGA1021+003009079GA2081+006009059GF108991999999999999999999MA1999999101351MW1051
0066036553999991952012120004+51933-001250SAO  +0138EGUA V0203601N004610060019N0096001N9+00191-00041103151ADDGA1081+006009059GF108991999999999999999999MA1999999101351MW1051
0066036553999991952012121004+51933-001250SAO  +0138EGUA V0200501N003610075019N0096001N9+00131-00151103181ADDGA1081+007509059GF108991999999999999999999MA1999999101351MW1051
0066036553999991952012122004+51933-001250SAO  +0138EGUA V0200201N003610075019N0096001N9+00081+00021103151ADDGA1081+007509059GF108991999999999999999999MA1999999101321MW1051
0066036553999991952012123004+51933-001250SAO  +0138EGUA V0200201N004110075019N0080001N9+00131+00021103151ADDGA1081+007509059GF108991999999999999999999MA1999999101321MW1051
0066036553999991952012200004+51933-001250SAO  +0138EGUA V0203601N003610075019N0080001N9+00081+00021102981ADDGA1081+007509059GF108991999999999999999999MA1999999101221MW1051
0066036553999991952012201004+51933-001250SAO  +0138EGUA V0203601N003110075019N0080001N9+00081-00091103011ADDGA1081+007509059GF108991999999999999999999MA1999999101191MW1051
0066036553999991952012202004+51933-001250SAO  +0138EGUA V0203601N002610075019N0080001N9+00021-00091102981ADDGA1081+007509059GF108991999999999999999999MA1999999101151MW1051
0066036553999991952012203004+51933-001250SAO  +0138EGUA V0203601N003110075019N0080001N9+00021-00091102981ADDGA1081+007509059GF108991999999999999999999MA1999999101151MW1051
0066036553999991952012204004+51933-001250SAO  +0138EGUA V0203601N002610075019N0080001N9+00021-00091102951ADDGA1081+007509059GF108991999999999999999999MA1999999101121MW1051
0066036553999991952012205004+51933-001250SAO  +0138EGUA V0203601N002610075019N0080001N9+00021-00041102841ADDGA1081+007509059GF108991999999999999999999MA1999999101051MW1051
0066036553999991952012206004+51933-001250SAO  +0138EGUA V0203601N001010075019N0080001N9+00021-00041102781ADDGA1081+007509059GF108991999999999999999999MA1999999100981MW1051
0066036553999991952012207004+51933-001250SAO  +0138EGUA V0203601N002110060019N0048001N9+00021+00021102741ADDGA1081+006009059GF108991999999999999999999MA1999999100951MW1051
0066036553999991952012208004+51933-001250SAO  +0138EGUA V0203601N002610060019N0048001N9+00021+00021102681ADDGA1081+006009059GF108991999999999999999999MA1999999100881MW1051
0066036553999991952012209004+51933-001250SAO  +0138EGUA V0200201N001510090019N0064001N9+00021-00041102641ADDGA1071+009009059GF107991999999999999999999MA1999999100851MW1051
0072036553999991952012210004+51933-001250SAO  +0138EGUA V0209991C000010075019N0064001N9+00081-00041102571ADDGA1071+007509059GF107991999999999999999999MA1999999100781MW1051MW2711
0082036553999991952012211004+51933-001250SAO  +0138EGUA V0209991C000010075019N0048001N9+00131-00151102541ADDGA1021+003609079GA2081+007509059GF108991999999999999999999MA1999999100751MW1051
0119036553999991952012212004+51933-001250SAO  +0138EGUA V0209991C000010060019N0040001N9+00131-00151102511ADDAA124999929GA1041+003609079GA2081+006009059GF108991999999999999999999KA1999M+00241KA2999N+00021MA1999999100751MW1051
0082036553999991952012213004+51933-001250SAO  +0138EGUA V0200901N002110060019N0024001N9+00131+00081102511ADDGA1041+003609079GA2081+006009059GF108991999999999999999999MA1999999100711MW1051
0082036553999991952012214004+51933-001250SAO  +0138EGUA V0201101N001510060019N0024001N9+00191+00081102401ADDGA1041+004509079GA2081+006009059GF108991999999999999999999MA1999999100611MW1051
0082036553999991952012215004+51933-001250SAO  +0138EGUA V0201101N002110045019N0032001N9+00191-00041102341ADDGA1061+004509059GA2011+006009089GF107991999999999999999999MA1999999100541MW1051
0066036553999991952012216004+51933-001250SAO  +0138EGUA V0201101N001510045019N0032001N9+00191-00261102301ADDGA1071+004509059GF107991999999999999999999MA1999999100511MW1051
0066036553999991952012217004+51933-001250SAO  +0138EGUA V0201101N001510060019N0016001N9+00131+00021102241ADDGA1081+006009059GF108991999999999999999999MA1999999100441MW1451
0066036553999991952012218004+51933-001250SAO  +0138EGUA V0201101N001010060019N0016001N9+00131+00021102201ADDGA1081+006009059GF108991999999999999999999MA1999999100411MW1451
0066036553999991952012219004+51933-001250SAO  +0138EGUA V0201101N001510060019N0032001N9+00131-00041102031ADDGA1081+006009059GF108991999999999999999999MA1999999100341MW1451
0066036553999991952012220004+51933-001250SAO  +0138EGUA V0201401N001510060019N0032001N9+00081-00041102101ADDGA1081+006009059GF108991999999999999999999MA1999999100301MW1451
0066036553999991952012221004+51933-001250SAO  +0138EGUA V0201401N002610060019N0024001N9+00081+00021102071ADDGA1081+006009059GF108991999999999999999999MA1999999100271MW1451
0066036553999991952012222004+51933-001250SAO  +0138EGUA V0201401N001510075019N0008001N9+00081+00081102031ADDGA1081+007509059GF108991999999999999999999MA1999999100241MW1451
0066036553999991952012223004+51933-001250SAO  +0138EGUA V0201101N003610075019N0008001N9+00081+00081101961ADDGA1081+007509059GF108991999999999999999999MA1999999100171MW1451
0066036553999991952012300004+51933-001250SAO  +0138EGUA V0201101N002610075019N0008001N9+00081+00081101931ADDGA1081+007509059GF108991999999999999999999MA1999999100141MW1451
0066036553999991952012301004+51933-001250SAO  +0138EGUA V0201101N002110075019N0008001N9+00081-00041101901ADDGA1081+007509059GF108991999999999999999999MA1999999100101MW1111
0066036553999991952012302004+51933-001250SAO  +0138EGUA V0200901N002110075019N0008001N9+00081-00041101831ADDGA1081+007509059GF108991999999999999999999MA1999999100031MW1111
0066036553999991952012303004+51933-001250SAO  +0138EGUA V0201101N002612200019N0008001N9-00041-00091101761ADDGA1031+007509059GF102991999999999999999999MA1999999099971MW1111
0066036553999991952012304004+51933-001250SAO  +0138EGUA V0201101N002612200019N0008001N9+00021-00261101691ADDGA1031+007509059GF102991999999999999999999MA1999999099901MW1111
0066036553999991952012305004+51933-001250SAO  +0138EGUA V0200901N003110075019N0008001N9-00041-00091101631ADDGA1081+007509059GF108991999999999999999999MA1999999099831MW1111
0066036553999991952012306004+51933-001250SAO  +0138EGUA V0200901N003110075019N0008001N9+00021-00091101521ADDGA1081+007509059GF108991999999999999999999MA1999999099731MW1111
0066036553999991952012307004+51933-001250SAO  +0138EGUA V0201101N003610075019N0008001N9+00081+00021101491ADDGA1081+007509059GF108991999999999999999999MA1999999099701MW1111
0066036553999991952012308004+51933-001250SAO  +0138EGUA V0201101N003610090019N0004001N9+00131+00021101461ADDGA1081+009009059GF108991999999999999999999MA1999999099661MW1111
0066036553999991952012309004+51933-001250SAO  +0138EGUA V0201101N003110075019N0004001N9+00131+00081101461ADDGA1081+007509059GF108991999999999999999999MA1999999099661MW1111
0066036553999991952012310004+51933-001250SAO  +0138EGUA V0201101N002610045019N0004001N9+00191+00131101421ADDGA1081+004509079GF108991999999999999999999MA1999999099631MW1451
0066036553999991952012311004+51933-001250SAO  +0138EGUA V0200901N005110015019N0004001N9+00191+00131101421ADDGA1081+001509079GF108991999999999999999999MA1999999099631MW1451
0103036553999991952012312004+51933-001250SAO  +0138EGUA V0200901N003610015019N0004001N9+00241+00131101421ADDAA124999929GA1091+001509999GF109991999999999999999999KA1999M+00241KA2999N-00041MA1999999099631MW1451
0066036553999991952012313004+51933-001250SAO  +0138EGUA V0200901N003110015019N0004001N9+00241+00191101351ADDGA1091+001509999GF109991999999999999999999MA1999999099561MW1451
0066036553999991952012314004+51933-001250SAO  +0138EGUA V0201101N002110015019N0004001N9+00241+00241101291ADDGA1091+001509999GF109991999999999999999999MA1999999099491MW1451
0066036553999991952012315004+51933-001250SAO  +0138EGUA V0200701N003610015019N0004001N9+00301+00241101251ADDGA1091+001509999GF109991999999999999999999MA1999999099461MW1451
0066036553999991952012316004+51933-001250SAO  +0138EGUA V0200701N003610015019N0006001N9+00241+00191101221ADDGA1091+001509999GF109991999999999999999999MA1999999099421MW1451
0066036553999991952012317004+51933-001250SAO  +0138EGUA V0200701N003110030019N0006001N9+00191+00191101221ADDGA1081+003009079GF108991999999999999999999MA1999999099421MW1451
0066036553999991952012318004+51933-001250SAO  +0138EGUA V0200701N003110030019N0006001N9+00191+00191101191ADDGA1081+003009079GF108991999999999999999999MA1999999099391MW1451
0066036553999991952012319004+51933-001250SAO  +0138EGUA V0200501N003110030019N0004001N9+00191+00191101191ADDGA1081+003009079GF108991999999999999999999MA1999999099391MW1451
0072036553999991952012320004+51933-001250SAO  +0138EGUA V0200501N004110030019N0002001N9+00191+00191101151ADDGA1081+003009079GF108991999999999999999999MA1999999099361MW1451MW2511
0066036553999991952012321004+51933-001250SAO  +0138EGUA V0200501N003610030019N0002001N9+00191+00191101121ADDGA1081+003009079GF108991999999999999999999MA1999999099321MW1451
0066036553999991952012322004+51933-001250SAO  +0138EGUA V0200701N002610030019N0002001N9+00191+00191101121ADDGA1081+003009079GF108991999999999999999999MA1999999099321MW1451
0066036553999991952012323004+51933-001250SAO  +0138EGUA V0200701N003110030019N0002001N9+00191+00191101051ADDGA1081+003009079GF108991999999999999999999MA1999999099261MW1451
0066036553999991952012400004+51933-001250SAO  +0138EGUA V0200701N004110030019N0006001N9+00131+00131101021ADDGA1081+003009079GF108991999999999999999999MA1999999099221MW1451
0066036553999991952012401004+51933-001250SAO  +0138EGUA V0200701N003110030019N0006001N9+00131+00131101021ADDGA1081+003009079GF108991999999999999999999MA1999999099221MW1111
0072036553999991952012402004+51933-001250SAO  +0138EGUA V0200501N003110030019N0006001N9+00131+00131100911ADDGA1081+003009079GF108991999999999999999999MA1999999099151MW1111MW2511
0066036553999991952012403004+51933-001250SAO  +0138EGUA V0200701N003610030019N0006001N9+00131+00131100881ADDGA1081+003009079GF108991999999999999999999MA1999999099121MW1111
0066036553999991952012404004+51933-001250SAO  +0138EGUA V0200701N005110030019N0006001N9+00131+00131100851ADDGA1081+003009079GF108991999999999999999999MA1999999099091MW1111
0066036553999991952012405004+51933-001250SAO  +0138EGUA V0200701N003610030019N0006001N9+00131+00081100811ADDGA1081+003009079GF108991999999999999999999MA1999999099051MW1111
0066036553999991952012406004+51933-001250SAO  +0138EGUA V0200701N004610030019N0006001N9+00131+00081100751ADDGA1081+003009079GF108991999999999999999999MA1999999098981MW1111
0066036553999991952012407004+51933-001250SAO  +0138EGUA V0200501N003610042019N0012001N9+00131+00081100711ADDGA1081+004209079GF108991999999999999999999MA1999999098951MW1111
