0082036553999991956010100004+51933-001250SAO  +0138EGUA V0202301N003112200019N0128001N9+00241+00131101951ADDGA1011+012009059GA2031+045009039GF102991999999999999999999MA1999999100201MW1001
0082036553999991956010101004+51933-001250SAO  +0138EGUA V0202301N006210360019N0128001N9+00301+00241101891ADDGA1031+009009059GA2081+036009039GF108991999999999999999999MA1999999100141MW1001
0082036553999991956010102004+51933-001250SAO  +0138EGUA V0202301N006710090019N0128001N9+00351+00191101751ADDGA1061+009009079GA2081+024009039GF108991999999999999999999MA1999999100001MW1001
0066036553999991956010103004+51933-001250SAO  +0138EGUA V0202301N005710078019N0080001N9+00351+00241101651ADDGA1081+007809079GF108991999999999999999999MA1999999099901MW1611
0082036553999991956010104004+51933-001250SAO  +0138EGUA V0202301N007710021019N0080001N9+00411+00351101451ADDGA1061+002109079GA2081+007809079GF108991999999999999999999MA1999999099701MW1611
0098036553999991956010105004+51933-001250SAO  +0138EGUA V0202301N008210021019N0064001N9+00521+00461101311ADDGA1041+000909079GA2061+002109079GA3081+007809059GF108991999999999999999999MA1999999099561MW1611
0088036553999991956010106004+51933-001250SAO  +0138EGUA V0202301N009310009019N0026001N9+00581+00521100971ADDGA1021+999999999GA2081+000909079GF108991999999999999999999MA1999999099221MW1111MW2611
0066036553999991956010107004+51933-001250SAO  +0138EGUA V0202501N008210009019N0096001N9+00691+00631100841ADDGA1081+000909059GF108991999999999999999999MA1999999099121MW1611
0082036553999991956010108004+51933-001250SAO  +0138EGUA V0202501N007710120019N0128001N9+00741+00631100701ADDGA1021+000909079GA2081+012009059GF108991999999999999999999MA1999999098981MW1001
0082036553999991956010109004+51933-001250SAO  +0138EGUA V0202501N007210090019N0176001N9+00851+00741100571ADDGA1051+004209079GA2081+009009059GF108991999999999999999999MA1999999098851MW1001
0082036553999991956010110004+51933-001250SAO  +0138EGUA V0202701N008210300019N0240001N9+01021+00741100501ADDGA1051+004209079GA2061+030009039GF107991999999999999999999MA1999999098781MW1001
0082036553999991956010111004+51933-001250SAO  +0138EGUA V0202701N018010300019N0240001N9+01131+00691100361ADDGA1041+005409079GA2061+030009039GF107991999999999999999999MA1999999098651MW1001
0119036553999991956010112004+51933-001250SAO  +0138EGUA V0202701N012912200019N0240001N9+01071+00801100261ADDAA124002091GA1021+005409079GA2031+009009059GF102991999999999999999999KA1999M+01131KA2999N+00241MA1999999098541MW1001
0082036553999991956010113004+51933-001250SAO  +0138EGUA V0202901N014412200019N0176001N9+00851+00631100261ADDGA1021+004509079GA2021+007509099GF102991999999999999999999MA1999999098541MW1001
0066036553999991956010114004+51933-001250SAO  +0138EGUA V0202901N015410063019N0176001N9+00851+00581100261ADDGA1061+006309079GF107991999999999999999999MA1999999098541MW1001
0082036553999991956010115004+51933-001250SAO  +0138EGUA V0202901N014410063019N0176001N9+00851+00521100261ADDGA1041+003609079GA2061+006309059GF107991999999999999999999MA1999999098541MW1001
0082036553999991956010116004+51933-001250SAO  +0138EGUA V0203201N013410063019N0128001N9+00741+00461100261ADDGA1031+003609079GA2061+006309059GF107991999999999999999999MA1999999098541MW1001
0082036553999991956010117004+51933-001250SAO  +0138EGUA V0203201N011310063019N0128001N9+00741+00521100231ADDGA1021+004509079GA2051+006309059GF107991999999999999999999MA1999999098511MW1001
0066036553999991956010118004+51933-001250SAO  +0138EGUA V0203201N011310072019N0128001N9+00741+00411100191ADDGA1051+007209059GF107991999999999999999999MA1999999098481MW1001
0066036553999991956010119004+51933-001250SAO  +0138EGUA V0203201N008710072019N0128001N9+00741+00351100161ADDGA1081+007209059GF108991999999999999999999MA1999999098441MW1001
0066036553999991956010120004+51933-001250SAO  +0138EGUA V0202901N006710072019N0128001N9+00691+00411100161ADDGA1081+007209059GF108991999999999999999999MA1999999098441MW1001
0066036553999991956010121004+51933-001250SAO  +0138EGUA V0202901N006210072019N0128001N9+00631+00411100131ADDGA1081+007209059GF108991999999999999999999MA1999999098441MW1001
0066036553999991956010122004+51933-001250SAO  +0138EGUA V0203201N009310072019N0128001N9+00691+00411100131ADDGA1081+007209059GF108991999999999999999999MA1999999098441MW1001
0066036553999991956010123004+51933-001250SAO  +0138EGUA V0203201N006210072019N0128001N9+00691+00461100131ADDGA1081+007209059GF108991999999999999999999MA1999999098441MW1001
0066036553999991956010200004+51933-001250SAO  +0138EGUA V0203201N011810072019N0128001N9+00741+00461100231ADDGA1081+007209059GF108991999999999999999999MA1999999098541MW1611
0082036553999991956010201004+51933-001250SAO  +0138EGUA V0203601N015410045019N0128001N9+00631+00461100401ADDGA1031+001509059GA2081+004509059GF108991999999999999999999MA1999999098681MW1611
0082036553999991956010202004+51933-001250SAO  +0138EGUA V0203601N018010045019N0128001N9+00581+00411100571ADDGA1021+001509059GA2081+004509059GF108991999999999999999999MA1999999098851MW1611
0082036553999991956010203004+51933-001250SAO  +0138EGUA V0203601N013410045019N0128001N9+00581+00411100771ADDGA1021+001509059GA2081+004509059GF108991999999999999999999MA1999999099021MW1611
0082036553999991956010204004+51933-001250SAO  +0138EGUA V0203601N011310030019N0128001N9+00521+00411101011ADDGA1021+001509059GA2081+003009059GF108991999999999999999999MA1999999099261MW1611
0082036553999991956010205004+51933-001250SAO  +0138EGUA V0203601N013410027019N0064001N9+00581+00411101181ADDGA1021+001209059GA2081+002709059GF108991999999999999999999MA1999999099421MW1631
0082036553999991956010206004+51933-001250SAO  +0138EGUA V0203601N013410027019N0064001N9+00581+00461101411ADDGA1021+001209059GA2081+002709059GF108991999999999999999999MA1999999099661MW1631
0066036553999991956010207004+51933-001250SAO  +0138EGUA V0203601N012310030019N0128001N9+00581+00301101681ADDGA1081+003009059GF108991999999999999999999MA1999999099931MW1611
0098036553999991956010208004+51933-001250SAO  +0138EGUA V0200201N010310090019N0144001N9+00521+00411101921ADDGA1021+003009079GA2061+009009059GA3071+030009039GF108991999999999999999999MA1999999100171MW1001
0082036553999991956010209004+51933-001250SAO  +0138EGUA V0200201N008212200019N0144001N9+00461+00191102121ADDGA1021+009009059GA2041+030009039GF102991999999999999999999MA1999999100371MW1001
0066036553999991956010210004+51933-001250SAO  +0138EGUA V0200201N008212200019N0144001N9+00461+00241102231ADDGA1001+999999999GF100991999999999999999999MA1999999100471MW1001
0066036553999991956010211004+51933-001250SAO  +0138EGUA V0200201N003112200019N0144001N9+00521+00241102341ADDGA1011+024009039GF102991999999999999999999MA1999999100581MW1001
0119036553999991956010212004+51933-001250SAO  +0138EGUA V0200201N006710270019N0128001N9+00521+00301102361ADDAA124002091GA1041+009009059GA2021+027009039GF107991999999999999999999KA1999M+00741KA2999N-00091MA1999999100611MW1001
0098036553999991956010213004+51933-001250SAO  +0138EGUA V0200201N008712200019N0036001N9+00521+00301102361ADDGA1091+999999999GA2021+012009089GA3041+030009039GF102991999999999999999999MA1999999100611MW1051
0082036553999991956010214004+51933-001250SAO  +0138EGUA V0200201N006212200019N0064001N9+00521+00301102431ADDGA1021+010509089GA2011+030009039GF102991999999999999999999MA1999999100681MW1051
0066036553999991956010215004+51933-001250SAO  +0138EGUA V0200201N006212200019N0064001N9+00521+00241102501ADDGA1001+999999999GF100991999999999999999999MA1999999100751MW1051
0066036553999991956010216004+51933-001250SAO  +0138EGUA V0200201N004612200019N0064001N9+00351+00191102601ADDGA1011+027009039GF102991999999999999999999MA1999999100851MW1051
0066036553999991956010217004+51933-001250SAO  +0138EGUA V0200201N003112200019N0048001N9+00301+00131102701ADDGA1001+999999999GF100991999999999999999999MA1999999100951MW1051
0066036553999991956010218004+51933-001250SAO  +0138EGUA V0200701N003612200019N0048001N9+00191+00021102731ADDGA1001+999999999GF100991999999999999999999MA1999999100951MW1051
0066036553999991956010219004+51933-001250SAO  +0138EGUA V0200201N004112200019N0036001N9+00081-00041102741ADDGA1091+999999999GF102991999999999999999999MA1999999100951MW1051
0066036553999991956010220004+51933-001250SAO  +0138EGUA V0200201N004112200019N0028001N9+00021-00091102781ADDGA1091+999999999GF102991999999999999999999MA1999999100981MW1051
0082036553999991956010221004+51933-001250SAO  +0138EGUA V0200201N003612200019N0028001N9+00021-00201102811ADDGA1091+999999999GA2021+075009009GF102991999999999999999999MA1999999101021MW1051
0082036553999991956010222004+51933-001250SAO  +0138EGUA V0200201N003112200019N0032001N9+00021-00151102841ADDGA1091+999999999GA2021+075009009GF102991999999999999999999MA1999999101051MW1051
0082036553999991956010223004+51933-001250SAO  +0138EGUA V0200201N003612200019N0032001N9+00021-00201102911ADDGA1091+999999999GA2011+075009009GF102991999999999999999999MA1999999101121MW1051
0082036553999991956010300004+51933-001250SAO  +0138EGUA V0200201N004112200019N0032001N9-00091-00151102911ADDGA1091+999999999GA2011+075009009GF102991999999999999999999MA1999999101121MW1051
0082036553999991956010301004+51933-001250SAO  +0138EGUA V0200201N003612200019N0032001N9-00091-00261102911ADDGA1091+999999999GA2011+009009059GF102991999999999999999999MA1999999101121MW1051
0066036553999991956010302004+51933-001250SAO  +0138EGUA V0202001N002112200019N0036001N9+00021-00091102911ADDGA1001+999999999GF100991999999999999999999MA1999999101121MW1051
0066036553999991956010303004+51933-001250SAO  +0138EGUA V0202001N002110090019N0036001N9+00021-00041102911ADDGA1061+009009059GF107991999999999999999999MA1999999101121MW1051
0066036553999991956010304004+51933-001250SAO  +0138EGUA V0202001N002610090019N0040001N9+00131-00041102951ADDGA1071+009009059GF107991999999999999999999MA1999999101151MW1051
0066036553999991956010305004+51933-001250SAO  +0138EGUA V0202001N003110084019N0064001N9+00131-00041102951ADDGA1071+008409059GF107991999999999999999999MA1999999101151MW1051
0066036553999991956010306004+51933-001250SAO  +0138EGUA V0202001N002610084019N0064001N9+00191+00021102981ADDGA1081+008409059GF108991999999999999999999MA1999999101151MW1051
0066036553999991956010307004+51933-001250SAO  +0138EGUA V0202001N002610063019N0064001N9+00131+00021102981ADDGA1081+006309059GF108991999999999999999999MA1999999101151MW1051
0066036553999991956010308004+51933-001250SAO  +0138EGUA V0209991C000010072019N0064001N9+00191+00081103011ADDGA1081+007209059GF108991999999999999999999MA1999999101191MW1051
0072036553999991956010309004+51933-001250SAO  +0138EGUA V0209991C000010072019N0040001N9+00191+00081103051ADDGA1081+007209059GF108991999999999999999999MA1999999101221MW1051MW2111
0066036553999991956010310004+51933-001250SAO  +0138EGUA V0202001N002110072019N0064001N9+00301+00191103081ADDGA1081+007209059GF108991999999999999999999MA1999999101251MW1051
0066036553999991956010311004+51933-001250SAO  +0138EGUA V0202501N002110072019N0064001N9+00411+00301103121ADDGA1081+007209059GF108991999999999999999999MA1999999101291MW1051
0103036553999991956010312004+51933-001250SAO  +0138EGUA V0202301N001510072019N0064001N9+00521+00411103081ADDAA124000091GA1081+007209059GF108991999999999999999999KA1999M+00691KA2999N-00091MA1999999101321MW1051
0066036553999991956010313004+51933-001250SAO  +0138EGUA V0202301N001510072019N0064001N9+00631+00351103121ADDGA1081+007209059GF108991999999999999999999MA1999999101321MW1051
0066036553999991956010314004+51933-001250SAO  +0138EGUA V0202301N002110063019N0064001N9+00631+00461103111ADDGA1081+006309059GF108991999999999999999999MA1999999101321MW1051
0066036553999991956010315004+51933-001250SAO  +0138EGUA V0202701N002110063019N0080001N9+00691+00461103111ADDGA1081+006309059GF108991999999999999999999MA1999999101321MW1051
0066036553999991956010316004+51933-001250SAO  +0138EGUA V0202701N002110063019N0080001N9+00691+00461103111ADDGA1081+006309059GF108991999999999999999999MA1999999101321MW1051
0066036553999991956010317004+51933-001250SAO  +0138EGUA V0202501N002110042019N0080001N9+00691+00461103111ADDGA1081+004209059GF108991999999999999999999MA1999999101321MW1051
0066036553999991956010318004+51933-001250SAO  +0138EGUA V0202501N002110042019N0080001N9+00631+00461103211ADDGA1081+004209059GF108991999999999999999999MA1999999101421MW1051
0066036553999991956010319004+51933-001250SAO  +0138EGUA V0202901N002110039019N0064001N9+00631+00461103241ADDGA1081+003909059GF108991999999999999999999MA1999999101461MW1051
0066036553999991956010320004+51933-001250SAO  +0138EGUA V0202301N002110036019N0064001N9+00581+00461103281ADDGA1081+003609059GF108991999999999999999999MA1999999101491MW1051
0066036553999991956010321004+51933-001250SAO  +0138EGUA V0202301N002610036019N0064001N9+00581+00461103311ADDGA1081+003609059GF108991999999999999999999MA1999999101521MW1051
0066036553999991956010322004+51933-001250SAO  +0138EGUA V0202301N002110036019N0064001N9+00631+00461103311ADDGA1081+003609059GF108991999999999999999999MA1999999101521MW1051
0066036553999991956010323004+51933-001250SAO  +0138EGUA V0202501N002610036019N0064001N9+00631+00461103341ADDGA1081+003609059GF108991999999999999999999MA1999999101561MW1051
0066036553999991956010400004+51933-001250SAO  +0138EGUA V0202001N002110036019N0064001N9+00631+00411103311ADDGA1081+003609059GF108991999999999999999999MA1999999101521MW1051
0066036553999991956010401004+51933-001250SAO  +0138EGUA V0202501N002610036019N0048001N9+00581+00461103311ADDGA1081+003609079GF108991999999999999999999MA1999999101521MW1051
0066036553999991956010402004+51933-001250SAO  +0138EGUA V0202701N002110036019N0048001N9+00631+00411103311ADDGA1081+003609079GF108991999999999999999999MA1999999101521MW1051
0066036553999991956010403004+51933-001250SAO  +0138EGUA V0202301N002110039019N0064001N9+00581+00411103341ADDGA1081+003909079GF108991999999999999999999MA1999999101561MW1051
0066036553999991956010404004+51933-001250SAO  +0138EGUA V0209991C000010039019N0048001N9+00581+00411103341ADDGA1081+003909079GF108991999999999999999999MA1999999101561MW1051
0066036553999991956010405004+51933-001250SAO  +0138EGUA V0202001N003112200019N0036001N9+00411+00131103341ADDGA1001+999999999GF100991999999999999999999MA1999999101561MW1051
0066036553999991956010406004+51933-001250SAO  +0138EGUA V0209991C000012200019N0022001N9+00301+00301103311ADDGA1011+999999999GF102991999999999999999999MA1999999101521MW1111
0066036553999991956010407004+51933-001250SAO  +0138EGUA V0202001N002112200019N0018001N9+00241+00191103311ADDGA1021+999999999GF102991999999999999999999MA1999999101521MW1111
0066036553999991956010408004+51933-001250SAO  +0138EGUA V0209991C000012200019N0005001N9+00191+00131103341ADDGA1031+999999999GF102991999999999999999999MA1999999101561MW1111
0072036553999991956010409004+51933-001250SAO  +0138EGUA V0202001N002612200019N0018001N9+00241+00131103381ADDGA1011+999999999GF102991999999999999999999MA1999999101591MW1051MW2111
0088036553999991956010410004+51933-001250SAO  +0138EGUA V0209991C000012200019N0018001N9+00241+00081103441ADDGA1011+999999999GA2021+007509059GF102991999999999999999999MA1999999101661MW1051MW2111
0088036553999991956010411004+51933-001250SAO  +0138EGUA V0209991C000010120019N0026001N9+00351+00191103481ADDGA1011+999999999GA2081+012009059GF108991999999999999999999MA1999999101691MW1051MW2111
0141036553999991956010412004+51933-001250SAO  +0138EGUA V0202001N002110120019N0036001N9+00461+00241103441ADDAA124000091GA1011+999999999GA2061+006309079GA3081+012009059GF108991999999999999999999KA1999M+00631KA2999N-00091MA1999999101661MW1051MW2111
0066036553999991956010413004+51933-001250SAO  +0138EGUA V0202001N002110105019N0040001N9+00461+00301103441ADDGA1081+010509059GF108991999999999999999999MA1999999101661MW1051
0082036553999991956010414004+51933-001250SAO  +0138EGUA V0202001N002610063019N0064001N9+00521+00191103411ADDGA1061+006309079GA2081+015009059GF108991999999999999999999MA1999999101631MW1051
0082036553999991956010415004+51933-001250SAO  +0138EGUA V0202001N002110060019N0064001N9+00581+00241103381ADDGA1061+006009079GA2081+015009059GF108991999999999999999999MA1999999101591MW1051
0082036553999991956010416004+51933-001250SAO  +0138EGUA V0202301N003110054019N0040001N9+00521+00301103381ADDGA1061+005409079GA2081+015009059GF108991999999999999999999MA1999999101591MW1051
0098036553999991956010417004+51933-001250SAO  +0138EGUA V0202001N002110048019N0036001N9+00521+00241103341ADDGA1091+999999999GA2061+004809079GA3091+015009059GF108991999999999999999999MA1999999101561MW1051
0082036553999991956010418004+51933-001250SAO  +0138EGUA V0202001N002610045019N0036001N9+00521+00351103311ADDGA1091+999999999GA2091+004509059GF108991999999999999999999MA1999999101521MW1051
0082036553999991956010419004+51933-001250SAO  +0138EGUA V0202001N002610045019N0036001N9+00411+00301103311ADDGA1091+999999999GA2071+004509059GF107991999999999999999999MA1999999101521MW1051
0066036553999991956010420004+51933-001250SAO  +0138EGUA V0209991C000012200019N0036001N9+00241+00081103351ADDGA1001+999999999GF100991999999999999999999MA1999999101561MW1051
0072036553999991956010421004+51933-001250SAO  +0138EGUA V0209991C000012200019N0018001N9+00131+00021103351ADDGA1021+999999999GF102991999999999999999999MA1999999101561MW1051MW2111
0066036553999991956010422004+51933-001250SAO  +0138EGUA V0201601N001512200019N0006001N9+00021-00041103351ADDGA1031+999999999GF102991999999999999999999MA1999999101561MW1111
0066036553999991956010423004+51933-001250SAO  +0138EGUA V0201601N002612200019N0006001N9+00021+00021103351ADDGA1031+999999999GF102991999999999999999999MA1999999101561MW1111
0066036553999991956010500004+51933-001250SAO  +0138EGUA V0203601N002612200019N0001001N9-00091-00091103351ADDGA1041+999999999GF102991999999999999999999MA1999999101561MW1111
0066036553999991956010501004+51933-001250SAO  +0138EGUA V0202501N002112200019N0003001N9-00041-00041103321ADDGA1041+999999999GF102991999999999999999999MA1999999101521MW1111
0066036553999991956010502004+51933-001250SAO  +0138EGUA V0202501N002112200019N0001001N9-00091-00091103291ADDGA1051+999999999GF107991999999999999999999MA1999999101491MW1451
0066036553999991956010503004+51933-001250SAO  +0138EGUA V0202701N002112200019N0003001N9-00091-00091103291ADDGA1041+999999999GF102991999999999999999999MA1999999101491MW1111
0066036553999991956010504004+51933-001250SAO  +0138EGUA V0202701N002112200019N0080001N9+00021+00021103251ADDGA1011+999999999GF102991999999999999999999MA1999999101461MW1111
0066036553999991956010505004+51933-001250SAO  +0138EGUA V0201401N002112200019N0003001N9-00151-00151103251ADDGA1051+999999999GF107991999999999999999999MA1999999101461MW1451
0066036553999991956010506004+51933-001250SAO  +0138EGUA V0201601N002110001519N0000001N9-00371-00371103251ADDGA1091+000159999GF109991999999999999999999MA1999999101421MW1451
0066036553999991956010507004+51933-001250SAO  +0138EGUA V0209991C000010001519N0000001N9-00421-00421103251ADDGA1091+000159999GF109991999999999999999999MA1999999101421MW1451
0066036553999991956010508004+51933-001250SAO  +0138EGUA V0209991C000012200019N0000001N9-00371-00371103251ADDGA1051+999999999GF107991999999999999999999MA1999999101421MW1451
0082036553999991956010509004+51933-001250SAO  +0138EGUA V0209991C000012200019N0003001N9-00371-00421103251ADDGA1021+999999999GA2021+081009009GF102991999999999999999999MA1999999101421MW1111
0066036553999991956010510004+51933-001250SAO  +0138EGUA V0209991C000012200019N0001001N9-00261-00311103251ADDGA1031+999999999GF102991999999999999999999MA1999999101421MW1111
0066036553999991956010511004+51933-001250SAO  +0138EGUA V0200501N001512200019N0001001N9-00041-00091103291ADDGA1031+999999999GF102991999999999999999999MA1999999101461MW1111
0103036553999991956010512004+51933-001250SAO  +0138EGUA V0200701N001512200019N0008001N9+00191+00081103221ADDAA124000091GA1021+999999999GF102991999999999999999999KA1999M+00461KA2999N-00421MA1999999101391MW1111
0066036553999991956010513004+51933-001250SAO  +0138EGUA V0209991C000012200019N0012001N9+00411+00241103181ADDGA1021+999999999GF102991999999999999999999MA1999999101391MW1111
0066036553999991956010514004+51933-001250SAO  +0138EGUA V0200701N002112200019N0016001N9+00461+00241103151ADDGA1021+999999999GF102991999999999999999999MA1999999101351MW1111
0066036553999991956010515004+51933-001250SAO  +0138EGUA V0200701N002112200019N0018001N9+00461+00241103121ADDGA1011+999999999GF102991999999999999999999MA1999999101321MW1111
0082036553999991956010516004+51933-001250SAO  +0138EGUA V0200701N002112200019N0010001N9+00411+00241103121ADDGA1011+999999999GA2011+069009029GF102991999999999999999999MA1999999101321MW1111
0082036553999991956010517004+51933-001250SAO  +0138EGUA V0200501N003612200019N0008001N9+00241+00081103151ADDGA1021+999999999GA2011+069009029GF102991999999999999999999MA1999999101321MW1111
0066036553999991956010518004+51933-001250SAO  +0138EGUA V0200501N003612200019N0008001N9+00021-00041103051ADDGA1041+999999999GF102991999999999999999999MA1999999101221MW1111
0066036553999991956010519004+51933-001250SAO  +0138EGUA V0200501N003612200019N0010001N9+00021-00041103051ADDGA1051+999999999GF107991999999999999999999MA1999999101221MW1451
0066036553999991956010520004+51933-001250SAO  +0138EGUA V0200501N003612200019N0010001N9+00081+00021103051ADDGA1051+999999999GF107991999999999999999999MA1999999101221MW1451
0066036553999991956010521004+51933-001250SAO  +0138EGUA V0200701N003112200019N0010001N9+00021-00041103051ADDGA1021+999999999GF102991999999999999999999MA1999999101221MW1111
0066036553999991956010522004+51933-001250SAO  +0138EGUA V0200701N002612200019N0010001N9-00041-00041103051ADDGA1021+999999999GF102991999999999999999999MA1999999101221MW1111
0066036553999991956010523004+51933-001250SAO  +0138EGUA V0200501N002612200019N0005001N9-00151-00201103051ADDGA1041+999999999GF102991999999999999999999MA1999999101221MW1111
0066036553999991956010600004+51933-001250SAO  +0138EGUA V0200501N002112200019N0008001N9-00151-00151103081ADDGA1031+999999999GF102991999999999999999999MA1999999101251MW1111
0066036553999991956010601004+51933-001250SAO  +0138EGUA V0200501N002612200019N0008001N9-00041-00151103081ADDGA1031+999999999GF102991999999999999999999MA1999999101251MW1111
0066036553999991956010602004+51933-001250SAO  +0138EGUA V0200501N002612200019N0012001N9-00091-00261103081ADDGA1021+999999999GF102991999999999999999999MA1999999101251MW1111
0066036553999991956010603004+51933-001250SAO  +0138EGUA V0200501N002612200019N0012001N9-00091-00261102981ADDGA1021+999999999GF102991999999999999999999MA1999999101191MW1111
0066036553999991956010604004+51933-001250SAO  +0138EGUA V0200701N003112200019N0012001N9+00021-00091102981ADDGA1021+999999999GF102991999999999999999999MA1999999101191MW1111
0066036553999991956010605004+51933-001250SAO  +0138EGUA V0200501N003612200019N0012001N9+00021-00091102951ADDGA1021+999999999GF102991999999999999999999MA1999999101151MW1111
0066036553999991956010606004+51933-001250SAO  +0138EGUA V0200201N002612200019N0018001N9-00091-00311102841ADDGA1021+999999999GF102991999999999999999999MA1999999101051MW1111
0066036553999991956010607004+51933-001250SAO  +0138EGUA V0200201N003612200019N0018001N9-00091-00261102841ADDGA1011+999999999GF102991999999999999999999MA1999999101051MW1111
0066036553999991956010608004+51933-001250SAO  +0138EGUA V0203601N004112200019N0018001N9-00151-00261102841ADDGA1011+999999999GF102991999999999999999999MA1999999101051MW1111
0066036553999991956010609004+51933-001250SAO  +0138EGUA V0200501N002612200019N0008001N9-00201-00371102881ADDGA1031+999999999GF102991999999999999999999MA1999999101081MW1111
0066036553999991956010610004+51933-001250SAO  +0138EGUA V0200501N004112200019N0001001N9-00151-00201102911ADDGA1071+999999999GF107991999999999999999999MA1999999101121MW1451
0066036553999991956010611004+51933-001250SAO  +0138EGUA V0200501N002610001519N0000001N9-00041-00151102951ADDGA1091+000159999GF109991999999999999999999MA1999999101121MW1451
0103036553999991956010612004+51933-001250SAO  +0138EGUA V0200201N002610001519N0000001N9-00041-00091102951ADDAA124000091GA1091+000159999GF109991999999999999999999KA1999M+00081KA2999N-00201MA1999999101151MW1451
0066036553999991956010613004+51933-001250SAO  +0138EGUA V0203601N005110001519N0000001N9+00021+00021102951ADDGA1091+000159999GF109991999999999999999999MA1999999101121MW1451
0066036553999991956010614004+51933-001250SAO  +0138EGUA V0200201N002110001519N0000001N9+00021+00021102911ADDGA1091+000159999GF109991999999999999999999MA1999999101081MW1451
0066036553999991956010615004+51933-001250SAO  +0138EGUA V0200201N002610001519N0000001N9-00041-00041102881ADDGA1091+000159999GF109991999999999999999999MA1999999101391MW1451
0066036553999991956010616004+51933-001250SAO  +0138EGUA V0200501N002610001519N0000001N9-00091-00091102881ADDGA1091+000159999GF109991999999999999999999MA1999999101051MW1451
0066036553999991956010617004+51933-001250SAO  +0138EGUA V0200201N002110001519N0000001N9-00091-00091102881ADDGA1091+000159999GF109991999999999999999999MA1999999101051MW1451
0066036553999991956010618004+51933-001250SAO  +0138EGUA V0200201N001510001519N0000001N9-00091-00091102881ADDGA1091+000159999GF109991999999999999999999MA1999999101051MW1451
0066036553999991956010619004+51933-001250SAO  +0138EGUA V0200201N001510001519N0000001N9-00041-00041102881ADDGA1091+000159999GF109991999999999999999999MA1999999101051MW1451
0082036553999991956010620004+51933-001250SAO  +0138EGUA V0200201N002110009019N0010001N9-00041-00041102881ADDGA1051+999999999GA2081+000909079GF108991999999999999999999MA1999999101051MW1451
0082036553999991956010621004+51933-001250SAO  +0138EGUA V0200201N002110012019N0018001N9+00021-00041102881ADDGA1021+999999999GA2081+001209079GF108991999999999999999999MA1999999101051MW1451
0098036553999991956010622004+51933-001250SAO  +0138EGUA V0200501N002110012019N0018001N9+00021-00041102881ADDGA1021+999999999GA2061+001209079GA3081+004509079GF108991999999999999999999MA1999999101051MW1451
0098036553999991956010623004+51933-001250SAO  +0138EGUA V0200201N001510012019N0018001N9+00021+00021102881ADDGA1021+999999999GA2061+001209079GA3081+004509079GF108991999999999999999999MA1999999101051MW1451
0098036553999991956010700004+51933-001250SAO  +0138EGUA V0203601N002610012019N0018001N9+00081+00021102841ADDGA1021+999999999GA2051+001209079GA3081+004509079GF108991999999999999999999MA1999999101021MW1451
0082036553999991956010701004+51933-001250SAO  +0138EGUA V0203601N002610066019N0010001N9+00131+00021102841ADDGA1021+999999999GA2081+006609059GF108991999999999999999999MA1999999101021MW1111
0082036553999991956010702004+51933-001250SAO  +0138EGUA V0200501N002110066019N0010001N9+00131+00081102811ADDGA1021+999999999GA2081+006609059GF108991999999999999999999MA1999999100981MW1111
0082036553999991956010703004+51933-001250SAO  +0138EGUA V0203601N003110066019N0010001N9+00191+00131102781ADDGA1021+999999999GA2081+006609059GF108991999999999999999999MA1999999100951MW1111
0082036553999991956010704004+51933-001250SAO  +0138EGUA V0203601N003610066019N0010001N9+00191+00191102741ADDGA1021+999999999GA2081+006609059GF108991999999999999999999MA1999999100911MW1111
0082036553999991956010705004+51933-001250SAO  +0138EGUA V0203601N005110072019N0010001N9+00241+00131102681ADDGA1021+999999999GA2081+007209059GF108991999999999999999999MA1999999100881MW1111
0082036553999991956010706004+51933-001250SAO  +0138EGUA V0203601N004110072019N0005001N9+00241+00131102571ADDGA1031+999999999GA2081+007209059GF108991999999999999999999MA1999999100781MW1111
0098036553999991956010707004+51933-001250SAO  +0138EGUA V0203601N004610021019N0006001N9+00191+00191102541ADDGA1031+999999999GA2051+002109079GA3081+007209059GF108991999999999999999999MA1999999100751MW1451
0082036553999991956010708004+51933-001250SAO  +0138EGUA V0203401N004110021019N0003001N9+00241+00191102541ADDGA1061+999999999GA2081+002109079GF108991999999999999999999MA1999999100751MW1451
0082036553999991956010709004+51933-001250SAO  +0138EGUA V0203401N002110018019N0003001N9+00241+00131102511ADDGA1061+999999999GA2081+001809079GF108991999999999999999999MA1999999100711MW1451
0082036553999991956010710004+51933-001250SAO  +0138EGUA V0203401N002610024019N0003001N9+00241+00191102541ADDGA1061+999999999GA2081+002409079GF108991999999999999999999MA1999999100711MW1451
0082036553999991956010711004+51933-001250SAO  +0138EGUA V0203201N003110024019N0003001N9+00241+00131102471ADDGA1061+999999999GA2081+002409079GF108991999999999999999999MA1999999100681MW1451
0119036553999991956010712004+51933-001250SAO  +0138EGUA V0203601N001510024019N0008001N9+00241+00191102301ADDAA124000391GA1041+999999999GA2081+002409079GF108991999999999999999999KA1999M+00351KA2999N+00081MA1999999100541MW1111
0082036553999991956010713004+51933-001250SAO  +0138EGUA V0203401N001510018019N0005001N9+00351+00241102201ADDGA1051+999999999GA2081+001809079GF108991999999999999999999MA1999999100441MW1451
0088036553999991956010714004+51933-001250SAO  +0138EGUA V0203401N003610018019N0005001N9+00301+00241102171ADDGA1051+999999999GA2081+001809079GF108991999999999999999999MA1999999100371MW1451MW2611
0088036553999991956010715004+51933-001250SAO  +0138EGUA V0203401N004610018019N0005001N9+00301+00241102021ADDGA1051+999999999GA2081+001809079GF108991999999999999999999MA1999999100271MW1451MW2611
0088036553999991956010716004+51933-001250SAO  +0138EGUA V0203401N004610018019N0008001N9+00301+00241101991ADDGA1051+999999999GA2081+001809079GF108991999999999999999999MA1999999100241MW1451MW2611
0088036553999991956010717004+51933-001250SAO  +0138EGUA V0203201N005110072019N0024001N9+00301+00241101891ADDGA1051+999999999GA2081+007209079GF108991999999999999999999MA1999999100141MW1451MW2611
0066036553999991956010718004+51933-001250SAO  +0138EGUA V0203201N004612200019N0008001N9+00241+00191101831ADDGA1051+999999999GF107991999999999999999999MA1999999100071MW1451
0082036553999991956010719004+51933-001250SAO  +0138EGUA V0202901N003110120019N0012001N9+00301+00191101761ADDGA1051+999999999GA2081+012009059GF108991999999999999999999MA1999999100001MW1451
0082036553999991956010720004+51933-001250SAO  +0138EGUA V0202701N003110180019N0018001N9+00301+00241101681ADDGA1051+999999999GA2081+018009039GF108991999999999999999999MA1999999099931MW1111
0066036553999991956010721004+51933-001250SAO  +0138EGUA V0202501N003112200019N0032001N9+00191+00131101631ADDGA1021+999999999GF102991999999999999999999MA1999999099861MW1111
0066036553999991956010722004+51933-001250SAO  +0138EGUA V0202501N003112200019N0048001N9+00131+00021101561ADDGA1001+999999999GF100991999999999999999999MA1999999099761MW1111
0066036553999991956010723004+51933-001250SAO  +0138EGUA V0202501N003110084019N0064001N9+00191+00021101421ADDGA1081+008409059GF108991999999999999999999MA1999999099661MW1051
0066036553999991956010800004+51933-001250SAO  +0138EGUA V0202301N002110084019N0064001N9+00191+00081101321ADDGA1081+008409059GF108991999999999999999999MA1999999099561MW1051
0066036553999991956010801004+51933-001250SAO  +0138EGUA V0202901N007710090019N0064001N9+00301+00191101211ADDGA1081+009009059GF108991999999999999999999MA1999999099461MW1051
0066036553999991956010802004+51933-001250SAO  +0138EGUA V0203201N007710120019N0064001N9+00301+00191101111ADDGA1081+012009059GF108991999999999999999999MA1999999099361MW1051
0066036553999991956010803004+51933-001250SAO  +0138EGUA V0203201N006210105019N0064001N9+00241+00081101051ADDGA1081+010509059GF108991999999999999999999MA1999999099291MW1051
0066036553999991956010804004+51933-001250SAO  +0138EGUA V0202901N005112200019N0064001N9+00191+00021100981ADDGA1031+010509059GF102991999999999999999999MA1999999099221MW1051
0066036553999991956010805004+51933-001250SAO  +0138EGUA V0203201N004112200019N0064001N9+00131-00041100881ADDGA1031+010509059GF102991999999999999999999MA1999999099121MW1051
0066036553999991956010806004+51933-001250SAO  +0138EGUA V0203201N009310084019N0080001N9+00081-00091100781ADDGA1061+008409059GF107991999999999999999999MA1999999099021MW1051
0066036553999991956010807004+51933-001250SAO  +0138EGUA V0203201N006212200019N0080001N9+00021-00151100751ADDGA1031+010509059GF102991999999999999999999MA1999999098981MW1051
0098036553999991956010808004+51933-001250SAO  +0138EGUA V0203401N008210300019N0080001N9-00091-00091100711ADDGA1011+006009079GA2051+030009039GA3061+075009009GF107991999999999999999999MA1999999098951MW1051
0082036553999991956010809004+51933-001250SAO  +0138EGUA V0203201N007710750019N0096001N9-00091-00371100641ADDGA1021+010509059GA2061+075009009GF107991999999999999999999MA1999999098881MW1051
0082036553999991956010810004+51933-001250SAO  +0138EGUA V0203401N007210750019N0096001N9-00041-00371100581ADDGA1021+010509059GA2061+075009009GF107991999999999999999999MA1999999098811MW1051
0082036553999991956010811004+51933-001250SAO  +0138EGUA V0203401N008210750019N0096001N9+00021-00261100511ADDGA1041+010509059GA2071+075009009GF107991999999999999999999MA1999999098751MW1051
0119036553999991956010812004+51933-001250SAO  +0138EGUA V0203401N007212200019N0096001N9+00081-00261100411ADDAA124999929GA1021+010509059GA2031+075009009GF102991999999999999999999KA1999M+00301KA2999N-00091MA1999999098681MW1051
0082036553999991956010813004+51933-001250SAO  +0138EGUA V0203401N007712200019N0096001N9+00021-00261100311ADDGA1021+010509059GA2041+045009039GF102991999999999999999999MA1999999098541MW1051
0098036553999991956010814004+51933-001250SAO  +0138EGUA V0203201N009812200019N0096001N9+00081-00311100241ADDGA1021+006009079GA2021+010509059GA3041+075009009GF107991999999999999999999MA1999999098481MW1051
0066036553999991956010815004+51933-001250SAO  +0138EGUA V0203201N008710072019N0096001N9+00081-00371100201ADDGA1081+007209059GF108991999999999999999999MA1999999098441MW1051
0066036553999991956010816004+51933-001250SAO  +0138EGUA V0203201N006710072019N0096001N9+00021-00371100171ADDGA1081+007209059GF108991999999999999999999MA1999999098411MW1051
0066036553999991956010817004+51933-001250SAO  +0138EGUA V0203201N008210072019N0096001N9+00021-00421100141ADDGA1081+007209059GF108991999999999999999999MA1999999098371MW1051
0066036553999991956010818004+51933-001250SAO  +0138EGUA V0203201N009310072019N0080001N9-00041-00421100101ADDGA1081+007209059GF108991999999999999999999MA1999999098341MW1051
0066036553999991956010819004+51933-001250SAO  +0138EGUA V0203201N009310072019N0080001N9-00041-00421100041ADDGA1081+007209059GF108991999999999999999999MA1999999098271MW1051
0066036553999991956010820004+51933-001250SAO  +0138EGUA V0203201N011310069019N0080001N9-00091-00371099971ADDGA1081+006909059GF108991999999999999999999MA1999999098211MW1051
0066036553999991956010821004+51933-001250SAO  +0138EGUA V0203201N010310066019N0080001N9-00091-00421099931ADDGA1061+006609059GF107991999999999999999999MA1999999098171MW1051
0066036553999991956010822004+51933-001250SAO  +0138EGUA V0203201N011310066019N0080001N9-00091-00421099861ADDGA1061+006609059GF107991999999999999999999MA1999999098101MW1051
0066036553999991956010823004+51933-001250SAO  +0138EGUA V0203201N013410066019N0080001N9-00041-00371099801ADDGA1081+006609059GF108991999999999999999999MA1999999098041MW1051
0072036553999991956010900004+51933-001250SAO  +0138EGUA V0203201N013410066019N0080001N9-00041-00371099701ADDGA1081+006609059GF108991999999999999999999MA1999999097971MW1051MW2711
0072036553999991956010901004+51933-001250SAO  +0138EGUA V0203201N013410063019N0048001N9+00021-00311099631ADDGA1081+006309059GF108991999999999999999999MA1999999097901MW1051MW2711
0072036553999991956010902004+51933-001250SAO  +0138EGUA V0203201N010810063019N0048001N9-00041-00261099591ADDGA1081+006309059GF108991999999999999999999MA1999999097831MW1051MW2711
0072036553999991956010903004+51933-001250SAO  +0138EGUA V0203201N011810063019N0048001N9+00021-00261099591ADDGA1081+006309059GF108991999999999999999999MA1999999097831MW1051MW2711
0072036553999991956010904004+51933-001250SAO  +0138EGUA V0203201N012310030019N0032001N9-00041-00201099531ADDGA1081+003009079GF108991999999999999999999MA1999999097771MW1051MW2711
0072036553999991956010905004+51933-001250SAO  +0138EGUA V0203201N010310030019N0064001N9-00041-00201099491ADDGA1081+003009079GF108991999999999999999999MA1999999097731MW1051MW2711
0072036553999991956010906004+51933-001250SAO  +0138EGUA V0203201N011310045019N0064001N9-00041-00201099491ADDGA1081+004509079GF108991999999999999999999MA1999999097731MW1051MW2711
0072036553999991956010907004+51933-001250SAO  +0138EGUA V0203401N009810045019N0064001N9+00021-00201099491ADDGA1081+004509079GF108991999999999999999999MA1999999097731MW1051MW2711
0082036553999991956010908004+51933-001250SAO  +0138EGUA V0203401N009310120019N0096001N9-00041-00311099491ADDGA1031+007509079GA2081+012009059GF108991999999999999999999MA1999999097731MW1051
0098036553999991956010909004+51933-001250SAO  +0138EGUA V0203401N007710120019N0096001N9-00091-00311099491ADDGA1031+007509079GA2041+012009059GA3061+036009049GF108991999999999999999999MA1999999097731MW1051
0082036553999991956010910004+51933-001250SAO  +0138EGUA V0203201N008210063019N0096001N9-00041-00311099531ADDGA1061+006309059GA2061+012009059GF107991999999999999999999MA1999999097771MW1051
0082036553999991956010911004+51933-001250SAO  +0138EGUA V0203401N009310063019N0080001N9+00021-00261099491ADDGA1051+006309059GA2031+024009039GF107991999999999999999999MA1999999097731MW1051
0103036553999991956010912004+51933-001250SAO  +0138EGUA V0203201N011810063019N0096001N9+00021-00311099421ADDAA124000391GA1071+006309059GF107991999999999999999999KA1999M+00131KA2999N-00091MA1999999097661MW1051
0066036553999991956010913004+51933-001250SAO  +0138EGUA V0203201N007710063019N0096001N9+00131-00261099391ADDGA1061+006309059GF107991999999999999999999MA1999999097631MW1051
0082036553999991956010914004+51933-001250SAO  +0138EGUA V0202901N006712200019N0096001N9+00131-00151099361ADDGA1021+006309059GA2081+090009029GF108991999999999999999999MA1999999097601MW1051
0082036553999991956010915004+51933-001250SAO  +0138EGUA V0202701N006210900019N0080001N9+00081-00261099321ADDGA1021+030009049GA2081+090009029GF108991999999999999999999MA1999999097561MW1051
0082036553999991956010916004+51933-001250SAO  +0138EGUA V0202501N003610900019N0080001N9+00021-00261099291ADDGA1021+030009049GA2061+090009029GF107991999999999999999999MA1999999097561MW1051
0082036553999991956010917004+51933-001250SAO  +0138EGUA V0202301N002610900019N0080001N9-00091-00261099261ADDGA1011+030009049GA2081+090009029GF108991999999999999999999MA1999999097491MW1051
0082036553999991956010918004+51933-001250SAO  +0138EGUA V0201801N003610300019N0080001N9-00041-00421099051ADDGA1051+030009049GA2081+090009029GF108991999999999999999999MA1999999097321MW1051
0082036553999991956010919004+51933-001250SAO  +0138EGUA V0201801N004110300019N0064001N9-00041-00421099021ADDGA1061+030009049GA2081+090009029GF108991999999999999999999MA1999999097291MW1051
0066036553999991956010920004+51933-001250SAO  +0138EGUA V0201601N004110300019N0064001N9-00091-00421098981ADDGA1081+030009049GF108991999999999999999999MA1999999097261MW1051
0088036553999991956010921004+51933-001250SAO  +0138EGUA V0201801N004110090019N0048001N9-00041-00311098881ADDGA1051+009009059GA2081+030009049GF108991999999999999999999MA1999999097161MW1051MW2711
0072036553999991956010922004+51933-001250SAO  +0138EGUA V0201601N005710084019N0036001N9-00091-00201098711ADDGA1081+008409059GF108991999999999999999999MA1999999096991MW1051MW2711
0072036553999991956010923004+51933-001250SAO  +0138EGUA V0201401N006210012019N0028001N9-00091-00201098511ADDGA1081+001209079GF108991999999999999999999MA1999999096781MW1051MW2711
0072036553999991956011000004+51933-001250SAO  +0138EGUA V0201401N006710006019N0026001N9-00041-00091098311ADDGA1081+000609079GF108991999999999999999999MA1999999096581MW1051MW2711
0072036553999991956011001004+51933-001250SAO  +0138EGUA V0201601N008710015019N0036001N9-00041-00091098171ADDGA1081+001509079GF108991999999999999999999MA1999999096441MW1051MW2711
0072036553999991956011002004+51933-001250SAO  +0138EGUA V0201601N010810027019N0048001N9+00081-00041098001ADDGA1081+002709079GF108991999999999999999999MA1999999096281MW1051MW2711
0072036553999991956011003004+51933-001250SAO  +0138EGUA V0201601N008710027019N0048001N9+00131+00081097831ADDGA1081+002709079GF108991999999999999999999MA1999999096141MW1051MW2711
0072036553999991956011004004+51933-001250SAO  +0138EGUA V0201601N007710021019N0032001N9+00081+00021097701ADDGA1081+002109079GF108991999999999999999999MA1999999095971MW1051MW2711
0072036553999991956011005004+51933-001250SAO  +0138EGUA V0201601N009310024019N0040001N9+00191+00191097561ADDGA1081+002409079GF108991999999999999999999MA1999999095831MW1051MW2611
0072036553999991956011006004+51933-001250SAO  +0138EGUA V0201801N006210027019N0048001N9+00241+00241097321ADDGA1081+002709079GF108991999999999999999999MA1999999095601MW1051MW2611
0088036553999991956011007004+51933-001250SAO  +0138EGUA V0201801N004610042019N0048001N9+00301+00241097321ADDGA1061+000909079GA2081+004209059GF108991999999999999999999MA1999999095601MW1051MW2611
0066036553999991956011008004+51933-001250SAO  +0138EGUA V0201801N004110063019N0064001N9+00301+00241097321ADDGA1071+006309059GF107991999999999999999999MA1999999095601MW1051
0098036553999991956011009004+51933-001250SAO  +0138EGUA V0201801N003610600019N0080001N9+00301+00131097321ADDGA1011+006309059GA2021+012009059GA3051+060009009GF107991999999999999999999MA1999999095601MW1051
0098036553999991956011010004+51933-001250SAO  +0138EGUA V0201801N003610120019N0080001N9+00351+00081097361ADDGA1031+006309059GA2021+012009059GA3061+060009009GF107991999999999999999999MA1999999095631MW1051
0098036553999991956011011004+51933-001250SAO  +0138EGUA V0202001N006210120019N0096001N9+00351+00131097431ADDGA1021+006309059GA2051+012009059GA3061+060009009GF107991999999999999999999MA1999999095701MW1051
0119036553999991956011012004+51933-001250SAO  +0138EGUA V0201801N004610120019N0128001N9+00351+00131097491ADDAA124005091GA1021+007509099GA2061+012009059GF107991999999999999999999KA1999M+00581KA2999N-00041MA1999999095771MW1001
0066036553999991956011013004+51933-001250SAO  +0138EGUA V0202001N004110063019N0128001N9+00461+00241097451ADDGA1071+006309059GF107991999999999999999999MA1999999095771MW1001
0066036553999991956011014004+51933-001250SAO  +0138EGUA V0202301N006710063019N0128001N9+00581+00191097491ADDGA1051+006309059GF107991999999999999999999MA1999999095801MW1001
0082036553999991956011015004+51933-001250SAO  +0138EGUA V0202001N005110063019N0128001N9+00461+00191097561ADDGA1051+006309059GA2041+066009009GF107991999999999999999999MA1999999095871MW1001
0082036553999991956011016004+51933-001250SAO  +0138EGUA V0201801N004110660019N0176001N9+00411+00021097601ADDGA1011+006309079GA2061+066009009GF107991999999999999999999MA1999999095901MW1001
0082036553999991956011017004+51933-001250SAO  +0138EGUA V0201801N003610660019N0176001N9+00351+00021097631ADDGA1021+021009039GA2061+066009009GF107991999999999999999999MA1999999095941MW1001
0066036553999991956011018004+51933-001250SAO  +0138EGUA V0201601N005110360019N0096001N9+00301+00021097601ADDGA1081+036009039GF108991999999999999999999MA1999999095901MW1051
0082036553999991956011019004+51933-001250SAO  +0138EGUA V0201601N006210360019N0096001N9+00241+00081097561ADDGA1061+036009039GA2031+066009009GF107991999999999999999999MA1999999095871MW1051
0082036553999991956011020004+51933-001250SAO  +0138EGUA V0201401N007710360019N0096001N9+00301+00131097521ADDGA1041+018009059GA2061+036009039GF108991999999999999999999MA1999999095831MW1051
0072036553999991956011021004+51933-001250SAO  +0138EGUA V0201401N009310051019N0064001N9+00411+00351097351ADDGA1081+005109059GF108991999999999999999999MA1999999095671MW1051MW2801
0072036553999991956011022004+51933-001250SAO  +0138EGUA V0201601N008710042019N0064001N9+00411+00301097181ADDGA1081+004209079GF108991999999999999999999MA1999999095501MW1051MW2801
0088036553999991956011023004+51933-001250SAO  +0138EGUA V0201601N009310063019N0064001N9+00461+00351097041ADDGA1031+003009079GA2081+006309059GF108991999999999999999999MA1999999095391MW1051MW2801
0072036553999991956011100004+51933-001250SAO  +0138EGUA V0202001N011310045019N0064001N9+00521+00411097081ADDGA1081+004509079GF108991999999999999999999MA1999999095431MW1051MW2801
0072036553999991956011101004+51933-001250SAO  +0138EGUA V0202001N013910051019N0064001N9+00461+00241097181ADDGA1081+005109079GF108991999999999999999999MA1999999095501MW1051MW2801
0066036553999991956011102004+51933-001250SAO  +0138EGUA V0202301N020610063019N0064001N9+00411+00191097281ADDGA1081+006309079GF108991999999999999999999MA1999999095601MW1051
0066036553999991956011103004+51933-001250SAO  +0138EGUA V0202301N015410063019N0064001N9+00461+00131097431ADDGA1061+006309079GF107991999999999999999999MA1999999095731MW1051
0066036553999991956011104004+51933-001250SAO  +0138EGUA V0202301N009810063019N0064001N9+00411+00081097601ADDGA1051+006309079GF107991999999999999999999MA1999999095901MW1051
0066036553999991956011105004+51933-001250SAO  +0138EGUA V0202301N009312200019N0064001N9+00301+00081097771ADDGA1021+006309079GF102991999999999999999999MA1999999096071MW1051
0066036553999991956011106004+51933-001250SAO  +0138EGUA V0202301N011312200019N0064001N9+00301+00081097901ADDGA1001+999999999GF100991999999999999999999MA1999999096211MW1051
0082036553999991956011107004+51933-001250SAO  +0138EGUA V0202301N008212200019N0064001N9+00411+00191098041ADDGA1021+004209079GA2021+006309059GF102991999999999999999999MA1999999096341MW1051
0082036553999991956011108004+51933-001250SAO  +0138EGUA V0202301N009312200019N0080001N9+00351+00241098141ADDGA1021+004809079GA2031+006309059GF102991999999999999999999MA1999999096441MW1051
0082036553999991956011109004+51933-001250SAO  +0138EGUA V0202301N008210660019N0176001N9+00411+00131098261ADDGA1021+006309059GA2051+066009009GF107991999999999999999999MA1999999096581MW1001
0082036553999991956011110004+51933-001250SAO  +0138EGUA V0202301N009312200019N0128001N9+00521+00241098411ADDGA1021+006309059GA2021+066009009GF102991999999999999999999MA1999999096721MW1001
0066036553999991956011111004+51933-001250SAO  +0138EGUA V0202301N005710075019N0128001N9+00581+00301098531ADDGA1061+007509059GF107991999999999999999999MA1999999096851MW1001
0154036553999991956011112004+51933-001250SAO  +0138EGUA V0202301N008710660019N0128001N9+00691+00351098601ADDAA124002091GA1999+004509999GA2031+007509059GA3061+066009009GF107991999999999999999999KA1999M+00741KA2999N+00301MA1999999096921MW1001EQDQ01    003SCCGA1
0082036553999991956011113004+51933-001250SAO  +0138EGUA V0202301N008210660019N0128001N9+00691+00351098671ADDGA1031+007509089GA2031+066009009GF107991999999999999999999MA1999999096991MW1001
0082036553999991956011114004+51933-001250SAO  +0138EGUA V0202301N010310075019N0128001N9+00741+00351098771ADDGA1061+007509059GA2051+066009009GF107991999999999999999999MA1999999097091MW1001
0066036553999991956011115004+51933-001250SAO  +0138EGUA V0202501N011310063019N0064001N9+00521+00351099011ADDGA1081+006309059GF108991999999999999999999MA1999999097291MW1801
0082036553999991956011116004+51933-001250SAO  +0138EGUA V0202301N005710660019N0128001N9+00411+00241099051ADDGA1031+006309099GA2061+066009009GF107991999999999999999999MA1999999097321MW1001
0082036553999991956011117004+51933-001250SAO  +0138EGUA V0202001N005110660019N0128001N9+00411+00191099051ADDGA1041+009009089GA2051+066009009GF107991999999999999999999MA1999999097321MW1001
0066036553999991956011118004+51933-001250SAO  +0138EGUA V0202001N007712200019N0128001N9+00461+00191099041ADDGA1041+066009009GF102991999999999999999999MA1999999097361MW1001
0066036553999991956011119004+51933-001250SAO  +0138EGUA V0202301N008712200019N0128001N9+00461+00241099111ADDGA1021+060009009GF102991999999999999999999MA1999999097431MW1001
0066036553999991956011120004+51933-001250SAO  +0138EGUA V0202001N007212200019N0128001N9+00411+00191099181ADDGA1021+066009009GF102991999999999999999999MA1999999097491MW1001
0066036553999991956011121004+51933-001250SAO  +0138EGUA V0202001N005112200019N0128001N9+00351+00191099281ADDGA1021+060009009GF102991999999999999999999MA1999999097561MW1001
0082036553999991956011122004+51933-001250SAO  +0138EGUA V0202001N005112200019N0128001N9+00301+00191099311ADDGA1021+007509059GA2021+060009009GF102991999999999999999999MA1999999097601MW1001
0066036553999991956011123004+51933-001250SAO  +0138EGUA V0202001N004112200019N0128001N9+00301+00191099381ADDGA1021+006009059GF102991999999999999999999MA1999999097661MW1001
0066036553999991956011200004+51933-001250SAO  +0138EGUA V0202001N002612200019N0128001N9+00301+00191099351ADDGA1001+999999999GF100991999999999999999999MA1999999097661MW1001
0066036553999991956011201004+51933-001250SAO  +0138EGUA V0201101N002112200019N0128001N9+00131-00041099411ADDGA1001+999999999GF100991999999999999999999MA1999999097701MW1001
0066036553999991956011202004+51933-001250SAO  +0138EGUA V0201601N002112200019N0096001N9+00241+00131099411ADDGA1001+999999999GF100991999999999999999999MA1999999097701MW1051
0066036553999991956011203004+51933-001250SAO  +0138EGUA V0201801N002112200019N0096001N9+00241+00131099451ADDGA1001+999999999GF100991999999999999999999MA1999999097731MW1051
0066036553999991956011204004+51933-001250SAO  +0138EGUA V0201801N002612200019N0096001N9+00301+00131099451ADDGA1031+012009059GF102991999999999999999999MA1999999097731MW1051
0066036553999991956011205004+51933-001250SAO  +0138EGUA V0201601N002612200019N0080001N9+00241+00131099411ADDGA1031+012009059GF102991999999999999999999MA1999999097701MW1051
0066036553999991956011206004+51933-001250SAO  +0138EGUA V0201801N002610120019N0080001N9+00351+00241099311ADDGA1081+012009059GF108991999999999999999999MA1999999097601MW1051
0066036553999991956011207004+51933-001250SAO  +0138EGUA V0209991C000010120019N0064001N9+00351+00241099311ADDGA1081+012009059GF108991999999999999999999MA1999999097601MW1051
0088036553999991956011208004+51933-001250SAO  +0138EGUA V0202001N002110120019N0064001N9+00351+00301099321ADDGA1021+003009079GA2081+012009059GF108991999999999999999999MA1999999097601MW1051MW2111
0088036553999991956011209004+51933-001250SAO  +0138EGUA V0202001N002110120019N0048001N9+00351+00301099291ADDGA1051+012009059GA2081+024009049GF108991999999999999999999MA1999999097561MW1051MW2111
0104036553999991956011210004+51933-001250SAO  +0138EGUA V0209991C000010120019N0001001N9+00301+00301099291ADDGA1041+999999999GA2051+012009059GA3081+024009049GF108991999999999999999999MA1999999097561MW1051MW2111
0088036553999991956011211004+51933-001250SAO  +0138EGUA V0209991C000010120019N0001001N9+00301+00301099291ADDGA1051+999999999GA2081+012009059GF108991999999999999999999MA1999999097561MW1051MW2451
0125036553999991956011212004+51933-001250SAO  +0138EGUA V0202701N002110120019N0036001N9+00411+00351099291ADDAA124000091GA1051+012009059GA2081+024009049GF108991999999999999999999KA1999M+00521KA2999N+00021MA1999999097601MW1051MW2111
0082036553999991956011213004+51933-001250SAO  +0138EGUA V0203201N002610120019N0064001N9+00351+00301099291ADDGA1051+012009059GA2081+024009049GF108991999999999999999999MA1999999097561MW1051
0082036553999991956011214004+51933-001250SAO  +0138EGUA V0202901N003110300019N0064001N9+00461+00301099311ADDGA1041+012009059GA2071+030009049GF107991999999999999999999MA1999999097601MW1051
0082036553999991956011215004+51933-001250SAO  +0138EGUA V0202901N002110660019N0064001N9+00521+00301099381ADDGA1031+030009049GA2061+066009009GF108991999999999999999999MA1999999097661MW1051
0098036553999991956011216004+51933-001250SAO  +0138EGUA V0202701N004610660019N0064001N9+00521+00301099451ADDGA1011+010509059GA2031+030009049GA3061+066009009GF108991999999999999999999MA1999999097731MW1051
0098036553999991956011217004+51933-001250SAO  +0138EGUA V0202701N002610660019N0064001N9+00411+00301099581ADDGA1031+008409059GA2031+030009049GA3061+066009009GF108991999999999999999999MA1999999097871MW1051
0066036553999991956011218004+51933-001250SAO  +0138EGUA V0202701N003612200019N0064001N9+00301+00191099791ADDGA1011+030009049GF102991999999999999999999MA1999999098071MW1051
0066036553999991956011219004+51933-001250SAO  +0138EGUA V0202701N004612200019N0048001N9+00351+00191099891ADDGA1001+999999999GF100991999999999999999999MA1999999098171MW1051
0066036553999991956011220004+51933-001250SAO  +0138EGUA V0202701N004112200019N0064001N9+00241+00081100031ADDGA1001+999999999GF100991999999999999999999MA1999999098311MW1051
0066036553999991956011221004+51933-001250SAO  +0138EGUA V0202701N005112200019N0096001N9+00301+00131100161ADDGA1001+999999999GF100991999999999999999999MA1999999098441MW1051
0066036553999991956011222004+51933-001250SAO  +0138EGUA V0202501N004112200019N0096001N9+00241+00081100261ADDGA1001+999999999GF100991999999999999999999MA1999999098541MW1051
0066036553999991956011223004+51933-001250SAO  +0138EGUA V0202001N003612200019N0064001N9+00081+00021100361ADDGA1001+999999999GF100991999999999999999999MA1999999098651MW1051
0066036553999991956011300004+51933-001250SAO  +0138EGUA V0202501N003112200019N0064001N9+00021-00041100431ADDGA1001+999999999GF100991999999999999999999MA1999999098711MW1051
0066036553999991956011301004+51933-001250SAO  +0138EGUA V0202301N003612200019N0064001N9-00041-00091100611ADDGA1001+999999999GF100991999999999999999999MA1999999098851MW1051
0066036553999991956011302004+51933-001250SAO  +0138EGUA V0202301N002612200019N0064001N9-00041-00091100641ADDGA1001+999999999GF100991999999999999999999MA1999999098921MW1051
0066036553999991956011303004+51933-001250SAO  +0138EGUA V0202301N003112200019N0064001N9-00091-00151100711ADDGA1001+999999999GF100991999999999999999999MA1999999098981MW1051
0066036553999991956011304004+51933-001250SAO  +0138EGUA V0202001N003612200019N0064001N9-00091-00091100811ADDGA1001+999999999GF100991999999999999999999MA1999999099091MW1051
0066036553999991956011305004+51933-001250SAO  +0138EGUA V0202301N004112200019N0064001N9-00091-00151100911ADDGA1001+999999999GF100991999999999999999999MA1999999099151MW1051
0066036553999991956011306004+51933-001250SAO  +0138EGUA V0202301N003612200019N0064001N9-00151-00201100951ADDGA1001+999999999GF100991999999999999999999MA1999999099191MW1051
0066036553999991956011307004+51933-001250SAO  +0138EGUA V0202301N003112200019N0064001N9-00151-00201101051ADDGA1001+999999999GF100991999999999999999999MA1999999099261MW1051
0085036553999991956011308004+51933-001250SAO  +0138EGUA V0202501N002612200019N0064001N9-00201-00261101151ADDGA1999+021009999GF100991999999999999999999MA1999999099361MW1051EQDQ01    003SCCGA1
0066036553999991956011309004+51933-001250SAO  +0138EGUA V0202001N003112200019N0064001N9-00151-00201101221ADDGA1021+066009009GF102991999999999999999999MA1999999099421MW1051
0066036553999991956011310004+51933-001250SAO  +0138EGUA V0202501N002612200019N0080001N9+00081-00041101291ADDGA1031+066009009GF102991999999999999999999MA1999999099491MW1051
0066036553999991956011311004+51933-001250SAO  +0138EGUA V0202001N002112200019N0064001N9+00351+00081101291ADDGA1051+066009009GF107991999999999999999999MA1999999099531MW1051
0103036553999991956011312004+51933-001250SAO  +0138EGUA V0202001N002612200019N0040001N9+00351+00081101321ADDAA124000091GA1031+066009009GF102991999999999999999999KA1999M+00521KA2999N-00201MA1999999099561MW1051
0066036553999991956011313004+51933-001250SAO  +0138EGUA V0202301N002612200019N0080001N9+00521+00191101321ADDGA1041+066009009GF102991999999999999999999MA1999999099561MW1051
0101036553999991956011314004+51933-001250SAO  +0138EGUA V0201801N002112200019N0064001N9+00521+00131101321ADDGA1999+012009999GA2081+066009029GF108991999999999999999999MA1999999099561MW1051EQDQ01    003SCCGA1
0098036553999991956011315004+51933-001250SAO  +0138EGUA V0201801N002110420019N0064001N9+00351+00081101321ADDGA1011+024009039GA2061+042009049GA3081+066009029GF108991999999999999999999MA1999999099561MW1051
0098036553999991956011316004+51933-001250SAO  +0138EGUA V0201101N002610660019N0036001N9+00241+00021101351ADDGA1011+024009039GA2021+042009049GA3081+066009029GF108991999999999999999999MA1999999099561MW1051
0098036553999991956011317004+51933-001250SAO  +0138EGUA V0201401N002610240019N0018001N9+00191+00021101351ADDGA1091+999999999GA2061+024009039GA3091+066009029GF108991999999999999999999MA1999999099561MW1051
0082036553999991956011318004+51933-001250SAO  +0138EGUA V0201101N004110240019N0036001N9+00131-00041101321ADDGA1061+024009039GA2081+066009029GF108991999999999999999999MA1999999099531MW1051
0082036553999991956011319004+51933-001250SAO  +0138EGUA V0200901N003610120019N0048001N9+00131-00041101321ADDGA1051+012009059GA2081+066009029GF108991999999999999999999MA1999999099531MW1051
0066036553999991956011320004+51933-001250SAO  +0138EGUA V0200901N005110120019N0048001N9+00131-00041101321ADDGA1081+012009059GF108991999999999999999999MA1999999099531MW1051
0098036553999991956011321004+51933-001250SAO  +0138EGUA V0201101N004110120019N0026001N9+00131+00021101321ADDGA1091+999999999GA2031+003609079GA3091+012009059GF108991999999999999999999MA1999999099531MW1051
0066036553999991956011322004+51933-001250SAO  +0138EGUA V0201101N003610120019N0036001N9+00191+00021101291ADDGA1081+012009059GF108991999999999999999999MA1999999099491MW1051
0082036553999991956011323004+51933-001250SAO  +0138EGUA V0201101N003110120019N0036001N9+00241+00081101251ADDGA1031+003609079GA2081+012009059GF108991999999999999999999MA1999999099461MW1051
0066036553999991956011400004+51933-001250SAO  +0138EGUA V0201101N002610120019N0036001N9+00241+00081101121ADDGA1081+012009059GF108991999999999999999999MA1999999099321MW1051
0066036553999991956011401004+51933-001250SAO  +0138EGUA V0201401N003610120019N0036001N9+00191+00191101021ADDGA1081+012009059GF108991999999999999999999MA1999999099261MW1051
0066036553999991956011402004+51933-001250SAO  +0138EGUA V0201401N005110120019N0036001N9+00301+00241100881ADDGA1081+012009059GF108991999999999999999999MA1999999099151MW1051
0066036553999991956011403004+51933-001250SAO  +0138EGUA V0201601N006710120019N0040001N9+00411+00241100851ADDGA1081+012009059GF108991999999999999999999MA1999999099121MW1051
0066036553999991956011404004+51933-001250SAO  +0138EGUA V0201401N006210090019N0048001N9+00461+00191100781ADDGA1081+009009059GF108991999999999999999999MA1999999099051MW1051
0088036553999991956011405004+51933-001250SAO  +0138EGUA V0201401N005110036019N0048001N9+00411+00241100711ADDGA1061+003609079GA2081+009009059GF108991999999999999999999MA1999999098981MW1051MW2611
0088036553999991956011406004+51933-001250SAO  +0138EGUA V0201401N006210036019N0048001N9+00411+00301100641ADDGA1061+003609079GA2081+007209059GF108991999999999999999999MA1999999098921MW1051MW2611
0088036553999991956011407004+51933-001250SAO  +0138EGUA V0201601N006710033019N0048001N9+00461+00351100581ADDGA1061+003309079GA2081+006309059GF108991999999999999999999MA1999999098851MW1051MW2611
0088036553999991956011408004+51933-001250SAO  +0138EGUA V0201601N005710024019N0048001N9+00461+00461100531ADDGA1051+002409079GA2081+006309059GF108991999999999999999999MA1999999098811MW1051MW2611
0088036553999991956011409004+51933-001250SAO  +0138EGUA V0201601N007710018019N0048001N9+00521+00461100461ADDGA1051+001809079GA2081+006309059GF108991999999999999999999MA1999999098751MW1051MW2611
0088036553999991956011410004+51933-001250SAO  +0138EGUA V0201601N005710018019N0064001N9+00521+00461100401ADDGA1051+001809079GA2081+006309059GF108991999999999999999999MA1999999098681MW1051MW2611
0088036553999991956011411004+51933-001250SAO  +0138EGUA V0201601N006710018019N0096001N9+00581+00461100301ADDGA1061+001809079GA2081+006309059GF108991999999999999999999MA1999999098581MW1051MW2611
0125036553999991956011412004+51933-001250SAO  +0138EGUA V0201601N007710018019N0064001N9+00581+00521100161ADDAA124006091GA1061+001809079GA2081+006309059GF108991999999999999999999KA1999M+00741KA2999N+00191MA1999999098441MW1051MW2611
0082036553999991956011413004+51933-001250SAO  +0138EGUA V0201601N005110063019N0080001N9+00631+00521100061ADDGA1061+001809079GA2081+006309059GF108991999999999999999999MA1999999098341MW1051
0088036553999991956011414004+51933-001250SAO  +0138EGUA V0202001N003610018019N0064001N9+00631+00581099961ADDGA1061+001809079GA2081+006309059GF108991999999999999999999MA1999999098241MW1051MW2611
0088036553999991956011415004+51933-001250SAO  +0138EGUA V0201801N007710018019N0064001N9+00741+00631099851ADDGA1051+001809079GA2061+042009039GF107991999999999999999999MA1999999098141MW1051MW2611
0088036553999991956011416004+51933-001250SAO  +0138EGUA V0201801N006210024019N0048001N9+00741+00631099821ADDGA1051+002409079GA2041+006309059GF108991999999999999999999MA1999999098101MW1051MW2611
0098036553999991956011417004+51933-001250SAO  +0138EGUA V0201601N007710063019N0080001N9+00631+00581099751ADDGA1031+002409079GA2051+006309059GA3071+042009039GF107991999999999999999999MA1999999098041MW1051
0098036553999991956011418004+51933-001250SAO  +0138EGUA V0201601N007210045019N0080001N9+00631+00521099651ADDGA1051+004509079GA2051+007209059GA3031+042009039GF107991999999999999999999MA1999999097931MW1051
0088036553999991956011419004+51933-001250SAO  +0138EGUA V0201801N007710030019N0080001N9+00691+00521099551ADDGA1061+003009079GA2081+004509059GF108991999999999999999999MA1999999097831MW1051MW2611
0082036553999991956011420004+51933-001250SAO  +0138EGUA V0201801N010310042019N0080001N9+00741+00521099481ADDGA1061+004209079GA2081+009009059GF108991999999999999999999MA1999999097771MW1051
0072036553999991956011421004+51933-001250SAO  +0138EGUA V0202001N009810039019N0048001N9+00691+00581099451ADDGA1081+003909079GF108991999999999999999999MA1999999097731MW1051MW2611
0066036553999991956011422004+51933-001250SAO  +0138EGUA V0202001N010310036019N0080001N9+00691+00521099411ADDGA1081+003609079GF108991999999999999999999MA1999999097701MW1051
0072036553999991956011423004+51933-001250SAO  +0138EGUA V0202501N009310036019N0048001N9+00691+00521099411ADDGA1081+003609079GF108991999999999999999999MA1999999097701MW1051MW2801
0066036553999991956011500004+51933-001250SAO  +0138EGUA V0202501N008710039019N0080001N9+00631+00521099621ADDGA1081+003909079GF108991999999999999999999MA1999999097901MW1051
0082036553999991956011501004+51933-001250SAO  +0138EGUA V0202701N007710045019N0128001N9+00691+00461099791ADDGA1061+004509079GA2081+007209059GF108991999999999999999999MA1999999098071MW1001
0066036553999991956011502004+51933-001250SAO  +0138EGUA V0202701N008210063019N0128001N9+00691+00461099891ADDGA1081+006309079GF108991999999999999999999MA1999999098171MW1001
0082036553999991956011503004+51933-001250SAO  +0138EGUA V0202701N007210063019N0128001N9+00631+00411100031ADDGA1031+004509079GA2081+006309079GF108991999999999999999999MA1999999098311MW1001
0066036553999991956011504004+51933-001250SAO  +0138EGUA V0202701N007210042019N0128001N9+00581+00351100091ADDGA1081+004209079GF108991999999999999999999MA1999999098371MW1001
0066036553999991956011505004+51933-001250SAO  +0138EGUA V0202701N007710054019N0128001N9+00521+00301100231ADDGA1081+005409079GF108991999999999999999999MA1999999098511MW1001
0066036553999991956011506004+51933-001250SAO  +0138EGUA V0202901N007710057019N0128001N9+00521+00191100231ADDGA1081+005709079GF108991999999999999999999MA1999999098541MW1001
0066036553999991956011507004+51933-001250SAO  +0138EGUA V0202901N007210072019N0128001N9+00461+00241100361ADDGA1081+007209059GF108991999999999999999999MA1999999098651MW1001
0066036553999991956011508004+51933-001250SAO  +0138EGUA V0202901N009310063019N0128001N9+00461+00191100501ADDGA1081+006309059GF108991999999999999999999MA1999999098781MW1001
0082036553999991956011509004+51933-001250SAO  +0138EGUA V0202901N008710063019N0128001N9+00411+00131100601ADDGA1051+006309059GA2061+027009039GF107991999999999999999999MA1999999098881MW1001
0082036553999991956011510004+51933-001250SAO  +0138EGUA V0202701N006212200019N0128001N9+00411+00131100741ADDGA1021+006309059GA2031+027009039GF102991999999999999999999MA1999999099021MW1001
0098036553999991956011511004+51933-001250SAO  +0138EGUA V0202901N008212200019N0144001N9+00521+00191100801ADDGA1011+006009089GA2011+027009039GA3021+084009009GF102991999999999999999999MA1999999099091MW1001
0135036553999991956011512004+51933-001250SAO  +0138EGUA V0202701N007710660019N0144001N9+00521+00081100871ADDAA124000091GA1021+006009089GA2011+027009039GA3061+066009009GF107991999999999999999999KA1999M+00691KA2999N+00301MA1999999099151MW1001
0098036553999991956011513004+51933-001250SAO  +0138EGUA V0202701N008710660019N0240001N9+00521-00041100901ADDGA1021+007509089GA2021+027009039GA3061+066009009GF107991999999999999999999MA1999999099191MW1001
0098036553999991956011514004+51933-001250SAO  +0138EGUA V0202701N007210660019N0240001N9+00581+00021100901ADDGA1011+007509089GA2021+027009039GA3061+066009009GF107991999999999999999999MA1999999099191MW1001
0082036553999991956011515004+51933-001250SAO  +0138EGUA V0202701N008210660019N0200001N9+00581+00021100901ADDGA1011+027009039GA2051+066009009GF107991999999999999999999MA1999999099191MW1001
0082036553999991956011516004+51933-001250SAO  +0138EGUA V0202301N006212200019N0144001N9+00411+00081100901ADDGA1021+027009039GA2031+066009009GF102991999999999999999999MA1999999099191MW1001
0082036553999991956011517004+51933-001250SAO  +0138EGUA V0202501N005712200019N0096001N9+00301+00081100911ADDGA1021+027009039GA2021+066009009GF102991999999999999999999MA1999999099191MW1051
0066036553999991956011518004+51933-001250SAO  +0138EGUA V0202501N006712200019N0096001N9+00301+00081100981ADDGA1011+027009039GF102991999999999999999999MA1999999099221MW1051
0066036553999991956011519004+51933-001250SAO  +0138EGUA V0202501N007712200019N0096001N9+00301+00131101021ADDGA1031+010509059GF102991999999999999999999MA1999999099261MW1051
0066036553999991956011520004+51933-001250SAO  +0138EGUA V0202501N007712200019N0096001N9+00461+00191101021ADDGA1041+010509059GF102991999999999999999999MA1999999099261MW1051
0066036553999991956011521004+51933-001250SAO  +0138EGUA V0202501N007710090019N0096001N9+00461+00301101071ADDGA1061+009009059GF107991999999999999999999MA1999999099321MW1051
0066036553999991956011522004+51933-001250SAO  +0138EGUA V0202501N006712200019N0096001N9+00461+00241101111ADDGA1021+009009059GF102991999999999999999999MA1999999099361MW1051
0066036553999991956011523004+51933-001250SAO  +0138EGUA V0202501N007212200019N0096001N9+00461+00241101141ADDGA1001+999999999GF100991999999999999999999MA1999999099391MW1051
0066036553999991956011600004+51933-001250SAO  +0138EGUA V0202501N007212200019N0096001N9+00461+00301101181ADDGA1041+008409059GF102991999999999999999999MA1999999099421MW1051
0066036553999991956011601004+51933-001250SAO  +0138EGUA V0202001N003110084019N0064001N9+00351+00241101221ADDGA1051+008409059GF107991999999999999999999MA1999999099461MW1051
0066036553999991956011602004+51933-001250SAO  +0138EGUA V0202501N004112200019N0064001N9+00411+00301101251ADDGA1001+999999999GF100991999999999999999999MA1999999099491MW1051
0066036553999991956011603004+51933-001250SAO  +0138EGUA V0202501N003112200019N0080001N9+00241+00191101331ADDGA1001+999999999GF100991999999999999999999MA1999999099561MW1051
0066036553999991956011604004+51933-001250SAO  +0138EGUA V0202501N005112200019N0080001N9+00241+00131101391ADDGA1001+999999999GF100991999999999999999999MA1999999099631MW1051
0066036553999991956011605004+51933-001250SAO  +0138EGUA V0202701N002612200019N0080001N9+00241+00131101421ADDGA1001+999999999GF100991999999999999999999MA1999999099661MW1051
0066036553999991956011606004+51933-001250SAO  +0138EGUA V0202701N002612200019N0080001N9+00191+00191101491ADDGA1001+999999999GF100991999999999999999999MA1999999099731MW1051
0066036553999991956011607004+51933-001250SAO  +0138EGUA V0202701N003112200019N0064001N9+00131+00081101561ADDGA1001+999999999GF100991999999999999999999MA1999999099801MW1051
0066036553999991956011608004+51933-001250SAO  +0138EGUA V0202501N003612200019N0064001N9+00131+00081101621ADDGA1011+024009039GF102991999999999999999999MA1999999099861MW1051
0066036553999991956011609004+51933-001250SAO  +0138EGUA V0202301N002112200019N0064001N9+00191+00131101651ADDGA1011+024009039GF102991999999999999999999MA1999999099901MW1051
0066036553999991956011610004+51933-001250SAO  +0138EGUA V0202301N003112200019N0080001N9+00351+00191101721ADDGA1011+024009039GF102991999999999999999999MA1999999099971MW1051
0066036553999991956011611004+51933-001250SAO  +0138EGUA V0202501N003112200019N0096001N9+00581+00301101791ADDGA1011+024009039GF102991999999999999999999MA1999999100031MW1051
0103036553999991956011612004+51933-001250SAO  +0138EGUA V0202501N003612200019N0096001N9+00741+00351101721ADDAA124000091GA1031+024009039GF102991999999999999999999KA1999M+00741KA2999N+00131MA1999999100001MW1051
0082036553999991956011613004+51933-001250SAO  +0138EGUA V0202501N004610105019N0096001N9+00741+00411101721ADDGA1061+010509059GA2011+024009039GF107991999999999999999999MA1999999099971MW1051
0066036553999991956011614004+51933-001250SAO  +0138EGUA V0202501N004610105019N0080001N9+00691+00411101721ADDGA1061+010509059GF107991999999999999999999MA1999999099971MW1051
0082036553999991956011615004+51933-001250SAO  +0138EGUA V0202301N005112200019N0064001N9+00631+00411101681ADDGA1021+004509089GA2041+024009039GF102991999999999999999999MA1999999099931MW1051
0066036553999991956011616004+51933-001250SAO  +0138EGUA V0202301N004610063019N0064001N9+00631+00351101681ADDGA1061+006309059GF107991999999999999999999MA1999999099931MW1051
0066036553999991956011617004+51933-001250SAO  +0138EGUA V0202001N005110063019N0040001N9+00521+00351101681ADDGA1061+006309059GF107991999999999999999999MA1999999099931MW1051
0066036553999991956011618004+51933-001250SAO  +0138EGUA V0202301N004110084019N0064001N9+00461+00301101621ADDGA1071+008409059GF107991999999999999999999MA1999999099901MW1051
0066036553999991956011619004+51933-001250SAO  +0138EGUA V0202301N003612200019N0064001N9+00411+00301101651ADDGA1031+008409059GF102991999999999999999999MA1999999099901MW1051
0066036553999991956011620004+51933-001250SAO  +0138EGUA V0202501N005112200019N0064001N9+00411+00241101651ADDGA1031+008409059GF102991999999999999999999MA1999999099901MW1051
0066036553999991956011621004+51933-001250SAO  +0138EGUA V0202301N004612200019N0064001N9+00301+00191101651ADDGA1001+999999999GF100991999999999999999999MA1999999099901MW1051
0066036553999991956011622004+51933-001250SAO  +0138EGUA V0202301N005112200019N0064001N9+00301+00241101651ADDGA1001+999999999GF100991999999999999999999MA1999999099901MW1051
0066036553999991956011623004+51933-001250SAO  +0138EGUA V0202501N004612200019N0064001N9+00351+00241101651ADDGA1001+999999999GF100991999999999999999999MA1999999099901MW1051
0066036553999991956011700004+51933-001250SAO  +0138EGUA V0202501N005112200019N0096001N9+00411+00191101621ADDGA1001+999999999GF100991999999999999999999MA1999999099861MW1051
0066036553999991956011701004+51933-001250SAO  +0138EGUA V0202701N005112200019N0080001N9+00411+00131101581ADDGA1021+007509059GF102991999999999999999999MA1999999099831MW1051
0066036553999991956011702004+51933-001250SAO  +0138EGUA V0202501N004610075019N0080001N9+00461+00191101551ADDGA1081+007509059GF108991999999999999999999MA1999999099801MW1051
0066036553999991956011703004+51933-001250SAO  +0138EGUA V0202301N004610075019N0128001N9+00521+00241101551ADDGA1051+007509059GF107991999999999999999999MA1999999099801MW1001
0066036553999991956011704004+51933-001250SAO  +0138EGUA V0202001N004612200019N0128001N9+00241+00081101511ADDGA1021+007509059GF102991999999999999999999MA1999999099761MW1001
0066036553999991956011705004+51933-001250SAO  +0138EGUA V0202501N004612200019N0128001N9+00191+00081101511ADDGA1001+999999999GF100991999999999999999999MA1999999099761MW1001
0066036553999991956011706004+51933-001250SAO  +0138EGUA V0202301N002612200019N0096001N9+00241+00131101511ADDGA1021+009009059GF102991999999999999999999MA1999999099761MW1051
0066036553999991956011707004+51933-001250SAO  +0138EGUA V0202701N005112200019N0096001N9+00301+00191101511ADDGA1021+009009059GF102991999999999999999999MA1999999099761MW1051
0082036553999991956011708004+51933-001250SAO  +0138EGUA V0202301N003112200019N0064001N9+00241+00131101481ADDGA1011+009009059GA2021+045009039GF102991999999999999999999MA1999999099731MW1051
0082036553999991956011709004+51933-001250SAO  +0138EGUA V0202301N002612200019N0064001N9+00301+00191101481ADDGA1011+030009039GA2021+075009029GF102991999999999999999999MA1999999099731MW1051
0082036553999991956011710004+51933-001250SAO  +0138EGUA V0202001N004110750019N0001001N9+00131+00081101481ADDGA1061+999999999GA2021+075009029GF107991999999999999999999MA1999999099731MW1451
0066036553999991956011711004+51933-001250SAO  +0138EGUA V0202301N006712200019N0001001N9+00191+00131101481ADDGA1061+999999999GF107991999999999999999999MA1999999099731MW1451
0103036553999991956011712004+51933-001250SAO  +0138EGUA V0202301N005112200019N0001001N9+00241+00241101411ADDAA124000091GA1061+999999999GF107991999999999999999999KA1999M+00521KA2999N+00131MA1999999099661MW1451
0066036553999991956011713004+51933-001250SAO  +0138EGUA V0202301N003612200019N0006001N9+00351+00301101311ADDGA1051+999999999GF107991999999999999999999MA1999999099561MW1451
0066036553999991956011714004+51933-001250SAO  +0138EGUA V0202001N004112200019N0001001N9+00411+00411101211ADDGA1061+999999999GF107991999999999999999999MA1999999099461MW1451
0098036553999991956011715004+51933-001250SAO  +0138EGUA V0202301N003610840019N0018001N9+00461+00411101111ADDGA1021+999999999GA2011+007509089GA3021+084009009GF107991999999999999999999MA1999999099361MW1111
0082036553999991956011716004+51933-001250SAO  +0138EGUA V0201801N004610075019N0012001N9+00461+00411101071ADDGA1021+999999999GA2051+007509059GF107991999999999999999999MA1999999099321MW1111
0088036553999991956011717004+51933-001250SAO  +0138EGUA V0202701N005710075019N0018001N9+00461+00411101011ADDGA1011+999999999GA2081+007509059GF108991999999999999999999MA1999999099261MW1051MW2111
0082036553999991956011718004+51933-001250SAO  +0138EGUA V0202301N006210075019N0008001N9+00351+00301100911ADDGA1051+999999999GA2061+007509059GF107991999999999999999999MA1999999099191MW1451
0082036553999991956011719004+51933-001250SAO  +0138EGUA V0202501N005110075019N0018001N9+00411+00301100881ADDGA1041+999999999GA2081+007509059GF108991999999999999999999MA1999999099151MW1451
0082036553999991956011720004+51933-001250SAO  +0138EGUA V0202501N005110075019N0018001N9+00351+00241100811ADDGA1051+999999999GA2081+007509059GF108991999999999999999999MA1999999099091MW1451
0082036553999991956011721004+51933-001250SAO  +0138EGUA V0202301N005110075019N0018001N9+00411+00301100701ADDGA1051+999999999GA2081+007509059GF108991999999999999999999MA1999999098981MW1451
0082036553999991956011722004+51933-001250SAO  +0138EGUA V0202501N003610075019N0018001N9+00411+00351100631ADDGA1041+999999999GA2081+007509059GF108991999999999999999999MA1999999098921MW1451
0082036553999991956011723004+51933-001250SAO  +0138EGUA V0202301N005110075019N0018001N9+00461+00411100531ADDGA1041+999999999GA2081+007509059GF108991999999999999999999MA1999999098811MW1451
0082036553999991956011800004+51933-001250SAO  +0138EGUA V0202301N007710075019N0026001N9+00411+00351100401ADDGA1031+999999999GA2081+007509059GF108991999999999999999999MA1999999098681MW1451
0066036553999991956011801004+51933-001250SAO  +0138EGUA V0202501N004110075019N0040001N9+00461+00351100301ADDGA1081+007509059GF108991999999999999999999MA1999999098581MW1051
0066036553999991956011802004+51933-001250SAO  +0138EGUA V0202301N003110075019N0064001N9+00461+00301100191ADDGA1081+007509059GF108991999999999999999999MA1999999098481MW1051
0066036553999991956011803004+51933-001250SAO  +0138EGUA V0202501N006210075019N0064001N9+00411+00241100131ADDGA1071+007509059GF107991999999999999999999MA1999999098411MW1051
0066036553999991956011804004+51933-001250SAO  +0138EGUA V0202501N005110075019N0128001N9+00411+00241100031ADDGA1081+007509059GF108991999999999999999999MA1999999098311MW1001
0066036553999991956011805004+51933-001250SAO  +0138EGUA V0202501N005710075019N0128001N9+00411+00301099961ADDGA1061+007509059GF107991999999999999999999MA1999999098241MW1001
0066036553999991956011806004+51933-001250SAO  +0138EGUA V0202501N002610075019N0128001N9+00411+00301099921ADDGA1081+007509059GF108991999999999999999999MA1999999098211MW1001
0082036553999991956011807004+51933-001250SAO  +0138EGUA V0202901N009310075019N0096001N9+00461+00301099891ADDGA1041+004509079GA2081+007509059GF108991999999999999999999MA1999999098171MW1611
0082036553999991956011808004+51933-001250SAO  +0138EGUA V0203401N006710075019N0128001N9+00411+00081099931ADDGA1051+007509059GA2061+015009059GF108991999999999999999999MA1999999098271MW1001
0101036553999991956011809004+51933-001250SAO  +0138EGUA V0203201N007712200019N0128001N9+00301-00151100101ADDGA1999+007509999GA2021+024009039GF102991999999999999999999MA1999999098371MW1001EQDQ01    003SCCGA1
0066036553999991956011810004+51933-001250SAO  +0138EGUA V0203201N008212200019N0176001N9+00351-00151100171ADDGA1001+999999999GF100991999999999999999999MA1999999098441MW1001
0066036553999991956011811004+51933-001250SAO  +0138EGUA V0203201N006712200019N0176001N9+00411+00021100231ADDGA1001+999999999GF100991999999999999999999MA1999999098511MW1001
0103036553999991956011812004+51933-001250SAO  +0138EGUA V0203201N011312200019N0128001N9+00461+00191100431ADDAA124000391GA1001+999999999GF100991999999999999999999KA1999M+00461KA2999N-00091MA1999999098751MW1001
0066036553999991956011813004+51933-001250SAO  +0138EGUA V0203401N007712200019N0080001N9+00461+00241100571ADDGA1011+007509089GF102991999999999999999999MA1999999098851MW1051
0066036553999991956011814004+51933-001250SAO  +0138EGUA V0203401N006712200019N0080001N9+00461+00191100631ADDGA1011+007509089GF102991999999999999999999MA1999999098921MW1051
0066036553999991956011815004+51933-001250SAO  +0138EGUA V0203201N008712200019N0096001N9+00411-00091100751ADDGA1011+007509089GF102991999999999999999999MA1999999099021MW1051
0066036553999991956011816004+51933-001250SAO  +0138EGUA V0203201N006712200019N0112001N9+00301+00021100851ADDGA1001+999999999GF100991999999999999999999MA1999999099121MW1001
0066036553999991956011817004+51933-001250SAO  +0138EGUA V0202901N005112200019N0144001N9+00131-00041100911ADDGA1001+999999999GF100991999999999999999999MA1999999099191MW1001
0066036553999991956011818004+51933-001250SAO  +0138EGUA V0202901N004612200019N0096001N9+00021-00261101041ADDGA1001+999999999GF100991999999999999999999MA1999999099291MW1051
0066036553999991956011819004+51933-001250SAO  +0138EGUA V0202701N004112200019N0096001N9+00081-00371101111ADDGA1001+999999999GF100991999999999999999999MA1999999099361MW1051
0066036553999991956011820004+51933-001250SAO  +0138EGUA V0202501N003612200019N0096001N9-00091-00591101211ADDGA1001+999999999GF100991999999999999999999MA1999999099421MW1051
0066036553999991956011821004+51933-001250SAO  +0138EGUA V0202701N004612200019N0096001N9-00041-00531101241ADDGA1001+999999999GF100991999999999999999999MA1999999099461MW1051
0066036553999991956011822004+51933-001250SAO  +0138EGUA V0202701N004112200019N0096001N9+00021-00531101281ADDGA1001+999999999GF100991999999999999999999MA1999999099491MW1051
0066036553999991956011823004+51933-001250SAO  +0138EGUA V0202701N003112200019N0096001N9-00091-00421101291ADDGA1001+999999999GF100991999999999999999999MA1999999099531MW1051
0066036553999991956011900004+51933-001250SAO  +0138EGUA V0202701N005112200019N0096001N9-00041-00371101341ADDGA1001+999999999GF100991999999999999999999MA1999999099561MW1051
0066036553999991956011901004+51933-001250SAO  +0138EGUA V0202701N005112200019N0096001N9+00021-00261101341ADDGA1001+999999999GF100991999999999999999999MA1999999099561MW1051
0066036553999991956011902004+51933-001250SAO  +0138EGUA V0202701N007212200019N0096001N9+00131-00201101341ADDGA1001+999999999GF100991999999999999999999MA1999999099561MW1051
0066036553999991956011903004+51933-001250SAO  +0138EGUA V0202501N006212200019N0096001N9+00081-00261101341ADDGA1001+999999999GF100991999999999999999999MA1999999099561MW1051
0066036553999991956011904004+51933-001250SAO  +0138EGUA V0202501N005112200019N0096001N9+00021-00261101341ADDGA1001+999999999GF100991999999999999999999MA1999999099561MW1051
0066036553999991956011905004+51933-001250SAO  +0138EGUA V0202501N005712200019N0096001N9-00041-00261101321ADDGA1001+999999999GF100991999999999999999999MA1999999099531MW1051
0066036553999991956011906004+51933-001250SAO  +0138EGUA V0202701N006712200019N0096001N9+00021-00201101251ADDGA1001+999999999GF100991999999999999999999MA1999999099461MW1051
0066036553999991956011907004+51933-001250SAO  +0138EGUA V0202701N007210270019N0096001N9+00131-00261101251ADDGA1061+027009039GF107991999999999999999999MA1999999099461MW1051
0082036553999991956011908004+51933-001250SAO  +0138EGUA V0202701N006210150019N0128001N9-00091-00261101251ADDGA1051+015009059GA2061+027009039GF107991999999999999999999MA1999999099461MW1001
0082036553999991956011909004+51933-001250SAO  +0138EGUA V0202501N005110150019N0128001N9+00301-00261101251ADDGA1061+015009059GA2071+027009039GF107991999999999999999999MA1999999099461MW1001
0082036553999991956011910004+51933-001250SAO  +0138EGUA V0202301N006712200019N0128001N9+00301-00201101251ADDGA1021+012009059GA2021+027009039GF102991999999999999999999MA1999999099461MW1001
0082036553999991956011911004+51933-001250SAO  +0138EGUA V0202301N007212200019N0128001N9+00411-00151101251ADDGA1021+015009059GA2021+027009039GF102991999999999999999999MA1999999099461MW1001
0125036553999991956011912004+51933-001250SAO  +0138EGUA V0202301N006710240019N0128001N9+00351-00041101121ADDAA124000591GA1041+013509059GA2081+024009039GF108991999999999999999999KA1999M+00801KA2999N-00091MA1999999099361MW1611MW2711
0088036553999991956011913004+51933-001250SAO  +0138EGUA V0202301N007710135019N0064001N9+00411+00191100981ADDGA1031+006309059GA2081+013509059GF108991999999999999999999MA1999999099221MW1051MW2611
0088036553999991956011914004+51933-001250SAO  +0138EGUA V0202301N008710075019N0096001N9+00461+00241100881ADDGA1031+005109059GA2081+007509059GF108991999999999999999999MA1999999099151MW1051MW2611
0072036553999991956011915004+51933-001250SAO  +0138EGUA V0202501N006210030019N0096001N9+00631+00411100851ADDGA1081+003009059GF108991999999999999999999MA1999999099121MW1051MW2611
0072036553999991956011916004+51933-001250SAO  +0138EGUA V0202501N006710018019N0048001N9+00631+00521100881ADDGA1081+001809059GF108991999999999999999999MA1999999099151MW1051MW2611
0072036553999991956011917004+51933-001250SAO  +0138EGUA V0202301N006710015019N0048001N9+00631+00581100881ADDGA1081+001509059GF108991999999999999999999MA1999999099151MW1051MW2611
0082036553999991956011918004+51933-001250SAO  +0138EGUA V0202501N007710060019N0096001N9+00691+00581100901ADDGA1021+001509079GA2071+006009059GF107991999999999999999999MA1999999099191MW1051
0066036553999991956011919004+51933-001250SAO  +0138EGUA V0202501N006710063019N0096001N9+00741+00581100901ADDGA1081+006309059GF108991999999999999999999MA1999999099191MW1051
0088036553999991956011920004+51933-001250SAO  +0138EGUA V0202501N008210063019N0048001N9+00741+00631100971ADDGA1041+003009079GA2081+006309059GF108991999999999999999999MA1999999099221MW1051MW2511
0072036553999991956011921004+51933-001250SAO  +0138EGUA V0202501N007210030019N0064001N9+00741+00691101011ADDGA1081+003009079GF108991999999999999999999MA1999999099261MW1051MW2611
0082036553999991956011922004+51933-001250SAO  +0138EGUA V0202301N006210063019N0096001N9+00741+00631101041ADDGA1021+003009079GA2081+006309059GF108991999999999999999999MA1999999099291MW1051
0066036553999991956011923004+51933-001250SAO  +0138EGUA V0202301N005110063019N0096001N9+00741+00631101071ADDGA1081+006309059GF108991999999999999999999MA1999999099321MW1051
0088036553999991956012000004+51933-001250SAO  +0138EGUA V0202501N007710063019N0096001N9+00801+00631101111ADDGA1041+003009079GA2081+006309059GF108991999999999999999999MA1999999099391MW1051MW2511
0082036553999991956012001004+51933-001250SAO  +0138EGUA V0202501N007710063019N0096001N9+00741+00581101141ADDGA1041+003009079GA2081+006309059GF108991999999999999999999MA1999999099391MW1051
0082036553999991956012002004+51933-001250SAO  +0138EGUA V0202301N006710063019N0080001N9+00631+00521101141ADDGA1041+003009079GA2081+006309059GF108991999999999999999999MA1999999099391MW1051
0082036553999991956012003004+51933-001250SAO  +0138EGUA V0202301N006210063019N0080001N9+00691+00581101141ADDGA1031+003009079GA2081+006309059GF108991999999999999999999MA1999999099391MW1051
0082036553999991956012004004+51933-001250SAO  +0138EGUA V0202301N007710063019N0096001N9+00741+00521101111ADDGA1021+003009079GA2081+006309059GF108991999999999999999999MA1999999099361MW1051
0066036553999991956012005004+51933-001250SAO  +0138EGUA V0202301N007710063019N0096001N9+00691+00521101111ADDGA1071+006309059GF107991999999999999999999MA1999999099361MW1051
0066036553999991956012006004+51933-001250SAO  +0138EGUA V0202501N008210063019N0096001N9+00691+00521100971ADDGA1081+006309059GF108991999999999999999999MA1999999099261MW1051
0066036553999991956012007004+51933-001250SAO  +0138EGUA V0202501N008710045019N0096001N9+00741+00521100971ADDGA1081+004509059GF108991999999999999999999MA1999999099221MW1051
0082036553999991956012008004+51933-001250SAO  +0138EGUA V0202301N008710690019N0128001N9+00691+00521100901ADDGA1011+004509059GA2061+069009029GF107991999999999999999999MA1999999099191MW1001
0098036553999991956012009004+51933-001250SAO  +0138EGUA V0202301N007710075019N0128001N9+00691+00521100871ADDGA1021+004509059GA2041+007509059GA3071+069009029GF107991999999999999999999MA1999999099151MW1001
0066036553999991956012010004+51933-001250SAO  +0138EGUA V0202301N010310030019N0200001N9+00741+00521100841ADDGA1081+003009059GF108991999999999999999999MA1999999099151MW1001
0082036553999991956012011004+51933-001250SAO  +0138EGUA V0202301N010810030019N0200001N9+00741+00581100801ADDGA1031+002109079GA2081+003009059GF108991999999999999999999MA1999999099091MW1001
0119036553999991956012012004+51933-001250SAO  +0138EGUA V0202001N009810030019N0200001N9+00801+00521100671ADDAA124005091GA1071+003009059GA2041+030009039GF107991999999999999999999KA1999M+00851KA2999N+00521MA1999999098981MW1001
0082036553999991956012013004+51933-001250SAO  +0138EGUA V0202501N010810045019N0200001N9+00851+00461100501ADDGA1061+004509059GA2071+069009029GF108991999999999999999999MA1999999098811MW1001
0066036553999991956012014004+51933-001250SAO  +0138EGUA V0202501N012310045019N0200001N9+00851+00461100401ADDGA1081+004509059GF108991999999999999999999MA1999999098711MW1001
0066036553999991956012015004+51933-001250SAO  +0138EGUA V0202301N011810045019N0176001N9+00851+00461100301ADDGA1081+004509059GF108991999999999999999999MA1999999098611MW1611
0066036553999991956012016004+51933-001250SAO  +0138EGUA V0202301N013410051019N0176001N9+00741+00521100231ADDGA1081+005109059GF108991999999999999999999MA1999999098541MW1001
0066036553999991956012017004+51933-001250SAO  +0138EGUA V0202301N012310033019N0144001N9+00741+00581100131ADDGA1081+003309059GF108991999999999999999999MA1999999098441MW1001
0072036553999991956012018004+51933-001250SAO  +0138EGUA V0202301N012910030019N0048001N9+00801+00581099991ADDGA1081+003009059GF108991999999999999999999MA1999999098311MW1051MW2811
0072036553999991956012019004+51933-001250SAO  +0138EGUA V0202301N014910030019N0048001N9+00741+00581099921ADDGA1081+003009059GF108991999999999999999999MA1999999098211MW1051MW2801
0088036553999991956012020004+51933-001250SAO  +0138EGUA V0202501N008210030019N0048001N9+00851+00741099891ADDGA1051+001209079GA2081+003009059GF108991999999999999999999MA1999999098211MW1051MW2811
0066036553999991956012021004+51933-001250SAO  +0138EGUA V0202701N011312200019N0096001N9+00691+00191100031ADDGA1031+006309059GF102991999999999999999999MA1999999098311MW1051
0066036553999991956012022004+51933-001250SAO  +0138EGUA V0202701N009812200019N0128001N9+00631+00131100091ADDGA1001+999999999GF100991999999999999999999MA1999999098371MW1001
0066036553999991956012023004+51933-001250SAO  +0138EGUA V0202701N008712200019N0128001N9+00521+00081100231ADDGA1001+999999999GF100991999999999999999999MA1999999098511MW1001
0066036553999991956012100004+51933-001250SAO  +0138EGUA V0202701N009312200019N0128001N9+00521+00021100401ADDGA1001+999999999GF100991999999999999999999MA1999999098681MW1001
0066036553999991956012101004+51933-001250SAO  +0138EGUA V0202701N010312200019N0144001N9+00461+00131100461ADDGA1001+999999999GF100991999999999999999999MA1999999098751MW1001
0066036553999991956012102004+51933-001250SAO  +0138EGUA V0202301N007212200019N0176001N9+00351+00081100571ADDGA1001+999999999GF100991999999999999999999MA1999999098851MW1001
0066036553999991956012103004+51933-001250SAO  +0138EGUA V0202501N006212200019N0176001N9+00351-00041100701ADDGA1001+999999999GF100991999999999999999999MA1999999098951MW1001
0066036553999991956012104004+51933-001250SAO  +0138EGUA V0202501N005712200019N0144001N9+00301+00021100841ADDGA1001+999999999GF100991999999999999999999MA1999999099091MW1001
0066036553999991956012105004+51933-001250SAO  +0138EGUA V0202501N004612200019N0144001N9+00241-00091100901ADDGA1001+999999999GF100991999999999999999999MA1999999099151MW1001
0066036553999991956012106004+51933-001250SAO  +0138EGUA V0202701N007212200019N0128001N9+00241+00021100971ADDGA1001+999999999GF100991999999999999999999MA1999999099221MW1001
0066036553999991956012107004+51933-001250SAO  +0138EGUA V0202701N006212200019N0144001N9+00191-00091101041ADDGA1011+024009039GF102991999999999999999999MA1999999099291MW1001
0066036553999991956012108004+51933-001250SAO  +0138EGUA V0201801N002612200019N0144001N9+00131+00021101111ADDGA1021+024009039GF102991999999999999999999MA1999999099361MW1001
0082036553999991956012109004+51933-001250SAO  +0138EGUA V0202001N005112200019N0144001N9+00131+00021101241ADDGA1021+024009039GA2011+078009009GF102991999999999999999999MA1999999099491MW1001
0082036553999991956012110004+51933-001250SAO  +0138EGUA V0202301N004612200019N0176001N9+00241+00081101281ADDGA1031+024009039GA2021+078009009GF102991999999999999999999MA1999999099531MW1001
0082036553999991956012111004+51933-001250SAO  +0138EGUA V0202301N004112200019N0096001N9+00461+00191101291ADDGA1021+024009039GA2021+078009009GF102991999999999999999999MA1999999099531MW1051
0103036553999991956012112004+51933-001250SAO  +0138EGUA V0202001N004110180019N0064001N9+00411+00191101151ADDAA124002091GA1081+018009039GF108991999999999999999999KA1999M+00961KA2999N+00131MA1999999099391MW1051
0066036553999991956012113004+51933-001250SAO  +0138EGUA V0201801N004110150019N0064001N9+00461+00241101151ADDGA1081+015009059GF108991999999999999999999MA1999999099391MW1051
0072036553999991956012114004+51933-001250SAO  +0138EGUA V0201801N005110051019N0064001N9+00461+00241100981ADDGA1081+005109079GF108991999999999999999999MA1999999099221MW1051MW2611
0072036553999991956012115004+51933-001250SAO  +0138EGUA V0201801N008210048019N0040001N9+00461+00301100811ADDGA1081+004809079GF108991999999999999999999MA1999999099091MW1051MW2611
0072036553999991956012116004+51933-001250SAO  +0138EGUA V0201801N006210036019N0026001N9+00461+00351100631ADDGA1081+003609079GF108991999999999999999999MA1999999098921MW1051MW2611
0082036553999991956012117004+51933-001250SAO  +0138EGUA V0202001N010310075019N0128001N9+00631+00581100461ADDGA1061+001809079GA2081+007509059GF108991999999999999999999MA1999999098751MW1001
0066036553999991956012118004+51933-001250SAO  +0138EGUA V0202301N010310030019N0096001N9+00801+00691100191ADDGA1081+003009079GF108991999999999999999999MA1999999098481MW1511
0066036553999991956012119004+51933-001250SAO  +0138EGUA V0202301N011810030019N0048001N9+00851+00741100061ADDGA1081+003009079GF108991999999999999999999MA1999999098341MW1511
0082036553999991956012120004+51933-001250SAO  +0138EGUA V0202301N015910030019N0080001N9+00911+00801099991ADDGA1071+003009079GA2081+004509079GF108991999999999999999999MA1999999098271MW1511
0082036553999991956012121004+51933-001250SAO  +0138EGUA V0202301N014410030019N0096001N9+00911+00801099921ADDGA1061+003009079GA2081+004509079GF108991999999999999999999MA1999999098211MW1511
0066036553999991956012122004+51933-001250SAO  +0138EGUA V0202301N018010042019N0128001N9+00961+00741099891ADDGA1081+004209079GF108991999999999999999999MA1999999098171MW1001
0066036553999991956012123004+51933-001250SAO  +0138EGUA V0202501N015410042019N0128001N9+00961+00741099851ADDGA1081+004209079GF108991999999999999999999MA1999999098141MW1511
0066036553999991956012200004+51933-001250SAO  +0138EGUA V0202501N015410051019N0128001N9+00961+00691099791ADDGA1081+005109059GF108991999999999999999999MA1999999098101MW1001
0072036553999991956012201004+51933-001250SAO  +0138EGUA V0202501N015410042019N0080001N9+00911+00741099791ADDGA1081+004209059GF108991999999999999999999MA1999999098071MW1051MW2611
0088036553999991956012202004+51933-001250SAO  +0138EGUA V0202901N009310051019N0080001N9+00581+00411099891ADDGA1031+004209059GA2081+005109059GF108991999999999999999999MA1999999098171MW1051MW2611
0082036553999991956012203004+51933-001250SAO  +0138EGUA V0202901N008710063019N0096001N9+00461+00301099991ADDGA1021+005109059GA2081+006309059GF108991999999999999999999MA1999999098271MW1051
0066036553999991956012204004+51933-001250SAO  +0138EGUA V0202701N009310090019N0096001N9+00461+00131100131ADDGA1081+009009059GF108991999999999999999999MA1999999098411MW1051
0066036553999991956012205004+51933-001250SAO  +0138EGUA V0202701N006210090019N0096001N9+00411+00131100191ADDGA1081+009009059GF108991999999999999999999MA1999999098481MW1051
0066036553999991956012206004+51933-001250SAO  +0138EGUA V0202701N006712200019N0096001N9+00411+00081100401ADDGA1081+012009059GF108991999999999999999999MA1999999098681MW1051
0066036553999991956012207004+51933-001250SAO  +0138EGUA V0202901N006212200019N0128001N9+00351-00041100531ADDGA1081+013509059GF108991999999999999999999MA1999999098811MW1001
0066036553999991956012208004+51933-001250SAO  +0138EGUA V0202701N006712200019N0176001N9+00351-00091100671ADDGA1081+012009059GF108991999999999999999999MA1999999098951MW1001
0098036553999991956012209004+51933-001250SAO  +0138EGUA V0202701N007210180019N0200001N9+00351-00151100801ADDGA1021+012009059GA2051+018009039GA3081+030009049GF108991999999999999999999MA1999999099091MW1001
0117036553999991956012210004+51933-001250SAO  +0138EGUA V0202701N005110180019N0240001N9+00411-00091100971ADDGA1999+012009999GA2061+018009039GA3081+030009039GF108991999999999999999999MA1999999099221MW1001EQDQ01    003SCCGA1
0082036553999991956012211004+51933-001250SAO  +0138EGUA V0202701N005710300019N0240001N9+00411-00041101111ADDGA1051+030009049GA2041+075009009GF107991999999999999999999MA1999999099361MW1001
0119036553999991956012212004+51933-001250SAO  +0138EGUA V0202701N006710750019N0240001N9+00581+00021101111ADDAA124002091GA1041+030009049GA2081+075009009GF108991999999999999999999KA1999M+00961KA2999N+00081MA1999999099361MW1001
0082036553999991956012213004+51933-001250SAO  +0138EGUA V0202901N006210750019N0240001N9+00461-00041101181ADDGA1021+030009049GA2081+075009009GF108991999999999999999999MA1999999099421MW1001
0082036553999991956012214004+51933-001250SAO  +0138EGUA V0202901N005710750019N0240001N9+00581-00091101211ADDGA1021+030009049GA2081+075009009GF108991999999999999999999MA1999999099461MW1001
0082036553999991956012215004+51933-001250SAO  +0138EGUA V0202701N005110300019N0240001N9+00521-00091101211ADDGA1061+030009049GA2081+075009009GF108991999999999999999999MA1999999099461MW1001
0066036553999991956012216004+51933-001250SAO  +0138EGUA V0202701N002610300019N0176001N9+00461+00021101241ADDGA1081+030009039GF108991999999999999999999MA1999999099491MW1001
0066036553999991956012217004+51933-001250SAO  +0138EGUA V0202301N002110300019N0176001N9+00351+00021101241ADDGA1081+030009039GF108991999999999999999999MA1999999099491MW1001
0066036553999991956012218004+51933-001250SAO  +0138EGUA V0201801N002110150019N0144001N9+00351-00041101241ADDGA1081+015009059GF108991999999999999999999MA1999999099491MW1001
0066036553999991956012219004+51933-001250SAO  +0138EGUA V0201801N002610120019N0144001N9+00351-00041101241ADDGA1081+012009059GF108991999999999999999999MA1999999099491MW1001
0066036553999991956012220004+51933-001250SAO  +0138EGUA V0201601N002110120019N0128001N9+00351-00041101241ADDGA1081+012009059GF108991999999999999999999MA1999999099491MW1001
0066036553999991956012221004+51933-001250SAO  +0138EGUA V0201401N003110105019N0128001N9+00351-00091101221ADDGA1081+010509059GF108991999999999999999999MA1999999099461MW1001
0072036553999991956012222004+51933-001250SAO  +0138EGUA V0201601N005110030019N0064001N9+00191+00081101151ADDGA1081+003009079GF108991999999999999999999MA1999999099391MW1051MW2711
0082036553999991956012223004+51933-001250SAO  +0138EGUA V0201401N005110024019N0018001N9+00131-00041101051ADDGA1091+999999999GA2091+002409079GF108991999999999999999999MA1999999099291MW1711
0082036553999991956012300004+51933-001250SAO  +0138EGUA V0200901N006210009019N0010001N9+00081+00021100811ADDGA1091+999999999GA2091+000909079GF108991999999999999999999MA1999999099051MW1711
0088036553999991956012301004+51933-001250SAO  +0138EGUA V0201101N006210009019N0012001N9+00081+00021100541ADDGA1091+999999999GA2091+000909079GF108991999999999999999999MA1999999098811MW1611MW2711
0088036553999991956012302004+51933-001250SAO  +0138EGUA V0200901N004110009019N0012001N9+00081+00021100441ADDGA1021+999999999GA2081+000909079GF108991999999999999999999MA1999999098711MW1451MW2611
0088036553999991956012303004+51933-001250SAO  +0138EGUA V0200901N003610009019N0012001N9+00081+00081100311ADDGA1021+999999999GA2081+000909079GF108991999999999999999999MA1999999098581MW1451MW2611
0088036553999991956012304004+51933-001250SAO  +0138EGUA V0200901N004110009019N0012001N9+00081+00081100101ADDGA1021+999999999GA2081+000909079GF108991999999999999999999MA1999999098371MW1451MW2611
0088036553999991956012305004+51933-001250SAO  +0138EGUA V0200901N004110009019N0005001N9+00191+00191099861ADDGA1051+999999999GA2081+000909079GF108991999999999999999999MA1999999098141MW1451MW2611
0088036553999991956012306004+51933-001250SAO  +0138EGUA V0200901N002610009019N0005001N9+00191+00191099701ADDGA1051+999999999GA2081+000909079GF108991999999999999999999MA1999999097971MW1451MW2611
0088036553999991956012307004+51933-001250SAO  +0138EGUA V0202001N004110009019N0005001N9+00521+00521099661ADDGA1051+999999999GA2081+000909079GF108991999999999999999999MA1999999097931MW1451MW2611
0088036553999991956012308004+51933-001250SAO  +0138EGUA V0202501N004110015019N0018001N9+00581+00581099651ADDGA1021+999999999GA2081+001509079GF108991999999999999999999MA1999999097931MW1451MW2611
0088036553999991956012309004+51933-001250SAO  +0138EGUA V0202701N005110006019N0012001N9+00521+00521099651ADDGA1011+999999999GA2081+000609079GF108991999999999999999999MA1999999097931MW1451MW2611
0088036553999991956012310004+51933-001250SAO  +0138EGUA V0203401N008710009019N0012001N9+00191+00191099701ADDGA1011+999999999GA2081+000909079GF108991999999999999999999MA1999999097971MW1451MW2611
0088036553999991956012311004+51933-001250SAO  +0138EGUA V0203401N008710009019N0012001N9+00131+00131099761ADDGA1011+999999999GA2081+000909079GF108991999999999999999999MA1999999098001MW1451MW2611
0125036553999991956012312004+51933-001250SAO  +0138EGUA V0203401N008210012019N0010001N9+00021+00021099961ADDAA124012091GA1011+999999999GA2081+001209079GF108991999999999999999999KA1999M+00581KA2999N-00091MA1999999098171MW1451MW2711
0088036553999991956012313004+51933-001250SAO  +0138EGUA V0203401N007710012019N0008001N9+00081+00021099991ADDGA1011+999999999GA2081+001209079GF108991999999999999999999MA1999999098241MW1451MW2711
0082036553999991956012314004+51933-001250SAO  +0138EGUA V0203401N008710015019N0018001N9+00081+00081100061ADDGA1021+999999999GA2081+001509079GF108991999999999999999999MA1999999098311MW1451
0082036553999991956012315004+51933-001250SAO  +0138EGUA V0203401N008210021019N0026001N9+00131+00021100171ADDGA1011+999999999GA2081+002109079GF108991999999999999999999MA1999999098411MW1451
0082036553999991956012316004+51933-001250SAO  +0138EGUA V0203401N007710075019N0036001N9+00081+00021100261ADDGA1041+002409079GA2031+007509059GF107991999999999999999999MA1999999098511MW1451
0098036553999991956012317004+51933-001250SAO  +0138EGUA V0203401N005112200019N0018001N9+00021-00041100371ADDGA1011+999999999GA2021+002409079GA3031+007509059GF102991999999999999999999MA1999999098611MW1451
0066036553999991956012318004+51933-001250SAO  +0138EGUA V0203201N005112200019N0012001N9-00041-00151100441ADDGA1031+999999999GF102991999999999999999999MA1999999098681MW1111
0066036553999991956012319004+51933-001250SAO  +0138EGUA V0203201N004612200019N0012001N9-00091-00151100461ADDGA1031+999999999GF102991999999999999999999MA1999999098751MW1111
