0066036553999991958010208004+51933-001250SAO  +0138EGUA V0200901N004610150019N0240001N9+00191+00021999999ADDGA1081+015009059GF108991999999999999999999MA1999999099531MW1001
0082036553999991958010209004+51933-001250SAO  +0138EGUA V0200701N004110150019N0240001N9+00191+00021999999ADDGA1061+015009059GA2061+220009009GF108991999999999999999999MA1999999099591MW1001
0082036553999991958010210004+51933-001250SAO  +0138EGUA V0200701N005110150019N0240001N9+00241-00041999999ADDGA1051+015009059GA2021+220009009GF107991999999999999999999MA1999999099701MW1001
0082036553999991958010211004+51933-001250SAO  +0138EGUA V0200901N005710150019N0240001N9+00241-00041999999ADDGA1061+015009049GA2021+220009009GF107991999999999999999999MA1999999099701MW1001
0098036553999991958010212004+51933-001250SAO  +0138EGUA V0201101N006710150019N0240001N9+00351-00041999999ADDGA1051+015009059GA2041+030009039GA3031+220009009GF108991999999999999999999MA1999999099701MW1001
0082036553999991958010213004+51933-001250SAO  +0138EGUA V0200901N006210150019N0240001N9+00351-00041999999ADDGA1051+015009059GA2061+030009039GF108991999999999999999999MA1999999099701MW1001
0082036553999991958010214004+51933-001250SAO  +0138EGUA V0200901N007210150019N0240001N9+00351-00041999999ADDGA1061+015009059GA2061+030009039GF108991999999999999999999MA1999999099701MW1001
0082036553999991958010215004+51933-001250SAO  +0138EGUA V0200901N006210150019N0240001N9+00351-00041999999ADDGA1061+015009059GA2061+030009039GF108991999999999999999999MA1999999099731MW1001
0098036553999991958010216004+51933-001250SAO  +0138EGUA V0201101N006210150019N0240001N9+00301+00021999999ADDGA1061+015009059GA2031+030009039GA3051+220009009GF108991999999999999999999MA1999999099761MW1001
0066036553999991958010217004+51933-001250SAO  +0138EGUA V0200901N005110150019N0096001N9+00301+00081999999ADDGA1081+015009059GF108991999999999999999999MA1999999099831MW1051
0082036553999991958010308004+51933-001250SAO  +0138EGUA V0200901N006210210019N0200001N9+00021-00151999999ADDGA1061+021009049GA2061+220009009GF108991999999999999999999MA1999999100441MW1001
0082036553999991958010309004+51933-001250SAO  +0138EGUA V0201101N006710210019N0176001N9+00021-00151999999ADDGA1021+004509059GA2081+021009049GF108991999999999999999999MA1999999100511MW1001
0082036553999991958010310004+51933-001250SAO  +0138EGUA V0201101N006212200019N0128001N9+00081-00041999999ADDGA1031+021009049GA2081+220009009GF108991999999999999999999MA1999999100541MW1001
0082036553999991958010311004+51933-001250SAO  +0138EGUA V0201101N006712200019N0128001N9+00131-00091999999ADDGA1021+021009049GA2081+220009009GF108991999999999999999999MA1999999100611MW1001
0082036553999991958010312004+51933-001250SAO  +0138EGUA V0201101N005712200019N0096001N9+00191-00091999999ADDGA1031+021009049GA2081+220009009GF108991999999999999999999MA1999999100511MW1051
0082036553999991958010313004+51933-001250SAO  +0138EGUA V0201101N006710150019N0096001N9+00241-00091999999ADDGA1051+015009059GA2021+220009009GF107991999999999999999999MA1999999100511MW1051
0098036553999991958010314004+51933-001250SAO  +0138EGUA V0201101N007210210019N0096001N9+00301-00041999999ADDGA1041+015009059GA2041+021009039GA3061+220009009GF107991999999999999999999MA1999999100471MW1051
0098036553999991958010315004+51933-001250SAO  +0138EGUA V0201101N006210240019N0096001N9+00241-00041999999ADDGA1021+015009059GA2061+024009039GA3061+220009009GF108991999999999999999999MA1999999100471MW1051
0098036553999991958010316004+51933-001250SAO  +0138EGUA V0201101N006210240019N0080001N9+00191-00091999999ADDGA1011+015009059GA2061+024009039GA3081+220009029GF108991999999999999999999MA1999999100471MW1051
0098036553999991958010317004+51933-001250SAO  +0138EGUA V0201401N003610240019N0048001N9+00131-00151999999ADDGA1031+015009059GA2041+024009049GA3051+220009029GF107991999999999999999999MA1999999100471MW1051
0088036553999991958010608004+51933-001250SAO  +0138EGUA V0201801N007710024019N0036001N9+00521+00521999999ADDGA1061+002409079GA2081+004509059GF108991999999999999999999MA1999999097291MW1051MW2611
0104036553999991958010609004+51933-001250SAO  +0138EGUA V0201801N008710018019N0018001N9+00691+00631999999ADDGA1021+999999999GA2061+001809079GA3081+003609059GF108991999999999999999999MA1999999097021MW1451MW2511
0104036553999991958010610004+51933-001250SAO  +0138EGUA V0202301N005710012019N0018001N9+00741+00691999999ADDGA1021+999999999GA2071+001209079GA3081+003009079GF108991999999999999999999MA1999999096881MW1451MW2511
0088036553999991958010611004+51933-001250SAO  +0138EGUA V0202701N006710012019N0080001N9+01021+00911999999ADDGA1071+001209079GA2081+003009079GF108991999999999999999999MA1999999096821MW1051MW2631
0082036553999991958010612004+51933-001250SAO  +0138EGUA V0202701N008212200019N0240001N9+01111+01001999999ADDGA1031+006009089GA2021+030009039GF102991999999999999999999MA1999999096611MW1001
0098036553999991958010613004+51933-001250SAO  +0138EGUA V0202701N009310027019N0176001N9+01191+00911999999ADDGA1061+002709079GA2031+007509059GA3031+012009059GF108991999999999999999999MA1999999096551MW1001
0098036553999991958010614004+51933-001250SAO  +0138EGUA V0202701N010810120019N0176001N9+01241+00691999999ADDGA1011+003009079GA2041+007509099GA3051+012009059GF107991999999999999999999MA1999999096481MW1801
0082036553999991958010615004+51933-001250SAO  +0138EGUA V0203201N008210060019N0240001N9+01061+00621999999ADDGA1051+006009099GA2021+030009039GF107991999999999999999999MA1999999096481MW1001
0082036553999991958010616004+51933-001250SAO  +0138EGUA V0202901N011812200019N0176001N9+00911+00351999999ADDGA1021+007509089GA2021+024009039GF102991999999999999999999MA1999999096581MW1001
0082036553999991958010617004+51933-001250SAO  +0138EGUA V0202901N014412200019N0240001N9+00741+00191999999ADDGA1011+007509089GA2021+024009039GF102991999999999999999999MA1999999096681MW1001
0082036553999991958010708004+51933-001250SAO  +0138EGUA V0202901N008212200019N0240001N9+00351+00191999999ADDGA1011+030009039GA2021+220009009GF102991999999999999999999MA1999999098071MW1001
0082036553999991958010709004+51933-001250SAO  +0138EGUA V0202901N009312200019N0240001N9+00411+00191999999ADDGA1011+012009059GA2011+030009039GF102991999999999999999999MA1999999098211MW1001
0082036553999991958010710004+51933-001250SAO  +0138EGUA V0202901N007712200019N0240001N9+00461+00191999999ADDGA1021+012009059GA2011+030009039GF102991999999999999999999MA1999999098371MW1001
0082036553999991958010711004+51933-001250SAO  +0138EGUA V0202901N007212200019N0240001N9+00521+00081999999ADDGA1011+006009089GA2021+012009059GF102991999999999999999999MA1999999098481MW1001
0082036553999991958010712004+51933-001250SAO  +0138EGUA V0202901N008212200019N0240001N9+00581+00081999999ADDGA1031+006009089GA2021+030009039GF102991999999999999999999MA1999999098541MW1001
0082036553999991958010713004+51933-001250SAO  +0138EGUA V0203201N008710300019N0240001N9+00581+00131999999ADDGA1041+006009099GA2031+030009039GF107991999999999999999999MA1999999098541MW1001
0082036553999991958010714004+51933-001250SAO  +0138EGUA V0203201N006710060019N0240001N9+00581+00191999999ADDGA1051+006009099GA2031+030009039GF107991999999999999999999MA1999999098681MW1001
0082036553999991958010715004+51933-001250SAO  +0138EGUA V0203201N008210060019N0240001N9+00461+00191999999ADDGA1051+006009099GA2021+030009039GF107991999999999999999999MA1999999098751MW1001
0098036553999991958010716004+51933-001250SAO  +0138EGUA V0203201N008210060019N0240001N9+00461+00081999999ADDGA1061+006009099GA2021+030009039GA3021+220009009GF107991999999999999999999MA1999999098881MW1001
0082036553999991958010717004+51933-001250SAO  +0138EGUA V0203201N006212200019N0240001N9+00461+00131999999ADDGA1021+007509089GA2011+030009039GF102991999999999999999999MA1999999099051MW1001
0066036553999991958010808004+51933-001250SAO  +0138EGUA V0202701N004112200019N0176001N9+00301+00191999999ADDGA1021+012009059GF102991999999999999999999MA1999999100201MW1001
0082036553999991958010809004+51933-001250SAO  +0138EGUA V0202501N003612200019N0176001N9+00351+00131999999ADDGA1021+012009059GA2011+220009009GF102991999999999999999999MA1999999100271MW1001
0082036553999991958010810004+51933-001250SAO  +0138EGUA V0202701N004112200019N0176001N9+00461+00241999999ADDGA1021+012009059GA2011+220009009GF102991999999999999999999MA1999999100271MW1001
0066036553999991958010811004+51933-001250SAO  +0138EGUA V0202701N004112200019N0144001N9+00461+00191999999ADDGA1021+012009059GF102991999999999999999999MA1999999100301MW1001
0117036553999991958010812004+51933-001250SAO  +0138EGUA V0202501N004612200019N0128001N9+00691+00351999999ADDGA1999+004509999GA2011+012009059GA3021+030009039GF102991999999999999999999MA1999999100201MW1001EQDQ01    003SCCGA1
0098036553999991958010813004+51933-001250SAO  +0138EGUA V0202701N005112200019N0128001N9+00911+00581999999ADDGA1021+006009089GA2011+012009059GA3031+030009039GF102991999999999999999999MA1999999100141MW1001
0098036553999991958010814004+51933-001250SAO  +0138EGUA V0202701N004610072019N0096001N9+00741+00411999999ADDGA1051+007209089GA2021+015009059GA3031+036009039GF107991999999999999999999MA1999999100071MW1051
0098036553999991958010815004+51933-001250SAO  +0138EGUA V0202501N005110084019N0096001N9+00691+00461999999ADDGA1061+008409089GA2011+015009059GA3031+036009039GF107991999999999999999999MA1999999100001MW1051
0098036553999991958010816004+51933-001250SAO  +0138EGUA V0202501N005710150019N0096001N9+00581+00461999999ADDGA1011+002709079GA2061+015009059GA3031+036009049GF108991999999999999999999MA1999999099931MW1051
0082036553999991958010817004+51933-001250SAO  +0138EGUA V0202501N005110150019N0096001N9+00461+00301999999ADDGA1041+002709079GA2081+015009059GF108991999999999999999999MA1999999099831MW1051
0082036553999991958010908004+51933-001250SAO  +0138EGUA V0202701N005110360019N0240001N9+00521+00411999999ADDGA1021+006009059GA2071+036009039GF107991999999999999999999MA1999999098241MW1001
0082036553999991958010909004+51933-001250SAO  +0138EGUA V0202701N005710360019N0200001N9+00631+00351999999ADDGA1031+006009059GA2061+036009039GF107991999999999999999999MA1999999098241MW1001
0082036553999991958010910004+51933-001250SAO  +0138EGUA V0202701N007210063019N0200001N9+00691+00461999999ADDGA1051+006309059GA2061+036009039GF107991999999999999999999MA1999999098171MW1001
0098036553999991958010911004+51933-001250SAO  +0138EGUA V0202901N007710051019N0240001N9+00741+00461999999ADDGA1061+005109059GA2041+036009039GA3021+220009009GF108991999999999999999999MA1999999098141MW1001
0098036553999991958010912004+51933-001250SAO  +0138EGUA V0202901N009810051019N0240001N9+00631+00411999999ADDGA1051+005109059GA2031+030009039GA3021+220009009GF107991999999999999999999MA1999999098101MW1001
0098036553999991958010913004+51933-001250SAO  +0138EGUA V0203201N008710051019N0240001N9+00741+00411999999ADDGA1061+005109059GA2021+030009039GA3021+220009009GF107991999999999999999999MA1999999098101MW1001
0098036553999991958010914004+51933-001250SAO  +0138EGUA V0203201N008210057019N0240001N9+00691+00191999999ADDGA1051+005709089GA2031+012009059GA3021+030009039GF107991999999999999999999MA1999999098171MW1001
0098036553999991958010915004+51933-001250SAO  +0138EGUA V0203201N008710120019N0240001N9+00691+00191999999ADDGA1011+003609079GA2031+008409089GA3021+012009059GF107991999999999999999999MA1999999098211MW1001
0098036553999991958010916004+51933-001250SAO  +0138EGUA V0203201N008212200019N0240001N9+00631+00131999999ADDGA1021+003609079GA2021+010509089GA3021+220009009GF102991999999999999999999MA1999999098341MW1001
0082036553999991958010917004+51933-001250SAO  +0138EGUA V0203201N007710105019N0240001N9+00581+00081999999ADDGA1051+010509059GA2031+030009039GF107991999999999999999999MA1999999098481MW1001
0098036553999991958011008004+51933-001250SAO  +0138EGUA V0202301N006710120019N0240001N9+00461+00351999999ADDGA1031+003609059GA2061+012009059GA3021+027009039GF108991999999999999999999MA1999999098311MW1001
0082036553999991958011009004+51933-001250SAO  +0138EGUA V0202301N008210120019N0200001N9+00521+00351999999ADDGA1041+003009059GA2081+012009059GF108991999999999999999999MA1999999098071MW1001
0088036553999991958011010004+51933-001250SAO  +0138EGUA V0202301N006210024019N0080001N9+00631+00521999999ADDGA1061+002409079GA2081+012009059GF108991999999999999999999MA1999999097901MW1051MW2611
0088036553999991958011011004+51933-001250SAO  +0138EGUA V0202301N006210024019N0080001N9+00691+00581999999ADDGA1061+002409079GA2081+006009059GF108991999999999999999999MA1999999097661MW1051MW2611
0082036553999991958011012004+51933-001250SAO  +0138EGUA V0202301N007210024019N0096001N9+00691+00581999999ADDGA1061+002409079GA2081+007509059GF108991999999999999999999MA1999999097321MW1611
0088036553999991958011013004+51933-001250SAO  +0138EGUA V0202301N008210030019N0096001N9+00691+00581999999ADDGA1061+003009079GA2081+007509059GF108991999999999999999999MA1999999097121MW1051MW2611
0083036553999991958011014004+51933-001250SAO  +0138EGUA V0202301N006210030019N0144001N9+00691+00581999999ADDGA1021+001209079GA2061+003009079GA3081+007509059GF108991999999999999999999MW1611
0083036553999991958011015004+51933-001250SAO  +0138EGUA V0202301N008710033019N0144001N9+00691+00631999999ADDGA1021+001209079GA2061+003309079GA3081+007509059GF108991999999999999999999MW1611
0083036553999991958011016004+51933-001250SAO  +0138EGUA V0202301N008210030019N0144001N9+00691+00631999999ADDGA1021+001209079GA2061+003009079GA3081+007509059GF108991999999999999999999MW1611
0104036553999991958011017004+51933-001250SAO  +0138EGUA V0202001N005110030019N0080001N9+00691+00631999999ADDGA1021+001209079GA2061+003009079GA3081+007509059GF108991999999999999999999MA1999999099662MW1051MW2611
0088036553999991958011308004+51933-001250SAO  +0138EGUA V0203401N005712200019N0048001N9-00151-00201999999ADDGA1011+012009059GA2021+027009039GF102991999999999999999999MA1999999100541MW1051MW2111
0088036553999991958011309004+51933-001250SAO  +0138EGUA V0203401N005112200019N0048001N9-00151-00151999999ADDGA1011+012009059GA2021+027009039GF102991999999999999999999MA1999999100581MW1051MW2111
0072036553999991958011310004+51933-001250SAO  +0138EGUA V0203401N005112200019N0048001N9-00041-00091999999ADDGA1011+027009039GF102991999999999999999999MA1999999100611MW1051MW2111
0066036553999991958011311004+51933-001250SAO  +0138EGUA V0203601N004612200019N0048001N9+00191+00021999999ADDGA1011+030009039GF102991999999999999999999MA1999999100641MW1051
0066036553999991958011312004+51933-001250SAO  +0138EGUA V0203401N003612200019N0040001N9+00241+00081999999ADDGA1001+999999999GF100991999999999999999999MA1999999100681MW1051
0066036553999991958011313004+51933-001250SAO  +0138EGUA V0203401N003112200019N0040001N9+00301+00131999999ADDGA1001+999999999GF100991999999999999999999MA1999999100711MW1051
0066036553999991958011314004+51933-001250SAO  +0138EGUA V0203401N003612200019N0018001N9+00301+00131999999ADDGA1091+999999999GF102991999999999999999999MA1999999100711MW1051
0066036553999991958011315004+51933-001250SAO  +0138EGUA V0201801N003112200019N0018001N9+00241+00081999999ADDGA1091+999999999GF102991999999999999999999MA1999999100751MW1051
0082036553999991958011316004+51933-001250SAO  +0138EGUA V0201801N002612200019N0018001N9+00191+00021999999ADDGA1091+999999999GA2011+220009009GF102991999999999999999999MA1999999100781MW1051
0082036553999991958011317004+51933-001250SAO  +0138EGUA V0203401N003112200019N0018001N9+00191-00041999999ADDGA1091+999999999GA2021+021009039GF102991999999999999999999MA1999999100851MW1051
0082036553999991958011408004+51933-001250SAO  +0138EGUA V0201801N003110018019N0005001N9-00151-00201999999ADDGA1041+999999999GA2081+001809079GF108991999999999999999999MA1999999101591MW1451
0098036553999991958011409004+51933-001250SAO  +0138EGUA V0203201N003610027019N0001001N9-00091-00091999999ADDGA1051+999999999GA2051+002709079GA3061+013509059GF108991999999999999999999MA1999999101491MW1451
0066036553999991958011410004+51933-001250SAO  +0138EGUA V0209991C000012200019N0000001N9-00041-00041999999ADDGA1061+999999999GF107991999999999999999999MA1999999101561MW1451
0066036553999991958011411004+51933-001250SAO  +0138EGUA V0209991C000012200019N0000001N9+00021+00021999999ADDGA1071+999999999GF107991999999999999999999MA1999999101591MW1451
0082036553999991958011412004+51933-001250SAO  +0138EGUA V0209991C000010060019N0000001N9+00081+00081999999ADDGA1071+999999999GA2081+006009059GF108991999999999999999999MA1999999101561MW1451
0066036553999991958011413004+51933-001250SAO  +0138EGUA V0209991C000010003019N0000001N9+00081+00081999999ADDGA1091+000309999GF109991999999999999999999MA1999999101591MW1451
0066036553999991958011414004+51933-001250SAO  +0138EGUA V0209991C000012200019N0000001N9+00081+00021999999ADDGA1071+999999999GF107991999999999999999999MA1999999101591MW1451
0066036553999991958011415004+51933-001250SAO  +0138EGUA V0209991C000012200019N0000001N9-00091-00091999999ADDGA1071+999999999GF107991999999999999999999MA1999999101591MW1451
0082036553999991958011416004+51933-001250SAO  +0138EGUA V0209991C000012200019N0000001N9-00091-00091999999ADDGA1071+999999999GA2021+220009009GF108991999999999999999999MA1999999101591MW1451
0066036553999991958011417004+51933-001250SAO  +0138EGUA V0202001N002612200019N0000001N9-00091-00091999999ADDGA1071+999999999GF107991999999999999999999MA1999999101631MW1451
0066036553999991958011508004+51933-001250SAO  +0138EGUA V0203401N003110006019N0001001N9+00461+00411999999ADDGA1091+000609999GF109991999999999999999999MA1999999101731MW1451
0066036553999991958011509004+51933-001250SAO  +0138EGUA V0203401N003610006019N0001001N9+00461+00461999999ADDGA1091+000609999GF109991999999999999999999MA1999999101761MW1451
0066036553999991958011510004+51933-001250SAO  +0138EGUA V0203401N002110006019N0001001N9+00521+00521999999ADDGA1091+000609999GF109991999999999999999999MA1999999101831MW1451
0066036553999991958011511004+51933-001250SAO  +0138EGUA V0203401N002610006019N0001001N9+00581+00521999999ADDGA1091+000609999GF109991999999999999999999MA1999999101831MW1451
0066036553999991958011512004+51933-001250SAO  +0138EGUA V0203401N003110006019N0001001N9+00581+00581999999ADDGA1091+000609999GF109991999999999999999999MA1999999101791MW1451
0066036553999991958011513004+51933-001250SAO  +0138EGUA V0203401N001510006019N0001001N9+00581+00581999999ADDGA1091+000609999GF109991999999999999999999MA1999999101791MW1451
0066036553999991958011514004+51933-001250SAO  +0138EGUA V0203401N002110006019N0000001N9+00631+00631999999ADDGA1091+000609999GF109991999999999999999999MA1999999101791MW1451
0066036553999991958011515004+51933-001250SAO  +0138EGUA V0201801N002610003019N0000001N9+00631+00631999999ADDGA1091+000309999GF109991999999999999999999MA1999999101861MW1451
0066036553999991958011516004+51933-001250SAO  +0138EGUA V0203201N002110003019N0000001N9+00631+00631999999ADDGA1091+000309999GF109991999999999999999999MA1999999101861MW1451
0066036553999991958011517004+51933-001250SAO  +0138EGUA V0203401N002110003019N0000001N9+00631+00631999999ADDGA1091+000309999GF109991999999999999999999MA1999999101931MW1451
0098036553999991958011608004+51933-001250SAO  +0138EGUA V0202701N003110021019N0010001N9+00691+00581999999ADDGA1021+999999999GA2061+002109079GA3081+004509059GF108991999999999999999999MA1999999101901MW1451
0098036553999991958011609004+51933-001250SAO  +0138EGUA V0202701N003110027019N0010001N9+00691+00631999999ADDGA1021+999999999GA2061+002709079GA3081+006009059GF108991999999999999999999MA1999999101931MW1451
0104036553999991958011610004+51933-001250SAO  +0138EGUA V0202701N004110024019N0016001N9+00741+00691999999ADDGA1021+999999999GA2061+002409079GA3081+006009059GF108991999999999999999999MA1999999101931MW1451MW2511
0098036553999991958011611004+51933-001250SAO  +0138EGUA V0202701N003610060019N0026001N9+00801+00741999999ADDGA1011+999999999GA2031+002409079GA3081+006009059GF108991999999999999999999MA1999999102001MW1111
0094036553999991958011612004+51933-001250SAO  +0138EGUA V0202901N004610060019N0036001N9+00801+00741999999ADDGA1041+002109079GA2081+006009059GF108991999999999999999999MA1999999101901MW1041MW2111MW3511
0088036553999991958011613004+51933-001250SAO  +0138EGUA V0202901N004110060019N0064001N9+00801+00691999999ADDGA1041+002709079GA2081+006009059GF108991999999999999999999MA1999999101861MW1051MW2111
0082036553999991958011614004+51933-001250SAO  +0138EGUA V0202901N004610075019N0096001N9+00801+00631999999ADDGA1021+004509079GA2081+007509059GF108991999999999999999999MA1999999101791MW1051
0082036553999991958011615004+51933-001250SAO  +0138EGUA V0202901N004110075019N0096001N9+00801+00581999999ADDGA1021+004509079GA2081+007509059GF108991999999999999999999MA1999999101761MW1051
0082036553999991958011616004+51933-001250SAO  +0138EGUA V0203201N005110072019N0096001N9+00691+00521999999ADDGA1021+004509059GA2081+007209059GF108991999999999999999999MA1999999101731MW1051
0066036553999991958011617004+51933-001250SAO  +0138EGUA V0203201N003610072019N0096001N9+00691+00461999999ADDGA1081+007209059GF108991999999999999999999MA1999999101731MW1051
0082036553999991958011708004+51933-001250SAO  +0138EGUA V0202701N005110051019N0080001N9+00631+00461999999ADDGA1061+005109059GA2081+010509059GF108991999999999999999999MA1999999101421MW1051
0098036553999991958011709004+51933-001250SAO  +0138EGUA V0202701N005710051019N0080001N9+00691+00581999999ADDGA1051+005109059GA2061+010509059GA3021+027009039GF108991999999999999999999MA1999999101421MW1051
0082036553999991958011710004+51933-001250SAO  +0138EGUA V0209991C000010045019N0080001N9+00741+00631999999ADDGA1061+004509059GA2081+010509059GF108991999999999999999999MA1999999101421MW1051
0082036553999991958011711004+51933-001250SAO  +0138EGUA V0202701N003110045019N0064001N9+00741+00631999999ADDGA1061+004509059GA2081+010509059GF108991999999999999999999MA1999999101421MW1051
0088036553999991958011712004+51933-001250SAO  +0138EGUA V0203201N004610015019N0022001N9+00741+00691999999ADDGA1071+001509079GA2081+007509059GF108991999999999999999999MA1999999101351MW1451MW2511
0104036553999991958011713004+51933-001250SAO  +0138EGUA V0203201N004110015019N0022001N9+00741+00691999999ADDGA1021+999999999GA2071+001509079GA3081+007509059GF108991999999999999999999MA1999999101351MW1451MW2511
0104036553999991958011714004+51933-001250SAO  +0138EGUA V0203201N002610018019N0026001N9+00741+00631999999ADDGA1021+999999999GA2071+001809079GA3081+006009059GF108991999999999999999999MA1999999101321MW1451MW2511
0088036553999991958011715004+51933-001250SAO  +0138EGUA V0203201N003110018019N0040001N9+00741+00581999999ADDGA1071+001809079GA2081+006009059GF108991999999999999999999MA1999999101291MW1111MW2511
0088036553999991958011716004+51933-001250SAO  +0138EGUA V0203201N005110027019N0064001N9+00691+00581999999ADDGA1061+002709079GA2081+009009059GF108991999999999999999999MA1999999101291MW1111MW2511
0082036553999991958011717004+51933-001250SAO  +0138EGUA V0203201N005110105019N0064001N9+00631+00351999999ADDGA1021+004509059GA2081+010509059GF108991999999999999999999MA1999999101291MW1051
0098036553999991958012008004+51933-001250SAO  +0138EGUA V0203201N005112200019N0240001N9-00201-00311999999ADDGA1021+012009059GA2011+027009039GA3021+220009009GF102991999999999999999999MA1999999098411MW1001
0098036553999991958012009004+51933-001250SAO  +0138EGUA V0202901N005712200019N0240001N9-00151-00311999999ADDGA1021+015009059GA2021+027009039GA3031+220009009GF102991999999999999999999MA1999999098441MW1001
0117036553999991958012010004+51933-001250SAO  +0138EGUA V0202701N003112200019N0240001N9+00021-00261999999ADDGA1999+015009999GA2011+027009039GA3021+220009009GF102991999999999999999999MA1999999098541MW1001EQDQ01    003SCCGA1
0098036553999991958012011004+51933-001250SAO  +0138EGUA V0202701N003112200019N0240001N9+00301+00021999999ADDGA1011+012009059GA2021+027009039GA3021+220009009GF102991999999999999999999MA1999999098611MW1001
0098036553999991958012012004+51933-001250SAO  +0138EGUA V0202901N005712200019N0240001N9+00301-00091999999ADDGA1011+009009059GA2021+030009039GA3021+220009009GF102991999999999999999999MA1999999098581MW1001
0098036553999991958012013004+51933-001250SAO  +0138EGUA V0202901N004112200019N0240001N9+00301-00091999999ADDGA1021+009009059GA2011+030009039GA3021+220009009GF102991999999999999999999MA1999999098581MW1001
0098036553999991958012014004+51933-001250SAO  +0138EGUA V0202901N004612200019N0240001N9+00301+00021999999ADDGA1021+007509059GA2021+030009039GA3051+220009009GF107991999999999999999999MA1999999098581MW1001
0098036553999991958012015004+51933-001250SAO  +0138EGUA V0203201N004110075019N0240001N9+00301+00021999999ADDGA1051+007509059GA2011+030009039GA3021+220009009GF107991999999999999999999MA1999999098581MW1001
0082036553999991958012016004+51933-001250SAO  +0138EGUA V0202701N003110075019N0128001N9+00241-00041999999ADDGA1051+007509059GA2021+030009039GF107991999999999999999999MA1999999098581MW1001
0082036553999991958012017004+51933-001250SAO  +0138EGUA V0202701N004612200019N0160001N9+00191-00041999999ADDGA1021+009009059GA2041+030009039GF102991999999999999999999MA1999999098581MW1001
0082036553999991958012108004+51933-001250SAO  +0138EGUA V0202701N002610015019N0064001N9-00201-00201999999ADDGA1061+001509079GA2081+010509059GF108991999999999999999999MA1999999098211MW1051
0082036553999991958012109004+51933-001250SAO  +0138EGUA V0202701N002110018019N0064001N9-00201-00371999999ADDGA1051+001809079GA2071+010509059GF108991999999999999999999MA1999999098171MW1051
0082036553999991958012110004+51933-001250SAO  +0138EGUA V0202001N002110021019N0064001N9-00151-00261999999ADDGA1051+002109079GA2041+010509059GF107991999999999999999999MA1999999098171MW1051
0082036553999991958012111004+51933-001250SAO  +0138EGUA V0202701N004112200019N0144001N9+00021-00201999999ADDGA1021+002109079GA2031+010509059GF102991999999999999999999MA1999999098171MW1001
0082036553999991958012112004+51933-001250SAO  +0138EGUA V0202701N004112200019N0176001N9+00081-00091999999ADDGA1021+010509059GA2021+220009009GF102991999999999999999999MA1999999098071MW1001
0082036553999991958012113004+51933-001250SAO  +0138EGUA V0202701N003112200019N0176001N9+00131-00151999999ADDGA1021+010509059GA2021+220009009GF102991999999999999999999MA1999999098101MW1001
0098036553999991958012114004+51933-001250SAO  +0138EGUA V0202301N002612200019N0096001N9-00091-00531999999ADDGA1021+009009089GA2031+030009049GA3061+220009009GF107991999999999999999999MA1999999098071MW1051
0098036553999991958012115004+51933-001250SAO  +0138EGUA V0202501N003112200019N0080001N9-00151-00311999999ADDGA1011+009009089GA2041+030009049GA3061+220009009GF107991999999999999999999MA1999999098071MW1051
0098036553999991958012116004+51933-001250SAO  +0138EGUA V0202501N002612200019N0080001N9-00261-00421999999ADDGA1021+010509059GA2041+030009049GA3061+220009009GF107991999999999999999999MA1999999098071MW1051
0104036553999991958012117004+51933-001250SAO  +0138EGUA V0202501N002112200019N0080001N9-00261-00371999999ADDGA1021+010509059GA2031+030009049GA3071+220009009GF107991999999999999999999MA1999999098071MW1051MW2111
0104036553999991958012208004+51933-001250SAO  +0138EGUA V0203201N004110105019N0022001N9-00371-00421999999ADDGA1021+999999999GA2051+010509059GA3031+027009039GF107991999999999999999999MA1999999098211MW1051MW2111
0120036553999991958012209004+51933-001250SAO  +0138EGUA V0203201N005110105019N0022001N9-00371-00421999999ADDGA1021+999999999GA2051+010509059GA3021+027009039GA4061+220009009GF107991999999999999999999MA1999999098311MW1051MW2111
0098036553999991958012210004+51933-001250SAO  +0138EGUA V0202701N005712200019N0064001N9-00371-00481999999ADDGA1011+010509059GA2021+030009039GA3061+220009009GF107991999999999999999999MA1999999098341MW1051
0098036553999991958012211004+51933-001250SAO  +0138EGUA V0202901N005112200019N0096001N9-00201-00371999999ADDGA1011+010509059GA2011+030009039GA3051+220009009GF107991999999999999999999MA1999999098371MW1051
0082036553999991958012212004+51933-001250SAO  +0138EGUA V0203201N003612200019N0096001N9-00091-00201999999ADDGA1031+010509059GA2021+030009039GF102991999999999999999999MA1999999098341MW1051
0082036553999991958012213004+51933-001250SAO  +0138EGUA V0203201N003112200019N0128001N9+00021-00371999999ADDGA1021+010509059GA2021+030009039GF102991999999999999999999MA1999999098341MW1001
0082036553999991958012214004+51933-001250SAO  +0138EGUA V0202901N003112200019N0128001N9+00021-00201999999ADDGA1011+010509059GA2011+030009039GF102991999999999999999999MA1999999098341MW1001
0082036553999991958012215004+51933-001250SAO  +0138EGUA V0202701N003112200019N0096001N9+00081-00151999999ADDGA1031+010509059GA2021+030009039GF102991999999999999999999MA1999999098341MW1051
0098036553999991958012216004+51933-001250SAO  +0138EGUA V0202701N003112200019N0080001N9+00021-00201999999ADDGA1021+010509059GA2021+030009039GA3021+220009009GF102991999999999999999999MA1999999098341MW1051
0098036553999991958012217004+51933-001250SAO  +0138EGUA V0202301N003612200019N0080001N9-00151-00701999999ADDGA1021+010509059GA2021+030009039GA3021+220009009GF102991999999999999999999MA1999999098371MW1051
0098036553999991958012308004+51933-001250SAO  +0138EGUA V0202301N003110120019N0064001N9-00531-00591999999ADDGA1061+012009059GA2031+030009039GA3051+220009009GF108991999999999999999999MA1999999098651MW1051
0098036553999991958012309004+51933-001250SAO  +0138EGUA V0202501N004110120019N0064001N9-00371-00481999999ADDGA1051+012009059GA2041+027009039GA3041+220009009GF108991999999999999999999MA1999999098681MW1051
0104036553999991958012310004+51933-001250SAO  +0138EGUA V0201801N002610120019N0036001N9-00371-00421999999ADDGA1021+003009079GA2061+012009059GA3041+027009039GF108991999999999999999999MA1999999098681MW1051MW2711
0104036553999991958012311004+51933-001250SAO  +0138EGUA V0202301N003110120019N0040001N9-00261-00311999999ADDGA1031+004509059GA2061+012009059GA3031+027009039GF108991999999999999999999MA1999999098711MW1051MW2711
0098036553999991958012312004+51933-001250SAO  +0138EGUA V0202301N002610021019N0064001N9-00151-00201999999ADDGA1061+002109079GA2061+012009059GA3021+027009039GF108991999999999999999999MA1999999098651MW1051
0082036553999991958012313004+51933-001250SAO  +0138EGUA V0202301N002110018019N0080001N9-00041-00091999999ADDGA1061+001809079GA2081+012009059GF108991999999999999999999MA1999999098651MW1051
0082036553999991958012314004+51933-001250SAO  +0138EGUA V0202701N004110021019N0080001N9+00021-00041999999ADDGA1061+002109079GA2081+012009059GF108991999999999999999999MA1999999098611MW1051
0098036553999991958012315004+51933-001250SAO  +0138EGUA V0202901N002610021019N0080001N9-00041-00151999999ADDGA1051+002109079GA2031+012009059GA3031+030009039GF108991999999999999999999MA1999999098611MW1051
0082036553999991958012316004+51933-001250SAO  +0138EGUA V0202701N002110024019N0080001N9-00091-00151999999ADDGA1061+002409079GA2051+012009059GF108991999999999999999999MA1999999098611MW1051
0098036553999991958012317004+51933-001250SAO  +0138EGUA V0202301N003110120019N0080001N9-00201-00311999999ADDGA1031+003009079GA2051+012009059GA3051+030009039GF108991999999999999999999MA1999999098651MW1051
0066036553999991958012408004+51933-001250SAO  +0138EGUA V0209991C000010001519N0000001N9-00651-00701999999ADDGA1091+000159999GF109991999999999999999999MA1999999099361MW1451
0066036553999991958012409004+51933-001250SAO  +0138EGUA V0209991C000012200019N0000001N9-00651-00651999999ADDGA1071+999999999GF107991999999999999999999MA1999999099421MW1451
0082036553999991958012410004+51933-001250SAO  +0138EGUA V0209991C000012200019N0012001N9-00531-00531999999ADDGA1021+999999999GA2011+220009009GF102991999999999999999999MA1999999099491MW1111
0072036553999991958012411004+51933-001250SAO  +0138EGUA V0202001N002112200019N0048001N9-00311-00311999999ADDGA1011+220009009GF102991999999999999999999MA1999999099561MW1051MW2111
0082036553999991958012412004+51933-001250SAO  +0138EGUA V0202301N003612200019N0064001N9-00151-00201999999ADDGA1011+021009039GA2011+220009009GF102991999999999999999999MA1999999099591MW1051
0066036553999991958012413004+51933-001250SAO  +0138EGUA V0202301N002112200019N0064001N9+00081-00261999999ADDGA1011+220009009GF102991999999999999999999MA1999999099631MW1051
0066036553999991958012414004+51933-001250SAO  +0138EGUA V0202301N002612200019N0064001N9+00191-00091999999ADDGA1021+220009009GF102991999999999999999999MA1999999099661MW1051
0066036553999991958012415004+51933-001250SAO  +0138EGUA V0202301N002112200019N0064001N9+00081-00201999999ADDGA1021+220009009GF102991999999999999999999MA1999999099701MW1051
0066036553999991958012416004+51933-001250SAO  +0138EGUA V0202301N002112200019N0064001N9-00041-00311999999ADDGA1031+220009009GF102991999999999999999999MA1999999099731MW1051
0082036553999991958012417004+51933-001250SAO  +0138EGUA V0202001N003112200019N0048001N9-00041-00261999999ADDGA1021+036009039GA2031+220009009GF102991999999999999999999MA1999999099761MW1051
0088036553999991958012708004+51933-001250SAO  +0138EGUA V0201801N005110009019N0001001N9+00961+00961999999ADDGA1041+999999999GA2081+000909079GF108991999999999999999999MA1999999100241MW1451MW2511
0088036553999991958012709004+51933-001250SAO  +0138EGUA V0201801N004110009019N0003001N9+01021+00961999999ADDGA1041+999999999GA2081+000909079GF108991999999999999999999MA1999999100271MW1451MW2511
0088036553999991958012710004+51933-001250SAO  +0138EGUA V0201801N004610009019N0010001N9+01021+01021999999ADDGA1021+999999999GA2081+000909079GF108991999999999999999999MA1999999100271MW1451MW2511
0088036553999991958012711004+51933-001250SAO  +0138EGUA V0201801N005110240019N0048001N9+01071+01021999999ADDGA1041+001509079GA2071+024009039GF107991999999999999999999MA1999999100301MW1051MW2111
0098036553999991958012712004+51933-001250SAO  +0138EGUA V0201801N006210105019N0064001N9+01131+01021999999ADDGA1011+002109079GA2051+010509059GA3061+024009039GF108991999999999999999999MA1999999100271MW1051
0082036553999991958012713004+51933-001250SAO  +0138EGUA V0201801N005110120019N0064001N9+01241+01131999999ADDGA1051+012009059GA2051+033009039GF107991999999999999999999MA1999999100241MW1051
0082036553999991958012714004+51933-001250SAO  +0138EGUA V0201601N003610120019N0080001N9+01241+01071999999ADDGA1051+012009059GA2061+036009039GF107991999999999999999999MA1999999100171MW1051
0098036553999991958012715004+51933-001250SAO  +0138EGUA V0201601N004110300019N0096001N9+01241+01021999999ADDGA1021+012009059GA2051+030009039GA3061+220009029GF108991999999999999999999MA1999999100171MW1051
0082036553999991958012716004+51933-001250SAO  +0138EGUA V0201801N005110300019N0160001N9+01131+00911999999ADDGA1061+030009039GA2081+220009029GF108991999999999999999999MA1999999100171MW1001
0098036553999991958012717004+51933-001250SAO  +0138EGUA V0201601N004110300019N0160001N9+01071+00851999999ADDGA1021+012009059GA2061+030009039GA3081+220009029GF108991999999999999999999MA1999999100171MW1001
0104036553999991958012808004+51933-001250SAO  +0138EGUA V0201601N006210105019N0064001N9+00851+00741999999ADDGA1011+003009079GA2051+010509059GA3081+024009049GF108991999999999999999999MA1999999099831MW1051MW2611
0104036553999991958012809004+51933-001250SAO  +0138EGUA V0201601N007210105019N0064001N9+00851+00741999999ADDGA1031+003609079GA2051+010509059GA3081+024009049GF108991999999999999999999MA1999999099831MW1051MW2611
0088036553999991958012810004+51933-001250SAO  +0138EGUA V0201601N006710042019N0048001N9+00801+00741999999ADDGA1061+004209059GA2081+010509059GF108991999999999999999999MA1999999099861MW1051MW2611
0088036553999991958012811004+51933-001250SAO  +0138EGUA V0201801N005710030019N0040001N9+00851+00741999999ADDGA1061+003009079GA2081+010509059GF108991999999999999999999MA1999999099861MW1051MW2611
0088036553999991958012812004+51933-001250SAO  +0138EGUA V0201801N006210030019N0040001N9+00851+00801999999ADDGA1061+003009079GA2081+009009059GF108991999999999999999999MA1999999099801MW1051MW2611
0088036553999991958012813004+51933-001250SAO  +0138EGUA V0201601N005110030019N0040001N9+00911+00801999999ADDGA1061+003009079GA2081+009009059GF108991999999999999999999MA1999999099801MW1051MW2611
0088036553999991958012814004+51933-001250SAO  +0138EGUA V0201801N006210030019N0040001N9+00851+00801999999ADDGA1071+003009079GA2081+009009059GF108991999999999999999999MA1999999099801MW1051MW2611
0088036553999991958012815004+51933-001250SAO  +0138EGUA V0201801N005110024019N0040001N9+00851+00801999999ADDGA1071+002409079GA2081+009009059GF108991999999999999999999MA1999999099801MW1051MW2611
0088036553999991958012816004+51933-001250SAO  +0138EGUA V0201801N005110021019N0040001N9+00851+00741999999ADDGA1071+002109079GA2081+007509059GF108991999999999999999999MA1999999099801MW1051MW2611
0088036553999991958012817004+51933-001250SAO  +0138EGUA V0201801N005710021019N0040001N9+00801+00801999999ADDGA1061+002109079GA2081+007509059GF108991999999999999999999MA1999999099801MW1051MW2611
0104036553999991958012908004+51933-001250SAO  +0138EGUA V0202701N005710120019N0080001N9+00741+00691999999ADDGA1041+003009079GA2051+012009059GA3041+024009039GF108991999999999999999999MA1999999100201MW1051MW2611
0104036553999991958012909004+51933-001250SAO  +0138EGUA V0202701N003110120019N0080001N9+00741+00691999999ADDGA1041+003009079GA2061+012009059GA3031+024009039GF108991999999999999999999MA1999999100201MW1051MW2611
0098036553999991958012910004+51933-001250SAO  +0138EGUA V0202901N002610120019N0096001N9+00741+00691999999ADDGA1031+004509079GA2061+012009059GA3031+024009039GF108991999999999999999999MA1999999100341MW1051
0098036553999991958012911004+51933-001250SAO  +0138EGUA V0202701N002110210019N0096001N9+00801+00691999999ADDGA1011+006009059GA2041+012009059GA3061+021009039GF108991999999999999999999MA1999999100411MW1051
0098036553999991958012912004+51933-001250SAO  +0138EGUA V0202701N002610210019N0096001N9+00851+00741999999ADDGA1011+007509059GA2021+012009059GA3081+021009049GF108991999999999999999999MA1999999100411MW1051
0114036553999991958012913004+51933-001250SAO  +0138EGUA V0202701N003110240019N0096001N9+00911+00801999999ADDGA1011+007509059GA2021+012009059GA3061+024009039GA4081+220009029GF108991999999999999999999MA1999999100411MW1051
0098036553999991958012914004+51933-001250SAO  +0138EGUA V0202901N002610750019N0096001N9+01021+00741999999ADDGA1011+007509089GA2031+027009039GA3071+075009009GF107991999999999999999999MA1999999100441MW1051
0098036553999991958012915004+51933-001250SAO  +0138EGUA V0202901N003610750019N0128001N9+01021+00741999999ADDGA1011+007509089GA2021+027009039GA3071+075009009GF107991999999999999999999MA1999999100471MW1001
0098036553999991958012916004+51933-001250SAO  +0138EGUA V0202901N003110750019N0128001N9+00961+00741999999ADDGA1011+007509089GA2031+027009039GA3061+075009009GF107991999999999999999999MA1999999100511MW1001
0098036553999991958012917004+51933-001250SAO  +0138EGUA V0203201N002112200019N0128001N9+00911+00691999999ADDGA1011+007509089GA2011+027009039GA3061+220009009GF107991999999999999999999MA1999999100611MW1001
0098036553999991958013008004+51933-001250SAO  +0138EGUA V0209991C000012200019N0001001N9-00041-00091999999ADDGA1031+999999999GA2021+030009039GA3051+220009009GF107991999999999999999999MA1999999101291MW1111
0104036553999991958013009004+51933-001250SAO  +0138EGUA V0201801N002110300019N0001001N9-00201-00261999999ADDGA1051+999999999GA2021+030009039GA3031+220009009GF107991999999999999999999MA1999999101351MW1041MW2451
0088036553999991958013010004+51933-001250SAO  +0138EGUA V0209991C000012200019N0001001N9-00091-00091999999ADDGA1051+999999999GA2031+220009009GF107991999999999999999999MA1999999101421MW1041MW2451
0072036553999991958013011004+51933-001250SAO  +0138EGUA V0209991C000012200019N0001001N9-00041-00041999999ADDGA1071+999999999GF107991999999999999999999MA1999999101491MW1041MW2451
0072036553999991958013012004+51933-001250SAO  +0138EGUA V0202701N001512200019N0001001N9+00081+00021999999ADDGA1071+999999999GF107991999999999999999999MA1999999101521MW1041MW2451
0072036553999991958013013004+51933-001250SAO  +0138EGUA V0209991C000012200019N0001001N9+00191+00191999999ADDGA1071+999999999GF107991999999999999999999MA1999999101521MW1041MW2451
0072036553999991958013014004+51933-001250SAO  +0138EGUA V0209991C000012200019N0001001N9+00301+00241999999ADDGA1071+999999999GF107991999999999999999999MA1999999101521MW1041MW2451
0072036553999991958013015004+51933-001250SAO  +0138EGUA V0209991C000012200019N0000001N9+00301+00301999999ADDGA1071+999999999GF107991999999999999999999MA1999999101521MW1041MW2451
0066036553999991958013016004+51933-001250SAO  +0138EGUA V0209991C000010006019N0000001N9+00301+00301999999ADDGA1091+000609999GF109991999999999999999999MA1999999101521MW1451
0066036553999991958013017004+51933-001250SAO  +0138EGUA V0209991C000010006019N0000001N9+00241+00241999999ADDGA1091+000609999GF109991999999999999999999MA1999999101521MW1451
0066036553999991958013108004+51933-001250SAO  +0138EGUA V0209991C000010006019N0001001N9-00261-00261999999ADDGA1091+000609999GF109991999999999999999999MA1999999101521MW1451
0066036553999991958013109004+51933-001250SAO  +0138EGUA V0201401N002110006019N0001001N9-00201-00201999999ADDGA1091+000609999GF109991999999999999999999MA1999999101521MW1451
0066036553999991958013110004+51933-001250SAO  +0138EGUA V0201401N002110006019N0000001N9-00151-00151999999ADDGA1091+000609999GF109991999999999999999999MA1999999101521MW1451
0066036553999991958013111004+51933-001250SAO  +0138EGUA V0209991C000010003019N0000001N9-00151-00151999999ADDGA1091+000309999GF109991999999999999999999MA1999999101521MW1451
0066036553999991958013112004+51933-001250SAO  +0138EGUA V0201401N002610001519N0000001N9-00091-00091999999ADDGA1091+000159999GF109991999999999999999999MA1999999101521MW1451
0066036553999991958013113004+51933-001250SAO  +0138EGUA V0201801N001510001519N0000001N9-00041-00041999999ADDGA1091+000159999GF109991999999999999999999MA1999999101421MW1451
0066036553999991958013114004+51933-001250SAO  +0138EGUA V0209991C000010001519N0000001N9+00021+00021999999ADDGA1091+000159999GF109991999999999999999999MA1999999101351MW1451
0066036553999991958013115004+51933-001250SAO  +0138EGUA V0209991C000010001519N0000001N9+00021+00021999999ADDGA1091+000159999GF109991999999999999999999MA1999999101321MW1451
0066036553999991958013116004+51933-001250SAO  +0138EGUA V0209991C000010001519N0000001N9+00081+00021999999ADDGA1091+000159999GF109991999999999999999999MA1999999101321MW1451
0066036553999991958013117004+51933-001250SAO  +0138EGUA V0209991C000010001519N0000001N9+00081+00081999999ADDGA1091+000159999GF109991999999999999999999MA1999999101291MW1451
0072036553999991958020308004+51933-001250SAO  +0138EGUA V0200701N005112200019N0048001N9+00131+00081999999ADDGA1011+220009009GF102991999999999999999999MA1999999101861MW1051MW2111
0082036553999991958020309004+51933-001250SAO  +0138EGUA V0200501N003112200019N0064001N9+00241+00081999999ADDGA1011+015009059GA2011+220009009GF102991999999999999999999MA1999999101901MW1051
0098036553999991958020310004+51933-001250SAO  +0138EGUA V0200701N003612200019N0064001N9+00461+00301999999ADDGA1091+003009999GA2011+015009059GA3021+220009009GF102991999999999999999999MA1999999101961MW1051
0082036553999991958020311004+51933-001250SAO  +0138EGUA V0200901N004612200019N0080001N9+00631+00351999999ADDGA1011+015009059GA2021+220009009GF102991999999999999999999MA1999999102101MW1051
0098036553999991958020312004+51933-001250SAO  +0138EGUA V0200901N003612200019N0096001N9+00741+00351999999ADDGA1011+003009079GA2011+024009039GA3031+220009009GF102991999999999999999999MA1999999102071MW1051
0082036553999991958020313004+51933-001250SAO  +0138EGUA V0200901N003612200019N0096001N9+00741+00301999999ADDGA1021+009009089GA2021+220009009GF102991999999999999999999MA1999999102071MW1051
0098036553999991958020314004+51933-001250SAO  +0138EGUA V0201101N002112200019N0096001N9+00691+00191999999ADDGA1011+009009089GA2011+030009039GA3021+220009009GF102991999999999999999999MA1999999102071MW1051
0098036553999991958020315004+51933-001250SAO  +0138EGUA V0201101N003112200019N0096001N9+00691+00241999999ADDGA1011+009009089GA2031+036009039GA3021+220009009GF102991999999999999999999MA1999999102071MW1051
0082036553999991958020316004+51933-001250SAO  +0138EGUA V0201401N002110450019N0096001N9+00631+00301999999ADDGA1051+045009039GA2021+220009019GF107991999999999999999999MA1999999102071MW1051
0082036553999991958020317004+51933-001250SAO  +0138EGUA V0201401N001510450019N0096001N9+00461+00191999999ADDGA1061+045009039GA2021+220009009GF107991999999999999999999MA1999999102071MW1051
0066036553999991958020408004+51933-001250SAO  +0138EGUA V0202701N003110009019N0001001N9+00461+00461999999ADDGA1091+000909999GF109991999999999999999999MA1999999101251MW1451
0066036553999991958020409004+51933-001250SAO  +0138EGUA V0202501N005710009019N0005001N9+00521+00521999999ADDGA1091+000909999GF109991999999999999999999MA1999999101191MW1451
0088036553999991958020410004+51933-001250SAO  +0138EGUA V0202501N005110009019N0012001N9+00581+00581999999ADDGA1021+999999999GA2081+000909079GF108991999999999999999999MA1999999101121MW1041MW2451
0088036553999991958020411004+51933-001250SAO  +0138EGUA V0202501N006710015019N0036001N9+00691+00581999999ADDGA1061+001509079GA2081+006009059GF108991999999999999999999MA1999999100981MW1041MW2111
0082036553999991958020412004+51933-001250SAO  +0138EGUA V0202701N004610045019N0064001N9+00801+00581999999ADDGA1051+004509059GA2081+010509059GF108991999999999999999999MA1999999100881MW1051
0082036553999991958020413004+51933-001250SAO  +0138EGUA V0202701N005110045019N0064001N9+00801+00581999999ADDGA1051+004509059GA2081+010509059GF108991999999999999999999MA1999999100811MW1051
0082036553999991958020414004+51933-001250SAO  +0138EGUA V0202701N005110045019N0064001N9+00801+00581999999ADDGA1061+004509059GA2081+010509059GF108991999999999999999999MA1999999100711MW1051
0082036553999991958020415004+51933-001250SAO  +0138EGUA V0202701N004610045019N0064001N9+00801+00521999999ADDGA1051+004509059GA2081+012009059GF108991999999999999999999MA1999999100581MW1051
0082036553999991958020416004+51933-001250SAO  +0138EGUA V0202501N007210045019N0064001N9+00801+00581999999ADDGA1061+004509059GA2081+012009059GF108991999999999999999999MA1999999100511MW1051
0082036553999991958020417004+51933-001250SAO  +0138EGUA V0202501N005110045019N0064001N9+00741+00581999999ADDGA1061+004509059GA2081+012009059GF108991999999999999999999MA1999999100411MW1051
0098036553999991958020508004+51933-001250SAO  +0138EGUA V0202701N008710021019N0080001N9+00911+00851999999ADDGA1011+000909079GA2051+002109079GA3081+027009039GF108991999999999999999999MA1999999098981MW1051
0104036553999991958020509004+51933-001250SAO  +0138EGUA V0202701N009310021019N0096001N9+00961+00851999999ADDGA1011+000909079GA2061+002109079GA3081+027009039GF108991999999999999999999MA1999999098921MW1051MW2611
0088036553999991958020510004+51933-001250SAO  +0138EGUA V0202701N008210036019N0096001N9+01071+00851999999ADDGA1061+003609079GA2081+027009039GF108991999999999999999999MA1999999098881MW1051MW2611
0088036553999991958020511004+51933-001250SAO  +0138EGUA V0202701N008710051019N0080001N9+01021+00911999999ADDGA1061+005109059GA2081+010509059GF108991999999999999999999MA1999999098851MW1051MW2611
0104036553999991958020512004+51933-001250SAO  +0138EGUA V0203201N009310045019N0080001N9+00961+00961999999ADDGA1051+004509059GA2061+010509059GA3041+027009039GF108991999999999999999999MA1999999098851MW1051MW2611
0114036553999991958020513004+51933-001250SAO  +0138EGUA V0203201N010310105019N0240001N9+01021+00801999999ADDGA1041+004509059GA2031+010509059GA3051+027009039GA4021+220009009GF107991999999999999999999MA1999999098811MW1001
0114036553999991958020514004+51933-001250SAO  +0138EGUA V0203201N008210270019N0240001N9+00961+00581999999ADDGA1011+004509059GA2021+010509059GA3041+027009039GA4031+220009009GF107991999999999999999999MA1999999098781MW1001
0098036553999991958020515004+51933-001250SAO  +0138EGUA V0200501N003610105019N0240001N9+00801+00461999999ADDGA1041+006009059GA2031+010509059GA3051+027009039GF108991999999999999999999MA1999999098811MW1001
0082036553999991958020516004+51933-001250SAO  +0138EGUA V0203201N005110105019N0176001N9+00741+00241999999ADDGA1041+006009059GA2081+010509059GF108991999999999999999999MA1999999098881MW1001
0082036553999991958020517004+51933-001250SAO  +0138EGUA V0203401N005710090019N0160001N9+00631+00131999999ADDGA1031+006009059GA2081+009009059GF108991999999999999999999MA1999999098921MW1001
0098036553999991958020608004+51933-001250SAO  +0138EGUA V0202901N004610270019N0144001N9+00021-00041999999ADDGA1061+027009039GA2021+036009039GA3041+220009009GF107991999999999999999999MA1999999098981MW1001
0098036553999991958020609004+51933-001250SAO  +0138EGUA V0202701N003610270019N0176001N9+00021-00041999999ADDGA1061+027009039GA2021+036009039GA3031+220009009GF107991999999999999999999MA1999999098981MW1001
0098036553999991958020610004+51933-001250SAO  +0138EGUA V0202901N003110270019N0176001N9+00131-00091999999ADDGA1021+012009059GA2061+027009039GA3021+036009039GF107991999999999999999999MA1999999098981MW1001
0098036553999991958020611004+51933-001250SAO  +0138EGUA V0202901N004110270019N0200001N9+00191-00201999999ADDGA1021+012009059GA2061+027009039GA3021+036009039GF107991999999999999999999MA1999999098951MW1001
0098036553999991958020612004+51933-001250SAO  +0138EGUA V0202901N004610240019N0224001N9+00241-00151999999ADDGA1021+012009059GA2061+024009049GA3021+036009039GF107991999999999999999999MA1999999098921MW1001
0114036553999991958020613004+51933-001250SAO  +0138EGUA V0202901N002610270019N0240001N9+00191-00151999999ADDGA1011+007509089GA2011+012009059GA3061+027009049GA4031+045009039GF107991999999999999999999MA1999999098881MW1001
0098036553999991958020614004+51933-001250SAO  +0138EGUA V0202901N003610270019N0240001N9+00301-00201999999ADDGA1021+007509089GA2061+027009049GA3041+045009039GF107991999999999999999999MA1999999098811MW1001
0114036553999991958020615004+51933-001250SAO  +0138EGUA V0202901N003110270019N0200001N9+00241-00201999999ADDGA1021+007509089GA2061+027009049GA3031+045009039GA4021+220009009GF107991999999999999999999MA1999999098781MW1001
0098036553999991958020616004+51933-001250SAO  +0138EGUA V0202701N003110270019N0176001N9+00241-00201999999ADDGA1011+007509089GA2051+027009049GA3061+045009039GF107991999999999999999999MA1999999098751MW1001
0082036553999991958020617004+51933-001250SAO  +0138EGUA V0202701N002110240019N0128001N9+00131-00261999999ADDGA1061+024009039GA2041+045009039GF107991999999999999999999MA1999999098711MW1001
0088036553999991958020708004+51933-001250SAO  +0138EGUA V0201401N003610180019N0040001N9-00201-00201999999ADDGA1011+007509059GA2081+018009059GF108991999999999999999999MA1999999098541MW1051MW2111
0072036553999991958020709004+51933-001250SAO  +0138EGUA V0200901N004110180019N0040001N9-00201-00261999999ADDGA1081+018009059GF108991999999999999999999MA1999999098511MW1051MW2111
0104036553999991958020710004+51933-001250SAO  +0138EGUA V0201101N004610150019N0026001N9-00151-00261999999ADDGA1021+999999999GA2021+006009059GA3081+015009059GF108991999999999999999999MA1999999098481MW1051MW2111
0104036553999991958020711004+51933-001250SAO  +0138EGUA V0201401N004610135019N0018001N9-00151-00201999999ADDGA1021+999999999GA2021+006009059GA3081+013509059GF108991999999999999999999MA1999999098411MW1051MW2111
0104036553999991958020712004+51933-001250SAO  +0138EGUA V0201801N005710030019N0008001N9-00091-00151999999ADDGA1091+999999999GA2051+003009079GA3091+006009059GF108991999999999999999999MA1999999098341MW1051MW2711
0088036553999991958020713004+51933-001250SAO  +0138EGUA V0201601N004610030019N0008001N9-00261-00261999999ADDGA1091+999999999GA2091+003009079GF108991999999999999999999MA1999999098341MW1051MW2711
0088036553999991958020714004+51933-001250SAO  +0138EGUA V0201101N006210030019N0012001N9+00081-00041999999ADDGA1091+999999999GA2091+003009079GF108991999999999999999999MA1999999098211MW1051MW2711
0088036553999991958020715004+51933-001250SAO  +0138EGUA V0200901N005710024019N0024001N9-00041-00151999999ADDGA1091+999999999GA2091+002409079GF108991999999999999999999MA1999999098071MW1051MW2711
0072036553999991958020716004+51933-001250SAO  +0138EGUA V0200901N007710027019N0040001N9-00201-00261999999ADDGA1081+002709079GF108991999999999999999999MA1999999098001MW1051MW2711
0072036553999991958020717004+51933-001250SAO  +0138EGUA V0200901N008210021019N0036001N9-00311-00371999999ADDGA1081+002109079GF108991999999999999999999MA1999999097901MW1051MW2711
0098036553999991958021008004+51933-001250SAO  +0138EGUA V0202501N004610105019N0240001N9+00851+00741999999ADDGA1041+004509059GA2021+010509059GA3041+030009039GF107991999999999999999999MA1999999097771MW1001
0098036553999991958021009004+51933-001250SAO  +0138EGUA V0202001N004112200019N0200001N9+00851+00741999999ADDGA1011+010509059GA2011+030009039GA3081+220009009GF108991999999999999999999MA1999999097771MW1001
0114036553999991958021010004+51933-001250SAO  +0138EGUA V0201801N005710240019N0144001N9+00961+00801999999ADDGA1011+004509059GA2011+010509059GA3041+024009039GA4081+220009009GF108991999999999999999999MA1999999097801MW1001
0098036553999991958021011004+51933-001250SAO  +0138EGUA V0201801N006210240019N0096001N9+01021+00851999999ADDGA1041+005109059GA2031+024009039GA3081+220009029GF108991999999999999999999MA1999999097801MW1051
0082036553999991958021012004+51933-001250SAO  +0138EGUA V0201801N005710030019N0080001N9+01021+00851999999ADDGA1061+003009079GA2081+009009059GF108991999999999999999999MA1999999097561MW1051
0088036553999991958021013004+51933-001250SAO  +0138EGUA V0201801N007210030019N0096001N9+01021+00801999999ADDGA1071+003009079GA2081+009009059GF108991999999999999999999MA1999999097491MW1051MW2611
0088036553999991958021014004+51933-001250SAO  +0138EGUA V0201801N007210036019N0096001N9+00961+00801999999ADDGA1061+003609079GA2081+010509059GF108991999999999999999999MA1999999097321MW1051MW2611
0098036553999991958021015004+51933-001250SAO  +0138EGUA V0201801N006210036019N0176001N9+01021+00801999999ADDGA1061+003609079GA2021+010509059GA3081+030009049GF108991999999999999999999MA1999999097161MW1611
0082036553999991958021016004+51933-001250SAO  +0138EGUA V0201801N008710039019N0128001N9+01021+00801999999ADDGA1051+003909079GA2081+030009049GF108991999999999999999999MA1999999097091MW1611
0082036553999991958021017004+51933-001250SAO  +0138EGUA V0201801N009310051019N0128001N9+01021+00911999999ADDGA1061+005109059GA2081+030009049GF108991999999999999999999MA1999999097051MW1611
0082036553999991958021108004+51933-001250SAO  +0138EGUA V0201801N006710036019N0128001N9+00851+00691999999ADDGA1061+003609059GA2061+010509059GF108991999999999999999999MA1999999096851MW1001
0082036553999991958021109004+51933-001250SAO  +0138EGUA V0202001N009310072019N0128001N9+00911+00631999999ADDGA1061+007209059GA2061+010509059GF108991999999999999999999MA1999999096821MW1611
0098036553999991958021110004+51933-001250SAO  +0138EGUA V0202001N008210072019N0128001N9+00911+00631999999ADDGA1061+007209059GA2031+010509059GA3031+220009009GF108991999999999999999999MA1999999096781MW1611
0082036553999991958021111004+51933-001250SAO  +0138EGUA V0202001N008710072019N0144001N9+00961+00631999999ADDGA1061+007209059GA2041+010509059GF108991999999999999999999MA1999999096751MW1001
0082036553999991958021112004+51933-001250SAO  +0138EGUA V0202001N007710048019N0128001N9+00801+00581999999ADDGA1061+004809059GA2061+010509059GF108991999999999999999999MA1999999096781MW1611
0082036553999991958021113004+51933-001250SAO  +0138EGUA V0202501N007210048019N0128001N9+00911+00851999999ADDGA1061+004809059GA2061+010509059GF107991999999999999999999MA1999999096781MW1611
0082036553999991958021114004+51933-001250SAO  +0138EGUA V0202301N009810057019N0144001N9+00961+00851999999ADDGA1071+005709059GA2071+010509059GF108991999999999999999999MA1999999096721MW1611
0082036553999991958021115004+51933-001250SAO  +0138EGUA V0202301N010310054019N0176001N9+00911+00691999999ADDGA1071+005409059GA2081+010509059GF108991999999999999999999MA1999999096751MW1611
0082036553999991958021116004+51933-001250SAO  +0138EGUA V0202301N010310045019N0128001N9+00741+00581999999ADDGA1061+004509059GA2081+010509059GF108991999999999999999999MA1999999096851MW1611
0082036553999991958021117004+51933-001250SAO  +0138EGUA V0202301N008710045019N0128001N9+00691+00521999999ADDGA1061+004509059GA2081+010509059GF108991999999999999999999MA1999999096851MW1611
0082036553999991958021208004+51933-001250SAO  +0138EGUA V0202501N008212200019N0240001N9+00691+00351999999ADDGA1031+006009059GA2051+220009009GF107991999999999999999999MA1999999097731MW1001
0082036553999991958021209004+51933-001250SAO  +0138EGUA V0202501N004612200019N0240001N9+00691+00461999999ADDGA1021+006009059GA2071+220009009GF107991999999999999999999MA1999999097771MW1001
0082036553999991958021210004+51933-001250SAO  +0138EGUA V0202501N005112200019N0200001N9+00851+00521999999ADDGA1021+006009089GA2071+220009009GF107991999999999999999999MA1999999097831MW1001
0082036553999991958021211004+51933-001250SAO  +0138EGUA V0202301N005712200019N0200001N9+00911+00581999999ADDGA1041+006009089GA2071+220009009GF107991999999999999999999MA1999999097901MW1001
0098036553999991958021212004+51933-001250SAO  +0138EGUA V0202701N006210300019N0200001N9+00911+00581999999ADDGA1041+006009059GA2051+030009039GA3031+220009009GF107991999999999999999999MA1999999098101MW1001
0066036553999991958021213004+51933-001250SAO  +0138EGUA V0202501N005710060019N0200001N9+00851+00581999999ADDGA1081+006009059GF108991999999999999999999MA1999999098101MW1001
0082036553999991958021214004+51933-001250SAO  +0138EGUA V0202701N006210060019N0240001N9+00911+00461999999ADDGA1071+006009059GA2061+220009009GF108991999999999999999999MA1999999098141MW1001
0082036553999991958021215004+51933-001250SAO  +0138EGUA V0202901N005710060019N0240001N9+00801+00411999999ADDGA1061+006009059GA2021+220009009GF107991999999999999999999MA1999999098271MW1001
0098036553999991958021216004+51933-001250SAO  +0138EGUA V0202701N005712200019N0240001N9+00851+00301999999ADDGA1021+006009089GA2011+030009039GA3021+220009009GF102991999999999999999999MA1999999098371MW1001
0098036553999991958021217004+51933-001250SAO  +0138EGUA V0202501N002612200019N0200001N9+00741+00411999999ADDGA1011+006009089GA2011+030009039GA3021+220009009GF102991999999999999999999MA1999999098511MW1001
0066036553999991958021308004+51933-001250SAO  +0138EGUA V0201801N002110006019N0000001N9+00131+00131999999ADDGA1091+000609999GF109991999999999999999999MA1999999099461MW1451
0066036553999991958021309004+51933-001250SAO  +0138EGUA V0209991C000010006019N0000001N9+00191+00191999999ADDGA1091+000609999GF109991999999999999999999MA1999999099461MW1451
0066036553999991958021310004+51933-001250SAO  +0138EGUA V0201101N002610006019N0000001N9+00241+00241999999ADDGA1091+000609999GF109991999999999999999999MA1999999099461MW1451
0066036553999991958021311004+51933-001250SAO  +0138EGUA V0201101N003110006019N0000001N9+00351+00301999999ADDGA1091+000609999GF109991999999999999999999MA1999999099421MW1451
0066036553999991958021312004+51933-001250SAO  +0138EGUA V0201101N002110006019N0010001N9+00461+00461999999ADDGA1091+000609999GF109991999999999999999999MA1999999099531MW1451
0082036553999991958021313004+51933-001250SAO  +0138EGUA V0201401N004610030019N0048001N9+00741+00631999999ADDGA1061+003009079GA2081+015009059GF108991999999999999999999MA1999999099361MW1051
0072036553999991958021314004+51933-001250SAO  +0138EGUA V0201401N004110030019N0026001N9+00741+00631999999ADDGA1081+003009079GF108991999999999999999999MA1999999099261MW1051MW2611
0088036553999991958021315004+51933-001250SAO  +0138EGUA V0201401N003110024019N0012001N9+00741+00631999999ADDGA1091+999999999GA2091+002409079GF108991999999999999999999MA1999999099261MW1051MW2611
0088036553999991958021316004+51933-001250SAO  +0138EGUA V0201401N004110024019N0012001N9+00741+00691999999ADDGA1091+999999999GA2091+002409079GF108991999999999999999999MA1999999099191MW1051MW2611
0088036553999991958021317004+51933-001250SAO  +0138EGUA V0201401N004610024019N0012001N9+00691+00631999999ADDGA1091+999999999GA2091+002409079GF108991999999999999999999MA1999999099021MW1051MW2611
0098036553999991958021408004+51933-001250SAO  +0138EGUA V0202501N006210120019N0176001N9+01071+00851999999ADDGA1031+006009089GA2031+012009059GA3031+220009009GF107991999999999999999999MA1999999099561MW1001
0082036553999991958021409004+51933-001250SAO  +0138EGUA V0202501N006710120019N0200001N9+01071+00911999999ADDGA1041+006009059GA2021+012009059GF107991999999999999999999MA1999999099661MW1001
0082036553999991958021410004+51933-001250SAO  +0138EGUA V0202501N007710096019N0200001N9+01241+00961999999ADDGA1061+009609059GA2021+220009009GF107991999999999999999999MA1999999099761MW1001
0082036553999991958021411004+51933-001250SAO  +0138EGUA V0202501N007210096019N0200001N9+01301+00911999999ADDGA1061+009609059GA2021+220009009GF107991999999999999999999MA1999999099861MW1001
0098036553999991958021412004+51933-001250SAO  +0138EGUA V0202501N008210105019N0176001N9+01301+00911999999ADDGA1021+007509089GA2051+010509059GA3021+027009039GF107991999999999999999999MA1999999100031MW1001
0082036553999991958021413004+51933-001250SAO  +0138EGUA V0202501N007210105019N0176001N9+01301+00911999999ADDGA1031+007509089GA2061+010509059GF107991999999999999999999MA1999999100141MW1001
0098036553999991958021414004+51933-001250SAO  +0138EGUA V0202501N007710105019N0176001N9+01411+00911999999ADDGA1021+007509089GA2021+010509059GA3041+220009009GF107991999999999999999999MA1999999100241MW1001
0098036553999991958021415004+51933-001250SAO  +0138EGUA V0202501N007210105019N0176001N9+01461+00961999999ADDGA1031+007509089GA2051+010509059GA3061+220009009GF107991999999999999999999MA1999999100271MW1001
0098036553999991958021416004+51933-001250SAO  +0138EGUA V0202301N007210105019N0176001N9+01301+00961999999ADDGA1031+007509089GA2061+010509059GA3061+220009009GF107991999999999999999999MA1999999100341MW1001
0098036553999991958021417004+51933-001250SAO  +0138EGUA V0202301N007210105019N0144001N9+01301+00961999999ADDGA1031+007509089GA2061+010509059GA3041+220009009GF107991999999999999999999MA1999999100411MW1001
0098036553999991958021708004+51933-001250SAO  +0138EGUA V0200201N004610105019N0128001N9+00191+00081999999ADDGA1041+007509059GA2051+010509059GA3021+036009039GF107991999999999999999999MA1999999100241MW1001
0098036553999991958021709004+51933-001250SAO  +0138EGUA V0200201N005110105019N0144001N9+00191-00091999999ADDGA1031+005109059GA2061+010509059GA3021+220009009GF107991999999999999999999MA1999999100301MW1001
0098036553999991958021710004+51933-001250SAO  +0138EGUA V0203601N005112200019N0144001N9+00131-00041999999ADDGA1011+005109059GA2011+030009039GA3061+220009009GF107991999999999999999999MA1999999100371MW1001
0066036553999991958021711004+51933-001250SAO  +0138EGUA V0200201N007212200019N0160001N9+00241-00151999999ADDGA1051+220009009GF107991999999999999999999MA1999999100411MW1001
0066036553999991958021712004+51933-001250SAO  +0138EGUA V0203601N006212200019N0160001N9+00411-00261999999ADDGA1051+220009009GF107991999999999999999999MA1999999100411MW1001
0066036553999991958021713004+51933-001250SAO  +0138EGUA V0200201N004612200019N0144001N9+00351-00151999999ADDGA1031+220009009GF102991999999999999999999MA1999999100411MW1001
0066036553999991958021714004+51933-001250SAO  +0138EGUA V0200201N004112200019N0128001N9+00411-00151999999ADDGA1011+220009009GF102991999999999999999999MA1999999100411MW1001
0066036553999991958021715004+51933-001250SAO  +0138EGUA V0203601N005112200019N0128001N9+00411-00151999999ADDGA1001+999999999GF100991999999999999999999MA1999999100411MW1001
0066036553999991958021716004+51933-001250SAO  +0138EGUA V0200201N005112200019N0096001N9+00351-00261999999ADDGA1001+999999999GF100991999999999999999999MA1999999100411MW1051
0066036553999991958021717004+51933-001250SAO  +0138EGUA V0200201N003612200019N0096001N9+00241-00151999999ADDGA1001+999999999GF100991999999999999999999MA1999999100411MW1051
0066036553999991958021808004+51933-001250SAO  +0138EGUA V0203601N003612200019N0128001N9-00201-00481999999ADDGA1001+999999999GF100991999999999999999999MA1999999100371MW1001
0066036553999991958021809004+51933-001250SAO  +0138EGUA V0203401N005712200019N0128001N9-00151-00531999999ADDGA1001+999999999GF100991999999999999999999MA1999999100371MW1001
0066036553999991958021810004+51933-001250SAO  +0138EGUA V0203601N007712200019N0144001N9+00081-00311999999ADDGA1001+999999999GF100991999999999999999999MA1999999100371MW1001
0066036553999991958021811004+51933-001250SAO  +0138EGUA V0203601N007712200019N0144001N9+00131-00531999999ADDGA1011+007509089GF102991999999999999999999MA1999999100371MW1001
0066036553999991958021812004+51933-001250SAO  +0138EGUA V0203601N008212200019N0144001N9+00191-00261999999ADDGA1021+006009089GF102991999999999999999999MA1999999100411MW1001
0066036553999991958021813004+51933-001250SAO  +0138EGUA V0203601N007212200019N0144001N9+00301-00151999999ADDGA1021+006009089GF102991999999999999999999MA1999999100411MW1001
0066036553999991958021814004+51933-001250SAO  +0138EGUA V0203601N005110075019N0128001N9+00241-00311999999ADDGA1051+007509089GF107991999999999999999999MA1999999100411MW1001
0066036553999991958021815004+51933-001250SAO  +0138EGUA V0203401N006212200019N0096001N9+00301-00311999999ADDGA1021+009009059GF102991999999999999999999MA1999999100441MW1051
0066036553999991958021816004+51933-001250SAO  +0138EGUA V0203401N005712200019N0096001N9+00241-00311999999ADDGA1021+009009059GF102991999999999999999999MA1999999100441MW1051
0066036553999991958021817004+51933-001250SAO  +0138EGUA V0203401N005112200019N0096001N9+00131-00311999999ADDGA1011+012009059GF102991999999999999999999MA1999999100441MW1051
0098036553999991958021908004+51933-001250SAO  +0138EGUA V0202901N004110105019N0128001N9+00191+00021999999ADDGA1021+004509059GA2051+010509059GA3021+045009039GF107991999999999999999999MA1999999100341MW1001
0098036553999991958021909004+51933-001250SAO  +0138EGUA V0202901N004610120019N0144001N9+00351+00081999999ADDGA1021+004509059GA2061+012009059GA3021+036009039GF107991999999999999999999MA1999999100341MW1001
0098036553999991958021910004+51933-001250SAO  +0138EGUA V0202901N005110120019N0128001N9+00461+00131999999ADDGA1041+007209059GA2061+012009059GA3021+030009039GF108991999999999999999999MA1999999100301MW1611
0098036553999991958021911004+51933-001250SAO  +0138EGUA V0202701N004610120019N0144001N9+00461+00241999999ADDGA1041+005709059GA2061+012009059GA3021+030009039GF108991999999999999999999MA1999999100271MW1001
0082036553999991958021912004+51933-001250SAO  +0138EGUA V0202901N007210063019N0144001N9+00631+00351999999ADDGA1061+006309059GA2061+012009059GF108991999999999999999999MA1999999100201MW1001
0082036553999991958021913004+51933-001250SAO  +0138EGUA V0202901N006710060019N0144001N9+00631+00351999999ADDGA1061+006009059GA2081+012009059GF108991999999999999999999MA1999999100141MW1001
0066036553999991958021914004+51933-001250SAO  +0138EGUA V0202901N006210060019N0144001N9+00581+00351999999ADDGA1081+006009059GF108991999999999999999999MA1999999100101MW1001
0066036553999991958021915004+51933-001250SAO  +0138EGUA V0202901N005110060019N0144001N9+00581+00411999999ADDGA1081+006009059GF108991999999999999999999MA1999999100071MW1001
0066036553999991958021916004+51933-001250SAO  +0138EGUA V0202901N005110060019N0176001N9+00581+00351999999ADDGA1081+006009059GF108991999999999999999999MA1999999100031MW1001
0066036553999991958021917004+51933-001250SAO  +0138EGUA V0202901N005710060019N0200001N9+00631+00411999999ADDGA1081+006009059GF108991999999999999999999MA1999999100001MW1001
0082036553999991958022008004+51933-001250SAO  +0138EGUA V0203201N006210075019N0240001N9+00631+00461999999ADDGA1061+007509059GA2041+012009059GF107991999999999999999999MA1999999099831MW1001
0082036553999991958022009004+51933-001250SAO  +0138EGUA V0202901N004610060019N0240001N9+00691+00461999999ADDGA1061+006009059GA2051+012009059GF107991999999999999999999MA1999999099831MW1001
0082036553999991958022010004+51933-001250SAO  +0138EGUA V0202901N006210060019N0240001N9+00801+00521999999ADDGA1061+006009059GA2061+012009059GF107991999999999999999999MA1999999099801MW1001
0082036553999991958022011004+51933-001250SAO  +0138EGUA V0202901N007210060019N0240001N9+00911+00581999999ADDGA1071+006009059GA2061+012009059GF108991999999999999999999MA1999999099761MW1001
0082036553999991958022012004+51933-001250SAO  +0138EGUA V0202901N006710060019N0240001N9+00911+00581999999ADDGA1071+006009059GA2071+012009059GF108991999999999999999999MA1999999099761MW1001
0082036553999991958022013004+51933-001250SAO  +0138EGUA V0202901N007210060019N0240001N9+00851+00581999999ADDGA1061+006009059GA2061+012009059GF108991999999999999999999MA1999999099761MW1001
0066036553999991958022014004+51933-001250SAO  +0138EGUA V0202901N006710072019N0240001N9+01021+00581999999ADDGA1081+007209059GF108991999999999999999999MA1999999099701MW1001
0066036553999991958022015004+51933-001250SAO  +0138EGUA V0203201N008210072019N0176001N9+01021+00581999999ADDGA1081+007209059GF108991999999999999999999MA1999999099701MW1611
0066036553999991958022016004+51933-001250SAO  +0138EGUA V0203201N007710060019N0176001N9+00961+00631999999ADDGA1081+006009059GF108991999999999999999999MA1999999099661MW1611
0082036553999991958022017004+51933-001250SAO  +0138EGUA V0202901N007210075019N0240001N9+00961+00631999999ADDGA1061+007509059GA2061+015009059GF108991999999999999999999MA1999999099661MW1001
0098036553999991958022108004+51933-001250SAO  +0138EGUA V0202901N006712200019N0240001N9+00801+00581999999ADDGA1021+012009059GA2011+027009039GA3081+220009029GF108991999999999999999999MA1999999099561MW1001
0098036553999991958022109004+51933-001250SAO  +0138EGUA V0202701N005712200019N0240001N9+00801+00521999999ADDGA1041+012009059GA2021+027009039GA3081+220009029GF108991999999999999999999MA1999999099561MW1001
0098036553999991958022110004+51933-001250SAO  +0138EGUA V0202701N006210105019N0240001N9+00851+00521999999ADDGA1041+005709059GA2051+010509059GA3041+027009039GF108991999999999999999999MA1999999099561MW1001
0098036553999991958022111004+51933-001250SAO  +0138EGUA V0202901N005110105019N0240001N9+00911+00581999999ADDGA1031+006009059GA2061+010509059GA3051+027009039GF108991999999999999999999MA1999999099531MW1001
0098036553999991958022112004+51933-001250SAO  +0138EGUA V0202901N007710060019N0200001N9+00851+00631999999ADDGA1051+006009059GA2061+010509059GA3041+027009039GF108991999999999999999999MA1999999099531MW1611
0098036553999991958022113004+51933-001250SAO  +0138EGUA V0202901N007210060019N0240001N9+00851+00741999999ADDGA1061+006009059GA2031+010509059GA3061+027009039GF108991999999999999999999MA1999999099461MW1611
0098036553999991958022114004+51933-001250SAO  +0138EGUA V0202701N006210270019N0240001N9+00911+00631999999ADDGA1021+006009059GA2031+010509059GA3081+027009039GF108991999999999999999999MA1999999099461MW1001
0098036553999991958022115004+51933-001250SAO  +0138EGUA V0202701N007210270019N0200001N9+00851+00581999999ADDGA1021+006009059GA2021+010509059GA3081+027009039GF108991999999999999999999MA1999999099361MW1611
0098036553999991958022116004+51933-001250SAO  +0138EGUA V0202701N008210105019N0200001N9+00801+00581999999ADDGA1041+006009059GA2051+010509059GA3081+027009039GF108991999999999999999999MA1999999099291MW1611
0098036553999991958022117004+51933-001250SAO  +0138EGUA V0202701N006710105019N0200001N9+00741+00581999999ADDGA1041+006009059GA2061+010509059GA3081+027009039GF108991999999999999999999MA1999999099191MW1611
0104036553999991958022408004+51933-001250SAO  +0138EGUA V0201101N005710015019N0026001N9+00411+00301999999ADDGA1011+999999999GA2071+001509079GA3081+004509059GF108991999999999999999999MA1999999098101MW1451MW2611
0104036553999991958022409004+51933-001250SAO  +0138EGUA V0201101N007210015019N0032001N9+00411+00301999999ADDGA1011+999999999GA2071+001509079GA3081+004509059GF108991999999999999999999MA1999999097971MW1451MW2611
0088036553999991958022410004+51933-001250SAO  +0138EGUA V0201101N006710021019N0036001N9+00351+00301999999ADDGA1071+002109079GA2081+004509059GF108991999999999999999999MA1999999097931MW1111MW2611
0088036553999991958022411004+51933-001250SAO  +0138EGUA V0201101N008210021019N0036001N9+00351+00241999999ADDGA1071+002109079GA2081+004509059GF108991999999999999999999MA1999999097801MW1111MW2611
0088036553999991958022412004+51933-001250SAO  +0138EGUA V0201101N006210018019N0036001N9+00351+00241999999ADDGA1071+001809079GA2081+004509059GF108991999999999999999999MA1999999097801MW1111MW2611
0078036553999991958022413004+51933-001250SAO  +0138EGUA V0201101N004110015019N0036001N9+00351+00351999999ADDGA1081+001509079GF108991999999999999999999MA1999999097731MW1051MW2111MW3611
0094036553999991958022414004+51933-001250SAO  +0138EGUA V0200901N003110015019N0018001N9+00411+00351999999ADDGA1011+999999999GA2081+001509079GF108991999999999999999999MA1999999097661MW1051MW2111MW3611
0088036553999991958022415004+51933-001250SAO  +0138EGUA V0200901N002610015019N0018001N9+00461+00411999999ADDGA1011+999999999GA2081+001509079GF108991999999999999999999MA1999999097601MW1051MW2111
0088036553999991958022416004+51933-001250SAO  +0138EGUA V0201101N002610009019N0012001N9+00461+00461999999ADDGA1011+999999999GA2081+000909079GF108991999999999999999999MA1999999097531MW1051MW2111
0088036553999991958022417004+51933-001250SAO  +0138EGUA V0201101N001510009019N0012001N9+00521+00521999999ADDGA1011+999999999GA2081+000909079GF108991999999999999999999MA1999999097491MW1051MW2111
0088036553999991958022508004+51933-001250SAO  +0138EGUA V0200201N008710024019N0012001N9+00081+00021999999ADDGA1091+999999999GA2091+002409079GF108991999999999999999999MA1999999097631MW1051MW2711
0088036553999991958022509004+51933-001250SAO  +0138EGUA V0200201N009810024019N0012001N9-00041-00091999999ADDGA1091+999999999GA2091+002409079GF108991999999999999999999MA1999999097771MW1051MW2711
0088036553999991958022510004+51933-001250SAO  +0138EGUA V0200201N010310024019N0012001N9-00041-00151999999ADDGA1091+999999999GA2091+002409079GF108991999999999999999999MA1999999097901MW1051MW2711
0088036553999991958022511004+51933-001250SAO  +0138EGUA V0200201N010310030019N0036001N9-00041-00151999999ADDGA1061+003009079GA2081+004509059GF108991999999999999999999MA1999999098041MW1051MW2711
0088036553999991958022512004+51933-001250SAO  +0138EGUA V0200501N009810030019N0022001N9-00041-00151999999ADDGA1091+999999999GA2091+003009079GF108991999999999999999999MA1999999098141MW1051MW2711
0072036553999991958022513004+51933-001250SAO  +0138EGUA V0200201N009310030019N0036001N9-00091-00201999999ADDGA1081+003009079GF108991999999999999999999MA1999999098241MW1051MW2711
0088036553999991958022514004+51933-001250SAO  +0138EGUA V0200501N007710030019N0018001N9-00091-00201999999ADDGA1091+999999999GA2091+003009079GF108991999999999999999999MA1999999098341MW1051MW2711
0088036553999991958022515004+51933-001250SAO  +0138EGUA V0200201N009810030019N0040001N9-00091-00201999999ADDGA1061+003009079GA2081+006309059GF108991999999999999999999MA1999999098481MW1051MW2711
0104036553999991958022516004+51933-001250SAO  +0138EGUA V0200201N008710150019N0064001N9-00091-00201999999ADDGA1021+004509079GA2031+007509059GA3081+015009059GF108991999999999999999999MA1999999098611MW1051MW2711
0104036553999991958022517004+51933-001250SAO  +0138EGUA V0200201N010810150019N0048001N9-00091-00201999999ADDGA1021+003009079GA2021+006609059GA3081+015009059GF108991999999999999999999MA1999999098781MW1051MW2711
0066036553999991958022608004+51933-001250SAO  +0138EGUA V0203601N007210105019N0096001N9-00201-00261999999ADDGA1051+010509059GF107991999999999999999999MA1999999100031MW1051
0066036553999991958022609004+51933-001250SAO  +0138EGUA V0203601N006712200019N0128001N9-00091-00201999999ADDGA1011+010509059GF102991999999999999999999MA1999999100101MW1001
0066036553999991958022610004+51933-001250SAO  +0138EGUA V0203601N007712200019N0128001N9+00021-00091999999ADDGA1011+010509059GF102991999999999999999999MA1999999100201MW1001
0066036553999991958022611004+51933-001250SAO  +0138EGUA V0203601N007712200019N0128001N9+00081-00091999999ADDGA1011+007509059GF102991999999999999999999MA1999999100271MW1001
0066036553999991958022612004+51933-001250SAO  +0138EGUA V0203601N006212200019N0128001N9+00131-00151999999ADDGA1011+004509079GF102991999999999999999999MA1999999100301MW1001
0066036553999991958022613004+51933-001250SAO  +0138EGUA V0203601N008212200019N0128001N9+00191-00201999999ADDGA1021+004509079GF102991999999999999999999MA1999999100411MW1001
0066036553999991958022614004+51933-001250SAO  +0138EGUA V0203601N007212200019N0144001N9+00241-00201999999ADDGA1021+004509079GF102991999999999999999999MA1999999100411MW1001
0066036553999991958022615004+51933-001250SAO  +0138EGUA V0203601N008212200019N0144001N9+00241-00261999999ADDGA1011+004509079GF102991999999999999999999MA1999999100471MW1001
0066036553999991958022616004+51933-001250SAO  +0138EGUA V0203601N007712200019N0144001N9+00241-00311999999ADDGA1011+004509079GF102991999999999999999999MA1999999100511MW1001
0066036553999991958022617004+51933-001250SAO  +0138EGUA V0203601N006212200019N0128001N9+00131-00261999999ADDGA1001+999999999GF100991999999999999999999MA1999999100581MW1001
0066036553999991958022708004+51933-001250SAO  +0138EGUA V0203201N004610042019N0144001N9+00191+00131999999ADDGA1081+004209079GF108991999999999999999999MA1999999100641MW1001
0066036553999991958022709004+51933-001250SAO  +0138EGUA V0203201N004110042019N0144001N9+00241+00081999999ADDGA1081+004209079GF108991999999999999999999MA1999999100681MW1001
0066036553999991958022710004+51933-001250SAO  +0138EGUA V0203201N004110042019N0144001N9+00241-00151999999ADDGA1081+004209079GF108991999999999999999999MA1999999100681MW1001
0082036553999991958022711004+51933-001250SAO  +0138EGUA V0203201N003610042019N0144001N9+00411+00241999999ADDGA1061+004209079GA2021+012009059GF107991999999999999999999MA1999999100711MW1001
0082036553999991958022712004+51933-001250SAO  +0138EGUA V0203201N004610105019N0144001N9+00461+00191999999ADDGA1041+004509079GA2081+010509059GF108991999999999999999999MA1999999100711MW1001
0082036553999991958022713004+51933-001250SAO  +0138EGUA V0202901N003610105019N0144001N9+00461+00131999999ADDGA1031+004509079GA2081+010509059GF108991999999999999999999MA1999999100711MW1001
0082036553999991958022714004+51933-001250SAO  +0138EGUA V0202901N003610105019N0176001N9+00581+00191999999ADDGA1021+004509079GA2081+010509059GF108991999999999999999999MA1999999100681MW1001
0082036553999991958022715004+51933-001250SAO  +0138EGUA V0202701N003610105019N0176001N9+00691+00461999999ADDGA1021+004509079GA2081+010509059GF108991999999999999999999MA1999999100641MW1001
0098036553999991958022716004+51933-001250SAO  +0138EGUA V0202701N004610105019N0176001N9+00691+00351999999ADDGA1021+005109059GA2051+010509059GA3081+027009049GF108991999999999999999999MA1999999100641MW1001
0082036553999991958022717004+51933-001250SAO  +0138EGUA V0202701N004110105019N0176001N9+00691+00411999999ADDGA1061+010509059GA2061+027009039GF108991999999999999999999MA1999999100641MW1001
0098036553999991958022808004+51933-001250SAO  +0138EGUA V0202301N003112200019N0064001N9+00241+00131999999ADDGA1021+012009059GA2021+030009039GA3061+220009009GF107991999999999999999999MA1999999100511MW1051
0098036553999991958022809004+51933-001250SAO  +0138EGUA V0202501N004610120019N0048001N9+00521+00411999999ADDGA1061+012009059GA2021+030009039GA3061+220009009GF108991999999999999999999MA1999999100471MW1051
0098036553999991958022810004+51933-001250SAO  +0138EGUA V0202301N003610120019N0064001N9+00461+00411999999ADDGA1011+003009079GA2071+012009059GA3031+220009009GF108991999999999999999999MA1999999100471MW1051
0098036553999991958022811004+51933-001250SAO  +0138EGUA V0202501N004110120019N0144001N9+00581+00191999999ADDGA1021+004509089GA2061+012009059GA3041+220009009GF107991999999999999999999MA1999999100411MW1001
0114036553999991958022812004+51933-001250SAO  +0138EGUA V0202501N004610300019N0160001N9+00851+00411999999ADDGA1011+004509089GA2021+012009059GA3051+030009049GA4081+220009029GF108991999999999999999999MA1999999100301MW1001
0098036553999991958022813004+51933-001250SAO  +0138EGUA V0202301N004612200019N0200001N9+00911+00411999999ADDGA1021+004509089GA2021+030009049GA3071+220009029GF107991999999999999999999MA1999999100301MW1001
0098036553999991958022814004+51933-001250SAO  +0138EGUA V0202301N005112200019N0200001N9+00961+00411999999ADDGA1021+006009089GA2021+010509059GA3071+220009009GF107991999999999999999999MA1999999100201MW1001
0098036553999991958022815004+51933-001250SAO  +0138EGUA V0202001N004110105019N0240001N9+00851+00351999999ADDGA1021+006009089GA2061+010509059GA3071+220009029GF108991999999999999999999MA1999999100141MW1001
0098036553999991958022816004+51933-001250SAO  +0138EGUA V0202001N004610105019N0240001N9+00801+00461999999ADDGA1021+006009089GA2071+010509059GA3061+220009029GF108991999999999999999999MA1999999100031MW1001
0082036553999991958022817004+51933-001250SAO  +0138EGUA V0202001N003110105019N0240001N9+00741+00461999999ADDGA1021+006009089GA2081+010509059GF108991999999999999999999MA1999999100001MW1001
0088036553999991958030308004+51933-001250SAO  +0138EGUA V0209991C000012200019N0018001N9+00301+00241999999ADDGA1021+999999999GA2051+220009009GF107991999999999999999999MA1999999101251MW1051MW2111
0088036553999991958030309004+51933-001250SAO  +0138EGUA V0209991C000012200019N0018001N9+00461+00411999999ADDGA1021+999999999GA2061+220009009GF107991999999999999999999MA1999999101291MW1051MW2111
0088036553999991958030310004+51933-001250SAO  +0138EGUA V0209991C000012200019N0022001N9+00631+00521999999ADDGA1021+999999999GA2061+220009009GF107991999999999999999999MA1999999101321MW1051MW2111
0088036553999991958030311004+51933-001250SAO  +0138EGUA V0209991C000012200019N0026001N9+00851+00521999999ADDGA1011+999999999GA2061+220009009GF107991999999999999999999MA1999999101351MW1051MW2111
0066036553999991958030312004+51933-001250SAO  +0138EGUA V0202701N001512200019N0036001N9+01021+00691999999ADDGA1061+220009009GF107991999999999999999999MA1999999101321MW1051
0082036553999991958030313004+51933-001250SAO  +0138EGUA V0203601N002112200019N0036001N9+00911+00691999999ADDGA1041+012009059GA2061+220009009GF107991999999999999999999MA1999999101321MW1051
0066036553999991958030314004+51933-001250SAO  +0138EGUA V0203401N004112200019N0036001N9+01021+00801999999ADDGA1061+220009009GF107991999999999999999999MA1999999101291MW1051
0066036553999991958030315004+51933-001250SAO  +0138EGUA V0203601N004112200019N0048001N9+00851+00631999999ADDGA1051+220009009GF107991999999999999999999MA1999999101291MW1051
0066036553999991958030316004+51933-001250SAO  +0138EGUA V0203401N003612200019N0064001N9+00851+00351999999ADDGA1061+220009009GF107991999999999999999999MA1999999101251MW1051
0066036553999991958030317004+51933-001250SAO  +0138EGUA V0203201N003612200019N0064001N9+00741+00301999999ADDGA1061+220009009GF107991999999999999999999MA1999999101251MW1051
0104036553999991958030408004+51933-001250SAO  +0138EGUA V0202501N002110120019N0048001N9+00411+00301999999ADDGA1061+012009059GA2021+030009039GA3061+220009029GF108991999999999999999999MA1999999101191MW1051MW2111
0104036553999991958030409004+51933-001250SAO  +0138EGUA V0202501N002610120019N0048001N9+00521+00351999999ADDGA1051+012009059GA2041+030009039GA3051+220009009GF107991999999999999999999MA1999999101191MW1051MW2111
0098036553999991958030410004+51933-001250SAO  +0138EGUA V0202501N002110135019N0064001N9+00691+00461999999ADDGA1051+013509059GA2041+030009039GA3051+220009009GF108991999999999999999999MA1999999101221MW1051
0098036553999991958030411004+51933-001250SAO  +0138EGUA V0202701N002110150019N0096001N9+00961+00631999999ADDGA1051+015009059GA2051+030009039GA3061+220009009GF108991999999999999999999MA1999999101221MW1051
0098036553999991958030412004+51933-001250SAO  +0138EGUA V0203201N003610150019N0144001N9+01131+00801999999ADDGA1051+015009059GA2041+030009039GA3061+220009009GF108991999999999999999999MA1999999101151MW1001
0114036553999991958030413004+51933-001250SAO  +0138EGUA V0202901N003110150019N0176001N9+01241+00741999999ADDGA1011+006009089GA2061+015009059GA3041+030009039GA4061+220009009GF108991999999999999999999MA1999999101151MW1001
0098036553999991958030414004+51933-001250SAO  +0138EGUA V0202901N003612200019N0200001N9+01241+00801999999ADDGA1021+006009089GA2011+015009059GA3061+220009009GF107991999999999999999999MA1999999101151MW1001
0082036553999991958030415004+51933-001250SAO  +0138EGUA V0202901N004110105019N0200001N9+01241+00741999999ADDGA1071+010509059GA2061+220009009GF108991999999999999999999MA1999999101121MW1001
0082036553999991958030416004+51933-001250SAO  +0138EGUA V0202901N005710105019N0200001N9+01131+00521999999ADDGA1071+010509059GA2041+220009009GF108991999999999999999999MA1999999101081MW1001
0066036553999991958030417004+51933-001250SAO  +0138EGUA V0203201N004610105019N0240001N9+01021+00461999999ADDGA1081+010509059GF108991999999999999999999MA1999999101081MW1001
0098036553999991958030508004+51933-001250SAO  +0138EGUA V0202701N005110270019N0096001N9+00801+00631999999ADDGA1041+012009059GA2051+027009039GA3061+220009009GF108991999999999999999999MA1999999100411MW1051
0098036553999991958030509004+51933-001250SAO  +0138EGUA V0202501N006210270019N0128001N9+00961+00581999999ADDGA1041+012009059GA2051+027009039GA3061+220009009GF107991999999999999999999MA1999999100371MW1001
0098036553999991958030510004+51933-001250SAO  +0138EGUA V0202701N005710270019N0128001N9+01021+00691999999ADDGA1041+009009059GA2061+027009039GA3061+220009009GF108991999999999999999999MA1999999100341MW1001
0098036553999991958030511004+51933-001250SAO  +0138EGUA V0202701N007210105019N0176001N9+01071+00741999999ADDGA1041+005109059GA2061+010509059GA3041+027009039GF108991999999999999999999MA1999999100341MW1001
0098036553999991958030512004+51933-001250SAO  +0138EGUA V0202701N007710051019N0240001N9+01131+00741999999ADDGA1051+005109059GA2031+010509059GA3021+024009039GF107991999999999999999999MA1999999100271MW1001
0098036553999991958030513004+51933-001250SAO  +0138EGUA V0202901N008210051019N0240001N9+01241+00801999999ADDGA1051+005109059GA2021+010509059GA3041+220009009GF107991999999999999999999MA1999999100171MW1001
0082036553999991958030514004+51933-001250SAO  +0138EGUA V0202701N007710051019N0240001N9+01191+00801999999ADDGA1071+005109059GA2031+010509059GF108991999999999999999999MA1999999100141MW1001
0082036553999991958030515004+51933-001250SAO  +0138EGUA V0202701N007210054019N0240001N9+01191+00851999999ADDGA1061+005409059GA2041+010509059GF107991999999999999999999MA1999999100101MW1001
0082036553999991958030516004+51933-001250SAO  +0138EGUA V0202701N005110054019N0240001N9+01131+00851999999ADDGA1071+005409059GA2051+010509059GF108991999999999999999999MA1999999100071MW1001
0082036553999991958030517004+51933-001250SAO  +0138EGUA V0202701N005710105019N0240001N9+01021+00801999999ADDGA1041+005409059GA2061+010509059GF108991999999999999999999MA1999999100001MW1001
0082036553999991958030608004+51933-001250SAO  +0138EGUA V0202901N005112200019N0240001N9+00351+00131999999ADDGA1011+012009059GA2021+220009009GF102991999999999999999999MA1999999099761MW1001
0098036553999991958030609004+51933-001250SAO  +0138EGUA V0202901N008212200019N0240001N9+00461-00041999999ADDGA1021+012009059GA2021+027009039GA3021+220009009GF102991999999999999999999MA1999999099761MW1001
0098036553999991958030610004+51933-001250SAO  +0138EGUA V0203201N008210084019N0200001N9+00351+00241999999ADDGA1061+008409089GA2021+027009039GA3021+220009009GF107991999999999999999999MA1999999099761MW1851
0098036553999991958030611004+51933-001250SAO  +0138EGUA V0203201N006212200019N0200001N9+00521+00021999999ADDGA1011+004509079GA2021+010509059GA3021+027009039GF102991999999999999999999MA1999999099801MW1001
0066036553999991958030612004+51933-001250SAO  +0138EGUA V0203401N007212200019N0200001N9+00631+00131999999ADDGA1041+007509089GF102991999999999999999999MA1999999099861MW1001
0066036553999991958030613004+51933-001250SAO  +0138EGUA V0203201N007712200019N0240001N9+00741+00241999999ADDGA1041+007509089GF102991999999999999999999MA1999999099861MW1001
0082036553999991958030614004+51933-001250SAO  +0138EGUA V0203201N008210075019N0240001N9+00691-00041999999ADDGA1051+007509089GA2031+010509059GF107991999999999999999999MA1999999099861MW1001
0082036553999991958030615004+51933-001250SAO  +0138EGUA V0203201N007710105019N0240001N9+00581+00081999999ADDGA1031+006009099GA2031+010509059GF107991999999999999999999MA1999999099861MW1001
0082036553999991958030616004+51933-001250SAO  +0138EGUA V0203201N007210135019N0240001N9+00351-00091999999ADDGA1041+007509099GA2021+013509059GF107991999999999999999999MA1999999099861MW1001
0082036553999991958030617004+51933-001250SAO  +0138EGUA V0202901N006212200019N0240001N9+00351-00091999999ADDGA1021+007509099GA2031+013509059GF102991999999999999999999MA1999999099861MW1001
0082036553999991958030708004+51933-001250SAO  +0138EGUA V0203201N007712200019N0240001N9+00081-00091999999ADDGA1011+010509059GA2021+030009039GF102991999999999999999999MA1999999099421MW1001
0098036553999991958030709004+51933-001250SAO  +0138EGUA V0202901N008712200019N0240001N9+00131-00041999999ADDGA1011+010509059GA2021+030009039GA3011+220009009GF102991999999999999999999MA1999999099421MW1001
0082036553999991958030710004+51933-001250SAO  +0138EGUA V0202901N009312200019N0240001N9+00351+00191999999ADDGA1021+006009079GA2021+010509059GF102991999999999999999999MA1999999099391MW1001
0066036553999991958030711004+51933-001250SAO  +0138EGUA V0203201N007212200019N0240001N9+00411-00261999999ADDGA1041+007509089GF102991999999999999999999MA1999999099361MW1001
0082036553999991958030712004+51933-001250SAO  +0138EGUA V0203201N007710105019N0240001N9+00521+00021999999ADDGA1041+007209089GA2021+010509059GF107991999999999999999999MA1999999099321MW1001
0098036553999991958030713004+51933-001250SAO  +0138EGUA V0202901N006210105019N0240001N9+00581+00021999999ADDGA1031+007509089GA2031+010509059GA3021+220009009GF107991999999999999999999MA1999999099321MW1001
0098036553999991958030714004+51933-001250SAO  +0138EGUA V0203201N009810105019N0240001N9+00521+00131999999ADDGA1041+007509089GA2041+010509059GA3021+220009009GF107991999999999999999999MA1999999099291MW1001
0082036553999991958030715004+51933-001250SAO  +0138EGUA V0203201N008210075019N0064001N9+00131+00081999999ADDGA1061+007509089GA2081+010509059GF108991999999999999999999MA1999999099221MW1711
0094036553999991958030716004+51933-001250SAO  +0138EGUA V0202901N007710060019N0080001N9+00241+00191999999ADDGA1061+006009089GA2061+010509059GF108991999999999999999999MA1999999099261MW1051MW2611MW3711
0098036553999991958030717004+51933-001250SAO  +0138EGUA V0202901N005110105019N0176001N9+00351+00081999999ADDGA1031+006009089GA2051+010509059GA3051+030009039GF107991999999999999999999MA1999999099261MW1001
0088036553999991958031008004+51933-001250SAO  +0138EGUA V0203401N002610042019N0018001N9-00531-00651999999ADDGA1011+999999999GA2081+004209059GF108991999999999999999999MA1999999098711MW1051MW2111
0088036553999991958031009004+51933-001250SAO  +0138EGUA V0203601N002610042019N0018001N9-00311-00481999999ADDGA1011+999999999GA2081+004209059GF108991999999999999999999MA1999999098711MW1051MW2111
0066036553999991958031010004+51933-001250SAO  +0138EGUA V0200201N003610030019N0128001N9-00201-00371999999ADDGA1081+003009079GF108991999999999999999999MA1999999098751MW1001
0066036553999991958031011004+51933-001250SAO  +0138EGUA V0200501N003110042019N0128001N9-00151-00311999999ADDGA1081+004209059GF108991999999999999999999MA1999999098751MW1001
0082036553999991958031012004+51933-001250SAO  +0138EGUA V0200501N003110063019N0096001N9-00091-00311999999ADDGA1061+006309059GA2061+010509059GF108991999999999999999999MA1999999098711MW1051
0082036553999991958031013004+51933-001250SAO  +0138EGUA V0200201N002110063019N0096001N9-00091-00261999999ADDGA1061+006309059GA2081+010509059GF108991999999999999999999MA1999999098711MW1051
0082036553999991958031014004+51933-001250SAO  +0138EGUA V0200201N003110063019N0096001N9-00041-00201999999ADDGA1061+006309059GA2071+010509059GF108991999999999999999999MA1999999098711MW1051
0082036553999991958031015004+51933-001250SAO  +0138EGUA V0200201N002610063019N0128001N9-00041-00151999999ADDGA1051+006309059GA2071+010509059GF108991999999999999999999MA1999999098711MW1001
0082036553999991958031016004+51933-001250SAO  +0138EGUA V0203601N002110105019N0144001N9-00041-00201999999ADDGA1041+006309089GA2071+010509059GF108991999999999999999999MA1999999098711MW1001
0098036553999991958031017004+51933-001250SAO  +0138EGUA V0200201N001512200019N0176001N9-00041-00481999999ADDGA1021+007509089GA2021+010509059GA3041+220009009GF107991999999999999999999MA1999999098711MW1001
0072036553999991958031108004+51933-001250SAO  +0138EGUA V0203601N002612200019N0012001N9-00311-00421999999ADDGA1031+999999999GF102991999999999999999999MA1999999098951MW1051MW2111
0072036553999991958031109004+51933-001250SAO  +0138EGUA V0203401N004612200019N0012001N9-00311-00421999999ADDGA1031+999999999GF102991999999999999999999MA1999999098981MW1051MW2111
0088036553999991958031110004+51933-001250SAO  +0138EGUA V0203201N005112200019N0018001N9-00261-00421999999ADDGA1031+999999999GA2011+006009089GF102991999999999999999999MA1999999098981MW1051MW2111
0066036553999991958031111004+51933-001250SAO  +0138EGUA V0203601N005112200019N0064001N9+00131-00421999999ADDGA1021+007509089GF102991999999999999999999MA1999999099021MW1051
0066036553999991958031112004+51933-001250SAO  +0138EGUA V0203601N005112200019N0064001N9+00241-00261999999ADDGA1021+007509089GF102991999999999999999999MA1999999098981MW1051
0066036553999991958031113004+51933-001250SAO  +0138EGUA V0203601N005712200019N0064001N9+00241-00311999999ADDGA1041+007509089GF102991999999999999999999MA1999999098981MW1051
0066036553999991958031114004+51933-001250SAO  +0138EGUA V0203201N005110075019N0064001N9+00301-00151999999ADDGA1061+007509089GF107991999999999999999999MA1999999098981MW1051
0082036553999991958031115004+51933-001250SAO  +0138EGUA V0203401N005110120019N0064001N9+00301-00091999999ADDGA1041+007509089GA2031+012009059GF107991999999999999999999MA1999999098981MW1051
0098036553999991958031116004+51933-001250SAO  +0138EGUA V0203201N002110120019N0080001N9+00191-00091999999ADDGA1021+007509089GA2041+012009059GA3021+036009039GF107991999999999999999999MA1999999098981MW1051
0104036553999991958031117004+51933-001250SAO  +0138EGUA V0203601N003610120019N0080001N9+00191-00151999999ADDGA1021+007509089GA2051+012009059GA3041+036009039GF108991999999999999999999MA1999999098981MW1051MW2711
0088036553999991958031208004+51933-001250SAO  +0138EGUA V0209991C000010150019N0040001N9-00311-00421999999ADDGA1051+015009059GA2021+030009039GF107991999999999999999999MA1999999099021MW1051MW2111
0088036553999991958031209004+51933-001250SAO  +0138EGUA V0202501N002612200019N0040001N9-00041-00151999999ADDGA1021+015009059GA2041+220009009GF102991999999999999999999MA1999999098981MW1051MW2111
0098036553999991958031210004+51933-001250SAO  +0138EGUA V0202301N005112200019N0064001N9+00241-00261999999ADDGA1021+009009059GA2011+030009039GA3041+220009009GF102991999999999999999999MA1999999098921MW1051
0098036553999991958031211004+51933-001250SAO  +0138EGUA V0202501N006210180019N0128001N9+00351-00261999999ADDGA1011+006009079GA2051+018009059GA3061+220009009GF107991999999999999999999MA1999999098851MW1001
0098036553999991958031212004+51933-001250SAO  +0138EGUA V0202501N007210150019N0144001N9+00351-00151999999ADDGA1041+005409059GA2061+015009059GA3061+220009009GF108991999999999999999999MA1999999098811MW1001
0082036553999991958031213004+51933-001250SAO  +0138EGUA V0201801N006210060019N0176001N9+00301-00151999999ADDGA1051+006009059GA2081+015009059GF108991999999999999999999MA1999999098711MW1001
0082036553999991958031214004+51933-001250SAO  +0138EGUA V0201801N006710060019N0200001N9+00351-00151999999ADDGA1071+006009059GA2081+015009059GF108991999999999999999999MA1999999098651MW1001
0104036553999991958031215004+51933-001250SAO  +0138EGUA V0201801N007710060019N0080001N9+00241-00041999999ADDGA1051+006009059GA2061+012009059GA3081+027009049GF108991999999999999999999MA1999999098581MW1051MW2711
0104036553999991958031216004+51933-001250SAO  +0138EGUA V0201801N005110045019N0020001N9+00081-00091999999ADDGA1091+999999999GA2061+004509079GA3091+027009049GF108991999999999999999999MA1999999098511MW1051MW2711
0088036553999991958031217004+51933-001250SAO  +0138EGUA V0201801N005710045019N0020001N9+00081-00041999999ADDGA1091+999999999GA2091+004509079GF108991999999999999999999MA1999999098441MW1051MW2711
0082036553999991958031308004+51933-001250SAO  +0138EGUA V0202501N004112200019N0128001N9-00151-00201999999ADDGA1021+009009059GA2011+030009039GF102991999999999999999999MA1999999098341MW1001
0082036553999991958031309004+51933-001250SAO  +0138EGUA V0202501N004610240019N0144001N9+00241+00131999999ADDGA1041+010509059GA2021+024009039GF107991999999999999999999MA1999999098411MW1001
0098036553999991958031310004+51933-001250SAO  +0138EGUA V0202701N005112200019N0176001N9+00521+00191999999ADDGA1011+004509079GA2021+010509059GA3021+024009039GF102991999999999999999999MA1999999098441MW1001
0082036553999991958031311004+51933-001250SAO  +0138EGUA V0202701N007212200019N0200001N9+00741+00191999999ADDGA1031+007509089GA2021+015009059GF102991999999999999999999MA1999999098441MW1001
0082036553999991958031312004+51933-001250SAO  +0138EGUA V0202901N007710075019N0200001N9+00741+00191999999ADDGA1061+007509089GA2021+015009059GF107991999999999999999999MA1999999098511MW1001
0066036553999991958031313004+51933-001250SAO  +0138EGUA V0203201N006210075019N0240001N9+00741+00191999999ADDGA1071+007509089GF107991999999999999999999MA1999999098541MW1001
0066036553999991958031314004+51933-001250SAO  +0138EGUA V0203201N005110075019N0240001N9+00691+00191999999ADDGA1071+007509059GF107991999999999999999999MA1999999098651MW1001
0066036553999991958031315004+51933-001250SAO  +0138EGUA V0203401N006210075019N0240001N9+00691+00241999999ADDGA1061+007509059GF107991999999999999999999MA1999999098711MW1001
0066036553999991958031316004+51933-001250SAO  +0138EGUA V0203201N005112200019N0176001N9+00691+00241999999ADDGA1021+007509089GF102991999999999999999999MA1999999098781MW1001
0066036553999991958031317004+51933-001250SAO  +0138EGUA V0203401N005112200019N0144001N9+00581+00131999999ADDGA1011+007509089GF102991999999999999999999MA1999999098851MW1001
0066036553999991958031408004+51933-001250SAO  +0138EGUA V0200701N003112200019N0064001N9+00021-00091999999ADDGA1071+220009029GF107991999999999999999999MA1999999099801MW1051
0066036553999991958031409004+51933-001250SAO  +0138EGUA V0200901N004612200019N0064001N9+00131-00091999999ADDGA1071+220009029GF107991999999999999999999MA1999999099831MW1051
0082036553999991958031410004+51933-001250SAO  +0138EGUA V0200901N005712200019N0064001N9+00241-00201999999ADDGA1021+030009049GA2071+220009029GF107991999999999999999999MA1999999099861MW1051
0082036553999991958031411004+51933-001250SAO  +0138EGUA V0200901N006212200019N0096001N9+00411-00201999999ADDGA1021+009009089GA2071+220009029GF107991999999999999999999MA1999999099901MW1051
0066036553999991958031412004+51933-001250SAO  +0138EGUA V0200901N006212200019N0096001N9+00521+00131999999ADDGA1081+220009029GF108991999999999999999999MA1999999099901MW1051
0066036553999991958031413004+51933-001250SAO  +0138EGUA V0200901N005712200019N0096001N9+00461-00481999999ADDGA1061+220009029GF107991999999999999999999MA1999999099901MW1051
0066036553999991958031414004+51933-001250SAO  +0138EGUA V0200901N004612200019N0096001N9+00581-00371999999ADDGA1061+220009029GF107991999999999999999999MA1999999099901MW1051
0066036553999991958031415004+51933-001250SAO  +0138EGUA V0201101N005712200019N0096001N9+00581-00371999999ADDGA1061+220009029GF107991999999999999999999MA1999999099901MW1051
0066036553999991958031416004+51933-001250SAO  +0138EGUA V0201101N005712200019N0096001N9+00581-00421999999ADDGA1051+220009029GF107991999999999999999999MA1999999099901MW1051
0066036553999991958031417004+51933-001250SAO  +0138EGUA V0201101N005112200019N0096001N9+00521-00151999999ADDGA1041+220009019GF102991999999999999999999MA1999999099901MW1051
0082036553999991958031708004+51933-001250SAO  +0138EGUA V0200901N006212200019N0096001N9+00081-00091999999ADDGA1011+004509079GA2041+220009009GF102991999999999999999999MA1999999099461MW1051
0082036553999991958031709004+51933-001250SAO  +0138EGUA V0200901N006712200019N0096001N9+00191-00041999999ADDGA1011+004509079GA2051+220009009GF107991999999999999999999MA1999999099461MW1051
0082036553999991958031710004+51933-001250SAO  +0138EGUA V0200901N008212200019N0096001N9+00301-00091999999ADDGA1011+004509079GA2061+220009009GF107991999999999999999999MA1999999099491MW1051
0082036553999991958031711004+51933-001250SAO  +0138EGUA V0200901N007212200019N0096001N9+00461-00091999999ADDGA1021+004509079GA2061+220009009GF107991999999999999999999MA1999999099491MW1051
