0066036553999991951110101004+51933-001250SAO  +0138EGUA V0203401N008210075019N0064001N9+00691+00581101191ADDGA1081+007509059GF108991999999999999999999MA1999999099421MW1051
0066036553999991951110102004+51933-001250SAO  +0138EGUA V0203401N007710075019N0064001N9+00741+00581101191ADDGA1081+007509059GF108991999999999999999999MA1999999099421MW1051
0066036553999991951110103004+51933-001250SAO  +0138EGUA V0203401N007710075019N0064001N9+00741+00631101291ADDGA1081+007509059GF108991999999999999999999MA1999999099531MW1051
0066036553999991951110104004+51933-001250SAO  +0138EGUA V0203401N007710075019N0064001N9+00691+00581101351ADDGA1081+007509059GF108991999999999999999999MA1999999099591MW1051
0066036553999991951110105004+51933-001250SAO  +0138EGUA V0203401N005110075019N0064001N9+00691+00581101421ADDGA1081+007509059GF108991999999999999999999MA1999999099661MW1051
0066036553999991951110106004+51933-001250SAO  +0138EGUA V0203201N005110075019N0064001N9+00631+00581101491ADDGA1071+007509059GF107991999999999999999999MA1999999099731MW1051
0066036553999991951110107004+51933-001250SAO  +0138EGUA V0203401N005712200019N0064001N9+00581+00521101521ADDGA1031+007509059GF102991999999999999999999MA1999999099761MW1051
0082036553999991951110108004+51933-001250SAO  +0138EGUA V0203401N004612200019N0064001N9+00521+00521101591ADDGA1021+012009059GA2021+066009009GF102991999999999999999999MA1999999099831MW1051
0066036553999991951110109004+51933-001250SAO  +0138EGUA V0203201N005112200019N0080001N9+00631+00581101631ADDGA1021+060009009GF102991999999999999999999MA1999999099861MW1051
0066036553999991951110110004+51933-001250SAO  +0138EGUA V0203201N004612200019N0096001N9+00741+00691101661ADDGA1051+060009009GF107991999999999999999999MA1999999099901MW1051
0066036553999991951110111004+51933-001250SAO  +0138EGUA V0203201N004110600019N0112001N9+00961+00741101661ADDGA1051+060009009GF107991999999999999999999MA1999999099931MW1001
0103036553999991951110112004+51933-001250SAO  +0138EGUA V0203201N003610600019N0112001N9+01021+00631101631ADDAA124000091GA1061+060009009GF107991999999999999999999KA1999M+01131KA2999N+00521MA1999999099901MW1001
0082036553999991951110113004+51933-001250SAO  +0138EGUA V0203401N003110600019N0112001N9+01071+00581101631ADDGA1021+007509089GA2061+060009009GF107991999999999999999999MA1999999099901MW1001
0082036553999991951110114004+51933-001250SAO  +0138EGUA V0202901N004110600019N0112001N9+01071+00741101631ADDGA1041+007509089GA2021+060009009GF107991999999999999999999MA1999999099901MW1001
0082036553999991951110115004+51933-001250SAO  +0138EGUA V0202901N004610600019N0112001N9+01131+00521101591ADDGA1021+007509089GA2041+060009009GF107991999999999999999999MA1999999099861MW1001
0082036553999991951110116004+51933-001250SAO  +0138EGUA V0202701N002610600019N0112001N9+01021+00521101591ADDGA1021+007509089GA2051+060009009GF107991999999999999999999MA1999999099861MW1001
0066036553999991951110117004+51933-001250SAO  +0138EGUA V0202301N002612200019N0080001N9+00911+00521101591ADDGA1021+060009009GF102991999999999999999999MA1999999099861MW1051
0066036553999991951110118004+51933-001250SAO  +0138EGUA V0202301N002612200019N0064001N9+00851+00631101521ADDGA1021+060009009GF102991999999999999999999MA1999999099761MW1051
0066036553999991951110119004+51933-001250SAO  +0138EGUA V0202001N002112200019N0064001N9+00691+00581101521ADDGA1001+999999999GF100991999999999999999999MA1999999099761MW1051
0066036553999991951110120004+51933-001250SAO  +0138EGUA V0202001N003610090019N0064001N9+00741+00581101491ADDGA1061+009009059GF107991999999999999999999MA1999999099731MW1051
0066036553999991951110121004+51933-001250SAO  +0138EGUA V0202301N004110090019N0064001N9+00691+00521101461ADDGA1081+009009059GF108991999999999999999999MA1999999099701MW1051
0066036553999991951110122004+51933-001250SAO  +0138EGUA V0201801N002610090019N0064001N9+00741+00521101421ADDGA1081+009009059GF108991999999999999999999MA1999999099661MW1051
0066036553999991951110123004+51933-001250SAO  +0138EGUA V0201801N002110090019N0064001N9+00691+00581101321ADDGA1081+009009059GF108991999999999999999999MA1999999099591MW1051
0066036553999991951110200004+51933-001250SAO  +0138EGUA V0201801N003110090019N0064001N9+00691+00581101221ADDGA1081+009009059GF108991999999999999999999MA1999999099491MW1051
0066036553999991951110201004+51933-001250SAO  +0138EGUA V0201801N002110090019N0064001N9+00691+00581101221ADDGA1081+009009059GF108991999999999999999999MA1999999099491MW1051
0066036553999991951110202004+51933-001250SAO  +0138EGUA V0201801N001510090019N0064001N9+00741+00631101171ADDGA1081+009009059GF108991999999999999999999MA1999999099361MW1051
0066036553999991951110203004+51933-001250SAO  +0138EGUA V0201801N001510090019N0064001N9+00581+00521101171ADDGA1081+009009059GF108991999999999999999999MA1999999099361MW1051
0066036553999991951110204004+51933-001250SAO  +0138EGUA V0201801N002110090019N0064001N9+00581+00581101051ADDGA1081+009009059GF108991999999999999999999MA1999999099291MW1051
0066036553999991951110205004+51933-001250SAO  +0138EGUA V0201801N002110090019N0064001N9+00741+00741100911ADDGA1081+009009059GF108991999999999999999999MA1999999099261MW1051
0066036553999991951110206004+51933-001250SAO  +0138EGUA V0201801N002110090019N0064001N9+00801+00741100831ADDGA1081+009009059GF108991999999999999999999MA1999999099191MW1611
0066036553999991951110207004+51933-001250SAO  +0138EGUA V0201801N004610030019N0016001N9+00851+00851100751ADDGA1081+003009079GF108991999999999999999999MA1999999099151MW1451
0066036553999991951110208004+51933-001250SAO  +0138EGUA V0201801N005110030019N0016001N9+00911+00911100701ADDGA1081+003009079GF108991999999999999999999MA1999999099091MW1451
0072036553999991951110209004+51933-001250SAO  +0138EGUA V0202001N002610030019N0016001N9+01021+01021100601ADDGA1081+003009079GF108991999999999999999999MA1999999098921MW1041MW2611
0088036553999991951110210004+51933-001250SAO  +0138EGUA V0202001N004610009019N0064001N9+01071+01071100571ADDGA1061+000909079GA2021+007509059GF108991999999999999999999MA1999999098881MW1051MW2611
0082036553999991951110211004+51933-001250SAO  +0138EGUA V0202301N004610009019N0064001N9+01131+00961100571ADDGA1051+000909079GA2081+007509059GF108991999999999999999999MA1999999098881MW1051
0119036553999991951110212004+51933-001250SAO  +0138EGUA V0202701N004610036019N0096001N9+01021+00911100191ADDAA124003091GA1051+003609079GA2081+010509059GF108991999999999999999999KA1999M+01131KA2999N+00301MA1999999098511MW1051
0082036553999991951110213004+51933-001250SAO  +0138EGUA V0202501N008210036019N0096001N9+01071+00961100131ADDGA1051+003609079GA2081+010509059GF108991999999999999999999MA1999999098441MW1051
0082036553999991951110214004+51933-001250SAO  +0138EGUA V0202901N007710054019N0112001N9+01071+00741100131ADDGA1051+005409099GA2021+007509059GF107991999999999999999999MA1999999098441MW1001
0072036553999991951110215004+51933-001250SAO  +0138EGUA V0203401N012310054019N0064001N9+00741+00741100231ADDGA1081+005409099GF108991999999999999999999MA1999999098511MW1611MW2871
0066036553999991951110216004+51933-001250SAO  +0138EGUA V0203201N004610066019N0112001N9+00741+00631100261ADDGA1061+006609059GF107991999999999999999999MA1999999098541MW1001
0066036553999991951110217004+51933-001250SAO  +0138EGUA V0202901N002610066019N0112001N9+00631+00521100261ADDGA1051+006609089GF107991999999999999999999MA1999999098541MW1001
0066036553999991951110218004+51933-001250SAO  +0138EGUA V0202701N003110066019N0112001N9+00521+00411100261ADDGA1051+006609059GF107991999999999999999999MA1999999098541MW1001
0066036553999991951110219004+51933-001250SAO  +0138EGUA V0202701N003112200019N0112001N9+00461+00351100311ADDGA1021+006609059GF102991999999999999999999MA1999999098581MW1001
0066036553999991951110220004+51933-001250SAO  +0138EGUA V0202701N003112200019N0112001N9+00411+00301100311ADDGA1021+006609059GF102991999999999999999999MA1999999098581MW1001
0066036553999991951110221004+51933-001250SAO  +0138EGUA V0202701N003612200019N0112001N9+00351+00301100311ADDGA1001+999999999GF100991999999999999999999MA1999999098581MW1001
0066036553999991951110222004+51933-001250SAO  +0138EGUA V0202701N003112200019N0112001N9+00301+00241100311ADDGA1001+999999999GF100991999999999999999999MA1999999098581MW1001
0066036553999991951110223004+51933-001250SAO  +0138EGUA V0202701N003112200019N0112001N9+00301+00241100311ADDGA1001+999999999GF100991999999999999999999MA1999999098581MW1001
0066036553999991951110300004+51933-001250SAO  +0138EGUA V0202701N003112200019N0112001N9+00301+00191100271ADDGA1001+999999999GF100991999999999999999999MA1999999098541MW1001
0066036553999991951110301004+51933-001250SAO  +0138EGUA V0202701N002112200019N0080001N9+00301+00241100271ADDGA1001+999999999GF100991999999999999999999MA1999999098541MW1051
0066036553999991951110302004+51933-001250SAO  +0138EGUA V0202701N001512200019N0064001N9+00241+00191100271ADDGA1001+999999999GF100991999999999999999999MA1999999098541MW1451
0066036553999991951110303004+51933-001250SAO  +0138EGUA V0202701N002612200019N0064001N9+00191+00131100271ADDGA1001+999999999GF100991999999999999999999MA1999999098541MW1451
0066036553999991951110304004+51933-001250SAO  +0138EGUA V0202701N003112200019N0064001N9+00241+00191100311ADDGA1001+999999999GF100991999999999999999999MA1999999098581MW1451
0066036553999991951110305004+51933-001250SAO  +0138EGUA V0202501N003112200019N0064001N9+00241+00191100311ADDGA1031+060009009GF102991999999999999999999MA1999999098581MW1451
0066036553999991951110306004+51933-001250SAO  +0138EGUA V0202501N003112200019N0064001N9+00131+00131100341ADDGA1021+021009049GF102991999999999999999999MA1999999098611MW1451
0066036553999991951110307004+51933-001250SAO  +0138EGUA V0202301N002610120019N0064001N9+00081+00081100341ADDGA1061+012009059GF107991999999999999999999MA1999999098611MW1451
0066036553999991951110308004+51933-001250SAO  +0138EGUA V0202301N004610540019N0064001N9+00081+00081100341ADDGA1061+054009009GF107991999999999999999999MA1999999098611MW1451
0066036553999991951110309004+51933-001250SAO  +0138EGUA V0202001N002112200019N0064001N9+00191+00191100341ADDGA1031+054009009GF102991999999999999999999MA1999999098611MW1051
0082036553999991951110310004+51933-001250SAO  +0138EGUA V0202501N003110540019N0112001N9+00521+00411100341ADDGA1011+009009059GA2051+054009009GF107991999999999999999999MA1999999098611MW1001
0082036553999991951110311004+51933-001250SAO  +0138EGUA V0202701N006210540019N0144001N9+00741+00521100341ADDGA1021+006009059GA2031+054009009GF107991999999999999999999MA1999999098611MW1001
0119036553999991951110312004+51933-001250SAO  +0138EGUA V0202701N007212200019N0144001N9+00741+00521100441ADDAA124000091GA1021+006009089GA2021+054009009GF102991999999999999999999KA1999M+00911KA2999N+00021MA1999999098711MW1001
0066036553999991951110313004+51933-001250SAO  +0138EGUA V0202701N005712200019N0144001N9+00911+00461100441ADDGA1041+006009089GF102991999999999999999999MA1999999098711MW1001
0066036553999991951110314004+51933-001250SAO  +0138EGUA V0202701N007210075019N0144001N9+00911+00461100441ADDGA1061+007509089GF107991999999999999999999MA1999999098711MW1001
0066036553999991951110315004+51933-001250SAO  +0138EGUA V0202301N003110075019N0144001N9+00911+00461100441ADDGA1051+007509089GF107991999999999999999999MA1999999098711MW1001
0066036553999991951110316004+51933-001250SAO  +0138EGUA V0202301N004610090019N0144001N9+00801+00411100411ADDGA1051+009009089GF107991999999999999999999MA1999999098681MW1001
0066036553999991951110317004+51933-001250SAO  +0138EGUA V0202301N003110090019N0112001N9+00691+00411100371ADDGA1061+009009059GF107991999999999999999999MA1999999098651MW1001
0066036553999991951110318004+51933-001250SAO  +0138EGUA V0202001N004110090019N0112001N9+00521+00411100311ADDGA1061+009009059GF107991999999999999999999MA1999999098581MW1001
0066036553999991951110319004+51933-001250SAO  +0138EGUA V0202001N004112200019N0080001N9+00461+00301100311ADDGA1021+009009059GF102991999999999999999999MA1999999098581MW1051
0066036553999991951110320004+51933-001250SAO  +0138EGUA V0202001N003612200019N0080001N9+00351+00131100271ADDGA1001+999999999GF100991999999999999999999MA1999999098581MW1051
0066036553999991951110321004+51933-001250SAO  +0138EGUA V0202001N003112200019N0016001N9+00351+00301100241ADDGA1001+999999999GF100991999999999999999999MA1999999098511MW1451
0066036553999991951110322004+51933-001250SAO  +0138EGUA V0201801N002612200019N0016001N9+00301+00301100171ADDGA1001+999999999GF100991999999999999999999MA1999999098441MW1451
0066036553999991951110323004+51933-001250SAO  +0138EGUA V0201601N003112200019N0016001N9+00301+00301100141ADDGA1001+999999999GF100991999999999999999999MA1999999098411MW1451
0066036553999991951110400004+51933-001250SAO  +0138EGUA V0201601N002112200019N0016001N9+00241+00241099971ADDGA1001+999999999GF100991999999999999999999MA1999999098241MW1451
0066036553999991951110401004+51933-001250SAO  +0138EGUA V0201801N005112200019N0016001N9+00351+00351999999ADDGA1001+999999999GF100991999999999999999999MA1999999098211MW1451
0066036553999991951110402004+51933-001250SAO  +0138EGUA V0201801N005112200019N0016001N9+00461+00461999999ADDGA1001+999999999GF100991999999999999999999MA1999999098141MW1451
0066036553999991951110403004+51933-001250SAO  +0138EGUA V0201401N005110030019N0016001N9+00521+00521999999ADDGA1081+003009079GF108991999999999999999999MA1999999098141MW1611
0066036553999991951110404004+51933-001250SAO  +0138EGUA V0201801N006210030019N0016001N9+00581+00581999999ADDGA1081+003009079GF108991999999999999999999MA1999999098001MW1611
0066036553999991951110405004+51933-001250SAO  +0138EGUA V0201401N006210030019N0016001N9+00631+00631999999ADDGA1081+003009079GF108991999999999999999999MA1999999097831MW1611
0066036553999991951110406004+51933-001250SAO  +0138EGUA V0201801N007710030019N0016001N9+00691+00691999999ADDGA1081+003009079GF108991999999999999999999MA1999999097831MW1611
0066036553999991951110407004+51933-001250SAO  +0138EGUA V0201401N010310030019N0016001N9+00741+00741999999ADDGA1081+003009079GF108991999999999999999999MA1999999097631MW1611
0066036553999991951110408004+51933-001250SAO  +0138EGUA V0201801N008210030019N0016001N9+00801+00801999999ADDGA1081+003009079GF108991999999999999999999MA1999999097631MW1611
0066036553999991951110409004+51933-001250SAO  +0138EGUA V0201801N005110030019N0032001N9+00851+00851999999ADDGA1081+003009079GF108991999999999999999999MA1999999097631MW1611
0072036553999991951110410004+51933-001250SAO  +0138EGUA V0201401N006710015019N0032001N9+00911+00911999999ADDGA1081+001509079GF108991999999999999999999MA1999999097601MW1051MW2611
0072036553999991951110411004+51933-001250SAO  +0138EGUA V0201401N007210015019N0032001N9+01021+00911999999ADDGA1081+001509079GF108991999999999999999999MA1999999097261MW1051MW2611
0109036553999991951110412004+51933-001250SAO  +0138EGUA V0201401N008210015019N0032001N9+01021+00911999999ADDAA124004091GA1081+001509079GF108991999999999999999999KA1999M+01021KA2999N+00241MA1999999097191MW1051MW2611
0072036553999991951110413004+51933-001250SAO  +0138EGUA V0201601N008710015019N0032001N9+01021+00911999999ADDGA1081+001509079GF108991999999999999999999MA1999999097091MW1051MW2611
0072036553999991951110414004+51933-001250SAO  +0138EGUA V0201601N005110015019N0032001N9+01021+00911999999ADDGA1081+001509079GF108991999999999999999999MA1999999097051MW1051MW2611
0072036553999991951110415004+51933-001250SAO  +0138EGUA V0201601N008210015019N0032001N9+01021+00961999999ADDGA1081+001509079GF108991999999999999999999MA1999999097091MW1051MW2611
0072036553999991951110416004+51933-001250SAO  +0138EGUA V0201601N005110015019N0032001N9+01021+01021999999ADDGA1081+001509079GF108991999999999999999999MA1999999097091MW1051MW2611
0072036553999991951110417004+51933-001250SAO  +0138EGUA V0201401N009310015019N0032001N9+01021+01021999999ADDGA1081+001509079GF108991999999999999999999MA1999999097091MW1051MW2611
0072036553999991951110418004+51933-001250SAO  +0138EGUA V0201401N008210015019N0032001N9+01021+01021999999ADDGA1081+001509079GF108991999999999999999999MA1999999097221MW1051MW2611
0072036553999991951110419004+51933-001250SAO  +0138EGUA V0201601N010310015019N0032001N9+00961+00961999999ADDGA1081+001509079GF108991999999999999999999MA1999999097291MW1451MW2611
0072036553999991951110420004+51933-001250SAO  +0138EGUA V0201601N007710015019N0032001N9+01021+01021999999ADDGA1081+001509079GF108991999999999999999999MA1999999097321MW1451MW2611
0072036553999991951110421004+51933-001250SAO  +0138EGUA V0201401N008710015019N0032001N9+01021+01021999999ADDGA1081+001509079GF108991999999999999999999MA1999999097361MW1451MW2611
0072036553999991951110422004+51933-001250SAO  +0138EGUA V0201401N008710015019N0032001N9+01021+01021999999ADDGA1081+001509079GF108991999999999999999999MA1999999097391MW1451MW2611
0066036553999991951110423004+51933-001250SAO  +0138EGUA V0201401N008210009019N0016001N9+01021+01021999999ADDGA1081+000909079GF108991999999999999999999MA1999999097431MW1451
0066036553999991951110500004+51933-001250SAO  +0138EGUA V0201401N011310009019N0016001N9+01021+01021999999ADDGA1081+000909079GF108991999999999999999999MA1999999097261MW1451
0066036553999991951110501004+51933-001250SAO  +0138EGUA V0201401N009810009019N0016001N9+01021+01021999999ADDGA1081+000909079GF108991999999999999999999MA1999999097221MW1611
0066036553999991951110502004+51933-001250SAO  +0138EGUA V0201401N011810009019N0016001N9+01021+00911999999ADDGA1081+000909079GF108991999999999999999999MA1999999097221MW1611
0066036553999991951110503004+51933-001250SAO  +0138EGUA V0201401N013410009019N0016001N9+01021+00851999999ADDGA1081+000909079GF108991999999999999999999MA1999999097221MW1611
0066036553999991951110504004+51933-001250SAO  +0138EGUA V0201401N013910009019N0016001N9+00961+00851999999ADDGA1081+000909079GF108991999999999999999999MA1999999097221MW1631
0066036553999991951110505004+51933-001250SAO  +0138EGUA V0201801N007210009019N0016001N9+00961+00851999999ADDGA1081+000909079GF108991999999999999999999MA1999999097221MW1611
0066036553999991951110506004+51933-001250SAO  +0138EGUA V0201801N005110009019N0016001N9+00961+00851999999ADDGA1081+000909079GF108991999999999999999999MA1999999097221MW1611
0066036553999991951110507004+51933-001250SAO  +0138EGUA V0201801N005110009019N0016001N9+00961+00961999999ADDGA1081+000909079GF108991999999999999999999MA1999999097261MW1631
0066036553999991951110508004+51933-001250SAO  +0138EGUA V0201401N004610009019N0016001N9+00961+00961999999ADDGA1081+000909079GF108991999999999999999999MA1999999097291MW1631
0082036553999991951110509004+51933-001250SAO  +0138EGUA V0201401N006710021019N0032001N9+01021+01021099351ADDGA1061+002109079GA2021+006009049GF108991999999999999999999MA1999999097321MW1631
0082036553999991951110510004+51933-001250SAO  +0138EGUA V0201801N001510039019N0048001N9+01021+01021099391ADDGA1061+003909079GA2021+007509049GF108991999999999999999999MA1999999097701MW1631
0082036553999991951110511004+51933-001250SAO  +0138EGUA V0201401N003110042019N0048001N9+00911+00911099451ADDGA1061+004209079GA2021+007509049GF108991999999999999999999MA1999999097771MW1631
0119036553999991951110512004+51933-001250SAO  +0138EGUA V0201601N001510039019N0048001N9+00911+00911099581ADDAA124035091GA1061+003909079GA2021+007509049GF108991999999999999999999KA1999M+01131KA2999N+00801MA1999999097901MW1631
0082036553999991951110513004+51933-001250SAO  +0138EGUA V0209991C000010039019N0048001N9+00911+00911099621ADDGA1061+003909079GA2021+007509049GF108991999999999999999999MA1999999097931MW1631
0082036553999991951110514004+51933-001250SAO  +0138EGUA V0209991C000010039019N0048001N9+00911+00911099661ADDGA1061+003909079GA2081+007509049GF108991999999999999999999MA1999999097971MW1631
0082036553999991951110515004+51933-001250SAO  +0138EGUA V0201401N001510042019N0048001N9+00911+00911099661ADDGA1061+004209079GA2081+007509049GF108991999999999999999999MA1999999097971MW1631
0088036553999991951110516004+51933-001250SAO  +0138EGUA V0200901N003110036019N0024001N9+00911+00911099691ADDGA1061+003609079GA2081+007509049GF108991999999999999999999MA1999999098001MW1451MW2631
0088036553999991951110517004+51933-001250SAO  +0138EGUA V0200501N004610036019N0024001N9+00911+00911099691ADDGA1061+003609079GA2081+007509049GF108991999999999999999999MA1999999098001MW1451MW2631
0088036553999991951110518004+51933-001250SAO  +0138EGUA V0200501N005110036019N0024001N9+00851+00851099631ADDGA1061+003609079GA2081+007509049GF108991999999999999999999MA1999999097931MW1451MW2631
0072036553999991951110519004+51933-001250SAO  +0138EGUA V0200501N006210030019N0012001N9+00801+00801099631ADDGA1081+003009079GF108991999999999999999999MA1999999097931MW1451MW2631
0072036553999991951110520004+51933-001250SAO  +0138EGUA V0200201N006710030019N0012001N9+00801+00801099591ADDGA1081+003009079GF108991999999999999999999MA1999999097901MW1451MW2631
0072036553999991951110521004+51933-001250SAO  +0138EGUA V0200701N003610030019N0012001N9+00911+00911099461ADDGA1081+003009079GF108991999999999999999999MA1999999097771MW1451MW2631
0072036553999991951110522004+51933-001250SAO  +0138EGUA V0200901N004110030019N0012001N9+01021+01021099421ADDGA1081+003009079GF108991999999999999999999MA1999999097731MW1451MW2631
0072036553999991951110523004+51933-001250SAO  +0138EGUA V0201401N004110030019N0004001N9+01131+01131099321ADDGA1081+003009079GF108991999999999999999999MA1999999097631MW1451MW2631
0072036553999991951110600004+51933-001250SAO  +0138EGUA V0201401N004110030019N0004001N9+01131+01131099251ADDGA1081+003009079GF108991999999999999999999MA1999999097561MW1451MW2631
0072036553999991951110601004+51933-001250SAO  +0138EGUA V0201401N008210030019N0004001N9+01241+01241099181ADDGA1081+003009079GF108991999999999999999999MA1999999097491MW1451MW2611
0072036553999991951110602004+51933-001250SAO  +0138EGUA V0201401N007210030019N0004001N9+01241+01241099111ADDGA1081+003009079GF108991999999999999999999MA1999999097431MW1451MW2611
0072036553999991951110603004+51933-001250SAO  +0138EGUA V0201401N005110030019N0004001N9+01241+01241099081ADDGA1081+003009079GF108991999999999999999999MA1999999097391MW1451MW2611
0072036553999991951110604004+51933-001250SAO  +0138EGUA V0201601N004610030019N0004001N9+01241+01241098971ADDGA1081+003009079GF108991999999999999999999MA1999999097321MW1451MW2611
0072036553999991951110605004+51933-001250SAO  +0138EGUA V0201601N007710030019N0004001N9+01241+01241099041ADDGA1081+003009079GF108991999999999999999999MA1999999097361MW1451MW2611
0072036553999991951110606004+51933-001250SAO  +0138EGUA V0201601N003610030019N0004001N9+01241+01241099111ADDGA1081+003009079GF108991999999999999999999MA1999999097431MW1451MW2611
0082036553999991951110607004+51933-001250SAO  +0138EGUA V0201601N002110009019N0016001N9+01131+01071099181ADDGA1061+000909079GA2081+003009079GF108991999999999999999999MA1999999097491MW1051
0098036553999991951110608004+51933-001250SAO  +0138EGUA V0201801N009810105019N0080001N9+01131+00961099251ADDGA1031+001809079GA2041+010509059GA3011+021009039GF108991999999999999999999MA1999999097561MW1051
0072036553999991951110609004+51933-001250SAO  +0138EGUA V0201801N008210021019N0048001N9+01131+00961099351ADDGA1081+002109079GF108991999999999999999999MA1999999097661MW1051MW2611
0082036553999991951110610004+51933-001250SAO  +0138EGUA V0201801N004610027019N0112001N9+01131+00961099451ADDGA1051+002709079GA2021+060009009GF107991999999999999999999MA1999999097771MW1001
0066036553999991951110611004+51933-001250SAO  +0138EGUA V0201801N006210051019N0064001N9+01241+00961099451ADDGA1061+005109079GF107991999999999999999999MA1999999097771MW1051
0119036553999991951110612004+51933-001250SAO  +0138EGUA V0201801N007710075019N0112001N9+01301+01131099451ADDAA124003091GA1021+005109079GA2051+007509089GF107991999999999999999999KA1999M+01411KA2999N+00851MA1999999097771MW1001
0082036553999991951110613004+51933-001250SAO  +0138EGUA V0201801N006710075019N0112001N9+01351+01131099451ADDGA1051+007509089GA2021+060009009GF107991999999999999999999MA1999999097771MW1001
0082036553999991951110614004+51933-001250SAO  +0138EGUA V0201801N006210081019N0112001N9+01411+00961099411ADDGA1051+008109089GA2021+051009009GF107991999999999999999999MA1999999097731MW1001
0098036553999991951110615004+51933-001250SAO  +0138EGUA V0201801N007710210019N0112001N9+01351+00911099481ADDGA1021+009009059GA2041+021009039GA3011+060009009GF107991999999999999999999MA1999999097801MW1001
0066036553999991951110616004+51933-001250SAO  +0138EGUA V0201801N007210540019N0112001N9+01281+00941099581ADDGA1061+054009009GF107991999999999999999999MA1099531097901MW1001
0082036553999991951110617004+51933-001250SAO  +0138EGUA V0201801N006210210019N0112001N9+01191+01021099581ADDGA1031+004209079GA2031+021009039GF107991999999999999999999MA1999999097901MW1001
0082036553999991951110618004+51933-001250SAO  +0138EGUA V0201801N004610210019N0112001N9+01071+00961099721ADDGA1021+004209059GA2061+021009039GF107991999999999999999999MA1999999098041MW1001
0066036553999991951110619004+51933-001250SAO  +0138EGUA V0201801N002612200019N0080001N9+01021+01021099791ADDGA1031+021009039GF102991999999999999999999MA1999999098101MW1051
0072036553999991951110620004+51933-001250SAO  +0138EGUA V0201801N001512200019N0064001N9+01021+01021099821ADDGA1011+021009039GF102991999999999999999999MA1999999098141MW1051MW2111
0072036553999991951110621004+51933-001250SAO  +0138EGUA V0209991C000012200019N0064001N9+00851+00851099851ADDGA1021+021009039GF102991999999999999999999MA1999999098171MW1051MW2111
0066036553999991951110622004+51933-001250SAO  +0138EGUA V0201801N002610018019N0008001N9+00961+00961099921ADDGA1091+001809999GF109991999999999999999999MA1999999098241MW1451
0066036553999991951110623004+51933-001250SAO  +0138EGUA V0209991C000010018019N0008001N9+00961+00961099921ADDGA1091+001809999GF109991999999999999999999MA1999999098241MW1451
0066036553999991951110700004+51933-001250SAO  +0138EGUA V0209991C000010024019N0016001N9+01021+01021099821ADDGA1081+002409079GF108991999999999999999999MA1999999098141MW1451
0066036553999991951110701004+51933-001250SAO  +0138EGUA V0209991C000010024019N0016001N9+01021+01021099791ADDGA1081+002409079GF108991999999999999999999MA1999999098101MW1451
0066036553999991951110702004+51933-001250SAO  +0138EGUA V0209991C000010001519N0000001N9+01021+01021099751ADDGA1091+000159999GF109991999999999999999999MA1999999098071MW1451
0066036553999991951110703004+51933-001250SAO  +0138EGUA V0209991C000010001519N0000001N9+00961+00961099691ADDGA1091+000159999GF109991999999999999999999MA1999999098001MW1451
0066036553999991951110704004+51933-001250SAO  +0138EGUA V0209991C000010001519N0000001N9+00961+00961099621ADDGA1091+000159999GF109991999999999999999999MA1999999097931MW1451
0066036553999991951110705004+51933-001250SAO  +0138EGUA V0209991C000010001519N0000001N9+00911+00911099621ADDGA1091+000159999GF109991999999999999999999MA1999999097931MW1451
0072036553999991951110706004+51933-001250SAO  +0138EGUA V0209991C000010001519N0000001N9+00911+00911099691ADDGA1091+000159999GF109991999999999999999999MA1999999098001MW1451MW2811
0072036553999991951110707004+51933-001250SAO  +0138EGUA V0201401N002110001519N0000001N9+00911+00911099671ADDGA1091+000159999GF109991999999999999999999MA1999999097971MW1451MW2811
0072036553999991951110708004+51933-001250SAO  +0138EGUA V0200901N002610012019N0008001N9+00911+00911099651ADDGA1081+001209079GF108991999999999999999999MA1999999097971MW1451MW2611
0066036553999991951110709004+51933-001250SAO  +0138EGUA V0200901N002110012019N0016001N9+00961+00961099621ADDGA1081+001209079GF108991999999999999999999MA1999999097931MW1631
0088036553999991951110710004+51933-001250SAO  +0138EGUA V0200901N002110024019N0016001N9+01021+01021099621ADDGA1051+002409059GA2031+006009079GF108991999999999999999999MA1999999097931MW1051MW2631
0088036553999991951110711004+51933-001250SAO  +0138EGUA V0201401N002110024019N0016001N9+01071+01071099621ADDGA1051+002409059GA2031+006009079GF108991999999999999999999MA1999999097931MW1051MW2611
0119036553999991951110712004+51933-001250SAO  +0138EGUA V0201401N001510024019N0016001N9+01131+01131099481ADDAA124005091GA1051+002409059GA2031+006009079GF108991999999999999999999KA1999M+01411KA2999N+00851MA1999999097801MW1051
0082036553999991951110713004+51933-001250SAO  +0138EGUA V0201801N003610024019N0032001N9+01241+01131099481ADDGA1051+002409059GA2021+006009079GF107991999999999999999999MA1999999097801MW1051
0082036553999991951110714004+51933-001250SAO  +0138EGUA V0201801N002610030019N0064001N9+01351+01191099481ADDGA1051+003009059GA2021+018009089GF107991999999999999999999MA1999999097801MW1051
0082036553999991951110715004+51933-001250SAO  +0138EGUA V0201801N002610075019N0064001N9+01411+01071099481ADDGA1021+004509079GA2051+007509059GF107991999999999999999999MA1999999097801MW1051
0082036553999991951110716004+51933-001250SAO  +0138EGUA V0209991C000012200019N0080001N9+01351+01191099451ADDGA1021+004509079GA2021+007509059GF102991999999999999999999MA1999999097771MW1051
0066036553999991951110717004+51933-001250SAO  +0138EGUA V0209991C000012200019N0080001N9+01131+01131099411ADDGA1021+007509059GF102991999999999999999999MA1999999097731MW1051
0066036553999991951110718004+51933-001250SAO  +0138EGUA V0201401N001512200019N0080001N9+01071+00961099411ADDGA1021+021009049GF102991999999999999999999MA1999999097731MW1051
0066036553999991951110719004+51933-001250SAO  +0138EGUA V0201401N001512200019N0064001N9+00961+00911099451ADDGA1001+999999999GF100991999999999999999999MA1999999097771MW1051
0066036553999991951110720004+51933-001250SAO  +0138EGUA V0201401N002612200019N0064001N9+00851+00851099451ADDGA1041+021009049GF102991999999999999999999MA1999999097771MW1051
0066036553999991951110721004+51933-001250SAO  +0138EGUA V0201101N002610105019N0048001N9+00911+00851099411ADDGA1061+010509059GF107991999999999999999999MA1999999097731MW1451
0066036553999991951110722004+51933-001250SAO  +0138EGUA V0200901N002610069019N0048001N9+00911+00911099381ADDGA1081+006909059GF108991999999999999999999MA1999999097701MW1451
0066036553999991951110723004+51933-001250SAO  +0138EGUA V0209991C000010090019N0048001N9+00911+00911099351ADDGA1081+009009059GF108991999999999999999999MA1999999097661MW1451
0066036553999991951110800004+51933-001250SAO  +0138EGUA V0201401N001510210019N0048001N9+00911+00911099251ADDGA1081+021009049GF108991999999999999999999MA1999999097561MW1451
0066036553999991951110801004+51933-001250SAO  +0138EGUA V0209991C000010210019N0048001N9+00911+00911099181ADDGA1081+021009049GF108991999999999999999999MA1999999097491MW1451
0072036553999991951110802004+51933-001250SAO  +0138EGUA V0200901N003110150019N0016001N9+00911+00911099081ADDGA1081+015009079GF108991999999999999999999MA1999999097391MW1451MW2531
0072036553999991951110803004+51933-001250SAO  +0138EGUA V0201101N002110150019N0016001N9+00961+00961098971ADDGA1081+015009079GF108991999999999999999999MA1999999097321MW1451MW2531
0072036553999991951110804004+51933-001250SAO  +0138EGUA V0200901N003610150019N0016001N9+00911+00911098911ADDGA1081+015009079GF108991999999999999999999MA1999999097261MW1451MW2531
0072036553999991951110805004+51933-001250SAO  +0138EGUA V0200901N004110090019N0016001N9+00851+00851098871ADDGA1081+009009079GF108991999999999999999999MA1999999097221MW1451MW2631
0072036553999991951110806004+51933-001250SAO  +0138EGUA V0200701N004610090019N0016001N9+00851+00851098841ADDGA1081+009009079GF108991999999999999999999MA1999999097191MW1451MW2631
0072036553999991951110807004+51933-001250SAO  +0138EGUA V0200901N003610054019N0016001N9+00911+00911098811ADDGA1081+005409079GF108991999999999999999999MA1999999097161MW1451MW2631
0088036553999991951110808004+51933-001250SAO  +0138EGUA V0200901N004610024019N0016001N9+00961+00961098771ADDGA1061+002409079GA2081+005409079GF108991999999999999999999MA1999999097121MW1451MW2611
0088036553999991951110809004+51933-001250SAO  +0138EGUA V0200901N004610024019N0016001N9+00961+00961098741ADDGA1061+002409079GA2081+005409079GF108991999999999999999999MA1999999097091MW1451MW2611
0088036553999991951110810004+51933-001250SAO  +0138EGUA V0200901N003610024019N0016001N9+01021+01021098741ADDGA1061+002409079GA2081+006009079GF108991999999999999999999MA1999999097091MW1451MW2611
0088036553999991951110811004+51933-001250SAO  +0138EGUA V0201101N003610036019N0016001N9+01021+01021098701ADDGA1061+003609079GA2081+007509079GF108991999999999999999999MA1999999097051MW1051MW2631
0125036553999991951110812004+51933-001250SAO  +0138EGUA V0200501N004610036019N0016001N9+01021+01021098571ADDAA124015091GA1061+003609079GA2081+007509079GF108991999999999999999999KA1999M+01131KA2999N+00851MA1999999096921MW1051MW2631
0088036553999991951110813004+51933-001250SAO  +0138EGUA V0200501N005110030019N0016001N9+01071+01071098531ADDGA1061+003009079GA2081+005409079GF108991999999999999999999MA1999999096881MW1051MW2631
0088036553999991951110814004+51933-001250SAO  +0138EGUA V0200501N006710030019N0016001N9+01071+01071098431ADDGA1061+003009079GA2081+005409079GF108991999999999999999999MA1999999096781MW1051MW2631
0088036553999991951110815004+51933-001250SAO  +0138EGUA V0200501N007710030019N0016001N9+01071+01071098331ADDGA1061+003009079GA2081+005409079GF108991999999999999999999MA1999999096681MW1051MW2631
0088036553999991951110816004+51933-001250SAO  +0138EGUA V0200501N004610030019N0016001N9+01071+01071098261ADDGA1061+003009079GA2081+005409079GF108991999999999999999999MA1999999096611MW1051MW2631
0088036553999991951110817004+51933-001250SAO  +0138EGUA V0201401N003110030019N0016001N9+01071+01071098231ADDGA1061+003009079GA2081+005109079GF108991999999999999999999MA1999999096581MW1051MW2631
0072036553999991951110818004+51933-001250SAO  +0138EGUA V0201401N004110030019N0016001N9+01071+01071098201ADDGA1081+003009079GF108991999999999999999999MA1999999096551MW1051MW2631
0072036553999991951110819004+51933-001250SAO  +0138EGUA V0201401N003610030019N0016001N9+01021+01021098201ADDGA1081+003009079GF108991999999999999999999MA1999999096551MW1051MW2611
0066036553999991951110820004+51933-001250SAO  +0138EGUA V0201801N003110030019N0032001N9+01071+01071098201ADDGA1081+003009079GF108991999999999999999999MA1999999096551MW1051
0066036553999991951110821004+51933-001250SAO  +0138EGUA V0201801N003110051019N0032001N9+01071+01071098231ADDGA1081+005109079GF108991999999999999999999MA1999999096581MW1051
0066036553999991951110822004+51933-001250SAO  +0138EGUA V0201801N003610054019N0032001N9+00961+00961098231ADDGA1081+005409059GF108991999999999999999999MA1999999096581MW1051
0066036553999991951110823004+51933-001250SAO  +0138EGUA V0201801N003110057019N0032001N9+00911+00911098301ADDGA1081+005709059GF108991999999999999999999MA1999999096651MW1051
0066036553999991951110900004+51933-001250SAO  +0138EGUA V0201801N001510057019N0032001N9+00911+00911098361ADDGA1081+005709059GF108991999999999999999999MA1999999096751MW1051
0066036553999991951110901004+51933-001250SAO  +0138EGUA V0201801N001510057019N0032001N9+01071+00631098501ADDGA1081+005709059GF108991999999999999999999MA1999999096851MW1051
0066036553999991951110902004+51933-001250SAO  +0138EGUA V0201801N002110057019N0032001N9+01021+00741098501ADDGA1081+005709059GF108991999999999999999999MA1999999096851MW1051
0066036553999991951110903004+51933-001250SAO  +0138EGUA V0201801N003112200019N0064001N9+00911+00801098501ADDGA1021+007509059GF102991999999999999999999MA1999999096851MW1051
0066036553999991951110904004+51933-001250SAO  +0138EGUA V0201801N002110015019N0008001N9+00691+00691098501ADDGA1081+001509079GF108991999999999999999999MA1999999096851MW1451
0066036553999991951110905004+51933-001250SAO  +0138EGUA V0201801N002110015019N0008001N9+00631+00631098501ADDGA1081+001509079GF108991999999999999999999MA1999999096851MW1451
0066036553999991951110906004+51933-001250SAO  +0138EGUA V0201801N002110015019N0008001N9+00581+00581098601ADDGA1081+001509079GF108991999999999999999999MA1999999096951MW1451
0066036553999991951110907004+51933-001250SAO  +0138EGUA V0201801N002610015019N0008001N9+00741+00741098601ADDGA1061+001509079GF107991999999999999999999MA1999999096951MW1451
0066036553999991951110908004+51933-001250SAO  +0138EGUA V0201401N002610024019N0004001N9+00801+00801098601ADDGA1081+002409079GF108991999999999999999999MA1999999096951MW1451
0082036553999991951110909004+51933-001250SAO  +0138EGUA V0201401N004110024019N0016001N9+00851+00851098601ADDGA1051+002409079GA2081+024009049GF108991999999999999999999MA1999999096951MW1451
0066036553999991951110910004+51933-001250SAO  +0138EGUA V0201101N004610024019N0016001N9+00911+00911098641ADDGA1081+002409079GF108991999999999999999999MA1999999096991MW1451
0082036553999991951110911004+51933-001250SAO  +0138EGUA V0201401N004110024019N0032001N9+01021+00961098601ADDGA1051+002409079GA2061+024009049GF108991999999999999999999MA1999999096951MW1051
0119036553999991951110912004+51933-001250SAO  +0138EGUA V0201401N003610024019N0032001N9+01071+00961098641ADDAA124005091GA1061+002409079GA2031+010509059GF108991999999999999999999KA1999M+01241KA2999N+00521MA1999999096991MW1051
0082036553999991951110913004+51933-001250SAO  +0138EGUA V0201401N004610024019N0032001N9+01131+00961098601ADDGA1061+002409079GA2081+010509059GF108991999999999999999999MA1999999096951MW1051
0082036553999991951110914004+51933-001250SAO  +0138EGUA V0201401N005110105019N0064001N9+01191+00961098571ADDGA1051+010509059GA2081+060009009GF108991999999999999999999MA1999999096921MW1051
0088036553999991951110915004+51933-001250SAO  +0138EGUA V0201401N004610105019N0064001N9+01131+00911098571ADDGA1051+010509059GA2081+060009009GF108991999999999999999999MA1999999096921MW1051MW2801
0098036553999991951110916004+51933-001250SAO  +0138EGUA V0201101N007210540019N0064001N9+01131+00851098571ADDGA1011+003009079GA2041+010509059GA3081+054009009GF108991999999999999999999MA1999999096921MW1051
0072036553999991951110917004+51933-001250SAO  +0138EGUA V0201801N005110105019N0064001N9+01071+00961098531ADDGA1081+010509059GF108991999999999999999999MA1999999096881MW1051MW2801
0072036553999991951110918004+51933-001250SAO  +0138EGUA V0201401N006710090019N0064001N9+01071+00961098531ADDGA1081+009009059GF108991999999999999999999MA1999999096881MW1051MW2611
0072036553999991951110919004+51933-001250SAO  +0138EGUA V0201401N005110075019N0048001N9+01071+00961098531ADDGA1081+007509059GF108991999999999999999999MA1999999096881MW1051MW2611
0088036553999991951110920004+51933-001250SAO  +0138EGUA V0201401N005110060019N0048001N9+01021+01021098531ADDGA1031+003009079GA2081+006009079GF108991999999999999999999MA1999999096881MW1051MW2611
0088036553999991951110921004+51933-001250SAO  +0138EGUA V0201401N004610060019N0048001N9+00961+00961098571ADDGA1031+003009079GA2081+006009079GF108991999999999999999999MA1999999096921MW1051MW2631
0088036553999991951110922004+51933-001250SAO  +0138EGUA V0201401N002110060019N0048001N9+01021+01021098641ADDGA1041+003009079GA2081+006009079GF108991999999999999999999MA1999999096991MW1051MW2631
0088036553999991951110923004+51933-001250SAO  +0138EGUA V0201401N002110060019N0048001N9+00961+00961098671ADDGA1041+003009079GA2081+006009079GF108991999999999999999999MA1999999097021MW1051MW2631
0088036553999991951111000004+51933-001250SAO  +0138EGUA V0201401N001510060019N0048001N9+00961+00961098871ADDGA1041+003009079GA2081+006009079GF108991999999999999999999MA1999999097261MW1051MW2631
0072036553999991951111001004+51933-001250SAO  +0138EGUA V0201401N001510060019N0016001N9+00961+00961098941ADDGA1081+006009079GF108991999999999999999999MA1999999097291MW1451MW2631
0072036553999991951111002004+51933-001250SAO  +0138EGUA V0201601N002610060019N0016001N9+00961+00961099041ADDGA1081+006009079GF108991999999999999999999MA1999999097361MW1451MW2631
0066036553999991951111003004+51933-001250SAO  +0138EGUA V0201601N001510090019N0032001N9+00911+00911099081ADDGA1061+009009059GF107991999999999999999999MA1999999097391MW1111
0066036553999991951111004004+51933-001250SAO  +0138EGUA V0209991C000012200019N0032001N9+00801+00801099141ADDGA1031+009009059GF102991999999999999999999MA1999999097461MW1111
0066036553999991951111005004+51933-001250SAO  +0138EGUA V0201101N002612200019N0032001N9+00741+00741099211ADDGA1021+009009059GF102991999999999999999999MA1999999097531MW1111
0066036553999991951111006004+51933-001250SAO  +0138EGUA V0201101N001512200019N0032001N9+00741+00741099311ADDGA1001+999999999GF100991999999999999999999MA1999999097631MW1111
0066036553999991951111007004+51933-001250SAO  +0138EGUA V0200901N002112200019N0004001N9+00631+00631099311ADDGA1001+999999999GF100991999999999999999999MA1999999097631MW1111
0066036553999991951111008004+51933-001250SAO  +0138EGUA V0201101N002610006019N0002001N9+00691+00691099381ADDGA1081+000609079GF108991999999999999999999MA1999999097701MW1451
0066036553999991951111009004+51933-001250SAO  +0138EGUA V0201401N002110006019N0002001N9+00851+00851099481ADDGA1081+000609079GF108991999999999999999999MA1999999097801MW1451
0082036553999991951111010004+51933-001250SAO  +0138EGUA V0201401N004110015019N0064001N9+00961+00911099551ADDGA1061+001509079GA2011+054009009GF107991999999999999999999MA1999999097871MW1051
0082036553999991951111011004+51933-001250SAO  +0138EGUA V0201401N002612200019N0064001N9+01131+00961099581ADDGA1011+001509089GA2011+054009009GF102991999999999999999999MA1999999097901MW1051
0119036553999991951111012004+51933-001250SAO  +0138EGUA V0201401N002112200019N0080001N9+01191+00851099481ADDAA124009091GA1021+001509089GA2011+054009009GF102991999999999999999999KA1999M+01191KA2999N+00631MA1999999097831MW1051
0082036553999991951111013004+51933-001250SAO  +0138EGUA V0201401N001512200019N0064001N9+01191+00911099521ADDGA1021+002709089GA2011+060009009GF102991999999999999999999MA1999999097831MW1051
0066036553999991951111014004+51933-001250SAO  +0138EGUA V0200901N002610030019N0032001N9+01131+00911099521ADDGA1081+003009089GF108991999999999999999999MA1999999097831MW1051
0066036553999991951111015004+51933-001250SAO  +0138EGUA V0201101N001510030019N0032001N9+01071+00961099521ADDGA1081+003009089GF108991999999999999999999MA1999999097831MW1051
0066036553999991951111016004+51933-001250SAO  +0138EGUA V0200901N001510180019N0064001N9+01021+00851099521ADDGA1081+018009039GF108991999999999999999999MA1999999097831MW1051
0066036553999991951111017004+51933-001250SAO  +0138EGUA V0200501N004110150019N0064001N9+01021+00851099521ADDGA1081+015009059GF108991999999999999999999MA1999999097831MW1051
0072036553999991951111018004+51933-001250SAO  +0138EGUA V0200501N002610090019N0048001N9+01021+00911099381ADDGA1081+009009059GF108991999999999999999999MA1999999097661MW1051MW2611
0088036553999991951111019004+51933-001250SAO  +0138EGUA V0200501N006210060019N0048001N9+00961+00961099381ADDGA1031+003009079GA2051+006009079GF108991999999999999999999MA1999999097701MW1051MW2631
0088036553999991951111020004+51933-001250SAO  +0138EGUA V0200501N005110060019N0048001N9+00911+00911099311ADDGA1021+003009079GA2081+006009079GF108991999999999999999999MA1999999097631MW1051MW2631
0088036553999991951111021004+51933-001250SAO  +0138EGUA V0200501N008710060019N0048001N9+00911+00911099251ADDGA1041+003009079GA2081+006009079GF108991999999999999999999MA1999999097561MW1051MW2631
0088036553999991951111022004+51933-001250SAO  +0138EGUA V0200501N010310045019N0032001N9+00851+00851099111ADDGA1041+001809079GA2081+004509079GF108991999999999999999999MA1999999097431MW1051MW2631
0088036553999991951111023004+51933-001250SAO  +0138EGUA V0200501N005110045019N0032001N9+00911+00911098971ADDGA1041+001809079GA2081+004509079GF108991999999999999999999MA1999999097321MW1051MW2631
0088036553999991951111100004+51933-001250SAO  +0138EGUA V0200501N005110045019N0032001N9+00911+00911098911ADDGA1041+001809079GA2081+004509079GF108991999999999999999999MA1999999097261MW1051MW2631
0066036553999991951111101004+51933-001250SAO  +0138EGUA V0201101N004610030019N0016001N9+01021+01021098911ADDGA1081+003009079GF108991999999999999999999MA1999999097261MW1111
0066036553999991951111102004+51933-001250SAO  +0138EGUA V0201401N006710030019N0016001N9+01021+00911098911ADDGA1071+003009059GF107991999999999999999999MA1999999097261MW1051
0066036553999991951111103004+51933-001250SAO  +0138EGUA V0201601N003110030019N0064001N9+00851+00801098941ADDGA1071+003009059GF107991999999999999999999MA1999999097291MW1051
0066036553999991951111104004+51933-001250SAO  +0138EGUA V0201401N002610030019N0064001N9+00911+00851098971ADDGA1081+003009059GF108991999999999999999999MA1999999097321MW1051
0066036553999991951111105004+51933-001250SAO  +0138EGUA V0201601N006710030019N0064001N9+00961+00851098971ADDGA1081+003009059GF108991999999999999999999MA1999999097321MW1051
0066036553999991951111106004+51933-001250SAO  +0138EGUA V0201601N005110030019N0064001N9+00911+00801099081ADDGA1081+003009059GF108991999999999999999999MA1999999097391MW1051
0066036553999991951111107004+51933-001250SAO  +0138EGUA V0201801N002610030019N0064001N9+00851+00741099181ADDGA1081+003009059GF108991999999999999999999MA1999999097491MW1051
0066036553999991951111108004+51933-001250SAO  +0138EGUA V0202001N003610066019N0096001N9+00801+00741099251ADDGA1071+006609059GF107991999999999999999999MA1999999097561MW1051
0066036553999991951111109004+51933-001250SAO  +0138EGUA V0201801N002610075019N0096001N9+00801+00741099311ADDGA1071+007509059GF107991999999999999999999MA1999999097731MW1051
0082036553999991951111110004+51933-001250SAO  +0138EGUA V0201801N005110210019N0096001N9+00911+00741099381ADDGA1021+001209079GA2041+021009049GF107991999999999999999999MA1999999097701MW1051
0082036553999991951111111004+51933-001250SAO  +0138EGUA V0202301N005710210019N0096001N9+01021+00801099381ADDGA1041+006009089GA2021+021009049GF107991999999999999999999MA1999999097701MW1051
0103036553999991951111112004+51933-001250SAO  +0138EGUA V0202301N005110048019N0096001N9+01071+00801099351ADDAA124999929GA1061+004809089GF107991999999999999999999KA1999M+01131KA2999N+00801MA1999999097661MW1051
0066036553999991951111113004+51933-001250SAO  +0138EGUA V0202301N005110048019N0096001N9+99999+99999099351ADDGA1061+004809089GF107991999999999999999999MA1999999097661MW1051
0082036553999991951111114004+51933-001250SAO  +0138EGUA V0202301N005710600019N0128001N9+99999+99999099381ADDGA1031+005409089GA2021+060009009GF107991999999999999999999MA1999999097701MW1001
0082036553999991951111115004+51933-001250SAO  +0138EGUA V0202301N006210510019N0128001N9+01131+00911099381ADDGA1011+005409089GA2041+051009009GF107991999999999999999999MA1999999097701MW1001
0082036553999991951111116004+51933-001250SAO  +0138EGUA V0202301N006210510019N0128001N9+01131+00911099451ADDGA1011+005409089GA2041+051009009GF107991999999999999999999MA1999999097771MW1001
0066036553999991951111117004+51933-001250SAO  +0138EGUA V0201801N002610180019N0096001N9+01021+00801099481ADDGA1061+018009049GF107991999999999999999999MA1999999097801MW1051
0066036553999991951111118004+51933-001250SAO  +0138EGUA V0201601N002110180019N0096001N9+01021+00801099651ADDGA1081+018009039GF108991999999999999999999MA1999999097971MW1051
0066036553999991951111119004+51933-001250SAO  +0138EGUA V0201601N002110180019N0080001N9+00961+00691099731ADDGA1081+018009039GF108991999999999999999999MA1999999098041MW1051
0082036553999991951111120004+51933-001250SAO  +0138EGUA V0201401N001510180019N0064001N9+00911+00691099731ADDGA1061+018009039GA2021+030009039GF108991999999999999999999MA1999999098041MW1051
0066036553999991951111121004+51933-001250SAO  +0138EGUA V0201401N002110180019N0080001N9+00911+00851099721ADDGA1081+018009039GF108991999999999999999999MA1999999098041MW1051
0066036553999991951111122004+51933-001250SAO  +0138EGUA V0201101N001510105019N0032001N9+00911+00851099721ADDGA1081+010509059GF108991999999999999999999MA1999999098041MW1451
0066036553999991951111123004+51933-001250SAO  +0138EGUA V0201101N001510105019N0032001N9+00911+00911099721ADDGA1081+010509059GF108991999999999999999999MA1999999098041MW1451
0066036553999991951111200004+51933-001250SAO  +0138EGUA V0201101N002110075019N0064001N9+00911+00911099581ADDGA1061+007509059GF107991999999999999999999MA1999999097901MW1051
0066036553999991951111201004+51933-001250SAO  +0138EGUA V0201401N002110075019N0064001N9+00851+00851099581ADDGA1051+007509059GF107991999999999999999999MA1999999097901MW1051
0066036553999991951111202004+51933-001250SAO  +0138EGUA V0201401N003110075019N0064001N9+00851+00801099581ADDGA1071+007509059GF107991999999999999999999MA1999999097901MW1051
0066036553999991951111203004+51933-001250SAO  +0138EGUA V0201401N002610075019N0064001N9+00851+00801099581ADDGA1071+007509059GF107991999999999999999999MA1999999097901MW1051
0072036553999991951111204004+51933-001250SAO  +0138EGUA V0201401N002110075019N0032001N9+00851+00851099581ADDGA1081+007509079GF108991999999999999999999MA1999999097901MW1451MW2611
0072036553999991951111205004+51933-001250SAO  +0138EGUA V0201401N001510075019N0032001N9+00851+00851099581ADDGA1081+007509079GF108991999999999999999999MA1999999097901MW1451MW2611
0072036553999991951111206004+51933-001250SAO  +0138EGUA V0201401N002610075019N0032001N9+00851+00851099481ADDGA1081+007509079GF108991999999999999999999MA1999999097801MW1451MW2611
0088036553999991951111207004+51933-001250SAO  +0138EGUA V0201401N002110075019N0032001N9+00851+00851099481ADDGA1031+003009079GA2081+007509079GF108991999999999999999999MA1999999097801MW1451MW2611
0088036553999991951111208004+51933-001250SAO  +0138EGUA V0201401N002110075019N0032001N9+00911+00911099481ADDGA1041+003009079GA2081+007509079GF108991999999999999999999MA1999999097801MW1451MW2611
0088036553999991951111209004+51933-001250SAO  +0138EGUA V0201401N003110075019N0032001N9+00961+00961099481ADDGA1031+003009079GA2081+007509079GF108991999999999999999999MA1999999097801MW1451MW2611
0088036553999991951111210004+51933-001250SAO  +0138EGUA V0201401N003610090019N0032001N9+01021+01021099481ADDGA1021+003009079GA2061+009009059GF108991999999999999999999MA1999999097801MW1451MW2611
0088036553999991951111211004+51933-001250SAO  +0138EGUA V0201401N002610090019N0032001N9+01021+01021099481ADDGA1011+004209079GA2081+009009059GF108991999999999999999999MA1999999097801MW1451MW2611
0109036553999991951111212004+51933-001250SAO  +0138EGUA V0201801N003110075019N0024001N9+01021+01021099451ADDAA124009091GA1081+007509049GF108991999999999999999999KA1999M+01021KA2999N+00801MA1999999097771MW1451MW2631
0072036553999991951111213004+51933-001250SAO  +0138EGUA V0201801N002610075019N0024001N9+01021+01021099411ADDGA1081+007509049GF108991999999999999999999MA1999999097731MW1451MW2631
0072036553999991951111214004+51933-001250SAO  +0138EGUA V0201801N003610075019N0024001N9+00961+00961099411ADDGA1081+007509049GF108991999999999999999999MA1999999097731MW1451MW2631
0072036553999991951111215004+51933-001250SAO  +0138EGUA V0201801N001510075019N0064001N9+00911+00911099411ADDGA1081+007509049GF108991999999999999999999MA1999999097731MW1051MW2611
0072036553999991951111216004+51933-001250SAO  +0138EGUA V0201601N001510075019N0064001N9+01021+01021099411ADDGA1081+007509049GF108991999999999999999999MA1999999097731MW1051MW2611
0072036553999991951111217004+51933-001250SAO  +0138EGUA V0201101N001010075019N0064001N9+00961+00961099411ADDGA1081+007509079GF108991999999999999999999MA1999999097731MW1051MW2611
0072036553999991951111218004+51933-001250SAO  +0138EGUA V0203201N002610045019N0048001N9+00911+00911099581ADDGA1081+004509079GF108991999999999999999999MA1999999097901MW1451MW2511
0066036553999991951111219004+51933-001250SAO  +0138EGUA V0203201N001510045019N0016001N9+00911+00911099581ADDGA1081+004509079GF108991999999999999999999MA1999999097901MW1451
0066036553999991951111220004+51933-001250SAO  +0138EGUA V0202701N001510045019N0016001N9+00851+00851099581ADDGA1081+004509059GF108991999999999999999999MA1999999097901MW1451
0066036553999991951111221004+51933-001250SAO  +0138EGUA V0203201N003610045019N0016001N9+00801+00801099621ADDGA1081+004509059GF108991999999999999999999MA1999999097931MW1451
0066036553999991951111222004+51933-001250SAO  +0138EGUA V0203201N001010045019N0016001N9+00851+00851099621ADDGA1081+004509059GF108991999999999999999999MA1999999097931MW1451
0066036553999991951111223004+51933-001250SAO  +0138EGUA V0203201N003610045019N0016001N9+00851+00851099621ADDGA1081+004509079GF108991999999999999999999MA1999999097931MW1451
0072036553999991951111300004+51933-001250SAO  +0138EGUA V0203201N004610045019N0016001N9+00851+00851099721ADDGA1081+004509079GF108991999999999999999999MA1999999098041MW1451MW2511
0088036553999991951111301004+51933-001250SAO  +0138EGUA V0203201N006710045019N0016001N9+00851+00851099721ADDGA1041+003009079GA2081+004509079GF108991999999999999999999MA1999999098041MW1451MW2511
0088036553999991951111302004+51933-001250SAO  +0138EGUA V0203201N005110045019N0016001N9+00801+00801099721ADDGA1041+003009079GA2081+004509079GF108991999999999999999999MA1999999098041MW1451MW2511
0088036553999991951111303004+51933-001250SAO  +0138EGUA V0203201N003610045019N0016001N9+00851+00851099751ADDGA1041+003009079GA2081+004509079GF108991999999999999999999MA1999999098071MW1451MW2511
0088036553999991951111304004+51933-001250SAO  +0138EGUA V0203201N004610045019N0016001N9+00801+00801099751ADDGA1031+003009079GA2081+004509079GF108991999999999999999999MA1999999098071MW1451MW2511
0088036553999991951111305004+51933-001250SAO  +0138EGUA V0203201N005110045019N0016001N9+00801+00801099751ADDGA1041+003009079GA2081+004509079GF108991999999999999999999MA1999999098071MW1451MW2511
0088036553999991951111306004+51933-001250SAO  +0138EGUA V0203201N003110036019N0008001N9+00801+00801099791ADDGA1031+002109079GA2081+003609079GF108991999999999999999999MA1999999098101MW1451MW2511
0088036553999991951111307004+51933-001250SAO  +0138EGUA V0203201N003610036019N0008001N9+00741+00741099791ADDGA1031+002109079GA2081+003609079GF108991999999999999999999MA1999999098101MW1451MW2511
0072036553999991951111308004+51933-001250SAO  +0138EGUA V0203601N005110036019N0008001N9+00851+00851099791ADDGA1081+003609079GF108991999999999999999999MA1999999098101MW1451MW2611
0066036553999991951111309004+51933-001250SAO  +0138EGUA V0203601N005110036019N0008001N9+00851+00851099791ADDGA1081+003609079GF108991999999999999999999MA1999999098101MW1451
0066036553999991951111310004+51933-001250SAO  +0138EGUA V0203601N005110036019N0008001N9+00851+00851099791ADDGA1081+003609079GF108991999999999999999999MA1999999098101MW1451
0066036553999991951111311004+51933-001250SAO  +0138EGUA V0203601N005110036019N0008001N9+00911+00911099791ADDGA1081+003609079GF108991999999999999999999MA1999999098101MW1451
0103036553999991951111312004+51933-001250SAO  +0138EGUA V0203601N003110060019N0012001N9+00911+00911100031ADDAA124999929GA1081+006009059GF108991999999999999999999KA1999M+00911KA2999N+00631MA1999999098371MW1451
0066036553999991951111313004+51933-001250SAO  +0138EGUA V0203601N005110060019N0016001N9+00911+00911100061ADDGA1061+006009059GF107991999999999999999999MA1999999098371MW1451
0082036553999991951111314004+51933-001250SAO  +0138EGUA V0203601N004610060019N0016001N9+00911+00741100061ADDGA1061+006009059GA2021+054009009GF107991999999999999999999MA1999999098371MW1451
0082036553999991951111315004+51933-001250SAO  +0138EGUA V0203601N004610060019N0016001N9+00851+00801100091ADDGA1061+006009059GA2021+054009009GF107991999999999999999999MA1999999098411MW1451
0082036553999991951111316004+51933-001250SAO  +0138EGUA V0203601N004610060019N0016001N9+00801+00741100131ADDGA1051+006009059GA2021+054009009GF107991999999999999999999MA1999999098441MW1451
0066036553999991951111317004+51933-001250SAO  +0138EGUA V0203601N003610075019N0008001N9+00741+00741100191ADDGA1061+007509059GF107991999999999999999999MA1999999098511MW1451
0066036553999991951111318004+51933-001250SAO  +0138EGUA V0203601N004610090019N0008001N9+00741+00741100361ADDGA1061+009009059GF107991999999999999999999MA1999999098681MW1451
0082036553999991951111319004+51933-001250SAO  +0138EGUA V0203201N004610180019N0008001N9+00691+00691100441ADDGA1031+009009059GA2051+018009049GF108991999999999999999999MA1999999098711MW1451
0082036553999991951111320004+51933-001250SAO  +0138EGUA V0203201N004110180019N0008001N9+00691+00691100461ADDGA1031+009009059GA2051+018009049GF108991999999999999999999MA1999999098781MW1451
0082036553999991951111321004+51933-001250SAO  +0138EGUA V0203601N006710180019N0008001N9+00741+00741100501ADDGA1031+009009059GA2051+018009049GF108991999999999999999999MA1999999098811MW1451
0066036553999991951111322004+51933-001250SAO  +0138EGUA V0203601N005110006019N0002001N9+00631+00631100501ADDGA1091+000609999GF109991999999999999999999MA1999999098811MW1451
0066036553999991951111323004+51933-001250SAO  +0138EGUA V0203601N005110003019N0000001N9+00631+00631100531ADDGA1091+000309999GF109991999999999999999999MA1999999098851MW1451
0066036553999991951111400004+51933-001250SAO  +0138EGUA V0203401N004610003019N0000001N9+00631+00631100701ADDGA1091+000309999GF109991999999999999999999MA1999999099021MW1451
0066036553999991951111401004+51933-001250SAO  +0138EGUA V0203601N004110001519N0000001N9+00581+00581100701ADDGA1091+000159999GF109991999999999999999999MA1999999099021MW1451
0066036553999991951111402004+51933-001250SAO  +0138EGUA V0203401N006710001519N0000001N9+00631+00631100711ADDGA1091+000159999GF109991999999999999999999MA1999999099021MW1451
0066036553999991951111403004+51933-001250SAO  +0138EGUA V0203401N006710001519N0000001N9+00631+00631100711ADDGA1091+000159999GF109991999999999999999999MA1999999098981MW1451
0066036553999991951111404004+51933-001250SAO  +0138EGUA V0203401N002612200019N0008001N9+00521+00521100711ADDGA1031+000609079GF102991999999999999999999MA1999999098981MW1451
0066036553999991951111405004+51933-001250SAO  +0138EGUA V0203201N002610006019N0008001N9+00581+00581100711ADDGA1081+000609079GF108991999999999999999999MA1999999098981MW1451
0066036553999991951111406004+51933-001250SAO  +0138EGUA V0203201N002110075019N0016001N9+00631+00631101081ADDGA1081+007509059GF108991999999999999999999MA1999999099321MW1451
0066036553999991951111407004+51933-001250SAO  +0138EGUA V0203401N003610075019N0016001N9+00631+00631101081ADDGA1051+007509059GF107991999999999999999999MA1999999099321MW1451
0066036553999991951111408004+51933-001250SAO  +0138EGUA V0203201N004612200019N0064001N9+00581+00581101081ADDGA1021+007509059GF102991999999999999999999MA1999999099321MW1051
0066036553999991951111409004+51933-001250SAO  +0138EGUA V0203201N004612200019N0064001N9+00581+00581101121ADDGA1021+007509059GF102991999999999999999999MA1999999099361MW1051
0066036553999991951111410004+51933-001250SAO  +0138EGUA V0209991C000012200019N0064001N9+00691+00631101151ADDGA1001+999999999GF100991999999999999999999MA1999999099391MW1051
0066036553999991951111411004+51933-001250SAO  +0138EGUA V0203201N002112200019N0064001N9+00801+00741101151ADDGA1001+999999999GF100991999999999999999999MA1999999099391MW1051
0122036553999991951111412004+51933-001250SAO  +0138EGUA V0202701N002112200019N0112001N9+00961+00741101221ADDAA124000091GA1999+007509999GF100991999999999999999999KA1999M+01081KA2999N+00521MA1999999099531MW1001EQDQ01    003SCCGA1
0066036553999991951111413004+51933-001250SAO  +0138EGUA V0202701N002112200019N0112001N9+01071+00801101221ADDGA1021+007509089GF102991999999999999999999MA1999999099491MW1001
0066036553999991951111414004+51933-001250SAO  +0138EGUA V0202501N001512200019N0112001N9+01071+00801101221ADDGA1011+007509089GF102991999999999999999999MA1999999099491MW1001
0066036553999991951111415004+51933-001250SAO  +0138EGUA V0202501N001512200019N0112001N9+01071+00851101211ADDGA1021+027009039GF102991999999999999999999MA1999999099491MW1001
0066036553999991951111416004+51933-001250SAO  +0138EGUA V0202501N001510270019N0112001N9+01021+00801101221ADDGA1061+027009039GF107991999999999999999999MA1999999099491MW1001
0066036553999991951111417004+51933-001250SAO  +0138EGUA V0202001N002612200019N0064001N9+00741+00521101251ADDGA1031+027009049GF102991999999999999999999MA1999999099491MW1051
0066036553999991951111418004+51933-001250SAO  +0138EGUA V0202001N003112200019N0064001N9+00741+00521101251ADDGA1031+027009049GF102991999999999999999999MA1999999099491MW1051
0066036553999991951111419004+51933-001250SAO  +0138EGUA V0201801N002112200019N0064001N9+00581+00581101251ADDGA1031+027009049GF102991999999999999999999MA1999999099491MW1051
0066036553999991951111420004+51933-001250SAO  +0138EGUA V0201801N001510210019N0064001N9+00581+00581101251ADDGA1061+021009039GF107991999999999999999999MA1999999099491MW1051
0066036553999991951111421004+51933-001250SAO  +0138EGUA V0201801N001510210019N0064001N9+00581+00581101251ADDGA1061+021009039GF107991999999999999999999MA1999999099491MW1051
0066036553999991951111422004+51933-001250SAO  +0138EGUA V0201401N002110210019N0032001N9+00521+00521101251ADDGA1061+021009039GF107991999999999999999999MA1999999099491MW1451
0066036553999991951111423004+51933-001250SAO  +0138EGUA V0201401N002110210019N0032001N9+00521+00521101251ADDGA1061+021009039GF107991999999999999999999MA1999999099491MW1451
0066036553999991951111500004+51933-001250SAO  +0138EGUA V0201401N003110210019N0032001N9+00631+00631100981ADDGA1081+021009039GF108991999999999999999999MA1999999099261MW1451
0072036553999991951111501004+51933-001250SAO  +0138EGUA V0201401N003610030019N0032001N9+00801+00801100941ADDGA1081+003009079GF108991999999999999999999MA1999999099221MW1451MW2531
0072036553999991951111502004+51933-001250SAO  +0138EGUA V0201801N002610030019N0032001N9+00851+00851100901ADDGA1081+003009079GF108991999999999999999999MA1999999099191MW1451MW2611
0072036553999991951111503004+51933-001250SAO  +0138EGUA V0201801N003610030019N0032001N9+00911+00911100871ADDGA1081+003009079GF108991999999999999999999MA1999999099151MW1451MW2611
0057036553999991951111504004+51933-001250SAO  +0138EGUA V0201801N004610015019N0016001N9+00961+00961999999ADDGA1081+001509079GF108991999999999999999999MW1451MW2611
0072036553999991951111505004+51933-001250SAO  +0138EGUA V0201801N006710015019N0016001N9+01021+01021100571ADDGA1081+001509079GF108991999999999999999999MA1999999098881MW1451MW2611
0072036553999991951111506004+51933-001250SAO  +0138EGUA V0201801N004610015019N0016001N9+01071+01071100431ADDGA1081+001509079GF108991999999999999999999MA1999999098751MW1451MW2611
0072036553999991951111507004+51933-001250SAO  +0138EGUA V0201801N004610015019N0016001N9+01071+01071100431ADDGA1081+001509079GF108991999999999999999999MA1999999098751MW1451MW2611
0072036553999991951111508004+51933-001250SAO  +0138EGUA V0201801N005110015019N0064001N9+01131+01131100431ADDGA1081+001509079GF108991999999999999999999MA1999999098751MW1051MW2611
0072036553999991951111509004+51933-001250SAO  +0138EGUA V0201801N006210015019N0064001N9+01191+01131100431ADDGA1081+001509059GF108991999999999999999999MA1999999098751MW1051MW2611
0072036553999991951111510004+51933-001250SAO  +0138EGUA V0202001N006210015019N0064001N9+01241+01131100431ADDGA1081+001509059GF108991999999999999999999MA1999999098751MW1051MW2611
0082036553999991951111511004+51933-001250SAO  +0138EGUA V0202001N006710021019N0096001N9+01241+01131100431ADDGA1061+002109059GA2061+024009039GF107991999999999999999999MA1999999098751MW1051
0119036553999991951111512004+51933-001250SAO  +0138EGUA V0202301N006710027019N0096001N9+01301+01131100331ADDAA124002091GA1061+002709079GA2021+003609059GF107991999999999999999999KA1999M+01351KA2999N+00631MA1999999098681MW1051
0082036553999991951111513004+51933-001250SAO  +0138EGUA V0202301N007210027019N0096001N9+01351+01021100331ADDGA1051+002709079GA2061+003609089GF107991999999999999999999MA1999999098651MW1051
0066036553999991951111514004+51933-001250SAO  +0138EGUA V0202301N006212200019N0112001N9+01301+00911100361ADDGA1041+003609089GF102991999999999999999999MA1999999098681MW1001
0082036553999991951111515004+51933-001250SAO  +0138EGUA V0202301N006712200019N0112001N9+01301+00911100361ADDGA1021+007509089GA2011+009009059GF102991999999999999999999MA1999999098681MW1001
0082036553999991951111516004+51933-001250SAO  +0138EGUA V0202301N005712200019N0112001N9+01191+00851100361ADDGA1021+007509059GA2021+066009009GF102991999999999999999999MA1999999098681MW1001
0066036553999991951111517004+51933-001250SAO  +0138EGUA V0202301N004110075019N0112001N9+01131+00851100361ADDGA1061+007509059GF107991999999999999999999MA1999999098681MW1001
0066036553999991951111518004+51933-001250SAO  +0138EGUA V0202301N004610075019N0112001N9+01021+00801100361ADDGA1061+007509059GF107991999999999999999999MA1999999098681MW1001
0066036553999991951111519004+51933-001250SAO  +0138EGUA V0202301N004612200019N0112001N9+00911+00741100361ADDGA1031+007509059GF102991999999999999999999MA1999999098681MW1001
0066036553999991951111520004+51933-001250SAO  +0138EGUA V0201801N005712200019N0112001N9+00801+00691100361ADDGA1031+007509059GF102991999999999999999999MA1999999098681MW1001
0066036553999991951111521004+51933-001250SAO  +0138EGUA V0201801N004112200019N0112001N9+00741+00631100401ADDGA1031+007509059GF102991999999999999999999MA1999999098711MW1001
0066036553999991951111522004+51933-001250SAO  +0138EGUA V0201801N003112200019N0112001N9+00801+00691100401ADDGA1001+999999999GF100991999999999999999999MA1999999098711MW1001
0066036553999991951111523004+51933-001250SAO  +0138EGUA V0201801N003112200019N0112001N9+00801+00741100401ADDGA1001+999999999GF100991999999999999999999MA1999999098711MW1001
0066036553999991951111600004+51933-001250SAO  +0138EGUA V0201801N004112200019N0112001N9+00801+00741100801ADDGA1021+018009039GF102991999999999999999999MA1999999099122MW1001
0082036553999991951111601004+51933-001250SAO  +0138EGUA V0201401N002612200019N0064001N9+00741+00741100841ADDGA1051+000609079GA2021+018009039GF107991999999999999999999MA1999999099121MW1051
0066036553999991951111602004+51933-001250SAO  +0138EGUA V0202001N002112200019N0064001N9+00741+00741100841ADDGA1041+054009009GF102991999999999999999999MA1999999099121MW1051
0066036553999991951111603004+51933-001250SAO  +0138EGUA V0201801N002610180019N0064001N9+00801+00801100771ADDGA1071+018009039GF107991999999999999999999MA1999999099051MW1051
0066036553999991951111604004+51933-001250SAO  +0138EGUA V0201801N004610051019N0064001N9+00801+00801100631ADDGA1071+005109059GF107991999999999999999999MA1999999098951MW1051
0082036553999991951111605004+51933-001250SAO  +0138EGUA V0201801N002610051019N0080001N9+00801+00801100601ADDGA1061+005109059GA2021+018009049GF108991999999999999999999MA1999999098921MW1051
0082036553999991951111606004+51933-001250SAO  +0138EGUA V0201801N002110180019N0080001N9+00851+00851100501ADDGA1031+006009059GA2051+018009049GF108991999999999999999999MA1999999098851MW1051
0082036553999991951111607004+51933-001250SAO  +0138EGUA V0201801N002610180019N0080001N9+00851+00851100531ADDGA1031+006009059GA2051+018009049GF108991999999999999999999MA1999999098851MW1051
0082036553999991951111608004+51933-001250SAO  +0138EGUA V0201801N003610075019N0080001N9+00961+00961100461ADDGA1061+007509079GA2081+009009059GF108991999999999999999999MA1999999098781MW1051
0082036553999991951111609004+51933-001250SAO  +0138EGUA V0201801N002610090019N0080001N9+01021+00911100431ADDGA1061+009009059GA2071+048009039GF107991999999999999999999MA1999999098751MW1051
0082036553999991951111610004+51933-001250SAO  +0138EGUA V0202001N006210090019N0080001N9+01131+00911100401ADDGA1051+009009059GA2071+066009009GF107991999999999999999999MA1999999098711MW1051
0082036553999991951111611004+51933-001250SAO  +0138EGUA V0202001N004610075019N0096001N9+01191+00961100361ADDGA1061+007509059GA2071+066009009GF107991999999999999999999MA1999999098681MW1051
0109036553999991951111612004+51933-001250SAO  +0138EGUA V0202001N006710030019N0080001N9+01191+00961100261ADDAA124999929GA1081+003009059GF108991999999999999999999KA1999M+01241KA2999N+00741MA1999999098611MW1051MW2611
0072036553999991951111613004+51933-001250SAO  +0138EGUA V0202001N006210030019N0080001N9+01191+01021100191ADDGA1081+003009059GF108991999999999999999999MA1999999098511MW1051MW2611
0066036553999991951111614004+51933-001250SAO  +0138EGUA V0202001N006710030019N0080001N9+01241+00961100131ADDGA1081+003009059GF108991999999999999999999MA1999999098441MW1051
0082036553999991951111615004+51933-001250SAO  +0138EGUA V0202001N006210030019N0080001N9+01241+00961100131ADDGA1061+003009059GA2011+060009029GF107991999999999999999999MA1999999098441MW1051
0066036553999991951111616004+51933-001250SAO  +0138EGUA V0202001N006710030019N0080001N9+01191+00961100031ADDGA1081+003009059GF108991999999999999999999MA1999999098341MW1051
0072036553999991951111617004+51933-001250SAO  +0138EGUA V0201801N006710030019N0080001N9+01131+00911100031ADDGA1061+003009059GF107991999999999999999999MA1999999098341MW1051MW2611
0072036553999991951111618004+51933-001250SAO  +0138EGUA V0201801N007210030019N0080001N9+01071+00961100061ADDGA1061+003009059GF107991999999999999999999MA1999999098371MW1051MW2611
0066036553999991951111619004+51933-001250SAO  +0138EGUA V0201801N006212200019N0112001N9+01071+01021100091ADDGA1021+004509059GF102991999999999999999999MA1999999098411MW1001
0066036553999991951111620004+51933-001250SAO  +0138EGUA V0201801N006212200019N0080001N9+01071+00961100091ADDGA1031+004509059GF102991999999999999999999MA1999999098411MW1611
0066036553999991951111621004+51933-001250SAO  +0138EGUA V0201801N005712200019N0080001N9+01071+00961100061ADDGA1021+004509059GF102991999999999999999999MA1999999098371MW1051
0066036553999991951111622004+51933-001250SAO  +0138EGUA V0201801N005710045019N0080001N9+01071+00961100031ADDGA1061+004509059GF107991999999999999999999MA1999999098341MW1051
0066036553999991951111623004+51933-001250SAO  +0138EGUA V0201801N006210045019N0080001N9+01021+00911100031ADDGA1051+004509059GF107991999999999999999999MA1999999098341MW1051
0066036553999991951111700004+51933-001250SAO  +0138EGUA V0201801N005710045019N0080001N9+01021+00911099921ADDGA1061+004509059GF107991999999999999999999MA1999999098241MW1051
0066036553999991951111701004+51933-001250SAO  +0138EGUA V0201801N005110045019N0080001N9+01021+00911099961ADDGA1061+004509059GF107991999999999999999999MA1999999098271MW1051
0066036553999991951111702004+51933-001250SAO  +0138EGUA V0201801N002610045019N0080001N9+00961+00851099961ADDGA1061+004509059GF107991999999999999999999MA1999999098271MW1051
0066036553999991951111703004+51933-001250SAO  +0138EGUA V0201801N003612200019N0080001N9+00961+00801099961ADDGA1021+007509059GF102991999999999999999999MA1999999098271MW1051
0066036553999991951111704004+51933-001250SAO  +0138EGUA V0201801N004110090019N0080001N9+01021+00851099891ADDGA1061+009009059GF107991999999999999999999MA1999999098211MW1051
0066036553999991951111705004+51933-001250SAO  +0138EGUA V0201801N004110090019N0080001N9+01021+00851099891ADDGA1061+009009059GF107991999999999999999999MA1999999098211MW1051
0066036553999991951111706004+51933-001250SAO  +0138EGUA V0201801N004612200019N0080001N9+00961+00691099691ADDGA1021+009009059GF102991999999999999999999MA1999999098001MW1051
0066036553999991951111707004+51933-001250SAO  +0138EGUA V0201801N003610039019N0112001N9+00961+00801099691ADDGA1061+003909059GF107991999999999999999999MA1999999098001MW1001
0082036553999991951111708004+51933-001250SAO  +0138EGUA V0202001N004610090019N0096001N9+00961+00851099691ADDGA1011+004509079GA2051+009009059GF107991999999999999999999MA1999999098001MW1051
0098036553999991951111709004+51933-001250SAO  +0138EGUA V0202001N005110075019N0112001N9+01021+00911099691ADDGA1011+003009079GA2051+007509059GA3021+027009049GF107991999999999999999999MA1999999098001MW1001
0098036553999991951111710004+51933-001250SAO  +0138EGUA V0202001N004612200019N0128001N9+01021+00851099621ADDGA1011+003009079GA2021+009009059GA3021+021009049GF102991999999999999999999MA1999999097931MW1001
0082036553999991951111711004+51933-001250SAO  +0138EGUA V0202001N006710075019N0096001N9+01071+00961099621ADDGA1021+003009079GA2061+007509059GF107991999999999999999999MA1999999097931MW1811
0119036553999991951111712004+51933-001250SAO  +0138EGUA V0202001N003610075019N0064001N9+01021+00961099481ADDAA124008091GA1031+003009079GA2061+007509059GF107991999999999999999999KA1999M+01131KA2999N+00911MA1999999097801MW1811
0098036553999991951111713004+51933-001250SAO  +0138EGUA V0202001N006712200019N0128001N9+01131+00911099481ADDGA1021+003009079GA2021+024009049GA3031+060009029GF102991999999999999999999MA1999999097801MW1001
0098036553999991951111714004+51933-001250SAO  +0138EGUA V0202001N002612200019N0128001N9+01131+00911099411ADDGA1021+003009079GA2021+024009049GA3031+060009029GF102991999999999999999999MA1999999097731MW1001
0082036553999991951111715004+51933-001250SAO  +0138EGUA V0202001N004612200019N0128001N9+01021+00851099411ADDGA1021+003009079GA2021+007509059GF102991999999999999999999MA1999999097731MW1001
0088036553999991951111716004+51933-001250SAO  +0138EGUA V0202001N005110075019N0096001N9+01021+00911099351ADDGA1031+003009079GA2061+007509059GF107991999999999999999999MA1999999097661MW1051MW2631
0088036553999991951111717004+51933-001250SAO  +0138EGUA V0202001N004110030019N0080001N9+00911+00741099351ADDGA1061+003009079GA2081+007509059GF108991999999999999999999MA1999999097661MW1051MW2631
0066036553999991951111718004+51933-001250SAO  +0138EGUA V0202001N002612200019N0080001N9+00911+00741099321ADDGA1021+004509059GF102991999999999999999999MA1999999097661MW1051
0072036553999991951111719004+51933-001250SAO  +0138EGUA V0202001N003610090019N0080001N9+00911+00691099311ADDGA1071+009009059GF107991999999999999999999MA1999999097631MW1051MW2611
0066036553999991951111720004+51933-001250SAO  +0138EGUA V0201801N003610090019N0080001N9+00911+00691099281ADDGA1071+009009059GF107991999999999999999999MA1999999097601MW1051
0066036553999991951111721004+51933-001250SAO  +0138EGUA V0201401N003110090019N0080001N9+00911+00801099251ADDGA1051+009009059GF107991999999999999999999MA1999999097561MW1051
0066036553999991951111722004+51933-001250SAO  +0138EGUA V0201601N004112200019N0080001N9+00911+00851099181ADDGA1021+009009059GF102991999999999999999999MA1999999097491MW1051
0066036553999991951111723004+51933-001250SAO  +0138EGUA V0201401N003110090019N0080001N9+00911+00851099141ADDGA1061+009009059GF107991999999999999999999MA1999999097491MW1051
0066036553999991951111800004+51933-001250SAO  +0138EGUA V0201601N006210090019N0080001N9+01021+00911099041ADDGA1061+009009059GF107991999999999999999999MA1999999097361MW1051
0066036553999991951111801004+51933-001250SAO  +0138EGUA V0201801N007210090019N0080001N9+01021+00911098911ADDGA1061+009009059GF107991999999999999999999MA1999999097261MW1051
0066036553999991951111802004+51933-001250SAO  +0138EGUA V0201801N006210075019N0080001N9+01071+00911098771ADDGA1081+007509059GF108991999999999999999999MA1999999097121MW1051
0066036553999991951111803004+51933-001250SAO  +0138EGUA V0201801N009310075019N0080001N9+01131+00911098671ADDGA1081+007509059GF108991999999999999999999MA1999999097021MW1051
0066036553999991951111804004+51933-001250SAO  +0138EGUA V0202301N009310075019N0080001N9+01021+00961098641ADDGA1081+007509059GF108991999999999999999999MA1999999096991MW1051
0066036553999991951111805004+51933-001250SAO  +0138EGUA V0201801N006210075019N0080001N9+01021+01021098531ADDGA1081+007509059GF108991999999999999999999MA1999999096881MW1051
0066036553999991951111806004+51933-001250SAO  +0138EGUA V0201801N006210075019N0080001N9+01021+01021098471ADDGA1081+007509059GF108991999999999999999999MA1999999096821MW1051
0072036553999991951111807004+51933-001250SAO  +0138EGUA V0201801N009310075019N0064001N9+01021+01021098421ADDGA1081+007509059GF108991999999999999999999MA1999999096781MW1051MW2611
0072036553999991951111808004+51933-001250SAO  +0138EGUA V0201801N010310075019N0064001N9+01021+00961098431ADDGA1081+007509059GF108991999999999999999999MA1999999096781MW1051MW2611
0088036553999991951111809004+51933-001250SAO  +0138EGUA V0201801N006710024019N0016001N9+00911+00911098431ADDGA1061+002409079GA2081+006009059GF108991999999999999999999MA1999999096781MW1051MW2631
0088036553999991951111810004+51933-001250SAO  +0138EGUA V0202001N002610024019N0016001N9+00911+00911098471ADDGA1061+002409079GA2081+006009059GF108991999999999999999999MA1999999096821MW1051MW2631
0072036553999991951111811004+51933-001250SAO  +0138EGUA V0201801N001510024019N0016001N9+00911+00911098431ADDGA1081+002409079GF108991999999999999999999MA1999999096781MW1051MW2631
0125036553999991951111812004+51933-001250SAO  +0138EGUA V0201401N001510180019N0032001N9+00961+00961098261ADDAA124015091GA1031+007509059GA2081+018009049GF108991999999999999999999KA1999M+01131KA2999N+00691MA1999999096611MW1051MW2611
0082036553999991951111813004+51933-001250SAO  +0138EGUA V0201801N002610180019N0032001N9+00961+00961098201ADDGA1031+007509059GA2081+018009049GF108991999999999999999999MA1999999096551MW1051
0088036553999991951111814004+51933-001250SAO  +0138EGUA V0201801N001510180019N0048001N9+00961+00961098201ADDGA1031+007509059GA2081+018009049GF108991999999999999999999MA1999999096551MW1051MW2611
0082036553999991951111815004+51933-001250SAO  +0138EGUA V0201801N001510180019N0080001N9+00961+00961098201ADDGA1021+007509059GA2081+018009049GF108991999999999999999999MA1999999096551MW1051
0082036553999991951111816004+51933-001250SAO  +0138EGUA V0201801N002610180019N0080001N9+00961+00911098201ADDGA1041+007509059GA2061+018009049GF107991999999999999999999MA1999999096551MW1051
0082036553999991951111817004+51933-001250SAO  +0138EGUA V0201801N001510105019N0080001N9+00911+00911098561ADDGA1061+010509059GA2081+021009049GF108991999999999999999999MA1999999096611MW1051
0066036553999991951111818004+51933-001250SAO  +0138EGUA V0202001N003110105019N0080001N9+00911+00801098331ADDGA1081+010509059GF108991999999999999999999MA1999999096681MW1051
0072036553999991951111819004+51933-001250SAO  +0138EGUA V0202001N002610090019N0080001N9+00851+00741098361ADDGA1081+009009059GF108991999999999999999999MA1999999096721MW1051MW2611
0066036553999991951111820004+51933-001250SAO  +0138EGUA V0202001N004610090019N0080001N9+00801+00691098431ADDGA1081+009009059GF108991999999999999999999MA1999999096781MW1051
0066036553999991951111821004+51933-001250SAO  +0138EGUA V0202001N005110090019N0080001N9+00741+00631098471ADDGA1051+009009059GF107991999999999999999999MA1999999096821MW1051
0066036553999991951111822004+51933-001250SAO  +0138EGUA V0201801N003110090019N0080001N9+00741+00631098501ADDGA1051+009009059GF107991999999999999999999MA1999999096851MW1051
0066036553999991951111823004+51933-001250SAO  +0138EGUA V0202001N004112200019N0080001N9+00691+00631098521ADDGA1011+009009059GF102991999999999999999999MA1999999096851MW1051
0066036553999991951111900004+51933-001250SAO  +0138EGUA V0201801N002110090019N0080001N9+00741+00631098531ADDGA1061+009009059GF107991999999999999999999MA1999999096881MW1051
0066036553999991951111901004+51933-001250SAO  +0138EGUA V0201801N002110090019N0080001N9+00741+00741098571ADDGA1051+009009059GF107991999999999999999999MA1999999096921MW1051
0066036553999991951111902004+51933-001250SAO  +0138EGUA V0201801N003110090019N0080001N9+00741+00691098571ADDGA1051+009009059GF107991999999999999999999MA1999999096921MW1051
0066036553999991951111903004+51933-001250SAO  +0138EGUA V0201801N002110090019N0080001N9+00741+00691098661ADDGA1051+009009059GF107991999999999999999999MA1999999096951MW1051
0066036553999991951111904004+51933-001250SAO  +0138EGUA V0201401N003610090019N0080001N9+00741+00691098601ADDGA1051+009009059GF107991999999999999999999MA1999999096951MW1051
0066036553999991951111905004+51933-001250SAO  +0138EGUA V0201801N002610090019N0080001N9+00741+00741098601ADDGA1061+009009059GF107991999999999999999999MA1999999096951MW1051
0066036553999991951111906004+51933-001250SAO  +0138EGUA V0201801N004610090019N0080001N9+00851+00851098571ADDGA1051+009009059GF107991999999999999999999MA1999999096921MW1051
0066036553999991951111907004+51933-001250SAO  +0138EGUA V0201801N003110075019N0080001N9+00851+00801098671ADDGA1061+007509059GF107991999999999999999999MA1999999097021MW1051
0082036553999991951111908004+51933-001250SAO  +0138EGUA V0201801N003110075019N0080001N9+00851+00801098841ADDGA1061+007509059GA2031+018009049GF108991999999999999999999MA1999999097191MW1051
0082036553999991951111909004+51933-001250SAO  +0138EGUA V0202001N002610075019N0080001N9+00851+00741098921ADDGA1051+007509079GA2041+060009009GF107991999999999999999999MA1999999097261MW1051
0098036553999991951111910004+51933-001250SAO  +0138EGUA V0202001N003110600019N0096001N9+00801+00741098981ADDGA1011+007509089GA2011+021009039GA3051+060009009GF107991999999999999999999MA1999999097321MW1051
0082036553999991951111911004+51933-001250SAO  +0138EGUA V0202001N003110600019N0112001N9+00851+00741099051ADDGA1021+007509089GA2041+060009009GF107991999999999999999999MA1999999097361MW1001
0119036553999991951111912004+51933-001250SAO  +0138EGUA V0202001N005110600019N0128001N9+00961+00801099191ADDAA124000091GA1021+007509089GA2041+060009009GF107991999999999999999999KA1999M+01131KA2999N+00691MA1999999097531MW1001
0098036553999991951111913004+51933-001250SAO  +0138EGUA V0202001N004110360019N0128001N9+00961+00741099211ADDGA1021+007509089GA2031+036009049GA3011+060009009GF107991999999999999999999MA1999999097531MW1001
0082036553999991951111914004+51933-001250SAO  +0138EGUA V0202301N005110600019N0128001N9+01131+00691099221ADDGA1031+007509089GA2021+060009009GF107991999999999999999999MA1999999097531MW1001
0082036553999991951111915004+51933-001250SAO  +0138EGUA V0202001N004612200019N0160001N9+01071+00691099261ADDGA1021+007509089GA2021+060009009GF102991999999999999999999MA1999999097561MW1001
0082036553999991951111916004+51933-001250SAO  +0138EGUA V0202001N003112200019N0160001N9+00911+00741099261ADDGA1011+007509089GA2021+060009009GF102991999999999999999999MA1999999097561MW1001
0082036553999991951111917004+51933-001250SAO  +0138EGUA V0202001N002612200019N0160001N9+00801+00691099321ADDGA1011+007509089GA2021+060009009GF102991999999999999999999MA1999999097631MW1001
0082036553999991951111918004+51933-001250SAO  +0138EGUA V0202001N002112200019N0128001N9+00801+00691099251ADDGA1011+007509089GA2021+060009009GF102991999999999999999999MA1999999097561MW1001
0082036553999991951111919004+51933-001250SAO  +0138EGUA V0202001N004612200019N0128001N9+00741+00691099281ADDGA1011+007509089GA2021+060009009GF102991999999999999999999MA1999999097601MW1001
0082036553999991951111920004+51933-001250SAO  +0138EGUA V0202001N004612200019N0128001N9+00691+00631099321ADDGA1011+007509089GA2021+060009009GF102991999999999999999999MA1999999097631MW1001
0082036553999991951111921004+51933-001250SAO  +0138EGUA V0202001N005112200019N0080001N9+00691+00631099321ADDGA1011+007509089GA2021+060009009GF102991999999999999999999MA1999999097631MW1051
0082036553999991951111922004+51933-001250SAO  +0138EGUA V0202301N003112200019N0064001N9+00691+00631099361ADDGA1021+007509089GA2021+060009009GF102991999999999999999999MA1999999097631MW1051
0082036553999991951111923004+51933-001250SAO  +0138EGUA V0202301N003612200019N0064001N9+00691+00631099321ADDGA1021+007509089GA2021+060009009GF102991999999999999999999MA1999999097631MW1051
0082036553999991951112000004+51933-001250SAO  +0138EGUA V0202301N004612200019N0064001N9+00691+00631099321ADDGA1021+007509089GA2031+060009009GF102991999999999999999999MA1999999097631MW1051
0066036553999991951112001004+51933-001250SAO  +0138EGUA V0202001N004610105019N0064001N9+00741+00631099321ADDGA1061+010509059GF107991999999999999999999MA1999999097631MW1051
0072036553999991951112002004+51933-001250SAO  +0138EGUA V0202001N005710105019N0064001N9+00801+00691099361ADDGA1081+010509059GF108991999999999999999999MA1999999097661MW1051MW2611
0066036553999991951112003004+51933-001250SAO  +0138EGUA V0202001N004610105019N0064001N9+00741+00741099391ADDGA1061+010509059GF107991999999999999999999MA1999999097701MW1051
0066036553999991951112004004+51933-001250SAO  +0138EGUA V0202301N004610105019N0064001N9+00741+00691099421ADDGA1061+010509059GF107991999999999999999999MA1999999097731MW1051
0066036553999991951112005004+51933-001250SAO  +0138EGUA V0202301N005110105019N0064001N9+00801+00741099421ADDGA1061+010509059GF107991999999999999999999MA1999999097731MW1051
0066036553999991951112006004+51933-001250SAO  +0138EGUA V0202301N004610105019N0064001N9+00691+00691099491ADDGA1051+010509059GF107991999999999999999999MA1999999097801MW1051
0066036553999991951112007004+51933-001250SAO  +0138EGUA V0202301N005112200019N0064001N9+00741+00691099561ADDGA1011+010509059GF102991999999999999999999MA1999999097831MW1051
0066036553999991951112008004+51933-001250SAO  +0138EGUA V0202301N004612200019N0080001N9+00741+00691099631ADDGA1021+030009039GF102991999999999999999999MA1999999097901MW1051
0098036553999991951112009004+51933-001250SAO  +0138EGUA V0202301N004612200019N0096001N9+00741+00631099701ADDGA1011+007509089GA2021+018009039GA3021+060009009GF102991999999999999999999MA1999999097971MW1051
0082036553999991951112010004+51933-001250SAO  +0138EGUA V0202301N004112200019N0160001N9+00851+00631099701ADDGA1011+007509089GA2021+060009009GF102991999999999999999999MA1999999098001MW1001
0082036553999991951112011004+51933-001250SAO  +0138EGUA V0201801N004610510019N0112001N9+00961+00741099701ADDGA1021+007509089GA2041+051009009GF107991999999999999999999MA1999999098001MW1001
0119036553999991951112012004+51933-001250SAO  +0138EGUA V0202301N006210180019N0096001N9+01021+00801099631ADDAA124005091GA1041+004509089GA2031+018009039GF107991999999999999999999KA1999M+01021KA2999N+00691MA1999999097931MW1051
0082036553999991951112013004+51933-001250SAO  +0138EGUA V0202001N005710180019N0096001N9+01021+00741099631ADDGA1041+004509089GA2041+018009039GF107991999999999999999999MA1999999097931MW1051
0082036553999991951112014004+51933-001250SAO  +0138EGUA V0202301N005110180019N0080001N9+01021+00691099561ADDGA1011+004509089GA2071+018009049GF108991999999999999999999MA1999999097871MW1051
0088036553999991951112015004+51933-001250SAO  +0138EGUA V0201801N006210045019N0080001N9+01021+00741099451ADDGA1051+004509089GA2081+018009049GF108991999999999999999999MA1999999097771MW1051MW2611
0088036553999991951112016004+51933-001250SAO  +0138EGUA V0202001N006710045019N0080001N9+00961+00741099391ADDGA1061+004509089GA2081+018009049GF108991999999999999999999MA1999999097701MW1051MW2611
0088036553999991951112017004+51933-001250SAO  +0138EGUA V0202001N005110045019N0080001N9+00961+00851099211ADDGA1061+004509089GA2081+018009049GF108991999999999999999999MA1999999097531MW1051MW2611
0082036553999991951112018004+51933-001250SAO  +0138EGUA V0202001N006210045019N0080001N9+00961+00741099091ADDGA1051+004509079GA2081+007509059GF108991999999999999999999MA1999999097391MW1051
0088036553999991951112019004+51933-001250SAO  +0138EGUA V0202001N006210024019N0064001N9+00911+00911099081ADDGA1051+002409079GA2081+006009059GF108991999999999999999999MA1999999097391MW1051MW2631
0088036553999991951112020004+51933-001250SAO  +0138EGUA V0202301N011310024019N0064001N9+00911+00911098871ADDGA1051+002409079GA2081+006009059GF108991999999999999999999MA1999999097221MW1051MW2631
0082036553999991951112021004+51933-001250SAO  +0138EGUA V0202301N003112200019N0064001N9+00911+00911098771ADDGA1011+004509089GA2021+007509059GF102991999999999999999999MA1999999097121MW1051
0082036553999991951112022004+51933-001250SAO  +0138EGUA V0202301N007712200019N0064001N9+00851+00741098711ADDGA1021+004509089GA2021+007509059GF102991999999999999999999MA1999999097051MW1051
0050036553999991951112023004+51933-001250SAO  +0138EGUA V0202501N006212200019N0064001N9+00831+00721098701ADDGF102991999999999999999999MA1098681097051MW1051
0050036553999991951112100004+51933-001250SAO  +0138EGUA V0202301N006212200019N0064001N9+00831+00611098681ADDGF102991999999999999999999MA1098651097021MW1051
0066036553999991951112101004+51933-001250SAO  +0138EGUA V0202301N005712200019N0064001N9+00691+00581098651ADDGA1011+012009059GF102991999999999999999999MA1999999096991MW1051
0066036553999991951112102004+51933-001250SAO  +0138EGUA V0202301N005112200019N0064001N9+00691+00521098581ADDGA1001+999999999GF100991999999999999999999MA1999999096921MW1051
0066036553999991951112103004+51933-001250SAO  +0138EGUA V0202301N006712200019N0064001N9+00691+00521098541ADDGA1001+999999999GF100991999999999999999999MA1999999096881MW1051
0066036553999991951112104004+51933-001250SAO  +0138EGUA V0202301N005712200019N0064001N9+00631+00461098481ADDGA1021+010509059GF102991999999999999999999MA1999999096821MW1051
0066036553999991951112105004+51933-001250SAO  +0138EGUA V0202301N005112200019N0064001N9+00631+00461098411ADDGA1041+010509059GF102991999999999999999999MA1999999096751MW1051
0066036553999991951112106004+51933-001250SAO  +0138EGUA V0202301N005712200019N0064001N9+00631+00461098371ADDGA1021+010509059GF102991999999999999999999MA1999999096721MW1051
0066036553999991951112107004+51933-001250SAO  +0138EGUA V0202301N005712200019N0064001N9+00631+00461098411ADDGA1021+010509059GF102991999999999999999999MA1999999096751MW1051
0082036553999991951112108004+51933-001250SAO  +0138EGUA V0202301N004110510019N0096001N9+00691+00521098441ADDGA1041+004809059GA2021+051009009GF107991999999999999999999MA1999999096781MW1051
0082036553999991951112109004+51933-001250SAO  +0138EGUA V0202501N003610075019N0112001N9+00691+00521098441ADDGA1021+004809079GA2051+007509059GF107991999999999999999999MA1999999096781MW1001
0082036553999991951112110004+51933-001250SAO  +0138EGUA V0202501N002610600019N0112001N9+00741+00521098511ADDGA1021+007509059GA2021+060009009GF107991999999999999999999MA1999999096851MW1001
0082036553999991951112111004+51933-001250SAO  +0138EGUA V0202701N005710600019N0160001N9+00851+00521098541ADDGA1041+007509059GA2021+060009009GF107991999999999999999999MA1999999096881MW1001
0119036553999991951112112004+51933-001250SAO  +0138EGUA V0203401N003110075019N0160001N9+00851+00581098651ADDAA124999929GA1061+007509059GA2011+060009009GF107991999999999999999999KA1999M+00851KA2999N+00521MA1999999096991MW1001
0098036553999991951112113004+51933-001250SAO  +0138EGUA V0203401N004110750019N0112001N9+00801+00581098711ADDGA1031+004509079GA2031+007509059GA3081+021009049GF108991999999999999999999MA1999999097051MW1611
0082036553999991951112114004+51933-001250SAO  +0138EGUA V0203401N011310075019N0112001N9+00851+00691098851ADDGA1051+007509059GA2031+021009049GF108991999999999999999999MA1999999097191MW1001
0082036553999991951112115004+51933-001250SAO  +0138EGUA V0203201N006710600019N0128001N9+00741+00581099091ADDGA1031+010509059GA2061+060009009GF107991999999999999999999MA1999999097361MW1001
0082036553999991951112116004+51933-001250SAO  +0138EGUA V0203201N006710600019N0128001N9+00741+00631099261ADDGA1041+010509059GA2061+060009009GF107991999999999999999999MA1999999097531MW1001
0066036553999991951112117004+51933-001250SAO  +0138EGUA V0203201N004112200019N0128001N9+00691+00581099391ADDGA1021+010509059GF102991999999999999999999MA1999999097661MW1001
0066036553999991951112118004+51933-001250SAO  +0138EGUA V0203401N003112200019N0112001N9+00631+00521099661ADDGA1021+010509059GF102991999999999999999999MA1999999097931MW1001
0066036553999991951112119004+51933-001250SAO  +0138EGUA V0202901N004612200019N0080001N9+00581+00461099801ADDGA1001+999999999GF100991999999999999999999MA1999999098071MW1051
0066036553999991951112120004+51933-001250SAO  +0138EGUA V0203201N005712200019N0080001N9+00521+00411099801ADDGA1001+999999999GF100991999999999999999999MA1999999098071MW1051
0066036553999991951112121004+51933-001250SAO  +0138EGUA V0203601N004112200019N0064001N9+00581+00461099831ADDGA1001+999999999GF100991999999999999999999MA1999999098101MW1051
0066036553999991951112122004+51933-001250SAO  +0138EGUA V0202701N002612200019N0064001N9+00521+00411099901ADDGA1001+999999999GF100991999999999999999999MA1999999098171MW1051
0066036553999991951112123004+51933-001250SAO  +0138EGUA V0202901N002612200019N0064001N9+00581+00411099931ADDGA1001+999999999GF100991999999999999999999MA1999999098211MW1051
0066036553999991951112200004+51933-001250SAO  +0138EGUA V0202701N006712200019N0064001N9+00581+00411099971ADDGA1001+999999999GF100991999999999999999999MA1999999098241MW1051
0066036553999991951112201004+51933-001250SAO  +0138EGUA V0202701N005112200019N0096001N9+00461+00301099971ADDGA1001+999999999GF100991999999999999999999MA1999999098241MW1051
0066036553999991951112202004+51933-001250SAO  +0138EGUA V0202701N005112200019N0096001N9+00461+00301100001ADDGA1001+999999999GF100991999999999999999999MA1999999098271MW1051
0066036553999991951112203004+51933-001250SAO  +0138EGUA V0202701N003612200019N0096001N9+00581+00301100041ADDGA1001+999999999GF100991999999999999999999MA1999999098311MW1051
0066036553999991951112204004+51933-001250SAO  +0138EGUA V0202701N004110090019N0096001N9+00581+00301100071ADDGA1061+009009059GF107991999999999999999999MA1999999098341MW1051
0082036553999991951112205004+51933-001250SAO  +0138EGUA V0203201N005110210019N0096001N9+00631+00461100101ADDGA1021+009009059GA2051+021009049GF107991999999999999999999MA1999999098371MW1051
0082036553999991951112206004+51933-001250SAO  +0138EGUA V0202701N005110210019N0096001N9+00581+00461100041ADDGA1021+009009059GA2051+021009049GF107991999999999999999999MA1999999098311MW1051
0082036553999991951112207004+51933-001250SAO  +0138EGUA V0203201N003610210019N0096001N9+00461+00301100171ADDGA1021+009009059GA2051+021009049GF107991999999999999999999MA1999999098441MW1051
0066036553999991951112208004+51933-001250SAO  +0138EGUA V0203201N004610090019N0096001N9+00461+00301100271ADDGA1081+009009059GF108991999999999999999999MA1999999098541MW1051
0066036553999991951112209004+51933-001250SAO  +0138EGUA V0203601N002610090019N0112001N9+00691+00521100341ADDGA1061+009009059GF107991999999999999999999MA1999999098611MW1001
0066036553999991951112210004+51933-001250SAO  +0138EGUA V0203401N002612200019N0112001N9+00691+00521100411ADDGA1021+009009059GF102991999999999999999999MA1999999098681MW1001
0066036553999991951112211004+51933-001250SAO  +0138EGUA V0203201N004612200019N0112001N9+00691+00581100611ADDGA1021+009009059GF102991999999999999999999MA1999999098881MW1001
0103036553999991951112212004+51933-001250SAO  +0138EGUA V0203201N008212200019N0112001N9+00801+00691100511ADDAA124999929GA1021+009009059GF102991999999999999999999KA1999M+00851KA2999N+00461MA1999999098781MW1001
0066036553999991951112213004+51933-001250SAO  +0138EGUA V0203201N007712200019N0112001N9+00801+00581100541ADDGA1041+009009059GF102991999999999999999999MA1999999098811MW1001
0066036553999991951112214004+51933-001250SAO  +0138EGUA V0203201N004110540019N0112001N9+00801+00411100541ADDGA1071+054009009GF107991999999999999999999MA1999999098811MW1001
0066036553999991951112215004+51933-001250SAO  +0138EGUA V0203201N003610540019N0112001N9+00801+00411100581ADDGA1071+054009009GF107991999999999999999999MA1999999098851MW1001
0066036553999991951112216004+51933-001250SAO  +0138EGUA V0202701N002610540019N0112001N9+00631+00461100611ADDGA1051+054009009GF107991999999999999999999MA1999999098881MW1001
0066036553999991951112217004+51933-001250SAO  +0138EGUA V0202701N003110540019N0112001N9+00581+00351100611ADDGA1071+054009009GF107991999999999999999999MA1999999098881MW1001
0066036553999991951112218004+51933-001250SAO  +0138EGUA V0202301N002110600019N0112001N9+00581+00351100681ADDGA1071+060009009GF107991999999999999999999MA1999999099191MW1001
0066036553999991951112219004+51933-001250SAO  +0138EGUA V0202001N002110540019N0112001N9+00521+00411100681ADDGA1081+054009039GF108991999999999999999999MA1999999098951MW1001
0066036553999991951112220004+51933-001250SAO  +0138EGUA V0202301N002110540019N0112001N9+00521+00351100641ADDGA1081+054009039GF108991999999999999999999MA1999999098921MW1001
0066036553999991951112221004+51933-001250SAO  +0138EGUA V0202301N002110540019N0096001N9+00521+00411100611ADDGA1081+054009039GF108991999999999999999999MA1999999098881MW1051
0082036553999991951112222004+51933-001250SAO  +0138EGUA V0202301N001510300019N0080001N9+00461+00351100611ADDGA1031+010509059GA2081+030009039GF108991999999999999999999MA1999999098881MW1051
0082036553999991951112223004+51933-001250SAO  +0138EGUA V0202301N001010105019N0048001N9+00461+00411100581ADDGA1061+010509059GA2081+030009039GF108991999999999999999999MA1999999098851MW1801
0066036553999991951112300004+51933-001250SAO  +0138EGUA V0202301N001510105019N0048001N9+00461+00461100471ADDGA1081+010509059GF108991999999999999999999MA1999999098751MW1801
0072036553999991951112301004+51933-001250SAO  +0138EGUA V0202301N001510105019N0048001N9+00461+00461100371ADDGA1081+010509059GF108991999999999999999999MA1999999098651MW1051MW2611
0066036553999991951112302004+51933-001250SAO  +0138EGUA V0201801N001510090019N0064001N9+00411+00411100271ADDGA1081+009009059GF108991999999999999999999MA1999999098541MW1051
0072036553999991951112303004+51933-001250SAO  +0138EGUA V0201401N002610090019N0064001N9+00411+00411100241ADDGA1081+009009059GF108991999999999999999999MA1999999098511MW1051MW2611
0072036553999991951112304004+51933-001250SAO  +0138EGUA V0201401N002610090019N0064001N9+00411+00411100141ADDGA1081+009009059GF108991999999999999999999MA1999999098411MW1051MW2611
0072036553999991951112305004+51933-001250SAO  +0138EGUA V0201401N003610090019N0064001N9+00461+00461100071ADDGA1081+009009059GF108991999999999999999999MA1999999098341MW1051MW2611
0072036553999991951112306004+51933-001250SAO  +0138EGUA V0201401N004110090019N0064001N9+00521+00521099971ADDGA1081+009009059GF108991999999999999999999MA1999999098271MW1051MW2611
0072036553999991951112307004+51933-001250SAO  +0138EGUA V0201401N004110090019N0064001N9+00521+00521100001ADDGA1081+009009059GF108991999999999999999999MA1999999098271MW1051MW2611
0072036553999991951112308004+51933-001250SAO  +0138EGUA V0201401N003610075019N0012001N9+00461+00461099971ADDGA1081+007509059GF108991999999999999999999MA1999999098241MW1051MW2611
0072036553999991951112309004+51933-001250SAO  +0138EGUA V0201401N003610030019N0024001N9+00521+00521099971ADDGA1081+003009079GF108991999999999999999999MA1999999098241MW1451MW2611
0066036553999991951112310004+51933-001250SAO  +0138EGUA V0201401N002110030019N0008001N9+00631+00631099971ADDGA1081+003009059GF108991999999999999999999MA1999999098241MW1451
0066036553999991951112311004+51933-001250SAO  +0138EGUA V0209991C000010030019N0004001N9+00631+00631100001ADDGA1081+003009059GF108991999999999999999999MA1999999098271MW1451
0103036553999991951112312004+51933-001250SAO  +0138EGUA V0209991C000010030019N0004001N9+00691+00691099971ADDAA124007091GA1081+003009079GF108991999999999999999999KA1999M+01191KA2999N+00411MA1999999098241MW1451
0066036553999991951112313004+51933-001250SAO  +0138EGUA V0209991C000010060019N0012001N9+00741+00741099971ADDGA1081+006009059GF108991999999999999999999MA1999999098241MW1451
0066036553999991951112314004+51933-001250SAO  +0138EGUA V0209991C000010060019N0012001N9+00741+00741099971ADDGA1081+006009059GF108991999999999999999999MA1999999098241MW1451
0066036553999991951112315004+51933-001250SAO  +0138EGUA V0209991C000010060019N0012001N9+00741+00741099971ADDGA1081+006009059GF108991999999999999999999MA1999999098241MW1451
0066036553999991951112316004+51933-001250SAO  +0138EGUA V0209991C000010060019N0012001N9+00741+00741100001ADDGA1081+006009059GF108991999999999999999999MA1999999098271MW1451
0072036553999991951112317004+51933-001250SAO  +0138EGUA V0201401N001510039019N0008001N9+00741+00741100001ADDGA1081+003909079GF108991999999999999999999MA1999999098271MW1451MW2611
0072036553999991951112318004+51933-001250SAO  +0138EGUA V0201401N001510036019N0008001N9+00741+00741099971ADDGA1081+003609079GF108991999999999999999999MA1999999098241MW1451MW2631
0072036553999991951112319004+51933-001250SAO  +0138EGUA V0201601N001510036019N0008001N9+00741+00741100001ADDGA1081+003609079GF108991999999999999999999MA1999999098271MW1451MW2631
0072036553999991951112320004+51933-001250SAO  +0138EGUA V0201801N002110036019N0008001N9+00851+00851100001ADDGA1081+003609079GF108991999999999999999999MA1999999098271MW1451MW2611
0072036553999991951112321004+51933-001250SAO  +0138EGUA V0202001N003110036019N0008001N9+00961+00961099891ADDGA1081+003609079GF108991999999999999999999MA1999999098211MW1451MW2611
0072036553999991951112322004+51933-001250SAO  +0138EGUA V0202301N003610036019N0008001N9+01021+01021099821ADDGA1081+003609079GF108991999999999999999999MA1999999098141MW1451MW2611
0072036553999991951112323004+51933-001250SAO  +0138EGUA V0202301N005110042019N0008001N9+01071+01071099791ADDGA1081+004209079GF108991999999999999999999MA1999999098101MW1451MW2611
0072036553999991951112400004+51933-001250SAO  +0138EGUA V0202301N004610048019N0008001N9+01191+01131099721ADDGA1081+004809079GF108991999999999999999999MA1999999098041MW1451MW2611
0072036553999991951112401004+51933-001250SAO  +0138EGUA V0202301N005110012019N0016001N9+01241+01241099651ADDGA1081+001209079GF108991999999999999999999MA1999999097971MW1451MW2611
0066036553999991951112402004+51933-001250SAO  +0138EGUA V0202301N006210012019N0016001N9+01241+01241099651ADDGA1081+001209079GF108991999999999999999999MA1999999097971MW1451
