0066036553999991953010100004+51933-001250SAO  +0138EGUA V0203601N003610036019N0048001N9+00191+00191099351ADDGA1081+003609079GF108991999999999999999999MA1999999097661MW1111
0066036553999991953010101004+51933-001250SAO  +0138EGUA V0203601N004110045019N0048001N9+00191+00191099411ADDGA1081+004509079GF108991999999999999999999MA1999999097701MW1111
0066036553999991953010102004+51933-001250SAO  +0138EGUA V0200201N003610030019N0032001N9+00191+00191099451ADDGA1081+003009079GF108991999999999999999999MA1999999097731MW1111
0066036553999991953010103004+51933-001250SAO  +0138EGUA V0203601N003610018019N0012001N9+00191+00191099481ADDGA1081+001809079GF108991999999999999999999MA1999999097771MW1111
0066036553999991953010104004+51933-001250SAO  +0138EGUA V0200201N005110027019N0012001N9+00191+00191099521ADDGA1081+002709079GF108991999999999999999999MA1999999097801MW1111
0082036553999991953010105004+51933-001250SAO  +0138EGUA V0200201N004110021019N0024001N9+00131+00131099551ADDGA1051+002109079GA2071+004509059GF108991999999999999999999MA1999999097831MW1111
0066036553999991953010106004+51933-001250SAO  +0138EGUA V0200201N007710021019N0024001N9+00191+00191099651ADDGA1081+002109079GF108991999999999999999999MA1999999097971MW1111
0066036553999991953010107004+51933-001250SAO  +0138EGUA V0200201N006710021019N0024001N9+00191+00191099751ADDGA1081+002109079GF108991999999999999999999MA1999999098041MW1111
0072036553999991953010108004+51933-001250SAO  +0138EGUA V0200201N006710039019N0010001N9+00191+00191099821ADDGA1081+003909079GF108991999999999999999999MA1999999098101MW1111MW2611
0072036553999991953010109004+51933-001250SAO  +0138EGUA V0200201N006710033019N0012001N9+00191+00191099891ADDGA1081+003309079GF108991999999999999999999MA1999999098141MW1111MW2611
0072036553999991953010110004+51933-001250SAO  +0138EGUA V0203601N008710009019N0008001N9+00081+00081099971ADDGA1091+000909999GF109991999999999999999999MA1999999098211MW1111MW2851
0072036553999991953010111004+51933-001250SAO  +0138EGUA V0200201N007710015019N0012001N9+00131+00131100041ADDGA1091+001509999GF109991999999999999999999MA1999999098271MW1111MW2851
0109036553999991953010112004+51933-001250SAO  +0138EGUA V0200201N007710021019N0016001N9+00131+00131099971ADDAA124001091GA1081+002109079GF108991999999999999999999KA1999M+00241KA2999N+00021MA1999999098211MW1111MW2851
0072036553999991953010113004+51933-001250SAO  +0138EGUA V0200201N007210021019N0016001N9+00131+00131100071ADDGA1081+002109079GF108991999999999999999999MA1999999098311MW1111MW2851
0072036553999991953010114004+51933-001250SAO  +0138EGUA V0200201N007710021019N0032001N9+00131+00131100131ADDGA1081+002109079GF108991999999999999999999MA1999999098371MW1111MW2851
0066036553999991953010115004+51933-001250SAO  +0138EGUA V0203401N008710027019N0040001N9+00191+00131100201ADDGA1081+002709079GF108991999999999999999999MA1999999098481MW1051
0072036553999991953010116004+51933-001250SAO  +0138EGUA V0200201N007710021019N0040001N9+00191+00191100411ADDGA1081+002109079GF108991999999999999999999MA1999999098651MW1051MW2611
0072036553999991953010117004+51933-001250SAO  +0138EGUA V0200501N007710027019N0032001N9+00191+00191100501ADDGA1081+002709079GF108991999999999999999999MA1999999098751MW1051MW2611
0072036553999991953010118004+51933-001250SAO  +0138EGUA V0200501N007710024019N0032001N9+00191+00191100711ADDGA1081+002409079GF108991999999999999999999MA1999999098951MW1051MW2611
0072036553999991953010119004+51933-001250SAO  +0138EGUA V0200201N007210024019N0032001N9+00191+00191100781ADDGA1081+002409079GF108991999999999999999999MA1999999099021MW1051MW2611
0072036553999991953010120004+51933-001250SAO  +0138EGUA V0200501N007710024019N0040001N9+00241+00241100841ADDGA1081+002409079GF108991999999999999999999MA1999999099121MW1051MW2611
0072036553999991953010121004+51933-001250SAO  +0138EGUA V0200201N007710027019N0040001N9+00241+00241101021ADDGA1081+002709079GF108991999999999999999999MA1999999099221MW1051MW2611
0072036553999991953010122004+51933-001250SAO  +0138EGUA V0200501N007710030019N0040001N9+00241+00191101081ADDGA1081+003009079GF108991999999999999999999MA1999999099321MW1051MW2611
0066036553999991953010123004+51933-001250SAO  +0138EGUA V0200501N006710030019N0040001N9+00241+00191101111ADDGA1081+003009079GF108991999999999999999999MA1999999099361MW1051
0072036553999991953010200004+51933-001250SAO  +0138EGUA V0200201N005110060019N0032001N9+00241+00191101291ADDGA1081+006009059GF108991999999999999999999MA1999999099491MW1051MW2511
0066036553999991953010201004+51933-001250SAO  +0138EGUA V0203601N004610120019N0040001N9+00241+00191101311ADDGA1081+012009059GF108991999999999999999999MA1999999099531MW1051
0066036553999991953010202004+51933-001250SAO  +0138EGUA V0203601N005710120019N0032001N9+00191+00191101341ADDGA1081+012009059GF108991999999999999999999MA1999999099591MW1051
0066036553999991953010203004+51933-001250SAO  +0138EGUA V0200201N004110120019N0032001N9+00191+00131101421ADDGA1081+012009059GF108991999999999999999999MA1999999099631MW1051
0066036553999991953010204004+51933-001250SAO  +0138EGUA V0203601N004610120019N0032001N9+00191+00191101461ADDGA1061+012009059GF107991999999999999999999MA1999999099661MW1111
0066036553999991953010205004+51933-001250SAO  +0138EGUA V0203601N005710120019N0032001N9+00191+00131101461ADDGA1061+012009059GF107991999999999999999999MA1999999099661MW1111
0066036553999991953010206004+51933-001250SAO  +0138EGUA V0203601N004110120019N0048001N9+00191+00131101491ADDGA1061+012009059GF107991999999999999999999MA1999999099701MW1111
0066036553999991953010207004+51933-001250SAO  +0138EGUA V0200201N003610120019N0048001N9+00191+00081101491ADDGA1071+012009059GF107991999999999999999999MA1999999099731MW1111
0066036553999991953010208004+51933-001250SAO  +0138EGUA V0203601N004612200019N0032001N9+00131+00081101561ADDGA1021+013509059GF102991999999999999999999MA1999999099761MW1111
0066036553999991953010209004+51933-001250SAO  +0138EGUA V0203601N004612200019N0020001N9+00081+00021101591ADDGA1001+999999999GF100991999999999999999999MA1999999099801MW1111
0066036553999991953010210004+51933-001250SAO  +0138EGUA V0200201N004612200019N0010001N9+00081+00021101631ADDGA1021+015009059GF102991999999999999999999MA1999999099831MW1111
0066036553999991953010211004+51933-001250SAO  +0138EGUA V0200201N002612200019N0010001N9+00131+00081101631ADDGA1041+015009059GF102991999999999999999999MA1999999099831MW1111
0103036553999991953010212004+51933-001250SAO  +0138EGUA V0203601N003610150019N0020001N9+00241+00191101451ADDAA124999929GA1061+015009059GF107991999999999999999999KA1999M+00351KA2999N+00021MA1999999099701MW1111
0066036553999991953010213004+51933-001250SAO  +0138EGUA V0203401N007710150019N0024001N9+00301+00081101411ADDGA1061+015009059GF107991999999999999999999MA1999999099661MW1111
0066036553999991953010214004+51933-001250SAO  +0138EGUA V0203601N004610090019N0012001N9+00241+00191101351ADDGA1061+009009059GF107991999999999999999999MA1999999099591MW1111
0066036553999991953010215004+51933-001250SAO  +0138EGUA V0203401N001510210019N0012001N9+00301+00241101351ADDGA1061+021009039GF107991999999999999999999MA1999999099591MW1111
0066036553999991953010216004+51933-001250SAO  +0138EGUA V0203401N002110210019N0010001N9+00241+00191101351ADDGA1061+021009039GF107991999999999999999999MA1999999099591MW1111
0066036553999991953010217004+51933-001250SAO  +0138EGUA V0203401N002110300019N0008001N9+00191+00131101291ADDGA1061+030009039GF107991999999999999999999MA1999999099561MW1111
0066036553999991953010218004+51933-001250SAO  +0138EGUA V0202701N002110210019N0016001N9+00191+00131101321ADDGA1081+021009039GF108991999999999999999999MA1999999099561MW1111
0066036553999991953010219004+51933-001250SAO  +0138EGUA V0203201N002110210019N0016001N9+00131+00131101351ADDGA1081+021009039GF108991999999999999999999MA1999999099561MW1111
0066036553999991953010220004+51933-001250SAO  +0138EGUA V0203601N002110210019N0016001N9+00081+00081101351ADDGA1081+021009039GF108991999999999999999999MA1999999099561MW1111
0066036553999991953010221004+51933-001250SAO  +0138EGUA V0203601N002110210019N0016001N9+00081+00081101321ADDGA1081+021009039GF108991999999999999999999MA1999999099531MW1111
0082036553999991953010222004+51933-001250SAO  +0138EGUA V0200201N002110210019N0016001N9+00081+00081101291ADDGA1021+010509059GA2081+021009039GF108991999999999999999999MA1999999099491MW1111
0066036553999991953010223004+51933-001250SAO  +0138EGUA V0200201N002610210019N0016001N9+00081+00081101251ADDGA1081+021009039GF108991999999999999999999MA1999999099461MW1111
0066036553999991953010300004+51933-001250SAO  +0138EGUA V0203601N002610150019N0008001N9+00021+00021101221ADDGA1081+015009059GF108991999999999999999999MA1999999099421MW1111
0066036553999991953010301004+51933-001250SAO  +0138EGUA V0203601N003110150019N0008001N9+00021+00021101191ADDGA1081+015009059GF108991999999999999999999MA1999999099391MW1111
0066036553999991953010302004+51933-001250SAO  +0138EGUA V0203601N003610210019N0008001N9+00021+00021101151ADDGA1081+021009039GF108991999999999999999999MA1999999099361MW1111
0066036553999991953010303004+51933-001250SAO  +0138EGUA V0203601N006710210019N0008001N9+00021+00021101151ADDGA1071+021009039GF107991999999999999999999MA1999999099361MW1111
0066036553999991953010304004+51933-001250SAO  +0138EGUA V0203601N003610210019N0008001N9-00041-00041101151ADDGA1081+021009039GF108991999999999999999999MA1999999099361MW1111
0066036553999991953010305004+51933-001250SAO  +0138EGUA V0203601N005110210019N0008001N9-00091-00091101151ADDGA1061+021009039GF107991999999999999999999MA1999999099361MW1111
0066036553999991953010306004+51933-001250SAO  +0138EGUA V0200201N004612200019N0008001N9-00091-00091101191ADDGA1021+021009039GF102991999999999999999999MA1999999099391MW1111
0066036553999991953010307004+51933-001250SAO  +0138EGUA V0200201N005112200019N0012001N9-00151-00151101221ADDGA1021+021009039GF102991999999999999999999MA1999999099421MW1111
0066036553999991953010308004+51933-001250SAO  +0138EGUA V0200201N003612200019N0012001N9-00151-00201101291ADDGA1021+015009059GF102991999999999999999999MA1999999099491MW1111
0066036553999991953010309004+51933-001250SAO  +0138EGUA V0203601N004112200019N0012001N9-00151-00201101321ADDGA1021+007509059GF102991999999999999999999MA1999999099531MW1111
0066036553999991953010310004+51933-001250SAO  +0138EGUA V0203601N006710135019N0012001N9-00041-00091101391ADDGA1061+013509059GF107991999999999999999999MA1999999099631MW1111
0082036553999991953010311004+51933-001250SAO  +0138EGUA V0203601N005110120019N0020001N9+00081+00081101391ADDGA1021+007509059GA2041+012009059GF107991999999999999999999MA1999999099631MW1111
0119036553999991953010312004+51933-001250SAO  +0138EGUA V0200201N006710120019N0024001N9+00081-00041101391ADDAA124999929GA1021+007509059GA2051+012009059GF107991999999999999999999KA1999M+00131KA2999N-00151MA1999999099631MW1111
0082036553999991953010313004+51933-001250SAO  +0138EGUA V0203601N005710105019N0024001N9+00081-00041101421ADDGA1021+007509059GA2021+010509059GF107991999999999999999999MA1999999099661MW1111
0082036553999991953010314004+51933-001250SAO  +0138EGUA V0203601N007210105019N0024001N9+00131-00041101421ADDGA1021+007509059GA2031+010509059GF107991999999999999999999MA1999999099661MW1111
0082036553999991953010315004+51933-001250SAO  +0138EGUA V0203601N007210105019N0024001N9+00131-00041101491ADDGA1021+007509059GA2021+010509059GF107991999999999999999999MA1999999099701MW1111
0088036553999991953010316004+51933-001250SAO  +0138EGUA V0200201N006210090019N0020001N9+00081-00041101521ADDGA1031+006009059GA2031+009009059GF107991999999999999999999MA1999999099731MW1111MW2851
0082036553999991953010317004+51933-001250SAO  +0138EGUA V0200201N006710090019N0020001N9+00081+00021101591ADDGA1041+004509059GA2021+009009059GF107991999999999999999999MA1999999099801MW1111
0082036553999991953010318004+51933-001250SAO  +0138EGUA V0200201N006710075019N0020001N9+00081+00021101691ADDGA1021+003009059GA2041+007509059GF107991999999999999999999MA1999999099901MW1111
0066036553999991953010319004+51933-001250SAO  +0138EGUA V0200201N005110075019N0020001N9+00081+00021101801ADDGA1061+007509059GF107991999999999999999999MA1999999100001MW1111
0066036553999991953010320004+51933-001250SAO  +0138EGUA V0200201N006210060019N0020001N9+00081+00021101861ADDGA1061+006009059GF107991999999999999999999MA1999999100071MW1111
0066036553999991953010321004+51933-001250SAO  +0138EGUA V0200201N006210060019N0048001N9+00081+00021101931ADDGA1061+006009059GF107991999999999999999999MA1999999100141MW1051
0082036553999991953010322004+51933-001250SAO  +0138EGUA V0200201N006710060019N0048001N9+00081+00081102001ADDGA1021+002109059GA2061+006009059GF108991999999999999999999MA1999999100201MW1051
0082036553999991953010323004+51933-001250SAO  +0138EGUA V0203601N006710060019N0048001N9+00081+00021102031ADDGA1021+002109059GA2061+006009059GF108991999999999999999999MA1999999100241MW1051
0066036553999991953010400004+51933-001250SAO  +0138EGUA V0200201N005710060019N0064001N9+00081+00021102071ADDGA1081+006009059GF108991999999999999999999MA1999999100271MW1051
0066036553999991953010401004+51933-001250SAO  +0138EGUA V0200201N006710060019N0048001N9+00081+00081102101ADDGA1081+006009059GF108991999999999999999999MA1999999100301MW1051
0066036553999991953010402004+51933-001250SAO  +0138EGUA V0200201N005710060019N0048001N9+00081+00081102171ADDGA1081+006009059GF108991999999999999999999MA1999999100371MW1051
0066036553999991953010403004+51933-001250SAO  +0138EGUA V0200201N007710060019N0048001N9+00081+00081102201ADDGA1081+006009059GF108991999999999999999999MA1999999100411MW1051
0066036553999991953010404004+51933-001250SAO  +0138EGUA V0200201N007710075019N0048001N9+00081+00081102241ADDGA1081+007509059GF108991999999999999999999MA1999999100441MW1051
0066036553999991953010405004+51933-001250SAO  +0138EGUA V0200201N008710075019N0048001N9+00131+00131102271ADDGA1081+007509059GF108991999999999999999999MA1999999100471MW1051
0072036553999991953010406004+51933-001250SAO  +0138EGUA V0200201N006710075019N0048001N9+00131+00021102301ADDGA1061+007509059GF107991999999999999999999MA1999999100511MW1051MW2801
0066036553999991953010407004+51933-001250SAO  +0138EGUA V0200501N007710075019N0048001N9+00131+00021102371ADDGA1061+007509059GF107991999999999999999999MA1999999100581MW1051
0066036553999991953010408004+51933-001250SAO  +0138EGUA V0200501N006210075019N0048001N9+00131+00021102471ADDGA1061+007509059GF107991999999999999999999MA1999999100681MW1051
0066036553999991953010409004+51933-001250SAO  +0138EGUA V0200501N005110060019N0064001N9+00131+00021102541ADDGA1081+006009059GF108991999999999999999999MA1999999100751MW1051
0082036553999991953010410004+51933-001250SAO  +0138EGUA V0200201N004110054019N0064001N9+00131+00021102571ADDGA1061+005409059GA2021+007509059GF108991999999999999999999MA1999999100781MW1051
0066036553999991953010411004+51933-001250SAO  +0138EGUA V0200201N005710060019N0064001N9+00191+00131102611ADDGA1081+006009059GF108991999999999999999999MA1999999100811MW1051
0103036553999991953010412004+51933-001250SAO  +0138EGUA V0200201N006210060019N0064001N9+00191-00091102611ADDAA124999929GA1081+006009059GF108991999999999999999999KA1999M+00301KA2999N-00201MA1999999100811MW1051
0066036553999991953010413004+51933-001250SAO  +0138EGUA V0200201N005110075019N0096001N9+00191+00131102641ADDGA1081+007509059GF108991999999999999999999MA1999999100851MW1051
0066036553999991953010414004+51933-001250SAO  +0138EGUA V0200201N004610075019N0096001N9+00241+00021102681ADDGA1081+007509059GF108991999999999999999999MA1999999100881MW1051
0066036553999991953010415004+51933-001250SAO  +0138EGUA V0200201N005110075019N0080001N9+00241-00041102711ADDGA1081+007509059GF108991999999999999999999MA1999999100911MW1051
0066036553999991953010416004+51933-001250SAO  +0138EGUA V0200201N005110054019N0080001N9+00191-00041102741ADDGA1071+005409059GF107991999999999999999999MA1999999100951MW1051
0066036553999991953010417004+51933-001250SAO  +0138EGUA V0200201N004110054019N0080001N9+00191-00091102781ADDGA1071+005409059GF107991999999999999999999MA1999999100981MW1051
0066036553999991953010418004+51933-001250SAO  +0138EGUA V0200201N003110054019N0064001N9+00131+00021102711ADDGA1061+005409059GF107991999999999999999999MA1999999100911MW1051
0066036553999991953010419004+51933-001250SAO  +0138EGUA V0200501N004112200019N0064001N9+00081-00041102711ADDGA1001+999999999GF100991999999999999999999MA1999999100911MW1051
0066036553999991953010420004+51933-001250SAO  +0138EGUA V0200201N003112200019N0064001N9+00081-00091102741ADDGA1021+009009059GF102991999999999999999999MA1999999100951MW1051
0066036553999991953010421004+51933-001250SAO  +0138EGUA V0200201N002612200019N0064001N9+00021-00041102741ADDGA1021+009009059GF102991999999999999999999MA1999999100951MW1051
0066036553999991953010422004+51933-001250SAO  +0138EGUA V0200201N002612200019N0064001N9-00041-00091102781ADDGA1021+009009059GF102991999999999999999999MA1999999100981MW1051
0066036553999991953010423004+51933-001250SAO  +0138EGUA V0200201N003612200019N0064001N9-00151-00201102781ADDGA1021+009009059GF102991999999999999999999MA1999999100981MW1051
0066036553999991953010500004+51933-001250SAO  +0138EGUA V0200201N003612200019N0064001N9-00151-00201102811ADDGA1021+009009089GF102991999999999999999999MA1999999101021MW1051
0072036553999991953010501004+51933-001250SAO  +0138EGUA V0203601N002612200019N0032001N9-00201-00201102811ADDGA1001+999999999GF100991999999999999999999MA1999999101021MW1051MW2111
0072036553999991953010502004+51933-001250SAO  +0138EGUA V0203601N003112200019N0032001N9-00261-00261102811ADDGA1001+999999999GF100991999999999999999999MA1999999101021MW1051MW2111
0072036553999991953010503004+51933-001250SAO  +0138EGUA V0203601N002612200019N0024001N9-00311-00311102811ADDGA1001+999999999GF100991999999999999999999MA1999999101021MW1051MW2111
0072036553999991953010504004+51933-001250SAO  +0138EGUA V0200201N004112200019N0024001N9-00311-00371102741ADDGA1001+999999999GF100991999999999999999999MA1999999100951MW1051MW2111
0072036553999991953010505004+51933-001250SAO  +0138EGUA V0200201N004112200019N0008001N9-00311-00371102711ADDGA1001+999999999GF100991999999999999999999MA1999999100911MW1051MW2111
0072036553999991953010506004+51933-001250SAO  +0138EGUA V0203601N004112200019N0008001N9-00311-00371102611ADDGA1001+999999999GF100991999999999999999999MA1999999100811MW1051MW2111
0072036553999991953010507004+51933-001250SAO  +0138EGUA V0203601N003612200019N0012001N9-00311-00371102571ADDGA1031+060009009GF102991999999999999999999MA1999999100781MW1051MW2111
0072036553999991953010508004+51933-001250SAO  +0138EGUA V0203401N001512200019N0010001N9-00311-00371102541ADDGA1021+060009009GF102991999999999999999999MA1999999100751MW1051MW2111
0088036553999991953010509004+51933-001250SAO  +0138EGUA V0202001N001512200019N0006001N9-00371-00421102511ADDGA1011+036009049GA2051+060009009GF107991999999999999999999MA1999999100711MW1051MW2111
0072036553999991953010510004+51933-001250SAO  +0138EGUA V0202301N001512200019N0012001N9-00261-00311102511ADDGA1061+060009009GF107991999999999999999999MA1999999100711MW1051MW2111
0072036553999991953010511004+51933-001250SAO  +0138EGUA V0202001N001510600019N0012001N9-00151-00151102511ADDGA1061+060009009GF107991999999999999999999MA1999999100711MW1051MW2111
0125036553999991953010512004+51933-001250SAO  +0138EGUA V0202301N002110360019N0012001N9+00021-00041102371ADDAA124000591GA1061+036009049GA2021+060009009GF108991999999999999999999KA1999M+00131KA2999N-00371MA1999999100581MW1051MW2111
0088036553999991953010513004+51933-001250SAO  +0138EGUA V0202301N003110360019N0016001N9+00021-00041102301ADDGA1071+036009049GA2011+060009009GF108991999999999999999999MA1999999100511MW1051MW2111
0072036553999991953010514004+51933-001250SAO  +0138EGUA V0202301N003110360019N0016001N9+00081+00021102241ADDGA1081+036009049GF108991999999999999999999MA1999999100441MW1051MW2111
0088036553999991953010515004+51933-001250SAO  +0138EGUA V0202301N003110360019N0016001N9+00021-00041102101ADDGA1021+030009039GA2081+036009049GF108991999999999999999999MA1999999100301MW1051MW2111
0088036553999991953010516004+51933-001250SAO  +0138EGUA V0202301N003110300019N0032001N9+00021+00021102071ADDGA1061+030009049GA2021+036009049GF108991999999999999999999MA1999999100271MW1051MW2111
0094036553999991953010517004+51933-001250SAO  +0138EGUA V0202301N003110210019N0032001N9+00021+00021102001ADDGA1021+006909059GA2081+021009049GF108991999999999999999999MA1999999100201MW1051MW2111MW3711
0078036553999991953010518004+51933-001250SAO  +0138EGUA V0202301N002110039019N0032001N9+00021+00021101831ADDGA1081+003909079GF108991999999999999999999MA1999999100031MW1051MW2111MW3711
0078036553999991953010519004+51933-001250SAO  +0138EGUA V0202301N002610021019N0032001N9-00041-00041101731ADDGA1081+002109079GF108991999999999999999999MA1999999099931MW1051MW2111MW3711
0078036553999991953010520004+51933-001250SAO  +0138EGUA V0202301N004110009019N0032001N9-00041-00041101591ADDGA1091+000909999GF109991999999999999999999MA1999999099801MW1051MW2111MW3711
0078036553999991953010521004+51933-001250SAO  +0138EGUA V0202301N003610006019N0016001N9+00021+00021101491ADDGA1081+000609079GF108991999999999999999999MA1999999099701MW1051MW2111MW3611
0094036553999991953010522004+51933-001250SAO  +0138EGUA V0202001N004110009019N0016001N9+00021+00021101321ADDGA1031+000309079GA2081+000909999GF108991999999999999999999MA1999999099531MW1051MW2111MW3711
0088036553999991953010523004+51933-001250SAO  +0138EGUA V0202301N004110006019N0012001N9+00021+00021101221ADDGA1031+000309079GA2081+000609999GF108991999999999999999999MA1999999099421MW1611MW2711
0088036553999991953010600004+51933-001250SAO  +0138EGUA V0202001N002610006019N0012001N9+00081+00081101151ADDGA1031+000309079GA2081+000609999GF108991999999999999999999MA1999999099391MW1611MW2711
0088036553999991953010601004+51933-001250SAO  +0138EGUA V0202001N002110006019N0012001N9+00081+00081101051ADDGA1031+000309079GA2081+000609999GF108991999999999999999999MA1999999099261MW1611MW2711
0072036553999991953010602004+51933-001250SAO  +0138EGUA V0202301N002610003019N0004001N9+00081+00081100981ADDGA1091+000309999GF109991999999999999999999MA1999999099191MW1611MW2711
0072036553999991953010603004+51933-001250SAO  +0138EGUA V0202301N001510003019N0012001N9+00131+00131100811ADDGA1091+000309999GF109991999999999999999999MA1999999099051MW1611MW2711
0066036553999991953010604004+51933-001250SAO  +0138EGUA V0209991C000010003019N0012001N9+00081+00081100751ADDGA1091+000309999GF109991999999999999999999MA1999999098981MW1451
0072036553999991953010605004+51933-001250SAO  +0138EGUA V0203601N003610003019N0012001N9+00081+00081100641ADDGA1081+000309079GF108991999999999999999999MA1999999098881MW1111MW2611
0072036553999991953010606004+51933-001250SAO  +0138EGUA V0203601N003610003019N0012001N9+00131+00081100611ADDGA1081+000309079GF108991999999999999999999MA1999999098851MW1111MW2611
0072036553999991953010607004+51933-001250SAO  +0138EGUA V0203601N004610009019N0012001N9+00131+00131100581ADDGA1081+000909079GF108991999999999999999999MA1999999098811MW1111MW2611
0066036553999991953010608004+51933-001250SAO  +0138EGUA V0203601N005710021019N0020001N9+00131+00131100581ADDGA1081+002109079GF108991999999999999999999MA1999999098811MW1111
0088036553999991953010609004+51933-001250SAO  +0138EGUA V0200201N006210036019N0016001N9+00081+00081100581ADDGA1041+001809079GA2041+003609059GF108991999999999999999999MA1999999098811MW1111MW2711
0088036553999991953010610004+51933-001250SAO  +0138EGUA V0203601N005710021019N0016001N9+00131+00131100611ADDGA1061+002109079GA2021+003609059GF108991999999999999999999MA1999999098851MW1111MW2611
0088036553999991953010611004+51933-001250SAO  +0138EGUA V0203601N006210018019N0012001N9+00131+00131100641ADDGA1061+001809079GA2021+003609059GF108991999999999999999999MA1999999098881MW1111MW2611
0119036553999991953010612004+51933-001250SAO  +0138EGUA V0200201N006710024019N0016001N9+00191+00131100681ADDAA124007091GA1061+002409079GA2021+003609059GF108991999999999999999999KA1999M+00191KA2999N+00021MA1999999098921MW1111
0082036553999991953010613004+51933-001250SAO  +0138EGUA V0200201N008710024019N0016001N9+00191+00191100681ADDGA1061+002409079GA2021+003609059GF108991999999999999999999MA1999999098921MW1111
0066036553999991953010614004+51933-001250SAO  +0138EGUA V0200201N008710018019N0016001N9+00131+00131100681ADDGA1081+001809079GF108991999999999999999999MA1999999098921MW1111
0078036553999991953010615004+51933-001250SAO  +0138EGUA V0203601N007710018019N0008001N9+00081+00081100711ADDGA1091+001809999GF109991999999999999999999MA1999999098951MW1111MW2611MW3711
0072036553999991953010616004+51933-001250SAO  +0138EGUA V0203601N006210018019N0012001N9+00081+00081100751ADDGA1081+001809079GF108991999999999999999999MA1999999098981MW1111MW2711
0066036553999991953010617004+51933-001250SAO  +0138EGUA V0203601N008710150019N0012001N9+00131+00081100751ADDGA1081+015009059GF108991999999999999999999MA1999999098981MW1111
0066036553999991953010618004+51933-001250SAO  +0138EGUA V0203601N008710150019N0012001N9+00081+00081100851ADDGA1071+015009059GF107991999999999999999999MA1999999099051MW1111
0072036553999991953010619004+51933-001250SAO  +0138EGUA V0203601N007710075019N0016001N9+00081+00081100881ADDGA1071+007509059GF107991999999999999999999MA1999999099091MW1111MW2711
0072036553999991953010620004+51933-001250SAO  +0138EGUA V0203601N008210054019N0016001N9+00081+00081100881ADDGA1081+005409059GF108991999999999999999999MA1999999099091MW1111MW2711
0072036553999991953010621004+51933-001250SAO  +0138EGUA V0203601N008710036019N0016001N9+00081+00081100911ADDGA1081+003609059GF108991999999999999999999MA1999999099121MW1111MW2711
0072036553999991953010622004+51933-001250SAO  +0138EGUA V0203601N009310030019N0012001N9+00081+00081100951ADDGA1081+003009059GF108991999999999999999999MA1999999099151MW1111MW2711
0072036553999991953010623004+51933-001250SAO  +0138EGUA V0200201N008710045019N0016001N9+00081+00081100981ADDGA1081+004509059GF108991999999999999999999MA1999999099191MW1111MW2711
0072036553999991953010700004+51933-001250SAO  +0138EGUA V0200501N007710021019N0028001N9+00021+00021101081ADDGA1081+002109079GF108991999999999999999999MA1999999099291MW1111MW2711
0072036553999991953010701004+51933-001250SAO  +0138EGUA V0200501N006210021019N0028001N9+00021+00021101191ADDGA1081+002109079GF108991999999999999999999MA1999999099391MW1111MW2711
0072036553999991953010702004+51933-001250SAO  +0138EGUA V0200701N008210039019N0028001N9+00021+00021101321ADDGA1081+003909079GF108991999999999999999999MA1999999099531MW1111MW2711
0082036553999991953010703004+51933-001250SAO  +0138EGUA V0200501N005110075019N0032001N9+00021+00021101421ADDGA1051+003009079GA2081+007509059GF108991999999999999999999MA1999999099631MW1111
0066036553999991953010704004+51933-001250SAO  +0138EGUA V0200501N004610096019N0040001N9-00041-00041101461ADDGA1081+009609059GF108991999999999999999999MA1999999099661MW1111
0082036553999991953010705004+51933-001250SAO  +0138EGUA V0200501N003110084019N0048001N9-00041-00041101521ADDGA1021+003009079GA2081+008409059GF108991999999999999999999MA1999999099731MW1051
0078036553999991953010706004+51933-001250SAO  +0138EGUA V0200201N004610063019N0048001N9-00041-00041101561ADDGA1081+006309059GF108991999999999999999999MA1999999099761MW1051MW2111MW3711
0072036553999991953010707004+51933-001250SAO  +0138EGUA V0200201N003110060019N0048001N9-00041-00091101631ADDGA1081+006009059GF108991999999999999999999MA1999999099831MW1051MW2711
0072036553999991953010708004+51933-001250SAO  +0138EGUA V0203601N002610060019N0048001N9-00041-00041101731ADDGA1081+006009059GF108991999999999999999999MA1999999099931MW1051MW2711
0066036553999991953010709004+51933-001250SAO  +0138EGUA V0200201N004610027019N0032001N9-00041-00041101831ADDGA1081+002709079GF108991999999999999999999MA1999999100031MW1051
0072036553999991953010710004+51933-001250SAO  +0138EGUA V0200201N005110060019N0020001N9+00021+00021101861ADDGA1081+006009079GF108991999999999999999999MA1999999100071MW1051MW2711
0066036553999991953010711004+51933-001250SAO  +0138EGUA V0200201N005710060019N0040001N9+00021+00021101931ADDGA1081+006009059GF108991999999999999999999MA1999999100141MW1051
0103036553999991953010712004+51933-001250SAO  +0138EGUA V0200201N004610060019N0040001N9+00021+00021101961ADDAA124999929GA1061+006009059GF107991999999999999999999KA1999M+00081KA2999N-00091MA1999999100171MW1051
0066036553999991953010713004+51933-001250SAO  +0138EGUA V0200201N005110060019N0040001N9+00081+00081101961ADDGA1061+006009059GF107991999999999999999999MA1999999100171MW1051
0066036553999991953010714004+51933-001250SAO  +0138EGUA V0200201N004610060019N0048001N9+00081-00041102001ADDGA1081+006009059GF108991999999999999999999MA1999999100201MW1051
0066036553999991953010715004+51933-001250SAO  +0138EGUA V0200201N004610060019N0040001N9+00081-00041102071ADDGA1081+006009059GF108991999999999999999999MA1999999100271MW1051
0066036553999991953010716004+51933-001250SAO  +0138EGUA V0200201N004112200019N0040001N9+00081-00041102101ADDGA1041+009009059GF102991999999999999999999MA1999999100301MW1051
0066036553999991953010717004+51933-001250SAO  +0138EGUA V0203601N004112200019N0016001N9-00041-00041102101ADDGA1041+009009059GF102991999999999999999999MA1999999100301MW1051
0066036553999991953010718004+51933-001250SAO  +0138EGUA V0203601N004112200019N0016001N9-00041-00041102131ADDGA1041+009009059GF102991999999999999999999MA1999999100341MW1051
0066036553999991953010719004+51933-001250SAO  +0138EGUA V0203601N004112200019N0016001N9-00041-00041102131ADDGA1001+999999999GF100991999999999999999999MA1999999100341MW1051
0066036553999991953010720004+51933-001250SAO  +0138EGUA V0203401N004112200019N0032001N9-00091-00091102131ADDGA1001+999999999GF100991999999999999999999MA1999999100341MW1051
0066036553999991953010721004+51933-001250SAO  +0138EGUA V0203401N003612200019N0032001N9-00091-00091102131ADDGA1001+999999999GF100991999999999999999999MA1999999100341MW1051
0066036553999991953010722004+51933-001250SAO  +0138EGUA V0203401N003610150019N0032001N9-00041-00151102131ADDGA1071+015009059GF107991999999999999999999MA1999999100341MW1051
0072036553999991953010723004+51933-001250SAO  +0138EGUA V0203401N003610090019N0024001N9+00021+00021102131ADDGA1081+009009059GF108991999999999999999999MA1999999100341MW1051MW2111
0072036553999991953010800004+51933-001250SAO  +0138EGUA V0203601N004610045019N0024001N9+00081-00041102101ADDGA1081+004509059GF108991999999999999999999MA1999999100301MW1051MW2111
0078036553999991953010801004+51933-001250SAO  +0138EGUA V0203401N003110054019N0016001N9+00081+00021102101ADDGA1081+005409059GF108991999999999999999999MA1999999100301MW1051MW2111MW3511
0072036553999991953010802004+51933-001250SAO  +0138EGUA V0203401N004612200019N0012001N9+00021+00021102071ADDGA1031+007509059GF102991999999999999999999MA1999999100271MW1051MW2111
0072036553999991953010803004+51933-001250SAO  +0138EGUA V0203401N005112200019N0012001N9+00021+00021102071ADDGA1041+007509059GF102991999999999999999999MA1999999100271MW1051MW2111
0072036553999991953010804004+51933-001250SAO  +0138EGUA V0203601N004110069019N0012001N9+00021+00021102071ADDGA1061+006909059GF107991999999999999999999MA1999999100271MW1051MW2111
0072036553999991953010805004+51933-001250SAO  +0138EGUA V0203401N004610069019N0016001N9+00021-00041102071ADDGA1081+006909059GF108991999999999999999999MA1999999100271MW1051MW2111
0088036553999991953010806004+51933-001250SAO  +0138EGUA V0203601N004110120019N0016001N9+00081-00041102131ADDGA1021+006909059GA2061+012009059GF108991999999999999999999MA1999999100371MW1051MW2111
0088036553999991953010807004+51933-001250SAO  +0138EGUA V0203601N003610105019N0016001N9+00021-00041102201ADDGA1021+007509059GA2061+010509059GF107991999999999999999999MA1999999100411MW1051MW2111
0088036553999991953010808004+51933-001250SAO  +0138EGUA V0203601N003110075019N0012001N9+00021-00041102201ADDGA1031+006009059GA2081+007509059GF108991999999999999999999MA1999999100411MW1051MW2111
0088036553999991953010809004+51933-001250SAO  +0138EGUA V0203201N002610090019N0016001N9+00081+00021102241ADDGA1021+004509059GA2031+009009059GF107991999999999999999999MA1999999100441MW1051MW2111
0072036553999991953010810004+51933-001250SAO  +0138EGUA V0203601N003112200019N0016001N9+00021-00041102241ADDGA1041+018009059GF102991999999999999999999MA1999999100441MW1051MW2111
0088036553999991953010811004+51933-001250SAO  +0138EGUA V0203201N002610060019N0016001N9+00081+00021102241ADDGA1051+006009079GA2021+015009059GF107991999999999999999999MA1999999100441MW1051MW2111
0109036553999991953010812004+51933-001250SAO  +0138EGUA V0203401N004610060019N0016001N9+00131+00081102201ADDAA124999929GA1061+006009059GF107991999999999999999999KA1999M+00241KA2999N-00041MA1999999100411MW1051MW2111
0088036553999991953010813004+51933-001250SAO  +0138EGUA V0203401N002112200019N0032001N9+00241+00131102201ADDGA1021+013509059GA2051+054009009GF107991999999999999999999MA1999999100371MW1051MW2111
0072036553999991953010814004+51933-001250SAO  +0138EGUA V0209991C000012200019N0040001N9+00241+00131102131ADDGA1061+054009009GF107991999999999999999999MA1999999100341MW1051MW2111
0066036553999991953010815004+51933-001250SAO  +0138EGUA V0209991C000012200019N0048001N9+00191+00131102131ADDGA1051+054009009GF107991999999999999999999MA1999999100341MW1051
0066036553999991953010816004+51933-001250SAO  +0138EGUA V0209991C000012200019N0048001N9+00241+00021102131ADDGA1051+054009009GF107991999999999999999999MA1999999100341MW1051
0066036553999991953010817004+51933-001250SAO  +0138EGUA V0202001N001512200019N0024001N9+00131+00021102131ADDGA1021+030009039GF102991999999999999999999MA1999999100341MW1051
0066036553999991953010818004+51933-001250SAO  +0138EGUA V0202001N002112200019N0024001N9+00081-00041102071ADDGA1021+030009039GF102991999999999999999999MA1999999100271MW1051
0066036553999991953010819004+51933-001250SAO  +0138EGUA V0202001N002612200019N0024001N9+00021-00041102071ADDGA1001+999999999GF100991999999999999999999MA1999999100271MW1051
0072036553999991953010820004+51933-001250SAO  +0138EGUA V0202301N003112200019N0020001N9+00021-00041102071ADDGA1001+999999999GF100991999999999999999999MA1999999100271MW1051MW2111
0088036553999991953010821004+51933-001250SAO  +0138EGUA V0202001N002112200019N0020001N9+00021-00041102031ADDGA1021+030009049GA2021+060009029GF102991999999999999999999MA1999999100241MW1051MW2111
0088036553999991953010822004+51933-001250SAO  +0138EGUA V0202301N003612200019N0020001N9+00021-00041102031ADDGA1011+030009049GA2021+060009029GF102991999999999999999999MA1999999100241MW1051MW2111
0088036553999991953010823004+51933-001250SAO  +0138EGUA V0202301N001512200019N0020001N9-00091-00091102001ADDGA1011+030009049GA2021+060009029GF102991999999999999999999MA1999999100201MW1051MW2111
0088036553999991953010900004+51933-001250SAO  +0138EGUA V0202301N003112200019N0016001N9-00041-00091101961ADDGA1011+030009049GA2021+060009029GF102991999999999999999999MA1999999100171MW1051MW2111
0088036553999991953010901004+51933-001250SAO  +0138EGUA V0202501N003112200019N0016001N9-00091-00091101901ADDGA1021+030009049GA2021+060009029GF102991999999999999999999MA1999999100101MW1051MW2111
0088036553999991953010902004+51933-001250SAO  +0138EGUA V0202501N003110300019N0016001N9-00041-00041101861ADDGA1051+030009049GA2021+060009029GF107991999999999999999999MA1999999100071MW1051MW2111
0078036553999991953010903004+51933-001250SAO  +0138EGUA V0202501N003110300019N0016001N9+00081+00081101861ADDGA1081+030009049GF108991999999999999999999MA1999999100071MW1051MW2111MW3611
0072036553999991953010904004+51933-001250SAO  +0138EGUA V0202501N002610300019N0016001N9+00081+00081101801ADDGA1061+030009049GF107991999999999999999999MA1999999100001MW1051MW2111
0078036553999991953010905004+51933-001250SAO  +0138EGUA V0209991C000010120019N0016001N9+00131+00131101761ADDGA1081+012009079GF108991999999999999999999MA1999999099971MW1051MW2111MW3611
0078036553999991953010906004+51933-001250SAO  +0138EGUA V0202701N001510090019N0016001N9+00131+00131101801ADDGA1081+009009079GF108991999999999999999999MA1999999100001MW1051MW2111MW3611
0078036553999991953010907004+51933-001250SAO  +0138EGUA V0202901N001510009019N0016001N9+00191+00191101801ADDGA1081+000909079GF108991999999999999999999MA1999999100001MW1051MW2111MW3511
0078036553999991953010908004+51933-001250SAO  +0138EGUA V0202701N003610009019N0006001N9+00191+00191101801ADDGA1081+000909079GF108991999999999999999999MA1999999100001MW1051MW2111MW3511
0088036553999991953010909004+51933-001250SAO  +0138EGUA V0202701N003110027019N0004001N9+00191+00191101831ADDGA1031+999999999GA2081+002709079GF108991999999999999999999MA1999999100031MW1451MW2511
0088036553999991953010910004+51933-001250SAO  +0138EGUA V0202701N003610042019N0004001N9+00241+00241101861ADDGA1031+999999999GA2081+004209079GF108991999999999999999999MA1999999100071MW1451MW2511
0082036553999991953010911004+51933-001250SAO  +0138EGUA V0202701N004110120019N0006001N9+00301+00301101861ADDGA1031+999999999GA2081+012009059GF108991999999999999999999MA1999999100071MW1451
0119036553999991953010912004+51933-001250SAO  +0138EGUA V0202701N003610120019N0010001N9+00351+00351101861ADDAA124000391GA1031+999999999GA2081+012009059GF108991999999999999999999KA1999M+00521KA2999N-00091MA1999999100101MW1451
0082036553999991953010913004+51933-001250SAO  +0138EGUA V0202701N003610135019N0016001N9+00461+00461101861ADDGA1031+007509059GA2021+013509059GF107991999999999999999999MA1999999100101MW1111
0082036553999991953010914004+51933-001250SAO  +0138EGUA V0202701N003610105019N0024001N9+00521+00521101861ADDGA1021+003009079GA2061+010509059GF108991999999999999999999MA1999999100101MW1111
0066036553999991953010915004+51933-001250SAO  +0138EGUA V0202301N001510105019N0012001N9+00521+00521101831ADDGA1081+010509059GF108991999999999999999999MA1999999100101MW1111
0066036553999991953010916004+51933-001250SAO  +0138EGUA V0202501N002110090019N0016001N9+00461+00461101851ADDGA1081+009009059GF108991999999999999999999MA1999999100101MW1111
0066036553999991953010917004+51933-001250SAO  +0138EGUA V0202701N002110027019N0016001N9+00461+00461101851ADDGA1081+002709059GF108991999999999999999999MA1999999100101MW1111
0066036553999991953010918004+51933-001250SAO  +0138EGUA V0202701N001510009019N0004001N9+00461+00461101851ADDGA1091+000909999GF109991999999999999999999MA1999999100101MW1451
0072036553999991953010919004+51933-001250SAO  +0138EGUA V0202501N001510003019N0002001N9+00461+00461101851ADDGA1091+000309999GF109991999999999999999999MA1999999100101MW1451MW2511
0088036553999991953010920004+51933-001250SAO  +0138EGUA V0202701N002110027019N0003001N9+00461+00461101851ADDGA1021+999999999GA2081+002709079GF108991999999999999999999MA1999999100101MW1451MW2511
0082036553999991953010921004+51933-001250SAO  +0138EGUA V0203201N003110018019N0003001N9+00461+00461101851ADDGA1021+999999999GA2081+001809079GF108991999999999999999999MA1999999100101MW1451
0066036553999991953010922004+51933-001250SAO  +0138EGUA V0203401N003110003019N0002001N9+00461+00461101851ADDGA1091+000309999GF109991999999999999999999MA1999999100101MW1451
0066036553999991953010923004+51933-001250SAO  +0138EGUA V0203401N001510006019N0002001N9+00461+00461101851ADDGA1091+000609999GF109991999999999999999999MA1999999100101MW1451
0066036553999991953011000004+51933-001250SAO  +0138EGUA V0202901N001510003019N0001001N9+00461+00461101891ADDGA1091+000309999GF109991999999999999999999MA1999999100141MW1451
0066036553999991953011001004+51933-001250SAO  +0138EGUA V0209991C000010003019N0000001N9+00461+00461101891ADDGA1091+000309999GF109991999999999999999999MA1999999100141MW1451
0066036553999991953011002004+51933-001250SAO  +0138EGUA V0209991C000010003019N0001001N9+00461+00461101891ADDGA1091+000309999GF109991999999999999999999MA1999999100141MW1451
0082036553999991953011003004+51933-001250SAO  +0138EGUA V0202701N003110060019N0001001N9+00461+00461101921ADDGA1021+999999999GA2081+006009059GF108991999999999999999999MA1999999100171MW1451
0066036553999991953011004004+51933-001250SAO  +0138EGUA V0202901N004610060019N0016001N9+00461+00461101921ADDGA1081+006009059GF108991999999999999999999MA1999999100171MW1111
0066036553999991953011005004+51933-001250SAO  +0138EGUA V0203401N004110036019N0016001N9+00461+00461101921ADDGA1081+003609059GF108991999999999999999999MA1999999100171MW1111
0066036553999991953011006004+51933-001250SAO  +0138EGUA V0203401N004610030019N0016001N9+00521+00521101921ADDGA1081+003009059GF108991999999999999999999MA1999999100171MW1111
0066036553999991953011007004+51933-001250SAO  +0138EGUA V0203401N003110030019N0016001N9+00521+00521101991ADDGA1081+003009059GF108991999999999999999999MA1999999100241MW1111
0066036553999991953011008004+51933-001250SAO  +0138EGUA V0203401N002610030019N0016001N9+00461+00461102021ADDGA1081+003009059GF108991999999999999999999MA1999999100271MW1111
0066036553999991953011009004+51933-001250SAO  +0138EGUA V0202901N003110039019N0016001N9+00461+00461102091ADDGA1081+003909059GF108991999999999999999999MA1999999100341MW1111
0082036553999991953011010004+51933-001250SAO  +0138EGUA V0203201N003110042019N0036001N9+00581+00521102091ADDGA1021+003009059GA2061+004209059GF108991999999999999999999MA1999999100341MW1111
0088036553999991953011011004+51933-001250SAO  +0138EGUA V0209991C000010054019N0064001N9+00581+00581102131ADDGA1031+004209059GA2051+005409059GF108991999999999999999999MA1999999100371MW1051MW2111
0125036553999991953011012004+51933-001250SAO  +0138EGUA V0203401N002110024019N0048001N9+00631+00581102171ADDAA124999929GA1031+001809079GA2051+002409059GF108991999999999999999999KA1999M+00691KA2999N+00461MA1999999100411MW1051MW2111
0094036553999991953011013004+51933-001250SAO  +0138EGUA V0203401N002610024019N0016001N9+00631+00631102191ADDGA1031+001809079GA2051+002409059GF108991999999999999999999MA1999999100441MW1051MW2111MW3801
0094036553999991953011014004+51933-001250SAO  +0138EGUA V0209991C000010015019N0010001N9+00691+00691102241ADDGA1031+000609079GA2051+001509079GF108991999999999999999999MA1999999100471MW1051MW2111MW3511
0072036553999991953011015004+51933-001250SAO  +0138EGUA V0209991C000010039019N0006001N9+00631+00631102241ADDGA1091+003909999GF109991999999999999999999MA1999999100471MW1451MW2511
0072036553999991953011016004+51933-001250SAO  +0138EGUA V0209991C000010030019N0004001N9+00631+00631102271ADDGA1091+003009999GF109991999999999999999999MA1999999100511MW1451MW2511
0072036553999991953011017004+51933-001250SAO  +0138EGUA V0209991C000010021019N0003001N9+00631+00631102341ADDGA1091+002109999GF109991999999999999999999MA1999999100581MW1451MW2511
0066036553999991953011018004+51933-001250SAO  +0138EGUA V0209991C000010009019N0003001N9+00631+00631102341ADDGA1091+000909999GF109991999999999999999999MA1999999100611MW1451
0072036553999991953011019004+51933-001250SAO  +0138EGUA V0201801N001510009019N0003001N9+00631+00631102401ADDGA1091+000909999GF109991999999999999999999MA1999999100641MW1451MW2511
0072036553999991953011020004+51933-001250SAO  +0138EGUA V0209991C000010003019N0003001N9+00581+00581102441ADDGA1091+000309999GF109991999999999999999999MA1999999100681MW1451MW2511
0072036553999991953011021004+51933-001250SAO  +0138EGUA V0209991C000010003019N0003001N9+00581+00581102471ADDGA1091+000309999GF109991999999999999999999MA1999999100711MW1451MW2511
0066036553999991953011022004+51933-001250SAO  +0138EGUA V0209991C000010003019N0001001N9+00581+00581102511ADDGA1091+000309999GF109991999999999999999999MA1999999100751MW1451
0066036553999991953011023004+51933-001250SAO  +0138EGUA V0201801N002110003019N0001001N9+00581+00581102511ADDGA1091+000309999GF109991999999999999999999MA1999999100751MW1451
0066036553999991953011100004+51933-001250SAO  +0138EGUA V0209991C000010003019N0001001N9+00581+00581102511ADDGA1091+000309999GF109991999999999999999999MA1999999100781MW1451
0066036553999991953011101004+51933-001250SAO  +0138EGUA V0209991C000010003019N0001001N9+00581+00581102571ADDGA1091+000309999GF109991999999999999999999MA1999999100811MW1451
0082036553999991953011102004+51933-001250SAO  +0138EGUA V0201801N002110006019N0008001N9+00581+00581102571ADDGA1061+000609079GA2021+000909079GF108991999999999999999999MA1999999100811MW1111
0082036553999991953011103004+51933-001250SAO  +0138EGUA V0201801N001510006019N0010001N9+00581+00581102611ADDGA1061+000609079GA2021+000909079GF108991999999999999999999MA1999999100851MW1111
0082036553999991953011104004+51933-001250SAO  +0138EGUA V0202001N003110006019N0010001N9+00581+00581102601ADDGA1061+000609079GA2021+000909079GF108991999999999999999999MA1999999100851MW1111
0072036553999991953011105004+51933-001250SAO  +0138EGUA V0201801N002110006019N0003001N9+00581+00581102611ADDGA1091+000609999GF109991999999999999999999MA1999999100851MW1451MW2511
0072036553999991953011106004+51933-001250SAO  +0138EGUA V0201801N003610006019N0003001N9+00581+00581102571ADDGA1091+000609999GF109991999999999999999999MA1999999100811MW1451MW2511
0066036553999991953011107004+51933-001250SAO  +0138EGUA V0201801N004110006019N0012001N9+00521+00521102681ADDGA1091+000609999GF109991999999999999999999MA1999999100881MW1451
0082036553999991953011108004+51933-001250SAO  +0138EGUA V0201801N005110012019N0012001N9+00521+00521102701ADDGA1041+000609079GA2081+001209079GF108991999999999999999999MA1999999100951MW1111
0082036553999991953011109004+51933-001250SAO  +0138EGUA V0201801N005110012019N0012001N9+00521+00521102771ADDGA1041+000609079GA2081+001209079GF108991999999999999999999MA1999999101021MW1111
0082036553999991953011110004+51933-001250SAO  +0138EGUA V0201801N005110012019N0012001N9+00581+00521102771ADDGA1031+000609079GA2081+001209079GF108991999999999999999999MA1999999101021MW1111
0082036553999991953011111004+51933-001250SAO  +0138EGUA V0201801N005710012019N0012001N9+00581+00581102771ADDGA1031+000609079GA2081+001209079GF108991999999999999999999MA1999999101021MW1111
0119036553999991953011112004+51933-001250SAO  +0138EGUA V0201801N005710012019N0012001N9+00631+00581102701ADDAA124999929GA1031+000609079GA2081+001209079GF108991999999999999999999KA1999M+00691KA2999N+00521MA1999999100951MW1111
0082036553999991953011113004+51933-001250SAO  +0138EGUA V0201801N005110012019N0010001N9+00631+00631102701ADDGA1031+000609079GA2081+001209079GF108991999999999999999999MA1999999100951MW1111
0082036553999991953011114004+51933-001250SAO  +0138EGUA V0201801N002110015019N0012001N9+00691+00631102701ADDGA1031+000609079GA2081+001509079GF108991999999999999999999MA1999999100951MW1111
0082036553999991953011115004+51933-001250SAO  +0138EGUA V0201801N004110024019N0012001N9+00691+00631102701ADDGA1031+000909079GA2081+002409079GF108991999999999999999999MA1999999100951MW1111
0082036553999991953011116004+51933-001250SAO  +0138EGUA V0202001N002110018019N0012001N9+00691+00631102701ADDGA1031+001209079GA2081+001809079GF108991999999999999999999MA1999999100951MW1111
0082036553999991953011117004+51933-001250SAO  +0138EGUA V0202001N003610018019N0012001N9+00631+00631102771ADDGA1031+001209079GA2081+001809079GF108991999999999999999999MA1999999100981MW1111
0082036553999991953011118004+51933-001250SAO  +0138EGUA V0201801N004610018019N0016001N9+00631+00581102911ADDGA1021+001209079GA2081+001809079GF108991999999999999999999MA1999999101121MW1111
0066036553999991953011119004+51933-001250SAO  +0138EGUA V0202001N004610018019N0016001N9+00581+00521102951ADDGA1081+001809079GF108991999999999999999999MA1999999101151MW1111
0066036553999991953011120004+51933-001250SAO  +0138EGUA V0201801N002610018019N0016001N9+00631+00581102951ADDGA1081+001809079GF108991999999999999999999MA1999999101151MW1111
0066036553999991953011121004+51933-001250SAO  +0138EGUA V0202301N004610018019N0016001N9+00581+00521102981ADDGA1081+001809079GF108991999999999999999999MA1999999101191MW1111
0082036553999991953011122004+51933-001250SAO  +0138EGUA V0202001N004610018019N0016001N9+00521+00521103011ADDGA1041+001209079GA2081+001809079GF108991999999999999999999MA1999999101221MW1111
0082036553999991953011123004+51933-001250SAO  +0138EGUA V0201801N003110018019N0016001N9+00521+00461103011ADDGA1041+001209079GA2081+001809079GF108991999999999999999999MA1999999101221MW1111
0082036553999991953011200004+51933-001250SAO  +0138EGUA V0202001N004110018019N0016001N9+00521+00461103051ADDGA1031+001209079GA2081+001809079GF108991999999999999999999MA1999999101251MW1111
0066036553999991953011201004+51933-001250SAO  +0138EGUA V0201801N004610024019N0016001N9+00461+00411103051ADDGA1081+002409079GF108991999999999999999999MA1999999101251MW1111
0066036553999991953011202004+51933-001250SAO  +0138EGUA V0201801N003110024019N0016001N9+00461+00411103051ADDGA1081+002409079GF108991999999999999999999MA1999999101251MW1111
0066036553999991953011203004+51933-001250SAO  +0138EGUA V0202001N003610024019N0016001N9+00461+00351103051ADDGA1081+002409079GF108991999999999999999999MA1999999101251MW1111
0066036553999991953011204004+51933-001250SAO  +0138EGUA V0202301N002110024019N0016001N9+00411+00351103081ADDGA1081+002409079GF108991999999999999999999MA1999999101291MW1111
0066036553999991953011205004+51933-001250SAO  +0138EGUA V0202301N004610024019N0016001N9+00411+00301103081ADDGA1081+002409079GF108991999999999999999999MA1999999101291MW1111
0066036553999991953011206004+51933-001250SAO  +0138EGUA V0202001N003110024019N0016001N9+00411+00301103051ADDGA1081+002409079GF108991999999999999999999MA1999999101251MW1111
0066036553999991953011207004+51933-001250SAO  +0138EGUA V0202001N003610021019N0016001N9+00351+00301103071ADDGA1081+002109079GF108991999999999999999999MA1999999101291MW1111
0072036553999991953011208004+51933-001250SAO  +0138EGUA V0202001N003110021019N0040001N9+00351+00301103141ADDGA1081+002109079GF108991999999999999999999MA1999999101351MW1051MW2111
0072036553999991953011209004+51933-001250SAO  +0138EGUA V0202001N002110012019N0040001N9+00411+00301103211ADDGA1081+001209079GF108991999999999999999999MA1999999101421MW1051MW2111
0072036553999991953011210004+51933-001250SAO  +0138EGUA V0202001N003610018019N0040001N9+00351+00241103211ADDGA1081+001809079GF108991999999999999999999MA1999999101421MW1051MW2111
0066036553999991953011211004+51933-001250SAO  +0138EGUA V0202001N003610018019N0064001N9+00351+00301103211ADDGA1081+001809079GF108991999999999999999999MA1999999101421MW1051
0103036553999991953011212004+51933-001250SAO  +0138EGUA V0202301N004610030019N0064001N9+00351+00241103171ADDAA124000091GA1081+003009079GF108991999999999999999999KA1999M+00521KA2999N-00091MA1999999101391MW1051
0066036553999991953011213004+51933-001250SAO  +0138EGUA V0202001N002610030019N0064001N9+00351+00191103141ADDGA1081+003009079GF108991999999999999999999MA1999999101351MW1051
0066036553999991953011214004+51933-001250SAO  +0138EGUA V0202501N002610030019N0064001N9+00351+00241103141ADDGA1081+003009079GF108991999999999999999999MA1999999101351MW1051
0066036553999991953011215004+51933-001250SAO  +0138EGUA V0202501N004610033019N0064001N9+00351+00131103141ADDGA1081+003309079GF108991999999999999999999MA1999999101351MW1051
0066036553999991953011216004+51933-001250SAO  +0138EGUA V0202301N003110036019N0064001N9+00351+00241103141ADDGA1061+003609079GF107991999999999999999999MA1999999101351MW1051
0066036553999991953011217004+51933-001250SAO  +0138EGUA V0202301N001512200019N0048001N9+00301+00241103141ADDGA1021+006009059GF102991999999999999999999MA1999999101351MW1051
0066036553999991953011218004+51933-001250SAO  +0138EGUA V0209991C000012200019N0048001N9+00241+00131103071ADDGA1021+006009059GF102991999999999999999999MA1999999101321MW1051
0066036553999991953011219004+51933-001250SAO  +0138EGUA V0201401N002112200019N0048001N9+00241+00131103071ADDGA1021+006009059GF102991999999999999999999MA1999999101321MW1051
0066036553999991953011220004+51933-001250SAO  +0138EGUA V0209991C000012200019N0048001N9+00191+00131103111ADDGA1051+009009059GF107991999999999999999999MA1999999101321MW1051
0066036553999991953011221004+51933-001250SAO  +0138EGUA V0202001N001512200019N0040001N9+00081+00021103111ADDGA1001+999999999GF100991999999999999999999MA1999999101321MW1051
0066036553999991953011222004+51933-001250SAO  +0138EGUA V0202001N002112200019N0028001N9+00021+00021103121ADDGA1001+999999999GF100991999999999999999999MA1999999101321MW1051
0066036553999991953011223004+51933-001250SAO  +0138EGUA V0209991C000012200019N0012001N9-00041-00041103121ADDGA1001+999999999GF100991999999999999999999MA1999999101321MW1051
0072036553999991953011300004+51933-001250SAO  +0138EGUA V0201801N002112200019N0002001N9-00091-00091103181ADDGA1001+999999999GF100991999999999999999999MA1999999101351MW1051MW2111
0066036553999991953011301004+51933-001250SAO  +0138EGUA V0201801N002610015019N0000001N9-00151-00151103181ADDGA1091+001509999GF109991999999999999999999MA1999999101351MW1451
0066036553999991953011302004+51933-001250SAO  +0138EGUA V0209991C000010015019N0000001N9-00151-00151103181ADDGA1091+001509999GF109991999999999999999999MA1999999101351MW1451
0066036553999991953011303004+51933-001250SAO  +0138EGUA V0209991C000010015019N0000001N9-00151-00151103181ADDGA1091+001509999GF109991999999999999999999MA1999999101351MW1451
0066036553999991953011304004+51933-001250SAO  +0138EGUA V0209991C000010015019N0000001N9-00151-00151103181ADDGA1091+001509999GF109991999999999999999999MA1999999101351MW1451
0066036553999991953011305004+51933-001250SAO  +0138EGUA V0209991C000010015019N0000001N9-00091-00091103151ADDGA1091+001509999GF109991999999999999999999MA1999999101321MW1451
0066036553999991953011306004+51933-001250SAO  +0138EGUA V0209991C000010015019N0001001N9-00091-00091102951ADDGA1091+001509999GF109991999999999999999999MA1999999101151MW1451
0066036553999991953011307004+51933-001250SAO  +0138EGUA V0209991C000010015019N0001001N9-00041-00041102981ADDGA1091+001509999GF109991999999999999999999MA1999999101191MW1451
0066036553999991953011308004+51933-001250SAO  +0138EGUA V0201801N002110009019N0002001N9-00041-00041102981ADDGA1091+000909999GF109991999999999999999999MA1999999101191MW1451
0066036553999991953011309004+51933-001250SAO  +0138EGUA V0201801N001510009019N0001001N9-00091-00091103151ADDGA1091+000909999GF109991999999999999999999MA1999999101321MW1451
0066036553999991953011310004+51933-001250SAO  +0138EGUA V0201801N003110009019N0001001N9-00091-00091103181ADDGA1091+000909999GF109991999999999999999999MA1999999101351MW1451
0066036553999991953011311004+51933-001250SAO  +0138EGUA V0201801N002110009019N0001001N9-00041-00091103181ADDGA1091+000909999GF109991999999999999999999MA1999999101351MW1451
0103036553999991953011312004+51933-001250SAO  +0138EGUA V0201801N002110009019N0001001N9-00091-00091103011ADDAA124000091GA1091+000909999GF109991999999999999999999KA1999M+00081KA2999N-00151MA1999999101221MW1451
0066036553999991953011313004+51933-001250SAO  +0138EGUA V0209991C000010009019N0001001N9-00091-00091103011ADDGA1091+000909999GF109991999999999999999999MA1999999101221MW1451
0066036553999991953011314004+51933-001250SAO  +0138EGUA V0202001N001510012019N0002001N9+00021+00021102981ADDGA1091+001209999GF109991999999999999999999MA1999999101191MW1451
0066036553999991953011315004+51933-001250SAO  +0138EGUA V0209991C000010012019N0002001N9+00021+00021102981ADDGA1091+001209999GF109991999999999999999999MA1999999101191MW1451
0066036553999991953011316004+51933-001250SAO  +0138EGUA V0209991C000010012019N0001001N9+00081+00081102981ADDGA1091+001209999GF109991999999999999999999MA1999999101191MW1451
0066036553999991953011317004+51933-001250SAO  +0138EGUA V0202301N001510012019N0001001N9+00081+00081102981ADDGA1091+001209999GF109991999999999999999999MA1999999101191MW1451
0066036553999991953011318004+51933-001250SAO  +0138EGUA V0209991C000010012019N0001001N9+00021+00021102811ADDGA1091+001209999GF109991999999999999999999MA1999999101021MW1451
0066036553999991953011319004+51933-001250SAO  +0138EGUA V0209991C000010012019N0001001N9+00021+00021102811ADDGA1091+001209999GF109991999999999999999999MA1999999101021MW1451
0066036553999991953011320004+51933-001250SAO  +0138EGUA V0209991C000010001519N0000001N9+00021+00021102811ADDGA1091+000159999GF109991999999999999999999MA1999999101021MW1451
0066036553999991953011321004+51933-001250SAO  +0138EGUA V0202301N002110001519N0000001N9-00041-00041102811ADDGA1091+000159999GF109991999999999999999999MA1999999101021MW1451
0066036553999991953011322004+51933-001250SAO  +0138EGUA V0209991C000010001519N0000001N9-00041-00041102781ADDGA1091+000159999GF109991999999999999999999MA1999999100981MW1451
0066036553999991953011323004+51933-001250SAO  +0138EGUA V0202301N001510001519N0000001N9-00091-00091102781ADDGA1091+000159999GF109991999999999999999999MA1999999100981MW1451
0066036553999991953011400004+51933-001250SAO  +0138EGUA V0209991C000010001519N0000001N9-00091-00091102741ADDGA1091+000159999GF109991999999999999999999MA1999999100951MW1451
0066036553999991953011401004+51933-001250SAO  +0138EGUA V0209991C000010001519N0000001N9-00151-00151102711ADDGA1091+000159999GF109991999999999999999999MA1999999100911MW1451
0066036553999991953011402004+51933-001250SAO  +0138EGUA V0209991C000010001519N0000001N9-00151-00151102711ADDGA1091+000159999GF109991999999999999999999MA1999999100911MW1451
0066036553999991953011403004+51933-001250SAO  +0138EGUA V0209991C000010001519N0000001N9-00091-00091102711ADDGA1091+000159999GF109991999999999999999999MA1999999100911MW1451
0066036553999991953011404004+51933-001250SAO  +0138EGUA V0209991C000010001519N0000001N9-00091-00091102681ADDGA1091+000159999GF109991999999999999999999MA1999999100881MW1451
0066036553999991953011405004+51933-001250SAO  +0138EGUA V0209991C000010001519N0012001N9-00091-00091102641ADDGA1091+000159999GF109991999999999999999999MA1999999100851MW1451
0072036553999991953011406004+51933-001250SAO  +0138EGUA V0209991C000010015019N0012001N9-00041-00041102611ADDGA1081+001509079GF108991999999999999999999MA1999999100811MW1111MW2611
0066036553999991953011407004+51933-001250SAO  +0138EGUA V0209991C000010015019N0012001N9-00041-00041102611ADDGA1081+001509079GF108991999999999999999999MA1999999100811MW1111
0066036553999991953011408004+51933-001250SAO  +0138EGUA V0209991C000010015019N0010001N9-00041-00041102641ADDGA1081+001509079GF108991999999999999999999MA1999999100851MW1111
0066036553999991953011409004+51933-001250SAO  +0138EGUA V0209991C000010015019N0008001N9+00021+00021102641ADDGA1081+001509079GF108991999999999999999999MA1999999100851MW1111
0066036553999991953011410004+51933-001250SAO  +0138EGUA V0209991C000010012019N0005001N9+00021+00021102681ADDGA1091+001209999GF109991999999999999999999MA1999999100881MW1451
0066036553999991953011411004+51933-001250SAO  +0138EGUA V0209991C000010009019N0001001N9+00301+00191102641ADDGA1091+000909999GF109991999999999999999999MA1999999100811MW1451
0103036553999991953011412004+51933-001250SAO  +0138EGUA V0209991C000010009019N0001001N9+00191+00191102641ADDAA124999929GA1091+000909999GF109991999999999999999999KA1999M+00351KA2999N-00201MA1999999100851MW1451
0066036553999991953011413004+51933-001250SAO  +0138EGUA V0209991C000010009019N0001001N9+00241+00241102641ADDGA1091+000909999GF109991999999999999999999MA1999999100851MW1451
0066036553999991953011414004+51933-001250SAO  +0138EGUA V0209991C000010009019N0001001N9+00301+00301102611ADDGA1091+000909999GF109991999999999999999999MA1999999100811MW1451
0066036553999991953011415004+51933-001250SAO  +0138EGUA V0209991C000010009019N0002001N9+00351+00351102611ADDGA1091+000909999GF109991999999999999999999MA1999999100811MW1451
0066036553999991953011416004+51933-001250SAO  +0138EGUA V0209991C000010009019N0001001N9+00301+00301102611ADDGA1091+000909999GF109991999999999999999999MA1999999100811MW1451
0066036553999991953011417004+51933-001250SAO  +0138EGUA V0209991C000010003019N0001001N9+00301+00301102641ADDGA1091+000309999GF109991999999999999999999MA1999999100851MW1451
0066036553999991953011418004+51933-001250SAO  +0138EGUA V0209991C000010003019N0001001N9+00241+00241102681ADDGA1091+000309999GF109991999999999999999999MA1999999100881MW1451
0066036553999991953011419004+51933-001250SAO  +0138EGUA V0209991C000010003019N0001001N9+00241+00241102681ADDGA1091+000309999GF109991999999999999999999MA1999999100881MW1451
0066036553999991953011420004+51933-001250SAO  +0138EGUA V0202701N002610003019N0001001N9+00191+00191102681ADDGA1091+000309999GF109991999999999999999999MA1999999100881MW1451
0066036553999991953011421004+51933-001250SAO  +0138EGUA V0209991C000010003019N0001001N9+00191+00191102681ADDGA1091+000309999GF109991999999999999999999MA1999999100881MW1451
0066036553999991953011422004+51933-001250SAO  +0138EGUA V0202501N001510003019N0001001N9+00191+00191102641ADDGA1091+000309999GF109991999999999999999999MA1999999100851MW1451
0066036553999991953011423004+51933-001250SAO  +0138EGUA V0202701N002110003019N0001001N9+00021+00021102641ADDGA1091+000309999GF109991999999999999999999MA1999999100851MW1451
0066036553999991953011500004+51933-001250SAO  +0138EGUA V0209991C000010009019N0001001N9+00081+00081102611ADDGA1091+000909999GF109991999999999999999999MA1999999100811MW1451
0066036553999991953011501004+51933-001250SAO  +0138EGUA V0202301N003110009019N0001001N9+00081+00081102611ADDGA1091+000909999GF109991999999999999999999MA1999999100811MW1451
0072036553999991953011502004+51933-001250SAO  +0138EGUA V0202301N002110009019N0001001N9+00131+00131102611ADDGA1091+000909999GF109991999999999999999999MA1999999100811MW1451MW2511
0072036553999991953011503004+51933-001250SAO  +0138EGUA V0202301N002110009019N0001001N9+00131+00131102611ADDGA1091+000909999GF109991999999999999999999MA1999999100811MW1451MW2511
0072036553999991953011504004+51933-001250SAO  +0138EGUA V0202301N004110009019N0001001N9+00081+00081102571ADDGA1091+000909999GF109991999999999999999999MA1999999100781MW1451MW2511
0072036553999991953011505004+51933-001250SAO  +0138EGUA V0202501N003110009019N0002001N9+00081+00081102511ADDGA1091+000909999GF109991999999999999999999MA1999999100711MW1451MW2511
0072036553999991953011506004+51933-001250SAO  +0138EGUA V0202301N003610009019N0002001N9+00131+00131102441ADDGA1091+000909999GF109991999999999999999999MA1999999100641MW1451MW2511
0066036553999991953011507004+51933-001250SAO  +0138EGUA V0202301N004610009019N0002001N9+00191+00191102401ADDGA1091+000909999GF109991999999999999999999MA1999999100641MW1451
0066036553999991953011508004+51933-001250SAO  +0138EGUA V0202301N003110009019N0002001N9+00131+00131102441ADDGA1091+000909999GF109991999999999999999999MA1999999100641MW1451
0066036553999991953011509004+51933-001250SAO  +0138EGUA V0202301N003110015019N0005001N9+00191+00191102441ADDGA1091+001509999GF109991999999999999999999MA1999999100641MW1451
0072036553999991953011510004+51933-001250SAO  +0138EGUA V0202301N004610006019N0006001N9+00241+00241102441ADDGA1091+000609999GF109991999999999999999999MA1999999100641MW1451MW2611
0066036553999991953011511004+51933-001250SAO  +0138EGUA V0202301N004110015019N0006001N9+00351+00351102441ADDGA1091+001509999GF109991999999999999999999MA1999999100641MW1451
0103036553999991953011512004+51933-001250SAO  +0138EGUA V0202501N004610015019N0012001N9+00411+00411102401ADDAA124000391GA1091+001509999GF109991999999999999999999KA1999M+00581KA2999N+00081MA1999999100611MW1451
0072036553999991953011513004+51933-001250SAO  +0138EGUA V0202301N003610015019N0008001N9+00461+00461102341ADDGA1091+001509999GF109991999999999999999999MA1999999100581MW1451MW2511
0072036553999991953011514004+51933-001250SAO  +0138EGUA V0202501N004610015019N0006001N9+00461+00461102271ADDGA1091+001509999GF109991999999999999999999MA1999999100511MW1451MW2511
0066036553999991953011515004+51933-001250SAO  +0138EGUA V0202001N002610015019N0010001N9+00521+00521102261ADDGA1091+001509999GF109991999999999999999999MA1999999100511MW1451
0066036553999991953011516004+51933-001250SAO  +0138EGUA V0202301N002110015019N0004001N9+00521+00521102261ADDGA1091+001509999GF109991999999999999999999MA1999999100511MW1451
0066036553999991953011517004+51933-001250SAO  +0138EGUA V0202301N002110015019N0002001N9+00521+00521102231ADDGA1091+001509999GF109991999999999999999999MA1999999100471MW1451
0066036553999991953011518004+51933-001250SAO  +0138EGUA V0202301N002610018019N0005001N9+00521+00521102231ADDGA1091+001809999GF109991999999999999999999MA1999999100471MW1451
0066036553999991953011519004+51933-001250SAO  +0138EGUA V0202501N003610021019N0012001N9+00581+00581102231ADDGA1091+002109999GF109991999999999999999999MA1999999100471MW1451
0066036553999991953011520004+51933-001250SAO  +0138EGUA V0202501N002110021019N0012001N9+00581+00581102231ADDGA1091+002109999GF109991999999999999999999MA1999999100471MW1451
0072036553999991953011521004+51933-001250SAO  +0138EGUA V0209991C000012200019N0012001N9+00581+00581102231ADDGA1001+999999999GF100991999999999999999999MA1999999100471MW1051MW2111
0066036553999991953011522004+51933-001250SAO  +0138EGUA V0202301N001512200019N0006001N9+00581+00581102231ADDGA1051+999999999GF107991999999999999999999MA1999999100471MW1451
0066036553999991953011523004+51933-001250SAO  +0138EGUA V0202701N003610012019N0002001N9+00581+00581102231ADDGA1091+001209999GF109991999999999999999999MA1999999100471MW1451
0066036553999991953011600004+51933-001250SAO  +0138EGUA V0202701N003610012019N0002001N9+00581+00581102291ADDGA1091+001209999GF109991999999999999999999MA1999999100541MW1451
0066036553999991953011601004+51933-001250SAO  +0138EGUA V0202501N002110012019N0003001N9+00581+00581102291ADDGA1091+001209999GF109991999999999999999999MA1999999100541MW1451
0066036553999991953011602004+51933-001250SAO  +0138EGUA V0202701N002110033019N0012001N9+00581+00581102291ADDGA1091+003309999GF109991999999999999999999MA1999999100541MW1451
0072036553999991953011603004+51933-001250SAO  +0138EGUA V0202701N002110039019N0016001N9+00581+00581102291ADDGA1081+003909079GF108991999999999999999999MA1999999100541MW1051MW2111
0088036553999991953011604004+51933-001250SAO  +0138EGUA V0209991C000010066019N0020001N9+00581+00581102331ADDGA1031+003909079GA2051+006609059GF108991999999999999999999MA1999999100581MW1051MW2111
0072036553999991953011605004+51933-001250SAO  +0138EGUA V0209991C000010066019N0020001N9+00631+00631102331ADDGA1081+006609059GF108991999999999999999999MA1999999100581MW1051MW2111
0072036553999991953011606004+51933-001250SAO  +0138EGUA V0202701N002110066019N0024001N9+00631+00631102331ADDGA1081+006609059GF108991999999999999999999MA1999999100581MW1041MW2111
0072036553999991953011607004+51933-001250SAO  +0138EGUA V0203201N001510066019N0024001N9+00581+00581102331ADDGA1081+006609059GF108991999999999999999999MA1999999100581MW1051MW2111
0066036553999991953011608004+51933-001250SAO  +0138EGUA V0209991C000010060019N0048001N9+00631+00521102331ADDGA1081+006009059GF108991999999999999999999MA1999999100581MW1051
0066036553999991953011609004+51933-001250SAO  +0138EGUA V0209991C000010060019N0048001N9+00691+00581102391ADDGA1081+006009059GF108991999999999999999999MA1999999100641MW1051
0066036553999991953011610004+51933-001250SAO  +0138EGUA V0209991C000010060019N0048001N9+00631+00581102431ADDGA1081+006009059GF108991999999999999999999MA1999999100681MW1051
0066036553999991953011611004+51933-001250SAO  +0138EGUA V0209991C000010060019N0064001N9+00691+00461102431ADDGA1081+006009059GF108991999999999999999999MA1999999100681MW1051
0103036553999991953011612004+51933-001250SAO  +0138EGUA V0209991C000010060019N0064001N9+00741+00631102501ADDAA124000091GA1081+006009059GF108991999999999999999999KA1999M+00741KA2999N+00581MA1999999100751MW1051
0066036553999991953011613004+51933-001250SAO  +0138EGUA V0202701N001510060019N0064001N9+00741+00631102501ADDGA1081+006009059GF108991999999999999999999MA1999999100751MW1051
0066036553999991953011614004+51933-001250SAO  +0138EGUA V0209991C000010060019N0064001N9+00741+00581102501ADDGA1081+006009059GF108991999999999999999999MA1999999100751MW1051
0066036553999991953011615004+51933-001250SAO  +0138EGUA V0209991C000010051019N0064001N9+00741+00631102501ADDGA1081+005109059GF108991999999999999999999MA1999999100751MW1051
0066036553999991953011616004+51933-001250SAO  +0138EGUA V0202701N002110051019N0064001N9+00741+00631102531ADDGA1081+005109059GF108991999999999999999999MA1999999100781MW1051
0066036553999991953011617004+51933-001250SAO  +0138EGUA V0202701N001510051019N0064001N9+00691+00631102531ADDGA1081+005109059GF108991999999999999999999MA1999999100781MW1051
0066036553999991953011618004+51933-001250SAO  +0138EGUA V0202701N002110051019N0064001N9+00631+00521102501ADDGA1081+005109059GF108991999999999999999999MA1999999100751MW1051
0066036553999991953011619004+51933-001250SAO  +0138EGUA V0202701N002610042019N0064001N9+00581+00521102531ADDGA1081+004209059GF108991999999999999999999MA1999999100781MW1051
0066036553999991953011620004+51933-001250SAO  +0138EGUA V0202301N001510042019N0064001N9+00631+00521102531ADDGA1081+004209059GF108991999999999999999999MA1999999100781MW1051
0066036553999991953011621004+51933-001250SAO  +0138EGUA V0209991C000010042019N0064001N9+00631+00461102561ADDGA1081+004209059GF108991999999999999999999MA1999999100811MW1051
0066036553999991953011622004+51933-001250SAO  +0138EGUA V0209991C000010039019N0064001N9+00631+00461102561ADDGA1081+003909059GF108991999999999999999999MA1999999100811MW1051
0066036553999991953011623004+51933-001250SAO  +0138EGUA V0209991C000010060019N0064001N9+00631+00461102561ADDGA1081+006009059GF108991999999999999999999MA1999999100811MW1051
0066036553999991953011700004+51933-001250SAO  +0138EGUA V0209991C000012200019N0064001N9+00581+00411102501ADDGA1021+007509059GF102991999999999999999999MA1999999100751MW1051
0066036553999991953011701004+51933-001250SAO  +0138EGUA V0202301N002112200019N0064001N9+00461+00351102461ADDGA1021+007509059GF102991999999999999999999MA1999999100711MW1051
0066036553999991953011702004+51933-001250SAO  +0138EGUA V0202001N002110069019N0064001N9+00521+00411102461ADDGA1081+006909059GF108991999999999999999999MA1999999100711MW1051
0066036553999991953011703004+51933-001250SAO  +0138EGUA V0209991C000010069019N0064001N9+00521+00411102501ADDGA1081+006909059GF108991999999999999999999MA1999999100751MW1051
0066036553999991953011704004+51933-001250SAO  +0138EGUA V0202301N001510069019N0064001N9+00521+00411102501ADDGA1081+006909059GF108991999999999999999999MA1999999100751MW1051
0066036553999991953011705004+51933-001250SAO  +0138EGUA V0209991C000010072019N0064001N9+00521+00461102501ADDGA1081+007209059GF108991999999999999999999MA1999999100751MW1051
0066036553999991953011706004+51933-001250SAO  +0138EGUA V0209991C000010072019N0064001N9+00581+00411102501ADDGA1081+007209059GF108991999999999999999999MA1999999100781MW1051
0066036553999991953011707004+51933-001250SAO  +0138EGUA V0209991C000010054019N0064001N9+00521+00461102531ADDGA1081+005409059GF108991999999999999999999MA1999999100781MW1051
0066036553999991953011708004+51933-001250SAO  +0138EGUA V0209991C000010054019N0064001N9+00521+00411102531ADDGA1081+005409059GF108991999999999999999999MA1999999100781MW1051
0066036553999991953011709004+51933-001250SAO  +0138EGUA V0209991C000010051019N0048001N9+00521+00351102561ADDGA1081+005109059GF108991999999999999999999MA1999999100811MW1051
0066036553999991953011710004+51933-001250SAO  +0138EGUA V0209991C000010051019N0032001N9+00581+00521102561ADDGA1081+005109059GF108991999999999999999999MA1999999100811MW1051
0066036553999991953011711004+51933-001250SAO  +0138EGUA V0202001N001510051019N0048001N9+00631+00581102601ADDGA1081+005109059GF108991999999999999999999MA1999999100851MW1051
0103036553999991953011712004+51933-001250SAO  +0138EGUA V0202301N002110045019N0048001N9+00691+00631102631ADDAA124999929GA1081+004509059GF108991999999999999999999KA1999M+00741KA2999N+00241MA1999999100881MW1051
0066036553999991953011713004+51933-001250SAO  +0138EGUA V0202001N001510054019N0048001N9+00691+00631102631ADDGA1081+005409059GF108991999999999999999999MA1999999100881MW1051
0066036553999991953011714004+51933-001250SAO  +0138EGUA V0202301N001510045019N0048001N9+00691+00631102631ADDGA1081+004509059GF108991999999999999999999MA1999999100881MW1041
0066036553999991953011715004+51933-001250SAO  +0138EGUA V0202001N001510045019N0048001N9+00691+00631102631ADDGA1081+004509059GF108991999999999999999999MA1999999100881MW1051
0066036553999991953011716004+51933-001250SAO  +0138EGUA V0202701N001510045019N0040001N9+00691+00691102631ADDGA1081+004509059GF108991999999999999999999MA1999999100881MW1051
0072036553999991953011717004+51933-001250SAO  +0138EGUA V0202701N001510039019N0032001N9+00631+00631102671ADDGA1081+003909079GF108991999999999999999999MA1999999100911MW1051MW2611
0072036553999991953011718004+51933-001250SAO  +0138EGUA V0202701N002110039019N0032001N9+00631+00631102701ADDGA1081+003909079GF108991999999999999999999MA1999999100951MW1051MW2801
0066036553999991953011719004+51933-001250SAO  +0138EGUA V0202701N001510054019N0032001N9+00631+00631102731ADDGA1081+005409079GF108991999999999999999999MA1999999100981MW1051
0066036553999991953011720004+51933-001250SAO  +0138EGUA V0202501N001512200019N0032001N9+00581+00581102731ADDGA1001+999999999GF100991999999999999999999MA1999999100981MW1051
0066036553999991953011721004+51933-001250SAO  +0138EGUA V0209991C000012200019N0032001N9+00461+00461102771ADDGA1001+999999999GF100991999999999999999999MA1999999101021MW1051
0066036553999991953011722004+51933-001250SAO  +0138EGUA V0202301N001512200019N0032001N9+00461+00461102831ADDGA1021+006009059GF102991999999999999999999MA1999999101081MW1051
0066036553999991953011723004+51933-001250SAO  +0138EGUA V0209991C000012200019N0032001N9+00411+00411102871ADDGA1001+999999999GF100991999999999999999999MA1999999101121MW1051
0072036553999991953011800004+51933-001250SAO  +0138EGUA V0209991C000012200019N0016001N9+00241+00241102831ADDGA1001+999999999GF100991999999999999999999MA1999999101081MW1051MW2111
0072036553999991953011801004+51933-001250SAO  +0138EGUA V0209991C000012200019N0016001N9+00191+00191102831ADDGA1001+999999999GF100991999999999999999999MA1999999101081MW1051MW2111
0072036553999991953011802004+51933-001250SAO  +0138EGUA V0203401N005112200019N0016001N9+00301+00301102871ADDGA1031+006009059GF102991999999999999999999MA1999999101121MW1051MW2111
0072036553999991953011803004+51933-001250SAO  +0138EGUA V0203401N003612200019N0016001N9+00191+00191102901ADDGA1031+007509059GF102991999999999999999999MA1999999101151MW1051MW2111
0072036553999991953011804004+51933-001250SAO  +0138EGUA V0203401N005112200019N0016001N9+00191+00191102901ADDGA1031+009009059GF102991999999999999999999MA1999999101151MW1051MW2111
0072036553999991953011805004+51933-001250SAO  +0138EGUA V0203601N004612200019N0016001N9+00241+00241102941ADDGA1041+009009059GF102991999999999999999999MA1999999101191MW1051MW2111
0072036553999991953011806004+51933-001250SAO  +0138EGUA V0203401N004612200019N0016001N9+00191+00191102971ADDGA1031+009009059GF102991999999999999999999MA1999999101221MW1051MW2111
0072036553999991953011807004+51933-001250SAO  +0138EGUA V0203601N004612200019N0016001N9+00241+00241103071ADDGA1031+009009059GF102991999999999999999999MA1999999101291MW1051MW2111
0088036553999991953011808004+51933-001250SAO  +0138EGUA V0203401N004612200019N0012001N9+00131+00131103111ADDGA1021+009009059GA2021+060009009GF102991999999999999999999MA1999999101321MW1051MW2111
0072036553999991953011809004+51933-001250SAO  +0138EGUA V0203401N005112200019N0012001N9+00131+00131103171ADDGA1021+060009009GF102991999999999999999999MA1999999101391MW1051MW2111
0066036553999991953011810004+51933-001250SAO  +0138EGUA V0200201N004612200019N0001001N9+00131+00131103241ADDGA1061+999999999GF107991999999999999999999MA1999999101461MW1451
0066036553999991953011811004+51933-001250SAO  +0138EGUA V0203601N006712200019N0001001N9+00191+00191103311ADDGA1071+999999999GF107991999999999999999999MA1999999101521MW1451
0103036553999991953011812004+51933-001250SAO  +0138EGUA V0203601N006212200019N0001001N9+00191+00191103241ADDAA124000091GA1061+999999999GF107991999999999999999999KA1999M+00411KA2999N-00091MA1999999101461MW1451
0066036553999991953011813004+51933-001250SAO  +0138EGUA V0203601N006212200019N0012001N9+00351+00351103241ADDGA1031+999999999GF102991999999999999999999MA1999999101521MW1111
0066036553999991953011814004+51933-001250SAO  +0138EGUA V0203601N004112200019N0012001N9+00411+00411103241ADDGA1031+999999999GF102991999999999999999999MA1999999101461MW1111
0066036553999991953011815004+51933-001250SAO  +0138EGUA V0203601N003112200019N0012001N9+00351+00351103241ADDGA1031+999999999GF102991999999999999999999MA1999999101461MW1111
0066036553999991953011816004+51933-001250SAO  +0138EGUA V0203601N002612200019N0012001N9+00241+00241103311ADDGA1041+999999999GF102991999999999999999999MA1999999101491MW1111
0066036553999991953011817004+51933-001250SAO  +0138EGUA V0200201N002112200019N0012001N9+00191+00191103341ADDGA1041+999999999GF102991999999999999999999MA1999999101521MW1111
0066036553999991953011818004+51933-001250SAO  +0138EGUA V0203601N003612200019N0016001N9+00131+00131103451ADDGA1001+999999999GF100991999999999999999999MA1999999101631MW1111
0066036553999991953011819004+51933-001250SAO  +0138EGUA V0200201N003112200019N0024001N9+00081+00081103491ADDGA1001+999999999GF100991999999999999999999MA1999999101661MW1111
0066036553999991953011820004+51933-001250SAO  +0138EGUA V0200201N002612200019N0024001N9+00021+00021103561ADDGA1001+999999999GF100991999999999999999999MA1999999101731MW1111
0066036553999991953011821004+51933-001250SAO  +0138EGUA V0200201N003112200019N0024001N9-00041-00041103591ADDGA1001+999999999GF100991999999999999999999MA1999999101761MW1111
0066036553999991953011822004+51933-001250SAO  +0138EGUA V0203601N001512200019N0020001N9+00021+00021103621ADDGA1001+999999999GF100991999999999999999999MA1999999101791MW1111
0066036553999991953011823004+51933-001250SAO  +0138EGUA V0200201N003112200019N0020001N9-00041-00041103621ADDGA1001+999999999GF100991999999999999999999MA1999999101791MW1111
0066036553999991953011900004+51933-001250SAO  +0138EGUA V0209991C000012200019N0016001N9-00091-00091103591ADDGA1001+999999999GF100991999999999999999999MA1999999101791MW1111
0066036553999991953011901004+51933-001250SAO  +0138EGUA V0209991C000012200019N0016001N9-00151-00151103621ADDGA1001+999999999GF100991999999999999999999MA1999999101791MW1111
0066036553999991953011902004+51933-001250SAO  +0138EGUA V0203601N003112200019N0016001N9-00151-00151103661ADDGA1001+999999999GF100991999999999999999999MA1999999101831MW1111
0066036553999991953011903004+51933-001250SAO  +0138EGUA V0203401N002112200019N0016001N9-00201-00201103661ADDGA1001+999999999GF100991999999999999999999MA1999999101831MW1111
0066036553999991953011904004+51933-001250SAO  +0138EGUA V0203601N002112200019N0016001N9-00151-00201103661ADDGA1001+999999999GF100991999999999999999999MA1999999101831MW1111
0066036553999991953011905004+51933-001250SAO  +0138EGUA V0203601N002612200019N0016001N9-00151-00201103661ADDGA1001+999999999GF100991999999999999999999MA1999999101831MW1111
0066036553999991953011906004+51933-001250SAO  +0138EGUA V0203601N002112200019N0016001N9-00151-00151103661ADDGA1001+999999999GF100991999999999999999999MA1999999101831MW1111
0066036553999991953011907004+51933-001250SAO  +0138EGUA V0203601N003612200019N0016001N9-00261-00311103661ADDGA1001+999999999GF100991999999999999999999MA1999999101831MW1111
0066036553999991953011908004+51933-001250SAO  +0138EGUA V0203601N003612200019N0002001N9-00371-00421103691ADDGA1011+007509059GF102991999999999999999999MA1999999101861MW1111
0098036553999991953011909004+51933-001250SAO  +0138EGUA V0203401N002110600019N0001001N9-00371-00421103731ADDGA1031+999999999GA2011+007509059GA3021+060009009GF107991999999999999999999MA1999999101901MW1451
0082036553999991953011910004+51933-001250SAO  +0138EGUA V0209991C000010750019N0008001N9-00261-00311103731ADDGA1011+999999999GA2041+075009009GF107991999999999999999999MA1999999101901MW1451
0066036553999991953011911004+51933-001250SAO  +0138EGUA V0209991C000010750019N0012001N9-00201-00261103761ADDGA1051+075009009GF107991999999999999999999MA1999999101931MW1111
0103036553999991953011912004+51933-001250SAO  +0138EGUA V0209991C000010750019N0012001N9-00091-00091103731ADDAA124000091GA1051+075009009GF107991999999999999999999KA1999M+00351KA2999N-00371MA1999999101901MW1111
0066036553999991953011913004+51933-001250SAO  +0138EGUA V0209991C000012200019N0012001N9+00191+00081103731ADDGA1031+075009009GF102991999999999999999999MA1999999101901MW1111
0066036553999991953011914004+51933-001250SAO  +0138EGUA V0209991C000012200019N0012001N9+00301+00191103691ADDGA1031+075009009GF102991999999999999999999MA1999999101861MW1111
0066036553999991953011915004+51933-001250SAO  +0138EGUA V0209991C000012200019N0012001N9+00301+00241103661ADDGA1031+075009009GF102991999999999999999999MA1999999101831MW1111
0066036553999991953011916004+51933-001250SAO  +0138EGUA V0209991C000012200019N0012001N9+00351+00241103621ADDGA1031+075009009GF102991999999999999999999MA1999999101791MW1111
0066036553999991953011917004+51933-001250SAO  +0138EGUA V0209991C000012200019N0008001N9+00131+00131103621ADDGA1011+075009009GF102991999999999999999999MA1999999101791MW1111
0066036553999991953011918004+51933-001250SAO  +0138EGUA V0209991C000012200019N0008001N9-00041-00041103661ADDGA1001+999999999GF100991999999999999999999MA1999999101861MW1111
0066036553999991953011919004+51933-001250SAO  +0138EGUA V0209991C000012200019N0012001N9-00201-00201103691ADDGA1001+999999999GF100991999999999999999999MA1999999101861MW1111
0066036553999991953011920004+51933-001250SAO  +0138EGUA V0203201N002612200019N0012001N9-00201-00261103731ADDGA1001+999999999GF100991999999999999999999MA1999999101901MW1111
0066036553999991953011921004+51933-001250SAO  +0138EGUA V0202501N001512200019N0006001N9-00261-00261103731ADDGA1001+999999999GF100991999999999999999999MA1999999101901MW1111
0066036553999991953011922004+51933-001250SAO  +0138EGUA V0202701N001512200019N0001001N9-00371-00421103731ADDGA1001+999999999GF100991999999999999999999MA1999999101901MW1111
0066036553999991953011923004+51933-001250SAO  +0138EGUA V0202901N001512200019N0012001N9-00311-00371103761ADDGA1001+999999999GF100991999999999999999999MA1999999101931MW1111
0066036553999991953012000004+51933-001250SAO  +0138EGUA V0209991C000012200019N0012001N9-00311-00311103761ADDGA1001+999999999GF100991999999999999999999MA1999999101931MW1111
0066036553999991953012001004+51933-001250SAO  +0138EGUA V0209991C000012200019N0002001N9-00201-00201103761ADDGA1001+999999999GF100991999999999999999999MA1999999101931MW1111
0066036553999991953012002004+51933-001250SAO  +0138EGUA V0209991C000012200019N0010001N9-00091-00151103761ADDGA1001+999999999GF100991999999999999999999MA1999999101931MW1111
0066036553999991953012003004+51933-001250SAO  +0138EGUA V0209991C000012200019N0012001N9-00151-00201103761ADDGA1001+999999999GF100991999999999999999999MA1999999101931MW1111
0066036553999991953012004004+51933-001250SAO  +0138EGUA V0209991C000012200019N0012001N9-00371-00421103761ADDGA1001+999999999GF100991999999999999999999MA1999999101931MW1111
0066036553999991953012005004+51933-001250SAO  +0138EGUA V0209991C000012200019N0012001N9-00371-00421103761ADDGA1001+999999999GF100991999999999999999999MA1999999101931MW1111
0066036553999991953012006004+51933-001250SAO  +0138EGUA V0209991C000012200019N0012001N9-00371-00421103691ADDGA1001+999999999GF100991999999999999999999MA1999999101861MW1111
0066036553999991953012007004+51933-001250SAO  +0138EGUA V0202301N001512200019N0012001N9-00371-00421103691ADDGA1001+999999999GF100991999999999999999999MA1999999101861MW1111
0066036553999991953012008004+51933-001250SAO  +0138EGUA V0202301N002112200019N0012001N9-00371-00371103691ADDGA1021+060009009GF102991999999999999999999MA1999999101861MW1111
0066036553999991953012009004+51933-001250SAO  +0138EGUA V0209991C000012200019N0012001N9-00371-00371103691ADDGA1021+060009009GF102991999999999999999999MA1999999101861MW1111
0066036553999991953012010004+51933-001250SAO  +0138EGUA V0209991C000012200019N0012001N9-00201-00201103691ADDGA1021+060009009GF102991999999999999999999MA1999999101861MW1111
0072036553999991953012011004+51933-001250SAO  +0138EGUA V0202301N002112200019N0016001N9-00091-00091103691ADDGA1021+060009009GF102991999999999999999999MA1999999101861MW1051MW2111
0109036553999991953012012004+51933-001250SAO  +0138EGUA V0209991C000012200019N0012001N9+00241+00241103621ADDAA124000091GA1021+060009009GF102991999999999999999999KA1999M+00691KA2999N-00481MA1999999101791MW1051MW2111
0072036553999991953012013004+51933-001250SAO  +0138EGUA V0209991C000012200019N0012001N9+00351+00351103621ADDGA1021+060009009GF102991999999999999999999MA1999999101791MW1051MW2111
0072036553999991953012014004+51933-001250SAO  +0138EGUA V0209991C000012200019N0024001N9+00581+00411103561ADDGA1051+060009009GF107991999999999999999999MA1999999101761MW1051MW2111
0066036553999991953012015004+51933-001250SAO  +0138EGUA V0209991C000010600019N0032001N9+00631+00351103521ADDGA1061+060009009GF107991999999999999999999MA1999999101731MW1051
0066036553999991953012016004+51933-001250SAO  +0138EGUA V0209991C000010600019N0040001N9+00581+00461103521ADDGA1071+060009009GF107991999999999999999999MA1999999101731MW1051
0066036553999991953012017004+51933-001250SAO  +0138EGUA V0209991C000010600019N0024001N9+00351+00351103521ADDGA1061+060009009GF107991999999999999999999MA1999999101731MW1111
0066036553999991953012018004+51933-001250SAO  +0138EGUA V0209991C000010600019N0024001N9+00411+00411103521ADDGA1061+060009009GF107991999999999999999999MA1999999101731MW1111
0066036553999991953012019004+51933-001250SAO  +0138EGUA V0209991C000012200019N0028001N9+00411+00131103521ADDGA1031+060009009GF102991999999999999999999MA1999999101731MW1111
0066036553999991953012020004+51933-001250SAO  +0138EGUA V0209991C000012200019N0032001N9+00191-00041103521ADDGA1031+060009009GF102991999999999999999999MA1999999101731MW1111
0066036553999991953012021004+51933-001250SAO  +0138EGUA V0209991C000012200019N0032001N9+00191-00041103521ADDGA1031+060009009GF102991999999999999999999MA1999999101731MW1111
0066036553999991953012022004+51933-001250SAO  +0138EGUA V0209991C000012200019N0032001N9+00081-00091103521ADDGA1021+060009009GF102991999999999999999999MA1999999101731MW1111
0066036553999991953012023004+51933-001250SAO  +0138EGUA V0209991C000012200019N0032001N9+00021-00091103521ADDGA1001+999999999GF100991999999999999999999MA1999999101731MW1111
0066036553999991953012100004+51933-001250SAO  +0138EGUA V0203201N001512200019N0032001N9+00021-00091103521ADDGA1001+999999999GF100991999999999999999999MA1999999101691MW1111
0072036553999991953012101004+51933-001250SAO  +0138EGUA V0202701N001512200019N0040001N9+00131-00091103491ADDGA1001+999999999GF100991999999999999999999MA1999999101691MW1051MW2111
0072036553999991953012102004+51933-001250SAO  +0138EGUA V0202901N002112200019N0032001N9+00191-00041103491ADDGA1001+999999999GF100991999999999999999999MA1999999101691MW1051MW2111
0072036553999991953012103004+51933-001250SAO  +0138EGUA V0202901N002112200019N0032001N9+00191-00041103491ADDGA1001+999999999GF100991999999999999999999MA1999999101691MW1051MW2111
0072036553999991953012104004+51933-001250SAO  +0138EGUA V0203201N002110090019N0032001N9+00191-00041103491ADDGA1051+009009059GF107991999999999999999999MA1999999101691MW1051MW2111
0072036553999991953012105004+51933-001250SAO  +0138EGUA V0202501N001510090019N0024001N9+00241+00021103341ADDGA1081+009009059GF108991999999999999999999MA1999999101591MW1051MW2111
0072036553999991953012106004+51933-001250SAO  +0138EGUA V0202301N001510090019N0040001N9+00301+00191103311ADDGA1081+009009059GF108991999999999999999999MA1999999101561MW1051MW2111
0072036553999991953012107004+51933-001250SAO  +0138EGUA V0202501N002610075019N0032001N9+00241+00021103321ADDGA1081+007509059GF108991999999999999999999MA1999999101561MW1051MW2111
0072036553999991953012108004+51933-001250SAO  +0138EGUA V0209991C000010075019N0036001N9+00351+00191103391ADDGA1081+007509059GF108991999999999999999999MA1999999101591MW1051MW2111
0072036553999991953012109004+51933-001250SAO  +0138EGUA V0209991C000010060019N0036001N9+00241+00131103391ADDGA1081+006009059GF108991999999999999999999MA1999999101591MW1051MW2111
0072036553999991953012110004+51933-001250SAO  +0138EGUA V0209991C000010060019N0040001N9+00351+00131103391ADDGA1081+006009059GF108991999999999999999999MA1999999101591MW1051MW2111
0066036553999991953012111004+51933-001250SAO  +0138EGUA V0202701N002110075019N0040001N9+00351+00301103391ADDGA1081+007509059GF108991999999999999999999MA1999999101591MW1051
0103036553999991953012112004+51933-001250SAO  +0138EGUA V0209991C000010090019N0040001N9+00461+00191103381ADDAA124000091GA1081+009009059GF108991999999999999999999KA1999M+00581KA2999N-00041MA1999999101561MW1051
0066036553999991953012113004+51933-001250SAO  +0138EGUA V0202501N002110090019N0032001N9+00461+00351103351ADDGA1081+009009059GF108991999999999999999999MA1999999101561MW1051
0066036553999991953012114004+51933-001250SAO  +0138EGUA V0202301N002612200019N0048001N9+00581+00521103351ADDGA1031+007509059GF102991999999999999999999MA1999999101561MW1051
0066036553999991953012115004+51933-001250SAO  +0138EGUA V0202301N003112200019N0048001N9+00581+00301103321ADDGA1031+060009009GF102991999999999999999999MA1999999101521MW1051
0066036553999991953012116004+51933-001250SAO  +0138EGUA V0209991C000012200019N0048001N9+00461+00191103291ADDGA1021+060009009GF102991999999999999999999MA1999999101491MW1051
0066036553999991953012117004+51933-001250SAO  +0138EGUA V0202701N001512200019N0040001N9+00351+00241103291ADDGA1021+060009009GF102991999999999999999999MA1999999101491MW1051
0066036553999991953012118004+51933-001250SAO  +0138EGUA V0202301N001512200019N0024001N9+00301+00081103181ADDGA1031+060009009GF102991999999999999999999MA1999999101391MW1051
0066036553999991953012119004+51933-001250SAO  +0138EGUA V0209991C000010060019N0024001N9+00301+00191103181ADDGA1081+006009059GF108991999999999999999999MA1999999101391MW1051
0072036553999991953012120004+51933-001250SAO  +0138EGUA V0202301N001510057019N0020001N9+00301+00131103181ADDGA1081+005709059GF108991999999999999999999MA1999999101391MW1051MW2111
0072036553999991953012121004+51933-001250SAO  +0138EGUA V0209991C000010054019N0024001N9+00351+00131103181ADDGA1081+005409059GF108991999999999999999999MA1999999101391MW1051MW2111
0072036553999991953012122004+51933-001250SAO  +0138EGUA V0209991C000010048019N0024001N9+00351+00191103151ADDGA1081+004809059GF108991999999999999999999MA1999999101351MW1051MW2111
0072036553999991953012123004+51933-001250SAO  +0138EGUA V0202701N001510051019N0048001N9+00351+00131103151ADDGA1081+005109059GF108991999999999999999999MA1999999101351MW1051MW2111
0072036553999991953012200004+51933-001250SAO  +0138EGUA V0202501N001510051019N0064001N9+00351+00131103081ADDGA1081+005109059GF108991999999999999999999MA1999999101291MW1051MW2111
0072036553999991953012201004+51933-001250SAO  +0138EGUA V0209991C000010051019N0048001N9+00301+00191103041ADDGA1081+005109059GF108991999999999999999999MA1999999101251MW1051MW2111
0072036553999991953012202004+51933-001250SAO  +0138EGUA V0202301N002110054019N0048001N9+00301+00081102971ADDGA1081+005409059GF108991999999999999999999MA1999999101221MW1051MW2111
0072036553999991953012203004+51933-001250SAO  +0138EGUA V0202301N002110054019N0024001N9+00351+00131102971ADDGA1081+005409059GF108991999999999999999999MA1999999101221MW1051MW2111
0072036553999991953012204004+51933-001250SAO  +0138EGUA V0209991C000010057019N0024001N9+00351+00131102911ADDGA1081+005709059GF108991999999999999999999MA1999999101151MW1051MW2111
0072036553999991953012205004+51933-001250SAO  +0138EGUA V0202001N002110057019N0024001N9+00351+00131102841ADDGA1081+005709059GF108991999999999999999999MA1999999101081MW1051MW2111
0072036553999991953012206004+51933-001250SAO  +0138EGUA V0209991C000010057019N0020001N9+00301+00131102781ADDGA1081+005709059GF108991999999999999999999MA1999999101051MW1051MW2111
0072036553999991953012207004+51933-001250SAO  +0138EGUA V0209991C000010060019N0020001N9+00301+00191102811ADDGA1081+006009059GF108991999999999999999999MA1999999101051MW1051MW2111
0072036553999991953012208004+51933-001250SAO  +0138EGUA V0209991C000010060019N0016001N9+00301+00131102781ADDGA1081+006009059GF108991999999999999999999MA1999999101021MW1051MW2111
0072036553999991953012209004+51933-001250SAO  +0138EGUA V0209991C000010069019N0016001N9+00301+00191102781ADDGA1081+006909059GF108991999999999999999999MA1999999101021MW1051MW2111
0072036553999991953012210004+51933-001250SAO  +0138EGUA V0209991C000010072019N0020001N9+00351+00191102781ADDGA1081+007209059GF108991999999999999999999MA1999999101021MW1051MW2111
0072036553999991953012211004+51933-001250SAO  +0138EGUA V0209991C000010069019N0024001N9+00411+00191102781ADDGA1081+006909059GF108991999999999999999999MA1999999101021MW1051MW2111
0109036553999991953012212004+51933-001250SAO  +0138EGUA V0209991C000010069019N0024001N9+00461+00191102781ADDAA124000091GA1081+006909059GF108991999999999999999999KA1999M+00631KA2999N-00041MA1999999101021MW1051MW2111
0072036553999991953012213004+51933-001250SAO  +0138EGUA V0202301N002110300019N0032001N9+00521+00351102711ADDGA1061+030009039GF107991999999999999999999MA1999999100951MW1051MW2111
0088036553999991953012214004+51933-001250SAO  +0138EGUA V0202301N003110069019N0040001N9+00631+00411102611ADDGA1051+006909059GA2021+030009039GF107991999999999999999999MA1999999100851MW1051MW2111
0082036553999991953012215004+51933-001250SAO  +0138EGUA V0202301N002110300019N0048001N9+00581+00241102571ADDGA1031+006909059GA2021+030009039GF107991999999999999999999MA1999999100811MW1051
0082036553999991953012216004+51933-001250SAO  +0138EGUA V0202301N003110360019N0048001N9+00521+00241102541ADDGA1041+006009059GA2021+036009039GF107991999999999999999999MA1999999100781MW1051
0082036553999991953012217004+51933-001250SAO  +0138EGUA V0202001N002110600019N0032001N9+00461+00191102501ADDGA1041+006009059GA2021+060009009GF107991999999999999999999MA1999999100751MW1051
0082036553999991953012218004+51933-001250SAO  +0138EGUA V0209991C000010063019N0032001N9+00411+00301102501ADDGA1051+006309059GA2011+024009039GF107991999999999999999999MA1999999100751MW1051
0066036553999991953012219004+51933-001250SAO  +0138EGUA V0202001N002110054019N0040001N9+00351+00191102501ADDGA1061+005409059GF107991999999999999999999MA1999999100751MW1051
0066036553999991953012220004+51933-001250SAO  +0138EGUA V0209991C000010054019N0040001N9+00301+00131102511ADDGA1071+005409059GF107991999999999999999999MA1999999100751MW1051
0066036553999991953012221004+51933-001250SAO  +0138EGUA V0209991C000012200019N0040001N9+00301+00131102511ADDGA1021+018009059GF102991999999999999999999MA1999999100751MW1051
0066036553999991953012222004+51933-001250SAO  +0138EGUA V0209991C000012200019N0032001N9+00191+00081102511ADDGA1021+060009009GF102991999999999999999999MA1999999100751MW1051
0066036553999991953012223004+51933-001250SAO  +0138EGUA V0209991C000012200019N0020001N9+00081+00081102511ADDGA1021+060009009GF102991999999999999999999MA1999999100751MW1051
0072036553999991953012300004+51933-001250SAO  +0138EGUA V0209991C000012200019N0012001N9-00041-00041102441ADDGA1021+060009009GF102991999999999999999999MA1999999100681MW1041MW2111
0088036553999991953012301004+51933-001250SAO  +0138EGUA V0209991C000012200019N0012001N9+00021+00021102401ADDGA1021+013509059GA2021+060009009GF102991999999999999999999MA1999999100641MW1051MW2111
0082036553999991953012302004+51933-001250SAO  +0138EGUA V0209991C000010054019N0006001N9-00041-00041102401ADDGA1051+999999999GA2031+005409059GF108991999999999999999999MA1999999100641MW1451
0072036553999991953012303004+51933-001250SAO  +0138EGUA V0202001N001512200019N0012001N9+00021+00021102341ADDGA1021+007809059GF102991999999999999999999MA1999999100581MW1051MW2111
0066036553999991953012304004+51933-001250SAO  +0138EGUA V0209991C000010009019N0000001N9-00041-00041102271ADDGA1091+000909999GF109991999999999999999999MA1999999100511MW1451
0082036553999991953012305004+51933-001250SAO  +0138EGUA V0209991C000010054019N0004001N9-00041-00041102241ADDGA1051+999999999GA2031+005409059GF108991999999999999999999MA1999999100471MW1451
0082036553999991953012306004+51933-001250SAO  +0138EGUA V0209991C000010054019N0004001N9+00021+00021102171ADDGA1051+999999999GA2031+005409059GF108991999999999999999999MA1999999100411MW1451
0082036553999991953012307004+51933-001250SAO  +0138EGUA V0209991C000010048019N0004001N9+00021-00041102171ADDGA1051+999999999GA2081+004809059GF108991999999999999999999MA1999999100371MW1451
0066036553999991953012308004+51933-001250SAO  +0138EGUA V0202501N002610048019N0016001N9+00131+00081102171ADDGA1081+004809059GF108991999999999999999999MA1999999100371MW1111
0066036553999991953012309004+51933-001250SAO  +0138EGUA V0209991C000010036019N0016001N9+00131+00081102171ADDGA1081+003609059GF108991999999999999999999MA1999999100371MW1111
0066036553999991953012310004+51933-001250SAO  +0138EGUA V0209991C000010036019N0012001N9+00191+00131102171ADDGA1081+003609059GF108991999999999999999999MA1999999100371MW1111
0066036553999991953012311004+51933-001250SAO  +0138EGUA V0203601N002110039019N0008001N9+00191+00131102171ADDGA1081+003909059GF108991999999999999999999MA1999999100371MW1111
0103036553999991953012312004+51933-001250SAO  +0138EGUA V0209991C000010039019N0012001N9+00241+00131102171ADDAA124000091GA1081+003909059GF108991999999999999999999KA1999M+00301KA2999N-00091MA1999999100371MW1111
0066036553999991953012313004+51933-001250SAO  +0138EGUA V0201801N002110018019N0016001N9+00301+00191102101ADDGA1081+001809059GF108991999999999999999999MA1999999100301MW1111
0066036553999991953012314004+51933-001250SAO  +0138EGUA V0201801N002110012019N0016001N9+00191+00131102031ADDGA1081+001209059GF108991999999999999999999MA1999999100241MW1111
0066036553999991953012315004+51933-001250SAO  +0138EGUA V0202001N002110021019N0016001N9+00131+00081102031ADDGA1081+002109059GF108991999999999999999999MA1999999100241MW1111
0066036553999991953012316004+51933-001250SAO  +0138EGUA V0202001N002610021019N0016001N9+00191+00081102001ADDGA1081+002109079GF108991999999999999999999MA1999999100201MW1111
0066036553999991953012317004+51933-001250SAO  +0138EGUA V0202001N002110024019N0016001N9+00131+00081101961ADDGA1081+002409079GF108991999999999999999999MA1999999100171MW1111
0066036553999991953012318004+51933-001250SAO  +0138EGUA V0202301N002610018019N0024001N9+00131+00021101961ADDGA1081+001809079GF108991999999999999999999MA1999999100171MW1111
0066036553999991953012319004+51933-001250SAO  +0138EGUA V0202501N001510015019N0024001N9+00081-00041101931ADDGA1081+001509079GF108991999999999999999999MA1999999100141MW1111
0066036553999991953012320004+51933-001250SAO  +0138EGUA V0209991C000010018019N0024001N9+00081-00041101931ADDGA1081+001809079GF108991999999999999999999MA1999999100141MW1111
0066036553999991953012321004+51933-001250SAO  +0138EGUA V0209991C000010021019N0024001N9+00081+00021101901ADDGA1081+002109079GF108991999999999999999999MA1999999100101MW1111
0066036553999991953012322004+51933-001250SAO  +0138EGUA V0202301N003110021019N0024001N9+00081+00021101901ADDGA1081+002109079GF108991999999999999999999MA1999999100101MW1111
0066036553999991953012323004+51933-001250SAO  +0138EGUA V0209991C000010018019N0024001N9+00081+00021101901ADDGA1081+001809079GF108991999999999999999999MA1999999100101MW1111
0066036553999991953012400004+51933-001250SAO  +0138EGUA V0202501N002610018019N0016001N9+00021+00021101861ADDGA1081+001809079GF108991999999999999999999MA1999999100071MW1111
0066036553999991953012401004+51933-001250SAO  +0138EGUA V0202301N003110018019N0016001N9+00021-00041101861ADDGA1081+001809079GF108991999999999999999999MA1999999100071MW1111
0066036553999991953012402004+51933-001250SAO  +0138EGUA V0202301N001510018019N0016001N9+00021-00041101861ADDGA1081+001809079GF108991999999999999999999MA1999999100071MW1111
0066036553999991953012403004+51933-001250SAO  +0138EGUA V0202501N002110015019N0016001N9-00041-00091101801ADDGA1081+001509079GF108991999999999999999999MA1999999100001MW1111
0066036553999991953012404004+51933-001250SAO  +0138EGUA V0202701N002610015019N0016001N9-00041-00091101761ADDGA1081+001509079GF108991999999999999999999MA1999999099971MW1111
0066036553999991953012405004+51933-001250SAO  +0138EGUA V0202501N002110015019N0016001N9-00041-00091101761ADDGA1081+001509079GF108991999999999999999999MA1999999099931MW1111
0066036553999991953012406004+51933-001250SAO  +0138EGUA V0202301N002610015019N0016001N9-00041-00091101591ADDGA1081+001509079GF108991999999999999999999MA1999999099801MW1111
0066036553999991953012407004+51933-001250SAO  +0138EGUA V0202001N001510009019N0016001N9-00041-00151101591ADDGA1081+000909079GF108991999999999999999999MA1999999099801MW1111
0066036553999991953012408004+51933-001250SAO  +0138EGUA V0202301N001510012019N0016001N9+00021-00091101591ADDGA1081+001209079GF108991999999999999999999MA1999999099801MW1111
