0066036553999991954010100004+51933-001250SAO  +0138EGUA V0203601N006212200019N0024001N9-00041-00151103481ADDGA1001+999999999GF100991999999999999999999MA1999999101691MW1051
0066036553999991954010101004+51933-001250SAO  +0138EGUA V0203601N006712200019N0020001N9-00041-00151103511ADDGA1001+999999999GF100991999999999999999999MA1999999101731MW1051
0066036553999991954010102004+51933-001250SAO  +0138EGUA V0203401N006712200019N0020001N9-00041-00151103511ADDGA1001+999999999GF100991999999999999999999MA1999999101731MW1051
0066036553999991954010103004+51933-001250SAO  +0138EGUA V0203401N006212200019N0016001N9-00091-00151103551ADDGA1001+999999999GF100991999999999999999999MA1999999101731MW1051
0066036553999991954010104004+51933-001250SAO  +0138EGUA V0203401N005112200019N0016001N9-00091-00201103581ADDGA1001+999999999GF100991999999999999999999MA1999999101761MW1051
0072036553999991954010105004+51933-001250SAO  +0138EGUA V0203201N004612200019N0016001N9-00151-00201103581ADDGA1001+999999999GF100991999999999999999999MA1999999101761MW1051MW2111
0072036553999991954010106004+51933-001250SAO  +0138EGUA V0203201N004112200019N0012001N9-00151-00201103611ADDGA1001+999999999GF100991999999999999999999MA1999999101831MW1051MW2111
0072036553999991954010107004+51933-001250SAO  +0138EGUA V0203201N005112200019N0012001N9-00201-00201103721ADDGA1001+999999999GF100991999999999999999999MA1999999101901MW1051MW2111
0072036553999991954010108004+51933-001250SAO  +0138EGUA V0203401N005712200019N0012001N9-00151-00201103721ADDGA1001+999999999GF100991999999999999999999MA1999999101901MW1051MW2111
0072036553999991954010109004+51933-001250SAO  +0138EGUA V0203401N005112200019N0012001N9-00151-00201103791ADDGA1001+999999999GF100991999999999999999999MA1999999101961MW1051MW2111
0072036553999991954010110004+51933-001250SAO  +0138EGUA V0203401N005112200019N0012001N9-00041-00151103791ADDGA1011+084009009GF102991999999999999999999MA1999999101961MW1051MW2111
0072036553999991954010111004+51933-001250SAO  +0138EGUA V0203401N005110840019N0012001N9+00131+00021103831ADDGA1061+084009009GF107991999999999999999999MA1999999102001MW1051MW2111
0109036553999991954010112004+51933-001250SAO  +0138EGUA V0203401N005110840019N0012001N9+00131+00021103831ADDAA124000091GA1061+084009009GF107991999999999999999999KA1999M+00241KA2999N-00201MA1999999102001MW1051MW2111
0072036553999991954010113004+51933-001250SAO  +0138EGUA V0203401N004612200019N0012001N9+00191+00021103831ADDGA1031+048009039GF102991999999999999999999MA1999999102001MW1051MW2111
0072036553999991954010114004+51933-001250SAO  +0138EGUA V0200201N003112200019N0012001N9+00241+00081103831ADDGA1021+084009009GF102991999999999999999999MA1999999102001MW1051MW2111
0088036553999991954010115004+51933-001250SAO  +0138EGUA V0203601N004110840019N0012001N9+00241+00021103831ADDGA1021+048009039GA2061+084009009GF107991999999999999999999MA1999999102001MW1051MW2111
0088036553999991954010116004+51933-001250SAO  +0138EGUA V0203601N005110840019N0012001N9+00191+00021103791ADDGA1031+048009039GA2031+084009009GF107991999999999999999999MA1999999101961MW1051MW2111
0088036553999991954010117004+51933-001250SAO  +0138EGUA V0203201N003110480019N0010001N9+00131-00041103791ADDGA1021+024009049GA2041+048009039GF107991999999999999999999MA1999999101961MW1051MW2111
0088036553999991954010118004+51933-001250SAO  +0138EGUA V0203201N004610480019N0016001N9+00081-00091103721ADDGA1021+024009049GA2051+048009039GF107991999999999999999999MA1999999101901MW1051MW2111
0088036553999991954010119004+51933-001250SAO  +0138EGUA V0203201N004610480019N0012001N9+00081-00041103721ADDGA1021+024009049GA2061+048009039GF107991999999999999999999MA1999999101901MW1051MW2111
0072036553999991954010120004+51933-001250SAO  +0138EGUA V0203401N004110480019N0012001N9+00081-00041103731ADDGA1081+048009049GF108991999999999999999999MA1999999101901MW1051MW2111
0072036553999991954010121004+51933-001250SAO  +0138EGUA V0203401N004610480019N0010001N9+00131+00021103721ADDGA1081+048009049GF108991999999999999999999MA1999999101901MW1051MW2111
0082036553999991954010122004+51933-001250SAO  +0138EGUA V0203401N004610480019N0010001N9+00131+00081103721ADDGA1021+999999999GA2061+048009049GF108991999999999999999999MA1999999101901MW1451
0082036553999991954010123004+51933-001250SAO  +0138EGUA V0203401N004610480019N0008001N9+00131+00021103721ADDGA1021+999999999GA2061+048009049GF107991999999999999999999MA1999999101901MW1451
0082036553999991954010200004+51933-001250SAO  +0138EGUA V0203401N004610480019N0008001N9+00081-00041103721ADDGA1021+999999999GA2051+048009049GF107991999999999999999999MA1999999101931MW1451
0082036553999991954010201004+51933-001250SAO  +0138EGUA V0203401N005112200019N0008001N9+00021-00041103751ADDGA1021+999999999GA2021+030009039GF102991999999999999999999MA1999999101931MW1451
0066036553999991954010202004+51933-001250SAO  +0138EGUA V0203401N005712200019N0002001N9+00021-00041103751ADDGA1061+999999999GF107991999999999999999999MA1999999101931MW1451
0082036553999991954010203004+51933-001250SAO  +0138EGUA V0203401N004610300019N0002001N9+00021-00041103751ADDGA1051+999999999GA2081+030009039GF108991999999999999999999MA1999999101931MW1451
0082036553999991954010204004+51933-001250SAO  +0138EGUA V0203601N004110090019N0002001N9+00081+00021103751ADDGA1051+999999999GA2081+009009059GF108991999999999999999999MA1999999101931MW1451
0082036553999991954010205004+51933-001250SAO  +0138EGUA V0203401N004610090019N0002001N9+00081+00021103751ADDGA1051+999999999GA2081+009009059GF108991999999999999999999MA1999999101931MW1451
0082036553999991954010206004+51933-001250SAO  +0138EGUA V0203401N003110090019N0004001N9+00131+00131103651ADDGA1051+999999999GA2081+009009059GF108991999999999999999999MA1999999101831MW1451
0104036553999991954010207004+51933-001250SAO  +0138EGUA V0203401N004110090019N0008001N9+00191+00191103651ADDGA1021+999999999GA2021+000909079GA3041+009009059GF108991999999999999999999MA1999999101831MW1451MW2851
0104036553999991954010208004+51933-001250SAO  +0138EGUA V0203401N005110090019N0004001N9+00191+00191103651ADDGA1011+999999999GA2021+001509079GA3041+009009059GF107991999999999999999999MA1999999101831MW1451MW2611
0098036553999991954010209004+51933-001250SAO  +0138EGUA V0203401N004110015019N0004001N9+00191+00131103721ADDGA1031+999999999GA2021+001509079GA3021+009009059GF108991999999999999999999MA1999999101901MW1451
0066036553999991954010210004+51933-001250SAO  +0138EGUA V0203601N002610015019N0002001N9+00191+00191103721ADDGA1091+001509999GF109991999999999999999999MA1999999101901MW1451
0066036553999991954010211004+51933-001250SAO  +0138EGUA V0203401N004610015019N0003001N9+00241+00131103721ADDGA1091+001509999GF109991999999999999999999MA1999999101901MW1451
0103036553999991954010212004+51933-001250SAO  +0138EGUA V0203401N003110015019N0003001N9+00301+00241103791ADDAA124999929GA1091+001509999GF109991999999999999999999KA1999M+00581KA2999N-00041MA1999999101961MW1451
0066036553999991954010213004+51933-001250SAO  +0138EGUA V0203401N003610015019N0003001N9+00411+00351103791ADDGA1091+001509999GF109991999999999999999999MA1999999101961MW1451
0082036553999991954010214004+51933-001250SAO  +0138EGUA V0203401N002110090019N0012001N9+00351+00351103721ADDGA1031+999999999GA2051+009009059GF108991999999999999999999MA1999999101901MW1451
0082036553999991954010215004+51933-001250SAO  +0138EGUA V0209991C000010870019N0012001N9+00351+00301103721ADDGA1031+999999999GA2021+087009009GF107991999999999999999999MA1999999101901MW1451
0066036553999991954010216004+51933-001250SAO  +0138EGUA V0202301N002612200019N0010001N9+00241+00241103681ADDGA1051+999999999GF107991999999999999999999MA1999999101861MW1451
0066036553999991954010217004+51933-001250SAO  +0138EGUA V0202901N002110003019N0002001N9+00191+00191103651ADDGA1091+000309999GF109991999999999999999999MA1999999101831MW1451
0066036553999991954010218004+51933-001250SAO  +0138EGUA V0203201N005110003019N0002001N9-00041-00041103511ADDGA1091+000309999GF109991999999999999999999MA1999999101691MW1451
0066036553999991954010219004+51933-001250SAO  +0138EGUA V0202901N003110001519N0000001N9+00021+00021103511ADDGA1091+000159999GF109991999999999999999999MA1999999101691MW1451
0066036553999991954010220004+51933-001250SAO  +0138EGUA V0203201N004610001519N0001001N9+00191+00191103471ADDGA1091+000159999GF109991999999999999999999MA1999999101661MW1451
0072036553999991954010221004+51933-001250SAO  +0138EGUA V0203201N004110018019N0008001N9+00301+00301103381ADDGA1081+001809079GF108991999999999999999999MA1999999101561MW1051MW2111
0072036553999991954010222004+51933-001250SAO  +0138EGUA V0202901N002110018019N0032001N9+00411+00411103241ADDGA1081+001809079GF108991999999999999999999MA1999999101461MW1051MW2111
0072036553999991954010223004+51933-001250SAO  +0138EGUA V0202901N003610018019N0032001N9+00461+00351103171ADDGA1081+001809079GF108991999999999999999999MA1999999101391MW1051MW2111
0072036553999991954010300004+51933-001250SAO  +0138EGUA V0202901N006710027019N0032001N9+00521+00411103071ADDGA1081+002709079GF108991999999999999999999MA1999999101291MW1051MW2111
0072036553999991954010301004+51933-001250SAO  +0138EGUA V0203201N005710027019N0032001N9+00581+00461102971ADDGA1081+002709079GF108991999999999999999999MA1999999101221MW1051MW2111
0072036553999991954010302004+51933-001250SAO  +0138EGUA V0203201N004110030019N0064001N9+00581+00521102871ADDGA1081+003009079GF108991999999999999999999MA1999999101121MW1051MW2611
0072036553999991954010303004+51933-001250SAO  +0138EGUA V0203201N005110024019N0048001N9+00631+00581102831ADDGA1081+002409079GF108991999999999999999999MA1999999101081MW1051MW2611
0066036553999991954010304004+51933-001250SAO  +0138EGUA V0203401N005110024019N0048001N9+00631+00581102771ADDGA1081+002409079GF108991999999999999999999MA1999999101021MW1051
0066036553999991954010305004+51933-001250SAO  +0138EGUA V0200201N010310027019N0048001N9+00631+00581102701ADDGA1081+002709079GF108991999999999999999999MA1999999100951MW1051
0066036553999991954010306004+51933-001250SAO  +0138EGUA V0200201N005110042019N0064001N9+00581+00351102701ADDGA1081+004209079GF108991999999999999999999MA1999999100951MW1051
0066036553999991954010307004+51933-001250SAO  +0138EGUA V0200201N008710105019N0064001N9+00411+00131102701ADDGA1061+010509059GF107991999999999999999999MA1999999100951MW1051
0066036553999991954010308004+51933-001250SAO  +0138EGUA V0200201N009310081019N0080001N9+00411+00131102731ADDGA1061+008109059GF107991999999999999999999MA1999999100981MW1051
0082036553999991954010309004+51933-001250SAO  +0138EGUA V0203401N009310600019N0112001N9+00241-00041102731ADDGA1021+010509059GA2041+060009009GF107991999999999999999999MA1999999100981MW1001
0082036553999991954010310004+51933-001250SAO  +0138EGUA V0203401N009810075019N0112001N9+00241+00081102731ADDGA1051+007509059GA2021+060009009GF107991999999999999999999MA1999999100981MW1001
0066036553999991954010311004+51933-001250SAO  +0138EGUA V0203401N009810600019N0112001N9+00351-00091102701ADDGA1061+060009009GF107991999999999999999999MA1999999100951MW1001
0119036553999991954010312004+51933-001250SAO  +0138EGUA V0203401N010310075019N0112001N9+00411+00021102571ADDAA124999929GA1061+007509059GA2011+060009009GF107991999999999999999999KA1999M+00631KA2999N+00131MA1999999100851MW1001
0066036553999991954010313004+51933-001250SAO  +0138EGUA V0203401N009810090019N0112001N9+00351-00041102501ADDGA1061+009009059GF107991999999999999999999MA1999999100751MW1001
0082036553999991954010314004+51933-001250SAO  +0138EGUA V0203401N009810210019N0096001N9+00301+00021102471ADDGA1031+003609079GA2041+021009039GF107991999999999999999999MA1999999100711MW1611
0082036553999991954010315004+51933-001250SAO  +0138EGUA V0203401N008212200019N0096001N9+00351-00041102431ADDGA1021+007509079GA2011+021009039GF102991999999999999999999MA1999999100681MW1051
0082036553999991954010316004+51933-001250SAO  +0138EGUA V0203401N010312200019N0080001N9+00351+00021102431ADDGA1021+003609079GA2021+009009059GF102991999999999999999999MA1999999100681MW1051
0082036553999991954010317004+51933-001250SAO  +0138EGUA V0203401N009810090019N0080001N9+00301+00021102431ADDGA1021+004509079GA2031+009009059GF107991999999999999999999MA1999999100681MW1051
0066036553999991954010318004+51933-001250SAO  +0138EGUA V0203401N009310090019N0064001N9+00301+00021102531ADDGA1051+009009059GF107991999999999999999999MA1999999100781MW1051
0066036553999991954010319004+51933-001250SAO  +0138EGUA V0203401N008210090019N0064001N9+00301+00021102561ADDGA1051+009009059GF107991999999999999999999MA1999999100811MW1051
0066036553999991954010320004+51933-001250SAO  +0138EGUA V0203401N008710090019N0064001N9+00301+00081102561ADDGA1051+009009059GF107991999999999999999999MA1999999100811MW1051
0066036553999991954010321004+51933-001250SAO  +0138EGUA V0203401N008710105019N0064001N9+00241+00081102531ADDGA1081+010509059GF108991999999999999999999MA1999999100781MW1051
0088036553999991954010322004+51933-001250SAO  +0138EGUA V0203401N010310105019N0064001N9+00191+00081102501ADDGA1021+003609079GA2051+010509059GF107991999999999999999999MA1999999100751MW1051MW2611
0082036553999991954010323004+51933-001250SAO  +0138EGUA V0203401N009310105019N0064001N9+00191+00021102461ADDGA1021+003609079GA2061+010509059GF108991999999999999999999MA1999999100711MW1051
0082036553999991954010400004+51933-001250SAO  +0138EGUA V0203401N011310105019N0064001N9+00241+00081102391ADDGA1021+003609079GA2081+010509059GF108991999999999999999999MA1999999100641MW1051
0066036553999991954010401004+51933-001250SAO  +0138EGUA V0203401N009310075019N0080001N9+00241+00081102391ADDGA1081+007509059GF108991999999999999999999MA1999999100641MW1051
0066036553999991954010402004+51933-001250SAO  +0138EGUA V0203401N007710075019N0080001N9+00301+00131102391ADDGA1081+007509059GF108991999999999999999999MA1999999100641MW1051
0066036553999991954010403004+51933-001250SAO  +0138EGUA V0203401N008210120019N0080001N9+00301+00081102431ADDGA1081+012009059GF108991999999999999999999MA1999999100681MW1051
0066036553999991954010404004+51933-001250SAO  +0138EGUA V0203401N007210090019N0080001N9+00301+00081102431ADDGA1081+009009059GF108991999999999999999999MA1999999100681MW1051
0066036553999991954010405004+51933-001250SAO  +0138EGUA V0203401N008710090019N0080001N9+00301+00081102431ADDGA1081+009009059GF108991999999999999999999MA1999999100681MW1051
0066036553999991954010406004+51933-001250SAO  +0138EGUA V0203601N011310075019N0080001N9+00301+00081102431ADDGA1081+007509059GF108991999999999999999999MA1999999100681MW1051
0066036553999991954010407004+51933-001250SAO  +0138EGUA V0203601N008712200019N0080001N9+00191+00021102501ADDGA1021+007509059GF102991999999999999999999MA1999999100751MW1051
0066036553999991954010408004+51933-001250SAO  +0138EGUA V0203601N008212200019N0080001N9+00131-00041102541ADDGA1011+007509059GF102991999999999999999999MA1999999100781MW1051
0082036553999991954010409004+51933-001250SAO  +0138EGUA V0203601N008210135019N0080001N9+00131-00041102611ADDGA1021+006609059GA2031+013509059GF107991999999999999999999MA1999999100851MW1051
0082036553999991954010410004+51933-001250SAO  +0138EGUA V0203601N006710150019N0080001N9+00241-00041102611ADDGA1031+006609059GA2061+015009059GF107991999999999999999999MA1999999100851MW1051
0082036553999991954010411004+51933-001250SAO  +0138EGUA V0203601N010310150019N0080001N9+00301+00131102611ADDGA1021+006609059GA2051+015009059GF107991999999999999999999MA1999999100851MW1051
0119036553999991954010412004+51933-001250SAO  +0138EGUA V0203401N009310150019N0040001N9+00301+00131102541ADDAA124999929GA1031+006309059GA2031+015009059GF107991999999999999999999KA1999M+00521KA2999N-00041MA1999999100781MW1051
0082036553999991954010413004+51933-001250SAO  +0138EGUA V0203601N008712200019N0064001N9+00461+00081102511ADDGA1021+006309059GA2021+015009059GF102991999999999999999999MA1999999100751MW1051
0082036553999991954010414004+51933-001250SAO  +0138EGUA V0203601N008710063019N0064001N9+00461+00081102441ADDGA1051+006309059GA2011+015009059GF107991999999999999999999MA1999999100681MW1051
0066036553999991954010415004+51933-001250SAO  +0138EGUA V0200201N010310063019N0064001N9+00461+00081102441ADDGA1061+006309059GF107991999999999999999999MA1999999100681MW1051
0066036553999991954010416004+51933-001250SAO  +0138EGUA V0200201N009810063019N0064001N9+00351-00041102441ADDGA1061+006309059GF107991999999999999999999MA1999999100681MW1051
0066036553999991954010417004+51933-001250SAO  +0138EGUA V0200201N008712200019N0096001N9+00191+00081102471ADDGA1001+999999999GF100991999999999999999999MA1999999100711MW1051
0066036553999991954010418004+51933-001250SAO  +0138EGUA V0200201N005712200019N0096001N9+00191-00261102471ADDGA1001+999999999GF100991999999999999999999MA1999999100711MW1051
0066036553999991954010419004+51933-001250SAO  +0138EGUA V0200201N006712200019N0096001N9+00131-00201102471ADDGA1001+999999999GF100991999999999999999999MA1999999100711MW1051
0066036553999991954010420004+51933-001250SAO  +0138EGUA V0200201N007712200019N0096001N9+00081-00201102471ADDGA1001+999999999GF100991999999999999999999MA1999999100711MW1051
0066036553999991954010421004+51933-001250SAO  +0138EGUA V0200201N007210102019N0096001N9+00131-00311102471ADDGA1081+010209059GF108991999999999999999999MA1999999100711MW1051
0066036553999991954010422004+51933-001250SAO  +0138EGUA V0200201N006710102019N0096001N9+00131-00311102471ADDGA1081+010209059GF108991999999999999999999MA1999999100711MW1051
0066036553999991954010423004+51933-001250SAO  +0138EGUA V0200201N008210120019N0080001N9+00131-00261102471ADDGA1081+012009059GF108991999999999999999999MA1999999100711MW1051
0066036553999991954010500004+51933-001250SAO  +0138EGUA V0200201N007710090019N0080001N9+00131-00151102441ADDGA1081+009009059GF108991999999999999999999MA1999999100681MW1051
0066036553999991954010501004+51933-001250SAO  +0138EGUA V0200201N007710075019N0096001N9+00131-00151102441ADDGA1081+007509059GF108991999999999999999999MA1999999100681MW1051
0066036553999991954010502004+51933-001250SAO  +0138EGUA V0200201N006710120019N0096001N9+00131-00091102441ADDGA1081+012009059GF108991999999999999999999MA1999999100681MW1051
0066036553999991954010503004+51933-001250SAO  +0138EGUA V0200201N007210105019N0096001N9+00081-00091102441ADDGA1081+010509059GF108991999999999999999999MA1999999100681MW1051
0066036553999991954010504004+51933-001250SAO  +0138EGUA V0200201N006710105019N0096001N9+00081-00041102471ADDGA1051+010509059GF107991999999999999999999MA1999999100681MW1051
0066036553999991954010505004+51933-001250SAO  +0138EGUA V0200201N007712200019N0096001N9+00021-00041102441ADDGA1001+999999999GF100991999999999999999999MA1999999100641MW1051
0066036553999991954010506004+51933-001250SAO  +0138EGUA V0200201N005112200019N0112001N9+00021-00041102371ADDGA1001+999999999GF100991999999999999999999MA1999999100581MW1001
0066036553999991954010507004+51933-001250SAO  +0138EGUA V0200201N005112200019N0112001N9+00021-00041102371ADDGA1001+999999999GF100991999999999999999999MA1999999100581MW1001
0066036553999991954010508004+51933-001250SAO  +0138EGUA V0200201N006710084019N0112001N9+00021-00041102371ADDGA1061+008409059GF107991999999999999999999MA1999999100581MW1001
0066036553999991954010509004+51933-001250SAO  +0138EGUA V0200201N006210084019N0112001N9+00021-00041102371ADDGA1061+008409059GF107991999999999999999999MA1999999100581MW1001
0066036553999991954010510004+51933-001250SAO  +0138EGUA V0200201N006210090019N0080001N9+00131-00091102401ADDGA1061+009009059GF107991999999999999999999MA1999999100611MW1051
0066036553999991954010511004+51933-001250SAO  +0138EGUA V0200201N007210090019N0080001N9+00191+00021102401ADDGA1061+009009059GF107991999999999999999999MA1999999100611MW1051
0103036553999991954010512004+51933-001250SAO  +0138EGUA V0200201N007210090019N0080001N9+00241+00081102441ADDAA124000091GA1051+009009059GF107991999999999999999999KA1999M+00301KA2999N-00201MA1999999100641MW1051
0066036553999991954010513004+51933-001250SAO  +0138EGUA V0200201N007210042019N0080001N9+00301+00081102441ADDGA1061+004209059GF107991999999999999999999MA1999999100641MW1051
0066036553999991954010514004+51933-001250SAO  +0138EGUA V0200201N008210039019N0080001N9+00301+00081102401ADDGA1061+003909059GF107991999999999999999999MA1999999100611MW1051
0082036553999991954010515004+51933-001250SAO  +0138EGUA V0200201N007210090019N0080001N9+00241+00081102371ADDGA1031+002409059GA2021+009009059GF107991999999999999999999MA1999999100581MW1051
0082036553999991954010516004+51933-001250SAO  +0138EGUA V0200201N006710063019N0080001N9+00241+00081102371ADDGA1051+006309059GA2021+024009039GF107991999999999999999999MA1999999100581MW1051
0082036553999991954010517004+51933-001250SAO  +0138EGUA V0200201N007712200019N0048001N9+00191+00021102371ADDGA1021+009009059GA2021+024009039GF102991999999999999999999MA1999999100581MW1051
0066036553999991954010518004+51933-001250SAO  +0138EGUA V0200201N004612200019N0048001N9+00191+00021102241ADDGA1031+009009059GF102991999999999999999999MA1999999100441MW1051
0066036553999991954010519004+51933-001250SAO  +0138EGUA V0200201N005112200019N0048001N9+00081-00041102241ADDGA1041+009009059GF102991999999999999999999MA1999999100441MW1051
0066036553999991954010520004+51933-001250SAO  +0138EGUA V0203601N004612200019N0064001N9+00021-00091102271ADDGA1041+006309059GF102991999999999999999999MA1999999100471MW1051
0066036553999991954010521004+51933-001250SAO  +0138EGUA V0203601N005112200019N0064001N9-00091-00091102271ADDGA1041+006309059GF102991999999999999999999MA1999999100471MW1051
0066036553999991954010522004+51933-001250SAO  +0138EGUA V0203601N006712200019N0064001N9-00091-00091102271ADDGA1001+999999999GF100991999999999999999999MA1999999100471MW1051
0066036553999991954010523004+51933-001250SAO  +0138EGUA V0203601N005712200019N0064001N9-00091-00091102271ADDGA1001+999999999GF100991999999999999999999MA1999999100471MW1051
0066036553999991954010600004+51933-001250SAO  +0138EGUA V0203601N005712200019N0032001N9-00091-00151102171ADDGA1001+999999999GF100991999999999999999999MA1999999100411MW1051
0066036553999991954010601004+51933-001250SAO  +0138EGUA V0203601N006712200019N0016001N9-00091-00151102171ADDGA1051+999999999GF107991999999999999999999MA1999999100371MW1451
0066036553999991954010602004+51933-001250SAO  +0138EGUA V0203401N006712200019N0016001N9-00091-00091102131ADDGA1051+999999999GF107991999999999999999999MA1999999100341MW1451
0066036553999991954010603004+51933-001250SAO  +0138EGUA V0203401N006212200019N0008001N9-00091-00091102101ADDGA1051+999999999GF107991999999999999999999MA1999999100301MW1451
0066036553999991954010604004+51933-001250SAO  +0138EGUA V0203401N006712200019N0002001N9-00091-00091102101ADDGA1051+999999999GF107991999999999999999999MA1999999100301MW1451
0066036553999991954010605004+51933-001250SAO  +0138EGUA V0203401N005112200019N0002001N9-00041-00041102071ADDGA1051+999999999GF107991999999999999999999MA1999999100271MW1451
0066036553999991954010606004+51933-001250SAO  +0138EGUA V0203401N004610001519N0002001N9-00091-00091102071ADDGA1091+000159999GF109991999999999999999999MA1999999100271MW1451
0066036553999991954010607004+51933-001250SAO  +0138EGUA V0203401N004610001519N0002001N9-00151-00151102031ADDGA1091+000159999GF109991999999999999999999MA1999999100241MW1451
0082036553999991954010608004+51933-001250SAO  +0138EGUA V0203401N004610105019N0001001N9-00261-00261102031ADDGA1051+999999999GA2021+010509059GF107991999999999999999999MA1999999100241MW1451
0082036553999991954010609004+51933-001250SAO  +0138EGUA V0203201N004112200019N0008001N9-00261-00371102031ADDGA1021+010509059GA2061+075009009GF107991999999999999999999MA1999999100241MW1111
0066036553999991954010610004+51933-001250SAO  +0138EGUA V0203201N003612200019N0008001N9-00151-00261102031ADDGA1061+075009009GF107991999999999999999999MA1999999100241MW1111
0082036553999991954010611004+51933-001250SAO  +0138EGUA V0203201N003112200019N0010001N9-00041-00151101961ADDGA1021+010509059GA2061+075009009GF107991999999999999999999MA1999999100171MW1111
0103036553999991954010612004+51933-001250SAO  +0138EGUA V0202901N003610072019N0020001N9+00021-00091101821ADDAA124027091GA1081+007209059GF108991999999999999999999KA1999M+00131KA2999N-00371MA1999999100071MW1111
0072036553999991954010613004+51933-001250SAO  +0138EGUA V0202701N003110090019N0032001N9+00131+00021101731ADDGA1081+009009059GF108991999999999999999999MA1999999099931MW1051MW2851
0072036553999991954010614004+51933-001250SAO  +0138EGUA V0202901N003110084019N0012001N9+00081+00021101691ADDGA1081+008409059GF108991999999999999999999MA1999999099901MW1051MW2851
0072036553999991954010615004+51933-001250SAO  +0138EGUA V0202901N004610012019N0012001N9+00081+00021101631ADDGA1091+001209999GF109991999999999999999999MA1999999099831MW1051MW2731
0066036553999991954010616004+51933-001250SAO  +0138EGUA V0203201N006210033019N0036001N9+00131+00081101591ADDGA1081+003309079GF108991999999999999999999MA1999999099801MW1051
0066036553999991954010617004+51933-001250SAO  +0138EGUA V0203201N007210021019N0024001N9+00131+00081101561ADDGA1081+002109079GF108991999999999999999999MA1999999099761MW1051
0094036553999991954010618004+51933-001250SAO  +0138EGUA V0203401N007710012019N0016001N9+00131+00081101661ADDGA1021+999999999GA2061+001209079GF108991999999999999999999MA1999999099861MW1051MW2451MW3511
0094036553999991954010619004+51933-001250SAO  +0138EGUA V0203401N008710012019N0010001N9+00131+00021101661ADDGA1021+999999999GA2061+001209079GF108991999999999999999999MA1999999099861MW1451MW2611MW3711
0088036553999991954010620004+51933-001250SAO  +0138EGUA V0203401N008710012019N0010001N9+00081+00021101661ADDGA1031+999999999GA2051+001209079GF108991999999999999999999MA1999999099861MW1451MW2711
0088036553999991954010621004+51933-001250SAO  +0138EGUA V0203401N008710012019N0010001N9+00081+00021101691ADDGA1051+999999999GA2031+001209079GF108991999999999999999999MA1999999099901MW1451MW2711
0088036553999991954010622004+51933-001250SAO  +0138EGUA V0203401N008710039019N0010001N9+00081+00021101731ADDGA1031+999999999GA2051+003909079GF108991999999999999999999MA1999999099931MW1451MW2711
0066036553999991954010623004+51933-001250SAO  +0138EGUA V0203401N009810240019N0080001N9+00081-00041101751ADDGA1081+024009049GF108991999999999999999999MA1999999100171MW1051
0066036553999991954010700004+51933-001250SAO  +0138EGUA V0203401N011312200019N0080001N9+00021-00151101801ADDGA1011+024009049GF102991999999999999999999MA1999999100001MW1051
0066036553999991954010701004+51933-001250SAO  +0138EGUA V0203401N011310105019N0080001N9+00021-00151101831ADDGA1081+010509059GF108991999999999999999999MA1999999100031MW1051
0066036553999991954010702004+51933-001250SAO  +0138EGUA V0203601N011810090019N0080001N9+00021-00151101901ADDGA1081+009009059GF108991999999999999999999MA1999999100101MW1051
0066036553999991954010703004+51933-001250SAO  +0138EGUA V0203601N010810120019N0080001N9+00021-00151101961ADDGA1061+012009059GF107991999999999999999999MA1999999100171MW1051
0066036553999991954010704004+51933-001250SAO  +0138EGUA V0203601N012910150019N0080001N9-00041-00201102031ADDGA1061+015009059GF107991999999999999999999MA1999999100241MW1051
0066036553999991954010705004+51933-001250SAO  +0138EGUA V0203601N011310150019N0080001N9-00091-00261102101ADDGA1061+015009059GF107991999999999999999999MA1999999100301MW1051
0082036553999991954010706004+51933-001250SAO  +0138EGUA V0203401N010812200019N0080001N9-00091-00261102131ADDGA1021+005409079GA2021+015009059GF102991999999999999999999MA1999999100341MW1051
0066036553999991954010707004+51933-001250SAO  +0138EGUA V0203401N008712200019N0080001N9-00151-00311102201ADDGA1001+999999999GF100991999999999999999999MA1999999100411MW1051
0066036553999991954010708004+51933-001250SAO  +0138EGUA V0203401N008712200019N0080001N9-00201-00371102271ADDGA1011+006009059GF102991999999999999999999MA1999999100471MW1051
0066036553999991954010709004+51933-001250SAO  +0138EGUA V0203401N009812200019N0080001N9-00151-00371102341ADDGA1021+006009059GF102991999999999999999999MA1999999100541MW1051
0066036553999991954010710004+51933-001250SAO  +0138EGUA V0203401N008212200019N0080001N9-00151-00371102441ADDGA1001+999999999GF100991999999999999999999MA1999999100641MW1051
0066036553999991954010711004+51933-001250SAO  +0138EGUA V0203401N008212200019N0064001N9-00091-00311102511ADDGA1091+004509999GF102991999999999999999999MA1999999100711MW1051
0103036553999991954010712004+51933-001250SAO  +0138EGUA V0203401N007712200019N0064001N9-00041-00201102511ADDAA124000091GA1091+004509999GF102991999999999999999999KA1999M+00081KA2999N-00311MA1999999100711MW1051
0066036553999991954010713004+51933-001250SAO  +0138EGUA V0203401N007712200019N0064001N9+00021-00311102541ADDGA1091+004509999GF102991999999999999999999MA1999999100751MW1051
0066036553999991954010714004+51933-001250SAO  +0138EGUA V0203401N008712200019N0064001N9+00081-00201102541ADDGA1091+004509999GF102991999999999999999999MA1999999100751MW1051
0066036553999991954010715004+51933-001250SAO  +0138EGUA V0203401N007212200019N0064001N9+00021-00201102571ADDGA1091+004509999GF102991999999999999999999MA1999999100781MW1051
0066036553999991954010716004+51933-001250SAO  +0138EGUA V0203401N007712200019N0064001N9-00041-00201102681ADDGA1091+004509999GF102991999999999999999999MA1999999100881MW1051
0066036553999991954010717004+51933-001250SAO  +0138EGUA V0203401N008712200019N0048001N9-00041-00261102741ADDGA1091+004509999GF102991999999999999999999MA1999999100951MW1051
0066036553999991954010718004+51933-001250SAO  +0138EGUA V0203401N007712200019N0064001N9-00041-00261102841ADDGA1001+999999999GF100991999999999999999999MA1999999101081MW1051
0066036553999991954010719004+51933-001250SAO  +0138EGUA V0203401N007212200019N0064001N9-00201-00421102911ADDGA1001+999999999GF100991999999999999999999MA1999999101121MW1051
0066036553999991954010720004+51933-001250SAO  +0138EGUA V0203401N005112200019N0064001N9-00201-00371103011ADDGA1001+999999999GF100991999999999999999999MA1999999101221MW1051
0066036553999991954010721004+51933-001250SAO  +0138EGUA V0203401N006712200019N0064001N9-00201-00371103151ADDGA1001+999999999GF100991999999999999999999MA1999999101321MW1051
0066036553999991954010722004+51933-001250SAO  +0138EGUA V0202901N005112200019N0064001N9-00201-00481103151ADDGA1001+999999999GF100991999999999999999999MA1999999101321MW1051
0066036553999991954010723004+51933-001250SAO  +0138EGUA V0203201N006212200019N0064001N9-00261-00481103151ADDGA1001+999999999GF100991999999999999999999MA1999999101321MW1051
0066036553999991954010800004+51933-001250SAO  +0138EGUA V0203201N006212200019N0064001N9-00311-00481103181ADDGA1001+999999999GF100991999999999999999999MA1999999101351MW1051
0066036553999991954010801004+51933-001250SAO  +0138EGUA V0203201N004612200019N0064001N9-00371-00531103221ADDGA1001+999999999GF100991999999999999999999MA1999999101391MW1051
0066036553999991954010802004+51933-001250SAO  +0138EGUA V0203201N005712200019N0064001N9-00371-00531103251ADDGA1001+999999999GF100991999999999999999999MA1999999101421MW1051
0066036553999991954010803004+51933-001250SAO  +0138EGUA V0203201N006212200019N0064001N9-00371-00531103291ADDGA1001+999999999GF100991999999999999999999MA1999999101491MW1051
0066036553999991954010804004+51933-001250SAO  +0138EGUA V0203201N006712200019N0048001N9-00371-00531103351ADDGA1001+999999999GF100991999999999999999999MA1999999101521MW1051
0066036553999991954010805004+51933-001250SAO  +0138EGUA V0203201N005112200019N0048001N9-00371-00531103391ADDGA1001+999999999GF100991999999999999999999MA1999999101561MW1051
0066036553999991954010806004+51933-001250SAO  +0138EGUA V0203201N006212200019N0048001N9-00421-00531103391ADDGA1001+999999999GF100991999999999999999999MA1999999101561MW1051
0066036553999991954010807004+51933-001250SAO  +0138EGUA V0203201N006212200019N0048001N9-00311-00531103391ADDGA1001+999999999GF100991999999999999999999MA1999999101561MW1051
0066036553999991954010808004+51933-001250SAO  +0138EGUA V0203201N005112200019N0032001N9-00421-00651103421ADDGA1011+010509059GF102991999999999999999999MA1999999101591MW1051
0066036553999991954010809004+51933-001250SAO  +0138EGUA V0203201N005112200019N0032001N9-00421-00651103451ADDGA1011+010509059GF102991999999999999999999MA1999999101631MW1051
0066036553999991954010810004+51933-001250SAO  +0138EGUA V0203201N006212200019N0064001N9-00261-00591103491ADDGA1011+069009009GF102991999999999999999999MA1999999101661MW1051
0066036553999991954010811004+51933-001250SAO  +0138EGUA V0203201N005112200019N0064001N9-00091-00371103521ADDGA1011+069009009GF102991999999999999999999MA1999999101691MW1051
0103036553999991954010812004+51933-001250SAO  +0138EGUA V0203201N005112200019N0064001N9+00081-00261103491ADDAA124000091GA1021+069009009GF102991999999999999999999KA1999M+00191KA2999N-00541MA1999999101661MW1051
0066036553999991954010813004+51933-001250SAO  +0138EGUA V0203201N005112200019N0064001N9+00131-00151103491ADDGA1041+069009009GF102991999999999999999999MA1999999101661MW1051
0082036553999991954010814004+51933-001250SAO  +0138EGUA V0203201N005112200019N0080001N9+00191-00091103451ADDGA1021+030009049GA2061+069009009GF107991999999999999999999MA1999999101631MW1051
0082036553999991954010815004+51933-001250SAO  +0138EGUA V0203201N002110120019N0080001N9+00191-00041103451ADDGA1061+012009059GA2031+069009009GF107991999999999999999999MA1999999101631MW1051
0098036553999991954010816004+51933-001250SAO  +0138EGUA V0202901N002612200019N0096001N9+00131-00041103451ADDGA1021+012009059GA2021+030009049GA3011+069009009GF102991999999999999999999MA1999999101631MW1051
0066036553999991954010817004+51933-001250SAO  +0138EGUA V0202501N003110120019N0064001N9+00131-00041103451ADDGA1051+012009059GF107991999999999999999999MA1999999101631MW1051
0066036553999991954010818004+51933-001250SAO  +0138EGUA V0202701N004112200019N0080001N9+00131-00041103421ADDGA1021+012009059GF102991999999999999999999MA1999999101591MW1051
0066036553999991954010819004+51933-001250SAO  +0138EGUA V0202301N003110072019N0080001N9+00081-00041103421ADDGA1051+007209059GF107991999999999999999999MA1999999101591MW1051
0082036553999991954010820004+51933-001250SAO  +0138EGUA V0202501N004610120019N0080001N9+00081-00041103421ADDGA1021+007209059GA2031+012009059GF107991999999999999999999MA1999999101591MW1051
0066036553999991954010821004+51933-001250SAO  +0138EGUA V0202501N003110180019N0080001N9+00081-00091103391ADDGA1051+018009059GF107991999999999999999999MA1999999101561MW1051
0066036553999991954010822004+51933-001250SAO  +0138EGUA V0202301N002610180019N0080001N9+00081-00091103391ADDGA1061+018009059GF107991999999999999999999MA1999999101561MW1051
0066036553999991954010823004+51933-001250SAO  +0138EGUA V0202301N004112200019N0080001N9+00131-00041103351ADDGA1021+018009059GF102991999999999999999999MA1999999101521MW1051
0066036553999991954010900004+51933-001250SAO  +0138EGUA V0202701N005112200019N0080001N9+00191+00021103321ADDGA1001+999999999GF100991999999999999999999MA1999999101491MW1051
0066036553999991954010901004+51933-001250SAO  +0138EGUA V0202501N005712200019N0080001N9+00191+00021103251ADDGA1001+999999999GF100991999999999999999999MA1999999101421MW1051
0066036553999991954010902004+51933-001250SAO  +0138EGUA V0202701N005112200019N0080001N9+00191+00021103251ADDGA1001+999999999GF100991999999999999999999MA1999999101421MW1051
0066036553999991954010903004+51933-001250SAO  +0138EGUA V0202501N003612200019N0080001N9+00081-00091103171ADDGA1001+999999999GF100991999999999999999999MA1999999101351MW1051
0066036553999991954010904004+51933-001250SAO  +0138EGUA V0202301N003610120019N0080001N9+00081-00091103141ADDGA1061+012009059GF107991999999999999999999MA1999999101321MW1051
0066036553999991954010905004+51933-001250SAO  +0138EGUA V0202301N002610105019N0064001N9+00081-00091103081ADDGA1081+010509059GF108991999999999999999999MA1999999101251MW1051
0066036553999991954010906004+51933-001250SAO  +0138EGUA V0202501N006210084019N0064001N9+00301+00131103011ADDGA1081+008409059GF108991999999999999999999MA1999999101221MW1051
0082036553999991954010907004+51933-001250SAO  +0138EGUA V0202701N006710240019N0080001N9+00461+00241102971ADDGA1031+008409059GA2021+024009039GF107991999999999999999999MA1999999101191MW1051
0066036553999991954010908004+51933-001250SAO  +0138EGUA V0202701N008710063019N0160001N9+00461+00351102901ADDGA1081+006309059GF108991999999999999999999MA1999999101121MW1001
0072036553999991954010909004+51933-001250SAO  +0138EGUA V0202701N006210057019N0080001N9+00461+00351102871ADDGA1081+005709079GF108991999999999999999999MA1999999101081MW1051MW2511
0082036553999991954010910004+51933-001250SAO  +0138EGUA V0202701N006210045019N0096001N9+00521+00411102801ADDGA1051+004509079GA2081+006309059GF108991999999999999999999MA1999999101051MW1051
0082036553999991954010911004+51933-001250SAO  +0138EGUA V0202901N007210045019N0096001N9+00631+00461102801ADDGA1051+004509079GA2081+006309059GF108991999999999999999999MA1999999101051MW1051
0119036553999991954010912004+51933-001250SAO  +0138EGUA V0203201N007710042019N0160001N9+00691+00461102701ADDAA124999929GA1051+004209079GA2081+006309059GF108991999999999999999999KA1999M+00691KA2999N+00021MA1999999100951MW1001
0088036553999991954010913004+51933-001250SAO  +0138EGUA V0203201N007710021019N0048001N9+00631+00521102681ADDGA1051+002109079GA2081+004509059GF108991999999999999999999MA1999999100911MW1051MW2511
0072036553999991954010914004+51933-001250SAO  +0138EGUA V0203601N005110015019N0012001N9+00581+00581102681ADDGA1081+001509079GF108991999999999999999999MA1999999100911MW1451MW2611
0088036553999991954010915004+51933-001250SAO  +0138EGUA V0200201N005710075019N0032001N9+00581+00351102681ADDGA1041+004509079GA2081+007509059GF108991999999999999999999MA1999999100911MW1451MW2611
0072036553999991954010916004+51933-001250SAO  +0138EGUA V0203601N004610102019N0032001N9+00461+00351102701ADDGA1081+010209059GF108991999999999999999999MA1999999100951MW1451MW2611
0072036553999991954010917004+51933-001250SAO  +0138EGUA V0203201N003110105019N0032001N9+00411+00301102701ADDGA1081+010509059GF108991999999999999999999MA1999999100951MW1451MW2611
0088036553999991954010918004+51933-001250SAO  +0138EGUA V0203401N004110240019N0016001N9+00301+00191102731ADDGA1021+010509059GA2081+024009049GF108991999999999999999999MA1999999100981MW1051MW2111
0088036553999991954010919004+51933-001250SAO  +0138EGUA V0203201N003610240019N0016001N9+00301+00191102771ADDGA1021+010509059GA2061+024009049GF107991999999999999999999MA1999999101021MW1051MW2111
0088036553999991954010920004+51933-001250SAO  +0138EGUA V0203201N003110240019N0016001N9+00241+00081102771ADDGA1021+010509059GA2061+024009049GF107991999999999999999999MA1999999101021MW1051MW2111
0088036553999991954010921004+51933-001250SAO  +0138EGUA V0203201N003110300019N0024001N9+00241+00131102771ADDGA1021+010509059GA2081+030009049GF108991999999999999999999MA1999999101021MW1051MW2111
0088036553999991954010922004+51933-001250SAO  +0138EGUA V0203201N004610084019N0020001N9+00191+00131102771ADDGA1021+004509079GA2061+008409059GF107991999999999999999999MA1999999101021MW1051MW2111
0088036553999991954010923004+51933-001250SAO  +0138EGUA V0203201N006210084019N0020001N9+00301+00241102771ADDGA1021+004509079GA2061+008409059GF107991999999999999999999MA1999999101021MW1051MW2111
0088036553999991954011000004+51933-001250SAO  +0138EGUA V0203201N004610072019N0020001N9+00351+00241102631ADDGA1061+007209059GA2081+030009049GF108991999999999999999999MA1999999100881MW1051MW2111
0072036553999991954011001004+51933-001250SAO  +0138EGUA V0203201N006712200019N0020001N9+00301+00241102601ADDGA1021+006309059GF102991999999999999999999MA1999999100851MW1051MW2111
0072036553999991954011002004+51933-001250SAO  +0138EGUA V0203201N007712200019N0040001N9+00301+00191102561ADDGA1001+999999999GF100991999999999999999999MA1999999100811MW1051MW2111
0066036553999991954011003004+51933-001250SAO  +0138EGUA V0203201N004612200019N0064001N9+00191+00131102561ADDGA1021+006309059GF102991999999999999999999MA1999999100811MW1051
0082036553999991954011004004+51933-001250SAO  +0138EGUA V0203201N006710036019N0064001N9+00301+00191102561ADDGA1021+002109059GA2061+003609059GF108991999999999999999999MA1999999100811MW1051
0066036553999991954011005004+51933-001250SAO  +0138EGUA V0203201N005112200019N0064001N9+00301+00241102501ADDGA1021+003909079GF102991999999999999999999MA1999999100751MW1051
0066036553999991954011006004+51933-001250SAO  +0138EGUA V0203201N005712200019N0064001N9+00301+00191102501ADDGA1001+999999999GF100991999999999999999999MA1999999100751MW1051
0066036553999991954011007004+51933-001250SAO  +0138EGUA V0203201N005110024019N0064001N9+00351+00241102501ADDGA1081+002409079GF108991999999999999999999MA1999999100751MW1051
0088036553999991954011008004+51933-001250SAO  +0138EGUA V0203201N005110021019N0018001N9+00411+00301102531ADDGA1051+002109079GA2081+004509059GF108991999999999999999999MA1999999100781MW1051MW2611
0082036553999991954011009004+51933-001250SAO  +0138EGUA V0203201N005110021019N0064001N9+00461+00411102531ADDGA1051+002109079GA2021+004509059GF107991999999999999999999MA1999999100781MW1051
0066036553999991954011010004+51933-001250SAO  +0138EGUA V0203201N006210045019N0064001N9+00581+00411102531ADDGA1061+004509059GF107991999999999999999999MA1999999100781MW1051
0082036553999991954011011004+51933-001250SAO  +0138EGUA V0203201N006210045019N0064001N9+00581+00461102531ADDGA1021+002409079GA2051+004509059GF107991999999999999999999MA1999999100781MW1051
0119036553999991954011012004+51933-001250SAO  +0138EGUA V0203201N005110045019N0064001N9+00631+00521102561ADDAA124999929GA1031+002409079GA2041+004509059GF107991999999999999999999KA1999M+00741KA2999N+00131MA1999999100811MW1051
0082036553999991954011013004+51933-001250SAO  +0138EGUA V0203201N007710051019N0064001N9+00741+00521102561ADDGA1021+002409079GA2041+005109059GF107991999999999999999999MA1999999100811MW1051
0082036553999991954011014004+51933-001250SAO  +0138EGUA V0203201N007710054019N0048001N9+00691+00461102531ADDGA1021+002409079GA2081+005409059GF108991999999999999999999MA1999999100781MW1051
0082036553999991954011015004+51933-001250SAO  +0138EGUA V0203201N006210072019N0064001N9+00691+00461102501ADDGA1031+002409079GA2081+007209059GF108991999999999999999999MA1999999100751MW1051
0082036553999991954011016004+51933-001250SAO  +0138EGUA V0203201N007710102019N0064001N9+00631+00411102461ADDGA1031+002409079GA2081+010209059GF108991999999999999999999MA1999999100711MW1051
0082036553999991954011017004+51933-001250SAO  +0138EGUA V0203201N008210102019N0064001N9+00631+00411102431ADDGA1031+002409079GA2081+010209059GF108991999999999999999999MA1999999100681MW1051
0066036553999991954011018004+51933-001250SAO  +0138EGUA V0203201N005710129019N0064001N9+00631+00461102431ADDGA1071+012909059GF107991999999999999999999MA1999999100681MW1051
0082036553999991954011019004+51933-001250SAO  +0138EGUA V0203201N007210129019N0064001N9+00631+00411102461ADDGA1021+004209079GA2061+012909059GF107991999999999999999999MA1999999100711MW1051
0066036553999991954011020004+51933-001250SAO  +0138EGUA V0203201N005110129019N0064001N9+00631+00411102461ADDGA1081+012909059GF108991999999999999999999MA1999999100711MW1051
0066036553999991954011021004+51933-001250SAO  +0138EGUA V0203201N006210105019N0064001N9+00691+00351102461ADDGA1061+010509059GF107991999999999999999999MA1999999100711MW1051
0066036553999991954011022004+51933-001250SAO  +0138EGUA V0203201N004112200019N0064001N9+00521+00351102461ADDGA1031+010509059GF102991999999999999999999MA1999999100711MW1051
0066036553999991954011023004+51933-001250SAO  +0138EGUA V0203201N004612200019N0064001N9+00461+00301102461ADDGA1001+999999999GF100991999999999999999999MA1999999100711MW1051
0066036553999991954011100004+51933-001250SAO  +0138EGUA V0203201N005112200019N0064001N9+00411+00301102501ADDGA1001+999999999GF100991999999999999999999MA1999999100751MW1051
0066036553999991954011101004+51933-001250SAO  +0138EGUA V0203201N006712200019N0064001N9+00461+00351102501ADDGA1001+999999999GF100991999999999999999999MA1999999100751MW1051
0066036553999991954011102004+51933-001250SAO  +0138EGUA V0203201N007210063019N0064001N9+00581+00411102501ADDGA1061+006309059GF107991999999999999999999MA1999999100751MW1051
0066036553999991954011103004+51933-001250SAO  +0138EGUA V0203201N008210051019N0064001N9+00631+00461102501ADDGA1061+005109079GF107991999999999999999999MA1999999100751MW1051
0066036553999991954011104004+51933-001250SAO  +0138EGUA V0203201N006712200019N0080001N9+00631+00411102461ADDGA1001+999999999GF100991999999999999999999MA1999999100711MW1051
0066036553999991954011105004+51933-001250SAO  +0138EGUA V0203201N005712200019N0080001N9+00521+00301102461ADDGA1001+999999999GF100991999999999999999999MA1999999100711MW1051
0066036553999991954011106004+51933-001250SAO  +0138EGUA V0203201N005112200019N0080001N9+00581+00411102391ADDGA1001+999999999GF100991999999999999999999MA1999999100641MW1051
0066036553999991954011107004+51933-001250SAO  +0138EGUA V0203201N006712200019N0080001N9+00521+00301102391ADDGA1031+012009059GF102991999999999999999999MA1999999100641MW1051
0066036553999991954011108004+51933-001250SAO  +0138EGUA V0202501N004610069019N0112001N9+00521+00301102391ADDGA1061+006909059GF107991999999999999999999MA1999999100641MW1001
0066036553999991954011109004+51933-001250SAO  +0138EGUA V0202901N007710105019N0112001N9+00521+00301102391ADDGA1051+010509059GF107991999999999999999999MA1999999100641MW1001
0066036553999991954011110004+51933-001250SAO  +0138EGUA V0202901N007710105019N0112001N9+00581+00301102391ADDGA1051+010509059GF107991999999999999999999MA1999999100641MW1001
0066036553999991954011111004+51933-001250SAO  +0138EGUA V0202901N007212200019N0128001N9+00691+00301102391ADDGA1021+010509059GF102991999999999999999999MA1999999100641MW1001
0103036553999991954011112004+51933-001250SAO  +0138EGUA V0202901N007210120019N0128001N9+00741+00411102431ADDAA124000091GA1051+012009059GF107991999999999999999999KA1999M+00741KA2999N+00301MA1999999100681MW1001
0066036553999991954011113004+51933-001250SAO  +0138EGUA V0202901N008210105019N0128001N9+00741+00411102361ADDGA1061+010509059GF107991999999999999999999MA1999999100611MW1001
0066036553999991954011114004+51933-001250SAO  +0138EGUA V0202901N006710105019N0128001N9+00741+00411102361ADDGA1071+010509059GF107991999999999999999999MA1999999100611MW1001
0082036553999991954011115004+51933-001250SAO  +0138EGUA V0202901N007710105019N0128001N9+00741+00351102361ADDGA1021+004509079GA2061+010509059GF108991999999999999999999MA1999999100611MW1001
0066036553999991954011116004+51933-001250SAO  +0138EGUA V0202901N005710087019N0128001N9+00691+00301102361ADDGA1081+008709059GF108991999999999999999999MA1999999100611MW1001
0066036553999991954011117004+51933-001250SAO  +0138EGUA V0202901N005110075019N0128001N9+00691+00301102291ADDGA1081+007509059GF108991999999999999999999MA1999999100541MW1001
0066036553999991954011118004+51933-001250SAO  +0138EGUA V0203201N006710102019N0128001N9+00691+00411102291ADDGA1081+010209059GF108991999999999999999999MA1999999100541MW1001
0066036553999991954011119004+51933-001250SAO  +0138EGUA V0203201N006210102019N0128001N9+00691+00411102291ADDGA1081+010209059GF108991999999999999999999MA1999999100541MW1001
0066036553999991954011120004+51933-001250SAO  +0138EGUA V0203201N004610102019N0128001N9+00691+00411102291ADDGA1081+010209059GF108991999999999999999999MA1999999100541MW1001
0066036553999991954011121004+51933-001250SAO  +0138EGUA V0202901N004610102019N0128001N9+00691+00351102291ADDGA1081+010209059GF108991999999999999999999MA1999999100541MW1001
0066036553999991954011122004+51933-001250SAO  +0138EGUA V0202701N003110102019N0112001N9+00631+00241102291ADDGA1081+010209059GF108991999999999999999999MA1999999100541MW1001
0066036553999991954011123004+51933-001250SAO  +0138EGUA V0202701N003610102019N0112001N9+00631+00241102291ADDGA1081+010209059GF108991999999999999999999MA1999999100541MW1001
0066036553999991954011200004+51933-001250SAO  +0138EGUA V0202501N003610102019N0112001N9+00631+00301102291ADDGA1081+010209059GF108991999999999999999999MA1999999100541MW1001
0066036553999991954011201004+51933-001250SAO  +0138EGUA V0202701N004110084019N0112001N9+00581+00301102261ADDGA1081+008409059GF108991999999999999999999MA1999999100511MW1001
0066036553999991954011202004+51933-001250SAO  +0138EGUA V0202701N004110084019N0112001N9+00581+00191102261ADDGA1081+008409059GF108991999999999999999999MA1999999100541MW1001
0066036553999991954011203004+51933-001250SAO  +0138EGUA V0202701N004110084019N0112001N9+00581+00191102261ADDGA1081+008409059GF108991999999999999999999MA1999999100511MW1001
0066036553999991954011204004+51933-001250SAO  +0138EGUA V0202501N003110084019N0112001N9+00581+00191102231ADDGA1081+008409059GF108991999999999999999999MA1999999100471MW1001
0066036553999991954011205004+51933-001250SAO  +0138EGUA V0202301N003110084019N0112001N9+00461+00241102161ADDGA1081+008409059GF108991999999999999999999MA1999999100411MW1001
0066036553999991954011206004+51933-001250SAO  +0138EGUA V0202501N002610084019N0112001N9+00521+00241102091ADDGA1081+008409059GF108991999999999999999999MA1999999100341MW1001
0066036553999991954011207004+51933-001250SAO  +0138EGUA V0202301N004110084019N0112001N9+00461+00241102061ADDGA1081+008409059GF108991999999999999999999MA1999999100301MW1001
0066036553999991954011208004+51933-001250SAO  +0138EGUA V0202301N004610084019N0144001N9+00411+00191102031ADDGA1081+008409059GF108991999999999999999999MA1999999100271MW1001
0066036553999991954011209004+51933-001250SAO  +0138EGUA V0202301N006210084019N0128001N9+00411+00241102001ADDGA1081+008409059GF108991999999999999999999MA1999999100241MW1001
0066036553999991954011210004+51933-001250SAO  +0138EGUA V0202301N006210102019N0128001N9+00461+00301102001ADDGA1081+010209059GF108991999999999999999999MA1999999100241MW1001
0066036553999991954011211004+51933-001250SAO  +0138EGUA V0202301N007210102019N0128001N9+00521+00351101961ADDGA1081+010209059GF108991999999999999999999MA1999999100201MW1001
0119036553999991954011212004+51933-001250SAO  +0138EGUA V0202301N005110018019N0128001N9+00581+00461101961ADDAA124000391GA1051+001809079GA2031+010209059GF108991999999999999999999KA1999M+00691KA2999N+00411MA1999999100201MW1001
0082036553999991954011213004+51933-001250SAO  +0138EGUA V0202301N006210021019N0096001N9+00581+00411101891ADDGA1051+002109079GA2031+010509059GF108991999999999999999999MA1999999100141MW1051
0098036553999991954011214004+51933-001250SAO  +0138EGUA V0202301N007210120019N0096001N9+00691+00351101751ADDGA1021+003609079GA2031+012009059GA3011+063009009GF107991999999999999999999MA1999999100001MW1051
0082036553999991954011215004+51933-001250SAO  +0138EGUA V0202301N007210045019N0096001N9+00691+00351101751ADDGA1051+004509079GA2031+012009059GF108991999999999999999999MA1999999100001MW1051
0082036553999991954011216004+51933-001250SAO  +0138EGUA V0202001N005710039019N0096001N9+00631+00411101691ADDGA1051+003909079GA2031+012009059GF108991999999999999999999MA1999999099931MW1051
0082036553999991954011217004+51933-001250SAO  +0138EGUA V0202001N006210063019N0080001N9+00581+00461101551ADDGA1061+006309079GA2021+015009059GF108991999999999999999999MA1999999099801MW1051
0082036553999991954011218004+51933-001250SAO  +0138EGUA V0202001N003610051019N0080001N9+00581+00351101411ADDGA1061+005109079GA2021+015009059GF108991999999999999999999MA1999999099661MW1051
0066036553999991954011219004+51933-001250SAO  +0138EGUA V0202001N006710300019N0080001N9+00581+00351101351ADDGA1061+030009049GF107991999999999999999999MA1999999099591MW1051
0066036553999991954011220004+51933-001250SAO  +0138EGUA V0202001N005710780019N0080001N9+00521+00351101241ADDGA1061+078009009GF107991999999999999999999MA1999999099491MW1051
0066036553999991954011221004+51933-001250SAO  +0138EGUA V0202001N006210780019N0080001N9+00461+00351101181ADDGA1051+078009009GF107991999999999999999999MA1999999099421MW1051
0066036553999991954011222004+51933-001250SAO  +0138EGUA V0202001N006210150019N0080001N9+00581+00461101071ADDGA1081+015009059GF108991999999999999999999MA1999999099321MW1051
0088036553999991954011223004+51933-001250SAO  +0138EGUA V0202001N007210069019N0080001N9+00631+00521100901ADDGA1021+003009079GA2061+006909059GF108991999999999999999999MA1999999099191MW1051MW2611
0088036553999991954011300004+51933-001250SAO  +0138EGUA V0202001N007710033019N0080001N9+00691+00581100741ADDGA1031+001809079GA2081+003309079GF108991999999999999999999MA1999999099021MW1051MW2611
0072036553999991954011301004+51933-001250SAO  +0138EGUA V0202001N007710024019N0080001N9+00741+00691100671ADDGA1081+002409079GF108991999999999999999999MA1999999098951MW1051MW2611
0066036553999991954011302004+51933-001250SAO  +0138EGUA V0202001N007710021019N0080001N9+00741+00741100571ADDGA1081+002109079GF108991999999999999999999MA1999999098851MW1051
0066036553999991954011303004+51933-001250SAO  +0138EGUA V0202301N008210024019N0128001N9+00851+00741100501ADDGA1081+002409079GF108991999999999999999999MA1999999098781MW1001
0082036553999991954011304004+51933-001250SAO  +0138EGUA V0202301N004610045019N0128001N9+00801+00691100431ADDGA1021+002409079GA2041+004509059GF107991999999999999999999MA1999999098711MW1001
0066036553999991954011305004+51933-001250SAO  +0138EGUA V0202301N005710135019N0128001N9+00691+00581100361ADDGA1081+013509059GF108991999999999999999999MA1999999098651MW1001
0066036553999991954011306004+51933-001250SAO  +0138EGUA V0202301N005110135019N0128001N9+00691+00631100161ADDGA1081+013509059GF108991999999999999999999MA1999999098481MW1001
0082036553999991954011307004+51933-001250SAO  +0138EGUA V0202001N007710135019N0128001N9+00631+00581100131ADDGA1021+004509079GA2081+013509059GF108991999999999999999999MA1999999098411MW1001
0082036553999991954011308004+51933-001250SAO  +0138EGUA V0202001N007210180019N0128001N9+00631+00521100071ADDGA1021+005109079GA2081+999999059GF108991999999999999999999MA1999999098341MW1001
0082036553999991954011309004+51933-001250SAO  +0138EGUA V0202001N007210180019N0128001N9+00691+00521099901ADDGA1031+004209079GA2081+018009059GF108991999999999999999999MA1999999098171MW1801
0082036553999991954011310004+51933-001250SAO  +0138EGUA V0202001N007710135019N0144001N9+00741+00581099701ADDGA1031+003909079GA2081+013509059GF108991999999999999999999MA1999999097971MW1001
0082036553999991954011311004+51933-001250SAO  +0138EGUA V0202001N008710036019N0128001N9+00801+00631099491ADDGA1041+002109079GA2081+003609059GF108991999999999999999999MA1999999097771MW1801
0119036553999991954011312004+51933-001250SAO  +0138EGUA V0202001N008710042019N0048001N9+00801+00631099092ADDAA124011091GA1041+001809079GA2081+004209059GF108991999999999999999999KA1999M+00851KA2999N+00191MA1999999097391MW1631
0088036553999991954011313004+51933-001250SAO  +0138EGUA V0202701N010310135019N0080001N9+00631+00521099091ADDGA1021+003009079GA2081+013509059GF108991999999999999999999MA1999999097391MW1051MW2631
0082036553999991954011314004+51933-001250SAO  +0138EGUA V0202701N008210135019N0128001N9+00581+00351099051ADDGA1031+005709079GA2041+013509059GF107991999999999999999999MA1999999097361MW1001
0082036553999991954011315004+51933-001250SAO  +0138EGUA V0202701N007210210019N0128001N9+00521+00411099051ADDGA1031+006009079GA2041+021009049GF107991999999999999999999MA1999999097361MW1001
0072036553999991954011316004+51933-001250SAO  +0138EGUA V0203201N018010015019N0012001N9+00521+00351099051ADDGA1081+001509099GF108991999999999999999999MA1999999097361MW1811MW2891
0082036553999991954011317004+51933-001250SAO  +0138EGUA V0202701N011312200019N0112001N9+00301+00021099051ADDGA1021+003609079GA2021+006009059GF102991999999999999999999MA1999999097361MW1001
0066036553999991954011318004+51933-001250SAO  +0138EGUA V0202701N011312200019N0112001N9+00241-00041099181ADDGA1021+006009079GF102991999999999999999999MA1999999097461MW1001
0066036553999991954011319004+51933-001250SAO  +0138EGUA V0202901N008712200019N0112001N9+00241-00041099251ADDGA1021+007509059GF102991999999999999999999MA1999999097491MW1001
0066036553999991954011320004+51933-001250SAO  +0138EGUA V0202701N010312200019N0112001N9+00191-00091099351ADDGA1001+999999999GF100991999999999999999999MA1999999097631MW1001
0066036553999991954011321004+51933-001250SAO  +0138EGUA V0202501N008212200019N0160001N9+00191-00091099451ADDGA1001+999999999GF100991999999999999999999MA1999999097701MW1001
0066036553999991954011322004+51933-001250SAO  +0138EGUA V0202701N008212200019N0160001N9+00191-00091099481ADDGA1001+999999999GF100991999999999999999999MA1999999097771MW1001
0066036553999991954011323004+51933-001250SAO  +0138EGUA V0202701N009812200019N0160001N9+00191-00091099451ADDGA1001+999999999GF100991999999999999999999MA1999999097801MW1001
0066036553999991954011400004+51933-001250SAO  +0138EGUA V0202501N008212200019N0160001N9+00191-00041099621ADDGA1011+006009059GF102991999999999999999999MA1999999097901MW1001
0066036553999991954011401004+51933-001250SAO  +0138EGUA V0202701N007712200019N0160001N9+00191-00041099621ADDGA1001+999999999GF100991999999999999999999MA1999999097901MW1001
0066036553999991954011402004+51933-001250SAO  +0138EGUA V0202701N010312200019N0160001N9+00241-00041099651ADDGA1001+999999999GF100991999999999999999999MA1999999097931MW1001
0066036553999991954011403004+51933-001250SAO  +0138EGUA V0202701N010312200019N0160001N9+00241-00041099691ADDGA1001+999999999GF100991999999999999999999MA1999999097971MW1001
0066036553999991954011404004+51933-001250SAO  +0138EGUA V0202701N008712200019N0160001N9+00241+00021099751ADDGA1001+999999999GF100991999999999999999999MA1999999098041MW1001
0066036553999991954011405004+51933-001250SAO  +0138EGUA V0202701N008212200019N0160001N9+00241+00021099791ADDGA1001+999999999GF100991999999999999999999MA1999999098071MW1001
0066036553999991954011406004+51933-001250SAO  +0138EGUA V0202501N005712200019N0160001N9+00241-00041099821ADDGA1001+999999999GF100991999999999999999999MA1999999098101MW1001
0066036553999991954011407004+51933-001250SAO  +0138EGUA V0202501N006712200019N0160001N9+00191+00081099821ADDGA1021+030009039GF102991999999999999999999MA1999999098101MW1001
0082036553999991954011408004+51933-001250SAO  +0138EGUA V0202501N006712200019N0160001N9+00191-00041099891ADDGA1021+010509059GA2021+030009039GF102991999999999999999999MA1999999098171MW1001
0082036553999991954011409004+51933-001250SAO  +0138EGUA V0202301N005112200019N0160001N9+00191-00041099971ADDGA1021+010509059GA2021+030009039GF102991999999999999999999MA1999999098241MW1001
0082036553999991954011410004+51933-001250SAO  +0138EGUA V0202301N006712200019N0160001N9+00301+00021099971ADDGA1021+010509059GA2021+030009039GF102991999999999999999999MA1999999098241MW1001
0082036553999991954011411004+51933-001250SAO  +0138EGUA V0202501N007210360019N0160001N9+00461+00191099971ADDGA1021+010509059GA2061+036009039GF107991999999999999999999MA1999999098241MW1001
0119036553999991954011412004+51933-001250SAO  +0138EGUA V0202501N007210240019N0160001N9+00461+00241100091ADDAA124999929GA1021+010509059GA2081+024009039GF108991999999999999999999KA1999M+00801KA2999N+00131MA1999999098341MW1001
0082036553999991954011413004+51933-001250SAO  +0138EGUA V0202301N005710099019N0160001N9+00581+00301100091ADDGA1051+009909059GA2081+030009049GF108991999999999999999999MA1999999098341MW1001
0082036553999991954011414004+51933-001250SAO  +0138EGUA V0202301N005110105019N0160001N9+00581+00351100061ADDGA1051+010509059GA2081+030009049GF108991999999999999999999MA1999999098311MW1001
0082036553999991954011415004+51933-001250SAO  +0138EGUA V0202001N004110090019N0112001N9+00631+00411100061ADDGA1051+009009059GA2081+030009049GF108991999999999999999999MA1999999098311MW1001
0082036553999991954011416004+51933-001250SAO  +0138EGUA V0202501N005110090019N0112001N9+00631+00461100031ADDGA1051+009009059GA2081+030009049GF108991999999999999999999MA1999999098271MW1001
0082036553999991954011417004+51933-001250SAO  +0138EGUA V0202501N007210102019N0080001N9+00631+00521100031ADDGA1051+010209059GA2081+030009049GF108991999999999999999999MA1999999098271MW1051
0082036553999991954011418004+51933-001250SAO  +0138EGUA V0202301N006710102019N0064001N9+00691+00521099791ADDGA1051+010209059GA2081+030009049GF108991999999999999999999MA1999999098071MW1051
0082036553999991954011419004+51933-001250SAO  +0138EGUA V0202501N004610300019N0080001N9+00691+00581099791ADDGA1021+010209059GA2081+030009049GF108991999999999999999999MA1999999098071MW1051
0082036553999991954011420004+51933-001250SAO  +0138EGUA V0202501N005110300019N0080001N9+00741+00631099821ADDGA1021+007509059GA2081+030009049GF108991999999999999999999MA1999999098101MW1051
0082036553999991954011421004+51933-001250SAO  +0138EGUA V0202501N006710300019N0080001N9+00801+00581099821ADDGA1021+007509059GA2081+030009049GF108991999999999999999999MA1999999098101MW1051
0088036553999991954011422004+51933-001250SAO  +0138EGUA V0202501N008210300019N0064001N9+00741+00631099791ADDGA1031+007509079GA2081+030009049GF108991999999999999999999MA1999999098071MW1051MW2611
0088036553999991954011423004+51933-001250SAO  +0138EGUA V0202501N007710075019N0080001N9+00801+00631099831ADDGA1061+007509059GA2021+030009049GF108991999999999999999999MA1999999098101MW1051MW2611
0088036553999991954011500004+51933-001250SAO  +0138EGUA V0202301N005110015019N0080001N9+00741+00691099901ADDGA1061+001509079GA2021+007509059GF108991999999999999999999MA1999999098171MW1051MW2611
0066036553999991954011501004+51933-001250SAO  +0138EGUA V0202001N007210021019N0080001N9+00851+00691099901ADDGA1081+002109079GF108991999999999999999999MA1999999098171MW1051
0066036553999991954011502004+51933-001250SAO  +0138EGUA V0202301N006210006019N0048001N9+00851+00801099871ADDGA1081+000609079GF108991999999999999999999MA1999999098141MW1051
0082036553999991954011503004+51933-001250SAO  +0138EGUA V0202301N008210072019N0048001N9+00961+00911099791ADDGA1021+001509079GA2081+007209059GF108991999999999999999999MA1999999098101MW1051
0082036553999991954011504004+51933-001250SAO  +0138EGUA V0202501N006210075019N0048001N9+01021+00961099791ADDGA1021+002409079GA2081+007509059GF108991999999999999999999MA1999999098101MW1051
0066036553999991954011505004+51933-001250SAO  +0138EGUA V0202501N006710066019N0080001N9+01131+00961099751ADDGA1081+006609059GF108991999999999999999999MA1999999098071MW1051
0082036553999991954011506004+51933-001250SAO  +0138EGUA V0202501N008210066019N0096001N9+01191+01021099751ADDGA1031+003609079GA2081+006609059GF108991999999999999999999MA1999999098071MW1051
0082036553999991954011507004+51933-001250SAO  +0138EGUA V0202501N008710057019N0096001N9+01191+01021099751ADDGA1031+003609079GA2081+005709059GF108991999999999999999999MA1999999098071MW1051
0098036553999991954011508004+51933-001250SAO  +0138EGUA V0202501N007710063019N0160001N9+01191+00961099751ADDGA1021+003609079GA2051+006309059GA3011+060009009GF107991999999999999999999MA1999999098071MW1001
0082036553999991954011509004+51933-001250SAO  +0138EGUA V0202501N011810042019N0160001N9+01191+01021099751ADDGA1051+004209079GA2021+060009009GF107991999999999999999999MA1999999098071MW1001
0082036553999991954011510004+51933-001250SAO  +0138EGUA V0202501N011310600019N0160001N9+01241+01021099791ADDGA1021+006309079GA2051+060009009GF107991999999999999999999MA1999999098101MW1001
0082036553999991954011511004+51933-001250SAO  +0138EGUA V0202501N010810045019N0160001N9+01241+00961099791ADDGA1051+004509079GA2031+024009049GF108991999999999999999999MA1999999098101MW1001
0119036553999991954011512004+51933-001250SAO  +0138EGUA V0202501N015410039019N0160001N9+01241+00961099651ADDAA124999929GA1051+003909079GA2021+024009049GF107991999999999999999999KA1999M+01351KA2999N+00691MA1999999097971MW1801
0082036553999991954011513004+51933-001250SAO  +0138EGUA V0202701N018010036019N0160001N9+01351+00851099621ADDGA1051+003609089GA2021+060009009GF107991999999999999999999MA1999999097931MW1001
0082036553999991954011514004+51933-001250SAO  +0138EGUA V0202701N010310600019N0160001N9+01241+00631099581ADDGA1031+003609089GA2021+060009009GF107991999999999999999999MA1999999097901MW1001
0066036553999991954011515004+51933-001250SAO  +0138EGUA V0202701N012910102019N0112001N9+01191+00521099581ADDGA1061+010209099GF107991999999999999999999MA1999999097931MW1001
0066036553999991954011516004+51933-001250SAO  +0138EGUA V0202701N010312200019N0112001N9+01071+00461099621ADDGA1031+009009089GF102991999999999999999999MA1999999097971MW1001
0066036553999991954011517004+51933-001250SAO  +0138EGUA V0202701N015412200019N0112001N9+01021+00351099651ADDGA1041+009009089GF102991999999999999999999MA1999999098041MW1001
0066036553999991954011518004+51933-001250SAO  +0138EGUA V0202701N019510102019N0112001N9+00961+00351099851ADDGA1051+010209089GF107991999999999999999999MA1999999098171MW1001
0066036553999991954011519004+51933-001250SAO  +0138EGUA V0202701N013412200019N0112001N9+00741+00351100031ADDGA1041+010509089GF102991999999999999999999MA1999999098341MW1001
0066036553999991954011520004+51933-001250SAO  +0138EGUA V0202701N013412200019N0112001N9+00801+00241100091ADDGA1041+010509089GF102991999999999999999999MA1999999098411MW1001
0066036553999991954011521004+51933-001250SAO  +0138EGUA V0202701N012312200019N0112001N9+00801+00241100231ADDGA1041+010509089GF102991999999999999999999MA1999999098541MW1001
0066036553999991954011522004+51933-001250SAO  +0138EGUA V0202701N013412200019N0112001N9+00741+00241100301ADDGA1041+010509089GF102991999999999999999999MA1999999098611MW1001
0066036553999991954011523004+51933-001250SAO  +0138EGUA V0202701N013412200019N0112001N9+00741+00301100431ADDGA1041+010509089GF102991999999999999999999MA1999999098751MW1001
0066036553999991954011600004+51933-001250SAO  +0138EGUA V0202701N011312200019N0128001N9+00691+00081100601ADDGA1031+010509089GF102991999999999999999999MA1999999098921MW1001
0066036553999991954011601004+51933-001250SAO  +0138EGUA V0202701N013412200019N0128001N9+00691+00081100741ADDGA1021+010509089GF102991999999999999999999MA1999999099051MW1001
0066036553999991954011602004+51933-001250SAO  +0138EGUA V0202701N013410105019N0128001N9+00691+00081100771ADDGA1061+010509059GF107991999999999999999999MA1999999099091MW1001
0066036553999991954011603004+51933-001250SAO  +0138EGUA V0202701N011312200019N0128001N9+00691+00081100841ADDGA1031+010509059GF102991999999999999999999MA1999999099151MW1001
0066036553999991954011604004+51933-001250SAO  +0138EGUA V0202701N013412200019N0128001N9+00691+00081100941ADDGA1031+010509059GF102991999999999999999999MA1999999099221MW1001
0066036553999991954011605004+51933-001250SAO  +0138EGUA V0202701N011312200019N0128001N9+00631+00081101071ADDGA1031+010509059GF102991999999999999999999MA1999999099361MW1001
0066036553999991954011606004+51933-001250SAO  +0138EGUA V0202701N011312200019N0128001N9+00631+00081101211ADDGA1031+010509059GF102991999999999999999999MA1999999099491MW1001
0066036553999991954011607004+51933-001250SAO  +0138EGUA V0202701N012912200019N0160001N9+00581+00081101341ADDGA1031+010509059GF102991999999999999999999MA1999999099591MW1001
0066036553999991954011608004+51933-001250SAO  +0138EGUA V0202701N007712200019N0160001N9+00521+00081101511ADDGA1011+010509059GF102991999999999999999999MA1999999099761MW1001
0066036553999991954011609004+51933-001250SAO  +0138EGUA V0202701N008712200019N0160001N9+00581+00081101621ADDGA1041+010509059GF102991999999999999999999MA1999999099861MW1001
0066036553999991954011610004+51933-001250SAO  +0138EGUA V0202701N007212200019N0160001N9+00631+00081101751ADDGA1001+999999999GF100991999999999999999999MA1999999100001MW1001
0066036553999991954011611004+51933-001250SAO  +0138EGUA V0202701N012312200019N0160001N9+00741+00081101821ADDGA1001+999999999GF100991999999999999999999MA1999999100071MW1001
0103036553999991954011612004+51933-001250SAO  +0138EGUA V0202701N013412200019N0160001N9+00851-00091101821ADDAA124000091GA1001+999999999GF100991999999999999999999KA1999M+00851KA2999N+00301MA1999999100071MW1001
0066036553999991954011613004+51933-001250SAO  +0138EGUA V0202701N009312200019N0160001N9+00851+00081101821ADDGA1021+007509059GF102991999999999999999999MA1999999100071MW1001
0066036553999991954011614004+51933-001250SAO  +0138EGUA V0202701N011312200019N0160001N9+00851+00081101821ADDGA1011+007509059GF102991999999999999999999MA1999999100071MW1001
0066036553999991954011615004+51933-001250SAO  +0138EGUA V0202701N011312200019N0160001N9+00801+00021101821ADDGA1011+007509059GF102991999999999999999999MA1999999100071MW1001
0066036553999991954011616004+51933-001250SAO  +0138EGUA V0202701N010312200019N0160001N9+00741+00081101851ADDGA1021+007509059GF102991999999999999999999MA1999999100101MW1001
0066036553999991954011617004+51933-001250SAO  +0138EGUA V0202701N009812200019N0160001N9+00631+00131101851ADDGA1011+007509059GF102991999999999999999999MA1999999100101MW1001
0066036553999991954011618004+51933-001250SAO  +0138EGUA V0202701N008712200019N0160001N9+00631+00191101891ADDGA1011+007509059GF102991999999999999999999MA1999999100141MW1001
0066036553999991954011619004+51933-001250SAO  +0138EGUA V0202501N005712200019N0160001N9+00461+00131101951ADDGA1011+007509059GF102991999999999999999999MA1999999100201MW1001
0066036553999991954011620004+51933-001250SAO  +0138EGUA V0202501N005112200019N0160001N9+00411+00081101991ADDGA1001+999999999GF100991999999999999999999MA1999999100241MW1001
0066036553999991954011621004+51933-001250SAO  +0138EGUA V0202501N008212200019N0160001N9+00411+00081102021ADDGA1001+999999999GF100991999999999999999999MA1999999100271MW1001
0066036553999991954011622004+51933-001250SAO  +0138EGUA V0202501N007212200019N0160001N9+00411+00191102061ADDGA1001+999999999GF100991999999999999999999MA1999999100301MW1001
0066036553999991954011623004+51933-001250SAO  +0138EGUA V0202501N006212200019N0160001N9+00411+00191102101ADDGA1001+999999999GF100991999999999999999999MA1999999100341MW1001
0066036553999991954011700004+51933-001250SAO  +0138EGUA V0202501N004612200019N0160001N9+00351+00241102201ADDGA1001+999999999GF100991999999999999999999MA1999999100441MW1001
0066036553999991954011701004+51933-001250SAO  +0138EGUA V0202501N006212200019N0160001N9+00351+00191102191ADDGA1001+999999999GF100991999999999999999999MA1999999100441MW1001
0066036553999991954011702004+51933-001250SAO  +0138EGUA V0202501N006712200019N0160001N9+00351+00131102191ADDGA1001+999999999GF100991999999999999999999MA1999999100441MW1001
0066036553999991954011703004+51933-001250SAO  +0138EGUA V0202501N004612200019N0160001N9+00301+00191102231ADDGA1001+999999999GF100991999999999999999999MA1999999100471MW1001
0066036553999991954011704004+51933-001250SAO  +0138EGUA V0202501N007712200019N0160001N9+00351+00241102231ADDGA1001+999999999GF100991999999999999999999MA1999999100471MW1001
0066036553999991954011705004+51933-001250SAO  +0138EGUA V0202501N010312200019N0160001N9+00351+00191102231ADDGA1001+999999999GF100991999999999999999999MA1999999100471MW1001
0066036553999991954011706004+51933-001250SAO  +0138EGUA V0202501N010812200019N0160001N9+00351+00241102231ADDGA1001+999999999GF100991999999999999999999MA1999999100471MW1001
0066036553999991954011707004+51933-001250SAO  +0138EGUA V0202501N010812200019N0160001N9+00461+00081102261ADDGA1001+999999999GF100991999999999999999999MA1999999100511MW1001
0082036553999991954011708004+51933-001250SAO  +0138EGUA V0202501N008712200019N0160001N9+00411+00021102261ADDGA1011+015009059GA2021+084009009GF102991999999999999999999MA1999999100541MW1001
0082036553999991954011709004+51933-001250SAO  +0138EGUA V0202501N008712200019N0160001N9+00521+00081102331ADDGA1021+021009049GA2021+084009009GF102991999999999999999999MA1999999100581MW1001
0082036553999991954011710004+51933-001250SAO  +0138EGUA V0202701N010312200019N0160001N9+00581+00131102391ADDGA1021+021009049GA2021+084009009GF102991999999999999999999MA1999999100641MW1001
0082036553999991954011711004+51933-001250SAO  +0138EGUA V0202901N008212200019N0160001N9+00741+00191102501ADDGA1021+021009049GA2021+084009009GF102991999999999999999999MA1999999100751MW1001
0119036553999991954011712004+51933-001250SAO  +0138EGUA V0202901N010810075019N0160001N9+00741+00241102561ADDAA124000091GA1021+004509079GA2041+007509059GF107991999999999999999999KA1999M+00851KA2999N+00131MA1999999100811MW1001
0082036553999991954011713004+51933-001250SAO  +0138EGUA V0202901N010810075019N0160001N9+00741+00241102601ADDGA1021+004509059GA2041+007509059GF107991999999999999999999MA1999999100851MW1001
0082036553999991954011714004+51933-001250SAO  +0138EGUA V0202901N010310090019N0160001N9+00801+00241102631ADDGA1021+004509059GA2041+009009059GF107991999999999999999999MA1999999100881MW1001
0082036553999991954011715004+51933-001250SAO  +0138EGUA V0202901N008712200019N0160001N9+00741+00191102671ADDGA1021+009009059GA2021+015009059GF102991999999999999999999MA1999999100911MW1001
0066036553999991954011716004+51933-001250SAO  +0138EGUA V0202901N008212200019N0160001N9+00691+00241102671ADDGA1031+015009059GF102991999999999999999999MA1999999100911MW1001
0066036553999991954011717004+51933-001250SAO  +0138EGUA V0202901N006212200019N0160001N9+00631+00131102771ADDGA1031+021009039GF102991999999999999999999MA1999999101021MW1001
0066036553999991954011718004+51933-001250SAO  +0138EGUA V0202901N007712200019N0160001N9+00461+00131102871ADDGA1001+999999999GF100991999999999999999999MA1999999101121MW1001
0066036553999991954011719004+51933-001250SAO  +0138EGUA V0202701N005112200019N0160001N9+00411+00081102941ADDGA1031+090009009GF102991999999999999999999MA1999999101191MW1001
0066036553999991954011720004+51933-001250SAO  +0138EGUA V0202701N004110300019N0160001N9+00411+00131102971ADDGA1061+030009049GF107991999999999999999999MA1999999101221MW1001
0066036553999991954011721004+51933-001250SAO  +0138EGUA V0202901N006210240019N0160001N9+00461+00081103001ADDGA1061+024009039GF107991999999999999999999MA1999999101251MW1001
0066036553999991954011722004+51933-001250SAO  +0138EGUA V0202901N004612200019N0160001N9+00351+00131103071ADDGA1001+999999999GF100991999999999999999999MA1999999101321MW1001
0066036553999991954011723004+51933-001250SAO  +0138EGUA V0202901N004612200019N0160001N9+00301+00081103141ADDGA1001+999999999GF100991999999999999999999MA1999999101391MW1001
0066036553999991954011800004+51933-001250SAO  +0138EGUA V0202501N004612200019N0160001N9+00191+00021103311ADDGA1001+999999999GF100991999999999999999999MA1999999101521MW1001
0066036553999991954011801004+51933-001250SAO  +0138EGUA V0202901N002612200019N0160001N9+00191+00131103311ADDGA1001+999999999GF100991999999999999999999MA1999999101521MW1001
0066036553999991954011802004+51933-001250SAO  +0138EGUA V0203201N003612200019N0160001N9+00191+00021103311ADDGA1001+999999999GF100991999999999999999999MA1999999101521MW1001
0066036553999991954011803004+51933-001250SAO  +0138EGUA V0202901N002112200019N0160001N9+00131-00041103311ADDGA1001+999999999GF100991999999999999999999MA1999999101521MW1001
0066036553999991954011804004+51933-001250SAO  +0138EGUA V0202901N002112200019N0160001N9+00131-00041103341ADDGA1001+999999999GF100991999999999999999999MA1999999101561MW1001
0066036553999991954011805004+51933-001250SAO  +0138EGUA V0203201N002112200019N0160001N9+00131-00041103381ADDGA1001+999999999GF100991999999999999999999MA1999999101591MW1001
0066036553999991954011806004+51933-001250SAO  +0138EGUA V0209991C000012200019N0112001N9-00041-00151103381ADDGA1011+075009009GF102991999999999999999999MA1999999101591MW1001
0066036553999991954011807004+51933-001250SAO  +0138EGUA V0209991C000012200019N0112001N9-00091-00201103381ADDGA1021+075009009GF102991999999999999999999MA1999999101591MW1001
0066036553999991954011808004+51933-001250SAO  +0138EGUA V0202001N002110420019N0048001N9-00091-00201103381ADDGA1051+042009039GF107991999999999999999999MA1999999101591MW1041
0066036553999991954011809004+51933-001250SAO  +0138EGUA V0209991C000010330019N0064001N9-00041-00151103381ADDGA1061+033009039GF107991999999999999999999MA1999999101591MW1051
0066036553999991954011810004+51933-001250SAO  +0138EGUA V0209991C000010270019N0064001N9+00021-00091103381ADDGA1061+027009039GF107991999999999999999999MA1999999101591MW1051
0066036553999991954011811004+51933-001250SAO  +0138EGUA V0202001N002610300019N0032001N9+00081-00041103381ADDGA1071+030009039GF107991999999999999999999MA1999999101591MW1051
0103036553999991954011812004+51933-001250SAO  +0138EGUA V0209991C000010300019N0024001N9+00191-00151103461ADDAA124000091GA1071+030009039GF107991999999999999999999KA1999M+00581KA2999N-00091MA1999999101631MW1051
0066036553999991954011813004+51933-001250SAO  +0138EGUA V0201801N002110300019N0032001N9+00301+00081103381ADDGA1071+030009039GF107991999999999999999999MA1999999101591MW1051
0066036553999991954011814004+51933-001250SAO  +0138EGUA V0201801N003110300019N0032001N9+00351+00131103311ADDGA1071+030009039GF107991999999999999999999MA1999999101521MW1051
0066036553999991954011815004+51933-001250SAO  +0138EGUA V0201801N003110300019N0040001N9+00461+00241103281ADDGA1061+030009039GF107991999999999999999999MA1999999101461MW1051
0082036553999991954011816004+51933-001250SAO  +0138EGUA V0202001N005110780019N0080001N9+00521+00301103221ADDGA1031+030009039GA2021+078009009GF107991999999999999999999MA1999999101421MW1051
0066036553999991954011817004+51933-001250SAO  +0138EGUA V0202001N002110300019N0064001N9+00521+00301103181ADDGA1061+030009039GF107991999999999999999999MA1999999101391MW1051
0082036553999991954011818004+51933-001250SAO  +0138EGUA V0201801N003110300019N0064001N9+00461+00241103111ADDGA1051+030009039GA2021+078009009GF107991999999999999999999MA1999999101321MW1051
0082036553999991954011819004+51933-001250SAO  +0138EGUA V0202001N004610300019N0064001N9+00461+00301103081ADDGA1061+030009039GA2011+078009029GF107991999999999999999999MA1999999101251MW1051
0082036553999991954011820004+51933-001250SAO  +0138EGUA V0202001N004610072019N0064001N9+00461+00301103051ADDGA1061+007209059GA2011+078009029GF107991999999999999999999MA1999999101221MW1051
0066036553999991954011821004+51933-001250SAO  +0138EGUA V0202001N006712200019N0036001N9+00461+00301102981ADDGA1021+015009059GF102991999999999999999999MA1999999101191MW1051
0066036553999991954011822004+51933-001250SAO  +0138EGUA V0202301N006712200019N0096001N9+00351+00241102901ADDGA1031+030009039GF102991999999999999999999MA1999999101121MW1051
0066036553999991954011823004+51933-001250SAO  +0138EGUA V0202001N004112200019N0096001N9+00351+00241102871ADDGA1031+030009039GF102991999999999999999999MA1999999101121MW1051
0066036553999991954011900004+51933-001250SAO  +0138EGUA V0202001N007212200019N0064001N9+00411+00351102731ADDGA1041+021009039GF102991999999999999999999MA1999999100981MW1051
0066036553999991954011901004+51933-001250SAO  +0138EGUA V0202001N006710240019N0064001N9+00461+00351102701ADDGA1071+024009039GF107991999999999999999999MA1999999100951MW1051
0066036553999991954011902004+51933-001250SAO  +0138EGUA V0202001N006710240019N0064001N9+00411+00351102671ADDGA1061+024009039GF107991999999999999999999MA1999999100911MW1051
0066036553999991954011903004+51933-001250SAO  +0138EGUA V0202001N007210072019N0064001N9+00521+00411102601ADDGA1081+007209059GF108991999999999999999999MA1999999100851MW1051
0066036553999991954011904004+51933-001250SAO  +0138EGUA V0202001N005710072019N0064001N9+00521+00411102501ADDGA1081+007209059GF108991999999999999999999MA1999999100751MW1051
0066036553999991954011905004+51933-001250SAO  +0138EGUA V0202301N007210063019N0064001N9+00631+00351102431ADDGA1081+006309059GF108991999999999999999999MA1999999100681MW1051
0066036553999991954011906004+51933-001250SAO  +0138EGUA V0202001N007710063019N0064001N9+00581+00411102331ADDGA1081+006309059GF108991999999999999999999MA1999999100581MW1051
0066036553999991954011907004+51933-001250SAO  +0138EGUA V0202001N007710063019N0064001N9+00631+00411102261ADDGA1081+006309059GF108991999999999999999999MA1999999100511MW1051
0066036553999991954011908004+51933-001250SAO  +0138EGUA V0202301N007710081019N0112001N9+00631+00461102191ADDGA1081+008109059GF108991999999999999999999MA1999999100441MW1001
0082036553999991954011909004+51933-001250SAO  +0138EGUA V0202001N006710087019N0112001N9+00631+00461102161ADDGA1051+008709059GA2021+030009039GF107991999999999999999999MA1999999100411MW1001
0098036553999991954011910004+51933-001250SAO  +0138EGUA V0202001N008710300019N0112001N9+00741+00521102091ADDGA1011+001809079GA2021+013509059GA3031+030009039GF107991999999999999999999MA1999999100341MW1001
0098036553999991954011911004+51933-001250SAO  +0138EGUA V0202301N008710180019N0112001N9+00851+00631101951ADDGA1011+003009079GA2041+018009059GA3021+030009039GF107991999999999999999999MA1999999100201MW1001
0119036553999991954011912004+51933-001250SAO  +0138EGUA V0202301N009310051019N0112001N9+00851+00631101951ADDAA124999929GA1051+005109059GA2031+999999059GF108991999999999999999999KA1999M+01081KA2999N+00411MA1999999100201MW1001
0082036553999991954011913004+51933-001250SAO  +0138EGUA V0202301N009310063019N0112001N9+00911+00691101891ADDGA1061+006309059GA2021+018009059GF108991999999999999999999MA1999999100141MW1001
0066036553999991954011914004+51933-001250SAO  +0138EGUA V0202301N008710063019N0112001N9+00961+00741101791ADDGA1081+006309059GF108991999999999999999999MA1999999100031MW1611
0082036553999991954011915004+51933-001250SAO  +0138EGUA V0202301N008710063019N0128001N9+01071+00741101651ADDGA1071+006309059GA2011+021009039GF108991999999999999999999MA1999999099931MW1001
0082036553999991954011916004+51933-001250SAO  +0138EGUA V0202501N011310063019N0112001N9+01071+00741101541ADDGA1071+006309059GA2011+021009039GF108991999999999999999999MA1999999099831MW1001
0066036553999991954011917004+51933-001250SAO  +0138EGUA V0202501N010310048019N0112001N9+01021+00801101511ADDGA1081+004809059GF108991999999999999999999MA1999999099801MW1001
0066036553999991954011918004+51933-001250SAO  +0138EGUA V0202501N007710036019N0112001N9+01021+00851101481ADDGA1081+003609059GF108991999999999999999999MA1999999099761MW1001
0082036553999991954011919004+51933-001250SAO  +0138EGUA V0202501N007710042019N0112001N9+01071+00851101511ADDGA1041+002409059GA2081+004209059GF108991999999999999999999MA1999999099801MW1001
0082036553999991954011920004+51933-001250SAO  +0138EGUA V0202501N008710042019N0112001N9+01021+00911101571ADDGA1041+002409059GA2081+004209059GF108991999999999999999999MA1999999099801MW1001
0066036553999991954011921004+51933-001250SAO  +0138EGUA V0202501N007710102019N0112001N9+01021+00911101551ADDGA1081+010209059GF108991999999999999999999MA1999999099831MW1001
0066036553999991954011922004+51933-001250SAO  +0138EGUA V0202501N008210102019N0112001N9+01021+00911101551ADDGA1081+010209059GF108991999999999999999999MA1999999099831MW1001
0066036553999991954011923004+51933-001250SAO  +0138EGUA V0202501N004610102019N0160001N9+01021+00911101581ADDGA1081+010209059GF108991999999999999999999MA1999999099861MW1001
0066036553999991954012000004+51933-001250SAO  +0138EGUA V0202501N006210102019N0160001N9+01021+00911101621ADDGA1061+010209059GF107991999999999999999999MA1999999099901MW1001
0066036553999991954012001004+51933-001250SAO  +0138EGUA V0202501N006210021019N0160001N9+01021+00911101621ADDGA1061+002109079GF107991999999999999999999MA1999999099901MW1001
0066036553999991954012002004+51933-001250SAO  +0138EGUA V0202501N008710018019N0160001N9+01021+00911101621ADDGA1061+001809079GF107991999999999999999999MA1999999099901MW1001
0082036553999991954012003004+51933-001250SAO  +0138EGUA V0202501N011310018019N0160001N9+01071+00961101621ADDGA1021+000909079GA2041+001809079GF107991999999999999999999MA1999999099901MW1001
0082036553999991954012004004+51933-001250SAO  +0138EGUA V0202501N007710018019N0160001N9+01021+00961101621ADDGA1051+001809079GA2021+010209059GF107991999999999999999999MA1999999099901MW1001
0082036553999991954012005004+51933-001250SAO  +0138EGUA V0202501N007212200019N0160001N9+01021+00961101621ADDGA1021+001809079GA2021+012009059GF102991999999999999999999MA1999999099901MW1001
0082036553999991954012006004+51933-001250SAO  +0138EGUA V0202501N006212200019N0160001N9+01021+00911101651ADDGA1021+001809079GA2021+010509059GF102991999999999999999999MA1999999099931MW1001
0098036553999991954012007004+51933-001250SAO  +0138EGUA V0202301N004612200019N0160001N9+00911+00851101651ADDGA1011+001809079GA2021+009009059GA3021+075009009GF107991999999999999999999MA1999999099931MW1001
0066036553999991954012008004+51933-001250SAO  +0138EGUA V0202301N004610015019N0080001N9+00961+00911101651ADDGA1081+001509079GF108991999999999999999999MA1999999099931MW1051
0072036553999991954012009004+51933-001250SAO  +0138EGUA V0202301N005110018019N0096001N9+01021+00961101651ADDGA1081+001809079GF108991999999999999999999MA1999999099931MW1051MW2611
0072036553999991954012010004+51933-001250SAO  +0138EGUA V0202501N006710018019N0096001N9+01021+00961101651ADDGA1081+001809059GF108991999999999999999999MA1999999099931MW1051MW2611
0082036553999991954012011004+51933-001250SAO  +0138EGUA V0202501N008210027019N0096001N9+01131+00961101681ADDGA1071+002709079GA2011+010509059GF108991999999999999999999MA1999999099971MW1051
0119036553999991954012012004+51933-001250SAO  +0138EGUA V0202301N008710024019N0096001N9+01131+01021101681ADDAA124999929GA1071+002409079GA2011+024009049GF108991999999999999999999KA1999M+01241KA2999N+00851MA1999999099971MW1051
0082036553999991954012013004+51933-001250SAO  +0138EGUA V0202501N010810024019N0096001N9+01191+01021101651ADDGA1061+002409079GA2021+024009049GF108991999999999999999999MA1999999099931MW1051
0082036553999991954012014004+51933-001250SAO  +0138EGUA V0202501N010310021019N0096001N9+01191+01021101621ADDGA1061+002109079GA2021+024009049GF108991999999999999999999MA1999999099901MW1051
0082036553999991954012015004+51933-001250SAO  +0138EGUA V0202501N008710027019N0160001N9+01241+01021101581ADDGA1051+002709079GA2021+024009039GF107991999999999999999999MA1999999099861MW1001
0082036553999991954012016004+51933-001250SAO  +0138EGUA V0202501N007710240019N0160001N9+01191+01021101581ADDGA1041+002709079GA2031+024009039GF107991999999999999999999MA1999999099861MW1001
0082036553999991954012017004+51933-001250SAO  +0138EGUA V0202501N010310027019N0160001N9+01131+01021101581ADDGA1051+002709079GA2031+024009039GF108991999999999999999999MA1999999099861MW1001
0082036553999991954012018004+51933-001250SAO  +0138EGUA V0202501N008710021019N0160001N9+01131+01021101551ADDGA1051+002109079GA2031+021009039GF108991999999999999999999MA1999999099831MW1611
0082036553999991954012019004+51933-001250SAO  +0138EGUA V0202501N007710027019N0160001N9+01131+01021101551ADDGA1051+002709079GA2031+012009059GF108991999999999999999999MA1999999099831MW1001
0082036553999991954012020004+51933-001250SAO  +0138EGUA V0202501N007710120019N0160001N9+01071+00961101551ADDGA1031+002709079GA2051+012009059GF108991999999999999999999MA1999999099831MW1001
0082036553999991954012021004+51933-001250SAO  +0138EGUA V0202501N010310027019N0160001N9+01071+00961101551ADDGA1051+002709079GA2031+012009059GF108991999999999999999999MA1999999099831MW1001
0082036553999991954012022004+51933-001250SAO  +0138EGUA V0202501N008210027019N0160001N9+01071+00961101551ADDGA1051+002709079GA2031+012009059GF108991999999999999999999MA1999999099831MW1001
0082036553999991954012023004+51933-001250SAO  +0138EGUA V0202501N005110027019N0160001N9+01071+00961101551ADDGA1051+002709079GA2031+012009059GF108991999999999999999999MA1999999099831MW1001
0082036553999991954012100004+51933-001250SAO  +0138EGUA V0202501N007210120019N0160001N9+01071+00961101581ADDGA1031+002709079GA2051+012009059GF108991999999999999999999MA1999999099861MW1001
0066036553999991954012101004+51933-001250SAO  +0138EGUA V0202501N006710027019N0160001N9+01071+00851101581ADDGA1081+002709059GF108991999999999999999999MA1999999099861MW1001
0066036553999991954012102004+51933-001250SAO  +0138EGUA V0202501N007210120019N0160001N9+01071+00851101581ADDGA1081+012009059GF108991999999999999999999MA1999999099861MW1001
0066036553999991954012103004+51933-001250SAO  +0138EGUA V0202501N006710120019N0160001N9+01131+00961101581ADDGA1081+012009059GF108991999999999999999999MA1999999099861MW1001
0066036553999991954012104004+51933-001250SAO  +0138EGUA V0202501N006710051019N0160001N9+01131+00961101581ADDGA1081+005109059GF108991999999999999999999MA1999999099861MW1001
0066036553999991954012105004+51933-001250SAO  +0138EGUA V0202501N007210039019N0160001N9+01131+00961101621ADDGA1081+003909059GF108991999999999999999999MA1999999099901MW1001
0066036553999991954012106004+51933-001250SAO  +0138EGUA V0202501N005710042019N0112001N9+01131+00961101621ADDGA1081+004209079GF108991999999999999999999MA1999999099901MW1611
0082036553999991954012107004+51933-001250SAO  +0138EGUA V0202501N004110039019N0112001N9+01071+00961101621ADDGA1061+003909079GA2021+007209059GF108991999999999999999999MA1999999099901MW1001
0072036553999991954012108004+51933-001250SAO  +0138EGUA V0202501N003610030019N0064001N9+01071+00961101681ADDGA1081+003009079GF108991999999999999999999MA1999999099971MW1051MW2611
0088036553999991954012109004+51933-001250SAO  +0138EGUA V0202501N003110030019N0064001N9+01071+01021101721ADDGA1031+001509079GA2081+003009079GF108991999999999999999999MA1999999100001MW1051MW2611
0088036553999991954012110004+51933-001250SAO  +0138EGUA V0202501N002610042019N0040001N9+01071+01021101791ADDGA1021+001809079GA2081+004209079GF108991999999999999999999MA1999999100071MW1051MW2611
0082036553999991954012111004+51933-001250SAO  +0138EGUA V0209991C000010042019N0064001N9+01131+01021101821ADDGA1041+001509079GA2081+004209079GF108991999999999999999999MA1999999100101MW1051
0119036553999991954012112004+51933-001250SAO  +0138EGUA V0203601N002110015019N0012001N9+01131+01131101891ADDAA124007091GA1061+001509079GA2081+004209079GF108991999999999999999999KA1999M+01191KA2999N+00521MA1999999100171MW1451
0088036553999991954012113004+51933-001250SAO  +0138EGUA V0200501N004610006019N0004001N9+00911+00851101921ADDGA1061+999999999GA2021+000609079GF108991999999999999999999MA1999999100201MW1451MW2611
0072036553999991954012114004+51933-001250SAO  +0138EGUA V0200701N004110012019N0008001N9+00741+00741101951ADDGA1091+001209999GF109991999999999999999999MA1999999100241MW1451MW2511
0088036553999991954012115004+51933-001250SAO  +0138EGUA V0200701N003110018019N0026001N9+00741+00741101991ADDGA1021+999999999GA2081+001809079GF108991999999999999999999MA1999999100271MW1451MW2511
0104036553999991954012116004+51933-001250SAO  +0138EGUA V0200701N004610018019N0012001N9+00691+00691102021ADDGA1021+999999999GA2051+001809079GA3081+003009079GF108991999999999999999999MA1999999100301MW1451MW2511
0104036553999991954012117004+51933-001250SAO  +0138EGUA V0200901N004610015019N0012001N9+00691+00691102061ADDGA1021+999999999GA2051+001509079GA3081+003009079GF108991999999999999999999MA1999999100341MW1451MW2511
0088036553999991954012118004+51933-001250SAO  +0138EGUA V0200901N005110006019N0012001N9+00691+00691102061ADDGA1021+999999999GA2081+000609079GF108991999999999999999999MA1999999100371MW1451MW2511
0088036553999991954012119004+51933-001250SAO  +0138EGUA V0200901N005110006019N0008001N9+00691+00691102121ADDGA1021+999999999GA2081+000609079GF108991999999999999999999MA1999999100411MW1451MW2511
0088036553999991954012120004+51933-001250SAO  +0138EGUA V0200901N005110006019N0008001N9+00691+00691102121ADDGA1021+999999999GA2081+000609079GF108991999999999999999999MA1999999100411MW1451MW2511
0088036553999991954012121004+51933-001250SAO  +0138EGUA V0201101N006710006019N0008001N9+00631+00631102161ADDGA1021+999999999GA2081+000609079GF108991999999999999999999MA1999999100441MW1451MW2631
0088036553999991954012122004+51933-001250SAO  +0138EGUA V0201101N006710006019N0008001N9+00581+00581102231ADDGA1021+999999999GA2081+000609079GF108991999999999999999999MA1999999100511MW1451MW2631
0088036553999991954012123004+51933-001250SAO  +0138EGUA V0201101N006210006019N0008001N9+00581+00581102261ADDGA1021+999999999GA2081+000609079GF108991999999999999999999MA1999999100541MW1451MW2631
0088036553999991954012200004+51933-001250SAO  +0138EGUA V0201101N006210006019N0008001N9+00581+00581102331ADDGA1021+999999999GA2081+000609079GF108991999999999999999999MA1999999100611MW1451MW2631
0088036553999991954012201004+51933-001250SAO  +0138EGUA V0201101N007710006019N0010001N9+00521+00521102361ADDGA1021+999999999GA2081+000609079GF108991999999999999999999MA1999999100611MW1451MW2631
0088036553999991954012202004+51933-001250SAO  +0138EGUA V0201101N005110009019N0012001N9+00461+00461102391ADDGA1021+999999999GA2081+000909079GF108991999999999999999999MA1999999100641MW1451MW2631
0088036553999991954012203004+51933-001250SAO  +0138EGUA V0201101N005110009019N0012001N9+00461+00461102431ADDGA1021+999999999GA2081+000909079GF108991999999999999999999MA1999999100681MW1451MW2611
0088036553999991954012204004+51933-001250SAO  +0138EGUA V0201101N006210012019N0018001N9+00461+00461102431ADDGA1021+999999999GA2081+001209079GF108991999999999999999999MA1999999100681MW1451MW2611
0088036553999991954012205004+51933-001250SAO  +0138EGUA V0201101N005110024019N0024001N9+00461+00461102461ADDGA1021+999999999GA2081+002409079GF108991999999999999999999MA1999999100711MW1451MW2611
0088036553999991954012206004+51933-001250SAO  +0138EGUA V0201101N006210048019N0024001N9+00461+00461102561ADDGA1021+999999999GA2081+004809079GF108991999999999999999999MA1999999100811MW1451MW2611
0088036553999991954012207004+51933-001250SAO  +0138EGUA V0201101N003610051019N0028001N9+00461+00351102601ADDGA1011+999999999GA2081+005109079GF108991999999999999999999MA1999999100851MW1451MW2611
0088036553999991954012208004+51933-001250SAO  +0138EGUA V0201101N002610054019N0020001N9+00411+00301102671ADDGA1021+999999999GA2081+005409079GF108991999999999999999999MA1999999100911MW1451MW2611
0066036553999991954012209004+51933-001250SAO  +0138EGUA V0201101N004610090019N0040001N9+00461+00351102731ADDGA1081+009009079GF108991999999999999999999MA1999999100981MW1451
0082036553999991954012210004+51933-001250SAO  +0138EGUA V0201101N003610060019N0040001N9+00521+00411102771ADDGA1011+003009079GA2061+006009079GF107991999999999999999999MA1999999101021MW1451
0082036553999991954012211004+51933-001250SAO  +0138EGUA V0201101N004610036019N0032001N9+00581+00461102801ADDGA1051+003609079GA2051+006009059GF108991999999999999999999MA1999999101051MW1451
0135036553999991954012212004+51933-001250SAO  +0138EGUA V0201401N005110060019N0028001N9+00631+00411102801ADDAA124003091GA1011+999999999GA2021+002109079GA3041+006009059GF107991999999999999999999KA1999M+00691KA2999N+00191MA1999999101051MW1451
0098036553999991954012213004+51933-001250SAO  +0138EGUA V0201401N005110060019N0024001N9+00631+00351102801ADDGA1021+999999999GA2021+002109079GA3071+006009059GF107991999999999999999999MA1999999101051MW1451
0082036553999991954012214004+51933-001250SAO  +0138EGUA V0201401N004610084019N0048001N9+00631+00411102801ADDGA1021+003009079GA2071+008409059GF107991999999999999999999MA1999999101051MW1051
0066036553999991954012215004+51933-001250SAO  +0138EGUA V0201101N004610090019N0048001N9+00581+00301102801ADDGA1071+009009079GF107991999999999999999999MA1999999101051MW1051
0066036553999991954012216004+51933-001250SAO  +0138EGUA V0201101N005110075019N0032001N9+00581+00191102801ADDGA1081+007509079GF108991999999999999999999MA1999999101051MW1051
0066036553999991954012217004+51933-001250SAO  +0138EGUA V0201101N006210075019N0040001N9+00461+00191102831ADDGA1081+007509079GF108991999999999999999999MA1999999101081MW1051
0066036553999991954012218004+51933-001250SAO  +0138EGUA V0201101N008710105019N0040001N9+00461+00191102941ADDGA1081+010509059GF108991999999999999999999MA1999999101191MW1051
0066036553999991954012219004+51933-001250SAO  +0138EGUA V0201101N006710105019N0064001N9+00351+00081102971ADDGA1081+010509059GF108991999999999999999999MA1999999101221MW1051
0066036553999991954012220004+51933-001250SAO  +0138EGUA V0201101N007210090019N0064001N9+00301+00021103041ADDGA1081+009009059GF108991999999999999999999MA1999999101251MW1051
0066036553999991954012221004+51933-001250SAO  +0138EGUA V0201101N007210090019N0064001N9+00301+00021103081ADDGA1081+009009059GF108991999999999999999999MA1999999101291MW1051
0066036553999991954012222004+51933-001250SAO  +0138EGUA V0201401N003110090019N0064001N9+00241-00041103121ADDGA1051+009009059GF107991999999999999999999MA1999999101321MW1051
0066036553999991954012223004+51933-001250SAO  +0138EGUA V0201101N003110075019N0064001N9+00241-00041103151ADDGA1061+007509059GF107991999999999999999999MA1999999101351MW1051
0066036553999991954012300004+51933-001250SAO  +0138EGUA V0201101N005110063019N0064001N9+00191+00081103151ADDGA1081+006309059GF108991999999999999999999MA1999999101351MW1051
0066036553999991954012301004+51933-001250SAO  +0138EGUA V0201101N006710063019N0064001N9+00191+00021103151ADDGA1081+006309059GF108991999999999999999999MA1999999101351MW1051
0066036553999991954012302004+51933-001250SAO  +0138EGUA V0201101N006210063019N0064001N9+00131-00091103121ADDGA1081+006309059GF108991999999999999999999MA1999999101321MW1051
0066036553999991954012303004+51933-001250SAO  +0138EGUA V0201101N004610063019N0064001N9+00131-00091103121ADDGA1081+006309059GF108991999999999999999999MA1999999101321MW1051
0066036553999991954012304004+51933-001250SAO  +0138EGUA V0201101N004610063019N0064001N9+00131-00151103121ADDGA1081+006309059GF108991999999999999999999MA1999999101321MW1051
0066036553999991954012305004+51933-001250SAO  +0138EGUA V0201101N004110063019N0064001N9+00131-00151103121ADDGA1081+006309059GF108991999999999999999999MA1999999101321MW1051
0066036553999991954012306004+51933-001250SAO  +0138EGUA V0201401N003110063019N0064001N9+00131-00151103081ADDGA1081+006309059GF108991999999999999999999MA1999999101321MW1051
0066036553999991954012307004+51933-001250SAO  +0138EGUA V0201401N003610090019N0064001N9+00081-00201103121ADDGA1081+009009059GF108991999999999999999999MA1999999101321MW1051
0098036553999991954012308004+51933-001250SAO  +0138EGUA V0201101N004110150019N0040001N9+00081-00151103121ADDGA1021+007509079GA2031+015009059GA3021+084009009GF107991999999999999999999MA1999999101321MW1051
0082036553999991954012309004+51933-001250SAO  +0138EGUA V0201101N004610120019N0048001N9+00081-00151103121ADDGA1051+012009059GA2011+042009039GF107991999999999999999999MA1999999101321MW1051
0082036553999991954012310004+51933-001250SAO  +0138EGUA V0201101N003110120019N0048001N9+00131-00091103141ADDGA1051+012009059GA2011+042009039GF107991999999999999999999MA1999999101351MW1051
0066036553999991954012311004+51933-001250SAO  +0138EGUA V0201101N005110420019N0048001N9+00191-00041103141ADDGA1051+042009039GF107991999999999999999999MA1999999101351MW1051
0119036553999991954012312004+51933-001250SAO  +0138EGUA V0201101N004610420019N0032001N9+00241-00091103141ADDAA124000091GA1021+006009059GA2031+042009039GF107991999999999999999999KA1999M+00301KA2999N-00201MA1999999101351MW1051
0082036553999991954012313004+51933-001250SAO  +0138EGUA V0201401N006710300019N0040001N9+00241-00261103141ADDGA1021+009009059GA2031+030009039GF107991999999999999999999MA1999999101351MW1051
0066036553999991954012314004+51933-001250SAO  +0138EGUA V0201101N004110120019N0040001N9+00241-00151103111ADDGA1071+012009059GF107991999999999999999999MA1999999101321MW1051
0082036553999991954012315004+51933-001250SAO  +0138EGUA V0201101N004610300019N0032001N9+00241-00261103071ADDGA1031+007509059GA2041+030009039GF107991999999999999999999MA1999999101291MW1051
0098036553999991954012316004+51933-001250SAO  +0138EGUA V0201101N005710090019N0020001N9+00191-00091103051ADDGA1091+999999999GA2021+009009059GA3021+030009039GF107991999999999999999999MA1999999101251MW1051
0098036553999991954012317004+51933-001250SAO  +0138EGUA V0201101N006710060019N0032001N9+00131-00151103011ADDGA1091+999999999GA2031+006009059GA3021+015009059GF107991999999999999999999MA1999999101221MW1051
0082036553999991954012318004+51933-001250SAO  +0138EGUA V0201101N006210300019N0032001N9+00081-00201103011ADDGA1091+999999999GA2031+030009039GF107991999999999999999999MA1999999101221MW1051
0066036553999991954012319004+51933-001250SAO  +0138EGUA V0201101N002610300019N0040001N9-00041-00201103011ADDGA1061+030009039GF107991999999999999999999MA1999999101221MW1051
0066036553999991954012320004+51933-001250SAO  +0138EGUA V0200901N002610300019N0040001N9-00041-00311103011ADDGA1061+030009039GF107991999999999999999999MA1999999101221MW1051
0066036553999991954012321004+51933-001250SAO  +0138EGUA V0201101N002612200019N0040001N9-00091-00261103011ADDGA1031+030009039GF102991999999999999999999MA1999999101221MW1051
0066036553999991954012322004+51933-001250SAO  +0138EGUA V0200901N002112200019N0040001N9-00091-00261103011ADDGA1031+030009039GF102991999999999999999999MA1999999101221MW1051
0066036553999991954012323004+51933-001250SAO  +0138EGUA V0201101N002112200019N0040001N9-00151-00261103011ADDGA1021+030009039GF102991999999999999999999MA1999999101221MW1051
0082036553999991954012400004+51933-001250SAO  +0138EGUA V0201101N002612200019N0020001N9-00151-00261102951ADDGA1021+999999999GA2021+030009049GF102991999999999999999999MA1999999101151MW1111
